{
    "balance_change": {
        "balanceChanges": [
            {
                "account": "0xd4315668aa1d88b4c581ec6fa902e131286dd0ab",
                "assets": [
                    {
                        "address": "0x48786d8be3f5239a67a7d04cba3e9c5c4cef5159",
                        "amount": "691,124.428332677928034459",
                        "iconUrl": "",
                        "isERC1155": false,
                        "isERC721": false,
                        "sign": false,
                        "value": "2808.752044"
                    },
                    {
                        "address": "0xc02aaa39b223fe8d0a0e5c4f27ead9083c756cc2",
                        "amount": "1.54795615306074897",
                        "iconUrl": "https://assets.blocksec.com/icon/f1cb2d02c471d545bbc7722daf3277fd852d98e63d118771af7047bd8256c516.png",
                        "isERC1155": false,
                        "isERC721": false,
                        "sign": true,
                        "value": "2816.862250298690028"
                    }
                ]
            },
            {
                "account": "0xfa925512128ecb29a74e50219ba6dc465b4f65bd",
                "assets": [
                    {
                        "address": "0x48786d8be3f5239a67a7d04cba3e9c5c4cef5159",
                        "amount": "691,124.428332677928034459",
                        "iconUrl": "",
                        "isERC1155": false,
                        "isERC721": false,
                        "sign": true,
                        "value": "2808.752044"
                    },
                    {
                        "address": "0xc02aaa39b223fe8d0a0e5c4f27ead9083c756cc2",
                        "amount": "1.54795615306074897",
                        "iconUrl": "https://assets.blocksec.com/icon/f1cb2d02c471d545bbc7722daf3277fd852d98e63d118771af7047bd8256c516.png",
                        "isERC1155": false,
                        "isERC721": false,
                        "sign": false,
                        "value": "2816.862250298690028"
                    }
                ]
            }
        ]
    },
    "profile": {
        "basic_info": {
            "baseFee": "37.492566775",
            "blockNumber": 17301108,
            "callData": "0xa1fe0362000000000000000000000000000000000000000000009259ee2a4a6a17e7a09b000000000000000000000000000000000000000000000000157b71eb7710eeaa00000000000000000000000048786d8be3f5239a67a7d04cba3e9c5c4cef5159",
            "debugEnable": true,
            "errorInfo": "",
            "eventCount": 4,
            "feeRecipient": "0x1f9090aae28b8a3dceadf281b0f12828e676c326",
            "formatValue": "0",
            "gasLimit": 300000,
            "gasPrice": "126.472545724",
            "gasUsed": 116131,
            "intTxnCount": 6,
            "internalRevert": false,
            "internalRevertMessage": "",
            "isContractCreation": false,
            "isFlashloan": false,
            "maxFee": "190.512877451",
            "nonce": 23126,
            "overwritedBlockNumber": -1,
            "priorityFee": "88.979978949",
            "receiver": "0xd4315668aa1d88b4c581ec6fa902e131286dd0ab",
            "revertMessage": "",
            "sender": "0x8095b77c87e3e983eeea94411325e371bb0ce087",
            "simulationEnable": true,
            "sourceTxnHash": "0x7c53b99ccb99572d502f435523fc8018d7d120316a3f7c8c1a7046c61e3d33e7",
            "status": true,
            "timestamp": "2023-05-20T14:03:47Z",
            "transactionFee": "0.014687383207473844",
            "txnHash": "0x7c53b99ccb99572d502f435523fc8018d7d120316a3f7c8c1a7046c61e3d33e7",
            "txnIndex": 5,
            "type": 2,
            "value": "0"
        },
        "fund_flow": [
            {
                "amount": "691,124.428332677928034459",
                "from": "0xd4315668aa1d88b4c581ec6fa902e131286dd0ab",
                "id": 1,
                "isERC1155": false,
                "isERC721": false,
                "isReverted": false,
                "order": 1,
                "to": "0xfa925512128ecb29a74e50219ba6dc465b4f65bd",
                "token": "0x48786d8be3f5239a67a7d04cba3e9c5c4cef5159"
            },
            {
                "amount": "1.54795615306074897",
                "from": "0xfa925512128ecb29a74e50219ba6dc465b4f65bd",
                "id": 2,
                "isERC1155": false,
                "isERC721": false,
                "isReverted": false,
                "order": 2,
                "to": "0xd4315668aa1d88b4c581ec6fa902e131286dd0ab",
                "token": "0xc02aaa39b223fe8d0a0e5c4f27ead9083c756cc2"
            }
        ],
        "token_infos": [
            {
                "address": "0x48786d8be3f5239a67a7d04cba3e9c5c4cef5159",
                "decimals": 18
            },
            {
                "address": "0xc02aaa39b223fe8d0a0e5c4f27ead9083c756cc2",
                "decimals": 18
            },
            {
                "address": "0xeeeeeeeeeeeeeeeeeeeeeeeeeeeeeeeeeeeeeeee",
                "decimals": 18
            }
        ]
    },
    "address_label": {
        "labels": [
            {
                "address": "0xc02aaa39b223fe8d0a0e5c4f27ead9083c756cc2",
                "label": "Wrapped Ether (WETH)"
            },
            {
                "address": "0xfa925512128ecb29a74e50219ba6dc465b4f65bd",
                "label": "Uniswap V2: SWIFY 3"
            },
            {
                "address": "0x48786d8be3f5239a67a7d04cba3e9c5c4cef5159",
                "label": "Swapify (SWIFY)"
            },
            {
                "address": "0x0000000000000000000000000000000000000001",
                "label": "Precompiled"
            },
            {
                "address": "0x0000000000000000000000000000000000000002",
                "label": "Precompiled"
            },
            {
                "address": "0x0000000000000000000000000000000000000003",
                "label": "Precompiled"
            },
            {
                "address": "0x0000000000000000000000000000000000000004",
                "label": "Precompiled"
            },
            {
                "address": "0xeeeeeeeeeeeeeeeeeeeeeeeeeeeeeeeeeeeeeeee",
                "label": "Ether"
            }
        ]
    },
    "trace": {
        "accountLabels": null,
        "dataMap": {
            "-1": {
                "invocation": {
                    "address": "0x8095b77c87e3e983eeea94411325e371bb0ce087",
                    "callData": "",
                    "decodedMethod": null,
                    "errorInfo": "",
                    "fromAddress": "",
                    "gasUsed": 0,
                    "id": -1,
                    "methodDecoded": false,
                    "operation": "",
                    "output": "",
                    "revert": false,
                    "revertMessage": "",
                    "selector": "",
                    "status": false,
                    "value": ""
                },
                "nodeType": 0
            },
            "0": {
                "invocation": {
                    "address": "0xd4315668aa1d88b4c581ec6fa902e131286dd0ab",
                    "callData": "0x000000000000000000000000000000000000000000009259ee2a4a6a17e7a09b000000000000000000000000000000000000000000000000157b71eb7710eeaa00000000000000000000000048786d8be3f5239a67a7d04cba3e9c5c4cef5159",
                    "decodedMethod": {
                        "callParams": [
                            {
                                "name": "pongFee",
                                "type": "uint256",
                                "value": "691,124,428,332,677,928,034,459"
                            },
                            {
                                "name": "amountIn",
                                "type": "uint256",
                                "value": "1,547,956,153,060,748,970"
                            },
                            {
                                "name": "to",
                                "type": "address",
                                "value": "0x48786d8be3f5239a67a7d04cba3e9c5c4cef5159"
                            }
                        ],
                        "constructorArguments": "",
                        "name": "swapExactTokensForETH",
                        "returnParams": [],
                        "signature": "swapExactTokensForETH(uint256,uint256,address)"
                    },
                    "errorInfo": "",
                    "fromAddress": "0x8095b77c87e3e983eeea94411325e371bb0ce087",
                    "gasUsed": 116131,
                    "id": 0,
                    "methodDecoded": true,
                    "operation": "CALL",
                    "output": "",
                    "revert": false,
                    "revertMessage": "",
                    "selector": "0xa1fe0362",
                    "status": true,
                    "value": "0"
                },
                "nodeType": 0
            },
            "1": {
                "invocation": {
                    "address": "0xfa925512128ecb29a74e50219ba6dc465b4f65bd",
                    "callData": "0x",
                    "decodedMethod": {
                        "callParams": [],
                        "constructorArguments": "",
                        "name": "getReserves",
                        "returnParams": [
                            {
                                "name": "_reserve0",
                                "type": "uint112",
                                "value": "12,916,655,535,300,444,560,322,477"
                            },
                            {
                                "name": "_reserve1",
                                "type": "uint112",
                                "value": "30,565,278,260,565,486,101"
                            },
                            {
                                "name": "_blockTimestampLast",
                                "type": "uint32",
                                "value": "1,684,591,235"
                            }
                        ],
                        "signature": "getReserves()"
                    },
                    "errorInfo": "",
                    "fromAddress": "0xd4315668aa1d88b4c581ec6fa902e131286dd0ab",
                    "gasUsed": 2504,
                    "id": 1,
                    "methodDecoded": true,
                    "operation": "STATICCALL",
                    "output": "0x0000000000000000000000000000000000000000000aaf354cb49db8777c6fad000000000000000000000000000000000000000000000001a82daea2ddf9aa15000000000000000000000000000000000000000000000000000000006468d283",
                    "revert": false,
                    "revertMessage": "",
                    "selector": "0x0902f1ac",
                    "status": true,
                    "value": "0"
                },
                "nodeType": 0
            },
            "10": {
                "event": {
                    "contract": "0xfa925512128ecb29a74e50219ba6dc465b4f65bd",
                    "decodedLog": {
                        "name": "Swap",
                        "params": [
                            {
                                "name": "sender",
                                "type": "address",
                                "value": "0xd4315668aa1d88b4c581ec6fa902e131286dd0ab"
                            },
                            {
                                "name": "to",
                                "type": "address",
                                "value": "0xd4315668aa1d88b4c581ec6fa902e131286dd0ab"
                            },
                            {
                                "name": "amount0In",
                                "type": "uint256",
                                "value": "691,124,428,332,677,928,034,459"
                            },
                            {
                                "name": "amount1In",
                                "type": "uint256",
                                "value": "0"
                            },
                            {
                                "name": "amount0Out",
                                "type": "uint256",
                                "value": "0"
                            },
                            {
                                "name": "amount1Out",
                                "type": "uint256",
                                "value": "1,547,956,153,060,748,970"
                            }
                        ],
                        "signature": "Swap(address,uint256,uint256,uint256,uint256,address)"
                    },
                    "id": 10,
                    "logData": "0x000000000000000000000000000000000000000000009259ee2a4a6a17e7a09b00000000000000000000000000000000000000000000000000000000000000000000000000000000000000000000000000000000000000000000000000000000000000000000000000000000000000000000000000000000157b71eb7710eeaa",
                    "logDecoded": true,
                    "operation": "EVENT",
                    "revert": false,
                    "status": true,
                    "topics": [
                        "0xd78ad95fa46c994b6551d0da85fc275fe613ce37657fb8d5e3d130840159d822",
                        "0x000000000000000000000000d4315668aa1d88b4c581ec6fa902e131286dd0ab",
                        "0x000000000000000000000000d4315668aa1d88b4c581ec6fa902e131286dd0ab"
                    ]
                },
                "nodeType": 1
            },
            "2": {
                "invocation": {
                    "address": "0x48786d8be3f5239a67a7d04cba3e9c5c4cef5159",
                    "callData": "0x000000000000000000000000fa925512128ecb29a74e50219ba6dc465b4f65bd000000000000000000000000000000000000000000009259ee2a4a6a17e7a09b",
                    "decodedMethod": {
                        "callParams": [
                            {
                                "name": "recipient",
                                "type": "address",
                                "value": "0xfa925512128ecb29a74e50219ba6dc465b4f65bd"
                            },
                            {
                                "decimalAvailable": true,
                                "name": "amount",
                                "type": "uint256",
                                "value": "691,124,428,332,677,928,034,459"
                            }
                        ],
                        "constructorArguments": "",
                        "name": "transfer",
                        "returnParams": [
                            {
                                "name": "",
                                "type": "bool",
                                "value": true
                            }
                        ],
                        "signature": "transfer(address,uint256)"
                    },
                    "errorInfo": "",
                    "fromAddress": "0xd4315668aa1d88b4c581ec6fa902e131286dd0ab",
                    "gasUsed": 37162,
                    "id": 2,
                    "methodDecoded": true,
                    "operation": "CALL",
                    "output": "0x0000000000000000000000000000000000000000000000000000000000000001",
                    "revert": false,
                    "revertMessage": "",
                    "selector": "0xa9059cbb",
                    "status": true,
                    "value": "0"
                },
                "nodeType": 0
            },
            "3": {
                "event": {
                    "contract": "0x48786d8be3f5239a67a7d04cba3e9c5c4cef5159",
                    "decodedLog": {
                        "name": "Transfer",
                        "params": [
                            {
                                "name": "from",
                                "type": "address",
                                "value": "0xd4315668aa1d88b4c581ec6fa902e131286dd0ab"
                            },
                            {
                                "name": "to",
                                "type": "address",
                                "value": "0xfa925512128ecb29a74e50219ba6dc465b4f65bd"
                            },
                            {
                                "decimalAvailable": true,
                                "name": "value",
                                "type": "uint256",
                                "value": "691,124,428,332,677,928,034,459"
                            }
                        ],
                        "signature": "Transfer(address,address,uint256)"
                    },
                    "id": 3,
                    "logData": "0x000000000000000000000000000000000000000000009259ee2a4a6a17e7a09b",
                    "logDecoded": true,
                    "operation": "EVENT",
                    "revert": false,
                    "status": true,
                    "topics": [
                        "0xddf252ad1be2c89b69c2b068fc378daa952ba7f163c4a11628f55a4df523b3ef",
                        "0x000000000000000000000000d4315668aa1d88b4c581ec6fa902e131286dd0ab",
                        "0x000000000000000000000000fa925512128ecb29a74e50219ba6dc465b4f65bd"
                    ]
                },
                "nodeType": 1
            },
            "4": {
                "invocation": {
                    "address": "0xfa925512128ecb29a74e50219ba6dc465b4f65bd",
                    "callData": "0x0000000000000000000000000000000000000000000000000000000000000000000000000000000000000000000000000000000000000000157b71eb7710eeaa000000000000000000000000d4315668aa1d88b4c581ec6fa902e131286dd0ab00000000000000000000000000000000000000000000000000000000000000800000000000000000000000000000000000000000000000000000000000000000",
                    "decodedMethod": {
                        "callParams": [
                            {
                                "name": "amount0Out",
                                "type": "uint256",
                                "value": "0"
                            },
                            {
                                "name": "amount1Out",
                                "type": "uint256",
                                "value": "1,547,956,153,060,748,970"
                            },
                            {
                                "name": "to",
                                "type": "address",
                                "value": "0xd4315668aa1d88b4c581ec6fa902e131286dd0ab"
                            },
                            {
                                "name": "data",
                                "type": "bytes",
                                "value": "0x"
                            }
                        ],
                        "constructorArguments": "",
                        "name": "swap",
                        "returnParams": [],
                        "signature": "swap(uint256,uint256,address,bytes)"
                    },
                    "errorInfo": "",
                    "fromAddress": "0xd4315668aa1d88b4c581ec6fa902e131286dd0ab",
                    "gasUsed": 47884,
                    "id": 4,
                    "methodDecoded": true,
                    "operation": "CALL",
                    "output": "",
                    "revert": false,
                    "revertMessage": "",
                    "selector": "0x022c0d9f",
                    "status": true,
                    "value": "0"
                },
                "nodeType": 0
            },
            "5": {
                "invocation": {
                    "address": "0xc02aaa39b223fe8d0a0e5c4f27ead9083c756cc2",
                    "callData": "0x000000000000000000000000d4315668aa1d88b4c581ec6fa902e131286dd0ab000000000000000000000000000000000000000000000000157b71eb7710eeaa",
                    "decodedMethod": {
                        "callParams": [
                            {
                                "name": "dst",
                                "type": "address",
                                "value": "0xd4315668aa1d88b4c581ec6fa902e131286dd0ab"
                            },
                            {
                                "decimalAvailable": true,
                                "name": "wad",
                                "type": "uint256",
                                "value": "1,547,956,153,060,748,970"
                            }
                        ],
                        "constructorArguments": "",
                        "name": "transfer",
                        "returnParams": [
                            {
                                "name": "",
                                "type": "bool",
                                "value": true
                            }
                        ],
                        "signature": "transfer(address,uint256)"
                    },
                    "errorInfo": "",
                    "fromAddress": "0xfa925512128ecb29a74e50219ba6dc465b4f65bd",
                    "gasUsed": 12862,
                    "id": 5,
                    "methodDecoded": true,
                    "operation": "CALL",
                    "output": "0x0000000000000000000000000000000000000000000000000000000000000001",
                    "revert": false,
                    "revertMessage": "",
                    "selector": "0xa9059cbb",
                    "status": true,
                    "value": "0"
                },
                "nodeType": 0
            },
            "6": {
                "event": {
                    "contract": "0xc02aaa39b223fe8d0a0e5c4f27ead9083c756cc2",
                    "decodedLog": {
                        "name": "Transfer",
                        "params": [
                            {
                                "name": "src",
                                "type": "address",
                                "value": "0xfa925512128ecb29a74e50219ba6dc465b4f65bd"
                            },
                            {
                                "name": "dst",
                                "type": "address",
                                "value": "0xd4315668aa1d88b4c581ec6fa902e131286dd0ab"
                            },
                            {
                                "decimalAvailable": true,
                                "name": "wad",
                                "type": "uint256",
                                "value": "1,547,956,153,060,748,970"
                            }
                        ],
                        "signature": "Transfer(address,address,uint256)"
                    },
                    "id": 6,
                    "logData": "0x000000000000000000000000000000000000000000000000157b71eb7710eeaa",
                    "logDecoded": true,
                    "operation": "EVENT",
                    "revert": false,
                    "status": true,
                    "topics": [
                        "0xddf252ad1be2c89b69c2b068fc378daa952ba7f163c4a11628f55a4df523b3ef",
                        "0x000000000000000000000000fa925512128ecb29a74e50219ba6dc465b4f65bd",
                        "0x000000000000000000000000d4315668aa1d88b4c581ec6fa902e131286dd0ab"
                    ]
                },
                "nodeType": 1
            },
            "7": {
                "invocation": {
                    "address": "0x48786d8be3f5239a67a7d04cba3e9c5c4cef5159",
                    "callData": "0x000000000000000000000000fa925512128ecb29a74e50219ba6dc465b4f65bd",
                    "decodedMethod": {
                        "callParams": [
                            {
                                "name": "account",
                                "type": "address",
                                "value": "0xfa925512128ecb29a74e50219ba6dc465b4f65bd"
                            }
                        ],
                        "constructorArguments": "",
                        "name": "balanceOf",
                        "returnParams": [
                            {
                                "decimalAvailable": true,
                                "name": "",
                                "type": "uint256",
                                "value": "13,607,779,963,633,122,488,356,936"
                            }
                        ],
                        "signature": "balanceOf(address)"
                    },
                    "errorInfo": "",
                    "fromAddress": "0xfa925512128ecb29a74e50219ba6dc465b4f65bd",
                    "gasUsed": 665,
                    "id": 7,
                    "methodDecoded": true,
                    "operation": "STATICCALL",
                    "output": "0x0000000000000000000000000000000000000000000b418f3adee8228f641048",
                    "revert": false,
                    "revertMessage": "",
                    "selector": "0x70a08231",
                    "status": true,
                    "value": "0"
                },
                "nodeType": 0
            },
            "8": {
                "invocation": {
                    "address": "0xc02aaa39b223fe8d0a0e5c4f27ead9083c756cc2",
                    "callData": "0x000000000000000000000000fa925512128ecb29a74e50219ba6dc465b4f65bd",
                    "decodedMethod": {
                        "callParams": [
                            {
                                "name": "",
                                "type": "address",
                                "value": "0xfa925512128ecb29a74e50219ba6dc465b4f65bd"
                            }
                        ],
                        "constructorArguments": "",
                        "name": "balanceOf",
                        "returnParams": [
                            {
                                "decimalAvailable": true,
                                "name": "",
                                "type": "uint256",
                                "value": "29,017,322,107,504,737,131"
                            }
                        ],
                        "signature": "balanceOf(address)"
                    },
                    "errorInfo": "",
                    "fromAddress": "0xfa925512128ecb29a74e50219ba6dc465b4f65bd",
                    "gasUsed": 534,
                    "id": 8,
                    "methodDecoded": true,
                    "operation": "STATICCALL",
                    "output": "0x00000000000000000000000000000000000000000000000192b23cb766e8bb6b",
                    "revert": false,
                    "revertMessage": "",
                    "selector": "0x70a08231",
                    "status": true,
                    "value": "0"
                },
                "nodeType": 0
            },
            "9": {
                "event": {
                    "contract": "0xfa925512128ecb29a74e50219ba6dc465b4f65bd",
                    "decodedLog": {
                        "name": "Sync",
                        "params": [
                            {
                                "name": "reserve0",
                                "type": "uint112",
                                "value": "13,607,779,963,633,122,488,356,936"
                            },
                            {
                                "name": "reserve1",
                                "type": "uint112",
                                "value": "29,017,322,107,504,737,131"
                            }
                        ],
                        "signature": "Sync(uint112,uint112)"
                    },
                    "id": 9,
                    "logData": "0x0000000000000000000000000000000000000000000b418f3adee8228f64104800000000000000000000000000000000000000000000000192b23cb766e8bb6b",
                    "logDecoded": true,
                    "operation": "EVENT",
                    "revert": false,
                    "status": true,
                    "topics": [
                        "0x1c411e9a96e071241c2f21f7726b17ae89e3cab4c78be50e062b03a9fffbbad1"
                    ]
                },
                "nodeType": 1
            }
        },
        "gasFlame": [
            {
                "children": [
                    {
                        "children": [
                            {
                                "children": [],
                                "depth": 0,
                                "name": "Initial Gas",
                                "value": 21904
                            },
                            {
                                "children": [
                                    {
                                        "children": [],
                                        "depth": 1,
                                        "name": "getReserves",
                                        "value": 2504
                                    },
                                    {
                                        "children": [],
                                        "depth": 1,
                                        "name": "transfer",
                                        "value": 37162
                                    },
                                    {
                                        "children": [
                                            {
                                                "children": [],
                                                "depth": 2,
                                                "name": "transfer",
                                                "value": 12862
                                            },
                                            {
                                                "children": [],
                                                "depth": 2,
                                                "name": "balanceOf",
                                                "value": 665
                                            },
                                            {
                                                "children": [],
                                                "depth": 2,
                                                "name": "balanceOf",
                                                "value": 534
                                            }
                                        ],
                                        "depth": 1,
                                        "name": "swap",
                                        "value": 47884
                                    }
                                ],
                                "depth": 0,
                                "name": "Executed Gas",
                                "value": 106627
                            }
                        ],
                        "depth": -1,
                        "name": "Actual Gas Used",
                        "value": 116131
                    },
                    {
                        "children": [],
                        "depth": -1,
                        "name": "Refunded Gas",
                        "value": 12400
                    }
                ],
                "depth": -2,
                "name": "Total Gas",
                "value": 128531
            }
        ],
        "isConfirmed": true,
        "mainTrace": [
            {
                "children": [
                    {
                        "children": [
                            {
                                "children": [],
                                "depth": 1,
                                "id": 1,
                                "order": 1
                            },
                            {
                                "children": [
                                    {
                                        "children": [],
                                        "depth": 2,
                                        "id": 3,
                                        "order": 3
                                    }
                                ],
                                "depth": 1,
                                "id": 2,
                                "order": 2
                            },
                            {
                                "children": [
                                    {
                                        "children": [
                                            {
                                                "children": [],
                                                "depth": 3,
                                                "id": 6,
                                                "order": 6
                                            }
                                        ],
                                        "depth": 2,
                                        "id": 5,
                                        "order": 5
                                    },
                                    {
                                        "children": [],
                                        "depth": 2,
                                        "id": 7,
                                        "order": 7
                                    },
                                    {
                                        "children": [],
                                        "depth": 2,
                                        "id": 8,
                                        "order": 8
                                    },
                                    {
                                        "children": [],
                                        "depth": 2,
                                        "id": 9,
                                        "order": 9
                                    },
                                    {
                                        "children": [],
                                        "depth": 2,
                                        "id": 10,
                                        "order": 10
                                    }
                                ],
                                "depth": 1,
                                "id": 4,
                                "order": 4
                            }
                        ],
                        "depth": 0,
                        "id": 0,
                        "order": 0
                    }
                ],
                "depth": -1,
                "id": -1,
                "order": -1
            }
        ],
        "mainTraceNodeCount": 11,
        "parentIdMap": {
            "0": -1,
            "1": 0,
            "10": 4,
            "2": 0,
            "3": 2,
            "4": 0,
            "5": 4,
            "6": 5,
            "7": 4,
            "8": 4,
            "9": 4
        },
        "tidyTrace": [
            {
                "children": [
                    {
                        "children": [
                            {
                                "children": [
                                    {
                                        "children": [],
                                        "depth": 2,
                                        "id": 3,
                                        "order": 3
                                    }
                                ],
                                "depth": 1,
                                "id": 2,
                                "order": 2
                            },
                            {
                                "children": [
                                    {
                                        "children": [
                                            {
                                                "children": [],
                                                "depth": 3,
                                                "id": 6,
                                                "order": 6
                                            }
                                        ],
                                        "depth": 2,
                                        "id": 5,
                                        "order": 5
                                    },
                                    {
                                        "children": [],
                                        "depth": 2,
                                        "id": 9,
                                        "order": 9
                                    },
                                    {
                                        "children": [],
                                        "depth": 2,
                                        "id": 10,
                                        "order": 10
                                    }
                                ],
                                "depth": 1,
                                "id": 4,
                                "order": 4
                            }
                        ],
                        "depth": 0,
                        "id": 0,
                        "order": 0
                    }
                ],
                "depth": -1,
                "id": -1,
                "order": -1
            }
        ],
        "tidyTraceNodeCount": 8
    },
    "state_change": {
        "stateChanges": [
            {
                "address": "0x48786d8be3f5239a67a7d04cba3e9c5c4cef5159",
                "erc": "ERC-20",
                "slots": [
                    {
                        "current": "0x0000000000000000000000000000000000000000000b418f3adee8228f641048",
                        "key": "0x75850c75fb1b5ca3252799283de7a09113b2934c2acac12b8d3b52c55ce6e0af",
                        "prev": "0x0000000000000000000000000000000000000000000aaf354cb49db8777c6fad"
                    },
                    {
                        "current": "0x0000000000000000000000000000000000000000000000000000000000000000",
                        "key": "0x08fb151b314ea28dd3a351cd8218e32b19fad53618135d4ef21fc78db4548260",
                        "prev": "0x000000000000000000000000000000000000000000009259ee2a4a6a17e7a09b"
                    }
                ],
                "storageVariables": [
                    {
                        "name": "_balances",
                        "type": "mapping(address => uint256)",
                        "value": {
                            "pairs": [
                                {
                                    "key": "0xd4315668aa1d88b4c581ec6fa902e131286dd0ab",
                                    "value": {
                                        "current": "0",
                                        "prev": "691124428332677928034459",
                                        "typeTag": 1
                                    }
                                },
                                {
                                    "key": "0xfa925512128ecb29a74e50219ba6dc465b4f65bd",
                                    "value": {
                                        "current": "13607779963633122488356936",
                                        "prev": "12916655535300444560322477",
                                        "typeTag": 1
                                    }
                                }
                            ],
                            "typeTag": 4
                        }
                    }
                ]
            },
            {
                "address": "0xc02aaa39b223fe8d0a0e5c4f27ead9083c756cc2",
                "erc": "ERC-20",
                "slots": [
                    {
                        "current": "0x00000000000000000000000000000000000000000000000192b23cb766e8bb6b",
                        "key": "0xa5e0382f815c6973e9131aef805f327e4eda6487650286fd3c738e98a51b77cf",
                        "prev": "0x000000000000000000000000000000000000000000000001a82daea2ddf9aa15"
                    },
                    {
                        "current": "0x0000000000000000000000000000000000000000000000001d84ef89480c4a98",
                        "key": "0x004663a9afff6f256fca337601aa7f689bceee457d72b5f0ccabc41203dceb45",
                        "prev": "0x00000000000000000000000000000000000000000000000008097d9dd0fb5bee"
                    }
                ],
                "storageVariables": [
                    {
                        "name": "balanceOf",
                        "type": "mapping(address => uint256)",
                        "value": {
                            "pairs": [
                                {
                                    "key": "0xd4315668aa1d88b4c581ec6fa902e131286dd0ab",
                                    "value": {
                                        "current": "2127088296924039832",
                                        "prev": "579132143863290862",
                                        "typeTag": 1
                                    }
                                },
                                {
                                    "key": "0xfa925512128ecb29a74e50219ba6dc465b4f65bd",
                                    "value": {
                                        "current": "29017322107504737131",
                                        "prev": "30565278260565486101",
                                        "typeTag": 1
                                    }
                                }
                            ],
                            "typeTag": 4
                        }
                    }
                ]
            },
            {
                "address": "0xd4315668aa1d88b4c581ec6fa902e131286dd0ab",
                "erc": "",
                "slots": [
                    {
                        "current": "0x0000000000000000000000000000000000000000000000000000000000000000",
                        "key": "0xa495b39851412e31f05233a3cc980db8e1c1d99bae2a5967fc75f5bdd22d4c81",
                        "prev": "0x00000000000000000000000000000000000000000000000012cf189e67c6997f"
                    }
                ],
                "storageVariables": []
            },
            {
                "address": "0xfa925512128ecb29a74e50219ba6dc465b4f65bd",
                "erc": "ERC-20",
                "slots": [
                    {
                        "current": "0x000000000000000000000000000000000000152d4dabdcd8801b83894b888708",
                        "key": "0x0000000000000000000000000000000000000000000000000000000000000009",
                        "prev": "0x000000000000000000000000000000000000150f8723059303f15c4d35029c08"
                    },
                    {
                        "current": "0x00000000000000000000000000246540215c333a9465509b650d82e83d6b6054",
                        "key": "0x000000000000000000000000000000000000000000000000000000000000000a",
                        "prev": "0x0000000000000000000000000024606a11079ecc2befae356179d163bff689d4"
                    },
                    {
                        "current": "0x6468d34300000000000192b23cb766e8bb6b0000000b418f3adee8228f641048",
                        "key": "0x0000000000000000000000000000000000000000000000000000000000000008",
                        "prev": "0x6468d283000000000001a82daea2ddf9aa150000000aaf354cb49db8777c6fad"
                    }
                ],
                "storageVariables": [
                    {
                        "name": "price0CumulativeLast",
                        "type": "uint256",
                        "value": {
                            "current": "429519907104812725834212574791432",
                            "prev": "427160846929452399966016099228680",
                            "typeTag": 1
                        }
                    },
                    {
                        "name": "price1CumulativeLast",
                        "type": "uint256",
                        "value": {
                            "current": "811646990440947374005160154999341654173507668",
                            "prev": "811225699163887839463943746167323037957261780",
                            "typeTag": 1
                        }
                    },
                    {
                        "name": "reserve0",
                        "type": "uint112",
                        "value": {
                            "current": "13607779963633122488356936",
                            "prev": "12916655535300444560322477",
                            "typeTag": 1
                        }
                    },
                    {
                        "name": "reserve1",
                        "type": "uint112",
                        "value": {
                            "current": "29017322107504737131",
                            "prev": "30565278260565486101",
                            "typeTag": 1
                        }
                    },
                    {
                        "name": "blockTimestampLast",
                        "type": "uint32",
                        "value": {
                            "current": "1684591427",
                            "prev": "1684591235",
                            "typeTag": 1
                        }
                    }
                ]
            }
        ]
    }
}