{
    "balance_change": {
        "balanceChanges": [
            {
                "account": "0x1e23d3a4c993a1e95605eb27a46c75d7e632ac17",
                "assets": [
                    {
                        "address": "0x6a27348483d59150ae76ef4c0f3622a78b0ca698",
                        "amount": "9.177656",
                        "iconUrl": "https://assets.blocksec.com/icon/078dbdb6313ce59c14aaca1fff025e78b12e543555f726fb8919489c92394147.png",
                        "isERC1155": false,
                        "isERC721": false,
                        "sign": false,
                        "value": ""
                    }
                ]
            },
            {
                "account": "0x62e83b901268c1a3b0c5aceff1438009d5a07365",
                "assets": [
                    {
                        "address": "0x6a27348483d59150ae76ef4c0f3622a78b0ca698",
                        "amount": "9.177656",
                        "iconUrl": "https://assets.blocksec.com/icon/078dbdb6313ce59c14aaca1fff025e78b12e543555f726fb8919489c92394147.png",
                        "isERC1155": false,
                        "isERC721": false,
                        "sign": true,
                        "value": ""
                    }
                ]
            }
        ]
    },
    "profile": {
        "basic_info": {
            "baseFee": "",
            "blockNumber": 6411287,
            "callData": "0xa9059cbb00000000000000000000000062e83b901268c1a3b0c5aceff1438009d5a073650000000000000000000000000000000000000000000000007f5d9581b6bb8000",
            "debugEnable": true,
            "errorInfo": "",
            "eventCount": 1,
            "feeRecipient": "0xea674fdde714fd979de3edf0f56aa9716b898ec8",
            "formatValue": "0",
            "gasLimit": 150000,
            "gasPrice": "8.031250001",
            "gasUsed": 52155,
            "intTxnCount": 0,
            "internalRevert": false,
            "internalRevertMessage": "",
            "isContractCreation": false,
            "isFlashloan": false,
            "maxFee": "",
            "nonce": 1120,
            "overwritedBlockNumber": -1,
            "priorityFee": "",
            "receiver": "0x6a27348483d59150ae76ef4c0f3622a78b0ca698",
            "revertMessage": "",
            "sender": "0x1e23d3a4c993a1e95605eb27a46c75d7e632ac17",
            "simulationEnable": true,
            "sourceTxnHash": "0x7ddc36fa8b53dd53feae32471632953c4f777161b44852cc243ed2df87b4dff6",
            "status": true,
            "timestamp": "2018-09-27T21:21:37Z",
            "transactionFee": "0.000418869843802155",
            "txnHash": "0x7ddc36fa8b53dd53feae32471632953c4f777161b44852cc243ed2df87b4dff6",
            "txnIndex": 60,
            "type": 0,
            "value": "0"
        },
        "fund_flow": [
            {
                "amount": "9.177656",
                "from": "0x1e23d3a4c993a1e95605eb27a46c75d7e632ac17",
                "id": 1,
                "isERC1155": false,
                "isERC721": false,
                "isReverted": false,
                "order": 1,
                "to": "0x62e83b901268c1a3b0c5aceff1438009d5a07365",
                "token": "0x6a27348483d59150ae76ef4c0f3622a78b0ca698"
            }
        ],
        "token_infos": [
            {
                "address": "0x6a27348483d59150ae76ef4c0f3622a78b0ca698",
                "decimals": 18
            },
            {
                "address": "0xc02aaa39b223fe8d0a0e5c4f27ead9083c756cc2",
                "decimals": 18
            },
            {
                "address": "0xeeeeeeeeeeeeeeeeeeeeeeeeeeeeeeeeeeeeeeee",
                "decimals": 18
            }
        ]
    },
    "address_label": {
        "labels": [
            {
                "address": "0xeeeeeeeeeeeeeeeeeeeeeeeeeeeeeeeeeeeeeeee",
                "label": "Ether"
            },
            {
                "address": "0x6a27348483d59150ae76ef4c0f3622a78b0ca698",
                "label": "MetaGraphChain (BKBT)"
            },
            {
                "address": "0x0000000000000000000000000000000000000001",
                "label": "Precompiled"
            },
            {
                "address": "0x0000000000000000000000000000000000000002",
                "label": "Precompiled"
            },
            {
                "address": "0x0000000000000000000000000000000000000003",
                "label": "Precompiled"
            },
            {
                "address": "0x0000000000000000000000000000000000000004",
                "label": "Precompiled"
            }
        ]
    },
    "trace": {
        "accountLabels": null,
        "dataMap": {
            "-1": {
                "invocation": {
                    "address": "0x1e23d3a4c993a1e95605eb27a46c75d7e632ac17",
                    "callData": "",
                    "decodedMethod": null,
                    "errorInfo": "",
                    "fromAddress": "",
                    "gasUsed": 0,
                    "id": -1,
                    "methodDecoded": false,
                    "operation": "",
                    "output": "",
                    "revert": false,
                    "revertMessage": "",
                    "selector": "",
                    "status": false,
                    "value": ""
                },
                "nodeType": 0
            },
            "0": {
                "invocation": {
                    "address": "0x6a27348483d59150ae76ef4c0f3622a78b0ca698",
                    "callData": "0x00000000000000000000000062e83b901268c1a3b0c5aceff1438009d5a073650000000000000000000000000000000000000000000000007f5d9581b6bb8000",
                    "decodedMethod": {
                        "callParams": [
                            {
                                "name": "_to",
                                "type": "address",
                                "value": "0x62e83b901268c1a3b0c5aceff1438009d5a07365"
                            },
                            {
                                "decimalAvailable": true,
                                "name": "_value",
                                "type": "uint256",
                                "value": "9,177,656,000,000,000,000"
                            }
                        ],
                        "constructorArguments": "",
                        "name": "transfer",
                        "returnParams": [
                            {
                                "name": "",
                                "type": "bool",
                                "value": true
                            }
                        ],
                        "signature": "transfer(address,uint256)"
                    },
                    "errorInfo": "",
                    "fromAddress": "0x1e23d3a4c993a1e95605eb27a46c75d7e632ac17",
                    "gasUsed": 52155,
                    "id": 0,
                    "methodDecoded": true,
                    "operation": "CALL",
                    "output": "0x0000000000000000000000000000000000000000000000000000000000000001",
                    "revert": false,
                    "revertMessage": "",
                    "selector": "0xa9059cbb",
                    "status": true,
                    "value": "0"
                },
                "nodeType": 0
            },
            "1": {
                "event": {
                    "contract": "0x6a27348483d59150ae76ef4c0f3622a78b0ca698",
                    "decodedLog": {
                        "name": "Transfer",
                        "params": [
                            {
                                "name": "from",
                                "type": "address",
                                "value": "0x1e23d3a4c993a1e95605eb27a46c75d7e632ac17"
                            },
                            {
                                "name": "to",
                                "type": "address",
                                "value": "0x62e83b901268c1a3b0c5aceff1438009d5a07365"
                            },
                            {
                                "decimalAvailable": true,
                                "name": "value",
                                "type": "uint256",
                                "value": "9,177,656,000,000,000,000"
                            }
                        ],
                        "signature": "Transfer(address,address,uint256)"
                    },
                    "id": 1,
                    "logData": "0x0000000000000000000000000000000000000000000000007f5d9581b6bb8000",
                    "logDecoded": true,
                    "operation": "EVENT",
                    "revert": false,
                    "status": true,
                    "topics": [
                        "0xddf252ad1be2c89b69c2b068fc378daa952ba7f163c4a11628f55a4df523b3ef",
                        "0x0000000000000000000000001e23d3a4c993a1e95605eb27a46c75d7e632ac17",
                        "0x00000000000000000000000062e83b901268c1a3b0c5aceff1438009d5a07365"
                    ]
                },
                "nodeType": 1
            }
        },
        "gasFlame": [
            {
                "children": [
                    {
                        "children": [
                            {
                                "children": [],
                                "depth": 0,
                                "name": "Initial Gas",
                                "value": 23256
                            },
                            {
                                "children": [],
                                "depth": 0,
                                "name": "Executed Gas",
                                "value": 28899
                            }
                        ],
                        "depth": -1,
                        "name": "Actual Gas Used",
                        "value": 52155
                    },
                    {
                        "children": [],
                        "depth": -1,
                        "name": "Refunded Gas",
                        "value": 0
                    }
                ],
                "depth": -2,
                "name": "Total Gas",
                "value": 52155
            }
        ],
        "isConfirmed": true,
        "mainTrace": [
            {
                "children": [
                    {
                        "children": [
                            {
                                "children": [],
                                "depth": 1,
                                "id": 1,
                                "order": 1
                            }
                        ],
                        "depth": 0,
                        "id": 0,
                        "order": 0
                    }
                ],
                "depth": -1,
                "id": -1,
                "order": -1
            }
        ],
        "mainTraceNodeCount": 2,
        "parentIdMap": {
            "0": -1,
            "1": 0
        },
        "tidyTrace": [
            {
                "children": [
                    {
                        "children": [
                            {
                                "children": [],
                                "depth": 1,
                                "id": 1,
                                "order": 1
                            }
                        ],
                        "depth": 0,
                        "id": 0,
                        "order": 0
                    }
                ],
                "depth": -1,
                "id": -1,
                "order": -1
            }
        ],
        "tidyTraceNodeCount": 2
    },
    "state_change": {
        "stateChanges": [
            {
                "address": "0x6a27348483d59150ae76ef4c0f3622a78b0ca698",
                "erc": "ERC-20",
                "slots": [
                    {
                        "current": "0x0000000000000000000000000000000000000000000000007f5d9581b6bb8000",
                        "key": "0x32c4f9507b684c12d9b4666a25d64f1bd6a8570a6b2563b3201254e14058b6cc",
                        "prev": "0x0000000000000000000000000000000000000000000000000000000000000000"
                    },
                    {
                        "current": "0x00000000000000000000000000000000000000000000d165f9e20f0adb65a000",
                        "key": "0x22ae0556874db311534f32a216f5080517d888ee3d138ce5a8e12a0dfdb87faa",
                        "prev": "0x00000000000000000000000000000000000000000000d166793fa48c92212000"
                    }
                ],
                "storageVariables": [
                    {
                        "name": "balances",
                        "type": "mapping(address => uint256)",
                        "value": {
                            "pairs": [
                                {
                                    "key": "0x1e23d3a4c993a1e95605eb27a46c75d7e632ac17",
                                    "value": {
                                        "current": "988855722042000000000000",
                                        "prev": "988864899698000000000000",
                                        "typeTag": 1
                                    }
                                },
                                {
                                    "key": "0x62e83b901268c1a3b0c5aceff1438009d5a07365",
                                    "value": {
                                        "current": "9177656000000000000",
                                        "prev": "0",
                                        "typeTag": 1
                                    }
                                }
                            ],
                            "typeTag": 4
                        }
                    }
                ]
            }
        ]
    }
}