{
    "balance_change": {
        "balanceChanges": [
            {
                "account": "0x2644e9c8a1389d4b4e1cebb5c525449362646754",
                "assets": [
                    {
                        "address": "0x9eec65e5b998db6845321baa915ec3338b1a469b",
                        "amount": "20",
                        "iconUrl": "",
                        "isERC1155": false,
                        "isERC721": false,
                        "sign": false,
                        "value": ""
                    }
                ]
            },
            {
                "account": "0x492e04a0b4719f5e73288a4ddac7ce46967beca2",
                "assets": [
                    {
                        "address": "0x9eec65e5b998db6845321baa915ec3338b1a469b",
                        "amount": "20",
                        "iconUrl": "",
                        "isERC1155": false,
                        "isERC721": false,
                        "sign": true,
                        "value": ""
                    }
                ]
            }
        ]
    },
    "profile": {
        "basic_info": {
            "baseFee": "",
            "blockNumber": 8593248,
            "callData": "0xa9059cbb000000000000000000000000492e04a0b4719f5e73288a4ddac7ce46967beca2000000000000000000000000000000000000000000000001158e460913d00000",
            "debugEnable": true,
            "errorInfo": "",
            "eventCount": 1,
            "feeRecipient": "0xea674fdde714fd979de3edf0f56aa9716b898ec8",
            "formatValue": "0",
            "gasLimit": 100000,
            "gasPrice": "16",
            "gasUsed": 38478,
            "intTxnCount": 0,
            "internalRevert": false,
            "internalRevertMessage": "",
            "isContractCreation": false,
            "isFlashloan": false,
            "maxFee": "",
            "nonce": 3517,
            "overwritedBlockNumber": -1,
            "priorityFee": "",
            "receiver": "0x9eec65e5b998db6845321baa915ec3338b1a469b",
            "revertMessage": "",
            "sender": "0x2644e9c8a1389d4b4e1cebb5c525449362646754",
            "simulationEnable": true,
            "sourceTxnHash": "0x7dba715aafa06939145b9fd11f5435d2103213f4f6a77e49c87a1180bf8afdd1",
            "status": true,
            "timestamp": "2019-09-21T14:55:09Z",
            "transactionFee": "0.000615648",
            "txnHash": "0x7dba715aafa06939145b9fd11f5435d2103213f4f6a77e49c87a1180bf8afdd1",
            "txnIndex": 64,
            "type": 0,
            "value": "0"
        },
        "fund_flow": [
            {
                "amount": "20",
                "from": "0x2644e9c8a1389d4b4e1cebb5c525449362646754",
                "id": 1,
                "isERC1155": false,
                "isERC721": false,
                "isReverted": false,
                "order": 1,
                "to": "0x492e04a0b4719f5e73288a4ddac7ce46967beca2",
                "token": "0x9eec65e5b998db6845321baa915ec3338b1a469b"
            }
        ],
        "token_infos": [
            {
                "address": "0xeeeeeeeeeeeeeeeeeeeeeeeeeeeeeeeeeeeeeeee",
                "decimals": 18
            },
            {
                "address": "0x9eec65e5b998db6845321baa915ec3338b1a469b",
                "decimals": 18
            },
            {
                "address": "0xc02aaa39b223fe8d0a0e5c4f27ead9083c756cc2",
                "decimals": 18
            }
        ]
    },
    "address_label": {
        "labels": [
            {
                "address": "0x9eec65e5b998db6845321baa915ec3338b1a469b",
                "label": "OnlyChain Token"
            },
            {
                "address": "0x0000000000000000000000000000000000000001",
                "label": "Precompiled"
            },
            {
                "address": "0x0000000000000000000000000000000000000002",
                "label": "Precompiled"
            },
            {
                "address": "0x0000000000000000000000000000000000000003",
                "label": "Precompiled"
            },
            {
                "address": "0x0000000000000000000000000000000000000004",
                "label": "Precompiled"
            },
            {
                "address": "0xeeeeeeeeeeeeeeeeeeeeeeeeeeeeeeeeeeeeeeee",
                "label": "Ether"
            }
        ]
    },
    "trace": {
        "accountLabels": null,
        "dataMap": {
            "-1": {
                "invocation": {
                    "address": "0x2644e9c8a1389d4b4e1cebb5c525449362646754",
                    "callData": "",
                    "decodedMethod": null,
                    "errorInfo": "",
                    "fromAddress": "",
                    "gasUsed": 0,
                    "id": -1,
                    "methodDecoded": false,
                    "operation": "",
                    "output": "",
                    "revert": false,
                    "revertMessage": "",
                    "selector": "",
                    "status": false,
                    "value": ""
                },
                "nodeType": 0
            },
            "0": {
                "invocation": {
                    "address": "0x9eec65e5b998db6845321baa915ec3338b1a469b",
                    "callData": "0x000000000000000000000000492e04a0b4719f5e73288a4ddac7ce46967beca2000000000000000000000000000000000000000000000001158e460913d00000",
                    "decodedMethod": {
                        "callParams": [
                            {
                                "name": "_to",
                                "type": "address",
                                "value": "0x492e04a0b4719f5e73288a4ddac7ce46967beca2"
                            },
                            {
                                "decimalAvailable": true,
                                "name": "_value",
                                "type": "uint256",
                                "value": "20,000,000,000,000,000,000"
                            }
                        ],
                        "constructorArguments": "",
                        "name": "transfer",
                        "returnParams": [],
                        "signature": "transfer(address,uint256)"
                    },
                    "errorInfo": "",
                    "fromAddress": "0x2644e9c8a1389d4b4e1cebb5c525449362646754",
                    "gasUsed": 38478,
                    "id": 0,
                    "methodDecoded": true,
                    "operation": "CALL",
                    "output": "",
                    "revert": false,
                    "revertMessage": "",
                    "selector": "0xa9059cbb",
                    "status": true,
                    "value": "0"
                },
                "nodeType": 0
            },
            "1": {
                "event": {
                    "contract": "0x9eec65e5b998db6845321baa915ec3338b1a469b",
                    "decodedLog": {
                        "name": "Transfer",
                        "params": [
                            {
                                "name": "from",
                                "type": "address",
                                "value": "0x2644e9c8a1389d4b4e1cebb5c525449362646754"
                            },
                            {
                                "name": "to",
                                "type": "address",
                                "value": "0x492e04a0b4719f5e73288a4ddac7ce46967beca2"
                            },
                            {
                                "decimalAvailable": true,
                                "name": "value",
                                "type": "uint256",
                                "value": "20,000,000,000,000,000,000"
                            }
                        ],
                        "signature": "Transfer(address,address,uint256)"
                    },
                    "id": 1,
                    "logData": "0x000000000000000000000000000000000000000000000001158e460913d00000",
                    "logDecoded": true,
                    "operation": "EVENT",
                    "revert": false,
                    "status": true,
                    "topics": [
                        "0xddf252ad1be2c89b69c2b068fc378daa952ba7f163c4a11628f55a4df523b3ef",
                        "0x0000000000000000000000002644e9c8a1389d4b4e1cebb5c525449362646754",
                        "0x000000000000000000000000492e04a0b4719f5e73288a4ddac7ce46967beca2"
                    ]
                },
                "nodeType": 1
            }
        },
        "gasFlame": [
            {
                "children": [
                    {
                        "children": [
                            {
                                "children": [],
                                "depth": 0,
                                "name": "Initial Gas",
                                "value": 23256
                            },
                            {
                                "children": [],
                                "depth": 0,
                                "name": "Executed Gas",
                                "value": 15222
                            }
                        ],
                        "depth": -1,
                        "name": "Actual Gas Used",
                        "value": 38478
                    },
                    {
                        "children": [],
                        "depth": -1,
                        "name": "Refunded Gas",
                        "value": 0
                    }
                ],
                "depth": -2,
                "name": "Total Gas",
                "value": 38478
            }
        ],
        "isConfirmed": true,
        "mainTrace": [
            {
                "children": [
                    {
                        "children": [
                            {
                                "children": [],
                                "depth": 1,
                                "id": 1,
                                "order": 1
                            }
                        ],
                        "depth": 0,
                        "id": 0,
                        "order": 0
                    }
                ],
                "depth": -1,
                "id": -1,
                "order": -1
            }
        ],
        "mainTraceNodeCount": 2,
        "parentIdMap": {
            "0": -1,
            "1": 0
        },
        "tidyTrace": [
            {
                "children": [
                    {
                        "children": [
                            {
                                "children": [],
                                "depth": 1,
                                "id": 1,
                                "order": 1
                            }
                        ],
                        "depth": 0,
                        "id": 0,
                        "order": 0
                    }
                ],
                "depth": -1,
                "id": -1,
                "order": -1
            }
        ],
        "tidyTraceNodeCount": 2
    },
    "state_change": {
        "stateChanges": [
            {
                "address": "0x9eec65e5b998db6845321baa915ec3338b1a469b",
                "erc": "",
                "slots": [
                    {
                        "current": "0x000000000000000000000000000000000000000000000056bc75e2d631000000",
                        "key": "0xf3dabf71211676aa1e1051c4b2f2805459302aa5d16f87c0631265037abddc30",
                        "prev": "0x000000000000000000000000000000000000000000000055a6e79ccd1d300000"
                    },
                    {
                        "current": "0x000000000000000000000000000000000000000000000b33b6f99bc9b4100000",
                        "key": "0x0682b3423468d3cb44bb6d7b047bcb6dfe774e3d89b16d100b5d5d5877254d84",
                        "prev": "0x000000000000000000000000000000000000000000000b34cc87e1d2c7e00000"
                    }
                ],
                "storageVariables": [
                    {
                        "name": "balanceOf",
                        "type": "mapping(address => uint256)",
                        "value": {
                            "pairs": [
                                {
                                    "key": "0x2644e9c8a1389d4b4e1cebb5c525449362646754",
                                    "value": {
                                        "current": "52900000000000000000000",
                                        "prev": "52920000000000000000000",
                                        "typeTag": 1
                                    }
                                },
                                {
                                    "key": "0x492e04a0b4719f5e73288a4ddac7ce46967beca2",
                                    "value": {
                                        "current": "1600000000000000000000",
                                        "prev": "1580000000000000000000",
                                        "typeTag": 1
                                    }
                                }
                            ],
                            "typeTag": 4
                        }
                    }
                ]
            }
        ]
    }
}