{
    "balance_change": {
        "balanceChanges": [
            {
                "account": "0xef2d00aa295dada174ad02beead29491292ee5e9",
                "assets": [
                    {
                        "address": "0x115e29615d1c10c8ddf826e4faec64ef6c1e3357",
                        "amount": "3.2967033",
                        "iconUrl": "",
                        "isERC1155": false,
                        "isERC721": false,
                        "sign": false,
                        "value": ""
                    }
                ]
            },
            {
                "account": "0x61dc42e268929fdc6190890b3c414a0032938db7",
                "assets": [
                    {
                        "address": "0x115e29615d1c10c8ddf826e4faec64ef6c1e3357",
                        "amount": "3.2967033",
                        "iconUrl": "",
                        "isERC1155": false,
                        "isERC721": false,
                        "sign": true,
                        "value": ""
                    }
                ]
            }
        ]
    },
    "profile": {
        "basic_info": {
            "baseFee": "",
            "blockNumber": 9860521,
            "callData": "0xa9059cbb00000000000000000000000061dc42e268929fdc6190890b3c414a0032938db70000000000000000000000000000000000000000000000000000000013a65eba",
            "debugEnable": true,
            "errorInfo": "",
            "eventCount": 1,
            "feeRecipient": "0xea674fdde714fd979de3edf0f56aa9716b898ec8",
            "formatValue": "0",
            "gasLimit": 80000,
            "gasPrice": "34",
            "gasUsed": 51261,
            "intTxnCount": 0,
            "internalRevert": false,
            "internalRevertMessage": "",
            "isContractCreation": false,
            "isFlashloan": false,
            "maxFee": "",
            "nonce": 10888,
            "overwritedBlockNumber": -1,
            "priorityFee": "",
            "receiver": "0x115e29615d1c10c8ddf826e4faec64ef6c1e3357",
            "revertMessage": "",
            "sender": "0xef2d00aa295dada174ad02beead29491292ee5e9",
            "simulationEnable": true,
            "sourceTxnHash": "0x7df5d9d4099e91131607bb48bca5ccdff721a5a3274f5f509f81b0d78fc6afe6",
            "status": true,
            "timestamp": "2020-04-12T23:35:17Z",
            "transactionFee": "0.001742874",
            "txnHash": "0x7df5d9d4099e91131607bb48bca5ccdff721a5a3274f5f509f81b0d78fc6afe6",
            "txnIndex": 8,
            "type": 0,
            "value": "0"
        },
        "fund_flow": [
            {
                "amount": "3.2967033",
                "from": "0xef2d00aa295dada174ad02beead29491292ee5e9",
                "id": 1,
                "isERC1155": false,
                "isERC721": false,
                "isReverted": false,
                "order": 1,
                "to": "0x61dc42e268929fdc6190890b3c414a0032938db7",
                "token": "0x115e29615d1c10c8ddf826e4faec64ef6c1e3357"
            }
        ],
        "token_infos": [
            {
                "address": "0x115e29615d1c10c8ddf826e4faec64ef6c1e3357",
                "decimals": 8
            },
            {
                "address": "0xc02aaa39b223fe8d0a0e5c4f27ead9083c756cc2",
                "decimals": 18
            },
            {
                "address": "0xeeeeeeeeeeeeeeeeeeeeeeeeeeeeeeeeeeeeeeee",
                "decimals": 18
            }
        ]
    },
    "address_label": {
        "labels": [
            {
                "address": "0x115e29615d1c10c8ddf826e4faec64ef6c1e3357",
                "label": "CPTL Coin: CPTL Token"
            },
            {
                "address": "0x0000000000000000000000000000000000000001",
                "label": "Precompiled"
            },
            {
                "address": "0x0000000000000000000000000000000000000002",
                "label": "Precompiled"
            },
            {
                "address": "0x0000000000000000000000000000000000000003",
                "label": "Precompiled"
            },
            {
                "address": "0x0000000000000000000000000000000000000004",
                "label": "Precompiled"
            },
            {
                "address": "0xeeeeeeeeeeeeeeeeeeeeeeeeeeeeeeeeeeeeeeee",
                "label": "Ether"
            }
        ]
    },
    "trace": {
        "accountLabels": null,
        "dataMap": {
            "-1": {
                "invocation": {
                    "address": "0xef2d00aa295dada174ad02beead29491292ee5e9",
                    "callData": "",
                    "decodedMethod": null,
                    "errorInfo": "",
                    "fromAddress": "",
                    "gasUsed": 0,
                    "id": -1,
                    "methodDecoded": false,
                    "operation": "",
                    "output": "",
                    "revert": false,
                    "revertMessage": "",
                    "selector": "",
                    "status": false,
                    "value": ""
                },
                "nodeType": 0
            },
            "0": {
                "invocation": {
                    "address": "0x115e29615d1c10c8ddf826e4faec64ef6c1e3357",
                    "callData": "0x00000000000000000000000061dc42e268929fdc6190890b3c414a0032938db70000000000000000000000000000000000000000000000000000000013a65eba",
                    "decodedMethod": {
                        "callParams": [
                            {
                                "name": "to",
                                "type": "address",
                                "value": "0x61dc42e268929fdc6190890b3c414a0032938db7"
                            },
                            {
                                "decimalAvailable": true,
                                "name": "tokens",
                                "type": "uint256",
                                "value": "329,670,330"
                            }
                        ],
                        "constructorArguments": "",
                        "name": "transfer",
                        "returnParams": [
                            {
                                "name": "success",
                                "type": "bool",
                                "value": true
                            }
                        ],
                        "signature": "transfer(address,uint256)"
                    },
                    "errorInfo": "",
                    "fromAddress": "0xef2d00aa295dada174ad02beead29491292ee5e9",
                    "gasUsed": 51261,
                    "id": 0,
                    "methodDecoded": true,
                    "operation": "CALL",
                    "output": "0x0000000000000000000000000000000000000000000000000000000000000001",
                    "revert": false,
                    "revertMessage": "",
                    "selector": "0xa9059cbb",
                    "status": true,
                    "value": "0"
                },
                "nodeType": 0
            },
            "1": {
                "event": {
                    "contract": "0x115e29615d1c10c8ddf826e4faec64ef6c1e3357",
                    "decodedLog": {
                        "name": "Transfer",
                        "params": [
                            {
                                "name": "from",
                                "type": "address",
                                "value": "0xef2d00aa295dada174ad02beead29491292ee5e9"
                            },
                            {
                                "name": "to",
                                "type": "address",
                                "value": "0x61dc42e268929fdc6190890b3c414a0032938db7"
                            },
                            {
                                "decimalAvailable": true,
                                "name": "tokens",
                                "type": "uint256",
                                "value": "329,670,330"
                            }
                        ],
                        "signature": "Transfer(address,address,uint256)"
                    },
                    "id": 1,
                    "logData": "0x0000000000000000000000000000000000000000000000000000000013a65eba",
                    "logDecoded": true,
                    "operation": "EVENT",
                    "revert": false,
                    "status": true,
                    "topics": [
                        "0xddf252ad1be2c89b69c2b068fc378daa952ba7f163c4a11628f55a4df523b3ef",
                        "0x000000000000000000000000ef2d00aa295dada174ad02beead29491292ee5e9",
                        "0x00000000000000000000000061dc42e268929fdc6190890b3c414a0032938db7"
                    ]
                },
                "nodeType": 1
            }
        },
        "gasFlame": [
            {
                "children": [
                    {
                        "children": [
                            {
                                "children": [],
                                "depth": 0,
                                "name": "Initial Gas",
                                "value": 21596
                            },
                            {
                                "children": [],
                                "depth": 0,
                                "name": "Executed Gas",
                                "value": 29665
                            }
                        ],
                        "depth": -1,
                        "name": "Actual Gas Used",
                        "value": 51261
                    },
                    {
                        "children": [],
                        "depth": -1,
                        "name": "Refunded Gas",
                        "value": 0
                    }
                ],
                "depth": -2,
                "name": "Total Gas",
                "value": 51261
            }
        ],
        "isConfirmed": true,
        "mainTrace": [
            {
                "children": [
                    {
                        "children": [
                            {
                                "children": [],
                                "depth": 1,
                                "id": 1,
                                "order": 1
                            }
                        ],
                        "depth": 0,
                        "id": 0,
                        "order": 0
                    }
                ],
                "depth": -1,
                "id": -1,
                "order": -1
            }
        ],
        "mainTraceNodeCount": 2,
        "parentIdMap": {
            "0": -1,
            "1": 0
        },
        "tidyTrace": [
            {
                "children": [
                    {
                        "children": [
                            {
                                "children": [],
                                "depth": 1,
                                "id": 1,
                                "order": 1
                            }
                        ],
                        "depth": 0,
                        "id": 0,
                        "order": 0
                    }
                ],
                "depth": -1,
                "id": -1,
                "order": -1
            }
        ],
        "tidyTraceNodeCount": 2
    },
    "state_change": {
        "stateChanges": [
            {
                "address": "0x115e29615d1c10c8ddf826e4faec64ef6c1e3357",
                "erc": "ERC-20",
                "slots": [
                    {
                        "current": "0x000000000000000000000000000000000000000000000000000000e8c0feb146",
                        "key": "0x9574040febc99952788338e0f36004cd8ff2f3362d4795a703cd3883b19dbec7",
                        "prev": "0x000000000000000000000000000000000000000000000000000000e8d4a51000"
                    },
                    {
                        "current": "0x0000000000000000000000000000000000000000000000000000000013a65eba",
                        "key": "0xd75deac91bc6b8d439c5c29ef6a5dcec2bb9e09900b546770b8937e8b6177032",
                        "prev": "0x0000000000000000000000000000000000000000000000000000000000000000"
                    }
                ],
                "storageVariables": [
                    {
                        "name": "balances",
                        "type": "mapping(address => uint256)",
                        "value": {
                            "pairs": [
                                {
                                    "key": "0x61dc42e268929fdc6190890b3c414a0032938db7",
                                    "value": {
                                        "current": "329670330",
                                        "prev": "0",
                                        "typeTag": 1
                                    }
                                },
                                {
                                    "key": "0xef2d00aa295dada174ad02beead29491292ee5e9",
                                    "value": {
                                        "current": "999670329670",
                                        "prev": "1000000000000",
                                        "typeTag": 1
                                    }
                                }
                            ],
                            "typeTag": 4
                        }
                    }
                ]
            }
        ]
    }
}