{
    "balance_change": {
        "balanceChanges": [
            {
                "account": "0x2a0c0dbecc7e4d658f48e01e3fa353f44050c208",
                "assets": [
                    {
                        "address": "0xeeeeeeeeeeeeeeeeeeeeeeeeeeeeeeeeeeeeeeee",
                        "amount": "0.349693851412281896",
                        "iconUrl": "https://assets.blocksec.com/image/1663669189317-3.png",
                        "isERC1155": false,
                        "isERC721": false,
                        "sign": false,
                        "value": ""
                    }
                ]
            },
            {
                "account": "0x6c061ea2b30e0ec24921b37023430a8d7a7124bf",
                "assets": [
                    {
                        "address": "0xeeeeeeeeeeeeeeeeeeeeeeeeeeeeeeeeeeeeeeee",
                        "amount": "0.349693851412281896",
                        "iconUrl": "https://assets.blocksec.com/image/1663669189317-3.png",
                        "isERC1155": false,
                        "isERC721": false,
                        "sign": true,
                        "value": ""
                    }
                ]
            }
        ]
    },
    "profile": {
        "basic_info": {
            "baseFee": "",
            "blockNumber": 5550752,
            "callData": "0x2295115b000000000000000000000000000000000000000000000000000000000000000000000000000000000000000000000000000000000000000004dd8f4015dd7a280000000000000000000000006c061ea2b30e0ec24921b37023430a8d7a7124bf0000000000000000000000000000000000000000000000000000000000000016000000000000000000000000000000000000000000000000000000000000001b9cbfcc6a592c7e24dade5d8e3ffe9e4627b910dd8bea8c3dea40ead87588b19a34b414e64b636df8481d9d566ea46d82616dcb957be9b6777e44ee98cfedd2cf00000000000000000000000000000000000000000000000000091ebd4097030a",
            "debugEnable": true,
            "errorInfo": "",
            "eventCount": 1,
            "feeRecipient": "0x829bd824b016326a401d083b33d092293333a830",
            "formatValue": "0",
            "gasLimit": 410000,
            "gasPrice": "9",
            "gasUsed": 67941,
            "intTxnCount": 2,
            "internalRevert": false,
            "internalRevertMessage": "",
            "isContractCreation": false,
            "isFlashloan": false,
            "maxFee": "",
            "nonce": 1315998,
            "overwritedBlockNumber": -1,
            "priorityFee": "",
            "receiver": "0x2a0c0dbecc7e4d658f48e01e3fa353f44050c208",
            "revertMessage": "",
            "sender": "0xceceaa8edc0830c7cec497e33bb3a3c28dd55a32",
            "simulationEnable": true,
            "sourceTxnHash": "0x7dedddc36f939db82862b60ffc087be055713701a01af77ed8d64ed0c87bc826",
            "status": true,
            "timestamp": "2018-05-03T19:21:11Z",
            "transactionFee": "0.000611469",
            "txnHash": "0x7dedddc36f939db82862b60ffc087be055713701a01af77ed8d64ed0c87bc826",
            "txnIndex": 79,
            "type": 0,
            "value": "0"
        },
        "fund_flow": [
            {
                "amount": "0.349693851412281896",
                "from": "0x2a0c0dbecc7e4d658f48e01e3fa353f44050c208",
                "id": 1,
                "isERC1155": false,
                "isERC721": false,
                "isReverted": false,
                "order": 1,
                "to": "0x6c061ea2b30e0ec24921b37023430a8d7a7124bf",
                "token": "0xeeeeeeeeeeeeeeeeeeeeeeeeeeeeeeeeeeeeeeee"
            }
        ],
        "token_infos": [
            {
                "address": "0xc02aaa39b223fe8d0a0e5c4f27ead9083c756cc2",
                "decimals": 18
            },
            {
                "address": "0xeeeeeeeeeeeeeeeeeeeeeeeeeeeeeeeeeeeeeeee",
                "decimals": 18
            }
        ]
    },
    "address_label": {
        "labels": [
            {
                "address": "0x0000000000000000000000000000000000000000",
                "label": "Null Address"
            },
            {
                "address": "0x2a0c0dbecc7e4d658f48e01e3fa353f44050c208",
                "label": "IDEX"
            },
            {
                "address": "0x0000000000000000000000000000000000000001",
                "label": "Precompiled"
            },
            {
                "address": "0x0000000000000000000000000000000000000002",
                "label": "Precompiled"
            },
            {
                "address": "0x0000000000000000000000000000000000000003",
                "label": "Precompiled"
            },
            {
                "address": "0x0000000000000000000000000000000000000004",
                "label": "Precompiled"
            },
            {
                "address": "0xeeeeeeeeeeeeeeeeeeeeeeeeeeeeeeeeeeeeeeee",
                "label": "Ether"
            }
        ]
    },
    "trace": {
        "accountLabels": null,
        "dataMap": {
            "-1": {
                "invocation": {
                    "address": "0xceceaa8edc0830c7cec497e33bb3a3c28dd55a32",
                    "callData": "",
                    "decodedMethod": null,
                    "errorInfo": "",
                    "fromAddress": "",
                    "gasUsed": 0,
                    "id": -1,
                    "methodDecoded": false,
                    "operation": "",
                    "output": "",
                    "revert": false,
                    "revertMessage": "",
                    "selector": "",
                    "status": false,
                    "value": ""
                },
                "nodeType": 0
            },
            "0": {
                "invocation": {
                    "address": "0x2a0c0dbecc7e4d658f48e01e3fa353f44050c208",
                    "callData": "0x000000000000000000000000000000000000000000000000000000000000000000000000000000000000000000000000000000000000000004dd8f4015dd7a280000000000000000000000006c061ea2b30e0ec24921b37023430a8d7a7124bf0000000000000000000000000000000000000000000000000000000000000016000000000000000000000000000000000000000000000000000000000000001b9cbfcc6a592c7e24dade5d8e3ffe9e4627b910dd8bea8c3dea40ead87588b19a34b414e64b636df8481d9d566ea46d82616dcb957be9b6777e44ee98cfedd2cf00000000000000000000000000000000000000000000000000091ebd4097030a",
                    "decodedMethod": {
                        "callParams": [
                            {
                                "name": "token",
                                "type": "address",
                                "value": "0x0000000000000000000000000000000000000000"
                            },
                            {
                                "name": "amount",
                                "type": "uint256",
                                "value": "350,593,851,412,281,896"
                            },
                            {
                                "name": "user",
                                "type": "address",
                                "value": "0x6c061ea2b30e0ec24921b37023430a8d7a7124bf"
                            },
                            {
                                "name": "nonce",
                                "type": "uint256",
                                "value": "22"
                            },
                            {
                                "name": "v",
                                "type": "uint8",
                                "value": "27"
                            },
                            {
                                "name": "r",
                                "type": "bytes32",
                                "value": "0x9cbfcc6a592c7e24dade5d8e3ffe9e4627b910dd8bea8c3dea40ead87588b19a"
                            },
                            {
                                "name": "s",
                                "type": "bytes32",
                                "value": "0x34b414e64b636df8481d9d566ea46d82616dcb957be9b6777e44ee98cfedd2cf"
                            },
                            {
                                "name": "feeWithdrawal",
                                "type": "uint256",
                                "value": "2,567,072,971,686,666"
                            }
                        ],
                        "constructorArguments": "",
                        "name": "adminWithdraw",
                        "returnParams": [
                            {
                                "name": "success",
                                "type": "bool",
                                "value": false
                            }
                        ],
                        "signature": "adminWithdraw(address,uint256,address,uint256,uint8,bytes32,bytes32,uint256)"
                    },
                    "errorInfo": "",
                    "fromAddress": "0xceceaa8edc0830c7cec497e33bb3a3c28dd55a32",
                    "gasUsed": 67941,
                    "id": 0,
                    "methodDecoded": true,
                    "operation": "CALL",
                    "output": "0x0000000000000000000000000000000000000000000000000000000000000000",
                    "revert": false,
                    "revertMessage": "",
                    "selector": "0x2295115b",
                    "status": true,
                    "value": "0"
                },
                "nodeType": 0
            },
            "1": {
                "invocation": {
                    "address": "0x0000000000000000000000000000000000000001",
                    "callData": "0x191e48ec18b62176cd71f74d22bd96299789c29c6969e10a66868874000000000000000000000000000000000000000000000000000000000000001b9cbfcc6a592c7e24dade5d8e3ffe9e4627b910dd8bea8c3dea40ead87588b19a34b414e64b636df8481d9d566ea46d82616dcb957be9b6777e44ee98cfedd2cf",
                    "decodedMethod": {
                        "callParams": [
                            {
                                "name": "hash",
                                "type": "bytes32",
                                "value": "0x39925f20191e48ec18b62176cd71f74d22bd96299789c29c6969e10a66868874"
                            },
                            {
                                "name": "v",
                                "type": "uint256",
                                "value": "27"
                            },
                            {
                                "name": "r",
                                "type": "bytes32",
                                "value": "0x9cbfcc6a592c7e24dade5d8e3ffe9e4627b910dd8bea8c3dea40ead87588b19a"
                            },
                            {
                                "name": "s",
                                "type": "bytes32",
                                "value": "0x34b414e64b636df8481d9d566ea46d82616dcb957be9b6777e44ee98cfedd2cf"
                            }
                        ],
                        "constructorArguments": "",
                        "name": "ecrecover",
                        "returnParams": [
                            {
                                "name": "",
                                "type": "address",
                                "value": "0x6c061ea2b30e0ec24921b37023430a8d7a7124bf"
                            }
                        ],
                        "signature": "ecrecover(bytes32,uint256,bytes32,bytes32)"
                    },
                    "errorInfo": "",
                    "fromAddress": "0x2a0c0dbecc7e4d658f48e01e3fa353f44050c208",
                    "gasUsed": 3000,
                    "id": 1,
                    "methodDecoded": true,
                    "operation": "CALL",
                    "output": "0x0000000000000000000000006c061ea2b30e0ec24921b37023430a8d7a7124bf",
                    "revert": false,
                    "revertMessage": "",
                    "selector": "0x39925f20",
                    "status": true,
                    "value": "0"
                },
                "nodeType": 0
            },
            "2": {
                "invocation": {
                    "address": "0x6c061ea2b30e0ec24921b37023430a8d7a7124bf",
                    "callData": "0x",
                    "decodedMethod": null,
                    "errorInfo": "",
                    "fromAddress": "0x2a0c0dbecc7e4d658f48e01e3fa353f44050c208",
                    "gasUsed": 0,
                    "id": 2,
                    "methodDecoded": false,
                    "operation": "CALL",
                    "output": "",
                    "revert": false,
                    "revertMessage": "",
                    "selector": "fallback",
                    "status": true,
                    "value": "0.349693851412281896"
                },
                "nodeType": 0
            },
            "3": {
                "event": {
                    "contract": "0x2a0c0dbecc7e4d658f48e01e3fa353f44050c208",
                    "decodedLog": {
                        "name": "Withdraw",
                        "params": [
                            {
                                "name": "token",
                                "type": "address",
                                "value": "0x0000000000000000000000000000000000000000"
                            },
                            {
                                "name": "user",
                                "type": "address",
                                "value": "0x6c061ea2b30e0ec24921b37023430a8d7a7124bf"
                            },
                            {
                                "name": "amount",
                                "type": "uint256",
                                "value": "349,693,851,412,281,896"
                            },
                            {
                                "name": "balance",
                                "type": "uint256",
                                "value": "0"
                            }
                        ],
                        "signature": "Withdraw(address,address,uint256,uint256)"
                    },
                    "id": 3,
                    "logData": "0x00000000000000000000000000000000000000000000000000000000000000000000000000000000000000006c061ea2b30e0ec24921b37023430a8d7a7124bf00000000000000000000000000000000000000000000000004da5cb481913a280000000000000000000000000000000000000000000000000000000000000000",
                    "logDecoded": true,
                    "operation": "EVENT",
                    "revert": false,
                    "status": true,
                    "topics": [
                        "0xf341246adaac6f497bc2a656f546ab9e182111d630394f0c57c710a59a2cb567"
                    ]
                },
                "nodeType": 1
            }
        },
        "gasFlame": [
            {
                "children": [
                    {
                        "children": [
                            {
                                "children": [],
                                "depth": 0,
                                "name": "Initial Gas",
                                "value": 28760
                            },
                            {
                                "children": [
                                    {
                                        "children": [],
                                        "depth": 1,
                                        "name": "ecrecover",
                                        "value": 3000
                                    },
                                    {
                                        "children": [],
                                        "depth": 1,
                                        "name": "fallback",
                                        "value": 0
                                    }
                                ],
                                "depth": 0,
                                "name": "Executed Gas",
                                "value": 54181
                            }
                        ],
                        "depth": -1,
                        "name": "Actual Gas Used",
                        "value": 67941
                    },
                    {
                        "children": [],
                        "depth": -1,
                        "name": "Refunded Gas",
                        "value": 15000
                    }
                ],
                "depth": -2,
                "name": "Total Gas",
                "value": 82941
            }
        ],
        "isConfirmed": true,
        "mainTrace": [
            {
                "children": [
                    {
                        "children": [
                            {
                                "children": [],
                                "depth": 1,
                                "id": 1,
                                "order": 1
                            },
                            {
                                "children": [],
                                "depth": 1,
                                "id": 2,
                                "order": 2
                            },
                            {
                                "children": [],
                                "depth": 1,
                                "id": 3,
                                "order": 3
                            }
                        ],
                        "depth": 0,
                        "id": 0,
                        "order": 0
                    }
                ],
                "depth": -1,
                "id": -1,
                "order": -1
            }
        ],
        "mainTraceNodeCount": 4,
        "parentIdMap": {
            "0": -1,
            "1": 0,
            "2": 0,
            "3": 0
        },
        "tidyTrace": [
            {
                "children": [
                    {
                        "children": [
                            {
                                "children": [],
                                "depth": 1,
                                "id": 1,
                                "order": 1
                            },
                            {
                                "children": [],
                                "depth": 1,
                                "id": 2,
                                "order": 2
                            },
                            {
                                "children": [],
                                "depth": 1,
                                "id": 3,
                                "order": 3
                            }
                        ],
                        "depth": 0,
                        "id": 0,
                        "order": 0
                    }
                ],
                "depth": -1,
                "id": -1,
                "order": -1
            }
        ],
        "tidyTraceNodeCount": 4
    },
    "state_change": {
        "stateChanges": [
            {
                "address": "0x2a0c0dbecc7e4d658f48e01e3fa353f44050c208",
                "erc": "",
                "slots": [
                    {
                        "current": "0x0000000000000000000000000000000000000000000000000000000000000001",
                        "key": "0x31bd33bde22860d39e5224563507a2f3da6ee16d4442622a36a022ef5acd80b2",
                        "prev": "0x0000000000000000000000000000000000000000000000000000000000000000"
                    },
                    {
                        "current": "0x0000000000000000000000000000000000000000000000000000000000000000",
                        "key": "0x12e32fc3e29d66adafc9325cf8310c66fd1e1a42e74836c0bda8a9ab61442bc1",
                        "prev": "0x00000000000000000000000000000000000000000000000004dd8f4015dd7a28"
                    },
                    {
                        "current": "0x00000000000000000000000000000000000000000000002f4aa7b927170106b1",
                        "key": "0x3ccb72d91c5c66cba135a4135963ed23443b8a63817f501517468fcd5097e277",
                        "prev": "0x00000000000000000000000000000000000000000000002f4aa4869b82b4c6b2"
                    },
                    {
                        "current": "0x000000000000000000000000000000000000000000000000000000000054b2a0",
                        "key": "0x35eba8d577c0e1592ae5ead85877d3664ed4ffed80add92fbdbf0d920b4f8297",
                        "prev": "0x0000000000000000000000000000000000000000000000000000000000548f73"
                    }
                ],
                "storageVariables": [
                    {
                        "name": "tokens",
                        "type": "mapping(address => mapping(address => uint256))",
                        "value": {
                            "pairs": [
                                {
                                    "key": "0x0000000000000000000000000000000000000000",
                                    "value": {
                                        "pairs": [
                                            {
                                                "key": "0x034767f3c519f361c5ecf46ebfc08981c629d381",
                                                "value": {
                                                    "current": "872376443321807079089",
                                                    "prev": "872375543321807079090",
                                                    "typeTag": 1
                                                }
                                            },
                                            {
                                                "key": "0x6c061ea2b30e0ec24921b37023430a8d7a7124bf",
                                                "value": {
                                                    "current": "0",
                                                    "prev": "350593851412281896",
                                                    "typeTag": 1
                                                }
                                            }
                                        ],
                                        "typeTag": 4
                                    }
                                }
                            ],
                            "typeTag": 4
                        }
                    },
                    {
                        "name": "lastActiveTransaction",
                        "type": "mapping(address => uint256)",
                        "value": {
                            "pairs": [
                                {
                                    "key": "0x6c061ea2b30e0ec24921b37023430a8d7a7124bf",
                                    "value": {
                                        "current": "5550752",
                                        "prev": "5541747",
                                        "typeTag": 1
                                    }
                                }
                            ],
                            "typeTag": 4
                        }
                    },
                    {
                        "name": "withdrawn",
                        "type": "mapping(bytes32 => bool)",
                        "value": {
                            "pairs": [
                                {
                                    "key": "0x2ae3800a6add5d0944e0fb732e7ed87980618490af97060322ef3c9d80fff781",
                                    "value": {
                                        "current": "true",
                                        "prev": "false",
                                        "typeTag": 1
                                    }
                                }
                            ],
                            "typeTag": 4
                        }
                    }
                ]
            }
        ]
    }
}