{
    "balance_change": {
        "balanceChanges": [
            {
                "account": "0xd2c668952880c176926da4617b2be373af022cd3",
                "assets": [
                    {
                        "address": "0x473037de59cf9484632f4a27b509cfe8d4a31404",
                        "amount": "25.7",
                        "iconUrl": "",
                        "isERC1155": false,
                        "isERC721": false,
                        "sign": false,
                        "value": "43.14379282"
                    },
                    {
                        "address": "0xa0b86991c6218b36c1d19d4a2e9eb0ce3606eb48",
                        "amount": "47.164467",
                        "iconUrl": "https://assets.blocksec.com/icon/0347a86cc07dbd03fdc5db01a4e5ac7e1217f90e0b6e4bb0f75cbcca09160989.png",
                        "isERC1155": false,
                        "isERC721": false,
                        "sign": true,
                        "value": "47.16451416446699612"
                    }
                ]
            },
            {
                "account": "0x770cbfff3c47134a878d513921ac59a1fd24e514",
                "assets": [
                    {
                        "address": "0x473037de59cf9484632f4a27b509cfe8d4a31404",
                        "amount": "25.7",
                        "iconUrl": "",
                        "isERC1155": false,
                        "isERC721": false,
                        "sign": true,
                        "value": "43.14379282"
                    },
                    {
                        "address": "0xa0b86991c6218b36c1d19d4a2e9eb0ce3606eb48",
                        "amount": "47.164467",
                        "iconUrl": "https://assets.blocksec.com/icon/0347a86cc07dbd03fdc5db01a4e5ac7e1217f90e0b6e4bb0f75cbcca09160989.png",
                        "isERC1155": false,
                        "isERC721": false,
                        "sign": false,
                        "value": "47.16451416446699612"
                    }
                ]
            }
        ]
    },
    "profile": {
        "basic_info": {
            "baseFee": "10.135670406",
            "blockNumber": 15320065,
            "callData": "0x38ed173900000000000000000000000000000000000000000000000000000000992f16800000000000000000000000000000000000000000000000000000000002cc155400000000000000000000000000000000000000000000000000000000000000a0000000000000000000000000d2c668952880c176926da4617b2be373af022cd30000000000000000000000000000000000000000000000000000000062f4d6730000000000000000000000000000000000000000000000000000000000000002000000000000000000000000473037de59cf9484632f4a27b509cfe8d4a31404000000000000000000000000a0b86991c6218b36c1d19d4a2e9eb0ce3606eb48",
            "debugEnable": true,
            "errorInfo": "",
            "eventCount": 4,
            "feeRecipient": "0x7f101fe45e6649a6fb8f3f8b43ed03d353f2b90c",
            "formatValue": "0",
            "gasLimit": 228549,
            "gasPrice": "12.182551554",
            "gasUsed": 126933,
            "intTxnCount": 8,
            "internalRevert": false,
            "internalRevertMessage": "",
            "isContractCreation": false,
            "isFlashloan": false,
            "maxFee": "",
            "nonce": 22,
            "overwritedBlockNumber": -1,
            "priorityFee": "",
            "receiver": "0x53e0e51b5ed9202110d7ecd637a4581db8b9879f",
            "revertMessage": "",
            "sender": "0xd2c668952880c176926da4617b2be373af022cd3",
            "simulationEnable": true,
            "sourceTxnHash": "0x7d0ba0c3fc35b5b5de142763631249d75acc56f74513a826b0c4924462ff3bca",
            "status": true,
            "timestamp": "2022-08-11T10:04:13Z",
            "transactionFee": "0.001546367816403882",
            "txnHash": "0x7d0ba0c3fc35b5b5de142763631249d75acc56f74513a826b0c4924462ff3bca",
            "txnIndex": 53,
            "type": 0,
            "value": "0"
        },
        "fund_flow": [
            {
                "amount": "25.7",
                "from": "0xd2c668952880c176926da4617b2be373af022cd3",
                "id": 1,
                "isERC1155": false,
                "isERC721": false,
                "isReverted": false,
                "order": 1,
                "to": "0x770cbfff3c47134a878d513921ac59a1fd24e514",
                "token": "0x473037de59cf9484632f4a27b509cfe8d4a31404"
            },
            {
                "amount": "47.164467",
                "from": "0x770cbfff3c47134a878d513921ac59a1fd24e514",
                "id": 2,
                "isERC1155": false,
                "isERC721": false,
                "isReverted": false,
                "order": 2,
                "to": "0xd2c668952880c176926da4617b2be373af022cd3",
                "token": "0xa0b86991c6218b36c1d19d4a2e9eb0ce3606eb48"
            }
        ],
        "token_infos": [
            {
                "address": "0x473037de59cf9484632f4a27b509cfe8d4a31404",
                "decimals": 8
            },
            {
                "address": "0xa0b86991c6218b36c1d19d4a2e9eb0ce3606eb48",
                "decimals": 6
            },
            {
                "address": "0xc02aaa39b223fe8d0a0e5c4f27ead9083c756cc2",
                "decimals": 18
            },
            {
                "address": "0xeeeeeeeeeeeeeeeeeeeeeeeeeeeeeeeeeeeeeeee",
                "decimals": 18
            }
        ]
    },
    "address_label": {
        "labels": [
            {
                "address": "0xeeeeeeeeeeeeeeeeeeeeeeeeeeeeeeeeeeeeeeee",
                "label": "Ether"
            },
            {
                "address": "0x473037de59cf9484632f4a27b509cfe8d4a31404",
                "label": "GreenSatoshiToken (GST)"
            },
            {
                "address": "0x770cbfff3c47134a878d513921ac59a1fd24e514",
                "label": "DooarSwap V2 (DOOAR)"
            },
            {
                "address": "0x0000000000000000000000000000000000000002",
                "label": "Precompiled"
            },
            {
                "address": "0x0000000000000000000000000000000000000004",
                "label": "Precompiled"
            },
            {
                "address": "0x53e0e51b5ed9202110d7ecd637a4581db8b9879f",
                "label": "STEPN: DOOAR Router"
            },
            {
                "address": "0xa2327a938febf5fec13bacfb16ae10ecbc4cbdcf",
                "label": "FiatTokenV2_1"
            },
            {
                "address": "0xa0b86991c6218b36c1d19d4a2e9eb0ce3606eb48",
                "label": "Circle: USDC Token"
            },
            {
                "address": "0x0000000000000000000000000000000000000001",
                "label": "Precompiled"
            },
            {
                "address": "0x0000000000000000000000000000000000000003",
                "label": "Precompiled"
            }
        ]
    },
    "trace": {
        "accountLabels": null,
        "dataMap": {
            "-1": {
                "invocation": {
                    "address": "0xd2c668952880c176926da4617b2be373af022cd3",
                    "callData": "",
                    "decodedMethod": null,
                    "errorInfo": "",
                    "fromAddress": "",
                    "gasUsed": 0,
                    "id": -1,
                    "methodDecoded": false,
                    "operation": "",
                    "output": "",
                    "revert": false,
                    "revertMessage": "",
                    "selector": "",
                    "status": false,
                    "value": ""
                },
                "nodeType": 0
            },
            "0": {
                "invocation": {
                    "address": "0x53e0e51b5ed9202110d7ecd637a4581db8b9879f",
                    "callData": "0x00000000000000000000000000000000000000000000000000000000992f16800000000000000000000000000000000000000000000000000000000002cc155400000000000000000000000000000000000000000000000000000000000000a0000000000000000000000000d2c668952880c176926da4617b2be373af022cd30000000000000000000000000000000000000000000000000000000062f4d6730000000000000000000000000000000000000000000000000000000000000002000000000000000000000000473037de59cf9484632f4a27b509cfe8d4a31404000000000000000000000000a0b86991c6218b36c1d19d4a2e9eb0ce3606eb48",
                    "decodedMethod": {
                        "callParams": [
                            {
                                "name": "amountIn",
                                "type": "uint256",
                                "value": "2,570,000,000"
                            },
                            {
                                "name": "amountOutMin",
                                "type": "uint256",
                                "value": "46,929,236"
                            },
                            {
                                "name": "path",
                                "type": "address[]",
                                "value": [
                                    "0x473037de59cf9484632f4a27b509cfe8d4a31404",
                                    "0xa0b86991c6218b36c1d19d4a2e9eb0ce3606eb48"
                                ]
                            },
                            {
                                "name": "to",
                                "type": "address",
                                "value": "0xd2c668952880c176926da4617b2be373af022cd3"
                            },
                            {
                                "name": "deadline",
                                "type": "uint256",
                                "value": "1,660,212,851"
                            }
                        ],
                        "constructorArguments": "",
                        "name": "swapExactTokensForTokens",
                        "returnParams": [
                            {
                                "name": "amounts",
                                "type": "uint256[]",
                                "value": [
                                    "2,570,000,000",
                                    "47,164,467"
                                ]
                            }
                        ],
                        "signature": "swapExactTokensForTokens(uint256,uint256,address[],address,uint256)"
                    },
                    "errorInfo": "",
                    "fromAddress": "0xd2c668952880c176926da4617b2be373af022cd3",
                    "gasUsed": 126933,
                    "id": 0,
                    "methodDecoded": true,
                    "operation": "CALL",
                    "output": "0x0000000000000000000000000000000000000000000000000000000000000020000000000000000000000000000000000000000000000000000000000000000200000000000000000000000000000000000000000000000000000000992f16800000000000000000000000000000000000000000000000000000000002cfac33",
                    "revert": false,
                    "revertMessage": "",
                    "selector": "0x38ed1739",
                    "status": true,
                    "value": "0"
                },
                "nodeType": 0
            },
            "1": {
                "invocation": {
                    "address": "0x770cbfff3c47134a878d513921ac59a1fd24e514",
                    "callData": "0x",
                    "decodedMethod": {
                        "callParams": [],
                        "constructorArguments": "",
                        "name": "getReserves",
                        "returnParams": [
                            {
                                "name": "",
                                "type": "uint256",
                                "value": "163,613,565,732,867"
                            },
                            {
                                "name": "",
                                "type": "uint256",
                                "value": "3,033,001,865,741"
                            }
                        ],
                        "signature": "getReserves()"
                    },
                    "errorInfo": "",
                    "fromAddress": "0x53e0e51b5ed9202110d7ecd637a4581db8b9879f",
                    "gasUsed": 2504,
                    "id": 1,
                    "methodDecoded": true,
                    "operation": "STATICCALL",
                    "output": "0x000000000000000000000000000000000000000000000000000094ce40774803000000000000000000000000000000000000000000000000000002c22cffb20d0000000000000000000000000000000000000000000000000000000062f4d415",
                    "revert": false,
                    "revertMessage": "",
                    "selector": "0x0902f1ac",
                    "status": true,
                    "value": "0"
                },
                "nodeType": 0
            },
            "10": {
                "invocation": {
                    "address": "0xa2327a938febf5fec13bacfb16ae10ecbc4cbdcf",
                    "callData": "0x000000000000000000000000770cbfff3c47134a878d513921ac59a1fd24e514",
                    "decodedMethod": {
                        "callParams": [
                            {
                                "name": "account",
                                "type": "address",
                                "value": "0x770cbfff3c47134a878d513921ac59a1fd24e514"
                            }
                        ],
                        "constructorArguments": "",
                        "name": "balanceOf",
                        "returnParams": [
                            {
                                "decimalAvailable": true,
                                "name": "",
                                "type": "uint256",
                                "value": "3,032,954,701,274"
                            }
                        ],
                        "signature": "balanceOf(address)"
                    },
                    "errorInfo": "",
                    "fromAddress": "0xa0b86991c6218b36c1d19d4a2e9eb0ce3606eb48",
                    "gasUsed": 529,
                    "id": 10,
                    "methodDecoded": true,
                    "operation": "DELEGATECALL",
                    "output": "0x000000000000000000000000000000000000000000000000000002c22a3005da",
                    "revert": false,
                    "revertMessage": "",
                    "selector": "0x70a08231",
                    "status": true,
                    "value": "0"
                },
                "nodeType": 0
            },
            "11": {
                "event": {
                    "contract": "0x770cbfff3c47134a878d513921ac59a1fd24e514",
                    "decodedLog": {
                        "name": "Sync",
                        "params": [
                            {
                                "name": "reserve0",
                                "type": "uint112",
                                "value": "163,616,135,732,867"
                            },
                            {
                                "name": "reserve1",
                                "type": "uint112",
                                "value": "3,032,954,701,274"
                            }
                        ],
                        "signature": "Sync(uint112,uint112)"
                    },
                    "id": 11,
                    "logData": "0x000000000000000000000000000000000000000000000000000094ced9a65e83000000000000000000000000000000000000000000000000000002c22a3005da",
                    "logDecoded": true,
                    "operation": "EVENT",
                    "revert": false,
                    "status": true,
                    "topics": [
                        "0x1c411e9a96e071241c2f21f7726b17ae89e3cab4c78be50e062b03a9fffbbad1"
                    ]
                },
                "nodeType": 1
            },
            "12": {
                "event": {
                    "contract": "0x770cbfff3c47134a878d513921ac59a1fd24e514",
                    "decodedLog": {
                        "name": "Swap",
                        "params": [
                            {
                                "name": "sender",
                                "type": "address",
                                "value": "0x53e0e51b5ed9202110d7ecd637a4581db8b9879f"
                            },
                            {
                                "name": "to",
                                "type": "address",
                                "value": "0xd2c668952880c176926da4617b2be373af022cd3"
                            },
                            {
                                "name": "amount0In",
                                "type": "uint256",
                                "value": "2,570,000,000"
                            },
                            {
                                "name": "amount1In",
                                "type": "uint256",
                                "value": "0"
                            },
                            {
                                "name": "amount0Out",
                                "type": "uint256",
                                "value": "0"
                            },
                            {
                                "name": "amount1Out",
                                "type": "uint256",
                                "value": "47,164,467"
                            }
                        ],
                        "signature": "Swap(address,uint256,uint256,uint256,uint256,address)"
                    },
                    "id": 12,
                    "logData": "0x00000000000000000000000000000000000000000000000000000000992f1680000000000000000000000000000000000000000000000000000000000000000000000000000000000000000000000000000000000000000000000000000000000000000000000000000000000000000000000000000000000000000002cfac33",
                    "logDecoded": true,
                    "operation": "EVENT",
                    "revert": false,
                    "status": true,
                    "topics": [
                        "0xd78ad95fa46c994b6551d0da85fc275fe613ce37657fb8d5e3d130840159d822",
                        "0x00000000000000000000000053e0e51b5ed9202110d7ecd637a4581db8b9879f",
                        "0x000000000000000000000000d2c668952880c176926da4617b2be373af022cd3"
                    ]
                },
                "nodeType": 1
            },
            "2": {
                "invocation": {
                    "address": "0x473037de59cf9484632f4a27b509cfe8d4a31404",
                    "callData": "0x000000000000000000000000d2c668952880c176926da4617b2be373af022cd3000000000000000000000000770cbfff3c47134a878d513921ac59a1fd24e51400000000000000000000000000000000000000000000000000000000992f1680",
                    "decodedMethod": {
                        "callParams": [
                            {
                                "name": "from",
                                "type": "address",
                                "value": "0xd2c668952880c176926da4617b2be373af022cd3"
                            },
                            {
                                "name": "to",
                                "type": "address",
                                "value": "0x770cbfff3c47134a878d513921ac59a1fd24e514"
                            },
                            {
                                "decimalAvailable": true,
                                "name": "amount",
                                "type": "uint256",
                                "value": "2,570,000,000"
                            }
                        ],
                        "constructorArguments": "",
                        "name": "transferFrom",
                        "returnParams": [
                            {
                                "name": "",
                                "type": "bool",
                                "value": true
                            }
                        ],
                        "signature": "transferFrom(address,address,uint256)"
                    },
                    "errorInfo": "",
                    "fromAddress": "0x53e0e51b5ed9202110d7ecd637a4581db8b9879f",
                    "gasUsed": 16285,
                    "id": 2,
                    "methodDecoded": true,
                    "operation": "CALL",
                    "output": "0x0000000000000000000000000000000000000000000000000000000000000001",
                    "revert": false,
                    "revertMessage": "",
                    "selector": "0x23b872dd",
                    "status": true,
                    "value": "0"
                },
                "nodeType": 0
            },
            "3": {
                "event": {
                    "contract": "0x473037de59cf9484632f4a27b509cfe8d4a31404",
                    "decodedLog": {
                        "name": "Transfer",
                        "params": [
                            {
                                "name": "from",
                                "type": "address",
                                "value": "0xd2c668952880c176926da4617b2be373af022cd3"
                            },
                            {
                                "name": "to",
                                "type": "address",
                                "value": "0x770cbfff3c47134a878d513921ac59a1fd24e514"
                            },
                            {
                                "decimalAvailable": true,
                                "name": "value",
                                "type": "uint256",
                                "value": "2,570,000,000"
                            }
                        ],
                        "signature": "Transfer(address,address,uint256)"
                    },
                    "id": 3,
                    "logData": "0x00000000000000000000000000000000000000000000000000000000992f1680",
                    "logDecoded": true,
                    "operation": "EVENT",
                    "revert": false,
                    "status": true,
                    "topics": [
                        "0xddf252ad1be2c89b69c2b068fc378daa952ba7f163c4a11628f55a4df523b3ef",
                        "0x000000000000000000000000d2c668952880c176926da4617b2be373af022cd3",
                        "0x000000000000000000000000770cbfff3c47134a878d513921ac59a1fd24e514"
                    ]
                },
                "nodeType": 1
            },
            "4": {
                "invocation": {
                    "address": "0x770cbfff3c47134a878d513921ac59a1fd24e514",
                    "callData": "0x00000000000000000000000000000000000000000000000000000000000000000000000000000000000000000000000000000000000000000000000002cfac33000000000000000000000000d2c668952880c176926da4617b2be373af022cd300000000000000000000000000000000000000000000000000000000000000800000000000000000000000000000000000000000000000000000000000000000",
                    "decodedMethod": {
                        "callParams": [
                            {
                                "name": "amount0Out",
                                "type": "uint256",
                                "value": "0"
                            },
                            {
                                "name": "amount1Out",
                                "type": "uint256",
                                "value": "47,164,467"
                            },
                            {
                                "name": "to",
                                "type": "address",
                                "value": "0xd2c668952880c176926da4617b2be373af022cd3"
                            },
                            {
                                "name": "data",
                                "type": "bytes",
                                "value": "0x"
                            }
                        ],
                        "constructorArguments": "",
                        "name": "swap",
                        "returnParams": [],
                        "signature": "swap(uint256,uint256,address,bytes)"
                    },
                    "errorInfo": "",
                    "fromAddress": "0x53e0e51b5ed9202110d7ecd637a4581db8b9879f",
                    "gasUsed": 80019,
                    "id": 4,
                    "methodDecoded": true,
                    "operation": "CALL",
                    "output": "",
                    "revert": false,
                    "revertMessage": "",
                    "selector": "0x022c0d9f",
                    "status": true,
                    "value": "0"
                },
                "nodeType": 0
            },
            "5": {
                "invocation": {
                    "address": "0xa0b86991c6218b36c1d19d4a2e9eb0ce3606eb48",
                    "callData": "0x000000000000000000000000d2c668952880c176926da4617b2be373af022cd30000000000000000000000000000000000000000000000000000000002cfac33",
                    "decodedMethod": {
                        "callParams": [
                            {
                                "name": "to",
                                "type": "address",
                                "value": "0xd2c668952880c176926da4617b2be373af022cd3"
                            },
                            {
                                "decimalAvailable": true,
                                "name": "value",
                                "type": "uint256",
                                "value": "47,164,467"
                            }
                        ],
                        "constructorArguments": "",
                        "name": "transfer",
                        "returnParams": [
                            {
                                "name": "",
                                "type": "bool",
                                "value": true
                            }
                        ],
                        "signature": "transfer(address,uint256)"
                    },
                    "errorInfo": "",
                    "fromAddress": "0x770cbfff3c47134a878d513921ac59a1fd24e514",
                    "gasUsed": 44017,
                    "id": 5,
                    "methodDecoded": true,
                    "operation": "CALL",
                    "output": "0x0000000000000000000000000000000000000000000000000000000000000001",
                    "revert": false,
                    "revertMessage": "",
                    "selector": "0xa9059cbb",
                    "status": true,
                    "value": "0"
                },
                "nodeType": 0
            },
            "6": {
                "invocation": {
                    "address": "0xa2327a938febf5fec13bacfb16ae10ecbc4cbdcf",
                    "callData": "0x000000000000000000000000d2c668952880c176926da4617b2be373af022cd30000000000000000000000000000000000000000000000000000000002cfac33",
                    "decodedMethod": {
                        "callParams": [
                            {
                                "name": "to",
                                "type": "address",
                                "value": "0xd2c668952880c176926da4617b2be373af022cd3"
                            },
                            {
                                "decimalAvailable": true,
                                "name": "value",
                                "type": "uint256",
                                "value": "47,164,467"
                            }
                        ],
                        "constructorArguments": "",
                        "name": "transfer",
                        "returnParams": [
                            {
                                "name": "",
                                "type": "bool",
                                "value": true
                            }
                        ],
                        "signature": "transfer(address,uint256)"
                    },
                    "errorInfo": "",
                    "fromAddress": "0xa0b86991c6218b36c1d19d4a2e9eb0ce3606eb48",
                    "gasUsed": 36728,
                    "id": 6,
                    "methodDecoded": true,
                    "operation": "DELEGATECALL",
                    "output": "0x0000000000000000000000000000000000000000000000000000000000000001",
                    "revert": false,
                    "revertMessage": "",
                    "selector": "0xa9059cbb",
                    "status": true,
                    "value": "0"
                },
                "nodeType": 0
            },
            "7": {
                "event": {
                    "contract": "0xa0b86991c6218b36c1d19d4a2e9eb0ce3606eb48",
                    "decodedLog": {
                        "name": "Transfer",
                        "params": [
                            {
                                "name": "from",
                                "type": "address",
                                "value": "0x770cbfff3c47134a878d513921ac59a1fd24e514"
                            },
                            {
                                "name": "to",
                                "type": "address",
                                "value": "0xd2c668952880c176926da4617b2be373af022cd3"
                            },
                            {
                                "decimalAvailable": true,
                                "name": "value",
                                "type": "uint256",
                                "value": "47,164,467"
                            }
                        ],
                        "signature": "Transfer(address,address,uint256)"
                    },
                    "id": 7,
                    "logData": "0x0000000000000000000000000000000000000000000000000000000002cfac33",
                    "logDecoded": true,
                    "operation": "EVENT",
                    "revert": false,
                    "status": true,
                    "topics": [
                        "0xddf252ad1be2c89b69c2b068fc378daa952ba7f163c4a11628f55a4df523b3ef",
                        "0x000000000000000000000000770cbfff3c47134a878d513921ac59a1fd24e514",
                        "0x000000000000000000000000d2c668952880c176926da4617b2be373af022cd3"
                    ]
                },
                "nodeType": 1
            },
            "8": {
                "invocation": {
                    "address": "0x473037de59cf9484632f4a27b509cfe8d4a31404",
                    "callData": "0x000000000000000000000000770cbfff3c47134a878d513921ac59a1fd24e514",
                    "decodedMethod": {
                        "callParams": [
                            {
                                "name": "account",
                                "type": "address",
                                "value": "0x770cbfff3c47134a878d513921ac59a1fd24e514"
                            }
                        ],
                        "constructorArguments": "",
                        "name": "balanceOf",
                        "returnParams": [
                            {
                                "decimalAvailable": true,
                                "name": "",
                                "type": "uint256",
                                "value": "163,616,135,732,867"
                            }
                        ],
                        "signature": "balanceOf(address)"
                    },
                    "errorInfo": "",
                    "fromAddress": "0x770cbfff3c47134a878d513921ac59a1fd24e514",
                    "gasUsed": 864,
                    "id": 8,
                    "methodDecoded": true,
                    "operation": "STATICCALL",
                    "output": "0x000000000000000000000000000000000000000000000000000094ced9a65e83",
                    "revert": false,
                    "revertMessage": "",
                    "selector": "0x70a08231",
                    "status": true,
                    "value": "0"
                },
                "nodeType": 0
            },
            "9": {
                "invocation": {
                    "address": "0xa0b86991c6218b36c1d19d4a2e9eb0ce3606eb48",
                    "callData": "0x000000000000000000000000770cbfff3c47134a878d513921ac59a1fd24e514",
                    "decodedMethod": {
                        "callParams": [
                            {
                                "name": "account",
                                "type": "address",
                                "value": "0x770cbfff3c47134a878d513921ac59a1fd24e514"
                            }
                        ],
                        "constructorArguments": "",
                        "name": "balanceOf",
                        "returnParams": [
                            {
                                "decimalAvailable": true,
                                "name": "",
                                "type": "uint256",
                                "value": "3,032,954,701,274"
                            }
                        ],
                        "signature": "balanceOf(address)"
                    },
                    "errorInfo": "",
                    "fromAddress": "0x770cbfff3c47134a878d513921ac59a1fd24e514",
                    "gasUsed": 1315,
                    "id": 9,
                    "methodDecoded": true,
                    "operation": "STATICCALL",
                    "output": "0x000000000000000000000000000000000000000000000000000002c22a3005da",
                    "revert": false,
                    "revertMessage": "",
                    "selector": "0x70a08231",
                    "status": true,
                    "value": "0"
                },
                "nodeType": 0
            }
        },
        "gasFlame": [
            {
                "children": [
                    {
                        "children": [
                            {
                                "children": [],
                                "depth": 0,
                                "name": "Initial Gas",
                                "value": 22976
                            },
                            {
                                "children": [
                                    {
                                        "children": [],
                                        "depth": 1,
                                        "name": "getReserves",
                                        "value": 2504
                                    },
                                    {
                                        "children": [],
                                        "depth": 1,
                                        "name": "transferFrom",
                                        "value": 16285
                                    },
                                    {
                                        "children": [
                                            {
                                                "children": [
                                                    {
                                                        "children": [],
                                                        "depth": 3,
                                                        "name": "transfer",
                                                        "value": 36728
                                                    }
                                                ],
                                                "depth": 2,
                                                "name": "transfer",
                                                "value": 44017
                                            },
                                            {
                                                "children": [],
                                                "depth": 2,
                                                "name": "balanceOf",
                                                "value": 864
                                            },
                                            {
                                                "children": [
                                                    {
                                                        "children": [],
                                                        "depth": 3,
                                                        "name": "balanceOf",
                                                        "value": 529
                                                    }
                                                ],
                                                "depth": 2,
                                                "name": "balanceOf",
                                                "value": 1315
                                            }
                                        ],
                                        "depth": 1,
                                        "name": "swap",
                                        "value": 80019
                                    }
                                ],
                                "depth": 0,
                                "name": "Executed Gas",
                                "value": 111557
                            }
                        ],
                        "depth": -1,
                        "name": "Actual Gas Used",
                        "value": 126933
                    },
                    {
                        "children": [],
                        "depth": -1,
                        "name": "Refunded Gas",
                        "value": 7600
                    }
                ],
                "depth": -2,
                "name": "Total Gas",
                "value": 134533
            }
        ],
        "isConfirmed": true,
        "mainTrace": [
            {
                "children": [
                    {
                        "children": [
                            {
                                "children": [],
                                "depth": 1,
                                "id": 1,
                                "order": 1
                            },
                            {
                                "children": [
                                    {
                                        "children": [],
                                        "depth": 2,
                                        "id": 3,
                                        "order": 3
                                    }
                                ],
                                "depth": 1,
                                "id": 2,
                                "order": 2
                            },
                            {
                                "children": [
                                    {
                                        "children": [
                                            {
                                                "children": [
                                                    {
                                                        "children": [],
                                                        "depth": 4,
                                                        "id": 7,
                                                        "order": 7
                                                    }
                                                ],
                                                "depth": 3,
                                                "id": 6,
                                                "order": 6
                                            }
                                        ],
                                        "depth": 2,
                                        "id": 5,
                                        "order": 5
                                    },
                                    {
                                        "children": [],
                                        "depth": 2,
                                        "id": 8,
                                        "order": 8
                                    },
                                    {
                                        "children": [
                                            {
                                                "children": [],
                                                "depth": 3,
                                                "id": 10,
                                                "order": 10
                                            }
                                        ],
                                        "depth": 2,
                                        "id": 9,
                                        "order": 9
                                    },
                                    {
                                        "children": [],
                                        "depth": 2,
                                        "id": 11,
                                        "order": 11
                                    },
                                    {
                                        "children": [],
                                        "depth": 2,
                                        "id": 12,
                                        "order": 12
                                    }
                                ],
                                "depth": 1,
                                "id": 4,
                                "order": 4
                            }
                        ],
                        "depth": 0,
                        "id": 0,
                        "order": 0
                    }
                ],
                "depth": -1,
                "id": -1,
                "order": -1
            }
        ],
        "mainTraceNodeCount": 13,
        "parentIdMap": {
            "0": -1,
            "1": 0,
            "10": 9,
            "11": 4,
            "12": 4,
            "2": 0,
            "3": 2,
            "4": 0,
            "5": 4,
            "6": 5,
            "7": 6,
            "8": 4,
            "9": 4
        },
        "tidyTrace": [
            {
                "children": [
                    {
                        "children": [
                            {
                                "children": [
                                    {
                                        "children": [],
                                        "depth": 2,
                                        "id": 3,
                                        "order": 3
                                    }
                                ],
                                "depth": 1,
                                "id": 2,
                                "order": 2
                            },
                            {
                                "children": [
                                    {
                                        "children": [
                                            {
                                                "children": [
                                                    {
                                                        "children": [],
                                                        "depth": 4,
                                                        "id": 7,
                                                        "order": 7
                                                    }
                                                ],
                                                "depth": 3,
                                                "id": 6,
                                                "order": 6
                                            }
                                        ],
                                        "depth": 2,
                                        "id": 5,
                                        "order": 5
                                    },
                                    {
                                        "children": [],
                                        "depth": 2,
                                        "id": 11,
                                        "order": 11
                                    },
                                    {
                                        "children": [],
                                        "depth": 2,
                                        "id": 12,
                                        "order": 12
                                    }
                                ],
                                "depth": 1,
                                "id": 4,
                                "order": 4
                            }
                        ],
                        "depth": 0,
                        "id": 0,
                        "order": 0
                    }
                ],
                "depth": -1,
                "id": -1,
                "order": -1
            }
        ],
        "tidyTraceNodeCount": 9
    },
    "state_change": {
        "stateChanges": [
            {
                "address": "0x473037de59cf9484632f4a27b509cfe8d4a31404",
                "erc": "ERC-20",
                "slots": [
                    {
                        "current": "0x0000000000000000000000000000000000000000000000000000000000000000",
                        "key": "0xbd650ac11938d101e1411913ca77aef4cfe4fca4b2f8050d97275ff4ec0959d8",
                        "prev": "0x00000000000000000000000000000000000000000000000000000000992f1680"
                    },
                    {
                        "current": "0x000000000000000000000000000000000000000000000000000094ced9a65e83",
                        "key": "0xecf4a4bd02fea08a3c2924ddab4ac1fc952c49f6e0ed8aa1431c53ae904d1d80",
                        "prev": "0x000000000000000000000000000000000000000000000000000094ce40774803"
                    }
                ],
                "storageVariables": [
                    {
                        "name": "_balances",
                        "type": "mapping(address => uint256)",
                        "value": {
                            "pairs": [
                                {
                                    "key": "0x770cbfff3c47134a878d513921ac59a1fd24e514",
                                    "value": {
                                        "current": "163616135732867",
                                        "prev": "163613565732867",
                                        "typeTag": 1
                                    }
                                },
                                {
                                    "key": "0xd2c668952880c176926da4617b2be373af022cd3",
                                    "value": {
                                        "current": "0",
                                        "prev": "2570000000",
                                        "typeTag": 1
                                    }
                                }
                            ],
                            "typeTag": 4
                        }
                    }
                ]
            },
            {
                "address": "0x770cbfff3c47134a878d513921ac59a1fd24e514",
                "erc": "",
                "slots": [
                    {
                        "current": "0x0000000000000000000000000000000636b83011bf5b6dc85ac5eb5b9a0cd155",
                        "key": "0x0000000000000000000000000000000000000000000000000000000000000009",
                        "prev": "0x0000000000000000000000000000000636b80a1ab5993ebdbc00bfc2e4cc243d"
                    },
                    {
                        "current": "0x000000000000000000000000000003aa95c30c061fb70e965293600343471a38",
                        "key": "0x000000000000000000000000000000000000000000000000000000000000000a",
                        "prev": "0x000000000000000000000000000003aa94137dd3452ab24474329767387bee20"
                    },
                    {
                        "current": "0x62f4d41d000000000000000002c22a3005da000000000000000094ced9a65e83",
                        "key": "0x0000000000000000000000000000000000000000000000000000000000000008",
                        "prev": "0x62f4d415000000000000000002c22cffb20d000000000000000094ce40774803"
                    }
                ],
                "storageVariables": []
            },
            {
                "address": "0xa0b86991c6218b36c1d19d4a2e9eb0ce3606eb48",
                "erc": "ERC-20",
                "slots": [
                    {
                        "current": "0x0000000000000000000000000000000000000000000000000000000002cfac33",
                        "key": "0xa9b5c02624c4f54e4fb577c1ebe67c23ad0bc01c8a523bb440e444ce53f74117",
                        "prev": "0x0000000000000000000000000000000000000000000000000000000000000000"
                    },
                    {
                        "current": "0x000000000000000000000000000000000000000000000000000002c22a3005da",
                        "key": "0x5567f4fa644e5717b47759cf8a3825755a8f24c41e8417682f5df7269ec75768",
                        "prev": "0x000000000000000000000000000000000000000000000000000002c22cffb20d"
                    }
                ],
                "storageVariables": [
                    {
                        "name": "balances",
                        "type": "mapping(address => uint256)",
                        "value": {
                            "pairs": [
                                {
                                    "key": "0x770cbfff3c47134a878d513921ac59a1fd24e514",
                                    "value": {
                                        "current": "3032954701274",
                                        "prev": "3033001865741",
                                        "typeTag": 1
                                    }
                                },
                                {
                                    "key": "0xd2c668952880c176926da4617b2be373af022cd3",
                                    "value": {
                                        "current": "47164467",
                                        "prev": "0",
                                        "typeTag": 1
                                    }
                                }
                            ],
                            "typeTag": 4
                        }
                    }
                ]
            }
        ]
    }
}