{
    "balance_change": {
        "balanceChanges": [
            {
                "account": "0x887abff4bb0c5c66921aa2f9f0b3b3a0af31765e",
                "assets": [
                    {
                        "address": "0xc5d105e63711398af9bbff092d4b6769c82f793d",
                        "amount": "5",
                        "iconUrl": "",
                        "isERC1155": false,
                        "isERC721": false,
                        "sign": false,
                        "value": ""
                    }
                ]
            },
            {
                "account": "0xf09a175882364e34fa9e57f0bc964cf9939ce2c8",
                "assets": [
                    {
                        "address": "0xc5d105e63711398af9bbff092d4b6769c82f793d",
                        "amount": "5",
                        "iconUrl": "",
                        "isERC1155": false,
                        "isERC721": false,
                        "sign": true,
                        "value": ""
                    }
                ]
            }
        ]
    },
    "profile": {
        "basic_info": {
            "baseFee": "",
            "blockNumber": 5469911,
            "callData": "0xa9059cbb000000000000000000000000f09a175882364e34fa9e57f0bc964cf9939ce2c80000000000000000000000000000000000000000000000004563918244f40000",
            "debugEnable": true,
            "errorInfo": "",
            "eventCount": 1,
            "feeRecipient": "0xb2930b35844a230f00e51431acae96fe543a0347",
            "formatValue": "0",
            "gasLimit": 74680,
            "gasPrice": "1",
            "gasUsed": 22340,
            "intTxnCount": 0,
            "internalRevert": false,
            "internalRevertMessage": "",
            "isContractCreation": false,
            "isFlashloan": false,
            "maxFee": "",
            "nonce": 0,
            "overwritedBlockNumber": -1,
            "priorityFee": "",
            "receiver": "0xc5d105e63711398af9bbff092d4b6769c82f793d",
            "revertMessage": "",
            "sender": "0x887abff4bb0c5c66921aa2f9f0b3b3a0af31765e",
            "simulationEnable": true,
            "sourceTxnHash": "0x7efcf6e31ed8e1268b6458536e2fd2502e40217a5d282db5942b5dba658abeac",
            "status": true,
            "timestamp": "2018-04-19T18:53:50Z",
            "transactionFee": "0.00002234",
            "txnHash": "0x7efcf6e31ed8e1268b6458536e2fd2502e40217a5d282db5942b5dba658abeac",
            "txnIndex": 3,
            "type": 0,
            "value": "0"
        },
        "fund_flow": [
            {
                "amount": "5",
                "from": "0x887abff4bb0c5c66921aa2f9f0b3b3a0af31765e",
                "id": 1,
                "isERC1155": false,
                "isERC721": false,
                "isReverted": false,
                "order": 1,
                "to": "0xf09a175882364e34fa9e57f0bc964cf9939ce2c8",
                "token": "0xc5d105e63711398af9bbff092d4b6769c82f793d"
            }
        ],
        "token_infos": [
            {
                "address": "0xc02aaa39b223fe8d0a0e5c4f27ead9083c756cc2",
                "decimals": 18
            },
            {
                "address": "0xc5d105e63711398af9bbff092d4b6769c82f793d",
                "decimals": 18
            },
            {
                "address": "0xeeeeeeeeeeeeeeeeeeeeeeeeeeeeeeeeeeeeeeee",
                "decimals": 18
            }
        ]
    },
    "address_label": {
        "labels": [
            {
                "address": "0x0000000000000000000000000000000000000003",
                "label": "Precompiled"
            },
            {
                "address": "0x0000000000000000000000000000000000000004",
                "label": "Precompiled"
            },
            {
                "address": "0xeeeeeeeeeeeeeeeeeeeeeeeeeeeeeeeeeeeeeeee",
                "label": "Ether"
            },
            {
                "address": "0xc5d105e63711398af9bbff092d4b6769c82f793d",
                "label": "Beauty Chain: BEC Token"
            },
            {
                "address": "0x0000000000000000000000000000000000000001",
                "label": "Precompiled"
            },
            {
                "address": "0x0000000000000000000000000000000000000002",
                "label": "Precompiled"
            }
        ]
    },
    "trace": {
        "accountLabels": null,
        "dataMap": {
            "-1": {
                "invocation": {
                    "address": "0x887abff4bb0c5c66921aa2f9f0b3b3a0af31765e",
                    "callData": "",
                    "decodedMethod": null,
                    "errorInfo": "",
                    "fromAddress": "",
                    "gasUsed": 0,
                    "id": -1,
                    "methodDecoded": false,
                    "operation": "",
                    "output": "",
                    "revert": false,
                    "revertMessage": "",
                    "selector": "",
                    "status": false,
                    "value": ""
                },
                "nodeType": 0
            },
            "0": {
                "invocation": {
                    "address": "0xc5d105e63711398af9bbff092d4b6769c82f793d",
                    "callData": "0x000000000000000000000000f09a175882364e34fa9e57f0bc964cf9939ce2c80000000000000000000000000000000000000000000000004563918244f40000",
                    "decodedMethod": {
                        "callParams": [
                            {
                                "name": "_to",
                                "type": "address",
                                "value": "0xf09a175882364e34fa9e57f0bc964cf9939ce2c8"
                            },
                            {
                                "decimalAvailable": true,
                                "name": "_value",
                                "type": "uint256",
                                "value": "5,000,000,000,000,000,000"
                            }
                        ],
                        "constructorArguments": "",
                        "name": "transfer",
                        "returnParams": [
                            {
                                "name": "",
                                "type": "bool",
                                "value": true
                            }
                        ],
                        "signature": "transfer(address,uint256)"
                    },
                    "errorInfo": "",
                    "fromAddress": "0x887abff4bb0c5c66921aa2f9f0b3b3a0af31765e",
                    "gasUsed": 22340,
                    "id": 0,
                    "methodDecoded": true,
                    "operation": "CALL",
                    "output": "0x0000000000000000000000000000000000000000000000000000000000000001",
                    "revert": false,
                    "revertMessage": "",
                    "selector": "0xa9059cbb",
                    "status": true,
                    "value": "0"
                },
                "nodeType": 0
            },
            "1": {
                "event": {
                    "contract": "0xc5d105e63711398af9bbff092d4b6769c82f793d",
                    "decodedLog": {
                        "name": "Transfer",
                        "params": [
                            {
                                "name": "from",
                                "type": "address",
                                "value": "0x887abff4bb0c5c66921aa2f9f0b3b3a0af31765e"
                            },
                            {
                                "name": "to",
                                "type": "address",
                                "value": "0xf09a175882364e34fa9e57f0bc964cf9939ce2c8"
                            },
                            {
                                "decimalAvailable": true,
                                "name": "value",
                                "type": "uint256",
                                "value": "5,000,000,000,000,000,000"
                            }
                        ],
                        "signature": "Transfer(address,address,uint256)"
                    },
                    "id": 1,
                    "logData": "0x0000000000000000000000000000000000000000000000004563918244f40000",
                    "logDecoded": true,
                    "operation": "EVENT",
                    "revert": false,
                    "status": true,
                    "topics": [
                        "0xddf252ad1be2c89b69c2b068fc378daa952ba7f163c4a11628f55a4df523b3ef",
                        "0x000000000000000000000000887abff4bb0c5c66921aa2f9f0b3b3a0af31765e",
                        "0x000000000000000000000000f09a175882364e34fa9e57f0bc964cf9939ce2c8"
                    ]
                },
                "nodeType": 1
            }
        },
        "gasFlame": [
            {
                "children": [
                    {
                        "children": [
                            {
                                "children": [],
                                "depth": 0,
                                "name": "Initial Gas",
                                "value": 23192
                            },
                            {
                                "children": [],
                                "depth": 0,
                                "name": "Executed Gas",
                                "value": 14148
                            }
                        ],
                        "depth": -1,
                        "name": "Actual Gas Used",
                        "value": 22340
                    },
                    {
                        "children": [],
                        "depth": -1,
                        "name": "Refunded Gas",
                        "value": 15000
                    }
                ],
                "depth": -2,
                "name": "Total Gas",
                "value": 37340
            }
        ],
        "isConfirmed": true,
        "mainTrace": [
            {
                "children": [
                    {
                        "children": [
                            {
                                "children": [],
                                "depth": 1,
                                "id": 1,
                                "order": 1
                            }
                        ],
                        "depth": 0,
                        "id": 0,
                        "order": 0
                    }
                ],
                "depth": -1,
                "id": -1,
                "order": -1
            }
        ],
        "mainTraceNodeCount": 2,
        "parentIdMap": {
            "0": -1,
            "1": 0
        },
        "tidyTrace": [
            {
                "children": [
                    {
                        "children": [
                            {
                                "children": [],
                                "depth": 1,
                                "id": 1,
                                "order": 1
                            }
                        ],
                        "depth": 0,
                        "id": 0,
                        "order": 0
                    }
                ],
                "depth": -1,
                "id": -1,
                "order": -1
            }
        ],
        "tidyTraceNodeCount": 2
    },
    "state_change": {
        "stateChanges": [
            {
                "address": "0xc5d105e63711398af9bbff092d4b6769c82f793d",
                "erc": "ERC-20",
                "slots": [
                    {
                        "current": "0x0000000000000000000000000000000000000000000000000000000000000000",
                        "key": "0x92d38fa271639254d954fe48237afaec375ed7956e7fece7e5de191cecacde5e",
                        "prev": "0x0000000000000000000000000000000000000000000000004563918244f40000"
                    },
                    {
                        "current": "0x000000000000000000000000000000000000000000000392cbab546b0ccc0000",
                        "key": "0x7c58a018c5a7947fe9dd540329e89745d59336763aded126335c5a072a3aa087",
                        "prev": "0x0000000000000000000000000000000000000000000003928647c2e8c7d80000"
                    }
                ],
                "storageVariables": [
                    {
                        "name": "balances",
                        "type": "mapping(address => uint256)",
                        "value": {
                            "pairs": [
                                {
                                    "key": "0x887abff4bb0c5c66921aa2f9f0b3b3a0af31765e",
                                    "value": {
                                        "current": "0",
                                        "prev": "5000000000000000000",
                                        "typeTag": 1
                                    }
                                },
                                {
                                    "key": "0xf09a175882364e34fa9e57f0bc964cf9939ce2c8",
                                    "value": {
                                        "current": "16875000000000000000000",
                                        "prev": "16870000000000000000000",
                                        "typeTag": 1
                                    }
                                }
                            ],
                            "typeTag": 4
                        }
                    }
                ]
            }
        ]
    }
}