{
    "balance_change": {
        "balanceChanges": [
            {
                "account": "0xce08958266f58b638527b224d8b7141a3ff9c77e",
                "assets": [
                    {
                        "address": "0xc02aaa39b223fe8d0a0e5c4f27ead9083c756cc2",
                        "amount": "1",
                        "iconUrl": "https://assets.blocksec.com/icon/f1cb2d02c471d545bbc7722daf3277fd852d98e63d118771af7047bd8256c516.png",
                        "isERC1155": false,
                        "isERC721": false,
                        "sign": false,
                        "value": "2263.7699999999999818"
                    }
                ]
            },
            {
                "account": "0xaac35a91ed4e9a2458deff00a9c7006d8df6dcf5",
                "assets": [
                    {
                        "address": "0xc02aaa39b223fe8d0a0e5c4f27ead9083c756cc2",
                        "amount": "1",
                        "iconUrl": "https://assets.blocksec.com/icon/f1cb2d02c471d545bbc7722daf3277fd852d98e63d118771af7047bd8256c516.png",
                        "isERC1155": false,
                        "isERC721": false,
                        "sign": true,
                        "value": "2263.7699999999999818"
                    }
                ]
            }
        ]
    },
    "profile": {
        "basic_info": {
            "baseFee": "9.538094416",
            "blockNumber": 19101040,
            "callData": "0x02327c0a0000000000000000000000000000000000000000000000000de0b6b3a76400000000000000000000000000000000000000000000000008e91efaeaacd0d3e3c0000000000000000000000000ce08958266f58b638527b224d8b7141a3ff9c77e",
            "debugEnable": true,
            "errorInfo": "",
            "eventCount": 2,
            "feeRecipient": "0x1f9090aae28b8a3dceadf281b0f12828e676c326",
            "formatValue": "0",
            "gasLimit": 138520,
            "gasPrice": "9.638094416",
            "gasUsed": 76730,
            "intTxnCount": 8,
            "internalRevert": false,
            "internalRevertMessage": "",
            "isContractCreation": false,
            "isFlashloan": false,
            "maxFee": "12.352933002",
            "nonce": 10226,
            "overwritedBlockNumber": -1,
            "priorityFee": "0.1",
            "receiver": "0xaac35a91ed4e9a2458deff00a9c7006d8df6dcf5",
            "revertMessage": "",
            "sender": "0xce08958266f58b638527b224d8b7141a3ff9c77e",
            "simulationEnable": true,
            "sourceTxnHash": "0x7e66e80bf4b3835a92ba22d0387557ae3a6001c231744e900af52a85fd69cb2b",
            "status": true,
            "timestamp": "2024-01-27T23:00:35Z",
            "transactionFee": "0.00073953098453968",
            "txnHash": "0x7e66e80bf4b3835a92ba22d0387557ae3a6001c231744e900af52a85fd69cb2b",
            "txnIndex": 128,
            "type": 2,
            "value": "0"
        },
        "fund_flow": [
            {
                "amount": "1",
                "from": "0xce08958266f58b638527b224d8b7141a3ff9c77e",
                "id": 1,
                "isERC1155": false,
                "isERC721": false,
                "isReverted": false,
                "order": 1,
                "to": "0xaac35a91ed4e9a2458deff00a9c7006d8df6dcf5",
                "token": "0xc02aaa39b223fe8d0a0e5c4f27ead9083c756cc2"
            }
        ],
        "token_infos": [
            {
                "address": "0xeeeeeeeeeeeeeeeeeeeeeeeeeeeeeeeeeeeeeeee",
                "decimals": 18
            },
            {
                "address": "0xc02aaa39b223fe8d0a0e5c4f27ead9083c756cc2",
                "decimals": 18
            }
        ]
    },
    "address_label": {
        "labels": [
            {
                "address": "0xb30240d48c05a4b950c470e2d6aefc9117a50624",
                "label": "Ruby Protocol: RUBY Token"
            },
            {
                "address": "0x81a89a3c934b688f93368b07d1210c7d669e27bc",
                "label": "LiquidityBootstrapPool"
            },
            {
                "address": "0x0000000000000000000000000000000000000001",
                "label": "Precompiled"
            },
            {
                "address": "0x0000000000000000000000000000000000000002",
                "label": "Precompiled"
            },
            {
                "address": "0x0000000000000000000000000000000000000003",
                "label": "Precompiled"
            },
            {
                "address": "0x0000000000000000000000000000000000000004",
                "label": "Precompiled"
            },
            {
                "address": "0xeeeeeeeeeeeeeeeeeeeeeeeeeeeeeeeeeeeeeeee",
                "label": "Ether"
            },
            {
                "address": "0xc02aaa39b223fe8d0a0e5c4f27ead9083c756cc2",
                "label": "Wrapped Ether (WETH)"
            }
        ]
    },
    "trace": {
        "accountLabels": null,
        "dataMap": {
            "-1": {
                "invocation": {
                    "address": "0xce08958266f58b638527b224d8b7141a3ff9c77e",
                    "callData": "",
                    "decodedMethod": null,
                    "errorInfo": "",
                    "fromAddress": "",
                    "gasUsed": 0,
                    "id": -1,
                    "methodDecoded": false,
                    "operation": "",
                    "output": "",
                    "revert": false,
                    "revertMessage": "",
                    "selector": "",
                    "status": false,
                    "value": ""
                },
                "nodeType": 0
            },
            "0": {
                "invocation": {
                    "address": "0xaac35a91ed4e9a2458deff00a9c7006d8df6dcf5",
                    "callData": "0x0000000000000000000000000000000000000000000000000de0b6b3a76400000000000000000000000000000000000000000000000008e91efaeaacd0d3e3c0000000000000000000000000ce08958266f58b638527b224d8b7141a3ff9c77e",
                    "decodedMethod": {
                        "callParams": [
                            {
                                "name": "assetsIn",
                                "type": "uint256",
                                "value": "1,000,000,000,000,000,000"
                            },
                            {
                                "name": "minSharesOut",
                                "type": "uint256",
                                "value": "42,079,255,586,724,761,560,000"
                            },
                            {
                                "name": "recipient",
                                "type": "address",
                                "value": "0xce08958266f58b638527b224d8b7141a3ff9c77e"
                            }
                        ],
                        "constructorArguments": "",
                        "name": "swapExactAssetsForShares",
                        "returnParams": [
                            {
                                "name": "sharesOut",
                                "type": "uint256",
                                "value": "42,179,311,050,706,991,126,092"
                            }
                        ],
                        "signature": "swapExactAssetsForShares(uint256,uint256,address)"
                    },
                    "errorInfo": "",
                    "fromAddress": "0xce08958266f58b638527b224d8b7141a3ff9c77e",
                    "gasUsed": 76730,
                    "id": 0,
                    "methodDecoded": true,
                    "operation": "CALL",
                    "output": "0x0000000000000000000000000000000000000000000008ee8b87550ce283164c",
                    "revert": false,
                    "revertMessage": "",
                    "selector": "0x02327c0a",
                    "status": true,
                    "value": "0"
                },
                "nodeType": 0
            },
            "1": {
                "invocation": {
                    "address": "0x81a89a3c934b688f93368b07d1210c7d669e27bc",
                    "callData": "0x0000000000000000000000000000000000000000000000000de0b6b3a76400000000000000000000000000000000000000000000000008e91efaeaacd0d3e3c0000000000000000000000000ce08958266f58b638527b224d8b7141a3ff9c77ec02aaa39b223fe8d0a0e5c4f27ead9083c756cc2b30240d48c05a4b950c470e2d6aefc9117a50624a5033a6bdb31e52ce6ba9c67bff7331ac2686e72c6fe9dc8b3b8316bc6cb0a5b69e10d7be220b5eb00000000000000000000000000000000000000000000ffffffffffffffffffffffffffffffffffffffffffffffffffffffffffffffffff006a94d74f4300000000000000000000002386f26fc100000b1a2bc2ec5000000065b25b500065b64fd00000000000000000000000470de4df82000001000000000000000000000000000000000000000000000000000000000000000000e6",
                    "decodedMethod": {
                        "callParams": [
                            {
                                "name": "assetsIn",
                                "type": "uint256",
                                "value": "1,000,000,000,000,000,000"
                            },
                            {
                                "name": "minSharesOut",
                                "type": "uint256",
                                "value": "42,079,255,586,724,761,560,000"
                            },
                            {
                                "name": "recipient",
                                "type": "address",
                                "value": "0xce08958266f58b638527b224d8b7141a3ff9c77e"
                            }
                        ],
                        "constructorArguments": "",
                        "name": "swapExactAssetsForShares",
                        "returnParams": [
                            {
                                "name": "sharesOut",
                                "type": "uint256",
                                "value": "42,179,311,050,706,991,126,092"
                            }
                        ],
                        "signature": "swapExactAssetsForShares(uint256,uint256,address)"
                    },
                    "errorInfo": "",
                    "fromAddress": "0xaac35a91ed4e9a2458deff00a9c7006d8df6dcf5",
                    "gasUsed": 64492,
                    "id": 1,
                    "methodDecoded": true,
                    "operation": "DELEGATECALL",
                    "output": "0x0000000000000000000000000000000000000000000008ee8b87550ce283164c",
                    "revert": false,
                    "revertMessage": "",
                    "selector": "0x02327c0a",
                    "status": true,
                    "value": "0"
                },
                "nodeType": 0
            },
            "10": {
                "event": {
                    "contract": "0xaac35a91ed4e9a2458deff00a9c7006d8df6dcf5",
                    "decodedLog": {
                        "name": "Buy",
                        "params": [
                            {
                                "name": "caller",
                                "type": "address",
                                "value": "0xce08958266f58b638527b224d8b7141a3ff9c77e"
                            },
                            {
                                "name": "assets",
                                "type": "uint256",
                                "value": "1,000,000,000,000,000,000"
                            },
                            {
                                "name": "shares",
                                "type": "uint256",
                                "value": "42,179,311,050,706,991,126,092"
                            },
                            {
                                "name": "swapFee",
                                "type": "uint256",
                                "value": "20,000,000,000,000,000"
                            }
                        ],
                        "signature": "Buy(address,uint256,uint256,uint256)"
                    },
                    "id": 10,
                    "logData": "0x0000000000000000000000000000000000000000000000000de0b6b3a76400000000000000000000000000000000000000000000000008ee8b87550ce283164c00000000000000000000000000000000000000000000000000470de4df820000",
                    "logDecoded": true,
                    "operation": "EVENT",
                    "revert": false,
                    "status": true,
                    "topics": [
                        "0xbeae048c6d270d9469f86cf6e8fedda3c60ad770f16c24c9fc131c8e9a09101d",
                        "0x000000000000000000000000ce08958266f58b638527b224d8b7141a3ff9c77e"
                    ]
                },
                "nodeType": 1
            },
            "2": {
                "invocation": {
                    "address": "0xc02aaa39b223fe8d0a0e5c4f27ead9083c756cc2",
                    "callData": "0x000000000000000000000000aac35a91ed4e9a2458deff00a9c7006d8df6dcf5",
                    "decodedMethod": {
                        "callParams": [
                            {
                                "name": "",
                                "type": "address",
                                "value": "0xaac35a91ed4e9a2458deff00a9c7006d8df6dcf5"
                            }
                        ],
                        "constructorArguments": "",
                        "name": "balanceOf",
                        "returnParams": [
                            {
                                "decimalAvailable": true,
                                "name": "",
                                "type": "uint256",
                                "value": "790,192,407,953,093,311,170"
                            }
                        ],
                        "signature": "balanceOf(address)"
                    },
                    "errorInfo": "",
                    "fromAddress": "0xaac35a91ed4e9a2458deff00a9c7006d8df6dcf5",
                    "gasUsed": 2534,
                    "id": 2,
                    "methodDecoded": true,
                    "operation": "STATICCALL",
                    "output": "0x00000000000000000000000000000000000000000000002ad61f606a1eae3ac2",
                    "revert": false,
                    "revertMessage": "",
                    "selector": "0x70a08231",
                    "status": true,
                    "value": "0"
                },
                "nodeType": 0
            },
            "3": {
                "invocation": {
                    "address": "0xb30240d48c05a4b950c470e2d6aefc9117a50624",
                    "callData": "0x000000000000000000000000aac35a91ed4e9a2458deff00a9c7006d8df6dcf5",
                    "decodedMethod": {
                        "callParams": [
                            {
                                "name": "account",
                                "type": "address",
                                "value": "0xaac35a91ed4e9a2458deff00a9c7006d8df6dcf5"
                            }
                        ],
                        "constructorArguments": "",
                        "name": "balanceOf",
                        "returnParams": [
                            {
                                "decimalAvailable": true,
                                "name": "",
                                "type": "uint256",
                                "value": "50,000,000,000,000,000,000,000,000"
                            }
                        ],
                        "signature": "balanceOf(address)"
                    },
                    "errorInfo": "",
                    "fromAddress": "0xaac35a91ed4e9a2458deff00a9c7006d8df6dcf5",
                    "gasUsed": 2629,
                    "id": 3,
                    "methodDecoded": true,
                    "operation": "STATICCALL",
                    "output": "0x000000000000000000000000000000000000000000295be96e64066972000000",
                    "revert": false,
                    "revertMessage": "",
                    "selector": "0x70a08231",
                    "status": true,
                    "value": "0"
                },
                "nodeType": 0
            },
            "4": {
                "invocation": {
                    "address": "0xc02aaa39b223fe8d0a0e5c4f27ead9083c756cc2",
                    "callData": "0x",
                    "decodedMethod": {
                        "callParams": [],
                        "constructorArguments": "",
                        "name": "decimals",
                        "returnParams": [
                            {
                                "name": "",
                                "type": "uint8",
                                "value": "18"
                            }
                        ],
                        "signature": "decimals()"
                    },
                    "errorInfo": "",
                    "fromAddress": "0xaac35a91ed4e9a2458deff00a9c7006d8df6dcf5",
                    "gasUsed": 2444,
                    "id": 4,
                    "methodDecoded": true,
                    "operation": "STATICCALL",
                    "output": "0x0000000000000000000000000000000000000000000000000000000000000012",
                    "revert": false,
                    "revertMessage": "",
                    "selector": "0x313ce567",
                    "status": true,
                    "value": "0"
                },
                "nodeType": 0
            },
            "5": {
                "invocation": {
                    "address": "0xb30240d48c05a4b950c470e2d6aefc9117a50624",
                    "callData": "0x",
                    "decodedMethod": {
                        "callParams": [],
                        "constructorArguments": "",
                        "name": "decimals",
                        "returnParams": [
                            {
                                "name": "",
                                "type": "uint8",
                                "value": "18"
                            }
                        ],
                        "signature": "decimals()"
                    },
                    "errorInfo": "",
                    "fromAddress": "0xaac35a91ed4e9a2458deff00a9c7006d8df6dcf5",
                    "gasUsed": 222,
                    "id": 5,
                    "methodDecoded": true,
                    "operation": "STATICCALL",
                    "output": "0x0000000000000000000000000000000000000000000000000000000000000012",
                    "revert": false,
                    "revertMessage": "",
                    "selector": "0x313ce567",
                    "status": true,
                    "value": "0"
                },
                "nodeType": 0
            },
            "6": {
                "invocation": {
                    "address": "0xc02aaa39b223fe8d0a0e5c4f27ead9083c756cc2",
                    "callData": "0x",
                    "decodedMethod": {
                        "callParams": [],
                        "constructorArguments": "",
                        "name": "decimals",
                        "returnParams": [
                            {
                                "name": "",
                                "type": "uint8",
                                "value": "18"
                            }
                        ],
                        "signature": "decimals()"
                    },
                    "errorInfo": "",
                    "fromAddress": "0xaac35a91ed4e9a2458deff00a9c7006d8df6dcf5",
                    "gasUsed": 444,
                    "id": 6,
                    "methodDecoded": true,
                    "operation": "STATICCALL",
                    "output": "0x0000000000000000000000000000000000000000000000000000000000000012",
                    "revert": false,
                    "revertMessage": "",
                    "selector": "0x313ce567",
                    "status": true,
                    "value": "0"
                },
                "nodeType": 0
            },
            "7": {
                "invocation": {
                    "address": "0xb30240d48c05a4b950c470e2d6aefc9117a50624",
                    "callData": "0x",
                    "decodedMethod": {
                        "callParams": [],
                        "constructorArguments": "",
                        "name": "decimals",
                        "returnParams": [
                            {
                                "name": "",
                                "type": "uint8",
                                "value": "18"
                            }
                        ],
                        "signature": "decimals()"
                    },
                    "errorInfo": "",
                    "fromAddress": "0xaac35a91ed4e9a2458deff00a9c7006d8df6dcf5",
                    "gasUsed": 222,
                    "id": 7,
                    "methodDecoded": true,
                    "operation": "STATICCALL",
                    "output": "0x0000000000000000000000000000000000000000000000000000000000000012",
                    "revert": false,
                    "revertMessage": "",
                    "selector": "0x313ce567",
                    "status": true,
                    "value": "0"
                },
                "nodeType": 0
            },
            "8": {
                "invocation": {
                    "address": "0xc02aaa39b223fe8d0a0e5c4f27ead9083c756cc2",
                    "callData": "0x000000000000000000000000ce08958266f58b638527b224d8b7141a3ff9c77e000000000000000000000000aac35a91ed4e9a2458deff00a9c7006d8df6dcf50000000000000000000000000000000000000000000000000de0b6b3a7640000",
                    "decodedMethod": {
                        "callParams": [
                            {
                                "name": "src",
                                "type": "address",
                                "value": "0xce08958266f58b638527b224d8b7141a3ff9c77e"
                            },
                            {
                                "name": "dst",
                                "type": "address",
                                "value": "0xaac35a91ed4e9a2458deff00a9c7006d8df6dcf5"
                            },
                            {
                                "decimalAvailable": true,
                                "name": "wad",
                                "type": "uint256",
                                "value": "1,000,000,000,000,000,000"
                            }
                        ],
                        "constructorArguments": "",
                        "name": "transferFrom",
                        "returnParams": [
                            {
                                "name": "",
                                "type": "bool",
                                "value": true
                            }
                        ],
                        "signature": "transferFrom(address,address,uint256)"
                    },
                    "errorInfo": "",
                    "fromAddress": "0xaac35a91ed4e9a2458deff00a9c7006d8df6dcf5",
                    "gasUsed": 16548,
                    "id": 8,
                    "methodDecoded": true,
                    "operation": "CALL",
                    "output": "0x0000000000000000000000000000000000000000000000000000000000000001",
                    "revert": false,
                    "revertMessage": "",
                    "selector": "0x23b872dd",
                    "status": true,
                    "value": "0"
                },
                "nodeType": 0
            },
            "9": {
                "event": {
                    "contract": "0xc02aaa39b223fe8d0a0e5c4f27ead9083c756cc2",
                    "decodedLog": {
                        "name": "Transfer",
                        "params": [
                            {
                                "name": "src",
                                "type": "address",
                                "value": "0xce08958266f58b638527b224d8b7141a3ff9c77e"
                            },
                            {
                                "name": "dst",
                                "type": "address",
                                "value": "0xaac35a91ed4e9a2458deff00a9c7006d8df6dcf5"
                            },
                            {
                                "decimalAvailable": true,
                                "name": "wad",
                                "type": "uint256",
                                "value": "1,000,000,000,000,000,000"
                            }
                        ],
                        "signature": "Transfer(address,address,uint256)"
                    },
                    "id": 9,
                    "logData": "0x0000000000000000000000000000000000000000000000000de0b6b3a7640000",
                    "logDecoded": true,
                    "operation": "EVENT",
                    "revert": false,
                    "status": true,
                    "topics": [
                        "0xddf252ad1be2c89b69c2b068fc378daa952ba7f163c4a11628f55a4df523b3ef",
                        "0x000000000000000000000000ce08958266f58b638527b224d8b7141a3ff9c77e",
                        "0x000000000000000000000000aac35a91ed4e9a2458deff00a9c7006d8df6dcf5"
                    ]
                },
                "nodeType": 1
            }
        },
        "gasFlame": [
            {
                "children": [
                    {
                        "children": [
                            {
                                "children": [],
                                "depth": 0,
                                "name": "Initial Gas",
                                "value": 21880
                            },
                            {
                                "children": [
                                    {
                                        "children": [
                                            {
                                                "children": [],
                                                "depth": 2,
                                                "name": "balanceOf",
                                                "value": 2534
                                            },
                                            {
                                                "children": [],
                                                "depth": 2,
                                                "name": "balanceOf",
                                                "value": 2629
                                            },
                                            {
                                                "children": [],
                                                "depth": 2,
                                                "name": "decimals",
                                                "value": 2444
                                            },
                                            {
                                                "children": [],
                                                "depth": 2,
                                                "name": "decimals",
                                                "value": 222
                                            },
                                            {
                                                "children": [],
                                                "depth": 2,
                                                "name": "decimals",
                                                "value": 444
                                            },
                                            {
                                                "children": [],
                                                "depth": 2,
                                                "name": "decimals",
                                                "value": 222
                                            },
                                            {
                                                "children": [],
                                                "depth": 2,
                                                "name": "transferFrom",
                                                "value": 16548
                                            }
                                        ],
                                        "depth": 1,
                                        "name": "swapExactAssetsForShares",
                                        "value": 64492
                                    }
                                ],
                                "depth": 0,
                                "name": "Executed Gas",
                                "value": 67250
                            }
                        ],
                        "depth": -1,
                        "name": "Actual Gas Used",
                        "value": 76730
                    },
                    {
                        "children": [],
                        "depth": -1,
                        "name": "Refunded Gas",
                        "value": 12400
                    }
                ],
                "depth": -2,
                "name": "Total Gas",
                "value": 89130
            }
        ],
        "isConfirmed": true,
        "mainTrace": [
            {
                "children": [
                    {
                        "children": [
                            {
                                "children": [
                                    {
                                        "children": [],
                                        "depth": 2,
                                        "id": 2,
                                        "order": 2
                                    },
                                    {
                                        "children": [],
                                        "depth": 2,
                                        "id": 3,
                                        "order": 3
                                    },
                                    {
                                        "children": [],
                                        "depth": 2,
                                        "id": 4,
                                        "order": 4
                                    },
                                    {
                                        "children": [],
                                        "depth": 2,
                                        "id": 5,
                                        "order": 5
                                    },
                                    {
                                        "children": [],
                                        "depth": 2,
                                        "id": 6,
                                        "order": 6
                                    },
                                    {
                                        "children": [],
                                        "depth": 2,
                                        "id": 7,
                                        "order": 7
                                    },
                                    {
                                        "children": [
                                            {
                                                "children": [],
                                                "depth": 3,
                                                "id": 9,
                                                "order": 9
                                            }
                                        ],
                                        "depth": 2,
                                        "id": 8,
                                        "order": 8
                                    },
                                    {
                                        "children": [],
                                        "depth": 2,
                                        "id": 10,
                                        "order": 10
                                    }
                                ],
                                "depth": 1,
                                "id": 1,
                                "order": 1
                            }
                        ],
                        "depth": 0,
                        "id": 0,
                        "order": 0
                    }
                ],
                "depth": -1,
                "id": -1,
                "order": -1
            }
        ],
        "mainTraceNodeCount": 11,
        "parentIdMap": {
            "0": -1,
            "1": 0,
            "10": 1,
            "2": 1,
            "3": 1,
            "4": 1,
            "5": 1,
            "6": 1,
            "7": 1,
            "8": 1,
            "9": 8
        },
        "tidyTrace": [
            {
                "children": [
                    {
                        "children": [
                            {
                                "children": [
                                    {
                                        "children": [
                                            {
                                                "children": [],
                                                "depth": 3,
                                                "id": 9,
                                                "order": 9
                                            }
                                        ],
                                        "depth": 2,
                                        "id": 8,
                                        "order": 8
                                    },
                                    {
                                        "children": [],
                                        "depth": 2,
                                        "id": 10,
                                        "order": 10
                                    }
                                ],
                                "depth": 1,
                                "id": 1,
                                "order": 1
                            }
                        ],
                        "depth": 0,
                        "id": 0,
                        "order": 0
                    }
                ],
                "depth": -1,
                "id": -1,
                "order": -1
            }
        ],
        "tidyTraceNodeCount": 5
    },
    "state_change": {
        "stateChanges": [
            {
                "address": "0xaac35a91ed4e9a2458deff00a9c7006d8df6dcf5",
                "erc": "",
                "slots": [
                    {
                        "current": "0x000000000000000000000000000000000000000000000000e557fa0ead90865d",
                        "key": "0x0000000000000000000000000000000000000000000000000000000000000007",
                        "prev": "0x000000000000000000000000000000000000000000000000e510ec29ce0e865d"
                    },
                    {
                        "current": "0x0000000000000000000000000000000000000000001a32f900ff487c336a84ea",
                        "key": "0x0000000000000000000000000000000000000000000000000000000000000005",
                        "prev": "0x0000000000000000000000000000000000000000001a2a0a7577f36f50e76e9e"
                    },
                    {
                        "current": "0x0000000000000000000000000000000000000000000011eecd7b5482867cf9b6",
                        "key": "0x01b90b6f9fcec351867c1de23dd6609889d8bcddda9d0bb774c7ff811555594f",
                        "prev": "0x00000000000000000000000000000000000000000000090041f3ff75a3f9e36a"
                    }
                ],
                "storageVariables": [
                    {
                        "name": "totalSwapFeesAsset",
                        "type": "uint256",
                        "value": {
                            "current": "16525952298607740509",
                            "prev": "16505952298607740509",
                            "typeTag": 1
                        }
                    },
                    {
                        "name": "totalPurchased",
                        "type": "uint256",
                        "value": {
                            "current": "31672782945254011818378474",
                            "prev": "31630603634203304827252382",
                            "typeTag": 1
                        }
                    },
                    {
                        "name": "purchasedShares",
                        "type": "mapping(address => uint256)",
                        "value": {
                            "pairs": [
                                {
                                    "key": "0xce08958266f58b638527b224d8b7141a3ff9c77e",
                                    "value": {
                                        "current": "84685361819446331374006",
                                        "prev": "42506050768739340247914",
                                        "typeTag": 1
                                    }
                                }
                            ],
                            "typeTag": 4
                        }
                    }
                ]
            },
            {
                "address": "0xc02aaa39b223fe8d0a0e5c4f27ead9083c756cc2",
                "erc": "ERC-20",
                "slots": [
                    {
                        "current": "0x00000000000000000000000000000000000000000000002ae400171dc6123ac2",
                        "key": "0xca96ea1c5d4a5891bec7963b7f305f056add16ff5c80a3f487ea28a2cb712aef",
                        "prev": "0x00000000000000000000000000000000000000000000002ad61f606a1eae3ac2"
                    },
                    {
                        "current": "0x0000000000000000000000000000000000000000000000000000000000000000",
                        "key": "0x859335f3f8ff6a5b16fed2030629c3587a75fa73bb4527a30aa01f63aed6b2fc",
                        "prev": "0x0000000000000000000000000000000000000000000000000de0b6b3a7640000"
                    },
                    {
                        "current": "0x0000000000000000000000000000000000000000000000000000000000000000",
                        "key": "0xf502b9f83886b99a25eba609ba08c47112eaa4f011e53f41deb78efb9863058e",
                        "prev": "0x0000000000000000000000000000000000000000000000000de0b6b3a7640000"
                    }
                ],
                "storageVariables": [
                    {
                        "name": "allowance",
                        "type": "mapping(address => mapping(address => uint256))",
                        "value": {
                            "pairs": [
                                {
                                    "key": "0xce08958266f58b638527b224d8b7141a3ff9c77e",
                                    "value": {
                                        "pairs": [
                                            {
                                                "key": "0xaac35a91ed4e9a2458deff00a9c7006d8df6dcf5",
                                                "value": {
                                                    "current": "0",
                                                    "prev": "1000000000000000000",
                                                    "typeTag": 1
                                                }
                                            }
                                        ],
                                        "typeTag": 4
                                    }
                                }
                            ],
                            "typeTag": 4
                        }
                    },
                    {
                        "name": "balanceOf",
                        "type": "mapping(address => uint256)",
                        "value": {
                            "pairs": [
                                {
                                    "key": "0xaac35a91ed4e9a2458deff00a9c7006d8df6dcf5",
                                    "value": {
                                        "current": "791192407953093311170",
                                        "prev": "790192407953093311170",
                                        "typeTag": 1
                                    }
                                },
                                {
                                    "key": "0xce08958266f58b638527b224d8b7141a3ff9c77e",
                                    "value": {
                                        "current": "0",
                                        "prev": "1000000000000000000",
                                        "typeTag": 1
                                    }
                                }
                            ],
                            "typeTag": 4
                        }
                    }
                ]
            }
        ]
    }
}