{
    "balance_change": {
        "balanceChanges": []
    },
    "profile": {
        "basic_info": {
            "baseFee": "",
            "blockNumber": 3404098,
            "callData": "0x1bbfb0290000000000000000000000009f89daa066755c11ea285d1d757ddcea1106aa16000000000000000000000000d87064f2ca9bb2ec333d4a0b02011afdf39c4fb000000000000000000000000000000000000000000000000000000000000000f8000000000000000000000000000000000000000000000000000000000000008000000000000000000000000000000000000000000000000000000000000000043036414100000000000000000000000000000000000000000000000000000000",
            "debugEnable": true,
            "errorInfo": "",
            "eventCount": 2,
            "feeRecipient": "0x61c808d82a3ac53231750dadc13c777b59310bd9",
            "formatValue": "0",
            "gasLimit": 300000,
            "gasPrice": "93.316236546",
            "gasUsed": 45234,
            "intTxnCount": 1,
            "internalRevert": false,
            "internalRevertMessage": "",
            "isContractCreation": false,
            "isFlashloan": false,
            "maxFee": "",
            "nonce": 2534,
            "overwritedBlockNumber": -1,
            "priorityFee": "",
            "receiver": "0x3ec225d0cd929148a1473c546c06dd1ee9f558b1",
            "revertMessage": "",
            "sender": "0xd87064f2ca9bb2ec333d4a0b02011afdf39c4fb0",
            "simulationEnable": true,
            "sourceTxnHash": "0x7eafde599f0e0a94e0f3dfada7ef6f9894864317b188aa2792a6478899f5c658",
            "status": true,
            "timestamp": "2017-03-23T12:20:19Z",
            "transactionFee": "0.004221066643921764",
            "txnHash": "0x7eafde599f0e0a94e0f3dfada7ef6f9894864317b188aa2792a6478899f5c658",
            "txnIndex": 1,
            "type": 0,
            "value": "0"
        },
        "fund_flow": [],
        "token_infos": [
            {
                "address": "0xc02aaa39b223fe8d0a0e5c4f27ead9083c756cc2",
                "decimals": 18
            },
            {
                "address": "0xeeeeeeeeeeeeeeeeeeeeeeeeeeeeeeeeeeeeeeee",
                "decimals": 18
            }
        ]
    },
    "address_label": {
        "labels": [
            {
                "address": "0xeeeeeeeeeeeeeeeeeeeeeeeeeeeeeeeeeeeeeeee",
                "label": "Ether"
            },
            {
                "address": "0xc3ef562cc403c8f9edf7c3826655fbf50f4ddde8",
                "label": "StableBalancer"
            },
            {
                "address": "0x0000000000000000000000000000000000000001",
                "label": "Precompiled"
            },
            {
                "address": "0x0000000000000000000000000000000000000002",
                "label": "Precompiled"
            },
            {
                "address": "0x0000000000000000000000000000000000000003",
                "label": "Precompiled"
            },
            {
                "address": "0x0000000000000000000000000000000000000004",
                "label": "Precompiled"
            }
        ]
    },
    "trace": {
        "accountLabels": null,
        "dataMap": {
            "-1": {
                "invocation": {
                    "address": "0xd87064f2ca9bb2ec333d4a0b02011afdf39c4fb0",
                    "callData": "",
                    "decodedMethod": null,
                    "errorInfo": "",
                    "fromAddress": "",
                    "gasUsed": 0,
                    "id": -1,
                    "methodDecoded": false,
                    "operation": "",
                    "output": "",
                    "revert": false,
                    "revertMessage": "",
                    "selector": "",
                    "status": false,
                    "value": ""
                },
                "nodeType": 0
            },
            "0": {
                "invocation": {
                    "address": "0x3ec225d0cd929148a1473c546c06dd1ee9f558b1",
                    "callData": "0x0000000000000000000000009f89daa066755c11ea285d1d757ddcea1106aa16000000000000000000000000d87064f2ca9bb2ec333d4a0b02011afdf39c4fb000000000000000000000000000000000000000000000000000000000000000f8000000000000000000000000000000000000000000000000000000000000008000000000000000000000000000000000000000000000000000000000000000043036414100000000000000000000000000000000000000000000000000000000",
                    "decodedMethod": {
                        "callParams": [
                            {
                                "name": "_from",
                                "type": "address",
                                "value": "0x9f89daa066755c11ea285d1d757ddcea1106aa16"
                            },
                            {
                                "name": "_to",
                                "type": "address",
                                "value": "0xd87064f2ca9bb2ec333d4a0b02011afdf39c4fb0"
                            },
                            {
                                "name": "_value",
                                "type": "uint256",
                                "value": "248"
                            },
                            {
                                "name": "_txt",
                                "type": "string",
                                "value": "06AA"
                            }
                        ],
                        "constructorArguments": "",
                        "name": "addTx",
                        "returnParams": [],
                        "signature": "addTx(address,address,uint256,string)"
                    },
                    "errorInfo": "",
                    "fromAddress": "0xd87064f2ca9bb2ec333d4a0b02011afdf39c4fb0",
                    "gasUsed": 45234,
                    "id": 0,
                    "methodDecoded": true,
                    "operation": "CALL",
                    "output": "",
                    "revert": false,
                    "revertMessage": "",
                    "selector": "0x1bbfb029",
                    "status": true,
                    "value": "0"
                },
                "nodeType": 0
            },
            "1": {
                "invocation": {
                    "address": "0xc3ef562cc403c8f9edf7c3826655fbf50f4ddde8",
                    "callData": "0x0000000000000000000000009f89daa066755c11ea285d1d757ddcea1106aa16000000000000000000000000d87064f2ca9bb2ec333d4a0b02011afdf39c4fb000000000000000000000000000000000000000000000000000000000000000f8000000000000000000000000000000000000000000000000000000000000008000000000000000000000000000000000000000000000000000000000000000043036414100000000000000000000000000000000000000000000000000000000",
                    "decodedMethod": {
                        "callParams": [
                            {
                                "name": "_from",
                                "type": "address",
                                "value": "0x9f89daa066755c11ea285d1d757ddcea1106aa16"
                            },
                            {
                                "name": "_to",
                                "type": "address",
                                "value": "0xd87064f2ca9bb2ec333d4a0b02011afdf39c4fb0"
                            },
                            {
                                "name": "_value",
                                "type": "uint256",
                                "value": "248"
                            },
                            {
                                "name": "_txt",
                                "type": "string",
                                "value": "06AA"
                            }
                        ],
                        "constructorArguments": "",
                        "name": "addTx",
                        "returnParams": [],
                        "signature": "addTx(address,address,uint256,string)"
                    },
                    "errorInfo": "",
                    "fromAddress": "0x3ec225d0cd929148a1473c546c06dd1ee9f558b1",
                    "gasUsed": 14069,
                    "id": 1,
                    "methodDecoded": true,
                    "operation": "CALL",
                    "output": "",
                    "revert": false,
                    "revertMessage": "",
                    "selector": "0x1bbfb029",
                    "status": true,
                    "value": "0"
                },
                "nodeType": 0
            },
            "2": {
                "event": {
                    "contract": "0xc3ef562cc403c8f9edf7c3826655fbf50f4ddde8",
                    "decodedLog": {
                        "name": "Tx",
                        "params": [
                            {
                                "name": "_from",
                                "type": "address",
                                "value": "0x9f89daa066755c11ea285d1d757ddcea1106aa16"
                            },
                            {
                                "name": "_to",
                                "type": "address",
                                "value": "0xd87064f2ca9bb2ec333d4a0b02011afdf39c4fb0"
                            },
                            {
                                "name": "_value",
                                "type": "uint256",
                                "value": "248"
                            },
                            {
                                "name": "_txt",
                                "type": "string",
                                "value": "06AA"
                            }
                        ],
                        "signature": "Tx(address,address,uint256,string)"
                    },
                    "id": 2,
                    "logData": "0x0000000000000000000000009f89daa066755c11ea285d1d757ddcea1106aa16000000000000000000000000d87064f2ca9bb2ec333d4a0b02011afdf39c4fb000000000000000000000000000000000000000000000000000000000000000f8000000000000000000000000000000000000000000000000000000000000008000000000000000000000000000000000000000000000000000000000000000043036414100000000000000000000000000000000000000000000000000000000",
                    "logDecoded": true,
                    "operation": "EVENT",
                    "revert": false,
                    "status": true,
                    "topics": [
                        "0xe4c14a344e557cc7c4b7e0d1f6dff174b9a6ad4e51273606bd0c0d4bd6339303"
                    ]
                },
                "nodeType": 1
            },
            "3": {
                "event": {
                    "contract": "0x3ec225d0cd929148a1473c546c06dd1ee9f558b1",
                    "decodedLog": {
                        "name": "Tx",
                        "params": [
                            {
                                "name": "_from",
                                "type": "address",
                                "value": "0x9f89daa066755c11ea285d1d757ddcea1106aa16"
                            },
                            {
                                "name": "_to",
                                "type": "address",
                                "value": "0xd87064f2ca9bb2ec333d4a0b02011afdf39c4fb0"
                            },
                            {
                                "name": "_value",
                                "type": "uint256",
                                "value": "248"
                            },
                            {
                                "name": "_txt",
                                "type": "string",
                                "value": "06AA"
                            }
                        ],
                        "signature": "Tx(address,address,uint256,string)"
                    },
                    "id": 3,
                    "logData": "0x0000000000000000000000009f89daa066755c11ea285d1d757ddcea1106aa16000000000000000000000000d87064f2ca9bb2ec333d4a0b02011afdf39c4fb000000000000000000000000000000000000000000000000000000000000000f8000000000000000000000000000000000000000000000000000000000000008000000000000000000000000000000000000000000000000000000000000000043036414100000000000000000000000000000000000000000000000000000000",
                    "logDecoded": true,
                    "operation": "EVENT",
                    "revert": false,
                    "status": true,
                    "topics": [
                        "0xe4c14a344e557cc7c4b7e0d1f6dff174b9a6ad4e51273606bd0c0d4bd6339303"
                    ]
                },
                "nodeType": 1
            }
        },
        "gasFlame": [
            {
                "children": [
                    {
                        "children": [
                            {
                                "children": [],
                                "depth": 0,
                                "name": "Initial Gas",
                                "value": 25048
                            },
                            {
                                "children": [
                                    {
                                        "children": [],
                                        "depth": 1,
                                        "name": "addTx",
                                        "value": 14069
                                    }
                                ],
                                "depth": 0,
                                "name": "Executed Gas",
                                "value": 20186
                            }
                        ],
                        "depth": -1,
                        "name": "Actual Gas Used",
                        "value": 45234
                    },
                    {
                        "children": [],
                        "depth": -1,
                        "name": "Refunded Gas",
                        "value": 0
                    }
                ],
                "depth": -2,
                "name": "Total Gas",
                "value": 45234
            }
        ],
        "isConfirmed": true,
        "mainTrace": [
            {
                "children": [
                    {
                        "children": [
                            {
                                "children": [
                                    {
                                        "children": [],
                                        "depth": 2,
                                        "id": 2,
                                        "order": 2
                                    }
                                ],
                                "depth": 1,
                                "id": 1,
                                "order": 1
                            },
                            {
                                "children": [],
                                "depth": 1,
                                "id": 3,
                                "order": 3
                            }
                        ],
                        "depth": 0,
                        "id": 0,
                        "order": 0
                    }
                ],
                "depth": -1,
                "id": -1,
                "order": -1
            }
        ],
        "mainTraceNodeCount": 4,
        "parentIdMap": {
            "0": -1,
            "1": 0,
            "2": 1,
            "3": 0
        },
        "tidyTrace": [
            {
                "children": [
                    {
                        "children": [
                            {
                                "children": [
                                    {
                                        "children": [],
                                        "depth": 2,
                                        "id": 2,
                                        "order": 2
                                    }
                                ],
                                "depth": 1,
                                "id": 1,
                                "order": 1
                            },
                            {
                                "children": [],
                                "depth": 1,
                                "id": 3,
                                "order": 3
                            }
                        ],
                        "depth": 0,
                        "id": 0,
                        "order": 0
                    }
                ],
                "depth": -1,
                "id": -1,
                "order": -1
            }
        ],
        "tidyTraceNodeCount": 4
    },
    "state_change": {
        "stateChanges": [
            {
                "address": "0xc3ef562cc403c8f9edf7c3826655fbf50f4ddde8",
                "erc": "",
                "slots": [
                    {
                        "current": "0x0000000000000000000000000000000000000000000000000000000000000867",
                        "key": "0xa46776351d54949d16d2e9173b208e4ad5e832fe59cd1245ca6bff376a37619c",
                        "prev": "0x000000000000000000000000000000000000000000000000000000000000076f"
                    },
                    {
                        "current": "0x000000000000000000000000000000000000000000000000000000000008f471",
                        "key": "0x945c188f7b3963b05b5e907ef6172edbb800cc69646e9997aefe5ce908a7646c",
                        "prev": "0x000000000000000000000000000000000000000000000000000000000008f379"
                    }
                ],
                "storageVariables": []
            }
        ]
    }
}