{
    "balance_change": {
        "balanceChanges": [
            {
                "account": "0x118c75302884bc7703a9130b61130749cc28e192",
                "assets": [
                    {
                        "address": "0xfd8917a36f76c4da9550f26db2faaaa242d6ae2c",
                        "amount": "1",
                        "iconUrl": "",
                        "isERC1155": false,
                        "isERC721": true,
                        "sign": false,
                        "tokenID": "7906",
                        "value": ""
                    }
                ]
            },
            {
                "account": "0x9d1d148193c296dbcb7056c4ec0bc1445e3fadfb",
                "assets": [
                    {
                        "address": "0xfd8917a36f76c4da9550f26db2faaaa242d6ae2c",
                        "amount": "1",
                        "iconUrl": "",
                        "isERC1155": false,
                        "isERC721": true,
                        "sign": true,
                        "tokenID": "7906",
                        "value": ""
                    }
                ]
            }
        ]
    },
    "profile": {
        "basic_info": {
            "baseFee": "16.497871544",
            "blockNumber": 15448756,
            "callData": "0x74b0f4e500000000000000000000000000000000000000000000000000000000000000200000000000000000000000000000000000000000000000000000000000000001000000000000000000000000fd8917a36f76c4da9550f26db2faaaa242d6ae2c0000000000000000000000000000000000000000000000000000000000001ee20000000000000000000000000000000000000000000000000000000000000000",
            "debugEnable": true,
            "errorInfo": "",
            "eventCount": 3,
            "feeRecipient": "0x5b310960a7922092fdcb9295ece336012f9cf87e",
            "formatValue": "0",
            "gasLimit": 305350,
            "gasPrice": "17.997871544",
            "gasUsed": 193967,
            "intTxnCount": 2,
            "internalRevert": false,
            "internalRevertMessage": "",
            "isContractCreation": false,
            "isFlashloan": false,
            "maxFee": "25.585551881",
            "nonce": 15,
            "overwritedBlockNumber": -1,
            "priorityFee": "1.5",
            "receiver": "0x9d1d148193c296dbcb7056c4ec0bc1445e3fadfb",
            "revertMessage": "",
            "sender": "0x118c75302884bc7703a9130b61130749cc28e192",
            "simulationEnable": true,
            "sourceTxnHash": "0x7f59efa28aed1fc444f458e283bcb7e3b530edbe957bc017239f1c93bf40d724",
            "status": true,
            "timestamp": "2022-08-31T20:44:32Z",
            "transactionFee": "0.003490993149775048",
            "txnHash": "0x7f59efa28aed1fc444f458e283bcb7e3b530edbe957bc017239f1c93bf40d724",
            "txnIndex": 17,
            "type": 2,
            "value": "0"
        },
        "fund_flow": [
            {
                "amount": "1",
                "from": "0x118c75302884bc7703a9130b61130749cc28e192",
                "id": 1,
                "isERC1155": false,
                "isERC721": true,
                "isReverted": false,
                "order": 1,
                "to": "0x9d1d148193c296dbcb7056c4ec0bc1445e3fadfb",
                "token": "0xfd8917a36f76c4da9550f26db2faaaa242d6ae2c",
                "tokenID": "7906"
            }
        ],
        "token_infos": [
            {
                "address": "0xc02aaa39b223fe8d0a0e5c4f27ead9083c756cc2",
                "decimals": 18
            },
            {
                "address": "0xeeeeeeeeeeeeeeeeeeeeeeeeeeeeeeeeeeeeeeee",
                "decimals": 18
            }
        ]
    },
    "address_label": {
        "labels": [
            {
                "address": "0x0000000000000000000000000000000000000003",
                "label": "Precompiled"
            },
            {
                "address": "0x0000000000000000000000000000000000000004",
                "label": "Precompiled"
            },
            {
                "address": "0xeeeeeeeeeeeeeeeeeeeeeeeeeeeeeeeeeeeeeeee",
                "label": "Ether"
            },
            {
                "address": "0x9d1d148193c296dbcb7056c4ec0bc1445e3fadfb",
                "label": "NftStaking"
            },
            {
                "address": "0xfd8917a36f76c4da9550f26db2faaaa242d6ae2c",
                "label": "Infected Ape Planet (IAP)"
            },
            {
                "address": "0x0000000000000000000000000000000000000001",
                "label": "Precompiled"
            },
            {
                "address": "0x0000000000000000000000000000000000000002",
                "label": "Precompiled"
            }
        ]
    },
    "trace": {
        "accountLabels": null,
        "dataMap": {
            "-1": {
                "invocation": {
                    "address": "0x118c75302884bc7703a9130b61130749cc28e192",
                    "callData": "",
                    "decodedMethod": null,
                    "errorInfo": "",
                    "fromAddress": "",
                    "gasUsed": 0,
                    "id": -1,
                    "methodDecoded": false,
                    "operation": "",
                    "output": "",
                    "revert": false,
                    "revertMessage": "",
                    "selector": "",
                    "status": false,
                    "value": ""
                },
                "nodeType": 0
            },
            "0": {
                "invocation": {
                    "address": "0x9d1d148193c296dbcb7056c4ec0bc1445e3fadfb",
                    "callData": "0x00000000000000000000000000000000000000000000000000000000000000200000000000000000000000000000000000000000000000000000000000000001000000000000000000000000fd8917a36f76c4da9550f26db2faaaa242d6ae2c0000000000000000000000000000000000000000000000000000000000001ee20000000000000000000000000000000000000000000000000000000000000000",
                    "decodedMethod": {
                        "callParams": [
                            {
                                "name": "nfts",
                                "type": "(address,uint256,uint8)[]",
                                "value": [
                                    [
                                        {
                                            "name": "nftContract",
                                            "type": "address",
                                            "value": "0xfd8917a36f76c4da9550f26db2faaaa242d6ae2c"
                                        },
                                        {
                                            "name": "tokenId",
                                            "type": "uint256",
                                            "value": "7,906"
                                        },
                                        {
                                            "name": "planId",
                                            "type": "uint8",
                                            "value": "0"
                                        }
                                    ]
                                ]
                            }
                        ],
                        "constructorArguments": "",
                        "name": "stake",
                        "returnParams": [],
                        "signature": "stake((address,uint256,uint8)[])"
                    },
                    "errorInfo": "",
                    "fromAddress": "0x118c75302884bc7703a9130b61130749cc28e192",
                    "gasUsed": 193967,
                    "id": 0,
                    "methodDecoded": true,
                    "operation": "CALL",
                    "output": "",
                    "revert": false,
                    "revertMessage": "",
                    "selector": "0x74b0f4e5",
                    "status": true,
                    "value": "0"
                },
                "nodeType": 0
            },
            "1": {
                "invocation": {
                    "address": "0xfd8917a36f76c4da9550f26db2faaaa242d6ae2c",
                    "callData": "0x000000000000000000000000118c75302884bc7703a9130b61130749cc28e1920000000000000000000000009d1d148193c296dbcb7056c4ec0bc1445e3fadfb0000000000000000000000000000000000000000000000000000000000001ee2",
                    "decodedMethod": {
                        "callParams": [
                            {
                                "name": "from",
                                "type": "address",
                                "value": "0x118c75302884bc7703a9130b61130749cc28e192"
                            },
                            {
                                "name": "to",
                                "type": "address",
                                "value": "0x9d1d148193c296dbcb7056c4ec0bc1445e3fadfb"
                            },
                            {
                                "name": "tokenId",
                                "type": "uint256",
                                "value": "7,906"
                            }
                        ],
                        "constructorArguments": "",
                        "name": "safeTransferFrom",
                        "returnParams": [],
                        "signature": "safeTransferFrom(address,address,uint256)"
                    },
                    "errorInfo": "",
                    "fromAddress": "0x9d1d148193c296dbcb7056c4ec0bc1445e3fadfb",
                    "gasUsed": 78835,
                    "id": 1,
                    "methodDecoded": true,
                    "operation": "CALL",
                    "output": "",
                    "revert": false,
                    "revertMessage": "",
                    "selector": "0x42842e0e",
                    "status": true,
                    "value": "0"
                },
                "nodeType": 0
            },
            "2": {
                "event": {
                    "contract": "0xfd8917a36f76c4da9550f26db2faaaa242d6ae2c",
                    "decodedLog": {
                        "name": "Approval",
                        "params": [
                            {
                                "name": "owner",
                                "type": "address",
                                "value": "0x118c75302884bc7703a9130b61130749cc28e192"
                            },
                            {
                                "name": "approved",
                                "type": "address",
                                "value": "0x0000000000000000000000000000000000000000"
                            },
                            {
                                "decimalAvailable": true,
                                "name": "tokenId",
                                "type": "uint256",
                                "value": "7,906"
                            }
                        ],
                        "signature": "Approval(address,address,uint256)"
                    },
                    "id": 2,
                    "logData": "0x",
                    "logDecoded": true,
                    "operation": "EVENT",
                    "revert": false,
                    "status": true,
                    "topics": [
                        "0x8c5be1e5ebec7d5bd14f71427d1e84f3dd0314c0f7b2291e5b200ac8c7c3b925",
                        "0x000000000000000000000000118c75302884bc7703a9130b61130749cc28e192",
                        "0x0000000000000000000000000000000000000000000000000000000000000000",
                        "0x0000000000000000000000000000000000000000000000000000000000001ee2"
                    ]
                },
                "nodeType": 1
            },
            "3": {
                "event": {
                    "contract": "0xfd8917a36f76c4da9550f26db2faaaa242d6ae2c",
                    "decodedLog": {
                        "name": "Transfer",
                        "params": [
                            {
                                "name": "from",
                                "type": "address",
                                "value": "0x118c75302884bc7703a9130b61130749cc28e192"
                            },
                            {
                                "name": "to",
                                "type": "address",
                                "value": "0x9d1d148193c296dbcb7056c4ec0bc1445e3fadfb"
                            },
                            {
                                "decimalAvailable": true,
                                "name": "tokenId",
                                "type": "uint256",
                                "value": "7,906"
                            }
                        ],
                        "signature": "Transfer(address,address,uint256)"
                    },
                    "id": 3,
                    "logData": "0x",
                    "logDecoded": true,
                    "operation": "EVENT",
                    "revert": false,
                    "status": true,
                    "topics": [
                        "0xddf252ad1be2c89b69c2b068fc378daa952ba7f163c4a11628f55a4df523b3ef",
                        "0x000000000000000000000000118c75302884bc7703a9130b61130749cc28e192",
                        "0x0000000000000000000000009d1d148193c296dbcb7056c4ec0bc1445e3fadfb",
                        "0x0000000000000000000000000000000000000000000000000000000000001ee2"
                    ]
                },
                "nodeType": 1
            },
            "4": {
                "invocation": {
                    "address": "0x9d1d148193c296dbcb7056c4ec0bc1445e3fadfb",
                    "callData": "0x0000000000000000000000009d1d148193c296dbcb7056c4ec0bc1445e3fadfb000000000000000000000000118c75302884bc7703a9130b61130749cc28e1920000000000000000000000000000000000000000000000000000000000001ee200000000000000000000000000000000000000000000000000000000000000800000000000000000000000000000000000000000000000000000000000000000",
                    "decodedMethod": {
                        "callParams": [
                            {
                                "name": "",
                                "type": "address",
                                "value": "0x9d1d148193c296dbcb7056c4ec0bc1445e3fadfb"
                            },
                            {
                                "name": "",
                                "type": "address",
                                "value": "0x118c75302884bc7703a9130b61130749cc28e192"
                            },
                            {
                                "name": "",
                                "type": "uint256",
                                "value": "7,906"
                            },
                            {
                                "name": "",
                                "type": "bytes",
                                "value": "0x"
                            }
                        ],
                        "constructorArguments": "",
                        "name": "onERC721Received",
                        "returnParams": [
                            {
                                "name": "",
                                "type": "bytes4",
                                "value": "0x150b7a02"
                            }
                        ],
                        "signature": "onERC721Received(address,address,uint256,bytes)"
                    },
                    "errorInfo": "",
                    "fromAddress": "0xfd8917a36f76c4da9550f26db2faaaa242d6ae2c",
                    "gasUsed": 766,
                    "id": 4,
                    "methodDecoded": true,
                    "operation": "CALL",
                    "output": "0x150b7a0200000000000000000000000000000000000000000000000000000000",
                    "revert": false,
                    "revertMessage": "",
                    "selector": "0x150b7a02",
                    "status": true,
                    "value": "0"
                },
                "nodeType": 0
            },
            "5": {
                "event": {
                    "contract": "0x9d1d148193c296dbcb7056c4ec0bc1445e3fadfb",
                    "decodedLog": {
                        "name": "Staked",
                        "params": [
                            {
                                "name": "user",
                                "type": "address",
                                "value": "0x118c75302884bc7703a9130b61130749cc28e192"
                            },
                            {
                                "name": "planId",
                                "type": "uint8",
                                "value": "0"
                            },
                            {
                                "name": "nftContract",
                                "type": "address",
                                "value": "0xfd8917a36f76c4da9550f26db2faaaa242d6ae2c"
                            },
                            {
                                "name": "tokenId",
                                "type": "uint256",
                                "value": "7,906"
                            }
                        ],
                        "signature": "Staked(address,uint8,address,uint256)"
                    },
                    "id": 5,
                    "logData": "0x0000000000000000000000000000000000000000000000000000000000000000000000000000000000000000fd8917a36f76c4da9550f26db2faaaa242d6ae2c0000000000000000000000000000000000000000000000000000000000001ee2",
                    "logDecoded": true,
                    "operation": "EVENT",
                    "revert": false,
                    "status": true,
                    "topics": [
                        "0x8fd00d2abe7c284d5b1ad3b234d9eb25a6f5278296b9f767499e6022cec99fae",
                        "0x000000000000000000000000118c75302884bc7703a9130b61130749cc28e192"
                    ]
                },
                "nodeType": 1
            }
        },
        "gasFlame": [
            {
                "children": [
                    {
                        "children": [
                            {
                                "children": [],
                                "depth": 0,
                                "name": "Initial Gas",
                                "value": 21992
                            },
                            {
                                "children": [
                                    {
                                        "children": [
                                            {
                                                "children": [],
                                                "depth": 2,
                                                "name": "onERC721Received",
                                                "value": 766
                                            }
                                        ],
                                        "depth": 1,
                                        "name": "safeTransferFrom",
                                        "value": 78835
                                    }
                                ],
                                "depth": 0,
                                "name": "Executed Gas",
                                "value": 181575
                            }
                        ],
                        "depth": -1,
                        "name": "Actual Gas Used",
                        "value": 193967
                    },
                    {
                        "children": [],
                        "depth": -1,
                        "name": "Refunded Gas",
                        "value": 9600
                    }
                ],
                "depth": -2,
                "name": "Total Gas",
                "value": 203567
            }
        ],
        "isConfirmed": true,
        "mainTrace": [
            {
                "children": [
                    {
                        "children": [
                            {
                                "children": [
                                    {
                                        "children": [],
                                        "depth": 2,
                                        "id": 2,
                                        "order": 2
                                    },
                                    {
                                        "children": [],
                                        "depth": 2,
                                        "id": 3,
                                        "order": 3
                                    },
                                    {
                                        "children": [],
                                        "depth": 2,
                                        "id": 4,
                                        "order": 4
                                    }
                                ],
                                "depth": 1,
                                "id": 1,
                                "order": 1
                            },
                            {
                                "children": [],
                                "depth": 1,
                                "id": 5,
                                "order": 5
                            }
                        ],
                        "depth": 0,
                        "id": 0,
                        "order": 0
                    }
                ],
                "depth": -1,
                "id": -1,
                "order": -1
            }
        ],
        "mainTraceNodeCount": 6,
        "parentIdMap": {
            "0": -1,
            "1": 0,
            "2": 1,
            "3": 1,
            "4": 1,
            "5": 0
        },
        "tidyTrace": [
            {
                "children": [
                    {
                        "children": [
                            {
                                "children": [
                                    {
                                        "children": [],
                                        "depth": 2,
                                        "id": 2,
                                        "order": 2
                                    },
                                    {
                                        "children": [],
                                        "depth": 2,
                                        "id": 3,
                                        "order": 3
                                    },
                                    {
                                        "children": [],
                                        "depth": 2,
                                        "id": 4,
                                        "order": 4
                                    }
                                ],
                                "depth": 1,
                                "id": 1,
                                "order": 1
                            },
                            {
                                "children": [],
                                "depth": 1,
                                "id": 5,
                                "order": 5
                            }
                        ],
                        "depth": 0,
                        "id": 0,
                        "order": 0
                    }
                ],
                "depth": -1,
                "id": -1,
                "order": -1
            }
        ],
        "tidyTraceNodeCount": 6
    },
    "state_change": {
        "stateChanges": [
            {
                "address": "0x9d1d148193c296dbcb7056c4ec0bc1445e3fadfb",
                "erc": "",
                "slots": [
                    {
                        "current": "0x0000000000000000000000000000000000000000000000000000000000000001",
                        "key": "0x09f12f3738c2b9a4491ea677fac84b07a37a43d75150524a8ff3b12ab94470f9",
                        "prev": "0x0000000000000000000000000000000000000000000000000000000000000000"
                    },
                    {
                        "current": "0x0000000000000000000000000000000000000000000000000000000000001ee2",
                        "key": "0x5ae5c7a7b15acf526a5cc7949c6c12bcb1db003267b5ca03e43edbc3670e25c9",
                        "prev": "0x0000000000000000000000000000000000000000000000000000000000000000"
                    },
                    {
                        "current": "0x0000000000000000000000000000000000000000000000000000000000000001",
                        "key": "0xbbcef1df9ad25fc5b2898c2544e34b237af5f3c2a53fb8b2842e32b0ee2c3675",
                        "prev": "0x0000000000000000000000000000000000000000000000000000000000000000"
                    },
                    {
                        "current": "0x00000000000000630fc83000118c75302884bc7703a9130b61130749cc28e192",
                        "key": "0xa3600c1d708bfb645f191a6a9ac01afb155efb7e2596cba498aecde931a11a93",
                        "prev": "0x0000000000000000000000000000000000000000000000000000000000000000"
                    }
                ],
                "storageVariables": [
                    {
                        "name": "userNFTs",
                        "type": "mapping(address => mapping(address => struct EnumerableSet.UintSet))",
                        "value": {
                            "pairs": [
                                {
                                    "key": "0x118c75302884bc7703a9130b61130749cc28e192",
                                    "value": {
                                        "pairs": [
                                            {
                                                "key": "0xfd8917a36f76c4da9550f26db2faaaa242d6ae2c",
                                                "value": {
                                                    "fields": [
                                                        {
                                                            "name": "_inner",
                                                            "type": "struct EnumerableSet.Set",
                                                            "value": {
                                                                "fields": [
                                                                    {
                                                                        "name": "_values",
                                                                        "type": "bytes32[]",
                                                                        "value": {
                                                                            "elemType": "bytes32",
                                                                            "elems": [
                                                                                {
                                                                                    "index": 0,
                                                                                    "value": {
                                                                                        "current": "0x0000000000000000000000000000000000000000000000000000000000001ee2",
                                                                                        "prev": "0x0000000000000000000000000000000000000000000000000000000000000000",
                                                                                        "typeTag": 1
                                                                                    }
                                                                                }
                                                                            ],
                                                                            "typeTag": 2
                                                                        }
                                                                    },
                                                                    {
                                                                        "name": "_indexes",
                                                                        "type": "mapping(bytes32 => uint256)",
                                                                        "value": {
                                                                            "pairs": [
                                                                                {
                                                                                    "key": "0x0000000000000000000000000000000000000000000000000000000000001ee2",
                                                                                    "value": {
                                                                                        "current": "1",
                                                                                        "prev": "0",
                                                                                        "typeTag": 1
                                                                                    }
                                                                                }
                                                                            ],
                                                                            "typeTag": 4
                                                                        }
                                                                    }
                                                                ],
                                                                "typeTag": 3
                                                            }
                                                        }
                                                    ],
                                                    "typeTag": 3
                                                }
                                            }
                                        ],
                                        "typeTag": 4
                                    }
                                }
                            ],
                            "typeTag": 4
                        }
                    },
                    {
                        "name": "stakes",
                        "type": "mapping(address => mapping(uint256 => struct INftStaking.NFTStake))",
                        "value": {
                            "pairs": [
                                {
                                    "key": "0xfd8917a36f76c4da9550f26db2faaaa242d6ae2c",
                                    "value": {
                                        "pairs": [
                                            {
                                                "key": "7906",
                                                "value": {
                                                    "fields": [
                                                        {
                                                            "name": "user",
                                                            "type": "address",
                                                            "value": {
                                                                "current": "0x118c75302884bc7703a9130b61130749cc28e192",
                                                                "prev": "0x0000000000000000000000000000000000000000",
                                                                "typeTag": 1
                                                            }
                                                        },
                                                        {
                                                            "name": "planId",
                                                            "type": "enum INftStaking.PlanId",
                                                            "value": {
                                                                "current": "0",
                                                                "prev": "0",
                                                                "typeTag": 1
                                                            }
                                                        },
                                                        {
                                                            "name": "stakedAt",
                                                            "type": "uint64",
                                                            "value": {
                                                                "current": "1661978672",
                                                                "prev": "0",
                                                                "typeTag": 1
                                                            }
                                                        }
                                                    ],
                                                    "typeTag": 3
                                                }
                                            }
                                        ],
                                        "typeTag": 4
                                    }
                                }
                            ],
                            "typeTag": 4
                        }
                    }
                ]
            },
            {
                "address": "0xfd8917a36f76c4da9550f26db2faaaa242d6ae2c",
                "erc": "ERC-721",
                "slots": [
                    {
                        "current": "0x0000000000000000000000000000000000000000000000000000000000000000",
                        "key": "0x0dd7adb936f0106f00d5a31a6c3a8e8a45b06d61f042bf27cc8410a21ae9d401",
                        "prev": "0x0000000000000000000000000000000000000000000000000000000000001ee2"
                    },
                    {
                        "current": "0x0000000000000000000000000000000000000000000000000000000000001ee2",
                        "key": "0x70c22043d060f96b016e64ad1bd819aad7c1c2f04bc942f87510beca8c9d21d4",
                        "prev": "0x0000000000000000000000000000000000000000000000000000000000000000"
                    },
                    {
                        "current": "0x00000000000000000000000000000000000000000000000000000000000007b1",
                        "key": "0x205beabb768277fa954e4648af04489898dfe73a4dc0f9249040f1ba0089aa64",
                        "prev": "0x0000000000000000000000000000000000000000000000000000000000000000"
                    },
                    {
                        "current": "0x0000000000000000000000000000000000000000000000000000000000000000",
                        "key": "0x850e8b04771f0cd802b7ee4722a820b7ce094cee30a38541d457fe6bf6143170",
                        "prev": "0x0000000000000000000000000000000000000000000000000000000000000001"
                    },
                    {
                        "current": "0x00000000000000000000000000000000000000000000000000000000000007b2",
                        "key": "0xcc690dc1287b11974062b0d9f0108539fbc8e71f1cc2706678c2baa368713b67",
                        "prev": "0x00000000000000000000000000000000000000000000000000000000000007b1"
                    },
                    {
                        "current": "0x0000000000000000000000009d1d148193c296dbcb7056c4ec0bc1445e3fadfb",
                        "key": "0xda124750219a7a943608def207728a659d0c904bf24680a963b38ded034df508",
                        "prev": "0x000000000000000000000000118c75302884bc7703a9130b61130749cc28e192"
                    }
                ],
                "storageVariables": [
                    {
                        "name": "_owners",
                        "type": "mapping(uint256 => address)",
                        "value": {
                            "pairs": [
                                {
                                    "key": "7906",
                                    "value": {
                                        "current": "0x9d1d148193c296dbcb7056c4ec0bc1445e3fadfb",
                                        "prev": "0x118c75302884bc7703a9130b61130749cc28e192",
                                        "typeTag": 1
                                    }
                                }
                            ],
                            "typeTag": 4
                        }
                    },
                    {
                        "name": "_ownedTokens",
                        "type": "mapping(address => mapping(uint256 => uint256))",
                        "value": {
                            "pairs": [
                                {
                                    "key": "0x118c75302884bc7703a9130b61130749cc28e192",
                                    "value": {
                                        "pairs": [
                                            {
                                                "key": "0",
                                                "value": {
                                                    "current": "0",
                                                    "prev": "7906",
                                                    "typeTag": 1
                                                }
                                            }
                                        ],
                                        "typeTag": 4
                                    }
                                },
                                {
                                    "key": "0x9d1d148193c296dbcb7056c4ec0bc1445e3fadfb",
                                    "value": {
                                        "pairs": [
                                            {
                                                "key": "1969",
                                                "value": {
                                                    "current": "7906",
                                                    "prev": "0",
                                                    "typeTag": 1
                                                }
                                            }
                                        ],
                                        "typeTag": 4
                                    }
                                }
                            ],
                            "typeTag": 4
                        }
                    },
                    {
                        "name": "_ownedTokensIndex",
                        "type": "mapping(uint256 => uint256)",
                        "value": {
                            "pairs": [
                                {
                                    "key": "7906",
                                    "value": {
                                        "current": "1969",
                                        "prev": "0",
                                        "typeTag": 1
                                    }
                                }
                            ],
                            "typeTag": 4
                        }
                    },
                    {
                        "name": "_balances",
                        "type": "mapping(address => uint256)",
                        "value": {
                            "pairs": [
                                {
                                    "key": "0x118c75302884bc7703a9130b61130749cc28e192",
                                    "value": {
                                        "current": "0",
                                        "prev": "1",
                                        "typeTag": 1
                                    }
                                },
                                {
                                    "key": "0x9d1d148193c296dbcb7056c4ec0bc1445e3fadfb",
                                    "value": {
                                        "current": "1970",
                                        "prev": "1969",
                                        "typeTag": 1
                                    }
                                }
                            ],
                            "typeTag": 4
                        }
                    }
                ]
            }
        ]
    }
}