{
    "balance_change": {
        "balanceChanges": [
            {
                "account": "0x19e0466a18e5a375621b327ce781c64b84443a1b",
                "assets": [
                    {
                        "address": "0xa15c7ebe1f07caf6bff097d8a589fb8ac49ae5b3",
                        "amount": "1,776.747269990574939596",
                        "iconUrl": "",
                        "isERC1155": false,
                        "isERC721": false,
                        "sign": false,
                        "value": ""
                    }
                ]
            },
            {
                "account": "0x20a396b740e6f575211fa8f5911457f0ee5f2a27",
                "assets": [
                    {
                        "address": "0xa15c7ebe1f07caf6bff097d8a589fb8ac49ae5b3",
                        "amount": "1,776.747269990574939596",
                        "iconUrl": "",
                        "isERC1155": false,
                        "isERC721": false,
                        "sign": true,
                        "value": ""
                    }
                ]
            }
        ]
    },
    "profile": {
        "basic_info": {
            "baseFee": "",
            "blockNumber": 7894946,
            "callData": "0xa9059cbb00000000000000000000000020a396b740e6f575211fa8f5911457f0ee5f2a270000000000000000000000000000000000000000000000605152547229475dcc",
            "debugEnable": true,
            "errorInfo": "",
            "eventCount": 1,
            "feeRecipient": "0xea674fdde714fd979de3edf0f56aa9716b898ec8",
            "formatValue": "0",
            "gasLimit": 350000,
            "gasPrice": "6",
            "gasUsed": 38037,
            "intTxnCount": 0,
            "internalRevert": false,
            "internalRevertMessage": "",
            "isContractCreation": false,
            "isFlashloan": false,
            "maxFee": "",
            "nonce": 405057,
            "overwritedBlockNumber": -1,
            "priorityFee": "",
            "receiver": "0xa15c7ebe1f07caf6bff097d8a589fb8ac49ae5b3",
            "revertMessage": "",
            "sender": "0x19e0466a18e5a375621b327ce781c64b84443a1b",
            "simulationEnable": true,
            "sourceTxnHash": "0x7fc47362ad0274a9c2279ecef103a0b82647364deb7dd8b7da52d1c5f96ca459",
            "status": true,
            "timestamp": "2019-06-04T20:22:45Z",
            "transactionFee": "0.000228222",
            "txnHash": "0x7fc47362ad0274a9c2279ecef103a0b82647364deb7dd8b7da52d1c5f96ca459",
            "txnIndex": 131,
            "type": 0,
            "value": "0"
        },
        "fund_flow": [
            {
                "amount": "1,776.747269990574939596",
                "from": "0x19e0466a18e5a375621b327ce781c64b84443a1b",
                "id": 1,
                "isERC1155": false,
                "isERC721": false,
                "isReverted": false,
                "order": 1,
                "to": "0x20a396b740e6f575211fa8f5911457f0ee5f2a27",
                "token": "0xa15c7ebe1f07caf6bff097d8a589fb8ac49ae5b3"
            }
        ],
        "token_infos": [
            {
                "address": "0xa15c7ebe1f07caf6bff097d8a589fb8ac49ae5b3",
                "decimals": 18
            },
            {
                "address": "0xc02aaa39b223fe8d0a0e5c4f27ead9083c756cc2",
                "decimals": 18
            },
            {
                "address": "0xeeeeeeeeeeeeeeeeeeeeeeeeeeeeeeeeeeeeeeee",
                "decimals": 18
            }
        ]
    },
    "address_label": {
        "labels": [
            {
                "address": "0xeeeeeeeeeeeeeeeeeeeeeeeeeeeeeeeeeeeeeeee",
                "label": "Ether"
            },
            {
                "address": "0xa15c7ebe1f07caf6bff097d8a589fb8ac49ae5b3",
                "label": "Pundi X: Old NPXS Token"
            },
            {
                "address": "0x0000000000000000000000000000000000000001",
                "label": "Precompiled"
            },
            {
                "address": "0x0000000000000000000000000000000000000002",
                "label": "Precompiled"
            },
            {
                "address": "0x0000000000000000000000000000000000000003",
                "label": "Precompiled"
            },
            {
                "address": "0x0000000000000000000000000000000000000004",
                "label": "Precompiled"
            }
        ]
    },
    "trace": {
        "accountLabels": null,
        "dataMap": {
            "-1": {
                "invocation": {
                    "address": "0x19e0466a18e5a375621b327ce781c64b84443a1b",
                    "callData": "",
                    "decodedMethod": null,
                    "errorInfo": "",
                    "fromAddress": "",
                    "gasUsed": 0,
                    "id": -1,
                    "methodDecoded": false,
                    "operation": "",
                    "output": "",
                    "revert": false,
                    "revertMessage": "",
                    "selector": "",
                    "status": false,
                    "value": ""
                },
                "nodeType": 0
            },
            "0": {
                "invocation": {
                    "address": "0xa15c7ebe1f07caf6bff097d8a589fb8ac49ae5b3",
                    "callData": "0x00000000000000000000000020a396b740e6f575211fa8f5911457f0ee5f2a270000000000000000000000000000000000000000000000605152547229475dcc",
                    "decodedMethod": {
                        "callParams": [
                            {
                                "name": "_to",
                                "type": "address",
                                "value": "0x20a396b740e6f575211fa8f5911457f0ee5f2a27"
                            },
                            {
                                "decimalAvailable": true,
                                "name": "_value",
                                "type": "uint256",
                                "value": "1,776,747,269,990,574,939,596"
                            }
                        ],
                        "constructorArguments": "",
                        "name": "transfer",
                        "returnParams": [
                            {
                                "name": "",
                                "type": "bool",
                                "value": true
                            }
                        ],
                        "signature": "transfer(address,uint256)"
                    },
                    "errorInfo": "",
                    "fromAddress": "0x19e0466a18e5a375621b327ce781c64b84443a1b",
                    "gasUsed": 38037,
                    "id": 0,
                    "methodDecoded": true,
                    "operation": "CALL",
                    "output": "0x0000000000000000000000000000000000000000000000000000000000000001",
                    "revert": false,
                    "revertMessage": "",
                    "selector": "0xa9059cbb",
                    "status": true,
                    "value": "0"
                },
                "nodeType": 0
            },
            "1": {
                "event": {
                    "contract": "0xa15c7ebe1f07caf6bff097d8a589fb8ac49ae5b3",
                    "decodedLog": {
                        "name": "Transfer",
                        "params": [
                            {
                                "name": "from",
                                "type": "address",
                                "value": "0x19e0466a18e5a375621b327ce781c64b84443a1b"
                            },
                            {
                                "name": "to",
                                "type": "address",
                                "value": "0x20a396b740e6f575211fa8f5911457f0ee5f2a27"
                            },
                            {
                                "decimalAvailable": true,
                                "name": "value",
                                "type": "uint256",
                                "value": "1,776,747,269,990,574,939,596"
                            }
                        ],
                        "signature": "Transfer(address,address,uint256)"
                    },
                    "id": 1,
                    "logData": "0x0000000000000000000000000000000000000000000000605152547229475dcc",
                    "logDecoded": true,
                    "operation": "EVENT",
                    "revert": false,
                    "status": true,
                    "topics": [
                        "0xddf252ad1be2c89b69c2b068fc378daa952ba7f163c4a11628f55a4df523b3ef",
                        "0x00000000000000000000000019e0466a18e5a375621b327ce781c64b84443a1b",
                        "0x00000000000000000000000020a396b740e6f575211fa8f5911457f0ee5f2a27"
                    ]
                },
                "nodeType": 1
            }
        },
        "gasFlame": [
            {
                "children": [
                    {
                        "children": [
                            {
                                "children": [],
                                "depth": 0,
                                "name": "Initial Gas",
                                "value": 23384
                            },
                            {
                                "children": [],
                                "depth": 0,
                                "name": "Executed Gas",
                                "value": 14653
                            }
                        ],
                        "depth": -1,
                        "name": "Actual Gas Used",
                        "value": 38037
                    },
                    {
                        "children": [],
                        "depth": -1,
                        "name": "Refunded Gas",
                        "value": 0
                    }
                ],
                "depth": -2,
                "name": "Total Gas",
                "value": 38037
            }
        ],
        "isConfirmed": true,
        "mainTrace": [
            {
                "children": [
                    {
                        "children": [
                            {
                                "children": [],
                                "depth": 1,
                                "id": 1,
                                "order": 1
                            }
                        ],
                        "depth": 0,
                        "id": 0,
                        "order": 0
                    }
                ],
                "depth": -1,
                "id": -1,
                "order": -1
            }
        ],
        "mainTraceNodeCount": 2,
        "parentIdMap": {
            "0": -1,
            "1": 0
        },
        "tidyTrace": [
            {
                "children": [
                    {
                        "children": [
                            {
                                "children": [],
                                "depth": 1,
                                "id": 1,
                                "order": 1
                            }
                        ],
                        "depth": 0,
                        "id": 0,
                        "order": 0
                    }
                ],
                "depth": -1,
                "id": -1,
                "order": -1
            }
        ],
        "tidyTraceNodeCount": 2
    },
    "state_change": {
        "stateChanges": [
            {
                "address": "0xa15c7ebe1f07caf6bff097d8a589fb8ac49ae5b3",
                "erc": "ERC-20",
                "slots": [
                    {
                        "current": "0x00000000000000000000000000000000000000000edd5b06f9ce58d7cf8b3147",
                        "key": "0xe421b4bdbd2220b936e4a29a52d17a96ab5a454a4396e34743fd3f615c4f23bb",
                        "prev": "0x00000000000000000000000000000000000000000edd5b674b20ad49f8d28f13"
                    },
                    {
                        "current": "0x000000000000000000000000000000000000000000000438039579b5260051bc",
                        "key": "0x56491f08776c35c010fb3763ebb6051d68ec104d09abb5c6c450057282beae99",
                        "prev": "0x0000000000000000000000000000000000000000000003d7b2432542fcb8f3f0"
                    }
                ],
                "storageVariables": [
                    {
                        "name": "balances",
                        "type": "mapping(address => uint256)",
                        "value": {
                            "pairs": [
                                {
                                    "key": "0x19e0466a18e5a375621b327ce781c64b84443a1b",
                                    "value": {
                                        "current": "4600392607664492034298425671",
                                        "prev": "4600394384411762024873365267",
                                        "typeTag": 1
                                    }
                                },
                                {
                                    "key": "0x20a396b740e6f575211fa8f5911457f0ee5f2a27",
                                    "value": {
                                        "current": "19922741845978893013436",
                                        "prev": "18145994575988318073840",
                                        "typeTag": 1
                                    }
                                }
                            ],
                            "typeTag": 4
                        }
                    }
                ]
            }
        ]
    }
}