{
    "balance_change": {
        "balanceChanges": [
            {
                "account": "0xc3f7b3fb36ccc53d40c8004d267ebaaa4c2b24fa",
                "assets": [
                    {
                        "address": "0x467719ad09025fcc6cf6f8311755809d45a5e5f3",
                        "amount": "5,930.843557",
                        "iconUrl": "",
                        "isERC1155": false,
                        "isERC721": false,
                        "sign": false,
                        "value": "2017.6729780914000143"
                    }
                ]
            },
            {
                "account": "0x210b06a936e9f7b0b44e2163410f749fc187f6ce",
                "assets": [
                    {
                        "address": "0x467719ad09025fcc6cf6f8311755809d45a5e5f3",
                        "amount": "5,930.843557",
                        "iconUrl": "",
                        "isERC1155": false,
                        "isERC721": false,
                        "sign": true,
                        "value": "2017.6729780914000143"
                    }
                ]
            }
        ]
    },
    "profile": {
        "basic_info": {
            "baseFee": "13.851971743",
            "blockNumber": 18186411,
            "callData": "0xa9059cbb000000000000000000000000210b06a936e9f7b0b44e2163410f749fc187f6ce0000000000000000000000000000000000000000000000000000000161817da5",
            "debugEnable": true,
            "errorInfo": "",
            "eventCount": 1,
            "feeRecipient": "0x4675c7e5baafbffbca748158becba61ef3b0a263",
            "formatValue": "0",
            "gasLimit": 51706,
            "gasPrice": "13.951971743",
            "gasUsed": 29671,
            "intTxnCount": 0,
            "internalRevert": false,
            "internalRevertMessage": "",
            "isContractCreation": false,
            "isFlashloan": false,
            "maxFee": "20.800356466",
            "nonce": 3,
            "overwritedBlockNumber": -1,
            "priorityFee": "0.1",
            "receiver": "0x467719ad09025fcc6cf6f8311755809d45a5e5f3",
            "revertMessage": "",
            "sender": "0xc3f7b3fb36ccc53d40c8004d267ebaaa4c2b24fa",
            "simulationEnable": true,
            "sourceTxnHash": "0x80849f213d0f620482c11f567eb53d66022017c2069b142372313ea4fad5b3b8",
            "status": true,
            "timestamp": "2023-09-21T19:44:11Z",
            "transactionFee": "0.000413968953586553",
            "txnHash": "0x80849f213d0f620482c11f567eb53d66022017c2069b142372313ea4fad5b3b8",
            "txnIndex": 18,
            "type": 2,
            "value": "0"
        },
        "fund_flow": [
            {
                "amount": "5,930.843557",
                "from": "0xc3f7b3fb36ccc53d40c8004d267ebaaa4c2b24fa",
                "id": 1,
                "isERC1155": false,
                "isERC721": false,
                "isReverted": false,
                "order": 1,
                "to": "0x210b06a936e9f7b0b44e2163410f749fc187f6ce",
                "token": "0x467719ad09025fcc6cf6f8311755809d45a5e5f3"
            }
        ],
        "token_infos": [
            {
                "address": "0x467719ad09025fcc6cf6f8311755809d45a5e5f3",
                "decimals": 6
            },
            {
                "address": "0xc02aaa39b223fe8d0a0e5c4f27ead9083c756cc2",
                "decimals": 18
            },
            {
                "address": "0xeeeeeeeeeeeeeeeeeeeeeeeeeeeeeeeeeeeeeeee",
                "decimals": 18
            }
        ]
    },
    "address_label": {
        "labels": [
            {
                "address": "0x0000000000000000000000000000000000000002",
                "label": "Precompiled"
            },
            {
                "address": "0x0000000000000000000000000000000000000003",
                "label": "Precompiled"
            },
            {
                "address": "0x0000000000000000000000000000000000000004",
                "label": "Precompiled"
            },
            {
                "address": "0xeeeeeeeeeeeeeeeeeeeeeeeeeeeeeeeeeeeeeeee",
                "label": "Ether"
            },
            {
                "address": "0x467719ad09025fcc6cf6f8311755809d45a5e5f3",
                "label": "Axelar Network: AXL Token"
            },
            {
                "address": "0x0000000000000000000000000000000000000001",
                "label": "Precompiled"
            }
        ]
    },
    "trace": {
        "accountLabels": null,
        "dataMap": {
            "-1": {
                "invocation": {
                    "address": "0xc3f7b3fb36ccc53d40c8004d267ebaaa4c2b24fa",
                    "callData": "",
                    "decodedMethod": null,
                    "errorInfo": "",
                    "fromAddress": "",
                    "gasUsed": 0,
                    "id": -1,
                    "methodDecoded": false,
                    "operation": "",
                    "output": "",
                    "revert": false,
                    "revertMessage": "",
                    "selector": "",
                    "status": false,
                    "value": ""
                },
                "nodeType": 0
            },
            "0": {
                "invocation": {
                    "address": "0x467719ad09025fcc6cf6f8311755809d45a5e5f3",
                    "callData": "0x000000000000000000000000210b06a936e9f7b0b44e2163410f749fc187f6ce0000000000000000000000000000000000000000000000000000000161817da5",
                    "decodedMethod": {
                        "callParams": [
                            {
                                "name": "recipient",
                                "type": "address",
                                "value": "0x210b06a936e9f7b0b44e2163410f749fc187f6ce"
                            },
                            {
                                "decimalAvailable": true,
                                "name": "amount",
                                "type": "uint256",
                                "value": "5,930,843,557"
                            }
                        ],
                        "constructorArguments": "",
                        "name": "transfer",
                        "returnParams": [
                            {
                                "name": "",
                                "type": "bool",
                                "value": true
                            }
                        ],
                        "signature": "transfer(address,uint256)"
                    },
                    "errorInfo": "",
                    "fromAddress": "0xc3f7b3fb36ccc53d40c8004d267ebaaa4c2b24fa",
                    "gasUsed": 29671,
                    "id": 0,
                    "methodDecoded": true,
                    "operation": "CALL",
                    "output": "0x0000000000000000000000000000000000000000000000000000000000000001",
                    "revert": false,
                    "revertMessage": "",
                    "selector": "0xa9059cbb",
                    "status": true,
                    "value": "0"
                },
                "nodeType": 0
            },
            "1": {
                "event": {
                    "contract": "0x467719ad09025fcc6cf6f8311755809d45a5e5f3",
                    "decodedLog": {
                        "name": "Transfer",
                        "params": [
                            {
                                "name": "from",
                                "type": "address",
                                "value": "0xc3f7b3fb36ccc53d40c8004d267ebaaa4c2b24fa"
                            },
                            {
                                "name": "to",
                                "type": "address",
                                "value": "0x210b06a936e9f7b0b44e2163410f749fc187f6ce"
                            },
                            {
                                "decimalAvailable": true,
                                "name": "value",
                                "type": "uint256",
                                "value": "5,930,843,557"
                            }
                        ],
                        "signature": "Transfer(address,address,uint256)"
                    },
                    "id": 1,
                    "logData": "0x0000000000000000000000000000000000000000000000000000000161817da5",
                    "logDecoded": true,
                    "operation": "EVENT",
                    "revert": false,
                    "status": true,
                    "topics": [
                        "0xddf252ad1be2c89b69c2b068fc378daa952ba7f163c4a11628f55a4df523b3ef",
                        "0x000000000000000000000000c3f7b3fb36ccc53d40c8004d267ebaaa4c2b24fa",
                        "0x000000000000000000000000210b06a936e9f7b0b44e2163410f749fc187f6ce"
                    ]
                },
                "nodeType": 1
            }
        },
        "gasFlame": [
            {
                "children": [
                    {
                        "children": [
                            {
                                "children": [],
                                "depth": 0,
                                "name": "Initial Gas",
                                "value": 21620
                            },
                            {
                                "children": [],
                                "depth": 0,
                                "name": "Executed Gas",
                                "value": 12851
                            }
                        ],
                        "depth": -1,
                        "name": "Actual Gas Used",
                        "value": 29671
                    },
                    {
                        "children": [],
                        "depth": -1,
                        "name": "Refunded Gas",
                        "value": 4800
                    }
                ],
                "depth": -2,
                "name": "Total Gas",
                "value": 34471
            }
        ],
        "isConfirmed": true,
        "mainTrace": [
            {
                "children": [
                    {
                        "children": [
                            {
                                "children": [],
                                "depth": 1,
                                "id": 1,
                                "order": 1
                            }
                        ],
                        "depth": 0,
                        "id": 0,
                        "order": 0
                    }
                ],
                "depth": -1,
                "id": -1,
                "order": -1
            }
        ],
        "mainTraceNodeCount": 2,
        "parentIdMap": {
            "0": -1,
            "1": 0
        },
        "tidyTrace": [
            {
                "children": [
                    {
                        "children": [
                            {
                                "children": [],
                                "depth": 1,
                                "id": 1,
                                "order": 1
                            }
                        ],
                        "depth": 0,
                        "id": 0,
                        "order": 0
                    }
                ],
                "depth": -1,
                "id": -1,
                "order": -1
            }
        ],
        "tidyTraceNodeCount": 2
    },
    "state_change": {
        "stateChanges": [
            {
                "address": "0x467719ad09025fcc6cf6f8311755809d45a5e5f3",
                "erc": "ERC-20",
                "slots": [
                    {
                        "current": "0x0000000000000000000000000000000000000000000000000000000000000000",
                        "key": "0xd912c866063f89601b4d020d1eada0e088c1b5b4f8d440760868c4425df52a20",
                        "prev": "0x0000000000000000000000000000000000000000000000000000000161817da5"
                    },
                    {
                        "current": "0x0000000000000000000000000000000000000000000000000000000998487325",
                        "key": "0xe0a0b950b4f567be020b2e71fa3a5bcb44ddd1a01ba6fed51151f167d8c693fe",
                        "prev": "0x0000000000000000000000000000000000000000000000000000000836c6f580"
                    }
                ],
                "storageVariables": [
                    {
                        "name": "balanceOf",
                        "type": "mapping(address => uint256)",
                        "value": {
                            "pairs": [
                                {
                                    "key": "0x210b06a936e9f7b0b44e2163410f749fc187f6ce",
                                    "value": {
                                        "current": "41209590565",
                                        "prev": "35278747008",
                                        "typeTag": 1
                                    }
                                },
                                {
                                    "key": "0xc3f7b3fb36ccc53d40c8004d267ebaaa4c2b24fa",
                                    "value": {
                                        "current": "0",
                                        "prev": "5930843557",
                                        "typeTag": 1
                                    }
                                }
                            ],
                            "typeTag": 4
                        }
                    }
                ]
            }
        ]
    }
}