{
    "balance_change": {
        "balanceChanges": [
            {
                "account": "0xceef1b826aa27de3067af1df8a6f86a39cf495c3",
                "assets": [
                    {
                        "address": "0xf1ec455e3ea962dc2840138ba5780a3853a8fc6d",
                        "amount": "38.1011",
                        "iconUrl": "",
                        "isERC1155": false,
                        "isERC721": false,
                        "sign": false,
                        "value": ""
                    }
                ]
            },
            {
                "account": "0xbc6f766eb051140a1e3300ffd11ede97016b3c6b",
                "assets": [
                    {
                        "address": "0xf1ec455e3ea962dc2840138ba5780a3853a8fc6d",
                        "amount": "38.1011",
                        "iconUrl": "",
                        "isERC1155": false,
                        "isERC721": false,
                        "sign": true,
                        "value": ""
                    }
                ]
            }
        ]
    },
    "profile": {
        "basic_info": {
            "baseFee": "",
            "blockNumber": 8513729,
            "callData": "0xa9059cbb000000000000000000000000bc6f766eb051140a1e3300ffd11ede97016b3c6b00000000000000000000000000000000000000000000000210c24c94eba2c000",
            "debugEnable": true,
            "errorInfo": "",
            "eventCount": 1,
            "feeRecipient": "0x5a0b54d5dc17e0aadc383d2db43b0a0d3e029c4c",
            "formatValue": "0",
            "gasLimit": 60000,
            "gasPrice": "8",
            "gasUsed": 37441,
            "intTxnCount": 0,
            "internalRevert": false,
            "internalRevertMessage": "",
            "isContractCreation": false,
            "isFlashloan": false,
            "maxFee": "",
            "nonce": 11820,
            "overwritedBlockNumber": -1,
            "priorityFee": "",
            "receiver": "0xf1ec455e3ea962dc2840138ba5780a3853a8fc6d",
            "revertMessage": "",
            "sender": "0xceef1b826aa27de3067af1df8a6f86a39cf495c3",
            "simulationEnable": true,
            "sourceTxnHash": "0x80f5adeadb5e79f21f2ffdbd044747bbb8fe7f329502b2bc136e505392d1296f",
            "status": true,
            "timestamp": "2019-09-09T05:15:53Z",
            "transactionFee": "0.000299528",
            "txnHash": "0x80f5adeadb5e79f21f2ffdbd044747bbb8fe7f329502b2bc136e505392d1296f",
            "txnIndex": 33,
            "type": 0,
            "value": "0"
        },
        "fund_flow": [
            {
                "amount": "38.1011",
                "from": "0xceef1b826aa27de3067af1df8a6f86a39cf495c3",
                "id": 1,
                "isERC1155": false,
                "isERC721": false,
                "isReverted": false,
                "order": 1,
                "to": "0xbc6f766eb051140a1e3300ffd11ede97016b3c6b",
                "token": "0xf1ec455e3ea962dc2840138ba5780a3853a8fc6d"
            }
        ],
        "token_infos": [
            {
                "address": "0xeeeeeeeeeeeeeeeeeeeeeeeeeeeeeeeeeeeeeeee",
                "decimals": 18
            },
            {
                "address": "0xc02aaa39b223fe8d0a0e5c4f27ead9083c756cc2",
                "decimals": 18
            },
            {
                "address": "0xf1ec455e3ea962dc2840138ba5780a3853a8fc6d",
                "decimals": 18
            }
        ]
    },
    "address_label": {
        "labels": [
            {
                "address": "0xeeeeeeeeeeeeeeeeeeeeeeeeeeeeeeeeeeeeeeee",
                "label": "Ether"
            },
            {
                "address": "0xf1ec455e3ea962dc2840138ba5780a3853a8fc6d",
                "label": "Business boss chain (BBOS)"
            },
            {
                "address": "0x0000000000000000000000000000000000000001",
                "label": "Precompiled"
            },
            {
                "address": "0x0000000000000000000000000000000000000002",
                "label": "Precompiled"
            },
            {
                "address": "0x0000000000000000000000000000000000000003",
                "label": "Precompiled"
            },
            {
                "address": "0x0000000000000000000000000000000000000004",
                "label": "Precompiled"
            }
        ]
    },
    "trace": {
        "accountLabels": null,
        "dataMap": {
            "-1": {
                "invocation": {
                    "address": "0xceef1b826aa27de3067af1df8a6f86a39cf495c3",
                    "callData": "",
                    "decodedMethod": null,
                    "errorInfo": "",
                    "fromAddress": "",
                    "gasUsed": 0,
                    "id": -1,
                    "methodDecoded": false,
                    "operation": "",
                    "output": "",
                    "revert": false,
                    "revertMessage": "",
                    "selector": "",
                    "status": false,
                    "value": ""
                },
                "nodeType": 0
            },
            "0": {
                "invocation": {
                    "address": "0xf1ec455e3ea962dc2840138ba5780a3853a8fc6d",
                    "callData": "0x000000000000000000000000bc6f766eb051140a1e3300ffd11ede97016b3c6b00000000000000000000000000000000000000000000000210c24c94eba2c000",
                    "decodedMethod": {
                        "callParams": [
                            {
                                "name": "_to",
                                "type": "address",
                                "value": "0xbc6f766eb051140a1e3300ffd11ede97016b3c6b"
                            },
                            {
                                "decimalAvailable": true,
                                "name": "_value",
                                "type": "uint256",
                                "value": "38,101,100,000,000,000,000"
                            }
                        ],
                        "constructorArguments": "",
                        "name": "transfer",
                        "returnParams": [
                            {
                                "name": "",
                                "type": "bool",
                                "value": true
                            }
                        ],
                        "signature": "transfer(address,uint256)"
                    },
                    "errorInfo": "",
                    "fromAddress": "0xceef1b826aa27de3067af1df8a6f86a39cf495c3",
                    "gasUsed": 37441,
                    "id": 0,
                    "methodDecoded": true,
                    "operation": "CALL",
                    "output": "0x0000000000000000000000000000000000000000000000000000000000000001",
                    "revert": false,
                    "revertMessage": "",
                    "selector": "0xa9059cbb",
                    "status": true,
                    "value": "0"
                },
                "nodeType": 0
            },
            "1": {
                "event": {
                    "contract": "0xf1ec455e3ea962dc2840138ba5780a3853a8fc6d",
                    "decodedLog": {
                        "name": "Transfer",
                        "params": [
                            {
                                "name": "from",
                                "type": "address",
                                "value": "0xceef1b826aa27de3067af1df8a6f86a39cf495c3"
                            },
                            {
                                "name": "to",
                                "type": "address",
                                "value": "0xbc6f766eb051140a1e3300ffd11ede97016b3c6b"
                            },
                            {
                                "decimalAvailable": true,
                                "name": "value",
                                "type": "uint256",
                                "value": "38,101,100,000,000,000,000"
                            }
                        ],
                        "signature": "Transfer(address,address,uint256)"
                    },
                    "id": 1,
                    "logData": "0x00000000000000000000000000000000000000000000000210c24c94eba2c000",
                    "logDecoded": true,
                    "operation": "EVENT",
                    "revert": false,
                    "status": true,
                    "topics": [
                        "0xddf252ad1be2c89b69c2b068fc378daa952ba7f163c4a11628f55a4df523b3ef",
                        "0x000000000000000000000000ceef1b826aa27de3067af1df8a6f86a39cf495c3",
                        "0x000000000000000000000000bc6f766eb051140a1e3300ffd11ede97016b3c6b"
                    ]
                },
                "nodeType": 1
            }
        },
        "gasFlame": [
            {
                "children": [
                    {
                        "children": [
                            {
                                "children": [],
                                "depth": 0,
                                "name": "Initial Gas",
                                "value": 23256
                            },
                            {
                                "children": [],
                                "depth": 0,
                                "name": "Executed Gas",
                                "value": 14185
                            }
                        ],
                        "depth": -1,
                        "name": "Actual Gas Used",
                        "value": 37441
                    },
                    {
                        "children": [],
                        "depth": -1,
                        "name": "Refunded Gas",
                        "value": 0
                    }
                ],
                "depth": -2,
                "name": "Total Gas",
                "value": 37441
            }
        ],
        "isConfirmed": true,
        "mainTrace": [
            {
                "children": [
                    {
                        "children": [
                            {
                                "children": [],
                                "depth": 1,
                                "id": 1,
                                "order": 1
                            }
                        ],
                        "depth": 0,
                        "id": 0,
                        "order": 0
                    }
                ],
                "depth": -1,
                "id": -1,
                "order": -1
            }
        ],
        "mainTraceNodeCount": 2,
        "parentIdMap": {
            "0": -1,
            "1": 0
        },
        "tidyTrace": [
            {
                "children": [
                    {
                        "children": [
                            {
                                "children": [],
                                "depth": 1,
                                "id": 1,
                                "order": 1
                            }
                        ],
                        "depth": 0,
                        "id": 0,
                        "order": 0
                    }
                ],
                "depth": -1,
                "id": -1,
                "order": -1
            }
        ],
        "tidyTraceNodeCount": 2
    },
    "state_change": {
        "stateChanges": [
            {
                "address": "0xf1ec455e3ea962dc2840138ba5780a3853a8fc6d",
                "erc": "ERC-20",
                "slots": [
                    {
                        "current": "0x00000000000000000000000000000000000000000000000b39ca43a6d0400000",
                        "key": "0x3d7ad423332ba87b81f1056a4d82243c9f601a7b6e335816cf4605570e016831",
                        "prev": "0x0000000000000000000000000000000000000000000000092907f711e49d4000"
                    },
                    {
                        "current": "0x000000000000000000000000000000000000000000002226ca569bfe84280400",
                        "key": "0x3ed104f5d8dab35ab3bc934355ddbe3d3658a62b9bcee1cc9c139a186b0a4a51",
                        "prev": "0x000000000000000000000000000000000000000000002228db18e8936fcac400"
                    }
                ],
                "storageVariables": [
                    {
                        "name": "balances",
                        "type": "mapping(address => uint256)",
                        "value": {
                            "pairs": [
                                {
                                    "key": "0xbc6f766eb051140a1e3300ffd11ede97016b3c6b",
                                    "value": {
                                        "current": "207078400000000000000",
                                        "prev": "168977300000000000000",
                                        "typeTag": 1
                                    }
                                },
                                {
                                    "key": "0xceef1b826aa27de3067af1df8a6f86a39cf495c3",
                                    "value": {
                                        "current": "161276016704730000000000",
                                        "prev": "161314117804730000000000",
                                        "typeTag": 1
                                    }
                                }
                            ],
                            "typeTag": 4
                        }
                    }
                ]
            }
        ]
    }
}