{
    "balance_change": {
        "balanceChanges": [
            {
                "account": "0x90532968335167f93b5f1d73129e0d8300f2dee4",
                "assets": [
                    {
                        "address": "0x6ef77d991eb5306e9f235abc0cc65925da398ad0",
                        "amount": "34,677.72986961",
                        "iconUrl": "",
                        "isERC1155": false,
                        "isERC721": false,
                        "sign": false,
                        "value": ""
                    }
                ]
            },
            {
                "account": "0x36ceea24d9c04b24868b1cde26b6c006ee215e56",
                "assets": [
                    {
                        "address": "0x6ef77d991eb5306e9f235abc0cc65925da398ad0",
                        "amount": "34,677.72986961",
                        "iconUrl": "",
                        "isERC1155": false,
                        "isERC721": false,
                        "sign": true,
                        "value": ""
                    }
                ]
            }
        ]
    },
    "profile": {
        "basic_info": {
            "baseFee": "",
            "blockNumber": 8698977,
            "callData": "0xa9059cbb00000000000000000000000036ceea24d9c04b24868b1cde26b6c006ee215e56000000000000000000000000000000000000000000000757e22d41ec511b2400",
            "debugEnable": true,
            "errorInfo": "",
            "eventCount": 1,
            "feeRecipient": "0x52bc44d5378309ee2abf1539bf71de1b7d7be3b5",
            "formatValue": "0",
            "gasLimit": 90000,
            "gasPrice": "1",
            "gasUsed": 37660,
            "intTxnCount": 0,
            "internalRevert": false,
            "internalRevertMessage": "",
            "isContractCreation": false,
            "isFlashloan": false,
            "maxFee": "",
            "nonce": 2070,
            "overwritedBlockNumber": -1,
            "priorityFee": "",
            "receiver": "0x6ef77d991eb5306e9f235abc0cc65925da398ad0",
            "revertMessage": "",
            "sender": "0x90532968335167f93b5f1d73129e0d8300f2dee4",
            "simulationEnable": true,
            "sourceTxnHash": "0x809c0bf2ccd58556bca7bb881acbea33fd524870084d79bfdad080bd33810d9e",
            "status": true,
            "timestamp": "2019-10-08T03:41:45Z",
            "transactionFee": "0.00003766",
            "txnHash": "0x809c0bf2ccd58556bca7bb881acbea33fd524870084d79bfdad080bd33810d9e",
            "txnIndex": 134,
            "type": 0,
            "value": "0"
        },
        "fund_flow": [
            {
                "amount": "34,677.72986961",
                "from": "0x90532968335167f93b5f1d73129e0d8300f2dee4",
                "id": 1,
                "isERC1155": false,
                "isERC721": false,
                "isReverted": false,
                "order": 1,
                "to": "0x36ceea24d9c04b24868b1cde26b6c006ee215e56",
                "token": "0x6ef77d991eb5306e9f235abc0cc65925da398ad0"
            }
        ],
        "token_infos": [
            {
                "address": "0xc02aaa39b223fe8d0a0e5c4f27ead9083c756cc2",
                "decimals": 18
            },
            {
                "address": "0xeeeeeeeeeeeeeeeeeeeeeeeeeeeeeeeeeeeeeeee",
                "decimals": 18
            },
            {
                "address": "0x6ef77d991eb5306e9f235abc0cc65925da398ad0",
                "decimals": 18
            }
        ]
    },
    "address_label": {
        "labels": [
            {
                "address": "0xeeeeeeeeeeeeeeeeeeeeeeeeeeeeeeeeeeeeeeee",
                "label": "Ether"
            },
            {
                "address": "0x6ef77d991eb5306e9f235abc0cc65925da398ad0",
                "label": "Master Mix Token (MMT)"
            },
            {
                "address": "0x0000000000000000000000000000000000000001",
                "label": "Precompiled"
            },
            {
                "address": "0x0000000000000000000000000000000000000002",
                "label": "Precompiled"
            },
            {
                "address": "0x0000000000000000000000000000000000000003",
                "label": "Precompiled"
            },
            {
                "address": "0x0000000000000000000000000000000000000004",
                "label": "Precompiled"
            }
        ]
    },
    "trace": {
        "accountLabels": null,
        "dataMap": {
            "-1": {
                "invocation": {
                    "address": "0x90532968335167f93b5f1d73129e0d8300f2dee4",
                    "callData": "",
                    "decodedMethod": null,
                    "errorInfo": "",
                    "fromAddress": "",
                    "gasUsed": 0,
                    "id": -1,
                    "methodDecoded": false,
                    "operation": "",
                    "output": "",
                    "revert": false,
                    "revertMessage": "",
                    "selector": "",
                    "status": false,
                    "value": ""
                },
                "nodeType": 0
            },
            "0": {
                "invocation": {
                    "address": "0x6ef77d991eb5306e9f235abc0cc65925da398ad0",
                    "callData": "0x00000000000000000000000036ceea24d9c04b24868b1cde26b6c006ee215e56000000000000000000000000000000000000000000000757e22d41ec511b2400",
                    "decodedMethod": {
                        "callParams": [
                            {
                                "name": "_to",
                                "type": "address",
                                "value": "0x36ceea24d9c04b24868b1cde26b6c006ee215e56"
                            },
                            {
                                "decimalAvailable": true,
                                "name": "_value",
                                "type": "uint256",
                                "value": "34,677,729,869,610,000,000,000"
                            }
                        ],
                        "constructorArguments": "",
                        "name": "transfer",
                        "returnParams": [
                            {
                                "name": "success",
                                "type": "bool",
                                "value": true
                            }
                        ],
                        "signature": "transfer(address,uint256)"
                    },
                    "errorInfo": "",
                    "fromAddress": "0x90532968335167f93b5f1d73129e0d8300f2dee4",
                    "gasUsed": 37660,
                    "id": 0,
                    "methodDecoded": true,
                    "operation": "CALL",
                    "output": "0x0000000000000000000000000000000000000000000000000000000000000001",
                    "revert": false,
                    "revertMessage": "",
                    "selector": "0xa9059cbb",
                    "status": true,
                    "value": "0"
                },
                "nodeType": 0
            },
            "1": {
                "event": {
                    "contract": "0x6ef77d991eb5306e9f235abc0cc65925da398ad0",
                    "decodedLog": {
                        "name": "Transfer",
                        "params": [
                            {
                                "name": "from",
                                "type": "address",
                                "value": "0x90532968335167f93b5f1d73129e0d8300f2dee4"
                            },
                            {
                                "name": "to",
                                "type": "address",
                                "value": "0x36ceea24d9c04b24868b1cde26b6c006ee215e56"
                            },
                            {
                                "decimalAvailable": true,
                                "name": "value",
                                "type": "uint256",
                                "value": "34,677,729,869,610,000,000,000"
                            }
                        ],
                        "signature": "Transfer(address,address,uint256)"
                    },
                    "id": 1,
                    "logData": "0x000000000000000000000000000000000000000000000757e22d41ec511b2400",
                    "logDecoded": true,
                    "operation": "EVENT",
                    "revert": false,
                    "status": true,
                    "topics": [
                        "0xddf252ad1be2c89b69c2b068fc378daa952ba7f163c4a11628f55a4df523b3ef",
                        "0x00000000000000000000000090532968335167f93b5f1d73129e0d8300f2dee4",
                        "0x00000000000000000000000036ceea24d9c04b24868b1cde26b6c006ee215e56"
                    ]
                },
                "nodeType": 1
            }
        },
        "gasFlame": [
            {
                "children": [
                    {
                        "children": [
                            {
                                "children": [],
                                "depth": 0,
                                "name": "Initial Gas",
                                "value": 23384
                            },
                            {
                                "children": [],
                                "depth": 0,
                                "name": "Executed Gas",
                                "value": 14276
                            }
                        ],
                        "depth": -1,
                        "name": "Actual Gas Used",
                        "value": 37660
                    },
                    {
                        "children": [],
                        "depth": -1,
                        "name": "Refunded Gas",
                        "value": 0
                    }
                ],
                "depth": -2,
                "name": "Total Gas",
                "value": 37660
            }
        ],
        "isConfirmed": true,
        "mainTrace": [
            {
                "children": [
                    {
                        "children": [
                            {
                                "children": [],
                                "depth": 1,
                                "id": 1,
                                "order": 1
                            }
                        ],
                        "depth": 0,
                        "id": 0,
                        "order": 0
                    }
                ],
                "depth": -1,
                "id": -1,
                "order": -1
            }
        ],
        "mainTraceNodeCount": 2,
        "parentIdMap": {
            "0": -1,
            "1": 0
        },
        "tidyTrace": [
            {
                "children": [
                    {
                        "children": [
                            {
                                "children": [],
                                "depth": 1,
                                "id": 1,
                                "order": 1
                            }
                        ],
                        "depth": 0,
                        "id": 0,
                        "order": 0
                    }
                ],
                "depth": -1,
                "id": -1,
                "order": -1
            }
        ],
        "tidyTraceNodeCount": 2
    },
    "state_change": {
        "stateChanges": [
            {
                "address": "0x6ef77d991eb5306e9f235abc0cc65925da398ad0",
                "erc": "ERC-20",
                "slots": [
                    {
                        "current": "0x00000000000000000000000000000000000000000000b47ebe9fe25119e5f400",
                        "key": "0xdd3b1e746c35bd7bcfcbd69c1a5d09aee4b56754de87555badb7ce87e314c9b8",
                        "prev": "0x00000000000000000000000000000000000000000000bbd6a0cd243d6b011800"
                    },
                    {
                        "current": "0x0000000000000000000000000000000000000000000066c142517cb13a39fc00",
                        "key": "0xbf3e486dea1318004b628ba2554e8480c9b43a579d1c5d2323031d79a501c879",
                        "prev": "0x000000000000000000000000000000000000000000005f6960243ac4e91ed800"
                    }
                ],
                "storageVariables": [
                    {
                        "name": "balanceOf",
                        "type": "mapping(address => uint256)",
                        "value": {
                            "pairs": [
                                {
                                    "key": "0x36ceea24d9c04b24868b1cde26b6c006ee215e56",
                                    "value": {
                                        "current": "485246381596710000000000",
                                        "prev": "450568651727100000000000",
                                        "typeTag": 1
                                    }
                                },
                                {
                                    "key": "0x90532968335167f93b5f1d73129e0d8300f2dee4",
                                    "value": {
                                        "current": "852363992616050000000000",
                                        "prev": "887041722485660000000000",
                                        "typeTag": 1
                                    }
                                }
                            ],
                            "typeTag": 4
                        }
                    }
                ]
            }
        ]
    }
}