{
    "balance_change": {
        "balanceChanges": [
            {
                "account": "0x08b08d7254909830dde8906bfa05187f58ac8421",
                "assets": [
                    {
                        "address": "0xf411903cbc70a74d22900a5de66a2dda66507255",
                        "amount": "9,460.23984490588099157",
                        "iconUrl": "",
                        "isERC1155": false,
                        "isERC721": false,
                        "sign": true,
                        "value": "47.301199225000000983"
                    },
                    {
                        "address": "0xeeeeeeeeeeeeeeeeeeeeeeeeeeeeeeeeeeeeeeee",
                        "amount": "0.032600469087244463",
                        "iconUrl": "https://assets.blocksec.com/image/1663669189317-3.png",
                        "isERC1155": false,
                        "isERC721": false,
                        "sign": true,
                        "value": "53.144306696445302373"
                    }
                ]
            },
            {
                "account": "0x98409d8ca9629fbe01ab1b914ebf304175e384c8",
                "assets": [
                    {
                        "address": "0xc02aaa39b223fe8d0a0e5c4f27ead9083c756cc2",
                        "amount": "0.032600469087244463",
                        "iconUrl": "https://assets.blocksec.com/icon/f1cb2d02c471d545bbc7722daf3277fd852d98e63d118771af7047bd8256c516.png",
                        "isERC1155": false,
                        "isERC721": false,
                        "sign": false,
                        "value": "53.144306696445302373"
                    },
                    {
                        "address": "0xf411903cbc70a74d22900a5de66a2dda66507255",
                        "amount": "9,460.23984490588099157",
                        "iconUrl": "",
                        "isERC1155": false,
                        "isERC721": false,
                        "sign": false,
                        "value": "47.301199225000000983"
                    }
                ]
            },
            {
                "account": "0xc02aaa39b223fe8d0a0e5c4f27ead9083c756cc2",
                "assets": [
                    {
                        "address": "0xeeeeeeeeeeeeeeeeeeeeeeeeeeeeeeeeeeeeeeee",
                        "amount": "0.032600469087244463",
                        "iconUrl": "https://assets.blocksec.com/image/1663669189317-3.png",
                        "isERC1155": false,
                        "isERC721": false,
                        "sign": false,
                        "value": "53.144306696445302373"
                    },
                    {
                        "address": "0xc02aaa39b223fe8d0a0e5c4f27ead9083c756cc2",
                        "amount": "0.032600469087244463",
                        "iconUrl": "https://assets.blocksec.com/icon/f1cb2d02c471d545bbc7722daf3277fd852d98e63d118771af7047bd8256c516.png",
                        "isERC1155": false,
                        "isERC721": false,
                        "sign": true,
                        "value": "53.144306696445302373"
                    }
                ]
            }
        ]
    },
    "profile": {
        "basic_info": {
            "baseFee": "8.420420633",
            "blockNumber": 18400822,
            "callData": "0xac9650d8000000000000000000000000000000000000000000000000000000000000002000000000000000000000000000000000000000000000000000000000000000030000000000000000000000000000000000000000000000000000000000000060000000000000000000000000000000000000000000000000000000000000012000000000000000000000000000000000000000000000000000000000000001a00000000000000000000000000000000000000000000000000000000000000084fc6f7865000000000000000000000000000000000000000000000000000000000008e496000000000000000000000000000000000000000000000000000000000000000000000000000000000000000000000000ffffffffffffffffffffffffffffffff00000000000000000000000000000000ffffffffffffffffffffffffffffffff00000000000000000000000000000000000000000000000000000000000000000000000000000000000000000000000000000000000000000000004449404b7c0000000000000000000000000000000000000000000000000073d1f43374d0af00000000000000000000000008b08d7254909830dde8906bfa05187f58ac8421000000000000000000000000000000000000000000000000000000000000000000000000000000000000000000000000000000000000000000000064df2ab5bb000000000000000000000000f411903cbc70a74d22900a5de66a2dda66507255000000000000000000000000000000000000000000000200d73380716b89375200000000000000000000000008b08d7254909830dde8906bfa05187f58ac842100000000000000000000000000000000000000000000000000000000",
            "debugEnable": true,
            "errorInfo": "",
            "eventCount": 9,
            "feeRecipient": "0x95222290dd7278aa3ddd389cc1e1d165cc4bafe5",
            "formatValue": "0",
            "gasLimit": 300514,
            "gasPrice": "8.520420633",
            "gasUsed": 200344,
            "intTxnCount": 18,
            "internalRevert": false,
            "internalRevertMessage": "",
            "isContractCreation": false,
            "isFlashloan": false,
            "maxFee": "10.666357947",
            "nonce": 346,
            "overwritedBlockNumber": -1,
            "priorityFee": "0.1",
            "receiver": "0xc36442b4a4522e871399cd717abdd847ab11fe88",
            "revertMessage": "",
            "sender": "0x08b08d7254909830dde8906bfa05187f58ac8421",
            "simulationEnable": true,
            "sourceTxnHash": "0x80ee17a6dd041c2bfde47a8f9e6bc06813664213d1cf88695ac39cc2f55a1e3f",
            "status": true,
            "timestamp": "2023-10-21T19:38:59Z",
            "transactionFee": "0.001707015151297752",
            "txnHash": "0x80ee17a6dd041c2bfde47a8f9e6bc06813664213d1cf88695ac39cc2f55a1e3f",
            "txnIndex": 88,
            "type": 2,
            "value": "0"
        },
        "fund_flow": [
            {
                "amount": "0.032600469087244463",
                "from": "0x98409d8ca9629fbe01ab1b914ebf304175e384c8",
                "id": 1,
                "isERC1155": false,
                "isERC721": false,
                "isReverted": false,
                "order": 1,
                "to": "0xc36442b4a4522e871399cd717abdd847ab11fe88",
                "token": "0xc02aaa39b223fe8d0a0e5c4f27ead9083c756cc2"
            },
            {
                "amount": "9,460.23984490588099157",
                "from": "0x98409d8ca9629fbe01ab1b914ebf304175e384c8",
                "id": 2,
                "isERC1155": false,
                "isERC721": false,
                "isReverted": false,
                "order": 2,
                "to": "0xc36442b4a4522e871399cd717abdd847ab11fe88",
                "token": "0xf411903cbc70a74d22900a5de66a2dda66507255"
            },
            {
                "amount": "0.032600469087244463",
                "from": "0xc02aaa39b223fe8d0a0e5c4f27ead9083c756cc2",
                "id": 3,
                "isERC1155": false,
                "isERC721": false,
                "isReverted": false,
                "order": 3,
                "to": "0xc36442b4a4522e871399cd717abdd847ab11fe88",
                "token": "0xeeeeeeeeeeeeeeeeeeeeeeeeeeeeeeeeeeeeeeee"
            },
            {
                "amount": "0.032600469087244463",
                "from": "0xc36442b4a4522e871399cd717abdd847ab11fe88",
                "id": 4,
                "isERC1155": false,
                "isERC721": false,
                "isReverted": false,
                "order": 4,
                "to": "0xc02aaa39b223fe8d0a0e5c4f27ead9083c756cc2",
                "token": "0xc02aaa39b223fe8d0a0e5c4f27ead9083c756cc2"
            },
            {
                "amount": "0.032600469087244463",
                "from": "0xc36442b4a4522e871399cd717abdd847ab11fe88",
                "id": 5,
                "isERC1155": false,
                "isERC721": false,
                "isReverted": false,
                "order": 5,
                "to": "0x08b08d7254909830dde8906bfa05187f58ac8421",
                "token": "0xeeeeeeeeeeeeeeeeeeeeeeeeeeeeeeeeeeeeeeee"
            },
            {
                "amount": "9,460.23984490588099157",
                "from": "0xc36442b4a4522e871399cd717abdd847ab11fe88",
                "id": 6,
                "isERC1155": false,
                "isERC721": false,
                "isReverted": false,
                "order": 6,
                "to": "0x08b08d7254909830dde8906bfa05187f58ac8421",
                "token": "0xf411903cbc70a74d22900a5de66a2dda66507255"
            }
        ],
        "token_infos": [
            {
                "address": "0xc02aaa39b223fe8d0a0e5c4f27ead9083c756cc2",
                "decimals": 18
            },
            {
                "address": "0xf411903cbc70a74d22900a5de66a2dda66507255",
                "decimals": 18
            },
            {
                "address": "0xeeeeeeeeeeeeeeeeeeeeeeeeeeeeeeeeeeeeeeee",
                "decimals": 18
            }
        ]
    },
    "address_label": {
        "labels": [
            {
                "address": "0x98409d8ca9629fbe01ab1b914ebf304175e384c8",
                "label": "Uniswap V3: VRA"
            },
            {
                "address": "0xf411903cbc70a74d22900a5de66a2dda66507255",
                "label": "Verasity: VRA Token"
            },
            {
                "address": "0xc02aaa39b223fe8d0a0e5c4f27ead9083c756cc2",
                "label": "Wrapped Ether (WETH)"
            },
            {
                "address": "0x0000000000000000000000000000000000000000",
                "label": "Null Address"
            },
            {
                "address": "0xc36442b4a4522e871399cd717abdd847ab11fe88",
                "label": "Uniswap V3: Positions NFT"
            },
            {
                "address": "0x0000000000000000000000000000000000000001",
                "label": "Precompiled"
            },
            {
                "address": "0x0000000000000000000000000000000000000002",
                "label": "Precompiled"
            },
            {
                "address": "0x0000000000000000000000000000000000000003",
                "label": "Precompiled"
            },
            {
                "address": "0xeeeeeeeeeeeeeeeeeeeeeeeeeeeeeeeeeeeeeeee",
                "label": "Ether"
            },
            {
                "address": "0x1820a4b7618bde71dce8cdc73aab6c95905fad24",
                "label": "ERC1820Registry"
            },
            {
                "address": "0x0000000000000000000000000000000000000004",
                "label": "Precompiled"
            }
        ]
    },
    "trace": {
        "accountLabels": null,
        "dataMap": {
            "-1": {
                "invocation": {
                    "address": "0x08b08d7254909830dde8906bfa05187f58ac8421",
                    "callData": "",
                    "decodedMethod": null,
                    "errorInfo": "",
                    "fromAddress": "",
                    "gasUsed": 0,
                    "id": -1,
                    "methodDecoded": false,
                    "operation": "",
                    "output": "",
                    "revert": false,
                    "revertMessage": "",
                    "selector": "",
                    "status": false,
                    "value": ""
                },
                "nodeType": 0
            },
            "0": {
                "invocation": {
                    "address": "0xc36442b4a4522e871399cd717abdd847ab11fe88",
                    "callData": "0x000000000000000000000000000000000000000000000000000000000000002000000000000000000000000000000000000000000000000000000000000000030000000000000000000000000000000000000000000000000000000000000060000000000000000000000000000000000000000000000000000000000000012000000000000000000000000000000000000000000000000000000000000001a00000000000000000000000000000000000000000000000000000000000000084fc6f7865000000000000000000000000000000000000000000000000000000000008e496000000000000000000000000000000000000000000000000000000000000000000000000000000000000000000000000ffffffffffffffffffffffffffffffff00000000000000000000000000000000ffffffffffffffffffffffffffffffff00000000000000000000000000000000000000000000000000000000000000000000000000000000000000000000000000000000000000000000004449404b7c0000000000000000000000000000000000000000000000000073d1f43374d0af00000000000000000000000008b08d7254909830dde8906bfa05187f58ac8421000000000000000000000000000000000000000000000000000000000000000000000000000000000000000000000000000000000000000000000064df2ab5bb000000000000000000000000f411903cbc70a74d22900a5de66a2dda66507255000000000000000000000000000000000000000000000200d73380716b89375200000000000000000000000008b08d7254909830dde8906bfa05187f58ac842100000000000000000000000000000000000000000000000000000000",
                    "decodedMethod": {
                        "callParams": [
                            {
                                "name": "data",
                                "type": "bytes[]",
                                "value": [
                                    "0xfc6f7865000000000000000000000000000000000000000000000000000000000008e496000000000000000000000000000000000000000000000000000000000000000000000000000000000000000000000000ffffffffffffffffffffffffffffffff00000000000000000000000000000000ffffffffffffffffffffffffffffffff",
                                    "0x49404b7c0000000000000000000000000000000000000000000000000073d1f43374d0af00000000000000000000000008b08d7254909830dde8906bfa05187f58ac8421",
                                    "0xdf2ab5bb000000000000000000000000f411903cbc70a74d22900a5de66a2dda66507255000000000000000000000000000000000000000000000200d73380716b89375200000000000000000000000008b08d7254909830dde8906bfa05187f58ac8421"
                                ]
                            }
                        ],
                        "constructorArguments": "",
                        "name": "multicall",
                        "returnParams": [
                            {
                                "name": "results",
                                "type": "bytes[]",
                                "value": [
                                    "0x0000000000000000000000000000000000000000000000000073d1f43374d0af000000000000000000000000000000000000000000000200d73380716b893752",
                                    "0x",
                                    "0x"
                                ]
                            }
                        ],
                        "signature": "multicall(bytes[])"
                    },
                    "errorInfo": "",
                    "fromAddress": "0x08b08d7254909830dde8906bfa05187f58ac8421",
                    "gasUsed": 200344,
                    "id": 0,
                    "methodDecoded": true,
                    "operation": "CALL",
                    "output": "0x00000000000000000000000000000000000000000000000000000000000000200000000000000000000000000000000000000000000000000000000000000003000000000000000000000000000000000000000000000000000000000000006000000000000000000000000000000000000000000000000000000000000000c000000000000000000000000000000000000000000000000000000000000000e000000000000000000000000000000000000000000000000000000000000000400000000000000000000000000000000000000000000000000073d1f43374d0af000000000000000000000000000000000000000000000200d73380716b89375200000000000000000000000000000000000000000000000000000000000000000000000000000000000000000000000000000000000000000000000000000000",
                    "revert": false,
                    "revertMessage": "",
                    "selector": "0xac9650d8",
                    "status": true,
                    "value": "0"
                },
                "nodeType": 0
            },
            "1": {
                "invocation": {
                    "address": "0xc36442b4a4522e871399cd717abdd847ab11fe88",
                    "callData": "0x000000000000000000000000000000000000000000000000000000000008e496000000000000000000000000000000000000000000000000000000000000000000000000000000000000000000000000ffffffffffffffffffffffffffffffff00000000000000000000000000000000ffffffffffffffffffffffffffffffff",
                    "decodedMethod": {
                        "callParams": [
                            {
                                "name": "params",
                                "type": "(uint256,address,uint128,uint128)",
                                "value": [
                                    {
                                        "name": "tokenId",
                                        "type": "uint256",
                                        "value": "582,806"
                                    },
                                    {
                                        "name": "recipient",
                                        "type": "address",
                                        "value": "0x0000000000000000000000000000000000000000"
                                    },
                                    {
                                        "name": "amount0Max",
                                        "type": "uint128",
                                        "value": "340,282,366,920,938,463,463,374,607,431,768,211,455"
                                    },
                                    {
                                        "name": "amount1Max",
                                        "type": "uint128",
                                        "value": "340,282,366,920,938,463,463,374,607,431,768,211,455"
                                    }
                                ]
                            }
                        ],
                        "constructorArguments": "",
                        "name": "collect",
                        "returnParams": [
                            {
                                "name": "amount0",
                                "type": "uint256",
                                "value": "32,600,469,087,244,463"
                            },
                            {
                                "name": "amount1",
                                "type": "uint256",
                                "value": "9,460,239,844,905,880,991,570"
                            }
                        ],
                        "signature": "collect((uint256,address,uint128,uint128))"
                    },
                    "errorInfo": "",
                    "fromAddress": "0xc36442b4a4522e871399cd717abdd847ab11fe88",
                    "gasUsed": 178199,
                    "id": 1,
                    "methodDecoded": true,
                    "operation": "DELEGATECALL",
                    "output": "0x0000000000000000000000000000000000000000000000000073d1f43374d0af000000000000000000000000000000000000000000000200d73380716b893752",
                    "revert": false,
                    "revertMessage": "",
                    "selector": "0xfc6f7865",
                    "status": true,
                    "value": "0"
                },
                "nodeType": 0
            },
            "10": {
                "event": {
                    "contract": "0xf411903cbc70a74d22900a5de66a2dda66507255",
                    "decodedLog": {
                        "name": "Sent",
                        "params": [
                            {
                                "name": "operator",
                                "type": "address",
                                "value": "0x98409d8ca9629fbe01ab1b914ebf304175e384c8"
                            },
                            {
                                "name": "from",
                                "type": "address",
                                "value": "0x98409d8ca9629fbe01ab1b914ebf304175e384c8"
                            },
                            {
                                "name": "to",
                                "type": "address",
                                "value": "0xc36442b4a4522e871399cd717abdd847ab11fe88"
                            },
                            {
                                "name": "amount",
                                "type": "uint256",
                                "value": "9,460,239,844,905,880,991,570"
                            },
                            {
                                "name": "data",
                                "type": "bytes",
                                "value": "0x"
                            },
                            {
                                "name": "operatorData",
                                "type": "bytes",
                                "value": "0x"
                            }
                        ],
                        "signature": "Sent(address,address,address,uint256,bytes,bytes)"
                    },
                    "id": 10,
                    "logData": "0x000000000000000000000000000000000000000000000200d73380716b8937520000000000000000000000000000000000000000000000000000000000000060000000000000000000000000000000000000000000000000000000000000008000000000000000000000000000000000000000000000000000000000000000000000000000000000000000000000000000000000000000000000000000000000",
                    "logDecoded": true,
                    "operation": "EVENT",
                    "revert": false,
                    "status": true,
                    "topics": [
                        "0x06b541ddaa720db2b10a4d0cdac39b8d360425fc073085fac19bc82614677987",
                        "0x00000000000000000000000098409d8ca9629fbe01ab1b914ebf304175e384c8",
                        "0x00000000000000000000000098409d8ca9629fbe01ab1b914ebf304175e384c8",
                        "0x000000000000000000000000c36442b4a4522e871399cd717abdd847ab11fe88"
                    ]
                },
                "nodeType": 1
            },
            "11": {
                "event": {
                    "contract": "0xf411903cbc70a74d22900a5de66a2dda66507255",
                    "decodedLog": {
                        "name": "Transfer",
                        "params": [
                            {
                                "name": "from",
                                "type": "address",
                                "value": "0x98409d8ca9629fbe01ab1b914ebf304175e384c8"
                            },
                            {
                                "name": "to",
                                "type": "address",
                                "value": "0xc36442b4a4522e871399cd717abdd847ab11fe88"
                            },
                            {
                                "decimalAvailable": true,
                                "name": "value",
                                "type": "uint256",
                                "value": "9,460,239,844,905,880,991,570"
                            }
                        ],
                        "signature": "Transfer(address,address,uint256)"
                    },
                    "id": 11,
                    "logData": "0x000000000000000000000000000000000000000000000200d73380716b893752",
                    "logDecoded": true,
                    "operation": "EVENT",
                    "revert": false,
                    "status": true,
                    "topics": [
                        "0xddf252ad1be2c89b69c2b068fc378daa952ba7f163c4a11628f55a4df523b3ef",
                        "0x00000000000000000000000098409d8ca9629fbe01ab1b914ebf304175e384c8",
                        "0x000000000000000000000000c36442b4a4522e871399cd717abdd847ab11fe88"
                    ]
                },
                "nodeType": 1
            },
            "12": {
                "invocation": {
                    "address": "0x1820a4b7618bde71dce8cdc73aab6c95905fad24",
                    "callData": "0x000000000000000000000000c36442b4a4522e871399cd717abdd847ab11fe88b281fc8c12954d22544db45de3159a39272895b169a852b314f9cc762e44c53b",
                    "decodedMethod": {
                        "callParams": [
                            {
                                "name": "_addr",
                                "type": "address",
                                "value": "0xc36442b4a4522e871399cd717abdd847ab11fe88"
                            },
                            {
                                "name": "_interfaceHash",
                                "type": "bytes32",
                                "value": "0xb281fc8c12954d22544db45de3159a39272895b169a852b314f9cc762e44c53b"
                            }
                        ],
                        "constructorArguments": "",
                        "name": "getInterfaceImplementer",
                        "returnParams": [
                            {
                                "name": "",
                                "type": "address",
                                "value": "0x0000000000000000000000000000000000000000"
                            }
                        ],
                        "signature": "getInterfaceImplementer(address,bytes32)"
                    },
                    "errorInfo": "",
                    "fromAddress": "0xf411903cbc70a74d22900a5de66a2dda66507255",
                    "gasUsed": 2942,
                    "id": 12,
                    "methodDecoded": true,
                    "operation": "STATICCALL",
                    "output": "0x0000000000000000000000000000000000000000000000000000000000000000",
                    "revert": false,
                    "revertMessage": "",
                    "selector": "0xaabbb8ca",
                    "status": true,
                    "value": "0"
                },
                "nodeType": 0
            },
            "13": {
                "event": {
                    "contract": "0x98409d8ca9629fbe01ab1b914ebf304175e384c8",
                    "decodedLog": {
                        "name": "Collect",
                        "params": [
                            {
                                "name": "owner",
                                "type": "address",
                                "value": "0xc36442b4a4522e871399cd717abdd847ab11fe88"
                            },
                            {
                                "name": "tickLower",
                                "type": "int24",
                                "value": "125,880"
                            },
                            {
                                "name": "tickUpper",
                                "type": "int24",
                                "value": "127,740"
                            },
                            {
                                "name": "recipient",
                                "type": "address",
                                "value": "0xc36442b4a4522e871399cd717abdd847ab11fe88"
                            },
                            {
                                "name": "amount0",
                                "type": "uint128",
                                "value": "32,600,469,087,244,463"
                            },
                            {
                                "name": "amount1",
                                "type": "uint128",
                                "value": "9,460,239,844,905,880,991,570"
                            }
                        ],
                        "signature": "Collect(address,address,int24,int24,uint128,uint128)"
                    },
                    "id": 13,
                    "logData": "0x000000000000000000000000c36442b4a4522e871399cd717abdd847ab11fe880000000000000000000000000000000000000000000000000073d1f43374d0af000000000000000000000000000000000000000000000200d73380716b893752",
                    "logDecoded": true,
                    "operation": "EVENT",
                    "revert": false,
                    "status": true,
                    "topics": [
                        "0x70935338e69775456a85ddef226c395fb668b63fa0115f5f20610b388e6ca9c0",
                        "0x000000000000000000000000c36442b4a4522e871399cd717abdd847ab11fe88",
                        "0x000000000000000000000000000000000000000000000000000000000001ebb8",
                        "0x000000000000000000000000000000000000000000000000000000000001f2fc"
                    ]
                },
                "nodeType": 1
            },
            "14": {
                "event": {
                    "contract": "0xc36442b4a4522e871399cd717abdd847ab11fe88",
                    "decodedLog": {
                        "name": "Collect",
                        "params": [
                            {
                                "name": "tokenId",
                                "type": "uint256",
                                "value": "582,806"
                            },
                            {
                                "name": "recipient",
                                "type": "address",
                                "value": "0xc36442b4a4522e871399cd717abdd847ab11fe88"
                            },
                            {
                                "name": "amount0",
                                "type": "uint256",
                                "value": "32,600,469,087,244,463"
                            },
                            {
                                "name": "amount1",
                                "type": "uint256",
                                "value": "9,460,239,844,905,880,991,570"
                            }
                        ],
                        "signature": "Collect(uint256,address,uint256,uint256)"
                    },
                    "id": 14,
                    "logData": "0x000000000000000000000000c36442b4a4522e871399cd717abdd847ab11fe880000000000000000000000000000000000000000000000000073d1f43374d0af000000000000000000000000000000000000000000000200d73380716b893752",
                    "logDecoded": true,
                    "operation": "EVENT",
                    "revert": false,
                    "status": true,
                    "topics": [
                        "0x40d0efd1a53d60ecbf40971b9daf7dc90178c3aadc7aab1765632738fa8b8f01",
                        "0x000000000000000000000000000000000000000000000000000000000008e496"
                    ]
                },
                "nodeType": 1
            },
            "15": {
                "invocation": {
                    "address": "0xc36442b4a4522e871399cd717abdd847ab11fe88",
                    "callData": "0x0000000000000000000000000000000000000000000000000073d1f43374d0af00000000000000000000000008b08d7254909830dde8906bfa05187f58ac8421",
                    "decodedMethod": {
                        "callParams": [
                            {
                                "name": "amountMinimum",
                                "type": "uint256",
                                "value": "32,600,469,087,244,463"
                            },
                            {
                                "name": "recipient",
                                "type": "address",
                                "value": "0x08b08d7254909830dde8906bfa05187f58ac8421"
                            }
                        ],
                        "constructorArguments": "",
                        "name": "unwrapWETH9",
                        "returnParams": [],
                        "signature": "unwrapWETH9(uint256,address)"
                    },
                    "errorInfo": "",
                    "fromAddress": "0xc36442b4a4522e871399cd717abdd847ab11fe88",
                    "gasUsed": 18222,
                    "id": 15,
                    "methodDecoded": true,
                    "operation": "DELEGATECALL",
                    "output": "",
                    "revert": false,
                    "revertMessage": "",
                    "selector": "0x49404b7c",
                    "status": true,
                    "value": "0"
                },
                "nodeType": 0
            },
            "16": {
                "invocation": {
                    "address": "0xc02aaa39b223fe8d0a0e5c4f27ead9083c756cc2",
                    "callData": "0x000000000000000000000000c36442b4a4522e871399cd717abdd847ab11fe88",
                    "decodedMethod": {
                        "callParams": [
                            {
                                "name": "",
                                "type": "address",
                                "value": "0xc36442b4a4522e871399cd717abdd847ab11fe88"
                            }
                        ],
                        "constructorArguments": "",
                        "name": "balanceOf",
                        "returnParams": [
                            {
                                "decimalAvailable": true,
                                "name": "",
                                "type": "uint256",
                                "value": "32,600,469,087,244,463"
                            }
                        ],
                        "signature": "balanceOf(address)"
                    },
                    "errorInfo": "",
                    "fromAddress": "0xc36442b4a4522e871399cd717abdd847ab11fe88",
                    "gasUsed": 534,
                    "id": 16,
                    "methodDecoded": true,
                    "operation": "STATICCALL",
                    "output": "0x0000000000000000000000000000000000000000000000000073d1f43374d0af",
                    "revert": false,
                    "revertMessage": "",
                    "selector": "0x70a08231",
                    "status": true,
                    "value": "0"
                },
                "nodeType": 0
            },
            "17": {
                "invocation": {
                    "address": "0xc02aaa39b223fe8d0a0e5c4f27ead9083c756cc2",
                    "callData": "0x0000000000000000000000000000000000000000000000000073d1f43374d0af",
                    "decodedMethod": {
                        "callParams": [
                            {
                                "name": "wad",
                                "type": "uint256",
                                "value": "32,600,469,087,244,463"
                            }
                        ],
                        "constructorArguments": "",
                        "name": "withdraw",
                        "returnParams": [],
                        "signature": "withdraw(uint256)"
                    },
                    "errorInfo": "",
                    "fromAddress": "0xc36442b4a4522e871399cd717abdd847ab11fe88",
                    "gasUsed": 9235,
                    "id": 17,
                    "methodDecoded": true,
                    "operation": "CALL",
                    "output": "",
                    "revert": false,
                    "revertMessage": "",
                    "selector": "0x2e1a7d4d",
                    "status": true,
                    "value": "0"
                },
                "nodeType": 0
            },
            "18": {
                "invocation": {
                    "address": "0xc36442b4a4522e871399cd717abdd847ab11fe88",
                    "callData": "0x",
                    "decodedMethod": null,
                    "errorInfo": "",
                    "fromAddress": "0xc02aaa39b223fe8d0a0e5c4f27ead9083c756cc2",
                    "gasUsed": 95,
                    "id": 18,
                    "methodDecoded": false,
                    "operation": "CALL",
                    "output": "",
                    "revert": false,
                    "revertMessage": "",
                    "selector": "fallback",
                    "status": true,
                    "value": "0.032600469087244463"
                },
                "nodeType": 0
            },
            "19": {
                "event": {
                    "contract": "0xc02aaa39b223fe8d0a0e5c4f27ead9083c756cc2",
                    "decodedLog": {
                        "name": "Withdrawal",
                        "params": [
                            {
                                "name": "src",
                                "type": "address",
                                "value": "0xc36442b4a4522e871399cd717abdd847ab11fe88"
                            },
                            {
                                "name": "wad",
                                "type": "uint256",
                                "value": "32,600,469,087,244,463"
                            }
                        ],
                        "signature": "Withdrawal(address,uint256)"
                    },
                    "id": 19,
                    "logData": "0x0000000000000000000000000000000000000000000000000073d1f43374d0af",
                    "logDecoded": true,
                    "operation": "EVENT",
                    "revert": false,
                    "status": true,
                    "topics": [
                        "0x7fcf532c15f0a6db0bd6d0e038bea71d30d808c7d98cb3bf7268a95bf5081b65",
                        "0x000000000000000000000000c36442b4a4522e871399cd717abdd847ab11fe88"
                    ]
                },
                "nodeType": 1
            },
            "2": {
                "invocation": {
                    "address": "0x98409d8ca9629fbe01ab1b914ebf304175e384c8",
                    "callData": "0x000000000000000000000000000000000000000000000000000000000001ebb8000000000000000000000000000000000000000000000000000000000001f2fc0000000000000000000000000000000000000000000000000000000000000000",
                    "decodedMethod": {
                        "callParams": [
                            {
                                "name": "tickLower",
                                "type": "int24",
                                "value": "125,880"
                            },
                            {
                                "name": "tickUpper",
                                "type": "int24",
                                "value": "127,740"
                            },
                            {
                                "name": "amount",
                                "type": "uint128",
                                "value": "0"
                            }
                        ],
                        "constructorArguments": "",
                        "name": "burn",
                        "returnParams": [
                            {
                                "name": "amount0",
                                "type": "uint256",
                                "value": "0"
                            },
                            {
                                "name": "amount1",
                                "type": "uint256",
                                "value": "0"
                            }
                        ],
                        "signature": "burn(int24,int24,uint128)"
                    },
                    "errorInfo": "",
                    "fromAddress": "0xc36442b4a4522e871399cd717abdd847ab11fe88",
                    "gasUsed": 41664,
                    "id": 2,
                    "methodDecoded": true,
                    "operation": "CALL",
                    "output": "0x00000000000000000000000000000000000000000000000000000000000000000000000000000000000000000000000000000000000000000000000000000000",
                    "revert": false,
                    "revertMessage": "",
                    "selector": "0xa34123a7",
                    "status": true,
                    "value": "0"
                },
                "nodeType": 0
            },
            "20": {
                "invocation": {
                    "address": "0x08b08d7254909830dde8906bfa05187f58ac8421",
                    "callData": "0x",
                    "decodedMethod": null,
                    "errorInfo": "",
                    "fromAddress": "0xc36442b4a4522e871399cd717abdd847ab11fe88",
                    "gasUsed": 0,
                    "id": 20,
                    "methodDecoded": false,
                    "operation": "CALL",
                    "output": "",
                    "revert": false,
                    "revertMessage": "",
                    "selector": "fallback",
                    "status": true,
                    "value": "0.032600469087244463"
                },
                "nodeType": 0
            },
            "21": {
                "invocation": {
                    "address": "0xc36442b4a4522e871399cd717abdd847ab11fe88",
                    "callData": "0x000000000000000000000000f411903cbc70a74d22900a5de66a2dda66507255000000000000000000000000000000000000000000000200d73380716b89375200000000000000000000000008b08d7254909830dde8906bfa05187f58ac8421",
                    "decodedMethod": {
                        "callParams": [
                            {
                                "name": "token",
                                "type": "address",
                                "value": "0xf411903cbc70a74d22900a5de66a2dda66507255"
                            },
                            {
                                "name": "amountMinimum",
                                "type": "uint256",
                                "value": "9,460,239,844,905,880,991,570"
                            },
                            {
                                "name": "recipient",
                                "type": "address",
                                "value": "0x08b08d7254909830dde8906bfa05187f58ac8421"
                            }
                        ],
                        "constructorArguments": "",
                        "name": "sweepToken",
                        "returnParams": [],
                        "signature": "sweepToken(address,uint256,address)"
                    },
                    "errorInfo": "",
                    "fromAddress": "0xc36442b4a4522e871399cd717abdd847ab11fe88",
                    "gasUsed": 24755,
                    "id": 21,
                    "methodDecoded": true,
                    "operation": "DELEGATECALL",
                    "output": "",
                    "revert": false,
                    "revertMessage": "",
                    "selector": "0xdf2ab5bb",
                    "status": true,
                    "value": "0"
                },
                "nodeType": 0
            },
            "22": {
                "invocation": {
                    "address": "0xf411903cbc70a74d22900a5de66a2dda66507255",
                    "callData": "0x000000000000000000000000c36442b4a4522e871399cd717abdd847ab11fe88",
                    "decodedMethod": {
                        "callParams": [
                            {
                                "name": "tokenHolder",
                                "type": "address",
                                "value": "0xc36442b4a4522e871399cd717abdd847ab11fe88"
                            }
                        ],
                        "constructorArguments": "",
                        "name": "balanceOf",
                        "returnParams": [
                            {
                                "decimalAvailable": true,
                                "name": "",
                                "type": "uint256",
                                "value": "9,460,239,844,905,880,991,570"
                            }
                        ],
                        "signature": "balanceOf(address)"
                    },
                    "errorInfo": "",
                    "fromAddress": "0xc36442b4a4522e871399cd717abdd847ab11fe88",
                    "gasUsed": 563,
                    "id": 22,
                    "methodDecoded": true,
                    "operation": "STATICCALL",
                    "output": "0x000000000000000000000000000000000000000000000200d73380716b893752",
                    "revert": false,
                    "revertMessage": "",
                    "selector": "0x70a08231",
                    "status": true,
                    "value": "0"
                },
                "nodeType": 0
            },
            "23": {
                "invocation": {
                    "address": "0xf411903cbc70a74d22900a5de66a2dda66507255",
                    "callData": "0x00000000000000000000000008b08d7254909830dde8906bfa05187f58ac8421000000000000000000000000000000000000000000000200d73380716b893752",
                    "decodedMethod": {
                        "callParams": [
                            {
                                "name": "recipient",
                                "type": "address",
                                "value": "0x08b08d7254909830dde8906bfa05187f58ac8421"
                            },
                            {
                                "decimalAvailable": true,
                                "name": "amount",
                                "type": "uint256",
                                "value": "9,460,239,844,905,880,991,570"
                            }
                        ],
                        "constructorArguments": "",
                        "name": "transfer",
                        "returnParams": [
                            {
                                "name": "",
                                "type": "bool",
                                "value": true
                            }
                        ],
                        "signature": "transfer(address,uint256)"
                    },
                    "errorInfo": "",
                    "fromAddress": "0xc36442b4a4522e871399cd717abdd847ab11fe88",
                    "gasUsed": 22244,
                    "id": 23,
                    "methodDecoded": true,
                    "operation": "CALL",
                    "output": "0x0000000000000000000000000000000000000000000000000000000000000001",
                    "revert": false,
                    "revertMessage": "",
                    "selector": "0xa9059cbb",
                    "status": true,
                    "value": "0"
                },
                "nodeType": 0
            },
            "24": {
                "invocation": {
                    "address": "0x1820a4b7618bde71dce8cdc73aab6c95905fad24",
                    "callData": "0x000000000000000000000000c36442b4a4522e871399cd717abdd847ab11fe8829ddb589b1fb5fc7cf394961c1adf5f8c6454761adf795e67fe149f658abe895",
                    "decodedMethod": {
                        "callParams": [
                            {
                                "name": "_addr",
                                "type": "address",
                                "value": "0xc36442b4a4522e871399cd717abdd847ab11fe88"
                            },
                            {
                                "name": "_interfaceHash",
                                "type": "bytes32",
                                "value": "0x29ddb589b1fb5fc7cf394961c1adf5f8c6454761adf795e67fe149f658abe895"
                            }
                        ],
                        "constructorArguments": "",
                        "name": "getInterfaceImplementer",
                        "returnParams": [
                            {
                                "name": "",
                                "type": "address",
                                "value": "0x0000000000000000000000000000000000000000"
                            }
                        ],
                        "signature": "getInterfaceImplementer(address,bytes32)"
                    },
                    "errorInfo": "",
                    "fromAddress": "0xf411903cbc70a74d22900a5de66a2dda66507255",
                    "gasUsed": 2942,
                    "id": 24,
                    "methodDecoded": true,
                    "operation": "STATICCALL",
                    "output": "0x0000000000000000000000000000000000000000000000000000000000000000",
                    "revert": false,
                    "revertMessage": "",
                    "selector": "0xaabbb8ca",
                    "status": true,
                    "value": "0"
                },
                "nodeType": 0
            },
            "25": {
                "event": {
                    "contract": "0xf411903cbc70a74d22900a5de66a2dda66507255",
                    "decodedLog": {
                        "name": "Sent",
                        "params": [
                            {
                                "name": "operator",
                                "type": "address",
                                "value": "0xc36442b4a4522e871399cd717abdd847ab11fe88"
                            },
                            {
                                "name": "from",
                                "type": "address",
                                "value": "0xc36442b4a4522e871399cd717abdd847ab11fe88"
                            },
                            {
                                "name": "to",
                                "type": "address",
                                "value": "0x08b08d7254909830dde8906bfa05187f58ac8421"
                            },
                            {
                                "name": "amount",
                                "type": "uint256",
                                "value": "9,460,239,844,905,880,991,570"
                            },
                            {
                                "name": "data",
                                "type": "bytes",
                                "value": "0x"
                            },
                            {
                                "name": "operatorData",
                                "type": "bytes",
                                "value": "0x"
                            }
                        ],
                        "signature": "Sent(address,address,address,uint256,bytes,bytes)"
                    },
                    "id": 25,
                    "logData": "0x000000000000000000000000000000000000000000000200d73380716b8937520000000000000000000000000000000000000000000000000000000000000060000000000000000000000000000000000000000000000000000000000000008000000000000000000000000000000000000000000000000000000000000000000000000000000000000000000000000000000000000000000000000000000000",
                    "logDecoded": true,
                    "operation": "EVENT",
                    "revert": false,
                    "status": true,
                    "topics": [
                        "0x06b541ddaa720db2b10a4d0cdac39b8d360425fc073085fac19bc82614677987",
                        "0x000000000000000000000000c36442b4a4522e871399cd717abdd847ab11fe88",
                        "0x000000000000000000000000c36442b4a4522e871399cd717abdd847ab11fe88",
                        "0x00000000000000000000000008b08d7254909830dde8906bfa05187f58ac8421"
                    ]
                },
                "nodeType": 1
            },
            "26": {
                "event": {
                    "contract": "0xf411903cbc70a74d22900a5de66a2dda66507255",
                    "decodedLog": {
                        "name": "Transfer",
                        "params": [
                            {
                                "name": "from",
                                "type": "address",
                                "value": "0xc36442b4a4522e871399cd717abdd847ab11fe88"
                            },
                            {
                                "name": "to",
                                "type": "address",
                                "value": "0x08b08d7254909830dde8906bfa05187f58ac8421"
                            },
                            {
                                "decimalAvailable": true,
                                "name": "value",
                                "type": "uint256",
                                "value": "9,460,239,844,905,880,991,570"
                            }
                        ],
                        "signature": "Transfer(address,address,uint256)"
                    },
                    "id": 26,
                    "logData": "0x000000000000000000000000000000000000000000000200d73380716b893752",
                    "logDecoded": true,
                    "operation": "EVENT",
                    "revert": false,
                    "status": true,
                    "topics": [
                        "0xddf252ad1be2c89b69c2b068fc378daa952ba7f163c4a11628f55a4df523b3ef",
                        "0x000000000000000000000000c36442b4a4522e871399cd717abdd847ab11fe88",
                        "0x00000000000000000000000008b08d7254909830dde8906bfa05187f58ac8421"
                    ]
                },
                "nodeType": 1
            },
            "27": {
                "invocation": {
                    "address": "0x1820a4b7618bde71dce8cdc73aab6c95905fad24",
                    "callData": "0x00000000000000000000000008b08d7254909830dde8906bfa05187f58ac8421b281fc8c12954d22544db45de3159a39272895b169a852b314f9cc762e44c53b",
                    "decodedMethod": {
                        "callParams": [
                            {
                                "name": "_addr",
                                "type": "address",
                                "value": "0x08b08d7254909830dde8906bfa05187f58ac8421"
                            },
                            {
                                "name": "_interfaceHash",
                                "type": "bytes32",
                                "value": "0xb281fc8c12954d22544db45de3159a39272895b169a852b314f9cc762e44c53b"
                            }
                        ],
                        "constructorArguments": "",
                        "name": "getInterfaceImplementer",
                        "returnParams": [
                            {
                                "name": "",
                                "type": "address",
                                "value": "0x0000000000000000000000000000000000000000"
                            }
                        ],
                        "signature": "getInterfaceImplementer(address,bytes32)"
                    },
                    "errorInfo": "",
                    "fromAddress": "0xf411903cbc70a74d22900a5de66a2dda66507255",
                    "gasUsed": 2942,
                    "id": 27,
                    "methodDecoded": true,
                    "operation": "STATICCALL",
                    "output": "0x0000000000000000000000000000000000000000000000000000000000000000",
                    "revert": false,
                    "revertMessage": "",
                    "selector": "0xaabbb8ca",
                    "status": true,
                    "value": "0"
                },
                "nodeType": 0
            },
            "3": {
                "event": {
                    "contract": "0x98409d8ca9629fbe01ab1b914ebf304175e384c8",
                    "decodedLog": {
                        "name": "Burn",
                        "params": [
                            {
                                "name": "owner",
                                "type": "address",
                                "value": "0xc36442b4a4522e871399cd717abdd847ab11fe88"
                            },
                            {
                                "name": "tickLower",
                                "type": "int24",
                                "value": "125,880"
                            },
                            {
                                "name": "tickUpper",
                                "type": "int24",
                                "value": "127,740"
                            },
                            {
                                "name": "amount",
                                "type": "uint128",
                                "value": "0"
                            },
                            {
                                "name": "amount0",
                                "type": "uint256",
                                "value": "0"
                            },
                            {
                                "name": "amount1",
                                "type": "uint256",
                                "value": "0"
                            }
                        ],
                        "signature": "Burn(address,int24,int24,uint128,uint256,uint256)"
                    },
                    "id": 3,
                    "logData": "0x000000000000000000000000000000000000000000000000000000000000000000000000000000000000000000000000000000000000000000000000000000000000000000000000000000000000000000000000000000000000000000000000",
                    "logDecoded": true,
                    "operation": "EVENT",
                    "revert": false,
                    "status": true,
                    "topics": [
                        "0x0c396cd989a39f4459b5fa1aed6a9a8dcdbc45908acfd67e028cd568da98982c",
                        "0x000000000000000000000000c36442b4a4522e871399cd717abdd847ab11fe88",
                        "0x000000000000000000000000000000000000000000000000000000000001ebb8",
                        "0x000000000000000000000000000000000000000000000000000000000001f2fc"
                    ]
                },
                "nodeType": 1
            },
            "4": {
                "invocation": {
                    "address": "0x98409d8ca9629fbe01ab1b914ebf304175e384c8",
                    "callData": "0x53684c78ca6cf3eb2064c17c063ae6705d7c5008c38dfe1c13e06a6a18737060",
                    "decodedMethod": {
                        "callParams": [
                            {
                                "name": "",
                                "type": "bytes32",
                                "value": "0x53684c78ca6cf3eb2064c17c063ae6705d7c5008c38dfe1c13e06a6a18737060"
                            }
                        ],
                        "constructorArguments": "",
                        "name": "positions",
                        "returnParams": [
                            {
                                "name": "liquidity",
                                "type": "uint128",
                                "value": "43,615,359,472,381,911,011,696"
                            },
                            {
                                "name": "feeGrowthInside0LastX128",
                                "type": "uint256",
                                "value": "827,201,603,589,939,008,748,619,648,208,699"
                            },
                            {
                                "name": "feeGrowthInside1LastX128",
                                "type": "uint256",
                                "value": "263,612,486,259,510,955,391,020,781,457,915,868,406"
                            },
                            {
                                "name": "tokensOwed0",
                                "type": "uint128",
                                "value": "32,600,469,087,244,463"
                            },
                            {
                                "name": "tokensOwed1",
                                "type": "uint128",
                                "value": "9,460,239,844,905,880,991,570"
                            }
                        ],
                        "signature": "positions(bytes32)"
                    },
                    "errorInfo": "",
                    "fromAddress": "0xc36442b4a4522e871399cd717abdd847ab11fe88",
                    "gasUsed": 1013,
                    "id": 4,
                    "methodDecoded": true,
                    "operation": "STATICCALL",
                    "output": "0x00000000000000000000000000000000000000000000093c64b4340d947a917000000000000000000000000000000000000028c8c08929913ef0015413540f3b00000000000000000000000000000000c651eb089ca0dcfd92b3d93d579974f60000000000000000000000000000000000000000000000000073d1f43374d0af000000000000000000000000000000000000000000000200d73380716b893752",
                    "revert": false,
                    "revertMessage": "",
                    "selector": "0x514ea4bf",
                    "status": true,
                    "value": "0"
                },
                "nodeType": 0
            },
            "5": {
                "invocation": {
                    "address": "0x98409d8ca9629fbe01ab1b914ebf304175e384c8",
                    "callData": "0x000000000000000000000000c36442b4a4522e871399cd717abdd847ab11fe88000000000000000000000000000000000000000000000000000000000001ebb8000000000000000000000000000000000000000000000000000000000001f2fc0000000000000000000000000000000000000000000000000073d1f43374d0af000000000000000000000000000000000000000000000200d73380716b893752",
                    "decodedMethod": {
                        "callParams": [
                            {
                                "name": "recipient",
                                "type": "address",
                                "value": "0xc36442b4a4522e871399cd717abdd847ab11fe88"
                            },
                            {
                                "name": "tickLower",
                                "type": "int24",
                                "value": "125,880"
                            },
                            {
                                "name": "tickUpper",
                                "type": "int24",
                                "value": "127,740"
                            },
                            {
                                "name": "amount0Requested",
                                "type": "uint128",
                                "value": "32,600,469,087,244,463"
                            },
                            {
                                "name": "amount1Requested",
                                "type": "uint128",
                                "value": "9,460,239,844,905,880,991,570"
                            }
                        ],
                        "constructorArguments": "",
                        "name": "collect",
                        "returnParams": [
                            {
                                "name": "amount0",
                                "type": "uint128",
                                "value": "32,600,469,087,244,463"
                            },
                            {
                                "name": "amount1",
                                "type": "uint128",
                                "value": "9,460,239,844,905,880,991,570"
                            }
                        ],
                        "signature": "collect(address,int24,int24,uint128,uint128)"
                    },
                    "errorInfo": "",
                    "fromAddress": "0xc36442b4a4522e871399cd717abdd847ab11fe88",
                    "gasUsed": 95731,
                    "id": 5,
                    "methodDecoded": true,
                    "operation": "CALL",
                    "output": "0x0000000000000000000000000000000000000000000000000073d1f43374d0af000000000000000000000000000000000000000000000200d73380716b893752",
                    "revert": false,
                    "revertMessage": "",
                    "selector": "0x4f1eb3d8",
                    "status": true,
                    "value": "0"
                },
                "nodeType": 0
            },
            "6": {
                "invocation": {
                    "address": "0xc02aaa39b223fe8d0a0e5c4f27ead9083c756cc2",
                    "callData": "0x000000000000000000000000c36442b4a4522e871399cd717abdd847ab11fe880000000000000000000000000000000000000000000000000073d1f43374d0af",
                    "decodedMethod": {
                        "callParams": [
                            {
                                "name": "dst",
                                "type": "address",
                                "value": "0xc36442b4a4522e871399cd717abdd847ab11fe88"
                            },
                            {
                                "decimalAvailable": true,
                                "name": "wad",
                                "type": "uint256",
                                "value": "32,600,469,087,244,463"
                            }
                        ],
                        "constructorArguments": "",
                        "name": "transfer",
                        "returnParams": [
                            {
                                "name": "",
                                "type": "bool",
                                "value": true
                            }
                        ],
                        "signature": "transfer(address,uint256)"
                    },
                    "errorInfo": "",
                    "fromAddress": "0x98409d8ca9629fbe01ab1b914ebf304175e384c8",
                    "gasUsed": 29962,
                    "id": 6,
                    "methodDecoded": true,
                    "operation": "CALL",
                    "output": "0x0000000000000000000000000000000000000000000000000000000000000001",
                    "revert": false,
                    "revertMessage": "",
                    "selector": "0xa9059cbb",
                    "status": true,
                    "value": "0"
                },
                "nodeType": 0
            },
            "7": {
                "event": {
                    "contract": "0xc02aaa39b223fe8d0a0e5c4f27ead9083c756cc2",
                    "decodedLog": {
                        "name": "Transfer",
                        "params": [
                            {
                                "name": "src",
                                "type": "address",
                                "value": "0x98409d8ca9629fbe01ab1b914ebf304175e384c8"
                            },
                            {
                                "name": "dst",
                                "type": "address",
                                "value": "0xc36442b4a4522e871399cd717abdd847ab11fe88"
                            },
                            {
                                "decimalAvailable": true,
                                "name": "wad",
                                "type": "uint256",
                                "value": "32,600,469,087,244,463"
                            }
                        ],
                        "signature": "Transfer(address,address,uint256)"
                    },
                    "id": 7,
                    "logData": "0x0000000000000000000000000000000000000000000000000073d1f43374d0af",
                    "logDecoded": true,
                    "operation": "EVENT",
                    "revert": false,
                    "status": true,
                    "topics": [
                        "0xddf252ad1be2c89b69c2b068fc378daa952ba7f163c4a11628f55a4df523b3ef",
                        "0x00000000000000000000000098409d8ca9629fbe01ab1b914ebf304175e384c8",
                        "0x000000000000000000000000c36442b4a4522e871399cd717abdd847ab11fe88"
                    ]
                },
                "nodeType": 1
            },
            "8": {
                "invocation": {
                    "address": "0xf411903cbc70a74d22900a5de66a2dda66507255",
                    "callData": "0x000000000000000000000000c36442b4a4522e871399cd717abdd847ab11fe88000000000000000000000000000000000000000000000200d73380716b893752",
                    "decodedMethod": {
                        "callParams": [
                            {
                                "name": "recipient",
                                "type": "address",
                                "value": "0xc36442b4a4522e871399cd717abdd847ab11fe88"
                            },
                            {
                                "decimalAvailable": true,
                                "name": "amount",
                                "type": "uint256",
                                "value": "9,460,239,844,905,880,991,570"
                            }
                        ],
                        "constructorArguments": "",
                        "name": "transfer",
                        "returnParams": [
                            {
                                "name": "",
                                "type": "bool",
                                "value": true
                            }
                        ],
                        "signature": "transfer(address,uint256)"
                    },
                    "errorInfo": "",
                    "fromAddress": "0x98409d8ca9629fbe01ab1b914ebf304175e384c8",
                    "gasUsed": 50644,
                    "id": 8,
                    "methodDecoded": true,
                    "operation": "CALL",
                    "output": "0x0000000000000000000000000000000000000000000000000000000000000001",
                    "revert": false,
                    "revertMessage": "",
                    "selector": "0xa9059cbb",
                    "status": true,
                    "value": "0"
                },
                "nodeType": 0
            },
            "9": {
                "invocation": {
                    "address": "0x1820a4b7618bde71dce8cdc73aab6c95905fad24",
                    "callData": "0x00000000000000000000000098409d8ca9629fbe01ab1b914ebf304175e384c829ddb589b1fb5fc7cf394961c1adf5f8c6454761adf795e67fe149f658abe895",
                    "decodedMethod": {
                        "callParams": [
                            {
                                "name": "_addr",
                                "type": "address",
                                "value": "0x98409d8ca9629fbe01ab1b914ebf304175e384c8"
                            },
                            {
                                "name": "_interfaceHash",
                                "type": "bytes32",
                                "value": "0x29ddb589b1fb5fc7cf394961c1adf5f8c6454761adf795e67fe149f658abe895"
                            }
                        ],
                        "constructorArguments": "",
                        "name": "getInterfaceImplementer",
                        "returnParams": [
                            {
                                "name": "",
                                "type": "address",
                                "value": "0x0000000000000000000000000000000000000000"
                            }
                        ],
                        "signature": "getInterfaceImplementer(address,bytes32)"
                    },
                    "errorInfo": "",
                    "fromAddress": "0xf411903cbc70a74d22900a5de66a2dda66507255",
                    "gasUsed": 2942,
                    "id": 9,
                    "methodDecoded": true,
                    "operation": "STATICCALL",
                    "output": "0x0000000000000000000000000000000000000000000000000000000000000000",
                    "revert": false,
                    "revertMessage": "",
                    "selector": "0xaabbb8ca",
                    "status": true,
                    "value": "0"
                },
                "nodeType": 0
            }
        },
        "gasFlame": [
            {
                "children": [
                    {
                        "children": [
                            {
                                "children": [],
                                "depth": 0,
                                "name": "Initial Gas",
                                "value": 25220
                            },
                            {
                                "children": [
                                    {
                                        "children": [
                                            {
                                                "children": [],
                                                "depth": 2,
                                                "name": "burn",
                                                "value": 41664
                                            },
                                            {
                                                "children": [],
                                                "depth": 2,
                                                "name": "positions",
                                                "value": 1013
                                            },
                                            {
                                                "children": [
                                                    {
                                                        "children": [],
                                                        "depth": 3,
                                                        "name": "transfer",
                                                        "value": 29962
                                                    },
                                                    {
                                                        "children": [
                                                            {
                                                                "children": [],
                                                                "depth": 4,
                                                                "name": "getInterfaceImplementer",
                                                                "value": 2942
                                                            },
                                                            {
                                                                "children": [],
                                                                "depth": 4,
                                                                "name": "getInterfaceImplementer",
                                                                "value": 2942
                                                            }
                                                        ],
                                                        "depth": 3,
                                                        "name": "transfer",
                                                        "value": 50644
                                                    }
                                                ],
                                                "depth": 2,
                                                "name": "collect",
                                                "value": 95731
                                            }
                                        ],
                                        "depth": 1,
                                        "name": "collect",
                                        "value": 178199
                                    },
                                    {
                                        "children": [
                                            {
                                                "children": [],
                                                "depth": 2,
                                                "name": "balanceOf",
                                                "value": 534
                                            },
                                            {
                                                "children": [
                                                    {
                                                        "children": [],
                                                        "depth": 3,
                                                        "name": "fallback",
                                                        "value": 95
                                                    }
                                                ],
                                                "depth": 2,
                                                "name": "withdraw",
                                                "value": 9235
                                            },
                                            {
                                                "children": [],
                                                "depth": 2,
                                                "name": "fallback",
                                                "value": 0
                                            }
                                        ],
                                        "depth": 1,
                                        "name": "unwrapWETH9",
                                        "value": 18222
                                    },
                                    {
                                        "children": [
                                            {
                                                "children": [],
                                                "depth": 2,
                                                "name": "balanceOf",
                                                "value": 563
                                            },
                                            {
                                                "children": [
                                                    {
                                                        "children": [],
                                                        "depth": 3,
                                                        "name": "getInterfaceImplementer",
                                                        "value": 2942
                                                    },
                                                    {
                                                        "children": [],
                                                        "depth": 3,
                                                        "name": "getInterfaceImplementer",
                                                        "value": 2942
                                                    }
                                                ],
                                                "depth": 2,
                                                "name": "transfer",
                                                "value": 22244
                                            }
                                        ],
                                        "depth": 1,
                                        "name": "sweepToken",
                                        "value": 24755
                                    }
                                ],
                                "depth": 0,
                                "name": "Executed Gas",
                                "value": 225209
                            }
                        ],
                        "depth": -1,
                        "name": "Actual Gas Used",
                        "value": 200344
                    },
                    {
                        "children": [],
                        "depth": -1,
                        "name": "Refunded Gas",
                        "value": 50085
                    }
                ],
                "depth": -2,
                "name": "Total Gas",
                "value": 250429
            }
        ],
        "isConfirmed": true,
        "mainTrace": [
            {
                "children": [
                    {
                        "children": [
                            {
                                "children": [
                                    {
                                        "children": [
                                            {
                                                "children": [],
                                                "depth": 3,
                                                "id": 3,
                                                "order": 3
                                            }
                                        ],
                                        "depth": 2,
                                        "id": 2,
                                        "order": 2
                                    },
                                    {
                                        "children": [],
                                        "depth": 2,
                                        "id": 4,
                                        "order": 4
                                    },
                                    {
                                        "children": [
                                            {
                                                "children": [
                                                    {
                                                        "children": [],
                                                        "depth": 4,
                                                        "id": 7,
                                                        "order": 7
                                                    }
                                                ],
                                                "depth": 3,
                                                "id": 6,
                                                "order": 6
                                            },
                                            {
                                                "children": [
                                                    {
                                                        "children": [],
                                                        "depth": 4,
                                                        "id": 9,
                                                        "order": 9
                                                    },
                                                    {
                                                        "children": [],
                                                        "depth": 4,
                                                        "id": 10,
                                                        "order": 10
                                                    },
                                                    {
                                                        "children": [],
                                                        "depth": 4,
                                                        "id": 11,
                                                        "order": 11
                                                    },
                                                    {
                                                        "children": [],
                                                        "depth": 4,
                                                        "id": 12,
                                                        "order": 12
                                                    }
                                                ],
                                                "depth": 3,
                                                "id": 8,
                                                "order": 8
                                            },
                                            {
                                                "children": [],
                                                "depth": 3,
                                                "id": 13,
                                                "order": 13
                                            }
                                        ],
                                        "depth": 2,
                                        "id": 5,
                                        "order": 5
                                    },
                                    {
                                        "children": [],
                                        "depth": 2,
                                        "id": 14,
                                        "order": 14
                                    }
                                ],
                                "depth": 1,
                                "id": 1,
                                "order": 1
                            },
                            {
                                "children": [
                                    {
                                        "children": [],
                                        "depth": 2,
                                        "id": 16,
                                        "order": 16
                                    },
                                    {
                                        "children": [
                                            {
                                                "children": [],
                                                "depth": 3,
                                                "id": 18,
                                                "order": 18
                                            },
                                            {
                                                "children": [],
                                                "depth": 3,
                                                "id": 19,
                                                "order": 19
                                            }
                                        ],
                                        "depth": 2,
                                        "id": 17,
                                        "order": 17
                                    },
                                    {
                                        "children": [],
                                        "depth": 2,
                                        "id": 20,
                                        "order": 20
                                    }
                                ],
                                "depth": 1,
                                "id": 15,
                                "order": 15
                            },
                            {
                                "children": [
                                    {
                                        "children": [],
                                        "depth": 2,
                                        "id": 22,
                                        "order": 22
                                    },
                                    {
                                        "children": [
                                            {
                                                "children": [],
                                                "depth": 3,
                                                "id": 24,
                                                "order": 24
                                            },
                                            {
                                                "children": [],
                                                "depth": 3,
                                                "id": 25,
                                                "order": 25
                                            },
                                            {
                                                "children": [],
                                                "depth": 3,
                                                "id": 26,
                                                "order": 26
                                            },
                                            {
                                                "children": [],
                                                "depth": 3,
                                                "id": 27,
                                                "order": 27
                                            }
                                        ],
                                        "depth": 2,
                                        "id": 23,
                                        "order": 23
                                    }
                                ],
                                "depth": 1,
                                "id": 21,
                                "order": 21
                            }
                        ],
                        "depth": 0,
                        "id": 0,
                        "order": 0
                    }
                ],
                "depth": -1,
                "id": -1,
                "order": -1
            }
        ],
        "mainTraceNodeCount": 28,
        "parentIdMap": {
            "0": -1,
            "1": 0,
            "10": 8,
            "11": 8,
            "12": 8,
            "13": 5,
            "14": 1,
            "15": 0,
            "16": 15,
            "17": 15,
            "18": 17,
            "19": 17,
            "2": 1,
            "20": 15,
            "21": 0,
            "22": 21,
            "23": 21,
            "24": 23,
            "25": 23,
            "26": 23,
            "27": 23,
            "3": 2,
            "4": 1,
            "5": 1,
            "6": 5,
            "7": 6,
            "8": 5,
            "9": 8
        },
        "tidyTrace": [
            {
                "children": [
                    {
                        "children": [
                            {
                                "children": [
                                    {
                                        "children": [
                                            {
                                                "children": [],
                                                "depth": 3,
                                                "id": 3,
                                                "order": 3
                                            }
                                        ],
                                        "depth": 2,
                                        "id": 2,
                                        "order": 2
                                    },
                                    {
                                        "children": [
                                            {
                                                "children": [
                                                    {
                                                        "children": [],
                                                        "depth": 4,
                                                        "id": 7,
                                                        "order": 7
                                                    }
                                                ],
                                                "depth": 3,
                                                "id": 6,
                                                "order": 6
                                            },
                                            {
                                                "children": [
                                                    {
                                                        "children": [],
                                                        "depth": 4,
                                                        "id": 10,
                                                        "order": 10
                                                    },
                                                    {
                                                        "children": [],
                                                        "depth": 4,
                                                        "id": 11,
                                                        "order": 11
                                                    }
                                                ],
                                                "depth": 3,
                                                "id": 8,
                                                "order": 8
                                            },
                                            {
                                                "children": [],
                                                "depth": 3,
                                                "id": 13,
                                                "order": 13
                                            }
                                        ],
                                        "depth": 2,
                                        "id": 5,
                                        "order": 5
                                    },
                                    {
                                        "children": [],
                                        "depth": 2,
                                        "id": 14,
                                        "order": 14
                                    }
                                ],
                                "depth": 1,
                                "id": 1,
                                "order": 1
                            },
                            {
                                "children": [
                                    {
                                        "children": [
                                            {
                                                "children": [],
                                                "depth": 3,
                                                "id": 18,
                                                "order": 18
                                            },
                                            {
                                                "children": [],
                                                "depth": 3,
                                                "id": 19,
                                                "order": 19
                                            }
                                        ],
                                        "depth": 2,
                                        "id": 17,
                                        "order": 17
                                    },
                                    {
                                        "children": [],
                                        "depth": 2,
                                        "id": 20,
                                        "order": 20
                                    }
                                ],
                                "depth": 1,
                                "id": 15,
                                "order": 15
                            },
                            {
                                "children": [
                                    {
                                        "children": [
                                            {
                                                "children": [],
                                                "depth": 3,
                                                "id": 25,
                                                "order": 25
                                            },
                                            {
                                                "children": [],
                                                "depth": 3,
                                                "id": 26,
                                                "order": 26
                                            }
                                        ],
                                        "depth": 2,
                                        "id": 23,
                                        "order": 23
                                    }
                                ],
                                "depth": 1,
                                "id": 21,
                                "order": 21
                            }
                        ],
                        "depth": 0,
                        "id": 0,
                        "order": 0
                    }
                ],
                "depth": -1,
                "id": -1,
                "order": -1
            }
        ],
        "tidyTraceNodeCount": 21
    },
    "state_change": {
        "stateChanges": [
            {
                "address": "0x98409d8ca9629fbe01ab1b914ebf304175e384c8",
                "erc": "",
                "slots": [
                    {
                        "current": "0x00000000000000000000000000000000000028c8c08929913ef0015413540f3b",
                        "key": "0xf3e4564a3e40af69ed4c6351e2e6c6d1d26aa2315a99b9b3faa5f5492c620dc2",
                        "prev": "0x0000000000000000000000000000000000001c449bf1b88ae80c9979f05b3a84"
                    },
                    {
                        "current": "0x00000000000000000000000000000000c651eb089ca0dcfd92b3d93d579974f6",
                        "key": "0xf3e4564a3e40af69ed4c6351e2e6c6d1d26aa2315a99b9b3faa5f5492c620dc3",
                        "prev": "0x000000000000000000000000000000008ecb0e94ef0cc4b9a3e545e95abf8366"
                    },
                    {
                        "current": "0x0000000000000000000000000000000000000000000000000000000000000000",
                        "key": "0xf3e4564a3e40af69ed4c6351e2e6c6d1d26aa2315a99b9b3faa5f5492c620dc4",
                        "prev": "0x000000000000000000000000000000000000000000000000000038c5df3cb61c"
                    }
                ],
                "storageVariables": []
            },
            {
                "address": "0xc02aaa39b223fe8d0a0e5c4f27ead9083c756cc2",
                "erc": "ERC-20",
                "slots": [
                    {
                        "current": "0x00000000000000000000000000000000000000000000000483084045ca2ae2b2",
                        "key": "0xeebb11a591205b8e53438c8d9bcec8f277729f6b5e9737951a4374871e9c35f9",
                        "prev": "0x000000000000000000000000000000000000000000000004837c1239fd9fb361"
                    }
                ],
                "storageVariables": [
                    {
                        "name": "balanceOf",
                        "type": "mapping(address => uint256)",
                        "value": {
                            "pairs": [
                                {
                                    "key": "0x98409d8ca9629fbe01ab1b914ebf304175e384c8",
                                    "value": {
                                        "current": "83228843582109180594",
                                        "prev": "83261444051196425057",
                                        "typeTag": 1
                                    }
                                }
                            ],
                            "typeTag": 4
                        }
                    }
                ]
            },
            {
                "address": "0xc36442b4a4522e871399cd717abdd847ab11fe88",
                "erc": "ERC-721",
                "slots": [
                    {
                        "current": "0x00000000000000000000000000000000000028c8c08929913ef0015413540f3b",
                        "key": "0x9056d40f453e90643243f8f2ba5068b83bd89b41f1c0d8ac12b75732d90fca07",
                        "prev": "0x0000000000000000000000000000000000001c449bf1b88ae80c9979f05b3a84"
                    },
                    {
                        "current": "0x00000000000000000000000000000000c651eb089ca0dcfd92b3d93d579974f6",
                        "key": "0x9056d40f453e90643243f8f2ba5068b83bd89b41f1c0d8ac12b75732d90fca08",
                        "prev": "0x000000000000000000000000000000008ecb0e94ef0cc4b9a3e545e95abf8366"
                    },
                    {
                        "current": "0x0000000000000000000000000000000000000000000000000000000000000000",
                        "key": "0x9056d40f453e90643243f8f2ba5068b83bd89b41f1c0d8ac12b75732d90fca09",
                        "prev": "0x000000000000000000000000000000000000000000000000000038c5df3cb61c"
                    }
                ],
                "storageVariables": [
                    {
                        "name": "_positions",
                        "type": "mapping(uint256 => struct NonfungiblePositionManager.Position)",
                        "value": {
                            "pairs": [
                                {
                                    "key": "582806",
                                    "value": {
                                        "fields": [
                                            {
                                                "name": "feeGrowthInside0LastX128",
                                                "type": "uint256",
                                                "value": {
                                                    "current": "827201603589939008748619648208699",
                                                    "prev": "573343246352339386876619629738628",
                                                    "typeTag": 1
                                                }
                                            },
                                            {
                                                "name": "feeGrowthInside1LastX128",
                                                "type": "uint256",
                                                "value": {
                                                    "current": "263612486259510955391020781457915868406",
                                                    "prev": "189804707417225480660865257949112533862",
                                                    "typeTag": 1
                                                }
                                            },
                                            {
                                                "name": "tokensOwed0",
                                                "type": "uint128",
                                                "value": {
                                                    "current": "0",
                                                    "prev": "62422505010716",
                                                    "typeTag": 1
                                                }
                                            },
                                            {
                                                "name": "tokensOwed1",
                                                "type": "uint128",
                                                "value": {
                                                    "current": "0",
                                                    "prev": "0",
                                                    "typeTag": 1
                                                }
                                            }
                                        ],
                                        "typeTag": 3
                                    }
                                }
                            ],
                            "typeTag": 4
                        }
                    }
                ]
            },
            {
                "address": "0xf411903cbc70a74d22900a5de66a2dda66507255",
                "erc": "ERC-20",
                "slots": [
                    {
                        "current": "0x0000000000000000000000000000000000000000000fc37d806dc7892cb2e6a0",
                        "key": "0x2fed23e47f6347d9c85bca68790373adf0b880a7d860dcf2cc38311bb20aa414",
                        "prev": "0x0000000000000000000000000000000000000000000fc57e57a147fa983c1df2"
                    },
                    {
                        "current": "0x00000000000000000000000000000000000000000000020575748546ad16483b",
                        "key": "0x4f022b1de6e4c70f045f081ee407c49eb9fce3e5480dacfde2aaa4d99a6f1aff",
                        "prev": "0x0000000000000000000000000000000000000000000000049e4104d5418d10e9"
                    }
                ],
                "storageVariables": [
                    {
                        "name": "_balances",
                        "type": "mapping(address => uint256)",
                        "value": {
                            "pairs": [
                                {
                                    "key": "0x08b08d7254909830dde8906bfa05187f58ac8421",
                                    "value": {
                                        "current": "9545430222246172313659",
                                        "prev": "85190377340291322089",
                                        "typeTag": 1
                                    }
                                },
                                {
                                    "key": "0x98409d8ca9629fbe01ab1b914ebf304175e384c8",
                                    "value": {
                                        "current": "19057063855660433421821600",
                                        "prev": "19066524095505339302813170",
                                        "typeTag": 1
                                    }
                                }
                            ],
                            "typeTag": 4
                        }
                    }
                ]
            }
        ]
    }
}