{
    "balance_change": {
        "balanceChanges": [
            {
                "account": "0x51c72848c68a965f66fa7a88855f9f7784502a7f",
                "assets": [
                    {
                        "address": "0xeeeeeeeeeeeeeeeeeeeeeeeeeeeeeeeeeeeeeeee",
                        "amount": "0.006550459320439354",
                        "iconUrl": "https://assets.blocksec.com/image/1663669189317-3.png",
                        "isERC1155": false,
                        "isERC721": false,
                        "sign": false,
                        "value": "20.320819181401631777"
                    },
                    {
                        "address": "0x6982508145454ce325ddbe47a25d4ec3d2311933",
                        "amount": "2,245,979,873.861574300369158145",
                        "iconUrl": "https://assets.blocksec.com/icon/99f1a626358e559d9a9d6dc4254c663e595a9ebcd362efa2d4cd902a8d75ea2c.png",
                        "isERC1155": false,
                        "isERC721": false,
                        "sign": false,
                        "value": ""
                    },
                    {
                        "address": "0xc02aaa39b223fe8d0a0e5c4f27ead9083c756cc2",
                        "amount": "6.29226704028214272",
                        "iconUrl": "https://assets.blocksec.com/icon/f1cb2d02c471d545bbc7722daf3277fd852d98e63d118771af7047bd8256c516.png",
                        "isERC1155": false,
                        "isERC721": false,
                        "sign": true,
                        "value": "19519.855710047103786"
                    }
                ]
            },
            {
                "account": "0x1f9090aae28b8a3dceadf281b0f12828e676c326",
                "assets": [
                    {
                        "address": "0xeeeeeeeeeeeeeeeeeeeeeeeeeeeeeeeeeeeeeeee",
                        "amount": "0.006550459320439354",
                        "iconUrl": "https://assets.blocksec.com/image/1663669189317-3.png",
                        "isERC1155": false,
                        "isERC721": false,
                        "sign": true,
                        "value": "20.320819181401631777"
                    }
                ]
            },
            {
                "account": "0xa43fe16908251ee70ef74718545e4fe6c5ccec9f",
                "assets": [
                    {
                        "address": "0x6982508145454ce325ddbe47a25d4ec3d2311933",
                        "amount": "2,245,979,873.861574300369158145",
                        "iconUrl": "https://assets.blocksec.com/icon/99f1a626358e559d9a9d6dc4254c663e595a9ebcd362efa2d4cd902a8d75ea2c.png",
                        "isERC1155": false,
                        "isERC721": false,
                        "sign": true,
                        "value": ""
                    },
                    {
                        "address": "0xc02aaa39b223fe8d0a0e5c4f27ead9083c756cc2",
                        "amount": "6.29226704028214272",
                        "iconUrl": "https://assets.blocksec.com/icon/f1cb2d02c471d545bbc7722daf3277fd852d98e63d118771af7047bd8256c516.png",
                        "isERC1155": false,
                        "isERC721": false,
                        "sign": false,
                        "value": "19519.855710047103786"
                    }
                ]
            }
        ]
    },
    "profile": {
        "basic_info": {
            "baseFee": "3.101741445",
            "blockNumber": 20292408,
            "callData": "0x30a28ffc0000000000000000000000000000000000000000000000000017459ba8e9123a000000000000000000000000a43fe16908251ee70ef74718545e4fe6c5ccec9f0000000000000000000000006982508145454ce325ddbe47a25d4ec3d231193300000000000000000000000000000000000000000741d4bcee12a38000000000000000000000000000000000000000000000000000000000000000000000000000000000000000000000000000000000000000000000000057529f8907ea68000000000000000000000000000000000000000000000000000000000066917ec3",
            "debugEnable": true,
            "errorInfo": "",
            "eventCount": 4,
            "feeRecipient": "0x1f9090aae28b8a3dceadf281b0f12828e676c326",
            "formatValue": "0",
            "gasLimit": 315384,
            "gasPrice": "3.101741445",
            "gasUsed": 114098,
            "intTxnCount": 6,
            "internalRevert": false,
            "internalRevertMessage": "",
            "isContractCreation": false,
            "isFlashloan": false,
            "maxFee": "3.102051619",
            "nonce": 7302,
            "overwritedBlockNumber": -1,
            "priorityFee": "0",
            "receiver": "0x51c72848c68a965f66fa7a88855f9f7784502a7f",
            "revertMessage": "",
            "sender": "0x5eb81de97e7c97dde69250e9a5c57331f0d189ed",
            "simulationEnable": true,
            "sourceTxnHash": "0x81aa85606d8e2e0d135bab16dc37d38a68f833917bb34ba3a2b8de2f9133dad8",
            "status": true,
            "timestamp": "2024-07-12T19:06:35Z",
            "transactionFee": "0.00035390249539161",
            "txnHash": "0x81aa85606d8e2e0d135bab16dc37d38a68f833917bb34ba3a2b8de2f9133dad8",
            "txnIndex": 1,
            "type": 2,
            "value": "0"
        },
        "fund_flow": [
            {
                "amount": "2,245,979,873.861574300369158145",
                "from": "0x51c72848c68a965f66fa7a88855f9f7784502a7f",
                "id": 1,
                "isERC1155": false,
                "isERC721": false,
                "isReverted": false,
                "order": 1,
                "to": "0xa43fe16908251ee70ef74718545e4fe6c5ccec9f",
                "token": "0x6982508145454ce325ddbe47a25d4ec3d2311933"
            },
            {
                "amount": "6.29226704028214272",
                "from": "0xa43fe16908251ee70ef74718545e4fe6c5ccec9f",
                "id": 2,
                "isERC1155": false,
                "isERC721": false,
                "isReverted": false,
                "order": 2,
                "to": "0x51c72848c68a965f66fa7a88855f9f7784502a7f",
                "token": "0xc02aaa39b223fe8d0a0e5c4f27ead9083c756cc2"
            },
            {
                "amount": "0.006550459320439354",
                "from": "0x51c72848c68a965f66fa7a88855f9f7784502a7f",
                "id": 3,
                "isERC1155": false,
                "isERC721": false,
                "isReverted": false,
                "order": 3,
                "to": "0x1f9090aae28b8a3dceadf281b0f12828e676c326",
                "token": "0xeeeeeeeeeeeeeeeeeeeeeeeeeeeeeeeeeeeeeeee"
            }
        ],
        "token_infos": [
            {
                "address": "0xc02aaa39b223fe8d0a0e5c4f27ead9083c756cc2",
                "decimals": 18
            },
            {
                "address": "0xeeeeeeeeeeeeeeeeeeeeeeeeeeeeeeeeeeeeeeee",
                "decimals": 18
            },
            {
                "address": "0x6982508145454ce325ddbe47a25d4ec3d2311933",
                "decimals": 18
            }
        ]
    },
    "address_label": {
        "labels": [
            {
                "address": "0x0000000000000000000000000000000000000004",
                "label": "Precompiled"
            },
            {
                "address": "0xeeeeeeeeeeeeeeeeeeeeeeeeeeeeeeeeeeeeeeee",
                "label": "Ether"
            },
            {
                "address": "0xc02aaa39b223fe8d0a0e5c4f27ead9083c756cc2",
                "label": "Wrapped Ether (WETH)"
            },
            {
                "address": "0x51c72848c68a965f66fa7a88855f9f7784502a7f",
                "label": "MEV Bot: 0x51C\u2026a7F"
            },
            {
                "address": "0x6982508145454ce325ddbe47a25d4ec3d2311933",
                "label": "Pepe: PEPE Token"
            },
            {
                "address": "0x0000000000000000000000000000000000000001",
                "label": "Precompiled"
            },
            {
                "address": "0x0000000000000000000000000000000000000003",
                "label": "Precompiled"
            },
            {
                "address": "0x1f9090aae28b8a3dceadf281b0f12828e676c326",
                "label": "rsync-builder"
            },
            {
                "address": "0xa43fe16908251ee70ef74718545e4fe6c5ccec9f",
                "label": "Uniswap V2 (UNI-V2)"
            },
            {
                "address": "0x0000000000000000000000000000000000000002",
                "label": "Precompiled"
            }
        ]
    },
    "trace": {
        "accountLabels": null,
        "dataMap": {
            "-1": {
                "invocation": {
                    "address": "0x5eb81de97e7c97dde69250e9a5c57331f0d189ed",
                    "callData": "",
                    "decodedMethod": null,
                    "errorInfo": "",
                    "fromAddress": "",
                    "gasUsed": 0,
                    "id": -1,
                    "methodDecoded": false,
                    "operation": "",
                    "output": "",
                    "revert": false,
                    "revertMessage": "",
                    "selector": "",
                    "status": false,
                    "value": ""
                },
                "nodeType": 0
            },
            "0": {
                "invocation": {
                    "address": "0x51c72848c68a965f66fa7a88855f9f7784502a7f",
                    "callData": "0x0000000000000000000000000000000000000000000000000017459ba8e9123a000000000000000000000000a43fe16908251ee70ef74718545e4fe6c5ccec9f0000000000000000000000006982508145454ce325ddbe47a25d4ec3d231193300000000000000000000000000000000000000000741d4bcee12a38000000000000000000000000000000000000000000000000000000000000000000000000000000000000000000000000000000000000000000000000057529f8907ea68000000000000000000000000000000000000000000000000000000000066917ec3",
                    "decodedMethod": null,
                    "errorInfo": "",
                    "fromAddress": "0x5eb81de97e7c97dde69250e9a5c57331f0d189ed",
                    "gasUsed": 114098,
                    "id": 0,
                    "methodDecoded": false,
                    "operation": "CALL",
                    "output": "",
                    "revert": false,
                    "revertMessage": "",
                    "selector": "0x30a28ffc",
                    "status": true,
                    "value": "0"
                },
                "nodeType": 0
            },
            "1": {
                "invocation": {
                    "address": "0x6982508145454ce325ddbe47a25d4ec3d2311933",
                    "callData": "0x000000000000000000000000a43fe16908251ee70ef74718545e4fe6c5ccec9f00000000000000000000000000000000000000000741d4bcee12a38000000000",
                    "decodedMethod": {
                        "callParams": [
                            {
                                "name": "recipient",
                                "type": "address",
                                "value": "0xa43fe16908251ee70ef74718545e4fe6c5ccec9f"
                            },
                            {
                                "decimalAvailable": true,
                                "name": "amount",
                                "type": "uint256",
                                "value": "2,245,979,873,861,574,300,369,158,144"
                            }
                        ],
                        "constructorArguments": "",
                        "name": "transfer",
                        "returnParams": [
                            {
                                "name": "",
                                "type": "bool",
                                "value": true
                            }
                        ],
                        "signature": "transfer(address,uint256)"
                    },
                    "errorInfo": "",
                    "fromAddress": "0x51c72848c68a965f66fa7a88855f9f7784502a7f",
                    "gasUsed": 21706,
                    "id": 1,
                    "methodDecoded": true,
                    "operation": "CALL",
                    "output": "0x0000000000000000000000000000000000000000000000000000000000000001",
                    "revert": false,
                    "revertMessage": "",
                    "selector": "0xa9059cbb",
                    "status": true,
                    "value": "0"
                },
                "nodeType": 0
            },
            "10": {
                "invocation": {
                    "address": "0x1f9090aae28b8a3dceadf281b0f12828e676c326",
                    "callData": "0x",
                    "decodedMethod": null,
                    "errorInfo": "",
                    "fromAddress": "0x51c72848c68a965f66fa7a88855f9f7784502a7f",
                    "gasUsed": 0,
                    "id": 10,
                    "methodDecoded": false,
                    "operation": "CALL",
                    "output": "",
                    "revert": false,
                    "revertMessage": "",
                    "selector": "fallback",
                    "status": true,
                    "value": "0.006550459320439354"
                },
                "nodeType": 0
            },
            "2": {
                "event": {
                    "contract": "0x6982508145454ce325ddbe47a25d4ec3d2311933",
                    "decodedLog": {
                        "name": "Transfer",
                        "params": [
                            {
                                "name": "from",
                                "type": "address",
                                "value": "0x51c72848c68a965f66fa7a88855f9f7784502a7f"
                            },
                            {
                                "name": "to",
                                "type": "address",
                                "value": "0xa43fe16908251ee70ef74718545e4fe6c5ccec9f"
                            },
                            {
                                "decimalAvailable": true,
                                "name": "value",
                                "type": "uint256",
                                "value": "2,245,979,873,861,574,300,369,158,144"
                            }
                        ],
                        "signature": "Transfer(address,address,uint256)"
                    },
                    "id": 2,
                    "logData": "0x00000000000000000000000000000000000000000741d4bcee12a38000000000",
                    "logDecoded": true,
                    "operation": "EVENT",
                    "revert": false,
                    "status": true,
                    "topics": [
                        "0xddf252ad1be2c89b69c2b068fc378daa952ba7f163c4a11628f55a4df523b3ef",
                        "0x00000000000000000000000051c72848c68a965f66fa7a88855f9f7784502a7f",
                        "0x000000000000000000000000a43fe16908251ee70ef74718545e4fe6c5ccec9f"
                    ]
                },
                "nodeType": 1
            },
            "3": {
                "invocation": {
                    "address": "0xa43fe16908251ee70ef74718545e4fe6c5ccec9f",
                    "callData": "0x000000000000000000000000000000000000000000000000000000000000000000000000000000000000000000000000000000000000000057529f8907ea680000000000000000000000000051c72848c68a965f66fa7a88855f9f7784502a7f00000000000000000000000000000000000000000000000000000000000000800000000000000000000000000000000000000000000000000000000000000000",
                    "decodedMethod": {
                        "callParams": [
                            {
                                "name": "amount0Out",
                                "type": "uint256",
                                "value": "0"
                            },
                            {
                                "name": "amount1Out",
                                "type": "uint256",
                                "value": "6,292,267,040,282,142,720"
                            },
                            {
                                "name": "to",
                                "type": "address",
                                "value": "0x51c72848c68a965f66fa7a88855f9f7784502a7f"
                            },
                            {
                                "name": "data",
                                "type": "bytes",
                                "value": "0x"
                            }
                        ],
                        "constructorArguments": "",
                        "name": "swap",
                        "returnParams": [],
                        "signature": "swap(uint256,uint256,address,bytes)"
                    },
                    "errorInfo": "",
                    "fromAddress": "0x51c72848c68a965f66fa7a88855f9f7784502a7f",
                    "gasUsed": 49843,
                    "id": 3,
                    "methodDecoded": true,
                    "operation": "CALL",
                    "output": "",
                    "revert": false,
                    "revertMessage": "",
                    "selector": "0x022c0d9f",
                    "status": true,
                    "value": "0"
                },
                "nodeType": 0
            },
            "4": {
                "invocation": {
                    "address": "0xc02aaa39b223fe8d0a0e5c4f27ead9083c756cc2",
                    "callData": "0x00000000000000000000000051c72848c68a965f66fa7a88855f9f7784502a7f00000000000000000000000000000000000000000000000057529f8907ea6800",
                    "decodedMethod": {
                        "callParams": [
                            {
                                "name": "dst",
                                "type": "address",
                                "value": "0x51c72848c68a965f66fa7a88855f9f7784502a7f"
                            },
                            {
                                "decimalAvailable": true,
                                "name": "wad",
                                "type": "uint256",
                                "value": "6,292,267,040,282,142,720"
                            }
                        ],
                        "constructorArguments": "",
                        "name": "transfer",
                        "returnParams": [
                            {
                                "name": "",
                                "type": "bool",
                                "value": true
                            }
                        ],
                        "signature": "transfer(address,uint256)"
                    },
                    "errorInfo": "",
                    "fromAddress": "0xa43fe16908251ee70ef74718545e4fe6c5ccec9f",
                    "gasUsed": 12862,
                    "id": 4,
                    "methodDecoded": true,
                    "operation": "CALL",
                    "output": "0x0000000000000000000000000000000000000000000000000000000000000001",
                    "revert": false,
                    "revertMessage": "",
                    "selector": "0xa9059cbb",
                    "status": true,
                    "value": "0"
                },
                "nodeType": 0
            },
            "5": {
                "event": {
                    "contract": "0xc02aaa39b223fe8d0a0e5c4f27ead9083c756cc2",
                    "decodedLog": {
                        "name": "Transfer",
                        "params": [
                            {
                                "name": "src",
                                "type": "address",
                                "value": "0xa43fe16908251ee70ef74718545e4fe6c5ccec9f"
                            },
                            {
                                "name": "dst",
                                "type": "address",
                                "value": "0x51c72848c68a965f66fa7a88855f9f7784502a7f"
                            },
                            {
                                "decimalAvailable": true,
                                "name": "wad",
                                "type": "uint256",
                                "value": "6,292,267,040,282,142,720"
                            }
                        ],
                        "signature": "Transfer(address,address,uint256)"
                    },
                    "id": 5,
                    "logData": "0x00000000000000000000000000000000000000000000000057529f8907ea6800",
                    "logDecoded": true,
                    "operation": "EVENT",
                    "revert": false,
                    "status": true,
                    "topics": [
                        "0xddf252ad1be2c89b69c2b068fc378daa952ba7f163c4a11628f55a4df523b3ef",
                        "0x000000000000000000000000a43fe16908251ee70ef74718545e4fe6c5ccec9f",
                        "0x00000000000000000000000051c72848c68a965f66fa7a88855f9f7784502a7f"
                    ]
                },
                "nodeType": 1
            },
            "6": {
                "invocation": {
                    "address": "0x6982508145454ce325ddbe47a25d4ec3d2311933",
                    "callData": "0x000000000000000000000000a43fe16908251ee70ef74718545e4fe6c5ccec9f",
                    "decodedMethod": {
                        "callParams": [
                            {
                                "name": "account",
                                "type": "address",
                                "value": "0xa43fe16908251ee70ef74718545e4fe6c5ccec9f"
                            }
                        ],
                        "constructorArguments": "",
                        "name": "balanceOf",
                        "returnParams": [
                            {
                                "decimalAvailable": true,
                                "name": "",
                                "type": "uint256",
                                "value": "2,344,312,875,324,307,970,366,271,186,323"
                            }
                        ],
                        "signature": "balanceOf(address)"
                    },
                    "errorInfo": "",
                    "fromAddress": "0xa43fe16908251ee70ef74718545e4fe6c5ccec9f",
                    "gasUsed": 624,
                    "id": 6,
                    "methodDecoded": true,
                    "operation": "STATICCALL",
                    "output": "0x000000000000000000000000000000000000001d96e229049e223f62da60e593",
                    "revert": false,
                    "revertMessage": "",
                    "selector": "0x70a08231",
                    "status": true,
                    "value": "0"
                },
                "nodeType": 0
            },
            "7": {
                "invocation": {
                    "address": "0xc02aaa39b223fe8d0a0e5c4f27ead9083c756cc2",
                    "callData": "0x000000000000000000000000a43fe16908251ee70ef74718545e4fe6c5ccec9f",
                    "decodedMethod": {
                        "callParams": [
                            {
                                "name": "",
                                "type": "address",
                                "value": "0xa43fe16908251ee70ef74718545e4fe6c5ccec9f"
                            }
                        ],
                        "constructorArguments": "",
                        "name": "balanceOf",
                        "returnParams": [
                            {
                                "decimalAvailable": true,
                                "name": "",
                                "type": "uint256",
                                "value": "6,581,238,033,412,854,584,780"
                            }
                        ],
                        "signature": "balanceOf(address)"
                    },
                    "errorInfo": "",
                    "fromAddress": "0xa43fe16908251ee70ef74718545e4fe6c5ccec9f",
                    "gasUsed": 534,
                    "id": 7,
                    "methodDecoded": true,
                    "operation": "STATICCALL",
                    "output": "0x000000000000000000000000000000000000000000000164c506627ed79315cc",
                    "revert": false,
                    "revertMessage": "",
                    "selector": "0x70a08231",
                    "status": true,
                    "value": "0"
                },
                "nodeType": 0
            },
            "8": {
                "event": {
                    "contract": "0xa43fe16908251ee70ef74718545e4fe6c5ccec9f",
                    "decodedLog": {
                        "name": "Sync",
                        "params": [
                            {
                                "name": "reserve0",
                                "type": "uint112",
                                "value": "2,344,312,875,324,307,970,366,271,186,323"
                            },
                            {
                                "name": "reserve1",
                                "type": "uint112",
                                "value": "6,581,238,033,412,854,584,780"
                            }
                        ],
                        "signature": "Sync(uint112,uint112)"
                    },
                    "id": 8,
                    "logData": "0x000000000000000000000000000000000000001d96e229049e223f62da60e593000000000000000000000000000000000000000000000164c506627ed79315cc",
                    "logDecoded": true,
                    "operation": "EVENT",
                    "revert": false,
                    "status": true,
                    "topics": [
                        "0x1c411e9a96e071241c2f21f7726b17ae89e3cab4c78be50e062b03a9fffbbad1"
                    ]
                },
                "nodeType": 1
            },
            "9": {
                "event": {
                    "contract": "0xa43fe16908251ee70ef74718545e4fe6c5ccec9f",
                    "decodedLog": {
                        "name": "Swap",
                        "params": [
                            {
                                "name": "sender",
                                "type": "address",
                                "value": "0x51c72848c68a965f66fa7a88855f9f7784502a7f"
                            },
                            {
                                "name": "to",
                                "type": "address",
                                "value": "0x51c72848c68a965f66fa7a88855f9f7784502a7f"
                            },
                            {
                                "name": "amount0In",
                                "type": "uint256",
                                "value": "2,245,979,873,861,574,300,369,158,144"
                            },
                            {
                                "name": "amount1In",
                                "type": "uint256",
                                "value": "0"
                            },
                            {
                                "name": "amount0Out",
                                "type": "uint256",
                                "value": "0"
                            },
                            {
                                "name": "amount1Out",
                                "type": "uint256",
                                "value": "6,292,267,040,282,142,720"
                            }
                        ],
                        "signature": "Swap(address,uint256,uint256,uint256,uint256,address)"
                    },
                    "id": 9,
                    "logData": "0x00000000000000000000000000000000000000000741d4bcee12a380000000000000000000000000000000000000000000000000000000000000000000000000000000000000000000000000000000000000000000000000000000000000000000000000000000000000000000000000000000000000000057529f8907ea6800",
                    "logDecoded": true,
                    "operation": "EVENT",
                    "revert": false,
                    "status": true,
                    "topics": [
                        "0xd78ad95fa46c994b6551d0da85fc275fe613ce37657fb8d5e3d130840159d822",
                        "0x00000000000000000000000051c72848c68a965f66fa7a88855f9f7784502a7f",
                        "0x00000000000000000000000051c72848c68a965f66fa7a88855f9f7784502a7f"
                    ]
                },
                "nodeType": 1
            }
        },
        "gasFlame": [
            {
                "children": [
                    {
                        "children": [
                            {
                                "children": [],
                                "depth": 0,
                                "name": "Initial Gas",
                                "value": 22752
                            },
                            {
                                "children": [
                                    {
                                        "children": [],
                                        "depth": 1,
                                        "name": "transfer",
                                        "value": 21706
                                    },
                                    {
                                        "children": [
                                            {
                                                "children": [],
                                                "depth": 2,
                                                "name": "transfer",
                                                "value": 12862
                                            },
                                            {
                                                "children": [],
                                                "depth": 2,
                                                "name": "balanceOf",
                                                "value": 624
                                            },
                                            {
                                                "children": [],
                                                "depth": 2,
                                                "name": "balanceOf",
                                                "value": 534
                                            }
                                        ],
                                        "depth": 1,
                                        "name": "swap",
                                        "value": 49843
                                    },
                                    {
                                        "children": [],
                                        "depth": 1,
                                        "name": "fallback",
                                        "value": 0
                                    }
                                ],
                                "depth": 0,
                                "name": "Executed Gas",
                                "value": 94146
                            }
                        ],
                        "depth": -1,
                        "name": "Actual Gas Used",
                        "value": 114098
                    },
                    {
                        "children": [],
                        "depth": -1,
                        "name": "Refunded Gas",
                        "value": 2800
                    }
                ],
                "depth": -2,
                "name": "Total Gas",
                "value": 116898
            }
        ],
        "isConfirmed": true,
        "mainTrace": [
            {
                "children": [
                    {
                        "children": [
                            {
                                "children": [
                                    {
                                        "children": [],
                                        "depth": 2,
                                        "id": 2,
                                        "order": 2
                                    }
                                ],
                                "depth": 1,
                                "id": 1,
                                "order": 1
                            },
                            {
                                "children": [
                                    {
                                        "children": [
                                            {
                                                "children": [],
                                                "depth": 3,
                                                "id": 5,
                                                "order": 5
                                            }
                                        ],
                                        "depth": 2,
                                        "id": 4,
                                        "order": 4
                                    },
                                    {
                                        "children": [],
                                        "depth": 2,
                                        "id": 6,
                                        "order": 6
                                    },
                                    {
                                        "children": [],
                                        "depth": 2,
                                        "id": 7,
                                        "order": 7
                                    },
                                    {
                                        "children": [],
                                        "depth": 2,
                                        "id": 8,
                                        "order": 8
                                    },
                                    {
                                        "children": [],
                                        "depth": 2,
                                        "id": 9,
                                        "order": 9
                                    }
                                ],
                                "depth": 1,
                                "id": 3,
                                "order": 3
                            },
                            {
                                "children": [],
                                "depth": 1,
                                "id": 10,
                                "order": 10
                            }
                        ],
                        "depth": 0,
                        "id": 0,
                        "order": 0
                    }
                ],
                "depth": -1,
                "id": -1,
                "order": -1
            }
        ],
        "mainTraceNodeCount": 11,
        "parentIdMap": {
            "0": -1,
            "1": 0,
            "10": 0,
            "2": 1,
            "3": 0,
            "4": 3,
            "5": 4,
            "6": 3,
            "7": 3,
            "8": 3,
            "9": 3
        },
        "tidyTrace": [
            {
                "children": [
                    {
                        "children": [
                            {
                                "children": [
                                    {
                                        "children": [],
                                        "depth": 2,
                                        "id": 2,
                                        "order": 2
                                    }
                                ],
                                "depth": 1,
                                "id": 1,
                                "order": 1
                            },
                            {
                                "children": [
                                    {
                                        "children": [
                                            {
                                                "children": [],
                                                "depth": 3,
                                                "id": 5,
                                                "order": 5
                                            }
                                        ],
                                        "depth": 2,
                                        "id": 4,
                                        "order": 4
                                    },
                                    {
                                        "children": [],
                                        "depth": 2,
                                        "id": 8,
                                        "order": 8
                                    },
                                    {
                                        "children": [],
                                        "depth": 2,
                                        "id": 9,
                                        "order": 9
                                    }
                                ],
                                "depth": 1,
                                "id": 3,
                                "order": 3
                            },
                            {
                                "children": [],
                                "depth": 1,
                                "id": 10,
                                "order": 10
                            }
                        ],
                        "depth": 0,
                        "id": 0,
                        "order": 0
                    }
                ],
                "depth": -1,
                "id": -1,
                "order": -1
            }
        ],
        "tidyTraceNodeCount": 9
    },
    "state_change": {
        "stateChanges": [
            {
                "address": "0x6982508145454ce325ddbe47a25d4ec3d2311933",
                "erc": "ERC-20",
                "slots": [
                    {
                        "current": "0x0000000000000000000000000000000000000000707808847b445e513df5b10d",
                        "key": "0xfe7d135c098a010479fffbc652c63e864b8bcbaa36ed22e405acad3d04612a8b",
                        "prev": "0x000000000000000000000000000000000000000077b9dd41695701d13df5b10d"
                    },
                    {
                        "current": "0x000000000000000000000000000000000000001d96e229049e223f62da60e593",
                        "key": "0x037199b0744c1ed84f0f7ae52d5760694aa3b29cff7b52bc1088ada5714d2980",
                        "prev": "0x000000000000000000000000000000000000001d8fa05447b00f9be2da60e593"
                    }
                ],
                "storageVariables": [
                    {
                        "name": "_balances",
                        "type": "mapping(address => uint256)",
                        "value": {
                            "pairs": [
                                {
                                    "key": "0x51c72848c68a965f66fa7a88855f9f7784502a7f",
                                    "value": {
                                        "current": "34807432421128811953069076749",
                                        "prev": "37053412294990386253438234893",
                                        "typeTag": 1
                                    }
                                },
                                {
                                    "key": "0xa43fe16908251ee70ef74718545e4fe6c5ccec9f",
                                    "value": {
                                        "current": "2344312875324307970366271186323",
                                        "prev": "2342066895450446396065902028179",
                                        "typeTag": 1
                                    }
                                }
                            ],
                            "typeTag": 4
                        }
                    }
                ]
            },
            {
                "address": "0xa43fe16908251ee70ef74718545e4fe6c5ccec9f",
                "erc": "ERC-20",
                "slots": [
                    {
                        "current": "0x66917ebb000000000164c506627ed79315cc001d96e229049e223f62da60e593",
                        "key": "0x0000000000000000000000000000000000000000000000000000000000000008",
                        "prev": "0x66917ea30000000001651c590207df7d7dcc001d8fa05447b00f9be2da60e593"
                    },
                    {
                        "current": "0x0000000000000000000000000000000000000c46b6168f2c970c19316716bb94",
                        "key": "0x0000000000000000000000000000000000000000000000000000000000000009",
                        "prev": "0x0000000000000000000000000000000000000c46b4f4a0e034bf3c3fe0336f44"
                    },
                    {
                        "current": "0x000000000000000000002484feb2303a244a375e369685e6dc8e29e998addcbc",
                        "key": "0x000000000000000000000000000000000000000000000000000000000000000a",
                        "prev": "0x000000000000000000002484feb033a30acd2df0c406e4fd6ae822ab6183bf34"
                    }
                ],
                "storageVariables": [
                    {
                        "name": "price1CumulativeLast",
                        "type": "uint256",
                        "value": {
                            "current": "13663571363158889412624839156241038239797892749319356",
                            "prev": "13663571318854431641957357200948534962588273290231604",
                            "typeTag": 1
                        }
                    },
                    {
                        "name": "reserve0",
                        "type": "uint112",
                        "value": {
                            "current": "2344312875324307970366271186323",
                            "prev": "2342066895450446396065902028179",
                            "typeTag": 1
                        }
                    },
                    {
                        "name": "reserve1",
                        "type": "uint112",
                        "value": {
                            "current": "6581238033412854584780",
                            "prev": "6587530300453136727500",
                            "typeTag": 1
                        }
                    },
                    {
                        "name": "blockTimestampLast",
                        "type": "uint32",
                        "value": {
                            "current": "1720811195",
                            "prev": "1720811171",
                            "typeTag": 1
                        }
                    },
                    {
                        "name": "price0CumulativeLast",
                        "type": "uint256",
                        "value": {
                            "current": "248991240164095012934966752754580",
                            "prev": "248990889659200885555313920667460",
                            "typeTag": 1
                        }
                    }
                ]
            },
            {
                "address": "0xc02aaa39b223fe8d0a0e5c4f27ead9083c756cc2",
                "erc": "ERC-20",
                "slots": [
                    {
                        "current": "0x000000000000000000000000000000000000000000000164c506627ed79315cc",
                        "key": "0x68e65bda2915772569224994d285f0b459d64f53fd952966225bf9b4df32f338",
                        "prev": "0x0000000000000000000000000000000000000000000001651c590207df7d7dcc"
                    },
                    {
                        "current": "0x0000000000000000000000000000000000000000000000550018fefa7f244858",
                        "key": "0x3a3aec5717af62dfc0f5ede964a3e44cef7c5ba4453963ee6e3545ea9708690f",
                        "prev": "0x000000000000000000000000000000000000000000000054a8c65f717739e058"
                    }
                ],
                "storageVariables": [
                    {
                        "name": "balanceOf",
                        "type": "mapping(address => uint256)",
                        "value": {
                            "pairs": [
                                {
                                    "key": "0x51c72848c68a965f66fa7a88855f9f7784502a7f",
                                    "value": {
                                        "current": "1567980282016581306456",
                                        "prev": "1561688014976299163736",
                                        "typeTag": 1
                                    }
                                },
                                {
                                    "key": "0xa43fe16908251ee70ef74718545e4fe6c5ccec9f",
                                    "value": {
                                        "current": "6581238033412854584780",
                                        "prev": "6587530300453136727500",
                                        "typeTag": 1
                                    }
                                }
                            ],
                            "typeTag": 4
                        }
                    }
                ]
            }
        ]
    }
}