{
    "balance_change": {
        "balanceChanges": [
            {
                "account": "0xd65e0cbd31977b2e0e23c8330c8b5f020818fc91",
                "assets": [
                    {
                        "address": "0xdac17f958d2ee523a2206206994597c13d831ec7",
                        "amount": "173.059541",
                        "iconUrl": "https://assets.blocksec.com/icon/fcea71f3193ce895be44bfdf941f7e4c9381dd587f273c2d1a27f1263d84e4ea.png",
                        "isERC1155": false,
                        "isERC721": false,
                        "sign": false,
                        "value": "173.2326005"
                    }
                ]
            },
            {
                "account": "0x65114e9826b49717835be36b2dcda7da15821c99",
                "assets": [
                    {
                        "address": "0xdac17f958d2ee523a2206206994597c13d831ec7",
                        "amount": "173.059541",
                        "iconUrl": "https://assets.blocksec.com/icon/fcea71f3193ce895be44bfdf941f7e4c9381dd587f273c2d1a27f1263d84e4ea.png",
                        "isERC1155": false,
                        "isERC721": false,
                        "sign": true,
                        "value": "173.2326005"
                    }
                ]
            }
        ]
    },
    "profile": {
        "basic_info": {
            "baseFee": "110.622889383",
            "blockNumber": 13644029,
            "callData": "0xa9059cbb00000000000000000000000065114e9826b49717835be36b2dcda7da15821c99000000000000000000000000000000000000000000000000000000000a50add5",
            "debugEnable": true,
            "errorInfo": "",
            "eventCount": 1,
            "feeRecipient": "0x829bd824b016326a401d083b33d092293333a830",
            "formatValue": "0",
            "gasLimit": 300000,
            "gasPrice": "112.622889383",
            "gasUsed": 46109,
            "intTxnCount": 0,
            "internalRevert": false,
            "internalRevertMessage": "",
            "isContractCreation": false,
            "isFlashloan": false,
            "maxFee": "500",
            "nonce": 27134,
            "overwritedBlockNumber": -1,
            "priorityFee": "2",
            "receiver": "0xdac17f958d2ee523a2206206994597c13d831ec7",
            "revertMessage": "",
            "sender": "0xd65e0cbd31977b2e0e23c8330c8b5f020818fc91",
            "simulationEnable": true,
            "sourceTxnHash": "0x816c7ffa6203b76df89e5cbbae5f3e3a1a4e29709b66de8425e5d5207a501bdb",
            "status": true,
            "timestamp": "2021-11-19T06:19:04Z",
            "transactionFee": "0.005192928806560747",
            "txnHash": "0x816c7ffa6203b76df89e5cbbae5f3e3a1a4e29709b66de8425e5d5207a501bdb",
            "txnIndex": 56,
            "type": 2,
            "value": "0"
        },
        "fund_flow": [
            {
                "amount": "173.059541",
                "from": "0xd65e0cbd31977b2e0e23c8330c8b5f020818fc91",
                "id": 1,
                "isERC1155": false,
                "isERC721": false,
                "isReverted": false,
                "order": 1,
                "to": "0x65114e9826b49717835be36b2dcda7da15821c99",
                "token": "0xdac17f958d2ee523a2206206994597c13d831ec7"
            }
        ],
        "token_infos": [
            {
                "address": "0xc02aaa39b223fe8d0a0e5c4f27ead9083c756cc2",
                "decimals": 18
            },
            {
                "address": "0xdac17f958d2ee523a2206206994597c13d831ec7",
                "decimals": 6
            },
            {
                "address": "0xeeeeeeeeeeeeeeeeeeeeeeeeeeeeeeeeeeeeeeee",
                "decimals": 18
            }
        ]
    },
    "address_label": {
        "labels": [
            {
                "address": "0x0000000000000000000000000000000000000001",
                "label": "Precompiled"
            },
            {
                "address": "0x0000000000000000000000000000000000000002",
                "label": "Precompiled"
            },
            {
                "address": "0x0000000000000000000000000000000000000003",
                "label": "Precompiled"
            },
            {
                "address": "0x0000000000000000000000000000000000000004",
                "label": "Precompiled"
            },
            {
                "address": "0xeeeeeeeeeeeeeeeeeeeeeeeeeeeeeeeeeeeeeeee",
                "label": "Ether"
            },
            {
                "address": "0xd65e0cbd31977b2e0e23c8330c8b5f020818fc91",
                "label": "PAYBIS 3"
            },
            {
                "address": "0xdac17f958d2ee523a2206206994597c13d831ec7",
                "label": "Tether: USDT Stablecoin"
            }
        ]
    },
    "trace": {
        "accountLabels": null,
        "dataMap": {
            "-1": {
                "invocation": {
                    "address": "0xd65e0cbd31977b2e0e23c8330c8b5f020818fc91",
                    "callData": "",
                    "decodedMethod": null,
                    "errorInfo": "",
                    "fromAddress": "",
                    "gasUsed": 0,
                    "id": -1,
                    "methodDecoded": false,
                    "operation": "",
                    "output": "",
                    "revert": false,
                    "revertMessage": "",
                    "selector": "",
                    "status": false,
                    "value": ""
                },
                "nodeType": 0
            },
            "0": {
                "invocation": {
                    "address": "0xdac17f958d2ee523a2206206994597c13d831ec7",
                    "callData": "0x00000000000000000000000065114e9826b49717835be36b2dcda7da15821c99000000000000000000000000000000000000000000000000000000000a50add5",
                    "decodedMethod": {
                        "callParams": [
                            {
                                "name": "_to",
                                "type": "address",
                                "value": "0x65114e9826b49717835be36b2dcda7da15821c99"
                            },
                            {
                                "decimalAvailable": true,
                                "name": "_value",
                                "type": "uint256",
                                "value": "173,059,541"
                            }
                        ],
                        "constructorArguments": "",
                        "name": "transfer",
                        "returnParams": [],
                        "signature": "transfer(address,uint256)"
                    },
                    "errorInfo": "",
                    "fromAddress": "0xd65e0cbd31977b2e0e23c8330c8b5f020818fc91",
                    "gasUsed": 46109,
                    "id": 0,
                    "methodDecoded": true,
                    "operation": "CALL",
                    "output": "",
                    "revert": false,
                    "revertMessage": "",
                    "selector": "0xa9059cbb",
                    "status": true,
                    "value": "0"
                },
                "nodeType": 0
            },
            "1": {
                "event": {
                    "contract": "0xdac17f958d2ee523a2206206994597c13d831ec7",
                    "decodedLog": {
                        "name": "Transfer",
                        "params": [
                            {
                                "name": "from",
                                "type": "address",
                                "value": "0xd65e0cbd31977b2e0e23c8330c8b5f020818fc91"
                            },
                            {
                                "name": "to",
                                "type": "address",
                                "value": "0x65114e9826b49717835be36b2dcda7da15821c99"
                            },
                            {
                                "decimalAvailable": true,
                                "name": "value",
                                "type": "uint256",
                                "value": "173,059,541"
                            }
                        ],
                        "signature": "Transfer(address,address,uint256)"
                    },
                    "id": 1,
                    "logData": "0x000000000000000000000000000000000000000000000000000000000a50add5",
                    "logDecoded": true,
                    "operation": "EVENT",
                    "revert": false,
                    "status": true,
                    "topics": [
                        "0xddf252ad1be2c89b69c2b068fc378daa952ba7f163c4a11628f55a4df523b3ef",
                        "0x000000000000000000000000d65e0cbd31977b2e0e23c8330c8b5f020818fc91",
                        "0x00000000000000000000000065114e9826b49717835be36b2dcda7da15821c99"
                    ]
                },
                "nodeType": 1
            }
        },
        "gasFlame": [
            {
                "children": [
                    {
                        "children": [
                            {
                                "children": [],
                                "depth": 0,
                                "name": "Initial Gas",
                                "value": 21608
                            },
                            {
                                "children": [],
                                "depth": 0,
                                "name": "Executed Gas",
                                "value": 24501
                            }
                        ],
                        "depth": -1,
                        "name": "Actual Gas Used",
                        "value": 46109
                    },
                    {
                        "children": [],
                        "depth": -1,
                        "name": "Refunded Gas",
                        "value": 0
                    }
                ],
                "depth": -2,
                "name": "Total Gas",
                "value": 46109
            }
        ],
        "isConfirmed": true,
        "mainTrace": [
            {
                "children": [
                    {
                        "children": [
                            {
                                "children": [],
                                "depth": 1,
                                "id": 1,
                                "order": 1
                            }
                        ],
                        "depth": 0,
                        "id": 0,
                        "order": 0
                    }
                ],
                "depth": -1,
                "id": -1,
                "order": -1
            }
        ],
        "mainTraceNodeCount": 2,
        "parentIdMap": {
            "0": -1,
            "1": 0
        },
        "tidyTrace": [
            {
                "children": [
                    {
                        "children": [
                            {
                                "children": [],
                                "depth": 1,
                                "id": 1,
                                "order": 1
                            }
                        ],
                        "depth": 0,
                        "id": 0,
                        "order": 0
                    }
                ],
                "depth": -1,
                "id": -1,
                "order": -1
            }
        ],
        "tidyTraceNodeCount": 2
    },
    "state_change": {
        "stateChanges": [
            {
                "address": "0xdac17f958d2ee523a2206206994597c13d831ec7",
                "erc": "ERC-20",
                "slots": [
                    {
                        "current": "0x0000000000000000000000000000000000000000000000000000000015726915",
                        "key": "0x64cd4e47298d17b9ceeb6f43fa7b9b5de3efd12ef438ada3c4c47428fad3060b",
                        "prev": "0x000000000000000000000000000000000000000000000000000000000b21bb40"
                    },
                    {
                        "current": "0x000000000000000000000000000000000000000000000000000000081c2ec27b",
                        "key": "0x84405b900b35e59b5a0364f26cf59e6b15d1b2edc5a0c0b07f3f5b632b671c5c",
                        "prev": "0x00000000000000000000000000000000000000000000000000000008267f7050"
                    }
                ],
                "storageVariables": [
                    {
                        "name": "balances",
                        "type": "mapping(address => uint256)",
                        "value": {
                            "pairs": [
                                {
                                    "key": "0x65114e9826b49717835be36b2dcda7da15821c99",
                                    "value": {
                                        "current": "359819541",
                                        "prev": "186760000",
                                        "typeTag": 1
                                    }
                                },
                                {
                                    "key": "0xd65e0cbd31977b2e0e23c8330c8b5f020818fc91",
                                    "value": {
                                        "current": "34832564859",
                                        "prev": "35005624400",
                                        "typeTag": 1
                                    }
                                }
                            ],
                            "typeTag": 4
                        }
                    }
                ]
            }
        ]
    }
}