{
    "balance_change": {
        "balanceChanges": [
            {
                "account": "0x3a6aeca5666d4af4161e48609f83e80f124170d9",
                "assets": [
                    {
                        "address": "0x31ead6a10b5215321afa8bef2f05aa271508fa6c",
                        "amount": "50,000,000,000,000,000,000",
                        "iconUrl": "",
                        "isERC1155": false,
                        "isERC721": false,
                        "sign": false,
                        "value": ""
                    }
                ]
            },
            {
                "account": "0x222a6a12b81fd7749641a60cd12730656100f10c",
                "assets": [
                    {
                        "address": "0x31ead6a10b5215321afa8bef2f05aa271508fa6c",
                        "amount": "50,000,000,000,000,000,000",
                        "iconUrl": "",
                        "isERC1155": false,
                        "isERC721": false,
                        "sign": true,
                        "value": ""
                    }
                ]
            }
        ]
    },
    "profile": {
        "basic_info": {
            "baseFee": "",
            "blockNumber": 6524141,
            "callData": "0xa9059cbb000000000000000000000000222a6a12b81fd7749641a60cd12730656100f10c000000000000000000000000000000000000000000000002b5e3af16b1880000",
            "debugEnable": true,
            "errorInfo": "",
            "eventCount": 1,
            "feeRecipient": "0xea674fdde714fd979de3edf0f56aa9716b898ec8",
            "formatValue": "0",
            "gasLimit": 70000,
            "gasPrice": "8",
            "gasUsed": 39010,
            "intTxnCount": 0,
            "internalRevert": false,
            "internalRevertMessage": "",
            "isContractCreation": false,
            "isFlashloan": false,
            "maxFee": "",
            "nonce": 108,
            "overwritedBlockNumber": -1,
            "priorityFee": "",
            "receiver": "0x31ead6a10b5215321afa8bef2f05aa271508fa6c",
            "revertMessage": "",
            "sender": "0x3a6aeca5666d4af4161e48609f83e80f124170d9",
            "simulationEnable": true,
            "sourceTxnHash": "0x812c93d6d545c855005bf9ef8f71404a93f2c76e5d7560c0c7ef19a9b6591610",
            "status": true,
            "timestamp": "2018-10-16T06:05:50Z",
            "transactionFee": "0.00031208",
            "txnHash": "0x812c93d6d545c855005bf9ef8f71404a93f2c76e5d7560c0c7ef19a9b6591610",
            "txnIndex": 188,
            "type": 0,
            "value": "0"
        },
        "fund_flow": [
            {
                "amount": "50,000,000,000,000,000,000",
                "from": "0x3a6aeca5666d4af4161e48609f83e80f124170d9",
                "id": 1,
                "isERC1155": false,
                "isERC721": false,
                "isReverted": false,
                "order": 1,
                "to": "0x222a6a12b81fd7749641a60cd12730656100f10c",
                "token": "0x31ead6a10b5215321afa8bef2f05aa271508fa6c"
            }
        ],
        "token_infos": [
            {
                "address": "0xc02aaa39b223fe8d0a0e5c4f27ead9083c756cc2",
                "decimals": 18
            },
            {
                "address": "0xeeeeeeeeeeeeeeeeeeeeeeeeeeeeeeeeeeeeeeee",
                "decimals": 18
            }
        ]
    },
    "address_label": {
        "labels": [
            {
                "address": "0xeeeeeeeeeeeeeeeeeeeeeeeeeeeeeeeeeeeeeeee",
                "label": "Ether"
            },
            {
                "address": "0x31ead6a10b5215321afa8bef2f05aa271508fa6c",
                "label": "CustomToken"
            },
            {
                "address": "0x0000000000000000000000000000000000000001",
                "label": "Precompiled"
            },
            {
                "address": "0x0000000000000000000000000000000000000002",
                "label": "Precompiled"
            },
            {
                "address": "0x0000000000000000000000000000000000000003",
                "label": "Precompiled"
            },
            {
                "address": "0x0000000000000000000000000000000000000004",
                "label": "Precompiled"
            }
        ]
    },
    "trace": {
        "accountLabels": null,
        "dataMap": {
            "-1": {
                "invocation": {
                    "address": "0x3a6aeca5666d4af4161e48609f83e80f124170d9",
                    "callData": "",
                    "decodedMethod": null,
                    "errorInfo": "",
                    "fromAddress": "",
                    "gasUsed": 0,
                    "id": -1,
                    "methodDecoded": false,
                    "operation": "",
                    "output": "",
                    "revert": false,
                    "revertMessage": "",
                    "selector": "",
                    "status": false,
                    "value": ""
                },
                "nodeType": 0
            },
            "0": {
                "invocation": {
                    "address": "0x31ead6a10b5215321afa8bef2f05aa271508fa6c",
                    "callData": "0x000000000000000000000000222a6a12b81fd7749641a60cd12730656100f10c000000000000000000000000000000000000000000000002b5e3af16b1880000",
                    "decodedMethod": {
                        "callParams": [
                            {
                                "name": "_to",
                                "type": "address",
                                "value": "0x222a6a12b81fd7749641a60cd12730656100f10c"
                            },
                            {
                                "decimalAvailable": true,
                                "name": "_value",
                                "type": "uint256",
                                "value": "50,000,000,000,000,000,000"
                            }
                        ],
                        "constructorArguments": "",
                        "name": "transfer",
                        "returnParams": [
                            {
                                "name": "success",
                                "type": "bool",
                                "value": true
                            }
                        ],
                        "signature": "transfer(address,uint256)"
                    },
                    "errorInfo": "",
                    "fromAddress": "0x3a6aeca5666d4af4161e48609f83e80f124170d9",
                    "gasUsed": 39010,
                    "id": 0,
                    "methodDecoded": true,
                    "operation": "CALL",
                    "output": "0x0000000000000000000000000000000000000000000000000000000000000001",
                    "revert": false,
                    "revertMessage": "",
                    "selector": "0xa9059cbb",
                    "status": true,
                    "value": "0"
                },
                "nodeType": 0
            },
            "1": {
                "event": {
                    "contract": "0x31ead6a10b5215321afa8bef2f05aa271508fa6c",
                    "decodedLog": {
                        "name": "Transfer",
                        "params": [
                            {
                                "name": "from",
                                "type": "address",
                                "value": "0x3a6aeca5666d4af4161e48609f83e80f124170d9"
                            },
                            {
                                "name": "to",
                                "type": "address",
                                "value": "0x222a6a12b81fd7749641a60cd12730656100f10c"
                            },
                            {
                                "decimalAvailable": true,
                                "name": "value",
                                "type": "uint256",
                                "value": "50,000,000,000,000,000,000"
                            }
                        ],
                        "signature": "Transfer(address,address,uint256)"
                    },
                    "id": 1,
                    "logData": "0x000000000000000000000000000000000000000000000002b5e3af16b1880000",
                    "logDecoded": true,
                    "operation": "EVENT",
                    "revert": false,
                    "status": true,
                    "topics": [
                        "0xddf252ad1be2c89b69c2b068fc378daa952ba7f163c4a11628f55a4df523b3ef",
                        "0x0000000000000000000000003a6aeca5666d4af4161e48609f83e80f124170d9",
                        "0x000000000000000000000000222a6a12b81fd7749641a60cd12730656100f10c"
                    ]
                },
                "nodeType": 1
            }
        },
        "gasFlame": [
            {
                "children": [
                    {
                        "children": [
                            {
                                "children": [],
                                "depth": 0,
                                "name": "Initial Gas",
                                "value": 23192
                            },
                            {
                                "children": [],
                                "depth": 0,
                                "name": "Executed Gas",
                                "value": 15818
                            }
                        ],
                        "depth": -1,
                        "name": "Actual Gas Used",
                        "value": 39010
                    },
                    {
                        "children": [],
                        "depth": -1,
                        "name": "Refunded Gas",
                        "value": 0
                    }
                ],
                "depth": -2,
                "name": "Total Gas",
                "value": 39010
            }
        ],
        "isConfirmed": true,
        "mainTrace": [
            {
                "children": [
                    {
                        "children": [
                            {
                                "children": [],
                                "depth": 1,
                                "id": 1,
                                "order": 1
                            }
                        ],
                        "depth": 0,
                        "id": 0,
                        "order": 0
                    }
                ],
                "depth": -1,
                "id": -1,
                "order": -1
            }
        ],
        "mainTraceNodeCount": 2,
        "parentIdMap": {
            "0": -1,
            "1": 0
        },
        "tidyTrace": [
            {
                "children": [
                    {
                        "children": [
                            {
                                "children": [],
                                "depth": 1,
                                "id": 1,
                                "order": 1
                            }
                        ],
                        "depth": 0,
                        "id": 0,
                        "order": 0
                    }
                ],
                "depth": -1,
                "id": -1,
                "order": -1
            }
        ],
        "tidyTraceNodeCount": 2
    },
    "state_change": {
        "stateChanges": [
            {
                "address": "0x31ead6a10b5215321afa8bef2f05aa271508fa6c",
                "erc": "ERC-20",
                "slots": [
                    {
                        "current": "0x000000000000000000000000000000000000000000000007518058bd45bc0000",
                        "key": "0xd20001fb417ffbf876441f2d3866302ea2a15ae9cb929fa38273c8c97fbf0d18",
                        "prev": "0x0000000000000000000000000000000000000000000000049b9ca9a694340000"
                    },
                    {
                        "current": "0x0000000000000000000000000000000000000000018d0b8cffdf31f605cc0000",
                        "key": "0xa9abbb844f62bce3d8eb2debdccbfafb0710ecdf77b840a30917809ff9ee5033",
                        "prev": "0x0000000000000000000000000000000000000000018d0b8fb5c2e10cb7540000"
                    }
                ],
                "storageVariables": [
                    {
                        "name": "balanceOf",
                        "type": "mapping(address => uint256)",
                        "value": {
                            "pairs": [
                                {
                                    "key": "0x222a6a12b81fd7749641a60cd12730656100f10c",
                                    "value": {
                                        "current": "135000000000000000000",
                                        "prev": "85000000000000000000",
                                        "typeTag": 1
                                    }
                                },
                                {
                                    "key": "0x3a6aeca5666d4af4161e48609f83e80f124170d9",
                                    "value": {
                                        "current": "479998097400000000000000000",
                                        "prev": "479998147400000000000000000",
                                        "typeTag": 1
                                    }
                                }
                            ],
                            "typeTag": 4
                        }
                    }
                ]
            }
        ]
    }
}