{
    "balance_change": {
        "balanceChanges": [
            {
                "account": "0xe8e61db7918bd88e5ff764ad5393e87d7aaef9ad",
                "assets": [
                    {
                        "address": "0x55696efc7c9779d868ac34ac6b4a4c5fed61ac12",
                        "amount": "14.556079053510801522",
                        "iconUrl": "",
                        "isERC1155": false,
                        "isERC721": false,
                        "sign": false,
                        "value": "228.1593804"
                    },
                    {
                        "address": "0x6b175474e89094c44da98b954eedeac495271d0f",
                        "amount": "226.785915104080731313",
                        "iconUrl": "https://assets.blocksec.com/icon/39aead569b9c011cb6f69734d9abbc9ab6a80049fe93bbd12bb473a3e0e859a3.png",
                        "isERC1155": false,
                        "isERC721": false,
                        "sign": true,
                        "value": "228.1593805"
                    }
                ]
            },
            {
                "account": "0xe03a36e18aeddad9cf778d5c3d6ea0b83ce7d577",
                "assets": [
                    {
                        "address": "0x55696efc7c9779d868ac34ac6b4a4c5fed61ac12",
                        "amount": "14.556079053510801522",
                        "iconUrl": "",
                        "isERC1155": false,
                        "isERC721": false,
                        "sign": true,
                        "value": "228.1593804"
                    },
                    {
                        "address": "0x6b175474e89094c44da98b954eedeac495271d0f",
                        "amount": "226.785915104080731313",
                        "iconUrl": "https://assets.blocksec.com/icon/39aead569b9c011cb6f69734d9abbc9ab6a80049fe93bbd12bb473a3e0e859a3.png",
                        "isERC1155": false,
                        "isERC721": false,
                        "sign": false,
                        "value": "228.1593805"
                    }
                ]
            }
        ]
    },
    "profile": {
        "basic_info": {
            "baseFee": "",
            "blockNumber": 11635455,
            "callData": "0x38ed1739000000000000000000000000000000000000000000000000ca0194c71b03f87200000000000000000000000000000000000000000000000c2c20242e9bde636000000000000000000000000000000000000000000000000000000000000000a0000000000000000000000000e8e61db7918bd88e5ff764ad5393e87d7aaef9ad000000000000000000000000000000000000000000000000000000005ffca7d4000000000000000000000000000000000000000000000000000000000000000200000000000000000000000055696efc7c9779d868ac34ac6b4a4c5fed61ac120000000000000000000000006b175474e89094c44da98b954eedeac495271d0f",
            "debugEnable": true,
            "errorInfo": "",
            "eventCount": 5,
            "feeRecipient": "0xea674fdde714fd979de3edf0f56aa9716b898ec8",
            "formatValue": "0",
            "gasLimit": 128422,
            "gasPrice": "148",
            "gasUsed": 95606,
            "intTxnCount": 6,
            "internalRevert": false,
            "internalRevertMessage": "",
            "isContractCreation": false,
            "isFlashloan": false,
            "maxFee": "",
            "nonce": 6128,
            "overwritedBlockNumber": -1,
            "priorityFee": "",
            "receiver": "0x7a250d5630b4cf539739df2c5dacb4c659f2488d",
            "revertMessage": "",
            "sender": "0xe8e61db7918bd88e5ff764ad5393e87d7aaef9ad",
            "simulationEnable": true,
            "sourceTxnHash": "0x813d77a4323c379b18ab705352706005f1902e5ece4be4bb95d607dd049c56da",
            "status": true,
            "timestamp": "2021-01-11T19:14:04Z",
            "transactionFee": "0.014149688",
            "txnHash": "0x813d77a4323c379b18ab705352706005f1902e5ece4be4bb95d607dd049c56da",
            "txnIndex": 135,
            "type": 0,
            "value": "0"
        },
        "fund_flow": [
            {
                "amount": "14.556079053510801522",
                "from": "0xe8e61db7918bd88e5ff764ad5393e87d7aaef9ad",
                "id": 1,
                "isERC1155": false,
                "isERC721": false,
                "isReverted": false,
                "order": 1,
                "to": "0xe03a36e18aeddad9cf778d5c3d6ea0b83ce7d577",
                "token": "0x55696efc7c9779d868ac34ac6b4a4c5fed61ac12"
            },
            {
                "amount": "226.785915104080731313",
                "from": "0xe03a36e18aeddad9cf778d5c3d6ea0b83ce7d577",
                "id": 2,
                "isERC1155": false,
                "isERC721": false,
                "isReverted": false,
                "order": 2,
                "to": "0xe8e61db7918bd88e5ff764ad5393e87d7aaef9ad",
                "token": "0x6b175474e89094c44da98b954eedeac495271d0f"
            }
        ],
        "token_infos": [
            {
                "address": "0xeeeeeeeeeeeeeeeeeeeeeeeeeeeeeeeeeeeeeeee",
                "decimals": 18
            },
            {
                "address": "0x55696efc7c9779d868ac34ac6b4a4c5fed61ac12",
                "decimals": 18
            },
            {
                "address": "0x6b175474e89094c44da98b954eedeac495271d0f",
                "decimals": 18
            },
            {
                "address": "0xc02aaa39b223fe8d0a0e5c4f27ead9083c756cc2",
                "decimals": 18
            }
        ]
    },
    "address_label": {
        "labels": [
            {
                "address": "0xe03a36e18aeddad9cf778d5c3d6ea0b83ce7d577",
                "label": "Uniswap V2: DSTR-DAI"
            },
            {
                "address": "0x6b175474e89094c44da98b954eedeac495271d0f",
                "label": "Sky: Dai Stablecoin"
            },
            {
                "address": "0x7a250d5630b4cf539739df2c5dacb4c659f2488d",
                "label": "Uniswap V2: Router 2"
            },
            {
                "address": "0x0000000000000000000000000000000000000001",
                "label": "Precompiled"
            },
            {
                "address": "0xeeeeeeeeeeeeeeeeeeeeeeeeeeeeeeeeeeeeeeee",
                "label": "Ether"
            },
            {
                "address": "0x0000000000000000000000000000000000000002",
                "label": "Precompiled"
            },
            {
                "address": "0x0000000000000000000000000000000000000003",
                "label": "Precompiled"
            },
            {
                "address": "0x0000000000000000000000000000000000000004",
                "label": "Precompiled"
            },
            {
                "address": "0x55696efc7c9779d868ac34ac6b4a4c5fed61ac12",
                "label": "Dynamic Supply: DSTR Token"
            }
        ]
    },
    "trace": {
        "accountLabels": null,
        "dataMap": {
            "-1": {
                "invocation": {
                    "address": "0xe8e61db7918bd88e5ff764ad5393e87d7aaef9ad",
                    "callData": "",
                    "decodedMethod": null,
                    "errorInfo": "",
                    "fromAddress": "",
                    "gasUsed": 0,
                    "id": -1,
                    "methodDecoded": false,
                    "operation": "",
                    "output": "",
                    "revert": false,
                    "revertMessage": "",
                    "selector": "",
                    "status": false,
                    "value": ""
                },
                "nodeType": 0
            },
            "0": {
                "invocation": {
                    "address": "0x7a250d5630b4cf539739df2c5dacb4c659f2488d",
                    "callData": "0x000000000000000000000000000000000000000000000000ca0194c71b03f87200000000000000000000000000000000000000000000000c2c20242e9bde636000000000000000000000000000000000000000000000000000000000000000a0000000000000000000000000e8e61db7918bd88e5ff764ad5393e87d7aaef9ad000000000000000000000000000000000000000000000000000000005ffca7d4000000000000000000000000000000000000000000000000000000000000000200000000000000000000000055696efc7c9779d868ac34ac6b4a4c5fed61ac120000000000000000000000006b175474e89094c44da98b954eedeac495271d0f",
                    "decodedMethod": {
                        "callParams": [
                            {
                                "name": "amountIn",
                                "type": "uint256",
                                "value": "14,556,079,053,510,801,522"
                            },
                            {
                                "name": "amountOutMin",
                                "type": "uint256",
                                "value": "224,540,510,004,040,328,032"
                            },
                            {
                                "name": "path",
                                "type": "address[]",
                                "value": [
                                    "0x55696efc7c9779d868ac34ac6b4a4c5fed61ac12",
                                    "0x6b175474e89094c44da98b954eedeac495271d0f"
                                ]
                            },
                            {
                                "name": "to",
                                "type": "address",
                                "value": "0xe8e61db7918bd88e5ff764ad5393e87d7aaef9ad"
                            },
                            {
                                "name": "deadline",
                                "type": "uint256",
                                "value": "1,610,393,556"
                            }
                        ],
                        "constructorArguments": "",
                        "name": "swapExactTokensForTokens",
                        "returnParams": [
                            {
                                "name": "amounts",
                                "type": "uint256[]",
                                "value": [
                                    "14,556,079,053,510,801,522",
                                    "226,785,915,104,080,731,313"
                                ]
                            }
                        ],
                        "signature": "swapExactTokensForTokens(uint256,uint256,address[],address,uint256)"
                    },
                    "errorInfo": "",
                    "fromAddress": "0xe8e61db7918bd88e5ff764ad5393e87d7aaef9ad",
                    "gasUsed": 95606,
                    "id": 0,
                    "methodDecoded": true,
                    "operation": "CALL",
                    "output": "0x00000000000000000000000000000000000000000000000000000000000000200000000000000000000000000000000000000000000000000000000000000002000000000000000000000000000000000000000000000000ca0194c71b03f87200000000000000000000000000000000000000000000000c4b496c3950a09cb1",
                    "revert": false,
                    "revertMessage": "",
                    "selector": "0x38ed1739",
                    "status": true,
                    "value": "0"
                },
                "nodeType": 0
            },
            "1": {
                "invocation": {
                    "address": "0xe03a36e18aeddad9cf778d5c3d6ea0b83ce7d577",
                    "callData": "0x",
                    "decodedMethod": {
                        "callParams": [],
                        "constructorArguments": "",
                        "name": "getReserves",
                        "returnParams": [
                            {
                                "name": "_reserve0",
                                "type": "uint112",
                                "value": "8,960,001,966,350,493,024,787"
                            },
                            {
                                "name": "_reserve1",
                                "type": "uint112",
                                "value": "140,245,027,610,951,292,793,401"
                            },
                            {
                                "name": "_blockTimestampLast",
                                "type": "uint32",
                                "value": "1,610,392,320"
                            }
                        ],
                        "signature": "getReserves()"
                    },
                    "errorInfo": "",
                    "fromAddress": "0x7a250d5630b4cf539739df2c5dacb4c659f2488d",
                    "gasUsed": 1204,
                    "id": 1,
                    "methodDecoded": true,
                    "operation": "STATICCALL",
                    "output": "0x0000000000000000000000000000000000000000000001e5b9018c4552a40213000000000000000000000000000000000000000000001db2b2bbfa2881ebb239000000000000000000000000000000000000000000000000000000005ffca300",
                    "revert": false,
                    "revertMessage": "",
                    "selector": "0x0902f1ac",
                    "status": true,
                    "value": "0"
                },
                "nodeType": 0
            },
            "10": {
                "event": {
                    "contract": "0xe03a36e18aeddad9cf778d5c3d6ea0b83ce7d577",
                    "decodedLog": {
                        "name": "Sync",
                        "params": [
                            {
                                "name": "reserve0",
                                "type": "uint112",
                                "value": "8,974,558,045,404,003,826,309"
                            },
                            {
                                "name": "reserve1",
                                "type": "uint112",
                                "value": "140,018,241,695,847,212,062,088"
                            }
                        ],
                        "signature": "Sync(uint112,uint112)"
                    },
                    "id": 10,
                    "logData": "0x0000000000000000000000000000000000000000000001e68303210c6da7fa85000000000000000000000000000000000000000000001da667728def314b1588",
                    "logDecoded": true,
                    "operation": "EVENT",
                    "revert": false,
                    "status": true,
                    "topics": [
                        "0x1c411e9a96e071241c2f21f7726b17ae89e3cab4c78be50e062b03a9fffbbad1"
                    ]
                },
                "nodeType": 1
            },
            "11": {
                "event": {
                    "contract": "0xe03a36e18aeddad9cf778d5c3d6ea0b83ce7d577",
                    "decodedLog": {
                        "name": "Swap",
                        "params": [
                            {
                                "name": "sender",
                                "type": "address",
                                "value": "0x7a250d5630b4cf539739df2c5dacb4c659f2488d"
                            },
                            {
                                "name": "to",
                                "type": "address",
                                "value": "0xe8e61db7918bd88e5ff764ad5393e87d7aaef9ad"
                            },
                            {
                                "name": "amount0In",
                                "type": "uint256",
                                "value": "14,556,079,053,510,801,522"
                            },
                            {
                                "name": "amount1In",
                                "type": "uint256",
                                "value": "0"
                            },
                            {
                                "name": "amount0Out",
                                "type": "uint256",
                                "value": "0"
                            },
                            {
                                "name": "amount1Out",
                                "type": "uint256",
                                "value": "226,785,915,104,080,731,313"
                            }
                        ],
                        "signature": "Swap(address,uint256,uint256,uint256,uint256,address)"
                    },
                    "id": 11,
                    "logData": "0x000000000000000000000000000000000000000000000000ca0194c71b03f8720000000000000000000000000000000000000000000000000000000000000000000000000000000000000000000000000000000000000000000000000000000000000000000000000000000000000000000000000000000c4b496c3950a09cb1",
                    "logDecoded": true,
                    "operation": "EVENT",
                    "revert": false,
                    "status": true,
                    "topics": [
                        "0xd78ad95fa46c994b6551d0da85fc275fe613ce37657fb8d5e3d130840159d822",
                        "0x0000000000000000000000007a250d5630b4cf539739df2c5dacb4c659f2488d",
                        "0x000000000000000000000000e8e61db7918bd88e5ff764ad5393e87d7aaef9ad"
                    ]
                },
                "nodeType": 1
            },
            "2": {
                "invocation": {
                    "address": "0x55696efc7c9779d868ac34ac6b4a4c5fed61ac12",
                    "callData": "0x000000000000000000000000e8e61db7918bd88e5ff764ad5393e87d7aaef9ad000000000000000000000000e03a36e18aeddad9cf778d5c3d6ea0b83ce7d577000000000000000000000000000000000000000000000000ca0194c71b03f872",
                    "decodedMethod": {
                        "callParams": [
                            {
                                "name": "sender",
                                "type": "address",
                                "value": "0xe8e61db7918bd88e5ff764ad5393e87d7aaef9ad"
                            },
                            {
                                "name": "recipient",
                                "type": "address",
                                "value": "0xe03a36e18aeddad9cf778d5c3d6ea0b83ce7d577"
                            },
                            {
                                "decimalAvailable": true,
                                "name": "amount",
                                "type": "uint256",
                                "value": "14,556,079,053,510,801,522"
                            }
                        ],
                        "constructorArguments": "",
                        "name": "transferFrom",
                        "returnParams": [
                            {
                                "name": "",
                                "type": "bool",
                                "value": true
                            }
                        ],
                        "signature": "transferFrom(address,address,uint256)"
                    },
                    "errorInfo": "",
                    "fromAddress": "0x7a250d5630b4cf539739df2c5dacb4c659f2488d",
                    "gasUsed": 22858,
                    "id": 2,
                    "methodDecoded": true,
                    "operation": "CALL",
                    "output": "0x0000000000000000000000000000000000000000000000000000000000000001",
                    "revert": false,
                    "revertMessage": "",
                    "selector": "0x23b872dd",
                    "status": true,
                    "value": "0"
                },
                "nodeType": 0
            },
            "3": {
                "event": {
                    "contract": "0x55696efc7c9779d868ac34ac6b4a4c5fed61ac12",
                    "decodedLog": {
                        "name": "Transfer",
                        "params": [
                            {
                                "name": "from",
                                "type": "address",
                                "value": "0xe8e61db7918bd88e5ff764ad5393e87d7aaef9ad"
                            },
                            {
                                "name": "to",
                                "type": "address",
                                "value": "0xe03a36e18aeddad9cf778d5c3d6ea0b83ce7d577"
                            },
                            {
                                "decimalAvailable": true,
                                "name": "value",
                                "type": "uint256",
                                "value": "14,556,079,053,510,801,522"
                            }
                        ],
                        "signature": "Transfer(address,address,uint256)"
                    },
                    "id": 3,
                    "logData": "0x000000000000000000000000000000000000000000000000ca0194c71b03f872",
                    "logDecoded": true,
                    "operation": "EVENT",
                    "revert": false,
                    "status": true,
                    "topics": [
                        "0xddf252ad1be2c89b69c2b068fc378daa952ba7f163c4a11628f55a4df523b3ef",
                        "0x000000000000000000000000e8e61db7918bd88e5ff764ad5393e87d7aaef9ad",
                        "0x000000000000000000000000e03a36e18aeddad9cf778d5c3d6ea0b83ce7d577"
                    ]
                },
                "nodeType": 1
            },
            "4": {
                "event": {
                    "contract": "0x55696efc7c9779d868ac34ac6b4a4c5fed61ac12",
                    "decodedLog": {
                        "name": "Approval",
                        "params": [
                            {
                                "name": "owner",
                                "type": "address",
                                "value": "0xe8e61db7918bd88e5ff764ad5393e87d7aaef9ad"
                            },
                            {
                                "name": "spender",
                                "type": "address",
                                "value": "0x7a250d5630b4cf539739df2c5dacb4c659f2488d"
                            },
                            {
                                "decimalAvailable": true,
                                "name": "value",
                                "type": "uint256",
                                "value": "115,792,089,237,316,195,423,570,985,008,687,907,853,269,984,665,640,564,039,397,128,573,416,104,047,971"
                            }
                        ],
                        "signature": "Approval(address,address,uint256)"
                    },
                    "id": 4,
                    "logData": "0xfffffffffffffffffffffffffffffffffffffffffffffffcb90326a1aee4b563",
                    "logDecoded": true,
                    "operation": "EVENT",
                    "revert": false,
                    "status": true,
                    "topics": [
                        "0x8c5be1e5ebec7d5bd14f71427d1e84f3dd0314c0f7b2291e5b200ac8c7c3b925",
                        "0x000000000000000000000000e8e61db7918bd88e5ff764ad5393e87d7aaef9ad",
                        "0x0000000000000000000000007a250d5630b4cf539739df2c5dacb4c659f2488d"
                    ]
                },
                "nodeType": 1
            },
            "5": {
                "invocation": {
                    "address": "0xe03a36e18aeddad9cf778d5c3d6ea0b83ce7d577",
                    "callData": "0x000000000000000000000000000000000000000000000000000000000000000000000000000000000000000000000000000000000000000c4b496c3950a09cb1000000000000000000000000e8e61db7918bd88e5ff764ad5393e87d7aaef9ad00000000000000000000000000000000000000000000000000000000000000800000000000000000000000000000000000000000000000000000000000000000",
                    "decodedMethod": {
                        "callParams": [
                            {
                                "name": "amount0Out",
                                "type": "uint256",
                                "value": "0"
                            },
                            {
                                "name": "amount1Out",
                                "type": "uint256",
                                "value": "226,785,915,104,080,731,313"
                            },
                            {
                                "name": "to",
                                "type": "address",
                                "value": "0xe8e61db7918bd88e5ff764ad5393e87d7aaef9ad"
                            },
                            {
                                "name": "data",
                                "type": "bytes",
                                "value": "0x"
                            }
                        ],
                        "constructorArguments": "",
                        "name": "swap",
                        "returnParams": [],
                        "signature": "swap(uint256,uint256,address,bytes)"
                    },
                    "errorInfo": "",
                    "fromAddress": "0x7a250d5630b4cf539739df2c5dacb4c659f2488d",
                    "gasUsed": 56911,
                    "id": 5,
                    "methodDecoded": true,
                    "operation": "CALL",
                    "output": "",
                    "revert": false,
                    "revertMessage": "",
                    "selector": "0x022c0d9f",
                    "status": true,
                    "value": "0"
                },
                "nodeType": 0
            },
            "6": {
                "invocation": {
                    "address": "0x6b175474e89094c44da98b954eedeac495271d0f",
                    "callData": "0x000000000000000000000000e8e61db7918bd88e5ff764ad5393e87d7aaef9ad00000000000000000000000000000000000000000000000c4b496c3950a09cb1",
                    "decodedMethod": {
                        "callParams": [
                            {
                                "name": "dst",
                                "type": "address",
                                "value": "0xe8e61db7918bd88e5ff764ad5393e87d7aaef9ad"
                            },
                            {
                                "decimalAvailable": true,
                                "name": "wad",
                                "type": "uint256",
                                "value": "226,785,915,104,080,731,313"
                            }
                        ],
                        "constructorArguments": "",
                        "name": "transfer",
                        "returnParams": [
                            {
                                "name": "",
                                "type": "bool",
                                "value": true
                            }
                        ],
                        "signature": "transfer(address,uint256)"
                    },
                    "errorInfo": "",
                    "fromAddress": "0xe03a36e18aeddad9cf778d5c3d6ea0b83ce7d577",
                    "gasUsed": 15374,
                    "id": 6,
                    "methodDecoded": true,
                    "operation": "CALL",
                    "output": "0x0000000000000000000000000000000000000000000000000000000000000001",
                    "revert": false,
                    "revertMessage": "",
                    "selector": "0xa9059cbb",
                    "status": true,
                    "value": "0"
                },
                "nodeType": 0
            },
            "7": {
                "event": {
                    "contract": "0x6b175474e89094c44da98b954eedeac495271d0f",
                    "decodedLog": {
                        "name": "Transfer",
                        "params": [
                            {
                                "name": "src",
                                "type": "address",
                                "value": "0xe03a36e18aeddad9cf778d5c3d6ea0b83ce7d577"
                            },
                            {
                                "name": "dst",
                                "type": "address",
                                "value": "0xe8e61db7918bd88e5ff764ad5393e87d7aaef9ad"
                            },
                            {
                                "decimalAvailable": true,
                                "name": "wad",
                                "type": "uint256",
                                "value": "226,785,915,104,080,731,313"
                            }
                        ],
                        "signature": "Transfer(address,address,uint256)"
                    },
                    "id": 7,
                    "logData": "0x00000000000000000000000000000000000000000000000c4b496c3950a09cb1",
                    "logDecoded": true,
                    "operation": "EVENT",
                    "revert": false,
                    "status": true,
                    "topics": [
                        "0xddf252ad1be2c89b69c2b068fc378daa952ba7f163c4a11628f55a4df523b3ef",
                        "0x000000000000000000000000e03a36e18aeddad9cf778d5c3d6ea0b83ce7d577",
                        "0x000000000000000000000000e8e61db7918bd88e5ff764ad5393e87d7aaef9ad"
                    ]
                },
                "nodeType": 1
            },
            "8": {
                "invocation": {
                    "address": "0x55696efc7c9779d868ac34ac6b4a4c5fed61ac12",
                    "callData": "0x000000000000000000000000e03a36e18aeddad9cf778d5c3d6ea0b83ce7d577",
                    "decodedMethod": {
                        "callParams": [
                            {
                                "name": "account",
                                "type": "address",
                                "value": "0xe03a36e18aeddad9cf778d5c3d6ea0b83ce7d577"
                            }
                        ],
                        "constructorArguments": "",
                        "name": "balanceOf",
                        "returnParams": [
                            {
                                "decimalAvailable": true,
                                "name": "",
                                "type": "uint256",
                                "value": "8,974,558,045,404,003,826,309"
                            }
                        ],
                        "signature": "balanceOf(address)"
                    },
                    "errorInfo": "",
                    "fromAddress": "0xe03a36e18aeddad9cf778d5c3d6ea0b83ce7d577",
                    "gasUsed": 1212,
                    "id": 8,
                    "methodDecoded": true,
                    "operation": "STATICCALL",
                    "output": "0x0000000000000000000000000000000000000000000001e68303210c6da7fa85",
                    "revert": false,
                    "revertMessage": "",
                    "selector": "0x70a08231",
                    "status": true,
                    "value": "0"
                },
                "nodeType": 0
            },
            "9": {
                "invocation": {
                    "address": "0x6b175474e89094c44da98b954eedeac495271d0f",
                    "callData": "0x000000000000000000000000e03a36e18aeddad9cf778d5c3d6ea0b83ce7d577",
                    "decodedMethod": {
                        "callParams": [
                            {
                                "name": "",
                                "type": "address",
                                "value": "0xe03a36e18aeddad9cf778d5c3d6ea0b83ce7d577"
                            }
                        ],
                        "constructorArguments": "",
                        "name": "balanceOf",
                        "returnParams": [
                            {
                                "decimalAvailable": true,
                                "name": "",
                                "type": "uint256",
                                "value": "140,018,241,695,847,212,062,088"
                            }
                        ],
                        "signature": "balanceOf(address)"
                    },
                    "errorInfo": "",
                    "fromAddress": "0xe03a36e18aeddad9cf778d5c3d6ea0b83ce7d577",
                    "gasUsed": 1302,
                    "id": 9,
                    "methodDecoded": true,
                    "operation": "STATICCALL",
                    "output": "0x000000000000000000000000000000000000000000001da667728def314b1588",
                    "revert": false,
                    "revertMessage": "",
                    "selector": "0x70a08231",
                    "status": true,
                    "value": "0"
                },
                "nodeType": 0
            }
        },
        "gasFlame": [
            {
                "children": [
                    {
                        "children": [
                            {
                                "children": [],
                                "depth": 0,
                                "name": "Initial Gas",
                                "value": 23084
                            },
                            {
                                "children": [
                                    {
                                        "children": [],
                                        "depth": 1,
                                        "name": "getReserves",
                                        "value": 1204
                                    },
                                    {
                                        "children": [],
                                        "depth": 1,
                                        "name": "transferFrom",
                                        "value": 22858
                                    },
                                    {
                                        "children": [
                                            {
                                                "children": [],
                                                "depth": 2,
                                                "name": "transfer",
                                                "value": 15374
                                            },
                                            {
                                                "children": [],
                                                "depth": 2,
                                                "name": "balanceOf",
                                                "value": 1212
                                            },
                                            {
                                                "children": [],
                                                "depth": 2,
                                                "name": "balanceOf",
                                                "value": 1302
                                            }
                                        ],
                                        "depth": 1,
                                        "name": "swap",
                                        "value": 56911
                                    }
                                ],
                                "depth": 0,
                                "name": "Executed Gas",
                                "value": 91722
                            }
                        ],
                        "depth": -1,
                        "name": "Actual Gas Used",
                        "value": 95606
                    },
                    {
                        "children": [],
                        "depth": -1,
                        "name": "Refunded Gas",
                        "value": 19200
                    }
                ],
                "depth": -2,
                "name": "Total Gas",
                "value": 114806
            }
        ],
        "isConfirmed": true,
        "mainTrace": [
            {
                "children": [
                    {
                        "children": [
                            {
                                "children": [],
                                "depth": 1,
                                "id": 1,
                                "order": 1
                            },
                            {
                                "children": [
                                    {
                                        "children": [],
                                        "depth": 2,
                                        "id": 3,
                                        "order": 3
                                    },
                                    {
                                        "children": [],
                                        "depth": 2,
                                        "id": 4,
                                        "order": 4
                                    }
                                ],
                                "depth": 1,
                                "id": 2,
                                "order": 2
                            },
                            {
                                "children": [
                                    {
                                        "children": [
                                            {
                                                "children": [],
                                                "depth": 3,
                                                "id": 7,
                                                "order": 7
                                            }
                                        ],
                                        "depth": 2,
                                        "id": 6,
                                        "order": 6
                                    },
                                    {
                                        "children": [],
                                        "depth": 2,
                                        "id": 8,
                                        "order": 8
                                    },
                                    {
                                        "children": [],
                                        "depth": 2,
                                        "id": 9,
                                        "order": 9
                                    },
                                    {
                                        "children": [],
                                        "depth": 2,
                                        "id": 10,
                                        "order": 10
                                    },
                                    {
                                        "children": [],
                                        "depth": 2,
                                        "id": 11,
                                        "order": 11
                                    }
                                ],
                                "depth": 1,
                                "id": 5,
                                "order": 5
                            }
                        ],
                        "depth": 0,
                        "id": 0,
                        "order": 0
                    }
                ],
                "depth": -1,
                "id": -1,
                "order": -1
            }
        ],
        "mainTraceNodeCount": 12,
        "parentIdMap": {
            "0": -1,
            "1": 0,
            "10": 5,
            "11": 5,
            "2": 0,
            "3": 2,
            "4": 2,
            "5": 0,
            "6": 5,
            "7": 6,
            "8": 5,
            "9": 5
        },
        "tidyTrace": [
            {
                "children": [
                    {
                        "children": [
                            {
                                "children": [
                                    {
                                        "children": [],
                                        "depth": 2,
                                        "id": 3,
                                        "order": 3
                                    },
                                    {
                                        "children": [],
                                        "depth": 2,
                                        "id": 4,
                                        "order": 4
                                    }
                                ],
                                "depth": 1,
                                "id": 2,
                                "order": 2
                            },
                            {
                                "children": [
                                    {
                                        "children": [
                                            {
                                                "children": [],
                                                "depth": 3,
                                                "id": 7,
                                                "order": 7
                                            }
                                        ],
                                        "depth": 2,
                                        "id": 6,
                                        "order": 6
                                    },
                                    {
                                        "children": [],
                                        "depth": 2,
                                        "id": 10,
                                        "order": 10
                                    },
                                    {
                                        "children": [],
                                        "depth": 2,
                                        "id": 11,
                                        "order": 11
                                    }
                                ],
                                "depth": 1,
                                "id": 5,
                                "order": 5
                            }
                        ],
                        "depth": 0,
                        "id": 0,
                        "order": 0
                    }
                ],
                "depth": -1,
                "id": -1,
                "order": -1
            }
        ],
        "tidyTraceNodeCount": 9
    },
    "state_change": {
        "stateChanges": [
            {
                "address": "0x55696efc7c9779d868ac34ac6b4a4c5fed61ac12",
                "erc": "ERC-20",
                "slots": [
                    {
                        "current": "0x0000000000000000000000000000000000000000000001e68303210c6da7fa85",
                        "key": "0x548342c4502cda1428ec12d9384a2330acc7943bbc6df2f47b47807ab04bc5a4",
                        "prev": "0x0000000000000000000000000000000000000000000001e5b9018c4552a40213"
                    },
                    {
                        "current": "0xfffffffffffffffffffffffffffffffffffffffffffffffcb90326a1aee4b563",
                        "key": "0x71850dc6c8951aede571a1cb2b1ec99f0f03065f96c3de24af09a5be88bf46d5",
                        "prev": "0xfffffffffffffffffffffffffffffffffffffffffffffffd8304bb68c9e8add5"
                    },
                    {
                        "current": "0x0000000000000000000000000000000000000000000000000000000000000000",
                        "key": "0x3ccc779cbb0f08ee339ed03234f190a933db49cf2363c2d3406f84e93f40952c",
                        "prev": "0x000000000000000000000000000000000000000000000000ca0194c71b03f872"
                    }
                ],
                "storageVariables": [
                    {
                        "name": "_balances",
                        "type": "mapping(address => uint256)",
                        "value": {
                            "pairs": [
                                {
                                    "key": "0xe03a36e18aeddad9cf778d5c3d6ea0b83ce7d577",
                                    "value": {
                                        "current": "8974558045404003826309",
                                        "prev": "8960001966350493024787",
                                        "typeTag": 1
                                    }
                                },
                                {
                                    "key": "0xe8e61db7918bd88e5ff764ad5393e87d7aaef9ad",
                                    "value": {
                                        "current": "0",
                                        "prev": "14556079053510801522",
                                        "typeTag": 1
                                    }
                                }
                            ],
                            "typeTag": 4
                        }
                    },
                    {
                        "name": "_allowances",
                        "type": "mapping(address => mapping(address => uint256))",
                        "value": {
                            "pairs": [
                                {
                                    "key": "0xe8e61db7918bd88e5ff764ad5393e87d7aaef9ad",
                                    "value": {
                                        "pairs": [
                                            {
                                                "key": "0x7a250d5630b4cf539739df2c5dacb4c659f2488d",
                                                "value": {
                                                    "current": "115792089237316195423570985008687907853269984665640564039397128573416104047971",
                                                    "prev": "115792089237316195423570985008687907853269984665640564039411684652469614849493",
                                                    "typeTag": 1
                                                }
                                            }
                                        ],
                                        "typeTag": 4
                                    }
                                }
                            ],
                            "typeTag": 4
                        }
                    }
                ]
            },
            {
                "address": "0x6b175474e89094c44da98b954eedeac495271d0f",
                "erc": "ERC-20",
                "slots": [
                    {
                        "current": "0x000000000000000000000000000000000000000000001da667728def314b1588",
                        "key": "0x3635613dd05bfa16cac37d718e9523fb8ade6aa92d9e1a26e7b99dca352316ba",
                        "prev": "0x000000000000000000000000000000000000000000001db2b2bbfa2881ebb239"
                    },
                    {
                        "current": "0x00000000000000000000000000000000000000000000014ef5415b3813e15be1",
                        "key": "0x207e707fe282cef0a36225003ac2a9d5090b602e6af1cb56a2fc89a306f0767d",
                        "prev": "0x000000000000000000000000000000000000000000000142a9f7eefec340bf30"
                    }
                ],
                "storageVariables": [
                    {
                        "name": "balanceOf",
                        "type": "mapping(address => uint256)",
                        "value": {
                            "pairs": [
                                {
                                    "key": "0xe03a36e18aeddad9cf778d5c3d6ea0b83ce7d577",
                                    "value": {
                                        "current": "140018241695847212062088",
                                        "prev": "140245027610951292793401",
                                        "typeTag": 1
                                    }
                                },
                                {
                                    "key": "0xe8e61db7918bd88e5ff764ad5393e87d7aaef9ad",
                                    "value": {
                                        "current": "6178885027328178609121",
                                        "prev": "5952099112224097877808",
                                        "typeTag": 1
                                    }
                                }
                            ],
                            "typeTag": 4
                        }
                    }
                ]
            },
            {
                "address": "0xe03a36e18aeddad9cf778d5c3d6ea0b83ce7d577",
                "erc": "ERC-20",
                "slots": [
                    {
                        "current": "0x5ffca37c000000001da667728def314b15880000000001e68303210c6da7fa85",
                        "key": "0x0000000000000000000000000000000000000000000000000000000000000008",
                        "prev": "0x5ffca300000000001db2b2bbfa2881ebb2390000000001e5b9018c4552a40213"
                    },
                    {
                        "current": "0x00000000000000000000000000000237f9e4cfa02cc51b28ed39dc98a69388b4",
                        "key": "0x0000000000000000000000000000000000000000000000000000000000000009",
                        "prev": "0x00000000000000000000000000000237f24feba30c1bcaeb313dcb5af21c3bdc"
                    },
                    {
                        "current": "0x00000000000000000000000000000000fbf70e6759955e549611f2fad2579896",
                        "key": "0x000000000000000000000000000000000000000000000000000000000000000a",
                        "prev": "0x00000000000000000000000000000000fbef2256375738c6dc7b09a4a0d25b96"
                    }
                ],
                "storageVariables": [
                    {
                        "name": "price0CumulativeLast",
                        "type": "uint256",
                        "value": {
                            "current": "193272267869955448362041289098842451708084",
                            "prev": "193262190189888077443697962635437543275484",
                            "typeTag": 1
                        }
                    },
                    {
                        "name": "price1CumulativeLast",
                        "type": "uint256",
                        "value": {
                            "current": "334919016408031917899727186261395871894",
                            "prev": "334877882323879328492947929530216110998",
                            "typeTag": 1
                        }
                    },
                    {
                        "name": "reserve0",
                        "type": "uint112",
                        "value": {
                            "current": "8974558045404003826309",
                            "prev": "8960001966350493024787",
                            "typeTag": 1
                        }
                    },
                    {
                        "name": "reserve1",
                        "type": "uint112",
                        "value": {
                            "current": "140018241695847212062088",
                            "prev": "140245027610951292793401",
                            "typeTag": 1
                        }
                    },
                    {
                        "name": "blockTimestampLast",
                        "type": "uint32",
                        "value": {
                            "current": "1610392444",
                            "prev": "1610392320",
                            "typeTag": 1
                        }
                    }
                ]
            }
        ]
    }
}