{
    "balance_change": {
        "balanceChanges": [
            {
                "account": "0x21b7e18dacde5c004a0a56e74f071ac3fb2e98ff",
                "assets": [
                    {
                        "address": "0xeeeeeeeeeeeeeeeeeeeeeeeeeeeeeeeeeeeeeeee",
                        "amount": "0.888566988137800879",
                        "iconUrl": "https://assets.blocksec.com/image/1663669189317-3.png",
                        "isERC1155": false,
                        "isERC721": false,
                        "sign": true,
                        "value": "2216.0595472625063656"
                    },
                    {
                        "address": "0x73576a927cd93a578a9dfd61c75671d97c779da7",
                        "amount": "1",
                        "iconUrl": "",
                        "isERC1155": false,
                        "isERC721": true,
                        "sign": false,
                        "tokenID": "4020",
                        "value": ""
                    },
                    {
                        "address": "0x73576a927cd93a578a9dfd61c75671d97c779da7",
                        "amount": "1",
                        "iconUrl": "",
                        "isERC1155": false,
                        "isERC721": true,
                        "sign": false,
                        "tokenID": "4019",
                        "value": ""
                    },
                    {
                        "address": "0x73576a927cd93a578a9dfd61c75671d97c779da7",
                        "amount": "1",
                        "iconUrl": "",
                        "isERC1155": false,
                        "isERC721": true,
                        "sign": false,
                        "tokenID": "4018",
                        "value": ""
                    },
                    {
                        "address": "0x73576a927cd93a578a9dfd61c75671d97c779da7",
                        "amount": "1",
                        "iconUrl": "",
                        "isERC1155": false,
                        "isERC721": true,
                        "sign": false,
                        "tokenID": "4017",
                        "value": ""
                    },
                    {
                        "address": "0x73576a927cd93a578a9dfd61c75671d97c779da7",
                        "amount": "1",
                        "iconUrl": "",
                        "isERC1155": false,
                        "isERC721": true,
                        "sign": false,
                        "tokenID": "5331",
                        "value": ""
                    }
                ]
            },
            {
                "account": "0x0000000000000000000000000000000000000000",
                "assets": [
                    {
                        "address": "0x73576a927cd93a578a9dfd61c75671d97c779da7",
                        "amount": "1",
                        "iconUrl": "",
                        "isERC1155": false,
                        "isERC721": true,
                        "sign": true,
                        "tokenID": "4019",
                        "value": ""
                    },
                    {
                        "address": "0x73576a927cd93a578a9dfd61c75671d97c779da7",
                        "amount": "1",
                        "iconUrl": "",
                        "isERC1155": false,
                        "isERC721": true,
                        "sign": true,
                        "tokenID": "4018",
                        "value": ""
                    },
                    {
                        "address": "0x73576a927cd93a578a9dfd61c75671d97c779da7",
                        "amount": "1",
                        "iconUrl": "",
                        "isERC1155": false,
                        "isERC721": true,
                        "sign": true,
                        "tokenID": "4017",
                        "value": ""
                    },
                    {
                        "address": "0x73576a927cd93a578a9dfd61c75671d97c779da7",
                        "amount": "1",
                        "iconUrl": "",
                        "isERC1155": false,
                        "isERC721": true,
                        "sign": true,
                        "tokenID": "5331",
                        "value": ""
                    },
                    {
                        "address": "0x73576a927cd93a578a9dfd61c75671d97c779da7",
                        "amount": "1",
                        "iconUrl": "",
                        "isERC1155": false,
                        "isERC721": true,
                        "sign": true,
                        "tokenID": "4020",
                        "value": ""
                    }
                ]
            },
            {
                "account": "0xc02aaa39b223fe8d0a0e5c4f27ead9083c756cc2",
                "assets": [
                    {
                        "address": "0xeeeeeeeeeeeeeeeeeeeeeeeeeeeeeeeeeeeeeeee",
                        "amount": "0.888566988137800879",
                        "iconUrl": "https://assets.blocksec.com/image/1663669189317-3.png",
                        "isERC1155": false,
                        "isERC721": false,
                        "sign": false,
                        "value": "2216.0595472625063656"
                    },
                    {
                        "address": "0xc02aaa39b223fe8d0a0e5c4f27ead9083c756cc2",
                        "amount": "0.888566988137800879",
                        "iconUrl": "https://assets.blocksec.com/icon/f1cb2d02c471d545bbc7722daf3277fd852d98e63d118771af7047bd8256c516.png",
                        "isERC1155": false,
                        "isERC721": false,
                        "sign": true,
                        "value": "2216.0595472625063656"
                    }
                ]
            },
            {
                "account": "0xcf96fcf38dfc404e42366f05bffda6336df5174f",
                "assets": [
                    {
                        "address": "0xc02aaa39b223fe8d0a0e5c4f27ead9083c756cc2",
                        "amount": "0.888566988137800879",
                        "iconUrl": "https://assets.blocksec.com/icon/f1cb2d02c471d545bbc7722daf3277fd852d98e63d118771af7047bd8256c516.png",
                        "isERC1155": false,
                        "isERC721": false,
                        "sign": false,
                        "value": "2216.0595472625063656"
                    }
                ]
            }
        ]
    },
    "profile": {
        "basic_info": {
            "baseFee": "27.832978224",
            "blockNumber": 19197957,
            "callData": "0x3593564c000000000000000000000000000000000000000000000000000000000000006000000000000000000000000000000000000000000000000000000000000000a00000000000000000000000000000000000000000000000000000000065c779eb0000000000000000000000000000000000000000000000000000000000000002000c000000000000000000000000000000000000000000000000000000000000000000000000000000000000000000000000000000000000000000000000000200000000000000000000000000000000000000000000000000000000000000400000000000000000000000000000000000000000000000000000000000000160000000000000000000000000000000000000000000000000000000000000010000000000000000000000000000000000000000000000000000000000000000020000000000000000000000000000000000000000000000004563918244f400000000000000000000000000000000000000000000000000000bb78f05ec18d96800000000000000000000000000000000000000000000000000000000000000a00000000000000000000000000000000000000000000000000000000000000001000000000000000000000000000000000000000000000000000000000000002b73576a927cd93a578a9dfd61c75671d97c779da7002710c02aaa39b223fe8d0a0e5c4f27ead9083c756cc2000000000000000000000000000000000000000000000000000000000000000000000000000000000000000000000000000000004000000000000000000000000000000000000000000000000000000000000000010000000000000000000000000000000000000000000000000bb78f05ec18d968",
            "debugEnable": true,
            "errorInfo": "",
            "eventCount": 9,
            "feeRecipient": "0x95222290dd7278aa3ddd389cc1e1d165cc4bafe5",
            "formatValue": "0",
            "gasLimit": 463689,
            "gasPrice": "27.931978224",
            "gasUsed": 304263,
            "intTxnCount": 11,
            "internalRevert": false,
            "internalRevertMessage": "",
            "isContractCreation": false,
            "isFlashloan": false,
            "maxFee": "35.8",
            "nonce": 4454,
            "overwritedBlockNumber": -1,
            "priorityFee": "0.099",
            "receiver": "0x3fc91a3afd70395cd496c647d5a6cc9d4b2b7fad",
            "revertMessage": "",
            "sender": "0x21b7e18dacde5c004a0a56e74f071ac3fb2e98ff",
            "simulationEnable": true,
            "sourceTxnHash": "0x817233f6363791641ba8b8e89fe14b43463c734f4b59abcfed03376909da5daf",
            "status": true,
            "timestamp": "2024-02-10T13:18:47Z",
            "transactionFee": "0.008498667490368912",
            "txnHash": "0x817233f6363791641ba8b8e89fe14b43463c734f4b59abcfed03376909da5daf",
            "txnIndex": 74,
            "type": 2,
            "value": "0"
        },
        "fund_flow": [
            {
                "amount": "0.888566988137800879",
                "from": "0xcf96fcf38dfc404e42366f05bffda6336df5174f",
                "id": 1,
                "isERC1155": false,
                "isERC721": false,
                "isReverted": false,
                "order": 1,
                "to": "0x3fc91a3afd70395cd496c647d5a6cc9d4b2b7fad",
                "token": "0xc02aaa39b223fe8d0a0e5c4f27ead9083c756cc2"
            },
            {
                "amount": "1",
                "from": "0x21b7e18dacde5c004a0a56e74f071ac3fb2e98ff",
                "id": 2,
                "isERC1155": false,
                "isERC721": true,
                "isReverted": false,
                "order": 2,
                "to": "0x0000000000000000000000000000000000000000",
                "token": "0x73576a927cd93a578a9dfd61c75671d97c779da7",
                "tokenID": "4020"
            },
            {
                "amount": "1",
                "from": "0x21b7e18dacde5c004a0a56e74f071ac3fb2e98ff",
                "id": 3,
                "isERC1155": false,
                "isERC721": true,
                "isReverted": false,
                "order": 3,
                "to": "0x0000000000000000000000000000000000000000",
                "token": "0x73576a927cd93a578a9dfd61c75671d97c779da7",
                "tokenID": "4019"
            },
            {
                "amount": "1",
                "from": "0x21b7e18dacde5c004a0a56e74f071ac3fb2e98ff",
                "id": 4,
                "isERC1155": false,
                "isERC721": true,
                "isReverted": false,
                "order": 4,
                "to": "0x0000000000000000000000000000000000000000",
                "token": "0x73576a927cd93a578a9dfd61c75671d97c779da7",
                "tokenID": "4018"
            },
            {
                "amount": "1",
                "from": "0x21b7e18dacde5c004a0a56e74f071ac3fb2e98ff",
                "id": 5,
                "isERC1155": false,
                "isERC721": true,
                "isReverted": false,
                "order": 5,
                "to": "0x0000000000000000000000000000000000000000",
                "token": "0x73576a927cd93a578a9dfd61c75671d97c779da7",
                "tokenID": "4017"
            },
            {
                "amount": "1",
                "from": "0x21b7e18dacde5c004a0a56e74f071ac3fb2e98ff",
                "id": 6,
                "isERC1155": false,
                "isERC721": true,
                "isReverted": false,
                "order": 6,
                "to": "0x0000000000000000000000000000000000000000",
                "token": "0x73576a927cd93a578a9dfd61c75671d97c779da7",
                "tokenID": "5331"
            },
            {
                "amount": "0.888566988137800879",
                "from": "0xc02aaa39b223fe8d0a0e5c4f27ead9083c756cc2",
                "id": 7,
                "isERC1155": false,
                "isERC721": false,
                "isReverted": false,
                "order": 7,
                "to": "0x3fc91a3afd70395cd496c647d5a6cc9d4b2b7fad",
                "token": "0xeeeeeeeeeeeeeeeeeeeeeeeeeeeeeeeeeeeeeeee"
            },
            {
                "amount": "0.888566988137800879",
                "from": "0x3fc91a3afd70395cd496c647d5a6cc9d4b2b7fad",
                "id": 8,
                "isERC1155": false,
                "isERC721": false,
                "isReverted": false,
                "order": 8,
                "to": "0xc02aaa39b223fe8d0a0e5c4f27ead9083c756cc2",
                "token": "0xc02aaa39b223fe8d0a0e5c4f27ead9083c756cc2"
            },
            {
                "amount": "0.888566988137800879",
                "from": "0x3fc91a3afd70395cd496c647d5a6cc9d4b2b7fad",
                "id": 9,
                "isERC1155": false,
                "isERC721": false,
                "isReverted": false,
                "order": 9,
                "to": "0x21b7e18dacde5c004a0a56e74f071ac3fb2e98ff",
                "token": "0xeeeeeeeeeeeeeeeeeeeeeeeeeeeeeeeeeeeeeeee"
            }
        ],
        "token_infos": [
            {
                "address": "0xc02aaa39b223fe8d0a0e5c4f27ead9083c756cc2",
                "decimals": 18
            },
            {
                "address": "0xeeeeeeeeeeeeeeeeeeeeeeeeeeeeeeeeeeeeeeee",
                "decimals": 18
            }
        ]
    },
    "address_label": {
        "labels": [
            {
                "address": "0x0000000000000000000000000000000000000003",
                "label": "Precompiled"
            },
            {
                "address": "0xeeeeeeeeeeeeeeeeeeeeeeeeeeeeeeeeeeeeeeee",
                "label": "Ether"
            },
            {
                "address": "0x73576a927cd93a578a9dfd61c75671d97c779da7",
                "label": "FORGE"
            },
            {
                "address": "0x0000000000000000000000000000000000000001",
                "label": "Precompiled"
            },
            {
                "address": "0x0000000000000000000000000000000000000002",
                "label": "Precompiled"
            },
            {
                "address": "0x0000000000000000000000000000000000000004",
                "label": "Precompiled"
            },
            {
                "address": "0x000000000022d473030f116ddee9f6b43ac78ba3",
                "label": "Permit2"
            },
            {
                "address": "0xcf96fcf38dfc404e42366f05bffda6336df5174f",
                "label": "Uniswap V3: FORGE"
            },
            {
                "address": "0x3fc91a3afd70395cd496c647d5a6cc9d4b2b7fad",
                "label": "Uniswap: Universal Router"
            },
            {
                "address": "0xc02aaa39b223fe8d0a0e5c4f27ead9083c756cc2",
                "label": "Wrapped Ether (WETH)"
            }
        ]
    },
    "trace": {
        "accountLabels": null,
        "dataMap": {
            "-1": {
                "invocation": {
                    "address": "0x21b7e18dacde5c004a0a56e74f071ac3fb2e98ff",
                    "callData": "",
                    "decodedMethod": null,
                    "errorInfo": "",
                    "fromAddress": "",
                    "gasUsed": 0,
                    "id": -1,
                    "methodDecoded": false,
                    "operation": "",
                    "output": "",
                    "revert": false,
                    "revertMessage": "",
                    "selector": "",
                    "status": false,
                    "value": ""
                },
                "nodeType": 0
            },
            "0": {
                "invocation": {
                    "address": "0x3fc91a3afd70395cd496c647d5a6cc9d4b2b7fad",
                    "callData": "0x000000000000000000000000000000000000000000000000000000000000006000000000000000000000000000000000000000000000000000000000000000a00000000000000000000000000000000000000000000000000000000065c779eb0000000000000000000000000000000000000000000000000000000000000002000c000000000000000000000000000000000000000000000000000000000000000000000000000000000000000000000000000000000000000000000000000200000000000000000000000000000000000000000000000000000000000000400000000000000000000000000000000000000000000000000000000000000160000000000000000000000000000000000000000000000000000000000000010000000000000000000000000000000000000000000000000000000000000000020000000000000000000000000000000000000000000000004563918244f400000000000000000000000000000000000000000000000000000bb78f05ec18d96800000000000000000000000000000000000000000000000000000000000000a00000000000000000000000000000000000000000000000000000000000000001000000000000000000000000000000000000000000000000000000000000002b73576a927cd93a578a9dfd61c75671d97c779da7002710c02aaa39b223fe8d0a0e5c4f27ead9083c756cc2000000000000000000000000000000000000000000000000000000000000000000000000000000000000000000000000000000004000000000000000000000000000000000000000000000000000000000000000010000000000000000000000000000000000000000000000000bb78f05ec18d968",
                    "decodedMethod": {
                        "callParams": [
                            {
                                "name": "commands",
                                "type": "bytes",
                                "value": "0x000c"
                            },
                            {
                                "name": "inputs",
                                "type": "bytes[]",
                                "value": [
                                    "0x00000000000000000000000000000000000000000000000000000000000000020000000000000000000000000000000000000000000000004563918244f400000000000000000000000000000000000000000000000000000bb78f05ec18d96800000000000000000000000000000000000000000000000000000000000000a00000000000000000000000000000000000000000000000000000000000000001000000000000000000000000000000000000000000000000000000000000002b73576a927cd93a578a9dfd61c75671d97c779da7002710c02aaa39b223fe8d0a0e5c4f27ead9083c756cc2000000000000000000000000000000000000000000",
                                    "0x00000000000000000000000000000000000000000000000000000000000000010000000000000000000000000000000000000000000000000bb78f05ec18d968"
                                ]
                            },
                            {
                                "name": "deadline",
                                "type": "uint256",
                                "value": "1,707,571,691"
                            }
                        ],
                        "constructorArguments": "",
                        "name": "execute",
                        "returnParams": [],
                        "signature": "execute(bytes,bytes[],uint256)"
                    },
                    "errorInfo": "",
                    "fromAddress": "0x21b7e18dacde5c004a0a56e74f071ac3fb2e98ff",
                    "gasUsed": 304263,
                    "id": 0,
                    "methodDecoded": true,
                    "operation": "CALL",
                    "output": "",
                    "revert": false,
                    "revertMessage": "",
                    "selector": "0x3593564c",
                    "status": true,
                    "value": "0"
                },
                "nodeType": 0
            },
            "1": {
                "invocation": {
                    "address": "0xcf96fcf38dfc404e42366f05bffda6336df5174f",
                    "callData": "0x0000000000000000000000003fc91a3afd70395cd496c647d5a6cc9d4b2b7fad00000000000000000000000000000000000000000000000000000000000000010000000000000000000000000000000000000000000000004563918244f4000000000000000000000000000000000000000000000000000000000001000276a400000000000000000000000000000000000000000000000000000000000000a000000000000000000000000000000000000000000000000000000000000000a0000000000000000000000000000000000000000000000000000000000000004000000000000000000000000021b7e18dacde5c004a0a56e74f071ac3fb2e98ff000000000000000000000000000000000000000000000000000000000000002b73576a927cd93a578a9dfd61c75671d97c779da7002710c02aaa39b223fe8d0a0e5c4f27ead9083c756cc2000000000000000000000000000000000000000000",
                    "decodedMethod": {
                        "callParams": [
                            {
                                "name": "recipient",
                                "type": "address",
                                "value": "0x3fc91a3afd70395cd496c647d5a6cc9d4b2b7fad"
                            },
                            {
                                "name": "zeroForOne",
                                "type": "bool",
                                "value": true
                            },
                            {
                                "name": "amountSpecified",
                                "type": "int256",
                                "value": "5,000,000,000,000,000,000"
                            },
                            {
                                "name": "sqrtPriceLimitX96",
                                "type": "uint160",
                                "value": "4,295,128,740"
                            },
                            {
                                "name": "data",
                                "type": "bytes",
                                "value": "0x000000000000000000000000000000000000000000000000000000000000004000000000000000000000000021b7e18dacde5c004a0a56e74f071ac3fb2e98ff000000000000000000000000000000000000000000000000000000000000002b73576a927cd93a578a9dfd61c75671d97c779da7002710c02aaa39b223fe8d0a0e5c4f27ead9083c756cc2000000000000000000000000000000000000000000"
                            }
                        ],
                        "constructorArguments": "",
                        "name": "swap",
                        "returnParams": [
                            {
                                "name": "amount0",
                                "type": "int256",
                                "value": "5,000,000,000,000,000,000"
                            },
                            {
                                "name": "amount1",
                                "type": "int256",
                                "value": "-888,566,988,137,800,879"
                            }
                        ],
                        "signature": "swap(address,bool,int256,uint160,bytes)"
                    },
                    "errorInfo": "",
                    "fromAddress": "0x3fc91a3afd70395cd496c647d5a6cc9d4b2b7fad",
                    "gasUsed": 325718,
                    "id": 1,
                    "methodDecoded": true,
                    "operation": "CALL",
                    "output": "0x0000000000000000000000000000000000000000000000004563918244f40000fffffffffffffffffffffffffffffffffffffffffffffffff3ab2d0838e85b51",
                    "revert": false,
                    "revertMessage": "",
                    "selector": "0x128acb08",
                    "status": true,
                    "value": "0"
                },
                "nodeType": 0
            },
            "10": {
                "event": {
                    "contract": "0x73576a927cd93a578a9dfd61c75671d97c779da7",
                    "decodedLog": {
                        "name": "Transfer",
                        "params": [
                            {
                                "name": "from",
                                "type": "address",
                                "value": "0x21b7e18dacde5c004a0a56e74f071ac3fb2e98ff"
                            },
                            {
                                "name": "to",
                                "type": "address",
                                "value": "0x0000000000000000000000000000000000000000"
                            },
                            {
                                "decimalAvailable": true,
                                "name": "id",
                                "type": "uint256",
                                "value": "4,018"
                            }
                        ],
                        "signature": "Transfer(address,address,uint256)"
                    },
                    "id": 10,
                    "logData": "0x",
                    "logDecoded": true,
                    "operation": "EVENT",
                    "revert": false,
                    "status": true,
                    "topics": [
                        "0xddf252ad1be2c89b69c2b068fc378daa952ba7f163c4a11628f55a4df523b3ef",
                        "0x00000000000000000000000021b7e18dacde5c004a0a56e74f071ac3fb2e98ff",
                        "0x0000000000000000000000000000000000000000000000000000000000000000",
                        "0x0000000000000000000000000000000000000000000000000000000000000fb2"
                    ]
                },
                "nodeType": 1
            },
            "11": {
                "event": {
                    "contract": "0x73576a927cd93a578a9dfd61c75671d97c779da7",
                    "decodedLog": {
                        "name": "Transfer",
                        "params": [
                            {
                                "name": "from",
                                "type": "address",
                                "value": "0x21b7e18dacde5c004a0a56e74f071ac3fb2e98ff"
                            },
                            {
                                "name": "to",
                                "type": "address",
                                "value": "0x0000000000000000000000000000000000000000"
                            },
                            {
                                "decimalAvailable": true,
                                "name": "id",
                                "type": "uint256",
                                "value": "4,017"
                            }
                        ],
                        "signature": "Transfer(address,address,uint256)"
                    },
                    "id": 11,
                    "logData": "0x",
                    "logDecoded": true,
                    "operation": "EVENT",
                    "revert": false,
                    "status": true,
                    "topics": [
                        "0xddf252ad1be2c89b69c2b068fc378daa952ba7f163c4a11628f55a4df523b3ef",
                        "0x00000000000000000000000021b7e18dacde5c004a0a56e74f071ac3fb2e98ff",
                        "0x0000000000000000000000000000000000000000000000000000000000000000",
                        "0x0000000000000000000000000000000000000000000000000000000000000fb1"
                    ]
                },
                "nodeType": 1
            },
            "12": {
                "event": {
                    "contract": "0x73576a927cd93a578a9dfd61c75671d97c779da7",
                    "decodedLog": {
                        "name": "Transfer",
                        "params": [
                            {
                                "name": "from",
                                "type": "address",
                                "value": "0x21b7e18dacde5c004a0a56e74f071ac3fb2e98ff"
                            },
                            {
                                "name": "to",
                                "type": "address",
                                "value": "0x0000000000000000000000000000000000000000"
                            },
                            {
                                "decimalAvailable": true,
                                "name": "id",
                                "type": "uint256",
                                "value": "5,331"
                            }
                        ],
                        "signature": "Transfer(address,address,uint256)"
                    },
                    "id": 12,
                    "logData": "0x",
                    "logDecoded": true,
                    "operation": "EVENT",
                    "revert": false,
                    "status": true,
                    "topics": [
                        "0xddf252ad1be2c89b69c2b068fc378daa952ba7f163c4a11628f55a4df523b3ef",
                        "0x00000000000000000000000021b7e18dacde5c004a0a56e74f071ac3fb2e98ff",
                        "0x0000000000000000000000000000000000000000000000000000000000000000",
                        "0x00000000000000000000000000000000000000000000000000000000000014d3"
                    ]
                },
                "nodeType": 1
            },
            "13": {
                "event": {
                    "contract": "0x73576a927cd93a578a9dfd61c75671d97c779da7",
                    "decodedLog": {
                        "name": "ERC20Transfer",
                        "params": [
                            {
                                "name": "from",
                                "type": "address",
                                "value": "0x21b7e18dacde5c004a0a56e74f071ac3fb2e98ff"
                            },
                            {
                                "name": "to",
                                "type": "address",
                                "value": "0xcf96fcf38dfc404e42366f05bffda6336df5174f"
                            },
                            {
                                "name": "amount",
                                "type": "uint256",
                                "value": "5,000,000,000,000,000,000"
                            }
                        ],
                        "signature": "ERC20Transfer(address,address,uint256)"
                    },
                    "id": 13,
                    "logData": "0x0000000000000000000000000000000000000000000000004563918244f40000",
                    "logDecoded": true,
                    "operation": "EVENT",
                    "revert": false,
                    "status": true,
                    "topics": [
                        "0xe59fdd36d0d223c0c7d996db7ad796880f45e1936cb0bb7ac102e7082e031487",
                        "0x00000000000000000000000021b7e18dacde5c004a0a56e74f071ac3fb2e98ff",
                        "0x000000000000000000000000cf96fcf38dfc404e42366f05bffda6336df5174f"
                    ]
                },
                "nodeType": 1
            },
            "14": {
                "invocation": {
                    "address": "0x73576a927cd93a578a9dfd61c75671d97c779da7",
                    "callData": "0x000000000000000000000000cf96fcf38dfc404e42366f05bffda6336df5174f",
                    "decodedMethod": {
                        "callParams": [
                            {
                                "name": "",
                                "type": "address",
                                "value": "0xcf96fcf38dfc404e42366f05bffda6336df5174f"
                            }
                        ],
                        "constructorArguments": "",
                        "name": "balanceOf",
                        "returnParams": [
                            {
                                "decimalAvailable": true,
                                "name": "",
                                "type": "uint256",
                                "value": "397,973,069,606,824,911,125"
                            }
                        ],
                        "signature": "balanceOf(address)"
                    },
                    "errorInfo": "",
                    "fromAddress": "0xcf96fcf38dfc404e42366f05bffda6336df5174f",
                    "gasUsed": 627,
                    "id": 14,
                    "methodDecoded": true,
                    "operation": "STATICCALL",
                    "output": "0x00000000000000000000000000000000000000000000001592fc5e41769b2115",
                    "revert": false,
                    "revertMessage": "",
                    "selector": "0x70a08231",
                    "status": true,
                    "value": "0"
                },
                "nodeType": 0
            },
            "15": {
                "event": {
                    "contract": "0xcf96fcf38dfc404e42366f05bffda6336df5174f",
                    "decodedLog": {
                        "name": "Swap",
                        "params": [
                            {
                                "name": "sender",
                                "type": "address",
                                "value": "0x3fc91a3afd70395cd496c647d5a6cc9d4b2b7fad"
                            },
                            {
                                "name": "recipient",
                                "type": "address",
                                "value": "0x3fc91a3afd70395cd496c647d5a6cc9d4b2b7fad"
                            },
                            {
                                "name": "amount0",
                                "type": "int256",
                                "value": "5,000,000,000,000,000,000"
                            },
                            {
                                "name": "amount1",
                                "type": "int256",
                                "value": "-888,566,988,137,800,879"
                            },
                            {
                                "name": "sqrtPriceX96",
                                "type": "uint160",
                                "value": "33,331,599,858,489,192,404,572,998,328"
                            },
                            {
                                "name": "liquidity",
                                "type": "uint128",
                                "value": "148,538,392,469,913,039,079"
                            },
                            {
                                "name": "tick",
                                "type": "int24",
                                "value": "-17,318"
                            }
                        ],
                        "signature": "Swap(address,address,int256,int256,uint160,uint128,int24)"
                    },
                    "id": 15,
                    "logData": "0x0000000000000000000000000000000000000000000000004563918244f40000fffffffffffffffffffffffffffffffffffffffffffffffff3ab2d0838e85b5100000000000000000000000000000000000000006bb340d0f317651a6dec8ab80000000000000000000000000000000000000000000000080d6260f614b970e7ffffffffffffffffffffffffffffffffffffffffffffffffffffffffffffbc5a",
                    "logDecoded": true,
                    "operation": "EVENT",
                    "revert": false,
                    "status": true,
                    "topics": [
                        "0xc42079f94a6350d7e6235f29174924f928cc2ac818eb64fed8004e115fbcca67",
                        "0x0000000000000000000000003fc91a3afd70395cd496c647d5a6cc9d4b2b7fad",
                        "0x0000000000000000000000003fc91a3afd70395cd496c647d5a6cc9d4b2b7fad"
                    ]
                },
                "nodeType": 1
            },
            "16": {
                "invocation": {
                    "address": "0xc02aaa39b223fe8d0a0e5c4f27ead9083c756cc2",
                    "callData": "0x0000000000000000000000003fc91a3afd70395cd496c647d5a6cc9d4b2b7fad",
                    "decodedMethod": {
                        "callParams": [
                            {
                                "name": "",
                                "type": "address",
                                "value": "0x3fc91a3afd70395cd496c647d5a6cc9d4b2b7fad"
                            }
                        ],
                        "constructorArguments": "",
                        "name": "balanceOf",
                        "returnParams": [
                            {
                                "decimalAvailable": true,
                                "name": "",
                                "type": "uint256",
                                "value": "888,566,988,137,800,879"
                            }
                        ],
                        "signature": "balanceOf(address)"
                    },
                    "errorInfo": "",
                    "fromAddress": "0x3fc91a3afd70395cd496c647d5a6cc9d4b2b7fad",
                    "gasUsed": 534,
                    "id": 16,
                    "methodDecoded": true,
                    "operation": "STATICCALL",
                    "output": "0x0000000000000000000000000000000000000000000000000c54d2f7c717a4af",
                    "revert": false,
                    "revertMessage": "",
                    "selector": "0x70a08231",
                    "status": true,
                    "value": "0"
                },
                "nodeType": 0
            },
            "17": {
                "invocation": {
                    "address": "0xc02aaa39b223fe8d0a0e5c4f27ead9083c756cc2",
                    "callData": "0x0000000000000000000000000000000000000000000000000c54d2f7c717a4af",
                    "decodedMethod": {
                        "callParams": [
                            {
                                "name": "wad",
                                "type": "uint256",
                                "value": "888,566,988,137,800,879"
                            }
                        ],
                        "constructorArguments": "",
                        "name": "withdraw",
                        "returnParams": [],
                        "signature": "withdraw(uint256)"
                    },
                    "errorInfo": "",
                    "fromAddress": "0x3fc91a3afd70395cd496c647d5a6cc9d4b2b7fad",
                    "gasUsed": 9220,
                    "id": 17,
                    "methodDecoded": true,
                    "operation": "CALL",
                    "output": "",
                    "revert": false,
                    "revertMessage": "",
                    "selector": "0x2e1a7d4d",
                    "status": true,
                    "value": "0"
                },
                "nodeType": 0
            },
            "18": {
                "invocation": {
                    "address": "0x3fc91a3afd70395cd496c647d5a6cc9d4b2b7fad",
                    "callData": "0x",
                    "decodedMethod": null,
                    "errorInfo": "",
                    "fromAddress": "0xc02aaa39b223fe8d0a0e5c4f27ead9083c756cc2",
                    "gasUsed": 80,
                    "id": 18,
                    "methodDecoded": false,
                    "operation": "CALL",
                    "output": "",
                    "revert": false,
                    "revertMessage": "",
                    "selector": "fallback",
                    "status": true,
                    "value": "0.888566988137800879"
                },
                "nodeType": 0
            },
            "19": {
                "event": {
                    "contract": "0xc02aaa39b223fe8d0a0e5c4f27ead9083c756cc2",
                    "decodedLog": {
                        "name": "Withdrawal",
                        "params": [
                            {
                                "name": "src",
                                "type": "address",
                                "value": "0x3fc91a3afd70395cd496c647d5a6cc9d4b2b7fad"
                            },
                            {
                                "name": "wad",
                                "type": "uint256",
                                "value": "888,566,988,137,800,879"
                            }
                        ],
                        "signature": "Withdrawal(address,uint256)"
                    },
                    "id": 19,
                    "logData": "0x0000000000000000000000000000000000000000000000000c54d2f7c717a4af",
                    "logDecoded": true,
                    "operation": "EVENT",
                    "revert": false,
                    "status": true,
                    "topics": [
                        "0x7fcf532c15f0a6db0bd6d0e038bea71d30d808c7d98cb3bf7268a95bf5081b65",
                        "0x0000000000000000000000003fc91a3afd70395cd496c647d5a6cc9d4b2b7fad"
                    ]
                },
                "nodeType": 1
            },
            "2": {
                "invocation": {
                    "address": "0xc02aaa39b223fe8d0a0e5c4f27ead9083c756cc2",
                    "callData": "0x0000000000000000000000003fc91a3afd70395cd496c647d5a6cc9d4b2b7fad0000000000000000000000000000000000000000000000000c54d2f7c717a4af",
                    "decodedMethod": {
                        "callParams": [
                            {
                                "name": "dst",
                                "type": "address",
                                "value": "0x3fc91a3afd70395cd496c647d5a6cc9d4b2b7fad"
                            },
                            {
                                "decimalAvailable": true,
                                "name": "wad",
                                "type": "uint256",
                                "value": "888,566,988,137,800,879"
                            }
                        ],
                        "constructorArguments": "",
                        "name": "transfer",
                        "returnParams": [
                            {
                                "name": "",
                                "type": "bool",
                                "value": true
                            }
                        ],
                        "signature": "transfer(address,uint256)"
                    },
                    "errorInfo": "",
                    "fromAddress": "0xcf96fcf38dfc404e42366f05bffda6336df5174f",
                    "gasUsed": 29962,
                    "id": 2,
                    "methodDecoded": true,
                    "operation": "CALL",
                    "output": "0x0000000000000000000000000000000000000000000000000000000000000001",
                    "revert": false,
                    "revertMessage": "",
                    "selector": "0xa9059cbb",
                    "status": true,
                    "value": "0"
                },
                "nodeType": 0
            },
            "20": {
                "invocation": {
                    "address": "0x21b7e18dacde5c004a0a56e74f071ac3fb2e98ff",
                    "callData": "0x",
                    "decodedMethod": null,
                    "errorInfo": "",
                    "fromAddress": "0x3fc91a3afd70395cd496c647d5a6cc9d4b2b7fad",
                    "gasUsed": 0,
                    "id": 20,
                    "methodDecoded": false,
                    "operation": "CALL",
                    "output": "",
                    "revert": false,
                    "revertMessage": "",
                    "selector": "fallback",
                    "status": true,
                    "value": "0.888566988137800879"
                },
                "nodeType": 0
            },
            "3": {
                "event": {
                    "contract": "0xc02aaa39b223fe8d0a0e5c4f27ead9083c756cc2",
                    "decodedLog": {
                        "name": "Transfer",
                        "params": [
                            {
                                "name": "src",
                                "type": "address",
                                "value": "0xcf96fcf38dfc404e42366f05bffda6336df5174f"
                            },
                            {
                                "name": "dst",
                                "type": "address",
                                "value": "0x3fc91a3afd70395cd496c647d5a6cc9d4b2b7fad"
                            },
                            {
                                "decimalAvailable": true,
                                "name": "wad",
                                "type": "uint256",
                                "value": "888,566,988,137,800,879"
                            }
                        ],
                        "signature": "Transfer(address,address,uint256)"
                    },
                    "id": 3,
                    "logData": "0x0000000000000000000000000000000000000000000000000c54d2f7c717a4af",
                    "logDecoded": true,
                    "operation": "EVENT",
                    "revert": false,
                    "status": true,
                    "topics": [
                        "0xddf252ad1be2c89b69c2b068fc378daa952ba7f163c4a11628f55a4df523b3ef",
                        "0x000000000000000000000000cf96fcf38dfc404e42366f05bffda6336df5174f",
                        "0x0000000000000000000000003fc91a3afd70395cd496c647d5a6cc9d4b2b7fad"
                    ]
                },
                "nodeType": 1
            },
            "4": {
                "invocation": {
                    "address": "0x73576a927cd93a578a9dfd61c75671d97c779da7",
                    "callData": "0x000000000000000000000000cf96fcf38dfc404e42366f05bffda6336df5174f",
                    "decodedMethod": {
                        "callParams": [
                            {
                                "name": "",
                                "type": "address",
                                "value": "0xcf96fcf38dfc404e42366f05bffda6336df5174f"
                            }
                        ],
                        "constructorArguments": "",
                        "name": "balanceOf",
                        "returnParams": [
                            {
                                "decimalAvailable": true,
                                "name": "",
                                "type": "uint256",
                                "value": "392,973,069,606,824,911,125"
                            }
                        ],
                        "signature": "balanceOf(address)"
                    },
                    "errorInfo": "",
                    "fromAddress": "0xcf96fcf38dfc404e42366f05bffda6336df5174f",
                    "gasUsed": 2627,
                    "id": 4,
                    "methodDecoded": true,
                    "operation": "STATICCALL",
                    "output": "0x0000000000000000000000000000000000000000000000154d98ccbf31a72115",
                    "revert": false,
                    "revertMessage": "",
                    "selector": "0x70a08231",
                    "status": true,
                    "value": "0"
                },
                "nodeType": 0
            },
            "5": {
                "invocation": {
                    "address": "0x3fc91a3afd70395cd496c647d5a6cc9d4b2b7fad",
                    "callData": "0x0000000000000000000000000000000000000000000000004563918244f40000fffffffffffffffffffffffffffffffffffffffffffffffff3ab2d0838e85b51000000000000000000000000000000000000000000000000000000000000006000000000000000000000000000000000000000000000000000000000000000a0000000000000000000000000000000000000000000000000000000000000004000000000000000000000000021b7e18dacde5c004a0a56e74f071ac3fb2e98ff000000000000000000000000000000000000000000000000000000000000002b73576a927cd93a578a9dfd61c75671d97c779da7002710c02aaa39b223fe8d0a0e5c4f27ead9083c756cc2000000000000000000000000000000000000000000",
                    "decodedMethod": {
                        "callParams": [
                            {
                                "name": "amount0Delta",
                                "type": "int256",
                                "value": "5,000,000,000,000,000,000"
                            },
                            {
                                "name": "amount1Delta",
                                "type": "int256",
                                "value": "-888,566,988,137,800,879"
                            },
                            {
                                "name": "data",
                                "type": "bytes",
                                "value": "0x000000000000000000000000000000000000000000000000000000000000004000000000000000000000000021b7e18dacde5c004a0a56e74f071ac3fb2e98ff000000000000000000000000000000000000000000000000000000000000002b73576a927cd93a578a9dfd61c75671d97c779da7002710c02aaa39b223fe8d0a0e5c4f27ead9083c756cc2000000000000000000000000000000000000000000"
                            }
                        ],
                        "constructorArguments": "",
                        "name": "uniswapV3SwapCallback",
                        "returnParams": [],
                        "signature": "uniswapV3SwapCallback(int256,int256,bytes)"
                    },
                    "errorInfo": "",
                    "fromAddress": "0xcf96fcf38dfc404e42366f05bffda6336df5174f",
                    "gasUsed": 252190,
                    "id": 5,
                    "methodDecoded": true,
                    "operation": "CALL",
                    "output": "",
                    "revert": false,
                    "revertMessage": "",
                    "selector": "0xfa461e33",
                    "status": true,
                    "value": "0"
                },
                "nodeType": 0
            },
            "6": {
                "invocation": {
                    "address": "0x000000000022d473030f116ddee9f6b43ac78ba3",
                    "callData": "0x00000000000000000000000021b7e18dacde5c004a0a56e74f071ac3fb2e98ff000000000000000000000000cf96fcf38dfc404e42366f05bffda6336df5174f0000000000000000000000000000000000000000000000004563918244f4000000000000000000000000000073576a927cd93a578a9dfd61c75671d97c779da7",
                    "decodedMethod": {
                        "callParams": [
                            {
                                "name": "from",
                                "type": "address",
                                "value": "0x21b7e18dacde5c004a0a56e74f071ac3fb2e98ff"
                            },
                            {
                                "name": "to",
                                "type": "address",
                                "value": "0xcf96fcf38dfc404e42366f05bffda6336df5174f"
                            },
                            {
                                "name": "amount",
                                "type": "uint160",
                                "value": "5,000,000,000,000,000,000"
                            },
                            {
                                "name": "token",
                                "type": "address",
                                "value": "0x73576a927cd93a578a9dfd61c75671d97c779da7"
                            }
                        ],
                        "constructorArguments": "",
                        "name": "transferFrom",
                        "returnParams": [],
                        "signature": "transferFrom(address,address,uint160,address)"
                    },
                    "errorInfo": "",
                    "fromAddress": "0x3fc91a3afd70395cd496c647d5a6cc9d4b2b7fad",
                    "gasUsed": 247169,
                    "id": 6,
                    "methodDecoded": true,
                    "operation": "CALL",
                    "output": "",
                    "revert": false,
                    "revertMessage": "",
                    "selector": "0x36c78516",
                    "status": true,
                    "value": "0"
                },
                "nodeType": 0
            },
            "7": {
                "invocation": {
                    "address": "0x73576a927cd93a578a9dfd61c75671d97c779da7",
                    "callData": "0x00000000000000000000000021b7e18dacde5c004a0a56e74f071ac3fb2e98ff000000000000000000000000cf96fcf38dfc404e42366f05bffda6336df5174f0000000000000000000000000000000000000000000000004563918244f40000",
                    "decodedMethod": {
                        "callParams": [
                            {
                                "name": "from",
                                "type": "address",
                                "value": "0x21b7e18dacde5c004a0a56e74f071ac3fb2e98ff"
                            },
                            {
                                "name": "to",
                                "type": "address",
                                "value": "0xcf96fcf38dfc404e42366f05bffda6336df5174f"
                            },
                            {
                                "decimalAvailable": true,
                                "name": "amountOrId",
                                "type": "uint256",
                                "value": "5,000,000,000,000,000,000"
                            }
                        ],
                        "constructorArguments": "",
                        "name": "transferFrom",
                        "returnParams": [],
                        "signature": "transferFrom(address,address,uint256)"
                    },
                    "errorInfo": "",
                    "fromAddress": "0x000000000022d473030f116ddee9f6b43ac78ba3",
                    "gasUsed": 243962,
                    "id": 7,
                    "methodDecoded": true,
                    "operation": "CALL",
                    "output": "",
                    "revert": false,
                    "revertMessage": "",
                    "selector": "0x23b872dd",
                    "status": true,
                    "value": "0"
                },
                "nodeType": 0
            },
            "8": {
                "event": {
                    "contract": "0x73576a927cd93a578a9dfd61c75671d97c779da7",
                    "decodedLog": {
                        "name": "Transfer",
                        "params": [
                            {
                                "name": "from",
                                "type": "address",
                                "value": "0x21b7e18dacde5c004a0a56e74f071ac3fb2e98ff"
                            },
                            {
                                "name": "to",
                                "type": "address",
                                "value": "0x0000000000000000000000000000000000000000"
                            },
                            {
                                "decimalAvailable": true,
                                "name": "id",
                                "type": "uint256",
                                "value": "4,020"
                            }
                        ],
                        "signature": "Transfer(address,address,uint256)"
                    },
                    "id": 8,
                    "logData": "0x",
                    "logDecoded": true,
                    "operation": "EVENT",
                    "revert": false,
                    "status": true,
                    "topics": [
                        "0xddf252ad1be2c89b69c2b068fc378daa952ba7f163c4a11628f55a4df523b3ef",
                        "0x00000000000000000000000021b7e18dacde5c004a0a56e74f071ac3fb2e98ff",
                        "0x0000000000000000000000000000000000000000000000000000000000000000",
                        "0x0000000000000000000000000000000000000000000000000000000000000fb4"
                    ]
                },
                "nodeType": 1
            },
            "9": {
                "event": {
                    "contract": "0x73576a927cd93a578a9dfd61c75671d97c779da7",
                    "decodedLog": {
                        "name": "Transfer",
                        "params": [
                            {
                                "name": "from",
                                "type": "address",
                                "value": "0x21b7e18dacde5c004a0a56e74f071ac3fb2e98ff"
                            },
                            {
                                "name": "to",
                                "type": "address",
                                "value": "0x0000000000000000000000000000000000000000"
                            },
                            {
                                "decimalAvailable": true,
                                "name": "id",
                                "type": "uint256",
                                "value": "4,019"
                            }
                        ],
                        "signature": "Transfer(address,address,uint256)"
                    },
                    "id": 9,
                    "logData": "0x",
                    "logDecoded": true,
                    "operation": "EVENT",
                    "revert": false,
                    "status": true,
                    "topics": [
                        "0xddf252ad1be2c89b69c2b068fc378daa952ba7f163c4a11628f55a4df523b3ef",
                        "0x00000000000000000000000021b7e18dacde5c004a0a56e74f071ac3fb2e98ff",
                        "0x0000000000000000000000000000000000000000000000000000000000000000",
                        "0x0000000000000000000000000000000000000000000000000000000000000fb3"
                    ]
                },
                "nodeType": 1
            }
        },
        "gasFlame": [
            {
                "children": [
                    {
                        "children": [
                            {
                                "children": [],
                                "depth": 0,
                                "name": "Initial Gas",
                                "value": 24620
                            },
                            {
                                "children": [
                                    {
                                        "children": [
                                            {
                                                "children": [],
                                                "depth": 2,
                                                "name": "transfer",
                                                "value": 29962
                                            },
                                            {
                                                "children": [],
                                                "depth": 2,
                                                "name": "balanceOf",
                                                "value": 2627
                                            },
                                            {
                                                "children": [
                                                    {
                                                        "children": [
                                                            {
                                                                "children": [],
                                                                "depth": 4,
                                                                "name": "transferFrom",
                                                                "value": 243962
                                                            }
                                                        ],
                                                        "depth": 3,
                                                        "name": "transferFrom",
                                                        "value": 247169
                                                    }
                                                ],
                                                "depth": 2,
                                                "name": "uniswapV3SwapCallback",
                                                "value": 252190
                                            },
                                            {
                                                "children": [],
                                                "depth": 2,
                                                "name": "balanceOf",
                                                "value": 627
                                            }
                                        ],
                                        "depth": 1,
                                        "name": "swap",
                                        "value": 325718
                                    },
                                    {
                                        "children": [],
                                        "depth": 1,
                                        "name": "balanceOf",
                                        "value": 534
                                    },
                                    {
                                        "children": [
                                            {
                                                "children": [],
                                                "depth": 2,
                                                "name": "fallback",
                                                "value": 80
                                            }
                                        ],
                                        "depth": 1,
                                        "name": "withdraw",
                                        "value": 9220
                                    },
                                    {
                                        "children": [],
                                        "depth": 1,
                                        "name": "fallback",
                                        "value": 0
                                    }
                                ],
                                "depth": 0,
                                "name": "Executed Gas",
                                "value": 355708
                            }
                        ],
                        "depth": -1,
                        "name": "Actual Gas Used",
                        "value": 304263
                    },
                    {
                        "children": [],
                        "depth": -1,
                        "name": "Refunded Gas",
                        "value": 76065
                    }
                ],
                "depth": -2,
                "name": "Total Gas",
                "value": 380328
            }
        ],
        "isConfirmed": true,
        "mainTrace": [
            {
                "children": [
                    {
                        "children": [
                            {
                                "children": [
                                    {
                                        "children": [
                                            {
                                                "children": [],
                                                "depth": 3,
                                                "id": 3,
                                                "order": 3
                                            }
                                        ],
                                        "depth": 2,
                                        "id": 2,
                                        "order": 2
                                    },
                                    {
                                        "children": [],
                                        "depth": 2,
                                        "id": 4,
                                        "order": 4
                                    },
                                    {
                                        "children": [
                                            {
                                                "children": [
                                                    {
                                                        "children": [
                                                            {
                                                                "children": [],
                                                                "depth": 5,
                                                                "id": 8,
                                                                "order": 8
                                                            },
                                                            {
                                                                "children": [],
                                                                "depth": 5,
                                                                "id": 9,
                                                                "order": 9
                                                            },
                                                            {
                                                                "children": [],
                                                                "depth": 5,
                                                                "id": 10,
                                                                "order": 10
                                                            },
                                                            {
                                                                "children": [],
                                                                "depth": 5,
                                                                "id": 11,
                                                                "order": 11
                                                            },
                                                            {
                                                                "children": [],
                                                                "depth": 5,
                                                                "id": 12,
                                                                "order": 12
                                                            },
                                                            {
                                                                "children": [],
                                                                "depth": 5,
                                                                "id": 13,
                                                                "order": 13
                                                            }
                                                        ],
                                                        "depth": 4,
                                                        "id": 7,
                                                        "order": 7
                                                    }
                                                ],
                                                "depth": 3,
                                                "id": 6,
                                                "order": 6
                                            }
                                        ],
                                        "depth": 2,
                                        "id": 5,
                                        "order": 5
                                    },
                                    {
                                        "children": [],
                                        "depth": 2,
                                        "id": 14,
                                        "order": 14
                                    },
                                    {
                                        "children": [],
                                        "depth": 2,
                                        "id": 15,
                                        "order": 15
                                    }
                                ],
                                "depth": 1,
                                "id": 1,
                                "order": 1
                            },
                            {
                                "children": [],
                                "depth": 1,
                                "id": 16,
                                "order": 16
                            },
                            {
                                "children": [
                                    {
                                        "children": [],
                                        "depth": 2,
                                        "id": 18,
                                        "order": 18
                                    },
                                    {
                                        "children": [],
                                        "depth": 2,
                                        "id": 19,
                                        "order": 19
                                    }
                                ],
                                "depth": 1,
                                "id": 17,
                                "order": 17
                            },
                            {
                                "children": [],
                                "depth": 1,
                                "id": 20,
                                "order": 20
                            }
                        ],
                        "depth": 0,
                        "id": 0,
                        "order": 0
                    }
                ],
                "depth": -1,
                "id": -1,
                "order": -1
            }
        ],
        "mainTraceNodeCount": 21,
        "parentIdMap": {
            "0": -1,
            "1": 0,
            "10": 7,
            "11": 7,
            "12": 7,
            "13": 7,
            "14": 1,
            "15": 1,
            "16": 0,
            "17": 0,
            "18": 17,
            "19": 17,
            "2": 1,
            "20": 0,
            "3": 2,
            "4": 1,
            "5": 1,
            "6": 5,
            "7": 6,
            "8": 7,
            "9": 7
        },
        "tidyTrace": [
            {
                "children": [
                    {
                        "children": [
                            {
                                "children": [
                                    {
                                        "children": [
                                            {
                                                "children": [],
                                                "depth": 3,
                                                "id": 3,
                                                "order": 3
                                            }
                                        ],
                                        "depth": 2,
                                        "id": 2,
                                        "order": 2
                                    },
                                    {
                                        "children": [
                                            {
                                                "children": [
                                                    {
                                                        "children": [
                                                            {
                                                                "children": [],
                                                                "depth": 5,
                                                                "id": 8,
                                                                "order": 8
                                                            },
                                                            {
                                                                "children": [],
                                                                "depth": 5,
                                                                "id": 9,
                                                                "order": 9
                                                            },
                                                            {
                                                                "children": [],
                                                                "depth": 5,
                                                                "id": 10,
                                                                "order": 10
                                                            },
                                                            {
                                                                "children": [],
                                                                "depth": 5,
                                                                "id": 11,
                                                                "order": 11
                                                            },
                                                            {
                                                                "children": [],
                                                                "depth": 5,
                                                                "id": 12,
                                                                "order": 12
                                                            },
                                                            {
                                                                "children": [],
                                                                "depth": 5,
                                                                "id": 13,
                                                                "order": 13
                                                            }
                                                        ],
                                                        "depth": 4,
                                                        "id": 7,
                                                        "order": 7
                                                    }
                                                ],
                                                "depth": 3,
                                                "id": 6,
                                                "order": 6
                                            }
                                        ],
                                        "depth": 2,
                                        "id": 5,
                                        "order": 5
                                    },
                                    {
                                        "children": [],
                                        "depth": 2,
                                        "id": 15,
                                        "order": 15
                                    }
                                ],
                                "depth": 1,
                                "id": 1,
                                "order": 1
                            },
                            {
                                "children": [
                                    {
                                        "children": [],
                                        "depth": 2,
                                        "id": 18,
                                        "order": 18
                                    },
                                    {
                                        "children": [],
                                        "depth": 2,
                                        "id": 19,
                                        "order": 19
                                    }
                                ],
                                "depth": 1,
                                "id": 17,
                                "order": 17
                            },
                            {
                                "children": [],
                                "depth": 1,
                                "id": 20,
                                "order": 20
                            }
                        ],
                        "depth": 0,
                        "id": 0,
                        "order": 0
                    }
                ],
                "depth": -1,
                "id": -1,
                "order": -1
            }
        ],
        "tidyTraceNodeCount": 18
    },
    "state_change": {
        "stateChanges": [
            {
                "address": "0x73576a927cd93a578a9dfd61c75671d97c779da7",
                "erc": "ERC-20",
                "slots": [
                    {
                        "current": "0x0000000000000000000000000000000000000000000000000000000000000000",
                        "key": "0xf7bdced389d9da598b655d62c24c382d4d9c57c81cbc02d8c0bc73ba6821b2c9",
                        "prev": "0x00000000000000000000000000000000000000000000000000000000000000a9"
                    },
                    {
                        "current": "0x0000000000000000000000000000000000000000000000000000000000000000",
                        "key": "0x1c720993aaed61182f84f1ed294afbf0b8d346258e584a0e60a582f1f2a927e1",
                        "prev": "0x00000000000000000000000021b7e18dacde5c004a0a56e74f071ac3fb2e98ff"
                    },
                    {
                        "current": "0x0000000000000000000000000000000000000000000000000000000000000000",
                        "key": "0x5e309e8fa31ea1fcd2671c27817659d36dc2d13a222f7cd52444c05eaf76a091",
                        "prev": "0x00000000000000000000000000000000000000000000000000000000000000a7"
                    },
                    {
                        "current": "0x0000000000000000000000000000000000000000000000000000000000000000",
                        "key": "0x907c541d02804c9ab7586f88605015a970dd95a5276ed6f1376b03e451f87661",
                        "prev": "0x0000000000000000000000000000000000000000000000000000000000000fb1"
                    },
                    {
                        "current": "0x000000000000000000000000000000000000000000000008f5ab5cb49bd88de8",
                        "key": "0xc549f7109da35f0f6aabe9d22c7a20f26f02627a00e2cbda683b809b39d07759",
                        "prev": "0x0000000000000000000000000000000000000000000000093b0eee36e0cc8de8"
                    },
                    {
                        "current": "0x0000000000000000000000000000000000000000000000000000000000000000",
                        "key": "0x907c541d02804c9ab7586f88605015a970dd95a5276ed6f1376b03e451f87664",
                        "prev": "0x0000000000000000000000000000000000000000000000000000000000000fb4"
                    },
                    {
                        "current": "0x00000000000000000000000000000000000000000000000000000000000000a5",
                        "key": "0x5d4ce482472640a9393024c0b5b7534b3a7ae981d124cc34ad422c2ccd6fc0c0",
                        "prev": "0x00000000000000000000000000000000000000000000000000000000000000aa"
                    },
                    {
                        "current": "0x0000000000000000000000000000000000000000000000000000000000000000",
                        "key": "0x907c541d02804c9ab7586f88605015a970dd95a5276ed6f1376b03e451f87662",
                        "prev": "0x0000000000000000000000000000000000000000000000000000000000000fb2"
                    },
                    {
                        "current": "0x0000000000000000000000000000000000000000000000000000000000000000",
                        "key": "0x8901c96a3d95664b812f4d0472f93e79f75793a1826749d22ec2e642d711c590",
                        "prev": "0x00000000000000000000000000000000000000000000000000000000000000a6"
                    },
                    {
                        "current": "0x0000000000000000000000000000000000000000000000000000000000000b57",
                        "key": "0x0000000000000000000000000000000000000000000000000000000000000003",
                        "prev": "0x0000000000000000000000000000000000000000000000000000000000000b52"
                    },
                    {
                        "current": "0x0000000000000000000000000000000000000000000000000000000000000fb1",
                        "key": "0xc2575a0e9e593c00f959f8c92f12db2869c3395a3b0502d05e2516446f7203b0",
                        "prev": "0x0000000000000000000000000000000000000000000000000000000000000000"
                    },
                    {
                        "current": "0x0000000000000000000000000000000000000000000000000000000000000000",
                        "key": "0x907c541d02804c9ab7586f88605015a970dd95a5276ed6f1376b03e451f87660",
                        "prev": "0x00000000000000000000000000000000000000000000000000000000000014d3"
                    },
                    {
                        "current": "0x00000000000000000000000000000000000000000000001592fc5e41769b2115",
                        "key": "0x90d062e7721afc550c329f07c95eaf49a06f5c323a2b08121cf31407133c6085",
                        "prev": "0x0000000000000000000000000000000000000000000000154d98ccbf31a72115"
                    },
                    {
                        "current": "0x0000000000000000000000000000000000000000000000000000000000000000",
                        "key": "0x646338c97973ffb3df1af05770b5da925edef758130fcde69b025835c517b5d1",
                        "prev": "0x00000000000000000000000021b7e18dacde5c004a0a56e74f071ac3fb2e98ff"
                    },
                    {
                        "current": "0x0000000000000000000000000000000000000000000000000000000000000000",
                        "key": "0x1c9bcfe6b8129ed5347b79a0e1e9b721b622ab148008ab23a3a8f10d27d7e02d",
                        "prev": "0x00000000000000000000000000000000000000000000000000000000000000a5"
                    },
                    {
                        "current": "0x0000000000000000000000000000000000000000000000000000000000000000",
                        "key": "0x2f4a005e26ca603ee7420a65e32d7d107e78d12e2c929a6e6861cf8355639552",
                        "prev": "0x00000000000000000000000000000000000000000000000000000000000000a8"
                    },
                    {
                        "current": "0x0000000000000000000000000000000000000000000000000000000000000fb2",
                        "key": "0xc2575a0e9e593c00f959f8c92f12db2869c3395a3b0502d05e2516446f7203af",
                        "prev": "0x0000000000000000000000000000000000000000000000000000000000000000"
                    },
                    {
                        "current": "0x0000000000000000000000000000000000000000000000000000000000000000",
                        "key": "0xb5b12b6982a95f551d0beacbc53e8cb39378648fd229bf771b28513c05b42c47",
                        "prev": "0x00000000000000000000000021b7e18dacde5c004a0a56e74f071ac3fb2e98ff"
                    },
                    {
                        "current": "0x0000000000000000000000000000000000000000000000000000000000000fb4",
                        "key": "0xc2575a0e9e593c00f959f8c92f12db2869c3395a3b0502d05e2516446f7203ad",
                        "prev": "0x0000000000000000000000000000000000000000000000000000000000000000"
                    },
                    {
                        "current": "0x0000000000000000000000000000000000000000000000000000000000000000",
                        "key": "0x56c95d26cd43d48e3c8a0d393c3ddfdf8913b52eabbf9dad1490ebd41ff7036f",
                        "prev": "0x00000000000000000000000021b7e18dacde5c004a0a56e74f071ac3fb2e98ff"
                    },
                    {
                        "current": "0x0000000000000000000000000000000000000000000000000000000000000000",
                        "key": "0x907c541d02804c9ab7586f88605015a970dd95a5276ed6f1376b03e451f87663",
                        "prev": "0x0000000000000000000000000000000000000000000000000000000000000fb3"
                    },
                    {
                        "current": "0x0000000000000000000000000000000000000000000000000000000000000000",
                        "key": "0x677cf02a679d6b81463599a7686263a6c3c7ac41ded629b484f019ea3ac04963",
                        "prev": "0x00000000000000000000000021b7e18dacde5c004a0a56e74f071ac3fb2e98ff"
                    },
                    {
                        "current": "0x0000000000000000000000000000000000000000000000000000000000000fb3",
                        "key": "0xc2575a0e9e593c00f959f8c92f12db2869c3395a3b0502d05e2516446f7203ae",
                        "prev": "0x0000000000000000000000000000000000000000000000000000000000000000"
                    },
                    {
                        "current": "0x00000000000000000000000000000000000000000000000000000000000014d3",
                        "key": "0xc2575a0e9e593c00f959f8c92f12db2869c3395a3b0502d05e2516446f7203b1",
                        "prev": "0x0000000000000000000000000000000000000000000000000000000000000000"
                    }
                ],
                "storageVariables": [
                    {
                        "name": "_burnedTokenIds",
                        "type": "uint256[]",
                        "value": {
                            "elemType": "uint256",
                            "elems": [
                                {
                                    "index": 2898,
                                    "value": {
                                        "current": "4020",
                                        "prev": "0",
                                        "typeTag": 1
                                    }
                                },
                                {
                                    "index": 2899,
                                    "value": {
                                        "current": "4019",
                                        "prev": "0",
                                        "typeTag": 1
                                    }
                                },
                                {
                                    "index": 2900,
                                    "value": {
                                        "current": "4018",
                                        "prev": "0",
                                        "typeTag": 1
                                    }
                                },
                                {
                                    "index": 2901,
                                    "value": {
                                        "current": "4017",
                                        "prev": "0",
                                        "typeTag": 1
                                    }
                                },
                                {
                                    "index": 2902,
                                    "value": {
                                        "current": "5331",
                                        "prev": "0",
                                        "typeTag": 1
                                    }
                                }
                            ],
                            "typeTag": 2
                        }
                    },
                    {
                        "name": "_ownedIndex",
                        "type": "mapping(uint256 => uint256)",
                        "value": {
                            "pairs": [
                                {
                                    "key": "4017",
                                    "value": {
                                        "current": "0",
                                        "prev": "166",
                                        "typeTag": 1
                                    }
                                },
                                {
                                    "key": "4018",
                                    "value": {
                                        "current": "0",
                                        "prev": "167",
                                        "typeTag": 1
                                    }
                                },
                                {
                                    "key": "4019",
                                    "value": {
                                        "current": "0",
                                        "prev": "168",
                                        "typeTag": 1
                                    }
                                },
                                {
                                    "key": "4020",
                                    "value": {
                                        "current": "0",
                                        "prev": "169",
                                        "typeTag": 1
                                    }
                                },
                                {
                                    "key": "5331",
                                    "value": {
                                        "current": "0",
                                        "prev": "165",
                                        "typeTag": 1
                                    }
                                }
                            ],
                            "typeTag": 4
                        }
                    },
                    {
                        "name": "balanceOf",
                        "type": "mapping(address => uint256)",
                        "value": {
                            "pairs": [
                                {
                                    "key": "0x21b7e18dacde5c004a0a56e74f071ac3fb2e98ff",
                                    "value": {
                                        "current": "165276297280764808680",
                                        "prev": "170276297280764808680",
                                        "typeTag": 1
                                    }
                                },
                                {
                                    "key": "0xcf96fcf38dfc404e42366f05bffda6336df5174f",
                                    "value": {
                                        "current": "397973069606824911125",
                                        "prev": "392973069606824911125",
                                        "typeTag": 1
                                    }
                                }
                            ],
                            "typeTag": 4
                        }
                    },
                    {
                        "name": "_ownerOf",
                        "type": "mapping(uint256 => address)",
                        "value": {
                            "pairs": [
                                {
                                    "key": "4017",
                                    "value": {
                                        "current": "0x0000000000000000000000000000000000000000",
                                        "prev": "0x21b7e18dacde5c004a0a56e74f071ac3fb2e98ff",
                                        "typeTag": 1
                                    }
                                },
                                {
                                    "key": "4018",
                                    "value": {
                                        "current": "0x0000000000000000000000000000000000000000",
                                        "prev": "0x21b7e18dacde5c004a0a56e74f071ac3fb2e98ff",
                                        "typeTag": 1
                                    }
                                },
                                {
                                    "key": "4019",
                                    "value": {
                                        "current": "0x0000000000000000000000000000000000000000",
                                        "prev": "0x21b7e18dacde5c004a0a56e74f071ac3fb2e98ff",
                                        "typeTag": 1
                                    }
                                },
                                {
                                    "key": "4020",
                                    "value": {
                                        "current": "0x0000000000000000000000000000000000000000",
                                        "prev": "0x21b7e18dacde5c004a0a56e74f071ac3fb2e98ff",
                                        "typeTag": 1
                                    }
                                },
                                {
                                    "key": "5331",
                                    "value": {
                                        "current": "0x0000000000000000000000000000000000000000",
                                        "prev": "0x21b7e18dacde5c004a0a56e74f071ac3fb2e98ff",
                                        "typeTag": 1
                                    }
                                }
                            ],
                            "typeTag": 4
                        }
                    }
                ]
            },
            {
                "address": "0xc02aaa39b223fe8d0a0e5c4f27ead9083c756cc2",
                "erc": "ERC-20",
                "slots": [
                    {
                        "current": "0x000000000000000000000000000000000000000000000003d0c6fa5b3d7998e8",
                        "key": "0x381a31ea6fccdf0f8fe979acabdd4ce2789a71267e2cbf2960dacf6269caf58c",
                        "prev": "0x000000000000000000000000000000000000000000000003dd1bcd5304913d97"
                    }
                ],
                "storageVariables": [
                    {
                        "name": "balanceOf",
                        "type": "mapping(address => uint256)",
                        "value": {
                            "pairs": [
                                {
                                    "key": "0xcf96fcf38dfc404e42366f05bffda6336df5174f",
                                    "value": {
                                        "current": "70384219096186722536",
                                        "prev": "71272786084324523415",
                                        "typeTag": 1
                                    }
                                }
                            ],
                            "typeTag": 4
                        }
                    }
                ]
            },
            {
                "address": "0xcf96fcf38dfc404e42366f05bffda6336df5174f",
                "erc": "",
                "slots": [
                    {
                        "current": "0x000100000100010000ffbc5a00000000000000006bb340d0f317651a6dec8ab8",
                        "key": "0x0000000000000000000000000000000000000000000000000000000000000000",
                        "prev": "0x000100000100010000ffbd7500000000000000006d3b4b49d7a51f43e3e9a67e"
                    },
                    {
                        "current": "0x00000000000000000000000000000001050b8ccc8020abde3bbb85bdd96f3f1f",
                        "key": "0x0000000000000000000000000000000000000000000000000000000000000001",
                        "prev": "0x0000000000000000000000000000000104f57d5d575bc8e440d8ff5d9463acb9"
                    }
                ],
                "storageVariables": []
            }
        ]
    }
}