{
    "balance_change": {
        "balanceChanges": [
            {
                "account": "0xfb9779477e5b4834bf2bc02dd29b97b344d0f700",
                "assets": [
                    {
                        "address": "0xeeeeeeeeeeeeeeeeeeeeeeeeeeeeeeeeeeeeeeee",
                        "amount": "0.000000000016217088",
                        "iconUrl": "https://assets.blocksec.com/image/1663669189317-3.png",
                        "isERC1155": false,
                        "isERC721": false,
                        "sign": false,
                        "value": "0.000000037246431449702397272"
                    }
                ]
            },
            {
                "account": "0xa69babef1ca67a37ffaf7a485dfff3382056e78c",
                "assets": [
                    {
                        "address": "0xb62132e35a6c13ee1ee0f84dc5d40bad8d815206",
                        "amount": "747.360489324958995993",
                        "iconUrl": "https://assets.blocksec.com/icon/fea86f969d2759a2ee2f170e71fc014cd439e415f97fa60c37db575eb46dfac5.png",
                        "isERC1155": false,
                        "isERC721": false,
                        "sign": false,
                        "value": "697.73575281047998914"
                    },
                    {
                        "address": "0xeeeeeeeeeeeeeeeeeeeeeeeeeeeeeeeeeeeeeeee",
                        "amount": "0.000065651532440038",
                        "iconUrl": "https://assets.blocksec.com/image/1663669189317-3.png",
                        "isERC1155": false,
                        "isERC721": false,
                        "sign": false,
                        "value": "0.15078448748593910096"
                    },
                    {
                        "address": "0xc02aaa39b223fe8d0a0e5c4f27ead9083c756cc2",
                        "amount": "0.305260938975858942",
                        "iconUrl": "https://assets.blocksec.com/icon/f1cb2d02c471d545bbc7722daf3277fd852d98e63d118771af7047bd8256c516.png",
                        "isERC1155": false,
                        "isERC721": false,
                        "sign": true,
                        "value": "701.10494798667214866"
                    }
                ]
            },
            {
                "account": "0x4c54ff7f1c424ff5487a32aad0b48b19cbaf087f",
                "assets": [
                    {
                        "address": "0xc02aaa39b223fe8d0a0e5c4f27ead9083c756cc2",
                        "amount": "0.305260938975858942",
                        "iconUrl": "https://assets.blocksec.com/icon/f1cb2d02c471d545bbc7722daf3277fd852d98e63d118771af7047bd8256c516.png",
                        "isERC1155": false,
                        "isERC721": false,
                        "sign": false,
                        "value": "701.10494798667214866"
                    },
                    {
                        "address": "0xb62132e35a6c13ee1ee0f84dc5d40bad8d815206",
                        "amount": "747.360489324958995993",
                        "iconUrl": "https://assets.blocksec.com/icon/fea86f969d2759a2ee2f170e71fc014cd439e415f97fa60c37db575eb46dfac5.png",
                        "isERC1155": false,
                        "isERC721": false,
                        "sign": true,
                        "value": "697.73575281047998914"
                    }
                ]
            },
            {
                "account": "0x95222290dd7278aa3ddd389cc1e1d165cc4bafe5",
                "assets": [
                    {
                        "address": "0xeeeeeeeeeeeeeeeeeeeeeeeeeeeeeeeeeeeeeeee",
                        "amount": "0.000065651548657126",
                        "iconUrl": "https://assets.blocksec.com/image/1663669189317-3.png",
                        "isERC1155": false,
                        "isERC721": false,
                        "sign": true,
                        "value": "0.15078452473905865697"
                    }
                ]
            }
        ]
    },
    "profile": {
        "basic_info": {
            "baseFee": "1.416732963",
            "blockNumber": 20699072,
            "callData": "0x78e111f6000000000000000000000000ae52297d47ab8ec2b7299f199389ed7c8d70889a000000000000000000000000000000000000000000000000000000000000004000000000000000000000000000000000000000000000000000000000000000c42f1c6b5000000000000000000000000000000000000000000000002883b5d55b004c5619000000000000000000000000000000000000000000005668a7708d10f00000000000000000000000000000000000000000000000052dd719b7e1b47ff76f5203000000000000000000000000000000000000000000000000000172405f75cad30000000000000000000000000000000000000000000000000000000066dc575b7f8000000000000000000000000000000000000000000000000000000000fd6b00000000000000000000000000000000000000000000000000000000",
            "debugEnable": true,
            "errorInfo": "",
            "eventCount": 3,
            "feeRecipient": "0x95222290dd7278aa3ddd389cc1e1d165cc4bafe5",
            "formatValue": "0.000000000016217088",
            "gasLimit": 224712,
            "gasPrice": "1.416732963",
            "gasUsed": 112364,
            "intTxnCount": 8,
            "internalRevert": false,
            "internalRevertMessage": "",
            "isContractCreation": false,
            "isFlashloan": false,
            "maxFee": "2.125099444",
            "nonce": 208518,
            "overwritedBlockNumber": -1,
            "priorityFee": "0",
            "receiver": "0xa69babef1ca67a37ffaf7a485dfff3382056e78c",
            "revertMessage": "",
            "sender": "0xfb9779477e5b4834bf2bc02dd29b97b344d0f700",
            "simulationEnable": true,
            "sourceTxnHash": "0x8131a630f7d3ce2234760f6d60f08084289452d8b264eb71c64c300f916ba0d2",
            "status": true,
            "timestamp": "2024-09-07T13:38:35Z",
            "transactionFee": "0.000159189782654532",
            "txnHash": "0x8131a630f7d3ce2234760f6d60f08084289452d8b264eb71c64c300f916ba0d2",
            "txnIndex": 55,
            "type": 2,
            "value": "16217088"
        },
        "fund_flow": [
            {
                "amount": "0.000000000016217088",
                "from": "0xfb9779477e5b4834bf2bc02dd29b97b344d0f700",
                "id": 1,
                "isERC1155": false,
                "isERC721": false,
                "isReverted": false,
                "order": 1,
                "to": "0xa69babef1ca67a37ffaf7a485dfff3382056e78c",
                "token": "0xeeeeeeeeeeeeeeeeeeeeeeeeeeeeeeeeeeeeeeee"
            },
            {
                "amount": "0.305260938975858942",
                "from": "0x4c54ff7f1c424ff5487a32aad0b48b19cbaf087f",
                "id": 2,
                "isERC1155": false,
                "isERC721": false,
                "isReverted": false,
                "order": 2,
                "to": "0xa69babef1ca67a37ffaf7a485dfff3382056e78c",
                "token": "0xc02aaa39b223fe8d0a0e5c4f27ead9083c756cc2"
            },
            {
                "amount": "747.360489324958995993",
                "from": "0xa69babef1ca67a37ffaf7a485dfff3382056e78c",
                "id": 3,
                "isERC1155": false,
                "isERC721": false,
                "isReverted": false,
                "order": 3,
                "to": "0x4c54ff7f1c424ff5487a32aad0b48b19cbaf087f",
                "token": "0xb62132e35a6c13ee1ee0f84dc5d40bad8d815206"
            },
            {
                "amount": "0.000065651548657126",
                "from": "0xa69babef1ca67a37ffaf7a485dfff3382056e78c",
                "id": 4,
                "isERC1155": false,
                "isERC721": false,
                "isReverted": false,
                "order": 4,
                "to": "0x95222290dd7278aa3ddd389cc1e1d165cc4bafe5",
                "token": "0xeeeeeeeeeeeeeeeeeeeeeeeeeeeeeeeeeeeeeeee"
            }
        ],
        "token_infos": [
            {
                "address": "0xeeeeeeeeeeeeeeeeeeeeeeeeeeeeeeeeeeeeeeee",
                "decimals": 18
            },
            {
                "address": "0xb62132e35a6c13ee1ee0f84dc5d40bad8d815206",
                "decimals": 18
            },
            {
                "address": "0xc02aaa39b223fe8d0a0e5c4f27ead9083c756cc2",
                "decimals": 18
            }
        ]
    },
    "address_label": {
        "labels": [
            {
                "address": "0xc02aaa39b223fe8d0a0e5c4f27ead9083c756cc2",
                "label": "Wrapped Ether (WETH)"
            },
            {
                "address": "0xb62132e35a6c13ee1ee0f84dc5d40bad8d815206",
                "label": "Nexo Token"
            },
            {
                "address": "0x95222290dd7278aa3ddd389cc1e1d165cc4bafe5",
                "label": "beaverbuild"
            },
            {
                "address": "0x0000000000000000000000000000000000000002",
                "label": "Precompiled"
            },
            {
                "address": "0x0000000000000000000000000000000000000003",
                "label": "Precompiled"
            },
            {
                "address": "0xeeeeeeeeeeeeeeeeeeeeeeeeeeeeeeeeeeeeeeee",
                "label": "Ether"
            },
            {
                "address": "0xa69babef1ca67a37ffaf7a485dfff3382056e78c",
                "label": "MEV Bot: 0xA69...78C"
            },
            {
                "address": "0x4c54ff7f1c424ff5487a32aad0b48b19cbaf087f",
                "label": "Uniswap V3: NEXO"
            },
            {
                "address": "0x0000000000000000000000000000000000000001",
                "label": "Precompiled"
            },
            {
                "address": "0x0000000000000000000000000000000000000004",
                "label": "Precompiled"
            }
        ]
    },
    "trace": {
        "accountLabels": null,
        "dataMap": {
            "-1": {
                "invocation": {
                    "address": "0xfb9779477e5b4834bf2bc02dd29b97b344d0f700",
                    "callData": "",
                    "decodedMethod": null,
                    "errorInfo": "",
                    "fromAddress": "",
                    "gasUsed": 0,
                    "id": -1,
                    "methodDecoded": false,
                    "operation": "",
                    "output": "",
                    "revert": false,
                    "revertMessage": "",
                    "selector": "",
                    "status": false,
                    "value": ""
                },
                "nodeType": 0
            },
            "0": {
                "invocation": {
                    "address": "0xa69babef1ca67a37ffaf7a485dfff3382056e78c",
                    "callData": "0x000000000000000000000000ae52297d47ab8ec2b7299f199389ed7c8d70889a000000000000000000000000000000000000000000000000000000000000004000000000000000000000000000000000000000000000000000000000000000c42f1c6b5000000000000000000000000000000000000000000000002883b5d55b004c5619000000000000000000000000000000000000000000005668a7708d10f00000000000000000000000000000000000000000000000052dd719b7e1b47ff76f5203000000000000000000000000000000000000000000000000000172405f75cad30000000000000000000000000000000000000000000000000000000066dc575b7f8000000000000000000000000000000000000000000000000000000000fd6b00000000000000000000000000000000000000000000000000000000",
                    "decodedMethod": {
                        "callParams": [
                            {
                                "name": "_address",
                                "type": "address",
                                "value": "0xae52297d47ab8ec2b7299f199389ed7c8d70889a"
                            },
                            {
                                "name": "_bytes",
                                "type": "bytes",
                                "value": "0x2f1c6b5000000000000000000000000000000000000000000000002883b5d55b004c5619000000000000000000000000000000000000000000005668a7708d10f00000000000000000000000000000000000000000000000052dd719b7e1b47ff76f5203000000000000000000000000000000000000000000000000000172405f75cad30000000000000000000000000000000000000000000000000000000066dc575b7f8000000000000000000000000000000000000000000000000000000000fd6b"
                            }
                        ],
                        "constructorArguments": "",
                        "name": "executeFFsYo",
                        "returnParams": [],
                        "signature": "executeFFsYo(address,bytes)"
                    },
                    "errorInfo": "",
                    "fromAddress": "0xfb9779477e5b4834bf2bc02dd29b97b344d0f700",
                    "gasUsed": 112364,
                    "id": 0,
                    "methodDecoded": true,
                    "operation": "CALL",
                    "output": "0x0000000000000000000000000000000000000000000000000000000000000020000000000000000000000000000000000000000000000000000000000000004000000000000000000000000000000000000000000000002883b5d55b004c561900000000000000000000000000000000000000000000000000010de935c7967f",
                    "revert": false,
                    "revertMessage": "",
                    "selector": "0x78e111f6",
                    "status": true,
                    "value": "0.000000000016217088"
                },
                "nodeType": 0
            },
            "1": {
                "invocation": {
                    "address": "0xae52297d47ab8ec2b7299f199389ed7c8d70889a",
                    "callData": "0x00000000000000000000000000000000000000000000002883b5d55b004c5619000000000000000000000000000000000000000000005668a7708d10f00000000000000000000000000000000000000000000000052dd719b7e1b47ff76f5203000000000000000000000000000000000000000000000000000172405f75cad30000000000000000000000000000000000000000000000000000000066dc575b7f8000000000000000000000000000000000000000000000000000000000fd6b",
                    "decodedMethod": null,
                    "errorInfo": "",
                    "fromAddress": "0xa69babef1ca67a37ffaf7a485dfff3382056e78c",
                    "gasUsed": 58746,
                    "id": 1,
                    "methodDecoded": false,
                    "operation": "DELEGATECALL",
                    "output": "0x00000000000000000000000000000000000000000000002883b5d55b004c561900000000000000000000000000000000000000000000000000010de935c7967f",
                    "revert": false,
                    "revertMessage": "",
                    "selector": "0x2f1c6b50",
                    "status": true,
                    "value": "0.000000000016217088"
                },
                "nodeType": 0
            },
            "10": {
                "event": {
                    "contract": "0x4c54ff7f1c424ff5487a32aad0b48b19cbaf087f",
                    "decodedLog": {
                        "name": "Swap",
                        "params": [
                            {
                                "name": "sender",
                                "type": "address",
                                "value": "0xa69babef1ca67a37ffaf7a485dfff3382056e78c"
                            },
                            {
                                "name": "recipient",
                                "type": "address",
                                "value": "0xa69babef1ca67a37ffaf7a485dfff3382056e78c"
                            },
                            {
                                "name": "amount0",
                                "type": "int256",
                                "value": "747,360,489,324,958,995,993"
                            },
                            {
                                "name": "amount1",
                                "type": "int256",
                                "value": "-305,260,938,975,858,942"
                            },
                            {
                                "name": "sqrtPriceX96",
                                "type": "uint160",
                                "value": "1,603,591,447,204,623,766,984,317,776"
                            },
                            {
                                "name": "liquidity",
                                "type": "uint128",
                                "value": "371,136,905,557,888,527,657,508"
                            },
                            {
                                "name": "tick",
                                "type": "int24",
                                "value": "-78,006"
                            }
                        ],
                        "signature": "Swap(address,address,int256,int256,uint160,uint128,int24)"
                    },
                    "id": 10,
                    "logData": "0x00000000000000000000000000000000000000000000002883b5d55b004c5619fffffffffffffffffffffffffffffffffffffffffffffffffbc37ecb188aaf020000000000000000000000000000000000000000052e75b28abb5bb0bdafdb50000000000000000000000000000000000000000000004e975f39154c9c3e6a24fffffffffffffffffffffffffffffffffffffffffffffffffffffffffffecf4a",
                    "logDecoded": true,
                    "operation": "EVENT",
                    "revert": false,
                    "status": true,
                    "topics": [
                        "0xc42079f94a6350d7e6235f29174924f928cc2ac818eb64fed8004e115fbcca67",
                        "0x000000000000000000000000a69babef1ca67a37ffaf7a485dfff3382056e78c",
                        "0x000000000000000000000000a69babef1ca67a37ffaf7a485dfff3382056e78c"
                    ]
                },
                "nodeType": 1
            },
            "11": {
                "invocation": {
                    "address": "0x95222290dd7278aa3ddd389cc1e1d165cc4bafe5",
                    "callData": "0x",
                    "decodedMethod": null,
                    "errorInfo": "",
                    "fromAddress": "0xa69babef1ca67a37ffaf7a485dfff3382056e78c",
                    "gasUsed": 0,
                    "id": 11,
                    "methodDecoded": false,
                    "operation": "CALL",
                    "output": "",
                    "revert": false,
                    "revertMessage": "",
                    "selector": "fallback",
                    "status": true,
                    "value": "0.000065651548657126"
                },
                "nodeType": 0
            },
            "2": {
                "invocation": {
                    "address": "0x4c54ff7f1c424ff5487a32aad0b48b19cbaf087f",
                    "callData": "0x000000000000000000000000a69babef1ca67a37ffaf7a485dfff3382056e78c000000000000000000000000000000000000000000000000000000000000000100000000000000000000000000000000000000000000002883b5d55b004c56190000000000000000000000000000000000000000052dd719b7e1b47ff76f520300000000000000000000000000000000000000000000000000000000000000a00000000000000000000000000000000000000000000000000000000000000060e2a767a7bd5ea520871328fce9e50c12bc4d36fe92d0b279f53c5ab9e15d8f33000000000000000000000000a69babef1ca67a37ffaf7a485dfff3382056e78c000000000000000000000000b62132e35a6c13ee1ee0f84dc5d40bad8d815206",
                    "decodedMethod": {
                        "callParams": [
                            {
                                "name": "recipient",
                                "type": "address",
                                "value": "0xa69babef1ca67a37ffaf7a485dfff3382056e78c"
                            },
                            {
                                "name": "zeroForOne",
                                "type": "bool",
                                "value": true
                            },
                            {
                                "name": "amountSpecified",
                                "type": "int256",
                                "value": "747,360,489,324,958,995,993"
                            },
                            {
                                "name": "sqrtPriceLimitX96",
                                "type": "uint160",
                                "value": "1,602,842,494,201,872,513,351,242,243"
                            },
                            {
                                "name": "data",
                                "type": "bytes",
                                "value": "0xe2a767a7bd5ea520871328fce9e50c12bc4d36fe92d0b279f53c5ab9e15d8f33000000000000000000000000a69babef1ca67a37ffaf7a485dfff3382056e78c000000000000000000000000b62132e35a6c13ee1ee0f84dc5d40bad8d815206"
                            }
                        ],
                        "constructorArguments": "",
                        "name": "swap",
                        "returnParams": [
                            {
                                "name": "amount0",
                                "type": "int256",
                                "value": "747,360,489,324,958,995,993"
                            },
                            {
                                "name": "amount1",
                                "type": "int256",
                                "value": "-305,260,938,975,858,942"
                            }
                        ],
                        "signature": "swap(address,bool,int256,uint160,bytes)"
                    },
                    "errorInfo": "",
                    "fromAddress": "0xa69babef1ca67a37ffaf7a485dfff3382056e78c",
                    "gasUsed": 50545,
                    "id": 2,
                    "methodDecoded": true,
                    "operation": "CALL",
                    "output": "0x00000000000000000000000000000000000000000000002883b5d55b004c5619fffffffffffffffffffffffffffffffffffffffffffffffffbc37ecb188aaf02",
                    "revert": false,
                    "revertMessage": "",
                    "selector": "0x128acb08",
                    "status": true,
                    "value": "0"
                },
                "nodeType": 0
            },
            "3": {
                "invocation": {
                    "address": "0xc02aaa39b223fe8d0a0e5c4f27ead9083c756cc2",
                    "callData": "0x000000000000000000000000a69babef1ca67a37ffaf7a485dfff3382056e78c000000000000000000000000000000000000000000000000043c8134e77550fe",
                    "decodedMethod": {
                        "callParams": [
                            {
                                "name": "dst",
                                "type": "address",
                                "value": "0xa69babef1ca67a37ffaf7a485dfff3382056e78c"
                            },
                            {
                                "decimalAvailable": true,
                                "name": "wad",
                                "type": "uint256",
                                "value": "305,260,938,975,858,942"
                            }
                        ],
                        "constructorArguments": "",
                        "name": "transfer",
                        "returnParams": [
                            {
                                "name": "",
                                "type": "bool",
                                "value": true
                            }
                        ],
                        "signature": "transfer(address,uint256)"
                    },
                    "errorInfo": "",
                    "fromAddress": "0x4c54ff7f1c424ff5487a32aad0b48b19cbaf087f",
                    "gasUsed": 8862,
                    "id": 3,
                    "methodDecoded": true,
                    "operation": "CALL",
                    "output": "0x0000000000000000000000000000000000000000000000000000000000000001",
                    "revert": false,
                    "revertMessage": "",
                    "selector": "0xa9059cbb",
                    "status": true,
                    "value": "0"
                },
                "nodeType": 0
            },
            "4": {
                "event": {
                    "contract": "0xc02aaa39b223fe8d0a0e5c4f27ead9083c756cc2",
                    "decodedLog": {
                        "name": "Transfer",
                        "params": [
                            {
                                "name": "src",
                                "type": "address",
                                "value": "0x4c54ff7f1c424ff5487a32aad0b48b19cbaf087f"
                            },
                            {
                                "name": "dst",
                                "type": "address",
                                "value": "0xa69babef1ca67a37ffaf7a485dfff3382056e78c"
                            },
                            {
                                "decimalAvailable": true,
                                "name": "wad",
                                "type": "uint256",
                                "value": "305,260,938,975,858,942"
                            }
                        ],
                        "signature": "Transfer(address,address,uint256)"
                    },
                    "id": 4,
                    "logData": "0x000000000000000000000000000000000000000000000000043c8134e77550fe",
                    "logDecoded": true,
                    "operation": "EVENT",
                    "revert": false,
                    "status": true,
                    "topics": [
                        "0xddf252ad1be2c89b69c2b068fc378daa952ba7f163c4a11628f55a4df523b3ef",
                        "0x0000000000000000000000004c54ff7f1c424ff5487a32aad0b48b19cbaf087f",
                        "0x000000000000000000000000a69babef1ca67a37ffaf7a485dfff3382056e78c"
                    ]
                },
                "nodeType": 1
            },
            "5": {
                "invocation": {
                    "address": "0xb62132e35a6c13ee1ee0f84dc5d40bad8d815206",
                    "callData": "0x0000000000000000000000004c54ff7f1c424ff5487a32aad0b48b19cbaf087f",
                    "decodedMethod": {
                        "callParams": [
                            {
                                "name": "_owner",
                                "type": "address",
                                "value": "0x4c54ff7f1c424ff5487a32aad0b48b19cbaf087f"
                            }
                        ],
                        "constructorArguments": "",
                        "name": "balanceOf",
                        "returnParams": [
                            {
                                "decimalAvailable": true,
                                "name": "balance",
                                "type": "uint256",
                                "value": "579,188,882,360,799,309,467,027"
                            }
                        ],
                        "signature": "balanceOf(address)"
                    },
                    "errorInfo": "",
                    "fromAddress": "0x4c54ff7f1c424ff5487a32aad0b48b19cbaf087f",
                    "gasUsed": 1053,
                    "id": 5,
                    "methodDecoded": true,
                    "operation": "STATICCALL",
                    "output": "0x000000000000000000000000000000000000000000007aa5e468f8ee47e20d93",
                    "revert": false,
                    "revertMessage": "",
                    "selector": "0x70a08231",
                    "status": true,
                    "value": "0"
                },
                "nodeType": 0
            },
            "6": {
                "invocation": {
                    "address": "0xa69babef1ca67a37ffaf7a485dfff3382056e78c",
                    "callData": "0x00000000000000000000000000000000000000000000002883b5d55b004c5619fffffffffffffffffffffffffffffffffffffffffffffffffbc37ecb188aaf0200000000000000000000000000000000000000000000000000000000000000600000000000000000000000000000000000000000000000000000000000000060e2a767a7bd5ea520871328fce9e50c12bc4d36fe92d0b279f53c5ab9e15d8f33000000000000000000000000a69babef1ca67a37ffaf7a485dfff3382056e78c000000000000000000000000b62132e35a6c13ee1ee0f84dc5d40bad8d815206",
                    "decodedMethod": {
                        "callParams": [
                            {
                                "name": "amount0Delta",
                                "type": "int256",
                                "value": "747,360,489,324,958,995,993"
                            },
                            {
                                "name": "amount1Delta",
                                "type": "int256",
                                "value": "-305,260,938,975,858,942"
                            },
                            {
                                "name": "data",
                                "type": "bytes",
                                "value": "0xe2a767a7bd5ea520871328fce9e50c12bc4d36fe92d0b279f53c5ab9e15d8f33000000000000000000000000a69babef1ca67a37ffaf7a485dfff3382056e78c000000000000000000000000b62132e35a6c13ee1ee0f84dc5d40bad8d815206"
                            }
                        ],
                        "constructorArguments": "",
                        "name": "uniswapV3SwapCallback",
                        "returnParams": [],
                        "signature": "uniswapV3SwapCallback(int256,int256,bytes)"
                    },
                    "errorInfo": "",
                    "fromAddress": "0x4c54ff7f1c424ff5487a32aad0b48b19cbaf087f",
                    "gasUsed": 10321,
                    "id": 6,
                    "methodDecoded": true,
                    "operation": "CALL",
                    "output": "",
                    "revert": false,
                    "revertMessage": "",
                    "selector": "0xfa461e33",
                    "status": true,
                    "value": "0"
                },
                "nodeType": 0
            },
            "7": {
                "invocation": {
                    "address": "0xb62132e35a6c13ee1ee0f84dc5d40bad8d815206",
                    "callData": "0x0000000000000000000000004c54ff7f1c424ff5487a32aad0b48b19cbaf087f00000000000000000000000000000000000000000000002883b5d55b004c5619",
                    "decodedMethod": {
                        "callParams": [
                            {
                                "name": "_to",
                                "type": "address",
                                "value": "0x4c54ff7f1c424ff5487a32aad0b48b19cbaf087f"
                            },
                            {
                                "decimalAvailable": true,
                                "name": "_value",
                                "type": "uint256",
                                "value": "747,360,489,324,958,995,993"
                            }
                        ],
                        "constructorArguments": "",
                        "name": "transfer",
                        "returnParams": [
                            {
                                "name": "success",
                                "type": "bool",
                                "value": true
                            }
                        ],
                        "signature": "transfer(address,uint256)"
                    },
                    "errorInfo": "",
                    "fromAddress": "0xa69babef1ca67a37ffaf7a485dfff3382056e78c",
                    "gasUsed": 9731,
                    "id": 7,
                    "methodDecoded": true,
                    "operation": "CALL",
                    "output": "0x0000000000000000000000000000000000000000000000000000000000000001",
                    "revert": false,
                    "revertMessage": "",
                    "selector": "0xa9059cbb",
                    "status": true,
                    "value": "0"
                },
                "nodeType": 0
            },
            "8": {
                "event": {
                    "contract": "0xb62132e35a6c13ee1ee0f84dc5d40bad8d815206",
                    "decodedLog": {
                        "name": "Transfer",
                        "params": [
                            {
                                "name": "from",
                                "type": "address",
                                "value": "0xa69babef1ca67a37ffaf7a485dfff3382056e78c"
                            },
                            {
                                "name": "to",
                                "type": "address",
                                "value": "0x4c54ff7f1c424ff5487a32aad0b48b19cbaf087f"
                            },
                            {
                                "decimalAvailable": true,
                                "name": "value",
                                "type": "uint256",
                                "value": "747,360,489,324,958,995,993"
                            }
                        ],
                        "signature": "Transfer(address,address,uint256)"
                    },
                    "id": 8,
                    "logData": "0x00000000000000000000000000000000000000000000002883b5d55b004c5619",
                    "logDecoded": true,
                    "operation": "EVENT",
                    "revert": false,
                    "status": true,
                    "topics": [
                        "0xddf252ad1be2c89b69c2b068fc378daa952ba7f163c4a11628f55a4df523b3ef",
                        "0x000000000000000000000000a69babef1ca67a37ffaf7a485dfff3382056e78c",
                        "0x0000000000000000000000004c54ff7f1c424ff5487a32aad0b48b19cbaf087f"
                    ]
                },
                "nodeType": 1
            },
            "9": {
                "invocation": {
                    "address": "0xb62132e35a6c13ee1ee0f84dc5d40bad8d815206",
                    "callData": "0x0000000000000000000000004c54ff7f1c424ff5487a32aad0b48b19cbaf087f",
                    "decodedMethod": {
                        "callParams": [
                            {
                                "name": "_owner",
                                "type": "address",
                                "value": "0x4c54ff7f1c424ff5487a32aad0b48b19cbaf087f"
                            }
                        ],
                        "constructorArguments": "",
                        "name": "balanceOf",
                        "returnParams": [
                            {
                                "decimalAvailable": true,
                                "name": "balance",
                                "type": "uint256",
                                "value": "579,936,242,850,124,268,463,020"
                            }
                        ],
                        "signature": "balanceOf(address)"
                    },
                    "errorInfo": "",
                    "fromAddress": "0x4c54ff7f1c424ff5487a32aad0b48b19cbaf087f",
                    "gasUsed": 1053,
                    "id": 9,
                    "methodDecoded": true,
                    "operation": "STATICCALL",
                    "output": "0x000000000000000000000000000000000000000000007ace681ece49482e63ac",
                    "revert": false,
                    "revertMessage": "",
                    "selector": "0x70a08231",
                    "status": true,
                    "value": "0"
                },
                "nodeType": 0
            }
        },
        "gasFlame": [
            {
                "children": [
                    {
                        "children": [
                            {
                                "children": [],
                                "depth": 0,
                                "name": "Initial Gas",
                                "value": 51760
                            },
                            {
                                "children": [
                                    {
                                        "children": [
                                            {
                                                "children": [
                                                    {
                                                        "children": [],
                                                        "depth": 3,
                                                        "name": "transfer",
                                                        "value": 8862
                                                    },
                                                    {
                                                        "children": [],
                                                        "depth": 3,
                                                        "name": "balanceOf",
                                                        "value": 1053
                                                    },
                                                    {
                                                        "children": [
                                                            {
                                                                "children": [],
                                                                "depth": 4,
                                                                "name": "transfer",
                                                                "value": 9731
                                                            }
                                                        ],
                                                        "depth": 3,
                                                        "name": "uniswapV3SwapCallback",
                                                        "value": 10321
                                                    },
                                                    {
                                                        "children": [],
                                                        "depth": 3,
                                                        "name": "balanceOf",
                                                        "value": 1053
                                                    }
                                                ],
                                                "depth": 2,
                                                "name": "swap",
                                                "value": 50545
                                            },
                                            {
                                                "children": [],
                                                "depth": 2,
                                                "name": "fallback",
                                                "value": 0
                                            }
                                        ],
                                        "depth": 1,
                                        "name": "0x2f1c6b50",
                                        "value": 58746
                                    }
                                ],
                                "depth": 0,
                                "name": "Executed Gas",
                                "value": 60604
                            }
                        ],
                        "depth": -1,
                        "name": "Actual Gas Used",
                        "value": 112364
                    },
                    {
                        "children": [],
                        "depth": -1,
                        "name": "Refunded Gas",
                        "value": 0
                    }
                ],
                "depth": -2,
                "name": "Total Gas",
                "value": 112364
            }
        ],
        "isConfirmed": true,
        "mainTrace": [
            {
                "children": [
                    {
                        "children": [
                            {
                                "children": [
                                    {
                                        "children": [
                                            {
                                                "children": [
                                                    {
                                                        "children": [],
                                                        "depth": 4,
                                                        "id": 4,
                                                        "order": 4
                                                    }
                                                ],
                                                "depth": 3,
                                                "id": 3,
                                                "order": 3
                                            },
                                            {
                                                "children": [],
                                                "depth": 3,
                                                "id": 5,
                                                "order": 5
                                            },
                                            {
                                                "children": [
                                                    {
                                                        "children": [
                                                            {
                                                                "children": [],
                                                                "depth": 5,
                                                                "id": 8,
                                                                "order": 8
                                                            }
                                                        ],
                                                        "depth": 4,
                                                        "id": 7,
                                                        "order": 7
                                                    }
                                                ],
                                                "depth": 3,
                                                "id": 6,
                                                "order": 6
                                            },
                                            {
                                                "children": [],
                                                "depth": 3,
                                                "id": 9,
                                                "order": 9
                                            },
                                            {
                                                "children": [],
                                                "depth": 3,
                                                "id": 10,
                                                "order": 10
                                            }
                                        ],
                                        "depth": 2,
                                        "id": 2,
                                        "order": 2
                                    },
                                    {
                                        "children": [],
                                        "depth": 2,
                                        "id": 11,
                                        "order": 11
                                    }
                                ],
                                "depth": 1,
                                "id": 1,
                                "order": 1
                            }
                        ],
                        "depth": 0,
                        "id": 0,
                        "order": 0
                    }
                ],
                "depth": -1,
                "id": -1,
                "order": -1
            }
        ],
        "mainTraceNodeCount": 12,
        "parentIdMap": {
            "0": -1,
            "1": 0,
            "10": 2,
            "11": 1,
            "2": 1,
            "3": 2,
            "4": 3,
            "5": 2,
            "6": 2,
            "7": 6,
            "8": 7,
            "9": 2
        },
        "tidyTrace": [
            {
                "children": [
                    {
                        "children": [
                            {
                                "children": [
                                    {
                                        "children": [
                                            {
                                                "children": [
                                                    {
                                                        "children": [],
                                                        "depth": 4,
                                                        "id": 4,
                                                        "order": 4
                                                    }
                                                ],
                                                "depth": 3,
                                                "id": 3,
                                                "order": 3
                                            },
                                            {
                                                "children": [
                                                    {
                                                        "children": [
                                                            {
                                                                "children": [],
                                                                "depth": 5,
                                                                "id": 8,
                                                                "order": 8
                                                            }
                                                        ],
                                                        "depth": 4,
                                                        "id": 7,
                                                        "order": 7
                                                    }
                                                ],
                                                "depth": 3,
                                                "id": 6,
                                                "order": 6
                                            },
                                            {
                                                "children": [],
                                                "depth": 3,
                                                "id": 10,
                                                "order": 10
                                            }
                                        ],
                                        "depth": 2,
                                        "id": 2,
                                        "order": 2
                                    },
                                    {
                                        "children": [],
                                        "depth": 2,
                                        "id": 11,
                                        "order": 11
                                    }
                                ],
                                "depth": 1,
                                "id": 1,
                                "order": 1
                            }
                        ],
                        "depth": 0,
                        "id": 0,
                        "order": 0
                    }
                ],
                "depth": -1,
                "id": -1,
                "order": -1
            }
        ],
        "tidyTraceNodeCount": 10
    },
    "state_change": {
        "stateChanges": [
            {
                "address": "0x4c54ff7f1c424ff5487a32aad0b48b19cbaf087f",
                "erc": "",
                "slots": [
                    {
                        "current": "0x00010000900090003efecf4a0000000000000000052e75b28abb5bb0bdafdb50",
                        "key": "0x0000000000000000000000000000000000000000000000000000000000000000",
                        "prev": "0x00010000900090003dfecf4b0000000000000000052e837f2984560bf6994b48"
                    },
                    {
                        "current": "0x01000000000000000000012ff5fe060b12bd0953b8fff8b0a19a875366dc575b",
                        "key": "0x0000000000000000000000000000000000000000000000000000000000000046",
                        "prev": "0x01000000000000000000012fee0997fe46c4450544fff8b3850904e766d9ea73"
                    },
                    {
                        "current": "0x0000000000000000000000000000000a9c4aa8de044030a80b0e6ba89277b1c8",
                        "key": "0x0000000000000000000000000000000000000000000000000000000000000001",
                        "prev": "0x0000000000000000000000000000000a9c4a43839dde75cf802c4058b61263b0"
                    }
                ],
                "storageVariables": []
            },
            {
                "address": "0xb62132e35a6c13ee1ee0f84dc5d40bad8d815206",
                "erc": "ERC-20",
                "slots": [
                    {
                        "current": "0x000000000000000000000000000000000000000000007ace681ece49482e63ac",
                        "key": "0x305d300697a2dd406f1f9b913de732225f7d627baac297e4a0ceaca8cdbcdb2b",
                        "prev": "0x000000000000000000000000000000000000000000007aa5e468f8ee47e20d93"
                    },
                    {
                        "current": "0x0000000000000000000000000000000000000000000006212389b7ef3f576dc2",
                        "key": "0x35d7fb7665514f774d2c2df607e197eb8674b6e63d2638472758647a2e67406a",
                        "prev": "0x000000000000000000000000000000000000000000000649a73f8d4a3fa3c3db"
                    }
                ],
                "storageVariables": [
                    {
                        "name": "balances",
                        "type": "mapping(address => uint256)",
                        "value": {
                            "pairs": [
                                {
                                    "key": "0x4c54ff7f1c424ff5487a32aad0b48b19cbaf087f",
                                    "value": {
                                        "current": "579936242850124268463020",
                                        "prev": "579188882360799309467027",
                                        "typeTag": 1
                                    }
                                },
                                {
                                    "key": "0xa69babef1ca67a37ffaf7a485dfff3382056e78c",
                                    "value": {
                                        "current": "28945502231751611084226",
                                        "prev": "29692862721076570080219",
                                        "typeTag": 1
                                    }
                                }
                            ],
                            "typeTag": 4
                        }
                    }
                ]
            },
            {
                "address": "0xc02aaa39b223fe8d0a0e5c4f27ead9083c756cc2",
                "erc": "ERC-20",
                "slots": [
                    {
                        "current": "0x0000000000000000000000000000000000000000000000165cd13414635e6f0a",
                        "key": "0x4bfedfecee26188d9f5e542f75f728f5a1cc87a88aa9f0b612d218189139c96d",
                        "prev": "0x000000000000000000000000000000000000000000000016610db5494ad3c008"
                    },
                    {
                        "current": "0x000000000000000000000000000000000000000000000298333ae35f85b9ec5d",
                        "key": "0x75245230289a9f0bf73a6c59aef6651b98b3833a62a3c0bd9ab6b0dec8ed4d8f",
                        "prev": "0x0000000000000000000000000000000000000000000002982efe622a9e449b5f"
                    }
                ],
                "storageVariables": [
                    {
                        "name": "balanceOf",
                        "type": "mapping(address => uint256)",
                        "value": {
                            "pairs": [
                                {
                                    "key": "0x4c54ff7f1c424ff5487a32aad0b48b19cbaf087f",
                                    "value": {
                                        "current": "412516553805403156234",
                                        "prev": "412821814744379015176",
                                        "typeTag": 1
                                    }
                                },
                                {
                                    "key": "0xa69babef1ca67a37ffaf7a485dfff3382056e78c",
                                    "value": {
                                        "current": "12252329577787130768477",
                                        "prev": "12252024316848154909535",
                                        "typeTag": 1
                                    }
                                }
                            ],
                            "typeTag": 4
                        }
                    }
                ]
            }
        ]
    }
}