{
    "balance_change": {
        "balanceChanges": [
            {
                "account": "0x6eecf9561edccfcd951075a0741935ee22b55109",
                "assets": [
                    {
                        "address": "0x2b591e99afe9f32eaa6214f7b7629768c40eeb39",
                        "amount": "749,742.61326933",
                        "iconUrl": "https://assets.blocksec.com/icon/095f9b44449785f7c45bb63956eff8a843b6ae503f7b4576f9d9f27351808b2a.png",
                        "isERC1155": false,
                        "isERC721": false,
                        "sign": true,
                        "value": "20981.141944237850446"
                    }
                ]
            },
            {
                "account": "0x0000000000000000000000000000000000000000",
                "assets": [
                    {
                        "address": "0x2b591e99afe9f32eaa6214f7b7629768c40eeb39",
                        "amount": "749,742.61326933",
                        "iconUrl": "https://assets.blocksec.com/icon/095f9b44449785f7c45bb63956eff8a843b6ae503f7b4576f9d9f27351808b2a.png",
                        "isERC1155": false,
                        "isERC721": false,
                        "sign": false,
                        "value": "20981.141944237850446"
                    }
                ]
            }
        ]
    },
    "profile": {
        "basic_info": {
            "baseFee": "11.509419683",
            "blockNumber": 16166564,
            "callData": "0x343009a2000000000000000000000000000000000000000000000000000000000000001800000000000000000000000000000000000000000000000000000000000ae6b2",
            "debugEnable": true,
            "errorInfo": "",
            "eventCount": 2,
            "feeRecipient": "0xfeebabe6b0418ec13b30aadf129f5dcdd4f70cea",
            "formatValue": "0",
            "gasLimit": 277036,
            "gasPrice": "12.15356578",
            "gasUsed": 177736,
            "intTxnCount": 0,
            "internalRevert": false,
            "internalRevertMessage": "",
            "isContractCreation": false,
            "isFlashloan": false,
            "maxFee": "12.615366472",
            "nonce": 134,
            "overwritedBlockNumber": -1,
            "priorityFee": "0.644146097",
            "receiver": "0x2b591e99afe9f32eaa6214f7b7629768c40eeb39",
            "revertMessage": "",
            "sender": "0x6eecf9561edccfcd951075a0741935ee22b55109",
            "simulationEnable": true,
            "sourceTxnHash": "0x81305cd8332e2478a13f245eb7df1f5bbf5424c50917b1ce14aaea651f4a8477",
            "status": true,
            "timestamp": "2022-12-12T05:32:47Z",
            "transactionFee": "0.00216012616747408",
            "txnHash": "0x81305cd8332e2478a13f245eb7df1f5bbf5424c50917b1ce14aaea651f4a8477",
            "txnIndex": 63,
            "type": 2,
            "value": "0"
        },
        "fund_flow": [
            {
                "amount": "749,742.61326933",
                "from": "0x0000000000000000000000000000000000000000",
                "id": 1,
                "isERC1155": false,
                "isERC721": false,
                "isReverted": false,
                "order": 1,
                "to": "0x6eecf9561edccfcd951075a0741935ee22b55109",
                "token": "0x2b591e99afe9f32eaa6214f7b7629768c40eeb39"
            }
        ],
        "token_infos": [
            {
                "address": "0xc02aaa39b223fe8d0a0e5c4f27ead9083c756cc2",
                "decimals": 18
            },
            {
                "address": "0xeeeeeeeeeeeeeeeeeeeeeeeeeeeeeeeeeeeeeeee",
                "decimals": 18
            },
            {
                "address": "0x2b591e99afe9f32eaa6214f7b7629768c40eeb39",
                "decimals": 8
            }
        ]
    },
    "address_label": {
        "labels": [
            {
                "address": "0x0000000000000000000000000000000000000003",
                "label": "Precompiled"
            },
            {
                "address": "0x0000000000000000000000000000000000000004",
                "label": "Precompiled"
            },
            {
                "address": "0xeeeeeeeeeeeeeeeeeeeeeeeeeeeeeeeeeeeeeeee",
                "label": "Ether"
            },
            {
                "address": "0x2b591e99afe9f32eaa6214f7b7629768c40eeb39",
                "label": "HEX.com: HEX Token"
            },
            {
                "address": "0x0000000000000000000000000000000000000001",
                "label": "Precompiled"
            },
            {
                "address": "0x0000000000000000000000000000000000000002",
                "label": "Precompiled"
            }
        ]
    },
    "trace": {
        "accountLabels": null,
        "dataMap": {
            "-1": {
                "invocation": {
                    "address": "0x6eecf9561edccfcd951075a0741935ee22b55109",
                    "callData": "",
                    "decodedMethod": null,
                    "errorInfo": "",
                    "fromAddress": "",
                    "gasUsed": 0,
                    "id": -1,
                    "methodDecoded": false,
                    "operation": "",
                    "output": "",
                    "revert": false,
                    "revertMessage": "",
                    "selector": "",
                    "status": false,
                    "value": ""
                },
                "nodeType": 0
            },
            "0": {
                "invocation": {
                    "address": "0x2b591e99afe9f32eaa6214f7b7629768c40eeb39",
                    "callData": "0x000000000000000000000000000000000000000000000000000000000000001800000000000000000000000000000000000000000000000000000000000ae6b2",
                    "decodedMethod": {
                        "callParams": [
                            {
                                "name": "stakeIndex",
                                "type": "uint256",
                                "value": "24"
                            },
                            {
                                "name": "stakeIdParam",
                                "type": "uint40",
                                "value": "714,418"
                            }
                        ],
                        "constructorArguments": "",
                        "name": "stakeEnd",
                        "returnParams": [],
                        "signature": "stakeEnd(uint256,uint40)"
                    },
                    "errorInfo": "",
                    "fromAddress": "0x6eecf9561edccfcd951075a0741935ee22b55109",
                    "gasUsed": 177736,
                    "id": 0,
                    "methodDecoded": true,
                    "operation": "CALL",
                    "output": "",
                    "revert": false,
                    "revertMessage": "",
                    "selector": "0x343009a2",
                    "status": true,
                    "value": "0"
                },
                "nodeType": 0
            },
            "1": {
                "event": {
                    "contract": "0x2b591e99afe9f32eaa6214f7b7629768c40eeb39",
                    "decodedLog": {
                        "name": "StakeEnd",
                        "params": [
                            {
                                "name": "stakerAddr",
                                "type": "address",
                                "value": "0x6eecf9561edccfcd951075a0741935ee22b55109"
                            },
                            {
                                "name": "stakeId",
                                "type": "uint40",
                                "value": "714,418"
                            },
                            {
                                "name": "data0",
                                "type": "uint256",
                                "value": "21,580,226,726,308,189,340,591,412,775,884,891,117,181,209,425,191,964,252,774,728,121,599"
                            },
                            {
                                "name": "data1",
                                "type": "uint256",
                                "value": "212,506,491,729,134,034,616,320"
                            }
                        ],
                        "signature": "StakeEnd(uint256,uint256,address,uint40)"
                    },
                    "id": 1,
                    "logData": "0x00000000cceaa00fcf0000001baa9ac81c4100000043636396a486006396bcff000000000000000000000000000000000000000000002d000000000000000000",
                    "logDecoded": true,
                    "operation": "EVENT",
                    "revert": false,
                    "status": true,
                    "topics": [
                        "0x72d9c5a7ab13846e08d9c838f9e866a1bb4a66a2fd3ba3c9e7da3cf9e394dfd7",
                        "0x0000000000000000000000006eecf9561edccfcd951075a0741935ee22b55109",
                        "0x00000000000000000000000000000000000000000000000000000000000ae6b2"
                    ]
                },
                "nodeType": 1
            },
            "2": {
                "event": {
                    "contract": "0x2b591e99afe9f32eaa6214f7b7629768c40eeb39",
                    "decodedLog": {
                        "name": "Transfer",
                        "params": [
                            {
                                "name": "from",
                                "type": "address",
                                "value": "0x0000000000000000000000000000000000000000"
                            },
                            {
                                "name": "to",
                                "type": "address",
                                "value": "0x6eecf9561edccfcd951075a0741935ee22b55109"
                            },
                            {
                                "decimalAvailable": true,
                                "name": "value",
                                "type": "uint256",
                                "value": "74,974,261,326,933"
                            }
                        ],
                        "signature": "Transfer(address,address,uint256)"
                    },
                    "id": 2,
                    "logData": "0x000000000000000000000000000000000000000000000000000044304e36b455",
                    "logDecoded": true,
                    "operation": "EVENT",
                    "revert": false,
                    "status": true,
                    "topics": [
                        "0xddf252ad1be2c89b69c2b068fc378daa952ba7f163c4a11628f55a4df523b3ef",
                        "0x0000000000000000000000000000000000000000000000000000000000000000",
                        "0x0000000000000000000000006eecf9561edccfcd951075a0741935ee22b55109"
                    ]
                },
                "nodeType": 1
            }
        },
        "gasFlame": [
            {
                "children": [
                    {
                        "children": [
                            {
                                "children": [],
                                "depth": 0,
                                "name": "Initial Gas",
                                "value": 21368
                            },
                            {
                                "children": [],
                                "depth": 0,
                                "name": "Executed Gas",
                                "value": 161168
                            }
                        ],
                        "depth": -1,
                        "name": "Actual Gas Used",
                        "value": 177736
                    },
                    {
                        "children": [],
                        "depth": -1,
                        "name": "Refunded Gas",
                        "value": 4800
                    }
                ],
                "depth": -2,
                "name": "Total Gas",
                "value": 182536
            }
        ],
        "isConfirmed": true,
        "mainTrace": [
            {
                "children": [
                    {
                        "children": [
                            {
                                "children": [],
                                "depth": 1,
                                "id": 1,
                                "order": 1
                            },
                            {
                                "children": [],
                                "depth": 1,
                                "id": 2,
                                "order": 2
                            }
                        ],
                        "depth": 0,
                        "id": 0,
                        "order": 0
                    }
                ],
                "depth": -1,
                "id": -1,
                "order": -1
            }
        ],
        "mainTraceNodeCount": 3,
        "parentIdMap": {
            "0": -1,
            "1": 0,
            "2": 0
        },
        "tidyTrace": [
            {
                "children": [
                    {
                        "children": [
                            {
                                "children": [],
                                "depth": 1,
                                "id": 1,
                                "order": 1
                            },
                            {
                                "children": [],
                                "depth": 1,
                                "id": 2,
                                "order": 2
                            }
                        ],
                        "depth": 0,
                        "id": 0,
                        "order": 0
                    }
                ],
                "depth": -1,
                "id": -1,
                "order": -1
            }
        ],
        "tidyTraceNodeCount": 3
    },
    "state_change": {
        "stateChanges": [
            {
                "address": "0x2b591e99afe9f32eaa6214f7b7629768c40eeb39",
                "erc": "ERC-20",
                "slots": [
                    {
                        "current": "0x0000000000000000000000000000000000000000000000000000000000000018",
                        "key": "0x2e81ee88a7000963efe6879d981108cdfc5d653aec71926b43c361d998c18382",
                        "prev": "0x0000000000000000000000000000000000000000000000000000000000000019"
                    },
                    {
                        "current": "0x000000998384d76983000003dad500000bd828fe3a990e0056d798dacb95b12e",
                        "key": "0x0000000000000000000000000000000000000000000000000000000000000003",
                        "prev": "0x000000998384d76983000003dad500000bd828fe3a990e0056d7dc3e2f2c55b4"
                    },
                    {
                        "current": "0x001dff00bacc6db6fa3658f34ca497f400000b357a008e74ca57f9f90bf30451",
                        "key": "0x0000000000000000000000000000000000000000000000000000000000000004",
                        "prev": "0x001dff00bacc6db6fa3658f34ca497f400000b357a008e74e60294c128340451"
                    },
                    {
                        "current": "0x000000000000000000000000000000000000000000000003288934d7dceb51ec",
                        "key": "0x0000000000000000000000000000000000000000000000000000000000000002",
                        "prev": "0x0000000000000000000000000000000000000000000000032888f0a78eb49d97"
                    },
                    {
                        "current": "0x000000000000000000000000000000000000000000000000000044304e36b455",
                        "key": "0xf019b7773d4313943a4cda0e5f86ede2589c9157334a09057a1914dccf987d36",
                        "prev": "0x0000000000000000000000000000000000000000000000000000000000000000"
                    },
                    {
                        "current": "0x0000000000000000000000000000000000000000000000000000000000000000",
                        "key": "0x907332b87c350c93cbe4e0a0a7ad17060cab0e8ccc89f13bc5897eff19a76198",
                        "prev": "0x0000000000002d04240000001baa9ac81c4100000043636396a48600000ae6b2"
                    }
                ],
                "storageVariables": [
                    {
                        "name": "globals",
                        "type": "struct GlobalsAndUtility.GlobalsStore",
                        "value": {
                            "fields": [
                                {
                                    "name": "lockedHeartsTotal",
                                    "type": "uint72",
                                    "value": {
                                        "current": "6257638272740471086",
                                        "prev": "6257712366892111284",
                                        "typeTag": 1
                                    }
                                },
                                {
                                    "name": "nextStakeSharesTotal",
                                    "type": "uint72",
                                    "value": {
                                        "current": "3333895319361806",
                                        "prev": "3333895319361806",
                                        "typeTag": 1
                                    }
                                },
                                {
                                    "name": "shareRate",
                                    "type": "uint40",
                                    "value": {
                                        "current": "252629",
                                        "prev": "252629",
                                        "typeTag": 1
                                    }
                                },
                                {
                                    "name": "stakePenaltyTotal",
                                    "type": "uint72",
                                    "value": {
                                        "current": "168790148475267",
                                        "prev": "168790148475267",
                                        "typeTag": 1
                                    }
                                },
                                {
                                    "name": "dailyDataCount",
                                    "type": "uint16",
                                    "value": {
                                        "current": "1105",
                                        "prev": "1105",
                                        "typeTag": 1
                                    }
                                },
                                {
                                    "name": "stakeSharesTotal",
                                    "type": "uint72",
                                    "value": {
                                        "current": "10265051929889016819",
                                        "prev": "10265082349444212788",
                                        "typeTag": 1
                                    }
                                },
                                {
                                    "name": "latestStakeId",
                                    "type": "uint40",
                                    "value": {
                                        "current": "734586",
                                        "prev": "734586",
                                        "typeTag": 1
                                    }
                                },
                                {
                                    "name": "claimStats",
                                    "type": "uint128",
                                    "value": {
                                        "current": "155748681157791984440808243751852020",
                                        "prev": "155748681157791984440808243751852020",
                                        "typeTag": 1
                                    }
                                }
                            ],
                            "typeTag": 3
                        }
                    },
                    {
                        "name": "_balances",
                        "type": "mapping(address => uint256)",
                        "value": {
                            "pairs": [
                                {
                                    "key": "0x6eecf9561edccfcd951075a0741935ee22b55109",
                                    "value": {
                                        "current": "74974261326933",
                                        "prev": "0",
                                        "typeTag": 1
                                    }
                                }
                            ],
                            "typeTag": 4
                        }
                    },
                    {
                        "name": "_totalSupply",
                        "type": "uint256",
                        "value": {
                            "current": "58261156156184154604",
                            "prev": "58261081181922827671",
                            "typeTag": 1
                        }
                    }
                ]
            }
        ]
    }
}