{
    "balance_change": {
        "balanceChanges": [
            {
                "account": "0x02d85ca0753ae7d7039cb9d3ea84508c2b06d2c4",
                "assets": [
                    {
                        "address": "0xb57919aebb30812ae188dbe238bc907d56ba4a3a",
                        "amount": "1,000",
                        "iconUrl": "",
                        "isERC1155": false,
                        "isERC721": false,
                        "sign": false,
                        "value": ""
                    }
                ]
            },
            {
                "account": "0xc981ceff1f5313655c995f5c5b1b341fa90b07f8",
                "assets": [
                    {
                        "address": "0xb57919aebb30812ae188dbe238bc907d56ba4a3a",
                        "amount": "1,000",
                        "iconUrl": "",
                        "isERC1155": false,
                        "isERC721": false,
                        "sign": true,
                        "value": ""
                    }
                ]
            }
        ]
    },
    "profile": {
        "basic_info": {
            "baseFee": "",
            "blockNumber": 6611896,
            "callData": "0xa9059cbb000000000000000000000000c981ceff1f5313655c995f5c5b1b341fa90b07f800000000000000000000000000000000000000000000000000038d7ea4c68000",
            "debugEnable": true,
            "errorInfo": "",
            "eventCount": 1,
            "feeRecipient": "0x5a0b54d5dc17e0aadc383d2db43b0a0d3e029c4c",
            "formatValue": "0",
            "gasLimit": 90000,
            "gasPrice": "8.304346624",
            "gasUsed": 52565,
            "intTxnCount": 0,
            "internalRevert": false,
            "internalRevertMessage": "",
            "isContractCreation": false,
            "isFlashloan": false,
            "maxFee": "",
            "nonce": 1202,
            "overwritedBlockNumber": -1,
            "priorityFee": "",
            "receiver": "0xb57919aebb30812ae188dbe238bc907d56ba4a3a",
            "revertMessage": "",
            "sender": "0x02d85ca0753ae7d7039cb9d3ea84508c2b06d2c4",
            "simulationEnable": true,
            "sourceTxnHash": "0x81b35191086d326541fb6a0674fa75c587f1d780845973a2f05e6c7590a43ba0",
            "status": true,
            "timestamp": "2018-10-30T14:15:04Z",
            "transactionFee": "0.00043651798029056",
            "txnHash": "0x81b35191086d326541fb6a0674fa75c587f1d780845973a2f05e6c7590a43ba0",
            "txnIndex": 16,
            "type": 0,
            "value": "0"
        },
        "fund_flow": [
            {
                "amount": "1,000",
                "from": "0x02d85ca0753ae7d7039cb9d3ea84508c2b06d2c4",
                "id": 1,
                "isERC1155": false,
                "isERC721": false,
                "isReverted": false,
                "order": 1,
                "to": "0xc981ceff1f5313655c995f5c5b1b341fa90b07f8",
                "token": "0xb57919aebb30812ae188dbe238bc907d56ba4a3a"
            }
        ],
        "token_infos": [
            {
                "address": "0xb57919aebb30812ae188dbe238bc907d56ba4a3a",
                "decimals": 12
            },
            {
                "address": "0xc02aaa39b223fe8d0a0e5c4f27ead9083c756cc2",
                "decimals": 18
            },
            {
                "address": "0xeeeeeeeeeeeeeeeeeeeeeeeeeeeeeeeeeeeeeeee",
                "decimals": 18
            }
        ]
    },
    "address_label": {
        "labels": [
            {
                "address": "0xeeeeeeeeeeeeeeeeeeeeeeeeeeeeeeeeeeeeeeee",
                "label": "Ether"
            },
            {
                "address": "0xb57919aebb30812ae188dbe238bc907d56ba4a3a",
                "label": "EYC"
            },
            {
                "address": "0x0000000000000000000000000000000000000001",
                "label": "Precompiled"
            },
            {
                "address": "0x0000000000000000000000000000000000000002",
                "label": "Precompiled"
            },
            {
                "address": "0x0000000000000000000000000000000000000003",
                "label": "Precompiled"
            },
            {
                "address": "0x0000000000000000000000000000000000000004",
                "label": "Precompiled"
            }
        ]
    },
    "trace": {
        "accountLabels": null,
        "dataMap": {
            "-1": {
                "invocation": {
                    "address": "0x02d85ca0753ae7d7039cb9d3ea84508c2b06d2c4",
                    "callData": "",
                    "decodedMethod": null,
                    "errorInfo": "",
                    "fromAddress": "",
                    "gasUsed": 0,
                    "id": -1,
                    "methodDecoded": false,
                    "operation": "",
                    "output": "",
                    "revert": false,
                    "revertMessage": "",
                    "selector": "",
                    "status": false,
                    "value": ""
                },
                "nodeType": 0
            },
            "0": {
                "invocation": {
                    "address": "0xb57919aebb30812ae188dbe238bc907d56ba4a3a",
                    "callData": "0x000000000000000000000000c981ceff1f5313655c995f5c5b1b341fa90b07f800000000000000000000000000000000000000000000000000038d7ea4c68000",
                    "decodedMethod": {
                        "callParams": [
                            {
                                "name": "_to",
                                "type": "address",
                                "value": "0xc981ceff1f5313655c995f5c5b1b341fa90b07f8"
                            },
                            {
                                "decimalAvailable": true,
                                "name": "_value",
                                "type": "uint256",
                                "value": "1,000,000,000,000,000"
                            }
                        ],
                        "constructorArguments": "",
                        "name": "transfer",
                        "returnParams": [
                            {
                                "name": "",
                                "type": "bool",
                                "value": true
                            }
                        ],
                        "signature": "transfer(address,uint256)"
                    },
                    "errorInfo": "",
                    "fromAddress": "0x02d85ca0753ae7d7039cb9d3ea84508c2b06d2c4",
                    "gasUsed": 52565,
                    "id": 0,
                    "methodDecoded": true,
                    "operation": "CALL",
                    "output": "0x0000000000000000000000000000000000000000000000000000000000000001",
                    "revert": false,
                    "revertMessage": "",
                    "selector": "0xa9059cbb",
                    "status": true,
                    "value": "0"
                },
                "nodeType": 0
            },
            "1": {
                "event": {
                    "contract": "0xb57919aebb30812ae188dbe238bc907d56ba4a3a",
                    "decodedLog": {
                        "name": "Transfer",
                        "params": [
                            {
                                "name": "from",
                                "type": "address",
                                "value": "0x02d85ca0753ae7d7039cb9d3ea84508c2b06d2c4"
                            },
                            {
                                "name": "to",
                                "type": "address",
                                "value": "0xc981ceff1f5313655c995f5c5b1b341fa90b07f8"
                            },
                            {
                                "decimalAvailable": true,
                                "name": "value",
                                "type": "uint256",
                                "value": "1,000,000,000,000,000"
                            }
                        ],
                        "signature": "Transfer(address,address,uint256)"
                    },
                    "id": 1,
                    "logData": "0x00000000000000000000000000000000000000000000000000038d7ea4c68000",
                    "logDecoded": true,
                    "operation": "EVENT",
                    "revert": false,
                    "status": true,
                    "topics": [
                        "0xddf252ad1be2c89b69c2b068fc378daa952ba7f163c4a11628f55a4df523b3ef",
                        "0x00000000000000000000000002d85ca0753ae7d7039cb9d3ea84508c2b06d2c4",
                        "0x000000000000000000000000c981ceff1f5313655c995f5c5b1b341fa90b07f8"
                    ]
                },
                "nodeType": 1
            }
        },
        "gasFlame": [
            {
                "children": [
                    {
                        "children": [
                            {
                                "children": [],
                                "depth": 0,
                                "name": "Initial Gas",
                                "value": 23192
                            },
                            {
                                "children": [],
                                "depth": 0,
                                "name": "Executed Gas",
                                "value": 29373
                            }
                        ],
                        "depth": -1,
                        "name": "Actual Gas Used",
                        "value": 52565
                    },
                    {
                        "children": [],
                        "depth": -1,
                        "name": "Refunded Gas",
                        "value": 0
                    }
                ],
                "depth": -2,
                "name": "Total Gas",
                "value": 52565
            }
        ],
        "isConfirmed": true,
        "mainTrace": [
            {
                "children": [
                    {
                        "children": [
                            {
                                "children": [],
                                "depth": 1,
                                "id": 1,
                                "order": 1
                            }
                        ],
                        "depth": 0,
                        "id": 0,
                        "order": 0
                    }
                ],
                "depth": -1,
                "id": -1,
                "order": -1
            }
        ],
        "mainTraceNodeCount": 2,
        "parentIdMap": {
            "0": -1,
            "1": 0
        },
        "tidyTrace": [
            {
                "children": [
                    {
                        "children": [
                            {
                                "children": [],
                                "depth": 1,
                                "id": 1,
                                "order": 1
                            }
                        ],
                        "depth": 0,
                        "id": 0,
                        "order": 0
                    }
                ],
                "depth": -1,
                "id": -1,
                "order": -1
            }
        ],
        "tidyTraceNodeCount": 2
    },
    "state_change": {
        "stateChanges": [
            {
                "address": "0xb57919aebb30812ae188dbe238bc907d56ba4a3a",
                "erc": "ERC-20",
                "slots": [
                    {
                        "current": "0x00000000000000000000000000000000000000000000006017a7228192438000",
                        "key": "0x6cd430e18cd6d290a74c95d9cb8d6eeaef8733f25e97040e7d17a3aa4db6bbd9",
                        "prev": "0x00000000000000000000000000000000000000000000006017aab000370a0000"
                    },
                    {
                        "current": "0x00000000000000000000000000000000000000000000000000038d7ea4c68000",
                        "key": "0xa97fc89fa890ea1951cb76e9028e40bd0a0a17e10f552a6ce3be3c642836e2a4",
                        "prev": "0x0000000000000000000000000000000000000000000000000000000000000000"
                    }
                ],
                "storageVariables": [
                    {
                        "name": "balances",
                        "type": "mapping(address => uint256)",
                        "value": {
                            "pairs": [
                                {
                                    "key": "0x02d85ca0753ae7d7039cb9d3ea84508c2b06d2c4",
                                    "value": {
                                        "current": "1772591800000000000000",
                                        "prev": "1772592800000000000000",
                                        "typeTag": 1
                                    }
                                },
                                {
                                    "key": "0xc981ceff1f5313655c995f5c5b1b341fa90b07f8",
                                    "value": {
                                        "current": "1000000000000000",
                                        "prev": "0",
                                        "typeTag": 1
                                    }
                                }
                            ],
                            "typeTag": 4
                        }
                    }
                ]
            }
        ]
    }
}