{
    "balance_change": {
        "balanceChanges": [
            {
                "account": "0x568b2fea968fd14c0eba5ad4d5d18ffef22c5404",
                "assets": [
                    {
                        "address": "0x5cf04716ba20127f1e2297addcf4b5035000c9eb",
                        "amount": "14,235",
                        "iconUrl": "https://assets.blocksec.com/icon/a0b5b6773a730e7a00c3a6240a7c761311d89874f09a2c5be6a1545060f54baf.png",
                        "isERC1155": false,
                        "isERC721": false,
                        "sign": false,
                        "value": ""
                    }
                ]
            },
            {
                "account": "0x1062a747393198f70f71ec65a582423dba7e5ab3",
                "assets": [
                    {
                        "address": "0x5cf04716ba20127f1e2297addcf4b5035000c9eb",
                        "amount": "14,235",
                        "iconUrl": "https://assets.blocksec.com/icon/a0b5b6773a730e7a00c3a6240a7c761311d89874f09a2c5be6a1545060f54baf.png",
                        "isERC1155": false,
                        "isERC721": false,
                        "sign": true,
                        "value": ""
                    }
                ]
            }
        ]
    },
    "profile": {
        "basic_info": {
            "baseFee": "",
            "blockNumber": 9476789,
            "callData": "0xa9059cbb0000000000000000000000001062a747393198f70f71ec65a582423dba7e5ab3000000000000000000000000000000000000000000000303ae4f37bcd58c0000",
            "debugEnable": true,
            "errorInfo": "",
            "eventCount": 1,
            "feeRecipient": "0xa7b0536fb02c593b0dfd82bd65aacbdd19ae4777",
            "formatValue": "0",
            "gasLimit": 140000,
            "gasPrice": "5",
            "gasUsed": 23057,
            "intTxnCount": 0,
            "internalRevert": false,
            "internalRevertMessage": "",
            "isContractCreation": false,
            "isFlashloan": false,
            "maxFee": "",
            "nonce": 665,
            "overwritedBlockNumber": -1,
            "priorityFee": "",
            "receiver": "0x5cf04716ba20127f1e2297addcf4b5035000c9eb",
            "revertMessage": "",
            "sender": "0x568b2fea968fd14c0eba5ad4d5d18ffef22c5404",
            "simulationEnable": true,
            "sourceTxnHash": "0x81adfb639c4074df936445b7d23e7a8d32a2d9997c5f2e39350a70943eada099",
            "status": true,
            "timestamp": "2020-02-13T20:18:41Z",
            "transactionFee": "0.000115285",
            "txnHash": "0x81adfb639c4074df936445b7d23e7a8d32a2d9997c5f2e39350a70943eada099",
            "txnIndex": 11,
            "type": 0,
            "value": "0"
        },
        "fund_flow": [
            {
                "amount": "14,235",
                "from": "0x568b2fea968fd14c0eba5ad4d5d18ffef22c5404",
                "id": 1,
                "isERC1155": false,
                "isERC721": false,
                "isReverted": false,
                "order": 1,
                "to": "0x1062a747393198f70f71ec65a582423dba7e5ab3",
                "token": "0x5cf04716ba20127f1e2297addcf4b5035000c9eb"
            }
        ],
        "token_infos": [
            {
                "address": "0x5cf04716ba20127f1e2297addcf4b5035000c9eb",
                "decimals": 18
            },
            {
                "address": "0xc02aaa39b223fe8d0a0e5c4f27ead9083c756cc2",
                "decimals": 18
            },
            {
                "address": "0xeeeeeeeeeeeeeeeeeeeeeeeeeeeeeeeeeeeeeeee",
                "decimals": 18
            }
        ]
    },
    "address_label": {
        "labels": [
            {
                "address": "0x0000000000000000000000000000000000000001",
                "label": "Precompiled"
            },
            {
                "address": "0x0000000000000000000000000000000000000002",
                "label": "Precompiled"
            },
            {
                "address": "0x0000000000000000000000000000000000000003",
                "label": "Precompiled"
            },
            {
                "address": "0x0000000000000000000000000000000000000004",
                "label": "Precompiled"
            },
            {
                "address": "0xeeeeeeeeeeeeeeeeeeeeeeeeeeeeeeeeeeeeeeee",
                "label": "Ether"
            },
            {
                "address": "0x1062a747393198f70f71ec65a582423dba7e5ab3",
                "label": "HTX 9"
            },
            {
                "address": "0x5cf04716ba20127f1e2297addcf4b5035000c9eb",
                "label": "NKN: NKN Token"
            }
        ]
    },
    "trace": {
        "accountLabels": null,
        "dataMap": {
            "-1": {
                "invocation": {
                    "address": "0x568b2fea968fd14c0eba5ad4d5d18ffef22c5404",
                    "callData": "",
                    "decodedMethod": null,
                    "errorInfo": "",
                    "fromAddress": "",
                    "gasUsed": 0,
                    "id": -1,
                    "methodDecoded": false,
                    "operation": "",
                    "output": "",
                    "revert": false,
                    "revertMessage": "",
                    "selector": "",
                    "status": false,
                    "value": ""
                },
                "nodeType": 0
            },
            "0": {
                "invocation": {
                    "address": "0x5cf04716ba20127f1e2297addcf4b5035000c9eb",
                    "callData": "0x0000000000000000000000001062a747393198f70f71ec65a582423dba7e5ab3000000000000000000000000000000000000000000000303ae4f37bcd58c0000",
                    "decodedMethod": {
                        "callParams": [
                            {
                                "name": "_to",
                                "type": "address",
                                "value": "0x1062a747393198f70f71ec65a582423dba7e5ab3"
                            },
                            {
                                "decimalAvailable": true,
                                "name": "_value",
                                "type": "uint256",
                                "value": "14,235,000,000,000,000,000,000"
                            }
                        ],
                        "constructorArguments": "",
                        "name": "transfer",
                        "returnParams": [
                            {
                                "name": "",
                                "type": "bool",
                                "value": true
                            }
                        ],
                        "signature": "transfer(address,uint256)"
                    },
                    "errorInfo": "",
                    "fromAddress": "0x568b2fea968fd14c0eba5ad4d5d18ffef22c5404",
                    "gasUsed": 23057,
                    "id": 0,
                    "methodDecoded": true,
                    "operation": "CALL",
                    "output": "0x0000000000000000000000000000000000000000000000000000000000000001",
                    "revert": false,
                    "revertMessage": "",
                    "selector": "0xa9059cbb",
                    "status": true,
                    "value": "0"
                },
                "nodeType": 0
            },
            "1": {
                "event": {
                    "contract": "0x5cf04716ba20127f1e2297addcf4b5035000c9eb",
                    "decodedLog": {
                        "name": "Transfer",
                        "params": [
                            {
                                "name": "from",
                                "type": "address",
                                "value": "0x568b2fea968fd14c0eba5ad4d5d18ffef22c5404"
                            },
                            {
                                "name": "to",
                                "type": "address",
                                "value": "0x1062a747393198f70f71ec65a582423dba7e5ab3"
                            },
                            {
                                "decimalAvailable": true,
                                "name": "value",
                                "type": "uint256",
                                "value": "14,235,000,000,000,000,000,000"
                            }
                        ],
                        "signature": "Transfer(address,address,uint256)"
                    },
                    "id": 1,
                    "logData": "0x000000000000000000000000000000000000000000000303ae4f37bcd58c0000",
                    "logDecoded": true,
                    "operation": "EVENT",
                    "revert": false,
                    "status": true,
                    "topics": [
                        "0xddf252ad1be2c89b69c2b068fc378daa952ba7f163c4a11628f55a4df523b3ef",
                        "0x000000000000000000000000568b2fea968fd14c0eba5ad4d5d18ffef22c5404",
                        "0x0000000000000000000000001062a747393198f70f71ec65a582423dba7e5ab3"
                    ]
                },
                "nodeType": 1
            }
        },
        "gasFlame": [
            {
                "children": [
                    {
                        "children": [
                            {
                                "children": [],
                                "depth": 0,
                                "name": "Initial Gas",
                                "value": 21656
                            },
                            {
                                "children": [],
                                "depth": 0,
                                "name": "Executed Gas",
                                "value": 16401
                            }
                        ],
                        "depth": -1,
                        "name": "Actual Gas Used",
                        "value": 23057
                    },
                    {
                        "children": [],
                        "depth": -1,
                        "name": "Refunded Gas",
                        "value": 15000
                    }
                ],
                "depth": -2,
                "name": "Total Gas",
                "value": 38057
            }
        ],
        "isConfirmed": true,
        "mainTrace": [
            {
                "children": [
                    {
                        "children": [
                            {
                                "children": [],
                                "depth": 1,
                                "id": 1,
                                "order": 1
                            }
                        ],
                        "depth": 0,
                        "id": 0,
                        "order": 0
                    }
                ],
                "depth": -1,
                "id": -1,
                "order": -1
            }
        ],
        "mainTraceNodeCount": 2,
        "parentIdMap": {
            "0": -1,
            "1": 0
        },
        "tidyTrace": [
            {
                "children": [
                    {
                        "children": [
                            {
                                "children": [],
                                "depth": 1,
                                "id": 1,
                                "order": 1
                            }
                        ],
                        "depth": 0,
                        "id": 0,
                        "order": 0
                    }
                ],
                "depth": -1,
                "id": -1,
                "order": -1
            }
        ],
        "tidyTraceNodeCount": 2
    },
    "state_change": {
        "stateChanges": [
            {
                "address": "0x5cf04716ba20127f1e2297addcf4b5035000c9eb",
                "erc": "ERC-20",
                "slots": [
                    {
                        "current": "0x0000000000000000000000000000000000000000000000000000000000000000",
                        "key": "0x1ad32d02d6041398086dd7458547934bdf8afd20b1f7a66805d32fe7552bad3a",
                        "prev": "0x000000000000000000000000000000000000000000000303ae4f37bcd58c0000"
                    },
                    {
                        "current": "0x0000000000000000000000000000000000000000000007372222bf9cfbcf0a00",
                        "key": "0xb71f848b1a95d64b6a8f6964ef839843023cd64ed331fb91a0d166b71cf5839d",
                        "prev": "0x00000000000000000000000000000000000000000000043373d387e026430a00"
                    }
                ],
                "storageVariables": [
                    {
                        "name": "balances",
                        "type": "mapping(address => uint256)",
                        "value": {
                            "pairs": [
                                {
                                    "key": "0x1062a747393198f70f71ec65a582423dba7e5ab3",
                                    "value": {
                                        "current": "34073596043169000000000",
                                        "prev": "19838596043169000000000",
                                        "typeTag": 1
                                    }
                                },
                                {
                                    "key": "0x568b2fea968fd14c0eba5ad4d5d18ffef22c5404",
                                    "value": {
                                        "current": "0",
                                        "prev": "14235000000000000000000",
                                        "typeTag": 1
                                    }
                                }
                            ],
                            "typeTag": 4
                        }
                    }
                ]
            }
        ]
    }
}