{
    "balance_change": {
        "balanceChanges": []
    },
    "profile": {
        "basic_info": {
            "baseFee": "10.559227893",
            "blockNumber": 16013395,
            "callData": "0xfb0f3ee10000000000000000000000000000000000000000000000000000000000000020000000000000000000000000000000000000000000000000000000000000000000000000000000000000000000000000000000000000000000000000000000000000000000000000000000000000000000000000000000000012e6c98ff7f9c0000000000000000000000000e2039789c3392c292f194da98dfc2a75a0068e60000000000000000000000000004c00500000ad104d7dbd00e3ae0a5c00560c00000000000000000000000000b828184f3fcdf20da3812eff491610b55cdcb3e200000000000000000000000000000000000000000000000000000000000007d700000000000000000000000000000000000000000000000000000000000000010000000000000000000000000000000000000000000000000000000000000002000000000000000000000000000000000000000000000000000000006373c78f00000000000000000000000000000000000000000000000000000000639b53f80000000000000000000000000000000000000000000000000000000000000000360c6ebe000000000000000000000000000000000000000047ee8ff2a18e7ae70000007b02230091a7ed01230072f7006a004d60a8d4e71d599b8104250f00000000007b02230091a7ed01230072f7006a004d60a8d4e71d599b8104250f00000000000000000000000000000000000000000000000000000000000000000002000000000000000000000000000000000000000000000000000000000000024000000000000000000000000000000000000000000000000000000000000002e00000000000000000000000000000000000000000000000000000000000000002000000000000000000000000000000000000000000000000000085ab0c7695c00000000000000000000000000000a26b00c1f0df003000390027140000faa719000000000000000000000000000000000000000000000000000176455618d6800000000000000000000000007b6eddf37a46a4e2a4a1625f1baf65215ea98dba0000000000000000000000000000000000000000000000000000000000000041482326e41632c103df6253e3ba2ed45a7b636898ac5617e132ab7757ba168e8127ea657b5e76e4035c609a436cb21e9f7e683be4d63846bfe696ff724b861c491b00000000000000000000000000000000000000000000000000000000000000360c6ebe",
            "debugEnable": true,
            "errorInfo": "execution reverted",
            "eventCount": 1,
            "feeRecipient": "0x3b7faec3181114a99c243608bc822c5436441fff",
            "formatValue": "0.0058787878",
            "gasLimit": 161526,
            "gasPrice": "12.059227893",
            "gasUsed": 52324,
            "intTxnCount": 1,
            "internalRevert": true,
            "internalRevertMessage": "",
            "isContractCreation": false,
            "isFlashloan": false,
            "maxFee": "32.367775731",
            "nonce": 65,
            "overwritedBlockNumber": -1,
            "priorityFee": "1.5",
            "receiver": "0x00000000006c3852cbef3e08e8df289169ede581",
            "revertMessage": "OrderPartiallyFilled(orderHash=0xc5f95f048f10c2ea853e73fccc96b62b2e784490c3b5cebcb50a88dbb0143327)",
            "sender": "0xd4a8cdbb2560724c22df92ff6bc3973d3b1b2d05",
            "simulationEnable": true,
            "sourceTxnHash": "0x8240ff3209b22c156adb51cd8c69b2db4b7f56ddcbad702cf30796b44a291e9f",
            "status": false,
            "timestamp": "2022-11-20T19:44:47Z",
            "transactionFee": "0.000630987040273332",
            "txnHash": "0x8240ff3209b22c156adb51cd8c69b2db4b7f56ddcbad702cf30796b44a291e9f",
            "txnIndex": 43,
            "type": 2,
            "value": "5878787800000000"
        },
        "fund_flow": [],
        "token_infos": [
            {
                "address": "0xeeeeeeeeeeeeeeeeeeeeeeeeeeeeeeeeeeeeeeee",
                "decimals": 18
            },
            {
                "address": "0xc02aaa39b223fe8d0a0e5c4f27ead9083c756cc2",
                "decimals": 18
            }
        ]
    },
    "address_label": {
        "labels": [
            {
                "address": "0x0000000000000000000000000000000000000000",
                "label": "Null Address"
            },
            {
                "address": "0x00000000006c3852cbef3e08e8df289169ede581",
                "label": "Seaport 1.1"
            },
            {
                "address": "0x0000000000000000000000000000000000000001",
                "label": "Precompiled"
            },
            {
                "address": "0x0000000000000000000000000000000000000002",
                "label": "Precompiled"
            },
            {
                "address": "0x0000000000000000000000000000000000000003",
                "label": "Precompiled"
            },
            {
                "address": "0xeeeeeeeeeeeeeeeeeeeeeeeeeeeeeeeeeeeeeeee",
                "label": "Ether"
            },
            {
                "address": "0x0000a26b00c1f0df003000390027140000faa719",
                "label": "OpenSea: Fees 3"
            },
            {
                "address": "0xb828184f3fcdf20da3812eff491610b55cdcb3e2",
                "label": "Small Offices (MSO)"
            },
            {
                "address": "0x004c00500000ad104d7dbd00e3ae0a5c00560c00",
                "label": "OpenSea: Pausable Zone"
            },
            {
                "address": "0x0000000000000000000000000000000000000004",
                "label": "Precompiled"
            }
        ]
    },
    "trace": {
        "accountLabels": null,
        "dataMap": {
            "-1": {
                "invocation": {
                    "address": "0xd4a8cdbb2560724c22df92ff6bc3973d3b1b2d05",
                    "callData": "",
                    "decodedMethod": null,
                    "errorInfo": "",
                    "fromAddress": "",
                    "gasUsed": 0,
                    "id": -1,
                    "methodDecoded": false,
                    "operation": "",
                    "output": "",
                    "revert": false,
                    "revertMessage": "",
                    "selector": "",
                    "status": false,
                    "value": ""
                },
                "nodeType": 0
            },
            "0": {
                "invocation": {
                    "address": "0x00000000006c3852cbef3e08e8df289169ede581",
                    "callData": "0x0000000000000000000000000000000000000000000000000000000000000020000000000000000000000000000000000000000000000000000000000000000000000000000000000000000000000000000000000000000000000000000000000000000000000000000000000000000000000000000000000012e6c98ff7f9c0000000000000000000000000e2039789c3392c292f194da98dfc2a75a0068e60000000000000000000000000004c00500000ad104d7dbd00e3ae0a5c00560c00000000000000000000000000b828184f3fcdf20da3812eff491610b55cdcb3e200000000000000000000000000000000000000000000000000000000000007d700000000000000000000000000000000000000000000000000000000000000010000000000000000000000000000000000000000000000000000000000000002000000000000000000000000000000000000000000000000000000006373c78f00000000000000000000000000000000000000000000000000000000639b53f80000000000000000000000000000000000000000000000000000000000000000360c6ebe000000000000000000000000000000000000000047ee8ff2a18e7ae70000007b02230091a7ed01230072f7006a004d60a8d4e71d599b8104250f00000000007b02230091a7ed01230072f7006a004d60a8d4e71d599b8104250f00000000000000000000000000000000000000000000000000000000000000000002000000000000000000000000000000000000000000000000000000000000024000000000000000000000000000000000000000000000000000000000000002e00000000000000000000000000000000000000000000000000000000000000002000000000000000000000000000000000000000000000000000085ab0c7695c00000000000000000000000000000a26b00c1f0df003000390027140000faa719000000000000000000000000000000000000000000000000000176455618d6800000000000000000000000007b6eddf37a46a4e2a4a1625f1baf65215ea98dba0000000000000000000000000000000000000000000000000000000000000041482326e41632c103df6253e3ba2ed45a7b636898ac5617e132ab7757ba168e8127ea657b5e76e4035c609a436cb21e9f7e683be4d63846bfe696ff724b861c491b00000000000000000000000000000000000000000000000000000000000000360c6ebe",
                    "decodedMethod": {
                        "callParams": [
                            {
                                "name": "parameters",
                                "type": "(address,uint256,uint256,address,address,address,uint256,uint256,uint8,uint256,uint256,bytes32,uint256,bytes32,bytes32,uint256,(uint256,address)[],bytes)",
                                "value": [
                                    {
                                        "name": "considerationToken",
                                        "type": "address",
                                        "value": "0x0000000000000000000000000000000000000000"
                                    },
                                    {
                                        "name": "considerationIdentifier",
                                        "type": "uint256",
                                        "value": "0"
                                    },
                                    {
                                        "name": "considerationAmount",
                                        "type": "uint256",
                                        "value": "5,320,302,959,000,000"
                                    },
                                    {
                                        "name": "offerer",
                                        "type": "address",
                                        "value": "0xe2039789c3392c292f194da98dfc2a75a0068e60"
                                    },
                                    {
                                        "name": "zone",
                                        "type": "address",
                                        "value": "0x004c00500000ad104d7dbd00e3ae0a5c00560c00"
                                    },
                                    {
                                        "name": "offerToken",
                                        "type": "address",
                                        "value": "0xb828184f3fcdf20da3812eff491610b55cdcb3e2"
                                    },
                                    {
                                        "name": "offerIdentifier",
                                        "type": "uint256",
                                        "value": "2,007"
                                    },
                                    {
                                        "name": "offerAmount",
                                        "type": "uint256",
                                        "value": "1"
                                    },
                                    {
                                        "name": "basicOrderType",
                                        "type": "uint8",
                                        "value": "2"
                                    },
                                    {
                                        "name": "startTime",
                                        "type": "uint256",
                                        "value": "1,668,532,111"
                                    },
                                    {
                                        "name": "endTime",
                                        "type": "uint256",
                                        "value": "1,671,123,960"
                                    },
                                    {
                                        "name": "zoneHash",
                                        "type": "bytes32",
                                        "value": "0x0000000000000000000000000000000000000000000000000000000000000000"
                                    },
                                    {
                                        "name": "salt",
                                        "type": "uint256",
                                        "value": "24,446,860,302,761,739,304,752,683,030,156,737,591,518,664,810,215,442,929,805,565,926,928,657,840,871"
                                    },
                                    {
                                        "name": "offererConduitKey",
                                        "type": "bytes32",
                                        "value": "0x0000007b02230091a7ed01230072f7006a004d60a8d4e71d599b8104250f0000"
                                    },
                                    {
                                        "name": "fulfillerConduitKey",
                                        "type": "bytes32",
                                        "value": "0x0000007b02230091a7ed01230072f7006a004d60a8d4e71d599b8104250f0000"
                                    },
                                    {
                                        "name": "totalOriginalAdditionalRecipients",
                                        "type": "uint256",
                                        "value": "2"
                                    },
                                    {
                                        "name": "additionalRecipients",
                                        "type": "(uint256,address)[]",
                                        "value": [
                                            [
                                                {
                                                    "name": "amount",
                                                    "type": "uint256",
                                                    "value": "146,969,695,000,000"
                                                },
                                                {
                                                    "name": "recipient",
                                                    "type": "address",
                                                    "value": "0x0000a26b00c1f0df003000390027140000faa719"
                                                }
                                            ],
                                            [
                                                {
                                                    "name": "amount",
                                                    "type": "uint256",
                                                    "value": "411,515,146,000,000"
                                                },
                                                {
                                                    "name": "recipient",
                                                    "type": "address",
                                                    "value": "0x7b6eddf37a46a4e2a4a1625f1baf65215ea98dba"
                                                }
                                            ]
                                        ]
                                    },
                                    {
                                        "name": "signature",
                                        "type": "bytes",
                                        "value": "0x482326e41632c103df6253e3ba2ed45a7b636898ac5617e132ab7757ba168e8127ea657b5e76e4035c609a436cb21e9f7e683be4d63846bfe696ff724b861c491b"
                                    }
                                ]
                            }
                        ],
                        "constructorArguments": "",
                        "name": "fulfillBasicOrder",
                        "returnParams": [],
                        "signature": "fulfillBasicOrder((address,uint256,uint256,address,address,address,uint256,uint256,uint8,uint256,uint256,bytes32,uint256,bytes32,bytes32,uint256,(uint256,address)[],bytes))"
                    },
                    "errorInfo": "execution reverted",
                    "fromAddress": "0xd4a8cdbb2560724c22df92ff6bc3973d3b1b2d05",
                    "gasUsed": 52324,
                    "id": 0,
                    "methodDecoded": true,
                    "operation": "CALL",
                    "output": "0xee9e0e63c5f95f048f10c2ea853e73fccc96b62b2e784490c3b5cebcb50a88dbb0143327",
                    "revert": true,
                    "revertMessage": "OrderPartiallyFilled(orderHash=0xc5f95f048f10c2ea853e73fccc96b62b2e784490c3b5cebcb50a88dbb0143327)",
                    "selector": "0xfb0f3ee1",
                    "status": false,
                    "value": "0.0058787878"
                },
                "nodeType": 0
            },
            "1": {
                "event": {
                    "contract": "0x00000000006c3852cbef3e08e8df289169ede581",
                    "decodedLog": {
                        "name": "OrderFulfilled",
                        "params": [
                            {
                                "name": "offerer",
                                "type": "address",
                                "value": "0xe2039789c3392c292f194da98dfc2a75a0068e60"
                            },
                            {
                                "name": "zone",
                                "type": "address",
                                "value": "0x004c00500000ad104d7dbd00e3ae0a5c00560c00"
                            },
                            {
                                "name": "orderHash",
                                "type": "bytes32",
                                "value": "0xc5f95f048f10c2ea853e73fccc96b62b2e784490c3b5cebcb50a88dbb0143327"
                            },
                            {
                                "name": "recipient",
                                "type": "address",
                                "value": "0xd4a8cdbb2560724c22df92ff6bc3973d3b1b2d05"
                            },
                            {
                                "name": "offer",
                                "type": "(uint8,address,uint256,uint256)[]",
                                "value": [
                                    [
                                        {
                                            "name": "itemType",
                                            "type": "uint8",
                                            "value": "2"
                                        },
                                        {
                                            "name": "token",
                                            "type": "address",
                                            "value": "0xb828184f3fcdf20da3812eff491610b55cdcb3e2"
                                        },
                                        {
                                            "name": "identifier",
                                            "type": "uint256",
                                            "value": "2,007"
                                        },
                                        {
                                            "name": "amount",
                                            "type": "uint256",
                                            "value": "1"
                                        }
                                    ]
                                ]
                            },
                            {
                                "name": "consideration",
                                "type": "(uint8,address,uint256,uint256,address)[]",
                                "value": [
                                    [
                                        {
                                            "name": "itemType",
                                            "type": "uint8",
                                            "value": "0"
                                        },
                                        {
                                            "name": "token",
                                            "type": "address",
                                            "value": "0x0000000000000000000000000000000000000000"
                                        },
                                        {
                                            "name": "identifier",
                                            "type": "uint256",
                                            "value": "0"
                                        },
                                        {
                                            "name": "amount",
                                            "type": "uint256",
                                            "value": "5,320,302,959,000,000"
                                        },
                                        {
                                            "name": "recipient",
                                            "type": "address",
                                            "value": "0xe2039789c3392c292f194da98dfc2a75a0068e60"
                                        }
                                    ],
                                    [
                                        {
                                            "name": "itemType",
                                            "type": "uint8",
                                            "value": "0"
                                        },
                                        {
                                            "name": "token",
                                            "type": "address",
                                            "value": "0x0000000000000000000000000000000000000000"
                                        },
                                        {
                                            "name": "identifier",
                                            "type": "uint256",
                                            "value": "0"
                                        },
                                        {
                                            "name": "amount",
                                            "type": "uint256",
                                            "value": "146,969,695,000,000"
                                        },
                                        {
                                            "name": "recipient",
                                            "type": "address",
                                            "value": "0x0000a26b00c1f0df003000390027140000faa719"
                                        }
                                    ],
                                    [
                                        {
                                            "name": "itemType",
                                            "type": "uint8",
                                            "value": "0"
                                        },
                                        {
                                            "name": "token",
                                            "type": "address",
                                            "value": "0x0000000000000000000000000000000000000000"
                                        },
                                        {
                                            "name": "identifier",
                                            "type": "uint256",
                                            "value": "0"
                                        },
                                        {
                                            "name": "amount",
                                            "type": "uint256",
                                            "value": "411,515,146,000,000"
                                        },
                                        {
                                            "name": "recipient",
                                            "type": "address",
                                            "value": "0x7b6eddf37a46a4e2a4a1625f1baf65215ea98dba"
                                        }
                                    ]
                                ]
                            }
                        ],
                        "signature": "OrderFulfilled(bytes32,address,address,address,(uint8,address,uint256,uint256)[],(uint8,address,uint256,uint256,address)[])"
                    },
                    "id": 1,
                    "logData": "0xc5f95f048f10c2ea853e73fccc96b62b2e784490c3b5cebcb50a88dbb0143327000000000000000000000000d4a8cdbb2560724c22df92ff6bc3973d3b1b2d050000000000000000000000000000000000000000000000000000000000000080000000000000000000000000000000000000000000000000000000000000012000000000000000000000000000000000000000000000000000000000000000010000000000000000000000000000000000000000000000000000000000000002000000000000000000000000b828184f3fcdf20da3812eff491610b55cdcb3e200000000000000000000000000000000000000000000000000000000000007d7000000000000000000000000000000000000000000000000000000000000000100000000000000000000000000000000000000000000000000000000000000030000000000000000000000000000000000000000000000000000000000000000000000000000000000000000000000000000000000000000000000000000000000000000000000000000000000000000000000000000000000000000000000000000000000000000000000000000000000000000000000000012e6c98ff7f9c0000000000000000000000000e2039789c3392c292f194da98dfc2a75a0068e60000000000000000000000000000000000000000000000000000000000000000000000000000000000000000000000000000000000000000000000000000000000000000000000000000000000000000000000000000000000000000000000000000000000000000000000000000000000000000000000000000085ab0c7695c00000000000000000000000000000a26b00c1f0df003000390027140000faa719000000000000000000000000000000000000000000000000000000000000000000000000000000000000000000000000000000000000000000000000000000000000000000000000000000000000000000000000000000000000000000000000000000000000000000000000000000000000000000000000000176455618d6800000000000000000000000007b6eddf37a46a4e2a4a1625f1baf65215ea98dba",
                    "logDecoded": true,
                    "operation": "EVENT",
                    "revert": true,
                    "status": false,
                    "topics": [
                        "0x9d9af8e38d66c62e2c12f0225249fd9d721c54b83f48d9352c97c6cacdcb6f31",
                        "0x000000000000000000000000e2039789c3392c292f194da98dfc2a75a0068e60",
                        "0x000000000000000000000000004c00500000ad104d7dbd00e3ae0a5c00560c00"
                    ]
                },
                "nodeType": 1
            },
            "2": {
                "invocation": {
                    "address": "0x004c00500000ad104d7dbd00e3ae0a5c00560c00",
                    "callData": "0xc5f95f048f10c2ea853e73fccc96b62b2e784490c3b5cebcb50a88dbb0143327000000000000000000000000d4a8cdbb2560724c22df92ff6bc3973d3b1b2d05000000000000000000000000e2039789c3392c292f194da98dfc2a75a0068e600000000000000000000000000000000000000000000000000000000000000000",
                    "decodedMethod": {
                        "callParams": [
                            {
                                "name": "orderHash",
                                "type": "bytes32",
                                "value": "0xc5f95f048f10c2ea853e73fccc96b62b2e784490c3b5cebcb50a88dbb0143327"
                            },
                            {
                                "name": "caller",
                                "type": "address",
                                "value": "0xd4a8cdbb2560724c22df92ff6bc3973d3b1b2d05"
                            },
                            {
                                "name": "offerer",
                                "type": "address",
                                "value": "0xe2039789c3392c292f194da98dfc2a75a0068e60"
                            },
                            {
                                "name": "zoneHash",
                                "type": "bytes32",
                                "value": "0x0000000000000000000000000000000000000000000000000000000000000000"
                            }
                        ],
                        "constructorArguments": "",
                        "name": "isValidOrder",
                        "returnParams": [
                            {
                                "name": "validOrderMagicValue",
                                "type": "bytes4",
                                "value": "0x0e1d31dc"
                            }
                        ],
                        "signature": "isValidOrder(bytes32,address,address,bytes32)"
                    },
                    "errorInfo": "",
                    "fromAddress": "0x00000000006c3852cbef3e08e8df289169ede581",
                    "gasUsed": 257,
                    "id": 2,
                    "methodDecoded": true,
                    "operation": "STATICCALL",
                    "output": "0x0e1d31dc00000000000000000000000000000000000000000000000000000000",
                    "revert": true,
                    "revertMessage": "",
                    "selector": "0x0e1d31dc",
                    "status": true,
                    "value": "0"
                },
                "nodeType": 0
            }
        },
        "gasFlame": [
            {
                "children": [
                    {
                        "children": [
                            {
                                "children": [],
                                "depth": 0,
                                "name": "Initial Gas",
                                "value": 27688
                            },
                            {
                                "children": [
                                    {
                                        "children": [],
                                        "depth": 1,
                                        "name": "isValidOrder",
                                        "value": 257
                                    }
                                ],
                                "depth": 0,
                                "name": "Executed Gas",
                                "value": 24636
                            }
                        ],
                        "depth": -1,
                        "name": "Actual Gas Used",
                        "value": 52324
                    },
                    {
                        "children": [],
                        "depth": -1,
                        "name": "Refunded Gas",
                        "value": 0
                    }
                ],
                "depth": -2,
                "name": "Total Gas",
                "value": 52324
            }
        ],
        "isConfirmed": true,
        "mainTrace": [
            {
                "children": [
                    {
                        "children": [
                            {
                                "children": [],
                                "depth": 1,
                                "id": 1,
                                "order": 1
                            },
                            {
                                "children": [],
                                "depth": 1,
                                "id": 2,
                                "order": 2
                            }
                        ],
                        "depth": 0,
                        "id": 0,
                        "order": 0
                    }
                ],
                "depth": -1,
                "id": -1,
                "order": -1
            }
        ],
        "mainTraceNodeCount": 3,
        "parentIdMap": {
            "0": -1,
            "1": 0,
            "2": 0
        },
        "tidyTrace": [
            {
                "children": [
                    {
                        "children": [
                            {
                                "children": [],
                                "depth": 1,
                                "id": 1,
                                "order": 1
                            }
                        ],
                        "depth": 0,
                        "id": 0,
                        "order": 0
                    }
                ],
                "depth": -1,
                "id": -1,
                "order": -1
            }
        ],
        "tidyTraceNodeCount": 2
    },
    "state_change": {
        "stateChanges": []
    }
}