{
    "balance_change": {
        "balanceChanges": []
    },
    "profile": {
        "basic_info": {
            "baseFee": "6.759757871",
            "blockNumber": 18245945,
            "callData": "0x2d9a56f6000000000000000000000000000000000000000000000000000000000000002000000000000000000000000000000000000000000000000000000175d8508877000000000000000000000000dac17f958d2ee523a2206206994597c13d831ec7000000000000000000000000fc4b4ec763722b71eb1d729749b447a9645f5f30000000000000000000000000fa1a94ae136880002ff4b4665ab4e7498973332f000000000000000000000000000000000000000000000000000000000000000000000000000000000000000000000000000000000000000000000000000000000000000000000000000000000000000000000000000000000000000059682f00000000000000000000000000000000000000000000000000000040f6c2a076db000000a4000000a4000000a4000000a400000000000000000000000000000000000000000000000000000000000000000000000000000000000000000000014000000000000000000000000000000000000000000000000000000000000000a4bf15fcd8000000000000000000000000303389f541ff2d620e42832f180a08e767b28e10000000000000000000000000000000000000000000000000000000000000004000000000000000000000000000000000000000000000000000000000000000242cc2878d006520d48c000000008b0000fa1a94ae136880002ff4b4665ab4e7498973332f0000000000000000000000000000000000000000000000000000000000000000000000000000000000000000000000000000000000000000",
            "debugEnable": true,
            "errorInfo": "",
            "eventCount": 1,
            "feeRecipient": "0xdafea492d9c6733ae3d56b7ed1adb60692c98bc5",
            "formatValue": "0",
            "gasLimit": 58114,
            "gasPrice": "6.859757871",
            "gasUsed": 50534,
            "intTxnCount": 0,
            "internalRevert": false,
            "internalRevertMessage": "",
            "isContractCreation": false,
            "isFlashloan": false,
            "maxFee": "12.841875456",
            "nonce": 4527,
            "overwritedBlockNumber": -1,
            "priorityFee": "0.1",
            "receiver": "0x1111111254eeb25477b68fb85ed929f73a960582",
            "revertMessage": "",
            "sender": "0xfa1a94ae136880002ff4b4665ab4e7498973332f",
            "simulationEnable": true,
            "sourceTxnHash": "0x82a4209fec43b66438a853d074b245f3bcc7ae27656211e1e63d238a7eeae805",
            "status": true,
            "timestamp": "2023-09-30T03:49:23Z",
            "transactionFee": "0.000346651004253114",
            "txnHash": "0x82a4209fec43b66438a853d074b245f3bcc7ae27656211e1e63d238a7eeae805",
            "txnIndex": 55,
            "type": 2,
            "value": "0"
        },
        "fund_flow": [],
        "token_infos": [
            {
                "address": "0xeeeeeeeeeeeeeeeeeeeeeeeeeeeeeeeeeeeeeeee",
                "decimals": 18
            },
            {
                "address": "0xc02aaa39b223fe8d0a0e5c4f27ead9083c756cc2",
                "decimals": 18
            }
        ]
    },
    "address_label": {
        "labels": [
            {
                "address": "0xfc4b4ec763722b71eb1d729749b447a9645f5f30",
                "label": "DumbMoney: GME Token"
            },
            {
                "address": "0x0000000000000000000000000000000000000002",
                "label": "Precompiled"
            },
            {
                "address": "0x0000000000000000000000000000000000000003",
                "label": "Precompiled"
            },
            {
                "address": "0xeeeeeeeeeeeeeeeeeeeeeeeeeeeeeeeeeeeeeeee",
                "label": "Ether"
            },
            {
                "address": "0xdac17f958d2ee523a2206206994597c13d831ec7",
                "label": "Tether: USDT Stablecoin"
            },
            {
                "address": "0x0000000000000000000000000000000000000000",
                "label": "Null Address"
            },
            {
                "address": "0x0000000000000000000000000000000000000001",
                "label": "Precompiled"
            },
            {
                "address": "0x0000000000000000000000000000000000000004",
                "label": "Precompiled"
            },
            {
                "address": "0x1111111254eeb25477b68fb85ed929f73a960582",
                "label": "Aggregation Router V5"
            }
        ]
    },
    "trace": {
        "accountLabels": null,
        "dataMap": {
            "-1": {
                "invocation": {
                    "address": "0xfa1a94ae136880002ff4b4665ab4e7498973332f",
                    "callData": "",
                    "decodedMethod": null,
                    "errorInfo": "",
                    "fromAddress": "",
                    "gasUsed": 0,
                    "id": -1,
                    "methodDecoded": false,
                    "operation": "",
                    "output": "",
                    "revert": false,
                    "revertMessage": "",
                    "selector": "",
                    "status": false,
                    "value": ""
                },
                "nodeType": 0
            },
            "0": {
                "invocation": {
                    "address": "0x1111111254eeb25477b68fb85ed929f73a960582",
                    "callData": "0x000000000000000000000000000000000000000000000000000000000000002000000000000000000000000000000000000000000000000000000175d8508877000000000000000000000000dac17f958d2ee523a2206206994597c13d831ec7000000000000000000000000fc4b4ec763722b71eb1d729749b447a9645f5f30000000000000000000000000fa1a94ae136880002ff4b4665ab4e7498973332f000000000000000000000000000000000000000000000000000000000000000000000000000000000000000000000000000000000000000000000000000000000000000000000000000000000000000000000000000000000000000059682f00000000000000000000000000000000000000000000000000000040f6c2a076db000000a4000000a4000000a4000000a400000000000000000000000000000000000000000000000000000000000000000000000000000000000000000000014000000000000000000000000000000000000000000000000000000000000000a4bf15fcd8000000000000000000000000303389f541ff2d620e42832f180a08e767b28e10000000000000000000000000000000000000000000000000000000000000004000000000000000000000000000000000000000000000000000000000000000242cc2878d006520d48c000000008b0000fa1a94ae136880002ff4b4665ab4e7498973332f0000000000000000000000000000000000000000000000000000000000000000000000000000000000000000000000000000000000000000",
                    "decodedMethod": {
                        "callParams": [
                            {
                                "name": "order",
                                "type": "(uint256,address,address,address,address,address,uint256,uint256,uint256,bytes)",
                                "value": [
                                    {
                                        "name": "salt",
                                        "type": "uint256",
                                        "value": "1,605,651,957,879"
                                    },
                                    {
                                        "name": "makerAsset",
                                        "type": "address",
                                        "value": "0xdac17f958d2ee523a2206206994597c13d831ec7"
                                    },
                                    {
                                        "name": "takerAsset",
                                        "type": "address",
                                        "value": "0xfc4b4ec763722b71eb1d729749b447a9645f5f30"
                                    },
                                    {
                                        "name": "maker",
                                        "type": "address",
                                        "value": "0xfa1a94ae136880002ff4b4665ab4e7498973332f"
                                    },
                                    {
                                        "name": "receiver",
                                        "type": "address",
                                        "value": "0x0000000000000000000000000000000000000000"
                                    },
                                    {
                                        "name": "allowedSender",
                                        "type": "address",
                                        "value": "0x0000000000000000000000000000000000000000"
                                    },
                                    {
                                        "name": "makingAmount",
                                        "type": "uint256",
                                        "value": "1,500,000,000"
                                    },
                                    {
                                        "name": "takingAmount",
                                        "type": "uint256",
                                        "value": "71,428,571,428,571"
                                    },
                                    {
                                        "name": "offsets",
                                        "type": "uint256",
                                        "value": "4,421,431,254,442,149,611,168,492,388,118,363,282,642,987,198,110,904,030,635,476,664,713,216"
                                    },
                                    {
                                        "name": "interactions",
                                        "type": "bytes",
                                        "value": "0xbf15fcd8000000000000000000000000303389f541ff2d620e42832f180a08e767b28e10000000000000000000000000000000000000000000000000000000000000004000000000000000000000000000000000000000000000000000000000000000242cc2878d006520d48c000000008b0000fa1a94ae136880002ff4b4665ab4e7498973332f00000000000000000000000000000000000000000000000000000000"
                                    }
                                ]
                            }
                        ],
                        "constructorArguments": "",
                        "name": "cancelOrder",
                        "returnParams": [
                            {
                                "name": "orderRemaining",
                                "type": "uint256",
                                "value": "0"
                            },
                            {
                                "name": "orderHash",
                                "type": "bytes32",
                                "value": "0x99b6739482929b1f7469884a60faf2bcabf201864ba9d88257d6341fd0b6e7d3"
                            }
                        ],
                        "signature": "cancelOrder((uint256,address,address,address,address,address,uint256,uint256,uint256,bytes))"
                    },
                    "errorInfo": "",
                    "fromAddress": "0xfa1a94ae136880002ff4b4665ab4e7498973332f",
                    "gasUsed": 50534,
                    "id": 0,
                    "methodDecoded": true,
                    "operation": "CALL",
                    "output": "0x000000000000000000000000000000000000000000000000000000000000000099b6739482929b1f7469884a60faf2bcabf201864ba9d88257d6341fd0b6e7d3",
                    "revert": false,
                    "revertMessage": "",
                    "selector": "0x2d9a56f6",
                    "status": true,
                    "value": "0"
                },
                "nodeType": 0
            },
            "1": {
                "event": {
                    "contract": "0x1111111254eeb25477b68fb85ed929f73a960582",
                    "decodedLog": {
                        "name": "OrderCanceled",
                        "params": [
                            {
                                "name": "maker",
                                "type": "address",
                                "value": "0xfa1a94ae136880002ff4b4665ab4e7498973332f"
                            },
                            {
                                "name": "orderHash",
                                "type": "bytes32",
                                "value": "0x99b6739482929b1f7469884a60faf2bcabf201864ba9d88257d6341fd0b6e7d3"
                            },
                            {
                                "name": "remainingRaw",
                                "type": "uint256",
                                "value": "0"
                            }
                        ],
                        "signature": "OrderCanceled(address,bytes32,uint256)"
                    },
                    "id": 1,
                    "logData": "0x99b6739482929b1f7469884a60faf2bcabf201864ba9d88257d6341fd0b6e7d30000000000000000000000000000000000000000000000000000000000000000",
                    "logDecoded": true,
                    "operation": "EVENT",
                    "revert": false,
                    "status": true,
                    "topics": [
                        "0xcbfa7d191838ece7ba4783ca3a30afd316619b7f368094b57ee7ffde9a923db1",
                        "0x000000000000000000000000fa1a94ae136880002ff4b4665ab4e7498973332f"
                    ]
                },
                "nodeType": 1
            }
        },
        "gasFlame": [
            {
                "children": [
                    {
                        "children": [
                            {
                                "children": [],
                                "depth": 0,
                                "name": "Initial Gas",
                                "value": 25000
                            },
                            {
                                "children": [],
                                "depth": 0,
                                "name": "Executed Gas",
                                "value": 25534
                            }
                        ],
                        "depth": -1,
                        "name": "Actual Gas Used",
                        "value": 50534
                    },
                    {
                        "children": [],
                        "depth": -1,
                        "name": "Refunded Gas",
                        "value": 0
                    }
                ],
                "depth": -2,
                "name": "Total Gas",
                "value": 50534
            }
        ],
        "isConfirmed": true,
        "mainTrace": [
            {
                "children": [
                    {
                        "children": [
                            {
                                "children": [],
                                "depth": 1,
                                "id": 1,
                                "order": 1
                            }
                        ],
                        "depth": 0,
                        "id": 0,
                        "order": 0
                    }
                ],
                "depth": -1,
                "id": -1,
                "order": -1
            }
        ],
        "mainTraceNodeCount": 2,
        "parentIdMap": {
            "0": -1,
            "1": 0
        },
        "tidyTrace": [
            {
                "children": [
                    {
                        "children": [
                            {
                                "children": [],
                                "depth": 1,
                                "id": 1,
                                "order": 1
                            }
                        ],
                        "depth": 0,
                        "id": 0,
                        "order": 0
                    }
                ],
                "depth": -1,
                "id": -1,
                "order": -1
            }
        ],
        "tidyTraceNodeCount": 2
    },
    "state_change": {
        "stateChanges": [
            {
                "address": "0x1111111254eeb25477b68fb85ed929f73a960582",
                "erc": "",
                "slots": [
                    {
                        "current": "0x0000000000000000000000000000000000000000000000000000000000000001",
                        "key": "0x0eb812adeb85de650c58386ee0686f132737ffd890eefa779fe6ad878454be3f",
                        "prev": "0x0000000000000000000000000000000000000000000000000000000000000000"
                    }
                ],
                "storageVariables": [
                    {
                        "name": "_remaining",
                        "type": "mapping(bytes32 => uint256)",
                        "value": {
                            "pairs": [
                                {
                                    "key": "0x99b6739482929b1f7469884a60faf2bcabf201864ba9d88257d6341fd0b6e7d3",
                                    "value": {
                                        "current": "1",
                                        "prev": "0",
                                        "typeTag": 1
                                    }
                                }
                            ],
                            "typeTag": 4
                        }
                    }
                ]
            }
        ]
    }
}