{
    "balance_change": {
        "balanceChanges": [
            {
                "account": "0xc829c2b03936e05b405d0ec467dcea4fa491a68a",
                "assets": [
                    {
                        "address": "0x9992ec3cf6a55b00978cddf2b27bc6882d88d1ec",
                        "amount": "250",
                        "iconUrl": "https://assets.blocksec.com/icon/4d3b6632543a37e6ec4a2b40857b5b9fe2160bb2f50c5585d260d025e7e81945.png",
                        "isERC1155": false,
                        "isERC721": false,
                        "sign": false,
                        "value": ""
                    }
                ]
            },
            {
                "account": "0x166c366c48274f50b6410945d79cf1c4d6e6f830",
                "assets": [
                    {
                        "address": "0x9992ec3cf6a55b00978cddf2b27bc6882d88d1ec",
                        "amount": "250",
                        "iconUrl": "https://assets.blocksec.com/icon/4d3b6632543a37e6ec4a2b40857b5b9fe2160bb2f50c5585d260d025e7e81945.png",
                        "isERC1155": false,
                        "isERC721": false,
                        "sign": true,
                        "value": ""
                    }
                ]
            }
        ]
    },
    "profile": {
        "basic_info": {
            "baseFee": "",
            "blockNumber": 5024186,
            "callData": "0xa9059cbb000000000000000000000000166c366c48274f50b6410945d79cf1c4d6e6f83000000000000000000000000000000000000000000000000d8d726b7177a80000",
            "debugEnable": true,
            "errorInfo": "",
            "eventCount": 1,
            "feeRecipient": "0xb75d1e62b10e4ba91315c4aa3facc536f8a922f5",
            "formatValue": "0",
            "gasLimit": 52111,
            "gasPrice": "21",
            "gasUsed": 37111,
            "intTxnCount": 0,
            "internalRevert": false,
            "internalRevertMessage": "",
            "isContractCreation": false,
            "isFlashloan": false,
            "maxFee": "",
            "nonce": 29,
            "overwritedBlockNumber": -1,
            "priorityFee": "",
            "receiver": "0x9992ec3cf6a55b00978cddf2b27bc6882d88d1ec",
            "revertMessage": "",
            "sender": "0xc829c2b03936e05b405d0ec467dcea4fa491a68a",
            "simulationEnable": true,
            "sourceTxnHash": "0x82eb4eb647c51ec17a454de97c90de49a077e957885ad93782bd5368c102ac14",
            "status": true,
            "timestamp": "2018-02-03T16:24:58Z",
            "transactionFee": "0.000779331",
            "txnHash": "0x82eb4eb647c51ec17a454de97c90de49a077e957885ad93782bd5368c102ac14",
            "txnIndex": 53,
            "type": 0,
            "value": "0"
        },
        "fund_flow": [
            {
                "amount": "250",
                "from": "0xc829c2b03936e05b405d0ec467dcea4fa491a68a",
                "id": 1,
                "isERC1155": false,
                "isERC721": false,
                "isReverted": false,
                "order": 1,
                "to": "0x166c366c48274f50b6410945d79cf1c4d6e6f830",
                "token": "0x9992ec3cf6a55b00978cddf2b27bc6882d88d1ec"
            }
        ],
        "token_infos": [
            {
                "address": "0x9992ec3cf6a55b00978cddf2b27bc6882d88d1ec",
                "decimals": 18
            },
            {
                "address": "0xc02aaa39b223fe8d0a0e5c4f27ead9083c756cc2",
                "decimals": 18
            },
            {
                "address": "0xeeeeeeeeeeeeeeeeeeeeeeeeeeeeeeeeeeeeeeee",
                "decimals": 18
            }
        ]
    },
    "address_label": {
        "labels": [
            {
                "address": "0x9992ec3cf6a55b00978cddf2b27bc6882d88d1ec",
                "label": "Polymath Token"
            },
            {
                "address": "0x0000000000000000000000000000000000000001",
                "label": "Precompiled"
            },
            {
                "address": "0x0000000000000000000000000000000000000002",
                "label": "Precompiled"
            },
            {
                "address": "0x0000000000000000000000000000000000000003",
                "label": "Precompiled"
            },
            {
                "address": "0x0000000000000000000000000000000000000004",
                "label": "Precompiled"
            },
            {
                "address": "0xeeeeeeeeeeeeeeeeeeeeeeeeeeeeeeeeeeeeeeee",
                "label": "Ether"
            }
        ]
    },
    "trace": {
        "accountLabels": null,
        "dataMap": {
            "-1": {
                "invocation": {
                    "address": "0xc829c2b03936e05b405d0ec467dcea4fa491a68a",
                    "callData": "",
                    "decodedMethod": null,
                    "errorInfo": "",
                    "fromAddress": "",
                    "gasUsed": 0,
                    "id": -1,
                    "methodDecoded": false,
                    "operation": "",
                    "output": "",
                    "revert": false,
                    "revertMessage": "",
                    "selector": "",
                    "status": false,
                    "value": ""
                },
                "nodeType": 0
            },
            "0": {
                "invocation": {
                    "address": "0x9992ec3cf6a55b00978cddf2b27bc6882d88d1ec",
                    "callData": "0x000000000000000000000000166c366c48274f50b6410945d79cf1c4d6e6f83000000000000000000000000000000000000000000000000d8d726b7177a80000",
                    "decodedMethod": {
                        "callParams": [
                            {
                                "name": "_to",
                                "type": "address",
                                "value": "0x166c366c48274f50b6410945d79cf1c4d6e6f830"
                            },
                            {
                                "decimalAvailable": true,
                                "name": "_value",
                                "type": "uint256",
                                "value": "250,000,000,000,000,000,000"
                            }
                        ],
                        "constructorArguments": "",
                        "name": "transfer",
                        "returnParams": [
                            {
                                "name": "",
                                "type": "bool",
                                "value": true
                            }
                        ],
                        "signature": "transfer(address,uint256)"
                    },
                    "errorInfo": "",
                    "fromAddress": "0xc829c2b03936e05b405d0ec467dcea4fa491a68a",
                    "gasUsed": 37111,
                    "id": 0,
                    "methodDecoded": true,
                    "operation": "CALL",
                    "output": "0x0000000000000000000000000000000000000000000000000000000000000001",
                    "revert": false,
                    "revertMessage": "",
                    "selector": "0xa9059cbb",
                    "status": true,
                    "value": "0"
                },
                "nodeType": 0
            },
            "1": {
                "event": {
                    "contract": "0x9992ec3cf6a55b00978cddf2b27bc6882d88d1ec",
                    "decodedLog": {
                        "name": "Transfer",
                        "params": [
                            {
                                "name": "from",
                                "type": "address",
                                "value": "0xc829c2b03936e05b405d0ec467dcea4fa491a68a"
                            },
                            {
                                "name": "to",
                                "type": "address",
                                "value": "0x166c366c48274f50b6410945d79cf1c4d6e6f830"
                            },
                            {
                                "decimalAvailable": true,
                                "name": "value",
                                "type": "uint256",
                                "value": "250,000,000,000,000,000,000"
                            }
                        ],
                        "signature": "Transfer(address,address,uint256)"
                    },
                    "id": 1,
                    "logData": "0x00000000000000000000000000000000000000000000000d8d726b7177a80000",
                    "logDecoded": true,
                    "operation": "EVENT",
                    "revert": false,
                    "status": true,
                    "topics": [
                        "0xddf252ad1be2c89b69c2b068fc378daa952ba7f163c4a11628f55a4df523b3ef",
                        "0x000000000000000000000000c829c2b03936e05b405d0ec467dcea4fa491a68a",
                        "0x000000000000000000000000166c366c48274f50b6410945d79cf1c4d6e6f830"
                    ]
                },
                "nodeType": 1
            }
        },
        "gasFlame": [
            {
                "children": [
                    {
                        "children": [
                            {
                                "children": [],
                                "depth": 0,
                                "name": "Initial Gas",
                                "value": 23256
                            },
                            {
                                "children": [],
                                "depth": 0,
                                "name": "Executed Gas",
                                "value": 28855
                            }
                        ],
                        "depth": -1,
                        "name": "Actual Gas Used",
                        "value": 37111
                    },
                    {
                        "children": [],
                        "depth": -1,
                        "name": "Refunded Gas",
                        "value": 15000
                    }
                ],
                "depth": -2,
                "name": "Total Gas",
                "value": 52111
            }
        ],
        "isConfirmed": true,
        "mainTrace": [
            {
                "children": [
                    {
                        "children": [
                            {
                                "children": [],
                                "depth": 1,
                                "id": 1,
                                "order": 1
                            }
                        ],
                        "depth": 0,
                        "id": 0,
                        "order": 0
                    }
                ],
                "depth": -1,
                "id": -1,
                "order": -1
            }
        ],
        "mainTraceNodeCount": 2,
        "parentIdMap": {
            "0": -1,
            "1": 0
        },
        "tidyTrace": [
            {
                "children": [
                    {
                        "children": [
                            {
                                "children": [],
                                "depth": 1,
                                "id": 1,
                                "order": 1
                            }
                        ],
                        "depth": 0,
                        "id": 0,
                        "order": 0
                    }
                ],
                "depth": -1,
                "id": -1,
                "order": -1
            }
        ],
        "tidyTraceNodeCount": 2
    },
    "state_change": {
        "stateChanges": [
            {
                "address": "0x9992ec3cf6a55b00978cddf2b27bc6882d88d1ec",
                "erc": "ERC-20",
                "slots": [
                    {
                        "current": "0x00000000000000000000000000000000000000000000000d8d726b7177a80000",
                        "key": "0x52c4bfd1d5e1b3afb21064f324dd4db4fcbe3d416d8afb41b41d498874a16a0d",
                        "prev": "0x0000000000000000000000000000000000000000000000000000000000000000"
                    },
                    {
                        "current": "0x0000000000000000000000000000000000000000000000000000000000000000",
                        "key": "0x77e48c24ad4c184db5237f8ca64082823a42dafa2457d970b856c322c8c67517",
                        "prev": "0x00000000000000000000000000000000000000000000000d8d726b7177a80000"
                    }
                ],
                "storageVariables": [
                    {
                        "name": "balances",
                        "type": "mapping(address => uint256)",
                        "value": {
                            "pairs": [
                                {
                                    "key": "0x166c366c48274f50b6410945d79cf1c4d6e6f830",
                                    "value": {
                                        "current": "250000000000000000000",
                                        "prev": "0",
                                        "typeTag": 1
                                    }
                                },
                                {
                                    "key": "0xc829c2b03936e05b405d0ec467dcea4fa491a68a",
                                    "value": {
                                        "current": "0",
                                        "prev": "250000000000000000000",
                                        "typeTag": 1
                                    }
                                }
                            ],
                            "typeTag": 4
                        }
                    }
                ]
            }
        ]
    }
}