{
    "balance_change": {
        "balanceChanges": [
            {
                "account": "0x09c98322d0c8db068af0da4349ea0faee2384f53",
                "assets": [
                    {
                        "address": "0xa39631972f19a8be52bd95455440d984f27e8f85",
                        "amount": "2,000",
                        "iconUrl": "",
                        "isERC1155": false,
                        "isERC721": false,
                        "sign": false,
                        "value": ""
                    }
                ]
            },
            {
                "account": "0x7927f681bb9745bc825e92abd787614d6eff27c6",
                "assets": [
                    {
                        "address": "0xa39631972f19a8be52bd95455440d984f27e8f85",
                        "amount": "2,000",
                        "iconUrl": "",
                        "isERC1155": false,
                        "isERC721": false,
                        "sign": true,
                        "value": ""
                    }
                ]
            }
        ]
    },
    "profile": {
        "basic_info": {
            "baseFee": "",
            "blockNumber": 6979722,
            "callData": "0xa9059cbb0000000000000000000000007927f681bb9745bc825e92abd787614d6eff27c600000000000000000000000000000000000000000000006c6b935b8bbd400000",
            "debugEnable": true,
            "errorInfo": "",
            "eventCount": 1,
            "feeRecipient": "0x2a5994b501e6a560e727b6c2de5d856396aadd38",
            "formatValue": "0",
            "gasLimit": 90000,
            "gasPrice": "25",
            "gasUsed": 51545,
            "intTxnCount": 0,
            "internalRevert": false,
            "internalRevertMessage": "",
            "isContractCreation": false,
            "isFlashloan": false,
            "maxFee": "",
            "nonce": 72923,
            "overwritedBlockNumber": -1,
            "priorityFee": "",
            "receiver": "0xa39631972f19a8be52bd95455440d984f27e8f85",
            "revertMessage": "",
            "sender": "0x09c98322d0c8db068af0da4349ea0faee2384f53",
            "simulationEnable": true,
            "sourceTxnHash": "0x82fc13876589a354bc2357e0b626e9039842d5530c085f9a2bc889f4ff50b501",
            "status": true,
            "timestamp": "2018-12-30T12:04:11Z",
            "transactionFee": "0.001288625",
            "txnHash": "0x82fc13876589a354bc2357e0b626e9039842d5530c085f9a2bc889f4ff50b501",
            "txnIndex": 4,
            "type": 0,
            "value": "0"
        },
        "fund_flow": [
            {
                "amount": "2,000",
                "from": "0x09c98322d0c8db068af0da4349ea0faee2384f53",
                "id": 1,
                "isERC1155": false,
                "isERC721": false,
                "isReverted": false,
                "order": 1,
                "to": "0x7927f681bb9745bc825e92abd787614d6eff27c6",
                "token": "0xa39631972f19a8be52bd95455440d984f27e8f85"
            }
        ],
        "token_infos": [
            {
                "address": "0xa39631972f19a8be52bd95455440d984f27e8f85",
                "decimals": 18
            },
            {
                "address": "0xc02aaa39b223fe8d0a0e5c4f27ead9083c756cc2",
                "decimals": 18
            },
            {
                "address": "0xeeeeeeeeeeeeeeeeeeeeeeeeeeeeeeeeeeeeeeee",
                "decimals": 18
            }
        ]
    },
    "address_label": {
        "labels": [
            {
                "address": "0x0000000000000000000000000000000000000003",
                "label": "Precompiled"
            },
            {
                "address": "0x0000000000000000000000000000000000000004",
                "label": "Precompiled"
            },
            {
                "address": "0xeeeeeeeeeeeeeeeeeeeeeeeeeeeeeeeeeeeeeeee",
                "label": "Ether"
            },
            {
                "address": "0xa39631972f19a8be52bd95455440d984f27e8f85",
                "label": "union raising chain (UICC)"
            },
            {
                "address": "0x0000000000000000000000000000000000000001",
                "label": "Precompiled"
            },
            {
                "address": "0x0000000000000000000000000000000000000002",
                "label": "Precompiled"
            }
        ]
    },
    "trace": {
        "accountLabels": null,
        "dataMap": {
            "-1": {
                "invocation": {
                    "address": "0x09c98322d0c8db068af0da4349ea0faee2384f53",
                    "callData": "",
                    "decodedMethod": null,
                    "errorInfo": "",
                    "fromAddress": "",
                    "gasUsed": 0,
                    "id": -1,
                    "methodDecoded": false,
                    "operation": "",
                    "output": "",
                    "revert": false,
                    "revertMessage": "",
                    "selector": "",
                    "status": false,
                    "value": ""
                },
                "nodeType": 0
            },
            "0": {
                "invocation": {
                    "address": "0xa39631972f19a8be52bd95455440d984f27e8f85",
                    "callData": "0x0000000000000000000000007927f681bb9745bc825e92abd787614d6eff27c600000000000000000000000000000000000000000000006c6b935b8bbd400000",
                    "decodedMethod": {
                        "callParams": [
                            {
                                "name": "_to",
                                "type": "address",
                                "value": "0x7927f681bb9745bc825e92abd787614d6eff27c6"
                            },
                            {
                                "decimalAvailable": true,
                                "name": "_value",
                                "type": "uint256",
                                "value": "2,000,000,000,000,000,000,000"
                            }
                        ],
                        "constructorArguments": "",
                        "name": "transfer",
                        "returnParams": [
                            {
                                "name": "success",
                                "type": "bool",
                                "value": true
                            }
                        ],
                        "signature": "transfer(address,uint256)"
                    },
                    "errorInfo": "",
                    "fromAddress": "0x09c98322d0c8db068af0da4349ea0faee2384f53",
                    "gasUsed": 51545,
                    "id": 0,
                    "methodDecoded": true,
                    "operation": "CALL",
                    "output": "0x0000000000000000000000000000000000000000000000000000000000000001",
                    "revert": false,
                    "revertMessage": "",
                    "selector": "0xa9059cbb",
                    "status": true,
                    "value": "0"
                },
                "nodeType": 0
            },
            "1": {
                "event": {
                    "contract": "0xa39631972f19a8be52bd95455440d984f27e8f85",
                    "decodedLog": {
                        "name": "Transfer",
                        "params": [
                            {
                                "name": "_from",
                                "type": "address",
                                "value": "0x09c98322d0c8db068af0da4349ea0faee2384f53"
                            },
                            {
                                "name": "_to",
                                "type": "address",
                                "value": "0x7927f681bb9745bc825e92abd787614d6eff27c6"
                            },
                            {
                                "decimalAvailable": true,
                                "name": "_value",
                                "type": "uint256",
                                "value": "2,000,000,000,000,000,000,000"
                            }
                        ],
                        "signature": "Transfer(address,address,uint256)"
                    },
                    "id": 1,
                    "logData": "0x00000000000000000000000000000000000000000000006c6b935b8bbd400000",
                    "logDecoded": true,
                    "operation": "EVENT",
                    "revert": false,
                    "status": true,
                    "topics": [
                        "0xddf252ad1be2c89b69c2b068fc378daa952ba7f163c4a11628f55a4df523b3ef",
                        "0x00000000000000000000000009c98322d0c8db068af0da4349ea0faee2384f53",
                        "0x0000000000000000000000007927f681bb9745bc825e92abd787614d6eff27c6"
                    ]
                },
                "nodeType": 1
            }
        },
        "gasFlame": [
            {
                "children": [
                    {
                        "children": [
                            {
                                "children": [],
                                "depth": 0,
                                "name": "Initial Gas",
                                "value": 23256
                            },
                            {
                                "children": [],
                                "depth": 0,
                                "name": "Executed Gas",
                                "value": 28289
                            }
                        ],
                        "depth": -1,
                        "name": "Actual Gas Used",
                        "value": 51545
                    },
                    {
                        "children": [],
                        "depth": -1,
                        "name": "Refunded Gas",
                        "value": 0
                    }
                ],
                "depth": -2,
                "name": "Total Gas",
                "value": 51545
            }
        ],
        "isConfirmed": true,
        "mainTrace": [
            {
                "children": [
                    {
                        "children": [
                            {
                                "children": [],
                                "depth": 1,
                                "id": 1,
                                "order": 1
                            }
                        ],
                        "depth": 0,
                        "id": 0,
                        "order": 0
                    }
                ],
                "depth": -1,
                "id": -1,
                "order": -1
            }
        ],
        "mainTraceNodeCount": 2,
        "parentIdMap": {
            "0": -1,
            "1": 0
        },
        "tidyTrace": [
            {
                "children": [
                    {
                        "children": [
                            {
                                "children": [],
                                "depth": 1,
                                "id": 1,
                                "order": 1
                            }
                        ],
                        "depth": 0,
                        "id": 0,
                        "order": 0
                    }
                ],
                "depth": -1,
                "id": -1,
                "order": -1
            }
        ],
        "tidyTraceNodeCount": 2
    },
    "state_change": {
        "stateChanges": [
            {
                "address": "0xa39631972f19a8be52bd95455440d984f27e8f85",
                "erc": "ERC-20",
                "slots": [
                    {
                        "current": "0x000000000000000000000000000000000000000000005edfa0ed47436be5ef08",
                        "key": "0x30a61dca009154e30f4901ba9687a58fba0b0fb5d51d98b2ae40908daf1be00c",
                        "prev": "0x000000000000000000000000000000000000000000005f4c0c80a2cf2925ef08"
                    },
                    {
                        "current": "0x00000000000000000000000000000000000000000000006c6b935b8bbd400000",
                        "key": "0x50c020a88ef9a4290f12a30385b0795587b1bb3279ab9d937c1a8f40822646ef",
                        "prev": "0x0000000000000000000000000000000000000000000000000000000000000000"
                    }
                ],
                "storageVariables": []
            }
        ]
    }
}