{
    "balance_change": {
        "balanceChanges": [
            {
                "account": "0xf49152f1342a78e4a4fb7e8ee7fa253a4019392c",
                "assets": [
                    {
                        "address": "0xeeeeeeeeeeeeeeeeeeeeeeeeeeeeeeeeeeeeeeee",
                        "amount": "0.03",
                        "iconUrl": "https://assets.blocksec.com/image/1663669189317-3.png",
                        "isERC1155": false,
                        "isERC721": false,
                        "sign": false,
                        "value": "46.951199999999998907"
                    },
                    {
                        "address": "0x6b302b295955954311e4622bdccccf52796422fa",
                        "amount": "1",
                        "iconUrl": "",
                        "isERC1155": false,
                        "isERC721": true,
                        "sign": true,
                        "tokenID": "7",
                        "value": ""
                    }
                ]
            },
            {
                "account": "0x6b302b295955954311e4622bdccccf52796422fa",
                "assets": [
                    {
                        "address": "0xeeeeeeeeeeeeeeeeeeeeeeeeeeeeeeeeeeeeeeee",
                        "amount": "0.03",
                        "iconUrl": "https://assets.blocksec.com/image/1663669189317-3.png",
                        "isERC1155": false,
                        "isERC721": false,
                        "sign": true,
                        "value": "46.951199999999998907"
                    }
                ]
            },
            {
                "account": "0x0000000000000000000000000000000000000000",
                "assets": [
                    {
                        "address": "0x6b302b295955954311e4622bdccccf52796422fa",
                        "amount": "1",
                        "iconUrl": "",
                        "isERC1155": false,
                        "isERC721": true,
                        "sign": false,
                        "tokenID": "7",
                        "value": ""
                    }
                ]
            }
        ]
    },
    "profile": {
        "basic_info": {
            "baseFee": "29.832960155",
            "blockNumber": 16780009,
            "callData": "0x1f4730320000000000000000000000000000000000000000000000000000000000000001",
            "debugEnable": true,
            "errorInfo": "",
            "eventCount": 1,
            "feeRecipient": "0x4675c7e5baafbffbca748158becba61ef3b0a263",
            "formatValue": "0.03",
            "gasLimit": 164353,
            "gasPrice": "31.832960155",
            "gasUsed": 121700,
            "intTxnCount": 0,
            "internalRevert": false,
            "internalRevertMessage": "",
            "isContractCreation": false,
            "isFlashloan": false,
            "maxFee": "44",
            "nonce": 386,
            "overwritedBlockNumber": -1,
            "priorityFee": "2",
            "receiver": "0x6b302b295955954311e4622bdccccf52796422fa",
            "revertMessage": "",
            "sender": "0xf49152f1342a78e4a4fb7e8ee7fa253a4019392c",
            "simulationEnable": true,
            "sourceTxnHash": "0x8205d6d86ba41fbe2f0f7ffa29d67f0e9487222691ab0816b83fe720e2a46254",
            "status": true,
            "timestamp": "2023-03-08T00:33:47Z",
            "transactionFee": "0.0038740712508635",
            "txnHash": "0x8205d6d86ba41fbe2f0f7ffa29d67f0e9487222691ab0816b83fe720e2a46254",
            "txnIndex": 51,
            "type": 2,
            "value": "30000000000000000"
        },
        "fund_flow": [
            {
                "amount": "0.03",
                "from": "0xf49152f1342a78e4a4fb7e8ee7fa253a4019392c",
                "id": 1,
                "isERC1155": false,
                "isERC721": false,
                "isReverted": false,
                "order": 1,
                "to": "0x6b302b295955954311e4622bdccccf52796422fa",
                "token": "0xeeeeeeeeeeeeeeeeeeeeeeeeeeeeeeeeeeeeeeee"
            },
            {
                "amount": "1",
                "from": "0x0000000000000000000000000000000000000000",
                "id": 2,
                "isERC1155": false,
                "isERC721": true,
                "isReverted": false,
                "order": 2,
                "to": "0xf49152f1342a78e4a4fb7e8ee7fa253a4019392c",
                "token": "0x6b302b295955954311e4622bdccccf52796422fa",
                "tokenID": "7"
            }
        ],
        "token_infos": [
            {
                "address": "0xc02aaa39b223fe8d0a0e5c4f27ead9083c756cc2",
                "decimals": 18
            },
            {
                "address": "0xeeeeeeeeeeeeeeeeeeeeeeeeeeeeeeeeeeeeeeee",
                "decimals": 18
            }
        ]
    },
    "address_label": {
        "labels": [
            {
                "address": "0x0000000000000000000000000000000000000004",
                "label": "Precompiled"
            },
            {
                "address": "0xeeeeeeeeeeeeeeeeeeeeeeeeeeeeeeeeeeeeeeee",
                "label": "Ether"
            },
            {
                "address": "0x6b302b295955954311e4622bdccccf52796422fa",
                "label": "Sugar Heads NFT (SH Token)"
            },
            {
                "address": "0x0000000000000000000000000000000000000001",
                "label": "Precompiled"
            },
            {
                "address": "0x0000000000000000000000000000000000000002",
                "label": "Precompiled"
            },
            {
                "address": "0x0000000000000000000000000000000000000003",
                "label": "Precompiled"
            }
        ]
    },
    "trace": {
        "accountLabels": null,
        "dataMap": {
            "-1": {
                "invocation": {
                    "address": "0xf49152f1342a78e4a4fb7e8ee7fa253a4019392c",
                    "callData": "",
                    "decodedMethod": null,
                    "errorInfo": "",
                    "fromAddress": "",
                    "gasUsed": 0,
                    "id": -1,
                    "methodDecoded": false,
                    "operation": "",
                    "output": "",
                    "revert": false,
                    "revertMessage": "",
                    "selector": "",
                    "status": false,
                    "value": ""
                },
                "nodeType": 0
            },
            "0": {
                "invocation": {
                    "address": "0x6b302b295955954311e4622bdccccf52796422fa",
                    "callData": "0x0000000000000000000000000000000000000000000000000000000000000001",
                    "decodedMethod": {
                        "callParams": [
                            {
                                "name": "_amount",
                                "type": "uint32",
                                "value": "1"
                            }
                        ],
                        "constructorArguments": "",
                        "name": "buyNFTsInPublic",
                        "returnParams": [],
                        "signature": "buyNFTsInPublic(uint32)"
                    },
                    "errorInfo": "",
                    "fromAddress": "0xf49152f1342a78e4a4fb7e8ee7fa253a4019392c",
                    "gasUsed": 121700,
                    "id": 0,
                    "methodDecoded": true,
                    "operation": "CALL",
                    "output": "",
                    "revert": false,
                    "revertMessage": "",
                    "selector": "0x1f473032",
                    "status": true,
                    "value": "0.03"
                },
                "nodeType": 0
            },
            "1": {
                "event": {
                    "contract": "0x6b302b295955954311e4622bdccccf52796422fa",
                    "decodedLog": {
                        "name": "Transfer",
                        "params": [
                            {
                                "name": "from",
                                "type": "address",
                                "value": "0x0000000000000000000000000000000000000000"
                            },
                            {
                                "name": "to",
                                "type": "address",
                                "value": "0xf49152f1342a78e4a4fb7e8ee7fa253a4019392c"
                            },
                            {
                                "decimalAvailable": true,
                                "name": "tokenId",
                                "type": "uint256",
                                "value": "7"
                            }
                        ],
                        "signature": "Transfer(address,address,uint256)"
                    },
                    "id": 1,
                    "logData": "0x",
                    "logDecoded": true,
                    "operation": "EVENT",
                    "revert": false,
                    "status": true,
                    "topics": [
                        "0xddf252ad1be2c89b69c2b068fc378daa952ba7f163c4a11628f55a4df523b3ef",
                        "0x0000000000000000000000000000000000000000000000000000000000000000",
                        "0x000000000000000000000000f49152f1342a78e4a4fb7e8ee7fa253a4019392c",
                        "0x0000000000000000000000000000000000000000000000000000000000000007"
                    ]
                },
                "nodeType": 1
            }
        },
        "gasFlame": [
            {
                "children": [
                    {
                        "children": [
                            {
                                "children": [],
                                "depth": 0,
                                "name": "Initial Gas",
                                "value": 21204
                            },
                            {
                                "children": [],
                                "depth": 0,
                                "name": "Executed Gas",
                                "value": 103296
                            }
                        ],
                        "depth": -1,
                        "name": "Actual Gas Used",
                        "value": 121700
                    },
                    {
                        "children": [],
                        "depth": -1,
                        "name": "Refunded Gas",
                        "value": 2800
                    }
                ],
                "depth": -2,
                "name": "Total Gas",
                "value": 124500
            }
        ],
        "isConfirmed": true,
        "mainTrace": [
            {
                "children": [
                    {
                        "children": [
                            {
                                "children": [],
                                "depth": 1,
                                "id": 1,
                                "order": 1
                            }
                        ],
                        "depth": 0,
                        "id": 0,
                        "order": 0
                    }
                ],
                "depth": -1,
                "id": -1,
                "order": -1
            }
        ],
        "mainTraceNodeCount": 2,
        "parentIdMap": {
            "0": -1,
            "1": 0
        },
        "tidyTrace": [
            {
                "children": [
                    {
                        "children": [
                            {
                                "children": [],
                                "depth": 1,
                                "id": 1,
                                "order": 1
                            }
                        ],
                        "depth": 0,
                        "id": 0,
                        "order": 0
                    }
                ],
                "depth": -1,
                "id": -1,
                "order": -1
            }
        ],
        "tidyTraceNodeCount": 2
    },
    "state_change": {
        "stateChanges": [
            {
                "address": "0x6b302b295955954311e4622bdccccf52796422fa",
                "erc": "ERC-721",
                "slots": [
                    {
                        "current": "0x00000000000000000000000000000000000000000000000000000000000003b4",
                        "key": "0x98ae0176de2844d118e1a6decfe92f97691bedbc578c71fc8d5c4374be77e50c",
                        "prev": "0x0000000000000000000000000000000000000000000000000000000000000000"
                    },
                    {
                        "current": "0x000000000000000000000000000000000000000000000000000000000000001b",
                        "key": "0x50b740f18c2f2b1708dd1fbae3f8c3fc07e4d67bf4066050ed2b23d452b2bb94",
                        "prev": "0x000000000000000000000000000000000000000000000000000000000000001a"
                    },
                    {
                        "current": "0x000000000000000000000000f49152f1342a78e4a4fb7e8ee7fa253a4019392c",
                        "key": "0xacd8ef244210bb6898e73c48bf820ed8ecc857a3bab8d79c10e4fa92b1e9ca65",
                        "prev": "0x0000000000000000000000000000000000000000000000000000000000000000"
                    },
                    {
                        "current": "0x000000000000000000000000000000000000000000000000000000000000001b",
                        "key": "0x33949e4f872665fbecd0bc25ca4ab6edb1733564739073026d50ece0a7b9619e",
                        "prev": "0x000000000000000000000000000000000000000000000000000000000000001a"
                    },
                    {
                        "current": "0x0000000000000000000000000000000000000000000000000000000000000007",
                        "key": "0x7a64d6eb824a515ac2816e57c5c7c52dc6347887ca6bd30e53e4184046b7d976",
                        "prev": "0x0000000000000000000000000000000000000000000000000000000000000000"
                    },
                    {
                        "current": "0x0000000000000000000000000000000000000000000000000000000000000322",
                        "key": "0x0000000000000000000000000000000000000000000000000000000000000009",
                        "prev": "0x0000000000000000000000000000000000000000000000000000000000000321"
                    },
                    {
                        "current": "0x00000000000000000000000000000000000000000000000000000000000003b4",
                        "key": "0x000000000000000000000000000000000000000000000000000000000000000d",
                        "prev": "0x00000000000000000000000000000000000000000000000000000000000003b5"
                    }
                ],
                "storageVariables": [
                    {
                        "name": "tokenIdsOf",
                        "type": "mapping(address => uint256[])",
                        "value": {
                            "pairs": [
                                {
                                    "key": "0xf49152f1342a78e4a4fb7e8ee7fa253a4019392c",
                                    "value": {
                                        "elemType": "uint256",
                                        "elems": [
                                            {
                                                "index": 26,
                                                "value": {
                                                    "current": "7",
                                                    "prev": "0",
                                                    "typeTag": 1
                                                }
                                            }
                                        ],
                                        "typeTag": 2
                                    }
                                }
                            ],
                            "typeTag": 4
                        }
                    },
                    {
                        "name": "_tokenIds",
                        "type": "struct Counters.Counter",
                        "value": {
                            "fields": [
                                {
                                    "name": "_value",
                                    "type": "uint256",
                                    "value": {
                                        "current": "802",
                                        "prev": "801",
                                        "typeTag": 1
                                    }
                                }
                            ],
                            "typeTag": 3
                        }
                    },
                    {
                        "name": "_numAvailableTokens",
                        "type": "uint256",
                        "value": {
                            "current": "948",
                            "prev": "949",
                            "typeTag": 1
                        }
                    },
                    {
                        "name": "_availableTokens",
                        "type": "mapping(uint256 => uint256)",
                        "value": {
                            "pairs": [
                                {
                                    "key": "7",
                                    "value": {
                                        "current": "948",
                                        "prev": "0",
                                        "typeTag": 1
                                    }
                                }
                            ],
                            "typeTag": 4
                        }
                    },
                    {
                        "name": "_balances",
                        "type": "mapping(address => uint256)",
                        "value": {
                            "pairs": [
                                {
                                    "key": "0xf49152f1342a78e4a4fb7e8ee7fa253a4019392c",
                                    "value": {
                                        "current": "27",
                                        "prev": "26",
                                        "typeTag": 1
                                    }
                                }
                            ],
                            "typeTag": 4
                        }
                    },
                    {
                        "name": "_owners",
                        "type": "mapping(uint256 => address)",
                        "value": {
                            "pairs": [
                                {
                                    "key": "7",
                                    "value": {
                                        "current": "0xf49152f1342a78e4a4fb7e8ee7fa253a4019392c",
                                        "prev": "0x0000000000000000000000000000000000000000",
                                        "typeTag": 1
                                    }
                                }
                            ],
                            "typeTag": 4
                        }
                    }
                ]
            }
        ]
    }
}