{
    "balance_change": {
        "balanceChanges": [
            {
                "account": "0x8a91c9a16cd62693649d80afa85a09dbbdcb8508",
                "assets": [
                    {
                        "address": "0x8e870d67f660d95d5be530380d0ec0bd388289e1",
                        "amount": "150",
                        "iconUrl": "https://assets.blocksec.com/icon/df4a16322c8ca2faeeb21a6d029f24de2efeb58e57edadd9ecbfa6a35afa986d.png",
                        "isERC1155": false,
                        "isERC721": false,
                        "sign": true,
                        "value": ""
                    }
                ]
            },
            {
                "account": "0x0b6265d1340802776d9fff81cab743337735293d",
                "assets": [
                    {
                        "address": "0x8e870d67f660d95d5be530380d0ec0bd388289e1",
                        "amount": "150",
                        "iconUrl": "https://assets.blocksec.com/icon/df4a16322c8ca2faeeb21a6d029f24de2efeb58e57edadd9ecbfa6a35afa986d.png",
                        "isERC1155": false,
                        "isERC721": false,
                        "sign": false,
                        "value": ""
                    }
                ]
            }
        ]
    },
    "profile": {
        "basic_info": {
            "baseFee": "",
            "blockNumber": 11088542,
            "callData": "0xae8123ba00000000000000000000000000000000000000000000000000000004c67d5571",
            "debugEnable": true,
            "errorInfo": "",
            "eventCount": 5,
            "feeRecipient": "0xea674fdde714fd979de3edf0f56aa9716b898ec8",
            "formatValue": "0",
            "gasLimit": 1429470,
            "gasPrice": "20",
            "gasUsed": 356788,
            "intTxnCount": 5,
            "internalRevert": false,
            "internalRevertMessage": "",
            "isContractCreation": false,
            "isFlashloan": false,
            "maxFee": "",
            "nonce": 1023286,
            "overwritedBlockNumber": -1,
            "priorityFee": "",
            "receiver": "0x8a91c9a16cd62693649d80afa85a09dbbdcb8508",
            "revertMessage": "",
            "sender": "0xddd26c200bf6dbb775a9d91fc24b5ece5be7a45f",
            "simulationEnable": true,
            "sourceTxnHash": "0x829f509366775fbd03023af2eb601edca01a97b126e5d0468e33e05be2185de6",
            "status": true,
            "timestamp": "2020-10-19T20:00:41Z",
            "transactionFee": "0.00713576",
            "txnHash": "0x829f509366775fbd03023af2eb601edca01a97b126e5d0468e33e05be2185de6",
            "txnIndex": 46,
            "type": 0,
            "value": "0"
        },
        "fund_flow": [
            {
                "amount": "150",
                "from": "0x0b6265d1340802776d9fff81cab743337735293d",
                "id": 1,
                "isERC1155": false,
                "isERC721": false,
                "isReverted": false,
                "order": 1,
                "to": "0x8a91c9a16cd62693649d80afa85a09dbbdcb8508",
                "token": "0x8e870d67f660d95d5be530380d0ec0bd388289e1"
            }
        ],
        "token_infos": [
            {
                "address": "0x8e870d67f660d95d5be530380d0ec0bd388289e1",
                "decimals": 18
            },
            {
                "address": "0xc02aaa39b223fe8d0a0e5c4f27ead9083c756cc2",
                "decimals": 18
            },
            {
                "address": "0xeeeeeeeeeeeeeeeeeeeeeeeeeeeeeeeeeeeeeeee",
                "decimals": 18
            }
        ]
    },
    "address_label": {
        "labels": [
            {
                "address": "0x0000000000000000000000000000000000000004",
                "label": "Precompiled"
            },
            {
                "address": "0xeeeeeeeeeeeeeeeeeeeeeeeeeeeeeeeeeeeeeeee",
                "label": "Ether"
            },
            {
                "address": "0x8a91c9a16cd62693649d80afa85a09dbbdcb8508",
                "label": "MMM BSC"
            },
            {
                "address": "0x8e870d67f660d95d5be530380d0ec0bd388289e1",
                "label": "Paxos: USDP Token"
            },
            {
                "address": "0x86eee0422322710866af89e9cae3f7383d55310a",
                "label": "Paxos Standard (PAX)"
            },
            {
                "address": "0x0000000000000000000000000000000000000001",
                "label": "Precompiled"
            },
            {
                "address": "0x0000000000000000000000000000000000000002",
                "label": "Precompiled"
            },
            {
                "address": "0x0000000000000000000000000000000000000003",
                "label": "Precompiled"
            }
        ]
    },
    "trace": {
        "accountLabels": null,
        "dataMap": {
            "-1": {
                "invocation": {
                    "address": "0xddd26c200bf6dbb775a9d91fc24b5ece5be7a45f",
                    "callData": "",
                    "decodedMethod": null,
                    "errorInfo": "",
                    "fromAddress": "",
                    "gasUsed": 0,
                    "id": -1,
                    "methodDecoded": false,
                    "operation": "",
                    "output": "",
                    "revert": false,
                    "revertMessage": "",
                    "selector": "",
                    "status": false,
                    "value": ""
                },
                "nodeType": 0
            },
            "0": {
                "invocation": {
                    "address": "0x8a91c9a16cd62693649d80afa85a09dbbdcb8508",
                    "callData": "0x00000000000000000000000000000000000000000000000000000004c67d5571",
                    "decodedMethod": null,
                    "errorInfo": "",
                    "fromAddress": "0xddd26c200bf6dbb775a9d91fc24b5ece5be7a45f",
                    "gasUsed": 356788,
                    "id": 0,
                    "methodDecoded": false,
                    "operation": "CALL",
                    "output": "",
                    "revert": false,
                    "revertMessage": "",
                    "selector": "0xae8123ba",
                    "status": true,
                    "value": "0"
                },
                "nodeType": 0
            },
            "1": {
                "invocation": {
                    "address": "0x8e870d67f660d95d5be530380d0ec0bd388289e1",
                    "callData": "0x0000000000000000000000000b6265d1340802776d9fff81cab743337735293d",
                    "decodedMethod": {
                        "callParams": [
                            {
                                "name": "_addr",
                                "type": "address",
                                "value": "0x0b6265d1340802776d9fff81cab743337735293d"
                            }
                        ],
                        "constructorArguments": "",
                        "name": "balanceOf",
                        "returnParams": [
                            {
                                "decimalAvailable": true,
                                "name": "",
                                "type": "uint256",
                                "value": "150,000,000,000,000,000,000"
                            }
                        ],
                        "signature": "balanceOf(address)"
                    },
                    "errorInfo": "",
                    "fromAddress": "0x8a91c9a16cd62693649d80afa85a09dbbdcb8508",
                    "gasUsed": 4337,
                    "id": 1,
                    "methodDecoded": true,
                    "operation": "CALL",
                    "output": "0x00000000000000000000000000000000000000000000000821ab0d4414980000",
                    "revert": false,
                    "revertMessage": "",
                    "selector": "0x70a08231",
                    "status": true,
                    "value": "0"
                },
                "nodeType": 0
            },
            "10": {
                "event": {
                    "contract": "0x8a91c9a16cd62693649d80afa85a09dbbdcb8508",
                    "decodedLog": null,
                    "id": 10,
                    "logData": "0x0000000000000000000000000000000000000000000000000000000000000001000000000000000000000000ee98389e81570da6e38597fa171bf014730ac27b0000000000000000000000008e47c970e445333f148589055c2372f6e96275d000000000000000000000000000000000000000000000000000000004c67d5571000000000000000000000000000000000000000000000000d02ab486cedc0000",
                    "logDecoded": false,
                    "operation": "EVENT",
                    "revert": false,
                    "status": true,
                    "topics": [
                        "0x41b5ac8f5f04421570dcbd7e1e97b87b67783216df5576369737efd836d35427"
                    ]
                },
                "nodeType": 1
            },
            "2": {
                "invocation": {
                    "address": "0x86eee0422322710866af89e9cae3f7383d55310a",
                    "callData": "0x0000000000000000000000000b6265d1340802776d9fff81cab743337735293d",
                    "decodedMethod": {
                        "callParams": [
                            {
                                "name": "_addr",
                                "type": "address",
                                "value": "0x0b6265d1340802776d9fff81cab743337735293d"
                            }
                        ],
                        "constructorArguments": "",
                        "name": "balanceOf",
                        "returnParams": [
                            {
                                "decimalAvailable": true,
                                "name": "",
                                "type": "uint256",
                                "value": "150,000,000,000,000,000,000"
                            }
                        ],
                        "signature": "balanceOf(address)"
                    },
                    "errorInfo": "",
                    "fromAddress": "0x8e870d67f660d95d5be530380d0ec0bd388289e1",
                    "gasUsed": 1558,
                    "id": 2,
                    "methodDecoded": true,
                    "operation": "DELEGATECALL",
                    "output": "0x00000000000000000000000000000000000000000000000821ab0d4414980000",
                    "revert": false,
                    "revertMessage": "",
                    "selector": "0x70a08231",
                    "status": true,
                    "value": "0"
                },
                "nodeType": 0
            },
            "3": {
                "invocation": {
                    "address": "0x8e870d67f660d95d5be530380d0ec0bd388289e1",
                    "callData": "0x0000000000000000000000000b6265d1340802776d9fff81cab743337735293d0000000000000000000000008a91c9a16cd62693649d80afa85a09dbbdcb850800000000000000000000000000000000000000000000000821ab0d4414980000",
                    "decodedMethod": {
                        "callParams": [
                            {
                                "name": "_from",
                                "type": "address",
                                "value": "0x0b6265d1340802776d9fff81cab743337735293d"
                            },
                            {
                                "name": "_to",
                                "type": "address",
                                "value": "0x8a91c9a16cd62693649d80afa85a09dbbdcb8508"
                            },
                            {
                                "decimalAvailable": true,
                                "name": "_value",
                                "type": "uint256",
                                "value": "150,000,000,000,000,000,000"
                            }
                        ],
                        "constructorArguments": "",
                        "name": "transferFrom",
                        "returnParams": [
                            {
                                "name": "",
                                "type": "bool",
                                "value": true
                            }
                        ],
                        "signature": "transferFrom(address,address,uint256)"
                    },
                    "errorInfo": "",
                    "fromAddress": "0x8a91c9a16cd62693649d80afa85a09dbbdcb8508",
                    "gasUsed": 29542,
                    "id": 3,
                    "methodDecoded": true,
                    "operation": "CALL",
                    "output": "0x0000000000000000000000000000000000000000000000000000000000000001",
                    "revert": false,
                    "revertMessage": "",
                    "selector": "0x23b872dd",
                    "status": true,
                    "value": "0"
                },
                "nodeType": 0
            },
            "4": {
                "invocation": {
                    "address": "0x86eee0422322710866af89e9cae3f7383d55310a",
                    "callData": "0x0000000000000000000000000b6265d1340802776d9fff81cab743337735293d0000000000000000000000008a91c9a16cd62693649d80afa85a09dbbdcb850800000000000000000000000000000000000000000000000821ab0d4414980000",
                    "decodedMethod": {
                        "callParams": [
                            {
                                "name": "_from",
                                "type": "address",
                                "value": "0x0b6265d1340802776d9fff81cab743337735293d"
                            },
                            {
                                "name": "_to",
                                "type": "address",
                                "value": "0x8a91c9a16cd62693649d80afa85a09dbbdcb8508"
                            },
                            {
                                "decimalAvailable": true,
                                "name": "_value",
                                "type": "uint256",
                                "value": "150,000,000,000,000,000,000"
                            }
                        ],
                        "constructorArguments": "",
                        "name": "transferFrom",
                        "returnParams": [
                            {
                                "name": "",
                                "type": "bool",
                                "value": true
                            }
                        ],
                        "signature": "transferFrom(address,address,uint256)"
                    },
                    "errorInfo": "",
                    "fromAddress": "0x8e870d67f660d95d5be530380d0ec0bd388289e1",
                    "gasUsed": 26754,
                    "id": 4,
                    "methodDecoded": true,
                    "operation": "DELEGATECALL",
                    "output": "0x0000000000000000000000000000000000000000000000000000000000000001",
                    "revert": false,
                    "revertMessage": "",
                    "selector": "0x23b872dd",
                    "status": true,
                    "value": "0"
                },
                "nodeType": 0
            },
            "5": {
                "event": {
                    "contract": "0x8e870d67f660d95d5be530380d0ec0bd388289e1",
                    "decodedLog": {
                        "name": "Transfer",
                        "params": [
                            {
                                "name": "from",
                                "type": "address",
                                "value": "0x0b6265d1340802776d9fff81cab743337735293d"
                            },
                            {
                                "name": "to",
                                "type": "address",
                                "value": "0x8a91c9a16cd62693649d80afa85a09dbbdcb8508"
                            },
                            {
                                "decimalAvailable": true,
                                "name": "value",
                                "type": "uint256",
                                "value": "150,000,000,000,000,000,000"
                            }
                        ],
                        "signature": "Transfer(address,address,uint256)"
                    },
                    "id": 5,
                    "logData": "0x00000000000000000000000000000000000000000000000821ab0d4414980000",
                    "logDecoded": true,
                    "operation": "EVENT",
                    "revert": false,
                    "status": true,
                    "topics": [
                        "0xddf252ad1be2c89b69c2b068fc378daa952ba7f163c4a11628f55a4df523b3ef",
                        "0x0000000000000000000000000b6265d1340802776d9fff81cab743337735293d",
                        "0x0000000000000000000000008a91c9a16cd62693649d80afa85a09dbbdcb8508"
                    ]
                },
                "nodeType": 1
            },
            "6": {
                "event": {
                    "contract": "0x8a91c9a16cd62693649d80afa85a09dbbdcb8508",
                    "decodedLog": null,
                    "id": 6,
                    "logData": "0x0000000000000000000000000000000000000000000000000000000000000001000000000000000000000000ee98389e81570da6e38597fa171bf014730ac27b000000000000000000000000000000000000000000000000000000000000000200000000000000000000000000000000000000000000000000000004c67d557100000000000000000000000000000000000000000000000821ab0d4414980000000000000000000000000000000000000000000000000000000000005f8df069",
                    "logDecoded": false,
                    "operation": "EVENT",
                    "revert": false,
                    "status": true,
                    "topics": [
                        "0x3be1a4b332d68eecc10d6ef2956ae149fa02f86910a3591609219ea1adbdd94f"
                    ]
                },
                "nodeType": 1
            },
            "7": {
                "event": {
                    "contract": "0x8a91c9a16cd62693649d80afa85a09dbbdcb8508",
                    "decodedLog": null,
                    "id": 7,
                    "logData": "0x0000000000000000000000000000000000000000000000000000000000000001000000000000000000000000ee98389e81570da6e38597fa171bf014730ac27b00000000000000000000000000000000000000000000000821ab0d441498000000000000000000000000000000000000000000000000000000000004c67d55710000000000000000000000000b6265d1340802776d9fff81cab743337735293d000000000000000000000000000000000000000000000000000000005f8df06900000000000000000000000000000000000000000000000821ab0d4414980000",
                    "logDecoded": false,
                    "operation": "EVENT",
                    "revert": false,
                    "status": true,
                    "topics": [
                        "0x06643dfdd56984ca5faeeeb2c91ee2b0b2e5098540d72d659dbe01a8f52a3a1d"
                    ]
                },
                "nodeType": 1
            },
            "8": {
                "invocation": {
                    "address": "0x1149cd70ae511fc600fb7143ac2f037ac5a4c748",
                    "callData": "0x00000000000000000000000000000000000000000000000000000004c67d5571000000000000000000000000ee98389e81570da6e38597fa171bf014730ac27b000000000000000000000000000000000000000000000000000000005fa3086900000000000000000000000000000000000000000000001043561a882930000000000000000000000000000000000000000000000000000214e8348c4f000000000000000000000000000000000000000000000000000000000000000000000000000000000000000000000000000000000000000000000000000000000000010000000000000000000000000000000000000000000000000000000000000000",
                    "decodedMethod": null,
                    "errorInfo": "",
                    "fromAddress": "0x8a91c9a16cd62693649d80afa85a09dbbdcb8508",
                    "gasUsed": 168987,
                    "id": 8,
                    "methodDecoded": false,
                    "operation": "CALL",
                    "output": "",
                    "revert": false,
                    "revertMessage": "",
                    "selector": "0xa48c6adc",
                    "status": true,
                    "value": "0"
                },
                "nodeType": 0
            },
            "9": {
                "event": {
                    "contract": "0x8a91c9a16cd62693649d80afa85a09dbbdcb8508",
                    "decodedLog": null,
                    "id": 9,
                    "logData": "0x0000000000000000000000000000000000000000000000000000000000000001000000000000000000000000ee98389e81570da6e38597fa171bf014730ac27b00000000000000000000000000000000000000000000000000000004c67d557100000000000000000000000000000000000000000000001043561a882930000000000000000000000000000000000000000000000000000214e8348c4f0000000000000000000000000000000000000000000000000000000000000000000000",
                    "logDecoded": false,
                    "operation": "EVENT",
                    "revert": false,
                    "status": true,
                    "topics": [
                        "0xe8aa8dab07d35abe61934013c0b8976558890a41aaa594d4309a948acb73ebd7"
                    ]
                },
                "nodeType": 1
            }
        },
        "gasFlame": [
            {
                "children": [
                    {
                        "children": [
                            {
                                "children": [],
                                "depth": 0,
                                "name": "Initial Gas",
                                "value": 21252
                            },
                            {
                                "children": [
                                    {
                                        "children": [
                                            {
                                                "children": [],
                                                "depth": 2,
                                                "name": "balanceOf",
                                                "value": 1558
                                            }
                                        ],
                                        "depth": 1,
                                        "name": "balanceOf",
                                        "value": 4337
                                    },
                                    {
                                        "children": [
                                            {
                                                "children": [],
                                                "depth": 2,
                                                "name": "transferFrom",
                                                "value": 26754
                                            }
                                        ],
                                        "depth": 1,
                                        "name": "transferFrom",
                                        "value": 29542
                                    },
                                    {
                                        "children": [],
                                        "depth": 1,
                                        "name": "0xa48c6adc",
                                        "value": 168987
                                    }
                                ],
                                "depth": 0,
                                "name": "Executed Gas",
                                "value": 350536
                            }
                        ],
                        "depth": -1,
                        "name": "Actual Gas Used",
                        "value": 356788
                    },
                    {
                        "children": [],
                        "depth": -1,
                        "name": "Refunded Gas",
                        "value": 15000
                    }
                ],
                "depth": -2,
                "name": "Total Gas",
                "value": 371788
            }
        ],
        "isConfirmed": true,
        "mainTrace": [
            {
                "children": [
                    {
                        "children": [
                            {
                                "children": [
                                    {
                                        "children": [],
                                        "depth": 2,
                                        "id": 2,
                                        "order": 2
                                    }
                                ],
                                "depth": 1,
                                "id": 1,
                                "order": 1
                            },
                            {
                                "children": [
                                    {
                                        "children": [
                                            {
                                                "children": [],
                                                "depth": 3,
                                                "id": 5,
                                                "order": 5
                                            }
                                        ],
                                        "depth": 2,
                                        "id": 4,
                                        "order": 4
                                    }
                                ],
                                "depth": 1,
                                "id": 3,
                                "order": 3
                            },
                            {
                                "children": [],
                                "depth": 1,
                                "id": 6,
                                "order": 6
                            },
                            {
                                "children": [],
                                "depth": 1,
                                "id": 7,
                                "order": 7
                            },
                            {
                                "children": [],
                                "depth": 1,
                                "id": 8,
                                "order": 8
                            },
                            {
                                "children": [],
                                "depth": 1,
                                "id": 9,
                                "order": 9
                            },
                            {
                                "children": [],
                                "depth": 1,
                                "id": 10,
                                "order": 10
                            }
                        ],
                        "depth": 0,
                        "id": 0,
                        "order": 0
                    }
                ],
                "depth": -1,
                "id": -1,
                "order": -1
            }
        ],
        "mainTraceNodeCount": 11,
        "parentIdMap": {
            "0": -1,
            "1": 0,
            "10": 0,
            "2": 1,
            "3": 0,
            "4": 3,
            "5": 4,
            "6": 0,
            "7": 0,
            "8": 0,
            "9": 0
        },
        "tidyTrace": [
            {
                "children": [
                    {
                        "children": [
                            {
                                "children": [
                                    {
                                        "children": [],
                                        "depth": 2,
                                        "id": 2,
                                        "order": 2
                                    }
                                ],
                                "depth": 1,
                                "id": 1,
                                "order": 1
                            },
                            {
                                "children": [
                                    {
                                        "children": [
                                            {
                                                "children": [],
                                                "depth": 3,
                                                "id": 5,
                                                "order": 5
                                            }
                                        ],
                                        "depth": 2,
                                        "id": 4,
                                        "order": 4
                                    }
                                ],
                                "depth": 1,
                                "id": 3,
                                "order": 3
                            },
                            {
                                "children": [],
                                "depth": 1,
                                "id": 6,
                                "order": 6
                            },
                            {
                                "children": [],
                                "depth": 1,
                                "id": 7,
                                "order": 7
                            },
                            {
                                "children": [],
                                "depth": 1,
                                "id": 8,
                                "order": 8
                            },
                            {
                                "children": [],
                                "depth": 1,
                                "id": 9,
                                "order": 9
                            },
                            {
                                "children": [],
                                "depth": 1,
                                "id": 10,
                                "order": 10
                            }
                        ],
                        "depth": 0,
                        "id": 0,
                        "order": 0
                    }
                ],
                "depth": -1,
                "id": -1,
                "order": -1
            }
        ],
        "tidyTraceNodeCount": 11
    },
    "state_change": {
        "stateChanges": [
            {
                "address": "0x1149cd70ae511fc600fb7143ac2f037ac5a4c748",
                "erc": "",
                "slots": [
                    {
                        "current": "0x000000000000000000000000000000000000000000000000000000005fa30869",
                        "key": "0x133207be5a74cce0a7673e246a82036e72411ebaf392281ea244afe0d578ca91",
                        "prev": "0x0000000000000000000000000000000000000000000000000000000000000000"
                    },
                    {
                        "current": "0x00000000000000000000000000000000000000000000001043561a8829300000",
                        "key": "0x133207be5a74cce0a7673e246a82036e72411ebaf392281ea244afe0d578ca92",
                        "prev": "0x0000000000000000000000000000000000000000000000000000000000000000"
                    },
                    {
                        "current": "0x00000000000000000000000000000000000000000000000214e8348c4f000000",
                        "key": "0x133207be5a74cce0a7673e246a82036e72411ebaf392281ea244afe0d578ca94",
                        "prev": "0x0000000000000000000000000000000000000000000000000000000000000000"
                    },
                    {
                        "current": "0x00000000000000000000000000000000000000000000001043561a8829300000",
                        "key": "0x133207be5a74cce0a7673e246a82036e72411ebaf392281ea244afe0d578ca95",
                        "prev": "0x0000000000000000000000000000000000000000000000000000000000000000"
                    },
                    {
                        "current": "0x00000000000000000000000000000000000000000000000214e8348c4f000000",
                        "key": "0x133207be5a74cce0a7673e246a82036e72411ebaf392281ea244afe0d578ca97",
                        "prev": "0x0000000000000000000000000000000000000000000000000000000000000000"
                    },
                    {
                        "current": "0x0000000000000000000000000000000000000000000000000000000000000001",
                        "key": "0x133207be5a74cce0a7673e246a82036e72411ebaf392281ea244afe0d578ca98",
                        "prev": "0x0000000000000000000000000000000000000000000000000000000000000000"
                    },
                    {
                        "current": "0x0000000000000000000000000000000000000000000000000000000000000001",
                        "key": "0x133207be5a74cce0a7673e246a82036e72411ebaf392281ea244afe0d578ca99",
                        "prev": "0x0000000000000000000000000000000000000000000000000000000000000000"
                    },
                    {
                        "current": "0x000000000000000000000000ee98389e81570da6e38597fa171bf014730ac27b",
                        "key": "0x133207be5a74cce0a7673e246a82036e72411ebaf392281ea244afe0d578ca90",
                        "prev": "0x0000000000000000000000000000000000000000000000000000000000000000"
                    }
                ],
                "storageVariables": []
            },
            {
                "address": "0x8a91c9a16cd62693649d80afa85a09dbbdcb8508",
                "erc": "",
                "slots": [
                    {
                        "current": "0x000000000000000000000000000000000000000000000000000000005f8df069",
                        "key": "0x79b3bb8ba45b09c7984e2bf74759b65debb8d929224bba36267fda467bef0475",
                        "prev": "0x0000000000000000000000000000000000000000000000000000000000000000"
                    },
                    {
                        "current": "0x0000000000000000000000000000000000000000000000000000000000057fd6",
                        "key": "0xbbc70db1b6c7afd11e79c0fb0051300458f1a3acb8ee9789d9b6b26c61ad9bc7",
                        "prev": "0x0000000000000000000000000000000000000000000000000000000000057fd5"
                    },
                    {
                        "current": "0x000000000000000000000000000000000000000000000001e5b8fa8fe2ac0000",
                        "key": "0x8cbdc925c7b3b5d470be4b517c186781cbbb97a02a1802902a633f01a67104fc",
                        "prev": "0x000000000000000000000000000000000000000000000001158e460913d00000"
                    },
                    {
                        "current": "0x00000000000000000000000000000000000000000000000821ab0d4414980000",
                        "key": "0x79b3bb8ba45b09c7984e2bf74759b65debb8d929224bba36267fda467bef0473",
                        "prev": "0x0000000000000000000000000000000000000000000000000000000000000000"
                    },
                    {
                        "current": "0x00000000000000000000000000000000000000000000000000000004c67d5571",
                        "key": "0xed65b032d5a5fa3a5b6544566ee46a0f6b8fe8b1375ec878dc3be6580b0d046a",
                        "prev": "0x0000000000000000000000000000000000000000000000000000000000000000"
                    }
                ],
                "storageVariables": []
            },
            {
                "address": "0x8e870d67f660d95d5be530380d0ec0bd388289e1",
                "erc": "ERC-20",
                "slots": [
                    {
                        "current": "0x0000000000000000000000000000000000000000000000000000000000000000",
                        "key": "0xe68dac2527e28cd04cc9eae69527b7bab11bfd5ab4035adababc74abec0e1ec3",
                        "prev": "0x00000000000000000000000000000000000000000000000821ab0d4414980000"
                    },
                    {
                        "current": "0x000000000000000000000000000000000000000000052e1211892de3038793e0",
                        "key": "0xc41369a8315e4f894b3fc477f2c97907ac449c5925ec3e23848005e7123f385a",
                        "prev": "0x000000000000000000000000000000000000000000052e09efde209eeeef93e0"
                    },
                    {
                        "current": "0xfffffffffffffffffffffffffffffffffffffffffffffff7de54f2bbeb67ffff",
                        "key": "0x5d239dd0e6805f027f6cbee9c50246d98a3406758ae20d7dd028b794c5c8b213",
                        "prev": "0xffffffffffffffffffffffffffffffffffffffffffffffffffffffffffffffff"
                    }
                ],
                "storageVariables": [
                    {
                        "name": "balances",
                        "type": "mapping(address => uint256)",
                        "value": {
                            "pairs": [
                                {
                                    "key": "0x0b6265d1340802776d9fff81cab743337735293d",
                                    "value": {
                                        "current": "0",
                                        "prev": "150000000000000000000",
                                        "typeTag": 1
                                    }
                                },
                                {
                                    "key": "0x8a91c9a16cd62693649d80afa85a09dbbdcb8508",
                                    "value": {
                                        "current": "6262191261270099819467744",
                                        "prev": "6262041261270099819467744",
                                        "typeTag": 1
                                    }
                                }
                            ],
                            "typeTag": 4
                        }
                    },
                    {
                        "name": "allowed",
                        "type": "mapping(address => mapping(address => uint256))",
                        "value": {
                            "pairs": [
                                {
                                    "key": "0x0b6265d1340802776d9fff81cab743337735293d",
                                    "value": {
                                        "pairs": [
                                            {
                                                "key": "0x8a91c9a16cd62693649d80afa85a09dbbdcb8508",
                                                "value": {
                                                    "current": "115792089237316195423570985008687907853269984665640564039307584007913129639935",
                                                    "prev": "115792089237316195423570985008687907853269984665640564039457584007913129639935",
                                                    "typeTag": 1
                                                }
                                            }
                                        ],
                                        "typeTag": 4
                                    }
                                }
                            ],
                            "typeTag": 4
                        }
                    }
                ]
            }
        ]
    }
}