{
    "balance_change": {
        "balanceChanges": [
            {
                "account": "0xa7f3659c53820346176f7e0e350780df304db179",
                "assets": [
                    {
                        "address": "0xeeeeeeeeeeeeeeeeeeeeeeeeeeeeeeeeeeeeeeee",
                        "amount": "0.01",
                        "iconUrl": "https://assets.blocksec.com/image/1663669189317-3.png",
                        "isERC1155": false,
                        "isERC721": false,
                        "sign": true,
                        "value": ""
                    },
                    {
                        "address": "0xfac7bea255a6990f749363002136af6556b31e04",
                        "amount": "1",
                        "iconUrl": "",
                        "isERC1155": false,
                        "isERC721": true,
                        "sign": true,
                        "tokenID": "57042641168172413939120180650867505589473450652038397587497451913826193991118",
                        "value": ""
                    }
                ]
            },
            {
                "account": "0x0000000000000000000000000000000000000000",
                "assets": [
                    {
                        "address": "0xfac7bea255a6990f749363002136af6556b31e04",
                        "amount": "1",
                        "iconUrl": "",
                        "isERC1155": false,
                        "isERC721": true,
                        "sign": false,
                        "tokenID": "57042641168172413939120180650867505589473450652038397587497451913826193991118",
                        "value": ""
                    }
                ]
            },
            {
                "account": "0x47568526a9d8369c1b0ac14a3f189398d81f513c",
                "assets": [
                    {
                        "address": "0xeeeeeeeeeeeeeeeeeeeeeeeeeeeeeeeeeeeeeeee",
                        "amount": "0.01",
                        "iconUrl": "https://assets.blocksec.com/image/1663669189317-3.png",
                        "isERC1155": false,
                        "isERC721": false,
                        "sign": false,
                        "value": ""
                    }
                ]
            }
        ]
    },
    "profile": {
        "basic_info": {
            "baseFee": "",
            "blockNumber": 8254806,
            "callData": "0x5ddae2837e1cfda2b972b18d05ad90e6d76e6602c7c6148a387a7b5d5b720784966565ce",
            "debugEnable": true,
            "errorInfo": "",
            "eventCount": 5,
            "feeRecipient": "0xea674fdde714fd979de3edf0f56aa9716b898ec8",
            "formatValue": "0",
            "gasLimit": 256980,
            "gasPrice": "1.1",
            "gasUsed": 78490,
            "intTxnCount": 12,
            "internalRevert": false,
            "internalRevertMessage": "",
            "isContractCreation": false,
            "isFlashloan": false,
            "maxFee": "",
            "nonce": 87602,
            "overwritedBlockNumber": -1,
            "priorityFee": "",
            "receiver": "0x6090a6e47849629b7245dfa1ca21d94cd15878ef",
            "revertMessage": "",
            "sender": "0xa7f3659c53820346176f7e0e350780df304db179",
            "simulationEnable": true,
            "sourceTxnHash": "0x82a77190566fec2ec494910a3cfd881ed81890c0b38d049ab26b7376961bc350",
            "status": true,
            "timestamp": "2019-07-30T22:56:36Z",
            "transactionFee": "0.000086339",
            "txnHash": "0x82a77190566fec2ec494910a3cfd881ed81890c0b38d049ab26b7376961bc350",
            "txnIndex": 29,
            "type": 0,
            "value": "0"
        },
        "fund_flow": [
            {
                "amount": "0.01",
                "from": "0x47568526a9d8369c1b0ac14a3f189398d81f513c",
                "id": 1,
                "isERC1155": false,
                "isERC721": false,
                "isReverted": false,
                "order": 1,
                "to": "0xa7f3659c53820346176f7e0e350780df304db179",
                "token": "0xeeeeeeeeeeeeeeeeeeeeeeeeeeeeeeeeeeeeeeee"
            },
            {
                "amount": "1",
                "from": "0x0000000000000000000000000000000000000000",
                "id": 2,
                "isERC1155": false,
                "isERC721": true,
                "isReverted": false,
                "order": 2,
                "to": "0xa7f3659c53820346176f7e0e350780df304db179",
                "token": "0xfac7bea255a6990f749363002136af6556b31e04",
                "tokenID": "57042641168172413939120180650867505589473450652038397587497451913826193991118"
            }
        ],
        "token_infos": [
            {
                "address": "0xc02aaa39b223fe8d0a0e5c4f27ead9083c756cc2",
                "decimals": 18
            },
            {
                "address": "0xeeeeeeeeeeeeeeeeeeeeeeeeeeeeeeeeeeeeeeee",
                "decimals": 18
            }
        ]
    },
    "address_label": {
        "labels": [
            {
                "address": "0x314159265dd8dbb310642f98f50c066173c1259b",
                "label": "ENS: Eth Name Service"
            },
            {
                "address": "0x47568526a9d8369c1b0ac14a3f189398d81f513c",
                "label": "Deed"
            },
            {
                "address": "0x0000000000000000000000000000000000000004",
                "label": "Precompiled"
            },
            {
                "address": "0xfac7bea255a6990f749363002136af6556b31e04",
                "label": "ENS: Old ENS Token"
            },
            {
                "address": "0x6090a6e47849629b7245dfa1ca21d94cd15878ef",
                "label": "ENS: Old Registrar"
            },
            {
                "address": "0x0000000000000000000000000000000000000001",
                "label": "Precompiled"
            },
            {
                "address": "0x0000000000000000000000000000000000000002",
                "label": "Precompiled"
            },
            {
                "address": "0x0000000000000000000000000000000000000003",
                "label": "Precompiled"
            },
            {
                "address": "0xeeeeeeeeeeeeeeeeeeeeeeeeeeeeeeeeeeeeeeee",
                "label": "Ether"
            },
            {
                "address": "0x000000000000000000000000000000000000dead",
                "label": "Null: 0x00...dEaD"
            }
        ]
    },
    "trace": {
        "accountLabels": null,
        "dataMap": {
            "-1": {
                "invocation": {
                    "address": "0xa7f3659c53820346176f7e0e350780df304db179",
                    "callData": "",
                    "decodedMethod": null,
                    "errorInfo": "",
                    "fromAddress": "",
                    "gasUsed": 0,
                    "id": -1,
                    "methodDecoded": false,
                    "operation": "",
                    "output": "",
                    "revert": false,
                    "revertMessage": "",
                    "selector": "",
                    "status": false,
                    "value": ""
                },
                "nodeType": 0
            },
            "0": {
                "invocation": {
                    "address": "0x6090a6e47849629b7245dfa1ca21d94cd15878ef",
                    "callData": "0x7e1cfda2b972b18d05ad90e6d76e6602c7c6148a387a7b5d5b720784966565ce",
                    "decodedMethod": {
                        "callParams": [
                            {
                                "name": "_hash",
                                "type": "bytes32",
                                "value": "0x7e1cfda2b972b18d05ad90e6d76e6602c7c6148a387a7b5d5b720784966565ce"
                            }
                        ],
                        "constructorArguments": "",
                        "name": "transferRegistrars",
                        "returnParams": [],
                        "signature": "transferRegistrars(bytes32)"
                    },
                    "errorInfo": "",
                    "fromAddress": "0xa7f3659c53820346176f7e0e350780df304db179",
                    "gasUsed": 78490,
                    "id": 0,
                    "methodDecoded": true,
                    "operation": "CALL",
                    "output": "",
                    "revert": false,
                    "revertMessage": "",
                    "selector": "0x5ddae283",
                    "status": true,
                    "value": "0"
                },
                "nodeType": 0
            },
            "1": {
                "invocation": {
                    "address": "0x47568526a9d8369c1b0ac14a3f189398d81f513c",
                    "callData": "0x",
                    "decodedMethod": {
                        "callParams": [],
                        "constructorArguments": "",
                        "name": "owner",
                        "returnParams": [
                            {
                                "name": "",
                                "type": "address",
                                "value": "0xa7f3659c53820346176f7e0e350780df304db179"
                            }
                        ],
                        "signature": "owner()"
                    },
                    "errorInfo": "",
                    "fromAddress": "0x6090a6e47849629b7245dfa1ca21d94cd15878ef",
                    "gasUsed": 721,
                    "id": 1,
                    "methodDecoded": true,
                    "operation": "CALL",
                    "output": "0x000000000000000000000000a7f3659c53820346176f7e0e350780df304db179",
                    "revert": false,
                    "revertMessage": "",
                    "selector": "0x8da5cb5b",
                    "status": true,
                    "value": "0"
                },
                "nodeType": 0
            },
            "10": {
                "event": {
                    "contract": "0x47568526a9d8369c1b0ac14a3f189398d81f513c",
                    "decodedLog": {
                        "name": "DeedClosed",
                        "params": [],
                        "signature": "DeedClosed()"
                    },
                    "id": 10,
                    "logData": "0x",
                    "logDecoded": true,
                    "operation": "EVENT",
                    "revert": false,
                    "status": true,
                    "topics": [
                        "0xbb2ce2f51803bba16bc85282b47deeea9a5c6223eabea1077be696b3f265cf13"
                    ]
                },
                "nodeType": 1
            },
            "11": {
                "invocation": {
                    "address": "0xa7f3659c53820346176f7e0e350780df304db179",
                    "callData": "0x",
                    "decodedMethod": null,
                    "errorInfo": "",
                    "fromAddress": "0x47568526a9d8369c1b0ac14a3f189398d81f513c",
                    "gasUsed": 0,
                    "id": 11,
                    "methodDecoded": false,
                    "operation": "CALL",
                    "output": "",
                    "revert": false,
                    "revertMessage": "",
                    "selector": "fallback",
                    "status": true,
                    "value": "0.01"
                },
                "nodeType": 0
            },
            "12": {
                "invocation": {
                    "address": "0x000000000000000000000000000000000000dead",
                    "callData": "",
                    "decodedMethod": null,
                    "errorInfo": "",
                    "fromAddress": "0x47568526a9d8369c1b0ac14a3f189398d81f513c",
                    "gasUsed": 0,
                    "id": 12,
                    "methodDecoded": false,
                    "operation": "SELFDESTRUCT",
                    "output": "",
                    "revert": false,
                    "revertMessage": "",
                    "selector": "",
                    "status": true,
                    "value": "0"
                },
                "nodeType": 0
            },
            "13": {
                "event": {
                    "contract": "0xfac7bea255a6990f749363002136af6556b31e04",
                    "decodedLog": {
                        "name": "Transfer",
                        "params": [
                            {
                                "name": "from",
                                "type": "address",
                                "value": "0x0000000000000000000000000000000000000000"
                            },
                            {
                                "name": "to",
                                "type": "address",
                                "value": "0xa7f3659c53820346176f7e0e350780df304db179"
                            },
                            {
                                "decimalAvailable": true,
                                "name": "tokenId",
                                "type": "uint256",
                                "value": "57,042,641,168,172,413,939,120,180,650,867,505,589,473,450,652,038,397,587,497,451,913,826,193,991,118"
                            }
                        ],
                        "signature": "Transfer(address,address,uint256)"
                    },
                    "id": 13,
                    "logData": "0x",
                    "logDecoded": true,
                    "operation": "EVENT",
                    "revert": false,
                    "status": true,
                    "topics": [
                        "0xddf252ad1be2c89b69c2b068fc378daa952ba7f163c4a11628f55a4df523b3ef",
                        "0x0000000000000000000000000000000000000000000000000000000000000000",
                        "0x000000000000000000000000a7f3659c53820346176f7e0e350780df304db179",
                        "0x7e1cfda2b972b18d05ad90e6d76e6602c7c6148a387a7b5d5b720784966565ce"
                    ]
                },
                "nodeType": 1
            },
            "14": {
                "invocation": {
                    "address": "0x314159265dd8dbb310642f98f50c066173c1259b",
                    "callData": "0x93cdeb708b7545dc668eb9280176169d1c33cfd8ed6f04690a0bcc88a93fc4ae7e1cfda2b972b18d05ad90e6d76e6602c7c6148a387a7b5d5b720784966565ce000000000000000000000000a7f3659c53820346176f7e0e350780df304db179",
                    "decodedMethod": {
                        "callParams": [
                            {
                                "name": "node",
                                "type": "bytes32",
                                "value": "0x93cdeb708b7545dc668eb9280176169d1c33cfd8ed6f04690a0bcc88a93fc4ae"
                            },
                            {
                                "name": "label",
                                "type": "bytes32",
                                "value": "0x7e1cfda2b972b18d05ad90e6d76e6602c7c6148a387a7b5d5b720784966565ce"
                            },
                            {
                                "name": "owner",
                                "type": "address",
                                "value": "0xa7f3659c53820346176f7e0e350780df304db179"
                            }
                        ],
                        "constructorArguments": "",
                        "name": "setSubnodeOwner",
                        "returnParams": [],
                        "signature": "setSubnodeOwner(bytes32,bytes32,address)"
                    },
                    "errorInfo": "",
                    "fromAddress": "0xfac7bea255a6990f749363002136af6556b31e04",
                    "gasUsed": 7681,
                    "id": 14,
                    "methodDecoded": true,
                    "operation": "CALL",
                    "output": "",
                    "revert": false,
                    "revertMessage": "",
                    "selector": "0x06ab5923",
                    "status": true,
                    "value": "0"
                },
                "nodeType": 0
            },
            "15": {
                "event": {
                    "contract": "0x314159265dd8dbb310642f98f50c066173c1259b",
                    "decodedLog": {
                        "name": "NewOwner",
                        "params": [
                            {
                                "name": "node",
                                "type": "bytes32",
                                "value": "0x93cdeb708b7545dc668eb9280176169d1c33cfd8ed6f04690a0bcc88a93fc4ae"
                            },
                            {
                                "name": "label",
                                "type": "bytes32",
                                "value": "0x7e1cfda2b972b18d05ad90e6d76e6602c7c6148a387a7b5d5b720784966565ce"
                            },
                            {
                                "name": "owner",
                                "type": "address",
                                "value": "0xa7f3659c53820346176f7e0e350780df304db179"
                            }
                        ],
                        "signature": "NewOwner(bytes32,bytes32,address)"
                    },
                    "id": 15,
                    "logData": "0x000000000000000000000000a7f3659c53820346176f7e0e350780df304db179",
                    "logDecoded": true,
                    "operation": "EVENT",
                    "revert": false,
                    "status": true,
                    "topics": [
                        "0xce0457fe73731f824cc272376169235128c118b49d344817417c6d108d155e82",
                        "0x93cdeb708b7545dc668eb9280176169d1c33cfd8ed6f04690a0bcc88a93fc4ae",
                        "0x7e1cfda2b972b18d05ad90e6d76e6602c7c6148a387a7b5d5b720784966565ce"
                    ]
                },
                "nodeType": 1
            },
            "16": {
                "event": {
                    "contract": "0xfac7bea255a6990f749363002136af6556b31e04",
                    "decodedLog": {
                        "name": "NameMigrated",
                        "params": [
                            {
                                "name": "id",
                                "type": "uint256",
                                "value": "57,042,641,168,172,413,939,120,180,650,867,505,589,473,450,652,038,397,587,497,451,913,826,193,991,118"
                            },
                            {
                                "name": "owner",
                                "type": "address",
                                "value": "0xa7f3659c53820346176f7e0e350780df304db179"
                            },
                            {
                                "name": "expires",
                                "type": "uint256",
                                "value": "1,588,550,400"
                            }
                        ],
                        "signature": "NameMigrated(uint256,address,uint256)"
                    },
                    "id": 16,
                    "logData": "0x000000000000000000000000000000000000000000000000000000005eaf5b00",
                    "logDecoded": true,
                    "operation": "EVENT",
                    "revert": false,
                    "status": true,
                    "topics": [
                        "0xea3d7e1195a15d2ddcd859b01abd4c6b960fa9f9264e499a70a90c7f0c64b717",
                        "0x7e1cfda2b972b18d05ad90e6d76e6602c7c6148a387a7b5d5b720784966565ce",
                        "0x000000000000000000000000a7f3659c53820346176f7e0e350780df304db179"
                    ]
                },
                "nodeType": 1
            },
            "17": {
                "event": {
                    "contract": "0xfac7bea255a6990f749363002136af6556b31e04",
                    "decodedLog": {
                        "name": "NameRegistered",
                        "params": [
                            {
                                "name": "id",
                                "type": "uint256",
                                "value": "57,042,641,168,172,413,939,120,180,650,867,505,589,473,450,652,038,397,587,497,451,913,826,193,991,118"
                            },
                            {
                                "name": "owner",
                                "type": "address",
                                "value": "0xa7f3659c53820346176f7e0e350780df304db179"
                            },
                            {
                                "name": "expires",
                                "type": "uint256",
                                "value": "1,588,550,400"
                            }
                        ],
                        "signature": "NameRegistered(uint256,address,uint256)"
                    },
                    "id": 17,
                    "logData": "0x000000000000000000000000000000000000000000000000000000005eaf5b00",
                    "logDecoded": true,
                    "operation": "EVENT",
                    "revert": false,
                    "status": true,
                    "topics": [
                        "0xb3d987963d01b2f68493b4bdb130988f157ea43070d4ad840fee0466ed9370d9",
                        "0x7e1cfda2b972b18d05ad90e6d76e6602c7c6148a387a7b5d5b720784966565ce",
                        "0x000000000000000000000000a7f3659c53820346176f7e0e350780df304db179"
                    ]
                },
                "nodeType": 1
            },
            "2": {
                "invocation": {
                    "address": "0x314159265dd8dbb310642f98f50c066173c1259b",
                    "callData": "0x93cdeb708b7545dc668eb9280176169d1c33cfd8ed6f04690a0bcc88a93fc4ae",
                    "decodedMethod": {
                        "callParams": [
                            {
                                "name": "node",
                                "type": "bytes32",
                                "value": "0x93cdeb708b7545dc668eb9280176169d1c33cfd8ed6f04690a0bcc88a93fc4ae"
                            }
                        ],
                        "constructorArguments": "",
                        "name": "owner",
                        "returnParams": [
                            {
                                "name": "",
                                "type": "address",
                                "value": "0xfac7bea255a6990f749363002136af6556b31e04"
                            }
                        ],
                        "signature": "owner(bytes32)"
                    },
                    "errorInfo": "",
                    "fromAddress": "0x6090a6e47849629b7245dfa1ca21d94cd15878ef",
                    "gasUsed": 432,
                    "id": 2,
                    "methodDecoded": true,
                    "operation": "CALL",
                    "output": "0x000000000000000000000000fac7bea255a6990f749363002136af6556b31e04",
                    "revert": false,
                    "revertMessage": "",
                    "selector": "0x02571be3",
                    "status": true,
                    "value": "0"
                },
                "nodeType": 0
            },
            "3": {
                "invocation": {
                    "address": "0x47568526a9d8369c1b0ac14a3f189398d81f513c",
                    "callData": "0x000000000000000000000000fac7bea255a6990f749363002136af6556b31e04",
                    "decodedMethod": {
                        "callParams": [
                            {
                                "name": "newRegistrar",
                                "type": "address",
                                "value": "0xfac7bea255a6990f749363002136af6556b31e04"
                            }
                        ],
                        "constructorArguments": "",
                        "name": "setRegistrar",
                        "returnParams": [],
                        "signature": "setRegistrar(address)"
                    },
                    "errorInfo": "",
                    "fromAddress": "0x6090a6e47849629b7245dfa1ca21d94cd15878ef",
                    "gasUsed": 6076,
                    "id": 3,
                    "methodDecoded": true,
                    "operation": "CALL",
                    "output": "",
                    "revert": false,
                    "revertMessage": "",
                    "selector": "0xfaab9d39",
                    "status": true,
                    "value": "0"
                },
                "nodeType": 0
            },
            "4": {
                "invocation": {
                    "address": "0xfac7bea255a6990f749363002136af6556b31e04",
                    "callData": "0x7e1cfda2b972b18d05ad90e6d76e6602c7c6148a387a7b5d5b720784966565ce00000000000000000000000047568526a9d8369c1b0ac14a3f189398d81f513c000000000000000000000000000000000000000000000000000000005a4b8b6e",
                    "decodedMethod": {
                        "callParams": [
                            {
                                "name": "label",
                                "type": "bytes32",
                                "value": "0x7e1cfda2b972b18d05ad90e6d76e6602c7c6148a387a7b5d5b720784966565ce"
                            },
                            {
                                "name": "deed",
                                "type": "address",
                                "value": "0x47568526a9d8369c1b0ac14a3f189398d81f513c"
                            },
                            {
                                "name": "",
                                "type": "uint256",
                                "value": "1,514,900,334"
                            }
                        ],
                        "constructorArguments": "",
                        "name": "acceptRegistrarTransfer",
                        "returnParams": [],
                        "signature": "acceptRegistrarTransfer(bytes32,address,uint256)"
                    },
                    "errorInfo": "",
                    "fromAddress": "0x6090a6e47849629b7245dfa1ca21d94cd15878ef",
                    "gasUsed": 96082,
                    "id": 4,
                    "methodDecoded": true,
                    "operation": "CALL",
                    "output": "",
                    "revert": false,
                    "revertMessage": "",
                    "selector": "0xea9e107a",
                    "status": true,
                    "value": "0"
                },
                "nodeType": 0
            },
            "5": {
                "invocation": {
                    "address": "0x314159265dd8dbb310642f98f50c066173c1259b",
                    "callData": "0x93cdeb708b7545dc668eb9280176169d1c33cfd8ed6f04690a0bcc88a93fc4ae",
                    "decodedMethod": {
                        "callParams": [
                            {
                                "name": "node",
                                "type": "bytes32",
                                "value": "0x93cdeb708b7545dc668eb9280176169d1c33cfd8ed6f04690a0bcc88a93fc4ae"
                            }
                        ],
                        "constructorArguments": "",
                        "name": "owner",
                        "returnParams": [
                            {
                                "name": "",
                                "type": "address",
                                "value": "0xfac7bea255a6990f749363002136af6556b31e04"
                            }
                        ],
                        "signature": "owner(bytes32)"
                    },
                    "errorInfo": "",
                    "fromAddress": "0xfac7bea255a6990f749363002136af6556b31e04",
                    "gasUsed": 432,
                    "id": 5,
                    "methodDecoded": true,
                    "operation": "STATICCALL",
                    "output": "0x000000000000000000000000fac7bea255a6990f749363002136af6556b31e04",
                    "revert": false,
                    "revertMessage": "",
                    "selector": "0x02571be3",
                    "status": true,
                    "value": "0"
                },
                "nodeType": 0
            },
            "6": {
                "invocation": {
                    "address": "0x6090a6e47849629b7245dfa1ca21d94cd15878ef",
                    "callData": "0x7e1cfda2b972b18d05ad90e6d76e6602c7c6148a387a7b5d5b720784966565ce",
                    "decodedMethod": {
                        "callParams": [
                            {
                                "name": "_hash",
                                "type": "bytes32",
                                "value": "0x7e1cfda2b972b18d05ad90e6d76e6602c7c6148a387a7b5d5b720784966565ce"
                            }
                        ],
                        "constructorArguments": "",
                        "name": "entries",
                        "returnParams": [
                            {
                                "name": "",
                                "type": "uint8",
                                "value": "2"
                            },
                            {
                                "name": "",
                                "type": "address",
                                "value": "0x47568526a9d8369c1b0ac14a3f189398d81f513c"
                            },
                            {
                                "name": "",
                                "type": "uint256",
                                "value": "1,514,900,334"
                            },
                            {
                                "name": "",
                                "type": "uint256",
                                "value": "10,000,000,000,000,000"
                            },
                            {
                                "name": "",
                                "type": "uint256",
                                "value": "778,000,000,000,000,000"
                            }
                        ],
                        "signature": "entries(bytes32)"
                    },
                    "errorInfo": "",
                    "fromAddress": "0xfac7bea255a6990f749363002136af6556b31e04",
                    "gasUsed": 2520,
                    "id": 6,
                    "methodDecoded": true,
                    "operation": "STATICCALL",
                    "output": "0x000000000000000000000000000000000000000000000000000000000000000200000000000000000000000047568526a9d8369c1b0ac14a3f189398d81f513c000000000000000000000000000000000000000000000000000000005a4b8b6e000000000000000000000000000000000000000000000000002386f26fc100000000000000000000000000000000000000000000000000000acc02e0c3410000",
                    "revert": false,
                    "revertMessage": "",
                    "selector": "0x267b6922",
                    "status": true,
                    "value": "0"
                },
                "nodeType": 0
            },
            "7": {
                "invocation": {
                    "address": "0x47568526a9d8369c1b0ac14a3f189398d81f513c",
                    "callData": "0x",
                    "decodedMethod": {
                        "callParams": [],
                        "constructorArguments": "",
                        "name": "owner",
                        "returnParams": [
                            {
                                "name": "",
                                "type": "address",
                                "value": "0xa7f3659c53820346176f7e0e350780df304db179"
                            }
                        ],
                        "signature": "owner()"
                    },
                    "errorInfo": "",
                    "fromAddress": "0xfac7bea255a6990f749363002136af6556b31e04",
                    "gasUsed": 721,
                    "id": 7,
                    "methodDecoded": true,
                    "operation": "STATICCALL",
                    "output": "0x000000000000000000000000a7f3659c53820346176f7e0e350780df304db179",
                    "revert": false,
                    "revertMessage": "",
                    "selector": "0x8da5cb5b",
                    "status": true,
                    "value": "0"
                },
                "nodeType": 0
            },
            "8": {
                "invocation": {
                    "address": "0x47568526a9d8369c1b0ac14a3f189398d81f513c",
                    "callData": "0x00000000000000000000000000000000000000000000000000000000000003e8",
                    "decodedMethod": {
                        "callParams": [
                            {
                                "name": "refundRatio",
                                "type": "uint256",
                                "value": "1,000"
                            }
                        ],
                        "constructorArguments": "",
                        "name": "closeDeed",
                        "returnParams": [],
                        "signature": "closeDeed(uint256)"
                    },
                    "errorInfo": "",
                    "fromAddress": "0xfac7bea255a6990f749363002136af6556b31e04",
                    "gasUsed": 21582,
                    "id": 8,
                    "methodDecoded": true,
                    "operation": "CALL",
                    "output": "",
                    "revert": false,
                    "revertMessage": "",
                    "selector": "0xbbe42771",
                    "status": true,
                    "value": "0"
                },
                "nodeType": 0
            },
            "9": {
                "invocation": {
                    "address": "0x000000000000000000000000000000000000dead",
                    "callData": "0x",
                    "decodedMethod": null,
                    "errorInfo": "",
                    "fromAddress": "0x47568526a9d8369c1b0ac14a3f189398d81f513c",
                    "gasUsed": 0,
                    "id": 9,
                    "methodDecoded": false,
                    "operation": "CALL",
                    "output": "",
                    "revert": false,
                    "revertMessage": "",
                    "selector": "fallback",
                    "status": true,
                    "value": "0"
                },
                "nodeType": 0
            }
        },
        "gasFlame": [
            {
                "children": [
                    {
                        "children": [
                            {
                                "children": [],
                                "depth": 0,
                                "name": "Initial Gas",
                                "value": 23448
                            },
                            {
                                "children": [
                                    {
                                        "children": [],
                                        "depth": 1,
                                        "name": "owner",
                                        "value": 721
                                    },
                                    {
                                        "children": [],
                                        "depth": 1,
                                        "name": "owner",
                                        "value": 432
                                    },
                                    {
                                        "children": [],
                                        "depth": 1,
                                        "name": "setRegistrar",
                                        "value": 6076
                                    },
                                    {
                                        "children": [
                                            {
                                                "children": [],
                                                "depth": 2,
                                                "name": "owner",
                                                "value": 432
                                            },
                                            {
                                                "children": [],
                                                "depth": 2,
                                                "name": "entries",
                                                "value": 2520
                                            },
                                            {
                                                "children": [],
                                                "depth": 2,
                                                "name": "owner",
                                                "value": 721
                                            },
                                            {
                                                "children": [
                                                    {
                                                        "children": [],
                                                        "depth": 3,
                                                        "name": "fallback",
                                                        "value": 0
                                                    },
                                                    {
                                                        "children": [],
                                                        "depth": 3,
                                                        "name": "fallback",
                                                        "value": 0
                                                    },
                                                    {
                                                        "children": [],
                                                        "depth": 3,
                                                        "name": "",
                                                        "value": 0
                                                    }
                                                ],
                                                "depth": 2,
                                                "name": "closeDeed",
                                                "value": 21582
                                            },
                                            {
                                                "children": [],
                                                "depth": 2,
                                                "name": "setSubnodeOwner",
                                                "value": 7681
                                            }
                                        ],
                                        "depth": 1,
                                        "name": "acceptRegistrarTransfer",
                                        "value": 96082
                                    }
                                ],
                                "depth": 0,
                                "name": "Executed Gas",
                                "value": 133532
                            }
                        ],
                        "depth": -1,
                        "name": "Actual Gas Used",
                        "value": 78490
                    },
                    {
                        "children": [],
                        "depth": -1,
                        "name": "Refunded Gas",
                        "value": 78490
                    }
                ],
                "depth": -2,
                "name": "Total Gas",
                "value": 156980
            }
        ],
        "isConfirmed": true,
        "mainTrace": [
            {
                "children": [
                    {
                        "children": [
                            {
                                "children": [],
                                "depth": 1,
                                "id": 1,
                                "order": 1
                            },
                            {
                                "children": [],
                                "depth": 1,
                                "id": 2,
                                "order": 2
                            },
                            {
                                "children": [],
                                "depth": 1,
                                "id": 3,
                                "order": 3
                            },
                            {
                                "children": [
                                    {
                                        "children": [],
                                        "depth": 2,
                                        "id": 5,
                                        "order": 5
                                    },
                                    {
                                        "children": [],
                                        "depth": 2,
                                        "id": 6,
                                        "order": 6
                                    },
                                    {
                                        "children": [],
                                        "depth": 2,
                                        "id": 7,
                                        "order": 7
                                    },
                                    {
                                        "children": [
                                            {
                                                "children": [],
                                                "depth": 3,
                                                "id": 9,
                                                "order": 9
                                            },
                                            {
                                                "children": [],
                                                "depth": 3,
                                                "id": 10,
                                                "order": 10
                                            },
                                            {
                                                "children": [],
                                                "depth": 3,
                                                "id": 11,
                                                "order": 11
                                            },
                                            {
                                                "children": [],
                                                "depth": 3,
                                                "id": 12,
                                                "order": 12
                                            }
                                        ],
                                        "depth": 2,
                                        "id": 8,
                                        "order": 8
                                    },
                                    {
                                        "children": [],
                                        "depth": 2,
                                        "id": 13,
                                        "order": 13
                                    },
                                    {
                                        "children": [
                                            {
                                                "children": [],
                                                "depth": 3,
                                                "id": 15,
                                                "order": 15
                                            }
                                        ],
                                        "depth": 2,
                                        "id": 14,
                                        "order": 14
                                    },
                                    {
                                        "children": [],
                                        "depth": 2,
                                        "id": 16,
                                        "order": 16
                                    },
                                    {
                                        "children": [],
                                        "depth": 2,
                                        "id": 17,
                                        "order": 17
                                    }
                                ],
                                "depth": 1,
                                "id": 4,
                                "order": 4
                            }
                        ],
                        "depth": 0,
                        "id": 0,
                        "order": 0
                    }
                ],
                "depth": -1,
                "id": -1,
                "order": -1
            }
        ],
        "mainTraceNodeCount": 18,
        "parentIdMap": {
            "0": -1,
            "1": 0,
            "10": 8,
            "11": 8,
            "12": 8,
            "13": 4,
            "14": 4,
            "15": 14,
            "16": 4,
            "17": 4,
            "2": 0,
            "3": 0,
            "4": 0,
            "5": 4,
            "6": 4,
            "7": 4,
            "8": 4,
            "9": 8
        },
        "tidyTrace": [
            {
                "children": [
                    {
                        "children": [
                            {
                                "children": [],
                                "depth": 1,
                                "id": 1,
                                "order": 1
                            },
                            {
                                "children": [],
                                "depth": 1,
                                "id": 2,
                                "order": 2
                            },
                            {
                                "children": [],
                                "depth": 1,
                                "id": 3,
                                "order": 3
                            },
                            {
                                "children": [
                                    {
                                        "children": [
                                            {
                                                "children": [],
                                                "depth": 3,
                                                "id": 9,
                                                "order": 9
                                            },
                                            {
                                                "children": [],
                                                "depth": 3,
                                                "id": 10,
                                                "order": 10
                                            },
                                            {
                                                "children": [],
                                                "depth": 3,
                                                "id": 11,
                                                "order": 11
                                            },
                                            {
                                                "children": [],
                                                "depth": 3,
                                                "id": 12,
                                                "order": 12
                                            }
                                        ],
                                        "depth": 2,
                                        "id": 8,
                                        "order": 8
                                    },
                                    {
                                        "children": [],
                                        "depth": 2,
                                        "id": 13,
                                        "order": 13
                                    },
                                    {
                                        "children": [
                                            {
                                                "children": [],
                                                "depth": 3,
                                                "id": 15,
                                                "order": 15
                                            }
                                        ],
                                        "depth": 2,
                                        "id": 14,
                                        "order": 14
                                    },
                                    {
                                        "children": [],
                                        "depth": 2,
                                        "id": 16,
                                        "order": 16
                                    },
                                    {
                                        "children": [],
                                        "depth": 2,
                                        "id": 17,
                                        "order": 17
                                    }
                                ],
                                "depth": 1,
                                "id": 4,
                                "order": 4
                            }
                        ],
                        "depth": 0,
                        "id": 0,
                        "order": 0
                    }
                ],
                "depth": -1,
                "id": -1,
                "order": -1
            }
        ],
        "tidyTraceNodeCount": 15
    },
    "state_change": {
        "stateChanges": [
            {
                "address": "0x47568526a9d8369c1b0ac14a3f189398d81f513c",
                "erc": "",
                "slots": [
                    {
                        "current": "0x000000000000000000000000fac7bea255a6990f749363002136af6556b31e04",
                        "key": "0x0000000000000000000000000000000000000000000000000000000000000000",
                        "prev": "0x0000000000000000000000006090a6e47849629b7245dfa1ca21d94cd15878ef"
                    },
                    {
                        "current": "0x0000000000000000000000000000000000000000000000000000000000000000",
                        "key": "0x0000000000000000000000000000000000000000000000000000000000000005",
                        "prev": "0x0000000000000000000000000000000000000000000000000000000000000001"
                    }
                ],
                "storageVariables": []
            },
            {
                "address": "0x6090a6e47849629b7245dfa1ca21d94cd15878ef",
                "erc": "",
                "slots": [
                    {
                        "current": "0x0000000000000000000000000000000000000000000000000000000000000000",
                        "key": "0x98994af09204bbfcf043c69e6396b29b99f628cc61c5d9268aae6dd6c11574f9",
                        "prev": "0x00000000000000000000000047568526a9d8369c1b0ac14a3f189398d81f513c"
                    },
                    {
                        "current": "0x0000000000000000000000000000000000000000000000000000000000000000",
                        "key": "0x98994af09204bbfcf043c69e6396b29b99f628cc61c5d9268aae6dd6c11574fa",
                        "prev": "0x000000000000000000000000000000000000000000000000000000005a4b8b6e"
                    },
                    {
                        "current": "0x0000000000000000000000000000000000000000000000000000000000000000",
                        "key": "0x98994af09204bbfcf043c69e6396b29b99f628cc61c5d9268aae6dd6c11574fb",
                        "prev": "0x000000000000000000000000000000000000000000000000002386f26fc10000"
                    },
                    {
                        "current": "0x0000000000000000000000000000000000000000000000000000000000000000",
                        "key": "0x98994af09204bbfcf043c69e6396b29b99f628cc61c5d9268aae6dd6c11574fc",
                        "prev": "0x0000000000000000000000000000000000000000000000000acc02e0c3410000"
                    }
                ],
                "storageVariables": []
            },
            {
                "address": "0xfac7bea255a6990f749363002136af6556b31e04",
                "erc": "ERC-721",
                "slots": [
                    {
                        "current": "0x000000000000000000000000a7f3659c53820346176f7e0e350780df304db179",
                        "key": "0x5dc0d34500b318bdfb2b1b931c08716dd8ba2f0069a125699e8588abb7a8f45b",
                        "prev": "0x0000000000000000000000000000000000000000000000000000000000000000"
                    },
                    {
                        "current": "0x0000000000000000000000000000000000000000000000000000000000001be8",
                        "key": "0xead7429158f62f3aac50ca0caf228120699aa0fff9e8fa6ff5e4f41df64c08cd",
                        "prev": "0x0000000000000000000000000000000000000000000000000000000000001be7"
                    },
                    {
                        "current": "0x000000000000000000000000000000000000000000000000000000005eaf5b00",
                        "key": "0x5949b08d76276407bd23bbf79ca0b099c7b11064694d592f6e1e9a23af0f594e",
                        "prev": "0x0000000000000000000000000000000000000000000000000000000000000000"
                    }
                ],
                "storageVariables": [
                    {
                        "name": "_tokenOwner",
                        "type": "mapping(uint256 => address)",
                        "value": {
                            "pairs": [
                                {
                                    "key": "57042641168172413939120180650867505589473450652038397587497451913826193991118",
                                    "value": {
                                        "current": "0xa7f3659c53820346176f7e0e350780df304db179",
                                        "prev": "0x0000000000000000000000000000000000000000",
                                        "typeTag": 1
                                    }
                                }
                            ],
                            "typeTag": 4
                        }
                    },
                    {
                        "name": "_ownedTokensCount",
                        "type": "mapping(address => uint256)",
                        "value": {
                            "pairs": [
                                {
                                    "key": "0xa7f3659c53820346176f7e0e350780df304db179",
                                    "value": {
                                        "current": "7144",
                                        "prev": "7143",
                                        "typeTag": 1
                                    }
                                }
                            ],
                            "typeTag": 4
                        }
                    },
                    {
                        "name": "expiries",
                        "type": "mapping(uint256 => uint256)",
                        "value": {
                            "pairs": [
                                {
                                    "key": "57042641168172413939120180650867505589473450652038397587497451913826193991118",
                                    "value": {
                                        "current": "1588550400",
                                        "prev": "0",
                                        "typeTag": 1
                                    }
                                }
                            ],
                            "typeTag": 4
                        }
                    }
                ]
            }
        ]
    }
}