{
    "balance_change": {
        "balanceChanges": [
            {
                "account": "0xaec8350688f3b255e50e8aa44d71107a0de487fe",
                "assets": [
                    {
                        "address": "0xaa7a9ca87d3694b5755f213b5d04094b8d0f0a6f",
                        "amount": "42,005",
                        "iconUrl": "https://assets.blocksec.com/icon/6015c1cdde7df0820da97162ea028774e3f8e86f578d7ecc4b580621eafcbce7.png",
                        "isERC1155": false,
                        "isERC721": false,
                        "sign": false,
                        "value": ""
                    }
                ]
            },
            {
                "account": "0x2a0c0dbecc7e4d658f48e01e3fa353f44050c208",
                "assets": [
                    {
                        "address": "0xaa7a9ca87d3694b5755f213b5d04094b8d0f0a6f",
                        "amount": "42,005",
                        "iconUrl": "https://assets.blocksec.com/icon/6015c1cdde7df0820da97162ea028774e3f8e86f578d7ecc4b580621eafcbce7.png",
                        "isERC1155": false,
                        "isERC721": false,
                        "sign": true,
                        "value": ""
                    }
                ]
            }
        ]
    },
    "profile": {
        "basic_info": {
            "baseFee": "",
            "blockNumber": 5264857,
            "callData": "0x338b5dea000000000000000000000000aa7a9ca87d3694b5755f213b5d04094b8d0f0a6f0000000000000000000000000000000000000000000008e5187a13f8cb340000",
            "debugEnable": true,
            "errorInfo": "",
            "eventCount": 2,
            "feeRecipient": "0x829bd824b016326a401d083b33d092293333a830",
            "formatValue": "0",
            "gasLimit": 250000,
            "gasPrice": "65",
            "gasUsed": 43862,
            "intTxnCount": 1,
            "internalRevert": false,
            "internalRevertMessage": "",
            "isContractCreation": false,
            "isFlashloan": false,
            "maxFee": "",
            "nonce": 589,
            "overwritedBlockNumber": -1,
            "priorityFee": "",
            "receiver": "0x2a0c0dbecc7e4d658f48e01e3fa353f44050c208",
            "revertMessage": "",
            "sender": "0xaec8350688f3b255e50e8aa44d71107a0de487fe",
            "simulationEnable": true,
            "sourceTxnHash": "0x833e47635b06aff43d43e494fd2d7197000265a910b28ea556f65d489445d631",
            "status": true,
            "timestamp": "2018-03-16T09:44:53Z",
            "transactionFee": "0.00285103",
            "txnHash": "0x833e47635b06aff43d43e494fd2d7197000265a910b28ea556f65d489445d631",
            "txnIndex": 1,
            "type": 0,
            "value": "0"
        },
        "fund_flow": [
            {
                "amount": "42,005",
                "from": "0xaec8350688f3b255e50e8aa44d71107a0de487fe",
                "id": 1,
                "isERC1155": false,
                "isERC721": false,
                "isReverted": false,
                "order": 1,
                "to": "0x2a0c0dbecc7e4d658f48e01e3fa353f44050c208",
                "token": "0xaa7a9ca87d3694b5755f213b5d04094b8d0f0a6f"
            }
        ],
        "token_infos": [
            {
                "address": "0xaa7a9ca87d3694b5755f213b5d04094b8d0f0a6f",
                "decimals": 18
            },
            {
                "address": "0xc02aaa39b223fe8d0a0e5c4f27ead9083c756cc2",
                "decimals": 18
            },
            {
                "address": "0xeeeeeeeeeeeeeeeeeeeeeeeeeeeeeeeeeeeeeeee",
                "decimals": 18
            }
        ]
    },
    "address_label": {
        "labels": [
            {
                "address": "0xeeeeeeeeeeeeeeeeeeeeeeeeeeeeeeeeeeeeeeee",
                "label": "Ether"
            },
            {
                "address": "0xaa7a9ca87d3694b5755f213b5d04094b8d0f0a6f",
                "label": "Origin Trail: TRAC Token"
            },
            {
                "address": "0x2a0c0dbecc7e4d658f48e01e3fa353f44050c208",
                "label": "IDEX"
            },
            {
                "address": "0x0000000000000000000000000000000000000001",
                "label": "Precompiled"
            },
            {
                "address": "0x0000000000000000000000000000000000000002",
                "label": "Precompiled"
            },
            {
                "address": "0x0000000000000000000000000000000000000003",
                "label": "Precompiled"
            },
            {
                "address": "0x0000000000000000000000000000000000000004",
                "label": "Precompiled"
            }
        ]
    },
    "trace": {
        "accountLabels": null,
        "dataMap": {
            "-1": {
                "invocation": {
                    "address": "0xaec8350688f3b255e50e8aa44d71107a0de487fe",
                    "callData": "",
                    "decodedMethod": null,
                    "errorInfo": "",
                    "fromAddress": "",
                    "gasUsed": 0,
                    "id": -1,
                    "methodDecoded": false,
                    "operation": "",
                    "output": "",
                    "revert": false,
                    "revertMessage": "",
                    "selector": "",
                    "status": false,
                    "value": ""
                },
                "nodeType": 0
            },
            "0": {
                "invocation": {
                    "address": "0x2a0c0dbecc7e4d658f48e01e3fa353f44050c208",
                    "callData": "0x000000000000000000000000aa7a9ca87d3694b5755f213b5d04094b8d0f0a6f0000000000000000000000000000000000000000000008e5187a13f8cb340000",
                    "decodedMethod": {
                        "callParams": [
                            {
                                "name": "token",
                                "type": "address",
                                "value": "0xaa7a9ca87d3694b5755f213b5d04094b8d0f0a6f"
                            },
                            {
                                "name": "amount",
                                "type": "uint256",
                                "value": "42,005,000,000,000,000,000,000"
                            }
                        ],
                        "constructorArguments": "",
                        "name": "depositToken",
                        "returnParams": [],
                        "signature": "depositToken(address,uint256)"
                    },
                    "errorInfo": "",
                    "fromAddress": "0xaec8350688f3b255e50e8aa44d71107a0de487fe",
                    "gasUsed": 43862,
                    "id": 0,
                    "methodDecoded": true,
                    "operation": "CALL",
                    "output": "",
                    "revert": false,
                    "revertMessage": "",
                    "selector": "0x338b5dea",
                    "status": true,
                    "value": "0"
                },
                "nodeType": 0
            },
            "1": {
                "invocation": {
                    "address": "0xaa7a9ca87d3694b5755f213b5d04094b8d0f0a6f",
                    "callData": "0x000000000000000000000000aec8350688f3b255e50e8aa44d71107a0de487fe0000000000000000000000002a0c0dbecc7e4d658f48e01e3fa353f44050c2080000000000000000000000000000000000000000000008e5187a13f8cb340000",
                    "decodedMethod": {
                        "callParams": [
                            {
                                "name": "from",
                                "type": "address",
                                "value": "0xaec8350688f3b255e50e8aa44d71107a0de487fe"
                            },
                            {
                                "name": "to",
                                "type": "address",
                                "value": "0x2a0c0dbecc7e4d658f48e01e3fa353f44050c208"
                            },
                            {
                                "decimalAvailable": true,
                                "name": "value",
                                "type": "uint256",
                                "value": "42,005,000,000,000,000,000,000"
                            }
                        ],
                        "constructorArguments": "",
                        "name": "transferFrom",
                        "returnParams": [
                            {
                                "name": "",
                                "type": "bool",
                                "value": true
                            }
                        ],
                        "signature": "transferFrom(address,address,uint256)"
                    },
                    "errorInfo": "",
                    "fromAddress": "0x2a0c0dbecc7e4d658f48e01e3fa353f44050c208",
                    "gasUsed": 20063,
                    "id": 1,
                    "methodDecoded": true,
                    "operation": "CALL",
                    "output": "0x0000000000000000000000000000000000000000000000000000000000000001",
                    "revert": false,
                    "revertMessage": "",
                    "selector": "0x23b872dd",
                    "status": true,
                    "value": "0"
                },
                "nodeType": 0
            },
            "2": {
                "event": {
                    "contract": "0xaa7a9ca87d3694b5755f213b5d04094b8d0f0a6f",
                    "decodedLog": {
                        "name": "Transfer",
                        "params": [
                            {
                                "name": "from",
                                "type": "address",
                                "value": "0xaec8350688f3b255e50e8aa44d71107a0de487fe"
                            },
                            {
                                "name": "to",
                                "type": "address",
                                "value": "0x2a0c0dbecc7e4d658f48e01e3fa353f44050c208"
                            },
                            {
                                "decimalAvailable": true,
                                "name": "value",
                                "type": "uint256",
                                "value": "42,005,000,000,000,000,000,000"
                            }
                        ],
                        "signature": "Transfer(address,address,uint256)"
                    },
                    "id": 2,
                    "logData": "0x0000000000000000000000000000000000000000000008e5187a13f8cb340000",
                    "logDecoded": true,
                    "operation": "EVENT",
                    "revert": false,
                    "status": true,
                    "topics": [
                        "0xddf252ad1be2c89b69c2b068fc378daa952ba7f163c4a11628f55a4df523b3ef",
                        "0x000000000000000000000000aec8350688f3b255e50e8aa44d71107a0de487fe",
                        "0x0000000000000000000000002a0c0dbecc7e4d658f48e01e3fa353f44050c208"
                    ]
                },
                "nodeType": 1
            },
            "3": {
                "event": {
                    "contract": "0x2a0c0dbecc7e4d658f48e01e3fa353f44050c208",
                    "decodedLog": {
                        "name": "Deposit",
                        "params": [
                            {
                                "name": "token",
                                "type": "address",
                                "value": "0xaa7a9ca87d3694b5755f213b5d04094b8d0f0a6f"
                            },
                            {
                                "name": "user",
                                "type": "address",
                                "value": "0xaec8350688f3b255e50e8aa44d71107a0de487fe"
                            },
                            {
                                "name": "amount",
                                "type": "uint256",
                                "value": "42,005,000,000,000,000,000,000"
                            },
                            {
                                "name": "balance",
                                "type": "uint256",
                                "value": "42,005,000,000,000,000,000,000"
                            }
                        ],
                        "signature": "Deposit(address,address,uint256,uint256)"
                    },
                    "id": 3,
                    "logData": "0x000000000000000000000000aa7a9ca87d3694b5755f213b5d04094b8d0f0a6f000000000000000000000000aec8350688f3b255e50e8aa44d71107a0de487fe0000000000000000000000000000000000000000000008e5187a13f8cb3400000000000000000000000000000000000000000000000008e5187a13f8cb340000",
                    "logDecoded": true,
                    "operation": "EVENT",
                    "revert": false,
                    "status": true,
                    "topics": [
                        "0xdcbc1c05240f31ff3ad067ef1ee35ce4997762752e3a095284754544f4c709d7"
                    ]
                },
                "nodeType": 1
            }
        },
        "gasFlame": [
            {
                "children": [
                    {
                        "children": [
                            {
                                "children": [],
                                "depth": 0,
                                "name": "Initial Gas",
                                "value": 23320
                            },
                            {
                                "children": [
                                    {
                                        "children": [],
                                        "depth": 1,
                                        "name": "transferFrom",
                                        "value": 20063
                                    }
                                ],
                                "depth": 0,
                                "name": "Executed Gas",
                                "value": 50542
                            }
                        ],
                        "depth": -1,
                        "name": "Actual Gas Used",
                        "value": 43862
                    },
                    {
                        "children": [],
                        "depth": -1,
                        "name": "Refunded Gas",
                        "value": 30000
                    }
                ],
                "depth": -2,
                "name": "Total Gas",
                "value": 73862
            }
        ],
        "isConfirmed": true,
        "mainTrace": [
            {
                "children": [
                    {
                        "children": [
                            {
                                "children": [
                                    {
                                        "children": [],
                                        "depth": 2,
                                        "id": 2,
                                        "order": 2
                                    }
                                ],
                                "depth": 1,
                                "id": 1,
                                "order": 1
                            },
                            {
                                "children": [],
                                "depth": 1,
                                "id": 3,
                                "order": 3
                            }
                        ],
                        "depth": 0,
                        "id": 0,
                        "order": 0
                    }
                ],
                "depth": -1,
                "id": -1,
                "order": -1
            }
        ],
        "mainTraceNodeCount": 4,
        "parentIdMap": {
            "0": -1,
            "1": 0,
            "2": 1,
            "3": 0
        },
        "tidyTrace": [
            {
                "children": [
                    {
                        "children": [
                            {
                                "children": [
                                    {
                                        "children": [],
                                        "depth": 2,
                                        "id": 2,
                                        "order": 2
                                    }
                                ],
                                "depth": 1,
                                "id": 1,
                                "order": 1
                            },
                            {
                                "children": [],
                                "depth": 1,
                                "id": 3,
                                "order": 3
                            }
                        ],
                        "depth": 0,
                        "id": 0,
                        "order": 0
                    }
                ],
                "depth": -1,
                "id": -1,
                "order": -1
            }
        ],
        "tidyTraceNodeCount": 4
    },
    "state_change": {
        "stateChanges": [
            {
                "address": "0x2a0c0dbecc7e4d658f48e01e3fa353f44050c208",
                "erc": "",
                "slots": [
                    {
                        "current": "0x00000000000000000000000000000000000000000000000000000000005055d9",
                        "key": "0x89e84c64d05627cee07d1dada8092a294ec1221485b837a67e270fdbe11ff151",
                        "prev": "0x000000000000000000000000000000000000000000000000000000000050493a"
                    },
                    {
                        "current": "0x0000000000000000000000000000000000000000000008e5187a13f8cb340000",
                        "key": "0x4a5da3414ca188ead12416a5c573d680d95db09a7d6d6db1c5bd4b0187f40384",
                        "prev": "0x0000000000000000000000000000000000000000000000000000000000000000"
                    }
                ],
                "storageVariables": [
                    {
                        "name": "lastActiveTransaction",
                        "type": "mapping(address => uint256)",
                        "value": {
                            "pairs": [
                                {
                                    "key": "0xaec8350688f3b255e50e8aa44d71107a0de487fe",
                                    "value": {
                                        "current": "5264857",
                                        "prev": "5261626",
                                        "typeTag": 1
                                    }
                                }
                            ],
                            "typeTag": 4
                        }
                    },
                    {
                        "name": "tokens",
                        "type": "mapping(address => mapping(address => uint256))",
                        "value": {
                            "pairs": [
                                {
                                    "key": "0xaa7a9ca87d3694b5755f213b5d04094b8d0f0a6f",
                                    "value": {
                                        "pairs": [
                                            {
                                                "key": "0xaec8350688f3b255e50e8aa44d71107a0de487fe",
                                                "value": {
                                                    "current": "42005000000000000000000",
                                                    "prev": "0",
                                                    "typeTag": 1
                                                }
                                            }
                                        ],
                                        "typeTag": 4
                                    }
                                }
                            ],
                            "typeTag": 4
                        }
                    }
                ]
            },
            {
                "address": "0xaa7a9ca87d3694b5755f213b5d04094b8d0f0a6f",
                "erc": "ERC-20",
                "slots": [
                    {
                        "current": "0x0000000000000000000000000000000000000000000000000000000000000000",
                        "key": "0x041b7b33c53b9355c0a3c4380fca21ed6a1827ac4bbd535d3ef6de14ad4a0055",
                        "prev": "0x0000000000000000000000000000000000000000000008e5187a13f8cb340000"
                    },
                    {
                        "current": "0x0000000000000000000000000000000000000000000000000000000000000000",
                        "key": "0x0af0ce6cb918ab54da4ce8d30329e3dd311ee3864f3c0759e835c06482706e8b",
                        "prev": "0x0000000000000000000000000000000000000000000008e5187a13f8cb340000"
                    },
                    {
                        "current": "0x00000000000000000000000000000000000000000016e47f52e036fe9003bccc",
                        "key": "0xae5c77fc71ff9f10d2a02bd39370b8fa105d9645d506b0e66b3c7b9ff9f1eab1",
                        "prev": "0x00000000000000000000000000000000000000000016db9a3a662305c4cfbccc"
                    }
                ],
                "storageVariables": [
                    {
                        "name": "allowed",
                        "type": "mapping(address => mapping(address => uint256))",
                        "value": {
                            "pairs": [
                                {
                                    "key": "0xaec8350688f3b255e50e8aa44d71107a0de487fe",
                                    "value": {
                                        "pairs": [
                                            {
                                                "key": "0x2a0c0dbecc7e4d658f48e01e3fa353f44050c208",
                                                "value": {
                                                    "current": "0",
                                                    "prev": "42005000000000000000000",
                                                    "typeTag": 1
                                                }
                                            }
                                        ],
                                        "typeTag": 4
                                    }
                                }
                            ],
                            "typeTag": 4
                        }
                    },
                    {
                        "name": "balances",
                        "type": "mapping(address => uint256)",
                        "value": {
                            "pairs": [
                                {
                                    "key": "0x2a0c0dbecc7e4d658f48e01e3fa353f44050c208",
                                    "value": {
                                        "current": "27675416297947054924348620",
                                        "prev": "27633411297947054924348620",
                                        "typeTag": 1
                                    }
                                },
                                {
                                    "key": "0xaec8350688f3b255e50e8aa44d71107a0de487fe",
                                    "value": {
                                        "current": "0",
                                        "prev": "42005000000000000000000",
                                        "typeTag": 1
                                    }
                                }
                            ],
                            "typeTag": 4
                        }
                    }
                ]
            }
        ]
    }
}