{
    "balance_change": {
        "balanceChanges": [
            {
                "account": "0xb870ede469900cbf9aa7860ec575de2a099dfa79",
                "assets": [
                    {
                        "address": "0xeeeeeeeeeeeeeeeeeeeeeeeeeeeeeeeeeeeeeeee",
                        "amount": "0.004833423909026773",
                        "iconUrl": "https://assets.blocksec.com/image/1663669189317-3.png",
                        "isERC1155": false,
                        "isERC721": false,
                        "sign": false,
                        "value": "15.00996575"
                    },
                    {
                        "address": "0x57f1887a8bf19b14fc0df6fd9b2acc9af147ea85",
                        "amount": "1",
                        "iconUrl": "https://assets.blocksec.com/nft/icon/nft_be0542b7-4f14-457c-a46f-8a69d57f084c.png",
                        "isERC1155": false,
                        "isERC721": true,
                        "sign": true,
                        "tokenID": "52557245745318141191795037068767595967670973579750272825507439688691713730829",
                        "value": ""
                    }
                ]
            },
            {
                "account": "0x283af0b28c62c092c9727f1ee09c02ca627eb7f5",
                "assets": [
                    {
                        "address": "0xeeeeeeeeeeeeeeeeeeeeeeeeeeeeeeeeeeeeeeee",
                        "amount": "0.004833423909026773",
                        "iconUrl": "https://assets.blocksec.com/image/1663669189317-3.png",
                        "isERC1155": false,
                        "isERC721": false,
                        "sign": true,
                        "value": "15.00996575"
                    }
                ]
            },
            {
                "account": "0x0000000000000000000000000000000000000000",
                "assets": [
                    {
                        "address": "0x57f1887a8bf19b14fc0df6fd9b2acc9af147ea85",
                        "amount": "1",
                        "iconUrl": "https://assets.blocksec.com/nft/icon/nft_be0542b7-4f14-457c-a46f-8a69d57f084c.png",
                        "isERC1155": false,
                        "isERC721": true,
                        "sign": false,
                        "tokenID": "52557245745318141191795037068767595967670973579750272825507439688691713730829",
                        "value": ""
                    }
                ]
            }
        ]
    },
    "profile": {
        "basic_info": {
            "baseFee": "42.012265212",
            "blockNumber": 14184072,
            "callData": "0xf7a1696300000000000000000000000000000000000000000000000000000000000000c0000000000000000000000000b870ede469900cbf9aa7860ec575de2a099dfa790000000000000000000000000000000000000000000000000000000005a4900849f8145202b7b5ebd88f8db12441cb6ffc8a8a36328c63a7a7a15a97538ed5190000000000000000000000004976fb03c32e5b8cfe2b6ccb31c09ba78ebaba41000000000000000000000000b870ede469900cbf9aa7860ec575de2a099dfa79000000000000000000000000000000000000000000000000000000000000000c736f6e616c736163686465760000000000000000000000000000000000000000",
            "debugEnable": true,
            "errorInfo": "",
            "eventCount": 9,
            "feeRecipient": "0x829bd824b016326a401d083b33d092293333a830",
            "formatValue": "0.00531676629992945",
            "gasLimit": 305701,
            "gasPrice": "43.512265212",
            "gasUsed": 274869,
            "intTxnCount": 19,
            "internalRevert": false,
            "internalRevertMessage": "",
            "isContractCreation": false,
            "isFlashloan": false,
            "maxFee": "60.638993707",
            "nonce": 1,
            "overwritedBlockNumber": -1,
            "priorityFee": "1.5",
            "receiver": "0x283af0b28c62c092c9727f1ee09c02ca627eb7f5",
            "revertMessage": "",
            "sender": "0xb870ede469900cbf9aa7860ec575de2a099dfa79",
            "simulationEnable": true,
            "sourceTxnHash": "0x833e2cf9adb2a45ffb2ad6447d41a10611f157aea194720edd678ced1febc735",
            "status": true,
            "timestamp": "2022-02-11T10:02:47Z",
            "transactionFee": "0.011960172826557228",
            "txnHash": "0x833e2cf9adb2a45ffb2ad6447d41a10611f157aea194720edd678ced1febc735",
            "txnIndex": 80,
            "type": 2,
            "value": "5316766299929450"
        },
        "fund_flow": [
            {
                "amount": "0.00531676629992945",
                "from": "0xb870ede469900cbf9aa7860ec575de2a099dfa79",
                "id": 1,
                "isERC1155": false,
                "isERC721": false,
                "isReverted": false,
                "order": 1,
                "to": "0x283af0b28c62c092c9727f1ee09c02ca627eb7f5",
                "token": "0xeeeeeeeeeeeeeeeeeeeeeeeeeeeeeeeeeeeeeeee"
            },
            {
                "amount": "1",
                "from": "0x0000000000000000000000000000000000000000",
                "id": 2,
                "isERC1155": false,
                "isERC721": true,
                "isReverted": false,
                "order": 2,
                "to": "0x283af0b28c62c092c9727f1ee09c02ca627eb7f5",
                "token": "0x57f1887a8bf19b14fc0df6fd9b2acc9af147ea85",
                "tokenID": "52557245745318141191795037068767595967670973579750272825507439688691713730829"
            },
            {
                "amount": "1",
                "from": "0x283af0b28c62c092c9727f1ee09c02ca627eb7f5",
                "id": 3,
                "isERC1155": false,
                "isERC721": true,
                "isReverted": false,
                "order": 3,
                "to": "0xb870ede469900cbf9aa7860ec575de2a099dfa79",
                "token": "0x57f1887a8bf19b14fc0df6fd9b2acc9af147ea85",
                "tokenID": "52557245745318141191795037068767595967670973579750272825507439688691713730829"
            },
            {
                "amount": "0.000483342390902677",
                "from": "0x283af0b28c62c092c9727f1ee09c02ca627eb7f5",
                "id": 4,
                "isERC1155": false,
                "isERC721": false,
                "isReverted": false,
                "order": 4,
                "to": "0xb870ede469900cbf9aa7860ec575de2a099dfa79",
                "token": "0xeeeeeeeeeeeeeeeeeeeeeeeeeeeeeeeeeeeeeeee"
            }
        ],
        "token_infos": [
            {
                "address": "0xc02aaa39b223fe8d0a0e5c4f27ead9083c756cc2",
                "decimals": 18
            },
            {
                "address": "0xeeeeeeeeeeeeeeeeeeeeeeeeeeeeeeeeeeeeeeee",
                "decimals": 18
            }
        ]
    },
    "address_label": {
        "labels": [
            {
                "address": "0x57f1887a8bf19b14fc0df6fd9b2acc9af147ea85",
                "label": "ENS: Base Registrar Implementation"
            },
            {
                "address": "0x00000000000c2e074ec69a0dfb2997ba6c7d2e1e",
                "label": "ENS: Registry with Fallback"
            },
            {
                "address": "0x4976fb03c32e5b8cfe2b6ccb31c09ba78ebaba41",
                "label": "ENS: Public Resolver 2"
            },
            {
                "address": "0x283af0b28c62c092c9727f1ee09c02ca627eb7f5",
                "label": "ENS: Old ETH Registrar Controller"
            },
            {
                "address": "0x0000000000000000000000000000000000000001",
                "label": "Precompiled"
            },
            {
                "address": "0x0000000000000000000000000000000000000003",
                "label": "Precompiled"
            },
            {
                "address": "0xeeeeeeeeeeeeeeeeeeeeeeeeeeeeeeeeeeeeeeee",
                "label": "Ether"
            },
            {
                "address": "0x37bc7498f4ff12c19678ee8fe19d713b87f6a9e6",
                "label": "AccessControlledOffchainAggregator"
            },
            {
                "address": "0x5f4ec3df9cbd43714fe2740f5e3616155c5b8419",
                "label": "EACAggregatorProxy"
            },
            {
                "address": "0xa51b83e420c5f82982dc8b7f4514c9bea0b290ee",
                "label": "LinearPremiumPriceOracle"
            },
            {
                "address": "0x0000000000000000000000000000000000000002",
                "label": "Precompiled"
            },
            {
                "address": "0x0000000000000000000000000000000000000004",
                "label": "Precompiled"
            }
        ]
    },
    "trace": {
        "accountLabels": null,
        "dataMap": {
            "-1": {
                "invocation": {
                    "address": "0xb870ede469900cbf9aa7860ec575de2a099dfa79",
                    "callData": "",
                    "decodedMethod": null,
                    "errorInfo": "",
                    "fromAddress": "",
                    "gasUsed": 0,
                    "id": -1,
                    "methodDecoded": false,
                    "operation": "",
                    "output": "",
                    "revert": false,
                    "revertMessage": "",
                    "selector": "",
                    "status": false,
                    "value": ""
                },
                "nodeType": 0
            },
            "0": {
                "invocation": {
                    "address": "0x283af0b28c62c092c9727f1ee09c02ca627eb7f5",
                    "callData": "0x00000000000000000000000000000000000000000000000000000000000000c0000000000000000000000000b870ede469900cbf9aa7860ec575de2a099dfa790000000000000000000000000000000000000000000000000000000005a4900849f8145202b7b5ebd88f8db12441cb6ffc8a8a36328c63a7a7a15a97538ed5190000000000000000000000004976fb03c32e5b8cfe2b6ccb31c09ba78ebaba41000000000000000000000000b870ede469900cbf9aa7860ec575de2a099dfa79000000000000000000000000000000000000000000000000000000000000000c736f6e616c736163686465760000000000000000000000000000000000000000",
                    "decodedMethod": {
                        "callParams": [
                            {
                                "name": "name",
                                "type": "string",
                                "value": "sonalsachdev"
                            },
                            {
                                "name": "owner",
                                "type": "address",
                                "value": "0xb870ede469900cbf9aa7860ec575de2a099dfa79"
                            },
                            {
                                "name": "duration",
                                "type": "uint256",
                                "value": "94,670,856"
                            },
                            {
                                "name": "secret",
                                "type": "bytes32",
                                "value": "0x49f8145202b7b5ebd88f8db12441cb6ffc8a8a36328c63a7a7a15a97538ed519"
                            },
                            {
                                "name": "resolver",
                                "type": "address",
                                "value": "0x4976fb03c32e5b8cfe2b6ccb31c09ba78ebaba41"
                            },
                            {
                                "name": "addr",
                                "type": "address",
                                "value": "0xb870ede469900cbf9aa7860ec575de2a099dfa79"
                            }
                        ],
                        "constructorArguments": "",
                        "name": "registerWithConfig",
                        "returnParams": [],
                        "signature": "registerWithConfig(string,address,uint256,bytes32,address,address)"
                    },
                    "errorInfo": "",
                    "fromAddress": "0xb870ede469900cbf9aa7860ec575de2a099dfa79",
                    "gasUsed": 274869,
                    "id": 0,
                    "methodDecoded": true,
                    "operation": "CALL",
                    "output": "",
                    "revert": false,
                    "revertMessage": "",
                    "selector": "0xf7a16963",
                    "status": true,
                    "value": "0.00531676629992945"
                },
                "nodeType": 0
            },
            "1": {
                "invocation": {
                    "address": "0x57f1887a8bf19b14fc0df6fd9b2acc9af147ea85",
                    "callData": "0x743258cfd136e004c0fba3c60416be1b3dc0e796555b307c9d6dd11b8e06690d",
                    "decodedMethod": {
                        "callParams": [
                            {
                                "name": "id",
                                "type": "uint256",
                                "value": "52,557,245,745,318,141,191,795,037,068,767,595,967,670,973,579,750,272,825,507,439,688,691,713,730,829"
                            }
                        ],
                        "constructorArguments": "",
                        "name": "available",
                        "returnParams": [
                            {
                                "name": "",
                                "type": "bool",
                                "value": true
                            }
                        ],
                        "signature": "available(uint256)"
                    },
                    "errorInfo": "",
                    "fromAddress": "0x283af0b28c62c092c9727f1ee09c02ca627eb7f5",
                    "gasUsed": 2569,
                    "id": 1,
                    "methodDecoded": true,
                    "operation": "STATICCALL",
                    "output": "0x0000000000000000000000000000000000000000000000000000000000000001",
                    "revert": false,
                    "revertMessage": "",
                    "selector": "0x96e494e8",
                    "status": true,
                    "value": "0"
                },
                "nodeType": 0
            },
            "10": {
                "event": {
                    "contract": "0x00000000000c2e074ec69a0dfb2997ba6c7d2e1e",
                    "decodedLog": {
                        "name": "NewOwner",
                        "params": [
                            {
                                "name": "node",
                                "type": "bytes32",
                                "value": "0x93cdeb708b7545dc668eb9280176169d1c33cfd8ed6f04690a0bcc88a93fc4ae"
                            },
                            {
                                "name": "label",
                                "type": "bytes32",
                                "value": "0x743258cfd136e004c0fba3c60416be1b3dc0e796555b307c9d6dd11b8e06690d"
                            },
                            {
                                "name": "owner",
                                "type": "address",
                                "value": "0x283af0b28c62c092c9727f1ee09c02ca627eb7f5"
                            }
                        ],
                        "signature": "NewOwner(bytes32,bytes32,address)"
                    },
                    "id": 10,
                    "logData": "0x000000000000000000000000283af0b28c62c092c9727f1ee09c02ca627eb7f5",
                    "logDecoded": true,
                    "operation": "EVENT",
                    "revert": false,
                    "status": true,
                    "topics": [
                        "0xce0457fe73731f824cc272376169235128c118b49d344817417c6d108d155e82",
                        "0x93cdeb708b7545dc668eb9280176169d1c33cfd8ed6f04690a0bcc88a93fc4ae",
                        "0x743258cfd136e004c0fba3c60416be1b3dc0e796555b307c9d6dd11b8e06690d"
                    ]
                },
                "nodeType": 1
            },
            "11": {
                "event": {
                    "contract": "0x57f1887a8bf19b14fc0df6fd9b2acc9af147ea85",
                    "decodedLog": {
                        "name": "NameRegistered",
                        "params": [
                            {
                                "name": "id",
                                "type": "uint256",
                                "value": "52,557,245,745,318,141,191,795,037,068,767,595,967,670,973,579,750,272,825,507,439,688,691,713,730,829"
                            },
                            {
                                "name": "owner",
                                "type": "address",
                                "value": "0x283af0b28c62c092c9727f1ee09c02ca627eb7f5"
                            },
                            {
                                "name": "expires",
                                "type": "uint256",
                                "value": "1,739,244,623"
                            }
                        ],
                        "signature": "NameRegistered(uint256,address,uint256)"
                    },
                    "id": 11,
                    "logData": "0x0000000000000000000000000000000000000000000000000000000067aac44f",
                    "logDecoded": true,
                    "operation": "EVENT",
                    "revert": false,
                    "status": true,
                    "topics": [
                        "0xb3d987963d01b2f68493b4bdb130988f157ea43070d4ad840fee0466ed9370d9",
                        "0x743258cfd136e004c0fba3c60416be1b3dc0e796555b307c9d6dd11b8e06690d",
                        "0x000000000000000000000000283af0b28c62c092c9727f1ee09c02ca627eb7f5"
                    ]
                },
                "nodeType": 1
            },
            "12": {
                "invocation": {
                    "address": "0x57f1887a8bf19b14fc0df6fd9b2acc9af147ea85",
                    "callData": "0x",
                    "decodedMethod": {
                        "callParams": [],
                        "constructorArguments": "",
                        "name": "baseNode",
                        "returnParams": [
                            {
                                "name": "",
                                "type": "bytes32",
                                "value": "0x93cdeb708b7545dc668eb9280176169d1c33cfd8ed6f04690a0bcc88a93fc4ae"
                            }
                        ],
                        "signature": "baseNode()"
                    },
                    "errorInfo": "",
                    "fromAddress": "0x283af0b28c62c092c9727f1ee09c02ca627eb7f5",
                    "gasUsed": 394,
                    "id": 12,
                    "methodDecoded": true,
                    "operation": "STATICCALL",
                    "output": "0x93cdeb708b7545dc668eb9280176169d1c33cfd8ed6f04690a0bcc88a93fc4ae",
                    "revert": false,
                    "revertMessage": "",
                    "selector": "0xddf7fcb0",
                    "status": true,
                    "value": "0"
                },
                "nodeType": 0
            },
            "13": {
                "invocation": {
                    "address": "0x57f1887a8bf19b14fc0df6fd9b2acc9af147ea85",
                    "callData": "0x",
                    "decodedMethod": {
                        "callParams": [],
                        "constructorArguments": "",
                        "name": "ens",
                        "returnParams": [
                            {
                                "name": "",
                                "type": "address",
                                "value": "0x00000000000c2e074ec69a0dfb2997ba6c7d2e1e"
                            }
                        ],
                        "signature": "ens()"
                    },
                    "errorInfo": "",
                    "fromAddress": "0x283af0b28c62c092c9727f1ee09c02ca627eb7f5",
                    "gasUsed": 399,
                    "id": 13,
                    "methodDecoded": true,
                    "operation": "STATICCALL",
                    "output": "0x00000000000000000000000000000000000c2e074ec69a0dfb2997ba6c7d2e1e",
                    "revert": false,
                    "revertMessage": "",
                    "selector": "0x3f15457f",
                    "status": true,
                    "value": "0"
                },
                "nodeType": 0
            },
            "14": {
                "invocation": {
                    "address": "0x00000000000c2e074ec69a0dfb2997ba6c7d2e1e",
                    "callData": "0xf588709d8cce5e99530a0c058d867f656870b3e671839a84a8f39cd11bdb7c040000000000000000000000004976fb03c32e5b8cfe2b6ccb31c09ba78ebaba41",
                    "decodedMethod": {
                        "callParams": [
                            {
                                "name": "node",
                                "type": "bytes32",
                                "value": "0xf588709d8cce5e99530a0c058d867f656870b3e671839a84a8f39cd11bdb7c04"
                            },
                            {
                                "name": "resolver",
                                "type": "address",
                                "value": "0x4976fb03c32e5b8cfe2b6ccb31c09ba78ebaba41"
                            }
                        ],
                        "constructorArguments": "",
                        "name": "setResolver",
                        "returnParams": [],
                        "signature": "setResolver(bytes32,address)"
                    },
                    "errorInfo": "",
                    "fromAddress": "0x283af0b28c62c092c9727f1ee09c02ca627eb7f5",
                    "gasUsed": 24371,
                    "id": 14,
                    "methodDecoded": true,
                    "operation": "CALL",
                    "output": "",
                    "revert": false,
                    "revertMessage": "",
                    "selector": "0x1896f70a",
                    "status": true,
                    "value": "0"
                },
                "nodeType": 0
            },
            "15": {
                "event": {
                    "contract": "0x00000000000c2e074ec69a0dfb2997ba6c7d2e1e",
                    "decodedLog": {
                        "name": "NewResolver",
                        "params": [
                            {
                                "name": "node",
                                "type": "bytes32",
                                "value": "0xf588709d8cce5e99530a0c058d867f656870b3e671839a84a8f39cd11bdb7c04"
                            },
                            {
                                "name": "resolver",
                                "type": "address",
                                "value": "0x4976fb03c32e5b8cfe2b6ccb31c09ba78ebaba41"
                            }
                        ],
                        "signature": "NewResolver(bytes32,address)"
                    },
                    "id": 15,
                    "logData": "0x0000000000000000000000004976fb03c32e5b8cfe2b6ccb31c09ba78ebaba41",
                    "logDecoded": true,
                    "operation": "EVENT",
                    "revert": false,
                    "status": true,
                    "topics": [
                        "0x335721b01866dc23fbee8b6b2c7b1e14d6f05c28cd35a2c934239f94095602a0",
                        "0xf588709d8cce5e99530a0c058d867f656870b3e671839a84a8f39cd11bdb7c04"
                    ]
                },
                "nodeType": 1
            },
            "16": {
                "invocation": {
                    "address": "0x4976fb03c32e5b8cfe2b6ccb31c09ba78ebaba41",
                    "callData": "0xf588709d8cce5e99530a0c058d867f656870b3e671839a84a8f39cd11bdb7c04000000000000000000000000b870ede469900cbf9aa7860ec575de2a099dfa79",
                    "decodedMethod": {
                        "callParams": [
                            {
                                "name": "node",
                                "type": "bytes32",
                                "value": "0xf588709d8cce5e99530a0c058d867f656870b3e671839a84a8f39cd11bdb7c04"
                            },
                            {
                                "name": "a",
                                "type": "address",
                                "value": "0xb870ede469900cbf9aa7860ec575de2a099dfa79"
                            }
                        ],
                        "constructorArguments": "",
                        "name": "setAddr",
                        "returnParams": [],
                        "signature": "setAddr(bytes32,address)"
                    },
                    "errorInfo": "",
                    "fromAddress": "0x283af0b28c62c092c9727f1ee09c02ca627eb7f5",
                    "gasUsed": 34332,
                    "id": 16,
                    "methodDecoded": true,
                    "operation": "CALL",
                    "output": "",
                    "revert": false,
                    "revertMessage": "",
                    "selector": "0xd5fa2b00",
                    "status": true,
                    "value": "0"
                },
                "nodeType": 0
            },
            "17": {
                "invocation": {
                    "address": "0x00000000000c2e074ec69a0dfb2997ba6c7d2e1e",
                    "callData": "0xf588709d8cce5e99530a0c058d867f656870b3e671839a84a8f39cd11bdb7c04",
                    "decodedMethod": {
                        "callParams": [
                            {
                                "name": "node",
                                "type": "bytes32",
                                "value": "0xf588709d8cce5e99530a0c058d867f656870b3e671839a84a8f39cd11bdb7c04"
                            }
                        ],
                        "constructorArguments": "",
                        "name": "owner",
                        "returnParams": [
                            {
                                "name": "",
                                "type": "address",
                                "value": "0x283af0b28c62c092c9727f1ee09c02ca627eb7f5"
                            }
                        ],
                        "signature": "owner(bytes32)"
                    },
                    "errorInfo": "",
                    "fromAddress": "0x4976fb03c32e5b8cfe2b6ccb31c09ba78ebaba41",
                    "gasUsed": 951,
                    "id": 17,
                    "methodDecoded": true,
                    "operation": "STATICCALL",
                    "output": "0x000000000000000000000000283af0b28c62c092c9727f1ee09c02ca627eb7f5",
                    "revert": false,
                    "revertMessage": "",
                    "selector": "0x02571be3",
                    "status": true,
                    "value": "0"
                },
                "nodeType": 0
            },
            "18": {
                "invocation": {
                    "address": "0x00000000000c2e074ec69a0dfb2997ba6c7d2e1e",
                    "callData": "0xf588709d8cce5e99530a0c058d867f656870b3e671839a84a8f39cd11bdb7c04",
                    "decodedMethod": {
                        "callParams": [
                            {
                                "name": "node",
                                "type": "bytes32",
                                "value": "0xf588709d8cce5e99530a0c058d867f656870b3e671839a84a8f39cd11bdb7c04"
                            }
                        ],
                        "constructorArguments": "",
                        "name": "owner",
                        "returnParams": [
                            {
                                "name": "",
                                "type": "address",
                                "value": "0x283af0b28c62c092c9727f1ee09c02ca627eb7f5"
                            }
                        ],
                        "signature": "owner(bytes32)"
                    },
                    "errorInfo": "",
                    "fromAddress": "0x4976fb03c32e5b8cfe2b6ccb31c09ba78ebaba41",
                    "gasUsed": 951,
                    "id": 18,
                    "methodDecoded": true,
                    "operation": "STATICCALL",
                    "output": "0x000000000000000000000000283af0b28c62c092c9727f1ee09c02ca627eb7f5",
                    "revert": false,
                    "revertMessage": "",
                    "selector": "0x02571be3",
                    "status": true,
                    "value": "0"
                },
                "nodeType": 0
            },
            "19": {
                "event": {
                    "contract": "0x4976fb03c32e5b8cfe2b6ccb31c09ba78ebaba41",
                    "decodedLog": {
                        "name": "AddressChanged",
                        "params": [
                            {
                                "name": "node",
                                "type": "bytes32",
                                "value": "0xf588709d8cce5e99530a0c058d867f656870b3e671839a84a8f39cd11bdb7c04"
                            },
                            {
                                "name": "coinType",
                                "type": "uint256",
                                "value": "60"
                            },
                            {
                                "name": "newAddress",
                                "type": "bytes",
                                "value": "0xb870ede469900cbf9aa7860ec575de2a099dfa79"
                            }
                        ],
                        "signature": "AddressChanged(bytes32,uint256,bytes)"
                    },
                    "id": 19,
                    "logData": "0x000000000000000000000000000000000000000000000000000000000000003c00000000000000000000000000000000000000000000000000000000000000400000000000000000000000000000000000000000000000000000000000000014b870ede469900cbf9aa7860ec575de2a099dfa79000000000000000000000000",
                    "logDecoded": true,
                    "operation": "EVENT",
                    "revert": false,
                    "status": true,
                    "topics": [
                        "0x65412581168e88a1e60c6459d7f44ae83ad0832e670826c05a4e2476b57af752",
                        "0xf588709d8cce5e99530a0c058d867f656870b3e671839a84a8f39cd11bdb7c04"
                    ]
                },
                "nodeType": 1
            },
            "2": {
                "invocation": {
                    "address": "0x57f1887a8bf19b14fc0df6fd9b2acc9af147ea85",
                    "callData": "0x743258cfd136e004c0fba3c60416be1b3dc0e796555b307c9d6dd11b8e06690d",
                    "decodedMethod": {
                        "callParams": [
                            {
                                "name": "id",
                                "type": "uint256",
                                "value": "52,557,245,745,318,141,191,795,037,068,767,595,967,670,973,579,750,272,825,507,439,688,691,713,730,829"
                            }
                        ],
                        "constructorArguments": "",
                        "name": "nameExpires",
                        "returnParams": [
                            {
                                "name": "",
                                "type": "uint256",
                                "value": "0"
                            }
                        ],
                        "signature": "nameExpires(uint256)"
                    },
                    "errorInfo": "",
                    "fromAddress": "0x283af0b28c62c092c9727f1ee09c02ca627eb7f5",
                    "gasUsed": 523,
                    "id": 2,
                    "methodDecoded": true,
                    "operation": "STATICCALL",
                    "output": "0x0000000000000000000000000000000000000000000000000000000000000000",
                    "revert": false,
                    "revertMessage": "",
                    "selector": "0xd6e4fa86",
                    "status": true,
                    "value": "0"
                },
                "nodeType": 0
            },
            "20": {
                "event": {
                    "contract": "0x4976fb03c32e5b8cfe2b6ccb31c09ba78ebaba41",
                    "decodedLog": {
                        "name": "AddrChanged",
                        "params": [
                            {
                                "name": "node",
                                "type": "bytes32",
                                "value": "0xf588709d8cce5e99530a0c058d867f656870b3e671839a84a8f39cd11bdb7c04"
                            },
                            {
                                "name": "a",
                                "type": "address",
                                "value": "0xb870ede469900cbf9aa7860ec575de2a099dfa79"
                            }
                        ],
                        "signature": "AddrChanged(bytes32,address)"
                    },
                    "id": 20,
                    "logData": "0x000000000000000000000000b870ede469900cbf9aa7860ec575de2a099dfa79",
                    "logDecoded": true,
                    "operation": "EVENT",
                    "revert": false,
                    "status": true,
                    "topics": [
                        "0x52d7d861f09ab3d26239d492e8968629f95e9e318cf0b73bfddc441522a15fd2",
                        "0xf588709d8cce5e99530a0c058d867f656870b3e671839a84a8f39cd11bdb7c04"
                    ]
                },
                "nodeType": 1
            },
            "21": {
                "invocation": {
                    "address": "0x57f1887a8bf19b14fc0df6fd9b2acc9af147ea85",
                    "callData": "0x743258cfd136e004c0fba3c60416be1b3dc0e796555b307c9d6dd11b8e06690d000000000000000000000000b870ede469900cbf9aa7860ec575de2a099dfa79",
                    "decodedMethod": {
                        "callParams": [
                            {
                                "name": "id",
                                "type": "uint256",
                                "value": "52,557,245,745,318,141,191,795,037,068,767,595,967,670,973,579,750,272,825,507,439,688,691,713,730,829"
                            },
                            {
                                "name": "owner",
                                "type": "address",
                                "value": "0xb870ede469900cbf9aa7860ec575de2a099dfa79"
                            }
                        ],
                        "constructorArguments": "",
                        "name": "reclaim",
                        "returnParams": [],
                        "signature": "reclaim(uint256,address)"
                    },
                    "errorInfo": "",
                    "fromAddress": "0x283af0b28c62c092c9727f1ee09c02ca627eb7f5",
                    "gasUsed": 6652,
                    "id": 21,
                    "methodDecoded": true,
                    "operation": "CALL",
                    "output": "",
                    "revert": false,
                    "revertMessage": "",
                    "selector": "0x28ed4f6c",
                    "status": true,
                    "value": "0"
                },
                "nodeType": 0
            },
            "22": {
                "invocation": {
                    "address": "0x00000000000c2e074ec69a0dfb2997ba6c7d2e1e",
                    "callData": "0x93cdeb708b7545dc668eb9280176169d1c33cfd8ed6f04690a0bcc88a93fc4ae",
                    "decodedMethod": {
                        "callParams": [
                            {
                                "name": "node",
                                "type": "bytes32",
                                "value": "0x93cdeb708b7545dc668eb9280176169d1c33cfd8ed6f04690a0bcc88a93fc4ae"
                            }
                        ],
                        "constructorArguments": "",
                        "name": "owner",
                        "returnParams": [
                            {
                                "name": "",
                                "type": "address",
                                "value": "0x57f1887a8bf19b14fc0df6fd9b2acc9af147ea85"
                            }
                        ],
                        "signature": "owner(bytes32)"
                    },
                    "errorInfo": "",
                    "fromAddress": "0x57f1887a8bf19b14fc0df6fd9b2acc9af147ea85",
                    "gasUsed": 951,
                    "id": 22,
                    "methodDecoded": true,
                    "operation": "STATICCALL",
                    "output": "0x00000000000000000000000057f1887a8bf19b14fc0df6fd9b2acc9af147ea85",
                    "revert": false,
                    "revertMessage": "",
                    "selector": "0x02571be3",
                    "status": true,
                    "value": "0"
                },
                "nodeType": 0
            },
            "23": {
                "invocation": {
                    "address": "0x00000000000c2e074ec69a0dfb2997ba6c7d2e1e",
                    "callData": "0x93cdeb708b7545dc668eb9280176169d1c33cfd8ed6f04690a0bcc88a93fc4ae743258cfd136e004c0fba3c60416be1b3dc0e796555b307c9d6dd11b8e06690d000000000000000000000000b870ede469900cbf9aa7860ec575de2a099dfa79",
                    "decodedMethod": {
                        "callParams": [
                            {
                                "name": "node",
                                "type": "bytes32",
                                "value": "0x93cdeb708b7545dc668eb9280176169d1c33cfd8ed6f04690a0bcc88a93fc4ae"
                            },
                            {
                                "name": "label",
                                "type": "bytes32",
                                "value": "0x743258cfd136e004c0fba3c60416be1b3dc0e796555b307c9d6dd11b8e06690d"
                            },
                            {
                                "name": "owner",
                                "type": "address",
                                "value": "0xb870ede469900cbf9aa7860ec575de2a099dfa79"
                            }
                        ],
                        "constructorArguments": "",
                        "name": "setSubnodeOwner",
                        "returnParams": [
                            {
                                "name": "",
                                "type": "bytes32",
                                "value": "0xf588709d8cce5e99530a0c058d867f656870b3e671839a84a8f39cd11bdb7c04"
                            }
                        ],
                        "signature": "setSubnodeOwner(bytes32,bytes32,address)"
                    },
                    "errorInfo": "",
                    "fromAddress": "0x57f1887a8bf19b14fc0df6fd9b2acc9af147ea85",
                    "gasUsed": 3169,
                    "id": 23,
                    "methodDecoded": true,
                    "operation": "CALL",
                    "output": "0xf588709d8cce5e99530a0c058d867f656870b3e671839a84a8f39cd11bdb7c04",
                    "revert": false,
                    "revertMessage": "",
                    "selector": "0x06ab5923",
                    "status": true,
                    "value": "0"
                },
                "nodeType": 0
            },
            "24": {
                "event": {
                    "contract": "0x00000000000c2e074ec69a0dfb2997ba6c7d2e1e",
                    "decodedLog": {
                        "name": "NewOwner",
                        "params": [
                            {
                                "name": "node",
                                "type": "bytes32",
                                "value": "0x93cdeb708b7545dc668eb9280176169d1c33cfd8ed6f04690a0bcc88a93fc4ae"
                            },
                            {
                                "name": "label",
                                "type": "bytes32",
                                "value": "0x743258cfd136e004c0fba3c60416be1b3dc0e796555b307c9d6dd11b8e06690d"
                            },
                            {
                                "name": "owner",
                                "type": "address",
                                "value": "0xb870ede469900cbf9aa7860ec575de2a099dfa79"
                            }
                        ],
                        "signature": "NewOwner(bytes32,bytes32,address)"
                    },
                    "id": 24,
                    "logData": "0x000000000000000000000000b870ede469900cbf9aa7860ec575de2a099dfa79",
                    "logDecoded": true,
                    "operation": "EVENT",
                    "revert": false,
                    "status": true,
                    "topics": [
                        "0xce0457fe73731f824cc272376169235128c118b49d344817417c6d108d155e82",
                        "0x93cdeb708b7545dc668eb9280176169d1c33cfd8ed6f04690a0bcc88a93fc4ae",
                        "0x743258cfd136e004c0fba3c60416be1b3dc0e796555b307c9d6dd11b8e06690d"
                    ]
                },
                "nodeType": 1
            },
            "25": {
                "invocation": {
                    "address": "0x57f1887a8bf19b14fc0df6fd9b2acc9af147ea85",
                    "callData": "0x000000000000000000000000283af0b28c62c092c9727f1ee09c02ca627eb7f5000000000000000000000000b870ede469900cbf9aa7860ec575de2a099dfa79743258cfd136e004c0fba3c60416be1b3dc0e796555b307c9d6dd11b8e06690d",
                    "decodedMethod": {
                        "callParams": [
                            {
                                "name": "from",
                                "type": "address",
                                "value": "0x283af0b28c62c092c9727f1ee09c02ca627eb7f5"
                            },
                            {
                                "name": "to",
                                "type": "address",
                                "value": "0xb870ede469900cbf9aa7860ec575de2a099dfa79"
                            },
                            {
                                "decimalAvailable": true,
                                "name": "tokenId",
                                "type": "uint256",
                                "value": "52,557,245,745,318,141,191,795,037,068,767,595,967,670,973,579,750,272,825,507,439,688,691,713,730,829"
                            }
                        ],
                        "constructorArguments": "",
                        "name": "transferFrom",
                        "returnParams": [],
                        "signature": "transferFrom(address,address,uint256)"
                    },
                    "errorInfo": "",
                    "fromAddress": "0x283af0b28c62c092c9727f1ee09c02ca627eb7f5",
                    "gasUsed": 29203,
                    "id": 25,
                    "methodDecoded": true,
                    "operation": "CALL",
                    "output": "",
                    "revert": false,
                    "revertMessage": "",
                    "selector": "0x23b872dd",
                    "status": true,
                    "value": "0"
                },
                "nodeType": 0
            },
            "26": {
                "event": {
                    "contract": "0x57f1887a8bf19b14fc0df6fd9b2acc9af147ea85",
                    "decodedLog": {
                        "name": "Transfer",
                        "params": [
                            {
                                "name": "from",
                                "type": "address",
                                "value": "0x283af0b28c62c092c9727f1ee09c02ca627eb7f5"
                            },
                            {
                                "name": "to",
                                "type": "address",
                                "value": "0xb870ede469900cbf9aa7860ec575de2a099dfa79"
                            },
                            {
                                "decimalAvailable": true,
                                "name": "tokenId",
                                "type": "uint256",
                                "value": "52,557,245,745,318,141,191,795,037,068,767,595,967,670,973,579,750,272,825,507,439,688,691,713,730,829"
                            }
                        ],
                        "signature": "Transfer(address,address,uint256)"
                    },
                    "id": 26,
                    "logData": "0x",
                    "logDecoded": true,
                    "operation": "EVENT",
                    "revert": false,
                    "status": true,
                    "topics": [
                        "0xddf252ad1be2c89b69c2b068fc378daa952ba7f163c4a11628f55a4df523b3ef",
                        "0x000000000000000000000000283af0b28c62c092c9727f1ee09c02ca627eb7f5",
                        "0x000000000000000000000000b870ede469900cbf9aa7860ec575de2a099dfa79",
                        "0x743258cfd136e004c0fba3c60416be1b3dc0e796555b307c9d6dd11b8e06690d"
                    ]
                },
                "nodeType": 1
            },
            "27": {
                "event": {
                    "contract": "0x283af0b28c62c092c9727f1ee09c02ca627eb7f5",
                    "decodedLog": {
                        "name": "NameRegistered",
                        "params": [
                            {
                                "name": "label",
                                "type": "bytes32",
                                "value": "0x743258cfd136e004c0fba3c60416be1b3dc0e796555b307c9d6dd11b8e06690d"
                            },
                            {
                                "name": "owner",
                                "type": "address",
                                "value": "0xb870ede469900cbf9aa7860ec575de2a099dfa79"
                            },
                            {
                                "name": "name",
                                "type": "string",
                                "value": "sonalsachdev"
                            },
                            {
                                "name": "cost",
                                "type": "uint256",
                                "value": "4,833,423,909,026,773"
                            },
                            {
                                "name": "expires",
                                "type": "uint256",
                                "value": "1,739,244,623"
                            }
                        ],
                        "signature": "NameRegistered(string,bytes32,address,uint256,uint256)"
                    },
                    "id": 27,
                    "logData": "0x000000000000000000000000000000000000000000000000000000000000006000000000000000000000000000000000000000000000000000112bf933257bd50000000000000000000000000000000000000000000000000000000067aac44f000000000000000000000000000000000000000000000000000000000000000c736f6e616c736163686465760000000000000000000000000000000000000000",
                    "logDecoded": true,
                    "operation": "EVENT",
                    "revert": false,
                    "status": true,
                    "topics": [
                        "0xca6abbe9d7f11422cb6ca7629fbf6fe9efb1c621f71ce8f02b9f2a230097404f",
                        "0x743258cfd136e004c0fba3c60416be1b3dc0e796555b307c9d6dd11b8e06690d",
                        "0x000000000000000000000000b870ede469900cbf9aa7860ec575de2a099dfa79"
                    ]
                },
                "nodeType": 1
            },
            "28": {
                "invocation": {
                    "address": "0xb870ede469900cbf9aa7860ec575de2a099dfa79",
                    "callData": "0x",
                    "decodedMethod": null,
                    "errorInfo": "",
                    "fromAddress": "0x283af0b28c62c092c9727f1ee09c02ca627eb7f5",
                    "gasUsed": 0,
                    "id": 28,
                    "methodDecoded": false,
                    "operation": "CALL",
                    "output": "",
                    "revert": false,
                    "revertMessage": "",
                    "selector": "fallback",
                    "status": true,
                    "value": "0.000483342390902677"
                },
                "nodeType": 0
            },
            "3": {
                "invocation": {
                    "address": "0xa51b83e420c5f82982dc8b7f4514c9bea0b290ee",
                    "callData": "0x000000000000000000000000000000000000000000000000000000000000006000000000000000000000000000000000000000000000000000000000000000000000000000000000000000000000000000000000000000000000000005a49008000000000000000000000000000000000000000000000000000000000000000c736f6e616c736163686465760000000000000000000000000000000000000000",
                    "decodedMethod": {
                        "callParams": [
                            {
                                "name": "name",
                                "type": "string",
                                "value": "sonalsachdev"
                            },
                            {
                                "name": "expires",
                                "type": "uint256",
                                "value": "0"
                            },
                            {
                                "name": "duration",
                                "type": "uint256",
                                "value": "94,670,856"
                            }
                        ],
                        "constructorArguments": "",
                        "name": "price",
                        "returnParams": [
                            {
                                "name": "",
                                "type": "uint256",
                                "value": "4,833,423,909,026,773"
                            }
                        ],
                        "signature": "price(string,uint256,uint256)"
                    },
                    "errorInfo": "",
                    "fromAddress": "0x283af0b28c62c092c9727f1ee09c02ca627eb7f5",
                    "gasUsed": 27994,
                    "id": 3,
                    "methodDecoded": true,
                    "operation": "STATICCALL",
                    "output": "0x00000000000000000000000000000000000000000000000000112bf933257bd5",
                    "revert": false,
                    "revertMessage": "",
                    "selector": "0x50e9a715",
                    "status": true,
                    "value": "0"
                },
                "nodeType": 0
            },
            "4": {
                "invocation": {
                    "address": "0x5f4ec3df9cbd43714fe2740f5e3616155c5b8419",
                    "callData": "0x",
                    "decodedMethod": {
                        "callParams": [],
                        "constructorArguments": "",
                        "name": "latestAnswer",
                        "returnParams": [
                            {
                                "name": "",
                                "type": "int256",
                                "value": "310,545,196,034"
                            }
                        ],
                        "signature": "latestAnswer()"
                    },
                    "errorInfo": "",
                    "fromAddress": "0xa51b83e420c5f82982dc8b7f4514c9bea0b290ee",
                    "gasUsed": 14637,
                    "id": 4,
                    "methodDecoded": true,
                    "operation": "STATICCALL",
                    "output": "0x000000000000000000000000000000000000000000000000000000484defa402",
                    "revert": false,
                    "revertMessage": "",
                    "selector": "0x50d25bcd",
                    "status": true,
                    "value": "0"
                },
                "nodeType": 0
            },
            "5": {
                "invocation": {
                    "address": "0x37bc7498f4ff12c19678ee8fe19d713b87f6a9e6",
                    "callData": "0x",
                    "decodedMethod": {
                        "callParams": [],
                        "constructorArguments": "",
                        "name": "latestAnswer",
                        "returnParams": [
                            {
                                "name": "",
                                "type": "int256",
                                "value": "310,545,196,034"
                            }
                        ],
                        "signature": "latestAnswer()"
                    },
                    "errorInfo": "",
                    "fromAddress": "0x5f4ec3df9cbd43714fe2740f5e3616155c5b8419",
                    "gasUsed": 7141,
                    "id": 5,
                    "methodDecoded": true,
                    "operation": "STATICCALL",
                    "output": "0x000000000000000000000000000000000000000000000000000000484defa402",
                    "revert": false,
                    "revertMessage": "",
                    "selector": "0x50d25bcd",
                    "status": true,
                    "value": "0"
                },
                "nodeType": 0
            },
            "6": {
                "invocation": {
                    "address": "0x57f1887a8bf19b14fc0df6fd9b2acc9af147ea85",
                    "callData": "0x743258cfd136e004c0fba3c60416be1b3dc0e796555b307c9d6dd11b8e06690d000000000000000000000000283af0b28c62c092c9727f1ee09c02ca627eb7f50000000000000000000000000000000000000000000000000000000005a49008",
                    "decodedMethod": {
                        "callParams": [
                            {
                                "name": "id",
                                "type": "uint256",
                                "value": "52,557,245,745,318,141,191,795,037,068,767,595,967,670,973,579,750,272,825,507,439,688,691,713,730,829"
                            },
                            {
                                "name": "owner",
                                "type": "address",
                                "value": "0x283af0b28c62c092c9727f1ee09c02ca627eb7f5"
                            },
                            {
                                "name": "duration",
                                "type": "uint256",
                                "value": "94,670,856"
                            }
                        ],
                        "constructorArguments": "",
                        "name": "register",
                        "returnParams": [
                            {
                                "name": "",
                                "type": "uint256",
                                "value": "1,739,244,623"
                            }
                        ],
                        "signature": "register(uint256,address,uint256)"
                    },
                    "errorInfo": "",
                    "fromAddress": "0x283af0b28c62c092c9727f1ee09c02ca627eb7f5",
                    "gasUsed": 91145,
                    "id": 6,
                    "methodDecoded": true,
                    "operation": "CALL",
                    "output": "0x0000000000000000000000000000000000000000000000000000000067aac44f",
                    "revert": false,
                    "revertMessage": "",
                    "selector": "0xfca247ac",
                    "status": true,
                    "value": "0"
                },
                "nodeType": 0
            },
            "7": {
                "invocation": {
                    "address": "0x00000000000c2e074ec69a0dfb2997ba6c7d2e1e",
                    "callData": "0x93cdeb708b7545dc668eb9280176169d1c33cfd8ed6f04690a0bcc88a93fc4ae",
                    "decodedMethod": {
                        "callParams": [
                            {
                                "name": "node",
                                "type": "bytes32",
                                "value": "0x93cdeb708b7545dc668eb9280176169d1c33cfd8ed6f04690a0bcc88a93fc4ae"
                            }
                        ],
                        "constructorArguments": "",
                        "name": "owner",
                        "returnParams": [
                            {
                                "name": "",
                                "type": "address",
                                "value": "0x57f1887a8bf19b14fc0df6fd9b2acc9af147ea85"
                            }
                        ],
                        "signature": "owner(bytes32)"
                    },
                    "errorInfo": "",
                    "fromAddress": "0x57f1887a8bf19b14fc0df6fd9b2acc9af147ea85",
                    "gasUsed": 2951,
                    "id": 7,
                    "methodDecoded": true,
                    "operation": "STATICCALL",
                    "output": "0x00000000000000000000000057f1887a8bf19b14fc0df6fd9b2acc9af147ea85",
                    "revert": false,
                    "revertMessage": "",
                    "selector": "0x02571be3",
                    "status": true,
                    "value": "0"
                },
                "nodeType": 0
            },
            "8": {
                "event": {
                    "contract": "0x57f1887a8bf19b14fc0df6fd9b2acc9af147ea85",
                    "decodedLog": {
                        "name": "Transfer",
                        "params": [
                            {
                                "name": "from",
                                "type": "address",
                                "value": "0x0000000000000000000000000000000000000000"
                            },
                            {
                                "name": "to",
                                "type": "address",
                                "value": "0x283af0b28c62c092c9727f1ee09c02ca627eb7f5"
                            },
                            {
                                "decimalAvailable": true,
                                "name": "tokenId",
                                "type": "uint256",
                                "value": "52,557,245,745,318,141,191,795,037,068,767,595,967,670,973,579,750,272,825,507,439,688,691,713,730,829"
                            }
                        ],
                        "signature": "Transfer(address,address,uint256)"
                    },
                    "id": 8,
                    "logData": "0x",
                    "logDecoded": true,
                    "operation": "EVENT",
                    "revert": false,
                    "status": true,
                    "topics": [
                        "0xddf252ad1be2c89b69c2b068fc378daa952ba7f163c4a11628f55a4df523b3ef",
                        "0x0000000000000000000000000000000000000000000000000000000000000000",
                        "0x000000000000000000000000283af0b28c62c092c9727f1ee09c02ca627eb7f5",
                        "0x743258cfd136e004c0fba3c60416be1b3dc0e796555b307c9d6dd11b8e06690d"
                    ]
                },
                "nodeType": 1
            },
            "9": {
                "invocation": {
                    "address": "0x00000000000c2e074ec69a0dfb2997ba6c7d2e1e",
                    "callData": "0x93cdeb708b7545dc668eb9280176169d1c33cfd8ed6f04690a0bcc88a93fc4ae743258cfd136e004c0fba3c60416be1b3dc0e796555b307c9d6dd11b8e06690d000000000000000000000000283af0b28c62c092c9727f1ee09c02ca627eb7f5",
                    "decodedMethod": {
                        "callParams": [
                            {
                                "name": "node",
                                "type": "bytes32",
                                "value": "0x93cdeb708b7545dc668eb9280176169d1c33cfd8ed6f04690a0bcc88a93fc4ae"
                            },
                            {
                                "name": "label",
                                "type": "bytes32",
                                "value": "0x743258cfd136e004c0fba3c60416be1b3dc0e796555b307c9d6dd11b8e06690d"
                            },
                            {
                                "name": "owner",
                                "type": "address",
                                "value": "0x283af0b28c62c092c9727f1ee09c02ca627eb7f5"
                            }
                        ],
                        "constructorArguments": "",
                        "name": "setSubnodeOwner",
                        "returnParams": [
                            {
                                "name": "",
                                "type": "bytes32",
                                "value": "0xf588709d8cce5e99530a0c058d867f656870b3e671839a84a8f39cd11bdb7c04"
                            }
                        ],
                        "signature": "setSubnodeOwner(bytes32,bytes32,address)"
                    },
                    "errorInfo": "",
                    "fromAddress": "0x57f1887a8bf19b14fc0df6fd9b2acc9af147ea85",
                    "gasUsed": 25069,
                    "id": 9,
                    "methodDecoded": true,
                    "operation": "CALL",
                    "output": "0xf588709d8cce5e99530a0c058d867f656870b3e671839a84a8f39cd11bdb7c04",
                    "revert": false,
                    "revertMessage": "",
                    "selector": "0x06ab5923",
                    "status": true,
                    "value": "0"
                },
                "nodeType": 0
            }
        },
        "gasFlame": [
            {
                "children": [
                    {
                        "children": [
                            {
                                "children": [],
                                "depth": 0,
                                "name": "Initial Gas",
                                "value": 23408
                            },
                            {
                                "children": [
                                    {
                                        "children": [],
                                        "depth": 1,
                                        "name": "available",
                                        "value": 2569
                                    },
                                    {
                                        "children": [],
                                        "depth": 1,
                                        "name": "nameExpires",
                                        "value": 523
                                    },
                                    {
                                        "children": [
                                            {
                                                "children": [
                                                    {
                                                        "children": [],
                                                        "depth": 3,
                                                        "name": "latestAnswer",
                                                        "value": 7141
                                                    }
                                                ],
                                                "depth": 2,
                                                "name": "latestAnswer",
                                                "value": 14637
                                            }
                                        ],
                                        "depth": 1,
                                        "name": "price",
                                        "value": 27994
                                    },
                                    {
                                        "children": [
                                            {
                                                "children": [],
                                                "depth": 2,
                                                "name": "owner",
                                                "value": 2951
                                            },
                                            {
                                                "children": [],
                                                "depth": 2,
                                                "name": "setSubnodeOwner",
                                                "value": 25069
                                            }
                                        ],
                                        "depth": 1,
                                        "name": "register",
                                        "value": 91145
                                    },
                                    {
                                        "children": [],
                                        "depth": 1,
                                        "name": "baseNode",
                                        "value": 394
                                    },
                                    {
                                        "children": [],
                                        "depth": 1,
                                        "name": "ens",
                                        "value": 399
                                    },
                                    {
                                        "children": [],
                                        "depth": 1,
                                        "name": "setResolver",
                                        "value": 24371
                                    },
                                    {
                                        "children": [
                                            {
                                                "children": [],
                                                "depth": 2,
                                                "name": "owner",
                                                "value": 951
                                            },
                                            {
                                                "children": [],
                                                "depth": 2,
                                                "name": "owner",
                                                "value": 951
                                            }
                                        ],
                                        "depth": 1,
                                        "name": "setAddr",
                                        "value": 34332
                                    },
                                    {
                                        "children": [
                                            {
                                                "children": [],
                                                "depth": 2,
                                                "name": "owner",
                                                "value": 951
                                            },
                                            {
                                                "children": [],
                                                "depth": 2,
                                                "name": "setSubnodeOwner",
                                                "value": 3169
                                            }
                                        ],
                                        "depth": 1,
                                        "name": "reclaim",
                                        "value": 6652
                                    },
                                    {
                                        "children": [],
                                        "depth": 1,
                                        "name": "transferFrom",
                                        "value": 29203
                                    },
                                    {
                                        "children": [],
                                        "depth": 1,
                                        "name": "fallback",
                                        "value": 0
                                    }
                                ],
                                "depth": 0,
                                "name": "Executed Gas",
                                "value": 259061
                            }
                        ],
                        "depth": -1,
                        "name": "Actual Gas Used",
                        "value": 274869
                    },
                    {
                        "children": [],
                        "depth": -1,
                        "name": "Refunded Gas",
                        "value": 7600
                    }
                ],
                "depth": -2,
                "name": "Total Gas",
                "value": 282469
            }
        ],
        "isConfirmed": true,
        "mainTrace": [
            {
                "children": [
                    {
                        "children": [
                            {
                                "children": [],
                                "depth": 1,
                                "id": 1,
                                "order": 1
                            },
                            {
                                "children": [],
                                "depth": 1,
                                "id": 2,
                                "order": 2
                            },
                            {
                                "children": [
                                    {
                                        "children": [
                                            {
                                                "children": [],
                                                "depth": 3,
                                                "id": 5,
                                                "order": 5
                                            }
                                        ],
                                        "depth": 2,
                                        "id": 4,
                                        "order": 4
                                    }
                                ],
                                "depth": 1,
                                "id": 3,
                                "order": 3
                            },
                            {
                                "children": [
                                    {
                                        "children": [],
                                        "depth": 2,
                                        "id": 7,
                                        "order": 7
                                    },
                                    {
                                        "children": [],
                                        "depth": 2,
                                        "id": 8,
                                        "order": 8
                                    },
                                    {
                                        "children": [
                                            {
                                                "children": [],
                                                "depth": 3,
                                                "id": 10,
                                                "order": 10
                                            }
                                        ],
                                        "depth": 2,
                                        "id": 9,
                                        "order": 9
                                    },
                                    {
                                        "children": [],
                                        "depth": 2,
                                        "id": 11,
                                        "order": 11
                                    }
                                ],
                                "depth": 1,
                                "id": 6,
                                "order": 6
                            },
                            {
                                "children": [],
                                "depth": 1,
                                "id": 12,
                                "order": 12
                            },
                            {
                                "children": [],
                                "depth": 1,
                                "id": 13,
                                "order": 13
                            },
                            {
                                "children": [
                                    {
                                        "children": [],
                                        "depth": 2,
                                        "id": 15,
                                        "order": 15
                                    }
                                ],
                                "depth": 1,
                                "id": 14,
                                "order": 14
                            },
                            {
                                "children": [
                                    {
                                        "children": [],
                                        "depth": 2,
                                        "id": 17,
                                        "order": 17
                                    },
                                    {
                                        "children": [],
                                        "depth": 2,
                                        "id": 18,
                                        "order": 18
                                    },
                                    {
                                        "children": [],
                                        "depth": 2,
                                        "id": 19,
                                        "order": 19
                                    },
                                    {
                                        "children": [],
                                        "depth": 2,
                                        "id": 20,
                                        "order": 20
                                    }
                                ],
                                "depth": 1,
                                "id": 16,
                                "order": 16
                            },
                            {
                                "children": [
                                    {
                                        "children": [],
                                        "depth": 2,
                                        "id": 22,
                                        "order": 22
                                    },
                                    {
                                        "children": [
                                            {
                                                "children": [],
                                                "depth": 3,
                                                "id": 24,
                                                "order": 24
                                            }
                                        ],
                                        "depth": 2,
                                        "id": 23,
                                        "order": 23
                                    }
                                ],
                                "depth": 1,
                                "id": 21,
                                "order": 21
                            },
                            {
                                "children": [
                                    {
                                        "children": [],
                                        "depth": 2,
                                        "id": 26,
                                        "order": 26
                                    }
                                ],
                                "depth": 1,
                                "id": 25,
                                "order": 25
                            },
                            {
                                "children": [],
                                "depth": 1,
                                "id": 27,
                                "order": 27
                            },
                            {
                                "children": [],
                                "depth": 1,
                                "id": 28,
                                "order": 28
                            }
                        ],
                        "depth": 0,
                        "id": 0,
                        "order": 0
                    }
                ],
                "depth": -1,
                "id": -1,
                "order": -1
            }
        ],
        "mainTraceNodeCount": 29,
        "parentIdMap": {
            "0": -1,
            "1": 0,
            "10": 9,
            "11": 6,
            "12": 0,
            "13": 0,
            "14": 0,
            "15": 14,
            "16": 0,
            "17": 16,
            "18": 16,
            "19": 16,
            "2": 0,
            "20": 16,
            "21": 0,
            "22": 21,
            "23": 21,
            "24": 23,
            "25": 0,
            "26": 25,
            "27": 0,
            "28": 0,
            "3": 0,
            "4": 3,
            "5": 4,
            "6": 0,
            "7": 6,
            "8": 6,
            "9": 6
        },
        "tidyTrace": [
            {
                "children": [
                    {
                        "children": [
                            {
                                "children": [
                                    {
                                        "children": [],
                                        "depth": 2,
                                        "id": 8,
                                        "order": 8
                                    },
                                    {
                                        "children": [
                                            {
                                                "children": [],
                                                "depth": 3,
                                                "id": 10,
                                                "order": 10
                                            }
                                        ],
                                        "depth": 2,
                                        "id": 9,
                                        "order": 9
                                    },
                                    {
                                        "children": [],
                                        "depth": 2,
                                        "id": 11,
                                        "order": 11
                                    }
                                ],
                                "depth": 1,
                                "id": 6,
                                "order": 6
                            },
                            {
                                "children": [
                                    {
                                        "children": [],
                                        "depth": 2,
                                        "id": 15,
                                        "order": 15
                                    }
                                ],
                                "depth": 1,
                                "id": 14,
                                "order": 14
                            },
                            {
                                "children": [
                                    {
                                        "children": [],
                                        "depth": 2,
                                        "id": 19,
                                        "order": 19
                                    },
                                    {
                                        "children": [],
                                        "depth": 2,
                                        "id": 20,
                                        "order": 20
                                    }
                                ],
                                "depth": 1,
                                "id": 16,
                                "order": 16
                            },
                            {
                                "children": [
                                    {
                                        "children": [
                                            {
                                                "children": [],
                                                "depth": 3,
                                                "id": 24,
                                                "order": 24
                                            }
                                        ],
                                        "depth": 2,
                                        "id": 23,
                                        "order": 23
                                    }
                                ],
                                "depth": 1,
                                "id": 21,
                                "order": 21
                            },
                            {
                                "children": [
                                    {
                                        "children": [],
                                        "depth": 2,
                                        "id": 26,
                                        "order": 26
                                    }
                                ],
                                "depth": 1,
                                "id": 25,
                                "order": 25
                            },
                            {
                                "children": [],
                                "depth": 1,
                                "id": 27,
                                "order": 27
                            },
                            {
                                "children": [],
                                "depth": 1,
                                "id": 28,
                                "order": 28
                            }
                        ],
                        "depth": 0,
                        "id": 0,
                        "order": 0
                    }
                ],
                "depth": -1,
                "id": -1,
                "order": -1
            }
        ],
        "tidyTraceNodeCount": 18
    },
    "state_change": {
        "stateChanges": [
            {
                "address": "0x00000000000c2e074ec69a0dfb2997ba6c7d2e1e",
                "erc": "",
                "slots": [
                    {
                        "current": "0x000000000000000000000000b870ede469900cbf9aa7860ec575de2a099dfa79",
                        "key": "0x43facf376c245b16e5bf8dcede2f8e58331a26794577b599eb3ec4719f63d74d",
                        "prev": "0x0000000000000000000000000000000000000000000000000000000000000000"
                    },
                    {
                        "current": "0x0000000000000000000000004976fb03c32e5b8cfe2b6ccb31c09ba78ebaba41",
                        "key": "0x43facf376c245b16e5bf8dcede2f8e58331a26794577b599eb3ec4719f63d74e",
                        "prev": "0x0000000000000000000000000000000000000000000000000000000000000000"
                    }
                ],
                "storageVariables": [
                    {
                        "name": "records",
                        "type": "mapping(bytes32 => struct ENSRegistry.Record)",
                        "value": {
                            "pairs": [
                                {
                                    "key": "0xf588709d8cce5e99530a0c058d867f656870b3e671839a84a8f39cd11bdb7c04",
                                    "value": {
                                        "fields": [
                                            {
                                                "name": "owner",
                                                "type": "address",
                                                "value": {
                                                    "current": "0xb870ede469900cbf9aa7860ec575de2a099dfa79",
                                                    "prev": "0x0000000000000000000000000000000000000000",
                                                    "typeTag": 1
                                                }
                                            },
                                            {
                                                "name": "resolver",
                                                "type": "address",
                                                "value": {
                                                    "current": "0x4976fb03c32e5b8cfe2b6ccb31c09ba78ebaba41",
                                                    "prev": "0x0000000000000000000000000000000000000000",
                                                    "typeTag": 1
                                                }
                                            },
                                            {
                                                "name": "ttl",
                                                "type": "uint64",
                                                "value": {
                                                    "current": "0",
                                                    "prev": "0",
                                                    "typeTag": 1
                                                }
                                            }
                                        ],
                                        "typeTag": 3
                                    }
                                }
                            ],
                            "typeTag": 4
                        }
                    }
                ]
            },
            {
                "address": "0x283af0b28c62c092c9727f1ee09c02ca627eb7f5",
                "erc": "",
                "slots": [
                    {
                        "current": "0x0000000000000000000000000000000000000000000000000000000000000000",
                        "key": "0x9f0aea581570c46dfbe1374b602d12221fba88510eefd646af62c9eaac94542f",
                        "prev": "0x0000000000000000000000000000000000000000000000000000000062063308"
                    }
                ],
                "storageVariables": [
                    {
                        "name": "commitments",
                        "type": "mapping(bytes32 => uint256)",
                        "value": {
                            "pairs": [
                                {
                                    "key": "0x864a2f418cdf9a4b80d88eea5f74440de842378943fb12654cff4f9e3b51d04f",
                                    "value": {
                                        "current": "0",
                                        "prev": "1644573448",
                                        "typeTag": 1
                                    }
                                }
                            ],
                            "typeTag": 4
                        }
                    }
                ]
            },
            {
                "address": "0x4976fb03c32e5b8cfe2b6ccb31c09ba78ebaba41",
                "erc": "",
                "slots": [
                    {
                        "current": "0xb870ede469900cbf9aa7860ec575de2a099dfa79000000000000000000000028",
                        "key": "0xac6b374e33ec768df1c2e931688a9a4c21ffdddc65f38887813f402d55e5926e",
                        "prev": "0x0000000000000000000000000000000000000000000000000000000000000000"
                    }
                ],
                "storageVariables": [
                    {
                        "name": "_addresses",
                        "type": "mapping(bytes32 => mapping(uint256 => bytes))",
                        "value": {
                            "pairs": [
                                {
                                    "key": "0xf588709d8cce5e99530a0c058d867f656870b3e671839a84a8f39cd11bdb7c04",
                                    "value": {
                                        "pairs": [
                                            {
                                                "key": "60",
                                                "value": {
                                                    "current": "0xb870ede469900cbf9aa7860ec575de2a099dfa79",
                                                    "prev": "0x",
                                                    "typeTag": 1
                                                }
                                            }
                                        ],
                                        "typeTag": 4
                                    }
                                }
                            ],
                            "typeTag": 4
                        }
                    }
                ]
            },
            {
                "address": "0x57f1887a8bf19b14fc0df6fd9b2acc9af147ea85",
                "erc": "ERC-721",
                "slots": [
                    {
                        "current": "0x0000000000000000000000000000000000000000000000000000000067aac44f",
                        "key": "0x37663c27c1f7e31343208551d12710fd24637a7642c5d8f77fd0f288afada41e",
                        "prev": "0x0000000000000000000000000000000000000000000000000000000000000000"
                    },
                    {
                        "current": "0x000000000000000000000000b870ede469900cbf9aa7860ec575de2a099dfa79",
                        "key": "0xaae74d57ba2d76d68df0d2cd9eef9c925f7f01fe83244506e1fdd38db868d493",
                        "prev": "0x0000000000000000000000000000000000000000000000000000000000000000"
                    },
                    {
                        "current": "0x0000000000000000000000000000000000000000000000000000000000000001",
                        "key": "0x579ac1b9322320ceef1714c9f2ae632257cc56d5f089c610be68908a31ad83fb",
                        "prev": "0x0000000000000000000000000000000000000000000000000000000000000000"
                    }
                ],
                "storageVariables": [
                    {
                        "name": "expiries",
                        "type": "mapping(uint256 => uint256)",
                        "value": {
                            "pairs": [
                                {
                                    "key": "52557245745318141191795037068767595967670973579750272825507439688691713730829",
                                    "value": {
                                        "current": "1739244623",
                                        "prev": "0",
                                        "typeTag": 1
                                    }
                                }
                            ],
                            "typeTag": 4
                        }
                    },
                    {
                        "name": "_tokenOwner",
                        "type": "mapping(uint256 => address)",
                        "value": {
                            "pairs": [
                                {
                                    "key": "52557245745318141191795037068767595967670973579750272825507439688691713730829",
                                    "value": {
                                        "current": "0xb870ede469900cbf9aa7860ec575de2a099dfa79",
                                        "prev": "0x0000000000000000000000000000000000000000",
                                        "typeTag": 1
                                    }
                                }
                            ],
                            "typeTag": 4
                        }
                    },
                    {
                        "name": "_ownedTokensCount",
                        "type": "mapping(address => uint256)",
                        "value": {
                            "pairs": [
                                {
                                    "key": "0xb870ede469900cbf9aa7860ec575de2a099dfa79",
                                    "value": {
                                        "current": "1",
                                        "prev": "0",
                                        "typeTag": 1
                                    }
                                }
                            ],
                            "typeTag": 4
                        }
                    }
                ]
            }
        ]
    }
}