{
    "balance_change": {
        "balanceChanges": [
            {
                "account": "0x0494732928f79275a557e73dd30f867d2859eb01",
                "assets": [
                    {
                        "address": "0xa8258abc8f2811dd48eccd209db68f25e3e34667",
                        "amount": "4,702.5",
                        "iconUrl": "",
                        "isERC1155": false,
                        "isERC721": false,
                        "sign": false,
                        "value": ""
                    }
                ]
            },
            {
                "account": "0x2c42ffa5ec5c79091347520e6d6802fcf23c5898",
                "assets": [
                    {
                        "address": "0xa8258abc8f2811dd48eccd209db68f25e3e34667",
                        "amount": "4,702.5",
                        "iconUrl": "",
                        "isERC1155": false,
                        "isERC721": false,
                        "sign": true,
                        "value": ""
                    }
                ]
            }
        ]
    },
    "profile": {
        "basic_info": {
            "baseFee": "",
            "blockNumber": 6942014,
            "callData": "0xa9059cbb0000000000000000000000002c42ffa5ec5c79091347520e6d6802fcf23c58980000000000000000000000000000000000000000000000000000006d7d158e80",
            "debugEnable": true,
            "errorInfo": "",
            "eventCount": 1,
            "feeRecipient": "0x002e08000acbbae2155fab7ac01929564949070d",
            "formatValue": "0",
            "gasLimit": 60000,
            "gasPrice": "99",
            "gasUsed": 51983,
            "intTxnCount": 0,
            "internalRevert": false,
            "internalRevertMessage": "",
            "isContractCreation": false,
            "isFlashloan": false,
            "maxFee": "",
            "nonce": 119,
            "overwritedBlockNumber": -1,
            "priorityFee": "",
            "receiver": "0xa8258abc8f2811dd48eccd209db68f25e3e34667",
            "revertMessage": "",
            "sender": "0x0494732928f79275a557e73dd30f867d2859eb01",
            "simulationEnable": true,
            "sourceTxnHash": "0x83afe85cadecd0120edec1461f03882476d471b49b55d45bd20209a66bc9905b",
            "status": true,
            "timestamp": "2018-12-24T03:15:57Z",
            "transactionFee": "0.005146317",
            "txnHash": "0x83afe85cadecd0120edec1461f03882476d471b49b55d45bd20209a66bc9905b",
            "txnIndex": 0,
            "type": 0,
            "value": "0"
        },
        "fund_flow": [
            {
                "amount": "4,702.5",
                "from": "0x0494732928f79275a557e73dd30f867d2859eb01",
                "id": 1,
                "isERC1155": false,
                "isERC721": false,
                "isReverted": false,
                "order": 1,
                "to": "0x2c42ffa5ec5c79091347520e6d6802fcf23c5898",
                "token": "0xa8258abc8f2811dd48eccd209db68f25e3e34667"
            }
        ],
        "token_infos": [
            {
                "address": "0xa8258abc8f2811dd48eccd209db68f25e3e34667",
                "decimals": 8
            },
            {
                "address": "0xc02aaa39b223fe8d0a0e5c4f27ead9083c756cc2",
                "decimals": 18
            },
            {
                "address": "0xeeeeeeeeeeeeeeeeeeeeeeeeeeeeeeeeeeeeeeee",
                "decimals": 18
            }
        ]
    },
    "address_label": {
        "labels": [
            {
                "address": "0xeeeeeeeeeeeeeeeeeeeeeeeeeeeeeeeeeeeeeeee",
                "label": "Ether"
            },
            {
                "address": "0xa8258abc8f2811dd48eccd209db68f25e3e34667",
                "label": "Constellation: DAG Token"
            },
            {
                "address": "0x0000000000000000000000000000000000000001",
                "label": "Precompiled"
            },
            {
                "address": "0x0000000000000000000000000000000000000002",
                "label": "Precompiled"
            },
            {
                "address": "0x0000000000000000000000000000000000000003",
                "label": "Precompiled"
            },
            {
                "address": "0x0000000000000000000000000000000000000004",
                "label": "Precompiled"
            }
        ]
    },
    "trace": {
        "accountLabels": null,
        "dataMap": {
            "-1": {
                "invocation": {
                    "address": "0x0494732928f79275a557e73dd30f867d2859eb01",
                    "callData": "",
                    "decodedMethod": null,
                    "errorInfo": "",
                    "fromAddress": "",
                    "gasUsed": 0,
                    "id": -1,
                    "methodDecoded": false,
                    "operation": "",
                    "output": "",
                    "revert": false,
                    "revertMessage": "",
                    "selector": "",
                    "status": false,
                    "value": ""
                },
                "nodeType": 0
            },
            "0": {
                "invocation": {
                    "address": "0xa8258abc8f2811dd48eccd209db68f25e3e34667",
                    "callData": "0x0000000000000000000000002c42ffa5ec5c79091347520e6d6802fcf23c58980000000000000000000000000000000000000000000000000000006d7d158e80",
                    "decodedMethod": {
                        "callParams": [
                            {
                                "name": "_to",
                                "type": "address",
                                "value": "0x2c42ffa5ec5c79091347520e6d6802fcf23c5898"
                            },
                            {
                                "decimalAvailable": true,
                                "name": "_value",
                                "type": "uint256",
                                "value": "470,250,000,000"
                            }
                        ],
                        "constructorArguments": "",
                        "name": "transfer",
                        "returnParams": [
                            {
                                "name": "",
                                "type": "bool",
                                "value": true
                            }
                        ],
                        "signature": "transfer(address,uint256)"
                    },
                    "errorInfo": "",
                    "fromAddress": "0x0494732928f79275a557e73dd30f867d2859eb01",
                    "gasUsed": 51983,
                    "id": 0,
                    "methodDecoded": true,
                    "operation": "CALL",
                    "output": "0x0000000000000000000000000000000000000000000000000000000000000001",
                    "revert": false,
                    "revertMessage": "",
                    "selector": "0xa9059cbb",
                    "status": true,
                    "value": "0"
                },
                "nodeType": 0
            },
            "1": {
                "event": {
                    "contract": "0xa8258abc8f2811dd48eccd209db68f25e3e34667",
                    "decodedLog": {
                        "name": "Transfer",
                        "params": [
                            {
                                "name": "from",
                                "type": "address",
                                "value": "0x0494732928f79275a557e73dd30f867d2859eb01"
                            },
                            {
                                "name": "to",
                                "type": "address",
                                "value": "0x2c42ffa5ec5c79091347520e6d6802fcf23c5898"
                            },
                            {
                                "decimalAvailable": true,
                                "name": "value",
                                "type": "uint256",
                                "value": "470,250,000,000"
                            }
                        ],
                        "signature": "Transfer(address,address,uint256)"
                    },
                    "id": 1,
                    "logData": "0x0000000000000000000000000000000000000000000000000000006d7d158e80",
                    "logDecoded": true,
                    "operation": "EVENT",
                    "revert": false,
                    "status": true,
                    "topics": [
                        "0xddf252ad1be2c89b69c2b068fc378daa952ba7f163c4a11628f55a4df523b3ef",
                        "0x0000000000000000000000000494732928f79275a557e73dd30f867d2859eb01",
                        "0x0000000000000000000000002c42ffa5ec5c79091347520e6d6802fcf23c5898"
                    ]
                },
                "nodeType": 1
            }
        },
        "gasFlame": [
            {
                "children": [
                    {
                        "children": [
                            {
                                "children": [],
                                "depth": 0,
                                "name": "Initial Gas",
                                "value": 23128
                            },
                            {
                                "children": [],
                                "depth": 0,
                                "name": "Executed Gas",
                                "value": 28855
                            }
                        ],
                        "depth": -1,
                        "name": "Actual Gas Used",
                        "value": 51983
                    },
                    {
                        "children": [],
                        "depth": -1,
                        "name": "Refunded Gas",
                        "value": 0
                    }
                ],
                "depth": -2,
                "name": "Total Gas",
                "value": 51983
            }
        ],
        "isConfirmed": true,
        "mainTrace": [
            {
                "children": [
                    {
                        "children": [
                            {
                                "children": [],
                                "depth": 1,
                                "id": 1,
                                "order": 1
                            }
                        ],
                        "depth": 0,
                        "id": 0,
                        "order": 0
                    }
                ],
                "depth": -1,
                "id": -1,
                "order": -1
            }
        ],
        "mainTraceNodeCount": 2,
        "parentIdMap": {
            "0": -1,
            "1": 0
        },
        "tidyTrace": [
            {
                "children": [
                    {
                        "children": [
                            {
                                "children": [],
                                "depth": 1,
                                "id": 1,
                                "order": 1
                            }
                        ],
                        "depth": 0,
                        "id": 0,
                        "order": 0
                    }
                ],
                "depth": -1,
                "id": -1,
                "order": -1
            }
        ],
        "tidyTraceNodeCount": 2
    },
    "state_change": {
        "stateChanges": [
            {
                "address": "0xa8258abc8f2811dd48eccd209db68f25e3e34667",
                "erc": "ERC-20",
                "slots": [
                    {
                        "current": "0x0000000000000000000000000000000000000000000000000000006d7d158e80",
                        "key": "0x3384c6f80a416423b32fef94bbe9176dfebb0351bf2a490e7cbf924a2bc21de3",
                        "prev": "0x0000000000000000000000000000000000000000000000000000000000000000"
                    },
                    {
                        "current": "0x000000000000000000000000000000000000000000000000000045709401ce40",
                        "key": "0x8fd80f4b6ede8e8922c4b3001cca6cea318bd51ca75b9a8be2a343230750326d",
                        "prev": "0x000000000000000000000000000000000000000000000000000045de11175cc0"
                    }
                ],
                "storageVariables": [
                    {
                        "name": "balances",
                        "type": "mapping(address => uint256)",
                        "value": {
                            "pairs": [
                                {
                                    "key": "0x0494732928f79275a557e73dd30f867d2859eb01",
                                    "value": {
                                        "current": "76349821800000",
                                        "prev": "76820071800000",
                                        "typeTag": 1
                                    }
                                },
                                {
                                    "key": "0x2c42ffa5ec5c79091347520e6d6802fcf23c5898",
                                    "value": {
                                        "current": "470250000000",
                                        "prev": "0",
                                        "typeTag": 1
                                    }
                                }
                            ],
                            "typeTag": 4
                        }
                    }
                ]
            }
        ]
    }
}