{
    "balance_change": {
        "balanceChanges": [
            {
                "account": "0x5461a7bc8856d1efab202b8f8c0a35a95b135938",
                "assets": [
                    {
                        "address": "0xeeeeeeeeeeeeeeeeeeeeeeeeeeeeeeeeeeeeeeee",
                        "amount": "0.25",
                        "iconUrl": "https://assets.blocksec.com/image/1663669189317-3.png",
                        "isERC1155": false,
                        "isERC721": false,
                        "sign": true,
                        "value": "940.7000000000000455"
                    }
                ]
            },
            {
                "account": "0x6774bcbd5cecef1336b5300fb5186a12ddd8b367",
                "assets": [
                    {
                        "address": "0xeeeeeeeeeeeeeeeeeeeeeeeeeeeeeeeeeeeeeeee",
                        "amount": "0.25",
                        "iconUrl": "https://assets.blocksec.com/image/1663669189317-3.png",
                        "isERC1155": false,
                        "isERC721": false,
                        "sign": false,
                        "value": "940.7000000000000455"
                    }
                ]
            }
        ]
    },
    "profile": {
        "basic_info": {
            "baseFee": "2.71155819",
            "blockNumber": 19952014,
            "callData": "0xc311b6fc0000000000000000000000005461a7bc8856d1efab202b8f8c0a35a95b1359380000000000000000000000005461a7bc8856d1efab202b8f8c0a35a95b13593800000000000000000000000000000000000000000000000003782dace9d90000000000000000000000000000000000000000000000000000000000000001e61300000000000000000000000000000000000000000000000000000000000000c000000000000000000000000000000000000000000000000000000000000000e000000000000000000000000000000000000000000000000000000000000000000000000000000000000000000000000000000000000000000000000000034c2300000000000000000000000000000000000000000000000000000000000000400000000000000000000000000000000000000000000000000000000000000220263c91e90352d7761511e5649d7d1a88a90772f97f142925ce76975d9f7386b859e12986255f2fee603f87a1faa4f9f934eb209018fe9dda61d65c51374f596a6563e998538f5979032c9960f454628e27b12b0cc142588a81519dbd562b7f9821ddb9a356815c3fac1026b6dec5df3124afbadb485c9ba5a3e3398a04b7ba857602cd4be135ef6a336934fd00b1c20335362b2a2df9e78b4e0a43487d5927810eb01ebfc9ed27500cd4dfc979272d1f0913cc9f66540d7e8005811109e1cf2d887c22bd8750d34016ac3c66b5ff102dacdd73f6b014e710b51e8022af9a1968ffd70157e48063fc33c97a050f7f640233bf646cc98d9524c6b92bcf3ab56f839867cc5f7f196b93bae1e27e6320742445d290f2263827498b54fec539f756af0cc2a977244c0b9c6a79ce9920104afef09748cc4426d060822d763fc5e47373134996b6b46c8afd8e5535acdf54f1a426db59eb751ad431f30b82429b260534f8b13a49e282f609c317a833fb8d976d11517c571d1221a265d25af778ecf8923490c6ceeb450aecdc82e28293031d10c7d73bf85e57bf041a97360aa2c5d99c1e072794e5d122bd353cf461af9b1161e9702549de9ac5465d9e10f8367fc023f17a3aa0a56f00f74ad70920323d8cc99cd6a546f01bf0cda81a988360c444eeda698e5aee681dfb95cd2556507a082c8fc49fa2686c5ab3c3d955b9af146a7619e1247224601acd4539abf04aafffc01a991e1beb4f366962e810fc07ac794e",
            "debugEnable": true,
            "errorInfo": "",
            "eventCount": 1,
            "feeRecipient": "0x4838b106fce9647bdf1e7877bf73ce8b0bad5f97",
            "formatValue": "0",
            "gasLimit": 103855,
            "gasPrice": "2.922434058",
            "gasUsed": 99630,
            "intTxnCount": 6,
            "internalRevert": false,
            "internalRevertMessage": "",
            "isContractCreation": false,
            "isFlashloan": false,
            "maxFee": "",
            "nonce": 59,
            "overwritedBlockNumber": -1,
            "priorityFee": "",
            "receiver": "0x6774bcbd5cecef1336b5300fb5186a12ddd8b367",
            "revertMessage": "",
            "sender": "0x5461a7bc8856d1efab202b8f8c0a35a95b135938",
            "simulationEnable": true,
            "sourceTxnHash": "0x83eaa40253ed00bdce1077ae02679e9eda321a34432be39f1f4ffae4c0d3244c",
            "status": true,
            "timestamp": "2024-05-26T05:38:35Z",
            "transactionFee": "0.00029116210519854",
            "txnHash": "0x83eaa40253ed00bdce1077ae02679e9eda321a34432be39f1f4ffae4c0d3244c",
            "txnIndex": 44,
            "type": 0,
            "value": "0"
        },
        "fund_flow": [
            {
                "amount": "0.25",
                "from": "0x6774bcbd5cecef1336b5300fb5186a12ddd8b367",
                "id": 1,
                "isERC1155": false,
                "isERC721": false,
                "isReverted": false,
                "order": 1,
                "to": "0x5461a7bc8856d1efab202b8f8c0a35a95b135938",
                "token": "0xeeeeeeeeeeeeeeeeeeeeeeeeeeeeeeeeeeeeeeee"
            }
        ],
        "token_infos": [
            {
                "address": "0xc02aaa39b223fe8d0a0e5c4f27ead9083c756cc2",
                "decimals": 18
            },
            {
                "address": "0xeeeeeeeeeeeeeeeeeeeeeeeeeeeeeeeeeeeeeeee",
                "decimals": 18
            }
        ]
    },
    "address_label": {
        "labels": [
            {
                "address": "0x0000000000000000000000000000000000000002",
                "label": "Precompiled"
            },
            {
                "address": "0x6774bcbd5cecef1336b5300fb5186a12ddd8b367",
                "label": "Scroll: L1 Scroll Messenger Proxy"
            },
            {
                "address": "0x0000000000000000000000000000000000000001",
                "label": "Precompiled"
            },
            {
                "address": "0x72981fd00087ff4f60abfde9f353cb1912a37fb6",
                "label": "L1ScrollMessenger"
            },
            {
                "address": "0xaa6d0f2490ac3957b97e11afec6f0f250593cac8",
                "label": "ScrollChain"
            },
            {
                "address": "0x0000000000000000000000000000000000000003",
                "label": "Precompiled"
            },
            {
                "address": "0x0000000000000000000000000000000000000004",
                "label": "Precompiled"
            },
            {
                "address": "0xeeeeeeeeeeeeeeeeeeeeeeeeeeeeeeeeeeeeeeee",
                "label": "Ether"
            },
            {
                "address": "0xa13baf47339d63b743e7da8741db5456dac1e556",
                "label": "Scroll: L1 Scroll Chain Proxy"
            }
        ]
    },
    "trace": {
        "accountLabels": null,
        "dataMap": {
            "-1": {
                "invocation": {
                    "address": "0x5461a7bc8856d1efab202b8f8c0a35a95b135938",
                    "callData": "",
                    "decodedMethod": null,
                    "errorInfo": "",
                    "fromAddress": "",
                    "gasUsed": 0,
                    "id": -1,
                    "methodDecoded": false,
                    "operation": "",
                    "output": "",
                    "revert": false,
                    "revertMessage": "",
                    "selector": "",
                    "status": false,
                    "value": ""
                },
                "nodeType": 0
            },
            "0": {
                "invocation": {
                    "address": "0x6774bcbd5cecef1336b5300fb5186a12ddd8b367",
                    "callData": "0x0000000000000000000000005461a7bc8856d1efab202b8f8c0a35a95b1359380000000000000000000000005461a7bc8856d1efab202b8f8c0a35a95b13593800000000000000000000000000000000000000000000000003782dace9d90000000000000000000000000000000000000000000000000000000000000001e61300000000000000000000000000000000000000000000000000000000000000c000000000000000000000000000000000000000000000000000000000000000e000000000000000000000000000000000000000000000000000000000000000000000000000000000000000000000000000000000000000000000000000034c2300000000000000000000000000000000000000000000000000000000000000400000000000000000000000000000000000000000000000000000000000000220263c91e90352d7761511e5649d7d1a88a90772f97f142925ce76975d9f7386b859e12986255f2fee603f87a1faa4f9f934eb209018fe9dda61d65c51374f596a6563e998538f5979032c9960f454628e27b12b0cc142588a81519dbd562b7f9821ddb9a356815c3fac1026b6dec5df3124afbadb485c9ba5a3e3398a04b7ba857602cd4be135ef6a336934fd00b1c20335362b2a2df9e78b4e0a43487d5927810eb01ebfc9ed27500cd4dfc979272d1f0913cc9f66540d7e8005811109e1cf2d887c22bd8750d34016ac3c66b5ff102dacdd73f6b014e710b51e8022af9a1968ffd70157e48063fc33c97a050f7f640233bf646cc98d9524c6b92bcf3ab56f839867cc5f7f196b93bae1e27e6320742445d290f2263827498b54fec539f756af0cc2a977244c0b9c6a79ce9920104afef09748cc4426d060822d763fc5e47373134996b6b46c8afd8e5535acdf54f1a426db59eb751ad431f30b82429b260534f8b13a49e282f609c317a833fb8d976d11517c571d1221a265d25af778ecf8923490c6ceeb450aecdc82e28293031d10c7d73bf85e57bf041a97360aa2c5d99c1e072794e5d122bd353cf461af9b1161e9702549de9ac5465d9e10f8367fc023f17a3aa0a56f00f74ad70920323d8cc99cd6a546f01bf0cda81a988360c444eeda698e5aee681dfb95cd2556507a082c8fc49fa2686c5ab3c3d955b9af146a7619e1247224601acd4539abf04aafffc01a991e1beb4f366962e810fc07ac794e",
                    "decodedMethod": {
                        "callParams": [
                            {
                                "name": "_from",
                                "type": "address",
                                "value": "0x5461a7bc8856d1efab202b8f8c0a35a95b135938"
                            },
                            {
                                "name": "_to",
                                "type": "address",
                                "value": "0x5461a7bc8856d1efab202b8f8c0a35a95b135938"
                            },
                            {
                                "name": "_value",
                                "type": "uint256",
                                "value": "250,000,000,000,000,000"
                            },
                            {
                                "name": "_nonce",
                                "type": "uint256",
                                "value": "124,435"
                            },
                            {
                                "name": "_message",
                                "type": "bytes",
                                "value": "0x"
                            },
                            {
                                "name": "_proof",
                                "type": "(uint256,bytes)",
                                "value": [
                                    {
                                        "name": "batchIndex",
                                        "type": "uint256",
                                        "value": "216,099"
                                    },
                                    {
                                        "name": "merkleProof",
                                        "type": "bytes",
                                        "value": "0x263c91e90352d7761511e5649d7d1a88a90772f97f142925ce76975d9f7386b859e12986255f2fee603f87a1faa4f9f934eb209018fe9dda61d65c51374f596a6563e998538f5979032c9960f454628e27b12b0cc142588a81519dbd562b7f9821ddb9a356815c3fac1026b6dec5df3124afbadb485c9ba5a3e3398a04b7ba857602cd4be135ef6a336934fd00b1c20335362b2a2df9e78b4e0a43487d5927810eb01ebfc9ed27500cd4dfc979272d1f0913cc9f66540d7e8005811109e1cf2d887c22bd8750d34016ac3c66b5ff102dacdd73f6b014e710b51e8022af9a1968ffd70157e48063fc33c97a050f7f640233bf646cc98d9524c6b92bcf3ab56f839867cc5f7f196b93bae1e27e6320742445d290f2263827498b54fec539f756af0cc2a977244c0b9c6a79ce9920104afef09748cc4426d060822d763fc5e47373134996b6b46c8afd8e5535acdf54f1a426db59eb751ad431f30b82429b260534f8b13a49e282f609c317a833fb8d976d11517c571d1221a265d25af778ecf8923490c6ceeb450aecdc82e28293031d10c7d73bf85e57bf041a97360aa2c5d99c1e072794e5d122bd353cf461af9b1161e9702549de9ac5465d9e10f8367fc023f17a3aa0a56f00f74ad70920323d8cc99cd6a546f01bf0cda81a988360c444eeda698e5aee681dfb95cd2556507a082c8fc49fa2686c5ab3c3d955b9af146a7619e1247224601acd4539abf04aafffc01a991e1beb4f366962e810fc07ac794e"
                                    }
                                ]
                            }
                        ],
                        "constructorArguments": "",
                        "name": "relayMessageWithProof",
                        "returnParams": [],
                        "signature": "relayMessageWithProof(address,address,uint256,uint256,bytes,(uint256,bytes))"
                    },
                    "errorInfo": "",
                    "fromAddress": "0x5461a7bc8856d1efab202b8f8c0a35a95b135938",
                    "gasUsed": 99630,
                    "id": 0,
                    "methodDecoded": true,
                    "operation": "CALL",
                    "output": "",
                    "revert": false,
                    "revertMessage": "",
                    "selector": "0xc311b6fc",
                    "status": true,
                    "value": "0"
                },
                "nodeType": 0
            },
            "1": {
                "invocation": {
                    "address": "0x72981fd00087ff4f60abfde9f353cb1912a37fb6",
                    "callData": "0x0000000000000000000000005461a7bc8856d1efab202b8f8c0a35a95b1359380000000000000000000000005461a7bc8856d1efab202b8f8c0a35a95b13593800000000000000000000000000000000000000000000000003782dace9d90000000000000000000000000000000000000000000000000000000000000001e61300000000000000000000000000000000000000000000000000000000000000c000000000000000000000000000000000000000000000000000000000000000e000000000000000000000000000000000000000000000000000000000000000000000000000000000000000000000000000000000000000000000000000034c2300000000000000000000000000000000000000000000000000000000000000400000000000000000000000000000000000000000000000000000000000000220263c91e90352d7761511e5649d7d1a88a90772f97f142925ce76975d9f7386b859e12986255f2fee603f87a1faa4f9f934eb209018fe9dda61d65c51374f596a6563e998538f5979032c9960f454628e27b12b0cc142588a81519dbd562b7f9821ddb9a356815c3fac1026b6dec5df3124afbadb485c9ba5a3e3398a04b7ba857602cd4be135ef6a336934fd00b1c20335362b2a2df9e78b4e0a43487d5927810eb01ebfc9ed27500cd4dfc979272d1f0913cc9f66540d7e8005811109e1cf2d887c22bd8750d34016ac3c66b5ff102dacdd73f6b014e710b51e8022af9a1968ffd70157e48063fc33c97a050f7f640233bf646cc98d9524c6b92bcf3ab56f839867cc5f7f196b93bae1e27e6320742445d290f2263827498b54fec539f756af0cc2a977244c0b9c6a79ce9920104afef09748cc4426d060822d763fc5e47373134996b6b46c8afd8e5535acdf54f1a426db59eb751ad431f30b82429b260534f8b13a49e282f609c317a833fb8d976d11517c571d1221a265d25af778ecf8923490c6ceeb450aecdc82e28293031d10c7d73bf85e57bf041a97360aa2c5d99c1e072794e5d122bd353cf461af9b1161e9702549de9ac5465d9e10f8367fc023f17a3aa0a56f00f74ad70920323d8cc99cd6a546f01bf0cda81a988360c444eeda698e5aee681dfb95cd2556507a082c8fc49fa2686c5ab3c3d955b9af146a7619e1247224601acd4539abf04aafffc01a991e1beb4f366962e810fc07ac794e",
                    "decodedMethod": {
                        "callParams": [
                            {
                                "name": "_from",
                                "type": "address",
                                "value": "0x5461a7bc8856d1efab202b8f8c0a35a95b135938"
                            },
                            {
                                "name": "_to",
                                "type": "address",
                                "value": "0x5461a7bc8856d1efab202b8f8c0a35a95b135938"
                            },
                            {
                                "name": "_value",
                                "type": "uint256",
                                "value": "250,000,000,000,000,000"
                            },
                            {
                                "name": "_nonce",
                                "type": "uint256",
                                "value": "124,435"
                            },
                            {
                                "name": "_message",
                                "type": "bytes",
                                "value": "0x"
                            },
                            {
                                "name": "_proof",
                                "type": "(uint256,bytes)",
                                "value": [
                                    {
                                        "name": "batchIndex",
                                        "type": "uint256",
                                        "value": "216,099"
                                    },
                                    {
                                        "name": "merkleProof",
                                        "type": "bytes",
                                        "value": "0x263c91e90352d7761511e5649d7d1a88a90772f97f142925ce76975d9f7386b859e12986255f2fee603f87a1faa4f9f934eb209018fe9dda61d65c51374f596a6563e998538f5979032c9960f454628e27b12b0cc142588a81519dbd562b7f9821ddb9a356815c3fac1026b6dec5df3124afbadb485c9ba5a3e3398a04b7ba857602cd4be135ef6a336934fd00b1c20335362b2a2df9e78b4e0a43487d5927810eb01ebfc9ed27500cd4dfc979272d1f0913cc9f66540d7e8005811109e1cf2d887c22bd8750d34016ac3c66b5ff102dacdd73f6b014e710b51e8022af9a1968ffd70157e48063fc33c97a050f7f640233bf646cc98d9524c6b92bcf3ab56f839867cc5f7f196b93bae1e27e6320742445d290f2263827498b54fec539f756af0cc2a977244c0b9c6a79ce9920104afef09748cc4426d060822d763fc5e47373134996b6b46c8afd8e5535acdf54f1a426db59eb751ad431f30b82429b260534f8b13a49e282f609c317a833fb8d976d11517c571d1221a265d25af778ecf8923490c6ceeb450aecdc82e28293031d10c7d73bf85e57bf041a97360aa2c5d99c1e072794e5d122bd353cf461af9b1161e9702549de9ac5465d9e10f8367fc023f17a3aa0a56f00f74ad70920323d8cc99cd6a546f01bf0cda81a988360c444eeda698e5aee681dfb95cd2556507a082c8fc49fa2686c5ab3c3d955b9af146a7619e1247224601acd4539abf04aafffc01a991e1beb4f366962e810fc07ac794e"
                                    }
                                ]
                            }
                        ],
                        "constructorArguments": "",
                        "name": "relayMessageWithProof",
                        "returnParams": [],
                        "signature": "relayMessageWithProof(address,address,uint256,uint256,bytes,(uint256,bytes))"
                    },
                    "errorInfo": "",
                    "fromAddress": "0x6774bcbd5cecef1336b5300fb5186a12ddd8b367",
                    "gasUsed": 63432,
                    "id": 1,
                    "methodDecoded": true,
                    "operation": "DELEGATECALL",
                    "output": "",
                    "revert": false,
                    "revertMessage": "",
                    "selector": "0xc311b6fc",
                    "status": true,
                    "value": "0"
                },
                "nodeType": 0
            },
            "2": {
                "invocation": {
                    "address": "0xa13baf47339d63b743e7da8741db5456dac1e556",
                    "callData": "0x0000000000000000000000000000000000000000000000000000000000034c23",
                    "decodedMethod": {
                        "callParams": [
                            {
                                "name": "_batchIndex",
                                "type": "uint256",
                                "value": "216,099"
                            }
                        ],
                        "constructorArguments": "",
                        "name": "isBatchFinalized",
                        "returnParams": [
                            {
                                "name": "",
                                "type": "bool",
                                "value": true
                            }
                        ],
                        "signature": "isBatchFinalized(uint256)"
                    },
                    "errorInfo": "",
                    "fromAddress": "0x6774bcbd5cecef1336b5300fb5186a12ddd8b367",
                    "gasUsed": 9655,
                    "id": 2,
                    "methodDecoded": true,
                    "operation": "STATICCALL",
                    "output": "0x0000000000000000000000000000000000000000000000000000000000000001",
                    "revert": false,
                    "revertMessage": "",
                    "selector": "0x116a1f42",
                    "status": true,
                    "value": "0"
                },
                "nodeType": 0
            },
            "3": {
                "invocation": {
                    "address": "0xaa6d0f2490ac3957b97e11afec6f0f250593cac8",
                    "callData": "0x0000000000000000000000000000000000000000000000000000000000034c23",
                    "decodedMethod": {
                        "callParams": [
                            {
                                "name": "_batchIndex",
                                "type": "uint256",
                                "value": "216,099"
                            }
                        ],
                        "constructorArguments": "",
                        "name": "isBatchFinalized",
                        "returnParams": [
                            {
                                "name": "",
                                "type": "bool",
                                "value": true
                            }
                        ],
                        "signature": "isBatchFinalized(uint256)"
                    },
                    "errorInfo": "",
                    "fromAddress": "0xa13baf47339d63b743e7da8741db5456dac1e556",
                    "gasUsed": 2516,
                    "id": 3,
                    "methodDecoded": true,
                    "operation": "DELEGATECALL",
                    "output": "0x0000000000000000000000000000000000000000000000000000000000000001",
                    "revert": false,
                    "revertMessage": "",
                    "selector": "0x116a1f42",
                    "status": true,
                    "value": "0"
                },
                "nodeType": 0
            },
            "4": {
                "invocation": {
                    "address": "0xa13baf47339d63b743e7da8741db5456dac1e556",
                    "callData": "0x0000000000000000000000000000000000000000000000000000000000034c23",
                    "decodedMethod": {
                        "callParams": [
                            {
                                "name": "",
                                "type": "uint256",
                                "value": "216,099"
                            }
                        ],
                        "constructorArguments": "",
                        "name": "withdrawRoots",
                        "returnParams": [
                            {
                                "name": "",
                                "type": "bytes32",
                                "value": "0xd2e5aacb879860a119245de65d089fbeab069ae06cc4e66fa11f85217b5ee434"
                            }
                        ],
                        "signature": "withdrawRoots(uint256)"
                    },
                    "errorInfo": "",
                    "fromAddress": "0x6774bcbd5cecef1336b5300fb5186a12ddd8b367",
                    "gasUsed": 3140,
                    "id": 4,
                    "methodDecoded": true,
                    "operation": "STATICCALL",
                    "output": "0xd2e5aacb879860a119245de65d089fbeab069ae06cc4e66fa11f85217b5ee434",
                    "revert": false,
                    "revertMessage": "",
                    "selector": "0xea5f084f",
                    "status": true,
                    "value": "0"
                },
                "nodeType": 0
            },
            "5": {
                "invocation": {
                    "address": "0xaa6d0f2490ac3957b97e11afec6f0f250593cac8",
                    "callData": "0x0000000000000000000000000000000000000000000000000000000000034c23",
                    "decodedMethod": {
                        "callParams": [
                            {
                                "name": "",
                                "type": "uint256",
                                "value": "216,099"
                            }
                        ],
                        "constructorArguments": "",
                        "name": "withdrawRoots",
                        "returnParams": [
                            {
                                "name": "",
                                "type": "bytes32",
                                "value": "0xd2e5aacb879860a119245de65d089fbeab069ae06cc4e66fa11f85217b5ee434"
                            }
                        ],
                        "signature": "withdrawRoots(uint256)"
                    },
                    "errorInfo": "",
                    "fromAddress": "0xa13baf47339d63b743e7da8741db5456dac1e556",
                    "gasUsed": 2501,
                    "id": 5,
                    "methodDecoded": true,
                    "operation": "DELEGATECALL",
                    "output": "0xd2e5aacb879860a119245de65d089fbeab069ae06cc4e66fa11f85217b5ee434",
                    "revert": false,
                    "revertMessage": "",
                    "selector": "0xea5f084f",
                    "status": true,
                    "value": "0"
                },
                "nodeType": 0
            },
            "6": {
                "invocation": {
                    "address": "0x5461a7bc8856d1efab202b8f8c0a35a95b135938",
                    "callData": "0x",
                    "decodedMethod": null,
                    "errorInfo": "",
                    "fromAddress": "0x6774bcbd5cecef1336b5300fb5186a12ddd8b367",
                    "gasUsed": 0,
                    "id": 6,
                    "methodDecoded": false,
                    "operation": "CALL",
                    "output": "",
                    "revert": false,
                    "revertMessage": "",
                    "selector": "fallback",
                    "status": true,
                    "value": "0.25"
                },
                "nodeType": 0
            },
            "7": {
                "event": {
                    "contract": "0x6774bcbd5cecef1336b5300fb5186a12ddd8b367",
                    "decodedLog": {
                        "name": "RelayedMessage",
                        "params": [
                            {
                                "name": "msgHash",
                                "type": "bytes32",
                                "value": "0xdb836a8766ef2cb192619e4d76c1f7b679a520b08c32d7b051019981454dba3b"
                            }
                        ],
                        "signature": "RelayedMessage(bytes32)"
                    },
                    "id": 7,
                    "logData": "0x",
                    "logDecoded": true,
                    "operation": "EVENT",
                    "revert": false,
                    "status": true,
                    "topics": [
                        "0x4641df4a962071e12719d8c8c8e5ac7fc4d97b927346a3d7a335b1f7517e133c",
                        "0xdb836a8766ef2cb192619e4d76c1f7b679a520b08c32d7b051019981454dba3b"
                    ]
                },
                "nodeType": 1
            }
        },
        "gasFlame": [
            {
                "children": [
                    {
                        "children": [
                            {
                                "children": [],
                                "depth": 0,
                                "name": "Initial Gas",
                                "value": 31708
                            },
                            {
                                "children": [
                                    {
                                        "children": [
                                            {
                                                "children": [
                                                    {
                                                        "children": [],
                                                        "depth": 3,
                                                        "name": "isBatchFinalized",
                                                        "value": 2516
                                                    }
                                                ],
                                                "depth": 2,
                                                "name": "isBatchFinalized",
                                                "value": 9655
                                            },
                                            {
                                                "children": [
                                                    {
                                                        "children": [],
                                                        "depth": 3,
                                                        "name": "withdrawRoots",
                                                        "value": 2501
                                                    }
                                                ],
                                                "depth": 2,
                                                "name": "withdrawRoots",
                                                "value": 3140
                                            },
                                            {
                                                "children": [],
                                                "depth": 2,
                                                "name": "fallback",
                                                "value": 0
                                            }
                                        ],
                                        "depth": 1,
                                        "name": "relayMessageWithProof",
                                        "value": 63432
                                    }
                                ],
                                "depth": 0,
                                "name": "Executed Gas",
                                "value": 70722
                            }
                        ],
                        "depth": -1,
                        "name": "Actual Gas Used",
                        "value": 99630
                    },
                    {
                        "children": [],
                        "depth": -1,
                        "name": "Refunded Gas",
                        "value": 2800
                    }
                ],
                "depth": -2,
                "name": "Total Gas",
                "value": 102430
            }
        ],
        "isConfirmed": true,
        "mainTrace": [
            {
                "children": [
                    {
                        "children": [
                            {
                                "children": [
                                    {
                                        "children": [
                                            {
                                                "children": [],
                                                "depth": 3,
                                                "id": 3,
                                                "order": 3
                                            }
                                        ],
                                        "depth": 2,
                                        "id": 2,
                                        "order": 2
                                    },
                                    {
                                        "children": [
                                            {
                                                "children": [],
                                                "depth": 3,
                                                "id": 5,
                                                "order": 5
                                            }
                                        ],
                                        "depth": 2,
                                        "id": 4,
                                        "order": 4
                                    },
                                    {
                                        "children": [],
                                        "depth": 2,
                                        "id": 6,
                                        "order": 6
                                    },
                                    {
                                        "children": [],
                                        "depth": 2,
                                        "id": 7,
                                        "order": 7
                                    }
                                ],
                                "depth": 1,
                                "id": 1,
                                "order": 1
                            }
                        ],
                        "depth": 0,
                        "id": 0,
                        "order": 0
                    }
                ],
                "depth": -1,
                "id": -1,
                "order": -1
            }
        ],
        "mainTraceNodeCount": 8,
        "parentIdMap": {
            "0": -1,
            "1": 0,
            "2": 1,
            "3": 2,
            "4": 1,
            "5": 4,
            "6": 1,
            "7": 1
        },
        "tidyTrace": [
            {
                "children": [
                    {
                        "children": [
                            {
                                "children": [
                                    {
                                        "children": [],
                                        "depth": 2,
                                        "id": 6,
                                        "order": 6
                                    },
                                    {
                                        "children": [],
                                        "depth": 2,
                                        "id": 7,
                                        "order": 7
                                    }
                                ],
                                "depth": 1,
                                "id": 1,
                                "order": 1
                            }
                        ],
                        "depth": 0,
                        "id": 0,
                        "order": 0
                    }
                ],
                "depth": -1,
                "id": -1,
                "order": -1
            }
        ],
        "tidyTraceNodeCount": 4
    },
    "state_change": {
        "stateChanges": [
            {
                "address": "0x6774bcbd5cecef1336b5300fb5186a12ddd8b367",
                "erc": "",
                "slots": [
                    {
                        "current": "0x0000000000000000000000000000000000000000000000000000000000000001",
                        "key": "0xe45b9866f5fc2234cb9f10d2795e69231ca0bb6fa0320f2a32f75760a8572805",
                        "prev": "0x0000000000000000000000000000000000000000000000000000000000000000"
                    }
                ],
                "storageVariables": [
                    {
                        "name": "isL2MessageExecuted",
                        "type": "mapping(bytes32 => bool)",
                        "value": {
                            "pairs": [
                                {
                                    "key": "0xdb836a8766ef2cb192619e4d76c1f7b679a520b08c32d7b051019981454dba3b",
                                    "value": {
                                        "current": "true",
                                        "prev": "false",
                                        "typeTag": 1
                                    }
                                }
                            ],
                            "typeTag": 4
                        }
                    }
                ]
            }
        ]
    }
}