{
    "balance_change": {
        "balanceChanges": [
            {
                "account": "0x5df441ca651eff046d044f9da97bb68b4615eac9",
                "assets": [
                    {
                        "address": "0x0bfa2dff84fba6d6e4f7193b0c58a740e2f1523a",
                        "amount": "93",
                        "iconUrl": "",
                        "isERC1155": false,
                        "isERC721": false,
                        "sign": false,
                        "value": ""
                    }
                ]
            },
            {
                "account": "0xe50b13f78e45272f71313c711517a24653ca48c2",
                "assets": [
                    {
                        "address": "0x0bfa2dff84fba6d6e4f7193b0c58a740e2f1523a",
                        "amount": "93",
                        "iconUrl": "",
                        "isERC1155": false,
                        "isERC721": false,
                        "sign": true,
                        "value": ""
                    }
                ]
            }
        ]
    },
    "profile": {
        "basic_info": {
            "baseFee": "",
            "blockNumber": 7683469,
            "callData": "0xa9059cbb000000000000000000000000e50b13f78e45272f71313c711517a24653ca48c2000000000000000000000000000000000000000000000000000000022a52bd00",
            "debugEnable": true,
            "errorInfo": "",
            "eventCount": 1,
            "feeRecipient": "0x5a0b54d5dc17e0aadc383d2db43b0a0d3e029c4c",
            "formatValue": "0",
            "gasLimit": 200000,
            "gasPrice": "4",
            "gasUsed": 36388,
            "intTxnCount": 0,
            "internalRevert": false,
            "internalRevertMessage": "",
            "isContractCreation": false,
            "isFlashloan": false,
            "maxFee": "",
            "nonce": 1092,
            "overwritedBlockNumber": -1,
            "priorityFee": "",
            "receiver": "0x0bfa2dff84fba6d6e4f7193b0c58a740e2f1523a",
            "revertMessage": "",
            "sender": "0x5df441ca651eff046d044f9da97bb68b4615eac9",
            "simulationEnable": true,
            "sourceTxnHash": "0x83a0c776e1ec0d2b1d16fd69c8279eff2129ea10a51219d35898ec808037ea7f",
            "status": true,
            "timestamp": "2019-05-02T19:16:31Z",
            "transactionFee": "0.000145552",
            "txnHash": "0x83a0c776e1ec0d2b1d16fd69c8279eff2129ea10a51219d35898ec808037ea7f",
            "txnIndex": 52,
            "type": 0,
            "value": "0"
        },
        "fund_flow": [
            {
                "amount": "93",
                "from": "0x5df441ca651eff046d044f9da97bb68b4615eac9",
                "id": 1,
                "isERC1155": false,
                "isERC721": false,
                "isReverted": false,
                "order": 1,
                "to": "0xe50b13f78e45272f71313c711517a24653ca48c2",
                "token": "0x0bfa2dff84fba6d6e4f7193b0c58a740e2f1523a"
            }
        ],
        "token_infos": [
            {
                "address": "0xeeeeeeeeeeeeeeeeeeeeeeeeeeeeeeeeeeeeeeee",
                "decimals": 18
            },
            {
                "address": "0x0bfa2dff84fba6d6e4f7193b0c58a740e2f1523a",
                "decimals": 8
            },
            {
                "address": "0xc02aaa39b223fe8d0a0e5c4f27ead9083c756cc2",
                "decimals": 18
            }
        ]
    },
    "address_label": {
        "labels": [
            {
                "address": "0xeeeeeeeeeeeeeeeeeeeeeeeeeeeeeeeeeeeeeeee",
                "label": "Ether"
            },
            {
                "address": "0x0bfa2dff84fba6d6e4f7193b0c58a740e2f1523a",
                "label": "IMO"
            },
            {
                "address": "0x0000000000000000000000000000000000000001",
                "label": "Precompiled"
            },
            {
                "address": "0x0000000000000000000000000000000000000002",
                "label": "Precompiled"
            },
            {
                "address": "0x0000000000000000000000000000000000000003",
                "label": "Precompiled"
            },
            {
                "address": "0x0000000000000000000000000000000000000004",
                "label": "Precompiled"
            }
        ]
    },
    "trace": {
        "accountLabels": null,
        "dataMap": {
            "-1": {
                "invocation": {
                    "address": "0x5df441ca651eff046d044f9da97bb68b4615eac9",
                    "callData": "",
                    "decodedMethod": null,
                    "errorInfo": "",
                    "fromAddress": "",
                    "gasUsed": 0,
                    "id": -1,
                    "methodDecoded": false,
                    "operation": "",
                    "output": "",
                    "revert": false,
                    "revertMessage": "",
                    "selector": "",
                    "status": false,
                    "value": ""
                },
                "nodeType": 0
            },
            "0": {
                "invocation": {
                    "address": "0x0bfa2dff84fba6d6e4f7193b0c58a740e2f1523a",
                    "callData": "0x000000000000000000000000e50b13f78e45272f71313c711517a24653ca48c2000000000000000000000000000000000000000000000000000000022a52bd00",
                    "decodedMethod": {
                        "callParams": [
                            {
                                "name": "to",
                                "type": "address",
                                "value": "0xe50b13f78e45272f71313c711517a24653ca48c2"
                            },
                            {
                                "decimalAvailable": true,
                                "name": "tokens",
                                "type": "uint256",
                                "value": "9,300,000,000"
                            }
                        ],
                        "constructorArguments": "",
                        "name": "transfer",
                        "returnParams": [
                            {
                                "name": "success",
                                "type": "bool",
                                "value": true
                            }
                        ],
                        "signature": "transfer(address,uint256)"
                    },
                    "errorInfo": "",
                    "fromAddress": "0x5df441ca651eff046d044f9da97bb68b4615eac9",
                    "gasUsed": 36388,
                    "id": 0,
                    "methodDecoded": true,
                    "operation": "CALL",
                    "output": "0x0000000000000000000000000000000000000000000000000000000000000001",
                    "revert": false,
                    "revertMessage": "",
                    "selector": "0xa9059cbb",
                    "status": true,
                    "value": "0"
                },
                "nodeType": 0
            },
            "1": {
                "event": {
                    "contract": "0x0bfa2dff84fba6d6e4f7193b0c58a740e2f1523a",
                    "decodedLog": {
                        "name": "Transfer",
                        "params": [
                            {
                                "name": "from",
                                "type": "address",
                                "value": "0x5df441ca651eff046d044f9da97bb68b4615eac9"
                            },
                            {
                                "name": "to",
                                "type": "address",
                                "value": "0xe50b13f78e45272f71313c711517a24653ca48c2"
                            },
                            {
                                "decimalAvailable": true,
                                "name": "tokens",
                                "type": "uint256",
                                "value": "9,300,000,000"
                            }
                        ],
                        "signature": "Transfer(address,address,uint256)"
                    },
                    "id": 1,
                    "logData": "0x000000000000000000000000000000000000000000000000000000022a52bd00",
                    "logDecoded": true,
                    "operation": "EVENT",
                    "revert": false,
                    "status": true,
                    "topics": [
                        "0xddf252ad1be2c89b69c2b068fc378daa952ba7f163c4a11628f55a4df523b3ef",
                        "0x0000000000000000000000005df441ca651eff046d044f9da97bb68b4615eac9",
                        "0x000000000000000000000000e50b13f78e45272f71313c711517a24653ca48c2"
                    ]
                },
                "nodeType": 1
            }
        },
        "gasFlame": [
            {
                "children": [
                    {
                        "children": [
                            {
                                "children": [],
                                "depth": 0,
                                "name": "Initial Gas",
                                "value": 23064
                            },
                            {
                                "children": [],
                                "depth": 0,
                                "name": "Executed Gas",
                                "value": 13324
                            }
                        ],
                        "depth": -1,
                        "name": "Actual Gas Used",
                        "value": 36388
                    },
                    {
                        "children": [],
                        "depth": -1,
                        "name": "Refunded Gas",
                        "value": 0
                    }
                ],
                "depth": -2,
                "name": "Total Gas",
                "value": 36388
            }
        ],
        "isConfirmed": true,
        "mainTrace": [
            {
                "children": [
                    {
                        "children": [
                            {
                                "children": [],
                                "depth": 1,
                                "id": 1,
                                "order": 1
                            }
                        ],
                        "depth": 0,
                        "id": 0,
                        "order": 0
                    }
                ],
                "depth": -1,
                "id": -1,
                "order": -1
            }
        ],
        "mainTraceNodeCount": 2,
        "parentIdMap": {
            "0": -1,
            "1": 0
        },
        "tidyTrace": [
            {
                "children": [
                    {
                        "children": [
                            {
                                "children": [],
                                "depth": 1,
                                "id": 1,
                                "order": 1
                            }
                        ],
                        "depth": 0,
                        "id": 0,
                        "order": 0
                    }
                ],
                "depth": -1,
                "id": -1,
                "order": -1
            }
        ],
        "tidyTraceNodeCount": 2
    },
    "state_change": {
        "stateChanges": [
            {
                "address": "0x0bfa2dff84fba6d6e4f7193b0c58a740e2f1523a",
                "erc": "ERC-20",
                "slots": [
                    {
                        "current": "0x00000000000000000000000000000000000000000000000000005c19c0ad9869",
                        "key": "0xeb3e2b2311de74df2719c17364ecb37a0e9059d2bb871e22654da54cc6c21d67",
                        "prev": "0x00000000000000000000000000000000000000000000000000005c1beb005569"
                    },
                    {
                        "current": "0x0000000000000000000000000000000000000000000000000000000d2a554c40",
                        "key": "0x3b375bd0b7ec420635d66121c87338ad7430a974487fbb3178293cf7c556cd3b",
                        "prev": "0x0000000000000000000000000000000000000000000000000000000b00028f40"
                    }
                ],
                "storageVariables": [
                    {
                        "name": "balances",
                        "type": "mapping(address => uint256)",
                        "value": {
                            "pairs": [
                                {
                                    "key": "0x5df441ca651eff046d044f9da97bb68b4615eac9",
                                    "value": {
                                        "current": "101265676540009",
                                        "prev": "101274976540009",
                                        "typeTag": 1
                                    }
                                },
                                {
                                    "key": "0xe50b13f78e45272f71313c711517a24653ca48c2",
                                    "value": {
                                        "current": "56544808000",
                                        "prev": "47244808000",
                                        "typeTag": 1
                                    }
                                }
                            ],
                            "typeTag": 4
                        }
                    }
                ]
            }
        ]
    }
}