{
    "balance_change": {
        "balanceChanges": [
            {
                "account": "0x553e92c5910408e00bcc6d399ad9f41ed7efa8a9",
                "assets": [
                    {
                        "address": "0x514910771af9ca656af840dff83e8264ecf986ca",
                        "amount": "4,793.607543267898990211",
                        "iconUrl": "https://assets.blocksec.com/icon/f97453a18956674db69f16b525216d646fc76f3c7f90f0cd6147f8534d5af3e9.png",
                        "isERC1155": false,
                        "isERC721": false,
                        "sign": false,
                        "value": "81374.82372"
                    },
                    {
                        "address": "0x6b175474e89094c44da98b954eedeac495271d0f",
                        "amount": "15,000",
                        "iconUrl": "https://assets.blocksec.com/icon/39aead569b9c011cb6f69734d9abbc9ab6a80049fe93bbd12bb473a3e0e859a3.png",
                        "isERC1155": false,
                        "isERC721": false,
                        "sign": true,
                        "value": "15045.3069"
                    }
                ]
            },
            {
                "account": "0x0000000000000000000000000000000000000000",
                "assets": [
                    {
                        "address": "0x6b175474e89094c44da98b954eedeac495271d0f",
                        "amount": "15,000",
                        "iconUrl": "https://assets.blocksec.com/icon/39aead569b9c011cb6f69734d9abbc9ab6a80049fe93bbd12bb473a3e0e859a3.png",
                        "isERC1155": false,
                        "isERC721": false,
                        "sign": false,
                        "value": "15045.3069"
                    }
                ]
            },
            {
                "account": "0xdfccaf8fdbd2f4805c174f856a317765b49e4a50",
                "assets": [
                    {
                        "address": "0x514910771af9ca656af840dff83e8264ecf986ca",
                        "amount": "4,793.607543267898990211",
                        "iconUrl": "https://assets.blocksec.com/icon/f97453a18956674db69f16b525216d646fc76f3c7f90f0cd6147f8534d5af3e9.png",
                        "isERC1155": false,
                        "isERC721": false,
                        "sign": true,
                        "value": "81374.82372"
                    }
                ]
            }
        ]
    },
    "profile": {
        "basic_info": {
            "baseFee": "",
            "blockNumber": 12490817,
            "callData": "0x1cff79cd00000000000000000000000082ecd135dce65fbc6dbdd0e4237e0af93ffd503800000000000000000000000000000000000000000000000000000000000000400000000000000000000000000000000000000000000000000000000000000104cbd4be3f0000000000000000000000005ef30b9986345249bc32d8928b7ee64de9435e3900000000000000000000000019c0976f590d67707e62397c87829d896dc0f1f1000000000000000000000000dfccaf8fdbd2f4805c174f856a317765b49e4a500000000000000000000000009759a6ac90977b93b58547b4a71c78317f391a2800000000000000000000000000000000000000000000000000000000000047cd000000000000000000000000000000000000000000000103dcab16fb1c109e8300000000000000000000000000000000000000000000032d26d12e980b600000000000000000000000000000000000000000000000000000000000000000000100000000000000000000000000000000000000000000000000000000",
            "debugEnable": true,
            "errorInfo": "",
            "eventCount": 15,
            "feeRecipient": "0x5a0b54d5dc17e0aadc383d2db43b0a0d3e029c4c",
            "formatValue": "0",
            "gasLimit": 573300,
            "gasPrice": "246",
            "gasUsed": 281467,
            "intTxnCount": 24,
            "internalRevert": false,
            "internalRevertMessage": "",
            "isContractCreation": false,
            "isFlashloan": false,
            "maxFee": "",
            "nonce": 204,
            "overwritedBlockNumber": -1,
            "priorityFee": "",
            "receiver": "0x4f5fb03aeb5caa2009cf14548b56aa4a8913cc81",
            "revertMessage": "",
            "sender": "0x553e92c5910408e00bcc6d399ad9f41ed7efa8a9",
            "simulationEnable": true,
            "sourceTxnHash": "0x83b77394930ad8aac3d082d3366e75e0a710182db4c8a8ad1cc57fce1cde5814",
            "status": true,
            "timestamp": "2021-05-23T13:29:54Z",
            "transactionFee": "0.069240882",
            "txnHash": "0x83b77394930ad8aac3d082d3366e75e0a710182db4c8a8ad1cc57fce1cde5814",
            "txnIndex": 184,
            "type": 0,
            "value": "0"
        },
        "fund_flow": [
            {
                "amount": "4,793.607543267898990211",
                "from": "0x553e92c5910408e00bcc6d399ad9f41ed7efa8a9",
                "id": 1,
                "isERC1155": false,
                "isERC721": false,
                "isReverted": false,
                "order": 1,
                "to": "0x4f5fb03aeb5caa2009cf14548b56aa4a8913cc81",
                "token": "0x514910771af9ca656af840dff83e8264ecf986ca"
            },
            {
                "amount": "4,793.607543267898990211",
                "from": "0x4f5fb03aeb5caa2009cf14548b56aa4a8913cc81",
                "id": 2,
                "isERC1155": false,
                "isERC721": false,
                "isReverted": false,
                "order": 2,
                "to": "0xdfccaf8fdbd2f4805c174f856a317765b49e4a50",
                "token": "0x514910771af9ca656af840dff83e8264ecf986ca"
            },
            {
                "amount": "15,000",
                "from": "0x0000000000000000000000000000000000000000",
                "id": 3,
                "isERC1155": false,
                "isERC721": false,
                "isReverted": false,
                "order": 3,
                "to": "0x553e92c5910408e00bcc6d399ad9f41ed7efa8a9",
                "token": "0x6b175474e89094c44da98b954eedeac495271d0f"
            }
        ],
        "token_infos": [
            {
                "address": "0x514910771af9ca656af840dff83e8264ecf986ca",
                "decimals": 18
            },
            {
                "address": "0x6b175474e89094c44da98b954eedeac495271d0f",
                "decimals": 18
            },
            {
                "address": "0xc02aaa39b223fe8d0a0e5c4f27ead9083c756cc2",
                "decimals": 18
            },
            {
                "address": "0xeeeeeeeeeeeeeeeeeeeeeeeeeeeeeeeeeeeeeeee",
                "decimals": 18
            }
        ]
    },
    "address_label": {
        "labels": [
            {
                "address": "0x4f5fb03aeb5caa2009cf14548b56aa4a8913cc81",
                "label": "DSProxy"
            },
            {
                "address": "0x9759a6ac90977b93b58547b4a71c78317f391a28",
                "label": "Sky: MCD Join DAI"
            },
            {
                "address": "0x0000000000000000000000000000000000000002",
                "label": "Precompiled"
            },
            {
                "address": "0x0000000000000000000000000000000000000003",
                "label": "Precompiled"
            },
            {
                "address": "0x0000000000000000000000000000000000000004",
                "label": "Precompiled"
            },
            {
                "address": "0x514910771af9ca656af840dff83e8264ecf986ca",
                "label": "Chainlink: LINK Token"
            },
            {
                "address": "0xa950524441892a31ebddf91d3ceefa04bf454466",
                "label": "Sky: MCD Vow"
            },
            {
                "address": "0x19c0976f590d67707e62397c87829d896dc0f1f1",
                "label": "Maker: MCD Jug"
            },
            {
                "address": "0x5ef30b9986345249bc32d8928b7ee64de9435e39",
                "label": "Sky: CDP Manager"
            },
            {
                "address": "0x35d1b3f3d7966a1dfe207aa4514c12a259a0492b",
                "label": "Sky: MCD Vat"
            },
            {
                "address": "0xeeeeeeeeeeeeeeeeeeeeeeeeeeeeeeeeeeeeeeee",
                "label": "Ether"
            },
            {
                "address": "0x6b175474e89094c44da98b954eedeac495271d0f",
                "label": "Sky: Dai Stablecoin"
            },
            {
                "address": "0x82ecd135dce65fbc6dbdd0e4237e0af93ffd5038",
                "label": "Maker: Proxy Actions"
            },
            {
                "address": "0xdfccaf8fdbd2f4805c174f856a317765b49e4a50",
                "label": "Maker: MCD Join LINK A"
            },
            {
                "address": "0x0000000000000000000000000000000000000001",
                "label": "Precompiled"
            }
        ]
    },
    "trace": {
        "accountLabels": null,
        "dataMap": {
            "-1": {
                "invocation": {
                    "address": "0x553e92c5910408e00bcc6d399ad9f41ed7efa8a9",
                    "callData": "",
                    "decodedMethod": null,
                    "errorInfo": "",
                    "fromAddress": "",
                    "gasUsed": 0,
                    "id": -1,
                    "methodDecoded": false,
                    "operation": "",
                    "output": "",
                    "revert": false,
                    "revertMessage": "",
                    "selector": "",
                    "status": false,
                    "value": ""
                },
                "nodeType": 0
            },
            "0": {
                "invocation": {
                    "address": "0x4f5fb03aeb5caa2009cf14548b56aa4a8913cc81",
                    "callData": "0x00000000000000000000000082ecd135dce65fbc6dbdd0e4237e0af93ffd503800000000000000000000000000000000000000000000000000000000000000400000000000000000000000000000000000000000000000000000000000000104cbd4be3f0000000000000000000000005ef30b9986345249bc32d8928b7ee64de9435e3900000000000000000000000019c0976f590d67707e62397c87829d896dc0f1f1000000000000000000000000dfccaf8fdbd2f4805c174f856a317765b49e4a500000000000000000000000009759a6ac90977b93b58547b4a71c78317f391a2800000000000000000000000000000000000000000000000000000000000047cd000000000000000000000000000000000000000000000103dcab16fb1c109e8300000000000000000000000000000000000000000000032d26d12e980b600000000000000000000000000000000000000000000000000000000000000000000100000000000000000000000000000000000000000000000000000000",
                    "decodedMethod": {
                        "callParams": [
                            {
                                "name": "_target",
                                "type": "address",
                                "value": "0x82ecd135dce65fbc6dbdd0e4237e0af93ffd5038"
                            },
                            {
                                "name": "_data",
                                "type": "bytes",
                                "value": "0xcbd4be3f0000000000000000000000005ef30b9986345249bc32d8928b7ee64de9435e3900000000000000000000000019c0976f590d67707e62397c87829d896dc0f1f1000000000000000000000000dfccaf8fdbd2f4805c174f856a317765b49e4a500000000000000000000000009759a6ac90977b93b58547b4a71c78317f391a2800000000000000000000000000000000000000000000000000000000000047cd000000000000000000000000000000000000000000000103dcab16fb1c109e8300000000000000000000000000000000000000000000032d26d12e980b6000000000000000000000000000000000000000000000000000000000000000000001"
                            }
                        ],
                        "constructorArguments": "",
                        "name": "execute",
                        "returnParams": [
                            {
                                "name": "response",
                                "type": "bytes32",
                                "value": "0x0000000000000000000000000000000000000000000000000000000000000000"
                            }
                        ],
                        "signature": "execute(address,bytes)"
                    },
                    "errorInfo": "",
                    "fromAddress": "0x553e92c5910408e00bcc6d399ad9f41ed7efa8a9",
                    "gasUsed": 281467,
                    "id": 0,
                    "methodDecoded": true,
                    "operation": "CALL",
                    "output": "0x0000000000000000000000000000000000000000000000000000000000000000",
                    "revert": false,
                    "revertMessage": "",
                    "selector": "0x1cff79cd",
                    "status": true,
                    "value": "0"
                },
                "nodeType": 0
            },
            "1": {
                "event": {
                    "contract": "0x4f5fb03aeb5caa2009cf14548b56aa4a8913cc81",
                    "decodedLog": null,
                    "id": 1,
                    "logData": "0x0000000000000000000000000000000000000000000000000000000000000000000000000000000000000000000000000000000000000000000000000000004000000000000000000000000000000000000000000000000000000000000001841cff79cd00000000000000000000000082ecd135dce65fbc6dbdd0e4237e0af93ffd503800000000000000000000000000000000000000000000000000000000000000400000000000000000000000000000000000000000000000000000000000000104cbd4be3f0000000000000000000000005ef30b9986345249bc32d8928b7ee64de9435e3900000000000000000000000019c0976f590d67707e62397c87829d896dc0f1f1000000000000000000000000dfccaf8fdbd2f4805c174f856a317765b49e4a500000000000000000000000009759a6ac90977b93b58547b4a71c78317f391a2800000000000000000000000000000000000000000000000000000000000047cd000000000000000000000000000000000000000000000103dcab16fb1c109e8300000000000000000000000000000000000000000000032d26d12e980b600000000000000000000000000000000000000000000000000000000000000000000100000000000000000000000000000000000000000000000000000000",
                    "logDecoded": false,
                    "operation": "EVENT",
                    "revert": false,
                    "status": true,
                    "topics": [
                        "0x1cff79cd00000000000000000000000000000000000000000000000000000000",
                        "0x000000000000000000000000553e92c5910408e00bcc6d399ad9f41ed7efa8a9",
                        "0x00000000000000000000000082ecd135dce65fbc6dbdd0e4237e0af93ffd5038",
                        "0x0000000000000000000000000000000000000000000000000000000000000040"
                    ]
                },
                "nodeType": 1
            },
            "10": {
                "invocation": {
                    "address": "0x514910771af9ca656af840dff83e8264ecf986ca",
                    "callData": "0x000000000000000000000000dfccaf8fdbd2f4805c174f856a317765b49e4a50000000000000000000000000000000000000000000000103dcab16fb1c109e83",
                    "decodedMethod": {
                        "callParams": [
                            {
                                "name": "_spender",
                                "type": "address",
                                "value": "0xdfccaf8fdbd2f4805c174f856a317765b49e4a50"
                            },
                            {
                                "decimalAvailable": true,
                                "name": "_value",
                                "type": "uint256",
                                "value": "4,793,607,543,267,898,990,211"
                            }
                        ],
                        "constructorArguments": "",
                        "name": "approve",
                        "returnParams": [
                            {
                                "name": "",
                                "type": "bool",
                                "value": true
                            }
                        ],
                        "signature": "approve(address,uint256)"
                    },
                    "errorInfo": "",
                    "fromAddress": "0x4f5fb03aeb5caa2009cf14548b56aa4a8913cc81",
                    "gasUsed": 24795,
                    "id": 10,
                    "methodDecoded": true,
                    "operation": "CALL",
                    "output": "0x0000000000000000000000000000000000000000000000000000000000000001",
                    "revert": false,
                    "revertMessage": "",
                    "selector": "0x095ea7b3",
                    "status": true,
                    "value": "0"
                },
                "nodeType": 0
            },
            "11": {
                "event": {
                    "contract": "0x514910771af9ca656af840dff83e8264ecf986ca",
                    "decodedLog": {
                        "name": "Approval",
                        "params": [
                            {
                                "name": "owner",
                                "type": "address",
                                "value": "0x4f5fb03aeb5caa2009cf14548b56aa4a8913cc81"
                            },
                            {
                                "name": "spender",
                                "type": "address",
                                "value": "0xdfccaf8fdbd2f4805c174f856a317765b49e4a50"
                            },
                            {
                                "decimalAvailable": true,
                                "name": "value",
                                "type": "uint256",
                                "value": "4,793,607,543,267,898,990,211"
                            }
                        ],
                        "signature": "Approval(address,address,uint256)"
                    },
                    "id": 11,
                    "logData": "0x000000000000000000000000000000000000000000000103dcab16fb1c109e83",
                    "logDecoded": true,
                    "operation": "EVENT",
                    "revert": false,
                    "status": true,
                    "topics": [
                        "0x8c5be1e5ebec7d5bd14f71427d1e84f3dd0314c0f7b2291e5b200ac8c7c3b925",
                        "0x0000000000000000000000004f5fb03aeb5caa2009cf14548b56aa4a8913cc81",
                        "0x000000000000000000000000dfccaf8fdbd2f4805c174f856a317765b49e4a50"
                    ]
                },
                "nodeType": 1
            },
            "12": {
                "invocation": {
                    "address": "0xdfccaf8fdbd2f4805c174f856a317765b49e4a50",
                    "callData": "0x000000000000000000000000953d2a384227a0289ccb3dabbdeeda998357e683000000000000000000000000000000000000000000000103dcab16fb1c109e83",
                    "decodedMethod": {
                        "callParams": [
                            {
                                "name": "usr",
                                "type": "address",
                                "value": "0x953d2a384227a0289ccb3dabbdeeda998357e683"
                            },
                            {
                                "name": "wad",
                                "type": "uint256",
                                "value": "4,793,607,543,267,898,990,211"
                            }
                        ],
                        "constructorArguments": "",
                        "name": "join",
                        "returnParams": [],
                        "signature": "join(address,uint256)"
                    },
                    "errorInfo": "",
                    "fromAddress": "0x4f5fb03aeb5caa2009cf14548b56aa4a8913cc81",
                    "gasUsed": 53161,
                    "id": 12,
                    "methodDecoded": true,
                    "operation": "CALL",
                    "output": "",
                    "revert": false,
                    "revertMessage": "",
                    "selector": "0x3b4da69f",
                    "status": true,
                    "value": "0"
                },
                "nodeType": 0
            },
            "13": {
                "invocation": {
                    "address": "0x35d1b3f3d7966a1dfe207aa4514c12a259a0492b",
                    "callData": "0x4c494e4b2d410000000000000000000000000000000000000000000000000000000000000000000000000000953d2a384227a0289ccb3dabbdeeda998357e683000000000000000000000000000000000000000000000103dcab16fb1c109e83",
                    "decodedMethod": {
                        "callParams": [
                            {
                                "name": "ilk",
                                "type": "bytes32",
                                "value": "0x4c494e4b2d410000000000000000000000000000000000000000000000000000"
                            },
                            {
                                "name": "usr",
                                "type": "address",
                                "value": "0x953d2a384227a0289ccb3dabbdeeda998357e683"
                            },
                            {
                                "name": "wad",
                                "type": "int256",
                                "value": "4,793,607,543,267,898,990,211"
                            }
                        ],
                        "constructorArguments": "",
                        "name": "slip",
                        "returnParams": [],
                        "signature": "slip(bytes32,address,int256)"
                    },
                    "errorInfo": "",
                    "fromAddress": "0xdfccaf8fdbd2f4805c174f856a317765b49e4a50",
                    "gasUsed": 29484,
                    "id": 13,
                    "methodDecoded": true,
                    "operation": "CALL",
                    "output": "",
                    "revert": false,
                    "revertMessage": "",
                    "selector": "0x7cdd3fde",
                    "status": true,
                    "value": "0"
                },
                "nodeType": 0
            },
            "14": {
                "event": {
                    "contract": "0x35d1b3f3d7966a1dfe207aa4514c12a259a0492b",
                    "decodedLog": null,
                    "id": 14,
                    "logData": "0x000000000000000000000000000000000000000000000000000000000000002000000000000000000000000000000000000000000000000000000000000000e07cdd3fde4c494e4b2d410000000000000000000000000000000000000000000000000000000000000000000000000000953d2a384227a0289ccb3dabbdeeda998357e683000000000000000000000000000000000000000000000103dcab16fb1c109e8300000000000000000000000000000000000000000000000000000000000000000000000000000000000000000000000000000000000000000000000000000000000000000000000000000000000000000000000000000000000000000000000000000000000000000000000000000000000000000000000000000000",
                    "logDecoded": false,
                    "operation": "EVENT",
                    "revert": false,
                    "status": true,
                    "topics": [
                        "0x7cdd3fde00000000000000000000000000000000000000000000000000000000",
                        "0x4c494e4b2d410000000000000000000000000000000000000000000000000000",
                        "0x000000000000000000000000953d2a384227a0289ccb3dabbdeeda998357e683",
                        "0x000000000000000000000000000000000000000000000103dcab16fb1c109e83"
                    ]
                },
                "nodeType": 1
            },
            "15": {
                "invocation": {
                    "address": "0x514910771af9ca656af840dff83e8264ecf986ca",
                    "callData": "0x0000000000000000000000004f5fb03aeb5caa2009cf14548b56aa4a8913cc81000000000000000000000000dfccaf8fdbd2f4805c174f856a317765b49e4a50000000000000000000000000000000000000000000000103dcab16fb1c109e83",
                    "decodedMethod": {
                        "callParams": [
                            {
                                "name": "_from",
                                "type": "address",
                                "value": "0x4f5fb03aeb5caa2009cf14548b56aa4a8913cc81"
                            },
                            {
                                "name": "_to",
                                "type": "address",
                                "value": "0xdfccaf8fdbd2f4805c174f856a317765b49e4a50"
                            },
                            {
                                "decimalAvailable": true,
                                "name": "_value",
                                "type": "uint256",
                                "value": "4,793,607,543,267,898,990,211"
                            }
                        ],
                        "constructorArguments": "",
                        "name": "transferFrom",
                        "returnParams": [
                            {
                                "name": "",
                                "type": "bool",
                                "value": true
                            }
                        ],
                        "signature": "transferFrom(address,address,uint256)"
                    },
                    "errorInfo": "",
                    "fromAddress": "0xdfccaf8fdbd2f4805c174f856a317765b49e4a50",
                    "gasUsed": 9100,
                    "id": 15,
                    "methodDecoded": true,
                    "operation": "CALL",
                    "output": "0x0000000000000000000000000000000000000000000000000000000000000001",
                    "revert": false,
                    "revertMessage": "",
                    "selector": "0x23b872dd",
                    "status": true,
                    "value": "0"
                },
                "nodeType": 0
            },
            "16": {
                "event": {
                    "contract": "0x514910771af9ca656af840dff83e8264ecf986ca",
                    "decodedLog": {
                        "name": "Transfer",
                        "params": [
                            {
                                "name": "from",
                                "type": "address",
                                "value": "0x4f5fb03aeb5caa2009cf14548b56aa4a8913cc81"
                            },
                            {
                                "name": "to",
                                "type": "address",
                                "value": "0xdfccaf8fdbd2f4805c174f856a317765b49e4a50"
                            },
                            {
                                "decimalAvailable": true,
                                "name": "value",
                                "type": "uint256",
                                "value": "4,793,607,543,267,898,990,211"
                            }
                        ],
                        "signature": "Transfer(address,address,uint256)"
                    },
                    "id": 16,
                    "logData": "0x000000000000000000000000000000000000000000000103dcab16fb1c109e83",
                    "logDecoded": true,
                    "operation": "EVENT",
                    "revert": false,
                    "status": true,
                    "topics": [
                        "0xddf252ad1be2c89b69c2b068fc378daa952ba7f163c4a11628f55a4df523b3ef",
                        "0x0000000000000000000000004f5fb03aeb5caa2009cf14548b56aa4a8913cc81",
                        "0x000000000000000000000000dfccaf8fdbd2f4805c174f856a317765b49e4a50"
                    ]
                },
                "nodeType": 1
            },
            "17": {
                "event": {
                    "contract": "0xdfccaf8fdbd2f4805c174f856a317765b49e4a50",
                    "decodedLog": null,
                    "id": 17,
                    "logData": "0x000000000000000000000000000000000000000000000000000000000000002000000000000000000000000000000000000000000000000000000000000000e03b4da69f000000000000000000000000953d2a384227a0289ccb3dabbdeeda998357e683000000000000000000000000000000000000000000000103dcab16fb1c109e83000000000000000000000000000000000000000000000000000000000000000000000000000000000000000000000000000000000000000000000000000000000000000000000000000000000000000000000000000000000000000000000000000000000000000000000000000000000000000000000000000000000000000000000000000000000000000000000000000000000000000000000000",
                    "logDecoded": false,
                    "operation": "EVENT",
                    "revert": false,
                    "status": true,
                    "topics": [
                        "0x3b4da69f00000000000000000000000000000000000000000000000000000000",
                        "0x0000000000000000000000004f5fb03aeb5caa2009cf14548b56aa4a8913cc81",
                        "0x000000000000000000000000953d2a384227a0289ccb3dabbdeeda998357e683",
                        "0x000000000000000000000000000000000000000000000103dcab16fb1c109e83"
                    ]
                },
                "nodeType": 1
            },
            "18": {
                "invocation": {
                    "address": "0xdfccaf8fdbd2f4805c174f856a317765b49e4a50",
                    "callData": "0x",
                    "decodedMethod": {
                        "callParams": [],
                        "constructorArguments": "",
                        "name": "dec",
                        "returnParams": [
                            {
                                "name": "",
                                "type": "uint256",
                                "value": "18"
                            }
                        ],
                        "signature": "dec()"
                    },
                    "errorInfo": "",
                    "fromAddress": "0x4f5fb03aeb5caa2009cf14548b56aa4a8913cc81",
                    "gasUsed": 2349,
                    "id": 18,
                    "methodDecoded": true,
                    "operation": "CALL",
                    "output": "0x0000000000000000000000000000000000000000000000000000000000000012",
                    "revert": false,
                    "revertMessage": "",
                    "selector": "0xb3bcfa82",
                    "status": true,
                    "value": "0"
                },
                "nodeType": 0
            },
            "19": {
                "invocation": {
                    "address": "0x19c0976f590d67707e62397c87829d896dc0f1f1",
                    "callData": "0x4c494e4b2d410000000000000000000000000000000000000000000000000000",
                    "decodedMethod": {
                        "callParams": [
                            {
                                "name": "ilk",
                                "type": "bytes32",
                                "value": "0x4c494e4b2d410000000000000000000000000000000000000000000000000000"
                            }
                        ],
                        "constructorArguments": "",
                        "name": "drip",
                        "returnParams": [
                            {
                                "name": "rate",
                                "type": "uint256",
                                "value": "1,017,747,670,326,369,405,868,423,962"
                            }
                        ],
                        "signature": "drip(bytes32)"
                    },
                    "errorInfo": "",
                    "fromAddress": "0x4f5fb03aeb5caa2009cf14548b56aa4a8913cc81",
                    "gasUsed": 57097,
                    "id": 19,
                    "methodDecoded": true,
                    "operation": "CALL",
                    "output": "0x00000000000000000000000000000000000000000349dc73c2afd5d423efbb1a",
                    "revert": false,
                    "revertMessage": "",
                    "selector": "0x44e2a5a8",
                    "status": true,
                    "value": "0"
                },
                "nodeType": 0
            },
            "2": {
                "invocation": {
                    "address": "0x82ecd135dce65fbc6dbdd0e4237e0af93ffd5038",
                    "callData": "0x0000000000000000000000005ef30b9986345249bc32d8928b7ee64de9435e3900000000000000000000000019c0976f590d67707e62397c87829d896dc0f1f1000000000000000000000000dfccaf8fdbd2f4805c174f856a317765b49e4a500000000000000000000000009759a6ac90977b93b58547b4a71c78317f391a2800000000000000000000000000000000000000000000000000000000000047cd000000000000000000000000000000000000000000000103dcab16fb1c109e8300000000000000000000000000000000000000000000032d26d12e980b6000000000000000000000000000000000000000000000000000000000000000000001",
                    "decodedMethod": {
                        "callParams": [
                            {
                                "name": "manager",
                                "type": "address",
                                "value": "0x5ef30b9986345249bc32d8928b7ee64de9435e39"
                            },
                            {
                                "name": "jug",
                                "type": "address",
                                "value": "0x19c0976f590d67707e62397c87829d896dc0f1f1"
                            },
                            {
                                "name": "gemJoin",
                                "type": "address",
                                "value": "0xdfccaf8fdbd2f4805c174f856a317765b49e4a50"
                            },
                            {
                                "name": "daiJoin",
                                "type": "address",
                                "value": "0x9759a6ac90977b93b58547b4a71c78317f391a28"
                            },
                            {
                                "name": "cdp",
                                "type": "uint256",
                                "value": "18,381"
                            },
                            {
                                "name": "wadC",
                                "type": "uint256",
                                "value": "4,793,607,543,267,898,990,211"
                            },
                            {
                                "name": "wadD",
                                "type": "uint256",
                                "value": "15,000,000,000,000,000,000,000"
                            },
                            {
                                "name": "transferFrom",
                                "type": "bool",
                                "value": true
                            }
                        ],
                        "constructorArguments": "",
                        "name": "lockGemAndDraw",
                        "returnParams": [],
                        "signature": "lockGemAndDraw(address,address,address,address,uint256,uint256,uint256,bool)"
                    },
                    "errorInfo": "",
                    "fromAddress": "0x4f5fb03aeb5caa2009cf14548b56aa4a8913cc81",
                    "gasUsed": 339917,
                    "id": 2,
                    "methodDecoded": true,
                    "operation": "DELEGATECALL",
                    "output": "",
                    "revert": false,
                    "revertMessage": "",
                    "selector": "0xcbd4be3f",
                    "status": true,
                    "value": "0"
                },
                "nodeType": 0
            },
            "20": {
                "invocation": {
                    "address": "0x35d1b3f3d7966a1dfe207aa4514c12a259a0492b",
                    "callData": "0x4c494e4b2d410000000000000000000000000000000000000000000000000000",
                    "decodedMethod": {
                        "callParams": [
                            {
                                "name": "",
                                "type": "bytes32",
                                "value": "0x4c494e4b2d410000000000000000000000000000000000000000000000000000"
                            }
                        ],
                        "constructorArguments": "",
                        "name": "ilks",
                        "returnParams": [
                            {
                                "name": "Art",
                                "type": "uint256",
                                "value": "42,626,633,481,651,188,501,113,915"
                            },
                            {
                                "name": "rate",
                                "type": "uint256",
                                "value": "1,017,740,561,105,170,347,071,231,241"
                            },
                            {
                                "name": "spot",
                                "type": "uint256",
                                "value": "11,259,831,428,571,428,571,428,571,428"
                            },
                            {
                                "name": "line",
                                "type": "uint256",
                                "value": "67,318,416,636,641,817,570,609,621,968,289,291,983,908,190,629,701,845"
                            },
                            {
                                "name": "dust",
                                "type": "uint256",
                                "value": "5,000,000,000,000,000,000,000,000,000,000,000,000,000,000,000,000"
                            }
                        ],
                        "signature": "ilks(bytes32)"
                    },
                    "errorInfo": "",
                    "fromAddress": "0x19c0976f590d67707e62397c87829d896dc0f1f1",
                    "gasUsed": 11094,
                    "id": 20,
                    "methodDecoded": true,
                    "operation": "CALL",
                    "output": "0x00000000000000000000000000000000000000000023428a6e6b7a43efc4ec3b00000000000000000000000000000000000000000349daf25e6c6f8d8bb9d50900000000000000000000000000000000000000002461ea0cd5797ff37612492400000000000000000000b3ed213b518be1a772f28fe094e56351b33ebb60a8d50000000000000000000000036bcfc1194751ed30f03375d97c45000000000000",
                    "revert": false,
                    "revertMessage": "",
                    "selector": "0xd9638d36",
                    "status": true,
                    "value": "0"
                },
                "nodeType": 0
            },
            "21": {
                "invocation": {
                    "address": "0x35d1b3f3d7966a1dfe207aa4514c12a259a0492b",
                    "callData": "0x4c494e4b2d410000000000000000000000000000000000000000000000000000000000000000000000000000a950524441892a31ebddf91d3ceefa04bf454466000000000000000000000000000000000000000000000181644366469835e611",
                    "decodedMethod": {
                        "callParams": [
                            {
                                "name": "i",
                                "type": "bytes32",
                                "value": "0x4c494e4b2d410000000000000000000000000000000000000000000000000000"
                            },
                            {
                                "name": "u",
                                "type": "address",
                                "value": "0xa950524441892a31ebddf91d3ceefa04bf454466"
                            },
                            {
                                "name": "rate",
                                "type": "int256",
                                "value": "7,109,221,199,058,797,192,721"
                            }
                        ],
                        "constructorArguments": "",
                        "name": "fold",
                        "returnParams": [],
                        "signature": "fold(bytes32,address,int256)"
                    },
                    "errorInfo": "",
                    "fromAddress": "0x19c0976f590d67707e62397c87829d896dc0f1f1",
                    "gasUsed": 23110,
                    "id": 21,
                    "methodDecoded": true,
                    "operation": "CALL",
                    "output": "",
                    "revert": false,
                    "revertMessage": "",
                    "selector": "0xb65337df",
                    "status": true,
                    "value": "0"
                },
                "nodeType": 0
            },
            "22": {
                "event": {
                    "contract": "0x35d1b3f3d7966a1dfe207aa4514c12a259a0492b",
                    "decodedLog": null,
                    "id": 22,
                    "logData": "0x000000000000000000000000000000000000000000000000000000000000002000000000000000000000000000000000000000000000000000000000000000e0b65337df4c494e4b2d410000000000000000000000000000000000000000000000000000000000000000000000000000a950524441892a31ebddf91d3ceefa04bf454466000000000000000000000000000000000000000000000181644366469835e61100000000000000000000000000000000000000000000000000000000000000000000000000000000000000000000000000000000000000000000000000000000000000000000000000000000000000000000000000000000000000000000000000000000000000000000000000000000000000000000000000000000",
                    "logDecoded": false,
                    "operation": "EVENT",
                    "revert": false,
                    "status": true,
                    "topics": [
                        "0xb65337df00000000000000000000000000000000000000000000000000000000",
                        "0x4c494e4b2d410000000000000000000000000000000000000000000000000000",
                        "0x000000000000000000000000a950524441892a31ebddf91d3ceefa04bf454466",
                        "0x000000000000000000000000000000000000000000000181644366469835e611"
                    ]
                },
                "nodeType": 1
            },
            "23": {
                "event": {
                    "contract": "0x19c0976f590d67707e62397c87829d896dc0f1f1",
                    "decodedLog": null,
                    "id": 23,
                    "logData": "0x000000000000000000000000000000000000000000000000000000000000002000000000000000000000000000000000000000000000000000000000000000e044e2a5a84c494e4b2d4100000000000000000000000000000000000000000000000000000000000000000000000000000000000000000000000000000000000000000000000000000000000000000000000000000000000000000000000000000000000000000000000000000000000000000000000000000000000000000000000000000000000000000000000000000000000000000000000000000000000000000000000000000000000000000000000000000000000000000000000000000000000000000000000000000000000000000000000000000000000000000000",
                    "logDecoded": false,
                    "operation": "EVENT",
                    "revert": false,
                    "status": true,
                    "topics": [
                        "0x44e2a5a800000000000000000000000000000000000000000000000000000000",
                        "0x0000000000000000000000004f5fb03aeb5caa2009cf14548b56aa4a8913cc81",
                        "0x4c494e4b2d410000000000000000000000000000000000000000000000000000",
                        "0x0000000000000000000000000000000000000000000000000000000000000000"
                    ]
                },
                "nodeType": 1
            },
            "24": {
                "invocation": {
                    "address": "0x35d1b3f3d7966a1dfe207aa4514c12a259a0492b",
                    "callData": "0x000000000000000000000000953d2a384227a0289ccb3dabbdeeda998357e683",
                    "decodedMethod": {
                        "callParams": [
                            {
                                "name": "",
                                "type": "address",
                                "value": "0x953d2a384227a0289ccb3dabbdeeda998357e683"
                            }
                        ],
                        "constructorArguments": "",
                        "name": "dai",
                        "returnParams": [
                            {
                                "name": "",
                                "type": "uint256",
                                "value": "450,573,088,441,538,476,683,645,330"
                            }
                        ],
                        "signature": "dai(address)"
                    },
                    "errorInfo": "",
                    "fromAddress": "0x4f5fb03aeb5caa2009cf14548b56aa4a8913cc81",
                    "gasUsed": 2536,
                    "id": 24,
                    "methodDecoded": true,
                    "operation": "STATICCALL",
                    "output": "0x00000000000000000000000000000000000000000174b490114da44191e55192",
                    "revert": false,
                    "revertMessage": "",
                    "selector": "0x6c25b346",
                    "status": true,
                    "value": "0"
                },
                "nodeType": 0
            },
            "25": {
                "invocation": {
                    "address": "0x5ef30b9986345249bc32d8928b7ee64de9435e39",
                    "callData": "0x00000000000000000000000000000000000000000000000000000000000047cd000000000000000000000000000000000000000000000103dcab16fb1c109e8300000000000000000000000000000000000000000000031ef8c41a296ccb7f61",
                    "decodedMethod": {
                        "callParams": [
                            {
                                "name": "cdp",
                                "type": "uint256",
                                "value": "18,381"
                            },
                            {
                                "name": "dink",
                                "type": "int256",
                                "value": "4,793,607,543,267,898,990,211"
                            },
                            {
                                "name": "dart",
                                "type": "int256",
                                "value": "14,738,427,252,002,284,863,329"
                            }
                        ],
                        "constructorArguments": "",
                        "name": "frob",
                        "returnParams": [],
                        "signature": "frob(uint256,int256,int256)"
                    },
                    "errorInfo": "",
                    "fromAddress": "0x4f5fb03aeb5caa2009cf14548b56aa4a8913cc81",
                    "gasUsed": 39668,
                    "id": 25,
                    "methodDecoded": true,
                    "operation": "CALL",
                    "output": "",
                    "revert": false,
                    "revertMessage": "",
                    "selector": "0x45e6bdcd",
                    "status": true,
                    "value": "0"
                },
                "nodeType": 0
            },
            "26": {
                "invocation": {
                    "address": "0x35d1b3f3d7966a1dfe207aa4514c12a259a0492b",
                    "callData": "0x4c494e4b2d410000000000000000000000000000000000000000000000000000000000000000000000000000953d2a384227a0289ccb3dabbdeeda998357e683000000000000000000000000953d2a384227a0289ccb3dabbdeeda998357e683000000000000000000000000953d2a384227a0289ccb3dabbdeeda998357e683000000000000000000000000000000000000000000000103dcab16fb1c109e8300000000000000000000000000000000000000000000031ef8c41a296ccb7f61",
                    "decodedMethod": {
                        "callParams": [
                            {
                                "name": "i",
                                "type": "bytes32",
                                "value": "0x4c494e4b2d410000000000000000000000000000000000000000000000000000"
                            },
                            {
                                "name": "u",
                                "type": "address",
                                "value": "0x953d2a384227a0289ccb3dabbdeeda998357e683"
                            },
                            {
                                "name": "v",
                                "type": "address",
                                "value": "0x953d2a384227a0289ccb3dabbdeeda998357e683"
                            },
                            {
                                "name": "w",
                                "type": "address",
                                "value": "0x953d2a384227a0289ccb3dabbdeeda998357e683"
                            },
                            {
                                "name": "dink",
                                "type": "int256",
                                "value": "4,793,607,543,267,898,990,211"
                            },
                            {
                                "name": "dart",
                                "type": "int256",
                                "value": "14,738,427,252,002,284,863,329"
                            }
                        ],
                        "constructorArguments": "",
                        "name": "frob",
                        "returnParams": [],
                        "signature": "frob(bytes32,address,address,address,int256,int256)"
                    },
                    "errorInfo": "",
                    "fromAddress": "0x5ef30b9986345249bc32d8928b7ee64de9435e39",
                    "gasUsed": 31657,
                    "id": 26,
                    "methodDecoded": true,
                    "operation": "CALL",
                    "output": "",
                    "revert": false,
                    "revertMessage": "",
                    "selector": "0x76088703",
                    "status": true,
                    "value": "0"
                },
                "nodeType": 0
            },
            "27": {
                "event": {
                    "contract": "0x35d1b3f3d7966a1dfe207aa4514c12a259a0492b",
                    "decodedLog": null,
                    "id": 27,
                    "logData": "0x000000000000000000000000000000000000000000000000000000000000002000000000000000000000000000000000000000000000000000000000000000e0760887034c494e4b2d410000000000000000000000000000000000000000000000000000000000000000000000000000953d2a384227a0289ccb3dabbdeeda998357e683000000000000000000000000953d2a384227a0289ccb3dabbdeeda998357e683000000000000000000000000953d2a384227a0289ccb3dabbdeeda998357e683000000000000000000000000000000000000000000000103dcab16fb1c109e8300000000000000000000000000000000000000000000031ef8c41a296ccb7f6100000000000000000000000000000000000000000000000000000000",
                    "logDecoded": false,
                    "operation": "EVENT",
                    "revert": false,
                    "status": true,
                    "topics": [
                        "0x7608870300000000000000000000000000000000000000000000000000000000",
                        "0x4c494e4b2d410000000000000000000000000000000000000000000000000000",
                        "0x000000000000000000000000953d2a384227a0289ccb3dabbdeeda998357e683",
                        "0x000000000000000000000000953d2a384227a0289ccb3dabbdeeda998357e683"
                    ]
                },
                "nodeType": 1
            },
            "28": {
                "event": {
                    "contract": "0x5ef30b9986345249bc32d8928b7ee64de9435e39",
                    "decodedLog": null,
                    "id": 28,
                    "logData": "0x000000000000000000000000000000000000000000000000000000000000002000000000000000000000000000000000000000000000000000000000000000e045e6bdcd00000000000000000000000000000000000000000000000000000000000047cd000000000000000000000000000000000000000000000103dcab16fb1c109e8300000000000000000000000000000000000000000000031ef8c41a296ccb7f6100000000000000000000000000000000000000000000000000000000000000000000000000000000000000000000000000000000000000000000000000000000000000000000000000000000000000000000000000000000000000000000000000000000000000000000000000000000000000000000000000000000",
                    "logDecoded": false,
                    "operation": "EVENT",
                    "revert": false,
                    "status": true,
                    "topics": [
                        "0x45e6bdcd00000000000000000000000000000000000000000000000000000000",
                        "0x0000000000000000000000004f5fb03aeb5caa2009cf14548b56aa4a8913cc81",
                        "0x00000000000000000000000000000000000000000000000000000000000047cd",
                        "0x000000000000000000000000000000000000000000000103dcab16fb1c109e83"
                    ]
                },
                "nodeType": 1
            },
            "29": {
                "invocation": {
                    "address": "0x5ef30b9986345249bc32d8928b7ee64de9435e39",
                    "callData": "0x00000000000000000000000000000000000000000000000000000000000047cd0000000000000000000000004f5fb03aeb5caa2009cf14548b56aa4a8913cc8100000000000000000000000a436f434bd5f5c792d09a618c74cf000000000000",
                    "decodedMethod": {
                        "callParams": [
                            {
                                "name": "cdp",
                                "type": "uint256",
                                "value": "18,381"
                            },
                            {
                                "name": "dst",
                                "type": "address",
                                "value": "0x4f5fb03aeb5caa2009cf14548b56aa4a8913cc81"
                            },
                            {
                                "name": "rad",
                                "type": "uint256",
                                "value": "15,000,000,000,000,000,000,000,000,000,000,000,000,000,000,000,000"
                            }
                        ],
                        "constructorArguments": "",
                        "name": "move",
                        "returnParams": [],
                        "signature": "move(uint256,address,uint256)"
                    },
                    "errorInfo": "",
                    "fromAddress": "0x4f5fb03aeb5caa2009cf14548b56aa4a8913cc81",
                    "gasUsed": 33709,
                    "id": 29,
                    "methodDecoded": true,
                    "operation": "CALL",
                    "output": "",
                    "revert": false,
                    "revertMessage": "",
                    "selector": "0xf9f30db6",
                    "status": true,
                    "value": "0"
                },
                "nodeType": 0
            },
            "3": {
                "invocation": {
                    "address": "0x5ef30b9986345249bc32d8928b7ee64de9435e39",
                    "callData": "0x00000000000000000000000000000000000000000000000000000000000047cd",
                    "decodedMethod": {
                        "callParams": [
                            {
                                "name": "",
                                "type": "uint256",
                                "value": "18,381"
                            }
                        ],
                        "constructorArguments": "",
                        "name": "urns",
                        "returnParams": [
                            {
                                "name": "",
                                "type": "address",
                                "value": "0x953d2a384227a0289ccb3dabbdeeda998357e683"
                            }
                        ],
                        "signature": "urns(uint256)"
                    },
                    "errorInfo": "",
                    "fromAddress": "0x4f5fb03aeb5caa2009cf14548b56aa4a8913cc81",
                    "gasUsed": 2612,
                    "id": 3,
                    "methodDecoded": true,
                    "operation": "STATICCALL",
                    "output": "0x000000000000000000000000953d2a384227a0289ccb3dabbdeeda998357e683",
                    "revert": false,
                    "revertMessage": "",
                    "selector": "0x2726b073",
                    "status": true,
                    "value": "0"
                },
                "nodeType": 0
            },
            "30": {
                "invocation": {
                    "address": "0x35d1b3f3d7966a1dfe207aa4514c12a259a0492b",
                    "callData": "0x000000000000000000000000953d2a384227a0289ccb3dabbdeeda998357e6830000000000000000000000004f5fb03aeb5caa2009cf14548b56aa4a8913cc8100000000000000000000000a436f434bd5f5c792d09a618c74cf000000000000",
                    "decodedMethod": {
                        "callParams": [
                            {
                                "name": "src",
                                "type": "address",
                                "value": "0x953d2a384227a0289ccb3dabbdeeda998357e683"
                            },
                            {
                                "name": "dst",
                                "type": "address",
                                "value": "0x4f5fb03aeb5caa2009cf14548b56aa4a8913cc81"
                            },
                            {
                                "name": "rad",
                                "type": "uint256",
                                "value": "15,000,000,000,000,000,000,000,000,000,000,000,000,000,000,000,000"
                            }
                        ],
                        "constructorArguments": "",
                        "name": "move",
                        "returnParams": [],
                        "signature": "move(address,address,uint256)"
                    },
                    "errorInfo": "",
                    "fromAddress": "0x5ef30b9986345249bc32d8928b7ee64de9435e39",
                    "gasUsed": 27943,
                    "id": 30,
                    "methodDecoded": true,
                    "operation": "CALL",
                    "output": "",
                    "revert": false,
                    "revertMessage": "",
                    "selector": "0xbb35783b",
                    "status": true,
                    "value": "0"
                },
                "nodeType": 0
            },
            "31": {
                "event": {
                    "contract": "0x35d1b3f3d7966a1dfe207aa4514c12a259a0492b",
                    "decodedLog": null,
                    "id": 31,
                    "logData": "0x000000000000000000000000000000000000000000000000000000000000002000000000000000000000000000000000000000000000000000000000000000e0bb35783b000000000000000000000000953d2a384227a0289ccb3dabbdeeda998357e6830000000000000000000000004f5fb03aeb5caa2009cf14548b56aa4a8913cc8100000000000000000000000a436f434bd5f5c792d09a618c74cf00000000000000000000000000000000000000000000000000000000000000000000000000000000000000000000000000000000000000000000000000000000000000000000000000000000000000000000000000000000000000000000000000000000000000000000000000000000000000000000000000000000000000000000",
                    "logDecoded": false,
                    "operation": "EVENT",
                    "revert": false,
                    "status": true,
                    "topics": [
                        "0xbb35783b00000000000000000000000000000000000000000000000000000000",
                        "0x000000000000000000000000953d2a384227a0289ccb3dabbdeeda998357e683",
                        "0x0000000000000000000000004f5fb03aeb5caa2009cf14548b56aa4a8913cc81",
                        "0x00000000000000000000000a436f434bd5f5c792d09a618c74cf000000000000"
                    ]
                },
                "nodeType": 1
            },
            "32": {
                "event": {
                    "contract": "0x5ef30b9986345249bc32d8928b7ee64de9435e39",
                    "decodedLog": null,
                    "id": 32,
                    "logData": "0x000000000000000000000000000000000000000000000000000000000000002000000000000000000000000000000000000000000000000000000000000000e0f9f30db600000000000000000000000000000000000000000000000000000000000047cd0000000000000000000000004f5fb03aeb5caa2009cf14548b56aa4a8913cc8100000000000000000000000a436f434bd5f5c792d09a618c74cf00000000000000000000000000000000000000000000000000000000000000000000000000000000000000000000000000000000000000000000000000000000000000000000000000000000000000000000000000000000000000000000000000000000000000000000000000000000000000000000000000000000000000000000",
                    "logDecoded": false,
                    "operation": "EVENT",
                    "revert": false,
                    "status": true,
                    "topics": [
                        "0xf9f30db600000000000000000000000000000000000000000000000000000000",
                        "0x0000000000000000000000004f5fb03aeb5caa2009cf14548b56aa4a8913cc81",
                        "0x00000000000000000000000000000000000000000000000000000000000047cd",
                        "0x0000000000000000000000004f5fb03aeb5caa2009cf14548b56aa4a8913cc81"
                    ]
                },
                "nodeType": 1
            },
            "33": {
                "invocation": {
                    "address": "0x35d1b3f3d7966a1dfe207aa4514c12a259a0492b",
                    "callData": "0x0000000000000000000000004f5fb03aeb5caa2009cf14548b56aa4a8913cc810000000000000000000000009759a6ac90977b93b58547b4a71c78317f391a28",
                    "decodedMethod": {
                        "callParams": [
                            {
                                "name": "",
                                "type": "address",
                                "value": "0x4f5fb03aeb5caa2009cf14548b56aa4a8913cc81"
                            },
                            {
                                "name": "",
                                "type": "address",
                                "value": "0x9759a6ac90977b93b58547b4a71c78317f391a28"
                            }
                        ],
                        "constructorArguments": "",
                        "name": "can",
                        "returnParams": [
                            {
                                "name": "",
                                "type": "uint256",
                                "value": "1"
                            }
                        ],
                        "signature": "can(address,address)"
                    },
                    "errorInfo": "",
                    "fromAddress": "0x4f5fb03aeb5caa2009cf14548b56aa4a8913cc81",
                    "gasUsed": 2613,
                    "id": 33,
                    "methodDecoded": true,
                    "operation": "STATICCALL",
                    "output": "0x0000000000000000000000000000000000000000000000000000000000000001",
                    "revert": false,
                    "revertMessage": "",
                    "selector": "0x4538c4eb",
                    "status": true,
                    "value": "0"
                },
                "nodeType": 0
            },
            "34": {
                "invocation": {
                    "address": "0x9759a6ac90977b93b58547b4a71c78317f391a28",
                    "callData": "0x000000000000000000000000553e92c5910408e00bcc6d399ad9f41ed7efa8a900000000000000000000000000000000000000000000032d26d12e980b600000",
                    "decodedMethod": {
                        "callParams": [
                            {
                                "name": "usr",
                                "type": "address",
                                "value": "0x553e92c5910408e00bcc6d399ad9f41ed7efa8a9"
                            },
                            {
                                "name": "wad",
                                "type": "uint256",
                                "value": "15,000,000,000,000,000,000,000"
                            }
                        ],
                        "constructorArguments": "",
                        "name": "exit",
                        "returnParams": [],
                        "signature": "exit(address,uint256)"
                    },
                    "errorInfo": "",
                    "fromAddress": "0x4f5fb03aeb5caa2009cf14548b56aa4a8913cc81",
                    "gasUsed": 57201,
                    "id": 34,
                    "methodDecoded": true,
                    "operation": "CALL",
                    "output": "",
                    "revert": false,
                    "revertMessage": "",
                    "selector": "0xef693bed",
                    "status": true,
                    "value": "0"
                },
                "nodeType": 0
            },
            "35": {
                "invocation": {
                    "address": "0x35d1b3f3d7966a1dfe207aa4514c12a259a0492b",
                    "callData": "0x0000000000000000000000004f5fb03aeb5caa2009cf14548b56aa4a8913cc810000000000000000000000009759a6ac90977b93b58547b4a71c78317f391a2800000000000000000000000a436f434bd5f5c792d09a618c74cf000000000000",
                    "decodedMethod": {
                        "callParams": [
                            {
                                "name": "src",
                                "type": "address",
                                "value": "0x4f5fb03aeb5caa2009cf14548b56aa4a8913cc81"
                            },
                            {
                                "name": "dst",
                                "type": "address",
                                "value": "0x9759a6ac90977b93b58547b4a71c78317f391a28"
                            },
                            {
                                "name": "rad",
                                "type": "uint256",
                                "value": "15,000,000,000,000,000,000,000,000,000,000,000,000,000,000,000,000"
                            }
                        ],
                        "constructorArguments": "",
                        "name": "move",
                        "returnParams": [],
                        "signature": "move(address,address,uint256)"
                    },
                    "errorInfo": "",
                    "fromAddress": "0x9759a6ac90977b93b58547b4a71c78317f391a28",
                    "gasUsed": 10843,
                    "id": 35,
                    "methodDecoded": true,
                    "operation": "CALL",
                    "output": "",
                    "revert": false,
                    "revertMessage": "",
                    "selector": "0xbb35783b",
                    "status": true,
                    "value": "0"
                },
                "nodeType": 0
            },
            "36": {
                "event": {
                    "contract": "0x35d1b3f3d7966a1dfe207aa4514c12a259a0492b",
                    "decodedLog": null,
                    "id": 36,
                    "logData": "0x000000000000000000000000000000000000000000000000000000000000002000000000000000000000000000000000000000000000000000000000000000e0bb35783b0000000000000000000000004f5fb03aeb5caa2009cf14548b56aa4a8913cc810000000000000000000000009759a6ac90977b93b58547b4a71c78317f391a2800000000000000000000000a436f434bd5f5c792d09a618c74cf00000000000000000000000000000000000000000000000000000000000000000000000000000000000000000000000000000000000000000000000000000000000000000000000000000000000000000000000000000000000000000000000000000000000000000000000000000000000000000000000000000000000000000000",
                    "logDecoded": false,
                    "operation": "EVENT",
                    "revert": false,
                    "status": true,
                    "topics": [
                        "0xbb35783b00000000000000000000000000000000000000000000000000000000",
                        "0x0000000000000000000000004f5fb03aeb5caa2009cf14548b56aa4a8913cc81",
                        "0x0000000000000000000000009759a6ac90977b93b58547b4a71c78317f391a28",
                        "0x00000000000000000000000a436f434bd5f5c792d09a618c74cf000000000000"
                    ]
                },
                "nodeType": 1
            },
            "37": {
                "invocation": {
                    "address": "0x6b175474e89094c44da98b954eedeac495271d0f",
                    "callData": "0x000000000000000000000000553e92c5910408e00bcc6d399ad9f41ed7efa8a900000000000000000000000000000000000000000000032d26d12e980b600000",
                    "decodedMethod": {
                        "callParams": [
                            {
                                "name": "usr",
                                "type": "address",
                                "value": "0x553e92c5910408e00bcc6d399ad9f41ed7efa8a9"
                            },
                            {
                                "name": "wad",
                                "type": "uint256",
                                "value": "15,000,000,000,000,000,000,000"
                            }
                        ],
                        "constructorArguments": "",
                        "name": "mint",
                        "returnParams": [],
                        "signature": "mint(address,uint256)"
                    },
                    "errorInfo": "",
                    "fromAddress": "0x9759a6ac90977b93b58547b4a71c78317f391a28",
                    "gasUsed": 31845,
                    "id": 37,
                    "methodDecoded": true,
                    "operation": "CALL",
                    "output": "",
                    "revert": false,
                    "revertMessage": "",
                    "selector": "0x40c10f19",
                    "status": true,
                    "value": "0"
                },
                "nodeType": 0
            },
            "38": {
                "event": {
                    "contract": "0x6b175474e89094c44da98b954eedeac495271d0f",
                    "decodedLog": {
                        "name": "Transfer",
                        "params": [
                            {
                                "name": "src",
                                "type": "address",
                                "value": "0x0000000000000000000000000000000000000000"
                            },
                            {
                                "name": "dst",
                                "type": "address",
                                "value": "0x553e92c5910408e00bcc6d399ad9f41ed7efa8a9"
                            },
                            {
                                "decimalAvailable": true,
                                "name": "wad",
                                "type": "uint256",
                                "value": "15,000,000,000,000,000,000,000"
                            }
                        ],
                        "signature": "Transfer(address,address,uint256)"
                    },
                    "id": 38,
                    "logData": "0x00000000000000000000000000000000000000000000032d26d12e980b600000",
                    "logDecoded": true,
                    "operation": "EVENT",
                    "revert": false,
                    "status": true,
                    "topics": [
                        "0xddf252ad1be2c89b69c2b068fc378daa952ba7f163c4a11628f55a4df523b3ef",
                        "0x0000000000000000000000000000000000000000000000000000000000000000",
                        "0x000000000000000000000000553e92c5910408e00bcc6d399ad9f41ed7efa8a9"
                    ]
                },
                "nodeType": 1
            },
            "39": {
                "event": {
                    "contract": "0x9759a6ac90977b93b58547b4a71c78317f391a28",
                    "decodedLog": null,
                    "id": 39,
                    "logData": "0x000000000000000000000000000000000000000000000000000000000000002000000000000000000000000000000000000000000000000000000000000000e0ef693bed000000000000000000000000553e92c5910408e00bcc6d399ad9f41ed7efa8a900000000000000000000000000000000000000000000032d26d12e980b600000000000000000000000000000000000000000000000000000000000000000000000000000000000000000000000000000000000000000000000000000000000000000000000000000000000000000000000000000000000000000000000000000000000000000000000000000000000000000000000000000000000000000000000000000000000000000000000000000000000000000000000000000",
                    "logDecoded": false,
                    "operation": "EVENT",
                    "revert": false,
                    "status": true,
                    "topics": [
                        "0xef693bed00000000000000000000000000000000000000000000000000000000",
                        "0x0000000000000000000000004f5fb03aeb5caa2009cf14548b56aa4a8913cc81",
                        "0x000000000000000000000000553e92c5910408e00bcc6d399ad9f41ed7efa8a9",
                        "0x00000000000000000000000000000000000000000000032d26d12e980b600000"
                    ]
                },
                "nodeType": 1
            },
            "4": {
                "invocation": {
                    "address": "0x5ef30b9986345249bc32d8928b7ee64de9435e39",
                    "callData": "0x",
                    "decodedMethod": {
                        "callParams": [],
                        "constructorArguments": "",
                        "name": "vat",
                        "returnParams": [
                            {
                                "name": "",
                                "type": "address",
                                "value": "0x35d1b3f3d7966a1dfe207aa4514c12a259a0492b"
                            }
                        ],
                        "signature": "vat()"
                    },
                    "errorInfo": "",
                    "fromAddress": "0x4f5fb03aeb5caa2009cf14548b56aa4a8913cc81",
                    "gasUsed": 2398,
                    "id": 4,
                    "methodDecoded": true,
                    "operation": "STATICCALL",
                    "output": "0x00000000000000000000000035d1b3f3d7966a1dfe207aa4514c12a259a0492b",
                    "revert": false,
                    "revertMessage": "",
                    "selector": "0x36569e77",
                    "status": true,
                    "value": "0"
                },
                "nodeType": 0
            },
            "5": {
                "invocation": {
                    "address": "0x5ef30b9986345249bc32d8928b7ee64de9435e39",
                    "callData": "0x00000000000000000000000000000000000000000000000000000000000047cd",
                    "decodedMethod": {
                        "callParams": [
                            {
                                "name": "",
                                "type": "uint256",
                                "value": "18,381"
                            }
                        ],
                        "constructorArguments": "",
                        "name": "ilks",
                        "returnParams": [
                            {
                                "name": "",
                                "type": "bytes32",
                                "value": "0x4c494e4b2d410000000000000000000000000000000000000000000000000000"
                            }
                        ],
                        "signature": "ilks(uint256)"
                    },
                    "errorInfo": "",
                    "fromAddress": "0x4f5fb03aeb5caa2009cf14548b56aa4a8913cc81",
                    "gasUsed": 2486,
                    "id": 5,
                    "methodDecoded": true,
                    "operation": "STATICCALL",
                    "output": "0x4c494e4b2d410000000000000000000000000000000000000000000000000000",
                    "revert": false,
                    "revertMessage": "",
                    "selector": "0x2c2cb9fd",
                    "status": true,
                    "value": "0"
                },
                "nodeType": 0
            },
            "6": {
                "invocation": {
                    "address": "0xdfccaf8fdbd2f4805c174f856a317765b49e4a50",
                    "callData": "0x",
                    "decodedMethod": {
                        "callParams": [],
                        "constructorArguments": "",
                        "name": "gem",
                        "returnParams": [
                            {
                                "name": "",
                                "type": "address",
                                "value": "0x514910771af9ca656af840dff83e8264ecf986ca"
                            }
                        ],
                        "signature": "gem()"
                    },
                    "errorInfo": "",
                    "fromAddress": "0x4f5fb03aeb5caa2009cf14548b56aa4a8913cc81",
                    "gasUsed": 2442,
                    "id": 6,
                    "methodDecoded": true,
                    "operation": "CALL",
                    "output": "0x000000000000000000000000514910771af9ca656af840dff83e8264ecf986ca",
                    "revert": false,
                    "revertMessage": "",
                    "selector": "0x7bd2bea7",
                    "status": true,
                    "value": "0"
                },
                "nodeType": 0
            },
            "7": {
                "invocation": {
                    "address": "0x514910771af9ca656af840dff83e8264ecf986ca",
                    "callData": "0x000000000000000000000000553e92c5910408e00bcc6d399ad9f41ed7efa8a90000000000000000000000004f5fb03aeb5caa2009cf14548b56aa4a8913cc81000000000000000000000000000000000000000000000103dcab16fb1c109e83",
                    "decodedMethod": {
                        "callParams": [
                            {
                                "name": "_from",
                                "type": "address",
                                "value": "0x553e92c5910408e00bcc6d399ad9f41ed7efa8a9"
                            },
                            {
                                "name": "_to",
                                "type": "address",
                                "value": "0x4f5fb03aeb5caa2009cf14548b56aa4a8913cc81"
                            },
                            {
                                "decimalAvailable": true,
                                "name": "_value",
                                "type": "uint256",
                                "value": "4,793,607,543,267,898,990,211"
                            }
                        ],
                        "constructorArguments": "",
                        "name": "transferFrom",
                        "returnParams": [
                            {
                                "name": "",
                                "type": "bool",
                                "value": true
                            }
                        ],
                        "signature": "transferFrom(address,address,uint256)"
                    },
                    "errorInfo": "",
                    "fromAddress": "0x4f5fb03aeb5caa2009cf14548b56aa4a8913cc81",
                    "gasUsed": 35800,
                    "id": 7,
                    "methodDecoded": true,
                    "operation": "CALL",
                    "output": "0x0000000000000000000000000000000000000000000000000000000000000001",
                    "revert": false,
                    "revertMessage": "",
                    "selector": "0x23b872dd",
                    "status": true,
                    "value": "0"
                },
                "nodeType": 0
            },
            "8": {
                "event": {
                    "contract": "0x514910771af9ca656af840dff83e8264ecf986ca",
                    "decodedLog": {
                        "name": "Transfer",
                        "params": [
                            {
                                "name": "from",
                                "type": "address",
                                "value": "0x553e92c5910408e00bcc6d399ad9f41ed7efa8a9"
                            },
                            {
                                "name": "to",
                                "type": "address",
                                "value": "0x4f5fb03aeb5caa2009cf14548b56aa4a8913cc81"
                            },
                            {
                                "decimalAvailable": true,
                                "name": "value",
                                "type": "uint256",
                                "value": "4,793,607,543,267,898,990,211"
                            }
                        ],
                        "signature": "Transfer(address,address,uint256)"
                    },
                    "id": 8,
                    "logData": "0x000000000000000000000000000000000000000000000103dcab16fb1c109e83",
                    "logDecoded": true,
                    "operation": "EVENT",
                    "revert": false,
                    "status": true,
                    "topics": [
                        "0xddf252ad1be2c89b69c2b068fc378daa952ba7f163c4a11628f55a4df523b3ef",
                        "0x000000000000000000000000553e92c5910408e00bcc6d399ad9f41ed7efa8a9",
                        "0x0000000000000000000000004f5fb03aeb5caa2009cf14548b56aa4a8913cc81"
                    ]
                },
                "nodeType": 1
            },
            "9": {
                "invocation": {
                    "address": "0xdfccaf8fdbd2f4805c174f856a317765b49e4a50",
                    "callData": "0x",
                    "decodedMethod": {
                        "callParams": [],
                        "constructorArguments": "",
                        "name": "gem",
                        "returnParams": [
                            {
                                "name": "",
                                "type": "address",
                                "value": "0x514910771af9ca656af840dff83e8264ecf986ca"
                            }
                        ],
                        "signature": "gem()"
                    },
                    "errorInfo": "",
                    "fromAddress": "0x4f5fb03aeb5caa2009cf14548b56aa4a8913cc81",
                    "gasUsed": 442,
                    "id": 9,
                    "methodDecoded": true,
                    "operation": "CALL",
                    "output": "0x000000000000000000000000514910771af9ca656af840dff83e8264ecf986ca",
                    "revert": false,
                    "revertMessage": "",
                    "selector": "0x7bd2bea7",
                    "status": true,
                    "value": "0"
                },
                "nodeType": 0
            }
        },
        "gasFlame": [
            {
                "children": [
                    {
                        "children": [
                            {
                                "children": [],
                                "depth": 0,
                                "name": "Initial Gas",
                                "value": 24136
                            },
                            {
                                "children": [
                                    {
                                        "children": [
                                            {
                                                "children": [],
                                                "depth": 2,
                                                "name": "urns",
                                                "value": 2612
                                            },
                                            {
                                                "children": [],
                                                "depth": 2,
                                                "name": "vat",
                                                "value": 2398
                                            },
                                            {
                                                "children": [],
                                                "depth": 2,
                                                "name": "ilks",
                                                "value": 2486
                                            },
                                            {
                                                "children": [],
                                                "depth": 2,
                                                "name": "gem",
                                                "value": 2442
                                            },
                                            {
                                                "children": [],
                                                "depth": 2,
                                                "name": "transferFrom",
                                                "value": 35800
                                            },
                                            {
                                                "children": [],
                                                "depth": 2,
                                                "name": "gem",
                                                "value": 442
                                            },
                                            {
                                                "children": [],
                                                "depth": 2,
                                                "name": "approve",
                                                "value": 24795
                                            },
                                            {
                                                "children": [
                                                    {
                                                        "children": [],
                                                        "depth": 3,
                                                        "name": "slip",
                                                        "value": 29484
                                                    },
                                                    {
                                                        "children": [],
                                                        "depth": 3,
                                                        "name": "transferFrom",
                                                        "value": 9100
                                                    }
                                                ],
                                                "depth": 2,
                                                "name": "join",
                                                "value": 53161
                                            },
                                            {
                                                "children": [],
                                                "depth": 2,
                                                "name": "dec",
                                                "value": 2349
                                            },
                                            {
                                                "children": [
                                                    {
                                                        "children": [],
                                                        "depth": 3,
                                                        "name": "ilks",
                                                        "value": 11094
                                                    },
                                                    {
                                                        "children": [],
                                                        "depth": 3,
                                                        "name": "fold",
                                                        "value": 23110
                                                    }
                                                ],
                                                "depth": 2,
                                                "name": "drip",
                                                "value": 57097
                                            },
                                            {
                                                "children": [],
                                                "depth": 2,
                                                "name": "dai",
                                                "value": 2536
                                            },
                                            {
                                                "children": [
                                                    {
                                                        "children": [],
                                                        "depth": 3,
                                                        "name": "frob",
                                                        "value": 31657
                                                    }
                                                ],
                                                "depth": 2,
                                                "name": "frob",
                                                "value": 39668
                                            },
                                            {
                                                "children": [
                                                    {
                                                        "children": [],
                                                        "depth": 3,
                                                        "name": "move",
                                                        "value": 27943
                                                    }
                                                ],
                                                "depth": 2,
                                                "name": "move",
                                                "value": 33709
                                            },
                                            {
                                                "children": [],
                                                "depth": 2,
                                                "name": "can",
                                                "value": 2613
                                            },
                                            {
                                                "children": [
                                                    {
                                                        "children": [],
                                                        "depth": 3,
                                                        "name": "move",
                                                        "value": 10843
                                                    },
                                                    {
                                                        "children": [],
                                                        "depth": 3,
                                                        "name": "mint",
                                                        "value": 31845
                                                    }
                                                ],
                                                "depth": 2,
                                                "name": "exit",
                                                "value": 57201
                                            }
                                        ],
                                        "depth": 1,
                                        "name": "lockGemAndDraw",
                                        "value": 339917
                                    }
                                ],
                                "depth": 0,
                                "name": "Executed Gas",
                                "value": 351931
                            }
                        ],
                        "depth": -1,
                        "name": "Actual Gas Used",
                        "value": 281467
                    },
                    {
                        "children": [],
                        "depth": -1,
                        "name": "Refunded Gas",
                        "value": 94600
                    }
                ],
                "depth": -2,
                "name": "Total Gas",
                "value": 376067
            }
        ],
        "isConfirmed": true,
        "mainTrace": [
            {
                "children": [
                    {
                        "children": [
                            {
                                "children": [],
                                "depth": 1,
                                "id": 1,
                                "order": 1
                            },
                            {
                                "children": [
                                    {
                                        "children": [],
                                        "depth": 2,
                                        "id": 3,
                                        "order": 3
                                    },
                                    {
                                        "children": [],
                                        "depth": 2,
                                        "id": 4,
                                        "order": 4
                                    },
                                    {
                                        "children": [],
                                        "depth": 2,
                                        "id": 5,
                                        "order": 5
                                    },
                                    {
                                        "children": [],
                                        "depth": 2,
                                        "id": 6,
                                        "order": 6
                                    },
                                    {
                                        "children": [
                                            {
                                                "children": [],
                                                "depth": 3,
                                                "id": 8,
                                                "order": 8
                                            }
                                        ],
                                        "depth": 2,
                                        "id": 7,
                                        "order": 7
                                    },
                                    {
                                        "children": [],
                                        "depth": 2,
                                        "id": 9,
                                        "order": 9
                                    },
                                    {
                                        "children": [
                                            {
                                                "children": [],
                                                "depth": 3,
                                                "id": 11,
                                                "order": 11
                                            }
                                        ],
                                        "depth": 2,
                                        "id": 10,
                                        "order": 10
                                    },
                                    {
                                        "children": [
                                            {
                                                "children": [
                                                    {
                                                        "children": [],
                                                        "depth": 4,
                                                        "id": 14,
                                                        "order": 14
                                                    }
                                                ],
                                                "depth": 3,
                                                "id": 13,
                                                "order": 13
                                            },
                                            {
                                                "children": [
                                                    {
                                                        "children": [],
                                                        "depth": 4,
                                                        "id": 16,
                                                        "order": 16
                                                    }
                                                ],
                                                "depth": 3,
                                                "id": 15,
                                                "order": 15
                                            },
                                            {
                                                "children": [],
                                                "depth": 3,
                                                "id": 17,
                                                "order": 17
                                            }
                                        ],
                                        "depth": 2,
                                        "id": 12,
                                        "order": 12
                                    },
                                    {
                                        "children": [],
                                        "depth": 2,
                                        "id": 18,
                                        "order": 18
                                    },
                                    {
                                        "children": [
                                            {
                                                "children": [],
                                                "depth": 3,
                                                "id": 20,
                                                "order": 20
                                            },
                                            {
                                                "children": [
                                                    {
                                                        "children": [],
                                                        "depth": 4,
                                                        "id": 22,
                                                        "order": 22
                                                    }
                                                ],
                                                "depth": 3,
                                                "id": 21,
                                                "order": 21
                                            },
                                            {
                                                "children": [],
                                                "depth": 3,
                                                "id": 23,
                                                "order": 23
                                            }
                                        ],
                                        "depth": 2,
                                        "id": 19,
                                        "order": 19
                                    },
                                    {
                                        "children": [],
                                        "depth": 2,
                                        "id": 24,
                                        "order": 24
                                    },
                                    {
                                        "children": [
                                            {
                                                "children": [
                                                    {
                                                        "children": [],
                                                        "depth": 4,
                                                        "id": 27,
                                                        "order": 27
                                                    }
                                                ],
                                                "depth": 3,
                                                "id": 26,
                                                "order": 26
                                            },
                                            {
                                                "children": [],
                                                "depth": 3,
                                                "id": 28,
                                                "order": 28
                                            }
                                        ],
                                        "depth": 2,
                                        "id": 25,
                                        "order": 25
                                    },
                                    {
                                        "children": [
                                            {
                                                "children": [
                                                    {
                                                        "children": [],
                                                        "depth": 4,
                                                        "id": 31,
                                                        "order": 31
                                                    }
                                                ],
                                                "depth": 3,
                                                "id": 30,
                                                "order": 30
                                            },
                                            {
                                                "children": [],
                                                "depth": 3,
                                                "id": 32,
                                                "order": 32
                                            }
                                        ],
                                        "depth": 2,
                                        "id": 29,
                                        "order": 29
                                    },
                                    {
                                        "children": [],
                                        "depth": 2,
                                        "id": 33,
                                        "order": 33
                                    },
                                    {
                                        "children": [
                                            {
                                                "children": [
                                                    {
                                                        "children": [],
                                                        "depth": 4,
                                                        "id": 36,
                                                        "order": 36
                                                    }
                                                ],
                                                "depth": 3,
                                                "id": 35,
                                                "order": 35
                                            },
                                            {
                                                "children": [
                                                    {
                                                        "children": [],
                                                        "depth": 4,
                                                        "id": 38,
                                                        "order": 38
                                                    }
                                                ],
                                                "depth": 3,
                                                "id": 37,
                                                "order": 37
                                            },
                                            {
                                                "children": [],
                                                "depth": 3,
                                                "id": 39,
                                                "order": 39
                                            }
                                        ],
                                        "depth": 2,
                                        "id": 34,
                                        "order": 34
                                    }
                                ],
                                "depth": 1,
                                "id": 2,
                                "order": 2
                            }
                        ],
                        "depth": 0,
                        "id": 0,
                        "order": 0
                    }
                ],
                "depth": -1,
                "id": -1,
                "order": -1
            }
        ],
        "mainTraceNodeCount": 40,
        "parentIdMap": {
            "0": -1,
            "1": 0,
            "10": 2,
            "11": 10,
            "12": 2,
            "13": 12,
            "14": 13,
            "15": 12,
            "16": 15,
            "17": 12,
            "18": 2,
            "19": 2,
            "2": 0,
            "20": 19,
            "21": 19,
            "22": 21,
            "23": 19,
            "24": 2,
            "25": 2,
            "26": 25,
            "27": 26,
            "28": 25,
            "29": 2,
            "3": 2,
            "30": 29,
            "31": 30,
            "32": 29,
            "33": 2,
            "34": 2,
            "35": 34,
            "36": 35,
            "37": 34,
            "38": 37,
            "39": 34,
            "4": 2,
            "5": 2,
            "6": 2,
            "7": 2,
            "8": 7,
            "9": 2
        },
        "tidyTrace": [
            {
                "children": [
                    {
                        "children": [
                            {
                                "children": [],
                                "depth": 1,
                                "id": 1,
                                "order": 1
                            },
                            {
                                "children": [
                                    {
                                        "children": [],
                                        "depth": 2,
                                        "id": 6,
                                        "order": 6
                                    },
                                    {
                                        "children": [
                                            {
                                                "children": [],
                                                "depth": 3,
                                                "id": 8,
                                                "order": 8
                                            }
                                        ],
                                        "depth": 2,
                                        "id": 7,
                                        "order": 7
                                    },
                                    {
                                        "children": [],
                                        "depth": 2,
                                        "id": 9,
                                        "order": 9
                                    },
                                    {
                                        "children": [
                                            {
                                                "children": [],
                                                "depth": 3,
                                                "id": 11,
                                                "order": 11
                                            }
                                        ],
                                        "depth": 2,
                                        "id": 10,
                                        "order": 10
                                    },
                                    {
                                        "children": [
                                            {
                                                "children": [
                                                    {
                                                        "children": [],
                                                        "depth": 4,
                                                        "id": 14,
                                                        "order": 14
                                                    }
                                                ],
                                                "depth": 3,
                                                "id": 13,
                                                "order": 13
                                            },
                                            {
                                                "children": [
                                                    {
                                                        "children": [],
                                                        "depth": 4,
                                                        "id": 16,
                                                        "order": 16
                                                    }
                                                ],
                                                "depth": 3,
                                                "id": 15,
                                                "order": 15
                                            },
                                            {
                                                "children": [],
                                                "depth": 3,
                                                "id": 17,
                                                "order": 17
                                            }
                                        ],
                                        "depth": 2,
                                        "id": 12,
                                        "order": 12
                                    },
                                    {
                                        "children": [],
                                        "depth": 2,
                                        "id": 18,
                                        "order": 18
                                    },
                                    {
                                        "children": [
                                            {
                                                "children": [],
                                                "depth": 3,
                                                "id": 20,
                                                "order": 20
                                            },
                                            {
                                                "children": [
                                                    {
                                                        "children": [],
                                                        "depth": 4,
                                                        "id": 22,
                                                        "order": 22
                                                    }
                                                ],
                                                "depth": 3,
                                                "id": 21,
                                                "order": 21
                                            },
                                            {
                                                "children": [],
                                                "depth": 3,
                                                "id": 23,
                                                "order": 23
                                            }
                                        ],
                                        "depth": 2,
                                        "id": 19,
                                        "order": 19
                                    },
                                    {
                                        "children": [
                                            {
                                                "children": [
                                                    {
                                                        "children": [],
                                                        "depth": 4,
                                                        "id": 27,
                                                        "order": 27
                                                    }
                                                ],
                                                "depth": 3,
                                                "id": 26,
                                                "order": 26
                                            },
                                            {
                                                "children": [],
                                                "depth": 3,
                                                "id": 28,
                                                "order": 28
                                            }
                                        ],
                                        "depth": 2,
                                        "id": 25,
                                        "order": 25
                                    },
                                    {
                                        "children": [
                                            {
                                                "children": [
                                                    {
                                                        "children": [],
                                                        "depth": 4,
                                                        "id": 31,
                                                        "order": 31
                                                    }
                                                ],
                                                "depth": 3,
                                                "id": 30,
                                                "order": 30
                                            },
                                            {
                                                "children": [],
                                                "depth": 3,
                                                "id": 32,
                                                "order": 32
                                            }
                                        ],
                                        "depth": 2,
                                        "id": 29,
                                        "order": 29
                                    },
                                    {
                                        "children": [
                                            {
                                                "children": [
                                                    {
                                                        "children": [],
                                                        "depth": 4,
                                                        "id": 36,
                                                        "order": 36
                                                    }
                                                ],
                                                "depth": 3,
                                                "id": 35,
                                                "order": 35
                                            },
                                            {
                                                "children": [
                                                    {
                                                        "children": [],
                                                        "depth": 4,
                                                        "id": 38,
                                                        "order": 38
                                                    }
                                                ],
                                                "depth": 3,
                                                "id": 37,
                                                "order": 37
                                            },
                                            {
                                                "children": [],
                                                "depth": 3,
                                                "id": 39,
                                                "order": 39
                                            }
                                        ],
                                        "depth": 2,
                                        "id": 34,
                                        "order": 34
                                    }
                                ],
                                "depth": 1,
                                "id": 2,
                                "order": 2
                            }
                        ],
                        "depth": 0,
                        "id": 0,
                        "order": 0
                    }
                ],
                "depth": -1,
                "id": -1,
                "order": -1
            }
        ],
        "tidyTraceNodeCount": 35
    },
    "state_change": {
        "stateChanges": [
            {
                "address": "0x19c0976f590d67707e62397c87829d896dc0f1f1",
                "erc": "",
                "slots": [
                    {
                        "current": "0x0000000000000000000000000000000000000000000000000000000060aa58d2",
                        "key": "0x9faed1d3d11ccde2db1cfc89234148bce12ff0907545b851e354836b9530180e",
                        "prev": "0x0000000000000000000000000000000000000000000000000000000060aa472f"
                    }
                ],
                "storageVariables": [
                    {
                        "name": "ilks",
                        "type": "mapping(bytes32 => struct Jug.Ilk)",
                        "value": {
                            "pairs": [
                                {
                                    "key": "0x4c494e4b2d410000000000000000000000000000000000000000000000000000",
                                    "value": {
                                        "fields": [
                                            {
                                                "name": "rho",
                                                "type": "uint256",
                                                "value": {
                                                    "current": "1621776594",
                                                    "prev": "1621772079",
                                                    "typeTag": 1
                                                }
                                            }
                                        ],
                                        "typeTag": 3
                                    }
                                }
                            ],
                            "typeTag": 4
                        }
                    }
                ]
            },
            {
                "address": "0x35d1b3f3d7966a1dfe207aa4514c12a259a0492b",
                "erc": "",
                "slots": [
                    {
                        "current": "0x000000000000000000016625ce54fdcb4e2ec1d640e6dd936cc0b7ba73a17a00",
                        "key": "0x099e89cca7ffe1d2fcd345b67a28e02e04474aa4d90f285fcc24596ad4e02166",
                        "prev": "0x00000000000000000001662599401c54aaf2aeff73dbf4acfbede5a2ab19c815"
                    },
                    {
                        "current": "0x0000000000000000002c93e67424e3d5e6686ef31ae368b40ca21789e8f73402",
                        "key": "0x0000000000000000000000000000000000000000000000000000000000000007",
                        "prev": "0x0000000000000000002c93dbfba0bf136d3694897c2b343f036bc50a3f29b73d"
                    },
                    {
                        "current": "0x00000000000000000000000000000000000000000349dc73c2afd5d423efbb1a",
                        "key": "0x8cf14615f1d3a53370a1c57aa3cb5f6877791ca1a4b897c34482e6cab48c38b7",
                        "prev": "0x00000000000000000000000000000000000000000349daf25e6c6f8d8bb9d509"
                    },
                    {
                        "current": "0x000000000000000000000000000000000000000002879e9234e224a9732b1c6c",
                        "key": "0x8cb6a5265f8830dcc7046881c66b3ff93a5c7c1f16738282593f22f971af502d",
                        "prev": "0x00000000000000000000000000000000000000000174b490114da44191e55192"
                    },
                    {
                        "current": "0x00000000000000000000000000000000000000000000043f2efab367924eee17",
                        "key": "0x176239188cea39068c44b8a157e3be1ee4d5925732b0b80509632731baa047c4",
                        "prev": "0x00000000000000000000000000000000000000000000033b524f9c6c763e4f94"
                    },
                    {
                        "current": "0x0000000000000000000000000000000000000000002345a9672f946d5c906b9c",
                        "key": "0x8cf14615f1d3a53370a1c57aa3cb5f6877791ca1a4b897c34482e6cab48c38b6",
                        "prev": "0x00000000000000000000000000000000000000000023428a6e6b7a43efc4ec3b"
                    },
                    {
                        "current": "0x0000000000000000002a6f469d888813cd5582d09d94c4dcf81d4cf9d0000000",
                        "key": "0x7adce341587c7ad28f80a9ef54da0d2f0bfd917b11856be2d246a8c66685b1a0",
                        "prev": "0x0000000000000000002a6f3c5a1944c7f75fbb3dccfa6350834e4cf9d0000000"
                    },
                    {
                        "current": "0x00000000000000000000000000000000000000000000235c0f91a530b4549bb4",
                        "key": "0x176239188cea39068c44b8a157e3be1ee4d5925732b0b80509632731baa047c5",
                        "prev": "0x00000000000000000000000000000000000000000000203d16cd8b0747891c53"
                    }
                ],
                "storageVariables": [
                    {
                        "name": "ilks",
                        "type": "mapping(bytes32 => struct Vat.Ilk)",
                        "value": {
                            "pairs": [
                                {
                                    "key": "0x4c494e4b2d410000000000000000000000000000000000000000000000000000",
                                    "value": {
                                        "fields": [
                                            {
                                                "name": "Art",
                                                "type": "uint256",
                                                "value": {
                                                    "current": "42641371908903190785977244",
                                                    "prev": "42626633481651188501113915",
                                                    "typeTag": 1
                                                }
                                            },
                                            {
                                                "name": "rate",
                                                "type": "uint256",
                                                "value": {
                                                    "current": "1017747670326369405868423962",
                                                    "prev": "1017740561105170347071231241",
                                                    "typeTag": 1
                                                }
                                            }
                                        ],
                                        "typeTag": 3
                                    }
                                }
                            ],
                            "typeTag": 4
                        }
                    },
                    {
                        "name": "dai",
                        "type": "mapping(address => uint256)",
                        "value": {
                            "pairs": [
                                {
                                    "key": "0x953d2a384227a0289ccb3dabbdeeda998357e683",
                                    "value": {
                                        "current": "782923836230241786482334828",
                                        "prev": "450573088441538476683645330",
                                        "typeTag": 1
                                    }
                                },
                                {
                                    "key": "0x9759a6ac90977b93b58547b4a71c78317f391a28",
                                    "value": {
                                        "current": "4064434029770272729249009666000000000000000000000000000",
                                        "prev": "4064419029770272729249009666000000000000000000000000000",
                                        "typeTag": 1
                                    }
                                },
                                {
                                    "key": "0xa950524441892a31ebddf91d3ceefa04bf454466",
                                    "value": {
                                        "current": "133998955566153810026800279396373393510486202990557696",
                                        "prev": "133998652523987417762667079864217614027707219560744981",
                                        "typeTag": 1
                                    }
                                }
                            ],
                            "typeTag": 4
                        }
                    },
                    {
                        "name": "urns",
                        "type": "mapping(bytes32 => mapping(address => struct Vat.Urn))",
                        "value": {
                            "pairs": [
                                {
                                    "key": "0x4c494e4b2d410000000000000000000000000000000000000000000000000000",
                                    "value": {
                                        "pairs": [
                                            {
                                                "key": "0x953d2a384227a0289ccb3dabbdeeda998357e683",
                                                "value": {
                                                    "fields": [
                                                        {
                                                            "name": "ink",
                                                            "type": "uint256",
                                                            "value": {
                                                                "current": "20054996023449622605335",
                                                                "prev": "15261388480181723615124",
                                                                "typeTag": 1
                                                            }
                                                        },
                                                        {
                                                            "name": "art",
                                                            "type": "uint256",
                                                            "value": {
                                                                "current": "166981049214629655649204",
                                                                "prev": "152242621962627370785875",
                                                                "typeTag": 1
                                                            }
                                                        }
                                                    ],
                                                    "typeTag": 3
                                                }
                                            }
                                        ],
                                        "typeTag": 4
                                    }
                                }
                            ],
                            "typeTag": 4
                        }
                    },
                    {
                        "name": "debt",
                        "type": "uint256",
                        "value": {
                            "current": "4269698775439420524802321449460827524070712868322358274",
                            "prev": "4269683472397254132538188249596320996799230575093856061",
                            "typeTag": 1
                        }
                    }
                ]
            },
            {
                "address": "0x514910771af9ca656af840dff83e8264ecf986ca",
                "erc": "",
                "slots": [
                    {
                        "current": "0xfffffffffffffffffffffffffffffffffffffffffffffbc0d1054c986db111e8",
                        "key": "0xa0075c080712f15ec75443606ca7376d7ef7c02d734a62c82337b2c12ea007b9",
                        "prev": "0xfffffffffffffffffffffffffffffffffffffffffffffcc4adb0639389c1b06b"
                    },
                    {
                        "current": "0x00000000000000000000000000000000000000000004c3c618d72a2bc9ada798",
                        "key": "0x439de72365acca60d3ba2eceedd1782d98dc5c96a47f6069249697f210a73bf2",
                        "prev": "0x00000000000000000000000000000000000000000004c2c23c2c1330ad9d0915"
                    },
                    {
                        "current": "0x0000000000000000000000000000000000000000000000000000000000000000",
                        "key": "0x18a0a2dd38503b416658207ac22e41f48bb92f7d920fae884f7a82dc978ae2a0",
                        "prev": "0x000000000000000000000000000000000000000000000103dcab16fb1c109e83"
                    }
                ],
                "storageVariables": [
                    {
                        "name": "allowed",
                        "type": "mapping(address => mapping(address => uint256))",
                        "value": {
                            "pairs": [
                                {
                                    "key": "0x553e92c5910408e00bcc6d399ad9f41ed7efa8a9",
                                    "value": {
                                        "pairs": [
                                            {
                                                "key": "0x4f5fb03aeb5caa2009cf14548b56aa4a8913cc81",
                                                "value": {
                                                    "current": "115792089237316195423570985008687907853269984665640564019402587984463507034600",
                                                    "prev": "115792089237316195423570985008687907853269984665640564024196195527731406024811",
                                                    "typeTag": 1
                                                }
                                            }
                                        ],
                                        "typeTag": 4
                                    }
                                }
                            ],
                            "typeTag": 4
                        }
                    },
                    {
                        "name": "balances",
                        "type": "mapping(address => uint256)",
                        "value": {
                            "pairs": [
                                {
                                    "key": "0x553e92c5910408e00bcc6d399ad9f41ed7efa8a9",
                                    "value": {
                                        "current": "0",
                                        "prev": "4793607543267898990211",
                                        "typeTag": 1
                                    }
                                },
                                {
                                    "key": "0xdfccaf8fdbd2f4805c174f856a317765b49e4a50",
                                    "value": {
                                        "current": "5760218987890436465338264",
                                        "prev": "5755425380347168566348053",
                                        "typeTag": 1
                                    }
                                }
                            ],
                            "typeTag": 4
                        }
                    }
                ]
            },
            {
                "address": "0x6b175474e89094c44da98b954eedeac495271d0f",
                "erc": "ERC-20",
                "slots": [
                    {
                        "current": "0x00000000000000000000000000000000000000000000032d26d12e980b600000",
                        "key": "0xa21b381bdc7b5b8646ca2b96e9e2e4c3901afcacb999c9926f65345ba93a7f40",
                        "prev": "0x0000000000000000000000000000000000000000000000000000000000000000"
                    },
                    {
                        "current": "0x00000000000000000000000000000000000000000d22056232b28ef7aad00402",
                        "key": "0x0000000000000000000000000000000000000000000000000000000000000001",
                        "prev": "0x00000000000000000000000000000000000000000d2202350be1605f9f700402"
                    }
                ],
                "storageVariables": [
                    {
                        "name": "balanceOf",
                        "type": "mapping(address => uint256)",
                        "value": {
                            "pairs": [
                                {
                                    "key": "0x553e92c5910408e00bcc6d399ad9f41ed7efa8a9",
                                    "value": {
                                        "current": "15000000000000000000000",
                                        "prev": "0",
                                        "typeTag": 1
                                    }
                                }
                            ],
                            "typeTag": 4
                        }
                    },
                    {
                        "name": "totalSupply",
                        "type": "uint256",
                        "value": {
                            "current": "4064434028810856299249009666",
                            "prev": "4064419028810856299249009666",
                            "typeTag": 1
                        }
                    }
                ]
            }
        ]
    }
}