{
    "balance_change": {
        "balanceChanges": [
            {
                "account": "0x0a15746f484fa42c97859907e31f4579e49acedf",
                "assets": [
                    {
                        "address": "0x9ccf191169a613eca433a249d3f40131178caebc",
                        "amount": "9,889.66888",
                        "iconUrl": "",
                        "isERC1155": false,
                        "isERC721": false,
                        "sign": false,
                        "value": ""
                    }
                ]
            },
            {
                "account": "0x5e26936ef4bb619ca40aef3f84e0a8825609880d",
                "assets": [
                    {
                        "address": "0x9ccf191169a613eca433a249d3f40131178caebc",
                        "amount": "9,889.66888",
                        "iconUrl": "",
                        "isERC1155": false,
                        "isERC721": false,
                        "sign": true,
                        "value": ""
                    }
                ]
            }
        ]
    },
    "profile": {
        "basic_info": {
            "baseFee": "37.808262526",
            "blockNumber": 17106742,
            "callData": "0xa9059cbb0000000000000000000000005e26936ef4bb619ca40aef3f84e0a8825609880d0000000000000000000000000000000000000000000002181eb9e8a60b410000",
            "debugEnable": true,
            "errorInfo": "",
            "eventCount": 1,
            "feeRecipient": "0xa27cef8af2b6575903b676e5644657fae96f491f",
            "formatValue": "0",
            "gasLimit": 80000,
            "gasPrice": "40.004",
            "gasUsed": 51626,
            "intTxnCount": 0,
            "internalRevert": false,
            "internalRevertMessage": "",
            "isContractCreation": false,
            "isFlashloan": false,
            "maxFee": "",
            "nonce": 5042,
            "overwritedBlockNumber": -1,
            "priorityFee": "",
            "receiver": "0x9ccf191169a613eca433a249d3f40131178caebc",
            "revertMessage": "",
            "sender": "0x0a15746f484fa42c97859907e31f4579e49acedf",
            "simulationEnable": true,
            "sourceTxnHash": "0x838935c74e25c3e0ac145663154cc277f8cd11d89fffb09d77986acda9d38c04",
            "status": true,
            "timestamp": "2023-04-23T04:49:11Z",
            "transactionFee": "0.002065246504",
            "txnHash": "0x838935c74e25c3e0ac145663154cc277f8cd11d89fffb09d77986acda9d38c04",
            "txnIndex": 49,
            "type": 0,
            "value": "0"
        },
        "fund_flow": [
            {
                "amount": "9,889.66888",
                "from": "0x0a15746f484fa42c97859907e31f4579e49acedf",
                "id": 1,
                "isERC1155": false,
                "isERC721": false,
                "isReverted": false,
                "order": 1,
                "to": "0x5e26936ef4bb619ca40aef3f84e0a8825609880d",
                "token": "0x9ccf191169a613eca433a249d3f40131178caebc"
            }
        ],
        "token_infos": [
            {
                "address": "0x9ccf191169a613eca433a249d3f40131178caebc",
                "decimals": 18
            },
            {
                "address": "0xc02aaa39b223fe8d0a0e5c4f27ead9083c756cc2",
                "decimals": 18
            },
            {
                "address": "0xeeeeeeeeeeeeeeeeeeeeeeeeeeeeeeeeeeeeeeee",
                "decimals": 18
            }
        ]
    },
    "address_label": {
        "labels": [
            {
                "address": "0x0000000000000000000000000000000000000004",
                "label": "Precompiled"
            },
            {
                "address": "0xeeeeeeeeeeeeeeeeeeeeeeeeeeeeeeeeeeeeeeee",
                "label": "Ether"
            },
            {
                "address": "0x5e26936ef4bb619ca40aef3f84e0a8825609880d",
                "label": "GATE.IO"
            },
            {
                "address": "0x9ccf191169a613eca433a249d3f40131178caebc",
                "label": "Microchains Network: MCG Token"
            },
            {
                "address": "0x0000000000000000000000000000000000000001",
                "label": "Precompiled"
            },
            {
                "address": "0x0000000000000000000000000000000000000002",
                "label": "Precompiled"
            },
            {
                "address": "0x0000000000000000000000000000000000000003",
                "label": "Precompiled"
            }
        ]
    },
    "trace": {
        "accountLabels": null,
        "dataMap": {
            "-1": {
                "invocation": {
                    "address": "0x0a15746f484fa42c97859907e31f4579e49acedf",
                    "callData": "",
                    "decodedMethod": null,
                    "errorInfo": "",
                    "fromAddress": "",
                    "gasUsed": 0,
                    "id": -1,
                    "methodDecoded": false,
                    "operation": "",
                    "output": "",
                    "revert": false,
                    "revertMessage": "",
                    "selector": "",
                    "status": false,
                    "value": ""
                },
                "nodeType": 0
            },
            "0": {
                "invocation": {
                    "address": "0x9ccf191169a613eca433a249d3f40131178caebc",
                    "callData": "0x0000000000000000000000005e26936ef4bb619ca40aef3f84e0a8825609880d0000000000000000000000000000000000000000000002181eb9e8a60b410000",
                    "decodedMethod": {
                        "callParams": [
                            {
                                "name": "to",
                                "type": "address",
                                "value": "0x5e26936ef4bb619ca40aef3f84e0a8825609880d"
                            },
                            {
                                "decimalAvailable": true,
                                "name": "amount",
                                "type": "uint256",
                                "value": "9,889,668,880,000,000,000,000"
                            }
                        ],
                        "constructorArguments": "",
                        "name": "transfer",
                        "returnParams": [
                            {
                                "name": "",
                                "type": "bool",
                                "value": true
                            }
                        ],
                        "signature": "transfer(address,uint256)"
                    },
                    "errorInfo": "",
                    "fromAddress": "0x0a15746f484fa42c97859907e31f4579e49acedf",
                    "gasUsed": 51626,
                    "id": 0,
                    "methodDecoded": true,
                    "operation": "CALL",
                    "output": "0x0000000000000000000000000000000000000000000000000000000000000001",
                    "revert": false,
                    "revertMessage": "",
                    "selector": "0xa9059cbb",
                    "status": true,
                    "value": "0"
                },
                "nodeType": 0
            },
            "1": {
                "event": {
                    "contract": "0x9ccf191169a613eca433a249d3f40131178caebc",
                    "decodedLog": {
                        "name": "Transfer",
                        "params": [
                            {
                                "name": "from",
                                "type": "address",
                                "value": "0x0a15746f484fa42c97859907e31f4579e49acedf"
                            },
                            {
                                "name": "to",
                                "type": "address",
                                "value": "0x5e26936ef4bb619ca40aef3f84e0a8825609880d"
                            },
                            {
                                "decimalAvailable": true,
                                "name": "value",
                                "type": "uint256",
                                "value": "9,889,668,880,000,000,000,000"
                            }
                        ],
                        "signature": "Transfer(address,address,uint256)"
                    },
                    "id": 1,
                    "logData": "0x0000000000000000000000000000000000000000000002181eb9e8a60b410000",
                    "logDecoded": true,
                    "operation": "EVENT",
                    "revert": false,
                    "status": true,
                    "topics": [
                        "0xddf252ad1be2c89b69c2b068fc378daa952ba7f163c4a11628f55a4df523b3ef",
                        "0x0000000000000000000000000a15746f484fa42c97859907e31f4579e49acedf",
                        "0x0000000000000000000000005e26936ef4bb619ca40aef3f84e0a8825609880d"
                    ]
                },
                "nodeType": 1
            }
        },
        "gasFlame": [
            {
                "children": [
                    {
                        "children": [
                            {
                                "children": [],
                                "depth": 0,
                                "name": "Initial Gas",
                                "value": 21656
                            },
                            {
                                "children": [],
                                "depth": 0,
                                "name": "Executed Gas",
                                "value": 29970
                            }
                        ],
                        "depth": -1,
                        "name": "Actual Gas Used",
                        "value": 51626
                    },
                    {
                        "children": [],
                        "depth": -1,
                        "name": "Refunded Gas",
                        "value": 0
                    }
                ],
                "depth": -2,
                "name": "Total Gas",
                "value": 51626
            }
        ],
        "isConfirmed": true,
        "mainTrace": [
            {
                "children": [
                    {
                        "children": [
                            {
                                "children": [],
                                "depth": 1,
                                "id": 1,
                                "order": 1
                            }
                        ],
                        "depth": 0,
                        "id": 0,
                        "order": 0
                    }
                ],
                "depth": -1,
                "id": -1,
                "order": -1
            }
        ],
        "mainTraceNodeCount": 2,
        "parentIdMap": {
            "0": -1,
            "1": 0
        },
        "tidyTrace": [
            {
                "children": [
                    {
                        "children": [
                            {
                                "children": [],
                                "depth": 1,
                                "id": 1,
                                "order": 1
                            }
                        ],
                        "depth": 0,
                        "id": 0,
                        "order": 0
                    }
                ],
                "depth": -1,
                "id": -1,
                "order": -1
            }
        ],
        "tidyTraceNodeCount": 2
    },
    "state_change": {
        "stateChanges": [
            {
                "address": "0x9ccf191169a613eca433a249d3f40131178caebc",
                "erc": "ERC-20",
                "slots": [
                    {
                        "current": "0x0000000000000000000000000000000000000000000002181eb9e8a60b410000",
                        "key": "0x657b019fa6414dd9b193ecb29f04a53ef535b07fdb2fdbab2cdcfa6df4601111",
                        "prev": "0x0000000000000000000000000000000000000000000000000000000000000000"
                    },
                    {
                        "current": "0x0000000000000000000000000000000000000000000092273d37d92cf3e40c00",
                        "key": "0x7d1e7d6dd9f34ee18d7f0174640547dd0b830bb8e4d892a1a8d234f318e82d8f",
                        "prev": "0x00000000000000000000000000000000000000000000943f5bf1c1d2ff250c00"
                    }
                ],
                "storageVariables": [
                    {
                        "name": "_balances",
                        "type": "mapping(address => uint256)",
                        "value": {
                            "pairs": [
                                {
                                    "key": "0x0a15746f484fa42c97859907e31f4579e49acedf",
                                    "value": {
                                        "current": "690189340750990000000000",
                                        "prev": "700079009630990000000000",
                                        "typeTag": 1
                                    }
                                },
                                {
                                    "key": "0x5e26936ef4bb619ca40aef3f84e0a8825609880d",
                                    "value": {
                                        "current": "9889668880000000000000",
                                        "prev": "0",
                                        "typeTag": 1
                                    }
                                }
                            ],
                            "typeTag": 4
                        }
                    }
                ]
            }
        ]
    }
}