{
    "balance_change": {
        "balanceChanges": [
            {
                "account": "0x1938a448d105d26c40a52a1bfe99b8ca7a745ad0",
                "assets": [
                    {
                        "address": "0x0fd10b9899882a6f2fcb5c371e17e70fdee00c38",
                        "amount": "873,690.19307649",
                        "iconUrl": "https://assets.blocksec.com/icon/1b9e4d4977834fd473f21675620907ca95eb86dff2ca769233b802d2d0f849a4.png",
                        "isERC1155": false,
                        "isERC721": false,
                        "sign": false,
                        "value": "513430.7069"
                    }
                ]
            },
            {
                "account": "0xe0e0fa0202f42c8bd7154a4cc3dd298b37eaca51",
                "assets": [
                    {
                        "address": "0x0fd10b9899882a6f2fcb5c371e17e70fdee00c38",
                        "amount": "873,690.19307649",
                        "iconUrl": "https://assets.blocksec.com/icon/1b9e4d4977834fd473f21675620907ca95eb86dff2ca769233b802d2d0f849a4.png",
                        "isERC1155": false,
                        "isERC721": false,
                        "sign": true,
                        "value": "513430.7069"
                    }
                ]
            }
        ]
    },
    "profile": {
        "basic_info": {
            "baseFee": "",
            "blockNumber": 12315113,
            "callData": "0xa9059cbb000000000000000000000000e0e0fa0202f42c8bd7154a4cc3dd298b37eaca5100000000000000000000000000000000000000000000b902d71bfa08cc15e400",
            "debugEnable": true,
            "errorInfo": "",
            "eventCount": 1,
            "feeRecipient": "0xc8f595e2084db484f8a80109101d58625223b7c9",
            "formatValue": "0",
            "gasLimit": 200000,
            "gasPrice": "88.800002457",
            "gasUsed": 44135,
            "intTxnCount": 1,
            "internalRevert": false,
            "internalRevertMessage": "",
            "isContractCreation": false,
            "isFlashloan": false,
            "maxFee": "",
            "nonce": 649920,
            "overwritedBlockNumber": -1,
            "priorityFee": "",
            "receiver": "0x0fd10b9899882a6f2fcb5c371e17e70fdee00c38",
            "revertMessage": "",
            "sender": "0x1938a448d105d26c40a52a1bfe99b8ca7a745ad0",
            "simulationEnable": true,
            "sourceTxnHash": "0x842e20e36d676cf7218b0b5dbb2baed2675efe92a4ec3740451b5b9eab266b71",
            "status": true,
            "timestamp": "2021-04-26T09:31:20Z",
            "transactionFee": "0.003919188108439695",
            "txnHash": "0x842e20e36d676cf7218b0b5dbb2baed2675efe92a4ec3740451b5b9eab266b71",
            "txnIndex": 1,
            "type": 0,
            "value": "0"
        },
        "fund_flow": [
            {
                "amount": "873,690.19307649",
                "from": "0x1938a448d105d26c40a52a1bfe99b8ca7a745ad0",
                "id": 1,
                "isERC1155": false,
                "isERC721": false,
                "isReverted": false,
                "order": 1,
                "to": "0xe0e0fa0202f42c8bd7154a4cc3dd298b37eaca51",
                "token": "0x0fd10b9899882a6f2fcb5c371e17e70fdee00c38"
            }
        ],
        "token_infos": [
            {
                "address": "0x0fd10b9899882a6f2fcb5c371e17e70fdee00c38",
                "decimals": 18
            },
            {
                "address": "0xc02aaa39b223fe8d0a0e5c4f27ead9083c756cc2",
                "decimals": 18
            },
            {
                "address": "0xeeeeeeeeeeeeeeeeeeeeeeeeeeeeeeeeeeeeeeee",
                "decimals": 18
            }
        ]
    },
    "address_label": {
        "labels": [
            {
                "address": "0x0fd10b9899882a6f2fcb5c371e17e70fdee00c38",
                "label": "Pundi X: PUNDIX Token"
            },
            {
                "address": "0x4daa3c4c0a253c1e6c6fcb0705e5c64d21cf9c59",
                "label": "Pundi X Token (PUNDIX)"
            },
            {
                "address": "0x1938a448d105d26c40a52a1bfe99b8ca7a745ad0",
                "label": "Upbit 4"
            },
            {
                "address": "0x0000000000000000000000000000000000000001",
                "label": "Precompiled"
            },
            {
                "address": "0x0000000000000000000000000000000000000002",
                "label": "Precompiled"
            },
            {
                "address": "0x0000000000000000000000000000000000000003",
                "label": "Precompiled"
            },
            {
                "address": "0x0000000000000000000000000000000000000004",
                "label": "Precompiled"
            },
            {
                "address": "0xeeeeeeeeeeeeeeeeeeeeeeeeeeeeeeeeeeeeeeee",
                "label": "Ether"
            }
        ]
    },
    "trace": {
        "accountLabels": null,
        "dataMap": {
            "-1": {
                "invocation": {
                    "address": "0x1938a448d105d26c40a52a1bfe99b8ca7a745ad0",
                    "callData": "",
                    "decodedMethod": null,
                    "errorInfo": "",
                    "fromAddress": "",
                    "gasUsed": 0,
                    "id": -1,
                    "methodDecoded": false,
                    "operation": "",
                    "output": "",
                    "revert": false,
                    "revertMessage": "",
                    "selector": "",
                    "status": false,
                    "value": ""
                },
                "nodeType": 0
            },
            "0": {
                "invocation": {
                    "address": "0x0fd10b9899882a6f2fcb5c371e17e70fdee00c38",
                    "callData": "0x000000000000000000000000e0e0fa0202f42c8bd7154a4cc3dd298b37eaca5100000000000000000000000000000000000000000000b902d71bfa08cc15e400",
                    "decodedMethod": {
                        "callParams": [
                            {
                                "name": "recipient",
                                "type": "address",
                                "value": "0xe0e0fa0202f42c8bd7154a4cc3dd298b37eaca51"
                            },
                            {
                                "decimalAvailable": true,
                                "name": "amount",
                                "type": "uint256",
                                "value": "873,690,193,076,490,000,000,000"
                            }
                        ],
                        "constructorArguments": "",
                        "name": "transfer",
                        "returnParams": [
                            {
                                "name": "",
                                "type": "bool",
                                "value": true
                            }
                        ],
                        "signature": "transfer(address,uint256)"
                    },
                    "errorInfo": "",
                    "fromAddress": "0x1938a448d105d26c40a52a1bfe99b8ca7a745ad0",
                    "gasUsed": 44135,
                    "id": 0,
                    "methodDecoded": true,
                    "operation": "CALL",
                    "output": "0x0000000000000000000000000000000000000000000000000000000000000001",
                    "revert": false,
                    "revertMessage": "",
                    "selector": "0xa9059cbb",
                    "status": true,
                    "value": "0"
                },
                "nodeType": 0
            },
            "1": {
                "invocation": {
                    "address": "0x4daa3c4c0a253c1e6c6fcb0705e5c64d21cf9c59",
                    "callData": "0x000000000000000000000000e0e0fa0202f42c8bd7154a4cc3dd298b37eaca5100000000000000000000000000000000000000000000b902d71bfa08cc15e400",
                    "decodedMethod": {
                        "callParams": [
                            {
                                "name": "recipient",
                                "type": "address",
                                "value": "0xe0e0fa0202f42c8bd7154a4cc3dd298b37eaca51"
                            },
                            {
                                "decimalAvailable": true,
                                "name": "amount",
                                "type": "uint256",
                                "value": "873,690,193,076,490,000,000,000"
                            }
                        ],
                        "constructorArguments": "",
                        "name": "transfer",
                        "returnParams": [
                            {
                                "name": "",
                                "type": "bool",
                                "value": true
                            }
                        ],
                        "signature": "transfer(address,uint256)"
                    },
                    "errorInfo": "",
                    "fromAddress": "0x0fd10b9899882a6f2fcb5c371e17e70fdee00c38",
                    "gasUsed": 15197,
                    "id": 1,
                    "methodDecoded": true,
                    "operation": "DELEGATECALL",
                    "output": "0x0000000000000000000000000000000000000000000000000000000000000001",
                    "revert": false,
                    "revertMessage": "",
                    "selector": "0xa9059cbb",
                    "status": true,
                    "value": "0"
                },
                "nodeType": 0
            },
            "2": {
                "event": {
                    "contract": "0x0fd10b9899882a6f2fcb5c371e17e70fdee00c38",
                    "decodedLog": {
                        "name": "Transfer",
                        "params": [
                            {
                                "name": "from",
                                "type": "address",
                                "value": "0x1938a448d105d26c40a52a1bfe99b8ca7a745ad0"
                            },
                            {
                                "name": "to",
                                "type": "address",
                                "value": "0xe0e0fa0202f42c8bd7154a4cc3dd298b37eaca51"
                            },
                            {
                                "decimalAvailable": true,
                                "name": "value",
                                "type": "uint256",
                                "value": "873,690,193,076,490,000,000,000"
                            }
                        ],
                        "signature": "Transfer(address,address,uint256)"
                    },
                    "id": 2,
                    "logData": "0x00000000000000000000000000000000000000000000b902d71bfa08cc15e400",
                    "logDecoded": true,
                    "operation": "EVENT",
                    "revert": false,
                    "status": true,
                    "topics": [
                        "0xddf252ad1be2c89b69c2b068fc378daa952ba7f163c4a11628f55a4df523b3ef",
                        "0x0000000000000000000000001938a448d105d26c40a52a1bfe99b8ca7a745ad0",
                        "0x000000000000000000000000e0e0fa0202f42c8bd7154a4cc3dd298b37eaca51"
                    ]
                },
                "nodeType": 1
            }
        },
        "gasFlame": [
            {
                "children": [
                    {
                        "children": [
                            {
                                "children": [],
                                "depth": 0,
                                "name": "Initial Gas",
                                "value": 21668
                            },
                            {
                                "children": [
                                    {
                                        "children": [],
                                        "depth": 1,
                                        "name": "transfer",
                                        "value": 15197
                                    }
                                ],
                                "depth": 0,
                                "name": "Executed Gas",
                                "value": 22467
                            }
                        ],
                        "depth": -1,
                        "name": "Actual Gas Used",
                        "value": 44135
                    },
                    {
                        "children": [],
                        "depth": -1,
                        "name": "Refunded Gas",
                        "value": 0
                    }
                ],
                "depth": -2,
                "name": "Total Gas",
                "value": 44135
            }
        ],
        "isConfirmed": true,
        "mainTrace": [
            {
                "children": [
                    {
                        "children": [
                            {
                                "children": [
                                    {
                                        "children": [],
                                        "depth": 2,
                                        "id": 2,
                                        "order": 2
                                    }
                                ],
                                "depth": 1,
                                "id": 1,
                                "order": 1
                            }
                        ],
                        "depth": 0,
                        "id": 0,
                        "order": 0
                    }
                ],
                "depth": -1,
                "id": -1,
                "order": -1
            }
        ],
        "mainTraceNodeCount": 3,
        "parentIdMap": {
            "0": -1,
            "1": 0,
            "2": 1
        },
        "tidyTrace": [
            {
                "children": [
                    {
                        "children": [
                            {
                                "children": [
                                    {
                                        "children": [],
                                        "depth": 2,
                                        "id": 2,
                                        "order": 2
                                    }
                                ],
                                "depth": 1,
                                "id": 1,
                                "order": 1
                            }
                        ],
                        "depth": 0,
                        "id": 0,
                        "order": 0
                    }
                ],
                "depth": -1,
                "id": -1,
                "order": -1
            }
        ],
        "tidyTraceNodeCount": 3
    },
    "state_change": {
        "stateChanges": [
            {
                "address": "0x0fd10b9899882a6f2fcb5c371e17e70fdee00c38",
                "erc": "ERC-20",
                "slots": [
                    {
                        "current": "0x000000000000000000000000000000000000000000000be60c8207eadb04a800",
                        "key": "0x791f5ece0bf80e48372eb4d5acb8738ec5fd716321d6274a397c4d717b88dfd6",
                        "prev": "0x00000000000000000000000000000000000000000000c4e8e39e01f3a71a8c00"
                    },
                    {
                        "current": "0x000000000000000000000000000000000000000000344caaaf452c74f207436e",
                        "key": "0x3da64cae6c2d30bff65e9cade588e7b094683e2365f473442593ae377f26b837",
                        "prev": "0x0000000000000000000000000000000000000000003393a7d829326c25f15f6e"
                    }
                ],
                "storageVariables": [
                    {
                        "name": "_balances",
                        "type": "mapping(address => uint256)",
                        "value": {
                            "pairs": [
                                {
                                    "key": "0x1938a448d105d26c40a52a1bfe99b8ca7a745ad0",
                                    "value": {
                                        "current": "56189683740100000000000",
                                        "prev": "929879876816590000000000",
                                        "typeTag": 1
                                    }
                                },
                                {
                                    "key": "0xe0e0fa0202f42c8bd7154a4cc3dd298b37eaca51",
                                    "value": {
                                        "current": "63226191048700951563551598",
                                        "prev": "62352500855624461563551598",
                                        "typeTag": 1
                                    }
                                }
                            ],
                            "typeTag": 4
                        }
                    }
                ]
            }
        ]
    }
}