{
    "balance_change": {
        "balanceChanges": [
            {
                "account": "0x33480d31b9a136b13126c2aaa473a8032eedc0ff",
                "assets": [
                    {
                        "address": "0xe532a2a37b0707b4306b21b412d2e8c22f9824ec",
                        "amount": "11,157",
                        "iconUrl": "",
                        "isERC1155": false,
                        "isERC721": false,
                        "sign": false,
                        "value": ""
                    }
                ]
            },
            {
                "account": "0x1c3a334a1cbf090d4034bc7ae4af0417e30e79ff",
                "assets": [
                    {
                        "address": "0xe532a2a37b0707b4306b21b412d2e8c22f9824ec",
                        "amount": "11,157",
                        "iconUrl": "",
                        "isERC1155": false,
                        "isERC721": false,
                        "sign": true,
                        "value": ""
                    }
                ]
            }
        ]
    },
    "profile": {
        "basic_info": {
            "baseFee": "",
            "blockNumber": 9908004,
            "callData": "0xa9059cbb0000000000000000000000001c3a334a1cbf090d4034bc7ae4af0417e30e79ff00000000000000000000000000000000000000000000025cd27a83ae39340000",
            "debugEnable": true,
            "errorInfo": "",
            "eventCount": 1,
            "feeRecipient": "0x829bd824b016326a401d083b33d092293333a830",
            "formatValue": "0",
            "gasLimit": 90000,
            "gasPrice": "8",
            "gasUsed": 37500,
            "intTxnCount": 0,
            "internalRevert": false,
            "internalRevertMessage": "",
            "isContractCreation": false,
            "isFlashloan": false,
            "maxFee": "",
            "nonce": 18403,
            "overwritedBlockNumber": -1,
            "priorityFee": "",
            "receiver": "0xe532a2a37b0707b4306b21b412d2e8c22f9824ec",
            "revertMessage": "",
            "sender": "0x33480d31b9a136b13126c2aaa473a8032eedc0ff",
            "simulationEnable": true,
            "sourceTxnHash": "0x84ecfd8075a93e5e9f98e47e18be26435778995b7c04edcbd4beb459b7caaa5b",
            "status": true,
            "timestamp": "2020-04-20T07:36:13Z",
            "transactionFee": "0.0003",
            "txnHash": "0x84ecfd8075a93e5e9f98e47e18be26435778995b7c04edcbd4beb459b7caaa5b",
            "txnIndex": 201,
            "type": 0,
            "value": "0"
        },
        "fund_flow": [
            {
                "amount": "11,157",
                "from": "0x33480d31b9a136b13126c2aaa473a8032eedc0ff",
                "id": 1,
                "isERC1155": false,
                "isERC721": false,
                "isReverted": false,
                "order": 1,
                "to": "0x1c3a334a1cbf090d4034bc7ae4af0417e30e79ff",
                "token": "0xe532a2a37b0707b4306b21b412d2e8c22f9824ec"
            }
        ],
        "token_infos": [
            {
                "address": "0xc02aaa39b223fe8d0a0e5c4f27ead9083c756cc2",
                "decimals": 18
            },
            {
                "address": "0xe532a2a37b0707b4306b21b412d2e8c22f9824ec",
                "decimals": 18
            },
            {
                "address": "0xeeeeeeeeeeeeeeeeeeeeeeeeeeeeeeeeeeeeeeee",
                "decimals": 18
            }
        ]
    },
    "address_label": {
        "labels": [
            {
                "address": "0xeeeeeeeeeeeeeeeeeeeeeeeeeeeeeeeeeeeeeeee",
                "label": "Ether"
            },
            {
                "address": "0xe532a2a37b0707b4306b21b412d2e8c22f9824ec",
                "label": "EuropeChain (EUP)"
            },
            {
                "address": "0x0000000000000000000000000000000000000001",
                "label": "Precompiled"
            },
            {
                "address": "0x0000000000000000000000000000000000000002",
                "label": "Precompiled"
            },
            {
                "address": "0x0000000000000000000000000000000000000003",
                "label": "Precompiled"
            },
            {
                "address": "0x0000000000000000000000000000000000000004",
                "label": "Precompiled"
            }
        ]
    },
    "trace": {
        "accountLabels": null,
        "dataMap": {
            "-1": {
                "invocation": {
                    "address": "0x33480d31b9a136b13126c2aaa473a8032eedc0ff",
                    "callData": "",
                    "decodedMethod": null,
                    "errorInfo": "",
                    "fromAddress": "",
                    "gasUsed": 0,
                    "id": -1,
                    "methodDecoded": false,
                    "operation": "",
                    "output": "",
                    "revert": false,
                    "revertMessage": "",
                    "selector": "",
                    "status": false,
                    "value": ""
                },
                "nodeType": 0
            },
            "0": {
                "invocation": {
                    "address": "0xe532a2a37b0707b4306b21b412d2e8c22f9824ec",
                    "callData": "0x0000000000000000000000001c3a334a1cbf090d4034bc7ae4af0417e30e79ff00000000000000000000000000000000000000000000025cd27a83ae39340000",
                    "decodedMethod": {
                        "callParams": [
                            {
                                "name": "to",
                                "type": "address",
                                "value": "0x1c3a334a1cbf090d4034bc7ae4af0417e30e79ff"
                            },
                            {
                                "decimalAvailable": true,
                                "name": "value",
                                "type": "uint256",
                                "value": "11,157,000,000,000,000,000,000"
                            }
                        ],
                        "constructorArguments": "",
                        "name": "transfer",
                        "returnParams": [
                            {
                                "name": "",
                                "type": "bool",
                                "value": true
                            }
                        ],
                        "signature": "transfer(address,uint256)"
                    },
                    "errorInfo": "",
                    "fromAddress": "0x33480d31b9a136b13126c2aaa473a8032eedc0ff",
                    "gasUsed": 37500,
                    "id": 0,
                    "methodDecoded": true,
                    "operation": "CALL",
                    "output": "0x0000000000000000000000000000000000000000000000000000000000000001",
                    "revert": false,
                    "revertMessage": "",
                    "selector": "0xa9059cbb",
                    "status": true,
                    "value": "0"
                },
                "nodeType": 0
            },
            "1": {
                "event": {
                    "contract": "0xe532a2a37b0707b4306b21b412d2e8c22f9824ec",
                    "decodedLog": {
                        "name": "Transfer",
                        "params": [
                            {
                                "name": "from",
                                "type": "address",
                                "value": "0x33480d31b9a136b13126c2aaa473a8032eedc0ff"
                            },
                            {
                                "name": "to",
                                "type": "address",
                                "value": "0x1c3a334a1cbf090d4034bc7ae4af0417e30e79ff"
                            },
                            {
                                "decimalAvailable": true,
                                "name": "value",
                                "type": "uint256",
                                "value": "11,157,000,000,000,000,000,000"
                            }
                        ],
                        "signature": "Transfer(address,address,uint256)"
                    },
                    "id": 1,
                    "logData": "0x00000000000000000000000000000000000000000000025cd27a83ae39340000",
                    "logDecoded": true,
                    "operation": "EVENT",
                    "revert": false,
                    "status": true,
                    "topics": [
                        "0xddf252ad1be2c89b69c2b068fc378daa952ba7f163c4a11628f55a4df523b3ef",
                        "0x00000000000000000000000033480d31b9a136b13126c2aaa473a8032eedc0ff",
                        "0x0000000000000000000000001c3a334a1cbf090d4034bc7ae4af0417e30e79ff"
                    ]
                },
                "nodeType": 1
            }
        },
        "gasFlame": [
            {
                "children": [
                    {
                        "children": [
                            {
                                "children": [],
                                "depth": 0,
                                "name": "Initial Gas",
                                "value": 21656
                            },
                            {
                                "children": [],
                                "depth": 0,
                                "name": "Executed Gas",
                                "value": 15844
                            }
                        ],
                        "depth": -1,
                        "name": "Actual Gas Used",
                        "value": 37500
                    },
                    {
                        "children": [],
                        "depth": -1,
                        "name": "Refunded Gas",
                        "value": 0
                    }
                ],
                "depth": -2,
                "name": "Total Gas",
                "value": 37500
            }
        ],
        "isConfirmed": true,
        "mainTrace": [
            {
                "children": [
                    {
                        "children": [
                            {
                                "children": [],
                                "depth": 1,
                                "id": 1,
                                "order": 1
                            }
                        ],
                        "depth": 0,
                        "id": 0,
                        "order": 0
                    }
                ],
                "depth": -1,
                "id": -1,
                "order": -1
            }
        ],
        "mainTraceNodeCount": 2,
        "parentIdMap": {
            "0": -1,
            "1": 0
        },
        "tidyTrace": [
            {
                "children": [
                    {
                        "children": [
                            {
                                "children": [],
                                "depth": 1,
                                "id": 1,
                                "order": 1
                            }
                        ],
                        "depth": 0,
                        "id": 0,
                        "order": 0
                    }
                ],
                "depth": -1,
                "id": -1,
                "order": -1
            }
        ],
        "tidyTraceNodeCount": 2
    },
    "state_change": {
        "stateChanges": [
            {
                "address": "0xe532a2a37b0707b4306b21b412d2e8c22f9824ec",
                "erc": "ERC-20",
                "slots": [
                    {
                        "current": "0x0000000000000000000000000000000000000000040db0849996621ec57ac800",
                        "key": "0xed6c221699ff3e0d929e06a3fe02a05170f11dfb0c67a530ee8901051d91c50e",
                        "prev": "0x0000000000000000000000000000000000000000040db2e16c10e5ccfeaec800"
                    },
                    {
                        "current": "0x000000000000000000000000000000000000000000000fc98222800689630000",
                        "key": "0x1881bef858a90d163d8dc6ccc7b82e01eb06c238b1bad57dbc6c553106aa6a7f",
                        "prev": "0x000000000000000000000000000000000000000000000d6cafa7fc58502f0000"
                    }
                ],
                "storageVariables": [
                    {
                        "name": "balanceOf",
                        "type": "mapping(address => uint256)",
                        "value": {
                            "pairs": [
                                {
                                    "key": "0x1c3a334a1cbf090d4034bc7ae4af0417e30e79ff",
                                    "value": {
                                        "current": "74552670000000000000000",
                                        "prev": "63395670000000000000000",
                                        "typeTag": 1
                                    }
                                },
                                {
                                    "key": "0x33480d31b9a136b13126c2aaa473a8032eedc0ff",
                                    "value": {
                                        "current": "1254489657478714260000000000",
                                        "prev": "1254500814478714260000000000",
                                        "typeTag": 1
                                    }
                                }
                            ],
                            "typeTag": 4
                        }
                    }
                ]
            }
        ]
    }
}