{
    "balance_change": {
        "balanceChanges": []
    },
    "profile": {
        "basic_info": {
            "baseFee": "17.054412416",
            "blockNumber": 18242816,
            "callData": "0x6a76120200000000000000000000000040a2accbd92bca938b02010e17a5b8929b49130d0000000000000000000000000000000000000000000000000000000000000000000000000000000000000000000000000000000000000000000000000000014000000000000000000000000000000000000000000000000000000000000000010000000000000000000000000000000000000000000000000000000000000000000000000000000000000000000000000000000000000000000000000000000000000000000000000000000000000000000000000000000000000000000000000000000000000000000000000000000000000000000000000000000000000000000000000000000000000000000000000000000000000000000000000000000000000000000000000000000000000000000000000000000000000000000002c000000000000000000000000000000000000000000000000000000000000001448d80ff0a000000000000000000000000000000000000000000000000000000000000002000000000000000000000000000000000000000000000000000000000000000f200c53e6824480d976180a65415c19a6931d17265ba00000000000000000000000000000000000000000000000000000000000000000000000000000000000000000000000000000000000000000000000000000024f7a3080600000000000000000000000000000000000000000000000594e36275b6fad8c0000502c5ae08e7cd64fe1aeda7d6e229413ecc6abe00000000000000000000000000000000000000000000000000000000000000000000000000000000000000000000000000000000000000000000000000000024f7a3080600000000000000000000000000000000000000000000000594e36275b6fad8c000000000000000000000000000000000000000000000000000000000000000000000000000000000000000000000000000000000000000000000000000000000000000000000000000c3340cff80b527f2940e9cf956f89306b281d2308ff90bc29487f7e5bb98f7064d7623fc8250b3ca2d192798fa6077c213dddf038f55de1d81eeea32c459a912332000000000000000000000000060f030d621a4ab27dff024a8e43eb36e2d95fb0200000000000000000000000000000000000000000000000000000000000000000193ab1b1b63a758f20907a50533a61b77eb22d4a69f2ba62e48d74da69c22905d5f66a4a1455750a392354ab7e79141322eacc7a336df7670774f66f1c86808311b0000000000000000000000000000000000000000000000000000000000",
            "debugEnable": true,
            "errorInfo": "",
            "eventCount": 3,
            "feeRecipient": "0x1f9090aae28b8a3dceadf281b0f12828e676c326",
            "formatValue": "0",
            "gasLimit": 150765,
            "gasPrice": "18.554412416",
            "gasUsed": 148518,
            "intTxnCount": 8,
            "internalRevert": false,
            "internalRevertMessage": "",
            "isContractCreation": false,
            "isFlashloan": false,
            "maxFee": "20",
            "nonce": 64,
            "overwritedBlockNumber": -1,
            "priorityFee": "1.5",
            "receiver": "0x118919e891d0205a7492650ad32e727617fa9452",
            "revertMessage": "",
            "sender": "0x60f030d621a4ab27dff024a8e43eb36e2d95fb02",
            "simulationEnable": true,
            "sourceTxnHash": "0x844d92007a94c888faf842f95c3b3673979a7f4757215717f832b1dad75cd42a",
            "status": true,
            "timestamp": "2023-09-29T17:19:35Z",
            "transactionFee": "0.002755664223199488",
            "txnHash": "0x844d92007a94c888faf842f95c3b3673979a7f4757215717f832b1dad75cd42a",
            "txnIndex": 40,
            "type": 2,
            "value": "0"
        },
        "fund_flow": [],
        "token_infos": [
            {
                "address": "0xc02aaa39b223fe8d0a0e5c4f27ead9083c756cc2",
                "decimals": 18
            },
            {
                "address": "0xeeeeeeeeeeeeeeeeeeeeeeeeeeeeeeeeeeeeeeee",
                "decimals": 18
            }
        ]
    },
    "address_label": {
        "labels": [
            {
                "address": "0x118919e891d0205a7492650ad32e727617fa9452",
                "label": "GnosisSafeProxy_1189_9452"
            },
            {
                "address": "0x9e1320991057c1246cba9f02c79f272a4da892b3",
                "label": "AccessControlledOffchainAggregator"
            },
            {
                "address": "0x0000000000000000000000000000000000000001",
                "label": "Precompiled"
            },
            {
                "address": "0xc04611c43842220fd941515f86d1dddb15f04e46",
                "label": "EACAggregatorProxy"
            },
            {
                "address": "0x0000000000000000000000000000000000000002",
                "label": "Precompiled"
            },
            {
                "address": "0xeeeeeeeeeeeeeeeeeeeeeeeeeeeeeeeeeeeeeeee",
                "label": "Ether"
            },
            {
                "address": "0x40a2accbd92bca938b02010e17a5b8929b49130d",
                "label": "Safe: Multi Send Call Only 1.3.0"
            },
            {
                "address": "0x60f030d621a4ab27dff024a8e43eb36e2d95fb02",
                "label": "Ondo Finance"
            },
            {
                "address": "0xc53e6824480d976180a65415c19a6931d17265ba",
                "label": "RWAOracleRateCheck"
            },
            {
                "address": "0xd9db270c1b5e3bd161e8c8503c55ceabee709552",
                "label": "Safe: Singleton 1.3.0"
            },
            {
                "address": "0x0000000000000000000000000000000000000000",
                "label": "Null Address"
            },
            {
                "address": "0x0502c5ae08e7cd64fe1aeda7d6e229413ecc6abe",
                "label": "Flux Finance: OUSG Oracle"
            },
            {
                "address": "0x0000000000000000000000000000000000000004",
                "label": "Precompiled"
            },
            {
                "address": "0x0000000000000000000000000000000000000003",
                "label": "Precompiled"
            }
        ]
    },
    "trace": {
        "accountLabels": null,
        "dataMap": {
            "-1": {
                "invocation": {
                    "address": "0x60f030d621a4ab27dff024a8e43eb36e2d95fb02",
                    "callData": "",
                    "decodedMethod": null,
                    "errorInfo": "",
                    "fromAddress": "",
                    "gasUsed": 0,
                    "id": -1,
                    "methodDecoded": false,
                    "operation": "",
                    "output": "",
                    "revert": false,
                    "revertMessage": "",
                    "selector": "",
                    "status": false,
                    "value": ""
                },
                "nodeType": 0
            },
            "0": {
                "invocation": {
                    "address": "0x118919e891d0205a7492650ad32e727617fa9452",
                    "callData": "0x00000000000000000000000040a2accbd92bca938b02010e17a5b8929b49130d0000000000000000000000000000000000000000000000000000000000000000000000000000000000000000000000000000000000000000000000000000014000000000000000000000000000000000000000000000000000000000000000010000000000000000000000000000000000000000000000000000000000000000000000000000000000000000000000000000000000000000000000000000000000000000000000000000000000000000000000000000000000000000000000000000000000000000000000000000000000000000000000000000000000000000000000000000000000000000000000000000000000000000000000000000000000000000000000000000000000000000000000000000000000000000000002c000000000000000000000000000000000000000000000000000000000000001448d80ff0a000000000000000000000000000000000000000000000000000000000000002000000000000000000000000000000000000000000000000000000000000000f200c53e6824480d976180a65415c19a6931d17265ba00000000000000000000000000000000000000000000000000000000000000000000000000000000000000000000000000000000000000000000000000000024f7a3080600000000000000000000000000000000000000000000000594e36275b6fad8c0000502c5ae08e7cd64fe1aeda7d6e229413ecc6abe00000000000000000000000000000000000000000000000000000000000000000000000000000000000000000000000000000000000000000000000000000024f7a3080600000000000000000000000000000000000000000000000594e36275b6fad8c000000000000000000000000000000000000000000000000000000000000000000000000000000000000000000000000000000000000000000000000000000000000000000000000000c3340cff80b527f2940e9cf956f89306b281d2308ff90bc29487f7e5bb98f7064d7623fc8250b3ca2d192798fa6077c213dddf038f55de1d81eeea32c459a912332000000000000000000000000060f030d621a4ab27dff024a8e43eb36e2d95fb0200000000000000000000000000000000000000000000000000000000000000000193ab1b1b63a758f20907a50533a61b77eb22d4a69f2ba62e48d74da69c22905d5f66a4a1455750a392354ab7e79141322eacc7a336df7670774f66f1c86808311b0000000000000000000000000000000000000000000000000000000000",
                    "decodedMethod": {
                        "callParams": [
                            {
                                "name": "to",
                                "type": "address",
                                "value": "0x40a2accbd92bca938b02010e17a5b8929b49130d"
                            },
                            {
                                "name": "value",
                                "type": "uint256",
                                "value": "0"
                            },
                            {
                                "name": "data",
                                "type": "bytes",
                                "value": "0x8d80ff0a000000000000000000000000000000000000000000000000000000000000002000000000000000000000000000000000000000000000000000000000000000f200c53e6824480d976180a65415c19a6931d17265ba00000000000000000000000000000000000000000000000000000000000000000000000000000000000000000000000000000000000000000000000000000024f7a3080600000000000000000000000000000000000000000000000594e36275b6fad8c0000502c5ae08e7cd64fe1aeda7d6e229413ecc6abe00000000000000000000000000000000000000000000000000000000000000000000000000000000000000000000000000000000000000000000000000000024f7a3080600000000000000000000000000000000000000000000000594e36275b6fad8c00000000000000000000000000000"
                            },
                            {
                                "name": "operation",
                                "type": "uint8",
                                "value": "1"
                            },
                            {
                                "name": "safeTxGas",
                                "type": "uint256",
                                "value": "0"
                            },
                            {
                                "name": "baseGas",
                                "type": "uint256",
                                "value": "0"
                            },
                            {
                                "name": "gasPrice",
                                "type": "uint256",
                                "value": "0"
                            },
                            {
                                "name": "gasToken",
                                "type": "address",
                                "value": "0x0000000000000000000000000000000000000000"
                            },
                            {
                                "name": "refundReceiver",
                                "type": "address",
                                "value": "0x0000000000000000000000000000000000000000"
                            },
                            {
                                "name": "signatures",
                                "type": "bytes",
                                "value": "0x340cff80b527f2940e9cf956f89306b281d2308ff90bc29487f7e5bb98f7064d7623fc8250b3ca2d192798fa6077c213dddf038f55de1d81eeea32c459a912332000000000000000000000000060f030d621a4ab27dff024a8e43eb36e2d95fb0200000000000000000000000000000000000000000000000000000000000000000193ab1b1b63a758f20907a50533a61b77eb22d4a69f2ba62e48d74da69c22905d5f66a4a1455750a392354ab7e79141322eacc7a336df7670774f66f1c86808311b"
                            }
                        ],
                        "constructorArguments": "",
                        "name": "execTransaction",
                        "returnParams": [
                            {
                                "name": "success",
                                "type": "bool",
                                "value": true
                            }
                        ],
                        "signature": "execTransaction(address,uint256,bytes,uint8,uint256,uint256,uint256,address,address,bytes)"
                    },
                    "errorInfo": "",
                    "fromAddress": "0x60f030d621a4ab27dff024a8e43eb36e2d95fb02",
                    "gasUsed": 148518,
                    "id": 0,
                    "methodDecoded": true,
                    "operation": "CALL",
                    "output": "0x0000000000000000000000000000000000000000000000000000000000000001",
                    "revert": false,
                    "revertMessage": "",
                    "selector": "0x6a761202",
                    "status": true,
                    "value": "0"
                },
                "nodeType": 0
            },
            "1": {
                "invocation": {
                    "address": "0xd9db270c1b5e3bd161e8c8503c55ceabee709552",
                    "callData": "0x00000000000000000000000040a2accbd92bca938b02010e17a5b8929b49130d0000000000000000000000000000000000000000000000000000000000000000000000000000000000000000000000000000000000000000000000000000014000000000000000000000000000000000000000000000000000000000000000010000000000000000000000000000000000000000000000000000000000000000000000000000000000000000000000000000000000000000000000000000000000000000000000000000000000000000000000000000000000000000000000000000000000000000000000000000000000000000000000000000000000000000000000000000000000000000000000000000000000000000000000000000000000000000000000000000000000000000000000000000000000000000000002c000000000000000000000000000000000000000000000000000000000000001448d80ff0a000000000000000000000000000000000000000000000000000000000000002000000000000000000000000000000000000000000000000000000000000000f200c53e6824480d976180a65415c19a6931d17265ba00000000000000000000000000000000000000000000000000000000000000000000000000000000000000000000000000000000000000000000000000000024f7a3080600000000000000000000000000000000000000000000000594e36275b6fad8c0000502c5ae08e7cd64fe1aeda7d6e229413ecc6abe00000000000000000000000000000000000000000000000000000000000000000000000000000000000000000000000000000000000000000000000000000024f7a3080600000000000000000000000000000000000000000000000594e36275b6fad8c000000000000000000000000000000000000000000000000000000000000000000000000000000000000000000000000000000000000000000000000000000000000000000000000000c3340cff80b527f2940e9cf956f89306b281d2308ff90bc29487f7e5bb98f7064d7623fc8250b3ca2d192798fa6077c213dddf038f55de1d81eeea32c459a912332000000000000000000000000060f030d621a4ab27dff024a8e43eb36e2d95fb0200000000000000000000000000000000000000000000000000000000000000000193ab1b1b63a758f20907a50533a61b77eb22d4a69f2ba62e48d74da69c22905d5f66a4a1455750a392354ab7e79141322eacc7a336df7670774f66f1c86808311b0000000000000000000000000000000000000000000000000000000000",
                    "decodedMethod": {
                        "callParams": [
                            {
                                "name": "to",
                                "type": "address",
                                "value": "0x40a2accbd92bca938b02010e17a5b8929b49130d"
                            },
                            {
                                "name": "value",
                                "type": "uint256",
                                "value": "0"
                            },
                            {
                                "name": "data",
                                "type": "bytes",
                                "value": "0x8d80ff0a000000000000000000000000000000000000000000000000000000000000002000000000000000000000000000000000000000000000000000000000000000f200c53e6824480d976180a65415c19a6931d17265ba00000000000000000000000000000000000000000000000000000000000000000000000000000000000000000000000000000000000000000000000000000024f7a3080600000000000000000000000000000000000000000000000594e36275b6fad8c0000502c5ae08e7cd64fe1aeda7d6e229413ecc6abe00000000000000000000000000000000000000000000000000000000000000000000000000000000000000000000000000000000000000000000000000000024f7a3080600000000000000000000000000000000000000000000000594e36275b6fad8c00000000000000000000000000000"
                            },
                            {
                                "name": "operation",
                                "type": "uint8",
                                "value": "1"
                            },
                            {
                                "name": "safeTxGas",
                                "type": "uint256",
                                "value": "0"
                            },
                            {
                                "name": "baseGas",
                                "type": "uint256",
                                "value": "0"
                            },
                            {
                                "name": "gasPrice",
                                "type": "uint256",
                                "value": "0"
                            },
                            {
                                "name": "gasToken",
                                "type": "address",
                                "value": "0x0000000000000000000000000000000000000000"
                            },
                            {
                                "name": "refundReceiver",
                                "type": "address",
                                "value": "0x0000000000000000000000000000000000000000"
                            },
                            {
                                "name": "signatures",
                                "type": "bytes",
                                "value": "0x340cff80b527f2940e9cf956f89306b281d2308ff90bc29487f7e5bb98f7064d7623fc8250b3ca2d192798fa6077c213dddf038f55de1d81eeea32c459a912332000000000000000000000000060f030d621a4ab27dff024a8e43eb36e2d95fb0200000000000000000000000000000000000000000000000000000000000000000193ab1b1b63a758f20907a50533a61b77eb22d4a69f2ba62e48d74da69c22905d5f66a4a1455750a392354ab7e79141322eacc7a336df7670774f66f1c86808311b"
                            }
                        ],
                        "constructorArguments": "",
                        "name": "execTransaction",
                        "returnParams": [
                            {
                                "name": "success",
                                "type": "bool",
                                "value": true
                            }
                        ],
                        "signature": "execTransaction(address,uint256,bytes,uint8,uint256,uint256,uint256,address,address,bytes)"
                    },
                    "errorInfo": "",
                    "fromAddress": "0x118919e891d0205a7492650ad32e727617fa9452",
                    "gasUsed": 115572,
                    "id": 1,
                    "methodDecoded": true,
                    "operation": "DELEGATECALL",
                    "output": "0x0000000000000000000000000000000000000000000000000000000000000001",
                    "revert": false,
                    "revertMessage": "",
                    "selector": "0x6a761202",
                    "status": true,
                    "value": "0"
                },
                "nodeType": 0
            },
            "10": {
                "event": {
                    "contract": "0x0502c5ae08e7cd64fe1aeda7d6e229413ecc6abe",
                    "decodedLog": {
                        "name": "RWAExternalComparisonCheckPriceSet",
                        "params": [
                            {
                                "name": "oldRoundId",
                                "type": "uint80",
                                "value": "18,446,744,073,709,551,802"
                            },
                            {
                                "name": "newRoundId",
                                "type": "uint80",
                                "value": "18,446,744,073,709,551,803"
                            },
                            {
                                "name": "oldChainlinkPrice",
                                "type": "int256",
                                "value": "11,046,245,000"
                            },
                            {
                                "name": "newChainlinkPrice",
                                "type": "int256",
                                "value": "11,048,000,000"
                            },
                            {
                                "name": "oldRWAPrice",
                                "type": "int256",
                                "value": "102,916,202,045,787,000,000"
                            },
                            {
                                "name": "newRWAPrice",
                                "type": "int256",
                                "value": "102,962,247,363,595,000,000"
                            }
                        ],
                        "signature": "RWAExternalComparisonCheckPriceSet(int256,uint80,int256,uint80,int256,int256)"
                    },
                    "id": 10,
                    "logData": "0x00000000000000000000000000000000000000000000000000000002926852880000000000000000000000000000000000000000000000000000000292831a00000000000000000000000000000000000000000000000005943fcc7cbb76ccc000000000000000000000000000000000000000000000000594e36275b6fad8c0",
                    "logDecoded": true,
                    "operation": "EVENT",
                    "revert": false,
                    "status": true,
                    "topics": [
                        "0x3cc2938e8035ab592372e28987d89549a1f8bb703601bc3dbd894f18f5c20a06",
                        "0x00000000000000000000000000000000000000000000000100000000000000ba",
                        "0x00000000000000000000000000000000000000000000000100000000000000bb"
                    ]
                },
                "nodeType": 1
            },
            "11": {
                "event": {
                    "contract": "0x118919e891d0205a7492650ad32e727617fa9452",
                    "decodedLog": {
                        "name": "ExecutionSuccess",
                        "params": [
                            {
                                "name": "txHash",
                                "type": "bytes32",
                                "value": "0x5e6862c5a1c204afcfd3d40f78326a27b85f29e087c14458a7f0d4693343d4b3"
                            },
                            {
                                "name": "payment",
                                "type": "uint256",
                                "value": "0"
                            }
                        ],
                        "signature": "ExecutionSuccess(bytes32,uint256)"
                    },
                    "id": 11,
                    "logData": "0x5e6862c5a1c204afcfd3d40f78326a27b85f29e087c14458a7f0d4693343d4b30000000000000000000000000000000000000000000000000000000000000000",
                    "logDecoded": true,
                    "operation": "EVENT",
                    "revert": false,
                    "status": true,
                    "topics": [
                        "0x442e715f626346e8c54381002da614f62bee8d27386535b2521ec8540898556e"
                    ]
                },
                "nodeType": 1
            },
            "2": {
                "invocation": {
                    "address": "0x0000000000000000000000000000000000000001",
                    "callData": "0x1e45b333fc4cf14b654e306d7e5c33cd4214066173a896126958a2bc000000000000000000000000000000000000000000000000000000000000001c340cff80b527f2940e9cf956f89306b281d2308ff90bc29487f7e5bb98f7064d7623fc8250b3ca2d192798fa6077c213dddf038f55de1d81eeea32c459a91233",
                    "decodedMethod": {
                        "callParams": [
                            {
                                "name": "hash",
                                "type": "bytes32",
                                "value": "0xebc9698c1e45b333fc4cf14b654e306d7e5c33cd4214066173a896126958a2bc"
                            },
                            {
                                "name": "v",
                                "type": "uint256",
                                "value": "28"
                            },
                            {
                                "name": "r",
                                "type": "bytes32",
                                "value": "0x340cff80b527f2940e9cf956f89306b281d2308ff90bc29487f7e5bb98f7064d"
                            },
                            {
                                "name": "s",
                                "type": "bytes32",
                                "value": "0x7623fc8250b3ca2d192798fa6077c213dddf038f55de1d81eeea32c459a91233"
                            }
                        ],
                        "constructorArguments": "",
                        "name": "ecrecover",
                        "returnParams": [
                            {
                                "name": "",
                                "type": "address",
                                "value": "0x3c6fdc07a3280b79f82610525bca7dceb9d2f7f4"
                            }
                        ],
                        "signature": "ecrecover(bytes32,uint256,bytes32,bytes32)"
                    },
                    "errorInfo": "",
                    "fromAddress": "0x118919e891d0205a7492650ad32e727617fa9452",
                    "gasUsed": 3000,
                    "id": 2,
                    "methodDecoded": true,
                    "operation": "STATICCALL",
                    "output": "0x0000000000000000000000003c6fdc07a3280b79f82610525bca7dceb9d2f7f4",
                    "revert": false,
                    "revertMessage": "",
                    "selector": "0xebc9698c",
                    "status": true,
                    "value": "0"
                },
                "nodeType": 0
            },
            "3": {
                "invocation": {
                    "address": "0x0000000000000000000000000000000000000001",
                    "callData": "0xa1c204afcfd3d40f78326a27b85f29e087c14458a7f0d4693343d4b3000000000000000000000000000000000000000000000000000000000000001b93ab1b1b63a758f20907a50533a61b77eb22d4a69f2ba62e48d74da69c22905d5f66a4a1455750a392354ab7e79141322eacc7a336df7670774f66f1c8680831",
                    "decodedMethod": {
                        "callParams": [
                            {
                                "name": "hash",
                                "type": "bytes32",
                                "value": "0x5e6862c5a1c204afcfd3d40f78326a27b85f29e087c14458a7f0d4693343d4b3"
                            },
                            {
                                "name": "v",
                                "type": "uint256",
                                "value": "27"
                            },
                            {
                                "name": "r",
                                "type": "bytes32",
                                "value": "0x93ab1b1b63a758f20907a50533a61b77eb22d4a69f2ba62e48d74da69c22905d"
                            },
                            {
                                "name": "s",
                                "type": "bytes32",
                                "value": "0x5f66a4a1455750a392354ab7e79141322eacc7a336df7670774f66f1c8680831"
                            }
                        ],
                        "constructorArguments": "",
                        "name": "ecrecover",
                        "returnParams": [
                            {
                                "name": "",
                                "type": "address",
                                "value": "0x9019295ca2dcdc4bcff323b562e87fc922e34c32"
                            }
                        ],
                        "signature": "ecrecover(bytes32,uint256,bytes32,bytes32)"
                    },
                    "errorInfo": "",
                    "fromAddress": "0x118919e891d0205a7492650ad32e727617fa9452",
                    "gasUsed": 3000,
                    "id": 3,
                    "methodDecoded": true,
                    "operation": "STATICCALL",
                    "output": "0x0000000000000000000000009019295ca2dcdc4bcff323b562e87fc922e34c32",
                    "revert": false,
                    "revertMessage": "",
                    "selector": "0x5e6862c5",
                    "status": true,
                    "value": "0"
                },
                "nodeType": 0
            },
            "4": {
                "invocation": {
                    "address": "0x40a2accbd92bca938b02010e17a5b8929b49130d",
                    "callData": "0x000000000000000000000000000000000000000000000000000000000000002000000000000000000000000000000000000000000000000000000000000000f200c53e6824480d976180a65415c19a6931d17265ba00000000000000000000000000000000000000000000000000000000000000000000000000000000000000000000000000000000000000000000000000000024f7a3080600000000000000000000000000000000000000000000000594e36275b6fad8c0000502c5ae08e7cd64fe1aeda7d6e229413ecc6abe00000000000000000000000000000000000000000000000000000000000000000000000000000000000000000000000000000000000000000000000000000024f7a3080600000000000000000000000000000000000000000000000594e36275b6fad8c00000000000000000000000000000",
                    "decodedMethod": {
                        "callParams": [
                            {
                                "name": "transactions",
                                "type": "bytes",
                                "value": "0x00c53e6824480d976180a65415c19a6931d17265ba00000000000000000000000000000000000000000000000000000000000000000000000000000000000000000000000000000000000000000000000000000024f7a3080600000000000000000000000000000000000000000000000594e36275b6fad8c0000502c5ae08e7cd64fe1aeda7d6e229413ecc6abe00000000000000000000000000000000000000000000000000000000000000000000000000000000000000000000000000000000000000000000000000000024f7a3080600000000000000000000000000000000000000000000000594e36275b6fad8c0"
                            }
                        ],
                        "constructorArguments": "",
                        "name": "multiSend",
                        "returnParams": [],
                        "signature": "multiSend(bytes)"
                    },
                    "errorInfo": "",
                    "fromAddress": "0x118919e891d0205a7492650ad32e727617fa9452",
                    "gasUsed": 83572,
                    "id": 4,
                    "methodDecoded": true,
                    "operation": "DELEGATECALL",
                    "output": "",
                    "revert": false,
                    "revertMessage": "",
                    "selector": "0x8d80ff0a",
                    "status": true,
                    "value": "0"
                },
                "nodeType": 0
            },
            "5": {
                "invocation": {
                    "address": "0xc53e6824480d976180a65415c19a6931d17265ba",
                    "callData": "0x00000000000000000000000000000000000000000000000594e36275b6fad8c0",
                    "decodedMethod": {
                        "callParams": [
                            {
                                "name": "newPrice",
                                "type": "int256",
                                "value": "102,962,247,363,595,000,000"
                            }
                        ],
                        "constructorArguments": "",
                        "name": "setPrice",
                        "returnParams": [],
                        "signature": "setPrice(int256)"
                    },
                    "errorInfo": "",
                    "fromAddress": "0x118919e891d0205a7492650ad32e727617fa9452",
                    "gasUsed": 14950,
                    "id": 5,
                    "methodDecoded": true,
                    "operation": "CALL",
                    "output": "",
                    "revert": false,
                    "revertMessage": "",
                    "selector": "0xf7a30806",
                    "status": true,
                    "value": "0"
                },
                "nodeType": 0
            },
            "6": {
                "event": {
                    "contract": "0xc53e6824480d976180a65415c19a6931d17265ba",
                    "decodedLog": {
                        "name": "RWAPriceSet",
                        "params": [
                            {
                                "name": "oldPrice",
                                "type": "int256",
                                "value": "102,916,202,045,787,000,000"
                            },
                            {
                                "name": "newPrice",
                                "type": "int256",
                                "value": "102,962,247,363,595,000,000"
                            },
                            {
                                "name": "timestamp",
                                "type": "uint256",
                                "value": "1,696,007,975"
                            }
                        ],
                        "signature": "RWAPriceSet(int256,int256,uint256)"
                    },
                    "id": 6,
                    "logData": "0x000000000000000000000000000000000000000000000005943fcc7cbb76ccc000000000000000000000000000000000000000000000000594e36275b6fad8c00000000000000000000000000000000000000000000000000000000065170727",
                    "logDecoded": true,
                    "operation": "EVENT",
                    "revert": false,
                    "status": true,
                    "topics": [
                        "0x1ad78d5a9c05e5f0ee9ff6e3817cc97a99b504483f99ebc08d431bd5c707c741"
                    ]
                },
                "nodeType": 1
            },
            "7": {
                "invocation": {
                    "address": "0x0502c5ae08e7cd64fe1aeda7d6e229413ecc6abe",
                    "callData": "0x00000000000000000000000000000000000000000000000594e36275b6fad8c0",
                    "decodedMethod": {
                        "callParams": [
                            {
                                "name": "newPrice",
                                "type": "int256",
                                "value": "102,962,247,363,595,000,000"
                            }
                        ],
                        "constructorArguments": "",
                        "name": "setPrice",
                        "returnParams": [],
                        "signature": "setPrice(int256)"
                    },
                    "errorInfo": "",
                    "fromAddress": "0x118919e891d0205a7492650ad32e727617fa9452",
                    "gasUsed": 62315,
                    "id": 7,
                    "methodDecoded": true,
                    "operation": "CALL",
                    "output": "",
                    "revert": false,
                    "revertMessage": "",
                    "selector": "0xf7a30806",
                    "status": true,
                    "value": "0"
                },
                "nodeType": 0
            },
            "8": {
                "invocation": {
                    "address": "0xc04611c43842220fd941515f86d1dddb15f04e46",
                    "callData": "0x",
                    "decodedMethod": {
                        "callParams": [],
                        "constructorArguments": "",
                        "name": "latestRoundData",
                        "returnParams": [
                            {
                                "name": "roundId",
                                "type": "uint80",
                                "value": "18,446,744,073,709,551,803"
                            },
                            {
                                "name": "answer",
                                "type": "int256",
                                "value": "11,048,000,000"
                            },
                            {
                                "name": "startedAt",
                                "type": "uint256",
                                "value": "1,695,994,991"
                            },
                            {
                                "name": "updatedAt",
                                "type": "uint256",
                                "value": "1,695,994,991"
                            },
                            {
                                "name": "answeredInRound",
                                "type": "uint80",
                                "value": "18,446,744,073,709,551,803"
                            }
                        ],
                        "signature": "latestRoundData()"
                    },
                    "errorInfo": "",
                    "fromAddress": "0x0502c5ae08e7cd64fe1aeda7d6e229413ecc6abe",
                    "gasUsed": 15735,
                    "id": 8,
                    "methodDecoded": true,
                    "operation": "STATICCALL",
                    "output": "0x00000000000000000000000000000000000000000000000100000000000000bb0000000000000000000000000000000000000000000000000000000292831a00000000000000000000000000000000000000000000000000000000006516d46f000000000000000000000000000000000000000000000000000000006516d46f00000000000000000000000000000000000000000000000100000000000000bb",
                    "revert": false,
                    "revertMessage": "",
                    "selector": "0xfeaf968c",
                    "status": true,
                    "value": "0"
                },
                "nodeType": 0
            },
            "9": {
                "invocation": {
                    "address": "0x9e1320991057c1246cba9f02c79f272a4da892b3",
                    "callData": "0x",
                    "decodedMethod": {
                        "callParams": [],
                        "constructorArguments": "",
                        "name": "latestRoundData",
                        "returnParams": [
                            {
                                "name": "roundId",
                                "type": "uint80",
                                "value": "187"
                            },
                            {
                                "name": "answer",
                                "type": "int256",
                                "value": "11,048,000,000"
                            },
                            {
                                "name": "startedAt",
                                "type": "uint256",
                                "value": "1,695,994,991"
                            },
                            {
                                "name": "updatedAt",
                                "type": "uint256",
                                "value": "1,695,994,991"
                            },
                            {
                                "name": "answeredInRound",
                                "type": "uint80",
                                "value": "187"
                            }
                        ],
                        "signature": "latestRoundData()"
                    },
                    "errorInfo": "",
                    "fromAddress": "0xc04611c43842220fd941515f86d1dddb15f04e46",
                    "gasUsed": 7502,
                    "id": 9,
                    "methodDecoded": true,
                    "operation": "STATICCALL",
                    "output": "0x00000000000000000000000000000000000000000000000000000000000000bb0000000000000000000000000000000000000000000000000000000292831a00000000000000000000000000000000000000000000000000000000006516d46f000000000000000000000000000000000000000000000000000000006516d46f00000000000000000000000000000000000000000000000000000000000000bb",
                    "revert": false,
                    "revertMessage": "",
                    "selector": "0xfeaf968c",
                    "status": true,
                    "value": "0"
                },
                "nodeType": 0
            }
        },
        "gasFlame": [
            {
                "children": [
                    {
                        "children": [
                            {
                                "children": [],
                                "depth": 0,
                                "name": "Initial Gas",
                                "value": 27940
                            },
                            {
                                "children": [
                                    {
                                        "children": [
                                            {
                                                "children": [],
                                                "depth": 2,
                                                "name": "ecrecover",
                                                "value": 3000
                                            },
                                            {
                                                "children": [],
                                                "depth": 2,
                                                "name": "ecrecover",
                                                "value": 3000
                                            },
                                            {
                                                "children": [
                                                    {
                                                        "children": [],
                                                        "depth": 3,
                                                        "name": "setPrice",
                                                        "value": 14950
                                                    },
                                                    {
                                                        "children": [
                                                            {
                                                                "children": [
                                                                    {
                                                                        "children": [],
                                                                        "depth": 5,
                                                                        "name": "latestRoundData",
                                                                        "value": 7502
                                                                    }
                                                                ],
                                                                "depth": 4,
                                                                "name": "latestRoundData",
                                                                "value": 15735
                                                            }
                                                        ],
                                                        "depth": 3,
                                                        "name": "setPrice",
                                                        "value": 62315
                                                    }
                                                ],
                                                "depth": 2,
                                                "name": "multiSend",
                                                "value": 83572
                                            }
                                        ],
                                        "depth": 1,
                                        "name": "execTransaction",
                                        "value": 115572
                                    }
                                ],
                                "depth": 0,
                                "name": "Executed Gas",
                                "value": 120578
                            }
                        ],
                        "depth": -1,
                        "name": "Actual Gas Used",
                        "value": 148518
                    },
                    {
                        "children": [],
                        "depth": -1,
                        "name": "Refunded Gas",
                        "value": 0
                    }
                ],
                "depth": -2,
                "name": "Total Gas",
                "value": 148518
            }
        ],
        "isConfirmed": true,
        "mainTrace": [
            {
                "children": [
                    {
                        "children": [
                            {
                                "children": [
                                    {
                                        "children": [],
                                        "depth": 2,
                                        "id": 2,
                                        "order": 2
                                    },
                                    {
                                        "children": [],
                                        "depth": 2,
                                        "id": 3,
                                        "order": 3
                                    },
                                    {
                                        "children": [
                                            {
                                                "children": [
                                                    {
                                                        "children": [],
                                                        "depth": 4,
                                                        "id": 6,
                                                        "order": 6
                                                    }
                                                ],
                                                "depth": 3,
                                                "id": 5,
                                                "order": 5
                                            },
                                            {
                                                "children": [
                                                    {
                                                        "children": [
                                                            {
                                                                "children": [],
                                                                "depth": 5,
                                                                "id": 9,
                                                                "order": 9
                                                            }
                                                        ],
                                                        "depth": 4,
                                                        "id": 8,
                                                        "order": 8
                                                    },
                                                    {
                                                        "children": [],
                                                        "depth": 4,
                                                        "id": 10,
                                                        "order": 10
                                                    }
                                                ],
                                                "depth": 3,
                                                "id": 7,
                                                "order": 7
                                            }
                                        ],
                                        "depth": 2,
                                        "id": 4,
                                        "order": 4
                                    },
                                    {
                                        "children": [],
                                        "depth": 2,
                                        "id": 11,
                                        "order": 11
                                    }
                                ],
                                "depth": 1,
                                "id": 1,
                                "order": 1
                            }
                        ],
                        "depth": 0,
                        "id": 0,
                        "order": 0
                    }
                ],
                "depth": -1,
                "id": -1,
                "order": -1
            }
        ],
        "mainTraceNodeCount": 12,
        "parentIdMap": {
            "0": -1,
            "1": 0,
            "10": 7,
            "11": 1,
            "2": 1,
            "3": 1,
            "4": 1,
            "5": 4,
            "6": 5,
            "7": 4,
            "8": 7,
            "9": 8
        },
        "tidyTrace": [
            {
                "children": [
                    {
                        "children": [
                            {
                                "children": [
                                    {
                                        "children": [
                                            {
                                                "children": [
                                                    {
                                                        "children": [],
                                                        "depth": 4,
                                                        "id": 6,
                                                        "order": 6
                                                    }
                                                ],
                                                "depth": 3,
                                                "id": 5,
                                                "order": 5
                                            },
                                            {
                                                "children": [
                                                    {
                                                        "children": [],
                                                        "depth": 4,
                                                        "id": 10,
                                                        "order": 10
                                                    }
                                                ],
                                                "depth": 3,
                                                "id": 7,
                                                "order": 7
                                            }
                                        ],
                                        "depth": 2,
                                        "id": 4,
                                        "order": 4
                                    },
                                    {
                                        "children": [],
                                        "depth": 2,
                                        "id": 11,
                                        "order": 11
                                    }
                                ],
                                "depth": 1,
                                "id": 1,
                                "order": 1
                            }
                        ],
                        "depth": 0,
                        "id": 0,
                        "order": 0
                    }
                ],
                "depth": -1,
                "id": -1,
                "order": -1
            }
        ],
        "tidyTraceNodeCount": 8
    },
    "state_change": {
        "stateChanges": [
            {
                "address": "0x0502c5ae08e7cd64fe1aeda7d6e229413ecc6abe",
                "erc": "",
                "slots": [
                    {
                        "current": "0x0000000000000000000000000000000000000000000000000000000292831a00",
                        "key": "0x0000000000000000000000000000000000000000000000000000000000000005",
                        "prev": "0x0000000000000000000000000000000000000000000000000000000292685288"
                    },
                    {
                        "current": "0x000000000000000000000000000000000000000000000000000000006516d46f",
                        "key": "0x0000000000000000000000000000000000000000000000000000000000000006",
                        "prev": "0x00000000000000000000000000000000000000000000000000000000651582bf"
                    },
                    {
                        "current": "0x000000000000000000000000000000000000000000000000000000006516d46f",
                        "key": "0x0000000000000000000000000000000000000000000000000000000000000007",
                        "prev": "0x00000000000000000000000000000000000000000000000000000000651582bf"
                    },
                    {
                        "current": "0x00000000000000000000000000000000000000000000000100000000000000bb",
                        "key": "0x0000000000000000000000000000000000000000000000000000000000000008",
                        "prev": "0x00000000000000000000000000000000000000000000000100000000000000ba"
                    },
                    {
                        "current": "0x00000000000000000000000000000000000000000000000594e36275b6fad8c0",
                        "key": "0x0000000000000000000000000000000000000000000000000000000000000002",
                        "prev": "0x000000000000000000000000000000000000000000000005943fcc7cbb76ccc0"
                    },
                    {
                        "current": "0x0000000000000000000000000000000000000000000000000000000065170727",
                        "key": "0x0000000000000000000000000000000000000000000000000000000000000003",
                        "prev": "0x000000000000000000000000000000000000000000000000000000006515c297"
                    },
                    {
                        "current": "0x00000000000000000000000000000000000000000000000100000000000000bb",
                        "key": "0x0000000000000000000000000000000000000000000000000000000000000004",
                        "prev": "0x00000000000000000000000000000000000000000000000100000000000000ba"
                    }
                ],
                "storageVariables": [
                    {
                        "name": "lastSetRound",
                        "type": "struct RWAOracleExternalComparisonCheck.ChainlinkRoundData",
                        "value": {
                            "fields": [
                                {
                                    "name": "roundId",
                                    "type": "uint80",
                                    "value": {
                                        "current": "18446744073709551803",
                                        "prev": "18446744073709551802",
                                        "typeTag": 1
                                    }
                                },
                                {
                                    "name": "answer",
                                    "type": "int256",
                                    "value": {
                                        "current": "11048000000",
                                        "prev": "11046245000",
                                        "typeTag": 1
                                    }
                                },
                                {
                                    "name": "startedAt",
                                    "type": "uint256",
                                    "value": {
                                        "current": "1695994991",
                                        "prev": "1695908543",
                                        "typeTag": 1
                                    }
                                },
                                {
                                    "name": "updatedAt",
                                    "type": "uint256",
                                    "value": {
                                        "current": "1695994991",
                                        "prev": "1695908543",
                                        "typeTag": 1
                                    }
                                },
                                {
                                    "name": "answeredInRound",
                                    "type": "uint80",
                                    "value": {
                                        "current": "18446744073709551803",
                                        "prev": "18446744073709551802",
                                        "typeTag": 1
                                    }
                                }
                            ],
                            "typeTag": 3
                        }
                    },
                    {
                        "name": "rwaPrice",
                        "type": "int256",
                        "value": {
                            "current": "102962247363595000000",
                            "prev": "102916202045787000000",
                            "typeTag": 1
                        }
                    },
                    {
                        "name": "priceTimestamp",
                        "type": "uint256",
                        "value": {
                            "current": "1696007975",
                            "prev": "1695924887",
                            "typeTag": 1
                        }
                    }
                ]
            },
            {
                "address": "0x118919e891d0205a7492650ad32e727617fa9452",
                "erc": "",
                "slots": [
                    {
                        "current": "0x0000000000000000000000000000000000000000000000000000000000000108",
                        "key": "0x0000000000000000000000000000000000000000000000000000000000000005",
                        "prev": "0x0000000000000000000000000000000000000000000000000000000000000107"
                    }
                ],
                "storageVariables": [
                    {
                        "name": "nonce",
                        "type": "uint256",
                        "value": {
                            "current": "264",
                            "prev": "263",
                            "typeTag": 1
                        }
                    }
                ]
            },
            {
                "address": "0xc53e6824480d976180a65415c19a6931d17265ba",
                "erc": "",
                "slots": [
                    {
                        "current": "0x00000000000000000000000000000000000000000000000594e36275b6fad8c0",
                        "key": "0x0000000000000000000000000000000000000000000000000000000000000002",
                        "prev": "0x000000000000000000000000000000000000000000000005943fcc7cbb76ccc0"
                    },
                    {
                        "current": "0x0000000000000000000000000000000000000000000000000000000065170727",
                        "key": "0x0000000000000000000000000000000000000000000000000000000000000003",
                        "prev": "0x000000000000000000000000000000000000000000000000000000006515c297"
                    }
                ],
                "storageVariables": [
                    {
                        "name": "priceTimestamp",
                        "type": "uint256",
                        "value": {
                            "current": "1696007975",
                            "prev": "1695924887",
                            "typeTag": 1
                        }
                    },
                    {
                        "name": "rwaPrice",
                        "type": "int256",
                        "value": {
                            "current": "102962247363595000000",
                            "prev": "102916202045787000000",
                            "typeTag": 1
                        }
                    }
                ]
            }
        ]
    }
}