{
    "balance_change": {
        "balanceChanges": [
            {
                "account": "0xc41e369ffa529f3b1097b1f219fcbd9dc8853587",
                "assets": [
                    {
                        "address": "0x9f4a8167ca311a87b0d03aafa44e0d2c3d8a3631",
                        "amount": "170,000",
                        "iconUrl": "",
                        "isERC1155": false,
                        "isERC721": false,
                        "sign": false,
                        "value": "1189.513346"
                    },
                    {
                        "address": "0xc02aaa39b223fe8d0a0e5c4f27ead9083c756cc2",
                        "amount": "0.631740183088785713",
                        "iconUrl": "https://assets.blocksec.com/icon/f1cb2d02c471d545bbc7722daf3277fd852d98e63d118771af7047bd8256c516.png",
                        "isERC1155": false,
                        "isERC721": false,
                        "sign": true,
                        "value": "1128.496441277022954"
                    }
                ]
            },
            {
                "account": "0x7c54f680e983de8d7ac6b034b7b7dff0922d0323",
                "assets": [
                    {
                        "address": "0x9f4a8167ca311a87b0d03aafa44e0d2c3d8a3631",
                        "amount": "161,500",
                        "iconUrl": "",
                        "isERC1155": false,
                        "isERC721": false,
                        "sign": true,
                        "value": "1085.361121"
                    },
                    {
                        "address": "0xc02aaa39b223fe8d0a0e5c4f27ead9083c756cc2",
                        "amount": "0.631740183088785713",
                        "iconUrl": "https://assets.blocksec.com/icon/f1cb2d02c471d545bbc7722daf3277fd852d98e63d118771af7047bd8256c516.png",
                        "isERC1155": false,
                        "isERC721": false,
                        "sign": false,
                        "value": "1128.496441277022954"
                    }
                ]
            },
            {
                "account": "0x9f4a8167ca311a87b0d03aafa44e0d2c3d8a3631",
                "assets": [
                    {
                        "address": "0x9f4a8167ca311a87b0d03aafa44e0d2c3d8a3631",
                        "amount": "8,500",
                        "iconUrl": "",
                        "isERC1155": false,
                        "isERC721": false,
                        "sign": true,
                        "value": "58.24659439"
                    }
                ]
            }
        ]
    },
    "profile": {
        "basic_info": {
            "baseFee": "40.347423364",
            "blockNumber": 18428834,
            "callData": "0x13ad47900000000000000000000000009f4a8167ca311a87b0d03aafa44e0d2c3d8a36310000000000000000000000000000000000000000000023ffb7ed6565d6400000",
            "debugEnable": true,
            "errorInfo": "",
            "eventCount": 5,
            "feeRecipient": "0x0aa8ebb6ad5a8e499e550ae2c461197624c6e667",
            "formatValue": "0",
            "gasLimit": 257932,
            "gasPrice": "40.647423364",
            "gasUsed": 166332,
            "intTxnCount": 14,
            "internalRevert": true,
            "internalRevertMessage": "",
            "isContractCreation": false,
            "isFlashloan": false,
            "maxFee": "68.980023056",
            "nonce": 17,
            "overwritedBlockNumber": -1,
            "priorityFee": "0.3",
            "receiver": "0xc41e369ffa529f3b1097b1f219fcbd9dc8853587",
            "revertMessage": "",
            "sender": "0x436b071a3d4334a56072795461c8bbd7baaee340",
            "simulationEnable": true,
            "sourceTxnHash": "0x84fbbfcb75fef3df6be34d36aa7e2193cebad2b045acfb251a1b28cdcd0c204b",
            "status": true,
            "timestamp": "2023-10-25T17:47:47Z",
            "transactionFee": "0.006760967222980848",
            "txnHash": "0x84fbbfcb75fef3df6be34d36aa7e2193cebad2b045acfb251a1b28cdcd0c204b",
            "txnIndex": 99,
            "type": 2,
            "value": "0"
        },
        "fund_flow": [
            {
                "amount": "8,500",
                "from": "0xc41e369ffa529f3b1097b1f219fcbd9dc8853587",
                "id": 1,
                "isERC1155": false,
                "isERC721": false,
                "isReverted": false,
                "order": 1,
                "to": "0x9f4a8167ca311a87b0d03aafa44e0d2c3d8a3631",
                "token": "0x9f4a8167ca311a87b0d03aafa44e0d2c3d8a3631"
            },
            {
                "amount": "161,500",
                "from": "0xc41e369ffa529f3b1097b1f219fcbd9dc8853587",
                "id": 2,
                "isERC1155": false,
                "isERC721": false,
                "isReverted": false,
                "order": 2,
                "to": "0x7c54f680e983de8d7ac6b034b7b7dff0922d0323",
                "token": "0x9f4a8167ca311a87b0d03aafa44e0d2c3d8a3631"
            },
            {
                "amount": "0.631740183088785713",
                "from": "0x7c54f680e983de8d7ac6b034b7b7dff0922d0323",
                "id": 3,
                "isERC1155": false,
                "isERC721": false,
                "isReverted": false,
                "order": 3,
                "to": "0xc41e369ffa529f3b1097b1f219fcbd9dc8853587",
                "token": "0xc02aaa39b223fe8d0a0e5c4f27ead9083c756cc2"
            }
        ],
        "token_infos": [
            {
                "address": "0xc02aaa39b223fe8d0a0e5c4f27ead9083c756cc2",
                "decimals": 18
            },
            {
                "address": "0xeeeeeeeeeeeeeeeeeeeeeeeeeeeeeeeeeeeeeeee",
                "decimals": 18
            },
            {
                "address": "0x9f4a8167ca311a87b0d03aafa44e0d2c3d8a3631",
                "decimals": 18
            }
        ]
    },
    "address_label": {
        "labels": [
            {
                "address": "0xeeeeeeeeeeeeeeeeeeeeeeeeeeeeeeeeeeeeeeee",
                "label": "Ether"
            },
            {
                "address": "0xc02aaa39b223fe8d0a0e5c4f27ead9083c756cc2",
                "label": "Wrapped Ether (WETH)"
            },
            {
                "address": "0x5c69bee701ef814a2b6a3edd4b1652cb9cc5aa6f",
                "label": "Uniswap V2: Factory Contract"
            },
            {
                "address": "0x7c54f680e983de8d7ac6b034b7b7dff0922d0323",
                "label": "Uniswap V2: BBOX 5"
            },
            {
                "address": "0x0000000000000000000000000000000000000001",
                "label": "Precompiled"
            },
            {
                "address": "0x9f4a8167ca311a87b0d03aafa44e0d2c3d8a3631",
                "label": "Block Box (BBOX)"
            },
            {
                "address": "0x0000000000000000000000000000000000000002",
                "label": "Precompiled"
            },
            {
                "address": "0x0000000000000000000000000000000000000003",
                "label": "Precompiled"
            },
            {
                "address": "0x0000000000000000000000000000000000000004",
                "label": "Precompiled"
            }
        ]
    },
    "trace": {
        "accountLabels": null,
        "dataMap": {
            "-1": {
                "invocation": {
                    "address": "0x436b071a3d4334a56072795461c8bbd7baaee340",
                    "callData": "",
                    "decodedMethod": null,
                    "errorInfo": "",
                    "fromAddress": "",
                    "gasUsed": 0,
                    "id": -1,
                    "methodDecoded": false,
                    "operation": "",
                    "output": "",
                    "revert": false,
                    "revertMessage": "",
                    "selector": "",
                    "status": false,
                    "value": ""
                },
                "nodeType": 0
            },
            "0": {
                "invocation": {
                    "address": "0xc41e369ffa529f3b1097b1f219fcbd9dc8853587",
                    "callData": "0x0000000000000000000000009f4a8167ca311a87b0d03aafa44e0d2c3d8a36310000000000000000000000000000000000000000000023ffb7ed6565d6400000",
                    "decodedMethod": {
                        "callParams": [
                            {
                                "name": "atFrom",
                                "type": "address",
                                "value": "0x9f4a8167ca311a87b0d03aafa44e0d2c3d8a3631"
                            },
                            {
                                "name": "amountLaunched",
                                "type": "uint256",
                                "value": "170,000,000,000,000,000,000,000"
                            }
                        ],
                        "constructorArguments": "",
                        "name": "sellAmount",
                        "returnParams": [],
                        "signature": "sellAmount(address,uint256)"
                    },
                    "errorInfo": "",
                    "fromAddress": "0x436b071a3d4334a56072795461c8bbd7baaee340",
                    "gasUsed": 166332,
                    "id": 0,
                    "methodDecoded": true,
                    "operation": "CALL",
                    "output": "",
                    "revert": false,
                    "revertMessage": "",
                    "selector": "0x13ad4790",
                    "status": true,
                    "value": "0"
                },
                "nodeType": 0
            },
            "1": {
                "invocation": {
                    "address": "0x9f4a8167ca311a87b0d03aafa44e0d2c3d8a3631",
                    "callData": "0x",
                    "decodedMethod": {
                        "callParams": [],
                        "constructorArguments": "",
                        "name": "token0",
                        "returnParams": [],
                        "signature": "token0()"
                    },
                    "errorInfo": "execution reverted",
                    "fromAddress": "0xc41e369ffa529f3b1097b1f219fcbd9dc8853587",
                    "gasUsed": 258,
                    "id": 1,
                    "methodDecoded": true,
                    "operation": "STATICCALL",
                    "output": "",
                    "revert": true,
                    "revertMessage": "",
                    "selector": "0x0dfe1681",
                    "status": false,
                    "value": "0"
                },
                "nodeType": 0
            },
            "10": {
                "invocation": {
                    "address": "0x8280793de7b6deda66a76b25d0c5ab2c43cee239",
                    "callData": "0x000000000000000000000000c41e369ffa529f3b1097b1f219fcbd9dc8853587000000000000000000000000000000000000000000006bff27c8303182c00000",
                    "decodedMethod": {
                        "callParams": [
                            {
                                "name": "account",
                                "type": "address",
                                "value": "0xc41e369ffa529f3b1097b1f219fcbd9dc8853587"
                            },
                            {
                                "name": "newBalance",
                                "type": "uint256",
                                "value": "510,000,000,000,000,000,000,000"
                            }
                        ],
                        "constructorArguments": "",
                        "name": "setBalance",
                        "returnParams": [],
                        "signature": "setBalance(address,uint256)"
                    },
                    "errorInfo": "",
                    "fromAddress": "0x9f4a8167ca311a87b0d03aafa44e0d2c3d8a3631",
                    "gasUsed": 22053,
                    "id": 10,
                    "methodDecoded": true,
                    "operation": "CALL",
                    "output": "",
                    "revert": false,
                    "revertMessage": "",
                    "selector": "0xe30443bc",
                    "status": true,
                    "value": "0"
                },
                "nodeType": 0
            },
            "11": {
                "invocation": {
                    "address": "0x7c54f680e983de8d7ac6b034b7b7dff0922d0323",
                    "callData": "0x",
                    "decodedMethod": {
                        "callParams": [],
                        "constructorArguments": "",
                        "name": "getReserves",
                        "returnParams": [
                            {
                                "name": "_reserve0",
                                "type": "uint112",
                                "value": "8,458,026,944,951,785,861,716,262"
                            },
                            {
                                "name": "_reserve1",
                                "type": "uint112",
                                "value": "33,849,841,378,037,781,289"
                            },
                            {
                                "name": "_blockTimestampLast",
                                "type": "uint32",
                                "value": "1,698,255,995"
                            }
                        ],
                        "signature": "getReserves()"
                    },
                    "errorInfo": "",
                    "fromAddress": "0xc41e369ffa529f3b1097b1f219fcbd9dc8853587",
                    "gasUsed": 2504,
                    "id": 11,
                    "methodDecoded": true,
                    "operation": "STATICCALL",
                    "output": "0x00000000000000000000000000000000000000000006ff0e8f36fe50d8909926000000000000000000000000000000000000000000000001d5c2cb63a142d329000000000000000000000000000000000000000000000000000000006539547b",
                    "revert": false,
                    "revertMessage": "",
                    "selector": "0x0902f1ac",
                    "status": true,
                    "value": "0"
                },
                "nodeType": 0
            },
            "12": {
                "invocation": {
                    "address": "0x9f4a8167ca311a87b0d03aafa44e0d2c3d8a3631",
                    "callData": "0x0000000000000000000000007c54f680e983de8d7ac6b034b7b7dff0922d0323",
                    "decodedMethod": {
                        "callParams": [
                            {
                                "name": "account",
                                "type": "address",
                                "value": "0x7c54f680e983de8d7ac6b034b7b7dff0922d0323"
                            }
                        ],
                        "constructorArguments": "",
                        "name": "balanceOf",
                        "returnParams": [
                            {
                                "decimalAvailable": true,
                                "name": "",
                                "type": "uint256",
                                "value": "8,619,526,944,951,785,861,716,262"
                            }
                        ],
                        "signature": "balanceOf(address)"
                    },
                    "errorInfo": "",
                    "fromAddress": "0xc41e369ffa529f3b1097b1f219fcbd9dc8853587",
                    "gasUsed": 635,
                    "id": 12,
                    "methodDecoded": true,
                    "operation": "STATICCALL",
                    "output": "0x0000000000000000000000000000000000000000000721417df21ea4ca809926",
                    "revert": false,
                    "revertMessage": "",
                    "selector": "0x70a08231",
                    "status": true,
                    "value": "0"
                },
                "nodeType": 0
            },
            "13": {
                "invocation": {
                    "address": "0x7c54f680e983de8d7ac6b034b7b7dff0922d0323",
                    "callData": "0x000000000000000000000000000000000000000000000000000000000000000000000000000000000000000000000000000000000000000008c464597358e931000000000000000000000000c41e369ffa529f3b1097b1f219fcbd9dc885358700000000000000000000000000000000000000000000000000000000000000800000000000000000000000000000000000000000000000000000000000000000",
                    "decodedMethod": {
                        "callParams": [
                            {
                                "name": "amount0Out",
                                "type": "uint256",
                                "value": "0"
                            },
                            {
                                "name": "amount1Out",
                                "type": "uint256",
                                "value": "631,740,183,088,785,713"
                            },
                            {
                                "name": "to",
                                "type": "address",
                                "value": "0xc41e369ffa529f3b1097b1f219fcbd9dc8853587"
                            },
                            {
                                "name": "data",
                                "type": "bytes",
                                "value": "0x"
                            }
                        ],
                        "constructorArguments": "",
                        "name": "swap",
                        "returnParams": [],
                        "signature": "swap(uint256,uint256,address,bytes)"
                    },
                    "errorInfo": "",
                    "fromAddress": "0xc41e369ffa529f3b1097b1f219fcbd9dc8853587",
                    "gasUsed": 43854,
                    "id": 13,
                    "methodDecoded": true,
                    "operation": "CALL",
                    "output": "",
                    "revert": false,
                    "revertMessage": "",
                    "selector": "0x022c0d9f",
                    "status": true,
                    "value": "0"
                },
                "nodeType": 0
            },
            "14": {
                "invocation": {
                    "address": "0xc02aaa39b223fe8d0a0e5c4f27ead9083c756cc2",
                    "callData": "0x000000000000000000000000c41e369ffa529f3b1097b1f219fcbd9dc885358700000000000000000000000000000000000000000000000008c464597358e931",
                    "decodedMethod": {
                        "callParams": [
                            {
                                "name": "dst",
                                "type": "address",
                                "value": "0xc41e369ffa529f3b1097b1f219fcbd9dc8853587"
                            },
                            {
                                "decimalAvailable": true,
                                "name": "wad",
                                "type": "uint256",
                                "value": "631,740,183,088,785,713"
                            }
                        ],
                        "constructorArguments": "",
                        "name": "transfer",
                        "returnParams": [
                            {
                                "name": "",
                                "type": "bool",
                                "value": true
                            }
                        ],
                        "signature": "transfer(address,uint256)"
                    },
                    "errorInfo": "",
                    "fromAddress": "0x7c54f680e983de8d7ac6b034b7b7dff0922d0323",
                    "gasUsed": 12862,
                    "id": 14,
                    "methodDecoded": true,
                    "operation": "CALL",
                    "output": "0x0000000000000000000000000000000000000000000000000000000000000001",
                    "revert": false,
                    "revertMessage": "",
                    "selector": "0xa9059cbb",
                    "status": true,
                    "value": "0"
                },
                "nodeType": 0
            },
            "15": {
                "event": {
                    "contract": "0xc02aaa39b223fe8d0a0e5c4f27ead9083c756cc2",
                    "decodedLog": {
                        "name": "Transfer",
                        "params": [
                            {
                                "name": "src",
                                "type": "address",
                                "value": "0x7c54f680e983de8d7ac6b034b7b7dff0922d0323"
                            },
                            {
                                "name": "dst",
                                "type": "address",
                                "value": "0xc41e369ffa529f3b1097b1f219fcbd9dc8853587"
                            },
                            {
                                "decimalAvailable": true,
                                "name": "wad",
                                "type": "uint256",
                                "value": "631,740,183,088,785,713"
                            }
                        ],
                        "signature": "Transfer(address,address,uint256)"
                    },
                    "id": 15,
                    "logData": "0x00000000000000000000000000000000000000000000000008c464597358e931",
                    "logDecoded": true,
                    "operation": "EVENT",
                    "revert": false,
                    "status": true,
                    "topics": [
                        "0xddf252ad1be2c89b69c2b068fc378daa952ba7f163c4a11628f55a4df523b3ef",
                        "0x0000000000000000000000007c54f680e983de8d7ac6b034b7b7dff0922d0323",
                        "0x000000000000000000000000c41e369ffa529f3b1097b1f219fcbd9dc8853587"
                    ]
                },
                "nodeType": 1
            },
            "16": {
                "invocation": {
                    "address": "0x9f4a8167ca311a87b0d03aafa44e0d2c3d8a3631",
                    "callData": "0x0000000000000000000000007c54f680e983de8d7ac6b034b7b7dff0922d0323",
                    "decodedMethod": {
                        "callParams": [
                            {
                                "name": "account",
                                "type": "address",
                                "value": "0x7c54f680e983de8d7ac6b034b7b7dff0922d0323"
                            }
                        ],
                        "constructorArguments": "",
                        "name": "balanceOf",
                        "returnParams": [
                            {
                                "decimalAvailable": true,
                                "name": "",
                                "type": "uint256",
                                "value": "8,619,526,944,951,785,861,716,262"
                            }
                        ],
                        "signature": "balanceOf(address)"
                    },
                    "errorInfo": "",
                    "fromAddress": "0x7c54f680e983de8d7ac6b034b7b7dff0922d0323",
                    "gasUsed": 635,
                    "id": 16,
                    "methodDecoded": true,
                    "operation": "STATICCALL",
                    "output": "0x0000000000000000000000000000000000000000000721417df21ea4ca809926",
                    "revert": false,
                    "revertMessage": "",
                    "selector": "0x70a08231",
                    "status": true,
                    "value": "0"
                },
                "nodeType": 0
            },
            "17": {
                "invocation": {
                    "address": "0xc02aaa39b223fe8d0a0e5c4f27ead9083c756cc2",
                    "callData": "0x0000000000000000000000007c54f680e983de8d7ac6b034b7b7dff0922d0323",
                    "decodedMethod": {
                        "callParams": [
                            {
                                "name": "",
                                "type": "address",
                                "value": "0x7c54f680e983de8d7ac6b034b7b7dff0922d0323"
                            }
                        ],
                        "constructorArguments": "",
                        "name": "balanceOf",
                        "returnParams": [
                            {
                                "decimalAvailable": true,
                                "name": "",
                                "type": "uint256",
                                "value": "33,218,101,194,948,995,576"
                            }
                        ],
                        "signature": "balanceOf(address)"
                    },
                    "errorInfo": "",
                    "fromAddress": "0x7c54f680e983de8d7ac6b034b7b7dff0922d0323",
                    "gasUsed": 534,
                    "id": 17,
                    "methodDecoded": true,
                    "operation": "STATICCALL",
                    "output": "0x000000000000000000000000000000000000000000000001ccfe670a2de9e9f8",
                    "revert": false,
                    "revertMessage": "",
                    "selector": "0x70a08231",
                    "status": true,
                    "value": "0"
                },
                "nodeType": 0
            },
            "18": {
                "event": {
                    "contract": "0x7c54f680e983de8d7ac6b034b7b7dff0922d0323",
                    "decodedLog": {
                        "name": "Sync",
                        "params": [
                            {
                                "name": "reserve0",
                                "type": "uint112",
                                "value": "8,619,526,944,951,785,861,716,262"
                            },
                            {
                                "name": "reserve1",
                                "type": "uint112",
                                "value": "33,218,101,194,948,995,576"
                            }
                        ],
                        "signature": "Sync(uint112,uint112)"
                    },
                    "id": 18,
                    "logData": "0x0000000000000000000000000000000000000000000721417df21ea4ca809926000000000000000000000000000000000000000000000001ccfe670a2de9e9f8",
                    "logDecoded": true,
                    "operation": "EVENT",
                    "revert": false,
                    "status": true,
                    "topics": [
                        "0x1c411e9a96e071241c2f21f7726b17ae89e3cab4c78be50e062b03a9fffbbad1"
                    ]
                },
                "nodeType": 1
            },
            "19": {
                "event": {
                    "contract": "0x7c54f680e983de8d7ac6b034b7b7dff0922d0323",
                    "decodedLog": {
                        "name": "Swap",
                        "params": [
                            {
                                "name": "sender",
                                "type": "address",
                                "value": "0xc41e369ffa529f3b1097b1f219fcbd9dc8853587"
                            },
                            {
                                "name": "to",
                                "type": "address",
                                "value": "0xc41e369ffa529f3b1097b1f219fcbd9dc8853587"
                            },
                            {
                                "name": "amount0In",
                                "type": "uint256",
                                "value": "161,500,000,000,000,000,000,000"
                            },
                            {
                                "name": "amount1In",
                                "type": "uint256",
                                "value": "0"
                            },
                            {
                                "name": "amount0Out",
                                "type": "uint256",
                                "value": "0"
                            },
                            {
                                "name": "amount1Out",
                                "type": "uint256",
                                "value": "631,740,183,088,785,713"
                            }
                        ],
                        "signature": "Swap(address,uint256,uint256,uint256,uint256,address)"
                    },
                    "id": 19,
                    "logData": "0x000000000000000000000000000000000000000000002232eebb2053f1f000000000000000000000000000000000000000000000000000000000000000000000000000000000000000000000000000000000000000000000000000000000000000000000000000000000000000000000000000000000000008c464597358e931",
                    "logDecoded": true,
                    "operation": "EVENT",
                    "revert": false,
                    "status": true,
                    "topics": [
                        "0xd78ad95fa46c994b6551d0da85fc275fe613ce37657fb8d5e3d130840159d822",
                        "0x000000000000000000000000c41e369ffa529f3b1097b1f219fcbd9dc8853587",
                        "0x000000000000000000000000c41e369ffa529f3b1097b1f219fcbd9dc8853587"
                    ]
                },
                "nodeType": 1
            },
            "2": {
                "invocation": {
                    "address": "0x5c69bee701ef814a2b6a3edd4b1652cb9cc5aa6f",
                    "callData": "0x0000000000000000000000009f4a8167ca311a87b0d03aafa44e0d2c3d8a3631000000000000000000000000c02aaa39b223fe8d0a0e5c4f27ead9083c756cc2",
                    "decodedMethod": {
                        "callParams": [
                            {
                                "name": "",
                                "type": "address",
                                "value": "0x9f4a8167ca311a87b0d03aafa44e0d2c3d8a3631"
                            },
                            {
                                "name": "",
                                "type": "address",
                                "value": "0xc02aaa39b223fe8d0a0e5c4f27ead9083c756cc2"
                            }
                        ],
                        "constructorArguments": "",
                        "name": "getPair",
                        "returnParams": [
                            {
                                "name": "",
                                "type": "address",
                                "value": "0x7c54f680e983de8d7ac6b034b7b7dff0922d0323"
                            }
                        ],
                        "signature": "getPair(address,address)"
                    },
                    "errorInfo": "",
                    "fromAddress": "0xc41e369ffa529f3b1097b1f219fcbd9dc8853587",
                    "gasUsed": 2564,
                    "id": 2,
                    "methodDecoded": true,
                    "operation": "STATICCALL",
                    "output": "0x0000000000000000000000007c54f680e983de8d7ac6b034b7b7dff0922d0323",
                    "revert": false,
                    "revertMessage": "",
                    "selector": "0xe6a43905",
                    "status": true,
                    "value": "0"
                },
                "nodeType": 0
            },
            "3": {
                "invocation": {
                    "address": "0x7c54f680e983de8d7ac6b034b7b7dff0922d0323",
                    "callData": "0x",
                    "decodedMethod": {
                        "callParams": [],
                        "constructorArguments": "",
                        "name": "token0",
                        "returnParams": [
                            {
                                "name": "",
                                "type": "address",
                                "value": "0x9f4a8167ca311a87b0d03aafa44e0d2c3d8a3631"
                            }
                        ],
                        "signature": "token0()"
                    },
                    "errorInfo": "",
                    "fromAddress": "0xc41e369ffa529f3b1097b1f219fcbd9dc8853587",
                    "gasUsed": 2381,
                    "id": 3,
                    "methodDecoded": true,
                    "operation": "STATICCALL",
                    "output": "0x0000000000000000000000009f4a8167ca311a87b0d03aafa44e0d2c3d8a3631",
                    "revert": false,
                    "revertMessage": "",
                    "selector": "0x0dfe1681",
                    "status": true,
                    "value": "0"
                },
                "nodeType": 0
            },
            "4": {
                "invocation": {
                    "address": "0x7c54f680e983de8d7ac6b034b7b7dff0922d0323",
                    "callData": "0x",
                    "decodedMethod": {
                        "callParams": [],
                        "constructorArguments": "",
                        "name": "token1",
                        "returnParams": [
                            {
                                "name": "",
                                "type": "address",
                                "value": "0xc02aaa39b223fe8d0a0e5c4f27ead9083c756cc2"
                            }
                        ],
                        "signature": "token1()"
                    },
                    "errorInfo": "",
                    "fromAddress": "0xc41e369ffa529f3b1097b1f219fcbd9dc8853587",
                    "gasUsed": 2357,
                    "id": 4,
                    "methodDecoded": true,
                    "operation": "STATICCALL",
                    "output": "0x000000000000000000000000c02aaa39b223fe8d0a0e5c4f27ead9083c756cc2",
                    "revert": false,
                    "revertMessage": "",
                    "selector": "0xd21220a7",
                    "status": true,
                    "value": "0"
                },
                "nodeType": 0
            },
            "5": {
                "invocation": {
                    "address": "0x9f4a8167ca311a87b0d03aafa44e0d2c3d8a3631",
                    "callData": "0x000000000000000000000000c41e369ffa529f3b1097b1f219fcbd9dc8853587",
                    "decodedMethod": {
                        "callParams": [
                            {
                                "name": "account",
                                "type": "address",
                                "value": "0xc41e369ffa529f3b1097b1f219fcbd9dc8853587"
                            }
                        ],
                        "constructorArguments": "",
                        "name": "balanceOf",
                        "returnParams": [
                            {
                                "decimalAvailable": true,
                                "name": "",
                                "type": "uint256",
                                "value": "680,000,000,000,000,000,000,000"
                            }
                        ],
                        "signature": "balanceOf(address)"
                    },
                    "errorInfo": "",
                    "fromAddress": "0xc41e369ffa529f3b1097b1f219fcbd9dc8853587",
                    "gasUsed": 2635,
                    "id": 5,
                    "methodDecoded": true,
                    "operation": "STATICCALL",
                    "output": "0x000000000000000000000000000000000000000000008ffedfb5959759000000",
                    "revert": false,
                    "revertMessage": "",
                    "selector": "0x70a08231",
                    "status": true,
                    "value": "0"
                },
                "nodeType": 0
            },
            "6": {
                "invocation": {
                    "address": "0x9f4a8167ca311a87b0d03aafa44e0d2c3d8a3631",
                    "callData": "0x0000000000000000000000007c54f680e983de8d7ac6b034b7b7dff0922d03230000000000000000000000000000000000000000000023ffb7ed6565d6400000",
                    "decodedMethod": {
                        "callParams": [
                            {
                                "name": "to",
                                "type": "address",
                                "value": "0x7c54f680e983de8d7ac6b034b7b7dff0922d0323"
                            },
                            {
                                "decimalAvailable": true,
                                "name": "amount",
                                "type": "uint256",
                                "value": "170,000,000,000,000,000,000,000"
                            }
                        ],
                        "constructorArguments": "",
                        "name": "transfer",
                        "returnParams": [
                            {
                                "name": "",
                                "type": "bool",
                                "value": true
                            }
                        ],
                        "signature": "transfer(address,uint256)"
                    },
                    "errorInfo": "",
                    "fromAddress": "0xc41e369ffa529f3b1097b1f219fcbd9dc8853587",
                    "gasUsed": 77290,
                    "id": 6,
                    "methodDecoded": true,
                    "operation": "CALL",
                    "output": "0x0000000000000000000000000000000000000000000000000000000000000001",
                    "revert": false,
                    "revertMessage": "",
                    "selector": "0xa9059cbb",
                    "status": true,
                    "value": "0"
                },
                "nodeType": 0
            },
            "7": {
                "event": {
                    "contract": "0x9f4a8167ca311a87b0d03aafa44e0d2c3d8a3631",
                    "decodedLog": {
                        "name": "Transfer",
                        "params": [
                            {
                                "name": "from",
                                "type": "address",
                                "value": "0xc41e369ffa529f3b1097b1f219fcbd9dc8853587"
                            },
                            {
                                "name": "to",
                                "type": "address",
                                "value": "0x9f4a8167ca311a87b0d03aafa44e0d2c3d8a3631"
                            },
                            {
                                "decimalAvailable": true,
                                "name": "value",
                                "type": "uint256",
                                "value": "8,500,000,000,000,000,000,000"
                            }
                        ],
                        "signature": "Transfer(address,address,uint256)"
                    },
                    "id": 7,
                    "logData": "0x0000000000000000000000000000000000000000000001ccc9324511e4500000",
                    "logDecoded": true,
                    "operation": "EVENT",
                    "revert": false,
                    "status": true,
                    "topics": [
                        "0xddf252ad1be2c89b69c2b068fc378daa952ba7f163c4a11628f55a4df523b3ef",
                        "0x000000000000000000000000c41e369ffa529f3b1097b1f219fcbd9dc8853587",
                        "0x0000000000000000000000009f4a8167ca311a87b0d03aafa44e0d2c3d8a3631"
                    ]
                },
                "nodeType": 1
            },
            "8": {
                "event": {
                    "contract": "0x9f4a8167ca311a87b0d03aafa44e0d2c3d8a3631",
                    "decodedLog": {
                        "name": "Transfer",
                        "params": [
                            {
                                "name": "from",
                                "type": "address",
                                "value": "0xc41e369ffa529f3b1097b1f219fcbd9dc8853587"
                            },
                            {
                                "name": "to",
                                "type": "address",
                                "value": "0x7c54f680e983de8d7ac6b034b7b7dff0922d0323"
                            },
                            {
                                "decimalAvailable": true,
                                "name": "value",
                                "type": "uint256",
                                "value": "161,500,000,000,000,000,000,000"
                            }
                        ],
                        "signature": "Transfer(address,address,uint256)"
                    },
                    "id": 8,
                    "logData": "0x000000000000000000000000000000000000000000002232eebb2053f1f00000",
                    "logDecoded": true,
                    "operation": "EVENT",
                    "revert": false,
                    "status": true,
                    "topics": [
                        "0xddf252ad1be2c89b69c2b068fc378daa952ba7f163c4a11628f55a4df523b3ef",
                        "0x000000000000000000000000c41e369ffa529f3b1097b1f219fcbd9dc8853587",
                        "0x0000000000000000000000007c54f680e983de8d7ac6b034b7b7dff0922d0323"
                    ]
                },
                "nodeType": 1
            },
            "9": {
                "invocation": {
                    "address": "0x8280793de7b6deda66a76b25d0c5ab2c43cee239",
                    "callData": "0x0000000000000000000000007c54f680e983de8d7ac6b034b7b7dff0922d03230000000000000000000000000000000000000000000721417df21ea4ca809926",
                    "decodedMethod": {
                        "callParams": [
                            {
                                "name": "account",
                                "type": "address",
                                "value": "0x7c54f680e983de8d7ac6b034b7b7dff0922d0323"
                            },
                            {
                                "name": "newBalance",
                                "type": "uint256",
                                "value": "8,619,526,944,951,785,861,716,262"
                            }
                        ],
                        "constructorArguments": "",
                        "name": "setBalance",
                        "returnParams": [],
                        "signature": "setBalance(address,uint256)"
                    },
                    "errorInfo": "",
                    "fromAddress": "0x9f4a8167ca311a87b0d03aafa44e0d2c3d8a3631",
                    "gasUsed": 4759,
                    "id": 9,
                    "methodDecoded": true,
                    "operation": "CALL",
                    "output": "",
                    "revert": false,
                    "revertMessage": "",
                    "selector": "0xe30443bc",
                    "status": true,
                    "value": "0"
                },
                "nodeType": 0
            }
        },
        "gasFlame": [
            {
                "children": [
                    {
                        "children": [
                            {
                                "children": [],
                                "depth": 0,
                                "name": "Initial Gas",
                                "value": 21656
                            },
                            {
                                "children": [
                                    {
                                        "children": [],
                                        "depth": 1,
                                        "name": "token0",
                                        "value": 258
                                    },
                                    {
                                        "children": [],
                                        "depth": 1,
                                        "name": "getPair",
                                        "value": 2564
                                    },
                                    {
                                        "children": [],
                                        "depth": 1,
                                        "name": "token0",
                                        "value": 2381
                                    },
                                    {
                                        "children": [],
                                        "depth": 1,
                                        "name": "token1",
                                        "value": 2357
                                    },
                                    {
                                        "children": [],
                                        "depth": 1,
                                        "name": "balanceOf",
                                        "value": 2635
                                    },
                                    {
                                        "children": [
                                            {
                                                "children": [],
                                                "depth": 2,
                                                "name": "setBalance",
                                                "value": 4759
                                            },
                                            {
                                                "children": [],
                                                "depth": 2,
                                                "name": "setBalance",
                                                "value": 22053
                                            }
                                        ],
                                        "depth": 1,
                                        "name": "transfer",
                                        "value": 77290
                                    },
                                    {
                                        "children": [],
                                        "depth": 1,
                                        "name": "getReserves",
                                        "value": 2504
                                    },
                                    {
                                        "children": [],
                                        "depth": 1,
                                        "name": "balanceOf",
                                        "value": 635
                                    },
                                    {
                                        "children": [
                                            {
                                                "children": [],
                                                "depth": 2,
                                                "name": "transfer",
                                                "value": 12862
                                            },
                                            {
                                                "children": [],
                                                "depth": 2,
                                                "name": "balanceOf",
                                                "value": 635
                                            },
                                            {
                                                "children": [],
                                                "depth": 2,
                                                "name": "balanceOf",
                                                "value": 534
                                            }
                                        ],
                                        "depth": 1,
                                        "name": "swap",
                                        "value": 43854
                                    }
                                ],
                                "depth": 0,
                                "name": "Executed Gas",
                                "value": 147476
                            }
                        ],
                        "depth": -1,
                        "name": "Actual Gas Used",
                        "value": 166332
                    },
                    {
                        "children": [],
                        "depth": -1,
                        "name": "Refunded Gas",
                        "value": 2800
                    }
                ],
                "depth": -2,
                "name": "Total Gas",
                "value": 169132
            }
        ],
        "isConfirmed": true,
        "mainTrace": [
            {
                "children": [
                    {
                        "children": [
                            {
                                "children": [],
                                "depth": 1,
                                "id": 1,
                                "order": 1
                            },
                            {
                                "children": [],
                                "depth": 1,
                                "id": 2,
                                "order": 2
                            },
                            {
                                "children": [],
                                "depth": 1,
                                "id": 3,
                                "order": 3
                            },
                            {
                                "children": [],
                                "depth": 1,
                                "id": 4,
                                "order": 4
                            },
                            {
                                "children": [],
                                "depth": 1,
                                "id": 5,
                                "order": 5
                            },
                            {
                                "children": [
                                    {
                                        "children": [],
                                        "depth": 2,
                                        "id": 7,
                                        "order": 7
                                    },
                                    {
                                        "children": [],
                                        "depth": 2,
                                        "id": 8,
                                        "order": 8
                                    },
                                    {
                                        "children": [],
                                        "depth": 2,
                                        "id": 9,
                                        "order": 9
                                    },
                                    {
                                        "children": [],
                                        "depth": 2,
                                        "id": 10,
                                        "order": 10
                                    }
                                ],
                                "depth": 1,
                                "id": 6,
                                "order": 6
                            },
                            {
                                "children": [],
                                "depth": 1,
                                "id": 11,
                                "order": 11
                            },
                            {
                                "children": [],
                                "depth": 1,
                                "id": 12,
                                "order": 12
                            },
                            {
                                "children": [
                                    {
                                        "children": [
                                            {
                                                "children": [],
                                                "depth": 3,
                                                "id": 15,
                                                "order": 15
                                            }
                                        ],
                                        "depth": 2,
                                        "id": 14,
                                        "order": 14
                                    },
                                    {
                                        "children": [],
                                        "depth": 2,
                                        "id": 16,
                                        "order": 16
                                    },
                                    {
                                        "children": [],
                                        "depth": 2,
                                        "id": 17,
                                        "order": 17
                                    },
                                    {
                                        "children": [],
                                        "depth": 2,
                                        "id": 18,
                                        "order": 18
                                    },
                                    {
                                        "children": [],
                                        "depth": 2,
                                        "id": 19,
                                        "order": 19
                                    }
                                ],
                                "depth": 1,
                                "id": 13,
                                "order": 13
                            }
                        ],
                        "depth": 0,
                        "id": 0,
                        "order": 0
                    }
                ],
                "depth": -1,
                "id": -1,
                "order": -1
            }
        ],
        "mainTraceNodeCount": 20,
        "parentIdMap": {
            "0": -1,
            "1": 0,
            "10": 6,
            "11": 0,
            "12": 0,
            "13": 0,
            "14": 13,
            "15": 14,
            "16": 13,
            "17": 13,
            "18": 13,
            "19": 13,
            "2": 0,
            "3": 0,
            "4": 0,
            "5": 0,
            "6": 0,
            "7": 6,
            "8": 6,
            "9": 6
        },
        "tidyTrace": [
            {
                "children": [
                    {
                        "children": [
                            {
                                "children": [
                                    {
                                        "children": [],
                                        "depth": 2,
                                        "id": 7,
                                        "order": 7
                                    },
                                    {
                                        "children": [],
                                        "depth": 2,
                                        "id": 8,
                                        "order": 8
                                    },
                                    {
                                        "children": [],
                                        "depth": 2,
                                        "id": 9,
                                        "order": 9
                                    },
                                    {
                                        "children": [],
                                        "depth": 2,
                                        "id": 10,
                                        "order": 10
                                    }
                                ],
                                "depth": 1,
                                "id": 6,
                                "order": 6
                            },
                            {
                                "children": [
                                    {
                                        "children": [
                                            {
                                                "children": [],
                                                "depth": 3,
                                                "id": 15,
                                                "order": 15
                                            }
                                        ],
                                        "depth": 2,
                                        "id": 14,
                                        "order": 14
                                    },
                                    {
                                        "children": [],
                                        "depth": 2,
                                        "id": 18,
                                        "order": 18
                                    },
                                    {
                                        "children": [],
                                        "depth": 2,
                                        "id": 19,
                                        "order": 19
                                    }
                                ],
                                "depth": 1,
                                "id": 13,
                                "order": 13
                            }
                        ],
                        "depth": 0,
                        "id": 0,
                        "order": 0
                    }
                ],
                "depth": -1,
                "id": -1,
                "order": -1
            }
        ],
        "tidyTraceNodeCount": 11
    },
    "state_change": {
        "stateChanges": [
            {
                "address": "0x7c54f680e983de8d7ac6b034b7b7dff0922d0323",
                "erc": "ERC-20",
                "slots": [
                    {
                        "current": "0x0000000000000000000000000000000000005949e77bede2c79ef4a40d93b284",
                        "key": "0x0000000000000000000000000000000000000000000000000000000000000009",
                        "prev": "0x0000000000000000000000000000000000005937051cfb6b34cb0d41728edb1c"
                    },
                    {
                        "current": "0x0000000000000000000000000004c30256270975051d4a69abdd8a3a880976bc",
                        "key": "0x000000000000000000000000000000000000000000000000000000000000000a",
                        "prev": "0x0000000000000000000000000004c1efd27d0f3c19dca20e1b60d2506c3d4ab4"
                    },
                    {
                        "current": "0x653954c3000000000001ccfe670a2de9e9f80000000721417df21ea4ca809926",
                        "key": "0x0000000000000000000000000000000000000000000000000000000000000008",
                        "prev": "0x6539547b000000000001d5c2cb63a142d32900000006ff0e8f36fe50d8909926"
                    }
                ],
                "storageVariables": [
                    {
                        "name": "reserve0",
                        "type": "uint112",
                        "value": {
                            "current": "8619526944951785861716262",
                            "prev": "8458026944951785861716262",
                            "typeTag": 1
                        }
                    },
                    {
                        "name": "reserve1",
                        "type": "uint112",
                        "value": {
                            "current": "33218101194948995576",
                            "prev": "33849841378037781289",
                            "typeTag": 1
                        }
                    },
                    {
                        "name": "blockTimestampLast",
                        "type": "uint32",
                        "value": {
                            "current": "1698256067",
                            "prev": "1698255995",
                            "typeTag": 1
                        }
                    },
                    {
                        "name": "price0CumulativeLast",
                        "type": "uint256",
                        "value": {
                            "current": "1810989751447068712489907567964804",
                            "prev": "1809493586125546855198963658578716",
                            "typeTag": 1
                        }
                    },
                    {
                        "name": "price1CumulativeLast",
                        "type": "uint256",
                        "value": {
                            "current": "106190671631848610489067143731828906802116284",
                            "prev": "106097259251871544448555635954462894505937588",
                            "typeTag": 1
                        }
                    }
                ]
            },
            {
                "address": "0x8280793de7b6deda66a76b25d0c5ab2c43cee239",
                "erc": "",
                "slots": [
                    {
                        "current": "0x000000000000000000000000000000000000000000006bff27c8303182c00000",
                        "key": "0x8f92b615693b45e0897f28ed2cd31d3afd07b857f1fb7655e776d1820fbd4760",
                        "prev": "0x000000000000000000000000000000000000000000008ffedfb5959759000000"
                    },
                    {
                        "current": "0x0000000000000000000000000000000000000000004b94798154d6ffa2fa36c0",
                        "key": "0x0000000000000000000000000000000000000000000000000000000000000005",
                        "prev": "0x0000000000000000000000000000000000000000004bb87939423c65793a36c0"
                    }
                ],
                "storageVariables": []
            },
            {
                "address": "0x9f4a8167ca311a87b0d03aafa44e0d2c3d8a3631",
                "erc": "ERC-20",
                "slots": [
                    {
                        "current": "0x0000000000000000000001cc4e03cf57000001cc4e03cf5700000564ea0b6e06",
                        "key": "0x000000000000000000000000000000000000000000000000000000000000000d",
                        "prev": "0x0000000000000000000000407e1e6757000000407e1e6757000000c17a5b3606"
                    },
                    {
                        "current": "0x000000000000000000000000000000000000000000006bff27c8303182c00000",
                        "key": "0x06146e2c1079b190044c142556f6e611cc00b5a7540a93ad18bc5f5049ed2763",
                        "prev": "0x000000000000000000000000000000000000000000008ffedfb5959759000000"
                    },
                    {
                        "current": "0x000000000000000000000000000000000000000000000217dd81172e7685301a",
                        "key": "0xaecc2e6d5200a98d2ff804972dac4b978c213168785261f2f5935a2936f358dd",
                        "prev": "0x00000000000000000000000000000000000000000000004b144ed21c9235301a"
                    },
                    {
                        "current": "0x0000000000000000000000000000000000000000000721417df21ea4ca809926",
                        "key": "0xc2f2434f6b12f27fb1348d3a32f5692ef972d45bb32257d241a4594606b3e77d",
                        "prev": "0x00000000000000000000000000000000000000000006ff0e8f36fe50d8909926"
                    }
                ],
                "storageVariables": [
                    {
                        "name": "_balances",
                        "type": "mapping(address => uint256)",
                        "value": {
                            "pairs": [
                                {
                                    "key": "0x7c54f680e983de8d7ac6b034b7b7dff0922d0323",
                                    "value": {
                                        "current": "8619526944951785861716262",
                                        "prev": "8458026944951785861716262",
                                        "typeTag": 1
                                    }
                                },
                                {
                                    "key": "0x9f4a8167ca311a87b0d03aafa44e0d2c3d8a3631",
                                    "value": {
                                        "current": "9884969143477312237594",
                                        "prev": "1384969143477312237594",
                                        "typeTag": 1
                                    }
                                },
                                {
                                    "key": "0xc41e369ffa529f3b1097b1f219fcbd9dc8853587",
                                    "value": {
                                        "current": "510000000000000000000000",
                                        "prev": "680000000000000000000000",
                                        "typeTag": 1
                                    }
                                }
                            ],
                            "typeTag": 4
                        }
                    },
                    {
                        "name": "tokensForTax",
                        "type": "struct BBOX.TokenDistributionForTax",
                        "value": {
                            "fields": [
                                {
                                    "name": "tokensForMkting",
                                    "type": "uint64",
                                    "value": {
                                        "current": "5930981486086",
                                        "prev": "830981486086",
                                        "typeTag": 1
                                    }
                                },
                                {
                                    "name": "tokensForLP",
                                    "type": "uint64",
                                    "value": {
                                        "current": "1976993828695",
                                        "prev": "276993828695",
                                        "typeTag": 1
                                    }
                                },
                                {
                                    "name": "tokensForDev",
                                    "type": "uint64",
                                    "value": {
                                        "current": "1976993828695",
                                        "prev": "276993828695",
                                        "typeTag": 1
                                    }
                                },
                                {
                                    "name": "tokensForRevShare",
                                    "type": "uint64",
                                    "value": {
                                        "current": "0",
                                        "prev": "0",
                                        "typeTag": 1
                                    }
                                }
                            ],
                            "typeTag": 3
                        }
                    }
                ]
            },
            {
                "address": "0xc02aaa39b223fe8d0a0e5c4f27ead9083c756cc2",
                "erc": "ERC-20",
                "slots": [
                    {
                        "current": "0x000000000000000000000000000000000000000000000001ccfe670a2de9e9f8",
                        "key": "0xa42c7d0f944178a11ddbc0fff952fc0c04e3a7b8944ddd441db1176a5bdb4ff5",
                        "prev": "0x000000000000000000000000000000000000000000000001d5c2cb63a142d329"
                    },
                    {
                        "current": "0x0000000000000000000000000000000000000000000000000cee34c28bf6e931",
                        "key": "0xbc62e7aae2edf54ad35f17efda669fea071eade109dc0d658bce0a7aea1758f1",
                        "prev": "0x0000000000000000000000000000000000000000000000000429d069189e0000"
                    }
                ],
                "storageVariables": [
                    {
                        "name": "balanceOf",
                        "type": "mapping(address => uint256)",
                        "value": {
                            "pairs": [
                                {
                                    "key": "0x7c54f680e983de8d7ac6b034b7b7dff0922d0323",
                                    "value": {
                                        "current": "33218101194948995576",
                                        "prev": "33849841378037781289",
                                        "typeTag": 1
                                    }
                                },
                                {
                                    "key": "0xc41e369ffa529f3b1097b1f219fcbd9dc8853587",
                                    "value": {
                                        "current": "931740183088785713",
                                        "prev": "300000000000000000",
                                        "typeTag": 1
                                    }
                                }
                            ],
                            "typeTag": 4
                        }
                    }
                ]
            }
        ]
    }
}