{
    "balance_change": {
        "balanceChanges": [
            {
                "account": "0x618f9ffc7087f0288204b6ec50fb27509d4b1fac",
                "assets": [
                    {
                        "address": "0xeeeeeeeeeeeeeeeeeeeeeeeeeeeeeeeeeeeeeeee",
                        "amount": "0.07199999999999999",
                        "iconUrl": "https://assets.blocksec.com/image/1663669189317-3.png",
                        "isERC1155": false,
                        "isERC721": false,
                        "sign": false,
                        "value": "42.36504821"
                    }
                ]
            },
            {
                "account": "0x97875355ef55ae35613029df8b1c8cf8f89c9066",
                "assets": [
                    {
                        "address": "0xeeeeeeeeeeeeeeeeeeeeeeeeeeeeeeeeeeeeeeee",
                        "amount": "0.07199999999999999",
                        "iconUrl": "https://assets.blocksec.com/image/1663669189317-3.png",
                        "isERC1155": false,
                        "isERC721": false,
                        "sign": true,
                        "value": "42.36504821"
                    }
                ]
            }
        ]
    },
    "profile": {
        "basic_info": {
            "baseFee": "",
            "blockNumber": 11460716,
            "callData": "0xa26e118600000000000000000000000000000000000000000000000000000000000000200000000000000000000000000000000000000000000000000000000000000067313253326a6f325861614d4144533438524e414e76725657596d5a626f3177666b696e6e625378696835715a6263656642543255336b725232327a6772416e48316b585a74787773416a5766774e6b4759666245417176524e5a4a3442645a596574517a64373700000000000000000000000000000000000000000000000000",
            "debugEnable": true,
            "errorInfo": "",
            "eventCount": 1,
            "feeRecipient": "0x829bd824b016326a401d083b33d092293333a830",
            "formatValue": "0.07199999999999999",
            "gasLimit": 39888,
            "gasPrice": "70.3255",
            "gasUsed": 34196,
            "intTxnCount": 0,
            "internalRevert": false,
            "internalRevertMessage": "",
            "isContractCreation": false,
            "isFlashloan": false,
            "maxFee": "",
            "nonce": 571,
            "overwritedBlockNumber": -1,
            "priorityFee": "",
            "receiver": "0x97875355ef55ae35613029df8b1c8cf8f89c9066",
            "revertMessage": "",
            "sender": "0x618f9ffc7087f0288204b6ec50fb27509d4b1fac",
            "simulationEnable": true,
            "sourceTxnHash": "0x842b061d010f5d3f7d0a439797db50d98c4662ec628e390ffda2196ef03a3bac",
            "status": true,
            "timestamp": "2020-12-15T23:52:43Z",
            "transactionFee": "0.002404850798",
            "txnHash": "0x842b061d010f5d3f7d0a439797db50d98c4662ec628e390ffda2196ef03a3bac",
            "txnIndex": 114,
            "type": 0,
            "value": "71999999999999990"
        },
        "fund_flow": [
            {
                "amount": "0.07199999999999999",
                "from": "0x618f9ffc7087f0288204b6ec50fb27509d4b1fac",
                "id": 1,
                "isERC1155": false,
                "isERC721": false,
                "isReverted": false,
                "order": 1,
                "to": "0x97875355ef55ae35613029df8b1c8cf8f89c9066",
                "token": "0xeeeeeeeeeeeeeeeeeeeeeeeeeeeeeeeeeeeeeeee"
            }
        ],
        "token_infos": [
            {
                "address": "0xeeeeeeeeeeeeeeeeeeeeeeeeeeeeeeeeeeeeeeee",
                "decimals": 18
            },
            {
                "address": "0xc02aaa39b223fe8d0a0e5c4f27ead9083c756cc2",
                "decimals": 18
            }
        ]
    },
    "address_label": {
        "labels": [
            {
                "address": "0xeeeeeeeeeeeeeeeeeeeeeeeeeeeeeeeeeeeeeeee",
                "label": "Ether"
            },
            {
                "address": "0x97875355ef55ae35613029df8b1c8cf8f89c9066",
                "label": "Vault"
            },
            {
                "address": "0x0000000000000000000000000000000000000001",
                "label": "Precompiled"
            },
            {
                "address": "0x0000000000000000000000000000000000000002",
                "label": "Precompiled"
            },
            {
                "address": "0x0000000000000000000000000000000000000003",
                "label": "Precompiled"
            },
            {
                "address": "0x0000000000000000000000000000000000000004",
                "label": "Precompiled"
            }
        ]
    },
    "trace": {
        "accountLabels": null,
        "dataMap": {
            "-1": {
                "invocation": {
                    "address": "0x618f9ffc7087f0288204b6ec50fb27509d4b1fac",
                    "callData": "",
                    "decodedMethod": null,
                    "errorInfo": "",
                    "fromAddress": "",
                    "gasUsed": 0,
                    "id": -1,
                    "methodDecoded": false,
                    "operation": "",
                    "output": "",
                    "revert": false,
                    "revertMessage": "",
                    "selector": "",
                    "status": false,
                    "value": ""
                },
                "nodeType": 0
            },
            "0": {
                "invocation": {
                    "address": "0x97875355ef55ae35613029df8b1c8cf8f89c9066",
                    "callData": "0x00000000000000000000000000000000000000000000000000000000000000200000000000000000000000000000000000000000000000000000000000000067313253326a6f325861614d4144533438524e414e76725657596d5a626f3177666b696e6e625378696835715a6263656642543255336b725232327a6772416e48316b585a74787773416a5766774e6b4759666245417176524e5a4a3442645a596574517a64373700000000000000000000000000000000000000000000000000",
                    "decodedMethod": {
                        "callParams": [
                            {
                                "name": "incognitoAddress",
                                "type": "string",
                                "value": "12S2jo2XaaMADS48RNANvrVWYmZbo1wfkinnbSxih5qZbcefBT2U3krR22zgrAnH1kXZtxwsAjWfwNkGYfbEAqvRNZJ4BdZYetQzd77"
                            }
                        ],
                        "constructorArguments": "",
                        "name": "deposit",
                        "returnParams": [],
                        "signature": "deposit(string)"
                    },
                    "errorInfo": "",
                    "fromAddress": "0x618f9ffc7087f0288204b6ec50fb27509d4b1fac",
                    "gasUsed": 34196,
                    "id": 0,
                    "methodDecoded": true,
                    "operation": "CALL",
                    "output": "",
                    "revert": false,
                    "revertMessage": "",
                    "selector": "0xa26e1186",
                    "status": true,
                    "value": "0.07199999999999999"
                },
                "nodeType": 0
            },
            "1": {
                "event": {
                    "contract": "0x97875355ef55ae35613029df8b1c8cf8f89c9066",
                    "decodedLog": {
                        "name": "Deposit",
                        "params": [
                            {
                                "name": "token",
                                "type": "address",
                                "value": "0x0000000000000000000000000000000000000000"
                            },
                            {
                                "name": "incognitoAddress",
                                "type": "string",
                                "value": "12S2jo2XaaMADS48RNANvrVWYmZbo1wfkinnbSxih5qZbcefBT2U3krR22zgrAnH1kXZtxwsAjWfwNkGYfbEAqvRNZJ4BdZYetQzd77"
                            },
                            {
                                "name": "amount",
                                "type": "uint256",
                                "value": "71,999,999,999,999,990"
                            }
                        ],
                        "signature": "Deposit(address,string,uint256)"
                    },
                    "id": 1,
                    "logData": "0x0000000000000000000000000000000000000000000000000000000000000000000000000000000000000000000000000000000000000000000000000000006000000000000000000000000000000000000000000000000000ffcb9e57d3fff60000000000000000000000000000000000000000000000000000000000000067313253326a6f325861614d4144533438524e414e76725657596d5a626f3177666b696e6e625378696835715a6263656642543255336b725232327a6772416e48316b585a74787773416a5766774e6b4759666245417176524e5a4a3442645a596574517a64373700000000000000000000000000000000000000000000000000",
                    "logDecoded": true,
                    "operation": "EVENT",
                    "revert": false,
                    "status": true,
                    "topics": [
                        "0x2d4b597935f3cd67fb2eebf1db4debc934cee5c7baa7153f980fdbeb2e74084e"
                    ]
                },
                "nodeType": 1
            }
        },
        "gasFlame": [
            {
                "children": [
                    {
                        "children": [
                            {
                                "children": [],
                                "depth": 0,
                                "name": "Initial Gas",
                                "value": 23092
                            },
                            {
                                "children": [],
                                "depth": 0,
                                "name": "Executed Gas",
                                "value": 15304
                            }
                        ],
                        "depth": -1,
                        "name": "Actual Gas Used",
                        "value": 34196
                    },
                    {
                        "children": [],
                        "depth": -1,
                        "name": "Refunded Gas",
                        "value": 4200
                    }
                ],
                "depth": -2,
                "name": "Total Gas",
                "value": 38396
            }
        ],
        "isConfirmed": true,
        "mainTrace": [
            {
                "children": [
                    {
                        "children": [
                            {
                                "children": [],
                                "depth": 1,
                                "id": 1,
                                "order": 1
                            }
                        ],
                        "depth": 0,
                        "id": 0,
                        "order": 0
                    }
                ],
                "depth": -1,
                "id": -1,
                "order": -1
            }
        ],
        "mainTraceNodeCount": 2,
        "parentIdMap": {
            "0": -1,
            "1": 0
        },
        "tidyTrace": [
            {
                "children": [
                    {
                        "children": [
                            {
                                "children": [],
                                "depth": 1,
                                "id": 1,
                                "order": 1
                            }
                        ],
                        "depth": 0,
                        "id": 0,
                        "order": 0
                    }
                ],
                "depth": -1,
                "id": -1,
                "order": -1
            }
        ],
        "tidyTraceNodeCount": 2
    },
    "state_change": {
        "stateChanges": []
    }
}