{
    "balance_change": {
        "balanceChanges": [
            {
                "account": "0x38074af99d9690f4c49fa766504da0c80b127e47",
                "assets": [
                    {
                        "address": "0xe7e9c1fed019f154f339427dd50b59d4d89542ab",
                        "amount": "10,000",
                        "iconUrl": "",
                        "isERC1155": false,
                        "isERC721": false,
                        "sign": false,
                        "value": ""
                    }
                ]
            },
            {
                "account": "0xce001e7c75bc8f2c32121eed4a6f714a3b2a1b05",
                "assets": [
                    {
                        "address": "0xe7e9c1fed019f154f339427dd50b59d4d89542ab",
                        "amount": "10,000",
                        "iconUrl": "",
                        "isERC1155": false,
                        "isERC721": false,
                        "sign": true,
                        "value": ""
                    }
                ]
            }
        ]
    },
    "profile": {
        "basic_info": {
            "baseFee": "",
            "blockNumber": 6482056,
            "callData": "0xa9059cbb000000000000000000000000ce001e7c75bc8f2c32121eed4a6f714a3b2a1b05000000000000000000000000000000000000000000000000000000e8d4a51000",
            "debugEnable": true,
            "errorInfo": "",
            "eventCount": 1,
            "feeRecipient": "0x5a0b54d5dc17e0aadc383d2db43b0a0d3e029c4c",
            "formatValue": "0",
            "gasLimit": 60000,
            "gasPrice": "3.34375",
            "gasUsed": 21872,
            "intTxnCount": 0,
            "internalRevert": false,
            "internalRevertMessage": "",
            "isContractCreation": false,
            "isFlashloan": false,
            "maxFee": "",
            "nonce": 8,
            "overwritedBlockNumber": -1,
            "priorityFee": "",
            "receiver": "0xe7e9c1fed019f154f339427dd50b59d4d89542ab",
            "revertMessage": "",
            "sender": "0x38074af99d9690f4c49fa766504da0c80b127e47",
            "simulationEnable": true,
            "sourceTxnHash": "0x84015e36c8cae6e531fd7f02b508cce00cc1f312df2cba573c7addfa8a70428d",
            "status": true,
            "timestamp": "2018-10-09T09:52:24Z",
            "transactionFee": "0.0000731345",
            "txnHash": "0x84015e36c8cae6e531fd7f02b508cce00cc1f312df2cba573c7addfa8a70428d",
            "txnIndex": 70,
            "type": 0,
            "value": "0"
        },
        "fund_flow": [
            {
                "amount": "10,000",
                "from": "0x38074af99d9690f4c49fa766504da0c80b127e47",
                "id": 1,
                "isERC1155": false,
                "isERC721": false,
                "isReverted": false,
                "order": 1,
                "to": "0xce001e7c75bc8f2c32121eed4a6f714a3b2a1b05",
                "token": "0xe7e9c1fed019f154f339427dd50b59d4d89542ab"
            }
        ],
        "token_infos": [
            {
                "address": "0xc02aaa39b223fe8d0a0e5c4f27ead9083c756cc2",
                "decimals": 18
            },
            {
                "address": "0xe7e9c1fed019f154f339427dd50b59d4d89542ab",
                "decimals": 8
            },
            {
                "address": "0xeeeeeeeeeeeeeeeeeeeeeeeeeeeeeeeeeeeeeeee",
                "decimals": 18
            }
        ]
    },
    "address_label": {
        "labels": [
            {
                "address": "0x0000000000000000000000000000000000000004",
                "label": "Precompiled"
            },
            {
                "address": "0xeeeeeeeeeeeeeeeeeeeeeeeeeeeeeeeeeeeeeeee",
                "label": "Ether"
            },
            {
                "address": "0xe7e9c1fed019f154f339427dd50b59d4d89542ab",
                "label": "Genki (GENKI)"
            },
            {
                "address": "0x0000000000000000000000000000000000000001",
                "label": "Precompiled"
            },
            {
                "address": "0x0000000000000000000000000000000000000002",
                "label": "Precompiled"
            },
            {
                "address": "0x0000000000000000000000000000000000000003",
                "label": "Precompiled"
            }
        ]
    },
    "trace": {
        "accountLabels": null,
        "dataMap": {
            "-1": {
                "invocation": {
                    "address": "0x38074af99d9690f4c49fa766504da0c80b127e47",
                    "callData": "",
                    "decodedMethod": null,
                    "errorInfo": "",
                    "fromAddress": "",
                    "gasUsed": 0,
                    "id": -1,
                    "methodDecoded": false,
                    "operation": "",
                    "output": "",
                    "revert": false,
                    "revertMessage": "",
                    "selector": "",
                    "status": false,
                    "value": ""
                },
                "nodeType": 0
            },
            "0": {
                "invocation": {
                    "address": "0xe7e9c1fed019f154f339427dd50b59d4d89542ab",
                    "callData": "0x000000000000000000000000ce001e7c75bc8f2c32121eed4a6f714a3b2a1b05000000000000000000000000000000000000000000000000000000e8d4a51000",
                    "decodedMethod": {
                        "callParams": [
                            {
                                "name": "_to",
                                "type": "address",
                                "value": "0xce001e7c75bc8f2c32121eed4a6f714a3b2a1b05"
                            },
                            {
                                "decimalAvailable": true,
                                "name": "_amount",
                                "type": "uint256",
                                "value": "1,000,000,000,000"
                            }
                        ],
                        "constructorArguments": "",
                        "name": "transfer",
                        "returnParams": [
                            {
                                "name": "success",
                                "type": "bool",
                                "value": true
                            }
                        ],
                        "signature": "transfer(address,uint256)"
                    },
                    "errorInfo": "",
                    "fromAddress": "0x38074af99d9690f4c49fa766504da0c80b127e47",
                    "gasUsed": 21872,
                    "id": 0,
                    "methodDecoded": true,
                    "operation": "CALL",
                    "output": "0x0000000000000000000000000000000000000000000000000000000000000001",
                    "revert": false,
                    "revertMessage": "",
                    "selector": "0xa9059cbb",
                    "status": true,
                    "value": "0"
                },
                "nodeType": 0
            },
            "1": {
                "event": {
                    "contract": "0xe7e9c1fed019f154f339427dd50b59d4d89542ab",
                    "decodedLog": {
                        "name": "Transfer",
                        "params": [
                            {
                                "name": "_from",
                                "type": "address",
                                "value": "0x38074af99d9690f4c49fa766504da0c80b127e47"
                            },
                            {
                                "name": "_to",
                                "type": "address",
                                "value": "0xce001e7c75bc8f2c32121eed4a6f714a3b2a1b05"
                            },
                            {
                                "decimalAvailable": true,
                                "name": "_value",
                                "type": "uint256",
                                "value": "1,000,000,000,000"
                            }
                        ],
                        "signature": "Transfer(address,address,uint256)"
                    },
                    "id": 1,
                    "logData": "0x000000000000000000000000000000000000000000000000000000e8d4a51000",
                    "logDecoded": true,
                    "operation": "EVENT",
                    "revert": false,
                    "status": true,
                    "topics": [
                        "0xddf252ad1be2c89b69c2b068fc378daa952ba7f163c4a11628f55a4df523b3ef",
                        "0x00000000000000000000000038074af99d9690f4c49fa766504da0c80b127e47",
                        "0x000000000000000000000000ce001e7c75bc8f2c32121eed4a6f714a3b2a1b05"
                    ]
                },
                "nodeType": 1
            }
        },
        "gasFlame": [
            {
                "children": [
                    {
                        "children": [
                            {
                                "children": [],
                                "depth": 0,
                                "name": "Initial Gas",
                                "value": 23000
                            },
                            {
                                "children": [],
                                "depth": 0,
                                "name": "Executed Gas",
                                "value": 13872
                            }
                        ],
                        "depth": -1,
                        "name": "Actual Gas Used",
                        "value": 21872
                    },
                    {
                        "children": [],
                        "depth": -1,
                        "name": "Refunded Gas",
                        "value": 15000
                    }
                ],
                "depth": -2,
                "name": "Total Gas",
                "value": 36872
            }
        ],
        "isConfirmed": true,
        "mainTrace": [
            {
                "children": [
                    {
                        "children": [
                            {
                                "children": [],
                                "depth": 1,
                                "id": 1,
                                "order": 1
                            }
                        ],
                        "depth": 0,
                        "id": 0,
                        "order": 0
                    }
                ],
                "depth": -1,
                "id": -1,
                "order": -1
            }
        ],
        "mainTraceNodeCount": 2,
        "parentIdMap": {
            "0": -1,
            "1": 0
        },
        "tidyTrace": [
            {
                "children": [
                    {
                        "children": [
                            {
                                "children": [],
                                "depth": 1,
                                "id": 1,
                                "order": 1
                            }
                        ],
                        "depth": 0,
                        "id": 0,
                        "order": 0
                    }
                ],
                "depth": -1,
                "id": -1,
                "order": -1
            }
        ],
        "tidyTraceNodeCount": 2
    },
    "state_change": {
        "stateChanges": [
            {
                "address": "0xe7e9c1fed019f154f339427dd50b59d4d89542ab",
                "erc": "ERC-20",
                "slots": [
                    {
                        "current": "0x000000000000000000000000000000000000000000000000000002ba7def3000",
                        "key": "0x0fde96533ac612488514b31198f65ca1125366f645ec0e79b558135171e5d39a",
                        "prev": "0x000000000000000000000000000000000000000000000000000001d1a94a2000"
                    },
                    {
                        "current": "0x0000000000000000000000000000000000000000000000000000000000000000",
                        "key": "0x4ccd1ed620e28d588781b85900ecdfffa6206703631436cc279c01aec2d1f900",
                        "prev": "0x000000000000000000000000000000000000000000000000000000e8d4a51000"
                    }
                ],
                "storageVariables": [
                    {
                        "name": "balances",
                        "type": "mapping(address => uint256)",
                        "value": {
                            "pairs": [
                                {
                                    "key": "0x38074af99d9690f4c49fa766504da0c80b127e47",
                                    "value": {
                                        "current": "0",
                                        "prev": "1000000000000",
                                        "typeTag": 1
                                    }
                                },
                                {
                                    "key": "0xce001e7c75bc8f2c32121eed4a6f714a3b2a1b05",
                                    "value": {
                                        "current": "3000000000000",
                                        "prev": "2000000000000",
                                        "typeTag": 1
                                    }
                                }
                            ],
                            "typeTag": 4
                        }
                    }
                ]
            }
        ]
    }
}