{
    "balance_change": {
        "balanceChanges": [
            {
                "account": "0xa6031255edc0bdc72503d9f8eaae139d2c54e9a7",
                "assets": [
                    {
                        "address": "0x80504f30f38b4149d95fae61bde9f3ee204ea9d5",
                        "amount": "109",
                        "iconUrl": "",
                        "isERC1155": false,
                        "isERC721": false,
                        "sign": false,
                        "value": ""
                    }
                ]
            },
            {
                "account": "0xc9c124932951e78175d982ef955c0fad414f88b3",
                "assets": [
                    {
                        "address": "0x80504f30f38b4149d95fae61bde9f3ee204ea9d5",
                        "amount": "109",
                        "iconUrl": "",
                        "isERC1155": false,
                        "isERC721": false,
                        "sign": true,
                        "value": ""
                    }
                ]
            }
        ]
    },
    "profile": {
        "basic_info": {
            "baseFee": "37.040239887",
            "blockNumber": 13013473,
            "callData": "0xa9059cbb000000000000000000000000c9c124932951e78175d982ef955c0fad414f88b30000000000000000000000000000000000000000000000000000000000a65220",
            "debugEnable": true,
            "errorInfo": "",
            "eventCount": 1,
            "feeRecipient": "0xe206e3dca498258f1b7eec1c640b5aee7bb88fd0",
            "formatValue": "0",
            "gasLimit": 60000,
            "gasPrice": "41.666122094",
            "gasUsed": 41590,
            "intTxnCount": 0,
            "internalRevert": false,
            "internalRevertMessage": "",
            "isContractCreation": false,
            "isFlashloan": false,
            "maxFee": "",
            "nonce": 1293,
            "overwritedBlockNumber": -1,
            "priorityFee": "",
            "receiver": "0x80504f30f38b4149d95fae61bde9f3ee204ea9d5",
            "revertMessage": "",
            "sender": "0xa6031255edc0bdc72503d9f8eaae139d2c54e9a7",
            "simulationEnable": true,
            "sourceTxnHash": "0x85073eab2fb21b99c4cf9549789955600d513c902bb473d6acfbcfb294b02821",
            "status": true,
            "timestamp": "2021-08-12T23:56:57Z",
            "transactionFee": "0.00173289401788946",
            "txnHash": "0x85073eab2fb21b99c4cf9549789955600d513c902bb473d6acfbcfb294b02821",
            "txnIndex": 81,
            "type": 0,
            "value": "0"
        },
        "fund_flow": [
            {
                "amount": "109",
                "from": "0xa6031255edc0bdc72503d9f8eaae139d2c54e9a7",
                "id": 1,
                "isERC1155": false,
                "isERC721": false,
                "isReverted": false,
                "order": 1,
                "to": "0xc9c124932951e78175d982ef955c0fad414f88b3",
                "token": "0x80504f30f38b4149d95fae61bde9f3ee204ea9d5"
            }
        ],
        "token_infos": [
            {
                "address": "0x80504f30f38b4149d95fae61bde9f3ee204ea9d5",
                "decimals": 5
            },
            {
                "address": "0xc02aaa39b223fe8d0a0e5c4f27ead9083c756cc2",
                "decimals": 18
            },
            {
                "address": "0xeeeeeeeeeeeeeeeeeeeeeeeeeeeeeeeeeeeeeeee",
                "decimals": 18
            }
        ]
    },
    "address_label": {
        "labels": [
            {
                "address": "0xeeeeeeeeeeeeeeeeeeeeeeeeeeeeeeeeeeeeeeee",
                "label": "Ether"
            },
            {
                "address": "0x80504f30f38b4149d95fae61bde9f3ee204ea9d5",
                "label": "Andus Chain: DEB Token"
            },
            {
                "address": "0x0000000000000000000000000000000000000001",
                "label": "Precompiled"
            },
            {
                "address": "0x0000000000000000000000000000000000000002",
                "label": "Precompiled"
            },
            {
                "address": "0x0000000000000000000000000000000000000003",
                "label": "Precompiled"
            },
            {
                "address": "0x0000000000000000000000000000000000000004",
                "label": "Precompiled"
            }
        ]
    },
    "trace": {
        "accountLabels": null,
        "dataMap": {
            "-1": {
                "invocation": {
                    "address": "0xa6031255edc0bdc72503d9f8eaae139d2c54e9a7",
                    "callData": "",
                    "decodedMethod": null,
                    "errorInfo": "",
                    "fromAddress": "",
                    "gasUsed": 0,
                    "id": -1,
                    "methodDecoded": false,
                    "operation": "",
                    "output": "",
                    "revert": false,
                    "revertMessage": "",
                    "selector": "",
                    "status": false,
                    "value": ""
                },
                "nodeType": 0
            },
            "0": {
                "invocation": {
                    "address": "0x80504f30f38b4149d95fae61bde9f3ee204ea9d5",
                    "callData": "0x000000000000000000000000c9c124932951e78175d982ef955c0fad414f88b30000000000000000000000000000000000000000000000000000000000a65220",
                    "decodedMethod": {
                        "callParams": [
                            {
                                "name": "to",
                                "type": "address",
                                "value": "0xc9c124932951e78175d982ef955c0fad414f88b3"
                            },
                            {
                                "decimalAvailable": true,
                                "name": "amount",
                                "type": "uint256",
                                "value": "10,900,000"
                            }
                        ],
                        "constructorArguments": "",
                        "name": "transfer",
                        "returnParams": [
                            {
                                "name": "success",
                                "type": "bool",
                                "value": true
                            }
                        ],
                        "signature": "transfer(address,uint256)"
                    },
                    "errorInfo": "",
                    "fromAddress": "0xa6031255edc0bdc72503d9f8eaae139d2c54e9a7",
                    "gasUsed": 41590,
                    "id": 0,
                    "methodDecoded": true,
                    "operation": "CALL",
                    "output": "0x0000000000000000000000000000000000000000000000000000000000000001",
                    "revert": false,
                    "revertMessage": "",
                    "selector": "0xa9059cbb",
                    "status": true,
                    "value": "0"
                },
                "nodeType": 0
            },
            "1": {
                "event": {
                    "contract": "0x80504f30f38b4149d95fae61bde9f3ee204ea9d5",
                    "decodedLog": {
                        "name": "Transfer",
                        "params": [
                            {
                                "name": "from",
                                "type": "address",
                                "value": "0xa6031255edc0bdc72503d9f8eaae139d2c54e9a7"
                            },
                            {
                                "name": "to",
                                "type": "address",
                                "value": "0xc9c124932951e78175d982ef955c0fad414f88b3"
                            },
                            {
                                "decimalAvailable": true,
                                "name": "amount",
                                "type": "uint256",
                                "value": "10,900,000"
                            }
                        ],
                        "signature": "Transfer(address,address,uint256)"
                    },
                    "id": 1,
                    "logData": "0x0000000000000000000000000000000000000000000000000000000000a65220",
                    "logDecoded": true,
                    "operation": "EVENT",
                    "revert": false,
                    "status": true,
                    "topics": [
                        "0xddf252ad1be2c89b69c2b068fc378daa952ba7f163c4a11628f55a4df523b3ef",
                        "0x000000000000000000000000a6031255edc0bdc72503d9f8eaae139d2c54e9a7",
                        "0x000000000000000000000000c9c124932951e78175d982ef955c0fad414f88b3"
                    ]
                },
                "nodeType": 1
            }
        },
        "gasFlame": [
            {
                "children": [
                    {
                        "children": [
                            {
                                "children": [],
                                "depth": 0,
                                "name": "Initial Gas",
                                "value": 21596
                            },
                            {
                                "children": [],
                                "depth": 0,
                                "name": "Executed Gas",
                                "value": 19994
                            }
                        ],
                        "depth": -1,
                        "name": "Actual Gas Used",
                        "value": 41590
                    },
                    {
                        "children": [],
                        "depth": -1,
                        "name": "Refunded Gas",
                        "value": 0
                    }
                ],
                "depth": -2,
                "name": "Total Gas",
                "value": 41590
            }
        ],
        "isConfirmed": true,
        "mainTrace": [
            {
                "children": [
                    {
                        "children": [
                            {
                                "children": [],
                                "depth": 1,
                                "id": 1,
                                "order": 1
                            }
                        ],
                        "depth": 0,
                        "id": 0,
                        "order": 0
                    }
                ],
                "depth": -1,
                "id": -1,
                "order": -1
            }
        ],
        "mainTraceNodeCount": 2,
        "parentIdMap": {
            "0": -1,
            "1": 0
        },
        "tidyTrace": [
            {
                "children": [
                    {
                        "children": [
                            {
                                "children": [],
                                "depth": 1,
                                "id": 1,
                                "order": 1
                            }
                        ],
                        "depth": 0,
                        "id": 0,
                        "order": 0
                    }
                ],
                "depth": -1,
                "id": -1,
                "order": -1
            }
        ],
        "tidyTraceNodeCount": 2
    },
    "state_change": {
        "stateChanges": [
            {
                "address": "0x80504f30f38b4149d95fae61bde9f3ee204ea9d5",
                "erc": "ERC-20",
                "slots": [
                    {
                        "current": "0x0000000000000000000000000000000000000000000000000000000a31053da0",
                        "key": "0x5ebe46ef4c65ce8a5eb4169a96a86d1d376e6c65fc9266e127e3869e1a512dea",
                        "prev": "0x0000000000000000000000000000000000000000000000000000000a31ab8fc0"
                    },
                    {
                        "current": "0x00000000000000000000000000000000000000000000000000000000071de640",
                        "key": "0xb98879e4096636fabbeaa12a98816344000f4aaffd6c828d8fe5f48e6b534287",
                        "prev": "0x0000000000000000000000000000000000000000000000000000000006779420"
                    }
                ],
                "storageVariables": [
                    {
                        "name": "_balances",
                        "type": "mapping(address => uint256)",
                        "value": {
                            "pairs": [
                                {
                                    "key": "0xa6031255edc0bdc72503d9f8eaae139d2c54e9a7",
                                    "value": {
                                        "current": "43772100000",
                                        "prev": "43783000000",
                                        "typeTag": 1
                                    }
                                },
                                {
                                    "key": "0xc9c124932951e78175d982ef955c0fad414f88b3",
                                    "value": {
                                        "current": "119400000",
                                        "prev": "108500000",
                                        "typeTag": 1
                                    }
                                }
                            ],
                            "typeTag": 4
                        }
                    }
                ]
            }
        ]
    }
}