{
    "balance_change": {
        "balanceChanges": []
    },
    "profile": {
        "basic_info": {
            "baseFee": "",
            "blockNumber": 8636219,
            "callData": "0x14151f7f00000000000000000000000000000000000000000000000000000000000007b000000000000000000000000000000000000000000000000000000000000007b1",
            "debugEnable": true,
            "errorInfo": "",
            "eventCount": 0,
            "feeRecipient": "0x829bd824b016326a401d083b33d092293333a830",
            "formatValue": "0",
            "gasLimit": 4000000,
            "gasPrice": "24",
            "gasUsed": 1333685,
            "intTxnCount": 0,
            "internalRevert": false,
            "internalRevertMessage": "",
            "isContractCreation": false,
            "isFlashloan": false,
            "maxFee": "",
            "nonce": 10591,
            "overwritedBlockNumber": -1,
            "priorityFee": "",
            "receiver": "0x9999998a72a185006f1d17e57d4e586599afb75f",
            "revertMessage": "",
            "sender": "0xfa011422824595fe3b1af964000f3b0d85d6dd10",
            "simulationEnable": true,
            "sourceTxnHash": "0x8566b92dc629331eb7780c32a8389aa7a9cf966236d3a8d40f14315560775d04",
            "status": true,
            "timestamp": "2019-09-28T08:23:11Z",
            "transactionFee": "0.03200844",
            "txnHash": "0x8566b92dc629331eb7780c32a8389aa7a9cf966236d3a8d40f14315560775d04",
            "txnIndex": 26,
            "type": 0,
            "value": "0"
        },
        "fund_flow": [],
        "token_infos": [
            {
                "address": "0xc02aaa39b223fe8d0a0e5c4f27ead9083c756cc2",
                "decimals": 18
            },
            {
                "address": "0xeeeeeeeeeeeeeeeeeeeeeeeeeeeeeeeeeeeeeeee",
                "decimals": 18
            }
        ]
    },
    "address_label": {
        "labels": [
            {
                "address": "0xeeeeeeeeeeeeeeeeeeeeeeeeeeeeeeeeeeeeeeee",
                "label": "Ether"
            },
            {
                "address": "0x9999998a72a185006f1d17e57d4e586599afb75f",
                "label": "HyperFair"
            },
            {
                "address": "0x0000000000000000000000000000000000000001",
                "label": "Precompiled"
            },
            {
                "address": "0x0000000000000000000000000000000000000002",
                "label": "Precompiled"
            },
            {
                "address": "0x0000000000000000000000000000000000000003",
                "label": "Precompiled"
            },
            {
                "address": "0x0000000000000000000000000000000000000004",
                "label": "Precompiled"
            }
        ]
    },
    "trace": {
        "accountLabels": null,
        "dataMap": {
            "-1": {
                "invocation": {
                    "address": "0xfa011422824595fe3b1af964000f3b0d85d6dd10",
                    "callData": "",
                    "decodedMethod": null,
                    "errorInfo": "",
                    "fromAddress": "",
                    "gasUsed": 0,
                    "id": -1,
                    "methodDecoded": false,
                    "operation": "",
                    "output": "",
                    "revert": false,
                    "revertMessage": "",
                    "selector": "",
                    "status": false,
                    "value": ""
                },
                "nodeType": 0
            },
            "0": {
                "invocation": {
                    "address": "0x9999998a72a185006f1d17e57d4e586599afb75f",
                    "callData": "0x00000000000000000000000000000000000000000000000000000000000007b000000000000000000000000000000000000000000000000000000000000007b1",
                    "decodedMethod": {
                        "callParams": [
                            {
                                "name": "start",
                                "type": "uint256",
                                "value": "1,968"
                            },
                            {
                                "name": "end",
                                "type": "uint256",
                                "value": "1,969"
                            }
                        ],
                        "constructorArguments": "",
                        "name": "calDynamicProfit",
                        "returnParams": [],
                        "signature": "calDynamicProfit(uint256,uint256)"
                    },
                    "errorInfo": "",
                    "fromAddress": "0xfa011422824595fe3b1af964000f3b0d85d6dd10",
                    "gasUsed": 1333685,
                    "id": 0,
                    "methodDecoded": true,
                    "operation": "CALL",
                    "output": "",
                    "revert": false,
                    "revertMessage": "",
                    "selector": "0x14151f7f",
                    "status": true,
                    "value": "0"
                },
                "nodeType": 0
            }
        },
        "gasFlame": [
            {
                "children": [
                    {
                        "children": [
                            {
                                "children": [],
                                "depth": 0,
                                "name": "Initial Gas",
                                "value": 21784
                            },
                            {
                                "children": [],
                                "depth": 0,
                                "name": "Executed Gas",
                                "value": 1311901
                            }
                        ],
                        "depth": -1,
                        "name": "Actual Gas Used",
                        "value": 1333685
                    },
                    {
                        "children": [],
                        "depth": -1,
                        "name": "Refunded Gas",
                        "value": 0
                    }
                ],
                "depth": -2,
                "name": "Total Gas",
                "value": 1333685
            }
        ],
        "isConfirmed": true,
        "mainTrace": [
            {
                "children": [
                    {
                        "children": [],
                        "depth": 0,
                        "id": 0,
                        "order": 0
                    }
                ],
                "depth": -1,
                "id": -1,
                "order": -1
            }
        ],
        "mainTraceNodeCount": 1,
        "parentIdMap": {
            "0": -1
        },
        "tidyTrace": [
            {
                "children": [
                    {
                        "children": [],
                        "depth": 0,
                        "id": 0,
                        "order": 0
                    }
                ],
                "depth": -1,
                "id": -1,
                "order": -1
            }
        ],
        "tidyTraceNodeCount": 1
    },
    "state_change": {
        "stateChanges": [
            {
                "address": "0x9999998a72a185006f1d17e57d4e586599afb75f",
                "erc": "",
                "slots": [
                    {
                        "current": "0x0000000000000000000000000000000000000000000000000000000000000003",
                        "key": "0x32249801344e75662ed520b1a7cfbab65055ec438cff2996ecdca996a4250897",
                        "prev": "0x0000000000000000000000000000000000000000000000000000000000000002"
                    },
                    {
                        "current": "0x000000000000000000000000000000000000000000000000001ff973cafa8000",
                        "key": "0xf6c0a462c5a4b5a89b2a139ed6a67088ae7cfce1422da3453b95fee676c1b641",
                        "prev": "0x000000000000000000000000000000000000000000000000001550f7dca70000"
                    },
                    {
                        "current": "0x0000000000000000000000000000000000000000000000000c748f7eade9c000",
                        "key": "0x05597ed60260c2cae624c13e73053b8dc4408e61333e5e09090fe3d03b4a7b62",
                        "prev": "0x0000000000000000000000000000000000000000000000000c4d7b0d99624000"
                    },
                    {
                        "current": "0x0000000000000000000000000000000000000000000000000d9d91407d22c000",
                        "key": "0x1f6de8988014e32db0d4d3739fec7c42ee5e167a70e38b5c2e1d27a930e55af0",
                        "prev": "0x0000000000000000000000000000000000000000000000000d767ccf689b4000"
                    },
                    {
                        "current": "0x0000000000000000000000000000000000000000000000000b668de5c2fbc000",
                        "key": "0x49ac7f1e735e3e4842e0482fbe6111133611b08877fea9a258bbd27610853158",
                        "prev": "0x0000000000000000000000000000000000000000000000000b18650399ecc000"
                    },
                    {
                        "current": "0x0000000000000000000000000000000000000000000000001d7669407a278000",
                        "key": "0xb3bd4c857b12d6eb671998c8fa1803d6274dc64c0a584938921d33d746feb820",
                        "prev": "0x0000000000000000000000000000000000000000000000001d7280cec4e6c000"
                    },
                    {
                        "current": "0x0000000000000000000000000000000000000000000000000494654067e10000",
                        "key": "0xcf1113d90cf65ffc3cbff803fb4b4d619d5b702790832adc0889696d2c5bf605",
                        "prev": "0x000000000000000000000000000000000000000000000000027f7d0bdb920000"
                    },
                    {
                        "current": "0x000000000000000000000000000000000000000000000000067b1e06961b8000",
                        "key": "0xb9e2304f2cc1f488bda057ed4d31f37befca017c3d1222ba5edcc5b1cc157080",
                        "prev": "0x00000000000000000000000000000000000000000000000004a628b99fc18000"
                    },
                    {
                        "current": "0x00000000000000000000000000000000000000000000000001d882cb9b208000",
                        "key": "0xd1a204d3e813e4d306444bc61aa01e764547bced3a8a71c32b6528ff12b67963",
                        "prev": "0x000000000000000000000000000000000000000000000000018a59e972118000"
                    },
                    {
                        "current": "0x0000000000000000000000000000000000000000000000000d9d364d6ca88000",
                        "key": "0x1b4ca6a5046aa34d6c7501b7e7a87ae58e8dc8c8c9cd865902db08f1edb3b970",
                        "prev": "0x0000000000000000000000000000000000000000000000000cb2bba6f17b8000"
                    },
                    {
                        "current": "0x0000000000000000000000000000000000000000000000000ac6aea2cc174000",
                        "key": "0xd75b4b9cd69d984c94127f515a1ac044d39a95404b0d71d28e322c0d63fa15c3",
                        "prev": "0x0000000000000000000000000000000000000000000000000a9f9a31b78fc000"
                    },
                    {
                        "current": "0x0000000000000000000000000000000000000000000000000dbd2fc137a30000",
                        "key": "0xcf1113d90cf65ffc3cbff803fb4b4d619d5b702790832adc0889696d2c5bf607",
                        "prev": "0x0000000000000000000000000000000000000000000000000ba8478cab540000"
                    },
                    {
                        "current": "0x0000000000000000000000000000000000000000000000000addc659fb218000",
                        "key": "0x91cd7bdc699cf8d175fa4a2d1a95119c7c895c39257ab0d2ff0ee1a5d7c1b9ad",
                        "prev": "0x0000000000000000000000000000000000000000000000000a8f9d77d2128000"
                    },
                    {
                        "current": "0x0000000000000000000000000000000000000000000000000422b56bcf110000",
                        "key": "0x1b4ca6a5046aa34d6c7501b7e7a87ae58e8dc8c8c9cd865902db08f1edb3b96e",
                        "prev": "0x00000000000000000000000000000000000000000000000003383ac553e40000"
                    },
                    {
                        "current": "0x0000000000000000000000000000000000000000000000000034ef7897274000",
                        "key": "0xcd1425a8727641a4a3d68cb3462a8a7058a156933169baec1d1d8a58b37070c8",
                        "prev": "0x000000000000000000000000000000000000000000000000002a46fca8d3c000"
                    },
                    {
                        "current": "0x0000000000000000000000000000000000000000000000000addc659fb218000",
                        "key": "0xfdc3ca8bb3ffeb9ac2e704627ba7bbfa0a6ff8c2f869d2bf28890f9826c7bea0",
                        "prev": "0x0000000000000000000000000000000000000000000000000a8f9d77d2128000"
                    },
                    {
                        "current": "0x0000000000000000000000000000000000000000000000002025dc7a06314000",
                        "key": "0xda1834e94c383cb14b36d8cc5e87140f0b4edc38af0e8c425887814e978873d0",
                        "prev": "0x000000000000000000000000000000000000000000000000201b33fe17ddc000"
                    },
                    {
                        "current": "0x0000000000000000000000000000000000000000000000000e786a20234cc000",
                        "key": "0x715c7559675cf6eb58d8d6e4af536d53f35f60038c65cdd82b19990e7755b37e",
                        "prev": "0x0000000000000000000000000000000000000000000000000e5155af0ec54000"
                    },
                    {
                        "current": "0x000000000000000000000000000000000000000000000000004879b1216b0000",
                        "key": "0xad85ac14612f904a39f0ffe2286d7ef9b421b9d42f763e3120a1d66953304685",
                        "prev": "0x000000000000000000000000000000000000000000000000003dd13533178000"
                    },
                    {
                        "current": "0x00000000000000000000000000000000000000000000000023d73d044cec8000",
                        "key": "0x749f065cdcddef9778d3b6c9e051711dbc7706f63dc37be0e851f9a269a7e865",
                        "prev": "0x00000000000000000000000000000000000000000000000023cc94885e990000"
                    },
                    {
                        "current": "0x00000000000000000000000000000000000000000000000020cc7bc736288000",
                        "key": "0x214d556b566d409e6568435db8412c35b0de4c4ec4f952988eae163a08c88153",
                        "prev": "0x00000000000000000000000000000000000000000000000020c1d34b47d50000"
                    },
                    {
                        "current": "0x0000000000000000000000000000000000000000000000000093cafac6a80000",
                        "key": "0x00cc2603ad48e2eba2e566f6efa2aa9aaf8ecd7a05e314f3ce16e059bf48370e",
                        "prev": "0x000000000000000000000000000000000000000000000000005e808f1f068000"
                    },
                    {
                        "current": "0x00000000000000000000000000000000000000000000000000ddb07829fc0000",
                        "key": "0xd18f0ece0e50152f80e3c341c76d0cf5a50b140b14276e63973b906126600d0f",
                        "prev": "0x00000000000000000000000000000000000000000000000000a8660c825a8000"
                    },
                    {
                        "current": "0x0000000000000000000000000000000000000000000000000aa327b05c564000",
                        "key": "0x46bf5c3f8f6f6630d9537501b4beb07b050ff022f62c77a40ced2bdf9d3802f8",
                        "prev": "0x0000000000000000000000000000000000000000000000000a54fece33474000"
                    },
                    {
                        "current": "0x00000000000000000000000000000000000000000000000000b8bdb978520000",
                        "key": "0xc7f8d3de16bb138dae67de8381a00e252c309908a273cd042fc7a0fa05a815cd",
                        "prev": "0x0000000000000000000000000000000000000000000000000083734dd0b08000"
                    },
                    {
                        "current": "0x0000000000000000000000000000000000000000000000000214e8348c4f0000",
                        "key": "0x4300fa1e981718b5fe8f75380295cee8e79af15990abb28a367ebadff2c07f52",
                        "prev": "0x0000000000000000000000000000000000000000000000000000000000000000"
                    },
                    {
                        "current": "0x0000000000000000000000000000000000000000000000000f0c351ae9f4c000",
                        "key": "0x5a7bf9817023ebe20439838571c2ceb0868d5c82f3da4d2f822b4e5a0e47280a",
                        "prev": "0x0000000000000000000000000000000000000000000000000ed6eaaf42534000"
                    },
                    {
                        "current": "0x0000000000000000000000000000000000000000000000000000000000000003",
                        "key": "0xf6633314c3ad3ce1b024f4439060529d26c527aa1b91042edd9f03579f6529c2",
                        "prev": "0x0000000000000000000000000000000000000000000000000000000000000002"
                    },
                    {
                        "current": "0x000000000000000000000000000000000000000000000000121e11554a45c000",
                        "key": "0xc7f8d3de16bb138dae67de8381a00e252c309908a273cd042fc7a0fa05a815cf",
                        "prev": "0x00000000000000000000000000000000000000000000000011e8c6e9a2a44000"
                    },
                    {
                        "current": "0x000000000000000000000000000000000000000000000000063eb89da4ed0000",
                        "key": "0xcf1113d90cf65ffc3cbff803fb4b4d619d5b702790832adc0889696d2c5bf606",
                        "prev": "0x0000000000000000000000000000000000000000000000000429d069189e0000"
                    },
                    {
                        "current": "0x00000000000000000000000000000000000000000000000022aa52d0c872c000",
                        "key": "0x730b8d1bec013c30ed01867c63cfe3b37c0149572ae11eaf65f3a028c856b540",
                        "prev": "0x000000000000000000000000000000000000000000000000228a595cfd784000"
                    },
                    {
                        "current": "0x000000000000000000000000000000000000000000000000258578d33f394000",
                        "key": "0xf6c0a462c5a4b5a89b2a139ed6a67088ae7cfce1422da3453b95fee676c1b643",
                        "prev": "0x000000000000000000000000000000000000000000000000257ad05750e5c000"
                    },
                    {
                        "current": "0x00000000000000000000000000000000000000000000000012f1cf37a6e2c000",
                        "key": "0x00cc2603ad48e2eba2e566f6efa2aa9aaf8ecd7a05e314f3ce16e059bf483710",
                        "prev": "0x00000000000000000000000000000000000000000000000012bc84cbff414000"
                    },
                    {
                        "current": "0x0000000000000000000000000000000000000000000000000214e8348c4f0000",
                        "key": "0xcf1113d90cf65ffc3cbff803fb4b4d619d5b702790832adc0889696d2c5bf604",
                        "prev": "0x0000000000000000000000000000000000000000000000000000000000000000"
                    },
                    {
                        "current": "0x0000000000000000000000000000000000000000000000000ac6aea2cc174000",
                        "key": "0xb093184d4535fa7ae377e1ab46ba3b04f45aaa488ba7c700d2d1cfde7a6b76bd",
                        "prev": "0x0000000000000000000000000000000000000000000000000a9f9a31b78fc000"
                    },
                    {
                        "current": "0x00000000000000000000000000000000000000000000000000ffcb9e57d40000",
                        "key": "0x05597ed60260c2cae624c13e73053b8dc4408e61333e5e09090fe3d03b4a7b60",
                        "prev": "0x00000000000000000000000000000000000000000000000000d8b72d434c8000"
                    },
                    {
                        "current": "0x000000000000000000000000000000000000000000000000063eb89da4ed0000",
                        "key": "0x4300fa1e981718b5fe8f75380295cee8e79af15990abb28a367ebadff2c07f54",
                        "prev": "0x0000000000000000000000000000000000000000000000000429d069189e0000"
                    },
                    {
                        "current": "0x00000000000000000000000000000000000000000000000020f99a5c62ce4000",
                        "key": "0xad85ac14612f904a39f0ffe2286d7ef9b421b9d42f763e3120a1d66953304687",
                        "prev": "0x00000000000000000000000000000000000000000000000020eef1e0747ac000"
                    },
                    {
                        "current": "0x00000000000000000000000000000000000000000000000001b16e5a86990000",
                        "key": "0xfdc3ca8bb3ffeb9ac2e704627ba7bbfa0a6ff8c2f869d2bf28890f9826c7be9e",
                        "prev": "0x000000000000000000000000000000000000000000000000016345785d8a0000"
                    },
                    {
                        "current": "0x000000000000000000000000000000000000000000000000217925387e3e0000",
                        "key": "0xa500c37caca97cb99d06d90ec8c02ffbd9295e38dbf4d08d85fe91f23e789bf0",
                        "prev": "0x000000000000000000000000000000000000000000000000216e7cbc8fea8000"
                    },
                    {
                        "current": "0x000000000000000000000000000000000000000000000000201fd255ee130000",
                        "key": "0xcd1425a8727641a4a3d68cb3462a8a7058a156933169baec1d1d8a58b37070ca",
                        "prev": "0x000000000000000000000000000000000000000000000000201529d9ffbf8000"
                    },
                    {
                        "current": "0x0000000000000000000000000000000000000000000000000ada38db565b0000",
                        "key": "0xab2da363800da747b1a246d0577793223f7e6ed57437a18f0c116e9319dceea0",
                        "prev": "0x0000000000000000000000000000000000000000000000000a9f9a31b78fc000"
                    },
                    {
                        "current": "0x00000000000000000000000000000000000000000000000000ed523efeff0000",
                        "key": "0x5a7bf9817023ebe20439838571c2ceb0868d5c82f3da4d2f822b4e5a0e472808",
                        "prev": "0x00000000000000000000000000000000000000000000000000b807d3575d8000"
                    },
                    {
                        "current": "0x0000000000000000000000000000000000000000000000001f7328e4a5fd8000",
                        "key": "0x0586db6a52a31e35363b3595a11b08352d6d0ce726e0329ec4a2f40805685108",
                        "prev": "0x0000000000000000000000000000000000000000000000001f688068b7aa0000"
                    },
                    {
                        "current": "0x0000000000000000000000000000000000000000000000000013e52b9abe0000",
                        "key": "0x161eee5f9af5d8850e25b82d55ffe6fb9c96d951b041efad114362d757c4540d",
                        "prev": "0x000000000000000000000000000000000000000000000000000c1448303c8000"
                    },
                    {
                        "current": "0x0000000000000000000000000000000000000000000000001f46654289d20000",
                        "key": "0x161eee5f9af5d8850e25b82d55ffe6fb9c96d951b041efad114362d757c4540f",
                        "prev": "0x0000000000000000000000000000000000000000000000001f3e945f1f508000"
                    },
                    {
                        "current": "0x000000000000000000000000000000000000000000000000013a6a47f69f4000",
                        "key": "0xab2da363800da747b1a246d0577793223f7e6ed57437a18f0c116e9319dcee9e",
                        "prev": "0x00000000000000000000000000000000000000000000000000ffcb9e57d40000"
                    },
                    {
                        "current": "0x000000000000000000000000000000000000000000000000002d1e952ca5c000",
                        "key": "0xa500c37caca97cb99d06d90ec8c02ffbd9295e38dbf4d08d85fe91f23e789bee",
                        "prev": "0x000000000000000000000000000000000000000000000000002276193e524000"
                    },
                    {
                        "current": "0x00000000000000000000000000000000000000000000000002885ec877824000",
                        "key": "0x49ac7f1e735e3e4842e0482fbe6111133611b08877fea9a258bbd27610853156",
                        "prev": "0x000000000000000000000000000000000000000000000000023a35e64e734000"
                    },
                    {
                        "current": "0x000000000000000000000000000000000000000000000000011355d6e217c000",
                        "key": "0xd75b4b9cd69d984c94127f515a1ac044d39a95404b0d71d28e322c0d63fa15c1",
                        "prev": "0x00000000000000000000000000000000000000000000000000ec4165cd904000"
                    },
                    {
                        "current": "0x0000000000000000000000000000000000000000000000000038d7ea4c680000",
                        "key": "0xda1834e94c383cb14b36d8cc5e87140f0b4edc38af0e8c425887814e978873ce",
                        "prev": "0x000000000000000000000000000000000000000000000000002e2f6e5e148000"
                    },
                    {
                        "current": "0x0000000000000000000000000000000000000000000000000382d628d82c8000",
                        "key": "0xb76ba5e1dcd8efe6e38d0ea150a6e9d532205ddc0baf61610d2a05913b2e7509",
                        "prev": "0x00000000000000000000000000000000000000000000000000ea7aa67b2d0000"
                    },
                    {
                        "current": "0x0000000000000000000000000000000000000000000000000addc659fb218000",
                        "key": "0x12df2206fb158cb6987240b04731550b072872503a90d4a06036d50ba1906a01",
                        "prev": "0x0000000000000000000000000000000000000000000000000a8f9d77d2128000"
                    },
                    {
                        "current": "0x00000000000000000000000000000000000000000000000000e08810adce0000",
                        "key": "0x715c7559675cf6eb58d8d6e4af536d53f35f60038c65cdd82b19990e7755b37c",
                        "prev": "0x00000000000000000000000000000000000000000000000000b9739f99468000"
                    },
                    {
                        "current": "0x00000000000000000000000000000000000000000000000001c4f89310dcc000",
                        "key": "0x46bf5c3f8f6f6630d9537501b4beb07b050ff022f62c77a40ced2bdf9d3802f6",
                        "prev": "0x0000000000000000000000000000000000000000000000000176cfb0e7cdc000"
                    },
                    {
                        "current": "0x0000000000000000000000000000000000000000000000000038d7ea4c680000",
                        "key": "0x0586db6a52a31e35363b3595a11b08352d6d0ce726e0329ec4a2f40805685106",
                        "prev": "0x000000000000000000000000000000000000000000000000002e2f6e5e148000"
                    },
                    {
                        "current": "0x00000000000000000000000000000000000000000000000000310706e1e68000",
                        "key": "0x214d556b566d409e6568435db8412c35b0de4c4ec4f952988eae163a08c88151",
                        "prev": "0x00000000000000000000000000000000000000000000000000265e8af3930000"
                    },
                    {
                        "current": "0x0000000000000000000000000000000000000000000000000a88827a88858000",
                        "key": "0xb76ba5e1dcd8efe6e38d0ea150a6e9d532205ddc0baf61610d2a05913b2e750b",
                        "prev": "0x00000000000000000000000000000000000000000000000007f026f82b860000"
                    },
                    {
                        "current": "0x000000000000000000000000000000000000000000000000018a59e972118000",
                        "key": "0x91cd7bdc699cf8d175fa4a2d1a95119c7c895c39257ab0d2ff0ee1a5d7c1b9ab",
                        "prev": "0x000000000000000000000000000000000000000000000000013c310749028000"
                    },
                    {
                        "current": "0x000000000000000000000000000000000000000000000000006d6c6fd3150000",
                        "key": "0x730b8d1bec013c30ed01867c63cfe3b37c0149572ae11eaf65f3a028c856b53e",
                        "prev": "0x000000000000000000000000000000000000000000000000004d72fc081a8000"
                    },
                    {
                        "current": "0x00000000000000000000000000000000000000000000000000ffcb9e57d40000",
                        "key": "0xb093184d4535fa7ae377e1ab46ba3b04f45aaa488ba7c700d2d1cfde7a6b76bb",
                        "prev": "0x00000000000000000000000000000000000000000000000000d8b72d434c8000"
                    },
                    {
                        "current": "0x0000000000000000000000000000000000000000000000001079123604638000",
                        "key": "0xb9e2304f2cc1f488bda057ed4d31f37befca017c3d1222ba5edcc5b1cc157082",
                        "prev": "0x0000000000000000000000000000000000000000000000000ea41ce90e098000"
                    },
                    {
                        "current": "0x00000000000000000000000000000000000000000000000000f029d782d10000",
                        "key": "0x1f6de8988014e32db0d4d3739fec7c42ee5e167a70e38b5c2e1d27a930e55aee",
                        "prev": "0x00000000000000000000000000000000000000000000000000c915666e498000"
                    },
                    {
                        "current": "0x00000000000000000000000000000000000000000000000010f50f937b0cc000",
                        "key": "0xd18f0ece0e50152f80e3c341c76d0cf5a50b140b14276e63973b906126600d11",
                        "prev": "0x00000000000000000000000000000000000000000000000010bfc527d36b4000"
                    },
                    {
                        "current": "0x000000000000000000000000000000000000000000000000000bb9551fc24000",
                        "key": "0xb3bd4c857b12d6eb671998c8fa1803d6274dc64c0a584938921d33d746feb81e",
                        "prev": "0x0000000000000000000000000000000000000000000000000007d0e36a818000"
                    },
                    {
                        "current": "0x0000000000000000000000000000000000000000000000000029362377650000",
                        "key": "0x749f065cdcddef9778d3b6c9e051711dbc7706f63dc37be0e851f9a269a7e863",
                        "prev": "0x000000000000000000000000000000000000000000000000001e8da789118000"
                    },
                    {
                        "current": "0x0000000000000000000000000000000000000000000000000a688906bd8b0000",
                        "key": "0xd1a204d3e813e4d306444bc61aa01e764547bced3a8a71c32b6528ff12b67965",
                        "prev": "0x0000000000000000000000000000000000000000000000000a1a6024947c0000"
                    },
                    {
                        "current": "0x000000000000000000000000000000000000000000000000016345785d8a0000",
                        "key": "0x12df2206fb158cb6987240b04731550b072872503a90d4a06036d50ba19069ff",
                        "prev": "0x00000000000000000000000000000000000000000000000001151c96347b0000"
                    }
                ],
                "storageVariables": [
                    {
                        "name": "userRoundMapping",
                        "type": "mapping(uint256 => mapping(address => struct HyperFair.User))",
                        "value": {
                            "pairs": [
                                {
                                    "key": "1",
                                    "value": {
                                        "pairs": [
                                            {
                                                "key": "0x1012cba6f7b16405bcd4fa01984d0a50d0fd94c5",
                                                "value": {
                                                    "fields": [
                                                        {
                                                            "name": "allDynamicAmount",
                                                            "type": "uint256",
                                                            "value": {
                                                                "current": "14900000000000000",
                                                                "prev": "11900000000000000",
                                                                "typeTag": 1
                                                            }
                                                        },
                                                        {
                                                            "name": "hisDynamicAmount",
                                                            "type": "uint256",
                                                            "value": {
                                                                "current": "2314800000000000000",
                                                                "prev": "2311800000000000000",
                                                                "typeTag": 1
                                                            }
                                                        }
                                                    ],
                                                    "typeTag": 3
                                                }
                                            },
                                            {
                                                "key": "0x134a000e8467fb6574562942b80ab8491920c708",
                                                "value": {
                                                    "fields": [
                                                        {
                                                            "name": "allDynamicAmount",
                                                            "type": "uint256",
                                                            "value": {
                                                                "current": "127500000000000000",
                                                                "prev": "105500000000000000",
                                                                "typeTag": 1
                                                            }
                                                        },
                                                        {
                                                            "name": "hisDynamicAmount",
                                                            "type": "uint256",
                                                            "value": {
                                                                "current": "766500000000000000",
                                                                "prev": "744500000000000000",
                                                                "typeTag": 1
                                                            }
                                                        }
                                                    ],
                                                    "typeTag": 3
                                                }
                                            },
                                            {
                                                "key": "0x1b4058fa71369c93dc2a1e54b53a8880665f6ded",
                                                "value": {
                                                    "fields": [
                                                        {
                                                            "name": "allDynamicAmount",
                                                            "type": "uint256",
                                                            "value": {
                                                                "current": "72000000000000000",
                                                                "prev": "61000000000000000",
                                                                "typeTag": 1
                                                            }
                                                        },
                                                        {
                                                            "name": "hisDynamicAmount",
                                                            "type": "uint256",
                                                            "value": {
                                                                "current": "897500000000000000",
                                                                "prev": "886500000000000000",
                                                                "typeTag": 1
                                                            }
                                                        }
                                                    ],
                                                    "typeTag": 3
                                                }
                                            },
                                            {
                                                "key": "0x1e5a016ca8edf3792d2a3c879d37b881a66c5aef",
                                                "value": {
                                                    "fields": [
                                                        {
                                                            "name": "allDynamicAmount",
                                                            "type": "uint256",
                                                            "value": {
                                                                "current": "63200000000000000",
                                                                "prev": "52200000000000000",
                                                                "typeTag": 1
                                                            }
                                                        },
                                                        {
                                                            "name": "hisDynamicAmount",
                                                            "type": "uint256",
                                                            "value": {
                                                                "current": "1042700000000000000",
                                                                "prev": "1031700000000000000",
                                                                "typeTag": 1
                                                            }
                                                        }
                                                    ],
                                                    "typeTag": 3
                                                }
                                            },
                                            {
                                                "key": "0x2137de50737adf42a25c9b7811858513e6528543",
                                                "value": {
                                                    "fields": [
                                                        {
                                                            "name": "allDynamicAmount",
                                                            "type": "uint256",
                                                            "value": {
                                                                "current": "9000000000000000",
                                                                "prev": "6000000000000000",
                                                                "typeTag": 1
                                                            }
                                                        },
                                                        {
                                                            "name": "hisDynamicAmount",
                                                            "type": "uint256",
                                                            "value": {
                                                                "current": "2703700000000000000",
                                                                "prev": "2700700000000000000",
                                                                "typeTag": 1
                                                            }
                                                        }
                                                    ],
                                                    "typeTag": 3
                                                }
                                            },
                                            {
                                                "key": "0x22c5a5fa0cb82712570c78fb11e8cbf58134f79c",
                                                "value": {
                                                    "fields": [
                                                        {
                                                            "name": "allDynamicAmount",
                                                            "type": "uint256",
                                                            "value": {
                                                                "current": "52000000000000000",
                                                                "prev": "37000000000000000",
                                                                "typeTag": 1
                                                            }
                                                        },
                                                        {
                                                            "name": "hisDynamicAmount",
                                                            "type": "uint256",
                                                            "value": {
                                                                "current": "1305500000000000000",
                                                                "prev": "1290500000000000000",
                                                                "typeTag": 1
                                                            }
                                                        }
                                                    ],
                                                    "typeTag": 3
                                                }
                                            },
                                            {
                                                "key": "0x2a72d7bd4b3012db319b1845ff875571564dac3f",
                                                "value": {
                                                    "fields": [
                                                        {
                                                            "name": "allDynamicAmount",
                                                            "type": "uint256",
                                                            "value": {
                                                                "current": "122000000000000000",
                                                                "prev": "100000000000000000",
                                                                "typeTag": 1
                                                            }
                                                        },
                                                        {
                                                            "name": "hisDynamicAmount",
                                                            "type": "uint256",
                                                            "value": {
                                                                "current": "783000000000000000",
                                                                "prev": "761000000000000000",
                                                                "typeTag": 1
                                                            }
                                                        }
                                                    ],
                                                    "typeTag": 3
                                                }
                                            },
                                            {
                                                "key": "0x33cd17cacc7affc30e570c78a389c3d415d7a656",
                                                "value": {
                                                    "fields": [
                                                        {
                                                            "name": "allDynamicAmount",
                                                            "type": "uint256",
                                                            "value": {
                                                                "current": "16000000000000000",
                                                                "prev": "13000000000000000",
                                                                "typeTag": 1
                                                            }
                                                        },
                                                        {
                                                            "name": "hisDynamicAmount",
                                                            "type": "uint256",
                                                            "value": {
                                                                "current": "2316500000000000000",
                                                                "prev": "2313500000000000000",
                                                                "typeTag": 1
                                                            }
                                                        }
                                                    ],
                                                    "typeTag": 3
                                                }
                                            },
                                            {
                                                "key": "0x3479704d30c83dad0034b2770c857a5d9fcffc5b",
                                                "value": {
                                                    "fields": [
                                                        {
                                                            "name": "allDynamicAmount",
                                                            "type": "uint256",
                                                            "value": {
                                                                "current": "13800000000000000",
                                                                "prev": "10800000000000000",
                                                                "typeTag": 1
                                                            }
                                                        },
                                                        {
                                                            "name": "hisDynamicAmount",
                                                            "type": "uint256",
                                                            "value": {
                                                                "current": "2363400000000000000",
                                                                "prev": "2360400000000000000",
                                                                "typeTag": 1
                                                            }
                                                        }
                                                    ],
                                                    "typeTag": 3
                                                }
                                            },
                                            {
                                                "key": "0x38b248708e835923c4687c4fff6d7b4f42ea08cb",
                                                "value": {
                                                    "fields": [
                                                        {
                                                            "name": "allDynamicAmount",
                                                            "type": "uint256",
                                                            "value": {
                                                                "current": "298000000000000000",
                                                                "prev": "232000000000000000",
                                                                "typeTag": 1
                                                            }
                                                        },
                                                        {
                                                            "name": "hisDynamicAmount",
                                                            "type": "uint256",
                                                            "value": {
                                                                "current": "981000000000000000",
                                                                "prev": "915000000000000000",
                                                                "typeTag": 1
                                                            }
                                                        }
                                                    ],
                                                    "typeTag": 3
                                                }
                                            },
                                            {
                                                "key": "0x3b6637e378962f781ba07b58c84a2b1483cd49a6",
                                                "value": {
                                                    "fields": [
                                                        {
                                                            "name": "allDynamicAmount",
                                                            "type": "uint256",
                                                            "value": {
                                                                "current": "41600000000000000",
                                                                "prev": "26600000000000000",
                                                                "typeTag": 1
                                                            }
                                                        },
                                                        {
                                                            "name": "hisDynamicAmount",
                                                            "type": "uint256",
                                                            "value": {
                                                                "current": "1365100000000000000",
                                                                "prev": "1350100000000000000",
                                                                "typeTag": 1
                                                            }
                                                        }
                                                    ],
                                                    "typeTag": 3
                                                }
                                            },
                                            {
                                                "key": "0x6107b1cbedba73346fa292ce4e16db2d0496ff76",
                                                "value": {
                                                    "fields": [
                                                        {
                                                            "name": "allDynamicAmount",
                                                            "type": "uint256",
                                                            "value": {
                                                                "current": "182500000000000000",
                                                                "prev": "160500000000000000",
                                                                "typeTag": 1
                                                            }
                                                        },
                                                        {
                                                            "name": "hisDynamicAmount",
                                                            "type": "uint256",
                                                            "value": {
                                                                "current": "821500000000000000",
                                                                "prev": "799500000000000000",
                                                                "typeTag": 1
                                                            }
                                                        }
                                                    ],
                                                    "typeTag": 3
                                                }
                                            },
                                            {
                                                "key": "0x7c88d17779864a76b2269ffcc19b15fa6fa5a3a7",
                                                "value": {
                                                    "fields": [
                                                        {
                                                            "name": "allDynamicAmount",
                                                            "type": "uint256",
                                                            "value": {
                                                                "current": "16000000000000000",
                                                                "prev": "13000000000000000",
                                                                "typeTag": 1
                                                            }
                                                        },
                                                        {
                                                            "name": "hisDynamicAmount",
                                                            "type": "uint256",
                                                            "value": {
                                                                "current": "2266200000000000000",
                                                                "prev": "2263200000000000000",
                                                                "typeTag": 1
                                                            }
                                                        }
                                                    ],
                                                    "typeTag": 3
                                                }
                                            },
                                            {
                                                "key": "0x81c370bf8c2b04926626cc76ae2d98bb605d75e1",
                                                "value": {
                                                    "fields": [
                                                        {
                                                            "name": "allDynamicAmount",
                                                            "type": "uint256",
                                                            "value": {
                                                                "current": "467000000000000000",
                                                                "prev": "335000000000000000",
                                                                "typeTag": 1
                                                            }
                                                        },
                                                        {
                                                            "name": "hisDynamicAmount",
                                                            "type": "uint256",
                                                            "value": {
                                                                "current": "1187000000000000000",
                                                                "prev": "1055000000000000000",
                                                                "typeTag": 1
                                                            }
                                                        }
                                                    ],
                                                    "typeTag": 3
                                                }
                                            },
                                            {
                                                "key": "0x82d6f6e858c0b42ca9baccbcb453ebccecb7a8b8",
                                                "value": {
                                                    "fields": [
                                                        {
                                                            "name": "allDynamicAmount",
                                                            "type": "uint256",
                                                            "value": {
                                                                "current": "72000000000000000",
                                                                "prev": "61000000000000000",
                                                                "typeTag": 1
                                                            }
                                                        },
                                                        {
                                                            "name": "hisDynamicAmount",
                                                            "type": "uint256",
                                                            "value": {
                                                                "current": "776500000000000000",
                                                                "prev": "765500000000000000",
                                                                "typeTag": 1
                                                            }
                                                        }
                                                    ],
                                                    "typeTag": 3
                                                }
                                            },
                                            {
                                                "key": "0x90cf4c92fe6ae3a8a39e627a32e0b7c44b18fb80",
                                                "value": {
                                                    "fields": [
                                                        {
                                                            "name": "allDynamicAmount",
                                                            "type": "uint256",
                                                            "value": {
                                                                "current": "111000000000000000",
                                                                "prev": "89000000000000000",
                                                                "typeTag": 1
                                                            }
                                                        },
                                                        {
                                                            "name": "hisDynamicAmount",
                                                            "type": "uint256",
                                                            "value": {
                                                                "current": "783000000000000000",
                                                                "prev": "761000000000000000",
                                                                "typeTag": 1
                                                            }
                                                        }
                                                    ],
                                                    "typeTag": 3
                                                }
                                            },
                                            {
                                                "key": "0xa2068380dab08f39f8cf96b41bd5c72e9a58dac9",
                                                "value": {
                                                    "fields": [
                                                        {
                                                            "name": "allDynamicAmount",
                                                            "type": "uint256",
                                                            "value": {
                                                                "current": "12700000000000000",
                                                                "prev": "9700000000000000",
                                                                "typeTag": 1
                                                            }
                                                        },
                                                        {
                                                            "name": "hisDynamicAmount",
                                                            "type": "uint256",
                                                            "value": {
                                                                "current": "2412000000000000000",
                                                                "prev": "2409000000000000000",
                                                                "typeTag": 1
                                                            }
                                                        }
                                                    ],
                                                    "typeTag": 3
                                                }
                                            },
                                            {
                                                "key": "0xa94df2744784bdd3f35406fc25278fa72427aeed",
                                                "value": {
                                                    "fields": [
                                                        {
                                                            "name": "allDynamicAmount",
                                                            "type": "uint256",
                                                            "value": {
                                                                "current": "62400000000000000",
                                                                "prev": "47400000000000000",
                                                                "typeTag": 1
                                                            }
                                                        },
                                                        {
                                                            "name": "hisDynamicAmount",
                                                            "type": "uint256",
                                                            "value": {
                                                                "current": "1221900000000000000",
                                                                "prev": "1206900000000000000",
                                                                "typeTag": 1
                                                            }
                                                        }
                                                    ],
                                                    "typeTag": 3
                                                }
                                            },
                                            {
                                                "key": "0xab1111d9f11ccaa2958a4ad5246ceda3818e1049",
                                                "value": {
                                                    "fields": [
                                                        {
                                                            "name": "allDynamicAmount",
                                                            "type": "uint256",
                                                            "value": {
                                                                "current": "11600000000000000",
                                                                "prev": "8600000000000000",
                                                                "typeTag": 1
                                                            }
                                                        },
                                                        {
                                                            "name": "hisDynamicAmount",
                                                            "type": "uint256",
                                                            "value": {
                                                                "current": "2582600000000000000",
                                                                "prev": "2579600000000000000",
                                                                "typeTag": 1
                                                            }
                                                        }
                                                    ],
                                                    "typeTag": 3
                                                }
                                            },
                                            {
                                                "key": "0xb81a3a6ccbf23d3cf4dae74344fdff097e1928ca",
                                                "value": {
                                                    "fields": [
                                                        {
                                                            "name": "allStaticAmount",
                                                            "type": "uint256",
                                                            "value": {
                                                                "current": "150000000000000000",
                                                                "prev": "0",
                                                                "typeTag": 1
                                                            }
                                                        },
                                                        {
                                                            "name": "allDynamicAmount",
                                                            "type": "uint256",
                                                            "value": {
                                                                "current": "330000000000000000",
                                                                "prev": "180000000000000000",
                                                                "typeTag": 1
                                                            }
                                                        },
                                                        {
                                                            "name": "hisStaticAmount",
                                                            "type": "uint256",
                                                            "value": {
                                                                "current": "450000000000000000",
                                                                "prev": "300000000000000000",
                                                                "typeTag": 1
                                                            }
                                                        },
                                                        {
                                                            "name": "hisDynamicAmount",
                                                            "type": "uint256",
                                                            "value": {
                                                                "current": "990000000000000000",
                                                                "prev": "840000000000000000",
                                                                "typeTag": 1
                                                            }
                                                        },
                                                        {
                                                            "name": "invests",
                                                            "type": "struct HyperFair.Invest[]",
                                                            "value": {
                                                                "elemType": "struct HyperFair.Invest",
                                                                "elems": [
                                                                    {
                                                                        "index": 0,
                                                                        "value": {
                                                                            "fields": [
                                                                                {
                                                                                    "name": "times",
                                                                                    "type": "uint256",
                                                                                    "value": {
                                                                                        "current": "3",
                                                                                        "prev": "2",
                                                                                        "typeTag": 1
                                                                                    }
                                                                                }
                                                                            ],
                                                                            "typeTag": 3
                                                                        }
                                                                    }
                                                                ],
                                                                "typeTag": 2
                                                            }
                                                        }
                                                    ],
                                                    "typeTag": 3
                                                }
                                            },
                                            {
                                                "key": "0xc045e0ede83cd7dfd0faf3af4fb172f0fc980555",
                                                "value": {
                                                    "fields": [
                                                        {
                                                            "name": "allDynamicAmount",
                                                            "type": "uint256",
                                                            "value": {
                                                                "current": "67600000000000000",
                                                                "prev": "56600000000000000",
                                                                "typeTag": 1
                                                            }
                                                        },
                                                        {
                                                            "name": "hisDynamicAmount",
                                                            "type": "uint256",
                                                            "value": {
                                                                "current": "981100000000000000",
                                                                "prev": "970100000000000000",
                                                                "typeTag": 1
                                                            }
                                                        }
                                                    ],
                                                    "typeTag": 3
                                                }
                                            },
                                            {
                                                "key": "0xc5b9af71acf436692af83dc98fcdd6617529b990",
                                                "value": {
                                                    "fields": [
                                                        {
                                                            "name": "allDynamicAmount",
                                                            "type": "uint256",
                                                            "value": {
                                                                "current": "20400000000000000",
                                                                "prev": "17400000000000000",
                                                                "typeTag": 1
                                                            }
                                                        },
                                                        {
                                                            "name": "hisDynamicAmount",
                                                            "type": "uint256",
                                                            "value": {
                                                                "current": "2376100000000000000",
                                                                "prev": "2373100000000000000",
                                                                "typeTag": 1
                                                            }
                                                        }
                                                    ],
                                                    "typeTag": 3
                                                }
                                            },
                                            {
                                                "key": "0xc75c71f725fcd684e86752ad4caa5ce881ab235c",
                                                "value": {
                                                    "fields": [
                                                        {
                                                            "name": "allDynamicAmount",
                                                            "type": "uint256",
                                                            "value": {
                                                                "current": "88500000000000000",
                                                                "prev": "72000000000000000",
                                                                "typeTag": 1
                                                            }
                                                        },
                                                        {
                                                            "name": "hisDynamicAmount",
                                                            "type": "uint256",
                                                            "value": {
                                                                "current": "782000000000000000",
                                                                "prev": "765500000000000000",
                                                                "typeTag": 1
                                                            }
                                                        }
                                                    ],
                                                    "typeTag": 3
                                                }
                                            },
                                            {
                                                "key": "0xc8a699d0bec5ace2c9361036b0e7120695d19cd5",
                                                "value": {
                                                    "fields": [
                                                        {
                                                            "name": "allDynamicAmount",
                                                            "type": "uint256",
                                                            "value": {
                                                                "current": "253000000000000000",
                                                                "prev": "66000000000000000",
                                                                "typeTag": 1
                                                            }
                                                        },
                                                        {
                                                            "name": "hisDynamicAmount",
                                                            "type": "uint256",
                                                            "value": {
                                                                "current": "759000000000000000",
                                                                "prev": "572000000000000000",
                                                                "typeTag": 1
                                                            }
                                                        }
                                                    ],
                                                    "typeTag": 3
                                                }
                                            },
                                            {
                                                "key": "0xcc95be809a2b531780ab4aebb8a29a87f37f58d1",
                                                "value": {
                                                    "fields": [
                                                        {
                                                            "name": "allDynamicAmount",
                                                            "type": "uint256",
                                                            "value": {
                                                                "current": "133000000000000000",
                                                                "prev": "111000000000000000",
                                                                "typeTag": 1
                                                            }
                                                        },
                                                        {
                                                            "name": "hisDynamicAmount",
                                                            "type": "uint256",
                                                            "value": {
                                                                "current": "750000000000000000",
                                                                "prev": "728000000000000000",
                                                                "typeTag": 1
                                                            }
                                                        }
                                                    ],
                                                    "typeTag": 3
                                                }
                                            },
                                            {
                                                "key": "0xd3546806f02e6fdbd04771827728f60da36a397c",
                                                "value": {
                                                    "fields": [
                                                        {
                                                            "name": "allDynamicAmount",
                                                            "type": "uint256",
                                                            "value": {
                                                                "current": "3300000000000000",
                                                                "prev": "2200000000000000",
                                                                "typeTag": 1
                                                            }
                                                        },
                                                        {
                                                            "name": "hisDynamicAmount",
                                                            "type": "uint256",
                                                            "value": {
                                                                "current": "2123000000000000000",
                                                                "prev": "2121900000000000000",
                                                                "typeTag": 1
                                                            }
                                                        }
                                                    ],
                                                    "typeTag": 3
                                                }
                                            },
                                            {
                                                "key": "0xd5beefac1d75d64f213f6e3bd28a38f70d1f6943",
                                                "value": {
                                                    "fields": [
                                                        {
                                                            "name": "allDynamicAmount",
                                                            "type": "uint256",
                                                            "value": {
                                                                "current": "66800000000000000",
                                                                "prev": "51800000000000000",
                                                                "typeTag": 1
                                                            }
                                                        },
                                                        {
                                                            "name": "hisDynamicAmount",
                                                            "type": "uint256",
                                                            "value": {
                                                                "current": "1084300000000000000",
                                                                "prev": "1069300000000000000",
                                                                "typeTag": 1
                                                            }
                                                        }
                                                    ],
                                                    "typeTag": 3
                                                }
                                            },
                                            {
                                                "key": "0xd614cf57b271550ad15898dab5b76c57bb92b162",
                                                "value": {
                                                    "fields": [
                                                        {
                                                            "name": "allDynamicAmount",
                                                            "type": "uint256",
                                                            "value": {
                                                                "current": "77500000000000000",
                                                                "prev": "66500000000000000",
                                                                "typeTag": 1
                                                            }
                                                        },
                                                        {
                                                            "name": "hisDynamicAmount",
                                                            "type": "uint256",
                                                            "value": {
                                                                "current": "776500000000000000",
                                                                "prev": "765500000000000000",
                                                                "typeTag": 1
                                                            }
                                                        }
                                                    ],
                                                    "typeTag": 3
                                                }
                                            },
                                            {
                                                "key": "0xedbd1aa52c9e518557c820791264667fe324ce52",
                                                "value": {
                                                    "fields": [
                                                        {
                                                            "name": "allStaticAmount",
                                                            "type": "uint256",
                                                            "value": {
                                                                "current": "150000000000000000",
                                                                "prev": "0",
                                                                "typeTag": 1
                                                            }
                                                        },
                                                        {
                                                            "name": "hisStaticAmount",
                                                            "type": "uint256",
                                                            "value": {
                                                                "current": "450000000000000000",
                                                                "prev": "300000000000000000",
                                                                "typeTag": 1
                                                            }
                                                        },
                                                        {
                                                            "name": "invests",
                                                            "type": "struct HyperFair.Invest[]",
                                                            "value": {
                                                                "elemType": "struct HyperFair.Invest",
                                                                "elems": [
                                                                    {
                                                                        "index": 0,
                                                                        "value": {
                                                                            "fields": [
                                                                                {
                                                                                    "name": "times",
                                                                                    "type": "uint256",
                                                                                    "value": {
                                                                                        "current": "3",
                                                                                        "prev": "2",
                                                                                        "typeTag": 1
                                                                                    }
                                                                                }
                                                                            ],
                                                                            "typeTag": 3
                                                                        }
                                                                    }
                                                                ],
                                                                "typeTag": 2
                                                            }
                                                        }
                                                    ],
                                                    "typeTag": 3
                                                }
                                            },
                                            {
                                                "key": "0xee9d85d0f11878ea4f25a5d38ab586d96b84ad35",
                                                "value": {
                                                    "fields": [
                                                        {
                                                            "name": "allDynamicAmount",
                                                            "type": "uint256",
                                                            "value": {
                                                                "current": "30800000000000000",
                                                                "prev": "21800000000000000",
                                                                "typeTag": 1
                                                            }
                                                        },
                                                        {
                                                            "name": "hisDynamicAmount",
                                                            "type": "uint256",
                                                            "value": {
                                                                "current": "2497900000000000000",
                                                                "prev": "2488900000000000000",
                                                                "typeTag": 1
                                                            }
                                                        }
                                                    ],
                                                    "typeTag": 3
                                                }
                                            },
                                            {
                                                "key": "0xef3bde2ac9fa1b48031e5d34bce267cf16a42b96",
                                                "value": {
                                                    "fields": [
                                                        {
                                                            "name": "allDynamicAmount",
                                                            "type": "uint256",
                                                            "value": {
                                                                "current": "5600000000000000",
                                                                "prev": "3400000000000000",
                                                                "typeTag": 1
                                                            }
                                                        },
                                                        {
                                                            "name": "hisDynamicAmount",
                                                            "type": "uint256",
                                                            "value": {
                                                                "current": "2253600000000000000",
                                                                "prev": "2251400000000000000",
                                                                "typeTag": 1
                                                            }
                                                        }
                                                    ],
                                                    "typeTag": 3
                                                }
                                            },
                                            {
                                                "key": "0xf0cac36de74034305e4ca37d64a0a0984ed253ff",
                                                "value": {
                                                    "fields": [
                                                        {
                                                            "name": "allDynamicAmount",
                                                            "type": "uint256",
                                                            "value": {
                                                                "current": "100000000000000000",
                                                                "prev": "78000000000000000",
                                                                "typeTag": 1
                                                            }
                                                        },
                                                        {
                                                            "name": "hisDynamicAmount",
                                                            "type": "uint256",
                                                            "value": {
                                                                "current": "783000000000000000",
                                                                "prev": "761000000000000000",
                                                                "typeTag": 1
                                                            }
                                                        }
                                                    ],
                                                    "typeTag": 3
                                                }
                                            }
                                        ],
                                        "typeTag": 4
                                    }
                                }
                            ],
                            "typeTag": 4
                        }
                    }
                ]
            }
        ]
    }
}