{
    "balance_change": {
        "balanceChanges": [
            {
                "account": "0x33d7381917bb830db6dc030dc0c81d0f5e179248",
                "assets": [
                    {
                        "address": "0xd5b0f341cb6db2a8022e1e1c13dc4404870a510c",
                        "amount": "1",
                        "iconUrl": "",
                        "isERC1155": false,
                        "isERC721": true,
                        "sign": false,
                        "tokenID": "108998221876956688232345158652598897450056423739568330148211861753085",
                        "value": ""
                    }
                ]
            },
            {
                "account": "0xa8c81146912dfb33f92bf6054eb93dea278a2563",
                "assets": [
                    {
                        "address": "0xd5b0f341cb6db2a8022e1e1c13dc4404870a510c",
                        "amount": "1",
                        "iconUrl": "",
                        "isERC1155": false,
                        "isERC721": true,
                        "sign": true,
                        "tokenID": "108998221876956688232345158652598897450056423739568330148211861753085",
                        "value": ""
                    }
                ]
            }
        ]
    },
    "profile": {
        "basic_info": {
            "baseFee": "22.174747956",
            "blockNumber": 19633981,
            "callData": "0x23b872dd00000000000000000000000033d7381917bb830db6dc030dc0c81d0f5e179248000000000000000000000000a8c81146912dfb33f92bf6054eb93dea278a2563000000040b000000000000000000000000000000000000000000000000000cfd",
            "debugEnable": true,
            "errorInfo": "",
            "eventCount": 1,
            "feeRecipient": "0x95222290dd7278aa3ddd389cc1e1d165cc4bafe5",
            "formatValue": "0",
            "gasLimit": 147328,
            "gasPrice": "22.187959849",
            "gasUsed": 92792,
            "intTxnCount": 0,
            "internalRevert": false,
            "internalRevertMessage": "",
            "isContractCreation": false,
            "isFlashloan": false,
            "maxFee": "30.440959313",
            "nonce": 189,
            "overwritedBlockNumber": -1,
            "priorityFee": "0.013211893",
            "receiver": "0xd5b0f341cb6db2a8022e1e1c13dc4404870a510c",
            "revertMessage": "",
            "sender": "0x33d7381917bb830db6dc030dc0c81d0f5e179248",
            "simulationEnable": true,
            "sourceTxnHash": "0x857ff47dbeef60992a46d81142a93ca9ef1d72e04e1a66488e6e7c6a75e98a6c",
            "status": true,
            "timestamp": "2024-04-11T17:51:23Z",
            "transactionFee": "0.002058865170308408",
            "txnHash": "0x857ff47dbeef60992a46d81142a93ca9ef1d72e04e1a66488e6e7c6a75e98a6c",
            "txnIndex": 146,
            "type": 2,
            "value": "0"
        },
        "fund_flow": [
            {
                "amount": "1",
                "from": "0x33d7381917bb830db6dc030dc0c81d0f5e179248",
                "id": 1,
                "isERC1155": false,
                "isERC721": true,
                "isReverted": false,
                "order": 1,
                "to": "0xa8c81146912dfb33f92bf6054eb93dea278a2563",
                "token": "0xd5b0f341cb6db2a8022e1e1c13dc4404870a510c",
                "tokenID": "108998221876956688232345158652598897450056423739568330148211861753085"
            }
        ],
        "token_infos": [
            {
                "address": "0xc02aaa39b223fe8d0a0e5c4f27ead9083c756cc2",
                "decimals": 18
            },
            {
                "address": "0xeeeeeeeeeeeeeeeeeeeeeeeeeeeeeeeeeeeeeeee",
                "decimals": 18
            }
        ]
    },
    "address_label": {
        "labels": [
            {
                "address": "0xeeeeeeeeeeeeeeeeeeeeeeeeeeeeeeeeeeeeeeee",
                "label": "Ether"
            },
            {
                "address": "0xd5b0f341cb6db2a8022e1e1c13dc4404870a510c",
                "label": "Big Time Collection 0 (BT0)"
            },
            {
                "address": "0x0000000000000000000000000000000000000001",
                "label": "Precompiled"
            },
            {
                "address": "0x0000000000000000000000000000000000000002",
                "label": "Precompiled"
            },
            {
                "address": "0x0000000000000000000000000000000000000003",
                "label": "Precompiled"
            },
            {
                "address": "0x0000000000000000000000000000000000000004",
                "label": "Precompiled"
            }
        ]
    },
    "trace": {
        "accountLabels": null,
        "dataMap": {
            "-1": {
                "invocation": {
                    "address": "0x33d7381917bb830db6dc030dc0c81d0f5e179248",
                    "callData": "",
                    "decodedMethod": null,
                    "errorInfo": "",
                    "fromAddress": "",
                    "gasUsed": 0,
                    "id": -1,
                    "methodDecoded": false,
                    "operation": "",
                    "output": "",
                    "revert": false,
                    "revertMessage": "",
                    "selector": "",
                    "status": false,
                    "value": ""
                },
                "nodeType": 0
            },
            "0": {
                "invocation": {
                    "address": "0xd5b0f341cb6db2a8022e1e1c13dc4404870a510c",
                    "callData": "0x00000000000000000000000033d7381917bb830db6dc030dc0c81d0f5e179248000000000000000000000000a8c81146912dfb33f92bf6054eb93dea278a2563000000040b000000000000000000000000000000000000000000000000000cfd",
                    "decodedMethod": {
                        "callParams": [
                            {
                                "name": "from",
                                "type": "address",
                                "value": "0x33d7381917bb830db6dc030dc0c81d0f5e179248"
                            },
                            {
                                "name": "to",
                                "type": "address",
                                "value": "0xa8c81146912dfb33f92bf6054eb93dea278a2563"
                            },
                            {
                                "decimalAvailable": true,
                                "name": "tokenId",
                                "type": "uint256",
                                "value": "108,998,221,876,956,688,232,345,158,652,598,897,450,056,423,739,568,330,148,211,861,753,085"
                            }
                        ],
                        "constructorArguments": "",
                        "name": "transferFrom",
                        "returnParams": [],
                        "signature": "transferFrom(address,address,uint256)"
                    },
                    "errorInfo": "",
                    "fromAddress": "0x33d7381917bb830db6dc030dc0c81d0f5e179248",
                    "gasUsed": 92792,
                    "id": 0,
                    "methodDecoded": true,
                    "operation": "CALL",
                    "output": "",
                    "revert": false,
                    "revertMessage": "",
                    "selector": "0x23b872dd",
                    "status": true,
                    "value": "0"
                },
                "nodeType": 0
            },
            "1": {
                "event": {
                    "contract": "0xd5b0f341cb6db2a8022e1e1c13dc4404870a510c",
                    "decodedLog": {
                        "name": "Transfer",
                        "params": [
                            {
                                "name": "from",
                                "type": "address",
                                "value": "0x33d7381917bb830db6dc030dc0c81d0f5e179248"
                            },
                            {
                                "name": "to",
                                "type": "address",
                                "value": "0xa8c81146912dfb33f92bf6054eb93dea278a2563"
                            },
                            {
                                "decimalAvailable": true,
                                "name": "tokenId",
                                "type": "uint256",
                                "value": "108,998,221,876,956,688,232,345,158,652,598,897,450,056,423,739,568,330,148,211,861,753,085"
                            }
                        ],
                        "signature": "Transfer(address,address,uint256)"
                    },
                    "id": 1,
                    "logData": "0x",
                    "logDecoded": true,
                    "operation": "EVENT",
                    "revert": false,
                    "status": true,
                    "topics": [
                        "0xddf252ad1be2c89b69c2b068fc378daa952ba7f163c4a11628f55a4df523b3ef",
                        "0x00000000000000000000000033d7381917bb830db6dc030dc0c81d0f5e179248",
                        "0x000000000000000000000000a8c81146912dfb33f92bf6054eb93dea278a2563",
                        "0x000000040b000000000000000000000000000000000000000000000000000cfd"
                    ]
                },
                "nodeType": 1
            }
        },
        "gasFlame": [
            {
                "children": [
                    {
                        "children": [
                            {
                                "children": [],
                                "depth": 0,
                                "name": "Initial Gas",
                                "value": 21976
                            },
                            {
                                "children": [],
                                "depth": 0,
                                "name": "Executed Gas",
                                "value": 75616
                            }
                        ],
                        "depth": -1,
                        "name": "Actual Gas Used",
                        "value": 92792
                    },
                    {
                        "children": [],
                        "depth": -1,
                        "name": "Refunded Gas",
                        "value": 4800
                    }
                ],
                "depth": -2,
                "name": "Total Gas",
                "value": 97592
            }
        ],
        "isConfirmed": true,
        "mainTrace": [
            {
                "children": [
                    {
                        "children": [
                            {
                                "children": [],
                                "depth": 1,
                                "id": 1,
                                "order": 1
                            }
                        ],
                        "depth": 0,
                        "id": 0,
                        "order": 0
                    }
                ],
                "depth": -1,
                "id": -1,
                "order": -1
            }
        ],
        "mainTraceNodeCount": 2,
        "parentIdMap": {
            "0": -1,
            "1": 0
        },
        "tidyTrace": [
            {
                "children": [
                    {
                        "children": [
                            {
                                "children": [],
                                "depth": 1,
                                "id": 1,
                                "order": 1
                            }
                        ],
                        "depth": 0,
                        "id": 0,
                        "order": 0
                    }
                ],
                "depth": -1,
                "id": -1,
                "order": -1
            }
        ],
        "tidyTraceNodeCount": 2
    },
    "state_change": {
        "stateChanges": [
            {
                "address": "0xd5b0f341cb6db2a8022e1e1c13dc4404870a510c",
                "erc": "ERC-721",
                "slots": [
                    {
                        "current": "0x00000002d5000000000000000000000000000000000000000000000000001f23",
                        "key": "0xc14eab939a84718898bc431c533aaea392ab440a82674ab43a2333b17a85e00b",
                        "prev": "0x000000040b000000000000000000000000000000000000000000000000000cfd"
                    },
                    {
                        "current": "0x0000000000000000000000000000000000000000000000000000000000000000",
                        "key": "0xc14eab939a84718898bc431c533aaea392ab440a82674ab43a2333b17a85e011",
                        "prev": "0x00000002d5000000000000000000000000000000000000000000000000001f23"
                    },
                    {
                        "current": "0x0000000000000000000000000000000000000000000000000000000000000091",
                        "key": "0xc7225288d7570a63c5bfd22dcc444379ce73fbaf7afec29e388928294f6c5cd1",
                        "prev": "0x0000000000000000000000000000000000000000000000000000000000000003"
                    },
                    {
                        "current": "0x0000000000000000000000000000000000000000000000000000000000000092",
                        "key": "0x04211cb647ababb82b3f1b2a6affc2dee9a754a4261da4ff070440864b266c10",
                        "prev": "0x0000000000000000000000000000000000000000000000000000000000000091"
                    },
                    {
                        "current": "0x0000000000000000000000000000000000000000000000000000000000000009",
                        "key": "0x8e2339cc3b6f502013ec752526bcbd3a89810f75cf95ade79f8bc37a610bf786",
                        "prev": "0x000000000000000000000000000000000000000000000000000000000000000a"
                    },
                    {
                        "current": "0x0000000000000000000000000000000000000000000000000000000000000003",
                        "key": "0x218a6bfe16ef70f4b0dbd8d0564dbd9bfc452268443364c5b13e7152ec86d7e9",
                        "prev": "0x0000000000000000000000000000000000000000000000000000000000000009"
                    },
                    {
                        "current": "0x000000040b000000000000000000000000000000000000000000000000000cfd",
                        "key": "0x9a6412f89db91896d99091183e4f16910f04c5958af21651e098311dc9227463",
                        "prev": "0x0000000000000000000000000000000000000000000000000000000000000000"
                    },
                    {
                        "current": "0x0000000000000000000000000000000000000000000000000000000000000009",
                        "key": "0xaa4a27d5e24adfed1714e1c39cce382c4f1a9074c264498d95cc42757c0dc43c",
                        "prev": "0x000000000000000000000000000000000000000000000000000000000000000a"
                    },
                    {
                        "current": "0x0000000000000000000000000000000000000000000000000000000000000092",
                        "key": "0x33abbd6cd20e842afadd90ff247fa387e42a14bd31a3a7fb1315659a9b2914b1",
                        "prev": "0x0000000000000000000000000000000000000000000000000000000000000091"
                    },
                    {
                        "current": "0x000000000000000000000000a8c81146912dfb33f92bf6054eb93dea278a2563",
                        "key": "0x343464cea66ad8c8a022166d37e95cba6a9c2852ef49fb00c65fec2a322729ac",
                        "prev": "0x00000000000000000000000033d7381917bb830db6dc030dc0c81d0f5e179248"
                    }
                ],
                "storageVariables": [
                    {
                        "name": "_tokenOwner",
                        "type": "mapping(uint256 => address)",
                        "value": {
                            "pairs": [
                                {
                                    "key": "108998221876956688232345158652598897450056423739568330148211861753085",
                                    "value": {
                                        "current": "0xa8c81146912dfb33f92bf6054eb93dea278a2563",
                                        "prev": "0x33d7381917bb830db6dc030dc0c81d0f5e179248",
                                        "typeTag": 1
                                    }
                                }
                            ],
                            "typeTag": 4
                        }
                    },
                    {
                        "name": "_ownedTokens",
                        "type": "mapping(address => uint256[])",
                        "value": {
                            "pairs": [
                                {
                                    "key": "0x33d7381917bb830db6dc030dc0c81d0f5e179248",
                                    "value": {
                                        "elemType": "uint256",
                                        "elems": [
                                            {
                                                "index": 3,
                                                "value": {
                                                    "current": "76351411459703960355990570070661063431198944165398105659375458721571",
                                                    "prev": "108998221876956688232345158652598897450056423739568330148211861753085",
                                                    "typeTag": 1
                                                }
                                            }
                                        ],
                                        "typeTag": 2
                                    }
                                },
                                {
                                    "key": "0xa8c81146912dfb33f92bf6054eb93dea278a2563",
                                    "value": {
                                        "elemType": "uint256",
                                        "elems": [
                                            {
                                                "index": 145,
                                                "value": {
                                                    "current": "108998221876956688232345158652598897450056423739568330148211861753085",
                                                    "prev": "0",
                                                    "typeTag": 1
                                                }
                                            }
                                        ],
                                        "typeTag": 2
                                    }
                                }
                            ],
                            "typeTag": 4
                        }
                    },
                    {
                        "name": "_ownedTokensIndex",
                        "type": "mapping(uint256 => uint256)",
                        "value": {
                            "pairs": [
                                {
                                    "key": "108998221876956688232345158652598897450056423739568330148211861753085",
                                    "value": {
                                        "current": "145",
                                        "prev": "3",
                                        "typeTag": 1
                                    }
                                },
                                {
                                    "key": "76351411459703960355990570070661063431198944165398105659375458721571",
                                    "value": {
                                        "current": "3",
                                        "prev": "9",
                                        "typeTag": 1
                                    }
                                }
                            ],
                            "typeTag": 4
                        }
                    },
                    {
                        "name": "_ownedTokensCount",
                        "type": "mapping(address => struct Counters.Counter)",
                        "value": {
                            "pairs": [
                                {
                                    "key": "0x33d7381917bb830db6dc030dc0c81d0f5e179248",
                                    "value": {
                                        "fields": [
                                            {
                                                "name": "_value",
                                                "type": "uint256",
                                                "value": {
                                                    "current": "9",
                                                    "prev": "10",
                                                    "typeTag": 1
                                                }
                                            }
                                        ],
                                        "typeTag": 3
                                    }
                                },
                                {
                                    "key": "0xa8c81146912dfb33f92bf6054eb93dea278a2563",
                                    "value": {
                                        "fields": [
                                            {
                                                "name": "_value",
                                                "type": "uint256",
                                                "value": {
                                                    "current": "146",
                                                    "prev": "145",
                                                    "typeTag": 1
                                                }
                                            }
                                        ],
                                        "typeTag": 3
                                    }
                                }
                            ],
                            "typeTag": 4
                        }
                    }
                ]
            }
        ]
    }
}