{
    "balance_change": {
        "balanceChanges": [
            {
                "account": "0x21a31ee1afc51d94c2efccaa2092ad1028285549",
                "assets": [
                    {
                        "address": "0x3597bfd533a99c9aa083587b074434e61eb0a258",
                        "amount": "45,180.633",
                        "iconUrl": "https://assets.blocksec.com/icon/b016a2d1f45541b969fb5b24876dedcebceb6bc5f22539b1969335ffef3588d8.png",
                        "isERC1155": false,
                        "isERC721": false,
                        "sign": false,
                        "value": "299.8233228"
                    }
                ]
            },
            {
                "account": "0xe6ff683eb520533802200db9f036458f9bc23732",
                "assets": [
                    {
                        "address": "0x3597bfd533a99c9aa083587b074434e61eb0a258",
                        "amount": "45,180.633",
                        "iconUrl": "https://assets.blocksec.com/icon/b016a2d1f45541b969fb5b24876dedcebceb6bc5f22539b1969335ffef3588d8.png",
                        "isERC1155": false,
                        "isERC721": false,
                        "sign": true,
                        "value": "299.8233228"
                    }
                ]
            }
        ]
    },
    "profile": {
        "basic_info": {
            "baseFee": "88.568214797",
            "blockNumber": 13177796,
            "callData": "0xa9059cbb000000000000000000000000e6ff683eb520533802200db9f036458f9bc237320000000000000000000000000000000000000000000000000000041bf18edda0",
            "debugEnable": true,
            "errorInfo": "",
            "eventCount": 1,
            "feeRecipient": "0x99c85bb64564d9ef9a99621301f22c9993cb89e3",
            "formatValue": "0",
            "gasLimit": 207128,
            "gasPrice": "168",
            "gasUsed": 54489,
            "intTxnCount": 0,
            "internalRevert": false,
            "internalRevertMessage": "",
            "isContractCreation": false,
            "isFlashloan": false,
            "maxFee": "",
            "nonce": 1464125,
            "overwritedBlockNumber": -1,
            "priorityFee": "",
            "receiver": "0x3597bfd533a99c9aa083587b074434e61eb0a258",
            "revertMessage": "",
            "sender": "0x21a31ee1afc51d94c2efccaa2092ad1028285549",
            "simulationEnable": true,
            "sourceTxnHash": "0x85bb18b42d008e44306af13f852389efc1e128c3807b759fdcd6e83d07c3614e",
            "status": true,
            "timestamp": "2021-09-07T09:21:22Z",
            "transactionFee": "0.009154152",
            "txnHash": "0x85bb18b42d008e44306af13f852389efc1e128c3807b759fdcd6e83d07c3614e",
            "txnIndex": 22,
            "type": 0,
            "value": "0"
        },
        "fund_flow": [
            {
                "amount": "45,180.633",
                "from": "0x21a31ee1afc51d94c2efccaa2092ad1028285549",
                "id": 1,
                "isERC1155": false,
                "isERC721": false,
                "isReverted": false,
                "order": 1,
                "to": "0xe6ff683eb520533802200db9f036458f9bc23732",
                "token": "0x3597bfd533a99c9aa083587b074434e61eb0a258"
            }
        ],
        "token_infos": [
            {
                "address": "0x3597bfd533a99c9aa083587b074434e61eb0a258",
                "decimals": 8
            },
            {
                "address": "0xc02aaa39b223fe8d0a0e5c4f27ead9083c756cc2",
                "decimals": 18
            },
            {
                "address": "0xeeeeeeeeeeeeeeeeeeeeeeeeeeeeeeeeeeeeeeee",
                "decimals": 18
            }
        ]
    },
    "address_label": {
        "labels": [
            {
                "address": "0x0000000000000000000000000000000000000004",
                "label": "Precompiled"
            },
            {
                "address": "0xeeeeeeeeeeeeeeeeeeeeeeeeeeeeeeeeeeeeeeee",
                "label": "Ether"
            },
            {
                "address": "0x3597bfd533a99c9aa083587b074434e61eb0a258",
                "label": "DENT Token"
            },
            {
                "address": "0x21a31ee1afc51d94c2efccaa2092ad1028285549",
                "label": "Binance 15"
            },
            {
                "address": "0x0000000000000000000000000000000000000001",
                "label": "Precompiled"
            },
            {
                "address": "0x0000000000000000000000000000000000000002",
                "label": "Precompiled"
            },
            {
                "address": "0x0000000000000000000000000000000000000003",
                "label": "Precompiled"
            }
        ]
    },
    "trace": {
        "accountLabels": null,
        "dataMap": {
            "-1": {
                "invocation": {
                    "address": "0x21a31ee1afc51d94c2efccaa2092ad1028285549",
                    "callData": "",
                    "decodedMethod": null,
                    "errorInfo": "",
                    "fromAddress": "",
                    "gasUsed": 0,
                    "id": -1,
                    "methodDecoded": false,
                    "operation": "",
                    "output": "",
                    "revert": false,
                    "revertMessage": "",
                    "selector": "",
                    "status": false,
                    "value": ""
                },
                "nodeType": 0
            },
            "0": {
                "invocation": {
                    "address": "0x3597bfd533a99c9aa083587b074434e61eb0a258",
                    "callData": "0x000000000000000000000000e6ff683eb520533802200db9f036458f9bc237320000000000000000000000000000000000000000000000000000041bf18edda0",
                    "decodedMethod": {
                        "callParams": [
                            {
                                "name": "_to",
                                "type": "address",
                                "value": "0xe6ff683eb520533802200db9f036458f9bc23732"
                            },
                            {
                                "decimalAvailable": true,
                                "name": "_value",
                                "type": "uint256",
                                "value": "4,518,063,300,000"
                            }
                        ],
                        "constructorArguments": "",
                        "name": "transfer",
                        "returnParams": [
                            {
                                "name": "success",
                                "type": "bool",
                                "value": true
                            }
                        ],
                        "signature": "transfer(address,uint256)"
                    },
                    "errorInfo": "",
                    "fromAddress": "0x21a31ee1afc51d94c2efccaa2092ad1028285549",
                    "gasUsed": 54489,
                    "id": 0,
                    "methodDecoded": true,
                    "operation": "CALL",
                    "output": "0x0000000000000000000000000000000000000000000000000000000000000001",
                    "revert": false,
                    "revertMessage": "",
                    "selector": "0xa9059cbb",
                    "status": true,
                    "value": "0"
                },
                "nodeType": 0
            },
            "1": {
                "event": {
                    "contract": "0x3597bfd533a99c9aa083587b074434e61eb0a258",
                    "decodedLog": {
                        "name": "Transfer",
                        "params": [
                            {
                                "name": "from",
                                "type": "address",
                                "value": "0x21a31ee1afc51d94c2efccaa2092ad1028285549"
                            },
                            {
                                "name": "to",
                                "type": "address",
                                "value": "0xe6ff683eb520533802200db9f036458f9bc23732"
                            },
                            {
                                "decimalAvailable": true,
                                "name": "value",
                                "type": "uint256",
                                "value": "4,518,063,300,000"
                            }
                        ],
                        "signature": "Transfer(address,address,uint256)"
                    },
                    "id": 1,
                    "logData": "0x0000000000000000000000000000000000000000000000000000041bf18edda0",
                    "logDecoded": true,
                    "operation": "EVENT",
                    "revert": false,
                    "status": true,
                    "topics": [
                        "0xddf252ad1be2c89b69c2b068fc378daa952ba7f163c4a11628f55a4df523b3ef",
                        "0x00000000000000000000000021a31ee1afc51d94c2efccaa2092ad1028285549",
                        "0x000000000000000000000000e6ff683eb520533802200db9f036458f9bc23732"
                    ]
                },
                "nodeType": 1
            }
        },
        "gasFlame": [
            {
                "children": [
                    {
                        "children": [
                            {
                                "children": [],
                                "depth": 0,
                                "name": "Initial Gas",
                                "value": 21632
                            },
                            {
                                "children": [],
                                "depth": 0,
                                "name": "Executed Gas",
                                "value": 32857
                            }
                        ],
                        "depth": -1,
                        "name": "Actual Gas Used",
                        "value": 54489
                    },
                    {
                        "children": [],
                        "depth": -1,
                        "name": "Refunded Gas",
                        "value": 0
                    }
                ],
                "depth": -2,
                "name": "Total Gas",
                "value": 54489
            }
        ],
        "isConfirmed": true,
        "mainTrace": [
            {
                "children": [
                    {
                        "children": [
                            {
                                "children": [],
                                "depth": 1,
                                "id": 1,
                                "order": 1
                            }
                        ],
                        "depth": 0,
                        "id": 0,
                        "order": 0
                    }
                ],
                "depth": -1,
                "id": -1,
                "order": -1
            }
        ],
        "mainTraceNodeCount": 2,
        "parentIdMap": {
            "0": -1,
            "1": 0
        },
        "tidyTrace": [
            {
                "children": [
                    {
                        "children": [
                            {
                                "children": [],
                                "depth": 1,
                                "id": 1,
                                "order": 1
                            }
                        ],
                        "depth": 0,
                        "id": 0,
                        "order": 0
                    }
                ],
                "depth": -1,
                "id": -1,
                "order": -1
            }
        ],
        "tidyTraceNodeCount": 2
    },
    "state_change": {
        "stateChanges": [
            {
                "address": "0x3597bfd533a99c9aa083587b074434e61eb0a258",
                "erc": "ERC-20",
                "slots": [
                    {
                        "current": "0x0000000000000000000000000000000000000000000000000015da3664e6c468",
                        "key": "0xbfe3a0ea4e4df64d52cc5d137e94731980838427db9d8b6d217b324d5b90b4e3",
                        "prev": "0x0000000000000000000000000000000000000000000000000015de525675a208"
                    },
                    {
                        "current": "0x0000000000000000000000000000000000000000000000000000041bf18edda0",
                        "key": "0x1395d398f9427d71467346526e41ca5fe111db3ca5db480bbefcff8bdd8dd998",
                        "prev": "0x0000000000000000000000000000000000000000000000000000000000000000"
                    }
                ],
                "storageVariables": []
            }
        ]
    }
}