{
    "balance_change": {
        "balanceChanges": [
            {
                "account": "0xe88c24b71d8463e4c84f63155f2477ebcd0f65bf",
                "assets": [
                    {
                        "address": "0xdac17f958d2ee523a2206206994597c13d831ec7",
                        "amount": "6,067.019801",
                        "iconUrl": "https://assets.blocksec.com/icon/fcea71f3193ce895be44bfdf941f7e4c9381dd587f273c2d1a27f1263d84e4ea.png",
                        "isERC1155": false,
                        "isERC721": false,
                        "sign": false,
                        "value": ""
                    },
                    {
                        "address": "0xc25a3a3b969415c80451098fa907ec722572917f",
                        "amount": "5,926.677289550260523737",
                        "iconUrl": "",
                        "isERC1155": false,
                        "isERC721": false,
                        "sign": true,
                        "value": ""
                    }
                ]
            },
            {
                "account": "0xa5407eae9ba41422680e2e00537571bcc53efbfd",
                "assets": [
                    {
                        "address": "0xdac17f958d2ee523a2206206994597c13d831ec7",
                        "amount": "6,067.019801",
                        "iconUrl": "https://assets.blocksec.com/icon/fcea71f3193ce895be44bfdf941f7e4c9381dd587f273c2d1a27f1263d84e4ea.png",
                        "isERC1155": false,
                        "isERC721": false,
                        "sign": true,
                        "value": ""
                    }
                ]
            },
            {
                "account": "0x0000000000000000000000000000000000000000",
                "assets": [
                    {
                        "address": "0xc25a3a3b969415c80451098fa907ec722572917f",
                        "amount": "5,926.677289550260523737",
                        "iconUrl": "",
                        "isERC1155": false,
                        "isERC721": false,
                        "sign": false,
                        "value": ""
                    }
                ]
            }
        ]
    },
    "profile": {
        "basic_info": {
            "baseFee": "",
            "blockNumber": 10645254,
            "callData": "0x029b2f340000000000000000000000000000000000000000000000000000000000000000000000000000000000000000000000000000000000000000000000000000000000000000000000000000000000000000000000000000000000000001699f6019000000000000000000000000000000000000000000000000000000000000000000000000000000000000000000000000000000000000013e155834638f26c506",
            "debugEnable": true,
            "errorInfo": "",
            "eventCount": 6,
            "feeRecipient": "0x5a0b54d5dc17e0aadc383d2db43b0a0d3e029c4c",
            "formatValue": "0",
            "gasLimit": 600000,
            "gasPrice": "213",
            "gasUsed": 293014,
            "intTxnCount": 23,
            "internalRevert": false,
            "internalRevertMessage": "",
            "isContractCreation": false,
            "isFlashloan": false,
            "maxFee": "",
            "nonce": 29,
            "overwritedBlockNumber": -1,
            "priorityFee": "",
            "receiver": "0xa5407eae9ba41422680e2e00537571bcc53efbfd",
            "revertMessage": "",
            "sender": "0xe88c24b71d8463e4c84f63155f2477ebcd0f65bf",
            "simulationEnable": true,
            "sourceTxnHash": "0x85f32fc5789b5246f20a87f184631838e9de523991d4034760e05612fc97b0dd",
            "status": true,
            "timestamp": "2020-08-12T12:59:41Z",
            "transactionFee": "0.062411982",
            "txnHash": "0x85f32fc5789b5246f20a87f184631838e9de523991d4034760e05612fc97b0dd",
            "txnIndex": 50,
            "type": 0,
            "value": "0"
        },
        "fund_flow": [
            {
                "amount": "0",
                "from": "0xe88c24b71d8463e4c84f63155f2477ebcd0f65bf",
                "id": 1,
                "isERC1155": false,
                "isERC721": false,
                "isReverted": false,
                "order": 1,
                "to": "0xa5407eae9ba41422680e2e00537571bcc53efbfd",
                "token": "0x6b175474e89094c44da98b954eedeac495271d0f"
            },
            {
                "amount": "0",
                "from": "0xe88c24b71d8463e4c84f63155f2477ebcd0f65bf",
                "id": 2,
                "isERC1155": false,
                "isERC721": false,
                "isReverted": false,
                "order": 2,
                "to": "0xa5407eae9ba41422680e2e00537571bcc53efbfd",
                "token": "0xa0b86991c6218b36c1d19d4a2e9eb0ce3606eb48"
            },
            {
                "amount": "6,067.019801",
                "from": "0xe88c24b71d8463e4c84f63155f2477ebcd0f65bf",
                "id": 3,
                "isERC1155": false,
                "isERC721": false,
                "isReverted": false,
                "order": 3,
                "to": "0xa5407eae9ba41422680e2e00537571bcc53efbfd",
                "token": "0xdac17f958d2ee523a2206206994597c13d831ec7"
            },
            {
                "amount": "0",
                "from": "0xe88c24b71d8463e4c84f63155f2477ebcd0f65bf",
                "id": 4,
                "isERC1155": false,
                "isERC721": false,
                "isReverted": false,
                "order": 4,
                "to": "0xa5407eae9ba41422680e2e00537571bcc53efbfd",
                "token": "0x57ab1ec28d129707052df4df418d58a2d46d5f51"
            },
            {
                "amount": "5,926.677289550260523737",
                "from": "0x0000000000000000000000000000000000000000",
                "id": 5,
                "isERC1155": false,
                "isERC721": false,
                "isReverted": false,
                "order": 5,
                "to": "0xe88c24b71d8463e4c84f63155f2477ebcd0f65bf",
                "token": "0xc25a3a3b969415c80451098fa907ec722572917f"
            }
        ],
        "token_infos": [
            {
                "address": "0xc25a3a3b969415c80451098fa907ec722572917f",
                "decimals": 18
            },
            {
                "address": "0xdac17f958d2ee523a2206206994597c13d831ec7",
                "decimals": 6
            },
            {
                "address": "0xeeeeeeeeeeeeeeeeeeeeeeeeeeeeeeeeeeeeeeee",
                "decimals": 18
            },
            {
                "address": "0x57ab1ec28d129707052df4df418d58a2d46d5f51",
                "decimals": 18
            },
            {
                "address": "0x6b175474e89094c44da98b954eedeac495271d0f",
                "decimals": 18
            },
            {
                "address": "0xa0b86991c6218b36c1d19d4a2e9eb0ce3606eb48",
                "decimals": 6
            },
            {
                "address": "0xc02aaa39b223fe8d0a0e5c4f27ead9083c756cc2",
                "decimals": 18
            }
        ]
    },
    "address_label": {
        "labels": [
            {
                "address": "0x545973f28950f50fc6c7f52aab4ad214a27c0564",
                "label": "Synthetix: Exchange State"
            },
            {
                "address": "0x4534e92eefecc63c6105f53893d355c14aa129cf",
                "label": "Synthetix: Old System Status"
            },
            {
                "address": "0xae38b81459d74a8c16eaa968c792207603d84480",
                "label": "Synthetix: Synth sUSD"
            },
            {
                "address": "0x57ab1ec28d129707052df4df418d58a2d46d5f51",
                "label": "Synthetix: Proxy sUSD Token"
            },
            {
                "address": "0xa0b86991c6218b36c1d19d4a2e9eb0ce3606eb48",
                "label": "Circle: USDC Token"
            },
            {
                "address": "0x0000000000000000000000000000000000000001",
                "label": "Precompiled"
            },
            {
                "address": "0x0000000000000000000000000000000000000003",
                "label": "Precompiled"
            },
            {
                "address": "0x0000000000000000000000000000000000000004",
                "label": "Precompiled"
            },
            {
                "address": "0xeeeeeeeeeeeeeeeeeeeeeeeeeeeeeeeeeeeeeeee",
                "label": "Ether"
            },
            {
                "address": "0xc25a3a3b969415c80451098fa907ec722572917f",
                "label": "Curve.fi: sCRV Token"
            },
            {
                "address": "0xa5407eae9ba41422680e2e00537571bcc53efbfd",
                "label": "Curve.fi: sUSD v2 Swap"
            },
            {
                "address": "0x439502c922ada61fe49329248b7a8ecb31c0b329",
                "label": "Exchanger"
            },
            {
                "address": "0x6b175474e89094c44da98b954eedeac495271d0f",
                "label": "Sky: Dai Stablecoin"
            },
            {
                "address": "0x0882477e7895bdc5cea7cb1552ed914ab157fe56",
                "label": "FiatTokenV1"
            },
            {
                "address": "0x0000000000000000000000000000000000000002",
                "label": "Precompiled"
            },
            {
                "address": "0xdac17f958d2ee523a2206206994597c13d831ec7",
                "label": "Tether: USDT Stablecoin"
            },
            {
                "address": "0x05a9cbe762b36632b3594da4f082340e0e5343e8",
                "label": "Synthetix: Token State sUSD"
            }
        ]
    },
    "trace": {
        "accountLabels": null,
        "dataMap": {
            "-1": {
                "invocation": {
                    "address": "0xe88c24b71d8463e4c84f63155f2477ebcd0f65bf",
                    "callData": "",
                    "decodedMethod": null,
                    "errorInfo": "",
                    "fromAddress": "",
                    "gasUsed": 0,
                    "id": -1,
                    "methodDecoded": false,
                    "operation": "",
                    "output": "",
                    "revert": false,
                    "revertMessage": "",
                    "selector": "",
                    "status": false,
                    "value": ""
                },
                "nodeType": 0
            },
            "0": {
                "invocation": {
                    "address": "0xa5407eae9ba41422680e2e00537571bcc53efbfd",
                    "callData": "0x0000000000000000000000000000000000000000000000000000000000000000000000000000000000000000000000000000000000000000000000000000000000000000000000000000000000000000000000000000000000000001699f6019000000000000000000000000000000000000000000000000000000000000000000000000000000000000000000000000000000000000013e155834638f26c506",
                    "decodedMethod": {
                        "callParams": [
                            {
                                "name": "amounts",
                                "type": "uint256[4]",
                                "value": [
                                    "0",
                                    "0",
                                    "6,067,019,801",
                                    "0"
                                ]
                            },
                            {
                                "name": "",
                                "type": "uint256",
                                "value": "5,867,602,652,314,592,527,622"
                            }
                        ],
                        "constructorArguments": "",
                        "name": "add_liquidity",
                        "returnParams": [],
                        "signature": "add_liquidity(uint256[4],uint256)"
                    },
                    "errorInfo": "",
                    "fromAddress": "0xe88c24b71d8463e4c84f63155f2477ebcd0f65bf",
                    "gasUsed": 293014,
                    "id": 0,
                    "methodDecoded": true,
                    "operation": "CALL",
                    "output": "",
                    "revert": false,
                    "revertMessage": "",
                    "selector": "0x029b2f34",
                    "status": true,
                    "value": "0"
                },
                "nodeType": 0
            },
            "1": {
                "invocation": {
                    "address": "0xc25a3a3b969415c80451098fa907ec722572917f",
                    "callData": "0x",
                    "decodedMethod": {
                        "callParams": [],
                        "constructorArguments": "",
                        "name": "totalSupply",
                        "returnParams": [
                            {
                                "name": "",
                                "type": "uint256",
                                "value": "44,314,546,390,809,608,049,732,778"
                            }
                        ],
                        "signature": "totalSupply()"
                    },
                    "errorInfo": "",
                    "fromAddress": "0xa5407eae9ba41422680e2e00537571bcc53efbfd",
                    "gasUsed": 991,
                    "id": 1,
                    "methodDecoded": true,
                    "operation": "STATICCALL",
                    "output": "0x00000000000000000000000000000000000000000024a7f85f9c77fa56252caa",
                    "revert": false,
                    "revertMessage": "",
                    "selector": "0x18160ddd",
                    "status": true,
                    "value": "0"
                },
                "nodeType": 0
            },
            "10": {
                "invocation": {
                    "address": "0xae38b81459d74a8c16eaa968c792207603d84480",
                    "callData": "0x000000000000000000000000a5407eae9ba41422680e2e00537571bcc53efbfd",
                    "decodedMethod": {
                        "callParams": [
                            {
                                "name": "sender",
                                "type": "address",
                                "value": "0xa5407eae9ba41422680e2e00537571bcc53efbfd"
                            }
                        ],
                        "constructorArguments": "",
                        "name": "setMessageSender",
                        "returnParams": [],
                        "signature": "setMessageSender(address)"
                    },
                    "errorInfo": "",
                    "fromAddress": "0x57ab1ec28d129707052df4df418d58a2d46d5f51",
                    "gasUsed": 3637,
                    "id": 10,
                    "methodDecoded": true,
                    "operation": "CALL",
                    "output": "",
                    "revert": false,
                    "revertMessage": "",
                    "selector": "0xbc67f832",
                    "status": true,
                    "value": "0"
                },
                "nodeType": 0
            },
            "11": {
                "invocation": {
                    "address": "0xae38b81459d74a8c16eaa968c792207603d84480",
                    "callData": "0x000000000000000000000000e88c24b71d8463e4c84f63155f2477ebcd0f65bf000000000000000000000000a5407eae9ba41422680e2e00537571bcc53efbfd0000000000000000000000000000000000000000000000000000000000000000",
                    "decodedMethod": {
                        "callParams": [
                            {
                                "name": "from",
                                "type": "address",
                                "value": "0xe88c24b71d8463e4c84f63155f2477ebcd0f65bf"
                            },
                            {
                                "name": "to",
                                "type": "address",
                                "value": "0xa5407eae9ba41422680e2e00537571bcc53efbfd"
                            },
                            {
                                "decimalAvailable": true,
                                "name": "value",
                                "type": "uint256",
                                "value": "0"
                            }
                        ],
                        "constructorArguments": "",
                        "name": "transferFrom",
                        "returnParams": [
                            {
                                "name": "",
                                "type": "bool",
                                "value": true
                            }
                        ],
                        "signature": "transferFrom(address,address,uint256)"
                    },
                    "errorInfo": "",
                    "fromAddress": "0x57ab1ec28d129707052df4df418d58a2d46d5f51",
                    "gasUsed": 65457,
                    "id": 11,
                    "methodDecoded": true,
                    "operation": "CALL",
                    "output": "0x0000000000000000000000000000000000000000000000000000000000000001",
                    "revert": false,
                    "revertMessage": "",
                    "selector": "0x23b872dd",
                    "status": true,
                    "value": "0"
                },
                "nodeType": 0
            },
            "12": {
                "invocation": {
                    "address": "0x439502c922ada61fe49329248b7a8ecb31c0b329",
                    "callData": "0x000000000000000000000000e88c24b71d8463e4c84f63155f2477ebcd0f65bf7355534400000000000000000000000000000000000000000000000000000000",
                    "decodedMethod": {
                        "callParams": [
                            {
                                "name": "account",
                                "type": "address",
                                "value": "0xe88c24b71d8463e4c84f63155f2477ebcd0f65bf"
                            },
                            {
                                "name": "currencyKey",
                                "type": "bytes32",
                                "value": "0x7355534400000000000000000000000000000000000000000000000000000000"
                            }
                        ],
                        "constructorArguments": "",
                        "name": "maxSecsLeftInWaitingPeriod",
                        "returnParams": [
                            {
                                "name": "",
                                "type": "uint256",
                                "value": "0"
                            }
                        ],
                        "signature": "maxSecsLeftInWaitingPeriod(address,bytes32)"
                    },
                    "errorInfo": "",
                    "fromAddress": "0xae38b81459d74a8c16eaa968c792207603d84480",
                    "gasUsed": 4755,
                    "id": 12,
                    "methodDecoded": true,
                    "operation": "CALL",
                    "output": "0x0000000000000000000000000000000000000000000000000000000000000000",
                    "revert": false,
                    "revertMessage": "",
                    "selector": "0x059c29ec",
                    "status": true,
                    "value": "0"
                },
                "nodeType": 0
            },
            "13": {
                "invocation": {
                    "address": "0x545973f28950f50fc6c7f52aab4ad214a27c0564",
                    "callData": "0x000000000000000000000000e88c24b71d8463e4c84f63155f2477ebcd0f65bf7355534400000000000000000000000000000000000000000000000000000000",
                    "decodedMethod": {
                        "callParams": [
                            {
                                "name": "account",
                                "type": "address",
                                "value": "0xe88c24b71d8463e4c84f63155f2477ebcd0f65bf"
                            },
                            {
                                "name": "currencyKey",
                                "type": "bytes32",
                                "value": "0x7355534400000000000000000000000000000000000000000000000000000000"
                            }
                        ],
                        "constructorArguments": "",
                        "name": "getMaxTimestamp",
                        "returnParams": [
                            {
                                "name": "",
                                "type": "uint256",
                                "value": "0"
                            }
                        ],
                        "signature": "getMaxTimestamp(address,bytes32)"
                    },
                    "errorInfo": "",
                    "fromAddress": "0x439502c922ada61fe49329248b7a8ecb31c0b329",
                    "gasUsed": 1619,
                    "id": 13,
                    "methodDecoded": true,
                    "operation": "STATICCALL",
                    "output": "0x0000000000000000000000000000000000000000000000000000000000000000",
                    "revert": false,
                    "revertMessage": "",
                    "selector": "0xf1406dc8",
                    "status": true,
                    "value": "0"
                },
                "nodeType": 0
            },
            "14": {
                "invocation": {
                    "address": "0x439502c922ada61fe49329248b7a8ecb31c0b329",
                    "callData": "0x000000000000000000000000e88c24b71d8463e4c84f63155f2477ebcd0f65bf7355534400000000000000000000000000000000000000000000000000000000",
                    "decodedMethod": {
                        "callParams": [
                            {
                                "name": "account",
                                "type": "address",
                                "value": "0xe88c24b71d8463e4c84f63155f2477ebcd0f65bf"
                            },
                            {
                                "name": "currencyKey",
                                "type": "bytes32",
                                "value": "0x7355534400000000000000000000000000000000000000000000000000000000"
                            }
                        ],
                        "constructorArguments": "",
                        "name": "settlementOwing",
                        "returnParams": [
                            {
                                "name": "reclaimAmount",
                                "type": "uint256",
                                "value": "0"
                            },
                            {
                                "name": "rebateAmount",
                                "type": "uint256",
                                "value": "0"
                            },
                            {
                                "name": "numEntries",
                                "type": "uint256",
                                "value": "0"
                            }
                        ],
                        "signature": "settlementOwing(address,bytes32)"
                    },
                    "errorInfo": "",
                    "fromAddress": "0xae38b81459d74a8c16eaa968c792207603d84480",
                    "gasUsed": 4894,
                    "id": 14,
                    "methodDecoded": true,
                    "operation": "CALL",
                    "output": "0x000000000000000000000000000000000000000000000000000000000000000000000000000000000000000000000000000000000000000000000000000000000000000000000000000000000000000000000000000000000000000000000000",
                    "revert": false,
                    "revertMessage": "",
                    "selector": "0x19d5c665",
                    "status": true,
                    "value": "0"
                },
                "nodeType": 0
            },
            "15": {
                "invocation": {
                    "address": "0x545973f28950f50fc6c7f52aab4ad214a27c0564",
                    "callData": "0x000000000000000000000000e88c24b71d8463e4c84f63155f2477ebcd0f65bf7355534400000000000000000000000000000000000000000000000000000000",
                    "decodedMethod": {
                        "callParams": [
                            {
                                "name": "account",
                                "type": "address",
                                "value": "0xe88c24b71d8463e4c84f63155f2477ebcd0f65bf"
                            },
                            {
                                "name": "currencyKey",
                                "type": "bytes32",
                                "value": "0x7355534400000000000000000000000000000000000000000000000000000000"
                            }
                        ],
                        "constructorArguments": "",
                        "name": "getLengthOfEntries",
                        "returnParams": [
                            {
                                "name": "",
                                "type": "uint256",
                                "value": "0"
                            }
                        ],
                        "signature": "getLengthOfEntries(address,bytes32)"
                    },
                    "errorInfo": "",
                    "fromAddress": "0x439502c922ada61fe49329248b7a8ecb31c0b329",
                    "gasUsed": 1510,
                    "id": 15,
                    "methodDecoded": true,
                    "operation": "STATICCALL",
                    "output": "0x0000000000000000000000000000000000000000000000000000000000000000",
                    "revert": false,
                    "revertMessage": "",
                    "selector": "0xb44e9753",
                    "status": true,
                    "value": "0"
                },
                "nodeType": 0
            },
            "16": {
                "invocation": {
                    "address": "0x05a9cbe762b36632b3594da4f082340e0e5343e8",
                    "callData": "0x000000000000000000000000e88c24b71d8463e4c84f63155f2477ebcd0f65bf",
                    "decodedMethod": {
                        "callParams": [
                            {
                                "name": "",
                                "type": "address",
                                "value": "0xe88c24b71d8463e4c84f63155f2477ebcd0f65bf"
                            }
                        ],
                        "constructorArguments": "",
                        "name": "balanceOf",
                        "returnParams": [
                            {
                                "decimalAvailable": true,
                                "name": "",
                                "type": "uint256",
                                "value": "0"
                            }
                        ],
                        "signature": "balanceOf(address)"
                    },
                    "errorInfo": "",
                    "fromAddress": "0xae38b81459d74a8c16eaa968c792207603d84480",
                    "gasUsed": 1197,
                    "id": 16,
                    "methodDecoded": true,
                    "operation": "CALL",
                    "output": "0x0000000000000000000000000000000000000000000000000000000000000000",
                    "revert": false,
                    "revertMessage": "",
                    "selector": "0x70a08231",
                    "status": true,
                    "value": "0"
                },
                "nodeType": 0
            },
            "17": {
                "invocation": {
                    "address": "0x4534e92eefecc63c6105f53893d355c14aa129cf",
                    "callData": "0x7355534400000000000000000000000000000000000000000000000000000000",
                    "decodedMethod": {
                        "callParams": [
                            {
                                "name": "currencyKey",
                                "type": "bytes32",
                                "value": "0x7355534400000000000000000000000000000000000000000000000000000000"
                            }
                        ],
                        "constructorArguments": "",
                        "name": "requireSynthActive",
                        "returnParams": [],
                        "signature": "requireSynthActive(bytes32)"
                    },
                    "errorInfo": "",
                    "fromAddress": "0xae38b81459d74a8c16eaa968c792207603d84480",
                    "gasUsed": 2314,
                    "id": 17,
                    "methodDecoded": true,
                    "operation": "CALL",
                    "output": "",
                    "revert": false,
                    "revertMessage": "",
                    "selector": "0x42a28e21",
                    "status": true,
                    "value": "0"
                },
                "nodeType": 0
            },
            "18": {
                "invocation": {
                    "address": "0x05a9cbe762b36632b3594da4f082340e0e5343e8",
                    "callData": "0x000000000000000000000000e88c24b71d8463e4c84f63155f2477ebcd0f65bf000000000000000000000000a5407eae9ba41422680e2e00537571bcc53efbfd",
                    "decodedMethod": {
                        "callParams": [
                            {
                                "name": "",
                                "type": "address",
                                "value": "0xe88c24b71d8463e4c84f63155f2477ebcd0f65bf"
                            },
                            {
                                "name": "",
                                "type": "address",
                                "value": "0xa5407eae9ba41422680e2e00537571bcc53efbfd"
                            }
                        ],
                        "constructorArguments": "",
                        "name": "allowance",
                        "returnParams": [
                            {
                                "decimalAvailable": true,
                                "name": "",
                                "type": "uint256",
                                "value": "0"
                            }
                        ],
                        "signature": "allowance(address,address)"
                    },
                    "errorInfo": "",
                    "fromAddress": "0xae38b81459d74a8c16eaa968c792207603d84480",
                    "gasUsed": 1416,
                    "id": 18,
                    "methodDecoded": true,
                    "operation": "CALL",
                    "output": "0x0000000000000000000000000000000000000000000000000000000000000000",
                    "revert": false,
                    "revertMessage": "",
                    "selector": "0xdd62ed3e",
                    "status": true,
                    "value": "0"
                },
                "nodeType": 0
            },
            "19": {
                "invocation": {
                    "address": "0x05a9cbe762b36632b3594da4f082340e0e5343e8",
                    "callData": "0x000000000000000000000000e88c24b71d8463e4c84f63155f2477ebcd0f65bf000000000000000000000000a5407eae9ba41422680e2e00537571bcc53efbfd",
                    "decodedMethod": {
                        "callParams": [
                            {
                                "name": "",
                                "type": "address",
                                "value": "0xe88c24b71d8463e4c84f63155f2477ebcd0f65bf"
                            },
                            {
                                "name": "",
                                "type": "address",
                                "value": "0xa5407eae9ba41422680e2e00537571bcc53efbfd"
                            }
                        ],
                        "constructorArguments": "",
                        "name": "allowance",
                        "returnParams": [
                            {
                                "decimalAvailable": true,
                                "name": "",
                                "type": "uint256",
                                "value": "0"
                            }
                        ],
                        "signature": "allowance(address,address)"
                    },
                    "errorInfo": "",
                    "fromAddress": "0xae38b81459d74a8c16eaa968c792207603d84480",
                    "gasUsed": 1416,
                    "id": 19,
                    "methodDecoded": true,
                    "operation": "CALL",
                    "output": "0x0000000000000000000000000000000000000000000000000000000000000000",
                    "revert": false,
                    "revertMessage": "",
                    "selector": "0xdd62ed3e",
                    "status": true,
                    "value": "0"
                },
                "nodeType": 0
            },
            "2": {
                "invocation": {
                    "address": "0x6b175474e89094c44da98b954eedeac495271d0f",
                    "callData": "0x000000000000000000000000e88c24b71d8463e4c84f63155f2477ebcd0f65bf000000000000000000000000a5407eae9ba41422680e2e00537571bcc53efbfd0000000000000000000000000000000000000000000000000000000000000000",
                    "decodedMethod": {
                        "callParams": [
                            {
                                "name": "src",
                                "type": "address",
                                "value": "0xe88c24b71d8463e4c84f63155f2477ebcd0f65bf"
                            },
                            {
                                "name": "dst",
                                "type": "address",
                                "value": "0xa5407eae9ba41422680e2e00537571bcc53efbfd"
                            },
                            {
                                "decimalAvailable": true,
                                "name": "wad",
                                "type": "uint256",
                                "value": "0"
                            }
                        ],
                        "constructorArguments": "",
                        "name": "transferFrom",
                        "returnParams": [
                            {
                                "name": "",
                                "type": "bool",
                                "value": true
                            }
                        ],
                        "signature": "transferFrom(address,address,uint256)"
                    },
                    "errorInfo": "",
                    "fromAddress": "0xa5407eae9ba41422680e2e00537571bcc53efbfd",
                    "gasUsed": 11075,
                    "id": 2,
                    "methodDecoded": true,
                    "operation": "CALL",
                    "output": "0x0000000000000000000000000000000000000000000000000000000000000001",
                    "revert": false,
                    "revertMessage": "",
                    "selector": "0x23b872dd",
                    "status": true,
                    "value": "0"
                },
                "nodeType": 0
            },
            "20": {
                "invocation": {
                    "address": "0x05a9cbe762b36632b3594da4f082340e0e5343e8",
                    "callData": "0x000000000000000000000000e88c24b71d8463e4c84f63155f2477ebcd0f65bf000000000000000000000000a5407eae9ba41422680e2e00537571bcc53efbfd0000000000000000000000000000000000000000000000000000000000000000",
                    "decodedMethod": {
                        "callParams": [
                            {
                                "name": "tokenOwner",
                                "type": "address",
                                "value": "0xe88c24b71d8463e4c84f63155f2477ebcd0f65bf"
                            },
                            {
                                "name": "spender",
                                "type": "address",
                                "value": "0xa5407eae9ba41422680e2e00537571bcc53efbfd"
                            },
                            {
                                "name": "value",
                                "type": "uint256",
                                "value": "0"
                            }
                        ],
                        "constructorArguments": "",
                        "name": "setAllowance",
                        "returnParams": [],
                        "signature": "setAllowance(address,address,uint256)"
                    },
                    "errorInfo": "",
                    "fromAddress": "0xae38b81459d74a8c16eaa968c792207603d84480",
                    "gasUsed": 2342,
                    "id": 20,
                    "methodDecoded": true,
                    "operation": "CALL",
                    "output": "",
                    "revert": false,
                    "revertMessage": "",
                    "selector": "0xda46098c",
                    "status": true,
                    "value": "0"
                },
                "nodeType": 0
            },
            "21": {
                "invocation": {
                    "address": "0x05a9cbe762b36632b3594da4f082340e0e5343e8",
                    "callData": "0x000000000000000000000000e88c24b71d8463e4c84f63155f2477ebcd0f65bf",
                    "decodedMethod": {
                        "callParams": [
                            {
                                "name": "",
                                "type": "address",
                                "value": "0xe88c24b71d8463e4c84f63155f2477ebcd0f65bf"
                            }
                        ],
                        "constructorArguments": "",
                        "name": "balanceOf",
                        "returnParams": [
                            {
                                "decimalAvailable": true,
                                "name": "",
                                "type": "uint256",
                                "value": "0"
                            }
                        ],
                        "signature": "balanceOf(address)"
                    },
                    "errorInfo": "",
                    "fromAddress": "0xae38b81459d74a8c16eaa968c792207603d84480",
                    "gasUsed": 1197,
                    "id": 21,
                    "methodDecoded": true,
                    "operation": "CALL",
                    "output": "0x0000000000000000000000000000000000000000000000000000000000000000",
                    "revert": false,
                    "revertMessage": "",
                    "selector": "0x70a08231",
                    "status": true,
                    "value": "0"
                },
                "nodeType": 0
            },
            "22": {
                "invocation": {
                    "address": "0x05a9cbe762b36632b3594da4f082340e0e5343e8",
                    "callData": "0x000000000000000000000000e88c24b71d8463e4c84f63155f2477ebcd0f65bf0000000000000000000000000000000000000000000000000000000000000000",
                    "decodedMethod": {
                        "callParams": [
                            {
                                "name": "account",
                                "type": "address",
                                "value": "0xe88c24b71d8463e4c84f63155f2477ebcd0f65bf"
                            },
                            {
                                "name": "value",
                                "type": "uint256",
                                "value": "0"
                            }
                        ],
                        "constructorArguments": "",
                        "name": "setBalanceOf",
                        "returnParams": [],
                        "signature": "setBalanceOf(address,uint256)"
                    },
                    "errorInfo": "",
                    "fromAddress": "0xae38b81459d74a8c16eaa968c792207603d84480",
                    "gasUsed": 2218,
                    "id": 22,
                    "methodDecoded": true,
                    "operation": "CALL",
                    "output": "",
                    "revert": false,
                    "revertMessage": "",
                    "selector": "0xb46310f6",
                    "status": true,
                    "value": "0"
                },
                "nodeType": 0
            },
            "23": {
                "invocation": {
                    "address": "0x05a9cbe762b36632b3594da4f082340e0e5343e8",
                    "callData": "0x000000000000000000000000a5407eae9ba41422680e2e00537571bcc53efbfd",
                    "decodedMethod": {
                        "callParams": [
                            {
                                "name": "",
                                "type": "address",
                                "value": "0xa5407eae9ba41422680e2e00537571bcc53efbfd"
                            }
                        ],
                        "constructorArguments": "",
                        "name": "balanceOf",
                        "returnParams": [
                            {
                                "decimalAvailable": true,
                                "name": "",
                                "type": "uint256",
                                "value": "7,188,776,830,281,723,133,671,026"
                            }
                        ],
                        "signature": "balanceOf(address)"
                    },
                    "errorInfo": "",
                    "fromAddress": "0xae38b81459d74a8c16eaa968c792207603d84480",
                    "gasUsed": 1197,
                    "id": 23,
                    "methodDecoded": true,
                    "operation": "CALL",
                    "output": "0x00000000000000000000000000000000000000000005f2485f72c9364e81b672",
                    "revert": false,
                    "revertMessage": "",
                    "selector": "0x70a08231",
                    "status": true,
                    "value": "0"
                },
                "nodeType": 0
            },
            "24": {
                "invocation": {
                    "address": "0x05a9cbe762b36632b3594da4f082340e0e5343e8",
                    "callData": "0x000000000000000000000000a5407eae9ba41422680e2e00537571bcc53efbfd00000000000000000000000000000000000000000005f2485f72c9364e81b672",
                    "decodedMethod": {
                        "callParams": [
                            {
                                "name": "account",
                                "type": "address",
                                "value": "0xa5407eae9ba41422680e2e00537571bcc53efbfd"
                            },
                            {
                                "name": "value",
                                "type": "uint256",
                                "value": "7,188,776,830,281,723,133,671,026"
                            }
                        ],
                        "constructorArguments": "",
                        "name": "setBalanceOf",
                        "returnParams": [],
                        "signature": "setBalanceOf(address,uint256)"
                    },
                    "errorInfo": "",
                    "fromAddress": "0xae38b81459d74a8c16eaa968c792207603d84480",
                    "gasUsed": 2218,
                    "id": 24,
                    "methodDecoded": true,
                    "operation": "CALL",
                    "output": "",
                    "revert": false,
                    "revertMessage": "",
                    "selector": "0xb46310f6",
                    "status": true,
                    "value": "0"
                },
                "nodeType": 0
            },
            "25": {
                "invocation": {
                    "address": "0x57ab1ec28d129707052df4df418d58a2d46d5f51",
                    "callData": "0x00000000000000000000000000000000000000000000000000000000000000c00000000000000000000000000000000000000000000000000000000000000003ddf252ad1be2c89b69c2b068fc378daa952ba7f163c4a11628f55a4df523b3ef000000000000000000000000e88c24b71d8463e4c84f63155f2477ebcd0f65bf000000000000000000000000a5407eae9ba41422680e2e00537571bcc53efbfd000000000000000000000000000000000000000000000000000000000000000000000000000000000000000000000000000000000000000000000000000000200000000000000000000000000000000000000000000000000000000000000000",
                    "decodedMethod": {
                        "callParams": [
                            {
                                "name": "callData",
                                "type": "bytes",
                                "value": "0x0000000000000000000000000000000000000000000000000000000000000000"
                            },
                            {
                                "name": "numTopics",
                                "type": "uint256",
                                "value": "3"
                            },
                            {
                                "name": "topic1",
                                "type": "bytes32",
                                "value": "0xddf252ad1be2c89b69c2b068fc378daa952ba7f163c4a11628f55a4df523b3ef"
                            },
                            {
                                "name": "topic2",
                                "type": "bytes32",
                                "value": "0x000000000000000000000000e88c24b71d8463e4c84f63155f2477ebcd0f65bf"
                            },
                            {
                                "name": "topic3",
                                "type": "bytes32",
                                "value": "0x000000000000000000000000a5407eae9ba41422680e2e00537571bcc53efbfd"
                            },
                            {
                                "name": "topic4",
                                "type": "bytes32",
                                "value": "0x0000000000000000000000000000000000000000000000000000000000000000"
                            }
                        ],
                        "constructorArguments": "",
                        "name": "_emit",
                        "returnParams": [],
                        "signature": "_emit(bytes,uint256,bytes32,bytes32,bytes32,bytes32)"
                    },
                    "errorInfo": "",
                    "fromAddress": "0xae38b81459d74a8c16eaa968c792207603d84480",
                    "gasUsed": 3406,
                    "id": 25,
                    "methodDecoded": true,
                    "operation": "CALL",
                    "output": "",
                    "revert": false,
                    "revertMessage": "",
                    "selector": "0x907dff97",
                    "status": true,
                    "value": "0"
                },
                "nodeType": 0
            },
            "26": {
                "event": {
                    "contract": "0x57ab1ec28d129707052df4df418d58a2d46d5f51",
                    "decodedLog": {
                        "name": "Transfer",
                        "params": [
                            {
                                "name": "from",
                                "type": "address",
                                "value": "0xe88c24b71d8463e4c84f63155f2477ebcd0f65bf"
                            },
                            {
                                "name": "to",
                                "type": "address",
                                "value": "0xa5407eae9ba41422680e2e00537571bcc53efbfd"
                            },
                            {
                                "decimalAvailable": true,
                                "name": "value",
                                "type": "uint256",
                                "value": "0"
                            }
                        ],
                        "signature": "Transfer(address,address,uint256)"
                    },
                    "id": 26,
                    "logData": "0x0000000000000000000000000000000000000000000000000000000000000000",
                    "logDecoded": true,
                    "operation": "EVENT",
                    "revert": false,
                    "status": true,
                    "topics": [
                        "0xddf252ad1be2c89b69c2b068fc378daa952ba7f163c4a11628f55a4df523b3ef",
                        "0x000000000000000000000000e88c24b71d8463e4c84f63155f2477ebcd0f65bf",
                        "0x000000000000000000000000a5407eae9ba41422680e2e00537571bcc53efbfd"
                    ]
                },
                "nodeType": 1
            },
            "27": {
                "invocation": {
                    "address": "0xc25a3a3b969415c80451098fa907ec722572917f",
                    "callData": "0x000000000000000000000000e88c24b71d8463e4c84f63155f2477ebcd0f65bf000000000000000000000000000000000000000000000141492b79f6c234d2d9",
                    "decodedMethod": {
                        "callParams": [
                            {
                                "name": "to",
                                "type": "address",
                                "value": "0xe88c24b71d8463e4c84f63155f2477ebcd0f65bf"
                            },
                            {
                                "name": "amount",
                                "type": "uint256",
                                "value": "5,926,677,289,550,260,523,737"
                            }
                        ],
                        "constructorArguments": "",
                        "name": "mint",
                        "returnParams": [],
                        "signature": "mint(address,uint256)"
                    },
                    "errorInfo": "",
                    "fromAddress": "0xa5407eae9ba41422680e2e00537571bcc53efbfd",
                    "gasUsed": 29806,
                    "id": 27,
                    "methodDecoded": true,
                    "operation": "CALL",
                    "output": "",
                    "revert": false,
                    "revertMessage": "",
                    "selector": "0x40c10f19",
                    "status": true,
                    "value": "0"
                },
                "nodeType": 0
            },
            "28": {
                "event": {
                    "contract": "0xc25a3a3b969415c80451098fa907ec722572917f",
                    "decodedLog": {
                        "name": "Transfer",
                        "params": [
                            {
                                "name": "from",
                                "type": "address",
                                "value": "0x0000000000000000000000000000000000000000"
                            },
                            {
                                "name": "to",
                                "type": "address",
                                "value": "0xe88c24b71d8463e4c84f63155f2477ebcd0f65bf"
                            },
                            {
                                "decimalAvailable": true,
                                "name": "value",
                                "type": "uint256",
                                "value": "5,926,677,289,550,260,523,737"
                            }
                        ],
                        "signature": "Transfer(address,address,uint256)"
                    },
                    "id": 28,
                    "logData": "0x000000000000000000000000000000000000000000000141492b79f6c234d2d9",
                    "logDecoded": true,
                    "operation": "EVENT",
                    "revert": false,
                    "status": true,
                    "topics": [
                        "0xddf252ad1be2c89b69c2b068fc378daa952ba7f163c4a11628f55a4df523b3ef",
                        "0x0000000000000000000000000000000000000000000000000000000000000000",
                        "0x000000000000000000000000e88c24b71d8463e4c84f63155f2477ebcd0f65bf"
                    ]
                },
                "nodeType": 1
            },
            "29": {
                "event": {
                    "contract": "0xa5407eae9ba41422680e2e00537571bcc53efbfd",
                    "decodedLog": {
                        "name": "AddLiquidity",
                        "params": [
                            {
                                "name": "provider",
                                "type": "address",
                                "value": "0xe88c24b71d8463e4c84f63155f2477ebcd0f65bf"
                            },
                            {
                                "name": "token_amounts",
                                "type": "uint256[4]",
                                "value": [
                                    "0",
                                    "0",
                                    "6,067,019,801",
                                    "0"
                                ]
                            },
                            {
                                "name": "fees",
                                "type": "uint256[4]",
                                "value": [
                                    "107,657,181,997,233,098",
                                    "265,421",
                                    "505,234",
                                    "128,212,668,677,268,678"
                                ]
                            },
                            {
                                "name": "invariant",
                                "type": "uint256",
                                "value": "45,088,601,068,614,624,110,827,219"
                            },
                            {
                                "name": "token_supply",
                                "type": "uint256",
                                "value": "44,320,473,068,099,158,310,256,515"
                            }
                        ],
                        "signature": "AddLiquidity(address,uint256[4],uint256[4],uint256,uint256)"
                    },
                    "id": 29,
                    "logData": "0x0000000000000000000000000000000000000000000000000000000000000000000000000000000000000000000000000000000000000000000000000000000000000000000000000000000000000000000000000000000000000001699f60190000000000000000000000000000000000000000000000000000000000000000000000000000000000000000000000000000000000000000017e79a2fa76f3ca0000000000000000000000000000000000000000000000000000000000040ccd000000000000000000000000000000000000000000000000000000000007b59200000000000000000000000000000000000000000000000001c780be2c36a4c6000000000000000000000000000000000000000000254be1f62e7230e649d6d300000000000000000000000000000000000000000024a939a8c7f1f11859ff83",
                    "logDecoded": true,
                    "operation": "EVENT",
                    "revert": false,
                    "status": true,
                    "topics": [
                        "0x3f1915775e0c9a38a57a7bb7f1f9005f486fb904e1f84aa215364d567319a58d",
                        "0x000000000000000000000000e88c24b71d8463e4c84f63155f2477ebcd0f65bf"
                    ]
                },
                "nodeType": 1
            },
            "3": {
                "event": {
                    "contract": "0x6b175474e89094c44da98b954eedeac495271d0f",
                    "decodedLog": {
                        "name": "Transfer",
                        "params": [
                            {
                                "name": "src",
                                "type": "address",
                                "value": "0xe88c24b71d8463e4c84f63155f2477ebcd0f65bf"
                            },
                            {
                                "name": "dst",
                                "type": "address",
                                "value": "0xa5407eae9ba41422680e2e00537571bcc53efbfd"
                            },
                            {
                                "decimalAvailable": true,
                                "name": "wad",
                                "type": "uint256",
                                "value": "0"
                            }
                        ],
                        "signature": "Transfer(address,address,uint256)"
                    },
                    "id": 3,
                    "logData": "0x0000000000000000000000000000000000000000000000000000000000000000",
                    "logDecoded": true,
                    "operation": "EVENT",
                    "revert": false,
                    "status": true,
                    "topics": [
                        "0xddf252ad1be2c89b69c2b068fc378daa952ba7f163c4a11628f55a4df523b3ef",
                        "0x000000000000000000000000e88c24b71d8463e4c84f63155f2477ebcd0f65bf",
                        "0x000000000000000000000000a5407eae9ba41422680e2e00537571bcc53efbfd"
                    ]
                },
                "nodeType": 1
            },
            "4": {
                "invocation": {
                    "address": "0xa0b86991c6218b36c1d19d4a2e9eb0ce3606eb48",
                    "callData": "0x000000000000000000000000e88c24b71d8463e4c84f63155f2477ebcd0f65bf000000000000000000000000a5407eae9ba41422680e2e00537571bcc53efbfd0000000000000000000000000000000000000000000000000000000000000000",
                    "decodedMethod": {
                        "callParams": [
                            {
                                "name": "_from",
                                "type": "address",
                                "value": "0xe88c24b71d8463e4c84f63155f2477ebcd0f65bf"
                            },
                            {
                                "name": "_to",
                                "type": "address",
                                "value": "0xa5407eae9ba41422680e2e00537571bcc53efbfd"
                            },
                            {
                                "decimalAvailable": true,
                                "name": "_value",
                                "type": "uint256",
                                "value": "0"
                            }
                        ],
                        "constructorArguments": "",
                        "name": "transferFrom",
                        "returnParams": [
                            {
                                "name": "",
                                "type": "bool",
                                "value": true
                            }
                        ],
                        "signature": "transferFrom(address,address,uint256)"
                    },
                    "errorInfo": "",
                    "fromAddress": "0xa5407eae9ba41422680e2e00537571bcc53efbfd",
                    "gasUsed": 16732,
                    "id": 4,
                    "methodDecoded": true,
                    "operation": "CALL",
                    "output": "0x0000000000000000000000000000000000000000000000000000000000000001",
                    "revert": false,
                    "revertMessage": "",
                    "selector": "0x23b872dd",
                    "status": true,
                    "value": "0"
                },
                "nodeType": 0
            },
            "5": {
                "invocation": {
                    "address": "0x0882477e7895bdc5cea7cb1552ed914ab157fe56",
                    "callData": "0x000000000000000000000000e88c24b71d8463e4c84f63155f2477ebcd0f65bf000000000000000000000000a5407eae9ba41422680e2e00537571bcc53efbfd0000000000000000000000000000000000000000000000000000000000000000",
                    "decodedMethod": {
                        "callParams": [
                            {
                                "name": "_from",
                                "type": "address",
                                "value": "0xe88c24b71d8463e4c84f63155f2477ebcd0f65bf"
                            },
                            {
                                "name": "_to",
                                "type": "address",
                                "value": "0xa5407eae9ba41422680e2e00537571bcc53efbfd"
                            },
                            {
                                "decimalAvailable": true,
                                "name": "_value",
                                "type": "uint256",
                                "value": "0"
                            }
                        ],
                        "constructorArguments": "",
                        "name": "transferFrom",
                        "returnParams": [
                            {
                                "name": "",
                                "type": "bool",
                                "value": true
                            }
                        ],
                        "signature": "transferFrom(address,address,uint256)"
                    },
                    "errorInfo": "",
                    "fromAddress": "0xa0b86991c6218b36c1d19d4a2e9eb0ce3606eb48",
                    "gasUsed": 13937,
                    "id": 5,
                    "methodDecoded": true,
                    "operation": "DELEGATECALL",
                    "output": "0x0000000000000000000000000000000000000000000000000000000000000001",
                    "revert": false,
                    "revertMessage": "",
                    "selector": "0x23b872dd",
                    "status": true,
                    "value": "0"
                },
                "nodeType": 0
            },
            "6": {
                "event": {
                    "contract": "0xa0b86991c6218b36c1d19d4a2e9eb0ce3606eb48",
                    "decodedLog": {
                        "name": "Transfer",
                        "params": [
                            {
                                "name": "from",
                                "type": "address",
                                "value": "0xe88c24b71d8463e4c84f63155f2477ebcd0f65bf"
                            },
                            {
                                "name": "to",
                                "type": "address",
                                "value": "0xa5407eae9ba41422680e2e00537571bcc53efbfd"
                            },
                            {
                                "decimalAvailable": true,
                                "name": "value",
                                "type": "uint256",
                                "value": "0"
                            }
                        ],
                        "signature": "Transfer(address,address,uint256)"
                    },
                    "id": 6,
                    "logData": "0x0000000000000000000000000000000000000000000000000000000000000000",
                    "logDecoded": true,
                    "operation": "EVENT",
                    "revert": false,
                    "status": true,
                    "topics": [
                        "0xddf252ad1be2c89b69c2b068fc378daa952ba7f163c4a11628f55a4df523b3ef",
                        "0x000000000000000000000000e88c24b71d8463e4c84f63155f2477ebcd0f65bf",
                        "0x000000000000000000000000a5407eae9ba41422680e2e00537571bcc53efbfd"
                    ]
                },
                "nodeType": 1
            },
            "7": {
                "invocation": {
                    "address": "0xdac17f958d2ee523a2206206994597c13d831ec7",
                    "callData": "0x000000000000000000000000e88c24b71d8463e4c84f63155f2477ebcd0f65bf000000000000000000000000a5407eae9ba41422680e2e00537571bcc53efbfd00000000000000000000000000000000000000000000000000000001699f6019",
                    "decodedMethod": {
                        "callParams": [
                            {
                                "name": "_from",
                                "type": "address",
                                "value": "0xe88c24b71d8463e4c84f63155f2477ebcd0f65bf"
                            },
                            {
                                "name": "_to",
                                "type": "address",
                                "value": "0xa5407eae9ba41422680e2e00537571bcc53efbfd"
                            },
                            {
                                "decimalAvailable": true,
                                "name": "_value",
                                "type": "uint256",
                                "value": "6,067,019,801"
                            }
                        ],
                        "constructorArguments": "",
                        "name": "transferFrom",
                        "returnParams": [],
                        "signature": "transferFrom(address,address,uint256)"
                    },
                    "errorInfo": "",
                    "fromAddress": "0xa5407eae9ba41422680e2e00537571bcc53efbfd",
                    "gasUsed": 25624,
                    "id": 7,
                    "methodDecoded": true,
                    "operation": "CALL",
                    "output": "",
                    "revert": false,
                    "revertMessage": "",
                    "selector": "0x23b872dd",
                    "status": true,
                    "value": "0"
                },
                "nodeType": 0
            },
            "8": {
                "event": {
                    "contract": "0xdac17f958d2ee523a2206206994597c13d831ec7",
                    "decodedLog": {
                        "name": "Transfer",
                        "params": [
                            {
                                "name": "from",
                                "type": "address",
                                "value": "0xe88c24b71d8463e4c84f63155f2477ebcd0f65bf"
                            },
                            {
                                "name": "to",
                                "type": "address",
                                "value": "0xa5407eae9ba41422680e2e00537571bcc53efbfd"
                            },
                            {
                                "decimalAvailable": true,
                                "name": "value",
                                "type": "uint256",
                                "value": "6,067,019,801"
                            }
                        ],
                        "signature": "Transfer(address,address,uint256)"
                    },
                    "id": 8,
                    "logData": "0x00000000000000000000000000000000000000000000000000000001699f6019",
                    "logDecoded": true,
                    "operation": "EVENT",
                    "revert": false,
                    "status": true,
                    "topics": [
                        "0xddf252ad1be2c89b69c2b068fc378daa952ba7f163c4a11628f55a4df523b3ef",
                        "0x000000000000000000000000e88c24b71d8463e4c84f63155f2477ebcd0f65bf",
                        "0x000000000000000000000000a5407eae9ba41422680e2e00537571bcc53efbfd"
                    ]
                },
                "nodeType": 1
            },
            "9": {
                "invocation": {
                    "address": "0x57ab1ec28d129707052df4df418d58a2d46d5f51",
                    "callData": "0x000000000000000000000000e88c24b71d8463e4c84f63155f2477ebcd0f65bf000000000000000000000000a5407eae9ba41422680e2e00537571bcc53efbfd0000000000000000000000000000000000000000000000000000000000000000",
                    "decodedMethod": {
                        "callParams": [
                            {
                                "name": "from",
                                "type": "address",
                                "value": "0xe88c24b71d8463e4c84f63155f2477ebcd0f65bf"
                            },
                            {
                                "name": "to",
                                "type": "address",
                                "value": "0xa5407eae9ba41422680e2e00537571bcc53efbfd"
                            },
                            {
                                "decimalAvailable": true,
                                "name": "value",
                                "type": "uint256",
                                "value": "0"
                            }
                        ],
                        "constructorArguments": "",
                        "name": "transferFrom",
                        "returnParams": [
                            {
                                "name": "",
                                "type": "bool",
                                "value": true
                            }
                        ],
                        "signature": "transferFrom(address,address,uint256)"
                    },
                    "errorInfo": "",
                    "fromAddress": "0xa5407eae9ba41422680e2e00537571bcc53efbfd",
                    "gasUsed": 74532,
                    "id": 9,
                    "methodDecoded": true,
                    "operation": "CALL",
                    "output": "0x0000000000000000000000000000000000000000000000000000000000000001",
                    "revert": false,
                    "revertMessage": "",
                    "selector": "0x23b872dd",
                    "status": true,
                    "value": "0"
                },
                "nodeType": 0
            }
        },
        "gasFlame": [
            {
                "children": [
                    {
                        "children": [
                            {
                                "children": [],
                                "depth": 0,
                                "name": "Initial Gas",
                                "value": 21884
                            },
                            {
                                "children": [
                                    {
                                        "children": [],
                                        "depth": 1,
                                        "name": "totalSupply",
                                        "value": 991
                                    },
                                    {
                                        "children": [],
                                        "depth": 1,
                                        "name": "transferFrom",
                                        "value": 11075
                                    },
                                    {
                                        "children": [
                                            {
                                                "children": [],
                                                "depth": 2,
                                                "name": "transferFrom",
                                                "value": 13937
                                            }
                                        ],
                                        "depth": 1,
                                        "name": "transferFrom",
                                        "value": 16732
                                    },
                                    {
                                        "children": [],
                                        "depth": 1,
                                        "name": "transferFrom",
                                        "value": 25624
                                    },
                                    {
                                        "children": [
                                            {
                                                "children": [],
                                                "depth": 2,
                                                "name": "setMessageSender",
                                                "value": 3637
                                            },
                                            {
                                                "children": [
                                                    {
                                                        "children": [
                                                            {
                                                                "children": [],
                                                                "depth": 4,
                                                                "name": "getMaxTimestamp",
                                                                "value": 1619
                                                            }
                                                        ],
                                                        "depth": 3,
                                                        "name": "maxSecsLeftInWaitingPeriod",
                                                        "value": 4755
                                                    },
                                                    {
                                                        "children": [
                                                            {
                                                                "children": [],
                                                                "depth": 4,
                                                                "name": "getLengthOfEntries",
                                                                "value": 1510
                                                            }
                                                        ],
                                                        "depth": 3,
                                                        "name": "settlementOwing",
                                                        "value": 4894
                                                    },
                                                    {
                                                        "children": [],
                                                        "depth": 3,
                                                        "name": "balanceOf",
                                                        "value": 1197
                                                    },
                                                    {
                                                        "children": [],
                                                        "depth": 3,
                                                        "name": "requireSynthActive",
                                                        "value": 2314
                                                    },
                                                    {
                                                        "children": [],
                                                        "depth": 3,
                                                        "name": "allowance",
                                                        "value": 1416
                                                    },
                                                    {
                                                        "children": [],
                                                        "depth": 3,
                                                        "name": "allowance",
                                                        "value": 1416
                                                    },
                                                    {
                                                        "children": [],
                                                        "depth": 3,
                                                        "name": "setAllowance",
                                                        "value": 2342
                                                    },
                                                    {
                                                        "children": [],
                                                        "depth": 3,
                                                        "name": "balanceOf",
                                                        "value": 1197
                                                    },
                                                    {
                                                        "children": [],
                                                        "depth": 3,
                                                        "name": "setBalanceOf",
                                                        "value": 2218
                                                    },
                                                    {
                                                        "children": [],
                                                        "depth": 3,
                                                        "name": "balanceOf",
                                                        "value": 1197
                                                    },
                                                    {
                                                        "children": [],
                                                        "depth": 3,
                                                        "name": "setBalanceOf",
                                                        "value": 2218
                                                    },
                                                    {
                                                        "children": [],
                                                        "depth": 3,
                                                        "name": "_emit",
                                                        "value": 3406
                                                    }
                                                ],
                                                "depth": 2,
                                                "name": "transferFrom",
                                                "value": 65457
                                            }
                                        ],
                                        "depth": 1,
                                        "name": "transferFrom",
                                        "value": 74532
                                    },
                                    {
                                        "children": [],
                                        "depth": 1,
                                        "name": "mint",
                                        "value": 29806
                                    }
                                ],
                                "depth": 0,
                                "name": "Executed Gas",
                                "value": 320330
                            }
                        ],
                        "depth": -1,
                        "name": "Actual Gas Used",
                        "value": 293014
                    },
                    {
                        "children": [],
                        "depth": -1,
                        "name": "Refunded Gas",
                        "value": 49200
                    }
                ],
                "depth": -2,
                "name": "Total Gas",
                "value": 342214
            }
        ],
        "isConfirmed": true,
        "mainTrace": [
            {
                "children": [
                    {
                        "children": [
                            {
                                "children": [],
                                "depth": 1,
                                "id": 1,
                                "order": 1
                            },
                            {
                                "children": [
                                    {
                                        "children": [],
                                        "depth": 2,
                                        "id": 3,
                                        "order": 3
                                    }
                                ],
                                "depth": 1,
                                "id": 2,
                                "order": 2
                            },
                            {
                                "children": [
                                    {
                                        "children": [
                                            {
                                                "children": [],
                                                "depth": 3,
                                                "id": 6,
                                                "order": 6
                                            }
                                        ],
                                        "depth": 2,
                                        "id": 5,
                                        "order": 5
                                    }
                                ],
                                "depth": 1,
                                "id": 4,
                                "order": 4
                            },
                            {
                                "children": [
                                    {
                                        "children": [],
                                        "depth": 2,
                                        "id": 8,
                                        "order": 8
                                    }
                                ],
                                "depth": 1,
                                "id": 7,
                                "order": 7
                            },
                            {
                                "children": [
                                    {
                                        "children": [],
                                        "depth": 2,
                                        "id": 10,
                                        "order": 10
                                    },
                                    {
                                        "children": [
                                            {
                                                "children": [
                                                    {
                                                        "children": [],
                                                        "depth": 4,
                                                        "id": 13,
                                                        "order": 13
                                                    }
                                                ],
                                                "depth": 3,
                                                "id": 12,
                                                "order": 12
                                            },
                                            {
                                                "children": [
                                                    {
                                                        "children": [],
                                                        "depth": 4,
                                                        "id": 15,
                                                        "order": 15
                                                    }
                                                ],
                                                "depth": 3,
                                                "id": 14,
                                                "order": 14
                                            },
                                            {
                                                "children": [],
                                                "depth": 3,
                                                "id": 16,
                                                "order": 16
                                            },
                                            {
                                                "children": [],
                                                "depth": 3,
                                                "id": 17,
                                                "order": 17
                                            },
                                            {
                                                "children": [],
                                                "depth": 3,
                                                "id": 18,
                                                "order": 18
                                            },
                                            {
                                                "children": [],
                                                "depth": 3,
                                                "id": 19,
                                                "order": 19
                                            },
                                            {
                                                "children": [],
                                                "depth": 3,
                                                "id": 20,
                                                "order": 20
                                            },
                                            {
                                                "children": [],
                                                "depth": 3,
                                                "id": 21,
                                                "order": 21
                                            },
                                            {
                                                "children": [],
                                                "depth": 3,
                                                "id": 22,
                                                "order": 22
                                            },
                                            {
                                                "children": [],
                                                "depth": 3,
                                                "id": 23,
                                                "order": 23
                                            },
                                            {
                                                "children": [],
                                                "depth": 3,
                                                "id": 24,
                                                "order": 24
                                            },
                                            {
                                                "children": [
                                                    {
                                                        "children": [],
                                                        "depth": 4,
                                                        "id": 26,
                                                        "order": 26
                                                    }
                                                ],
                                                "depth": 3,
                                                "id": 25,
                                                "order": 25
                                            }
                                        ],
                                        "depth": 2,
                                        "id": 11,
                                        "order": 11
                                    }
                                ],
                                "depth": 1,
                                "id": 9,
                                "order": 9
                            },
                            {
                                "children": [
                                    {
                                        "children": [],
                                        "depth": 2,
                                        "id": 28,
                                        "order": 28
                                    }
                                ],
                                "depth": 1,
                                "id": 27,
                                "order": 27
                            },
                            {
                                "children": [],
                                "depth": 1,
                                "id": 29,
                                "order": 29
                            }
                        ],
                        "depth": 0,
                        "id": 0,
                        "order": 0
                    }
                ],
                "depth": -1,
                "id": -1,
                "order": -1
            }
        ],
        "mainTraceNodeCount": 30,
        "parentIdMap": {
            "0": -1,
            "1": 0,
            "10": 9,
            "11": 9,
            "12": 11,
            "13": 12,
            "14": 11,
            "15": 14,
            "16": 11,
            "17": 11,
            "18": 11,
            "19": 11,
            "2": 0,
            "20": 11,
            "21": 11,
            "22": 11,
            "23": 11,
            "24": 11,
            "25": 11,
            "26": 25,
            "27": 0,
            "28": 27,
            "29": 0,
            "3": 2,
            "4": 0,
            "5": 4,
            "6": 5,
            "7": 0,
            "8": 7,
            "9": 0
        },
        "tidyTrace": [
            {
                "children": [
                    {
                        "children": [
                            {
                                "children": [
                                    {
                                        "children": [],
                                        "depth": 2,
                                        "id": 3,
                                        "order": 3
                                    }
                                ],
                                "depth": 1,
                                "id": 2,
                                "order": 2
                            },
                            {
                                "children": [
                                    {
                                        "children": [
                                            {
                                                "children": [],
                                                "depth": 3,
                                                "id": 6,
                                                "order": 6
                                            }
                                        ],
                                        "depth": 2,
                                        "id": 5,
                                        "order": 5
                                    }
                                ],
                                "depth": 1,
                                "id": 4,
                                "order": 4
                            },
                            {
                                "children": [
                                    {
                                        "children": [],
                                        "depth": 2,
                                        "id": 8,
                                        "order": 8
                                    }
                                ],
                                "depth": 1,
                                "id": 7,
                                "order": 7
                            },
                            {
                                "children": [
                                    {
                                        "children": [],
                                        "depth": 2,
                                        "id": 10,
                                        "order": 10
                                    },
                                    {
                                        "children": [
                                            {
                                                "children": [],
                                                "depth": 3,
                                                "id": 12,
                                                "order": 12
                                            },
                                            {
                                                "children": [],
                                                "depth": 3,
                                                "id": 14,
                                                "order": 14
                                            },
                                            {
                                                "children": [],
                                                "depth": 3,
                                                "id": 16,
                                                "order": 16
                                            },
                                            {
                                                "children": [],
                                                "depth": 3,
                                                "id": 17,
                                                "order": 17
                                            },
                                            {
                                                "children": [],
                                                "depth": 3,
                                                "id": 18,
                                                "order": 18
                                            },
                                            {
                                                "children": [],
                                                "depth": 3,
                                                "id": 19,
                                                "order": 19
                                            },
                                            {
                                                "children": [],
                                                "depth": 3,
                                                "id": 20,
                                                "order": 20
                                            },
                                            {
                                                "children": [],
                                                "depth": 3,
                                                "id": 21,
                                                "order": 21
                                            },
                                            {
                                                "children": [],
                                                "depth": 3,
                                                "id": 22,
                                                "order": 22
                                            },
                                            {
                                                "children": [],
                                                "depth": 3,
                                                "id": 23,
                                                "order": 23
                                            },
                                            {
                                                "children": [],
                                                "depth": 3,
                                                "id": 24,
                                                "order": 24
                                            },
                                            {
                                                "children": [
                                                    {
                                                        "children": [],
                                                        "depth": 4,
                                                        "id": 26,
                                                        "order": 26
                                                    }
                                                ],
                                                "depth": 3,
                                                "id": 25,
                                                "order": 25
                                            }
                                        ],
                                        "depth": 2,
                                        "id": 11,
                                        "order": 11
                                    }
                                ],
                                "depth": 1,
                                "id": 9,
                                "order": 9
                            },
                            {
                                "children": [
                                    {
                                        "children": [],
                                        "depth": 2,
                                        "id": 28,
                                        "order": 28
                                    }
                                ],
                                "depth": 1,
                                "id": 27,
                                "order": 27
                            },
                            {
                                "children": [],
                                "depth": 1,
                                "id": 29,
                                "order": 29
                            }
                        ],
                        "depth": 0,
                        "id": 0,
                        "order": 0
                    }
                ],
                "depth": -1,
                "id": -1,
                "order": -1
            }
        ],
        "tidyTraceNodeCount": 27
    },
    "state_change": {
        "stateChanges": [
            {
                "address": "0xa5407eae9ba41422680e2e00537571bcc53efbfd",
                "erc": "",
                "slots": [
                    {
                        "current": "0x00000000000000000000000000000000000000000000000000000f7e1e400949",
                        "key": "0x405787fa12a823e0f2b7631cc41b3ba8828b3321ca811111fa75cd3aa3bb5ad0",
                        "prev": "0x00000000000000000000000000000000000000000000000000000f7cb4a0a930"
                    }
                ],
                "storageVariables": []
            },
            {
                "address": "0xc25a3a3b969415c80451098fa907ec722572917f",
                "erc": "",
                "slots": [
                    {
                        "current": "0x00000000000000000000000000000000000000000024a939a8c7f1f11859ff83",
                        "key": "0x0000000000000000000000000000000000000000000000000000000000000005",
                        "prev": "0x00000000000000000000000000000000000000000024a7f85f9c77fa56252caa"
                    },
                    {
                        "current": "0x000000000000000000000000000000000000000000000141492b79f6c234d2d9",
                        "key": "0xd80d1adb22881f87815dffd4af82ad794b944dde6d28bbca71c3a2b044de6efa",
                        "prev": "0x0000000000000000000000000000000000000000000000000000000000000000"
                    }
                ],
                "storageVariables": []
            },
            {
                "address": "0xdac17f958d2ee523a2206206994597c13d831ec7",
                "erc": "ERC-20",
                "slots": [
                    {
                        "current": "0x0000000000000000000000000000000000000000000000000000000000000000",
                        "key": "0xa81fdfac11971717cf8fbd91f27478e67dfa725cc2bab10e21698d2e369505f7",
                        "prev": "0x00000000000000000000000000000000000000000000000000000001699f6019"
                    },
                    {
                        "current": "0x0000000000000000000000000000000000000000000000000000000000000000",
                        "key": "0xda8d6b80a6c766d74cc107c415afab6b671968354f37f540bfdf36926cebd4c0",
                        "prev": "0x00000000000000000000000000000000000000000000000000000001699f6019"
                    },
                    {
                        "current": "0x00000000000000000000000000000000000000000000000000000f7e1e402d19",
                        "key": "0xbc54c08ac387badf49368c31d70e2fc9b48a8d3e6119a61677a33e48f985e726",
                        "prev": "0x00000000000000000000000000000000000000000000000000000f7cb4a0cd00"
                    }
                ],
                "storageVariables": [
                    {
                        "name": "allowed",
                        "type": "mapping(address => mapping(address => uint256))",
                        "value": {
                            "pairs": [
                                {
                                    "key": "0xe88c24b71d8463e4c84f63155f2477ebcd0f65bf",
                                    "value": {
                                        "pairs": [
                                            {
                                                "key": "0xa5407eae9ba41422680e2e00537571bcc53efbfd",
                                                "value": {
                                                    "current": "0",
                                                    "prev": "6067019801",
                                                    "typeTag": 1
                                                }
                                            }
                                        ],
                                        "typeTag": 4
                                    }
                                }
                            ],
                            "typeTag": 4
                        }
                    },
                    {
                        "name": "balances",
                        "type": "mapping(address => uint256)",
                        "value": {
                            "pairs": [
                                {
                                    "key": "0xa5407eae9ba41422680e2e00537571bcc53efbfd",
                                    "value": {
                                        "current": "17034347818265",
                                        "prev": "17028280798464",
                                        "typeTag": 1
                                    }
                                },
                                {
                                    "key": "0xe88c24b71d8463e4c84f63155f2477ebcd0f65bf",
                                    "value": {
                                        "current": "0",
                                        "prev": "6067019801",
                                        "typeTag": 1
                                    }
                                }
                            ],
                            "typeTag": 4
                        }
                    }
                ]
            }
        ]
    }
}