{
    "balance_change": {
        "balanceChanges": [
            {
                "account": "0x6e2e957700b5f84395c1ed9aa454e44f1ead6c50",
                "assets": [
                    {
                        "address": "0x2a3956fdced9a0f9ace46426e5cfaa0f1939247d",
                        "amount": "4,000,000.01",
                        "iconUrl": "",
                        "isERC1155": false,
                        "isERC721": false,
                        "sign": false,
                        "value": ""
                    }
                ]
            },
            {
                "account": "0x040eecd41f0df3ec9885dbe1ff0ea70f3410527f",
                "assets": [
                    {
                        "address": "0x2a3956fdced9a0f9ace46426e5cfaa0f1939247d",
                        "amount": "4,000,000.01",
                        "iconUrl": "",
                        "isERC1155": false,
                        "isERC721": false,
                        "sign": true,
                        "value": ""
                    }
                ]
            }
        ]
    },
    "profile": {
        "basic_info": {
            "baseFee": "",
            "blockNumber": 7192209,
            "callData": "0xa9059cbb000000000000000000000000040eecd41f0df3ec9885dbe1ff0ea70f3410527f000000000000000000000000000000000000000000034f086f5ebaa8f3c10000",
            "debugEnable": true,
            "errorInfo": "",
            "eventCount": 1,
            "feeRecipient": "0xea674fdde714fd979de3edf0f56aa9716b898ec8",
            "formatValue": "0",
            "gasLimit": 54000,
            "gasPrice": "10",
            "gasUsed": 38260,
            "intTxnCount": 0,
            "internalRevert": false,
            "internalRevertMessage": "",
            "isContractCreation": false,
            "isFlashloan": false,
            "maxFee": "",
            "nonce": 0,
            "overwritedBlockNumber": -1,
            "priorityFee": "",
            "receiver": "0x2a3956fdced9a0f9ace46426e5cfaa0f1939247d",
            "revertMessage": "",
            "sender": "0x6e2e957700b5f84395c1ed9aa454e44f1ead6c50",
            "simulationEnable": true,
            "sourceTxnHash": "0x859886ac0fbc346d57ce2f4c958c5294bdddc86c4b665a51670b226ee22f27fc",
            "status": true,
            "timestamp": "2019-02-08T08:50:52Z",
            "transactionFee": "0.0003826",
            "txnHash": "0x859886ac0fbc346d57ce2f4c958c5294bdddc86c4b665a51670b226ee22f27fc",
            "txnIndex": 54,
            "type": 0,
            "value": "0"
        },
        "fund_flow": [
            {
                "amount": "4,000,000.01",
                "from": "0x6e2e957700b5f84395c1ed9aa454e44f1ead6c50",
                "id": 1,
                "isERC1155": false,
                "isERC721": false,
                "isReverted": false,
                "order": 1,
                "to": "0x040eecd41f0df3ec9885dbe1ff0ea70f3410527f",
                "token": "0x2a3956fdced9a0f9ace46426e5cfaa0f1939247d"
            }
        ],
        "token_infos": [
            {
                "address": "0x2a3956fdced9a0f9ace46426e5cfaa0f1939247d",
                "decimals": 18
            },
            {
                "address": "0xc02aaa39b223fe8d0a0e5c4f27ead9083c756cc2",
                "decimals": 18
            },
            {
                "address": "0xeeeeeeeeeeeeeeeeeeeeeeeeeeeeeeeeeeeeeeee",
                "decimals": 18
            }
        ]
    },
    "address_label": {
        "labels": [
            {
                "address": "0xeeeeeeeeeeeeeeeeeeeeeeeeeeeeeeeeeeeeeeee",
                "label": "Ether"
            },
            {
                "address": "0x2a3956fdced9a0f9ace46426e5cfaa0f1939247d",
                "label": "Star KST Token (KST)"
            },
            {
                "address": "0x0000000000000000000000000000000000000001",
                "label": "Precompiled"
            },
            {
                "address": "0x0000000000000000000000000000000000000002",
                "label": "Precompiled"
            },
            {
                "address": "0x0000000000000000000000000000000000000003",
                "label": "Precompiled"
            },
            {
                "address": "0x0000000000000000000000000000000000000004",
                "label": "Precompiled"
            }
        ]
    },
    "trace": {
        "accountLabels": null,
        "dataMap": {
            "-1": {
                "invocation": {
                    "address": "0x6e2e957700b5f84395c1ed9aa454e44f1ead6c50",
                    "callData": "",
                    "decodedMethod": null,
                    "errorInfo": "",
                    "fromAddress": "",
                    "gasUsed": 0,
                    "id": -1,
                    "methodDecoded": false,
                    "operation": "",
                    "output": "",
                    "revert": false,
                    "revertMessage": "",
                    "selector": "",
                    "status": false,
                    "value": ""
                },
                "nodeType": 0
            },
            "0": {
                "invocation": {
                    "address": "0x2a3956fdced9a0f9ace46426e5cfaa0f1939247d",
                    "callData": "0x000000000000000000000000040eecd41f0df3ec9885dbe1ff0ea70f3410527f000000000000000000000000000000000000000000034f086f5ebaa8f3c10000",
                    "decodedMethod": {
                        "callParams": [
                            {
                                "name": "_to",
                                "type": "address",
                                "value": "0x040eecd41f0df3ec9885dbe1ff0ea70f3410527f"
                            },
                            {
                                "decimalAvailable": true,
                                "name": "_value",
                                "type": "uint256",
                                "value": "4,000,000,010,000,000,000,000,000"
                            }
                        ],
                        "constructorArguments": "",
                        "name": "transfer",
                        "returnParams": [
                            {
                                "name": "",
                                "type": "bool",
                                "value": true
                            }
                        ],
                        "signature": "transfer(address,uint256)"
                    },
                    "errorInfo": "",
                    "fromAddress": "0x6e2e957700b5f84395c1ed9aa454e44f1ead6c50",
                    "gasUsed": 38260,
                    "id": 0,
                    "methodDecoded": true,
                    "operation": "CALL",
                    "output": "0x0000000000000000000000000000000000000000000000000000000000000001",
                    "revert": false,
                    "revertMessage": "",
                    "selector": "0xa9059cbb",
                    "status": true,
                    "value": "0"
                },
                "nodeType": 0
            },
            "1": {
                "event": {
                    "contract": "0x2a3956fdced9a0f9ace46426e5cfaa0f1939247d",
                    "decodedLog": {
                        "name": "Transfer",
                        "params": [
                            {
                                "name": "from",
                                "type": "address",
                                "value": "0x6e2e957700b5f84395c1ed9aa454e44f1ead6c50"
                            },
                            {
                                "name": "to",
                                "type": "address",
                                "value": "0x040eecd41f0df3ec9885dbe1ff0ea70f3410527f"
                            },
                            {
                                "decimalAvailable": true,
                                "name": "value",
                                "type": "uint256",
                                "value": "4,000,000,010,000,000,000,000,000"
                            }
                        ],
                        "signature": "Transfer(address,address,uint256)"
                    },
                    "id": 1,
                    "logData": "0x000000000000000000000000000000000000000000034f086f5ebaa8f3c10000",
                    "logDecoded": true,
                    "operation": "EVENT",
                    "revert": false,
                    "status": true,
                    "topics": [
                        "0xddf252ad1be2c89b69c2b068fc378daa952ba7f163c4a11628f55a4df523b3ef",
                        "0x0000000000000000000000006e2e957700b5f84395c1ed9aa454e44f1ead6c50",
                        "0x000000000000000000000000040eecd41f0df3ec9885dbe1ff0ea70f3410527f"
                    ]
                },
                "nodeType": 1
            }
        },
        "gasFlame": [
            {
                "children": [
                    {
                        "children": [
                            {
                                "children": [],
                                "depth": 0,
                                "name": "Initial Gas",
                                "value": 23384
                            },
                            {
                                "children": [],
                                "depth": 0,
                                "name": "Executed Gas",
                                "value": 14876
                            }
                        ],
                        "depth": -1,
                        "name": "Actual Gas Used",
                        "value": 38260
                    },
                    {
                        "children": [],
                        "depth": -1,
                        "name": "Refunded Gas",
                        "value": 0
                    }
                ],
                "depth": -2,
                "name": "Total Gas",
                "value": 38260
            }
        ],
        "isConfirmed": true,
        "mainTrace": [
            {
                "children": [
                    {
                        "children": [
                            {
                                "children": [],
                                "depth": 1,
                                "id": 1,
                                "order": 1
                            }
                        ],
                        "depth": 0,
                        "id": 0,
                        "order": 0
                    }
                ],
                "depth": -1,
                "id": -1,
                "order": -1
            }
        ],
        "mainTraceNodeCount": 2,
        "parentIdMap": {
            "0": -1,
            "1": 0
        },
        "tidyTrace": [
            {
                "children": [
                    {
                        "children": [
                            {
                                "children": [],
                                "depth": 1,
                                "id": 1,
                                "order": 1
                            }
                        ],
                        "depth": 0,
                        "id": 0,
                        "order": 0
                    }
                ],
                "depth": -1,
                "id": -1,
                "order": -1
            }
        ],
        "tidyTraceNodeCount": 2
    },
    "state_change": {
        "stateChanges": [
            {
                "address": "0x2a3956fdced9a0f9ace46426e5cfaa0f1939247d",
                "erc": "ERC-20",
                "slots": [
                    {
                        "current": "0x000000000000000000000000000000000000000000000000006a94d74f430000",
                        "key": "0x9f5dab74a1a29b2fc5473b2082b6ecf5261a2f9aba397a3983c5cd80b74ed96f",
                        "prev": "0x000000000000000000000000000000000000000000034f086fc94f8043040000"
                    },
                    {
                        "current": "0x0000000000000000000000000000000000000000011aa11260c6fcfc2f130000",
                        "key": "0x559fa878035cbe6712dec51daea5ea087eb98146d7d00ffae74ed2fa7b35beeb",
                        "prev": "0x000000000000000000000000000000000000000001175209f16842533b520000"
                    }
                ],
                "storageVariables": [
                    {
                        "name": "balances",
                        "type": "mapping(address => uint256)",
                        "value": {
                            "pairs": [
                                {
                                    "key": "0x040eecd41f0df3ec9885dbe1ff0ea70f3410527f",
                                    "value": {
                                        "current": "341677721150000000000000000",
                                        "prev": "337677721140000000000000000",
                                        "typeTag": 1
                                    }
                                },
                                {
                                    "key": "0x6e2e957700b5f84395c1ed9aa454e44f1ead6c50",
                                    "value": {
                                        "current": "30000000000000000",
                                        "prev": "4000000040000000000000000",
                                        "typeTag": 1
                                    }
                                }
                            ],
                            "typeTag": 4
                        }
                    }
                ]
            }
        ]
    }
}