{
    "balance_change": {
        "balanceChanges": [
            {
                "account": "0xbadb22725936cb18d72f0b611cf3e3acbc136867",
                "assets": [
                    {
                        "address": "0xf57e7e7c23978c3caec3c3548e3d615c346e79ff",
                        "amount": "201.31326",
                        "iconUrl": "",
                        "isERC1155": false,
                        "isERC721": false,
                        "sign": false,
                        "value": "196.88436827999999607"
                    }
                ]
            },
            {
                "account": "0xa910f92acdaf488fa6ef02174fb86208ad7722ba",
                "assets": [
                    {
                        "address": "0xf57e7e7c23978c3caec3c3548e3d615c346e79ff",
                        "amount": "201.31326",
                        "iconUrl": "",
                        "isERC1155": false,
                        "isERC721": false,
                        "sign": true,
                        "value": "196.88436827999999607"
                    }
                ]
            }
        ]
    },
    "profile": {
        "basic_info": {
            "baseFee": "18.507035429",
            "blockNumber": 16825747,
            "callData": "0xa9059cbb000000000000000000000000a910f92acdaf488fa6ef02174fb86208ad7722ba00000000000000000000000000000000000000000000000ae9c85f5ddbdac000",
            "debugEnable": true,
            "errorInfo": "",
            "eventCount": 1,
            "feeRecipient": "0x95222290dd7278aa3ddd389cc1e1d165cc4bafe5",
            "formatValue": "0",
            "gasLimit": 60000,
            "gasPrice": "21.099753653",
            "gasUsed": 29856,
            "intTxnCount": 0,
            "internalRevert": false,
            "internalRevertMessage": "",
            "isContractCreation": false,
            "isFlashloan": false,
            "maxFee": "",
            "nonce": 0,
            "overwritedBlockNumber": -1,
            "priorityFee": "",
            "receiver": "0xf57e7e7c23978c3caec3c3548e3d615c346e79ff",
            "revertMessage": "",
            "sender": "0xbadb22725936cb18d72f0b611cf3e3acbc136867",
            "simulationEnable": true,
            "sourceTxnHash": "0x85f6f2ec9f12a0eb201a0035abe0a1761d79a5e168f45cd5bbff9506f3db5c2f",
            "status": true,
            "timestamp": "2023-03-14T10:59:11Z",
            "transactionFee": "0.000629954245063968",
            "txnHash": "0x85f6f2ec9f12a0eb201a0035abe0a1761d79a5e168f45cd5bbff9506f3db5c2f",
            "txnIndex": 35,
            "type": 0,
            "value": "0"
        },
        "fund_flow": [
            {
                "amount": "201.31326",
                "from": "0xbadb22725936cb18d72f0b611cf3e3acbc136867",
                "id": 1,
                "isERC1155": false,
                "isERC721": false,
                "isReverted": false,
                "order": 1,
                "to": "0xa910f92acdaf488fa6ef02174fb86208ad7722ba",
                "token": "0xf57e7e7c23978c3caec3c3548e3d615c346e79ff"
            }
        ],
        "token_infos": [
            {
                "address": "0xc02aaa39b223fe8d0a0e5c4f27ead9083c756cc2",
                "decimals": 18
            },
            {
                "address": "0xf57e7e7c23978c3caec3c3548e3d615c346e79ff",
                "decimals": 18
            },
            {
                "address": "0xeeeeeeeeeeeeeeeeeeeeeeeeeeeeeeeeeeeeeeee",
                "decimals": 18
            }
        ]
    },
    "address_label": {
        "labels": [
            {
                "address": "0x0000000000000000000000000000000000000002",
                "label": "Precompiled"
            },
            {
                "address": "0x0000000000000000000000000000000000000003",
                "label": "Precompiled"
            },
            {
                "address": "0x0000000000000000000000000000000000000004",
                "label": "Precompiled"
            },
            {
                "address": "0xeeeeeeeeeeeeeeeeeeeeeeeeeeeeeeeeeeeeeeee",
                "label": "Ether"
            },
            {
                "address": "0xa910f92acdaf488fa6ef02174fb86208ad7722ba",
                "label": "Poloniex 4"
            },
            {
                "address": "0xbadb22725936cb18d72f0b611cf3e3acbc136867",
                "label": "POLONIEX"
            },
            {
                "address": "0xf57e7e7c23978c3caec3c3548e3d615c346e79ff",
                "label": "IMMUTABLE X: IMX Token"
            },
            {
                "address": "0x0000000000000000000000000000000000000001",
                "label": "Precompiled"
            }
        ]
    },
    "trace": {
        "accountLabels": null,
        "dataMap": {
            "-1": {
                "invocation": {
                    "address": "0xbadb22725936cb18d72f0b611cf3e3acbc136867",
                    "callData": "",
                    "decodedMethod": null,
                    "errorInfo": "",
                    "fromAddress": "",
                    "gasUsed": 0,
                    "id": -1,
                    "methodDecoded": false,
                    "operation": "",
                    "output": "",
                    "revert": false,
                    "revertMessage": "",
                    "selector": "",
                    "status": false,
                    "value": ""
                },
                "nodeType": 0
            },
            "0": {
                "invocation": {
                    "address": "0xf57e7e7c23978c3caec3c3548e3d615c346e79ff",
                    "callData": "0x000000000000000000000000a910f92acdaf488fa6ef02174fb86208ad7722ba00000000000000000000000000000000000000000000000ae9c85f5ddbdac000",
                    "decodedMethod": {
                        "callParams": [
                            {
                                "name": "recipient",
                                "type": "address",
                                "value": "0xa910f92acdaf488fa6ef02174fb86208ad7722ba"
                            },
                            {
                                "decimalAvailable": true,
                                "name": "amount",
                                "type": "uint256",
                                "value": "201,313,260,000,000,000,000"
                            }
                        ],
                        "constructorArguments": "",
                        "name": "transfer",
                        "returnParams": [
                            {
                                "name": "",
                                "type": "bool",
                                "value": true
                            }
                        ],
                        "signature": "transfer(address,uint256)"
                    },
                    "errorInfo": "",
                    "fromAddress": "0xbadb22725936cb18d72f0b611cf3e3acbc136867",
                    "gasUsed": 29856,
                    "id": 0,
                    "methodDecoded": true,
                    "operation": "CALL",
                    "output": "0x0000000000000000000000000000000000000000000000000000000000000001",
                    "revert": false,
                    "revertMessage": "",
                    "selector": "0xa9059cbb",
                    "status": true,
                    "value": "0"
                },
                "nodeType": 0
            },
            "1": {
                "event": {
                    "contract": "0xf57e7e7c23978c3caec3c3548e3d615c346e79ff",
                    "decodedLog": {
                        "name": "Transfer",
                        "params": [
                            {
                                "name": "from",
                                "type": "address",
                                "value": "0xbadb22725936cb18d72f0b611cf3e3acbc136867"
                            },
                            {
                                "name": "to",
                                "type": "address",
                                "value": "0xa910f92acdaf488fa6ef02174fb86208ad7722ba"
                            },
                            {
                                "decimalAvailable": true,
                                "name": "value",
                                "type": "uint256",
                                "value": "201,313,260,000,000,000,000"
                            }
                        ],
                        "signature": "Transfer(address,address,uint256)"
                    },
                    "id": 1,
                    "logData": "0x00000000000000000000000000000000000000000000000ae9c85f5ddbdac000",
                    "logDecoded": true,
                    "operation": "EVENT",
                    "revert": false,
                    "status": true,
                    "topics": [
                        "0xddf252ad1be2c89b69c2b068fc378daa952ba7f163c4a11628f55a4df523b3ef",
                        "0x000000000000000000000000badb22725936cb18d72f0b611cf3e3acbc136867",
                        "0x000000000000000000000000a910f92acdaf488fa6ef02174fb86208ad7722ba"
                    ]
                },
                "nodeType": 1
            }
        },
        "gasFlame": [
            {
                "children": [
                    {
                        "children": [
                            {
                                "children": [],
                                "depth": 0,
                                "name": "Initial Gas",
                                "value": 21656
                            },
                            {
                                "children": [],
                                "depth": 0,
                                "name": "Executed Gas",
                                "value": 13000
                            }
                        ],
                        "depth": -1,
                        "name": "Actual Gas Used",
                        "value": 29856
                    },
                    {
                        "children": [],
                        "depth": -1,
                        "name": "Refunded Gas",
                        "value": 4800
                    }
                ],
                "depth": -2,
                "name": "Total Gas",
                "value": 34656
            }
        ],
        "isConfirmed": true,
        "mainTrace": [
            {
                "children": [
                    {
                        "children": [
                            {
                                "children": [],
                                "depth": 1,
                                "id": 1,
                                "order": 1
                            }
                        ],
                        "depth": 0,
                        "id": 0,
                        "order": 0
                    }
                ],
                "depth": -1,
                "id": -1,
                "order": -1
            }
        ],
        "mainTraceNodeCount": 2,
        "parentIdMap": {
            "0": -1,
            "1": 0
        },
        "tidyTrace": [
            {
                "children": [
                    {
                        "children": [
                            {
                                "children": [],
                                "depth": 1,
                                "id": 1,
                                "order": 1
                            }
                        ],
                        "depth": 0,
                        "id": 0,
                        "order": 0
                    }
                ],
                "depth": -1,
                "id": -1,
                "order": -1
            }
        ],
        "tidyTraceNodeCount": 2
    },
    "state_change": {
        "stateChanges": [
            {
                "address": "0xf57e7e7c23978c3caec3c3548e3d615c346e79ff",
                "erc": "ERC-20",
                "slots": [
                    {
                        "current": "0x0000000000000000000000000000000000000000000000000000000000000000",
                        "key": "0x6fae9ec6fe36f774fe0bb36c26881ff996ea1fb3dae55abd944dbf2cf85957ff",
                        "prev": "0x00000000000000000000000000000000000000000000000ae9c85f5ddbdac000"
                    },
                    {
                        "current": "0x00000000000000000000000000000000000000000000126b1081a043dc810382",
                        "key": "0x4f9e6c5ac221e7892f79f5a6fd4fb97196416bd76e15d14cb85985b6c71b56c1",
                        "prev": "0x00000000000000000000000000000000000000000000126026b940e600a64382"
                    }
                ],
                "storageVariables": [
                    {
                        "name": "_balances",
                        "type": "mapping(address => uint256)",
                        "value": {
                            "pairs": [
                                {
                                    "key": "0xa910f92acdaf488fa6ef02174fb86208ad7722ba",
                                    "value": {
                                        "current": "86977587715530461086594",
                                        "prev": "86776274455530461086594",
                                        "typeTag": 1
                                    }
                                },
                                {
                                    "key": "0xbadb22725936cb18d72f0b611cf3e3acbc136867",
                                    "value": {
                                        "current": "0",
                                        "prev": "201313260000000000000",
                                        "typeTag": 1
                                    }
                                }
                            ],
                            "typeTag": 4
                        }
                    }
                ]
            }
        ]
    }
}