{
    "balance_change": {
        "balanceChanges": [
            {
                "account": "0xc296fc869b0388de146418fa6a6607de88e65e5d",
                "assets": [
                    {
                        "address": "0xeeeeeeeeeeeeeeeeeeeeeeeeeeeeeeeeeeeeeeee",
                        "amount": "0.487999924707087517",
                        "iconUrl": "https://assets.blocksec.com/image/1663669189317-3.png",
                        "isERC1155": false,
                        "isERC721": false,
                        "sign": true,
                        "value": "1751.8691587288031746"
                    }
                ]
            },
            {
                "account": "0x011b6e24ffb0b5f5fcc564cf4183c5bbbc96d515",
                "assets": [
                    {
                        "address": "0xeeeeeeeeeeeeeeeeeeeeeeeeeeeeeeeeeeeeeeee",
                        "amount": "0.487999924707087517",
                        "iconUrl": "https://assets.blocksec.com/image/1663669189317-3.png",
                        "isERC1155": false,
                        "isERC721": false,
                        "sign": false,
                        "value": "1751.8691587288031746"
                    }
                ]
            }
        ]
    },
    "profile": {
        "basic_info": {
            "baseFee": "83.492303065",
            "blockNumber": 13458260,
            "callData": "0x9c5cfe0b000000000000000000000000000000000000000000000000000000000000066600000000000000000000000000000000000000000000000000000000000001400000000000000000000000000000000000000000000000000000000000000001000000000000000000000000c296fc869b0388de146418fa6a6607de88e65e5d000000000000000000000000c296fc869b0388de146418fa6a6607de88e65e5d00000000000000000000000000000000000000000000000000000000001d9d6f0000000000000000000000000000000000000000000000000000000000cbd70800000000000000000000000000000000000000000000000000000000615c394800000000000000000000000000000000000000000000000006c5b9589295549d00000000000000000000000000000000000000000000000000000000000001a000000000000000000000000000000000000000000000000000000000000000023fc5902adc784cc9bf730df7f95d511e82a4a6fa69475543cac52c69a1a3ec81a9b9d2971667917a95eaccd9184a1559c79b5fb2c960979a9756ef333c46384a0000000000000000000000000000000000000000000000000000000000000000",
            "debugEnable": true,
            "errorInfo": "",
            "eventCount": 2,
            "feeRecipient": "0xea674fdde714fd979de3edf0f56aa9716b898ec8",
            "formatValue": "0",
            "gasLimit": 206233,
            "gasPrice": "84.992303065",
            "gasUsed": 161103,
            "intTxnCount": 4,
            "internalRevert": false,
            "internalRevertMessage": "",
            "isContractCreation": false,
            "isFlashloan": false,
            "maxFee": "110.656519943",
            "nonce": 1,
            "overwritedBlockNumber": -1,
            "priorityFee": "1.5",
            "receiver": "0x760723cd2e632826c38fef8cd438a4cc7e7e1a40",
            "revertMessage": "",
            "sender": "0xc296fc869b0388de146418fa6a6607de88e65e5d",
            "simulationEnable": true,
            "sourceTxnHash": "0x860777836d886be0a1a45b2b3a15b40e616adf172c1cec75ee232d1e85010f4e",
            "status": true,
            "timestamp": "2021-10-21T02:11:39Z",
            "transactionFee": "0.013692515000680695",
            "txnHash": "0x860777836d886be0a1a45b2b3a15b40e616adf172c1cec75ee232d1e85010f4e",
            "txnIndex": 70,
            "type": 2,
            "value": "0"
        },
        "fund_flow": [
            {
                "amount": "0.487999924707087517",
                "from": "0x011b6e24ffb0b5f5fcc564cf4183c5bbbc96d515",
                "id": 1,
                "isERC1155": false,
                "isERC721": false,
                "isReverted": false,
                "order": 1,
                "to": "0xc296fc869b0388de146418fa6a6607de88e65e5d",
                "token": "0xeeeeeeeeeeeeeeeeeeeeeeeeeeeeeeeeeeeeeeee"
            }
        ],
        "token_infos": [
            {
                "address": "0xeeeeeeeeeeeeeeeeeeeeeeeeeeeeeeeeeeeeeeee",
                "decimals": 18
            },
            {
                "address": "0xc02aaa39b223fe8d0a0e5c4f27ead9083c756cc2",
                "decimals": 18
            }
        ]
    },
    "address_label": {
        "labels": [
            {
                "address": "0x011b6e24ffb0b5f5fcc564cf4183c5bbbc96d515",
                "label": "Arbitrum: Old Bridge"
            },
            {
                "address": "0x8fda3500ea1f8c6790ce5ed482da23337b3e2a5f",
                "label": "Outbox"
            },
            {
                "address": "0x0000000000000000000000000000000000000001",
                "label": "Precompiled"
            },
            {
                "address": "0x0000000000000000000000000000000000000003",
                "label": "Precompiled"
            },
            {
                "address": "0xeeeeeeeeeeeeeeeeeeeeeeeeeeeeeeeeeeeeeeee",
                "label": "Ether"
            },
            {
                "address": "0x2f06e43d850ac75926fa2866e40139475b58cb16",
                "label": "Arbitrum: Bridge 2"
            },
            {
                "address": "0x760723cd2e632826c38fef8cd438a4cc7e7e1a40",
                "label": "Arbitrum: Outbox 3"
            },
            {
                "address": "0x0000000000000000000000000000000000000002",
                "label": "Precompiled"
            },
            {
                "address": "0x0000000000000000000000000000000000000004",
                "label": "Precompiled"
            }
        ]
    },
    "trace": {
        "accountLabels": null,
        "dataMap": {
            "-1": {
                "invocation": {
                    "address": "0xc296fc869b0388de146418fa6a6607de88e65e5d",
                    "callData": "",
                    "decodedMethod": null,
                    "errorInfo": "",
                    "fromAddress": "",
                    "gasUsed": 0,
                    "id": -1,
                    "methodDecoded": false,
                    "operation": "",
                    "output": "",
                    "revert": false,
                    "revertMessage": "",
                    "selector": "",
                    "status": false,
                    "value": ""
                },
                "nodeType": 0
            },
            "0": {
                "invocation": {
                    "address": "0x760723cd2e632826c38fef8cd438a4cc7e7e1a40",
                    "callData": "0x000000000000000000000000000000000000000000000000000000000000066600000000000000000000000000000000000000000000000000000000000001400000000000000000000000000000000000000000000000000000000000000001000000000000000000000000c296fc869b0388de146418fa6a6607de88e65e5d000000000000000000000000c296fc869b0388de146418fa6a6607de88e65e5d00000000000000000000000000000000000000000000000000000000001d9d6f0000000000000000000000000000000000000000000000000000000000cbd70800000000000000000000000000000000000000000000000000000000615c394800000000000000000000000000000000000000000000000006c5b9589295549d00000000000000000000000000000000000000000000000000000000000001a000000000000000000000000000000000000000000000000000000000000000023fc5902adc784cc9bf730df7f95d511e82a4a6fa69475543cac52c69a1a3ec81a9b9d2971667917a95eaccd9184a1559c79b5fb2c960979a9756ef333c46384a0000000000000000000000000000000000000000000000000000000000000000",
                    "decodedMethod": {
                        "callParams": [
                            {
                                "name": "batchNum",
                                "type": "uint256",
                                "value": "1,638"
                            },
                            {
                                "name": "proof",
                                "type": "bytes32[]",
                                "value": [
                                    "0x3fc5902adc784cc9bf730df7f95d511e82a4a6fa69475543cac52c69a1a3ec81",
                                    "0xa9b9d2971667917a95eaccd9184a1559c79b5fb2c960979a9756ef333c46384a"
                                ]
                            },
                            {
                                "name": "index",
                                "type": "uint256",
                                "value": "1"
                            },
                            {
                                "name": "l2Sender",
                                "type": "address",
                                "value": "0xc296fc869b0388de146418fa6a6607de88e65e5d"
                            },
                            {
                                "name": "destAddr",
                                "type": "address",
                                "value": "0xc296fc869b0388de146418fa6a6607de88e65e5d"
                            },
                            {
                                "name": "l2Block",
                                "type": "uint256",
                                "value": "1,940,847"
                            },
                            {
                                "name": "l1Block",
                                "type": "uint256",
                                "value": "13,358,856"
                            },
                            {
                                "name": "l2Timestamp",
                                "type": "uint256",
                                "value": "1,633,433,928"
                            },
                            {
                                "name": "amount",
                                "type": "uint256",
                                "value": "487,999,924,707,087,517"
                            },
                            {
                                "name": "calldataForL1",
                                "type": "bytes",
                                "value": "0x"
                            }
                        ],
                        "constructorArguments": "",
                        "name": "executeTransaction",
                        "returnParams": [],
                        "signature": "executeTransaction(uint256,bytes32[],uint256,address,address,uint256,uint256,uint256,uint256,bytes)"
                    },
                    "errorInfo": "",
                    "fromAddress": "0xc296fc869b0388de146418fa6a6607de88e65e5d",
                    "gasUsed": 161103,
                    "id": 0,
                    "methodDecoded": true,
                    "operation": "CALL",
                    "output": "",
                    "revert": false,
                    "revertMessage": "",
                    "selector": "0x9c5cfe0b",
                    "status": true,
                    "value": "0"
                },
                "nodeType": 0
            },
            "1": {
                "invocation": {
                    "address": "0x8fda3500ea1f8c6790ce5ed482da23337b3e2a5f",
                    "callData": "0x000000000000000000000000000000000000000000000000000000000000066600000000000000000000000000000000000000000000000000000000000001400000000000000000000000000000000000000000000000000000000000000001000000000000000000000000c296fc869b0388de146418fa6a6607de88e65e5d000000000000000000000000c296fc869b0388de146418fa6a6607de88e65e5d00000000000000000000000000000000000000000000000000000000001d9d6f0000000000000000000000000000000000000000000000000000000000cbd70800000000000000000000000000000000000000000000000000000000615c394800000000000000000000000000000000000000000000000006c5b9589295549d00000000000000000000000000000000000000000000000000000000000001a000000000000000000000000000000000000000000000000000000000000000023fc5902adc784cc9bf730df7f95d511e82a4a6fa69475543cac52c69a1a3ec81a9b9d2971667917a95eaccd9184a1559c79b5fb2c960979a9756ef333c46384a0000000000000000000000000000000000000000000000000000000000000000",
                    "decodedMethod": {
                        "callParams": [
                            {
                                "name": "batchNum",
                                "type": "uint256",
                                "value": "1,638"
                            },
                            {
                                "name": "proof",
                                "type": "bytes32[]",
                                "value": [
                                    "0x3fc5902adc784cc9bf730df7f95d511e82a4a6fa69475543cac52c69a1a3ec81",
                                    "0xa9b9d2971667917a95eaccd9184a1559c79b5fb2c960979a9756ef333c46384a"
                                ]
                            },
                            {
                                "name": "index",
                                "type": "uint256",
                                "value": "1"
                            },
                            {
                                "name": "l2Sender",
                                "type": "address",
                                "value": "0xc296fc869b0388de146418fa6a6607de88e65e5d"
                            },
                            {
                                "name": "destAddr",
                                "type": "address",
                                "value": "0xc296fc869b0388de146418fa6a6607de88e65e5d"
                            },
                            {
                                "name": "l2Block",
                                "type": "uint256",
                                "value": "1,940,847"
                            },
                            {
                                "name": "l1Block",
                                "type": "uint256",
                                "value": "13,358,856"
                            },
                            {
                                "name": "l2Timestamp",
                                "type": "uint256",
                                "value": "1,633,433,928"
                            },
                            {
                                "name": "amount",
                                "type": "uint256",
                                "value": "487,999,924,707,087,517"
                            },
                            {
                                "name": "calldataForL1",
                                "type": "bytes",
                                "value": "0x"
                            }
                        ],
                        "constructorArguments": "",
                        "name": "executeTransaction",
                        "returnParams": [],
                        "signature": "executeTransaction(uint256,bytes32[],uint256,address,address,uint256,uint256,uint256,uint256,bytes)"
                    },
                    "errorInfo": "",
                    "fromAddress": "0x760723cd2e632826c38fef8cd438a4cc7e7e1a40",
                    "gasUsed": 169647,
                    "id": 1,
                    "methodDecoded": true,
                    "operation": "DELEGATECALL",
                    "output": "",
                    "revert": false,
                    "revertMessage": "",
                    "selector": "0x9c5cfe0b",
                    "status": true,
                    "value": "0"
                },
                "nodeType": 0
            },
            "2": {
                "event": {
                    "contract": "0x760723cd2e632826c38fef8cd438a4cc7e7e1a40",
                    "decodedLog": {
                        "name": "OutBoxTransactionExecuted",
                        "params": [
                            {
                                "name": "to",
                                "type": "address",
                                "value": "0xc296fc869b0388de146418fa6a6607de88e65e5d"
                            },
                            {
                                "name": "l2Sender",
                                "type": "address",
                                "value": "0xc296fc869b0388de146418fa6a6607de88e65e5d"
                            },
                            {
                                "name": "zero",
                                "type": "uint256",
                                "value": "1,638"
                            },
                            {
                                "name": "transactionIndex",
                                "type": "uint256",
                                "value": "1"
                            }
                        ],
                        "signature": "OutBoxTransactionExecuted(address,address,uint256,uint256)"
                    },
                    "id": 2,
                    "logData": "0x0000000000000000000000000000000000000000000000000000000000000001",
                    "logDecoded": true,
                    "operation": "EVENT",
                    "revert": false,
                    "status": true,
                    "topics": [
                        "0x20af7f3bbfe38132b8900ae295cd9c8d1914be7052d061a511f3f728dab18964",
                        "0x000000000000000000000000c296fc869b0388de146418fa6a6607de88e65e5d",
                        "0x000000000000000000000000c296fc869b0388de146418fa6a6607de88e65e5d",
                        "0x0000000000000000000000000000000000000000000000000000000000000666"
                    ]
                },
                "nodeType": 1
            },
            "3": {
                "invocation": {
                    "address": "0x011b6e24ffb0b5f5fcc564cf4183c5bbbc96d515",
                    "callData": "0x000000000000000000000000c296fc869b0388de146418fa6a6607de88e65e5d00000000000000000000000000000000000000000000000006c5b9589295549d00000000000000000000000000000000000000000000000000000000000000600000000000000000000000000000000000000000000000000000000000000000",
                    "decodedMethod": {
                        "callParams": [
                            {
                                "name": "destAddr",
                                "type": "address",
                                "value": "0xc296fc869b0388de146418fa6a6607de88e65e5d"
                            },
                            {
                                "name": "amount",
                                "type": "uint256",
                                "value": "487,999,924,707,087,517"
                            },
                            {
                                "name": "data",
                                "type": "bytes",
                                "value": "0x"
                            }
                        ],
                        "constructorArguments": "",
                        "name": "executeCall",
                        "returnParams": [
                            {
                                "name": "success",
                                "type": "bool",
                                "value": true
                            },
                            {
                                "name": "returnData",
                                "type": "bytes",
                                "value": "0x"
                            }
                        ],
                        "signature": "executeCall(address,uint256,bytes)"
                    },
                    "errorInfo": "",
                    "fromAddress": "0x760723cd2e632826c38fef8cd438a4cc7e7e1a40",
                    "gasUsed": 42051,
                    "id": 3,
                    "methodDecoded": true,
                    "operation": "CALL",
                    "output": "0x000000000000000000000000000000000000000000000000000000000000000100000000000000000000000000000000000000000000000000000000000000400000000000000000000000000000000000000000000000000000000000000000",
                    "revert": false,
                    "revertMessage": "",
                    "selector": "0x9e5d4c49",
                    "status": true,
                    "value": "0"
                },
                "nodeType": 0
            },
            "4": {
                "invocation": {
                    "address": "0x2f06e43d850ac75926fa2866e40139475b58cb16",
                    "callData": "0x000000000000000000000000c296fc869b0388de146418fa6a6607de88e65e5d00000000000000000000000000000000000000000000000006c5b9589295549d00000000000000000000000000000000000000000000000000000000000000600000000000000000000000000000000000000000000000000000000000000000",
                    "decodedMethod": {
                        "callParams": [
                            {
                                "name": "destAddr",
                                "type": "address",
                                "value": "0xc296fc869b0388de146418fa6a6607de88e65e5d"
                            },
                            {
                                "name": "amount",
                                "type": "uint256",
                                "value": "487,999,924,707,087,517"
                            },
                            {
                                "name": "data",
                                "type": "bytes",
                                "value": "0x"
                            }
                        ],
                        "constructorArguments": "",
                        "name": "executeCall",
                        "returnParams": [
                            {
                                "name": "success",
                                "type": "bool",
                                "value": true
                            },
                            {
                                "name": "returnData",
                                "type": "bytes",
                                "value": "0x"
                            }
                        ],
                        "signature": "executeCall(address,uint256,bytes)"
                    },
                    "errorInfo": "",
                    "fromAddress": "0x011b6e24ffb0b5f5fcc564cf4183c5bbbc96d515",
                    "gasUsed": 34787,
                    "id": 4,
                    "methodDecoded": true,
                    "operation": "DELEGATECALL",
                    "output": "0x000000000000000000000000000000000000000000000000000000000000000100000000000000000000000000000000000000000000000000000000000000400000000000000000000000000000000000000000000000000000000000000000",
                    "revert": false,
                    "revertMessage": "",
                    "selector": "0x9e5d4c49",
                    "status": true,
                    "value": "0"
                },
                "nodeType": 0
            },
            "5": {
                "invocation": {
                    "address": "0xc296fc869b0388de146418fa6a6607de88e65e5d",
                    "callData": "0x",
                    "decodedMethod": null,
                    "errorInfo": "",
                    "fromAddress": "0x011b6e24ffb0b5f5fcc564cf4183c5bbbc96d515",
                    "gasUsed": 0,
                    "id": 5,
                    "methodDecoded": false,
                    "operation": "CALL",
                    "output": "",
                    "revert": false,
                    "revertMessage": "",
                    "selector": "fallback",
                    "status": true,
                    "value": "0.487999924707087517"
                },
                "nodeType": 0
            },
            "6": {
                "event": {
                    "contract": "0x011b6e24ffb0b5f5fcc564cf4183c5bbbc96d515",
                    "decodedLog": {
                        "name": "BridgeCallTriggered",
                        "params": [
                            {
                                "name": "outbox",
                                "type": "address",
                                "value": "0x760723cd2e632826c38fef8cd438a4cc7e7e1a40"
                            },
                            {
                                "name": "to",
                                "type": "address",
                                "value": "0xc296fc869b0388de146418fa6a6607de88e65e5d"
                            },
                            {
                                "name": "value",
                                "type": "uint256",
                                "value": "487,999,924,707,087,517"
                            },
                            {
                                "name": "data",
                                "type": "bytes",
                                "value": "0x"
                            }
                        ],
                        "signature": "BridgeCallTriggered(address,address,uint256,bytes)"
                    },
                    "id": 6,
                    "logData": "0x00000000000000000000000000000000000000000000000006c5b9589295549d00000000000000000000000000000000000000000000000000000000000000400000000000000000000000000000000000000000000000000000000000000000",
                    "logDecoded": true,
                    "operation": "EVENT",
                    "revert": false,
                    "status": true,
                    "topics": [
                        "0x2d9d115ef3e4a606d698913b1eae831a3cdfe20d9a83d48007b0526749c3d466",
                        "0x000000000000000000000000760723cd2e632826c38fef8cd438a4cc7e7e1a40",
                        "0x000000000000000000000000c296fc869b0388de146418fa6a6607de88e65e5d"
                    ]
                },
                "nodeType": 1
            }
        },
        "gasFlame": [
            {
                "children": [
                    {
                        "children": [
                            {
                                "children": [],
                                "depth": 0,
                                "name": "Initial Gas",
                                "value": 24416
                            },
                            {
                                "children": [
                                    {
                                        "children": [
                                            {
                                                "children": [
                                                    {
                                                        "children": [
                                                            {
                                                                "children": [],
                                                                "depth": 4,
                                                                "name": "fallback",
                                                                "value": 0
                                                            }
                                                        ],
                                                        "depth": 3,
                                                        "name": "executeCall",
                                                        "value": 34787
                                                    }
                                                ],
                                                "depth": 2,
                                                "name": "executeCall",
                                                "value": 42051
                                            }
                                        ],
                                        "depth": 1,
                                        "name": "executeTransaction",
                                        "value": 169647
                                    }
                                ],
                                "depth": 0,
                                "name": "Executed Gas",
                                "value": 176962
                            }
                        ],
                        "depth": -1,
                        "name": "Actual Gas Used",
                        "value": 161103
                    },
                    {
                        "children": [],
                        "depth": -1,
                        "name": "Refunded Gas",
                        "value": 40275
                    }
                ],
                "depth": -2,
                "name": "Total Gas",
                "value": 201378
            }
        ],
        "isConfirmed": true,
        "mainTrace": [
            {
                "children": [
                    {
                        "children": [
                            {
                                "children": [
                                    {
                                        "children": [],
                                        "depth": 2,
                                        "id": 2,
                                        "order": 2
                                    },
                                    {
                                        "children": [
                                            {
                                                "children": [
                                                    {
                                                        "children": [],
                                                        "depth": 4,
                                                        "id": 5,
                                                        "order": 5
                                                    },
                                                    {
                                                        "children": [],
                                                        "depth": 4,
                                                        "id": 6,
                                                        "order": 6
                                                    }
                                                ],
                                                "depth": 3,
                                                "id": 4,
                                                "order": 4
                                            }
                                        ],
                                        "depth": 2,
                                        "id": 3,
                                        "order": 3
                                    }
                                ],
                                "depth": 1,
                                "id": 1,
                                "order": 1
                            }
                        ],
                        "depth": 0,
                        "id": 0,
                        "order": 0
                    }
                ],
                "depth": -1,
                "id": -1,
                "order": -1
            }
        ],
        "mainTraceNodeCount": 7,
        "parentIdMap": {
            "0": -1,
            "1": 0,
            "2": 1,
            "3": 1,
            "4": 3,
            "5": 4,
            "6": 4
        },
        "tidyTrace": [
            {
                "children": [
                    {
                        "children": [
                            {
                                "children": [
                                    {
                                        "children": [],
                                        "depth": 2,
                                        "id": 2,
                                        "order": 2
                                    },
                                    {
                                        "children": [
                                            {
                                                "children": [
                                                    {
                                                        "children": [],
                                                        "depth": 4,
                                                        "id": 5,
                                                        "order": 5
                                                    },
                                                    {
                                                        "children": [],
                                                        "depth": 4,
                                                        "id": 6,
                                                        "order": 6
                                                    }
                                                ],
                                                "depth": 3,
                                                "id": 4,
                                                "order": 4
                                            }
                                        ],
                                        "depth": 2,
                                        "id": 3,
                                        "order": 3
                                    }
                                ],
                                "depth": 1,
                                "id": 1,
                                "order": 1
                            }
                        ],
                        "depth": 0,
                        "id": 0,
                        "order": 0
                    }
                ],
                "depth": -1,
                "id": -1,
                "order": -1
            }
        ],
        "tidyTraceNodeCount": 7
    },
    "state_change": {
        "stateChanges": [
            {
                "address": "0x760723cd2e632826c38fef8cd438a4cc7e7e1a40",
                "erc": "",
                "slots": [
                    {
                        "current": "0x0000000000000000000000000000000000000000000000000000000000000001",
                        "key": "0x5f37a1587d91432a98f8f602bc822dccc20cd500e79f9c5222195f03cf6b1ac2",
                        "prev": "0x0000000000000000000000000000000000000000000000000000000000000000"
                    }
                ],
                "storageVariables": [
                    {
                        "name": "outboxEntries",
                        "type": "mapping(uint256 => struct Outbox.OutboxEntry)",
                        "value": {
                            "pairs": [
                                {
                                    "key": "1638",
                                    "value": {
                                        "fields": [
                                            {
                                                "name": "spentOutput",
                                                "type": "mapping(bytes32 => bool)",
                                                "value": {
                                                    "pairs": [
                                                        {
                                                            "key": "0xe90b7bceb6e7df5418fb78d8ee546e97c83a08bbccc01a0644d599ccd2a7c2e0",
                                                            "value": {
                                                                "current": "true",
                                                                "prev": "false",
                                                                "typeTag": 1
                                                            }
                                                        }
                                                    ],
                                                    "typeTag": 4
                                                }
                                            }
                                        ],
                                        "typeTag": 3
                                    }
                                }
                            ],
                            "typeTag": 4
                        }
                    }
                ]
            }
        ]
    }
}