{
    "balance_change": {
        "balanceChanges": []
    },
    "profile": {
        "basic_info": {
            "baseFee": "",
            "blockNumber": 9012320,
            "callData": "0x86ab4bda0000000000000000000000000000000000000000000000000000000000000040000000000000000000000000000000000000000000000000000000000000008000000000000000000000000000000000000000000000000000000000000000033232390000000000000000000000000000000000000000000000000000000000000000000000000000000000000000000000000000000000000000000000004063356538363962353836373936346464313766323030613232363565643430386630366539646163386239623063386266643566653438393730366562323163",
            "debugEnable": true,
            "errorInfo": "",
            "eventCount": 0,
            "feeRecipient": "0xcf6ce585cb4a78a6f96e6c8722927161a696f337",
            "formatValue": "0",
            "gasLimit": 300000,
            "gasPrice": "2",
            "gasUsed": 44868,
            "intTxnCount": 1,
            "internalRevert": false,
            "internalRevertMessage": "",
            "isContractCreation": false,
            "isFlashloan": false,
            "maxFee": "",
            "nonce": 593,
            "overwritedBlockNumber": -1,
            "priorityFee": "",
            "receiver": "0xab313da6b160436bff0c5c518e778a94131c27f9",
            "revertMessage": "",
            "sender": "0xf9f1058ee1d86bafbd745de288759d83f9fb6fca",
            "simulationEnable": true,
            "sourceTxnHash": "0x866842a90b63d5df6d64f20e46f759d2bc88ceaf0d7c303f076f6dc3924940b6",
            "status": true,
            "timestamp": "2019-11-27T22:58:06Z",
            "transactionFee": "0.000089736",
            "txnHash": "0x866842a90b63d5df6d64f20e46f759d2bc88ceaf0d7c303f076f6dc3924940b6",
            "txnIndex": 19,
            "type": 0,
            "value": "0"
        },
        "fund_flow": [],
        "token_infos": [
            {
                "address": "0xc02aaa39b223fe8d0a0e5c4f27ead9083c756cc2",
                "decimals": 18
            },
            {
                "address": "0xeeeeeeeeeeeeeeeeeeeeeeeeeeeeeeeeeeeeeeee",
                "decimals": 18
            }
        ]
    },
    "address_label": {
        "labels": [
            {
                "address": "0xab313da6b160436bff0c5c518e778a94131c27f9",
                "label": "Blueprint"
            },
            {
                "address": "0x0000000000000000000000000000000000000001",
                "label": "Precompiled"
            },
            {
                "address": "0x0000000000000000000000000000000000000003",
                "label": "Precompiled"
            },
            {
                "address": "0x0000000000000000000000000000000000000004",
                "label": "Precompiled"
            },
            {
                "address": "0xeeeeeeeeeeeeeeeeeeeeeeeeeeeeeeeeeeeeeeee",
                "label": "Ether"
            },
            {
                "address": "0x0000000000000000000000000000000000000002",
                "label": "Precompiled"
            }
        ]
    },
    "trace": {
        "accountLabels": null,
        "dataMap": {
            "-1": {
                "invocation": {
                    "address": "0xf9f1058ee1d86bafbd745de288759d83f9fb6fca",
                    "callData": "",
                    "decodedMethod": null,
                    "errorInfo": "",
                    "fromAddress": "",
                    "gasUsed": 0,
                    "id": -1,
                    "methodDecoded": false,
                    "operation": "",
                    "output": "",
                    "revert": false,
                    "revertMessage": "",
                    "selector": "",
                    "status": false,
                    "value": ""
                },
                "nodeType": 0
            },
            "0": {
                "invocation": {
                    "address": "0xab313da6b160436bff0c5c518e778a94131c27f9",
                    "callData": "0x0000000000000000000000000000000000000000000000000000000000000040000000000000000000000000000000000000000000000000000000000000008000000000000000000000000000000000000000000000000000000000000000033232390000000000000000000000000000000000000000000000000000000000000000000000000000000000000000000000000000000000000000000000004063356538363962353836373936346464313766323030613232363565643430386630366539646163386239623063386266643566653438393730366562323163",
                    "decodedMethod": {
                        "callParams": [
                            {
                                "name": "_id",
                                "type": "string",
                                "value": "229"
                            },
                            {
                                "name": "_details",
                                "type": "string",
                                "value": "c5e869b5867964dd17f200a2265ed408f06e9dac8b9b0c8bfd5fe489706eb21c"
                            }
                        ],
                        "constructorArguments": "",
                        "name": "createExchange",
                        "returnParams": [
                            {
                                "name": "",
                                "type": "bool",
                                "value": true
                            }
                        ],
                        "signature": "createExchange(string,string)"
                    },
                    "errorInfo": "",
                    "fromAddress": "0xf9f1058ee1d86bafbd745de288759d83f9fb6fca",
                    "gasUsed": 44868,
                    "id": 0,
                    "methodDecoded": true,
                    "operation": "CALL",
                    "output": "0x0000000000000000000000000000000000000000000000000000000000000001",
                    "revert": false,
                    "revertMessage": "",
                    "selector": "0x86ab4bda",
                    "status": true,
                    "value": "0"
                },
                "nodeType": 0
            },
            "1": {
                "invocation": {
                    "address": "0x0000000000000000000000000000000000000002",
                    "callData": "0x363962353836373936346464313766323030613232363565643430386630366539646163386239623063386266643566653438393730366562323163",
                    "decodedMethod": {
                        "callParams": [
                            {
                                "name": "data",
                                "type": "bytes",
                                "value": "0x63356538363962353836373936346464313766323030613232363565643430386630366539646163386239623063386266643566653438393730366562323163"
                            }
                        ],
                        "constructorArguments": "",
                        "name": "sha256hash",
                        "returnParams": [
                            {
                                "name": "hash",
                                "type": "bytes32",
                                "value": "0xe489b37484ccf4ec79e83d6a244a5160bb3e3315cf7c05fc321e590dba09de40"
                            }
                        ],
                        "signature": "sha256hash(bytes)"
                    },
                    "errorInfo": "",
                    "fromAddress": "0xab313da6b160436bff0c5c518e778a94131c27f9",
                    "gasUsed": 84,
                    "id": 1,
                    "methodDecoded": true,
                    "operation": "CALL",
                    "output": "0xe489b37484ccf4ec79e83d6a244a5160bb3e3315cf7c05fc321e590dba09de40",
                    "revert": false,
                    "revertMessage": "",
                    "selector": "0x63356538",
                    "status": true,
                    "value": "0"
                },
                "nodeType": 0
            }
        },
        "gasFlame": [
            {
                "children": [
                    {
                        "children": [
                            {
                                "children": [],
                                "depth": 0,
                                "name": "Initial Gas",
                                "value": 26712
                            },
                            {
                                "children": [
                                    {
                                        "children": [],
                                        "depth": 1,
                                        "name": "sha256hash",
                                        "value": 84
                                    }
                                ],
                                "depth": 0,
                                "name": "Executed Gas",
                                "value": 18156
                            }
                        ],
                        "depth": -1,
                        "name": "Actual Gas Used",
                        "value": 44868
                    },
                    {
                        "children": [],
                        "depth": -1,
                        "name": "Refunded Gas",
                        "value": 0
                    }
                ],
                "depth": -2,
                "name": "Total Gas",
                "value": 44868
            }
        ],
        "isConfirmed": true,
        "mainTrace": [
            {
                "children": [
                    {
                        "children": [
                            {
                                "children": [],
                                "depth": 1,
                                "id": 1,
                                "order": 1
                            }
                        ],
                        "depth": 0,
                        "id": 0,
                        "order": 0
                    }
                ],
                "depth": -1,
                "id": -1,
                "order": -1
            }
        ],
        "mainTraceNodeCount": 2,
        "parentIdMap": {
            "0": -1,
            "1": 0
        },
        "tidyTrace": [
            {
                "children": [
                    {
                        "children": [
                            {
                                "children": [],
                                "depth": 1,
                                "id": 1,
                                "order": 1
                            }
                        ],
                        "depth": 0,
                        "id": 0,
                        "order": 0
                    }
                ],
                "depth": -1,
                "id": -1,
                "order": -1
            }
        ],
        "tidyTraceNodeCount": 2
    },
    "state_change": {
        "stateChanges": [
            {
                "address": "0xab313da6b160436bff0c5c518e778a94131c27f9",
                "erc": "",
                "slots": [
                    {
                        "current": "0xe489b37484ccf4ec79e83d6a244a5160bb3e3315cf7c05fc321e590dba09de40",
                        "key": "0x4aba449e22d1980d0df17dfd353671ee15ea376407511489d8a48ea83a3e53e9",
                        "prev": "0xe018ee276fd7a2e170a6593532f2b8fc451fc5487e328ed98f97df41d29245e8"
                    },
                    {
                        "current": "0x000000000000000000000000000000000000000000000000000000005ddeff7e",
                        "key": "0x4aba449e22d1980d0df17dfd353671ee15ea376407511489d8a48ea83a3e53eb",
                        "prev": "0x000000000000000000000000000000000000000000000000000000005d9d3aba"
                    }
                ],
                "storageVariables": [
                    {
                        "name": "_bluePrint",
                        "type": "mapping(string => struct Blueprint.BlueprintInfo)",
                        "value": {
                            "pairs": [
                                {
                                    "key": "229",
                                    "value": {
                                        "fields": [
                                            {
                                                "name": "details",
                                                "type": "bytes32",
                                                "value": {
                                                    "current": "0xe489b37484ccf4ec79e83d6a244a5160bb3e3315cf7c05fc321e590dba09de40",
                                                    "prev": "0xe018ee276fd7a2e170a6593532f2b8fc451fc5487e328ed98f97df41d29245e8",
                                                    "typeTag": 1
                                                }
                                            },
                                            {
                                                "name": "createTime",
                                                "type": "uint256",
                                                "value": {
                                                    "current": "1574895486",
                                                    "prev": "1570585274",
                                                    "typeTag": 1
                                                }
                                            }
                                        ],
                                        "typeTag": 3
                                    }
                                }
                            ],
                            "typeTag": 4
                        }
                    }
                ]
            }
        ]
    }
}