{
    "balance_change": {
        "balanceChanges": [
            {
                "account": "0xb83632350f631a58a18f798dc4e81b42443c0a8c",
                "assets": [
                    {
                        "address": "0x89d24a6b4ccb1b6faa2625fe562bdd9a23260359",
                        "amount": "4",
                        "iconUrl": "https://assets.blocksec.com/icon/ef749d775affba651ec0a3b1d637f71b140c748229531fb8d00c215d958a89f4.png",
                        "isERC1155": false,
                        "isERC721": false,
                        "sign": false,
                        "value": ""
                    }
                ]
            },
            {
                "account": "0x9e6b460de0a61d3eb836021283cd15a89fe2fb91",
                "assets": [
                    {
                        "address": "0x89d24a6b4ccb1b6faa2625fe562bdd9a23260359",
                        "amount": "4",
                        "iconUrl": "https://assets.blocksec.com/icon/ef749d775affba651ec0a3b1d637f71b140c748229531fb8d00c215d958a89f4.png",
                        "isERC1155": false,
                        "isERC721": false,
                        "sign": true,
                        "value": ""
                    }
                ]
            }
        ]
    },
    "profile": {
        "basic_info": {
            "baseFee": "",
            "blockNumber": 8148084,
            "callData": "0x4fd43b3f0000000000000000000000000000000000000000000000000000000000000001",
            "debugEnable": true,
            "errorInfo": "",
            "eventCount": 2,
            "feeRecipient": "0xea674fdde714fd979de3edf0f56aa9716b898ec8",
            "formatValue": "0",
            "gasLimit": 160476,
            "gasPrice": "1",
            "gasUsed": 160476,
            "intTxnCount": 21,
            "internalRevert": false,
            "internalRevertMessage": "",
            "isContractCreation": false,
            "isFlashloan": false,
            "maxFee": "",
            "nonce": 22,
            "overwritedBlockNumber": -1,
            "priorityFee": "",
            "receiver": "0x9e6b460de0a61d3eb836021283cd15a89fe2fb91",
            "revertMessage": "",
            "sender": "0xb83632350f631a58a18f798dc4e81b42443c0a8c",
            "simulationEnable": true,
            "sourceTxnHash": "0x86c53112fb1bfc30bd829f68c71716b4183b8f39dc9a77af05964068099ec0f5",
            "status": true,
            "timestamp": "2019-07-14T08:19:58Z",
            "transactionFee": "0.000160476",
            "txnHash": "0x86c53112fb1bfc30bd829f68c71716b4183b8f39dc9a77af05964068099ec0f5",
            "txnIndex": 163,
            "type": 0,
            "value": "0"
        },
        "fund_flow": [
            {
                "amount": "4",
                "from": "0xb83632350f631a58a18f798dc4e81b42443c0a8c",
                "id": 1,
                "isERC1155": false,
                "isERC721": false,
                "isReverted": false,
                "order": 1,
                "to": "0x9e6b460de0a61d3eb836021283cd15a89fe2fb91",
                "token": "0x89d24a6b4ccb1b6faa2625fe562bdd9a23260359"
            }
        ],
        "token_infos": [
            {
                "address": "0x89d24a6b4ccb1b6faa2625fe562bdd9a23260359",
                "decimals": 18
            },
            {
                "address": "0xc02aaa39b223fe8d0a0e5c4f27ead9083c756cc2",
                "decimals": 18
            },
            {
                "address": "0xeeeeeeeeeeeeeeeeeeeeeeeeeeeeeeeeeeeeeeee",
                "decimals": 18
            }
        ]
    },
    "address_label": {
        "labels": [
            {
                "address": "0xf5dce57282a584d2746faf1593d3121fcac444dc",
                "label": "Compound Sai (cSAI)"
            },
            {
                "address": "0xa1046abfc2598f48c44fb320d281d3f3c0733c9a",
                "label": "WhitePaperInterestRateModel"
            },
            {
                "address": "0x89d24a6b4ccb1b6faa2625fe562bdd9a23260359",
                "label": "Sai Stablecoin"
            },
            {
                "address": "0x0000000000000000000000000000000000000001",
                "label": "Precompiled"
            },
            {
                "address": "0x0000000000000000000000000000000000000002",
                "label": "Precompiled"
            },
            {
                "address": "0x0000000000000000000000000000000000000003",
                "label": "Precompiled"
            },
            {
                "address": "0x0000000000000000000000000000000000000004",
                "label": "Precompiled"
            },
            {
                "address": "0xeeeeeeeeeeeeeeeeeeeeeeeeeeeeeeeeeeeeeeee",
                "label": "Ether"
            }
        ]
    },
    "trace": {
        "accountLabels": null,
        "dataMap": {
            "-1": {
                "invocation": {
                    "address": "0xb83632350f631a58a18f798dc4e81b42443c0a8c",
                    "callData": "",
                    "decodedMethod": null,
                    "errorInfo": "",
                    "fromAddress": "",
                    "gasUsed": 0,
                    "id": -1,
                    "methodDecoded": false,
                    "operation": "",
                    "output": "",
                    "revert": false,
                    "revertMessage": "",
                    "selector": "",
                    "status": false,
                    "value": ""
                },
                "nodeType": 0
            },
            "0": {
                "invocation": {
                    "address": "0x9e6b460de0a61d3eb836021283cd15a89fe2fb91",
                    "callData": "0x0000000000000000000000000000000000000000000000000000000000000001",
                    "decodedMethod": {
                        "callParams": [
                            {
                                "name": "_countNonFixed",
                                "type": "int256",
                                "value": "1"
                            }
                        ],
                        "constructorArguments": "",
                        "name": "buyTickets",
                        "returnParams": [],
                        "signature": "buyTickets(int256)"
                    },
                    "errorInfo": "",
                    "fromAddress": "0xb83632350f631a58a18f798dc4e81b42443c0a8c",
                    "gasUsed": 160476,
                    "id": 0,
                    "methodDecoded": true,
                    "operation": "CALL",
                    "output": "",
                    "revert": false,
                    "revertMessage": "",
                    "selector": "0x4fd43b3f",
                    "status": true,
                    "value": "0"
                },
                "nodeType": 0
            },
            "1": {
                "invocation": {
                    "address": "0x4804b8bc5112fd4216824c2673ee792f180a1c1e",
                    "callData": "0x0000000000000000000000000000000000000000000000000000000000000001",
                    "decodedMethod": {
                        "callParams": [
                            {
                                "name": "x",
                                "type": "int256",
                                "value": "1"
                            }
                        ],
                        "constructorArguments": "",
                        "name": "newFixed",
                        "returnParams": [
                            {
                                "name": "",
                                "type": "int256",
                                "value": "1,000,000,000,000,000,000,000,000"
                            }
                        ],
                        "signature": "newFixed(int256)"
                    },
                    "errorInfo": "",
                    "fromAddress": "0x9e6b460de0a61d3eb836021283cd15a89fe2fb91",
                    "gasUsed": 868,
                    "id": 1,
                    "methodDecoded": true,
                    "operation": "DELEGATECALL",
                    "output": "0x00000000000000000000000000000000000000000000d3c21bcecceda1000000",
                    "revert": false,
                    "revertMessage": "",
                    "selector": "0xbd5cbd62",
                    "status": true,
                    "value": "0"
                },
                "nodeType": 0
            },
            "10": {
                "invocation": {
                    "address": "0x4804b8bc5112fd4216824c2673ee792f180a1c1e",
                    "callData": "0x",
                    "decodedMethod": {
                        "callParams": [],
                        "constructorArguments": "",
                        "name": "maxFixedDiv",
                        "returnParams": [
                            {
                                "name": "",
                                "type": "int256",
                                "value": "57,896,044,618,658,097,711,785,492,504,343,953,926,634,992,332,820,282"
                            }
                        ],
                        "signature": "maxFixedDiv()"
                    },
                    "errorInfo": "",
                    "fromAddress": "0x9e6b460de0a61d3eb836021283cd15a89fe2fb91",
                    "gasUsed": 429,
                    "id": 10,
                    "methodDecoded": true,
                    "operation": "DELEGATECALL",
                    "output": "0x000000000000000000009abe14cd44753b52c4926a9672793542d78c3615cf3a",
                    "revert": false,
                    "revertMessage": "",
                    "selector": "0x7bc140ea",
                    "status": true,
                    "value": "0"
                },
                "nodeType": 0
            },
            "11": {
                "invocation": {
                    "address": "0xf5dce57282a584d2746faf1593d3121fcac444dc",
                    "callData": "0x",
                    "decodedMethod": {
                        "callParams": [],
                        "constructorArguments": "",
                        "name": "supplyRatePerBlock",
                        "returnParams": [
                            {
                                "name": "",
                                "type": "uint256",
                                "value": "46,038,405,466"
                            }
                        ],
                        "signature": "supplyRatePerBlock()"
                    },
                    "errorInfo": "",
                    "fromAddress": "0x9e6b460de0a61d3eb836021283cd15a89fe2fb91",
                    "gasUsed": 18946,
                    "id": 11,
                    "methodDecoded": true,
                    "operation": "STATICCALL",
                    "output": "0x0000000000000000000000000000000000000000000000000000000ab81a515a",
                    "revert": false,
                    "revertMessage": "",
                    "selector": "0xae9d70b0",
                    "status": true,
                    "value": "0"
                },
                "nodeType": 0
            },
            "12": {
                "invocation": {
                    "address": "0x89d24a6b4ccb1b6faa2625fe562bdd9a23260359",
                    "callData": "0x000000000000000000000000f5dce57282a584d2746faf1593d3121fcac444dc",
                    "decodedMethod": {
                        "callParams": [
                            {
                                "name": "src",
                                "type": "address",
                                "value": "0xf5dce57282a584d2746faf1593d3121fcac444dc"
                            }
                        ],
                        "constructorArguments": "",
                        "name": "balanceOf",
                        "returnParams": [
                            {
                                "decimalAvailable": true,
                                "name": "",
                                "type": "uint256",
                                "value": "3,453,271,352,018,972,885,715,009"
                            }
                        ],
                        "signature": "balanceOf(address)"
                    },
                    "errorInfo": "",
                    "fromAddress": "0xf5dce57282a584d2746faf1593d3121fcac444dc",
                    "gasUsed": 815,
                    "id": 12,
                    "methodDecoded": true,
                    "operation": "STATICCALL",
                    "output": "0x00000000000000000000000000000000000000000002db423710ed7e10090841",
                    "revert": false,
                    "revertMessage": "",
                    "selector": "0x70a08231",
                    "status": true,
                    "value": "0"
                },
                "nodeType": 0
            },
            "13": {
                "invocation": {
                    "address": "0x89d24a6b4ccb1b6faa2625fe562bdd9a23260359",
                    "callData": "0x000000000000000000000000f5dce57282a584d2746faf1593d3121fcac444dc",
                    "decodedMethod": {
                        "callParams": [
                            {
                                "name": "src",
                                "type": "address",
                                "value": "0xf5dce57282a584d2746faf1593d3121fcac444dc"
                            }
                        ],
                        "constructorArguments": "",
                        "name": "balanceOf",
                        "returnParams": [
                            {
                                "decimalAvailable": true,
                                "name": "",
                                "type": "uint256",
                                "value": "3,453,271,352,018,972,885,715,009"
                            }
                        ],
                        "signature": "balanceOf(address)"
                    },
                    "errorInfo": "",
                    "fromAddress": "0xf5dce57282a584d2746faf1593d3121fcac444dc",
                    "gasUsed": 815,
                    "id": 13,
                    "methodDecoded": true,
                    "operation": "STATICCALL",
                    "output": "0x00000000000000000000000000000000000000000002db423710ed7e10090841",
                    "revert": false,
                    "revertMessage": "",
                    "selector": "0x70a08231",
                    "status": true,
                    "value": "0"
                },
                "nodeType": 0
            },
            "14": {
                "invocation": {
                    "address": "0xa1046abfc2598f48c44fb320d281d3f3c0733c9a",
                    "callData": "0x00000000000000000000000000000000000000000002db423710ed7e1009084100000000000000000000000000000000000000000009127889ecc8ea3a6654b70000000000000000000000000000000000000000000003195c9329ab735065b7",
                    "decodedMethod": {
                        "callParams": [
                            {
                                "name": "cash",
                                "type": "uint256",
                                "value": "3,453,271,352,018,972,885,715,009"
                            },
                            {
                                "name": "borrows",
                                "type": "uint256",
                                "value": "10,967,558,521,051,547,359,925,431"
                            },
                            {
                                "name": "_reserves",
                                "type": "uint256",
                                "value": "14,634,938,771,741,091,063,223"
                            }
                        ],
                        "constructorArguments": "",
                        "name": "getBorrowRate",
                        "returnParams": [
                            {
                                "name": "",
                                "type": "uint256",
                                "value": "0"
                            },
                            {
                                "name": "",
                                "type": "uint256",
                                "value": "67,191,926,113"
                            }
                        ],
                        "signature": "getBorrowRate(uint256,uint256,uint256)"
                    },
                    "errorInfo": "",
                    "fromAddress": "0xf5dce57282a584d2746faf1593d3121fcac444dc",
                    "gasUsed": 4203,
                    "id": 14,
                    "methodDecoded": true,
                    "operation": "STATICCALL",
                    "output": "0x00000000000000000000000000000000000000000000000000000000000000000000000000000000000000000000000000000000000000000000000fa4f36d61",
                    "revert": false,
                    "revertMessage": "",
                    "selector": "0x15f24053",
                    "status": true,
                    "value": "0"
                },
                "nodeType": 0
            },
            "15": {
                "invocation": {
                    "address": "0x4804b8bc5112fd4216824c2673ee792f180a1c1e",
                    "callData": "0x0000000000000000000000000000000000000000000000000000000ab81a515a0000000000000000000000000000000000000000000000000000000000000012",
                    "decodedMethod": null,
                    "errorInfo": "",
                    "fromAddress": "0x9e6b460de0a61d3eb836021283cd15a89fe2fb91",
                    "gasUsed": 1790,
                    "id": 15,
                    "methodDecoded": false,
                    "operation": "DELEGATECALL",
                    "output": "0x00000000000000000000000000000000000000000000000000a38faf93d38a80",
                    "revert": false,
                    "revertMessage": "",
                    "selector": "0xd6c1528b",
                    "status": true,
                    "value": "0"
                },
                "nodeType": 0
            },
            "16": {
                "invocation": {
                    "address": "0x4804b8bc5112fd4216824c2673ee792f180a1c1e",
                    "callData": "0x000000000000000000000000000000000000000000000000000000000001699b",
                    "decodedMethod": {
                        "callParams": [
                            {
                                "name": "x",
                                "type": "int256",
                                "value": "92,571"
                            }
                        ],
                        "constructorArguments": "",
                        "name": "newFixed",
                        "returnParams": [
                            {
                                "name": "",
                                "type": "int256",
                                "value": "92,571,000,000,000,000,000,000,000,000"
                            }
                        ],
                        "signature": "newFixed(int256)"
                    },
                    "errorInfo": "",
                    "fromAddress": "0x9e6b460de0a61d3eb836021283cd15a89fe2fb91",
                    "gasUsed": 868,
                    "id": 16,
                    "methodDecoded": true,
                    "operation": "DELEGATECALL",
                    "output": "0x00000000000000000000000000000000000000012b1cefbd75312be97b000000",
                    "revert": false,
                    "revertMessage": "",
                    "selector": "0xbd5cbd62",
                    "status": true,
                    "value": "0"
                },
                "nodeType": 0
            },
            "17": {
                "invocation": {
                    "address": "0x4804b8bc5112fd4216824c2673ee792f180a1c1e",
                    "callData": "0x00000000000000000000000000000000000000000000000000a38faf93d38a8000000000000000000000000000000000000000012b1cefbd75312be97b000000",
                    "decodedMethod": {
                        "callParams": [
                            {
                                "name": "n1",
                                "type": "int256",
                                "value": "46,038,405,466,000,000"
                            },
                            {
                                "name": "n2",
                                "type": "int256",
                                "value": "92,571,000,000,000,000,000,000,000,000"
                            }
                        ],
                        "constructorArguments": "",
                        "name": "multiply",
                        "returnParams": [
                            {
                                "name": "",
                                "type": "int256",
                                "value": "4,261,821,232,393,086,000,000"
                            }
                        ],
                        "signature": "multiply(int256,int256)"
                    },
                    "errorInfo": "",
                    "fromAddress": "0x9e6b460de0a61d3eb836021283cd15a89fe2fb91",
                    "gasUsed": 2230,
                    "id": 17,
                    "methodDecoded": true,
                    "operation": "DELEGATECALL",
                    "output": "0x0000000000000000000000000000000000000000000000e708a696c3cf635b80",
                    "revert": false,
                    "revertMessage": "",
                    "selector": "0x3c4308a8",
                    "status": true,
                    "value": "0"
                },
                "nodeType": 0
            },
            "18": {
                "invocation": {
                    "address": "0x4804b8bc5112fd4216824c2673ee792f180a1c1e",
                    "callData": "0x0000000000000000000000000000000000000000000000000000000000000002",
                    "decodedMethod": {
                        "callParams": [
                            {
                                "name": "x",
                                "type": "int256",
                                "value": "2"
                            }
                        ],
                        "constructorArguments": "",
                        "name": "newFixed",
                        "returnParams": [
                            {
                                "name": "",
                                "type": "int256",
                                "value": "2,000,000,000,000,000,000,000,000"
                            }
                        ],
                        "signature": "newFixed(int256)"
                    },
                    "errorInfo": "",
                    "fromAddress": "0x9e6b460de0a61d3eb836021283cd15a89fe2fb91",
                    "gasUsed": 868,
                    "id": 18,
                    "methodDecoded": true,
                    "operation": "DELEGATECALL",
                    "output": "0x00000000000000000000000000000000000000000001a784379d99db42000000",
                    "revert": false,
                    "revertMessage": "",
                    "selector": "0xbd5cbd62",
                    "status": true,
                    "value": "0"
                },
                "nodeType": 0
            },
            "19": {
                "invocation": {
                    "address": "0x4804b8bc5112fd4216824c2673ee792f180a1c1e",
                    "callData": "0x0000000000000000000000000000000000000000000000e708a696c3cf635b8000000000000000000000000000000000000000000001a784379d99db42000000",
                    "decodedMethod": {
                        "callParams": [
                            {
                                "name": "n1",
                                "type": "int256",
                                "value": "4,261,821,232,393,086,000,000"
                            },
                            {
                                "name": "n2",
                                "type": "int256",
                                "value": "2,000,000,000,000,000,000,000,000"
                            }
                        ],
                        "constructorArguments": "",
                        "name": "multiply",
                        "returnParams": [
                            {
                                "name": "",
                                "type": "int256",
                                "value": "8,523,642,464,786,172,000,000"
                            }
                        ],
                        "signature": "multiply(int256,int256)"
                    },
                    "errorInfo": "",
                    "fromAddress": "0x9e6b460de0a61d3eb836021283cd15a89fe2fb91",
                    "gasUsed": 2230,
                    "id": 19,
                    "methodDecoded": true,
                    "operation": "DELEGATECALL",
                    "output": "0x0000000000000000000000000000000000000000000001ce114d2d879ec6b700",
                    "revert": false,
                    "revertMessage": "",
                    "selector": "0x3c4308a8",
                    "status": true,
                    "value": "0"
                },
                "nodeType": 0
            },
            "2": {
                "invocation": {
                    "address": "0x4804b8bc5112fd4216824c2673ee792f180a1c1e",
                    "callData": "0x00000000000000000000000000002deaf189c140c16b7c528f6790000000000000000000000000000000000000000000000000000000d3c21bcecceda1000000",
                    "decodedMethod": {
                        "callParams": [
                            {
                                "name": "n1",
                                "type": "int256",
                                "value": "4,000,000,000,000,000,000,000,000,000,000,000,000,000,000"
                            },
                            {
                                "name": "n2",
                                "type": "int256",
                                "value": "1,000,000,000,000,000,000,000,000"
                            }
                        ],
                        "constructorArguments": "",
                        "name": "multiply",
                        "returnParams": [
                            {
                                "name": "",
                                "type": "int256",
                                "value": "4,000,000,000,000,000,000,000,000,000,000,000,000,000,000"
                            }
                        ],
                        "signature": "multiply(int256,int256)"
                    },
                    "errorInfo": "",
                    "fromAddress": "0x9e6b460de0a61d3eb836021283cd15a89fe2fb91",
                    "gasUsed": 544,
                    "id": 2,
                    "methodDecoded": true,
                    "operation": "DELEGATECALL",
                    "output": "0x00000000000000000000000000002deaf189c140c16b7c528f67900000000000",
                    "revert": false,
                    "revertMessage": "",
                    "selector": "0x3c4308a8",
                    "status": true,
                    "value": "0"
                },
                "nodeType": 0
            },
            "20": {
                "invocation": {
                    "address": "0x4804b8bc5112fd4216824c2673ee792f180a1c1e",
                    "callData": "0x0000000000000000000000000000000000000000000000000000000000000001",
                    "decodedMethod": {
                        "callParams": [
                            {
                                "name": "x",
                                "type": "int256",
                                "value": "1"
                            }
                        ],
                        "constructorArguments": "",
                        "name": "newFixed",
                        "returnParams": [
                            {
                                "name": "",
                                "type": "int256",
                                "value": "1,000,000,000,000,000,000,000,000"
                            }
                        ],
                        "signature": "newFixed(int256)"
                    },
                    "errorInfo": "",
                    "fromAddress": "0x9e6b460de0a61d3eb836021283cd15a89fe2fb91",
                    "gasUsed": 868,
                    "id": 20,
                    "methodDecoded": true,
                    "operation": "DELEGATECALL",
                    "output": "0x00000000000000000000000000000000000000000000d3c21bcecceda1000000",
                    "revert": false,
                    "revertMessage": "",
                    "selector": "0xbd5cbd62",
                    "status": true,
                    "value": "0"
                },
                "nodeType": 0
            },
            "21": {
                "invocation": {
                    "address": "0x4804b8bc5112fd4216824c2673ee792f180a1c1e",
                    "callData": "0x0000000000000000000000000000000000000000000001ce114d2d879ec6b70000000000000000000000000000000000000000000000d3c21bcecceda1000000",
                    "decodedMethod": {
                        "callParams": [
                            {
                                "name": "a",
                                "type": "int256",
                                "value": "8,523,642,464,786,172,000,000"
                            },
                            {
                                "name": "b",
                                "type": "int256",
                                "value": "1,000,000,000,000,000,000,000,000"
                            }
                        ],
                        "constructorArguments": "",
                        "name": "add",
                        "returnParams": [
                            {
                                "name": "",
                                "type": "int256",
                                "value": "1,008,523,642,464,786,172,000,000"
                            }
                        ],
                        "signature": "add(int256,int256)"
                    },
                    "errorInfo": "",
                    "fromAddress": "0x9e6b460de0a61d3eb836021283cd15a89fe2fb91",
                    "gasUsed": 868,
                    "id": 21,
                    "methodDecoded": true,
                    "operation": "DELEGATECALL",
                    "output": "0x00000000000000000000000000000000000000000000d5902d1bfa753fc6b700",
                    "revert": false,
                    "revertMessage": "",
                    "selector": "0xa5f3c23b",
                    "status": true,
                    "value": "0"
                },
                "nodeType": 0
            },
            "22": {
                "invocation": {
                    "address": "0x4804b8bc5112fd4216824c2673ee792f180a1c1e",
                    "callData": "0x000000000000000000009abe14cd44753b52c4926a9672793542d78c3615cf3a00000000000000000000000000000000000000000000d5902d1bfa753fc6b700",
                    "decodedMethod": {
                        "callParams": [
                            {
                                "name": "n1",
                                "type": "int256",
                                "value": "57,896,044,618,658,097,711,785,492,504,343,953,926,634,992,332,820,282"
                            },
                            {
                                "name": "n2",
                                "type": "int256",
                                "value": "1,008,523,642,464,786,172,000,000"
                            }
                        ],
                        "constructorArguments": "",
                        "name": "divide",
                        "returnParams": [
                            {
                                "name": "",
                                "type": "int256",
                                "value": "57,406,730,175,569,095,232,420,749,747,464,106,249,542,118,379,615,580"
                            }
                        ],
                        "signature": "divide(int256,int256)"
                    },
                    "errorInfo": "",
                    "fromAddress": "0x9e6b460de0a61d3eb836021283cd15a89fe2fb91",
                    "gasUsed": 3118,
                    "id": 22,
                    "methodDecoded": true,
                    "operation": "DELEGATECALL",
                    "output": "0x00000000000000000000996f475ac82a0a9bfad19ed69510064f90ab6eebf55c",
                    "revert": false,
                    "revertMessage": "",
                    "selector": "0xf5984236",
                    "status": true,
                    "value": "0"
                },
                "nodeType": 0
            },
            "23": {
                "event": {
                    "contract": "0x9e6b460de0a61d3eb836021283cd15a89fe2fb91",
                    "decodedLog": {
                        "name": "BoughtTickets",
                        "params": [
                            {
                                "name": "sender",
                                "type": "address",
                                "value": "0xb83632350f631a58a18f798dc4e81b42443c0a8c"
                            },
                            {
                                "name": "count",
                                "type": "int256",
                                "value": "1"
                            },
                            {
                                "name": "totalPrice",
                                "type": "uint256",
                                "value": "4,000,000,000,000,000,000"
                            }
                        ],
                        "signature": "BoughtTickets(address,int256,uint256)"
                    },
                    "id": 23,
                    "logData": "0x00000000000000000000000000000000000000000000000000000000000000010000000000000000000000000000000000000000000000003782dace9d900000",
                    "logDecoded": true,
                    "operation": "EVENT",
                    "revert": false,
                    "status": true,
                    "topics": [
                        "0xbae340cbbad65e770c316b0667f457021a64c3d9bd20aa1361bf0f9ca3ef459e",
                        "0x000000000000000000000000b83632350f631a58a18f798dc4e81b42443c0a8c"
                    ]
                },
                "nodeType": 1
            },
            "3": {
                "invocation": {
                    "address": "0x4804b8bc5112fd4216824c2673ee792f180a1c1e",
                    "callData": "0x00000000000000000000000000002deaf189c140c16b7c528f67900000000000",
                    "decodedMethod": {
                        "callParams": [
                            {
                                "name": "x",
                                "type": "int256",
                                "value": "4,000,000,000,000,000,000,000,000,000,000,000,000,000,000"
                            }
                        ],
                        "constructorArguments": "",
                        "name": "fromFixed",
                        "returnParams": [
                            {
                                "name": "",
                                "type": "int256",
                                "value": "4,000,000,000,000,000,000"
                            }
                        ],
                        "signature": "fromFixed(int256)"
                    },
                    "errorInfo": "",
                    "fromAddress": "0x9e6b460de0a61d3eb836021283cd15a89fe2fb91",
                    "gasUsed": 345,
                    "id": 3,
                    "methodDecoded": true,
                    "operation": "DELEGATECALL",
                    "output": "0x0000000000000000000000000000000000000000000000003782dace9d900000",
                    "revert": false,
                    "revertMessage": "",
                    "selector": "0x0e998993",
                    "status": true,
                    "value": "0"
                },
                "nodeType": 0
            },
            "4": {
                "invocation": {
                    "address": "0x89d24a6b4ccb1b6faa2625fe562bdd9a23260359",
                    "callData": "0x000000000000000000000000b83632350f631a58a18f798dc4e81b42443c0a8c0000000000000000000000009e6b460de0a61d3eb836021283cd15a89fe2fb910000000000000000000000000000000000000000000000003782dace9d900000",
                    "decodedMethod": {
                        "callParams": [
                            {
                                "name": "src",
                                "type": "address",
                                "value": "0xb83632350f631a58a18f798dc4e81b42443c0a8c"
                            },
                            {
                                "name": "dst",
                                "type": "address",
                                "value": "0x9e6b460de0a61d3eb836021283cd15a89fe2fb91"
                            },
                            {
                                "decimalAvailable": true,
                                "name": "wad",
                                "type": "uint256",
                                "value": "4,000,000,000,000,000,000"
                            }
                        ],
                        "constructorArguments": "",
                        "name": "transferFrom",
                        "returnParams": [
                            {
                                "name": "",
                                "type": "bool",
                                "value": true
                            }
                        ],
                        "signature": "transferFrom(address,address,uint256)"
                    },
                    "errorInfo": "",
                    "fromAddress": "0x9e6b460de0a61d3eb836021283cd15a89fe2fb91",
                    "gasUsed": 19976,
                    "id": 4,
                    "methodDecoded": true,
                    "operation": "CALL",
                    "output": "0x0000000000000000000000000000000000000000000000000000000000000001",
                    "revert": false,
                    "revertMessage": "",
                    "selector": "0x23b872dd",
                    "status": true,
                    "value": "0"
                },
                "nodeType": 0
            },
            "5": {
                "event": {
                    "contract": "0x89d24a6b4ccb1b6faa2625fe562bdd9a23260359",
                    "decodedLog": {
                        "name": "Transfer",
                        "params": [
                            {
                                "name": "src",
                                "type": "address",
                                "value": "0xb83632350f631a58a18f798dc4e81b42443c0a8c"
                            },
                            {
                                "name": "dst",
                                "type": "address",
                                "value": "0x9e6b460de0a61d3eb836021283cd15a89fe2fb91"
                            },
                            {
                                "decimalAvailable": true,
                                "name": "wad",
                                "type": "uint256",
                                "value": "4,000,000,000,000,000,000"
                            }
                        ],
                        "signature": "Transfer(address,address,uint256)"
                    },
                    "id": 5,
                    "logData": "0x0000000000000000000000000000000000000000000000003782dace9d900000",
                    "logDecoded": true,
                    "operation": "EVENT",
                    "revert": false,
                    "status": true,
                    "topics": [
                        "0xddf252ad1be2c89b69c2b068fc378daa952ba7f163c4a11628f55a4df523b3ef",
                        "0x000000000000000000000000b83632350f631a58a18f798dc4e81b42443c0a8c",
                        "0x0000000000000000000000009e6b460de0a61d3eb836021283cd15a89fe2fb91"
                    ]
                },
                "nodeType": 1
            },
            "6": {
                "invocation": {
                    "address": "0x4804b8bc5112fd4216824c2673ee792f180a1c1e",
                    "callData": "0x0000000000000000000000000001416c9ac448c549f06641ebd4f0000000000000000000000000000000000000002deaf189c140c16b7c528f67900000000000",
                    "decodedMethod": {
                        "callParams": [
                            {
                                "name": "a",
                                "type": "int256",
                                "value": "28,000,000,000,000,000,000,000,000,000,000,000,000,000,000"
                            },
                            {
                                "name": "b",
                                "type": "int256",
                                "value": "4,000,000,000,000,000,000,000,000,000,000,000,000,000,000"
                            }
                        ],
                        "constructorArguments": "",
                        "name": "add",
                        "returnParams": [
                            {
                                "name": "",
                                "type": "int256",
                                "value": "32,000,000,000,000,000,000,000,000,000,000,000,000,000,000"
                            }
                        ],
                        "signature": "add(int256,int256)"
                    },
                    "errorInfo": "",
                    "fromAddress": "0x9e6b460de0a61d3eb836021283cd15a89fe2fb91",
                    "gasUsed": 868,
                    "id": 6,
                    "methodDecoded": true,
                    "operation": "DELEGATECALL",
                    "output": "0x00000000000000000000000000016f578c4e0a060b5be2947b3c800000000000",
                    "revert": false,
                    "revertMessage": "",
                    "selector": "0xa5f3c23b",
                    "status": true,
                    "value": "0"
                },
                "nodeType": 0
            },
            "7": {
                "invocation": {
                    "address": "0x4804b8bc5112fd4216824c2673ee792f180a1c1e",
                    "callData": "0x00000000000000000000000000016f578c4e0a060b5be2947b3c800000000000",
                    "decodedMethod": {
                        "callParams": [
                            {
                                "name": "x",
                                "type": "int256",
                                "value": "32,000,000,000,000,000,000,000,000,000,000,000,000,000,000"
                            }
                        ],
                        "constructorArguments": "",
                        "name": "fromFixed",
                        "returnParams": [
                            {
                                "name": "",
                                "type": "int256",
                                "value": "32,000,000,000,000,000,000"
                            }
                        ],
                        "signature": "fromFixed(int256)"
                    },
                    "errorInfo": "",
                    "fromAddress": "0x9e6b460de0a61d3eb836021283cd15a89fe2fb91",
                    "gasUsed": 345,
                    "id": 7,
                    "methodDecoded": true,
                    "operation": "DELEGATECALL",
                    "output": "0x000000000000000000000000000000000000000000000001bc16d674ec800000",
                    "revert": false,
                    "revertMessage": "",
                    "selector": "0x0e998993",
                    "status": true,
                    "value": "0"
                },
                "nodeType": 0
            },
            "8": {
                "invocation": {
                    "address": "0xe48cc097c45339c94e272e04ca55790ee63d16f1",
                    "callData": "0x0000000000000000000000000000000000000000000000000000000000000074506f6f6c506f6f6c000000000000000000000000000000000000000000000000000000000000000000000000000000000000000000000001bc16d674ec800000000000000000000000000000b83632350f631a58a18f798dc4e81b42443c0a8c",
                    "decodedMethod": null,
                    "errorInfo": "",
                    "fromAddress": "0x9e6b460de0a61d3eb836021283cd15a89fe2fb91",
                    "gasUsed": 32092,
                    "id": 8,
                    "methodDecoded": false,
                    "operation": "DELEGATECALL",
                    "output": "",
                    "revert": false,
                    "revertMessage": "",
                    "selector": "0x2e25c38a",
                    "status": true,
                    "value": "0"
                },
                "nodeType": 0
            },
            "9": {
                "invocation": {
                    "address": "0x4804b8bc5112fd4216824c2673ee792f180a1c1e",
                    "callData": "0x0000000000000000000000000674ae217c1998b19aa4a3857170e0000000000000000000000000000000000000002deaf189c140c16b7c528f67900000000000",
                    "decodedMethod": {
                        "callParams": [
                            {
                                "name": "a",
                                "type": "int256",
                                "value": "36,856,000,000,000,000,000,000,000,000,000,000,000,000,000,000"
                            },
                            {
                                "name": "b",
                                "type": "int256",
                                "value": "4,000,000,000,000,000,000,000,000,000,000,000,000,000,000"
                            }
                        ],
                        "constructorArguments": "",
                        "name": "add",
                        "returnParams": [
                            {
                                "name": "",
                                "type": "int256",
                                "value": "36,860,000,000,000,000,000,000,000,000,000,000,000,000,000,000"
                            }
                        ],
                        "signature": "add(int256,int256)"
                    },
                    "errorInfo": "",
                    "fromAddress": "0x9e6b460de0a61d3eb836021283cd15a89fe2fb91",
                    "gasUsed": 868,
                    "id": 9,
                    "methodDecoded": true,
                    "operation": "DELEGATECALL",
                    "output": "0x0000000000000000000000000674dc0c6da359f25c101fd800d8700000000000",
                    "revert": false,
                    "revertMessage": "",
                    "selector": "0xa5f3c23b",
                    "status": true,
                    "value": "0"
                },
                "nodeType": 0
            }
        },
        "gasFlame": [
            {
                "children": [
                    {
                        "children": [
                            {
                                "children": [],
                                "depth": 0,
                                "name": "Initial Gas",
                                "value": 21464
                            },
                            {
                                "children": [
                                    {
                                        "children": [],
                                        "depth": 1,
                                        "name": "newFixed",
                                        "value": 868
                                    },
                                    {
                                        "children": [],
                                        "depth": 1,
                                        "name": "multiply",
                                        "value": 544
                                    },
                                    {
                                        "children": [],
                                        "depth": 1,
                                        "name": "fromFixed",
                                        "value": 345
                                    },
                                    {
                                        "children": [],
                                        "depth": 1,
                                        "name": "transferFrom",
                                        "value": 19976
                                    },
                                    {
                                        "children": [],
                                        "depth": 1,
                                        "name": "add",
                                        "value": 868
                                    },
                                    {
                                        "children": [],
                                        "depth": 1,
                                        "name": "fromFixed",
                                        "value": 345
                                    },
                                    {
                                        "children": [],
                                        "depth": 1,
                                        "name": "0x2e25c38a",
                                        "value": 32092
                                    },
                                    {
                                        "children": [],
                                        "depth": 1,
                                        "name": "add",
                                        "value": 868
                                    },
                                    {
                                        "children": [],
                                        "depth": 1,
                                        "name": "maxFixedDiv",
                                        "value": 429
                                    },
                                    {
                                        "children": [
                                            {
                                                "children": [],
                                                "depth": 2,
                                                "name": "balanceOf",
                                                "value": 815
                                            },
                                            {
                                                "children": [],
                                                "depth": 2,
                                                "name": "balanceOf",
                                                "value": 815
                                            },
                                            {
                                                "children": [],
                                                "depth": 2,
                                                "name": "getBorrowRate",
                                                "value": 4203
                                            }
                                        ],
                                        "depth": 1,
                                        "name": "supplyRatePerBlock",
                                        "value": 18946
                                    },
                                    {
                                        "children": [],
                                        "depth": 1,
                                        "name": "0xd6c1528b",
                                        "value": 1790
                                    },
                                    {
                                        "children": [],
                                        "depth": 1,
                                        "name": "newFixed",
                                        "value": 868
                                    },
                                    {
                                        "children": [],
                                        "depth": 1,
                                        "name": "multiply",
                                        "value": 2230
                                    },
                                    {
                                        "children": [],
                                        "depth": 1,
                                        "name": "newFixed",
                                        "value": 868
                                    },
                                    {
                                        "children": [],
                                        "depth": 1,
                                        "name": "multiply",
                                        "value": 2230
                                    },
                                    {
                                        "children": [],
                                        "depth": 1,
                                        "name": "newFixed",
                                        "value": 868
                                    },
                                    {
                                        "children": [],
                                        "depth": 1,
                                        "name": "add",
                                        "value": 868
                                    },
                                    {
                                        "children": [],
                                        "depth": 1,
                                        "name": "divide",
                                        "value": 3118
                                    }
                                ],
                                "depth": 0,
                                "name": "Executed Gas",
                                "value": 139012
                            }
                        ],
                        "depth": -1,
                        "name": "Actual Gas Used",
                        "value": 160476
                    },
                    {
                        "children": [],
                        "depth": -1,
                        "name": "Refunded Gas",
                        "value": 0
                    }
                ],
                "depth": -2,
                "name": "Total Gas",
                "value": 160476
            }
        ],
        "isConfirmed": true,
        "mainTrace": [
            {
                "children": [
                    {
                        "children": [
                            {
                                "children": [],
                                "depth": 1,
                                "id": 1,
                                "order": 1
                            },
                            {
                                "children": [],
                                "depth": 1,
                                "id": 2,
                                "order": 2
                            },
                            {
                                "children": [],
                                "depth": 1,
                                "id": 3,
                                "order": 3
                            },
                            {
                                "children": [
                                    {
                                        "children": [],
                                        "depth": 2,
                                        "id": 5,
                                        "order": 5
                                    }
                                ],
                                "depth": 1,
                                "id": 4,
                                "order": 4
                            },
                            {
                                "children": [],
                                "depth": 1,
                                "id": 6,
                                "order": 6
                            },
                            {
                                "children": [],
                                "depth": 1,
                                "id": 7,
                                "order": 7
                            },
                            {
                                "children": [],
                                "depth": 1,
                                "id": 8,
                                "order": 8
                            },
                            {
                                "children": [],
                                "depth": 1,
                                "id": 9,
                                "order": 9
                            },
                            {
                                "children": [],
                                "depth": 1,
                                "id": 10,
                                "order": 10
                            },
                            {
                                "children": [
                                    {
                                        "children": [],
                                        "depth": 2,
                                        "id": 12,
                                        "order": 12
                                    },
                                    {
                                        "children": [],
                                        "depth": 2,
                                        "id": 13,
                                        "order": 13
                                    },
                                    {
                                        "children": [],
                                        "depth": 2,
                                        "id": 14,
                                        "order": 14
                                    }
                                ],
                                "depth": 1,
                                "id": 11,
                                "order": 11
                            },
                            {
                                "children": [],
                                "depth": 1,
                                "id": 15,
                                "order": 15
                            },
                            {
                                "children": [],
                                "depth": 1,
                                "id": 16,
                                "order": 16
                            },
                            {
                                "children": [],
                                "depth": 1,
                                "id": 17,
                                "order": 17
                            },
                            {
                                "children": [],
                                "depth": 1,
                                "id": 18,
                                "order": 18
                            },
                            {
                                "children": [],
                                "depth": 1,
                                "id": 19,
                                "order": 19
                            },
                            {
                                "children": [],
                                "depth": 1,
                                "id": 20,
                                "order": 20
                            },
                            {
                                "children": [],
                                "depth": 1,
                                "id": 21,
                                "order": 21
                            },
                            {
                                "children": [],
                                "depth": 1,
                                "id": 22,
                                "order": 22
                            },
                            {
                                "children": [],
                                "depth": 1,
                                "id": 23,
                                "order": 23
                            }
                        ],
                        "depth": 0,
                        "id": 0,
                        "order": 0
                    }
                ],
                "depth": -1,
                "id": -1,
                "order": -1
            }
        ],
        "mainTraceNodeCount": 24,
        "parentIdMap": {
            "0": -1,
            "1": 0,
            "10": 0,
            "11": 0,
            "12": 11,
            "13": 11,
            "14": 11,
            "15": 0,
            "16": 0,
            "17": 0,
            "18": 0,
            "19": 0,
            "2": 0,
            "20": 0,
            "21": 0,
            "22": 0,
            "23": 0,
            "3": 0,
            "4": 0,
            "5": 4,
            "6": 0,
            "7": 0,
            "8": 0,
            "9": 0
        },
        "tidyTrace": [
            {
                "children": [
                    {
                        "children": [
                            {
                                "children": [],
                                "depth": 1,
                                "id": 1,
                                "order": 1
                            },
                            {
                                "children": [],
                                "depth": 1,
                                "id": 2,
                                "order": 2
                            },
                            {
                                "children": [],
                                "depth": 1,
                                "id": 3,
                                "order": 3
                            },
                            {
                                "children": [
                                    {
                                        "children": [],
                                        "depth": 2,
                                        "id": 5,
                                        "order": 5
                                    }
                                ],
                                "depth": 1,
                                "id": 4,
                                "order": 4
                            },
                            {
                                "children": [],
                                "depth": 1,
                                "id": 6,
                                "order": 6
                            },
                            {
                                "children": [],
                                "depth": 1,
                                "id": 7,
                                "order": 7
                            },
                            {
                                "children": [],
                                "depth": 1,
                                "id": 8,
                                "order": 8
                            },
                            {
                                "children": [],
                                "depth": 1,
                                "id": 9,
                                "order": 9
                            },
                            {
                                "children": [],
                                "depth": 1,
                                "id": 10,
                                "order": 10
                            },
                            {
                                "children": [],
                                "depth": 1,
                                "id": 15,
                                "order": 15
                            },
                            {
                                "children": [],
                                "depth": 1,
                                "id": 16,
                                "order": 16
                            },
                            {
                                "children": [],
                                "depth": 1,
                                "id": 17,
                                "order": 17
                            },
                            {
                                "children": [],
                                "depth": 1,
                                "id": 18,
                                "order": 18
                            },
                            {
                                "children": [],
                                "depth": 1,
                                "id": 19,
                                "order": 19
                            },
                            {
                                "children": [],
                                "depth": 1,
                                "id": 20,
                                "order": 20
                            },
                            {
                                "children": [],
                                "depth": 1,
                                "id": 21,
                                "order": 21
                            },
                            {
                                "children": [],
                                "depth": 1,
                                "id": 22,
                                "order": 22
                            },
                            {
                                "children": [],
                                "depth": 1,
                                "id": 23,
                                "order": 23
                            }
                        ],
                        "depth": 0,
                        "id": 0,
                        "order": 0
                    }
                ],
                "depth": -1,
                "id": -1,
                "order": -1
            }
        ],
        "tidyTraceNodeCount": 20
    },
    "state_change": {
        "stateChanges": [
            {
                "address": "0x89d24a6b4ccb1b6faa2625fe562bdd9a23260359",
                "erc": "ERC-20",
                "slots": [
                    {
                        "current": "0x00000000000000000000000000000002f050fe938943acc2a34e800b13800000",
                        "key": "0x1ac37f631dab5133f9b00210eb675b159022d651c0b1faa028d0beb9b7cdd0dd",
                        "prev": "0x00000000000000000000000000000002f050fe938943acc2dad15ad9b1100000"
                    },
                    {
                        "current": "0x0000000000000000000000000000000000000000000000000145a0c8351567aa",
                        "key": "0x2f6b8d7ff58e36e3e61fe27fa52d605a77f808a13df06358f3dc3a0e3ec31579",
                        "prev": "0x00000000000000000000000000000000000000000000000038c87b96d2a567aa"
                    },
                    {
                        "current": "0x0000000000000000000000000000000000000000000007ce66c50e2840000000",
                        "key": "0x15338bfa3738c1c6a2b118010b4c08f4b71e93d9101cd16e2fe6fa6b586997c3",
                        "prev": "0x0000000000000000000000000000000000000000000007ce2f423359a2700000"
                    }
                ],
                "storageVariables": [
                    {
                        "name": "_approvals",
                        "type": "mapping(address => mapping(address => uint256))",
                        "value": {
                            "pairs": [
                                {
                                    "key": "0xb83632350f631a58a18f798dc4e81b42443c0a8c",
                                    "value": {
                                        "pairs": [
                                            {
                                                "key": "0x9e6b460de0a61d3eb836021283cd15a89fe2fb91",
                                                "value": {
                                                    "current": "999999999999999999968000000000000000000",
                                                    "prev": "999999999999999999972000000000000000000",
                                                    "typeTag": 1
                                                }
                                            }
                                        ],
                                        "typeTag": 4
                                    }
                                }
                            ],
                            "typeTag": 4
                        }
                    },
                    {
                        "name": "_balances",
                        "type": "mapping(address => uint256)",
                        "value": {
                            "pairs": [
                                {
                                    "key": "0x9e6b460de0a61d3eb836021283cd15a89fe2fb91",
                                    "value": {
                                        "current": "36864000000000000000000",
                                        "prev": "36860000000000000000000",
                                        "typeTag": 1
                                    }
                                },
                                {
                                    "key": "0xb83632350f631a58a18f798dc4e81b42443c0a8c",
                                    "value": {
                                        "current": "91656149175461802",
                                        "prev": "4091656149175461802",
                                        "typeTag": 1
                                    }
                                }
                            ],
                            "typeTag": 4
                        }
                    }
                ]
            },
            {
                "address": "0x9e6b460de0a61d3eb836021283cd15a89fe2fb91",
                "erc": "",
                "slots": [
                    {
                        "current": "0x0000000000000000000000000000000000000000000007ce2f423359a2700000",
                        "key": "0xd2341cc49faf78baffc7eef74b119884e24bb292d4055ebd2ad217d956327587",
                        "prev": "0x0000000000000000000000000000000000000000000007cdf7bf588b04e00000"
                    },
                    {
                        "current": "0x000000000000000000000000000000000000000000000001bc16d674ec800000",
                        "key": "0xd2341cc49faf78baffc7eef74b119884e24bb292d4055ebd2ad217d95632766e",
                        "prev": "0x0000000000000000000000000000000000000000000000018493fba64ef00000"
                    },
                    {
                        "current": "0x00000000000000000000000000000000000000000000000e18398e7601900000",
                        "key": "0xd2341cc49faf78baffc7eef74b119884e24bb292d4055ebd2ad217d9563275c0",
                        "prev": "0x00000000000000000000000000000000000000000000000de0b6b3a764000000"
                    },
                    {
                        "current": "0x0000000000000000000000000000000000000000000000ad78ebc5ac62000000",
                        "key": "0xd2341cc49faf78baffc7eef74b119884e24bb292d4055ebd2ad217d956327595",
                        "prev": "0x0000000000000000000000000000000000000000000000ad4168eaddc4700000"
                    },
                    {
                        "current": "0x000000000000000000000000000000000000000000000138088bef67ac700000",
                        "key": "0xd2341cc49faf78baffc7eef74b119884e24bb292d4055ebd2ad217d95632758a",
                        "prev": "0x000000000000000000000000000000000000000000000137d10914990ee00000"
                    },
                    {
                        "current": "0x0000000000000000000000000674dc0c6da359f25c101fd800d8700000000000",
                        "key": "0x0000000000000000000000000000000000000000000000000000000000000066",
                        "prev": "0x0000000000000000000000000674ae217c1998b19aa4a3857170e00000000000"
                    },
                    {
                        "current": "0x00000000000000000000000000016f578c4e0a060b5be2947b3c800000000000",
                        "key": "0x690468805853b3cbb2b5518497cbe94441dce179de701a9c6f81730cd02c142d",
                        "prev": "0x0000000000000000000000000001416c9ac448c549f06641ebd4f00000000000"
                    },
                    {
                        "current": "0x0000000000000000000000000000000000000000000000000000000000000008",
                        "key": "0x690468805853b3cbb2b5518497cbe94441dce179de701a9c6f81730cd02c142e",
                        "prev": "0x0000000000000000000000000000000000000000000000000000000000000007"
                    }
                ],
                "storageVariables": []
            }
        ]
    }
}