{
    "balance_change": {
        "balanceChanges": []
    },
    "profile": {
        "basic_info": {
            "baseFee": "",
            "blockNumber": 12516770,
            "callData": "0x10154bad000000000000000000000000bba2cc0d38376019292342562480ce697370df81",
            "debugEnable": true,
            "errorInfo": "execution reverted",
            "eventCount": 0,
            "feeRecipient": "0x829bd824b016326a401d083b33d092293333a830",
            "formatValue": "0",
            "gasLimit": 50000,
            "gasPrice": "45.2",
            "gasUsed": 26476,
            "intTxnCount": 0,
            "internalRevert": false,
            "internalRevertMessage": "",
            "isContractCreation": false,
            "isFlashloan": false,
            "maxFee": "",
            "nonce": 727,
            "overwritedBlockNumber": -1,
            "priorityFee": "",
            "receiver": "0x354bf6f9d0fc58026494b18007a617f9a6596509",
            "revertMessage": "Roles: account already has role",
            "sender": "0x91fb47997a39eece542c88298112fb7d2cf96ebf",
            "simulationEnable": true,
            "sourceTxnHash": "0x8637efe436e77f8b1b55a464f95cfad021b9df00f00276c0709efabbdfe81d17",
            "status": false,
            "timestamp": "2021-05-27T14:01:01Z",
            "transactionFee": "0.0011967152",
            "txnHash": "0x8637efe436e77f8b1b55a464f95cfad021b9df00f00276c0709efabbdfe81d17",
            "txnIndex": 152,
            "type": 0,
            "value": "0"
        },
        "fund_flow": [],
        "token_infos": [
            {
                "address": "0xc02aaa39b223fe8d0a0e5c4f27ead9083c756cc2",
                "decimals": 18
            },
            {
                "address": "0xeeeeeeeeeeeeeeeeeeeeeeeeeeeeeeeeeeeeeeee",
                "decimals": 18
            }
        ]
    },
    "address_label": {
        "labels": [
            {
                "address": "0x0000000000000000000000000000000000000003",
                "label": "Precompiled"
            },
            {
                "address": "0x0000000000000000000000000000000000000004",
                "label": "Precompiled"
            },
            {
                "address": "0xeeeeeeeeeeeeeeeeeeeeeeeeeeeeeeeeeeeeeeee",
                "label": "Ether"
            },
            {
                "address": "0x0000000000000000000000000000000000000001",
                "label": "Precompiled"
            },
            {
                "address": "0x0000000000000000000000000000000000000002",
                "label": "Precompiled"
            }
        ]
    },
    "trace": {
        "accountLabels": null,
        "dataMap": {
            "-1": {
                "invocation": {
                    "address": "0x91fb47997a39eece542c88298112fb7d2cf96ebf",
                    "callData": "",
                    "decodedMethod": null,
                    "errorInfo": "",
                    "fromAddress": "",
                    "gasUsed": 0,
                    "id": -1,
                    "methodDecoded": false,
                    "operation": "",
                    "output": "",
                    "revert": false,
                    "revertMessage": "",
                    "selector": "",
                    "status": false,
                    "value": ""
                },
                "nodeType": 0
            },
            "0": {
                "invocation": {
                    "address": "0x354bf6f9d0fc58026494b18007a617f9a6596509",
                    "callData": "0x000000000000000000000000bba2cc0d38376019292342562480ce697370df81",
                    "decodedMethod": {
                        "callParams": [
                            {
                                "name": "account",
                                "type": "address",
                                "value": "0xbba2cc0d38376019292342562480ce697370df81"
                            }
                        ],
                        "constructorArguments": "",
                        "name": "addWhitelisted",
                        "returnParams": [],
                        "signature": "addWhitelisted(address)"
                    },
                    "errorInfo": "execution reverted",
                    "fromAddress": "0x91fb47997a39eece542c88298112fb7d2cf96ebf",
                    "gasUsed": 26476,
                    "id": 0,
                    "methodDecoded": true,
                    "operation": "CALL",
                    "output": "0x08c379a00000000000000000000000000000000000000000000000000000000000000020000000000000000000000000000000000000000000000000000000000000001f526f6c65733a206163636f756e7420616c72656164792068617320726f6c6500",
                    "revert": true,
                    "revertMessage": "Roles: account already has role",
                    "selector": "0x10154bad",
                    "status": false,
                    "value": "0"
                },
                "nodeType": 0
            }
        },
        "gasFlame": [
            {
                "children": [
                    {
                        "children": [
                            {
                                "children": [],
                                "depth": 0,
                                "name": "Initial Gas",
                                "value": 21432
                            },
                            {
                                "children": [],
                                "depth": 0,
                                "name": "Executed Gas",
                                "value": 5044
                            }
                        ],
                        "depth": -1,
                        "name": "Actual Gas Used",
                        "value": 26476
                    },
                    {
                        "children": [],
                        "depth": -1,
                        "name": "Refunded Gas",
                        "value": 0
                    }
                ],
                "depth": -2,
                "name": "Total Gas",
                "value": 26476
            }
        ],
        "isConfirmed": true,
        "mainTrace": [
            {
                "children": [
                    {
                        "children": [],
                        "depth": 0,
                        "id": 0,
                        "order": 0
                    }
                ],
                "depth": -1,
                "id": -1,
                "order": -1
            }
        ],
        "mainTraceNodeCount": 1,
        "parentIdMap": {
            "0": -1
        },
        "tidyTrace": [
            {
                "children": [
                    {
                        "children": [],
                        "depth": 0,
                        "id": 0,
                        "order": 0
                    }
                ],
                "depth": -1,
                "id": -1,
                "order": -1
            }
        ],
        "tidyTraceNodeCount": 1
    },
    "state_change": {
        "stateChanges": []
    }
}