{
    "balance_change": {
        "balanceChanges": []
    },
    "profile": {
        "basic_info": {
            "baseFee": "",
            "blockNumber": 12528325,
            "callData": "0x4e913cd900000000000000000000000000000000000000000000000000000000000154ef000000000000000000000000000000000000000000000000000000000000000000000000000000000000000000000000000000000000000000000000000000c00000000000000000000000000000000000000000000000000000000000000100000000000000000000000000000000000000000000000000000000000000020000000000000000000000000000000000000000000000000000000000000002200000000000000000000000000000000000000000000000000000000000000001137669f1894bc786ce9d10c96fc2a7adfa65ed9601367caed3c4d819d4cfeba800000000000000000000000000000000000000000000000000000000000000d80b00014b3c00014b3c0000279d0005000150c1734808684574e8290000000000000000000b0000398f0000398f00000001001d00010ee6b28000b3022710eb0000000000000000000b0000398f0000398f0000279d000500012cb417800a392a930b8b0000000000000000000b00014b3c00014b3c0000001a0011001d70fbcf09290022efd4800000000000000000000b00014b3c00014b3c00000018000f001d7c210b8765008322a3c0000000000000000000000000000000000000000000000000000000000000000000000000000000000000000000000000000000000000000000000000000000000000000000000000000000000000000000000000000000000000000000000000000000000000000000000000000000000000000000",
            "debugEnable": true,
            "errorInfo": "",
            "eventCount": 1,
            "feeRecipient": "0x5a0b54d5dc17e0aadc383d2db43b0a0d3e029c4c",
            "formatValue": "0",
            "gasLimit": 1300000,
            "gasPrice": "23.86875",
            "gasUsed": 174164,
            "intTxnCount": 10,
            "internalRevert": false,
            "internalRevertMessage": "",
            "isContractCreation": false,
            "isFlashloan": false,
            "maxFee": "",
            "nonce": 66944,
            "overwritedBlockNumber": -1,
            "priorityFee": "",
            "receiver": "0x8eca806aecc86ce90da803b080ca4e3a9b8097ad",
            "revertMessage": "",
            "sender": "0x042147bd43d3f59b3133ee08322b67e4e9f2fdb3",
            "simulationEnable": true,
            "sourceTxnHash": "0x860e97e9713ae00b62de679384043f602163e8d92e0f5b6ff6429918897120ae",
            "status": true,
            "timestamp": "2021-05-29T09:05:00Z",
            "transactionFee": "0.004157076975",
            "txnHash": "0x860e97e9713ae00b62de679384043f602163e8d92e0f5b6ff6429918897120ae",
            "txnIndex": 170,
            "type": 0,
            "value": "0"
        },
        "fund_flow": [],
        "token_infos": [
            {
                "address": "0xeeeeeeeeeeeeeeeeeeeeeeeeeeeeeeeeeeeeeeee",
                "decimals": 18
            },
            {
                "address": "0xc02aaa39b223fe8d0a0e5c4f27ead9083c756cc2",
                "decimals": 18
            }
        ]
    },
    "address_label": {
        "labels": [
            {
                "address": "0x2f70f6d864f8f597a0ef57addf24323dfab5797f",
                "label": "ZKSwap: ZKSync"
            },
            {
                "address": "0x27c229937745d697d28fc7853d1bfea7331edf56",
                "label": "0x27c2_Proxy"
            },
            {
                "address": "0x02ecef526f806f06357659ffd14834fe82ef4b04",
                "label": "0x02ec_Proxy"
            },
            {
                "address": "0x2c543ebd91dab7be40edb671d48cedf35a75e157",
                "label": "ZkSyncCommitBlock"
            },
            {
                "address": "0x9d3fdf9b4782753d12f6262bf22b6322608962b8",
                "label": "Governance"
            },
            {
                "address": "0x0000000000000000000000000000000000000001",
                "label": "Precompiled"
            },
            {
                "address": "0x0000000000000000000000000000000000000002",
                "label": "Precompiled"
            },
            {
                "address": "0x8eca806aecc86ce90da803b080ca4e3a9b8097ad",
                "label": "ZKSwap"
            },
            {
                "address": "0x0000000000000000000000000000000000000003",
                "label": "Precompiled"
            },
            {
                "address": "0x0000000000000000000000000000000000000004",
                "label": "Precompiled"
            },
            {
                "address": "0xeeeeeeeeeeeeeeeeeeeeeeeeeeeeeeeeeeeeeeee",
                "label": "Ether"
            }
        ]
    },
    "trace": {
        "accountLabels": null,
        "dataMap": {
            "-1": {
                "invocation": {
                    "address": "0x042147bd43d3f59b3133ee08322b67e4e9f2fdb3",
                    "callData": "",
                    "decodedMethod": null,
                    "errorInfo": "",
                    "fromAddress": "",
                    "gasUsed": 0,
                    "id": -1,
                    "methodDecoded": false,
                    "operation": "",
                    "output": "",
                    "revert": false,
                    "revertMessage": "",
                    "selector": "",
                    "status": false,
                    "value": ""
                },
                "nodeType": 0
            },
            "0": {
                "invocation": {
                    "address": "0x8eca806aecc86ce90da803b080ca4e3a9b8097ad",
                    "callData": "0x00000000000000000000000000000000000000000000000000000000000154ef000000000000000000000000000000000000000000000000000000000000000000000000000000000000000000000000000000000000000000000000000000c00000000000000000000000000000000000000000000000000000000000000100000000000000000000000000000000000000000000000000000000000000020000000000000000000000000000000000000000000000000000000000000002200000000000000000000000000000000000000000000000000000000000000001137669f1894bc786ce9d10c96fc2a7adfa65ed9601367caed3c4d819d4cfeba800000000000000000000000000000000000000000000000000000000000000d80b00014b3c00014b3c0000279d0005000150c1734808684574e8290000000000000000000b0000398f0000398f00000001001d00010ee6b28000b3022710eb0000000000000000000b0000398f0000398f0000279d000500012cb417800a392a930b8b0000000000000000000b00014b3c00014b3c0000001a0011001d70fbcf09290022efd4800000000000000000000b00014b3c00014b3c00000018000f001d7c210b8765008322a3c0000000000000000000000000000000000000000000000000000000000000000000000000000000000000000000000000000000000000000000000000000000000000000000000000000000000000000000000000000000000000000000000000000000000000000000000000000000000000000000",
                    "decodedMethod": {
                        "callParams": [
                            {
                                "name": "_blockNumber",
                                "type": "uint32",
                                "value": "87,279"
                            },
                            {
                                "name": "_feeAccount",
                                "type": "uint32",
                                "value": "0"
                            },
                            {
                                "name": "_newBlockInfo",
                                "type": "bytes32[]",
                                "value": [
                                    "0x137669f1894bc786ce9d10c96fc2a7adfa65ed9601367caed3c4d819d4cfeba8"
                                ]
                            },
                            {
                                "name": "_publicData",
                                "type": "bytes",
                                "value": "0x0b00014b3c00014b3c0000279d0005000150c1734808684574e8290000000000000000000b0000398f0000398f00000001001d00010ee6b28000b3022710eb0000000000000000000b0000398f0000398f0000279d000500012cb417800a392a930b8b0000000000000000000b00014b3c00014b3c0000001a0011001d70fbcf09290022efd4800000000000000000000b00014b3c00014b3c00000018000f001d7c210b8765008322a3c0000000000000000000000000000000000000000000000000000000000000000000000000000000000000000000"
                            },
                            {
                                "name": "_ethWitness",
                                "type": "bytes",
                                "value": "0x"
                            },
                            {
                                "name": "_ethWitnessSizes",
                                "type": "uint32[]",
                                "value": []
                            }
                        ],
                        "constructorArguments": "",
                        "name": "commitBlock",
                        "returnParams": [],
                        "signature": "commitBlock(uint32,uint32,bytes32[],bytes,bytes,uint32[])"
                    },
                    "errorInfo": "",
                    "fromAddress": "0x042147bd43d3f59b3133ee08322b67e4e9f2fdb3",
                    "gasUsed": 174164,
                    "id": 0,
                    "methodDecoded": true,
                    "operation": "CALL",
                    "output": "",
                    "revert": false,
                    "revertMessage": "",
                    "selector": "0x4e913cd9",
                    "status": true,
                    "value": "0"
                },
                "nodeType": 0
            },
            "1": {
                "invocation": {
                    "address": "0x2f70f6d864f8f597a0ef57addf24323dfab5797f",
                    "callData": "0x00000000000000000000000000000000000000000000000000000000000154ef000000000000000000000000000000000000000000000000000000000000000000000000000000000000000000000000000000000000000000000000000000c00000000000000000000000000000000000000000000000000000000000000100000000000000000000000000000000000000000000000000000000000000020000000000000000000000000000000000000000000000000000000000000002200000000000000000000000000000000000000000000000000000000000000001137669f1894bc786ce9d10c96fc2a7adfa65ed9601367caed3c4d819d4cfeba800000000000000000000000000000000000000000000000000000000000000d80b00014b3c00014b3c0000279d0005000150c1734808684574e8290000000000000000000b0000398f0000398f00000001001d00010ee6b28000b3022710eb0000000000000000000b0000398f0000398f0000279d000500012cb417800a392a930b8b0000000000000000000b00014b3c00014b3c0000001a0011001d70fbcf09290022efd4800000000000000000000b00014b3c00014b3c00000018000f001d7c210b8765008322a3c0000000000000000000000000000000000000000000000000000000000000000000000000000000000000000000000000000000000000000000000000000000000000000000000000000000000000000000000000000000000000000000000000000000000000000000000000000000000000000000",
                    "decodedMethod": {
                        "callParams": [
                            {
                                "name": "_blockNumber",
                                "type": "uint32",
                                "value": "87,279"
                            },
                            {
                                "name": "_feeAccount",
                                "type": "uint32",
                                "value": "0"
                            },
                            {
                                "name": "_newBlockInfo",
                                "type": "bytes32[]",
                                "value": [
                                    "0x137669f1894bc786ce9d10c96fc2a7adfa65ed9601367caed3c4d819d4cfeba8"
                                ]
                            },
                            {
                                "name": "_publicData",
                                "type": "bytes",
                                "value": "0x0b00014b3c00014b3c0000279d0005000150c1734808684574e8290000000000000000000b0000398f0000398f00000001001d00010ee6b28000b3022710eb0000000000000000000b0000398f0000398f0000279d000500012cb417800a392a930b8b0000000000000000000b00014b3c00014b3c0000001a0011001d70fbcf09290022efd4800000000000000000000b00014b3c00014b3c00000018000f001d7c210b8765008322a3c0000000000000000000000000000000000000000000000000000000000000000000000000000000000000000000"
                            },
                            {
                                "name": "_ethWitness",
                                "type": "bytes",
                                "value": "0x"
                            },
                            {
                                "name": "_ethWitnessSizes",
                                "type": "uint32[]",
                                "value": []
                            }
                        ],
                        "constructorArguments": "",
                        "name": "commitBlock",
                        "returnParams": [],
                        "signature": "commitBlock(uint32,uint32,bytes32[],bytes,bytes,uint32[])"
                    },
                    "errorInfo": "",
                    "fromAddress": "0x8eca806aecc86ce90da803b080ca4e3a9b8097ad",
                    "gasUsed": 146814,
                    "id": 1,
                    "methodDecoded": true,
                    "operation": "DELEGATECALL",
                    "output": "",
                    "revert": false,
                    "revertMessage": "",
                    "selector": "0x4e913cd9",
                    "status": true,
                    "value": "0"
                },
                "nodeType": 0
            },
            "10": {
                "invocation": {
                    "address": "0x0000000000000000000000000000000000000002",
                    "callData": "0xbb3d40bebea99bb5a0c44ba04fe3f8a29689ea4162282e06c0982b9a0b00014b3c00014b3c0000279d0005000150c1734808684574e8290000000000000000000b0000398f0000398f00000001001d00010ee6b28000b3022710eb0000000000000000000b0000398f0000398f0000279d000500012cb417800a392a930b8b0000000000000000000b00014b3c00014b3c0000001a0011001d70fbcf09290022efd4800000000000000000000b00014b3c00014b3c00000018000f001d7c210b8765008322a3c0000000000000000000000000000000000000000000000000000000000000000000000000000000000000000000",
                    "decodedMethod": {
                        "callParams": [
                            {
                                "name": "data",
                                "type": "bytes",
                                "value": "0x97aa139cbb3d40bebea99bb5a0c44ba04fe3f8a29689ea4162282e06c0982b9a0b00014b3c00014b3c0000279d0005000150c1734808684574e8290000000000000000000b0000398f0000398f00000001001d00010ee6b28000b3022710eb0000000000000000000b0000398f0000398f0000279d000500012cb417800a392a930b8b0000000000000000000b00014b3c00014b3c0000001a0011001d70fbcf09290022efd4800000000000000000000b00014b3c00014b3c00000018000f001d7c210b8765008322a3c0000000000000000000000000000000000000000000000000000000000000000000000000000000000000000000"
                            }
                        ],
                        "constructorArguments": "",
                        "name": "sha256hash",
                        "returnParams": [
                            {
                                "name": "hash",
                                "type": "bytes32",
                                "value": "0x2a8ec015a8ad7378bd535b0e52f28eb8c13e10801b5dde7ab4f4d8b046e90ae5"
                            }
                        ],
                        "signature": "sha256hash(bytes)"
                    },
                    "errorInfo": "",
                    "fromAddress": "0x8eca806aecc86ce90da803b080ca4e3a9b8097ad",
                    "gasUsed": 156,
                    "id": 10,
                    "methodDecoded": true,
                    "operation": "STATICCALL",
                    "output": "0x2a8ec015a8ad7378bd535b0e52f28eb8c13e10801b5dde7ab4f4d8b046e90ae5",
                    "revert": false,
                    "revertMessage": "",
                    "selector": "0x97aa139c",
                    "status": true,
                    "value": "0"
                },
                "nodeType": 0
            },
            "11": {
                "event": {
                    "contract": "0x8eca806aecc86ce90da803b080ca4e3a9b8097ad",
                    "decodedLog": {
                        "name": "BlockCommit",
                        "params": [
                            {
                                "name": "blockNumber",
                                "type": "uint32",
                                "value": "87,279"
                            }
                        ],
                        "signature": "BlockCommit(uint32)"
                    },
                    "id": 11,
                    "logData": "0x",
                    "logDecoded": true,
                    "operation": "EVENT",
                    "revert": false,
                    "status": true,
                    "topics": [
                        "0x81a92942d0f9c33b897a438384c9c3d88be397776138efa3ba1a4fc8b6268424",
                        "0x00000000000000000000000000000000000000000000000000000000000154ef"
                    ]
                },
                "nodeType": 1
            },
            "2": {
                "invocation": {
                    "address": "0x2c543ebd91dab7be40edb671d48cedf35a75e157",
                    "callData": "0x00000000000000000000000000000000000000000000000000000000000154ef000000000000000000000000000000000000000000000000000000000000000000000000000000000000000000000000000000000000000000000000000000c00000000000000000000000000000000000000000000000000000000000000100000000000000000000000000000000000000000000000000000000000000020000000000000000000000000000000000000000000000000000000000000002200000000000000000000000000000000000000000000000000000000000000001137669f1894bc786ce9d10c96fc2a7adfa65ed9601367caed3c4d819d4cfeba800000000000000000000000000000000000000000000000000000000000000d80b00014b3c00014b3c0000279d0005000150c1734808684574e8290000000000000000000b0000398f0000398f00000001001d00010ee6b28000b3022710eb0000000000000000000b0000398f0000398f0000279d000500012cb417800a392a930b8b0000000000000000000b00014b3c00014b3c0000001a0011001d70fbcf09290022efd4800000000000000000000b00014b3c00014b3c00000018000f001d7c210b8765008322a3c0000000000000000000000000000000000000000000000000000000000000000000000000000000000000000000000000000000000000000000000000000000000000000000000000000000000000000000000000000000000000000000000000000000000000000000000000000000000000000000",
                    "decodedMethod": {
                        "callParams": [
                            {
                                "name": "_blockNumber",
                                "type": "uint32",
                                "value": "87,279"
                            },
                            {
                                "name": "_feeAccount",
                                "type": "uint32",
                                "value": "0"
                            },
                            {
                                "name": "_newBlockInfo",
                                "type": "bytes32[]",
                                "value": [
                                    "0x137669f1894bc786ce9d10c96fc2a7adfa65ed9601367caed3c4d819d4cfeba8"
                                ]
                            },
                            {
                                "name": "_publicData",
                                "type": "bytes",
                                "value": "0x0b00014b3c00014b3c0000279d0005000150c1734808684574e8290000000000000000000b0000398f0000398f00000001001d00010ee6b28000b3022710eb0000000000000000000b0000398f0000398f0000279d000500012cb417800a392a930b8b0000000000000000000b00014b3c00014b3c0000001a0011001d70fbcf09290022efd4800000000000000000000b00014b3c00014b3c00000018000f001d7c210b8765008322a3c0000000000000000000000000000000000000000000000000000000000000000000000000000000000000000000"
                            },
                            {
                                "name": "_ethWitness",
                                "type": "bytes",
                                "value": "0x"
                            },
                            {
                                "name": "_ethWitnessSizes",
                                "type": "uint32[]",
                                "value": []
                            }
                        ],
                        "constructorArguments": "",
                        "name": "commitBlock",
                        "returnParams": [],
                        "signature": "commitBlock(uint32,uint32,bytes32[],bytes,bytes,uint32[])"
                    },
                    "errorInfo": "",
                    "fromAddress": "0x8eca806aecc86ce90da803b080ca4e3a9b8097ad",
                    "gasUsed": 141665,
                    "id": 2,
                    "methodDecoded": true,
                    "operation": "DELEGATECALL",
                    "output": "",
                    "revert": false,
                    "revertMessage": "",
                    "selector": "0x4e913cd9",
                    "status": true,
                    "value": "0"
                },
                "nodeType": 0
            },
            "3": {
                "invocation": {
                    "address": "0x02ecef526f806f06357659ffd14834fe82ef4b04",
                    "callData": "0x000000000000000000000000042147bd43d3f59b3133ee08322b67e4e9f2fdb3",
                    "decodedMethod": {
                        "callParams": [
                            {
                                "name": "_address",
                                "type": "address",
                                "value": "0x042147bd43d3f59b3133ee08322b67e4e9f2fdb3"
                            }
                        ],
                        "constructorArguments": "",
                        "name": "requireActiveValidator",
                        "returnParams": [],
                        "signature": "requireActiveValidator(address)"
                    },
                    "errorInfo": "",
                    "fromAddress": "0x8eca806aecc86ce90da803b080ca4e3a9b8097ad",
                    "gasUsed": 7496,
                    "id": 3,
                    "methodDecoded": true,
                    "operation": "STATICCALL",
                    "output": "",
                    "revert": false,
                    "revertMessage": "",
                    "selector": "0x4b18bd0f",
                    "status": true,
                    "value": "0"
                },
                "nodeType": 0
            },
            "4": {
                "invocation": {
                    "address": "0x9d3fdf9b4782753d12f6262bf22b6322608962b8",
                    "callData": "0x000000000000000000000000042147bd43d3f59b3133ee08322b67e4e9f2fdb3",
                    "decodedMethod": {
                        "callParams": [
                            {
                                "name": "_address",
                                "type": "address",
                                "value": "0x042147bd43d3f59b3133ee08322b67e4e9f2fdb3"
                            }
                        ],
                        "constructorArguments": "",
                        "name": "requireActiveValidator",
                        "returnParams": [],
                        "signature": "requireActiveValidator(address)"
                    },
                    "errorInfo": "",
                    "fromAddress": "0x02ecef526f806f06357659ffd14834fe82ef4b04",
                    "gasUsed": 2461,
                    "id": 4,
                    "methodDecoded": true,
                    "operation": "DELEGATECALL",
                    "output": "",
                    "revert": false,
                    "revertMessage": "",
                    "selector": "0x4b18bd0f",
                    "status": true,
                    "value": "0"
                },
                "nodeType": 0
            },
            "5": {
                "invocation": {
                    "address": "0x27c229937745d697d28fc7853d1bfea7331edf56",
                    "callData": "0x0000000000000000000000000000000000000000000000000000000000000018",
                    "decodedMethod": {
                        "callParams": [
                            {
                                "name": "_size",
                                "type": "uint32",
                                "value": "24"
                            }
                        ],
                        "constructorArguments": "",
                        "name": "isBlockSizeSupported",
                        "returnParams": [
                            {
                                "name": "",
                                "type": "bool",
                                "value": true
                            }
                        ],
                        "signature": "isBlockSizeSupported(uint32)"
                    },
                    "errorInfo": "",
                    "fromAddress": "0x8eca806aecc86ce90da803b080ca4e3a9b8097ad",
                    "gasUsed": 5782,
                    "id": 5,
                    "methodDecoded": true,
                    "operation": "STATICCALL",
                    "output": "0x0000000000000000000000000000000000000000000000000000000000000001",
                    "revert": false,
                    "revertMessage": "",
                    "selector": "0xe54ee6b1",
                    "status": true,
                    "value": "0"
                },
                "nodeType": 0
            },
            "6": {
                "invocation": {
                    "address": "0x165dfa76dfd3f6ad6ad614ae4566c2e9262e532f",
                    "callData": "0x0000000000000000000000000000000000000000000000000000000000000018",
                    "decodedMethod": {
                        "callParams": [
                            {
                                "name": "_size",
                                "type": "uint32",
                                "value": "24"
                            }
                        ],
                        "constructorArguments": "",
                        "name": "isBlockSizeSupported",
                        "returnParams": [
                            {
                                "name": "",
                                "type": "bool",
                                "value": true
                            }
                        ],
                        "signature": "isBlockSizeSupported(uint32)"
                    },
                    "errorInfo": "",
                    "fromAddress": "0x27c229937745d697d28fc7853d1bfea7331edf56",
                    "gasUsed": 734,
                    "id": 6,
                    "methodDecoded": true,
                    "operation": "DELEGATECALL",
                    "output": "0x0000000000000000000000000000000000000000000000000000000000000001",
                    "revert": false,
                    "revertMessage": "",
                    "selector": "0xe54ee6b1",
                    "status": true,
                    "value": "0"
                },
                "nodeType": 0
            },
            "7": {
                "invocation": {
                    "address": "0x0000000000000000000000000000000000000002",
                    "callData": "0x000000000000000000000000000000000000000000000000000154ef0000000000000000000000000000000000000000000000000000000000000000",
                    "decodedMethod": {
                        "callParams": [
                            {
                                "name": "data",
                                "type": "bytes",
                                "value": "0x00000000000000000000000000000000000000000000000000000000000154ef0000000000000000000000000000000000000000000000000000000000000000"
                            }
                        ],
                        "constructorArguments": "",
                        "name": "sha256hash",
                        "returnParams": [
                            {
                                "name": "hash",
                                "type": "bytes32",
                                "value": "0x00086da13b8cf9c2bf53039847173afcf4cb71f4f5b43ca461db285fff19f8c3"
                            }
                        ],
                        "signature": "sha256hash(bytes)"
                    },
                    "errorInfo": "",
                    "fromAddress": "0x8eca806aecc86ce90da803b080ca4e3a9b8097ad",
                    "gasUsed": 84,
                    "id": 7,
                    "methodDecoded": true,
                    "operation": "STATICCALL",
                    "output": "0x00086da13b8cf9c2bf53039847173afcf4cb71f4f5b43ca461db285fff19f8c3",
                    "revert": false,
                    "revertMessage": "",
                    "selector": "0x00000000",
                    "status": true,
                    "value": "0"
                },
                "nodeType": 0
            },
            "8": {
                "invocation": {
                    "address": "0x0000000000000000000000000000000000000002",
                    "callData": "0x3b8cf9c2bf53039847173afcf4cb71f4f5b43ca461db285fff19f8c3105ac201902e5feb88acab7810c2f3cf1ce550a97d85a69b4e08122dfad5c96b",
                    "decodedMethod": {
                        "callParams": [
                            {
                                "name": "data",
                                "type": "bytes",
                                "value": "0x00086da13b8cf9c2bf53039847173afcf4cb71f4f5b43ca461db285fff19f8c3105ac201902e5feb88acab7810c2f3cf1ce550a97d85a69b4e08122dfad5c96b"
                            }
                        ],
                        "constructorArguments": "",
                        "name": "sha256hash",
                        "returnParams": [
                            {
                                "name": "hash",
                                "type": "bytes32",
                                "value": "0x641cd7d64f932dec6154dc5c0ef4d432073e655e3dca88bec7eeb6066865b5f5"
                            }
                        ],
                        "signature": "sha256hash(bytes)"
                    },
                    "errorInfo": "",
                    "fromAddress": "0x8eca806aecc86ce90da803b080ca4e3a9b8097ad",
                    "gasUsed": 84,
                    "id": 8,
                    "methodDecoded": true,
                    "operation": "STATICCALL",
                    "output": "0x641cd7d64f932dec6154dc5c0ef4d432073e655e3dca88bec7eeb6066865b5f5",
                    "revert": false,
                    "revertMessage": "",
                    "selector": "0x00086da1",
                    "status": true,
                    "value": "0"
                },
                "nodeType": 0
            },
            "9": {
                "invocation": {
                    "address": "0x0000000000000000000000000000000000000002",
                    "callData": "0x4f932dec6154dc5c0ef4d432073e655e3dca88bec7eeb6066865b5f5137669f1894bc786ce9d10c96fc2a7adfa65ed9601367caed3c4d819d4cfeba8",
                    "decodedMethod": {
                        "callParams": [
                            {
                                "name": "data",
                                "type": "bytes",
                                "value": "0x641cd7d64f932dec6154dc5c0ef4d432073e655e3dca88bec7eeb6066865b5f5137669f1894bc786ce9d10c96fc2a7adfa65ed9601367caed3c4d819d4cfeba8"
                            }
                        ],
                        "constructorArguments": "",
                        "name": "sha256hash",
                        "returnParams": [
                            {
                                "name": "hash",
                                "type": "bytes32",
                                "value": "0x97aa139cbb3d40bebea99bb5a0c44ba04fe3f8a29689ea4162282e06c0982b9a"
                            }
                        ],
                        "signature": "sha256hash(bytes)"
                    },
                    "errorInfo": "",
                    "fromAddress": "0x8eca806aecc86ce90da803b080ca4e3a9b8097ad",
                    "gasUsed": 84,
                    "id": 9,
                    "methodDecoded": true,
                    "operation": "STATICCALL",
                    "output": "0x97aa139cbb3d40bebea99bb5a0c44ba04fe3f8a29689ea4162282e06c0982b9a",
                    "revert": false,
                    "revertMessage": "",
                    "selector": "0x641cd7d6",
                    "status": true,
                    "value": "0"
                },
                "nodeType": 0
            }
        },
        "gasFlame": [
            {
                "children": [
                    {
                        "children": [
                            {
                                "children": [],
                                "depth": 0,
                                "name": "Initial Gas",
                                "value": 25012
                            },
                            {
                                "children": [
                                    {
                                        "children": [
                                            {
                                                "children": [
                                                    {
                                                        "children": [
                                                            {
                                                                "children": [],
                                                                "depth": 4,
                                                                "name": "requireActiveValidator",
                                                                "value": 2461
                                                            }
                                                        ],
                                                        "depth": 3,
                                                        "name": "requireActiveValidator",
                                                        "value": 7496
                                                    },
                                                    {
                                                        "children": [
                                                            {
                                                                "children": [],
                                                                "depth": 4,
                                                                "name": "isBlockSizeSupported",
                                                                "value": 734
                                                            }
                                                        ],
                                                        "depth": 3,
                                                        "name": "isBlockSizeSupported",
                                                        "value": 5782
                                                    },
                                                    {
                                                        "children": [],
                                                        "depth": 3,
                                                        "name": "sha256hash",
                                                        "value": 84
                                                    },
                                                    {
                                                        "children": [],
                                                        "depth": 3,
                                                        "name": "sha256hash",
                                                        "value": 84
                                                    },
                                                    {
                                                        "children": [],
                                                        "depth": 3,
                                                        "name": "sha256hash",
                                                        "value": 84
                                                    },
                                                    {
                                                        "children": [],
                                                        "depth": 3,
                                                        "name": "sha256hash",
                                                        "value": 156
                                                    }
                                                ],
                                                "depth": 2,
                                                "name": "commitBlock",
                                                "value": 141665
                                            }
                                        ],
                                        "depth": 1,
                                        "name": "commitBlock",
                                        "value": 146814
                                    }
                                ],
                                "depth": 0,
                                "name": "Executed Gas",
                                "value": 151952
                            }
                        ],
                        "depth": -1,
                        "name": "Actual Gas Used",
                        "value": 174164
                    },
                    {
                        "children": [],
                        "depth": -1,
                        "name": "Refunded Gas",
                        "value": 2800
                    }
                ],
                "depth": -2,
                "name": "Total Gas",
                "value": 176964
            }
        ],
        "isConfirmed": true,
        "mainTrace": [
            {
                "children": [
                    {
                        "children": [
                            {
                                "children": [
                                    {
                                        "children": [
                                            {
                                                "children": [
                                                    {
                                                        "children": [],
                                                        "depth": 4,
                                                        "id": 4,
                                                        "order": 4
                                                    }
                                                ],
                                                "depth": 3,
                                                "id": 3,
                                                "order": 3
                                            },
                                            {
                                                "children": [
                                                    {
                                                        "children": [],
                                                        "depth": 4,
                                                        "id": 6,
                                                        "order": 6
                                                    }
                                                ],
                                                "depth": 3,
                                                "id": 5,
                                                "order": 5
                                            },
                                            {
                                                "children": [],
                                                "depth": 3,
                                                "id": 7,
                                                "order": 7
                                            },
                                            {
                                                "children": [],
                                                "depth": 3,
                                                "id": 8,
                                                "order": 8
                                            },
                                            {
                                                "children": [],
                                                "depth": 3,
                                                "id": 9,
                                                "order": 9
                                            },
                                            {
                                                "children": [],
                                                "depth": 3,
                                                "id": 10,
                                                "order": 10
                                            },
                                            {
                                                "children": [],
                                                "depth": 3,
                                                "id": 11,
                                                "order": 11
                                            }
                                        ],
                                        "depth": 2,
                                        "id": 2,
                                        "order": 2
                                    }
                                ],
                                "depth": 1,
                                "id": 1,
                                "order": 1
                            }
                        ],
                        "depth": 0,
                        "id": 0,
                        "order": 0
                    }
                ],
                "depth": -1,
                "id": -1,
                "order": -1
            }
        ],
        "mainTraceNodeCount": 12,
        "parentIdMap": {
            "0": -1,
            "1": 0,
            "10": 2,
            "11": 2,
            "2": 1,
            "3": 2,
            "4": 3,
            "5": 2,
            "6": 5,
            "7": 2,
            "8": 2,
            "9": 2
        },
        "tidyTrace": [
            {
                "children": [
                    {
                        "children": [
                            {
                                "children": [
                                    {
                                        "children": [
                                            {
                                                "children": [],
                                                "depth": 3,
                                                "id": 11,
                                                "order": 11
                                            }
                                        ],
                                        "depth": 2,
                                        "id": 2,
                                        "order": 2
                                    }
                                ],
                                "depth": 1,
                                "id": 1,
                                "order": 1
                            }
                        ],
                        "depth": 0,
                        "id": 0,
                        "order": 0
                    }
                ],
                "depth": -1,
                "id": -1,
                "order": -1
            }
        ],
        "tidyTraceNodeCount": 4
    },
    "state_change": {
        "stateChanges": [
            {
                "address": "0x8eca806aecc86ce90da803b080ca4e3a9b8097ad",
                "erc": "",
                "slots": [
                    {
                        "current": "0x2a8ec015a8ad7378bd535b0e52f28eb8c13e10801b5dde7ab4f4d8b046e90ae5",
                        "key": "0x318860d97cde0c9a3e5abd5a7a83a2b484f5175f06ca71d91d22d8ef1ba3ed3a",
                        "prev": "0x0000000000000000000000000000000000000000000000000000000000000000"
                    },
                    {
                        "current": "0x137669f1894bc786ce9d10c96fc2a7adfa65ed9601367caed3c4d819d4cfeba8",
                        "key": "0x318860d97cde0c9a3e5abd5a7a83a2b484f5175f06ca71d91d22d8ef1ba3ed3b",
                        "prev": "0x0000000000000000000000000000000000000000000000000000000000000000"
                    },
                    {
                        "current": "0x00000000000000000000000000000000000154ef000154d3000000000000805d",
                        "key": "0x000000000000000000000000000000000000000000000000000000000000000b",
                        "prev": "0x00000000000000000000000000000000000154ee000154d3000000000000805d"
                    },
                    {
                        "current": "0x0000000000000000000000000000000000000018000000000000000000bf2ac5",
                        "key": "0x318860d97cde0c9a3e5abd5a7a83a2b484f5175f06ca71d91d22d8ef1ba3ed38",
                        "prev": "0x0000000000000000000000000000000000000000000000000000000000000000"
                    },
                    {
                        "current": "0xc5d2460186f7233c927e7db2dcc703c0e500b653ca82273b7bfad8045d85a470",
                        "key": "0x318860d97cde0c9a3e5abd5a7a83a2b484f5175f06ca71d91d22d8ef1ba3ed39",
                        "prev": "0x0000000000000000000000000000000000000000000000000000000000000000"
                    }
                ],
                "storageVariables": [
                    {
                        "name": "blocks",
                        "type": "mapping(uint32 => struct Storage.Block)",
                        "value": {
                            "pairs": [
                                {
                                    "key": "87279",
                                    "value": {
                                        "fields": [
                                            {
                                                "name": "committedAtBlock",
                                                "type": "uint32",
                                                "value": {
                                                    "current": "12528325",
                                                    "prev": "0",
                                                    "typeTag": 1
                                                }
                                            },
                                            {
                                                "name": "priorityOperations",
                                                "type": "uint64",
                                                "value": {
                                                    "current": "0",
                                                    "prev": "0",
                                                    "typeTag": 1
                                                }
                                            },
                                            {
                                                "name": "chunks",
                                                "type": "uint32",
                                                "value": {
                                                    "current": "24",
                                                    "prev": "0",
                                                    "typeTag": 1
                                                }
                                            },
                                            {
                                                "name": "withdrawalsDataHash",
                                                "type": "bytes32",
                                                "value": {
                                                    "current": "0xc5d2460186f7233c927e7db2dcc703c0e500b653ca82273b7bfad8045d85a470",
                                                    "prev": "0x0000000000000000000000000000000000000000000000000000000000000000",
                                                    "typeTag": 1
                                                }
                                            },
                                            {
                                                "name": "commitment",
                                                "type": "bytes32",
                                                "value": {
                                                    "current": "0x2a8ec015a8ad7378bd535b0e52f28eb8c13e10801b5dde7ab4f4d8b046e90ae5",
                                                    "prev": "0x0000000000000000000000000000000000000000000000000000000000000000",
                                                    "typeTag": 1
                                                }
                                            },
                                            {
                                                "name": "stateRoot",
                                                "type": "bytes32",
                                                "value": {
                                                    "current": "0x137669f1894bc786ce9d10c96fc2a7adfa65ed9601367caed3c4d819d4cfeba8",
                                                    "prev": "0x0000000000000000000000000000000000000000000000000000000000000000",
                                                    "typeTag": 1
                                                }
                                            }
                                        ],
                                        "typeTag": 3
                                    }
                                }
                            ],
                            "typeTag": 4
                        }
                    },
                    {
                        "name": "firstPendingWithdrawalIndex",
                        "type": "uint32",
                        "value": {
                            "current": "32861",
                            "prev": "32861",
                            "typeTag": 1
                        }
                    },
                    {
                        "name": "numberOfPendingWithdrawals",
                        "type": "uint32",
                        "value": {
                            "current": "0",
                            "prev": "0",
                            "typeTag": 1
                        }
                    },
                    {
                        "name": "totalBlocksVerified",
                        "type": "uint32",
                        "value": {
                            "current": "87251",
                            "prev": "87251",
                            "typeTag": 1
                        }
                    },
                    {
                        "name": "totalBlocksCommitted",
                        "type": "uint32",
                        "value": {
                            "current": "87279",
                            "prev": "87278",
                            "typeTag": 1
                        }
                    }
                ]
            }
        ]
    }
}