{
    "balance_change": {
        "balanceChanges": []
    },
    "profile": {
        "basic_info": {
            "baseFee": "36.523665914",
            "blockNumber": 18825172,
            "callData": "0x095ea7b3000000000000000000000000065e87713c5d470cee5dddb56cdc27990d12fe7000000000000000b88e282822ab5ed106947c1c60af583c1741a38e858de00000",
            "debugEnable": true,
            "errorInfo": "",
            "eventCount": 1,
            "feeRecipient": "0xf15689636571dba322b48e9ec9ba6cfb3df818e1",
            "formatValue": "0",
            "gasLimit": 34159,
            "gasPrice": "90.43943925",
            "gasUsed": 33801,
            "intTxnCount": 1,
            "internalRevert": false,
            "internalRevertMessage": "",
            "isContractCreation": false,
            "isFlashloan": false,
            "maxFee": "",
            "nonce": 4,
            "overwritedBlockNumber": -1,
            "priorityFee": "",
            "receiver": "0xec213f83defb583af3a000b1c0ada660b1902a0f",
            "revertMessage": "",
            "sender": "0x3a33681e340bdb3905ca1953cc93cc5016b43d21",
            "simulationEnable": true,
            "sourceTxnHash": "0x87fc656a229b350cedacf093e6e9946838d27e91057a5b43b372d74d2dcc9343",
            "status": true,
            "timestamp": "2023-12-20T05:54:23Z",
            "transactionFee": "0.00305694348608925",
            "txnHash": "0x87fc656a229b350cedacf093e6e9946838d27e91057a5b43b372d74d2dcc9343",
            "txnIndex": 48,
            "type": 0,
            "value": "0"
        },
        "fund_flow": [],
        "token_infos": [
            {
                "address": "0xeeeeeeeeeeeeeeeeeeeeeeeeeeeeeeeeeeeeeeee",
                "decimals": 18
            },
            {
                "address": "0xc02aaa39b223fe8d0a0e5c4f27ead9083c756cc2",
                "decimals": 18
            }
        ]
    },
    "address_label": {
        "labels": [
            {
                "address": "0xeeeeeeeeeeeeeeeeeeeeeeeeeeeeeeeeeeeeeeee",
                "label": "Ether"
            },
            {
                "address": "0xec213f83defb583af3a000b1c0ada660b1902a0f",
                "label": "Presearch: PRE Token"
            },
            {
                "address": "0x0d4206fcfa419b954f0b91db7ca8189f75cad226",
                "label": "PRETokenV3"
            },
            {
                "address": "0x0000000000000000000000000000000000000001",
                "label": "Precompiled"
            },
            {
                "address": "0x0000000000000000000000000000000000000002",
                "label": "Precompiled"
            },
            {
                "address": "0x0000000000000000000000000000000000000003",
                "label": "Precompiled"
            },
            {
                "address": "0x0000000000000000000000000000000000000004",
                "label": "Precompiled"
            }
        ]
    },
    "trace": {
        "accountLabels": null,
        "dataMap": {
            "-1": {
                "invocation": {
                    "address": "0x3a33681e340bdb3905ca1953cc93cc5016b43d21",
                    "callData": "",
                    "decodedMethod": null,
                    "errorInfo": "",
                    "fromAddress": "",
                    "gasUsed": 0,
                    "id": -1,
                    "methodDecoded": false,
                    "operation": "",
                    "output": "",
                    "revert": false,
                    "revertMessage": "",
                    "selector": "",
                    "status": false,
                    "value": ""
                },
                "nodeType": 0
            },
            "0": {
                "invocation": {
                    "address": "0xec213f83defb583af3a000b1c0ada660b1902a0f",
                    "callData": "0x000000000000000000000000065e87713c5d470cee5dddb56cdc27990d12fe7000000000000000b88e282822ab5ed106947c1c60af583c1741a38e858de00000",
                    "decodedMethod": {
                        "callParams": [
                            {
                                "name": "spender",
                                "type": "address",
                                "value": "0x065e87713c5d470cee5dddb56cdc27990d12fe70"
                            },
                            {
                                "decimalAvailable": true,
                                "name": "amount",
                                "type": "uint256",
                                "value": "1,158,472,395,435,294,898,592,384,258,348,512,586,931,256,000,000,000,000,000,000"
                            }
                        ],
                        "constructorArguments": "",
                        "name": "approve",
                        "returnParams": [
                            {
                                "name": "",
                                "type": "bool",
                                "value": true
                            }
                        ],
                        "signature": "approve(address,uint256)"
                    },
                    "errorInfo": "",
                    "fromAddress": "0x3a33681e340bdb3905ca1953cc93cc5016b43d21",
                    "gasUsed": 33801,
                    "id": 0,
                    "methodDecoded": true,
                    "operation": "CALL",
                    "output": "0x0000000000000000000000000000000000000000000000000000000000000001",
                    "revert": false,
                    "revertMessage": "",
                    "selector": "0x095ea7b3",
                    "status": true,
                    "value": "0"
                },
                "nodeType": 0
            },
            "1": {
                "invocation": {
                    "address": "0x0d4206fcfa419b954f0b91db7ca8189f75cad226",
                    "callData": "0x000000000000000000000000065e87713c5d470cee5dddb56cdc27990d12fe7000000000000000b88e282822ab5ed106947c1c60af583c1741a38e858de00000",
                    "decodedMethod": {
                        "callParams": [
                            {
                                "name": "spender",
                                "type": "address",
                                "value": "0x065e87713c5d470cee5dddb56cdc27990d12fe70"
                            },
                            {
                                "decimalAvailable": true,
                                "name": "amount",
                                "type": "uint256",
                                "value": "1,158,472,395,435,294,898,592,384,258,348,512,586,931,256,000,000,000,000,000,000"
                            }
                        ],
                        "constructorArguments": "",
                        "name": "approve",
                        "returnParams": [
                            {
                                "name": "",
                                "type": "bool",
                                "value": true
                            }
                        ],
                        "signature": "approve(address,uint256)"
                    },
                    "errorInfo": "",
                    "fromAddress": "0xec213f83defb583af3a000b1c0ada660b1902a0f",
                    "gasUsed": 4686,
                    "id": 1,
                    "methodDecoded": true,
                    "operation": "DELEGATECALL",
                    "output": "0x0000000000000000000000000000000000000000000000000000000000000001",
                    "revert": false,
                    "revertMessage": "",
                    "selector": "0x095ea7b3",
                    "status": true,
                    "value": "0"
                },
                "nodeType": 0
            },
            "2": {
                "event": {
                    "contract": "0xec213f83defb583af3a000b1c0ada660b1902a0f",
                    "decodedLog": {
                        "name": "Approval",
                        "params": [
                            {
                                "name": "owner",
                                "type": "address",
                                "value": "0x3a33681e340bdb3905ca1953cc93cc5016b43d21"
                            },
                            {
                                "name": "spender",
                                "type": "address",
                                "value": "0x065e87713c5d470cee5dddb56cdc27990d12fe70"
                            },
                            {
                                "decimalAvailable": true,
                                "name": "value",
                                "type": "uint256",
                                "value": "1,158,472,395,435,294,898,592,384,258,348,512,586,931,256,000,000,000,000,000,000"
                            }
                        ],
                        "signature": "Approval(address,address,uint256)"
                    },
                    "id": 2,
                    "logData": "0x00000000000000b88e282822ab5ed106947c1c60af583c1741a38e858de00000",
                    "logDecoded": true,
                    "operation": "EVENT",
                    "revert": false,
                    "status": true,
                    "topics": [
                        "0x8c5be1e5ebec7d5bd14f71427d1e84f3dd0314c0f7b2291e5b200ac8c7c3b925",
                        "0x0000000000000000000000003a33681e340bdb3905ca1953cc93cc5016b43d21",
                        "0x000000000000000000000000065e87713c5d470cee5dddb56cdc27990d12fe70"
                    ]
                },
                "nodeType": 1
            }
        },
        "gasFlame": [
            {
                "children": [
                    {
                        "children": [
                            {
                                "children": [],
                                "depth": 0,
                                "name": "Initial Gas",
                                "value": 21836
                            },
                            {
                                "children": [
                                    {
                                        "children": [],
                                        "depth": 1,
                                        "name": "approve",
                                        "value": 4686
                                    }
                                ],
                                "depth": 0,
                                "name": "Executed Gas",
                                "value": 11965
                            }
                        ],
                        "depth": -1,
                        "name": "Actual Gas Used",
                        "value": 33801
                    },
                    {
                        "children": [],
                        "depth": -1,
                        "name": "Refunded Gas",
                        "value": 0
                    }
                ],
                "depth": -2,
                "name": "Total Gas",
                "value": 33801
            }
        ],
        "isConfirmed": true,
        "mainTrace": [
            {
                "children": [
                    {
                        "children": [
                            {
                                "children": [
                                    {
                                        "children": [],
                                        "depth": 2,
                                        "id": 2,
                                        "order": 2
                                    }
                                ],
                                "depth": 1,
                                "id": 1,
                                "order": 1
                            }
                        ],
                        "depth": 0,
                        "id": 0,
                        "order": 0
                    }
                ],
                "depth": -1,
                "id": -1,
                "order": -1
            }
        ],
        "mainTraceNodeCount": 3,
        "parentIdMap": {
            "0": -1,
            "1": 0,
            "2": 1
        },
        "tidyTrace": [
            {
                "children": [
                    {
                        "children": [
                            {
                                "children": [
                                    {
                                        "children": [],
                                        "depth": 2,
                                        "id": 2,
                                        "order": 2
                                    }
                                ],
                                "depth": 1,
                                "id": 1,
                                "order": 1
                            }
                        ],
                        "depth": 0,
                        "id": 0,
                        "order": 0
                    }
                ],
                "depth": -1,
                "id": -1,
                "order": -1
            }
        ],
        "tidyTraceNodeCount": 3
    },
    "state_change": {
        "stateChanges": []
    }
}