{
    "balance_change": {
        "balanceChanges": [
            {
                "account": "0x150b8e09ccec1e070b242b5746e4917cb118d0db",
                "assets": [
                    {
                        "address": "0xeeeeeeeeeeeeeeeeeeeeeeeeeeeeeeeeeeeeeeee",
                        "amount": "0.298529469225152519",
                        "iconUrl": "https://assets.blocksec.com/image/1663669189317-3.png",
                        "isERC1155": false,
                        "isERC721": false,
                        "sign": true,
                        "value": "490.83618266925601903"
                    }
                ]
            },
            {
                "account": "0x72e2f4830b9e45d52f80ac08cb2bec0fef72ed9c",
                "assets": [
                    {
                        "address": "0xeeeeeeeeeeeeeeeeeeeeeeeeeeeeeeeeeeeeeeee",
                        "amount": "0.298529469225152519",
                        "iconUrl": "https://assets.blocksec.com/image/1663669189317-3.png",
                        "isERC1155": false,
                        "isERC721": false,
                        "sign": false,
                        "value": "490.83618266925601903"
                    }
                ]
            }
        ]
    },
    "profile": {
        "basic_info": {
            "baseFee": "19.37088066",
            "blockNumber": 18000025,
            "callData": "0x252f7b01000000000000000000000000000000000000000000000000000000000000006f000000000000000000000000296f55f8fb28e498b858d0bcda06d955b2cb3f97000000000000000000000000000000000000000000000000000000000004323866526137be59678851579ac3e303a70e5b2adda3e8855b33d85bec3c998a1fd966526137be59678851579ac3e303a70e5b2adda3e8855b33d85bec3c998a1fd900000000000000000000000000000000000000000000000000000000000000c000000000000000000000000000000000000000000000000000000000000002740000000000000000000000004d73adb72bc3dd368966edd0f0b2148401a178e2000000000000d532006f701a95707a0290ac8b90b3719e8ee5b2103608830065296f55f8fb28e498b858d0bcda06d955b2cb3f970000000000000000000000000000000000000000000000000000000000000001000000000000000000000000000000000000000000000000000000000000000d000000000000000000000000000000000000000000000000000000000000000d0000000000000000000000000000000000000000000000000000000000000000000000000000000000000000000000000000000000000000000000000000000000000000000000000000000000000000000000000000000f2fd1c3afdef9ed040000000000000000000000000000000000000000000000000422380936cd35f600000000000000000000000000000000000000000000000000003fdab0edf46800000000000000000000000000000000000000000000000000025eef41597a11000000000000000000000000000000000000000000000000000000000000000000000000000000000000000000000000000000000000000000025eef41597a11000000000000000000000000000000000000000000000000042735c26a6e1e8000000000000000000000000000000000000000000000000000000000000001c000000000000000000000000000000000000000000000000000000000000002000000000000000000000000000000000000000000000000000000000000000014150b8e09ccec1e070b242b5746e4917cb118d0db0000000000000000000000000000000000000000000000000000000000000000000000000000000000000000000000000000000000000000",
            "debugEnable": true,
            "errorInfo": "",
            "eventCount": 4,
            "feeRecipient": "0x34cb778ea0b3e386a16616ec643f06e900bdea26",
            "formatValue": "0",
            "gasLimit": 1308608,
            "gasPrice": "23.793404418",
            "gasUsed": 208464,
            "intTxnCount": 13,
            "internalRevert": false,
            "internalRevertMessage": "",
            "isContractCreation": false,
            "isFlashloan": false,
            "maxFee": "",
            "nonce": 311879,
            "overwritedBlockNumber": -1,
            "priorityFee": "",
            "receiver": "0x902f09715b6303d4173037652fa7377e5b98089e",
            "revertMessage": "",
            "sender": "0xe93685f3bba03016f02bd1828badd6195988d950",
            "simulationEnable": true,
            "sourceTxnHash": "0x87871d8f37b3e97dda73cb217eaa12a7db3766861b114f520acef868362e6a73",
            "status": true,
            "timestamp": "2023-08-26T16:26:35Z",
            "transactionFee": "0.004960068258593952",
            "txnHash": "0x87871d8f37b3e97dda73cb217eaa12a7db3766861b114f520acef868362e6a73",
            "txnIndex": 5,
            "type": 0,
            "value": "0"
        },
        "fund_flow": [
            {
                "amount": "0.298529469225152519",
                "from": "0x72e2f4830b9e45d52f80ac08cb2bec0fef72ed9c",
                "id": 1,
                "isERC1155": false,
                "isERC721": false,
                "isReverted": false,
                "order": 1,
                "to": "0x150b8e09ccec1e070b242b5746e4917cb118d0db",
                "token": "0xeeeeeeeeeeeeeeeeeeeeeeeeeeeeeeeeeeeeeeee"
            }
        ],
        "token_infos": [
            {
                "address": "0xc02aaa39b223fe8d0a0e5c4f27ead9083c756cc2",
                "decimals": 18
            },
            {
                "address": "0xeeeeeeeeeeeeeeeeeeeeeeeeeeeeeeeeeeeeeeee",
                "decimals": 18
            }
        ]
    },
    "address_label": {
        "labels": [
            {
                "address": "0xe93685f3bba03016f02bd1828badd6195988d950",
                "label": "Layer Zero: Executor"
            },
            {
                "address": "0x66a71dcef29a0ffbdbe3c6a460a3b5bc225cd675",
                "label": "LayerZero: Ethereum Endpoint"
            },
            {
                "address": "0x902f09715b6303d4173037652fa7377e5b98089e",
                "label": "Layer Zero: Relayer V2"
            },
            {
                "address": "0x72e2f4830b9e45d52f80ac08cb2bec0fef72ed9c",
                "label": "Stargate Finance: SGETH Token"
            },
            {
                "address": "0x06d538690af257da524f25d0cd52fd85b1c2173e",
                "label": "Stargate Finance : Factory"
            },
            {
                "address": "0x296f55f8fb28e498b858d0bcda06d955b2cb3f97",
                "label": "Stargate Finance: Bridge"
            },
            {
                "address": "0x07245eea05826f5984c7c3c8f478b04892e4df89",
                "label": "FPValidator"
            },
            {
                "address": "0x0000000000000000000000000000000000000002",
                "label": "Precompiled"
            },
            {
                "address": "0x0000000000000000000000000000000000000003",
                "label": "Precompiled"
            },
            {
                "address": "0xeeeeeeeeeeeeeeeeeeeeeeeeeeeeeeeeeeeeeeee",
                "label": "Ether"
            },
            {
                "address": "0x101816545f6bd2b1076434b54383a1e633390a2e",
                "label": "STARGATE: S*SGETH Token"
            },
            {
                "address": "0x8731d54e9d02c286767d56ac03e8037c07e01e98",
                "label": "Stargate Finance: Router"
            },
            {
                "address": "0x0000000000000000000000000000000000000001",
                "label": "Precompiled"
            },
            {
                "address": "0x0000000000000000000000000000000000000004",
                "label": "Precompiled"
            },
            {
                "address": "0x4d73adb72bc3dd368966edd0f0b2148401a178e2",
                "label": "Layer Zero: Ultra Light Node v2"
            }
        ]
    },
    "trace": {
        "accountLabels": null,
        "dataMap": {
            "-1": {
                "invocation": {
                    "address": "0xe93685f3bba03016f02bd1828badd6195988d950",
                    "callData": "",
                    "decodedMethod": null,
                    "errorInfo": "",
                    "fromAddress": "",
                    "gasUsed": 0,
                    "id": -1,
                    "methodDecoded": false,
                    "operation": "",
                    "output": "",
                    "revert": false,
                    "revertMessage": "",
                    "selector": "",
                    "status": false,
                    "value": ""
                },
                "nodeType": 0
            },
            "0": {
                "invocation": {
                    "address": "0x902f09715b6303d4173037652fa7377e5b98089e",
                    "callData": "0x000000000000000000000000000000000000000000000000000000000000006f000000000000000000000000296f55f8fb28e498b858d0bcda06d955b2cb3f97000000000000000000000000000000000000000000000000000000000004323866526137be59678851579ac3e303a70e5b2adda3e8855b33d85bec3c998a1fd966526137be59678851579ac3e303a70e5b2adda3e8855b33d85bec3c998a1fd900000000000000000000000000000000000000000000000000000000000000c000000000000000000000000000000000000000000000000000000000000002740000000000000000000000004d73adb72bc3dd368966edd0f0b2148401a178e2000000000000d532006f701a95707a0290ac8b90b3719e8ee5b2103608830065296f55f8fb28e498b858d0bcda06d955b2cb3f970000000000000000000000000000000000000000000000000000000000000001000000000000000000000000000000000000000000000000000000000000000d000000000000000000000000000000000000000000000000000000000000000d0000000000000000000000000000000000000000000000000000000000000000000000000000000000000000000000000000000000000000000000000000000000000000000000000000000000000000000000000000000f2fd1c3afdef9ed040000000000000000000000000000000000000000000000000422380936cd35f600000000000000000000000000000000000000000000000000003fdab0edf46800000000000000000000000000000000000000000000000000025eef41597a11000000000000000000000000000000000000000000000000000000000000000000000000000000000000000000000000000000000000000000025eef41597a11000000000000000000000000000000000000000000000000042735c26a6e1e8000000000000000000000000000000000000000000000000000000000000001c000000000000000000000000000000000000000000000000000000000000002000000000000000000000000000000000000000000000000000000000000000014150b8e09ccec1e070b242b5746e4917cb118d0db0000000000000000000000000000000000000000000000000000000000000000000000000000000000000000000000000000000000000000",
                    "decodedMethod": {
                        "callParams": [
                            {
                                "name": "_srcChainId",
                                "type": "uint16",
                                "value": "111"
                            },
                            {
                                "name": "_dstAddress",
                                "type": "address",
                                "value": "0x296f55f8fb28e498b858d0bcda06d955b2cb3f97"
                            },
                            {
                                "name": "_gasLimit",
                                "type": "uint256",
                                "value": "275,000"
                            },
                            {
                                "name": "_blockHash",
                                "type": "bytes32",
                                "value": "0x66526137be59678851579ac3e303a70e5b2adda3e8855b33d85bec3c998a1fd9"
                            },
                            {
                                "name": "_data",
                                "type": "bytes32",
                                "value": "0x66526137be59678851579ac3e303a70e5b2adda3e8855b33d85bec3c998a1fd9"
                            },
                            {
                                "name": "_transactionProof",
                                "type": "bytes",
                                "value": "0x0000000000000000000000004d73adb72bc3dd368966edd0f0b2148401a178e2000000000000d532006f701a95707a0290ac8b90b3719e8ee5b2103608830065296f55f8fb28e498b858d0bcda06d955b2cb3f970000000000000000000000000000000000000000000000000000000000000001000000000000000000000000000000000000000000000000000000000000000d000000000000000000000000000000000000000000000000000000000000000d0000000000000000000000000000000000000000000000000000000000000000000000000000000000000000000000000000000000000000000000000000000000000000000000000000000000000000000000000000000f2fd1c3afdef9ed040000000000000000000000000000000000000000000000000422380936cd35f600000000000000000000000000000000000000000000000000003fdab0edf46800000000000000000000000000000000000000000000000000025eef41597a11000000000000000000000000000000000000000000000000000000000000000000000000000000000000000000000000000000000000000000025eef41597a11000000000000000000000000000000000000000000000000042735c26a6e1e8000000000000000000000000000000000000000000000000000000000000001c000000000000000000000000000000000000000000000000000000000000002000000000000000000000000000000000000000000000000000000000000000014150b8e09ccec1e070b242b5746e4917cb118d0db0000000000000000000000000000000000000000000000000000000000000000000000000000000000000000"
                            }
                        ],
                        "constructorArguments": "",
                        "name": "validateTransactionProofV1",
                        "returnParams": [],
                        "signature": "validateTransactionProofV1(uint16,address,uint256,bytes32,bytes32,bytes)"
                    },
                    "errorInfo": "",
                    "fromAddress": "0xe93685f3bba03016f02bd1828badd6195988d950",
                    "gasUsed": 208464,
                    "id": 0,
                    "methodDecoded": true,
                    "operation": "CALL",
                    "output": "",
                    "revert": false,
                    "revertMessage": "",
                    "selector": "0x252f7b01",
                    "status": true,
                    "value": "0"
                },
                "nodeType": 0
            },
            "1": {
                "invocation": {
                    "address": "0xaf34771b16960ea77484a866a34ccdafdc913d9c",
                    "callData": "0x000000000000000000000000000000000000000000000000000000000000006f000000000000000000000000296f55f8fb28e498b858d0bcda06d955b2cb3f97000000000000000000000000000000000000000000000000000000000004323866526137be59678851579ac3e303a70e5b2adda3e8855b33d85bec3c998a1fd966526137be59678851579ac3e303a70e5b2adda3e8855b33d85bec3c998a1fd900000000000000000000000000000000000000000000000000000000000000c000000000000000000000000000000000000000000000000000000000000002740000000000000000000000004d73adb72bc3dd368966edd0f0b2148401a178e2000000000000d532006f701a95707a0290ac8b90b3719e8ee5b2103608830065296f55f8fb28e498b858d0bcda06d955b2cb3f970000000000000000000000000000000000000000000000000000000000000001000000000000000000000000000000000000000000000000000000000000000d000000000000000000000000000000000000000000000000000000000000000d0000000000000000000000000000000000000000000000000000000000000000000000000000000000000000000000000000000000000000000000000000000000000000000000000000000000000000000000000000000f2fd1c3afdef9ed040000000000000000000000000000000000000000000000000422380936cd35f600000000000000000000000000000000000000000000000000003fdab0edf46800000000000000000000000000000000000000000000000000025eef41597a11000000000000000000000000000000000000000000000000000000000000000000000000000000000000000000000000000000000000000000025eef41597a11000000000000000000000000000000000000000000000000042735c26a6e1e8000000000000000000000000000000000000000000000000000000000000001c000000000000000000000000000000000000000000000000000000000000002000000000000000000000000000000000000000000000000000000000000000014150b8e09ccec1e070b242b5746e4917cb118d0db0000000000000000000000000000000000000000000000000000000000000000000000000000000000000000000000000000000000000000",
                    "decodedMethod": {
                        "callParams": [
                            {
                                "name": "_srcChainId",
                                "type": "uint16",
                                "value": "111"
                            },
                            {
                                "name": "_dstAddress",
                                "type": "address",
                                "value": "0x296f55f8fb28e498b858d0bcda06d955b2cb3f97"
                            },
                            {
                                "name": "_gasLimit",
                                "type": "uint256",
                                "value": "275,000"
                            },
                            {
                                "name": "_blockHash",
                                "type": "bytes32",
                                "value": "0x66526137be59678851579ac3e303a70e5b2adda3e8855b33d85bec3c998a1fd9"
                            },
                            {
                                "name": "_data",
                                "type": "bytes32",
                                "value": "0x66526137be59678851579ac3e303a70e5b2adda3e8855b33d85bec3c998a1fd9"
                            },
                            {
                                "name": "_transactionProof",
                                "type": "bytes",
                                "value": "0x0000000000000000000000004d73adb72bc3dd368966edd0f0b2148401a178e2000000000000d532006f701a95707a0290ac8b90b3719e8ee5b2103608830065296f55f8fb28e498b858d0bcda06d955b2cb3f970000000000000000000000000000000000000000000000000000000000000001000000000000000000000000000000000000000000000000000000000000000d000000000000000000000000000000000000000000000000000000000000000d0000000000000000000000000000000000000000000000000000000000000000000000000000000000000000000000000000000000000000000000000000000000000000000000000000000000000000000000000000000f2fd1c3afdef9ed040000000000000000000000000000000000000000000000000422380936cd35f600000000000000000000000000000000000000000000000000003fdab0edf46800000000000000000000000000000000000000000000000000025eef41597a11000000000000000000000000000000000000000000000000000000000000000000000000000000000000000000000000000000000000000000025eef41597a11000000000000000000000000000000000000000000000000042735c26a6e1e8000000000000000000000000000000000000000000000000000000000000001c000000000000000000000000000000000000000000000000000000000000002000000000000000000000000000000000000000000000000000000000000000014150b8e09ccec1e070b242b5746e4917cb118d0db0000000000000000000000000000000000000000000000000000000000000000000000000000000000000000"
                            }
                        ],
                        "constructorArguments": "",
                        "name": "validateTransactionProofV1",
                        "returnParams": [],
                        "signature": "validateTransactionProofV1(uint16,address,uint256,bytes32,bytes32,bytes)"
                    },
                    "errorInfo": "",
                    "fromAddress": "0x902f09715b6303d4173037652fa7377e5b98089e",
                    "gasUsed": 189972,
                    "id": 1,
                    "methodDecoded": true,
                    "operation": "DELEGATECALL",
                    "output": "",
                    "revert": false,
                    "revertMessage": "",
                    "selector": "0x252f7b01",
                    "status": true,
                    "value": "0"
                },
                "nodeType": 0
            },
            "10": {
                "event": {
                    "contract": "0x101816545f6bd2b1076434b54383a1e633390a2e",
                    "decodedLog": {
                        "name": "CreditChainPath",
                        "params": [
                            {
                                "name": "chainId",
                                "type": "uint16",
                                "value": "111"
                            },
                            {
                                "name": "srcPoolId",
                                "type": "uint256",
                                "value": "13"
                            },
                            {
                                "name": "amountSD",
                                "type": "uint256",
                                "value": "0"
                            },
                            {
                                "name": "idealBalance",
                                "type": "uint256",
                                "value": "280,146,911,455,686,028,548"
                            }
                        ],
                        "signature": "CreditChainPath(uint16,uint256,uint256,uint256)"
                    },
                    "id": 10,
                    "logData": "0x000000000000000000000000000000000000000000000000000000000000006f000000000000000000000000000000000000000000000000000000000000000d000000000000000000000000000000000000000000000000000000000000000000000000000000000000000000000000000000000000000f2fd1c3afdef9ed04",
                    "logDecoded": true,
                    "operation": "EVENT",
                    "revert": false,
                    "status": true,
                    "topics": [
                        "0xdbdd25248751feb2f3b66721dfdd11662a68bc155af3771e661aabec92fba814"
                    ]
                },
                "nodeType": 1
            },
            "11": {
                "invocation": {
                    "address": "0x8731d54e9d02c286767d56ac03e8037c07e01e98",
                    "callData": "0x000000000000000000000000000000000000000000000000000000000000006f00000000000000000000000000000000000000000000000000000000000001c0000000000000000000000000000000000000000000000000000000000000d532000000000000000000000000000000000000000000000000000000000000000d000000000000000000000000000000000000000000000000000000000000000d0000000000000000000000000000000000000000000000000000000000000000000000000000000000000000150b8e09ccec1e070b242b5746e4917cb118d0db0000000000000000000000000000000000000000000000000422380936cd35f600000000000000000000000000000000000000000000000000003fdab0edf46800000000000000000000000000000000000000000000000000025eef41597a11000000000000000000000000000000000000000000000000000000000000000000000000000000000000000000000000000000000000000000025eef41597a11000000000000000000000000000000000000000000000000042735c26a6e1e8000000000000000000000000000000000000000000000000000000000000002200000000000000000000000000000000000000000000000000000000000000028701a95707a0290ac8b90b3719e8ee5b210360883296f55f8fb28e498b858d0bcda06d955b2cb3f970000000000000000000000000000000000000000000000000000000000000000000000000000000000000000000000000000000000000000",
                    "decodedMethod": {
                        "callParams": [
                            {
                                "name": "_srcChainId",
                                "type": "uint16",
                                "value": "111"
                            },
                            {
                                "name": "_srcAddress",
                                "type": "bytes",
                                "value": "0x701a95707a0290ac8b90b3719e8ee5b210360883296f55f8fb28e498b858d0bcda06d955b2cb3f97"
                            },
                            {
                                "name": "_nonce",
                                "type": "uint256",
                                "value": "54,578"
                            },
                            {
                                "name": "_srcPoolId",
                                "type": "uint256",
                                "value": "13"
                            },
                            {
                                "name": "_dstPoolId",
                                "type": "uint256",
                                "value": "13"
                            },
                            {
                                "name": "_dstGasForCall",
                                "type": "uint256",
                                "value": "0"
                            },
                            {
                                "name": "_to",
                                "type": "address",
                                "value": "0x150b8e09ccec1e070b242b5746e4917cb118d0db"
                            },
                            {
                                "name": "_s",
                                "type": "(uint256,uint256,uint256,uint256,uint256,uint256)",
                                "value": [
                                    {
                                        "name": "amount",
                                        "type": "uint256",
                                        "value": "297,862,137,585,153,526"
                                    },
                                    {
                                        "name": "eqFee",
                                        "type": "uint256",
                                        "value": "70,208,503,805,032"
                                    },
                                    {
                                        "name": "eqReward",
                                        "type": "uint256",
                                        "value": "667,331,639,998,993"
                                    },
                                    {
                                        "name": "lpFee",
                                        "type": "uint256",
                                        "value": "0"
                                    },
                                    {
                                        "name": "protocolFee",
                                        "type": "uint256",
                                        "value": "667,331,639,998,993"
                                    },
                                    {
                                        "name": "lkbRemove",
                                        "type": "uint256",
                                        "value": "299,267,009,368,956,544"
                                    }
                                ]
                            },
                            {
                                "name": "_payload",
                                "type": "bytes",
                                "value": "0x"
                            }
                        ],
                        "constructorArguments": "",
                        "name": "swapRemote",
                        "returnParams": [],
                        "signature": "swapRemote(uint16,bytes,uint256,uint256,uint256,uint256,address,(uint256,uint256,uint256,uint256,uint256,uint256),bytes)"
                    },
                    "errorInfo": "",
                    "fromAddress": "0x296f55f8fb28e498b858d0bcda06d955b2cb3f97",
                    "gasUsed": 61987,
                    "id": 11,
                    "methodDecoded": true,
                    "operation": "CALL",
                    "output": "",
                    "revert": false,
                    "revertMessage": "",
                    "selector": "0x2f925555",
                    "status": true,
                    "value": "0"
                },
                "nodeType": 0
            },
            "12": {
                "invocation": {
                    "address": "0x06d538690af257da524f25d0cd52fd85b1c2173e",
                    "callData": "0x000000000000000000000000000000000000000000000000000000000000000d",
                    "decodedMethod": {
                        "callParams": [
                            {
                                "name": "",
                                "type": "uint256",
                                "value": "13"
                            }
                        ],
                        "constructorArguments": "",
                        "name": "getPool",
                        "returnParams": [
                            {
                                "name": "",
                                "type": "address",
                                "value": "0x101816545f6bd2b1076434b54383a1e633390a2e"
                            }
                        ],
                        "signature": "getPool(uint256)"
                    },
                    "errorInfo": "",
                    "fromAddress": "0x8731d54e9d02c286767d56ac03e8037c07e01e98",
                    "gasUsed": 514,
                    "id": 12,
                    "methodDecoded": true,
                    "operation": "STATICCALL",
                    "output": "0x000000000000000000000000101816545f6bd2b1076434b54383a1e633390a2e",
                    "revert": false,
                    "revertMessage": "",
                    "selector": "0x068bcd8d",
                    "status": true,
                    "value": "0"
                },
                "nodeType": 0
            },
            "13": {
                "invocation": {
                    "address": "0x101816545f6bd2b1076434b54383a1e633390a2e",
                    "callData": "0x000000000000000000000000000000000000000000000000000000000000006f000000000000000000000000000000000000000000000000000000000000000d000000000000000000000000150b8e09ccec1e070b242b5746e4917cb118d0db0000000000000000000000000000000000000000000000000422380936cd35f600000000000000000000000000000000000000000000000000003fdab0edf46800000000000000000000000000000000000000000000000000025eef41597a11000000000000000000000000000000000000000000000000000000000000000000000000000000000000000000000000000000000000000000025eef41597a11000000000000000000000000000000000000000000000000042735c26a6e1e80",
                    "decodedMethod": {
                        "callParams": [
                            {
                                "name": "_srcChainId",
                                "type": "uint16",
                                "value": "111"
                            },
                            {
                                "name": "_srcPoolId",
                                "type": "uint256",
                                "value": "13"
                            },
                            {
                                "name": "_to",
                                "type": "address",
                                "value": "0x150b8e09ccec1e070b242b5746e4917cb118d0db"
                            },
                            {
                                "name": "_s",
                                "type": "(uint256,uint256,uint256,uint256,uint256,uint256)",
                                "value": [
                                    {
                                        "name": "amount",
                                        "type": "uint256",
                                        "value": "297,862,137,585,153,526"
                                    },
                                    {
                                        "name": "eqFee",
                                        "type": "uint256",
                                        "value": "70,208,503,805,032"
                                    },
                                    {
                                        "name": "eqReward",
                                        "type": "uint256",
                                        "value": "667,331,639,998,993"
                                    },
                                    {
                                        "name": "lpFee",
                                        "type": "uint256",
                                        "value": "0"
                                    },
                                    {
                                        "name": "protocolFee",
                                        "type": "uint256",
                                        "value": "667,331,639,998,993"
                                    },
                                    {
                                        "name": "lkbRemove",
                                        "type": "uint256",
                                        "value": "299,267,009,368,956,544"
                                    }
                                ]
                            }
                        ],
                        "constructorArguments": "",
                        "name": "swapRemote",
                        "returnParams": [
                            {
                                "name": "amountLD",
                                "type": "uint256",
                                "value": "298,529,469,225,152,519"
                            }
                        ],
                        "signature": "swapRemote(uint16,uint256,address,(uint256,uint256,uint256,uint256,uint256,uint256))"
                    },
                    "errorInfo": "",
                    "fromAddress": "0x8731d54e9d02c286767d56ac03e8037c07e01e98",
                    "gasUsed": 57854,
                    "id": 13,
                    "methodDecoded": true,
                    "operation": "CALL",
                    "output": "0x000000000000000000000000000000000000000000000000042496f87826b007",
                    "revert": false,
                    "revertMessage": "",
                    "selector": "0x902b8ab7",
                    "status": true,
                    "value": "0"
                },
                "nodeType": 0
            },
            "14": {
                "invocation": {
                    "address": "0x72e2f4830b9e45d52f80ac08cb2bec0fef72ed9c",
                    "callData": "0x000000000000000000000000150b8e09ccec1e070b242b5746e4917cb118d0db000000000000000000000000000000000000000000000000042496f87826b007",
                    "decodedMethod": {
                        "callParams": [
                            {
                                "name": "dst",
                                "type": "address",
                                "value": "0x150b8e09ccec1e070b242b5746e4917cb118d0db"
                            },
                            {
                                "decimalAvailable": true,
                                "name": "wad",
                                "type": "uint256",
                                "value": "298,529,469,225,152,519"
                            }
                        ],
                        "constructorArguments": "",
                        "name": "transfer",
                        "returnParams": [
                            {
                                "name": "",
                                "type": "bool",
                                "value": true
                            }
                        ],
                        "signature": "transfer(address,uint256)"
                    },
                    "errorInfo": "",
                    "fromAddress": "0x101816545f6bd2b1076434b54383a1e633390a2e",
                    "gasUsed": 29460,
                    "id": 14,
                    "methodDecoded": true,
                    "operation": "CALL",
                    "output": "0x0000000000000000000000000000000000000000000000000000000000000001",
                    "revert": false,
                    "revertMessage": "",
                    "selector": "0xa9059cbb",
                    "status": true,
                    "value": "0"
                },
                "nodeType": 0
            },
            "15": {
                "invocation": {
                    "address": "0x150b8e09ccec1e070b242b5746e4917cb118d0db",
                    "callData": "0x",
                    "decodedMethod": null,
                    "errorInfo": "",
                    "fromAddress": "0x72e2f4830b9e45d52f80ac08cb2bec0fef72ed9c",
                    "gasUsed": 0,
                    "id": 15,
                    "methodDecoded": false,
                    "operation": "CALL",
                    "output": "",
                    "revert": false,
                    "revertMessage": "",
                    "selector": "fallback",
                    "status": true,
                    "value": "0.298529469225152519"
                },
                "nodeType": 0
            },
            "16": {
                "event": {
                    "contract": "0x72e2f4830b9e45d52f80ac08cb2bec0fef72ed9c",
                    "decodedLog": {
                        "name": "TransferNative",
                        "params": [
                            {
                                "name": "src",
                                "type": "address",
                                "value": "0x101816545f6bd2b1076434b54383a1e633390a2e"
                            },
                            {
                                "name": "dst",
                                "type": "address",
                                "value": "0x150b8e09ccec1e070b242b5746e4917cb118d0db"
                            },
                            {
                                "name": "wad",
                                "type": "uint256",
                                "value": "298,529,469,225,152,519"
                            }
                        ],
                        "signature": "TransferNative(address,address,uint256)"
                    },
                    "id": 16,
                    "logData": "0x000000000000000000000000000000000000000000000000042496f87826b007",
                    "logDecoded": true,
                    "operation": "EVENT",
                    "revert": false,
                    "status": true,
                    "topics": [
                        "0xb4a87134099d10c48345145381989042ab07dc53e6e62a6511fca55438562e26",
                        "0x000000000000000000000000101816545f6bd2b1076434b54383a1e633390a2e",
                        "0x000000000000000000000000150b8e09ccec1e070b242b5746e4917cb118d0db"
                    ]
                },
                "nodeType": 1
            },
            "17": {
                "event": {
                    "contract": "0x101816545f6bd2b1076434b54383a1e633390a2e",
                    "decodedLog": {
                        "name": "SwapRemote",
                        "params": [
                            {
                                "name": "to",
                                "type": "address",
                                "value": "0x150b8e09ccec1e070b242b5746e4917cb118d0db"
                            },
                            {
                                "name": "amountSD",
                                "type": "uint256",
                                "value": "298,529,469,225,152,519"
                            },
                            {
                                "name": "protocolFee",
                                "type": "uint256",
                                "value": "667,331,639,998,993"
                            },
                            {
                                "name": "dstFee",
                                "type": "uint256",
                                "value": "70,208,503,805,032"
                            }
                        ],
                        "signature": "SwapRemote(address,uint256,uint256,uint256)"
                    },
                    "id": 17,
                    "logData": "0x000000000000000000000000150b8e09ccec1e070b242b5746e4917cb118d0db000000000000000000000000000000000000000000000000042496f87826b00700000000000000000000000000000000000000000000000000025eef41597a1100000000000000000000000000000000000000000000000000003fdab0edf468",
                    "logDecoded": true,
                    "operation": "EVENT",
                    "revert": false,
                    "status": true,
                    "topics": [
                        "0xfb2b592367452f1c437675bed47f5e1e6c25188c17d7ba01a12eb030bc41ccef"
                    ]
                },
                "nodeType": 1
            },
            "2": {
                "invocation": {
                    "address": "0x4d73adb72bc3dd368966edd0f0b2148401a178e2",
                    "callData": "0x000000000000000000000000000000000000000000000000000000000000006f000000000000000000000000296f55f8fb28e498b858d0bcda06d955b2cb3f97000000000000000000000000000000000000000000000000000000000004323866526137be59678851579ac3e303a70e5b2adda3e8855b33d85bec3c998a1fd966526137be59678851579ac3e303a70e5b2adda3e8855b33d85bec3c998a1fd900000000000000000000000000000000000000000000000000000000000000c000000000000000000000000000000000000000000000000000000000000002740000000000000000000000004d73adb72bc3dd368966edd0f0b2148401a178e2000000000000d532006f701a95707a0290ac8b90b3719e8ee5b2103608830065296f55f8fb28e498b858d0bcda06d955b2cb3f970000000000000000000000000000000000000000000000000000000000000001000000000000000000000000000000000000000000000000000000000000000d000000000000000000000000000000000000000000000000000000000000000d0000000000000000000000000000000000000000000000000000000000000000000000000000000000000000000000000000000000000000000000000000000000000000000000000000000000000000000000000000000f2fd1c3afdef9ed040000000000000000000000000000000000000000000000000422380936cd35f600000000000000000000000000000000000000000000000000003fdab0edf46800000000000000000000000000000000000000000000000000025eef41597a11000000000000000000000000000000000000000000000000000000000000000000000000000000000000000000000000000000000000000000025eef41597a11000000000000000000000000000000000000000000000000042735c26a6e1e8000000000000000000000000000000000000000000000000000000000000001c000000000000000000000000000000000000000000000000000000000000002000000000000000000000000000000000000000000000000000000000000000014150b8e09ccec1e070b242b5746e4917cb118d0db0000000000000000000000000000000000000000000000000000000000000000000000000000000000000000000000000000000000000000",
                    "decodedMethod": {
                        "callParams": [
                            {
                                "name": "_srcChainId",
                                "type": "uint16",
                                "value": "111"
                            },
                            {
                                "name": "_dstAddress",
                                "type": "address",
                                "value": "0x296f55f8fb28e498b858d0bcda06d955b2cb3f97"
                            },
                            {
                                "name": "_gasLimit",
                                "type": "uint256",
                                "value": "275,000"
                            },
                            {
                                "name": "_lookupHash",
                                "type": "bytes32",
                                "value": "0x66526137be59678851579ac3e303a70e5b2adda3e8855b33d85bec3c998a1fd9"
                            },
                            {
                                "name": "_blockData",
                                "type": "bytes32",
                                "value": "0x66526137be59678851579ac3e303a70e5b2adda3e8855b33d85bec3c998a1fd9"
                            },
                            {
                                "name": "_transactionProof",
                                "type": "bytes",
                                "value": "0x0000000000000000000000004d73adb72bc3dd368966edd0f0b2148401a178e2000000000000d532006f701a95707a0290ac8b90b3719e8ee5b2103608830065296f55f8fb28e498b858d0bcda06d955b2cb3f970000000000000000000000000000000000000000000000000000000000000001000000000000000000000000000000000000000000000000000000000000000d000000000000000000000000000000000000000000000000000000000000000d0000000000000000000000000000000000000000000000000000000000000000000000000000000000000000000000000000000000000000000000000000000000000000000000000000000000000000000000000000000f2fd1c3afdef9ed040000000000000000000000000000000000000000000000000422380936cd35f600000000000000000000000000000000000000000000000000003fdab0edf46800000000000000000000000000000000000000000000000000025eef41597a11000000000000000000000000000000000000000000000000000000000000000000000000000000000000000000000000000000000000000000025eef41597a11000000000000000000000000000000000000000000000000042735c26a6e1e8000000000000000000000000000000000000000000000000000000000000001c000000000000000000000000000000000000000000000000000000000000002000000000000000000000000000000000000000000000000000000000000000014150b8e09ccec1e070b242b5746e4917cb118d0db0000000000000000000000000000000000000000000000000000000000000000000000000000000000000000"
                            }
                        ],
                        "constructorArguments": "",
                        "name": "validateTransactionProof",
                        "returnParams": [],
                        "signature": "validateTransactionProof(uint16,address,uint256,bytes32,bytes32,bytes)"
                    },
                    "errorInfo": "",
                    "fromAddress": "0x902f09715b6303d4173037652fa7377e5b98089e",
                    "gasUsed": 174247,
                    "id": 2,
                    "methodDecoded": true,
                    "operation": "CALL",
                    "output": "",
                    "revert": false,
                    "revertMessage": "",
                    "selector": "0x987fa2d5",
                    "status": true,
                    "value": "0"
                },
                "nodeType": 0
            },
            "3": {
                "invocation": {
                    "address": "0x07245eea05826f5984c7c3c8f478b04892e4df89",
                    "callData": "0x66526137be59678851579ac3e303a70e5b2adda3e8855b33d85bec3c998a1fd90000000000000000000000000000000000000000000000000000000000000060000000000000000000000000000000000000000000000000000000000000001400000000000000000000000000000000000000000000000000000000000002740000000000000000000000004d73adb72bc3dd368966edd0f0b2148401a178e2000000000000d532006f701a95707a0290ac8b90b3719e8ee5b2103608830065296f55f8fb28e498b858d0bcda06d955b2cb3f970000000000000000000000000000000000000000000000000000000000000001000000000000000000000000000000000000000000000000000000000000000d000000000000000000000000000000000000000000000000000000000000000d0000000000000000000000000000000000000000000000000000000000000000000000000000000000000000000000000000000000000000000000000000000000000000000000000000000000000000000000000000000f2fd1c3afdef9ed040000000000000000000000000000000000000000000000000422380936cd35f600000000000000000000000000000000000000000000000000003fdab0edf46800000000000000000000000000000000000000000000000000025eef41597a11000000000000000000000000000000000000000000000000000000000000000000000000000000000000000000000000000000000000000000025eef41597a11000000000000000000000000000000000000000000000000042735c26a6e1e8000000000000000000000000000000000000000000000000000000000000001c000000000000000000000000000000000000000000000000000000000000002000000000000000000000000000000000000000000000000000000000000000014150b8e09ccec1e070b242b5746e4917cb118d0db0000000000000000000000000000000000000000000000000000000000000000000000000000000000000000000000000000000000000000",
                    "decodedMethod": {
                        "callParams": [
                            {
                                "name": "_packetHash",
                                "type": "bytes32",
                                "value": "0x66526137be59678851579ac3e303a70e5b2adda3e8855b33d85bec3c998a1fd9"
                            },
                            {
                                "name": "_transactionProof",
                                "type": "bytes",
                                "value": "0x0000000000000000000000004d73adb72bc3dd368966edd0f0b2148401a178e2000000000000d532006f701a95707a0290ac8b90b3719e8ee5b2103608830065296f55f8fb28e498b858d0bcda06d955b2cb3f970000000000000000000000000000000000000000000000000000000000000001000000000000000000000000000000000000000000000000000000000000000d000000000000000000000000000000000000000000000000000000000000000d0000000000000000000000000000000000000000000000000000000000000000000000000000000000000000000000000000000000000000000000000000000000000000000000000000000000000000000000000000000f2fd1c3afdef9ed040000000000000000000000000000000000000000000000000422380936cd35f600000000000000000000000000000000000000000000000000003fdab0edf46800000000000000000000000000000000000000000000000000025eef41597a11000000000000000000000000000000000000000000000000000000000000000000000000000000000000000000000000000000000000000000025eef41597a11000000000000000000000000000000000000000000000000042735c26a6e1e8000000000000000000000000000000000000000000000000000000000000001c000000000000000000000000000000000000000000000000000000000000002000000000000000000000000000000000000000000000000000000000000000014150b8e09ccec1e070b242b5746e4917cb118d0db0000000000000000000000000000000000000000000000000000000000000000000000000000000000000000"
                            },
                            {
                                "name": "_remoteAddressSize",
                                "type": "uint256",
                                "value": "20"
                            }
                        ],
                        "constructorArguments": "",
                        "name": "validateProof",
                        "returnParams": [
                            {
                                "name": "packet",
                                "type": "(uint16,uint16,uint64,address,bytes,bytes32,bytes)",
                                "value": [
                                    {
                                        "name": "srcChainId",
                                        "type": "uint16",
                                        "value": "111"
                                    },
                                    {
                                        "name": "dstChainId",
                                        "type": "uint16",
                                        "value": "101"
                                    },
                                    {
                                        "name": "nonce",
                                        "type": "uint64",
                                        "value": "54,578"
                                    },
                                    {
                                        "name": "dstAddress",
                                        "type": "address",
                                        "value": "0x296f55f8fb28e498b858d0bcda06d955b2cb3f97"
                                    },
                                    {
                                        "name": "srcAddress",
                                        "type": "bytes",
                                        "value": "0x701a95707a0290ac8b90b3719e8ee5b210360883"
                                    },
                                    {
                                        "name": "ulnAddress",
                                        "type": "bytes32",
                                        "value": "0x0000000000000000000000004d73adb72bc3dd368966edd0f0b2148401a178e2"
                                    },
                                    {
                                        "name": "payload",
                                        "type": "bytes",
                                        "value": "0x0000000000000000000000000000000000000000000000000000000000000001000000000000000000000000000000000000000000000000000000000000000d000000000000000000000000000000000000000000000000000000000000000d0000000000000000000000000000000000000000000000000000000000000000000000000000000000000000000000000000000000000000000000000000000000000000000000000000000000000000000000000000000f2fd1c3afdef9ed040000000000000000000000000000000000000000000000000422380936cd35f600000000000000000000000000000000000000000000000000003fdab0edf46800000000000000000000000000000000000000000000000000025eef41597a11000000000000000000000000000000000000000000000000000000000000000000000000000000000000000000000000000000000000000000025eef41597a11000000000000000000000000000000000000000000000000042735c26a6e1e8000000000000000000000000000000000000000000000000000000000000001c000000000000000000000000000000000000000000000000000000000000002000000000000000000000000000000000000000000000000000000000000000014150b8e09ccec1e070b242b5746e4917cb118d0db0000000000000000000000000000000000000000000000000000000000000000000000000000000000000000"
                                    }
                                ]
                            }
                        ],
                        "signature": "validateProof(bytes32,bytes,uint256)"
                    },
                    "errorInfo": "",
                    "fromAddress": "0x4d73adb72bc3dd368966edd0f0b2148401a178e2",
                    "gasUsed": 9598,
                    "id": 3,
                    "methodDecoded": true,
                    "operation": "CALL",
                    "output": "0x0000000000000000000000000000000000000000000000000000000000000020000000000000000000000000000000000000000000000000000000000000006f0000000000000000000000000000000000000000000000000000000000000065000000000000000000000000000000000000000000000000000000000000d532000000000000000000000000296f55f8fb28e498b858d0bcda06d955b2cb3f9700000000000000000000000000000000000000000000000000000000000000e00000000000000000000000004d73adb72bc3dd368966edd0f0b2148401a178e200000000000000000000000000000000000000000000000000000000000001200000000000000000000000000000000000000000000000000000000000000014701a95707a0290ac8b90b3719e8ee5b21036088300000000000000000000000000000000000000000000000000000000000000000000000000000000000002200000000000000000000000000000000000000000000000000000000000000001000000000000000000000000000000000000000000000000000000000000000d000000000000000000000000000000000000000000000000000000000000000d0000000000000000000000000000000000000000000000000000000000000000000000000000000000000000000000000000000000000000000000000000000000000000000000000000000000000000000000000000000f2fd1c3afdef9ed040000000000000000000000000000000000000000000000000422380936cd35f600000000000000000000000000000000000000000000000000003fdab0edf46800000000000000000000000000000000000000000000000000025eef41597a11000000000000000000000000000000000000000000000000000000000000000000000000000000000000000000000000000000000000000000025eef41597a11000000000000000000000000000000000000000000000000042735c26a6e1e8000000000000000000000000000000000000000000000000000000000000001c000000000000000000000000000000000000000000000000000000000000002000000000000000000000000000000000000000000000000000000000000000014150b8e09ccec1e070b242b5746e4917cb118d0db0000000000000000000000000000000000000000000000000000000000000000000000000000000000000000",
                    "revert": false,
                    "revertMessage": "",
                    "selector": "0xb71e0f71",
                    "status": true,
                    "value": "0"
                },
                "nodeType": 0
            },
            "4": {
                "event": {
                    "contract": "0x4d73adb72bc3dd368966edd0f0b2148401a178e2",
                    "decodedLog": {
                        "name": "PacketReceived",
                        "params": [
                            {
                                "name": "srcChainId",
                                "type": "uint16",
                                "value": "111"
                            },
                            {
                                "name": "dstAddress",
                                "type": "address",
                                "value": "0x296f55f8fb28e498b858d0bcda06d955b2cb3f97"
                            },
                            {
                                "name": "srcAddress",
                                "type": "bytes",
                                "value": "0x701a95707a0290ac8b90b3719e8ee5b210360883"
                            },
                            {
                                "name": "nonce",
                                "type": "uint64",
                                "value": "54,578"
                            },
                            {
                                "name": "payloadHash",
                                "type": "bytes32",
                                "value": "0xb9ca34c89bd3affcd9f1d52bc8fe09b6b0427df50d6b9536ce7e8bf9eacd4266"
                            }
                        ],
                        "signature": "PacketReceived(uint16,bytes,address,uint64,bytes32)"
                    },
                    "id": 4,
                    "logData": "0x0000000000000000000000000000000000000000000000000000000000000060000000000000000000000000000000000000000000000000000000000000d532b9ca34c89bd3affcd9f1d52bc8fe09b6b0427df50d6b9536ce7e8bf9eacd42660000000000000000000000000000000000000000000000000000000000000014701a95707a0290ac8b90b3719e8ee5b210360883000000000000000000000000",
                    "logDecoded": true,
                    "operation": "EVENT",
                    "revert": false,
                    "status": true,
                    "topics": [
                        "0x2bd2d8a84b748439fd50d79a49502b4eb5faa25b864da6a9ab5c150704be9a4d",
                        "0x000000000000000000000000000000000000000000000000000000000000006f",
                        "0x000000000000000000000000296f55f8fb28e498b858d0bcda06d955b2cb3f97"
                    ]
                },
                "nodeType": 1
            },
            "5": {
                "invocation": {
                    "address": "0x66a71dcef29a0ffbdbe3c6a460a3b5bc225cd675",
                    "callData": "0x000000000000000000000000000000000000000000000000000000000000006f00000000000000000000000000000000000000000000000000000000000000c0000000000000000000000000296f55f8fb28e498b858d0bcda06d955b2cb3f97000000000000000000000000000000000000000000000000000000000000d532000000000000000000000000000000000000000000000000000000000004323800000000000000000000000000000000000000000000000000000000000001200000000000000000000000000000000000000000000000000000000000000028701a95707a0290ac8b90b3719e8ee5b210360883296f55f8fb28e498b858d0bcda06d955b2cb3f9700000000000000000000000000000000000000000000000000000000000000000000000000000000000000000000000000000000000002200000000000000000000000000000000000000000000000000000000000000001000000000000000000000000000000000000000000000000000000000000000d000000000000000000000000000000000000000000000000000000000000000d0000000000000000000000000000000000000000000000000000000000000000000000000000000000000000000000000000000000000000000000000000000000000000000000000000000000000000000000000000000f2fd1c3afdef9ed040000000000000000000000000000000000000000000000000422380936cd35f600000000000000000000000000000000000000000000000000003fdab0edf46800000000000000000000000000000000000000000000000000025eef41597a11000000000000000000000000000000000000000000000000000000000000000000000000000000000000000000000000000000000000000000025eef41597a11000000000000000000000000000000000000000000000000042735c26a6e1e8000000000000000000000000000000000000000000000000000000000000001c000000000000000000000000000000000000000000000000000000000000002000000000000000000000000000000000000000000000000000000000000000014150b8e09ccec1e070b242b5746e4917cb118d0db0000000000000000000000000000000000000000000000000000000000000000000000000000000000000000",
                    "decodedMethod": {
                        "callParams": [
                            {
                                "name": "_srcChainId",
                                "type": "uint16",
                                "value": "111"
                            },
                            {
                                "name": "_srcAddress",
                                "type": "bytes",
                                "value": "0x701a95707a0290ac8b90b3719e8ee5b210360883296f55f8fb28e498b858d0bcda06d955b2cb3f97"
                            },
                            {
                                "name": "_dstAddress",
                                "type": "address",
                                "value": "0x296f55f8fb28e498b858d0bcda06d955b2cb3f97"
                            },
                            {
                                "name": "_nonce",
                                "type": "uint64",
                                "value": "54,578"
                            },
                            {
                                "name": "_gasLimit",
                                "type": "uint256",
                                "value": "275,000"
                            },
                            {
                                "name": "_payload",
                                "type": "bytes",
                                "value": "0x0000000000000000000000000000000000000000000000000000000000000001000000000000000000000000000000000000000000000000000000000000000d000000000000000000000000000000000000000000000000000000000000000d0000000000000000000000000000000000000000000000000000000000000000000000000000000000000000000000000000000000000000000000000000000000000000000000000000000000000000000000000000000f2fd1c3afdef9ed040000000000000000000000000000000000000000000000000422380936cd35f600000000000000000000000000000000000000000000000000003fdab0edf46800000000000000000000000000000000000000000000000000025eef41597a11000000000000000000000000000000000000000000000000000000000000000000000000000000000000000000000000000000000000000000025eef41597a11000000000000000000000000000000000000000000000000042735c26a6e1e8000000000000000000000000000000000000000000000000000000000000001c000000000000000000000000000000000000000000000000000000000000002000000000000000000000000000000000000000000000000000000000000000014150b8e09ccec1e070b242b5746e4917cb118d0db0000000000000000000000000000000000000000000000000000000000000000000000000000000000000000"
                            }
                        ],
                        "constructorArguments": "",
                        "name": "receivePayload",
                        "returnParams": [],
                        "signature": "receivePayload(uint16,bytes,address,uint64,uint256,bytes)"
                    },
                    "errorInfo": "",
                    "fromAddress": "0x4d73adb72bc3dd368966edd0f0b2148401a178e2",
                    "gasUsed": 127158,
                    "id": 5,
                    "methodDecoded": true,
                    "operation": "CALL",
                    "output": "",
                    "revert": false,
                    "revertMessage": "",
                    "selector": "0xc2fa4813",
                    "status": true,
                    "value": "0"
                },
                "nodeType": 0
            },
            "6": {
                "invocation": {
                    "address": "0x296f55f8fb28e498b858d0bcda06d955b2cb3f97",
                    "callData": "0x000000000000000000000000000000000000000000000000000000000000006f0000000000000000000000000000000000000000000000000000000000000080000000000000000000000000000000000000000000000000000000000000d53200000000000000000000000000000000000000000000000000000000000000e00000000000000000000000000000000000000000000000000000000000000028701a95707a0290ac8b90b3719e8ee5b210360883296f55f8fb28e498b858d0bcda06d955b2cb3f9700000000000000000000000000000000000000000000000000000000000000000000000000000000000000000000000000000000000002200000000000000000000000000000000000000000000000000000000000000001000000000000000000000000000000000000000000000000000000000000000d000000000000000000000000000000000000000000000000000000000000000d0000000000000000000000000000000000000000000000000000000000000000000000000000000000000000000000000000000000000000000000000000000000000000000000000000000000000000000000000000000f2fd1c3afdef9ed040000000000000000000000000000000000000000000000000422380936cd35f600000000000000000000000000000000000000000000000000003fdab0edf46800000000000000000000000000000000000000000000000000025eef41597a11000000000000000000000000000000000000000000000000000000000000000000000000000000000000000000000000000000000000000000025eef41597a11000000000000000000000000000000000000000000000000042735c26a6e1e8000000000000000000000000000000000000000000000000000000000000001c000000000000000000000000000000000000000000000000000000000000002000000000000000000000000000000000000000000000000000000000000000014150b8e09ccec1e070b242b5746e4917cb118d0db0000000000000000000000000000000000000000000000000000000000000000000000000000000000000000",
                    "decodedMethod": {
                        "callParams": [
                            {
                                "name": "_srcChainId",
                                "type": "uint16",
                                "value": "111"
                            },
                            {
                                "name": "_srcAddress",
                                "type": "bytes",
                                "value": "0x701a95707a0290ac8b90b3719e8ee5b210360883296f55f8fb28e498b858d0bcda06d955b2cb3f97"
                            },
                            {
                                "name": "_nonce",
                                "type": "uint64",
                                "value": "54,578"
                            },
                            {
                                "name": "_payload",
                                "type": "bytes",
                                "value": "0x0000000000000000000000000000000000000000000000000000000000000001000000000000000000000000000000000000000000000000000000000000000d000000000000000000000000000000000000000000000000000000000000000d0000000000000000000000000000000000000000000000000000000000000000000000000000000000000000000000000000000000000000000000000000000000000000000000000000000000000000000000000000000f2fd1c3afdef9ed040000000000000000000000000000000000000000000000000422380936cd35f600000000000000000000000000000000000000000000000000003fdab0edf46800000000000000000000000000000000000000000000000000025eef41597a11000000000000000000000000000000000000000000000000000000000000000000000000000000000000000000000000000000000000000000025eef41597a11000000000000000000000000000000000000000000000000042735c26a6e1e8000000000000000000000000000000000000000000000000000000000000001c000000000000000000000000000000000000000000000000000000000000002000000000000000000000000000000000000000000000000000000000000000014150b8e09ccec1e070b242b5746e4917cb118d0db0000000000000000000000000000000000000000000000000000000000000000000000000000000000000000"
                            }
                        ],
                        "constructorArguments": "",
                        "name": "lzReceive",
                        "returnParams": [],
                        "signature": "lzReceive(uint16,bytes,uint64,bytes)"
                    },
                    "errorInfo": "",
                    "fromAddress": "0x66a71dcef29a0ffbdbe3c6a460a3b5bc225cd675",
                    "gasUsed": 110243,
                    "id": 6,
                    "methodDecoded": true,
                    "operation": "CALL",
                    "output": "",
                    "revert": false,
                    "revertMessage": "",
                    "selector": "0x001d3567",
                    "status": true,
                    "value": "0"
                },
                "nodeType": 0
            },
            "7": {
                "invocation": {
                    "address": "0x8731d54e9d02c286767d56ac03e8037c07e01e98",
                    "callData": "0x000000000000000000000000000000000000000000000000000000000000006f000000000000000000000000000000000000000000000000000000000000000d000000000000000000000000000000000000000000000000000000000000000d000000000000000000000000000000000000000000000000000000000000000000000000000000000000000000000000000000000000000f2fd1c3afdef9ed04",
                    "decodedMethod": {
                        "callParams": [
                            {
                                "name": "_dstChainId",
                                "type": "uint16",
                                "value": "111"
                            },
                            {
                                "name": "_dstPoolId",
                                "type": "uint256",
                                "value": "13"
                            },
                            {
                                "name": "_srcPoolId",
                                "type": "uint256",
                                "value": "13"
                            },
                            {
                                "name": "_c",
                                "type": "(uint256,uint256)",
                                "value": [
                                    {
                                        "name": "credits",
                                        "type": "uint256",
                                        "value": "0"
                                    },
                                    {
                                        "name": "idealBalance",
                                        "type": "uint256",
                                        "value": "280,146,911,455,686,028,548"
                                    }
                                ]
                            }
                        ],
                        "constructorArguments": "",
                        "name": "creditChainPath",
                        "returnParams": [],
                        "signature": "creditChainPath(uint16,uint256,uint256,(uint256,uint256))"
                    },
                    "errorInfo": "",
                    "fromAddress": "0x296f55f8fb28e498b858d0bcda06d955b2cb3f97",
                    "gasUsed": 33180,
                    "id": 7,
                    "methodDecoded": true,
                    "operation": "CALL",
                    "output": "",
                    "revert": false,
                    "revertMessage": "",
                    "selector": "0xa18fa804",
                    "status": true,
                    "value": "0"
                },
                "nodeType": 0
            },
            "8": {
                "invocation": {
                    "address": "0x06d538690af257da524f25d0cd52fd85b1c2173e",
                    "callData": "0x000000000000000000000000000000000000000000000000000000000000000d",
                    "decodedMethod": {
                        "callParams": [
                            {
                                "name": "",
                                "type": "uint256",
                                "value": "13"
                            }
                        ],
                        "constructorArguments": "",
                        "name": "getPool",
                        "returnParams": [
                            {
                                "name": "",
                                "type": "address",
                                "value": "0x101816545f6bd2b1076434b54383a1e633390a2e"
                            }
                        ],
                        "signature": "getPool(uint256)"
                    },
                    "errorInfo": "",
                    "fromAddress": "0x8731d54e9d02c286767d56ac03e8037c07e01e98",
                    "gasUsed": 2514,
                    "id": 8,
                    "methodDecoded": true,
                    "operation": "STATICCALL",
                    "output": "0x000000000000000000000000101816545f6bd2b1076434b54383a1e633390a2e",
                    "revert": false,
                    "revertMessage": "",
                    "selector": "0x068bcd8d",
                    "status": true,
                    "value": "0"
                },
                "nodeType": 0
            },
            "9": {
                "invocation": {
                    "address": "0x101816545f6bd2b1076434b54383a1e633390a2e",
                    "callData": "0x000000000000000000000000000000000000000000000000000000000000006f000000000000000000000000000000000000000000000000000000000000000d000000000000000000000000000000000000000000000000000000000000000000000000000000000000000000000000000000000000000f2fd1c3afdef9ed04",
                    "decodedMethod": {
                        "callParams": [
                            {
                                "name": "_dstChainId",
                                "type": "uint16",
                                "value": "111"
                            },
                            {
                                "name": "_dstPoolId",
                                "type": "uint256",
                                "value": "13"
                            },
                            {
                                "name": "_c",
                                "type": "(uint256,uint256)",
                                "value": [
                                    {
                                        "name": "credits",
                                        "type": "uint256",
                                        "value": "0"
                                    },
                                    {
                                        "name": "idealBalance",
                                        "type": "uint256",
                                        "value": "280,146,911,455,686,028,548"
                                    }
                                ]
                            }
                        ],
                        "constructorArguments": "",
                        "name": "creditChainPath",
                        "returnParams": [],
                        "signature": "creditChainPath(uint16,uint256,(uint256,uint256))"
                    },
                    "errorInfo": "",
                    "fromAddress": "0x8731d54e9d02c286767d56ac03e8037c07e01e98",
                    "gasUsed": 19585,
                    "id": 9,
                    "methodDecoded": true,
                    "operation": "CALL",
                    "output": "",
                    "revert": false,
                    "revertMessage": "",
                    "selector": "0xb6addec7",
                    "status": true,
                    "value": "0"
                },
                "nodeType": 0
            }
        },
        "gasFlame": [
            {
                "children": [
                    {
                        "children": [
                            {
                                "children": [],
                                "depth": 0,
                                "name": "Initial Gas",
                                "value": 27244
                            },
                            {
                                "children": [
                                    {
                                        "children": [
                                            {
                                                "children": [
                                                    {
                                                        "children": [],
                                                        "depth": 3,
                                                        "name": "validateProof",
                                                        "value": 9598
                                                    },
                                                    {
                                                        "children": [
                                                            {
                                                                "children": [
                                                                    {
                                                                        "children": [
                                                                            {
                                                                                "children": [],
                                                                                "depth": 6,
                                                                                "name": "getPool",
                                                                                "value": 2514
                                                                            },
                                                                            {
                                                                                "children": [],
                                                                                "depth": 6,
                                                                                "name": "creditChainPath",
                                                                                "value": 19585
                                                                            }
                                                                        ],
                                                                        "depth": 5,
                                                                        "name": "creditChainPath",
                                                                        "value": 33180
                                                                    },
                                                                    {
                                                                        "children": [
                                                                            {
                                                                                "children": [],
                                                                                "depth": 6,
                                                                                "name": "getPool",
                                                                                "value": 514
                                                                            },
                                                                            {
                                                                                "children": [
                                                                                    {
                                                                                        "children": [
                                                                                            {
                                                                                                "children": [],
                                                                                                "depth": 8,
                                                                                                "name": "fallback",
                                                                                                "value": 0
                                                                                            }
                                                                                        ],
                                                                                        "depth": 7,
                                                                                        "name": "transfer",
                                                                                        "value": 29460
                                                                                    }
                                                                                ],
                                                                                "depth": 6,
                                                                                "name": "swapRemote",
                                                                                "value": 57854
                                                                            }
                                                                        ],
                                                                        "depth": 5,
                                                                        "name": "swapRemote",
                                                                        "value": 61987
                                                                    }
                                                                ],
                                                                "depth": 4,
                                                                "name": "lzReceive",
                                                                "value": 110243
                                                            }
                                                        ],
                                                        "depth": 3,
                                                        "name": "receivePayload",
                                                        "value": 127158
                                                    }
                                                ],
                                                "depth": 2,
                                                "name": "validateTransactionProof",
                                                "value": 174247
                                            }
                                        ],
                                        "depth": 1,
                                        "name": "validateTransactionProofV1",
                                        "value": 189972
                                    }
                                ],
                                "depth": 0,
                                "name": "Executed Gas",
                                "value": 195220
                            }
                        ],
                        "depth": -1,
                        "name": "Actual Gas Used",
                        "value": 208464
                    },
                    {
                        "children": [],
                        "depth": -1,
                        "name": "Refunded Gas",
                        "value": 14000
                    }
                ],
                "depth": -2,
                "name": "Total Gas",
                "value": 222464
            }
        ],
        "isConfirmed": true,
        "mainTrace": [
            {
                "children": [
                    {
                        "children": [
                            {
                                "children": [
                                    {
                                        "children": [
                                            {
                                                "children": [],
                                                "depth": 3,
                                                "id": 3,
                                                "order": 3
                                            },
                                            {
                                                "children": [],
                                                "depth": 3,
                                                "id": 4,
                                                "order": 4
                                            },
                                            {
                                                "children": [
                                                    {
                                                        "children": [
                                                            {
                                                                "children": [
                                                                    {
                                                                        "children": [],
                                                                        "depth": 6,
                                                                        "id": 8,
                                                                        "order": 8
                                                                    },
                                                                    {
                                                                        "children": [
                                                                            {
                                                                                "children": [],
                                                                                "depth": 7,
                                                                                "id": 10,
                                                                                "order": 10
                                                                            }
                                                                        ],
                                                                        "depth": 6,
                                                                        "id": 9,
                                                                        "order": 9
                                                                    }
                                                                ],
                                                                "depth": 5,
                                                                "id": 7,
                                                                "order": 7
                                                            },
                                                            {
                                                                "children": [
                                                                    {
                                                                        "children": [],
                                                                        "depth": 6,
                                                                        "id": 12,
                                                                        "order": 12
                                                                    },
                                                                    {
                                                                        "children": [
                                                                            {
                                                                                "children": [
                                                                                    {
                                                                                        "children": [],
                                                                                        "depth": 8,
                                                                                        "id": 15,
                                                                                        "order": 15
                                                                                    },
                                                                                    {
                                                                                        "children": [],
                                                                                        "depth": 8,
                                                                                        "id": 16,
                                                                                        "order": 16
                                                                                    }
                                                                                ],
                                                                                "depth": 7,
                                                                                "id": 14,
                                                                                "order": 14
                                                                            },
                                                                            {
                                                                                "children": [],
                                                                                "depth": 7,
                                                                                "id": 17,
                                                                                "order": 17
                                                                            }
                                                                        ],
                                                                        "depth": 6,
                                                                        "id": 13,
                                                                        "order": 13
                                                                    }
                                                                ],
                                                                "depth": 5,
                                                                "id": 11,
                                                                "order": 11
                                                            }
                                                        ],
                                                        "depth": 4,
                                                        "id": 6,
                                                        "order": 6
                                                    }
                                                ],
                                                "depth": 3,
                                                "id": 5,
                                                "order": 5
                                            }
                                        ],
                                        "depth": 2,
                                        "id": 2,
                                        "order": 2
                                    }
                                ],
                                "depth": 1,
                                "id": 1,
                                "order": 1
                            }
                        ],
                        "depth": 0,
                        "id": 0,
                        "order": 0
                    }
                ],
                "depth": -1,
                "id": -1,
                "order": -1
            }
        ],
        "mainTraceNodeCount": 18,
        "parentIdMap": {
            "0": -1,
            "1": 0,
            "10": 9,
            "11": 6,
            "12": 11,
            "13": 11,
            "14": 13,
            "15": 14,
            "16": 14,
            "17": 13,
            "2": 1,
            "3": 2,
            "4": 2,
            "5": 2,
            "6": 5,
            "7": 6,
            "8": 7,
            "9": 7
        },
        "tidyTrace": [
            {
                "children": [
                    {
                        "children": [
                            {
                                "children": [
                                    {
                                        "children": [
                                            {
                                                "children": [],
                                                "depth": 3,
                                                "id": 3,
                                                "order": 3
                                            },
                                            {
                                                "children": [],
                                                "depth": 3,
                                                "id": 4,
                                                "order": 4
                                            },
                                            {
                                                "children": [
                                                    {
                                                        "children": [
                                                            {
                                                                "children": [
                                                                    {
                                                                        "children": [
                                                                            {
                                                                                "children": [],
                                                                                "depth": 7,
                                                                                "id": 10,
                                                                                "order": 10
                                                                            }
                                                                        ],
                                                                        "depth": 6,
                                                                        "id": 9,
                                                                        "order": 9
                                                                    }
                                                                ],
                                                                "depth": 5,
                                                                "id": 7,
                                                                "order": 7
                                                            },
                                                            {
                                                                "children": [
                                                                    {
                                                                        "children": [
                                                                            {
                                                                                "children": [
                                                                                    {
                                                                                        "children": [],
                                                                                        "depth": 8,
                                                                                        "id": 15,
                                                                                        "order": 15
                                                                                    },
                                                                                    {
                                                                                        "children": [],
                                                                                        "depth": 8,
                                                                                        "id": 16,
                                                                                        "order": 16
                                                                                    }
                                                                                ],
                                                                                "depth": 7,
                                                                                "id": 14,
                                                                                "order": 14
                                                                            },
                                                                            {
                                                                                "children": [],
                                                                                "depth": 7,
                                                                                "id": 17,
                                                                                "order": 17
                                                                            }
                                                                        ],
                                                                        "depth": 6,
                                                                        "id": 13,
                                                                        "order": 13
                                                                    }
                                                                ],
                                                                "depth": 5,
                                                                "id": 11,
                                                                "order": 11
                                                            }
                                                        ],
                                                        "depth": 4,
                                                        "id": 6,
                                                        "order": 6
                                                    }
                                                ],
                                                "depth": 3,
                                                "id": 5,
                                                "order": 5
                                            }
                                        ],
                                        "depth": 2,
                                        "id": 2,
                                        "order": 2
                                    }
                                ],
                                "depth": 1,
                                "id": 1,
                                "order": 1
                            }
                        ],
                        "depth": 0,
                        "id": 0,
                        "order": 0
                    }
                ],
                "depth": -1,
                "id": -1,
                "order": -1
            }
        ],
        "tidyTraceNodeCount": 16
    },
    "state_change": {
        "stateChanges": [
            {
                "address": "0x101816545f6bd2b1076434b54383a1e633390a2e",
                "erc": "ERC-20",
                "slots": [
                    {
                        "current": "0x00000000000000000000000000000000000000000000000f2fd1c3afdef9ed04",
                        "key": "0x6e1540171b6c0c960b71a7020d9f60077f6af931a8bbf590da0223dacf75c7c3",
                        "prev": "0x00000000000000000000000000000000000000000000000f2fd100cb97188871"
                    },
                    {
                        "current": "0x00000000000000000000000000000000000000000000004c83a59d6872cb9d98",
                        "key": "0x6e1540171b6c0c960b71a7020d9f60077f6af931a8bbf590da0223dacf75c7c1",
                        "prev": "0x00000000000000000000000000000000000000000000004c87ccd32add39bc18"
                    },
                    {
                        "current": "0x00000000000000000000000000000000000000000000000060f33116fa11cc6d",
                        "key": "0x0000000000000000000000000000000000000000000000000000000000000013",
                        "prev": "0x00000000000000000000000000000000000000000000000060f2f13c4923d805"
                    },
                    {
                        "current": "0x000000000000000000000000000000000000000000000000d7b91d6588f8a4f1",
                        "key": "0x0000000000000000000000000000000000000000000000000000000000000011",
                        "prev": "0x000000000000000000000000000000000000000000000000d7b6be76479f2ae0"
                    }
                ],
                "storageVariables": [
                    {
                        "name": "protocolFeeBalance",
                        "type": "uint256",
                        "value": {
                            "current": "15544487910772876529",
                            "prev": "15543820579132877536",
                            "typeTag": 1
                        }
                    },
                    {
                        "name": "chainPaths",
                        "type": "struct Pool.ChainPath[]",
                        "value": {
                            "elemType": "struct Pool.ChainPath",
                            "elems": [
                                {
                                    "index": 2,
                                    "value": {
                                        "fields": [
                                            {
                                                "name": "lkb",
                                                "type": "uint256",
                                                "value": {
                                                    "current": "1411438710863979847064",
                                                    "prev": "1411737977873348803608",
                                                    "typeTag": 1
                                                }
                                            },
                                            {
                                                "name": "idealBalance",
                                                "type": "uint256",
                                                "value": {
                                                    "current": "280146911455686028548",
                                                    "prev": "280146697169971742833",
                                                    "typeTag": 1
                                                }
                                            }
                                        ],
                                        "typeTag": 3
                                    }
                                }
                            ],
                            "typeTag": 2
                        }
                    },
                    {
                        "name": "eqFeePool",
                        "type": "uint256",
                        "value": {
                            "current": "6985981421736283245",
                            "prev": "6985911213232478213",
                            "typeTag": 1
                        }
                    }
                ]
            },
            {
                "address": "0x66a71dcef29a0ffbdbe3c6a460a3b5bc225cd675",
                "erc": "",
                "slots": [
                    {
                        "current": "0x000000000000000000000000000000000000000000000000000000000000d532",
                        "key": "0x8be2fd2d5546ddce30cd93020b2d7b9ef5393ad2bcf1ca72d2c96508354cd554",
                        "prev": "0x000000000000000000000000000000000000000000000000000000000000d531"
                    }
                ],
                "storageVariables": [
                    {
                        "name": "inboundNonce",
                        "type": "mapping(uint16 => mapping(bytes => uint64))",
                        "value": {
                            "pairs": [
                                {
                                    "key": "111",
                                    "value": {
                                        "pairs": [
                                            {
                                                "key": "0x701a95707a0290ac8b90b3719e8ee5b210360883296f55f8fb28e498b858d0bcda06d955b2cb3f97",
                                                "value": {
                                                    "current": "54578",
                                                    "prev": "54577",
                                                    "typeTag": 1
                                                }
                                            }
                                        ],
                                        "typeTag": 4
                                    }
                                }
                            ],
                            "typeTag": 4
                        }
                    }
                ]
            },
            {
                "address": "0x72e2f4830b9e45d52f80ac08cb2bec0fef72ed9c",
                "erc": "ERC-20",
                "slots": [
                    {
                        "current": "0x00000000000000000000000000000000000000000000013dd48093f37f83b740",
                        "key": "0x0000000000000000000000000000000000000000000000000000000000000002",
                        "prev": "0x00000000000000000000000000000000000000000000013dd8a52aebf7aa6747"
                    },
                    {
                        "current": "0x00000000000000000000000000000000000000000000013dd3e95f666bdd0caf",
                        "key": "0xf7f69682f9824f4882eeb5c155140ea75b5429ce47c66acc542cb334557ba4b3",
                        "prev": "0x00000000000000000000000000000000000000000000013dd80df65ee403bcb6"
                    }
                ],
                "storageVariables": [
                    {
                        "name": "totalSupply",
                        "type": "uint256",
                        "value": {
                            "current": "5862930272773013223232",
                            "prev": "5863228802242238375751",
                            "typeTag": 1
                        }
                    },
                    {
                        "name": "balanceOf",
                        "type": "mapping(address => uint256)",
                        "value": {
                            "pairs": [
                                {
                                    "key": "0x101816545f6bd2b1076434b54383a1e633390a2e",
                                    "value": {
                                        "current": "5862887712271005191343",
                                        "prev": "5863186241740230343862",
                                        "typeTag": 1
                                    }
                                }
                            ],
                            "typeTag": 4
                        }
                    }
                ]
            }
        ]
    }
}