{
    "balance_change": {
        "balanceChanges": []
    },
    "profile": {
        "basic_info": {
            "baseFee": "",
            "blockNumber": 7987133,
            "callData": "0x1801fbe520f267f44ef22d40aa988014f9d4680000000000d066370de22aadfed2ddbcb00000019b89c0f2c8fa2de34bb35c4dcb7c55c303beef0431d1082f3476a0db81",
            "debugEnable": true,
            "errorInfo": "",
            "eventCount": 1,
            "feeRecipient": "0x52bc44d5378309ee2abf1539bf71de1b7d7be3b5",
            "formatValue": "0",
            "gasLimit": 200000,
            "gasPrice": "9",
            "gasUsed": 94508,
            "intTxnCount": 0,
            "internalRevert": false,
            "internalRevertMessage": "",
            "isContractCreation": false,
            "isFlashloan": false,
            "maxFee": "",
            "nonce": 10,
            "overwritedBlockNumber": -1,
            "priorityFee": "",
            "receiver": "0x26946ada5ecb57f3a1f91605050ce45c482c9eb1",
            "revertMessage": "",
            "sender": "0x5d25d23964d93a200315b9b50dfbab2091217c31",
            "simulationEnable": true,
            "sourceTxnHash": "0x87f7a5d98ab5012550f3989a855909d56781c8d2c652d83f5cf4e3444651273f",
            "status": true,
            "timestamp": "2019-06-19T06:33:11Z",
            "transactionFee": "0.000850572",
            "txnHash": "0x87f7a5d98ab5012550f3989a855909d56781c8d2c652d83f5cf4e3444651273f",
            "txnIndex": 27,
            "type": 0,
            "value": "0"
        },
        "fund_flow": [],
        "token_infos": [
            {
                "address": "0xc02aaa39b223fe8d0a0e5c4f27ead9083c756cc2",
                "decimals": 18
            },
            {
                "address": "0xeeeeeeeeeeeeeeeeeeeeeeeeeeeeeeeeeeeeeeee",
                "decimals": 18
            }
        ]
    },
    "address_label": {
        "labels": [
            {
                "address": "0x0000000000000000000000000000000000000001",
                "label": "Precompiled"
            },
            {
                "address": "0x0000000000000000000000000000000000000002",
                "label": "Precompiled"
            },
            {
                "address": "0x0000000000000000000000000000000000000003",
                "label": "Precompiled"
            },
            {
                "address": "0x0000000000000000000000000000000000000004",
                "label": "Precompiled"
            },
            {
                "address": "0xeeeeeeeeeeeeeeeeeeeeeeeeeeeeeeeeeeeeeeee",
                "label": "Ether"
            },
            {
                "address": "0x26946ada5ecb57f3a1f91605050ce45c482c9eb1",
                "label": "BitcoinSoV (BSOV)"
            }
        ]
    },
    "trace": {
        "accountLabels": null,
        "dataMap": {
            "-1": {
                "invocation": {
                    "address": "0x5d25d23964d93a200315b9b50dfbab2091217c31",
                    "callData": "",
                    "decodedMethod": null,
                    "errorInfo": "",
                    "fromAddress": "",
                    "gasUsed": 0,
                    "id": -1,
                    "methodDecoded": false,
                    "operation": "",
                    "output": "",
                    "revert": false,
                    "revertMessage": "",
                    "selector": "",
                    "status": false,
                    "value": ""
                },
                "nodeType": 0
            },
            "0": {
                "invocation": {
                    "address": "0x26946ada5ecb57f3a1f91605050ce45c482c9eb1",
                    "callData": "0x20f267f44ef22d40aa988014f9d4680000000000d066370de22aadfed2ddbcb00000019b89c0f2c8fa2de34bb35c4dcb7c55c303beef0431d1082f3476a0db81",
                    "decodedMethod": {
                        "callParams": [
                            {
                                "name": "nonce",
                                "type": "uint256",
                                "value": "14,902,305,610,755,584,142,526,637,547,104,624,561,685,129,591,764,650,150,680,370,273,283,108,355,248"
                            },
                            {
                                "name": "challenge_digest",
                                "type": "bytes32",
                                "value": "0x0000019b89c0f2c8fa2de34bb35c4dcb7c55c303beef0431d1082f3476a0db81"
                            }
                        ],
                        "constructorArguments": "",
                        "name": "mint",
                        "returnParams": [
                            {
                                "name": "success",
                                "type": "bool",
                                "value": true
                            }
                        ],
                        "signature": "mint(uint256,bytes32)"
                    },
                    "errorInfo": "",
                    "fromAddress": "0x5d25d23964d93a200315b9b50dfbab2091217c31",
                    "gasUsed": 94508,
                    "id": 0,
                    "methodDecoded": true,
                    "operation": "CALL",
                    "output": "0x0000000000000000000000000000000000000000000000000000000000000001",
                    "revert": false,
                    "revertMessage": "",
                    "selector": "0x1801fbe5",
                    "status": true,
                    "value": "0"
                },
                "nodeType": 0
            },
            "1": {
                "event": {
                    "contract": "0x26946ada5ecb57f3a1f91605050ce45c482c9eb1",
                    "decodedLog": {
                        "name": "Mint",
                        "params": [
                            {
                                "name": "from",
                                "type": "address",
                                "value": "0x5d25d23964d93a200315b9b50dfbab2091217c31"
                            },
                            {
                                "name": "reward_amount",
                                "type": "uint256",
                                "value": "5,000,000,000"
                            },
                            {
                                "name": "epochCount",
                                "type": "uint256",
                                "value": "1,942"
                            },
                            {
                                "name": "newChallengeNumber",
                                "type": "bytes32",
                                "value": "0x8f610876eac921a5596e324127f18a16156390cfc34583a0ab2fe1b73f420a91"
                            }
                        ],
                        "signature": "Mint(address,uint256,uint256,bytes32)"
                    },
                    "id": 1,
                    "logData": "0x000000000000000000000000000000000000000000000000000000012a05f20000000000000000000000000000000000000000000000000000000000000007968f610876eac921a5596e324127f18a16156390cfc34583a0ab2fe1b73f420a91",
                    "logDecoded": true,
                    "operation": "EVENT",
                    "revert": false,
                    "status": true,
                    "topics": [
                        "0xcf6fbb9dcea7d07263ab4f5c3a92f53af33dffc421d9d121e1c74b307e68189d",
                        "0x0000000000000000000000005d25d23964d93a200315b9b50dfbab2091217c31"
                    ]
                },
                "nodeType": 1
            }
        },
        "gasFlame": [
            {
                "children": [
                    {
                        "children": [
                            {
                                "children": [],
                                "depth": 0,
                                "name": "Initial Gas",
                                "value": 25176
                            },
                            {
                                "children": [],
                                "depth": 0,
                                "name": "Executed Gas",
                                "value": 69332
                            }
                        ],
                        "depth": -1,
                        "name": "Actual Gas Used",
                        "value": 94508
                    },
                    {
                        "children": [],
                        "depth": -1,
                        "name": "Refunded Gas",
                        "value": 0
                    }
                ],
                "depth": -2,
                "name": "Total Gas",
                "value": 94508
            }
        ],
        "isConfirmed": true,
        "mainTrace": [
            {
                "children": [
                    {
                        "children": [
                            {
                                "children": [],
                                "depth": 1,
                                "id": 1,
                                "order": 1
                            }
                        ],
                        "depth": 0,
                        "id": 0,
                        "order": 0
                    }
                ],
                "depth": -1,
                "id": -1,
                "order": -1
            }
        ],
        "mainTraceNodeCount": 2,
        "parentIdMap": {
            "0": -1,
            "1": 0
        },
        "tidyTrace": [
            {
                "children": [
                    {
                        "children": [
                            {
                                "children": [],
                                "depth": 1,
                                "id": 1,
                                "order": 1
                            }
                        ],
                        "depth": 0,
                        "id": 0,
                        "order": 0
                    }
                ],
                "depth": -1,
                "id": -1,
                "order": -1
            }
        ],
        "tidyTraceNodeCount": 2
    },
    "state_change": {
        "stateChanges": [
            {
                "address": "0x26946ada5ecb57f3a1f91605050ce45c482c9eb1",
                "erc": "ERC-20",
                "slots": [
                    {
                        "current": "0x8f610876eac921a5596e324127f18a16156390cfc34583a0ab2fe1b73f420a91",
                        "key": "0x000000000000000000000000000000000000000000000000000000000000000c",
                        "prev": "0x7cb997c18c75b4dacf07fc5ecc12bdec8e94d25ffc45609904480bffadba52c7"
                    },
                    {
                        "current": "0x0000019b89c0f2c8fa2de34bb35c4dcb7c55c303beef0431d1082f3476a0db81",
                        "key": "0xa88eb3c4aebd8933cd917efce12d2c368532106dbd1bd18c4169903eebfc531d",
                        "prev": "0x0000000000000000000000000000000000000000000000000000000000000000"
                    },
                    {
                        "current": "0x0000000000000000000000000000000000000000000000000000000ba43b7400",
                        "key": "0x402bac5cdf693088aa1c27ccae6c5616e55382b534e75e973a89624df358dbbb",
                        "prev": "0x0000000000000000000000000000000000000000000000000000000a7a358200"
                    },
                    {
                        "current": "0x000000000000000000000000000000000000000000000000000008d39f13da00",
                        "key": "0x0000000000000000000000000000000000000000000000000000000000000014",
                        "prev": "0x000000000000000000000000000000000000000000000000000008d2750de800"
                    },
                    {
                        "current": "0x000000000000000000000000000000000000000000000000000000000079dfbd",
                        "key": "0x0000000000000000000000000000000000000000000000000000000000000011",
                        "prev": "0x000000000000000000000000000000000000000000000000000000000079dfbb"
                    },
                    {
                        "current": "0x0000000000000000000000000000000000000000000000000000000000000796",
                        "key": "0x0000000000000000000000000000000000000000000000000000000000000007",
                        "prev": "0x0000000000000000000000000000000000000000000000000000000000000795"
                    }
                ],
                "storageVariables": [
                    {
                        "name": "solutionForChallenge",
                        "type": "mapping(bytes32 => bytes32)",
                        "value": {
                            "pairs": [
                                {
                                    "key": "0x7cb997c18c75b4dacf07fc5ecc12bdec8e94d25ffc45609904480bffadba52c7",
                                    "value": {
                                        "current": "0x0000019b89c0f2c8fa2de34bb35c4dcb7c55c303beef0431d1082f3476a0db81",
                                        "prev": "0x0000000000000000000000000000000000000000000000000000000000000000",
                                        "typeTag": 1
                                    }
                                }
                            ],
                            "typeTag": 4
                        }
                    },
                    {
                        "name": "balances",
                        "type": "mapping(address => uint256)",
                        "value": {
                            "pairs": [
                                {
                                    "key": "0x5d25d23964d93a200315b9b50dfbab2091217c31",
                                    "value": {
                                        "current": "50000000000",
                                        "prev": "45000000000",
                                        "typeTag": 1
                                    }
                                }
                            ],
                            "typeTag": 4
                        }
                    },
                    {
                        "name": "tokensMinted",
                        "type": "uint256",
                        "value": {
                            "current": "9705000000000",
                            "prev": "9700000000000",
                            "typeTag": 1
                        }
                    },
                    {
                        "name": "lastRewardEthBlockNumber",
                        "type": "uint256",
                        "value": {
                            "current": "7987133",
                            "prev": "7987131",
                            "typeTag": 1
                        }
                    },
                    {
                        "name": "epochCount",
                        "type": "uint256",
                        "value": {
                            "current": "1942",
                            "prev": "1941",
                            "typeTag": 1
                        }
                    },
                    {
                        "name": "challengeNumber",
                        "type": "bytes32",
                        "value": {
                            "current": "0x8f610876eac921a5596e324127f18a16156390cfc34583a0ab2fe1b73f420a91",
                            "prev": "0x7cb997c18c75b4dacf07fc5ecc12bdec8e94d25ffc45609904480bffadba52c7",
                            "typeTag": 1
                        }
                    }
                ]
            }
        ]
    }
}