{
    "balance_change": {
        "balanceChanges": [
            {
                "account": "0x08cf1208e638a5a3623be58d600e35c6199baa9c",
                "assets": [
                    {
                        "address": "0xabb3738f04dc2ec20f4ae4462c3d069d02ae045b",
                        "amount": "1",
                        "iconUrl": "",
                        "isERC1155": false,
                        "isERC721": true,
                        "sign": false,
                        "tokenID": "1588006",
                        "value": ""
                    }
                ]
            },
            {
                "account": "0x544bb9000af946ec304a154a4ac1663bac3dbe23",
                "assets": [
                    {
                        "address": "0xabb3738f04dc2ec20f4ae4462c3d069d02ae045b",
                        "amount": "1",
                        "iconUrl": "",
                        "isERC1155": false,
                        "isERC721": true,
                        "sign": true,
                        "tokenID": "1588006",
                        "value": ""
                    }
                ]
            }
        ]
    },
    "profile": {
        "basic_info": {
            "baseFee": "82.226063807",
            "blockNumber": 13491295,
            "callData": "0x23b872dd00000000000000000000000008cf1208e638a5a3623be58d600e35c6199baa9c000000000000000000000000544bb9000af946ec304a154a4ac1663bac3dbe230000000000000000000000000000000000000000000000000000000000183b26",
            "debugEnable": true,
            "errorInfo": "",
            "eventCount": 1,
            "feeRecipient": "0xb7e390864a90b7b923c9f9310c6f98aafe43f707",
            "formatValue": "0",
            "gasLimit": 62717,
            "gasPrice": "83.636063807",
            "gasUsed": 62717,
            "intTxnCount": 0,
            "internalRevert": false,
            "internalRevertMessage": "",
            "isContractCreation": false,
            "isFlashloan": false,
            "maxFee": "126.951838653",
            "nonce": 586,
            "overwritedBlockNumber": -1,
            "priorityFee": "1.41",
            "receiver": "0xabb3738f04dc2ec20f4ae4462c3d069d02ae045b",
            "revertMessage": "",
            "sender": "0x08cf1208e638a5a3623be58d600e35c6199baa9c",
            "simulationEnable": true,
            "sourceTxnHash": "0x87037cca91080a9a7d2a31da4654cf7ec12642e4d39be8c8ee5c2e3c026a2472",
            "status": true,
            "timestamp": "2021-10-26T06:10:28Z",
            "transactionFee": "0.005245403013783619",
            "txnHash": "0x87037cca91080a9a7d2a31da4654cf7ec12642e4d39be8c8ee5c2e3c026a2472",
            "txnIndex": 357,
            "type": 2,
            "value": "0"
        },
        "fund_flow": [
            {
                "amount": "1",
                "from": "0x08cf1208e638a5a3623be58d600e35c6199baa9c",
                "id": 1,
                "isERC1155": false,
                "isERC721": true,
                "isReverted": false,
                "order": 1,
                "to": "0x544bb9000af946ec304a154a4ac1663bac3dbe23",
                "token": "0xabb3738f04dc2ec20f4ae4462c3d069d02ae045b",
                "tokenID": "1588006"
            }
        ],
        "token_infos": [
            {
                "address": "0xc02aaa39b223fe8d0a0e5c4f27ead9083c756cc2",
                "decimals": 18
            },
            {
                "address": "0xeeeeeeeeeeeeeeeeeeeeeeeeeeeeeeeeeeeeeeee",
                "decimals": 18
            }
        ]
    },
    "address_label": {
        "labels": [
            {
                "address": "0xeeeeeeeeeeeeeeeeeeeeeeeeeeeeeeeeeeeeeeee",
                "label": "Ether"
            },
            {
                "address": "0xabb3738f04dc2ec20f4ae4462c3d069d02ae045b",
                "label": "KnownOrigin: KODA V3"
            },
            {
                "address": "0x0000000000000000000000000000000000000001",
                "label": "Precompiled"
            },
            {
                "address": "0x0000000000000000000000000000000000000002",
                "label": "Precompiled"
            },
            {
                "address": "0x0000000000000000000000000000000000000003",
                "label": "Precompiled"
            },
            {
                "address": "0x0000000000000000000000000000000000000004",
                "label": "Precompiled"
            }
        ]
    },
    "trace": {
        "accountLabels": null,
        "dataMap": {
            "-1": {
                "invocation": {
                    "address": "0x08cf1208e638a5a3623be58d600e35c6199baa9c",
                    "callData": "",
                    "decodedMethod": null,
                    "errorInfo": "",
                    "fromAddress": "",
                    "gasUsed": 0,
                    "id": -1,
                    "methodDecoded": false,
                    "operation": "",
                    "output": "",
                    "revert": false,
                    "revertMessage": "",
                    "selector": "",
                    "status": false,
                    "value": ""
                },
                "nodeType": 0
            },
            "0": {
                "invocation": {
                    "address": "0xabb3738f04dc2ec20f4ae4462c3d069d02ae045b",
                    "callData": "0x00000000000000000000000008cf1208e638a5a3623be58d600e35c6199baa9c000000000000000000000000544bb9000af946ec304a154a4ac1663bac3dbe230000000000000000000000000000000000000000000000000000000000183b26",
                    "decodedMethod": {
                        "callParams": [
                            {
                                "name": "_from",
                                "type": "address",
                                "value": "0x08cf1208e638a5a3623be58d600e35c6199baa9c"
                            },
                            {
                                "name": "_to",
                                "type": "address",
                                "value": "0x544bb9000af946ec304a154a4ac1663bac3dbe23"
                            },
                            {
                                "decimalAvailable": true,
                                "name": "_tokenId",
                                "type": "uint256",
                                "value": "1,588,006"
                            }
                        ],
                        "constructorArguments": "",
                        "name": "transferFrom",
                        "returnParams": [],
                        "signature": "transferFrom(address,address,uint256)"
                    },
                    "errorInfo": "",
                    "fromAddress": "0x08cf1208e638a5a3623be58d600e35c6199baa9c",
                    "gasUsed": 62717,
                    "id": 0,
                    "methodDecoded": true,
                    "operation": "CALL",
                    "output": "",
                    "revert": false,
                    "revertMessage": "",
                    "selector": "0x23b872dd",
                    "status": true,
                    "value": "0"
                },
                "nodeType": 0
            },
            "1": {
                "event": {
                    "contract": "0xabb3738f04dc2ec20f4ae4462c3d069d02ae045b",
                    "decodedLog": {
                        "name": "Transfer",
                        "params": [
                            {
                                "name": "from",
                                "type": "address",
                                "value": "0x08cf1208e638a5a3623be58d600e35c6199baa9c"
                            },
                            {
                                "name": "to",
                                "type": "address",
                                "value": "0x544bb9000af946ec304a154a4ac1663bac3dbe23"
                            },
                            {
                                "decimalAvailable": true,
                                "name": "tokenId",
                                "type": "uint256",
                                "value": "1,588,006"
                            }
                        ],
                        "signature": "Transfer(address,address,uint256)"
                    },
                    "id": 1,
                    "logData": "0x",
                    "logDecoded": true,
                    "operation": "EVENT",
                    "revert": false,
                    "status": true,
                    "topics": [
                        "0xddf252ad1be2c89b69c2b068fc378daa952ba7f163c4a11628f55a4df523b3ef",
                        "0x00000000000000000000000008cf1208e638a5a3623be58d600e35c6199baa9c",
                        "0x000000000000000000000000544bb9000af946ec304a154a4ac1663bac3dbe23",
                        "0x0000000000000000000000000000000000000000000000000000000000183b26"
                    ]
                },
                "nodeType": 1
            }
        },
        "gasFlame": [
            {
                "children": [
                    {
                        "children": [
                            {
                                "children": [],
                                "depth": 0,
                                "name": "Initial Gas",
                                "value": 21952
                            },
                            {
                                "children": [],
                                "depth": 0,
                                "name": "Executed Gas",
                                "value": 40765
                            }
                        ],
                        "depth": -1,
                        "name": "Actual Gas Used",
                        "value": 62717
                    },
                    {
                        "children": [],
                        "depth": -1,
                        "name": "Refunded Gas",
                        "value": 0
                    }
                ],
                "depth": -2,
                "name": "Total Gas",
                "value": 62717
            }
        ],
        "isConfirmed": true,
        "mainTrace": [
            {
                "children": [
                    {
                        "children": [
                            {
                                "children": [],
                                "depth": 1,
                                "id": 1,
                                "order": 1
                            }
                        ],
                        "depth": 0,
                        "id": 0,
                        "order": 0
                    }
                ],
                "depth": -1,
                "id": -1,
                "order": -1
            }
        ],
        "mainTraceNodeCount": 2,
        "parentIdMap": {
            "0": -1,
            "1": 0
        },
        "tidyTrace": [
            {
                "children": [
                    {
                        "children": [
                            {
                                "children": [],
                                "depth": 1,
                                "id": 1,
                                "order": 1
                            }
                        ],
                        "depth": 0,
                        "id": 0,
                        "order": 0
                    }
                ],
                "depth": -1,
                "id": -1,
                "order": -1
            }
        ],
        "tidyTraceNodeCount": 2
    },
    "state_change": {
        "stateChanges": [
            {
                "address": "0xabb3738f04dc2ec20f4ae4462c3d069d02ae045b",
                "erc": "ERC-721",
                "slots": [
                    {
                        "current": "0x000000000000000000000000000000000000000000000000000000000000000c",
                        "key": "0xd39f8e9e93b8c9ade68ef847ab6002dcb8cf39d45b170cebf61276715c339e83",
                        "prev": "0x000000000000000000000000000000000000000000000000000000000000000d"
                    },
                    {
                        "current": "0x0000000000000000000000000000000000000000000000000000000000000002",
                        "key": "0x119020f45b59987e6dbb5c99222ddc9ae16c74f9c5db2f9439549a1f34b68cbf",
                        "prev": "0x0000000000000000000000000000000000000000000000000000000000000001"
                    },
                    {
                        "current": "0x000000000000000000000000544bb9000af946ec304a154a4ac1663bac3dbe23",
                        "key": "0x2cb156e910547fe215b092dad05bcdcefcbc1ef0c39da6e5e0fdbbd9442cd268",
                        "prev": "0x0000000000000000000000000000000000000000000000000000000000000000"
                    }
                ],
                "storageVariables": [
                    {
                        "name": "balances",
                        "type": "mapping(address => uint256)",
                        "value": {
                            "pairs": [
                                {
                                    "key": "0x08cf1208e638a5a3623be58d600e35c6199baa9c",
                                    "value": {
                                        "current": "12",
                                        "prev": "13",
                                        "typeTag": 1
                                    }
                                },
                                {
                                    "key": "0x544bb9000af946ec304a154a4ac1663bac3dbe23",
                                    "value": {
                                        "current": "2",
                                        "prev": "1",
                                        "typeTag": 1
                                    }
                                }
                            ],
                            "typeTag": 4
                        }
                    },
                    {
                        "name": "owners",
                        "type": "mapping(uint256 => address)",
                        "value": {
                            "pairs": [
                                {
                                    "key": "1588006",
                                    "value": {
                                        "current": "0x544bb9000af946ec304a154a4ac1663bac3dbe23",
                                        "prev": "0x0000000000000000000000000000000000000000",
                                        "typeTag": 1
                                    }
                                }
                            ],
                            "typeTag": 4
                        }
                    }
                ]
            }
        ]
    }
}