{
    "balance_change": {
        "balanceChanges": []
    },
    "profile": {
        "basic_info": {
            "baseFee": "55.348433543",
            "blockNumber": 19226969,
            "callData": "0x5f57552900000000000000000000000000000000000000000000000000000000000000800000000000000000000000000000000000000000000000000000000000000000000000000000000000000000000000000000000000000000030d98d59a96000000000000000000000000000000000000000000000000000000000000000000c0000000000000000000000000000000000000000000000000000000000000000c307846656544796e616d69630000000000000000000000000000000000000000000000000000000000000000000000000000000000000000000000000000024000000000000000000000000000000000000000000000000000000000000000000000000000000000000000000000000000ca73a6df4c58b84c5b4b847fe8ff390000000000000000000000000000000000000000000000000306c20e9d64b0000000000000000000000000000000000000000000000000000863b0fa770cb41400000000000000000000000000000000000000000000000000000000000001200000000000000000000000000000000000000000000000000006d6c6fd315000000000000000000000000000f326e4de8f66a0bdc0970b79e0924e33c79f1915000000000000000000000000000000000000000000000000000000000000000000000000000000000000000000000000000000000000000000000000000001083598d8ab00000000000000000000000000000000000000000000000000000000000000600000000000000000000000000000000000000000000000000863b0fa770cb4140000000000000000000000000000000000000000000000000000000000000000000000000000000000000000000000000000000000000000000000000000002bc02aaa39b223fe8d0a0e5c4f27ead9083c756cc20027100000000000ca73a6df4c58b84c5b4b847fe8ff39000000000000000000000000000000000000000000869584cd00000000000000000000000011ededebf63bef0ea2d2d071bdf88f71543ec6fb0000000000000000000000000000000018211c1efab95a9de8c78a7ce22a1d8b000000000000000000000000000000000000000000000000009e",
            "debugEnable": true,
            "errorInfo": "execution reverted",
            "eventCount": 4,
            "feeRecipient": "0x301407427168fb51bcc927b9fb76dcd88fe45681",
            "formatValue": "0.22",
            "gasLimit": 234019,
            "gasPrice": "55.38348331",
            "gasUsed": 192431,
            "intTxnCount": 12,
            "internalRevert": true,
            "internalRevertMessage": "",
            "isContractCreation": false,
            "isFlashloan": false,
            "maxFee": "96.075003927",
            "nonce": 44,
            "overwritedBlockNumber": -1,
            "priorityFee": "0.035049767",
            "receiver": "0x881d40237659c251811cec9c364ef91dc08d300c",
            "revertMessage": "UniswapV3Feature/UNDERBOUGHT",
            "sender": "0xbcc90495aa50fa8c1a720b111d845e535ac825c7",
            "simulationEnable": true,
            "sourceTxnHash": "0x873f7a790dd09b3038f2df2b29251baf013edd07874a390f9ac26cbfe6901d91",
            "status": false,
            "timestamp": "2024-02-14T15:03:47Z",
            "transactionFee": "0.01065749907682661",
            "txnHash": "0x873f7a790dd09b3038f2df2b29251baf013edd07874a390f9ac26cbfe6901d91",
            "txnIndex": 36,
            "type": 2,
            "value": "220000000000000000"
        },
        "fund_flow": [],
        "token_infos": [
            {
                "address": "0x0000000000ca73a6df4c58b84c5b4b847fe8ff39",
                "decimals": 18
            },
            {
                "address": "0xc02aaa39b223fe8d0a0e5c4f27ead9083c756cc2",
                "decimals": 18
            },
            {
                "address": "0xeeeeeeeeeeeeeeeeeeeeeeeeeeeeeeeeeeeeeeee",
                "decimals": 18
            }
        ]
    },
    "address_label": {
        "labels": [
            {
                "address": "0x0e992c001e375785846eeb9cd69411b53f30f24b",
                "label": "UniswapV3Feature"
            },
            {
                "address": "0x0000000000000000000000000000000000000002",
                "label": "Precompiled"
            },
            {
                "address": "0x881d40237659c251811cec9c364ef91dc08d300c",
                "label": "Metamask: Swap Router"
            },
            {
                "address": "0xc02aaa39b223fe8d0a0e5c4f27ead9083c756cc2",
                "label": "Wrapped Ether (WETH)"
            },
            {
                "address": "0x0000000000000000000000000000000000000000",
                "label": "Null Address"
            },
            {
                "address": "0x0000000000000000000000000000000000000003",
                "label": "Precompiled"
            },
            {
                "address": "0x0000000000000000000000000000000000000004",
                "label": "Precompiled"
            },
            {
                "address": "0xeeeeeeeeeeeeeeeeeeeeeeeeeeeeeeeeeeeeeeee",
                "label": "Ether"
            },
            {
                "address": "0x0000000000ca73a6df4c58b84c5b4b847fe8ff39",
                "label": "Asterixlabs: ASTX Token"
            },
            {
                "address": "0xdef1c0ded9bec7f1a1670819833240f027b25eff",
                "label": "0x: Exchange Proxy"
            },
            {
                "address": "0x74de5d4fcbf63e00296fd95d33236b9794016631",
                "label": "MetaMask: Swaps Spender"
            },
            {
                "address": "0x4e680c7162fe5abaccf3409aea564a653f1c91c0",
                "label": "Uniswap V3: ASTX"
            },
            {
                "address": "0x301407427168fb51bcc927b9fb76dcd88fe45681",
                "label": "GnosisSafeProxy"
            },
            {
                "address": "0x0000000000000000000000000000000000000001",
                "label": "Precompiled"
            }
        ]
    },
    "trace": {
        "accountLabels": null,
        "dataMap": {
            "-1": {
                "invocation": {
                    "address": "0xbcc90495aa50fa8c1a720b111d845e535ac825c7",
                    "callData": "",
                    "decodedMethod": null,
                    "errorInfo": "",
                    "fromAddress": "",
                    "gasUsed": 0,
                    "id": -1,
                    "methodDecoded": false,
                    "operation": "",
                    "output": "",
                    "revert": false,
                    "revertMessage": "",
                    "selector": "",
                    "status": false,
                    "value": ""
                },
                "nodeType": 0
            },
            "0": {
                "invocation": {
                    "address": "0x881d40237659c251811cec9c364ef91dc08d300c",
                    "callData": "0x00000000000000000000000000000000000000000000000000000000000000800000000000000000000000000000000000000000000000000000000000000000000000000000000000000000000000000000000000000000030d98d59a96000000000000000000000000000000000000000000000000000000000000000000c0000000000000000000000000000000000000000000000000000000000000000c307846656544796e616d69630000000000000000000000000000000000000000000000000000000000000000000000000000000000000000000000000000024000000000000000000000000000000000000000000000000000000000000000000000000000000000000000000000000000ca73a6df4c58b84c5b4b847fe8ff390000000000000000000000000000000000000000000000000306c20e9d64b0000000000000000000000000000000000000000000000000000863b0fa770cb41400000000000000000000000000000000000000000000000000000000000001200000000000000000000000000000000000000000000000000006d6c6fd315000000000000000000000000000f326e4de8f66a0bdc0970b79e0924e33c79f1915000000000000000000000000000000000000000000000000000000000000000000000000000000000000000000000000000000000000000000000000000001083598d8ab00000000000000000000000000000000000000000000000000000000000000600000000000000000000000000000000000000000000000000863b0fa770cb4140000000000000000000000000000000000000000000000000000000000000000000000000000000000000000000000000000000000000000000000000000002bc02aaa39b223fe8d0a0e5c4f27ead9083c756cc20027100000000000ca73a6df4c58b84c5b4b847fe8ff39000000000000000000000000000000000000000000869584cd00000000000000000000000011ededebf63bef0ea2d2d071bdf88f71543ec6fb0000000000000000000000000000000018211c1efab95a9de8c78a7ce22a1d8b000000000000000000000000000000000000000000000000009e",
                    "decodedMethod": {
                        "callParams": [
                            {
                                "name": "aggregatorId",
                                "type": "string",
                                "value": "0xFeeDynamic"
                            },
                            {
                                "name": "tokenFrom",
                                "type": "address",
                                "value": "0x0000000000000000000000000000000000000000"
                            },
                            {
                                "name": "amount",
                                "type": "uint256",
                                "value": "220,000,000,000,000,000"
                            },
                            {
                                "name": "data",
                                "type": "bytes",
                                "value": "0x00000000000000000000000000000000000000000000000000000000000000000000000000000000000000000000000000ca73a6df4c58b84c5b4b847fe8ff390000000000000000000000000000000000000000000000000306c20e9d64b0000000000000000000000000000000000000000000000000000863b0fa770cb41400000000000000000000000000000000000000000000000000000000000001200000000000000000000000000000000000000000000000000006d6c6fd315000000000000000000000000000f326e4de8f66a0bdc0970b79e0924e33c79f1915000000000000000000000000000000000000000000000000000000000000000000000000000000000000000000000000000000000000000000000000000001083598d8ab00000000000000000000000000000000000000000000000000000000000000600000000000000000000000000000000000000000000000000863b0fa770cb4140000000000000000000000000000000000000000000000000000000000000000000000000000000000000000000000000000000000000000000000000000002bc02aaa39b223fe8d0a0e5c4f27ead9083c756cc20027100000000000ca73a6df4c58b84c5b4b847fe8ff39000000000000000000000000000000000000000000869584cd00000000000000000000000011ededebf63bef0ea2d2d071bdf88f71543ec6fb0000000000000000000000000000000018211c1efab95a9de8c78a7ce22a1d8b000000000000000000000000000000000000000000000000"
                            }
                        ],
                        "constructorArguments": "",
                        "name": "swap",
                        "returnParams": [],
                        "signature": "swap(string,address,uint256,bytes)"
                    },
                    "errorInfo": "execution reverted",
                    "fromAddress": "0xbcc90495aa50fa8c1a720b111d845e535ac825c7",
                    "gasUsed": 192431,
                    "id": 0,
                    "methodDecoded": true,
                    "operation": "CALL",
                    "output": "0x08c379a00000000000000000000000000000000000000000000000000000000000000020000000000000000000000000000000000000000000000000000000000000001c556e69737761705633466561747572652f554e444552424f5547485400000000",
                    "revert": true,
                    "revertMessage": "UniswapV3Feature/UNDERBOUGHT",
                    "selector": "0x5f575529",
                    "status": false,
                    "value": "0.22"
                },
                "nodeType": 0
            },
            "1": {
                "invocation": {
                    "address": "0x74de5d4fcbf63e00296fd95d33236b9794016631",
                    "callData": "0x0000000000000000000000003d1d55c23dfc759c5ae48500ca88ddf477b3c9e50000000000000000000000000000000000000000000000000000000000000040000000000000000000000000000000000000000000000000000000000000026492f5f037000000000000000000000000bcc90495aa50fa8c1a720b111d845e535ac825c700000000000000000000000000000000000000000000000000000000000000000000000000000000000000000000000000ca73a6df4c58b84c5b4b847fe8ff390000000000000000000000000000000000000000000000000306c20e9d64b0000000000000000000000000000000000000000000000000000863b0fa770cb41400000000000000000000000000000000000000000000000000000000000001200000000000000000000000000000000000000000000000000006d6c6fd315000000000000000000000000000f326e4de8f66a0bdc0970b79e0924e33c79f1915000000000000000000000000000000000000000000000000000000000000000000000000000000000000000000000000000000000000000000000000000001083598d8ab00000000000000000000000000000000000000000000000000000000000000600000000000000000000000000000000000000000000000000863b0fa770cb4140000000000000000000000000000000000000000000000000000000000000000000000000000000000000000000000000000000000000000000000000000002bc02aaa39b223fe8d0a0e5c4f27ead9083c756cc20027100000000000ca73a6df4c58b84c5b4b847fe8ff39000000000000000000000000000000000000000000869584cd00000000000000000000000011ededebf63bef0ea2d2d071bdf88f71543ec6fb0000000000000000000000000000000018211c1efab95a9de8c78a7ce22a1d8b00000000000000000000000000000000000000000000000000000000000000000000000000000000000000000000000000000000",
                    "decodedMethod": {
                        "callParams": [
                            {
                                "name": "adapter",
                                "type": "address",
                                "value": "0x3d1d55c23dfc759c5ae48500ca88ddf477b3c9e5"
                            },
                            {
                                "name": "data",
                                "type": "bytes",
                                "value": "0x92f5f037000000000000000000000000bcc90495aa50fa8c1a720b111d845e535ac825c700000000000000000000000000000000000000000000000000000000000000000000000000000000000000000000000000ca73a6df4c58b84c5b4b847fe8ff390000000000000000000000000000000000000000000000000306c20e9d64b0000000000000000000000000000000000000000000000000000863b0fa770cb41400000000000000000000000000000000000000000000000000000000000001200000000000000000000000000000000000000000000000000006d6c6fd315000000000000000000000000000f326e4de8f66a0bdc0970b79e0924e33c79f1915000000000000000000000000000000000000000000000000000000000000000000000000000000000000000000000000000000000000000000000000000001083598d8ab00000000000000000000000000000000000000000000000000000000000000600000000000000000000000000000000000000000000000000863b0fa770cb4140000000000000000000000000000000000000000000000000000000000000000000000000000000000000000000000000000000000000000000000000000002bc02aaa39b223fe8d0a0e5c4f27ead9083c756cc20027100000000000ca73a6df4c58b84c5b4b847fe8ff39000000000000000000000000000000000000000000869584cd00000000000000000000000011ededebf63bef0ea2d2d071bdf88f71543ec6fb0000000000000000000000000000000018211c1efab95a9de8c78a7ce22a1d8b000000000000000000000000000000000000000000000000"
                            }
                        ],
                        "constructorArguments": "",
                        "name": "swap",
                        "returnParams": [],
                        "signature": "swap(address,bytes)"
                    },
                    "errorInfo": "execution reverted",
                    "fromAddress": "0x881d40237659c251811cec9c364ef91dc08d300c",
                    "gasUsed": 141884,
                    "id": 1,
                    "methodDecoded": true,
                    "operation": "CALL",
                    "output": "0x08c379a00000000000000000000000000000000000000000000000000000000000000020000000000000000000000000000000000000000000000000000000000000001c556e69737761705633466561747572652f554e444552424f5547485400000000",
                    "revert": true,
                    "revertMessage": "UniswapV3Feature/UNDERBOUGHT",
                    "selector": "0xe3547335",
                    "status": false,
                    "value": "0.22"
                },
                "nodeType": 0
            },
            "10": {
                "invocation": {
                    "address": "0xc02aaa39b223fe8d0a0e5c4f27ead9083c756cc2",
                    "callData": "0x0000000000000000000000004e680c7162fe5abaccf3409aea564a653f1c91c0",
                    "decodedMethod": {
                        "callParams": [
                            {
                                "name": "",
                                "type": "address",
                                "value": "0x4e680c7162fe5abaccf3409aea564a653f1c91c0"
                            }
                        ],
                        "constructorArguments": "",
                        "name": "balanceOf",
                        "returnParams": [
                            {
                                "decimalAvailable": true,
                                "name": "",
                                "type": "uint256",
                                "value": "6,880,609,837,212,319,011"
                            }
                        ],
                        "signature": "balanceOf(address)"
                    },
                    "errorInfo": "",
                    "fromAddress": "0x4e680c7162fe5abaccf3409aea564a653f1c91c0",
                    "gasUsed": 2534,
                    "id": 10,
                    "methodDecoded": true,
                    "operation": "STATICCALL",
                    "output": "0x0000000000000000000000000000000000000000000000005f7cd63121193d23",
                    "revert": true,
                    "revertMessage": "",
                    "selector": "0x70a08231",
                    "status": true,
                    "value": "0"
                },
                "nodeType": 0
            },
            "11": {
                "invocation": {
                    "address": "0xdef1c0ded9bec7f1a1670819833240f027b25eff",
                    "callData": "0xfffffffffffffffffffffffffffffffffffffffffffffffff81ca62bda675a400000000000000000000000000000000000000000000000000306c20e9d64b00000000000000000000000000000000000000000000000000000000000000000600000000000000000000000000000000000000000000000000000000000000080000000000000000000000000c02aaa39b223fe8d0a0e5c4f27ead9083c756cc20000000000000000000000000000000000ca73a6df4c58b84c5b4b847fe8ff390000000000000000000000000000000000000000000000000000000000002710000000000000000000000000def1c0ded9bec7f1a1670819833240f027b25eff",
                    "decodedMethod": {
                        "callParams": [
                            {
                                "name": "amount0Delta",
                                "type": "int256",
                                "value": "-568,396,745,677,514,176"
                            },
                            {
                                "name": "amount1Delta",
                                "type": "int256",
                                "value": "218,075,000,000,000,000"
                            },
                            {
                                "name": "data",
                                "type": "bytes",
                                "value": "0x000000000000000000000000c02aaa39b223fe8d0a0e5c4f27ead9083c756cc20000000000000000000000000000000000ca73a6df4c58b84c5b4b847fe8ff390000000000000000000000000000000000000000000000000000000000002710000000000000000000000000def1c0ded9bec7f1a1670819833240f027b25eff"
                            }
                        ],
                        "constructorArguments": "",
                        "name": "uniswapV3SwapCallback",
                        "returnParams": [],
                        "signature": "uniswapV3SwapCallback(int256,int256,bytes)"
                    },
                    "errorInfo": "",
                    "fromAddress": "0x4e680c7162fe5abaccf3409aea564a653f1c91c0",
                    "gasUsed": 10744,
                    "id": 11,
                    "methodDecoded": true,
                    "operation": "CALL",
                    "output": "",
                    "revert": true,
                    "revertMessage": "",
                    "selector": "0xfa461e33",
                    "status": true,
                    "value": "0"
                },
                "nodeType": 0
            },
            "12": {
                "invocation": {
                    "address": "0x0e992c001e375785846eeb9cd69411b53f30f24b",
                    "callData": "0xfffffffffffffffffffffffffffffffffffffffffffffffff81ca62bda675a400000000000000000000000000000000000000000000000000306c20e9d64b00000000000000000000000000000000000000000000000000000000000000000600000000000000000000000000000000000000000000000000000000000000080000000000000000000000000c02aaa39b223fe8d0a0e5c4f27ead9083c756cc20000000000000000000000000000000000ca73a6df4c58b84c5b4b847fe8ff390000000000000000000000000000000000000000000000000000000000002710000000000000000000000000def1c0ded9bec7f1a1670819833240f027b25eff",
                    "decodedMethod": {
                        "callParams": [
                            {
                                "name": "amount0Delta",
                                "type": "int256",
                                "value": "-568,396,745,677,514,176"
                            },
                            {
                                "name": "amount1Delta",
                                "type": "int256",
                                "value": "218,075,000,000,000,000"
                            },
                            {
                                "name": "data",
                                "type": "bytes",
                                "value": "0x000000000000000000000000c02aaa39b223fe8d0a0e5c4f27ead9083c756cc20000000000000000000000000000000000ca73a6df4c58b84c5b4b847fe8ff390000000000000000000000000000000000000000000000000000000000002710000000000000000000000000def1c0ded9bec7f1a1670819833240f027b25eff"
                            }
                        ],
                        "constructorArguments": "",
                        "name": "uniswapV3SwapCallback",
                        "returnParams": [],
                        "signature": "uniswapV3SwapCallback(int256,int256,bytes)"
                    },
                    "errorInfo": "",
                    "fromAddress": "0xdef1c0ded9bec7f1a1670819833240f027b25eff",
                    "gasUsed": 7572,
                    "id": 12,
                    "methodDecoded": true,
                    "operation": "DELEGATECALL",
                    "output": "",
                    "revert": true,
                    "revertMessage": "",
                    "selector": "0xfa461e33",
                    "status": true,
                    "value": "0"
                },
                "nodeType": 0
            },
            "13": {
                "invocation": {
                    "address": "0xc02aaa39b223fe8d0a0e5c4f27ead9083c756cc2",
                    "callData": "0x0000000000000000000000004e680c7162fe5abaccf3409aea564a653f1c91c00000000000000000000000000000000000000000000000000306c20e9d64b000",
                    "decodedMethod": {
                        "callParams": [
                            {
                                "name": "dst",
                                "type": "address",
                                "value": "0x4e680c7162fe5abaccf3409aea564a653f1c91c0"
                            },
                            {
                                "decimalAvailable": true,
                                "name": "wad",
                                "type": "uint256",
                                "value": "218,075,000,000,000,000"
                            }
                        ],
                        "constructorArguments": "",
                        "name": "transfer",
                        "returnParams": [
                            {
                                "name": "",
                                "type": "bool",
                                "value": true
                            }
                        ],
                        "signature": "transfer(address,uint256)"
                    },
                    "errorInfo": "",
                    "fromAddress": "0xdef1c0ded9bec7f1a1670819833240f027b25eff",
                    "gasUsed": 6062,
                    "id": 13,
                    "methodDecoded": true,
                    "operation": "CALL",
                    "output": "0x0000000000000000000000000000000000000000000000000000000000000001",
                    "revert": true,
                    "revertMessage": "",
                    "selector": "0xa9059cbb",
                    "status": true,
                    "value": "0"
                },
                "nodeType": 0
            },
            "14": {
                "event": {
                    "contract": "0xc02aaa39b223fe8d0a0e5c4f27ead9083c756cc2",
                    "decodedLog": {
                        "name": "Transfer",
                        "params": [
                            {
                                "name": "src",
                                "type": "address",
                                "value": "0xdef1c0ded9bec7f1a1670819833240f027b25eff"
                            },
                            {
                                "name": "dst",
                                "type": "address",
                                "value": "0x4e680c7162fe5abaccf3409aea564a653f1c91c0"
                            },
                            {
                                "decimalAvailable": true,
                                "name": "wad",
                                "type": "uint256",
                                "value": "218,075,000,000,000,000"
                            }
                        ],
                        "signature": "Transfer(address,address,uint256)"
                    },
                    "id": 14,
                    "logData": "0x0000000000000000000000000000000000000000000000000306c20e9d64b000",
                    "logDecoded": true,
                    "operation": "EVENT",
                    "revert": true,
                    "status": false,
                    "topics": [
                        "0xddf252ad1be2c89b69c2b068fc378daa952ba7f163c4a11628f55a4df523b3ef",
                        "0x000000000000000000000000def1c0ded9bec7f1a1670819833240f027b25eff",
                        "0x0000000000000000000000004e680c7162fe5abaccf3409aea564a653f1c91c0"
                    ]
                },
                "nodeType": 1
            },
            "15": {
                "invocation": {
                    "address": "0xc02aaa39b223fe8d0a0e5c4f27ead9083c756cc2",
                    "callData": "0x0000000000000000000000004e680c7162fe5abaccf3409aea564a653f1c91c0",
                    "decodedMethod": {
                        "callParams": [
                            {
                                "name": "",
                                "type": "address",
                                "value": "0x4e680c7162fe5abaccf3409aea564a653f1c91c0"
                            }
                        ],
                        "constructorArguments": "",
                        "name": "balanceOf",
                        "returnParams": [
                            {
                                "decimalAvailable": true,
                                "name": "",
                                "type": "uint256",
                                "value": "7,098,684,837,212,319,011"
                            }
                        ],
                        "signature": "balanceOf(address)"
                    },
                    "errorInfo": "",
                    "fromAddress": "0x4e680c7162fe5abaccf3409aea564a653f1c91c0",
                    "gasUsed": 534,
                    "id": 15,
                    "methodDecoded": true,
                    "operation": "STATICCALL",
                    "output": "0x0000000000000000000000000000000000000000000000006283983fbe7ded23",
                    "revert": true,
                    "revertMessage": "",
                    "selector": "0x70a08231",
                    "status": true,
                    "value": "0"
                },
                "nodeType": 0
            },
            "16": {
                "event": {
                    "contract": "0x4e680c7162fe5abaccf3409aea564a653f1c91c0",
                    "decodedLog": {
                        "name": "Swap",
                        "params": [
                            {
                                "name": "sender",
                                "type": "address",
                                "value": "0xdef1c0ded9bec7f1a1670819833240f027b25eff"
                            },
                            {
                                "name": "recipient",
                                "type": "address",
                                "value": "0x74de5d4fcbf63e00296fd95d33236b9794016631"
                            },
                            {
                                "name": "amount0",
                                "type": "int256",
                                "value": "-568,396,745,677,514,176"
                            },
                            {
                                "name": "amount1",
                                "type": "int256",
                                "value": "218,075,000,000,000,000"
                            },
                            {
                                "name": "sqrtPriceX96",
                                "type": "uint160",
                                "value": "50,069,811,107,470,019,654,606,130,982"
                            },
                            {
                                "name": "liquidity",
                                "type": "uint128",
                                "value": "39,232,421,881,101,949,614"
                            },
                            {
                                "name": "tick",
                                "type": "int24",
                                "value": "-9,179"
                            }
                        ],
                        "signature": "Swap(address,address,int256,int256,uint160,uint128,int24)"
                    },
                    "id": 16,
                    "logData": "0xfffffffffffffffffffffffffffffffffffffffffffffffff81ca62bda675a400000000000000000000000000000000000000000000000000306c20e9d64b0000000000000000000000000000000000000000000a1c8c6eaeed1ff43a6ec0f2600000000000000000000000000000000000000000000000220758fd6ad581aaeffffffffffffffffffffffffffffffffffffffffffffffffffffffffffffdc25",
                    "logDecoded": true,
                    "operation": "EVENT",
                    "revert": true,
                    "status": false,
                    "topics": [
                        "0xc42079f94a6350d7e6235f29174924f928cc2ac818eb64fed8004e115fbcca67",
                        "0x000000000000000000000000def1c0ded9bec7f1a1670819833240f027b25eff",
                        "0x00000000000000000000000074de5d4fcbf63e00296fd95d33236b9794016631"
                    ]
                },
                "nodeType": 1
            },
            "2": {
                "invocation": {
                    "address": "0x3d1d55c23dfc759c5ae48500ca88ddf477b3c9e5",
                    "callData": "0x000000000000000000000000bcc90495aa50fa8c1a720b111d845e535ac825c700000000000000000000000000000000000000000000000000000000000000000000000000000000000000000000000000ca73a6df4c58b84c5b4b847fe8ff390000000000000000000000000000000000000000000000000306c20e9d64b0000000000000000000000000000000000000000000000000000863b0fa770cb41400000000000000000000000000000000000000000000000000000000000001200000000000000000000000000000000000000000000000000006d6c6fd315000000000000000000000000000f326e4de8f66a0bdc0970b79e0924e33c79f1915000000000000000000000000000000000000000000000000000000000000000000000000000000000000000000000000000000000000000000000000000001083598d8ab00000000000000000000000000000000000000000000000000000000000000600000000000000000000000000000000000000000000000000863b0fa770cb4140000000000000000000000000000000000000000000000000000000000000000000000000000000000000000000000000000000000000000000000000000002bc02aaa39b223fe8d0a0e5c4f27ead9083c756cc20027100000000000ca73a6df4c58b84c5b4b847fe8ff39000000000000000000000000000000000000000000869584cd00000000000000000000000011ededebf63bef0ea2d2d071bdf88f71543ec6fb0000000000000000000000000000000018211c1efab95a9de8c78a7ce22a1d8b000000000000000000000000000000000000000000000000",
                    "decodedMethod": null,
                    "errorInfo": "execution reverted",
                    "fromAddress": "0x74de5d4fcbf63e00296fd95d33236b9794016631",
                    "gasUsed": 136523,
                    "id": 2,
                    "methodDecoded": false,
                    "operation": "DELEGATECALL",
                    "output": "0x08c379a00000000000000000000000000000000000000000000000000000000000000020000000000000000000000000000000000000000000000000000000000000001c556e69737761705633466561747572652f554e444552424f5547485400000000",
                    "revert": true,
                    "revertMessage": "UniswapV3Feature/UNDERBOUGHT",
                    "selector": "0x92f5f037",
                    "status": false,
                    "value": "0.22"
                },
                "nodeType": 0
            },
            "3": {
                "invocation": {
                    "address": "0xdef1c0ded9bec7f1a1670819833240f027b25eff",
                    "callData": "0x00000000000000000000000000000000000000000000000000000000000000600000000000000000000000000000000000000000000000000863b0fa770cb4140000000000000000000000000000000000000000000000000000000000000000000000000000000000000000000000000000000000000000000000000000002bc02aaa39b223fe8d0a0e5c4f27ead9083c756cc20027100000000000ca73a6df4c58b84c5b4b847fe8ff39000000000000000000000000000000000000000000869584cd00000000000000000000000011ededebf63bef0ea2d2d071bdf88f71543ec6fb0000000000000000000000000000000018211c1efab95a9de8c78a7ce22a1d8b",
                    "decodedMethod": {
                        "callParams": [
                            {
                                "name": "encodedPath",
                                "type": "bytes",
                                "value": "0xc02aaa39b223fe8d0a0e5c4f27ead9083c756cc20027100000000000ca73a6df4c58b84c5b4b847fe8ff39"
                            },
                            {
                                "name": "minBuyAmount",
                                "type": "uint256",
                                "value": "604,521,364,783,412,244"
                            },
                            {
                                "name": "recipient",
                                "type": "address",
                                "value": "0x0000000000000000000000000000000000000000"
                            }
                        ],
                        "constructorArguments": "",
                        "name": "sellEthForTokenToUniswapV3",
                        "returnParams": [],
                        "signature": "sellEthForTokenToUniswapV3(bytes,uint256,address)"
                    },
                    "errorInfo": "execution reverted",
                    "fromAddress": "0x74de5d4fcbf63e00296fd95d33236b9794016631",
                    "gasUsed": 125039,
                    "id": 3,
                    "methodDecoded": true,
                    "operation": "CALL",
                    "output": "0x08c379a00000000000000000000000000000000000000000000000000000000000000020000000000000000000000000000000000000000000000000000000000000001c556e69737761705633466561747572652f554e444552424f5547485400000000",
                    "revert": true,
                    "revertMessage": "UniswapV3Feature/UNDERBOUGHT",
                    "selector": "0x3598d8ab",
                    "status": false,
                    "value": "0.218075"
                },
                "nodeType": 0
            },
            "4": {
                "invocation": {
                    "address": "0x0e992c001e375785846eeb9cd69411b53f30f24b",
                    "callData": "0x00000000000000000000000000000000000000000000000000000000000000600000000000000000000000000000000000000000000000000863b0fa770cb4140000000000000000000000000000000000000000000000000000000000000000000000000000000000000000000000000000000000000000000000000000002bc02aaa39b223fe8d0a0e5c4f27ead9083c756cc20027100000000000ca73a6df4c58b84c5b4b847fe8ff39000000000000000000000000000000000000000000869584cd00000000000000000000000011ededebf63bef0ea2d2d071bdf88f71543ec6fb0000000000000000000000000000000018211c1efab95a9de8c78a7ce22a1d8b",
                    "decodedMethod": {
                        "callParams": [
                            {
                                "name": "encodedPath",
                                "type": "bytes",
                                "value": "0xc02aaa39b223fe8d0a0e5c4f27ead9083c756cc20027100000000000ca73a6df4c58b84c5b4b847fe8ff39"
                            },
                            {
                                "name": "minBuyAmount",
                                "type": "uint256",
                                "value": "604,521,364,783,412,244"
                            },
                            {
                                "name": "recipient",
                                "type": "address",
                                "value": "0x0000000000000000000000000000000000000000"
                            }
                        ],
                        "constructorArguments": "",
                        "name": "sellEthForTokenToUniswapV3",
                        "returnParams": [],
                        "signature": "sellEthForTokenToUniswapV3(bytes,uint256,address)"
                    },
                    "errorInfo": "execution reverted",
                    "fromAddress": "0xdef1c0ded9bec7f1a1670819833240f027b25eff",
                    "gasUsed": 119289,
                    "id": 4,
                    "methodDecoded": true,
                    "operation": "DELEGATECALL",
                    "output": "0x08c379a00000000000000000000000000000000000000000000000000000000000000020000000000000000000000000000000000000000000000000000000000000001c556e69737761705633466561747572652f554e444552424f5547485400000000",
                    "revert": true,
                    "revertMessage": "UniswapV3Feature/UNDERBOUGHT",
                    "selector": "0x3598d8ab",
                    "status": false,
                    "value": "0.218075"
                },
                "nodeType": 0
            },
            "5": {
                "invocation": {
                    "address": "0xc02aaa39b223fe8d0a0e5c4f27ead9083c756cc2",
                    "callData": "0x",
                    "decodedMethod": {
                        "callParams": [],
                        "constructorArguments": "",
                        "name": "deposit",
                        "returnParams": [],
                        "signature": "deposit()"
                    },
                    "errorInfo": "",
                    "fromAddress": "0xdef1c0ded9bec7f1a1670819833240f027b25eff",
                    "gasUsed": 6874,
                    "id": 5,
                    "methodDecoded": true,
                    "operation": "CALL",
                    "output": "",
                    "revert": true,
                    "revertMessage": "",
                    "selector": "0xd0e30db0",
                    "status": true,
                    "value": "0.218075"
                },
                "nodeType": 0
            },
            "6": {
                "event": {
                    "contract": "0xc02aaa39b223fe8d0a0e5c4f27ead9083c756cc2",
                    "decodedLog": {
                        "name": "Deposit",
                        "params": [
                            {
                                "name": "dst",
                                "type": "address",
                                "value": "0xdef1c0ded9bec7f1a1670819833240f027b25eff"
                            },
                            {
                                "name": "wad",
                                "type": "uint256",
                                "value": "218,075,000,000,000,000"
                            }
                        ],
                        "signature": "Deposit(address,uint256)"
                    },
                    "id": 6,
                    "logData": "0x0000000000000000000000000000000000000000000000000306c20e9d64b000",
                    "logDecoded": true,
                    "operation": "EVENT",
                    "revert": true,
                    "status": false,
                    "topics": [
                        "0xe1fffcc4923d04b559f4d29a8bfc6cda04eb5b0d3c460751c2402c5c5cc9109c",
                        "0x000000000000000000000000def1c0ded9bec7f1a1670819833240f027b25eff"
                    ]
                },
                "nodeType": 1
            },
            "7": {
                "invocation": {
                    "address": "0x4e680c7162fe5abaccf3409aea564a653f1c91c0",
                    "callData": "0x00000000000000000000000074de5d4fcbf63e00296fd95d33236b979401663100000000000000000000000000000000000000000000000000000000000000000000000000000000000000000000000000000000000000000306c20e9d64b000000000000000000000000000fffd8963efd1fc6a506488495d951d5263988d2500000000000000000000000000000000000000000000000000000000000000a00000000000000000000000000000000000000000000000000000000000000080000000000000000000000000c02aaa39b223fe8d0a0e5c4f27ead9083c756cc20000000000000000000000000000000000ca73a6df4c58b84c5b4b847fe8ff390000000000000000000000000000000000000000000000000000000000002710000000000000000000000000def1c0ded9bec7f1a1670819833240f027b25eff",
                    "decodedMethod": {
                        "callParams": [
                            {
                                "name": "recipient",
                                "type": "address",
                                "value": "0x74de5d4fcbf63e00296fd95d33236b9794016631"
                            },
                            {
                                "name": "zeroForOne",
                                "type": "bool",
                                "value": false
                            },
                            {
                                "name": "amountSpecified",
                                "type": "int256",
                                "value": "218,075,000,000,000,000"
                            },
                            {
                                "name": "sqrtPriceLimitX96",
                                "type": "uint160",
                                "value": "1,461,446,703,485,210,103,287,273,052,203,988,822,378,723,970,341"
                            },
                            {
                                "name": "data",
                                "type": "bytes",
                                "value": "0x000000000000000000000000c02aaa39b223fe8d0a0e5c4f27ead9083c756cc20000000000000000000000000000000000ca73a6df4c58b84c5b4b847fe8ff390000000000000000000000000000000000000000000000000000000000002710000000000000000000000000def1c0ded9bec7f1a1670819833240f027b25eff"
                            }
                        ],
                        "constructorArguments": "",
                        "name": "swap",
                        "returnParams": [
                            {
                                "name": "amount0",
                                "type": "int256",
                                "value": "-568,396,745,677,514,176"
                            },
                            {
                                "name": "amount1",
                                "type": "int256",
                                "value": "218,075,000,000,000,000"
                            }
                        ],
                        "signature": "swap(address,bool,int256,uint160,bytes)"
                    },
                    "errorInfo": "",
                    "fromAddress": "0xdef1c0ded9bec7f1a1670819833240f027b25eff",
                    "gasUsed": 97167,
                    "id": 7,
                    "methodDecoded": true,
                    "operation": "CALL",
                    "output": "0xfffffffffffffffffffffffffffffffffffffffffffffffff81ca62bda675a400000000000000000000000000000000000000000000000000306c20e9d64b000",
                    "revert": true,
                    "revertMessage": "",
                    "selector": "0x128acb08",
                    "status": true,
                    "value": "0"
                },
                "nodeType": 0
            },
            "8": {
                "invocation": {
                    "address": "0x0000000000ca73a6df4c58b84c5b4b847fe8ff39",
                    "callData": "0x00000000000000000000000074de5d4fcbf63e00296fd95d33236b979401663100000000000000000000000000000000000000000000000007e359d42598a5c0",
                    "decodedMethod": {
                        "callParams": [
                            {
                                "name": "to",
                                "type": "address",
                                "value": "0x74de5d4fcbf63e00296fd95d33236b9794016631"
                            },
                            {
                                "decimalAvailable": true,
                                "name": "amount",
                                "type": "uint256",
                                "value": "568,396,745,677,514,176"
                            }
                        ],
                        "constructorArguments": "",
                        "name": "transfer",
                        "returnParams": [
                            {
                                "name": "",
                                "type": "bool",
                                "value": true
                            }
                        ],
                        "signature": "transfer(address,uint256)"
                    },
                    "errorInfo": "",
                    "fromAddress": "0x4e680c7162fe5abaccf3409aea564a653f1c91c0",
                    "gasUsed": 16646,
                    "id": 8,
                    "methodDecoded": true,
                    "operation": "CALL",
                    "output": "0x0000000000000000000000000000000000000000000000000000000000000001",
                    "revert": true,
                    "revertMessage": "",
                    "selector": "0xa9059cbb",
                    "status": true,
                    "value": "0"
                },
                "nodeType": 0
            },
            "9": {
                "event": {
                    "contract": "0x0000000000ca73a6df4c58b84c5b4b847fe8ff39",
                    "decodedLog": {
                        "name": "Transfer",
                        "params": [
                            {
                                "name": "from",
                                "type": "address",
                                "value": "0x4e680c7162fe5abaccf3409aea564a653f1c91c0"
                            },
                            {
                                "name": "to",
                                "type": "address",
                                "value": "0x74de5d4fcbf63e00296fd95d33236b9794016631"
                            },
                            {
                                "decimalAvailable": true,
                                "name": "amount",
                                "type": "uint256",
                                "value": "568,396,745,677,514,176"
                            }
                        ],
                        "signature": "Transfer(address,address,uint256)"
                    },
                    "id": 9,
                    "logData": "0x00000000000000000000000000000000000000000000000007e359d42598a5c0",
                    "logDecoded": true,
                    "operation": "EVENT",
                    "revert": true,
                    "status": false,
                    "topics": [
                        "0xddf252ad1be2c89b69c2b068fc378daa952ba7f163c4a11628f55a4df523b3ef",
                        "0x0000000000000000000000004e680c7162fe5abaccf3409aea564a653f1c91c0",
                        "0x00000000000000000000000074de5d4fcbf63e00296fd95d33236b9794016631"
                    ]
                },
                "nodeType": 1
            }
        },
        "gasFlame": [
            {
                "children": [
                    {
                        "children": [
                            {
                                "children": [],
                                "depth": 0,
                                "name": "Initial Gas",
                                "value": 26372
                            },
                            {
                                "children": [
                                    {
                                        "children": [
                                            {
                                                "children": [
                                                    {
                                                        "children": [
                                                            {
                                                                "children": [
                                                                    {
                                                                        "children": [],
                                                                        "depth": 5,
                                                                        "name": "deposit",
                                                                        "value": 6874
                                                                    },
                                                                    {
                                                                        "children": [
                                                                            {
                                                                                "children": [],
                                                                                "depth": 6,
                                                                                "name": "transfer",
                                                                                "value": 16646
                                                                            },
                                                                            {
                                                                                "children": [],
                                                                                "depth": 6,
                                                                                "name": "balanceOf",
                                                                                "value": 2534
                                                                            },
                                                                            {
                                                                                "children": [
                                                                                    {
                                                                                        "children": [
                                                                                            {
                                                                                                "children": [],
                                                                                                "depth": 8,
                                                                                                "name": "transfer",
                                                                                                "value": 6062
                                                                                            }
                                                                                        ],
                                                                                        "depth": 7,
                                                                                        "name": "uniswapV3SwapCallback",
                                                                                        "value": 7572
                                                                                    }
                                                                                ],
                                                                                "depth": 6,
                                                                                "name": "uniswapV3SwapCallback",
                                                                                "value": 10744
                                                                            },
                                                                            {
                                                                                "children": [],
                                                                                "depth": 6,
                                                                                "name": "balanceOf",
                                                                                "value": 534
                                                                            }
                                                                        ],
                                                                        "depth": 5,
                                                                        "name": "swap",
                                                                        "value": 97167
                                                                    }
                                                                ],
                                                                "depth": 4,
                                                                "name": "sellEthForTokenToUniswapV3",
                                                                "value": 119289
                                                            }
                                                        ],
                                                        "depth": 3,
                                                        "name": "sellEthForTokenToUniswapV3",
                                                        "value": 125039
                                                    }
                                                ],
                                                "depth": 2,
                                                "name": "0x92f5f037",
                                                "value": 136523
                                            }
                                        ],
                                        "depth": 1,
                                        "name": "swap",
                                        "value": 141884
                                    }
                                ],
                                "depth": 0,
                                "name": "Executed Gas",
                                "value": 166059
                            }
                        ],
                        "depth": -1,
                        "name": "Actual Gas Used",
                        "value": 192431
                    },
                    {
                        "children": [],
                        "depth": -1,
                        "name": "Refunded Gas",
                        "value": 0
                    }
                ],
                "depth": -2,
                "name": "Total Gas",
                "value": 192431
            }
        ],
        "isConfirmed": true,
        "mainTrace": [
            {
                "children": [
                    {
                        "children": [
                            {
                                "children": [
                                    {
                                        "children": [
                                            {
                                                "children": [
                                                    {
                                                        "children": [
                                                            {
                                                                "children": [
                                                                    {
                                                                        "children": [],
                                                                        "depth": 6,
                                                                        "id": 6,
                                                                        "order": 6
                                                                    }
                                                                ],
                                                                "depth": 5,
                                                                "id": 5,
                                                                "order": 5
                                                            },
                                                            {
                                                                "children": [
                                                                    {
                                                                        "children": [
                                                                            {
                                                                                "children": [],
                                                                                "depth": 7,
                                                                                "id": 9,
                                                                                "order": 9
                                                                            }
                                                                        ],
                                                                        "depth": 6,
                                                                        "id": 8,
                                                                        "order": 8
                                                                    },
                                                                    {
                                                                        "children": [],
                                                                        "depth": 6,
                                                                        "id": 10,
                                                                        "order": 10
                                                                    },
                                                                    {
                                                                        "children": [
                                                                            {
                                                                                "children": [
                                                                                    {
                                                                                        "children": [
                                                                                            {
                                                                                                "children": [],
                                                                                                "depth": 9,
                                                                                                "id": 14,
                                                                                                "order": 14
                                                                                            }
                                                                                        ],
                                                                                        "depth": 8,
                                                                                        "id": 13,
                                                                                        "order": 13
                                                                                    }
                                                                                ],
                                                                                "depth": 7,
                                                                                "id": 12,
                                                                                "order": 12
                                                                            }
                                                                        ],
                                                                        "depth": 6,
                                                                        "id": 11,
                                                                        "order": 11
                                                                    },
                                                                    {
                                                                        "children": [],
                                                                        "depth": 6,
                                                                        "id": 15,
                                                                        "order": 15
                                                                    },
                                                                    {
                                                                        "children": [],
                                                                        "depth": 6,
                                                                        "id": 16,
                                                                        "order": 16
                                                                    }
                                                                ],
                                                                "depth": 5,
                                                                "id": 7,
                                                                "order": 7
                                                            }
                                                        ],
                                                        "depth": 4,
                                                        "id": 4,
                                                        "order": 4
                                                    }
                                                ],
                                                "depth": 3,
                                                "id": 3,
                                                "order": 3
                                            }
                                        ],
                                        "depth": 2,
                                        "id": 2,
                                        "order": 2
                                    }
                                ],
                                "depth": 1,
                                "id": 1,
                                "order": 1
                            }
                        ],
                        "depth": 0,
                        "id": 0,
                        "order": 0
                    }
                ],
                "depth": -1,
                "id": -1,
                "order": -1
            }
        ],
        "mainTraceNodeCount": 17,
        "parentIdMap": {
            "0": -1,
            "1": 0,
            "10": 7,
            "11": 7,
            "12": 11,
            "13": 12,
            "14": 13,
            "15": 7,
            "16": 7,
            "2": 1,
            "3": 2,
            "4": 3,
            "5": 4,
            "6": 5,
            "7": 4,
            "8": 7,
            "9": 8
        },
        "tidyTrace": [
            {
                "children": [
                    {
                        "children": [
                            {
                                "children": [
                                    {
                                        "children": [
                                            {
                                                "children": [
                                                    {
                                                        "children": [
                                                            {
                                                                "children": [
                                                                    {
                                                                        "children": [],
                                                                        "depth": 6,
                                                                        "id": 6,
                                                                        "order": 6
                                                                    }
                                                                ],
                                                                "depth": 5,
                                                                "id": 5,
                                                                "order": 5
                                                            },
                                                            {
                                                                "children": [
                                                                    {
                                                                        "children": [
                                                                            {
                                                                                "children": [],
                                                                                "depth": 7,
                                                                                "id": 9,
                                                                                "order": 9
                                                                            }
                                                                        ],
                                                                        "depth": 6,
                                                                        "id": 8,
                                                                        "order": 8
                                                                    },
                                                                    {
                                                                        "children": [
                                                                            {
                                                                                "children": [
                                                                                    {
                                                                                        "children": [
                                                                                            {
                                                                                                "children": [],
                                                                                                "depth": 9,
                                                                                                "id": 14,
                                                                                                "order": 14
                                                                                            }
                                                                                        ],
                                                                                        "depth": 8,
                                                                                        "id": 13,
                                                                                        "order": 13
                                                                                    }
                                                                                ],
                                                                                "depth": 7,
                                                                                "id": 12,
                                                                                "order": 12
                                                                            }
                                                                        ],
                                                                        "depth": 6,
                                                                        "id": 11,
                                                                        "order": 11
                                                                    },
                                                                    {
                                                                        "children": [],
                                                                        "depth": 6,
                                                                        "id": 16,
                                                                        "order": 16
                                                                    }
                                                                ],
                                                                "depth": 5,
                                                                "id": 7,
                                                                "order": 7
                                                            }
                                                        ],
                                                        "depth": 4,
                                                        "id": 4,
                                                        "order": 4
                                                    }
                                                ],
                                                "depth": 3,
                                                "id": 3,
                                                "order": 3
                                            }
                                        ],
                                        "depth": 2,
                                        "id": 2,
                                        "order": 2
                                    }
                                ],
                                "depth": 1,
                                "id": 1,
                                "order": 1
                            }
                        ],
                        "depth": 0,
                        "id": 0,
                        "order": 0
                    }
                ],
                "depth": -1,
                "id": -1,
                "order": -1
            }
        ],
        "tidyTraceNodeCount": 15
    },
    "state_change": {
        "stateChanges": []
    }
}