{
    "balance_change": {
        "balanceChanges": [
            {
                "account": "0x9008d19f58aabd9ed0d60971565aa8510560ab41",
                "assets": [
                    {
                        "address": "0xa0b86991c6218b36c1d19d4a2e9eb0ce3606eb48",
                        "amount": "12.68954",
                        "iconUrl": "https://assets.blocksec.com/icon/0347a86cc07dbd03fdc5db01a4e5ac7e1217f90e0b6e4bb0f75cbcca09160989.png",
                        "isERC1155": false,
                        "isERC721": false,
                        "sign": true,
                        "value": "12.702229539999998603"
                    },
                    {
                        "address": "0xc02aaa39b223fe8d0a0e5c4f27ead9083c756cc2",
                        "amount": "0.00000565664992516",
                        "iconUrl": "https://assets.blocksec.com/icon/f1cb2d02c471d545bbc7722daf3277fd852d98e63d118771af7047bd8256c516.png",
                        "isERC1155": false,
                        "isERC721": false,
                        "sign": true,
                        "value": "0.012994625907207750103"
                    },
                    {
                        "address": "0x12ef10a4fc6e1ea44b4ca9508760ff51c647bb71",
                        "amount": "0.000000101709886711",
                        "iconUrl": "",
                        "isERC1155": false,
                        "isERC721": false,
                        "sign": false,
                        "value": "0.00000009"
                    }
                ]
            },
            {
                "account": "0x699f324560e9236afcfcedbbfb9c4afa8fa9b042",
                "assets": [
                    {
                        "address": "0xa0b86991c6218b36c1d19d4a2e9eb0ce3606eb48",
                        "amount": "3,726.229997",
                        "iconUrl": "https://assets.blocksec.com/icon/0347a86cc07dbd03fdc5db01a4e5ac7e1217f90e0b6e4bb0f75cbcca09160989.png",
                        "isERC1155": false,
                        "isERC721": false,
                        "sign": false,
                        "value": "3729.9562269969995896"
                    },
                    {
                        "address": "0x12ef10a4fc6e1ea44b4ca9508760ff51c647bb71",
                        "amount": "3,884.873550925018071759",
                        "iconUrl": "",
                        "isERC1155": false,
                        "isERC721": false,
                        "sign": true,
                        "value": "3630.339437"
                    }
                ]
            },
            {
                "account": "0x88e6a0c2ddd26feeb64f039a2c41296fcb3f5640",
                "assets": [
                    {
                        "address": "0xa0b86991c6218b36c1d19d4a2e9eb0ce3606eb48",
                        "amount": "3,713.540457",
                        "iconUrl": "https://assets.blocksec.com/icon/0347a86cc07dbd03fdc5db01a4e5ac7e1217f90e0b6e4bb0f75cbcca09160989.png",
                        "isERC1155": false,
                        "isERC721": false,
                        "sign": true,
                        "value": "3717.253997456999591"
                    },
                    {
                        "address": "0xc02aaa39b223fe8d0a0e5c4f27ead9083c756cc2",
                        "amount": "1.611518517364042924",
                        "iconUrl": "https://assets.blocksec.com/icon/f1cb2d02c471d545bbc7722daf3277fd852d98e63d118771af7047bd8256c516.png",
                        "isERC1155": false,
                        "isERC721": false,
                        "sign": false,
                        "value": "3702.0286828079100292"
                    }
                ]
            },
            {
                "account": "0x8c894d91748a42fc68f681090db06720779a7347",
                "assets": [
                    {
                        "address": "0xc02aaa39b223fe8d0a0e5c4f27ead9083c756cc2",
                        "amount": "1.611512860714117764",
                        "iconUrl": "https://assets.blocksec.com/icon/f1cb2d02c471d545bbc7722daf3277fd852d98e63d118771af7047bd8256c516.png",
                        "isERC1155": false,
                        "isERC721": false,
                        "sign": true,
                        "value": "3702.0156896750300293"
                    },
                    {
                        "address": "0x12ef10a4fc6e1ea44b4ca9508760ff51c647bb71",
                        "amount": "3,884.873550823308185048",
                        "iconUrl": "",
                        "isERC1155": false,
                        "isERC721": false,
                        "sign": false,
                        "value": "3630.339437"
                    }
                ]
            }
        ]
    },
    "profile": {
        "basic_info": {
            "baseFee": "17.523297204",
            "blockNumber": 18906840,
            "callData": "0x13d79a0b0000000000000000000000000000000000000000000000000000000000000080000000000000000000000000000000000000000000000000000000000000012000000000000000000000000000000000000000000000000000000000000001c000000000000000000000000000000000000000000000000000000000000003e0000000000000000000000000000000000000000000000000000000000000000400000000000000000000000012ef10a4fc6e1ea44b4ca9508760ff51c647bb71000000000000000000000000a0b86991c6218b36c1d19d4a2e9eb0ce3606eb48000000000000000000000000a0b86991c6218b36c1d19d4a2e9eb0ce3606eb4800000000000000000000000012ef10a4fc6e1ea44b4ca9508760ff51c647bb7100000000000000000000000000000000000000000000000000000000000000040000000000000000000000000000000000000000000000000001799d5d13725d0000000000000000000000000000000000000000016748afc983747c9128a8950000000000000000000000000000000000000000000000d29973679fc41a82cf00000000000000000000000000000000000000000000000000000000de19c1ed0000000000000000000000000000000000000000000000000000000000000001000000000000000000000000000000000000000000000000000000000000002000000000000000000000000000000000000000000000000000000000000000020000000000000000000000000000000000000000000000000000000000000003000000000000000000000000699f324560e9236afcfcedbbfb9c4afa8fa9b04200000000000000000000000000000000000000000000000000000006fc23ac0000000000000000000000000000000000000000000000069e10de76676d080000000000000000000000000000000000000000000000000000000000006597dd734f324ebf171ac319d596b4230e3d6e010b4599cbb2861d7048f9c27d86389c710000000000000000000000000000000000000000000000000000000000000000000000000000000000000000000000000000000000000000000000000000000200000000000000000000000000000000000000000000000000000000de19c1ed00000000000000000000000000000000000000000000000000000000000001600000000000000000000000000000000000000000000000000000000000000041ff49b063a0bd99e26653061d79ee38f630732fd5fa172cbaca4b6e0cebb97f20143a76b35af17e45eb767d9bd8c25ddb8642bad7fbdf8ac761275af4b35964101c0000000000000000000000000000000000000000000000000000000000000000000000000000000000000000000000000000000000000000000000000000600000000000000000000000000000000000000000000000000000000000000080000000000000000000000000000000000000000000000000000000000000042000000000000000000000000000000000000000000000000000000000000000000000000000000000000000000000000000000000000000000000000000000002000000000000000000000000000000000000000000000000000000000000004000000000000000000000000000000000000000000000000000000000000001e0000000000000000000000000e592427a0aece92de3edee1f18e0157c05861564000000000000000000000000000000000000000000000000000000000000000000000000000000000000000000000000000000000000000000000000000000600000000000000000000000000000000000000000000000000000000000000104414bf389000000000000000000000000a0b86991c6218b36c1d19d4a2e9eb0ce3606eb48000000000000000000000000c02aaa39b223fe8d0a0e5c4f27ead9083c756cc200000000000000000000000000000000000000000000000000000000000001f40000000000000000000000009008d19f58aabd9ed0d60971565aa8510560ab4100000000000000000000000000000000000000000000000017a5faa63ab6ad3f00000000000000000000000000000000000000000000000000000000dd582169000000000000000000000000000000000000000000000000164a28bd691e371e0000000000000000000000000000000000000000000000000000000000000000000000000000000000000000000000000000000000000000000000000000000000000000000000007a250d5630b4cf539739df2c5dacb4c659f2488d0000000000000000000000000000000000000000000000000000000000000000000000000000000000000000000000000000000000000000000000000000006000000000000000000000000000000000000000000000000000000000000001048803dbee0000000000000000000000000000000000000000000000d29973678815b8cdd80000000000000000000000000000000000000000000000001662f7f16f23e97200000000000000000000000000000000000000000000000000000000000000a00000000000000000000000009008d19f58aabd9ed0d60971565aa8510560ab41ffffffffffffffffffffffffffffffffffffffffffffffffffffffffffffffff0000000000000000000000000000000000000000000000000000000000000002000000000000000000000000c02aaa39b223fe8d0a0e5c4f27ead9083c756cc200000000000000000000000012ef10a4fc6e1ea44b4ca9508760ff51c647bb7100000000000000000000000000000000000000000000000000000000000000000000000000000000000000000000000000000000000000000000000000000000007dabc4",
            "debugEnable": true,
            "errorInfo": "",
            "eventCount": 13,
            "feeRecipient": "0x95222290dd7278aa3ddd389cc1e1d165cc4bafe5",
            "formatValue": "0",
            "gasLimit": 614074,
            "gasPrice": "19.293564061",
            "gasUsed": 307037,
            "intTxnCount": 27,
            "internalRevert": false,
            "internalRevertMessage": "",
            "isContractCreation": false,
            "isFlashloan": false,
            "maxFee": "36.648900633",
            "nonce": 11166,
            "overwritedBlockNumber": -1,
            "priorityFee": "1.770266857",
            "receiver": "0x9008d19f58aabd9ed0d60971565aa8510560ab41",
            "revertMessage": "",
            "sender": "0x9b7e7f21d98f21c0354035798c40e9040e25787f",
            "simulationEnable": true,
            "sourceTxnHash": "0x881e85366e2a19e32ebf19d51f29b7b3c46ff68ccac01fc9d1b50c92c16a478a",
            "status": true,
            "timestamp": "2023-12-31T17:07:23Z",
            "transactionFee": "0.005923838028597257",
            "txnHash": "0x881e85366e2a19e32ebf19d51f29b7b3c46ff68ccac01fc9d1b50c92c16a478a",
            "txnIndex": 9,
            "type": 2,
            "value": "0"
        },
        "fund_flow": [
            {
                "amount": "3,726.229997",
                "from": "0x699f324560e9236afcfcedbbfb9c4afa8fa9b042",
                "id": 1,
                "isERC1155": false,
                "isERC721": false,
                "isReverted": false,
                "order": 1,
                "to": "0x9008d19f58aabd9ed0d60971565aa8510560ab41",
                "token": "0xa0b86991c6218b36c1d19d4a2e9eb0ce3606eb48"
            },
            {
                "amount": "1.611518517364042924",
                "from": "0x88e6a0c2ddd26feeb64f039a2c41296fcb3f5640",
                "id": 2,
                "isERC1155": false,
                "isERC721": false,
                "isReverted": false,
                "order": 2,
                "to": "0x9008d19f58aabd9ed0d60971565aa8510560ab41",
                "token": "0xc02aaa39b223fe8d0a0e5c4f27ead9083c756cc2"
            },
            {
                "amount": "3,713.540457",
                "from": "0x9008d19f58aabd9ed0d60971565aa8510560ab41",
                "id": 3,
                "isERC1155": false,
                "isERC721": false,
                "isReverted": false,
                "order": 3,
                "to": "0x88e6a0c2ddd26feeb64f039a2c41296fcb3f5640",
                "token": "0xa0b86991c6218b36c1d19d4a2e9eb0ce3606eb48"
            },
            {
                "amount": "1.611512860714117764",
                "from": "0x9008d19f58aabd9ed0d60971565aa8510560ab41",
                "id": 4,
                "isERC1155": false,
                "isERC721": false,
                "isReverted": false,
                "order": 4,
                "to": "0x8c894d91748a42fc68f681090db06720779a7347",
                "token": "0xc02aaa39b223fe8d0a0e5c4f27ead9083c756cc2"
            },
            {
                "amount": "3,884.873550823308185048",
                "from": "0x8c894d91748a42fc68f681090db06720779a7347",
                "id": 5,
                "isERC1155": false,
                "isERC721": false,
                "isReverted": false,
                "order": 5,
                "to": "0x9008d19f58aabd9ed0d60971565aa8510560ab41",
                "token": "0x12ef10a4fc6e1ea44b4ca9508760ff51c647bb71"
            },
            {
                "amount": "3,884.873550925018071759",
                "from": "0x9008d19f58aabd9ed0d60971565aa8510560ab41",
                "id": 6,
                "isERC1155": false,
                "isERC721": false,
                "isReverted": false,
                "order": 6,
                "to": "0x699f324560e9236afcfcedbbfb9c4afa8fa9b042",
                "token": "0x12ef10a4fc6e1ea44b4ca9508760ff51c647bb71"
            }
        ],
        "token_infos": [
            {
                "address": "0x12ef10a4fc6e1ea44b4ca9508760ff51c647bb71",
                "decimals": 18
            },
            {
                "address": "0xa0b86991c6218b36c1d19d4a2e9eb0ce3606eb48",
                "decimals": 6
            },
            {
                "address": "0xc02aaa39b223fe8d0a0e5c4f27ead9083c756cc2",
                "decimals": 18
            },
            {
                "address": "0xeeeeeeeeeeeeeeeeeeeeeeeeeeeeeeeeeeeeeeee",
                "decimals": 18
            }
        ]
    },
    "address_label": {
        "labels": [
            {
                "address": "0xa2327a938febf5fec13bacfb16ae10ecbc4cbdcf",
                "label": "FiatTokenV2_1"
            },
            {
                "address": "0x2c4c28ddbdac9c5e7055b4c863b72ea0149d8afe",
                "label": "CoW Protocol: GPv2AllowListAuthentication_Proxy"
            },
            {
                "address": "0xc92e8bdf79f0507f65a392b0ab4667716bfe0110",
                "label": "CoW Protocol: GPv2VaultRelayer"
            },
            {
                "address": "0x12ef10a4fc6e1ea44b4ca9508760ff51c647bb71",
                "label": "Restakefi: RSTK Token"
            },
            {
                "address": "0xa0b86991c6218b36c1d19d4a2e9eb0ce3606eb48",
                "label": "Circle: USDC Token"
            },
            {
                "address": "0x0000000000000000000000000000000000000002",
                "label": "Precompiled"
            },
            {
                "address": "0xeeeeeeeeeeeeeeeeeeeeeeeeeeeeeeeeeeeeeeee",
                "label": "Ether"
            },
            {
                "address": "0xfc44f80c94cc129f618cb9c756000972e775cbd1",
                "label": "BaseERC20"
            },
            {
                "address": "0x0000000000000000000000000000000000000004",
                "label": "Precompiled"
            },
            {
                "address": "0x9e7ae8bdba9aa346739792d219a808884996db67",
                "label": "CoW Protocol: GPv2AllowListAuthentication"
            },
            {
                "address": "0xc02aaa39b223fe8d0a0e5c4f27ead9083c756cc2",
                "label": "Wrapped Ether (WETH)"
            },
            {
                "address": "0x8c894d91748a42fc68f681090db06720779a7347",
                "label": "Uniswap V2: RSTK"
            },
            {
                "address": "0x0000000000000000000000000000000000000001",
                "label": "Precompiled"
            },
            {
                "address": "0x9008d19f58aabd9ed0d60971565aa8510560ab41",
                "label": "CoW Protocol: GPv2Settlement"
            },
            {
                "address": "0x88e6a0c2ddd26feeb64f039a2c41296fcb3f5640",
                "label": "Uniswap V3: USDC 3"
            },
            {
                "address": "0xe592427a0aece92de3edee1f18e0157c05861564",
                "label": "Uniswap V3: Router"
            },
            {
                "address": "0x0000000000000000000000000000000000000003",
                "label": "Precompiled"
            },
            {
                "address": "0x7a250d5630b4cf539739df2c5dacb4c659f2488d",
                "label": "Uniswap V2: Router 2"
            }
        ]
    },
    "trace": {
        "accountLabels": null,
        "dataMap": {
            "-1": {
                "invocation": {
                    "address": "0x9b7e7f21d98f21c0354035798c40e9040e25787f",
                    "callData": "",
                    "decodedMethod": null,
                    "errorInfo": "",
                    "fromAddress": "",
                    "gasUsed": 0,
                    "id": -1,
                    "methodDecoded": false,
                    "operation": "",
                    "output": "",
                    "revert": false,
                    "revertMessage": "",
                    "selector": "",
                    "status": false,
                    "value": ""
                },
                "nodeType": 0
            },
            "0": {
                "invocation": {
                    "address": "0x9008d19f58aabd9ed0d60971565aa8510560ab41",
                    "callData": "0x0000000000000000000000000000000000000000000000000000000000000080000000000000000000000000000000000000000000000000000000000000012000000000000000000000000000000000000000000000000000000000000001c000000000000000000000000000000000000000000000000000000000000003e0000000000000000000000000000000000000000000000000000000000000000400000000000000000000000012ef10a4fc6e1ea44b4ca9508760ff51c647bb71000000000000000000000000a0b86991c6218b36c1d19d4a2e9eb0ce3606eb48000000000000000000000000a0b86991c6218b36c1d19d4a2e9eb0ce3606eb4800000000000000000000000012ef10a4fc6e1ea44b4ca9508760ff51c647bb7100000000000000000000000000000000000000000000000000000000000000040000000000000000000000000000000000000000000000000001799d5d13725d0000000000000000000000000000000000000000016748afc983747c9128a8950000000000000000000000000000000000000000000000d29973679fc41a82cf00000000000000000000000000000000000000000000000000000000de19c1ed0000000000000000000000000000000000000000000000000000000000000001000000000000000000000000000000000000000000000000000000000000002000000000000000000000000000000000000000000000000000000000000000020000000000000000000000000000000000000000000000000000000000000003000000000000000000000000699f324560e9236afcfcedbbfb9c4afa8fa9b04200000000000000000000000000000000000000000000000000000006fc23ac0000000000000000000000000000000000000000000000069e10de76676d080000000000000000000000000000000000000000000000000000000000006597dd734f324ebf171ac319d596b4230e3d6e010b4599cbb2861d7048f9c27d86389c710000000000000000000000000000000000000000000000000000000000000000000000000000000000000000000000000000000000000000000000000000000200000000000000000000000000000000000000000000000000000000de19c1ed00000000000000000000000000000000000000000000000000000000000001600000000000000000000000000000000000000000000000000000000000000041ff49b063a0bd99e26653061d79ee38f630732fd5fa172cbaca4b6e0cebb97f20143a76b35af17e45eb767d9bd8c25ddb8642bad7fbdf8ac761275af4b35964101c0000000000000000000000000000000000000000000000000000000000000000000000000000000000000000000000000000000000000000000000000000600000000000000000000000000000000000000000000000000000000000000080000000000000000000000000000000000000000000000000000000000000042000000000000000000000000000000000000000000000000000000000000000000000000000000000000000000000000000000000000000000000000000000002000000000000000000000000000000000000000000000000000000000000004000000000000000000000000000000000000000000000000000000000000001e0000000000000000000000000e592427a0aece92de3edee1f18e0157c05861564000000000000000000000000000000000000000000000000000000000000000000000000000000000000000000000000000000000000000000000000000000600000000000000000000000000000000000000000000000000000000000000104414bf389000000000000000000000000a0b86991c6218b36c1d19d4a2e9eb0ce3606eb48000000000000000000000000c02aaa39b223fe8d0a0e5c4f27ead9083c756cc200000000000000000000000000000000000000000000000000000000000001f40000000000000000000000009008d19f58aabd9ed0d60971565aa8510560ab4100000000000000000000000000000000000000000000000017a5faa63ab6ad3f00000000000000000000000000000000000000000000000000000000dd582169000000000000000000000000000000000000000000000000164a28bd691e371e0000000000000000000000000000000000000000000000000000000000000000000000000000000000000000000000000000000000000000000000000000000000000000000000007a250d5630b4cf539739df2c5dacb4c659f2488d0000000000000000000000000000000000000000000000000000000000000000000000000000000000000000000000000000000000000000000000000000006000000000000000000000000000000000000000000000000000000000000001048803dbee0000000000000000000000000000000000000000000000d29973678815b8cdd80000000000000000000000000000000000000000000000001662f7f16f23e97200000000000000000000000000000000000000000000000000000000000000a00000000000000000000000009008d19f58aabd9ed0d60971565aa8510560ab41ffffffffffffffffffffffffffffffffffffffffffffffffffffffffffffffff0000000000000000000000000000000000000000000000000000000000000002000000000000000000000000c02aaa39b223fe8d0a0e5c4f27ead9083c756cc200000000000000000000000012ef10a4fc6e1ea44b4ca9508760ff51c647bb7100000000000000000000000000000000000000000000000000000000000000000000000000000000000000000000000000000000000000000000000000000000007dabc4",
                    "decodedMethod": {
                        "callParams": [
                            {
                                "name": "tokens",
                                "type": "address[]",
                                "value": [
                                    "0x12ef10a4fc6e1ea44b4ca9508760ff51c647bb71",
                                    "0xa0b86991c6218b36c1d19d4a2e9eb0ce3606eb48",
                                    "0xa0b86991c6218b36c1d19d4a2e9eb0ce3606eb48",
                                    "0x12ef10a4fc6e1ea44b4ca9508760ff51c647bb71"
                                ]
                            },
                            {
                                "name": "clearingPrices",
                                "type": "uint256[]",
                                "value": [
                                    "415,191,755,092,573",
                                    "434,347,622,329,209,089,279,174,805",
                                    "3,884,873,550,925,018,071,759",
                                    "3,726,229,997"
                                ]
                            },
                            {
                                "name": "trades",
                                "type": "(uint256,uint256,address,uint256,uint256,uint32,bytes32,uint256,uint256,uint256,bytes)[]",
                                "value": [
                                    [
                                        {
                                            "name": "sellTokenIndex",
                                            "type": "uint256",
                                            "value": "2"
                                        },
                                        {
                                            "name": "buyTokenIndex",
                                            "type": "uint256",
                                            "value": "3"
                                        },
                                        {
                                            "name": "receiver",
                                            "type": "address",
                                            "value": "0x699f324560e9236afcfcedbbfb9c4afa8fa9b042"
                                        },
                                        {
                                            "name": "sellAmount",
                                            "type": "uint256",
                                            "value": "30,000,000,000"
                                        },
                                        {
                                            "name": "buyAmount",
                                            "type": "uint256",
                                            "value": "31,250,000,000,000,000,000,000"
                                        },
                                        {
                                            "name": "validTo",
                                            "type": "uint32",
                                            "value": "1,704,451,443"
                                        },
                                        {
                                            "name": "appData",
                                            "type": "bytes32",
                                            "value": "0x4f324ebf171ac319d596b4230e3d6e010b4599cbb2861d7048f9c27d86389c71"
                                        },
                                        {
                                            "name": "feeAmount",
                                            "type": "uint256",
                                            "value": "0"
                                        },
                                        {
                                            "name": "flags",
                                            "type": "uint256",
                                            "value": "2"
                                        },
                                        {
                                            "name": "executedAmount",
                                            "type": "uint256",
                                            "value": "3,726,229,997"
                                        },
                                        {
                                            "name": "signature",
                                            "type": "bytes",
                                            "value": "0xff49b063a0bd99e26653061d79ee38f630732fd5fa172cbaca4b6e0cebb97f20143a76b35af17e45eb767d9bd8c25ddb8642bad7fbdf8ac761275af4b35964101c"
                                        }
                                    ]
                                ]
                            },
                            {
                                "name": "interactions",
                                "type": "(address,uint256,bytes)[][3]",
                                "value": [
                                    [],
                                    [
                                        [
                                            {
                                                "name": "target",
                                                "type": "address",
                                                "value": "0xe592427a0aece92de3edee1f18e0157c05861564"
                                            },
                                            {
                                                "name": "value",
                                                "type": "uint256",
                                                "value": "0"
                                            },
                                            {
                                                "name": "callData",
                                                "type": "bytes",
                                                "value": "0x414bf389000000000000000000000000a0b86991c6218b36c1d19d4a2e9eb0ce3606eb48000000000000000000000000c02aaa39b223fe8d0a0e5c4f27ead9083c756cc200000000000000000000000000000000000000000000000000000000000001f40000000000000000000000009008d19f58aabd9ed0d60971565aa8510560ab4100000000000000000000000000000000000000000000000017a5faa63ab6ad3f00000000000000000000000000000000000000000000000000000000dd582169000000000000000000000000000000000000000000000000164a28bd691e371e0000000000000000000000000000000000000000000000000000000000000000"
                                            }
                                        ],
                                        [
                                            {
                                                "name": "target",
                                                "type": "address",
                                                "value": "0x7a250d5630b4cf539739df2c5dacb4c659f2488d"
                                            },
                                            {
                                                "name": "value",
                                                "type": "uint256",
                                                "value": "0"
                                            },
                                            {
                                                "name": "callData",
                                                "type": "bytes",
                                                "value": "0x8803dbee0000000000000000000000000000000000000000000000d29973678815b8cdd80000000000000000000000000000000000000000000000001662f7f16f23e97200000000000000000000000000000000000000000000000000000000000000a00000000000000000000000009008d19f58aabd9ed0d60971565aa8510560ab41ffffffffffffffffffffffffffffffffffffffffffffffffffffffffffffffff0000000000000000000000000000000000000000000000000000000000000002000000000000000000000000c02aaa39b223fe8d0a0e5c4f27ead9083c756cc200000000000000000000000012ef10a4fc6e1ea44b4ca9508760ff51c647bb71"
                                            }
                                        ]
                                    ],
                                    []
                                ]
                            }
                        ],
                        "constructorArguments": "",
                        "name": "settle",
                        "returnParams": [],
                        "signature": "settle(address[],uint256[],(uint256,uint256,address,uint256,uint256,uint32,bytes32,uint256,uint256,uint256,bytes)[],(address,uint256,bytes)[][3])"
                    },
                    "errorInfo": "",
                    "fromAddress": "0x9b7e7f21d98f21c0354035798c40e9040e25787f",
                    "gasUsed": 307037,
                    "id": 0,
                    "methodDecoded": true,
                    "operation": "CALL",
                    "output": "",
                    "revert": false,
                    "revertMessage": "",
                    "selector": "0x13d79a0b",
                    "status": true,
                    "value": "0"
                },
                "nodeType": 0
            },
            "1": {
                "invocation": {
                    "address": "0x2c4c28ddbdac9c5e7055b4c863b72ea0149d8afe",
                    "callData": "0x0000000000000000000000009b7e7f21d98f21c0354035798c40e9040e25787f",
                    "decodedMethod": {
                        "callParams": [
                            {
                                "name": "prospectiveSolver",
                                "type": "address",
                                "value": "0x9b7e7f21d98f21c0354035798c40e9040e25787f"
                            }
                        ],
                        "constructorArguments": "",
                        "name": "isSolver",
                        "returnParams": [
                            {
                                "name": "",
                                "type": "bool",
                                "value": true
                            }
                        ],
                        "signature": "isSolver(address)"
                    },
                    "errorInfo": "",
                    "fromAddress": "0x9008d19f58aabd9ed0d60971565aa8510560ab41",
                    "gasUsed": 865,
                    "id": 1,
                    "methodDecoded": true,
                    "operation": "STATICCALL",
                    "output": "0x0000000000000000000000000000000000000000000000000000000000000001",
                    "revert": false,
                    "revertMessage": "",
                    "selector": "0x02cc250d",
                    "status": true,
                    "value": "0"
                },
                "nodeType": 0
            },
            "10": {
                "invocation": {
                    "address": "0x88e6a0c2ddd26feeb64f039a2c41296fcb3f5640",
                    "callData": "0x0000000000000000000000009008d19f58aabd9ed0d60971565aa8510560ab41000000000000000000000000000000000000000000000000000000000000000100000000000000000000000000000000000000000000000000000000dd58216900000000000000000000000000000000000000000000000000000001000276a400000000000000000000000000000000000000000000000000000000000000a000000000000000000000000000000000000000000000000000000000000000c0000000000000000000000000000000000000000000000000000000000000002000000000000000000000000000000000000000000000000000000000000000400000000000000000000000009008d19f58aabd9ed0d60971565aa8510560ab41000000000000000000000000000000000000000000000000000000000000002ba0b86991c6218b36c1d19d4a2e9eb0ce3606eb480001f4c02aaa39b223fe8d0a0e5c4f27ead9083c756cc2000000000000000000000000000000000000000000",
                    "decodedMethod": {
                        "callParams": [
                            {
                                "name": "recipient",
                                "type": "address",
                                "value": "0x9008d19f58aabd9ed0d60971565aa8510560ab41"
                            },
                            {
                                "name": "zeroForOne",
                                "type": "bool",
                                "value": true
                            },
                            {
                                "name": "amountSpecified",
                                "type": "int256",
                                "value": "3,713,540,457"
                            },
                            {
                                "name": "sqrtPriceLimitX96",
                                "type": "uint160",
                                "value": "4,295,128,740"
                            },
                            {
                                "name": "data",
                                "type": "bytes",
                                "value": "0x000000000000000000000000000000000000000000000000000000000000002000000000000000000000000000000000000000000000000000000000000000400000000000000000000000009008d19f58aabd9ed0d60971565aa8510560ab41000000000000000000000000000000000000000000000000000000000000002ba0b86991c6218b36c1d19d4a2e9eb0ce3606eb480001f4c02aaa39b223fe8d0a0e5c4f27ead9083c756cc2000000000000000000000000000000000000000000"
                            }
                        ],
                        "constructorArguments": "",
                        "name": "swap",
                        "returnParams": [
                            {
                                "name": "amount0",
                                "type": "int256",
                                "value": "3,713,540,457"
                            },
                            {
                                "name": "amount1",
                                "type": "int256",
                                "value": "-1,611,518,517,364,042,924"
                            }
                        ],
                        "signature": "swap(address,bool,int256,uint160,bytes)"
                    },
                    "errorInfo": "",
                    "fromAddress": "0xe592427a0aece92de3edee1f18e0157c05861564",
                    "gasUsed": 52050,
                    "id": 10,
                    "methodDecoded": true,
                    "operation": "CALL",
                    "output": "0x00000000000000000000000000000000000000000000000000000000dd582169ffffffffffffffffffffffffffffffffffffffffffffffffe9a2bc72578d5354",
                    "revert": false,
                    "revertMessage": "",
                    "selector": "0x128acb08",
                    "status": true,
                    "value": "0"
                },
                "nodeType": 0
            },
            "11": {
                "invocation": {
                    "address": "0xc02aaa39b223fe8d0a0e5c4f27ead9083c756cc2",
                    "callData": "0x0000000000000000000000009008d19f58aabd9ed0d60971565aa8510560ab41000000000000000000000000000000000000000000000000165d438da872acac",
                    "decodedMethod": {
                        "callParams": [
                            {
                                "name": "dst",
                                "type": "address",
                                "value": "0x9008d19f58aabd9ed0d60971565aa8510560ab41"
                            },
                            {
                                "decimalAvailable": true,
                                "name": "wad",
                                "type": "uint256",
                                "value": "1,611,518,517,364,042,924"
                            }
                        ],
                        "constructorArguments": "",
                        "name": "transfer",
                        "returnParams": [
                            {
                                "name": "",
                                "type": "bool",
                                "value": true
                            }
                        ],
                        "signature": "transfer(address,uint256)"
                    },
                    "errorInfo": "",
                    "fromAddress": "0x88e6a0c2ddd26feeb64f039a2c41296fcb3f5640",
                    "gasUsed": 8862,
                    "id": 11,
                    "methodDecoded": true,
                    "operation": "CALL",
                    "output": "0x0000000000000000000000000000000000000000000000000000000000000001",
                    "revert": false,
                    "revertMessage": "",
                    "selector": "0xa9059cbb",
                    "status": true,
                    "value": "0"
                },
                "nodeType": 0
            },
            "12": {
                "event": {
                    "contract": "0xc02aaa39b223fe8d0a0e5c4f27ead9083c756cc2",
                    "decodedLog": {
                        "name": "Transfer",
                        "params": [
                            {
                                "name": "src",
                                "type": "address",
                                "value": "0x88e6a0c2ddd26feeb64f039a2c41296fcb3f5640"
                            },
                            {
                                "name": "dst",
                                "type": "address",
                                "value": "0x9008d19f58aabd9ed0d60971565aa8510560ab41"
                            },
                            {
                                "decimalAvailable": true,
                                "name": "wad",
                                "type": "uint256",
                                "value": "1,611,518,517,364,042,924"
                            }
                        ],
                        "signature": "Transfer(address,address,uint256)"
                    },
                    "id": 12,
                    "logData": "0x000000000000000000000000000000000000000000000000165d438da872acac",
                    "logDecoded": true,
                    "operation": "EVENT",
                    "revert": false,
                    "status": true,
                    "topics": [
                        "0xddf252ad1be2c89b69c2b068fc378daa952ba7f163c4a11628f55a4df523b3ef",
                        "0x00000000000000000000000088e6a0c2ddd26feeb64f039a2c41296fcb3f5640",
                        "0x0000000000000000000000009008d19f58aabd9ed0d60971565aa8510560ab41"
                    ]
                },
                "nodeType": 1
            },
            "13": {
                "invocation": {
                    "address": "0xa0b86991c6218b36c1d19d4a2e9eb0ce3606eb48",
                    "callData": "0x00000000000000000000000088e6a0c2ddd26feeb64f039a2c41296fcb3f5640",
                    "decodedMethod": {
                        "callParams": [
                            {
                                "name": "account",
                                "type": "address",
                                "value": "0x88e6a0c2ddd26feeb64f039a2c41296fcb3f5640"
                            }
                        ],
                        "constructorArguments": "",
                        "name": "balanceOf",
                        "returnParams": [
                            {
                                "decimalAvailable": true,
                                "name": "",
                                "type": "uint256",
                                "value": "104,661,386,776,739"
                            }
                        ],
                        "signature": "balanceOf(address)"
                    },
                    "errorInfo": "",
                    "fromAddress": "0x88e6a0c2ddd26feeb64f039a2c41296fcb3f5640",
                    "gasUsed": 1315,
                    "id": 13,
                    "methodDecoded": true,
                    "operation": "STATICCALL",
                    "output": "0x00000000000000000000000000000000000000000000000000005f3060c7d0a3",
                    "revert": false,
                    "revertMessage": "",
                    "selector": "0x70a08231",
                    "status": true,
                    "value": "0"
                },
                "nodeType": 0
            },
            "14": {
                "invocation": {
                    "address": "0xa2327a938febf5fec13bacfb16ae10ecbc4cbdcf",
                    "callData": "0x00000000000000000000000088e6a0c2ddd26feeb64f039a2c41296fcb3f5640",
                    "decodedMethod": {
                        "callParams": [
                            {
                                "name": "account",
                                "type": "address",
                                "value": "0x88e6a0c2ddd26feeb64f039a2c41296fcb3f5640"
                            }
                        ],
                        "constructorArguments": "",
                        "name": "balanceOf",
                        "returnParams": [
                            {
                                "decimalAvailable": true,
                                "name": "",
                                "type": "uint256",
                                "value": "104,661,386,776,739"
                            }
                        ],
                        "signature": "balanceOf(address)"
                    },
                    "errorInfo": "",
                    "fromAddress": "0xa0b86991c6218b36c1d19d4a2e9eb0ce3606eb48",
                    "gasUsed": 529,
                    "id": 14,
                    "methodDecoded": true,
                    "operation": "DELEGATECALL",
                    "output": "0x00000000000000000000000000000000000000000000000000005f3060c7d0a3",
                    "revert": false,
                    "revertMessage": "",
                    "selector": "0x70a08231",
                    "status": true,
                    "value": "0"
                },
                "nodeType": 0
            },
            "15": {
                "invocation": {
                    "address": "0xe592427a0aece92de3edee1f18e0157c05861564",
                    "callData": "0x00000000000000000000000000000000000000000000000000000000dd582169ffffffffffffffffffffffffffffffffffffffffffffffffe9a2bc72578d5354000000000000000000000000000000000000000000000000000000000000006000000000000000000000000000000000000000000000000000000000000000c0000000000000000000000000000000000000000000000000000000000000002000000000000000000000000000000000000000000000000000000000000000400000000000000000000000009008d19f58aabd9ed0d60971565aa8510560ab41000000000000000000000000000000000000000000000000000000000000002ba0b86991c6218b36c1d19d4a2e9eb0ce3606eb480001f4c02aaa39b223fe8d0a0e5c4f27ead9083c756cc2000000000000000000000000000000000000000000",
                    "decodedMethod": {
                        "callParams": [
                            {
                                "name": "amount0Delta",
                                "type": "int256",
                                "value": "3,713,540,457"
                            },
                            {
                                "name": "amount1Delta",
                                "type": "int256",
                                "value": "-1,611,518,517,364,042,924"
                            },
                            {
                                "name": "_data",
                                "type": "bytes",
                                "value": "0x000000000000000000000000000000000000000000000000000000000000002000000000000000000000000000000000000000000000000000000000000000400000000000000000000000009008d19f58aabd9ed0d60971565aa8510560ab41000000000000000000000000000000000000000000000000000000000000002ba0b86991c6218b36c1d19d4a2e9eb0ce3606eb480001f4c02aaa39b223fe8d0a0e5c4f27ead9083c756cc2000000000000000000000000000000000000000000"
                            }
                        ],
                        "constructorArguments": "",
                        "name": "uniswapV3SwapCallback",
                        "returnParams": [],
                        "signature": "uniswapV3SwapCallback(int256,int256,bytes)"
                    },
                    "errorInfo": "",
                    "fromAddress": "0x88e6a0c2ddd26feeb64f039a2c41296fcb3f5640",
                    "gasUsed": 15648,
                    "id": 15,
                    "methodDecoded": true,
                    "operation": "CALL",
                    "output": "",
                    "revert": false,
                    "revertMessage": "",
                    "selector": "0xfa461e33",
                    "status": true,
                    "value": "0"
                },
                "nodeType": 0
            },
            "16": {
                "invocation": {
                    "address": "0xa0b86991c6218b36c1d19d4a2e9eb0ce3606eb48",
                    "callData": "0x0000000000000000000000009008d19f58aabd9ed0d60971565aa8510560ab4100000000000000000000000088e6a0c2ddd26feeb64f039a2c41296fcb3f564000000000000000000000000000000000000000000000000000000000dd582169",
                    "decodedMethod": {
                        "callParams": [
                            {
                                "name": "from",
                                "type": "address",
                                "value": "0x9008d19f58aabd9ed0d60971565aa8510560ab41"
                            },
                            {
                                "name": "to",
                                "type": "address",
                                "value": "0x88e6a0c2ddd26feeb64f039a2c41296fcb3f5640"
                            },
                            {
                                "decimalAvailable": true,
                                "name": "value",
                                "type": "uint256",
                                "value": "3,713,540,457"
                            }
                        ],
                        "constructorArguments": "",
                        "name": "transferFrom",
                        "returnParams": [
                            {
                                "name": "",
                                "type": "bool",
                                "value": true
                            }
                        ],
                        "signature": "transferFrom(address,address,uint256)"
                    },
                    "errorInfo": "",
                    "fromAddress": "0xe592427a0aece92de3edee1f18e0157c05861564",
                    "gasUsed": 11592,
                    "id": 16,
                    "methodDecoded": true,
                    "operation": "CALL",
                    "output": "0x0000000000000000000000000000000000000000000000000000000000000001",
                    "revert": false,
                    "revertMessage": "",
                    "selector": "0x23b872dd",
                    "status": true,
                    "value": "0"
                },
                "nodeType": 0
            },
            "17": {
                "invocation": {
                    "address": "0xa2327a938febf5fec13bacfb16ae10ecbc4cbdcf",
                    "callData": "0x0000000000000000000000009008d19f58aabd9ed0d60971565aa8510560ab4100000000000000000000000088e6a0c2ddd26feeb64f039a2c41296fcb3f564000000000000000000000000000000000000000000000000000000000dd582169",
                    "decodedMethod": {
                        "callParams": [
                            {
                                "name": "from",
                                "type": "address",
                                "value": "0x9008d19f58aabd9ed0d60971565aa8510560ab41"
                            },
                            {
                                "name": "to",
                                "type": "address",
                                "value": "0x88e6a0c2ddd26feeb64f039a2c41296fcb3f5640"
                            },
                            {
                                "decimalAvailable": true,
                                "name": "value",
                                "type": "uint256",
                                "value": "3,713,540,457"
                            }
                        ],
                        "constructorArguments": "",
                        "name": "transferFrom",
                        "returnParams": [
                            {
                                "name": "",
                                "type": "bool",
                                "value": true
                            }
                        ],
                        "signature": "transferFrom(address,address,uint256)"
                    },
                    "errorInfo": "",
                    "fromAddress": "0xa0b86991c6218b36c1d19d4a2e9eb0ce3606eb48",
                    "gasUsed": 10797,
                    "id": 17,
                    "methodDecoded": true,
                    "operation": "DELEGATECALL",
                    "output": "0x0000000000000000000000000000000000000000000000000000000000000001",
                    "revert": false,
                    "revertMessage": "",
                    "selector": "0x23b872dd",
                    "status": true,
                    "value": "0"
                },
                "nodeType": 0
            },
            "18": {
                "event": {
                    "contract": "0xa0b86991c6218b36c1d19d4a2e9eb0ce3606eb48",
                    "decodedLog": {
                        "name": "Transfer",
                        "params": [
                            {
                                "name": "from",
                                "type": "address",
                                "value": "0x9008d19f58aabd9ed0d60971565aa8510560ab41"
                            },
                            {
                                "name": "to",
                                "type": "address",
                                "value": "0x88e6a0c2ddd26feeb64f039a2c41296fcb3f5640"
                            },
                            {
                                "decimalAvailable": true,
                                "name": "value",
                                "type": "uint256",
                                "value": "3,713,540,457"
                            }
                        ],
                        "signature": "Transfer(address,address,uint256)"
                    },
                    "id": 18,
                    "logData": "0x00000000000000000000000000000000000000000000000000000000dd582169",
                    "logDecoded": true,
                    "operation": "EVENT",
                    "revert": false,
                    "status": true,
                    "topics": [
                        "0xddf252ad1be2c89b69c2b068fc378daa952ba7f163c4a11628f55a4df523b3ef",
                        "0x0000000000000000000000009008d19f58aabd9ed0d60971565aa8510560ab41",
                        "0x00000000000000000000000088e6a0c2ddd26feeb64f039a2c41296fcb3f5640"
                    ]
                },
                "nodeType": 1
            },
            "19": {
                "invocation": {
                    "address": "0xa0b86991c6218b36c1d19d4a2e9eb0ce3606eb48",
                    "callData": "0x00000000000000000000000088e6a0c2ddd26feeb64f039a2c41296fcb3f5640",
                    "decodedMethod": {
                        "callParams": [
                            {
                                "name": "account",
                                "type": "address",
                                "value": "0x88e6a0c2ddd26feeb64f039a2c41296fcb3f5640"
                            }
                        ],
                        "constructorArguments": "",
                        "name": "balanceOf",
                        "returnParams": [
                            {
                                "decimalAvailable": true,
                                "name": "",
                                "type": "uint256",
                                "value": "104,665,100,317,196"
                            }
                        ],
                        "signature": "balanceOf(address)"
                    },
                    "errorInfo": "",
                    "fromAddress": "0x88e6a0c2ddd26feeb64f039a2c41296fcb3f5640",
                    "gasUsed": 1315,
                    "id": 19,
                    "methodDecoded": true,
                    "operation": "STATICCALL",
                    "output": "0x00000000000000000000000000000000000000000000000000005f313e1ff20c",
                    "revert": false,
                    "revertMessage": "",
                    "selector": "0x70a08231",
                    "status": true,
                    "value": "0"
                },
                "nodeType": 0
            },
            "2": {
                "invocation": {
                    "address": "0x9e7ae8bdba9aa346739792d219a808884996db67",
                    "callData": "0x0000000000000000000000009b7e7f21d98f21c0354035798c40e9040e25787f",
                    "decodedMethod": {
                        "callParams": [
                            {
                                "name": "prospectiveSolver",
                                "type": "address",
                                "value": "0x9b7e7f21d98f21c0354035798c40e9040e25787f"
                            }
                        ],
                        "constructorArguments": "",
                        "name": "isSolver",
                        "returnParams": [
                            {
                                "name": "",
                                "type": "bool",
                                "value": true
                            }
                        ],
                        "signature": "isSolver(address)"
                    },
                    "errorInfo": "",
                    "fromAddress": "0x2c4c28ddbdac9c5e7055b4c863b72ea0149d8afe",
                    "gasUsed": 431,
                    "id": 2,
                    "methodDecoded": true,
                    "operation": "DELEGATECALL",
                    "output": "0x0000000000000000000000000000000000000000000000000000000000000001",
                    "revert": false,
                    "revertMessage": "",
                    "selector": "0x02cc250d",
                    "status": true,
                    "value": "0"
                },
                "nodeType": 0
            },
            "20": {
                "invocation": {
                    "address": "0xa2327a938febf5fec13bacfb16ae10ecbc4cbdcf",
                    "callData": "0x00000000000000000000000088e6a0c2ddd26feeb64f039a2c41296fcb3f5640",
                    "decodedMethod": {
                        "callParams": [
                            {
                                "name": "account",
                                "type": "address",
                                "value": "0x88e6a0c2ddd26feeb64f039a2c41296fcb3f5640"
                            }
                        ],
                        "constructorArguments": "",
                        "name": "balanceOf",
                        "returnParams": [
                            {
                                "decimalAvailable": true,
                                "name": "",
                                "type": "uint256",
                                "value": "104,665,100,317,196"
                            }
                        ],
                        "signature": "balanceOf(address)"
                    },
                    "errorInfo": "",
                    "fromAddress": "0xa0b86991c6218b36c1d19d4a2e9eb0ce3606eb48",
                    "gasUsed": 529,
                    "id": 20,
                    "methodDecoded": true,
                    "operation": "DELEGATECALL",
                    "output": "0x00000000000000000000000000000000000000000000000000005f313e1ff20c",
                    "revert": false,
                    "revertMessage": "",
                    "selector": "0x70a08231",
                    "status": true,
                    "value": "0"
                },
                "nodeType": 0
            },
            "21": {
                "event": {
                    "contract": "0x88e6a0c2ddd26feeb64f039a2c41296fcb3f5640",
                    "decodedLog": {
                        "name": "Swap",
                        "params": [
                            {
                                "name": "sender",
                                "type": "address",
                                "value": "0xe592427a0aece92de3edee1f18e0157c05861564"
                            },
                            {
                                "name": "recipient",
                                "type": "address",
                                "value": "0x9008d19f58aabd9ed0d60971565aa8510560ab41"
                            },
                            {
                                "name": "amount0",
                                "type": "int256",
                                "value": "3,713,540,457"
                            },
                            {
                                "name": "amount1",
                                "type": "int256",
                                "value": "-1,611,518,517,364,042,924"
                            },
                            {
                                "name": "sqrtPriceX96",
                                "type": "uint160",
                                "value": "1,650,861,685,409,780,463,427,549,326,355,713"
                            },
                            {
                                "name": "liquidity",
                                "type": "uint128",
                                "value": "15,744,847,577,714,153,342"
                            },
                            {
                                "name": "tick",
                                "type": "int24",
                                "value": "198,899"
                            }
                        ],
                        "signature": "Swap(address,address,int256,int256,uint160,uint128,int24)"
                    },
                    "id": 21,
                    "logData": "0x00000000000000000000000000000000000000000000000000000000dd582169ffffffffffffffffffffffffffffffffffffffffffffffffe9a2bc72578d53540000000000000000000000000000000000005164cdcc2d764490cde9e00a2d01000000000000000000000000000000000000000000000000da80ef73c052577e00000000000000000000000000000000000000000000000000000000000308f3",
                    "logDecoded": true,
                    "operation": "EVENT",
                    "revert": false,
                    "status": true,
                    "topics": [
                        "0xc42079f94a6350d7e6235f29174924f928cc2ac818eb64fed8004e115fbcca67",
                        "0x000000000000000000000000e592427a0aece92de3edee1f18e0157c05861564",
                        "0x0000000000000000000000009008d19f58aabd9ed0d60971565aa8510560ab41"
                    ]
                },
                "nodeType": 1
            },
            "22": {
                "event": {
                    "contract": "0x9008d19f58aabd9ed0d60971565aa8510560ab41",
                    "decodedLog": {
                        "name": "Interaction",
                        "params": [
                            {
                                "name": "target",
                                "type": "address",
                                "value": "0xe592427a0aece92de3edee1f18e0157c05861564"
                            },
                            {
                                "name": "value",
                                "type": "uint256",
                                "value": "0"
                            },
                            {
                                "name": "selector",
                                "type": "bytes4",
                                "value": "0x414bf389"
                            }
                        ],
                        "signature": "Interaction(address,uint256,bytes4)"
                    },
                    "id": 22,
                    "logData": "0x0000000000000000000000000000000000000000000000000000000000000000414bf38900000000000000000000000000000000000000000000000000000000",
                    "logDecoded": true,
                    "operation": "EVENT",
                    "revert": false,
                    "status": true,
                    "topics": [
                        "0xed99827efb37016f2275f98c4bcf71c7551c75d59e9b450f79fa32e60be672c2",
                        "0x000000000000000000000000e592427a0aece92de3edee1f18e0157c05861564"
                    ]
                },
                "nodeType": 1
            },
            "23": {
                "invocation": {
                    "address": "0x7a250d5630b4cf539739df2c5dacb4c659f2488d",
                    "callData": "0x0000000000000000000000000000000000000000000000d29973678815b8cdd80000000000000000000000000000000000000000000000001662f7f16f23e97200000000000000000000000000000000000000000000000000000000000000a00000000000000000000000009008d19f58aabd9ed0d60971565aa8510560ab41ffffffffffffffffffffffffffffffffffffffffffffffffffffffffffffffff0000000000000000000000000000000000000000000000000000000000000002000000000000000000000000c02aaa39b223fe8d0a0e5c4f27ead9083c756cc200000000000000000000000012ef10a4fc6e1ea44b4ca9508760ff51c647bb71",
                    "decodedMethod": {
                        "callParams": [
                            {
                                "name": "amountOut",
                                "type": "uint256",
                                "value": "3,884,873,550,823,308,185,048"
                            },
                            {
                                "name": "amountInMax",
                                "type": "uint256",
                                "value": "1,613,124,232,875,862,386"
                            },
                            {
                                "name": "path",
                                "type": "address[]",
                                "value": [
                                    "0xc02aaa39b223fe8d0a0e5c4f27ead9083c756cc2",
                                    "0x12ef10a4fc6e1ea44b4ca9508760ff51c647bb71"
                                ]
                            },
                            {
                                "name": "to",
                                "type": "address",
                                "value": "0x9008d19f58aabd9ed0d60971565aa8510560ab41"
                            },
                            {
                                "name": "deadline",
                                "type": "uint256",
                                "value": "115,792,089,237,316,195,423,570,985,008,687,907,853,269,984,665,640,564,039,457,584,007,913,129,639,935"
                            }
                        ],
                        "constructorArguments": "",
                        "name": "swapTokensForExactTokens",
                        "returnParams": [
                            {
                                "name": "amounts",
                                "type": "uint256[]",
                                "value": [
                                    "1,611,512,860,714,117,764",
                                    "3,884,873,550,823,308,185,048"
                                ]
                            }
                        ],
                        "signature": "swapTokensForExactTokens(uint256,uint256,address[],address,uint256)"
                    },
                    "errorInfo": "",
                    "fromAddress": "0x9008d19f58aabd9ed0d60971565aa8510560ab41",
                    "gasUsed": 47584,
                    "id": 23,
                    "methodDecoded": true,
                    "operation": "CALL",
                    "output": "0x00000000000000000000000000000000000000000000000000000000000000200000000000000000000000000000000000000000000000000000000000000002000000000000000000000000000000000000000000000000165d3e689dd6aa840000000000000000000000000000000000000000000000d29973678815b8cdd8",
                    "revert": false,
                    "revertMessage": "",
                    "selector": "0x8803dbee",
                    "status": true,
                    "value": "0"
                },
                "nodeType": 0
            },
            "24": {
                "invocation": {
                    "address": "0x8c894d91748a42fc68f681090db06720779a7347",
                    "callData": "0x",
                    "decodedMethod": {
                        "callParams": [],
                        "constructorArguments": "",
                        "name": "getReserves",
                        "returnParams": [
                            {
                                "name": "_reserve0",
                                "type": "uint112",
                                "value": "903,556,393,168,431,561,027,340"
                            },
                            {
                                "name": "_reserve1",
                                "type": "uint112",
                                "value": "372,079,736,624,325,168,616"
                            },
                            {
                                "name": "_blockTimestampLast",
                                "type": "uint32",
                                "value": "1,704,042,407"
                            }
                        ],
                        "signature": "getReserves()"
                    },
                    "errorInfo": "",
                    "fromAddress": "0x7a250d5630b4cf539739df2c5dacb4c659f2488d",
                    "gasUsed": 504,
                    "id": 24,
                    "methodDecoded": true,
                    "operation": "STATICCALL",
                    "output": "0x00000000000000000000000000000000000000000000bf55e3e593becfa7af0c0000000000000000000000000000000000000000000000142ba4c518cdcd8de80000000000000000000000000000000000000000000000000000000065919fa7",
                    "revert": false,
                    "revertMessage": "",
                    "selector": "0x0902f1ac",
                    "status": true,
                    "value": "0"
                },
                "nodeType": 0
            },
            "25": {
                "invocation": {
                    "address": "0xc02aaa39b223fe8d0a0e5c4f27ead9083c756cc2",
                    "callData": "0x0000000000000000000000009008d19f58aabd9ed0d60971565aa8510560ab410000000000000000000000008c894d91748a42fc68f681090db06720779a7347000000000000000000000000000000000000000000000000165d3e689dd6aa84",
                    "decodedMethod": {
                        "callParams": [
                            {
                                "name": "src",
                                "type": "address",
                                "value": "0x9008d19f58aabd9ed0d60971565aa8510560ab41"
                            },
                            {
                                "name": "dst",
                                "type": "address",
                                "value": "0x8c894d91748a42fc68f681090db06720779a7347"
                            },
                            {
                                "decimalAvailable": true,
                                "name": "wad",
                                "type": "uint256",
                                "value": "1,611,512,860,714,117,764"
                            }
                        ],
                        "constructorArguments": "",
                        "name": "transferFrom",
                        "returnParams": [
                            {
                                "name": "",
                                "type": "bool",
                                "value": true
                            }
                        ],
                        "signature": "transferFrom(address,address,uint256)"
                    },
                    "errorInfo": "",
                    "fromAddress": "0x7a250d5630b4cf539739df2c5dacb4c659f2488d",
                    "gasUsed": 6225,
                    "id": 25,
                    "methodDecoded": true,
                    "operation": "CALL",
                    "output": "0x0000000000000000000000000000000000000000000000000000000000000001",
                    "revert": false,
                    "revertMessage": "",
                    "selector": "0x23b872dd",
                    "status": true,
                    "value": "0"
                },
                "nodeType": 0
            },
            "26": {
                "event": {
                    "contract": "0xc02aaa39b223fe8d0a0e5c4f27ead9083c756cc2",
                    "decodedLog": {
                        "name": "Transfer",
                        "params": [
                            {
                                "name": "src",
                                "type": "address",
                                "value": "0x9008d19f58aabd9ed0d60971565aa8510560ab41"
                            },
                            {
                                "name": "dst",
                                "type": "address",
                                "value": "0x8c894d91748a42fc68f681090db06720779a7347"
                            },
                            {
                                "decimalAvailable": true,
                                "name": "wad",
                                "type": "uint256",
                                "value": "1,611,512,860,714,117,764"
                            }
                        ],
                        "signature": "Transfer(address,address,uint256)"
                    },
                    "id": 26,
                    "logData": "0x000000000000000000000000000000000000000000000000165d3e689dd6aa84",
                    "logDecoded": true,
                    "operation": "EVENT",
                    "revert": false,
                    "status": true,
                    "topics": [
                        "0xddf252ad1be2c89b69c2b068fc378daa952ba7f163c4a11628f55a4df523b3ef",
                        "0x0000000000000000000000009008d19f58aabd9ed0d60971565aa8510560ab41",
                        "0x0000000000000000000000008c894d91748a42fc68f681090db06720779a7347"
                    ]
                },
                "nodeType": 1
            },
            "27": {
                "invocation": {
                    "address": "0x8c894d91748a42fc68f681090db06720779a7347",
                    "callData": "0x0000000000000000000000000000000000000000000000d29973678815b8cdd800000000000000000000000000000000000000000000000000000000000000000000000000000000000000009008d19f58aabd9ed0d60971565aa8510560ab4100000000000000000000000000000000000000000000000000000000000000800000000000000000000000000000000000000000000000000000000000000000",
                    "decodedMethod": {
                        "callParams": [
                            {
                                "name": "amount0Out",
                                "type": "uint256",
                                "value": "3,884,873,550,823,308,185,048"
                            },
                            {
                                "name": "amount1Out",
                                "type": "uint256",
                                "value": "0"
                            },
                            {
                                "name": "to",
                                "type": "address",
                                "value": "0x9008d19f58aabd9ed0d60971565aa8510560ab41"
                            },
                            {
                                "name": "data",
                                "type": "bytes",
                                "value": "0x"
                            }
                        ],
                        "constructorArguments": "",
                        "name": "swap",
                        "returnParams": [],
                        "signature": "swap(uint256,uint256,address,bytes)"
                    },
                    "errorInfo": "",
                    "fromAddress": "0x7a250d5630b4cf539739df2c5dacb4c659f2488d",
                    "gasUsed": 33028,
                    "id": 27,
                    "methodDecoded": true,
                    "operation": "CALL",
                    "output": "",
                    "revert": false,
                    "revertMessage": "",
                    "selector": "0x022c0d9f",
                    "status": true,
                    "value": "0"
                },
                "nodeType": 0
            },
            "28": {
                "invocation": {
                    "address": "0x12ef10a4fc6e1ea44b4ca9508760ff51c647bb71",
                    "callData": "0x0000000000000000000000009008d19f58aabd9ed0d60971565aa8510560ab410000000000000000000000000000000000000000000000d29973678815b8cdd8",
                    "decodedMethod": {
                        "callParams": [
                            {
                                "name": "to",
                                "type": "address",
                                "value": "0x9008d19f58aabd9ed0d60971565aa8510560ab41"
                            },
                            {
                                "decimalAvailable": true,
                                "name": "value",
                                "type": "uint256",
                                "value": "3,884,873,550,823,308,185,048"
                            }
                        ],
                        "constructorArguments": "",
                        "name": "transfer",
                        "returnParams": [
                            {
                                "name": "",
                                "type": "bool",
                                "value": true
                            }
                        ],
                        "signature": "transfer(address,uint256)"
                    },
                    "errorInfo": "",
                    "fromAddress": "0x8c894d91748a42fc68f681090db06720779a7347",
                    "gasUsed": 9820,
                    "id": 28,
                    "methodDecoded": true,
                    "operation": "CALL",
                    "output": "0x0000000000000000000000000000000000000000000000000000000000000001",
                    "revert": false,
                    "revertMessage": "",
                    "selector": "0xa9059cbb",
                    "status": true,
                    "value": "0"
                },
                "nodeType": 0
            },
            "29": {
                "invocation": {
                    "address": "0xfc44f80c94cc129f618cb9c756000972e775cbd1",
                    "callData": "0x0000000000000000000000009008d19f58aabd9ed0d60971565aa8510560ab410000000000000000000000000000000000000000000000d29973678815b8cdd8",
                    "decodedMethod": {
                        "callParams": [
                            {
                                "name": "to",
                                "type": "address",
                                "value": "0x9008d19f58aabd9ed0d60971565aa8510560ab41"
                            },
                            {
                                "decimalAvailable": true,
                                "name": "value",
                                "type": "uint256",
                                "value": "3,884,873,550,823,308,185,048"
                            }
                        ],
                        "constructorArguments": "",
                        "name": "transfer",
                        "returnParams": [
                            {
                                "name": "",
                                "type": "bool",
                                "value": true
                            }
                        ],
                        "signature": "transfer(address,uint256)"
                    },
                    "errorInfo": "",
                    "fromAddress": "0x12ef10a4fc6e1ea44b4ca9508760ff51c647bb71",
                    "gasUsed": 9419,
                    "id": 29,
                    "methodDecoded": true,
                    "operation": "DELEGATECALL",
                    "output": "0x0000000000000000000000000000000000000000000000000000000000000001",
                    "revert": false,
                    "revertMessage": "",
                    "selector": "0xa9059cbb",
                    "status": true,
                    "value": "0"
                },
                "nodeType": 0
            },
            "3": {
                "invocation": {
                    "address": "0x0000000000000000000000000000000000000001",
                    "callData": "0x15a66538e325761e91bd4fb99ee87b7d05602744ef036e1406b0eada000000000000000000000000000000000000000000000000000000000000001cff49b063a0bd99e26653061d79ee38f630732fd5fa172cbaca4b6e0cebb97f20143a76b35af17e45eb767d9bd8c25ddb8642bad7fbdf8ac761275af4b3596410",
                    "decodedMethod": {
                        "callParams": [
                            {
                                "name": "hash",
                                "type": "bytes32",
                                "value": "0xf06fff1a15a66538e325761e91bd4fb99ee87b7d05602744ef036e1406b0eada"
                            },
                            {
                                "name": "v",
                                "type": "uint256",
                                "value": "28"
                            },
                            {
                                "name": "r",
                                "type": "bytes32",
                                "value": "0xff49b063a0bd99e26653061d79ee38f630732fd5fa172cbaca4b6e0cebb97f20"
                            },
                            {
                                "name": "s",
                                "type": "bytes32",
                                "value": "0x143a76b35af17e45eb767d9bd8c25ddb8642bad7fbdf8ac761275af4b3596410"
                            }
                        ],
                        "constructorArguments": "",
                        "name": "ecrecover",
                        "returnParams": [
                            {
                                "name": "",
                                "type": "address",
                                "value": "0x699f324560e9236afcfcedbbfb9c4afa8fa9b042"
                            }
                        ],
                        "signature": "ecrecover(bytes32,uint256,bytes32,bytes32)"
                    },
                    "errorInfo": "",
                    "fromAddress": "0x9008d19f58aabd9ed0d60971565aa8510560ab41",
                    "gasUsed": 3000,
                    "id": 3,
                    "methodDecoded": true,
                    "operation": "STATICCALL",
                    "output": "0x000000000000000000000000699f324560e9236afcfcedbbfb9c4afa8fa9b042",
                    "revert": false,
                    "revertMessage": "",
                    "selector": "0xf06fff1a",
                    "status": true,
                    "value": "0"
                },
                "nodeType": 0
            },
            "30": {
                "event": {
                    "contract": "0x12ef10a4fc6e1ea44b4ca9508760ff51c647bb71",
                    "decodedLog": {
                        "name": "Transfer",
                        "params": [
                            {
                                "name": "from",
                                "type": "address",
                                "value": "0x8c894d91748a42fc68f681090db06720779a7347"
                            },
                            {
                                "name": "to",
                                "type": "address",
                                "value": "0x9008d19f58aabd9ed0d60971565aa8510560ab41"
                            },
                            {
                                "decimalAvailable": true,
                                "name": "value",
                                "type": "uint256",
                                "value": "3,884,873,550,823,308,185,048"
                            }
                        ],
                        "signature": "Transfer(address,address,uint256)"
                    },
                    "id": 30,
                    "logData": "0x0000000000000000000000000000000000000000000000d29973678815b8cdd8",
                    "logDecoded": true,
                    "operation": "EVENT",
                    "revert": false,
                    "status": true,
                    "topics": [
                        "0xddf252ad1be2c89b69c2b068fc378daa952ba7f163c4a11628f55a4df523b3ef",
                        "0x0000000000000000000000008c894d91748a42fc68f681090db06720779a7347",
                        "0x0000000000000000000000009008d19f58aabd9ed0d60971565aa8510560ab41"
                    ]
                },
                "nodeType": 1
            },
            "31": {
                "invocation": {
                    "address": "0x12ef10a4fc6e1ea44b4ca9508760ff51c647bb71",
                    "callData": "0x0000000000000000000000008c894d91748a42fc68f681090db06720779a7347",
                    "decodedMethod": {
                        "callParams": [
                            {
                                "name": "account",
                                "type": "address",
                                "value": "0x8c894d91748a42fc68f681090db06720779a7347"
                            }
                        ],
                        "constructorArguments": "",
                        "name": "balanceOf",
                        "returnParams": [
                            {
                                "decimalAvailable": true,
                                "name": "",
                                "type": "uint256",
                                "value": "899,671,519,617,608,252,842,292"
                            }
                        ],
                        "signature": "balanceOf(address)"
                    },
                    "errorInfo": "",
                    "fromAddress": "0x8c894d91748a42fc68f681090db06720779a7347",
                    "gasUsed": 1351,
                    "id": 31,
                    "methodDecoded": true,
                    "operation": "STATICCALL",
                    "output": "0x00000000000000000000000000000000000000000000be834a722c36b9eee134",
                    "revert": false,
                    "revertMessage": "",
                    "selector": "0x70a08231",
                    "status": true,
                    "value": "0"
                },
                "nodeType": 0
            },
            "32": {
                "invocation": {
                    "address": "0xfc44f80c94cc129f618cb9c756000972e775cbd1",
                    "callData": "0x0000000000000000000000008c894d91748a42fc68f681090db06720779a7347",
                    "decodedMethod": {
                        "callParams": [
                            {
                                "name": "account",
                                "type": "address",
                                "value": "0x8c894d91748a42fc68f681090db06720779a7347"
                            }
                        ],
                        "constructorArguments": "",
                        "name": "balanceOf",
                        "returnParams": [
                            {
                                "decimalAvailable": true,
                                "name": "",
                                "type": "uint256",
                                "value": "899,671,519,617,608,252,842,292"
                            }
                        ],
                        "signature": "balanceOf(address)"
                    },
                    "errorInfo": "",
                    "fromAddress": "0x12ef10a4fc6e1ea44b4ca9508760ff51c647bb71",
                    "gasUsed": 953,
                    "id": 32,
                    "methodDecoded": true,
                    "operation": "DELEGATECALL",
                    "output": "0x00000000000000000000000000000000000000000000be834a722c36b9eee134",
                    "revert": false,
                    "revertMessage": "",
                    "selector": "0x70a08231",
                    "status": true,
                    "value": "0"
                },
                "nodeType": 0
            },
            "33": {
                "invocation": {
                    "address": "0xc02aaa39b223fe8d0a0e5c4f27ead9083c756cc2",
                    "callData": "0x0000000000000000000000008c894d91748a42fc68f681090db06720779a7347",
                    "decodedMethod": {
                        "callParams": [
                            {
                                "name": "",
                                "type": "address",
                                "value": "0x8c894d91748a42fc68f681090db06720779a7347"
                            }
                        ],
                        "constructorArguments": "",
                        "name": "balanceOf",
                        "returnParams": [
                            {
                                "decimalAvailable": true,
                                "name": "",
                                "type": "uint256",
                                "value": "373,691,249,485,039,286,380"
                            }
                        ],
                        "signature": "balanceOf(address)"
                    },
                    "errorInfo": "",
                    "fromAddress": "0x8c894d91748a42fc68f681090db06720779a7347",
                    "gasUsed": 534,
                    "id": 33,
                    "methodDecoded": true,
                    "operation": "STATICCALL",
                    "output": "0x000000000000000000000000000000000000000000000014420203816ba4386c",
                    "revert": false,
                    "revertMessage": "",
                    "selector": "0x70a08231",
                    "status": true,
                    "value": "0"
                },
                "nodeType": 0
            },
            "34": {
                "event": {
                    "contract": "0x8c894d91748a42fc68f681090db06720779a7347",
                    "decodedLog": {
                        "name": "Sync",
                        "params": [
                            {
                                "name": "reserve0",
                                "type": "uint112",
                                "value": "899,671,519,617,608,252,842,292"
                            },
                            {
                                "name": "reserve1",
                                "type": "uint112",
                                "value": "373,691,249,485,039,286,380"
                            }
                        ],
                        "signature": "Sync(uint112,uint112)"
                    },
                    "id": 34,
                    "logData": "0x00000000000000000000000000000000000000000000be834a722c36b9eee134000000000000000000000000000000000000000000000014420203816ba4386c",
                    "logDecoded": true,
                    "operation": "EVENT",
                    "revert": false,
                    "status": true,
                    "topics": [
                        "0x1c411e9a96e071241c2f21f7726b17ae89e3cab4c78be50e062b03a9fffbbad1"
                    ]
                },
                "nodeType": 1
            },
            "35": {
                "event": {
                    "contract": "0x8c894d91748a42fc68f681090db06720779a7347",
                    "decodedLog": {
                        "name": "Swap",
                        "params": [
                            {
                                "name": "sender",
                                "type": "address",
                                "value": "0x7a250d5630b4cf539739df2c5dacb4c659f2488d"
                            },
                            {
                                "name": "to",
                                "type": "address",
                                "value": "0x9008d19f58aabd9ed0d60971565aa8510560ab41"
                            },
                            {
                                "name": "amount0In",
                                "type": "uint256",
                                "value": "0"
                            },
                            {
                                "name": "amount1In",
                                "type": "uint256",
                                "value": "1,611,512,860,714,117,764"
                            },
                            {
                                "name": "amount0Out",
                                "type": "uint256",
                                "value": "3,884,873,550,823,308,185,048"
                            },
                            {
                                "name": "amount1Out",
                                "type": "uint256",
                                "value": "0"
                            }
                        ],
                        "signature": "Swap(address,uint256,uint256,uint256,uint256,address)"
                    },
                    "id": 35,
                    "logData": "0x0000000000000000000000000000000000000000000000000000000000000000000000000000000000000000000000000000000000000000165d3e689dd6aa840000000000000000000000000000000000000000000000d29973678815b8cdd80000000000000000000000000000000000000000000000000000000000000000",
                    "logDecoded": true,
                    "operation": "EVENT",
                    "revert": false,
                    "status": true,
                    "topics": [
                        "0xd78ad95fa46c994b6551d0da85fc275fe613ce37657fb8d5e3d130840159d822",
                        "0x0000000000000000000000007a250d5630b4cf539739df2c5dacb4c659f2488d",
                        "0x0000000000000000000000009008d19f58aabd9ed0d60971565aa8510560ab41"
                    ]
                },
                "nodeType": 1
            },
            "36": {
                "event": {
                    "contract": "0x9008d19f58aabd9ed0d60971565aa8510560ab41",
                    "decodedLog": {
                        "name": "Interaction",
                        "params": [
                            {
                                "name": "target",
                                "type": "address",
                                "value": "0x7a250d5630b4cf539739df2c5dacb4c659f2488d"
                            },
                            {
                                "name": "value",
                                "type": "uint256",
                                "value": "0"
                            },
                            {
                                "name": "selector",
                                "type": "bytes4",
                                "value": "0x8803dbee"
                            }
                        ],
                        "signature": "Interaction(address,uint256,bytes4)"
                    },
                    "id": 36,
                    "logData": "0x00000000000000000000000000000000000000000000000000000000000000008803dbee00000000000000000000000000000000000000000000000000000000",
                    "logDecoded": true,
                    "operation": "EVENT",
                    "revert": false,
                    "status": true,
                    "topics": [
                        "0xed99827efb37016f2275f98c4bcf71c7551c75d59e9b450f79fa32e60be672c2",
                        "0x0000000000000000000000007a250d5630b4cf539739df2c5dacb4c659f2488d"
                    ]
                },
                "nodeType": 1
            },
            "37": {
                "invocation": {
                    "address": "0x12ef10a4fc6e1ea44b4ca9508760ff51c647bb71",
                    "callData": "0x000000000000000000000000699f324560e9236afcfcedbbfb9c4afa8fa9b0420000000000000000000000000000000000000000000000d29973679fc41a82cf",
                    "decodedMethod": {
                        "callParams": [
                            {
                                "name": "to",
                                "type": "address",
                                "value": "0x699f324560e9236afcfcedbbfb9c4afa8fa9b042"
                            },
                            {
                                "decimalAvailable": true,
                                "name": "value",
                                "type": "uint256",
                                "value": "3,884,873,550,925,018,071,759"
                            }
                        ],
                        "constructorArguments": "",
                        "name": "transfer",
                        "returnParams": [
                            {
                                "name": "",
                                "type": "bool",
                                "value": true
                            }
                        ],
                        "signature": "transfer(address,uint256)"
                    },
                    "errorInfo": "",
                    "fromAddress": "0x9008d19f58aabd9ed0d60971565aa8510560ab41",
                    "gasUsed": 7020,
                    "id": 37,
                    "methodDecoded": true,
                    "operation": "CALL",
                    "output": "0x0000000000000000000000000000000000000000000000000000000000000001",
                    "revert": false,
                    "revertMessage": "",
                    "selector": "0xa9059cbb",
                    "status": true,
                    "value": "0"
                },
                "nodeType": 0
            },
            "38": {
                "invocation": {
                    "address": "0xfc44f80c94cc129f618cb9c756000972e775cbd1",
                    "callData": "0x000000000000000000000000699f324560e9236afcfcedbbfb9c4afa8fa9b0420000000000000000000000000000000000000000000000d29973679fc41a82cf",
                    "decodedMethod": {
                        "callParams": [
                            {
                                "name": "to",
                                "type": "address",
                                "value": "0x699f324560e9236afcfcedbbfb9c4afa8fa9b042"
                            },
                            {
                                "decimalAvailable": true,
                                "name": "value",
                                "type": "uint256",
                                "value": "3,884,873,550,925,018,071,759"
                            }
                        ],
                        "constructorArguments": "",
                        "name": "transfer",
                        "returnParams": [
                            {
                                "name": "",
                                "type": "bool",
                                "value": true
                            }
                        ],
                        "signature": "transfer(address,uint256)"
                    },
                    "errorInfo": "",
                    "fromAddress": "0x12ef10a4fc6e1ea44b4ca9508760ff51c647bb71",
                    "gasUsed": 6619,
                    "id": 38,
                    "methodDecoded": true,
                    "operation": "DELEGATECALL",
                    "output": "0x0000000000000000000000000000000000000000000000000000000000000001",
                    "revert": false,
                    "revertMessage": "",
                    "selector": "0xa9059cbb",
                    "status": true,
                    "value": "0"
                },
                "nodeType": 0
            },
            "39": {
                "event": {
                    "contract": "0x12ef10a4fc6e1ea44b4ca9508760ff51c647bb71",
                    "decodedLog": {
                        "name": "Transfer",
                        "params": [
                            {
                                "name": "from",
                                "type": "address",
                                "value": "0x9008d19f58aabd9ed0d60971565aa8510560ab41"
                            },
                            {
                                "name": "to",
                                "type": "address",
                                "value": "0x699f324560e9236afcfcedbbfb9c4afa8fa9b042"
                            },
                            {
                                "decimalAvailable": true,
                                "name": "value",
                                "type": "uint256",
                                "value": "3,884,873,550,925,018,071,759"
                            }
                        ],
                        "signature": "Transfer(address,address,uint256)"
                    },
                    "id": 39,
                    "logData": "0x0000000000000000000000000000000000000000000000d29973679fc41a82cf",
                    "logDecoded": true,
                    "operation": "EVENT",
                    "revert": false,
                    "status": true,
                    "topics": [
                        "0xddf252ad1be2c89b69c2b068fc378daa952ba7f163c4a11628f55a4df523b3ef",
                        "0x0000000000000000000000009008d19f58aabd9ed0d60971565aa8510560ab41",
                        "0x000000000000000000000000699f324560e9236afcfcedbbfb9c4afa8fa9b042"
                    ]
                },
                "nodeType": 1
            },
            "4": {
                "event": {
                    "contract": "0x9008d19f58aabd9ed0d60971565aa8510560ab41",
                    "decodedLog": {
                        "name": "Trade",
                        "params": [
                            {
                                "name": "owner",
                                "type": "address",
                                "value": "0x699f324560e9236afcfcedbbfb9c4afa8fa9b042"
                            },
                            {
                                "name": "sellToken",
                                "type": "address",
                                "value": "0xa0b86991c6218b36c1d19d4a2e9eb0ce3606eb48"
                            },
                            {
                                "name": "buyToken",
                                "type": "address",
                                "value": "0x12ef10a4fc6e1ea44b4ca9508760ff51c647bb71"
                            },
                            {
                                "name": "sellAmount",
                                "type": "uint256",
                                "value": "3,726,229,997"
                            },
                            {
                                "name": "buyAmount",
                                "type": "uint256",
                                "value": "3,884,873,550,925,018,071,759"
                            },
                            {
                                "name": "feeAmount",
                                "type": "uint256",
                                "value": "0"
                            },
                            {
                                "name": "orderUid",
                                "type": "bytes",
                                "value": "0xf06fff1a15a66538e325761e91bd4fb99ee87b7d05602744ef036e1406b0eada699f324560e9236afcfcedbbfb9c4afa8fa9b0426597dd73"
                            }
                        ],
                        "signature": "Trade(address,address,address,uint256,uint256,uint256,bytes)"
                    },
                    "id": 4,
                    "logData": "0x000000000000000000000000a0b86991c6218b36c1d19d4a2e9eb0ce3606eb4800000000000000000000000012ef10a4fc6e1ea44b4ca9508760ff51c647bb7100000000000000000000000000000000000000000000000000000000de19c1ed0000000000000000000000000000000000000000000000d29973679fc41a82cf000000000000000000000000000000000000000000000000000000000000000000000000000000000000000000000000000000000000000000000000000000c00000000000000000000000000000000000000000000000000000000000000038f06fff1a15a66538e325761e91bd4fb99ee87b7d05602744ef036e1406b0eada699f324560e9236afcfcedbbfb9c4afa8fa9b0426597dd730000000000000000",
                    "logDecoded": true,
                    "operation": "EVENT",
                    "revert": false,
                    "status": true,
                    "topics": [
                        "0xa07a543ab8a018198e99ca0184c93fe9050a79400a0a723441f84de1d972cc17",
                        "0x000000000000000000000000699f324560e9236afcfcedbbfb9c4afa8fa9b042"
                    ]
                },
                "nodeType": 1
            },
            "40": {
                "event": {
                    "contract": "0x9008d19f58aabd9ed0d60971565aa8510560ab41",
                    "decodedLog": {
                        "name": "Settlement",
                        "params": [
                            {
                                "name": "solver",
                                "type": "address",
                                "value": "0x9b7e7f21d98f21c0354035798c40e9040e25787f"
                            }
                        ],
                        "signature": "Settlement(address)"
                    },
                    "id": 40,
                    "logData": "0x",
                    "logDecoded": true,
                    "operation": "EVENT",
                    "revert": false,
                    "status": true,
                    "topics": [
                        "0x40338ce1a7c49204f0099533b1e9a7ee0a3d261f84974ab7af36105b8c4e9db4",
                        "0x0000000000000000000000009b7e7f21d98f21c0354035798c40e9040e25787f"
                    ]
                },
                "nodeType": 1
            },
            "5": {
                "invocation": {
                    "address": "0xc92e8bdf79f0507f65a392b0ab4667716bfe0110",
                    "callData": "0x00000000000000000000000000000000000000000000000000000000000000200000000000000000000000000000000000000000000000000000000000000001000000000000000000000000699f324560e9236afcfcedbbfb9c4afa8fa9b042000000000000000000000000a0b86991c6218b36c1d19d4a2e9eb0ce3606eb4800000000000000000000000000000000000000000000000000000000de19c1ed5a28e9363bb942b639270062aa6bb295f434bcdfc42c97267bf003f272060dc9",
                    "decodedMethod": {
                        "callParams": [
                            {
                                "name": "transfers",
                                "type": "(address,address,uint256,bytes32)[]",
                                "value": [
                                    [
                                        {
                                            "name": "account",
                                            "type": "address",
                                            "value": "0x699f324560e9236afcfcedbbfb9c4afa8fa9b042"
                                        },
                                        {
                                            "name": "token",
                                            "type": "address",
                                            "value": "0xa0b86991c6218b36c1d19d4a2e9eb0ce3606eb48"
                                        },
                                        {
                                            "name": "amount",
                                            "type": "uint256",
                                            "value": "3,726,229,997"
                                        },
                                        {
                                            "name": "balance",
                                            "type": "bytes32",
                                            "value": "0x5a28e9363bb942b639270062aa6bb295f434bcdfc42c97267bf003f272060dc9"
                                        }
                                    ]
                                ]
                            }
                        ],
                        "constructorArguments": "",
                        "name": "transferFromAccounts",
                        "returnParams": [],
                        "signature": "transferFromAccounts((address,address,uint256,bytes32)[])"
                    },
                    "errorInfo": "",
                    "fromAddress": "0x9008d19f58aabd9ed0d60971565aa8510560ab41",
                    "gasUsed": 16342,
                    "id": 5,
                    "methodDecoded": true,
                    "operation": "CALL",
                    "output": "",
                    "revert": false,
                    "revertMessage": "",
                    "selector": "0x7d10d11f",
                    "status": true,
                    "value": "0"
                },
                "nodeType": 0
            },
            "6": {
                "invocation": {
                    "address": "0xa0b86991c6218b36c1d19d4a2e9eb0ce3606eb48",
                    "callData": "0x000000000000000000000000699f324560e9236afcfcedbbfb9c4afa8fa9b0420000000000000000000000009008d19f58aabd9ed0d60971565aa8510560ab4100000000000000000000000000000000000000000000000000000000de19c1ed",
                    "decodedMethod": {
                        "callParams": [
                            {
                                "name": "from",
                                "type": "address",
                                "value": "0x699f324560e9236afcfcedbbfb9c4afa8fa9b042"
                            },
                            {
                                "name": "to",
                                "type": "address",
                                "value": "0x9008d19f58aabd9ed0d60971565aa8510560ab41"
                            },
                            {
                                "decimalAvailable": true,
                                "name": "value",
                                "type": "uint256",
                                "value": "3,726,229,997"
                            }
                        ],
                        "constructorArguments": "",
                        "name": "transferFrom",
                        "returnParams": [
                            {
                                "name": "",
                                "type": "bool",
                                "value": true
                            }
                        ],
                        "signature": "transferFrom(address,address,uint256)"
                    },
                    "errorInfo": "",
                    "fromAddress": "0xc92e8bdf79f0507f65a392b0ab4667716bfe0110",
                    "gasUsed": 14392,
                    "id": 6,
                    "methodDecoded": true,
                    "operation": "CALL",
                    "output": "0x0000000000000000000000000000000000000000000000000000000000000001",
                    "revert": false,
                    "revertMessage": "",
                    "selector": "0x23b872dd",
                    "status": true,
                    "value": "0"
                },
                "nodeType": 0
            },
            "7": {
                "invocation": {
                    "address": "0xa2327a938febf5fec13bacfb16ae10ecbc4cbdcf",
                    "callData": "0x000000000000000000000000699f324560e9236afcfcedbbfb9c4afa8fa9b0420000000000000000000000009008d19f58aabd9ed0d60971565aa8510560ab4100000000000000000000000000000000000000000000000000000000de19c1ed",
                    "decodedMethod": {
                        "callParams": [
                            {
                                "name": "from",
                                "type": "address",
                                "value": "0x699f324560e9236afcfcedbbfb9c4afa8fa9b042"
                            },
                            {
                                "name": "to",
                                "type": "address",
                                "value": "0x9008d19f58aabd9ed0d60971565aa8510560ab41"
                            },
                            {
                                "decimalAvailable": true,
                                "name": "value",
                                "type": "uint256",
                                "value": "3,726,229,997"
                            }
                        ],
                        "constructorArguments": "",
                        "name": "transferFrom",
                        "returnParams": [
                            {
                                "name": "",
                                "type": "bool",
                                "value": true
                            }
                        ],
                        "signature": "transferFrom(address,address,uint256)"
                    },
                    "errorInfo": "",
                    "fromAddress": "0xa0b86991c6218b36c1d19d4a2e9eb0ce3606eb48",
                    "gasUsed": 13597,
                    "id": 7,
                    "methodDecoded": true,
                    "operation": "DELEGATECALL",
                    "output": "0x0000000000000000000000000000000000000000000000000000000000000001",
                    "revert": false,
                    "revertMessage": "",
                    "selector": "0x23b872dd",
                    "status": true,
                    "value": "0"
                },
                "nodeType": 0
            },
            "8": {
                "event": {
                    "contract": "0xa0b86991c6218b36c1d19d4a2e9eb0ce3606eb48",
                    "decodedLog": {
                        "name": "Transfer",
                        "params": [
                            {
                                "name": "from",
                                "type": "address",
                                "value": "0x699f324560e9236afcfcedbbfb9c4afa8fa9b042"
                            },
                            {
                                "name": "to",
                                "type": "address",
                                "value": "0x9008d19f58aabd9ed0d60971565aa8510560ab41"
                            },
                            {
                                "decimalAvailable": true,
                                "name": "value",
                                "type": "uint256",
                                "value": "3,726,229,997"
                            }
                        ],
                        "signature": "Transfer(address,address,uint256)"
                    },
                    "id": 8,
                    "logData": "0x00000000000000000000000000000000000000000000000000000000de19c1ed",
                    "logDecoded": true,
                    "operation": "EVENT",
                    "revert": false,
                    "status": true,
                    "topics": [
                        "0xddf252ad1be2c89b69c2b068fc378daa952ba7f163c4a11628f55a4df523b3ef",
                        "0x000000000000000000000000699f324560e9236afcfcedbbfb9c4afa8fa9b042",
                        "0x0000000000000000000000009008d19f58aabd9ed0d60971565aa8510560ab41"
                    ]
                },
                "nodeType": 1
            },
            "9": {
                "invocation": {
                    "address": "0xe592427a0aece92de3edee1f18e0157c05861564",
                    "callData": "0x000000000000000000000000a0b86991c6218b36c1d19d4a2e9eb0ce3606eb48000000000000000000000000c02aaa39b223fe8d0a0e5c4f27ead9083c756cc200000000000000000000000000000000000000000000000000000000000001f40000000000000000000000009008d19f58aabd9ed0d60971565aa8510560ab4100000000000000000000000000000000000000000000000017a5faa63ab6ad3f00000000000000000000000000000000000000000000000000000000dd582169000000000000000000000000000000000000000000000000164a28bd691e371e0000000000000000000000000000000000000000000000000000000000000000",
                    "decodedMethod": {
                        "callParams": [
                            {
                                "name": "params",
                                "type": "(address,address,uint24,address,uint256,uint256,uint256,uint160)",
                                "value": [
                                    {
                                        "name": "tokenIn",
                                        "type": "address",
                                        "value": "0xa0b86991c6218b36c1d19d4a2e9eb0ce3606eb48"
                                    },
                                    {
                                        "name": "tokenOut",
                                        "type": "address",
                                        "value": "0xc02aaa39b223fe8d0a0e5c4f27ead9083c756cc2"
                                    },
                                    {
                                        "name": "fee",
                                        "type": "uint24",
                                        "value": "500"
                                    },
                                    {
                                        "name": "recipient",
                                        "type": "address",
                                        "value": "0x9008d19f58aabd9ed0d60971565aa8510560ab41"
                                    },
                                    {
                                        "name": "deadline",
                                        "type": "uint256",
                                        "value": "1,704,043,625,886,166,335"
                                    },
                                    {
                                        "name": "amountIn",
                                        "type": "uint256",
                                        "value": "3,713,540,457"
                                    },
                                    {
                                        "name": "amountOutMinimum",
                                        "type": "uint256",
                                        "value": "1,606,141,011,088,520,990"
                                    },
                                    {
                                        "name": "sqrtPriceLimitX96",
                                        "type": "uint160",
                                        "value": "0"
                                    }
                                ]
                            }
                        ],
                        "constructorArguments": "",
                        "name": "exactInputSingle",
                        "returnParams": [
                            {
                                "name": "amountOut",
                                "type": "uint256",
                                "value": "1,611,518,517,364,042,924"
                            }
                        ],
                        "signature": "exactInputSingle((address,address,uint24,address,uint256,uint256,uint256,uint160))"
                    },
                    "errorInfo": "",
                    "fromAddress": "0x9008d19f58aabd9ed0d60971565aa8510560ab41",
                    "gasUsed": 56982,
                    "id": 9,
                    "methodDecoded": true,
                    "operation": "CALL",
                    "output": "0x000000000000000000000000000000000000000000000000165d438da872acac",
                    "revert": false,
                    "revertMessage": "",
                    "selector": "0x414bf389",
                    "status": true,
                    "value": "0"
                },
                "nodeType": 0
            }
        },
        "gasFlame": [
            {
                "children": [
                    {
                        "children": [
                            {
                                "children": [],
                                "depth": 0,
                                "name": "Initial Gas",
                                "value": 132004
                            },
                            {
                                "children": [
                                    {
                                        "children": [
                                            {
                                                "children": [],
                                                "depth": 2,
                                                "name": "isSolver",
                                                "value": 431
                                            }
                                        ],
                                        "depth": 1,
                                        "name": "isSolver",
                                        "value": 865
                                    },
                                    {
                                        "children": [],
                                        "depth": 1,
                                        "name": "ecrecover",
                                        "value": 3000
                                    },
                                    {
                                        "children": [
                                            {
                                                "children": [
                                                    {
                                                        "children": [],
                                                        "depth": 3,
                                                        "name": "transferFrom",
                                                        "value": 13597
                                                    }
                                                ],
                                                "depth": 2,
                                                "name": "transferFrom",
                                                "value": 14392
                                            }
                                        ],
                                        "depth": 1,
                                        "name": "transferFromAccounts",
                                        "value": 16342
                                    },
                                    {
                                        "children": [
                                            {
                                                "children": [
                                                    {
                                                        "children": [],
                                                        "depth": 3,
                                                        "name": "transfer",
                                                        "value": 8862
                                                    },
                                                    {
                                                        "children": [
                                                            {
                                                                "children": [],
                                                                "depth": 4,
                                                                "name": "balanceOf",
                                                                "value": 529
                                                            }
                                                        ],
                                                        "depth": 3,
                                                        "name": "balanceOf",
                                                        "value": 1315
                                                    },
                                                    {
                                                        "children": [
                                                            {
                                                                "children": [
                                                                    {
                                                                        "children": [],
                                                                        "depth": 5,
                                                                        "name": "transferFrom",
                                                                        "value": 10797
                                                                    }
                                                                ],
                                                                "depth": 4,
                                                                "name": "transferFrom",
                                                                "value": 11592
                                                            }
                                                        ],
                                                        "depth": 3,
                                                        "name": "uniswapV3SwapCallback",
                                                        "value": 15648
                                                    },
                                                    {
                                                        "children": [
                                                            {
                                                                "children": [],
                                                                "depth": 4,
                                                                "name": "balanceOf",
                                                                "value": 529
                                                            }
                                                        ],
                                                        "depth": 3,
                                                        "name": "balanceOf",
                                                        "value": 1315
                                                    }
                                                ],
                                                "depth": 2,
                                                "name": "swap",
                                                "value": 52050
                                            }
                                        ],
                                        "depth": 1,
                                        "name": "exactInputSingle",
                                        "value": 56982
                                    },
                                    {
                                        "children": [
                                            {
                                                "children": [],
                                                "depth": 2,
                                                "name": "getReserves",
                                                "value": 504
                                            },
                                            {
                                                "children": [],
                                                "depth": 2,
                                                "name": "transferFrom",
                                                "value": 6225
                                            },
                                            {
                                                "children": [
                                                    {
                                                        "children": [
                                                            {
                                                                "children": [],
                                                                "depth": 4,
                                                                "name": "transfer",
                                                                "value": 9419
                                                            }
                                                        ],
                                                        "depth": 3,
                                                        "name": "transfer",
                                                        "value": 9820
                                                    },
                                                    {
                                                        "children": [
                                                            {
                                                                "children": [],
                                                                "depth": 4,
                                                                "name": "balanceOf",
                                                                "value": 953
                                                            }
                                                        ],
                                                        "depth": 3,
                                                        "name": "balanceOf",
                                                        "value": 1351
                                                    },
                                                    {
                                                        "children": [],
                                                        "depth": 3,
                                                        "name": "balanceOf",
                                                        "value": 534
                                                    }
                                                ],
                                                "depth": 2,
                                                "name": "swap",
                                                "value": 33028
                                            }
                                        ],
                                        "depth": 1,
                                        "name": "swapTokensForExactTokens",
                                        "value": 47584
                                    },
                                    {
                                        "children": [
                                            {
                                                "children": [],
                                                "depth": 2,
                                                "name": "transfer",
                                                "value": 6619
                                            }
                                        ],
                                        "depth": 1,
                                        "name": "transfer",
                                        "value": 7020
                                    }
                                ],
                                "depth": 0,
                                "name": "Executed Gas",
                                "value": 180633
                            }
                        ],
                        "depth": -1,
                        "name": "Actual Gas Used",
                        "value": 307037
                    },
                    {
                        "children": [],
                        "depth": -1,
                        "name": "Refunded Gas",
                        "value": 5600
                    }
                ],
                "depth": -2,
                "name": "Total Gas",
                "value": 312637
            }
        ],
        "isConfirmed": true,
        "mainTrace": [
            {
                "children": [
                    {
                        "children": [
                            {
                                "children": [
                                    {
                                        "children": [],
                                        "depth": 2,
                                        "id": 2,
                                        "order": 2
                                    }
                                ],
                                "depth": 1,
                                "id": 1,
                                "order": 1
                            },
                            {
                                "children": [],
                                "depth": 1,
                                "id": 3,
                                "order": 3
                            },
                            {
                                "children": [],
                                "depth": 1,
                                "id": 4,
                                "order": 4
                            },
                            {
                                "children": [
                                    {
                                        "children": [
                                            {
                                                "children": [
                                                    {
                                                        "children": [],
                                                        "depth": 4,
                                                        "id": 8,
                                                        "order": 8
                                                    }
                                                ],
                                                "depth": 3,
                                                "id": 7,
                                                "order": 7
                                            }
                                        ],
                                        "depth": 2,
                                        "id": 6,
                                        "order": 6
                                    }
                                ],
                                "depth": 1,
                                "id": 5,
                                "order": 5
                            },
                            {
                                "children": [
                                    {
                                        "children": [
                                            {
                                                "children": [
                                                    {
                                                        "children": [],
                                                        "depth": 4,
                                                        "id": 12,
                                                        "order": 12
                                                    }
                                                ],
                                                "depth": 3,
                                                "id": 11,
                                                "order": 11
                                            },
                                            {
                                                "children": [
                                                    {
                                                        "children": [],
                                                        "depth": 4,
                                                        "id": 14,
                                                        "order": 14
                                                    }
                                                ],
                                                "depth": 3,
                                                "id": 13,
                                                "order": 13
                                            },
                                            {
                                                "children": [
                                                    {
                                                        "children": [
                                                            {
                                                                "children": [
                                                                    {
                                                                        "children": [],
                                                                        "depth": 6,
                                                                        "id": 18,
                                                                        "order": 18
                                                                    }
                                                                ],
                                                                "depth": 5,
                                                                "id": 17,
                                                                "order": 17
                                                            }
                                                        ],
                                                        "depth": 4,
                                                        "id": 16,
                                                        "order": 16
                                                    }
                                                ],
                                                "depth": 3,
                                                "id": 15,
                                                "order": 15
                                            },
                                            {
                                                "children": [
                                                    {
                                                        "children": [],
                                                        "depth": 4,
                                                        "id": 20,
                                                        "order": 20
                                                    }
                                                ],
                                                "depth": 3,
                                                "id": 19,
                                                "order": 19
                                            },
                                            {
                                                "children": [],
                                                "depth": 3,
                                                "id": 21,
                                                "order": 21
                                            }
                                        ],
                                        "depth": 2,
                                        "id": 10,
                                        "order": 10
                                    }
                                ],
                                "depth": 1,
                                "id": 9,
                                "order": 9
                            },
                            {
                                "children": [],
                                "depth": 1,
                                "id": 22,
                                "order": 22
                            },
                            {
                                "children": [
                                    {
                                        "children": [],
                                        "depth": 2,
                                        "id": 24,
                                        "order": 24
                                    },
                                    {
                                        "children": [
                                            {
                                                "children": [],
                                                "depth": 3,
                                                "id": 26,
                                                "order": 26
                                            }
                                        ],
                                        "depth": 2,
                                        "id": 25,
                                        "order": 25
                                    },
                                    {
                                        "children": [
                                            {
                                                "children": [
                                                    {
                                                        "children": [
                                                            {
                                                                "children": [],
                                                                "depth": 5,
                                                                "id": 30,
                                                                "order": 30
                                                            }
                                                        ],
                                                        "depth": 4,
                                                        "id": 29,
                                                        "order": 29
                                                    }
                                                ],
                                                "depth": 3,
                                                "id": 28,
                                                "order": 28
                                            },
                                            {
                                                "children": [
                                                    {
                                                        "children": [],
                                                        "depth": 4,
                                                        "id": 32,
                                                        "order": 32
                                                    }
                                                ],
                                                "depth": 3,
                                                "id": 31,
                                                "order": 31
                                            },
                                            {
                                                "children": [],
                                                "depth": 3,
                                                "id": 33,
                                                "order": 33
                                            },
                                            {
                                                "children": [],
                                                "depth": 3,
                                                "id": 34,
                                                "order": 34
                                            },
                                            {
                                                "children": [],
                                                "depth": 3,
                                                "id": 35,
                                                "order": 35
                                            }
                                        ],
                                        "depth": 2,
                                        "id": 27,
                                        "order": 27
                                    }
                                ],
                                "depth": 1,
                                "id": 23,
                                "order": 23
                            },
                            {
                                "children": [],
                                "depth": 1,
                                "id": 36,
                                "order": 36
                            },
                            {
                                "children": [
                                    {
                                        "children": [
                                            {
                                                "children": [],
                                                "depth": 3,
                                                "id": 39,
                                                "order": 39
                                            }
                                        ],
                                        "depth": 2,
                                        "id": 38,
                                        "order": 38
                                    }
                                ],
                                "depth": 1,
                                "id": 37,
                                "order": 37
                            },
                            {
                                "children": [],
                                "depth": 1,
                                "id": 40,
                                "order": 40
                            }
                        ],
                        "depth": 0,
                        "id": 0,
                        "order": 0
                    }
                ],
                "depth": -1,
                "id": -1,
                "order": -1
            }
        ],
        "mainTraceNodeCount": 41,
        "parentIdMap": {
            "0": -1,
            "1": 0,
            "10": 9,
            "11": 10,
            "12": 11,
            "13": 10,
            "14": 13,
            "15": 10,
            "16": 15,
            "17": 16,
            "18": 17,
            "19": 10,
            "2": 1,
            "20": 19,
            "21": 10,
            "22": 0,
            "23": 0,
            "24": 23,
            "25": 23,
            "26": 25,
            "27": 23,
            "28": 27,
            "29": 28,
            "3": 0,
            "30": 29,
            "31": 27,
            "32": 31,
            "33": 27,
            "34": 27,
            "35": 27,
            "36": 0,
            "37": 0,
            "38": 37,
            "39": 38,
            "4": 0,
            "40": 0,
            "5": 0,
            "6": 5,
            "7": 6,
            "8": 7,
            "9": 0
        },
        "tidyTrace": [
            {
                "children": [
                    {
                        "children": [
                            {
                                "children": [],
                                "depth": 1,
                                "id": 4,
                                "order": 4
                            },
                            {
                                "children": [
                                    {
                                        "children": [
                                            {
                                                "children": [
                                                    {
                                                        "children": [],
                                                        "depth": 4,
                                                        "id": 8,
                                                        "order": 8
                                                    }
                                                ],
                                                "depth": 3,
                                                "id": 7,
                                                "order": 7
                                            }
                                        ],
                                        "depth": 2,
                                        "id": 6,
                                        "order": 6
                                    }
                                ],
                                "depth": 1,
                                "id": 5,
                                "order": 5
                            },
                            {
                                "children": [
                                    {
                                        "children": [
                                            {
                                                "children": [
                                                    {
                                                        "children": [],
                                                        "depth": 4,
                                                        "id": 12,
                                                        "order": 12
                                                    }
                                                ],
                                                "depth": 3,
                                                "id": 11,
                                                "order": 11
                                            },
                                            {
                                                "children": [
                                                    {
                                                        "children": [
                                                            {
                                                                "children": [
                                                                    {
                                                                        "children": [],
                                                                        "depth": 6,
                                                                        "id": 18,
                                                                        "order": 18
                                                                    }
                                                                ],
                                                                "depth": 5,
                                                                "id": 17,
                                                                "order": 17
                                                            }
                                                        ],
                                                        "depth": 4,
                                                        "id": 16,
                                                        "order": 16
                                                    }
                                                ],
                                                "depth": 3,
                                                "id": 15,
                                                "order": 15
                                            },
                                            {
                                                "children": [],
                                                "depth": 3,
                                                "id": 21,
                                                "order": 21
                                            }
                                        ],
                                        "depth": 2,
                                        "id": 10,
                                        "order": 10
                                    }
                                ],
                                "depth": 1,
                                "id": 9,
                                "order": 9
                            },
                            {
                                "children": [],
                                "depth": 1,
                                "id": 22,
                                "order": 22
                            },
                            {
                                "children": [
                                    {
                                        "children": [
                                            {
                                                "children": [],
                                                "depth": 3,
                                                "id": 26,
                                                "order": 26
                                            }
                                        ],
                                        "depth": 2,
                                        "id": 25,
                                        "order": 25
                                    },
                                    {
                                        "children": [
                                            {
                                                "children": [
                                                    {
                                                        "children": [
                                                            {
                                                                "children": [],
                                                                "depth": 5,
                                                                "id": 30,
                                                                "order": 30
                                                            }
                                                        ],
                                                        "depth": 4,
                                                        "id": 29,
                                                        "order": 29
                                                    }
                                                ],
                                                "depth": 3,
                                                "id": 28,
                                                "order": 28
                                            },
                                            {
                                                "children": [],
                                                "depth": 3,
                                                "id": 34,
                                                "order": 34
                                            },
                                            {
                                                "children": [],
                                                "depth": 3,
                                                "id": 35,
                                                "order": 35
                                            }
                                        ],
                                        "depth": 2,
                                        "id": 27,
                                        "order": 27
                                    }
                                ],
                                "depth": 1,
                                "id": 23,
                                "order": 23
                            },
                            {
                                "children": [],
                                "depth": 1,
                                "id": 36,
                                "order": 36
                            },
                            {
                                "children": [
                                    {
                                        "children": [
                                            {
                                                "children": [],
                                                "depth": 3,
                                                "id": 39,
                                                "order": 39
                                            }
                                        ],
                                        "depth": 2,
                                        "id": 38,
                                        "order": 38
                                    }
                                ],
                                "depth": 1,
                                "id": 37,
                                "order": 37
                            },
                            {
                                "children": [],
                                "depth": 1,
                                "id": 40,
                                "order": 40
                            }
                        ],
                        "depth": 0,
                        "id": 0,
                        "order": 0
                    }
                ],
                "depth": -1,
                "id": -1,
                "order": -1
            }
        ],
        "tidyTraceNodeCount": 30
    },
    "state_change": {
        "stateChanges": [
            {
                "address": "0x12ef10a4fc6e1ea44b4ca9508760ff51c647bb71",
                "erc": "ERC-20",
                "slots": [
                    {
                        "current": "0x00000000000000000000000000000000000000000000be834a722c36b9eee134",
                        "key": "0x828e23f64af541991cf4d85d0a2c603ca79bde97dac26e0651e7ee4821a7b231",
                        "prev": "0x00000000000000000000000000000000000000000000bf55e3e593becfa7af0c"
                    },
                    {
                        "current": "0x0000000000000000000000000000000000000000000000101fc631c1d16da199",
                        "key": "0xa6708260bf3d0bd3bf8998ef6cc430767f7b80b6451d527f66c4c45dfde48211",
                        "prev": "0x0000000000000000000000000000000000000000000000101fc631d97fcf5690"
                    },
                    {
                        "current": "0x0000000000000000000000000000000000000000000004b1dac31fbd29aafdd0",
                        "key": "0xf46d2f5c6e856d264ccac038ddd0ab84fad4a5c02a0659a34b67bd900bed7974",
                        "prev": "0x0000000000000000000000000000000000000000000003df414fb81d65907b01"
                    }
                ],
                "storageVariables": []
            },
            {
                "address": "0x88e6a0c2ddd26feeb64f039a2c41296fcb3f5640",
                "erc": "",
                "slots": [
                    {
                        "current": "0x00010002d202d201360308f30000000000005164cdcc2d764490cde9e00a2d01",
                        "key": "0x0000000000000000000000000000000000000000000000000000000000000000",
                        "prev": "0x00010002d202d201360308f30000000000005164e7ffed13438b48c52f4d654e"
                    },
                    {
                        "current": "0x0000000000000000000000000000000000007d70321a85fe2852e017a80e2b36",
                        "key": "0x0000000000000000000000000000000000000000000000000000000000000001",
                        "prev": "0x0000000000000000000000000000000000007d7031f95453be25966760166268"
                    }
                ],
                "storageVariables": []
            },
            {
                "address": "0x8c894d91748a42fc68f681090db06720779a7347",
                "erc": "ERC-20",
                "slots": [
                    {
                        "current": "0x00000000000000000000000000000000013895b7fe474948e5665f977f7fb048",
                        "key": "0x0000000000000000000000000000000000000000000000000000000000000009",
                        "prev": "0x00000000000000000000000000000000013891ec729b1f75787b67e967ac06a0"
                    },
                    {
                        "current": "0x0000000000000000000000000000bc476d88402698bb11cbb8e6ab7cb6265d30",
                        "key": "0x000000000000000000000000000000000000000000000000000000000000000a",
                        "prev": "0x0000000000000000000000000000bc46180a0c42be62d1597bfe5f0ce6a3ec34"
                    },
                    {
                        "current": "0x65919fcb000000000014420203816ba4386c00000000be834a722c36b9eee134",
                        "key": "0x0000000000000000000000000000000000000000000000000000000000000008",
                        "prev": "0x65919fa70000000000142ba4c518cdcd8de800000000bf55e3e593becfa7af0c"
                    }
                ],
                "storageVariables": [
                    {
                        "name": "price0CumulativeLast",
                        "type": "uint256",
                        "value": {
                            "current": "1623033276342922734631576118981800008",
                            "prev": "1622956302570572260681937181100213920",
                            "typeTag": 1
                        }
                    },
                    {
                        "name": "price1CumulativeLast",
                        "type": "uint256",
                        "value": {
                            "current": "16401415396527358469721805005848994694716720",
                            "prev": "16400961474498936380921938464661567785135156",
                            "typeTag": 1
                        }
                    },
                    {
                        "name": "reserve0",
                        "type": "uint112",
                        "value": {
                            "current": "899671519617608252842292",
                            "prev": "903556393168431561027340",
                            "typeTag": 1
                        }
                    },
                    {
                        "name": "reserve1",
                        "type": "uint112",
                        "value": {
                            "current": "373691249485039286380",
                            "prev": "372079736624325168616",
                            "typeTag": 1
                        }
                    },
                    {
                        "name": "blockTimestampLast",
                        "type": "uint32",
                        "value": {
                            "current": "1704042443",
                            "prev": "1704042407",
                            "typeTag": 1
                        }
                    }
                ]
            },
            {
                "address": "0x9008d19f58aabd9ed0d60971565aa8510560ab41",
                "erc": "",
                "slots": [
                    {
                        "current": "0x00000000000000000000000000000000000000000000000000000000de19c1ed",
                        "key": "0x934743c667a0ed375ec98c7c6b1b8a4a7883195499e82cecd468eaef30fabe29",
                        "prev": "0x0000000000000000000000000000000000000000000000000000000000000000"
                    }
                ],
                "storageVariables": [
                    {
                        "name": "filledAmount",
                        "type": "mapping(bytes => uint256)",
                        "value": {
                            "pairs": [
                                {
                                    "key": "0xf06fff1a15a66538e325761e91bd4fb99ee87b7d05602744ef036e1406b0eada699f324560e9236afcfcedbbfb9c4afa8fa9b0426597dd73",
                                    "value": {
                                        "current": "3726229997",
                                        "prev": "0",
                                        "typeTag": 1
                                    }
                                }
                            ],
                            "typeTag": 4
                        }
                    }
                ]
            },
            {
                "address": "0xa0b86991c6218b36c1d19d4a2e9eb0ce3606eb48",
                "erc": "ERC-20",
                "slots": [
                    {
                        "current": "0x00000000000000000000000000000000000000000000000000000003208fc0f4",
                        "key": "0x7fc09673a3fdcc0c0f79c93dea8c49a6cbcce403d55c9ecbcc0a320848c98703",
                        "prev": "0x00000000000000000000000000000000000000000000000000000003fea982e1"
                    },
                    {
                        "current": "0x000000000000000000000000000000000000000000000000000000000d2c0b58",
                        "key": "0xcc236083e86ee3df0f3160002f381f1404bd44c4dec1322196f34d52548202f5",
                        "prev": "0x000000000000000000000000000000000000000000000000000000000c6a6ad4"
                    },
                    {
                        "current": "0x00000000000000000000000000000000000000000000000000005f313e1ff20c",
                        "key": "0x1f21a62c4538bacf2aabeca410f0fe63151869f172e03c0e00357ba26a341eff",
                        "prev": "0x00000000000000000000000000000000000000000000000000005f3060c7d0a3"
                    },
                    {
                        "current": "0xfffffffffffffffffffffffffffffffffffffffffffffffffffec7774bdae4e0",
                        "key": "0x71d15330deb28b8c0482ee6e15037e978bffcb288d4556257a4ce45ec3387e41",
                        "prev": "0xfffffffffffffffffffffffffffffffffffffffffffffffffffec77829330649"
                    },
                    {
                        "current": "0xffffffffffffffffffffffffffffffffffffffffffffffffffffffba7ccd227a",
                        "key": "0xb0091d422973a6dd8fabce7ae4dc4759f4bb756daf9738c7f71c70541c860131",
                        "prev": "0xffffffffffffffffffffffffffffffffffffffffffffffffffffffbb5ae6e467"
                    }
                ],
                "storageVariables": [
                    {
                        "name": "allowed",
                        "type": "mapping(address => mapping(address => uint256))",
                        "value": {
                            "pairs": [
                                {
                                    "key": "0x699f324560e9236afcfcedbbfb9c4afa8fa9b042",
                                    "value": {
                                        "pairs": [
                                            {
                                                "key": "0xc92e8bdf79f0507f65a392b0ab4667716bfe0110",
                                                "value": {
                                                    "current": "115792089237316195423570985008687907853269984665640564039457584007614575747706",
                                                    "prev": "115792089237316195423570985008687907853269984665640564039457584007618301977703",
                                                    "typeTag": 1
                                                }
                                            }
                                        ],
                                        "typeTag": 4
                                    }
                                },
                                {
                                    "key": "0x9008d19f58aabd9ed0d60971565aa8510560ab41",
                                    "value": {
                                        "pairs": [
                                            {
                                                "key": "0xe592427a0aece92de3edee1f18e0157c05861564",
                                                "value": {
                                                    "current": "115792089237316195423570985008687907853269984665640564039457583664278363890912",
                                                    "prev": "115792089237316195423570985008687907853269984665640564039457583664282077431369",
                                                    "typeTag": 1
                                                }
                                            }
                                        ],
                                        "typeTag": 4
                                    }
                                }
                            ],
                            "typeTag": 4
                        }
                    },
                    {
                        "name": "balances",
                        "type": "mapping(address => uint256)",
                        "value": {
                            "pairs": [
                                {
                                    "key": "0x699f324560e9236afcfcedbbfb9c4afa8fa9b042",
                                    "value": {
                                        "current": "13431193844",
                                        "prev": "17157423841",
                                        "typeTag": 1
                                    }
                                },
                                {
                                    "key": "0x88e6a0c2ddd26feeb64f039a2c41296fcb3f5640",
                                    "value": {
                                        "current": "104665100317196",
                                        "prev": "104661386776739",
                                        "typeTag": 1
                                    }
                                },
                                {
                                    "key": "0x9008d19f58aabd9ed0d60971565aa8510560ab41",
                                    "value": {
                                        "current": "220990296",
                                        "prev": "208300756",
                                        "typeTag": 1
                                    }
                                }
                            ],
                            "typeTag": 4
                        }
                    }
                ]
            },
            {
                "address": "0xc02aaa39b223fe8d0a0e5c4f27ead9083c756cc2",
                "erc": "ERC-20",
                "slots": [
                    {
                        "current": "0x00000000000000000000000000000000000000000000032bfcb3f848206d6bfb",
                        "key": "0x390f6178407c9b8e95802b8659e6df8e34c1e3d4f8d6a49e6132bbcdd937b63a",
                        "prev": "0x00000000000000000000000000000000000000000000032c13113bd5c8e018a7"
                    },
                    {
                        "current": "0x0000000000000000000000000000000000000000000000000729b61f81f35baf",
                        "key": "0x9d98752c354deebddd53535455198eacf8cfb934237d3523207f70386be5e3dc",
                        "prev": "0x0000000000000000000000000000000000000000000000000729b0fa77575987"
                    },
                    {
                        "current": "0x000000000000000000000000000000000000000000000014420203816ba4386c",
                        "key": "0x87d452270eb1ec0ed11ed1f2056705b4de5540af78415f5abbc377aa33da56b1",
                        "prev": "0x0000000000000000000000000000000000000000000000142ba4c518cdcd8de8"
                    }
                ],
                "storageVariables": [
                    {
                        "name": "balanceOf",
                        "type": "mapping(address => uint256)",
                        "value": {
                            "pairs": [
                                {
                                    "key": "0x88e6a0c2ddd26feeb64f039a2c41296fcb3f5640",
                                    "value": {
                                        "current": "14978518614485500783611",
                                        "prev": "14980130133002864826535",
                                        "typeTag": 1
                                    }
                                },
                                {
                                    "key": "0x8c894d91748a42fc68f681090db06720779a7347",
                                    "value": {
                                        "current": "373691249485039286380",
                                        "prev": "372079736624325168616",
                                        "typeTag": 1
                                    }
                                },
                                {
                                    "key": "0x9008d19f58aabd9ed0d60971565aa8510560ab41",
                                    "value": {
                                        "current": "516143878751083439",
                                        "prev": "516138222101158279",
                                        "typeTag": 1
                                    }
                                }
                            ],
                            "typeTag": 4
                        }
                    }
                ]
            }
        ]
    }
}