{
    "balance_change": {
        "balanceChanges": [
            {
                "account": "0xe7058843f07684ec7a785880f338301d6aa68d60",
                "assets": [
                    {
                        "address": "0x8daebade922df735c38c80c7ebd708af50815faa",
                        "amount": "0.130817784173494993",
                        "iconUrl": "",
                        "isERC1155": false,
                        "isERC721": false,
                        "sign": false,
                        "value": "1495.819821"
                    },
                    {
                        "address": "0xe1406825186d63980fd6e2ec61888f7b91c4bae4",
                        "amount": "0.150026233172113703",
                        "iconUrl": "",
                        "isERC1155": false,
                        "isERC721": false,
                        "sign": false,
                        "value": "1009.680707"
                    },
                    {
                        "address": "0xbcedc25cbb0ea44e03e41dc2d00d54fe6d4646db",
                        "amount": "0.140059069810457417",
                        "iconUrl": "",
                        "isERC1155": false,
                        "isERC721": false,
                        "sign": true,
                        "value": "2505.500528"
                    }
                ]
            },
            {
                "account": "0x0000000000000000000000000000000000000000",
                "assets": [
                    {
                        "address": "0xbcedc25cbb0ea44e03e41dc2d00d54fe6d4646db",
                        "amount": "0.140059069810457417",
                        "iconUrl": "",
                        "isERC1155": false,
                        "isERC721": false,
                        "sign": false,
                        "value": "2505.500528"
                    }
                ]
            },
            {
                "account": "0xbcedc25cbb0ea44e03e41dc2d00d54fe6d4646db",
                "assets": [
                    {
                        "address": "0x8daebade922df735c38c80c7ebd708af50815faa",
                        "amount": "0.130817784173494993",
                        "iconUrl": "",
                        "isERC1155": false,
                        "isERC721": false,
                        "sign": true,
                        "value": "1495.819821"
                    },
                    {
                        "address": "0xe1406825186d63980fd6e2ec61888f7b91c4bae4",
                        "amount": "0.150026233172113703",
                        "iconUrl": "",
                        "isERC1155": false,
                        "isERC721": false,
                        "sign": true,
                        "value": "1009.680707"
                    }
                ]
            }
        ]
    },
    "profile": {
        "basic_info": {
            "baseFee": "",
            "blockNumber": 11073816,
            "callData": "0xe8e337000000000000000000000000008daebade922df735c38c80c7ebd708af50815faa000000000000000000000000e1406825186d63980fd6e2ec61888f7b91c4bae400000000000000000000000000000000000000000000000001d0c214e3f702d1000000000000000000000000000000000000000000000000021500106f36b92800000000000000000000000000000000000000000000000001ce6f30f22f603e000000000000000000000000000000000000000000000000021255d2e989a64f000000000000000000000000e7058843f07684ec7a785880f338301d6aa68d60000000000000000000000000000000000000000000000000000000005f8afa21",
            "debugEnable": true,
            "errorInfo": "",
            "eventCount": 7,
            "feeRecipient": "0xea674fdde714fd979de3edf0f56aa9716b898ec8",
            "formatValue": "0",
            "gasLimit": 201279,
            "gasPrice": "25.000001459",
            "gasUsed": 176030,
            "intTxnCount": 10,
            "internalRevert": false,
            "internalRevertMessage": "",
            "isContractCreation": false,
            "isFlashloan": false,
            "maxFee": "",
            "nonce": 29,
            "overwritedBlockNumber": -1,
            "priorityFee": "",
            "receiver": "0xd9e1ce17f2641f24ae83637ab66a2cca9c378b9f",
            "revertMessage": "",
            "sender": "0xe7058843f07684ec7a785880f338301d6aa68d60",
            "simulationEnable": true,
            "sourceTxnHash": "0x885c7cd9c5d44df1316563af7d74073f1ca25e6a6f6caaa5366e384ca0bd5172",
            "status": true,
            "timestamp": "2020-10-17T13:45:49Z",
            "transactionFee": "0.00440075025682777",
            "txnHash": "0x885c7cd9c5d44df1316563af7d74073f1ca25e6a6f6caaa5366e384ca0bd5172",
            "txnIndex": 193,
            "type": 0,
            "value": "0"
        },
        "fund_flow": [
            {
                "amount": "0.130817784173494993",
                "from": "0xe7058843f07684ec7a785880f338301d6aa68d60",
                "id": 1,
                "isERC1155": false,
                "isERC721": false,
                "isReverted": false,
                "order": 1,
                "to": "0xbcedc25cbb0ea44e03e41dc2d00d54fe6d4646db",
                "token": "0x8daebade922df735c38c80c7ebd708af50815faa"
            },
            {
                "amount": "0.150026233172113703",
                "from": "0xe7058843f07684ec7a785880f338301d6aa68d60",
                "id": 2,
                "isERC1155": false,
                "isERC721": false,
                "isReverted": false,
                "order": 2,
                "to": "0xbcedc25cbb0ea44e03e41dc2d00d54fe6d4646db",
                "token": "0xe1406825186d63980fd6e2ec61888f7b91c4bae4"
            },
            {
                "amount": "0.140059069810457417",
                "from": "0x0000000000000000000000000000000000000000",
                "id": 3,
                "isERC1155": false,
                "isERC721": false,
                "isReverted": false,
                "order": 3,
                "to": "0xe7058843f07684ec7a785880f338301d6aa68d60",
                "token": "0xbcedc25cbb0ea44e03e41dc2d00d54fe6d4646db"
            }
        ],
        "token_infos": [
            {
                "address": "0x8daebade922df735c38c80c7ebd708af50815faa",
                "decimals": 18
            },
            {
                "address": "0xbcedc25cbb0ea44e03e41dc2d00d54fe6d4646db",
                "decimals": 18
            },
            {
                "address": "0xc02aaa39b223fe8d0a0e5c4f27ead9083c756cc2",
                "decimals": 18
            },
            {
                "address": "0xe1406825186d63980fd6e2ec61888f7b91c4bae4",
                "decimals": 18
            },
            {
                "address": "0xeeeeeeeeeeeeeeeeeeeeeeeeeeeeeeeeeeeeeeee",
                "decimals": 18
            }
        ]
    },
    "address_label": {
        "labels": [
            {
                "address": "0xeeeeeeeeeeeeeeeeeeeeeeeeeeeeeeeeeeeeeeee",
                "label": "Ether"
            },
            {
                "address": "0xd9e1ce17f2641f24ae83637ab66a2cca9c378b9f",
                "label": "SushiSwap: Router"
            },
            {
                "address": "0x8daebade922df735c38c80c7ebd708af50815faa",
                "label": "tBTC: TBTC Token"
            },
            {
                "address": "0xc0aee478e3658e2610c5f7a4a2e1777ce9e4f2ac",
                "label": "SushiSwap: SushiV2Factory"
            },
            {
                "address": "0xe1406825186d63980fd6e2ec61888f7b91c4bae4",
                "label": "Strudel Finance: VBTC Token"
            },
            {
                "address": "0x7596a7e07f423a722c6a252246ef56dc81a4737f",
                "label": "VbtcToken"
            },
            {
                "address": "0x0000000000000000000000000000000000000002",
                "label": "Precompiled"
            },
            {
                "address": "0xbcedc25cbb0ea44e03e41dc2d00d54fe6d4646db",
                "label": "SushiSwap: TBTC-VBTC"
            },
            {
                "address": "0x0000000000000000000000000000000000000001",
                "label": "Precompiled"
            },
            {
                "address": "0x0000000000000000000000000000000000000003",
                "label": "Precompiled"
            },
            {
                "address": "0x0000000000000000000000000000000000000004",
                "label": "Precompiled"
            }
        ]
    },
    "trace": {
        "accountLabels": null,
        "dataMap": {
            "-1": {
                "invocation": {
                    "address": "0xe7058843f07684ec7a785880f338301d6aa68d60",
                    "callData": "",
                    "decodedMethod": null,
                    "errorInfo": "",
                    "fromAddress": "",
                    "gasUsed": 0,
                    "id": -1,
                    "methodDecoded": false,
                    "operation": "",
                    "output": "",
                    "revert": false,
                    "revertMessage": "",
                    "selector": "",
                    "status": false,
                    "value": ""
                },
                "nodeType": 0
            },
            "0": {
                "invocation": {
                    "address": "0xd9e1ce17f2641f24ae83637ab66a2cca9c378b9f",
                    "callData": "0x0000000000000000000000008daebade922df735c38c80c7ebd708af50815faa000000000000000000000000e1406825186d63980fd6e2ec61888f7b91c4bae400000000000000000000000000000000000000000000000001d0c214e3f702d1000000000000000000000000000000000000000000000000021500106f36b92800000000000000000000000000000000000000000000000001ce6f30f22f603e000000000000000000000000000000000000000000000000021255d2e989a64f000000000000000000000000e7058843f07684ec7a785880f338301d6aa68d60000000000000000000000000000000000000000000000000000000005f8afa21",
                    "decodedMethod": {
                        "callParams": [
                            {
                                "name": "tokenA",
                                "type": "address",
                                "value": "0x8daebade922df735c38c80c7ebd708af50815faa"
                            },
                            {
                                "name": "tokenB",
                                "type": "address",
                                "value": "0xe1406825186d63980fd6e2ec61888f7b91c4bae4"
                            },
                            {
                                "name": "amountADesired",
                                "type": "uint256",
                                "value": "130,817,784,173,494,993"
                            },
                            {
                                "name": "amountBDesired",
                                "type": "uint256",
                                "value": "150,026,233,172,113,704"
                            },
                            {
                                "name": "amountAMin",
                                "type": "uint256",
                                "value": "130,163,695,252,627,518"
                            },
                            {
                                "name": "amountBMin",
                                "type": "uint256",
                                "value": "149,276,102,006,253,135"
                            },
                            {
                                "name": "to",
                                "type": "address",
                                "value": "0xe7058843f07684ec7a785880f338301d6aa68d60"
                            },
                            {
                                "name": "deadline",
                                "type": "uint256",
                                "value": "1,602,943,521"
                            }
                        ],
                        "constructorArguments": "",
                        "name": "addLiquidity",
                        "returnParams": [
                            {
                                "name": "amountA",
                                "type": "uint256",
                                "value": "130,817,784,173,494,993"
                            },
                            {
                                "name": "amountB",
                                "type": "uint256",
                                "value": "150,026,233,172,113,703"
                            },
                            {
                                "name": "liquidity",
                                "type": "uint256",
                                "value": "140,059,069,810,457,417"
                            }
                        ],
                        "signature": "addLiquidity(address,address,uint256,uint256,uint256,uint256,address,uint256)"
                    },
                    "errorInfo": "",
                    "fromAddress": "0xe7058843f07684ec7a785880f338301d6aa68d60",
                    "gasUsed": 176030,
                    "id": 0,
                    "methodDecoded": true,
                    "operation": "CALL",
                    "output": "0x00000000000000000000000000000000000000000000000001d0c214e3f702d1000000000000000000000000000000000000000000000000021500106f36b92700000000000000000000000000000000000000000000000001f196fb5f9fbb49",
                    "revert": false,
                    "revertMessage": "",
                    "selector": "0xe8e33700",
                    "status": true,
                    "value": "0"
                },
                "nodeType": 0
            },
            "1": {
                "invocation": {
                    "address": "0xc0aee478e3658e2610c5f7a4a2e1777ce9e4f2ac",
                    "callData": "0x0000000000000000000000008daebade922df735c38c80c7ebd708af50815faa000000000000000000000000e1406825186d63980fd6e2ec61888f7b91c4bae4",
                    "decodedMethod": {
                        "callParams": [
                            {
                                "name": "",
                                "type": "address",
                                "value": "0x8daebade922df735c38c80c7ebd708af50815faa"
                            },
                            {
                                "name": "",
                                "type": "address",
                                "value": "0xe1406825186d63980fd6e2ec61888f7b91c4bae4"
                            }
                        ],
                        "constructorArguments": "",
                        "name": "getPair",
                        "returnParams": [
                            {
                                "name": "",
                                "type": "address",
                                "value": "0xbcedc25cbb0ea44e03e41dc2d00d54fe6d4646db"
                            }
                        ],
                        "signature": "getPair(address,address)"
                    },
                    "errorInfo": "",
                    "fromAddress": "0xd9e1ce17f2641f24ae83637ab66a2cca9c378b9f",
                    "gasUsed": 1344,
                    "id": 1,
                    "methodDecoded": true,
                    "operation": "STATICCALL",
                    "output": "0x000000000000000000000000bcedc25cbb0ea44e03e41dc2d00d54fe6d4646db",
                    "revert": false,
                    "revertMessage": "",
                    "selector": "0xe6a43905",
                    "status": true,
                    "value": "0"
                },
                "nodeType": 0
            },
            "10": {
                "invocation": {
                    "address": "0xbcedc25cbb0ea44e03e41dc2d00d54fe6d4646db",
                    "callData": "0x000000000000000000000000e7058843f07684ec7a785880f338301d6aa68d60",
                    "decodedMethod": {
                        "callParams": [
                            {
                                "name": "to",
                                "type": "address",
                                "value": "0xe7058843f07684ec7a785880f338301d6aa68d60"
                            }
                        ],
                        "constructorArguments": "",
                        "name": "mint",
                        "returnParams": [
                            {
                                "name": "liquidity",
                                "type": "uint256",
                                "value": "140,059,069,810,457,417"
                            }
                        ],
                        "signature": "mint(address)"
                    },
                    "errorInfo": "",
                    "fromAddress": "0xd9e1ce17f2641f24ae83637ab66a2cca9c378b9f",
                    "gasUsed": 94875,
                    "id": 10,
                    "methodDecoded": true,
                    "operation": "CALL",
                    "output": "0x00000000000000000000000000000000000000000000000001f196fb5f9fbb49",
                    "revert": false,
                    "revertMessage": "",
                    "selector": "0x6a627842",
                    "status": true,
                    "value": "0"
                },
                "nodeType": 0
            },
            "11": {
                "invocation": {
                    "address": "0x8daebade922df735c38c80c7ebd708af50815faa",
                    "callData": "0x000000000000000000000000bcedc25cbb0ea44e03e41dc2d00d54fe6d4646db",
                    "decodedMethod": {
                        "callParams": [
                            {
                                "name": "account",
                                "type": "address",
                                "value": "0xbcedc25cbb0ea44e03e41dc2d00d54fe6d4646db"
                            }
                        ],
                        "constructorArguments": "",
                        "name": "balanceOf",
                        "returnParams": [
                            {
                                "decimalAvailable": true,
                                "name": "",
                                "type": "uint256",
                                "value": "322,347,728,435,995,564"
                            }
                        ],
                        "signature": "balanceOf(address)"
                    },
                    "errorInfo": "",
                    "fromAddress": "0xbcedc25cbb0ea44e03e41dc2d00d54fe6d4646db",
                    "gasUsed": 1187,
                    "id": 11,
                    "methodDecoded": true,
                    "operation": "STATICCALL",
                    "output": "0x0000000000000000000000000000000000000000000000000479358d1794e3ac",
                    "revert": false,
                    "revertMessage": "",
                    "selector": "0x70a08231",
                    "status": true,
                    "value": "0"
                },
                "nodeType": 0
            },
            "12": {
                "invocation": {
                    "address": "0xe1406825186d63980fd6e2ec61888f7b91c4bae4",
                    "callData": "0x000000000000000000000000bcedc25cbb0ea44e03e41dc2d00d54fe6d4646db",
                    "decodedMethod": {
                        "callParams": [
                            {
                                "name": "account",
                                "type": "address",
                                "value": "0xbcedc25cbb0ea44e03e41dc2d00d54fe6d4646db"
                            }
                        ],
                        "constructorArguments": "",
                        "name": "balanceOf",
                        "returnParams": [
                            {
                                "decimalAvailable": true,
                                "name": "",
                                "type": "uint256",
                                "value": "369,679,212,764,392,683"
                            }
                        ],
                        "signature": "balanceOf(address)"
                    },
                    "errorInfo": "",
                    "fromAddress": "0xbcedc25cbb0ea44e03e41dc2d00d54fe6d4646db",
                    "gasUsed": 4016,
                    "id": 12,
                    "methodDecoded": true,
                    "operation": "STATICCALL",
                    "output": "0x00000000000000000000000000000000000000000000000005215d490daaeceb",
                    "revert": false,
                    "revertMessage": "",
                    "selector": "0x70a08231",
                    "status": true,
                    "value": "0"
                },
                "nodeType": 0
            },
            "13": {
                "invocation": {
                    "address": "0x7596a7e07f423a722c6a252246ef56dc81a4737f",
                    "callData": "0x000000000000000000000000bcedc25cbb0ea44e03e41dc2d00d54fe6d4646db",
                    "decodedMethod": {
                        "callParams": [
                            {
                                "name": "account",
                                "type": "address",
                                "value": "0xbcedc25cbb0ea44e03e41dc2d00d54fe6d4646db"
                            }
                        ],
                        "constructorArguments": "",
                        "name": "balanceOf",
                        "returnParams": [
                            {
                                "decimalAvailable": true,
                                "name": "",
                                "type": "uint256",
                                "value": "369,679,212,764,392,683"
                            }
                        ],
                        "signature": "balanceOf(address)"
                    },
                    "errorInfo": "",
                    "fromAddress": "0xe1406825186d63980fd6e2ec61888f7b91c4bae4",
                    "gasUsed": 1240,
                    "id": 13,
                    "methodDecoded": true,
                    "operation": "DELEGATECALL",
                    "output": "0x00000000000000000000000000000000000000000000000005215d490daaeceb",
                    "revert": false,
                    "revertMessage": "",
                    "selector": "0x70a08231",
                    "status": true,
                    "value": "0"
                },
                "nodeType": 0
            },
            "14": {
                "invocation": {
                    "address": "0xc0aee478e3658e2610c5f7a4a2e1777ce9e4f2ac",
                    "callData": "0x",
                    "decodedMethod": {
                        "callParams": [],
                        "constructorArguments": "",
                        "name": "feeTo",
                        "returnParams": [
                            {
                                "name": "",
                                "type": "address",
                                "value": "0x6684977bbed67e101bb80fc07fccfba655c0a64f"
                            }
                        ],
                        "signature": "feeTo()"
                    },
                    "errorInfo": "",
                    "fromAddress": "0xbcedc25cbb0ea44e03e41dc2d00d54fe6d4646db",
                    "gasUsed": 1038,
                    "id": 14,
                    "methodDecoded": true,
                    "operation": "STATICCALL",
                    "output": "0x0000000000000000000000006684977bbed67e101bb80fc07fccfba655c0a64f",
                    "revert": false,
                    "revertMessage": "",
                    "selector": "0x017e7e58",
                    "status": true,
                    "value": "0"
                },
                "nodeType": 0
            },
            "15": {
                "event": {
                    "contract": "0xbcedc25cbb0ea44e03e41dc2d00d54fe6d4646db",
                    "decodedLog": {
                        "name": "Transfer",
                        "params": [
                            {
                                "name": "from",
                                "type": "address",
                                "value": "0x0000000000000000000000000000000000000000"
                            },
                            {
                                "name": "to",
                                "type": "address",
                                "value": "0xe7058843f07684ec7a785880f338301d6aa68d60"
                            },
                            {
                                "decimalAvailable": true,
                                "name": "value",
                                "type": "uint256",
                                "value": "140,059,069,810,457,417"
                            }
                        ],
                        "signature": "Transfer(address,address,uint256)"
                    },
                    "id": 15,
                    "logData": "0x00000000000000000000000000000000000000000000000001f196fb5f9fbb49",
                    "logDecoded": true,
                    "operation": "EVENT",
                    "revert": false,
                    "status": true,
                    "topics": [
                        "0xddf252ad1be2c89b69c2b068fc378daa952ba7f163c4a11628f55a4df523b3ef",
                        "0x0000000000000000000000000000000000000000000000000000000000000000",
                        "0x000000000000000000000000e7058843f07684ec7a785880f338301d6aa68d60"
                    ]
                },
                "nodeType": 1
            },
            "16": {
                "event": {
                    "contract": "0xbcedc25cbb0ea44e03e41dc2d00d54fe6d4646db",
                    "decodedLog": {
                        "name": "Sync",
                        "params": [
                            {
                                "name": "reserve0",
                                "type": "uint112",
                                "value": "322,347,728,435,995,564"
                            },
                            {
                                "name": "reserve1",
                                "type": "uint112",
                                "value": "369,679,212,764,392,683"
                            }
                        ],
                        "signature": "Sync(uint112,uint112)"
                    },
                    "id": 16,
                    "logData": "0x0000000000000000000000000000000000000000000000000479358d1794e3ac00000000000000000000000000000000000000000000000005215d490daaeceb",
                    "logDecoded": true,
                    "operation": "EVENT",
                    "revert": false,
                    "status": true,
                    "topics": [
                        "0x1c411e9a96e071241c2f21f7726b17ae89e3cab4c78be50e062b03a9fffbbad1"
                    ]
                },
                "nodeType": 1
            },
            "17": {
                "event": {
                    "contract": "0xbcedc25cbb0ea44e03e41dc2d00d54fe6d4646db",
                    "decodedLog": {
                        "name": "Mint",
                        "params": [
                            {
                                "name": "sender",
                                "type": "address",
                                "value": "0xd9e1ce17f2641f24ae83637ab66a2cca9c378b9f"
                            },
                            {
                                "name": "amount0",
                                "type": "uint256",
                                "value": "130,817,784,173,494,993"
                            },
                            {
                                "name": "amount1",
                                "type": "uint256",
                                "value": "150,026,233,172,113,703"
                            }
                        ],
                        "signature": "Mint(address,uint256,uint256)"
                    },
                    "id": 17,
                    "logData": "0x00000000000000000000000000000000000000000000000001d0c214e3f702d1000000000000000000000000000000000000000000000000021500106f36b927",
                    "logDecoded": true,
                    "operation": "EVENT",
                    "revert": false,
                    "status": true,
                    "topics": [
                        "0x4c209b5fc8ad50758f13e2e1088ba56a560dff690a1c6fef26394f4c03821c4f",
                        "0x000000000000000000000000d9e1ce17f2641f24ae83637ab66a2cca9c378b9f"
                    ]
                },
                "nodeType": 1
            },
            "2": {
                "invocation": {
                    "address": "0xbcedc25cbb0ea44e03e41dc2d00d54fe6d4646db",
                    "callData": "0x",
                    "decodedMethod": {
                        "callParams": [],
                        "constructorArguments": "",
                        "name": "getReserves",
                        "returnParams": [
                            {
                                "name": "_reserve0",
                                "type": "uint112",
                                "value": "191,529,944,262,500,571"
                            },
                            {
                                "name": "_reserve1",
                                "type": "uint112",
                                "value": "219,652,979,592,278,980"
                            },
                            {
                                "name": "_blockTimestampLast",
                                "type": "uint32",
                                "value": "1,602,940,923"
                            }
                        ],
                        "signature": "getReserves()"
                    },
                    "errorInfo": "",
                    "fromAddress": "0xd9e1ce17f2641f24ae83637ab66a2cca9c378b9f",
                    "gasUsed": 1217,
                    "id": 2,
                    "methodDecoded": true,
                    "operation": "STATICCALL",
                    "output": "0x00000000000000000000000000000000000000000000000002a87378339de0db000000000000000000000000000000000000000000000000030c5d389e7433c4000000000000000000000000000000000000000000000000000000005f8aeffb",
                    "revert": false,
                    "revertMessage": "",
                    "selector": "0x0902f1ac",
                    "status": true,
                    "value": "0"
                },
                "nodeType": 0
            },
            "3": {
                "invocation": {
                    "address": "0x8daebade922df735c38c80c7ebd708af50815faa",
                    "callData": "0x000000000000000000000000e7058843f07684ec7a785880f338301d6aa68d60000000000000000000000000bcedc25cbb0ea44e03e41dc2d00d54fe6d4646db00000000000000000000000000000000000000000000000001d0c214e3f702d1",
                    "decodedMethod": {
                        "callParams": [
                            {
                                "name": "sender",
                                "type": "address",
                                "value": "0xe7058843f07684ec7a785880f338301d6aa68d60"
                            },
                            {
                                "name": "recipient",
                                "type": "address",
                                "value": "0xbcedc25cbb0ea44e03e41dc2d00d54fe6d4646db"
                            },
                            {
                                "decimalAvailable": true,
                                "name": "amount",
                                "type": "uint256",
                                "value": "130,817,784,173,494,993"
                            }
                        ],
                        "constructorArguments": "",
                        "name": "transferFrom",
                        "returnParams": [
                            {
                                "name": "",
                                "type": "bool",
                                "value": true
                            }
                        ],
                        "signature": "transferFrom(address,address,uint256)"
                    },
                    "errorInfo": "",
                    "fromAddress": "0xd9e1ce17f2641f24ae83637ab66a2cca9c378b9f",
                    "gasUsed": 22539,
                    "id": 3,
                    "methodDecoded": true,
                    "operation": "CALL",
                    "output": "0x0000000000000000000000000000000000000000000000000000000000000001",
                    "revert": false,
                    "revertMessage": "",
                    "selector": "0x23b872dd",
                    "status": true,
                    "value": "0"
                },
                "nodeType": 0
            },
            "4": {
                "event": {
                    "contract": "0x8daebade922df735c38c80c7ebd708af50815faa",
                    "decodedLog": {
                        "name": "Transfer",
                        "params": [
                            {
                                "name": "from",
                                "type": "address",
                                "value": "0xe7058843f07684ec7a785880f338301d6aa68d60"
                            },
                            {
                                "name": "to",
                                "type": "address",
                                "value": "0xbcedc25cbb0ea44e03e41dc2d00d54fe6d4646db"
                            },
                            {
                                "decimalAvailable": true,
                                "name": "value",
                                "type": "uint256",
                                "value": "130,817,784,173,494,993"
                            }
                        ],
                        "signature": "Transfer(address,address,uint256)"
                    },
                    "id": 4,
                    "logData": "0x00000000000000000000000000000000000000000000000001d0c214e3f702d1",
                    "logDecoded": true,
                    "operation": "EVENT",
                    "revert": false,
                    "status": true,
                    "topics": [
                        "0xddf252ad1be2c89b69c2b068fc378daa952ba7f163c4a11628f55a4df523b3ef",
                        "0x000000000000000000000000e7058843f07684ec7a785880f338301d6aa68d60",
                        "0x000000000000000000000000bcedc25cbb0ea44e03e41dc2d00d54fe6d4646db"
                    ]
                },
                "nodeType": 1
            },
            "5": {
                "event": {
                    "contract": "0x8daebade922df735c38c80c7ebd708af50815faa",
                    "decodedLog": {
                        "name": "Approval",
                        "params": [
                            {
                                "name": "owner",
                                "type": "address",
                                "value": "0xe7058843f07684ec7a785880f338301d6aa68d60"
                            },
                            {
                                "name": "spender",
                                "type": "address",
                                "value": "0xd9e1ce17f2641f24ae83637ab66a2cca9c378b9f"
                            },
                            {
                                "decimalAvailable": true,
                                "name": "value",
                                "type": "uint256",
                                "value": "115,792,089,237,316,195,423,570,985,008,687,907,853,269,984,665,640,564,039,457,453,190,128,956,144,942"
                            }
                        ],
                        "signature": "Approval(address,address,uint256)"
                    },
                    "id": 5,
                    "logData": "0xfffffffffffffffffffffffffffffffffffffffffffffffffe2f3deb1c08fd2e",
                    "logDecoded": true,
                    "operation": "EVENT",
                    "revert": false,
                    "status": true,
                    "topics": [
                        "0x8c5be1e5ebec7d5bd14f71427d1e84f3dd0314c0f7b2291e5b200ac8c7c3b925",
                        "0x000000000000000000000000e7058843f07684ec7a785880f338301d6aa68d60",
                        "0x000000000000000000000000d9e1ce17f2641f24ae83637ab66a2cca9c378b9f"
                    ]
                },
                "nodeType": 1
            },
            "6": {
                "invocation": {
                    "address": "0xe1406825186d63980fd6e2ec61888f7b91c4bae4",
                    "callData": "0x000000000000000000000000e7058843f07684ec7a785880f338301d6aa68d60000000000000000000000000bcedc25cbb0ea44e03e41dc2d00d54fe6d4646db000000000000000000000000000000000000000000000000021500106f36b927",
                    "decodedMethod": {
                        "callParams": [
                            {
                                "name": "sender",
                                "type": "address",
                                "value": "0xe7058843f07684ec7a785880f338301d6aa68d60"
                            },
                            {
                                "name": "recipient",
                                "type": "address",
                                "value": "0xbcedc25cbb0ea44e03e41dc2d00d54fe6d4646db"
                            },
                            {
                                "decimalAvailable": true,
                                "name": "amount",
                                "type": "uint256",
                                "value": "150,026,233,172,113,703"
                            }
                        ],
                        "constructorArguments": "",
                        "name": "transferFrom",
                        "returnParams": [
                            {
                                "name": "",
                                "type": "bool",
                                "value": true
                            }
                        ],
                        "signature": "transferFrom(address,address,uint256)"
                    },
                    "errorInfo": "",
                    "fromAddress": "0xd9e1ce17f2641f24ae83637ab66a2cca9c378b9f",
                    "gasUsed": 25750,
                    "id": 6,
                    "methodDecoded": true,
                    "operation": "CALL",
                    "output": "0x0000000000000000000000000000000000000000000000000000000000000001",
                    "revert": false,
                    "revertMessage": "",
                    "selector": "0x23b872dd",
                    "status": true,
                    "value": "0"
                },
                "nodeType": 0
            },
            "7": {
                "invocation": {
                    "address": "0x7596a7e07f423a722c6a252246ef56dc81a4737f",
                    "callData": "0x000000000000000000000000e7058843f07684ec7a785880f338301d6aa68d60000000000000000000000000bcedc25cbb0ea44e03e41dc2d00d54fe6d4646db000000000000000000000000000000000000000000000000021500106f36b927",
                    "decodedMethod": {
                        "callParams": [
                            {
                                "name": "sender",
                                "type": "address",
                                "value": "0xe7058843f07684ec7a785880f338301d6aa68d60"
                            },
                            {
                                "name": "recipient",
                                "type": "address",
                                "value": "0xbcedc25cbb0ea44e03e41dc2d00d54fe6d4646db"
                            },
                            {
                                "decimalAvailable": true,
                                "name": "amount",
                                "type": "uint256",
                                "value": "150,026,233,172,113,703"
                            }
                        ],
                        "constructorArguments": "",
                        "name": "transferFrom",
                        "returnParams": [
                            {
                                "name": "",
                                "type": "bool",
                                "value": true
                            }
                        ],
                        "signature": "transferFrom(address,address,uint256)"
                    },
                    "errorInfo": "",
                    "fromAddress": "0xe1406825186d63980fd6e2ec61888f7b91c4bae4",
                    "gasUsed": 22965,
                    "id": 7,
                    "methodDecoded": true,
                    "operation": "DELEGATECALL",
                    "output": "0x0000000000000000000000000000000000000000000000000000000000000001",
                    "revert": false,
                    "revertMessage": "",
                    "selector": "0x23b872dd",
                    "status": true,
                    "value": "0"
                },
                "nodeType": 0
            },
            "8": {
                "event": {
                    "contract": "0xe1406825186d63980fd6e2ec61888f7b91c4bae4",
                    "decodedLog": {
                        "name": "Transfer",
                        "params": [
                            {
                                "name": "from",
                                "type": "address",
                                "value": "0xe7058843f07684ec7a785880f338301d6aa68d60"
                            },
                            {
                                "name": "to",
                                "type": "address",
                                "value": "0xbcedc25cbb0ea44e03e41dc2d00d54fe6d4646db"
                            },
                            {
                                "decimalAvailable": true,
                                "name": "value",
                                "type": "uint256",
                                "value": "150,026,233,172,113,703"
                            }
                        ],
                        "signature": "Transfer(address,address,uint256)"
                    },
                    "id": 8,
                    "logData": "0x000000000000000000000000000000000000000000000000021500106f36b927",
                    "logDecoded": true,
                    "operation": "EVENT",
                    "revert": false,
                    "status": true,
                    "topics": [
                        "0xddf252ad1be2c89b69c2b068fc378daa952ba7f163c4a11628f55a4df523b3ef",
                        "0x000000000000000000000000e7058843f07684ec7a785880f338301d6aa68d60",
                        "0x000000000000000000000000bcedc25cbb0ea44e03e41dc2d00d54fe6d4646db"
                    ]
                },
                "nodeType": 1
            },
            "9": {
                "event": {
                    "contract": "0xe1406825186d63980fd6e2ec61888f7b91c4bae4",
                    "decodedLog": {
                        "name": "Approval",
                        "params": [
                            {
                                "name": "owner",
                                "type": "address",
                                "value": "0xe7058843f07684ec7a785880f338301d6aa68d60"
                            },
                            {
                                "name": "spender",
                                "type": "address",
                                "value": "0xd9e1ce17f2641f24ae83637ab66a2cca9c378b9f"
                            },
                            {
                                "decimalAvailable": true,
                                "name": "value",
                                "type": "uint256",
                                "value": "115,792,089,237,316,195,423,570,985,008,687,907,853,269,984,665,640,564,039,457,433,981,679,957,526,232"
                            }
                        ],
                        "signature": "Approval(address,address,uint256)"
                    },
                    "id": 9,
                    "logData": "0xfffffffffffffffffffffffffffffffffffffffffffffffffdeaffef90c946d8",
                    "logDecoded": true,
                    "operation": "EVENT",
                    "revert": false,
                    "status": true,
                    "topics": [
                        "0x8c5be1e5ebec7d5bd14f71427d1e84f3dd0314c0f7b2291e5b200ac8c7c3b925",
                        "0x000000000000000000000000e7058843f07684ec7a785880f338301d6aa68d60",
                        "0x000000000000000000000000d9e1ce17f2641f24ae83637ab66a2cca9c378b9f"
                    ]
                },
                "nodeType": 1
            }
        },
        "gasFlame": [
            {
                "children": [
                    {
                        "children": [
                            {
                                "children": [],
                                "depth": 0,
                                "name": "Initial Gas",
                                "value": 23216
                            },
                            {
                                "children": [
                                    {
                                        "children": [],
                                        "depth": 1,
                                        "name": "getPair",
                                        "value": 1344
                                    },
                                    {
                                        "children": [],
                                        "depth": 1,
                                        "name": "getReserves",
                                        "value": 1217
                                    },
                                    {
                                        "children": [],
                                        "depth": 1,
                                        "name": "transferFrom",
                                        "value": 22539
                                    },
                                    {
                                        "children": [
                                            {
                                                "children": [],
                                                "depth": 2,
                                                "name": "transferFrom",
                                                "value": 22965
                                            }
                                        ],
                                        "depth": 1,
                                        "name": "transferFrom",
                                        "value": 25750
                                    },
                                    {
                                        "children": [
                                            {
                                                "children": [],
                                                "depth": 2,
                                                "name": "balanceOf",
                                                "value": 1187
                                            },
                                            {
                                                "children": [
                                                    {
                                                        "children": [],
                                                        "depth": 3,
                                                        "name": "balanceOf",
                                                        "value": 1240
                                                    }
                                                ],
                                                "depth": 2,
                                                "name": "balanceOf",
                                                "value": 4016
                                            },
                                            {
                                                "children": [],
                                                "depth": 2,
                                                "name": "feeTo",
                                                "value": 1038
                                            }
                                        ],
                                        "depth": 1,
                                        "name": "mint",
                                        "value": 94875
                                    }
                                ],
                                "depth": 0,
                                "name": "Executed Gas",
                                "value": 157014
                            }
                        ],
                        "depth": -1,
                        "name": "Actual Gas Used",
                        "value": 176030
                    },
                    {
                        "children": [],
                        "depth": -1,
                        "name": "Refunded Gas",
                        "value": 4200
                    }
                ],
                "depth": -2,
                "name": "Total Gas",
                "value": 180230
            }
        ],
        "isConfirmed": true,
        "mainTrace": [
            {
                "children": [
                    {
                        "children": [
                            {
                                "children": [],
                                "depth": 1,
                                "id": 1,
                                "order": 1
                            },
                            {
                                "children": [],
                                "depth": 1,
                                "id": 2,
                                "order": 2
                            },
                            {
                                "children": [
                                    {
                                        "children": [],
                                        "depth": 2,
                                        "id": 4,
                                        "order": 4
                                    },
                                    {
                                        "children": [],
                                        "depth": 2,
                                        "id": 5,
                                        "order": 5
                                    }
                                ],
                                "depth": 1,
                                "id": 3,
                                "order": 3
                            },
                            {
                                "children": [
                                    {
                                        "children": [
                                            {
                                                "children": [],
                                                "depth": 3,
                                                "id": 8,
                                                "order": 8
                                            },
                                            {
                                                "children": [],
                                                "depth": 3,
                                                "id": 9,
                                                "order": 9
                                            }
                                        ],
                                        "depth": 2,
                                        "id": 7,
                                        "order": 7
                                    }
                                ],
                                "depth": 1,
                                "id": 6,
                                "order": 6
                            },
                            {
                                "children": [
                                    {
                                        "children": [],
                                        "depth": 2,
                                        "id": 11,
                                        "order": 11
                                    },
                                    {
                                        "children": [
                                            {
                                                "children": [],
                                                "depth": 3,
                                                "id": 13,
                                                "order": 13
                                            }
                                        ],
                                        "depth": 2,
                                        "id": 12,
                                        "order": 12
                                    },
                                    {
                                        "children": [],
                                        "depth": 2,
                                        "id": 14,
                                        "order": 14
                                    },
                                    {
                                        "children": [],
                                        "depth": 2,
                                        "id": 15,
                                        "order": 15
                                    },
                                    {
                                        "children": [],
                                        "depth": 2,
                                        "id": 16,
                                        "order": 16
                                    },
                                    {
                                        "children": [],
                                        "depth": 2,
                                        "id": 17,
                                        "order": 17
                                    }
                                ],
                                "depth": 1,
                                "id": 10,
                                "order": 10
                            }
                        ],
                        "depth": 0,
                        "id": 0,
                        "order": 0
                    }
                ],
                "depth": -1,
                "id": -1,
                "order": -1
            }
        ],
        "mainTraceNodeCount": 18,
        "parentIdMap": {
            "0": -1,
            "1": 0,
            "10": 0,
            "11": 10,
            "12": 10,
            "13": 12,
            "14": 10,
            "15": 10,
            "16": 10,
            "17": 10,
            "2": 0,
            "3": 0,
            "4": 3,
            "5": 3,
            "6": 0,
            "7": 6,
            "8": 7,
            "9": 7
        },
        "tidyTrace": [
            {
                "children": [
                    {
                        "children": [
                            {
                                "children": [
                                    {
                                        "children": [],
                                        "depth": 2,
                                        "id": 4,
                                        "order": 4
                                    },
                                    {
                                        "children": [],
                                        "depth": 2,
                                        "id": 5,
                                        "order": 5
                                    }
                                ],
                                "depth": 1,
                                "id": 3,
                                "order": 3
                            },
                            {
                                "children": [
                                    {
                                        "children": [
                                            {
                                                "children": [],
                                                "depth": 3,
                                                "id": 8,
                                                "order": 8
                                            },
                                            {
                                                "children": [],
                                                "depth": 3,
                                                "id": 9,
                                                "order": 9
                                            }
                                        ],
                                        "depth": 2,
                                        "id": 7,
                                        "order": 7
                                    }
                                ],
                                "depth": 1,
                                "id": 6,
                                "order": 6
                            },
                            {
                                "children": [
                                    {
                                        "children": [],
                                        "depth": 2,
                                        "id": 15,
                                        "order": 15
                                    },
                                    {
                                        "children": [],
                                        "depth": 2,
                                        "id": 16,
                                        "order": 16
                                    },
                                    {
                                        "children": [],
                                        "depth": 2,
                                        "id": 17,
                                        "order": 17
                                    }
                                ],
                                "depth": 1,
                                "id": 10,
                                "order": 10
                            }
                        ],
                        "depth": 0,
                        "id": 0,
                        "order": 0
                    }
                ],
                "depth": -1,
                "id": -1,
                "order": -1
            }
        ],
        "tidyTraceNodeCount": 12
    },
    "state_change": {
        "stateChanges": [
            {
                "address": "0x8daebade922df735c38c80c7ebd708af50815faa",
                "erc": "ERC-20",
                "slots": [
                    {
                        "current": "0x0000000000000000000000000000000000000000000000000000593fff9f3be0",
                        "key": "0xa87ac3665e1b5c4280454cd6a6bfafbe332aa868cf6de301f253b3678a27a663",
                        "prev": "0x00000000000000000000000000000000000000000000000001d11b54e3963eb1"
                    },
                    {
                        "current": "0x0000000000000000000000000000000000000000000000000479358d1794e3ac",
                        "key": "0x60925d1d0ace37aa645af2f3d655ae08d0ca8b207c96489cf57f9b140d6e5fcc",
                        "prev": "0x00000000000000000000000000000000000000000000000002a87378339de0db"
                    },
                    {
                        "current": "0xfffffffffffffffffffffffffffffffffffffffffffffffffe2f3deb1c08fd2e",
                        "key": "0xa77e23a918e22b4df3f9eee972a708ef9850e7ca17ff02e8384ea68aaa00a498",
                        "prev": "0xffffffffffffffffffffffffffffffffffffffffffffffffffffffffffffffff"
                    }
                ],
                "storageVariables": [
                    {
                        "name": "_balances",
                        "type": "mapping(address => uint256)",
                        "value": {
                            "pairs": [
                                {
                                    "key": "0xbcedc25cbb0ea44e03e41dc2d00d54fe6d4646db",
                                    "value": {
                                        "current": "322347728435995564",
                                        "prev": "191529944262500571",
                                        "typeTag": 1
                                    }
                                },
                                {
                                    "key": "0xe7058843f07684ec7a785880f338301d6aa68d60",
                                    "value": {
                                        "current": "98131406437344",
                                        "prev": "130915915579932337",
                                        "typeTag": 1
                                    }
                                }
                            ],
                            "typeTag": 4
                        }
                    },
                    {
                        "name": "_allowances",
                        "type": "mapping(address => mapping(address => uint256))",
                        "value": {
                            "pairs": [
                                {
                                    "key": "0xe7058843f07684ec7a785880f338301d6aa68d60",
                                    "value": {
                                        "pairs": [
                                            {
                                                "key": "0xd9e1ce17f2641f24ae83637ab66a2cca9c378b9f",
                                                "value": {
                                                    "current": "115792089237316195423570985008687907853269984665640564039457453190128956144942",
                                                    "prev": "115792089237316195423570985008687907853269984665640564039457584007913129639935",
                                                    "typeTag": 1
                                                }
                                            }
                                        ],
                                        "typeTag": 4
                                    }
                                }
                            ],
                            "typeTag": 4
                        }
                    }
                ]
            },
            {
                "address": "0xbcedc25cbb0ea44e03e41dc2d00d54fe6d4646db",
                "erc": "ERC-20",
                "slots": [
                    {
                        "current": "0x00000000000000000000000000000000000000000000000001f196fb5f9fbb49",
                        "key": "0x39c0c9af5586b2a69b9d491636df4709298ccd3061a0c45ae4909ae3608cfebb",
                        "prev": "0x0000000000000000000000000000000000000000000000000000000000000000"
                    },
                    {
                        "current": "0x0000000000000000000000000000000350f1a7cb6eeb76906cd4de9576cad535",
                        "key": "0x0000000000000000000000000000000000000000000000000000000000000009",
                        "prev": "0x000000000000000000000000000000034a8e454cd6e0bfe4ea9a3650462bc095"
                    },
                    {
                        "current": "0x00000000000000000000000000000002289ec627758cdc41f0e361c8114f8fd8",
                        "key": "0x000000000000000000000000000000000000000000000000000000000000000a",
                        "prev": "0x0000000000000000000000000000000223c359b5d907d007f4f873df5426600c"
                    },
                    {
                        "current": "0x5f8af58d00000000000005215d490daaeceb0000000000000479358d1794e3ac",
                        "key": "0x0000000000000000000000000000000000000000000000000000000000000008",
                        "prev": "0x5f8aeffb000000000000030c5d389e7433c400000000000002a87378339de0db"
                    },
                    {
                        "current": "0x000000000000000000000000000000000016f34cf7e79dca17dcdabcd3c78ee4",
                        "key": "0x000000000000000000000000000000000000000000000000000000000000000b",
                        "prev": "0x0000000000000000000000000000000000081a379aae5e36dac8ed8905e7c8ac"
                    },
                    {
                        "current": "0x00000000000000000000000000000000000000000000000004ca1c0ac2827788",
                        "key": "0x0000000000000000000000000000000000000000000000000000000000000000",
                        "prev": "0x00000000000000000000000000000000000000000000000002d8850f62e2bc3f"
                    }
                ],
                "storageVariables": [
                    {
                        "name": "price1CumulativeLast",
                        "type": "uint256",
                        "value": {
                            "current": "734558255620301961596128265537789595608",
                            "prev": "728102031123683105957435558356542971916",
                            "typeTag": 1
                        }
                    },
                    {
                        "name": "reserve0",
                        "type": "uint112",
                        "value": {
                            "current": "322347728435995564",
                            "prev": "191529944262500571",
                            "typeTag": 1
                        }
                    },
                    {
                        "name": "reserve1",
                        "type": "uint112",
                        "value": {
                            "current": "369679212764392683",
                            "prev": "219652979592278980",
                            "typeTag": 1
                        }
                    },
                    {
                        "name": "blockTimestampLast",
                        "type": "uint32",
                        "value": {
                            "current": "1602942349",
                            "prev": "1602940923",
                            "typeTag": 1
                        }
                    },
                    {
                        "name": "kLast",
                        "type": "uint256",
                        "value": {
                            "current": "119165254484609077533161610942058212",
                            "prev": "42070122938401368436601699441297580",
                            "typeTag": 1
                        }
                    },
                    {
                        "name": "totalSupply",
                        "type": "uint256",
                        "value": {
                            "current": "345119153985845128",
                            "prev": "205060084175387711",
                            "typeTag": 1
                        }
                    },
                    {
                        "name": "balanceOf",
                        "type": "mapping(address => uint256)",
                        "value": {
                            "pairs": [
                                {
                                    "key": "0xe7058843f07684ec7a785880f338301d6aa68d60",
                                    "value": {
                                        "current": "140059069810457417",
                                        "prev": "0",
                                        "typeTag": 1
                                    }
                                }
                            ],
                            "typeTag": 4
                        }
                    },
                    {
                        "name": "price0CumulativeLast",
                        "type": "uint256",
                        "value": {
                            "current": "1128440087248564362456901225646236816693",
                            "prev": "1119948684178915611237728067124420395157",
                            "typeTag": 1
                        }
                    }
                ]
            },
            {
                "address": "0xe1406825186d63980fd6e2ec61888f7b91c4bae4",
                "erc": "ERC-20",
                "slots": [
                    {
                        "current": "0x0000000000000000000000000000000000000000000000000000000000000001",
                        "key": "0x84da99196dad5467dd4d2fec082475aff55a96f72689f8becc9ef467ab7fcc7a",
                        "prev": "0x000000000000000000000000000000000000000000000000021500106f36b928"
                    },
                    {
                        "current": "0x00000000000000000000000000000000000000000000000005215d490daaeceb",
                        "key": "0x3fcfba0df895202e949d24c98c404e4fd0baafdb51f80f4fab2cba9011aea486",
                        "prev": "0x000000000000000000000000000000000000000000000000030c5d389e7433c4"
                    },
                    {
                        "current": "0xfffffffffffffffffffffffffffffffffffffffffffffffffdeaffef90c946d8",
                        "key": "0x62b62cb3e9af326643192b50f4eda2f0aec28a744d94dc85c435bc057866c60e",
                        "prev": "0xffffffffffffffffffffffffffffffffffffffffffffffffffffffffffffffff"
                    }
                ],
                "storageVariables": [
                    {
                        "name": "_allowances",
                        "type": "mapping(address => mapping(address => uint256))",
                        "value": {
                            "pairs": [
                                {
                                    "key": "0xe7058843f07684ec7a785880f338301d6aa68d60",
                                    "value": {
                                        "pairs": [
                                            {
                                                "key": "0xd9e1ce17f2641f24ae83637ab66a2cca9c378b9f",
                                                "value": {
                                                    "current": "115792089237316195423570985008687907853269984665640564039457433981679957526232",
                                                    "prev": "115792089237316195423570985008687907853269984665640564039457584007913129639935",
                                                    "typeTag": 1
                                                }
                                            }
                                        ],
                                        "typeTag": 4
                                    }
                                }
                            ],
                            "typeTag": 4
                        }
                    },
                    {
                        "name": "_balances",
                        "type": "mapping(address => uint256)",
                        "value": {
                            "pairs": [
                                {
                                    "key": "0xbcedc25cbb0ea44e03e41dc2d00d54fe6d4646db",
                                    "value": {
                                        "current": "369679212764392683",
                                        "prev": "219652979592278980",
                                        "typeTag": 1
                                    }
                                },
                                {
                                    "key": "0xe7058843f07684ec7a785880f338301d6aa68d60",
                                    "value": {
                                        "current": "1",
                                        "prev": "150026233172113704",
                                        "typeTag": 1
                                    }
                                }
                            ],
                            "typeTag": 4
                        }
                    }
                ]
            }
        ]
    }
}