{
    "balance_change": {
        "balanceChanges": []
    },
    "profile": {
        "basic_info": {
            "baseFee": "",
            "blockNumber": 4117861,
            "callData": "0x983b94fb35cf2c04b21db60eb6c0c707281e109ff603fa242497b0e0b48f65cd3db9bc7e",
            "debugEnable": true,
            "errorInfo": "",
            "eventCount": 2,
            "feeRecipient": "0xea674fdde714fd979de3edf0f56aa9716b898ec8",
            "formatValue": "0",
            "gasLimit": 200000,
            "gasPrice": "5",
            "gasUsed": 93219,
            "intTxnCount": 7,
            "internalRevert": false,
            "internalRevertMessage": "",
            "isContractCreation": false,
            "isFlashloan": false,
            "maxFee": "",
            "nonce": 259,
            "overwritedBlockNumber": -1,
            "priorityFee": "",
            "receiver": "0x6090a6e47849629b7245dfa1ca21d94cd15878ef",
            "revertMessage": "",
            "sender": "0xe08c5c6d17be3ab837b421723e9215bb9902c9f1",
            "simulationEnable": true,
            "sourceTxnHash": "0x889051472f2a3a10be76c54808ab5c3bc1a0de7beb29bc3288ee0cb00d204513",
            "status": true,
            "timestamp": "2017-08-05T00:07:32Z",
            "transactionFee": "0.000466095",
            "txnHash": "0x889051472f2a3a10be76c54808ab5c3bc1a0de7beb29bc3288ee0cb00d204513",
            "txnIndex": 11,
            "type": 0,
            "value": "0"
        },
        "fund_flow": [],
        "token_infos": [
            {
                "address": "0xc02aaa39b223fe8d0a0e5c4f27ead9083c756cc2",
                "decimals": 18
            },
            {
                "address": "0xeeeeeeeeeeeeeeeeeeeeeeeeeeeeeeeeeeeeeeee",
                "decimals": 18
            }
        ]
    },
    "address_label": {
        "labels": [
            {
                "address": "0x314159265dd8dbb310642f98f50c066173c1259b",
                "label": "ENS: Eth Name Service"
            },
            {
                "address": "0xf0021ac6f32a204fbcc3760c8c70e0c370d96c35",
                "label": "Deed"
            },
            {
                "address": "0x0000000000000000000000000000000000000001",
                "label": "Precompiled"
            },
            {
                "address": "0x0000000000000000000000000000000000000002",
                "label": "Precompiled"
            },
            {
                "address": "0x0000000000000000000000000000000000000003",
                "label": "Precompiled"
            },
            {
                "address": "0x0000000000000000000000000000000000000004",
                "label": "Precompiled"
            },
            {
                "address": "0xeeeeeeeeeeeeeeeeeeeeeeeeeeeeeeeeeeeeeeee",
                "label": "Ether"
            },
            {
                "address": "0x6090a6e47849629b7245dfa1ca21d94cd15878ef",
                "label": "ENS: Old Registrar"
            }
        ]
    },
    "trace": {
        "accountLabels": null,
        "dataMap": {
            "-1": {
                "invocation": {
                    "address": "0xe08c5c6d17be3ab837b421723e9215bb9902c9f1",
                    "callData": "",
                    "decodedMethod": null,
                    "errorInfo": "",
                    "fromAddress": "",
                    "gasUsed": 0,
                    "id": -1,
                    "methodDecoded": false,
                    "operation": "",
                    "output": "",
                    "revert": false,
                    "revertMessage": "",
                    "selector": "",
                    "status": false,
                    "value": ""
                },
                "nodeType": 0
            },
            "0": {
                "invocation": {
                    "address": "0x6090a6e47849629b7245dfa1ca21d94cd15878ef",
                    "callData": "0x35cf2c04b21db60eb6c0c707281e109ff603fa242497b0e0b48f65cd3db9bc7e",
                    "decodedMethod": {
                        "callParams": [
                            {
                                "name": "_hash",
                                "type": "bytes32",
                                "value": "0x35cf2c04b21db60eb6c0c707281e109ff603fa242497b0e0b48f65cd3db9bc7e"
                            }
                        ],
                        "constructorArguments": "",
                        "name": "finalizeAuction",
                        "returnParams": [],
                        "signature": "finalizeAuction(bytes32)"
                    },
                    "errorInfo": "",
                    "fromAddress": "0xe08c5c6d17be3ab837b421723e9215bb9902c9f1",
                    "gasUsed": 93219,
                    "id": 0,
                    "methodDecoded": true,
                    "operation": "CALL",
                    "output": "",
                    "revert": false,
                    "revertMessage": "",
                    "selector": "0x983b94fb",
                    "status": true,
                    "value": "0"
                },
                "nodeType": 0
            },
            "1": {
                "invocation": {
                    "address": "0xf0021ac6f32a204fbcc3760c8c70e0c370d96c35",
                    "callData": "0x",
                    "decodedMethod": {
                        "callParams": [],
                        "constructorArguments": "",
                        "name": "owner",
                        "returnParams": [
                            {
                                "name": "",
                                "type": "address",
                                "value": "0xe08c5c6d17be3ab837b421723e9215bb9902c9f1"
                            }
                        ],
                        "signature": "owner()"
                    },
                    "errorInfo": "",
                    "fromAddress": "0x6090a6e47849629b7245dfa1ca21d94cd15878ef",
                    "gasUsed": 721,
                    "id": 1,
                    "methodDecoded": true,
                    "operation": "CALL",
                    "output": "0x000000000000000000000000e08c5c6d17be3ab837b421723e9215bb9902c9f1",
                    "revert": false,
                    "revertMessage": "",
                    "selector": "0x8da5cb5b",
                    "status": true,
                    "value": "0"
                },
                "nodeType": 0
            },
            "2": {
                "invocation": {
                    "address": "0xf0021ac6f32a204fbcc3760c8c70e0c370d96c35",
                    "callData": "0x000000000000000000000000000000000000000000000000002386f26fc100000000000000000000000000000000000000000000000000000000000000000001",
                    "decodedMethod": {
                        "callParams": [
                            {
                                "name": "newValue",
                                "type": "uint256",
                                "value": "10,000,000,000,000,000"
                            },
                            {
                                "name": "throwOnFailure",
                                "type": "bool",
                                "value": true
                            }
                        ],
                        "constructorArguments": "",
                        "name": "setBalance",
                        "returnParams": [],
                        "signature": "setBalance(uint256,bool)"
                    },
                    "errorInfo": "",
                    "fromAddress": "0x6090a6e47849629b7245dfa1ca21d94cd15878ef",
                    "gasUsed": 7633,
                    "id": 2,
                    "methodDecoded": true,
                    "operation": "CALL",
                    "output": "",
                    "revert": false,
                    "revertMessage": "",
                    "selector": "0xb0c80972",
                    "status": true,
                    "value": "0"
                },
                "nodeType": 0
            },
            "3": {
                "invocation": {
                    "address": "0xe08c5c6d17be3ab837b421723e9215bb9902c9f1",
                    "callData": "0x",
                    "decodedMethod": null,
                    "errorInfo": "",
                    "fromAddress": "0xf0021ac6f32a204fbcc3760c8c70e0c370d96c35",
                    "gasUsed": 0,
                    "id": 3,
                    "methodDecoded": false,
                    "operation": "CALL",
                    "output": "",
                    "revert": false,
                    "revertMessage": "",
                    "selector": "fallback",
                    "status": true,
                    "value": "0"
                },
                "nodeType": 0
            },
            "4": {
                "invocation": {
                    "address": "0xf0021ac6f32a204fbcc3760c8c70e0c370d96c35",
                    "callData": "0x",
                    "decodedMethod": {
                        "callParams": [],
                        "constructorArguments": "",
                        "name": "owner",
                        "returnParams": [
                            {
                                "name": "",
                                "type": "address",
                                "value": "0xe08c5c6d17be3ab837b421723e9215bb9902c9f1"
                            }
                        ],
                        "signature": "owner()"
                    },
                    "errorInfo": "",
                    "fromAddress": "0x6090a6e47849629b7245dfa1ca21d94cd15878ef",
                    "gasUsed": 721,
                    "id": 4,
                    "methodDecoded": true,
                    "operation": "CALL",
                    "output": "0x000000000000000000000000e08c5c6d17be3ab837b421723e9215bb9902c9f1",
                    "revert": false,
                    "revertMessage": "",
                    "selector": "0x8da5cb5b",
                    "status": true,
                    "value": "0"
                },
                "nodeType": 0
            },
            "5": {
                "invocation": {
                    "address": "0x314159265dd8dbb310642f98f50c066173c1259b",
                    "callData": "0x93cdeb708b7545dc668eb9280176169d1c33cfd8ed6f04690a0bcc88a93fc4ae",
                    "decodedMethod": {
                        "callParams": [
                            {
                                "name": "node",
                                "type": "bytes32",
                                "value": "0x93cdeb708b7545dc668eb9280176169d1c33cfd8ed6f04690a0bcc88a93fc4ae"
                            }
                        ],
                        "constructorArguments": "",
                        "name": "owner",
                        "returnParams": [
                            {
                                "name": "",
                                "type": "address",
                                "value": "0x6090a6e47849629b7245dfa1ca21d94cd15878ef"
                            }
                        ],
                        "signature": "owner(bytes32)"
                    },
                    "errorInfo": "",
                    "fromAddress": "0x6090a6e47849629b7245dfa1ca21d94cd15878ef",
                    "gasUsed": 432,
                    "id": 5,
                    "methodDecoded": true,
                    "operation": "CALL",
                    "output": "0x0000000000000000000000006090a6e47849629b7245dfa1ca21d94cd15878ef",
                    "revert": false,
                    "revertMessage": "",
                    "selector": "0x02571be3",
                    "status": true,
                    "value": "0"
                },
                "nodeType": 0
            },
            "6": {
                "invocation": {
                    "address": "0x314159265dd8dbb310642f98f50c066173c1259b",
                    "callData": "0x93cdeb708b7545dc668eb9280176169d1c33cfd8ed6f04690a0bcc88a93fc4ae35cf2c04b21db60eb6c0c707281e109ff603fa242497b0e0b48f65cd3db9bc7e000000000000000000000000e08c5c6d17be3ab837b421723e9215bb9902c9f1",
                    "decodedMethod": {
                        "callParams": [
                            {
                                "name": "node",
                                "type": "bytes32",
                                "value": "0x93cdeb708b7545dc668eb9280176169d1c33cfd8ed6f04690a0bcc88a93fc4ae"
                            },
                            {
                                "name": "label",
                                "type": "bytes32",
                                "value": "0x35cf2c04b21db60eb6c0c707281e109ff603fa242497b0e0b48f65cd3db9bc7e"
                            },
                            {
                                "name": "owner",
                                "type": "address",
                                "value": "0xe08c5c6d17be3ab837b421723e9215bb9902c9f1"
                            }
                        ],
                        "constructorArguments": "",
                        "name": "setSubnodeOwner",
                        "returnParams": [],
                        "signature": "setSubnodeOwner(bytes32,bytes32,address)"
                    },
                    "errorInfo": "",
                    "fromAddress": "0x6090a6e47849629b7245dfa1ca21d94cd15878ef",
                    "gasUsed": 22681,
                    "id": 6,
                    "methodDecoded": true,
                    "operation": "CALL",
                    "output": "",
                    "revert": false,
                    "revertMessage": "",
                    "selector": "0x06ab5923",
                    "status": true,
                    "value": "0"
                },
                "nodeType": 0
            },
            "7": {
                "event": {
                    "contract": "0x314159265dd8dbb310642f98f50c066173c1259b",
                    "decodedLog": {
                        "name": "NewOwner",
                        "params": [
                            {
                                "name": "node",
                                "type": "bytes32",
                                "value": "0x93cdeb708b7545dc668eb9280176169d1c33cfd8ed6f04690a0bcc88a93fc4ae"
                            },
                            {
                                "name": "label",
                                "type": "bytes32",
                                "value": "0x35cf2c04b21db60eb6c0c707281e109ff603fa242497b0e0b48f65cd3db9bc7e"
                            },
                            {
                                "name": "owner",
                                "type": "address",
                                "value": "0xe08c5c6d17be3ab837b421723e9215bb9902c9f1"
                            }
                        ],
                        "signature": "NewOwner(bytes32,bytes32,address)"
                    },
                    "id": 7,
                    "logData": "0x000000000000000000000000e08c5c6d17be3ab837b421723e9215bb9902c9f1",
                    "logDecoded": true,
                    "operation": "EVENT",
                    "revert": false,
                    "status": true,
                    "topics": [
                        "0xce0457fe73731f824cc272376169235128c118b49d344817417c6d108d155e82",
                        "0x93cdeb708b7545dc668eb9280176169d1c33cfd8ed6f04690a0bcc88a93fc4ae",
                        "0x35cf2c04b21db60eb6c0c707281e109ff603fa242497b0e0b48f65cd3db9bc7e"
                    ]
                },
                "nodeType": 1
            },
            "8": {
                "invocation": {
                    "address": "0xf0021ac6f32a204fbcc3760c8c70e0c370d96c35",
                    "callData": "0x",
                    "decodedMethod": {
                        "callParams": [],
                        "constructorArguments": "",
                        "name": "owner",
                        "returnParams": [
                            {
                                "name": "",
                                "type": "address",
                                "value": "0xe08c5c6d17be3ab837b421723e9215bb9902c9f1"
                            }
                        ],
                        "signature": "owner()"
                    },
                    "errorInfo": "",
                    "fromAddress": "0x6090a6e47849629b7245dfa1ca21d94cd15878ef",
                    "gasUsed": 721,
                    "id": 8,
                    "methodDecoded": true,
                    "operation": "CALL",
                    "output": "0x000000000000000000000000e08c5c6d17be3ab837b421723e9215bb9902c9f1",
                    "revert": false,
                    "revertMessage": "",
                    "selector": "0x8da5cb5b",
                    "status": true,
                    "value": "0"
                },
                "nodeType": 0
            },
            "9": {
                "event": {
                    "contract": "0x6090a6e47849629b7245dfa1ca21d94cd15878ef",
                    "decodedLog": {
                        "name": "HashRegistered",
                        "params": [
                            {
                                "name": "hash",
                                "type": "bytes32",
                                "value": "0x35cf2c04b21db60eb6c0c707281e109ff603fa242497b0e0b48f65cd3db9bc7e"
                            },
                            {
                                "name": "owner",
                                "type": "address",
                                "value": "0xe08c5c6d17be3ab837b421723e9215bb9902c9f1"
                            },
                            {
                                "name": "value",
                                "type": "uint256",
                                "value": "10,000,000,000,000,000"
                            },
                            {
                                "name": "registrationDate",
                                "type": "uint256",
                                "value": "1,501,886,840"
                            }
                        ],
                        "signature": "HashRegistered(bytes32,address,uint256,uint256)"
                    },
                    "id": 9,
                    "logData": "0x000000000000000000000000000000000000000000000000002386f26fc10000000000000000000000000000000000000000000000000000000000005984f978",
                    "logDecoded": true,
                    "operation": "EVENT",
                    "revert": false,
                    "status": true,
                    "topics": [
                        "0x0f0c27adfd84b60b6f456b0e87cdccb1e5fb9603991588d87fa99f5b6b61e670",
                        "0x35cf2c04b21db60eb6c0c707281e109ff603fa242497b0e0b48f65cd3db9bc7e",
                        "0x000000000000000000000000e08c5c6d17be3ab837b421723e9215bb9902c9f1"
                    ]
                },
                "nodeType": 1
            }
        },
        "gasFlame": [
            {
                "children": [
                    {
                        "children": [
                            {
                                "children": [],
                                "depth": 0,
                                "name": "Initial Gas",
                                "value": 23448
                            },
                            {
                                "children": [
                                    {
                                        "children": [],
                                        "depth": 1,
                                        "name": "owner",
                                        "value": 721
                                    },
                                    {
                                        "children": [
                                            {
                                                "children": [],
                                                "depth": 2,
                                                "name": "fallback",
                                                "value": 0
                                            }
                                        ],
                                        "depth": 1,
                                        "name": "setBalance",
                                        "value": 7633
                                    },
                                    {
                                        "children": [],
                                        "depth": 1,
                                        "name": "owner",
                                        "value": 721
                                    },
                                    {
                                        "children": [],
                                        "depth": 1,
                                        "name": "owner",
                                        "value": 432
                                    },
                                    {
                                        "children": [],
                                        "depth": 1,
                                        "name": "setSubnodeOwner",
                                        "value": 22681
                                    },
                                    {
                                        "children": [],
                                        "depth": 1,
                                        "name": "owner",
                                        "value": 721
                                    }
                                ],
                                "depth": 0,
                                "name": "Executed Gas",
                                "value": 69771
                            }
                        ],
                        "depth": -1,
                        "name": "Actual Gas Used",
                        "value": 93219
                    },
                    {
                        "children": [],
                        "depth": -1,
                        "name": "Refunded Gas",
                        "value": 0
                    }
                ],
                "depth": -2,
                "name": "Total Gas",
                "value": 93219
            }
        ],
        "isConfirmed": true,
        "mainTrace": [
            {
                "children": [
                    {
                        "children": [
                            {
                                "children": [],
                                "depth": 1,
                                "id": 1,
                                "order": 1
                            },
                            {
                                "children": [
                                    {
                                        "children": [],
                                        "depth": 2,
                                        "id": 3,
                                        "order": 3
                                    }
                                ],
                                "depth": 1,
                                "id": 2,
                                "order": 2
                            },
                            {
                                "children": [],
                                "depth": 1,
                                "id": 4,
                                "order": 4
                            },
                            {
                                "children": [],
                                "depth": 1,
                                "id": 5,
                                "order": 5
                            },
                            {
                                "children": [
                                    {
                                        "children": [],
                                        "depth": 2,
                                        "id": 7,
                                        "order": 7
                                    }
                                ],
                                "depth": 1,
                                "id": 6,
                                "order": 6
                            },
                            {
                                "children": [],
                                "depth": 1,
                                "id": 8,
                                "order": 8
                            },
                            {
                                "children": [],
                                "depth": 1,
                                "id": 9,
                                "order": 9
                            }
                        ],
                        "depth": 0,
                        "id": 0,
                        "order": 0
                    }
                ],
                "depth": -1,
                "id": -1,
                "order": -1
            }
        ],
        "mainTraceNodeCount": 10,
        "parentIdMap": {
            "0": -1,
            "1": 0,
            "2": 0,
            "3": 2,
            "4": 0,
            "5": 0,
            "6": 0,
            "7": 6,
            "8": 0,
            "9": 0
        },
        "tidyTrace": [
            {
                "children": [
                    {
                        "children": [
                            {
                                "children": [],
                                "depth": 1,
                                "id": 1,
                                "order": 1
                            },
                            {
                                "children": [
                                    {
                                        "children": [],
                                        "depth": 2,
                                        "id": 3,
                                        "order": 3
                                    }
                                ],
                                "depth": 1,
                                "id": 2,
                                "order": 2
                            },
                            {
                                "children": [],
                                "depth": 1,
                                "id": 4,
                                "order": 4
                            },
                            {
                                "children": [],
                                "depth": 1,
                                "id": 5,
                                "order": 5
                            },
                            {
                                "children": [
                                    {
                                        "children": [],
                                        "depth": 2,
                                        "id": 7,
                                        "order": 7
                                    }
                                ],
                                "depth": 1,
                                "id": 6,
                                "order": 6
                            },
                            {
                                "children": [],
                                "depth": 1,
                                "id": 8,
                                "order": 8
                            },
                            {
                                "children": [],
                                "depth": 1,
                                "id": 9,
                                "order": 9
                            }
                        ],
                        "depth": 0,
                        "id": 0,
                        "order": 0
                    }
                ],
                "depth": -1,
                "id": -1,
                "order": -1
            }
        ],
        "tidyTraceNodeCount": 10
    },
    "state_change": {
        "stateChanges": [
            {
                "address": "0x314159265dd8dbb310642f98f50c066173c1259b",
                "erc": "",
                "slots": [
                    {
                        "current": "0x000000000000000000000000e08c5c6d17be3ab837b421723e9215bb9902c9f1",
                        "key": "0x96efe35414fa73f2ce0363adeaf8931b38a230d455ab994c6925bc9fa9b869be",
                        "prev": "0x0000000000000000000000000000000000000000000000000000000000000000"
                    }
                ],
                "storageVariables": []
            },
            {
                "address": "0x6090a6e47849629b7245dfa1ca21d94cd15878ef",
                "erc": "",
                "slots": [
                    {
                        "current": "0x000000000000000000000000000000000000000000000000002386f26fc10000",
                        "key": "0x6759a81b9ea91b51c339971166ad96a6a20b90199032248b9c0f2e258563fccc",
                        "prev": "0x0000000000000000000000000000000000000000000000000000000000000000"
                    }
                ],
                "storageVariables": []
            }
        ]
    }
}