{
    "balance_change": {
        "balanceChanges": [
            {
                "account": "0x05f761b4260102b195c0d541d946a0302b76b28e",
                "assets": [
                    {
                        "address": "0xc02aaa39b223fe8d0a0e5c4f27ead9083c756cc2",
                        "amount": "0.010634031770705486",
                        "iconUrl": "https://assets.blocksec.com/icon/f1cb2d02c471d545bbc7722daf3277fd852d98e63d118771af7047bd8256c516.png",
                        "isERC1155": false,
                        "isERC721": false,
                        "sign": true,
                        "value": "4.7889138099138270754"
                    }
                ]
            },
            {
                "account": "0x0d0d65e7a7db277d3e0f5e1676325e75f3340455",
                "assets": [
                    {
                        "address": "0xa3bed4e1c75d00fa6f4e5e6922db7261b5e9acd2",
                        "amount": "220.620352347873791642",
                        "iconUrl": "https://assets.blocksec.com/icon/9edd078654d9cced23505b3a7123bf6cecc1151bcc105d3f24e78ae109b3ae0f.png",
                        "isERC1155": false,
                        "isERC721": false,
                        "sign": true,
                        "value": "206.2609844"
                    },
                    {
                        "address": "0xc02aaa39b223fe8d0a0e5c4f27ead9083c756cc2",
                        "amount": "0.498371431656142827",
                        "iconUrl": "https://assets.blocksec.com/icon/f1cb2d02c471d545bbc7722daf3277fd852d98e63d118771af7047bd8256c516.png",
                        "isERC1155": false,
                        "isERC721": false,
                        "sign": false,
                        "value": "224.43583801091612247"
                    }
                ]
            },
            {
                "account": "0x256e337f25a21882102d52f7a6515c85bcca36f4",
                "assets": [
                    {
                        "address": "0x33c2da7fd5b125e629b3950f3c38d7f721d7b30d",
                        "amount": "3.026531001011622215",
                        "iconUrl": "",
                        "isERC1155": false,
                        "isERC721": false,
                        "sign": true,
                        "value": "203.0672383"
                    },
                    {
                        "address": "0xa3bed4e1c75d00fa6f4e5e6922db7261b5e9acd2",
                        "amount": "220.620352347873791642",
                        "iconUrl": "https://assets.blocksec.com/icon/9edd078654d9cced23505b3a7123bf6cecc1151bcc105d3f24e78ae109b3ae0f.png",
                        "isERC1155": false,
                        "isERC721": false,
                        "sign": false,
                        "value": "206.2609844"
                    }
                ]
            },
            {
                "account": "0x9c5999653f44672336c2ef0a0008587fa8b9957e",
                "assets": [
                    {
                        "address": "0xc02aaa39b223fe8d0a0e5c4f27ead9083c756cc2",
                        "amount": "0.487737399885437341",
                        "iconUrl": "https://assets.blocksec.com/icon/f1cb2d02c471d545bbc7722daf3277fd852d98e63d118771af7047bd8256c516.png",
                        "isERC1155": false,
                        "isERC721": false,
                        "sign": true,
                        "value": "219.64692418749214069"
                    },
                    {
                        "address": "0x0e29e5abbb5fd88e28b2d355774e73bd47de3bcd",
                        "amount": "9,359.229192326326242169",
                        "iconUrl": "https://assets.blocksec.com/icon/9b51bb120509f7872fa05b6f4323e96b44b11dcb65a2fb0fd1f1134d158aa659.png",
                        "isERC1155": false,
                        "isERC721": false,
                        "sign": false,
                        "value": "199.2458038"
                    }
                ]
            },
            {
                "account": "0xae590578cc96389fa477d5cc0e461a5beceddf9e",
                "assets": [
                    {
                        "address": "0x0e29e5abbb5fd88e28b2d355774e73bd47de3bcd",
                        "amount": "9,359.229192326326242169",
                        "iconUrl": "https://assets.blocksec.com/icon/9b51bb120509f7872fa05b6f4323e96b44b11dcb65a2fb0fd1f1134d158aa659.png",
                        "isERC1155": false,
                        "isERC721": false,
                        "sign": true,
                        "value": "199.2458038"
                    },
                    {
                        "address": "0x33c2da7fd5b125e629b3950f3c38d7f721d7b30d",
                        "amount": "3.026531001011622215",
                        "iconUrl": "",
                        "isERC1155": false,
                        "isERC721": false,
                        "sign": false,
                        "value": "203.0672383"
                    }
                ]
            }
        ]
    },
    "profile": {
        "basic_info": {
            "baseFee": "",
            "blockNumber": 11199634,
            "callData": "0x38ed173900000000000000000000000000000000000000000000000006c4ca94bfd8199d00000000000000000000000000000000000000000000000006de4a43a30557b100000000000000000000000000000000000000000000000000000000000000a000000000000000000000000005f761b4260102b195c0d541d946a0302b76b28e000000000000000000000000000000000000000000000000000000005fa4709d0000000000000000000000000000000000000000000000000000000000000005000000000000000000000000c02aaa39b223fe8d0a0e5c4f27ead9083c756cc20000000000000000000000000e29e5abbb5fd88e28b2d355774e73bd47de3bcd00000000000000000000000033c2da7fd5b125e629b3950f3c38d7f721d7b30d000000000000000000000000a3bed4e1c75d00fa6f4e5e6922db7261b5e9acd2000000000000000000000000c02aaa39b223fe8d0a0e5c4f27ead9083c756cc2",
            "debugEnable": true,
            "errorInfo": "",
            "eventCount": 13,
            "feeRecipient": "0x5a0b54d5dc17e0aadc383d2db43b0a0d3e029c4c",
            "formatValue": "0",
            "gasLimit": 500000,
            "gasPrice": "27.5828995",
            "gasUsed": 281849,
            "intTxnCount": 21,
            "internalRevert": false,
            "internalRevertMessage": "",
            "isContractCreation": false,
            "isFlashloan": false,
            "maxFee": "",
            "nonce": 4807,
            "overwritedBlockNumber": -1,
            "priorityFee": "",
            "receiver": "0x7a250d5630b4cf539739df2c5dacb4c659f2488d",
            "revertMessage": "",
            "sender": "0x05f761b4260102b195c0d541d946a0302b76b28e",
            "simulationEnable": true,
            "sourceTxnHash": "0x883c561a90b40c161834096c0ff9274a807769b72a9a7f92ae4c946097cc4c53",
            "status": true,
            "timestamp": "2020-11-05T21:17:27Z",
            "transactionFee": "0.0077742126411755",
            "txnHash": "0x883c561a90b40c161834096c0ff9274a807769b72a9a7f92ae4c946097cc4c53",
            "txnIndex": 26,
            "type": 0,
            "value": "0"
        },
        "fund_flow": [
            {
                "amount": "0.487737399885437341",
                "from": "0x05f761b4260102b195c0d541d946a0302b76b28e",
                "id": 1,
                "isERC1155": false,
                "isERC721": false,
                "isReverted": false,
                "order": 1,
                "to": "0x9c5999653f44672336c2ef0a0008587fa8b9957e",
                "token": "0xc02aaa39b223fe8d0a0e5c4f27ead9083c756cc2"
            },
            {
                "amount": "9,359.229192326326242169",
                "from": "0x9c5999653f44672336c2ef0a0008587fa8b9957e",
                "id": 2,
                "isERC1155": false,
                "isERC721": false,
                "isReverted": false,
                "order": 2,
                "to": "0xae590578cc96389fa477d5cc0e461a5beceddf9e",
                "token": "0x0e29e5abbb5fd88e28b2d355774e73bd47de3bcd"
            },
            {
                "amount": "3.026531001011622215",
                "from": "0xae590578cc96389fa477d5cc0e461a5beceddf9e",
                "id": 3,
                "isERC1155": false,
                "isERC721": false,
                "isReverted": false,
                "order": 3,
                "to": "0x256e337f25a21882102d52f7a6515c85bcca36f4",
                "token": "0x33c2da7fd5b125e629b3950f3c38d7f721d7b30d"
            },
            {
                "amount": "220.620352347873791642",
                "from": "0x256e337f25a21882102d52f7a6515c85bcca36f4",
                "id": 4,
                "isERC1155": false,
                "isERC721": false,
                "isReverted": false,
                "order": 4,
                "to": "0x0d0d65e7a7db277d3e0f5e1676325e75f3340455",
                "token": "0xa3bed4e1c75d00fa6f4e5e6922db7261b5e9acd2"
            },
            {
                "amount": "0.498371431656142827",
                "from": "0x0d0d65e7a7db277d3e0f5e1676325e75f3340455",
                "id": 5,
                "isERC1155": false,
                "isERC721": false,
                "isReverted": false,
                "order": 5,
                "to": "0x05f761b4260102b195c0d541d946a0302b76b28e",
                "token": "0xc02aaa39b223fe8d0a0e5c4f27ead9083c756cc2"
            }
        ],
        "token_infos": [
            {
                "address": "0x0e29e5abbb5fd88e28b2d355774e73bd47de3bcd",
                "decimals": 18
            },
            {
                "address": "0x33c2da7fd5b125e629b3950f3c38d7f721d7b30d",
                "decimals": 18
            },
            {
                "address": "0xa3bed4e1c75d00fa6f4e5e6922db7261b5e9acd2",
                "decimals": 18
            },
            {
                "address": "0xc02aaa39b223fe8d0a0e5c4f27ead9083c756cc2",
                "decimals": 18
            },
            {
                "address": "0xeeeeeeeeeeeeeeeeeeeeeeeeeeeeeeeeeeeeeeee",
                "decimals": 18
            }
        ]
    },
    "address_label": {
        "labels": [
            {
                "address": "0xeeeeeeeeeeeeeeeeeeeeeeeeeeeeeeeeeeeeeeee",
                "label": "Ether"
            },
            {
                "address": "0xc02aaa39b223fe8d0a0e5c4f27ead9083c756cc2",
                "label": "Wrapped Ether (WETH)"
            },
            {
                "address": "0x33c2da7fd5b125e629b3950f3c38d7f721d7b30d",
                "label": "Seal Finance: SEAL Token"
            },
            {
                "address": "0x0d0d65e7a7db277d3e0f5e1676325e75f3340455",
                "label": "Uniswap V2: MTA 6"
            },
            {
                "address": "0x0000000000000000000000000000000000000004",
                "label": "Precompiled"
            },
            {
                "address": "0x256e337f25a21882102d52f7a6515c85bcca36f4",
                "label": "Uniswap V2: Seal-MTA"
            },
            {
                "address": "0x0000000000000000000000000000000000000003",
                "label": "Precompiled"
            },
            {
                "address": "0x0000000000000000000000000000000000000001",
                "label": "Precompiled"
            },
            {
                "address": "0x0000000000000000000000000000000000000002",
                "label": "Precompiled"
            },
            {
                "address": "0x7a250d5630b4cf539739df2c5dacb4c659f2488d",
                "label": "Uniswap V2: Router 2"
            },
            {
                "address": "0xae590578cc96389fa477d5cc0e461a5beceddf9e",
                "label": "Uniswap V2: HAKKA-Seal"
            },
            {
                "address": "0x0e29e5abbb5fd88e28b2d355774e73bd47de3bcd",
                "label": "Hakka Finance: HAKKA Token"
            },
            {
                "address": "0xa3bed4e1c75d00fa6f4e5e6922db7261b5e9acd2",
                "label": "mStable: MTA Token"
            },
            {
                "address": "0x9c5999653f44672336c2ef0a0008587fa8b9957e",
                "label": "Uniswap V2: HAKKA 2"
            }
        ]
    },
    "trace": {
        "accountLabels": null,
        "dataMap": {
            "-1": {
                "invocation": {
                    "address": "0x05f761b4260102b195c0d541d946a0302b76b28e",
                    "callData": "",
                    "decodedMethod": null,
                    "errorInfo": "",
                    "fromAddress": "",
                    "gasUsed": 0,
                    "id": -1,
                    "methodDecoded": false,
                    "operation": "",
                    "output": "",
                    "revert": false,
                    "revertMessage": "",
                    "selector": "",
                    "status": false,
                    "value": ""
                },
                "nodeType": 0
            },
            "0": {
                "invocation": {
                    "address": "0x7a250d5630b4cf539739df2c5dacb4c659f2488d",
                    "callData": "0x00000000000000000000000000000000000000000000000006c4ca94bfd8199d00000000000000000000000000000000000000000000000006de4a43a30557b100000000000000000000000000000000000000000000000000000000000000a000000000000000000000000005f761b4260102b195c0d541d946a0302b76b28e000000000000000000000000000000000000000000000000000000005fa4709d0000000000000000000000000000000000000000000000000000000000000005000000000000000000000000c02aaa39b223fe8d0a0e5c4f27ead9083c756cc20000000000000000000000000e29e5abbb5fd88e28b2d355774e73bd47de3bcd00000000000000000000000033c2da7fd5b125e629b3950f3c38d7f721d7b30d000000000000000000000000a3bed4e1c75d00fa6f4e5e6922db7261b5e9acd2000000000000000000000000c02aaa39b223fe8d0a0e5c4f27ead9083c756cc2",
                    "decodedMethod": {
                        "callParams": [
                            {
                                "name": "amountIn",
                                "type": "uint256",
                                "value": "487,737,399,885,437,341"
                            },
                            {
                                "name": "amountOutMin",
                                "type": "uint256",
                                "value": "494,914,663,415,633,841"
                            },
                            {
                                "name": "path",
                                "type": "address[]",
                                "value": [
                                    "0xc02aaa39b223fe8d0a0e5c4f27ead9083c756cc2",
                                    "0x0e29e5abbb5fd88e28b2d355774e73bd47de3bcd",
                                    "0x33c2da7fd5b125e629b3950f3c38d7f721d7b30d",
                                    "0xa3bed4e1c75d00fa6f4e5e6922db7261b5e9acd2",
                                    "0xc02aaa39b223fe8d0a0e5c4f27ead9083c756cc2"
                                ]
                            },
                            {
                                "name": "to",
                                "type": "address",
                                "value": "0x05f761b4260102b195c0d541d946a0302b76b28e"
                            },
                            {
                                "name": "deadline",
                                "type": "uint256",
                                "value": "1,604,612,253"
                            }
                        ],
                        "constructorArguments": "",
                        "name": "swapExactTokensForTokens",
                        "returnParams": [
                            {
                                "name": "amounts",
                                "type": "uint256[]",
                                "value": [
                                    "487,737,399,885,437,341",
                                    "9,359,229,192,326,326,242,168",
                                    "3,026,531,001,011,622,215",
                                    "220,620,352,347,873,791,642",
                                    "498,371,431,656,142,827"
                                ]
                            }
                        ],
                        "signature": "swapExactTokensForTokens(uint256,uint256,address[],address,uint256)"
                    },
                    "errorInfo": "",
                    "fromAddress": "0x05f761b4260102b195c0d541d946a0302b76b28e",
                    "gasUsed": 281849,
                    "id": 0,
                    "methodDecoded": true,
                    "operation": "CALL",
                    "output": "0x0000000000000000000000000000000000000000000000000000000000000020000000000000000000000000000000000000000000000000000000000000000500000000000000000000000000000000000000000000000006c4ca94bfd8199d0000000000000000000000000000000000000000000001fb5d6593196cc7cb780000000000000000000000000000000000000000000000002a0065e90101514700000000000000000000000000000000000000000000000bf5b8f1904c88ce9a00000000000000000000000000000000000000000000000006ea922d361137eb",
                    "revert": false,
                    "revertMessage": "",
                    "selector": "0x38ed1739",
                    "status": true,
                    "value": "0"
                },
                "nodeType": 0
            },
            "1": {
                "invocation": {
                    "address": "0x9c5999653f44672336c2ef0a0008587fa8b9957e",
                    "callData": "0x",
                    "decodedMethod": {
                        "callParams": [],
                        "constructorArguments": "",
                        "name": "getReserves",
                        "returnParams": [
                            {
                                "name": "_reserve0",
                                "type": "uint112",
                                "value": "2,660,385,644,827,100,233,317,250"
                            },
                            {
                                "name": "_reserve1",
                                "type": "uint112",
                                "value": "137,738,449,428,432,345,537"
                            },
                            {
                                "name": "_blockTimestampLast",
                                "type": "uint32",
                                "value": "1,604,611,031"
                            }
                        ],
                        "signature": "getReserves()"
                    },
                    "errorInfo": "",
                    "fromAddress": "0x7a250d5630b4cf539739df2c5dacb4c659f2488d",
                    "gasUsed": 1204,
                    "id": 1,
                    "methodDecoded": true,
                    "operation": "STATICCALL",
                    "output": "0x00000000000000000000000000000000000000000002335bcb774300bed7bb82000000000000000000000000000000000000000000000007778145fc4ed0d9c1000000000000000000000000000000000000000000000000000000005fa46bd7",
                    "revert": false,
                    "revertMessage": "",
                    "selector": "0x0902f1ac",
                    "status": true,
                    "value": "0"
                },
                "nodeType": 0
            },
            "10": {
                "invocation": {
                    "address": "0x0e29e5abbb5fd88e28b2d355774e73bd47de3bcd",
                    "callData": "0x0000000000000000000000009c5999653f44672336c2ef0a0008587fa8b9957e",
                    "decodedMethod": {
                        "callParams": [
                            {
                                "name": "",
                                "type": "address",
                                "value": "0x9c5999653f44672336c2ef0a0008587fa8b9957e"
                            }
                        ],
                        "constructorArguments": "",
                        "name": "balanceOf",
                        "returnParams": [
                            {
                                "decimalAvailable": true,
                                "name": "",
                                "type": "uint256",
                                "value": "2,651,026,415,634,773,907,075,082"
                            }
                        ],
                        "signature": "balanceOf(address)"
                    },
                    "errorInfo": "",
                    "fromAddress": "0x9c5999653f44672336c2ef0a0008587fa8b9957e",
                    "gasUsed": 1147,
                    "id": 10,
                    "methodDecoded": true,
                    "operation": "STATICCALL",
                    "output": "0x0000000000000000000000000000000000000000000231606e11afe7520ff00a",
                    "revert": false,
                    "revertMessage": "",
                    "selector": "0x70a08231",
                    "status": true,
                    "value": "0"
                },
                "nodeType": 0
            },
            "11": {
                "invocation": {
                    "address": "0xc02aaa39b223fe8d0a0e5c4f27ead9083c756cc2",
                    "callData": "0x0000000000000000000000009c5999653f44672336c2ef0a0008587fa8b9957e",
                    "decodedMethod": {
                        "callParams": [
                            {
                                "name": "",
                                "type": "address",
                                "value": "0x9c5999653f44672336c2ef0a0008587fa8b9957e"
                            }
                        ],
                        "constructorArguments": "",
                        "name": "balanceOf",
                        "returnParams": [
                            {
                                "decimalAvailable": true,
                                "name": "",
                                "type": "uint256",
                                "value": "138,226,186,828,317,782,878"
                            }
                        ],
                        "signature": "balanceOf(address)"
                    },
                    "errorInfo": "",
                    "fromAddress": "0x9c5999653f44672336c2ef0a0008587fa8b9957e",
                    "gasUsed": 1234,
                    "id": 11,
                    "methodDecoded": true,
                    "operation": "STATICCALL",
                    "output": "0x0000000000000000000000000000000000000000000000077e4610910ea8f35e",
                    "revert": false,
                    "revertMessage": "",
                    "selector": "0x70a08231",
                    "status": true,
                    "value": "0"
                },
                "nodeType": 0
            },
            "12": {
                "event": {
                    "contract": "0x9c5999653f44672336c2ef0a0008587fa8b9957e",
                    "decodedLog": {
                        "name": "Sync",
                        "params": [
                            {
                                "name": "reserve0",
                                "type": "uint112",
                                "value": "2,651,026,415,634,773,907,075,082"
                            },
                            {
                                "name": "reserve1",
                                "type": "uint112",
                                "value": "138,226,186,828,317,782,878"
                            }
                        ],
                        "signature": "Sync(uint112,uint112)"
                    },
                    "id": 12,
                    "logData": "0x0000000000000000000000000000000000000000000231606e11afe7520ff00a0000000000000000000000000000000000000000000000077e4610910ea8f35e",
                    "logDecoded": true,
                    "operation": "EVENT",
                    "revert": false,
                    "status": true,
                    "topics": [
                        "0x1c411e9a96e071241c2f21f7726b17ae89e3cab4c78be50e062b03a9fffbbad1"
                    ]
                },
                "nodeType": 1
            },
            "13": {
                "event": {
                    "contract": "0x9c5999653f44672336c2ef0a0008587fa8b9957e",
                    "decodedLog": {
                        "name": "Swap",
                        "params": [
                            {
                                "name": "sender",
                                "type": "address",
                                "value": "0x7a250d5630b4cf539739df2c5dacb4c659f2488d"
                            },
                            {
                                "name": "to",
                                "type": "address",
                                "value": "0xae590578cc96389fa477d5cc0e461a5beceddf9e"
                            },
                            {
                                "name": "amount0In",
                                "type": "uint256",
                                "value": "0"
                            },
                            {
                                "name": "amount1In",
                                "type": "uint256",
                                "value": "487,737,399,885,437,341"
                            },
                            {
                                "name": "amount0Out",
                                "type": "uint256",
                                "value": "9,359,229,192,326,326,242,168"
                            },
                            {
                                "name": "amount1Out",
                                "type": "uint256",
                                "value": "0"
                            }
                        ],
                        "signature": "Swap(address,uint256,uint256,uint256,uint256,address)"
                    },
                    "id": 13,
                    "logData": "0x000000000000000000000000000000000000000000000000000000000000000000000000000000000000000000000000000000000000000006c4ca94bfd8199d0000000000000000000000000000000000000000000001fb5d6593196cc7cb780000000000000000000000000000000000000000000000000000000000000000",
                    "logDecoded": true,
                    "operation": "EVENT",
                    "revert": false,
                    "status": true,
                    "topics": [
                        "0xd78ad95fa46c994b6551d0da85fc275fe613ce37657fb8d5e3d130840159d822",
                        "0x0000000000000000000000007a250d5630b4cf539739df2c5dacb4c659f2488d",
                        "0x000000000000000000000000ae590578cc96389fa477d5cc0e461a5beceddf9e"
                    ]
                },
                "nodeType": 1
            },
            "14": {
                "invocation": {
                    "address": "0xae590578cc96389fa477d5cc0e461a5beceddf9e",
                    "callData": "0x00000000000000000000000000000000000000000000000000000000000000000000000000000000000000000000000000000000000000002a0065e901015147000000000000000000000000256e337f25a21882102d52f7a6515c85bcca36f400000000000000000000000000000000000000000000000000000000000000800000000000000000000000000000000000000000000000000000000000000000",
                    "decodedMethod": {
                        "callParams": [
                            {
                                "name": "amount0Out",
                                "type": "uint256",
                                "value": "0"
                            },
                            {
                                "name": "amount1Out",
                                "type": "uint256",
                                "value": "3,026,531,001,011,622,215"
                            },
                            {
                                "name": "to",
                                "type": "address",
                                "value": "0x256e337f25a21882102d52f7a6515c85bcca36f4"
                            },
                            {
                                "name": "data",
                                "type": "bytes",
                                "value": "0x"
                            }
                        ],
                        "constructorArguments": "",
                        "name": "swap",
                        "returnParams": [],
                        "signature": "swap(uint256,uint256,address,bytes)"
                    },
                    "errorInfo": "",
                    "fromAddress": "0x7a250d5630b4cf539739df2c5dacb4c659f2488d",
                    "gasUsed": 55807,
                    "id": 14,
                    "methodDecoded": true,
                    "operation": "CALL",
                    "output": "",
                    "revert": false,
                    "revertMessage": "",
                    "selector": "0x022c0d9f",
                    "status": true,
                    "value": "0"
                },
                "nodeType": 0
            },
            "15": {
                "invocation": {
                    "address": "0x33c2da7fd5b125e629b3950f3c38d7f721d7b30d",
                    "callData": "0x000000000000000000000000256e337f25a21882102d52f7a6515c85bcca36f40000000000000000000000000000000000000000000000002a0065e901015147",
                    "decodedMethod": {
                        "callParams": [
                            {
                                "name": "to",
                                "type": "address",
                                "value": "0x256e337f25a21882102d52f7a6515c85bcca36f4"
                            },
                            {
                                "decimalAvailable": true,
                                "name": "value",
                                "type": "uint256",
                                "value": "3,026,531,001,011,622,215"
                            }
                        ],
                        "constructorArguments": "",
                        "name": "transfer",
                        "returnParams": [
                            {
                                "name": "",
                                "type": "bool",
                                "value": true
                            }
                        ],
                        "signature": "transfer(address,uint256)"
                    },
                    "errorInfo": "",
                    "fromAddress": "0xae590578cc96389fa477d5cc0e461a5beceddf9e",
                    "gasUsed": 14403,
                    "id": 15,
                    "methodDecoded": true,
                    "operation": "CALL",
                    "output": "0x0000000000000000000000000000000000000000000000000000000000000001",
                    "revert": false,
                    "revertMessage": "",
                    "selector": "0xa9059cbb",
                    "status": true,
                    "value": "0"
                },
                "nodeType": 0
            },
            "16": {
                "event": {
                    "contract": "0x33c2da7fd5b125e629b3950f3c38d7f721d7b30d",
                    "decodedLog": {
                        "name": "Transfer",
                        "params": [
                            {
                                "name": "from",
                                "type": "address",
                                "value": "0xae590578cc96389fa477d5cc0e461a5beceddf9e"
                            },
                            {
                                "name": "to",
                                "type": "address",
                                "value": "0x256e337f25a21882102d52f7a6515c85bcca36f4"
                            },
                            {
                                "decimalAvailable": true,
                                "name": "value",
                                "type": "uint256",
                                "value": "3,026,531,001,011,622,215"
                            }
                        ],
                        "signature": "Transfer(address,address,uint256)"
                    },
                    "id": 16,
                    "logData": "0x0000000000000000000000000000000000000000000000002a0065e901015147",
                    "logDecoded": true,
                    "operation": "EVENT",
                    "revert": false,
                    "status": true,
                    "topics": [
                        "0xddf252ad1be2c89b69c2b068fc378daa952ba7f163c4a11628f55a4df523b3ef",
                        "0x000000000000000000000000ae590578cc96389fa477d5cc0e461a5beceddf9e",
                        "0x000000000000000000000000256e337f25a21882102d52f7a6515c85bcca36f4"
                    ]
                },
                "nodeType": 1
            },
            "17": {
                "invocation": {
                    "address": "0x0e29e5abbb5fd88e28b2d355774e73bd47de3bcd",
                    "callData": "0x000000000000000000000000ae590578cc96389fa477d5cc0e461a5beceddf9e",
                    "decodedMethod": {
                        "callParams": [
                            {
                                "name": "",
                                "type": "address",
                                "value": "0xae590578cc96389fa477d5cc0e461a5beceddf9e"
                            }
                        ],
                        "constructorArguments": "",
                        "name": "balanceOf",
                        "returnParams": [
                            {
                                "decimalAvailable": true,
                                "name": "",
                                "type": "uint256",
                                "value": "2,527,258,402,934,962,643,630,628"
                            }
                        ],
                        "signature": "balanceOf(address)"
                    },
                    "errorInfo": "",
                    "fromAddress": "0xae590578cc96389fa477d5cc0e461a5beceddf9e",
                    "gasUsed": 1147,
                    "id": 17,
                    "methodDecoded": true,
                    "operation": "STATICCALL",
                    "output": "0x00000000000000000000000000000000000000000002172af3d9f875f41d7a24",
                    "revert": false,
                    "revertMessage": "",
                    "selector": "0x70a08231",
                    "status": true,
                    "value": "0"
                },
                "nodeType": 0
            },
            "18": {
                "invocation": {
                    "address": "0x33c2da7fd5b125e629b3950f3c38d7f721d7b30d",
                    "callData": "0x000000000000000000000000ae590578cc96389fa477d5cc0e461a5beceddf9e",
                    "decodedMethod": {
                        "callParams": [
                            {
                                "name": "owner",
                                "type": "address",
                                "value": "0xae590578cc96389fa477d5cc0e461a5beceddf9e"
                            }
                        ],
                        "constructorArguments": "",
                        "name": "balanceOf",
                        "returnParams": [
                            {
                                "decimalAvailable": true,
                                "name": "",
                                "type": "uint256",
                                "value": "816,673,044,358,456,047,974"
                            }
                        ],
                        "signature": "balanceOf(address)"
                    },
                    "errorInfo": "",
                    "fromAddress": "0xae590578cc96389fa477d5cc0e461a5beceddf9e",
                    "gasUsed": 1234,
                    "id": 18,
                    "methodDecoded": true,
                    "operation": "STATICCALL",
                    "output": "0x00000000000000000000000000000000000000000000002c459d7eecbe9a7966",
                    "revert": false,
                    "revertMessage": "",
                    "selector": "0x70a08231",
                    "status": true,
                    "value": "0"
                },
                "nodeType": 0
            },
            "19": {
                "event": {
                    "contract": "0xae590578cc96389fa477d5cc0e461a5beceddf9e",
                    "decodedLog": {
                        "name": "Sync",
                        "params": [
                            {
                                "name": "reserve0",
                                "type": "uint112",
                                "value": "2,527,258,402,934,962,643,630,628"
                            },
                            {
                                "name": "reserve1",
                                "type": "uint112",
                                "value": "816,673,044,358,456,047,974"
                            }
                        ],
                        "signature": "Sync(uint112,uint112)"
                    },
                    "id": 19,
                    "logData": "0x00000000000000000000000000000000000000000002172af3d9f875f41d7a2400000000000000000000000000000000000000000000002c459d7eecbe9a7966",
                    "logDecoded": true,
                    "operation": "EVENT",
                    "revert": false,
                    "status": true,
                    "topics": [
                        "0x1c411e9a96e071241c2f21f7726b17ae89e3cab4c78be50e062b03a9fffbbad1"
                    ]
                },
                "nodeType": 1
            },
            "2": {
                "invocation": {
                    "address": "0xae590578cc96389fa477d5cc0e461a5beceddf9e",
                    "callData": "0x",
                    "decodedMethod": {
                        "callParams": [],
                        "constructorArguments": "",
                        "name": "getReserves",
                        "returnParams": [
                            {
                                "name": "_reserve0",
                                "type": "uint112",
                                "value": "2,517,899,173,742,636,317,388,460"
                            },
                            {
                                "name": "_reserve1",
                                "type": "uint112",
                                "value": "819,699,575,359,467,670,189"
                            },
                            {
                                "name": "_blockTimestampLast",
                                "type": "uint32",
                                "value": "1,604,611,031"
                            }
                        ],
                        "signature": "getReserves()"
                    },
                    "errorInfo": "",
                    "fromAddress": "0x7a250d5630b4cf539739df2c5dacb4c659f2488d",
                    "gasUsed": 1204,
                    "id": 2,
                    "methodDecoded": true,
                    "operation": "STATICCALL",
                    "output": "0x00000000000000000000000000000000000000000002152f9674655c8755aeac00000000000000000000000000000000000000000000002c6f9de4d5bf9bcaad000000000000000000000000000000000000000000000000000000005fa46bd7",
                    "revert": false,
                    "revertMessage": "",
                    "selector": "0x0902f1ac",
                    "status": true,
                    "value": "0"
                },
                "nodeType": 0
            },
            "20": {
                "event": {
                    "contract": "0xae590578cc96389fa477d5cc0e461a5beceddf9e",
                    "decodedLog": {
                        "name": "Swap",
                        "params": [
                            {
                                "name": "sender",
                                "type": "address",
                                "value": "0x7a250d5630b4cf539739df2c5dacb4c659f2488d"
                            },
                            {
                                "name": "to",
                                "type": "address",
                                "value": "0x256e337f25a21882102d52f7a6515c85bcca36f4"
                            },
                            {
                                "name": "amount0In",
                                "type": "uint256",
                                "value": "9,359,229,192,326,326,242,168"
                            },
                            {
                                "name": "amount1In",
                                "type": "uint256",
                                "value": "0"
                            },
                            {
                                "name": "amount0Out",
                                "type": "uint256",
                                "value": "0"
                            },
                            {
                                "name": "amount1Out",
                                "type": "uint256",
                                "value": "3,026,531,001,011,622,215"
                            }
                        ],
                        "signature": "Swap(address,uint256,uint256,uint256,uint256,address)"
                    },
                    "id": 20,
                    "logData": "0x0000000000000000000000000000000000000000000001fb5d6593196cc7cb78000000000000000000000000000000000000000000000000000000000000000000000000000000000000000000000000000000000000000000000000000000000000000000000000000000000000000000000000000000002a0065e901015147",
                    "logDecoded": true,
                    "operation": "EVENT",
                    "revert": false,
                    "status": true,
                    "topics": [
                        "0xd78ad95fa46c994b6551d0da85fc275fe613ce37657fb8d5e3d130840159d822",
                        "0x0000000000000000000000007a250d5630b4cf539739df2c5dacb4c659f2488d",
                        "0x000000000000000000000000256e337f25a21882102d52f7a6515c85bcca36f4"
                    ]
                },
                "nodeType": 1
            },
            "21": {
                "invocation": {
                    "address": "0x256e337f25a21882102d52f7a6515c85bcca36f4",
                    "callData": "0x000000000000000000000000000000000000000000000000000000000000000000000000000000000000000000000000000000000000000bf5b8f1904c88ce9a0000000000000000000000000d0d65e7a7db277d3e0f5e1676325e75f334045500000000000000000000000000000000000000000000000000000000000000800000000000000000000000000000000000000000000000000000000000000000",
                    "decodedMethod": {
                        "callParams": [
                            {
                                "name": "amount0Out",
                                "type": "uint256",
                                "value": "0"
                            },
                            {
                                "name": "amount1Out",
                                "type": "uint256",
                                "value": "220,620,352,347,873,791,642"
                            },
                            {
                                "name": "to",
                                "type": "address",
                                "value": "0x0d0d65e7a7db277d3e0f5e1676325e75f3340455"
                            },
                            {
                                "name": "data",
                                "type": "bytes",
                                "value": "0x"
                            }
                        ],
                        "constructorArguments": "",
                        "name": "swap",
                        "returnParams": [],
                        "signature": "swap(uint256,uint256,address,bytes)"
                    },
                    "errorInfo": "",
                    "fromAddress": "0x7a250d5630b4cf539739df2c5dacb4c659f2488d",
                    "gasUsed": 55937,
                    "id": 21,
                    "methodDecoded": true,
                    "operation": "CALL",
                    "output": "",
                    "revert": false,
                    "revertMessage": "",
                    "selector": "0x022c0d9f",
                    "status": true,
                    "value": "0"
                },
                "nodeType": 0
            },
            "22": {
                "invocation": {
                    "address": "0xa3bed4e1c75d00fa6f4e5e6922db7261b5e9acd2",
                    "callData": "0x0000000000000000000000000d0d65e7a7db277d3e0f5e1676325e75f334045500000000000000000000000000000000000000000000000bf5b8f1904c88ce9a",
                    "decodedMethod": {
                        "callParams": [
                            {
                                "name": "recipient",
                                "type": "address",
                                "value": "0x0d0d65e7a7db277d3e0f5e1676325e75f3340455"
                            },
                            {
                                "decimalAvailable": true,
                                "name": "amount",
                                "type": "uint256",
                                "value": "220,620,352,347,873,791,642"
                            }
                        ],
                        "constructorArguments": "",
                        "name": "transfer",
                        "returnParams": [
                            {
                                "name": "",
                                "type": "bool",
                                "value": true
                            }
                        ],
                        "signature": "transfer(address,uint256)"
                    },
                    "errorInfo": "",
                    "fromAddress": "0x256e337f25a21882102d52f7a6515c85bcca36f4",
                    "gasUsed": 14515,
                    "id": 22,
                    "methodDecoded": true,
                    "operation": "CALL",
                    "output": "0x0000000000000000000000000000000000000000000000000000000000000001",
                    "revert": false,
                    "revertMessage": "",
                    "selector": "0xa9059cbb",
                    "status": true,
                    "value": "0"
                },
                "nodeType": 0
            },
            "23": {
                "event": {
                    "contract": "0xa3bed4e1c75d00fa6f4e5e6922db7261b5e9acd2",
                    "decodedLog": {
                        "name": "Transfer",
                        "params": [
                            {
                                "name": "from",
                                "type": "address",
                                "value": "0x256e337f25a21882102d52f7a6515c85bcca36f4"
                            },
                            {
                                "name": "to",
                                "type": "address",
                                "value": "0x0d0d65e7a7db277d3e0f5e1676325e75f3340455"
                            },
                            {
                                "decimalAvailable": true,
                                "name": "value",
                                "type": "uint256",
                                "value": "220,620,352,347,873,791,642"
                            }
                        ],
                        "signature": "Transfer(address,address,uint256)"
                    },
                    "id": 23,
                    "logData": "0x00000000000000000000000000000000000000000000000bf5b8f1904c88ce9a",
                    "logDecoded": true,
                    "operation": "EVENT",
                    "revert": false,
                    "status": true,
                    "topics": [
                        "0xddf252ad1be2c89b69c2b068fc378daa952ba7f163c4a11628f55a4df523b3ef",
                        "0x000000000000000000000000256e337f25a21882102d52f7a6515c85bcca36f4",
                        "0x0000000000000000000000000d0d65e7a7db277d3e0f5e1676325e75f3340455"
                    ]
                },
                "nodeType": 1
            },
            "24": {
                "invocation": {
                    "address": "0x33c2da7fd5b125e629b3950f3c38d7f721d7b30d",
                    "callData": "0x000000000000000000000000256e337f25a21882102d52f7a6515c85bcca36f4",
                    "decodedMethod": {
                        "callParams": [
                            {
                                "name": "owner",
                                "type": "address",
                                "value": "0x256e337f25a21882102d52f7a6515c85bcca36f4"
                            }
                        ],
                        "constructorArguments": "",
                        "name": "balanceOf",
                        "returnParams": [
                            {
                                "decimalAvailable": true,
                                "name": "",
                                "type": "uint256",
                                "value": "214,503,266,981,591,056,110"
                            }
                        ],
                        "signature": "balanceOf(address)"
                    },
                    "errorInfo": "",
                    "fromAddress": "0x256e337f25a21882102d52f7a6515c85bcca36f4",
                    "gasUsed": 1234,
                    "id": 24,
                    "methodDecoded": true,
                    "operation": "STATICCALL",
                    "output": "0x00000000000000000000000000000000000000000000000ba0d4b0d52e82feee",
                    "revert": false,
                    "revertMessage": "",
                    "selector": "0x70a08231",
                    "status": true,
                    "value": "0"
                },
                "nodeType": 0
            },
            "25": {
                "invocation": {
                    "address": "0xa3bed4e1c75d00fa6f4e5e6922db7261b5e9acd2",
                    "callData": "0x000000000000000000000000256e337f25a21882102d52f7a6515c85bcca36f4",
                    "decodedMethod": {
                        "callParams": [
                            {
                                "name": "account",
                                "type": "address",
                                "value": "0x256e337f25a21882102d52f7a6515c85bcca36f4"
                            }
                        ],
                        "constructorArguments": "",
                        "name": "balanceOf",
                        "returnParams": [
                            {
                                "decimalAvailable": true,
                                "name": "",
                                "type": "uint256",
                                "value": "15,462,078,985,459,153,946,080"
                            }
                        ],
                        "signature": "balanceOf(address)"
                    },
                    "errorInfo": "",
                    "fromAddress": "0x256e337f25a21882102d52f7a6515c85bcca36f4",
                    "gasUsed": 1165,
                    "id": 25,
                    "methodDecoded": true,
                    "operation": "STATICCALL",
                    "output": "0x000000000000000000000000000000000000000000000346337383ab6d22c5e0",
                    "revert": false,
                    "revertMessage": "",
                    "selector": "0x70a08231",
                    "status": true,
                    "value": "0"
                },
                "nodeType": 0
            },
            "26": {
                "event": {
                    "contract": "0x256e337f25a21882102d52f7a6515c85bcca36f4",
                    "decodedLog": {
                        "name": "Sync",
                        "params": [
                            {
                                "name": "reserve0",
                                "type": "uint112",
                                "value": "214,503,266,981,591,056,110"
                            },
                            {
                                "name": "reserve1",
                                "type": "uint112",
                                "value": "15,462,078,985,459,153,946,080"
                            }
                        ],
                        "signature": "Sync(uint112,uint112)"
                    },
                    "id": 26,
                    "logData": "0x00000000000000000000000000000000000000000000000ba0d4b0d52e82feee000000000000000000000000000000000000000000000346337383ab6d22c5e0",
                    "logDecoded": true,
                    "operation": "EVENT",
                    "revert": false,
                    "status": true,
                    "topics": [
                        "0x1c411e9a96e071241c2f21f7726b17ae89e3cab4c78be50e062b03a9fffbbad1"
                    ]
                },
                "nodeType": 1
            },
            "27": {
                "event": {
                    "contract": "0x256e337f25a21882102d52f7a6515c85bcca36f4",
                    "decodedLog": {
                        "name": "Swap",
                        "params": [
                            {
                                "name": "sender",
                                "type": "address",
                                "value": "0x7a250d5630b4cf539739df2c5dacb4c659f2488d"
                            },
                            {
                                "name": "to",
                                "type": "address",
                                "value": "0x0d0d65e7a7db277d3e0f5e1676325e75f3340455"
                            },
                            {
                                "name": "amount0In",
                                "type": "uint256",
                                "value": "3,026,531,001,011,622,215"
                            },
                            {
                                "name": "amount1In",
                                "type": "uint256",
                                "value": "0"
                            },
                            {
                                "name": "amount0Out",
                                "type": "uint256",
                                "value": "0"
                            },
                            {
                                "name": "amount1Out",
                                "type": "uint256",
                                "value": "220,620,352,347,873,791,642"
                            }
                        ],
                        "signature": "Swap(address,uint256,uint256,uint256,uint256,address)"
                    },
                    "id": 27,
                    "logData": "0x0000000000000000000000000000000000000000000000002a0065e9010151470000000000000000000000000000000000000000000000000000000000000000000000000000000000000000000000000000000000000000000000000000000000000000000000000000000000000000000000000000000bf5b8f1904c88ce9a",
                    "logDecoded": true,
                    "operation": "EVENT",
                    "revert": false,
                    "status": true,
                    "topics": [
                        "0xd78ad95fa46c994b6551d0da85fc275fe613ce37657fb8d5e3d130840159d822",
                        "0x0000000000000000000000007a250d5630b4cf539739df2c5dacb4c659f2488d",
                        "0x0000000000000000000000000d0d65e7a7db277d3e0f5e1676325e75f3340455"
                    ]
                },
                "nodeType": 1
            },
            "28": {
                "invocation": {
                    "address": "0x0d0d65e7a7db277d3e0f5e1676325e75f3340455",
                    "callData": "0x000000000000000000000000000000000000000000000000000000000000000000000000000000000000000000000000000000000000000006ea922d361137eb00000000000000000000000005f761b4260102b195c0d541d946a0302b76b28e00000000000000000000000000000000000000000000000000000000000000800000000000000000000000000000000000000000000000000000000000000000",
                    "decodedMethod": {
                        "callParams": [
                            {
                                "name": "amount0Out",
                                "type": "uint256",
                                "value": "0"
                            },
                            {
                                "name": "amount1Out",
                                "type": "uint256",
                                "value": "498,371,431,656,142,827"
                            },
                            {
                                "name": "to",
                                "type": "address",
                                "value": "0x05f761b4260102b195c0d541d946a0302b76b28e"
                            },
                            {
                                "name": "data",
                                "type": "bytes",
                                "value": "0x"
                            }
                        ],
                        "constructorArguments": "",
                        "name": "swap",
                        "returnParams": [],
                        "signature": "swap(uint256,uint256,address,bytes)"
                    },
                    "errorInfo": "",
                    "fromAddress": "0x7a250d5630b4cf539739df2c5dacb4c659f2488d",
                    "gasUsed": 52384,
                    "id": 28,
                    "methodDecoded": true,
                    "operation": "CALL",
                    "output": "",
                    "revert": false,
                    "revertMessage": "",
                    "selector": "0x022c0d9f",
                    "status": true,
                    "value": "0"
                },
                "nodeType": 0
            },
            "29": {
                "invocation": {
                    "address": "0xc02aaa39b223fe8d0a0e5c4f27ead9083c756cc2",
                    "callData": "0x00000000000000000000000005f761b4260102b195c0d541d946a0302b76b28e00000000000000000000000000000000000000000000000006ea922d361137eb",
                    "decodedMethod": {
                        "callParams": [
                            {
                                "name": "dst",
                                "type": "address",
                                "value": "0x05f761b4260102b195c0d541d946a0302b76b28e"
                            },
                            {
                                "decimalAvailable": true,
                                "name": "wad",
                                "type": "uint256",
                                "value": "498,371,431,656,142,827"
                            }
                        ],
                        "constructorArguments": "",
                        "name": "transfer",
                        "returnParams": [
                            {
                                "name": "",
                                "type": "bool",
                                "value": true
                            }
                        ],
                        "signature": "transfer(address,uint256)"
                    },
                    "errorInfo": "",
                    "fromAddress": "0x0d0d65e7a7db277d3e0f5e1676325e75f3340455",
                    "gasUsed": 10962,
                    "id": 29,
                    "methodDecoded": true,
                    "operation": "CALL",
                    "output": "0x0000000000000000000000000000000000000000000000000000000000000001",
                    "revert": false,
                    "revertMessage": "",
                    "selector": "0xa9059cbb",
                    "status": true,
                    "value": "0"
                },
                "nodeType": 0
            },
            "3": {
                "invocation": {
                    "address": "0x256e337f25a21882102d52f7a6515c85bcca36f4",
                    "callData": "0x",
                    "decodedMethod": {
                        "callParams": [],
                        "constructorArguments": "",
                        "name": "getReserves",
                        "returnParams": [
                            {
                                "name": "_reserve0",
                                "type": "uint112",
                                "value": "211,476,735,980,579,433,895"
                            },
                            {
                                "name": "_reserve1",
                                "type": "uint112",
                                "value": "15,682,699,337,807,027,737,722"
                            },
                            {
                                "name": "_blockTimestampLast",
                                "type": "uint32",
                                "value": "1,604,592,596"
                            }
                        ],
                        "signature": "getReserves()"
                    },
                    "errorInfo": "",
                    "fromAddress": "0x7a250d5630b4cf539739df2c5dacb4c659f2488d",
                    "gasUsed": 1204,
                    "id": 3,
                    "methodDecoded": true,
                    "operation": "STATICCALL",
                    "output": "0x00000000000000000000000000000000000000000000000b76d44aec2d81ada7000000000000000000000000000000000000000000000352292c753bb9ab947a000000000000000000000000000000000000000000000000000000005fa423d4",
                    "revert": false,
                    "revertMessage": "",
                    "selector": "0x0902f1ac",
                    "status": true,
                    "value": "0"
                },
                "nodeType": 0
            },
            "30": {
                "event": {
                    "contract": "0xc02aaa39b223fe8d0a0e5c4f27ead9083c756cc2",
                    "decodedLog": {
                        "name": "Transfer",
                        "params": [
                            {
                                "name": "src",
                                "type": "address",
                                "value": "0x0d0d65e7a7db277d3e0f5e1676325e75f3340455"
                            },
                            {
                                "name": "dst",
                                "type": "address",
                                "value": "0x05f761b4260102b195c0d541d946a0302b76b28e"
                            },
                            {
                                "decimalAvailable": true,
                                "name": "wad",
                                "type": "uint256",
                                "value": "498,371,431,656,142,827"
                            }
                        ],
                        "signature": "Transfer(address,address,uint256)"
                    },
                    "id": 30,
                    "logData": "0x00000000000000000000000000000000000000000000000006ea922d361137eb",
                    "logDecoded": true,
                    "operation": "EVENT",
                    "revert": false,
                    "status": true,
                    "topics": [
                        "0xddf252ad1be2c89b69c2b068fc378daa952ba7f163c4a11628f55a4df523b3ef",
                        "0x0000000000000000000000000d0d65e7a7db277d3e0f5e1676325e75f3340455",
                        "0x00000000000000000000000005f761b4260102b195c0d541d946a0302b76b28e"
                    ]
                },
                "nodeType": 1
            },
            "31": {
                "invocation": {
                    "address": "0xa3bed4e1c75d00fa6f4e5e6922db7261b5e9acd2",
                    "callData": "0x0000000000000000000000000d0d65e7a7db277d3e0f5e1676325e75f3340455",
                    "decodedMethod": {
                        "callParams": [
                            {
                                "name": "account",
                                "type": "address",
                                "value": "0x0d0d65e7a7db277d3e0f5e1676325e75f3340455"
                            }
                        ],
                        "constructorArguments": "",
                        "name": "balanceOf",
                        "returnParams": [
                            {
                                "decimalAvailable": true,
                                "name": "",
                                "type": "uint256",
                                "value": "1,238,755,536,657,079,058,660,041"
                            }
                        ],
                        "signature": "balanceOf(address)"
                    },
                    "errorInfo": "",
                    "fromAddress": "0x0d0d65e7a7db277d3e0f5e1676325e75f3340455",
                    "gasUsed": 1165,
                    "id": 31,
                    "methodDecoded": true,
                    "operation": "STATICCALL",
                    "output": "0x000000000000000000000000000000000000000000010651127bc57e69297ac9",
                    "revert": false,
                    "revertMessage": "",
                    "selector": "0x70a08231",
                    "status": true,
                    "value": "0"
                },
                "nodeType": 0
            },
            "32": {
                "invocation": {
                    "address": "0xc02aaa39b223fe8d0a0e5c4f27ead9083c756cc2",
                    "callData": "0x0000000000000000000000000d0d65e7a7db277d3e0f5e1676325e75f3340455",
                    "decodedMethod": {
                        "callParams": [
                            {
                                "name": "",
                                "type": "address",
                                "value": "0x0d0d65e7a7db277d3e0f5e1676325e75f3340455"
                            }
                        ],
                        "constructorArguments": "",
                        "name": "balanceOf",
                        "returnParams": [
                            {
                                "decimalAvailable": true,
                                "name": "",
                                "type": "uint256",
                                "value": "2,806,213,189,463,908,691,033"
                            }
                        ],
                        "signature": "balanceOf(address)"
                    },
                    "errorInfo": "",
                    "fromAddress": "0x0d0d65e7a7db277d3e0f5e1676325e75f3340455",
                    "gasUsed": 1234,
                    "id": 32,
                    "methodDecoded": true,
                    "operation": "STATICCALL",
                    "output": "0x0000000000000000000000000000000000000000000000982007fbdcdc3a2c59",
                    "revert": false,
                    "revertMessage": "",
                    "selector": "0x70a08231",
                    "status": true,
                    "value": "0"
                },
                "nodeType": 0
            },
            "33": {
                "event": {
                    "contract": "0x0d0d65e7a7db277d3e0f5e1676325e75f3340455",
                    "decodedLog": {
                        "name": "Sync",
                        "params": [
                            {
                                "name": "reserve0",
                                "type": "uint112",
                                "value": "1,238,755,536,657,079,058,660,041"
                            },
                            {
                                "name": "reserve1",
                                "type": "uint112",
                                "value": "2,806,213,189,463,908,691,033"
                            }
                        ],
                        "signature": "Sync(uint112,uint112)"
                    },
                    "id": 33,
                    "logData": "0x000000000000000000000000000000000000000000010651127bc57e69297ac90000000000000000000000000000000000000000000000982007fbdcdc3a2c59",
                    "logDecoded": true,
                    "operation": "EVENT",
                    "revert": false,
                    "status": true,
                    "topics": [
                        "0x1c411e9a96e071241c2f21f7726b17ae89e3cab4c78be50e062b03a9fffbbad1"
                    ]
                },
                "nodeType": 1
            },
            "34": {
                "event": {
                    "contract": "0x0d0d65e7a7db277d3e0f5e1676325e75f3340455",
                    "decodedLog": {
                        "name": "Swap",
                        "params": [
                            {
                                "name": "sender",
                                "type": "address",
                                "value": "0x7a250d5630b4cf539739df2c5dacb4c659f2488d"
                            },
                            {
                                "name": "to",
                                "type": "address",
                                "value": "0x05f761b4260102b195c0d541d946a0302b76b28e"
                            },
                            {
                                "name": "amount0In",
                                "type": "uint256",
                                "value": "220,620,352,347,873,791,642"
                            },
                            {
                                "name": "amount1In",
                                "type": "uint256",
                                "value": "0"
                            },
                            {
                                "name": "amount0Out",
                                "type": "uint256",
                                "value": "0"
                            },
                            {
                                "name": "amount1Out",
                                "type": "uint256",
                                "value": "498,371,431,656,142,827"
                            }
                        ],
                        "signature": "Swap(address,uint256,uint256,uint256,uint256,address)"
                    },
                    "id": 34,
                    "logData": "0x00000000000000000000000000000000000000000000000bf5b8f1904c88ce9a0000000000000000000000000000000000000000000000000000000000000000000000000000000000000000000000000000000000000000000000000000000000000000000000000000000000000000000000000000000006ea922d361137eb",
                    "logDecoded": true,
                    "operation": "EVENT",
                    "revert": false,
                    "status": true,
                    "topics": [
                        "0xd78ad95fa46c994b6551d0da85fc275fe613ce37657fb8d5e3d130840159d822",
                        "0x0000000000000000000000007a250d5630b4cf539739df2c5dacb4c659f2488d",
                        "0x00000000000000000000000005f761b4260102b195c0d541d946a0302b76b28e"
                    ]
                },
                "nodeType": 1
            },
            "4": {
                "invocation": {
                    "address": "0x0d0d65e7a7db277d3e0f5e1676325e75f3340455",
                    "callData": "0x",
                    "decodedMethod": {
                        "callParams": [],
                        "constructorArguments": "",
                        "name": "getReserves",
                        "returnParams": [
                            {
                                "name": "_reserve0",
                                "type": "uint112",
                                "value": "1,238,534,916,304,731,184,868,399"
                            },
                            {
                                "name": "_reserve1",
                                "type": "uint112",
                                "value": "2,806,711,560,895,564,833,860"
                            },
                            {
                                "name": "_blockTimestampLast",
                                "type": "uint32",
                                "value": "1,604,609,843"
                            }
                        ],
                        "signature": "getReserves()"
                    },
                    "errorInfo": "",
                    "fromAddress": "0x7a250d5630b4cf539739df2c5dacb4c659f2488d",
                    "gasUsed": 1204,
                    "id": 4,
                    "methodDecoded": true,
                    "operation": "STATICCALL",
                    "output": "0x0000000000000000000000000000000000000000000106451cc2d3ee1ca0ac2f00000000000000000000000000000000000000000000009826f28e0a124b6444000000000000000000000000000000000000000000000000000000005fa46733",
                    "revert": false,
                    "revertMessage": "",
                    "selector": "0x0902f1ac",
                    "status": true,
                    "value": "0"
                },
                "nodeType": 0
            },
            "5": {
                "invocation": {
                    "address": "0xc02aaa39b223fe8d0a0e5c4f27ead9083c756cc2",
                    "callData": "0x00000000000000000000000005f761b4260102b195c0d541d946a0302b76b28e0000000000000000000000009c5999653f44672336c2ef0a0008587fa8b9957e00000000000000000000000000000000000000000000000006c4ca94bfd8199d",
                    "decodedMethod": {
                        "callParams": [
                            {
                                "name": "src",
                                "type": "address",
                                "value": "0x05f761b4260102b195c0d541d946a0302b76b28e"
                            },
                            {
                                "name": "dst",
                                "type": "address",
                                "value": "0x9c5999653f44672336c2ef0a0008587fa8b9957e"
                            },
                            {
                                "decimalAvailable": true,
                                "name": "wad",
                                "type": "uint256",
                                "value": "487,737,399,885,437,341"
                            }
                        ],
                        "constructorArguments": "",
                        "name": "transferFrom",
                        "returnParams": [
                            {
                                "name": "",
                                "type": "bool",
                                "value": true
                            }
                        ],
                        "signature": "transferFrom(address,address,uint256)"
                    },
                    "errorInfo": "",
                    "fromAddress": "0x7a250d5630b4cf539739df2c5dacb4c659f2488d",
                    "gasUsed": 16025,
                    "id": 5,
                    "methodDecoded": true,
                    "operation": "CALL",
                    "output": "0x0000000000000000000000000000000000000000000000000000000000000001",
                    "revert": false,
                    "revertMessage": "",
                    "selector": "0x23b872dd",
                    "status": true,
                    "value": "0"
                },
                "nodeType": 0
            },
            "6": {
                "event": {
                    "contract": "0xc02aaa39b223fe8d0a0e5c4f27ead9083c756cc2",
                    "decodedLog": {
                        "name": "Transfer",
                        "params": [
                            {
                                "name": "src",
                                "type": "address",
                                "value": "0x05f761b4260102b195c0d541d946a0302b76b28e"
                            },
                            {
                                "name": "dst",
                                "type": "address",
                                "value": "0x9c5999653f44672336c2ef0a0008587fa8b9957e"
                            },
                            {
                                "decimalAvailable": true,
                                "name": "wad",
                                "type": "uint256",
                                "value": "487,737,399,885,437,341"
                            }
                        ],
                        "signature": "Transfer(address,address,uint256)"
                    },
                    "id": 6,
                    "logData": "0x00000000000000000000000000000000000000000000000006c4ca94bfd8199d",
                    "logDecoded": true,
                    "operation": "EVENT",
                    "revert": false,
                    "status": true,
                    "topics": [
                        "0xddf252ad1be2c89b69c2b068fc378daa952ba7f163c4a11628f55a4df523b3ef",
                        "0x00000000000000000000000005f761b4260102b195c0d541d946a0302b76b28e",
                        "0x0000000000000000000000009c5999653f44672336c2ef0a0008587fa8b9957e"
                    ]
                },
                "nodeType": 1
            },
            "7": {
                "invocation": {
                    "address": "0x9c5999653f44672336c2ef0a0008587fa8b9957e",
                    "callData": "0x0000000000000000000000000000000000000000000001fb5d6593196cc7cb780000000000000000000000000000000000000000000000000000000000000000000000000000000000000000ae590578cc96389fa477d5cc0e461a5beceddf9e00000000000000000000000000000000000000000000000000000000000000800000000000000000000000000000000000000000000000000000000000000000",
                    "decodedMethod": {
                        "callParams": [
                            {
                                "name": "amount0Out",
                                "type": "uint256",
                                "value": "9,359,229,192,326,326,242,168"
                            },
                            {
                                "name": "amount1Out",
                                "type": "uint256",
                                "value": "0"
                            },
                            {
                                "name": "to",
                                "type": "address",
                                "value": "0xae590578cc96389fa477d5cc0e461a5beceddf9e"
                            },
                            {
                                "name": "data",
                                "type": "bytes",
                                "value": "0x"
                            }
                        ],
                        "constructorArguments": "",
                        "name": "swap",
                        "returnParams": [],
                        "signature": "swap(uint256,uint256,address,bytes)"
                    },
                    "errorInfo": "",
                    "fromAddress": "0x7a250d5630b4cf539739df2c5dacb4c659f2488d",
                    "gasUsed": 56702,
                    "id": 7,
                    "methodDecoded": true,
                    "operation": "CALL",
                    "output": "",
                    "revert": false,
                    "revertMessage": "",
                    "selector": "0x022c0d9f",
                    "status": true,
                    "value": "0"
                },
                "nodeType": 0
            },
            "8": {
                "invocation": {
                    "address": "0x0e29e5abbb5fd88e28b2d355774e73bd47de3bcd",
                    "callData": "0x000000000000000000000000ae590578cc96389fa477d5cc0e461a5beceddf9e0000000000000000000000000000000000000000000001fb5d6593196cc7cb78",
                    "decodedMethod": {
                        "callParams": [
                            {
                                "name": "to",
                                "type": "address",
                                "value": "0xae590578cc96389fa477d5cc0e461a5beceddf9e"
                            },
                            {
                                "decimalAvailable": true,
                                "name": "amount",
                                "type": "uint256",
                                "value": "9,359,229,192,326,326,242,168"
                            }
                        ],
                        "constructorArguments": "",
                        "name": "transfer",
                        "returnParams": [
                            {
                                "name": "",
                                "type": "bool",
                                "value": true
                            }
                        ],
                        "signature": "transfer(address,uint256)"
                    },
                    "errorInfo": "",
                    "fromAddress": "0x9c5999653f44672336c2ef0a0008587fa8b9957e",
                    "gasUsed": 15298,
                    "id": 8,
                    "methodDecoded": true,
                    "operation": "CALL",
                    "output": "0x0000000000000000000000000000000000000000000000000000000000000001",
                    "revert": false,
                    "revertMessage": "",
                    "selector": "0xa9059cbb",
                    "status": true,
                    "value": "0"
                },
                "nodeType": 0
            },
            "9": {
                "event": {
                    "contract": "0x0e29e5abbb5fd88e28b2d355774e73bd47de3bcd",
                    "decodedLog": {
                        "name": "Transfer",
                        "params": [
                            {
                                "name": "from",
                                "type": "address",
                                "value": "0x9c5999653f44672336c2ef0a0008587fa8b9957e"
                            },
                            {
                                "name": "to",
                                "type": "address",
                                "value": "0xae590578cc96389fa477d5cc0e461a5beceddf9e"
                            },
                            {
                                "decimalAvailable": true,
                                "name": "amount",
                                "type": "uint256",
                                "value": "9,359,229,192,326,326,242,168"
                            }
                        ],
                        "signature": "Transfer(address,address,uint256)"
                    },
                    "id": 9,
                    "logData": "0x0000000000000000000000000000000000000000000001fb5d6593196cc7cb78",
                    "logDecoded": true,
                    "operation": "EVENT",
                    "revert": false,
                    "status": true,
                    "topics": [
                        "0xddf252ad1be2c89b69c2b068fc378daa952ba7f163c4a11628f55a4df523b3ef",
                        "0x0000000000000000000000009c5999653f44672336c2ef0a0008587fa8b9957e",
                        "0x000000000000000000000000ae590578cc96389fa477d5cc0e461a5beceddf9e"
                    ]
                },
                "nodeType": 1
            }
        },
        "gasFlame": [
            {
                "children": [
                    {
                        "children": [
                            {
                                "children": [],
                                "depth": 0,
                                "name": "Initial Gas",
                                "value": 24164
                            },
                            {
                                "children": [
                                    {
                                        "children": [],
                                        "depth": 1,
                                        "name": "getReserves",
                                        "value": 1204
                                    },
                                    {
                                        "children": [],
                                        "depth": 1,
                                        "name": "getReserves",
                                        "value": 1204
                                    },
                                    {
                                        "children": [],
                                        "depth": 1,
                                        "name": "getReserves",
                                        "value": 1204
                                    },
                                    {
                                        "children": [],
                                        "depth": 1,
                                        "name": "getReserves",
                                        "value": 1204
                                    },
                                    {
                                        "children": [],
                                        "depth": 1,
                                        "name": "transferFrom",
                                        "value": 16025
                                    },
                                    {
                                        "children": [
                                            {
                                                "children": [],
                                                "depth": 2,
                                                "name": "transfer",
                                                "value": 15298
                                            },
                                            {
                                                "children": [],
                                                "depth": 2,
                                                "name": "balanceOf",
                                                "value": 1147
                                            },
                                            {
                                                "children": [],
                                                "depth": 2,
                                                "name": "balanceOf",
                                                "value": 1234
                                            }
                                        ],
                                        "depth": 1,
                                        "name": "swap",
                                        "value": 56702
                                    },
                                    {
                                        "children": [
                                            {
                                                "children": [],
                                                "depth": 2,
                                                "name": "transfer",
                                                "value": 14403
                                            },
                                            {
                                                "children": [],
                                                "depth": 2,
                                                "name": "balanceOf",
                                                "value": 1147
                                            },
                                            {
                                                "children": [],
                                                "depth": 2,
                                                "name": "balanceOf",
                                                "value": 1234
                                            }
                                        ],
                                        "depth": 1,
                                        "name": "swap",
                                        "value": 55807
                                    },
                                    {
                                        "children": [
                                            {
                                                "children": [],
                                                "depth": 2,
                                                "name": "transfer",
                                                "value": 14515
                                            },
                                            {
                                                "children": [],
                                                "depth": 2,
                                                "name": "balanceOf",
                                                "value": 1234
                                            },
                                            {
                                                "children": [],
                                                "depth": 2,
                                                "name": "balanceOf",
                                                "value": 1165
                                            }
                                        ],
                                        "depth": 1,
                                        "name": "swap",
                                        "value": 55937
                                    },
                                    {
                                        "children": [
                                            {
                                                "children": [],
                                                "depth": 2,
                                                "name": "transfer",
                                                "value": 10962
                                            },
                                            {
                                                "children": [],
                                                "depth": 2,
                                                "name": "balanceOf",
                                                "value": 1165
                                            },
                                            {
                                                "children": [],
                                                "depth": 2,
                                                "name": "balanceOf",
                                                "value": 1234
                                            }
                                        ],
                                        "depth": 1,
                                        "name": "swap",
                                        "value": 52384
                                    }
                                ],
                                "depth": 0,
                                "name": "Executed Gas",
                                "value": 274485
                            }
                        ],
                        "depth": -1,
                        "name": "Actual Gas Used",
                        "value": 281849
                    },
                    {
                        "children": [],
                        "depth": -1,
                        "name": "Refunded Gas",
                        "value": 16800
                    }
                ],
                "depth": -2,
                "name": "Total Gas",
                "value": 298649
            }
        ],
        "isConfirmed": true,
        "mainTrace": [
            {
                "children": [
                    {
                        "children": [
                            {
                                "children": [],
                                "depth": 1,
                                "id": 1,
                                "order": 1
                            },
                            {
                                "children": [],
                                "depth": 1,
                                "id": 2,
                                "order": 2
                            },
                            {
                                "children": [],
                                "depth": 1,
                                "id": 3,
                                "order": 3
                            },
                            {
                                "children": [],
                                "depth": 1,
                                "id": 4,
                                "order": 4
                            },
                            {
                                "children": [
                                    {
                                        "children": [],
                                        "depth": 2,
                                        "id": 6,
                                        "order": 6
                                    }
                                ],
                                "depth": 1,
                                "id": 5,
                                "order": 5
                            },
                            {
                                "children": [
                                    {
                                        "children": [
                                            {
                                                "children": [],
                                                "depth": 3,
                                                "id": 9,
                                                "order": 9
                                            }
                                        ],
                                        "depth": 2,
                                        "id": 8,
                                        "order": 8
                                    },
                                    {
                                        "children": [],
                                        "depth": 2,
                                        "id": 10,
                                        "order": 10
                                    },
                                    {
                                        "children": [],
                                        "depth": 2,
                                        "id": 11,
                                        "order": 11
                                    },
                                    {
                                        "children": [],
                                        "depth": 2,
                                        "id": 12,
                                        "order": 12
                                    },
                                    {
                                        "children": [],
                                        "depth": 2,
                                        "id": 13,
                                        "order": 13
                                    }
                                ],
                                "depth": 1,
                                "id": 7,
                                "order": 7
                            },
                            {
                                "children": [
                                    {
                                        "children": [
                                            {
                                                "children": [],
                                                "depth": 3,
                                                "id": 16,
                                                "order": 16
                                            }
                                        ],
                                        "depth": 2,
                                        "id": 15,
                                        "order": 15
                                    },
                                    {
                                        "children": [],
                                        "depth": 2,
                                        "id": 17,
                                        "order": 17
                                    },
                                    {
                                        "children": [],
                                        "depth": 2,
                                        "id": 18,
                                        "order": 18
                                    },
                                    {
                                        "children": [],
                                        "depth": 2,
                                        "id": 19,
                                        "order": 19
                                    },
                                    {
                                        "children": [],
                                        "depth": 2,
                                        "id": 20,
                                        "order": 20
                                    }
                                ],
                                "depth": 1,
                                "id": 14,
                                "order": 14
                            },
                            {
                                "children": [
                                    {
                                        "children": [
                                            {
                                                "children": [],
                                                "depth": 3,
                                                "id": 23,
                                                "order": 23
                                            }
                                        ],
                                        "depth": 2,
                                        "id": 22,
                                        "order": 22
                                    },
                                    {
                                        "children": [],
                                        "depth": 2,
                                        "id": 24,
                                        "order": 24
                                    },
                                    {
                                        "children": [],
                                        "depth": 2,
                                        "id": 25,
                                        "order": 25
                                    },
                                    {
                                        "children": [],
                                        "depth": 2,
                                        "id": 26,
                                        "order": 26
                                    },
                                    {
                                        "children": [],
                                        "depth": 2,
                                        "id": 27,
                                        "order": 27
                                    }
                                ],
                                "depth": 1,
                                "id": 21,
                                "order": 21
                            },
                            {
                                "children": [
                                    {
                                        "children": [
                                            {
                                                "children": [],
                                                "depth": 3,
                                                "id": 30,
                                                "order": 30
                                            }
                                        ],
                                        "depth": 2,
                                        "id": 29,
                                        "order": 29
                                    },
                                    {
                                        "children": [],
                                        "depth": 2,
                                        "id": 31,
                                        "order": 31
                                    },
                                    {
                                        "children": [],
                                        "depth": 2,
                                        "id": 32,
                                        "order": 32
                                    },
                                    {
                                        "children": [],
                                        "depth": 2,
                                        "id": 33,
                                        "order": 33
                                    },
                                    {
                                        "children": [],
                                        "depth": 2,
                                        "id": 34,
                                        "order": 34
                                    }
                                ],
                                "depth": 1,
                                "id": 28,
                                "order": 28
                            }
                        ],
                        "depth": 0,
                        "id": 0,
                        "order": 0
                    }
                ],
                "depth": -1,
                "id": -1,
                "order": -1
            }
        ],
        "mainTraceNodeCount": 35,
        "parentIdMap": {
            "0": -1,
            "1": 0,
            "10": 7,
            "11": 7,
            "12": 7,
            "13": 7,
            "14": 0,
            "15": 14,
            "16": 15,
            "17": 14,
            "18": 14,
            "19": 14,
            "2": 0,
            "20": 14,
            "21": 0,
            "22": 21,
            "23": 22,
            "24": 21,
            "25": 21,
            "26": 21,
            "27": 21,
            "28": 0,
            "29": 28,
            "3": 0,
            "30": 29,
            "31": 28,
            "32": 28,
            "33": 28,
            "34": 28,
            "4": 0,
            "5": 0,
            "6": 5,
            "7": 0,
            "8": 7,
            "9": 8
        },
        "tidyTrace": [
            {
                "children": [
                    {
                        "children": [
                            {
                                "children": [
                                    {
                                        "children": [],
                                        "depth": 2,
                                        "id": 6,
                                        "order": 6
                                    }
                                ],
                                "depth": 1,
                                "id": 5,
                                "order": 5
                            },
                            {
                                "children": [
                                    {
                                        "children": [
                                            {
                                                "children": [],
                                                "depth": 3,
                                                "id": 9,
                                                "order": 9
                                            }
                                        ],
                                        "depth": 2,
                                        "id": 8,
                                        "order": 8
                                    },
                                    {
                                        "children": [],
                                        "depth": 2,
                                        "id": 12,
                                        "order": 12
                                    },
                                    {
                                        "children": [],
                                        "depth": 2,
                                        "id": 13,
                                        "order": 13
                                    }
                                ],
                                "depth": 1,
                                "id": 7,
                                "order": 7
                            },
                            {
                                "children": [
                                    {
                                        "children": [
                                            {
                                                "children": [],
                                                "depth": 3,
                                                "id": 16,
                                                "order": 16
                                            }
                                        ],
                                        "depth": 2,
                                        "id": 15,
                                        "order": 15
                                    },
                                    {
                                        "children": [],
                                        "depth": 2,
                                        "id": 19,
                                        "order": 19
                                    },
                                    {
                                        "children": [],
                                        "depth": 2,
                                        "id": 20,
                                        "order": 20
                                    }
                                ],
                                "depth": 1,
                                "id": 14,
                                "order": 14
                            },
                            {
                                "children": [
                                    {
                                        "children": [
                                            {
                                                "children": [],
                                                "depth": 3,
                                                "id": 23,
                                                "order": 23
                                            }
                                        ],
                                        "depth": 2,
                                        "id": 22,
                                        "order": 22
                                    },
                                    {
                                        "children": [],
                                        "depth": 2,
                                        "id": 26,
                                        "order": 26
                                    },
                                    {
                                        "children": [],
                                        "depth": 2,
                                        "id": 27,
                                        "order": 27
                                    }
                                ],
                                "depth": 1,
                                "id": 21,
                                "order": 21
                            },
                            {
                                "children": [
                                    {
                                        "children": [
                                            {
                                                "children": [],
                                                "depth": 3,
                                                "id": 30,
                                                "order": 30
                                            }
                                        ],
                                        "depth": 2,
                                        "id": 29,
                                        "order": 29
                                    },
                                    {
                                        "children": [],
                                        "depth": 2,
                                        "id": 33,
                                        "order": 33
                                    },
                                    {
                                        "children": [],
                                        "depth": 2,
                                        "id": 34,
                                        "order": 34
                                    }
                                ],
                                "depth": 1,
                                "id": 28,
                                "order": 28
                            }
                        ],
                        "depth": 0,
                        "id": 0,
                        "order": 0
                    }
                ],
                "depth": -1,
                "id": -1,
                "order": -1
            }
        ],
        "tidyTraceNodeCount": 23
    },
    "state_change": {
        "stateChanges": [
            {
                "address": "0x0d0d65e7a7db277d3e0f5e1676325e75f3340455",
                "erc": "ERC-20",
                "slots": [
                    {
                        "current": "0x0000000000000000000000000000000185641c96be8f6b94b9d8206668650c7a",
                        "key": "0x0000000000000000000000000000000000000000000000000000000000000009",
                        "prev": "0x000000000000000000000000000000018561621b09d87ed1a9cd965297a3a812"
                    },
                    {
                        "current": "0x00000000000000000000000000004f50d3133bf0948aff6446d9efd05a29dd3d",
                        "key": "0x000000000000000000000000000000000000000000000000000000000000000a",
                        "prev": "0x00000000000000000000000000004f48b7b2bafd554ccd682ec02f1418310d49"
                    },
                    {
                        "current": "0x5fa46be70000000000982007fbdcdc3a2c59000000010651127bc57e69297ac9",
                        "key": "0x0000000000000000000000000000000000000000000000000000000000000008",
                        "prev": "0x5fa4673300000000009826f28e0a124b64440000000106451cc2d3ee1ca0ac2f"
                    }
                ],
                "storageVariables": [
                    {
                        "name": "price1CumulativeLast",
                        "type": "uint256",
                        "value": {
                            "current": "6909373744939208389009407569502568155045181",
                            "prev": "6906615095772035823726233947979787453664585",
                            "typeTag": 1
                        }
                    },
                    {
                        "name": "reserve0",
                        "type": "uint112",
                        "value": {
                            "current": "1238755536657079058660041",
                            "prev": "1238534916304731184868399",
                            "typeTag": 1
                        }
                    },
                    {
                        "name": "reserve1",
                        "type": "uint112",
                        "value": {
                            "current": "2806213189463908691033",
                            "prev": "2806711560895564833860",
                            "typeTag": 1
                        }
                    },
                    {
                        "name": "blockTimestampLast",
                        "type": "uint32",
                        "value": {
                            "current": "1604611047",
                            "prev": "1604609843",
                            "typeTag": 1
                        }
                    },
                    {
                        "name": "price0CumulativeLast",
                        "type": "uint256",
                        "value": {
                            "current": "517589499896854573003840239743543872634",
                            "prev": "517575332973958790539597885994264930322",
                            "typeTag": 1
                        }
                    }
                ]
            },
            {
                "address": "0x0e29e5abbb5fd88e28b2d355774e73bd47de3bcd",
                "erc": "ERC-20",
                "slots": [
                    {
                        "current": "0x00000000000000000000000000000000000000000002172af3d9f875f41d7a24",
                        "key": "0x2a38b9de1ab58913127dfbf5876bba7d6cc42f648c66dd858238fcb39333935d",
                        "prev": "0x00000000000000000000000000000000000000000002152f9674655c8755aeac"
                    },
                    {
                        "current": "0x0000000000000000000000000000000000000000000231606e11afe7520ff00a",
                        "key": "0xa8053441bba9ef91f1970ddb79be085540aea62c9ed7fc3d2637436365623d2d",
                        "prev": "0x00000000000000000000000000000000000000000002335bcb774300bed7bb82"
                    }
                ],
                "storageVariables": [
                    {
                        "name": "balanceOf",
                        "type": "mapping(address => uint256)",
                        "value": {
                            "pairs": [
                                {
                                    "key": "0x9c5999653f44672336c2ef0a0008587fa8b9957e",
                                    "value": {
                                        "current": "2651026415634773907075082",
                                        "prev": "2660385644827100233317250",
                                        "typeTag": 1
                                    }
                                },
                                {
                                    "key": "0xae590578cc96389fa477d5cc0e461a5beceddf9e",
                                    "value": {
                                        "current": "2527258402934962643630628",
                                        "prev": "2517899173742636317388460",
                                        "typeTag": 1
                                    }
                                }
                            ],
                            "typeTag": 4
                        }
                    }
                ]
            },
            {
                "address": "0x256e337f25a21882102d52f7a6515c85bcca36f4",
                "erc": "ERC-20",
                "slots": [
                    {
                        "current": "0x000000000000000000000000000030435209485855e94e44521bacccd076193a",
                        "key": "0x0000000000000000000000000000000000000000000000000000000000000009",
                        "prev": "0x0000000000000000000000000000302e71275da4598adbba86d532b812216377"
                    },
                    {
                        "current": "0x0000000000000000000000000000000023033e1136ed5031b502006a797017d4",
                        "key": "0x000000000000000000000000000000000000000000000000000000000000000a",
                        "prev": "0x00000000000000000000000000000000220a6f9b96c8da86e943a897227e1691"
                    },
                    {
                        "current": "0x5fa46be7000000000346337383ab6d22c5e000000000000ba0d4b0d52e82feee",
                        "key": "0x0000000000000000000000000000000000000000000000000000000000000008",
                        "prev": "0x5fa423d4000000000352292c753bb9ab947a00000000000b76d44aec2d81ada7"
                    }
                ],
                "storageVariables": [
                    {
                        "name": "price0CumulativeLast",
                        "type": "uint256",
                        "value": {
                            "current": "4204297688201852964044351241318155205089594",
                            "prev": "4197193120765241410536399028146675390702455",
                            "typeTag": 1
                        }
                    },
                    {
                        "name": "price1CumulativeLast",
                        "type": "uint256",
                        "value": {
                            "current": "46539815616320933836432240355677575124",
                            "prev": "45247938499769251603094251361772902033",
                            "typeTag": 1
                        }
                    },
                    {
                        "name": "reserve0",
                        "type": "uint112",
                        "value": {
                            "current": "214503266981591056110",
                            "prev": "211476735980579433895",
                            "typeTag": 1
                        }
                    },
                    {
                        "name": "reserve1",
                        "type": "uint112",
                        "value": {
                            "current": "15462078985459153946080",
                            "prev": "15682699337807027737722",
                            "typeTag": 1
                        }
                    },
                    {
                        "name": "blockTimestampLast",
                        "type": "uint32",
                        "value": {
                            "current": "1604611047",
                            "prev": "1604592596",
                            "typeTag": 1
                        }
                    }
                ]
            },
            {
                "address": "0x33c2da7fd5b125e629b3950f3c38d7f721d7b30d",
                "erc": "ERC-20",
                "slots": [
                    {
                        "current": "0x00000000000000000000000000000000000000000000002c459d7eecbe9a7966",
                        "key": "0x3b76432759dbcd45aa50b7b102d83054bef2c560512ab99cce3eaa40518397bb",
                        "prev": "0x00000000000000000000000000000000000000000000002c6f9de4d5bf9bcaad"
                    },
                    {
                        "current": "0x00000000000000000000000000000000000000000000000ba0d4b0d52e82feee",
                        "key": "0x014852cc5c56da05bc24cf339d9dc919a9606a904dce4e3b452a6fc78316cf1b",
                        "prev": "0x00000000000000000000000000000000000000000000000b76d44aec2d81ada7"
                    }
                ],
                "storageVariables": [
                    {
                        "name": "_balances",
                        "type": "mapping(address => uint256)",
                        "value": {
                            "pairs": [
                                {
                                    "key": "0x256e337f25a21882102d52f7a6515c85bcca36f4",
                                    "value": {
                                        "current": "214503266981591056110",
                                        "prev": "211476735980579433895",
                                        "typeTag": 1
                                    }
                                },
                                {
                                    "key": "0xae590578cc96389fa477d5cc0e461a5beceddf9e",
                                    "value": {
                                        "current": "816673044358456047974",
                                        "prev": "819699575359467670189",
                                        "typeTag": 1
                                    }
                                }
                            ],
                            "typeTag": 4
                        }
                    }
                ]
            },
            {
                "address": "0x9c5999653f44672336c2ef0a0008587fa8b9957e",
                "erc": "ERC-20",
                "slots": [
                    {
                        "current": "0x00000000000000000000000000000000092ca6181faec6fa8cf4ad3827c9289f",
                        "key": "0x0000000000000000000000000000000000000000000000000000000000000009",
                        "prev": "0x00000000000000000000000000000000092ca5e1d5bdcf13f2d1945d9ca4840f"
                    },
                    {
                        "current": "0x000000000000000000000000000ac9a4d02fa0c783d78ef9aa90b0633124b841",
                        "key": "0x000000000000000000000000000000000000000000000000000000000000000a",
                        "prev": "0x000000000000000000000000000ac9a01903676c79750baac850d78b2552c611"
                    },
                    {
                        "current": "0x5fa46be70000000000077e4610910ea8f35e0000000231606e11afe7520ff00a",
                        "key": "0x0000000000000000000000000000000000000000000000000000000000000008",
                        "prev": "0x5fa46bd7000000000007778145fc4ed0d9c100000002335bcb774300bed7bb82"
                    }
                ],
                "storageVariables": [
                    {
                        "name": "price0CumulativeLast",
                        "type": "uint256",
                        "value": {
                            "current": "12194881815115209838905285610108954783",
                            "prev": "12194877513910715476586200351390336015",
                            "typeTag": 1
                        }
                    },
                    {
                        "name": "price1CumulativeLast",
                        "type": "uint256",
                        "value": {
                            "current": "240573104492487143257030167749634473345726529",
                            "prev": "240571499884671858763897300236319252896990737",
                            "typeTag": 1
                        }
                    },
                    {
                        "name": "reserve0",
                        "type": "uint112",
                        "value": {
                            "current": "2651026415634773907075082",
                            "prev": "2660385644827100233317250",
                            "typeTag": 1
                        }
                    },
                    {
                        "name": "reserve1",
                        "type": "uint112",
                        "value": {
                            "current": "138226186828317782878",
                            "prev": "137738449428432345537",
                            "typeTag": 1
                        }
                    },
                    {
                        "name": "blockTimestampLast",
                        "type": "uint32",
                        "value": {
                            "current": "1604611047",
                            "prev": "1604611031",
                            "typeTag": 1
                        }
                    }
                ]
            },
            {
                "address": "0xa3bed4e1c75d00fa6f4e5e6922db7261b5e9acd2",
                "erc": "ERC-20",
                "slots": [
                    {
                        "current": "0x000000000000000000000000000000000000000000000346337383ab6d22c5e0",
                        "key": "0x990dadf893b727ce89c5a0f101f48e420e0be21a3222a5852b07a4f7501f01c9",
                        "prev": "0x000000000000000000000000000000000000000000000352292c753bb9ab947a"
                    },
                    {
                        "current": "0x000000000000000000000000000000000000000000010651127bc57e69297ac9",
                        "key": "0x4df885ce4a44644dc8ab5ea6daa6b65963b70ef03c987676d4779206ee13583a",
                        "prev": "0x0000000000000000000000000000000000000000000106451cc2d3ee1ca0ac2f"
                    }
                ],
                "storageVariables": [
                    {
                        "name": "_balances",
                        "type": "mapping(address => uint256)",
                        "value": {
                            "pairs": [
                                {
                                    "key": "0x0d0d65e7a7db277d3e0f5e1676325e75f3340455",
                                    "value": {
                                        "current": "1238755536657079058660041",
                                        "prev": "1238534916304731184868399",
                                        "typeTag": 1
                                    }
                                },
                                {
                                    "key": "0x256e337f25a21882102d52f7a6515c85bcca36f4",
                                    "value": {
                                        "current": "15462078985459153946080",
                                        "prev": "15682699337807027737722",
                                        "typeTag": 1
                                    }
                                }
                            ],
                            "typeTag": 4
                        }
                    }
                ]
            },
            {
                "address": "0xae590578cc96389fa477d5cc0e461a5beceddf9e",
                "erc": "ERC-20",
                "slots": [
                    {
                        "current": "0x0000000000000000000000000000000000f1cf7f2650d76f9a2847dcbba3b886",
                        "key": "0x0000000000000000000000000000000000000000000000000000000000000009",
                        "prev": "0x0000000000000000000000000000000000f1ce29c96b705cafd3069275e52eb6"
                    },
                    {
                        "current": "0x0000000000000000000000000008a7869194a23fd26ea5f137f2f9a332115316",
                        "key": "0x000000000000000000000000000000000000000000000000000000000000000a",
                        "prev": "0x0000000000000000000000000008a785d198e331ac7e1c395ec2c60d2e0da5a6"
                    },
                    {
                        "current": "0x5fa46be700000000002c459d7eecbe9a796600000002172af3d9f875f41d7a24",
                        "key": "0x0000000000000000000000000000000000000000000000000000000000000008",
                        "prev": "0x5fa46bd700000000002c6f9de4d5bf9bcaad00000002152f9674655c8755aeac"
                    }
                ],
                "storageVariables": [
                    {
                        "name": "price0CumulativeLast",
                        "type": "uint256",
                        "value": {
                            "current": "1255552075529650472095380671715063942",
                            "prev": "1255525029976281439026161804162444982",
                            "typeTag": 1
                        }
                    },
                    {
                        "name": "price1CumulativeLast",
                        "type": "uint256",
                        "value": {
                            "current": "192999504685826482807979601738618741564986134",
                            "prev": "192999249496137715226495557888952815267456422",
                            "typeTag": 1
                        }
                    },
                    {
                        "name": "reserve0",
                        "type": "uint112",
                        "value": {
                            "current": "2527258402934962643630628",
                            "prev": "2517899173742636317388460",
                            "typeTag": 1
                        }
                    },
                    {
                        "name": "reserve1",
                        "type": "uint112",
                        "value": {
                            "current": "816673044358456047974",
                            "prev": "819699575359467670189",
                            "typeTag": 1
                        }
                    },
                    {
                        "name": "blockTimestampLast",
                        "type": "uint32",
                        "value": {
                            "current": "1604611047",
                            "prev": "1604611031",
                            "typeTag": 1
                        }
                    }
                ]
            },
            {
                "address": "0xc02aaa39b223fe8d0a0e5c4f27ead9083c756cc2",
                "erc": "ERC-20",
                "slots": [
                    {
                        "current": "0x0000000000000000000000000000000000000000000000982007fbdcdc3a2c59",
                        "key": "0x07ec8cd2f5852f1c0101fb13eb45d599bd2ebc37c978c2dbc5431cededda2323",
                        "prev": "0x00000000000000000000000000000000000000000000009826f28e0a124b6444"
                    },
                    {
                        "current": "0x000000000000000000000000000000000000000000000000699af449cafad9e8",
                        "key": "0x0c09a5a48c942428f95286a820fd5e6fbd9e51260069bf147700d4aeaf7c3c1e",
                        "prev": "0x00000000000000000000000000000000000000000000000069752cb154c1bb9a"
                    },
                    {
                        "current": "0x0000000000000000000000000000000000000000000000077e4610910ea8f35e",
                        "key": "0x4dc3e211ee5e3baeef24370ee1f8251598192186dcddfcf68cd6093c2c91e34a",
                        "prev": "0x000000000000000000000000000000000000000000000007778145fc4ed0d9c1"
                    }
                ],
                "storageVariables": [
                    {
                        "name": "balanceOf",
                        "type": "mapping(address => uint256)",
                        "value": {
                            "pairs": [
                                {
                                    "key": "0x05f761b4260102b195c0d541d946a0302b76b28e",
                                    "value": {
                                        "current": "7609663118171101672",
                                        "prev": "7599029086400396186",
                                        "typeTag": 1
                                    }
                                },
                                {
                                    "key": "0x0d0d65e7a7db277d3e0f5e1676325e75f3340455",
                                    "value": {
                                        "current": "2806213189463908691033",
                                        "prev": "2806711560895564833860",
                                        "typeTag": 1
                                    }
                                },
                                {
                                    "key": "0x9c5999653f44672336c2ef0a0008587fa8b9957e",
                                    "value": {
                                        "current": "138226186828317782878",
                                        "prev": "137738449428432345537",
                                        "typeTag": 1
                                    }
                                }
                            ],
                            "typeTag": 4
                        }
                    }
                ]
            }
        ]
    }
}