{
    "balance_change": {
        "balanceChanges": [
            {
                "account": "0xecc226e690d36c4d15008440486450e2ff5df9fa",
                "assets": [
                    {
                        "address": "0xeeeeeeeeeeeeeeeeeeeeeeeeeeeeeeeeeeeeeeee",
                        "amount": "0.05",
                        "iconUrl": "https://assets.blocksec.com/image/1663669189317-3.png",
                        "isERC1155": false,
                        "isERC721": false,
                        "sign": false,
                        "value": "117.978999999999996366"
                    }
                ]
            },
            {
                "account": "0xb8901acb165ed027e32754e0ffe830802919727f",
                "assets": [
                    {
                        "address": "0xeeeeeeeeeeeeeeeeeeeeeeeeeeeeeeeeeeeeeeee",
                        "amount": "0.0495625",
                        "iconUrl": "https://assets.blocksec.com/image/1663669189317-3.png",
                        "isERC1155": false,
                        "isERC721": false,
                        "sign": true,
                        "value": "116.94668374999999639"
                    }
                ]
            },
            {
                "account": "0xe6b738da243e8fa2a0ed5915645789add5de5152",
                "assets": [
                    {
                        "address": "0xeeeeeeeeeeeeeeeeeeeeeeeeeeeeeeeeeeeeeeee",
                        "amount": "0.0004375",
                        "iconUrl": "https://assets.blocksec.com/image/1663669189317-3.png",
                        "isERC1155": false,
                        "isERC721": false,
                        "sign": true,
                        "value": "1.0323162499999999682"
                    }
                ]
            }
        ]
    },
    "profile": {
        "basic_info": {
            "baseFee": "39.454231882",
            "blockNumber": 18750341,
            "callData": "0x3ce33bff0000000000000000000000000000000000000000000000000000000000000080000000000000000000000000000000000000000000000000000000000000000000000000000000000000000000000000000000000000000000b1a2bc2ec5000000000000000000000000000000000000000000000000000000000000000000c0000000000000000000000000000000000000000000000000000000000000000f736f636b6574416461707465725632000000000000000000000000000000000000000000000000000000000000000000000000000000000000000000000001a00000000000000000000000003a23f943181408eac424116af7b7790c94cb97a50000000000000000000000003a23f943181408eac424116af7b7790c94cb97a5000000000000000000000000000000000000000000000000000000000000e7080000000000000000000000000000000000000000000000000000000000000000000000000000000000000000000000000000000000000000000000000000000000000000000000000000000000000000000000000000000000b014d4c6ae2800000000000000000000000000000000000000000000000000000000000000014000000000000000000000000000000000000000000000000000018de76816d800000000000000000000000000e6b738da243e8fa2a0ed5915645789add5de5152000000000000000000000000000000000000000000000000000000000000004400000014ad1977e5b8901acb165ed027e32754e0ffe830802919727f0000e708ecc226e690d36c4d15008440486450e2ff5df9fa000000000000000000af33726ea59b0000000000000000000000000000000000000000000000000000000000",
            "debugEnable": true,
            "errorInfo": "",
            "eventCount": 6,
            "feeRecipient": "0x0aa8ebb6ad5a8e499e550ae2c461197624c6e667",
            "formatValue": "0.05",
            "gasLimit": 176274,
            "gasPrice": "39.554231882",
            "gasUsed": 170134,
            "intTxnCount": 10,
            "internalRevert": false,
            "internalRevertMessage": "",
            "isContractCreation": false,
            "isFlashloan": false,
            "maxFee": "56.259004871",
            "nonce": 18,
            "overwritedBlockNumber": -1,
            "priorityFee": "0.1",
            "receiver": "0x0439e60f02a8900a951603950d8d4527f400c3f1",
            "revertMessage": "",
            "sender": "0xecc226e690d36c4d15008440486450e2ff5df9fa",
            "simulationEnable": true,
            "sourceTxnHash": "0x88f1bab4ee388155b06018e9982efa233ef4b6604e6bfcc50e5faeabdcf3fefb",
            "status": true,
            "timestamp": "2023-12-09T18:05:59Z",
            "transactionFee": "0.006729519687012188",
            "txnHash": "0x88f1bab4ee388155b06018e9982efa233ef4b6604e6bfcc50e5faeabdcf3fefb",
            "txnIndex": 69,
            "type": 2,
            "value": "50000000000000000"
        },
        "fund_flow": [
            {
                "amount": "0.05",
                "from": "0xecc226e690d36c4d15008440486450e2ff5df9fa",
                "id": 1,
                "isERC1155": false,
                "isERC721": false,
                "isReverted": false,
                "order": 1,
                "to": "0x0439e60f02a8900a951603950d8d4527f400c3f1",
                "token": "0xeeeeeeeeeeeeeeeeeeeeeeeeeeeeeeeeeeeeeeee"
            },
            {
                "amount": "0.05",
                "from": "0x0439e60f02a8900a951603950d8d4527f400c3f1",
                "id": 2,
                "isERC1155": false,
                "isERC721": false,
                "isReverted": false,
                "order": 2,
                "to": "0x9a47f3289794e9bbc6a3c571f6d96ad4e7baed16",
                "token": "0xeeeeeeeeeeeeeeeeeeeeeeeeeeeeeeeeeeeeeeee"
            },
            {
                "amount": "0.0004375",
                "from": "0x9a47f3289794e9bbc6a3c571f6d96ad4e7baed16",
                "id": 3,
                "isERC1155": false,
                "isERC721": false,
                "isReverted": false,
                "order": 3,
                "to": "0xe6b738da243e8fa2a0ed5915645789add5de5152",
                "token": "0xeeeeeeeeeeeeeeeeeeeeeeeeeeeeeeeeeeeeeeee"
            },
            {
                "amount": "0.0495625",
                "from": "0x9a47f3289794e9bbc6a3c571f6d96ad4e7baed16",
                "id": 4,
                "isERC1155": false,
                "isERC721": false,
                "isReverted": false,
                "order": 4,
                "to": "0x3a23f943181408eac424116af7b7790c94cb97a5",
                "token": "0xeeeeeeeeeeeeeeeeeeeeeeeeeeeeeeeeeeeeeeee"
            },
            {
                "amount": "0.0495625",
                "from": "0x3a23f943181408eac424116af7b7790c94cb97a5",
                "id": 5,
                "isERC1155": false,
                "isERC721": false,
                "isReverted": false,
                "order": 5,
                "to": "0xb8901acb165ed027e32754e0ffe830802919727f",
                "token": "0xeeeeeeeeeeeeeeeeeeeeeeeeeeeeeeeeeeeeeeee"
            }
        ],
        "token_infos": [
            {
                "address": "0xc02aaa39b223fe8d0a0e5c4f27ead9083c756cc2",
                "decimals": 18
            },
            {
                "address": "0xeeeeeeeeeeeeeeeeeeeeeeeeeeeeeeeeeeeeeeee",
                "decimals": 18
            }
        ]
    },
    "address_label": {
        "labels": [
            {
                "address": "0x0000000000000000000000000000000000000004",
                "label": "Precompiled"
            },
            {
                "address": "0xb8901acb165ed027e32754e0ffe830802919727f",
                "label": "Hop Protocol: Ethereum Bridge"
            },
            {
                "address": "0xe6b738da243e8fa2a0ed5915645789add5de5152",
                "label": "GnosisSafeProxy_e6b7_5152"
            },
            {
                "address": "0xd9db270c1b5e3bd161e8c8503c55ceabee709552",
                "label": "Safe: Singleton 1.3.0"
            },
            {
                "address": "0x0439e60f02a8900a951603950d8d4527f400c3f1",
                "label": "MetaMask: Meta Bridge"
            },
            {
                "address": "0xb32c3d0ddb0063ffb15e8a50b40cc62230d820b3",
                "label": "ZkEvmV2"
            },
            {
                "address": "0x789ac91519a3344e4845e12870f3364e7df26d23",
                "label": "LineaMessengerWrapper"
            },
            {
                "address": "0x0000000000000000000000000000000000000003",
                "label": "Precompiled"
            },
            {
                "address": "0x3a23f943181408eac424116af7b7790c94cb97a5",
                "label": "Socket: Gateway"
            },
            {
                "address": "0x0000000000000000000000000000000000000001",
                "label": "Precompiled"
            },
            {
                "address": "0x0000000000000000000000000000000000000002",
                "label": "Precompiled"
            },
            {
                "address": "0xeeeeeeeeeeeeeeeeeeeeeeeeeeeeeeeeeeeeeeee",
                "label": "Ether"
            },
            {
                "address": "0xd19d4b5d358258f05d7b411e21a1460d11b0876f",
                "label": "Linea: L1 Message Service"
            },
            {
                "address": "0x0000000000000000000000000000000000000000",
                "label": "Null Address"
            },
            {
                "address": "0x2197a1d9af24b4d6a64bff95b4c29fcd3ff28c30",
                "label": "HopImplL1V2"
            }
        ]
    },
    "trace": {
        "accountLabels": null,
        "dataMap": {
            "-1": {
                "invocation": {
                    "address": "0xecc226e690d36c4d15008440486450e2ff5df9fa",
                    "callData": "",
                    "decodedMethod": null,
                    "errorInfo": "",
                    "fromAddress": "",
                    "gasUsed": 0,
                    "id": -1,
                    "methodDecoded": false,
                    "operation": "",
                    "output": "",
                    "revert": false,
                    "revertMessage": "",
                    "selector": "",
                    "status": false,
                    "value": ""
                },
                "nodeType": 0
            },
            "0": {
                "invocation": {
                    "address": "0x0439e60f02a8900a951603950d8d4527f400c3f1",
                    "callData": "0x0000000000000000000000000000000000000000000000000000000000000080000000000000000000000000000000000000000000000000000000000000000000000000000000000000000000000000000000000000000000b1a2bc2ec5000000000000000000000000000000000000000000000000000000000000000000c0000000000000000000000000000000000000000000000000000000000000000f736f636b6574416461707465725632000000000000000000000000000000000000000000000000000000000000000000000000000000000000000000000001a00000000000000000000000003a23f943181408eac424116af7b7790c94cb97a50000000000000000000000003a23f943181408eac424116af7b7790c94cb97a5000000000000000000000000000000000000000000000000000000000000e7080000000000000000000000000000000000000000000000000000000000000000000000000000000000000000000000000000000000000000000000000000000000000000000000000000000000000000000000000000000000b014d4c6ae2800000000000000000000000000000000000000000000000000000000000000014000000000000000000000000000000000000000000000000000018de76816d800000000000000000000000000e6b738da243e8fa2a0ed5915645789add5de5152000000000000000000000000000000000000000000000000000000000000004400000014ad1977e5b8901acb165ed027e32754e0ffe830802919727f0000e708ecc226e690d36c4d15008440486450e2ff5df9fa000000000000000000af33726ea59b0000000000000000000000000000000000000000000000000000000000",
                    "decodedMethod": {
                        "callParams": [
                            {
                                "name": "adapterId",
                                "type": "string",
                                "value": "socketAdapterV2"
                            },
                            {
                                "name": "srcToken",
                                "type": "address",
                                "value": "0x0000000000000000000000000000000000000000"
                            },
                            {
                                "name": "amount",
                                "type": "uint256",
                                "value": "50,000,000,000,000,000"
                            },
                            {
                                "name": "data",
                                "type": "bytes",
                                "value": "0x0000000000000000000000003a23f943181408eac424116af7b7790c94cb97a50000000000000000000000003a23f943181408eac424116af7b7790c94cb97a5000000000000000000000000000000000000000000000000000000000000e7080000000000000000000000000000000000000000000000000000000000000000000000000000000000000000000000000000000000000000000000000000000000000000000000000000000000000000000000000000000000b014d4c6ae2800000000000000000000000000000000000000000000000000000000000000014000000000000000000000000000000000000000000000000000018de76816d800000000000000000000000000e6b738da243e8fa2a0ed5915645789add5de5152000000000000000000000000000000000000000000000000000000000000004400000014ad1977e5b8901acb165ed027e32754e0ffe830802919727f0000e708ecc226e690d36c4d15008440486450e2ff5df9fa000000000000000000af33726ea59b0000000000000000000000000000000000000000000000000000000000"
                            }
                        ],
                        "constructorArguments": "",
                        "name": "bridge",
                        "returnParams": [],
                        "signature": "bridge(string,address,uint256,bytes)"
                    },
                    "errorInfo": "",
                    "fromAddress": "0xecc226e690d36c4d15008440486450e2ff5df9fa",
                    "gasUsed": 170134,
                    "id": 0,
                    "methodDecoded": true,
                    "operation": "CALL",
                    "output": "",
                    "revert": false,
                    "revertMessage": "",
                    "selector": "0x3ce33bff",
                    "status": true,
                    "value": "0.05"
                },
                "nodeType": 0
            },
            "1": {
                "invocation": {
                    "address": "0x9a47f3289794e9bbc6a3c571f6d96ad4e7baed16",
                    "callData": "0x0000000000000000000000007ac070f096c6e20931c3dc54f927446be232618b000000000000000000000000000000000000000000000000000000000000004000000000000000000000000000000000000000000000000000000000000001c4ab138240000000000000000000000000ecc226e690d36c4d15008440486450e2ff5df9fa0000000000000000000000003a23f943181408eac424116af7b7790c94cb97a50000000000000000000000003a23f943181408eac424116af7b7790c94cb97a5000000000000000000000000000000000000000000000000000000000000e7080000000000000000000000000000000000000000000000000000000000000000000000000000000000000000000000000000000000000000000000000000000000000000000000000000000000000000000000000000000000b014d4c6ae2800000000000000000000000000000000000000000000000000000000000000014000000000000000000000000000000000000000000000000000018de76816d800000000000000000000000000e6b738da243e8fa2a0ed5915645789add5de5152000000000000000000000000000000000000000000000000000000000000004400000014ad1977e5b8901acb165ed027e32754e0ffe830802919727f0000e708ecc226e690d36c4d15008440486450e2ff5df9fa000000000000000000af33726ea59b000000000000000000000000000000000000000000000000000000000000000000000000000000000000000000000000000000000000000000",
                    "decodedMethod": {
                        "callParams": [
                            {
                                "name": "_externalContractAddress",
                                "type": "address",
                                "value": "0x7ac070f096c6e20931c3dc54f927446be232618b"
                            },
                            {
                                "name": "payload",
                                "type": "bytes",
                                "value": "0xab138240000000000000000000000000ecc226e690d36c4d15008440486450e2ff5df9fa0000000000000000000000003a23f943181408eac424116af7b7790c94cb97a50000000000000000000000003a23f943181408eac424116af7b7790c94cb97a5000000000000000000000000000000000000000000000000000000000000e7080000000000000000000000000000000000000000000000000000000000000000000000000000000000000000000000000000000000000000000000000000000000000000000000000000000000000000000000000000000000b014d4c6ae2800000000000000000000000000000000000000000000000000000000000000014000000000000000000000000000000000000000000000000000018de76816d800000000000000000000000000e6b738da243e8fa2a0ed5915645789add5de5152000000000000000000000000000000000000000000000000000000000000004400000014ad1977e5b8901acb165ed027e32754e0ffe830802919727f0000e708ecc226e690d36c4d15008440486450e2ff5df9fa000000000000000000af33726ea59b0000000000000000000000000000000000000000000000000000000000"
                            }
                        ],
                        "constructorArguments": "",
                        "name": "bridge",
                        "returnParams": [],
                        "signature": "bridge(address,bytes)"
                    },
                    "errorInfo": "",
                    "fromAddress": "0x0439e60f02a8900a951603950d8d4527f400c3f1",
                    "gasUsed": 125442,
                    "id": 1,
                    "methodDecoded": true,
                    "operation": "CALL",
                    "output": "",
                    "revert": false,
                    "revertMessage": "",
                    "selector": "0x4cfee326",
                    "status": true,
                    "value": "0.05"
                },
                "nodeType": 0
            },
            "10": {
                "invocation": {
                    "address": "0x789ac91519a3344e4845e12870f3364e7df26d23",
                    "callData": "0x000000000000000000000000000000000000000000000000000000000000002000000000000000000000000000000000000000000000000000000000000000c4cc29a306000000000000000000000000ecc226e690d36c4d15008440486450e2ff5df9fa00000000000000000000000000000000000000000000000000b014d4c6ae280000000000000000000000000000000000000000000000000000af33726ea59b0000000000000000000000000000000000000000000000000000000000657de7070000000000000000000000000000000000000000000000000000000000000000000000000000000000000000000000000000000000000000000000000000000000000000000000000000000000000000000000000000000000000000",
                    "decodedMethod": {
                        "callParams": [
                            {
                                "name": "_calldata",
                                "type": "bytes",
                                "value": "0xcc29a306000000000000000000000000ecc226e690d36c4d15008440486450e2ff5df9fa00000000000000000000000000000000000000000000000000b014d4c6ae280000000000000000000000000000000000000000000000000000af33726ea59b0000000000000000000000000000000000000000000000000000000000657de70700000000000000000000000000000000000000000000000000000000000000000000000000000000000000000000000000000000000000000000000000000000"
                            }
                        ],
                        "constructorArguments": "",
                        "name": "sendCrossDomainMessage",
                        "returnParams": [],
                        "signature": "sendCrossDomainMessage(bytes)"
                    },
                    "errorInfo": "",
                    "fromAddress": "0xb8901acb165ed027e32754e0ffe830802919727f",
                    "gasUsed": 54270,
                    "id": 10,
                    "methodDecoded": true,
                    "operation": "CALL",
                    "output": "",
                    "revert": false,
                    "revertMessage": "",
                    "selector": "0x419cb550",
                    "status": true,
                    "value": "0"
                },
                "nodeType": 0
            },
            "11": {
                "invocation": {
                    "address": "0xd19d4b5d358258f05d7b411e21a1460d11b0876f",
                    "callData": "0x000000000000000000000000cbb852a6274e03fa00fb4895de0463f66df27a110000000000000000000000000000000000000000000000000000000000000000000000000000000000000000000000000000000000000000000000000000006000000000000000000000000000000000000000000000000000000000000000c4cc29a306000000000000000000000000ecc226e690d36c4d15008440486450e2ff5df9fa00000000000000000000000000000000000000000000000000b014d4c6ae280000000000000000000000000000000000000000000000000000af33726ea59b0000000000000000000000000000000000000000000000000000000000657de7070000000000000000000000000000000000000000000000000000000000000000000000000000000000000000000000000000000000000000000000000000000000000000000000000000000000000000000000000000000000000000",
                    "decodedMethod": {
                        "callParams": [
                            {
                                "name": "_to",
                                "type": "address",
                                "value": "0xcbb852a6274e03fa00fb4895de0463f66df27a11"
                            },
                            {
                                "name": "_fee",
                                "type": "uint256",
                                "value": "0"
                            },
                            {
                                "name": "_calldata",
                                "type": "bytes",
                                "value": "0xcc29a306000000000000000000000000ecc226e690d36c4d15008440486450e2ff5df9fa00000000000000000000000000000000000000000000000000b014d4c6ae280000000000000000000000000000000000000000000000000000af33726ea59b0000000000000000000000000000000000000000000000000000000000657de70700000000000000000000000000000000000000000000000000000000000000000000000000000000000000000000000000000000000000000000000000000000"
                            }
                        ],
                        "constructorArguments": "",
                        "name": "sendMessage",
                        "returnParams": [],
                        "signature": "sendMessage(address,uint256,bytes)"
                    },
                    "errorInfo": "",
                    "fromAddress": "0x789ac91519a3344e4845e12870f3364e7df26d23",
                    "gasUsed": 45721,
                    "id": 11,
                    "methodDecoded": true,
                    "operation": "CALL",
                    "output": "",
                    "revert": false,
                    "revertMessage": "",
                    "selector": "0x9f3ce55a",
                    "status": true,
                    "value": "0"
                },
                "nodeType": 0
            },
            "12": {
                "invocation": {
                    "address": "0xb32c3d0ddb0063ffb15e8a50b40cc62230d820b3",
                    "callData": "0x000000000000000000000000cbb852a6274e03fa00fb4895de0463f66df27a110000000000000000000000000000000000000000000000000000000000000000000000000000000000000000000000000000000000000000000000000000006000000000000000000000000000000000000000000000000000000000000000c4cc29a306000000000000000000000000ecc226e690d36c4d15008440486450e2ff5df9fa00000000000000000000000000000000000000000000000000b014d4c6ae280000000000000000000000000000000000000000000000000000af33726ea59b0000000000000000000000000000000000000000000000000000000000657de7070000000000000000000000000000000000000000000000000000000000000000000000000000000000000000000000000000000000000000000000000000000000000000000000000000000000000000000000000000000000000000",
                    "decodedMethod": {
                        "callParams": [
                            {
                                "name": "_to",
                                "type": "address",
                                "value": "0xcbb852a6274e03fa00fb4895de0463f66df27a11"
                            },
                            {
                                "name": "_fee",
                                "type": "uint256",
                                "value": "0"
                            },
                            {
                                "name": "_calldata",
                                "type": "bytes",
                                "value": "0xcc29a306000000000000000000000000ecc226e690d36c4d15008440486450e2ff5df9fa00000000000000000000000000000000000000000000000000b014d4c6ae280000000000000000000000000000000000000000000000000000af33726ea59b0000000000000000000000000000000000000000000000000000000000657de70700000000000000000000000000000000000000000000000000000000000000000000000000000000000000000000000000000000000000000000000000000000"
                            }
                        ],
                        "constructorArguments": "",
                        "name": "sendMessage",
                        "returnParams": [],
                        "signature": "sendMessage(address,uint256,bytes)"
                    },
                    "errorInfo": "",
                    "fromAddress": "0xd19d4b5d358258f05d7b411e21a1460d11b0876f",
                    "gasUsed": 38507,
                    "id": 12,
                    "methodDecoded": true,
                    "operation": "DELEGATECALL",
                    "output": "",
                    "revert": false,
                    "revertMessage": "",
                    "selector": "0x9f3ce55a",
                    "status": true,
                    "value": "0"
                },
                "nodeType": 0
            },
            "13": {
                "event": {
                    "contract": "0xd19d4b5d358258f05d7b411e21a1460d11b0876f",
                    "decodedLog": {
                        "name": "MessageSent",
                        "params": [
                            {
                                "name": "_from",
                                "type": "address",
                                "value": "0x789ac91519a3344e4845e12870f3364e7df26d23"
                            },
                            {
                                "name": "_to",
                                "type": "address",
                                "value": "0xcbb852a6274e03fa00fb4895de0463f66df27a11"
                            },
                            {
                                "name": "_messageHash",
                                "type": "bytes32",
                                "value": "0x09408994dfc858fa8b4fad894a82f082e4872efaeada99cf41578242a2bfc957"
                            },
                            {
                                "name": "_fee",
                                "type": "uint256",
                                "value": "0"
                            },
                            {
                                "name": "_value",
                                "type": "uint256",
                                "value": "0"
                            },
                            {
                                "name": "_nonce",
                                "type": "uint256",
                                "value": "457,289"
                            },
                            {
                                "name": "_calldata",
                                "type": "bytes",
                                "value": "0xcc29a306000000000000000000000000ecc226e690d36c4d15008440486450e2ff5df9fa00000000000000000000000000000000000000000000000000b014d4c6ae280000000000000000000000000000000000000000000000000000af33726ea59b0000000000000000000000000000000000000000000000000000000000657de70700000000000000000000000000000000000000000000000000000000000000000000000000000000000000000000000000000000000000000000000000000000"
                            }
                        ],
                        "signature": "MessageSent(address,address,uint256,uint256,uint256,bytes,bytes32)"
                    },
                    "id": 13,
                    "logData": "0x00000000000000000000000000000000000000000000000000000000000000000000000000000000000000000000000000000000000000000000000000000000000000000000000000000000000000000000000000000000000000000006fa49000000000000000000000000000000000000000000000000000000000000008000000000000000000000000000000000000000000000000000000000000000c4cc29a306000000000000000000000000ecc226e690d36c4d15008440486450e2ff5df9fa00000000000000000000000000000000000000000000000000b014d4c6ae280000000000000000000000000000000000000000000000000000af33726ea59b0000000000000000000000000000000000000000000000000000000000657de7070000000000000000000000000000000000000000000000000000000000000000000000000000000000000000000000000000000000000000000000000000000000000000000000000000000000000000000000000000000000000000",
                    "logDecoded": true,
                    "operation": "EVENT",
                    "revert": false,
                    "status": true,
                    "topics": [
                        "0xe856c2b8bd4eb0027ce32eeaf595c21b0b6b4644b326e5b7bd80a1cf8db72e6c",
                        "0x000000000000000000000000789ac91519a3344e4845e12870f3364e7df26d23",
                        "0x000000000000000000000000cbb852a6274e03fa00fb4895de0463f66df27a11",
                        "0x09408994dfc858fa8b4fad894a82f082e4872efaeada99cf41578242a2bfc957"
                    ]
                },
                "nodeType": 1
            },
            "14": {
                "event": {
                    "contract": "0xb8901acb165ed027e32754e0ffe830802919727f",
                    "decodedLog": {
                        "name": "TransferSentToL2",
                        "params": [
                            {
                                "name": "chainId",
                                "type": "uint256",
                                "value": "59,144"
                            },
                            {
                                "name": "recipient",
                                "type": "address",
                                "value": "0xecc226e690d36c4d15008440486450e2ff5df9fa"
                            },
                            {
                                "name": "relayer",
                                "type": "address",
                                "value": "0x0000000000000000000000000000000000000000"
                            },
                            {
                                "name": "amount",
                                "type": "uint256",
                                "value": "49,562,500,000,000,000"
                            },
                            {
                                "name": "amountOutMin",
                                "type": "uint256",
                                "value": "49,314,687,500,000,000"
                            },
                            {
                                "name": "deadline",
                                "type": "uint256",
                                "value": "1,702,749,959"
                            },
                            {
                                "name": "relayerFee",
                                "type": "uint256",
                                "value": "0"
                            }
                        ],
                        "signature": "TransferSentToL2(uint256,address,uint256,uint256,uint256,address,uint256)"
                    },
                    "id": 14,
                    "logData": "0x00000000000000000000000000000000000000000000000000b014d4c6ae280000000000000000000000000000000000000000000000000000af33726ea59b0000000000000000000000000000000000000000000000000000000000657de7070000000000000000000000000000000000000000000000000000000000000000",
                    "logDecoded": true,
                    "operation": "EVENT",
                    "revert": false,
                    "status": true,
                    "topics": [
                        "0x0a0607688c86ec1775abcdbab7b33a3a35a6c9cde677c9be880150c231cc6b0b",
                        "0x000000000000000000000000000000000000000000000000000000000000e708",
                        "0x000000000000000000000000ecc226e690d36c4d15008440486450e2ff5df9fa",
                        "0x0000000000000000000000000000000000000000000000000000000000000000"
                    ]
                },
                "nodeType": 1
            },
            "15": {
                "event": {
                    "contract": "0x3a23f943181408eac424116af7b7790c94cb97a5",
                    "decodedLog": {
                        "name": "SocketBridge",
                        "params": [
                            {
                                "name": "amount",
                                "type": "uint256",
                                "value": "49,562,500,000,000,000"
                            },
                            {
                                "name": "token",
                                "type": "address",
                                "value": "0xeeeeeeeeeeeeeeeeeeeeeeeeeeeeeeeeeeeeeeee"
                            },
                            {
                                "name": "toChainId",
                                "type": "uint256",
                                "value": "59,144"
                            },
                            {
                                "name": "bridgeName",
                                "type": "bytes32",
                                "value": "0x837ed841e30438f54fb6b0097c30a5c4f64b47545c3df655bcd6e44bb8991e37"
                            },
                            {
                                "name": "sender",
                                "type": "address",
                                "value": "0x9a47f3289794e9bbc6a3c571f6d96ad4e7baed16"
                            },
                            {
                                "name": "receiver",
                                "type": "address",
                                "value": "0xecc226e690d36c4d15008440486450e2ff5df9fa"
                            },
                            {
                                "name": "metadata",
                                "type": "bytes32",
                                "value": "0x0100000000000000000000000000000000000000000000000000000000000000"
                            }
                        ],
                        "signature": "SocketBridge(uint256,address,uint256,bytes32,address,address,bytes32)"
                    },
                    "id": 15,
                    "logData": "0x00000000000000000000000000000000000000000000000000b014d4c6ae2800000000000000000000000000eeeeeeeeeeeeeeeeeeeeeeeeeeeeeeeeeeeeeeee000000000000000000000000000000000000000000000000000000000000e708837ed841e30438f54fb6b0097c30a5c4f64b47545c3df655bcd6e44bb8991e370000000000000000000000009a47f3289794e9bbc6a3c571f6d96ad4e7baed16000000000000000000000000ecc226e690d36c4d15008440486450e2ff5df9fa0100000000000000000000000000000000000000000000000000000000000000",
                    "logDecoded": true,
                    "operation": "EVENT",
                    "revert": false,
                    "status": true,
                    "topics": [
                        "0x74594da9e31ee4068e17809037db37db496702bf7d8d63afe6f97949277d1609"
                    ]
                },
                "nodeType": 1
            },
            "16": {
                "event": {
                    "contract": "0x9a47f3289794e9bbc6a3c571f6d96ad4e7baed16",
                    "decodedLog": null,
                    "id": 16,
                    "logData": "0x000000000000000000000000ecc226e690d36c4d15008440486450e2ff5df9fa0000000000000000000000003a23f943181408eac424116af7b7790c94cb97a5000000000000000000000000000000000000000000000000000000000000e7080000000000000000000000000000000000000000000000000000000000000000000000000000000000000000000000000000000000000000000000000000000000000000000000000000000000000000000000000000000000b014d4c6ae2800",
                    "logDecoded": false,
                    "operation": "EVENT",
                    "revert": false,
                    "status": true,
                    "topics": [
                        "0x831bac9533a2034226daa21109dbd4f887674f0fe4877e1a8b35b3ffe1bdce76"
                    ]
                },
                "nodeType": 1
            },
            "2": {
                "invocation": {
                    "address": "0x7ac070f096c6e20931c3dc54f927446be232618b",
                    "callData": "0x000000000000000000000000ecc226e690d36c4d15008440486450e2ff5df9fa0000000000000000000000003a23f943181408eac424116af7b7790c94cb97a50000000000000000000000003a23f943181408eac424116af7b7790c94cb97a5000000000000000000000000000000000000000000000000000000000000e7080000000000000000000000000000000000000000000000000000000000000000000000000000000000000000000000000000000000000000000000000000000000000000000000000000000000000000000000000000000000b014d4c6ae2800000000000000000000000000000000000000000000000000000000000000014000000000000000000000000000000000000000000000000000018de76816d800000000000000000000000000e6b738da243e8fa2a0ed5915645789add5de5152000000000000000000000000000000000000000000000000000000000000004400000014ad1977e5b8901acb165ed027e32754e0ffe830802919727f0000e708ecc226e690d36c4d15008440486450e2ff5df9fa000000000000000000af33726ea59b0000000000000000000000000000000000000000000000000000000000",
                    "decodedMethod": null,
                    "errorInfo": "",
                    "fromAddress": "0x9a47f3289794e9bbc6a3c571f6d96ad4e7baed16",
                    "gasUsed": 120450,
                    "id": 2,
                    "methodDecoded": false,
                    "operation": "DELEGATECALL",
                    "output": "",
                    "revert": false,
                    "revertMessage": "",
                    "selector": "0xab138240",
                    "status": true,
                    "value": "0.05"
                },
                "nodeType": 0
            },
            "3": {
                "invocation": {
                    "address": "0xe6b738da243e8fa2a0ed5915645789add5de5152",
                    "callData": "0x",
                    "decodedMethod": null,
                    "errorInfo": "",
                    "fromAddress": "0x9a47f3289794e9bbc6a3c571f6d96ad4e7baed16",
                    "gasUsed": 6329,
                    "id": 3,
                    "methodDecoded": false,
                    "operation": "CALL",
                    "output": "",
                    "revert": false,
                    "revertMessage": "",
                    "selector": "fallback",
                    "status": true,
                    "value": "0.0004375"
                },
                "nodeType": 0
            },
            "4": {
                "invocation": {
                    "address": "0xd9db270c1b5e3bd161e8c8503c55ceabee709552",
                    "callData": "0x",
                    "decodedMethod": null,
                    "errorInfo": "",
                    "fromAddress": "0xe6b738da243e8fa2a0ed5915645789add5de5152",
                    "gasUsed": 1504,
                    "id": 4,
                    "methodDecoded": false,
                    "operation": "DELEGATECALL",
                    "output": "",
                    "revert": false,
                    "revertMessage": "",
                    "selector": "fallback",
                    "status": true,
                    "value": "0.0004375"
                },
                "nodeType": 0
            },
            "5": {
                "event": {
                    "contract": "0xe6b738da243e8fa2a0ed5915645789add5de5152",
                    "decodedLog": {
                        "name": "SafeReceived",
                        "params": [
                            {
                                "name": "sender",
                                "type": "address",
                                "value": "0x9a47f3289794e9bbc6a3c571f6d96ad4e7baed16"
                            },
                            {
                                "name": "value",
                                "type": "uint256",
                                "value": "437,500,000,000,000"
                            }
                        ],
                        "signature": "SafeReceived(address,uint256)"
                    },
                    "id": 5,
                    "logData": "0x00000000000000000000000000000000000000000000000000018de76816d800",
                    "logDecoded": true,
                    "operation": "EVENT",
                    "revert": false,
                    "status": true,
                    "topics": [
                        "0x3d0ce9bfc3ed7d6862dbb28b2dea94561fe714a1b4d019aa8af39730d1ad7c3d",
                        "0x0000000000000000000000009a47f3289794e9bbc6a3c571f6d96ad4e7baed16"
                    ]
                },
                "nodeType": 1
            },
            "6": {
                "event": {
                    "contract": "0x9a47f3289794e9bbc6a3c571f6d96ad4e7baed16",
                    "decodedLog": {
                        "name": "Fee",
                        "params": [
                            {
                                "name": "_sender",
                                "type": "address",
                                "value": "0x0000000000000000000000000000000000000000"
                            },
                            {
                                "name": "_reciever",
                                "type": "address",
                                "value": "0xe6b738da243e8fa2a0ed5915645789add5de5152"
                            },
                            {
                                "name": "_amount",
                                "type": "uint256",
                                "value": "437,500,000,000,000"
                            }
                        ],
                        "signature": "Fee(address,address,uint256)"
                    },
                    "id": 6,
                    "logData": "0x0000000000000000000000000000000000000000000000000000000000000000000000000000000000000000e6b738da243e8fa2a0ed5915645789add5de515200000000000000000000000000000000000000000000000000018de76816d800",
                    "logDecoded": true,
                    "operation": "EVENT",
                    "revert": false,
                    "status": true,
                    "topics": [
                        "0x6ded982279c8387ad8a63e73385031a3807c1862e633f06e09d11bcb6e282f60"
                    ]
                },
                "nodeType": 1
            },
            "7": {
                "invocation": {
                    "address": "0x3a23f943181408eac424116af7b7790c94cb97a5",
                    "callData": "0xad1977e5b8901acb165ed027e32754e0ffe830802919727f0000e708ecc226e690d36c4d15008440486450e2ff5df9fa000000000000000000af33726ea59b00",
                    "decodedMethod": null,
                    "errorInfo": "",
                    "fromAddress": "0x9a47f3289794e9bbc6a3c571f6d96ad4e7baed16",
                    "gasUsed": 88739,
                    "id": 7,
                    "methodDecoded": false,
                    "operation": "CALL",
                    "output": "",
                    "revert": false,
                    "revertMessage": "",
                    "selector": "0x00000014",
                    "status": true,
                    "value": "0.0495625"
                },
                "nodeType": 0
            },
            "8": {
                "invocation": {
                    "address": "0x2197a1d9af24b4d6a64bff95b4c29fcd3ff28c30",
                    "callData": "0xb8901acb165ed027e32754e0ffe830802919727f0000e708ecc226e690d36c4d15008440486450e2ff5df9fa000000000000000000af33726ea59b00",
                    "decodedMethod": {
                        "callParams": [],
                        "constructorArguments": "",
                        "name": "bridgeNativeToOptimised",
                        "returnParams": [],
                        "signature": "bridgeNativeToOptimised()"
                    },
                    "errorInfo": "",
                    "fromAddress": "0x3a23f943181408eac424116af7b7790c94cb97a5",
                    "gasUsed": 85477,
                    "id": 8,
                    "methodDecoded": true,
                    "operation": "DELEGATECALL",
                    "output": "",
                    "revert": false,
                    "revertMessage": "",
                    "selector": "0xad1977e5",
                    "status": true,
                    "value": "0.0495625"
                },
                "nodeType": 0
            },
            "9": {
                "invocation": {
                    "address": "0xb8901acb165ed027e32754e0ffe830802919727f",
                    "callData": "0x000000000000000000000000000000000000000000000000000000000000e708000000000000000000000000ecc226e690d36c4d15008440486450e2ff5df9fa00000000000000000000000000000000000000000000000000b014d4c6ae280000000000000000000000000000000000000000000000000000af33726ea59b0000000000000000000000000000000000000000000000000000000000657de70700000000000000000000000000000000000000000000000000000000000000000000000000000000000000000000000000000000000000000000000000000000",
                    "decodedMethod": {
                        "callParams": [
                            {
                                "name": "chainId",
                                "type": "uint256",
                                "value": "59,144"
                            },
                            {
                                "name": "recipient",
                                "type": "address",
                                "value": "0xecc226e690d36c4d15008440486450e2ff5df9fa"
                            },
                            {
                                "name": "amount",
                                "type": "uint256",
                                "value": "49,562,500,000,000,000"
                            },
                            {
                                "name": "amountOutMin",
                                "type": "uint256",
                                "value": "49,314,687,500,000,000"
                            },
                            {
                                "name": "deadline",
                                "type": "uint256",
                                "value": "1,702,749,959"
                            },
                            {
                                "name": "relayer",
                                "type": "address",
                                "value": "0x0000000000000000000000000000000000000000"
                            },
                            {
                                "name": "relayerFee",
                                "type": "uint256",
                                "value": "0"
                            }
                        ],
                        "constructorArguments": "",
                        "name": "sendToL2",
                        "returnParams": [],
                        "signature": "sendToL2(uint256,address,uint256,uint256,uint256,address,uint256)"
                    },
                    "errorInfo": "",
                    "fromAddress": "0x3a23f943181408eac424116af7b7790c94cb97a5",
                    "gasUsed": 71527,
                    "id": 9,
                    "methodDecoded": true,
                    "operation": "CALL",
                    "output": "",
                    "revert": false,
                    "revertMessage": "",
                    "selector": "0xdeace8f5",
                    "status": true,
                    "value": "0.0495625"
                },
                "nodeType": 0
            }
        },
        "gasFlame": [
            {
                "children": [
                    {
                        "children": [
                            {
                                "children": [],
                                "depth": 0,
                                "name": "Initial Gas",
                                "value": 25472
                            },
                            {
                                "children": [
                                    {
                                        "children": [
                                            {
                                                "children": [
                                                    {
                                                        "children": [
                                                            {
                                                                "children": [],
                                                                "depth": 4,
                                                                "name": "fallback",
                                                                "value": 1504
                                                            }
                                                        ],
                                                        "depth": 3,
                                                        "name": "fallback",
                                                        "value": 6329
                                                    },
                                                    {
                                                        "children": [
                                                            {
                                                                "children": [
                                                                    {
                                                                        "children": [
                                                                            {
                                                                                "children": [
                                                                                    {
                                                                                        "children": [
                                                                                            {
                                                                                                "children": [],
                                                                                                "depth": 8,
                                                                                                "name": "sendMessage",
                                                                                                "value": 38507
                                                                                            }
                                                                                        ],
                                                                                        "depth": 7,
                                                                                        "name": "sendMessage",
                                                                                        "value": 45721
                                                                                    }
                                                                                ],
                                                                                "depth": 6,
                                                                                "name": "sendCrossDomainMessage",
                                                                                "value": 54270
                                                                            }
                                                                        ],
                                                                        "depth": 5,
                                                                        "name": "sendToL2",
                                                                        "value": 71527
                                                                    }
                                                                ],
                                                                "depth": 4,
                                                                "name": "bridgeNativeToOptimised",
                                                                "value": 85477
                                                            }
                                                        ],
                                                        "depth": 3,
                                                        "name": "0x00000014",
                                                        "value": 88739
                                                    }
                                                ],
                                                "depth": 2,
                                                "name": "0xab138240",
                                                "value": 120450
                                            }
                                        ],
                                        "depth": 1,
                                        "name": "bridge",
                                        "value": 125442
                                    }
                                ],
                                "depth": 0,
                                "name": "Executed Gas",
                                "value": 147462
                            }
                        ],
                        "depth": -1,
                        "name": "Actual Gas Used",
                        "value": 170134
                    },
                    {
                        "children": [],
                        "depth": -1,
                        "name": "Refunded Gas",
                        "value": 2800
                    }
                ],
                "depth": -2,
                "name": "Total Gas",
                "value": 172934
            }
        ],
        "isConfirmed": true,
        "mainTrace": [
            {
                "children": [
                    {
                        "children": [
                            {
                                "children": [
                                    {
                                        "children": [
                                            {
                                                "children": [
                                                    {
                                                        "children": [
                                                            {
                                                                "children": [],
                                                                "depth": 5,
                                                                "id": 5,
                                                                "order": 5
                                                            }
                                                        ],
                                                        "depth": 4,
                                                        "id": 4,
                                                        "order": 4
                                                    }
                                                ],
                                                "depth": 3,
                                                "id": 3,
                                                "order": 3
                                            },
                                            {
                                                "children": [],
                                                "depth": 3,
                                                "id": 6,
                                                "order": 6
                                            },
                                            {
                                                "children": [
                                                    {
                                                        "children": [
                                                            {
                                                                "children": [
                                                                    {
                                                                        "children": [
                                                                            {
                                                                                "children": [
                                                                                    {
                                                                                        "children": [
                                                                                            {
                                                                                                "children": [],
                                                                                                "depth": 9,
                                                                                                "id": 13,
                                                                                                "order": 13
                                                                                            }
                                                                                        ],
                                                                                        "depth": 8,
                                                                                        "id": 12,
                                                                                        "order": 12
                                                                                    }
                                                                                ],
                                                                                "depth": 7,
                                                                                "id": 11,
                                                                                "order": 11
                                                                            }
                                                                        ],
                                                                        "depth": 6,
                                                                        "id": 10,
                                                                        "order": 10
                                                                    },
                                                                    {
                                                                        "children": [],
                                                                        "depth": 6,
                                                                        "id": 14,
                                                                        "order": 14
                                                                    }
                                                                ],
                                                                "depth": 5,
                                                                "id": 9,
                                                                "order": 9
                                                            },
                                                            {
                                                                "children": [],
                                                                "depth": 5,
                                                                "id": 15,
                                                                "order": 15
                                                            }
                                                        ],
                                                        "depth": 4,
                                                        "id": 8,
                                                        "order": 8
                                                    }
                                                ],
                                                "depth": 3,
                                                "id": 7,
                                                "order": 7
                                            },
                                            {
                                                "children": [],
                                                "depth": 3,
                                                "id": 16,
                                                "order": 16
                                            }
                                        ],
                                        "depth": 2,
                                        "id": 2,
                                        "order": 2
                                    }
                                ],
                                "depth": 1,
                                "id": 1,
                                "order": 1
                            }
                        ],
                        "depth": 0,
                        "id": 0,
                        "order": 0
                    }
                ],
                "depth": -1,
                "id": -1,
                "order": -1
            }
        ],
        "mainTraceNodeCount": 17,
        "parentIdMap": {
            "0": -1,
            "1": 0,
            "10": 9,
            "11": 10,
            "12": 11,
            "13": 12,
            "14": 9,
            "15": 8,
            "16": 2,
            "2": 1,
            "3": 2,
            "4": 3,
            "5": 4,
            "6": 2,
            "7": 2,
            "8": 7,
            "9": 8
        },
        "tidyTrace": [
            {
                "children": [
                    {
                        "children": [
                            {
                                "children": [
                                    {
                                        "children": [
                                            {
                                                "children": [
                                                    {
                                                        "children": [
                                                            {
                                                                "children": [],
                                                                "depth": 5,
                                                                "id": 5,
                                                                "order": 5
                                                            }
                                                        ],
                                                        "depth": 4,
                                                        "id": 4,
                                                        "order": 4
                                                    }
                                                ],
                                                "depth": 3,
                                                "id": 3,
                                                "order": 3
                                            },
                                            {
                                                "children": [],
                                                "depth": 3,
                                                "id": 6,
                                                "order": 6
                                            },
                                            {
                                                "children": [
                                                    {
                                                        "children": [
                                                            {
                                                                "children": [
                                                                    {
                                                                        "children": [
                                                                            {
                                                                                "children": [
                                                                                    {
                                                                                        "children": [
                                                                                            {
                                                                                                "children": [],
                                                                                                "depth": 9,
                                                                                                "id": 13,
                                                                                                "order": 13
                                                                                            }
                                                                                        ],
                                                                                        "depth": 8,
                                                                                        "id": 12,
                                                                                        "order": 12
                                                                                    }
                                                                                ],
                                                                                "depth": 7,
                                                                                "id": 11,
                                                                                "order": 11
                                                                            }
                                                                        ],
                                                                        "depth": 6,
                                                                        "id": 10,
                                                                        "order": 10
                                                                    },
                                                                    {
                                                                        "children": [],
                                                                        "depth": 6,
                                                                        "id": 14,
                                                                        "order": 14
                                                                    }
                                                                ],
                                                                "depth": 5,
                                                                "id": 9,
                                                                "order": 9
                                                            },
                                                            {
                                                                "children": [],
                                                                "depth": 5,
                                                                "id": 15,
                                                                "order": 15
                                                            }
                                                        ],
                                                        "depth": 4,
                                                        "id": 8,
                                                        "order": 8
                                                    }
                                                ],
                                                "depth": 3,
                                                "id": 7,
                                                "order": 7
                                            },
                                            {
                                                "children": [],
                                                "depth": 3,
                                                "id": 16,
                                                "order": 16
                                            }
                                        ],
                                        "depth": 2,
                                        "id": 2,
                                        "order": 2
                                    }
                                ],
                                "depth": 1,
                                "id": 1,
                                "order": 1
                            }
                        ],
                        "depth": 0,
                        "id": 0,
                        "order": 0
                    }
                ],
                "depth": -1,
                "id": -1,
                "order": -1
            }
        ],
        "tidyTraceNodeCount": 17
    },
    "state_change": {
        "stateChanges": [
            {
                "address": "0xb8901acb165ed027e32754e0ffe830802919727f",
                "erc": "",
                "slots": [
                    {
                        "current": "0x000000000000000000000000000000000000000000000030568e2c5eb859a187",
                        "key": "0x6b28eb348de3d1270133f5649b7b2c871428b9367194b933d29d9e5f6bd46711",
                        "prev": "0x00000000000000000000000000000000000000000000003055de1789f1ab7987"
                    }
                ],
                "storageVariables": [
                    {
                        "name": "chainBalance",
                        "type": "mapping(uint256 => uint256)",
                        "value": {
                            "pairs": [
                                {
                                    "key": "59144",
                                    "value": {
                                        "current": "891680686857344622983",
                                        "prev": "891631124357344622983",
                                        "typeTag": 1
                                    }
                                }
                            ],
                            "typeTag": 4
                        }
                    }
                ]
            },
            {
                "address": "0xd19d4b5d358258f05d7b411e21a1460d11b0876f",
                "erc": "",
                "slots": [
                    {
                        "current": "0x0000000000000000000000000000000000000000000000000000000000000001",
                        "key": "0xbe3a0b380d2b716380351bf6f524e0c8ae4422defb91689ca6cb65f616171c3e",
                        "prev": "0x0000000000000000000000000000000000000000000000000000000000000000"
                    },
                    {
                        "current": "0x000000000000000000000000000000000000000000000000000000000006fa4a",
                        "key": "0x00000000000000000000000000000000000000000000000000000000000000e4",
                        "prev": "0x000000000000000000000000000000000000000000000000000000000006fa49"
                    }
                ],
                "storageVariables": [
                    {
                        "name": "outboxL1L2MessageStatus",
                        "type": "mapping(bytes32 => uint256)",
                        "value": {
                            "pairs": [
                                {
                                    "key": "0x09408994dfc858fa8b4fad894a82f082e4872efaeada99cf41578242a2bfc957",
                                    "value": {
                                        "current": "1",
                                        "prev": "0",
                                        "typeTag": 1
                                    }
                                }
                            ],
                            "typeTag": 4
                        }
                    },
                    {
                        "name": "nextMessageNumber",
                        "type": "uint256",
                        "value": {
                            "current": "457290",
                            "prev": "457289",
                            "typeTag": 1
                        }
                    }
                ]
            }
        ]
    }
}