{
    "balance_change": {
        "balanceChanges": [
            {
                "account": "0x2a549b4af9ec39b03142da6dc32221fc390b5533",
                "assets": [
                    {
                        "address": "0x514910771af9ca656af840dff83e8264ecf986ca",
                        "amount": "33.09671285",
                        "iconUrl": "https://assets.blocksec.com/icon/f97453a18956674db69f16b525216d646fc76f3c7f90f0cd6147f8534d5af3e9.png",
                        "isERC1155": false,
                        "isERC721": false,
                        "sign": true,
                        "value": "841.5817809"
                    }
                ]
            },
            {
                "account": "0x383488912ce558a73d6ff223bc39370a8fb1bc6a",
                "assets": [
                    {
                        "address": "0x514910771af9ca656af840dff83e8264ecf986ca",
                        "amount": "33.09671285",
                        "iconUrl": "https://assets.blocksec.com/icon/f97453a18956674db69f16b525216d646fc76f3c7f90f0cd6147f8534d5af3e9.png",
                        "isERC1155": false,
                        "isERC721": false,
                        "sign": false,
                        "value": "841.5817809"
                    }
                ]
            }
        ]
    },
    "profile": {
        "basic_info": {
            "baseFee": "",
            "blockNumber": 12603062,
            "callData": "0x2da03409000000000000000000000000383488912ce558a73d6ff223bc39370a8fb1bc6a000000000000000000000000514910771af9ca656af840dff83e8264ecf986ca",
            "debugEnable": true,
            "errorInfo": "",
            "eventCount": 1,
            "feeRecipient": "0xea674fdde714fd979de3edf0f56aa9716b898ec8",
            "formatValue": "0",
            "gasLimit": 500000,
            "gasPrice": "21.231977088",
            "gasUsed": 43377,
            "intTxnCount": 4,
            "internalRevert": false,
            "internalRevertMessage": "",
            "isContractCreation": false,
            "isFlashloan": false,
            "maxFee": "",
            "nonce": 618943,
            "overwritedBlockNumber": -1,
            "priorityFee": "",
            "receiver": "0x2a549b4af9ec39b03142da6dc32221fc390b5533",
            "revertMessage": "",
            "sender": "0x808b4da0be6c9512e948521452227efc619bea52",
            "simulationEnable": true,
            "sourceTxnHash": "0x8907245526bde39441ec3c5d6b9c2d5f32eb4f338cd91499c9a06502d244d894",
            "status": true,
            "timestamp": "2021-06-09T22:41:23Z",
            "transactionFee": "0.000920979470146176",
            "txnHash": "0x8907245526bde39441ec3c5d6b9c2d5f32eb4f338cd91499c9a06502d244d894",
            "txnIndex": 62,
            "type": 0,
            "value": "0"
        },
        "fund_flow": [
            {
                "amount": "33.09671285",
                "from": "0x383488912ce558a73d6ff223bc39370a8fb1bc6a",
                "id": 1,
                "isERC1155": false,
                "isERC721": false,
                "isReverted": false,
                "order": 1,
                "to": "0x2a549b4af9ec39b03142da6dc32221fc390b5533",
                "token": "0x514910771af9ca656af840dff83e8264ecf986ca"
            }
        ],
        "token_infos": [
            {
                "address": "0x514910771af9ca656af840dff83e8264ecf986ca",
                "decimals": 18
            },
            {
                "address": "0xc02aaa39b223fe8d0a0e5c4f27ead9083c756cc2",
                "decimals": 18
            },
            {
                "address": "0xeeeeeeeeeeeeeeeeeeeeeeeeeeeeeeeeeeeeeeee",
                "decimals": 18
            }
        ]
    },
    "address_label": {
        "labels": [
            {
                "address": "0x0000000000000000000000000000000000000004",
                "label": "Precompiled"
            },
            {
                "address": "0xeeeeeeeeeeeeeeeeeeeeeeeeeeeeeeeeeeeeeeee",
                "label": "Ether"
            },
            {
                "address": "0x2a549b4af9ec39b03142da6dc32221fc390b5533",
                "label": "BlockFi 3"
            },
            {
                "address": "0x0000000000000000000000000000000000000001",
                "label": "Precompiled"
            },
            {
                "address": "0x0000000000000000000000000000000000000002",
                "label": "Precompiled"
            },
            {
                "address": "0x514910771af9ca656af840dff83e8264ecf986ca",
                "label": "Chainlink: LINK Token"
            },
            {
                "address": "0x808b4da0be6c9512e948521452227efc619bea52",
                "label": "BlockFi 5"
            },
            {
                "address": "0x059ffafdc6ef594230de44f824e2bd0a51ca5ded",
                "label": "Forwarder"
            },
            {
                "address": "0x0000000000000000000000000000000000000003",
                "label": "Precompiled"
            }
        ]
    },
    "trace": {
        "accountLabels": null,
        "dataMap": {
            "-1": {
                "invocation": {
                    "address": "0x808b4da0be6c9512e948521452227efc619bea52",
                    "callData": "",
                    "decodedMethod": null,
                    "errorInfo": "",
                    "fromAddress": "",
                    "gasUsed": 0,
                    "id": -1,
                    "methodDecoded": false,
                    "operation": "",
                    "output": "",
                    "revert": false,
                    "revertMessage": "",
                    "selector": "",
                    "status": false,
                    "value": ""
                },
                "nodeType": 0
            },
            "0": {
                "invocation": {
                    "address": "0x2a549b4af9ec39b03142da6dc32221fc390b5533",
                    "callData": "0x000000000000000000000000383488912ce558a73d6ff223bc39370a8fb1bc6a000000000000000000000000514910771af9ca656af840dff83e8264ecf986ca",
                    "decodedMethod": {
                        "callParams": [
                            {
                                "name": "forwarderAddress",
                                "type": "address",
                                "value": "0x383488912ce558a73d6ff223bc39370a8fb1bc6a"
                            },
                            {
                                "name": "tokenContractAddress",
                                "type": "address",
                                "value": "0x514910771af9ca656af840dff83e8264ecf986ca"
                            }
                        ],
                        "constructorArguments": "",
                        "name": "flushForwarderTokens",
                        "returnParams": [],
                        "signature": "flushForwarderTokens(address,address)"
                    },
                    "errorInfo": "",
                    "fromAddress": "0x808b4da0be6c9512e948521452227efc619bea52",
                    "gasUsed": 43377,
                    "id": 0,
                    "methodDecoded": true,
                    "operation": "CALL",
                    "output": "",
                    "revert": false,
                    "revertMessage": "",
                    "selector": "0x2da03409",
                    "status": true,
                    "value": "0"
                },
                "nodeType": 0
            },
            "1": {
                "invocation": {
                    "address": "0x383488912ce558a73d6ff223bc39370a8fb1bc6a",
                    "callData": "0x000000000000000000000000514910771af9ca656af840dff83e8264ecf986ca",
                    "decodedMethod": {
                        "callParams": [
                            {
                                "name": "tokenContractAddress",
                                "type": "address",
                                "value": "0x514910771af9ca656af840dff83e8264ecf986ca"
                            }
                        ],
                        "constructorArguments": "",
                        "name": "flushTokens",
                        "returnParams": [],
                        "signature": "flushTokens(address)"
                    },
                    "errorInfo": "",
                    "fromAddress": "0x2a549b4af9ec39b03142da6dc32221fc390b5533",
                    "gasUsed": 23273,
                    "id": 1,
                    "methodDecoded": true,
                    "operation": "CALL",
                    "output": "",
                    "revert": false,
                    "revertMessage": "",
                    "selector": "0x3ef13367",
                    "status": true,
                    "value": "0"
                },
                "nodeType": 0
            },
            "2": {
                "invocation": {
                    "address": "0x059ffafdc6ef594230de44f824e2bd0a51ca5ded",
                    "callData": "0x000000000000000000000000514910771af9ca656af840dff83e8264ecf986ca",
                    "decodedMethod": {
                        "callParams": [
                            {
                                "name": "tokenContractAddress",
                                "type": "address",
                                "value": "0x514910771af9ca656af840dff83e8264ecf986ca"
                            }
                        ],
                        "constructorArguments": "",
                        "name": "flushTokens",
                        "returnParams": [],
                        "signature": "flushTokens(address)"
                    },
                    "errorInfo": "",
                    "fromAddress": "0x383488912ce558a73d6ff223bc39370a8fb1bc6a",
                    "gasUsed": 20604,
                    "id": 2,
                    "methodDecoded": true,
                    "operation": "DELEGATECALL",
                    "output": "",
                    "revert": false,
                    "revertMessage": "",
                    "selector": "0x3ef13367",
                    "status": true,
                    "value": "0"
                },
                "nodeType": 0
            },
            "3": {
                "invocation": {
                    "address": "0x514910771af9ca656af840dff83e8264ecf986ca",
                    "callData": "0x000000000000000000000000383488912ce558a73d6ff223bc39370a8fb1bc6a",
                    "decodedMethod": {
                        "callParams": [
                            {
                                "name": "_owner",
                                "type": "address",
                                "value": "0x383488912ce558a73d6ff223bc39370a8fb1bc6a"
                            }
                        ],
                        "constructorArguments": "",
                        "name": "balanceOf",
                        "returnParams": [
                            {
                                "decimalAvailable": true,
                                "name": "balance",
                                "type": "uint256",
                                "value": "33,096,712,850,000,000,000"
                            }
                        ],
                        "signature": "balanceOf(address)"
                    },
                    "errorInfo": "",
                    "fromAddress": "0x383488912ce558a73d6ff223bc39370a8fb1bc6a",
                    "gasUsed": 2655,
                    "id": 3,
                    "methodDecoded": true,
                    "operation": "STATICCALL",
                    "output": "0x000000000000000000000000000000000000000000000001cb4f24fbb15b3400",
                    "revert": false,
                    "revertMessage": "",
                    "selector": "0x70a08231",
                    "status": true,
                    "value": "0"
                },
                "nodeType": 0
            },
            "4": {
                "invocation": {
                    "address": "0x514910771af9ca656af840dff83e8264ecf986ca",
                    "callData": "0x0000000000000000000000002a549b4af9ec39b03142da6dc32221fc390b5533000000000000000000000000000000000000000000000001cb4f24fbb15b3400",
                    "decodedMethod": {
                        "callParams": [
                            {
                                "name": "_to",
                                "type": "address",
                                "value": "0x2a549b4af9ec39b03142da6dc32221fc390b5533"
                            },
                            {
                                "decimalAvailable": true,
                                "name": "_value",
                                "type": "uint256",
                                "value": "33,096,712,850,000,000,000"
                            }
                        ],
                        "constructorArguments": "",
                        "name": "transfer",
                        "returnParams": [
                            {
                                "name": "success",
                                "type": "bool",
                                "value": true
                            }
                        ],
                        "signature": "transfer(address,uint256)"
                    },
                    "errorInfo": "",
                    "fromAddress": "0x383488912ce558a73d6ff223bc39370a8fb1bc6a",
                    "gasUsed": 11345,
                    "id": 4,
                    "methodDecoded": true,
                    "operation": "CALL",
                    "output": "0x0000000000000000000000000000000000000000000000000000000000000001",
                    "revert": false,
                    "revertMessage": "",
                    "selector": "0xa9059cbb",
                    "status": true,
                    "value": "0"
                },
                "nodeType": 0
            },
            "5": {
                "event": {
                    "contract": "0x514910771af9ca656af840dff83e8264ecf986ca",
                    "decodedLog": {
                        "name": "Transfer",
                        "params": [
                            {
                                "name": "from",
                                "type": "address",
                                "value": "0x383488912ce558a73d6ff223bc39370a8fb1bc6a"
                            },
                            {
                                "name": "to",
                                "type": "address",
                                "value": "0x2a549b4af9ec39b03142da6dc32221fc390b5533"
                            },
                            {
                                "decimalAvailable": true,
                                "name": "value",
                                "type": "uint256",
                                "value": "33,096,712,850,000,000,000"
                            }
                        ],
                        "signature": "Transfer(address,address,uint256)"
                    },
                    "id": 5,
                    "logData": "0x000000000000000000000000000000000000000000000001cb4f24fbb15b3400",
                    "logDecoded": true,
                    "operation": "EVENT",
                    "revert": false,
                    "status": true,
                    "topics": [
                        "0xddf252ad1be2c89b69c2b068fc378daa952ba7f163c4a11628f55a4df523b3ef",
                        "0x000000000000000000000000383488912ce558a73d6ff223bc39370a8fb1bc6a",
                        "0x0000000000000000000000002a549b4af9ec39b03142da6dc32221fc390b5533"
                    ]
                },
                "nodeType": 1
            }
        },
        "gasFlame": [
            {
                "children": [
                    {
                        "children": [
                            {
                                "children": [],
                                "depth": 0,
                                "name": "Initial Gas",
                                "value": 21800
                            },
                            {
                                "children": [
                                    {
                                        "children": [
                                            {
                                                "children": [
                                                    {
                                                        "children": [],
                                                        "depth": 3,
                                                        "name": "balanceOf",
                                                        "value": 2655
                                                    },
                                                    {
                                                        "children": [],
                                                        "depth": 3,
                                                        "name": "transfer",
                                                        "value": 11345
                                                    }
                                                ],
                                                "depth": 2,
                                                "name": "flushTokens",
                                                "value": 20604
                                            }
                                        ],
                                        "depth": 1,
                                        "name": "flushTokens",
                                        "value": 23273
                                    }
                                ],
                                "depth": 0,
                                "name": "Executed Gas",
                                "value": 36577
                            }
                        ],
                        "depth": -1,
                        "name": "Actual Gas Used",
                        "value": 43377
                    },
                    {
                        "children": [],
                        "depth": -1,
                        "name": "Refunded Gas",
                        "value": 15000
                    }
                ],
                "depth": -2,
                "name": "Total Gas",
                "value": 58377
            }
        ],
        "isConfirmed": true,
        "mainTrace": [
            {
                "children": [
                    {
                        "children": [
                            {
                                "children": [
                                    {
                                        "children": [
                                            {
                                                "children": [],
                                                "depth": 3,
                                                "id": 3,
                                                "order": 3
                                            },
                                            {
                                                "children": [
                                                    {
                                                        "children": [],
                                                        "depth": 4,
                                                        "id": 5,
                                                        "order": 5
                                                    }
                                                ],
                                                "depth": 3,
                                                "id": 4,
                                                "order": 4
                                            }
                                        ],
                                        "depth": 2,
                                        "id": 2,
                                        "order": 2
                                    }
                                ],
                                "depth": 1,
                                "id": 1,
                                "order": 1
                            }
                        ],
                        "depth": 0,
                        "id": 0,
                        "order": 0
                    }
                ],
                "depth": -1,
                "id": -1,
                "order": -1
            }
        ],
        "mainTraceNodeCount": 6,
        "parentIdMap": {
            "0": -1,
            "1": 0,
            "2": 1,
            "3": 2,
            "4": 2,
            "5": 4
        },
        "tidyTrace": [
            {
                "children": [
                    {
                        "children": [
                            {
                                "children": [
                                    {
                                        "children": [
                                            {
                                                "children": [
                                                    {
                                                        "children": [],
                                                        "depth": 4,
                                                        "id": 5,
                                                        "order": 5
                                                    }
                                                ],
                                                "depth": 3,
                                                "id": 4,
                                                "order": 4
                                            }
                                        ],
                                        "depth": 2,
                                        "id": 2,
                                        "order": 2
                                    }
                                ],
                                "depth": 1,
                                "id": 1,
                                "order": 1
                            }
                        ],
                        "depth": 0,
                        "id": 0,
                        "order": 0
                    }
                ],
                "depth": -1,
                "id": -1,
                "order": -1
            }
        ],
        "tidyTraceNodeCount": 5
    },
    "state_change": {
        "stateChanges": [
            {
                "address": "0x514910771af9ca656af840dff83e8264ecf986ca",
                "erc": "",
                "slots": [
                    {
                        "current": "0x0000000000000000000000000000000000000000000000000000000000000000",
                        "key": "0x675b5bd29ab594012b4a27f0ec0bf5f16616b7afe8866959ef652869849adca8",
                        "prev": "0x000000000000000000000000000000000000000000000001cb4f24fbb15b3400"
                    },
                    {
                        "current": "0x0000000000000000000000000000000000000000000108775ec77aebb4e8805a",
                        "key": "0xc2341155febc6dd1d8e6983b1ea41fa04309ddb7b566bf675330bef725760901",
                        "prev": "0x000000000000000000000000000000000000000000010875937855f0038d4c5a"
                    }
                ],
                "storageVariables": [
                    {
                        "name": "balances",
                        "type": "mapping(address => uint256)",
                        "value": {
                            "pairs": [
                                {
                                    "key": "0x2a549b4af9ec39b03142da6dc32221fc390b5533",
                                    "value": {
                                        "current": "1248906743584870474743898",
                                        "prev": "1248873646872020474743898",
                                        "typeTag": 1
                                    }
                                },
                                {
                                    "key": "0x383488912ce558a73d6ff223bc39370a8fb1bc6a",
                                    "value": {
                                        "current": "0",
                                        "prev": "33096712850000000000",
                                        "typeTag": 1
                                    }
                                }
                            ],
                            "typeTag": 4
                        }
                    }
                ]
            }
        ]
    }
}