{
    "balance_change": {
        "balanceChanges": [
            {
                "account": "0x98c3d3183c4b8a650614ad179a1a98be0a8d6b8e",
                "assets": [
                    {
                        "address": "0xc02aaa39b223fe8d0a0e5c4f27ead9083c756cc2",
                        "amount": "0.318082398443699904",
                        "iconUrl": "https://assets.blocksec.com/icon/f1cb2d02c471d545bbc7722daf3277fd852d98e63d118771af7047bd8256c516.png",
                        "isERC1155": false,
                        "isERC721": false,
                        "sign": false,
                        "value": "362.18134211417603183"
                    },
                    {
                        "address": "0x0de05f6447ab4d22c8827449ee4ba2d5c288379b",
                        "amount": "92,195.572772577532733394",
                        "iconUrl": "",
                        "isERC1155": false,
                        "isERC721": false,
                        "sign": true,
                        "value": "355.5861266"
                    }
                ]
            },
            {
                "account": "0xeaadde1e14c587a7fb4ba78ea78109bb32975f1e",
                "assets": [
                    {
                        "address": "0xc02aaa39b223fe8d0a0e5c4f27ead9083c756cc2",
                        "amount": "0.318082398443699904",
                        "iconUrl": "https://assets.blocksec.com/icon/f1cb2d02c471d545bbc7722daf3277fd852d98e63d118771af7047bd8256c516.png",
                        "isERC1155": false,
                        "isERC721": false,
                        "sign": true,
                        "value": "362.18134211417603183"
                    },
                    {
                        "address": "0x0de05f6447ab4d22c8827449ee4ba2d5c288379b",
                        "amount": "92,195.572772577532733394",
                        "iconUrl": "",
                        "isERC1155": false,
                        "isERC721": false,
                        "sign": false,
                        "value": "355.5861266"
                    }
                ]
            }
        ]
    },
    "profile": {
        "basic_info": {
            "baseFee": "9.794558478",
            "blockNumber": 16014729,
            "callData": "0xce2e62ff000000000000000000000000000000000000000000000000046a0e41908a7ec000000000000000000000000000000000000000000000137ff6f2618414000000000000000000000000000000eaadde1e14c587a7fb4ba78ea78109bb32975f1e000000000000000000000000c02aaa39b223fe8d0a0e5c4f27ead9083c756cc2000000000000000000000000000000000000000000000000000000000000000000000000000000000000000000000000000000000000000000000000637ac2c0",
            "debugEnable": true,
            "errorInfo": "",
            "eventCount": 4,
            "feeRecipient": "0x3b7faec3181114a99c243608bc822c5436441fff",
            "formatValue": "0",
            "gasLimit": 300014,
            "gasPrice": "10.794558478",
            "gasUsed": 102734,
            "intTxnCount": 8,
            "internalRevert": false,
            "internalRevertMessage": "",
            "isContractCreation": false,
            "isFlashloan": false,
            "maxFee": "14.049614844",
            "nonce": 40242,
            "overwritedBlockNumber": -1,
            "priorityFee": "1",
            "receiver": "0x98c3d3183c4b8a650614ad179a1a98be0a8d6b8e",
            "revertMessage": "",
            "sender": "0x3f22f60936f4f5d1e96cedeb44bee66d0cd7c220",
            "simulationEnable": true,
            "sourceTxnHash": "0x89e3ddf0e1ba81a19d65eab43b546487d52e12a8a3e5b9f37bb640e39fabc977",
            "status": true,
            "timestamp": "2022-11-21T00:12:47Z",
            "transactionFee": "0.001108968170678852",
            "txnHash": "0x89e3ddf0e1ba81a19d65eab43b546487d52e12a8a3e5b9f37bb640e39fabc977",
            "txnIndex": 48,
            "type": 2,
            "value": "0"
        },
        "fund_flow": [
            {
                "amount": "0.318082398443699904",
                "from": "0x98c3d3183c4b8a650614ad179a1a98be0a8d6b8e",
                "id": 1,
                "isERC1155": false,
                "isERC721": false,
                "isReverted": false,
                "order": 1,
                "to": "0xeaadde1e14c587a7fb4ba78ea78109bb32975f1e",
                "token": "0xc02aaa39b223fe8d0a0e5c4f27ead9083c756cc2"
            },
            {
                "amount": "92,195.572772577532733394",
                "from": "0xeaadde1e14c587a7fb4ba78ea78109bb32975f1e",
                "id": 2,
                "isERC1155": false,
                "isERC721": false,
                "isReverted": false,
                "order": 2,
                "to": "0x98c3d3183c4b8a650614ad179a1a98be0a8d6b8e",
                "token": "0x0de05f6447ab4d22c8827449ee4ba2d5c288379b"
            }
        ],
        "token_infos": [
            {
                "address": "0x0de05f6447ab4d22c8827449ee4ba2d5c288379b",
                "decimals": 18
            },
            {
                "address": "0xc02aaa39b223fe8d0a0e5c4f27ead9083c756cc2",
                "decimals": 18
            },
            {
                "address": "0xeeeeeeeeeeeeeeeeeeeeeeeeeeeeeeeeeeeeeeee",
                "decimals": 18
            }
        ]
    },
    "address_label": {
        "labels": [
            {
                "address": "0x5a06e8b21c8362720f6fc5587b22c07c957718e3",
                "label": "0x5a06_Ooki Token (OOKI)"
            },
            {
                "address": "0x0000000000000000000000000000000000000002",
                "label": "Precompiled"
            },
            {
                "address": "0x0000000000000000000000000000000000000003",
                "label": "Precompiled"
            },
            {
                "address": "0x0000000000000000000000000000000000000004",
                "label": "Precompiled"
            },
            {
                "address": "0xc02aaa39b223fe8d0a0e5c4f27ead9083c756cc2",
                "label": "Wrapped Ether (WETH)"
            },
            {
                "address": "0x98c3d3183c4b8a650614ad179a1a98be0a8d6b8e",
                "label": "MEV Bot: 0x98c...b8e"
            },
            {
                "address": "0xeaadde1e14c587a7fb4ba78ea78109bb32975f1e",
                "label": "SushiSwap: OOKI"
            },
            {
                "address": "0xeeeeeeeeeeeeeeeeeeeeeeeeeeeeeeeeeeeeeeee",
                "label": "Ether"
            },
            {
                "address": "0x0de05f6447ab4d22c8827449ee4ba2d5c288379b",
                "label": "0x0de0_Ooki Token (OOKI)"
            },
            {
                "address": "0x0000000000000000000000000000000000000001",
                "label": "Precompiled"
            }
        ]
    },
    "trace": {
        "accountLabels": null,
        "dataMap": {
            "-1": {
                "invocation": {
                    "address": "0x3f22f60936f4f5d1e96cedeb44bee66d0cd7c220",
                    "callData": "",
                    "decodedMethod": null,
                    "errorInfo": "",
                    "fromAddress": "",
                    "gasUsed": 0,
                    "id": -1,
                    "methodDecoded": false,
                    "operation": "",
                    "output": "",
                    "revert": false,
                    "revertMessage": "",
                    "selector": "",
                    "status": false,
                    "value": ""
                },
                "nodeType": 0
            },
            "0": {
                "invocation": {
                    "address": "0x98c3d3183c4b8a650614ad179a1a98be0a8d6b8e",
                    "callData": "0x000000000000000000000000000000000000000000000000046a0e41908a7ec000000000000000000000000000000000000000000000137ff6f2618414000000000000000000000000000000eaadde1e14c587a7fb4ba78ea78109bb32975f1e000000000000000000000000c02aaa39b223fe8d0a0e5c4f27ead9083c756cc2000000000000000000000000000000000000000000000000000000000000000000000000000000000000000000000000000000000000000000000000637ac2c0",
                    "decodedMethod": null,
                    "errorInfo": "",
                    "fromAddress": "0x3f22f60936f4f5d1e96cedeb44bee66d0cd7c220",
                    "gasUsed": 102734,
                    "id": 0,
                    "methodDecoded": false,
                    "operation": "CALL",
                    "output": "",
                    "revert": false,
                    "revertMessage": "",
                    "selector": "0xce2e62ff",
                    "status": true,
                    "value": "0"
                },
                "nodeType": 0
            },
            "1": {
                "invocation": {
                    "address": "0xeaadde1e14c587a7fb4ba78ea78109bb32975f1e",
                    "callData": "0x",
                    "decodedMethod": {
                        "callParams": [],
                        "constructorArguments": "",
                        "name": "getReserves",
                        "returnParams": [
                            {
                                "name": "_reserve0",
                                "type": "uint112",
                                "value": "24,379,660,909,107,291,138,974,396"
                            },
                            {
                                "name": "_reserve1",
                                "type": "uint112",
                                "value": "83,542,395,247,330,229,363"
                            },
                            {
                                "name": "_blockTimestampLast",
                                "type": "uint32",
                                "value": "1,668,989,531"
                            }
                        ],
                        "signature": "getReserves()"
                    },
                    "errorInfo": "",
                    "fromAddress": "0x98c3d3183c4b8a650614ad179a1a98be0a8d6b8e",
                    "gasUsed": 2517,
                    "id": 1,
                    "methodDecoded": true,
                    "operation": "STATICCALL",
                    "output": "0x000000000000000000000000000000000000000000142a9810ec4da6fbbe62bc000000000000000000000000000000000000000000000004876235d9d2667c7300000000000000000000000000000000000000000000000000000000637ac25b",
                    "revert": false,
                    "revertMessage": "",
                    "selector": "0x0902f1ac",
                    "status": true,
                    "value": "0"
                },
                "nodeType": 0
            },
            "10": {
                "invocation": {
                    "address": "0xc02aaa39b223fe8d0a0e5c4f27ead9083c756cc2",
                    "callData": "0x000000000000000000000000eaadde1e14c587a7fb4ba78ea78109bb32975f1e",
                    "decodedMethod": {
                        "callParams": [
                            {
                                "name": "",
                                "type": "address",
                                "value": "0xeaadde1e14c587a7fb4ba78ea78109bb32975f1e"
                            }
                        ],
                        "constructorArguments": "",
                        "name": "balanceOf",
                        "returnParams": [
                            {
                                "decimalAvailable": true,
                                "name": "",
                                "type": "uint256",
                                "value": "83,860,477,645,773,929,267"
                            }
                        ],
                        "signature": "balanceOf(address)"
                    },
                    "errorInfo": "",
                    "fromAddress": "0xeaadde1e14c587a7fb4ba78ea78109bb32975f1e",
                    "gasUsed": 534,
                    "id": 10,
                    "methodDecoded": true,
                    "operation": "STATICCALL",
                    "output": "0x0000000000000000000000000000000000000000000000048bcc441b62f0fb33",
                    "revert": false,
                    "revertMessage": "",
                    "selector": "0x70a08231",
                    "status": true,
                    "value": "0"
                },
                "nodeType": 0
            },
            "11": {
                "event": {
                    "contract": "0xeaadde1e14c587a7fb4ba78ea78109bb32975f1e",
                    "decodedLog": {
                        "name": "Sync",
                        "params": [
                            {
                                "name": "reserve0",
                                "type": "uint112",
                                "value": "24,287,465,336,334,713,606,241,002"
                            },
                            {
                                "name": "reserve1",
                                "type": "uint112",
                                "value": "83,860,477,645,773,929,267"
                            }
                        ],
                        "signature": "Sync(uint112,uint112)"
                    },
                    "id": 11,
                    "logData": "0x0000000000000000000000000000000000000000001417122253ca129425faea0000000000000000000000000000000000000000000000048bcc441b62f0fb33",
                    "logDecoded": true,
                    "operation": "EVENT",
                    "revert": false,
                    "status": true,
                    "topics": [
                        "0x1c411e9a96e071241c2f21f7726b17ae89e3cab4c78be50e062b03a9fffbbad1"
                    ]
                },
                "nodeType": 1
            },
            "12": {
                "event": {
                    "contract": "0xeaadde1e14c587a7fb4ba78ea78109bb32975f1e",
                    "decodedLog": {
                        "name": "Swap",
                        "params": [
                            {
                                "name": "sender",
                                "type": "address",
                                "value": "0x98c3d3183c4b8a650614ad179a1a98be0a8d6b8e"
                            },
                            {
                                "name": "to",
                                "type": "address",
                                "value": "0x98c3d3183c4b8a650614ad179a1a98be0a8d6b8e"
                            },
                            {
                                "name": "amount0In",
                                "type": "uint256",
                                "value": "0"
                            },
                            {
                                "name": "amount1In",
                                "type": "uint256",
                                "value": "318,082,398,443,699,904"
                            },
                            {
                                "name": "amount0Out",
                                "type": "uint256",
                                "value": "92,195,572,772,577,532,733,394"
                            },
                            {
                                "name": "amount1Out",
                                "type": "uint256",
                                "value": "0"
                            }
                        ],
                        "signature": "Swap(address,uint256,uint256,uint256,uint256,address)"
                    },
                    "id": 12,
                    "logData": "0x0000000000000000000000000000000000000000000000000000000000000000000000000000000000000000000000000000000000000000046a0e41908a7ec0000000000000000000000000000000000000000000001385ee988394679867d20000000000000000000000000000000000000000000000000000000000000000",
                    "logDecoded": true,
                    "operation": "EVENT",
                    "revert": false,
                    "status": true,
                    "topics": [
                        "0xd78ad95fa46c994b6551d0da85fc275fe613ce37657fb8d5e3d130840159d822",
                        "0x00000000000000000000000098c3d3183c4b8a650614ad179a1a98be0a8d6b8e",
                        "0x00000000000000000000000098c3d3183c4b8a650614ad179a1a98be0a8d6b8e"
                    ]
                },
                "nodeType": 1
            },
            "2": {
                "invocation": {
                    "address": "0xc02aaa39b223fe8d0a0e5c4f27ead9083c756cc2",
                    "callData": "0x000000000000000000000000eaadde1e14c587a7fb4ba78ea78109bb32975f1e000000000000000000000000000000000000000000000000046a0e41908a7ec0",
                    "decodedMethod": {
                        "callParams": [
                            {
                                "name": "dst",
                                "type": "address",
                                "value": "0xeaadde1e14c587a7fb4ba78ea78109bb32975f1e"
                            },
                            {
                                "decimalAvailable": true,
                                "name": "wad",
                                "type": "uint256",
                                "value": "318,082,398,443,699,904"
                            }
                        ],
                        "constructorArguments": "",
                        "name": "transfer",
                        "returnParams": [
                            {
                                "name": "",
                                "type": "bool",
                                "value": true
                            }
                        ],
                        "signature": "transfer(address,uint256)"
                    },
                    "errorInfo": "",
                    "fromAddress": "0x98c3d3183c4b8a650614ad179a1a98be0a8d6b8e",
                    "gasUsed": 12862,
                    "id": 2,
                    "methodDecoded": true,
                    "operation": "CALL",
                    "output": "0x0000000000000000000000000000000000000000000000000000000000000001",
                    "revert": false,
                    "revertMessage": "",
                    "selector": "0xa9059cbb",
                    "status": true,
                    "value": "0"
                },
                "nodeType": 0
            },
            "3": {
                "event": {
                    "contract": "0xc02aaa39b223fe8d0a0e5c4f27ead9083c756cc2",
                    "decodedLog": {
                        "name": "Transfer",
                        "params": [
                            {
                                "name": "src",
                                "type": "address",
                                "value": "0x98c3d3183c4b8a650614ad179a1a98be0a8d6b8e"
                            },
                            {
                                "name": "dst",
                                "type": "address",
                                "value": "0xeaadde1e14c587a7fb4ba78ea78109bb32975f1e"
                            },
                            {
                                "decimalAvailable": true,
                                "name": "wad",
                                "type": "uint256",
                                "value": "318,082,398,443,699,904"
                            }
                        ],
                        "signature": "Transfer(address,address,uint256)"
                    },
                    "id": 3,
                    "logData": "0x000000000000000000000000000000000000000000000000046a0e41908a7ec0",
                    "logDecoded": true,
                    "operation": "EVENT",
                    "revert": false,
                    "status": true,
                    "topics": [
                        "0xddf252ad1be2c89b69c2b068fc378daa952ba7f163c4a11628f55a4df523b3ef",
                        "0x00000000000000000000000098c3d3183c4b8a650614ad179a1a98be0a8d6b8e",
                        "0x000000000000000000000000eaadde1e14c587a7fb4ba78ea78109bb32975f1e"
                    ]
                },
                "nodeType": 1
            },
            "4": {
                "invocation": {
                    "address": "0xeaadde1e14c587a7fb4ba78ea78109bb32975f1e",
                    "callData": "0x000000000000000000000000000000000000000000001385ee988394679867d2000000000000000000000000000000000000000000000000000000000000000000000000000000000000000098c3d3183c4b8a650614ad179a1a98be0a8d6b8e00000000000000000000000000000000000000000000000000000000000000800000000000000000000000000000000000000000000000000000000000000000",
                    "decodedMethod": {
                        "callParams": [
                            {
                                "name": "amount0Out",
                                "type": "uint256",
                                "value": "92,195,572,772,577,532,733,394"
                            },
                            {
                                "name": "amount1Out",
                                "type": "uint256",
                                "value": "0"
                            },
                            {
                                "name": "to",
                                "type": "address",
                                "value": "0x98c3d3183c4b8a650614ad179a1a98be0a8d6b8e"
                            },
                            {
                                "name": "data",
                                "type": "bytes",
                                "value": "0x"
                            }
                        ],
                        "constructorArguments": "",
                        "name": "swap",
                        "returnParams": [],
                        "signature": "swap(uint256,uint256,address,bytes)"
                    },
                    "errorInfo": "",
                    "fromAddress": "0x98c3d3183c4b8a650614ad179a1a98be0a8d6b8e",
                    "gasUsed": 53761,
                    "id": 4,
                    "methodDecoded": true,
                    "operation": "CALL",
                    "output": "",
                    "revert": false,
                    "revertMessage": "",
                    "selector": "0x022c0d9f",
                    "status": true,
                    "value": "0"
                },
                "nodeType": 0
            },
            "5": {
                "invocation": {
                    "address": "0x0de05f6447ab4d22c8827449ee4ba2d5c288379b",
                    "callData": "0x00000000000000000000000098c3d3183c4b8a650614ad179a1a98be0a8d6b8e000000000000000000000000000000000000000000001385ee988394679867d2",
                    "decodedMethod": {
                        "callParams": [
                            {
                                "name": "recipient",
                                "type": "address",
                                "value": "0x98c3d3183c4b8a650614ad179a1a98be0a8d6b8e"
                            },
                            {
                                "decimalAvailable": true,
                                "name": "amount",
                                "type": "uint256",
                                "value": "92,195,572,772,577,532,733,394"
                            }
                        ],
                        "constructorArguments": "",
                        "name": "transfer",
                        "returnParams": [
                            {
                                "name": "",
                                "type": "bool",
                                "value": true
                            }
                        ],
                        "signature": "transfer(address,uint256)"
                    },
                    "errorInfo": "",
                    "fromAddress": "0xeaadde1e14c587a7fb4ba78ea78109bb32975f1e",
                    "gasUsed": 17886,
                    "id": 5,
                    "methodDecoded": true,
                    "operation": "CALL",
                    "output": "0x0000000000000000000000000000000000000000000000000000000000000001",
                    "revert": false,
                    "revertMessage": "",
                    "selector": "0xa9059cbb",
                    "status": true,
                    "value": "0"
                },
                "nodeType": 0
            },
            "6": {
                "invocation": {
                    "address": "0x5a06e8b21c8362720f6fc5587b22c07c957718e3",
                    "callData": "0x00000000000000000000000098c3d3183c4b8a650614ad179a1a98be0a8d6b8e000000000000000000000000000000000000000000001385ee988394679867d2",
                    "decodedMethod": {
                        "callParams": [
                            {
                                "name": "recipient",
                                "type": "address",
                                "value": "0x98c3d3183c4b8a650614ad179a1a98be0a8d6b8e"
                            },
                            {
                                "decimalAvailable": true,
                                "name": "amount",
                                "type": "uint256",
                                "value": "92,195,572,772,577,532,733,394"
                            }
                        ],
                        "constructorArguments": "",
                        "name": "transfer",
                        "returnParams": [
                            {
                                "name": "",
                                "type": "bool",
                                "value": true
                            }
                        ],
                        "signature": "transfer(address,uint256)"
                    },
                    "errorInfo": "",
                    "fromAddress": "0x0de05f6447ab4d22c8827449ee4ba2d5c288379b",
                    "gasUsed": 12902,
                    "id": 6,
                    "methodDecoded": true,
                    "operation": "DELEGATECALL",
                    "output": "0x0000000000000000000000000000000000000000000000000000000000000001",
                    "revert": false,
                    "revertMessage": "",
                    "selector": "0xa9059cbb",
                    "status": true,
                    "value": "0"
                },
                "nodeType": 0
            },
            "7": {
                "event": {
                    "contract": "0x0de05f6447ab4d22c8827449ee4ba2d5c288379b",
                    "decodedLog": {
                        "name": "Transfer",
                        "params": [
                            {
                                "name": "from",
                                "type": "address",
                                "value": "0xeaadde1e14c587a7fb4ba78ea78109bb32975f1e"
                            },
                            {
                                "name": "to",
                                "type": "address",
                                "value": "0x98c3d3183c4b8a650614ad179a1a98be0a8d6b8e"
                            },
                            {
                                "decimalAvailable": true,
                                "name": "value",
                                "type": "uint256",
                                "value": "92,195,572,772,577,532,733,394"
                            }
                        ],
                        "signature": "Transfer(address,address,uint256)"
                    },
                    "id": 7,
                    "logData": "0x000000000000000000000000000000000000000000001385ee988394679867d2",
                    "logDecoded": true,
                    "operation": "EVENT",
                    "revert": false,
                    "status": true,
                    "topics": [
                        "0xddf252ad1be2c89b69c2b068fc378daa952ba7f163c4a11628f55a4df523b3ef",
                        "0x000000000000000000000000eaadde1e14c587a7fb4ba78ea78109bb32975f1e",
                        "0x00000000000000000000000098c3d3183c4b8a650614ad179a1a98be0a8d6b8e"
                    ]
                },
                "nodeType": 1
            },
            "8": {
                "invocation": {
                    "address": "0x0de05f6447ab4d22c8827449ee4ba2d5c288379b",
                    "callData": "0x000000000000000000000000eaadde1e14c587a7fb4ba78ea78109bb32975f1e",
                    "decodedMethod": {
                        "callParams": [
                            {
                                "name": "account",
                                "type": "address",
                                "value": "0xeaadde1e14c587a7fb4ba78ea78109bb32975f1e"
                            }
                        ],
                        "constructorArguments": "",
                        "name": "balanceOf",
                        "returnParams": [
                            {
                                "decimalAvailable": true,
                                "name": "",
                                "type": "uint256",
                                "value": "24,287,465,336,334,713,606,241,002"
                            }
                        ],
                        "signature": "balanceOf(address)"
                    },
                    "errorInfo": "",
                    "fromAddress": "0xeaadde1e14c587a7fb4ba78ea78109bb32975f1e",
                    "gasUsed": 1145,
                    "id": 8,
                    "methodDecoded": true,
                    "operation": "STATICCALL",
                    "output": "0x0000000000000000000000000000000000000000001417122253ca129425faea",
                    "revert": false,
                    "revertMessage": "",
                    "selector": "0x70a08231",
                    "status": true,
                    "value": "0"
                },
                "nodeType": 0
            },
            "9": {
                "invocation": {
                    "address": "0x5a06e8b21c8362720f6fc5587b22c07c957718e3",
                    "callData": "0x000000000000000000000000eaadde1e14c587a7fb4ba78ea78109bb32975f1e",
                    "decodedMethod": {
                        "callParams": [
                            {
                                "name": "account",
                                "type": "address",
                                "value": "0xeaadde1e14c587a7fb4ba78ea78109bb32975f1e"
                            }
                        ],
                        "constructorArguments": "",
                        "name": "balanceOf",
                        "returnParams": [
                            {
                                "decimalAvailable": true,
                                "name": "",
                                "type": "uint256",
                                "value": "24,287,465,336,334,713,606,241,002"
                            }
                        ],
                        "signature": "balanceOf(address)"
                    },
                    "errorInfo": "",
                    "fromAddress": "0x0de05f6447ab4d22c8827449ee4ba2d5c288379b",
                    "gasUsed": 664,
                    "id": 9,
                    "methodDecoded": true,
                    "operation": "DELEGATECALL",
                    "output": "0x0000000000000000000000000000000000000000001417122253ca129425faea",
                    "revert": false,
                    "revertMessage": "",
                    "selector": "0x70a08231",
                    "status": true,
                    "value": "0"
                },
                "nodeType": 0
            }
        },
        "gasFlame": [
            {
                "children": [
                    {
                        "children": [
                            {
                                "children": [],
                                "depth": 0,
                                "name": "Initial Gas",
                                "value": 22540
                            },
                            {
                                "children": [
                                    {
                                        "children": [],
                                        "depth": 1,
                                        "name": "getReserves",
                                        "value": 2517
                                    },
                                    {
                                        "children": [],
                                        "depth": 1,
                                        "name": "transfer",
                                        "value": 12862
                                    },
                                    {
                                        "children": [
                                            {
                                                "children": [
                                                    {
                                                        "children": [],
                                                        "depth": 3,
                                                        "name": "transfer",
                                                        "value": 12902
                                                    }
                                                ],
                                                "depth": 2,
                                                "name": "transfer",
                                                "value": 17886
                                            },
                                            {
                                                "children": [
                                                    {
                                                        "children": [],
                                                        "depth": 3,
                                                        "name": "balanceOf",
                                                        "value": 664
                                                    }
                                                ],
                                                "depth": 2,
                                                "name": "balanceOf",
                                                "value": 1145
                                            },
                                            {
                                                "children": [],
                                                "depth": 2,
                                                "name": "balanceOf",
                                                "value": 534
                                            }
                                        ],
                                        "depth": 1,
                                        "name": "swap",
                                        "value": 53761
                                    }
                                ],
                                "depth": 0,
                                "name": "Executed Gas",
                                "value": 82994
                            }
                        ],
                        "depth": -1,
                        "name": "Actual Gas Used",
                        "value": 102734
                    },
                    {
                        "children": [],
                        "depth": -1,
                        "name": "Refunded Gas",
                        "value": 2800
                    }
                ],
                "depth": -2,
                "name": "Total Gas",
                "value": 105534
            }
        ],
        "isConfirmed": true,
        "mainTrace": [
            {
                "children": [
                    {
                        "children": [
                            {
                                "children": [],
                                "depth": 1,
                                "id": 1,
                                "order": 1
                            },
                            {
                                "children": [
                                    {
                                        "children": [],
                                        "depth": 2,
                                        "id": 3,
                                        "order": 3
                                    }
                                ],
                                "depth": 1,
                                "id": 2,
                                "order": 2
                            },
                            {
                                "children": [
                                    {
                                        "children": [
                                            {
                                                "children": [
                                                    {
                                                        "children": [],
                                                        "depth": 4,
                                                        "id": 7,
                                                        "order": 7
                                                    }
                                                ],
                                                "depth": 3,
                                                "id": 6,
                                                "order": 6
                                            }
                                        ],
                                        "depth": 2,
                                        "id": 5,
                                        "order": 5
                                    },
                                    {
                                        "children": [
                                            {
                                                "children": [],
                                                "depth": 3,
                                                "id": 9,
                                                "order": 9
                                            }
                                        ],
                                        "depth": 2,
                                        "id": 8,
                                        "order": 8
                                    },
                                    {
                                        "children": [],
                                        "depth": 2,
                                        "id": 10,
                                        "order": 10
                                    },
                                    {
                                        "children": [],
                                        "depth": 2,
                                        "id": 11,
                                        "order": 11
                                    },
                                    {
                                        "children": [],
                                        "depth": 2,
                                        "id": 12,
                                        "order": 12
                                    }
                                ],
                                "depth": 1,
                                "id": 4,
                                "order": 4
                            }
                        ],
                        "depth": 0,
                        "id": 0,
                        "order": 0
                    }
                ],
                "depth": -1,
                "id": -1,
                "order": -1
            }
        ],
        "mainTraceNodeCount": 13,
        "parentIdMap": {
            "0": -1,
            "1": 0,
            "10": 4,
            "11": 4,
            "12": 4,
            "2": 0,
            "3": 2,
            "4": 0,
            "5": 4,
            "6": 5,
            "7": 6,
            "8": 4,
            "9": 8
        },
        "tidyTrace": [
            {
                "children": [
                    {
                        "children": [
                            {
                                "children": [
                                    {
                                        "children": [],
                                        "depth": 2,
                                        "id": 3,
                                        "order": 3
                                    }
                                ],
                                "depth": 1,
                                "id": 2,
                                "order": 2
                            },
                            {
                                "children": [
                                    {
                                        "children": [
                                            {
                                                "children": [
                                                    {
                                                        "children": [],
                                                        "depth": 4,
                                                        "id": 7,
                                                        "order": 7
                                                    }
                                                ],
                                                "depth": 3,
                                                "id": 6,
                                                "order": 6
                                            }
                                        ],
                                        "depth": 2,
                                        "id": 5,
                                        "order": 5
                                    },
                                    {
                                        "children": [],
                                        "depth": 2,
                                        "id": 11,
                                        "order": 11
                                    },
                                    {
                                        "children": [],
                                        "depth": 2,
                                        "id": 12,
                                        "order": 12
                                    }
                                ],
                                "depth": 1,
                                "id": 4,
                                "order": 4
                            }
                        ],
                        "depth": 0,
                        "id": 0,
                        "order": 0
                    }
                ],
                "depth": -1,
                "id": -1,
                "order": -1
            }
        ],
        "tidyTraceNodeCount": 9
    },
    "state_change": {
        "stateChanges": [
            {
                "address": "0x0de05f6447ab4d22c8827449ee4ba2d5c288379b",
                "erc": "ERC-20",
                "slots": [
                    {
                        "current": "0x0000000000000000000000000000000000000000001417122253ca129425faea",
                        "key": "0x442c0d854456082704aac233df8730f3ecb8fa7c84a9c82813d35e2862f24419",
                        "prev": "0x000000000000000000000000000000000000000000142a9810ec4da6fbbe62bc"
                    },
                    {
                        "current": "0x000000000000000000000000000000000000000000018a268a58e0b4a0eb0ce2",
                        "key": "0x46ed70dff4e88de7d66e6571d3936721e1c2e255e7f2b669fb59a70439131f38",
                        "prev": "0x0000000000000000000000000000000000000000000176a09bc05d203952a510"
                    }
                ],
                "storageVariables": [
                    {
                        "name": "_balances",
                        "type": "mapping(address => uint256)",
                        "value": {
                            "pairs": [
                                {
                                    "key": "0x98c3d3183c4b8a650614ad179a1a98be0a8d6b8e",
                                    "value": {
                                        "current": "1861323339490282760244450",
                                        "prev": "1769127766717705227511056",
                                        "typeTag": 1
                                    }
                                },
                                {
                                    "key": "0xeaadde1e14c587a7fb4ba78ea78109bb32975f1e",
                                    "value": {
                                        "current": "24287465336334713606241002",
                                        "prev": "24379660909107291138974396",
                                        "typeTag": 1
                                    }
                                }
                            ],
                            "typeTag": 4
                        }
                    }
                ]
            },
            {
                "address": "0xc02aaa39b223fe8d0a0e5c4f27ead9083c756cc2",
                "erc": "ERC-20",
                "slots": [
                    {
                        "current": "0x00000000000000000000000000000000000000000000004faf2d2a3778a2592c",
                        "key": "0x993460b7a842a34c6de2dc08dde1c527f4354825432b190bba2e4f8a7b04c6c8",
                        "prev": "0x00000000000000000000000000000000000000000000004fb3973879092cd7ec"
                    },
                    {
                        "current": "0x0000000000000000000000000000000000000000000000048bcc441b62f0fb33",
                        "key": "0xb93a7ce038a64a495b7808633e5af23e3112d9a62f820b725aa8c097d3d427f3",
                        "prev": "0x000000000000000000000000000000000000000000000004876235d9d2667c73"
                    }
                ],
                "storageVariables": [
                    {
                        "name": "balanceOf",
                        "type": "mapping(address => uint256)",
                        "value": {
                            "pairs": [
                                {
                                    "key": "0x98c3d3183c4b8a650614ad179a1a98be0a8d6b8e",
                                    "value": {
                                        "current": "1469915573571379419436",
                                        "prev": "1470233655969823119340",
                                        "typeTag": 1
                                    }
                                },
                                {
                                    "key": "0xeaadde1e14c587a7fb4ba78ea78109bb32975f1e",
                                    "value": {
                                        "current": "83860477645773929267",
                                        "prev": "83542395247330229363",
                                        "typeTag": 1
                                    }
                                }
                            ],
                            "typeTag": 4
                        }
                    }
                ]
            },
            {
                "address": "0xeaadde1e14c587a7fb4ba78ea78109bb32975f1e",
                "erc": "ERC-20",
                "slots": [
                    {
                        "current": "0x0000000000000000000000000000000000637f2d5887474836047b700d93c7ac",
                        "key": "0x0000000000000000000000000000000000000000000000000000000000000009",
                        "prev": "0x0000000000000000000000000000000000637f2542db151d6e7cbaef2b11c240"
                    },
                    {
                        "current": "0x0000000000000000000000000632a2e12cef7e03a20d78ebbe140862eb6f6676",
                        "key": "0x000000000000000000000000000000000000000000000000000000000000000a",
                        "prev": "0x0000000000000000000000000632a240df35f95392b7e008c5cedc7fdc06ca0a"
                    },
                    {
                        "current": "0x637ac27f0000000000048bcc441b62f0fb330000001417122253ca129425faea",
                        "key": "0x0000000000000000000000000000000000000000000000000000000000000008",
                        "prev": "0x637ac25b000000000004876235d9d2667c73000000142a9810ec4da6fbbe62bc"
                    }
                ],
                "storageVariables": [
                    {
                        "name": "reserve0",
                        "type": "uint112",
                        "value": {
                            "current": "24287465336334713606241002",
                            "prev": "24379660909107291138974396",
                            "typeTag": 1
                        }
                    },
                    {
                        "name": "reserve1",
                        "type": "uint112",
                        "value": {
                            "current": "83860477645773929267",
                            "prev": "83542395247330229363",
                            "typeTag": 1
                        }
                    },
                    {
                        "name": "blockTimestampLast",
                        "type": "uint32",
                        "value": {
                            "current": "1668989567",
                            "prev": "1668989531",
                            "typeTag": 1
                        }
                    },
                    {
                        "name": "price0CumulativeLast",
                        "type": "uint256",
                        "value": {
                            "current": "516616847680147309268121884397127596",
                            "prev": "516616207147489840466391901521691200",
                            "typeTag": 1
                        }
                    },
                    {
                        "name": "price1CumulativeLast",
                        "type": "uint256",
                        "value": {
                            "current": "35383170698452617308760210035051387776456943222",
                            "prev": "35383116149960088137368550210676806025977711114",
                            "typeTag": 1
                        }
                    }
                ]
            }
        ]
    }
}