{
    "balance_change": {
        "balanceChanges": [
            {
                "account": "0x6efb20f61b80f6a7ebe7a107bace58288a51fb34",
                "assets": [
                    {
                        "address": "0x2b7922fdf76fb3466902c7b702a20ea6a450a0a0",
                        "amount": "483.9",
                        "iconUrl": "",
                        "isERC1155": false,
                        "isERC721": false,
                        "sign": false,
                        "value": ""
                    }
                ]
            },
            {
                "account": "0xa9a52a917b15aeb22374b4bdaf7167587f4288bd",
                "assets": [
                    {
                        "address": "0x2b7922fdf76fb3466902c7b702a20ea6a450a0a0",
                        "amount": "483.9",
                        "iconUrl": "",
                        "isERC1155": false,
                        "isERC721": false,
                        "sign": true,
                        "value": ""
                    }
                ]
            }
        ]
    },
    "profile": {
        "basic_info": {
            "baseFee": "",
            "blockNumber": 8486197,
            "callData": "0xa9059cbb000000000000000000000000a9a52a917b15aeb22374b4bdaf7167587f4288bd00000000000000000000000000000000000000000000001a3b7626301b860000",
            "debugEnable": true,
            "errorInfo": "",
            "eventCount": 1,
            "feeRecipient": "0x829bd824b016326a401d083b33d092293333a830",
            "formatValue": "0",
            "gasLimit": 120000,
            "gasPrice": "20",
            "gasUsed": 37946,
            "intTxnCount": 0,
            "internalRevert": false,
            "internalRevertMessage": "",
            "isContractCreation": false,
            "isFlashloan": false,
            "maxFee": "",
            "nonce": 182123,
            "overwritedBlockNumber": -1,
            "priorityFee": "",
            "receiver": "0x2b7922fdf76fb3466902c7b702a20ea6a450a0a0",
            "revertMessage": "",
            "sender": "0x6efb20f61b80f6a7ebe7a107bace58288a51fb34",
            "simulationEnable": true,
            "sourceTxnHash": "0x8963a748596757c7f02e5fe1e94637950c498afe443886fc720e75adf4ceeab6",
            "status": true,
            "timestamp": "2019-09-04T22:12:07Z",
            "transactionFee": "0.00075892",
            "txnHash": "0x8963a748596757c7f02e5fe1e94637950c498afe443886fc720e75adf4ceeab6",
            "txnIndex": 4,
            "type": 0,
            "value": "0"
        },
        "fund_flow": [
            {
                "amount": "483.9",
                "from": "0x6efb20f61b80f6a7ebe7a107bace58288a51fb34",
                "id": 1,
                "isERC1155": false,
                "isERC721": false,
                "isReverted": false,
                "order": 1,
                "to": "0xa9a52a917b15aeb22374b4bdaf7167587f4288bd",
                "token": "0x2b7922fdf76fb3466902c7b702a20ea6a450a0a0"
            }
        ],
        "token_infos": [
            {
                "address": "0xeeeeeeeeeeeeeeeeeeeeeeeeeeeeeeeeeeeeeeee",
                "decimals": 18
            },
            {
                "address": "0x2b7922fdf76fb3466902c7b702a20ea6a450a0a0",
                "decimals": 18
            },
            {
                "address": "0xc02aaa39b223fe8d0a0e5c4f27ead9083c756cc2",
                "decimals": 18
            }
        ]
    },
    "address_label": {
        "labels": [
            {
                "address": "0x6efb20f61b80f6a7ebe7a107bace58288a51fb34",
                "label": "Biki.com: Old Address"
            },
            {
                "address": "0x2b7922fdf76fb3466902c7b702a20ea6a450a0a0",
                "label": "Fund Token Coin (FTcoin)"
            },
            {
                "address": "0x0000000000000000000000000000000000000001",
                "label": "Precompiled"
            },
            {
                "address": "0x0000000000000000000000000000000000000002",
                "label": "Precompiled"
            },
            {
                "address": "0x0000000000000000000000000000000000000003",
                "label": "Precompiled"
            },
            {
                "address": "0x0000000000000000000000000000000000000004",
                "label": "Precompiled"
            },
            {
                "address": "0xeeeeeeeeeeeeeeeeeeeeeeeeeeeeeeeeeeeeeeee",
                "label": "Ether"
            }
        ]
    },
    "trace": {
        "accountLabels": null,
        "dataMap": {
            "-1": {
                "invocation": {
                    "address": "0x6efb20f61b80f6a7ebe7a107bace58288a51fb34",
                    "callData": "",
                    "decodedMethod": null,
                    "errorInfo": "",
                    "fromAddress": "",
                    "gasUsed": 0,
                    "id": -1,
                    "methodDecoded": false,
                    "operation": "",
                    "output": "",
                    "revert": false,
                    "revertMessage": "",
                    "selector": "",
                    "status": false,
                    "value": ""
                },
                "nodeType": 0
            },
            "0": {
                "invocation": {
                    "address": "0x2b7922fdf76fb3466902c7b702a20ea6a450a0a0",
                    "callData": "0x000000000000000000000000a9a52a917b15aeb22374b4bdaf7167587f4288bd00000000000000000000000000000000000000000000001a3b7626301b860000",
                    "decodedMethod": {
                        "callParams": [
                            {
                                "name": "_to",
                                "type": "address",
                                "value": "0xa9a52a917b15aeb22374b4bdaf7167587f4288bd"
                            },
                            {
                                "decimalAvailable": true,
                                "name": "_value",
                                "type": "uint256",
                                "value": "483,900,000,000,000,000,000"
                            }
                        ],
                        "constructorArguments": "",
                        "name": "transfer",
                        "returnParams": [
                            {
                                "name": "success",
                                "type": "bool",
                                "value": true
                            }
                        ],
                        "signature": "transfer(address,uint256)"
                    },
                    "errorInfo": "",
                    "fromAddress": "0x6efb20f61b80f6a7ebe7a107bace58288a51fb34",
                    "gasUsed": 37946,
                    "id": 0,
                    "methodDecoded": true,
                    "operation": "CALL",
                    "output": "0x0000000000000000000000000000000000000000000000000000000000000001",
                    "revert": false,
                    "revertMessage": "",
                    "selector": "0xa9059cbb",
                    "status": true,
                    "value": "0"
                },
                "nodeType": 0
            },
            "1": {
                "event": {
                    "contract": "0x2b7922fdf76fb3466902c7b702a20ea6a450a0a0",
                    "decodedLog": {
                        "name": "Transfer",
                        "params": [
                            {
                                "name": "from",
                                "type": "address",
                                "value": "0x6efb20f61b80f6a7ebe7a107bace58288a51fb34"
                            },
                            {
                                "name": "to",
                                "type": "address",
                                "value": "0xa9a52a917b15aeb22374b4bdaf7167587f4288bd"
                            },
                            {
                                "decimalAvailable": true,
                                "name": "value",
                                "type": "uint256",
                                "value": "483,900,000,000,000,000,000"
                            }
                        ],
                        "signature": "Transfer(address,address,uint256)"
                    },
                    "id": 1,
                    "logData": "0x00000000000000000000000000000000000000000000001a3b7626301b860000",
                    "logDecoded": true,
                    "operation": "EVENT",
                    "revert": false,
                    "status": true,
                    "topics": [
                        "0xddf252ad1be2c89b69c2b068fc378daa952ba7f163c4a11628f55a4df523b3ef",
                        "0x0000000000000000000000006efb20f61b80f6a7ebe7a107bace58288a51fb34",
                        "0x000000000000000000000000a9a52a917b15aeb22374b4bdaf7167587f4288bd"
                    ]
                },
                "nodeType": 1
            }
        },
        "gasFlame": [
            {
                "children": [
                    {
                        "children": [
                            {
                                "children": [],
                                "depth": 0,
                                "name": "Initial Gas",
                                "value": 23256
                            },
                            {
                                "children": [],
                                "depth": 0,
                                "name": "Executed Gas",
                                "value": 14690
                            }
                        ],
                        "depth": -1,
                        "name": "Actual Gas Used",
                        "value": 37946
                    },
                    {
                        "children": [],
                        "depth": -1,
                        "name": "Refunded Gas",
                        "value": 0
                    }
                ],
                "depth": -2,
                "name": "Total Gas",
                "value": 37946
            }
        ],
        "isConfirmed": true,
        "mainTrace": [
            {
                "children": [
                    {
                        "children": [
                            {
                                "children": [],
                                "depth": 1,
                                "id": 1,
                                "order": 1
                            }
                        ],
                        "depth": 0,
                        "id": 0,
                        "order": 0
                    }
                ],
                "depth": -1,
                "id": -1,
                "order": -1
            }
        ],
        "mainTraceNodeCount": 2,
        "parentIdMap": {
            "0": -1,
            "1": 0
        },
        "tidyTrace": [
            {
                "children": [
                    {
                        "children": [
                            {
                                "children": [],
                                "depth": 1,
                                "id": 1,
                                "order": 1
                            }
                        ],
                        "depth": 0,
                        "id": 0,
                        "order": 0
                    }
                ],
                "depth": -1,
                "id": -1,
                "order": -1
            }
        ],
        "tidyTraceNodeCount": 2
    },
    "state_change": {
        "stateChanges": [
            {
                "address": "0x2b7922fdf76fb3466902c7b702a20ea6a450a0a0",
                "erc": "ERC-20",
                "slots": [
                    {
                        "current": "0x0000000000000000000000000000000000000000000000ce1305c751d1ec0000",
                        "key": "0xaf7db02fc4117157db79c2105ca67a5f8d41451e1e8287f673736c7f713d9c94",
                        "prev": "0x0000000000000000000000000000000000000000000000b3d78fa121b6660000"
                    },
                    {
                        "current": "0x0000000000000000000000000000000000000000000cef68f08b51ca00cbc800",
                        "key": "0x52b39d161424eaf30c41631c16adde6cc123401a48cbec507d5357fc9be0f4fb",
                        "prev": "0x0000000000000000000000000000000000000000000cef832c0177fa1c51c800"
                    }
                ],
                "storageVariables": [
                    {
                        "name": "balanceOf",
                        "type": "mapping(address => uint256)",
                        "value": {
                            "pairs": [
                                {
                                    "key": "0x6efb20f61b80f6a7ebe7a107bace58288a51fb34",
                                    "value": {
                                        "current": "15637691219202580000000000",
                                        "prev": "15638175119202580000000000",
                                        "typeTag": 1
                                    }
                                },
                                {
                                    "key": "0xa9a52a917b15aeb22374b4bdaf7167587f4288bd",
                                    "value": {
                                        "current": "3801400000000000000000",
                                        "prev": "3317500000000000000000",
                                        "typeTag": 1
                                    }
                                }
                            ],
                            "typeTag": 4
                        }
                    }
                ]
            }
        ]
    }
}