{
    "balance_change": {
        "balanceChanges": []
    },
    "profile": {
        "basic_info": {
            "baseFee": "",
            "blockNumber": 3958067,
            "callData": "0x47872b42c9111d160adf0e7367c0897f15303c0c8c41535fbf0f465b8e5f3c1811503238000000000000000000000000000000000000000000000000002386f26fc10000b34c094feca52920b5878ae825aff6aed33e5d414e7e11eac5b8f10528275af4",
            "debugEnable": true,
            "errorInfo": "invalid opcode: REVERT",
            "eventCount": 0,
            "feeRecipient": "0x829bd824b016326a401d083b33d092293333a830",
            "formatValue": "0",
            "gasLimit": 300000,
            "gasPrice": "50",
            "gasUsed": 300000,
            "intTxnCount": 0,
            "internalRevert": false,
            "internalRevertMessage": "",
            "isContractCreation": false,
            "isFlashloan": false,
            "maxFee": "",
            "nonce": 66,
            "overwritedBlockNumber": -1,
            "priorityFee": "",
            "receiver": "0x6090a6e47849629b7245dfa1ca21d94cd15878ef",
            "revertMessage": "",
            "sender": "0x53947d93e4e0b7b50f8c743f5213058302b85f56",
            "simulationEnable": true,
            "sourceTxnHash": "0x8959d5d0c42d409a9d5301761ad846055ff1d24c7e3953409b072da2523fe409",
            "status": false,
            "timestamp": "2017-07-01T14:01:14Z",
            "transactionFee": "0.015",
            "txnHash": "0x8959d5d0c42d409a9d5301761ad846055ff1d24c7e3953409b072da2523fe409",
            "txnIndex": 1,
            "type": 0,
            "value": "0"
        },
        "fund_flow": [],
        "token_infos": [
            {
                "address": "0xeeeeeeeeeeeeeeeeeeeeeeeeeeeeeeeeeeeeeeee",
                "decimals": 18
            },
            {
                "address": "0xc02aaa39b223fe8d0a0e5c4f27ead9083c756cc2",
                "decimals": 18
            }
        ]
    },
    "address_label": {
        "labels": [
            {
                "address": "0xeeeeeeeeeeeeeeeeeeeeeeeeeeeeeeeeeeeeeeee",
                "label": "Ether"
            },
            {
                "address": "0x6090a6e47849629b7245dfa1ca21d94cd15878ef",
                "label": "ENS: Old Registrar"
            },
            {
                "address": "0x0000000000000000000000000000000000000001",
                "label": "Precompiled"
            },
            {
                "address": "0x0000000000000000000000000000000000000002",
                "label": "Precompiled"
            },
            {
                "address": "0x0000000000000000000000000000000000000003",
                "label": "Precompiled"
            },
            {
                "address": "0x0000000000000000000000000000000000000004",
                "label": "Precompiled"
            }
        ]
    },
    "trace": {
        "accountLabels": null,
        "dataMap": {
            "-1": {
                "invocation": {
                    "address": "0x53947d93e4e0b7b50f8c743f5213058302b85f56",
                    "callData": "",
                    "decodedMethod": null,
                    "errorInfo": "",
                    "fromAddress": "",
                    "gasUsed": 0,
                    "id": -1,
                    "methodDecoded": false,
                    "operation": "",
                    "output": "",
                    "revert": false,
                    "revertMessage": "",
                    "selector": "",
                    "status": false,
                    "value": ""
                },
                "nodeType": 0
            },
            "0": {
                "invocation": {
                    "address": "0x6090a6e47849629b7245dfa1ca21d94cd15878ef",
                    "callData": "0xc9111d160adf0e7367c0897f15303c0c8c41535fbf0f465b8e5f3c1811503238000000000000000000000000000000000000000000000000002386f26fc10000b34c094feca52920b5878ae825aff6aed33e5d414e7e11eac5b8f10528275af4",
                    "decodedMethod": {
                        "callParams": [
                            {
                                "name": "_hash",
                                "type": "bytes32",
                                "value": "0xc9111d160adf0e7367c0897f15303c0c8c41535fbf0f465b8e5f3c1811503238"
                            },
                            {
                                "name": "_value",
                                "type": "uint256",
                                "value": "10,000,000,000,000,000"
                            },
                            {
                                "name": "_salt",
                                "type": "bytes32",
                                "value": "0xb34c094feca52920b5878ae825aff6aed33e5d414e7e11eac5b8f10528275af4"
                            }
                        ],
                        "constructorArguments": "",
                        "name": "unsealBid",
                        "returnParams": [],
                        "signature": "unsealBid(bytes32,uint256,bytes32)"
                    },
                    "errorInfo": "invalid opcode: REVERT",
                    "fromAddress": "0x53947d93e4e0b7b50f8c743f5213058302b85f56",
                    "gasUsed": 300000,
                    "id": 0,
                    "methodDecoded": true,
                    "operation": "CALL",
                    "output": "",
                    "revert": true,
                    "revertMessage": "",
                    "selector": "0x47872b42",
                    "status": false,
                    "value": "0"
                },
                "nodeType": 0
            }
        },
        "gasFlame": [
            {
                "children": [
                    {
                        "children": [
                            {
                                "children": [],
                                "depth": 0,
                                "name": "Initial Gas",
                                "value": 26072
                            },
                            {
                                "children": [],
                                "depth": 0,
                                "name": "Executed Gas",
                                "value": 273928
                            }
                        ],
                        "depth": -1,
                        "name": "Actual Gas Used",
                        "value": 300000
                    },
                    {
                        "children": [],
                        "depth": -1,
                        "name": "Refunded Gas",
                        "value": 0
                    }
                ],
                "depth": -2,
                "name": "Total Gas",
                "value": 300000
            }
        ],
        "isConfirmed": true,
        "mainTrace": [
            {
                "children": [
                    {
                        "children": [],
                        "depth": 0,
                        "id": 0,
                        "order": 0
                    }
                ],
                "depth": -1,
                "id": -1,
                "order": -1
            }
        ],
        "mainTraceNodeCount": 1,
        "parentIdMap": {
            "0": -1
        },
        "tidyTrace": [
            {
                "children": [
                    {
                        "children": [],
                        "depth": 0,
                        "id": 0,
                        "order": 0
                    }
                ],
                "depth": -1,
                "id": -1,
                "order": -1
            }
        ],
        "tidyTraceNodeCount": 1
    },
    "state_change": {
        "stateChanges": []
    }
}