{
    "balance_change": {
        "balanceChanges": [
            {
                "account": "0xec6e79601be98ccb820df67f991cd868f54b52cb",
                "assets": [
                    {
                        "address": "0x7350271594848ab8c0371ef4afeef199c69c3e05",
                        "amount": "1",
                        "iconUrl": "",
                        "isERC1155": false,
                        "isERC721": true,
                        "sign": true,
                        "tokenID": "6707",
                        "value": ""
                    }
                ]
            },
            {
                "account": "0x6a501fe73a1956aedbf402fb83ef59ffd83b845e",
                "assets": [
                    {
                        "address": "0x7350271594848ab8c0371ef4afeef199c69c3e05",
                        "amount": "1",
                        "iconUrl": "",
                        "isERC1155": false,
                        "isERC721": true,
                        "sign": false,
                        "tokenID": "6707",
                        "value": ""
                    }
                ]
            }
        ]
    },
    "profile": {
        "basic_info": {
            "baseFee": "115.289046702",
            "blockNumber": 13949364,
            "callData": "0x23b872dd0000000000000000000000006a501fe73a1956aedbf402fb83ef59ffd83b845e000000000000000000000000ec6e79601be98ccb820df67f991cd868f54b52cb0000000000000000000000000000000000000000000000000000000000001a33",
            "debugEnable": true,
            "errorInfo": "",
            "eventCount": 2,
            "feeRecipient": "0xea674fdde714fd979de3edf0f56aa9716b898ec8",
            "formatValue": "0",
            "gasLimit": 79152,
            "gasPrice": "116.789046702",
            "gasUsed": 74352,
            "intTxnCount": 0,
            "internalRevert": false,
            "internalRevertMessage": "",
            "isContractCreation": false,
            "isFlashloan": false,
            "maxFee": "128.084410278",
            "nonce": 28,
            "overwritedBlockNumber": -1,
            "priorityFee": "1.5",
            "receiver": "0x7350271594848ab8c0371ef4afeef199c69c3e05",
            "revertMessage": "",
            "sender": "0x6a501fe73a1956aedbf402fb83ef59ffd83b845e",
            "simulationEnable": true,
            "sourceTxnHash": "0x89f895b4a8a53e3148029a7ccedb33f2bb47780c9290d801f69b34818d400eee",
            "status": true,
            "timestamp": "2022-01-06T02:58:52Z",
            "transactionFee": "0.008683499200387104",
            "txnHash": "0x89f895b4a8a53e3148029a7ccedb33f2bb47780c9290d801f69b34818d400eee",
            "txnIndex": 202,
            "type": 2,
            "value": "0"
        },
        "fund_flow": [
            {
                "amount": "1",
                "from": "0x6a501fe73a1956aedbf402fb83ef59ffd83b845e",
                "id": 1,
                "isERC1155": false,
                "isERC721": true,
                "isReverted": false,
                "order": 1,
                "to": "0xec6e79601be98ccb820df67f991cd868f54b52cb",
                "token": "0x7350271594848ab8c0371ef4afeef199c69c3e05",
                "tokenID": "6707"
            }
        ],
        "token_infos": [
            {
                "address": "0xc02aaa39b223fe8d0a0e5c4f27ead9083c756cc2",
                "decimals": 18
            },
            {
                "address": "0xeeeeeeeeeeeeeeeeeeeeeeeeeeeeeeeeeeeeeeee",
                "decimals": 18
            }
        ]
    },
    "address_label": {
        "labels": [
            {
                "address": "0x0000000000000000000000000000000000000003",
                "label": "Precompiled"
            },
            {
                "address": "0x0000000000000000000000000000000000000004",
                "label": "Precompiled"
            },
            {
                "address": "0xeeeeeeeeeeeeeeeeeeeeeeeeeeeeeeeeeeeeeeee",
                "label": "Ether"
            },
            {
                "address": "0x7350271594848ab8c0371ef4afeef199c69c3e05",
                "label": "GUNSLINGERS: GUNSLINGERS Token"
            },
            {
                "address": "0x0000000000000000000000000000000000000001",
                "label": "Precompiled"
            },
            {
                "address": "0x0000000000000000000000000000000000000002",
                "label": "Precompiled"
            }
        ]
    },
    "trace": {
        "accountLabels": null,
        "dataMap": {
            "-1": {
                "invocation": {
                    "address": "0x6a501fe73a1956aedbf402fb83ef59ffd83b845e",
                    "callData": "",
                    "decodedMethod": null,
                    "errorInfo": "",
                    "fromAddress": "",
                    "gasUsed": 0,
                    "id": -1,
                    "methodDecoded": false,
                    "operation": "",
                    "output": "",
                    "revert": false,
                    "revertMessage": "",
                    "selector": "",
                    "status": false,
                    "value": ""
                },
                "nodeType": 0
            },
            "0": {
                "invocation": {
                    "address": "0x7350271594848ab8c0371ef4afeef199c69c3e05",
                    "callData": "0x0000000000000000000000006a501fe73a1956aedbf402fb83ef59ffd83b845e000000000000000000000000ec6e79601be98ccb820df67f991cd868f54b52cb0000000000000000000000000000000000000000000000000000000000001a33",
                    "decodedMethod": {
                        "callParams": [
                            {
                                "name": "from",
                                "type": "address",
                                "value": "0x6a501fe73a1956aedbf402fb83ef59ffd83b845e"
                            },
                            {
                                "name": "to",
                                "type": "address",
                                "value": "0xec6e79601be98ccb820df67f991cd868f54b52cb"
                            },
                            {
                                "decimalAvailable": true,
                                "name": "tokenId",
                                "type": "uint256",
                                "value": "6,707"
                            }
                        ],
                        "constructorArguments": "",
                        "name": "transferFrom",
                        "returnParams": [],
                        "signature": "transferFrom(address,address,uint256)"
                    },
                    "errorInfo": "",
                    "fromAddress": "0x6a501fe73a1956aedbf402fb83ef59ffd83b845e",
                    "gasUsed": 74352,
                    "id": 0,
                    "methodDecoded": true,
                    "operation": "CALL",
                    "output": "",
                    "revert": false,
                    "revertMessage": "",
                    "selector": "0x23b872dd",
                    "status": true,
                    "value": "0"
                },
                "nodeType": 0
            },
            "1": {
                "event": {
                    "contract": "0x7350271594848ab8c0371ef4afeef199c69c3e05",
                    "decodedLog": {
                        "name": "Approval",
                        "params": [
                            {
                                "name": "owner",
                                "type": "address",
                                "value": "0x6a501fe73a1956aedbf402fb83ef59ffd83b845e"
                            },
                            {
                                "name": "approved",
                                "type": "address",
                                "value": "0x0000000000000000000000000000000000000000"
                            },
                            {
                                "decimalAvailable": true,
                                "name": "tokenId",
                                "type": "uint256",
                                "value": "6,707"
                            }
                        ],
                        "signature": "Approval(address,address,uint256)"
                    },
                    "id": 1,
                    "logData": "0x",
                    "logDecoded": true,
                    "operation": "EVENT",
                    "revert": false,
                    "status": true,
                    "topics": [
                        "0x8c5be1e5ebec7d5bd14f71427d1e84f3dd0314c0f7b2291e5b200ac8c7c3b925",
                        "0x0000000000000000000000006a501fe73a1956aedbf402fb83ef59ffd83b845e",
                        "0x0000000000000000000000000000000000000000000000000000000000000000",
                        "0x0000000000000000000000000000000000000000000000000000000000001a33"
                    ]
                },
                "nodeType": 1
            },
            "2": {
                "event": {
                    "contract": "0x7350271594848ab8c0371ef4afeef199c69c3e05",
                    "decodedLog": {
                        "name": "Transfer",
                        "params": [
                            {
                                "name": "from",
                                "type": "address",
                                "value": "0x6a501fe73a1956aedbf402fb83ef59ffd83b845e"
                            },
                            {
                                "name": "to",
                                "type": "address",
                                "value": "0xec6e79601be98ccb820df67f991cd868f54b52cb"
                            },
                            {
                                "decimalAvailable": true,
                                "name": "tokenId",
                                "type": "uint256",
                                "value": "6,707"
                            }
                        ],
                        "signature": "Transfer(address,address,uint256)"
                    },
                    "id": 2,
                    "logData": "0x",
                    "logDecoded": true,
                    "operation": "EVENT",
                    "revert": false,
                    "status": true,
                    "topics": [
                        "0xddf252ad1be2c89b69c2b068fc378daa952ba7f163c4a11628f55a4df523b3ef",
                        "0x0000000000000000000000006a501fe73a1956aedbf402fb83ef59ffd83b845e",
                        "0x000000000000000000000000ec6e79601be98ccb820df67f991cd868f54b52cb",
                        "0x0000000000000000000000000000000000000000000000000000000000001a33"
                    ]
                },
                "nodeType": 1
            }
        },
        "gasFlame": [
            {
                "children": [
                    {
                        "children": [
                            {
                                "children": [],
                                "depth": 0,
                                "name": "Initial Gas",
                                "value": 21952
                            },
                            {
                                "children": [],
                                "depth": 0,
                                "name": "Executed Gas",
                                "value": 57200
                            }
                        ],
                        "depth": -1,
                        "name": "Actual Gas Used",
                        "value": 74352
                    },
                    {
                        "children": [],
                        "depth": -1,
                        "name": "Refunded Gas",
                        "value": 4800
                    }
                ],
                "depth": -2,
                "name": "Total Gas",
                "value": 79152
            }
        ],
        "isConfirmed": true,
        "mainTrace": [
            {
                "children": [
                    {
                        "children": [
                            {
                                "children": [],
                                "depth": 1,
                                "id": 1,
                                "order": 1
                            },
                            {
                                "children": [],
                                "depth": 1,
                                "id": 2,
                                "order": 2
                            }
                        ],
                        "depth": 0,
                        "id": 0,
                        "order": 0
                    }
                ],
                "depth": -1,
                "id": -1,
                "order": -1
            }
        ],
        "mainTraceNodeCount": 3,
        "parentIdMap": {
            "0": -1,
            "1": 0,
            "2": 0
        },
        "tidyTrace": [
            {
                "children": [
                    {
                        "children": [
                            {
                                "children": [],
                                "depth": 1,
                                "id": 1,
                                "order": 1
                            },
                            {
                                "children": [],
                                "depth": 1,
                                "id": 2,
                                "order": 2
                            }
                        ],
                        "depth": 0,
                        "id": 0,
                        "order": 0
                    }
                ],
                "depth": -1,
                "id": -1,
                "order": -1
            }
        ],
        "tidyTraceNodeCount": 3
    },
    "state_change": {
        "stateChanges": [
            {
                "address": "0x7350271594848ab8c0371ef4afeef199c69c3e05",
                "erc": "ERC-721",
                "slots": [
                    {
                        "current": "0x0000000000000000000000000000000000000000000000000000000000000002",
                        "key": "0xb075bfbce3bce1db3cd64b3b50c690b34d3962110a1ab72a4ceaf7f27a95169c",
                        "prev": "0x0000000000000000000000000000000000000000000000000000000000000001"
                    },
                    {
                        "current": "0x000000000000000000000000ec6e79601be98ccb820df67f991cd868f54b52cb",
                        "key": "0xcc3b4f6d9f00520913981888b4fc747f3dddf1b39e8af4bfb2c7bf76e3bed8ce",
                        "prev": "0x0000000000000000000000006a501fe73a1956aedbf402fb83ef59ffd83b845e"
                    },
                    {
                        "current": "0x0000000000000000000000000000000000000000000000000000000000000001",
                        "key": "0x6d571805dd80436434e8f48f1af6118165012aa46af4bb6a6aae9de53cbcd416",
                        "prev": "0x0000000000000000000000000000000000000000000000000000000000000002"
                    },
                    {
                        "current": "0x0000000000000000000000000000000000000000000000000000000000000000",
                        "key": "0x8ccabcd88f4457217446cad97638dfc26f2b7ceddca1131c74bc930a8183041c",
                        "prev": "0x0000000000000000000000000000000000000000000000000000000000001a33"
                    },
                    {
                        "current": "0x0000000000000000000000000000000000000000000000000000000000001a33",
                        "key": "0xb6266bcbd7bd251cb0072efd1be562b5b3aac53a819950f16edb051d1ed7c849",
                        "prev": "0x0000000000000000000000000000000000000000000000000000000000000000"
                    },
                    {
                        "current": "0x0000000000000000000000000000000000000000000000000000000000000002",
                        "key": "0x681f6c5fc4a8d7bb083949aa1837de0c83b562fd0a15feb5103fb6318bcd1428",
                        "prev": "0x0000000000000000000000000000000000000000000000000000000000000003"
                    }
                ],
                "storageVariables": [
                    {
                        "name": "_ownedTokens",
                        "type": "mapping(address => mapping(uint256 => uint256))",
                        "value": {
                            "pairs": [
                                {
                                    "key": "0x6a501fe73a1956aedbf402fb83ef59ffd83b845e",
                                    "value": {
                                        "pairs": [
                                            {
                                                "key": "2",
                                                "value": {
                                                    "current": "0",
                                                    "prev": "6707",
                                                    "typeTag": 1
                                                }
                                            }
                                        ],
                                        "typeTag": 4
                                    }
                                },
                                {
                                    "key": "0xec6e79601be98ccb820df67f991cd868f54b52cb",
                                    "value": {
                                        "pairs": [
                                            {
                                                "key": "1",
                                                "value": {
                                                    "current": "6707",
                                                    "prev": "0",
                                                    "typeTag": 1
                                                }
                                            }
                                        ],
                                        "typeTag": 4
                                    }
                                }
                            ],
                            "typeTag": 4
                        }
                    },
                    {
                        "name": "_balances",
                        "type": "mapping(address => uint256)",
                        "value": {
                            "pairs": [
                                {
                                    "key": "0x6a501fe73a1956aedbf402fb83ef59ffd83b845e",
                                    "value": {
                                        "current": "2",
                                        "prev": "3",
                                        "typeTag": 1
                                    }
                                },
                                {
                                    "key": "0xec6e79601be98ccb820df67f991cd868f54b52cb",
                                    "value": {
                                        "current": "2",
                                        "prev": "1",
                                        "typeTag": 1
                                    }
                                }
                            ],
                            "typeTag": 4
                        }
                    },
                    {
                        "name": "_owners",
                        "type": "mapping(uint256 => address)",
                        "value": {
                            "pairs": [
                                {
                                    "key": "6707",
                                    "value": {
                                        "current": "0xec6e79601be98ccb820df67f991cd868f54b52cb",
                                        "prev": "0x6a501fe73a1956aedbf402fb83ef59ffd83b845e",
                                        "typeTag": 1
                                    }
                                }
                            ],
                            "typeTag": 4
                        }
                    },
                    {
                        "name": "_ownedTokensIndex",
                        "type": "mapping(uint256 => uint256)",
                        "value": {
                            "pairs": [
                                {
                                    "key": "6707",
                                    "value": {
                                        "current": "1",
                                        "prev": "2",
                                        "typeTag": 1
                                    }
                                }
                            ],
                            "typeTag": 4
                        }
                    }
                ]
            }
        ]
    }
}