{
    "balance_change": {
        "balanceChanges": [
            {
                "account": "0x3ea0cb94ca0154639c38809f2835be9308e8fbee",
                "assets": [
                    {
                        "address": "0xcd5fe23c85820f7b72d0926fc9b05b43e359b7ee",
                        "amount": "0.003911760413476475",
                        "iconUrl": "",
                        "isERC1155": false,
                        "isERC721": false,
                        "sign": false,
                        "value": "10.659742713445650711"
                    }
                ]
            },
            {
                "account": "0x19b5cc75846bf6286d599ec116536a333c4c2c14",
                "assets": [
                    {
                        "address": "0xcd5fe23c85820f7b72d0926fc9b05b43e359b7ee",
                        "amount": "0.003911760413476475",
                        "iconUrl": "",
                        "isERC1155": false,
                        "isERC721": false,
                        "sign": true,
                        "value": "10.659742713445650711"
                    }
                ]
            }
        ]
    },
    "profile": {
        "basic_info": {
            "baseFee": "1.009347424",
            "blockNumber": 20538961,
            "callData": "0xdf68e9d6000000000000000000000000cd5fe23c85820f7b72d0926fc9b05b43e359b7ee000000000000000000000000000000000000000000000000000de5b9b1e4467b0000000000000000000000000000000000000000000000000000000000000000",
            "debugEnable": true,
            "errorInfo": "",
            "eventCount": 3,
            "feeRecipient": "0x1f9090aae28b8a3dceadf281b0f12828e676c326",
            "formatValue": "0",
            "gasLimit": 130506,
            "gasPrice": "1.059347424",
            "gasUsed": 76200,
            "intTxnCount": 3,
            "internalRevert": false,
            "internalRevertMessage": "",
            "isContractCreation": false,
            "isFlashloan": false,
            "maxFee": "1.1",
            "nonce": 10,
            "overwritedBlockNumber": -1,
            "priorityFee": "0.05",
            "receiver": "0x19b5cc75846bf6286d599ec116536a333c4c2c14",
            "revertMessage": "",
            "sender": "0x3ea0cb94ca0154639c38809f2835be9308e8fbee",
            "simulationEnable": true,
            "sourceTxnHash": "0x89218191ac6fce1a533e5f3d944c7dd6fc93fea96c5f2e859a447a1c84bb702d",
            "status": true,
            "timestamp": "2024-08-16T05:00:59Z",
            "transactionFee": "0.0000807222737088",
            "txnHash": "0x89218191ac6fce1a533e5f3d944c7dd6fc93fea96c5f2e859a447a1c84bb702d",
            "txnIndex": 69,
            "type": 2,
            "value": "0"
        },
        "fund_flow": [
            {
                "amount": "0.003911760413476475",
                "from": "0x3ea0cb94ca0154639c38809f2835be9308e8fbee",
                "id": 1,
                "isERC1155": false,
                "isERC721": false,
                "isReverted": false,
                "order": 1,
                "to": "0x19b5cc75846bf6286d599ec116536a333c4c2c14",
                "token": "0xcd5fe23c85820f7b72d0926fc9b05b43e359b7ee"
            }
        ],
        "token_infos": [
            {
                "address": "0xcd5fe23c85820f7b72d0926fc9b05b43e359b7ee",
                "decimals": 18
            },
            {
                "address": "0xeeeeeeeeeeeeeeeeeeeeeeeeeeeeeeeeeeeeeeee",
                "decimals": 18
            },
            {
                "address": "0xc02aaa39b223fe8d0a0e5c4f27ead9083c756cc2",
                "decimals": 18
            }
        ]
    },
    "address_label": {
        "labels": [
            {
                "address": "0xeeeeeeeeeeeeeeeeeeeeeeeeeeeeeeeeeeeeeeee",
                "label": "Ether"
            },
            {
                "address": "0xcd5fe23c85820f7b72d0926fc9b05b43e359b7ee",
                "label": "ether.fi: weETH Token"
            },
            {
                "address": "0x36fa1d4f525850794463d9bb47fc5a48295a9e45",
                "label": "PreDeposits"
            },
            {
                "address": "0x0000000000000000000000000000000000000002",
                "label": "Precompiled"
            },
            {
                "address": "0x0000000000000000000000000000000000000003",
                "label": "Precompiled"
            },
            {
                "address": "0x0000000000000000000000000000000000000004",
                "label": "Precompiled"
            },
            {
                "address": "0x19b5cc75846bf6286d599ec116536a333c4c2c14",
                "label": "TransparentUpgradeableProxy"
            },
            {
                "address": "0xe629ee84c1bd9ea9c677d2d5391919fcf5e7d5d9",
                "label": "WeETH"
            },
            {
                "address": "0x0000000000000000000000000000000000000001",
                "label": "Precompiled"
            }
        ]
    },
    "trace": {
        "accountLabels": null,
        "dataMap": {
            "-1": {
                "invocation": {
                    "address": "0x3ea0cb94ca0154639c38809f2835be9308e8fbee",
                    "callData": "",
                    "decodedMethod": null,
                    "errorInfo": "",
                    "fromAddress": "",
                    "gasUsed": 0,
                    "id": -1,
                    "methodDecoded": false,
                    "operation": "",
                    "output": "",
                    "revert": false,
                    "revertMessage": "",
                    "selector": "",
                    "status": false,
                    "value": ""
                },
                "nodeType": 0
            },
            "0": {
                "invocation": {
                    "address": "0x19b5cc75846bf6286d599ec116536a333c4c2c14",
                    "callData": "0x000000000000000000000000cd5fe23c85820f7b72d0926fc9b05b43e359b7ee000000000000000000000000000000000000000000000000000de5b9b1e4467b0000000000000000000000000000000000000000000000000000000000000000",
                    "decodedMethod": {
                        "callParams": [
                            {
                                "name": "token",
                                "type": "address",
                                "value": "0xcd5fe23c85820f7b72d0926fc9b05b43e359b7ee"
                            },
                            {
                                "name": "amount",
                                "type": "uint240",
                                "value": "3,911,760,413,476,475"
                            },
                            {
                                "name": "depositParam",
                                "type": "uint16",
                                "value": "0"
                            }
                        ],
                        "constructorArguments": "",
                        "name": "deposit",
                        "returnParams": [],
                        "signature": "deposit(address,uint240,uint16)"
                    },
                    "errorInfo": "",
                    "fromAddress": "0x3ea0cb94ca0154639c38809f2835be9308e8fbee",
                    "gasUsed": 76200,
                    "id": 0,
                    "methodDecoded": true,
                    "operation": "CALL",
                    "output": "",
                    "revert": false,
                    "revertMessage": "",
                    "selector": "0xdf68e9d6",
                    "status": true,
                    "value": "0"
                },
                "nodeType": 0
            },
            "1": {
                "invocation": {
                    "address": "0x36fa1d4f525850794463d9bb47fc5a48295a9e45",
                    "callData": "0x000000000000000000000000cd5fe23c85820f7b72d0926fc9b05b43e359b7ee000000000000000000000000000000000000000000000000000de5b9b1e4467b0000000000000000000000000000000000000000000000000000000000000000",
                    "decodedMethod": {
                        "callParams": [
                            {
                                "name": "token",
                                "type": "address",
                                "value": "0xcd5fe23c85820f7b72d0926fc9b05b43e359b7ee"
                            },
                            {
                                "name": "amount",
                                "type": "uint240",
                                "value": "3,911,760,413,476,475"
                            },
                            {
                                "name": "depositParam",
                                "type": "uint16",
                                "value": "0"
                            }
                        ],
                        "constructorArguments": "",
                        "name": "deposit",
                        "returnParams": [],
                        "signature": "deposit(address,uint240,uint16)"
                    },
                    "errorInfo": "",
                    "fromAddress": "0x19b5cc75846bf6286d599ec116536a333c4c2c14",
                    "gasUsed": 59074,
                    "id": 1,
                    "methodDecoded": true,
                    "operation": "DELEGATECALL",
                    "output": "",
                    "revert": false,
                    "revertMessage": "",
                    "selector": "0xdf68e9d6",
                    "status": true,
                    "value": "0"
                },
                "nodeType": 0
            },
            "2": {
                "invocation": {
                    "address": "0xcd5fe23c85820f7b72d0926fc9b05b43e359b7ee",
                    "callData": "0x0000000000000000000000003ea0cb94ca0154639c38809f2835be9308e8fbee00000000000000000000000019b5cc75846bf6286d599ec116536a333c4c2c14000000000000000000000000000000000000000000000000000de5b9b1e4467b",
                    "decodedMethod": {
                        "callParams": [
                            {
                                "name": "from",
                                "type": "address",
                                "value": "0x3ea0cb94ca0154639c38809f2835be9308e8fbee"
                            },
                            {
                                "name": "to",
                                "type": "address",
                                "value": "0x19b5cc75846bf6286d599ec116536a333c4c2c14"
                            },
                            {
                                "decimalAvailable": true,
                                "name": "amount",
                                "type": "uint256",
                                "value": "3,911,760,413,476,475"
                            }
                        ],
                        "constructorArguments": "",
                        "name": "transferFrom",
                        "returnParams": [
                            {
                                "name": "",
                                "type": "bool",
                                "value": true
                            }
                        ],
                        "signature": "transferFrom(address,address,uint256)"
                    },
                    "errorInfo": "",
                    "fromAddress": "0x19b5cc75846bf6286d599ec116536a333c4c2c14",
                    "gasUsed": 25081,
                    "id": 2,
                    "methodDecoded": true,
                    "operation": "CALL",
                    "output": "0x0000000000000000000000000000000000000000000000000000000000000001",
                    "revert": false,
                    "revertMessage": "",
                    "selector": "0x23b872dd",
                    "status": true,
                    "value": "0"
                },
                "nodeType": 0
            },
            "3": {
                "invocation": {
                    "address": "0xe629ee84c1bd9ea9c677d2d5391919fcf5e7d5d9",
                    "callData": "0x0000000000000000000000003ea0cb94ca0154639c38809f2835be9308e8fbee00000000000000000000000019b5cc75846bf6286d599ec116536a333c4c2c14000000000000000000000000000000000000000000000000000de5b9b1e4467b",
                    "decodedMethod": {
                        "callParams": [
                            {
                                "name": "from",
                                "type": "address",
                                "value": "0x3ea0cb94ca0154639c38809f2835be9308e8fbee"
                            },
                            {
                                "name": "to",
                                "type": "address",
                                "value": "0x19b5cc75846bf6286d599ec116536a333c4c2c14"
                            },
                            {
                                "decimalAvailable": true,
                                "name": "amount",
                                "type": "uint256",
                                "value": "3,911,760,413,476,475"
                            }
                        ],
                        "constructorArguments": "",
                        "name": "transferFrom",
                        "returnParams": [
                            {
                                "name": "",
                                "type": "bool",
                                "value": true
                            }
                        ],
                        "signature": "transferFrom(address,address,uint256)"
                    },
                    "errorInfo": "",
                    "fromAddress": "0xcd5fe23c85820f7b72d0926fc9b05b43e359b7ee",
                    "gasUsed": 20186,
                    "id": 3,
                    "methodDecoded": true,
                    "operation": "DELEGATECALL",
                    "output": "0x0000000000000000000000000000000000000000000000000000000000000001",
                    "revert": false,
                    "revertMessage": "",
                    "selector": "0x23b872dd",
                    "status": true,
                    "value": "0"
                },
                "nodeType": 0
            },
            "4": {
                "event": {
                    "contract": "0xcd5fe23c85820f7b72d0926fc9b05b43e359b7ee",
                    "decodedLog": {
                        "name": "Approval",
                        "params": [
                            {
                                "name": "owner",
                                "type": "address",
                                "value": "0x3ea0cb94ca0154639c38809f2835be9308e8fbee"
                            },
                            {
                                "name": "spender",
                                "type": "address",
                                "value": "0x19b5cc75846bf6286d599ec116536a333c4c2c14"
                            },
                            {
                                "decimalAvailable": true,
                                "name": "value",
                                "type": "uint256",
                                "value": "0"
                            }
                        ],
                        "signature": "Approval(address,address,uint256)"
                    },
                    "id": 4,
                    "logData": "0x0000000000000000000000000000000000000000000000000000000000000000",
                    "logDecoded": true,
                    "operation": "EVENT",
                    "revert": false,
                    "status": true,
                    "topics": [
                        "0x8c5be1e5ebec7d5bd14f71427d1e84f3dd0314c0f7b2291e5b200ac8c7c3b925",
                        "0x0000000000000000000000003ea0cb94ca0154639c38809f2835be9308e8fbee",
                        "0x00000000000000000000000019b5cc75846bf6286d599ec116536a333c4c2c14"
                    ]
                },
                "nodeType": 1
            },
            "5": {
                "event": {
                    "contract": "0xcd5fe23c85820f7b72d0926fc9b05b43e359b7ee",
                    "decodedLog": {
                        "name": "Transfer",
                        "params": [
                            {
                                "name": "from",
                                "type": "address",
                                "value": "0x3ea0cb94ca0154639c38809f2835be9308e8fbee"
                            },
                            {
                                "name": "to",
                                "type": "address",
                                "value": "0x19b5cc75846bf6286d599ec116536a333c4c2c14"
                            },
                            {
                                "decimalAvailable": true,
                                "name": "value",
                                "type": "uint256",
                                "value": "3,911,760,413,476,475"
                            }
                        ],
                        "signature": "Transfer(address,address,uint256)"
                    },
                    "id": 5,
                    "logData": "0x000000000000000000000000000000000000000000000000000de5b9b1e4467b",
                    "logDecoded": true,
                    "operation": "EVENT",
                    "revert": false,
                    "status": true,
                    "topics": [
                        "0xddf252ad1be2c89b69c2b068fc378daa952ba7f163c4a11628f55a4df523b3ef",
                        "0x0000000000000000000000003ea0cb94ca0154639c38809f2835be9308e8fbee",
                        "0x00000000000000000000000019b5cc75846bf6286d599ec116536a333c4c2c14"
                    ]
                },
                "nodeType": 1
            },
            "6": {
                "event": {
                    "contract": "0x19b5cc75846bf6286d599ec116536a333c4c2c14",
                    "decodedLog": {
                        "name": "Deposit",
                        "params": [
                            {
                                "name": "user",
                                "type": "address",
                                "value": "0x3ea0cb94ca0154639c38809f2835be9308e8fbee"
                            },
                            {
                                "name": "token",
                                "type": "address",
                                "value": "0xcd5fe23c85820f7b72d0926fc9b05b43e359b7ee"
                            },
                            {
                                "name": "amount",
                                "type": "uint240",
                                "value": "3,911,760,413,476,475"
                            },
                            {
                                "name": "depositParam",
                                "type": "uint16",
                                "value": "0"
                            }
                        ],
                        "signature": "Deposit(address,address,uint240,uint16)"
                    },
                    "id": 6,
                    "logData": "0x000000000000000000000000000000000000000000000000000de5b9b1e4467b0000000000000000000000000000000000000000000000000000000000000000",
                    "logDecoded": true,
                    "operation": "EVENT",
                    "revert": false,
                    "status": true,
                    "topics": [
                        "0x4fde9e5d7200f715524c39d7165496d6f0ac51f4766ac6e3a5741e11128cc05e",
                        "0x0000000000000000000000003ea0cb94ca0154639c38809f2835be9308e8fbee",
                        "0x000000000000000000000000cd5fe23c85820f7b72d0926fc9b05b43e359b7ee"
                    ]
                },
                "nodeType": 1
            }
        },
        "gasFlame": [
            {
                "children": [
                    {
                        "children": [
                            {
                                "children": [],
                                "depth": 0,
                                "name": "Initial Gas",
                                "value": 21772
                            },
                            {
                                "children": [
                                    {
                                        "children": [
                                            {
                                                "children": [
                                                    {
                                                        "children": [],
                                                        "depth": 3,
                                                        "name": "transferFrom",
                                                        "value": 20186
                                                    }
                                                ],
                                                "depth": 2,
                                                "name": "transferFrom",
                                                "value": 25081
                                            }
                                        ],
                                        "depth": 1,
                                        "name": "deposit",
                                        "value": 59074
                                    }
                                ],
                                "depth": 0,
                                "name": "Executed Gas",
                                "value": 64028
                            }
                        ],
                        "depth": -1,
                        "name": "Actual Gas Used",
                        "value": 76200
                    },
                    {
                        "children": [],
                        "depth": -1,
                        "name": "Refunded Gas",
                        "value": 9600
                    }
                ],
                "depth": -2,
                "name": "Total Gas",
                "value": 85800
            }
        ],
        "isConfirmed": true,
        "mainTrace": [
            {
                "children": [
                    {
                        "children": [
                            {
                                "children": [
                                    {
                                        "children": [
                                            {
                                                "children": [
                                                    {
                                                        "children": [],
                                                        "depth": 4,
                                                        "id": 4,
                                                        "order": 4
                                                    },
                                                    {
                                                        "children": [],
                                                        "depth": 4,
                                                        "id": 5,
                                                        "order": 5
                                                    }
                                                ],
                                                "depth": 3,
                                                "id": 3,
                                                "order": 3
                                            }
                                        ],
                                        "depth": 2,
                                        "id": 2,
                                        "order": 2
                                    },
                                    {
                                        "children": [],
                                        "depth": 2,
                                        "id": 6,
                                        "order": 6
                                    }
                                ],
                                "depth": 1,
                                "id": 1,
                                "order": 1
                            }
                        ],
                        "depth": 0,
                        "id": 0,
                        "order": 0
                    }
                ],
                "depth": -1,
                "id": -1,
                "order": -1
            }
        ],
        "mainTraceNodeCount": 7,
        "parentIdMap": {
            "0": -1,
            "1": 0,
            "2": 1,
            "3": 2,
            "4": 3,
            "5": 3,
            "6": 1
        },
        "tidyTrace": [
            {
                "children": [
                    {
                        "children": [
                            {
                                "children": [
                                    {
                                        "children": [
                                            {
                                                "children": [
                                                    {
                                                        "children": [],
                                                        "depth": 4,
                                                        "id": 4,
                                                        "order": 4
                                                    },
                                                    {
                                                        "children": [],
                                                        "depth": 4,
                                                        "id": 5,
                                                        "order": 5
                                                    }
                                                ],
                                                "depth": 3,
                                                "id": 3,
                                                "order": 3
                                            }
                                        ],
                                        "depth": 2,
                                        "id": 2,
                                        "order": 2
                                    },
                                    {
                                        "children": [],
                                        "depth": 2,
                                        "id": 6,
                                        "order": 6
                                    }
                                ],
                                "depth": 1,
                                "id": 1,
                                "order": 1
                            }
                        ],
                        "depth": 0,
                        "id": 0,
                        "order": 0
                    }
                ],
                "depth": -1,
                "id": -1,
                "order": -1
            }
        ],
        "tidyTraceNodeCount": 7
    },
    "state_change": {
        "stateChanges": [
            {
                "address": "0x19b5cc75846bf6286d599ec116536a333c4c2c14",
                "erc": "",
                "slots": [
                    {
                        "current": "0x000000000000000000000000000000000000000000000000000de5b9b1e4467b",
                        "key": "0x236b6708f111636db32ff6dbff04e74334013bfb57f50596a186181deab9fc1b",
                        "prev": "0x0000000000000000000000000000000000000000000000000000000000000000"
                    }
                ],
                "storageVariables": [
                    {
                        "name": "deposits",
                        "type": "mapping(address => mapping(address => struct DepositRecord))",
                        "value": {
                            "pairs": [
                                {
                                    "key": "0x3ea0cb94ca0154639c38809f2835be9308e8fbee",
                                    "value": {
                                        "pairs": [
                                            {
                                                "key": "0xcd5fe23c85820f7b72d0926fc9b05b43e359b7ee",
                                                "value": {
                                                    "fields": [
                                                        {
                                                            "name": "balance",
                                                            "type": "uint240",
                                                            "value": {
                                                                "current": "3911760413476475",
                                                                "prev": "0",
                                                                "typeTag": 1
                                                            }
                                                        },
                                                        {
                                                            "name": "depositParam",
                                                            "type": "uint16",
                                                            "value": {
                                                                "current": "0",
                                                                "prev": "0",
                                                                "typeTag": 1
                                                            }
                                                        }
                                                    ],
                                                    "typeTag": 3
                                                }
                                            }
                                        ],
                                        "typeTag": 4
                                    }
                                }
                            ],
                            "typeTag": 4
                        }
                    }
                ]
            },
            {
                "address": "0xcd5fe23c85820f7b72d0926fc9b05b43e359b7ee",
                "erc": "ERC-20",
                "slots": [
                    {
                        "current": "0x0000000000000000000000000000000000000000000000000000000000000000",
                        "key": "0xb9043fc6c8909402395e396a3b941f7e445b3f95bc99dcabd362eb4682736e76",
                        "prev": "0x000000000000000000000000000000000000000000000000000de5b9b1e4467b"
                    },
                    {
                        "current": "0x0000000000000000000000000000000000000000000000000000000000000000",
                        "key": "0x6d9ee463562212d4f5ba78fb215789793869d99fff6b93e8f350a781720c9295",
                        "prev": "0x000000000000000000000000000000000000000000000000000de5b9b1e4467b"
                    },
                    {
                        "current": "0x000000000000000000000000000000000000000000000090827d74fc2658795f",
                        "key": "0x761d929584db481a54aa927f62197cb6ab78cb929b090774f1ce3c631a8e8220",
                        "prev": "0x000000000000000000000000000000000000000000000090826f8f42747432e4"
                    }
                ],
                "storageVariables": [
                    {
                        "name": "_allowances",
                        "type": "mapping(address => mapping(address => uint256))",
                        "value": {
                            "pairs": [
                                {
                                    "key": "0x3ea0cb94ca0154639c38809f2835be9308e8fbee",
                                    "value": {
                                        "pairs": [
                                            {
                                                "key": "0x19b5cc75846bf6286d599ec116536a333c4c2c14",
                                                "value": {
                                                    "current": "0",
                                                    "prev": "3911760413476475",
                                                    "typeTag": 1
                                                }
                                            }
                                        ],
                                        "typeTag": 4
                                    }
                                }
                            ],
                            "typeTag": 4
                        }
                    },
                    {
                        "name": "_balances",
                        "type": "mapping(address => uint256)",
                        "value": {
                            "pairs": [
                                {
                                    "key": "0x19b5cc75846bf6286d599ec116536a333c4c2c14",
                                    "value": {
                                        "current": "2665733946837518809439",
                                        "prev": "2665730035077105332964",
                                        "typeTag": 1
                                    }
                                },
                                {
                                    "key": "0x3ea0cb94ca0154639c38809f2835be9308e8fbee",
                                    "value": {
                                        "current": "0",
                                        "prev": "3911760413476475",
                                        "typeTag": 1
                                    }
                                }
                            ],
                            "typeTag": 4
                        }
                    }
                ]
            }
        ]
    }
}