{
    "balance_change": {
        "balanceChanges": [
            {
                "account": "0xfbb1b73c4f0bda4f67dca266ce6ef42f520fbb98",
                "assets": [
                    {
                        "address": "0xdac17f958d2ee523a2206206994597c13d831ec7",
                        "amount": "2,533.3572",
                        "iconUrl": "https://assets.blocksec.com/icon/fcea71f3193ce895be44bfdf941f7e4c9381dd587f273c2d1a27f1263d84e4ea.png",
                        "isERC1155": false,
                        "isERC721": false,
                        "sign": true,
                        "value": ""
                    }
                ]
            },
            {
                "account": "0xb0048192b518c907be6fd6bb723988b3144f377f",
                "assets": [
                    {
                        "address": "0xdac17f958d2ee523a2206206994597c13d831ec7",
                        "amount": "2,533.3572",
                        "iconUrl": "https://assets.blocksec.com/icon/fcea71f3193ce895be44bfdf941f7e4c9381dd587f273c2d1a27f1263d84e4ea.png",
                        "isERC1155": false,
                        "isERC721": false,
                        "sign": false,
                        "value": ""
                    }
                ]
            }
        ]
    },
    "profile": {
        "basic_info": {
            "baseFee": "56.671186857",
            "blockNumber": 14703767,
            "callData": "0x6ea056a9000000000000000000000000dac17f958d2ee523a2206206994597c13d831ec70000000000000000000000000000000000000000000000000000000096fff690",
            "debugEnable": true,
            "errorInfo": "",
            "eventCount": 2,
            "feeRecipient": "0x829bd824b016326a401d083b33d092293333a830",
            "formatValue": "0",
            "gasLimit": 150000,
            "gasPrice": "69.79109629",
            "gasUsed": 74287,
            "intTxnCount": 9,
            "internalRevert": false,
            "internalRevertMessage": "",
            "isContractCreation": false,
            "isFlashloan": false,
            "maxFee": "",
            "nonce": 11017022,
            "overwritedBlockNumber": -1,
            "priorityFee": "",
            "receiver": "0xb0048192b518c907be6fd6bb723988b3144f377f",
            "revertMessage": "",
            "sender": "0xfbb1b73c4f0bda4f67dca266ce6ef42f520fbb98",
            "simulationEnable": true,
            "sourceTxnHash": "0x8a635b938d210f107bfabaf975ec1cc04ef0c42587e5dd07a4a15b09d4f5272c",
            "status": true,
            "timestamp": "2022-05-03T09:06:45Z",
            "transactionFee": "0.00518457117009523",
            "txnHash": "0x8a635b938d210f107bfabaf975ec1cc04ef0c42587e5dd07a4a15b09d4f5272c",
            "txnIndex": 9,
            "type": 0,
            "value": "0"
        },
        "fund_flow": [
            {
                "amount": "2,533.3572",
                "from": "0xb0048192b518c907be6fd6bb723988b3144f377f",
                "id": 1,
                "isERC1155": false,
                "isERC721": false,
                "isReverted": false,
                "order": 1,
                "to": "0xfbb1b73c4f0bda4f67dca266ce6ef42f520fbb98",
                "token": "0xdac17f958d2ee523a2206206994597c13d831ec7"
            }
        ],
        "token_infos": [
            {
                "address": "0xc02aaa39b223fe8d0a0e5c4f27ead9083c756cc2",
                "decimals": 18
            },
            {
                "address": "0xdac17f958d2ee523a2206206994597c13d831ec7",
                "decimals": 6
            },
            {
                "address": "0xeeeeeeeeeeeeeeeeeeeeeeeeeeeeeeeeeeeeeeee",
                "decimals": 18
            }
        ]
    },
    "address_label": {
        "labels": [
            {
                "address": "0x0000000000000000000000000000000000000002",
                "label": "Precompiled"
            },
            {
                "address": "0x0000000000000000000000000000000000000003",
                "label": "Precompiled"
            },
            {
                "address": "0x0000000000000000000000000000000000000004",
                "label": "Precompiled"
            },
            {
                "address": "0xeeeeeeeeeeeeeeeeeeeeeeeeeeeeeeeeeeeeeeee",
                "label": "Ether"
            },
            {
                "address": "0xfbb1b73c4f0bda4f67dca266ce6ef42f520fbb98",
                "label": "Bittrex"
            },
            {
                "address": "0x6cace0528324a8afc2b157ceba3cdd2a27c4e21f",
                "label": "Bittrex: Wallet Maker"
            },
            {
                "address": "0xb2233fcec42c588ee71a594d9a25aa695345426c",
                "label": "DefaultSweeper"
            },
            {
                "address": "0xb0048192b518c907be6fd6bb723988b3144f377f",
                "label": "BITTREX"
            },
            {
                "address": "0xdac17f958d2ee523a2206206994597c13d831ec7",
                "label": "Tether: USDT Stablecoin"
            },
            {
                "address": "0xa3c1e324ca1ce40db73ed6026c4a177f099b5770",
                "label": "Bittrex: Controller"
            },
            {
                "address": "0x0000000000000000000000000000000000000001",
                "label": "Precompiled"
            }
        ]
    },
    "trace": {
        "accountLabels": null,
        "dataMap": {
            "-1": {
                "invocation": {
                    "address": "0xfbb1b73c4f0bda4f67dca266ce6ef42f520fbb98",
                    "callData": "",
                    "decodedMethod": null,
                    "errorInfo": "",
                    "fromAddress": "",
                    "gasUsed": 0,
                    "id": -1,
                    "methodDecoded": false,
                    "operation": "",
                    "output": "",
                    "revert": false,
                    "revertMessage": "",
                    "selector": "",
                    "status": false,
                    "value": ""
                },
                "nodeType": 0
            },
            "0": {
                "invocation": {
                    "address": "0xb0048192b518c907be6fd6bb723988b3144f377f",
                    "callData": "0x000000000000000000000000dac17f958d2ee523a2206206994597c13d831ec70000000000000000000000000000000000000000000000000000000096fff690",
                    "decodedMethod": {
                        "callParams": [
                            {
                                "name": "_token",
                                "type": "address",
                                "value": "0xdac17f958d2ee523a2206206994597c13d831ec7"
                            },
                            {
                                "name": "_amount",
                                "type": "uint256",
                                "value": "2,533,357,200"
                            }
                        ],
                        "constructorArguments": "",
                        "name": "sweep",
                        "returnParams": [
                            {
                                "name": "",
                                "type": "bool",
                                "value": true
                            }
                        ],
                        "signature": "sweep(address,uint256)"
                    },
                    "errorInfo": "",
                    "fromAddress": "0xfbb1b73c4f0bda4f67dca266ce6ef42f520fbb98",
                    "gasUsed": 74287,
                    "id": 0,
                    "methodDecoded": true,
                    "operation": "CALL",
                    "output": "0x0000000000000000000000000000000000000000000000000000000000000001",
                    "revert": false,
                    "revertMessage": "",
                    "selector": "0x6ea056a9",
                    "status": true,
                    "value": "0"
                },
                "nodeType": 0
            },
            "1": {
                "invocation": {
                    "address": "0xa3c1e324ca1ce40db73ed6026c4a177f099b5770",
                    "callData": "0x000000000000000000000000dac17f958d2ee523a2206206994597c13d831ec7",
                    "decodedMethod": {
                        "callParams": [
                            {
                                "name": "_token",
                                "type": "address",
                                "value": "0xdac17f958d2ee523a2206206994597c13d831ec7"
                            }
                        ],
                        "constructorArguments": "",
                        "name": "sweeperOf",
                        "returnParams": [
                            {
                                "name": "",
                                "type": "address",
                                "value": "0xb2233fcec42c588ee71a594d9a25aa695345426c"
                            }
                        ],
                        "signature": "sweeperOf(address)"
                    },
                    "errorInfo": "",
                    "fromAddress": "0xb0048192b518c907be6fd6bb723988b3144f377f",
                    "gasUsed": 4851,
                    "id": 1,
                    "methodDecoded": true,
                    "operation": "CALL",
                    "output": "0x000000000000000000000000b2233fcec42c588ee71a594d9a25aa695345426c",
                    "revert": false,
                    "revertMessage": "",
                    "selector": "0x3c18d318",
                    "status": true,
                    "value": "0"
                },
                "nodeType": 0
            },
            "10": {
                "invocation": {
                    "address": "0xa3c1e324ca1ce40db73ed6026c4a177f099b5770",
                    "callData": "0x000000000000000000000000b0048192b518c907be6fd6bb723988b3144f377f000000000000000000000000fbb1b73c4f0bda4f67dca266ce6ef42f520fbb98000000000000000000000000dac17f958d2ee523a2206206994597c13d831ec70000000000000000000000000000000000000000000000000000000096fff690",
                    "decodedMethod": {
                        "callParams": [
                            {
                                "name": "from",
                                "type": "address",
                                "value": "0xb0048192b518c907be6fd6bb723988b3144f377f"
                            },
                            {
                                "name": "to",
                                "type": "address",
                                "value": "0xfbb1b73c4f0bda4f67dca266ce6ef42f520fbb98"
                            },
                            {
                                "name": "token",
                                "type": "address",
                                "value": "0xdac17f958d2ee523a2206206994597c13d831ec7"
                            },
                            {
                                "name": "amount",
                                "type": "uint256",
                                "value": "2,533,357,200"
                            }
                        ],
                        "constructorArguments": "",
                        "name": "logSweep",
                        "returnParams": [],
                        "signature": "logSweep(address,address,address,uint256)"
                    },
                    "errorInfo": "",
                    "fromAddress": "0xb0048192b518c907be6fd6bb723988b3144f377f",
                    "gasUsed": 2693,
                    "id": 10,
                    "methodDecoded": true,
                    "operation": "CALL",
                    "output": "",
                    "revert": false,
                    "revertMessage": "",
                    "selector": "0x28090abb",
                    "status": true,
                    "value": "0"
                },
                "nodeType": 0
            },
            "11": {
                "event": {
                    "contract": "0xa3c1e324ca1ce40db73ed6026c4a177f099b5770",
                    "decodedLog": {
                        "name": "LogSweep",
                        "params": [
                            {
                                "name": "from",
                                "type": "address",
                                "value": "0xb0048192b518c907be6fd6bb723988b3144f377f"
                            },
                            {
                                "name": "to",
                                "type": "address",
                                "value": "0xfbb1b73c4f0bda4f67dca266ce6ef42f520fbb98"
                            },
                            {
                                "name": "token",
                                "type": "address",
                                "value": "0xdac17f958d2ee523a2206206994597c13d831ec7"
                            },
                            {
                                "name": "amount",
                                "type": "uint256",
                                "value": "2,533,357,200"
                            }
                        ],
                        "signature": "LogSweep(address,address,address,uint256)"
                    },
                    "id": 11,
                    "logData": "0x0000000000000000000000000000000000000000000000000000000096fff690",
                    "logDecoded": true,
                    "operation": "EVENT",
                    "revert": false,
                    "status": true,
                    "topics": [
                        "0xa64da754fccf55aa65a1f0128a648633fade3884b236e879ee9f64c78df5d5d7",
                        "0x000000000000000000000000b0048192b518c907be6fd6bb723988b3144f377f",
                        "0x000000000000000000000000fbb1b73c4f0bda4f67dca266ce6ef42f520fbb98",
                        "0x000000000000000000000000dac17f958d2ee523a2206206994597c13d831ec7"
                    ]
                },
                "nodeType": 1
            },
            "2": {
                "invocation": {
                    "address": "0xb2233fcec42c588ee71a594d9a25aa695345426c",
                    "callData": "0x000000000000000000000000dac17f958d2ee523a2206206994597c13d831ec70000000000000000000000000000000000000000000000000000000096fff690",
                    "decodedMethod": {
                        "callParams": [
                            {
                                "name": "_token",
                                "type": "address",
                                "value": "0xdac17f958d2ee523a2206206994597c13d831ec7"
                            },
                            {
                                "name": "_amount",
                                "type": "uint256",
                                "value": "2,533,357,200"
                            }
                        ],
                        "constructorArguments": "",
                        "name": "sweep",
                        "returnParams": [
                            {
                                "name": "",
                                "type": "bool",
                                "value": true
                            }
                        ],
                        "signature": "sweep(address,uint256)"
                    },
                    "errorInfo": "",
                    "fromAddress": "0xb0048192b518c907be6fd6bb723988b3144f377f",
                    "gasUsed": 44648,
                    "id": 2,
                    "methodDecoded": true,
                    "operation": "DELEGATECALL",
                    "output": "0x0000000000000000000000000000000000000000000000000000000000000001",
                    "revert": false,
                    "revertMessage": "",
                    "selector": "0x6ea056a9",
                    "status": true,
                    "value": "0"
                },
                "nodeType": 0
            },
            "3": {
                "invocation": {
                    "address": "0xa3c1e324ca1ce40db73ed6026c4a177f099b5770",
                    "callData": "0x",
                    "decodedMethod": {
                        "callParams": [],
                        "constructorArguments": "",
                        "name": "authorizedCaller",
                        "returnParams": [
                            {
                                "name": "",
                                "type": "address",
                                "value": "0x6cace0528324a8afc2b157ceba3cdd2a27c4e21f"
                            }
                        ],
                        "signature": "authorizedCaller()"
                    },
                    "errorInfo": "",
                    "fromAddress": "0xb0048192b518c907be6fd6bb723988b3144f377f",
                    "gasUsed": 2602,
                    "id": 3,
                    "methodDecoded": true,
                    "operation": "CALL",
                    "output": "0x0000000000000000000000006cace0528324a8afc2b157ceba3cdd2a27c4e21f",
                    "revert": false,
                    "revertMessage": "",
                    "selector": "0x97dc97cb",
                    "status": true,
                    "value": "0"
                },
                "nodeType": 0
            },
            "4": {
                "invocation": {
                    "address": "0xa3c1e324ca1ce40db73ed6026c4a177f099b5770",
                    "callData": "0x",
                    "decodedMethod": {
                        "callParams": [],
                        "constructorArguments": "",
                        "name": "owner",
                        "returnParams": [
                            {
                                "name": "",
                                "type": "address",
                                "value": "0xfbb1b73c4f0bda4f67dca266ce6ef42f520fbb98"
                            }
                        ],
                        "signature": "owner()"
                    },
                    "errorInfo": "",
                    "fromAddress": "0xb0048192b518c907be6fd6bb723988b3144f377f",
                    "gasUsed": 2580,
                    "id": 4,
                    "methodDecoded": true,
                    "operation": "CALL",
                    "output": "0x000000000000000000000000fbb1b73c4f0bda4f67dca266ce6ef42f520fbb98",
                    "revert": false,
                    "revertMessage": "",
                    "selector": "0x8da5cb5b",
                    "status": true,
                    "value": "0"
                },
                "nodeType": 0
            },
            "5": {
                "invocation": {
                    "address": "0xa3c1e324ca1ce40db73ed6026c4a177f099b5770",
                    "callData": "0x",
                    "decodedMethod": {
                        "callParams": [],
                        "constructorArguments": "",
                        "name": "halted",
                        "returnParams": [
                            {
                                "name": "",
                                "type": "bool",
                                "value": false
                            }
                        ],
                        "signature": "halted()"
                    },
                    "errorInfo": "",
                    "fromAddress": "0xb0048192b518c907be6fd6bb723988b3144f377f",
                    "gasUsed": 2560,
                    "id": 5,
                    "methodDecoded": true,
                    "operation": "CALL",
                    "output": "0x0000000000000000000000000000000000000000000000000000000000000000",
                    "revert": false,
                    "revertMessage": "",
                    "selector": "0xb9b8af0b",
                    "status": true,
                    "value": "0"
                },
                "nodeType": 0
            },
            "6": {
                "invocation": {
                    "address": "0xa3c1e324ca1ce40db73ed6026c4a177f099b5770",
                    "callData": "0x",
                    "decodedMethod": {
                        "callParams": [],
                        "constructorArguments": "",
                        "name": "destination",
                        "returnParams": [
                            {
                                "name": "",
                                "type": "address",
                                "value": "0xfbb1b73c4f0bda4f67dca266ce6ef42f520fbb98"
                            }
                        ],
                        "signature": "destination()"
                    },
                    "errorInfo": "",
                    "fromAddress": "0xb0048192b518c907be6fd6bb723988b3144f377f",
                    "gasUsed": 668,
                    "id": 6,
                    "methodDecoded": true,
                    "operation": "CALL",
                    "output": "0x000000000000000000000000fbb1b73c4f0bda4f67dca266ce6ef42f520fbb98",
                    "revert": false,
                    "revertMessage": "",
                    "selector": "0xb269681d",
                    "status": true,
                    "value": "0"
                },
                "nodeType": 0
            },
            "7": {
                "invocation": {
                    "address": "0xdac17f958d2ee523a2206206994597c13d831ec7",
                    "callData": "0x000000000000000000000000b0048192b518c907be6fd6bb723988b3144f377f",
                    "decodedMethod": {
                        "callParams": [
                            {
                                "name": "who",
                                "type": "address",
                                "value": "0xb0048192b518c907be6fd6bb723988b3144f377f"
                            }
                        ],
                        "constructorArguments": "",
                        "name": "balanceOf",
                        "returnParams": [
                            {
                                "decimalAvailable": true,
                                "name": "",
                                "type": "uint256",
                                "value": "2,533,357,200"
                            }
                        ],
                        "signature": "balanceOf(address)"
                    },
                    "errorInfo": "",
                    "fromAddress": "0xb0048192b518c907be6fd6bb723988b3144f377f",
                    "gasUsed": 5031,
                    "id": 7,
                    "methodDecoded": true,
                    "operation": "CALL",
                    "output": "0x0000000000000000000000000000000000000000000000000000000096fff690",
                    "revert": false,
                    "revertMessage": "",
                    "selector": "0x70a08231",
                    "status": true,
                    "value": "0"
                },
                "nodeType": 0
            },
            "8": {
                "invocation": {
                    "address": "0xdac17f958d2ee523a2206206994597c13d831ec7",
                    "callData": "0x000000000000000000000000fbb1b73c4f0bda4f67dca266ce6ef42f520fbb980000000000000000000000000000000000000000000000000000000096fff690",
                    "decodedMethod": {
                        "callParams": [
                            {
                                "name": "_to",
                                "type": "address",
                                "value": "0xfbb1b73c4f0bda4f67dca266ce6ef42f520fbb98"
                            },
                            {
                                "decimalAvailable": true,
                                "name": "_value",
                                "type": "uint256",
                                "value": "2,533,357,200"
                            }
                        ],
                        "constructorArguments": "",
                        "name": "transfer",
                        "returnParams": [],
                        "signature": "transfer(address,uint256)"
                    },
                    "errorInfo": "",
                    "fromAddress": "0xb0048192b518c907be6fd6bb723988b3144f377f",
                    "gasUsed": 20501,
                    "id": 8,
                    "methodDecoded": true,
                    "operation": "CALL",
                    "output": "",
                    "revert": false,
                    "revertMessage": "",
                    "selector": "0xa9059cbb",
                    "status": true,
                    "value": "0"
                },
                "nodeType": 0
            },
            "9": {
                "event": {
                    "contract": "0xdac17f958d2ee523a2206206994597c13d831ec7",
                    "decodedLog": {
                        "name": "Transfer",
                        "params": [
                            {
                                "name": "from",
                                "type": "address",
                                "value": "0xb0048192b518c907be6fd6bb723988b3144f377f"
                            },
                            {
                                "name": "to",
                                "type": "address",
                                "value": "0xfbb1b73c4f0bda4f67dca266ce6ef42f520fbb98"
                            },
                            {
                                "decimalAvailable": true,
                                "name": "value",
                                "type": "uint256",
                                "value": "2,533,357,200"
                            }
                        ],
                        "signature": "Transfer(address,address,uint256)"
                    },
                    "id": 9,
                    "logData": "0x0000000000000000000000000000000000000000000000000000000096fff690",
                    "logDecoded": true,
                    "operation": "EVENT",
                    "revert": false,
                    "status": true,
                    "topics": [
                        "0xddf252ad1be2c89b69c2b068fc378daa952ba7f163c4a11628f55a4df523b3ef",
                        "0x000000000000000000000000b0048192b518c907be6fd6bb723988b3144f377f",
                        "0x000000000000000000000000fbb1b73c4f0bda4f67dca266ce6ef42f520fbb98"
                    ]
                },
                "nodeType": 1
            }
        },
        "gasFlame": [
            {
                "children": [
                    {
                        "children": [
                            {
                                "children": [],
                                "depth": 0,
                                "name": "Initial Gas",
                                "value": 21608
                            },
                            {
                                "children": [
                                    {
                                        "children": [],
                                        "depth": 1,
                                        "name": "sweeperOf",
                                        "value": 4851
                                    },
                                    {
                                        "children": [
                                            {
                                                "children": [],
                                                "depth": 2,
                                                "name": "authorizedCaller",
                                                "value": 2602
                                            },
                                            {
                                                "children": [],
                                                "depth": 2,
                                                "name": "owner",
                                                "value": 2580
                                            },
                                            {
                                                "children": [],
                                                "depth": 2,
                                                "name": "halted",
                                                "value": 2560
                                            },
                                            {
                                                "children": [],
                                                "depth": 2,
                                                "name": "destination",
                                                "value": 668
                                            },
                                            {
                                                "children": [],
                                                "depth": 2,
                                                "name": "balanceOf",
                                                "value": 5031
                                            },
                                            {
                                                "children": [],
                                                "depth": 2,
                                                "name": "transfer",
                                                "value": 20501
                                            },
                                            {
                                                "children": [],
                                                "depth": 2,
                                                "name": "logSweep",
                                                "value": 2693
                                            }
                                        ],
                                        "depth": 1,
                                        "name": "sweep",
                                        "value": 44648
                                    }
                                ],
                                "depth": 0,
                                "name": "Executed Gas",
                                "value": 57479
                            }
                        ],
                        "depth": -1,
                        "name": "Actual Gas Used",
                        "value": 74287
                    },
                    {
                        "children": [],
                        "depth": -1,
                        "name": "Refunded Gas",
                        "value": 4800
                    }
                ],
                "depth": -2,
                "name": "Total Gas",
                "value": 79087
            }
        ],
        "isConfirmed": true,
        "mainTrace": [
            {
                "children": [
                    {
                        "children": [
                            {
                                "children": [],
                                "depth": 1,
                                "id": 1,
                                "order": 1
                            },
                            {
                                "children": [
                                    {
                                        "children": [],
                                        "depth": 2,
                                        "id": 3,
                                        "order": 3
                                    },
                                    {
                                        "children": [],
                                        "depth": 2,
                                        "id": 4,
                                        "order": 4
                                    },
                                    {
                                        "children": [],
                                        "depth": 2,
                                        "id": 5,
                                        "order": 5
                                    },
                                    {
                                        "children": [],
                                        "depth": 2,
                                        "id": 6,
                                        "order": 6
                                    },
                                    {
                                        "children": [],
                                        "depth": 2,
                                        "id": 7,
                                        "order": 7
                                    },
                                    {
                                        "children": [
                                            {
                                                "children": [],
                                                "depth": 3,
                                                "id": 9,
                                                "order": 9
                                            }
                                        ],
                                        "depth": 2,
                                        "id": 8,
                                        "order": 8
                                    },
                                    {
                                        "children": [
                                            {
                                                "children": [],
                                                "depth": 3,
                                                "id": 11,
                                                "order": 11
                                            }
                                        ],
                                        "depth": 2,
                                        "id": 10,
                                        "order": 10
                                    }
                                ],
                                "depth": 1,
                                "id": 2,
                                "order": 2
                            }
                        ],
                        "depth": 0,
                        "id": 0,
                        "order": 0
                    }
                ],
                "depth": -1,
                "id": -1,
                "order": -1
            }
        ],
        "mainTraceNodeCount": 12,
        "parentIdMap": {
            "0": -1,
            "1": 0,
            "10": 2,
            "11": 10,
            "2": 0,
            "3": 2,
            "4": 2,
            "5": 2,
            "6": 2,
            "7": 2,
            "8": 2,
            "9": 8
        },
        "tidyTrace": [
            {
                "children": [
                    {
                        "children": [
                            {
                                "children": [],
                                "depth": 1,
                                "id": 1,
                                "order": 1
                            },
                            {
                                "children": [
                                    {
                                        "children": [],
                                        "depth": 2,
                                        "id": 3,
                                        "order": 3
                                    },
                                    {
                                        "children": [],
                                        "depth": 2,
                                        "id": 4,
                                        "order": 4
                                    },
                                    {
                                        "children": [],
                                        "depth": 2,
                                        "id": 5,
                                        "order": 5
                                    },
                                    {
                                        "children": [],
                                        "depth": 2,
                                        "id": 6,
                                        "order": 6
                                    },
                                    {
                                        "children": [],
                                        "depth": 2,
                                        "id": 7,
                                        "order": 7
                                    },
                                    {
                                        "children": [
                                            {
                                                "children": [],
                                                "depth": 3,
                                                "id": 9,
                                                "order": 9
                                            }
                                        ],
                                        "depth": 2,
                                        "id": 8,
                                        "order": 8
                                    },
                                    {
                                        "children": [
                                            {
                                                "children": [],
                                                "depth": 3,
                                                "id": 11,
                                                "order": 11
                                            }
                                        ],
                                        "depth": 2,
                                        "id": 10,
                                        "order": 10
                                    }
                                ],
                                "depth": 1,
                                "id": 2,
                                "order": 2
                            }
                        ],
                        "depth": 0,
                        "id": 0,
                        "order": 0
                    }
                ],
                "depth": -1,
                "id": -1,
                "order": -1
            }
        ],
        "tidyTraceNodeCount": 12
    },
    "state_change": {
        "stateChanges": [
            {
                "address": "0xdac17f958d2ee523a2206206994597c13d831ec7",
                "erc": "ERC-20",
                "slots": [
                    {
                        "current": "0x0000000000000000000000000000000000000000000000000000000000000000",
                        "key": "0x87ae390e9458b97f5b815ce3439678a44591affd1e23536a531e46d97a70e567",
                        "prev": "0x0000000000000000000000000000000000000000000000000000000096fff690"
                    },
                    {
                        "current": "0x00000000000000000000000000000000000000000000000000000dcfeed9b02e",
                        "key": "0x47e042d1d8892c3d1d92e3b03086ad3b215d49c6e00cb5495cd5c645f95021c9",
                        "prev": "0x00000000000000000000000000000000000000000000000000000dcf57d9b99e"
                    }
                ],
                "storageVariables": [
                    {
                        "name": "balances",
                        "type": "mapping(address => uint256)",
                        "value": {
                            "pairs": [
                                {
                                    "key": "0xb0048192b518c907be6fd6bb723988b3144f377f",
                                    "value": {
                                        "current": "0",
                                        "prev": "2533357200",
                                        "typeTag": 1
                                    }
                                },
                                {
                                    "key": "0xfbb1b73c4f0bda4f67dca266ce6ef42f520fbb98",
                                    "value": {
                                        "current": "15186716635182",
                                        "prev": "15184183277982",
                                        "typeTag": 1
                                    }
                                }
                            ],
                            "typeTag": 4
                        }
                    }
                ]
            }
        ]
    }
}