{
    "balance_change": {
        "balanceChanges": [
            {
                "account": "0x23a3ac659ec27e08641b4bfa3ee4e276a2eb7fa6",
                "assets": [
                    {
                        "address": "0xdac17f958d2ee523a2206206994597c13d831ec7",
                        "amount": "42",
                        "iconUrl": "https://assets.blocksec.com/icon/fcea71f3193ce895be44bfdf941f7e4c9381dd587f273c2d1a27f1263d84e4ea.png",
                        "isERC1155": false,
                        "isERC721": false,
                        "sign": false,
                        "value": "41.979000000000002313"
                    }
                ]
            },
            {
                "account": "0x4201a38615ec7d1f57df6143e7a7ed82dd7a8ee4",
                "assets": [
                    {
                        "address": "0xdac17f958d2ee523a2206206994597c13d831ec7",
                        "amount": "42",
                        "iconUrl": "https://assets.blocksec.com/icon/fcea71f3193ce895be44bfdf941f7e4c9381dd587f273c2d1a27f1263d84e4ea.png",
                        "isERC1155": false,
                        "isERC721": false,
                        "sign": true,
                        "value": "41.979000000000002313"
                    }
                ]
            }
        ]
    },
    "profile": {
        "basic_info": {
            "baseFee": "10.371838776",
            "blockNumber": 19868285,
            "callData": "0x23b872dd00000000000000000000000023a3ac659ec27e08641b4bfa3ee4e276a2eb7fa60000000000000000000000004201a38615ec7d1f57df6143e7a7ed82dd7a8ee4000000000000000000000000000000000000000000000000000000000280de80",
            "debugEnable": true,
            "errorInfo": "",
            "eventCount": 1,
            "feeRecipient": "0x1f9090aae28b8a3dceadf281b0f12828e676c326",
            "formatValue": "0",
            "gasLimit": 261372,
            "gasPrice": "10.379606818",
            "gasUsed": 43706,
            "intTxnCount": 0,
            "internalRevert": false,
            "internalRevertMessage": "",
            "isContractCreation": false,
            "isFlashloan": false,
            "maxFee": "19.297143932",
            "nonce": 6779,
            "overwritedBlockNumber": -1,
            "priorityFee": "0.007768042",
            "receiver": "0xdac17f958d2ee523a2206206994597c13d831ec7",
            "revertMessage": "",
            "sender": "0xe9c8c97ee34dca7d80b76cc9906106cc50059d2d",
            "simulationEnable": true,
            "sourceTxnHash": "0x8a6b72173c96e2fb8b7f20b0236750b4633c3a72693daf6d1cec2befb7ae78de",
            "status": true,
            "timestamp": "2024-05-14T12:36:59Z",
            "transactionFee": "0.000453651095587508",
            "txnHash": "0x8a6b72173c96e2fb8b7f20b0236750b4633c3a72693daf6d1cec2befb7ae78de",
            "txnIndex": 124,
            "type": 2,
            "value": "0"
        },
        "fund_flow": [
            {
                "amount": "42",
                "from": "0x23a3ac659ec27e08641b4bfa3ee4e276a2eb7fa6",
                "id": 1,
                "isERC1155": false,
                "isERC721": false,
                "isReverted": false,
                "order": 1,
                "to": "0x4201a38615ec7d1f57df6143e7a7ed82dd7a8ee4",
                "token": "0xdac17f958d2ee523a2206206994597c13d831ec7"
            }
        ],
        "token_infos": [
            {
                "address": "0xc02aaa39b223fe8d0a0e5c4f27ead9083c756cc2",
                "decimals": 18
            },
            {
                "address": "0xdac17f958d2ee523a2206206994597c13d831ec7",
                "decimals": 6
            },
            {
                "address": "0xeeeeeeeeeeeeeeeeeeeeeeeeeeeeeeeeeeeeeeee",
                "decimals": 18
            }
        ]
    },
    "address_label": {
        "labels": [
            {
                "address": "0x0000000000000000000000000000000000000003",
                "label": "Precompiled"
            },
            {
                "address": "0x0000000000000000000000000000000000000004",
                "label": "Precompiled"
            },
            {
                "address": "0xeeeeeeeeeeeeeeeeeeeeeeeeeeeeeeeeeeeeeeee",
                "label": "Ether"
            },
            {
                "address": "0xdac17f958d2ee523a2206206994597c13d831ec7",
                "label": "Tether: USDT Stablecoin"
            },
            {
                "address": "0x0000000000000000000000000000000000000001",
                "label": "Precompiled"
            },
            {
                "address": "0x0000000000000000000000000000000000000002",
                "label": "Precompiled"
            }
        ]
    },
    "trace": {
        "accountLabels": null,
        "dataMap": {
            "-1": {
                "invocation": {
                    "address": "0xe9c8c97ee34dca7d80b76cc9906106cc50059d2d",
                    "callData": "",
                    "decodedMethod": null,
                    "errorInfo": "",
                    "fromAddress": "",
                    "gasUsed": 0,
                    "id": -1,
                    "methodDecoded": false,
                    "operation": "",
                    "output": "",
                    "revert": false,
                    "revertMessage": "",
                    "selector": "",
                    "status": false,
                    "value": ""
                },
                "nodeType": 0
            },
            "0": {
                "invocation": {
                    "address": "0xdac17f958d2ee523a2206206994597c13d831ec7",
                    "callData": "0x00000000000000000000000023a3ac659ec27e08641b4bfa3ee4e276a2eb7fa60000000000000000000000004201a38615ec7d1f57df6143e7a7ed82dd7a8ee4000000000000000000000000000000000000000000000000000000000280de80",
                    "decodedMethod": {
                        "callParams": [
                            {
                                "name": "_from",
                                "type": "address",
                                "value": "0x23a3ac659ec27e08641b4bfa3ee4e276a2eb7fa6"
                            },
                            {
                                "name": "_to",
                                "type": "address",
                                "value": "0x4201a38615ec7d1f57df6143e7a7ed82dd7a8ee4"
                            },
                            {
                                "decimalAvailable": true,
                                "name": "_value",
                                "type": "uint256",
                                "value": "42,000,000"
                            }
                        ],
                        "constructorArguments": "",
                        "name": "transferFrom",
                        "returnParams": [],
                        "signature": "transferFrom(address,address,uint256)"
                    },
                    "errorInfo": "",
                    "fromAddress": "0xe9c8c97ee34dca7d80b76cc9906106cc50059d2d",
                    "gasUsed": 43706,
                    "id": 0,
                    "methodDecoded": true,
                    "operation": "CALL",
                    "output": "",
                    "revert": false,
                    "revertMessage": "",
                    "selector": "0x23b872dd",
                    "status": true,
                    "value": "0"
                },
                "nodeType": 0
            },
            "1": {
                "event": {
                    "contract": "0xdac17f958d2ee523a2206206994597c13d831ec7",
                    "decodedLog": {
                        "name": "Transfer",
                        "params": [
                            {
                                "name": "from",
                                "type": "address",
                                "value": "0x23a3ac659ec27e08641b4bfa3ee4e276a2eb7fa6"
                            },
                            {
                                "name": "to",
                                "type": "address",
                                "value": "0x4201a38615ec7d1f57df6143e7a7ed82dd7a8ee4"
                            },
                            {
                                "decimalAvailable": true,
                                "name": "value",
                                "type": "uint256",
                                "value": "42,000,000"
                            }
                        ],
                        "signature": "Transfer(address,address,uint256)"
                    },
                    "id": 1,
                    "logData": "0x000000000000000000000000000000000000000000000000000000000280de80",
                    "logDecoded": true,
                    "operation": "EVENT",
                    "revert": false,
                    "status": true,
                    "topics": [
                        "0xddf252ad1be2c89b69c2b068fc378daa952ba7f163c4a11628f55a4df523b3ef",
                        "0x00000000000000000000000023a3ac659ec27e08641b4bfa3ee4e276a2eb7fa6",
                        "0x0000000000000000000000004201a38615ec7d1f57df6143e7a7ed82dd7a8ee4"
                    ]
                },
                "nodeType": 1
            }
        },
        "gasFlame": [
            {
                "children": [
                    {
                        "children": [
                            {
                                "children": [],
                                "depth": 0,
                                "name": "Initial Gas",
                                "value": 21976
                            },
                            {
                                "children": [],
                                "depth": 0,
                                "name": "Executed Gas",
                                "value": 26530
                            }
                        ],
                        "depth": -1,
                        "name": "Actual Gas Used",
                        "value": 43706
                    },
                    {
                        "children": [],
                        "depth": -1,
                        "name": "Refunded Gas",
                        "value": 4800
                    }
                ],
                "depth": -2,
                "name": "Total Gas",
                "value": 48506
            }
        ],
        "isConfirmed": true,
        "mainTrace": [
            {
                "children": [
                    {
                        "children": [
                            {
                                "children": [],
                                "depth": 1,
                                "id": 1,
                                "order": 1
                            }
                        ],
                        "depth": 0,
                        "id": 0,
                        "order": 0
                    }
                ],
                "depth": -1,
                "id": -1,
                "order": -1
            }
        ],
        "mainTraceNodeCount": 2,
        "parentIdMap": {
            "0": -1,
            "1": 0
        },
        "tidyTrace": [
            {
                "children": [
                    {
                        "children": [
                            {
                                "children": [],
                                "depth": 1,
                                "id": 1,
                                "order": 1
                            }
                        ],
                        "depth": 0,
                        "id": 0,
                        "order": 0
                    }
                ],
                "depth": -1,
                "id": -1,
                "order": -1
            }
        ],
        "tidyTraceNodeCount": 2
    },
    "state_change": {
        "stateChanges": [
            {
                "address": "0xdac17f958d2ee523a2206206994597c13d831ec7",
                "erc": "ERC-20",
                "slots": [
                    {
                        "current": "0x0000000000000000000000000000000000000000000000000000000000000000",
                        "key": "0xbcd9a65fd75e0fce6c46114d9c4f15611ad4ed836b9e445142cb837d774d73db",
                        "prev": "0x000000000000000000000000000000000000000000000000000000000280de80"
                    },
                    {
                        "current": "0x00000000000000000000000000000000000000000000000000000002be52f573",
                        "key": "0x545a7058a802dae064213dcd90e2b4018096078aa39bec7f4b5c097c4984af1f",
                        "prev": "0x00000000000000000000000000000000000000000000000000000002bbd216f3"
                    }
                ],
                "storageVariables": [
                    {
                        "name": "balances",
                        "type": "mapping(address => uint256)",
                        "value": {
                            "pairs": [
                                {
                                    "key": "0x23a3ac659ec27e08641b4bfa3ee4e276a2eb7fa6",
                                    "value": {
                                        "current": "0",
                                        "prev": "42000000",
                                        "typeTag": 1
                                    }
                                },
                                {
                                    "key": "0x4201a38615ec7d1f57df6143e7a7ed82dd7a8ee4",
                                    "value": {
                                        "current": "11783042419",
                                        "prev": "11741042419",
                                        "typeTag": 1
                                    }
                                }
                            ],
                            "typeTag": 4
                        }
                    }
                ]
            }
        ]
    }
}