{
    "balance_change": {
        "balanceChanges": [
            {
                "account": "0x0b0f009c11dfb382ceae3ff4e6624ad517c194b6",
                "assets": [
                    {
                        "address": "0x4fabb145d64652a948d72533023f6e7a623c7c53",
                        "amount": "172.977955127950104523",
                        "iconUrl": "https://assets.blocksec.com/icon/44c0517505de57ba1a69e680322278ec3ff194135b5d2201c1548f2152fcc1cf.png",
                        "isERC1155": false,
                        "isERC721": false,
                        "sign": false,
                        "value": "173.15093305509998094"
                    }
                ]
            },
            {
                "account": "0xcffad3200574698b78f32232aa9d63eabd290703",
                "assets": [
                    {
                        "address": "0x4fabb145d64652a948d72533023f6e7a623c7c53",
                        "amount": "172.977955127950104523",
                        "iconUrl": "https://assets.blocksec.com/icon/44c0517505de57ba1a69e680322278ec3ff194135b5d2201c1548f2152fcc1cf.png",
                        "isERC1155": false,
                        "isERC721": false,
                        "sign": true,
                        "value": "173.15093305509998094"
                    }
                ]
            }
        ]
    },
    "profile": {
        "basic_info": {
            "baseFee": "13.170551519",
            "blockNumber": 16331781,
            "callData": "0xa9059cbb000000000000000000000000cffad3200574698b78f32232aa9d63eabd290703000000000000000000000000000000000000000000000009608d25b65eecd7cb",
            "debugEnable": true,
            "errorInfo": "",
            "eventCount": 1,
            "feeRecipient": "0x988705ee91053cad1fd7a809efd5222d31ccce79",
            "formatValue": "0",
            "gasLimit": 59434,
            "gasPrice": "19.753960718",
            "gasUsed": 44447,
            "intTxnCount": 1,
            "internalRevert": false,
            "internalRevertMessage": "",
            "isContractCreation": false,
            "isFlashloan": false,
            "maxFee": "",
            "nonce": 66,
            "overwritedBlockNumber": -1,
            "priorityFee": "",
            "receiver": "0x4fabb145d64652a948d72533023f6e7a623c7c53",
            "revertMessage": "",
            "sender": "0x0b0f009c11dfb382ceae3ff4e6624ad517c194b6",
            "simulationEnable": true,
            "sourceTxnHash": "0x8a0079f0b3a6ddaa8d3ed8e5861d1040497f021eb2cf04aeaa68c765bec2003f",
            "status": true,
            "timestamp": "2023-01-04T06:58:23Z",
            "transactionFee": "0.000878004292032946",
            "txnHash": "0x8a0079f0b3a6ddaa8d3ed8e5861d1040497f021eb2cf04aeaa68c765bec2003f",
            "txnIndex": 0,
            "type": 0,
            "value": "0"
        },
        "fund_flow": [
            {
                "amount": "172.977955127950104523",
                "from": "0x0b0f009c11dfb382ceae3ff4e6624ad517c194b6",
                "id": 1,
                "isERC1155": false,
                "isERC721": false,
                "isReverted": false,
                "order": 1,
                "to": "0xcffad3200574698b78f32232aa9d63eabd290703",
                "token": "0x4fabb145d64652a948d72533023f6e7a623c7c53"
            }
        ],
        "token_infos": [
            {
                "address": "0x4fabb145d64652a948d72533023f6e7a623c7c53",
                "decimals": 18
            },
            {
                "address": "0xc02aaa39b223fe8d0a0e5c4f27ead9083c756cc2",
                "decimals": 18
            },
            {
                "address": "0xeeeeeeeeeeeeeeeeeeeeeeeeeeeeeeeeeeeeeeee",
                "decimals": 18
            }
        ]
    },
    "address_label": {
        "labels": [
            {
                "address": "0xcffad3200574698b78f32232aa9d63eabd290703",
                "label": "Crypto.com 5"
            },
            {
                "address": "0x0000000000000000000000000000000000000001",
                "label": "Precompiled"
            },
            {
                "address": "0x0000000000000000000000000000000000000002",
                "label": "Precompiled"
            },
            {
                "address": "0x0000000000000000000000000000000000000003",
                "label": "Precompiled"
            },
            {
                "address": "0x0000000000000000000000000000000000000004",
                "label": "Precompiled"
            },
            {
                "address": "0xeeeeeeeeeeeeeeeeeeeeeeeeeeeeeeeeeeeeeeee",
                "label": "Ether"
            },
            {
                "address": "0x5864c777697bf9881220328bf2f16908c9afcd7e",
                "label": "Binance USD (BUSD)"
            },
            {
                "address": "0x4fabb145d64652a948d72533023f6e7a623c7c53",
                "label": "Paxos: BUSD Token"
            }
        ]
    },
    "trace": {
        "accountLabels": null,
        "dataMap": {
            "-1": {
                "invocation": {
                    "address": "0x0b0f009c11dfb382ceae3ff4e6624ad517c194b6",
                    "callData": "",
                    "decodedMethod": null,
                    "errorInfo": "",
                    "fromAddress": "",
                    "gasUsed": 0,
                    "id": -1,
                    "methodDecoded": false,
                    "operation": "",
                    "output": "",
                    "revert": false,
                    "revertMessage": "",
                    "selector": "",
                    "status": false,
                    "value": ""
                },
                "nodeType": 0
            },
            "0": {
                "invocation": {
                    "address": "0x4fabb145d64652a948d72533023f6e7a623c7c53",
                    "callData": "0x000000000000000000000000cffad3200574698b78f32232aa9d63eabd290703000000000000000000000000000000000000000000000009608d25b65eecd7cb",
                    "decodedMethod": {
                        "callParams": [
                            {
                                "name": "_to",
                                "type": "address",
                                "value": "0xcffad3200574698b78f32232aa9d63eabd290703"
                            },
                            {
                                "decimalAvailable": true,
                                "name": "_value",
                                "type": "uint256",
                                "value": "172,977,955,127,950,104,523"
                            }
                        ],
                        "constructorArguments": "",
                        "name": "transfer",
                        "returnParams": [
                            {
                                "name": "",
                                "type": "bool",
                                "value": true
                            }
                        ],
                        "signature": "transfer(address,uint256)"
                    },
                    "errorInfo": "",
                    "fromAddress": "0x0b0f009c11dfb382ceae3ff4e6624ad517c194b6",
                    "gasUsed": 44447,
                    "id": 0,
                    "methodDecoded": true,
                    "operation": "CALL",
                    "output": "0x0000000000000000000000000000000000000000000000000000000000000001",
                    "revert": false,
                    "revertMessage": "",
                    "selector": "0xa9059cbb",
                    "status": true,
                    "value": "0"
                },
                "nodeType": 0
            },
            "1": {
                "invocation": {
                    "address": "0x5864c777697bf9881220328bf2f16908c9afcd7e",
                    "callData": "0x000000000000000000000000cffad3200574698b78f32232aa9d63eabd290703000000000000000000000000000000000000000000000009608d25b65eecd7cb",
                    "decodedMethod": {
                        "callParams": [
                            {
                                "name": "_to",
                                "type": "address",
                                "value": "0xcffad3200574698b78f32232aa9d63eabd290703"
                            },
                            {
                                "decimalAvailable": true,
                                "name": "_value",
                                "type": "uint256",
                                "value": "172,977,955,127,950,104,523"
                            }
                        ],
                        "constructorArguments": "",
                        "name": "transfer",
                        "returnParams": [
                            {
                                "name": "",
                                "type": "bool",
                                "value": true
                            }
                        ],
                        "signature": "transfer(address,uint256)"
                    },
                    "errorInfo": "",
                    "fromAddress": "0x4fabb145d64652a948d72533023f6e7a623c7c53",
                    "gasUsed": 20297,
                    "id": 1,
                    "methodDecoded": true,
                    "operation": "DELEGATECALL",
                    "output": "0x0000000000000000000000000000000000000000000000000000000000000001",
                    "revert": false,
                    "revertMessage": "",
                    "selector": "0xa9059cbb",
                    "status": true,
                    "value": "0"
                },
                "nodeType": 0
            },
            "2": {
                "event": {
                    "contract": "0x4fabb145d64652a948d72533023f6e7a623c7c53",
                    "decodedLog": {
                        "name": "Transfer",
                        "params": [
                            {
                                "name": "from",
                                "type": "address",
                                "value": "0x0b0f009c11dfb382ceae3ff4e6624ad517c194b6"
                            },
                            {
                                "name": "to",
                                "type": "address",
                                "value": "0xcffad3200574698b78f32232aa9d63eabd290703"
                            },
                            {
                                "decimalAvailable": true,
                                "name": "value",
                                "type": "uint256",
                                "value": "172,977,955,127,950,104,523"
                            }
                        ],
                        "signature": "Transfer(address,address,uint256)"
                    },
                    "id": 2,
                    "logData": "0x000000000000000000000000000000000000000000000009608d25b65eecd7cb",
                    "logDecoded": true,
                    "operation": "EVENT",
                    "revert": false,
                    "status": true,
                    "topics": [
                        "0xddf252ad1be2c89b69c2b068fc378daa952ba7f163c4a11628f55a4df523b3ef",
                        "0x0000000000000000000000000b0f009c11dfb382ceae3ff4e6624ad517c194b6",
                        "0x000000000000000000000000cffad3200574698b78f32232aa9d63eabd290703"
                    ]
                },
                "nodeType": 1
            }
        },
        "gasFlame": [
            {
                "children": [
                    {
                        "children": [
                            {
                                "children": [],
                                "depth": 0,
                                "name": "Initial Gas",
                                "value": 21668
                            },
                            {
                                "children": [
                                    {
                                        "children": [],
                                        "depth": 1,
                                        "name": "transfer",
                                        "value": 20297
                                    }
                                ],
                                "depth": 0,
                                "name": "Executed Gas",
                                "value": 27579
                            }
                        ],
                        "depth": -1,
                        "name": "Actual Gas Used",
                        "value": 44447
                    },
                    {
                        "children": [],
                        "depth": -1,
                        "name": "Refunded Gas",
                        "value": 4800
                    }
                ],
                "depth": -2,
                "name": "Total Gas",
                "value": 49247
            }
        ],
        "isConfirmed": true,
        "mainTrace": [
            {
                "children": [
                    {
                        "children": [
                            {
                                "children": [
                                    {
                                        "children": [],
                                        "depth": 2,
                                        "id": 2,
                                        "order": 2
                                    }
                                ],
                                "depth": 1,
                                "id": 1,
                                "order": 1
                            }
                        ],
                        "depth": 0,
                        "id": 0,
                        "order": 0
                    }
                ],
                "depth": -1,
                "id": -1,
                "order": -1
            }
        ],
        "mainTraceNodeCount": 3,
        "parentIdMap": {
            "0": -1,
            "1": 0,
            "2": 1
        },
        "tidyTrace": [
            {
                "children": [
                    {
                        "children": [
                            {
                                "children": [
                                    {
                                        "children": [],
                                        "depth": 2,
                                        "id": 2,
                                        "order": 2
                                    }
                                ],
                                "depth": 1,
                                "id": 1,
                                "order": 1
                            }
                        ],
                        "depth": 0,
                        "id": 0,
                        "order": 0
                    }
                ],
                "depth": -1,
                "id": -1,
                "order": -1
            }
        ],
        "tidyTraceNodeCount": 3
    },
    "state_change": {
        "stateChanges": [
            {
                "address": "0x4fabb145d64652a948d72533023f6e7a623c7c53",
                "erc": "ERC-20",
                "slots": [
                    {
                        "current": "0x0000000000000000000000000000000000000000000000000000000000000000",
                        "key": "0x250c145cf0443675ed3f6127f007cbff760e64141cbb4107fd397f0bfe75471a",
                        "prev": "0x000000000000000000000000000000000000000000000009608d25b65eecd7cb"
                    },
                    {
                        "current": "0x00000000000000000000000000000000000000000011f6ca5fa0af9ed93922a1",
                        "key": "0x8e26670ca4e1dd0af1a7021aadd67acd19262a49b33755e2a79ba658400ab4d6",
                        "prev": "0x00000000000000000000000000000000000000000011f6c0ff1389e87a4c4ad6"
                    }
                ],
                "storageVariables": [
                    {
                        "name": "balances",
                        "type": "mapping(address => uint256)",
                        "value": {
                            "pairs": [
                                {
                                    "key": "0x0b0f009c11dfb382ceae3ff4e6624ad517c194b6",
                                    "value": {
                                        "current": "0",
                                        "prev": "172977955127950104523",
                                        "typeTag": 1
                                    }
                                },
                                {
                                    "key": "0xcffad3200574698b78f32232aa9d63eabd290703",
                                    "value": {
                                        "current": "21717174221238044682953377",
                                        "prev": "21717001243282916732848854",
                                        "typeTag": 1
                                    }
                                }
                            ],
                            "typeTag": 4
                        }
                    }
                ]
            }
        ]
    }
}