{
    "balance_change": {
        "balanceChanges": []
    },
    "profile": {
        "basic_info": {
            "baseFee": "",
            "blockNumber": 5709454,
            "callData": "0xef343588000000000000000000000000000000000000000000000000074704269d0855a00000000000000000000000000000000000000000000000cb3dcae5d58cbb140000000000000000000000000000000000000000000000000000000000000186a00000000000000000000000000000000000000000000000000000000000012567000000000000000000000000000000000000000000000000074704269d0855a0000000000000000000000000000000000000000000000000000000000000002f00000000000000000000000000000000000000000000000000038d7ea4c680000000000000000000000000000000000000000000000000000029a85128188b330000000000000000000000000000000000000000000000000000000000000000000000000000000000000000d8950fdeaa10304b7a7fd03a2fc66bc39f3c711a00000000000000000000000033b7724213bb0cb120b917322cedd15132a792fa000000000000000000000000bb15d49ffab5eb3a8948dffab171da53921e1228000000000000000000000000000000000000000000000000000000000000001b000000000000000000000000000000000000000000000000000000000000001c72dc03c664671aa92477a355f3bb43cfcbd5f68dbbe65df829a47a4767c42dfe59837ac1c970ee4bcbc53a6fd3fe87d9d25e9fa1ddc17bfc5f11cbc4699ccaf4ad0c867383c18aa16d2e5da818d3a4ddc63b156e137f85d48476c21e352f8672711391e635625d069895ea23f099db734b1ce1a8662baa5bf0c6d93c0e175581",
            "debugEnable": true,
            "errorInfo": "",
            "eventCount": 0,
            "feeRecipient": "0x829bd824b016326a401d083b33d092293333a830",
            "formatValue": "0",
            "gasLimit": 210000,
            "gasPrice": "30",
            "gasUsed": 142836,
            "intTxnCount": 2,
            "internalRevert": false,
            "internalRevertMessage": "",
            "isContractCreation": false,
            "isFlashloan": false,
            "maxFee": "",
            "nonce": 28342,
            "overwritedBlockNumber": -1,
            "priorityFee": "",
            "receiver": "0x2a0c0dbecc7e4d658f48e01e3fa353f44050c208",
            "revertMessage": "",
            "sender": "0xa7a7899d944fe658c4b0a1803bab2f490bd3849e",
            "simulationEnable": true,
            "sourceTxnHash": "0x8a1d4a50b4f3eb180b03674f5701c29bbf93b3178fe9c1871b477dcd8efa1d92",
            "status": true,
            "timestamp": "2018-05-31T17:33:33Z",
            "transactionFee": "0.00428508",
            "txnHash": "0x8a1d4a50b4f3eb180b03674f5701c29bbf93b3178fe9c1871b477dcd8efa1d92",
            "txnIndex": 53,
            "type": 0,
            "value": "0"
        },
        "fund_flow": [],
        "token_infos": [
            {
                "address": "0xc02aaa39b223fe8d0a0e5c4f27ead9083c756cc2",
                "decimals": 18
            },
            {
                "address": "0xeeeeeeeeeeeeeeeeeeeeeeeeeeeeeeeeeeeeeeee",
                "decimals": 18
            }
        ]
    },
    "address_label": {
        "labels": [
            {
                "address": "0xeeeeeeeeeeeeeeeeeeeeeeeeeeeeeeeeeeeeeeee",
                "label": "Ether"
            },
            {
                "address": "0xa7a7899d944fe658c4b0a1803bab2f490bd3849e",
                "label": "IDEX 2"
            },
            {
                "address": "0x0000000000000000000000000000000000000001",
                "label": "Precompiled"
            },
            {
                "address": "0x0000000000000000000000000000000000000003",
                "label": "Precompiled"
            },
            {
                "address": "0x0000000000000000000000000000000000000004",
                "label": "Precompiled"
            },
            {
                "address": "0x0000000000000000000000000000000000000000",
                "label": "Null Address"
            },
            {
                "address": "0xd8950fdeaa10304b7a7fd03a2fc66bc39f3c711a",
                "label": "WYS Token"
            },
            {
                "address": "0x2a0c0dbecc7e4d658f48e01e3fa353f44050c208",
                "label": "IDEX"
            },
            {
                "address": "0x0000000000000000000000000000000000000002",
                "label": "Precompiled"
            }
        ]
    },
    "trace": {
        "accountLabels": null,
        "dataMap": {
            "-1": {
                "invocation": {
                    "address": "0xa7a7899d944fe658c4b0a1803bab2f490bd3849e",
                    "callData": "",
                    "decodedMethod": null,
                    "errorInfo": "",
                    "fromAddress": "",
                    "gasUsed": 0,
                    "id": -1,
                    "methodDecoded": false,
                    "operation": "",
                    "output": "",
                    "revert": false,
                    "revertMessage": "",
                    "selector": "",
                    "status": false,
                    "value": ""
                },
                "nodeType": 0
            },
            "0": {
                "invocation": {
                    "address": "0x2a0c0dbecc7e4d658f48e01e3fa353f44050c208",
                    "callData": "0x000000000000000000000000000000000000000000000000074704269d0855a00000000000000000000000000000000000000000000000cb3dcae5d58cbb140000000000000000000000000000000000000000000000000000000000000186a00000000000000000000000000000000000000000000000000000000000012567000000000000000000000000000000000000000000000000074704269d0855a0000000000000000000000000000000000000000000000000000000000000002f00000000000000000000000000000000000000000000000000038d7ea4c680000000000000000000000000000000000000000000000000000029a85128188b330000000000000000000000000000000000000000000000000000000000000000000000000000000000000000d8950fdeaa10304b7a7fd03a2fc66bc39f3c711a00000000000000000000000033b7724213bb0cb120b917322cedd15132a792fa000000000000000000000000bb15d49ffab5eb3a8948dffab171da53921e1228000000000000000000000000000000000000000000000000000000000000001b000000000000000000000000000000000000000000000000000000000000001c72dc03c664671aa92477a355f3bb43cfcbd5f68dbbe65df829a47a4767c42dfe59837ac1c970ee4bcbc53a6fd3fe87d9d25e9fa1ddc17bfc5f11cbc4699ccaf4ad0c867383c18aa16d2e5da818d3a4ddc63b156e137f85d48476c21e352f8672711391e635625d069895ea23f099db734b1ce1a8662baa5bf0c6d93c0e175581",
                    "decodedMethod": {
                        "callParams": [
                            {
                                "name": "tradeValues",
                                "type": "uint256[8]",
                                "value": [
                                    "524,392,445,501,789,600",
                                    "3,749,141,670,850,000,000,000",
                                    "100,000",
                                    "75,111",
                                    "524,392,445,501,789,600",
                                    "47",
                                    "1,000,000,000,000,000",
                                    "11,725,540,563,651,379"
                                ]
                            },
                            {
                                "name": "tradeAddresses",
                                "type": "address[4]",
                                "value": [
                                    "0x0000000000000000000000000000000000000000",
                                    "0xd8950fdeaa10304b7a7fd03a2fc66bc39f3c711a",
                                    "0x33b7724213bb0cb120b917322cedd15132a792fa",
                                    "0xbb15d49ffab5eb3a8948dffab171da53921e1228"
                                ]
                            },
                            {
                                "name": "v",
                                "type": "uint8[2]",
                                "value": [
                                    "27",
                                    "28"
                                ]
                            },
                            {
                                "name": "rs",
                                "type": "bytes32[4]",
                                "value": [
                                    "0x72dc03c664671aa92477a355f3bb43cfcbd5f68dbbe65df829a47a4767c42dfe",
                                    "0x59837ac1c970ee4bcbc53a6fd3fe87d9d25e9fa1ddc17bfc5f11cbc4699ccaf4",
                                    "0xad0c867383c18aa16d2e5da818d3a4ddc63b156e137f85d48476c21e352f8672",
                                    "0x711391e635625d069895ea23f099db734b1ce1a8662baa5bf0c6d93c0e175581"
                                ]
                            }
                        ],
                        "constructorArguments": "",
                        "name": "trade",
                        "returnParams": [
                            {
                                "name": "success",
                                "type": "bool",
                                "value": false
                            }
                        ],
                        "signature": "trade(uint256[8],address[4],uint8[2],bytes32[4])"
                    },
                    "errorInfo": "",
                    "fromAddress": "0xa7a7899d944fe658c4b0a1803bab2f490bd3849e",
                    "gasUsed": 142836,
                    "id": 0,
                    "methodDecoded": true,
                    "operation": "CALL",
                    "output": "0x0000000000000000000000000000000000000000000000000000000000000000",
                    "revert": false,
                    "revertMessage": "",
                    "selector": "0xef343588",
                    "status": true,
                    "value": "0"
                },
                "nodeType": 0
            },
            "1": {
                "invocation": {
                    "address": "0x0000000000000000000000000000000000000001",
                    "callData": "0xd92307c79698b1efcd676a3a069b93c48a4e55d6cffe5d7da4ea2085000000000000000000000000000000000000000000000000000000000000001b72dc03c664671aa92477a355f3bb43cfcbd5f68dbbe65df829a47a4767c42dfe59837ac1c970ee4bcbc53a6fd3fe87d9d25e9fa1ddc17bfc5f11cbc4699ccaf4",
                    "decodedMethod": {
                        "callParams": [
                            {
                                "name": "hash",
                                "type": "bytes32",
                                "value": "0xec06ce65d92307c79698b1efcd676a3a069b93c48a4e55d6cffe5d7da4ea2085"
                            },
                            {
                                "name": "v",
                                "type": "uint256",
                                "value": "27"
                            },
                            {
                                "name": "r",
                                "type": "bytes32",
                                "value": "0x72dc03c664671aa92477a355f3bb43cfcbd5f68dbbe65df829a47a4767c42dfe"
                            },
                            {
                                "name": "s",
                                "type": "bytes32",
                                "value": "0x59837ac1c970ee4bcbc53a6fd3fe87d9d25e9fa1ddc17bfc5f11cbc4699ccaf4"
                            }
                        ],
                        "constructorArguments": "",
                        "name": "ecrecover",
                        "returnParams": [
                            {
                                "name": "",
                                "type": "address",
                                "value": "0x33b7724213bb0cb120b917322cedd15132a792fa"
                            }
                        ],
                        "signature": "ecrecover(bytes32,uint256,bytes32,bytes32)"
                    },
                    "errorInfo": "",
                    "fromAddress": "0x2a0c0dbecc7e4d658f48e01e3fa353f44050c208",
                    "gasUsed": 3000,
                    "id": 1,
                    "methodDecoded": true,
                    "operation": "CALL",
                    "output": "0x00000000000000000000000033b7724213bb0cb120b917322cedd15132a792fa",
                    "revert": false,
                    "revertMessage": "",
                    "selector": "0xec06ce65",
                    "status": true,
                    "value": "0"
                },
                "nodeType": 0
            },
            "2": {
                "invocation": {
                    "address": "0x0000000000000000000000000000000000000001",
                    "callData": "0x944b6bc56487e8a583b547c341883faaf0770249f75117e63109d70a000000000000000000000000000000000000000000000000000000000000001cad0c867383c18aa16d2e5da818d3a4ddc63b156e137f85d48476c21e352f8672711391e635625d069895ea23f099db734b1ce1a8662baa5bf0c6d93c0e175581",
                    "decodedMethod": {
                        "callParams": [
                            {
                                "name": "hash",
                                "type": "bytes32",
                                "value": "0x48c3e15b944b6bc56487e8a583b547c341883faaf0770249f75117e63109d70a"
                            },
                            {
                                "name": "v",
                                "type": "uint256",
                                "value": "28"
                            },
                            {
                                "name": "r",
                                "type": "bytes32",
                                "value": "0xad0c867383c18aa16d2e5da818d3a4ddc63b156e137f85d48476c21e352f8672"
                            },
                            {
                                "name": "s",
                                "type": "bytes32",
                                "value": "0x711391e635625d069895ea23f099db734b1ce1a8662baa5bf0c6d93c0e175581"
                            }
                        ],
                        "constructorArguments": "",
                        "name": "ecrecover",
                        "returnParams": [
                            {
                                "name": "",
                                "type": "address",
                                "value": "0xbb15d49ffab5eb3a8948dffab171da53921e1228"
                            }
                        ],
                        "signature": "ecrecover(bytes32,uint256,bytes32,bytes32)"
                    },
                    "errorInfo": "",
                    "fromAddress": "0x2a0c0dbecc7e4d658f48e01e3fa353f44050c208",
                    "gasUsed": 3000,
                    "id": 2,
                    "methodDecoded": true,
                    "operation": "CALL",
                    "output": "0x000000000000000000000000bb15d49ffab5eb3a8948dffab171da53921e1228",
                    "revert": false,
                    "revertMessage": "",
                    "selector": "0x48c3e15b",
                    "status": true,
                    "value": "0"
                },
                "nodeType": 0
            }
        },
        "gasFlame": [
            {
                "children": [
                    {
                        "children": [
                            {
                                "children": [],
                                "depth": 0,
                                "name": "Initial Gas",
                                "value": 38552
                            },
                            {
                                "children": [
                                    {
                                        "children": [],
                                        "depth": 1,
                                        "name": "ecrecover",
                                        "value": 3000
                                    },
                                    {
                                        "children": [],
                                        "depth": 1,
                                        "name": "ecrecover",
                                        "value": 3000
                                    }
                                ],
                                "depth": 0,
                                "name": "Executed Gas",
                                "value": 104284
                            }
                        ],
                        "depth": -1,
                        "name": "Actual Gas Used",
                        "value": 142836
                    },
                    {
                        "children": [],
                        "depth": -1,
                        "name": "Refunded Gas",
                        "value": 0
                    }
                ],
                "depth": -2,
                "name": "Total Gas",
                "value": 142836
            }
        ],
        "isConfirmed": true,
        "mainTrace": [
            {
                "children": [
                    {
                        "children": [
                            {
                                "children": [],
                                "depth": 1,
                                "id": 1,
                                "order": 1
                            },
                            {
                                "children": [],
                                "depth": 1,
                                "id": 2,
                                "order": 2
                            }
                        ],
                        "depth": 0,
                        "id": 0,
                        "order": 0
                    }
                ],
                "depth": -1,
                "id": -1,
                "order": -1
            }
        ],
        "mainTraceNodeCount": 3,
        "parentIdMap": {
            "0": -1,
            "1": 0,
            "2": 0
        },
        "tidyTrace": [
            {
                "children": [
                    {
                        "children": [
                            {
                                "children": [],
                                "depth": 1,
                                "id": 1,
                                "order": 1
                            },
                            {
                                "children": [],
                                "depth": 1,
                                "id": 2,
                                "order": 2
                            }
                        ],
                        "depth": 0,
                        "id": 0,
                        "order": 0
                    }
                ],
                "depth": -1,
                "id": -1,
                "order": -1
            }
        ],
        "tidyTraceNodeCount": 3
    },
    "state_change": {
        "stateChanges": [
            {
                "address": "0x2a0c0dbecc7e4d658f48e01e3fa353f44050c208",
                "erc": "",
                "slots": [
                    {
                        "current": "0x0000000000000000000000000000000000000000000000000000000000000001",
                        "key": "0xda8e0008c2da2e858193b9250fcab8e7aaa9a62451dbfb79af2cd4ddb1a49272",
                        "prev": "0x0000000000000000000000000000000000000000000000000000000000000000"
                    },
                    {
                        "current": "0x000000000000000000000000000000000000000000000000328791f3a6bbc9d7",
                        "key": "0xfd78ba913a7b51044abdd598a8bbb6831b5981c77fa1a897ba57424f4ee3fdc5",
                        "prev": "0x00000000000000000000000000000000000000000000000039ce961a43c41f77"
                    },
                    {
                        "current": "0x00000000000000000000000000000000000000000000000000000002154120d5",
                        "key": "0x82daa73831245dbca812edfed380cc09db0287c169a43f162f1666726cc70d94",
                        "prev": "0x0000000000000000000000000000000000000000000000cb3dcae5d7a1fc34d5"
                    },
                    {
                        "current": "0x0000000000000000000000000000000000000000000000002c76eabb7c327b8b",
                        "key": "0x903ca94042f8184c6344853592572601a429da5a3c692ff4b161d34215f25025",
                        "prev": "0x0000000000000000000000000000000000000000000000002531c383809a0749"
                    },
                    {
                        "current": "0x00000000000000000000000000000000000000000000004e5a63cfebc20086cb",
                        "key": "0xe208bebeca807ac96912ea6769243f46a5e54242e6c05e2c7a21501679d1ea15",
                        "prev": "0x00000000000000000000000000000000000000000000004bf84ffc98ebd6ca7b"
                    },
                    {
                        "current": "0x0000000000000000000000000000000000000000000000000000000000571e8e",
                        "key": "0xe316447a65929cae334dfdf62be244cb84d58b987ff963ffb771ffdffee4b268",
                        "prev": "0x000000000000000000000000000000000000000000000000000000000056f23d"
                    },
                    {
                        "current": "0x000000000000000000000000000000000000000000000061057d87cd7fd46a09",
                        "key": "0x3ccb72d91c5c66cba135a4135963ed23443b8a63817f501517468fcd5097e277",
                        "prev": "0x000000000000000000000000000000000000000000000061057baadede6488ac"
                    },
                    {
                        "current": "0x000000000000000000000000000000000000000000000ef2a0d4311e9b8583ef",
                        "key": "0x4c4b08c59f46db33e613d09508dbfc0b7b6b3d0d0cfa7576779276c58ee141c2",
                        "prev": "0x000000000000000000000000000000000000000000000e29c51d1e9be4f42c40"
                    },
                    {
                        "current": "0x000000000000000000000000000000000000000000000000074704269d0855a0",
                        "key": "0x8d8d96bcf51bf142f0b2978c033ff17984ab9450672c6c995fa0eb9162177d1f",
                        "prev": "0x0000000000000000000000000000000000000000000000000000000000000000"
                    },
                    {
                        "current": "0x0000000000000000000000000000000000000000000000000000000000571e8e",
                        "key": "0x9d73ac0ed46b73efe4a716fc955aed7193b2273c8898b71c8aea4b694b83570e",
                        "prev": "0x0000000000000000000000000000000000000000000000000000000000571dbb"
                    }
                ],
                "storageVariables": [
                    {
                        "name": "orderFills",
                        "type": "mapping(bytes32 => uint256)",
                        "value": {
                            "pairs": [
                                {
                                    "key": "0x269d509677f7b968943f8409128c56eec0d995bf9829c98d9b9b37f414cb02a8",
                                    "value": {
                                        "current": "524392445501789600",
                                        "prev": "0",
                                        "typeTag": 1
                                    }
                                }
                            ],
                            "typeTag": 4
                        }
                    },
                    {
                        "name": "lastActiveTransaction",
                        "type": "mapping(address => uint256)",
                        "value": {
                            "pairs": [
                                {
                                    "key": "0x33b7724213bb0cb120b917322cedd15132a792fa",
                                    "value": {
                                        "current": "5709454",
                                        "prev": "5709243",
                                        "typeTag": 1
                                    }
                                },
                                {
                                    "key": "0xbb15d49ffab5eb3a8948dffab171da53921e1228",
                                    "value": {
                                        "current": "5709454",
                                        "prev": "5698109",
                                        "typeTag": 1
                                    }
                                }
                            ],
                            "typeTag": 4
                        }
                    },
                    {
                        "name": "traded",
                        "type": "mapping(bytes32 => bool)",
                        "value": {
                            "pairs": [
                                {
                                    "key": "0xb36c4cf2cb4645279dcb6d8125d22c0a4eb079a54e0409342572fb580d8eb8e5",
                                    "value": {
                                        "current": "true",
                                        "prev": "false",
                                        "typeTag": 1
                                    }
                                }
                            ],
                            "typeTag": 4
                        }
                    },
                    {
                        "name": "tokens",
                        "type": "mapping(address => mapping(address => uint256))",
                        "value": {
                            "pairs": [
                                {
                                    "key": "0x0000000000000000000000000000000000000000",
                                    "value": {
                                        "pairs": [
                                            {
                                                "key": "0x034767f3c519f361c5ecf46ebfc08981c629d381",
                                                "value": {
                                                    "current": "1789729796808787651081",
                                                    "prev": "1789729272416342149292",
                                                    "typeTag": 1
                                                }
                                            },
                                            {
                                                "key": "0x33b7724213bb0cb120b917322cedd15132a792fa",
                                                "value": {
                                                    "current": "3204006275884153739",
                                                    "prev": "2680138222827865929",
                                                    "typeTag": 1
                                                }
                                            },
                                            {
                                                "key": "0xbb15d49ffab5eb3a8948dffab171da53921e1228",
                                                "value": {
                                                    "current": "3641039299412740567",
                                                    "prev": "4165431744914530167",
                                                    "typeTag": 1
                                                }
                                            }
                                        ],
                                        "typeTag": 4
                                    }
                                },
                                {
                                    "key": "0xd8950fdeaa10304b7a7fd03a2fc66bc39f3c711a",
                                    "value": {
                                        "pairs": [
                                            {
                                                "key": "0x034767f3c519f361c5ecf46ebfc08981c629d381",
                                                "value": {
                                                    "current": "1445359315846931973835",
                                                    "prev": "1401398603106504591995",
                                                    "typeTag": 1
                                                }
                                            },
                                            {
                                                "key": "0x33b7724213bb0cb120b917322cedd15132a792fa",
                                                "value": {
                                                    "current": "8946524373",
                                                    "prev": "3749141670858946524373",
                                                    "typeTag": 1
                                                }
                                            },
                                            {
                                                "key": "0xbb15d49ffab5eb3a8948dffab171da53921e1228",
                                                "value": {
                                                    "current": "70588831767761403610095",
                                                    "prev": "66883650809651830991936",
                                                    "typeTag": 1
                                                }
                                            }
                                        ],
                                        "typeTag": 4
                                    }
                                }
                            ],
                            "typeTag": 4
                        }
                    }
                ]
            }
        ]
    }
}