{
    "balance_change": {
        "balanceChanges": [
            {
                "account": "0x4a14347083b80e5216ca31350a2d21702ac3650d",
                "assets": [
                    {
                        "address": "0x6b175474e89094c44da98b954eedeac495271d0f",
                        "amount": "38.998439904560079596",
                        "iconUrl": "https://assets.blocksec.com/icon/39aead569b9c011cb6f69734d9abbc9ab6a80049fe93bbd12bb473a3e0e859a3.png",
                        "isERC1155": false,
                        "isERC721": false,
                        "sign": true,
                        "value": "38.9984399"
                    }
                ]
            },
            {
                "account": "0xbebc44782c7db0a1a60cb6fe97d0b483032ff1c7",
                "assets": [
                    {
                        "address": "0x6b175474e89094c44da98b954eedeac495271d0f",
                        "amount": "24,374.024940350049746955",
                        "iconUrl": "https://assets.blocksec.com/icon/39aead569b9c011cb6f69734d9abbc9ab6a80049fe93bbd12bb473a3e0e859a3.png",
                        "isERC1155": false,
                        "isERC721": false,
                        "sign": false,
                        "value": "24374.02494"
                    },
                    {
                        "address": "0xdac17f958d2ee523a2206206994597c13d831ec7",
                        "amount": "24,363.8584",
                        "iconUrl": "https://assets.blocksec.com/icon/fcea71f3193ce895be44bfdf941f7e4c9381dd587f273c2d1a27f1263d84e4ea.png",
                        "isERC1155": false,
                        "isERC721": false,
                        "sign": true,
                        "value": "24412.586116800000044"
                    }
                ]
            },
            {
                "account": "0xfd51d34e32f684e368fa401dd87897ef301c0c18",
                "assets": [
                    {
                        "address": "0xdac17f958d2ee523a2206206994597c13d831ec7",
                        "amount": "24,363.8584",
                        "iconUrl": "https://assets.blocksec.com/icon/fcea71f3193ce895be44bfdf941f7e4c9381dd587f273c2d1a27f1263d84e4ea.png",
                        "isERC1155": false,
                        "isERC721": false,
                        "sign": false,
                        "value": "24412.586116800000044"
                    },
                    {
                        "address": "0x6b175474e89094c44da98b954eedeac495271d0f",
                        "amount": "24,335.026500445489667359",
                        "iconUrl": "https://assets.blocksec.com/icon/39aead569b9c011cb6f69734d9abbc9ab6a80049fe93bbd12bb473a3e0e859a3.png",
                        "isERC1155": false,
                        "isERC721": false,
                        "sign": true,
                        "value": "24335.0265"
                    }
                ]
            }
        ]
    },
    "profile": {
        "basic_info": {
            "baseFee": "65.241198648",
            "blockNumber": 17084705,
            "callData": "0xe47d166c0000000000000000000000000000000000000000000000000000000000000020000000000000000000000000000000000000000000000000000000000000028448093018000000000000000000000000bebc44782c7db0a1a60cb6fe97d0b483032ff1c7000000000000000000000000dac17f958d2ee523a2206206994597c13d831ec70000000000000000000000006b175474e89094c44da98b954eedeac495271d0f00000000000000000000000000000000000000000000000000000005ac32f9e00000000000000000000000000000000000000000000005209bc1064778c3a800000000000000000000000000fd51d34e32f684e368fa401dd87897ef301c0c18000000000000000000000000fd51d34e32f684e368fa401dd87897ef301c0c189e8edccaa0bac869fa117920611cd01a38b677f6a5c6e7893c1151126dabfdb4000000000000000000000000000000000000000000000000000000006440a6ce000000000000000000000000000000000000000000000000000000000000001000000000000000000000000000000000000000000000000000000000000001a0000000000000000000000000000000000000000000000000000000000000024000000000000000000000000000000000000000000000000000000000000002600000000000000000000000000000000000000000000000000000000000000062f3b9021658334386e936a861e981942d164e761e9c6d6cb1e83b4d9bcaf1fdd335d6cb49648640363f6b52f5a20cb700ca4842d8c9601900072541ac4ddb773a1b0000000000000000000000000000000000000000000000000000000000000000020000000000000000000000000000000000000000000000000000000000000000000000000000000000000000000000000000000000000000000000000000000000000000000000000000000000000000000000000000000000000000000000000000000000000000000000000000000000000000000000000000",
            "debugEnable": true,
            "errorInfo": "",
            "eventCount": 8,
            "feeRecipient": "0xdafea492d9c6733ae3d56b7ed1adb60692c98bc5",
            "formatValue": "0",
            "gasLimit": 500000,
            "gasPrice": "71.541198648",
            "gasUsed": 293555,
            "intTxnCount": 31,
            "internalRevert": false,
            "internalRevertMessage": "",
            "isContractCreation": false,
            "isFlashloan": false,
            "maxFee": "157.260398672",
            "nonce": 22442,
            "overwritedBlockNumber": -1,
            "priorityFee": "6.3",
            "receiver": "0x03f34be1bf910116595db1b11e9d1b2ca5d59659",
            "revertMessage": "",
            "sender": "0x36be25b28316697a1757b9b4d75b73adbad86420",
            "simulationEnable": true,
            "sourceTxnHash": "0x8a80ea5b84753c5abec6e24b7089b524a7a1d93c48297093b54cda34531a970f",
            "status": true,
            "timestamp": "2023-04-20T02:13:59Z",
            "transactionFee": "0.02100127656911364",
            "txnHash": "0x8a80ea5b84753c5abec6e24b7089b524a7a1d93c48297093b54cda34531a970f",
            "txnIndex": 11,
            "type": 2,
            "value": "0"
        },
        "fund_flow": [
            {
                "amount": "24,363.8584",
                "from": "0xfd51d34e32f684e368fa401dd87897ef301c0c18",
                "id": 1,
                "isERC1155": false,
                "isERC721": false,
                "isReverted": false,
                "order": 1,
                "to": "0x4a14347083b80e5216ca31350a2d21702ac3650d",
                "token": "0xdac17f958d2ee523a2206206994597c13d831ec7"
            },
            {
                "amount": "24,363.8584",
                "from": "0x4a14347083b80e5216ca31350a2d21702ac3650d",
                "id": 2,
                "isERC1155": false,
                "isERC721": false,
                "isReverted": false,
                "order": 2,
                "to": "0xbebc44782c7db0a1a60cb6fe97d0b483032ff1c7",
                "token": "0xdac17f958d2ee523a2206206994597c13d831ec7"
            },
            {
                "amount": "24,374.024940350049746955",
                "from": "0xbebc44782c7db0a1a60cb6fe97d0b483032ff1c7",
                "id": 3,
                "isERC1155": false,
                "isERC721": false,
                "isReverted": false,
                "order": 3,
                "to": "0x4a14347083b80e5216ca31350a2d21702ac3650d",
                "token": "0x6b175474e89094c44da98b954eedeac495271d0f"
            },
            {
                "amount": "24,335.026500445489667359",
                "from": "0x4a14347083b80e5216ca31350a2d21702ac3650d",
                "id": 4,
                "isERC1155": false,
                "isERC721": false,
                "isReverted": false,
                "order": 4,
                "to": "0xfd51d34e32f684e368fa401dd87897ef301c0c18",
                "token": "0x6b175474e89094c44da98b954eedeac495271d0f"
            }
        ],
        "token_infos": [
            {
                "address": "0x6b175474e89094c44da98b954eedeac495271d0f",
                "decimals": 18
            },
            {
                "address": "0xc02aaa39b223fe8d0a0e5c4f27ead9083c756cc2",
                "decimals": 18
            },
            {
                "address": "0xdac17f958d2ee523a2206206994597c13d831ec7",
                "decimals": 6
            },
            {
                "address": "0xeeeeeeeeeeeeeeeeeeeeeeeeeeeeeeeeeeeeeeee",
                "decimals": 18
            }
        ]
    },
    "address_label": {
        "labels": [
            {
                "address": "0x8a42d311d282bfcaa5133b2de0a8bcdbecea3073",
                "label": "Tokenlon: Allowance Target"
            },
            {
                "address": "0xdac17f958d2ee523a2206206994597c13d831ec7",
                "label": "Tether: USDT Stablecoin"
            },
            {
                "address": "0x2ef1928a890cabde01d31a2081ad7bd856e6ef4b",
                "label": "UserProxy"
            },
            {
                "address": "0xbebc44782c7db0a1a60cb6fe97d0b483032ff1c7",
                "label": "Curve.fi: DAI/USDC/USDT Pool"
            },
            {
                "address": "0x6d9cc14a1d36e6ff13fc6efa9e9326fcd12e7903",
                "label": "Tokenlon: Permanent Storage Proxy"
            },
            {
                "address": "0x03f34be1bf910116595db1b11e9d1b2ca5d59659",
                "label": "Tokenlon: DEX 2"
            },
            {
                "address": "0x670ac90bb1b55ed7f8943c1e1ef668281511afd8",
                "label": "PermanentStorage"
            },
            {
                "address": "0x0000000000000000000000000000000000000002",
                "label": "Precompiled"
            },
            {
                "address": "0x0000000000000000000000000000000000000003",
                "label": "Precompiled"
            },
            {
                "address": "0x3c68dfc45dc92c9c605d92b49858073e10b857a6",
                "label": "Tokenlon: Spender"
            },
            {
                "address": "0x4a14347083b80e5216ca31350a2d21702ac3650d",
                "label": "Tokenlon: AMM Wrapper With Path"
            },
            {
                "address": "0x36be25b28316697a1757b9b4d75b73adbad86420",
                "label": "TOKENLON"
            },
            {
                "address": "0x6b175474e89094c44da98b954eedeac495271d0f",
                "label": "Sky: Dai Stablecoin"
            },
            {
                "address": "0x0000000000000000000000000000000000000004",
                "label": "Precompiled"
            },
            {
                "address": "0x0000000000000000000000000000000000000001",
                "label": "Precompiled"
            },
            {
                "address": "0xeeeeeeeeeeeeeeeeeeeeeeeeeeeeeeeeeeeeeeee",
                "label": "Ether"
            }
        ]
    },
    "trace": {
        "accountLabels": null,
        "dataMap": {
            "-1": {
                "invocation": {
                    "address": "0x36be25b28316697a1757b9b4d75b73adbad86420",
                    "callData": "",
                    "decodedMethod": null,
                    "errorInfo": "",
                    "fromAddress": "",
                    "gasUsed": 0,
                    "id": -1,
                    "methodDecoded": false,
                    "operation": "",
                    "output": "",
                    "revert": false,
                    "revertMessage": "",
                    "selector": "",
                    "status": false,
                    "value": ""
                },
                "nodeType": 0
            },
            "0": {
                "invocation": {
                    "address": "0x03f34be1bf910116595db1b11e9d1b2ca5d59659",
                    "callData": "0x0000000000000000000000000000000000000000000000000000000000000020000000000000000000000000000000000000000000000000000000000000028448093018000000000000000000000000bebc44782c7db0a1a60cb6fe97d0b483032ff1c7000000000000000000000000dac17f958d2ee523a2206206994597c13d831ec70000000000000000000000006b175474e89094c44da98b954eedeac495271d0f00000000000000000000000000000000000000000000000000000005ac32f9e00000000000000000000000000000000000000000000005209bc1064778c3a800000000000000000000000000fd51d34e32f684e368fa401dd87897ef301c0c18000000000000000000000000fd51d34e32f684e368fa401dd87897ef301c0c189e8edccaa0bac869fa117920611cd01a38b677f6a5c6e7893c1151126dabfdb4000000000000000000000000000000000000000000000000000000006440a6ce000000000000000000000000000000000000000000000000000000000000001000000000000000000000000000000000000000000000000000000000000001a0000000000000000000000000000000000000000000000000000000000000024000000000000000000000000000000000000000000000000000000000000002600000000000000000000000000000000000000000000000000000000000000062f3b9021658334386e936a861e981942d164e761e9c6d6cb1e83b4d9bcaf1fdd335d6cb49648640363f6b52f5a20cb700ca4842d8c9601900072541ac4ddb773a1b0000000000000000000000000000000000000000000000000000000000000000020000000000000000000000000000000000000000000000000000000000000000000000000000000000000000000000000000000000000000000000000000000000000000000000000000000000000000000000000000000000000000000000000000000000000000000000000000000000000000000000000000",
                    "decodedMethod": {
                        "callParams": [
                            {
                                "name": "_payload",
                                "type": "bytes",
                                "value": "0x48093018000000000000000000000000bebc44782c7db0a1a60cb6fe97d0b483032ff1c7000000000000000000000000dac17f958d2ee523a2206206994597c13d831ec70000000000000000000000006b175474e89094c44da98b954eedeac495271d0f00000000000000000000000000000000000000000000000000000005ac32f9e00000000000000000000000000000000000000000000005209bc1064778c3a800000000000000000000000000fd51d34e32f684e368fa401dd87897ef301c0c18000000000000000000000000fd51d34e32f684e368fa401dd87897ef301c0c189e8edccaa0bac869fa117920611cd01a38b677f6a5c6e7893c1151126dabfdb4000000000000000000000000000000000000000000000000000000006440a6ce000000000000000000000000000000000000000000000000000000000000001000000000000000000000000000000000000000000000000000000000000001a0000000000000000000000000000000000000000000000000000000000000024000000000000000000000000000000000000000000000000000000000000002600000000000000000000000000000000000000000000000000000000000000062f3b9021658334386e936a861e981942d164e761e9c6d6cb1e83b4d9bcaf1fdd335d6cb49648640363f6b52f5a20cb700ca4842d8c9601900072541ac4ddb773a1b00000000000000000000000000000000000000000000000000000000000000000200000000000000000000000000000000000000000000000000000000000000000000000000000000000000000000000000000000000000000000000000000000000000000000000000000000000000000000000000000000000000000000"
                            }
                        ],
                        "constructorArguments": "",
                        "name": "toAMM",
                        "returnParams": [],
                        "signature": "toAMM(bytes)"
                    },
                    "errorInfo": "",
                    "fromAddress": "0x36be25b28316697a1757b9b4d75b73adbad86420",
                    "gasUsed": 293555,
                    "id": 0,
                    "methodDecoded": true,
                    "operation": "CALL",
                    "output": "",
                    "revert": false,
                    "revertMessage": "",
                    "selector": "0xe47d166c",
                    "status": true,
                    "value": "0"
                },
                "nodeType": 0
            },
            "1": {
                "invocation": {
                    "address": "0x2ef1928a890cabde01d31a2081ad7bd856e6ef4b",
                    "callData": "0x0000000000000000000000000000000000000000000000000000000000000020000000000000000000000000000000000000000000000000000000000000028448093018000000000000000000000000bebc44782c7db0a1a60cb6fe97d0b483032ff1c7000000000000000000000000dac17f958d2ee523a2206206994597c13d831ec70000000000000000000000006b175474e89094c44da98b954eedeac495271d0f00000000000000000000000000000000000000000000000000000005ac32f9e00000000000000000000000000000000000000000000005209bc1064778c3a800000000000000000000000000fd51d34e32f684e368fa401dd87897ef301c0c18000000000000000000000000fd51d34e32f684e368fa401dd87897ef301c0c189e8edccaa0bac869fa117920611cd01a38b677f6a5c6e7893c1151126dabfdb4000000000000000000000000000000000000000000000000000000006440a6ce000000000000000000000000000000000000000000000000000000000000001000000000000000000000000000000000000000000000000000000000000001a0000000000000000000000000000000000000000000000000000000000000024000000000000000000000000000000000000000000000000000000000000002600000000000000000000000000000000000000000000000000000000000000062f3b9021658334386e936a861e981942d164e761e9c6d6cb1e83b4d9bcaf1fdd335d6cb49648640363f6b52f5a20cb700ca4842d8c9601900072541ac4ddb773a1b0000000000000000000000000000000000000000000000000000000000000000020000000000000000000000000000000000000000000000000000000000000000000000000000000000000000000000000000000000000000000000000000000000000000000000000000000000000000000000000000000000000000000000000000000000000000000000000000000000000000000000000000",
                    "decodedMethod": {
                        "callParams": [
                            {
                                "name": "_payload",
                                "type": "bytes",
                                "value": "0x48093018000000000000000000000000bebc44782c7db0a1a60cb6fe97d0b483032ff1c7000000000000000000000000dac17f958d2ee523a2206206994597c13d831ec70000000000000000000000006b175474e89094c44da98b954eedeac495271d0f00000000000000000000000000000000000000000000000000000005ac32f9e00000000000000000000000000000000000000000000005209bc1064778c3a800000000000000000000000000fd51d34e32f684e368fa401dd87897ef301c0c18000000000000000000000000fd51d34e32f684e368fa401dd87897ef301c0c189e8edccaa0bac869fa117920611cd01a38b677f6a5c6e7893c1151126dabfdb4000000000000000000000000000000000000000000000000000000006440a6ce000000000000000000000000000000000000000000000000000000000000001000000000000000000000000000000000000000000000000000000000000001a0000000000000000000000000000000000000000000000000000000000000024000000000000000000000000000000000000000000000000000000000000002600000000000000000000000000000000000000000000000000000000000000062f3b9021658334386e936a861e981942d164e761e9c6d6cb1e83b4d9bcaf1fdd335d6cb49648640363f6b52f5a20cb700ca4842d8c9601900072541ac4ddb773a1b00000000000000000000000000000000000000000000000000000000000000000200000000000000000000000000000000000000000000000000000000000000000000000000000000000000000000000000000000000000000000000000000000000000000000000000000000000000000000000000000000000000000000"
                            }
                        ],
                        "constructorArguments": "",
                        "name": "toAMM",
                        "returnParams": [],
                        "signature": "toAMM(bytes)"
                    },
                    "errorInfo": "",
                    "fromAddress": "0x03f34be1bf910116595db1b11e9d1b2ca5d59659",
                    "gasUsed": 309651,
                    "id": 1,
                    "methodDecoded": true,
                    "operation": "DELEGATECALL",
                    "output": "",
                    "revert": false,
                    "revertMessage": "",
                    "selector": "0xe47d166c",
                    "status": true,
                    "value": "0"
                },
                "nodeType": 0
            },
            "10": {
                "invocation": {
                    "address": "0x8a42d311d282bfcaa5133b2de0a8bcdbecea3073",
                    "callData": "0x000000000000000000000000dac17f958d2ee523a2206206994597c13d831ec70000000000000000000000000000000000000000000000000000000000000040000000000000000000000000000000000000000000000000000000000000006423b872dd000000000000000000000000fd51d34e32f684e368fa401dd87897ef301c0c180000000000000000000000004a14347083b80e5216ca31350a2d21702ac3650d00000000000000000000000000000000000000000000000000000005ac32f9e000000000000000000000000000000000000000000000000000000000",
                    "decodedMethod": {
                        "callParams": [
                            {
                                "name": "target",
                                "type": "address",
                                "value": "0xdac17f958d2ee523a2206206994597c13d831ec7"
                            },
                            {
                                "name": "callData",
                                "type": "bytes",
                                "value": "0x23b872dd000000000000000000000000fd51d34e32f684e368fa401dd87897ef301c0c180000000000000000000000004a14347083b80e5216ca31350a2d21702ac3650d00000000000000000000000000000000000000000000000000000005ac32f9e0"
                            }
                        ],
                        "constructorArguments": "",
                        "name": "executeCall",
                        "returnParams": [
                            {
                                "name": "resultData",
                                "type": "bytes",
                                "value": "0x"
                            }
                        ],
                        "signature": "executeCall(address,bytes)"
                    },
                    "errorInfo": "",
                    "fromAddress": "0x3c68dfc45dc92c9c605d92b49858073e10b857a6",
                    "gasUsed": 25589,
                    "id": 10,
                    "methodDecoded": true,
                    "operation": "CALL",
                    "output": "0x00000000000000000000000000000000000000000000000000000000000000200000000000000000000000000000000000000000000000000000000000000000",
                    "revert": false,
                    "revertMessage": "",
                    "selector": "0xbca8c7b5",
                    "status": true,
                    "value": "0"
                },
                "nodeType": 0
            },
            "11": {
                "invocation": {
                    "address": "0xdac17f958d2ee523a2206206994597c13d831ec7",
                    "callData": "0x000000000000000000000000fd51d34e32f684e368fa401dd87897ef301c0c180000000000000000000000004a14347083b80e5216ca31350a2d21702ac3650d00000000000000000000000000000000000000000000000000000005ac32f9e0",
                    "decodedMethod": {
                        "callParams": [
                            {
                                "name": "_from",
                                "type": "address",
                                "value": "0xfd51d34e32f684e368fa401dd87897ef301c0c18"
                            },
                            {
                                "name": "_to",
                                "type": "address",
                                "value": "0x4a14347083b80e5216ca31350a2d21702ac3650d"
                            },
                            {
                                "decimalAvailable": true,
                                "name": "_value",
                                "type": "uint256",
                                "value": "24,363,858,400"
                            }
                        ],
                        "constructorArguments": "",
                        "name": "transferFrom",
                        "returnParams": [],
                        "signature": "transferFrom(address,address,uint256)"
                    },
                    "errorInfo": "",
                    "fromAddress": "0x8a42d311d282bfcaa5133b2de0a8bcdbecea3073",
                    "gasUsed": 22530,
                    "id": 11,
                    "methodDecoded": true,
                    "operation": "CALL",
                    "output": "",
                    "revert": false,
                    "revertMessage": "",
                    "selector": "0x23b872dd",
                    "status": true,
                    "value": "0"
                },
                "nodeType": 0
            },
            "12": {
                "event": {
                    "contract": "0xdac17f958d2ee523a2206206994597c13d831ec7",
                    "decodedLog": {
                        "name": "Transfer",
                        "params": [
                            {
                                "name": "from",
                                "type": "address",
                                "value": "0xfd51d34e32f684e368fa401dd87897ef301c0c18"
                            },
                            {
                                "name": "to",
                                "type": "address",
                                "value": "0x4a14347083b80e5216ca31350a2d21702ac3650d"
                            },
                            {
                                "decimalAvailable": true,
                                "name": "value",
                                "type": "uint256",
                                "value": "24,363,858,400"
                            }
                        ],
                        "signature": "Transfer(address,address,uint256)"
                    },
                    "id": 12,
                    "logData": "0x00000000000000000000000000000000000000000000000000000005ac32f9e0",
                    "logDecoded": true,
                    "operation": "EVENT",
                    "revert": false,
                    "status": true,
                    "topics": [
                        "0xddf252ad1be2c89b69c2b068fc378daa952ba7f163c4a11628f55a4df523b3ef",
                        "0x000000000000000000000000fd51d34e32f684e368fa401dd87897ef301c0c18",
                        "0x0000000000000000000000004a14347083b80e5216ca31350a2d21702ac3650d"
                    ]
                },
                "nodeType": 1
            },
            "13": {
                "invocation": {
                    "address": "0xdac17f958d2ee523a2206206994597c13d831ec7",
                    "callData": "0x0000000000000000000000004a14347083b80e5216ca31350a2d21702ac3650d",
                    "decodedMethod": {
                        "callParams": [
                            {
                                "name": "who",
                                "type": "address",
                                "value": "0x4a14347083b80e5216ca31350a2d21702ac3650d"
                            }
                        ],
                        "constructorArguments": "",
                        "name": "balanceOf",
                        "returnParams": [
                            {
                                "decimalAvailable": true,
                                "name": "",
                                "type": "uint256",
                                "value": "30,588,385,209"
                            }
                        ],
                        "signature": "balanceOf(address)"
                    },
                    "errorInfo": "",
                    "fromAddress": "0x3c68dfc45dc92c9c605d92b49858073e10b857a6",
                    "gasUsed": 1031,
                    "id": 13,
                    "methodDecoded": true,
                    "operation": "STATICCALL",
                    "output": "0x000000000000000000000000000000000000000000000000000000071f35b7b9",
                    "revert": false,
                    "revertMessage": "",
                    "selector": "0x70a08231",
                    "status": true,
                    "value": "0"
                },
                "nodeType": 0
            },
            "14": {
                "invocation": {
                    "address": "0xdac17f958d2ee523a2206206994597c13d831ec7",
                    "callData": "0x0000000000000000000000004a14347083b80e5216ca31350a2d21702ac3650d000000000000000000000000bebc44782c7db0a1a60cb6fe97d0b483032ff1c7",
                    "decodedMethod": {
                        "callParams": [
                            {
                                "name": "_owner",
                                "type": "address",
                                "value": "0x4a14347083b80e5216ca31350a2d21702ac3650d"
                            },
                            {
                                "name": "_spender",
                                "type": "address",
                                "value": "0xbebc44782c7db0a1a60cb6fe97d0b483032ff1c7"
                            }
                        ],
                        "constructorArguments": "",
                        "name": "allowance",
                        "returnParams": [
                            {
                                "decimalAvailable": true,
                                "name": "remaining",
                                "type": "uint256",
                                "value": "0"
                            }
                        ],
                        "signature": "allowance(address,address)"
                    },
                    "errorInfo": "",
                    "fromAddress": "0x4a14347083b80e5216ca31350a2d21702ac3650d",
                    "gasUsed": 3356,
                    "id": 14,
                    "methodDecoded": true,
                    "operation": "STATICCALL",
                    "output": "0x0000000000000000000000000000000000000000000000000000000000000000",
                    "revert": false,
                    "revertMessage": "",
                    "selector": "0xdd62ed3e",
                    "status": true,
                    "value": "0"
                },
                "nodeType": 0
            },
            "15": {
                "invocation": {
                    "address": "0xdac17f958d2ee523a2206206994597c13d831ec7",
                    "callData": "0x000000000000000000000000bebc44782c7db0a1a60cb6fe97d0b483032ff1c7ffffffffffffffffffffffffffffffffffffffffffffffffffffffffffffffff",
                    "decodedMethod": {
                        "callParams": [
                            {
                                "name": "_spender",
                                "type": "address",
                                "value": "0xbebc44782c7db0a1a60cb6fe97d0b483032ff1c7"
                            },
                            {
                                "decimalAvailable": true,
                                "name": "_value",
                                "type": "uint256",
                                "value": "115,792,089,237,316,195,423,570,985,008,687,907,853,269,984,665,640,564,039,457,584,007,913,129,639,935"
                            }
                        ],
                        "constructorArguments": "",
                        "name": "approve",
                        "returnParams": [],
                        "signature": "approve(address,uint256)"
                    },
                    "errorInfo": "",
                    "fromAddress": "0x4a14347083b80e5216ca31350a2d21702ac3650d",
                    "gasUsed": 22953,
                    "id": 15,
                    "methodDecoded": true,
                    "operation": "CALL",
                    "output": "",
                    "revert": false,
                    "revertMessage": "",
                    "selector": "0x095ea7b3",
                    "status": true,
                    "value": "0"
                },
                "nodeType": 0
            },
            "16": {
                "event": {
                    "contract": "0xdac17f958d2ee523a2206206994597c13d831ec7",
                    "decodedLog": {
                        "name": "Approval",
                        "params": [
                            {
                                "name": "owner",
                                "type": "address",
                                "value": "0x4a14347083b80e5216ca31350a2d21702ac3650d"
                            },
                            {
                                "name": "spender",
                                "type": "address",
                                "value": "0xbebc44782c7db0a1a60cb6fe97d0b483032ff1c7"
                            },
                            {
                                "decimalAvailable": true,
                                "name": "value",
                                "type": "uint256",
                                "value": "115,792,089,237,316,195,423,570,985,008,687,907,853,269,984,665,640,564,039,457,584,007,913,129,639,935"
                            }
                        ],
                        "signature": "Approval(address,address,uint256)"
                    },
                    "id": 16,
                    "logData": "0xffffffffffffffffffffffffffffffffffffffffffffffffffffffffffffffff",
                    "logDecoded": true,
                    "operation": "EVENT",
                    "revert": false,
                    "status": true,
                    "topics": [
                        "0x8c5be1e5ebec7d5bd14f71427d1e84f3dd0314c0f7b2291e5b200ac8c7c3b925",
                        "0x0000000000000000000000004a14347083b80e5216ca31350a2d21702ac3650d",
                        "0x000000000000000000000000bebc44782c7db0a1a60cb6fe97d0b483032ff1c7"
                    ]
                },
                "nodeType": 1
            },
            "17": {
                "invocation": {
                    "address": "0x6d9cc14a1d36e6ff13fc6efa9e9326fcd12e7903",
                    "callData": "0x000000000000000000000000bebc44782c7db0a1a60cb6fe97d0b483032ff1c7000000000000000000000000dac17f958d2ee523a2206206994597c13d831ec70000000000000000000000006b175474e89094c44da98b954eedeac495271d0f",
                    "decodedMethod": {
                        "callParams": [
                            {
                                "name": "_makerAddr",
                                "type": "address",
                                "value": "0xbebc44782c7db0a1a60cb6fe97d0b483032ff1c7"
                            },
                            {
                                "name": "_takerAssetAddr",
                                "type": "address",
                                "value": "0xdac17f958d2ee523a2206206994597c13d831ec7"
                            },
                            {
                                "name": "_makerAssetAddr",
                                "type": "address",
                                "value": "0x6b175474e89094c44da98b954eedeac495271d0f"
                            }
                        ],
                        "constructorArguments": "",
                        "name": "getCurvePoolInfo",
                        "returnParams": [
                            {
                                "name": "takerAssetIndex",
                                "type": "int128",
                                "value": "3"
                            },
                            {
                                "name": "makerAssetIndex",
                                "type": "int128",
                                "value": "1"
                            },
                            {
                                "name": "swapMethod",
                                "type": "uint16",
                                "value": "1"
                            },
                            {
                                "name": "supportGetDx",
                                "type": "bool",
                                "value": false
                            }
                        ],
                        "signature": "getCurvePoolInfo(address,address,address)"
                    },
                    "errorInfo": "",
                    "fromAddress": "0x4a14347083b80e5216ca31350a2d21702ac3650d",
                    "gasUsed": 12994,
                    "id": 17,
                    "methodDecoded": true,
                    "operation": "STATICCALL",
                    "output": "0x0000000000000000000000000000000000000000000000000000000000000003000000000000000000000000000000000000000000000000000000000000000100000000000000000000000000000000000000000000000000000000000000010000000000000000000000000000000000000000000000000000000000000000",
                    "revert": false,
                    "revertMessage": "",
                    "selector": "0x8ab4a8cc",
                    "status": true,
                    "value": "0"
                },
                "nodeType": 0
            },
            "18": {
                "invocation": {
                    "address": "0x670ac90bb1b55ed7f8943c1e1ef668281511afd8",
                    "callData": "0x000000000000000000000000bebc44782c7db0a1a60cb6fe97d0b483032ff1c7000000000000000000000000dac17f958d2ee523a2206206994597c13d831ec70000000000000000000000006b175474e89094c44da98b954eedeac495271d0f",
                    "decodedMethod": {
                        "callParams": [
                            {
                                "name": "_makerAddr",
                                "type": "address",
                                "value": "0xbebc44782c7db0a1a60cb6fe97d0b483032ff1c7"
                            },
                            {
                                "name": "_takerAssetAddr",
                                "type": "address",
                                "value": "0xdac17f958d2ee523a2206206994597c13d831ec7"
                            },
                            {
                                "name": "_makerAssetAddr",
                                "type": "address",
                                "value": "0x6b175474e89094c44da98b954eedeac495271d0f"
                            }
                        ],
                        "constructorArguments": "",
                        "name": "getCurvePoolInfo",
                        "returnParams": [
                            {
                                "name": "takerAssetIndex",
                                "type": "int128",
                                "value": "3"
                            },
                            {
                                "name": "makerAssetIndex",
                                "type": "int128",
                                "value": "1"
                            },
                            {
                                "name": "swapMethod",
                                "type": "uint16",
                                "value": "1"
                            },
                            {
                                "name": "supportGetDx",
                                "type": "bool",
                                "value": false
                            }
                        ],
                        "signature": "getCurvePoolInfo(address,address,address)"
                    },
                    "errorInfo": "",
                    "fromAddress": "0x6d9cc14a1d36e6ff13fc6efa9e9326fcd12e7903",
                    "gasUsed": 12255,
                    "id": 18,
                    "methodDecoded": true,
                    "operation": "DELEGATECALL",
                    "output": "0x0000000000000000000000000000000000000000000000000000000000000003000000000000000000000000000000000000000000000000000000000000000100000000000000000000000000000000000000000000000000000000000000010000000000000000000000000000000000000000000000000000000000000000",
                    "revert": false,
                    "revertMessage": "",
                    "selector": "0x8ab4a8cc",
                    "status": true,
                    "value": "0"
                },
                "nodeType": 0
            },
            "19": {
                "invocation": {
                    "address": "0x6b175474e89094c44da98b954eedeac495271d0f",
                    "callData": "0x0000000000000000000000004a14347083b80e5216ca31350a2d21702ac3650d",
                    "decodedMethod": {
                        "callParams": [
                            {
                                "name": "",
                                "type": "address",
                                "value": "0x4a14347083b80e5216ca31350a2d21702ac3650d"
                            }
                        ],
                        "constructorArguments": "",
                        "name": "balanceOf",
                        "returnParams": [
                            {
                                "decimalAvailable": true,
                                "name": "",
                                "type": "uint256",
                                "value": "201,273,842,470,885,376,820,303"
                            }
                        ],
                        "signature": "balanceOf(address)"
                    },
                    "errorInfo": "",
                    "fromAddress": "0x4a14347083b80e5216ca31350a2d21702ac3650d",
                    "gasUsed": 2602,
                    "id": 19,
                    "methodDecoded": true,
                    "operation": "STATICCALL",
                    "output": "0x000000000000000000000000000000000000000000002a9f13ad54bfcdc2844f",
                    "revert": false,
                    "revertMessage": "",
                    "selector": "0x70a08231",
                    "status": true,
                    "value": "0"
                },
                "nodeType": 0
            },
            "2": {
                "invocation": {
                    "address": "0x4a14347083b80e5216ca31350a2d21702ac3650d",
                    "callData": "0x000000000000000000000000bebc44782c7db0a1a60cb6fe97d0b483032ff1c7000000000000000000000000dac17f958d2ee523a2206206994597c13d831ec70000000000000000000000006b175474e89094c44da98b954eedeac495271d0f00000000000000000000000000000000000000000000000000000005ac32f9e00000000000000000000000000000000000000000000005209bc1064778c3a800000000000000000000000000fd51d34e32f684e368fa401dd87897ef301c0c18000000000000000000000000fd51d34e32f684e368fa401dd87897ef301c0c189e8edccaa0bac869fa117920611cd01a38b677f6a5c6e7893c1151126dabfdb4000000000000000000000000000000000000000000000000000000006440a6ce000000000000000000000000000000000000000000000000000000000000001000000000000000000000000000000000000000000000000000000000000001a0000000000000000000000000000000000000000000000000000000000000024000000000000000000000000000000000000000000000000000000000000002600000000000000000000000000000000000000000000000000000000000000062f3b9021658334386e936a861e981942d164e761e9c6d6cb1e83b4d9bcaf1fdd335d6cb49648640363f6b52f5a20cb700ca4842d8c9601900072541ac4ddb773a1b00000000000000000000000000000000000000000000000000000000000000000200000000000000000000000000000000000000000000000000000000000000000000000000000000000000000000000000000000000000000000000000000000000000000000000000000000000000000000000000000000000000000000",
                    "decodedMethod": {
                        "callParams": [
                            {
                                "name": "_order",
                                "type": "(address,address,address,uint256,uint256,address,address,uint256,uint256)",
                                "value": [
                                    {
                                        "name": "makerAddr",
                                        "type": "address",
                                        "value": "0xbebc44782c7db0a1a60cb6fe97d0b483032ff1c7"
                                    },
                                    {
                                        "name": "takerAssetAddr",
                                        "type": "address",
                                        "value": "0xdac17f958d2ee523a2206206994597c13d831ec7"
                                    },
                                    {
                                        "name": "makerAssetAddr",
                                        "type": "address",
                                        "value": "0x6b175474e89094c44da98b954eedeac495271d0f"
                                    },
                                    {
                                        "name": "takerAssetAmount",
                                        "type": "uint256",
                                        "value": "24,363,858,400"
                                    },
                                    {
                                        "name": "makerAssetAmount",
                                        "type": "uint256",
                                        "value": "24,213,351,483,357,354,240,000"
                                    },
                                    {
                                        "name": "userAddr",
                                        "type": "address",
                                        "value": "0xfd51d34e32f684e368fa401dd87897ef301c0c18"
                                    },
                                    {
                                        "name": "receiverAddr",
                                        "type": "address",
                                        "value": "0xfd51d34e32f684e368fa401dd87897ef301c0c18"
                                    },
                                    {
                                        "name": "salt",
                                        "type": "uint256",
                                        "value": "71,717,846,206,386,945,307,969,295,449,238,400,623,451,802,680,180,357,198,042,778,304,819,722,190,260"
                                    },
                                    {
                                        "name": "deadline",
                                        "type": "uint256",
                                        "value": "1,681,958,606"
                                    }
                                ]
                            },
                            {
                                "name": "_feeFactor",
                                "type": "uint256",
                                "value": "16"
                            },
                            {
                                "name": "_sig",
                                "type": "bytes",
                                "value": "0xf3b9021658334386e936a861e981942d164e761e9c6d6cb1e83b4d9bcaf1fdd335d6cb49648640363f6b52f5a20cb700ca4842d8c9601900072541ac4ddb773a1b000000000000000000000000000000000000000000000000000000000000000002"
                            },
                            {
                                "name": "_makerSpecificData",
                                "type": "bytes",
                                "value": "0x"
                            },
                            {
                                "name": "_path",
                                "type": "address[]",
                                "value": []
                            }
                        ],
                        "constructorArguments": "",
                        "name": "trade",
                        "returnParams": [
                            {
                                "name": "",
                                "type": "uint256",
                                "value": "24,335,026,500,445,489,667,359"
                            }
                        ],
                        "signature": "trade((address,address,address,uint256,uint256,address,address,uint256,uint256),uint256,bytes,bytes,address[])"
                    },
                    "errorInfo": "",
                    "fromAddress": "0x03f34be1bf910116595db1b11e9d1b2ca5d59659",
                    "gasUsed": 303787,
                    "id": 2,
                    "methodDecoded": true,
                    "operation": "CALL",
                    "output": "0x000000000000000000000000000000000000000000000527345585a8b2a91d1f",
                    "revert": false,
                    "revertMessage": "",
                    "selector": "0x48093018",
                    "status": true,
                    "value": "0"
                },
                "nodeType": 0
            },
            "20": {
                "invocation": {
                    "address": "0xbebc44782c7db0a1a60cb6fe97d0b483032ff1c7",
                    "callData": "0x0000000000000000000000000000000000000000000000000000000000000002000000000000000000000000000000000000000000000000000000000000000000000000000000000000000000000000000000000000000000000005ac32f9e00000000000000000000000000000000000000000000005201557c8531de31e00",
                    "decodedMethod": {
                        "callParams": [
                            {
                                "name": "i",
                                "type": "int128",
                                "value": "2"
                            },
                            {
                                "name": "j",
                                "type": "int128",
                                "value": "0"
                            },
                            {
                                "name": "",
                                "type": "uint256",
                                "value": "24,363,858,400"
                            },
                            {
                                "name": "",
                                "type": "uint256",
                                "value": "24,203,666,142,764,011,298,304"
                            }
                        ],
                        "constructorArguments": "",
                        "name": "exchange",
                        "returnParams": [],
                        "signature": "exchange(int128,int128,uint256,uint256)"
                    },
                    "errorInfo": "",
                    "fromAddress": "0x4a14347083b80e5216ca31350a2d21702ac3650d",
                    "gasUsed": 103825,
                    "id": 20,
                    "methodDecoded": true,
                    "operation": "CALL",
                    "output": "",
                    "revert": false,
                    "revertMessage": "",
                    "selector": "0x3df02124",
                    "status": true,
                    "value": "0"
                },
                "nodeType": 0
            },
            "21": {
                "invocation": {
                    "address": "0xdac17f958d2ee523a2206206994597c13d831ec7",
                    "callData": "0x000000000000000000000000bebc44782c7db0a1a60cb6fe97d0b483032ff1c7",
                    "decodedMethod": {
                        "callParams": [
                            {
                                "name": "who",
                                "type": "address",
                                "value": "0xbebc44782c7db0a1a60cb6fe97d0b483032ff1c7"
                            }
                        ],
                        "constructorArguments": "",
                        "name": "balanceOf",
                        "returnParams": [
                            {
                                "decimalAvailable": true,
                                "name": "",
                                "type": "uint256",
                                "value": "85,542,973,534,364"
                            }
                        ],
                        "signature": "balanceOf(address)"
                    },
                    "errorInfo": "",
                    "fromAddress": "0xbebc44782c7db0a1a60cb6fe97d0b483032ff1c7",
                    "gasUsed": 3031,
                    "id": 21,
                    "methodDecoded": true,
                    "operation": "STATICCALL",
                    "output": "0x00000000000000000000000000000000000000000000000000004dcd068cf09c",
                    "revert": false,
                    "revertMessage": "",
                    "selector": "0x70a08231",
                    "status": true,
                    "value": "0"
                },
                "nodeType": 0
            },
            "22": {
                "invocation": {
                    "address": "0x0000000000000000000000000000000000000004",
                    "callData": "0x",
                    "decodedMethod": {
                        "callParams": [
                            {
                                "name": "data",
                                "type": "bytes",
                                "value": "0x23b872dd"
                            }
                        ],
                        "constructorArguments": "",
                        "name": "dataCopy()",
                        "returnParams": [
                            {
                                "name": "data",
                                "type": "bytes",
                                "value": "0x23b872dd"
                            }
                        ],
                        "signature": "dataCopy(bytes)"
                    },
                    "errorInfo": "",
                    "fromAddress": "0xbebc44782c7db0a1a60cb6fe97d0b483032ff1c7",
                    "gasUsed": 18,
                    "id": 22,
                    "methodDecoded": true,
                    "operation": "CALL",
                    "output": "0x23b872dd",
                    "revert": false,
                    "revertMessage": "",
                    "selector": "0x23b872dd",
                    "status": true,
                    "value": "0"
                },
                "nodeType": 0
            },
            "23": {
                "invocation": {
                    "address": "0x0000000000000000000000000000000000000004",
                    "callData": "0x0000000000000000000000000000000000000000000000000000006423b872dd0000000000000000000000004a14347083b80e5216ca31350a2d21702ac3650d000000000000000000000000bebc44782c7db0a1a60cb6fe97d0b483032ff1c700000000000000000000000000000000000000000000000000000005ac32f9e0",
                    "decodedMethod": {
                        "callParams": [
                            {
                                "name": "data",
                                "type": "bytes",
                                "value": "0x000000000000000000000000000000000000000000000000000000000000006423b872dd0000000000000000000000004a14347083b80e5216ca31350a2d21702ac3650d000000000000000000000000bebc44782c7db0a1a60cb6fe97d0b483032ff1c700000000000000000000000000000000000000000000000000000005ac32f9e0"
                            }
                        ],
                        "constructorArguments": "",
                        "name": "dataCopy()",
                        "returnParams": [
                            {
                                "name": "data",
                                "type": "bytes",
                                "value": "0x000000000000000000000000000000000000000000000000000000000000006423b872dd0000000000000000000000004a14347083b80e5216ca31350a2d21702ac3650d000000000000000000000000bebc44782c7db0a1a60cb6fe97d0b483032ff1c700000000000000000000000000000000000000000000000000000005ac32f9e0"
                            }
                        ],
                        "signature": "dataCopy(bytes)"
                    },
                    "errorInfo": "",
                    "fromAddress": "0xbebc44782c7db0a1a60cb6fe97d0b483032ff1c7",
                    "gasUsed": 30,
                    "id": 23,
                    "methodDecoded": true,
                    "operation": "CALL",
                    "output": "0x000000000000000000000000000000000000000000000000000000000000006423b872dd0000000000000000000000004a14347083b80e5216ca31350a2d21702ac3650d000000000000000000000000bebc44782c7db0a1a60cb6fe97d0b483032ff1c700000000000000000000000000000000000000000000000000000005ac32f9e0",
                    "revert": false,
                    "revertMessage": "",
                    "selector": "0x00000000",
                    "status": true,
                    "value": "0"
                },
                "nodeType": 0
            },
            "24": {
                "invocation": {
                    "address": "0xdac17f958d2ee523a2206206994597c13d831ec7",
                    "callData": "0x0000000000000000000000004a14347083b80e5216ca31350a2d21702ac3650d000000000000000000000000bebc44782c7db0a1a60cb6fe97d0b483032ff1c700000000000000000000000000000000000000000000000000000005ac32f9e0",
                    "decodedMethod": {
                        "callParams": [
                            {
                                "name": "_from",
                                "type": "address",
                                "value": "0x4a14347083b80e5216ca31350a2d21702ac3650d"
                            },
                            {
                                "name": "_to",
                                "type": "address",
                                "value": "0xbebc44782c7db0a1a60cb6fe97d0b483032ff1c7"
                            },
                            {
                                "decimalAvailable": true,
                                "name": "_value",
                                "type": "uint256",
                                "value": "24,363,858,400"
                            }
                        ],
                        "constructorArguments": "",
                        "name": "transferFrom",
                        "returnParams": [],
                        "signature": "transferFrom(address,address,uint256)"
                    },
                    "errorInfo": "",
                    "fromAddress": "0xbebc44782c7db0a1a60cb6fe97d0b483032ff1c7",
                    "gasUsed": 9730,
                    "id": 24,
                    "methodDecoded": true,
                    "operation": "CALL",
                    "output": "",
                    "revert": false,
                    "revertMessage": "",
                    "selector": "0x23b872dd",
                    "status": true,
                    "value": "0"
                },
                "nodeType": 0
            },
            "25": {
                "event": {
                    "contract": "0xdac17f958d2ee523a2206206994597c13d831ec7",
                    "decodedLog": {
                        "name": "Transfer",
                        "params": [
                            {
                                "name": "from",
                                "type": "address",
                                "value": "0x4a14347083b80e5216ca31350a2d21702ac3650d"
                            },
                            {
                                "name": "to",
                                "type": "address",
                                "value": "0xbebc44782c7db0a1a60cb6fe97d0b483032ff1c7"
                            },
                            {
                                "decimalAvailable": true,
                                "name": "value",
                                "type": "uint256",
                                "value": "24,363,858,400"
                            }
                        ],
                        "signature": "Transfer(address,address,uint256)"
                    },
                    "id": 25,
                    "logData": "0x00000000000000000000000000000000000000000000000000000005ac32f9e0",
                    "logDecoded": true,
                    "operation": "EVENT",
                    "revert": false,
                    "status": true,
                    "topics": [
                        "0xddf252ad1be2c89b69c2b068fc378daa952ba7f163c4a11628f55a4df523b3ef",
                        "0x0000000000000000000000004a14347083b80e5216ca31350a2d21702ac3650d",
                        "0x000000000000000000000000bebc44782c7db0a1a60cb6fe97d0b483032ff1c7"
                    ]
                },
                "nodeType": 1
            },
            "26": {
                "invocation": {
                    "address": "0x0000000000000000000000000000000000000004",
                    "callData": "0x00000000000000000000000000000000000000000000000000000000",
                    "decodedMethod": {
                        "callParams": [
                            {
                                "name": "data",
                                "type": "bytes",
                                "value": "0x0000000000000000000000000000000000000000000000000000000000000000"
                            }
                        ],
                        "constructorArguments": "",
                        "name": "dataCopy()",
                        "returnParams": [
                            {
                                "name": "data",
                                "type": "bytes",
                                "value": "0x0000000000000000000000000000000000000000000000000000000000000000"
                            }
                        ],
                        "signature": "dataCopy(bytes)"
                    },
                    "errorInfo": "",
                    "fromAddress": "0xbebc44782c7db0a1a60cb6fe97d0b483032ff1c7",
                    "gasUsed": 18,
                    "id": 26,
                    "methodDecoded": true,
                    "operation": "CALL",
                    "output": "0x0000000000000000000000000000000000000000000000000000000000000000",
                    "revert": false,
                    "revertMessage": "",
                    "selector": "0x00000000",
                    "status": true,
                    "value": "0"
                },
                "nodeType": 0
            },
            "27": {
                "invocation": {
                    "address": "0xdac17f958d2ee523a2206206994597c13d831ec7",
                    "callData": "0x000000000000000000000000bebc44782c7db0a1a60cb6fe97d0b483032ff1c7",
                    "decodedMethod": {
                        "callParams": [
                            {
                                "name": "who",
                                "type": "address",
                                "value": "0xbebc44782c7db0a1a60cb6fe97d0b483032ff1c7"
                            }
                        ],
                        "constructorArguments": "",
                        "name": "balanceOf",
                        "returnParams": [
                            {
                                "decimalAvailable": true,
                                "name": "",
                                "type": "uint256",
                                "value": "85,567,337,392,764"
                            }
                        ],
                        "signature": "balanceOf(address)"
                    },
                    "errorInfo": "",
                    "fromAddress": "0xbebc44782c7db0a1a60cb6fe97d0b483032ff1c7",
                    "gasUsed": 1031,
                    "id": 27,
                    "methodDecoded": true,
                    "operation": "STATICCALL",
                    "output": "0x00000000000000000000000000000000000000000000000000004dd2b2bfea7c",
                    "revert": false,
                    "revertMessage": "",
                    "selector": "0x70a08231",
                    "status": true,
                    "value": "0"
                },
                "nodeType": 0
            },
            "28": {
                "invocation": {
                    "address": "0x0000000000000000000000000000000000000004",
                    "callData": "0x",
                    "decodedMethod": {
                        "callParams": [
                            {
                                "name": "data",
                                "type": "bytes",
                                "value": "0xa9059cbb"
                            }
                        ],
                        "constructorArguments": "",
                        "name": "dataCopy()",
                        "returnParams": [
                            {
                                "name": "data",
                                "type": "bytes",
                                "value": "0xa9059cbb"
                            }
                        ],
                        "signature": "dataCopy(bytes)"
                    },
                    "errorInfo": "",
                    "fromAddress": "0xbebc44782c7db0a1a60cb6fe97d0b483032ff1c7",
                    "gasUsed": 18,
                    "id": 28,
                    "methodDecoded": true,
                    "operation": "CALL",
                    "output": "0xa9059cbb",
                    "revert": false,
                    "revertMessage": "",
                    "selector": "0xa9059cbb",
                    "status": true,
                    "value": "0"
                },
                "nodeType": 0
            },
            "29": {
                "invocation": {
                    "address": "0x0000000000000000000000000000000000000004",
                    "callData": "0x00000000000000000000000000000000000000000000000000000044a9059cbb0000000000000000000000004a14347083b80e5216ca31350a2d21702ac3650d000000000000000000000000000000000000000000000529518bd0212c62000b",
                    "decodedMethod": {
                        "callParams": [
                            {
                                "name": "data",
                                "type": "bytes",
                                "value": "0x0000000000000000000000000000000000000000000000000000000000000044a9059cbb0000000000000000000000004a14347083b80e5216ca31350a2d21702ac3650d000000000000000000000000000000000000000000000529518bd0212c62000b"
                            }
                        ],
                        "constructorArguments": "",
                        "name": "dataCopy()",
                        "returnParams": [
                            {
                                "name": "data",
                                "type": "bytes",
                                "value": "0x0000000000000000000000000000000000000000000000000000000000000044a9059cbb0000000000000000000000004a14347083b80e5216ca31350a2d21702ac3650d000000000000000000000000000000000000000000000529518bd0212c62000b"
                            }
                        ],
                        "signature": "dataCopy(bytes)"
                    },
                    "errorInfo": "",
                    "fromAddress": "0xbebc44782c7db0a1a60cb6fe97d0b483032ff1c7",
                    "gasUsed": 27,
                    "id": 29,
                    "methodDecoded": true,
                    "operation": "CALL",
                    "output": "0x0000000000000000000000000000000000000000000000000000000000000044a9059cbb0000000000000000000000004a14347083b80e5216ca31350a2d21702ac3650d000000000000000000000000000000000000000000000529518bd0212c62000b",
                    "revert": false,
                    "revertMessage": "",
                    "selector": "0x00000000",
                    "status": true,
                    "value": "0"
                },
                "nodeType": 0
            },
            "3": {
                "invocation": {
                    "address": "0x6d9cc14a1d36e6ff13fc6efa9e9326fcd12e7903",
                    "callData": "0x00000000000000000000000036be25b28316697a1757b9b4d75b73adbad86420",
                    "decodedMethod": {
                        "callParams": [
                            {
                                "name": "_relayer",
                                "type": "address",
                                "value": "0x36be25b28316697a1757b9b4d75b73adbad86420"
                            }
                        ],
                        "constructorArguments": "",
                        "name": "isRelayerValid",
                        "returnParams": [
                            {
                                "name": "",
                                "type": "bool",
                                "value": true
                            }
                        ],
                        "signature": "isRelayerValid(address)"
                    },
                    "errorInfo": "",
                    "fromAddress": "0x4a14347083b80e5216ca31350a2d21702ac3650d",
                    "gasUsed": 9776,
                    "id": 3,
                    "methodDecoded": true,
                    "operation": "STATICCALL",
                    "output": "0x0000000000000000000000000000000000000000000000000000000000000001",
                    "revert": false,
                    "revertMessage": "",
                    "selector": "0x2feeea3a",
                    "status": true,
                    "value": "0"
                },
                "nodeType": 0
            },
            "30": {
                "invocation": {
                    "address": "0x6b175474e89094c44da98b954eedeac495271d0f",
                    "callData": "0x0000000000000000000000004a14347083b80e5216ca31350a2d21702ac3650d000000000000000000000000000000000000000000000529518bd0212c62000b",
                    "decodedMethod": {
                        "callParams": [
                            {
                                "name": "dst",
                                "type": "address",
                                "value": "0x4a14347083b80e5216ca31350a2d21702ac3650d"
                            },
                            {
                                "decimalAvailable": true,
                                "name": "wad",
                                "type": "uint256",
                                "value": "24,374,024,940,350,049,746,955"
                            }
                        ],
                        "constructorArguments": "",
                        "name": "transfer",
                        "returnParams": [
                            {
                                "name": "",
                                "type": "bool",
                                "value": true
                            }
                        ],
                        "signature": "transfer(address,uint256)"
                    },
                    "errorInfo": "",
                    "fromAddress": "0xbebc44782c7db0a1a60cb6fe97d0b483032ff1c7",
                    "gasUsed": 11074,
                    "id": 30,
                    "methodDecoded": true,
                    "operation": "CALL",
                    "output": "0x0000000000000000000000000000000000000000000000000000000000000001",
                    "revert": false,
                    "revertMessage": "",
                    "selector": "0xa9059cbb",
                    "status": true,
                    "value": "0"
                },
                "nodeType": 0
            },
            "31": {
                "event": {
                    "contract": "0x6b175474e89094c44da98b954eedeac495271d0f",
                    "decodedLog": {
                        "name": "Transfer",
                        "params": [
                            {
                                "name": "src",
                                "type": "address",
                                "value": "0xbebc44782c7db0a1a60cb6fe97d0b483032ff1c7"
                            },
                            {
                                "name": "dst",
                                "type": "address",
                                "value": "0x4a14347083b80e5216ca31350a2d21702ac3650d"
                            },
                            {
                                "decimalAvailable": true,
                                "name": "wad",
                                "type": "uint256",
                                "value": "24,374,024,940,350,049,746,955"
                            }
                        ],
                        "signature": "Transfer(address,address,uint256)"
                    },
                    "id": 31,
                    "logData": "0x000000000000000000000000000000000000000000000529518bd0212c62000b",
                    "logDecoded": true,
                    "operation": "EVENT",
                    "revert": false,
                    "status": true,
                    "topics": [
                        "0xddf252ad1be2c89b69c2b068fc378daa952ba7f163c4a11628f55a4df523b3ef",
                        "0x000000000000000000000000bebc44782c7db0a1a60cb6fe97d0b483032ff1c7",
                        "0x0000000000000000000000004a14347083b80e5216ca31350a2d21702ac3650d"
                    ]
                },
                "nodeType": 1
            },
            "32": {
                "invocation": {
                    "address": "0x0000000000000000000000000000000000000004",
                    "callData": "0x000000000000000000000000000000000000000000000000000000200000000000000000000000000000000000000000000000000000000000000001",
                    "decodedMethod": {
                        "callParams": [
                            {
                                "name": "data",
                                "type": "bytes",
                                "value": "0x00000000000000000000000000000000000000000000000000000000000000200000000000000000000000000000000000000000000000000000000000000001"
                            }
                        ],
                        "constructorArguments": "",
                        "name": "dataCopy()",
                        "returnParams": [
                            {
                                "name": "data",
                                "type": "bytes",
                                "value": "0x00000000000000000000000000000000000000000000000000000000000000200000000000000000000000000000000000000000000000000000000000000001"
                            }
                        ],
                        "signature": "dataCopy(bytes)"
                    },
                    "errorInfo": "",
                    "fromAddress": "0xbebc44782c7db0a1a60cb6fe97d0b483032ff1c7",
                    "gasUsed": 21,
                    "id": 32,
                    "methodDecoded": true,
                    "operation": "CALL",
                    "output": "0x00000000000000000000000000000000000000000000000000000000000000200000000000000000000000000000000000000000000000000000000000000001",
                    "revert": false,
                    "revertMessage": "",
                    "selector": "0x00000000",
                    "status": true,
                    "value": "0"
                },
                "nodeType": 0
            },
            "33": {
                "event": {
                    "contract": "0xbebc44782c7db0a1a60cb6fe97d0b483032ff1c7",
                    "decodedLog": {
                        "name": "TokenExchange",
                        "params": [
                            {
                                "name": "buyer",
                                "type": "address",
                                "value": "0x4a14347083b80e5216ca31350a2d21702ac3650d"
                            },
                            {
                                "name": "sold_id",
                                "type": "int128",
                                "value": "2"
                            },
                            {
                                "name": "tokens_sold",
                                "type": "uint256",
                                "value": "24,363,858,400"
                            },
                            {
                                "name": "bought_id",
                                "type": "int128",
                                "value": "0"
                            },
                            {
                                "name": "tokens_bought",
                                "type": "uint256",
                                "value": "24,374,024,940,350,049,746,955"
                            }
                        ],
                        "signature": "TokenExchange(address,int128,uint256,int128,uint256)"
                    },
                    "id": 33,
                    "logData": "0x000000000000000000000000000000000000000000000000000000000000000200000000000000000000000000000000000000000000000000000005ac32f9e00000000000000000000000000000000000000000000000000000000000000000000000000000000000000000000000000000000000000529518bd0212c62000b",
                    "logDecoded": true,
                    "operation": "EVENT",
                    "revert": false,
                    "status": true,
                    "topics": [
                        "0x8b3e96f2b889fa771c53c981b40daf005f63f637f1869f707052d15a3dd97140",
                        "0x0000000000000000000000004a14347083b80e5216ca31350a2d21702ac3650d"
                    ]
                },
                "nodeType": 1
            },
            "34": {
                "invocation": {
                    "address": "0x6b175474e89094c44da98b954eedeac495271d0f",
                    "callData": "0x0000000000000000000000004a14347083b80e5216ca31350a2d21702ac3650d",
                    "decodedMethod": {
                        "callParams": [
                            {
                                "name": "",
                                "type": "address",
                                "value": "0x4a14347083b80e5216ca31350a2d21702ac3650d"
                            }
                        ],
                        "constructorArguments": "",
                        "name": "balanceOf",
                        "returnParams": [
                            {
                                "decimalAvailable": true,
                                "name": "",
                                "type": "uint256",
                                "value": "225,647,867,411,235,426,567,258"
                            }
                        ],
                        "signature": "balanceOf(address)"
                    },
                    "errorInfo": "",
                    "fromAddress": "0x4a14347083b80e5216ca31350a2d21702ac3650d",
                    "gasUsed": 602,
                    "id": 34,
                    "methodDecoded": true,
                    "operation": "STATICCALL",
                    "output": "0x000000000000000000000000000000000000000000002fc8653924e0fa24845a",
                    "revert": false,
                    "revertMessage": "",
                    "selector": "0x70a08231",
                    "status": true,
                    "value": "0"
                },
                "nodeType": 0
            },
            "35": {
                "invocation": {
                    "address": "0xdac17f958d2ee523a2206206994597c13d831ec7",
                    "callData": "0x000000000000000000000000bebc44782c7db0a1a60cb6fe97d0b483032ff1c70000000000000000000000000000000000000000000000000000000000000000",
                    "decodedMethod": {
                        "callParams": [
                            {
                                "name": "_spender",
                                "type": "address",
                                "value": "0xbebc44782c7db0a1a60cb6fe97d0b483032ff1c7"
                            },
                            {
                                "decimalAvailable": true,
                                "name": "_value",
                                "type": "uint256",
                                "value": "0"
                            }
                        ],
                        "constructorArguments": "",
                        "name": "approve",
                        "returnParams": [],
                        "signature": "approve(address,uint256)"
                    },
                    "errorInfo": "",
                    "fromAddress": "0x4a14347083b80e5216ca31350a2d21702ac3650d",
                    "gasUsed": 2760,
                    "id": 35,
                    "methodDecoded": true,
                    "operation": "CALL",
                    "output": "",
                    "revert": false,
                    "revertMessage": "",
                    "selector": "0x095ea7b3",
                    "status": true,
                    "value": "0"
                },
                "nodeType": 0
            },
            "36": {
                "event": {
                    "contract": "0xdac17f958d2ee523a2206206994597c13d831ec7",
                    "decodedLog": {
                        "name": "Approval",
                        "params": [
                            {
                                "name": "owner",
                                "type": "address",
                                "value": "0x4a14347083b80e5216ca31350a2d21702ac3650d"
                            },
                            {
                                "name": "spender",
                                "type": "address",
                                "value": "0xbebc44782c7db0a1a60cb6fe97d0b483032ff1c7"
                            },
                            {
                                "decimalAvailable": true,
                                "name": "value",
                                "type": "uint256",
                                "value": "0"
                            }
                        ],
                        "signature": "Approval(address,address,uint256)"
                    },
                    "id": 36,
                    "logData": "0x0000000000000000000000000000000000000000000000000000000000000000",
                    "logDecoded": true,
                    "operation": "EVENT",
                    "revert": false,
                    "status": true,
                    "topics": [
                        "0x8c5be1e5ebec7d5bd14f71427d1e84f3dd0314c0f7b2291e5b200ac8c7c3b925",
                        "0x0000000000000000000000004a14347083b80e5216ca31350a2d21702ac3650d",
                        "0x000000000000000000000000bebc44782c7db0a1a60cb6fe97d0b483032ff1c7"
                    ]
                },
                "nodeType": 1
            },
            "37": {
                "invocation": {
                    "address": "0x6b175474e89094c44da98b954eedeac495271d0f",
                    "callData": "0x000000000000000000000000fd51d34e32f684e368fa401dd87897ef301c0c18000000000000000000000000000000000000000000000527345585a8b2a91d1f",
                    "decodedMethod": {
                        "callParams": [
                            {
                                "name": "dst",
                                "type": "address",
                                "value": "0xfd51d34e32f684e368fa401dd87897ef301c0c18"
                            },
                            {
                                "decimalAvailable": true,
                                "name": "wad",
                                "type": "uint256",
                                "value": "24,335,026,500,445,489,667,359"
                            }
                        ],
                        "constructorArguments": "",
                        "name": "transfer",
                        "returnParams": [
                            {
                                "name": "",
                                "type": "bool",
                                "value": true
                            }
                        ],
                        "signature": "transfer(address,uint256)"
                    },
                    "errorInfo": "",
                    "fromAddress": "0x4a14347083b80e5216ca31350a2d21702ac3650d",
                    "gasUsed": 25374,
                    "id": 37,
                    "methodDecoded": true,
                    "operation": "CALL",
                    "output": "0x0000000000000000000000000000000000000000000000000000000000000001",
                    "revert": false,
                    "revertMessage": "",
                    "selector": "0xa9059cbb",
                    "status": true,
                    "value": "0"
                },
                "nodeType": 0
            },
            "38": {
                "event": {
                    "contract": "0x6b175474e89094c44da98b954eedeac495271d0f",
                    "decodedLog": {
                        "name": "Transfer",
                        "params": [
                            {
                                "name": "src",
                                "type": "address",
                                "value": "0x4a14347083b80e5216ca31350a2d21702ac3650d"
                            },
                            {
                                "name": "dst",
                                "type": "address",
                                "value": "0xfd51d34e32f684e368fa401dd87897ef301c0c18"
                            },
                            {
                                "decimalAvailable": true,
                                "name": "wad",
                                "type": "uint256",
                                "value": "24,335,026,500,445,489,667,359"
                            }
                        ],
                        "signature": "Transfer(address,address,uint256)"
                    },
                    "id": 38,
                    "logData": "0x000000000000000000000000000000000000000000000527345585a8b2a91d1f",
                    "logDecoded": true,
                    "operation": "EVENT",
                    "revert": false,
                    "status": true,
                    "topics": [
                        "0xddf252ad1be2c89b69c2b068fc378daa952ba7f163c4a11628f55a4df523b3ef",
                        "0x0000000000000000000000004a14347083b80e5216ca31350a2d21702ac3650d",
                        "0x000000000000000000000000fd51d34e32f684e368fa401dd87897ef301c0c18"
                    ]
                },
                "nodeType": 1
            },
            "39": {
                "event": {
                    "contract": "0x4a14347083b80e5216ca31350a2d21702ac3650d",
                    "decodedLog": {
                        "name": "Swapped",
                        "params": [
                            {
                                "name": "arg0",
                                "type": "(string,bytes32,uint256,uint256,uint16,uint16)",
                                "value": [
                                    {
                                        "name": "source",
                                        "type": "string",
                                        "value": "Curve"
                                    },
                                    {
                                        "name": "transactionHash",
                                        "type": "bytes32",
                                        "value": "0x169ab02979c67a17b3119d226fa6e335c351e63c6436eb2eb63909dbee70c7aa"
                                    },
                                    {
                                        "name": "settleAmount",
                                        "type": "uint256",
                                        "value": "24,335,026,500,445,489,667,359"
                                    },
                                    {
                                        "name": "receivedAmount",
                                        "type": "uint256",
                                        "value": "24,374,024,940,350,049,746,955"
                                    },
                                    {
                                        "name": "feeFactor",
                                        "type": "uint16",
                                        "value": "16"
                                    },
                                    {
                                        "name": "subsidyFactor",
                                        "type": "uint16",
                                        "value": "4"
                                    }
                                ]
                            },
                            {
                                "name": "order",
                                "type": "(address,address,address,uint256,uint256,address,address,uint256,uint256)",
                                "value": [
                                    {
                                        "name": "makerAddr",
                                        "type": "address",
                                        "value": "0xbebc44782c7db0a1a60cb6fe97d0b483032ff1c7"
                                    },
                                    {
                                        "name": "takerAssetAddr",
                                        "type": "address",
                                        "value": "0xdac17f958d2ee523a2206206994597c13d831ec7"
                                    },
                                    {
                                        "name": "makerAssetAddr",
                                        "type": "address",
                                        "value": "0x6b175474e89094c44da98b954eedeac495271d0f"
                                    },
                                    {
                                        "name": "takerAssetAmount",
                                        "type": "uint256",
                                        "value": "24,363,858,400"
                                    },
                                    {
                                        "name": "makerAssetAmount",
                                        "type": "uint256",
                                        "value": "24,213,351,483,357,354,240,000"
                                    },
                                    {
                                        "name": "userAddr",
                                        "type": "address",
                                        "value": "0xfd51d34e32f684e368fa401dd87897ef301c0c18"
                                    },
                                    {
                                        "name": "receiverAddr",
                                        "type": "address",
                                        "value": "0xfd51d34e32f684e368fa401dd87897ef301c0c18"
                                    },
                                    {
                                        "name": "salt",
                                        "type": "uint256",
                                        "value": "71,717,846,206,386,945,307,969,295,449,238,400,623,451,802,680,180,357,198,042,778,304,819,722,190,260"
                                    },
                                    {
                                        "name": "deadline",
                                        "type": "uint256",
                                        "value": "1,681,958,606"
                                    }
                                ]
                            }
                        ],
                        "signature": "Swapped((string,bytes32,uint256,uint256,uint16,uint16),(address,address,address,uint256,uint256,address,address,uint256,uint256))"
                    },
                    "id": 39,
                    "logData": "0x0000000000000000000000000000000000000000000000000000000000000140000000000000000000000000bebc44782c7db0a1a60cb6fe97d0b483032ff1c7000000000000000000000000dac17f958d2ee523a2206206994597c13d831ec70000000000000000000000006b175474e89094c44da98b954eedeac495271d0f00000000000000000000000000000000000000000000000000000005ac32f9e00000000000000000000000000000000000000000000005209bc1064778c3a800000000000000000000000000fd51d34e32f684e368fa401dd87897ef301c0c18000000000000000000000000fd51d34e32f684e368fa401dd87897ef301c0c189e8edccaa0bac869fa117920611cd01a38b677f6a5c6e7893c1151126dabfdb4000000000000000000000000000000000000000000000000000000006440a6ce00000000000000000000000000000000000000000000000000000000000000c0169ab02979c67a17b3119d226fa6e335c351e63c6436eb2eb63909dbee70c7aa000000000000000000000000000000000000000000000527345585a8b2a91d1f000000000000000000000000000000000000000000000529518bd0212c62000b0000000000000000000000000000000000000000000000000000000000000010000000000000000000000000000000000000000000000000000000000000000400000000000000000000000000000000000000000000000000000000000000054375727665000000000000000000000000000000000000000000000000000000",
                    "logDecoded": true,
                    "operation": "EVENT",
                    "revert": false,
                    "status": true,
                    "topics": [
                        "0xc36ae6e11a161c28ae95fc0f8c0f56d3d0fb7f3a3524499c53fb6733ed86764d"
                    ]
                },
                "nodeType": 1
            },
            "4": {
                "invocation": {
                    "address": "0x670ac90bb1b55ed7f8943c1e1ef668281511afd8",
                    "callData": "0x00000000000000000000000036be25b28316697a1757b9b4d75b73adbad86420",
                    "decodedMethod": {
                        "callParams": [
                            {
                                "name": "_relayer",
                                "type": "address",
                                "value": "0x36be25b28316697a1757b9b4d75b73adbad86420"
                            }
                        ],
                        "constructorArguments": "",
                        "name": "isRelayerValid",
                        "returnParams": [
                            {
                                "name": "",
                                "type": "bool",
                                "value": true
                            }
                        ],
                        "signature": "isRelayerValid(address)"
                    },
                    "errorInfo": "",
                    "fromAddress": "0x6d9cc14a1d36e6ff13fc6efa9e9326fcd12e7903",
                    "gasUsed": 2576,
                    "id": 4,
                    "methodDecoded": true,
                    "operation": "DELEGATECALL",
                    "output": "0x0000000000000000000000000000000000000000000000000000000000000001",
                    "revert": false,
                    "revertMessage": "",
                    "selector": "0x2feeea3a",
                    "status": true,
                    "value": "0"
                },
                "nodeType": 0
            },
            "5": {
                "invocation": {
                    "address": "0x0000000000000000000000000000000000000001",
                    "callData": "0xdc72f39727bba0dc93a74b1bbbcd33bc26907ebf42a6e866bb2a876f000000000000000000000000000000000000000000000000000000000000001bf3b9021658334386e936a861e981942d164e761e9c6d6cb1e83b4d9bcaf1fdd335d6cb49648640363f6b52f5a20cb700ca4842d8c9601900072541ac4ddb773a",
                    "decodedMethod": {
                        "callParams": [
                            {
                                "name": "hash",
                                "type": "bytes32",
                                "value": "0x1e34b459dc72f39727bba0dc93a74b1bbbcd33bc26907ebf42a6e866bb2a876f"
                            },
                            {
                                "name": "v",
                                "type": "uint256",
                                "value": "27"
                            },
                            {
                                "name": "r",
                                "type": "bytes32",
                                "value": "0xf3b9021658334386e936a861e981942d164e761e9c6d6cb1e83b4d9bcaf1fdd3"
                            },
                            {
                                "name": "s",
                                "type": "bytes32",
                                "value": "0x35d6cb49648640363f6b52f5a20cb700ca4842d8c9601900072541ac4ddb773a"
                            }
                        ],
                        "constructorArguments": "",
                        "name": "ecrecover",
                        "returnParams": [
                            {
                                "name": "",
                                "type": "address",
                                "value": "0xfd51d34e32f684e368fa401dd87897ef301c0c18"
                            }
                        ],
                        "signature": "ecrecover(bytes32,uint256,bytes32,bytes32)"
                    },
                    "errorInfo": "",
                    "fromAddress": "0x4a14347083b80e5216ca31350a2d21702ac3650d",
                    "gasUsed": 3000,
                    "id": 5,
                    "methodDecoded": true,
                    "operation": "STATICCALL",
                    "output": "0x000000000000000000000000fd51d34e32f684e368fa401dd87897ef301c0c18",
                    "revert": false,
                    "revertMessage": "",
                    "selector": "0x1e34b459",
                    "status": true,
                    "value": "0"
                },
                "nodeType": 0
            },
            "6": {
                "invocation": {
                    "address": "0x6d9cc14a1d36e6ff13fc6efa9e9326fcd12e7903",
                    "callData": "0x169ab02979c67a17b3119d226fa6e335c351e63c6436eb2eb63909dbee70c7aa",
                    "decodedMethod": {
                        "callParams": [
                            {
                                "name": "_transactionHash",
                                "type": "bytes32",
                                "value": "0x169ab02979c67a17b3119d226fa6e335c351e63c6436eb2eb63909dbee70c7aa"
                            }
                        ],
                        "constructorArguments": "",
                        "name": "setAMMTransactionSeen",
                        "returnParams": [],
                        "signature": "setAMMTransactionSeen(bytes32)"
                    },
                    "errorInfo": "",
                    "fromAddress": "0x4a14347083b80e5216ca31350a2d21702ac3650d",
                    "gasUsed": 25624,
                    "id": 6,
                    "methodDecoded": true,
                    "operation": "CALL",
                    "output": "",
                    "revert": false,
                    "revertMessage": "",
                    "selector": "0x36ef4251",
                    "status": true,
                    "value": "0"
                },
                "nodeType": 0
            },
            "7": {
                "invocation": {
                    "address": "0x670ac90bb1b55ed7f8943c1e1ef668281511afd8",
                    "callData": "0x169ab02979c67a17b3119d226fa6e335c351e63c6436eb2eb63909dbee70c7aa",
                    "decodedMethod": {
                        "callParams": [
                            {
                                "name": "_transactionHash",
                                "type": "bytes32",
                                "value": "0x169ab02979c67a17b3119d226fa6e335c351e63c6436eb2eb63909dbee70c7aa"
                            }
                        ],
                        "constructorArguments": "",
                        "name": "setAMMTransactionSeen",
                        "returnParams": [],
                        "signature": "setAMMTransactionSeen(bytes32)"
                    },
                    "errorInfo": "",
                    "fromAddress": "0x6d9cc14a1d36e6ff13fc6efa9e9326fcd12e7903",
                    "gasUsed": 24927,
                    "id": 7,
                    "methodDecoded": true,
                    "operation": "DELEGATECALL",
                    "output": "",
                    "revert": false,
                    "revertMessage": "",
                    "selector": "0x36ef4251",
                    "status": true,
                    "value": "0"
                },
                "nodeType": 0
            },
            "8": {
                "invocation": {
                    "address": "0x3c68dfc45dc92c9c605d92b49858073e10b857a6",
                    "callData": "0x000000000000000000000000fd51d34e32f684e368fa401dd87897ef301c0c18000000000000000000000000dac17f958d2ee523a2206206994597c13d831ec700000000000000000000000000000000000000000000000000000005ac32f9e0",
                    "decodedMethod": {
                        "callParams": [
                            {
                                "name": "_user",
                                "type": "address",
                                "value": "0xfd51d34e32f684e368fa401dd87897ef301c0c18"
                            },
                            {
                                "name": "_tokenAddr",
                                "type": "address",
                                "value": "0xdac17f958d2ee523a2206206994597c13d831ec7"
                            },
                            {
                                "name": "_amount",
                                "type": "uint256",
                                "value": "24,363,858,400"
                            }
                        ],
                        "constructorArguments": "",
                        "name": "spendFromUser",
                        "returnParams": [],
                        "signature": "spendFromUser(address,address,uint256)"
                    },
                    "errorInfo": "",
                    "fromAddress": "0x4a14347083b80e5216ca31350a2d21702ac3650d",
                    "gasUsed": 46693,
                    "id": 8,
                    "methodDecoded": true,
                    "operation": "CALL",
                    "output": "",
                    "revert": false,
                    "revertMessage": "",
                    "selector": "0x3474ad1a",
                    "status": true,
                    "value": "0"
                },
                "nodeType": 0
            },
            "9": {
                "invocation": {
                    "address": "0xdac17f958d2ee523a2206206994597c13d831ec7",
                    "callData": "0x0000000000000000000000004a14347083b80e5216ca31350a2d21702ac3650d",
                    "decodedMethod": {
                        "callParams": [
                            {
                                "name": "who",
                                "type": "address",
                                "value": "0x4a14347083b80e5216ca31350a2d21702ac3650d"
                            }
                        ],
                        "constructorArguments": "",
                        "name": "balanceOf",
                        "returnParams": [
                            {
                                "decimalAvailable": true,
                                "name": "",
                                "type": "uint256",
                                "value": "6,224,526,809"
                            }
                        ],
                        "signature": "balanceOf(address)"
                    },
                    "errorInfo": "",
                    "fromAddress": "0x3c68dfc45dc92c9c605d92b49858073e10b857a6",
                    "gasUsed": 5031,
                    "id": 9,
                    "methodDecoded": true,
                    "operation": "STATICCALL",
                    "output": "0x000000000000000000000000000000000000000000000000000000017302bdd9",
                    "revert": false,
                    "revertMessage": "",
                    "selector": "0x70a08231",
                    "status": true,
                    "value": "0"
                },
                "nodeType": 0
            }
        },
        "gasFlame": [
            {
                "children": [
                    {
                        "children": [
                            {
                                "children": [],
                                "depth": 0,
                                "name": "Initial Gas",
                                "value": 26756
                            },
                            {
                                "children": [
                                    {
                                        "children": [
                                            {
                                                "children": [
                                                    {
                                                        "children": [
                                                            {
                                                                "children": [],
                                                                "depth": 4,
                                                                "name": "isRelayerValid",
                                                                "value": 2576
                                                            }
                                                        ],
                                                        "depth": 3,
                                                        "name": "isRelayerValid",
                                                        "value": 9776
                                                    },
                                                    {
                                                        "children": [],
                                                        "depth": 3,
                                                        "name": "ecrecover",
                                                        "value": 3000
                                                    },
                                                    {
                                                        "children": [
                                                            {
                                                                "children": [],
                                                                "depth": 4,
                                                                "name": "setAMMTransactionSeen",
                                                                "value": 24927
                                                            }
                                                        ],
                                                        "depth": 3,
                                                        "name": "setAMMTransactionSeen",
                                                        "value": 25624
                                                    },
                                                    {
                                                        "children": [
                                                            {
                                                                "children": [],
                                                                "depth": 4,
                                                                "name": "balanceOf",
                                                                "value": 5031
                                                            },
                                                            {
                                                                "children": [
                                                                    {
                                                                        "children": [],
                                                                        "depth": 5,
                                                                        "name": "transferFrom",
                                                                        "value": 22530
                                                                    }
                                                                ],
                                                                "depth": 4,
                                                                "name": "executeCall",
                                                                "value": 25589
                                                            },
                                                            {
                                                                "children": [],
                                                                "depth": 4,
                                                                "name": "balanceOf",
                                                                "value": 1031
                                                            }
                                                        ],
                                                        "depth": 3,
                                                        "name": "spendFromUser",
                                                        "value": 46693
                                                    },
                                                    {
                                                        "children": [],
                                                        "depth": 3,
                                                        "name": "allowance",
                                                        "value": 3356
                                                    },
                                                    {
                                                        "children": [],
                                                        "depth": 3,
                                                        "name": "approve",
                                                        "value": 22953
                                                    },
                                                    {
                                                        "children": [
                                                            {
                                                                "children": [],
                                                                "depth": 4,
                                                                "name": "getCurvePoolInfo",
                                                                "value": 12255
                                                            }
                                                        ],
                                                        "depth": 3,
                                                        "name": "getCurvePoolInfo",
                                                        "value": 12994
                                                    },
                                                    {
                                                        "children": [],
                                                        "depth": 3,
                                                        "name": "balanceOf",
                                                        "value": 2602
                                                    },
                                                    {
                                                        "children": [
                                                            {
                                                                "children": [],
                                                                "depth": 4,
                                                                "name": "balanceOf",
                                                                "value": 3031
                                                            },
                                                            {
                                                                "children": [],
                                                                "depth": 4,
                                                                "name": "dataCopy()",
                                                                "value": 18
                                                            },
                                                            {
                                                                "children": [],
                                                                "depth": 4,
                                                                "name": "dataCopy()",
                                                                "value": 30
                                                            },
                                                            {
                                                                "children": [],
                                                                "depth": 4,
                                                                "name": "transferFrom",
                                                                "value": 9730
                                                            },
                                                            {
                                                                "children": [],
                                                                "depth": 4,
                                                                "name": "dataCopy()",
                                                                "value": 18
                                                            },
                                                            {
                                                                "children": [],
                                                                "depth": 4,
                                                                "name": "balanceOf",
                                                                "value": 1031
                                                            },
                                                            {
                                                                "children": [],
                                                                "depth": 4,
                                                                "name": "dataCopy()",
                                                                "value": 18
                                                            },
                                                            {
                                                                "children": [],
                                                                "depth": 4,
                                                                "name": "dataCopy()",
                                                                "value": 27
                                                            },
                                                            {
                                                                "children": [],
                                                                "depth": 4,
                                                                "name": "transfer",
                                                                "value": 11074
                                                            },
                                                            {
                                                                "children": [],
                                                                "depth": 4,
                                                                "name": "dataCopy()",
                                                                "value": 21
                                                            }
                                                        ],
                                                        "depth": 3,
                                                        "name": "exchange",
                                                        "value": 103825
                                                    },
                                                    {
                                                        "children": [],
                                                        "depth": 3,
                                                        "name": "balanceOf",
                                                        "value": 602
                                                    },
                                                    {
                                                        "children": [],
                                                        "depth": 3,
                                                        "name": "approve",
                                                        "value": 2760
                                                    },
                                                    {
                                                        "children": [],
                                                        "depth": 3,
                                                        "name": "transfer",
                                                        "value": 25374
                                                    }
                                                ],
                                                "depth": 2,
                                                "name": "trade",
                                                "value": 303787
                                            }
                                        ],
                                        "depth": 1,
                                        "name": "toAMM",
                                        "value": 309651
                                    }
                                ],
                                "depth": 0,
                                "name": "Executed Gas",
                                "value": 316999
                            }
                        ],
                        "depth": -1,
                        "name": "Actual Gas Used",
                        "value": 293555
                    },
                    {
                        "children": [],
                        "depth": -1,
                        "name": "Refunded Gas",
                        "value": 50200
                    }
                ],
                "depth": -2,
                "name": "Total Gas",
                "value": 343755
            }
        ],
        "isConfirmed": true,
        "mainTrace": [
            {
                "children": [
                    {
                        "children": [
                            {
                                "children": [
                                    {
                                        "children": [
                                            {
                                                "children": [
                                                    {
                                                        "children": [],
                                                        "depth": 4,
                                                        "id": 4,
                                                        "order": 4
                                                    }
                                                ],
                                                "depth": 3,
                                                "id": 3,
                                                "order": 3
                                            },
                                            {
                                                "children": [],
                                                "depth": 3,
                                                "id": 5,
                                                "order": 5
                                            },
                                            {
                                                "children": [
                                                    {
                                                        "children": [],
                                                        "depth": 4,
                                                        "id": 7,
                                                        "order": 7
                                                    }
                                                ],
                                                "depth": 3,
                                                "id": 6,
                                                "order": 6
                                            },
                                            {
                                                "children": [
                                                    {
                                                        "children": [],
                                                        "depth": 4,
                                                        "id": 9,
                                                        "order": 9
                                                    },
                                                    {
                                                        "children": [
                                                            {
                                                                "children": [
                                                                    {
                                                                        "children": [],
                                                                        "depth": 6,
                                                                        "id": 12,
                                                                        "order": 12
                                                                    }
                                                                ],
                                                                "depth": 5,
                                                                "id": 11,
                                                                "order": 11
                                                            }
                                                        ],
                                                        "depth": 4,
                                                        "id": 10,
                                                        "order": 10
                                                    },
                                                    {
                                                        "children": [],
                                                        "depth": 4,
                                                        "id": 13,
                                                        "order": 13
                                                    }
                                                ],
                                                "depth": 3,
                                                "id": 8,
                                                "order": 8
                                            },
                                            {
                                                "children": [],
                                                "depth": 3,
                                                "id": 14,
                                                "order": 14
                                            },
                                            {
                                                "children": [
                                                    {
                                                        "children": [],
                                                        "depth": 4,
                                                        "id": 16,
                                                        "order": 16
                                                    }
                                                ],
                                                "depth": 3,
                                                "id": 15,
                                                "order": 15
                                            },
                                            {
                                                "children": [
                                                    {
                                                        "children": [],
                                                        "depth": 4,
                                                        "id": 18,
                                                        "order": 18
                                                    }
                                                ],
                                                "depth": 3,
                                                "id": 17,
                                                "order": 17
                                            },
                                            {
                                                "children": [],
                                                "depth": 3,
                                                "id": 19,
                                                "order": 19
                                            },
                                            {
                                                "children": [
                                                    {
                                                        "children": [],
                                                        "depth": 4,
                                                        "id": 21,
                                                        "order": 21
                                                    },
                                                    {
                                                        "children": [],
                                                        "depth": 4,
                                                        "id": 22,
                                                        "order": 22
                                                    },
                                                    {
                                                        "children": [],
                                                        "depth": 4,
                                                        "id": 23,
                                                        "order": 23
                                                    },
                                                    {
                                                        "children": [
                                                            {
                                                                "children": [],
                                                                "depth": 5,
                                                                "id": 25,
                                                                "order": 25
                                                            }
                                                        ],
                                                        "depth": 4,
                                                        "id": 24,
                                                        "order": 24
                                                    },
                                                    {
                                                        "children": [],
                                                        "depth": 4,
                                                        "id": 26,
                                                        "order": 26
                                                    },
                                                    {
                                                        "children": [],
                                                        "depth": 4,
                                                        "id": 27,
                                                        "order": 27
                                                    },
                                                    {
                                                        "children": [],
                                                        "depth": 4,
                                                        "id": 28,
                                                        "order": 28
                                                    },
                                                    {
                                                        "children": [],
                                                        "depth": 4,
                                                        "id": 29,
                                                        "order": 29
                                                    },
                                                    {
                                                        "children": [
                                                            {
                                                                "children": [],
                                                                "depth": 5,
                                                                "id": 31,
                                                                "order": 31
                                                            }
                                                        ],
                                                        "depth": 4,
                                                        "id": 30,
                                                        "order": 30
                                                    },
                                                    {
                                                        "children": [],
                                                        "depth": 4,
                                                        "id": 32,
                                                        "order": 32
                                                    },
                                                    {
                                                        "children": [],
                                                        "depth": 4,
                                                        "id": 33,
                                                        "order": 33
                                                    }
                                                ],
                                                "depth": 3,
                                                "id": 20,
                                                "order": 20
                                            },
                                            {
                                                "children": [],
                                                "depth": 3,
                                                "id": 34,
                                                "order": 34
                                            },
                                            {
                                                "children": [
                                                    {
                                                        "children": [],
                                                        "depth": 4,
                                                        "id": 36,
                                                        "order": 36
                                                    }
                                                ],
                                                "depth": 3,
                                                "id": 35,
                                                "order": 35
                                            },
                                            {
                                                "children": [
                                                    {
                                                        "children": [],
                                                        "depth": 4,
                                                        "id": 38,
                                                        "order": 38
                                                    }
                                                ],
                                                "depth": 3,
                                                "id": 37,
                                                "order": 37
                                            },
                                            {
                                                "children": [],
                                                "depth": 3,
                                                "id": 39,
                                                "order": 39
                                            }
                                        ],
                                        "depth": 2,
                                        "id": 2,
                                        "order": 2
                                    }
                                ],
                                "depth": 1,
                                "id": 1,
                                "order": 1
                            }
                        ],
                        "depth": 0,
                        "id": 0,
                        "order": 0
                    }
                ],
                "depth": -1,
                "id": -1,
                "order": -1
            }
        ],
        "mainTraceNodeCount": 40,
        "parentIdMap": {
            "0": -1,
            "1": 0,
            "10": 8,
            "11": 10,
            "12": 11,
            "13": 8,
            "14": 2,
            "15": 2,
            "16": 15,
            "17": 2,
            "18": 17,
            "19": 2,
            "2": 1,
            "20": 2,
            "21": 20,
            "22": 20,
            "23": 20,
            "24": 20,
            "25": 24,
            "26": 20,
            "27": 20,
            "28": 20,
            "29": 20,
            "3": 2,
            "30": 20,
            "31": 30,
            "32": 20,
            "33": 20,
            "34": 2,
            "35": 2,
            "36": 35,
            "37": 2,
            "38": 37,
            "39": 2,
            "4": 3,
            "5": 2,
            "6": 2,
            "7": 6,
            "8": 2,
            "9": 8
        },
        "tidyTrace": [
            {
                "children": [
                    {
                        "children": [
                            {
                                "children": [
                                    {
                                        "children": [
                                            {
                                                "children": [
                                                    {
                                                        "children": [],
                                                        "depth": 4,
                                                        "id": 7,
                                                        "order": 7
                                                    }
                                                ],
                                                "depth": 3,
                                                "id": 6,
                                                "order": 6
                                            },
                                            {
                                                "children": [
                                                    {
                                                        "children": [
                                                            {
                                                                "children": [
                                                                    {
                                                                        "children": [],
                                                                        "depth": 6,
                                                                        "id": 12,
                                                                        "order": 12
                                                                    }
                                                                ],
                                                                "depth": 5,
                                                                "id": 11,
                                                                "order": 11
                                                            }
                                                        ],
                                                        "depth": 4,
                                                        "id": 10,
                                                        "order": 10
                                                    }
                                                ],
                                                "depth": 3,
                                                "id": 8,
                                                "order": 8
                                            },
                                            {
                                                "children": [
                                                    {
                                                        "children": [],
                                                        "depth": 4,
                                                        "id": 16,
                                                        "order": 16
                                                    }
                                                ],
                                                "depth": 3,
                                                "id": 15,
                                                "order": 15
                                            },
                                            {
                                                "children": [
                                                    {
                                                        "children": [],
                                                        "depth": 4,
                                                        "id": 22,
                                                        "order": 22
                                                    },
                                                    {
                                                        "children": [],
                                                        "depth": 4,
                                                        "id": 23,
                                                        "order": 23
                                                    },
                                                    {
                                                        "children": [
                                                            {
                                                                "children": [],
                                                                "depth": 5,
                                                                "id": 25,
                                                                "order": 25
                                                            }
                                                        ],
                                                        "depth": 4,
                                                        "id": 24,
                                                        "order": 24
                                                    },
                                                    {
                                                        "children": [],
                                                        "depth": 4,
                                                        "id": 26,
                                                        "order": 26
                                                    },
                                                    {
                                                        "children": [],
                                                        "depth": 4,
                                                        "id": 28,
                                                        "order": 28
                                                    },
                                                    {
                                                        "children": [],
                                                        "depth": 4,
                                                        "id": 29,
                                                        "order": 29
                                                    },
                                                    {
                                                        "children": [
                                                            {
                                                                "children": [],
                                                                "depth": 5,
                                                                "id": 31,
                                                                "order": 31
                                                            }
                                                        ],
                                                        "depth": 4,
                                                        "id": 30,
                                                        "order": 30
                                                    },
                                                    {
                                                        "children": [],
                                                        "depth": 4,
                                                        "id": 32,
                                                        "order": 32
                                                    },
                                                    {
                                                        "children": [],
                                                        "depth": 4,
                                                        "id": 33,
                                                        "order": 33
                                                    }
                                                ],
                                                "depth": 3,
                                                "id": 20,
                                                "order": 20
                                            },
                                            {
                                                "children": [
                                                    {
                                                        "children": [],
                                                        "depth": 4,
                                                        "id": 36,
                                                        "order": 36
                                                    }
                                                ],
                                                "depth": 3,
                                                "id": 35,
                                                "order": 35
                                            },
                                            {
                                                "children": [
                                                    {
                                                        "children": [],
                                                        "depth": 4,
                                                        "id": 38,
                                                        "order": 38
                                                    }
                                                ],
                                                "depth": 3,
                                                "id": 37,
                                                "order": 37
                                            },
                                            {
                                                "children": [],
                                                "depth": 3,
                                                "id": 39,
                                                "order": 39
                                            }
                                        ],
                                        "depth": 2,
                                        "id": 2,
                                        "order": 2
                                    }
                                ],
                                "depth": 1,
                                "id": 1,
                                "order": 1
                            }
                        ],
                        "depth": 0,
                        "id": 0,
                        "order": 0
                    }
                ],
                "depth": -1,
                "id": -1,
                "order": -1
            }
        ],
        "tidyTraceNodeCount": 28
    },
    "state_change": {
        "stateChanges": [
            {
                "address": "0x6b175474e89094c44da98b954eedeac495271d0f",
                "erc": "ERC-20",
                "slots": [
                    {
                        "current": "0x0000000000000000000000000000000000000000009203a339cc04bf18fc7d1b",
                        "key": "0x482f9b877f5fd67f4deed8e6e77684b124747e9b32a8b41a0da671ec542c8921",
                        "prev": "0x0000000000000000000000000000000000000000009208cc8b57d4e0455e7d26"
                    },
                    {
                        "current": "0x000000000000000000000000000000000000000000002aa130e39f38477b673b",
                        "key": "0xa1c76c8538cbe54112a7532a2a82f4750c3d96f0878ccd065218f10f37ee76f8",
                        "prev": "0x000000000000000000000000000000000000000000002a9f13ad54bfcdc2844f"
                    },
                    {
                        "current": "0x000000000000000000000000000000000000000000000527345585a8b2a91d1f",
                        "key": "0x6b9276e7b8c0ee4eb4be86c54c2df4b32ace9c3f4c0e735d058d85ebe192ed8e",
                        "prev": "0x0000000000000000000000000000000000000000000000000000000000000000"
                    }
                ],
                "storageVariables": [
                    {
                        "name": "balanceOf",
                        "type": "mapping(address => uint256)",
                        "value": {
                            "pairs": [
                                {
                                    "key": "0x4a14347083b80e5216ca31350a2d21702ac3650d",
                                    "value": {
                                        "current": "201312840910789936899899",
                                        "prev": "201273842470885376820303",
                                        "typeTag": 1
                                    }
                                },
                                {
                                    "key": "0xbebc44782c7db0a1a60cb6fe97d0b483032ff1c7",
                                    "value": {
                                        "current": "176520347747177457314987291",
                                        "prev": "176544721772117807364734246",
                                        "typeTag": 1
                                    }
                                },
                                {
                                    "key": "0xfd51d34e32f684e368fa401dd87897ef301c0c18",
                                    "value": {
                                        "current": "24335026500445489667359",
                                        "prev": "0",
                                        "typeTag": 1
                                    }
                                }
                            ],
                            "typeTag": 4
                        }
                    }
                ]
            },
            {
                "address": "0x6d9cc14a1d36e6ff13fc6efa9e9326fcd12e7903",
                "erc": "",
                "slots": [
                    {
                        "current": "0x0000000000000000000000000000000000000000000000000000000000000001",
                        "key": "0x0779596ade48685ac228ecf0e2c258311706a60be01fe53321a7a357139b8505",
                        "prev": "0x0000000000000000000000000000000000000000000000000000000000000000"
                    }
                ],
                "storageVariables": []
            },
            {
                "address": "0xbebc44782c7db0a1a60cb6fe97d0b483032ff1c7",
                "erc": "",
                "slots": [
                    {
                        "current": "0x00000000000000000000000000000000000000000000000000004dd28ede94c5",
                        "key": "0xb10e2d527612073b26eecdfd717e6a320cf44b4afac2b0732d9fcbe2b7fa0cf8",
                        "prev": "0x00000000000000000000000000000000000000000000000000004dcce2ab9ae5"
                    },
                    {
                        "current": "0x00000000000000000000000000000000000000000092039dc1d8b7b4bc63d918",
                        "key": "0xb10e2d527612073b26eecdfd717e6a320cf44b4afac2b0732d9fcbe2b7fa0cf6",
                        "prev": "0x0000000000000000000000000000000000000000009208c7244ea9039c8b1eed"
                    }
                ],
                "storageVariables": []
            },
            {
                "address": "0xdac17f958d2ee523a2206206994597c13d831ec7",
                "erc": "ERC-20",
                "slots": [
                    {
                        "current": "0x00000000000000000000000000000000000000000000000000004dd2b2bfea7c",
                        "key": "0x482f9b877f5fd67f4deed8e6e77684b124747e9b32a8b41a0da671ec542c8921",
                        "prev": "0x00000000000000000000000000000000000000000000000000004dcd068cf09c"
                    },
                    {
                        "current": "0x0000000000000000000000000000000000000000000000000000000000000000",
                        "key": "0x6b9276e7b8c0ee4eb4be86c54c2df4b32ace9c3f4c0e735d058d85ebe192ed8e",
                        "prev": "0x00000000000000000000000000000000000000000000000000000005ac32f9e0"
                    }
                ],
                "storageVariables": [
                    {
                        "name": "balances",
                        "type": "mapping(address => uint256)",
                        "value": {
                            "pairs": [
                                {
                                    "key": "0xbebc44782c7db0a1a60cb6fe97d0b483032ff1c7",
                                    "value": {
                                        "current": "85567337392764",
                                        "prev": "85542973534364",
                                        "typeTag": 1
                                    }
                                },
                                {
                                    "key": "0xfd51d34e32f684e368fa401dd87897ef301c0c18",
                                    "value": {
                                        "current": "0",
                                        "prev": "24363858400",
                                        "typeTag": 1
                                    }
                                }
                            ],
                            "typeTag": 4
                        }
                    }
                ]
            }
        ]
    }
}