{
    "balance_change": {
        "balanceChanges": []
    },
    "profile": {
        "basic_info": {
            "baseFee": "29.954774767",
            "blockNumber": 17054181,
            "callData": "0x095ea7b30000000000000000000000001111111254eeb25477b68fb85ed929f73a960582000000000000000000000000000000000000000000000000001d15859d3db65d",
            "debugEnable": true,
            "errorInfo": "",
            "eventCount": 1,
            "feeRecipient": "0x95222290dd7278aa3ddd389cc1e1d165cc4bafe5",
            "formatValue": "0",
            "gasLimit": 53601,
            "gasPrice": "30.089217928",
            "gasUsed": 46310,
            "intTxnCount": 0,
            "internalRevert": false,
            "internalRevertMessage": "",
            "isContractCreation": false,
            "isFlashloan": false,
            "maxFee": "30.089217928",
            "nonce": 75,
            "overwritedBlockNumber": -1,
            "priorityFee": "0.339562475",
            "receiver": "0xcf0c122c6b73ff809c693db761e7baebe62b6a2e",
            "revertMessage": "",
            "sender": "0x5b9f11e69cf564d4e45bebb8c49fe442c3d4a2a3",
            "simulationEnable": true,
            "sourceTxnHash": "0x8a355a9d2d1c9b61c0c7c1f4894b5af4a4d19f1d1e54adf5813627fbe53e8e28",
            "status": true,
            "timestamp": "2023-04-15T18:31:47Z",
            "transactionFee": "0.00139343168224568",
            "txnHash": "0x8a355a9d2d1c9b61c0c7c1f4894b5af4a4d19f1d1e54adf5813627fbe53e8e28",
            "txnIndex": 100,
            "type": 2,
            "value": "0"
        },
        "fund_flow": [],
        "token_infos": [
            {
                "address": "0xc02aaa39b223fe8d0a0e5c4f27ead9083c756cc2",
                "decimals": 18
            },
            {
                "address": "0xeeeeeeeeeeeeeeeeeeeeeeeeeeeeeeeeeeeeeeee",
                "decimals": 18
            }
        ]
    },
    "address_label": {
        "labels": [
            {
                "address": "0x0000000000000000000000000000000000000002",
                "label": "Precompiled"
            },
            {
                "address": "0x0000000000000000000000000000000000000003",
                "label": "Precompiled"
            },
            {
                "address": "0x0000000000000000000000000000000000000004",
                "label": "Precompiled"
            },
            {
                "address": "0xeeeeeeeeeeeeeeeeeeeeeeeeeeeeeeeeeeeeeeee",
                "label": "Ether"
            },
            {
                "address": "0x1111111254eeb25477b68fb85ed929f73a960582",
                "label": "Aggregation Router V5"
            },
            {
                "address": "0xcf0c122c6b73ff809c693db761e7baebe62b6a2e",
                "label": "Floki: FLOKI Token"
            },
            {
                "address": "0x0000000000000000000000000000000000000001",
                "label": "Precompiled"
            }
        ]
    },
    "trace": {
        "accountLabels": null,
        "dataMap": {
            "-1": {
                "invocation": {
                    "address": "0x5b9f11e69cf564d4e45bebb8c49fe442c3d4a2a3",
                    "callData": "",
                    "decodedMethod": null,
                    "errorInfo": "",
                    "fromAddress": "",
                    "gasUsed": 0,
                    "id": -1,
                    "methodDecoded": false,
                    "operation": "",
                    "output": "",
                    "revert": false,
                    "revertMessage": "",
                    "selector": "",
                    "status": false,
                    "value": ""
                },
                "nodeType": 0
            },
            "0": {
                "invocation": {
                    "address": "0xcf0c122c6b73ff809c693db761e7baebe62b6a2e",
                    "callData": "0x0000000000000000000000001111111254eeb25477b68fb85ed929f73a960582000000000000000000000000000000000000000000000000001d15859d3db65d",
                    "decodedMethod": {
                        "callParams": [
                            {
                                "name": "spender",
                                "type": "address",
                                "value": "0x1111111254eeb25477b68fb85ed929f73a960582"
                            },
                            {
                                "decimalAvailable": true,
                                "name": "amount",
                                "type": "uint256",
                                "value": "8,186,437,937,509,981"
                            }
                        ],
                        "constructorArguments": "",
                        "name": "approve",
                        "returnParams": [
                            {
                                "name": "",
                                "type": "bool",
                                "value": true
                            }
                        ],
                        "signature": "approve(address,uint256)"
                    },
                    "errorInfo": "",
                    "fromAddress": "0x5b9f11e69cf564d4e45bebb8c49fe442c3d4a2a3",
                    "gasUsed": 46310,
                    "id": 0,
                    "methodDecoded": true,
                    "operation": "CALL",
                    "output": "0x0000000000000000000000000000000000000000000000000000000000000001",
                    "revert": false,
                    "revertMessage": "",
                    "selector": "0x095ea7b3",
                    "status": true,
                    "value": "0"
                },
                "nodeType": 0
            },
            "1": {
                "event": {
                    "contract": "0xcf0c122c6b73ff809c693db761e7baebe62b6a2e",
                    "decodedLog": {
                        "name": "Approval",
                        "params": [
                            {
                                "name": "owner",
                                "type": "address",
                                "value": "0x5b9f11e69cf564d4e45bebb8c49fe442c3d4a2a3"
                            },
                            {
                                "name": "spender",
                                "type": "address",
                                "value": "0x1111111254eeb25477b68fb85ed929f73a960582"
                            },
                            {
                                "decimalAvailable": true,
                                "name": "value",
                                "type": "uint256",
                                "value": "8,186,437,937,509,981"
                            }
                        ],
                        "signature": "Approval(address,address,uint256)"
                    },
                    "id": 1,
                    "logData": "0x000000000000000000000000000000000000000000000000001d15859d3db65d",
                    "logDecoded": true,
                    "operation": "EVENT",
                    "revert": false,
                    "status": true,
                    "topics": [
                        "0x8c5be1e5ebec7d5bd14f71427d1e84f3dd0314c0f7b2291e5b200ac8c7c3b925",
                        "0x0000000000000000000000005b9f11e69cf564d4e45bebb8c49fe442c3d4a2a3",
                        "0x0000000000000000000000001111111254eeb25477b68fb85ed929f73a960582"
                    ]
                },
                "nodeType": 1
            }
        },
        "gasFlame": [
            {
                "children": [
                    {
                        "children": [
                            {
                                "children": [],
                                "depth": 0,
                                "name": "Initial Gas",
                                "value": 21644
                            },
                            {
                                "children": [],
                                "depth": 0,
                                "name": "Executed Gas",
                                "value": 24666
                            }
                        ],
                        "depth": -1,
                        "name": "Actual Gas Used",
                        "value": 46310
                    },
                    {
                        "children": [],
                        "depth": -1,
                        "name": "Refunded Gas",
                        "value": 0
                    }
                ],
                "depth": -2,
                "name": "Total Gas",
                "value": 46310
            }
        ],
        "isConfirmed": true,
        "mainTrace": [
            {
                "children": [
                    {
                        "children": [
                            {
                                "children": [],
                                "depth": 1,
                                "id": 1,
                                "order": 1
                            }
                        ],
                        "depth": 0,
                        "id": 0,
                        "order": 0
                    }
                ],
                "depth": -1,
                "id": -1,
                "order": -1
            }
        ],
        "mainTraceNodeCount": 2,
        "parentIdMap": {
            "0": -1,
            "1": 0
        },
        "tidyTrace": [
            {
                "children": [
                    {
                        "children": [
                            {
                                "children": [],
                                "depth": 1,
                                "id": 1,
                                "order": 1
                            }
                        ],
                        "depth": 0,
                        "id": 0,
                        "order": 0
                    }
                ],
                "depth": -1,
                "id": -1,
                "order": -1
            }
        ],
        "tidyTraceNodeCount": 2
    },
    "state_change": {
        "stateChanges": [
            {
                "address": "0xcf0c122c6b73ff809c693db761e7baebe62b6a2e",
                "erc": "ERC-20",
                "slots": [
                    {
                        "current": "0x000000000000000000000000000000000000000000000000001d15859d3db65d",
                        "key": "0x53baa94b0df9222115bf990c1f319806402768c9ff9a104a3bf63696213910ab",
                        "prev": "0x0000000000000000000000000000000000000000000000000000000000000000"
                    }
                ],
                "storageVariables": [
                    {
                        "name": "_allowances",
                        "type": "mapping(address => mapping(address => uint256))",
                        "value": {
                            "pairs": [
                                {
                                    "key": "0x5b9f11e69cf564d4e45bebb8c49fe442c3d4a2a3",
                                    "value": {
                                        "pairs": [
                                            {
                                                "key": "0x1111111254eeb25477b68fb85ed929f73a960582",
                                                "value": {
                                                    "current": "8186437937509981",
                                                    "prev": "0",
                                                    "typeTag": 1
                                                }
                                            }
                                        ],
                                        "typeTag": 4
                                    }
                                }
                            ],
                            "typeTag": 4
                        }
                    }
                ]
            }
        ]
    }
}