{
    "balance_change": {
        "balanceChanges": []
    },
    "profile": {
        "basic_info": {
            "baseFee": "",
            "blockNumber": 4996857,
            "callData": "0x095ea7b300000000000000000000000097cd4df98f393ca8946923d868df4b98553fd47400000000000000000000000000000000000000000052b7d2dcc80cd2e4000000",
            "debugEnable": true,
            "errorInfo": "",
            "eventCount": 2,
            "feeRecipient": "0xf3b9d2c81f2b24b0fa0acaaa865b7d9ced5fc2fb",
            "formatValue": "0",
            "gasLimit": 49489,
            "gasPrice": "22",
            "gasUsed": 34489,
            "intTxnCount": 0,
            "internalRevert": false,
            "internalRevertMessage": "",
            "isContractCreation": false,
            "isFlashloan": false,
            "maxFee": "",
            "nonce": 13,
            "overwritedBlockNumber": -1,
            "priorityFee": "",
            "receiver": "0x86fa049857e0209aa7d9e616f7eb3b3b78ecfdb0",
            "revertMessage": "",
            "sender": "0x740bd8f39f42331c97c8b6295369d13fd3302808",
            "simulationEnable": true,
            "sourceTxnHash": "0x8a7aa8978e1af3169716ab9dd7b6f199ec94bb33142e7885f0ffda35a0d9dcfd",
            "status": true,
            "timestamp": "2018-01-30T00:39:58Z",
            "transactionFee": "0.000758758",
            "txnHash": "0x8a7aa8978e1af3169716ab9dd7b6f199ec94bb33142e7885f0ffda35a0d9dcfd",
            "txnIndex": 25,
            "type": 0,
            "value": "0"
        },
        "fund_flow": [],
        "token_infos": [
            {
                "address": "0xc02aaa39b223fe8d0a0e5c4f27ead9083c756cc2",
                "decimals": 18
            },
            {
                "address": "0xeeeeeeeeeeeeeeeeeeeeeeeeeeeeeeeeeeeeeeee",
                "decimals": 18
            }
        ]
    },
    "address_label": {
        "labels": [
            {
                "address": "0x0000000000000000000000000000000000000001",
                "label": "Precompiled"
            },
            {
                "address": "0x0000000000000000000000000000000000000002",
                "label": "Precompiled"
            },
            {
                "address": "0x0000000000000000000000000000000000000003",
                "label": "Precompiled"
            },
            {
                "address": "0x0000000000000000000000000000000000000004",
                "label": "Precompiled"
            },
            {
                "address": "0xeeeeeeeeeeeeeeeeeeeeeeeeeeeeeeeeeeeeeeee",
                "label": "Ether"
            },
            {
                "address": "0x86fa049857e0209aa7d9e616f7eb3b3b78ecfdb0",
                "label": "EOS: Old Token"
            }
        ]
    },
    "trace": {
        "accountLabels": null,
        "dataMap": {
            "-1": {
                "invocation": {
                    "address": "0x740bd8f39f42331c97c8b6295369d13fd3302808",
                    "callData": "",
                    "decodedMethod": null,
                    "errorInfo": "",
                    "fromAddress": "",
                    "gasUsed": 0,
                    "id": -1,
                    "methodDecoded": false,
                    "operation": "",
                    "output": "",
                    "revert": false,
                    "revertMessage": "",
                    "selector": "",
                    "status": false,
                    "value": ""
                },
                "nodeType": 0
            },
            "0": {
                "invocation": {
                    "address": "0x86fa049857e0209aa7d9e616f7eb3b3b78ecfdb0",
                    "callData": "0x00000000000000000000000097cd4df98f393ca8946923d868df4b98553fd47400000000000000000000000000000000000000000052b7d2dcc80cd2e4000000",
                    "decodedMethod": {
                        "callParams": [
                            {
                                "name": "guy",
                                "type": "address",
                                "value": "0x97cd4df98f393ca8946923d868df4b98553fd474"
                            },
                            {
                                "decimalAvailable": true,
                                "name": "wad",
                                "type": "uint256",
                                "value": "100,000,000,000,000,000,000,000,000"
                            }
                        ],
                        "constructorArguments": "",
                        "name": "approve",
                        "returnParams": [
                            {
                                "name": "",
                                "type": "bool",
                                "value": true
                            }
                        ],
                        "signature": "approve(address,uint256)"
                    },
                    "errorInfo": "",
                    "fromAddress": "0x740bd8f39f42331c97c8b6295369d13fd3302808",
                    "gasUsed": 34489,
                    "id": 0,
                    "methodDecoded": true,
                    "operation": "CALL",
                    "output": "0x0000000000000000000000000000000000000000000000000000000000000001",
                    "revert": false,
                    "revertMessage": "",
                    "selector": "0x095ea7b3",
                    "status": true,
                    "value": "0"
                },
                "nodeType": 0
            },
            "1": {
                "event": {
                    "contract": "0x86fa049857e0209aa7d9e616f7eb3b3b78ecfdb0",
                    "decodedLog": null,
                    "id": 1,
                    "logData": "0x000000000000000000000000000000000000000000000000000000000000000000000000000000000000000000000000000000000000000000000000000000400000000000000000000000000000000000000000000000000000000000000044095ea7b300000000000000000000000097cd4df98f393ca8946923d868df4b98553fd47400000000000000000000000000000000000000000052b7d2dcc80cd2e4000000",
                    "logDecoded": false,
                    "operation": "EVENT",
                    "revert": false,
                    "status": true,
                    "topics": [
                        "0x095ea7b300000000000000000000000000000000000000000000000000000000",
                        "0x000000000000000000000000740bd8f39f42331c97c8b6295369d13fd3302808",
                        "0x00000000000000000000000097cd4df98f393ca8946923d868df4b98553fd474",
                        "0x00000000000000000000000000000000000000000052b7d2dcc80cd2e4000000"
                    ]
                },
                "nodeType": 1
            },
            "2": {
                "event": {
                    "contract": "0x86fa049857e0209aa7d9e616f7eb3b3b78ecfdb0",
                    "decodedLog": {
                        "name": "Approval",
                        "params": [
                            {
                                "name": "owner",
                                "type": "address",
                                "value": "0x740bd8f39f42331c97c8b6295369d13fd3302808"
                            },
                            {
                                "name": "spender",
                                "type": "address",
                                "value": "0x97cd4df98f393ca8946923d868df4b98553fd474"
                            },
                            {
                                "decimalAvailable": true,
                                "name": "value",
                                "type": "uint256",
                                "value": "100,000,000,000,000,000,000,000,000"
                            }
                        ],
                        "signature": "Approval(address,address,uint256)"
                    },
                    "id": 2,
                    "logData": "0x00000000000000000000000000000000000000000052b7d2dcc80cd2e4000000",
                    "logDecoded": true,
                    "operation": "EVENT",
                    "revert": false,
                    "status": true,
                    "topics": [
                        "0x8c5be1e5ebec7d5bd14f71427d1e84f3dd0314c0f7b2291e5b200ac8c7c3b925",
                        "0x000000000000000000000000740bd8f39f42331c97c8b6295369d13fd3302808",
                        "0x00000000000000000000000097cd4df98f393ca8946923d868df4b98553fd474"
                    ]
                },
                "nodeType": 1
            }
        },
        "gasFlame": [
            {
                "children": [
                    {
                        "children": [
                            {
                                "children": [],
                                "depth": 0,
                                "name": "Initial Gas",
                                "value": 23320
                            },
                            {
                                "children": [],
                                "depth": 0,
                                "name": "Executed Gas",
                                "value": 11169
                            }
                        ],
                        "depth": -1,
                        "name": "Actual Gas Used",
                        "value": 34489
                    },
                    {
                        "children": [],
                        "depth": -1,
                        "name": "Refunded Gas",
                        "value": 0
                    }
                ],
                "depth": -2,
                "name": "Total Gas",
                "value": 34489
            }
        ],
        "isConfirmed": true,
        "mainTrace": [
            {
                "children": [
                    {
                        "children": [
                            {
                                "children": [],
                                "depth": 1,
                                "id": 1,
                                "order": 1
                            },
                            {
                                "children": [],
                                "depth": 1,
                                "id": 2,
                                "order": 2
                            }
                        ],
                        "depth": 0,
                        "id": 0,
                        "order": 0
                    }
                ],
                "depth": -1,
                "id": -1,
                "order": -1
            }
        ],
        "mainTraceNodeCount": 3,
        "parentIdMap": {
            "0": -1,
            "1": 0,
            "2": 0
        },
        "tidyTrace": [
            {
                "children": [
                    {
                        "children": [
                            {
                                "children": [],
                                "depth": 1,
                                "id": 1,
                                "order": 1
                            },
                            {
                                "children": [],
                                "depth": 1,
                                "id": 2,
                                "order": 2
                            }
                        ],
                        "depth": 0,
                        "id": 0,
                        "order": 0
                    }
                ],
                "depth": -1,
                "id": -1,
                "order": -1
            }
        ],
        "tidyTraceNodeCount": 3
    },
    "state_change": {
        "stateChanges": []
    }
}