{
    "balance_change": {
        "balanceChanges": [
            {
                "account": "0xde4b77b25e391d628c84676c5672cf497b762eaf",
                "assets": [
                    {
                        "address": "0x12d7d45a4b9693b312ede375074a48b9b9f2b6ec",
                        "amount": "8,980.11127",
                        "iconUrl": "",
                        "isERC1155": false,
                        "isERC721": false,
                        "sign": false,
                        "value": ""
                    }
                ]
            },
            {
                "account": "0x903a0a19edefd8a642976deb7456d7f4bc14f6dc",
                "assets": [
                    {
                        "address": "0x12d7d45a4b9693b312ede375074a48b9b9f2b6ec",
                        "amount": "8,980.11127",
                        "iconUrl": "",
                        "isERC1155": false,
                        "isERC721": false,
                        "sign": true,
                        "value": ""
                    }
                ]
            }
        ]
    },
    "profile": {
        "basic_info": {
            "baseFee": "",
            "blockNumber": 8107740,
            "callData": "0xa9059cbb000000000000000000000000903a0a19edefd8a642976deb7456d7f4bc14f6dc0000000000000000000000000000000000000000000000000000000035868ff7",
            "debugEnable": true,
            "errorInfo": "",
            "eventCount": 1,
            "feeRecipient": "0xea674fdde714fd979de3edf0f56aa9716b898ec8",
            "formatValue": "0",
            "gasLimit": 36364,
            "gasPrice": "1",
            "gasUsed": 36364,
            "intTxnCount": 0,
            "internalRevert": false,
            "internalRevertMessage": "",
            "isContractCreation": false,
            "isFlashloan": false,
            "maxFee": "",
            "nonce": 1703,
            "overwritedBlockNumber": -1,
            "priorityFee": "",
            "receiver": "0x12d7d45a4b9693b312ede375074a48b9b9f2b6ec",
            "revertMessage": "",
            "sender": "0xde4b77b25e391d628c84676c5672cf497b762eaf",
            "simulationEnable": true,
            "sourceTxnHash": "0x8be3a93482f2758008c6d8c4150b516a6770eb50ba7f7e8041c274a809168339",
            "status": true,
            "timestamp": "2019-07-08T01:47:06Z",
            "transactionFee": "0.000036364",
            "txnHash": "0x8be3a93482f2758008c6d8c4150b516a6770eb50ba7f7e8041c274a809168339",
            "txnIndex": 196,
            "type": 0,
            "value": "0"
        },
        "fund_flow": [
            {
                "amount": "8,980.11127",
                "from": "0xde4b77b25e391d628c84676c5672cf497b762eaf",
                "id": 1,
                "isERC1155": false,
                "isERC721": false,
                "isReverted": false,
                "order": 1,
                "to": "0x903a0a19edefd8a642976deb7456d7f4bc14f6dc",
                "token": "0x12d7d45a4b9693b312ede375074a48b9b9f2b6ec"
            }
        ],
        "token_infos": [
            {
                "address": "0x12d7d45a4b9693b312ede375074a48b9b9f2b6ec",
                "decimals": 5
            },
            {
                "address": "0xc02aaa39b223fe8d0a0e5c4f27ead9083c756cc2",
                "decimals": 18
            },
            {
                "address": "0xeeeeeeeeeeeeeeeeeeeeeeeeeeeeeeeeeeeeeeee",
                "decimals": 18
            }
        ]
    },
    "address_label": {
        "labels": [
            {
                "address": "0x12d7d45a4b9693b312ede375074a48b9b9f2b6ec",
                "label": "VID (VID)"
            },
            {
                "address": "0x0000000000000000000000000000000000000001",
                "label": "Precompiled"
            },
            {
                "address": "0x0000000000000000000000000000000000000002",
                "label": "Precompiled"
            },
            {
                "address": "0x0000000000000000000000000000000000000003",
                "label": "Precompiled"
            },
            {
                "address": "0x0000000000000000000000000000000000000004",
                "label": "Precompiled"
            },
            {
                "address": "0xeeeeeeeeeeeeeeeeeeeeeeeeeeeeeeeeeeeeeeee",
                "label": "Ether"
            }
        ]
    },
    "trace": {
        "accountLabels": null,
        "dataMap": {
            "-1": {
                "invocation": {
                    "address": "0xde4b77b25e391d628c84676c5672cf497b762eaf",
                    "callData": "",
                    "decodedMethod": null,
                    "errorInfo": "",
                    "fromAddress": "",
                    "gasUsed": 0,
                    "id": -1,
                    "methodDecoded": false,
                    "operation": "",
                    "output": "",
                    "revert": false,
                    "revertMessage": "",
                    "selector": "",
                    "status": false,
                    "value": ""
                },
                "nodeType": 0
            },
            "0": {
                "invocation": {
                    "address": "0x12d7d45a4b9693b312ede375074a48b9b9f2b6ec",
                    "callData": "0x000000000000000000000000903a0a19edefd8a642976deb7456d7f4bc14f6dc0000000000000000000000000000000000000000000000000000000035868ff7",
                    "decodedMethod": {
                        "callParams": [
                            {
                                "name": "to",
                                "type": "address",
                                "value": "0x903a0a19edefd8a642976deb7456d7f4bc14f6dc"
                            },
                            {
                                "decimalAvailable": true,
                                "name": "value",
                                "type": "uint256",
                                "value": "898,011,127"
                            }
                        ],
                        "constructorArguments": "",
                        "name": "transfer",
                        "returnParams": [
                            {
                                "name": "",
                                "type": "bool",
                                "value": true
                            }
                        ],
                        "signature": "transfer(address,uint256)"
                    },
                    "errorInfo": "",
                    "fromAddress": "0xde4b77b25e391d628c84676c5672cf497b762eaf",
                    "gasUsed": 36364,
                    "id": 0,
                    "methodDecoded": true,
                    "operation": "CALL",
                    "output": "0x0000000000000000000000000000000000000000000000000000000000000001",
                    "revert": false,
                    "revertMessage": "",
                    "selector": "0xa9059cbb",
                    "status": true,
                    "value": "0"
                },
                "nodeType": 0
            },
            "1": {
                "event": {
                    "contract": "0x12d7d45a4b9693b312ede375074a48b9b9f2b6ec",
                    "decodedLog": {
                        "name": "Transfer",
                        "params": [
                            {
                                "name": "from",
                                "type": "address",
                                "value": "0xde4b77b25e391d628c84676c5672cf497b762eaf"
                            },
                            {
                                "name": "to",
                                "type": "address",
                                "value": "0x903a0a19edefd8a642976deb7456d7f4bc14f6dc"
                            },
                            {
                                "decimalAvailable": true,
                                "name": "value",
                                "type": "uint256",
                                "value": "898,011,127"
                            }
                        ],
                        "signature": "Transfer(address,address,uint256)"
                    },
                    "id": 1,
                    "logData": "0x0000000000000000000000000000000000000000000000000000000035868ff7",
                    "logDecoded": true,
                    "operation": "EVENT",
                    "revert": false,
                    "status": true,
                    "topics": [
                        "0xddf252ad1be2c89b69c2b068fc378daa952ba7f163c4a11628f55a4df523b3ef",
                        "0x000000000000000000000000de4b77b25e391d628c84676c5672cf497b762eaf",
                        "0x000000000000000000000000903a0a19edefd8a642976deb7456d7f4bc14f6dc"
                    ]
                },
                "nodeType": 1
            }
        },
        "gasFlame": [
            {
                "children": [
                    {
                        "children": [
                            {
                                "children": [],
                                "depth": 0,
                                "name": "Initial Gas",
                                "value": 23064
                            },
                            {
                                "children": [],
                                "depth": 0,
                                "name": "Executed Gas",
                                "value": 13300
                            }
                        ],
                        "depth": -1,
                        "name": "Actual Gas Used",
                        "value": 36364
                    },
                    {
                        "children": [],
                        "depth": -1,
                        "name": "Refunded Gas",
                        "value": 0
                    }
                ],
                "depth": -2,
                "name": "Total Gas",
                "value": 36364
            }
        ],
        "isConfirmed": true,
        "mainTrace": [
            {
                "children": [
                    {
                        "children": [
                            {
                                "children": [],
                                "depth": 1,
                                "id": 1,
                                "order": 1
                            }
                        ],
                        "depth": 0,
                        "id": 0,
                        "order": 0
                    }
                ],
                "depth": -1,
                "id": -1,
                "order": -1
            }
        ],
        "mainTraceNodeCount": 2,
        "parentIdMap": {
            "0": -1,
            "1": 0
        },
        "tidyTrace": [
            {
                "children": [
                    {
                        "children": [
                            {
                                "children": [],
                                "depth": 1,
                                "id": 1,
                                "order": 1
                            }
                        ],
                        "depth": 0,
                        "id": 0,
                        "order": 0
                    }
                ],
                "depth": -1,
                "id": -1,
                "order": -1
            }
        ],
        "tidyTraceNodeCount": 2
    },
    "state_change": {
        "stateChanges": [
            {
                "address": "0x12d7d45a4b9693b312ede375074a48b9b9f2b6ec",
                "erc": "ERC-20",
                "slots": [
                    {
                        "current": "0x000000000000000000000000000000000000000000000000000005948bb4d397",
                        "key": "0x49497e0ddcc447467b399ac8475f4fb32586f27f62bcd280095852d7f4ae6332",
                        "prev": "0x00000000000000000000000000000000000000000000000000000594c13b638e"
                    },
                    {
                        "current": "0x0000000000000000000000000000000000000000000000000000000054adc17d",
                        "key": "0x3305af35af320a24abce5f38d9fa1d9ab8840d418462822d42e67edecc5a6191",
                        "prev": "0x000000000000000000000000000000000000000000000000000000001f273186"
                    }
                ],
                "storageVariables": [
                    {
                        "name": "_balances",
                        "type": "mapping(address => uint256)",
                        "value": {
                            "pairs": [
                                {
                                    "key": "0x903a0a19edefd8a642976deb7456d7f4bc14f6dc",
                                    "value": {
                                        "current": "1420673405",
                                        "prev": "522662278",
                                        "typeTag": 1
                                    }
                                },
                                {
                                    "key": "0xde4b77b25e391d628c84676c5672cf497b762eaf",
                                    "value": {
                                        "current": "6135557182359",
                                        "prev": "6136455193486",
                                        "typeTag": 1
                                    }
                                }
                            ],
                            "typeTag": 4
                        }
                    }
                ]
            }
        ]
    }
}