{
    "balance_change": {
        "balanceChanges": [
            {
                "account": "0x6d7c9a7eae175cd55889c8ba1e4135d557e7afec",
                "assets": [
                    {
                        "address": "0x442bc47357919446eabc18c7211e57a13d983469",
                        "amount": "16,800",
                        "iconUrl": "",
                        "isERC1155": false,
                        "isERC721": false,
                        "sign": false,
                        "value": ""
                    }
                ]
            },
            {
                "account": "0x0dcfd79354ac0cdf21fa1057bf7c3e0841bfbda9",
                "assets": [
                    {
                        "address": "0x442bc47357919446eabc18c7211e57a13d983469",
                        "amount": "16,800",
                        "iconUrl": "",
                        "isERC1155": false,
                        "isERC721": false,
                        "sign": true,
                        "value": ""
                    }
                ]
            }
        ]
    },
    "profile": {
        "basic_info": {
            "baseFee": "",
            "blockNumber": 4712372,
            "callData": "0xa9059cbb0000000000000000000000000dcfd79354ac0cdf21fa1057bf7c3e0841bfbda900000000000000000000000000000000000000000000038ebad5cdc902800000",
            "debugEnable": true,
            "errorInfo": "",
            "eventCount": 1,
            "feeRecipient": "0x52bc44d5378309ee2abf1539bf71de1b7d7be3b5",
            "formatValue": "0",
            "gasLimit": 60000,
            "gasPrice": "41",
            "gasUsed": 52948,
            "intTxnCount": 0,
            "internalRevert": false,
            "internalRevertMessage": "",
            "isContractCreation": false,
            "isFlashloan": false,
            "maxFee": "",
            "nonce": 50,
            "overwritedBlockNumber": -1,
            "priorityFee": "",
            "receiver": "0x442bc47357919446eabc18c7211e57a13d983469",
            "revertMessage": "",
            "sender": "0x6d7c9a7eae175cd55889c8ba1e4135d557e7afec",
            "simulationEnable": true,
            "sourceTxnHash": "0x8b6f67bc2edf496a87d672099826072a3141c1415cbd549ca483769caa4acd3c",
            "status": true,
            "timestamp": "2017-12-11T05:25:50Z",
            "transactionFee": "0.002170868",
            "txnHash": "0x8b6f67bc2edf496a87d672099826072a3141c1415cbd549ca483769caa4acd3c",
            "txnIndex": 8,
            "type": 0,
            "value": "0"
        },
        "fund_flow": [
            {
                "amount": "16,800",
                "from": "0x6d7c9a7eae175cd55889c8ba1e4135d557e7afec",
                "id": 1,
                "isERC1155": false,
                "isERC721": false,
                "isReverted": false,
                "order": 1,
                "to": "0x0dcfd79354ac0cdf21fa1057bf7c3e0841bfbda9",
                "token": "0x442bc47357919446eabc18c7211e57a13d983469"
            }
        ],
        "token_infos": [
            {
                "address": "0x442bc47357919446eabc18c7211e57a13d983469",
                "decimals": 18
            },
            {
                "address": "0xc02aaa39b223fe8d0a0e5c4f27ead9083c756cc2",
                "decimals": 18
            },
            {
                "address": "0xeeeeeeeeeeeeeeeeeeeeeeeeeeeeeeeeeeeeeeee",
                "decimals": 18
            }
        ]
    },
    "address_label": {
        "labels": [
            {
                "address": "0xeeeeeeeeeeeeeeeeeeeeeeeeeeeeeeeeeeeeeeee",
                "label": "Ether"
            },
            {
                "address": "0x442bc47357919446eabc18c7211e57a13d983469",
                "label": "Chatcoin (CHAT)"
            },
            {
                "address": "0x0000000000000000000000000000000000000001",
                "label": "Precompiled"
            },
            {
                "address": "0x0000000000000000000000000000000000000002",
                "label": "Precompiled"
            },
            {
                "address": "0x0000000000000000000000000000000000000003",
                "label": "Precompiled"
            },
            {
                "address": "0x0000000000000000000000000000000000000004",
                "label": "Precompiled"
            }
        ]
    },
    "trace": {
        "accountLabels": null,
        "dataMap": {
            "-1": {
                "invocation": {
                    "address": "0x6d7c9a7eae175cd55889c8ba1e4135d557e7afec",
                    "callData": "",
                    "decodedMethod": null,
                    "errorInfo": "",
                    "fromAddress": "",
                    "gasUsed": 0,
                    "id": -1,
                    "methodDecoded": false,
                    "operation": "",
                    "output": "",
                    "revert": false,
                    "revertMessage": "",
                    "selector": "",
                    "status": false,
                    "value": ""
                },
                "nodeType": 0
            },
            "0": {
                "invocation": {
                    "address": "0x442bc47357919446eabc18c7211e57a13d983469",
                    "callData": "0x0000000000000000000000000dcfd79354ac0cdf21fa1057bf7c3e0841bfbda900000000000000000000000000000000000000000000038ebad5cdc902800000",
                    "decodedMethod": {
                        "callParams": [
                            {
                                "name": "_to",
                                "type": "address",
                                "value": "0x0dcfd79354ac0cdf21fa1057bf7c3e0841bfbda9"
                            },
                            {
                                "decimalAvailable": true,
                                "name": "_value",
                                "type": "uint256",
                                "value": "16,800,000,000,000,000,000,000"
                            }
                        ],
                        "constructorArguments": "",
                        "name": "transfer",
                        "returnParams": [],
                        "signature": "transfer(address,uint256)"
                    },
                    "errorInfo": "",
                    "fromAddress": "0x6d7c9a7eae175cd55889c8ba1e4135d557e7afec",
                    "gasUsed": 52948,
                    "id": 0,
                    "methodDecoded": true,
                    "operation": "CALL",
                    "output": "",
                    "revert": false,
                    "revertMessage": "",
                    "selector": "0xa9059cbb",
                    "status": true,
                    "value": "0"
                },
                "nodeType": 0
            },
            "1": {
                "event": {
                    "contract": "0x442bc47357919446eabc18c7211e57a13d983469",
                    "decodedLog": {
                        "name": "Transfer",
                        "params": [
                            {
                                "name": "from",
                                "type": "address",
                                "value": "0x6d7c9a7eae175cd55889c8ba1e4135d557e7afec"
                            },
                            {
                                "name": "to",
                                "type": "address",
                                "value": "0x0dcfd79354ac0cdf21fa1057bf7c3e0841bfbda9"
                            },
                            {
                                "decimalAvailable": true,
                                "name": "value",
                                "type": "uint256",
                                "value": "16,800,000,000,000,000,000,000"
                            }
                        ],
                        "signature": "Transfer(address,address,uint256)"
                    },
                    "id": 1,
                    "logData": "0x00000000000000000000000000000000000000000000038ebad5cdc902800000",
                    "logDecoded": true,
                    "operation": "EVENT",
                    "revert": false,
                    "status": true,
                    "topics": [
                        "0xddf252ad1be2c89b69c2b068fc378daa952ba7f163c4a11628f55a4df523b3ef",
                        "0x0000000000000000000000006d7c9a7eae175cd55889c8ba1e4135d557e7afec",
                        "0x0000000000000000000000000dcfd79354ac0cdf21fa1057bf7c3e0841bfbda9"
                    ]
                },
                "nodeType": 1
            }
        },
        "gasFlame": [
            {
                "children": [
                    {
                        "children": [
                            {
                                "children": [],
                                "depth": 0,
                                "name": "Initial Gas",
                                "value": 23320
                            },
                            {
                                "children": [],
                                "depth": 0,
                                "name": "Executed Gas",
                                "value": 29628
                            }
                        ],
                        "depth": -1,
                        "name": "Actual Gas Used",
                        "value": 52948
                    },
                    {
                        "children": [],
                        "depth": -1,
                        "name": "Refunded Gas",
                        "value": 0
                    }
                ],
                "depth": -2,
                "name": "Total Gas",
                "value": 52948
            }
        ],
        "isConfirmed": true,
        "mainTrace": [
            {
                "children": [
                    {
                        "children": [
                            {
                                "children": [],
                                "depth": 1,
                                "id": 1,
                                "order": 1
                            }
                        ],
                        "depth": 0,
                        "id": 0,
                        "order": 0
                    }
                ],
                "depth": -1,
                "id": -1,
                "order": -1
            }
        ],
        "mainTraceNodeCount": 2,
        "parentIdMap": {
            "0": -1,
            "1": 0
        },
        "tidyTrace": [
            {
                "children": [
                    {
                        "children": [
                            {
                                "children": [],
                                "depth": 1,
                                "id": 1,
                                "order": 1
                            }
                        ],
                        "depth": 0,
                        "id": 0,
                        "order": 0
                    }
                ],
                "depth": -1,
                "id": -1,
                "order": -1
            }
        ],
        "tidyTraceNodeCount": 2
    },
    "state_change": {
        "stateChanges": [
            {
                "address": "0x442bc47357919446eabc18c7211e57a13d983469",
                "erc": "",
                "slots": [
                    {
                        "current": "0x0000000000000000000000000000000000000000000019a07cbfc1cc814a0000",
                        "key": "0x6153dfe0f391c0243fda33a641c238633afe6183b094383cb228c4b6b0fd3c78",
                        "prev": "0x000000000000000000000000000000000000000000001d2f37958f9583ca0000"
                    },
                    {
                        "current": "0x00000000000000000000000000000000000000000000038ebad5cdc902800000",
                        "key": "0x71083f8b37480f2af5afef84b9a4faf8d84d157431c5b82bdabd9f50f39af248",
                        "prev": "0x0000000000000000000000000000000000000000000000000000000000000000"
                    }
                ],
                "storageVariables": []
            }
        ]
    }
}