{
    "balance_change": {
        "balanceChanges": [
            {
                "account": "0x79f689dc26785ff539adc127c0810c843450ef10",
                "assets": [
                    {
                        "address": "0xeeeeeeeeeeeeeeeeeeeeeeeeeeeeeeeeeeeeeeee",
                        "amount": "0.00031",
                        "iconUrl": "https://assets.blocksec.com/image/1663669189317-3.png",
                        "isERC1155": false,
                        "isERC721": false,
                        "sign": false,
                        "value": "0.49273570000000000847"
                    }
                ]
            },
            {
                "account": "0xb584d4be1a5470ca1a8778e9b86c81e165204599",
                "assets": [
                    {
                        "address": "0xeeeeeeeeeeeeeeeeeeeeeeeeeeeeeeeeeeeeeeee",
                        "amount": "0.00031",
                        "iconUrl": "https://assets.blocksec.com/image/1663669189317-3.png",
                        "isERC1155": false,
                        "isERC721": false,
                        "sign": true,
                        "value": "0.49273570000000000847"
                    }
                ]
            }
        ]
    },
    "profile": {
        "basic_info": {
            "baseFee": "7.209298638",
            "blockNumber": 18199067,
            "callData": "0xe56461ad000000000000000000000000000000000000000000000000000000000000008900000000000000000000000079f689dc26785ff539adc127c0810c843450ef10",
            "debugEnable": true,
            "errorInfo": "",
            "eventCount": 1,
            "feeRecipient": "0x4838b106fce9647bdf1e7877bf73ce8b0bad5f97",
            "formatValue": "0.00031",
            "gasLimit": 28694,
            "gasPrice": "7.309298638",
            "gasUsed": 28694,
            "intTxnCount": 0,
            "internalRevert": false,
            "internalRevertMessage": "",
            "isContractCreation": false,
            "isFlashloan": false,
            "maxFee": "9.520872787",
            "nonce": 1,
            "overwritedBlockNumber": -1,
            "priorityFee": "0.1",
            "receiver": "0xb584d4be1a5470ca1a8778e9b86c81e165204599",
            "revertMessage": "",
            "sender": "0x79f689dc26785ff539adc127c0810c843450ef10",
            "simulationEnable": true,
            "sourceTxnHash": "0x8bd1cf3ad5cb185bcf7c414c0d5a29256a51f4b6676b69b0d39b6beed80c88f8",
            "status": true,
            "timestamp": "2023-09-23T14:18:35Z",
            "transactionFee": "0.000209733015118772",
            "txnHash": "0x8bd1cf3ad5cb185bcf7c414c0d5a29256a51f4b6676b69b0d39b6beed80c88f8",
            "txnIndex": 39,
            "type": 2,
            "value": "310000000000000"
        },
        "fund_flow": [
            {
                "amount": "0.00031",
                "from": "0x79f689dc26785ff539adc127c0810c843450ef10",
                "id": 1,
                "isERC1155": false,
                "isERC721": false,
                "isReverted": false,
                "order": 1,
                "to": "0xb584d4be1a5470ca1a8778e9b86c81e165204599",
                "token": "0xeeeeeeeeeeeeeeeeeeeeeeeeeeeeeeeeeeeeeeee"
            }
        ],
        "token_infos": [
            {
                "address": "0xc02aaa39b223fe8d0a0e5c4f27ead9083c756cc2",
                "decimals": 18
            },
            {
                "address": "0xeeeeeeeeeeeeeeeeeeeeeeeeeeeeeeeeeeeeeeee",
                "decimals": 18
            }
        ]
    },
    "address_label": {
        "labels": [
            {
                "address": "0x0000000000000000000000000000000000000002",
                "label": "Precompiled"
            },
            {
                "address": "0x0000000000000000000000000000000000000003",
                "label": "Precompiled"
            },
            {
                "address": "0x0000000000000000000000000000000000000004",
                "label": "Precompiled"
            },
            {
                "address": "0xeeeeeeeeeeeeeeeeeeeeeeeeeeeeeeeeeeeeeeee",
                "label": "Ether"
            },
            {
                "address": "0xb584d4be1a5470ca1a8778e9b86c81e165204599",
                "label": "Socket: GasMovr"
            },
            {
                "address": "0x0000000000000000000000000000000000000001",
                "label": "Precompiled"
            }
        ]
    },
    "trace": {
        "accountLabels": null,
        "dataMap": {
            "-1": {
                "invocation": {
                    "address": "0x79f689dc26785ff539adc127c0810c843450ef10",
                    "callData": "",
                    "decodedMethod": null,
                    "errorInfo": "",
                    "fromAddress": "",
                    "gasUsed": 0,
                    "id": -1,
                    "methodDecoded": false,
                    "operation": "",
                    "output": "",
                    "revert": false,
                    "revertMessage": "",
                    "selector": "",
                    "status": false,
                    "value": ""
                },
                "nodeType": 0
            },
            "0": {
                "invocation": {
                    "address": "0xb584d4be1a5470ca1a8778e9b86c81e165204599",
                    "callData": "0x000000000000000000000000000000000000000000000000000000000000008900000000000000000000000079f689dc26785ff539adc127c0810c843450ef10",
                    "decodedMethod": {
                        "callParams": [
                            {
                                "name": "destinationChainId",
                                "type": "uint256",
                                "value": "137"
                            },
                            {
                                "name": "_to",
                                "type": "address",
                                "value": "0x79f689dc26785ff539adc127c0810c843450ef10"
                            }
                        ],
                        "constructorArguments": "",
                        "name": "depositNativeToken",
                        "returnParams": [],
                        "signature": "depositNativeToken(uint256,address)"
                    },
                    "errorInfo": "",
                    "fromAddress": "0x79f689dc26785ff539adc127c0810c843450ef10",
                    "gasUsed": 28694,
                    "id": 0,
                    "methodDecoded": true,
                    "operation": "CALL",
                    "output": "",
                    "revert": false,
                    "revertMessage": "",
                    "selector": "0xe56461ad",
                    "status": true,
                    "value": "0.00031"
                },
                "nodeType": 0
            },
            "1": {
                "event": {
                    "contract": "0xb584d4be1a5470ca1a8778e9b86c81e165204599",
                    "decodedLog": {
                        "name": "Deposit",
                        "params": [
                            {
                                "name": "destinationReceiver",
                                "type": "address",
                                "value": "0x79f689dc26785ff539adc127c0810c843450ef10"
                            },
                            {
                                "name": "destinationChainId",
                                "type": "uint256",
                                "value": "137"
                            },
                            {
                                "name": "amount",
                                "type": "uint256",
                                "value": "310,000,000,000,000"
                            }
                        ],
                        "signature": "Deposit(address,uint256,uint256)"
                    },
                    "id": 1,
                    "logData": "0x000000000000000000000000000000000000000000000000000119f17fe16000",
                    "logDecoded": true,
                    "operation": "EVENT",
                    "revert": false,
                    "status": true,
                    "topics": [
                        "0x90890809c654f11d6e72a28fa60149770a0d11ec6c92319d6ceb2bb0a4ea1a15",
                        "0x00000000000000000000000079f689dc26785ff539adc127c0810c843450ef10",
                        "0x0000000000000000000000000000000000000000000000000000000000000089"
                    ]
                },
                "nodeType": 1
            }
        },
        "gasFlame": [
            {
                "children": [
                    {
                        "children": [
                            {
                                "children": [],
                                "depth": 0,
                                "name": "Initial Gas",
                                "value": 21572
                            },
                            {
                                "children": [],
                                "depth": 0,
                                "name": "Executed Gas",
                                "value": 7122
                            }
                        ],
                        "depth": -1,
                        "name": "Actual Gas Used",
                        "value": 28694
                    },
                    {
                        "children": [],
                        "depth": -1,
                        "name": "Refunded Gas",
                        "value": 0
                    }
                ],
                "depth": -2,
                "name": "Total Gas",
                "value": 28694
            }
        ],
        "isConfirmed": true,
        "mainTrace": [
            {
                "children": [
                    {
                        "children": [
                            {
                                "children": [],
                                "depth": 1,
                                "id": 1,
                                "order": 1
                            }
                        ],
                        "depth": 0,
                        "id": 0,
                        "order": 0
                    }
                ],
                "depth": -1,
                "id": -1,
                "order": -1
            }
        ],
        "mainTraceNodeCount": 2,
        "parentIdMap": {
            "0": -1,
            "1": 0
        },
        "tidyTrace": [
            {
                "children": [
                    {
                        "children": [
                            {
                                "children": [],
                                "depth": 1,
                                "id": 1,
                                "order": 1
                            }
                        ],
                        "depth": 0,
                        "id": 0,
                        "order": 0
                    }
                ],
                "depth": -1,
                "id": -1,
                "order": -1
            }
        ],
        "tidyTraceNodeCount": 2
    },
    "state_change": {
        "stateChanges": []
    }
}