{
    "balance_change": {
        "balanceChanges": [
            {
                "account": "0x75e89d5979e4f6fba9f97c104c2f0afb3f1dcb88",
                "assets": [
                    {
                        "address": "0x4691937a7508860f876c9c0a2a617e7d9e945d4b",
                        "amount": "1,898.92",
                        "iconUrl": "https://assets.blocksec.com/icon/f3bbe70af9fc6d1ff070cd90c3a2728ef62e522215e05a2ee9a317a0cd573736.png",
                        "isERC1155": false,
                        "isERC721": false,
                        "sign": false,
                        "value": "1491.851841"
                    }
                ]
            },
            {
                "account": "0x321ec59e6078d2c49ba73ec57abdea10347a3065",
                "assets": [
                    {
                        "address": "0x4691937a7508860f876c9c0a2a617e7d9e945d4b",
                        "amount": "1,898.92",
                        "iconUrl": "https://assets.blocksec.com/icon/f3bbe70af9fc6d1ff070cd90c3a2728ef62e522215e05a2ee9a317a0cd573736.png",
                        "isERC1155": false,
                        "isERC721": false,
                        "sign": true,
                        "value": "1491.851841"
                    }
                ]
            }
        ]
    },
    "profile": {
        "basic_info": {
            "baseFee": "90.468644917",
            "blockNumber": 13744872,
            "callData": "0xa9059cbb000000000000000000000000321ec59e6078d2c49ba73ec57abdea10347a3065000000000000000000000000000000000000000000000066f0cf0f1734c40000",
            "debugEnable": true,
            "errorInfo": "",
            "eventCount": 1,
            "feeRecipient": "0xea674fdde714fd979de3edf0f56aa9716b898ec8",
            "formatValue": "0",
            "gasLimit": 77313,
            "gasPrice": "98",
            "gasUsed": 51530,
            "intTxnCount": 0,
            "internalRevert": false,
            "internalRevertMessage": "",
            "isContractCreation": false,
            "isFlashloan": false,
            "maxFee": "",
            "nonce": 1578143,
            "overwritedBlockNumber": -1,
            "priorityFee": "",
            "receiver": "0x4691937a7508860f876c9c0a2a617e7d9e945d4b",
            "revertMessage": "",
            "sender": "0x75e89d5979e4f6fba9f97c104c2f0afb3f1dcb88",
            "simulationEnable": true,
            "sourceTxnHash": "0x8b6e27744d5fcb27195176b8653207970f7a7ad71e805493a382ea7feae2de93",
            "status": true,
            "timestamp": "2021-12-05T07:50:32Z",
            "transactionFee": "0.00504994",
            "txnHash": "0x8b6e27744d5fcb27195176b8653207970f7a7ad71e805493a382ea7feae2de93",
            "txnIndex": 90,
            "type": 0,
            "value": "0"
        },
        "fund_flow": [
            {
                "amount": "1,898.92",
                "from": "0x75e89d5979e4f6fba9f97c104c2f0afb3f1dcb88",
                "id": 1,
                "isERC1155": false,
                "isERC721": false,
                "isReverted": false,
                "order": 1,
                "to": "0x321ec59e6078d2c49ba73ec57abdea10347a3065",
                "token": "0x4691937a7508860f876c9c0a2a617e7d9e945d4b"
            }
        ],
        "token_infos": [
            {
                "address": "0xc02aaa39b223fe8d0a0e5c4f27ead9083c756cc2",
                "decimals": 18
            },
            {
                "address": "0xeeeeeeeeeeeeeeeeeeeeeeeeeeeeeeeeeeeeeeee",
                "decimals": 18
            },
            {
                "address": "0x4691937a7508860f876c9c0a2a617e7d9e945d4b",
                "decimals": 18
            }
        ]
    },
    "address_label": {
        "labels": [
            {
                "address": "0x4691937a7508860f876c9c0a2a617e7d9e945d4b",
                "label": "Woo Network: WOO Token"
            },
            {
                "address": "0x0000000000000000000000000000000000000001",
                "label": "Precompiled"
            },
            {
                "address": "0x0000000000000000000000000000000000000002",
                "label": "Precompiled"
            },
            {
                "address": "0x0000000000000000000000000000000000000003",
                "label": "Precompiled"
            },
            {
                "address": "0x0000000000000000000000000000000000000004",
                "label": "Precompiled"
            },
            {
                "address": "0xeeeeeeeeeeeeeeeeeeeeeeeeeeeeeeeeeeeeeeee",
                "label": "Ether"
            },
            {
                "address": "0x75e89d5979e4f6fba9f97c104c2f0afb3f1dcb88",
                "label": "MEXC 1"
            }
        ]
    },
    "trace": {
        "accountLabels": null,
        "dataMap": {
            "-1": {
                "invocation": {
                    "address": "0x75e89d5979e4f6fba9f97c104c2f0afb3f1dcb88",
                    "callData": "",
                    "decodedMethod": null,
                    "errorInfo": "",
                    "fromAddress": "",
                    "gasUsed": 0,
                    "id": -1,
                    "methodDecoded": false,
                    "operation": "",
                    "output": "",
                    "revert": false,
                    "revertMessage": "",
                    "selector": "",
                    "status": false,
                    "value": ""
                },
                "nodeType": 0
            },
            "0": {
                "invocation": {
                    "address": "0x4691937a7508860f876c9c0a2a617e7d9e945d4b",
                    "callData": "0x000000000000000000000000321ec59e6078d2c49ba73ec57abdea10347a3065000000000000000000000000000000000000000000000066f0cf0f1734c40000",
                    "decodedMethod": {
                        "callParams": [
                            {
                                "name": "_to",
                                "type": "address",
                                "value": "0x321ec59e6078d2c49ba73ec57abdea10347a3065"
                            },
                            {
                                "decimalAvailable": true,
                                "name": "_value",
                                "type": "uint256",
                                "value": "1,898,920,000,000,000,000,000"
                            }
                        ],
                        "constructorArguments": "",
                        "name": "transfer",
                        "returnParams": [
                            {
                                "name": "success",
                                "type": "bool",
                                "value": true
                            }
                        ],
                        "signature": "transfer(address,uint256)"
                    },
                    "errorInfo": "",
                    "fromAddress": "0x75e89d5979e4f6fba9f97c104c2f0afb3f1dcb88",
                    "gasUsed": 51530,
                    "id": 0,
                    "methodDecoded": true,
                    "operation": "CALL",
                    "output": "0x0000000000000000000000000000000000000000000000000000000000000001",
                    "revert": false,
                    "revertMessage": "",
                    "selector": "0xa9059cbb",
                    "status": true,
                    "value": "0"
                },
                "nodeType": 0
            },
            "1": {
                "event": {
                    "contract": "0x4691937a7508860f876c9c0a2a617e7d9e945d4b",
                    "decodedLog": {
                        "name": "Transfer",
                        "params": [
                            {
                                "name": "_from",
                                "type": "address",
                                "value": "0x75e89d5979e4f6fba9f97c104c2f0afb3f1dcb88"
                            },
                            {
                                "name": "_to",
                                "type": "address",
                                "value": "0x321ec59e6078d2c49ba73ec57abdea10347a3065"
                            },
                            {
                                "decimalAvailable": true,
                                "name": "_value",
                                "type": "uint256",
                                "value": "1,898,920,000,000,000,000,000"
                            }
                        ],
                        "signature": "Transfer(address,address,uint256)"
                    },
                    "id": 1,
                    "logData": "0x000000000000000000000000000000000000000000000066f0cf0f1734c40000",
                    "logDecoded": true,
                    "operation": "EVENT",
                    "revert": false,
                    "status": true,
                    "topics": [
                        "0xddf252ad1be2c89b69c2b068fc378daa952ba7f163c4a11628f55a4df523b3ef",
                        "0x00000000000000000000000075e89d5979e4f6fba9f97c104c2f0afb3f1dcb88",
                        "0x000000000000000000000000321ec59e6078d2c49ba73ec57abdea10347a3065"
                    ]
                },
                "nodeType": 1
            }
        },
        "gasFlame": [
            {
                "children": [
                    {
                        "children": [
                            {
                                "children": [],
                                "depth": 0,
                                "name": "Initial Gas",
                                "value": 21644
                            },
                            {
                                "children": [],
                                "depth": 0,
                                "name": "Executed Gas",
                                "value": 29886
                            }
                        ],
                        "depth": -1,
                        "name": "Actual Gas Used",
                        "value": 51530
                    },
                    {
                        "children": [],
                        "depth": -1,
                        "name": "Refunded Gas",
                        "value": 0
                    }
                ],
                "depth": -2,
                "name": "Total Gas",
                "value": 51530
            }
        ],
        "isConfirmed": true,
        "mainTrace": [
            {
                "children": [
                    {
                        "children": [
                            {
                                "children": [],
                                "depth": 1,
                                "id": 1,
                                "order": 1
                            }
                        ],
                        "depth": 0,
                        "id": 0,
                        "order": 0
                    }
                ],
                "depth": -1,
                "id": -1,
                "order": -1
            }
        ],
        "mainTraceNodeCount": 2,
        "parentIdMap": {
            "0": -1,
            "1": 0
        },
        "tidyTrace": [
            {
                "children": [
                    {
                        "children": [
                            {
                                "children": [],
                                "depth": 1,
                                "id": 1,
                                "order": 1
                            }
                        ],
                        "depth": 0,
                        "id": 0,
                        "order": 0
                    }
                ],
                "depth": -1,
                "id": -1,
                "order": -1
            }
        ],
        "tidyTraceNodeCount": 2
    },
    "state_change": {
        "stateChanges": [
            {
                "address": "0x4691937a7508860f876c9c0a2a617e7d9e945d4b",
                "erc": "ERC-20",
                "slots": [
                    {
                        "current": "0x00000000000000000000000000000000000000000000973ab76252a7f58d4133",
                        "key": "0xa572b75ff8eb3dddb240f22b8eaeeed413e49a800df181233773628bfb1e7cc0",
                        "prev": "0x0000000000000000000000000000000000000000000097a1a83161bf2a514133"
                    },
                    {
                        "current": "0x000000000000000000000000000000000000000000000066f0cf0f1734c40000",
                        "key": "0x5df004099be22d6df0fc627ea0605409f8020bc6350a15ba3b6bc601b68b10fc",
                        "prev": "0x0000000000000000000000000000000000000000000000000000000000000000"
                    }
                ],
                "storageVariables": [
                    {
                        "name": "balances",
                        "type": "mapping(address => uint256)",
                        "value": {
                            "pairs": [
                                {
                                    "key": "0x321ec59e6078d2c49ba73ec57abdea10347a3065",
                                    "value": {
                                        "current": "1898920000000000000000",
                                        "prev": "0",
                                        "typeTag": 1
                                    }
                                },
                                {
                                    "key": "0x75e89d5979e4f6fba9f97c104c2f0afb3f1dcb88",
                                    "value": {
                                        "current": "714160464284729572409651",
                                        "prev": "716059384284729572409651",
                                        "typeTag": 1
                                    }
                                }
                            ],
                            "typeTag": 4
                        }
                    }
                ]
            }
        ]
    }
}