{
    "balance_change": {
        "balanceChanges": [
            {
                "account": "0x553f022201fa7c88e6cc10d1c688b157d6fa7775",
                "assets": [
                    {
                        "address": "0x6b175474e89094c44da98b954eedeac495271d0f",
                        "amount": "2",
                        "iconUrl": "https://assets.blocksec.com/icon/39aead569b9c011cb6f69734d9abbc9ab6a80049fe93bbd12bb473a3e0e859a3.png",
                        "isERC1155": false,
                        "isERC721": false,
                        "sign": false,
                        "value": "2.0019999999999997797"
                    }
                ]
            },
            {
                "account": "0x3ee18b2214aff97000d974cf647e7c347e8fa585",
                "assets": [
                    {
                        "address": "0x6b175474e89094c44da98b954eedeac495271d0f",
                        "amount": "2",
                        "iconUrl": "https://assets.blocksec.com/icon/39aead569b9c011cb6f69734d9abbc9ab6a80049fe93bbd12bb473a3e0e859a3.png",
                        "isERC1155": false,
                        "isERC721": false,
                        "sign": true,
                        "value": "2.0019999999999997797"
                    }
                ]
            }
        ]
    },
    "profile": {
        "basic_info": {
            "baseFee": "7.872758864",
            "blockNumber": 19811079,
            "callData": "0xc5a5ebda0000000000000000000000006b175474e89094c44da98b954eedeac495271d0f0000000000000000000000000000000000000000000000001bc16d674ec8000000000000000000000000000000000000000000000000000000000000000000100000000000000000000000000000000000000000000000000000000000000816000000000000000000000000000000000000000000000000000000000000000000000000000000000000000000000000000000000000000000000000000000c000000000000000000000000000000000000000000000000000000000000000290001010200c91f010045544800553f022201fa7c88e6cc10d1c688b157d6fa777500000000000000000000000000000000000000000000000000000000000000",
            "debugEnable": true,
            "errorInfo": "",
            "eventCount": 2,
            "feeRecipient": "0x1f9090aae28b8a3dceadf281b0f12828e676c326",
            "formatValue": "0",
            "gasLimit": 103692,
            "gasPrice": "7.881162492",
            "gasUsed": 96972,
            "intTxnCount": 7,
            "internalRevert": false,
            "internalRevertMessage": "",
            "isContractCreation": false,
            "isFlashloan": false,
            "maxFee": "10.917566054",
            "nonce": 386,
            "overwritedBlockNumber": -1,
            "priorityFee": "0.008403628",
            "receiver": "0x3ee18b2214aff97000d974cf647e7c347e8fa585",
            "revertMessage": "",
            "sender": "0x553f022201fa7c88e6cc10d1c688b157d6fa7775",
            "simulationEnable": true,
            "sourceTxnHash": "0x8bb8621ab4fc9e4ae80614ef274b67991507cf6481af5cfd3109b98785f20f2c",
            "status": true,
            "timestamp": "2024-05-06T12:35:47Z",
            "transactionFee": "0.000764252089174224",
            "txnHash": "0x8bb8621ab4fc9e4ae80614ef274b67991507cf6481af5cfd3109b98785f20f2c",
            "txnIndex": 213,
            "type": 2,
            "value": "0"
        },
        "fund_flow": [
            {
                "amount": "2",
                "from": "0x553f022201fa7c88e6cc10d1c688b157d6fa7775",
                "id": 1,
                "isERC1155": false,
                "isERC721": false,
                "isReverted": false,
                "order": 1,
                "to": "0x3ee18b2214aff97000d974cf647e7c347e8fa585",
                "token": "0x6b175474e89094c44da98b954eedeac495271d0f"
            }
        ],
        "token_infos": [
            {
                "address": "0xeeeeeeeeeeeeeeeeeeeeeeeeeeeeeeeeeeeeeeee",
                "decimals": 18
            },
            {
                "address": "0x6b175474e89094c44da98b954eedeac495271d0f",
                "decimals": 18
            },
            {
                "address": "0xc02aaa39b223fe8d0a0e5c4f27ead9083c756cc2",
                "decimals": 18
            }
        ]
    },
    "address_label": {
        "labels": [
            {
                "address": "0x98f3c9e6e3face36baad05fe09d375ef1464288b",
                "label": "Wormhole: Ethereum Core Bridge"
            },
            {
                "address": "0x0000000000000000000000000000000000000001",
                "label": "Precompiled"
            },
            {
                "address": "0x0000000000000000000000000000000000000002",
                "label": "Precompiled"
            },
            {
                "address": "0x0000000000000000000000000000000000000004",
                "label": "Precompiled"
            },
            {
                "address": "0x6b175474e89094c44da98b954eedeac495271d0f",
                "label": "Sky: Dai Stablecoin"
            },
            {
                "address": "0x3c3d457f1522d3540ab3325aa5f1864e34cba9d0",
                "label": "Implementation"
            },
            {
                "address": "0x381752f5458282d317d12c30d2bd4d6e1fd8841e",
                "label": "BridgeImplementation"
            },
            {
                "address": "0x3ee18b2214aff97000d974cf647e7c347e8fa585",
                "label": "Wormhole: Portal Token Bridge"
            },
            {
                "address": "0x0000000000000000000000000000000000000003",
                "label": "Precompiled"
            },
            {
                "address": "0xeeeeeeeeeeeeeeeeeeeeeeeeeeeeeeeeeeeeeeee",
                "label": "Ether"
            }
        ]
    },
    "trace": {
        "accountLabels": null,
        "dataMap": {
            "-1": {
                "invocation": {
                    "address": "0x553f022201fa7c88e6cc10d1c688b157d6fa7775",
                    "callData": "",
                    "decodedMethod": null,
                    "errorInfo": "",
                    "fromAddress": "",
                    "gasUsed": 0,
                    "id": -1,
                    "methodDecoded": false,
                    "operation": "",
                    "output": "",
                    "revert": false,
                    "revertMessage": "",
                    "selector": "",
                    "status": false,
                    "value": ""
                },
                "nodeType": 0
            },
            "0": {
                "invocation": {
                    "address": "0x3ee18b2214aff97000d974cf647e7c347e8fa585",
                    "callData": "0x0000000000000000000000006b175474e89094c44da98b954eedeac495271d0f0000000000000000000000000000000000000000000000001bc16d674ec8000000000000000000000000000000000000000000000000000000000000000000100000000000000000000000000000000000000000000000000000000000000816000000000000000000000000000000000000000000000000000000000000000000000000000000000000000000000000000000000000000000000000000000c000000000000000000000000000000000000000000000000000000000000000290001010200c91f010045544800553f022201fa7c88e6cc10d1c688b157d6fa777500000000000000000000000000000000000000000000000000000000000000",
                    "decodedMethod": {
                        "callParams": [
                            {
                                "name": "token",
                                "type": "address",
                                "value": "0x6b175474e89094c44da98b954eedeac495271d0f"
                            },
                            {
                                "name": "amount",
                                "type": "uint256",
                                "value": "2,000,000,000,000,000,000"
                            },
                            {
                                "name": "recipientChain",
                                "type": "uint16",
                                "value": "16"
                            },
                            {
                                "name": "recipient",
                                "type": "bytes32",
                                "value": "0x0000000000000000000000000000000000000000000000000000000000000816"
                            },
                            {
                                "name": "nonce",
                                "type": "uint32",
                                "value": "0"
                            },
                            {
                                "name": "payload",
                                "type": "bytes",
                                "value": "0x0001010200c91f010045544800553f022201fa7c88e6cc10d1c688b157d6fa77750000000000000000"
                            }
                        ],
                        "constructorArguments": "",
                        "name": "transferTokensWithPayload",
                        "returnParams": [
                            {
                                "name": "sequence",
                                "type": "uint64",
                                "value": "271,017"
                            }
                        ],
                        "signature": "transferTokensWithPayload(address,uint256,uint16,bytes32,uint32,bytes)"
                    },
                    "errorInfo": "",
                    "fromAddress": "0x553f022201fa7c88e6cc10d1c688b157d6fa7775",
                    "gasUsed": 96972,
                    "id": 0,
                    "methodDecoded": true,
                    "operation": "CALL",
                    "output": "0x00000000000000000000000000000000000000000000000000000000000422a9",
                    "revert": false,
                    "revertMessage": "",
                    "selector": "0xc5a5ebda",
                    "status": true,
                    "value": "0"
                },
                "nodeType": 0
            },
            "1": {
                "invocation": {
                    "address": "0x381752f5458282d317d12c30d2bd4d6e1fd8841e",
                    "callData": "0x0000000000000000000000006b175474e89094c44da98b954eedeac495271d0f0000000000000000000000000000000000000000000000001bc16d674ec8000000000000000000000000000000000000000000000000000000000000000000100000000000000000000000000000000000000000000000000000000000000816000000000000000000000000000000000000000000000000000000000000000000000000000000000000000000000000000000000000000000000000000000c000000000000000000000000000000000000000000000000000000000000000290001010200c91f010045544800553f022201fa7c88e6cc10d1c688b157d6fa777500000000000000000000000000000000000000000000000000000000000000",
                    "decodedMethod": {
                        "callParams": [
                            {
                                "name": "token",
                                "type": "address",
                                "value": "0x6b175474e89094c44da98b954eedeac495271d0f"
                            },
                            {
                                "name": "amount",
                                "type": "uint256",
                                "value": "2,000,000,000,000,000,000"
                            },
                            {
                                "name": "recipientChain",
                                "type": "uint16",
                                "value": "16"
                            },
                            {
                                "name": "recipient",
                                "type": "bytes32",
                                "value": "0x0000000000000000000000000000000000000000000000000000000000000816"
                            },
                            {
                                "name": "nonce",
                                "type": "uint32",
                                "value": "0"
                            },
                            {
                                "name": "payload",
                                "type": "bytes",
                                "value": "0x0001010200c91f010045544800553f022201fa7c88e6cc10d1c688b157d6fa77750000000000000000"
                            }
                        ],
                        "constructorArguments": "",
                        "name": "transferTokensWithPayload",
                        "returnParams": [
                            {
                                "name": "sequence",
                                "type": "uint64",
                                "value": "271,017"
                            }
                        ],
                        "signature": "transferTokensWithPayload(address,uint256,uint16,bytes32,uint32,bytes)"
                    },
                    "errorInfo": "",
                    "fromAddress": "0x3ee18b2214aff97000d974cf647e7c347e8fa585",
                    "gasUsed": 71893,
                    "id": 1,
                    "methodDecoded": true,
                    "operation": "DELEGATECALL",
                    "output": "0x00000000000000000000000000000000000000000000000000000000000422a9",
                    "revert": false,
                    "revertMessage": "",
                    "selector": "0xc5a5ebda",
                    "status": true,
                    "value": "0"
                },
                "nodeType": 0
            },
            "2": {
                "invocation": {
                    "address": "0x6b175474e89094c44da98b954eedeac495271d0f",
                    "callData": "0x",
                    "decodedMethod": {
                        "callParams": [],
                        "constructorArguments": "",
                        "name": "decimals",
                        "returnParams": [
                            {
                                "name": "",
                                "type": "uint8",
                                "value": "18"
                            }
                        ],
                        "signature": "decimals()"
                    },
                    "errorInfo": "",
                    "fromAddress": "0x3ee18b2214aff97000d974cf647e7c347e8fa585",
                    "gasUsed": 240,
                    "id": 2,
                    "methodDecoded": true,
                    "operation": "STATICCALL",
                    "output": "0x0000000000000000000000000000000000000000000000000000000000000012",
                    "revert": false,
                    "revertMessage": "",
                    "selector": "0x313ce567",
                    "status": true,
                    "value": "0"
                },
                "nodeType": 0
            },
            "3": {
                "invocation": {
                    "address": "0x6b175474e89094c44da98b954eedeac495271d0f",
                    "callData": "0x0000000000000000000000003ee18b2214aff97000d974cf647e7c347e8fa585",
                    "decodedMethod": {
                        "callParams": [
                            {
                                "name": "",
                                "type": "address",
                                "value": "0x3ee18b2214aff97000d974cf647e7c347e8fa585"
                            }
                        ],
                        "constructorArguments": "",
                        "name": "balanceOf",
                        "returnParams": [
                            {
                                "decimalAvailable": true,
                                "name": "",
                                "type": "uint256",
                                "value": "1,439,945,501,933,350,000,000,000"
                            }
                        ],
                        "signature": "balanceOf(address)"
                    },
                    "errorInfo": "",
                    "fromAddress": "0x3ee18b2214aff97000d974cf647e7c347e8fa585",
                    "gasUsed": 2602,
                    "id": 3,
                    "methodDecoded": true,
                    "operation": "STATICCALL",
                    "output": "0x0000000000000000000000000000000000000000000130eb9a217224412ffc00",
                    "revert": false,
                    "revertMessage": "",
                    "selector": "0x70a08231",
                    "status": true,
                    "value": "0"
                },
                "nodeType": 0
            },
            "4": {
                "invocation": {
                    "address": "0x6b175474e89094c44da98b954eedeac495271d0f",
                    "callData": "0x000000000000000000000000553f022201fa7c88e6cc10d1c688b157d6fa77750000000000000000000000003ee18b2214aff97000d974cf647e7c347e8fa5850000000000000000000000000000000000000000000000001bc16d674ec80000",
                    "decodedMethod": {
                        "callParams": [
                            {
                                "name": "src",
                                "type": "address",
                                "value": "0x553f022201fa7c88e6cc10d1c688b157d6fa7775"
                            },
                            {
                                "name": "dst",
                                "type": "address",
                                "value": "0x3ee18b2214aff97000d974cf647e7c347e8fa585"
                            },
                            {
                                "decimalAvailable": true,
                                "name": "wad",
                                "type": "uint256",
                                "value": "2,000,000,000,000,000,000"
                            }
                        ],
                        "constructorArguments": "",
                        "name": "transferFrom",
                        "returnParams": [
                            {
                                "name": "",
                                "type": "bool",
                                "value": true
                            }
                        ],
                        "signature": "transferFrom(address,address,uint256)"
                    },
                    "errorInfo": "",
                    "fromAddress": "0x3ee18b2214aff97000d974cf647e7c347e8fa585",
                    "gasUsed": 17175,
                    "id": 4,
                    "methodDecoded": true,
                    "operation": "CALL",
                    "output": "0x0000000000000000000000000000000000000000000000000000000000000001",
                    "revert": false,
                    "revertMessage": "",
                    "selector": "0x23b872dd",
                    "status": true,
                    "value": "0"
                },
                "nodeType": 0
            },
            "5": {
                "event": {
                    "contract": "0x6b175474e89094c44da98b954eedeac495271d0f",
                    "decodedLog": {
                        "name": "Transfer",
                        "params": [
                            {
                                "name": "src",
                                "type": "address",
                                "value": "0x553f022201fa7c88e6cc10d1c688b157d6fa7775"
                            },
                            {
                                "name": "dst",
                                "type": "address",
                                "value": "0x3ee18b2214aff97000d974cf647e7c347e8fa585"
                            },
                            {
                                "decimalAvailable": true,
                                "name": "wad",
                                "type": "uint256",
                                "value": "2,000,000,000,000,000,000"
                            }
                        ],
                        "signature": "Transfer(address,address,uint256)"
                    },
                    "id": 5,
                    "logData": "0x0000000000000000000000000000000000000000000000001bc16d674ec80000",
                    "logDecoded": true,
                    "operation": "EVENT",
                    "revert": false,
                    "status": true,
                    "topics": [
                        "0xddf252ad1be2c89b69c2b068fc378daa952ba7f163c4a11628f55a4df523b3ef",
                        "0x000000000000000000000000553f022201fa7c88e6cc10d1c688b157d6fa7775",
                        "0x0000000000000000000000003ee18b2214aff97000d974cf647e7c347e8fa585"
                    ]
                },
                "nodeType": 1
            },
            "6": {
                "invocation": {
                    "address": "0x6b175474e89094c44da98b954eedeac495271d0f",
                    "callData": "0x0000000000000000000000003ee18b2214aff97000d974cf647e7c347e8fa585",
                    "decodedMethod": {
                        "callParams": [
                            {
                                "name": "",
                                "type": "address",
                                "value": "0x3ee18b2214aff97000d974cf647e7c347e8fa585"
                            }
                        ],
                        "constructorArguments": "",
                        "name": "balanceOf",
                        "returnParams": [
                            {
                                "decimalAvailable": true,
                                "name": "",
                                "type": "uint256",
                                "value": "1,439,947,501,933,350,000,000,000"
                            }
                        ],
                        "signature": "balanceOf(address)"
                    },
                    "errorInfo": "",
                    "fromAddress": "0x3ee18b2214aff97000d974cf647e7c347e8fa585",
                    "gasUsed": 602,
                    "id": 6,
                    "methodDecoded": true,
                    "operation": "STATICCALL",
                    "output": "0x0000000000000000000000000000000000000000000130ebb5e2df8b8ff7fc00",
                    "revert": false,
                    "revertMessage": "",
                    "selector": "0x70a08231",
                    "status": true,
                    "value": "0"
                },
                "nodeType": 0
            },
            "7": {
                "invocation": {
                    "address": "0x98f3c9e6e3face36baad05fe09d375ef1464288b",
                    "callData": "0x00000000000000000000000000000000000000000000000000000000000000000000000000000000000000000000000000000000000000000000000000000060000000000000000000000000000000000000000000000000000000000000000100000000000000000000000000000000000000000000000000000000000000ae03000000000000000000000000000000000000000000000000000000000bebc2000000000000000000000000006b175474e89094c44da98b954eedeac495271d0f000200000000000000000000000000000000000000000000000000000000000008160010000000000000000000000000553f022201fa7c88e6cc10d1c688b157d6fa77750001010200c91f010045544800553f022201fa7c88e6cc10d1c688b157d6fa77750000000000000000000000000000000000000000000000000000",
                    "decodedMethod": {
                        "callParams": [
                            {
                                "name": "nonce",
                                "type": "uint32",
                                "value": "0"
                            },
                            {
                                "name": "payload",
                                "type": "bytes",
                                "value": "0x03000000000000000000000000000000000000000000000000000000000bebc2000000000000000000000000006b175474e89094c44da98b954eedeac495271d0f000200000000000000000000000000000000000000000000000000000000000008160010000000000000000000000000553f022201fa7c88e6cc10d1c688b157d6fa77750001010200c91f010045544800553f022201fa7c88e6cc10d1c688b157d6fa77750000000000000000"
                            },
                            {
                                "name": "consistencyLevel",
                                "type": "uint8",
                                "value": "1"
                            }
                        ],
                        "constructorArguments": "",
                        "name": "publishMessage",
                        "returnParams": [
                            {
                                "name": "sequence",
                                "type": "uint64",
                                "value": "271,017"
                            }
                        ],
                        "signature": "publishMessage(uint32,bytes,uint8)"
                    },
                    "errorInfo": "",
                    "fromAddress": "0x3ee18b2214aff97000d974cf647e7c347e8fa585",
                    "gasUsed": 18413,
                    "id": 7,
                    "methodDecoded": true,
                    "operation": "CALL",
                    "output": "0x00000000000000000000000000000000000000000000000000000000000422a9",
                    "revert": false,
                    "revertMessage": "",
                    "selector": "0xb19a437e",
                    "status": true,
                    "value": "0"
                },
                "nodeType": 0
            },
            "8": {
                "invocation": {
                    "address": "0x3c3d457f1522d3540ab3325aa5f1864e34cba9d0",
                    "callData": "0x00000000000000000000000000000000000000000000000000000000000000000000000000000000000000000000000000000000000000000000000000000060000000000000000000000000000000000000000000000000000000000000000100000000000000000000000000000000000000000000000000000000000000ae03000000000000000000000000000000000000000000000000000000000bebc2000000000000000000000000006b175474e89094c44da98b954eedeac495271d0f000200000000000000000000000000000000000000000000000000000000000008160010000000000000000000000000553f022201fa7c88e6cc10d1c688b157d6fa77750001010200c91f010045544800553f022201fa7c88e6cc10d1c688b157d6fa77750000000000000000000000000000000000000000000000000000",
                    "decodedMethod": {
                        "callParams": [
                            {
                                "name": "nonce",
                                "type": "uint32",
                                "value": "0"
                            },
                            {
                                "name": "payload",
                                "type": "bytes",
                                "value": "0x03000000000000000000000000000000000000000000000000000000000bebc2000000000000000000000000006b175474e89094c44da98b954eedeac495271d0f000200000000000000000000000000000000000000000000000000000000000008160010000000000000000000000000553f022201fa7c88e6cc10d1c688b157d6fa77750001010200c91f010045544800553f022201fa7c88e6cc10d1c688b157d6fa77750000000000000000"
                            },
                            {
                                "name": "consistencyLevel",
                                "type": "uint8",
                                "value": "1"
                            }
                        ],
                        "constructorArguments": "",
                        "name": "publishMessage",
                        "returnParams": [
                            {
                                "name": "sequence",
                                "type": "uint64",
                                "value": "271,017"
                            }
                        ],
                        "signature": "publishMessage(uint32,bytes,uint8)"
                    },
                    "errorInfo": "",
                    "fromAddress": "0x98f3c9e6e3face36baad05fe09d375ef1464288b",
                    "gasUsed": 13464,
                    "id": 8,
                    "methodDecoded": true,
                    "operation": "DELEGATECALL",
                    "output": "0x00000000000000000000000000000000000000000000000000000000000422a9",
                    "revert": false,
                    "revertMessage": "",
                    "selector": "0xb19a437e",
                    "status": true,
                    "value": "0"
                },
                "nodeType": 0
            },
            "9": {
                "event": {
                    "contract": "0x98f3c9e6e3face36baad05fe09d375ef1464288b",
                    "decodedLog": {
                        "name": "LogMessagePublished",
                        "params": [
                            {
                                "name": "sender",
                                "type": "address",
                                "value": "0x3ee18b2214aff97000d974cf647e7c347e8fa585"
                            },
                            {
                                "name": "sequence",
                                "type": "uint64",
                                "value": "271,017"
                            },
                            {
                                "name": "nonce",
                                "type": "uint32",
                                "value": "0"
                            },
                            {
                                "name": "payload",
                                "type": "bytes",
                                "value": "0x03000000000000000000000000000000000000000000000000000000000bebc2000000000000000000000000006b175474e89094c44da98b954eedeac495271d0f000200000000000000000000000000000000000000000000000000000000000008160010000000000000000000000000553f022201fa7c88e6cc10d1c688b157d6fa77750001010200c91f010045544800553f022201fa7c88e6cc10d1c688b157d6fa77750000000000000000"
                            },
                            {
                                "name": "consistencyLevel",
                                "type": "uint8",
                                "value": "1"
                            }
                        ],
                        "signature": "LogMessagePublished(address,uint64,uint32,bytes,uint8)"
                    },
                    "id": 9,
                    "logData": "0x00000000000000000000000000000000000000000000000000000000000422a900000000000000000000000000000000000000000000000000000000000000000000000000000000000000000000000000000000000000000000000000000080000000000000000000000000000000000000000000000000000000000000000100000000000000000000000000000000000000000000000000000000000000ae03000000000000000000000000000000000000000000000000000000000bebc2000000000000000000000000006b175474e89094c44da98b954eedeac495271d0f000200000000000000000000000000000000000000000000000000000000000008160010000000000000000000000000553f022201fa7c88e6cc10d1c688b157d6fa77750001010200c91f010045544800553f022201fa7c88e6cc10d1c688b157d6fa77750000000000000000000000000000000000000000000000000000",
                    "logDecoded": true,
                    "operation": "EVENT",
                    "revert": false,
                    "status": true,
                    "topics": [
                        "0x6eb224fb001ed210e379b335e35efe88672a8ce935d981a6896b27ffdf52a3b2",
                        "0x0000000000000000000000003ee18b2214aff97000d974cf647e7c347e8fa585"
                    ]
                },
                "nodeType": 1
            }
        },
        "gasFlame": [
            {
                "children": [
                    {
                        "children": [
                            {
                                "children": [],
                                "depth": 0,
                                "name": "Initial Gas",
                                "value": 22936
                            },
                            {
                                "children": [
                                    {
                                        "children": [
                                            {
                                                "children": [],
                                                "depth": 2,
                                                "name": "decimals",
                                                "value": 240
                                            },
                                            {
                                                "children": [],
                                                "depth": 2,
                                                "name": "balanceOf",
                                                "value": 2602
                                            },
                                            {
                                                "children": [],
                                                "depth": 2,
                                                "name": "transferFrom",
                                                "value": 17175
                                            },
                                            {
                                                "children": [],
                                                "depth": 2,
                                                "name": "balanceOf",
                                                "value": 602
                                            },
                                            {
                                                "children": [
                                                    {
                                                        "children": [],
                                                        "depth": 3,
                                                        "name": "publishMessage",
                                                        "value": 13464
                                                    }
                                                ],
                                                "depth": 2,
                                                "name": "publishMessage",
                                                "value": 18413
                                            }
                                        ],
                                        "depth": 1,
                                        "name": "transferTokensWithPayload",
                                        "value": 71893
                                    }
                                ],
                                "depth": 0,
                                "name": "Executed Gas",
                                "value": 76836
                            }
                        ],
                        "depth": -1,
                        "name": "Actual Gas Used",
                        "value": 96972
                    },
                    {
                        "children": [],
                        "depth": -1,
                        "name": "Refunded Gas",
                        "value": 2800
                    }
                ],
                "depth": -2,
                "name": "Total Gas",
                "value": 99772
            }
        ],
        "isConfirmed": true,
        "mainTrace": [
            {
                "children": [
                    {
                        "children": [
                            {
                                "children": [
                                    {
                                        "children": [],
                                        "depth": 2,
                                        "id": 2,
                                        "order": 2
                                    },
                                    {
                                        "children": [],
                                        "depth": 2,
                                        "id": 3,
                                        "order": 3
                                    },
                                    {
                                        "children": [
                                            {
                                                "children": [],
                                                "depth": 3,
                                                "id": 5,
                                                "order": 5
                                            }
                                        ],
                                        "depth": 2,
                                        "id": 4,
                                        "order": 4
                                    },
                                    {
                                        "children": [],
                                        "depth": 2,
                                        "id": 6,
                                        "order": 6
                                    },
                                    {
                                        "children": [
                                            {
                                                "children": [
                                                    {
                                                        "children": [],
                                                        "depth": 4,
                                                        "id": 9,
                                                        "order": 9
                                                    }
                                                ],
                                                "depth": 3,
                                                "id": 8,
                                                "order": 8
                                            }
                                        ],
                                        "depth": 2,
                                        "id": 7,
                                        "order": 7
                                    }
                                ],
                                "depth": 1,
                                "id": 1,
                                "order": 1
                            }
                        ],
                        "depth": 0,
                        "id": 0,
                        "order": 0
                    }
                ],
                "depth": -1,
                "id": -1,
                "order": -1
            }
        ],
        "mainTraceNodeCount": 10,
        "parentIdMap": {
            "0": -1,
            "1": 0,
            "2": 1,
            "3": 1,
            "4": 1,
            "5": 4,
            "6": 1,
            "7": 1,
            "8": 7,
            "9": 8
        },
        "tidyTrace": [
            {
                "children": [
                    {
                        "children": [
                            {
                                "children": [
                                    {
                                        "children": [
                                            {
                                                "children": [],
                                                "depth": 3,
                                                "id": 5,
                                                "order": 5
                                            }
                                        ],
                                        "depth": 2,
                                        "id": 4,
                                        "order": 4
                                    },
                                    {
                                        "children": [
                                            {
                                                "children": [
                                                    {
                                                        "children": [],
                                                        "depth": 4,
                                                        "id": 9,
                                                        "order": 9
                                                    }
                                                ],
                                                "depth": 3,
                                                "id": 8,
                                                "order": 8
                                            }
                                        ],
                                        "depth": 2,
                                        "id": 7,
                                        "order": 7
                                    }
                                ],
                                "depth": 1,
                                "id": 1,
                                "order": 1
                            }
                        ],
                        "depth": 0,
                        "id": 0,
                        "order": 0
                    }
                ],
                "depth": -1,
                "id": -1,
                "order": -1
            }
        ],
        "tidyTraceNodeCount": 7
    },
    "state_change": {
        "stateChanges": [
            {
                "address": "0x3ee18b2214aff97000d974cf647e7c347e8fa585",
                "erc": "",
                "slots": [
                    {
                        "current": "0x000000000000000000000000000000000000000000000000000082f663ef4eb7",
                        "key": "0x1744df35f6dfbadec8ef70bd98fb2002381c7094845739bd9f9ceb00529672c2",
                        "prev": "0x000000000000000000000000000000000000000000000000000082f658038cb7"
                    }
                ],
                "storageVariables": [
                    {
                        "name": "_state",
                        "type": "struct BridgeStorage.State",
                        "value": {
                            "fields": [
                                {
                                    "name": "outstandingBridged",
                                    "type": "mapping(address => uint256)",
                                    "value": {
                                        "pairs": [
                                            {
                                                "key": "0x6b175474e89094c44da98b954eedeac495271d0f",
                                                "value": {
                                                    "current": "143994750193335",
                                                    "prev": "143994550193335",
                                                    "typeTag": 1
                                                }
                                            }
                                        ],
                                        "typeTag": 4
                                    }
                                }
                            ],
                            "typeTag": 3
                        }
                    }
                ]
            },
            {
                "address": "0x6b175474e89094c44da98b954eedeac495271d0f",
                "erc": "ERC-20",
                "slots": [
                    {
                        "current": "0x0000000000000000000000000000000000000000000130ebb5e2df8b8ff7fc00",
                        "key": "0x7fd17db110aee826a577dfbf7a0b0849f1b2d42a9f2efd988ac749505e3aa9a4",
                        "prev": "0x0000000000000000000000000000000000000000000130eb9a217224412ffc00"
                    },
                    {
                        "current": "0x00000000000000000000000000000000000000000000000029a2241af62c0000",
                        "key": "0x493811963c489b4fe80a6433a6e09086996290afdb1277bcd153ce5374851223",
                        "prev": "0x0000000000000000000000000000000000000000000000004563918244f40000"
                    },
                    {
                        "current": "0x000000000000000000000000000000000000000000000000b469471f80140a77",
                        "key": "0xa3a3c99fde5b245b40938af0aad06601fb5082296457896720a5a4a4e963e417",
                        "prev": "0x000000000000000000000000000000000000000000000000d02ab486cedc0a77"
                    }
                ],
                "storageVariables": [
                    {
                        "name": "balanceOf",
                        "type": "mapping(address => uint256)",
                        "value": {
                            "pairs": [
                                {
                                    "key": "0x3ee18b2214aff97000d974cf647e7c347e8fa585",
                                    "value": {
                                        "current": "1439947501933350000000000",
                                        "prev": "1439945501933350000000000",
                                        "typeTag": 1
                                    }
                                },
                                {
                                    "key": "0x553f022201fa7c88e6cc10d1c688b157d6fa7775",
                                    "value": {
                                        "current": "13000000000000002679",
                                        "prev": "15000000000000002679",
                                        "typeTag": 1
                                    }
                                }
                            ],
                            "typeTag": 4
                        }
                    },
                    {
                        "name": "allowance",
                        "type": "mapping(address => mapping(address => uint256))",
                        "value": {
                            "pairs": [
                                {
                                    "key": "0x553f022201fa7c88e6cc10d1c688b157d6fa7775",
                                    "value": {
                                        "pairs": [
                                            {
                                                "key": "0x3ee18b2214aff97000d974cf647e7c347e8fa585",
                                                "value": {
                                                    "current": "3000000000000000000",
                                                    "prev": "5000000000000000000",
                                                    "typeTag": 1
                                                }
                                            }
                                        ],
                                        "typeTag": 4
                                    }
                                }
                            ],
                            "typeTag": 4
                        }
                    }
                ]
            },
            {
                "address": "0x98f3c9e6e3face36baad05fe09d375ef1464288b",
                "erc": "",
                "slots": [
                    {
                        "current": "0x00000000000000000000000000000000000000000000000000000000000422aa",
                        "key": "0x9ccbe70f0ebf9580c8c443085390e3dfb5be5ce94c31506ca135827ebc1b9f32",
                        "prev": "0x00000000000000000000000000000000000000000000000000000000000422a9"
                    }
                ],
                "storageVariables": [
                    {
                        "name": "_state",
                        "type": "struct Storage.WormholeState",
                        "value": {
                            "fields": [
                                {
                                    "name": "sequences",
                                    "type": "mapping(address => uint64)",
                                    "value": {
                                        "pairs": [
                                            {
                                                "key": "0x3ee18b2214aff97000d974cf647e7c347e8fa585",
                                                "value": {
                                                    "current": "271018",
                                                    "prev": "271017",
                                                    "typeTag": 1
                                                }
                                            }
                                        ],
                                        "typeTag": 4
                                    }
                                }
                            ],
                            "typeTag": 3
                        }
                    }
                ]
            }
        ]
    }
}