{
    "balance_change": {
        "balanceChanges": [
            {
                "account": "0xa2b286a781233432204a573d6f40fbd2252cbbd4",
                "assets": [
                    {
                        "address": "0x6b175474e89094c44da98b954eedeac495271d0f",
                        "amount": "0.0000001",
                        "iconUrl": "https://assets.blocksec.com/icon/39aead569b9c011cb6f69734d9abbc9ab6a80049fe93bbd12bb473a3e0e859a3.png",
                        "isERC1155": false,
                        "isERC721": false,
                        "sign": false,
                        "value": "0.0000000999500000000000055"
                    }
                ]
            },
            {
                "account": "0xa4108aa1ec4967f8b52220a4f7e94a8201f2d906",
                "assets": [
                    {
                        "address": "0x6b175474e89094c44da98b954eedeac495271d0f",
                        "amount": "0.0000001",
                        "iconUrl": "https://assets.blocksec.com/icon/39aead569b9c011cb6f69734d9abbc9ab6a80049fe93bbd12bb473a3e0e859a3.png",
                        "isERC1155": false,
                        "isERC721": false,
                        "sign": true,
                        "value": "0.0000000999500000000000055"
                    }
                ]
            }
        ]
    },
    "profile": {
        "basic_info": {
            "baseFee": "9.443075537",
            "blockNumber": 15630125,
            "callData": "0x0f2123570000000000000000000000006b175474e89094c44da98b954eedeac495271d0f0000000000000000000000000000000000000000000000000000000000000060000000000000000000000000000000000000000000000000000000174876e800000000000000000000000000000000000000000000000000000000000000002e67726176697479316665396e6e35353239747a6c6d3074747365336675357765326a763836756c76756b77636a7a000000000000000000000000000000000000",
            "debugEnable": true,
            "errorInfo": "",
            "eventCount": 2,
            "feeRecipient": "0xdafea492d9c6733ae3d56b7ed1adb60692c98bc5",
            "formatValue": "0",
            "gasLimit": 60807,
            "gasPrice": "10.943075537",
            "gasUsed": 55823,
            "intTxnCount": 3,
            "internalRevert": false,
            "internalRevertMessage": "",
            "isContractCreation": false,
            "isFlashloan": false,
            "maxFee": "14.066256425",
            "nonce": 46,
            "overwritedBlockNumber": -1,
            "priorityFee": "1.5",
            "receiver": "0xa4108aa1ec4967f8b52220a4f7e94a8201f2d906",
            "revertMessage": "",
            "sender": "0xa2b286a781233432204a573d6f40fbd2252cbbd4",
            "simulationEnable": true,
            "sourceTxnHash": "0x8b7788389d7deb1d4bdcb1b3ef04c8ffb3f044a5adc00c03fb762ba77e280867",
            "status": true,
            "timestamp": "2022-09-28T06:44:47Z",
            "transactionFee": "0.000610875305701951",
            "txnHash": "0x8b7788389d7deb1d4bdcb1b3ef04c8ffb3f044a5adc00c03fb762ba77e280867",
            "txnIndex": 103,
            "type": 2,
            "value": "0"
        },
        "fund_flow": [
            {
                "amount": "0.0000001",
                "from": "0xa2b286a781233432204a573d6f40fbd2252cbbd4",
                "id": 1,
                "isERC1155": false,
                "isERC721": false,
                "isReverted": false,
                "order": 1,
                "to": "0xa4108aa1ec4967f8b52220a4f7e94a8201f2d906",
                "token": "0x6b175474e89094c44da98b954eedeac495271d0f"
            }
        ],
        "token_infos": [
            {
                "address": "0xeeeeeeeeeeeeeeeeeeeeeeeeeeeeeeeeeeeeeeee",
                "decimals": 18
            },
            {
                "address": "0x6b175474e89094c44da98b954eedeac495271d0f",
                "decimals": 18
            },
            {
                "address": "0xc02aaa39b223fe8d0a0e5c4f27ead9083c756cc2",
                "decimals": 18
            }
        ]
    },
    "address_label": {
        "labels": [
            {
                "address": "0x0000000000000000000000000000000000000003",
                "label": "Precompiled"
            },
            {
                "address": "0x0000000000000000000000000000000000000004",
                "label": "Precompiled"
            },
            {
                "address": "0xeeeeeeeeeeeeeeeeeeeeeeeeeeeeeeeeeeeeeeee",
                "label": "Ether"
            },
            {
                "address": "0x6b175474e89094c44da98b954eedeac495271d0f",
                "label": "Sky: Dai Stablecoin"
            },
            {
                "address": "0xa4108aa1ec4967f8b52220a4f7e94a8201f2d906",
                "label": "Gravity Bridge: Bridge"
            },
            {
                "address": "0x0000000000000000000000000000000000000001",
                "label": "Precompiled"
            },
            {
                "address": "0x0000000000000000000000000000000000000002",
                "label": "Precompiled"
            }
        ]
    },
    "trace": {
        "accountLabels": null,
        "dataMap": {
            "-1": {
                "invocation": {
                    "address": "0xa2b286a781233432204a573d6f40fbd2252cbbd4",
                    "callData": "",
                    "decodedMethod": null,
                    "errorInfo": "",
                    "fromAddress": "",
                    "gasUsed": 0,
                    "id": -1,
                    "methodDecoded": false,
                    "operation": "",
                    "output": "",
                    "revert": false,
                    "revertMessage": "",
                    "selector": "",
                    "status": false,
                    "value": ""
                },
                "nodeType": 0
            },
            "0": {
                "invocation": {
                    "address": "0xa4108aa1ec4967f8b52220a4f7e94a8201f2d906",
                    "callData": "0x0000000000000000000000006b175474e89094c44da98b954eedeac495271d0f0000000000000000000000000000000000000000000000000000000000000060000000000000000000000000000000000000000000000000000000174876e800000000000000000000000000000000000000000000000000000000000000002e67726176697479316665396e6e35353239747a6c6d3074747365336675357765326a763836756c76756b77636a7a000000000000000000000000000000000000",
                    "decodedMethod": {
                        "callParams": [
                            {
                                "name": "_tokenContract",
                                "type": "address",
                                "value": "0x6b175474e89094c44da98b954eedeac495271d0f"
                            },
                            {
                                "name": "_destination",
                                "type": "string",
                                "value": "gravity1fe9nn5529tzlm0ttse3fu5we2jv86ulvukwcjz"
                            },
                            {
                                "name": "_amount",
                                "type": "uint256",
                                "value": "100,000,000,000"
                            }
                        ],
                        "constructorArguments": "",
                        "name": "sendToCosmos",
                        "returnParams": [],
                        "signature": "sendToCosmos(address,string,uint256)"
                    },
                    "errorInfo": "",
                    "fromAddress": "0xa2b286a781233432204a573d6f40fbd2252cbbd4",
                    "gasUsed": 55823,
                    "id": 0,
                    "methodDecoded": true,
                    "operation": "CALL",
                    "output": "",
                    "revert": false,
                    "revertMessage": "",
                    "selector": "0x0f212357",
                    "status": true,
                    "value": "0"
                },
                "nodeType": 0
            },
            "1": {
                "invocation": {
                    "address": "0x6b175474e89094c44da98b954eedeac495271d0f",
                    "callData": "0x000000000000000000000000a4108aa1ec4967f8b52220a4f7e94a8201f2d906",
                    "decodedMethod": {
                        "callParams": [
                            {
                                "name": "",
                                "type": "address",
                                "value": "0xa4108aa1ec4967f8b52220a4f7e94a8201f2d906"
                            }
                        ],
                        "constructorArguments": "",
                        "name": "balanceOf",
                        "returnParams": [
                            {
                                "decimalAvailable": true,
                                "name": "",
                                "type": "uint256",
                                "value": "12,134,987,223,525,050,811,253"
                            }
                        ],
                        "signature": "balanceOf(address)"
                    },
                    "errorInfo": "",
                    "fromAddress": "0xa4108aa1ec4967f8b52220a4f7e94a8201f2d906",
                    "gasUsed": 2602,
                    "id": 1,
                    "methodDecoded": true,
                    "operation": "STATICCALL",
                    "output": "0x000000000000000000000000000000000000000000000291d6c719e0d2680375",
                    "revert": false,
                    "revertMessage": "",
                    "selector": "0x70a08231",
                    "status": true,
                    "value": "0"
                },
                "nodeType": 0
            },
            "2": {
                "invocation": {
                    "address": "0x6b175474e89094c44da98b954eedeac495271d0f",
                    "callData": "0x000000000000000000000000a2b286a781233432204a573d6f40fbd2252cbbd4000000000000000000000000a4108aa1ec4967f8b52220a4f7e94a8201f2d906000000000000000000000000000000000000000000000000000000174876e800",
                    "decodedMethod": {
                        "callParams": [
                            {
                                "name": "src",
                                "type": "address",
                                "value": "0xa2b286a781233432204a573d6f40fbd2252cbbd4"
                            },
                            {
                                "name": "dst",
                                "type": "address",
                                "value": "0xa4108aa1ec4967f8b52220a4f7e94a8201f2d906"
                            },
                            {
                                "decimalAvailable": true,
                                "name": "wad",
                                "type": "uint256",
                                "value": "100,000,000,000"
                            }
                        ],
                        "constructorArguments": "",
                        "name": "transferFrom",
                        "returnParams": [
                            {
                                "name": "",
                                "type": "bool",
                                "value": true
                            }
                        ],
                        "signature": "transferFrom(address,address,uint256)"
                    },
                    "errorInfo": "",
                    "fromAddress": "0xa4108aa1ec4967f8b52220a4f7e94a8201f2d906",
                    "gasUsed": 13418,
                    "id": 2,
                    "methodDecoded": true,
                    "operation": "CALL",
                    "output": "0x0000000000000000000000000000000000000000000000000000000000000001",
                    "revert": false,
                    "revertMessage": "",
                    "selector": "0x23b872dd",
                    "status": true,
                    "value": "0"
                },
                "nodeType": 0
            },
            "3": {
                "event": {
                    "contract": "0x6b175474e89094c44da98b954eedeac495271d0f",
                    "decodedLog": {
                        "name": "Transfer",
                        "params": [
                            {
                                "name": "src",
                                "type": "address",
                                "value": "0xa2b286a781233432204a573d6f40fbd2252cbbd4"
                            },
                            {
                                "name": "dst",
                                "type": "address",
                                "value": "0xa4108aa1ec4967f8b52220a4f7e94a8201f2d906"
                            },
                            {
                                "decimalAvailable": true,
                                "name": "wad",
                                "type": "uint256",
                                "value": "100,000,000,000"
                            }
                        ],
                        "signature": "Transfer(address,address,uint256)"
                    },
                    "id": 3,
                    "logData": "0x000000000000000000000000000000000000000000000000000000174876e800",
                    "logDecoded": true,
                    "operation": "EVENT",
                    "revert": false,
                    "status": true,
                    "topics": [
                        "0xddf252ad1be2c89b69c2b068fc378daa952ba7f163c4a11628f55a4df523b3ef",
                        "0x000000000000000000000000a2b286a781233432204a573d6f40fbd2252cbbd4",
                        "0x000000000000000000000000a4108aa1ec4967f8b52220a4f7e94a8201f2d906"
                    ]
                },
                "nodeType": 1
            },
            "4": {
                "invocation": {
                    "address": "0x6b175474e89094c44da98b954eedeac495271d0f",
                    "callData": "0x000000000000000000000000a4108aa1ec4967f8b52220a4f7e94a8201f2d906",
                    "decodedMethod": {
                        "callParams": [
                            {
                                "name": "",
                                "type": "address",
                                "value": "0xa4108aa1ec4967f8b52220a4f7e94a8201f2d906"
                            }
                        ],
                        "constructorArguments": "",
                        "name": "balanceOf",
                        "returnParams": [
                            {
                                "decimalAvailable": true,
                                "name": "",
                                "type": "uint256",
                                "value": "12,134,987,223,625,050,811,253"
                            }
                        ],
                        "signature": "balanceOf(address)"
                    },
                    "errorInfo": "",
                    "fromAddress": "0xa4108aa1ec4967f8b52220a4f7e94a8201f2d906",
                    "gasUsed": 602,
                    "id": 4,
                    "methodDecoded": true,
                    "operation": "STATICCALL",
                    "output": "0x000000000000000000000000000000000000000000000291d6c719f81adeeb75",
                    "revert": false,
                    "revertMessage": "",
                    "selector": "0x70a08231",
                    "status": true,
                    "value": "0"
                },
                "nodeType": 0
            },
            "5": {
                "event": {
                    "contract": "0xa4108aa1ec4967f8b52220a4f7e94a8201f2d906",
                    "decodedLog": {
                        "name": "SendToCosmosEvent",
                        "params": [
                            {
                                "name": "_tokenContract",
                                "type": "address",
                                "value": "0x6b175474e89094c44da98b954eedeac495271d0f"
                            },
                            {
                                "name": "_sender",
                                "type": "address",
                                "value": "0xa2b286a781233432204a573d6f40fbd2252cbbd4"
                            },
                            {
                                "name": "_destination",
                                "type": "string",
                                "value": "gravity1fe9nn5529tzlm0ttse3fu5we2jv86ulvukwcjz"
                            },
                            {
                                "name": "_amount",
                                "type": "uint256",
                                "value": "100,000,000,000"
                            },
                            {
                                "name": "_eventNonce",
                                "type": "uint256",
                                "value": "15,102"
                            }
                        ],
                        "signature": "SendToCosmosEvent(address,address,string,uint256,uint256)"
                    },
                    "id": 5,
                    "logData": "0x0000000000000000000000000000000000000000000000000000000000000060000000000000000000000000000000000000000000000000000000174876e8000000000000000000000000000000000000000000000000000000000000003afe000000000000000000000000000000000000000000000000000000000000002e67726176697479316665396e6e35353239747a6c6d3074747365336675357765326a763836756c76756b77636a7a000000000000000000000000000000000000",
                    "logDecoded": true,
                    "operation": "EVENT",
                    "revert": false,
                    "status": true,
                    "topics": [
                        "0x9e9794dbf94b0a0aa31a480f5b38550eda7f89115ac8fbf4953fa4dd219900c9",
                        "0x0000000000000000000000006b175474e89094c44da98b954eedeac495271d0f",
                        "0x000000000000000000000000a2b286a781233432204a573d6f40fbd2252cbbd4"
                    ]
                },
                "nodeType": 1
            }
        },
        "gasFlame": [
            {
                "children": [
                    {
                        "children": [
                            {
                                "children": [],
                                "depth": 0,
                                "name": "Initial Gas",
                                "value": 22696
                            },
                            {
                                "children": [
                                    {
                                        "children": [],
                                        "depth": 1,
                                        "name": "balanceOf",
                                        "value": 2602
                                    },
                                    {
                                        "children": [],
                                        "depth": 1,
                                        "name": "transferFrom",
                                        "value": 13418
                                    },
                                    {
                                        "children": [],
                                        "depth": 1,
                                        "name": "balanceOf",
                                        "value": 602
                                    }
                                ],
                                "depth": 0,
                                "name": "Executed Gas",
                                "value": 35927
                            }
                        ],
                        "depth": -1,
                        "name": "Actual Gas Used",
                        "value": 55823
                    },
                    {
                        "children": [],
                        "depth": -1,
                        "name": "Refunded Gas",
                        "value": 2800
                    }
                ],
                "depth": -2,
                "name": "Total Gas",
                "value": 58623
            }
        ],
        "isConfirmed": true,
        "mainTrace": [
            {
                "children": [
                    {
                        "children": [
                            {
                                "children": [],
                                "depth": 1,
                                "id": 1,
                                "order": 1
                            },
                            {
                                "children": [
                                    {
                                        "children": [],
                                        "depth": 2,
                                        "id": 3,
                                        "order": 3
                                    }
                                ],
                                "depth": 1,
                                "id": 2,
                                "order": 2
                            },
                            {
                                "children": [],
                                "depth": 1,
                                "id": 4,
                                "order": 4
                            },
                            {
                                "children": [],
                                "depth": 1,
                                "id": 5,
                                "order": 5
                            }
                        ],
                        "depth": 0,
                        "id": 0,
                        "order": 0
                    }
                ],
                "depth": -1,
                "id": -1,
                "order": -1
            }
        ],
        "mainTraceNodeCount": 6,
        "parentIdMap": {
            "0": -1,
            "1": 0,
            "2": 0,
            "3": 2,
            "4": 0,
            "5": 0
        },
        "tidyTrace": [
            {
                "children": [
                    {
                        "children": [
                            {
                                "children": [
                                    {
                                        "children": [],
                                        "depth": 2,
                                        "id": 3,
                                        "order": 3
                                    }
                                ],
                                "depth": 1,
                                "id": 2,
                                "order": 2
                            },
                            {
                                "children": [],
                                "depth": 1,
                                "id": 5,
                                "order": 5
                            }
                        ],
                        "depth": 0,
                        "id": 0,
                        "order": 0
                    }
                ],
                "depth": -1,
                "id": -1,
                "order": -1
            }
        ],
        "tidyTraceNodeCount": 4
    },
    "state_change": {
        "stateChanges": [
            {
                "address": "0x6b175474e89094c44da98b954eedeac495271d0f",
                "erc": "ERC-20",
                "slots": [
                    {
                        "current": "0x000000000000000000000000000000000000000000000000a4fa3adff75c8801",
                        "key": "0xe2c872c915fcfed0e36fd624281b07addded84027ff8a8f1541e86437ecd5bc1",
                        "prev": "0x000000000000000000000000000000000000000000000000a4fa3af73fd37001"
                    },
                    {
                        "current": "0x000000000000000000000000000000000000000000000291d6c719f81adeeb75",
                        "key": "0x39a42abb1371a8f4eff83f7ab07c9a6470240acc83d3a8c16c420b2e9454f143",
                        "prev": "0x000000000000000000000000000000000000000000000291d6c719e0d2680375"
                    }
                ],
                "storageVariables": [
                    {
                        "name": "balanceOf",
                        "type": "mapping(address => uint256)",
                        "value": {
                            "pairs": [
                                {
                                    "key": "0xa2b286a781233432204a573d6f40fbd2252cbbd4",
                                    "value": {
                                        "current": "11887878900000000001",
                                        "prev": "11887879000000000001",
                                        "typeTag": 1
                                    }
                                },
                                {
                                    "key": "0xa4108aa1ec4967f8b52220a4f7e94a8201f2d906",
                                    "value": {
                                        "current": "12134987223625050811253",
                                        "prev": "12134987223525050811253",
                                        "typeTag": 1
                                    }
                                }
                            ],
                            "typeTag": 4
                        }
                    }
                ]
            },
            {
                "address": "0xa4108aa1ec4967f8b52220a4f7e94a8201f2d906",
                "erc": "",
                "slots": [
                    {
                        "current": "0x0000000000000000000000000000000000000000000000000000000000003afe",
                        "key": "0x0000000000000000000000000000000000000000000000000000000000000005",
                        "prev": "0x0000000000000000000000000000000000000000000000000000000000003afd"
                    }
                ],
                "storageVariables": [
                    {
                        "name": "state_lastEventNonce",
                        "type": "uint256",
                        "value": {
                            "current": "15102",
                            "prev": "15101",
                            "typeTag": 1
                        }
                    }
                ]
            }
        ]
    }
}