{
    "balance_change": {
        "balanceChanges": [
            {
                "account": "0xe02228a40e0ed319185e37c2aa47c4ce1a6734a5",
                "assets": [
                    {
                        "address": "0x0d152b9ee87ebae179f64c067a966dd716c50742",
                        "amount": "1",
                        "iconUrl": "",
                        "isERC1155": false,
                        "isERC721": false,
                        "sign": false,
                        "value": ""
                    }
                ]
            },
            {
                "account": "0x6701894490662d70d045fea57ed5bb07090808bb",
                "assets": [
                    {
                        "address": "0x0d152b9ee87ebae179f64c067a966dd716c50742",
                        "amount": "1",
                        "iconUrl": "",
                        "isERC1155": false,
                        "isERC721": false,
                        "sign": true,
                        "value": ""
                    }
                ]
            }
        ]
    },
    "profile": {
        "basic_info": {
            "baseFee": "",
            "blockNumber": 6693640,
            "callData": "0xa9059cbb0000000000000000000000006701894490662d70d045fea57ed5bb07090808bb0000000000000000000000000000000000000000000000000000000000000001",
            "debugEnable": true,
            "errorInfo": "",
            "eventCount": 1,
            "feeRecipient": "0x5a0b54d5dc17e0aadc383d2db43b0a0d3e029c4c",
            "formatValue": "0",
            "gasLimit": 51621,
            "gasPrice": "5",
            "gasUsed": 36621,
            "intTxnCount": 0,
            "internalRevert": false,
            "internalRevertMessage": "",
            "isContractCreation": false,
            "isFlashloan": false,
            "maxFee": "",
            "nonce": 332,
            "overwritedBlockNumber": -1,
            "priorityFee": "",
            "receiver": "0x0d152b9ee87ebae179f64c067a966dd716c50742",
            "revertMessage": "",
            "sender": "0xe02228a40e0ed319185e37c2aa47c4ce1a6734a5",
            "simulationEnable": true,
            "sourceTxnHash": "0x8ca7810cd494c327789583490929ed95aff8b5ac0834f2c164778dddd020e533",
            "status": true,
            "timestamp": "2018-11-12T23:49:20Z",
            "transactionFee": "0.000183105",
            "txnHash": "0x8ca7810cd494c327789583490929ed95aff8b5ac0834f2c164778dddd020e533",
            "txnIndex": 10,
            "type": 0,
            "value": "0"
        },
        "fund_flow": [
            {
                "amount": "1",
                "from": "0xe02228a40e0ed319185e37c2aa47c4ce1a6734a5",
                "id": 1,
                "isERC1155": false,
                "isERC721": false,
                "isReverted": false,
                "order": 1,
                "to": "0x6701894490662d70d045fea57ed5bb07090808bb",
                "token": "0x0d152b9ee87ebae179f64c067a966dd716c50742"
            }
        ],
        "token_infos": [
            {
                "address": "0xc02aaa39b223fe8d0a0e5c4f27ead9083c756cc2",
                "decimals": 18
            },
            {
                "address": "0xeeeeeeeeeeeeeeeeeeeeeeeeeeeeeeeeeeeeeeee",
                "decimals": 18
            },
            {
                "address": "0x0d152b9ee87ebae179f64c067a966dd716c50742",
                "decimals": 0
            }
        ]
    },
    "address_label": {
        "labels": [
            {
                "address": "0x0000000000000000000000000000000000000003",
                "label": "Precompiled"
            },
            {
                "address": "0x0000000000000000000000000000000000000004",
                "label": "Precompiled"
            },
            {
                "address": "0xeeeeeeeeeeeeeeeeeeeeeeeeeeeeeeeeeeeeeeee",
                "label": "Ether"
            },
            {
                "address": "0x0d152b9ee87ebae179f64c067a966dd716c50742",
                "label": "Mavrodi (MAVRO)"
            },
            {
                "address": "0x0000000000000000000000000000000000000001",
                "label": "Precompiled"
            },
            {
                "address": "0x0000000000000000000000000000000000000002",
                "label": "Precompiled"
            }
        ]
    },
    "trace": {
        "accountLabels": null,
        "dataMap": {
            "-1": {
                "invocation": {
                    "address": "0xe02228a40e0ed319185e37c2aa47c4ce1a6734a5",
                    "callData": "",
                    "decodedMethod": null,
                    "errorInfo": "",
                    "fromAddress": "",
                    "gasUsed": 0,
                    "id": -1,
                    "methodDecoded": false,
                    "operation": "",
                    "output": "",
                    "revert": false,
                    "revertMessage": "",
                    "selector": "",
                    "status": false,
                    "value": ""
                },
                "nodeType": 0
            },
            "0": {
                "invocation": {
                    "address": "0x0d152b9ee87ebae179f64c067a966dd716c50742",
                    "callData": "0x0000000000000000000000006701894490662d70d045fea57ed5bb07090808bb0000000000000000000000000000000000000000000000000000000000000001",
                    "decodedMethod": {
                        "callParams": [
                            {
                                "name": "_to",
                                "type": "address",
                                "value": "0x6701894490662d70d045fea57ed5bb07090808bb"
                            },
                            {
                                "decimalAvailable": true,
                                "name": "_value",
                                "type": "uint256",
                                "value": "1"
                            }
                        ],
                        "constructorArguments": "",
                        "name": "transfer",
                        "returnParams": [
                            {
                                "name": "",
                                "type": "bool",
                                "value": true
                            }
                        ],
                        "signature": "transfer(address,uint256)"
                    },
                    "errorInfo": "",
                    "fromAddress": "0xe02228a40e0ed319185e37c2aa47c4ce1a6734a5",
                    "gasUsed": 36621,
                    "id": 0,
                    "methodDecoded": true,
                    "operation": "CALL",
                    "output": "0x0000000000000000000000000000000000000000000000000000000000000001",
                    "revert": false,
                    "revertMessage": "",
                    "selector": "0xa9059cbb",
                    "status": true,
                    "value": "0"
                },
                "nodeType": 0
            },
            "1": {
                "event": {
                    "contract": "0x0d152b9ee87ebae179f64c067a966dd716c50742",
                    "decodedLog": {
                        "name": "Transfer",
                        "params": [
                            {
                                "name": "from",
                                "type": "address",
                                "value": "0xe02228a40e0ed319185e37c2aa47c4ce1a6734a5"
                            },
                            {
                                "name": "to",
                                "type": "address",
                                "value": "0x6701894490662d70d045fea57ed5bb07090808bb"
                            },
                            {
                                "decimalAvailable": true,
                                "name": "value",
                                "type": "uint256",
                                "value": "1"
                            }
                        ],
                        "signature": "Transfer(address,address,uint256)"
                    },
                    "id": 1,
                    "logData": "0x0000000000000000000000000000000000000000000000000000000000000001",
                    "logDecoded": true,
                    "operation": "EVENT",
                    "revert": false,
                    "status": true,
                    "topics": [
                        "0xddf252ad1be2c89b69c2b068fc378daa952ba7f163c4a11628f55a4df523b3ef",
                        "0x000000000000000000000000e02228a40e0ed319185e37c2aa47c4ce1a6734a5",
                        "0x0000000000000000000000006701894490662d70d045fea57ed5bb07090808bb"
                    ]
                },
                "nodeType": 1
            }
        },
        "gasFlame": [
            {
                "children": [
                    {
                        "children": [
                            {
                                "children": [],
                                "depth": 0,
                                "name": "Initial Gas",
                                "value": 22872
                            },
                            {
                                "children": [],
                                "depth": 0,
                                "name": "Executed Gas",
                                "value": 13749
                            }
                        ],
                        "depth": -1,
                        "name": "Actual Gas Used",
                        "value": 36621
                    },
                    {
                        "children": [],
                        "depth": -1,
                        "name": "Refunded Gas",
                        "value": 0
                    }
                ],
                "depth": -2,
                "name": "Total Gas",
                "value": 36621
            }
        ],
        "isConfirmed": true,
        "mainTrace": [
            {
                "children": [
                    {
                        "children": [
                            {
                                "children": [],
                                "depth": 1,
                                "id": 1,
                                "order": 1
                            }
                        ],
                        "depth": 0,
                        "id": 0,
                        "order": 0
                    }
                ],
                "depth": -1,
                "id": -1,
                "order": -1
            }
        ],
        "mainTraceNodeCount": 2,
        "parentIdMap": {
            "0": -1,
            "1": 0
        },
        "tidyTrace": [
            {
                "children": [
                    {
                        "children": [
                            {
                                "children": [],
                                "depth": 1,
                                "id": 1,
                                "order": 1
                            }
                        ],
                        "depth": 0,
                        "id": 0,
                        "order": 0
                    }
                ],
                "depth": -1,
                "id": -1,
                "order": -1
            }
        ],
        "tidyTraceNodeCount": 2
    },
    "state_change": {
        "stateChanges": [
            {
                "address": "0x0d152b9ee87ebae179f64c067a966dd716c50742",
                "erc": "ERC-20",
                "slots": [
                    {
                        "current": "0x00000000000000000000000000000000000000000000000000000000000000c5",
                        "key": "0xb5a9aee36cc947e97f3f898ca8ba5b3b2573b8e12889fbb1e4b4816275d75879",
                        "prev": "0x00000000000000000000000000000000000000000000000000000000000000c6"
                    },
                    {
                        "current": "0x0000000000000000000000000000000000000000000000000000000000000006",
                        "key": "0xb0c447fe1ba6f6cf5c260d60d47eba9788cc83d9979775dc06cbf7a8adf167f5",
                        "prev": "0x0000000000000000000000000000000000000000000000000000000000000005"
                    }
                ],
                "storageVariables": [
                    {
                        "name": "balances",
                        "type": "mapping(address => uint256)",
                        "value": {
                            "pairs": [
                                {
                                    "key": "0x6701894490662d70d045fea57ed5bb07090808bb",
                                    "value": {
                                        "current": "6",
                                        "prev": "5",
                                        "typeTag": 1
                                    }
                                },
                                {
                                    "key": "0xe02228a40e0ed319185e37c2aa47c4ce1a6734a5",
                                    "value": {
                                        "current": "197",
                                        "prev": "198",
                                        "typeTag": 1
                                    }
                                }
                            ],
                            "typeTag": 4
                        }
                    }
                ]
            }
        ]
    }
}