{
    "balance_change": {
        "balanceChanges": [
            {
                "account": "0xb8d9c55c0e00f6a24e81e8e3ef06d17426dd82a8",
                "assets": [
                    {
                        "address": "0xa4ba60fee8fc18a214140da7a085fff7d2628d2f",
                        "amount": "1",
                        "iconUrl": "",
                        "isERC1155": false,
                        "isERC721": false,
                        "sign": false,
                        "value": ""
                    }
                ]
            },
            {
                "account": "0x1170704161b52dba4c1ef17f05ad50bda6e2e640",
                "assets": [
                    {
                        "address": "0xa4ba60fee8fc18a214140da7a085fff7d2628d2f",
                        "amount": "1",
                        "iconUrl": "",
                        "isERC1155": false,
                        "isERC721": false,
                        "sign": true,
                        "value": ""
                    }
                ]
            }
        ]
    },
    "profile": {
        "basic_info": {
            "baseFee": "",
            "blockNumber": 5953585,
            "callData": "0xa9059cbb0000000000000000000000001170704161b52dba4c1ef17f05ad50bda6e2e6400000000000000000000000000000000000000000000000000de0b6b3a7640000",
            "debugEnable": true,
            "errorInfo": "",
            "eventCount": 1,
            "feeRecipient": "0x5a0b54d5dc17e0aadc383d2db43b0a0d3e029c4c",
            "formatValue": "0",
            "gasLimit": 300000,
            "gasPrice": "8.0000001",
            "gasUsed": 77954,
            "intTxnCount": 5,
            "internalRevert": false,
            "internalRevertMessage": "",
            "isContractCreation": false,
            "isFlashloan": false,
            "maxFee": "",
            "nonce": 37,
            "overwritedBlockNumber": -1,
            "priorityFee": "",
            "receiver": "0xa4ba60fee8fc18a214140da7a085fff7d2628d2f",
            "revertMessage": "",
            "sender": "0xb8d9c55c0e00f6a24e81e8e3ef06d17426dd82a8",
            "simulationEnable": true,
            "sourceTxnHash": "0x8c5d065c7a6e4fe690f4598ce70ec4f6931c28543af84236963dfab11120f539",
            "status": true,
            "timestamp": "2018-07-12T23:50:00Z",
            "transactionFee": "0.0006236320077954",
            "txnHash": "0x8c5d065c7a6e4fe690f4598ce70ec4f6931c28543af84236963dfab11120f539",
            "txnIndex": 98,
            "type": 0,
            "value": "0"
        },
        "fund_flow": [
            {
                "amount": "1",
                "from": "0xb8d9c55c0e00f6a24e81e8e3ef06d17426dd82a8",
                "id": 1,
                "isERC1155": false,
                "isERC721": false,
                "isReverted": false,
                "order": 1,
                "to": "0x1170704161b52dba4c1ef17f05ad50bda6e2e640",
                "token": "0xa4ba60fee8fc18a214140da7a085fff7d2628d2f"
            }
        ],
        "token_infos": [
            {
                "address": "0xa4ba60fee8fc18a214140da7a085fff7d2628d2f",
                "decimals": 18
            },
            {
                "address": "0xc02aaa39b223fe8d0a0e5c4f27ead9083c756cc2",
                "decimals": 18
            },
            {
                "address": "0xeeeeeeeeeeeeeeeeeeeeeeeeeeeeeeeeeeeeeeee",
                "decimals": 18
            }
        ]
    },
    "address_label": {
        "labels": [
            {
                "address": "0xa4ba60fee8fc18a214140da7a085fff7d2628d2f",
                "label": "ESA"
            },
            {
                "address": "0x0000000000000000000000000000000000000001",
                "label": "Precompiled"
            },
            {
                "address": "0x0000000000000000000000000000000000000002",
                "label": "Precompiled"
            },
            {
                "address": "0x0000000000000000000000000000000000000003",
                "label": "Precompiled"
            },
            {
                "address": "0x0000000000000000000000000000000000000004",
                "label": "Precompiled"
            },
            {
                "address": "0xeeeeeeeeeeeeeeeeeeeeeeeeeeeeeeeeeeeeeeee",
                "label": "Ether"
            }
        ]
    },
    "trace": {
        "accountLabels": null,
        "dataMap": {
            "-1": {
                "invocation": {
                    "address": "0xb8d9c55c0e00f6a24e81e8e3ef06d17426dd82a8",
                    "callData": "",
                    "decodedMethod": null,
                    "errorInfo": "",
                    "fromAddress": "",
                    "gasUsed": 0,
                    "id": -1,
                    "methodDecoded": false,
                    "operation": "",
                    "output": "",
                    "revert": false,
                    "revertMessage": "",
                    "selector": "",
                    "status": false,
                    "value": ""
                },
                "nodeType": 0
            },
            "0": {
                "invocation": {
                    "address": "0xa4ba60fee8fc18a214140da7a085fff7d2628d2f",
                    "callData": "0x0000000000000000000000001170704161b52dba4c1ef17f05ad50bda6e2e6400000000000000000000000000000000000000000000000000de0b6b3a7640000",
                    "decodedMethod": {
                        "callParams": [
                            {
                                "name": "recipient",
                                "type": "address",
                                "value": "0x1170704161b52dba4c1ef17f05ad50bda6e2e640"
                            },
                            {
                                "decimalAvailable": true,
                                "name": "amount",
                                "type": "uint256",
                                "value": "1,000,000,000,000,000,000"
                            }
                        ],
                        "constructorArguments": "",
                        "name": "transfer",
                        "returnParams": [
                            {
                                "name": "",
                                "type": "bool",
                                "value": true
                            }
                        ],
                        "signature": "transfer(address,uint256)"
                    },
                    "errorInfo": "",
                    "fromAddress": "0xb8d9c55c0e00f6a24e81e8e3ef06d17426dd82a8",
                    "gasUsed": 77954,
                    "id": 0,
                    "methodDecoded": true,
                    "operation": "CALL",
                    "output": "0x0000000000000000000000000000000000000000000000000000000000000001",
                    "revert": false,
                    "revertMessage": "",
                    "selector": "0xa9059cbb",
                    "status": true,
                    "value": "0"
                },
                "nodeType": 0
            },
            "1": {
                "invocation": {
                    "address": "0x10f106a454e11b06f1e5844ce9c541f84b078d60",
                    "callData": "0x000000000000000000000000b8d9c55c0e00f6a24e81e8e3ef06d17426dd82a8",
                    "decodedMethod": null,
                    "errorInfo": "",
                    "fromAddress": "0xa4ba60fee8fc18a214140da7a085fff7d2628d2f",
                    "gasUsed": 2453,
                    "id": 1,
                    "methodDecoded": false,
                    "operation": "CALL",
                    "output": "0xffffffffffffffffffffffffffffffffffffffffffffffffffffffffffffffff",
                    "revert": false,
                    "revertMessage": "",
                    "selector": "0x8bc62c9e",
                    "status": true,
                    "value": "0"
                },
                "nodeType": 0
            },
            "2": {
                "invocation": {
                    "address": "0x10f106a454e11b06f1e5844ce9c541f84b078d60",
                    "callData": "0x",
                    "decodedMethod": {
                        "callParams": [],
                        "constructorArguments": "",
                        "name": "getStrategyLength",
                        "returnParams": [
                            {
                                "name": "length",
                                "type": "uint256",
                                "value": "3"
                            }
                        ],
                        "signature": "getStrategyLength()"
                    },
                    "errorInfo": "",
                    "fromAddress": "0xa4ba60fee8fc18a214140da7a085fff7d2628d2f",
                    "gasUsed": 592,
                    "id": 2,
                    "methodDecoded": true,
                    "operation": "CALL",
                    "output": "0x0000000000000000000000000000000000000000000000000000000000000003",
                    "revert": false,
                    "revertMessage": "",
                    "selector": "0xe069357d",
                    "status": true,
                    "value": "0"
                },
                "nodeType": 0
            },
            "3": {
                "invocation": {
                    "address": "0x10f106a454e11b06f1e5844ce9c541f84b078d60",
                    "callData": "0x00000000000000000000000000000000000000000000000000000000000000000000000000000000000000000000000000000000000000000000000000000000",
                    "decodedMethod": null,
                    "errorInfo": "",
                    "fromAddress": "0xa4ba60fee8fc18a214140da7a085fff7d2628d2f",
                    "gasUsed": 4690,
                    "id": 3,
                    "methodDecoded": false,
                    "operation": "CALL",
                    "output": "0x0000000000000000000000000000000000000000000000000000000000000000",
                    "revert": false,
                    "revertMessage": "",
                    "selector": "0x4e180851",
                    "status": true,
                    "value": "0"
                },
                "nodeType": 0
            },
            "4": {
                "invocation": {
                    "address": "0x10f106a454e11b06f1e5844ce9c541f84b078d60",
                    "callData": "0x00000000000000000000000000000000000000000000000000000000000000000000000000000000000000000000000000000000000000000000000000000001",
                    "decodedMethod": null,
                    "errorInfo": "",
                    "fromAddress": "0xa4ba60fee8fc18a214140da7a085fff7d2628d2f",
                    "gasUsed": 2797,
                    "id": 4,
                    "methodDecoded": false,
                    "operation": "CALL",
                    "output": "0x0000000000000000000000000000000000000000000000000000000000000000",
                    "revert": false,
                    "revertMessage": "",
                    "selector": "0x4e180851",
                    "status": true,
                    "value": "0"
                },
                "nodeType": 0
            },
            "5": {
                "invocation": {
                    "address": "0x10f106a454e11b06f1e5844ce9c541f84b078d60",
                    "callData": "0x00000000000000000000000000000000000000000000000000000000000000000000000000000000000000000000000000000000000000000000000000000002",
                    "decodedMethod": null,
                    "errorInfo": "",
                    "fromAddress": "0xa4ba60fee8fc18a214140da7a085fff7d2628d2f",
                    "gasUsed": 2797,
                    "id": 5,
                    "methodDecoded": false,
                    "operation": "CALL",
                    "output": "0x0000000000000000000000000000000000000000000000000000000000000000",
                    "revert": false,
                    "revertMessage": "",
                    "selector": "0x4e180851",
                    "status": true,
                    "value": "0"
                },
                "nodeType": 0
            },
            "6": {
                "event": {
                    "contract": "0xa4ba60fee8fc18a214140da7a085fff7d2628d2f",
                    "decodedLog": {
                        "name": "Transfer",
                        "params": [
                            {
                                "name": "from",
                                "type": "address",
                                "value": "0xb8d9c55c0e00f6a24e81e8e3ef06d17426dd82a8"
                            },
                            {
                                "name": "to",
                                "type": "address",
                                "value": "0x1170704161b52dba4c1ef17f05ad50bda6e2e640"
                            },
                            {
                                "decimalAvailable": true,
                                "name": "value",
                                "type": "uint256",
                                "value": "1,000,000,000,000,000,000"
                            }
                        ],
                        "signature": "Transfer(address,address,uint256)"
                    },
                    "id": 6,
                    "logData": "0x0000000000000000000000000000000000000000000000000de0b6b3a7640000",
                    "logDecoded": true,
                    "operation": "EVENT",
                    "revert": false,
                    "status": true,
                    "topics": [
                        "0xddf252ad1be2c89b69c2b068fc378daa952ba7f163c4a11628f55a4df523b3ef",
                        "0x000000000000000000000000b8d9c55c0e00f6a24e81e8e3ef06d17426dd82a8",
                        "0x0000000000000000000000001170704161b52dba4c1ef17f05ad50bda6e2e640"
                    ]
                },
                "nodeType": 1
            }
        },
        "gasFlame": [
            {
                "children": [
                    {
                        "children": [
                            {
                                "children": [],
                                "depth": 0,
                                "name": "Initial Gas",
                                "value": 23192
                            },
                            {
                                "children": [
                                    {
                                        "children": [],
                                        "depth": 1,
                                        "name": "0x8bc62c9e",
                                        "value": 2453
                                    },
                                    {
                                        "children": [],
                                        "depth": 1,
                                        "name": "getStrategyLength",
                                        "value": 592
                                    },
                                    {
                                        "children": [],
                                        "depth": 1,
                                        "name": "0x4e180851",
                                        "value": 4690
                                    },
                                    {
                                        "children": [],
                                        "depth": 1,
                                        "name": "0x4e180851",
                                        "value": 2797
                                    },
                                    {
                                        "children": [],
                                        "depth": 1,
                                        "name": "0x4e180851",
                                        "value": 2797
                                    }
                                ],
                                "depth": 0,
                                "name": "Executed Gas",
                                "value": 54762
                            }
                        ],
                        "depth": -1,
                        "name": "Actual Gas Used",
                        "value": 77954
                    },
                    {
                        "children": [],
                        "depth": -1,
                        "name": "Refunded Gas",
                        "value": 0
                    }
                ],
                "depth": -2,
                "name": "Total Gas",
                "value": 77954
            }
        ],
        "isConfirmed": true,
        "mainTrace": [
            {
                "children": [
                    {
                        "children": [
                            {
                                "children": [],
                                "depth": 1,
                                "id": 1,
                                "order": 1
                            },
                            {
                                "children": [],
                                "depth": 1,
                                "id": 2,
                                "order": 2
                            },
                            {
                                "children": [],
                                "depth": 1,
                                "id": 3,
                                "order": 3
                            },
                            {
                                "children": [],
                                "depth": 1,
                                "id": 4,
                                "order": 4
                            },
                            {
                                "children": [],
                                "depth": 1,
                                "id": 5,
                                "order": 5
                            },
                            {
                                "children": [],
                                "depth": 1,
                                "id": 6,
                                "order": 6
                            }
                        ],
                        "depth": 0,
                        "id": 0,
                        "order": 0
                    }
                ],
                "depth": -1,
                "id": -1,
                "order": -1
            }
        ],
        "mainTraceNodeCount": 7,
        "parentIdMap": {
            "0": -1,
            "1": 0,
            "2": 0,
            "3": 0,
            "4": 0,
            "5": 0,
            "6": 0
        },
        "tidyTrace": [
            {
                "children": [
                    {
                        "children": [
                            {
                                "children": [],
                                "depth": 1,
                                "id": 1,
                                "order": 1
                            },
                            {
                                "children": [],
                                "depth": 1,
                                "id": 2,
                                "order": 2
                            },
                            {
                                "children": [],
                                "depth": 1,
                                "id": 3,
                                "order": 3
                            },
                            {
                                "children": [],
                                "depth": 1,
                                "id": 4,
                                "order": 4
                            },
                            {
                                "children": [],
                                "depth": 1,
                                "id": 5,
                                "order": 5
                            },
                            {
                                "children": [],
                                "depth": 1,
                                "id": 6,
                                "order": 6
                            }
                        ],
                        "depth": 0,
                        "id": 0,
                        "order": 0
                    }
                ],
                "depth": -1,
                "id": -1,
                "order": -1
            }
        ],
        "tidyTraceNodeCount": 7
    },
    "state_change": {
        "stateChanges": [
            {
                "address": "0xa4ba60fee8fc18a214140da7a085fff7d2628d2f",
                "erc": "",
                "slots": [
                    {
                        "current": "0x0000000000000000000000000000000000000000000000000de0b6b3a7640000",
                        "key": "0x8ce1091aac3d309ffafc914eba55e7f8e08c79bddd5d07dd823cf991bc8007a1",
                        "prev": "0x0000000000000000000000000000000000000000000000000000000000000000"
                    },
                    {
                        "current": "0x000000000000000000000000000000000000000000000112695ca45fe3580000",
                        "key": "0xbfb0a6d61aecffdc1e02e98ba39298e133c61669b21c1361eb0f044adb271b61",
                        "prev": "0x000000000000000000000000000000000000000000000112773d5b138abc0000"
                    }
                ],
                "storageVariables": []
            }
        ]
    }
}