{
    "balance_change": {
        "balanceChanges": [
            {
                "account": "0x0000000000000000000000000000000000000000",
                "assets": [
                    {
                        "address": "0x3c49bfc6b5d1fd43f5b8635760ab6668e9296679",
                        "amount": "1",
                        "iconUrl": "",
                        "isERC1155": false,
                        "isERC721": true,
                        "sign": false,
                        "tokenID": "1289",
                        "value": ""
                    }
                ]
            },
            {
                "account": "0xf896e426615e44a2610f4c3d5343b63b557e11e2",
                "assets": [
                    {
                        "address": "0x3c49bfc6b5d1fd43f5b8635760ab6668e9296679",
                        "amount": "1",
                        "iconUrl": "",
                        "isERC1155": false,
                        "isERC721": true,
                        "sign": true,
                        "tokenID": "1289",
                        "value": ""
                    }
                ]
            }
        ]
    },
    "profile": {
        "basic_info": {
            "baseFee": "75.364669479",
            "blockNumber": 13381161,
            "callData": "0x5dd62b570000000000000000000000000000000000000000000000000000000000000001000000000000000000000000000000000000000000000000000000000000004000000000000000000000000000000000000000000000000000000000000000010000000000000000000000000000000000000000000000000000000000000509",
            "debugEnable": true,
            "errorInfo": "",
            "eventCount": 1,
            "feeRecipient": "0xc365c3315cf926351ccaf13fa7d19c8c4058c8e1",
            "formatValue": "0",
            "gasLimit": 176685,
            "gasPrice": "76.864669479",
            "gasUsed": 176685,
            "intTxnCount": 1,
            "internalRevert": false,
            "internalRevertMessage": "",
            "isContractCreation": false,
            "isFlashloan": false,
            "maxFee": "105.092449519",
            "nonce": 83,
            "overwritedBlockNumber": -1,
            "priorityFee": "1.5",
            "receiver": "0x3c49bfc6b5d1fd43f5b8635760ab6668e9296679",
            "revertMessage": "",
            "sender": "0xf896e426615e44a2610f4c3d5343b63b557e11e2",
            "simulationEnable": true,
            "sourceTxnHash": "0x8c2a392e5f1ebc267db7c4fcf28a68e3cdb74659c0a520b6b08f137108dca4be",
            "status": true,
            "timestamp": "2021-10-08T23:33:49Z",
            "transactionFee": "0.013580834126897115",
            "txnHash": "0x8c2a392e5f1ebc267db7c4fcf28a68e3cdb74659c0a520b6b08f137108dca4be",
            "txnIndex": 75,
            "type": 2,
            "value": "0"
        },
        "fund_flow": [
            {
                "amount": "1",
                "from": "0x0000000000000000000000000000000000000000",
                "id": 1,
                "isERC1155": false,
                "isERC721": true,
                "isReverted": false,
                "order": 1,
                "to": "0xf896e426615e44a2610f4c3d5343b63b557e11e2",
                "token": "0x3c49bfc6b5d1fd43f5b8635760ab6668e9296679",
                "tokenID": "1289"
            }
        ],
        "token_infos": [
            {
                "address": "0xc02aaa39b223fe8d0a0e5c4f27ead9083c756cc2",
                "decimals": 18
            },
            {
                "address": "0xeeeeeeeeeeeeeeeeeeeeeeeeeeeeeeeeeeeeeeee",
                "decimals": 18
            }
        ]
    },
    "address_label": {
        "labels": [
            {
                "address": "0x0000000000000000000000000000000000000001",
                "label": "Precompiled"
            },
            {
                "address": "0x0000000000000000000000000000000000000002",
                "label": "Precompiled"
            },
            {
                "address": "0x0000000000000000000000000000000000000003",
                "label": "Precompiled"
            },
            {
                "address": "0x0000000000000000000000000000000000000004",
                "label": "Precompiled"
            },
            {
                "address": "0xeeeeeeeeeeeeeeeeeeeeeeeeeeeeeeeeeeeeeeee",
                "label": "Ether"
            },
            {
                "address": "0x3c49bfc6b5d1fd43f5b8635760ab6668e9296679",
                "label": "SassyChimps (SASSYCHIM...)"
            },
            {
                "address": "0x1cc627a099513fa6591aec29712c1719e0ad507e",
                "label": "SameKongz"
            }
        ]
    },
    "trace": {
        "accountLabels": null,
        "dataMap": {
            "-1": {
                "invocation": {
                    "address": "0xf896e426615e44a2610f4c3d5343b63b557e11e2",
                    "callData": "",
                    "decodedMethod": null,
                    "errorInfo": "",
                    "fromAddress": "",
                    "gasUsed": 0,
                    "id": -1,
                    "methodDecoded": false,
                    "operation": "",
                    "output": "",
                    "revert": false,
                    "revertMessage": "",
                    "selector": "",
                    "status": false,
                    "value": ""
                },
                "nodeType": 0
            },
            "0": {
                "invocation": {
                    "address": "0x3c49bfc6b5d1fd43f5b8635760ab6668e9296679",
                    "callData": "0x0000000000000000000000000000000000000000000000000000000000000001000000000000000000000000000000000000000000000000000000000000004000000000000000000000000000000000000000000000000000000000000000010000000000000000000000000000000000000000000000000000000000000509",
                    "decodedMethod": {
                        "callParams": [
                            {
                                "name": "amount",
                                "type": "uint256",
                                "value": "1"
                            },
                            {
                                "name": "tokenIds",
                                "type": "uint256[]",
                                "value": [
                                    "1,289"
                                ]
                            }
                        ],
                        "constructorArguments": "",
                        "name": "freeMintMultiple",
                        "returnParams": [],
                        "signature": "freeMintMultiple(uint256,uint256[])"
                    },
                    "errorInfo": "",
                    "fromAddress": "0xf896e426615e44a2610f4c3d5343b63b557e11e2",
                    "gasUsed": 176685,
                    "id": 0,
                    "methodDecoded": true,
                    "operation": "CALL",
                    "output": "",
                    "revert": false,
                    "revertMessage": "",
                    "selector": "0x5dd62b57",
                    "status": true,
                    "value": "0"
                },
                "nodeType": 0
            },
            "1": {
                "invocation": {
                    "address": "0x1cc627a099513fa6591aec29712c1719e0ad507e",
                    "callData": "0x0000000000000000000000000000000000000000000000000000000000000509",
                    "decodedMethod": {
                        "callParams": [
                            {
                                "name": "tokenId",
                                "type": "uint256",
                                "value": "1,289"
                            }
                        ],
                        "constructorArguments": "",
                        "name": "ownerOf",
                        "returnParams": [
                            {
                                "name": "",
                                "type": "address",
                                "value": "0xf896e426615e44a2610f4c3d5343b63b557e11e2"
                            }
                        ],
                        "signature": "ownerOf(uint256)"
                    },
                    "errorInfo": "",
                    "fromAddress": "0x3c49bfc6b5d1fd43f5b8635760ab6668e9296679",
                    "gasUsed": 3028,
                    "id": 1,
                    "methodDecoded": true,
                    "operation": "STATICCALL",
                    "output": "0x000000000000000000000000f896e426615e44a2610f4c3d5343b63b557e11e2",
                    "revert": false,
                    "revertMessage": "",
                    "selector": "0x6352211e",
                    "status": true,
                    "value": "0"
                },
                "nodeType": 0
            },
            "2": {
                "event": {
                    "contract": "0x3c49bfc6b5d1fd43f5b8635760ab6668e9296679",
                    "decodedLog": {
                        "name": "Transfer",
                        "params": [
                            {
                                "name": "from",
                                "type": "address",
                                "value": "0x0000000000000000000000000000000000000000"
                            },
                            {
                                "name": "to",
                                "type": "address",
                                "value": "0xf896e426615e44a2610f4c3d5343b63b557e11e2"
                            },
                            {
                                "decimalAvailable": true,
                                "name": "tokenId",
                                "type": "uint256",
                                "value": "1,289"
                            }
                        ],
                        "signature": "Transfer(address,address,uint256)"
                    },
                    "id": 2,
                    "logData": "0x",
                    "logDecoded": true,
                    "operation": "EVENT",
                    "revert": false,
                    "status": true,
                    "topics": [
                        "0xddf252ad1be2c89b69c2b068fc378daa952ba7f163c4a11628f55a4df523b3ef",
                        "0x0000000000000000000000000000000000000000000000000000000000000000",
                        "0x000000000000000000000000f896e426615e44a2610f4c3d5343b63b557e11e2",
                        "0x0000000000000000000000000000000000000000000000000000000000000509"
                    ]
                },
                "nodeType": 1
            }
        },
        "gasFlame": [
            {
                "children": [
                    {
                        "children": [
                            {
                                "children": [],
                                "depth": 0,
                                "name": "Initial Gas",
                                "value": 21636
                            },
                            {
                                "children": [
                                    {
                                        "children": [],
                                        "depth": 1,
                                        "name": "ownerOf",
                                        "value": 3028
                                    }
                                ],
                                "depth": 0,
                                "name": "Executed Gas",
                                "value": 155049
                            }
                        ],
                        "depth": -1,
                        "name": "Actual Gas Used",
                        "value": 176685
                    },
                    {
                        "children": [],
                        "depth": -1,
                        "name": "Refunded Gas",
                        "value": 0
                    }
                ],
                "depth": -2,
                "name": "Total Gas",
                "value": 176685
            }
        ],
        "isConfirmed": true,
        "mainTrace": [
            {
                "children": [
                    {
                        "children": [
                            {
                                "children": [],
                                "depth": 1,
                                "id": 1,
                                "order": 1
                            },
                            {
                                "children": [],
                                "depth": 1,
                                "id": 2,
                                "order": 2
                            }
                        ],
                        "depth": 0,
                        "id": 0,
                        "order": 0
                    }
                ],
                "depth": -1,
                "id": -1,
                "order": -1
            }
        ],
        "mainTraceNodeCount": 3,
        "parentIdMap": {
            "0": -1,
            "1": 0,
            "2": 0
        },
        "tidyTrace": [
            {
                "children": [
                    {
                        "children": [
                            {
                                "children": [],
                                "depth": 1,
                                "id": 2,
                                "order": 2
                            }
                        ],
                        "depth": 0,
                        "id": 0,
                        "order": 0
                    }
                ],
                "depth": -1,
                "id": -1,
                "order": -1
            }
        ],
        "tidyTraceNodeCount": 2
    },
    "state_change": {
        "stateChanges": [
            {
                "address": "0x3c49bfc6b5d1fd43f5b8635760ab6668e9296679",
                "erc": "ERC-721",
                "slots": [
                    {
                        "current": "0x0000000000000000000000000000000000000000000000000000000000000001",
                        "key": "0xd7d47f810c1212650c550b5c461e0cc018f321511f150a8cb76c57d43c0aacab",
                        "prev": "0x0000000000000000000000000000000000000000000000000000000000000000"
                    },
                    {
                        "current": "0x00000000000000000000000000000000000000000000000000000000000000b4",
                        "key": "0x81600c58784d5ae8c558e31472ac7a487c39b8e73e002a3bd0b06f61d11aeed3",
                        "prev": "0x0000000000000000000000000000000000000000000000000000000000000000"
                    },
                    {
                        "current": "0x00000000000000000000000000000000000000000000000000000000000000b5",
                        "key": "0x0000000000000000000000000000000000000000000000000000000000000008",
                        "prev": "0x00000000000000000000000000000000000000000000000000000000000000b4"
                    },
                    {
                        "current": "0x0000000000000000000000000000000000000000000000000000000000000509",
                        "key": "0xf3f7a9fe364faab93b216da50a3214154f22a0a2b415b23a84c8169e8b636f97",
                        "prev": "0x0000000000000000000000000000000000000000000000000000000000000000"
                    },
                    {
                        "current": "0x0000000000000000000000000000000000000000000000000000000000000509",
                        "key": "0xdf22b49621ba05586e79e5894cb17337c3df72187ac9135082896a32277acf3b",
                        "prev": "0x0000000000000000000000000000000000000000000000000000000000000000"
                    },
                    {
                        "current": "0x0000000000000000000000000000000000000000000000000000000000000001",
                        "key": "0x6ec1571fb51158d6468d91500fd93133dd2273d8dc71484dcacc59cc390291e0",
                        "prev": "0x0000000000000000000000000000000000000000000000000000000000000000"
                    },
                    {
                        "current": "0x000000000000000000000000f896e426615e44a2610f4c3d5343b63b557e11e2",
                        "key": "0x5858f6777893c955fb705227b6b4e81e4c4f3d7e9b0a6dfc91b5ec3539b66355",
                        "prev": "0x0000000000000000000000000000000000000000000000000000000000000000"
                    }
                ],
                "storageVariables": [
                    {
                        "name": "_allTokens",
                        "type": "uint256[]",
                        "value": {
                            "elemType": "uint256",
                            "elems": [
                                {
                                    "index": 180,
                                    "value": {
                                        "current": "1289",
                                        "prev": "0",
                                        "typeTag": 1
                                    }
                                }
                            ],
                            "typeTag": 2
                        }
                    },
                    {
                        "name": "_ownedTokens",
                        "type": "mapping(address => mapping(uint256 => uint256))",
                        "value": {
                            "pairs": [
                                {
                                    "key": "0xf896e426615e44a2610f4c3d5343b63b557e11e2",
                                    "value": {
                                        "pairs": [
                                            {
                                                "key": "0",
                                                "value": {
                                                    "current": "1289",
                                                    "prev": "0",
                                                    "typeTag": 1
                                                }
                                            }
                                        ],
                                        "typeTag": 4
                                    }
                                }
                            ],
                            "typeTag": 4
                        }
                    },
                    {
                        "name": "_balances",
                        "type": "mapping(address => uint256)",
                        "value": {
                            "pairs": [
                                {
                                    "key": "0xf896e426615e44a2610f4c3d5343b63b557e11e2",
                                    "value": {
                                        "current": "1",
                                        "prev": "0",
                                        "typeTag": 1
                                    }
                                }
                            ],
                            "typeTag": 4
                        }
                    },
                    {
                        "name": "_owners",
                        "type": "mapping(uint256 => address)",
                        "value": {
                            "pairs": [
                                {
                                    "key": "1289",
                                    "value": {
                                        "current": "0xf896e426615e44a2610f4c3d5343b63b557e11e2",
                                        "prev": "0x0000000000000000000000000000000000000000",
                                        "typeTag": 1
                                    }
                                }
                            ],
                            "typeTag": 4
                        }
                    },
                    {
                        "name": "claimedChimps",
                        "type": "mapping(uint256 => bool)",
                        "value": {
                            "pairs": [
                                {
                                    "key": "1289",
                                    "value": {
                                        "current": "true",
                                        "prev": "false",
                                        "typeTag": 1
                                    }
                                }
                            ],
                            "typeTag": 4
                        }
                    },
                    {
                        "name": "_allTokensIndex",
                        "type": "mapping(uint256 => uint256)",
                        "value": {
                            "pairs": [
                                {
                                    "key": "1289",
                                    "value": {
                                        "current": "180",
                                        "prev": "0",
                                        "typeTag": 1
                                    }
                                }
                            ],
                            "typeTag": 4
                        }
                    }
                ]
            }
        ]
    }
}