{
    "balance_change": {
        "balanceChanges": [
            {
                "account": "0xfd8f60a6484882eba7aa06f06af65c5aa86e8251",
                "assets": [
                    {
                        "address": "0x2f141ce366a2462f02cea3d12cf93e4dca49e4fd",
                        "amount": "12,941,050",
                        "iconUrl": "https://assets.blocksec.com/icon/38145a01c949a362581ed5963fb3138388d0a1708d36888ad35b277f324608ce.png",
                        "isERC1155": false,
                        "isERC721": false,
                        "sign": false,
                        "value": ""
                    }
                ]
            },
            {
                "account": "0x663495da10f4f742965b32d411fb71a2e9b94de1",
                "assets": [
                    {
                        "address": "0x2f141ce366a2462f02cea3d12cf93e4dca49e4fd",
                        "amount": "12,941,050",
                        "iconUrl": "https://assets.blocksec.com/icon/38145a01c949a362581ed5963fb3138388d0a1708d36888ad35b277f324608ce.png",
                        "isERC1155": false,
                        "isERC721": false,
                        "sign": true,
                        "value": ""
                    }
                ]
            }
        ]
    },
    "profile": {
        "basic_info": {
            "baseFee": "",
            "blockNumber": 10246934,
            "callData": "0xa9059cbb000000000000000000000000663495da10f4f742965b32d411fb71a2e9b94de10000000000000000000000000000000000000000000ab45fb9e90a8d8fa80000",
            "debugEnable": true,
            "errorInfo": "",
            "eventCount": 1,
            "feeRecipient": "0x5a0b54d5dc17e0aadc383d2db43b0a0d3e029c4c",
            "formatValue": "0",
            "gasLimit": 121000,
            "gasPrice": "29",
            "gasUsed": 51333,
            "intTxnCount": 0,
            "internalRevert": false,
            "internalRevertMessage": "",
            "isContractCreation": false,
            "isFlashloan": false,
            "maxFee": "",
            "nonce": 2470,
            "overwritedBlockNumber": -1,
            "priorityFee": "",
            "receiver": "0x2f141ce366a2462f02cea3d12cf93e4dca49e4fd",
            "revertMessage": "",
            "sender": "0xfd8f60a6484882eba7aa06f06af65c5aa86e8251",
            "simulationEnable": true,
            "sourceTxnHash": "0x8cd8ab954477430a8d8e7a5a6d43c6fc4f1597be04254e7a2103518bd2609ea8",
            "status": true,
            "timestamp": "2020-06-11T21:48:18Z",
            "transactionFee": "0.001488657",
            "txnHash": "0x8cd8ab954477430a8d8e7a5a6d43c6fc4f1597be04254e7a2103518bd2609ea8",
            "txnIndex": 101,
            "type": 0,
            "value": "0"
        },
        "fund_flow": [
            {
                "amount": "12,941,050",
                "from": "0xfd8f60a6484882eba7aa06f06af65c5aa86e8251",
                "id": 1,
                "isERC1155": false,
                "isERC721": false,
                "isReverted": false,
                "order": 1,
                "to": "0x663495da10f4f742965b32d411fb71a2e9b94de1",
                "token": "0x2f141ce366a2462f02cea3d12cf93e4dca49e4fd"
            }
        ],
        "token_infos": [
            {
                "address": "0x2f141ce366a2462f02cea3d12cf93e4dca49e4fd",
                "decimals": 18
            },
            {
                "address": "0xc02aaa39b223fe8d0a0e5c4f27ead9083c756cc2",
                "decimals": 18
            },
            {
                "address": "0xeeeeeeeeeeeeeeeeeeeeeeeeeeeeeeeeeeeeeeee",
                "decimals": 18
            }
        ]
    },
    "address_label": {
        "labels": [
            {
                "address": "0xeeeeeeeeeeeeeeeeeeeeeeeeeeeeeeeeeeeeeeee",
                "label": "Ether"
            },
            {
                "address": "0x2f141ce366a2462f02cea3d12cf93e4dca49e4fd",
                "label": "Free Coin"
            },
            {
                "address": "0x0000000000000000000000000000000000000001",
                "label": "Precompiled"
            },
            {
                "address": "0x0000000000000000000000000000000000000002",
                "label": "Precompiled"
            },
            {
                "address": "0x0000000000000000000000000000000000000003",
                "label": "Precompiled"
            },
            {
                "address": "0x0000000000000000000000000000000000000004",
                "label": "Precompiled"
            }
        ]
    },
    "trace": {
        "accountLabels": null,
        "dataMap": {
            "-1": {
                "invocation": {
                    "address": "0xfd8f60a6484882eba7aa06f06af65c5aa86e8251",
                    "callData": "",
                    "decodedMethod": null,
                    "errorInfo": "",
                    "fromAddress": "",
                    "gasUsed": 0,
                    "id": -1,
                    "methodDecoded": false,
                    "operation": "",
                    "output": "",
                    "revert": false,
                    "revertMessage": "",
                    "selector": "",
                    "status": false,
                    "value": ""
                },
                "nodeType": 0
            },
            "0": {
                "invocation": {
                    "address": "0x2f141ce366a2462f02cea3d12cf93e4dca49e4fd",
                    "callData": "0x000000000000000000000000663495da10f4f742965b32d411fb71a2e9b94de10000000000000000000000000000000000000000000ab45fb9e90a8d8fa80000",
                    "decodedMethod": {
                        "callParams": [
                            {
                                "name": "to",
                                "type": "address",
                                "value": "0x663495da10f4f742965b32d411fb71a2e9b94de1"
                            },
                            {
                                "decimalAvailable": true,
                                "name": "tokens",
                                "type": "uint256",
                                "value": "12,941,050,000,000,000,000,000,000"
                            }
                        ],
                        "constructorArguments": "",
                        "name": "transfer",
                        "returnParams": [
                            {
                                "name": "success",
                                "type": "bool",
                                "value": true
                            }
                        ],
                        "signature": "transfer(address,uint256)"
                    },
                    "errorInfo": "",
                    "fromAddress": "0xfd8f60a6484882eba7aa06f06af65c5aa86e8251",
                    "gasUsed": 51333,
                    "id": 0,
                    "methodDecoded": true,
                    "operation": "CALL",
                    "output": "0x0000000000000000000000000000000000000000000000000000000000000001",
                    "revert": false,
                    "revertMessage": "",
                    "selector": "0xa9059cbb",
                    "status": true,
                    "value": "0"
                },
                "nodeType": 0
            },
            "1": {
                "event": {
                    "contract": "0x2f141ce366a2462f02cea3d12cf93e4dca49e4fd",
                    "decodedLog": {
                        "name": "Transfer",
                        "params": [
                            {
                                "name": "from",
                                "type": "address",
                                "value": "0xfd8f60a6484882eba7aa06f06af65c5aa86e8251"
                            },
                            {
                                "name": "to",
                                "type": "address",
                                "value": "0x663495da10f4f742965b32d411fb71a2e9b94de1"
                            },
                            {
                                "decimalAvailable": true,
                                "name": "tokens",
                                "type": "uint256",
                                "value": "12,941,050,000,000,000,000,000,000"
                            }
                        ],
                        "signature": "Transfer(address,address,uint256)"
                    },
                    "id": 1,
                    "logData": "0x0000000000000000000000000000000000000000000ab45fb9e90a8d8fa80000",
                    "logDecoded": true,
                    "operation": "EVENT",
                    "revert": false,
                    "status": true,
                    "topics": [
                        "0xddf252ad1be2c89b69c2b068fc378daa952ba7f163c4a11628f55a4df523b3ef",
                        "0x000000000000000000000000fd8f60a6484882eba7aa06f06af65c5aa86e8251",
                        "0x000000000000000000000000663495da10f4f742965b32d411fb71a2e9b94de1"
                    ]
                },
                "nodeType": 1
            }
        },
        "gasFlame": [
            {
                "children": [
                    {
                        "children": [
                            {
                                "children": [],
                                "depth": 0,
                                "name": "Initial Gas",
                                "value": 21668
                            },
                            {
                                "children": [],
                                "depth": 0,
                                "name": "Executed Gas",
                                "value": 29665
                            }
                        ],
                        "depth": -1,
                        "name": "Actual Gas Used",
                        "value": 51333
                    },
                    {
                        "children": [],
                        "depth": -1,
                        "name": "Refunded Gas",
                        "value": 0
                    }
                ],
                "depth": -2,
                "name": "Total Gas",
                "value": 51333
            }
        ],
        "isConfirmed": true,
        "mainTrace": [
            {
                "children": [
                    {
                        "children": [
                            {
                                "children": [],
                                "depth": 1,
                                "id": 1,
                                "order": 1
                            }
                        ],
                        "depth": 0,
                        "id": 0,
                        "order": 0
                    }
                ],
                "depth": -1,
                "id": -1,
                "order": -1
            }
        ],
        "mainTraceNodeCount": 2,
        "parentIdMap": {
            "0": -1,
            "1": 0
        },
        "tidyTrace": [
            {
                "children": [
                    {
                        "children": [
                            {
                                "children": [],
                                "depth": 1,
                                "id": 1,
                                "order": 1
                            }
                        ],
                        "depth": 0,
                        "id": 0,
                        "order": 0
                    }
                ],
                "depth": -1,
                "id": -1,
                "order": -1
            }
        ],
        "tidyTraceNodeCount": 2
    },
    "state_change": {
        "stateChanges": [
            {
                "address": "0x2f141ce366a2462f02cea3d12cf93e4dca49e4fd",
                "erc": "ERC-20",
                "slots": [
                    {
                        "current": "0x000000000000000000000000000000000000000095aa3288082525d69522b118",
                        "key": "0xa7806c4ad41cd54d08584ab7a16eedb0f54667c94b3bf837459d3fb0de4efbc6",
                        "prev": "0x000000000000000000000000000000000000000095b4e6e7c20e306424cab118"
                    },
                    {
                        "current": "0x0000000000000000000000000000000000000000000ab45fb9e90a8d8fa80000",
                        "key": "0xb85294d5ceea9982de6b5bf0346048e9c016a40e9d19778346955b3a444bcb69",
                        "prev": "0x0000000000000000000000000000000000000000000000000000000000000000"
                    }
                ],
                "storageVariables": [
                    {
                        "name": "balances",
                        "type": "mapping(address => uint256)",
                        "value": {
                            "pairs": [
                                {
                                    "key": "0x663495da10f4f742965b32d411fb71a2e9b94de1",
                                    "value": {
                                        "current": "12941050000000000000000000",
                                        "prev": "0",
                                        "typeTag": 1
                                    }
                                },
                                {
                                    "key": "0xfd8f60a6484882eba7aa06f06af65c5aa86e8251",
                                    "value": {
                                        "current": "46319022480383156636449157400",
                                        "prev": "46331963530383156636449157400",
                                        "typeTag": 1
                                    }
                                }
                            ],
                            "typeTag": 4
                        }
                    }
                ]
            }
        ]
    }
}