{
    "balance_change": {
        "balanceChanges": [
            {
                "account": "0x46950ba8946d7be4594399bcf203fb53e1fd7d37",
                "assets": [
                    {
                        "address": "0x64bc2ca1be492be7185faa2c8835d9b824c8a194",
                        "amount": "326.17",
                        "iconUrl": "",
                        "isERC1155": false,
                        "isERC721": false,
                        "sign": false,
                        "value": "151.86475200000000453"
                    }
                ]
            },
            {
                "account": "0xf24e9d7c0bf060c02e6179428908e7cc5fa63668",
                "assets": [
                    {
                        "address": "0x64bc2ca1be492be7185faa2c8835d9b824c8a194",
                        "amount": "326.17",
                        "iconUrl": "",
                        "isERC1155": false,
                        "isERC721": false,
                        "sign": true,
                        "value": "151.86475200000000453"
                    }
                ]
            }
        ]
    },
    "profile": {
        "basic_info": {
            "baseFee": "64.716647179",
            "blockNumber": 19381018,
            "callData": "0x8f975a6400000000000000000000000064bc2ca1be492be7185faa2c8835d9b824c8a194000000000000000000000000f24e9d7c0bf060c02e6179428908e7cc5fa63668000000000000000000000000000000000000000000000011ae849ee095290000",
            "debugEnable": true,
            "errorInfo": "",
            "eventCount": 1,
            "feeRecipient": "0x95222290dd7278aa3ddd389cc1e1d165cc4bafe5",
            "formatValue": "0",
            "gasLimit": 61960,
            "gasPrice": "66.216647179",
            "gasUsed": 61135,
            "intTxnCount": 1,
            "internalRevert": false,
            "internalRevertMessage": "",
            "isContractCreation": false,
            "isFlashloan": false,
            "maxFee": "123.926390292",
            "nonce": 177051,
            "overwritedBlockNumber": -1,
            "priorityFee": "1.5",
            "receiver": "0x46950ba8946d7be4594399bcf203fb53e1fd7d37",
            "revertMessage": "",
            "sender": "0xddb3cc4dc30ce0fcd9bbfc2a5f389b8c40aa023a",
            "simulationEnable": true,
            "sourceTxnHash": "0x8d0305f0d4d04da0a07ec6d487428436a1acbf3af955b3ff079976f915cea52d",
            "status": true,
            "timestamp": "2024-03-07T04:50:23Z",
            "transactionFee": "0.004048154725288165",
            "txnHash": "0x8d0305f0d4d04da0a07ec6d487428436a1acbf3af955b3ff079976f915cea52d",
            "txnIndex": 53,
            "type": 2,
            "value": "0"
        },
        "fund_flow": [
            {
                "amount": "326.17",
                "from": "0x46950ba8946d7be4594399bcf203fb53e1fd7d37",
                "id": 1,
                "isERC1155": false,
                "isERC721": false,
                "isReverted": false,
                "order": 1,
                "to": "0xf24e9d7c0bf060c02e6179428908e7cc5fa63668",
                "token": "0x64bc2ca1be492be7185faa2c8835d9b824c8a194"
            }
        ],
        "token_infos": [
            {
                "address": "0x64bc2ca1be492be7185faa2c8835d9b824c8a194",
                "decimals": 18
            },
            {
                "address": "0xc02aaa39b223fe8d0a0e5c4f27ead9083c756cc2",
                "decimals": 18
            },
            {
                "address": "0xeeeeeeeeeeeeeeeeeeeeeeeeeeeeeeeeeeeeeeee",
                "decimals": 18
            }
        ]
    },
    "address_label": {
        "labels": [
            {
                "address": "0x0000000000000000000000000000000000000004",
                "label": "Precompiled"
            },
            {
                "address": "0xeeeeeeeeeeeeeeeeeeeeeeeeeeeeeeeeeeeeeeee",
                "label": "Ether"
            },
            {
                "address": "0x46950ba8946d7be4594399bcf203fb53e1fd7d37",
                "label": "Vault"
            },
            {
                "address": "0x64bc2ca1be492be7185faa2c8835d9b824c8a194",
                "label": "Big Time: BIGTIME Token"
            },
            {
                "address": "0x0000000000000000000000000000000000000001",
                "label": "Precompiled"
            },
            {
                "address": "0x0000000000000000000000000000000000000002",
                "label": "Precompiled"
            },
            {
                "address": "0x0000000000000000000000000000000000000003",
                "label": "Precompiled"
            }
        ]
    },
    "trace": {
        "accountLabels": null,
        "dataMap": {
            "-1": {
                "invocation": {
                    "address": "0xddb3cc4dc30ce0fcd9bbfc2a5f389b8c40aa023a",
                    "callData": "",
                    "decodedMethod": null,
                    "errorInfo": "",
                    "fromAddress": "",
                    "gasUsed": 0,
                    "id": -1,
                    "methodDecoded": false,
                    "operation": "",
                    "output": "",
                    "revert": false,
                    "revertMessage": "",
                    "selector": "",
                    "status": false,
                    "value": ""
                },
                "nodeType": 0
            },
            "0": {
                "invocation": {
                    "address": "0x46950ba8946d7be4594399bcf203fb53e1fd7d37",
                    "callData": "0x00000000000000000000000064bc2ca1be492be7185faa2c8835d9b824c8a194000000000000000000000000f24e9d7c0bf060c02e6179428908e7cc5fa63668000000000000000000000000000000000000000000000011ae849ee095290000",
                    "decodedMethod": {
                        "callParams": [
                            {
                                "name": "_token",
                                "type": "address",
                                "value": "0x64bc2ca1be492be7185faa2c8835d9b824c8a194"
                            },
                            {
                                "name": "_to",
                                "type": "address",
                                "value": "0xf24e9d7c0bf060c02e6179428908e7cc5fa63668"
                            },
                            {
                                "name": "_amount",
                                "type": "uint256",
                                "value": "326,170,000,000,000,000,000"
                            }
                        ],
                        "constructorArguments": "",
                        "name": "sendERC20",
                        "returnParams": [],
                        "signature": "sendERC20(address,address,uint256)"
                    },
                    "errorInfo": "",
                    "fromAddress": "0xddb3cc4dc30ce0fcd9bbfc2a5f389b8c40aa023a",
                    "gasUsed": 61135,
                    "id": 0,
                    "methodDecoded": true,
                    "operation": "CALL",
                    "output": "",
                    "revert": false,
                    "revertMessage": "",
                    "selector": "0x8f975a64",
                    "status": true,
                    "value": "0"
                },
                "nodeType": 0
            },
            "1": {
                "invocation": {
                    "address": "0x64bc2ca1be492be7185faa2c8835d9b824c8a194",
                    "callData": "0x000000000000000000000000f24e9d7c0bf060c02e6179428908e7cc5fa63668000000000000000000000000000000000000000000000011ae849ee095290000",
                    "decodedMethod": {
                        "callParams": [
                            {
                                "name": "to",
                                "type": "address",
                                "value": "0xf24e9d7c0bf060c02e6179428908e7cc5fa63668"
                            },
                            {
                                "decimalAvailable": true,
                                "name": "amount",
                                "type": "uint256",
                                "value": "326,170,000,000,000,000,000"
                            }
                        ],
                        "constructorArguments": "",
                        "name": "transfer",
                        "returnParams": [
                            {
                                "name": "",
                                "type": "bool",
                                "value": true
                            }
                        ],
                        "signature": "transfer(address,uint256)"
                    },
                    "errorInfo": "",
                    "fromAddress": "0x46950ba8946d7be4594399bcf203fb53e1fd7d37",
                    "gasUsed": 29922,
                    "id": 1,
                    "methodDecoded": true,
                    "operation": "CALL",
                    "output": "0x0000000000000000000000000000000000000000000000000000000000000001",
                    "revert": false,
                    "revertMessage": "",
                    "selector": "0xa9059cbb",
                    "status": true,
                    "value": "0"
                },
                "nodeType": 0
            },
            "2": {
                "event": {
                    "contract": "0x64bc2ca1be492be7185faa2c8835d9b824c8a194",
                    "decodedLog": {
                        "name": "Transfer",
                        "params": [
                            {
                                "name": "from",
                                "type": "address",
                                "value": "0x46950ba8946d7be4594399bcf203fb53e1fd7d37"
                            },
                            {
                                "name": "to",
                                "type": "address",
                                "value": "0xf24e9d7c0bf060c02e6179428908e7cc5fa63668"
                            },
                            {
                                "decimalAvailable": true,
                                "name": "value",
                                "type": "uint256",
                                "value": "326,170,000,000,000,000,000"
                            }
                        ],
                        "signature": "Transfer(address,address,uint256)"
                    },
                    "id": 2,
                    "logData": "0x000000000000000000000000000000000000000000000011ae849ee095290000",
                    "logDecoded": true,
                    "operation": "EVENT",
                    "revert": false,
                    "status": true,
                    "topics": [
                        "0xddf252ad1be2c89b69c2b068fc378daa952ba7f163c4a11628f55a4df523b3ef",
                        "0x00000000000000000000000046950ba8946d7be4594399bcf203fb53e1fd7d37",
                        "0x000000000000000000000000f24e9d7c0bf060c02e6179428908e7cc5fa63668"
                    ]
                },
                "nodeType": 1
            }
        },
        "gasFlame": [
            {
                "children": [
                    {
                        "children": [
                            {
                                "children": [],
                                "depth": 0,
                                "name": "Initial Gas",
                                "value": 22012
                            },
                            {
                                "children": [
                                    {
                                        "children": [],
                                        "depth": 1,
                                        "name": "transfer",
                                        "value": 29922
                                    }
                                ],
                                "depth": 0,
                                "name": "Executed Gas",
                                "value": 39123
                            }
                        ],
                        "depth": -1,
                        "name": "Actual Gas Used",
                        "value": 61135
                    },
                    {
                        "children": [],
                        "depth": -1,
                        "name": "Refunded Gas",
                        "value": 0
                    }
                ],
                "depth": -2,
                "name": "Total Gas",
                "value": 61135
            }
        ],
        "isConfirmed": true,
        "mainTrace": [
            {
                "children": [
                    {
                        "children": [
                            {
                                "children": [
                                    {
                                        "children": [],
                                        "depth": 2,
                                        "id": 2,
                                        "order": 2
                                    }
                                ],
                                "depth": 1,
                                "id": 1,
                                "order": 1
                            }
                        ],
                        "depth": 0,
                        "id": 0,
                        "order": 0
                    }
                ],
                "depth": -1,
                "id": -1,
                "order": -1
            }
        ],
        "mainTraceNodeCount": 3,
        "parentIdMap": {
            "0": -1,
            "1": 0,
            "2": 1
        },
        "tidyTrace": [
            {
                "children": [
                    {
                        "children": [
                            {
                                "children": [
                                    {
                                        "children": [],
                                        "depth": 2,
                                        "id": 2,
                                        "order": 2
                                    }
                                ],
                                "depth": 1,
                                "id": 1,
                                "order": 1
                            }
                        ],
                        "depth": 0,
                        "id": 0,
                        "order": 0
                    }
                ],
                "depth": -1,
                "id": -1,
                "order": -1
            }
        ],
        "tidyTraceNodeCount": 3
    },
    "state_change": {
        "stateChanges": [
            {
                "address": "0x64bc2ca1be492be7185faa2c8835d9b824c8a194",
                "erc": "ERC-20",
                "slots": [
                    {
                        "current": "0x000000000000000000000000000000000000000000000011ae849ee095290000",
                        "key": "0x75acdf7e8fe078d5723defd4b78f5d7906590955b2b25a0f6b0bd60e56bc0bce",
                        "prev": "0x0000000000000000000000000000000000000000000000000000000000000000"
                    },
                    {
                        "current": "0x0000000000000000000000000000000000000000026f145f508a7fd672d1a000",
                        "key": "0x7f812de78fc087abc17a00df75a2063b417bc316e96755c8f3a46b0861ad8ca6",
                        "prev": "0x0000000000000000000000000000000000000000026f1470ff0f1eb707faa000"
                    }
                ],
                "storageVariables": [
                    {
                        "name": "_balances",
                        "type": "mapping(address => uint256)",
                        "value": {
                            "pairs": [
                                {
                                    "key": "0x46950ba8946d7be4594399bcf203fb53e1fd7d37",
                                    "value": {
                                        "current": "753256991193850000000000000",
                                        "prev": "753257317363850000000000000",
                                        "typeTag": 1
                                    }
                                },
                                {
                                    "key": "0xf24e9d7c0bf060c02e6179428908e7cc5fa63668",
                                    "value": {
                                        "current": "326170000000000000000",
                                        "prev": "0",
                                        "typeTag": 1
                                    }
                                }
                            ],
                            "typeTag": 4
                        }
                    }
                ]
            }
        ]
    }
}