{
    "balance_change": {
        "balanceChanges": [
            {
                "account": "0x0018c076dfdca7c61f04925a230a9b5a701228a4",
                "assets": [
                    {
                        "address": "0xf3db5fa2c66b7af3eb0c0b782510816cbe4813b8",
                        "amount": "2,274",
                        "iconUrl": "https://assets.blocksec.com/icon/3d5a0260c85ff345dae6f28575259f3c8accc3d369b5fe03a6c738e71e8b9339.png",
                        "isERC1155": false,
                        "isERC721": false,
                        "sign": false,
                        "value": ""
                    }
                ]
            },
            {
                "account": "0xcb3cce746eddf4989fad362e026bb61d9aad777f",
                "assets": [
                    {
                        "address": "0xf3db5fa2c66b7af3eb0c0b782510816cbe4813b8",
                        "amount": "2,274",
                        "iconUrl": "https://assets.blocksec.com/icon/3d5a0260c85ff345dae6f28575259f3c8accc3d369b5fe03a6c738e71e8b9339.png",
                        "isERC1155": false,
                        "isERC721": false,
                        "sign": true,
                        "value": ""
                    }
                ]
            }
        ]
    },
    "profile": {
        "basic_info": {
            "baseFee": "",
            "blockNumber": 7923434,
            "callData": "0xa9059cbb000000000000000000000000cb3cce746eddf4989fad362e026bb61d9aad777f00000000000000000000000000000000000000000000000000000000015afc20",
            "debugEnable": true,
            "errorInfo": "",
            "eventCount": 1,
            "feeRecipient": "0x5a0b54d5dc17e0aadc383d2db43b0a0d3e029c4c",
            "formatValue": "0",
            "gasLimit": 80000,
            "gasPrice": "12",
            "gasUsed": 53026,
            "intTxnCount": 0,
            "internalRevert": false,
            "internalRevertMessage": "",
            "isContractCreation": false,
            "isFlashloan": false,
            "maxFee": "",
            "nonce": 33379,
            "overwritedBlockNumber": -1,
            "priorityFee": "",
            "receiver": "0xf3db5fa2c66b7af3eb0c0b782510816cbe4813b8",
            "revertMessage": "",
            "sender": "0x0018c076dfdca7c61f04925a230a9b5a701228a4",
            "simulationEnable": true,
            "sourceTxnHash": "0x8d77cfa925140d31cdc7dc27eeff2259353c2ae1f9dd83edbb73e1730676ed19",
            "status": true,
            "timestamp": "2019-06-09T07:24:12Z",
            "transactionFee": "0.000636312",
            "txnHash": "0x8d77cfa925140d31cdc7dc27eeff2259353c2ae1f9dd83edbb73e1730676ed19",
            "txnIndex": 3,
            "type": 0,
            "value": "0"
        },
        "fund_flow": [
            {
                "amount": "2,274",
                "from": "0x0018c076dfdca7c61f04925a230a9b5a701228a4",
                "id": 1,
                "isERC1155": false,
                "isERC721": false,
                "isReverted": false,
                "order": 1,
                "to": "0xcb3cce746eddf4989fad362e026bb61d9aad777f",
                "token": "0xf3db5fa2c66b7af3eb0c0b782510816cbe4813b8"
            }
        ],
        "token_infos": [
            {
                "address": "0xf3db5fa2c66b7af3eb0c0b782510816cbe4813b8",
                "decimals": 4
            },
            {
                "address": "0xeeeeeeeeeeeeeeeeeeeeeeeeeeeeeeeeeeeeeeee",
                "decimals": 18
            },
            {
                "address": "0xc02aaa39b223fe8d0a0e5c4f27ead9083c756cc2",
                "decimals": 18
            }
        ]
    },
    "address_label": {
        "labels": [
            {
                "address": "0xcb3cce746eddf4989fad362e026bb61d9aad777f",
                "label": "BINANCE"
            },
            {
                "address": "0x0000000000000000000000000000000000000001",
                "label": "Precompiled"
            },
            {
                "address": "0x0000000000000000000000000000000000000002",
                "label": "Precompiled"
            },
            {
                "address": "0x0000000000000000000000000000000000000003",
                "label": "Precompiled"
            },
            {
                "address": "0x0000000000000000000000000000000000000004",
                "label": "Precompiled"
            },
            {
                "address": "0xeeeeeeeeeeeeeeeeeeeeeeeeeeeeeeeeeeeeeeee",
                "label": "Ether"
            },
            {
                "address": "0xf3db5fa2c66b7af3eb0c0b782510816cbe4813b8",
                "label": "EverexToken"
            }
        ]
    },
    "trace": {
        "accountLabels": null,
        "dataMap": {
            "-1": {
                "invocation": {
                    "address": "0x0018c076dfdca7c61f04925a230a9b5a701228a4",
                    "callData": "",
                    "decodedMethod": null,
                    "errorInfo": "",
                    "fromAddress": "",
                    "gasUsed": 0,
                    "id": -1,
                    "methodDecoded": false,
                    "operation": "",
                    "output": "",
                    "revert": false,
                    "revertMessage": "",
                    "selector": "",
                    "status": false,
                    "value": ""
                },
                "nodeType": 0
            },
            "0": {
                "invocation": {
                    "address": "0xf3db5fa2c66b7af3eb0c0b782510816cbe4813b8",
                    "callData": "0x000000000000000000000000cb3cce746eddf4989fad362e026bb61d9aad777f00000000000000000000000000000000000000000000000000000000015afc20",
                    "decodedMethod": {
                        "callParams": [
                            {
                                "name": "_to",
                                "type": "address",
                                "value": "0xcb3cce746eddf4989fad362e026bb61d9aad777f"
                            },
                            {
                                "decimalAvailable": true,
                                "name": "_value",
                                "type": "uint256",
                                "value": "22,740,000"
                            }
                        ],
                        "constructorArguments": "",
                        "name": "transfer",
                        "returnParams": [
                            {
                                "name": "",
                                "type": "bool",
                                "value": true
                            }
                        ],
                        "signature": "transfer(address,uint256)"
                    },
                    "errorInfo": "",
                    "fromAddress": "0x0018c076dfdca7c61f04925a230a9b5a701228a4",
                    "gasUsed": 53026,
                    "id": 0,
                    "methodDecoded": true,
                    "operation": "CALL",
                    "output": "0x0000000000000000000000000000000000000000000000000000000000000001",
                    "revert": false,
                    "revertMessage": "",
                    "selector": "0xa9059cbb",
                    "status": true,
                    "value": "0"
                },
                "nodeType": 0
            },
            "1": {
                "event": {
                    "contract": "0xf3db5fa2c66b7af3eb0c0b782510816cbe4813b8",
                    "decodedLog": {
                        "name": "Transfer",
                        "params": [
                            {
                                "name": "from",
                                "type": "address",
                                "value": "0x0018c076dfdca7c61f04925a230a9b5a701228a4"
                            },
                            {
                                "name": "to",
                                "type": "address",
                                "value": "0xcb3cce746eddf4989fad362e026bb61d9aad777f"
                            },
                            {
                                "decimalAvailable": true,
                                "name": "value",
                                "type": "uint256",
                                "value": "22,740,000"
                            }
                        ],
                        "signature": "Transfer(address,address,uint256)"
                    },
                    "id": 1,
                    "logData": "0x00000000000000000000000000000000000000000000000000000000015afc20",
                    "logDecoded": true,
                    "operation": "EVENT",
                    "revert": false,
                    "status": true,
                    "topics": [
                        "0xddf252ad1be2c89b69c2b068fc378daa952ba7f163c4a11628f55a4df523b3ef",
                        "0x0000000000000000000000000018c076dfdca7c61f04925a230a9b5a701228a4",
                        "0x000000000000000000000000cb3cce746eddf4989fad362e026bb61d9aad777f"
                    ]
                },
                "nodeType": 1
            }
        },
        "gasFlame": [
            {
                "children": [
                    {
                        "children": [
                            {
                                "children": [],
                                "depth": 0,
                                "name": "Initial Gas",
                                "value": 23064
                            },
                            {
                                "children": [],
                                "depth": 0,
                                "name": "Executed Gas",
                                "value": 29962
                            }
                        ],
                        "depth": -1,
                        "name": "Actual Gas Used",
                        "value": 53026
                    },
                    {
                        "children": [],
                        "depth": -1,
                        "name": "Refunded Gas",
                        "value": 0
                    }
                ],
                "depth": -2,
                "name": "Total Gas",
                "value": 53026
            }
        ],
        "isConfirmed": true,
        "mainTrace": [
            {
                "children": [
                    {
                        "children": [
                            {
                                "children": [],
                                "depth": 1,
                                "id": 1,
                                "order": 1
                            }
                        ],
                        "depth": 0,
                        "id": 0,
                        "order": 0
                    }
                ],
                "depth": -1,
                "id": -1,
                "order": -1
            }
        ],
        "mainTraceNodeCount": 2,
        "parentIdMap": {
            "0": -1,
            "1": 0
        },
        "tidyTrace": [
            {
                "children": [
                    {
                        "children": [
                            {
                                "children": [],
                                "depth": 1,
                                "id": 1,
                                "order": 1
                            }
                        ],
                        "depth": 0,
                        "id": 0,
                        "order": 0
                    }
                ],
                "depth": -1,
                "id": -1,
                "order": -1
            }
        ],
        "tidyTraceNodeCount": 2
    },
    "state_change": {
        "stateChanges": [
            {
                "address": "0xf3db5fa2c66b7af3eb0c0b782510816cbe4813b8",
                "erc": "ERC-20",
                "slots": [
                    {
                        "current": "0x00000000000000000000000000000000000000000000000000000000307d9be1",
                        "key": "0x05f10ba11e135ffa575c14de38b0492df85320a7faaa1117dd4fac3afb1229e0",
                        "prev": "0x0000000000000000000000000000000000000000000000000000000031d89801"
                    },
                    {
                        "current": "0x00000000000000000000000000000000000000000000000000000000015afc20",
                        "key": "0xe23f23c627a0370592f13654c9f924452721ae8b7f026756e29b6e12e0ff5570",
                        "prev": "0x0000000000000000000000000000000000000000000000000000000000000000"
                    }
                ],
                "storageVariables": [
                    {
                        "name": "balances",
                        "type": "mapping(address => uint256)",
                        "value": {
                            "pairs": [
                                {
                                    "key": "0x0018c076dfdca7c61f04925a230a9b5a701228a4",
                                    "value": {
                                        "current": "813538273",
                                        "prev": "836278273",
                                        "typeTag": 1
                                    }
                                },
                                {
                                    "key": "0xcb3cce746eddf4989fad362e026bb61d9aad777f",
                                    "value": {
                                        "current": "22740000",
                                        "prev": "0",
                                        "typeTag": 1
                                    }
                                }
                            ],
                            "typeTag": 4
                        }
                    }
                ]
            }
        ]
    }
}