{
    "balance_change": {
        "balanceChanges": [
            {
                "account": "0xfc5c1941f1717279ef8397f72bd4d2564bf06f55",
                "assets": [
                    {
                        "address": "0xb35da08825dc90c15ddb55e9e15005a3db9c5ebb",
                        "amount": "315.63",
                        "iconUrl": "",
                        "isERC1155": false,
                        "isERC721": false,
                        "sign": false,
                        "value": ""
                    }
                ]
            },
            {
                "account": "0x3f2bed5878788582abf9ee89b781bc121493ae10",
                "assets": [
                    {
                        "address": "0xb35da08825dc90c15ddb55e9e15005a3db9c5ebb",
                        "amount": "315.63",
                        "iconUrl": "",
                        "isERC1155": false,
                        "isERC721": false,
                        "sign": true,
                        "value": ""
                    }
                ]
            }
        ]
    },
    "profile": {
        "basic_info": {
            "baseFee": "",
            "blockNumber": 8829820,
            "callData": "0xa9059cbb0000000000000000000000003f2bed5878788582abf9ee89b781bc121493ae100000000000000000000000000000000000000000000000111c3f04b8788b0000",
            "debugEnable": true,
            "errorInfo": "",
            "eventCount": 1,
            "feeRecipient": "0x52e44f279f4203dcf680395379e5f9990a69f13c",
            "formatValue": "0",
            "gasLimit": 86000,
            "gasPrice": "10",
            "gasUsed": 37593,
            "intTxnCount": 0,
            "internalRevert": false,
            "internalRevertMessage": "",
            "isContractCreation": false,
            "isFlashloan": false,
            "maxFee": "",
            "nonce": 6943,
            "overwritedBlockNumber": -1,
            "priorityFee": "",
            "receiver": "0xb35da08825dc90c15ddb55e9e15005a3db9c5ebb",
            "revertMessage": "",
            "sender": "0xfc5c1941f1717279ef8397f72bd4d2564bf06f55",
            "simulationEnable": true,
            "sourceTxnHash": "0x8d56b99ae2453f79133358e9ad369bbc446164c83f1a62ae7d8cabb1034bfbd4",
            "status": true,
            "timestamp": "2019-10-28T20:04:17Z",
            "transactionFee": "0.00037593",
            "txnHash": "0x8d56b99ae2453f79133358e9ad369bbc446164c83f1a62ae7d8cabb1034bfbd4",
            "txnIndex": 130,
            "type": 0,
            "value": "0"
        },
        "fund_flow": [
            {
                "amount": "315.63",
                "from": "0xfc5c1941f1717279ef8397f72bd4d2564bf06f55",
                "id": 1,
                "isERC1155": false,
                "isERC721": false,
                "isReverted": false,
                "order": 1,
                "to": "0x3f2bed5878788582abf9ee89b781bc121493ae10",
                "token": "0xb35da08825dc90c15ddb55e9e15005a3db9c5ebb"
            }
        ],
        "token_infos": [
            {
                "address": "0xb35da08825dc90c15ddb55e9e15005a3db9c5ebb",
                "decimals": 18
            },
            {
                "address": "0xc02aaa39b223fe8d0a0e5c4f27ead9083c756cc2",
                "decimals": 18
            },
            {
                "address": "0xeeeeeeeeeeeeeeeeeeeeeeeeeeeeeeeeeeeeeeee",
                "decimals": 18
            }
        ]
    },
    "address_label": {
        "labels": [
            {
                "address": "0xeeeeeeeeeeeeeeeeeeeeeeeeeeeeeeeeeeeeeeee",
                "label": "Ether"
            },
            {
                "address": "0xb35da08825dc90c15ddb55e9e15005a3db9c5ebb",
                "label": "Reditus Token"
            },
            {
                "address": "0x0000000000000000000000000000000000000001",
                "label": "Precompiled"
            },
            {
                "address": "0x0000000000000000000000000000000000000002",
                "label": "Precompiled"
            },
            {
                "address": "0x0000000000000000000000000000000000000003",
                "label": "Precompiled"
            },
            {
                "address": "0x0000000000000000000000000000000000000004",
                "label": "Precompiled"
            }
        ]
    },
    "trace": {
        "accountLabels": null,
        "dataMap": {
            "-1": {
                "invocation": {
                    "address": "0xfc5c1941f1717279ef8397f72bd4d2564bf06f55",
                    "callData": "",
                    "decodedMethod": null,
                    "errorInfo": "",
                    "fromAddress": "",
                    "gasUsed": 0,
                    "id": -1,
                    "methodDecoded": false,
                    "operation": "",
                    "output": "",
                    "revert": false,
                    "revertMessage": "",
                    "selector": "",
                    "status": false,
                    "value": ""
                },
                "nodeType": 0
            },
            "0": {
                "invocation": {
                    "address": "0xb35da08825dc90c15ddb55e9e15005a3db9c5ebb",
                    "callData": "0x0000000000000000000000003f2bed5878788582abf9ee89b781bc121493ae100000000000000000000000000000000000000000000000111c3f04b8788b0000",
                    "decodedMethod": {
                        "callParams": [
                            {
                                "name": "_to",
                                "type": "address",
                                "value": "0x3f2bed5878788582abf9ee89b781bc121493ae10"
                            },
                            {
                                "decimalAvailable": true,
                                "name": "_amount",
                                "type": "uint256",
                                "value": "315,630,000,000,000,000,000"
                            }
                        ],
                        "constructorArguments": "",
                        "name": "transfer",
                        "returnParams": [
                            {
                                "name": "",
                                "type": "bool",
                                "value": true
                            }
                        ],
                        "signature": "transfer(address,uint256)"
                    },
                    "errorInfo": "",
                    "fromAddress": "0xfc5c1941f1717279ef8397f72bd4d2564bf06f55",
                    "gasUsed": 37593,
                    "id": 0,
                    "methodDecoded": true,
                    "operation": "CALL",
                    "output": "0x0000000000000000000000000000000000000000000000000000000000000001",
                    "revert": false,
                    "revertMessage": "",
                    "selector": "0xa9059cbb",
                    "status": true,
                    "value": "0"
                },
                "nodeType": 0
            },
            "1": {
                "event": {
                    "contract": "0xb35da08825dc90c15ddb55e9e15005a3db9c5ebb",
                    "decodedLog": {
                        "name": "Transfer",
                        "params": [
                            {
                                "name": "from",
                                "type": "address",
                                "value": "0xfc5c1941f1717279ef8397f72bd4d2564bf06f55"
                            },
                            {
                                "name": "to",
                                "type": "address",
                                "value": "0x3f2bed5878788582abf9ee89b781bc121493ae10"
                            },
                            {
                                "decimalAvailable": true,
                                "name": "value",
                                "type": "uint256",
                                "value": "315,630,000,000,000,000,000"
                            }
                        ],
                        "signature": "Transfer(address,address,uint256)"
                    },
                    "id": 1,
                    "logData": "0x0000000000000000000000000000000000000000000000111c3f04b8788b0000",
                    "logDecoded": true,
                    "operation": "EVENT",
                    "revert": false,
                    "status": true,
                    "topics": [
                        "0xddf252ad1be2c89b69c2b068fc378daa952ba7f163c4a11628f55a4df523b3ef",
                        "0x000000000000000000000000fc5c1941f1717279ef8397f72bd4d2564bf06f55",
                        "0x0000000000000000000000003f2bed5878788582abf9ee89b781bc121493ae10"
                    ]
                },
                "nodeType": 1
            }
        },
        "gasFlame": [
            {
                "children": [
                    {
                        "children": [
                            {
                                "children": [],
                                "depth": 0,
                                "name": "Initial Gas",
                                "value": 23256
                            },
                            {
                                "children": [],
                                "depth": 0,
                                "name": "Executed Gas",
                                "value": 14337
                            }
                        ],
                        "depth": -1,
                        "name": "Actual Gas Used",
                        "value": 37593
                    },
                    {
                        "children": [],
                        "depth": -1,
                        "name": "Refunded Gas",
                        "value": 0
                    }
                ],
                "depth": -2,
                "name": "Total Gas",
                "value": 37593
            }
        ],
        "isConfirmed": true,
        "mainTrace": [
            {
                "children": [
                    {
                        "children": [
                            {
                                "children": [],
                                "depth": 1,
                                "id": 1,
                                "order": 1
                            }
                        ],
                        "depth": 0,
                        "id": 0,
                        "order": 0
                    }
                ],
                "depth": -1,
                "id": -1,
                "order": -1
            }
        ],
        "mainTraceNodeCount": 2,
        "parentIdMap": {
            "0": -1,
            "1": 0
        },
        "tidyTrace": [
            {
                "children": [
                    {
                        "children": [
                            {
                                "children": [],
                                "depth": 1,
                                "id": 1,
                                "order": 1
                            }
                        ],
                        "depth": 0,
                        "id": 0,
                        "order": 0
                    }
                ],
                "depth": -1,
                "id": -1,
                "order": -1
            }
        ],
        "tidyTraceNodeCount": 2
    },
    "state_change": {
        "stateChanges": [
            {
                "address": "0xb35da08825dc90c15ddb55e9e15005a3db9c5ebb",
                "erc": "ERC-20",
                "slots": [
                    {
                        "current": "0x0000000000000000000000000000000000000000000757d715ad0996cefd1800",
                        "key": "0x4e4132e94d04113e6e044842077a094431986b9300a563a887771688b3b7f78c",
                        "prev": "0x0000000000000000000000000000000000000000000757e831ec0e4f47881800"
                    },
                    {
                        "current": "0x00000000000000000000000000000000000000000000018102d6a46d28128000",
                        "key": "0xa9ade2918d3c1499ae10cf1a651acd09ee17e0eaf3dbdeaf6dedcf280631e098",
                        "prev": "0x00000000000000000000000000000000000000000000016fe6979fb4af878000"
                    }
                ],
                "storageVariables": [
                    {
                        "name": "balances",
                        "type": "mapping(address => uint256)",
                        "value": {
                            "pairs": [
                                {
                                    "key": "0x3f2bed5878788582abf9ee89b781bc121493ae10",
                                    "value": {
                                        "current": "7102201000000000000000",
                                        "prev": "6786571000000000000000",
                                        "typeTag": 1
                                    }
                                },
                                {
                                    "key": "0xfc5c1941f1717279ef8397f72bd4d2564bf06f55",
                                    "value": {
                                        "current": "8877294233203100000000000",
                                        "prev": "8877609863203100000000000",
                                        "typeTag": 1
                                    }
                                }
                            ],
                            "typeTag": 4
                        }
                    }
                ]
            }
        ]
    }
}