{
    "balance_change": {
        "balanceChanges": [
            {
                "account": "0xcdda661fa26d6f80d4a9c1007b7c11834d53774c",
                "assets": [
                    {
                        "address": "0xc292de14f38636b6415fb5014edc3a859e2607a3",
                        "amount": "7,000",
                        "iconUrl": "",
                        "isERC1155": false,
                        "isERC721": false,
                        "sign": false,
                        "value": ""
                    }
                ]
            },
            {
                "account": "0x3bea644df9e8a306a40df4fd6f25d0d496792daa",
                "assets": [
                    {
                        "address": "0xc292de14f38636b6415fb5014edc3a859e2607a3",
                        "amount": "7,000",
                        "iconUrl": "",
                        "isERC1155": false,
                        "isERC721": false,
                        "sign": true,
                        "value": ""
                    }
                ]
            }
        ]
    },
    "profile": {
        "basic_info": {
            "baseFee": "",
            "blockNumber": 7924439,
            "callData": "0xa9059cbb0000000000000000000000003bea644df9e8a306a40df4fd6f25d0d496792daa00000000000000000000000000000000000000000000017b7883c06916600000",
            "debugEnable": true,
            "errorInfo": "",
            "eventCount": 1,
            "feeRecipient": "0x35f61dfb08ada13eba64bf156b80df3d5b3a738d",
            "formatValue": "0",
            "gasLimit": 45000,
            "gasPrice": "1.12",
            "gasUsed": 21661,
            "intTxnCount": 0,
            "internalRevert": false,
            "internalRevertMessage": "",
            "isContractCreation": false,
            "isFlashloan": false,
            "maxFee": "",
            "nonce": 7,
            "overwritedBlockNumber": -1,
            "priorityFee": "",
            "receiver": "0xc292de14f38636b6415fb5014edc3a859e2607a3",
            "revertMessage": "",
            "sender": "0xcdda661fa26d6f80d4a9c1007b7c11834d53774c",
            "simulationEnable": true,
            "sourceTxnHash": "0x8e4ed86c8f2c69941f22d9cbfe1ff72e97a2c83c04200c257fdb7c5189890e40",
            "status": true,
            "timestamp": "2019-06-09T11:23:10Z",
            "transactionFee": "0.00002426032",
            "txnHash": "0x8e4ed86c8f2c69941f22d9cbfe1ff72e97a2c83c04200c257fdb7c5189890e40",
            "txnIndex": 165,
            "type": 0,
            "value": "0"
        },
        "fund_flow": [
            {
                "amount": "7,000",
                "from": "0xcdda661fa26d6f80d4a9c1007b7c11834d53774c",
                "id": 1,
                "isERC1155": false,
                "isERC721": false,
                "isReverted": false,
                "order": 1,
                "to": "0x3bea644df9e8a306a40df4fd6f25d0d496792daa",
                "token": "0xc292de14f38636b6415fb5014edc3a859e2607a3"
            }
        ],
        "token_infos": [
            {
                "address": "0xc02aaa39b223fe8d0a0e5c4f27ead9083c756cc2",
                "decimals": 18
            },
            {
                "address": "0xc292de14f38636b6415fb5014edc3a859e2607a3",
                "decimals": 18
            },
            {
                "address": "0xeeeeeeeeeeeeeeeeeeeeeeeeeeeeeeeeeeeeeeee",
                "decimals": 18
            }
        ]
    },
    "address_label": {
        "labels": [
            {
                "address": "0x0000000000000000000000000000000000000001",
                "label": "Precompiled"
            },
            {
                "address": "0x0000000000000000000000000000000000000002",
                "label": "Precompiled"
            },
            {
                "address": "0x0000000000000000000000000000000000000003",
                "label": "Precompiled"
            },
            {
                "address": "0x0000000000000000000000000000000000000004",
                "label": "Precompiled"
            },
            {
                "address": "0xeeeeeeeeeeeeeeeeeeeeeeeeeeeeeeeeeeeeeeee",
                "label": "Ether"
            },
            {
                "address": "0xc292de14f38636b6415fb5014edc3a859e2607a3",
                "label": "Smilecoin (SC)"
            }
        ]
    },
    "trace": {
        "accountLabels": null,
        "dataMap": {
            "-1": {
                "invocation": {
                    "address": "0xcdda661fa26d6f80d4a9c1007b7c11834d53774c",
                    "callData": "",
                    "decodedMethod": null,
                    "errorInfo": "",
                    "fromAddress": "",
                    "gasUsed": 0,
                    "id": -1,
                    "methodDecoded": false,
                    "operation": "",
                    "output": "",
                    "revert": false,
                    "revertMessage": "",
                    "selector": "",
                    "status": false,
                    "value": ""
                },
                "nodeType": 0
            },
            "0": {
                "invocation": {
                    "address": "0xc292de14f38636b6415fb5014edc3a859e2607a3",
                    "callData": "0x0000000000000000000000003bea644df9e8a306a40df4fd6f25d0d496792daa00000000000000000000000000000000000000000000017b7883c06916600000",
                    "decodedMethod": {
                        "callParams": [
                            {
                                "name": "_to",
                                "type": "address",
                                "value": "0x3bea644df9e8a306a40df4fd6f25d0d496792daa"
                            },
                            {
                                "decimalAvailable": true,
                                "name": "_value",
                                "type": "uint256",
                                "value": "7,000,000,000,000,000,000,000"
                            }
                        ],
                        "constructorArguments": "",
                        "name": "transfer",
                        "returnParams": [
                            {
                                "name": "",
                                "type": "bool",
                                "value": true
                            }
                        ],
                        "signature": "transfer(address,uint256)"
                    },
                    "errorInfo": "",
                    "fromAddress": "0xcdda661fa26d6f80d4a9c1007b7c11834d53774c",
                    "gasUsed": 21661,
                    "id": 0,
                    "methodDecoded": true,
                    "operation": "CALL",
                    "output": "0x0000000000000000000000000000000000000000000000000000000000000001",
                    "revert": false,
                    "revertMessage": "",
                    "selector": "0xa9059cbb",
                    "status": true,
                    "value": "0"
                },
                "nodeType": 0
            },
            "1": {
                "event": {
                    "contract": "0xc292de14f38636b6415fb5014edc3a859e2607a3",
                    "decodedLog": {
                        "name": "Transfer",
                        "params": [
                            {
                                "name": "from",
                                "type": "address",
                                "value": "0xcdda661fa26d6f80d4a9c1007b7c11834d53774c"
                            },
                            {
                                "name": "to",
                                "type": "address",
                                "value": "0x3bea644df9e8a306a40df4fd6f25d0d496792daa"
                            },
                            {
                                "decimalAvailable": true,
                                "name": "value",
                                "type": "uint256",
                                "value": "7,000,000,000,000,000,000,000"
                            }
                        ],
                        "signature": "Transfer(address,address,uint256)"
                    },
                    "id": 1,
                    "logData": "0x00000000000000000000000000000000000000000000017b7883c06916600000",
                    "logDecoded": true,
                    "operation": "EVENT",
                    "revert": false,
                    "status": true,
                    "topics": [
                        "0xddf252ad1be2c89b69c2b068fc378daa952ba7f163c4a11628f55a4df523b3ef",
                        "0x000000000000000000000000cdda661fa26d6f80d4a9c1007b7c11834d53774c",
                        "0x0000000000000000000000003bea644df9e8a306a40df4fd6f25d0d496792daa"
                    ]
                },
                "nodeType": 1
            }
        },
        "gasFlame": [
            {
                "children": [
                    {
                        "children": [
                            {
                                "children": [],
                                "depth": 0,
                                "name": "Initial Gas",
                                "value": 23320
                            },
                            {
                                "children": [],
                                "depth": 0,
                                "name": "Executed Gas",
                                "value": 13341
                            }
                        ],
                        "depth": -1,
                        "name": "Actual Gas Used",
                        "value": 21661
                    },
                    {
                        "children": [],
                        "depth": -1,
                        "name": "Refunded Gas",
                        "value": 15000
                    }
                ],
                "depth": -2,
                "name": "Total Gas",
                "value": 36661
            }
        ],
        "isConfirmed": true,
        "mainTrace": [
            {
                "children": [
                    {
                        "children": [
                            {
                                "children": [],
                                "depth": 1,
                                "id": 1,
                                "order": 1
                            }
                        ],
                        "depth": 0,
                        "id": 0,
                        "order": 0
                    }
                ],
                "depth": -1,
                "id": -1,
                "order": -1
            }
        ],
        "mainTraceNodeCount": 2,
        "parentIdMap": {
            "0": -1,
            "1": 0
        },
        "tidyTrace": [
            {
                "children": [
                    {
                        "children": [
                            {
                                "children": [],
                                "depth": 1,
                                "id": 1,
                                "order": 1
                            }
                        ],
                        "depth": 0,
                        "id": 0,
                        "order": 0
                    }
                ],
                "depth": -1,
                "id": -1,
                "order": -1
            }
        ],
        "tidyTraceNodeCount": 2
    },
    "state_change": {
        "stateChanges": [
            {
                "address": "0xc292de14f38636b6415fb5014edc3a859e2607a3",
                "erc": "ERC-20",
                "slots": [
                    {
                        "current": "0x0000000000000000000000000000000000000000000000000000000000000000",
                        "key": "0x02ed4fd3d02ce2224e2553855f5ef1d20c0f6c790a4a237526ee0f9495a3a8a3",
                        "prev": "0x00000000000000000000000000000000000000000000017b7883c06916600000"
                    },
                    {
                        "current": "0x0000000000000000000000000000000000000000000ccbe661630b3328c00000",
                        "key": "0x94a3cb0eb9fc5580418c91eef930d1a2fe4f45b41e4ede12d4c931de318ff847",
                        "prev": "0x0000000000000000000000000000000000000000000cca6ae8df4aca12600000"
                    }
                ],
                "storageVariables": [
                    {
                        "name": "balances",
                        "type": "mapping(address => uint256)",
                        "value": {
                            "pairs": [
                                {
                                    "key": "0x3bea644df9e8a306a40df4fd6f25d0d496792daa",
                                    "value": {
                                        "current": "15470000000000000000000000",
                                        "prev": "15463000000000000000000000",
                                        "typeTag": 1
                                    }
                                },
                                {
                                    "key": "0xcdda661fa26d6f80d4a9c1007b7c11834d53774c",
                                    "value": {
                                        "current": "0",
                                        "prev": "7000000000000000000000",
                                        "typeTag": 1
                                    }
                                }
                            ],
                            "typeTag": 4
                        }
                    }
                ]
            }
        ]
    }
}