{
    "balance_change": {
        "balanceChanges": [
            {
                "account": "0x0ce34f2d35b9553499a75bb5100f72326201747a",
                "assets": [
                    {
                        "address": "0xeeeeeeeeeeeeeeeeeeeeeeeeeeeeeeeeeeeeeeee",
                        "amount": "3",
                        "iconUrl": "https://assets.blocksec.com/image/1663669189317-3.png",
                        "isERC1155": false,
                        "isERC721": false,
                        "sign": false,
                        "value": "1077.45"
                    },
                    {
                        "address": "0xd26114cd6ee289accf82350c8d8487fedb8a0c07",
                        "amount": "329.976641344030717472",
                        "iconUrl": "https://assets.blocksec.com/icon/33337523e3649cd91abcb0cac0df074ff9512695abafe3958d0a610195d87716.png",
                        "isERC1155": false,
                        "isERC721": false,
                        "sign": true,
                        "value": "1063.581146"
                    }
                ]
            },
            {
                "account": "0x2a06add4629b1a494a5bb667cf8250c3ae1224b8",
                "assets": [
                    {
                        "address": "0x1f573d6fb3f13d689ff844b4ce37794d79a7ff1c",
                        "amount": "1,124.524555008701765375",
                        "iconUrl": "https://assets.blocksec.com/icon/2134050168d6c4780030be02f0a6ca44fe9e3462a2cefed4fac3abde8839c5b0.png",
                        "isERC1155": false,
                        "isERC721": false,
                        "sign": true,
                        "value": "1076.092432"
                    },
                    {
                        "address": "0xd26114cd6ee289accf82350c8d8487fedb8a0c07",
                        "amount": "329.976641344030717472",
                        "iconUrl": "https://assets.blocksec.com/icon/33337523e3649cd91abcb0cac0df074ff9512695abafe3958d0a610195d87716.png",
                        "isERC1155": false,
                        "isERC721": false,
                        "sign": false,
                        "value": "1063.581146"
                    }
                ]
            },
            {
                "account": "0xe870d00176b2c71afd4c43cea550228e22be4abd",
                "assets": [
                    {
                        "address": "0xeeeeeeeeeeeeeeeeeeeeeeeeeeeeeeeeeeeeeeee",
                        "amount": "3",
                        "iconUrl": "https://assets.blocksec.com/image/1663669189317-3.png",
                        "isERC1155": false,
                        "isERC721": false,
                        "sign": true,
                        "value": "1077.45"
                    },
                    {
                        "address": "0x1f573d6fb3f13d689ff844b4ce37794d79a7ff1c",
                        "amount": "1,124.524555008701765375",
                        "iconUrl": "https://assets.blocksec.com/icon/2134050168d6c4780030be02f0a6ca44fe9e3462a2cefed4fac3abde8839c5b0.png",
                        "isERC1155": false,
                        "isERC721": false,
                        "sign": false,
                        "value": "1076.092432"
                    }
                ]
            }
        ]
    },
    "profile": {
        "basic_info": {
            "baseFee": "",
            "blockNumber": 10948227,
            "callData": "0x569706eb00000000000000000000000000000000000000000000000000000000000000a000000000000000000000000000000000000000000000000029a2241af62c00000000000000000000000000000000000000000000000000117f21a00d6ecf0000000000000000000000000000000000000000000000000000000000000000000000000000000000000000000000000000000000000000000000000000000000000000000000000000000000000000000000000000000000000000000000000005000000000000000000000000eeeeeeeeeeeeeeeeeeeeeeeeeeeeeeeeeeeeeeee000000000000000000000000b1cd6e4153b2a390cf00a6556b0fc1458c4a55330000000000000000000000001f573d6fb3f13d689ff844b4ce37794d79a7ff1c00000000000000000000000099ebd396ce7aa095412a4cd1a0c959d6fd67b340000000000000000000000000d26114cd6ee289accf82350c8d8487fedb8a0c07",
            "debugEnable": true,
            "errorInfo": "",
            "eventCount": 16,
            "feeRecipient": "0x52bc44d5378309ee2abf1539bf71de1b7d7be3b5",
            "formatValue": "3",
            "gasLimit": 490031,
            "gasPrice": "97.685874",
            "gasUsed": 262953,
            "intTxnCount": 23,
            "internalRevert": false,
            "internalRevertMessage": "",
            "isContractCreation": false,
            "isFlashloan": false,
            "maxFee": "",
            "nonce": 28655,
            "overwritedBlockNumber": -1,
            "priorityFee": "",
            "receiver": "0x2f9ec37d6ccfff1cab21733bdadede11c823ccb0",
            "revertMessage": "",
            "sender": "0x0ce34f2d35b9553499a75bb5100f72326201747a",
            "simulationEnable": true,
            "sourceTxnHash": "0x8ecf7766119772ae2b171ad5ab519df7b4ecb9e76a82fa9cb4bb9987449577a7",
            "status": true,
            "timestamp": "2020-09-28T01:55:35Z",
            "transactionFee": "0.025686793625922",
            "txnHash": "0x8ecf7766119772ae2b171ad5ab519df7b4ecb9e76a82fa9cb4bb9987449577a7",
            "txnIndex": 7,
            "type": 0,
            "value": "3000000000000000000"
        },
        "fund_flow": [
            {
                "amount": "3",
                "from": "0x0ce34f2d35b9553499a75bb5100f72326201747a",
                "id": 1,
                "isERC1155": false,
                "isERC721": false,
                "isReverted": false,
                "order": 1,
                "to": "0x2f9ec37d6ccfff1cab21733bdadede11c823ccb0",
                "token": "0xeeeeeeeeeeeeeeeeeeeeeeeeeeeeeeeeeeeeeeee"
            },
            {
                "amount": "3",
                "from": "0x2f9ec37d6ccfff1cab21733bdadede11c823ccb0",
                "id": 2,
                "isERC1155": false,
                "isERC721": false,
                "isReverted": false,
                "order": 2,
                "to": "0xe870d00176b2c71afd4c43cea550228e22be4abd",
                "token": "0xeeeeeeeeeeeeeeeeeeeeeeeeeeeeeeeeeeeeeeee"
            },
            {
                "amount": "1,124.524555008701765375",
                "from": "0xe870d00176b2c71afd4c43cea550228e22be4abd",
                "id": 3,
                "isERC1155": false,
                "isERC721": false,
                "isReverted": false,
                "order": 3,
                "to": "0x2a06add4629b1a494a5bb667cf8250c3ae1224b8",
                "token": "0x1f573d6fb3f13d689ff844b4ce37794d79a7ff1c"
            },
            {
                "amount": "329.976641344030717472",
                "from": "0x2a06add4629b1a494a5bb667cf8250c3ae1224b8",
                "id": 4,
                "isERC1155": false,
                "isERC721": false,
                "isReverted": false,
                "order": 4,
                "to": "0x0ce34f2d35b9553499a75bb5100f72326201747a",
                "token": "0xd26114cd6ee289accf82350c8d8487fedb8a0c07"
            }
        ],
        "token_infos": [
            {
                "address": "0xd26114cd6ee289accf82350c8d8487fedb8a0c07",
                "decimals": 18
            },
            {
                "address": "0xeeeeeeeeeeeeeeeeeeeeeeeeeeeeeeeeeeeeeeee",
                "decimals": 18
            },
            {
                "address": "0x1f573d6fb3f13d689ff844b4ce37794d79a7ff1c",
                "decimals": 18
            },
            {
                "address": "0xc02aaa39b223fe8d0a0e5c4f27ead9083c756cc2",
                "decimals": 18
            }
        ]
    },
    "address_label": {
        "labels": [
            {
                "address": "0x0000000000000000000000000000000000000002",
                "label": "Precompiled"
            },
            {
                "address": "0xeeeeeeeeeeeeeeeeeeeeeeeeeeeeeeeeeeeeeeee",
                "label": "Ether"
            },
            {
                "address": "0x99ebd396ce7aa095412a4cd1a0c959d6fd67b340",
                "label": "OMG Smart Token Relay (OMGBNT)"
            },
            {
                "address": "0x0000000000000000000000000000000000000001",
                "label": "Precompiled"
            },
            {
                "address": "0xb1cd6e4153b2a390cf00a6556b0fc1458c4a5533",
                "label": "Bancor: ETHBNT Token"
            },
            {
                "address": "0xd26114cd6ee289accf82350c8d8487fedb8a0c07",
                "label": "OMG Network: OMG Token"
            },
            {
                "address": "0x1f573d6fb3f13d689ff844b4ce37794d79a7ff1c",
                "label": "Bancor: BNT Token"
            },
            {
                "address": "0x2f9ec37d6ccfff1cab21733bdadede11c823ccb0",
                "label": "Bancor: Swaps"
            },
            {
                "address": "0xe870d00176b2c71afd4c43cea550228e22be4abd",
                "label": "Bancor: Converter 216"
            },
            {
                "address": "0x52ae12abe5d8bd778bd5397f99ca900624cfadd4",
                "label": "Bancor: Contract Registry"
            },
            {
                "address": "0x0000000000000000000000000000000000000003",
                "label": "Precompiled"
            },
            {
                "address": "0x0000000000000000000000000000000000000004",
                "label": "Precompiled"
            },
            {
                "address": "0x2a06add4629b1a494a5bb667cf8250c3ae1224b8",
                "label": "Bancor: Converter 6"
            },
            {
                "address": "0x0000000000000000000000000000000000000000",
                "label": "Null Address"
            },
            {
                "address": "0xa049894d5dcad406b7c827d6dc6a0b58ca4ae73a",
                "label": "BancorFormula"
            }
        ]
    },
    "trace": {
        "accountLabels": null,
        "dataMap": {
            "-1": {
                "invocation": {
                    "address": "0x0ce34f2d35b9553499a75bb5100f72326201747a",
                    "callData": "",
                    "decodedMethod": null,
                    "errorInfo": "",
                    "fromAddress": "",
                    "gasUsed": 0,
                    "id": -1,
                    "methodDecoded": false,
                    "operation": "",
                    "output": "",
                    "revert": false,
                    "revertMessage": "",
                    "selector": "",
                    "status": false,
                    "value": ""
                },
                "nodeType": 0
            },
            "0": {
                "invocation": {
                    "address": "0x2f9ec37d6ccfff1cab21733bdadede11c823ccb0",
                    "callData": "0x00000000000000000000000000000000000000000000000000000000000000a000000000000000000000000000000000000000000000000029a2241af62c00000000000000000000000000000000000000000000000000117f21a00d6ecf0000000000000000000000000000000000000000000000000000000000000000000000000000000000000000000000000000000000000000000000000000000000000000000000000000000000000000000000000000000000000000000000000005000000000000000000000000eeeeeeeeeeeeeeeeeeeeeeeeeeeeeeeeeeeeeeee000000000000000000000000b1cd6e4153b2a390cf00a6556b0fc1458c4a55330000000000000000000000001f573d6fb3f13d689ff844b4ce37794d79a7ff1c00000000000000000000000099ebd396ce7aa095412a4cd1a0c959d6fd67b340000000000000000000000000d26114cd6ee289accf82350c8d8487fedb8a0c07",
                    "decodedMethod": {
                        "callParams": [
                            {
                                "name": "_path",
                                "type": "address[]",
                                "value": [
                                    "0xeeeeeeeeeeeeeeeeeeeeeeeeeeeeeeeeeeeeeeee",
                                    "0xb1cd6e4153b2a390cf00a6556b0fc1458c4a5533",
                                    "0x1f573d6fb3f13d689ff844b4ce37794d79a7ff1c",
                                    "0x99ebd396ce7aa095412a4cd1a0c959d6fd67b340",
                                    "0xd26114cd6ee289accf82350c8d8487fedb8a0c07"
                                ]
                            },
                            {
                                "name": "_amount",
                                "type": "uint256",
                                "value": "3,000,000,000,000,000,000"
                            },
                            {
                                "name": "_minReturn",
                                "type": "uint256",
                                "value": "322,755,428,349,664,755,712"
                            },
                            {
                                "name": "_affiliateAccount",
                                "type": "address",
                                "value": "0x0000000000000000000000000000000000000000"
                            },
                            {
                                "name": "_affiliateFee",
                                "type": "uint256",
                                "value": "0"
                            }
                        ],
                        "constructorArguments": "",
                        "name": "convert2",
                        "returnParams": [
                            {
                                "name": "",
                                "type": "uint256",
                                "value": "329,976,641,344,030,717,472"
                            }
                        ],
                        "signature": "convert2(address[],uint256,uint256,address,uint256)"
                    },
                    "errorInfo": "",
                    "fromAddress": "0x0ce34f2d35b9553499a75bb5100f72326201747a",
                    "gasUsed": 262953,
                    "id": 0,
                    "methodDecoded": true,
                    "operation": "CALL",
                    "output": "0x000000000000000000000000000000000000000000000011e3588702df6d3620",
                    "revert": false,
                    "revertMessage": "",
                    "selector": "0x569706eb",
                    "status": true,
                    "value": "3"
                },
                "nodeType": 0
            },
            "1": {
                "invocation": {
                    "address": "0xb1cd6e4153b2a390cf00a6556b0fc1458c4a5533",
                    "callData": "0x",
                    "decodedMethod": {
                        "callParams": [],
                        "constructorArguments": "",
                        "name": "owner",
                        "returnParams": [
                            {
                                "name": "",
                                "type": "address",
                                "value": "0xe870d00176b2c71afd4c43cea550228e22be4abd"
                            }
                        ],
                        "signature": "owner()"
                    },
                    "errorInfo": "",
                    "fromAddress": "0x2f9ec37d6ccfff1cab21733bdadede11c823ccb0",
                    "gasUsed": 1379,
                    "id": 1,
                    "methodDecoded": true,
                    "operation": "CALL",
                    "output": "0x000000000000000000000000e870d00176b2c71afd4c43cea550228e22be4abd",
                    "revert": false,
                    "revertMessage": "",
                    "selector": "0x8da5cb5b",
                    "status": true,
                    "value": "0"
                },
                "nodeType": 0
            },
            "10": {
                "invocation": {
                    "address": "0xb1cd6e4153b2a390cf00a6556b0fc1458c4a5533",
                    "callData": "0x",
                    "decodedMethod": {
                        "callParams": [],
                        "constructorArguments": "",
                        "name": "owner",
                        "returnParams": [
                            {
                                "name": "",
                                "type": "address",
                                "value": "0xe870d00176b2c71afd4c43cea550228e22be4abd"
                            }
                        ],
                        "signature": "owner()"
                    },
                    "errorInfo": "",
                    "fromAddress": "0xe870d00176b2c71afd4c43cea550228e22be4abd",
                    "gasUsed": 1379,
                    "id": 10,
                    "methodDecoded": true,
                    "operation": "CALL",
                    "output": "0x000000000000000000000000e870d00176b2c71afd4c43cea550228e22be4abd",
                    "revert": false,
                    "revertMessage": "",
                    "selector": "0x8da5cb5b",
                    "status": true,
                    "value": "0"
                },
                "nodeType": 0
            },
            "11": {
                "invocation": {
                    "address": "0x52ae12abe5d8bd778bd5397f99ca900624cfadd4",
                    "callData": "0x42616e636f72466f726d756c6100000000000000000000000000000000000000",
                    "decodedMethod": {
                        "callParams": [
                            {
                                "name": "_contractName",
                                "type": "bytes32",
                                "value": "0x42616e636f72466f726d756c6100000000000000000000000000000000000000"
                            }
                        ],
                        "constructorArguments": "",
                        "name": "addressOf",
                        "returnParams": [
                            {
                                "name": "",
                                "type": "address",
                                "value": "0xa049894d5dcad406b7c827d6dc6a0b58ca4ae73a"
                            }
                        ],
                        "signature": "addressOf(bytes32)"
                    },
                    "errorInfo": "",
                    "fromAddress": "0xe870d00176b2c71afd4c43cea550228e22be4abd",
                    "gasUsed": 1561,
                    "id": 11,
                    "methodDecoded": true,
                    "operation": "CALL",
                    "output": "0x000000000000000000000000a049894d5dcad406b7c827d6dc6a0b58ca4ae73a",
                    "revert": false,
                    "revertMessage": "",
                    "selector": "0xbb34534c",
                    "status": true,
                    "value": "0"
                },
                "nodeType": 0
            },
            "12": {
                "invocation": {
                    "address": "0xa049894d5dcad406b7c827d6dc6a0b58ca4ae73a",
                    "callData": "0x0000000000000000000000000000000000000000000002d2aaed59b6b3b07875000000000000000000000000000000000000000000000000000000000007a12000000000000000000000000000000000000000000004237207d6af87f0799337000000000000000000000000000000000000000000000000000000000007a12000000000000000000000000000000000000000000000000029a2241af62c0000",
                    "decodedMethod": {
                        "callParams": [
                            {
                                "name": "_sourceReserveBalance",
                                "type": "uint256",
                                "value": "13,330,865,820,415,458,048,117"
                            },
                            {
                                "name": "_sourceReserveWeight",
                                "type": "uint32",
                                "value": "500,000"
                            },
                            {
                                "name": "_targetReserveBalance",
                                "type": "uint256",
                                "value": "5,003,089,599,015,158,841,709,367"
                            },
                            {
                                "name": "_targetReserveWeight",
                                "type": "uint32",
                                "value": "500,000"
                            },
                            {
                                "name": "_amount",
                                "type": "uint256",
                                "value": "3,000,000,000,000,000,000"
                            }
                        ],
                        "constructorArguments": "",
                        "name": "crossReserveTargetAmount",
                        "returnParams": [
                            {
                                "name": "",
                                "type": "uint256",
                                "value": "1,125,650,205,213,915,681,056"
                            }
                        ],
                        "signature": "crossReserveTargetAmount(uint256,uint32,uint256,uint32,uint256)"
                    },
                    "errorInfo": "",
                    "fromAddress": "0xe870d00176b2c71afd4c43cea550228e22be4abd",
                    "gasUsed": 1054,
                    "id": 12,
                    "methodDecoded": true,
                    "operation": "CALL",
                    "output": "0x00000000000000000000000000000000000000000000003d0588e1b111011120",
                    "revert": false,
                    "revertMessage": "",
                    "selector": "0x94491fab",
                    "status": true,
                    "value": "0"
                },
                "nodeType": 0
            },
            "13": {
                "invocation": {
                    "address": "0x1f573d6fb3f13d689ff844b4ce37794d79a7ff1c",
                    "callData": "0x0000000000000000000000002a06add4629b1a494a5bb667cf8250c3ae1224b800000000000000000000000000000000000000000000003cf5e9c4cb41e216ff",
                    "decodedMethod": {
                        "callParams": [
                            {
                                "name": "_to",
                                "type": "address",
                                "value": "0x2a06add4629b1a494a5bb667cf8250c3ae1224b8"
                            },
                            {
                                "decimalAvailable": true,
                                "name": "_value",
                                "type": "uint256",
                                "value": "1,124,524,555,008,701,765,375"
                            }
                        ],
                        "constructorArguments": "",
                        "name": "transfer",
                        "returnParams": [
                            {
                                "name": "success",
                                "type": "bool",
                                "value": true
                            }
                        ],
                        "signature": "transfer(address,uint256)"
                    },
                    "errorInfo": "",
                    "fromAddress": "0xe870d00176b2c71afd4c43cea550228e22be4abd",
                    "gasUsed": 15952,
                    "id": 13,
                    "methodDecoded": true,
                    "operation": "CALL",
                    "output": "0x0000000000000000000000000000000000000000000000000000000000000001",
                    "revert": false,
                    "revertMessage": "",
                    "selector": "0xa9059cbb",
                    "status": true,
                    "value": "0"
                },
                "nodeType": 0
            },
            "14": {
                "event": {
                    "contract": "0x1f573d6fb3f13d689ff844b4ce37794d79a7ff1c",
                    "decodedLog": {
                        "name": "Transfer",
                        "params": [
                            {
                                "name": "_from",
                                "type": "address",
                                "value": "0xe870d00176b2c71afd4c43cea550228e22be4abd"
                            },
                            {
                                "name": "_to",
                                "type": "address",
                                "value": "0x2a06add4629b1a494a5bb667cf8250c3ae1224b8"
                            },
                            {
                                "decimalAvailable": true,
                                "name": "_value",
                                "type": "uint256",
                                "value": "1,124,524,555,008,701,765,375"
                            }
                        ],
                        "signature": "Transfer(address,address,uint256)"
                    },
                    "id": 14,
                    "logData": "0x00000000000000000000000000000000000000000000003cf5e9c4cb41e216ff",
                    "logDecoded": true,
                    "operation": "EVENT",
                    "revert": false,
                    "status": true,
                    "topics": [
                        "0xddf252ad1be2c89b69c2b068fc378daa952ba7f163c4a11628f55a4df523b3ef",
                        "0x000000000000000000000000e870d00176b2c71afd4c43cea550228e22be4abd",
                        "0x0000000000000000000000002a06add4629b1a494a5bb667cf8250c3ae1224b8"
                    ]
                },
                "nodeType": 1
            },
            "15": {
                "event": {
                    "contract": "0xe870d00176b2c71afd4c43cea550228e22be4abd",
                    "decodedLog": {
                        "name": "Conversion",
                        "params": [
                            {
                                "name": "_fromToken",
                                "type": "address",
                                "value": "0xeeeeeeeeeeeeeeeeeeeeeeeeeeeeeeeeeeeeeeee"
                            },
                            {
                                "name": "_toToken",
                                "type": "address",
                                "value": "0x1f573d6fb3f13d689ff844b4ce37794d79a7ff1c"
                            },
                            {
                                "name": "_trader",
                                "type": "address",
                                "value": "0x0ce34f2d35b9553499a75bb5100f72326201747a"
                            },
                            {
                                "name": "_amount",
                                "type": "uint256",
                                "value": "3,000,000,000,000,000,000"
                            },
                            {
                                "name": "_return",
                                "type": "uint256",
                                "value": "1,124,524,555,008,701,765,375"
                            },
                            {
                                "name": "_conversionFee",
                                "type": "int256",
                                "value": "1,125,650,205,213,915,681"
                            }
                        ],
                        "signature": "Conversion(address,address,address,uint256,uint256,int256)"
                    },
                    "id": 15,
                    "logData": "0x00000000000000000000000000000000000000000000000029a2241af62c000000000000000000000000000000000000000000000000003cf5e9c4cb41e216ff0000000000000000000000000000000000000000000000000f9f1ce5cf1efa21",
                    "logDecoded": true,
                    "operation": "EVENT",
                    "revert": false,
                    "status": true,
                    "topics": [
                        "0x276856b36cbc45526a0ba64f44611557a2a8b68662c5388e9fe6d72e86e1c8cb",
                        "0x000000000000000000000000eeeeeeeeeeeeeeeeeeeeeeeeeeeeeeeeeeeeeeee",
                        "0x0000000000000000000000001f573d6fb3f13d689ff844b4ce37794d79a7ff1c",
                        "0x0000000000000000000000000ce34f2d35b9553499a75bb5100f72326201747a"
                    ]
                },
                "nodeType": 1
            },
            "16": {
                "invocation": {
                    "address": "0xb1cd6e4153b2a390cf00a6556b0fc1458c4a5533",
                    "callData": "0x",
                    "decodedMethod": {
                        "callParams": [],
                        "constructorArguments": "",
                        "name": "totalSupply",
                        "returnParams": [
                            {
                                "name": "",
                                "type": "uint256",
                                "value": "10,746,907,541,616,909,191,368,807"
                            }
                        ],
                        "signature": "totalSupply()"
                    },
                    "errorInfo": "",
                    "fromAddress": "0xe870d00176b2c71afd4c43cea550228e22be4abd",
                    "gasUsed": 1050,
                    "id": 16,
                    "methodDecoded": true,
                    "operation": "CALL",
                    "output": "0x00000000000000000000000000000000000000000008e3bf0673e81aac3e5067",
                    "revert": false,
                    "revertMessage": "",
                    "selector": "0x18160ddd",
                    "status": true,
                    "value": "0"
                },
                "nodeType": 0
            },
            "17": {
                "event": {
                    "contract": "0xe870d00176b2c71afd4c43cea550228e22be4abd",
                    "decodedLog": {
                        "name": "TokenRateUpdate",
                        "params": [
                            {
                                "name": "_token1",
                                "type": "address",
                                "value": "0xeeeeeeeeeeeeeeeeeeeeeeeeeeeeeeeeeeeeeeee"
                            },
                            {
                                "name": "_token2",
                                "type": "address",
                                "value": "0x1f573d6fb3f13d689ff844b4ce37794d79a7ff1c"
                            },
                            {
                                "name": "_rateN",
                                "type": "uint256",
                                "value": "2,500,982,537,230,075,069,971,996,000,000"
                            },
                            {
                                "name": "_rateD",
                                "type": "uint256",
                                "value": "6,666,932,910,207,729,024,058,500,000"
                            }
                        ],
                        "signature": "TokenRateUpdate(address,address,uint256,uint256)"
                    },
                    "id": 17,
                    "logData": "0x000000000000000000000000000000000000001f911c4462a866c7877d96bf000000000000000000000000000000000000000000158ac1f540cc3b102e83a3a0",
                    "logDecoded": true,
                    "operation": "EVENT",
                    "revert": false,
                    "status": true,
                    "topics": [
                        "0x77f29993cf2c084e726f7e802da0719d6a0ade3e204badc7a3ffd57ecb768c24",
                        "0x000000000000000000000000eeeeeeeeeeeeeeeeeeeeeeeeeeeeeeeeeeeeeeee",
                        "0x0000000000000000000000001f573d6fb3f13d689ff844b4ce37794d79a7ff1c"
                    ]
                },
                "nodeType": 1
            },
            "18": {
                "event": {
                    "contract": "0xe870d00176b2c71afd4c43cea550228e22be4abd",
                    "decodedLog": {
                        "name": "TokenRateUpdate",
                        "params": [
                            {
                                "name": "_token1",
                                "type": "address",
                                "value": "0xb1cd6e4153b2a390cf00a6556b0fc1458c4a5533"
                            },
                            {
                                "name": "_token2",
                                "type": "address",
                                "value": "0xeeeeeeeeeeeeeeeeeeeeeeeeeeeeeeeeeeeeeeee"
                            },
                            {
                                "name": "_rateN",
                                "type": "uint256",
                                "value": "13,333,865,820,415,458,048,117,000,000"
                            },
                            {
                                "name": "_rateD",
                                "type": "uint256",
                                "value": "5,373,453,770,808,454,595,684,403,500,000"
                            }
                        ],
                        "signature": "TokenRateUpdate(address,address,uint256,uint256)"
                    },
                    "id": 18,
                    "logData": "0x00000000000000000000000000000000000000002b1583ea819876205d0747400000000000000000000000000000000000000043d290c81b0c307f5ceb2bd3e0",
                    "logDecoded": true,
                    "operation": "EVENT",
                    "revert": false,
                    "status": true,
                    "topics": [
                        "0x77f29993cf2c084e726f7e802da0719d6a0ade3e204badc7a3ffd57ecb768c24",
                        "0x000000000000000000000000b1cd6e4153b2a390cf00a6556b0fc1458c4a5533",
                        "0x000000000000000000000000eeeeeeeeeeeeeeeeeeeeeeeeeeeeeeeeeeeeeeee"
                    ]
                },
                "nodeType": 1
            },
            "19": {
                "event": {
                    "contract": "0xe870d00176b2c71afd4c43cea550228e22be4abd",
                    "decodedLog": {
                        "name": "TokenRateUpdate",
                        "params": [
                            {
                                "name": "_token1",
                                "type": "address",
                                "value": "0xb1cd6e4153b2a390cf00a6556b0fc1458c4a5533"
                            },
                            {
                                "name": "_token2",
                                "type": "address",
                                "value": "0x1f573d6fb3f13d689ff844b4ce37794d79a7ff1c"
                            },
                            {
                                "name": "_rateN",
                                "type": "uint256",
                                "value": "5,001,965,074,460,150,139,943,992,000,000"
                            },
                            {
                                "name": "_rateD",
                                "type": "uint256",
                                "value": "5,373,453,770,808,454,595,684,403,500,000"
                            }
                        ],
                        "signature": "TokenRateUpdate(address,address,uint256,uint256)"
                    },
                    "id": 19,
                    "logData": "0x000000000000000000000000000000000000003f223888c550cd8f0efb2d7e000000000000000000000000000000000000000043d290c81b0c307f5ceb2bd3e0",
                    "logDecoded": true,
                    "operation": "EVENT",
                    "revert": false,
                    "status": true,
                    "topics": [
                        "0x77f29993cf2c084e726f7e802da0719d6a0ade3e204badc7a3ffd57ecb768c24",
                        "0x000000000000000000000000b1cd6e4153b2a390cf00a6556b0fc1458c4a5533",
                        "0x0000000000000000000000001f573d6fb3f13d689ff844b4ce37794d79a7ff1c"
                    ]
                },
                "nodeType": 1
            },
            "2": {
                "invocation": {
                    "address": "0xe870d00176b2c71afd4c43cea550228e22be4abd",
                    "callData": "0x",
                    "decodedMethod": {
                        "callParams": [],
                        "constructorArguments": "",
                        "name": "isV28OrHigher",
                        "returnParams": [
                            {
                                "name": "",
                                "type": "bool",
                                "value": true
                            }
                        ],
                        "signature": "isV28OrHigher()"
                    },
                    "errorInfo": "",
                    "fromAddress": "0x2f9ec37d6ccfff1cab21733bdadede11c823ccb0",
                    "gasUsed": 1155,
                    "id": 2,
                    "methodDecoded": true,
                    "operation": "STATICCALL",
                    "output": "0x0000000000000000000000000000000000000000000000000000000000000001",
                    "revert": false,
                    "revertMessage": "",
                    "selector": "0xd260529c",
                    "status": true,
                    "value": "0"
                },
                "nodeType": 0
            },
            "20": {
                "event": {
                    "contract": "0xe870d00176b2c71afd4c43cea550228e22be4abd",
                    "decodedLog": {
                        "name": "PriceDataUpdate",
                        "params": [
                            {
                                "name": "_connectorToken",
                                "type": "address",
                                "value": "0xeeeeeeeeeeeeeeeeeeeeeeeeeeeeeeeeeeeeeeee"
                            },
                            {
                                "name": "_tokenSupply",
                                "type": "uint256",
                                "value": "10,746,907,541,616,909,191,368,807"
                            },
                            {
                                "name": "_connectorBalance",
                                "type": "uint256",
                                "value": "13,333,865,820,415,458,048,117"
                            },
                            {
                                "name": "_connectorWeight",
                                "type": "uint32",
                                "value": "500,000"
                            }
                        ],
                        "signature": "PriceDataUpdate(address,uint256,uint256,uint32)"
                    },
                    "id": 20,
                    "logData": "0x00000000000000000000000000000000000000000008e3bf0673e81aac3e50670000000000000000000000000000000000000000000002d2d48f7dd1a9dc7875000000000000000000000000000000000000000000000000000000000007a120",
                    "logDecoded": true,
                    "operation": "EVENT",
                    "revert": false,
                    "status": true,
                    "topics": [
                        "0x8a6a7f53b3c8fa1dc4b83e3f1be668c1b251ff8d44cdcb83eb3acec3fec6a788",
                        "0x000000000000000000000000eeeeeeeeeeeeeeeeeeeeeeeeeeeeeeeeeeeeeeee"
                    ]
                },
                "nodeType": 1
            },
            "21": {
                "event": {
                    "contract": "0xe870d00176b2c71afd4c43cea550228e22be4abd",
                    "decodedLog": {
                        "name": "PriceDataUpdate",
                        "params": [
                            {
                                "name": "_connectorToken",
                                "type": "address",
                                "value": "0x1f573d6fb3f13d689ff844b4ce37794d79a7ff1c"
                            },
                            {
                                "name": "_tokenSupply",
                                "type": "uint256",
                                "value": "10,746,907,541,616,909,191,368,807"
                            },
                            {
                                "name": "_connectorBalance",
                                "type": "uint256",
                                "value": "5,001,965,074,460,150,139,943,992"
                            },
                            {
                                "name": "_connectorWeight",
                                "type": "uint32",
                                "value": "500,000"
                            }
                        ],
                        "signature": "PriceDataUpdate(address,uint256,uint256,uint32)"
                    },
                    "id": 21,
                    "logData": "0x00000000000000000000000000000000000000000008e3bf0673e81aac3e506700000000000000000000000000000000000000000004233511eceabcae977c38000000000000000000000000000000000000000000000000000000000007a120",
                    "logDecoded": true,
                    "operation": "EVENT",
                    "revert": false,
                    "status": true,
                    "topics": [
                        "0x8a6a7f53b3c8fa1dc4b83e3f1be668c1b251ff8d44cdcb83eb3acec3fec6a788",
                        "0x0000000000000000000000001f573d6fb3f13d689ff844b4ce37794d79a7ff1c"
                    ]
                },
                "nodeType": 1
            },
            "22": {
                "event": {
                    "contract": "0x2f9ec37d6ccfff1cab21733bdadede11c823ccb0",
                    "decodedLog": {
                        "name": "Conversion",
                        "params": [
                            {
                                "name": "_smartToken",
                                "type": "address",
                                "value": "0xb1cd6e4153b2a390cf00a6556b0fc1458c4a5533"
                            },
                            {
                                "name": "_fromToken",
                                "type": "address",
                                "value": "0xeeeeeeeeeeeeeeeeeeeeeeeeeeeeeeeeeeeeeeee"
                            },
                            {
                                "name": "_toToken",
                                "type": "address",
                                "value": "0x1f573d6fb3f13d689ff844b4ce37794d79a7ff1c"
                            },
                            {
                                "name": "_fromAmount",
                                "type": "uint256",
                                "value": "3,000,000,000,000,000,000"
                            },
                            {
                                "name": "_toAmount",
                                "type": "uint256",
                                "value": "1,124,524,555,008,701,765,375"
                            },
                            {
                                "name": "_trader",
                                "type": "address",
                                "value": "0x0ce34f2d35b9553499a75bb5100f72326201747a"
                            }
                        ],
                        "signature": "Conversion(address,address,address,uint256,uint256,address)"
                    },
                    "id": 22,
                    "logData": "0x00000000000000000000000000000000000000000000000029a2241af62c000000000000000000000000000000000000000000000000003cf5e9c4cb41e216ff0000000000000000000000000ce34f2d35b9553499a75bb5100f72326201747a",
                    "logDecoded": true,
                    "operation": "EVENT",
                    "revert": false,
                    "status": true,
                    "topics": [
                        "0x7154b38b5dd31bb3122436a96d4e09aba5b323ae1fd580025fab55074334c095",
                        "0x000000000000000000000000b1cd6e4153b2a390cf00a6556b0fc1458c4a5533",
                        "0x000000000000000000000000eeeeeeeeeeeeeeeeeeeeeeeeeeeeeeeeeeeeeeee",
                        "0x0000000000000000000000001f573d6fb3f13d689ff844b4ce37794d79a7ff1c"
                    ]
                },
                "nodeType": 1
            },
            "23": {
                "invocation": {
                    "address": "0x2a06add4629b1a494a5bb667cf8250c3ae1224b8",
                    "callData": "0x0000000000000000000000001f573d6fb3f13d689ff844b4ce37794d79a7ff1c000000000000000000000000d26114cd6ee289accf82350c8d8487fedb8a0c0700000000000000000000000000000000000000000000003cf5e9c4cb41e216ff0000000000000000000000000ce34f2d35b9553499a75bb5100f72326201747a0000000000000000000000000ce34f2d35b9553499a75bb5100f72326201747a",
                    "decodedMethod": {
                        "callParams": [
                            {
                                "name": "_sourceToken",
                                "type": "address",
                                "value": "0x1f573d6fb3f13d689ff844b4ce37794d79a7ff1c"
                            },
                            {
                                "name": "_targetToken",
                                "type": "address",
                                "value": "0xd26114cd6ee289accf82350c8d8487fedb8a0c07"
                            },
                            {
                                "name": "_amount",
                                "type": "uint256",
                                "value": "1,124,524,555,008,701,765,375"
                            },
                            {
                                "name": "_trader",
                                "type": "address",
                                "value": "0x0ce34f2d35b9553499a75bb5100f72326201747a"
                            },
                            {
                                "name": "_beneficiary",
                                "type": "address",
                                "value": "0x0ce34f2d35b9553499a75bb5100f72326201747a"
                            }
                        ],
                        "constructorArguments": "",
                        "name": "convert",
                        "returnParams": [
                            {
                                "name": "",
                                "type": "uint256",
                                "value": "329,976,641,344,030,717,472"
                            }
                        ],
                        "signature": "convert(address,address,uint256,address,address)"
                    },
                    "errorInfo": "",
                    "fromAddress": "0x2f9ec37d6ccfff1cab21733bdadede11c823ccb0",
                    "gasUsed": 101274,
                    "id": 23,
                    "methodDecoded": true,
                    "operation": "CALL",
                    "output": "0x000000000000000000000000000000000000000000000011e3588702df6d3620",
                    "revert": false,
                    "revertMessage": "",
                    "selector": "0xe8dc12ff",
                    "status": true,
                    "value": "0"
                },
                "nodeType": 0
            },
            "24": {
                "invocation": {
                    "address": "0x52ae12abe5d8bd778bd5397f99ca900624cfadd4",
                    "callData": "0x42616e636f724e6574776f726b00000000000000000000000000000000000000",
                    "decodedMethod": {
                        "callParams": [
                            {
                                "name": "_contractName",
                                "type": "bytes32",
                                "value": "0x42616e636f724e6574776f726b00000000000000000000000000000000000000"
                            }
                        ],
                        "constructorArguments": "",
                        "name": "addressOf",
                        "returnParams": [
                            {
                                "name": "",
                                "type": "address",
                                "value": "0x2f9ec37d6ccfff1cab21733bdadede11c823ccb0"
                            }
                        ],
                        "signature": "addressOf(bytes32)"
                    },
                    "errorInfo": "",
                    "fromAddress": "0x2a06add4629b1a494a5bb667cf8250c3ae1224b8",
                    "gasUsed": 1561,
                    "id": 24,
                    "methodDecoded": true,
                    "operation": "CALL",
                    "output": "0x0000000000000000000000002f9ec37d6ccfff1cab21733bdadede11c823ccb0",
                    "revert": false,
                    "revertMessage": "",
                    "selector": "0xbb34534c",
                    "status": true,
                    "value": "0"
                },
                "nodeType": 0
            },
            "25": {
                "invocation": {
                    "address": "0x99ebd396ce7aa095412a4cd1a0c959d6fd67b340",
                    "callData": "0x",
                    "decodedMethod": {
                        "callParams": [],
                        "constructorArguments": "",
                        "name": "owner",
                        "returnParams": [
                            {
                                "name": "",
                                "type": "address",
                                "value": "0x2a06add4629b1a494a5bb667cf8250c3ae1224b8"
                            }
                        ],
                        "signature": "owner()"
                    },
                    "errorInfo": "",
                    "fromAddress": "0x2a06add4629b1a494a5bb667cf8250c3ae1224b8",
                    "gasUsed": 1387,
                    "id": 25,
                    "methodDecoded": true,
                    "operation": "CALL",
                    "output": "0x0000000000000000000000002a06add4629b1a494a5bb667cf8250c3ae1224b8",
                    "revert": false,
                    "revertMessage": "",
                    "selector": "0x8da5cb5b",
                    "status": true,
                    "value": "0"
                },
                "nodeType": 0
            },
            "26": {
                "invocation": {
                    "address": "0x52ae12abe5d8bd778bd5397f99ca900624cfadd4",
                    "callData": "0x42616e636f72466f726d756c6100000000000000000000000000000000000000",
                    "decodedMethod": {
                        "callParams": [
                            {
                                "name": "_contractName",
                                "type": "bytes32",
                                "value": "0x42616e636f72466f726d756c6100000000000000000000000000000000000000"
                            }
                        ],
                        "constructorArguments": "",
                        "name": "addressOf",
                        "returnParams": [
                            {
                                "name": "",
                                "type": "address",
                                "value": "0xa049894d5dcad406b7c827d6dc6a0b58ca4ae73a"
                            }
                        ],
                        "signature": "addressOf(bytes32)"
                    },
                    "errorInfo": "",
                    "fromAddress": "0x2a06add4629b1a494a5bb667cf8250c3ae1224b8",
                    "gasUsed": 1561,
                    "id": 26,
                    "methodDecoded": true,
                    "operation": "CALL",
                    "output": "0x000000000000000000000000a049894d5dcad406b7c827d6dc6a0b58ca4ae73a",
                    "revert": false,
                    "revertMessage": "",
                    "selector": "0xbb34534c",
                    "status": true,
                    "value": "0"
                },
                "nodeType": 0
            },
            "27": {
                "invocation": {
                    "address": "0xa049894d5dcad406b7c827d6dc6a0b58ca4ae73a",
                    "callData": "0x000000000000000000000000000000000000000000001a4af7c1a0898a719f1d000000000000000000000000000000000000000000000000000000000007a1200000000000000000000000000000000000000000000007cafec877856d7bdf09000000000000000000000000000000000000000000000000000000000007a12000000000000000000000000000000000000000000000003cf5e9c4cb41e216ff",
                    "decodedMethod": {
                        "callParams": [
                            {
                                "name": "_sourceReserveBalance",
                                "type": "uint256",
                                "value": "124,164,440,342,975,749,398,301"
                            },
                            {
                                "name": "_sourceReserveWeight",
                                "type": "uint32",
                                "value": "500,000"
                            },
                            {
                                "name": "_targetReserveBalance",
                                "type": "uint256",
                                "value": "36,801,166,738,272,772,939,529"
                            },
                            {
                                "name": "_targetReserveWeight",
                                "type": "uint32",
                                "value": "500,000"
                            },
                            {
                                "name": "_amount",
                                "type": "uint256",
                                "value": "1,124,524,555,008,701,765,375"
                            }
                        ],
                        "constructorArguments": "",
                        "name": "crossReserveTargetAmount",
                        "returnParams": [
                            {
                                "name": "",
                                "type": "uint256",
                                "value": "330,306,948,292,323,040,512"
                            }
                        ],
                        "signature": "crossReserveTargetAmount(uint256,uint32,uint256,uint32,uint256)"
                    },
                    "errorInfo": "",
                    "fromAddress": "0x2a06add4629b1a494a5bb667cf8250c3ae1224b8",
                    "gasUsed": 1054,
                    "id": 27,
                    "methodDecoded": true,
                    "operation": "CALL",
                    "output": "0x000000000000000000000000000000000000000000000011e7ee036e3f3bdd00",
                    "revert": false,
                    "revertMessage": "",
                    "selector": "0x94491fab",
                    "status": true,
                    "value": "0"
                },
                "nodeType": 0
            },
            "28": {
                "invocation": {
                    "address": "0x1f573d6fb3f13d689ff844b4ce37794d79a7ff1c",
                    "callData": "0x0000000000000000000000002a06add4629b1a494a5bb667cf8250c3ae1224b8",
                    "decodedMethod": {
                        "callParams": [
                            {
                                "name": "",
                                "type": "address",
                                "value": "0x2a06add4629b1a494a5bb667cf8250c3ae1224b8"
                            }
                        ],
                        "constructorArguments": "",
                        "name": "balanceOf",
                        "returnParams": [
                            {
                                "decimalAvailable": true,
                                "name": "",
                                "type": "uint256",
                                "value": "125,288,964,897,984,451,163,676"
                            }
                        ],
                        "signature": "balanceOf(address)"
                    },
                    "errorInfo": "",
                    "fromAddress": "0x2a06add4629b1a494a5bb667cf8250c3ae1224b8",
                    "gasUsed": 1318,
                    "id": 28,
                    "methodDecoded": true,
                    "operation": "CALL",
                    "output": "0x000000000000000000000000000000000000000000001a87edab6554cc53b61c",
                    "revert": false,
                    "revertMessage": "",
                    "selector": "0x70a08231",
                    "status": true,
                    "value": "0"
                },
                "nodeType": 0
            },
            "29": {
                "invocation": {
                    "address": "0x1f573d6fb3f13d689ff844b4ce37794d79a7ff1c",
                    "callData": "0x0000000000000000000000002a06add4629b1a494a5bb667cf8250c3ae1224b8",
                    "decodedMethod": {
                        "callParams": [
                            {
                                "name": "",
                                "type": "address",
                                "value": "0x2a06add4629b1a494a5bb667cf8250c3ae1224b8"
                            }
                        ],
                        "constructorArguments": "",
                        "name": "balanceOf",
                        "returnParams": [
                            {
                                "decimalAvailable": true,
                                "name": "",
                                "type": "uint256",
                                "value": "125,288,964,897,984,451,163,676"
                            }
                        ],
                        "signature": "balanceOf(address)"
                    },
                    "errorInfo": "",
                    "fromAddress": "0x2a06add4629b1a494a5bb667cf8250c3ae1224b8",
                    "gasUsed": 1318,
                    "id": 29,
                    "methodDecoded": true,
                    "operation": "CALL",
                    "output": "0x000000000000000000000000000000000000000000001a87edab6554cc53b61c",
                    "revert": false,
                    "revertMessage": "",
                    "selector": "0x70a08231",
                    "status": true,
                    "value": "0"
                },
                "nodeType": 0
            },
            "3": {
                "invocation": {
                    "address": "0x52ae12abe5d8bd778bd5397f99ca900624cfadd4",
                    "callData": "0x424e54546f6b656e000000000000000000000000000000000000000000000000",
                    "decodedMethod": {
                        "callParams": [
                            {
                                "name": "_contractName",
                                "type": "bytes32",
                                "value": "0x424e54546f6b656e000000000000000000000000000000000000000000000000"
                            }
                        ],
                        "constructorArguments": "",
                        "name": "addressOf",
                        "returnParams": [
                            {
                                "name": "",
                                "type": "address",
                                "value": "0x1f573d6fb3f13d689ff844b4ce37794d79a7ff1c"
                            }
                        ],
                        "signature": "addressOf(bytes32)"
                    },
                    "errorInfo": "",
                    "fromAddress": "0x2f9ec37d6ccfff1cab21733bdadede11c823ccb0",
                    "gasUsed": 1561,
                    "id": 3,
                    "methodDecoded": true,
                    "operation": "CALL",
                    "output": "0x0000000000000000000000001f573d6fb3f13d689ff844b4ce37794d79a7ff1c",
                    "revert": false,
                    "revertMessage": "",
                    "selector": "0xbb34534c",
                    "status": true,
                    "value": "0"
                },
                "nodeType": 0
            },
            "30": {
                "invocation": {
                    "address": "0xd26114cd6ee289accf82350c8d8487fedb8a0c07",
                    "callData": "0x0000000000000000000000000ce34f2d35b9553499a75bb5100f72326201747a000000000000000000000000000000000000000000000011e3588702df6d3620",
                    "decodedMethod": {
                        "callParams": [
                            {
                                "name": "_to",
                                "type": "address",
                                "value": "0x0ce34f2d35b9553499a75bb5100f72326201747a"
                            },
                            {
                                "decimalAvailable": true,
                                "name": "_value",
                                "type": "uint256",
                                "value": "329,976,641,344,030,717,472"
                            }
                        ],
                        "constructorArguments": "",
                        "name": "transfer",
                        "returnParams": [],
                        "signature": "transfer(address,uint256)"
                    },
                    "errorInfo": "",
                    "fromAddress": "0x2a06add4629b1a494a5bb667cf8250c3ae1224b8",
                    "gasUsed": 15702,
                    "id": 30,
                    "methodDecoded": true,
                    "operation": "CALL",
                    "output": "",
                    "revert": false,
                    "revertMessage": "",
                    "selector": "0xa9059cbb",
                    "status": true,
                    "value": "0"
                },
                "nodeType": 0
            },
            "31": {
                "event": {
                    "contract": "0xd26114cd6ee289accf82350c8d8487fedb8a0c07",
                    "decodedLog": {
                        "name": "Transfer",
                        "params": [
                            {
                                "name": "from",
                                "type": "address",
                                "value": "0x2a06add4629b1a494a5bb667cf8250c3ae1224b8"
                            },
                            {
                                "name": "to",
                                "type": "address",
                                "value": "0x0ce34f2d35b9553499a75bb5100f72326201747a"
                            },
                            {
                                "decimalAvailable": true,
                                "name": "value",
                                "type": "uint256",
                                "value": "329,976,641,344,030,717,472"
                            }
                        ],
                        "signature": "Transfer(address,address,uint256)"
                    },
                    "id": 31,
                    "logData": "0x000000000000000000000000000000000000000000000011e3588702df6d3620",
                    "logDecoded": true,
                    "operation": "EVENT",
                    "revert": false,
                    "status": true,
                    "topics": [
                        "0xddf252ad1be2c89b69c2b068fc378daa952ba7f163c4a11628f55a4df523b3ef",
                        "0x0000000000000000000000002a06add4629b1a494a5bb667cf8250c3ae1224b8",
                        "0x0000000000000000000000000ce34f2d35b9553499a75bb5100f72326201747a"
                    ]
                },
                "nodeType": 1
            },
            "32": {
                "event": {
                    "contract": "0x2a06add4629b1a494a5bb667cf8250c3ae1224b8",
                    "decodedLog": {
                        "name": "Conversion",
                        "params": [
                            {
                                "name": "_fromToken",
                                "type": "address",
                                "value": "0x1f573d6fb3f13d689ff844b4ce37794d79a7ff1c"
                            },
                            {
                                "name": "_toToken",
                                "type": "address",
                                "value": "0xd26114cd6ee289accf82350c8d8487fedb8a0c07"
                            },
                            {
                                "name": "_trader",
                                "type": "address",
                                "value": "0x0ce34f2d35b9553499a75bb5100f72326201747a"
                            },
                            {
                                "name": "_amount",
                                "type": "uint256",
                                "value": "1,124,524,555,008,701,765,375"
                            },
                            {
                                "name": "_return",
                                "type": "uint256",
                                "value": "329,976,641,344,030,717,472"
                            },
                            {
                                "name": "_conversionFee",
                                "type": "int256",
                                "value": "330,306,948,292,323,040"
                            }
                        ],
                        "signature": "Conversion(address,address,address,uint256,uint256,int256)"
                    },
                    "id": 32,
                    "logData": "0x00000000000000000000000000000000000000000000003cf5e9c4cb41e216ff000000000000000000000000000000000000000000000011e3588702df6d362000000000000000000000000000000000000000000000000004957c6b5fcea6e0",
                    "logDecoded": true,
                    "operation": "EVENT",
                    "revert": false,
                    "status": true,
                    "topics": [
                        "0x276856b36cbc45526a0ba64f44611557a2a8b68662c5388e9fe6d72e86e1c8cb",
                        "0x0000000000000000000000001f573d6fb3f13d689ff844b4ce37794d79a7ff1c",
                        "0x000000000000000000000000d26114cd6ee289accf82350c8d8487fedb8a0c07",
                        "0x0000000000000000000000000ce34f2d35b9553499a75bb5100f72326201747a"
                    ]
                },
                "nodeType": 1
            },
            "33": {
                "invocation": {
                    "address": "0x99ebd396ce7aa095412a4cd1a0c959d6fd67b340",
                    "callData": "0x",
                    "decodedMethod": {
                        "callParams": [],
                        "constructorArguments": "",
                        "name": "totalSupply",
                        "returnParams": [
                            {
                                "name": "",
                                "type": "uint256",
                                "value": "209,419,446,902,452,517,284,220"
                            }
                        ],
                        "signature": "totalSupply()"
                    },
                    "errorInfo": "",
                    "fromAddress": "0x2a06add4629b1a494a5bb667cf8250c3ae1224b8",
                    "gasUsed": 1036,
                    "id": 33,
                    "methodDecoded": true,
                    "operation": "CALL",
                    "output": "0x000000000000000000000000000000000000000000002c58a6a59dff64d7297c",
                    "revert": false,
                    "revertMessage": "",
                    "selector": "0x18160ddd",
                    "status": true,
                    "value": "0"
                },
                "nodeType": 0
            },
            "34": {
                "event": {
                    "contract": "0x2a06add4629b1a494a5bb667cf8250c3ae1224b8",
                    "decodedLog": {
                        "name": "TokenRateUpdate",
                        "params": [
                            {
                                "name": "_token1",
                                "type": "address",
                                "value": "0x1f573d6fb3f13d689ff844b4ce37794d79a7ff1c"
                            },
                            {
                                "name": "_token2",
                                "type": "address",
                                "value": "0xd26114cd6ee289accf82350c8d8487fedb8a0c07"
                            },
                            {
                                "name": "_rateN",
                                "type": "uint256",
                                "value": "18,235,595,048,464,371,111,028,500,000"
                            },
                            {
                                "name": "_rateD",
                                "type": "uint256",
                                "value": "62,644,482,448,992,225,581,838,000,000"
                            }
                        ],
                        "signature": "TokenRateUpdate(address,address,uint256,uint256)"
                    },
                    "id": 34,
                    "logData": "0x00000000000000000000000000000000000000003aec217467d20e0f986ea6200000000000000000000000000000000000000000ca6a4d26457895642ac25f80",
                    "logDecoded": true,
                    "operation": "EVENT",
                    "revert": false,
                    "status": true,
                    "topics": [
                        "0x77f29993cf2c084e726f7e802da0719d6a0ade3e204badc7a3ffd57ecb768c24",
                        "0x0000000000000000000000001f573d6fb3f13d689ff844b4ce37794d79a7ff1c",
                        "0x000000000000000000000000d26114cd6ee289accf82350c8d8487fedb8a0c07"
                    ]
                },
                "nodeType": 1
            },
            "35": {
                "event": {
                    "contract": "0x2a06add4629b1a494a5bb667cf8250c3ae1224b8",
                    "decodedLog": {
                        "name": "TokenRateUpdate",
                        "params": [
                            {
                                "name": "_token1",
                                "type": "address",
                                "value": "0x99ebd396ce7aa095412a4cd1a0c959d6fd67b340"
                            },
                            {
                                "name": "_token2",
                                "type": "address",
                                "value": "0x1f573d6fb3f13d689ff844b4ce37794d79a7ff1c"
                            },
                            {
                                "name": "_rateN",
                                "type": "uint256",
                                "value": "125,288,964,897,984,451,163,676,000,000"
                            },
                            {
                                "name": "_rateD",
                                "type": "uint256",
                                "value": "104,709,723,451,226,258,642,110,000,000"
                            }
                        ],
                        "signature": "TokenRateUpdate(address,address,uint256,uint256)"
                    },
                    "id": 35,
                    "logData": "0x000000000000000000000000000000000000000194d49a4c8af12ac85584bf0000000000000000000000000000000000000000015255da6a4f0d203a0e602b80",
                    "logDecoded": true,
                    "operation": "EVENT",
                    "revert": false,
                    "status": true,
                    "topics": [
                        "0x77f29993cf2c084e726f7e802da0719d6a0ade3e204badc7a3ffd57ecb768c24",
                        "0x00000000000000000000000099ebd396ce7aa095412a4cd1a0c959d6fd67b340",
                        "0x0000000000000000000000001f573d6fb3f13d689ff844b4ce37794d79a7ff1c"
                    ]
                },
                "nodeType": 1
            },
            "36": {
                "event": {
                    "contract": "0x2a06add4629b1a494a5bb667cf8250c3ae1224b8",
                    "decodedLog": {
                        "name": "TokenRateUpdate",
                        "params": [
                            {
                                "name": "_token1",
                                "type": "address",
                                "value": "0x99ebd396ce7aa095412a4cd1a0c959d6fd67b340"
                            },
                            {
                                "name": "_token2",
                                "type": "address",
                                "value": "0xd26114cd6ee289accf82350c8d8487fedb8a0c07"
                            },
                            {
                                "name": "_rateN",
                                "type": "uint256",
                                "value": "36,471,190,096,928,742,222,057,000,000"
                            },
                            {
                                "name": "_rateD",
                                "type": "uint256",
                                "value": "104,709,723,451,226,258,642,110,000,000"
                            }
                        ],
                        "signature": "TokenRateUpdate(address,address,uint256,uint256)"
                    },
                    "id": 36,
                    "logData": "0x000000000000000000000000000000000000000075d842e8cfa41c1f30dd4c4000000000000000000000000000000000000000015255da6a4f0d203a0e602b80",
                    "logDecoded": true,
                    "operation": "EVENT",
                    "revert": false,
                    "status": true,
                    "topics": [
                        "0x77f29993cf2c084e726f7e802da0719d6a0ade3e204badc7a3ffd57ecb768c24",
                        "0x00000000000000000000000099ebd396ce7aa095412a4cd1a0c959d6fd67b340",
                        "0x000000000000000000000000d26114cd6ee289accf82350c8d8487fedb8a0c07"
                    ]
                },
                "nodeType": 1
            },
            "37": {
                "event": {
                    "contract": "0x2a06add4629b1a494a5bb667cf8250c3ae1224b8",
                    "decodedLog": {
                        "name": "PriceDataUpdate",
                        "params": [
                            {
                                "name": "_connectorToken",
                                "type": "address",
                                "value": "0x1f573d6fb3f13d689ff844b4ce37794d79a7ff1c"
                            },
                            {
                                "name": "_tokenSupply",
                                "type": "uint256",
                                "value": "209,419,446,902,452,517,284,220"
                            },
                            {
                                "name": "_connectorBalance",
                                "type": "uint256",
                                "value": "125,288,964,897,984,451,163,676"
                            },
                            {
                                "name": "_connectorWeight",
                                "type": "uint32",
                                "value": "500,000"
                            }
                        ],
                        "signature": "PriceDataUpdate(address,uint256,uint256,uint32)"
                    },
                    "id": 37,
                    "logData": "0x000000000000000000000000000000000000000000002c58a6a59dff64d7297c000000000000000000000000000000000000000000001a87edab6554cc53b61c000000000000000000000000000000000000000000000000000000000007a120",
                    "logDecoded": true,
                    "operation": "EVENT",
                    "revert": false,
                    "status": true,
                    "topics": [
                        "0x8a6a7f53b3c8fa1dc4b83e3f1be668c1b251ff8d44cdcb83eb3acec3fec6a788",
                        "0x0000000000000000000000001f573d6fb3f13d689ff844b4ce37794d79a7ff1c"
                    ]
                },
                "nodeType": 1
            },
            "38": {
                "event": {
                    "contract": "0x2a06add4629b1a494a5bb667cf8250c3ae1224b8",
                    "decodedLog": {
                        "name": "PriceDataUpdate",
                        "params": [
                            {
                                "name": "_connectorToken",
                                "type": "address",
                                "value": "0xd26114cd6ee289accf82350c8d8487fedb8a0c07"
                            },
                            {
                                "name": "_tokenSupply",
                                "type": "uint256",
                                "value": "209,419,446,902,452,517,284,220"
                            },
                            {
                                "name": "_connectorBalance",
                                "type": "uint256",
                                "value": "36,471,190,096,928,742,222,057"
                            },
                            {
                                "name": "_connectorWeight",
                                "type": "uint32",
                                "value": "500,000"
                            }
                        ],
                        "signature": "PriceDataUpdate(address,uint256,uint256,uint32)"
                    },
                    "id": 38,
                    "logData": "0x000000000000000000000000000000000000000000002c58a6a59dff64d7297c0000000000000000000000000000000000000000000007b91b6ff0828e0ea8e9000000000000000000000000000000000000000000000000000000000007a120",
                    "logDecoded": true,
                    "operation": "EVENT",
                    "revert": false,
                    "status": true,
                    "topics": [
                        "0x8a6a7f53b3c8fa1dc4b83e3f1be668c1b251ff8d44cdcb83eb3acec3fec6a788",
                        "0x000000000000000000000000d26114cd6ee289accf82350c8d8487fedb8a0c07"
                    ]
                },
                "nodeType": 1
            },
            "39": {
                "event": {
                    "contract": "0x2f9ec37d6ccfff1cab21733bdadede11c823ccb0",
                    "decodedLog": {
                        "name": "Conversion",
                        "params": [
                            {
                                "name": "_smartToken",
                                "type": "address",
                                "value": "0x99ebd396ce7aa095412a4cd1a0c959d6fd67b340"
                            },
                            {
                                "name": "_fromToken",
                                "type": "address",
                                "value": "0x1f573d6fb3f13d689ff844b4ce37794d79a7ff1c"
                            },
                            {
                                "name": "_toToken",
                                "type": "address",
                                "value": "0xd26114cd6ee289accf82350c8d8487fedb8a0c07"
                            },
                            {
                                "name": "_fromAmount",
                                "type": "uint256",
                                "value": "1,124,524,555,008,701,765,375"
                            },
                            {
                                "name": "_toAmount",
                                "type": "uint256",
                                "value": "329,976,641,344,030,717,472"
                            },
                            {
                                "name": "_trader",
                                "type": "address",
                                "value": "0x0ce34f2d35b9553499a75bb5100f72326201747a"
                            }
                        ],
                        "signature": "Conversion(address,address,address,uint256,uint256,address)"
                    },
                    "id": 39,
                    "logData": "0x00000000000000000000000000000000000000000000003cf5e9c4cb41e216ff000000000000000000000000000000000000000000000011e3588702df6d36200000000000000000000000000ce34f2d35b9553499a75bb5100f72326201747a",
                    "logDecoded": true,
                    "operation": "EVENT",
                    "revert": false,
                    "status": true,
                    "topics": [
                        "0x7154b38b5dd31bb3122436a96d4e09aba5b323ae1fd580025fab55074334c095",
                        "0x00000000000000000000000099ebd396ce7aa095412a4cd1a0c959d6fd67b340",
                        "0x0000000000000000000000001f573d6fb3f13d689ff844b4ce37794d79a7ff1c",
                        "0x000000000000000000000000d26114cd6ee289accf82350c8d8487fedb8a0c07"
                    ]
                },
                "nodeType": 1
            },
            "4": {
                "invocation": {
                    "address": "0xb1cd6e4153b2a390cf00a6556b0fc1458c4a5533",
                    "callData": "0x",
                    "decodedMethod": {
                        "callParams": [],
                        "constructorArguments": "",
                        "name": "owner",
                        "returnParams": [
                            {
                                "name": "",
                                "type": "address",
                                "value": "0xe870d00176b2c71afd4c43cea550228e22be4abd"
                            }
                        ],
                        "signature": "owner()"
                    },
                    "errorInfo": "",
                    "fromAddress": "0x2f9ec37d6ccfff1cab21733bdadede11c823ccb0",
                    "gasUsed": 1379,
                    "id": 4,
                    "methodDecoded": true,
                    "operation": "CALL",
                    "output": "0x000000000000000000000000e870d00176b2c71afd4c43cea550228e22be4abd",
                    "revert": false,
                    "revertMessage": "",
                    "selector": "0x8da5cb5b",
                    "status": true,
                    "value": "0"
                },
                "nodeType": 0
            },
            "5": {
                "invocation": {
                    "address": "0xe870d00176b2c71afd4c43cea550228e22be4abd",
                    "callData": "0x",
                    "decodedMethod": {
                        "callParams": [],
                        "constructorArguments": "",
                        "name": "isV28OrHigher",
                        "returnParams": [
                            {
                                "name": "",
                                "type": "bool",
                                "value": true
                            }
                        ],
                        "signature": "isV28OrHigher()"
                    },
                    "errorInfo": "",
                    "fromAddress": "0x2f9ec37d6ccfff1cab21733bdadede11c823ccb0",
                    "gasUsed": 1155,
                    "id": 5,
                    "methodDecoded": true,
                    "operation": "STATICCALL",
                    "output": "0x0000000000000000000000000000000000000000000000000000000000000001",
                    "revert": false,
                    "revertMessage": "",
                    "selector": "0xd260529c",
                    "status": true,
                    "value": "0"
                },
                "nodeType": 0
            },
            "6": {
                "invocation": {
                    "address": "0x99ebd396ce7aa095412a4cd1a0c959d6fd67b340",
                    "callData": "0x",
                    "decodedMethod": {
                        "callParams": [],
                        "constructorArguments": "",
                        "name": "owner",
                        "returnParams": [
                            {
                                "name": "",
                                "type": "address",
                                "value": "0x2a06add4629b1a494a5bb667cf8250c3ae1224b8"
                            }
                        ],
                        "signature": "owner()"
                    },
                    "errorInfo": "",
                    "fromAddress": "0x2f9ec37d6ccfff1cab21733bdadede11c823ccb0",
                    "gasUsed": 1387,
                    "id": 6,
                    "methodDecoded": true,
                    "operation": "CALL",
                    "output": "0x0000000000000000000000002a06add4629b1a494a5bb667cf8250c3ae1224b8",
                    "revert": false,
                    "revertMessage": "",
                    "selector": "0x8da5cb5b",
                    "status": true,
                    "value": "0"
                },
                "nodeType": 0
            },
            "7": {
                "invocation": {
                    "address": "0x2a06add4629b1a494a5bb667cf8250c3ae1224b8",
                    "callData": "0x",
                    "decodedMethod": {
                        "callParams": [],
                        "constructorArguments": "",
                        "name": "isV28OrHigher",
                        "returnParams": [
                            {
                                "name": "",
                                "type": "bool",
                                "value": true
                            }
                        ],
                        "signature": "isV28OrHigher()"
                    },
                    "errorInfo": "",
                    "fromAddress": "0x2f9ec37d6ccfff1cab21733bdadede11c823ccb0",
                    "gasUsed": 1155,
                    "id": 7,
                    "methodDecoded": true,
                    "operation": "STATICCALL",
                    "output": "0x0000000000000000000000000000000000000000000000000000000000000001",
                    "revert": false,
                    "revertMessage": "",
                    "selector": "0xd260529c",
                    "status": true,
                    "value": "0"
                },
                "nodeType": 0
            },
            "8": {
                "invocation": {
                    "address": "0xe870d00176b2c71afd4c43cea550228e22be4abd",
                    "callData": "0x000000000000000000000000eeeeeeeeeeeeeeeeeeeeeeeeeeeeeeeeeeeeeeee0000000000000000000000001f573d6fb3f13d689ff844b4ce37794d79a7ff1c00000000000000000000000000000000000000000000000029a2241af62c00000000000000000000000000000ce34f2d35b9553499a75bb5100f72326201747a0000000000000000000000002a06add4629b1a494a5bb667cf8250c3ae1224b8",
                    "decodedMethod": {
                        "callParams": [
                            {
                                "name": "_sourceToken",
                                "type": "address",
                                "value": "0xeeeeeeeeeeeeeeeeeeeeeeeeeeeeeeeeeeeeeeee"
                            },
                            {
                                "name": "_targetToken",
                                "type": "address",
                                "value": "0x1f573d6fb3f13d689ff844b4ce37794d79a7ff1c"
                            },
                            {
                                "name": "_amount",
                                "type": "uint256",
                                "value": "3,000,000,000,000,000,000"
                            },
                            {
                                "name": "_trader",
                                "type": "address",
                                "value": "0x0ce34f2d35b9553499a75bb5100f72326201747a"
                            },
                            {
                                "name": "_beneficiary",
                                "type": "address",
                                "value": "0x2a06add4629b1a494a5bb667cf8250c3ae1224b8"
                            }
                        ],
                        "constructorArguments": "",
                        "name": "convert",
                        "returnParams": [
                            {
                                "name": "",
                                "type": "uint256",
                                "value": "1,124,524,555,008,701,765,375"
                            }
                        ],
                        "signature": "convert(address,address,uint256,address,address)"
                    },
                    "errorInfo": "",
                    "fromAddress": "0x2f9ec37d6ccfff1cab21733bdadede11c823ccb0",
                    "gasUsed": 94164,
                    "id": 8,
                    "methodDecoded": true,
                    "operation": "CALL",
                    "output": "0x00000000000000000000000000000000000000000000003cf5e9c4cb41e216ff",
                    "revert": false,
                    "revertMessage": "",
                    "selector": "0xe8dc12ff",
                    "status": true,
                    "value": "3"
                },
                "nodeType": 0
            },
            "9": {
                "invocation": {
                    "address": "0x52ae12abe5d8bd778bd5397f99ca900624cfadd4",
                    "callData": "0x42616e636f724e6574776f726b00000000000000000000000000000000000000",
                    "decodedMethod": {
                        "callParams": [
                            {
                                "name": "_contractName",
                                "type": "bytes32",
                                "value": "0x42616e636f724e6574776f726b00000000000000000000000000000000000000"
                            }
                        ],
                        "constructorArguments": "",
                        "name": "addressOf",
                        "returnParams": [
                            {
                                "name": "",
                                "type": "address",
                                "value": "0x2f9ec37d6ccfff1cab21733bdadede11c823ccb0"
                            }
                        ],
                        "signature": "addressOf(bytes32)"
                    },
                    "errorInfo": "",
                    "fromAddress": "0xe870d00176b2c71afd4c43cea550228e22be4abd",
                    "gasUsed": 1561,
                    "id": 9,
                    "methodDecoded": true,
                    "operation": "CALL",
                    "output": "0x0000000000000000000000002f9ec37d6ccfff1cab21733bdadede11c823ccb0",
                    "revert": false,
                    "revertMessage": "",
                    "selector": "0xbb34534c",
                    "status": true,
                    "value": "0"
                },
                "nodeType": 0
            }
        },
        "gasFlame": [
            {
                "children": [
                    {
                        "children": [
                            {
                                "children": [],
                                "depth": 0,
                                "name": "Initial Gas",
                                "value": 23840
                            },
                            {
                                "children": [
                                    {
                                        "children": [],
                                        "depth": 1,
                                        "name": "owner",
                                        "value": 1379
                                    },
                                    {
                                        "children": [],
                                        "depth": 1,
                                        "name": "isV28OrHigher",
                                        "value": 1155
                                    },
                                    {
                                        "children": [],
                                        "depth": 1,
                                        "name": "addressOf",
                                        "value": 1561
                                    },
                                    {
                                        "children": [],
                                        "depth": 1,
                                        "name": "owner",
                                        "value": 1379
                                    },
                                    {
                                        "children": [],
                                        "depth": 1,
                                        "name": "isV28OrHigher",
                                        "value": 1155
                                    },
                                    {
                                        "children": [],
                                        "depth": 1,
                                        "name": "owner",
                                        "value": 1387
                                    },
                                    {
                                        "children": [],
                                        "depth": 1,
                                        "name": "isV28OrHigher",
                                        "value": 1155
                                    },
                                    {
                                        "children": [
                                            {
                                                "children": [],
                                                "depth": 2,
                                                "name": "addressOf",
                                                "value": 1561
                                            },
                                            {
                                                "children": [],
                                                "depth": 2,
                                                "name": "owner",
                                                "value": 1379
                                            },
                                            {
                                                "children": [],
                                                "depth": 2,
                                                "name": "addressOf",
                                                "value": 1561
                                            },
                                            {
                                                "children": [],
                                                "depth": 2,
                                                "name": "crossReserveTargetAmount",
                                                "value": 1054
                                            },
                                            {
                                                "children": [],
                                                "depth": 2,
                                                "name": "transfer",
                                                "value": 15952
                                            },
                                            {
                                                "children": [],
                                                "depth": 2,
                                                "name": "totalSupply",
                                                "value": 1050
                                            }
                                        ],
                                        "depth": 1,
                                        "name": "convert",
                                        "value": 94164
                                    },
                                    {
                                        "children": [
                                            {
                                                "children": [],
                                                "depth": 2,
                                                "name": "addressOf",
                                                "value": 1561
                                            },
                                            {
                                                "children": [],
                                                "depth": 2,
                                                "name": "owner",
                                                "value": 1387
                                            },
                                            {
                                                "children": [],
                                                "depth": 2,
                                                "name": "addressOf",
                                                "value": 1561
                                            },
                                            {
                                                "children": [],
                                                "depth": 2,
                                                "name": "crossReserveTargetAmount",
                                                "value": 1054
                                            },
                                            {
                                                "children": [],
                                                "depth": 2,
                                                "name": "balanceOf",
                                                "value": 1318
                                            },
                                            {
                                                "children": [],
                                                "depth": 2,
                                                "name": "balanceOf",
                                                "value": 1318
                                            },
                                            {
                                                "children": [],
                                                "depth": 2,
                                                "name": "transfer",
                                                "value": 15702
                                            },
                                            {
                                                "children": [],
                                                "depth": 2,
                                                "name": "totalSupply",
                                                "value": 1036
                                            }
                                        ],
                                        "depth": 1,
                                        "name": "convert",
                                        "value": 101274
                                    }
                                ],
                                "depth": 0,
                                "name": "Executed Gas",
                                "value": 251713
                            }
                        ],
                        "depth": -1,
                        "name": "Actual Gas Used",
                        "value": 262953
                    },
                    {
                        "children": [],
                        "depth": -1,
                        "name": "Refunded Gas",
                        "value": 12600
                    }
                ],
                "depth": -2,
                "name": "Total Gas",
                "value": 275553
            }
        ],
        "isConfirmed": true,
        "mainTrace": [
            {
                "children": [
                    {
                        "children": [
                            {
                                "children": [],
                                "depth": 1,
                                "id": 1,
                                "order": 1
                            },
                            {
                                "children": [],
                                "depth": 1,
                                "id": 2,
                                "order": 2
                            },
                            {
                                "children": [],
                                "depth": 1,
                                "id": 3,
                                "order": 3
                            },
                            {
                                "children": [],
                                "depth": 1,
                                "id": 4,
                                "order": 4
                            },
                            {
                                "children": [],
                                "depth": 1,
                                "id": 5,
                                "order": 5
                            },
                            {
                                "children": [],
                                "depth": 1,
                                "id": 6,
                                "order": 6
                            },
                            {
                                "children": [],
                                "depth": 1,
                                "id": 7,
                                "order": 7
                            },
                            {
                                "children": [
                                    {
                                        "children": [],
                                        "depth": 2,
                                        "id": 9,
                                        "order": 9
                                    },
                                    {
                                        "children": [],
                                        "depth": 2,
                                        "id": 10,
                                        "order": 10
                                    },
                                    {
                                        "children": [],
                                        "depth": 2,
                                        "id": 11,
                                        "order": 11
                                    },
                                    {
                                        "children": [],
                                        "depth": 2,
                                        "id": 12,
                                        "order": 12
                                    },
                                    {
                                        "children": [
                                            {
                                                "children": [],
                                                "depth": 3,
                                                "id": 14,
                                                "order": 14
                                            }
                                        ],
                                        "depth": 2,
                                        "id": 13,
                                        "order": 13
                                    },
                                    {
                                        "children": [],
                                        "depth": 2,
                                        "id": 15,
                                        "order": 15
                                    },
                                    {
                                        "children": [],
                                        "depth": 2,
                                        "id": 16,
                                        "order": 16
                                    },
                                    {
                                        "children": [],
                                        "depth": 2,
                                        "id": 17,
                                        "order": 17
                                    },
                                    {
                                        "children": [],
                                        "depth": 2,
                                        "id": 18,
                                        "order": 18
                                    },
                                    {
                                        "children": [],
                                        "depth": 2,
                                        "id": 19,
                                        "order": 19
                                    },
                                    {
                                        "children": [],
                                        "depth": 2,
                                        "id": 20,
                                        "order": 20
                                    },
                                    {
                                        "children": [],
                                        "depth": 2,
                                        "id": 21,
                                        "order": 21
                                    }
                                ],
                                "depth": 1,
                                "id": 8,
                                "order": 8
                            },
                            {
                                "children": [],
                                "depth": 1,
                                "id": 22,
                                "order": 22
                            },
                            {
                                "children": [
                                    {
                                        "children": [],
                                        "depth": 2,
                                        "id": 24,
                                        "order": 24
                                    },
                                    {
                                        "children": [],
                                        "depth": 2,
                                        "id": 25,
                                        "order": 25
                                    },
                                    {
                                        "children": [],
                                        "depth": 2,
                                        "id": 26,
                                        "order": 26
                                    },
                                    {
                                        "children": [],
                                        "depth": 2,
                                        "id": 27,
                                        "order": 27
                                    },
                                    {
                                        "children": [],
                                        "depth": 2,
                                        "id": 28,
                                        "order": 28
                                    },
                                    {
                                        "children": [],
                                        "depth": 2,
                                        "id": 29,
                                        "order": 29
                                    },
                                    {
                                        "children": [
                                            {
                                                "children": [],
                                                "depth": 3,
                                                "id": 31,
                                                "order": 31
                                            }
                                        ],
                                        "depth": 2,
                                        "id": 30,
                                        "order": 30
                                    },
                                    {
                                        "children": [],
                                        "depth": 2,
                                        "id": 32,
                                        "order": 32
                                    },
                                    {
                                        "children": [],
                                        "depth": 2,
                                        "id": 33,
                                        "order": 33
                                    },
                                    {
                                        "children": [],
                                        "depth": 2,
                                        "id": 34,
                                        "order": 34
                                    },
                                    {
                                        "children": [],
                                        "depth": 2,
                                        "id": 35,
                                        "order": 35
                                    },
                                    {
                                        "children": [],
                                        "depth": 2,
                                        "id": 36,
                                        "order": 36
                                    },
                                    {
                                        "children": [],
                                        "depth": 2,
                                        "id": 37,
                                        "order": 37
                                    },
                                    {
                                        "children": [],
                                        "depth": 2,
                                        "id": 38,
                                        "order": 38
                                    }
                                ],
                                "depth": 1,
                                "id": 23,
                                "order": 23
                            },
                            {
                                "children": [],
                                "depth": 1,
                                "id": 39,
                                "order": 39
                            }
                        ],
                        "depth": 0,
                        "id": 0,
                        "order": 0
                    }
                ],
                "depth": -1,
                "id": -1,
                "order": -1
            }
        ],
        "mainTraceNodeCount": 40,
        "parentIdMap": {
            "0": -1,
            "1": 0,
            "10": 8,
            "11": 8,
            "12": 8,
            "13": 8,
            "14": 13,
            "15": 8,
            "16": 8,
            "17": 8,
            "18": 8,
            "19": 8,
            "2": 0,
            "20": 8,
            "21": 8,
            "22": 0,
            "23": 0,
            "24": 23,
            "25": 23,
            "26": 23,
            "27": 23,
            "28": 23,
            "29": 23,
            "3": 0,
            "30": 23,
            "31": 30,
            "32": 23,
            "33": 23,
            "34": 23,
            "35": 23,
            "36": 23,
            "37": 23,
            "38": 23,
            "39": 0,
            "4": 0,
            "5": 0,
            "6": 0,
            "7": 0,
            "8": 0,
            "9": 8
        },
        "tidyTrace": [
            {
                "children": [
                    {
                        "children": [
                            {
                                "children": [],
                                "depth": 1,
                                "id": 1,
                                "order": 1
                            },
                            {
                                "children": [],
                                "depth": 1,
                                "id": 3,
                                "order": 3
                            },
                            {
                                "children": [],
                                "depth": 1,
                                "id": 4,
                                "order": 4
                            },
                            {
                                "children": [],
                                "depth": 1,
                                "id": 6,
                                "order": 6
                            },
                            {
                                "children": [
                                    {
                                        "children": [],
                                        "depth": 2,
                                        "id": 9,
                                        "order": 9
                                    },
                                    {
                                        "children": [],
                                        "depth": 2,
                                        "id": 10,
                                        "order": 10
                                    },
                                    {
                                        "children": [],
                                        "depth": 2,
                                        "id": 11,
                                        "order": 11
                                    },
                                    {
                                        "children": [],
                                        "depth": 2,
                                        "id": 12,
                                        "order": 12
                                    },
                                    {
                                        "children": [
                                            {
                                                "children": [],
                                                "depth": 3,
                                                "id": 14,
                                                "order": 14
                                            }
                                        ],
                                        "depth": 2,
                                        "id": 13,
                                        "order": 13
                                    },
                                    {
                                        "children": [],
                                        "depth": 2,
                                        "id": 15,
                                        "order": 15
                                    },
                                    {
                                        "children": [],
                                        "depth": 2,
                                        "id": 16,
                                        "order": 16
                                    },
                                    {
                                        "children": [],
                                        "depth": 2,
                                        "id": 17,
                                        "order": 17
                                    },
                                    {
                                        "children": [],
                                        "depth": 2,
                                        "id": 18,
                                        "order": 18
                                    },
                                    {
                                        "children": [],
                                        "depth": 2,
                                        "id": 19,
                                        "order": 19
                                    },
                                    {
                                        "children": [],
                                        "depth": 2,
                                        "id": 20,
                                        "order": 20
                                    },
                                    {
                                        "children": [],
                                        "depth": 2,
                                        "id": 21,
                                        "order": 21
                                    }
                                ],
                                "depth": 1,
                                "id": 8,
                                "order": 8
                            },
                            {
                                "children": [],
                                "depth": 1,
                                "id": 22,
                                "order": 22
                            },
                            {
                                "children": [
                                    {
                                        "children": [],
                                        "depth": 2,
                                        "id": 24,
                                        "order": 24
                                    },
                                    {
                                        "children": [],
                                        "depth": 2,
                                        "id": 25,
                                        "order": 25
                                    },
                                    {
                                        "children": [],
                                        "depth": 2,
                                        "id": 26,
                                        "order": 26
                                    },
                                    {
                                        "children": [],
                                        "depth": 2,
                                        "id": 27,
                                        "order": 27
                                    },
                                    {
                                        "children": [],
                                        "depth": 2,
                                        "id": 28,
                                        "order": 28
                                    },
                                    {
                                        "children": [],
                                        "depth": 2,
                                        "id": 29,
                                        "order": 29
                                    },
                                    {
                                        "children": [
                                            {
                                                "children": [],
                                                "depth": 3,
                                                "id": 31,
                                                "order": 31
                                            }
                                        ],
                                        "depth": 2,
                                        "id": 30,
                                        "order": 30
                                    },
                                    {
                                        "children": [],
                                        "depth": 2,
                                        "id": 32,
                                        "order": 32
                                    },
                                    {
                                        "children": [],
                                        "depth": 2,
                                        "id": 33,
                                        "order": 33
                                    },
                                    {
                                        "children": [],
                                        "depth": 2,
                                        "id": 34,
                                        "order": 34
                                    },
                                    {
                                        "children": [],
                                        "depth": 2,
                                        "id": 35,
                                        "order": 35
                                    },
                                    {
                                        "children": [],
                                        "depth": 2,
                                        "id": 36,
                                        "order": 36
                                    },
                                    {
                                        "children": [],
                                        "depth": 2,
                                        "id": 37,
                                        "order": 37
                                    },
                                    {
                                        "children": [],
                                        "depth": 2,
                                        "id": 38,
                                        "order": 38
                                    }
                                ],
                                "depth": 1,
                                "id": 23,
                                "order": 23
                            },
                            {
                                "children": [],
                                "depth": 1,
                                "id": 39,
                                "order": 39
                            }
                        ],
                        "depth": 0,
                        "id": 0,
                        "order": 0
                    }
                ],
                "depth": -1,
                "id": -1,
                "order": -1
            }
        ],
        "tidyTraceNodeCount": 37
    },
    "state_change": {
        "stateChanges": [
            {
                "address": "0x1f573d6fb3f13d689ff844b4ce37794d79a7ff1c",
                "erc": "ERC-20",
                "slots": [
                    {
                        "current": "0x000000000000000000000000000000000000000000001a87edab6554cc53b61c",
                        "key": "0x473ae2242b36facafd18d443d54d36353f273bfddd227dcd2ff7ab5e3b3039f2",
                        "prev": "0x000000000000000000000000000000000000000000001a4af7c1a0898a719f1d"
                    },
                    {
                        "current": "0x00000000000000000000000000000000000000000004233511eceabcae977c38",
                        "key": "0x88c6acd1c74e8f8f79737775ec8781c46dca9473f9e02f9fdbdc9d2d6d23f896",
                        "prev": "0x00000000000000000000000000000000000000000004237207d6af87f0799337"
                    }
                ],
                "storageVariables": []
            },
            {
                "address": "0x2a06add4629b1a494a5bb667cf8250c3ae1224b8",
                "erc": "",
                "slots": [
                    {
                        "current": "0x000000000000000000000000000000000000000000001a87edab6554cc53b61c",
                        "key": "0x587cffb92ce124224b9f5fff48bd0ad10932de87741537c4b1516f40f18e45f9",
                        "prev": "0x000000000000000000000000000000000000000000001a4af7c1a0898a719f1d"
                    },
                    {
                        "current": "0x0000000000000000000000000000000000000000000007b91b6ff0828e0ea8e9",
                        "key": "0x6680aae22ded07fe82a3a40bf7525f38de6d38b40b1a5083a85ba5d0d320328f",
                        "prev": "0x0000000000000000000000000000000000000000000007cafec877856d7bdf09"
                    }
                ],
                "storageVariables": [
                    {
                        "name": "reserves",
                        "type": "mapping(address => struct ConverterBase.Reserve)",
                        "value": {
                            "pairs": [
                                {
                                    "key": "0x1f573d6fb3f13d689ff844b4ce37794d79a7ff1c",
                                    "value": {
                                        "fields": [
                                            {
                                                "name": "balance",
                                                "type": "uint256",
                                                "value": {
                                                    "current": "125288964897984451163676",
                                                    "prev": "124164440342975749398301",
                                                    "typeTag": 1
                                                }
                                            }
                                        ],
                                        "typeTag": 3
                                    }
                                },
                                {
                                    "key": "0xd26114cd6ee289accf82350c8d8487fedb8a0c07",
                                    "value": {
                                        "fields": [
                                            {
                                                "name": "balance",
                                                "type": "uint256",
                                                "value": {
                                                    "current": "36471190096928742222057",
                                                    "prev": "36801166738272772939529",
                                                    "typeTag": 1
                                                }
                                            }
                                        ],
                                        "typeTag": 3
                                    }
                                }
                            ],
                            "typeTag": 4
                        }
                    }
                ]
            },
            {
                "address": "0xd26114cd6ee289accf82350c8d8487fedb8a0c07",
                "erc": "ERC-20",
                "slots": [
                    {
                        "current": "0x0000000000000000000000000000000000000000000007b91b6ff0828e0ea8e9",
                        "key": "0xe34e775a4a3f8c285a1bcdba63d96b6a233262b6a5905861f14d78383e3bf080",
                        "prev": "0x0000000000000000000000000000000000000000000007cafec877856d7bdf09"
                    },
                    {
                        "current": "0x000000000000000000000000000000000000000000000029a2d742630a472ee1",
                        "key": "0xa4c9ddcc6718991814ce3533ed55312b41b9ea6702dd814589d64756b04600cb",
                        "prev": "0x000000000000000000000000000000000000000000000017bf7ebb602ad9f8c1"
                    }
                ],
                "storageVariables": []
            },
            {
                "address": "0xe870d00176b2c71afd4c43cea550228e22be4abd",
                "erc": "",
                "slots": [
                    {
                        "current": "0x0000000000000000000000000000000000000000000002d2d48f7dd1a9dc7875",
                        "key": "0xb2084a3e4595ccf007fb44245853374aaf0de960074375e8e0fb334712e94d0e",
                        "prev": "0x0000000000000000000000000000000000000000000002d2aaed59b6b3b07875"
                    },
                    {
                        "current": "0x00000000000000000000000000000000000000000004233511eceabcae977c38",
                        "key": "0x587cffb92ce124224b9f5fff48bd0ad10932de87741537c4b1516f40f18e45f9",
                        "prev": "0x00000000000000000000000000000000000000000004237207d6af87f0799337"
                    }
                ],
                "storageVariables": [
                    {
                        "name": "reserves",
                        "type": "mapping(address => struct ConverterBase.Reserve)",
                        "value": {
                            "pairs": [
                                {
                                    "key": "0x1f573d6fb3f13d689ff844b4ce37794d79a7ff1c",
                                    "value": {
                                        "fields": [
                                            {
                                                "name": "balance",
                                                "type": "uint256",
                                                "value": {
                                                    "current": "5001965074460150139943992",
                                                    "prev": "5003089599015158841709367",
                                                    "typeTag": 1
                                                }
                                            }
                                        ],
                                        "typeTag": 3
                                    }
                                },
                                {
                                    "key": "0xeeeeeeeeeeeeeeeeeeeeeeeeeeeeeeeeeeeeeeee",
                                    "value": {
                                        "fields": [
                                            {
                                                "name": "balance",
                                                "type": "uint256",
                                                "value": {
                                                    "current": "13333865820415458048117",
                                                    "prev": "13330865820415458048117",
                                                    "typeTag": 1
                                                }
                                            }
                                        ],
                                        "typeTag": 3
                                    }
                                }
                            ],
                            "typeTag": 4
                        }
                    }
                ]
            }
        ]
    }
}