{
    "balance_change": {
        "balanceChanges": [
            {
                "account": "0x3096603ff9fec8270e9cddccc8850c26d13aff56",
                "assets": [
                    {
                        "address": "0x7d1afa7b718fb893db30a3abc0cfc608aacfebb0",
                        "amount": "104.937763870943162455",
                        "iconUrl": "https://assets.blocksec.com/icon/5dc5187d80083e1e6ca5ca29581f660fdc3ebdf47eef117c3dfa3a0c07ab7d33.png",
                        "isERC1155": false,
                        "isERC721": false,
                        "sign": false,
                        "value": "83.48198091"
                    }
                ]
            },
            {
                "account": "0xf8024bcd8e7d4d428f8e778028a9211f3e86ef5b",
                "assets": [
                    {
                        "address": "0x7d1afa7b718fb893db30a3abc0cfc608aacfebb0",
                        "amount": "104.937763870943162455",
                        "iconUrl": "https://assets.blocksec.com/icon/5dc5187d80083e1e6ca5ca29581f660fdc3ebdf47eef117c3dfa3a0c07ab7d33.png",
                        "isERC1155": false,
                        "isERC721": false,
                        "sign": true,
                        "value": "83.48198091"
                    }
                ]
            }
        ]
    },
    "profile": {
        "basic_info": {
            "baseFee": "7.496614935",
            "blockNumber": 15395078,
            "callData": "0xa9059cbb000000000000000000000000f8024bcd8e7d4d428f8e778028a9211f3e86ef5b000000000000000000000000000000000000000000000005b04dd441ab633057",
            "debugEnable": true,
            "errorInfo": "",
            "eventCount": 1,
            "feeRecipient": "0x829bd824b016326a401d083b33d092293333a830",
            "formatValue": "0",
            "gasLimit": 81060,
            "gasPrice": "8.496614935",
            "gasUsed": 49240,
            "intTxnCount": 0,
            "internalRevert": false,
            "internalRevertMessage": "",
            "isContractCreation": false,
            "isFlashloan": false,
            "maxFee": "9.554188814",
            "nonce": 120,
            "overwritedBlockNumber": -1,
            "priorityFee": "1",
            "receiver": "0x7d1afa7b718fb893db30a3abc0cfc608aacfebb0",
            "revertMessage": "",
            "sender": "0x3096603ff9fec8270e9cddccc8850c26d13aff56",
            "simulationEnable": true,
            "sourceTxnHash": "0x8e92e1eb3f6959d64a879b24b49f02f5d72cf623166704f35e92ab5ca8be891f",
            "status": true,
            "timestamp": "2022-08-23T06:38:29Z",
            "transactionFee": "0.0004183733193994",
            "txnHash": "0x8e92e1eb3f6959d64a879b24b49f02f5d72cf623166704f35e92ab5ca8be891f",
            "txnIndex": 77,
            "type": 2,
            "value": "0"
        },
        "fund_flow": [
            {
                "amount": "104.937763870943162455",
                "from": "0x3096603ff9fec8270e9cddccc8850c26d13aff56",
                "id": 1,
                "isERC1155": false,
                "isERC721": false,
                "isReverted": false,
                "order": 1,
                "to": "0xf8024bcd8e7d4d428f8e778028a9211f3e86ef5b",
                "token": "0x7d1afa7b718fb893db30a3abc0cfc608aacfebb0"
            }
        ],
        "token_infos": [
            {
                "address": "0xc02aaa39b223fe8d0a0e5c4f27ead9083c756cc2",
                "decimals": 18
            },
            {
                "address": "0xeeeeeeeeeeeeeeeeeeeeeeeeeeeeeeeeeeeeeeee",
                "decimals": 18
            },
            {
                "address": "0x7d1afa7b718fb893db30a3abc0cfc608aacfebb0",
                "decimals": 18
            }
        ]
    },
    "address_label": {
        "labels": [
            {
                "address": "0x0000000000000000000000000000000000000001",
                "label": "Precompiled"
            },
            {
                "address": "0x0000000000000000000000000000000000000002",
                "label": "Precompiled"
            },
            {
                "address": "0x0000000000000000000000000000000000000003",
                "label": "Precompiled"
            },
            {
                "address": "0x0000000000000000000000000000000000000004",
                "label": "Precompiled"
            },
            {
                "address": "0xeeeeeeeeeeeeeeeeeeeeeeeeeeeeeeeeeeeeeeee",
                "label": "Ether"
            },
            {
                "address": "0xf8024bcd8e7d4d428f8e778028a9211f3e86ef5b",
                "label": "BINANCE"
            },
            {
                "address": "0x7d1afa7b718fb893db30a3abc0cfc608aacfebb0",
                "label": "Polygon (Matic): Old Matic Token"
            }
        ]
    },
    "trace": {
        "accountLabels": null,
        "dataMap": {
            "-1": {
                "invocation": {
                    "address": "0x3096603ff9fec8270e9cddccc8850c26d13aff56",
                    "callData": "",
                    "decodedMethod": null,
                    "errorInfo": "",
                    "fromAddress": "",
                    "gasUsed": 0,
                    "id": -1,
                    "methodDecoded": false,
                    "operation": "",
                    "output": "",
                    "revert": false,
                    "revertMessage": "",
                    "selector": "",
                    "status": false,
                    "value": ""
                },
                "nodeType": 0
            },
            "0": {
                "invocation": {
                    "address": "0x7d1afa7b718fb893db30a3abc0cfc608aacfebb0",
                    "callData": "0x000000000000000000000000f8024bcd8e7d4d428f8e778028a9211f3e86ef5b000000000000000000000000000000000000000000000005b04dd441ab633057",
                    "decodedMethod": {
                        "callParams": [
                            {
                                "name": "to",
                                "type": "address",
                                "value": "0xf8024bcd8e7d4d428f8e778028a9211f3e86ef5b"
                            },
                            {
                                "decimalAvailable": true,
                                "name": "value",
                                "type": "uint256",
                                "value": "104,937,763,870,943,162,455"
                            }
                        ],
                        "constructorArguments": "",
                        "name": "transfer",
                        "returnParams": [
                            {
                                "name": "",
                                "type": "bool",
                                "value": true
                            }
                        ],
                        "signature": "transfer(address,uint256)"
                    },
                    "errorInfo": "",
                    "fromAddress": "0x3096603ff9fec8270e9cddccc8850c26d13aff56",
                    "gasUsed": 49240,
                    "id": 0,
                    "methodDecoded": true,
                    "operation": "CALL",
                    "output": "0x0000000000000000000000000000000000000000000000000000000000000001",
                    "revert": false,
                    "revertMessage": "",
                    "selector": "0xa9059cbb",
                    "status": true,
                    "value": "0"
                },
                "nodeType": 0
            },
            "1": {
                "event": {
                    "contract": "0x7d1afa7b718fb893db30a3abc0cfc608aacfebb0",
                    "decodedLog": {
                        "name": "Transfer",
                        "params": [
                            {
                                "name": "from",
                                "type": "address",
                                "value": "0x3096603ff9fec8270e9cddccc8850c26d13aff56"
                            },
                            {
                                "name": "to",
                                "type": "address",
                                "value": "0xf8024bcd8e7d4d428f8e778028a9211f3e86ef5b"
                            },
                            {
                                "decimalAvailable": true,
                                "name": "value",
                                "type": "uint256",
                                "value": "104,937,763,870,943,162,455"
                            }
                        ],
                        "signature": "Transfer(address,address,uint256)"
                    },
                    "id": 1,
                    "logData": "0x000000000000000000000000000000000000000000000005b04dd441ab633057",
                    "logDecoded": true,
                    "operation": "EVENT",
                    "revert": false,
                    "status": true,
                    "topics": [
                        "0xddf252ad1be2c89b69c2b068fc378daa952ba7f163c4a11628f55a4df523b3ef",
                        "0x0000000000000000000000003096603ff9fec8270e9cddccc8850c26d13aff56",
                        "0x000000000000000000000000f8024bcd8e7d4d428f8e778028a9211f3e86ef5b"
                    ]
                },
                "nodeType": 1
            }
        },
        "gasFlame": [
            {
                "children": [
                    {
                        "children": [
                            {
                                "children": [],
                                "depth": 0,
                                "name": "Initial Gas",
                                "value": 21668
                            },
                            {
                                "children": [],
                                "depth": 0,
                                "name": "Executed Gas",
                                "value": 32372
                            }
                        ],
                        "depth": -1,
                        "name": "Actual Gas Used",
                        "value": 49240
                    },
                    {
                        "children": [],
                        "depth": -1,
                        "name": "Refunded Gas",
                        "value": 4800
                    }
                ],
                "depth": -2,
                "name": "Total Gas",
                "value": 54040
            }
        ],
        "isConfirmed": true,
        "mainTrace": [
            {
                "children": [
                    {
                        "children": [
                            {
                                "children": [],
                                "depth": 1,
                                "id": 1,
                                "order": 1
                            }
                        ],
                        "depth": 0,
                        "id": 0,
                        "order": 0
                    }
                ],
                "depth": -1,
                "id": -1,
                "order": -1
            }
        ],
        "mainTraceNodeCount": 2,
        "parentIdMap": {
            "0": -1,
            "1": 0
        },
        "tidyTrace": [
            {
                "children": [
                    {
                        "children": [
                            {
                                "children": [],
                                "depth": 1,
                                "id": 1,
                                "order": 1
                            }
                        ],
                        "depth": 0,
                        "id": 0,
                        "order": 0
                    }
                ],
                "depth": -1,
                "id": -1,
                "order": -1
            }
        ],
        "tidyTraceNodeCount": 2
    },
    "state_change": {
        "stateChanges": [
            {
                "address": "0x7d1afa7b718fb893db30a3abc0cfc608aacfebb0",
                "erc": "ERC-20",
                "slots": [
                    {
                        "current": "0x0000000000000000000000000000000000000000000000000000000000000000",
                        "key": "0x288738aaa88bd356c39e197d19edc332094954a62d0f2c056b7eb20b8a04e897",
                        "prev": "0x000000000000000000000000000000000000000000000005b04dd441ab633057"
                    },
                    {
                        "current": "0x000000000000000000000000000000000000000000000005b04dd441ab633057",
                        "key": "0x5a12b33a0d6622cb5fb3cf1f5819d16ae2f5373ecacbc29426447a46f052243d",
                        "prev": "0x0000000000000000000000000000000000000000000000000000000000000000"
                    }
                ],
                "storageVariables": [
                    {
                        "name": "_balances",
                        "type": "mapping(address => uint256)",
                        "value": {
                            "pairs": [
                                {
                                    "key": "0x3096603ff9fec8270e9cddccc8850c26d13aff56",
                                    "value": {
                                        "current": "0",
                                        "prev": "104937763870943162455",
                                        "typeTag": 1
                                    }
                                },
                                {
                                    "key": "0xf8024bcd8e7d4d428f8e778028a9211f3e86ef5b",
                                    "value": {
                                        "current": "104937763870943162455",
                                        "prev": "0",
                                        "typeTag": 1
                                    }
                                }
                            ],
                            "typeTag": 4
                        }
                    }
                ]
            }
        ]
    }
}