{
    "balance_change": {
        "balanceChanges": [
            {
                "account": "0xd5fc6e39ac0225742aa261d152346ce4d9f6613a",
                "assets": [
                    {
                        "address": "0xeeeeeeeeeeeeeeeeeeeeeeeeeeeeeeeeeeeeeeee",
                        "amount": "0.024999999999999999",
                        "iconUrl": "https://assets.blocksec.com/image/1663669189317-3.png",
                        "isERC1155": false,
                        "isERC721": false,
                        "sign": false,
                        "value": "19.43358232"
                    },
                    {
                        "address": "0x514910771af9ca656af840dff83e8264ecf986ca",
                        "amount": "1.58282187705328467",
                        "iconUrl": "https://assets.blocksec.com/icon/f97453a18956674db69f16b525216d646fc76f3c7f90f0cd6147f8534d5af3e9.png",
                        "isERC1155": false,
                        "isERC721": false,
                        "sign": false,
                        "value": "19.31911743"
                    },
                    {
                        "address": "0x01089e8e7796cf16789440f8998fc18413ef53c4",
                        "amount": "0.19859231279958783",
                        "iconUrl": "",
                        "isERC1155": false,
                        "isERC721": false,
                        "sign": true,
                        "value": ""
                    }
                ]
            },
            {
                "account": "0x0000000000000000000000000000000000000000",
                "assets": [
                    {
                        "address": "0x01089e8e7796cf16789440f8998fc18413ef53c4",
                        "amount": "0.19859231279958783",
                        "iconUrl": "",
                        "isERC1155": false,
                        "isERC721": false,
                        "sign": false,
                        "value": ""
                    }
                ]
            },
            {
                "account": "0x01089e8e7796cf16789440f8998fc18413ef53c4",
                "assets": [
                    {
                        "address": "0x514910771af9ca656af840dff83e8264ecf986ca",
                        "amount": "1.58282187705328467",
                        "iconUrl": "https://assets.blocksec.com/icon/f97453a18956674db69f16b525216d646fc76f3c7f90f0cd6147f8534d5af3e9.png",
                        "isERC1155": false,
                        "isERC721": false,
                        "sign": true,
                        "value": "19.31911743"
                    },
                    {
                        "address": "0xc02aaa39b223fe8d0a0e5c4f27ead9083c756cc2",
                        "amount": "0.024999999999999999",
                        "iconUrl": "https://assets.blocksec.com/icon/f1cb2d02c471d545bbc7722daf3277fd852d98e63d118771af7047bd8256c516.png",
                        "isERC1155": false,
                        "isERC721": false,
                        "sign": true,
                        "value": "19.43358232"
                    }
                ]
            },
            {
                "account": "0xc02aaa39b223fe8d0a0e5c4f27ead9083c756cc2",
                "assets": [
                    {
                        "address": "0xc02aaa39b223fe8d0a0e5c4f27ead9083c756cc2",
                        "amount": "0.024999999999999999",
                        "iconUrl": "https://assets.blocksec.com/icon/f1cb2d02c471d545bbc7722daf3277fd852d98e63d118771af7047bd8256c516.png",
                        "isERC1155": false,
                        "isERC721": false,
                        "sign": false,
                        "value": "19.43358232"
                    },
                    {
                        "address": "0xeeeeeeeeeeeeeeeeeeeeeeeeeeeeeeeeeeeeeeee",
                        "amount": "0.024999999999999999",
                        "iconUrl": "https://assets.blocksec.com/image/1663669189317-3.png",
                        "isERC1155": false,
                        "isERC721": false,
                        "sign": true,
                        "value": "19.43358232"
                    }
                ]
            }
        ]
    },
    "profile": {
        "basic_info": {
            "baseFee": "",
            "blockNumber": 11578476,
            "callData": "0xf305d719000000000000000000000000514910771af9ca656af840dff83e8264ecf986ca00000000000000000000000000000000000000000000000015f7501c6c7a613e00000000000000000000000000000000000000000000000015db32453ddb0c4600000000000000000000000000000000000000000000000000585fae42c9b000000000000000000000000000d5fc6e39ac0225742aa261d152346ce4d9f6613a000000000000000000000000000000000000000000000000000000005ff11e56",
            "debugEnable": true,
            "errorInfo": "",
            "eventCount": 6,
            "feeRecipient": "0x829bd824b016326a401d083b33d092293333a830",
            "formatValue": "0.025",
            "gasLimit": 217769,
            "gasPrice": "61",
            "gasUsed": 169809,
            "intTxnCount": 15,
            "internalRevert": false,
            "internalRevertMessage": "",
            "isContractCreation": false,
            "isFlashloan": false,
            "maxFee": "",
            "nonce": 2,
            "overwritedBlockNumber": -1,
            "priorityFee": "",
            "receiver": "0x463672ffded540f7613d3e8248e3a8a51baf7217",
            "revertMessage": "",
            "sender": "0xd5fc6e39ac0225742aa261d152346ce4d9f6613a",
            "simulationEnable": true,
            "sourceTxnHash": "0x8ef2e009de0801613eeed359b3aabd54f15ea2aa29d844a207715648c74ed83a",
            "status": true,
            "timestamp": "2021-01-03T01:13:37Z",
            "transactionFee": "0.010358349",
            "txnHash": "0x8ef2e009de0801613eeed359b3aabd54f15ea2aa29d844a207715648c74ed83a",
            "txnIndex": 80,
            "type": 0,
            "value": "25000000000000000"
        },
        "fund_flow": [
            {
                "amount": "0.025",
                "from": "0xd5fc6e39ac0225742aa261d152346ce4d9f6613a",
                "id": 1,
                "isERC1155": false,
                "isERC721": false,
                "isReverted": false,
                "order": 1,
                "to": "0x463672ffded540f7613d3e8248e3a8a51baf7217",
                "token": "0xeeeeeeeeeeeeeeeeeeeeeeeeeeeeeeeeeeeeeeee"
            },
            {
                "amount": "1.58282187705328467",
                "from": "0xd5fc6e39ac0225742aa261d152346ce4d9f6613a",
                "id": 2,
                "isERC1155": false,
                "isERC721": false,
                "isReverted": false,
                "order": 2,
                "to": "0x01089e8e7796cf16789440f8998fc18413ef53c4",
                "token": "0x514910771af9ca656af840dff83e8264ecf986ca"
            },
            {
                "amount": "0.024999999999999999",
                "from": "0x463672ffded540f7613d3e8248e3a8a51baf7217",
                "id": 3,
                "isERC1155": false,
                "isERC721": false,
                "isReverted": false,
                "order": 3,
                "to": "0xc02aaa39b223fe8d0a0e5c4f27ead9083c756cc2",
                "token": "0xeeeeeeeeeeeeeeeeeeeeeeeeeeeeeeeeeeeeeeee"
            },
            {
                "amount": "0.024999999999999999",
                "from": "0xc02aaa39b223fe8d0a0e5c4f27ead9083c756cc2",
                "id": 4,
                "isERC1155": false,
                "isERC721": false,
                "isReverted": false,
                "order": 4,
                "to": "0x463672ffded540f7613d3e8248e3a8a51baf7217",
                "token": "0xc02aaa39b223fe8d0a0e5c4f27ead9083c756cc2"
            },
            {
                "amount": "0.024999999999999999",
                "from": "0x463672ffded540f7613d3e8248e3a8a51baf7217",
                "id": 5,
                "isERC1155": false,
                "isERC721": false,
                "isReverted": false,
                "order": 5,
                "to": "0x01089e8e7796cf16789440f8998fc18413ef53c4",
                "token": "0xc02aaa39b223fe8d0a0e5c4f27ead9083c756cc2"
            },
            {
                "amount": "0.19859231279958783",
                "from": "0x0000000000000000000000000000000000000000",
                "id": 6,
                "isERC1155": false,
                "isERC721": false,
                "isReverted": false,
                "order": 6,
                "to": "0xd5fc6e39ac0225742aa261d152346ce4d9f6613a",
                "token": "0x01089e8e7796cf16789440f8998fc18413ef53c4"
            },
            {
                "amount": "0.000000000000000001",
                "from": "0x463672ffded540f7613d3e8248e3a8a51baf7217",
                "id": 7,
                "isERC1155": false,
                "isERC721": false,
                "isReverted": false,
                "order": 7,
                "to": "0xd5fc6e39ac0225742aa261d152346ce4d9f6613a",
                "token": "0xeeeeeeeeeeeeeeeeeeeeeeeeeeeeeeeeeeeeeeee"
            }
        ],
        "token_infos": [
            {
                "address": "0xc02aaa39b223fe8d0a0e5c4f27ead9083c756cc2",
                "decimals": 18
            },
            {
                "address": "0xeeeeeeeeeeeeeeeeeeeeeeeeeeeeeeeeeeeeeeee",
                "decimals": 18
            },
            {
                "address": "0x01089e8e7796cf16789440f8998fc18413ef53c4",
                "decimals": 18
            },
            {
                "address": "0x514910771af9ca656af840dff83e8264ecf986ca",
                "decimals": 18
            }
        ]
    },
    "address_label": {
        "labels": [
            {
                "address": "0x69bd16ae6f507bd3fc9ecc984d50b04f029ef677",
                "label": "TransparentUpgradeableProxy_69bd_f677"
            },
            {
                "address": "0x0000000000000000000000000000000000000000",
                "label": "Null Address"
            },
            {
                "address": "0x0000000000000000000000000000000000000003",
                "label": "Precompiled"
            },
            {
                "address": "0xeeeeeeeeeeeeeeeeeeeeeeeeeeeeeeeeeeeeeeee",
                "label": "Ether"
            },
            {
                "address": "0x01089e8e7796cf16789440f8998fc18413ef53c4",
                "label": "WSS"
            },
            {
                "address": "0x1504d0ba9c6fe130d3ce750fcbe7407047d986bf",
                "label": "WSRouter"
            },
            {
                "address": "0x0000000000000000000000000000000000000002",
                "label": "Precompiled"
            },
            {
                "address": "0x0000000000000000000000000000000000000004",
                "label": "Precompiled"
            },
            {
                "address": "0x463672ffded540f7613d3e8248e3a8a51baf7217",
                "label": "TransparentUpgradeableProxy_4636_7217"
            },
            {
                "address": "0x514910771af9ca656af840dff83e8264ecf986ca",
                "label": "Chainlink: LINK Token"
            },
            {
                "address": "0xc02aaa39b223fe8d0a0e5c4f27ead9083c756cc2",
                "label": "Wrapped Ether (WETH)"
            },
            {
                "address": "0xfbacbc64e684c0c5bf572fc6d42458c3e3fd1d1d",
                "label": "WSFactory"
            },
            {
                "address": "0x33c6e6fc3df75ae3e9c2482ca1f36be71def2664",
                "label": "WSPair"
            },
            {
                "address": "0x0000000000000000000000000000000000000001",
                "label": "Precompiled"
            }
        ]
    },
    "trace": {
        "accountLabels": null,
        "dataMap": {
            "-1": {
                "invocation": {
                    "address": "0xd5fc6e39ac0225742aa261d152346ce4d9f6613a",
                    "callData": "",
                    "decodedMethod": null,
                    "errorInfo": "",
                    "fromAddress": "",
                    "gasUsed": 0,
                    "id": -1,
                    "methodDecoded": false,
                    "operation": "",
                    "output": "",
                    "revert": false,
                    "revertMessage": "",
                    "selector": "",
                    "status": false,
                    "value": ""
                },
                "nodeType": 0
            },
            "0": {
                "invocation": {
                    "address": "0x463672ffded540f7613d3e8248e3a8a51baf7217",
                    "callData": "0x000000000000000000000000514910771af9ca656af840dff83e8264ecf986ca00000000000000000000000000000000000000000000000015f7501c6c7a613e00000000000000000000000000000000000000000000000015db32453ddb0c4600000000000000000000000000000000000000000000000000585fae42c9b000000000000000000000000000d5fc6e39ac0225742aa261d152346ce4d9f6613a000000000000000000000000000000000000000000000000000000005ff11e56",
                    "decodedMethod": {
                        "callParams": [
                            {
                                "name": "token",
                                "type": "address",
                                "value": "0x514910771af9ca656af840dff83e8264ecf986ca"
                            },
                            {
                                "name": "amountTokenDesired",
                                "type": "uint256",
                                "value": "1,582,821,877,053,284,670"
                            },
                            {
                                "name": "amountTokenMin",
                                "type": "uint256",
                                "value": "1,574,907,767,668,018,246"
                            },
                            {
                                "name": "amountETHMin",
                                "type": "uint256",
                                "value": "24,875,000,000,000,000"
                            },
                            {
                                "name": "to",
                                "type": "address",
                                "value": "0xd5fc6e39ac0225742aa261d152346ce4d9f6613a"
                            },
                            {
                                "name": "deadline",
                                "type": "uint256",
                                "value": "1,609,637,462"
                            }
                        ],
                        "constructorArguments": "",
                        "name": "addLiquidityETH",
                        "returnParams": [
                            {
                                "name": "amountToken",
                                "type": "uint256",
                                "value": "1,582,821,877,053,284,670"
                            },
                            {
                                "name": "amountETH",
                                "type": "uint256",
                                "value": "24,999,999,999,999,999"
                            },
                            {
                                "name": "liquidity",
                                "type": "uint256",
                                "value": "198,592,312,799,587,830"
                            }
                        ],
                        "signature": "addLiquidityETH(address,uint256,uint256,uint256,address,uint256)"
                    },
                    "errorInfo": "",
                    "fromAddress": "0xd5fc6e39ac0225742aa261d152346ce4d9f6613a",
                    "gasUsed": 169809,
                    "id": 0,
                    "methodDecoded": true,
                    "operation": "CALL",
                    "output": "0x00000000000000000000000000000000000000000000000015f7501c6c7a613e0000000000000000000000000000000000000000000000000058d15e17627fff00000000000000000000000000000000000000000000000002c18aa8038aedf6",
                    "revert": false,
                    "revertMessage": "",
                    "selector": "0xf305d719",
                    "status": true,
                    "value": "0.025"
                },
                "nodeType": 0
            },
            "1": {
                "invocation": {
                    "address": "0x1504d0ba9c6fe130d3ce750fcbe7407047d986bf",
                    "callData": "0x000000000000000000000000514910771af9ca656af840dff83e8264ecf986ca00000000000000000000000000000000000000000000000015f7501c6c7a613e00000000000000000000000000000000000000000000000015db32453ddb0c4600000000000000000000000000000000000000000000000000585fae42c9b000000000000000000000000000d5fc6e39ac0225742aa261d152346ce4d9f6613a000000000000000000000000000000000000000000000000000000005ff11e56",
                    "decodedMethod": {
                        "callParams": [
                            {
                                "name": "token",
                                "type": "address",
                                "value": "0x514910771af9ca656af840dff83e8264ecf986ca"
                            },
                            {
                                "name": "amountTokenDesired",
                                "type": "uint256",
                                "value": "1,582,821,877,053,284,670"
                            },
                            {
                                "name": "amountTokenMin",
                                "type": "uint256",
                                "value": "1,574,907,767,668,018,246"
                            },
                            {
                                "name": "amountETHMin",
                                "type": "uint256",
                                "value": "24,875,000,000,000,000"
                            },
                            {
                                "name": "to",
                                "type": "address",
                                "value": "0xd5fc6e39ac0225742aa261d152346ce4d9f6613a"
                            },
                            {
                                "name": "deadline",
                                "type": "uint256",
                                "value": "1,609,637,462"
                            }
                        ],
                        "constructorArguments": "",
                        "name": "addLiquidityETH",
                        "returnParams": [
                            {
                                "name": "amountToken",
                                "type": "uint256",
                                "value": "1,582,821,877,053,284,670"
                            },
                            {
                                "name": "amountETH",
                                "type": "uint256",
                                "value": "24,999,999,999,999,999"
                            },
                            {
                                "name": "liquidity",
                                "type": "uint256",
                                "value": "198,592,312,799,587,830"
                            }
                        ],
                        "signature": "addLiquidityETH(address,uint256,uint256,uint256,address,uint256)"
                    },
                    "errorInfo": "",
                    "fromAddress": "0x463672ffded540f7613d3e8248e3a8a51baf7217",
                    "gasUsed": 168782,
                    "id": 1,
                    "methodDecoded": true,
                    "operation": "DELEGATECALL",
                    "output": "0x00000000000000000000000000000000000000000000000015f7501c6c7a613e0000000000000000000000000000000000000000000000000058d15e17627fff00000000000000000000000000000000000000000000000002c18aa8038aedf6",
                    "revert": false,
                    "revertMessage": "",
                    "selector": "0xf305d719",
                    "status": true,
                    "value": "0.025"
                },
                "nodeType": 0
            },
            "10": {
                "invocation": {
                    "address": "0xc02aaa39b223fe8d0a0e5c4f27ead9083c756cc2",
                    "callData": "0x00000000000000000000000001089e8e7796cf16789440f8998fc18413ef53c40000000000000000000000000000000000000000000000000058d15e17627fff",
                    "decodedMethod": {
                        "callParams": [
                            {
                                "name": "dst",
                                "type": "address",
                                "value": "0x01089e8e7796cf16789440f8998fc18413ef53c4"
                            },
                            {
                                "decimalAvailable": true,
                                "name": "wad",
                                "type": "uint256",
                                "value": "24,999,999,999,999,999"
                            }
                        ],
                        "constructorArguments": "",
                        "name": "transfer",
                        "returnParams": [
                            {
                                "name": "",
                                "type": "bool",
                                "value": true
                            }
                        ],
                        "signature": "transfer(address,uint256)"
                    },
                    "errorInfo": "",
                    "fromAddress": "0x463672ffded540f7613d3e8248e3a8a51baf7217",
                    "gasUsed": 10962,
                    "id": 10,
                    "methodDecoded": true,
                    "operation": "CALL",
                    "output": "0x0000000000000000000000000000000000000000000000000000000000000001",
                    "revert": false,
                    "revertMessage": "",
                    "selector": "0xa9059cbb",
                    "status": true,
                    "value": "0"
                },
                "nodeType": 0
            },
            "11": {
                "event": {
                    "contract": "0xc02aaa39b223fe8d0a0e5c4f27ead9083c756cc2",
                    "decodedLog": {
                        "name": "Transfer",
                        "params": [
                            {
                                "name": "src",
                                "type": "address",
                                "value": "0x463672ffded540f7613d3e8248e3a8a51baf7217"
                            },
                            {
                                "name": "dst",
                                "type": "address",
                                "value": "0x01089e8e7796cf16789440f8998fc18413ef53c4"
                            },
                            {
                                "decimalAvailable": true,
                                "name": "wad",
                                "type": "uint256",
                                "value": "24,999,999,999,999,999"
                            }
                        ],
                        "signature": "Transfer(address,address,uint256)"
                    },
                    "id": 11,
                    "logData": "0x0000000000000000000000000000000000000000000000000058d15e17627fff",
                    "logDecoded": true,
                    "operation": "EVENT",
                    "revert": false,
                    "status": true,
                    "topics": [
                        "0xddf252ad1be2c89b69c2b068fc378daa952ba7f163c4a11628f55a4df523b3ef",
                        "0x000000000000000000000000463672ffded540f7613d3e8248e3a8a51baf7217",
                        "0x00000000000000000000000001089e8e7796cf16789440f8998fc18413ef53c4"
                    ]
                },
                "nodeType": 1
            },
            "12": {
                "invocation": {
                    "address": "0x01089e8e7796cf16789440f8998fc18413ef53c4",
                    "callData": "0x000000000000000000000000d5fc6e39ac0225742aa261d152346ce4d9f6613a",
                    "decodedMethod": {
                        "callParams": [
                            {
                                "name": "to",
                                "type": "address",
                                "value": "0xd5fc6e39ac0225742aa261d152346ce4d9f6613a"
                            }
                        ],
                        "constructorArguments": "",
                        "name": "mint",
                        "returnParams": [
                            {
                                "name": "liquidity",
                                "type": "uint256",
                                "value": "198,592,312,799,587,830"
                            }
                        ],
                        "signature": "mint(address)"
                    },
                    "errorInfo": "",
                    "fromAddress": "0x463672ffded540f7613d3e8248e3a8a51baf7217",
                    "gasUsed": 75482,
                    "id": 12,
                    "methodDecoded": true,
                    "operation": "CALL",
                    "output": "0x00000000000000000000000000000000000000000000000002c18aa8038aedf6",
                    "revert": false,
                    "revertMessage": "",
                    "selector": "0x6a627842",
                    "status": true,
                    "value": "0"
                },
                "nodeType": 0
            },
            "13": {
                "invocation": {
                    "address": "0x33c6e6fc3df75ae3e9c2482ca1f36be71def2664",
                    "callData": "0x000000000000000000000000d5fc6e39ac0225742aa261d152346ce4d9f6613a",
                    "decodedMethod": {
                        "callParams": [
                            {
                                "name": "to",
                                "type": "address",
                                "value": "0xd5fc6e39ac0225742aa261d152346ce4d9f6613a"
                            }
                        ],
                        "constructorArguments": "",
                        "name": "mint",
                        "returnParams": [
                            {
                                "name": "liquidity",
                                "type": "uint256",
                                "value": "198,592,312,799,587,830"
                            }
                        ],
                        "signature": "mint(address)"
                    },
                    "errorInfo": "",
                    "fromAddress": "0x01089e8e7796cf16789440f8998fc18413ef53c4",
                    "gasUsed": 73711,
                    "id": 13,
                    "methodDecoded": true,
                    "operation": "DELEGATECALL",
                    "output": "0x00000000000000000000000000000000000000000000000002c18aa8038aedf6",
                    "revert": false,
                    "revertMessage": "",
                    "selector": "0x6a627842",
                    "status": true,
                    "value": "0"
                },
                "nodeType": 0
            },
            "14": {
                "invocation": {
                    "address": "0x514910771af9ca656af840dff83e8264ecf986ca",
                    "callData": "0x00000000000000000000000001089e8e7796cf16789440f8998fc18413ef53c4",
                    "decodedMethod": {
                        "callParams": [
                            {
                                "name": "_owner",
                                "type": "address",
                                "value": "0x01089e8e7796cf16789440f8998fc18413ef53c4"
                            }
                        ],
                        "constructorArguments": "",
                        "name": "balanceOf",
                        "returnParams": [
                            {
                                "decimalAvailable": true,
                                "name": "balance",
                                "type": "uint256",
                                "value": "1,390,650,510,634,299,982,748"
                            }
                        ],
                        "signature": "balanceOf(address)"
                    },
                    "errorInfo": "",
                    "fromAddress": "0x01089e8e7796cf16789440f8998fc18413ef53c4",
                    "gasUsed": 1355,
                    "id": 14,
                    "methodDecoded": true,
                    "operation": "STATICCALL",
                    "output": "0x00000000000000000000000000000000000000000000004b632717709108839c",
                    "revert": false,
                    "revertMessage": "",
                    "selector": "0x70a08231",
                    "status": true,
                    "value": "0"
                },
                "nodeType": 0
            },
            "15": {
                "invocation": {
                    "address": "0xc02aaa39b223fe8d0a0e5c4f27ead9083c756cc2",
                    "callData": "0x00000000000000000000000001089e8e7796cf16789440f8998fc18413ef53c4",
                    "decodedMethod": {
                        "callParams": [
                            {
                                "name": "",
                                "type": "address",
                                "value": "0x01089e8e7796cf16789440f8998fc18413ef53c4"
                            }
                        ],
                        "constructorArguments": "",
                        "name": "balanceOf",
                        "returnParams": [
                            {
                                "decimalAvailable": true,
                                "name": "",
                                "type": "uint256",
                                "value": "21,964,734,800,469,981,067"
                            }
                        ],
                        "signature": "balanceOf(address)"
                    },
                    "errorInfo": "",
                    "fromAddress": "0x01089e8e7796cf16789440f8998fc18413ef53c4",
                    "gasUsed": 1234,
                    "id": 15,
                    "methodDecoded": true,
                    "operation": "STATICCALL",
                    "output": "0x00000000000000000000000000000000000000000000000130d269ed47ac778b",
                    "revert": false,
                    "revertMessage": "",
                    "selector": "0x70a08231",
                    "status": true,
                    "value": "0"
                },
                "nodeType": 0
            },
            "16": {
                "invocation": {
                    "address": "0x69bd16ae6f507bd3fc9ecc984d50b04f029ef677",
                    "callData": "0x",
                    "decodedMethod": {
                        "callParams": [],
                        "constructorArguments": "",
                        "name": "feeTo",
                        "returnParams": [
                            {
                                "name": "",
                                "type": "address",
                                "value": "0x0000000000000000000000000000000000000000"
                            }
                        ],
                        "signature": "feeTo()"
                    },
                    "errorInfo": "",
                    "fromAddress": "0x01089e8e7796cf16789440f8998fc18413ef53c4",
                    "gasUsed": 2816,
                    "id": 16,
                    "methodDecoded": true,
                    "operation": "STATICCALL",
                    "output": "0x0000000000000000000000000000000000000000000000000000000000000000",
                    "revert": false,
                    "revertMessage": "",
                    "selector": "0x017e7e58",
                    "status": true,
                    "value": "0"
                },
                "nodeType": 0
            },
            "17": {
                "invocation": {
                    "address": "0xfbacbc64e684c0c5bf572fc6d42458c3e3fd1d1d",
                    "callData": "0x",
                    "decodedMethod": {
                        "callParams": [],
                        "constructorArguments": "",
                        "name": "feeTo",
                        "returnParams": [
                            {
                                "name": "",
                                "type": "address",
                                "value": "0x0000000000000000000000000000000000000000"
                            }
                        ],
                        "signature": "feeTo()"
                    },
                    "errorInfo": "",
                    "fromAddress": "0x69bd16ae6f507bd3fc9ecc984d50b04f029ef677",
                    "gasUsed": 1048,
                    "id": 17,
                    "methodDecoded": true,
                    "operation": "DELEGATECALL",
                    "output": "0x0000000000000000000000000000000000000000000000000000000000000000",
                    "revert": false,
                    "revertMessage": "",
                    "selector": "0x017e7e58",
                    "status": true,
                    "value": "0"
                },
                "nodeType": 0
            },
            "18": {
                "event": {
                    "contract": "0x01089e8e7796cf16789440f8998fc18413ef53c4",
                    "decodedLog": {
                        "name": "Transfer",
                        "params": [
                            {
                                "name": "from",
                                "type": "address",
                                "value": "0x0000000000000000000000000000000000000000"
                            },
                            {
                                "name": "to",
                                "type": "address",
                                "value": "0xd5fc6e39ac0225742aa261d152346ce4d9f6613a"
                            },
                            {
                                "decimalAvailable": true,
                                "name": "value",
                                "type": "uint256",
                                "value": "198,592,312,799,587,830"
                            }
                        ],
                        "signature": "Transfer(address,address,uint256)"
                    },
                    "id": 18,
                    "logData": "0x00000000000000000000000000000000000000000000000002c18aa8038aedf6",
                    "logDecoded": true,
                    "operation": "EVENT",
                    "revert": false,
                    "status": true,
                    "topics": [
                        "0xddf252ad1be2c89b69c2b068fc378daa952ba7f163c4a11628f55a4df523b3ef",
                        "0x0000000000000000000000000000000000000000000000000000000000000000",
                        "0x000000000000000000000000d5fc6e39ac0225742aa261d152346ce4d9f6613a"
                    ]
                },
                "nodeType": 1
            },
            "19": {
                "event": {
                    "contract": "0x01089e8e7796cf16789440f8998fc18413ef53c4",
                    "decodedLog": {
                        "name": "Sync",
                        "params": [
                            {
                                "name": "reserve0",
                                "type": "uint112",
                                "value": "1,390,650,510,634,299,982,748"
                            },
                            {
                                "name": "reserve1",
                                "type": "uint112",
                                "value": "21,964,734,800,469,981,067"
                            }
                        ],
                        "signature": "Sync(uint112,uint112)"
                    },
                    "id": 19,
                    "logData": "0x00000000000000000000000000000000000000000000004b632717709108839c00000000000000000000000000000000000000000000000130d269ed47ac778b",
                    "logDecoded": true,
                    "operation": "EVENT",
                    "revert": false,
                    "status": true,
                    "topics": [
                        "0x1c411e9a96e071241c2f21f7726b17ae89e3cab4c78be50e062b03a9fffbbad1"
                    ]
                },
                "nodeType": 1
            },
            "2": {
                "invocation": {
                    "address": "0x69bd16ae6f507bd3fc9ecc984d50b04f029ef677",
                    "callData": "0x000000000000000000000000514910771af9ca656af840dff83e8264ecf986ca000000000000000000000000c02aaa39b223fe8d0a0e5c4f27ead9083c756cc2",
                    "decodedMethod": {
                        "callParams": [
                            {
                                "name": "",
                                "type": "address",
                                "value": "0x514910771af9ca656af840dff83e8264ecf986ca"
                            },
                            {
                                "name": "",
                                "type": "address",
                                "value": "0xc02aaa39b223fe8d0a0e5c4f27ead9083c756cc2"
                            }
                        ],
                        "constructorArguments": "",
                        "name": "getPair",
                        "returnParams": [
                            {
                                "name": "",
                                "type": "address",
                                "value": "0x01089e8e7796cf16789440f8998fc18413ef53c4"
                            }
                        ],
                        "signature": "getPair(address,address)"
                    },
                    "errorInfo": "",
                    "fromAddress": "0x463672ffded540f7613d3e8248e3a8a51baf7217",
                    "gasUsed": 3015,
                    "id": 2,
                    "methodDecoded": true,
                    "operation": "STATICCALL",
                    "output": "0x00000000000000000000000001089e8e7796cf16789440f8998fc18413ef53c4",
                    "revert": false,
                    "revertMessage": "",
                    "selector": "0xe6a43905",
                    "status": true,
                    "value": "0"
                },
                "nodeType": 0
            },
            "20": {
                "event": {
                    "contract": "0x01089e8e7796cf16789440f8998fc18413ef53c4",
                    "decodedLog": {
                        "name": "Mint",
                        "params": [
                            {
                                "name": "sender",
                                "type": "address",
                                "value": "0x463672ffded540f7613d3e8248e3a8a51baf7217"
                            },
                            {
                                "name": "amount0",
                                "type": "uint256",
                                "value": "1,582,821,877,053,284,670"
                            },
                            {
                                "name": "amount1",
                                "type": "uint256",
                                "value": "24,999,999,999,999,999"
                            }
                        ],
                        "signature": "Mint(address,uint256,uint256)"
                    },
                    "id": 20,
                    "logData": "0x00000000000000000000000000000000000000000000000015f7501c6c7a613e0000000000000000000000000000000000000000000000000058d15e17627fff",
                    "logDecoded": true,
                    "operation": "EVENT",
                    "revert": false,
                    "status": true,
                    "topics": [
                        "0x4c209b5fc8ad50758f13e2e1088ba56a560dff690a1c6fef26394f4c03821c4f",
                        "0x000000000000000000000000463672ffded540f7613d3e8248e3a8a51baf7217"
                    ]
                },
                "nodeType": 1
            },
            "21": {
                "invocation": {
                    "address": "0xd5fc6e39ac0225742aa261d152346ce4d9f6613a",
                    "callData": "0x",
                    "decodedMethod": null,
                    "errorInfo": "",
                    "fromAddress": "0x463672ffded540f7613d3e8248e3a8a51baf7217",
                    "gasUsed": 0,
                    "id": 21,
                    "methodDecoded": false,
                    "operation": "CALL",
                    "output": "",
                    "revert": false,
                    "revertMessage": "",
                    "selector": "fallback",
                    "status": true,
                    "value": "0.000000000000000001"
                },
                "nodeType": 0
            },
            "3": {
                "invocation": {
                    "address": "0xfbacbc64e684c0c5bf572fc6d42458c3e3fd1d1d",
                    "callData": "0x000000000000000000000000514910771af9ca656af840dff83e8264ecf986ca000000000000000000000000c02aaa39b223fe8d0a0e5c4f27ead9083c756cc2",
                    "decodedMethod": {
                        "callParams": [
                            {
                                "name": "",
                                "type": "address",
                                "value": "0x514910771af9ca656af840dff83e8264ecf986ca"
                            },
                            {
                                "name": "",
                                "type": "address",
                                "value": "0xc02aaa39b223fe8d0a0e5c4f27ead9083c756cc2"
                            }
                        ],
                        "constructorArguments": "",
                        "name": "getPair",
                        "returnParams": [
                            {
                                "name": "",
                                "type": "address",
                                "value": "0x01089e8e7796cf16789440f8998fc18413ef53c4"
                            }
                        ],
                        "signature": "getPair(address,address)"
                    },
                    "errorInfo": "",
                    "fromAddress": "0x69bd16ae6f507bd3fc9ecc984d50b04f029ef677",
                    "gasUsed": 1242,
                    "id": 3,
                    "methodDecoded": true,
                    "operation": "DELEGATECALL",
                    "output": "0x00000000000000000000000001089e8e7796cf16789440f8998fc18413ef53c4",
                    "revert": false,
                    "revertMessage": "",
                    "selector": "0xe6a43905",
                    "status": true,
                    "value": "0"
                },
                "nodeType": 0
            },
            "4": {
                "invocation": {
                    "address": "0x01089e8e7796cf16789440f8998fc18413ef53c4",
                    "callData": "0x",
                    "decodedMethod": {
                        "callParams": [],
                        "constructorArguments": "",
                        "name": "getReserves",
                        "returnParams": [
                            {
                                "name": "_reserve0",
                                "type": "uint112",
                                "value": "1,389,067,688,757,246,698,078"
                            },
                            {
                                "name": "_reserve1",
                                "type": "uint112",
                                "value": "21,939,734,800,469,981,068"
                            },
                            {
                                "name": "_blockTimestampLast",
                                "type": "uint32",
                                "value": "1,609,596,833"
                            }
                        ],
                        "signature": "getReserves()"
                    },
                    "errorInfo": "",
                    "fromAddress": "0x463672ffded540f7613d3e8248e3a8a51baf7217",
                    "gasUsed": 2978,
                    "id": 4,
                    "methodDecoded": true,
                    "operation": "STATICCALL",
                    "output": "0x00000000000000000000000000000000000000000000004b4d2fc754248e225e0000000000000000000000000000000000000000000000013079988f3049f78c000000000000000000000000000000000000000000000000000000005ff07fa1",
                    "revert": false,
                    "revertMessage": "",
                    "selector": "0x0902f1ac",
                    "status": true,
                    "value": "0"
                },
                "nodeType": 0
            },
            "5": {
                "invocation": {
                    "address": "0x33c6e6fc3df75ae3e9c2482ca1f36be71def2664",
                    "callData": "0x",
                    "decodedMethod": {
                        "callParams": [],
                        "constructorArguments": "",
                        "name": "getReserves",
                        "returnParams": [
                            {
                                "name": "_reserve0",
                                "type": "uint112",
                                "value": "1,389,067,688,757,246,698,078"
                            },
                            {
                                "name": "_reserve1",
                                "type": "uint112",
                                "value": "21,939,734,800,469,981,068"
                            },
                            {
                                "name": "_blockTimestampLast",
                                "type": "uint32",
                                "value": "1,609,596,833"
                            }
                        ],
                        "signature": "getReserves()"
                    },
                    "errorInfo": "",
                    "fromAddress": "0x01089e8e7796cf16789440f8998fc18413ef53c4",
                    "gasUsed": 1204,
                    "id": 5,
                    "methodDecoded": true,
                    "operation": "DELEGATECALL",
                    "output": "0x00000000000000000000000000000000000000000000004b4d2fc754248e225e0000000000000000000000000000000000000000000000013079988f3049f78c000000000000000000000000000000000000000000000000000000005ff07fa1",
                    "revert": false,
                    "revertMessage": "",
                    "selector": "0x0902f1ac",
                    "status": true,
                    "value": "0"
                },
                "nodeType": 0
            },
            "6": {
                "invocation": {
                    "address": "0x514910771af9ca656af840dff83e8264ecf986ca",
                    "callData": "0x000000000000000000000000d5fc6e39ac0225742aa261d152346ce4d9f6613a00000000000000000000000001089e8e7796cf16789440f8998fc18413ef53c400000000000000000000000000000000000000000000000015f7501c6c7a613e",
                    "decodedMethod": {
                        "callParams": [
                            {
                                "name": "_from",
                                "type": "address",
                                "value": "0xd5fc6e39ac0225742aa261d152346ce4d9f6613a"
                            },
                            {
                                "name": "_to",
                                "type": "address",
                                "value": "0x01089e8e7796cf16789440f8998fc18413ef53c4"
                            },
                            {
                                "decimalAvailable": true,
                                "name": "_value",
                                "type": "uint256",
                                "value": "1,582,821,877,053,284,670"
                            }
                        ],
                        "constructorArguments": "",
                        "name": "transferFrom",
                        "returnParams": [
                            {
                                "name": "",
                                "type": "bool",
                                "value": true
                            }
                        ],
                        "signature": "transferFrom(address,address,uint256)"
                    },
                    "errorInfo": "",
                    "fromAddress": "0x463672ffded540f7613d3e8248e3a8a51baf7217",
                    "gasUsed": 21100,
                    "id": 6,
                    "methodDecoded": true,
                    "operation": "CALL",
                    "output": "0x0000000000000000000000000000000000000000000000000000000000000001",
                    "revert": false,
                    "revertMessage": "",
                    "selector": "0x23b872dd",
                    "status": true,
                    "value": "0"
                },
                "nodeType": 0
            },
            "7": {
                "event": {
                    "contract": "0x514910771af9ca656af840dff83e8264ecf986ca",
                    "decodedLog": {
                        "name": "Transfer",
                        "params": [
                            {
                                "name": "from",
                                "type": "address",
                                "value": "0xd5fc6e39ac0225742aa261d152346ce4d9f6613a"
                            },
                            {
                                "name": "to",
                                "type": "address",
                                "value": "0x01089e8e7796cf16789440f8998fc18413ef53c4"
                            },
                            {
                                "decimalAvailable": true,
                                "name": "value",
                                "type": "uint256",
                                "value": "1,582,821,877,053,284,670"
                            }
                        ],
                        "signature": "Transfer(address,address,uint256)"
                    },
                    "id": 7,
                    "logData": "0x00000000000000000000000000000000000000000000000015f7501c6c7a613e",
                    "logDecoded": true,
                    "operation": "EVENT",
                    "revert": false,
                    "status": true,
                    "topics": [
                        "0xddf252ad1be2c89b69c2b068fc378daa952ba7f163c4a11628f55a4df523b3ef",
                        "0x000000000000000000000000d5fc6e39ac0225742aa261d152346ce4d9f6613a",
                        "0x00000000000000000000000001089e8e7796cf16789440f8998fc18413ef53c4"
                    ]
                },
                "nodeType": 1
            },
            "8": {
                "invocation": {
                    "address": "0xc02aaa39b223fe8d0a0e5c4f27ead9083c756cc2",
                    "callData": "0x",
                    "decodedMethod": {
                        "callParams": [],
                        "constructorArguments": "",
                        "name": "deposit",
                        "returnParams": [],
                        "signature": "deposit()"
                    },
                    "errorInfo": "",
                    "fromAddress": "0x463672ffded540f7613d3e8248e3a8a51baf7217",
                    "gasUsed": 22674,
                    "id": 8,
                    "methodDecoded": true,
                    "operation": "CALL",
                    "output": "",
                    "revert": false,
                    "revertMessage": "",
                    "selector": "0xd0e30db0",
                    "status": true,
                    "value": "0.024999999999999999"
                },
                "nodeType": 0
            },
            "9": {
                "event": {
                    "contract": "0xc02aaa39b223fe8d0a0e5c4f27ead9083c756cc2",
                    "decodedLog": {
                        "name": "Deposit",
                        "params": [
                            {
                                "name": "dst",
                                "type": "address",
                                "value": "0x463672ffded540f7613d3e8248e3a8a51baf7217"
                            },
                            {
                                "name": "wad",
                                "type": "uint256",
                                "value": "24,999,999,999,999,999"
                            }
                        ],
                        "signature": "Deposit(address,uint256)"
                    },
                    "id": 9,
                    "logData": "0x0000000000000000000000000000000000000000000000000058d15e17627fff",
                    "logDecoded": true,
                    "operation": "EVENT",
                    "revert": false,
                    "status": true,
                    "topics": [
                        "0xe1fffcc4923d04b559f4d29a8bfc6cda04eb5b0d3c460751c2402c5c5cc9109c",
                        "0x000000000000000000000000463672ffded540f7613d3e8248e3a8a51baf7217"
                    ]
                },
                "nodeType": 1
            }
        },
        "gasFlame": [
            {
                "children": [
                    {
                        "children": [
                            {
                                "children": [],
                                "depth": 0,
                                "name": "Initial Gas",
                                "value": 22624
                            },
                            {
                                "children": [
                                    {
                                        "children": [
                                            {
                                                "children": [
                                                    {
                                                        "children": [],
                                                        "depth": 3,
                                                        "name": "getPair",
                                                        "value": 1242
                                                    }
                                                ],
                                                "depth": 2,
                                                "name": "getPair",
                                                "value": 3015
                                            },
                                            {
                                                "children": [
                                                    {
                                                        "children": [],
                                                        "depth": 3,
                                                        "name": "getReserves",
                                                        "value": 1204
                                                    }
                                                ],
                                                "depth": 2,
                                                "name": "getReserves",
                                                "value": 2978
                                            },
                                            {
                                                "children": [],
                                                "depth": 2,
                                                "name": "transferFrom",
                                                "value": 21100
                                            },
                                            {
                                                "children": [],
                                                "depth": 2,
                                                "name": "deposit",
                                                "value": 22674
                                            },
                                            {
                                                "children": [],
                                                "depth": 2,
                                                "name": "transfer",
                                                "value": 10962
                                            },
                                            {
                                                "children": [
                                                    {
                                                        "children": [
                                                            {
                                                                "children": [],
                                                                "depth": 4,
                                                                "name": "balanceOf",
                                                                "value": 1355
                                                            },
                                                            {
                                                                "children": [],
                                                                "depth": 4,
                                                                "name": "balanceOf",
                                                                "value": 1234
                                                            },
                                                            {
                                                                "children": [
                                                                    {
                                                                        "children": [],
                                                                        "depth": 5,
                                                                        "name": "feeTo",
                                                                        "value": 1048
                                                                    }
                                                                ],
                                                                "depth": 4,
                                                                "name": "feeTo",
                                                                "value": 2816
                                                            }
                                                        ],
                                                        "depth": 3,
                                                        "name": "mint",
                                                        "value": 73711
                                                    }
                                                ],
                                                "depth": 2,
                                                "name": "mint",
                                                "value": 75482
                                            },
                                            {
                                                "children": [],
                                                "depth": 2,
                                                "name": "fallback",
                                                "value": 0
                                            }
                                        ],
                                        "depth": 1,
                                        "name": "addLiquidityETH",
                                        "value": 168782
                                    }
                                ],
                                "depth": 0,
                                "name": "Executed Gas",
                                "value": 170585
                            }
                        ],
                        "depth": -1,
                        "name": "Actual Gas Used",
                        "value": 169809
                    },
                    {
                        "children": [],
                        "depth": -1,
                        "name": "Refunded Gas",
                        "value": 23400
                    }
                ],
                "depth": -2,
                "name": "Total Gas",
                "value": 193209
            }
        ],
        "isConfirmed": true,
        "mainTrace": [
            {
                "children": [
                    {
                        "children": [
                            {
                                "children": [
                                    {
                                        "children": [
                                            {
                                                "children": [],
                                                "depth": 3,
                                                "id": 3,
                                                "order": 3
                                            }
                                        ],
                                        "depth": 2,
                                        "id": 2,
                                        "order": 2
                                    },
                                    {
                                        "children": [
                                            {
                                                "children": [],
                                                "depth": 3,
                                                "id": 5,
                                                "order": 5
                                            }
                                        ],
                                        "depth": 2,
                                        "id": 4,
                                        "order": 4
                                    },
                                    {
                                        "children": [
                                            {
                                                "children": [],
                                                "depth": 3,
                                                "id": 7,
                                                "order": 7
                                            }
                                        ],
                                        "depth": 2,
                                        "id": 6,
                                        "order": 6
                                    },
                                    {
                                        "children": [
                                            {
                                                "children": [],
                                                "depth": 3,
                                                "id": 9,
                                                "order": 9
                                            }
                                        ],
                                        "depth": 2,
                                        "id": 8,
                                        "order": 8
                                    },
                                    {
                                        "children": [
                                            {
                                                "children": [],
                                                "depth": 3,
                                                "id": 11,
                                                "order": 11
                                            }
                                        ],
                                        "depth": 2,
                                        "id": 10,
                                        "order": 10
                                    },
                                    {
                                        "children": [
                                            {
                                                "children": [
                                                    {
                                                        "children": [],
                                                        "depth": 4,
                                                        "id": 14,
                                                        "order": 14
                                                    },
                                                    {
                                                        "children": [],
                                                        "depth": 4,
                                                        "id": 15,
                                                        "order": 15
                                                    },
                                                    {
                                                        "children": [
                                                            {
                                                                "children": [],
                                                                "depth": 5,
                                                                "id": 17,
                                                                "order": 17
                                                            }
                                                        ],
                                                        "depth": 4,
                                                        "id": 16,
                                                        "order": 16
                                                    },
                                                    {
                                                        "children": [],
                                                        "depth": 4,
                                                        "id": 18,
                                                        "order": 18
                                                    },
                                                    {
                                                        "children": [],
                                                        "depth": 4,
                                                        "id": 19,
                                                        "order": 19
                                                    },
                                                    {
                                                        "children": [],
                                                        "depth": 4,
                                                        "id": 20,
                                                        "order": 20
                                                    }
                                                ],
                                                "depth": 3,
                                                "id": 13,
                                                "order": 13
                                            }
                                        ],
                                        "depth": 2,
                                        "id": 12,
                                        "order": 12
                                    },
                                    {
                                        "children": [],
                                        "depth": 2,
                                        "id": 21,
                                        "order": 21
                                    }
                                ],
                                "depth": 1,
                                "id": 1,
                                "order": 1
                            }
                        ],
                        "depth": 0,
                        "id": 0,
                        "order": 0
                    }
                ],
                "depth": -1,
                "id": -1,
                "order": -1
            }
        ],
        "mainTraceNodeCount": 22,
        "parentIdMap": {
            "0": -1,
            "1": 0,
            "10": 1,
            "11": 10,
            "12": 1,
            "13": 12,
            "14": 13,
            "15": 13,
            "16": 13,
            "17": 16,
            "18": 13,
            "19": 13,
            "2": 1,
            "20": 13,
            "21": 1,
            "3": 2,
            "4": 1,
            "5": 4,
            "6": 1,
            "7": 6,
            "8": 1,
            "9": 8
        },
        "tidyTrace": [
            {
                "children": [
                    {
                        "children": [
                            {
                                "children": [
                                    {
                                        "children": [
                                            {
                                                "children": [],
                                                "depth": 3,
                                                "id": 7,
                                                "order": 7
                                            }
                                        ],
                                        "depth": 2,
                                        "id": 6,
                                        "order": 6
                                    },
                                    {
                                        "children": [
                                            {
                                                "children": [],
                                                "depth": 3,
                                                "id": 9,
                                                "order": 9
                                            }
                                        ],
                                        "depth": 2,
                                        "id": 8,
                                        "order": 8
                                    },
                                    {
                                        "children": [
                                            {
                                                "children": [],
                                                "depth": 3,
                                                "id": 11,
                                                "order": 11
                                            }
                                        ],
                                        "depth": 2,
                                        "id": 10,
                                        "order": 10
                                    },
                                    {
                                        "children": [
                                            {
                                                "children": [
                                                    {
                                                        "children": [],
                                                        "depth": 4,
                                                        "id": 18,
                                                        "order": 18
                                                    },
                                                    {
                                                        "children": [],
                                                        "depth": 4,
                                                        "id": 19,
                                                        "order": 19
                                                    },
                                                    {
                                                        "children": [],
                                                        "depth": 4,
                                                        "id": 20,
                                                        "order": 20
                                                    }
                                                ],
                                                "depth": 3,
                                                "id": 13,
                                                "order": 13
                                            }
                                        ],
                                        "depth": 2,
                                        "id": 12,
                                        "order": 12
                                    },
                                    {
                                        "children": [],
                                        "depth": 2,
                                        "id": 21,
                                        "order": 21
                                    }
                                ],
                                "depth": 1,
                                "id": 1,
                                "order": 1
                            }
                        ],
                        "depth": 0,
                        "id": 0,
                        "order": 0
                    }
                ],
                "depth": -1,
                "id": -1,
                "order": -1
            }
        ],
        "tidyTraceNodeCount": 14
    },
    "state_change": {
        "stateChanges": [
            {
                "address": "0x01089e8e7796cf16789440f8998fc18413ef53c4",
                "erc": "ERC-20",
                "slots": [
                    {
                        "current": "0x5ff11a4100000000000130d269ed47ac778b00000000004b632717709108839c",
                        "key": "0x0000000000000000000000000000000000000000000000000000000000000008",
                        "prev": "0x5ff07fa10000000000013079988f3049f78c00000000004b4d2fc754248e225e"
                    },
                    {
                        "current": "0x0000000000000000000000000000000000000000000000097569636def648f73",
                        "key": "0x0000000000000000000000000000000000000000000000000000000000000000",
                        "prev": "0x00000000000000000000000000000000000000000000000972a7d8c5ebd9a17d"
                    },
                    {
                        "current": "0x00000000000000000000000000000000000000000000000002c18aa8038aedf6",
                        "key": "0x3c1fac70bfb9a14c90115adc0fb4c55ae0dafe6e97603efa1dda313097359cb0",
                        "prev": "0x0000000000000000000000000000000000000000000000000000000000000000"
                    },
                    {
                        "current": "0x0000000000000000000000000000000198031403a75a2069b6a1da4deb02273f",
                        "key": "0x0000000000000000000000000000000000000000000000000000000000000009",
                        "prev": "0x000000000000000000000000000000019591dd9e32b2b6e4d9675ec511287f7f"
                    },
                    {
                        "current": "0x00000000000000000000000000000c79bdcae61db79b36c2ad2ce4ca45b730ad",
                        "key": "0x000000000000000000000000000000000000000000000000000000000000000a",
                        "prev": "0x00000000000000000000000000000c53800a0d38451540227a8a04c04780780d"
                    }
                ],
                "storageVariables": [
                    {
                        "name": "price1CumulativeLast",
                        "type": "uint256",
                        "value": {
                            "current": "1086773875181033935925411050962952107012269",
                            "prev": "1073761061010119388911212736266822001653773",
                            "typeTag": 1
                        }
                    },
                    {
                        "name": "reserve0",
                        "type": "uint112",
                        "value": {
                            "current": "1390650510634299982748",
                            "prev": "1389067688757246698078",
                            "typeTag": 1
                        }
                    },
                    {
                        "name": "reserve1",
                        "type": "uint112",
                        "value": {
                            "current": "21964734800469981067",
                            "prev": "21939734800469981068",
                            "typeTag": 1
                        }
                    },
                    {
                        "name": "blockTimestampLast",
                        "type": "uint32",
                        "value": {
                            "current": "1609636417",
                            "prev": "1609596833",
                            "typeTag": 1
                        }
                    },
                    {
                        "name": "totalSupply",
                        "type": "uint256",
                        "value": {
                            "current": "174481099362197081971",
                            "prev": "174282507049397494141",
                            "typeTag": 1
                        }
                    },
                    {
                        "name": "balanceOf",
                        "type": "mapping(address => uint256)",
                        "value": {
                            "pairs": [
                                {
                                    "key": "0xd5fc6e39ac0225742aa261d152346ce4d9f6613a",
                                    "value": {
                                        "current": "198592312799587830",
                                        "prev": "0",
                                        "typeTag": 1
                                    }
                                }
                            ],
                            "typeTag": 4
                        }
                    },
                    {
                        "name": "price0CumulativeLast",
                        "type": "uint256",
                        "value": {
                            "current": "542341005108490794233565926094280992575",
                            "prev": "539094716283640865784289596043619237759",
                            "typeTag": 1
                        }
                    }
                ]
            },
            {
                "address": "0x514910771af9ca656af840dff83e8264ecf986ca",
                "erc": "",
                "slots": [
                    {
                        "current": "0xffffffffffffffffffffffffffffffffffffffffffffffffea08afe393859ec1",
                        "key": "0x12fb1d7195bea13acd798f11767c14a53c2484f9f0fccc52c8d85e6cc0a55b6e",
                        "prev": "0xffffffffffffffffffffffffffffffffffffffffffffffffffffffffffffffff"
                    },
                    {
                        "current": "0x00000000000000000000000000000000000000000000000015a2327ed3a02aa3",
                        "key": "0x3c1fac70bfb9a14c90115adc0fb4c55ae0dafe6e97603efa1dda313097359cb0",
                        "prev": "0x0000000000000000000000000000000000000000000000002b99829b401a8be1"
                    },
                    {
                        "current": "0x00000000000000000000000000000000000000000000004b632717709108839c",
                        "key": "0x8514ff793f0227457031c699ae7da113bd3a58da5f40de539c197a00fa602fd3",
                        "prev": "0x00000000000000000000000000000000000000000000004b4d2fc754248e225e"
                    }
                ],
                "storageVariables": [
                    {
                        "name": "allowed",
                        "type": "mapping(address => mapping(address => uint256))",
                        "value": {
                            "pairs": [
                                {
                                    "key": "0xd5fc6e39ac0225742aa261d152346ce4d9f6613a",
                                    "value": {
                                        "pairs": [
                                            {
                                                "key": "0x463672ffded540f7613d3e8248e3a8a51baf7217",
                                                "value": {
                                                    "current": "115792089237316195423570985008687907853269984665640564039456001186036076355265",
                                                    "prev": "115792089237316195423570985008687907853269984665640564039457584007913129639935",
                                                    "typeTag": 1
                                                }
                                            }
                                        ],
                                        "typeTag": 4
                                    }
                                }
                            ],
                            "typeTag": 4
                        }
                    },
                    {
                        "name": "balances",
                        "type": "mapping(address => uint256)",
                        "value": {
                            "pairs": [
                                {
                                    "key": "0x01089e8e7796cf16789440f8998fc18413ef53c4",
                                    "value": {
                                        "current": "1390650510634299982748",
                                        "prev": "1389067688757246698078",
                                        "typeTag": 1
                                    }
                                },
                                {
                                    "key": "0xd5fc6e39ac0225742aa261d152346ce4d9f6613a",
                                    "value": {
                                        "current": "1558863941321370275",
                                        "prev": "3141685818374654945",
                                        "typeTag": 1
                                    }
                                }
                            ],
                            "typeTag": 4
                        }
                    }
                ]
            },
            {
                "address": "0xc02aaa39b223fe8d0a0e5c4f27ead9083c756cc2",
                "erc": "ERC-20",
                "slots": [
                    {
                        "current": "0x00000000000000000000000000000000000000000000000130d269ed47ac778b",
                        "key": "0xb406337c288937b7172ca39a510417ee6e8650d1c91ddc9c65d5b59d3b851e03",
                        "prev": "0x0000000000000000000000000000000000000000000000013079988f3049f78c"
                    }
                ],
                "storageVariables": [
                    {
                        "name": "balanceOf",
                        "type": "mapping(address => uint256)",
                        "value": {
                            "pairs": [
                                {
                                    "key": "0x01089e8e7796cf16789440f8998fc18413ef53c4",
                                    "value": {
                                        "current": "21964734800469981067",
                                        "prev": "21939734800469981068",
                                        "typeTag": 1
                                    }
                                }
                            ],
                            "typeTag": 4
                        }
                    }
                ]
            }
        ]
    }
}