{
    "balance_change": {
        "balanceChanges": []
    },
    "profile": {
        "basic_info": {
            "baseFee": "",
            "blockNumber": 2325843,
            "callData": "0x0a19b14a0000000000000000000000000000000000000000000000000000000000000000000000000000000000000000000000000000000000000002c8da77993f1a4000000000000000000000000000d8912c10681d8b21fd3742244f44658dba12264e00000000000000000000000000000000000000000000000ea7dc249fd2db000000000000000000000000000000000000000000000000000000000000002380eb00000000000000000000000000000000000000000000000000000000f56e2ee60000000000000000000000000a2f1b1370924ccff4ec7e547f959d740e0367db000000000000000000000000000000000000000000000000000000000000001c1923e2ff17833707dee121201bc2c1f2f4b51f717f19c26ebb83eef8c3576e3c6f961ea00c3d980c7522e4adbdd695de159723f5e38cc0a0ab865d64ddad00150000000000000000000000000000000000000000000000014edefb275e2d0000",
            "debugEnable": true,
            "errorInfo": "",
            "eventCount": 1,
            "feeRecipient": "0xea674fdde714fd979de3edf0f56aa9716b898ec8",
            "formatValue": "0",
            "gasLimit": 1000000,
            "gasPrice": "20",
            "gasUsed": 93892,
            "intTxnCount": 2,
            "internalRevert": false,
            "internalRevertMessage": "",
            "isContractCreation": false,
            "isFlashloan": false,
            "maxFee": "",
            "nonce": 20,
            "overwritedBlockNumber": -1,
            "priorityFee": "",
            "receiver": "0x4aea7cf559f67cedcad07e12ae6bc00f07e8cf65",
            "revertMessage": "",
            "sender": "0xb41da7b04a492bc5685ec0f4fb18cb1f91795655",
            "simulationEnable": true,
            "sourceTxnHash": "0x8ed03854626b2b4fdf8ea3a1ab3a7ff1304d3fa91aa610dbb6901d8b25f118e5",
            "status": true,
            "timestamp": "2016-09-25T18:37:17Z",
            "transactionFee": "0.00187784",
            "txnHash": "0x8ed03854626b2b4fdf8ea3a1ab3a7ff1304d3fa91aa610dbb6901d8b25f118e5",
            "txnIndex": 1,
            "type": 0,
            "value": "0"
        },
        "fund_flow": [],
        "token_infos": [
            {
                "address": "0xc02aaa39b223fe8d0a0e5c4f27ead9083c756cc2",
                "decimals": 18
            },
            {
                "address": "0xeeeeeeeeeeeeeeeeeeeeeeeeeeeeeeeeeeeeeeee",
                "decimals": 18
            }
        ]
    },
    "address_label": {
        "labels": [
            {
                "address": "0x4aea7cf559f67cedcad07e12ae6bc00f07e8cf65",
                "label": "EtherDelta 1"
            },
            {
                "address": "0x0000000000000000000000000000000000000002",
                "label": "Precompiled"
            },
            {
                "address": "0xd8912c10681d8b21fd3742244f44658dba12264e",
                "label": "Pluton Token"
            },
            {
                "address": "0x0000000000000000000000000000000000000000",
                "label": "Null Address"
            },
            {
                "address": "0x0000000000000000000000000000000000000001",
                "label": "Precompiled"
            },
            {
                "address": "0x0000000000000000000000000000000000000003",
                "label": "Precompiled"
            },
            {
                "address": "0x0000000000000000000000000000000000000004",
                "label": "Precompiled"
            },
            {
                "address": "0xeeeeeeeeeeeeeeeeeeeeeeeeeeeeeeeeeeeeeeee",
                "label": "Ether"
            }
        ]
    },
    "trace": {
        "accountLabels": null,
        "dataMap": {
            "-1": {
                "invocation": {
                    "address": "0xb41da7b04a492bc5685ec0f4fb18cb1f91795655",
                    "callData": "",
                    "decodedMethod": null,
                    "errorInfo": "",
                    "fromAddress": "",
                    "gasUsed": 0,
                    "id": -1,
                    "methodDecoded": false,
                    "operation": "",
                    "output": "",
                    "revert": false,
                    "revertMessage": "",
                    "selector": "",
                    "status": false,
                    "value": ""
                },
                "nodeType": 0
            },
            "0": {
                "invocation": {
                    "address": "0x4aea7cf559f67cedcad07e12ae6bc00f07e8cf65",
                    "callData": "0x0000000000000000000000000000000000000000000000000000000000000000000000000000000000000000000000000000000000000002c8da77993f1a4000000000000000000000000000d8912c10681d8b21fd3742244f44658dba12264e00000000000000000000000000000000000000000000000ea7dc249fd2db000000000000000000000000000000000000000000000000000000000000002380eb00000000000000000000000000000000000000000000000000000000f56e2ee60000000000000000000000000a2f1b1370924ccff4ec7e547f959d740e0367db000000000000000000000000000000000000000000000000000000000000001c1923e2ff17833707dee121201bc2c1f2f4b51f717f19c26ebb83eef8c3576e3c6f961ea00c3d980c7522e4adbdd695de159723f5e38cc0a0ab865d64ddad00150000000000000000000000000000000000000000000000014edefb275e2d0000",
                    "decodedMethod": {
                        "callParams": [
                            {
                                "name": "tokenGet",
                                "type": "address",
                                "value": "0x0000000000000000000000000000000000000000"
                            },
                            {
                                "name": "amountGet",
                                "type": "uint256",
                                "value": "51,366,500,000,000,000,000"
                            },
                            {
                                "name": "tokenGive",
                                "type": "address",
                                "value": "0xd8912c10681d8b21fd3742244f44658dba12264e"
                            },
                            {
                                "name": "amountGive",
                                "type": "uint256",
                                "value": "270,350,000,000,000,000,000"
                            },
                            {
                                "name": "expires",
                                "type": "uint256",
                                "value": "2,326,763"
                            },
                            {
                                "name": "nonce",
                                "type": "uint256",
                                "value": "4,117,638,886"
                            },
                            {
                                "name": "user",
                                "type": "address",
                                "value": "0x0a2f1b1370924ccff4ec7e547f959d740e0367db"
                            },
                            {
                                "name": "v",
                                "type": "uint8",
                                "value": "28"
                            },
                            {
                                "name": "r",
                                "type": "bytes32",
                                "value": "0x1923e2ff17833707dee121201bc2c1f2f4b51f717f19c26ebb83eef8c3576e3c"
                            },
                            {
                                "name": "s",
                                "type": "bytes32",
                                "value": "0x6f961ea00c3d980c7522e4adbdd695de159723f5e38cc0a0ab865d64ddad0015"
                            },
                            {
                                "name": "amount",
                                "type": "uint256",
                                "value": "24,130,000,000,000,000,000"
                            }
                        ],
                        "constructorArguments": "",
                        "name": "trade",
                        "returnParams": [],
                        "signature": "trade(address,uint256,address,uint256,uint256,uint256,address,uint8,bytes32,bytes32,uint256)"
                    },
                    "errorInfo": "",
                    "fromAddress": "0xb41da7b04a492bc5685ec0f4fb18cb1f91795655",
                    "gasUsed": 93892,
                    "id": 0,
                    "methodDecoded": true,
                    "operation": "CALL",
                    "output": "",
                    "revert": false,
                    "revertMessage": "",
                    "selector": "0x0a19b14a",
                    "status": true,
                    "value": "0"
                },
                "nodeType": 0
            },
            "1": {
                "invocation": {
                    "address": "0x0000000000000000000000000000000000000002",
                    "callData": "0x00000000000000000000000000000000000000000000000000000000000000000000000000000002c8da77993f1a4000d8912c10681d8b21fd3742244f44658dba12264e00000000000000000000000000000000000000000000000ea7dc249fd2db000000000000000000000000000000000000000000000000000000000000002380eb00000000000000000000000000000000000000000000000000000000f56e2ee6",
                    "decodedMethod": {
                        "callParams": [
                            {
                                "name": "data",
                                "type": "bytes",
                                "value": "0x0000000000000000000000000000000000000000000000000000000000000000000000000000000000000002c8da77993f1a4000d8912c10681d8b21fd3742244f44658dba12264e00000000000000000000000000000000000000000000000ea7dc249fd2db000000000000000000000000000000000000000000000000000000000000002380eb00000000000000000000000000000000000000000000000000000000f56e2ee6"
                            }
                        ],
                        "constructorArguments": "",
                        "name": "sha256hash",
                        "returnParams": [
                            {
                                "name": "hash",
                                "type": "bytes32",
                                "value": "0x8ff6be01fb392394b9b9c3e8e88e70e89ce411dd5c83009873eca5571c2b5a9b"
                            }
                        ],
                        "signature": "sha256hash(bytes)"
                    },
                    "errorInfo": "",
                    "fromAddress": "0x4aea7cf559f67cedcad07e12ae6bc00f07e8cf65",
                    "gasUsed": 132,
                    "id": 1,
                    "methodDecoded": true,
                    "operation": "CALL",
                    "output": "0x8ff6be01fb392394b9b9c3e8e88e70e89ce411dd5c83009873eca5571c2b5a9b",
                    "revert": false,
                    "revertMessage": "",
                    "selector": "0x00000000",
                    "status": true,
                    "value": "0"
                },
                "nodeType": 0
            },
            "2": {
                "invocation": {
                    "address": "0x0000000000000000000000000000000000000001",
                    "callData": "0xfb392394b9b9c3e8e88e70e89ce411dd5c83009873eca5571c2b5a9b000000000000000000000000000000000000000000000000000000000000001c1923e2ff17833707dee121201bc2c1f2f4b51f717f19c26ebb83eef8c3576e3c6f961ea00c3d980c7522e4adbdd695de159723f5e38cc0a0ab865d64ddad0015",
                    "decodedMethod": {
                        "callParams": [
                            {
                                "name": "hash",
                                "type": "bytes32",
                                "value": "0x8ff6be01fb392394b9b9c3e8e88e70e89ce411dd5c83009873eca5571c2b5a9b"
                            },
                            {
                                "name": "v",
                                "type": "uint256",
                                "value": "28"
                            },
                            {
                                "name": "r",
                                "type": "bytes32",
                                "value": "0x1923e2ff17833707dee121201bc2c1f2f4b51f717f19c26ebb83eef8c3576e3c"
                            },
                            {
                                "name": "s",
                                "type": "bytes32",
                                "value": "0x6f961ea00c3d980c7522e4adbdd695de159723f5e38cc0a0ab865d64ddad0015"
                            }
                        ],
                        "constructorArguments": "",
                        "name": "ecrecover",
                        "returnParams": [
                            {
                                "name": "",
                                "type": "address",
                                "value": "0x0a2f1b1370924ccff4ec7e547f959d740e0367db"
                            }
                        ],
                        "signature": "ecrecover(bytes32,uint256,bytes32,bytes32)"
                    },
                    "errorInfo": "",
                    "fromAddress": "0x4aea7cf559f67cedcad07e12ae6bc00f07e8cf65",
                    "gasUsed": 3000,
                    "id": 2,
                    "methodDecoded": true,
                    "operation": "CALL",
                    "output": "0x0000000000000000000000000a2f1b1370924ccff4ec7e547f959d740e0367db",
                    "revert": false,
                    "revertMessage": "",
                    "selector": "0x8ff6be01",
                    "status": true,
                    "value": "0"
                },
                "nodeType": 0
            },
            "3": {
                "event": {
                    "contract": "0x4aea7cf559f67cedcad07e12ae6bc00f07e8cf65",
                    "decodedLog": {
                        "name": "Trade",
                        "params": [
                            {
                                "name": "tokenGet",
                                "type": "address",
                                "value": "0x0000000000000000000000000000000000000000"
                            },
                            {
                                "name": "amountGet",
                                "type": "uint256",
                                "value": "24,130,000,000,000,000,000"
                            },
                            {
                                "name": "tokenGive",
                                "type": "address",
                                "value": "0xd8912c10681d8b21fd3742244f44658dba12264e"
                            },
                            {
                                "name": "amountGive",
                                "type": "uint256",
                                "value": "127,000,000,000,000,000,000"
                            },
                            {
                                "name": "get",
                                "type": "address",
                                "value": "0x0a2f1b1370924ccff4ec7e547f959d740e0367db"
                            },
                            {
                                "name": "give",
                                "type": "address",
                                "value": "0xb41da7b04a492bc5685ec0f4fb18cb1f91795655"
                            }
                        ],
                        "signature": "Trade(address,uint256,address,uint256,address,address)"
                    },
                    "id": 3,
                    "logData": "0x00000000000000000000000000000000000000000000000000000000000000000000000000000000000000000000000000000000000000014edefb275e2d0000000000000000000000000000d8912c10681d8b21fd3742244f44658dba12264e000000000000000000000000000000000000000000000006e27aa3200a9c00000000000000000000000000000a2f1b1370924ccff4ec7e547f959d740e0367db000000000000000000000000b41da7b04a492bc5685ec0f4fb18cb1f91795655",
                    "logDecoded": true,
                    "operation": "EVENT",
                    "revert": false,
                    "status": true,
                    "topics": [
                        "0x6effdda786735d5033bfad5f53e5131abcced9e52be6c507b62d639685fbed6d"
                    ]
                },
                "nodeType": 1
            }
        },
        "gasFlame": [
            {
                "children": [
                    {
                        "children": [
                            {
                                "children": [],
                                "depth": 0,
                                "name": "Initial Gas",
                                "value": 31192
                            },
                            {
                                "children": [
                                    {
                                        "children": [],
                                        "depth": 1,
                                        "name": "sha256hash",
                                        "value": 132
                                    },
                                    {
                                        "children": [],
                                        "depth": 1,
                                        "name": "ecrecover",
                                        "value": 3000
                                    }
                                ],
                                "depth": 0,
                                "name": "Executed Gas",
                                "value": 62700
                            }
                        ],
                        "depth": -1,
                        "name": "Actual Gas Used",
                        "value": 93892
                    },
                    {
                        "children": [],
                        "depth": -1,
                        "name": "Refunded Gas",
                        "value": 0
                    }
                ],
                "depth": -2,
                "name": "Total Gas",
                "value": 93892
            }
        ],
        "isConfirmed": true,
        "mainTrace": [
            {
                "children": [
                    {
                        "children": [
                            {
                                "children": [],
                                "depth": 1,
                                "id": 1,
                                "order": 1
                            },
                            {
                                "children": [],
                                "depth": 1,
                                "id": 2,
                                "order": 2
                            },
                            {
                                "children": [],
                                "depth": 1,
                                "id": 3,
                                "order": 3
                            }
                        ],
                        "depth": 0,
                        "id": 0,
                        "order": 0
                    }
                ],
                "depth": -1,
                "id": -1,
                "order": -1
            }
        ],
        "mainTraceNodeCount": 4,
        "parentIdMap": {
            "0": -1,
            "1": 0,
            "2": 0,
            "3": 0
        },
        "tidyTrace": [
            {
                "children": [
                    {
                        "children": [
                            {
                                "children": [],
                                "depth": 1,
                                "id": 1,
                                "order": 1
                            },
                            {
                                "children": [],
                                "depth": 1,
                                "id": 2,
                                "order": 2
                            },
                            {
                                "children": [],
                                "depth": 1,
                                "id": 3,
                                "order": 3
                            }
                        ],
                        "depth": 0,
                        "id": 0,
                        "order": 0
                    }
                ],
                "depth": -1,
                "id": -1,
                "order": -1
            }
        ],
        "tidyTraceNodeCount": 4
    },
    "state_change": {
        "stateChanges": [
            {
                "address": "0x4aea7cf559f67cedcad07e12ae6bc00f07e8cf65",
                "erc": "",
                "slots": [
                    {
                        "current": "0x0000000000000000000000000000000000000000000000021b91820143300000",
                        "key": "0x926c04d8ea9ef93ce415fdc68415efebf68f5cf33b7dd4e6fbfbd9537d88fe26",
                        "prev": "0x000000000000000000000000000000000000000000000008fe0c25214dcc0000"
                    },
                    {
                        "current": "0x000000000000000000000000000000000000000000000006dd310da4cf2f8000",
                        "key": "0x6b629d6bd54fab30718c86010ccbceb8e79c7bbd21e6ba9dda2333bc0654c4f6",
                        "prev": "0x0000000000000000000000000000000000000000000000000000000000000000"
                    },
                    {
                        "current": "0x0000000000000000000000000000000000000000000000010ea0f801aaf0e896",
                        "key": "0x978e46368ed8e7cc0fc1b62709dc36fb4e217d29bb6d278cd24f79f391ef74a8",
                        "prev": "0x000000000000000000000000000000000000000000000001095762866f846896"
                    },
                    {
                        "current": "0x0000000000000000000000000000000000000000000000026255dc5672564000",
                        "key": "0xe8d97f342f54b4e309a82162af35e9884eff155e166a8d472e2dd7327ce03cff",
                        "prev": "0x0000000000000000000000000000000000000000000000011376e12f14294000"
                    },
                    {
                        "current": "0x00000000000000000000000000000000000000000000000001aa535d3d0c0000",
                        "key": "0xded48b5db7c193177ccc2d3eef13e126be0d0bff900094ecc9b6f07b8b896994",
                        "prev": "0x00000000000000000000000000000000000000000000000150894e849b390000"
                    },
                    {
                        "current": "0x000000000000000000000000000000000000000000000001924793c4c9ae4000",
                        "key": "0xb79c07bd51faa207369a5eca7490b1bd8f75a2fd9358062f9d4bd55d92f6908f",
                        "prev": "0x0000000000000000000000000000000000000000000000004368989d6b814000"
                    }
                ],
                "storageVariables": []
            }
        ]
    }
}