{
    "balance_change": {
        "balanceChanges": [
            {
                "account": "0x62eb6c4a4e6a2bec5d7aa4c9b9cdd8ba8fe8c851",
                "assets": [
                    {
                        "address": "0x0bef619cf38cf0c22967289b8419720fbd1db9f7",
                        "amount": "200",
                        "iconUrl": "",
                        "isERC1155": false,
                        "isERC721": false,
                        "sign": false,
                        "value": ""
                    }
                ]
            },
            {
                "account": "0xeb194d1286927a2b470c053426a29ea41510be9f",
                "assets": [
                    {
                        "address": "0x0bef619cf38cf0c22967289b8419720fbd1db9f7",
                        "amount": "200",
                        "iconUrl": "",
                        "isERC1155": false,
                        "isERC721": false,
                        "sign": true,
                        "value": ""
                    }
                ]
            }
        ]
    },
    "profile": {
        "basic_info": {
            "baseFee": "",
            "blockNumber": 6628903,
            "callData": "0xa9059cbb000000000000000000000000eb194d1286927a2b470c053426a29ea41510be9f00000000000000000000000000000000000000000000000000000004a817c800",
            "debugEnable": true,
            "errorInfo": "",
            "eventCount": 1,
            "feeRecipient": "0x52e44f279f4203dcf680395379e5f9990a69f13c",
            "formatValue": "0",
            "gasLimit": 70000,
            "gasPrice": "35",
            "gasUsed": 51410,
            "intTxnCount": 0,
            "internalRevert": false,
            "internalRevertMessage": "",
            "isContractCreation": false,
            "isFlashloan": false,
            "maxFee": "",
            "nonce": 88,
            "overwritedBlockNumber": -1,
            "priorityFee": "",
            "receiver": "0x0bef619cf38cf0c22967289b8419720fbd1db9f7",
            "revertMessage": "",
            "sender": "0x62eb6c4a4e6a2bec5d7aa4c9b9cdd8ba8fe8c851",
            "simulationEnable": true,
            "sourceTxnHash": "0x8e37363e673220bb8c9e2422bbadee52a6d77a8494540862c90b87d39ef1ad5a",
            "status": true,
            "timestamp": "2018-11-02T09:37:18Z",
            "transactionFee": "0.00179935",
            "txnHash": "0x8e37363e673220bb8c9e2422bbadee52a6d77a8494540862c90b87d39ef1ad5a",
            "txnIndex": 18,
            "type": 0,
            "value": "0"
        },
        "fund_flow": [
            {
                "amount": "200",
                "from": "0x62eb6c4a4e6a2bec5d7aa4c9b9cdd8ba8fe8c851",
                "id": 1,
                "isERC1155": false,
                "isERC721": false,
                "isReverted": false,
                "order": 1,
                "to": "0xeb194d1286927a2b470c053426a29ea41510be9f",
                "token": "0x0bef619cf38cf0c22967289b8419720fbd1db9f7"
            }
        ],
        "token_infos": [
            {
                "address": "0x0bef619cf38cf0c22967289b8419720fbd1db9f7",
                "decimals": 8
            },
            {
                "address": "0xc02aaa39b223fe8d0a0e5c4f27ead9083c756cc2",
                "decimals": 18
            },
            {
                "address": "0xeeeeeeeeeeeeeeeeeeeeeeeeeeeeeeeeeeeeeeee",
                "decimals": 18
            }
        ]
    },
    "address_label": {
        "labels": [
            {
                "address": "0x0000000000000000000000000000000000000003",
                "label": "Precompiled"
            },
            {
                "address": "0x0000000000000000000000000000000000000004",
                "label": "Precompiled"
            },
            {
                "address": "0xeeeeeeeeeeeeeeeeeeeeeeeeeeeeeeeeeeeeeeee",
                "label": "Ether"
            },
            {
                "address": "0x0bef619cf38cf0c22967289b8419720fbd1db9f7",
                "label": "Aenco: AEN Token"
            },
            {
                "address": "0x0000000000000000000000000000000000000001",
                "label": "Precompiled"
            },
            {
                "address": "0x0000000000000000000000000000000000000002",
                "label": "Precompiled"
            }
        ]
    },
    "trace": {
        "accountLabels": null,
        "dataMap": {
            "-1": {
                "invocation": {
                    "address": "0x62eb6c4a4e6a2bec5d7aa4c9b9cdd8ba8fe8c851",
                    "callData": "",
                    "decodedMethod": null,
                    "errorInfo": "",
                    "fromAddress": "",
                    "gasUsed": 0,
                    "id": -1,
                    "methodDecoded": false,
                    "operation": "",
                    "output": "",
                    "revert": false,
                    "revertMessage": "",
                    "selector": "",
                    "status": false,
                    "value": ""
                },
                "nodeType": 0
            },
            "0": {
                "invocation": {
                    "address": "0x0bef619cf38cf0c22967289b8419720fbd1db9f7",
                    "callData": "0x000000000000000000000000eb194d1286927a2b470c053426a29ea41510be9f00000000000000000000000000000000000000000000000000000004a817c800",
                    "decodedMethod": {
                        "callParams": [
                            {
                                "name": "to",
                                "type": "address",
                                "value": "0xeb194d1286927a2b470c053426a29ea41510be9f"
                            },
                            {
                                "decimalAvailable": true,
                                "name": "tokens",
                                "type": "uint256",
                                "value": "20,000,000,000"
                            }
                        ],
                        "constructorArguments": "",
                        "name": "transfer",
                        "returnParams": [
                            {
                                "name": "success",
                                "type": "bool",
                                "value": true
                            }
                        ],
                        "signature": "transfer(address,uint256)"
                    },
                    "errorInfo": "",
                    "fromAddress": "0x62eb6c4a4e6a2bec5d7aa4c9b9cdd8ba8fe8c851",
                    "gasUsed": 51410,
                    "id": 0,
                    "methodDecoded": true,
                    "operation": "CALL",
                    "output": "0x0000000000000000000000000000000000000000000000000000000000000001",
                    "revert": false,
                    "revertMessage": "",
                    "selector": "0xa9059cbb",
                    "status": true,
                    "value": "0"
                },
                "nodeType": 0
            },
            "1": {
                "event": {
                    "contract": "0x0bef619cf38cf0c22967289b8419720fbd1db9f7",
                    "decodedLog": {
                        "name": "Transfer",
                        "params": [
                            {
                                "name": "from",
                                "type": "address",
                                "value": "0x62eb6c4a4e6a2bec5d7aa4c9b9cdd8ba8fe8c851"
                            },
                            {
                                "name": "to",
                                "type": "address",
                                "value": "0xeb194d1286927a2b470c053426a29ea41510be9f"
                            },
                            {
                                "decimalAvailable": true,
                                "name": "tokens",
                                "type": "uint256",
                                "value": "20,000,000,000"
                            }
                        ],
                        "signature": "Transfer(address,address,uint256)"
                    },
                    "id": 1,
                    "logData": "0x00000000000000000000000000000000000000000000000000000004a817c800",
                    "logDecoded": true,
                    "operation": "EVENT",
                    "revert": false,
                    "status": true,
                    "topics": [
                        "0xddf252ad1be2c89b69c2b068fc378daa952ba7f163c4a11628f55a4df523b3ef",
                        "0x00000000000000000000000062eb6c4a4e6a2bec5d7aa4c9b9cdd8ba8fe8c851",
                        "0x000000000000000000000000eb194d1286927a2b470c053426a29ea41510be9f"
                    ]
                },
                "nodeType": 1
            }
        },
        "gasFlame": [
            {
                "children": [
                    {
                        "children": [
                            {
                                "children": [],
                                "depth": 0,
                                "name": "Initial Gas",
                                "value": 23064
                            },
                            {
                                "children": [],
                                "depth": 0,
                                "name": "Executed Gas",
                                "value": 28346
                            }
                        ],
                        "depth": -1,
                        "name": "Actual Gas Used",
                        "value": 51410
                    },
                    {
                        "children": [],
                        "depth": -1,
                        "name": "Refunded Gas",
                        "value": 0
                    }
                ],
                "depth": -2,
                "name": "Total Gas",
                "value": 51410
            }
        ],
        "isConfirmed": true,
        "mainTrace": [
            {
                "children": [
                    {
                        "children": [
                            {
                                "children": [],
                                "depth": 1,
                                "id": 1,
                                "order": 1
                            }
                        ],
                        "depth": 0,
                        "id": 0,
                        "order": 0
                    }
                ],
                "depth": -1,
                "id": -1,
                "order": -1
            }
        ],
        "mainTraceNodeCount": 2,
        "parentIdMap": {
            "0": -1,
            "1": 0
        },
        "tidyTrace": [
            {
                "children": [
                    {
                        "children": [
                            {
                                "children": [],
                                "depth": 1,
                                "id": 1,
                                "order": 1
                            }
                        ],
                        "depth": 0,
                        "id": 0,
                        "order": 0
                    }
                ],
                "depth": -1,
                "id": -1,
                "order": -1
            }
        ],
        "tidyTraceNodeCount": 2
    },
    "state_change": {
        "stateChanges": [
            {
                "address": "0x0bef619cf38cf0c22967289b8419720fbd1db9f7",
                "erc": "ERC-20",
                "slots": [
                    {
                        "current": "0x00000000000000000000000000000000000000000000000000002d796774ca80",
                        "key": "0x6818dda76556dd42b8e0d077acf072ff6885bce97adecca28e7a1fafbad2724d",
                        "prev": "0x00000000000000000000000000000000000000000000000000002d7e0f8c9280"
                    },
                    {
                        "current": "0x00000000000000000000000000000000000000000000000000000004a817c800",
                        "key": "0xbaf6dde4afad4e8fef875cc110bc242b4df2fea91f2e59932ce13e53f3e413f4",
                        "prev": "0x0000000000000000000000000000000000000000000000000000000000000000"
                    }
                ],
                "storageVariables": [
                    {
                        "name": "balances",
                        "type": "mapping(address => uint256)",
                        "value": {
                            "pairs": [
                                {
                                    "key": "0x62eb6c4a4e6a2bec5d7aa4c9b9cdd8ba8fe8c851",
                                    "value": {
                                        "current": "49999450000000",
                                        "prev": "50019450000000",
                                        "typeTag": 1
                                    }
                                },
                                {
                                    "key": "0xeb194d1286927a2b470c053426a29ea41510be9f",
                                    "value": {
                                        "current": "20000000000",
                                        "prev": "0",
                                        "typeTag": 1
                                    }
                                }
                            ],
                            "typeTag": 4
                        }
                    }
                ]
            }
        ]
    }
}