{
    "balance_change": {
        "balanceChanges": [
            {
                "account": "0x02e5663fa979c2e1674426f64be626a9df715d5a",
                "assets": [
                    {
                        "address": "0x37e808f084101f75783612407e7c3f5f92d8ee3f",
                        "amount": "29.24",
                        "iconUrl": "",
                        "isERC1155": false,
                        "isERC721": false,
                        "sign": false,
                        "value": "264.9156273"
                    }
                ]
            },
            {
                "account": "0xb13b6001c18a59442390914e694edb70d56c759b",
                "assets": [
                    {
                        "address": "0x8b6dd24bcb2d0aea92c3abd4eb11103a5db6d714",
                        "amount": "0.177399406635195121",
                        "iconUrl": "",
                        "isERC1155": false,
                        "isERC721": false,
                        "sign": true,
                        "value": "17.80410168"
                    },
                    {
                        "address": "0x37e808f084101f75783612407e7c3f5f92d8ee3f",
                        "amount": "29.24",
                        "iconUrl": "",
                        "isERC1155": false,
                        "isERC721": false,
                        "sign": true,
                        "value": "264.9156273"
                    }
                ]
            },
            {
                "account": "0x0000000000000000000000000000000000000000",
                "assets": [
                    {
                        "address": "0x8b6dd24bcb2d0aea92c3abd4eb11103a5db6d714",
                        "amount": "0.195139347298714633",
                        "iconUrl": "",
                        "isERC1155": false,
                        "isERC721": false,
                        "sign": false,
                        "value": "19.60289139"
                    }
                ]
            },
            {
                "account": "0x0bfaf138e171d89205133573e65b2fee95da9e99",
                "assets": [
                    {
                        "address": "0x8b6dd24bcb2d0aea92c3abd4eb11103a5db6d714",
                        "amount": "0.017739940663519512",
                        "iconUrl": "",
                        "isERC1155": false,
                        "isERC721": false,
                        "sign": true,
                        "value": "1.78120787"
                    }
                ]
            }
        ]
    },
    "profile": {
        "basic_info": {
            "baseFee": "",
            "blockNumber": 11018447,
            "callData": "0xe2bbb158000000000000000000000000000000000000000000000000000000000000000200000000000000000000000000000000000000000000000195c95914706c0000",
            "debugEnable": true,
            "errorInfo": "",
            "eventCount": 5,
            "feeRecipient": "0x84a0d77c693adabe0ebc48f88b3ffff010577051",
            "formatValue": "0",
            "gasLimit": 230188,
            "gasPrice": "48",
            "gasUsed": 153459,
            "intTxnCount": 4,
            "internalRevert": false,
            "internalRevertMessage": "",
            "isContractCreation": false,
            "isFlashloan": false,
            "maxFee": "",
            "nonce": 70,
            "overwritedBlockNumber": -1,
            "priorityFee": "",
            "receiver": "0xb13b6001c18a59442390914e694edb70d56c759b",
            "revertMessage": "",
            "sender": "0x02e5663fa979c2e1674426f64be626a9df715d5a",
            "simulationEnable": true,
            "sourceTxnHash": "0x8fad8f44d387377638b3c0957f729b47895879b0e9ed089849e6d602ca61fd13",
            "status": true,
            "timestamp": "2020-10-09T01:52:56Z",
            "transactionFee": "0.007366032",
            "txnHash": "0x8fad8f44d387377638b3c0957f729b47895879b0e9ed089849e6d602ca61fd13",
            "txnIndex": 114,
            "type": 0,
            "value": "0"
        },
        "fund_flow": [
            {
                "amount": "0.017739940663519512",
                "from": "0x0000000000000000000000000000000000000000",
                "id": 1,
                "isERC1155": false,
                "isERC721": false,
                "isReverted": false,
                "order": 1,
                "to": "0x0bfaf138e171d89205133573e65b2fee95da9e99",
                "token": "0x8b6dd24bcb2d0aea92c3abd4eb11103a5db6d714"
            },
            {
                "amount": "0.177399406635195121",
                "from": "0x0000000000000000000000000000000000000000",
                "id": 2,
                "isERC1155": false,
                "isERC721": false,
                "isReverted": false,
                "order": 2,
                "to": "0xb13b6001c18a59442390914e694edb70d56c759b",
                "token": "0x8b6dd24bcb2d0aea92c3abd4eb11103a5db6d714"
            },
            {
                "amount": "29.24",
                "from": "0x02e5663fa979c2e1674426f64be626a9df715d5a",
                "id": 3,
                "isERC1155": false,
                "isERC721": false,
                "isReverted": false,
                "order": 3,
                "to": "0xb13b6001c18a59442390914e694edb70d56c759b",
                "token": "0x37e808f084101f75783612407e7c3f5f92d8ee3f"
            }
        ],
        "token_infos": [
            {
                "address": "0x37e808f084101f75783612407e7c3f5f92d8ee3f",
                "decimals": 18
            },
            {
                "address": "0x8b6dd24bcb2d0aea92c3abd4eb11103a5db6d714",
                "decimals": 18
            },
            {
                "address": "0xc02aaa39b223fe8d0a0e5c4f27ead9083c756cc2",
                "decimals": 18
            },
            {
                "address": "0xeeeeeeeeeeeeeeeeeeeeeeeeeeeeeeeeeeeeeeee",
                "decimals": 18
            }
        ]
    },
    "address_label": {
        "labels": [
            {
                "address": "0x0000000000000000000000000000000000000004",
                "label": "Precompiled"
            },
            {
                "address": "0xeeeeeeeeeeeeeeeeeeeeeeeeeeeeeeeeeeeeeeee",
                "label": "Ether"
            },
            {
                "address": "0x37e808f084101f75783612407e7c3f5f92d8ee3f",
                "label": "RI Token (RI)"
            },
            {
                "address": "0x8b6dd24bcb2d0aea92c3abd4eb11103a5db6d714",
                "label": "dXIOT Token (dXIOT)"
            },
            {
                "address": "0xb13b6001c18a59442390914e694edb70d56c759b",
                "label": "SiloControl"
            },
            {
                "address": "0x0000000000000000000000000000000000000001",
                "label": "Precompiled"
            },
            {
                "address": "0x0000000000000000000000000000000000000002",
                "label": "Precompiled"
            },
            {
                "address": "0x0000000000000000000000000000000000000003",
                "label": "Precompiled"
            }
        ]
    },
    "trace": {
        "accountLabels": null,
        "dataMap": {
            "-1": {
                "invocation": {
                    "address": "0x02e5663fa979c2e1674426f64be626a9df715d5a",
                    "callData": "",
                    "decodedMethod": null,
                    "errorInfo": "",
                    "fromAddress": "",
                    "gasUsed": 0,
                    "id": -1,
                    "methodDecoded": false,
                    "operation": "",
                    "output": "",
                    "revert": false,
                    "revertMessage": "",
                    "selector": "",
                    "status": false,
                    "value": ""
                },
                "nodeType": 0
            },
            "0": {
                "invocation": {
                    "address": "0xb13b6001c18a59442390914e694edb70d56c759b",
                    "callData": "0x000000000000000000000000000000000000000000000000000000000000000200000000000000000000000000000000000000000000000195c95914706c0000",
                    "decodedMethod": {
                        "callParams": [
                            {
                                "name": "_siloid",
                                "type": "uint256",
                                "value": "2"
                            },
                            {
                                "name": "_amount",
                                "type": "uint256",
                                "value": "29,240,000,000,000,000,000"
                            }
                        ],
                        "constructorArguments": "",
                        "name": "deposit",
                        "returnParams": [],
                        "signature": "deposit(uint256,uint256)"
                    },
                    "errorInfo": "",
                    "fromAddress": "0x02e5663fa979c2e1674426f64be626a9df715d5a",
                    "gasUsed": 153459,
                    "id": 0,
                    "methodDecoded": true,
                    "operation": "CALL",
                    "output": "",
                    "revert": false,
                    "revertMessage": "",
                    "selector": "0xe2bbb158",
                    "status": true,
                    "value": "0"
                },
                "nodeType": 0
            },
            "1": {
                "invocation": {
                    "address": "0x37e808f084101f75783612407e7c3f5f92d8ee3f",
                    "callData": "0x000000000000000000000000b13b6001c18a59442390914e694edb70d56c759b",
                    "decodedMethod": {
                        "callParams": [
                            {
                                "name": "account",
                                "type": "address",
                                "value": "0xb13b6001c18a59442390914e694edb70d56c759b"
                            }
                        ],
                        "constructorArguments": "",
                        "name": "balanceOf",
                        "returnParams": [
                            {
                                "decimalAvailable": true,
                                "name": "",
                                "type": "uint256",
                                "value": "23,478,707,318,776,818,141,301"
                            }
                        ],
                        "signature": "balanceOf(address)"
                    },
                    "errorInfo": "",
                    "fromAddress": "0xb13b6001c18a59442390914e694edb70d56c759b",
                    "gasUsed": 1285,
                    "id": 1,
                    "methodDecoded": true,
                    "operation": "STATICCALL",
                    "output": "0x0000000000000000000000000000000000000000000004f8c884a6e7a04d8875",
                    "revert": false,
                    "revertMessage": "",
                    "selector": "0x70a08231",
                    "status": true,
                    "value": "0"
                },
                "nodeType": 0
            },
            "2": {
                "invocation": {
                    "address": "0x8b6dd24bcb2d0aea92c3abd4eb11103a5db6d714",
                    "callData": "0x0000000000000000000000000bfaf138e171d89205133573e65b2fee95da9e99000000000000000000000000000000000000000000000000003f0661cd95e918",
                    "decodedMethod": {
                        "callParams": [
                            {
                                "name": "_to",
                                "type": "address",
                                "value": "0x0bfaf138e171d89205133573e65b2fee95da9e99"
                            },
                            {
                                "name": "_amount",
                                "type": "uint256",
                                "value": "17,739,940,663,519,512"
                            }
                        ],
                        "constructorArguments": "",
                        "name": "mint",
                        "returnParams": [],
                        "signature": "mint(address,uint256)"
                    },
                    "errorInfo": "",
                    "fromAddress": "0xb13b6001c18a59442390914e694edb70d56c759b",
                    "gasUsed": 16129,
                    "id": 2,
                    "methodDecoded": true,
                    "operation": "CALL",
                    "output": "",
                    "revert": false,
                    "revertMessage": "",
                    "selector": "0x40c10f19",
                    "status": true,
                    "value": "0"
                },
                "nodeType": 0
            },
            "3": {
                "event": {
                    "contract": "0x8b6dd24bcb2d0aea92c3abd4eb11103a5db6d714",
                    "decodedLog": {
                        "name": "Transfer",
                        "params": [
                            {
                                "name": "from",
                                "type": "address",
                                "value": "0x0000000000000000000000000000000000000000"
                            },
                            {
                                "name": "to",
                                "type": "address",
                                "value": "0x0bfaf138e171d89205133573e65b2fee95da9e99"
                            },
                            {
                                "decimalAvailable": true,
                                "name": "value",
                                "type": "uint256",
                                "value": "17,739,940,663,519,512"
                            }
                        ],
                        "signature": "Transfer(address,address,uint256)"
                    },
                    "id": 3,
                    "logData": "0x000000000000000000000000000000000000000000000000003f0661cd95e918",
                    "logDecoded": true,
                    "operation": "EVENT",
                    "revert": false,
                    "status": true,
                    "topics": [
                        "0xddf252ad1be2c89b69c2b068fc378daa952ba7f163c4a11628f55a4df523b3ef",
                        "0x0000000000000000000000000000000000000000000000000000000000000000",
                        "0x0000000000000000000000000bfaf138e171d89205133573e65b2fee95da9e99"
                    ]
                },
                "nodeType": 1
            },
            "4": {
                "invocation": {
                    "address": "0x8b6dd24bcb2d0aea92c3abd4eb11103a5db6d714",
                    "callData": "0x000000000000000000000000b13b6001c18a59442390914e694edb70d56c759b00000000000000000000000000000000000000000000000002763fd207db1af1",
                    "decodedMethod": {
                        "callParams": [
                            {
                                "name": "_to",
                                "type": "address",
                                "value": "0xb13b6001c18a59442390914e694edb70d56c759b"
                            },
                            {
                                "name": "_amount",
                                "type": "uint256",
                                "value": "177,399,406,635,195,121"
                            }
                        ],
                        "constructorArguments": "",
                        "name": "mint",
                        "returnParams": [],
                        "signature": "mint(address,uint256)"
                    },
                    "errorInfo": "",
                    "fromAddress": "0xb13b6001c18a59442390914e694edb70d56c759b",
                    "gasUsed": 11929,
                    "id": 4,
                    "methodDecoded": true,
                    "operation": "CALL",
                    "output": "",
                    "revert": false,
                    "revertMessage": "",
                    "selector": "0x40c10f19",
                    "status": true,
                    "value": "0"
                },
                "nodeType": 0
            },
            "5": {
                "event": {
                    "contract": "0x8b6dd24bcb2d0aea92c3abd4eb11103a5db6d714",
                    "decodedLog": {
                        "name": "Transfer",
                        "params": [
                            {
                                "name": "from",
                                "type": "address",
                                "value": "0x0000000000000000000000000000000000000000"
                            },
                            {
                                "name": "to",
                                "type": "address",
                                "value": "0xb13b6001c18a59442390914e694edb70d56c759b"
                            },
                            {
                                "decimalAvailable": true,
                                "name": "value",
                                "type": "uint256",
                                "value": "177,399,406,635,195,121"
                            }
                        ],
                        "signature": "Transfer(address,address,uint256)"
                    },
                    "id": 5,
                    "logData": "0x00000000000000000000000000000000000000000000000002763fd207db1af1",
                    "logDecoded": true,
                    "operation": "EVENT",
                    "revert": false,
                    "status": true,
                    "topics": [
                        "0xddf252ad1be2c89b69c2b068fc378daa952ba7f163c4a11628f55a4df523b3ef",
                        "0x0000000000000000000000000000000000000000000000000000000000000000",
                        "0x000000000000000000000000b13b6001c18a59442390914e694edb70d56c759b"
                    ]
                },
                "nodeType": 1
            },
            "6": {
                "invocation": {
                    "address": "0x37e808f084101f75783612407e7c3f5f92d8ee3f",
                    "callData": "0x00000000000000000000000002e5663fa979c2e1674426f64be626a9df715d5a000000000000000000000000b13b6001c18a59442390914e694edb70d56c759b00000000000000000000000000000000000000000000000195c95914706c0000",
                    "decodedMethod": {
                        "callParams": [
                            {
                                "name": "sender",
                                "type": "address",
                                "value": "0x02e5663fa979c2e1674426f64be626a9df715d5a"
                            },
                            {
                                "name": "recipient",
                                "type": "address",
                                "value": "0xb13b6001c18a59442390914e694edb70d56c759b"
                            },
                            {
                                "decimalAvailable": true,
                                "name": "amount",
                                "type": "uint256",
                                "value": "29,240,000,000,000,000,000"
                            }
                        ],
                        "constructorArguments": "",
                        "name": "transferFrom",
                        "returnParams": [
                            {
                                "name": "",
                                "type": "bool",
                                "value": true
                            }
                        ],
                        "signature": "transferFrom(address,address,uint256)"
                    },
                    "errorInfo": "",
                    "fromAddress": "0xb13b6001c18a59442390914e694edb70d56c759b",
                    "gasUsed": 23111,
                    "id": 6,
                    "methodDecoded": true,
                    "operation": "CALL",
                    "output": "0x0000000000000000000000000000000000000000000000000000000000000001",
                    "revert": false,
                    "revertMessage": "",
                    "selector": "0x23b872dd",
                    "status": true,
                    "value": "0"
                },
                "nodeType": 0
            },
            "7": {
                "event": {
                    "contract": "0x37e808f084101f75783612407e7c3f5f92d8ee3f",
                    "decodedLog": {
                        "name": "Transfer",
                        "params": [
                            {
                                "name": "from",
                                "type": "address",
                                "value": "0x02e5663fa979c2e1674426f64be626a9df715d5a"
                            },
                            {
                                "name": "to",
                                "type": "address",
                                "value": "0xb13b6001c18a59442390914e694edb70d56c759b"
                            },
                            {
                                "decimalAvailable": true,
                                "name": "value",
                                "type": "uint256",
                                "value": "29,240,000,000,000,000,000"
                            }
                        ],
                        "signature": "Transfer(address,address,uint256)"
                    },
                    "id": 7,
                    "logData": "0x00000000000000000000000000000000000000000000000195c95914706c0000",
                    "logDecoded": true,
                    "operation": "EVENT",
                    "revert": false,
                    "status": true,
                    "topics": [
                        "0xddf252ad1be2c89b69c2b068fc378daa952ba7f163c4a11628f55a4df523b3ef",
                        "0x00000000000000000000000002e5663fa979c2e1674426f64be626a9df715d5a",
                        "0x000000000000000000000000b13b6001c18a59442390914e694edb70d56c759b"
                    ]
                },
                "nodeType": 1
            },
            "8": {
                "event": {
                    "contract": "0x37e808f084101f75783612407e7c3f5f92d8ee3f",
                    "decodedLog": {
                        "name": "Approval",
                        "params": [
                            {
                                "name": "owner",
                                "type": "address",
                                "value": "0x02e5663fa979c2e1674426f64be626a9df715d5a"
                            },
                            {
                                "name": "spender",
                                "type": "address",
                                "value": "0xb13b6001c18a59442390914e694edb70d56c759b"
                            },
                            {
                                "decimalAvailable": true,
                                "name": "value",
                                "type": "uint256",
                                "value": "115,792,089,237,316,195,423,570,985,008,687,907,853,269,984,665,640,564,039,428,344,007,913,129,639,935"
                            }
                        ],
                        "signature": "Approval(address,address,uint256)"
                    },
                    "id": 8,
                    "logData": "0xfffffffffffffffffffffffffffffffffffffffffffffffe6a36a6eb8f93ffff",
                    "logDecoded": true,
                    "operation": "EVENT",
                    "revert": false,
                    "status": true,
                    "topics": [
                        "0x8c5be1e5ebec7d5bd14f71427d1e84f3dd0314c0f7b2291e5b200ac8c7c3b925",
                        "0x00000000000000000000000002e5663fa979c2e1674426f64be626a9df715d5a",
                        "0x000000000000000000000000b13b6001c18a59442390914e694edb70d56c759b"
                    ]
                },
                "nodeType": 1
            },
            "9": {
                "event": {
                    "contract": "0xb13b6001c18a59442390914e694edb70d56c759b",
                    "decodedLog": {
                        "name": "Deposit",
                        "params": [
                            {
                                "name": "user",
                                "type": "address",
                                "value": "0x02e5663fa979c2e1674426f64be626a9df715d5a"
                            },
                            {
                                "name": "siloid",
                                "type": "uint256",
                                "value": "2"
                            },
                            {
                                "name": "amount",
                                "type": "uint256",
                                "value": "29,240,000,000,000,000,000"
                            }
                        ],
                        "signature": "Deposit(address,uint256,uint256)"
                    },
                    "id": 9,
                    "logData": "0x00000000000000000000000000000000000000000000000195c95914706c0000",
                    "logDecoded": true,
                    "operation": "EVENT",
                    "revert": false,
                    "status": true,
                    "topics": [
                        "0x90890809c654f11d6e72a28fa60149770a0d11ec6c92319d6ceb2bb0a4ea1a15",
                        "0x00000000000000000000000002e5663fa979c2e1674426f64be626a9df715d5a",
                        "0x0000000000000000000000000000000000000000000000000000000000000002"
                    ]
                },
                "nodeType": 1
            }
        },
        "gasFlame": [
            {
                "children": [
                    {
                        "children": [
                            {
                                "children": [],
                                "depth": 0,
                                "name": "Initial Gas",
                                "value": 21416
                            },
                            {
                                "children": [
                                    {
                                        "children": [],
                                        "depth": 1,
                                        "name": "balanceOf",
                                        "value": 1285
                                    },
                                    {
                                        "children": [],
                                        "depth": 1,
                                        "name": "mint",
                                        "value": 16129
                                    },
                                    {
                                        "children": [],
                                        "depth": 1,
                                        "name": "mint",
                                        "value": 11929
                                    },
                                    {
                                        "children": [],
                                        "depth": 1,
                                        "name": "transferFrom",
                                        "value": 23111
                                    }
                                ],
                                "depth": 0,
                                "name": "Executed Gas",
                                "value": 132043
                            }
                        ],
                        "depth": -1,
                        "name": "Actual Gas Used",
                        "value": 153459
                    },
                    {
                        "children": [],
                        "depth": -1,
                        "name": "Refunded Gas",
                        "value": 0
                    }
                ],
                "depth": -2,
                "name": "Total Gas",
                "value": 153459
            }
        ],
        "isConfirmed": true,
        "mainTrace": [
            {
                "children": [
                    {
                        "children": [
                            {
                                "children": [],
                                "depth": 1,
                                "id": 1,
                                "order": 1
                            },
                            {
                                "children": [
                                    {
                                        "children": [],
                                        "depth": 2,
                                        "id": 3,
                                        "order": 3
                                    }
                                ],
                                "depth": 1,
                                "id": 2,
                                "order": 2
                            },
                            {
                                "children": [
                                    {
                                        "children": [],
                                        "depth": 2,
                                        "id": 5,
                                        "order": 5
                                    }
                                ],
                                "depth": 1,
                                "id": 4,
                                "order": 4
                            },
                            {
                                "children": [
                                    {
                                        "children": [],
                                        "depth": 2,
                                        "id": 7,
                                        "order": 7
                                    },
                                    {
                                        "children": [],
                                        "depth": 2,
                                        "id": 8,
                                        "order": 8
                                    }
                                ],
                                "depth": 1,
                                "id": 6,
                                "order": 6
                            },
                            {
                                "children": [],
                                "depth": 1,
                                "id": 9,
                                "order": 9
                            }
                        ],
                        "depth": 0,
                        "id": 0,
                        "order": 0
                    }
                ],
                "depth": -1,
                "id": -1,
                "order": -1
            }
        ],
        "mainTraceNodeCount": 10,
        "parentIdMap": {
            "0": -1,
            "1": 0,
            "2": 0,
            "3": 2,
            "4": 0,
            "5": 4,
            "6": 0,
            "7": 6,
            "8": 6,
            "9": 0
        },
        "tidyTrace": [
            {
                "children": [
                    {
                        "children": [
                            {
                                "children": [
                                    {
                                        "children": [],
                                        "depth": 2,
                                        "id": 3,
                                        "order": 3
                                    }
                                ],
                                "depth": 1,
                                "id": 2,
                                "order": 2
                            },
                            {
                                "children": [
                                    {
                                        "children": [],
                                        "depth": 2,
                                        "id": 5,
                                        "order": 5
                                    }
                                ],
                                "depth": 1,
                                "id": 4,
                                "order": 4
                            },
                            {
                                "children": [
                                    {
                                        "children": [],
                                        "depth": 2,
                                        "id": 7,
                                        "order": 7
                                    },
                                    {
                                        "children": [],
                                        "depth": 2,
                                        "id": 8,
                                        "order": 8
                                    }
                                ],
                                "depth": 1,
                                "id": 6,
                                "order": 6
                            },
                            {
                                "children": [],
                                "depth": 1,
                                "id": 9,
                                "order": 9
                            }
                        ],
                        "depth": 0,
                        "id": 0,
                        "order": 0
                    }
                ],
                "depth": -1,
                "id": -1,
                "order": -1
            }
        ],
        "tidyTraceNodeCount": 9
    },
    "state_change": {
        "stateChanges": [
            {
                "address": "0x37e808f084101f75783612407e7c3f5f92d8ee3f",
                "erc": "ERC-20",
                "slots": [
                    {
                        "current": "0x00000000000000000000000000000000000000000000000000047eeee3bd073b",
                        "key": "0x37ef9d5ff596df8fd7798e8632e910b6aef33c6ba4dd91d80c618ae07410e39e",
                        "prev": "0x00000000000000000000000000000000000000000000000195cdd8035429073b"
                    },
                    {
                        "current": "0x0000000000000000000000000000000000000000000004fa5e4dfffc10b98875",
                        "key": "0x3a1e6f47decebdc7daf83097cb49c30918d76f386965b341f9d7e0abd60a821b",
                        "prev": "0x0000000000000000000000000000000000000000000004f8c884a6e7a04d8875"
                    },
                    {
                        "current": "0xfffffffffffffffffffffffffffffffffffffffffffffffe6a36a6eb8f93ffff",
                        "key": "0x36eade13e8b5a48bda380a258e4b94b913f50930f85d6b75453d03d0d3e21646",
                        "prev": "0xffffffffffffffffffffffffffffffffffffffffffffffffffffffffffffffff"
                    }
                ],
                "storageVariables": [
                    {
                        "name": "_balances",
                        "type": "mapping(address => uint256)",
                        "value": {
                            "pairs": [
                                {
                                    "key": "0x02e5663fa979c2e1674426f64be626a9df715d5a",
                                    "value": {
                                        "current": "1265464394975035",
                                        "prev": "29241265464394975035",
                                        "typeTag": 1
                                    }
                                },
                                {
                                    "key": "0xb13b6001c18a59442390914e694edb70d56c759b",
                                    "value": {
                                        "current": "23507947318776818141301",
                                        "prev": "23478707318776818141301",
                                        "typeTag": 1
                                    }
                                }
                            ],
                            "typeTag": 4
                        }
                    },
                    {
                        "name": "_allowances",
                        "type": "mapping(address => mapping(address => uint256))",
                        "value": {
                            "pairs": [
                                {
                                    "key": "0x02e5663fa979c2e1674426f64be626a9df715d5a",
                                    "value": {
                                        "pairs": [
                                            {
                                                "key": "0xb13b6001c18a59442390914e694edb70d56c759b",
                                                "value": {
                                                    "current": "115792089237316195423570985008687907853269984665640564039428344007913129639935",
                                                    "prev": "115792089237316195423570985008687907853269984665640564039457584007913129639935",
                                                    "typeTag": 1
                                                }
                                            }
                                        ],
                                        "typeTag": 4
                                    }
                                }
                            ],
                            "typeTag": 4
                        }
                    }
                ]
            },
            {
                "address": "0x8b6dd24bcb2d0aea92c3abd4eb11103a5db6d714",
                "erc": "ERC-20",
                "slots": [
                    {
                        "current": "0x0000000000000000000000000000000000000000000000982899961efb653006",
                        "key": "0x0000000000000000000000000000000000000000000000000000000000000002",
                        "prev": "0x00000000000000000000000000000000000000000000009825e44feb25f42bfd"
                    },
                    {
                        "current": "0x0000000000000000000000000000000000000000000000068e6a08f07749265f",
                        "key": "0x3389dbd1970447f690b049abe001153b284e00f43b6ef5d9bc06c741779a43e2",
                        "prev": "0x0000000000000000000000000000000000000000000000068e2b028ea9b33d47"
                    },
                    {
                        "current": "0x00000000000000000000000000000000000000000000002b8b76854dbeffabcc",
                        "key": "0x3a1e6f47decebdc7daf83097cb49c30918d76f386965b341f9d7e0abd60a821b",
                        "prev": "0x00000000000000000000000000000000000000000000002b8900457bb72490db"
                    }
                ],
                "storageVariables": [
                    {
                        "name": "_balances",
                        "type": "mapping(address => uint256)",
                        "value": {
                            "pairs": [
                                {
                                    "key": "0x0bfaf138e171d89205133573e65b2fee95da9e99",
                                    "value": {
                                        "current": "120942488972060862047",
                                        "prev": "120924749031397342535",
                                        "typeTag": 1
                                    }
                                },
                                {
                                    "key": "0xb13b6001c18a59442390914e694edb70d56c759b",
                                    "value": {
                                        "current": "803259361356997962700",
                                        "prev": "803081961950362767579",
                                        "typeTag": 1
                                    }
                                }
                            ],
                            "typeTag": 4
                        }
                    },
                    {
                        "name": "_totalSupply",
                        "type": "uint256",
                        "value": {
                            "current": "2806830633696616591366",
                            "prev": "2806635494349317876733",
                            "typeTag": 1
                        }
                    }
                ]
            },
            {
                "address": "0xb13b6001c18a59442390914e694edb70d56c759b",
                "erc": "",
                "slots": [
                    {
                        "current": "0x00000000000000000000000000000000000000000000000000001f606b01c1e1",
                        "key": "0x036b6384b5eca791c62761152d0c79bb0604c104a5fb6f4eb0703f3154bb3dbb",
                        "prev": "0x00000000000000000000000000000000000000000000000000001f606a8e7735"
                    },
                    {
                        "current": "0x0000000000000000000000000000000000000000000000000000000000a820cf",
                        "key": "0x036b6384b5eca791c62761152d0c79bb0604c104a5fb6f4eb0703f3154bb3dba",
                        "prev": "0x0000000000000000000000000000000000000000000000000000000000a820a7"
                    },
                    {
                        "current": "0x00000000000000000000000000000000000000000000000195c95914706c0000",
                        "key": "0xd81841fca51b3ae250322a3d07079fd0536153d82e5514d9f3e208db8fae97dc",
                        "prev": "0x0000000000000000000000000000000000000000000000000000000000000000"
                    },
                    {
                        "current": "0x000000000000000000000000000000000000000000000036af37c6ee511e52c0",
                        "key": "0xd81841fca51b3ae250322a3d07079fd0536153d82e5514d9f3e208db8fae97dd",
                        "prev": "0x0000000000000000000000000000000000000000000000000000000000000000"
                    }
                ],
                "storageVariables": [
                    {
                        "name": "siloData",
                        "type": "struct SiloControl.SiloData[]",
                        "value": {
                            "elemType": "struct SiloControl.SiloData",
                            "elems": [
                                {
                                    "index": 2,
                                    "value": {
                                        "fields": [
                                            {
                                                "name": "lastMintBlock",
                                                "type": "uint256",
                                                "value": {
                                                    "current": "11018447",
                                                    "prev": "11018407",
                                                    "typeTag": 1
                                                }
                                            },
                                            {
                                                "name": "mintedTokenPerShare",
                                                "type": "uint256",
                                                "value": {
                                                    "current": "34498972598753",
                                                    "prev": "34498965042997",
                                                    "typeTag": 1
                                                }
                                            }
                                        ],
                                        "typeTag": 3
                                    }
                                }
                            ],
                            "typeTag": 2
                        }
                    },
                    {
                        "name": "depositor",
                        "type": "mapping(uint256 => mapping(address => struct SiloControl.Depositor))",
                        "value": {
                            "pairs": [
                                {
                                    "key": "2",
                                    "value": {
                                        "pairs": [
                                            {
                                                "key": "0x02e5663fa979c2e1674426f64be626a9df715d5a",
                                                "value": {
                                                    "fields": [
                                                        {
                                                            "name": "amount",
                                                            "type": "uint256",
                                                            "value": {
                                                                "current": "29240000000000000000",
                                                                "prev": "0",
                                                                "typeTag": 1
                                                            }
                                                        },
                                                        {
                                                            "name": "mintDebt",
                                                            "type": "uint256",
                                                            "value": {
                                                                "current": "1008749958787537720000",
                                                                "prev": "0",
                                                                "typeTag": 1
                                                            }
                                                        }
                                                    ],
                                                    "typeTag": 3
                                                }
                                            }
                                        ],
                                        "typeTag": 4
                                    }
                                }
                            ],
                            "typeTag": 4
                        }
                    }
                ]
            }
        ]
    }
}