{
    "balance_change": {
        "balanceChanges": [
            {
                "account": "0x9c99bf6b2498d8e4db6afd11eade8bc69cb9a2b6",
                "assets": [
                    {
                        "address": "0x13f25cd52b21650caa8225c9942337d914c9b030",
                        "amount": "252,000",
                        "iconUrl": "",
                        "isERC1155": false,
                        "isERC721": false,
                        "sign": false,
                        "value": ""
                    }
                ]
            },
            {
                "account": "0x8a1b267b01e425e97e40ceff1bf2049ded952488",
                "assets": [
                    {
                        "address": "0x13f25cd52b21650caa8225c9942337d914c9b030",
                        "amount": "252,000",
                        "iconUrl": "",
                        "isERC1155": false,
                        "isERC721": false,
                        "sign": true,
                        "value": ""
                    }
                ]
            }
        ]
    },
    "profile": {
        "basic_info": {
            "baseFee": "",
            "blockNumber": 4873690,
            "callData": "0xa9059cbb0000000000000000000000008a1b267b01e425e97e40ceff1bf2049ded95248800000000000000000000000000000000000000000000355cf2870ec725800000",
            "debugEnable": true,
            "errorInfo": "",
            "eventCount": 1,
            "feeRecipient": "0x52bc44d5378309ee2abf1539bf71de1b7d7be3b5",
            "formatValue": "0",
            "gasLimit": 100000,
            "gasPrice": "50",
            "gasUsed": 52948,
            "intTxnCount": 0,
            "internalRevert": false,
            "internalRevertMessage": "",
            "isContractCreation": false,
            "isFlashloan": false,
            "maxFee": "",
            "nonce": 342,
            "overwritedBlockNumber": -1,
            "priorityFee": "",
            "receiver": "0x13f25cd52b21650caa8225c9942337d914c9b030",
            "revertMessage": "",
            "sender": "0x9c99bf6b2498d8e4db6afd11eade8bc69cb9a2b6",
            "simulationEnable": true,
            "sourceTxnHash": "0x8fdbfa311a302db2841d09a5649a40e29a3f6087fb5c78c09614df52518656f7",
            "status": true,
            "timestamp": "2018-01-08T09:07:40Z",
            "transactionFee": "0.0026474",
            "txnHash": "0x8fdbfa311a302db2841d09a5649a40e29a3f6087fb5c78c09614df52518656f7",
            "txnIndex": 46,
            "type": 0,
            "value": "0"
        },
        "fund_flow": [
            {
                "amount": "252,000",
                "from": "0x9c99bf6b2498d8e4db6afd11eade8bc69cb9a2b6",
                "id": 1,
                "isERC1155": false,
                "isERC721": false,
                "isReverted": false,
                "order": 1,
                "to": "0x8a1b267b01e425e97e40ceff1bf2049ded952488",
                "token": "0x13f25cd52b21650caa8225c9942337d914c9b030"
            }
        ],
        "token_infos": [
            {
                "address": "0x13f25cd52b21650caa8225c9942337d914c9b030",
                "decimals": 18
            },
            {
                "address": "0xc02aaa39b223fe8d0a0e5c4f27ead9083c756cc2",
                "decimals": 18
            },
            {
                "address": "0xeeeeeeeeeeeeeeeeeeeeeeeeeeeeeeeeeeeeeeee",
                "decimals": 18
            }
        ]
    },
    "address_label": {
        "labels": [
            {
                "address": "0xeeeeeeeeeeeeeeeeeeeeeeeeeeeeeeeeeeeeeeee",
                "label": "Ether"
            },
            {
                "address": "0x13f25cd52b21650caa8225c9942337d914c9b030",
                "label": "realchain: RCT Token"
            },
            {
                "address": "0x0000000000000000000000000000000000000001",
                "label": "Precompiled"
            },
            {
                "address": "0x0000000000000000000000000000000000000002",
                "label": "Precompiled"
            },
            {
                "address": "0x0000000000000000000000000000000000000003",
                "label": "Precompiled"
            },
            {
                "address": "0x0000000000000000000000000000000000000004",
                "label": "Precompiled"
            }
        ]
    },
    "trace": {
        "accountLabels": null,
        "dataMap": {
            "-1": {
                "invocation": {
                    "address": "0x9c99bf6b2498d8e4db6afd11eade8bc69cb9a2b6",
                    "callData": "",
                    "decodedMethod": null,
                    "errorInfo": "",
                    "fromAddress": "",
                    "gasUsed": 0,
                    "id": -1,
                    "methodDecoded": false,
                    "operation": "",
                    "output": "",
                    "revert": false,
                    "revertMessage": "",
                    "selector": "",
                    "status": false,
                    "value": ""
                },
                "nodeType": 0
            },
            "0": {
                "invocation": {
                    "address": "0x13f25cd52b21650caa8225c9942337d914c9b030",
                    "callData": "0x0000000000000000000000008a1b267b01e425e97e40ceff1bf2049ded95248800000000000000000000000000000000000000000000355cf2870ec725800000",
                    "decodedMethod": {
                        "callParams": [
                            {
                                "name": "_to",
                                "type": "address",
                                "value": "0x8a1b267b01e425e97e40ceff1bf2049ded952488"
                            },
                            {
                                "decimalAvailable": true,
                                "name": "_value",
                                "type": "uint256",
                                "value": "252,000,000,000,000,000,000,000"
                            }
                        ],
                        "constructorArguments": "",
                        "name": "transfer",
                        "returnParams": [],
                        "signature": "transfer(address,uint256)"
                    },
                    "errorInfo": "",
                    "fromAddress": "0x9c99bf6b2498d8e4db6afd11eade8bc69cb9a2b6",
                    "gasUsed": 52948,
                    "id": 0,
                    "methodDecoded": true,
                    "operation": "CALL",
                    "output": "",
                    "revert": false,
                    "revertMessage": "",
                    "selector": "0xa9059cbb",
                    "status": true,
                    "value": "0"
                },
                "nodeType": 0
            },
            "1": {
                "event": {
                    "contract": "0x13f25cd52b21650caa8225c9942337d914c9b030",
                    "decodedLog": {
                        "name": "Transfer",
                        "params": [
                            {
                                "name": "from",
                                "type": "address",
                                "value": "0x9c99bf6b2498d8e4db6afd11eade8bc69cb9a2b6"
                            },
                            {
                                "name": "to",
                                "type": "address",
                                "value": "0x8a1b267b01e425e97e40ceff1bf2049ded952488"
                            },
                            {
                                "decimalAvailable": true,
                                "name": "value",
                                "type": "uint256",
                                "value": "252,000,000,000,000,000,000,000"
                            }
                        ],
                        "signature": "Transfer(address,address,uint256)"
                    },
                    "id": 1,
                    "logData": "0x00000000000000000000000000000000000000000000355cf2870ec725800000",
                    "logDecoded": true,
                    "operation": "EVENT",
                    "revert": false,
                    "status": true,
                    "topics": [
                        "0xddf252ad1be2c89b69c2b068fc378daa952ba7f163c4a11628f55a4df523b3ef",
                        "0x0000000000000000000000009c99bf6b2498d8e4db6afd11eade8bc69cb9a2b6",
                        "0x0000000000000000000000008a1b267b01e425e97e40ceff1bf2049ded952488"
                    ]
                },
                "nodeType": 1
            }
        },
        "gasFlame": [
            {
                "children": [
                    {
                        "children": [
                            {
                                "children": [],
                                "depth": 0,
                                "name": "Initial Gas",
                                "value": 23320
                            },
                            {
                                "children": [],
                                "depth": 0,
                                "name": "Executed Gas",
                                "value": 29628
                            }
                        ],
                        "depth": -1,
                        "name": "Actual Gas Used",
                        "value": 52948
                    },
                    {
                        "children": [],
                        "depth": -1,
                        "name": "Refunded Gas",
                        "value": 0
                    }
                ],
                "depth": -2,
                "name": "Total Gas",
                "value": 52948
            }
        ],
        "isConfirmed": true,
        "mainTrace": [
            {
                "children": [
                    {
                        "children": [
                            {
                                "children": [],
                                "depth": 1,
                                "id": 1,
                                "order": 1
                            }
                        ],
                        "depth": 0,
                        "id": 0,
                        "order": 0
                    }
                ],
                "depth": -1,
                "id": -1,
                "order": -1
            }
        ],
        "mainTraceNodeCount": 2,
        "parentIdMap": {
            "0": -1,
            "1": 0
        },
        "tidyTrace": [
            {
                "children": [
                    {
                        "children": [
                            {
                                "children": [],
                                "depth": 1,
                                "id": 1,
                                "order": 1
                            }
                        ],
                        "depth": 0,
                        "id": 0,
                        "order": 0
                    }
                ],
                "depth": -1,
                "id": -1,
                "order": -1
            }
        ],
        "tidyTraceNodeCount": 2
    },
    "state_change": {
        "stateChanges": [
            {
                "address": "0x13f25cd52b21650caa8225c9942337d914c9b030",
                "erc": "",
                "slots": [
                    {
                        "current": "0x00000000000000000000000000000000000000000000355cf2870ec725800000",
                        "key": "0xc76372f041cefad70f887fec9f14b16bc416333f7ac0cff51014cfd38926cb22",
                        "prev": "0x0000000000000000000000000000000000000000000000000000000000000000"
                    },
                    {
                        "current": "0x0000000000000000000000000000000000000000000b8feb4d9bf3c6f01c0000",
                        "key": "0x355823db9fcc516a1746d5beb859742dcf309fc77c69157b36ad1bc4bea62080",
                        "prev": "0x0000000000000000000000000000000000000000000bc5484023028e159c0000"
                    }
                ],
                "storageVariables": [
                    {
                        "name": "balanceOf",
                        "type": "mapping(address => uint256)",
                        "value": {
                            "pairs": [
                                {
                                    "key": "0x8a1b267b01e425e97e40ceff1bf2049ded952488",
                                    "value": {
                                        "current": "252000000000000000000000",
                                        "prev": "0",
                                        "typeTag": 1
                                    }
                                },
                                {
                                    "key": "0x9c99bf6b2498d8e4db6afd11eade8bc69cb9a2b6",
                                    "value": {
                                        "current": "13977823000000000000000000",
                                        "prev": "14229823000000000000000000",
                                        "typeTag": 1
                                    }
                                }
                            ],
                            "typeTag": 4
                        }
                    }
                ]
            }
        ]
    }
}