{
    "balance_change": {
        "balanceChanges": [
            {
                "account": "0xd828e6e2d18aea85b9933510ce1f12beafb44589",
                "assets": [
                    {
                        "address": "0xeeeeeeeeeeeeeeeeeeeeeeeeeeeeeeeeeeeeeeee",
                        "amount": "0.061264609148523873",
                        "iconUrl": "https://assets.blocksec.com/image/1663669189317-3.png",
                        "isERC1155": false,
                        "isERC721": false,
                        "sign": true,
                        "value": "100.64927908030002465"
                    },
                    {
                        "address": "0x5283d291dbcf85356a21ba090e6db59121208b44",
                        "amount": "123.05276736813636",
                        "iconUrl": "",
                        "isERC1155": false,
                        "isERC721": false,
                        "sign": false,
                        "value": "92.314186103479997286"
                    }
                ]
            },
            {
                "account": "0x824a30f2984f9013f2c8d0a29c0a3cc5fd5c0673",
                "assets": [
                    {
                        "address": "0xc02aaa39b223fe8d0a0e5c4f27ead9083c756cc2",
                        "amount": "0.061264609148523873",
                        "iconUrl": "https://assets.blocksec.com/icon/f1cb2d02c471d545bbc7722daf3277fd852d98e63d118771af7047bd8256c516.png",
                        "isERC1155": false,
                        "isERC721": false,
                        "sign": false,
                        "value": "100.64927908030002465"
                    },
                    {
                        "address": "0x5283d291dbcf85356a21ba090e6db59121208b44",
                        "amount": "123.05276736813636",
                        "iconUrl": "",
                        "isERC1155": false,
                        "isERC721": false,
                        "sign": true,
                        "value": "92.314186103479997286"
                    }
                ]
            },
            {
                "account": "0xc02aaa39b223fe8d0a0e5c4f27ead9083c756cc2",
                "assets": [
                    {
                        "address": "0xc02aaa39b223fe8d0a0e5c4f27ead9083c756cc2",
                        "amount": "0.061264609148523873",
                        "iconUrl": "https://assets.blocksec.com/icon/f1cb2d02c471d545bbc7722daf3277fd852d98e63d118771af7047bd8256c516.png",
                        "isERC1155": false,
                        "isERC721": false,
                        "sign": true,
                        "value": "100.64927908030002465"
                    },
                    {
                        "address": "0xeeeeeeeeeeeeeeeeeeeeeeeeeeeeeeeeeeeeeeee",
                        "amount": "0.061264609148523873",
                        "iconUrl": "https://assets.blocksec.com/image/1663669189317-3.png",
                        "isERC1155": false,
                        "isERC721": false,
                        "sign": false,
                        "value": "100.64927908030002465"
                    }
                ]
            }
        ]
    },
    "profile": {
        "basic_info": {
            "baseFee": "21.553145847",
            "blockNumber": 16633249,
            "callData": "0x3593564c000000000000000000000000000000000000000000000000000000000000006000000000000000000000000000000000000000000000000000000000000000a00000000000000000000000000000000000000000000000000000000063ecac9b00000000000000000000000000000000000000000000000000000000000000030a000c00000000000000000000000000000000000000000000000000000000000000000000000000000000000000000000000000000000000000000000000003000000000000000000000000000000000000000000000000000000000000006000000000000000000000000000000000000000000000000000000000000001e0000000000000000000000000000000000000000000000000000000000000030000000000000000000000000000000000000000000000000000000000000001600000000000000000000000005283d291dbcf85356a21ba090e6db59121208b44000000000000000000000000ffffffffffffffffffffffffffffffffffffffff000000000000000000000000000000000000000000000000000000006414326e0000000000000000000000000000000000000000000000000000000000000000000000000000000000000000ef1c6e67703c7bd7107eed8303fbe6ec2554bf6b0000000000000000000000000000000000000000000000000000000063ecac7600000000000000000000000000000000000000000000000000000000000000e000000000000000000000000000000000000000000000000000000000000000410b5b93c478bb199b57855a0f34c3929e22d8192ff51c6377fd6247f4bebd90ca7b3b673112800760415daed60119be895d147a3fa1d36a3d277b9959047e2f921c0000000000000000000000000000000000000000000000000000000000000000000000000000000000000000000000000000000000000000000000000001000000000000000000000000000000000000000000000000000000000000000002000000000000000000000000000000000000000000000006abb33ff5b68c004000000000000000000000000000000000000000000000000000d8bf4cb35d432e00000000000000000000000000000000000000000000000000000000000000a00000000000000000000000000000000000000000000000000000000000000001000000000000000000000000000000000000000000000000000000000000002b5283d291dbcf85356a21ba090e6db59121208b44000bb8c02aaa39b223fe8d0a0e5c4f27ead9083c756cc20000000000000000000000000000000000000000000000000000000000000000000000000000000000000000000000000000000040000000000000000000000000000000000000000000000000000000000000000100000000000000000000000000000000000000000000000000d8bf4cb35d432e",
            "debugEnable": true,
            "errorInfo": "",
            "eventCount": 5,
            "feeRecipient": "0x690b9a9e9aa1c9db991c7721a92d351db4fac990",
            "formatValue": "0",
            "gasLimit": 228722,
            "gasPrice": "22.553145847",
            "gasUsed": 161189,
            "intTxnCount": 13,
            "internalRevert": false,
            "internalRevertMessage": "",
            "isContractCreation": false,
            "isFlashloan": false,
            "maxFee": "31.473717079",
            "nonce": 119,
            "overwritedBlockNumber": -1,
            "priorityFee": "1",
            "receiver": "0xef1c6e67703c7bd7107eed8303fbe6ec2554bf6b",
            "revertMessage": "",
            "sender": "0xd828e6e2d18aea85b9933510ce1f12beafb44589",
            "simulationEnable": true,
            "sourceTxnHash": "0x8f31877331bb8bb6ea1885be3fed20b7f45cdaf13d1f936bbbc8605e4d2b8d39",
            "status": true,
            "timestamp": "2023-02-15T09:28:11Z",
            "transactionFee": "0.003635319025932083",
            "txnHash": "0x8f31877331bb8bb6ea1885be3fed20b7f45cdaf13d1f936bbbc8605e4d2b8d39",
            "txnIndex": 135,
            "type": 2,
            "value": "0"
        },
        "fund_flow": [
            {
                "amount": "0.061264609148523873",
                "from": "0x824a30f2984f9013f2c8d0a29c0a3cc5fd5c0673",
                "id": 1,
                "isERC1155": false,
                "isERC721": false,
                "isReverted": false,
                "order": 1,
                "to": "0xef1c6e67703c7bd7107eed8303fbe6ec2554bf6b",
                "token": "0xc02aaa39b223fe8d0a0e5c4f27ead9083c756cc2"
            },
            {
                "amount": "123.05276736813636",
                "from": "0xd828e6e2d18aea85b9933510ce1f12beafb44589",
                "id": 2,
                "isERC1155": false,
                "isERC721": false,
                "isReverted": false,
                "order": 2,
                "to": "0x824a30f2984f9013f2c8d0a29c0a3cc5fd5c0673",
                "token": "0x5283d291dbcf85356a21ba090e6db59121208b44"
            },
            {
                "amount": "0.061264609148523873",
                "from": "0xc02aaa39b223fe8d0a0e5c4f27ead9083c756cc2",
                "id": 3,
                "isERC1155": false,
                "isERC721": false,
                "isReverted": false,
                "order": 3,
                "to": "0xef1c6e67703c7bd7107eed8303fbe6ec2554bf6b",
                "token": "0xeeeeeeeeeeeeeeeeeeeeeeeeeeeeeeeeeeeeeeee"
            },
            {
                "amount": "0.061264609148523873",
                "from": "0xef1c6e67703c7bd7107eed8303fbe6ec2554bf6b",
                "id": 4,
                "isERC1155": false,
                "isERC721": false,
                "isReverted": false,
                "order": 4,
                "to": "0xc02aaa39b223fe8d0a0e5c4f27ead9083c756cc2",
                "token": "0xc02aaa39b223fe8d0a0e5c4f27ead9083c756cc2"
            },
            {
                "amount": "0.061264609148523873",
                "from": "0xef1c6e67703c7bd7107eed8303fbe6ec2554bf6b",
                "id": 5,
                "isERC1155": false,
                "isERC721": false,
                "isReverted": false,
                "order": 5,
                "to": "0xd828e6e2d18aea85b9933510ce1f12beafb44589",
                "token": "0xeeeeeeeeeeeeeeeeeeeeeeeeeeeeeeeeeeeeeeee"
            }
        ],
        "token_infos": [
            {
                "address": "0x5283d291dbcf85356a21ba090e6db59121208b44",
                "decimals": 18
            },
            {
                "address": "0xc02aaa39b223fe8d0a0e5c4f27ead9083c756cc2",
                "decimals": 18
            },
            {
                "address": "0xeeeeeeeeeeeeeeeeeeeeeeeeeeeeeeeeeeeeeeee",
                "decimals": 18
            }
        ]
    },
    "address_label": {
        "labels": [
            {
                "address": "0xeeeeeeeeeeeeeeeeeeeeeeeeeeeeeeeeeeeeeeee",
                "label": "Ether"
            },
            {
                "address": "0x824a30f2984f9013f2c8d0a29c0a3cc5fd5c0673",
                "label": "Uniswap V3: BLUR 7"
            },
            {
                "address": "0xc02aaa39b223fe8d0a0e5c4f27ead9083c756cc2",
                "label": "Wrapped Ether (WETH)"
            },
            {
                "address": "0xef1c6e67703c7bd7107eed8303fbe6ec2554bf6b",
                "label": "Uniswap: Universal Router 2"
            },
            {
                "address": "0x0000000000000000000000000000000000000001",
                "label": "Precompiled"
            },
            {
                "address": "0x0000000000000000000000000000000000000002",
                "label": "Precompiled"
            },
            {
                "address": "0x0000000000000000000000000000000000000003",
                "label": "Precompiled"
            },
            {
                "address": "0x0000000000000000000000000000000000000004",
                "label": "Precompiled"
            },
            {
                "address": "0x000000000022d473030f116ddee9f6b43ac78ba3",
                "label": "Permit2"
            },
            {
                "address": "0x5283d291dbcf85356a21ba090e6db59121208b44",
                "label": "Blur: BLUR Token"
            }
        ]
    },
    "trace": {
        "accountLabels": null,
        "dataMap": {
            "-1": {
                "invocation": {
                    "address": "0xd828e6e2d18aea85b9933510ce1f12beafb44589",
                    "callData": "",
                    "decodedMethod": null,
                    "errorInfo": "",
                    "fromAddress": "",
                    "gasUsed": 0,
                    "id": -1,
                    "methodDecoded": false,
                    "operation": "",
                    "output": "",
                    "revert": false,
                    "revertMessage": "",
                    "selector": "",
                    "status": false,
                    "value": ""
                },
                "nodeType": 0
            },
            "0": {
                "invocation": {
                    "address": "0xef1c6e67703c7bd7107eed8303fbe6ec2554bf6b",
                    "callData": "0x000000000000000000000000000000000000000000000000000000000000006000000000000000000000000000000000000000000000000000000000000000a00000000000000000000000000000000000000000000000000000000063ecac9b00000000000000000000000000000000000000000000000000000000000000030a000c00000000000000000000000000000000000000000000000000000000000000000000000000000000000000000000000000000000000000000000000003000000000000000000000000000000000000000000000000000000000000006000000000000000000000000000000000000000000000000000000000000001e0000000000000000000000000000000000000000000000000000000000000030000000000000000000000000000000000000000000000000000000000000001600000000000000000000000005283d291dbcf85356a21ba090e6db59121208b44000000000000000000000000ffffffffffffffffffffffffffffffffffffffff000000000000000000000000000000000000000000000000000000006414326e0000000000000000000000000000000000000000000000000000000000000000000000000000000000000000ef1c6e67703c7bd7107eed8303fbe6ec2554bf6b0000000000000000000000000000000000000000000000000000000063ecac7600000000000000000000000000000000000000000000000000000000000000e000000000000000000000000000000000000000000000000000000000000000410b5b93c478bb199b57855a0f34c3929e22d8192ff51c6377fd6247f4bebd90ca7b3b673112800760415daed60119be895d147a3fa1d36a3d277b9959047e2f921c0000000000000000000000000000000000000000000000000000000000000000000000000000000000000000000000000000000000000000000000000001000000000000000000000000000000000000000000000000000000000000000002000000000000000000000000000000000000000000000006abb33ff5b68c004000000000000000000000000000000000000000000000000000d8bf4cb35d432e00000000000000000000000000000000000000000000000000000000000000a00000000000000000000000000000000000000000000000000000000000000001000000000000000000000000000000000000000000000000000000000000002b5283d291dbcf85356a21ba090e6db59121208b44000bb8c02aaa39b223fe8d0a0e5c4f27ead9083c756cc20000000000000000000000000000000000000000000000000000000000000000000000000000000000000000000000000000000040000000000000000000000000000000000000000000000000000000000000000100000000000000000000000000000000000000000000000000d8bf4cb35d432e",
                    "decodedMethod": {
                        "callParams": [
                            {
                                "name": "commands",
                                "type": "bytes",
                                "value": "0x0a000c"
                            },
                            {
                                "name": "inputs",
                                "type": "bytes[]",
                                "value": [
                                    "0x0000000000000000000000005283d291dbcf85356a21ba090e6db59121208b44000000000000000000000000ffffffffffffffffffffffffffffffffffffffff000000000000000000000000000000000000000000000000000000006414326e0000000000000000000000000000000000000000000000000000000000000000000000000000000000000000ef1c6e67703c7bd7107eed8303fbe6ec2554bf6b0000000000000000000000000000000000000000000000000000000063ecac7600000000000000000000000000000000000000000000000000000000000000e000000000000000000000000000000000000000000000000000000000000000410b5b93c478bb199b57855a0f34c3929e22d8192ff51c6377fd6247f4bebd90ca7b3b673112800760415daed60119be895d147a3fa1d36a3d277b9959047e2f921c00000000000000000000000000000000000000000000000000000000000000",
                                    "0x0000000000000000000000000000000000000000000000000000000000000002000000000000000000000000000000000000000000000006abb33ff5b68c004000000000000000000000000000000000000000000000000000d8bf4cb35d432e00000000000000000000000000000000000000000000000000000000000000a00000000000000000000000000000000000000000000000000000000000000001000000000000000000000000000000000000000000000000000000000000002b5283d291dbcf85356a21ba090e6db59121208b44000bb8c02aaa39b223fe8d0a0e5c4f27ead9083c756cc2000000000000000000000000000000000000000000",
                                    "0x000000000000000000000000000000000000000000000000000000000000000100000000000000000000000000000000000000000000000000d8bf4cb35d432e"
                                ]
                            },
                            {
                                "name": "deadline",
                                "type": "uint256",
                                "value": "1,676,455,067"
                            }
                        ],
                        "constructorArguments": "",
                        "name": "execute",
                        "returnParams": [],
                        "signature": "execute(bytes,bytes[],uint256)"
                    },
                    "errorInfo": "",
                    "fromAddress": "0xd828e6e2d18aea85b9933510ce1f12beafb44589",
                    "gasUsed": 161189,
                    "id": 0,
                    "methodDecoded": true,
                    "operation": "CALL",
                    "output": "",
                    "revert": false,
                    "revertMessage": "",
                    "selector": "0x3593564c",
                    "status": true,
                    "value": "0"
                },
                "nodeType": 0
            },
            "1": {
                "invocation": {
                    "address": "0x000000000022d473030f116ddee9f6b43ac78ba3",
                    "callData": "0x000000000000000000000000d828e6e2d18aea85b9933510ce1f12beafb445890000000000000000000000005283d291dbcf85356a21ba090e6db59121208b44000000000000000000000000ffffffffffffffffffffffffffffffffffffffff000000000000000000000000000000000000000000000000000000006414326e0000000000000000000000000000000000000000000000000000000000000000000000000000000000000000ef1c6e67703c7bd7107eed8303fbe6ec2554bf6b0000000000000000000000000000000000000000000000000000000063ecac76000000000000000000000000000000000000000000000000000000000000010000000000000000000000000000000000000000000000000000000000000000410b5b93c478bb199b57855a0f34c3929e22d8192ff51c6377fd6247f4bebd90ca7b3b673112800760415daed60119be895d147a3fa1d36a3d277b9959047e2f921c00000000000000000000000000000000000000000000000000000000000000",
                    "decodedMethod": {
                        "callParams": [
                            {
                                "name": "owner",
                                "type": "address",
                                "value": "0xd828e6e2d18aea85b9933510ce1f12beafb44589"
                            },
                            {
                                "name": "permitSingle",
                                "type": "((address,uint160,uint48,uint48),address,uint256)",
                                "value": [
                                    {
                                        "name": "details",
                                        "type": "(address,uint160,uint48,uint48)",
                                        "value": [
                                            {
                                                "name": "token",
                                                "type": "address",
                                                "value": "0x5283d291dbcf85356a21ba090e6db59121208b44"
                                            },
                                            {
                                                "name": "amount",
                                                "type": "uint160",
                                                "value": "1,461,501,637,330,902,918,203,684,832,716,283,019,655,932,542,975"
                                            },
                                            {
                                                "name": "expiration",
                                                "type": "uint48",
                                                "value": "1,679,045,230"
                                            },
                                            {
                                                "name": "nonce",
                                                "type": "uint48",
                                                "value": "0"
                                            }
                                        ]
                                    },
                                    {
                                        "name": "spender",
                                        "type": "address",
                                        "value": "0xef1c6e67703c7bd7107eed8303fbe6ec2554bf6b"
                                    },
                                    {
                                        "name": "sigDeadline",
                                        "type": "uint256",
                                        "value": "1,676,455,030"
                                    }
                                ]
                            },
                            {
                                "name": "signature",
                                "type": "bytes",
                                "value": "0x0b5b93c478bb199b57855a0f34c3929e22d8192ff51c6377fd6247f4bebd90ca7b3b673112800760415daed60119be895d147a3fa1d36a3d277b9959047e2f921c"
                            }
                        ],
                        "constructorArguments": "",
                        "name": "permit",
                        "returnParams": [],
                        "signature": "permit(address,((address,uint160,uint48,uint48),address,uint256),bytes)"
                    },
                    "errorInfo": "",
                    "fromAddress": "0xef1c6e67703c7bd7107eed8303fbe6ec2554bf6b",
                    "gasUsed": 30786,
                    "id": 1,
                    "methodDecoded": true,
                    "operation": "CALL",
                    "output": "",
                    "revert": false,
                    "revertMessage": "",
                    "selector": "0x2b67b570",
                    "status": true,
                    "value": "0"
                },
                "nodeType": 0
            },
            "10": {
                "invocation": {
                    "address": "0x5283d291dbcf85356a21ba090e6db59121208b44",
                    "callData": "0x000000000000000000000000d828e6e2d18aea85b9933510ce1f12beafb44589000000000000000000000000824a30f2984f9013f2c8d0a29c0a3cc5fd5c0673000000000000000000000000000000000000000000000006abb33ff5b68c0040",
                    "decodedMethod": {
                        "callParams": [
                            {
                                "name": "from",
                                "type": "address",
                                "value": "0xd828e6e2d18aea85b9933510ce1f12beafb44589"
                            },
                            {
                                "name": "to",
                                "type": "address",
                                "value": "0x824a30f2984f9013f2c8d0a29c0a3cc5fd5c0673"
                            },
                            {
                                "decimalAvailable": true,
                                "name": "amount",
                                "type": "uint256",
                                "value": "123,052,767,368,136,360,000"
                            }
                        ],
                        "constructorArguments": "",
                        "name": "transferFrom",
                        "returnParams": [
                            {
                                "name": "",
                                "type": "bool",
                                "value": true
                            }
                        ],
                        "signature": "transferFrom(address,address,uint256)"
                    },
                    "errorInfo": "",
                    "fromAddress": "0x000000000022d473030f116ddee9f6b43ac78ba3",
                    "gasUsed": 17652,
                    "id": 10,
                    "methodDecoded": true,
                    "operation": "CALL",
                    "output": "0x0000000000000000000000000000000000000000000000000000000000000001",
                    "revert": false,
                    "revertMessage": "",
                    "selector": "0x23b872dd",
                    "status": true,
                    "value": "0"
                },
                "nodeType": 0
            },
            "11": {
                "event": {
                    "contract": "0x5283d291dbcf85356a21ba090e6db59121208b44",
                    "decodedLog": {
                        "name": "Transfer",
                        "params": [
                            {
                                "name": "from",
                                "type": "address",
                                "value": "0xd828e6e2d18aea85b9933510ce1f12beafb44589"
                            },
                            {
                                "name": "to",
                                "type": "address",
                                "value": "0x824a30f2984f9013f2c8d0a29c0a3cc5fd5c0673"
                            },
                            {
                                "decimalAvailable": true,
                                "name": "value",
                                "type": "uint256",
                                "value": "123,052,767,368,136,360,000"
                            }
                        ],
                        "signature": "Transfer(address,address,uint256)"
                    },
                    "id": 11,
                    "logData": "0x000000000000000000000000000000000000000000000006abb33ff5b68c0040",
                    "logDecoded": true,
                    "operation": "EVENT",
                    "revert": false,
                    "status": true,
                    "topics": [
                        "0xddf252ad1be2c89b69c2b068fc378daa952ba7f163c4a11628f55a4df523b3ef",
                        "0x000000000000000000000000d828e6e2d18aea85b9933510ce1f12beafb44589",
                        "0x000000000000000000000000824a30f2984f9013f2c8d0a29c0a3cc5fd5c0673"
                    ]
                },
                "nodeType": 1
            },
            "12": {
                "invocation": {
                    "address": "0x5283d291dbcf85356a21ba090e6db59121208b44",
                    "callData": "0x000000000000000000000000824a30f2984f9013f2c8d0a29c0a3cc5fd5c0673",
                    "decodedMethod": {
                        "callParams": [
                            {
                                "name": "account",
                                "type": "address",
                                "value": "0x824a30f2984f9013f2c8d0a29c0a3cc5fd5c0673"
                            }
                        ],
                        "constructorArguments": "",
                        "name": "balanceOf",
                        "returnParams": [
                            {
                                "decimalAvailable": true,
                                "name": "",
                                "type": "uint256",
                                "value": "1,062,488,968,746,747,805,088,606"
                            }
                        ],
                        "signature": "balanceOf(address)"
                    },
                    "errorInfo": "",
                    "fromAddress": "0x824a30f2984f9013f2c8d0a29c0a3cc5fd5c0673",
                    "gasUsed": 645,
                    "id": 12,
                    "methodDecoded": true,
                    "operation": "STATICCALL",
                    "output": "0x00000000000000000000000000000000000000000000e0fda474d759769cbb5e",
                    "revert": false,
                    "revertMessage": "",
                    "selector": "0x70a08231",
                    "status": true,
                    "value": "0"
                },
                "nodeType": 0
            },
            "13": {
                "event": {
                    "contract": "0x824a30f2984f9013f2c8d0a29c0a3cc5fd5c0673",
                    "decodedLog": {
                        "name": "Swap",
                        "params": [
                            {
                                "name": "sender",
                                "type": "address",
                                "value": "0xef1c6e67703c7bd7107eed8303fbe6ec2554bf6b"
                            },
                            {
                                "name": "recipient",
                                "type": "address",
                                "value": "0xef1c6e67703c7bd7107eed8303fbe6ec2554bf6b"
                            },
                            {
                                "name": "amount0",
                                "type": "int256",
                                "value": "123,052,767,368,136,360,000"
                            },
                            {
                                "name": "amount1",
                                "type": "int256",
                                "value": "-61,264,609,148,523,873"
                            },
                            {
                                "name": "sqrtPriceX96",
                                "type": "uint160",
                                "value": "1,770,474,378,182,756,383,422,524,602"
                            },
                            {
                                "name": "liquidity",
                                "type": "uint128",
                                "value": "397,023,252,074,155,989,159,577"
                            },
                            {
                                "name": "tick",
                                "type": "int24",
                                "value": "-76,026"
                            }
                        ],
                        "signature": "Swap(address,address,int256,int256,uint160,uint128,int24)"
                    },
                    "id": 13,
                    "logData": "0x000000000000000000000000000000000000000000000006abb33ff5b68c0040ffffffffffffffffffffffffffffffffffffffffffffffffff2658299e662a9f000000000000000000000000000000000000000005b880885b97b094ea3dacba000000000000000000000000000000000000000000005412ac72721a44e64e99fffffffffffffffffffffffffffffffffffffffffffffffffffffffffffed706",
                    "logDecoded": true,
                    "operation": "EVENT",
                    "revert": false,
                    "status": true,
                    "topics": [
                        "0xc42079f94a6350d7e6235f29174924f928cc2ac818eb64fed8004e115fbcca67",
                        "0x000000000000000000000000ef1c6e67703c7bd7107eed8303fbe6ec2554bf6b",
                        "0x000000000000000000000000ef1c6e67703c7bd7107eed8303fbe6ec2554bf6b"
                    ]
                },
                "nodeType": 1
            },
            "14": {
                "invocation": {
                    "address": "0xc02aaa39b223fe8d0a0e5c4f27ead9083c756cc2",
                    "callData": "0x000000000000000000000000ef1c6e67703c7bd7107eed8303fbe6ec2554bf6b",
                    "decodedMethod": {
                        "callParams": [
                            {
                                "name": "",
                                "type": "address",
                                "value": "0xef1c6e67703c7bd7107eed8303fbe6ec2554bf6b"
                            }
                        ],
                        "constructorArguments": "",
                        "name": "balanceOf",
                        "returnParams": [
                            {
                                "decimalAvailable": true,
                                "name": "",
                                "type": "uint256",
                                "value": "61,264,609,148,523,873"
                            }
                        ],
                        "signature": "balanceOf(address)"
                    },
                    "errorInfo": "",
                    "fromAddress": "0xef1c6e67703c7bd7107eed8303fbe6ec2554bf6b",
                    "gasUsed": 534,
                    "id": 14,
                    "methodDecoded": true,
                    "operation": "STATICCALL",
                    "output": "0x00000000000000000000000000000000000000000000000000d9a7d66199d561",
                    "revert": false,
                    "revertMessage": "",
                    "selector": "0x70a08231",
                    "status": true,
                    "value": "0"
                },
                "nodeType": 0
            },
            "15": {
                "invocation": {
                    "address": "0xc02aaa39b223fe8d0a0e5c4f27ead9083c756cc2",
                    "callData": "0x00000000000000000000000000000000000000000000000000d9a7d66199d561",
                    "decodedMethod": {
                        "callParams": [
                            {
                                "name": "wad",
                                "type": "uint256",
                                "value": "61,264,609,148,523,873"
                            }
                        ],
                        "constructorArguments": "",
                        "name": "withdraw",
                        "returnParams": [],
                        "signature": "withdraw(uint256)"
                    },
                    "errorInfo": "",
                    "fromAddress": "0xef1c6e67703c7bd7107eed8303fbe6ec2554bf6b",
                    "gasUsed": 9202,
                    "id": 15,
                    "methodDecoded": true,
                    "operation": "CALL",
                    "output": "",
                    "revert": false,
                    "revertMessage": "",
                    "selector": "0x2e1a7d4d",
                    "status": true,
                    "value": "0"
                },
                "nodeType": 0
            },
            "16": {
                "invocation": {
                    "address": "0xef1c6e67703c7bd7107eed8303fbe6ec2554bf6b",
                    "callData": "0x",
                    "decodedMethod": null,
                    "errorInfo": "",
                    "fromAddress": "0xc02aaa39b223fe8d0a0e5c4f27ead9083c756cc2",
                    "gasUsed": 62,
                    "id": 16,
                    "methodDecoded": false,
                    "operation": "CALL",
                    "output": "",
                    "revert": false,
                    "revertMessage": "",
                    "selector": "fallback",
                    "status": true,
                    "value": "0.061264609148523873"
                },
                "nodeType": 0
            },
            "17": {
                "event": {
                    "contract": "0xc02aaa39b223fe8d0a0e5c4f27ead9083c756cc2",
                    "decodedLog": {
                        "name": "Withdrawal",
                        "params": [
                            {
                                "name": "src",
                                "type": "address",
                                "value": "0xef1c6e67703c7bd7107eed8303fbe6ec2554bf6b"
                            },
                            {
                                "name": "wad",
                                "type": "uint256",
                                "value": "61,264,609,148,523,873"
                            }
                        ],
                        "signature": "Withdrawal(address,uint256)"
                    },
                    "id": 17,
                    "logData": "0x00000000000000000000000000000000000000000000000000d9a7d66199d561",
                    "logDecoded": true,
                    "operation": "EVENT",
                    "revert": false,
                    "status": true,
                    "topics": [
                        "0x7fcf532c15f0a6db0bd6d0e038bea71d30d808c7d98cb3bf7268a95bf5081b65",
                        "0x000000000000000000000000ef1c6e67703c7bd7107eed8303fbe6ec2554bf6b"
                    ]
                },
                "nodeType": 1
            },
            "18": {
                "invocation": {
                    "address": "0xd828e6e2d18aea85b9933510ce1f12beafb44589",
                    "callData": "0x",
                    "decodedMethod": null,
                    "errorInfo": "",
                    "fromAddress": "0xef1c6e67703c7bd7107eed8303fbe6ec2554bf6b",
                    "gasUsed": 0,
                    "id": 18,
                    "methodDecoded": false,
                    "operation": "CALL",
                    "output": "",
                    "revert": false,
                    "revertMessage": "",
                    "selector": "fallback",
                    "status": true,
                    "value": "0.061264609148523873"
                },
                "nodeType": 0
            },
            "2": {
                "invocation": {
                    "address": "0x0000000000000000000000000000000000000001",
                    "callData": "0x59817d5f417fc974bb716272ffbc282da9694aa5b2dbc4856e18e901000000000000000000000000000000000000000000000000000000000000001c0b5b93c478bb199b57855a0f34c3929e22d8192ff51c6377fd6247f4bebd90ca7b3b673112800760415daed60119be895d147a3fa1d36a3d277b9959047e2f92",
                    "decodedMethod": {
                        "callParams": [
                            {
                                "name": "hash",
                                "type": "bytes32",
                                "value": "0x7957a6b159817d5f417fc974bb716272ffbc282da9694aa5b2dbc4856e18e901"
                            },
                            {
                                "name": "v",
                                "type": "uint256",
                                "value": "28"
                            },
                            {
                                "name": "r",
                                "type": "bytes32",
                                "value": "0x0b5b93c478bb199b57855a0f34c3929e22d8192ff51c6377fd6247f4bebd90ca"
                            },
                            {
                                "name": "s",
                                "type": "bytes32",
                                "value": "0x7b3b673112800760415daed60119be895d147a3fa1d36a3d277b9959047e2f92"
                            }
                        ],
                        "constructorArguments": "",
                        "name": "ecrecover",
                        "returnParams": [
                            {
                                "name": "",
                                "type": "address",
                                "value": "0xd828e6e2d18aea85b9933510ce1f12beafb44589"
                            }
                        ],
                        "signature": "ecrecover(bytes32,uint256,bytes32,bytes32)"
                    },
                    "errorInfo": "",
                    "fromAddress": "0x000000000022d473030f116ddee9f6b43ac78ba3",
                    "gasUsed": 3000,
                    "id": 2,
                    "methodDecoded": true,
                    "operation": "STATICCALL",
                    "output": "0x000000000000000000000000d828e6e2d18aea85b9933510ce1f12beafb44589",
                    "revert": false,
                    "revertMessage": "",
                    "selector": "0x7957a6b1",
                    "status": true,
                    "value": "0"
                },
                "nodeType": 0
            },
            "3": {
                "event": {
                    "contract": "0x000000000022d473030f116ddee9f6b43ac78ba3",
                    "decodedLog": {
                        "name": "Permit",
                        "params": [
                            {
                                "name": "owner",
                                "type": "address",
                                "value": "0xd828e6e2d18aea85b9933510ce1f12beafb44589"
                            },
                            {
                                "name": "token",
                                "type": "address",
                                "value": "0x5283d291dbcf85356a21ba090e6db59121208b44"
                            },
                            {
                                "name": "spender",
                                "type": "address",
                                "value": "0xef1c6e67703c7bd7107eed8303fbe6ec2554bf6b"
                            },
                            {
                                "name": "amount",
                                "type": "uint160",
                                "value": "1,461,501,637,330,902,918,203,684,832,716,283,019,655,932,542,975"
                            },
                            {
                                "name": "expiration",
                                "type": "uint48",
                                "value": "1,679,045,230"
                            },
                            {
                                "name": "nonce",
                                "type": "uint48",
                                "value": "0"
                            }
                        ],
                        "signature": "Permit(address,address,address,uint160,uint48,uint48)"
                    },
                    "id": 3,
                    "logData": "0x000000000000000000000000ffffffffffffffffffffffffffffffffffffffff000000000000000000000000000000000000000000000000000000006414326e0000000000000000000000000000000000000000000000000000000000000000",
                    "logDecoded": true,
                    "operation": "EVENT",
                    "revert": false,
                    "status": true,
                    "topics": [
                        "0xc6a377bfc4eb120024a8ac08eef205be16b817020812c73223e81d1bdb9708ec",
                        "0x000000000000000000000000d828e6e2d18aea85b9933510ce1f12beafb44589",
                        "0x0000000000000000000000005283d291dbcf85356a21ba090e6db59121208b44",
                        "0x000000000000000000000000ef1c6e67703c7bd7107eed8303fbe6ec2554bf6b"
                    ]
                },
                "nodeType": 1
            },
            "4": {
                "invocation": {
                    "address": "0x824a30f2984f9013f2c8d0a29c0a3cc5fd5c0673",
                    "callData": "0x000000000000000000000000ef1c6e67703c7bd7107eed8303fbe6ec2554bf6b0000000000000000000000000000000000000000000000000000000000000001000000000000000000000000000000000000000000000006abb33ff5b68c004000000000000000000000000000000000000000000000000000000001000276a400000000000000000000000000000000000000000000000000000000000000a000000000000000000000000000000000000000000000000000000000000000a00000000000000000000000000000000000000000000000000000000000000040000000000000000000000000d828e6e2d18aea85b9933510ce1f12beafb44589000000000000000000000000000000000000000000000000000000000000002b5283d291dbcf85356a21ba090e6db59121208b44000bb8c02aaa39b223fe8d0a0e5c4f27ead9083c756cc2000000000000000000000000000000000000000000",
                    "decodedMethod": {
                        "callParams": [
                            {
                                "name": "recipient",
                                "type": "address",
                                "value": "0xef1c6e67703c7bd7107eed8303fbe6ec2554bf6b"
                            },
                            {
                                "name": "zeroForOne",
                                "type": "bool",
                                "value": true
                            },
                            {
                                "name": "amountSpecified",
                                "type": "int256",
                                "value": "123,052,767,368,136,360,000"
                            },
                            {
                                "name": "sqrtPriceLimitX96",
                                "type": "uint160",
                                "value": "4,295,128,740"
                            },
                            {
                                "name": "data",
                                "type": "bytes",
                                "value": "0x0000000000000000000000000000000000000000000000000000000000000040000000000000000000000000d828e6e2d18aea85b9933510ce1f12beafb44589000000000000000000000000000000000000000000000000000000000000002b5283d291dbcf85356a21ba090e6db59121208b44000bb8c02aaa39b223fe8d0a0e5c4f27ead9083c756cc2000000000000000000000000000000000000000000"
                            }
                        ],
                        "constructorArguments": "",
                        "name": "swap",
                        "returnParams": [
                            {
                                "name": "amount0",
                                "type": "int256",
                                "value": "123,052,767,368,136,360,000"
                            },
                            {
                                "name": "amount1",
                                "type": "int256",
                                "value": "-61,264,609,148,523,873"
                            }
                        ],
                        "signature": "swap(address,bool,int256,uint160,bytes)"
                    },
                    "errorInfo": "",
                    "fromAddress": "0xef1c6e67703c7bd7107eed8303fbe6ec2554bf6b",
                    "gasUsed": 92464,
                    "id": 4,
                    "methodDecoded": true,
                    "operation": "CALL",
                    "output": "0x000000000000000000000000000000000000000000000006abb33ff5b68c0040ffffffffffffffffffffffffffffffffffffffffffffffffff2658299e662a9f",
                    "revert": false,
                    "revertMessage": "",
                    "selector": "0x128acb08",
                    "status": true,
                    "value": "0"
                },
                "nodeType": 0
            },
            "5": {
                "invocation": {
                    "address": "0xc02aaa39b223fe8d0a0e5c4f27ead9083c756cc2",
                    "callData": "0x000000000000000000000000ef1c6e67703c7bd7107eed8303fbe6ec2554bf6b00000000000000000000000000000000000000000000000000d9a7d66199d561",
                    "decodedMethod": {
                        "callParams": [
                            {
                                "name": "dst",
                                "type": "address",
                                "value": "0xef1c6e67703c7bd7107eed8303fbe6ec2554bf6b"
                            },
                            {
                                "decimalAvailable": true,
                                "name": "wad",
                                "type": "uint256",
                                "value": "61,264,609,148,523,873"
                            }
                        ],
                        "constructorArguments": "",
                        "name": "transfer",
                        "returnParams": [
                            {
                                "name": "",
                                "type": "bool",
                                "value": true
                            }
                        ],
                        "signature": "transfer(address,uint256)"
                    },
                    "errorInfo": "",
                    "fromAddress": "0x824a30f2984f9013f2c8d0a29c0a3cc5fd5c0673",
                    "gasUsed": 29962,
                    "id": 5,
                    "methodDecoded": true,
                    "operation": "CALL",
                    "output": "0x0000000000000000000000000000000000000000000000000000000000000001",
                    "revert": false,
                    "revertMessage": "",
                    "selector": "0xa9059cbb",
                    "status": true,
                    "value": "0"
                },
                "nodeType": 0
            },
            "6": {
                "event": {
                    "contract": "0xc02aaa39b223fe8d0a0e5c4f27ead9083c756cc2",
                    "decodedLog": {
                        "name": "Transfer",
                        "params": [
                            {
                                "name": "src",
                                "type": "address",
                                "value": "0x824a30f2984f9013f2c8d0a29c0a3cc5fd5c0673"
                            },
                            {
                                "name": "dst",
                                "type": "address",
                                "value": "0xef1c6e67703c7bd7107eed8303fbe6ec2554bf6b"
                            },
                            {
                                "decimalAvailable": true,
                                "name": "wad",
                                "type": "uint256",
                                "value": "61,264,609,148,523,873"
                            }
                        ],
                        "signature": "Transfer(address,address,uint256)"
                    },
                    "id": 6,
                    "logData": "0x00000000000000000000000000000000000000000000000000d9a7d66199d561",
                    "logDecoded": true,
                    "operation": "EVENT",
                    "revert": false,
                    "status": true,
                    "topics": [
                        "0xddf252ad1be2c89b69c2b068fc378daa952ba7f163c4a11628f55a4df523b3ef",
                        "0x000000000000000000000000824a30f2984f9013f2c8d0a29c0a3cc5fd5c0673",
                        "0x000000000000000000000000ef1c6e67703c7bd7107eed8303fbe6ec2554bf6b"
                    ]
                },
                "nodeType": 1
            },
            "7": {
                "invocation": {
                    "address": "0x5283d291dbcf85356a21ba090e6db59121208b44",
                    "callData": "0x000000000000000000000000824a30f2984f9013f2c8d0a29c0a3cc5fd5c0673",
                    "decodedMethod": {
                        "callParams": [
                            {
                                "name": "account",
                                "type": "address",
                                "value": "0x824a30f2984f9013f2c8d0a29c0a3cc5fd5c0673"
                            }
                        ],
                        "constructorArguments": "",
                        "name": "balanceOf",
                        "returnParams": [
                            {
                                "decimalAvailable": true,
                                "name": "",
                                "type": "uint256",
                                "value": "1,062,365,915,979,379,668,728,606"
                            }
                        ],
                        "signature": "balanceOf(address)"
                    },
                    "errorInfo": "",
                    "fromAddress": "0x824a30f2984f9013f2c8d0a29c0a3cc5fd5c0673",
                    "gasUsed": 2645,
                    "id": 7,
                    "methodDecoded": true,
                    "operation": "STATICCALL",
                    "output": "0x00000000000000000000000000000000000000000000e0f6f8c19763c010bb1e",
                    "revert": false,
                    "revertMessage": "",
                    "selector": "0x70a08231",
                    "status": true,
                    "value": "0"
                },
                "nodeType": 0
            },
            "8": {
                "invocation": {
                    "address": "0xef1c6e67703c7bd7107eed8303fbe6ec2554bf6b",
                    "callData": "0x000000000000000000000000000000000000000000000006abb33ff5b68c0040ffffffffffffffffffffffffffffffffffffffffffffffffff2658299e662a9f000000000000000000000000000000000000000000000000000000000000006000000000000000000000000000000000000000000000000000000000000000a00000000000000000000000000000000000000000000000000000000000000040000000000000000000000000d828e6e2d18aea85b9933510ce1f12beafb44589000000000000000000000000000000000000000000000000000000000000002b5283d291dbcf85356a21ba090e6db59121208b44000bb8c02aaa39b223fe8d0a0e5c4f27ead9083c756cc2000000000000000000000000000000000000000000",
                    "decodedMethod": {
                        "callParams": [
                            {
                                "name": "amount0Delta",
                                "type": "int256",
                                "value": "123,052,767,368,136,360,000"
                            },
                            {
                                "name": "amount1Delta",
                                "type": "int256",
                                "value": "-61,264,609,148,523,873"
                            },
                            {
                                "name": "data",
                                "type": "bytes",
                                "value": "0x0000000000000000000000000000000000000000000000000000000000000040000000000000000000000000d828e6e2d18aea85b9933510ce1f12beafb44589000000000000000000000000000000000000000000000000000000000000002b5283d291dbcf85356a21ba090e6db59121208b44000bb8c02aaa39b223fe8d0a0e5c4f27ead9083c756cc2000000000000000000000000000000000000000000"
                            }
                        ],
                        "constructorArguments": "",
                        "name": "uniswapV3SwapCallback",
                        "returnParams": [],
                        "signature": "uniswapV3SwapCallback(int256,int256,bytes)"
                    },
                    "errorInfo": "",
                    "fromAddress": "0x824a30f2984f9013f2c8d0a29c0a3cc5fd5c0673",
                    "gasUsed": 21370,
                    "id": 8,
                    "methodDecoded": true,
                    "operation": "CALL",
                    "output": "",
                    "revert": false,
                    "revertMessage": "",
                    "selector": "0xfa461e33",
                    "status": true,
                    "value": "0"
                },
                "nodeType": 0
            },
            "9": {
                "invocation": {
                    "address": "0x000000000022d473030f116ddee9f6b43ac78ba3",
                    "callData": "0x000000000000000000000000d828e6e2d18aea85b9933510ce1f12beafb44589000000000000000000000000824a30f2984f9013f2c8d0a29c0a3cc5fd5c0673000000000000000000000000000000000000000000000006abb33ff5b68c00400000000000000000000000005283d291dbcf85356a21ba090e6db59121208b44",
                    "decodedMethod": {
                        "callParams": [
                            {
                                "name": "from",
                                "type": "address",
                                "value": "0xd828e6e2d18aea85b9933510ce1f12beafb44589"
                            },
                            {
                                "name": "to",
                                "type": "address",
                                "value": "0x824a30f2984f9013f2c8d0a29c0a3cc5fd5c0673"
                            },
                            {
                                "name": "amount",
                                "type": "uint160",
                                "value": "123,052,767,368,136,360,000"
                            },
                            {
                                "name": "token",
                                "type": "address",
                                "value": "0x5283d291dbcf85356a21ba090e6db59121208b44"
                            }
                        ],
                        "constructorArguments": "",
                        "name": "transferFrom",
                        "returnParams": [],
                        "signature": "transferFrom(address,address,uint160,address)"
                    },
                    "errorInfo": "",
                    "fromAddress": "0xef1c6e67703c7bd7107eed8303fbe6ec2554bf6b",
                    "gasUsed": 18859,
                    "id": 9,
                    "methodDecoded": true,
                    "operation": "CALL",
                    "output": "",
                    "revert": false,
                    "revertMessage": "",
                    "selector": "0x36c78516",
                    "status": true,
                    "value": "0"
                },
                "nodeType": 0
            }
        },
        "gasFlame": [
            {
                "children": [
                    {
                        "children": [
                            {
                                "children": [],
                                "depth": 0,
                                "name": "Initial Gas",
                                "value": 27952
                            },
                            {
                                "children": [
                                    {
                                        "children": [
                                            {
                                                "children": [],
                                                "depth": 2,
                                                "name": "ecrecover",
                                                "value": 3000
                                            }
                                        ],
                                        "depth": 1,
                                        "name": "permit",
                                        "value": 30786
                                    },
                                    {
                                        "children": [
                                            {
                                                "children": [],
                                                "depth": 2,
                                                "name": "transfer",
                                                "value": 29962
                                            },
                                            {
                                                "children": [],
                                                "depth": 2,
                                                "name": "balanceOf",
                                                "value": 2645
                                            },
                                            {
                                                "children": [
                                                    {
                                                        "children": [
                                                            {
                                                                "children": [],
                                                                "depth": 4,
                                                                "name": "transferFrom",
                                                                "value": 17652
                                                            }
                                                        ],
                                                        "depth": 3,
                                                        "name": "transferFrom",
                                                        "value": 18859
                                                    }
                                                ],
                                                "depth": 2,
                                                "name": "uniswapV3SwapCallback",
                                                "value": 21370
                                            },
                                            {
                                                "children": [],
                                                "depth": 2,
                                                "name": "balanceOf",
                                                "value": 645
                                            }
                                        ],
                                        "depth": 1,
                                        "name": "swap",
                                        "value": 92464
                                    },
                                    {
                                        "children": [],
                                        "depth": 1,
                                        "name": "balanceOf",
                                        "value": 534
                                    },
                                    {
                                        "children": [
                                            {
                                                "children": [],
                                                "depth": 2,
                                                "name": "fallback",
                                                "value": 62
                                            }
                                        ],
                                        "depth": 1,
                                        "name": "withdraw",
                                        "value": 9202
                                    },
                                    {
                                        "children": [],
                                        "depth": 1,
                                        "name": "fallback",
                                        "value": 0
                                    }
                                ],
                                "depth": 0,
                                "name": "Executed Gas",
                                "value": 160737
                            }
                        ],
                        "depth": -1,
                        "name": "Actual Gas Used",
                        "value": 161189
                    },
                    {
                        "children": [],
                        "depth": -1,
                        "name": "Refunded Gas",
                        "value": 27500
                    }
                ],
                "depth": -2,
                "name": "Total Gas",
                "value": 188689
            }
        ],
        "isConfirmed": true,
        "mainTrace": [
            {
                "children": [
                    {
                        "children": [
                            {
                                "children": [
                                    {
                                        "children": [],
                                        "depth": 2,
                                        "id": 2,
                                        "order": 2
                                    },
                                    {
                                        "children": [],
                                        "depth": 2,
                                        "id": 3,
                                        "order": 3
                                    }
                                ],
                                "depth": 1,
                                "id": 1,
                                "order": 1
                            },
                            {
                                "children": [
                                    {
                                        "children": [
                                            {
                                                "children": [],
                                                "depth": 3,
                                                "id": 6,
                                                "order": 6
                                            }
                                        ],
                                        "depth": 2,
                                        "id": 5,
                                        "order": 5
                                    },
                                    {
                                        "children": [],
                                        "depth": 2,
                                        "id": 7,
                                        "order": 7
                                    },
                                    {
                                        "children": [
                                            {
                                                "children": [
                                                    {
                                                        "children": [
                                                            {
                                                                "children": [],
                                                                "depth": 5,
                                                                "id": 11,
                                                                "order": 11
                                                            }
                                                        ],
                                                        "depth": 4,
                                                        "id": 10,
                                                        "order": 10
                                                    }
                                                ],
                                                "depth": 3,
                                                "id": 9,
                                                "order": 9
                                            }
                                        ],
                                        "depth": 2,
                                        "id": 8,
                                        "order": 8
                                    },
                                    {
                                        "children": [],
                                        "depth": 2,
                                        "id": 12,
                                        "order": 12
                                    },
                                    {
                                        "children": [],
                                        "depth": 2,
                                        "id": 13,
                                        "order": 13
                                    }
                                ],
                                "depth": 1,
                                "id": 4,
                                "order": 4
                            },
                            {
                                "children": [],
                                "depth": 1,
                                "id": 14,
                                "order": 14
                            },
                            {
                                "children": [
                                    {
                                        "children": [],
                                        "depth": 2,
                                        "id": 16,
                                        "order": 16
                                    },
                                    {
                                        "children": [],
                                        "depth": 2,
                                        "id": 17,
                                        "order": 17
                                    }
                                ],
                                "depth": 1,
                                "id": 15,
                                "order": 15
                            },
                            {
                                "children": [],
                                "depth": 1,
                                "id": 18,
                                "order": 18
                            }
                        ],
                        "depth": 0,
                        "id": 0,
                        "order": 0
                    }
                ],
                "depth": -1,
                "id": -1,
                "order": -1
            }
        ],
        "mainTraceNodeCount": 19,
        "parentIdMap": {
            "0": -1,
            "1": 0,
            "10": 9,
            "11": 10,
            "12": 4,
            "13": 4,
            "14": 0,
            "15": 0,
            "16": 15,
            "17": 15,
            "18": 0,
            "2": 1,
            "3": 1,
            "4": 0,
            "5": 4,
            "6": 5,
            "7": 4,
            "8": 4,
            "9": 8
        },
        "tidyTrace": [
            {
                "children": [
                    {
                        "children": [
                            {
                                "children": [
                                    {
                                        "children": [],
                                        "depth": 2,
                                        "id": 3,
                                        "order": 3
                                    }
                                ],
                                "depth": 1,
                                "id": 1,
                                "order": 1
                            },
                            {
                                "children": [
                                    {
                                        "children": [
                                            {
                                                "children": [],
                                                "depth": 3,
                                                "id": 6,
                                                "order": 6
                                            }
                                        ],
                                        "depth": 2,
                                        "id": 5,
                                        "order": 5
                                    },
                                    {
                                        "children": [
                                            {
                                                "children": [
                                                    {
                                                        "children": [
                                                            {
                                                                "children": [],
                                                                "depth": 5,
                                                                "id": 11,
                                                                "order": 11
                                                            }
                                                        ],
                                                        "depth": 4,
                                                        "id": 10,
                                                        "order": 10
                                                    }
                                                ],
                                                "depth": 3,
                                                "id": 9,
                                                "order": 9
                                            }
                                        ],
                                        "depth": 2,
                                        "id": 8,
                                        "order": 8
                                    },
                                    {
                                        "children": [],
                                        "depth": 2,
                                        "id": 13,
                                        "order": 13
                                    }
                                ],
                                "depth": 1,
                                "id": 4,
                                "order": 4
                            },
                            {
                                "children": [
                                    {
                                        "children": [],
                                        "depth": 2,
                                        "id": 16,
                                        "order": 16
                                    },
                                    {
                                        "children": [],
                                        "depth": 2,
                                        "id": 17,
                                        "order": 17
                                    }
                                ],
                                "depth": 1,
                                "id": 15,
                                "order": 15
                            },
                            {
                                "children": [],
                                "depth": 1,
                                "id": 18,
                                "order": 18
                            }
                        ],
                        "depth": 0,
                        "id": 0,
                        "order": 0
                    }
                ],
                "depth": -1,
                "id": -1,
                "order": -1
            }
        ],
        "tidyTraceNodeCount": 15
    },
    "state_change": {
        "stateChanges": [
            {
                "address": "0x000000000022d473030f116ddee9f6b43ac78ba3",
                "erc": "",
                "slots": [
                    {
                        "current": "0x00000000000100006414326effffffffffffffffffffffffffffffffffffffff",
                        "key": "0x3c1ab5ffae4602494f9c5b6f499ae86fee01bf18ec1707963147792aeffd1fb0",
                        "prev": "0x0000000000000000000000000000000000000000000000000000000000000000"
                    }
                ],
                "storageVariables": [
                    {
                        "name": "allowance",
                        "type": "mapping(address => mapping(address => mapping(address => struct IAllowanceTransfer.PackedAllowance)))",
                        "value": {
                            "pairs": [
                                {
                                    "key": "0xd828e6e2d18aea85b9933510ce1f12beafb44589",
                                    "value": {
                                        "pairs": [
                                            {
                                                "key": "0x5283d291dbcf85356a21ba090e6db59121208b44",
                                                "value": {
                                                    "pairs": [
                                                        {
                                                            "key": "0xef1c6e67703c7bd7107eed8303fbe6ec2554bf6b",
                                                            "value": {
                                                                "fields": [
                                                                    {
                                                                        "name": "amount",
                                                                        "type": "uint160",
                                                                        "value": {
                                                                            "current": "1461501637330902918203684832716283019655932542975",
                                                                            "prev": "0",
                                                                            "typeTag": 1
                                                                        }
                                                                    },
                                                                    {
                                                                        "name": "expiration",
                                                                        "type": "uint48",
                                                                        "value": {
                                                                            "current": "1679045230",
                                                                            "prev": "0",
                                                                            "typeTag": 1
                                                                        }
                                                                    },
                                                                    {
                                                                        "name": "nonce",
                                                                        "type": "uint48",
                                                                        "value": {
                                                                            "current": "1",
                                                                            "prev": "0",
                                                                            "typeTag": 1
                                                                        }
                                                                    }
                                                                ],
                                                                "typeTag": 3
                                                            }
                                                        }
                                                    ],
                                                    "typeTag": 4
                                                }
                                            }
                                        ],
                                        "typeTag": 4
                                    }
                                }
                            ],
                            "typeTag": 4
                        }
                    }
                ]
            },
            {
                "address": "0x5283d291dbcf85356a21ba090e6db59121208b44",
                "erc": "ERC-20",
                "slots": [
                    {
                        "current": "0x0000000000000000000000000000000000000000000000000000000000000000",
                        "key": "0xb70b4f3d208dc549494f4f6c85dcc1ef48cc845cf79ea969a74917343b4f5665",
                        "prev": "0x000000000000000000000000000000000000000000000006abb33ff5b68c0040"
                    },
                    {
                        "current": "0x00000000000000000000000000000000000000000000e0fda474d759769cbb5e",
                        "key": "0x93f43525c51af63746dfc4f102ff216511035a8749871c48800952f5144d43e9",
                        "prev": "0x00000000000000000000000000000000000000000000e0f6f8c19763c010bb1e"
                    }
                ],
                "storageVariables": [
                    {
                        "name": "_balances",
                        "type": "mapping(address => uint256)",
                        "value": {
                            "pairs": [
                                {
                                    "key": "0x824a30f2984f9013f2c8d0a29c0a3cc5fd5c0673",
                                    "value": {
                                        "current": "1062488968746747805088606",
                                        "prev": "1062365915979379668728606",
                                        "typeTag": 1
                                    }
                                },
                                {
                                    "key": "0xd828e6e2d18aea85b9933510ce1f12beafb44589",
                                    "value": {
                                        "current": "0",
                                        "prev": "123052767368136360000",
                                        "typeTag": 1
                                    }
                                }
                            ],
                            "typeTag": 4
                        }
                    }
                ]
            },
            {
                "address": "0x824a30f2984f9013f2c8d0a29c0a3cc5fd5c0673",
                "erc": "",
                "slots": [
                    {
                        "current": "0x000000000000000000000000000000017a61458ebb96b34330102bf63a70cb16",
                        "key": "0x0000000000000000000000000000000000000000000000000000000000000001",
                        "prev": "0x000000000000000000000000000000017a6135f534d5353a15989b50c657db11"
                    },
                    {
                        "current": "0x000100000100010000fed706000000000000000005b880885b97b094ea3dacba",
                        "key": "0x0000000000000000000000000000000000000000000000000000000000000000",
                        "prev": "0x000100000100010000fed706000000000000000005b8831f1d18b14a5fa30f77"
                    }
                ],
                "storageVariables": []
            },
            {
                "address": "0xc02aaa39b223fe8d0a0e5c4f27ead9083c756cc2",
                "erc": "ERC-20",
                "slots": [
                    {
                        "current": "0x00000000000000000000000000000000000000000000002b437313b877456373",
                        "key": "0xfa9f85d32e748867cf154040053015d93f47676a8316e0b8ac4576856d8f1f5b",
                        "prev": "0x00000000000000000000000000000000000000000000002b444cbb8ed8df38d4"
                    }
                ],
                "storageVariables": [
                    {
                        "name": "balanceOf",
                        "type": "mapping(address => uint256)",
                        "value": {
                            "pairs": [
                                {
                                    "key": "0x824a30f2984f9013f2c8d0a29c0a3cc5fd5c0673",
                                    "value": {
                                        "current": "798070245275369562995",
                                        "prev": "798131509884518086868",
                                        "typeTag": 1
                                    }
                                }
                            ],
                            "typeTag": 4
                        }
                    }
                ]
            }
        ]
    }
}