{
    "balance_change": {
        "balanceChanges": [
            {
                "account": "0x81fe7325460824cd9db9b405f7872ed163d37bc6",
                "assets": [
                    {
                        "address": "0x02b3c88b805f1c6982e38ea1d40a1d83f159c3d4",
                        "amount": "192.6084",
                        "iconUrl": "",
                        "isERC1155": false,
                        "isERC721": false,
                        "sign": false,
                        "value": ""
                    }
                ]
            },
            {
                "account": "0xf03a5702d58810f5286142c3bfbeb2fbc761e912",
                "assets": [
                    {
                        "address": "0x02b3c88b805f1c6982e38ea1d40a1d83f159c3d4",
                        "amount": "192.6084",
                        "iconUrl": "",
                        "isERC1155": false,
                        "isERC721": false,
                        "sign": true,
                        "value": ""
                    }
                ]
            }
        ]
    },
    "profile": {
        "basic_info": {
            "baseFee": "",
            "blockNumber": 7451855,
            "callData": "0xa9059cbb000000000000000000000000f03a5702d58810f5286142c3bfbeb2fbc761e912000000000000000000000000000000000000000000000000000000047c091840",
            "debugEnable": true,
            "errorInfo": "",
            "eventCount": 2,
            "feeRecipient": "0x5a0b54d5dc17e0aadc383d2db43b0a0d3e029c4c",
            "formatValue": "0",
            "gasLimit": 38097,
            "gasPrice": "4",
            "gasUsed": 38096,
            "intTxnCount": 0,
            "internalRevert": false,
            "internalRevertMessage": "",
            "isContractCreation": false,
            "isFlashloan": false,
            "maxFee": "",
            "nonce": 5286,
            "overwritedBlockNumber": -1,
            "priorityFee": "",
            "receiver": "0x02b3c88b805f1c6982e38ea1d40a1d83f159c3d4",
            "revertMessage": "",
            "sender": "0x81fe7325460824cd9db9b405f7872ed163d37bc6",
            "simulationEnable": true,
            "sourceTxnHash": "0x8f7b93925b9152566e82eda7dc77e4933bf108c170ddfb26cca8ac990004aa6d",
            "status": true,
            "timestamp": "2019-03-27T17:09:17Z",
            "transactionFee": "0.000152384",
            "txnHash": "0x8f7b93925b9152566e82eda7dc77e4933bf108c170ddfb26cca8ac990004aa6d",
            "txnIndex": 82,
            "type": 0,
            "value": "0"
        },
        "fund_flow": [
            {
                "amount": "192.6084",
                "from": "0x81fe7325460824cd9db9b405f7872ed163d37bc6",
                "id": 1,
                "isERC1155": false,
                "isERC721": false,
                "isReverted": false,
                "order": 1,
                "to": "0xf03a5702d58810f5286142c3bfbeb2fbc761e912",
                "token": "0x02b3c88b805f1c6982e38ea1d40a1d83f159c3d4"
            }
        ],
        "token_infos": [
            {
                "address": "0xc02aaa39b223fe8d0a0e5c4f27ead9083c756cc2",
                "decimals": 18
            },
            {
                "address": "0xeeeeeeeeeeeeeeeeeeeeeeeeeeeeeeeeeeeeeeee",
                "decimals": 18
            },
            {
                "address": "0x02b3c88b805f1c6982e38ea1d40a1d83f159c3d4",
                "decimals": 8
            }
        ]
    },
    "address_label": {
        "labels": [
            {
                "address": "0x0000000000000000000000000000000000000003",
                "label": "Precompiled"
            },
            {
                "address": "0x0000000000000000000000000000000000000004",
                "label": "Precompiled"
            },
            {
                "address": "0xeeeeeeeeeeeeeeeeeeeeeeeeeeeeeeeeeeeeeeee",
                "label": "Ether"
            },
            {
                "address": "0x02b3c88b805f1c6982e38ea1d40a1d83f159c3d4",
                "label": "Yun Planet (YUN)"
            },
            {
                "address": "0x0000000000000000000000000000000000000001",
                "label": "Precompiled"
            },
            {
                "address": "0x0000000000000000000000000000000000000002",
                "label": "Precompiled"
            }
        ]
    },
    "trace": {
        "accountLabels": null,
        "dataMap": {
            "-1": {
                "invocation": {
                    "address": "0x81fe7325460824cd9db9b405f7872ed163d37bc6",
                    "callData": "",
                    "decodedMethod": null,
                    "errorInfo": "",
                    "fromAddress": "",
                    "gasUsed": 0,
                    "id": -1,
                    "methodDecoded": false,
                    "operation": "",
                    "output": "",
                    "revert": false,
                    "revertMessage": "",
                    "selector": "",
                    "status": false,
                    "value": ""
                },
                "nodeType": 0
            },
            "0": {
                "invocation": {
                    "address": "0x02b3c88b805f1c6982e38ea1d40a1d83f159c3d4",
                    "callData": "0x000000000000000000000000f03a5702d58810f5286142c3bfbeb2fbc761e912000000000000000000000000000000000000000000000000000000047c091840",
                    "decodedMethod": {
                        "callParams": [
                            {
                                "name": "_to",
                                "type": "address",
                                "value": "0xf03a5702d58810f5286142c3bfbeb2fbc761e912"
                            },
                            {
                                "decimalAvailable": true,
                                "name": "_value",
                                "type": "uint256",
                                "value": "19,260,840,000"
                            }
                        ],
                        "constructorArguments": "",
                        "name": "transfer",
                        "returnParams": [],
                        "signature": "transfer(address,uint256)"
                    },
                    "errorInfo": "",
                    "fromAddress": "0x81fe7325460824cd9db9b405f7872ed163d37bc6",
                    "gasUsed": 38096,
                    "id": 0,
                    "methodDecoded": true,
                    "operation": "CALL",
                    "output": "",
                    "revert": false,
                    "revertMessage": "",
                    "selector": "0xa9059cbb",
                    "status": true,
                    "value": "0"
                },
                "nodeType": 0
            },
            "1": {
                "event": {
                    "contract": "0x02b3c88b805f1c6982e38ea1d40a1d83f159c3d4",
                    "decodedLog": {
                        "name": "Transfer",
                        "params": [
                            {
                                "name": "from",
                                "type": "address",
                                "value": "0x81fe7325460824cd9db9b405f7872ed163d37bc6"
                            },
                            {
                                "name": "to",
                                "type": "address",
                                "value": "0xf03a5702d58810f5286142c3bfbeb2fbc761e912"
                            },
                            {
                                "decimalAvailable": true,
                                "name": "value",
                                "type": "uint256",
                                "value": "19,260,840,000"
                            }
                        ],
                        "signature": "Transfer(address,address,uint256)"
                    },
                    "id": 1,
                    "logData": "0x000000000000000000000000000000000000000000000000000000047c091840",
                    "logDecoded": true,
                    "operation": "EVENT",
                    "revert": false,
                    "status": true,
                    "topics": [
                        "0xddf252ad1be2c89b69c2b068fc378daa952ba7f163c4a11628f55a4df523b3ef",
                        "0x00000000000000000000000081fe7325460824cd9db9b405f7872ed163d37bc6",
                        "0x000000000000000000000000f03a5702d58810f5286142c3bfbeb2fbc761e912"
                    ]
                },
                "nodeType": 1
            },
            "2": {
                "event": {
                    "contract": "0x02b3c88b805f1c6982e38ea1d40a1d83f159c3d4",
                    "decodedLog": {
                        "name": "mylog",
                        "params": [
                            {
                                "name": "code",
                                "type": "uint256",
                                "value": "0"
                            }
                        ],
                        "signature": "mylog(uint256)"
                    },
                    "id": 2,
                    "logData": "0x0000000000000000000000000000000000000000000000000000000000000000",
                    "logDecoded": true,
                    "operation": "EVENT",
                    "revert": false,
                    "status": true,
                    "topics": [
                        "0x67631d1bdda6fede513a18dab2d7282eb1233c8a01cd01f9580aa9543dd82b32"
                    ]
                },
                "nodeType": 1
            }
        },
        "gasFlame": [
            {
                "children": [
                    {
                        "children": [
                            {
                                "children": [],
                                "depth": 0,
                                "name": "Initial Gas",
                                "value": 23128
                            },
                            {
                                "children": [],
                                "depth": 0,
                                "name": "Executed Gas",
                                "value": 14968
                            }
                        ],
                        "depth": -1,
                        "name": "Actual Gas Used",
                        "value": 38096
                    },
                    {
                        "children": [],
                        "depth": -1,
                        "name": "Refunded Gas",
                        "value": 0
                    }
                ],
                "depth": -2,
                "name": "Total Gas",
                "value": 38096
            }
        ],
        "isConfirmed": true,
        "mainTrace": [
            {
                "children": [
                    {
                        "children": [
                            {
                                "children": [],
                                "depth": 1,
                                "id": 1,
                                "order": 1
                            },
                            {
                                "children": [],
                                "depth": 1,
                                "id": 2,
                                "order": 2
                            }
                        ],
                        "depth": 0,
                        "id": 0,
                        "order": 0
                    }
                ],
                "depth": -1,
                "id": -1,
                "order": -1
            }
        ],
        "mainTraceNodeCount": 3,
        "parentIdMap": {
            "0": -1,
            "1": 0,
            "2": 0
        },
        "tidyTrace": [
            {
                "children": [
                    {
                        "children": [
                            {
                                "children": [],
                                "depth": 1,
                                "id": 1,
                                "order": 1
                            },
                            {
                                "children": [],
                                "depth": 1,
                                "id": 2,
                                "order": 2
                            }
                        ],
                        "depth": 0,
                        "id": 0,
                        "order": 0
                    }
                ],
                "depth": -1,
                "id": -1,
                "order": -1
            }
        ],
        "tidyTraceNodeCount": 3
    },
    "state_change": {
        "stateChanges": [
            {
                "address": "0x02b3c88b805f1c6982e38ea1d40a1d83f159c3d4",
                "erc": "",
                "slots": [
                    {
                        "current": "0x000000000000000000000000000000000000000000000000015ab489f0e822d7",
                        "key": "0x23262aa2bbaf7e45025b4d2bfd4003433626c0119a25132bdb79d26442da2823",
                        "prev": "0x000000000000000000000000000000000000000000000000015ab48e6cf13b17"
                    },
                    {
                        "current": "0x000000000000000000000000000000000000000000000000000000e17b8e6090",
                        "key": "0x1efafad26f78013eb13f02db35fbbf18cff6cead0a22e3498fc9d4980c867b47",
                        "prev": "0x000000000000000000000000000000000000000000000000000000dcff854850"
                    }
                ],
                "storageVariables": [
                    {
                        "name": "balanceOf",
                        "type": "mapping(address => uint256)",
                        "value": {
                            "pairs": [
                                {
                                    "key": "0x81fe7325460824cd9db9b405f7872ed163d37bc6",
                                    "value": {
                                        "current": "97588846487151319",
                                        "prev": "97588865747991319",
                                        "typeTag": 1
                                    }
                                },
                                {
                                    "key": "0xf03a5702d58810f5286142c3bfbeb2fbc761e912",
                                    "value": {
                                        "current": "968440570000",
                                        "prev": "949179730000",
                                        "typeTag": 1
                                    }
                                }
                            ],
                            "typeTag": 4
                        }
                    }
                ]
            }
        ]
    }
}