{
    "balance_change": {
        "balanceChanges": [
            {
                "account": "0x65425c25225c14f02a910db0e55336cb992d8878",
                "assets": [
                    {
                        "address": "0x31f3f9946fc49ce2983b9892313e864330d62a0f",
                        "amount": "80.2238655726676035",
                        "iconUrl": "",
                        "isERC1155": false,
                        "isERC721": false,
                        "sign": false,
                        "value": ""
                    }
                ]
            },
            {
                "account": "0xdeb31f3903d150cc71057166167f25bc570c7780",
                "assets": [
                    {
                        "address": "0x31f3f9946fc49ce2983b9892313e864330d62a0f",
                        "amount": "80.2238655726676035",
                        "iconUrl": "",
                        "isERC1155": false,
                        "isERC721": false,
                        "sign": true,
                        "value": ""
                    }
                ]
            }
        ]
    },
    "profile": {
        "basic_info": {
            "baseFee": "",
            "blockNumber": 10837969,
            "callData": "0xa9059cbb000000000000000000000000deb31f3903d150cc71057166167f25bc570c778000000000000000000000000000000000000000000000000459546cb1af8aba2c",
            "debugEnable": true,
            "errorInfo": "",
            "eventCount": 1,
            "feeRecipient": "0x04668ec2f57cc15c381b461b9fedab5d451c8f7f",
            "formatValue": "0",
            "gasLimit": 54309,
            "gasPrice": "129",
            "gasUsed": 21206,
            "intTxnCount": 0,
            "internalRevert": false,
            "internalRevertMessage": "",
            "isContractCreation": false,
            "isFlashloan": false,
            "maxFee": "",
            "nonce": 4,
            "overwritedBlockNumber": -1,
            "priorityFee": "",
            "receiver": "0x31f3f9946fc49ce2983b9892313e864330d62a0f",
            "revertMessage": "",
            "sender": "0x65425c25225c14f02a910db0e55336cb992d8878",
            "simulationEnable": true,
            "sourceTxnHash": "0x8fef6c619e769f4b164fed3f59a79f11fe2736d3516fa2ff69548f3a48a59123",
            "status": true,
            "timestamp": "2020-09-11T02:55:43Z",
            "transactionFee": "0.002735574",
            "txnHash": "0x8fef6c619e769f4b164fed3f59a79f11fe2736d3516fa2ff69548f3a48a59123",
            "txnIndex": 126,
            "type": 0,
            "value": "0"
        },
        "fund_flow": [
            {
                "amount": "80.2238655726676035",
                "from": "0x65425c25225c14f02a910db0e55336cb992d8878",
                "id": 1,
                "isERC1155": false,
                "isERC721": false,
                "isReverted": false,
                "order": 1,
                "to": "0xdeb31f3903d150cc71057166167f25bc570c7780",
                "token": "0x31f3f9946fc49ce2983b9892313e864330d62a0f"
            }
        ],
        "token_infos": [
            {
                "address": "0x31f3f9946fc49ce2983b9892313e864330d62a0f",
                "decimals": 18
            },
            {
                "address": "0xc02aaa39b223fe8d0a0e5c4f27ead9083c756cc2",
                "decimals": 18
            },
            {
                "address": "0xeeeeeeeeeeeeeeeeeeeeeeeeeeeeeeeeeeeeeeee",
                "decimals": 18
            }
        ]
    },
    "address_label": {
        "labels": [
            {
                "address": "0x31f3f9946fc49ce2983b9892313e864330d62a0f",
                "label": "CentraPay (CPAY)"
            },
            {
                "address": "0x0000000000000000000000000000000000000001",
                "label": "Precompiled"
            },
            {
                "address": "0x0000000000000000000000000000000000000002",
                "label": "Precompiled"
            },
            {
                "address": "0x0000000000000000000000000000000000000003",
                "label": "Precompiled"
            },
            {
                "address": "0x0000000000000000000000000000000000000004",
                "label": "Precompiled"
            },
            {
                "address": "0xeeeeeeeeeeeeeeeeeeeeeeeeeeeeeeeeeeeeeeee",
                "label": "Ether"
            }
        ]
    },
    "trace": {
        "accountLabels": null,
        "dataMap": {
            "-1": {
                "invocation": {
                    "address": "0x65425c25225c14f02a910db0e55336cb992d8878",
                    "callData": "",
                    "decodedMethod": null,
                    "errorInfo": "",
                    "fromAddress": "",
                    "gasUsed": 0,
                    "id": -1,
                    "methodDecoded": false,
                    "operation": "",
                    "output": "",
                    "revert": false,
                    "revertMessage": "",
                    "selector": "",
                    "status": false,
                    "value": ""
                },
                "nodeType": 0
            },
            "0": {
                "invocation": {
                    "address": "0x31f3f9946fc49ce2983b9892313e864330d62a0f",
                    "callData": "0x000000000000000000000000deb31f3903d150cc71057166167f25bc570c778000000000000000000000000000000000000000000000000459546cb1af8aba2c",
                    "decodedMethod": {
                        "callParams": [
                            {
                                "name": "recipient",
                                "type": "address",
                                "value": "0xdeb31f3903d150cc71057166167f25bc570c7780"
                            },
                            {
                                "decimalAvailable": true,
                                "name": "amount",
                                "type": "uint256",
                                "value": "80,223,865,572,667,603,500"
                            }
                        ],
                        "constructorArguments": "",
                        "name": "transfer",
                        "returnParams": [
                            {
                                "name": "",
                                "type": "bool",
                                "value": true
                            }
                        ],
                        "signature": "transfer(address,uint256)"
                    },
                    "errorInfo": "",
                    "fromAddress": "0x65425c25225c14f02a910db0e55336cb992d8878",
                    "gasUsed": 21206,
                    "id": 0,
                    "methodDecoded": true,
                    "operation": "CALL",
                    "output": "0x0000000000000000000000000000000000000000000000000000000000000001",
                    "revert": false,
                    "revertMessage": "",
                    "selector": "0xa9059cbb",
                    "status": true,
                    "value": "0"
                },
                "nodeType": 0
            },
            "1": {
                "event": {
                    "contract": "0x31f3f9946fc49ce2983b9892313e864330d62a0f",
                    "decodedLog": {
                        "name": "Transfer",
                        "params": [
                            {
                                "name": "from",
                                "type": "address",
                                "value": "0x65425c25225c14f02a910db0e55336cb992d8878"
                            },
                            {
                                "name": "to",
                                "type": "address",
                                "value": "0xdeb31f3903d150cc71057166167f25bc570c7780"
                            },
                            {
                                "decimalAvailable": true,
                                "name": "value",
                                "type": "uint256",
                                "value": "80,223,865,572,667,603,500"
                            }
                        ],
                        "signature": "Transfer(address,address,uint256)"
                    },
                    "id": 1,
                    "logData": "0x00000000000000000000000000000000000000000000000459546cb1af8aba2c",
                    "logDecoded": true,
                    "operation": "EVENT",
                    "revert": false,
                    "status": true,
                    "topics": [
                        "0xddf252ad1be2c89b69c2b068fc378daa952ba7f163c4a11628f55a4df523b3ef",
                        "0x00000000000000000000000065425c25225c14f02a910db0e55336cb992d8878",
                        "0x000000000000000000000000deb31f3903d150cc71057166167f25bc570c7780"
                    ]
                },
                "nodeType": 1
            }
        },
        "gasFlame": [
            {
                "children": [
                    {
                        "children": [
                            {
                                "children": [],
                                "depth": 0,
                                "name": "Initial Gas",
                                "value": 21668
                            },
                            {
                                "children": [],
                                "depth": 0,
                                "name": "Executed Gas",
                                "value": 14538
                            }
                        ],
                        "depth": -1,
                        "name": "Actual Gas Used",
                        "value": 21206
                    },
                    {
                        "children": [],
                        "depth": -1,
                        "name": "Refunded Gas",
                        "value": 15000
                    }
                ],
                "depth": -2,
                "name": "Total Gas",
                "value": 36206
            }
        ],
        "isConfirmed": true,
        "mainTrace": [
            {
                "children": [
                    {
                        "children": [
                            {
                                "children": [],
                                "depth": 1,
                                "id": 1,
                                "order": 1
                            }
                        ],
                        "depth": 0,
                        "id": 0,
                        "order": 0
                    }
                ],
                "depth": -1,
                "id": -1,
                "order": -1
            }
        ],
        "mainTraceNodeCount": 2,
        "parentIdMap": {
            "0": -1,
            "1": 0
        },
        "tidyTrace": [
            {
                "children": [
                    {
                        "children": [
                            {
                                "children": [],
                                "depth": 1,
                                "id": 1,
                                "order": 1
                            }
                        ],
                        "depth": 0,
                        "id": 0,
                        "order": 0
                    }
                ],
                "depth": -1,
                "id": -1,
                "order": -1
            }
        ],
        "tidyTraceNodeCount": 2
    },
    "state_change": {
        "stateChanges": [
            {
                "address": "0x31f3f9946fc49ce2983b9892313e864330d62a0f",
                "erc": "",
                "slots": [
                    {
                        "current": "0x0000000000000000000000000000000000000000000000000000000000000000",
                        "key": "0x4fa8fdd19079be80817b2c9428274634153eeb8ab3e6ac80d39684394048b2a2",
                        "prev": "0x00000000000000000000000000000000000000000000000459546cb1af8aba2c"
                    },
                    {
                        "current": "0x0000000000000000000000000000000000000000000006302eddd964b6b34483",
                        "key": "0xef2e124aab6f70f3a3fac9d1edc71b05a8b207a4fdd641c4dde8d1a22da8d7cb",
                        "prev": "0x00000000000000000000000000000000000000000000062bd5896cb307288a57"
                    }
                ],
                "storageVariables": []
            }
        ]
    }
}