{
    "balance_change": {
        "balanceChanges": [
            {
                "account": "0x526c56e1def033896d46cda96ab7b91cdc8ca626",
                "assets": [
                    {
                        "address": "0x0e50e6d6bb434938d8fe670a2d7a14cd128eb50f",
                        "amount": "9.630962685",
                        "iconUrl": "",
                        "isERC1155": false,
                        "isERC721": false,
                        "sign": false,
                        "value": ""
                    }
                ]
            },
            {
                "account": "0x63068fc1d4be5a3780fdbe2ad0b17953ea037cfe",
                "assets": [
                    {
                        "address": "0x0e50e6d6bb434938d8fe670a2d7a14cd128eb50f",
                        "amount": "9.630962685",
                        "iconUrl": "",
                        "isERC1155": false,
                        "isERC721": false,
                        "sign": true,
                        "value": ""
                    }
                ]
            }
        ]
    },
    "profile": {
        "basic_info": {
            "baseFee": "",
            "blockNumber": 6848366,
            "callData": "0xa9059cbb00000000000000000000000063068fc1d4be5a3780fdbe2ad0b17953ea037cfe000000000000000000000000000000000000000000000000000000023e0cd3fd",
            "debugEnable": true,
            "errorInfo": "",
            "eventCount": 1,
            "feeRecipient": "0x1ca43b645886c98d7eb7d27ec16ea59f509cbe1a",
            "formatValue": "0",
            "gasLimit": 3000000,
            "gasPrice": "20",
            "gasUsed": 37838,
            "intTxnCount": 0,
            "internalRevert": false,
            "internalRevertMessage": "",
            "isContractCreation": false,
            "isFlashloan": false,
            "maxFee": "",
            "nonce": 2609,
            "overwritedBlockNumber": -1,
            "priorityFee": "",
            "receiver": "0x0e50e6d6bb434938d8fe670a2d7a14cd128eb50f",
            "revertMessage": "",
            "sender": "0x526c56e1def033896d46cda96ab7b91cdc8ca626",
            "simulationEnable": true,
            "sourceTxnHash": "0x8ff3a5224f362557e6e8b3667022c37716011b3de293a2af4e51e6c8a15bf92a",
            "status": true,
            "timestamp": "2018-12-08T11:30:58Z",
            "transactionFee": "0.00075676",
            "txnHash": "0x8ff3a5224f362557e6e8b3667022c37716011b3de293a2af4e51e6c8a15bf92a",
            "txnIndex": 11,
            "type": 0,
            "value": "0"
        },
        "fund_flow": [
            {
                "amount": "9.630962685",
                "from": "0x526c56e1def033896d46cda96ab7b91cdc8ca626",
                "id": 1,
                "isERC1155": false,
                "isERC721": false,
                "isReverted": false,
                "order": 1,
                "to": "0x63068fc1d4be5a3780fdbe2ad0b17953ea037cfe",
                "token": "0x0e50e6d6bb434938d8fe670a2d7a14cd128eb50f"
            }
        ],
        "token_infos": [
            {
                "address": "0x0e50e6d6bb434938d8fe670a2d7a14cd128eb50f",
                "decimals": 9
            },
            {
                "address": "0xc02aaa39b223fe8d0a0e5c4f27ead9083c756cc2",
                "decimals": 18
            },
            {
                "address": "0xeeeeeeeeeeeeeeeeeeeeeeeeeeeeeeeeeeeeeeee",
                "decimals": 18
            }
        ]
    },
    "address_label": {
        "labels": [
            {
                "address": "0x0000000000000000000000000000000000000001",
                "label": "Precompiled"
            },
            {
                "address": "0x0000000000000000000000000000000000000002",
                "label": "Precompiled"
            },
            {
                "address": "0x0000000000000000000000000000000000000003",
                "label": "Precompiled"
            },
            {
                "address": "0x0000000000000000000000000000000000000004",
                "label": "Precompiled"
            },
            {
                "address": "0xeeeeeeeeeeeeeeeeeeeeeeeeeeeeeeeeeeeeeeee",
                "label": "Ether"
            },
            {
                "address": "0x0e50e6d6bb434938d8fe670a2d7a14cd128eb50f",
                "label": "SUM TOKEN: SUM Token"
            }
        ]
    },
    "trace": {
        "accountLabels": null,
        "dataMap": {
            "-1": {
                "invocation": {
                    "address": "0x526c56e1def033896d46cda96ab7b91cdc8ca626",
                    "callData": "",
                    "decodedMethod": null,
                    "errorInfo": "",
                    "fromAddress": "",
                    "gasUsed": 0,
                    "id": -1,
                    "methodDecoded": false,
                    "operation": "",
                    "output": "",
                    "revert": false,
                    "revertMessage": "",
                    "selector": "",
                    "status": false,
                    "value": ""
                },
                "nodeType": 0
            },
            "0": {
                "invocation": {
                    "address": "0x0e50e6d6bb434938d8fe670a2d7a14cd128eb50f",
                    "callData": "0x00000000000000000000000063068fc1d4be5a3780fdbe2ad0b17953ea037cfe000000000000000000000000000000000000000000000000000000023e0cd3fd",
                    "decodedMethod": {
                        "callParams": [
                            {
                                "name": "_to",
                                "type": "address",
                                "value": "0x63068fc1d4be5a3780fdbe2ad0b17953ea037cfe"
                            },
                            {
                                "decimalAvailable": true,
                                "name": "_value",
                                "type": "uint256",
                                "value": "9,630,962,685"
                            }
                        ],
                        "constructorArguments": "",
                        "name": "transfer",
                        "returnParams": [
                            {
                                "name": "success",
                                "type": "bool",
                                "value": true
                            }
                        ],
                        "signature": "transfer(address,uint256)"
                    },
                    "errorInfo": "",
                    "fromAddress": "0x526c56e1def033896d46cda96ab7b91cdc8ca626",
                    "gasUsed": 37838,
                    "id": 0,
                    "methodDecoded": true,
                    "operation": "CALL",
                    "output": "0x0000000000000000000000000000000000000000000000000000000000000001",
                    "revert": false,
                    "revertMessage": "",
                    "selector": "0xa9059cbb",
                    "status": true,
                    "value": "0"
                },
                "nodeType": 0
            },
            "1": {
                "event": {
                    "contract": "0x0e50e6d6bb434938d8fe670a2d7a14cd128eb50f",
                    "decodedLog": {
                        "name": "Transfer",
                        "params": [
                            {
                                "name": "from",
                                "type": "address",
                                "value": "0x526c56e1def033896d46cda96ab7b91cdc8ca626"
                            },
                            {
                                "name": "to",
                                "type": "address",
                                "value": "0x63068fc1d4be5a3780fdbe2ad0b17953ea037cfe"
                            },
                            {
                                "decimalAvailable": true,
                                "name": "value",
                                "type": "uint256",
                                "value": "9,630,962,685"
                            }
                        ],
                        "signature": "Transfer(address,address,uint256)"
                    },
                    "id": 1,
                    "logData": "0x000000000000000000000000000000000000000000000000000000023e0cd3fd",
                    "logDecoded": true,
                    "operation": "EVENT",
                    "revert": false,
                    "status": true,
                    "topics": [
                        "0xddf252ad1be2c89b69c2b068fc378daa952ba7f163c4a11628f55a4df523b3ef",
                        "0x000000000000000000000000526c56e1def033896d46cda96ab7b91cdc8ca626",
                        "0x00000000000000000000000063068fc1d4be5a3780fdbe2ad0b17953ea037cfe"
                    ]
                },
                "nodeType": 1
            }
        },
        "gasFlame": [
            {
                "children": [
                    {
                        "children": [
                            {
                                "children": [],
                                "depth": 0,
                                "name": "Initial Gas",
                                "value": 23128
                            },
                            {
                                "children": [],
                                "depth": 0,
                                "name": "Executed Gas",
                                "value": 14710
                            }
                        ],
                        "depth": -1,
                        "name": "Actual Gas Used",
                        "value": 37838
                    },
                    {
                        "children": [],
                        "depth": -1,
                        "name": "Refunded Gas",
                        "value": 0
                    }
                ],
                "depth": -2,
                "name": "Total Gas",
                "value": 37838
            }
        ],
        "isConfirmed": true,
        "mainTrace": [
            {
                "children": [
                    {
                        "children": [
                            {
                                "children": [],
                                "depth": 1,
                                "id": 1,
                                "order": 1
                            }
                        ],
                        "depth": 0,
                        "id": 0,
                        "order": 0
                    }
                ],
                "depth": -1,
                "id": -1,
                "order": -1
            }
        ],
        "mainTraceNodeCount": 2,
        "parentIdMap": {
            "0": -1,
            "1": 0
        },
        "tidyTrace": [
            {
                "children": [
                    {
                        "children": [
                            {
                                "children": [],
                                "depth": 1,
                                "id": 1,
                                "order": 1
                            }
                        ],
                        "depth": 0,
                        "id": 0,
                        "order": 0
                    }
                ],
                "depth": -1,
                "id": -1,
                "order": -1
            }
        ],
        "tidyTraceNodeCount": 2
    },
    "state_change": {
        "stateChanges": [
            {
                "address": "0x0e50e6d6bb434938d8fe670a2d7a14cd128eb50f",
                "erc": "ERC-20",
                "slots": [
                    {
                        "current": "0x000000000000000000000000000000000000000000000000000047a5d7cc14ef",
                        "key": "0x79e273829b6b412708bd7e0847725923659da36af22f1dff2385c73fe6847890",
                        "prev": "0x000000000000000000000000000000000000000000000000000047a815d8e8ec"
                    },
                    {
                        "current": "0x00000000000000000000000000000000000000000000000000000049b48a9043",
                        "key": "0xee44f5e063ecaa3cf642c15640166bf89c3f7c158b88b12007ded58ada4ff128",
                        "prev": "0x00000000000000000000000000000000000000000000000000000047767dbc46"
                    }
                ],
                "storageVariables": [
                    {
                        "name": "balanceOf",
                        "type": "mapping(address => uint256)",
                        "value": {
                            "pairs": [
                                {
                                    "key": "0x526c56e1def033896d46cda96ab7b91cdc8ca626",
                                    "value": {
                                        "current": "78777615652079",
                                        "prev": "78787246614764",
                                        "typeTag": 1
                                    }
                                },
                                {
                                    "key": "0x63068fc1d4be5a3780fdbe2ad0b17953ea037cfe",
                                    "value": {
                                        "current": "316561592387",
                                        "prev": "306930629702",
                                        "typeTag": 1
                                    }
                                }
                            ],
                            "typeTag": 4
                        }
                    }
                ]
            }
        ]
    }
}