{
    "balance_change": {
        "balanceChanges": [
            {
                "account": "0x21a31ee1afc51d94c2efccaa2092ad1028285549",
                "assets": [
                    {
                        "address": "0x6de037ef9ad2725eb40118bb1702ebb27e4aeb24",
                        "amount": "3,766.33814",
                        "iconUrl": "https://assets.blocksec.com/icon/6c26f87685a6412859bba1e0c89004d66add895d445c9f5310994f4fa8be5731.png",
                        "isERC1155": false,
                        "isERC721": false,
                        "sign": false,
                        "value": "35742.548948600000802"
                    }
                ]
            },
            {
                "account": "0x64259d9808a8331e02bf4f6b974d7809a1537e6b",
                "assets": [
                    {
                        "address": "0x6de037ef9ad2725eb40118bb1702ebb27e4aeb24",
                        "amount": "3,766.33814",
                        "iconUrl": "https://assets.blocksec.com/icon/6c26f87685a6412859bba1e0c89004d66add895d445c9f5310994f4fa8be5731.png",
                        "isERC1155": false,
                        "isERC721": false,
                        "sign": true,
                        "value": "35742.548948600000802"
                    }
                ]
            }
        ]
    },
    "profile": {
        "basic_info": {
            "baseFee": "32.557992312",
            "blockNumber": 19570990,
            "callData": "0xa9059cbb00000000000000000000000064259d9808a8331e02bf4f6b974d7809a1537e6b0000000000000000000000000000000000000000000000cc2c71076a5171c000",
            "debugEnable": true,
            "errorInfo": "",
            "eventCount": 1,
            "feeRecipient": "0x95222290dd7278aa3ddd389cc1e1d165cc4bafe5",
            "formatValue": "0",
            "gasLimit": 207128,
            "gasPrice": "34.557992312",
            "gasUsed": 42296,
            "intTxnCount": 1,
            "internalRevert": false,
            "internalRevertMessage": "",
            "isContractCreation": false,
            "isFlashloan": false,
            "maxFee": "102",
            "nonce": 9132223,
            "overwritedBlockNumber": -1,
            "priorityFee": "2",
            "receiver": "0x6de037ef9ad2725eb40118bb1702ebb27e4aeb24",
            "revertMessage": "",
            "sender": "0x21a31ee1afc51d94c2efccaa2092ad1028285549",
            "simulationEnable": true,
            "sourceTxnHash": "0x8fb4e4e81a63655bb90a56cafcc94c895b6b843ad31a6d53f27ce5dd63718b7f",
            "status": true,
            "timestamp": "2024-04-02T22:11:11Z",
            "transactionFee": "0.001461664842828352",
            "txnHash": "0x8fb4e4e81a63655bb90a56cafcc94c895b6b843ad31a6d53f27ce5dd63718b7f",
            "txnIndex": 64,
            "type": 2,
            "value": "0"
        },
        "fund_flow": [
            {
                "amount": "3,766.33814",
                "from": "0x21a31ee1afc51d94c2efccaa2092ad1028285549",
                "id": 1,
                "isERC1155": false,
                "isERC721": false,
                "isReverted": false,
                "order": 1,
                "to": "0x64259d9808a8331e02bf4f6b974d7809a1537e6b",
                "token": "0x6de037ef9ad2725eb40118bb1702ebb27e4aeb24"
            }
        ],
        "token_infos": [
            {
                "address": "0x6de037ef9ad2725eb40118bb1702ebb27e4aeb24",
                "decimals": 18
            },
            {
                "address": "0xc02aaa39b223fe8d0a0e5c4f27ead9083c756cc2",
                "decimals": 18
            },
            {
                "address": "0xeeeeeeeeeeeeeeeeeeeeeeeeeeeeeeeeeeeeeeee",
                "decimals": 18
            }
        ]
    },
    "address_label": {
        "labels": [
            {
                "address": "0x0000000000000000000000000000000000000002",
                "label": "Precompiled"
            },
            {
                "address": "0x0000000000000000000000000000000000000003",
                "label": "Precompiled"
            },
            {
                "address": "0x0000000000000000000000000000000000000004",
                "label": "Precompiled"
            },
            {
                "address": "0xeeeeeeeeeeeeeeeeeeeeeeeeeeeeeeeeeeeeeeee",
                "label": "Ether"
            },
            {
                "address": "0x1a1fdf27c5e6784d1cebf256a8a5cc0877e73af0",
                "label": "Render Token (RNDR)"
            },
            {
                "address": "0x6de037ef9ad2725eb40118bb1702ebb27e4aeb24",
                "label": "Render : RNDR Token"
            },
            {
                "address": "0x21a31ee1afc51d94c2efccaa2092ad1028285549",
                "label": "Binance 15"
            },
            {
                "address": "0x0000000000000000000000000000000000000001",
                "label": "Precompiled"
            }
        ]
    },
    "trace": {
        "accountLabels": null,
        "dataMap": {
            "-1": {
                "invocation": {
                    "address": "0x21a31ee1afc51d94c2efccaa2092ad1028285549",
                    "callData": "",
                    "decodedMethod": null,
                    "errorInfo": "",
                    "fromAddress": "",
                    "gasUsed": 0,
                    "id": -1,
                    "methodDecoded": false,
                    "operation": "",
                    "output": "",
                    "revert": false,
                    "revertMessage": "",
                    "selector": "",
                    "status": false,
                    "value": ""
                },
                "nodeType": 0
            },
            "0": {
                "invocation": {
                    "address": "0x6de037ef9ad2725eb40118bb1702ebb27e4aeb24",
                    "callData": "0x00000000000000000000000064259d9808a8331e02bf4f6b974d7809a1537e6b0000000000000000000000000000000000000000000000cc2c71076a5171c000",
                    "decodedMethod": {
                        "callParams": [
                            {
                                "name": "_to",
                                "type": "address",
                                "value": "0x64259d9808a8331e02bf4f6b974d7809a1537e6b"
                            },
                            {
                                "decimalAvailable": true,
                                "name": "_value",
                                "type": "uint256",
                                "value": "3,766,338,140,000,000,000,000"
                            }
                        ],
                        "constructorArguments": "",
                        "name": "transfer",
                        "returnParams": [
                            {
                                "name": "",
                                "type": "bool",
                                "value": true
                            }
                        ],
                        "signature": "transfer(address,uint256)"
                    },
                    "errorInfo": "",
                    "fromAddress": "0x21a31ee1afc51d94c2efccaa2092ad1028285549",
                    "gasUsed": 42296,
                    "id": 0,
                    "methodDecoded": true,
                    "operation": "CALL",
                    "output": "0x0000000000000000000000000000000000000000000000000000000000000001",
                    "revert": false,
                    "revertMessage": "",
                    "selector": "0xa9059cbb",
                    "status": true,
                    "value": "0"
                },
                "nodeType": 0
            },
            "1": {
                "invocation": {
                    "address": "0x1a1fdf27c5e6784d1cebf256a8a5cc0877e73af0",
                    "callData": "0x00000000000000000000000064259d9808a8331e02bf4f6b974d7809a1537e6b0000000000000000000000000000000000000000000000cc2c71076a5171c000",
                    "decodedMethod": {
                        "callParams": [
                            {
                                "name": "_to",
                                "type": "address",
                                "value": "0x64259d9808a8331e02bf4f6b974d7809a1537e6b"
                            },
                            {
                                "decimalAvailable": true,
                                "name": "_value",
                                "type": "uint256",
                                "value": "3,766,338,140,000,000,000,000"
                            }
                        ],
                        "constructorArguments": "",
                        "name": "transfer",
                        "returnParams": [
                            {
                                "name": "",
                                "type": "bool",
                                "value": true
                            }
                        ],
                        "signature": "transfer(address,uint256)"
                    },
                    "errorInfo": "",
                    "fromAddress": "0x6de037ef9ad2725eb40118bb1702ebb27e4aeb24",
                    "gasUsed": 13351,
                    "id": 1,
                    "methodDecoded": true,
                    "operation": "DELEGATECALL",
                    "output": "0x0000000000000000000000000000000000000000000000000000000000000001",
                    "revert": false,
                    "revertMessage": "",
                    "selector": "0xa9059cbb",
                    "status": true,
                    "value": "0"
                },
                "nodeType": 0
            },
            "2": {
                "event": {
                    "contract": "0x6de037ef9ad2725eb40118bb1702ebb27e4aeb24",
                    "decodedLog": {
                        "name": "Transfer",
                        "params": [
                            {
                                "name": "from",
                                "type": "address",
                                "value": "0x21a31ee1afc51d94c2efccaa2092ad1028285549"
                            },
                            {
                                "name": "to",
                                "type": "address",
                                "value": "0x64259d9808a8331e02bf4f6b974d7809a1537e6b"
                            },
                            {
                                "decimalAvailable": true,
                                "name": "value",
                                "type": "uint256",
                                "value": "3,766,338,140,000,000,000,000"
                            }
                        ],
                        "signature": "Transfer(address,address,uint256)"
                    },
                    "id": 2,
                    "logData": "0x0000000000000000000000000000000000000000000000cc2c71076a5171c000",
                    "logDecoded": true,
                    "operation": "EVENT",
                    "revert": false,
                    "status": true,
                    "topics": [
                        "0xddf252ad1be2c89b69c2b068fc378daa952ba7f163c4a11628f55a4df523b3ef",
                        "0x00000000000000000000000021a31ee1afc51d94c2efccaa2092ad1028285549",
                        "0x00000000000000000000000064259d9808a8331e02bf4f6b974d7809a1537e6b"
                    ]
                },
                "nodeType": 1
            }
        },
        "gasFlame": [
            {
                "children": [
                    {
                        "children": [
                            {
                                "children": [],
                                "depth": 0,
                                "name": "Initial Gas",
                                "value": 21656
                            },
                            {
                                "children": [
                                    {
                                        "children": [],
                                        "depth": 1,
                                        "name": "transfer",
                                        "value": 13351
                                    }
                                ],
                                "depth": 0,
                                "name": "Executed Gas",
                                "value": 20640
                            }
                        ],
                        "depth": -1,
                        "name": "Actual Gas Used",
                        "value": 42296
                    },
                    {
                        "children": [],
                        "depth": -1,
                        "name": "Refunded Gas",
                        "value": 0
                    }
                ],
                "depth": -2,
                "name": "Total Gas",
                "value": 42296
            }
        ],
        "isConfirmed": true,
        "mainTrace": [
            {
                "children": [
                    {
                        "children": [
                            {
                                "children": [
                                    {
                                        "children": [],
                                        "depth": 2,
                                        "id": 2,
                                        "order": 2
                                    }
                                ],
                                "depth": 1,
                                "id": 1,
                                "order": 1
                            }
                        ],
                        "depth": 0,
                        "id": 0,
                        "order": 0
                    }
                ],
                "depth": -1,
                "id": -1,
                "order": -1
            }
        ],
        "mainTraceNodeCount": 3,
        "parentIdMap": {
            "0": -1,
            "1": 0,
            "2": 1
        },
        "tidyTrace": [
            {
                "children": [
                    {
                        "children": [
                            {
                                "children": [
                                    {
                                        "children": [],
                                        "depth": 2,
                                        "id": 2,
                                        "order": 2
                                    }
                                ],
                                "depth": 1,
                                "id": 1,
                                "order": 1
                            }
                        ],
                        "depth": 0,
                        "id": 0,
                        "order": 0
                    }
                ],
                "depth": -1,
                "id": -1,
                "order": -1
            }
        ],
        "tidyTraceNodeCount": 3
    },
    "state_change": {
        "stateChanges": [
            {
                "address": "0x6de037ef9ad2725eb40118bb1702ebb27e4aeb24",
                "erc": "ERC-20",
                "slots": [
                    {
                        "current": "0x0000000000000000000000000000000000000000000001dac5eddd6e8360e000",
                        "key": "0xabd35b8e5d071da6f1381744ef8844f07010fe8c264aa2d5499eeea7cbbd8e37",
                        "prev": "0x00000000000000000000000000000000000000000000010e997cd60431ef2000"
                    },
                    {
                        "current": "0x00000000000000000000000000000000000000000000a9aa69d8a5eb622f7800",
                        "key": "0x96d315064f7a9bbe259cc8db54c89d58fb299805efa1bb8cf1870e5b7c7730e1",
                        "prev": "0x00000000000000000000000000000000000000000000aa769649ad55b3a13800"
                    }
                ],
                "storageVariables": [
                    {
                        "name": "balances",
                        "type": "mapping(address => uint256)",
                        "value": {
                            "pairs": [
                                {
                                    "key": "0x21a31ee1afc51d94c2efccaa2092ad1028285549",
                                    "value": {
                                        "current": "801223509125900000000000",
                                        "prev": "804989847265900000000000",
                                        "typeTag": 1
                                    }
                                },
                                {
                                    "key": "0x64259d9808a8331e02bf4f6b974d7809a1537e6b",
                                    "value": {
                                        "current": "8758018990000000000000",
                                        "prev": "4991680850000000000000",
                                        "typeTag": 1
                                    }
                                }
                            ],
                            "typeTag": 4
                        }
                    }
                ]
            }
        ]
    }
}