{
    "balance_change": {
        "balanceChanges": [
            {
                "account": "0xc5341278a92e2bd8203ab931c6780c15d367713f",
                "assets": [
                    {
                        "address": "0x8e766f57f7d16ca50b4a0b90b88f6468a09b0439",
                        "amount": "2,905",
                        "iconUrl": "",
                        "isERC1155": false,
                        "isERC721": false,
                        "sign": false,
                        "value": ""
                    }
                ]
            },
            {
                "account": "0x774169f1c9743216a23768072347580eca02d5e0",
                "assets": [
                    {
                        "address": "0x8e766f57f7d16ca50b4a0b90b88f6468a09b0439",
                        "amount": "2,905",
                        "iconUrl": "",
                        "isERC1155": false,
                        "isERC721": false,
                        "sign": true,
                        "value": ""
                    }
                ]
            }
        ]
    },
    "profile": {
        "basic_info": {
            "baseFee": "",
            "blockNumber": 7794801,
            "callData": "0xa9059cbb000000000000000000000000774169f1c9743216a23768072347580eca02d5e000000000000000000000000000000000000000000000009d7af93ca67dc40000",
            "debugEnable": true,
            "errorInfo": "",
            "eventCount": 1,
            "feeRecipient": "0x52bc44d5378309ee2abf1539bf71de1b7d7be3b5",
            "formatValue": "0",
            "gasLimit": 90000,
            "gasPrice": "13.333333333",
            "gasUsed": 38296,
            "intTxnCount": 0,
            "internalRevert": false,
            "internalRevertMessage": "",
            "isContractCreation": false,
            "isFlashloan": false,
            "maxFee": "",
            "nonce": 190338,
            "overwritedBlockNumber": -1,
            "priorityFee": "",
            "receiver": "0x8e766f57f7d16ca50b4a0b90b88f6468a09b0439",
            "revertMessage": "",
            "sender": "0xc5341278a92e2bd8203ab931c6780c15d367713f",
            "simulationEnable": true,
            "sourceTxnHash": "0x9060e16edffeec37ead46947c68fcd75afa63643d1e0931def76d99615c08872",
            "status": true,
            "timestamp": "2019-05-20T04:35:54Z",
            "transactionFee": "0.000510613333320568",
            "txnHash": "0x9060e16edffeec37ead46947c68fcd75afa63643d1e0931def76d99615c08872",
            "txnIndex": 49,
            "type": 0,
            "value": "0"
        },
        "fund_flow": [
            {
                "amount": "2,905",
                "from": "0xc5341278a92e2bd8203ab931c6780c15d367713f",
                "id": 1,
                "isERC1155": false,
                "isERC721": false,
                "isReverted": false,
                "order": 1,
                "to": "0x774169f1c9743216a23768072347580eca02d5e0",
                "token": "0x8e766f57f7d16ca50b4a0b90b88f6468a09b0439"
            }
        ],
        "token_infos": [
            {
                "address": "0x8e766f57f7d16ca50b4a0b90b88f6468a09b0439",
                "decimals": 18
            },
            {
                "address": "0xc02aaa39b223fe8d0a0e5c4f27ead9083c756cc2",
                "decimals": 18
            },
            {
                "address": "0xeeeeeeeeeeeeeeeeeeeeeeeeeeeeeeeeeeeeeeee",
                "decimals": 18
            }
        ]
    },
    "address_label": {
        "labels": [
            {
                "address": "0x8e766f57f7d16ca50b4a0b90b88f6468a09b0439",
                "label": "MaxiMine Coin"
            },
            {
                "address": "0x0000000000000000000000000000000000000001",
                "label": "Precompiled"
            },
            {
                "address": "0x0000000000000000000000000000000000000002",
                "label": "Precompiled"
            },
            {
                "address": "0x0000000000000000000000000000000000000003",
                "label": "Precompiled"
            },
            {
                "address": "0x0000000000000000000000000000000000000004",
                "label": "Precompiled"
            },
            {
                "address": "0xeeeeeeeeeeeeeeeeeeeeeeeeeeeeeeeeeeeeeeee",
                "label": "Ether"
            }
        ]
    },
    "trace": {
        "accountLabels": null,
        "dataMap": {
            "-1": {
                "invocation": {
                    "address": "0xc5341278a92e2bd8203ab931c6780c15d367713f",
                    "callData": "",
                    "decodedMethod": null,
                    "errorInfo": "",
                    "fromAddress": "",
                    "gasUsed": 0,
                    "id": -1,
                    "methodDecoded": false,
                    "operation": "",
                    "output": "",
                    "revert": false,
                    "revertMessage": "",
                    "selector": "",
                    "status": false,
                    "value": ""
                },
                "nodeType": 0
            },
            "0": {
                "invocation": {
                    "address": "0x8e766f57f7d16ca50b4a0b90b88f6468a09b0439",
                    "callData": "0x000000000000000000000000774169f1c9743216a23768072347580eca02d5e000000000000000000000000000000000000000000000009d7af93ca67dc40000",
                    "decodedMethod": {
                        "callParams": [
                            {
                                "name": "_to",
                                "type": "address",
                                "value": "0x774169f1c9743216a23768072347580eca02d5e0"
                            },
                            {
                                "decimalAvailable": true,
                                "name": "_value",
                                "type": "uint256",
                                "value": "2,905,000,000,000,000,000,000"
                            }
                        ],
                        "constructorArguments": "",
                        "name": "transfer",
                        "returnParams": [],
                        "signature": "transfer(address,uint256)"
                    },
                    "errorInfo": "",
                    "fromAddress": "0xc5341278a92e2bd8203ab931c6780c15d367713f",
                    "gasUsed": 38296,
                    "id": 0,
                    "methodDecoded": true,
                    "operation": "CALL",
                    "output": "",
                    "revert": false,
                    "revertMessage": "",
                    "selector": "0xa9059cbb",
                    "status": true,
                    "value": "0"
                },
                "nodeType": 0
            },
            "1": {
                "event": {
                    "contract": "0x8e766f57f7d16ca50b4a0b90b88f6468a09b0439",
                    "decodedLog": {
                        "name": "Transfer",
                        "params": [
                            {
                                "name": "from",
                                "type": "address",
                                "value": "0xc5341278a92e2bd8203ab931c6780c15d367713f"
                            },
                            {
                                "name": "to",
                                "type": "address",
                                "value": "0x774169f1c9743216a23768072347580eca02d5e0"
                            },
                            {
                                "decimalAvailable": true,
                                "name": "value",
                                "type": "uint256",
                                "value": "2,905,000,000,000,000,000,000"
                            }
                        ],
                        "signature": "Transfer(address,address,uint256)"
                    },
                    "id": 1,
                    "logData": "0x00000000000000000000000000000000000000000000009d7af93ca67dc40000",
                    "logDecoded": true,
                    "operation": "EVENT",
                    "revert": false,
                    "status": true,
                    "topics": [
                        "0xddf252ad1be2c89b69c2b068fc378daa952ba7f163c4a11628f55a4df523b3ef",
                        "0x000000000000000000000000c5341278a92e2bd8203ab931c6780c15d367713f",
                        "0x000000000000000000000000774169f1c9743216a23768072347580eca02d5e0"
                    ]
                },
                "nodeType": 1
            }
        },
        "gasFlame": [
            {
                "children": [
                    {
                        "children": [
                            {
                                "children": [],
                                "depth": 0,
                                "name": "Initial Gas",
                                "value": 23256
                            },
                            {
                                "children": [],
                                "depth": 0,
                                "name": "Executed Gas",
                                "value": 15040
                            }
                        ],
                        "depth": -1,
                        "name": "Actual Gas Used",
                        "value": 38296
                    },
                    {
                        "children": [],
                        "depth": -1,
                        "name": "Refunded Gas",
                        "value": 0
                    }
                ],
                "depth": -2,
                "name": "Total Gas",
                "value": 38296
            }
        ],
        "isConfirmed": true,
        "mainTrace": [
            {
                "children": [
                    {
                        "children": [
                            {
                                "children": [],
                                "depth": 1,
                                "id": 1,
                                "order": 1
                            }
                        ],
                        "depth": 0,
                        "id": 0,
                        "order": 0
                    }
                ],
                "depth": -1,
                "id": -1,
                "order": -1
            }
        ],
        "mainTraceNodeCount": 2,
        "parentIdMap": {
            "0": -1,
            "1": 0
        },
        "tidyTrace": [
            {
                "children": [
                    {
                        "children": [
                            {
                                "children": [],
                                "depth": 1,
                                "id": 1,
                                "order": 1
                            }
                        ],
                        "depth": 0,
                        "id": 0,
                        "order": 0
                    }
                ],
                "depth": -1,
                "id": -1,
                "order": -1
            }
        ],
        "tidyTraceNodeCount": 2
    },
    "state_change": {
        "stateChanges": [
            {
                "address": "0x8e766f57f7d16ca50b4a0b90b88f6468a09b0439",
                "erc": "",
                "slots": [
                    {
                        "current": "0x0000000000000000000000000000000000000000000e5a4d3d0637a04ff1c000",
                        "key": "0x8b36b727c4f8a4b24b3c1937a2dfba95ac4845ef8f866daf788be00b57345ecc",
                        "prev": "0x0000000000000000000000000000000000000000000e5aeab7ff7446cdb5c000"
                    },
                    {
                        "current": "0x00000000000000000000000000000000000000000000073ac98db53ac3540000",
                        "key": "0xef3bf12d87d7ca87d809126c20600699699ff0a6752ce9ed80999eded03880e8",
                        "prev": "0x00000000000000000000000000000000000000000000069d4e94789445900000"
                    }
                ],
                "storageVariables": [
                    {
                        "name": "balanceOf",
                        "type": "mapping(address => uint256)",
                        "value": {
                            "pairs": [
                                {
                                    "key": "0x774169f1c9743216a23768072347580eca02d5e0",
                                    "value": {
                                        "current": "34141000000000000000000",
                                        "prev": "31236000000000000000000",
                                        "typeTag": 1
                                    }
                                },
                                {
                                    "key": "0xc5341278a92e2bd8203ab931c6780c15d367713f",
                                    "value": {
                                        "current": "17351399254620000000000000",
                                        "prev": "17354304254620000000000000",
                                        "typeTag": 1
                                    }
                                }
                            ],
                            "typeTag": 4
                        }
                    }
                ]
            }
        ]
    }
}