{
    "balance_change": {
        "balanceChanges": [
            {
                "account": "0xa434d4dfee103091cb20a91ab40143c943b51eb3",
                "assets": [
                    {
                        "address": "0x7501a4f0b6fcf5ab8d682a57e668214edc3d3ea4",
                        "amount": "1,001.54591",
                        "iconUrl": "",
                        "isERC1155": false,
                        "isERC721": false,
                        "sign": false,
                        "value": ""
                    }
                ]
            },
            {
                "account": "0x5549dddecb5842556c6ea6e4df0271f09cccb929",
                "assets": [
                    {
                        "address": "0x7501a4f0b6fcf5ab8d682a57e668214edc3d3ea4",
                        "amount": "1,001.54591",
                        "iconUrl": "",
                        "isERC1155": false,
                        "isERC721": false,
                        "sign": true,
                        "value": ""
                    }
                ]
            }
        ]
    },
    "profile": {
        "basic_info": {
            "baseFee": "",
            "blockNumber": 4659106,
            "callData": "0xa9059cbb0000000000000000000000005549dddecb5842556c6ea6e4df0271f09cccb9290000000000000000000000000000000000000000000000000000001751adc718",
            "debugEnable": true,
            "errorInfo": "",
            "eventCount": 1,
            "feeRecipient": "0x829bd824b016326a401d083b33d092293333a830",
            "formatValue": "0",
            "gasLimit": 200000,
            "gasPrice": "60",
            "gasUsed": 51531,
            "intTxnCount": 0,
            "internalRevert": false,
            "internalRevertMessage": "",
            "isContractCreation": false,
            "isFlashloan": false,
            "maxFee": "",
            "nonce": 120,
            "overwritedBlockNumber": -1,
            "priorityFee": "",
            "receiver": "0x7501a4f0b6fcf5ab8d682a57e668214edc3d3ea4",
            "revertMessage": "",
            "sender": "0xa434d4dfee103091cb20a91ab40143c943b51eb3",
            "simulationEnable": true,
            "sourceTxnHash": "0x90f31e4d5a5b9cf2dcf81990fdd14b9f59f66fed83d32dbd84769bc1117871ba",
            "status": true,
            "timestamp": "2017-12-02T00:11:38Z",
            "transactionFee": "0.00309186",
            "txnHash": "0x90f31e4d5a5b9cf2dcf81990fdd14b9f59f66fed83d32dbd84769bc1117871ba",
            "txnIndex": 0,
            "type": 0,
            "value": "0"
        },
        "fund_flow": [
            {
                "amount": "1,001.54591",
                "from": "0xa434d4dfee103091cb20a91ab40143c943b51eb3",
                "id": 1,
                "isERC1155": false,
                "isERC721": false,
                "isReverted": false,
                "order": 1,
                "to": "0x5549dddecb5842556c6ea6e4df0271f09cccb929",
                "token": "0x7501a4f0b6fcf5ab8d682a57e668214edc3d3ea4"
            }
        ],
        "token_infos": [
            {
                "address": "0x7501a4f0b6fcf5ab8d682a57e668214edc3d3ea4",
                "decimals": 8
            },
            {
                "address": "0xc02aaa39b223fe8d0a0e5c4f27ead9083c756cc2",
                "decimals": 18
            },
            {
                "address": "0xeeeeeeeeeeeeeeeeeeeeeeeeeeeeeeeeeeeeeeee",
                "decimals": 18
            }
        ]
    },
    "address_label": {
        "labels": [
            {
                "address": "0xeeeeeeeeeeeeeeeeeeeeeeeeeeeeeeeeeeeeeeee",
                "label": "Ether"
            },
            {
                "address": "0x7501a4f0b6fcf5ab8d682a57e668214edc3d3ea4",
                "label": "BinaryCoin (BRC)"
            },
            {
                "address": "0x0000000000000000000000000000000000000001",
                "label": "Precompiled"
            },
            {
                "address": "0x0000000000000000000000000000000000000002",
                "label": "Precompiled"
            },
            {
                "address": "0x0000000000000000000000000000000000000003",
                "label": "Precompiled"
            },
            {
                "address": "0x0000000000000000000000000000000000000004",
                "label": "Precompiled"
            }
        ]
    },
    "trace": {
        "accountLabels": null,
        "dataMap": {
            "-1": {
                "invocation": {
                    "address": "0xa434d4dfee103091cb20a91ab40143c943b51eb3",
                    "callData": "",
                    "decodedMethod": null,
                    "errorInfo": "",
                    "fromAddress": "",
                    "gasUsed": 0,
                    "id": -1,
                    "methodDecoded": false,
                    "operation": "",
                    "output": "",
                    "revert": false,
                    "revertMessage": "",
                    "selector": "",
                    "status": false,
                    "value": ""
                },
                "nodeType": 0
            },
            "0": {
                "invocation": {
                    "address": "0x7501a4f0b6fcf5ab8d682a57e668214edc3d3ea4",
                    "callData": "0x0000000000000000000000005549dddecb5842556c6ea6e4df0271f09cccb9290000000000000000000000000000000000000000000000000000001751adc718",
                    "decodedMethod": {
                        "callParams": [
                            {
                                "name": "_to",
                                "type": "address",
                                "value": "0x5549dddecb5842556c6ea6e4df0271f09cccb929"
                            },
                            {
                                "decimalAvailable": true,
                                "name": "_value",
                                "type": "uint256",
                                "value": "100,154,591,000"
                            }
                        ],
                        "constructorArguments": "",
                        "name": "transfer",
                        "returnParams": [
                            {
                                "name": "",
                                "type": "bool",
                                "value": true
                            }
                        ],
                        "signature": "transfer(address,uint256)"
                    },
                    "errorInfo": "",
                    "fromAddress": "0xa434d4dfee103091cb20a91ab40143c943b51eb3",
                    "gasUsed": 51531,
                    "id": 0,
                    "methodDecoded": true,
                    "operation": "CALL",
                    "output": "0x0000000000000000000000000000000000000000000000000000000000000001",
                    "revert": false,
                    "revertMessage": "",
                    "selector": "0xa9059cbb",
                    "status": true,
                    "value": "0"
                },
                "nodeType": 0
            },
            "1": {
                "event": {
                    "contract": "0x7501a4f0b6fcf5ab8d682a57e668214edc3d3ea4",
                    "decodedLog": {
                        "name": "Transfer",
                        "params": [
                            {
                                "name": "from",
                                "type": "address",
                                "value": "0xa434d4dfee103091cb20a91ab40143c943b51eb3"
                            },
                            {
                                "name": "to",
                                "type": "address",
                                "value": "0x5549dddecb5842556c6ea6e4df0271f09cccb929"
                            },
                            {
                                "decimalAvailable": true,
                                "name": "value",
                                "type": "uint256",
                                "value": "100,154,591,000"
                            }
                        ],
                        "signature": "Transfer(address,address,uint256)"
                    },
                    "id": 1,
                    "logData": "0x0000000000000000000000000000000000000000000000000000001751adc718",
                    "logDecoded": true,
                    "operation": "EVENT",
                    "revert": false,
                    "status": true,
                    "topics": [
                        "0xddf252ad1be2c89b69c2b068fc378daa952ba7f163c4a11628f55a4df523b3ef",
                        "0x000000000000000000000000a434d4dfee103091cb20a91ab40143c943b51eb3",
                        "0x0000000000000000000000005549dddecb5842556c6ea6e4df0271f09cccb929"
                    ]
                },
                "nodeType": 1
            }
        },
        "gasFlame": [
            {
                "children": [
                    {
                        "children": [
                            {
                                "children": [],
                                "depth": 0,
                                "name": "Initial Gas",
                                "value": 23128
                            },
                            {
                                "children": [],
                                "depth": 0,
                                "name": "Executed Gas",
                                "value": 28403
                            }
                        ],
                        "depth": -1,
                        "name": "Actual Gas Used",
                        "value": 51531
                    },
                    {
                        "children": [],
                        "depth": -1,
                        "name": "Refunded Gas",
                        "value": 0
                    }
                ],
                "depth": -2,
                "name": "Total Gas",
                "value": 51531
            }
        ],
        "isConfirmed": true,
        "mainTrace": [
            {
                "children": [
                    {
                        "children": [
                            {
                                "children": [],
                                "depth": 1,
                                "id": 1,
                                "order": 1
                            }
                        ],
                        "depth": 0,
                        "id": 0,
                        "order": 0
                    }
                ],
                "depth": -1,
                "id": -1,
                "order": -1
            }
        ],
        "mainTraceNodeCount": 2,
        "parentIdMap": {
            "0": -1,
            "1": 0
        },
        "tidyTrace": [
            {
                "children": [
                    {
                        "children": [
                            {
                                "children": [],
                                "depth": 1,
                                "id": 1,
                                "order": 1
                            }
                        ],
                        "depth": 0,
                        "id": 0,
                        "order": 0
                    }
                ],
                "depth": -1,
                "id": -1,
                "order": -1
            }
        ],
        "tidyTraceNodeCount": 2
    },
    "state_change": {
        "stateChanges": [
            {
                "address": "0x7501a4f0b6fcf5ab8d682a57e668214edc3d3ea4",
                "erc": "ERC-20",
                "slots": [
                    {
                        "current": "0x0000000000000000000000000000000000000000000000000000001751adc718",
                        "key": "0x1592433af1c02ac2de49c8c43b28677b788afc65655b7bdabb1a0781945036eb",
                        "prev": "0x0000000000000000000000000000000000000000000000000000000000000000"
                    },
                    {
                        "current": "0x000000000000000000000000000000000000000000000000000381434e40e2ec",
                        "key": "0x7838c1b3758d3ee89929ed73817f477217634db1dac30547ce81c070778ff8d8",
                        "prev": "0x0000000000000000000000000000000000000000000000000003815a9feeaa04"
                    }
                ],
                "storageVariables": [
                    {
                        "name": "balances",
                        "type": "mapping(address => uint256)",
                        "value": {
                            "pairs": [
                                {
                                    "key": "0x5549dddecb5842556c6ea6e4df0271f09cccb929",
                                    "value": {
                                        "current": "100154591000",
                                        "prev": "0",
                                        "typeTag": 1
                                    }
                                },
                                {
                                    "key": "0xa434d4dfee103091cb20a91ab40143c943b51eb3",
                                    "value": {
                                        "current": "986551005799148",
                                        "prev": "986651160390148",
                                        "typeTag": 1
                                    }
                                }
                            ],
                            "typeTag": 4
                        }
                    }
                ]
            }
        ]
    }
}