{
    "balance_change": {
        "balanceChanges": [
            {
                "account": "0x47b82543ba1b3f98495fe28eae90172f4fab6b45",
                "assets": [
                    {
                        "address": "0x518a9ebcdab050bab5d7ba3a7416a4081e201fb7",
                        "amount": "11,323,480,900,000,000,000,000",
                        "iconUrl": "",
                        "isERC1155": false,
                        "isERC721": false,
                        "sign": false,
                        "value": ""
                    }
                ]
            },
            {
                "account": "0xc96a554581d4af6d0556b605cbc1de8144dc81c7",
                "assets": [
                    {
                        "address": "0x518a9ebcdab050bab5d7ba3a7416a4081e201fb7",
                        "amount": "11,323,480,900,000,000,000,000",
                        "iconUrl": "",
                        "isERC1155": false,
                        "isERC721": false,
                        "sign": true,
                        "value": ""
                    }
                ]
            }
        ]
    },
    "profile": {
        "basic_info": {
            "baseFee": "",
            "blockNumber": 10999656,
            "callData": "0xa9059cbb000000000000000000000000c96a554581d4af6d0556b605cbc1de8144dc81c7000000000000000000000000000000000000000000000265d8dd7c2d4c884000",
            "debugEnable": true,
            "errorInfo": "",
            "eventCount": 1,
            "feeRecipient": "0x84a0d77c693adabe0ebc48f88b3ffff010577051",
            "formatValue": "0",
            "gasLimit": 70247,
            "gasPrice": "46",
            "gasUsed": 52247,
            "intTxnCount": 0,
            "internalRevert": false,
            "internalRevertMessage": "",
            "isContractCreation": false,
            "isFlashloan": false,
            "maxFee": "",
            "nonce": 338,
            "overwritedBlockNumber": -1,
            "priorityFee": "",
            "receiver": "0x518a9ebcdab050bab5d7ba3a7416a4081e201fb7",
            "revertMessage": "",
            "sender": "0x47b82543ba1b3f98495fe28eae90172f4fab6b45",
            "simulationEnable": true,
            "sourceTxnHash": "0x9052b263275d59079fd4a63b261abf94c415a2a3df04a82843635954e09edf2a",
            "status": true,
            "timestamp": "2020-10-06T03:01:30Z",
            "transactionFee": "0.002403362",
            "txnHash": "0x9052b263275d59079fd4a63b261abf94c415a2a3df04a82843635954e09edf2a",
            "txnIndex": 71,
            "type": 0,
            "value": "0"
        },
        "fund_flow": [
            {
                "amount": "11,323,480,900,000,000,000,000",
                "from": "0x47b82543ba1b3f98495fe28eae90172f4fab6b45",
                "id": 1,
                "isERC1155": false,
                "isERC721": false,
                "isReverted": false,
                "order": 1,
                "to": "0xc96a554581d4af6d0556b605cbc1de8144dc81c7",
                "token": "0x518a9ebcdab050bab5d7ba3a7416a4081e201fb7"
            }
        ],
        "token_infos": [
            {
                "address": "0xc02aaa39b223fe8d0a0e5c4f27ead9083c756cc2",
                "decimals": 18
            },
            {
                "address": "0xeeeeeeeeeeeeeeeeeeeeeeeeeeeeeeeeeeeeeeee",
                "decimals": 18
            }
        ]
    },
    "address_label": {
        "labels": [
            {
                "address": "0xeeeeeeeeeeeeeeeeeeeeeeeeeeeeeeeeeeeeeeee",
                "label": "Ether"
            },
            {
                "address": "0x0000000000000000000000000000000000000001",
                "label": "Precompiled"
            },
            {
                "address": "0x0000000000000000000000000000000000000002",
                "label": "Precompiled"
            },
            {
                "address": "0x0000000000000000000000000000000000000003",
                "label": "Precompiled"
            },
            {
                "address": "0x0000000000000000000000000000000000000004",
                "label": "Precompiled"
            }
        ]
    },
    "trace": {
        "accountLabels": null,
        "dataMap": {
            "-1": {
                "invocation": {
                    "address": "0x47b82543ba1b3f98495fe28eae90172f4fab6b45",
                    "callData": "",
                    "decodedMethod": null,
                    "errorInfo": "",
                    "fromAddress": "",
                    "gasUsed": 0,
                    "id": -1,
                    "methodDecoded": false,
                    "operation": "",
                    "output": "",
                    "revert": false,
                    "revertMessage": "",
                    "selector": "",
                    "status": false,
                    "value": ""
                },
                "nodeType": 0
            },
            "0": {
                "invocation": {
                    "address": "0x518a9ebcdab050bab5d7ba3a7416a4081e201fb7",
                    "callData": "0x000000000000000000000000c96a554581d4af6d0556b605cbc1de8144dc81c7000000000000000000000000000000000000000000000265d8dd7c2d4c884000",
                    "decodedMethod": {
                        "callParams": [
                            {
                                "name": "recipient",
                                "type": "address",
                                "value": "0xc96a554581d4af6d0556b605cbc1de8144dc81c7"
                            },
                            {
                                "decimalAvailable": true,
                                "name": "amount",
                                "type": "uint256",
                                "value": "11,323,480,900,000,000,000,000"
                            }
                        ],
                        "constructorArguments": "",
                        "name": "transfer",
                        "returnParams": [
                            {
                                "name": "",
                                "type": "bool",
                                "value": true
                            }
                        ],
                        "signature": "transfer(address,uint256)"
                    },
                    "errorInfo": "",
                    "fromAddress": "0x47b82543ba1b3f98495fe28eae90172f4fab6b45",
                    "gasUsed": 52247,
                    "id": 0,
                    "methodDecoded": true,
                    "operation": "CALL",
                    "output": "0x0000000000000000000000000000000000000000000000000000000000000001",
                    "revert": false,
                    "revertMessage": "",
                    "selector": "0xa9059cbb",
                    "status": true,
                    "value": "0"
                },
                "nodeType": 0
            },
            "1": {
                "event": {
                    "contract": "0x518a9ebcdab050bab5d7ba3a7416a4081e201fb7",
                    "decodedLog": {
                        "name": "Transfer",
                        "params": [
                            {
                                "name": "from",
                                "type": "address",
                                "value": "0x47b82543ba1b3f98495fe28eae90172f4fab6b45"
                            },
                            {
                                "name": "to",
                                "type": "address",
                                "value": "0xc96a554581d4af6d0556b605cbc1de8144dc81c7"
                            },
                            {
                                "decimalAvailable": true,
                                "name": "value",
                                "type": "uint256",
                                "value": "11,323,480,900,000,000,000,000"
                            }
                        ],
                        "signature": "Transfer(address,address,uint256)"
                    },
                    "id": 1,
                    "logData": "0x000000000000000000000000000000000000000000000265d8dd7c2d4c884000",
                    "logDecoded": true,
                    "operation": "EVENT",
                    "revert": false,
                    "status": true,
                    "topics": [
                        "0xddf252ad1be2c89b69c2b068fc378daa952ba7f163c4a11628f55a4df523b3ef",
                        "0x00000000000000000000000047b82543ba1b3f98495fe28eae90172f4fab6b45",
                        "0x000000000000000000000000c96a554581d4af6d0556b605cbc1de8144dc81c7"
                    ]
                },
                "nodeType": 1
            }
        },
        "gasFlame": [
            {
                "children": [
                    {
                        "children": [
                            {
                                "children": [],
                                "depth": 0,
                                "name": "Initial Gas",
                                "value": 21668
                            },
                            {
                                "children": [],
                                "depth": 0,
                                "name": "Executed Gas",
                                "value": 30579
                            }
                        ],
                        "depth": -1,
                        "name": "Actual Gas Used",
                        "value": 52247
                    },
                    {
                        "children": [],
                        "depth": -1,
                        "name": "Refunded Gas",
                        "value": 0
                    }
                ],
                "depth": -2,
                "name": "Total Gas",
                "value": 52247
            }
        ],
        "isConfirmed": true,
        "mainTrace": [
            {
                "children": [
                    {
                        "children": [
                            {
                                "children": [],
                                "depth": 1,
                                "id": 1,
                                "order": 1
                            }
                        ],
                        "depth": 0,
                        "id": 0,
                        "order": 0
                    }
                ],
                "depth": -1,
                "id": -1,
                "order": -1
            }
        ],
        "mainTraceNodeCount": 2,
        "parentIdMap": {
            "0": -1,
            "1": 0
        },
        "tidyTrace": [
            {
                "children": [
                    {
                        "children": [
                            {
                                "children": [],
                                "depth": 1,
                                "id": 1,
                                "order": 1
                            }
                        ],
                        "depth": 0,
                        "id": 0,
                        "order": 0
                    }
                ],
                "depth": -1,
                "id": -1,
                "order": -1
            }
        ],
        "tidyTraceNodeCount": 2
    },
    "state_change": {
        "stateChanges": [
            {
                "address": "0x518a9ebcdab050bab5d7ba3a7416a4081e201fb7",
                "erc": "",
                "slots": [
                    {
                        "current": "0x00000000000000000000000000000000000000000000205500470fa0a86bc000",
                        "key": "0x28d07873136504ed90db2bd0d4c323a9f5eb3a2ec77681c641856cdf24ab2053",
                        "prev": "0x0000000000000000000000000000000000000000000022bad9248bcdf4f40000"
                    },
                    {
                        "current": "0x000000000000000000000000000000000000000000000265d8dd7c2d4c884000",
                        "key": "0xd10f482fe73a9b7295deeec29194953cdcf0059f2feb16e6905ca3fb6d752bdf",
                        "prev": "0x0000000000000000000000000000000000000000000000000000000000000000"
                    }
                ],
                "storageVariables": []
            }
        ]
    }
}