{
    "balance_change": {
        "balanceChanges": [
            {
                "account": "0x92f7174e68edc9805ba75dc027c31853189bf72e",
                "assets": [
                    {
                        "address": "0xeeeeeeeeeeeeeeeeeeeeeeeeeeeeeeeeeeeeeeee",
                        "amount": "0.01",
                        "iconUrl": "https://assets.blocksec.com/image/1663669189317-3.png",
                        "isERC1155": false,
                        "isERC721": false,
                        "sign": false,
                        "value": "22.964752509999998438"
                    },
                    {
                        "address": "0x53409d32d24ae6f946b54bb2a0d14e9548a94b07",
                        "amount": "37,204,903,183,354,291,750,165",
                        "iconUrl": "",
                        "isERC1155": false,
                        "isERC721": false,
                        "sign": true,
                        "value": ""
                    }
                ]
            },
            {
                "account": "0x27b9c20f64920eb7fbf64491423a54df9594188c",
                "assets": [
                    {
                        "address": "0xeeeeeeeeeeeeeeeeeeeeeeeeeeeeeeeeeeeeeeee",
                        "amount": "0.0001",
                        "iconUrl": "https://assets.blocksec.com/image/1663669189317-3.png",
                        "isERC1155": false,
                        "isERC721": false,
                        "sign": true,
                        "value": "0.22964752509999998438"
                    }
                ]
            },
            {
                "account": "0x2f4b7dfb158181f7008cdd8d992eff4c41dfe6b8",
                "assets": [
                    {
                        "address": "0xc02aaa39b223fe8d0a0e5c4f27ead9083c756cc2",
                        "amount": "0.0099",
                        "iconUrl": "https://assets.blocksec.com/icon/f1cb2d02c471d545bbc7722daf3277fd852d98e63d118771af7047bd8256c516.png",
                        "isERC1155": false,
                        "isERC721": false,
                        "sign": true,
                        "value": "22.735104984899998454"
                    },
                    {
                        "address": "0x53409d32d24ae6f946b54bb2a0d14e9548a94b07",
                        "amount": "39,163,055,982,478,201,842,278",
                        "iconUrl": "",
                        "isERC1155": false,
                        "isERC721": false,
                        "sign": false,
                        "value": ""
                    }
                ]
            },
            {
                "account": "0x53409d32d24ae6f946b54bb2a0d14e9548a94b07",
                "assets": [
                    {
                        "address": "0x53409d32d24ae6f946b54bb2a0d14e9548a94b07",
                        "amount": "1,958,152,799,123,910,092,113",
                        "iconUrl": "",
                        "isERC1155": false,
                        "isERC721": false,
                        "sign": true,
                        "value": ""
                    }
                ]
            },
            {
                "account": "0xc02aaa39b223fe8d0a0e5c4f27ead9083c756cc2",
                "assets": [
                    {
                        "address": "0xeeeeeeeeeeeeeeeeeeeeeeeeeeeeeeeeeeeeeeee",
                        "amount": "0.0099",
                        "iconUrl": "https://assets.blocksec.com/image/1663669189317-3.png",
                        "isERC1155": false,
                        "isERC721": false,
                        "sign": true,
                        "value": "22.735104984899998454"
                    },
                    {
                        "address": "0xc02aaa39b223fe8d0a0e5c4f27ead9083c756cc2",
                        "amount": "0.0099",
                        "iconUrl": "https://assets.blocksec.com/icon/f1cb2d02c471d545bbc7722daf3277fd852d98e63d118771af7047bd8256c516.png",
                        "isERC1155": false,
                        "isERC721": false,
                        "sign": false,
                        "value": "22.735104984899998454"
                    }
                ]
            }
        ]
    },
    "profile": {
        "basic_info": {
            "baseFee": "18.486447152",
            "blockNumber": 19224572,
            "callData": "0x68cdab9c0000000000000000000000000000000000000000000000000000000065cc64ed0000000000000000000000000000000000000000000000000000000000000060000000000000000000000000000000000000000000000000000000000000030000000000000000000000000000000000000000000000000000000000000000030000000000000000000000000000000000000000000000000000000000000060000000000000000000000000000000000000000000000000000000000000010000000000000000000000000000000000000000000000000000000000000001600000000000000000000000000000000000000000000000000000000000000064bfa76f7e000000000000000000000000c02aaa39b223fe8d0a0e5c4f27ead9083c756cc200000000000000000000000000000000000000000000000000005af3107a400000000000000000000000000000000000000000000000000000000000000000030000000000000000000000000000000000000000000000000000000000000000000000000000000000000000000000000000000000000000000000241c58db4f00000000000000000000000000000000000000000000000000232bff5f46c0000000000000000000000000000000000000000000000000000000000000000000000000000000000000000000000000000000000000000000000000e4472b43f300000000000000000000000000000000000000000000000000000000000000000000000000000000000000000000000000000000000004e496fb91913a800000000000000000000000000000000000000000000000000000000000000000008000000000000000000000000092f7174e68edc9805ba75dc027c31853189bf72e0000000000000000000000000000000000000000000000000000000000000002000000000000000000000000c02aaa39b223fe8d0a0e5c4f27ead9083c756cc200000000000000000000000053409d32d24ae6f946b54bb2a0d14e9548a94b070000000000000000000000000000000000000000000000000000000000000000000000000000000000000000000000000000000000000000000000026e61000000000000000000000000000000000000000000000000000000000000",
            "debugEnable": true,
            "errorInfo": "",
            "eventCount": 6,
            "feeRecipient": "0x4838b106fce9647bdf1e7877bf73ce8b0bad5f97",
            "formatValue": "0.01",
            "gasLimit": 253102,
            "gasPrice": "24.076007776",
            "gasUsed": 169756,
            "intTxnCount": 15,
            "internalRevert": false,
            "internalRevertMessage": "",
            "isContractCreation": false,
            "isFlashloan": false,
            "maxFee": "24.076007776",
            "nonce": 5,
            "overwritedBlockNumber": -1,
            "priorityFee": "6.258855607",
            "receiver": "0x5c9321e92ba4eb43f2901c4952358e132163a85a",
            "revertMessage": "",
            "sender": "0x92f7174e68edc9805ba75dc027c31853189bf72e",
            "simulationEnable": true,
            "sourceTxnHash": "0x904ec8e468a0ef02d7650e82a6853bb039af8072503b46e32dcb347b01a83123",
            "status": true,
            "timestamp": "2024-02-14T06:58:35Z",
            "transactionFee": "0.004087046776022656",
            "txnHash": "0x904ec8e468a0ef02d7650e82a6853bb039af8072503b46e32dcb347b01a83123",
            "txnIndex": 8,
            "type": 2,
            "value": "10000000000000000"
        },
        "fund_flow": [
            {
                "amount": "0.01",
                "from": "0x92f7174e68edc9805ba75dc027c31853189bf72e",
                "id": 1,
                "isERC1155": false,
                "isERC721": false,
                "isReverted": false,
                "order": 1,
                "to": "0x5c9321e92ba4eb43f2901c4952358e132163a85a",
                "token": "0xeeeeeeeeeeeeeeeeeeeeeeeeeeeeeeeeeeeeeeee"
            },
            {
                "amount": "0.0001",
                "from": "0x5c9321e92ba4eb43f2901c4952358e132163a85a",
                "id": 2,
                "isERC1155": false,
                "isERC721": false,
                "isReverted": false,
                "order": 2,
                "to": "0x27b9c20f64920eb7fbf64491423a54df9594188c",
                "token": "0xeeeeeeeeeeeeeeeeeeeeeeeeeeeeeeeeeeeeeeee"
            },
            {
                "amount": "0.0099",
                "from": "0x5c9321e92ba4eb43f2901c4952358e132163a85a",
                "id": 3,
                "isERC1155": false,
                "isERC721": false,
                "isReverted": false,
                "order": 3,
                "to": "0xc02aaa39b223fe8d0a0e5c4f27ead9083c756cc2",
                "token": "0xeeeeeeeeeeeeeeeeeeeeeeeeeeeeeeeeeeeeeeee"
            },
            {
                "amount": "0.0099",
                "from": "0xc02aaa39b223fe8d0a0e5c4f27ead9083c756cc2",
                "id": 4,
                "isERC1155": false,
                "isERC721": false,
                "isReverted": false,
                "order": 4,
                "to": "0x5c9321e92ba4eb43f2901c4952358e132163a85a",
                "token": "0xc02aaa39b223fe8d0a0e5c4f27ead9083c756cc2"
            },
            {
                "amount": "0.0099",
                "from": "0x5c9321e92ba4eb43f2901c4952358e132163a85a",
                "id": 5,
                "isERC1155": false,
                "isERC721": false,
                "isReverted": false,
                "order": 5,
                "to": "0x2f4b7dfb158181f7008cdd8d992eff4c41dfe6b8",
                "token": "0xc02aaa39b223fe8d0a0e5c4f27ead9083c756cc2"
            },
            {
                "amount": "1,958,152,799,123,910,092,113",
                "from": "0x2f4b7dfb158181f7008cdd8d992eff4c41dfe6b8",
                "id": 6,
                "isERC1155": false,
                "isERC721": false,
                "isReverted": false,
                "order": 6,
                "to": "0x53409d32d24ae6f946b54bb2a0d14e9548a94b07",
                "token": "0x53409d32d24ae6f946b54bb2a0d14e9548a94b07"
            },
            {
                "amount": "37,204,903,183,354,291,750,165",
                "from": "0x2f4b7dfb158181f7008cdd8d992eff4c41dfe6b8",
                "id": 7,
                "isERC1155": false,
                "isERC721": false,
                "isReverted": false,
                "order": 7,
                "to": "0x92f7174e68edc9805ba75dc027c31853189bf72e",
                "token": "0x53409d32d24ae6f946b54bb2a0d14e9548a94b07"
            }
        ],
        "token_infos": [
            {
                "address": "0xc02aaa39b223fe8d0a0e5c4f27ead9083c756cc2",
                "decimals": 18
            },
            {
                "address": "0xeeeeeeeeeeeeeeeeeeeeeeeeeeeeeeeeeeeeeeee",
                "decimals": 18
            }
        ]
    },
    "address_label": {
        "labels": [
            {
                "address": "0x0000000000000000000000000000000000000002",
                "label": "Precompiled"
            },
            {
                "address": "0x0000000000000000000000000000000000000003",
                "label": "Precompiled"
            },
            {
                "address": "0x0000000000000000000000000000000000000004",
                "label": "Precompiled"
            },
            {
                "address": "0xeeeeeeeeeeeeeeeeeeeeeeeeeeeeeeeeeeeeeeee",
                "label": "Ether"
            },
            {
                "address": "0x2f4b7dfb158181f7008cdd8d992eff4c41dfe6b8",
                "label": "Uniswap V2: WASB 6"
            },
            {
                "address": "0xc02aaa39b223fe8d0a0e5c4f27ead9083c756cc2",
                "label": "Wrapped Ether (WETH)"
            },
            {
                "address": "0x53409d32d24ae6f946b54bb2a0d14e9548a94b07",
                "label": "WASB"
            },
            {
                "address": "0x0000000000000000000000000000000000000001",
                "label": "Precompiled"
            }
        ]
    },
    "trace": {
        "accountLabels": null,
        "dataMap": {
            "-1": {
                "invocation": {
                    "address": "0x92f7174e68edc9805ba75dc027c31853189bf72e",
                    "callData": "",
                    "decodedMethod": null,
                    "errorInfo": "",
                    "fromAddress": "",
                    "gasUsed": 0,
                    "id": -1,
                    "methodDecoded": false,
                    "operation": "",
                    "output": "",
                    "revert": false,
                    "revertMessage": "",
                    "selector": "",
                    "status": false,
                    "value": ""
                },
                "nodeType": 0
            },
            "0": {
                "invocation": {
                    "address": "0x5c9321e92ba4eb43f2901c4952358e132163a85a",
                    "callData": "0x0000000000000000000000000000000000000000000000000000000065cc64ed0000000000000000000000000000000000000000000000000000000000000060000000000000000000000000000000000000000000000000000000000000030000000000000000000000000000000000000000000000000000000000000000030000000000000000000000000000000000000000000000000000000000000060000000000000000000000000000000000000000000000000000000000000010000000000000000000000000000000000000000000000000000000000000001600000000000000000000000000000000000000000000000000000000000000064bfa76f7e000000000000000000000000c02aaa39b223fe8d0a0e5c4f27ead9083c756cc200000000000000000000000000000000000000000000000000005af3107a400000000000000000000000000000000000000000000000000000000000000000030000000000000000000000000000000000000000000000000000000000000000000000000000000000000000000000000000000000000000000000241c58db4f00000000000000000000000000000000000000000000000000232bff5f46c0000000000000000000000000000000000000000000000000000000000000000000000000000000000000000000000000000000000000000000000000e4472b43f300000000000000000000000000000000000000000000000000000000000000000000000000000000000000000000000000000000000004e496fb91913a800000000000000000000000000000000000000000000000000000000000000000008000000000000000000000000092f7174e68edc9805ba75dc027c31853189bf72e0000000000000000000000000000000000000000000000000000000000000002000000000000000000000000c02aaa39b223fe8d0a0e5c4f27ead9083c756cc200000000000000000000000053409d32d24ae6f946b54bb2a0d14e9548a94b070000000000000000000000000000000000000000000000000000000000000000000000000000000000000000000000000000000000000000000000026e61000000000000000000000000000000000000000000000000000000000000",
                    "decodedMethod": null,
                    "errorInfo": "",
                    "fromAddress": "0x92f7174e68edc9805ba75dc027c31853189bf72e",
                    "gasUsed": 169756,
                    "id": 0,
                    "methodDecoded": false,
                    "operation": "CALL",
                    "output": "0x000000000000000000000000000000000000000000000000000000000000002000000000000000000000000000000000000000000000000000000000000000030000000000000000000000000000000000000000000000000000000000000060000000000000000000000000000000000000000000000000000000000000008000000000000000000000000000000000000000000000000000000000000000a00000000000000000000000000000000000000000000000000000000000000000000000000000000000000000000000000000000000000000000000000000000000000000000000000000000000000000000000000000000000000000000000200000000000000000000000000000000000000000000007e0e1c0753c486b0515",
                    "revert": false,
                    "revertMessage": "",
                    "selector": "0x68cdab9c",
                    "status": true,
                    "value": "0.01"
                },
                "nodeType": 0
            },
            "1": {
                "invocation": {
                    "address": "0x5c9321e92ba4eb43f2901c4952358e132163a85a",
                    "callData": "0x000000000000000000000000c02aaa39b223fe8d0a0e5c4f27ead9083c756cc200000000000000000000000000000000000000000000000000005af3107a40000000000000000000000000000000000000000000000000000000000000000003",
                    "decodedMethod": null,
                    "errorInfo": "",
                    "fromAddress": "0x5c9321e92ba4eb43f2901c4952358e132163a85a",
                    "gasUsed": 12264,
                    "id": 1,
                    "methodDecoded": false,
                    "operation": "DELEGATECALL",
                    "output": "",
                    "revert": false,
                    "revertMessage": "",
                    "selector": "0xbfa76f7e",
                    "status": true,
                    "value": "0.01"
                },
                "nodeType": 0
            },
            "10": {
                "invocation": {
                    "address": "0x53409d32d24ae6f946b54bb2a0d14e9548a94b07",
                    "callData": "0x00000000000000000000000092f7174e68edc9805ba75dc027c31853189bf72e",
                    "decodedMethod": {
                        "callParams": [
                            {
                                "name": "account",
                                "type": "address",
                                "value": "0x92f7174e68edc9805ba75dc027c31853189bf72e"
                            }
                        ],
                        "constructorArguments": "",
                        "name": "balanceOf",
                        "returnParams": [
                            {
                                "decimalAvailable": true,
                                "name": "",
                                "type": "uint256",
                                "value": "0"
                            }
                        ],
                        "signature": "balanceOf(address)"
                    },
                    "errorInfo": "",
                    "fromAddress": "0x5c9321e92ba4eb43f2901c4952358e132163a85a",
                    "gasUsed": 2639,
                    "id": 10,
                    "methodDecoded": true,
                    "operation": "STATICCALL",
                    "output": "0x0000000000000000000000000000000000000000000000000000000000000000",
                    "revert": false,
                    "revertMessage": "",
                    "selector": "0x70a08231",
                    "status": true,
                    "value": "0"
                },
                "nodeType": 0
            },
            "11": {
                "invocation": {
                    "address": "0x2f4b7dfb158181f7008cdd8d992eff4c41dfe6b8",
                    "callData": "0x",
                    "decodedMethod": {
                        "callParams": [],
                        "constructorArguments": "",
                        "name": "getReserves",
                        "returnParams": [
                            {
                                "name": "_reserve0",
                                "type": "uint112",
                                "value": "6,322,954,812,873,925,887,654,246"
                            },
                            {
                                "name": "_reserve1",
                                "type": "uint112",
                                "value": "1,583,709,652,428,428,899"
                            },
                            {
                                "name": "_blockTimestampLast",
                                "type": "uint32",
                                "value": "1,707,893,807"
                            }
                        ],
                        "signature": "getReserves()"
                    },
                    "errorInfo": "",
                    "fromAddress": "0x5c9321e92ba4eb43f2901c4952358e132163a85a",
                    "gasUsed": 2504,
                    "id": 11,
                    "methodDecoded": true,
                    "operation": "STATICCALL",
                    "output": "0x000000000000000000000000000000000000000000053af011362278f59df96600000000000000000000000000000000000000000000000015fa7789bc5a96630000000000000000000000000000000000000000000000000000000065cc642f",
                    "revert": false,
                    "revertMessage": "",
                    "selector": "0x0902f1ac",
                    "status": true,
                    "value": "0"
                },
                "nodeType": 0
            },
            "12": {
                "invocation": {
                    "address": "0xc02aaa39b223fe8d0a0e5c4f27ead9083c756cc2",
                    "callData": "0x0000000000000000000000002f4b7dfb158181f7008cdd8d992eff4c41dfe6b8",
                    "decodedMethod": {
                        "callParams": [
                            {
                                "name": "",
                                "type": "address",
                                "value": "0x2f4b7dfb158181f7008cdd8d992eff4c41dfe6b8"
                            }
                        ],
                        "constructorArguments": "",
                        "name": "balanceOf",
                        "returnParams": [
                            {
                                "decimalAvailable": true,
                                "name": "",
                                "type": "uint256",
                                "value": "1,593,609,652,428,428,899"
                            }
                        ],
                        "signature": "balanceOf(address)"
                    },
                    "errorInfo": "",
                    "fromAddress": "0x5c9321e92ba4eb43f2901c4952358e132163a85a",
                    "gasUsed": 534,
                    "id": 12,
                    "methodDecoded": true,
                    "operation": "STATICCALL",
                    "output": "0x000000000000000000000000000000000000000000000000161da3891ba15663",
                    "revert": false,
                    "revertMessage": "",
                    "selector": "0x70a08231",
                    "status": true,
                    "value": "0"
                },
                "nodeType": 0
            },
            "13": {
                "invocation": {
                    "address": "0x2f4b7dfb158181f7008cdd8d992eff4c41dfe6b8",
                    "callData": "0x00000000000000000000000000000000000000000000084b0894b14cede9ea66000000000000000000000000000000000000000000000000000000000000000000000000000000000000000092f7174e68edc9805ba75dc027c31853189bf72e00000000000000000000000000000000000000000000000000000000000000800000000000000000000000000000000000000000000000000000000000000000",
                    "decodedMethod": {
                        "callParams": [
                            {
                                "name": "amount0Out",
                                "type": "uint256",
                                "value": "39,163,055,982,478,201,842,278"
                            },
                            {
                                "name": "amount1Out",
                                "type": "uint256",
                                "value": "0"
                            },
                            {
                                "name": "to",
                                "type": "address",
                                "value": "0x92f7174e68edc9805ba75dc027c31853189bf72e"
                            },
                            {
                                "name": "data",
                                "type": "bytes",
                                "value": "0x"
                            }
                        ],
                        "constructorArguments": "",
                        "name": "swap",
                        "returnParams": [],
                        "signature": "swap(uint256,uint256,address,bytes)"
                    },
                    "errorInfo": "",
                    "fromAddress": "0x5c9321e92ba4eb43f2901c4952358e132163a85a",
                    "gasUsed": 84115,
                    "id": 13,
                    "methodDecoded": true,
                    "operation": "CALL",
                    "output": "",
                    "revert": false,
                    "revertMessage": "",
                    "selector": "0x022c0d9f",
                    "status": true,
                    "value": "0"
                },
                "nodeType": 0
            },
            "14": {
                "invocation": {
                    "address": "0x53409d32d24ae6f946b54bb2a0d14e9548a94b07",
                    "callData": "0x00000000000000000000000092f7174e68edc9805ba75dc027c31853189bf72e00000000000000000000000000000000000000000000084b0894b14cede9ea66",
                    "decodedMethod": {
                        "callParams": [
                            {
                                "name": "recipient",
                                "type": "address",
                                "value": "0x92f7174e68edc9805ba75dc027c31853189bf72e"
                            },
                            {
                                "decimalAvailable": true,
                                "name": "amount",
                                "type": "uint256",
                                "value": "39,163,055,982,478,201,842,278"
                            }
                        ],
                        "constructorArguments": "",
                        "name": "transfer",
                        "returnParams": [
                            {
                                "name": "",
                                "type": "bool",
                                "value": true
                            }
                        ],
                        "signature": "transfer(address,uint256)"
                    },
                    "errorInfo": "",
                    "fromAddress": "0x2f4b7dfb158181f7008cdd8d992eff4c41dfe6b8",
                    "gasUsed": 51619,
                    "id": 14,
                    "methodDecoded": true,
                    "operation": "CALL",
                    "output": "0x0000000000000000000000000000000000000000000000000000000000000001",
                    "revert": false,
                    "revertMessage": "",
                    "selector": "0xa9059cbb",
                    "status": true,
                    "value": "0"
                },
                "nodeType": 0
            },
            "15": {
                "event": {
                    "contract": "0x53409d32d24ae6f946b54bb2a0d14e9548a94b07",
                    "decodedLog": {
                        "name": "Transfer",
                        "params": [
                            {
                                "name": "from",
                                "type": "address",
                                "value": "0x2f4b7dfb158181f7008cdd8d992eff4c41dfe6b8"
                            },
                            {
                                "name": "to",
                                "type": "address",
                                "value": "0x53409d32d24ae6f946b54bb2a0d14e9548a94b07"
                            },
                            {
                                "decimalAvailable": true,
                                "name": "value",
                                "type": "uint256",
                                "value": "1,958,152,799,123,910,092,113"
                            }
                        ],
                        "signature": "Transfer(address,address,uint256)"
                    },
                    "id": 15,
                    "logData": "0x00000000000000000000000000000000000000000000006a26d43c10a57ee551",
                    "logDecoded": true,
                    "operation": "EVENT",
                    "revert": false,
                    "status": true,
                    "topics": [
                        "0xddf252ad1be2c89b69c2b068fc378daa952ba7f163c4a11628f55a4df523b3ef",
                        "0x0000000000000000000000002f4b7dfb158181f7008cdd8d992eff4c41dfe6b8",
                        "0x00000000000000000000000053409d32d24ae6f946b54bb2a0d14e9548a94b07"
                    ]
                },
                "nodeType": 1
            },
            "16": {
                "event": {
                    "contract": "0x53409d32d24ae6f946b54bb2a0d14e9548a94b07",
                    "decodedLog": {
                        "name": "Transfer",
                        "params": [
                            {
                                "name": "from",
                                "type": "address",
                                "value": "0x2f4b7dfb158181f7008cdd8d992eff4c41dfe6b8"
                            },
                            {
                                "name": "to",
                                "type": "address",
                                "value": "0x92f7174e68edc9805ba75dc027c31853189bf72e"
                            },
                            {
                                "decimalAvailable": true,
                                "name": "value",
                                "type": "uint256",
                                "value": "37,204,903,183,354,291,750,165"
                            }
                        ],
                        "signature": "Transfer(address,address,uint256)"
                    },
                    "id": 16,
                    "logData": "0x0000000000000000000000000000000000000000000007e0e1c0753c486b0515",
                    "logDecoded": true,
                    "operation": "EVENT",
                    "revert": false,
                    "status": true,
                    "topics": [
                        "0xddf252ad1be2c89b69c2b068fc378daa952ba7f163c4a11628f55a4df523b3ef",
                        "0x0000000000000000000000002f4b7dfb158181f7008cdd8d992eff4c41dfe6b8",
                        "0x00000000000000000000000092f7174e68edc9805ba75dc027c31853189bf72e"
                    ]
                },
                "nodeType": 1
            },
            "17": {
                "invocation": {
                    "address": "0x53409d32d24ae6f946b54bb2a0d14e9548a94b07",
                    "callData": "0x0000000000000000000000002f4b7dfb158181f7008cdd8d992eff4c41dfe6b8",
                    "decodedMethod": {
                        "callParams": [
                            {
                                "name": "account",
                                "type": "address",
                                "value": "0x2f4b7dfb158181f7008cdd8d992eff4c41dfe6b8"
                            }
                        ],
                        "constructorArguments": "",
                        "name": "balanceOf",
                        "returnParams": [
                            {
                                "decimalAvailable": true,
                                "name": "",
                                "type": "uint256",
                                "value": "6,283,791,756,891,447,685,811,968"
                            }
                        ],
                        "signature": "balanceOf(address)"
                    },
                    "errorInfo": "",
                    "fromAddress": "0x2f4b7dfb158181f7008cdd8d992eff4c41dfe6b8",
                    "gasUsed": 639,
                    "id": 17,
                    "methodDecoded": true,
                    "operation": "STATICCALL",
                    "output": "0x0000000000000000000000000000000000000000000532a508a1712c07b40f00",
                    "revert": false,
                    "revertMessage": "",
                    "selector": "0x70a08231",
                    "status": true,
                    "value": "0"
                },
                "nodeType": 0
            },
            "18": {
                "invocation": {
                    "address": "0xc02aaa39b223fe8d0a0e5c4f27ead9083c756cc2",
                    "callData": "0x0000000000000000000000002f4b7dfb158181f7008cdd8d992eff4c41dfe6b8",
                    "decodedMethod": {
                        "callParams": [
                            {
                                "name": "",
                                "type": "address",
                                "value": "0x2f4b7dfb158181f7008cdd8d992eff4c41dfe6b8"
                            }
                        ],
                        "constructorArguments": "",
                        "name": "balanceOf",
                        "returnParams": [
                            {
                                "decimalAvailable": true,
                                "name": "",
                                "type": "uint256",
                                "value": "1,593,609,652,428,428,899"
                            }
                        ],
                        "signature": "balanceOf(address)"
                    },
                    "errorInfo": "",
                    "fromAddress": "0x2f4b7dfb158181f7008cdd8d992eff4c41dfe6b8",
                    "gasUsed": 534,
                    "id": 18,
                    "methodDecoded": true,
                    "operation": "STATICCALL",
                    "output": "0x000000000000000000000000000000000000000000000000161da3891ba15663",
                    "revert": false,
                    "revertMessage": "",
                    "selector": "0x70a08231",
                    "status": true,
                    "value": "0"
                },
                "nodeType": 0
            },
            "19": {
                "event": {
                    "contract": "0x2f4b7dfb158181f7008cdd8d992eff4c41dfe6b8",
                    "decodedLog": {
                        "name": "Sync",
                        "params": [
                            {
                                "name": "reserve0",
                                "type": "uint112",
                                "value": "6,283,791,756,891,447,685,811,968"
                            },
                            {
                                "name": "reserve1",
                                "type": "uint112",
                                "value": "1,593,609,652,428,428,899"
                            }
                        ],
                        "signature": "Sync(uint112,uint112)"
                    },
                    "id": 19,
                    "logData": "0x0000000000000000000000000000000000000000000532a508a1712c07b40f00000000000000000000000000000000000000000000000000161da3891ba15663",
                    "logDecoded": true,
                    "operation": "EVENT",
                    "revert": false,
                    "status": true,
                    "topics": [
                        "0x1c411e9a96e071241c2f21f7726b17ae89e3cab4c78be50e062b03a9fffbbad1"
                    ]
                },
                "nodeType": 1
            },
            "2": {
                "invocation": {
                    "address": "0x27b9c20f64920eb7fbf64491423a54df9594188c",
                    "callData": "0x",
                    "decodedMethod": null,
                    "errorInfo": "",
                    "fromAddress": "0x5c9321e92ba4eb43f2901c4952358e132163a85a",
                    "gasUsed": 0,
                    "id": 2,
                    "methodDecoded": false,
                    "operation": "CALL",
                    "output": "",
                    "revert": false,
                    "revertMessage": "",
                    "selector": "fallback",
                    "status": true,
                    "value": "0.0001"
                },
                "nodeType": 0
            },
            "20": {
                "event": {
                    "contract": "0x2f4b7dfb158181f7008cdd8d992eff4c41dfe6b8",
                    "decodedLog": {
                        "name": "Swap",
                        "params": [
                            {
                                "name": "sender",
                                "type": "address",
                                "value": "0x5c9321e92ba4eb43f2901c4952358e132163a85a"
                            },
                            {
                                "name": "to",
                                "type": "address",
                                "value": "0x92f7174e68edc9805ba75dc027c31853189bf72e"
                            },
                            {
                                "name": "amount0In",
                                "type": "uint256",
                                "value": "0"
                            },
                            {
                                "name": "amount1In",
                                "type": "uint256",
                                "value": "9,900,000,000,000,000"
                            },
                            {
                                "name": "amount0Out",
                                "type": "uint256",
                                "value": "39,163,055,982,478,201,842,278"
                            },
                            {
                                "name": "amount1Out",
                                "type": "uint256",
                                "value": "0"
                            }
                        ],
                        "signature": "Swap(address,uint256,uint256,uint256,uint256,address)"
                    },
                    "id": 20,
                    "logData": "0x000000000000000000000000000000000000000000000000000000000000000000000000000000000000000000000000000000000000000000232bff5f46c00000000000000000000000000000000000000000000000084b0894b14cede9ea660000000000000000000000000000000000000000000000000000000000000000",
                    "logDecoded": true,
                    "operation": "EVENT",
                    "revert": false,
                    "status": true,
                    "topics": [
                        "0xd78ad95fa46c994b6551d0da85fc275fe613ce37657fb8d5e3d130840159d822",
                        "0x0000000000000000000000005c9321e92ba4eb43f2901c4952358e132163a85a",
                        "0x00000000000000000000000092f7174e68edc9805ba75dc027c31853189bf72e"
                    ]
                },
                "nodeType": 1
            },
            "21": {
                "invocation": {
                    "address": "0x53409d32d24ae6f946b54bb2a0d14e9548a94b07",
                    "callData": "0x00000000000000000000000092f7174e68edc9805ba75dc027c31853189bf72e",
                    "decodedMethod": {
                        "callParams": [
                            {
                                "name": "account",
                                "type": "address",
                                "value": "0x92f7174e68edc9805ba75dc027c31853189bf72e"
                            }
                        ],
                        "constructorArguments": "",
                        "name": "balanceOf",
                        "returnParams": [
                            {
                                "decimalAvailable": true,
                                "name": "",
                                "type": "uint256",
                                "value": "37,204,903,183,354,291,750,165"
                            }
                        ],
                        "signature": "balanceOf(address)"
                    },
                    "errorInfo": "",
                    "fromAddress": "0x5c9321e92ba4eb43f2901c4952358e132163a85a",
                    "gasUsed": 639,
                    "id": 21,
                    "methodDecoded": true,
                    "operation": "STATICCALL",
                    "output": "0x0000000000000000000000000000000000000000000007e0e1c0753c486b0515",
                    "revert": false,
                    "revertMessage": "",
                    "selector": "0x70a08231",
                    "status": true,
                    "value": "0"
                },
                "nodeType": 0
            },
            "3": {
                "invocation": {
                    "address": "0x5c9321e92ba4eb43f2901c4952358e132163a85a",
                    "callData": "0x00000000000000000000000000000000000000000000000000232bff5f46c000",
                    "decodedMethod": {
                        "callParams": [
                            {
                                "name": "value",
                                "type": "uint256",
                                "value": "9,900,000,000,000,000"
                            }
                        ],
                        "constructorArguments": "",
                        "name": "wrapETH",
                        "returnParams": [],
                        "signature": "wrapETH(uint256)"
                    },
                    "errorInfo": "",
                    "fromAddress": "0x5c9321e92ba4eb43f2901c4952358e132163a85a",
                    "gasUsed": 33785,
                    "id": 3,
                    "methodDecoded": true,
                    "operation": "DELEGATECALL",
                    "output": "",
                    "revert": false,
                    "revertMessage": "",
                    "selector": "0x1c58db4f",
                    "status": true,
                    "value": "0.01"
                },
                "nodeType": 0
            },
            "4": {
                "invocation": {
                    "address": "0xc02aaa39b223fe8d0a0e5c4f27ead9083c756cc2",
                    "callData": "0x",
                    "decodedMethod": {
                        "callParams": [],
                        "constructorArguments": "",
                        "name": "deposit",
                        "returnParams": [],
                        "signature": "deposit()"
                    },
                    "errorInfo": "",
                    "fromAddress": "0x5c9321e92ba4eb43f2901c4952358e132163a85a",
                    "gasUsed": 23974,
                    "id": 4,
                    "methodDecoded": true,
                    "operation": "CALL",
                    "output": "",
                    "revert": false,
                    "revertMessage": "",
                    "selector": "0xd0e30db0",
                    "status": true,
                    "value": "0.0099"
                },
                "nodeType": 0
            },
            "5": {
                "event": {
                    "contract": "0xc02aaa39b223fe8d0a0e5c4f27ead9083c756cc2",
                    "decodedLog": {
                        "name": "Deposit",
                        "params": [
                            {
                                "name": "dst",
                                "type": "address",
                                "value": "0x5c9321e92ba4eb43f2901c4952358e132163a85a"
                            },
                            {
                                "name": "wad",
                                "type": "uint256",
                                "value": "9,900,000,000,000,000"
                            }
                        ],
                        "signature": "Deposit(address,uint256)"
                    },
                    "id": 5,
                    "logData": "0x00000000000000000000000000000000000000000000000000232bff5f46c000",
                    "logDecoded": true,
                    "operation": "EVENT",
                    "revert": false,
                    "status": true,
                    "topics": [
                        "0xe1fffcc4923d04b559f4d29a8bfc6cda04eb5b0d3c460751c2402c5c5cc9109c",
                        "0x0000000000000000000000005c9321e92ba4eb43f2901c4952358e132163a85a"
                    ]
                },
                "nodeType": 1
            },
            "6": {
                "invocation": {
                    "address": "0x5c9321e92ba4eb43f2901c4952358e132163a85a",
                    "callData": "0x00000000000000000000000000000000000000000000000000000000000000000000000000000000000000000000000000000000000004e496fb91913a800000000000000000000000000000000000000000000000000000000000000000008000000000000000000000000092f7174e68edc9805ba75dc027c31853189bf72e0000000000000000000000000000000000000000000000000000000000000002000000000000000000000000c02aaa39b223fe8d0a0e5c4f27ead9083c756cc200000000000000000000000053409d32d24ae6f946b54bb2a0d14e9548a94b07",
                    "decodedMethod": {
                        "callParams": [
                            {
                                "name": "amountIn",
                                "type": "uint256",
                                "value": "0"
                            },
                            {
                                "name": "amountOutMin",
                                "type": "uint256",
                                "value": "23,106,203,029,662,139,940,864"
                            },
                            {
                                "name": "path",
                                "type": "address[]",
                                "value": [
                                    "0xc02aaa39b223fe8d0a0e5c4f27ead9083c756cc2",
                                    "0x53409d32d24ae6f946b54bb2a0d14e9548a94b07"
                                ]
                            },
                            {
                                "name": "to",
                                "type": "address",
                                "value": "0x92f7174e68edc9805ba75dc027c31853189bf72e"
                            }
                        ],
                        "constructorArguments": "",
                        "name": "swapExactTokensForTokens",
                        "returnParams": [
                            {
                                "name": "amountOut",
                                "type": "uint256",
                                "value": "37,204,903,183,354,291,750,165"
                            }
                        ],
                        "signature": "swapExactTokensForTokens(uint256,uint256,address[],address)"
                    },
                    "errorInfo": "",
                    "fromAddress": "0x5c9321e92ba4eb43f2901c4952358e132163a85a",
                    "gasUsed": 113992,
                    "id": 6,
                    "methodDecoded": true,
                    "operation": "DELEGATECALL",
                    "output": "0x0000000000000000000000000000000000000000000007e0e1c0753c486b0515",
                    "revert": false,
                    "revertMessage": "",
                    "selector": "0x472b43f3",
                    "status": true,
                    "value": "0.01"
                },
                "nodeType": 0
            },
            "7": {
                "invocation": {
                    "address": "0xc02aaa39b223fe8d0a0e5c4f27ead9083c756cc2",
                    "callData": "0x0000000000000000000000005c9321e92ba4eb43f2901c4952358e132163a85a",
                    "decodedMethod": {
                        "callParams": [
                            {
                                "name": "",
                                "type": "address",
                                "value": "0x5c9321e92ba4eb43f2901c4952358e132163a85a"
                            }
                        ],
                        "constructorArguments": "",
                        "name": "balanceOf",
                        "returnParams": [
                            {
                                "decimalAvailable": true,
                                "name": "",
                                "type": "uint256",
                                "value": "9,900,000,000,000,000"
                            }
                        ],
                        "signature": "balanceOf(address)"
                    },
                    "errorInfo": "",
                    "fromAddress": "0x5c9321e92ba4eb43f2901c4952358e132163a85a",
                    "gasUsed": 534,
                    "id": 7,
                    "methodDecoded": true,
                    "operation": "STATICCALL",
                    "output": "0x00000000000000000000000000000000000000000000000000232bff5f46c000",
                    "revert": false,
                    "revertMessage": "",
                    "selector": "0x70a08231",
                    "status": true,
                    "value": "0"
                },
                "nodeType": 0
            },
            "8": {
                "invocation": {
                    "address": "0xc02aaa39b223fe8d0a0e5c4f27ead9083c756cc2",
                    "callData": "0x0000000000000000000000002f4b7dfb158181f7008cdd8d992eff4c41dfe6b800000000000000000000000000000000000000000000000000232bff5f46c000",
                    "decodedMethod": {
                        "callParams": [
                            {
                                "name": "dst",
                                "type": "address",
                                "value": "0x2f4b7dfb158181f7008cdd8d992eff4c41dfe6b8"
                            },
                            {
                                "decimalAvailable": true,
                                "name": "wad",
                                "type": "uint256",
                                "value": "9,900,000,000,000,000"
                            }
                        ],
                        "constructorArguments": "",
                        "name": "transfer",
                        "returnParams": [
                            {
                                "name": "",
                                "type": "bool",
                                "value": true
                            }
                        ],
                        "signature": "transfer(address,uint256)"
                    },
                    "errorInfo": "",
                    "fromAddress": "0x5c9321e92ba4eb43f2901c4952358e132163a85a",
                    "gasUsed": 8062,
                    "id": 8,
                    "methodDecoded": true,
                    "operation": "CALL",
                    "output": "0x0000000000000000000000000000000000000000000000000000000000000001",
                    "revert": false,
                    "revertMessage": "",
                    "selector": "0xa9059cbb",
                    "status": true,
                    "value": "0"
                },
                "nodeType": 0
            },
            "9": {
                "event": {
                    "contract": "0xc02aaa39b223fe8d0a0e5c4f27ead9083c756cc2",
                    "decodedLog": {
                        "name": "Transfer",
                        "params": [
                            {
                                "name": "src",
                                "type": "address",
                                "value": "0x5c9321e92ba4eb43f2901c4952358e132163a85a"
                            },
                            {
                                "name": "dst",
                                "type": "address",
                                "value": "0x2f4b7dfb158181f7008cdd8d992eff4c41dfe6b8"
                            },
                            {
                                "decimalAvailable": true,
                                "name": "wad",
                                "type": "uint256",
                                "value": "9,900,000,000,000,000"
                            }
                        ],
                        "signature": "Transfer(address,address,uint256)"
                    },
                    "id": 9,
                    "logData": "0x00000000000000000000000000000000000000000000000000232bff5f46c000",
                    "logDecoded": true,
                    "operation": "EVENT",
                    "revert": false,
                    "status": true,
                    "topics": [
                        "0xddf252ad1be2c89b69c2b068fc378daa952ba7f163c4a11628f55a4df523b3ef",
                        "0x0000000000000000000000005c9321e92ba4eb43f2901c4952358e132163a85a",
                        "0x0000000000000000000000002f4b7dfb158181f7008cdd8d992eff4c41dfe6b8"
                    ]
                },
                "nodeType": 1
            }
        },
        "gasFlame": [
            {
                "children": [
                    {
                        "children": [
                            {
                                "children": [],
                                "depth": 0,
                                "name": "Initial Gas",
                                "value": 25964
                            },
                            {
                                "children": [
                                    {
                                        "children": [
                                            {
                                                "children": [],
                                                "depth": 2,
                                                "name": "fallback",
                                                "value": 0
                                            }
                                        ],
                                        "depth": 1,
                                        "name": "0xbfa76f7e",
                                        "value": 12264
                                    },
                                    {
                                        "children": [
                                            {
                                                "children": [],
                                                "depth": 2,
                                                "name": "deposit",
                                                "value": 23974
                                            }
                                        ],
                                        "depth": 1,
                                        "name": "wrapETH",
                                        "value": 33785
                                    },
                                    {
                                        "children": [
                                            {
                                                "children": [],
                                                "depth": 2,
                                                "name": "balanceOf",
                                                "value": 534
                                            },
                                            {
                                                "children": [],
                                                "depth": 2,
                                                "name": "transfer",
                                                "value": 8062
                                            },
                                            {
                                                "children": [],
                                                "depth": 2,
                                                "name": "balanceOf",
                                                "value": 2639
                                            },
                                            {
                                                "children": [],
                                                "depth": 2,
                                                "name": "getReserves",
                                                "value": 2504
                                            },
                                            {
                                                "children": [],
                                                "depth": 2,
                                                "name": "balanceOf",
                                                "value": 534
                                            },
                                            {
                                                "children": [
                                                    {
                                                        "children": [],
                                                        "depth": 3,
                                                        "name": "transfer",
                                                        "value": 51619
                                                    },
                                                    {
                                                        "children": [],
                                                        "depth": 3,
                                                        "name": "balanceOf",
                                                        "value": 639
                                                    },
                                                    {
                                                        "children": [],
                                                        "depth": 3,
                                                        "name": "balanceOf",
                                                        "value": 534
                                                    }
                                                ],
                                                "depth": 2,
                                                "name": "swap",
                                                "value": 84115
                                            },
                                            {
                                                "children": [],
                                                "depth": 2,
                                                "name": "balanceOf",
                                                "value": 639
                                            }
                                        ],
                                        "depth": 1,
                                        "name": "swapExactTokensForTokens",
                                        "value": 113992
                                    }
                                ],
                                "depth": 0,
                                "name": "Executed Gas",
                                "value": 166492
                            }
                        ],
                        "depth": -1,
                        "name": "Actual Gas Used",
                        "value": 169756
                    },
                    {
                        "children": [],
                        "depth": -1,
                        "name": "Refunded Gas",
                        "value": 22700
                    }
                ],
                "depth": -2,
                "name": "Total Gas",
                "value": 192456
            }
        ],
        "isConfirmed": true,
        "mainTrace": [
            {
                "children": [
                    {
                        "children": [
                            {
                                "children": [
                                    {
                                        "children": [],
                                        "depth": 2,
                                        "id": 2,
                                        "order": 2
                                    }
                                ],
                                "depth": 1,
                                "id": 1,
                                "order": 1
                            },
                            {
                                "children": [
                                    {
                                        "children": [
                                            {
                                                "children": [],
                                                "depth": 3,
                                                "id": 5,
                                                "order": 5
                                            }
                                        ],
                                        "depth": 2,
                                        "id": 4,
                                        "order": 4
                                    }
                                ],
                                "depth": 1,
                                "id": 3,
                                "order": 3
                            },
                            {
                                "children": [
                                    {
                                        "children": [],
                                        "depth": 2,
                                        "id": 7,
                                        "order": 7
                                    },
                                    {
                                        "children": [
                                            {
                                                "children": [],
                                                "depth": 3,
                                                "id": 9,
                                                "order": 9
                                            }
                                        ],
                                        "depth": 2,
                                        "id": 8,
                                        "order": 8
                                    },
                                    {
                                        "children": [],
                                        "depth": 2,
                                        "id": 10,
                                        "order": 10
                                    },
                                    {
                                        "children": [],
                                        "depth": 2,
                                        "id": 11,
                                        "order": 11
                                    },
                                    {
                                        "children": [],
                                        "depth": 2,
                                        "id": 12,
                                        "order": 12
                                    },
                                    {
                                        "children": [
                                            {
                                                "children": [
                                                    {
                                                        "children": [],
                                                        "depth": 4,
                                                        "id": 15,
                                                        "order": 15
                                                    },
                                                    {
                                                        "children": [],
                                                        "depth": 4,
                                                        "id": 16,
                                                        "order": 16
                                                    }
                                                ],
                                                "depth": 3,
                                                "id": 14,
                                                "order": 14
                                            },
                                            {
                                                "children": [],
                                                "depth": 3,
                                                "id": 17,
                                                "order": 17
                                            },
                                            {
                                                "children": [],
                                                "depth": 3,
                                                "id": 18,
                                                "order": 18
                                            },
                                            {
                                                "children": [],
                                                "depth": 3,
                                                "id": 19,
                                                "order": 19
                                            },
                                            {
                                                "children": [],
                                                "depth": 3,
                                                "id": 20,
                                                "order": 20
                                            }
                                        ],
                                        "depth": 2,
                                        "id": 13,
                                        "order": 13
                                    },
                                    {
                                        "children": [],
                                        "depth": 2,
                                        "id": 21,
                                        "order": 21
                                    }
                                ],
                                "depth": 1,
                                "id": 6,
                                "order": 6
                            }
                        ],
                        "depth": 0,
                        "id": 0,
                        "order": 0
                    }
                ],
                "depth": -1,
                "id": -1,
                "order": -1
            }
        ],
        "mainTraceNodeCount": 22,
        "parentIdMap": {
            "0": -1,
            "1": 0,
            "10": 6,
            "11": 6,
            "12": 6,
            "13": 6,
            "14": 13,
            "15": 14,
            "16": 14,
            "17": 13,
            "18": 13,
            "19": 13,
            "2": 1,
            "20": 13,
            "21": 6,
            "3": 0,
            "4": 3,
            "5": 4,
            "6": 0,
            "7": 6,
            "8": 6,
            "9": 8
        },
        "tidyTrace": [
            {
                "children": [
                    {
                        "children": [
                            {
                                "children": [
                                    {
                                        "children": [],
                                        "depth": 2,
                                        "id": 2,
                                        "order": 2
                                    }
                                ],
                                "depth": 1,
                                "id": 1,
                                "order": 1
                            },
                            {
                                "children": [
                                    {
                                        "children": [
                                            {
                                                "children": [],
                                                "depth": 3,
                                                "id": 5,
                                                "order": 5
                                            }
                                        ],
                                        "depth": 2,
                                        "id": 4,
                                        "order": 4
                                    }
                                ],
                                "depth": 1,
                                "id": 3,
                                "order": 3
                            },
                            {
                                "children": [
                                    {
                                        "children": [
                                            {
                                                "children": [],
                                                "depth": 3,
                                                "id": 9,
                                                "order": 9
                                            }
                                        ],
                                        "depth": 2,
                                        "id": 8,
                                        "order": 8
                                    },
                                    {
                                        "children": [
                                            {
                                                "children": [
                                                    {
                                                        "children": [],
                                                        "depth": 4,
                                                        "id": 15,
                                                        "order": 15
                                                    },
                                                    {
                                                        "children": [],
                                                        "depth": 4,
                                                        "id": 16,
                                                        "order": 16
                                                    }
                                                ],
                                                "depth": 3,
                                                "id": 14,
                                                "order": 14
                                            },
                                            {
                                                "children": [],
                                                "depth": 3,
                                                "id": 19,
                                                "order": 19
                                            },
                                            {
                                                "children": [],
                                                "depth": 3,
                                                "id": 20,
                                                "order": 20
                                            }
                                        ],
                                        "depth": 2,
                                        "id": 13,
                                        "order": 13
                                    }
                                ],
                                "depth": 1,
                                "id": 6,
                                "order": 6
                            }
                        ],
                        "depth": 0,
                        "id": 0,
                        "order": 0
                    }
                ],
                "depth": -1,
                "id": -1,
                "order": -1
            }
        ],
        "tidyTraceNodeCount": 15
    },
    "state_change": {
        "stateChanges": [
            {
                "address": "0x2f4b7dfb158181f7008cdd8d992eff4c41dfe6b8",
                "erc": "ERC-20",
                "slots": [
                    {
                        "current": "0x00000000000000000000000000007d780ada16479f5d57083cbd3be3304ea894",
                        "key": "0x000000000000000000000000000000000000000000000000000000000000000a",
                        "prev": "0x000000000000000000000000000063c49c8182a5bb82c4454f4aad3f3e30f000"
                    },
                    {
                        "current": "0x65cc649b000000000000161da3891ba156630000000532a508a1712c07b40f00",
                        "key": "0x0000000000000000000000000000000000000000000000000000000000000008",
                        "prev": "0x65cc642f00000000000015fa7789bc5a9663000000053af011362278f59df966"
                    },
                    {
                        "current": "0x000000000000000000000000000000000000000671c3bd13df8c250150d4bc7c",
                        "key": "0x0000000000000000000000000000000000000000000000000000000000000009",
                        "prev": "0x0000000000000000000000000000000000000004abedabaf3d369ce03699fe80"
                    }
                ],
                "storageVariables": [
                    {
                        "name": "reserve0",
                        "type": "uint112",
                        "value": {
                            "current": "6283791756891447685811968",
                            "prev": "6322954812873925887654246",
                            "typeTag": 1
                        }
                    },
                    {
                        "name": "reserve1",
                        "type": "uint112",
                        "value": {
                            "current": "1593609652428428899",
                            "prev": "1583709652428428899",
                            "typeTag": 1
                        }
                    },
                    {
                        "name": "blockTimestampLast",
                        "type": "uint32",
                        "value": {
                            "current": "1707893915",
                            "prev": "1707893807",
                            "typeTag": 1
                        }
                    },
                    {
                        "name": "price0CumulativeLast",
                        "type": "uint256",
                        "value": {
                            "current": "510577414624084561434437270652",
                            "prev": "370121912913015693220880449152",
                            "typeTag": 1
                        }
                    },
                    {
                        "name": "price1CumulativeLast",
                        "type": "uint256",
                        "value": {
                            "current": "10929884050153103987971254618432127800092820",
                            "prev": "8691019683184249481797150829941612820361216",
                            "typeTag": 1
                        }
                    }
                ]
            },
            {
                "address": "0x53409d32d24ae6f946b54bb2a0d14e9548a94b07",
                "erc": "ERC-20",
                "slots": [
                    {
                        "current": "0x0000000000000000000000000000000000000000000007e0e1c0753c486b0515",
                        "key": "0xc29c52a548cca892547de7d67c6f3a3b277d5296dd4c4a57dcace388eb63232b",
                        "prev": "0x0000000000000000000000000000000000000000000000000000000000000000"
                    },
                    {
                        "current": "0x00000000000000000000000000000000000000000000999521036b812f7f41b4",
                        "key": "0xd761624b2ba484b92d65f2d9efda4ac2f0a81e4abb269cb3531f4cdcb797d931",
                        "prev": "0x00000000000000000000000000000000000000000000992afa2f2f708a005c63"
                    },
                    {
                        "current": "0x0000000000000000000000000000000000000000000532a508a1712c07b40f00",
                        "key": "0x1b854631781fb97e5388f68e83666bf834e313f0ce37e8a90e2e93074b164314",
                        "prev": "0x000000000000000000000000000000000000000000053af011362278f59df966"
                    }
                ],
                "storageVariables": [
                    {
                        "name": "_balances",
                        "type": "mapping(address => uint256)",
                        "value": {
                            "pairs": [
                                {
                                    "key": "0x2f4b7dfb158181f7008cdd8d992eff4c41dfe6b8",
                                    "value": {
                                        "current": "6283791756891447685811968",
                                        "prev": "6322954812873925887654246",
                                        "typeTag": 1
                                    }
                                },
                                {
                                    "key": "0x53409d32d24ae6f946b54bb2a0d14e9548a94b07",
                                    "value": {
                                        "current": "725273015609269214462388",
                                        "prev": "723314862810145304370275",
                                        "typeTag": 1
                                    }
                                },
                                {
                                    "key": "0x92f7174e68edc9805ba75dc027c31853189bf72e",
                                    "value": {
                                        "current": "37204903183354291750165",
                                        "prev": "0",
                                        "typeTag": 1
                                    }
                                }
                            ],
                            "typeTag": 4
                        }
                    }
                ]
            },
            {
                "address": "0xc02aaa39b223fe8d0a0e5c4f27ead9083c756cc2",
                "erc": "ERC-20",
                "slots": [
                    {
                        "current": "0x000000000000000000000000000000000000000000000000161da3891ba15663",
                        "key": "0xb9c5df04727f18353aa166c95a37d0eeb04487a4dca32972d2da7f7dccee9c55",
                        "prev": "0x00000000000000000000000000000000000000000000000015fa7789bc5a9663"
                    }
                ],
                "storageVariables": [
                    {
                        "name": "balanceOf",
                        "type": "mapping(address => uint256)",
                        "value": {
                            "pairs": [
                                {
                                    "key": "0x2f4b7dfb158181f7008cdd8d992eff4c41dfe6b8",
                                    "value": {
                                        "current": "1593609652428428899",
                                        "prev": "1583709652428428899",
                                        "typeTag": 1
                                    }
                                }
                            ],
                            "typeTag": 4
                        }
                    }
                ]
            }
        ]
    }
}