{
    "balance_change": {
        "balanceChanges": [
            {
                "account": "0x836935fb6734be964ac28d1d6eefb0f1314ddce4",
                "assets": [
                    {
                        "address": "0xa1b19bcd50a24be0cb399c1ec0f7ca546b94a2b0",
                        "amount": "188",
                        "iconUrl": "",
                        "isERC1155": false,
                        "isERC721": false,
                        "sign": false,
                        "value": ""
                    }
                ]
            },
            {
                "account": "0x597c311c859a8fea8919180298ddc2a123854933",
                "assets": [
                    {
                        "address": "0xa1b19bcd50a24be0cb399c1ec0f7ca546b94a2b0",
                        "amount": "188",
                        "iconUrl": "",
                        "isERC1155": false,
                        "isERC721": false,
                        "sign": true,
                        "value": ""
                    }
                ]
            }
        ]
    },
    "profile": {
        "basic_info": {
            "baseFee": "",
            "blockNumber": 10364538,
            "callData": "0xa9059cbb000000000000000000000000597c311c859a8fea8919180298ddc2a12385493300000000000000000000000000000000000000000000000a31062beeed700000",
            "debugEnable": true,
            "errorInfo": "",
            "eventCount": 1,
            "feeRecipient": "0x9d6d492bd500da5b33cf95a5d610a73360fcaaa0",
            "formatValue": "0",
            "gasLimit": 200000,
            "gasPrice": "33",
            "gasUsed": 22223,
            "intTxnCount": 0,
            "internalRevert": false,
            "internalRevertMessage": "",
            "isContractCreation": false,
            "isFlashloan": false,
            "maxFee": "",
            "nonce": 3,
            "overwritedBlockNumber": -1,
            "priorityFee": "",
            "receiver": "0xa1b19bcd50a24be0cb399c1ec0f7ca546b94a2b0",
            "revertMessage": "",
            "sender": "0x836935fb6734be964ac28d1d6eefb0f1314ddce4",
            "simulationEnable": true,
            "sourceTxnHash": "0x909ecf1ed58fb25fabc948f9451b1a1669647887fe1ee296d2da7d50b330e175",
            "status": true,
            "timestamp": "2020-06-30T02:48:08Z",
            "transactionFee": "0.000733359",
            "txnHash": "0x909ecf1ed58fb25fabc948f9451b1a1669647887fe1ee296d2da7d50b330e175",
            "txnIndex": 90,
            "type": 0,
            "value": "0"
        },
        "fund_flow": [
            {
                "amount": "188",
                "from": "0x836935fb6734be964ac28d1d6eefb0f1314ddce4",
                "id": 1,
                "isERC1155": false,
                "isERC721": false,
                "isReverted": false,
                "order": 1,
                "to": "0x597c311c859a8fea8919180298ddc2a123854933",
                "token": "0xa1b19bcd50a24be0cb399c1ec0f7ca546b94a2b0"
            }
        ],
        "token_infos": [
            {
                "address": "0xc02aaa39b223fe8d0a0e5c4f27ead9083c756cc2",
                "decimals": 18
            },
            {
                "address": "0xeeeeeeeeeeeeeeeeeeeeeeeeeeeeeeeeeeeeeeee",
                "decimals": 18
            },
            {
                "address": "0xa1b19bcd50a24be0cb399c1ec0f7ca546b94a2b0",
                "decimals": 18
            }
        ]
    },
    "address_label": {
        "labels": [
            {
                "address": "0xeeeeeeeeeeeeeeeeeeeeeeeeeeeeeeeeeeeeeeee",
                "label": "Ether"
            },
            {
                "address": "0xa1b19bcd50a24be0cb399c1ec0f7ca546b94a2b0",
                "label": "Future Digital Games (FDG)"
            },
            {
                "address": "0x0000000000000000000000000000000000000001",
                "label": "Precompiled"
            },
            {
                "address": "0x0000000000000000000000000000000000000002",
                "label": "Precompiled"
            },
            {
                "address": "0x0000000000000000000000000000000000000003",
                "label": "Precompiled"
            },
            {
                "address": "0x0000000000000000000000000000000000000004",
                "label": "Precompiled"
            }
        ]
    },
    "trace": {
        "accountLabels": null,
        "dataMap": {
            "-1": {
                "invocation": {
                    "address": "0x836935fb6734be964ac28d1d6eefb0f1314ddce4",
                    "callData": "",
                    "decodedMethod": null,
                    "errorInfo": "",
                    "fromAddress": "",
                    "gasUsed": 0,
                    "id": -1,
                    "methodDecoded": false,
                    "operation": "",
                    "output": "",
                    "revert": false,
                    "revertMessage": "",
                    "selector": "",
                    "status": false,
                    "value": ""
                },
                "nodeType": 0
            },
            "0": {
                "invocation": {
                    "address": "0xa1b19bcd50a24be0cb399c1ec0f7ca546b94a2b0",
                    "callData": "0x000000000000000000000000597c311c859a8fea8919180298ddc2a12385493300000000000000000000000000000000000000000000000a31062beeed700000",
                    "decodedMethod": {
                        "callParams": [
                            {
                                "name": "recipient",
                                "type": "address",
                                "value": "0x597c311c859a8fea8919180298ddc2a123854933"
                            },
                            {
                                "decimalAvailable": true,
                                "name": "amount",
                                "type": "uint256",
                                "value": "188,000,000,000,000,000,000"
                            }
                        ],
                        "constructorArguments": "",
                        "name": "transfer",
                        "returnParams": [
                            {
                                "name": "",
                                "type": "bool",
                                "value": true
                            }
                        ],
                        "signature": "transfer(address,uint256)"
                    },
                    "errorInfo": "",
                    "fromAddress": "0x836935fb6734be964ac28d1d6eefb0f1314ddce4",
                    "gasUsed": 22223,
                    "id": 0,
                    "methodDecoded": true,
                    "operation": "CALL",
                    "output": "0x0000000000000000000000000000000000000000000000000000000000000001",
                    "revert": false,
                    "revertMessage": "",
                    "selector": "0xa9059cbb",
                    "status": true,
                    "value": "0"
                },
                "nodeType": 0
            },
            "1": {
                "event": {
                    "contract": "0xa1b19bcd50a24be0cb399c1ec0f7ca546b94a2b0",
                    "decodedLog": {
                        "name": "Transfer",
                        "params": [
                            {
                                "name": "from",
                                "type": "address",
                                "value": "0x836935fb6734be964ac28d1d6eefb0f1314ddce4"
                            },
                            {
                                "name": "to",
                                "type": "address",
                                "value": "0x597c311c859a8fea8919180298ddc2a123854933"
                            },
                            {
                                "decimalAvailable": true,
                                "name": "value",
                                "type": "uint256",
                                "value": "188,000,000,000,000,000,000"
                            }
                        ],
                        "signature": "Transfer(address,address,uint256)"
                    },
                    "id": 1,
                    "logData": "0x00000000000000000000000000000000000000000000000a31062beeed700000",
                    "logDecoded": true,
                    "operation": "EVENT",
                    "revert": false,
                    "status": true,
                    "topics": [
                        "0xddf252ad1be2c89b69c2b068fc378daa952ba7f163c4a11628f55a4df523b3ef",
                        "0x000000000000000000000000836935fb6734be964ac28d1d6eefb0f1314ddce4",
                        "0x000000000000000000000000597c311c859a8fea8919180298ddc2a123854933"
                    ]
                },
                "nodeType": 1
            }
        },
        "gasFlame": [
            {
                "children": [
                    {
                        "children": [
                            {
                                "children": [],
                                "depth": 0,
                                "name": "Initial Gas",
                                "value": 21644
                            },
                            {
                                "children": [],
                                "depth": 0,
                                "name": "Executed Gas",
                                "value": 15579
                            }
                        ],
                        "depth": -1,
                        "name": "Actual Gas Used",
                        "value": 22223
                    },
                    {
                        "children": [],
                        "depth": -1,
                        "name": "Refunded Gas",
                        "value": 15000
                    }
                ],
                "depth": -2,
                "name": "Total Gas",
                "value": 37223
            }
        ],
        "isConfirmed": true,
        "mainTrace": [
            {
                "children": [
                    {
                        "children": [
                            {
                                "children": [],
                                "depth": 1,
                                "id": 1,
                                "order": 1
                            }
                        ],
                        "depth": 0,
                        "id": 0,
                        "order": 0
                    }
                ],
                "depth": -1,
                "id": -1,
                "order": -1
            }
        ],
        "mainTraceNodeCount": 2,
        "parentIdMap": {
            "0": -1,
            "1": 0
        },
        "tidyTrace": [
            {
                "children": [
                    {
                        "children": [
                            {
                                "children": [],
                                "depth": 1,
                                "id": 1,
                                "order": 1
                            }
                        ],
                        "depth": 0,
                        "id": 0,
                        "order": 0
                    }
                ],
                "depth": -1,
                "id": -1,
                "order": -1
            }
        ],
        "tidyTraceNodeCount": 2
    },
    "state_change": {
        "stateChanges": [
            {
                "address": "0xa1b19bcd50a24be0cb399c1ec0f7ca546b94a2b0",
                "erc": "",
                "slots": [
                    {
                        "current": "0x0000000000000000000000000000000000000000000000000000000000000000",
                        "key": "0xa41a2a753e4ea44e3e8236caf509c7a78001dbbe36e39d265905f23f57054fe3",
                        "prev": "0x00000000000000000000000000000000000000000000000a31062beeed700000"
                    },
                    {
                        "current": "0x00000000000000000000000000000000000000000006812eb7b4548f8195239c",
                        "key": "0x631628da888b9121a5386c105d9c1a375748378a88a436d2bcb8eb6cb643cee0",
                        "prev": "0x00000000000000000000000000000000000000000006812486ae28a09425239c"
                    }
                ],
                "storageVariables": []
            }
        ]
    }
}