{
    "balance_change": {
        "balanceChanges": [
            {
                "account": "0xcf62dfc079c5d594c257c8fcc0bc2334d17595e1",
                "assets": [
                    {
                        "address": "0xedbaf3c5100302dcdda53269322f3730b1f0416d",
                        "amount": "0.00147",
                        "iconUrl": "",
                        "isERC1155": false,
                        "isERC721": false,
                        "sign": false,
                        "value": ""
                    }
                ]
            },
            {
                "account": "0x015f5e7689d6086af43bd88ac482a5d01beb4486",
                "assets": [
                    {
                        "address": "0xedbaf3c5100302dcdda53269322f3730b1f0416d",
                        "amount": "0.00147",
                        "iconUrl": "",
                        "isERC1155": false,
                        "isERC721": false,
                        "sign": true,
                        "value": ""
                    }
                ]
            }
        ]
    },
    "profile": {
        "basic_info": {
            "baseFee": "",
            "blockNumber": 3964692,
            "callData": "0xa9059cbb000000000000000000000000015f5e7689d6086af43bd88ac482a5d01beb44860000000000000000000000000000000000000000000000000000000000000093",
            "debugEnable": true,
            "errorInfo": "",
            "eventCount": 1,
            "feeRecipient": "0x2a65aca4d5fc5b5c859090a6c34d164135398226",
            "formatValue": "0",
            "gasLimit": 90000,
            "gasPrice": "20",
            "gasUsed": 42712,
            "intTxnCount": 0,
            "internalRevert": false,
            "internalRevertMessage": "",
            "isContractCreation": false,
            "isFlashloan": false,
            "maxFee": "",
            "nonce": 60805,
            "overwritedBlockNumber": -1,
            "priorityFee": "",
            "receiver": "0xedbaf3c5100302dcdda53269322f3730b1f0416d",
            "revertMessage": "",
            "sender": "0xcf62dfc079c5d594c257c8fcc0bc2334d17595e1",
            "simulationEnable": true,
            "sourceTxnHash": "0x90c3d42c48415f60ed122a0262271c7fda61a4cc6ca5ffbb6b95198abe2805e2",
            "status": true,
            "timestamp": "2017-07-02T21:30:29Z",
            "transactionFee": "0.00085424",
            "txnHash": "0x90c3d42c48415f60ed122a0262271c7fda61a4cc6ca5ffbb6b95198abe2805e2",
            "txnIndex": 52,
            "type": 0,
            "value": "0"
        },
        "fund_flow": [
            {
                "amount": "0.00147",
                "from": "0xcf62dfc079c5d594c257c8fcc0bc2334d17595e1",
                "id": 1,
                "isERC1155": false,
                "isERC721": false,
                "isReverted": false,
                "order": 1,
                "to": "0x015f5e7689d6086af43bd88ac482a5d01beb4486",
                "token": "0xedbaf3c5100302dcdda53269322f3730b1f0416d"
            }
        ],
        "token_infos": [
            {
                "address": "0xc02aaa39b223fe8d0a0e5c4f27ead9083c756cc2",
                "decimals": 18
            },
            {
                "address": "0xedbaf3c5100302dcdda53269322f3730b1f0416d",
                "decimals": 5
            },
            {
                "address": "0xeeeeeeeeeeeeeeeeeeeeeeeeeeeeeeeeeeeeeeee",
                "decimals": 18
            }
        ]
    },
    "address_label": {
        "labels": [
            {
                "address": "0x0000000000000000000000000000000000000004",
                "label": "Precompiled"
            },
            {
                "address": "0xeeeeeeeeeeeeeeeeeeeeeeeeeeeeeeeeeeeeeeee",
                "label": "Ether"
            },
            {
                "address": "0xedbaf3c5100302dcdda53269322f3730b1f0416d",
                "label": "Veros (Veros)"
            },
            {
                "address": "0x0000000000000000000000000000000000000001",
                "label": "Precompiled"
            },
            {
                "address": "0x0000000000000000000000000000000000000002",
                "label": "Precompiled"
            },
            {
                "address": "0x0000000000000000000000000000000000000003",
                "label": "Precompiled"
            }
        ]
    },
    "trace": {
        "accountLabels": null,
        "dataMap": {
            "-1": {
                "invocation": {
                    "address": "0xcf62dfc079c5d594c257c8fcc0bc2334d17595e1",
                    "callData": "",
                    "decodedMethod": null,
                    "errorInfo": "",
                    "fromAddress": "",
                    "gasUsed": 0,
                    "id": -1,
                    "methodDecoded": false,
                    "operation": "",
                    "output": "",
                    "revert": false,
                    "revertMessage": "",
                    "selector": "",
                    "status": false,
                    "value": ""
                },
                "nodeType": 0
            },
            "0": {
                "invocation": {
                    "address": "0xedbaf3c5100302dcdda53269322f3730b1f0416d",
                    "callData": "0x000000000000000000000000015f5e7689d6086af43bd88ac482a5d01beb44860000000000000000000000000000000000000000000000000000000000000093",
                    "decodedMethod": {
                        "callParams": [
                            {
                                "name": "recipient",
                                "type": "address",
                                "value": "0x015f5e7689d6086af43bd88ac482a5d01beb4486"
                            },
                            {
                                "decimalAvailable": true,
                                "name": "amount",
                                "type": "uint256",
                                "value": "147"
                            }
                        ],
                        "constructorArguments": "",
                        "name": "transfer",
                        "returnParams": [
                            {
                                "name": "",
                                "type": "bool",
                                "value": true
                            }
                        ],
                        "signature": "transfer(address,uint256)"
                    },
                    "errorInfo": "",
                    "fromAddress": "0xcf62dfc079c5d594c257c8fcc0bc2334d17595e1",
                    "gasUsed": 42712,
                    "id": 0,
                    "methodDecoded": true,
                    "operation": "CALL",
                    "output": "0x0000000000000000000000000000000000000000000000000000000000000001",
                    "revert": false,
                    "revertMessage": "",
                    "selector": "0xa9059cbb",
                    "status": true,
                    "value": "0"
                },
                "nodeType": 0
            },
            "1": {
                "event": {
                    "contract": "0xedbaf3c5100302dcdda53269322f3730b1f0416d",
                    "decodedLog": {
                        "name": "Transfer",
                        "params": [
                            {
                                "name": "from",
                                "type": "address",
                                "value": "0xcf62dfc079c5d594c257c8fcc0bc2334d17595e1"
                            },
                            {
                                "name": "to",
                                "type": "address",
                                "value": "0x015f5e7689d6086af43bd88ac482a5d01beb4486"
                            },
                            {
                                "decimalAvailable": true,
                                "name": "value",
                                "type": "uint256",
                                "value": "147"
                            }
                        ],
                        "signature": "Transfer(address,address,uint256)"
                    },
                    "id": 1,
                    "logData": "0x0000000000000000000000000000000000000000000000000000000000000093",
                    "logDecoded": true,
                    "operation": "EVENT",
                    "revert": false,
                    "status": true,
                    "topics": [
                        "0xddf252ad1be2c89b69c2b068fc378daa952ba7f163c4a11628f55a4df523b3ef",
                        "0x000000000000000000000000cf62dfc079c5d594c257c8fcc0bc2334d17595e1",
                        "0x000000000000000000000000015f5e7689d6086af43bd88ac482a5d01beb4486"
                    ]
                },
                "nodeType": 1
            }
        },
        "gasFlame": [
            {
                "children": [
                    {
                        "children": [
                            {
                                "children": [],
                                "depth": 0,
                                "name": "Initial Gas",
                                "value": 22872
                            },
                            {
                                "children": [],
                                "depth": 0,
                                "name": "Executed Gas",
                                "value": 19840
                            }
                        ],
                        "depth": -1,
                        "name": "Actual Gas Used",
                        "value": 42712
                    },
                    {
                        "children": [],
                        "depth": -1,
                        "name": "Refunded Gas",
                        "value": 0
                    }
                ],
                "depth": -2,
                "name": "Total Gas",
                "value": 42712
            }
        ],
        "isConfirmed": true,
        "mainTrace": [
            {
                "children": [
                    {
                        "children": [
                            {
                                "children": [],
                                "depth": 1,
                                "id": 1,
                                "order": 1
                            }
                        ],
                        "depth": 0,
                        "id": 0,
                        "order": 0
                    }
                ],
                "depth": -1,
                "id": -1,
                "order": -1
            }
        ],
        "mainTraceNodeCount": 2,
        "parentIdMap": {
            "0": -1,
            "1": 0
        },
        "tidyTrace": [
            {
                "children": [
                    {
                        "children": [
                            {
                                "children": [],
                                "depth": 1,
                                "id": 1,
                                "order": 1
                            }
                        ],
                        "depth": 0,
                        "id": 0,
                        "order": 0
                    }
                ],
                "depth": -1,
                "id": -1,
                "order": -1
            }
        ],
        "tidyTraceNodeCount": 2
    },
    "state_change": {
        "stateChanges": [
            {
                "address": "0xedbaf3c5100302dcdda53269322f3730b1f0416d",
                "erc": "",
                "slots": [
                    {
                        "current": "0x00000000000000000000000000000000000000000000000000000abc6f337dc1",
                        "key": "0x4cfd83a5a74b6e4f40f55714b97a1d4f4523ae79478425293f6619f414536594",
                        "prev": "0x00000000000000000000000000000000000000000000000000000abc6f338a0c"
                    },
                    {
                        "current": "0x0000000000000000000000000000000000000000000000000000000058994a4c",
                        "key": "0x791a43fc014d17ea452687115fdd6c97615932c390ee375cb5b9fdf048b03735",
                        "prev": "0x00000000000000000000000000000000000000000000000000000000589949b9"
                    },
                    {
                        "current": "0x00000000000000000000000000000000000000000000000000000002bd35cfb8",
                        "key": "0x6d5257204ebe7d88fd91ae87941cb2dd9d8062b64ae5a2bd2d28ec40b9fbf6df",
                        "prev": "0x00000000000000000000000000000000000000000000000000000002bd35c400"
                    }
                ],
                "storageVariables": []
            }
        ]
    }
}