{
    "balance_change": {
        "balanceChanges": []
    },
    "profile": {
        "basic_info": {
            "baseFee": "",
            "blockNumber": 8946491,
            "callData": "0xa05782330000000000000000000000000000000000000000000000000000000000001de700000000000000000000000073a5ae65a8c8e2f862b821d69729b91b9f006e250000000000000000000000000000000000000000000000000000000000001bd00000000000000000000000000000000000000000000000000000000000001bd00000000000000000000000000000000000000000000000000000000000001df80000000000000000000000000000000000000000000000000000000000000000000000000000000000000000000000000000000000000000000000000000000000000000000000000000000000000000000000000000000000000000000000020000000000000000000000000000000000000000000000000000000000000001",
            "debugEnable": true,
            "errorInfo": "",
            "eventCount": 0,
            "feeRecipient": "0x2a5994b501e6a560e727b6c2de5d856396aadd38",
            "formatValue": "0",
            "gasLimit": 800000,
            "gasPrice": "1.000000002",
            "gasUsed": 229619,
            "intTxnCount": 0,
            "internalRevert": false,
            "internalRevertMessage": "",
            "isContractCreation": false,
            "isFlashloan": false,
            "maxFee": "",
            "nonce": 71,
            "overwritedBlockNumber": -1,
            "priorityFee": "",
            "receiver": "0x1daddad71146cd1d9b6d487166789127f15fa757",
            "revertMessage": "",
            "sender": "0x9d028ed59bb24593053061f0d7431835a3493f1b",
            "simulationEnable": true,
            "sourceTxnHash": "0x90a159b698684b81c13b32a32a9a3bcaa65afc7a0753a0654846199e64994c2f",
            "status": true,
            "timestamp": "2019-11-16T20:38:11Z",
            "transactionFee": "0.000229619000459238",
            "txnHash": "0x90a159b698684b81c13b32a32a9a3bcaa65afc7a0753a0654846199e64994c2f",
            "txnIndex": 24,
            "type": 0,
            "value": "0"
        },
        "fund_flow": [],
        "token_infos": [
            {
                "address": "0xc02aaa39b223fe8d0a0e5c4f27ead9083c756cc2",
                "decimals": 18
            },
            {
                "address": "0xeeeeeeeeeeeeeeeeeeeeeeeeeeeeeeeeeeeeeeee",
                "decimals": 18
            }
        ]
    },
    "address_label": {
        "labels": [
            {
                "address": "0xeeeeeeeeeeeeeeeeeeeeeeeeeeeeeeeeeeeeeeee",
                "label": "Ether"
            },
            {
                "address": "0x1daddad71146cd1d9b6d487166789127f15fa757",
                "label": "ETHStvo"
            },
            {
                "address": "0x0000000000000000000000000000000000000001",
                "label": "Precompiled"
            },
            {
                "address": "0x0000000000000000000000000000000000000002",
                "label": "Precompiled"
            },
            {
                "address": "0x0000000000000000000000000000000000000003",
                "label": "Precompiled"
            },
            {
                "address": "0x0000000000000000000000000000000000000004",
                "label": "Precompiled"
            }
        ]
    },
    "trace": {
        "accountLabels": null,
        "dataMap": {
            "-1": {
                "invocation": {
                    "address": "0x9d028ed59bb24593053061f0d7431835a3493f1b",
                    "callData": "",
                    "decodedMethod": null,
                    "errorInfo": "",
                    "fromAddress": "",
                    "gasUsed": 0,
                    "id": -1,
                    "methodDecoded": false,
                    "operation": "",
                    "output": "",
                    "revert": false,
                    "revertMessage": "",
                    "selector": "",
                    "status": false,
                    "value": ""
                },
                "nodeType": 0
            },
            "0": {
                "invocation": {
                    "address": "0x1daddad71146cd1d9b6d487166789127f15fa757",
                    "callData": "0x0000000000000000000000000000000000000000000000000000000000001de700000000000000000000000073a5ae65a8c8e2f862b821d69729b91b9f006e250000000000000000000000000000000000000000000000000000000000001bd00000000000000000000000000000000000000000000000000000000000001bd00000000000000000000000000000000000000000000000000000000000001df80000000000000000000000000000000000000000000000000000000000000000000000000000000000000000000000000000000000000000000000000000000000000000000000000000000000000000000000000000000000000000000000020000000000000000000000000000000000000000000000000000000000000001",
                    "decodedMethod": {
                        "callParams": [
                            {
                                "name": "_userID",
                                "type": "uint256",
                                "value": "7,655"
                            },
                            {
                                "name": "_wallet",
                                "type": "address",
                                "value": "0x73a5ae65a8c8e2f862b821d69729b91b9f006e25"
                            },
                            {
                                "name": "_referrerID",
                                "type": "uint256",
                                "value": "7,120"
                            },
                            {
                                "name": "_introducerID",
                                "type": "uint256",
                                "value": "7,120"
                            },
                            {
                                "name": "_referral1",
                                "type": "uint256",
                                "value": "7,672"
                            },
                            {
                                "name": "_referral2",
                                "type": "uint256",
                                "value": "0"
                            },
                            {
                                "name": "_referral3",
                                "type": "uint256",
                                "value": "0"
                            },
                            {
                                "name": "_level",
                                "type": "uint256",
                                "value": "2"
                            },
                            {
                                "name": "_introducedTotal",
                                "type": "uint256",
                                "value": "1"
                            }
                        ],
                        "constructorArguments": "",
                        "name": "setUserData",
                        "returnParams": [],
                        "signature": "setUserData(uint256,address,uint256,uint256,uint256,uint256,uint256,uint256,uint256)"
                    },
                    "errorInfo": "",
                    "fromAddress": "0x9d028ed59bb24593053061f0d7431835a3493f1b",
                    "gasUsed": 229619,
                    "id": 0,
                    "methodDecoded": true,
                    "operation": "CALL",
                    "output": "",
                    "revert": false,
                    "revertMessage": "",
                    "selector": "0xa0578233",
                    "status": true,
                    "value": "0"
                },
                "nodeType": 0
            }
        },
        "gasFlame": [
            {
                "children": [
                    {
                        "children": [
                            {
                                "children": [],
                                "depth": 0,
                                "name": "Initial Gas",
                                "value": 24280
                            },
                            {
                                "children": [],
                                "depth": 0,
                                "name": "Executed Gas",
                                "value": 205339
                            }
                        ],
                        "depth": -1,
                        "name": "Actual Gas Used",
                        "value": 229619
                    },
                    {
                        "children": [],
                        "depth": -1,
                        "name": "Refunded Gas",
                        "value": 0
                    }
                ],
                "depth": -2,
                "name": "Total Gas",
                "value": 229619
            }
        ],
        "isConfirmed": true,
        "mainTrace": [
            {
                "children": [
                    {
                        "children": [],
                        "depth": 0,
                        "id": 0,
                        "order": 0
                    }
                ],
                "depth": -1,
                "id": -1,
                "order": -1
            }
        ],
        "mainTraceNodeCount": 1,
        "parentIdMap": {
            "0": -1
        },
        "tidyTrace": [
            {
                "children": [
                    {
                        "children": [],
                        "depth": 0,
                        "id": 0,
                        "order": 0
                    }
                ],
                "depth": -1,
                "id": -1,
                "order": -1
            }
        ],
        "tidyTraceNodeCount": 1
    },
    "state_change": {
        "stateChanges": [
            {
                "address": "0x1daddad71146cd1d9b6d487166789127f15fa757",
                "erc": "",
                "slots": [
                    {
                        "current": "0x0000000000000000000000000000000000000000000000000000000000000001",
                        "key": "0xc65d75d1275e277fc795d8cd9915da482d2e6f56118ee5d9ecadcd9cad069c89",
                        "prev": "0x0000000000000000000000000000000000000000000000000000000000000000"
                    },
                    {
                        "current": "0x0000000000000000000000000000000000000000000000000000000000000101",
                        "key": "0xc65d75d1275e277fc795d8cd9915da482d2e6f56118ee5d9ecadcd9cad069c82",
                        "prev": "0x0000000000000000000000000000000000000000000000000000000000000000"
                    },
                    {
                        "current": "0x0000000000000000000000000000000000000000000000000000000000000001",
                        "key": "0xc65d75d1275e277fc795d8cd9915da482d2e6f56118ee5d9ecadcd9cad069c84",
                        "prev": "0x0000000000000000000000000000000000000000000000000000000000000000"
                    },
                    {
                        "current": "0x00000000000000000000000073a5ae65a8c8e2f862b821d69729b91b9f006e25",
                        "key": "0xc65d75d1275e277fc795d8cd9915da482d2e6f56118ee5d9ecadcd9cad069c87",
                        "prev": "0x0000000000000000000000000000000000000000000000000000000000000000"
                    },
                    {
                        "current": "0x0000000000000000000000000000000000000000000000000000000000001de7",
                        "key": "0x30832013b10abb06b38efa733ea87bc04008edc213d88a6153292fd3882e166c",
                        "prev": "0x0000000000000000000000000000000000000000000000000000000000000000"
                    },
                    {
                        "current": "0x0000000000000000000000000000000000000000000000000000000000001bd0",
                        "key": "0xc65d75d1275e277fc795d8cd9915da482d2e6f56118ee5d9ecadcd9cad069c85",
                        "prev": "0x0000000000000000000000000000000000000000000000000000000000000000"
                    },
                    {
                        "current": "0x0000000000000000000000000000000000000000000000000000000000001bd0",
                        "key": "0xc65d75d1275e277fc795d8cd9915da482d2e6f56118ee5d9ecadcd9cad069c86",
                        "prev": "0x0000000000000000000000000000000000000000000000000000000000000000"
                    },
                    {
                        "current": "0x0000000000000000000000000000000000000000000000000000000000001df8",
                        "key": "0xaffba288b2520169353e5ce3bf991b072a713210f0ad5893713522e0a95473cd",
                        "prev": "0x0000000000000000000000000000000000000000000000000000000000000000"
                    },
                    {
                        "current": "0x0000000000000000000000000000000000000000000000000000000000000d49",
                        "key": "0x000000000000000000000000000000000000000000000000000000000000000f",
                        "prev": "0x0000000000000000000000000000000000000000000000000000000000000d48"
                    },
                    {
                        "current": "0x0000000000000000000000000000000000000000000000000000000000000002",
                        "key": "0xc65d75d1275e277fc795d8cd9915da482d2e6f56118ee5d9ecadcd9cad069c83",
                        "prev": "0x0000000000000000000000000000000000000000000000000000000000000000"
                    }
                ],
                "storageVariables": [
                    {
                        "name": "currentUserID",
                        "type": "uint256",
                        "value": {
                            "current": "3401",
                            "prev": "3400",
                            "typeTag": 1
                        }
                    },
                    {
                        "name": "userList",
                        "type": "mapping(address => uint256)",
                        "value": {
                            "pairs": [
                                {
                                    "key": "0x73a5ae65a8c8e2f862b821d69729b91b9f006e25",
                                    "value": {
                                        "current": "7655",
                                        "prev": "0",
                                        "typeTag": 1
                                    }
                                }
                            ],
                            "typeTag": 4
                        }
                    },
                    {
                        "name": "users",
                        "type": "mapping(uint256 => struct ETHStvo.UserStruct)",
                        "value": {
                            "pairs": [
                                {
                                    "key": "7655",
                                    "value": {
                                        "fields": [
                                            {
                                                "name": "manual",
                                                "type": "bool",
                                                "value": {
                                                    "current": "true",
                                                    "prev": "false",
                                                    "typeTag": 1
                                                }
                                            },
                                            {
                                                "name": "isExist",
                                                "type": "bool",
                                                "value": {
                                                    "current": "true",
                                                    "prev": "false",
                                                    "typeTag": 1
                                                }
                                            },
                                            {
                                                "name": "level",
                                                "type": "uint256",
                                                "value": {
                                                    "current": "2",
                                                    "prev": "0",
                                                    "typeTag": 1
                                                }
                                            },
                                            {
                                                "name": "introducedTotal",
                                                "type": "uint256",
                                                "value": {
                                                    "current": "1",
                                                    "prev": "0",
                                                    "typeTag": 1
                                                }
                                            },
                                            {
                                                "name": "referrerID",
                                                "type": "uint256",
                                                "value": {
                                                    "current": "7120",
                                                    "prev": "0",
                                                    "typeTag": 1
                                                }
                                            },
                                            {
                                                "name": "introducerID",
                                                "type": "uint256",
                                                "value": {
                                                    "current": "7120",
                                                    "prev": "0",
                                                    "typeTag": 1
                                                }
                                            },
                                            {
                                                "name": "wallet",
                                                "type": "address",
                                                "value": {
                                                    "current": "0x73a5ae65a8c8e2f862b821d69729b91b9f006e25",
                                                    "prev": "0x0000000000000000000000000000000000000000",
                                                    "typeTag": 1
                                                }
                                            },
                                            {
                                                "name": "referrals",
                                                "type": "uint256[]",
                                                "value": {
                                                    "elemType": "uint256",
                                                    "elems": [
                                                        {
                                                            "index": 0,
                                                            "value": {
                                                                "current": "7672",
                                                                "prev": "0",
                                                                "typeTag": 1
                                                            }
                                                        }
                                                    ],
                                                    "typeTag": 2
                                                }
                                            }
                                        ],
                                        "typeTag": 3
                                    }
                                }
                            ],
                            "typeTag": 4
                        }
                    }
                ]
            }
        ]
    }
}