{
    "balance_change": {
        "balanceChanges": [
            {
                "account": "0xdd9bd62d1c08210fdda6f841ed5196b45a939625",
                "assets": [
                    {
                        "address": "0xeeeeeeeeeeeeeeeeeeeeeeeeeeeeeeeeeeeeeeee",
                        "amount": "935",
                        "iconUrl": "https://assets.blocksec.com/image/1663669189317-3.png",
                        "isERC1155": false,
                        "isERC721": false,
                        "sign": false,
                        "value": "1716435.5999999999915"
                    },
                    {
                        "address": "0x030ba81f1c18d280636f32af80b9aad02cf0854e",
                        "amount": "935",
                        "iconUrl": "",
                        "isERC1155": false,
                        "isERC721": false,
                        "sign": true,
                        "value": "1718895.678"
                    }
                ]
            },
            {
                "account": "0x0000000000000000000000000000000000000000",
                "assets": [
                    {
                        "address": "0x030ba81f1c18d280636f32af80b9aad02cf0854e",
                        "amount": "935.333828239192992856",
                        "iconUrl": "",
                        "isERC1155": false,
                        "isERC721": false,
                        "sign": false,
                        "value": "1719509.385"
                    }
                ]
            },
            {
                "account": "0x030ba81f1c18d280636f32af80b9aad02cf0854e",
                "assets": [
                    {
                        "address": "0xc02aaa39b223fe8d0a0e5c4f27ead9083c756cc2",
                        "amount": "935",
                        "iconUrl": "https://assets.blocksec.com/icon/f1cb2d02c471d545bbc7722daf3277fd852d98e63d118771af7047bd8256c516.png",
                        "isERC1155": false,
                        "isERC721": false,
                        "sign": true,
                        "value": "1716435.5999999999915"
                    }
                ]
            },
            {
                "account": "0x464c71f6c2f760dda6093dcb91c24c39e5d6e18c",
                "assets": [
                    {
                        "address": "0x030ba81f1c18d280636f32af80b9aad02cf0854e",
                        "amount": "0.333828239192992856",
                        "iconUrl": "",
                        "isERC1155": false,
                        "isERC721": false,
                        "sign": true,
                        "value": "613.7068639"
                    }
                ]
            },
            {
                "account": "0xc02aaa39b223fe8d0a0e5c4f27ead9083c756cc2",
                "assets": [
                    {
                        "address": "0xeeeeeeeeeeeeeeeeeeeeeeeeeeeeeeeeeeeeeeee",
                        "amount": "935",
                        "iconUrl": "https://assets.blocksec.com/image/1663669189317-3.png",
                        "isERC1155": false,
                        "isERC721": false,
                        "sign": true,
                        "value": "1716435.5999999999915"
                    },
                    {
                        "address": "0xc02aaa39b223fe8d0a0e5c4f27ead9083c756cc2",
                        "amount": "935",
                        "iconUrl": "https://assets.blocksec.com/icon/f1cb2d02c471d545bbc7722daf3277fd852d98e63d118771af7047bd8256c516.png",
                        "isERC1155": false,
                        "isERC721": false,
                        "sign": false,
                        "value": "1716435.5999999999915"
                    }
                ]
            }
        ]
    },
    "profile": {
        "basic_info": {
            "baseFee": "18.388063063",
            "blockNumber": 17433401,
            "callData": "0x474cf53d0000000000000000000000007d2768de32b0b80b7a3454c06bdac94a69ddc7a9000000000000000000000000dd9bd62d1c08210fdda6f841ed5196b45a9396250000000000000000000000000000000000000000000000000000000000000000",
            "debugEnable": true,
            "errorInfo": "",
            "eventCount": 8,
            "feeRecipient": "0xdafea492d9c6733ae3d56b7ed1adb60692c98bc5",
            "formatValue": "935",
            "gasLimit": 300000,
            "gasPrice": "18.488939386",
            "gasUsed": 215947,
            "intTxnCount": 25,
            "internalRevert": false,
            "internalRevertMessage": "",
            "isContractCreation": false,
            "isFlashloan": false,
            "maxFee": "",
            "nonce": 1595,
            "overwritedBlockNumber": -1,
            "priorityFee": "",
            "receiver": "0xeffc18fc3b7eb8e676dac549e0c693ad50d1ce31",
            "revertMessage": "",
            "sender": "0xdd9bd62d1c08210fdda6f841ed5196b45a939625",
            "simulationEnable": true,
            "sourceTxnHash": "0x906f30cadfca17c1f762835378bbb6e6ec198d7ad69fa220a046905a6b7c4e3d",
            "status": true,
            "timestamp": "2023-06-08T05:05:11Z",
            "transactionFee": "0.003992630993588542",
            "txnHash": "0x906f30cadfca17c1f762835378bbb6e6ec198d7ad69fa220a046905a6b7c4e3d",
            "txnIndex": 125,
            "type": 0,
            "value": "935000000000000000000"
        },
        "fund_flow": [
            {
                "amount": "935",
                "from": "0xdd9bd62d1c08210fdda6f841ed5196b45a939625",
                "id": 1,
                "isERC1155": false,
                "isERC721": false,
                "isReverted": false,
                "order": 1,
                "to": "0xeffc18fc3b7eb8e676dac549e0c693ad50d1ce31",
                "token": "0xeeeeeeeeeeeeeeeeeeeeeeeeeeeeeeeeeeeeeeee"
            },
            {
                "amount": "935",
                "from": "0xeffc18fc3b7eb8e676dac549e0c693ad50d1ce31",
                "id": 2,
                "isERC1155": false,
                "isERC721": false,
                "isReverted": false,
                "order": 2,
                "to": "0xc02aaa39b223fe8d0a0e5c4f27ead9083c756cc2",
                "token": "0xeeeeeeeeeeeeeeeeeeeeeeeeeeeeeeeeeeeeeeee"
            },
            {
                "amount": "935",
                "from": "0xc02aaa39b223fe8d0a0e5c4f27ead9083c756cc2",
                "id": 3,
                "isERC1155": false,
                "isERC721": false,
                "isReverted": false,
                "order": 3,
                "to": "0xeffc18fc3b7eb8e676dac549e0c693ad50d1ce31",
                "token": "0xc02aaa39b223fe8d0a0e5c4f27ead9083c756cc2"
            },
            {
                "amount": "0.333828239192992856",
                "from": "0x0000000000000000000000000000000000000000",
                "id": 4,
                "isERC1155": false,
                "isERC721": false,
                "isReverted": false,
                "order": 4,
                "to": "0x464c71f6c2f760dda6093dcb91c24c39e5d6e18c",
                "token": "0x030ba81f1c18d280636f32af80b9aad02cf0854e"
            },
            {
                "amount": "935",
                "from": "0xeffc18fc3b7eb8e676dac549e0c693ad50d1ce31",
                "id": 5,
                "isERC1155": false,
                "isERC721": false,
                "isReverted": false,
                "order": 5,
                "to": "0x030ba81f1c18d280636f32af80b9aad02cf0854e",
                "token": "0xc02aaa39b223fe8d0a0e5c4f27ead9083c756cc2"
            },
            {
                "amount": "935",
                "from": "0x0000000000000000000000000000000000000000",
                "id": 6,
                "isERC1155": false,
                "isERC721": false,
                "isReverted": false,
                "order": 6,
                "to": "0xdd9bd62d1c08210fdda6f841ed5196b45a939625",
                "token": "0x030ba81f1c18d280636f32af80b9aad02cf0854e"
            }
        ],
        "token_infos": [
            {
                "address": "0x030ba81f1c18d280636f32af80b9aad02cf0854e",
                "decimals": 18
            },
            {
                "address": "0xc02aaa39b223fe8d0a0e5c4f27ead9083c756cc2",
                "decimals": 18
            },
            {
                "address": "0xeeeeeeeeeeeeeeeeeeeeeeeeeeeeeeeeeeeeeeee",
                "decimals": 18
            }
        ]
    },
    "address_label": {
        "labels": [
            {
                "address": "0x0000000000000000000000000000000000000001",
                "label": "Precompiled"
            },
            {
                "address": "0x0000000000000000000000000000000000000002",
                "label": "Precompiled"
            },
            {
                "address": "0x4e977830ba4bd783c0bb7f15d3e243f73ff57121",
                "label": "Aave: WETH Stable Debt V2"
            },
            {
                "address": "0xb53c1a33016b2dc2ff3653530bff1848a515c8c5",
                "label": "Aave: Lending Pool Provider V2"
            },
            {
                "address": "0xf5543cdd5f551635e13ebe07e47d01d0fc9cbbd5",
                "label": "ValidationLogic"
            },
            {
                "address": "0xc02aaa39b223fe8d0a0e5c4f27ead9083c756cc2",
                "label": "Wrapped Ether (WETH)"
            },
            {
                "address": "0xddde1fa049209bc24b69d5fa316a56efec918d79",
                "label": "Aave variable debt bearing WETH (variableD...)"
            },
            {
                "address": "0x7d2768de32b0b80b7a3454c06bdac94a69ddc7a9",
                "label": "Aave: Lending Pool V2"
            },
            {
                "address": "0xd9ed413bcf58c266f95fe6ba63b13cf79299ce31",
                "label": "StakedTokenIncentivesController"
            },
            {
                "address": "0xb8975328aa52c00b9ec1e11e518c4900f2e6c62a",
                "label": "DefaultReserveInterestRateStrategy"
            },
            {
                "address": "0xa558ea1a875f8b576f0728d32c39f62158e49b92",
                "label": "Aave stable debt bearing WETH (stableDeb...)"
            },
            {
                "address": "0x541dcd3f00bcd1a683cc73e1b2a8693b602201f4",
                "label": "Aave interest bearing WETH (aWETH)"
            },
            {
                "address": "0x0000000000000000000000000000000000000003",
                "label": "Precompiled"
            },
            {
                "address": "0xeffc18fc3b7eb8e676dac549e0c693ad50d1ce31",
                "label": "WrappedTokenGatewayV2"
            },
            {
                "address": "0xf63b34710400cad3e044cffdcab00a0f32e33ecf",
                "label": "Aave: WETH Variable Debt V2"
            },
            {
                "address": "0x8a32f49ffba88aba6eff96f45d8bd1d4b3f35c7d",
                "label": "Aave: Lending Rate Oracle V2"
            },
            {
                "address": "0x464c71f6c2f760dda6093dcb91c24c39e5d6e18c",
                "label": "Aave: Aave Collector V2"
            },
            {
                "address": "0x0000000000000000000000000000000000000004",
                "label": "Precompiled"
            },
            {
                "address": "0xeeeeeeeeeeeeeeeeeeeeeeeeeeeeeeeeeeeeeeee",
                "label": "Ether"
            },
            {
                "address": "0x030ba81f1c18d280636f32af80b9aad02cf0854e",
                "label": "Aave: aWETH Token V2"
            },
            {
                "address": "0xc6845a5c768bf8d7681249f8927877efda425baf",
                "label": "LendingPool"
            },
            {
                "address": "0xd784927ff2f95ba542bfc824c8a8a98f3495f6b5",
                "label": "Aave: Incentives Controller"
            }
        ]
    },
    "trace": {
        "accountLabels": null,
        "dataMap": {
            "-1": {
                "invocation": {
                    "address": "0xdd9bd62d1c08210fdda6f841ed5196b45a939625",
                    "callData": "",
                    "decodedMethod": null,
                    "errorInfo": "",
                    "fromAddress": "",
                    "gasUsed": 0,
                    "id": -1,
                    "methodDecoded": false,
                    "operation": "",
                    "output": "",
                    "revert": false,
                    "revertMessage": "",
                    "selector": "",
                    "status": false,
                    "value": ""
                },
                "nodeType": 0
            },
            "0": {
                "invocation": {
                    "address": "0xeffc18fc3b7eb8e676dac549e0c693ad50d1ce31",
                    "callData": "0x0000000000000000000000007d2768de32b0b80b7a3454c06bdac94a69ddc7a9000000000000000000000000dd9bd62d1c08210fdda6f841ed5196b45a9396250000000000000000000000000000000000000000000000000000000000000000",
                    "decodedMethod": {
                        "callParams": [
                            {
                                "name": "",
                                "type": "address",
                                "value": "0x7d2768de32b0b80b7a3454c06bdac94a69ddc7a9"
                            },
                            {
                                "name": "onBehalfOf",
                                "type": "address",
                                "value": "0xdd9bd62d1c08210fdda6f841ed5196b45a939625"
                            },
                            {
                                "name": "referralCode",
                                "type": "uint16",
                                "value": "0"
                            }
                        ],
                        "constructorArguments": "",
                        "name": "depositETH",
                        "returnParams": [],
                        "signature": "depositETH(address,address,uint16)"
                    },
                    "errorInfo": "",
                    "fromAddress": "0xdd9bd62d1c08210fdda6f841ed5196b45a939625",
                    "gasUsed": 215947,
                    "id": 0,
                    "methodDecoded": true,
                    "operation": "CALL",
                    "output": "",
                    "revert": false,
                    "revertMessage": "",
                    "selector": "0x474cf53d",
                    "status": true,
                    "value": "935"
                },
                "nodeType": 0
            },
            "1": {
                "invocation": {
                    "address": "0xc02aaa39b223fe8d0a0e5c4f27ead9083c756cc2",
                    "callData": "0x",
                    "decodedMethod": {
                        "callParams": [],
                        "constructorArguments": "",
                        "name": "deposit",
                        "returnParams": [],
                        "signature": "deposit()"
                    },
                    "errorInfo": "",
                    "fromAddress": "0xeffc18fc3b7eb8e676dac549e0c693ad50d1ce31",
                    "gasUsed": 23974,
                    "id": 1,
                    "methodDecoded": true,
                    "operation": "CALL",
                    "output": "",
                    "revert": false,
                    "revertMessage": "",
                    "selector": "0xd0e30db0",
                    "status": true,
                    "value": "935"
                },
                "nodeType": 0
            },
            "10": {
                "invocation": {
                    "address": "0x030ba81f1c18d280636f32af80b9aad02cf0854e",
                    "callData": "0x00000000000000000000000000000000000000000000000004a1ff03cd17ac5800000000000000000000000000000000000000000350e7f989bc7392cc1dc4cc",
                    "decodedMethod": {
                        "callParams": [
                            {
                                "name": "amount",
                                "type": "uint256",
                                "value": "333,828,239,192,992,856"
                            },
                            {
                                "name": "index",
                                "type": "uint256",
                                "value": "1,026,264,564,854,957,535,018,206,412"
                            }
                        ],
                        "constructorArguments": "",
                        "name": "mintToTreasury",
                        "returnParams": [],
                        "signature": "mintToTreasury(uint256,uint256)"
                    },
                    "errorInfo": "",
                    "fromAddress": "0x7d2768de32b0b80b7a3454c06bdac94a69ddc7a9",
                    "gasUsed": 38569,
                    "id": 10,
                    "methodDecoded": true,
                    "operation": "CALL",
                    "output": "",
                    "revert": false,
                    "revertMessage": "",
                    "selector": "0x7df5bd3b",
                    "status": true,
                    "value": "0"
                },
                "nodeType": 0
            },
            "11": {
                "invocation": {
                    "address": "0x541dcd3f00bcd1a683cc73e1b2a8693b602201f4",
                    "callData": "0x00000000000000000000000000000000000000000000000004a1ff03cd17ac5800000000000000000000000000000000000000000350e7f989bc7392cc1dc4cc",
                    "decodedMethod": {
                        "callParams": [
                            {
                                "name": "amount",
                                "type": "uint256",
                                "value": "333,828,239,192,992,856"
                            },
                            {
                                "name": "index",
                                "type": "uint256",
                                "value": "1,026,264,564,854,957,535,018,206,412"
                            }
                        ],
                        "constructorArguments": "",
                        "name": "mintToTreasury",
                        "returnParams": [],
                        "signature": "mintToTreasury(uint256,uint256)"
                    },
                    "errorInfo": "",
                    "fromAddress": "0x030ba81f1c18d280636f32af80b9aad02cf0854e",
                    "gasUsed": 33458,
                    "id": 11,
                    "methodDecoded": true,
                    "operation": "DELEGATECALL",
                    "output": "",
                    "revert": false,
                    "revertMessage": "",
                    "selector": "0x7df5bd3b",
                    "status": true,
                    "value": "0"
                },
                "nodeType": 0
            },
            "12": {
                "invocation": {
                    "address": "0xd784927ff2f95ba542bfc824c8a8a98f3495f6b5",
                    "callData": "0x000000000000000000000000464c71f6c2f760dda6093dcb91c24c39e5d6e18c00000000000000000000000000000000000000000000752a070da96f76a5894c00000000000000000000000000000000000000000000005ad9f73c0739938032",
                    "decodedMethod": {
                        "callParams": [
                            {
                                "name": "user",
                                "type": "address",
                                "value": "0x464c71f6c2f760dda6093dcb91c24c39e5d6e18c"
                            },
                            {
                                "name": "totalSupply",
                                "type": "uint256",
                                "value": "553,292,149,995,473,450,928,460"
                            },
                            {
                                "name": "userBalance",
                                "type": "uint256",
                                "value": "1,675,913,054,861,065,945,138"
                            }
                        ],
                        "constructorArguments": "",
                        "name": "handleAction",
                        "returnParams": [],
                        "signature": "handleAction(address,uint256,uint256)"
                    },
                    "errorInfo": "",
                    "fromAddress": "0x030ba81f1c18d280636f32af80b9aad02cf0854e",
                    "gasUsed": 15654,
                    "id": 12,
                    "methodDecoded": true,
                    "operation": "CALL",
                    "output": "",
                    "revert": false,
                    "revertMessage": "",
                    "selector": "0x31873e2e",
                    "status": true,
                    "value": "0"
                },
                "nodeType": 0
            },
            "13": {
                "invocation": {
                    "address": "0xd9ed413bcf58c266f95fe6ba63b13cf79299ce31",
                    "callData": "0x000000000000000000000000464c71f6c2f760dda6093dcb91c24c39e5d6e18c00000000000000000000000000000000000000000000752a070da96f76a5894c00000000000000000000000000000000000000000000005ad9f73c0739938032",
                    "decodedMethod": {
                        "callParams": [
                            {
                                "name": "user",
                                "type": "address",
                                "value": "0x464c71f6c2f760dda6093dcb91c24c39e5d6e18c"
                            },
                            {
                                "name": "totalSupply",
                                "type": "uint256",
                                "value": "553,292,149,995,473,450,928,460"
                            },
                            {
                                "name": "userBalance",
                                "type": "uint256",
                                "value": "1,675,913,054,861,065,945,138"
                            }
                        ],
                        "constructorArguments": "",
                        "name": "handleAction",
                        "returnParams": [],
                        "signature": "handleAction(address,uint256,uint256)"
                    },
                    "errorInfo": "",
                    "fromAddress": "0xd784927ff2f95ba542bfc824c8a8a98f3495f6b5",
                    "gasUsed": 10537,
                    "id": 13,
                    "methodDecoded": true,
                    "operation": "DELEGATECALL",
                    "output": "",
                    "revert": false,
                    "revertMessage": "",
                    "selector": "0x31873e2e",
                    "status": true,
                    "value": "0"
                },
                "nodeType": 0
            },
            "14": {
                "event": {
                    "contract": "0x030ba81f1c18d280636f32af80b9aad02cf0854e",
                    "decodedLog": {
                        "name": "Transfer",
                        "params": [
                            {
                                "name": "from",
                                "type": "address",
                                "value": "0x0000000000000000000000000000000000000000"
                            },
                            {
                                "name": "to",
                                "type": "address",
                                "value": "0x464c71f6c2f760dda6093dcb91c24c39e5d6e18c"
                            },
                            {
                                "decimalAvailable": true,
                                "name": "value",
                                "type": "uint256",
                                "value": "333,828,239,192,992,856"
                            }
                        ],
                        "signature": "Transfer(address,address,uint256)"
                    },
                    "id": 14,
                    "logData": "0x00000000000000000000000000000000000000000000000004a1ff03cd17ac58",
                    "logDecoded": true,
                    "operation": "EVENT",
                    "revert": false,
                    "status": true,
                    "topics": [
                        "0xddf252ad1be2c89b69c2b068fc378daa952ba7f163c4a11628f55a4df523b3ef",
                        "0x0000000000000000000000000000000000000000000000000000000000000000",
                        "0x000000000000000000000000464c71f6c2f760dda6093dcb91c24c39e5d6e18c"
                    ]
                },
                "nodeType": 1
            },
            "15": {
                "event": {
                    "contract": "0x030ba81f1c18d280636f32af80b9aad02cf0854e",
                    "decodedLog": {
                        "name": "Mint",
                        "params": [
                            {
                                "name": "sender",
                                "type": "address",
                                "value": "0x464c71f6c2f760dda6093dcb91c24c39e5d6e18c"
                            },
                            {
                                "name": "amount0",
                                "type": "uint256",
                                "value": "333,828,239,192,992,856"
                            },
                            {
                                "name": "amount1",
                                "type": "uint256",
                                "value": "1,026,264,564,854,957,535,018,206,412"
                            }
                        ],
                        "signature": "Mint(address,uint256,uint256)"
                    },
                    "id": 15,
                    "logData": "0x00000000000000000000000000000000000000000000000004a1ff03cd17ac5800000000000000000000000000000000000000000350e7f989bc7392cc1dc4cc",
                    "logDecoded": true,
                    "operation": "EVENT",
                    "revert": false,
                    "status": true,
                    "topics": [
                        "0x4c209b5fc8ad50758f13e2e1088ba56a560dff690a1c6fef26394f4c03821c4f",
                        "0x000000000000000000000000464c71f6c2f760dda6093dcb91c24c39e5d6e18c"
                    ]
                },
                "nodeType": 1
            },
            "16": {
                "invocation": {
                    "address": "0x4e977830ba4bd783c0bb7f15d3e243f73ff57121",
                    "callData": "0x",
                    "decodedMethod": {
                        "callParams": [],
                        "constructorArguments": "",
                        "name": "getTotalSupplyAndAvgRate",
                        "returnParams": [
                            {
                                "name": "",
                                "type": "uint256",
                                "value": "102,465,893,517,941,544,988"
                            },
                            {
                                "name": "",
                                "type": "uint256",
                                "value": "63,848,115,878,431,291,706,090,075"
                            }
                        ],
                        "signature": "getTotalSupplyAndAvgRate()"
                    },
                    "errorInfo": "",
                    "fromAddress": "0x7d2768de32b0b80b7a3454c06bdac94a69ddc7a9",
                    "gasUsed": 3535,
                    "id": 16,
                    "methodDecoded": true,
                    "operation": "STATICCALL",
                    "output": "0x0000000000000000000000000000000000000000000000058dfffb4459e8181c00000000000000000000000000000000000000000034d05d4c16f13b50a6a25b",
                    "revert": false,
                    "revertMessage": "",
                    "selector": "0xf731e9be",
                    "status": true,
                    "value": "0"
                },
                "nodeType": 0
            },
            "17": {
                "invocation": {
                    "address": "0xa558ea1a875f8b576f0728d32c39f62158e49b92",
                    "callData": "0x",
                    "decodedMethod": {
                        "callParams": [],
                        "constructorArguments": "",
                        "name": "getTotalSupplyAndAvgRate",
                        "returnParams": [
                            {
                                "name": "",
                                "type": "uint256",
                                "value": "102,465,893,517,941,544,988"
                            },
                            {
                                "name": "",
                                "type": "uint256",
                                "value": "63,848,115,878,431,291,706,090,075"
                            }
                        ],
                        "signature": "getTotalSupplyAndAvgRate()"
                    },
                    "errorInfo": "",
                    "fromAddress": "0x4e977830ba4bd783c0bb7f15d3e243f73ff57121",
                    "gasUsed": 2924,
                    "id": 17,
                    "methodDecoded": true,
                    "operation": "DELEGATECALL",
                    "output": "0x0000000000000000000000000000000000000000000000058dfffb4459e8181c00000000000000000000000000000000000000000034d05d4c16f13b50a6a25b",
                    "revert": false,
                    "revertMessage": "",
                    "selector": "0xf731e9be",
                    "status": true,
                    "value": "0"
                },
                "nodeType": 0
            },
            "18": {
                "invocation": {
                    "address": "0xf63b34710400cad3e044cffdcab00a0f32e33ecf",
                    "callData": "0x",
                    "decodedMethod": {
                        "callParams": [],
                        "constructorArguments": "",
                        "name": "scaledTotalSupply",
                        "returnParams": [
                            {
                                "name": "",
                                "type": "uint256",
                                "value": "329,323,846,177,928,832,958,764"
                            }
                        ],
                        "signature": "scaledTotalSupply()"
                    },
                    "errorInfo": "",
                    "fromAddress": "0x7d2768de32b0b80b7a3454c06bdac94a69ddc7a9",
                    "gasUsed": 963,
                    "id": 18,
                    "methodDecoded": true,
                    "operation": "STATICCALL",
                    "output": "0x0000000000000000000000000000000000000000000045bcae75124f1fa9412c",
                    "revert": false,
                    "revertMessage": "",
                    "selector": "0xb1bf962d",
                    "status": true,
                    "value": "0"
                },
                "nodeType": 0
            },
            "19": {
                "invocation": {
                    "address": "0xddde1fa049209bc24b69d5fa316a56efec918d79",
                    "callData": "0x",
                    "decodedMethod": {
                        "callParams": [],
                        "constructorArguments": "",
                        "name": "scaledTotalSupply",
                        "returnParams": [
                            {
                                "name": "",
                                "type": "uint256",
                                "value": "329,323,846,177,928,832,958,764"
                            }
                        ],
                        "signature": "scaledTotalSupply()"
                    },
                    "errorInfo": "",
                    "fromAddress": "0xf63b34710400cad3e044cffdcab00a0f32e33ecf",
                    "gasUsed": 355,
                    "id": 19,
                    "methodDecoded": true,
                    "operation": "DELEGATECALL",
                    "output": "0x0000000000000000000000000000000000000000000045bcae75124f1fa9412c",
                    "revert": false,
                    "revertMessage": "",
                    "selector": "0xb1bf962d",
                    "status": true,
                    "value": "0"
                },
                "nodeType": 0
            },
            "2": {
                "event": {
                    "contract": "0xc02aaa39b223fe8d0a0e5c4f27ead9083c756cc2",
                    "decodedLog": {
                        "name": "Deposit",
                        "params": [
                            {
                                "name": "dst",
                                "type": "address",
                                "value": "0xeffc18fc3b7eb8e676dac549e0c693ad50d1ce31"
                            },
                            {
                                "name": "wad",
                                "type": "uint256",
                                "value": "935,000,000,000,000,000,000"
                            }
                        ],
                        "signature": "Deposit(address,uint256)"
                    },
                    "id": 2,
                    "logData": "0x000000000000000000000000000000000000000000000032afbb4a285e3c0000",
                    "logDecoded": true,
                    "operation": "EVENT",
                    "revert": false,
                    "status": true,
                    "topics": [
                        "0xe1fffcc4923d04b559f4d29a8bfc6cda04eb5b0d3c460751c2402c5c5cc9109c",
                        "0x000000000000000000000000effc18fc3b7eb8e676dac549e0c693ad50d1ce31"
                    ]
                },
                "nodeType": 1
            },
            "20": {
                "invocation": {
                    "address": "0xc02aaa39b223fe8d0a0e5c4f27ead9083c756cc2",
                    "callData": "0x000000000000000000000000030ba81f1c18d280636f32af80b9aad02cf0854e",
                    "decodedMethod": {
                        "callParams": [
                            {
                                "name": "",
                                "type": "address",
                                "value": "0x030ba81f1c18d280636f32af80b9aad02cf0854e"
                            }
                        ],
                        "constructorArguments": "",
                        "name": "balanceOf",
                        "returnParams": [
                            {
                                "decimalAvailable": true,
                                "name": "",
                                "type": "uint256",
                                "value": "221,695,743,746,324,392,673,444"
                            }
                        ],
                        "signature": "balanceOf(address)"
                    },
                    "errorInfo": "",
                    "fromAddress": "0x7d2768de32b0b80b7a3454c06bdac94a69ddc7a9",
                    "gasUsed": 2534,
                    "id": 20,
                    "methodDecoded": true,
                    "operation": "STATICCALL",
                    "output": "0x000000000000000000000000000000000000000000002ef2267d56e40d0980a4",
                    "revert": false,
                    "revertMessage": "",
                    "selector": "0x70a08231",
                    "status": true,
                    "value": "0"
                },
                "nodeType": 0
            },
            "21": {
                "invocation": {
                    "address": "0xb8975328aa52c00b9ec1e11e518c4900f2e6c62a",
                    "callData": "0x000000000000000000000000c02aaa39b223fe8d0a0e5c4f27ead9083c756cc2000000000000000000000000000000000000000000002f24d638a10c6b4580a40000000000000000000000000000000000000000000000058dfffb4459e8181c00000000000000000000000000000000000000000000493bc9cce2c7b86abc2500000000000000000000000000000000000000000034d05d4c16f13b50a6a25b00000000000000000000000000000000000000000000000000000000000005dc",
                    "decodedMethod": {
                        "callParams": [
                            {
                                "name": "reserve",
                                "type": "address",
                                "value": "0xc02aaa39b223fe8d0a0e5c4f27ead9083c756cc2"
                            },
                            {
                                "name": "availableLiquidity",
                                "type": "uint256",
                                "value": "222,630,743,746,324,392,673,444"
                            },
                            {
                                "name": "totalStableDebt",
                                "type": "uint256",
                                "value": "102,465,893,517,941,544,988"
                            },
                            {
                                "name": "totalVariableDebt",
                                "type": "uint256",
                                "value": "345,835,652,396,477,257,006,117"
                            },
                            {
                                "name": "averageStableBorrowRate",
                                "type": "uint256",
                                "value": "63,848,115,878,431,291,706,090,075"
                            },
                            {
                                "name": "reserveFactor",
                                "type": "uint256",
                                "value": "1,500"
                            }
                        ],
                        "constructorArguments": "",
                        "name": "calculateInterestRates",
                        "returnParams": [
                            {
                                "name": "",
                                "type": "uint256",
                                "value": "20,122,160,982,805,230,343,354,663"
                            },
                            {
                                "name": "",
                                "type": "uint256",
                                "value": "60,421,831,143,814,645,720,274,509"
                            },
                            {
                                "name": "",
                                "type": "uint256",
                                "value": "38,900,739,586,623,913,434,260,784"
                            }
                        ],
                        "signature": "calculateInterestRates(address,uint256,uint256,uint256,uint256,uint256)"
                    },
                    "errorInfo": "",
                    "fromAddress": "0x7d2768de32b0b80b7a3454c06bdac94a69ddc7a9",
                    "gasUsed": 15763,
                    "id": 21,
                    "methodDecoded": true,
                    "operation": "STATICCALL",
                    "output": "0x00000000000000000000000000000000000000000010a508885aa34ba8c2f92700000000000000000000000000000000000000000031fad20792cdedbe63d64d000000000000000000000000000000000000000000202d8d518cdadc1f2ba530",
                    "revert": false,
                    "revertMessage": "",
                    "selector": "0x9584df28",
                    "status": true,
                    "value": "0"
                },
                "nodeType": 0
            },
            "22": {
                "invocation": {
                    "address": "0xb53c1a33016b2dc2ff3653530bff1848a515c8c5",
                    "callData": "0x",
                    "decodedMethod": {
                        "callParams": [],
                        "constructorArguments": "",
                        "name": "getLendingRateOracle",
                        "returnParams": [
                            {
                                "name": "",
                                "type": "address",
                                "value": "0x8a32f49ffba88aba6eff96f45d8bd1d4b3f35c7d"
                            }
                        ],
                        "signature": "getLendingRateOracle()"
                    },
                    "errorInfo": "",
                    "fromAddress": "0xb8975328aa52c00b9ec1e11e518c4900f2e6c62a",
                    "gasUsed": 2559,
                    "id": 22,
                    "methodDecoded": true,
                    "operation": "STATICCALL",
                    "output": "0x0000000000000000000000008a32f49ffba88aba6eff96f45d8bd1d4b3f35c7d",
                    "revert": false,
                    "revertMessage": "",
                    "selector": "0x3618abba",
                    "status": true,
                    "value": "0"
                },
                "nodeType": 0
            },
            "23": {
                "invocation": {
                    "address": "0x8a32f49ffba88aba6eff96f45d8bd1d4b3f35c7d",
                    "callData": "0x000000000000000000000000c02aaa39b223fe8d0a0e5c4f27ead9083c756cc2",
                    "decodedMethod": {
                        "callParams": [
                            {
                                "name": "asset",
                                "type": "address",
                                "value": "0xc02aaa39b223fe8d0a0e5c4f27ead9083c756cc2"
                            }
                        ],
                        "constructorArguments": "",
                        "name": "getMarketBorrowRate",
                        "returnParams": [
                            {
                                "name": "",
                                "type": "uint256",
                                "value": "30,000,000,000,000,000,000,000,000"
                            }
                        ],
                        "signature": "getMarketBorrowRate(address)"
                    },
                    "errorInfo": "",
                    "fromAddress": "0xb8975328aa52c00b9ec1e11e518c4900f2e6c62a",
                    "gasUsed": 2486,
                    "id": 23,
                    "methodDecoded": true,
                    "operation": "STATICCALL",
                    "output": "0x00000000000000000000000000000000000000000018d0bf423c03d8de000000",
                    "revert": false,
                    "revertMessage": "",
                    "selector": "0xbb85c0bb",
                    "status": true,
                    "value": "0"
                },
                "nodeType": 0
            },
            "24": {
                "event": {
                    "contract": "0x7d2768de32b0b80b7a3454c06bdac94a69ddc7a9",
                    "decodedLog": {
                        "name": "ReserveDataUpdated",
                        "params": [
                            {
                                "name": "reserve",
                                "type": "address",
                                "value": "0xc02aaa39b223fe8d0a0e5c4f27ead9083c756cc2"
                            },
                            {
                                "name": "liquidityRate",
                                "type": "uint256",
                                "value": "20,122,160,982,805,230,343,354,663"
                            },
                            {
                                "name": "stableBorrowRate",
                                "type": "uint256",
                                "value": "60,421,831,143,814,645,720,274,509"
                            },
                            {
                                "name": "variableBorrowRate",
                                "type": "uint256",
                                "value": "38,900,739,586,623,913,434,260,784"
                            },
                            {
                                "name": "liquidityIndex",
                                "type": "uint256",
                                "value": "1,026,264,564,854,957,535,018,206,412"
                            },
                            {
                                "name": "variableBorrowIndex",
                                "type": "uint256",
                                "value": "1,050,138,507,764,261,133,627,608,396"
                            }
                        ],
                        "signature": "ReserveDataUpdated(address,uint256,uint256,uint256,uint256,uint256)"
                    },
                    "id": 24,
                    "logData": "0x00000000000000000000000000000000000000000010a508885aa34ba8c2f92700000000000000000000000000000000000000000031fad20792cdedbe63d64d000000000000000000000000000000000000000000202d8d518cdadc1f2ba53000000000000000000000000000000000000000000350e7f989bc7392cc1dc4cc00000000000000000000000000000000000000000364a77a93913c9088cecd4c",
                    "logDecoded": true,
                    "operation": "EVENT",
                    "revert": false,
                    "status": true,
                    "topics": [
                        "0x804c9b842b2748a22bb64b345453a3de7ca54a6ca45ce00d415894979e22897a",
                        "0x000000000000000000000000c02aaa39b223fe8d0a0e5c4f27ead9083c756cc2"
                    ]
                },
                "nodeType": 1
            },
            "25": {
                "invocation": {
                    "address": "0xc02aaa39b223fe8d0a0e5c4f27ead9083c756cc2",
                    "callData": "0x000000000000000000000000effc18fc3b7eb8e676dac549e0c693ad50d1ce31000000000000000000000000030ba81f1c18d280636f32af80b9aad02cf0854e000000000000000000000000000000000000000000000032afbb4a285e3c0000",
                    "decodedMethod": {
                        "callParams": [
                            {
                                "name": "src",
                                "type": "address",
                                "value": "0xeffc18fc3b7eb8e676dac549e0c693ad50d1ce31"
                            },
                            {
                                "name": "dst",
                                "type": "address",
                                "value": "0x030ba81f1c18d280636f32af80b9aad02cf0854e"
                            },
                            {
                                "decimalAvailable": true,
                                "name": "wad",
                                "type": "uint256",
                                "value": "935,000,000,000,000,000,000"
                            }
                        ],
                        "constructorArguments": "",
                        "name": "transferFrom",
                        "returnParams": [
                            {
                                "name": "",
                                "type": "bool",
                                "value": true
                            }
                        ],
                        "signature": "transferFrom(address,address,uint256)"
                    },
                    "errorInfo": "",
                    "fromAddress": "0x7d2768de32b0b80b7a3454c06bdac94a69ddc7a9",
                    "gasUsed": 8225,
                    "id": 25,
                    "methodDecoded": true,
                    "operation": "CALL",
                    "output": "0x0000000000000000000000000000000000000000000000000000000000000001",
                    "revert": false,
                    "revertMessage": "",
                    "selector": "0x23b872dd",
                    "status": true,
                    "value": "0"
                },
                "nodeType": 0
            },
            "26": {
                "event": {
                    "contract": "0xc02aaa39b223fe8d0a0e5c4f27ead9083c756cc2",
                    "decodedLog": {
                        "name": "Transfer",
                        "params": [
                            {
                                "name": "src",
                                "type": "address",
                                "value": "0xeffc18fc3b7eb8e676dac549e0c693ad50d1ce31"
                            },
                            {
                                "name": "dst",
                                "type": "address",
                                "value": "0x030ba81f1c18d280636f32af80b9aad02cf0854e"
                            },
                            {
                                "decimalAvailable": true,
                                "name": "wad",
                                "type": "uint256",
                                "value": "935,000,000,000,000,000,000"
                            }
                        ],
                        "signature": "Transfer(address,address,uint256)"
                    },
                    "id": 26,
                    "logData": "0x000000000000000000000000000000000000000000000032afbb4a285e3c0000",
                    "logDecoded": true,
                    "operation": "EVENT",
                    "revert": false,
                    "status": true,
                    "topics": [
                        "0xddf252ad1be2c89b69c2b068fc378daa952ba7f163c4a11628f55a4df523b3ef",
                        "0x000000000000000000000000effc18fc3b7eb8e676dac549e0c693ad50d1ce31",
                        "0x000000000000000000000000030ba81f1c18d280636f32af80b9aad02cf0854e"
                    ]
                },
                "nodeType": 1
            },
            "27": {
                "invocation": {
                    "address": "0x030ba81f1c18d280636f32af80b9aad02cf0854e",
                    "callData": "0x000000000000000000000000dd9bd62d1c08210fdda6f841ed5196b45a939625000000000000000000000000000000000000000000000032afbb4a285e3c000000000000000000000000000000000000000000000350e7f989bc7392cc1dc4cc",
                    "decodedMethod": {
                        "callParams": [
                            {
                                "name": "_to",
                                "type": "address",
                                "value": "0xdd9bd62d1c08210fdda6f841ed5196b45a939625"
                            },
                            {
                                "name": "_id",
                                "type": "uint256",
                                "value": "935,000,000,000,000,000,000"
                            },
                            {
                                "name": "_amount",
                                "type": "uint256",
                                "value": "1,026,264,564,854,957,535,018,206,412"
                            }
                        ],
                        "constructorArguments": "",
                        "name": "mint",
                        "returnParams": [],
                        "signature": "mint(address,uint256,uint256)"
                    },
                    "errorInfo": "",
                    "fromAddress": "0x7d2768de32b0b80b7a3454c06bdac94a69ddc7a9",
                    "gasUsed": 15253,
                    "id": 27,
                    "methodDecoded": true,
                    "operation": "CALL",
                    "output": "0x0000000000000000000000000000000000000000000000000000000000000000",
                    "revert": false,
                    "revertMessage": "",
                    "selector": "0x156e29f6",
                    "status": true,
                    "value": "0"
                },
                "nodeType": 0
            },
            "28": {
                "invocation": {
                    "address": "0x541dcd3f00bcd1a683cc73e1b2a8693b602201f4",
                    "callData": "0x000000000000000000000000dd9bd62d1c08210fdda6f841ed5196b45a939625000000000000000000000000000000000000000000000032afbb4a285e3c000000000000000000000000000000000000000000000350e7f989bc7392cc1dc4cc",
                    "decodedMethod": {
                        "callParams": [
                            {
                                "name": "user",
                                "type": "address",
                                "value": "0xdd9bd62d1c08210fdda6f841ed5196b45a939625"
                            },
                            {
                                "name": "amount",
                                "type": "uint256",
                                "value": "935,000,000,000,000,000,000"
                            },
                            {
                                "name": "index",
                                "type": "uint256",
                                "value": "1,026,264,564,854,957,535,018,206,412"
                            }
                        ],
                        "constructorArguments": "",
                        "name": "mint",
                        "returnParams": [
                            {
                                "name": "",
                                "type": "bool",
                                "value": false
                            }
                        ],
                        "signature": "mint(address,uint256,uint256)"
                    },
                    "errorInfo": "",
                    "fromAddress": "0x030ba81f1c18d280636f32af80b9aad02cf0854e",
                    "gasUsed": 14633,
                    "id": 28,
                    "methodDecoded": true,
                    "operation": "DELEGATECALL",
                    "output": "0x0000000000000000000000000000000000000000000000000000000000000000",
                    "revert": false,
                    "revertMessage": "",
                    "selector": "0x156e29f6",
                    "status": true,
                    "value": "0"
                },
                "nodeType": 0
            },
            "29": {
                "invocation": {
                    "address": "0xd784927ff2f95ba542bfc824c8a8a98f3495f6b5",
                    "callData": "0x000000000000000000000000dd9bd62d1c08210fdda6f841ed5196b45a93962500000000000000000000000000000000000000000000752a0b914e3740a06cfd000000000000000000000000000000000000000000000002c0f80c8f7df95ca6",
                    "decodedMethod": {
                        "callParams": [
                            {
                                "name": "user",
                                "type": "address",
                                "value": "0xdd9bd62d1c08210fdda6f841ed5196b45a939625"
                            },
                            {
                                "name": "totalSupply",
                                "type": "uint256",
                                "value": "553,292,475,280,249,545,846,013"
                            },
                            {
                                "name": "userBalance",
                                "type": "uint256",
                                "value": "50,798,365,807,358,860,454"
                            }
                        ],
                        "constructorArguments": "",
                        "name": "handleAction",
                        "returnParams": [],
                        "signature": "handleAction(address,uint256,uint256)"
                    },
                    "errorInfo": "",
                    "fromAddress": "0x030ba81f1c18d280636f32af80b9aad02cf0854e",
                    "gasUsed": 3771,
                    "id": 29,
                    "methodDecoded": true,
                    "operation": "CALL",
                    "output": "",
                    "revert": false,
                    "revertMessage": "",
                    "selector": "0x31873e2e",
                    "status": true,
                    "value": "0"
                },
                "nodeType": 0
            },
            "3": {
                "invocation": {
                    "address": "0x7d2768de32b0b80b7a3454c06bdac94a69ddc7a9",
                    "callData": "0x000000000000000000000000c02aaa39b223fe8d0a0e5c4f27ead9083c756cc2000000000000000000000000000000000000000000000032afbb4a285e3c0000000000000000000000000000dd9bd62d1c08210fdda6f841ed5196b45a9396250000000000000000000000000000000000000000000000000000000000000000",
                    "decodedMethod": {
                        "callParams": [
                            {
                                "name": "asset",
                                "type": "address",
                                "value": "0xc02aaa39b223fe8d0a0e5c4f27ead9083c756cc2"
                            },
                            {
                                "name": "amount",
                                "type": "uint256",
                                "value": "935,000,000,000,000,000,000"
                            },
                            {
                                "name": "onBehalfOf",
                                "type": "address",
                                "value": "0xdd9bd62d1c08210fdda6f841ed5196b45a939625"
                            },
                            {
                                "name": "referralCode",
                                "type": "uint16",
                                "value": "0"
                            }
                        ],
                        "constructorArguments": "",
                        "name": "deposit",
                        "returnParams": [],
                        "signature": "deposit(address,uint256,address,uint16)"
                    },
                    "errorInfo": "",
                    "fromAddress": "0xeffc18fc3b7eb8e676dac549e0c693ad50d1ce31",
                    "gasUsed": 176128,
                    "id": 3,
                    "methodDecoded": true,
                    "operation": "CALL",
                    "output": "",
                    "revert": false,
                    "revertMessage": "",
                    "selector": "0xe8eda9df",
                    "status": true,
                    "value": "0"
                },
                "nodeType": 0
            },
            "30": {
                "invocation": {
                    "address": "0xd9ed413bcf58c266f95fe6ba63b13cf79299ce31",
                    "callData": "0x000000000000000000000000dd9bd62d1c08210fdda6f841ed5196b45a93962500000000000000000000000000000000000000000000752a0b914e3740a06cfd000000000000000000000000000000000000000000000002c0f80c8f7df95ca6",
                    "decodedMethod": {
                        "callParams": [
                            {
                                "name": "user",
                                "type": "address",
                                "value": "0xdd9bd62d1c08210fdda6f841ed5196b45a939625"
                            },
                            {
                                "name": "totalSupply",
                                "type": "uint256",
                                "value": "553,292,475,280,249,545,846,013"
                            },
                            {
                                "name": "userBalance",
                                "type": "uint256",
                                "value": "50,798,365,807,358,860,454"
                            }
                        ],
                        "constructorArguments": "",
                        "name": "handleAction",
                        "returnParams": [],
                        "signature": "handleAction(address,uint256,uint256)"
                    },
                    "errorInfo": "",
                    "fromAddress": "0xd784927ff2f95ba542bfc824c8a8a98f3495f6b5",
                    "gasUsed": 3154,
                    "id": 30,
                    "methodDecoded": true,
                    "operation": "DELEGATECALL",
                    "output": "",
                    "revert": false,
                    "revertMessage": "",
                    "selector": "0x31873e2e",
                    "status": true,
                    "value": "0"
                },
                "nodeType": 0
            },
            "31": {
                "event": {
                    "contract": "0x030ba81f1c18d280636f32af80b9aad02cf0854e",
                    "decodedLog": {
                        "name": "Transfer",
                        "params": [
                            {
                                "name": "from",
                                "type": "address",
                                "value": "0x0000000000000000000000000000000000000000"
                            },
                            {
                                "name": "to",
                                "type": "address",
                                "value": "0xdd9bd62d1c08210fdda6f841ed5196b45a939625"
                            },
                            {
                                "decimalAvailable": true,
                                "name": "value",
                                "type": "uint256",
                                "value": "935,000,000,000,000,000,000"
                            }
                        ],
                        "signature": "Transfer(address,address,uint256)"
                    },
                    "id": 31,
                    "logData": "0x000000000000000000000000000000000000000000000032afbb4a285e3c0000",
                    "logDecoded": true,
                    "operation": "EVENT",
                    "revert": false,
                    "status": true,
                    "topics": [
                        "0xddf252ad1be2c89b69c2b068fc378daa952ba7f163c4a11628f55a4df523b3ef",
                        "0x0000000000000000000000000000000000000000000000000000000000000000",
                        "0x000000000000000000000000dd9bd62d1c08210fdda6f841ed5196b45a939625"
                    ]
                },
                "nodeType": 1
            },
            "32": {
                "event": {
                    "contract": "0x030ba81f1c18d280636f32af80b9aad02cf0854e",
                    "decodedLog": {
                        "name": "Mint",
                        "params": [
                            {
                                "name": "sender",
                                "type": "address",
                                "value": "0xdd9bd62d1c08210fdda6f841ed5196b45a939625"
                            },
                            {
                                "name": "amount0",
                                "type": "uint256",
                                "value": "935,000,000,000,000,000,000"
                            },
                            {
                                "name": "amount1",
                                "type": "uint256",
                                "value": "1,026,264,564,854,957,535,018,206,412"
                            }
                        ],
                        "signature": "Mint(address,uint256,uint256)"
                    },
                    "id": 32,
                    "logData": "0x000000000000000000000000000000000000000000000032afbb4a285e3c000000000000000000000000000000000000000000000350e7f989bc7392cc1dc4cc",
                    "logDecoded": true,
                    "operation": "EVENT",
                    "revert": false,
                    "status": true,
                    "topics": [
                        "0x4c209b5fc8ad50758f13e2e1088ba56a560dff690a1c6fef26394f4c03821c4f",
                        "0x000000000000000000000000dd9bd62d1c08210fdda6f841ed5196b45a939625"
                    ]
                },
                "nodeType": 1
            },
            "33": {
                "event": {
                    "contract": "0x7d2768de32b0b80b7a3454c06bdac94a69ddc7a9",
                    "decodedLog": {
                        "name": "Deposit",
                        "params": [
                            {
                                "name": "reserve",
                                "type": "address",
                                "value": "0xc02aaa39b223fe8d0a0e5c4f27ead9083c756cc2"
                            },
                            {
                                "name": "onBehalfOf",
                                "type": "address",
                                "value": "0xdd9bd62d1c08210fdda6f841ed5196b45a939625"
                            },
                            {
                                "name": "referral",
                                "type": "uint16",
                                "value": "0"
                            },
                            {
                                "name": "user",
                                "type": "address",
                                "value": "0xeffc18fc3b7eb8e676dac549e0c693ad50d1ce31"
                            },
                            {
                                "name": "amount",
                                "type": "uint256",
                                "value": "935,000,000,000,000,000,000"
                            }
                        ],
                        "signature": "Deposit(address,address,address,uint256,uint16)"
                    },
                    "id": 33,
                    "logData": "0x000000000000000000000000effc18fc3b7eb8e676dac549e0c693ad50d1ce31000000000000000000000000000000000000000000000032afbb4a285e3c0000",
                    "logDecoded": true,
                    "operation": "EVENT",
                    "revert": false,
                    "status": true,
                    "topics": [
                        "0xde6857219544bb5b7746f48ed30be6386fefc61b2f864cacf559893bf50fd951",
                        "0x000000000000000000000000c02aaa39b223fe8d0a0e5c4f27ead9083c756cc2",
                        "0x000000000000000000000000dd9bd62d1c08210fdda6f841ed5196b45a939625",
                        "0x0000000000000000000000000000000000000000000000000000000000000000"
                    ]
                },
                "nodeType": 1
            },
            "4": {
                "invocation": {
                    "address": "0xc6845a5c768bf8d7681249f8927877efda425baf",
                    "callData": "0x000000000000000000000000c02aaa39b223fe8d0a0e5c4f27ead9083c756cc2000000000000000000000000000000000000000000000032afbb4a285e3c0000000000000000000000000000dd9bd62d1c08210fdda6f841ed5196b45a9396250000000000000000000000000000000000000000000000000000000000000000",
                    "decodedMethod": {
                        "callParams": [
                            {
                                "name": "asset",
                                "type": "address",
                                "value": "0xc02aaa39b223fe8d0a0e5c4f27ead9083c756cc2"
                            },
                            {
                                "name": "amount",
                                "type": "uint256",
                                "value": "935,000,000,000,000,000,000"
                            },
                            {
                                "name": "onBehalfOf",
                                "type": "address",
                                "value": "0xdd9bd62d1c08210fdda6f841ed5196b45a939625"
                            },
                            {
                                "name": "referralCode",
                                "type": "uint16",
                                "value": "0"
                            }
                        ],
                        "constructorArguments": "",
                        "name": "deposit",
                        "returnParams": [],
                        "signature": "deposit(address,uint256,address,uint16)"
                    },
                    "errorInfo": "",
                    "fromAddress": "0x7d2768de32b0b80b7a3454c06bdac94a69ddc7a9",
                    "gasUsed": 171005,
                    "id": 4,
                    "methodDecoded": true,
                    "operation": "DELEGATECALL",
                    "output": "",
                    "revert": false,
                    "revertMessage": "",
                    "selector": "0xe8eda9df",
                    "status": true,
                    "value": "0"
                },
                "nodeType": 0
            },
            "5": {
                "invocation": {
                    "address": "0xf5543cdd5f551635e13ebe07e47d01d0fc9cbbd5",
                    "callData": "0x4cb5a02f592bd29403ce60c982c7f5174b16842da4fff5cfd025d6836dc48d4b000000000000000000000000000000000000000000000032afbb4a285e3c0000",
                    "decodedMethod": null,
                    "errorInfo": "",
                    "fromAddress": "0x7d2768de32b0b80b7a3454c06bdac94a69ddc7a9",
                    "gasUsed": 2720,
                    "id": 5,
                    "methodDecoded": false,
                    "operation": "DELEGATECALL",
                    "output": "",
                    "revert": false,
                    "revertMessage": "",
                    "selector": "0x0eca322b",
                    "status": true,
                    "value": "0"
                },
                "nodeType": 0
            },
            "6": {
                "invocation": {
                    "address": "0xf63b34710400cad3e044cffdcab00a0f32e33ecf",
                    "callData": "0x",
                    "decodedMethod": {
                        "callParams": [],
                        "constructorArguments": "",
                        "name": "scaledTotalSupply",
                        "returnParams": [
                            {
                                "name": "",
                                "type": "uint256",
                                "value": "329,323,846,177,928,832,958,764"
                            }
                        ],
                        "signature": "scaledTotalSupply()"
                    },
                    "errorInfo": "",
                    "fromAddress": "0x7d2768de32b0b80b7a3454c06bdac94a69ddc7a9",
                    "gasUsed": 7463,
                    "id": 6,
                    "methodDecoded": true,
                    "operation": "STATICCALL",
                    "output": "0x0000000000000000000000000000000000000000000045bcae75124f1fa9412c",
                    "revert": false,
                    "revertMessage": "",
                    "selector": "0xb1bf962d",
                    "status": true,
                    "value": "0"
                },
                "nodeType": 0
            },
            "7": {
                "invocation": {
                    "address": "0xddde1fa049209bc24b69d5fa316a56efec918d79",
                    "callData": "0x",
                    "decodedMethod": {
                        "callParams": [],
                        "constructorArguments": "",
                        "name": "scaledTotalSupply",
                        "returnParams": [
                            {
                                "name": "",
                                "type": "uint256",
                                "value": "329,323,846,177,928,832,958,764"
                            }
                        ],
                        "signature": "scaledTotalSupply()"
                    },
                    "errorInfo": "",
                    "fromAddress": "0xf63b34710400cad3e044cffdcab00a0f32e33ecf",
                    "gasUsed": 2355,
                    "id": 7,
                    "methodDecoded": true,
                    "operation": "DELEGATECALL",
                    "output": "0x0000000000000000000000000000000000000000000045bcae75124f1fa9412c",
                    "revert": false,
                    "revertMessage": "",
                    "selector": "0xb1bf962d",
                    "status": true,
                    "value": "0"
                },
                "nodeType": 0
            },
            "8": {
                "invocation": {
                    "address": "0x4e977830ba4bd783c0bb7f15d3e243f73ff57121",
                    "callData": "0x",
                    "decodedMethod": {
                        "callParams": [],
                        "constructorArguments": "",
                        "name": "getSupplyData",
                        "returnParams": [
                            {
                                "name": "",
                                "type": "uint256",
                                "value": "102,460,989,434,066,696,576"
                            },
                            {
                                "name": "",
                                "type": "uint256",
                                "value": "102,465,893,517,941,544,988"
                            },
                            {
                                "name": "",
                                "type": "uint256",
                                "value": "63,848,115,878,431,291,706,090,075"
                            },
                            {
                                "name": "",
                                "type": "uint40",
                                "value": "1,686,177,071"
                            }
                        ],
                        "signature": "getSupplyData()"
                    },
                    "errorInfo": "",
                    "fromAddress": "0x7d2768de32b0b80b7a3454c06bdac94a69ddc7a9",
                    "gasUsed": 14309,
                    "id": 8,
                    "methodDecoded": true,
                    "operation": "STATICCALL",
                    "output": "0x0000000000000000000000000000000000000000000000058dee8f075898f9800000000000000000000000000000000000000000000000058dfffb4459e8181c00000000000000000000000000000000000000000034d05d4c16f13b50a6a25b000000000000000000000000000000000000000000000000000000006481052f",
                    "revert": false,
                    "revertMessage": "",
                    "selector": "0x79774338",
                    "status": true,
                    "value": "0"
                },
                "nodeType": 0
            },
            "9": {
                "invocation": {
                    "address": "0xa558ea1a875f8b576f0728d32c39f62158e49b92",
                    "callData": "0x",
                    "decodedMethod": {
                        "callParams": [],
                        "constructorArguments": "",
                        "name": "getSupplyData",
                        "returnParams": [
                            {
                                "name": "",
                                "type": "uint256",
                                "value": "102,460,989,434,066,696,576"
                            },
                            {
                                "name": "",
                                "type": "uint256",
                                "value": "102,465,893,517,941,544,988"
                            },
                            {
                                "name": "",
                                "type": "uint256",
                                "value": "63,848,115,878,431,291,706,090,075"
                            },
                            {
                                "name": "",
                                "type": "uint40",
                                "value": "1,686,177,071"
                            }
                        ],
                        "signature": "getSupplyData()"
                    },
                    "errorInfo": "",
                    "fromAddress": "0x4e977830ba4bd783c0bb7f15d3e243f73ff57121",
                    "gasUsed": 9189,
                    "id": 9,
                    "methodDecoded": true,
                    "operation": "DELEGATECALL",
                    "output": "0x0000000000000000000000000000000000000000000000058dee8f075898f9800000000000000000000000000000000000000000000000058dfffb4459e8181c00000000000000000000000000000000000000000034d05d4c16f13b50a6a25b000000000000000000000000000000000000000000000000000000006481052f",
                    "revert": false,
                    "revertMessage": "",
                    "selector": "0x79774338",
                    "status": true,
                    "value": "0"
                },
                "nodeType": 0
            }
        },
        "gasFlame": [
            {
                "children": [
                    {
                        "children": [
                            {
                                "children": [],
                                "depth": 0,
                                "name": "Initial Gas",
                                "value": 21928
                            },
                            {
                                "children": [
                                    {
                                        "children": [],
                                        "depth": 1,
                                        "name": "deposit",
                                        "value": 23974
                                    },
                                    {
                                        "children": [
                                            {
                                                "children": [
                                                    {
                                                        "children": [],
                                                        "depth": 3,
                                                        "name": "0x0eca322b",
                                                        "value": 2720
                                                    },
                                                    {
                                                        "children": [
                                                            {
                                                                "children": [],
                                                                "depth": 4,
                                                                "name": "scaledTotalSupply",
                                                                "value": 2355
                                                            }
                                                        ],
                                                        "depth": 3,
                                                        "name": "scaledTotalSupply",
                                                        "value": 7463
                                                    },
                                                    {
                                                        "children": [
                                                            {
                                                                "children": [],
                                                                "depth": 4,
                                                                "name": "getSupplyData",
                                                                "value": 9189
                                                            }
                                                        ],
                                                        "depth": 3,
                                                        "name": "getSupplyData",
                                                        "value": 14309
                                                    },
                                                    {
                                                        "children": [
                                                            {
                                                                "children": [
                                                                    {
                                                                        "children": [
                                                                            {
                                                                                "children": [],
                                                                                "depth": 6,
                                                                                "name": "handleAction",
                                                                                "value": 10537
                                                                            }
                                                                        ],
                                                                        "depth": 5,
                                                                        "name": "handleAction",
                                                                        "value": 15654
                                                                    }
                                                                ],
                                                                "depth": 4,
                                                                "name": "mintToTreasury",
                                                                "value": 33458
                                                            }
                                                        ],
                                                        "depth": 3,
                                                        "name": "mintToTreasury",
                                                        "value": 38569
                                                    },
                                                    {
                                                        "children": [
                                                            {
                                                                "children": [],
                                                                "depth": 4,
                                                                "name": "getTotalSupplyAndAvgRate",
                                                                "value": 2924
                                                            }
                                                        ],
                                                        "depth": 3,
                                                        "name": "getTotalSupplyAndAvgRate",
                                                        "value": 3535
                                                    },
                                                    {
                                                        "children": [
                                                            {
                                                                "children": [],
                                                                "depth": 4,
                                                                "name": "scaledTotalSupply",
                                                                "value": 355
                                                            }
                                                        ],
                                                        "depth": 3,
                                                        "name": "scaledTotalSupply",
                                                        "value": 963
                                                    },
                                                    {
                                                        "children": [],
                                                        "depth": 3,
                                                        "name": "balanceOf",
                                                        "value": 2534
                                                    },
                                                    {
                                                        "children": [
                                                            {
                                                                "children": [],
                                                                "depth": 4,
                                                                "name": "getLendingRateOracle",
                                                                "value": 2559
                                                            },
                                                            {
                                                                "children": [],
                                                                "depth": 4,
                                                                "name": "getMarketBorrowRate",
                                                                "value": 2486
                                                            }
                                                        ],
                                                        "depth": 3,
                                                        "name": "calculateInterestRates",
                                                        "value": 15763
                                                    },
                                                    {
                                                        "children": [],
                                                        "depth": 3,
                                                        "name": "transferFrom",
                                                        "value": 8225
                                                    },
                                                    {
                                                        "children": [
                                                            {
                                                                "children": [
                                                                    {
                                                                        "children": [
                                                                            {
                                                                                "children": [],
                                                                                "depth": 6,
                                                                                "name": "handleAction",
                                                                                "value": 3154
                                                                            }
                                                                        ],
                                                                        "depth": 5,
                                                                        "name": "handleAction",
                                                                        "value": 3771
                                                                    }
                                                                ],
                                                                "depth": 4,
                                                                "name": "mint",
                                                                "value": 14633
                                                            }
                                                        ],
                                                        "depth": 3,
                                                        "name": "mint",
                                                        "value": 15253
                                                    }
                                                ],
                                                "depth": 2,
                                                "name": "deposit",
                                                "value": 171005
                                            }
                                        ],
                                        "depth": 1,
                                        "name": "deposit",
                                        "value": 176128
                                    }
                                ],
                                "depth": 0,
                                "name": "Executed Gas",
                                "value": 213919
                            }
                        ],
                        "depth": -1,
                        "name": "Actual Gas Used",
                        "value": 215947
                    },
                    {
                        "children": [],
                        "depth": -1,
                        "name": "Refunded Gas",
                        "value": 19900
                    }
                ],
                "depth": -2,
                "name": "Total Gas",
                "value": 235847
            }
        ],
        "isConfirmed": true,
        "mainTrace": [
            {
                "children": [
                    {
                        "children": [
                            {
                                "children": [
                                    {
                                        "children": [],
                                        "depth": 2,
                                        "id": 2,
                                        "order": 2
                                    }
                                ],
                                "depth": 1,
                                "id": 1,
                                "order": 1
                            },
                            {
                                "children": [
                                    {
                                        "children": [
                                            {
                                                "children": [],
                                                "depth": 3,
                                                "id": 5,
                                                "order": 5
                                            },
                                            {
                                                "children": [
                                                    {
                                                        "children": [],
                                                        "depth": 4,
                                                        "id": 7,
                                                        "order": 7
                                                    }
                                                ],
                                                "depth": 3,
                                                "id": 6,
                                                "order": 6
                                            },
                                            {
                                                "children": [
                                                    {
                                                        "children": [],
                                                        "depth": 4,
                                                        "id": 9,
                                                        "order": 9
                                                    }
                                                ],
                                                "depth": 3,
                                                "id": 8,
                                                "order": 8
                                            },
                                            {
                                                "children": [
                                                    {
                                                        "children": [
                                                            {
                                                                "children": [
                                                                    {
                                                                        "children": [],
                                                                        "depth": 6,
                                                                        "id": 13,
                                                                        "order": 13
                                                                    }
                                                                ],
                                                                "depth": 5,
                                                                "id": 12,
                                                                "order": 12
                                                            },
                                                            {
                                                                "children": [],
                                                                "depth": 5,
                                                                "id": 14,
                                                                "order": 14
                                                            },
                                                            {
                                                                "children": [],
                                                                "depth": 5,
                                                                "id": 15,
                                                                "order": 15
                                                            }
                                                        ],
                                                        "depth": 4,
                                                        "id": 11,
                                                        "order": 11
                                                    }
                                                ],
                                                "depth": 3,
                                                "id": 10,
                                                "order": 10
                                            },
                                            {
                                                "children": [
                                                    {
                                                        "children": [],
                                                        "depth": 4,
                                                        "id": 17,
                                                        "order": 17
                                                    }
                                                ],
                                                "depth": 3,
                                                "id": 16,
                                                "order": 16
                                            },
                                            {
                                                "children": [
                                                    {
                                                        "children": [],
                                                        "depth": 4,
                                                        "id": 19,
                                                        "order": 19
                                                    }
                                                ],
                                                "depth": 3,
                                                "id": 18,
                                                "order": 18
                                            },
                                            {
                                                "children": [],
                                                "depth": 3,
                                                "id": 20,
                                                "order": 20
                                            },
                                            {
                                                "children": [
                                                    {
                                                        "children": [],
                                                        "depth": 4,
                                                        "id": 22,
                                                        "order": 22
                                                    },
                                                    {
                                                        "children": [],
                                                        "depth": 4,
                                                        "id": 23,
                                                        "order": 23
                                                    }
                                                ],
                                                "depth": 3,
                                                "id": 21,
                                                "order": 21
                                            },
                                            {
                                                "children": [],
                                                "depth": 3,
                                                "id": 24,
                                                "order": 24
                                            },
                                            {
                                                "children": [
                                                    {
                                                        "children": [],
                                                        "depth": 4,
                                                        "id": 26,
                                                        "order": 26
                                                    }
                                                ],
                                                "depth": 3,
                                                "id": 25,
                                                "order": 25
                                            },
                                            {
                                                "children": [
                                                    {
                                                        "children": [
                                                            {
                                                                "children": [
                                                                    {
                                                                        "children": [],
                                                                        "depth": 6,
                                                                        "id": 30,
                                                                        "order": 30
                                                                    }
                                                                ],
                                                                "depth": 5,
                                                                "id": 29,
                                                                "order": 29
                                                            },
                                                            {
                                                                "children": [],
                                                                "depth": 5,
                                                                "id": 31,
                                                                "order": 31
                                                            },
                                                            {
                                                                "children": [],
                                                                "depth": 5,
                                                                "id": 32,
                                                                "order": 32
                                                            }
                                                        ],
                                                        "depth": 4,
                                                        "id": 28,
                                                        "order": 28
                                                    }
                                                ],
                                                "depth": 3,
                                                "id": 27,
                                                "order": 27
                                            },
                                            {
                                                "children": [],
                                                "depth": 3,
                                                "id": 33,
                                                "order": 33
                                            }
                                        ],
                                        "depth": 2,
                                        "id": 4,
                                        "order": 4
                                    }
                                ],
                                "depth": 1,
                                "id": 3,
                                "order": 3
                            }
                        ],
                        "depth": 0,
                        "id": 0,
                        "order": 0
                    }
                ],
                "depth": -1,
                "id": -1,
                "order": -1
            }
        ],
        "mainTraceNodeCount": 34,
        "parentIdMap": {
            "0": -1,
            "1": 0,
            "10": 4,
            "11": 10,
            "12": 11,
            "13": 12,
            "14": 11,
            "15": 11,
            "16": 4,
            "17": 16,
            "18": 4,
            "19": 18,
            "2": 1,
            "20": 4,
            "21": 4,
            "22": 21,
            "23": 21,
            "24": 4,
            "25": 4,
            "26": 25,
            "27": 4,
            "28": 27,
            "29": 28,
            "3": 0,
            "30": 29,
            "31": 28,
            "32": 28,
            "33": 4,
            "4": 3,
            "5": 4,
            "6": 4,
            "7": 6,
            "8": 4,
            "9": 8
        },
        "tidyTrace": [
            {
                "children": [
                    {
                        "children": [
                            {
                                "children": [
                                    {
                                        "children": [],
                                        "depth": 2,
                                        "id": 2,
                                        "order": 2
                                    }
                                ],
                                "depth": 1,
                                "id": 1,
                                "order": 1
                            },
                            {
                                "children": [
                                    {
                                        "children": [
                                            {
                                                "children": [],
                                                "depth": 3,
                                                "id": 5,
                                                "order": 5
                                            },
                                            {
                                                "children": [
                                                    {
                                                        "children": [
                                                            {
                                                                "children": [
                                                                    {
                                                                        "children": [],
                                                                        "depth": 6,
                                                                        "id": 13,
                                                                        "order": 13
                                                                    }
                                                                ],
                                                                "depth": 5,
                                                                "id": 12,
                                                                "order": 12
                                                            },
                                                            {
                                                                "children": [],
                                                                "depth": 5,
                                                                "id": 14,
                                                                "order": 14
                                                            },
                                                            {
                                                                "children": [],
                                                                "depth": 5,
                                                                "id": 15,
                                                                "order": 15
                                                            }
                                                        ],
                                                        "depth": 4,
                                                        "id": 11,
                                                        "order": 11
                                                    }
                                                ],
                                                "depth": 3,
                                                "id": 10,
                                                "order": 10
                                            },
                                            {
                                                "children": [],
                                                "depth": 3,
                                                "id": 24,
                                                "order": 24
                                            },
                                            {
                                                "children": [
                                                    {
                                                        "children": [],
                                                        "depth": 4,
                                                        "id": 26,
                                                        "order": 26
                                                    }
                                                ],
                                                "depth": 3,
                                                "id": 25,
                                                "order": 25
                                            },
                                            {
                                                "children": [
                                                    {
                                                        "children": [
                                                            {
                                                                "children": [
                                                                    {
                                                                        "children": [],
                                                                        "depth": 6,
                                                                        "id": 30,
                                                                        "order": 30
                                                                    }
                                                                ],
                                                                "depth": 5,
                                                                "id": 29,
                                                                "order": 29
                                                            },
                                                            {
                                                                "children": [],
                                                                "depth": 5,
                                                                "id": 31,
                                                                "order": 31
                                                            },
                                                            {
                                                                "children": [],
                                                                "depth": 5,
                                                                "id": 32,
                                                                "order": 32
                                                            }
                                                        ],
                                                        "depth": 4,
                                                        "id": 28,
                                                        "order": 28
                                                    }
                                                ],
                                                "depth": 3,
                                                "id": 27,
                                                "order": 27
                                            },
                                            {
                                                "children": [],
                                                "depth": 3,
                                                "id": 33,
                                                "order": 33
                                            }
                                        ],
                                        "depth": 2,
                                        "id": 4,
                                        "order": 4
                                    }
                                ],
                                "depth": 1,
                                "id": 3,
                                "order": 3
                            }
                        ],
                        "depth": 0,
                        "id": 0,
                        "order": 0
                    }
                ],
                "depth": -1,
                "id": -1,
                "order": -1
            }
        ],
        "tidyTraceNodeCount": 22
    },
    "state_change": {
        "stateChanges": [
            {
                "address": "0x030ba81f1c18d280636f32af80b9aad02cf0854e",
                "erc": "ERC-20",
                "slots": [
                    {
                        "current": "0x00000000000000000000000000000000000000000000755b6f381d0463d0139d",
                        "key": "0x0000000000000000000000000000000000000000000000000000000000000036",
                        "prev": "0x00000000000000000000000000000000000000000000752a070da96f76a5894c"
                    },
                    {
                        "current": "0x00000000000000000000000000000000000000000000005ade7ae0cf038e63e3",
                        "key": "0x14a553e31736f19e3e380cf55bfb2f82dfd6d880cd07235affb68d8d3e0cac4d",
                        "prev": "0x00000000000000000000000000000000000000000000005ad9f73c0739938032"
                    },
                    {
                        "current": "0x000000000000000000000000000000000000000000000034249edb5ca1290346",
                        "key": "0xd9f85e92986e88e78e040aff3fcd774ee5233d6cd04f3ab438ce8e2735d57845",
                        "prev": "0x000000000000000000000000000000000000000000000002c0f80c8f7df95ca6"
                    }
                ],
                "storageVariables": [
                    {
                        "name": "_balances",
                        "type": "mapping(address => uint256)",
                        "value": {
                            "pairs": [
                                {
                                    "key": "0x464c71f6c2f760dda6093dcb91c24c39e5d6e18c",
                                    "value": {
                                        "current": "1676238339637160862691",
                                        "prev": "1675913054861065945138",
                                        "typeTag": 1
                                    }
                                },
                                {
                                    "key": "0xdd9bd62d1c08210fdda6f841ed5196b45a939625",
                                    "value": {
                                        "current": "961869479455469667142",
                                        "prev": "50798365807358860454",
                                        "typeTag": 1
                                    }
                                }
                            ],
                            "typeTag": 4
                        }
                    },
                    {
                        "name": "_totalSupply",
                        "type": "uint256",
                        "value": {
                            "current": "554203546393897656652701",
                            "prev": "553292149995473450928460",
                            "typeTag": 1
                        }
                    }
                ]
            },
            {
                "address": "0x7d2768de32b0b80b7a3454c06bdac94a69ddc7a9",
                "erc": "",
                "slots": [
                    {
                        "current": "0x000000000364a77a93913c9088cecd4c000000000350e7f989bc7392cc1dc4cc",
                        "key": "0x4cb5a02f592bd29403ce60c982c7f5174b16842da4fff5cfd025d6836dc48d4c",
                        "prev": "0x000000000364a60c6911baeab3f6c63d000000000350e740221d2cf00562f47e"
                    },
                    {
                        "current": "0x00000000000000000000000064816187000000000031fad20792cdedbe63d64d",
                        "key": "0x4cb5a02f592bd29403ce60c982c7f5174b16842da4fff5cfd025d6836dc48d4e",
                        "prev": "0x00000000000000000000000064814d2f000000000032056a5fcf86ebb2935e18"
                    },
                    {
                        "current": "0x0000000000202d8d518cdadc1f2ba530000000000010a508885aa34ba8c2f927",
                        "key": "0x4cb5a02f592bd29403ce60c982c7f5174b16842da4fff5cfd025d6836dc48d4d",
                        "prev": "0x000000000020379e0bc68a9a2d8bffcb000000000010b140fc4b2dc406f866fc"
                    }
                ],
                "storageVariables": [
                    {
                        "name": "_reserves",
                        "type": "mapping(address => struct DataTypes.ReserveData)",
                        "value": {
                            "pairs": [
                                {
                                    "key": "0xc02aaa39b223fe8d0a0e5c4f27ead9083c756cc2",
                                    "value": {
                                        "fields": [
                                            {
                                                "name": "liquidityIndex",
                                                "type": "uint128",
                                                "value": {
                                                    "current": "1026264564854957535018206412",
                                                    "prev": "1026261144740539526614807678",
                                                    "typeTag": 1
                                                }
                                            },
                                            {
                                                "name": "variableBorrowIndex",
                                                "type": "uint128",
                                                "value": {
                                                    "current": "1050138507764261133627608396",
                                                    "prev": "1050131753193621335055975997",
                                                    "typeTag": 1
                                                }
                                            },
                                            {
                                                "name": "currentLiquidityRate",
                                                "type": "uint128",
                                                "value": {
                                                    "current": "20122160982805230343354663",
                                                    "prev": "20179870752597352174348028",
                                                    "typeTag": 1
                                                }
                                            },
                                            {
                                                "name": "currentVariableBorrowRate",
                                                "type": "uint128",
                                                "value": {
                                                    "current": "38900739586623913434260784",
                                                    "prev": "38948271818307584786169803",
                                                    "typeTag": 1
                                                }
                                            },
                                            {
                                                "name": "currentStableBorrowRate",
                                                "type": "uint128",
                                                "value": {
                                                    "current": "60421831143814645720274509",
                                                    "prev": "60471865071902720827547160",
                                                    "typeTag": 1
                                                }
                                            },
                                            {
                                                "name": "lastUpdateTimestamp",
                                                "type": "uint40",
                                                "value": {
                                                    "current": "1686200711",
                                                    "prev": "1686195503",
                                                    "typeTag": 1
                                                }
                                            }
                                        ],
                                        "typeTag": 3
                                    }
                                }
                            ],
                            "typeTag": 4
                        }
                    }
                ]
            },
            {
                "address": "0xc02aaa39b223fe8d0a0e5c4f27ead9083c756cc2",
                "erc": "ERC-20",
                "slots": [
                    {
                        "current": "0x000000000000000000000000000000000000000000002f24d638a10c6b4580a4",
                        "key": "0xef982481b635103b0e52b38555f17a90bf88de82ca144dd4f6da1015e08a5142",
                        "prev": "0x000000000000000000000000000000000000000000002ef2267d56e40d0980a4"
                    }
                ],
                "storageVariables": [
                    {
                        "name": "balanceOf",
                        "type": "mapping(address => uint256)",
                        "value": {
                            "pairs": [
                                {
                                    "key": "0x030ba81f1c18d280636f32af80b9aad02cf0854e",
                                    "value": {
                                        "current": "222630743746324392673444",
                                        "prev": "221695743746324392673444",
                                        "typeTag": 1
                                    }
                                }
                            ],
                            "typeTag": 4
                        }
                    }
                ]
            },
            {
                "address": "0xd784927ff2f95ba542bfc824c8a8a98f3495f6b5",
                "erc": "",
                "slots": [
                    {
                        "current": "0x000064816187000000000000b060992a482980000000000000035090a49016e5",
                        "key": "0x291444ea7c00a38f3d9c0601b1589a1b31da8aea876afde06f92a7055bf08527",
                        "prev": "0x000064814d2f000000000000b060992a482980000000000000035090a49016e5"
                    }
                ],
                "storageVariables": [
                    {
                        "name": "assets",
                        "type": "mapping(address => struct DistributionManager.AssetData)",
                        "value": {
                            "pairs": [
                                {
                                    "key": "0x030ba81f1c18d280636f32af80b9aad02cf0854e",
                                    "value": {
                                        "fields": [
                                            {
                                                "name": "emissionPerSecond",
                                                "type": "uint104",
                                                "value": {
                                                    "current": "933007096551141",
                                                    "prev": "933007096551141",
                                                    "typeTag": 1
                                                }
                                            },
                                            {
                                                "name": "index",
                                                "type": "uint104",
                                                "value": {
                                                    "current": "49645806856710528",
                                                    "prev": "49645806856710528",
                                                    "typeTag": 1
                                                }
                                            },
                                            {
                                                "name": "lastUpdateTimestamp",
                                                "type": "uint40",
                                                "value": {
                                                    "current": "1686200711",
                                                    "prev": "1686195503",
                                                    "typeTag": 1
                                                }
                                            }
                                        ],
                                        "typeTag": 3
                                    }
                                }
                            ],
                            "typeTag": 4
                        }
                    }
                ]
            }
        ]
    }
}