{
    "balance_change": {
        "balanceChanges": [
            {
                "account": "0x727a37f2d2b48092ecbf03fb482a04fcbb5199ec",
                "assets": [
                    {
                        "address": "0x96e62454e99f1069a44cb34d4962e9d6fce19a74",
                        "amount": "139,386,837.736374492",
                        "iconUrl": "",
                        "isERC1155": false,
                        "isERC721": false,
                        "sign": false,
                        "value": "319.9459427"
                    },
                    {
                        "address": "0xeeeeeeeeeeeeeeeeeeeeeeeeeeeeeeeeeeeeeeee",
                        "amount": "0.153722317183522351",
                        "iconUrl": "https://assets.blocksec.com/image/1663669189317-3.png",
                        "isERC1155": false,
                        "isERC721": false,
                        "sign": true,
                        "value": "317.85624694395600282"
                    }
                ]
            },
            {
                "account": "0xdb5889e35e379ef0498aae126fc2cce1fbd23216",
                "assets": [
                    {
                        "address": "0xeeeeeeeeeeeeeeeeeeeeeeeeeeeeeeeeeeeeeeee",
                        "amount": "0.000772473955696092",
                        "iconUrl": "https://assets.blocksec.com/image/1663669189317-3.png",
                        "isERC1155": false,
                        "isERC721": false,
                        "sign": true,
                        "value": "1.597267572419561014"
                    }
                ]
            },
            {
                "account": "0xbdd67a1a041bca2d8cdbdccef47b6f1e6152c5c4",
                "assets": [
                    {
                        "address": "0xc02aaa39b223fe8d0a0e5c4f27ead9083c756cc2",
                        "amount": "0.154494791139218443",
                        "iconUrl": "https://assets.blocksec.com/icon/f1cb2d02c471d545bbc7722daf3277fd852d98e63d118771af7047bd8256c516.png",
                        "isERC1155": false,
                        "isERC721": false,
                        "sign": false,
                        "value": "319.45351440120300282"
                    },
                    {
                        "address": "0x96e62454e99f1069a44cb34d4962e9d6fce19a74",
                        "amount": "139,386,837.736374492",
                        "iconUrl": "",
                        "isERC1155": false,
                        "isERC721": false,
                        "sign": true,
                        "value": "319.9459427"
                    }
                ]
            },
            {
                "account": "0xc02aaa39b223fe8d0a0e5c4f27ead9083c756cc2",
                "assets": [
                    {
                        "address": "0xeeeeeeeeeeeeeeeeeeeeeeeeeeeeeeeeeeeeeeee",
                        "amount": "0.154494791139218443",
                        "iconUrl": "https://assets.blocksec.com/image/1663669189317-3.png",
                        "isERC1155": false,
                        "isERC721": false,
                        "sign": false,
                        "value": "319.45351440120300282"
                    },
                    {
                        "address": "0xc02aaa39b223fe8d0a0e5c4f27ead9083c756cc2",
                        "amount": "0.154494791139218443",
                        "iconUrl": "https://assets.blocksec.com/icon/f1cb2d02c471d545bbc7722daf3277fd852d98e63d118771af7047bd8256c516.png",
                        "isERC1155": false,
                        "isERC721": false,
                        "sign": true,
                        "value": "319.45351440120300282"
                    }
                ]
            }
        ]
    },
    "profile": {
        "basic_info": {
            "baseFee": "18.822406176",
            "blockNumber": 18638982,
            "callData": "0x70fef1da00000000000000000000000096e62454e99f1069a44cb34d4962e9d6fce19a74000000000000000000000000c02aaa39b223fe8d0a0e5c4f27ead9083c756cc20000000000000000000000007a250d5630b4cf539739df2c5dacb4c659f2488d000000000000000000000000bdd67a1a041bca2d8cdbdccef47b6f1e6152c5c4000000000000000000000000000000000000000000000000000000000000000000000000000000000000000000000000000000000000000000000000000000000000000000000000000000005200a0e9b161bc59feecb165fe2592bef3e1847a0000000000000000000000000000000000000000000000000000000000000100000000000000000000000000000000000000000000000000000000000000000600000000000000000000000000000000000000000000000000000000000000640000000000000000000000000000000000000000000000000000000000000001000000000000000000000000000000000000000000000000000000000000003300000000000000000000000000000000000000000000000000000000000000000000000000000000000000000000000000000000000000000000000065601ca70000000000000000000000000000000000000000000000000000000000000000",
            "debugEnable": true,
            "errorInfo": "",
            "eventCount": 9,
            "feeRecipient": "0x1f9090aae28b8a3dceadf281b0f12828e676c326",
            "formatValue": "0",
            "gasLimit": 254353,
            "gasPrice": "68.822406176",
            "gasUsed": 165563,
            "intTxnCount": 14,
            "internalRevert": false,
            "internalRevertMessage": "",
            "isContractCreation": false,
            "isFlashloan": false,
            "maxFee": "",
            "nonce": 686,
            "overwritedBlockNumber": -1,
            "priorityFee": "",
            "receiver": "0xdb5889e35e379ef0498aae126fc2cce1fbd23216",
            "revertMessage": "",
            "sender": "0x727a37f2d2b48092ecbf03fb482a04fcbb5199ec",
            "simulationEnable": true,
            "sourceTxnHash": "0x90afae7850108cd08cb17c29d129cc23c5fd84c04ad18f826f54414412187ad6",
            "status": true,
            "timestamp": "2023-11-24T03:46:47Z",
            "transactionFee": "0.011394444033717088",
            "txnHash": "0x90afae7850108cd08cb17c29d129cc23c5fd84c04ad18f826f54414412187ad6",
            "txnIndex": 0,
            "type": 0,
            "value": "0"
        },
        "fund_flow": [
            {
                "amount": "139,386,837.736374492",
                "from": "0x727a37f2d2b48092ecbf03fb482a04fcbb5199ec",
                "id": 1,
                "isERC1155": false,
                "isERC721": false,
                "isReverted": false,
                "order": 1,
                "to": "0xbdd67a1a041bca2d8cdbdccef47b6f1e6152c5c4",
                "token": "0x96e62454e99f1069a44cb34d4962e9d6fce19a74"
            },
            {
                "amount": "0.154494791139218443",
                "from": "0xbdd67a1a041bca2d8cdbdccef47b6f1e6152c5c4",
                "id": 2,
                "isERC1155": false,
                "isERC721": false,
                "isReverted": false,
                "order": 2,
                "to": "0xdb5889e35e379ef0498aae126fc2cce1fbd23216",
                "token": "0xc02aaa39b223fe8d0a0e5c4f27ead9083c756cc2"
            },
            {
                "amount": "0.154494791139218443",
                "from": "0xc02aaa39b223fe8d0a0e5c4f27ead9083c756cc2",
                "id": 3,
                "isERC1155": false,
                "isERC721": false,
                "isReverted": false,
                "order": 3,
                "to": "0xdb5889e35e379ef0498aae126fc2cce1fbd23216",
                "token": "0xeeeeeeeeeeeeeeeeeeeeeeeeeeeeeeeeeeeeeeee"
            },
            {
                "amount": "0.154494791139218443",
                "from": "0xdb5889e35e379ef0498aae126fc2cce1fbd23216",
                "id": 4,
                "isERC1155": false,
                "isERC721": false,
                "isReverted": false,
                "order": 4,
                "to": "0xc02aaa39b223fe8d0a0e5c4f27ead9083c756cc2",
                "token": "0xc02aaa39b223fe8d0a0e5c4f27ead9083c756cc2"
            },
            {
                "amount": "0.153722317183522351",
                "from": "0xdb5889e35e379ef0498aae126fc2cce1fbd23216",
                "id": 5,
                "isERC1155": false,
                "isERC721": false,
                "isReverted": false,
                "order": 5,
                "to": "0x727a37f2d2b48092ecbf03fb482a04fcbb5199ec",
                "token": "0xeeeeeeeeeeeeeeeeeeeeeeeeeeeeeeeeeeeeeeee"
            }
        ],
        "token_infos": [
            {
                "address": "0x96e62454e99f1069a44cb34d4962e9d6fce19a74",
                "decimals": 9
            },
            {
                "address": "0xc02aaa39b223fe8d0a0e5c4f27ead9083c756cc2",
                "decimals": 18
            },
            {
                "address": "0xeeeeeeeeeeeeeeeeeeeeeeeeeeeeeeeeeeeeeeee",
                "decimals": 18
            }
        ]
    },
    "address_label": {
        "labels": [
            {
                "address": "0x0000000000000000000000000000000000000001",
                "label": "Precompiled"
            },
            {
                "address": "0x0000000000000000000000000000000000000003",
                "label": "Precompiled"
            },
            {
                "address": "0x0000000000000000000000000000000000000004",
                "label": "Precompiled"
            },
            {
                "address": "0xeeeeeeeeeeeeeeeeeeeeeeeeeeeeeeeeeeeeeeee",
                "label": "Ether"
            },
            {
                "address": "0xc02aaa39b223fe8d0a0e5c4f27ead9083c756cc2",
                "label": "Wrapped Ether (WETH)"
            },
            {
                "address": "0xbdd67a1a041bca2d8cdbdccef47b6f1e6152c5c4",
                "label": "UNI-V2"
            },
            {
                "address": "0x0000000000000000000000000000000000000002",
                "label": "Precompiled"
            },
            {
                "address": "0xdb5889e35e379ef0498aae126fc2cce1fbd23216",
                "label": "Banana Gun: Router"
            },
            {
                "address": "0x96e62454e99f1069a44cb34d4962e9d6fce19a74",
                "label": "FROGE2"
            }
        ]
    },
    "trace": {
        "accountLabels": null,
        "dataMap": {
            "-1": {
                "invocation": {
                    "address": "0x727a37f2d2b48092ecbf03fb482a04fcbb5199ec",
                    "callData": "",
                    "decodedMethod": null,
                    "errorInfo": "",
                    "fromAddress": "",
                    "gasUsed": 0,
                    "id": -1,
                    "methodDecoded": false,
                    "operation": "",
                    "output": "",
                    "revert": false,
                    "revertMessage": "",
                    "selector": "",
                    "status": false,
                    "value": ""
                },
                "nodeType": 0
            },
            "0": {
                "invocation": {
                    "address": "0xdb5889e35e379ef0498aae126fc2cce1fbd23216",
                    "callData": "0x00000000000000000000000096e62454e99f1069a44cb34d4962e9d6fce19a74000000000000000000000000c02aaa39b223fe8d0a0e5c4f27ead9083c756cc20000000000000000000000007a250d5630b4cf539739df2c5dacb4c659f2488d000000000000000000000000bdd67a1a041bca2d8cdbdccef47b6f1e6152c5c4000000000000000000000000000000000000000000000000000000000000000000000000000000000000000000000000000000000000000000000000000000000000000000000000000000005200a0e9b161bc59feecb165fe2592bef3e1847a0000000000000000000000000000000000000000000000000000000000000100000000000000000000000000000000000000000000000000000000000000000600000000000000000000000000000000000000000000000000000000000000640000000000000000000000000000000000000000000000000000000000000001000000000000000000000000000000000000000000000000000000000000003300000000000000000000000000000000000000000000000000000000000000000000000000000000000000000000000000000000000000000000000065601ca70000000000000000000000000000000000000000000000000000000000000000",
                    "decodedMethod": null,
                    "errorInfo": "",
                    "fromAddress": "0x727a37f2d2b48092ecbf03fb482a04fcbb5199ec",
                    "gasUsed": 165563,
                    "id": 0,
                    "methodDecoded": false,
                    "operation": "CALL",
                    "output": "",
                    "revert": false,
                    "revertMessage": "",
                    "selector": "0x70fef1da",
                    "status": true,
                    "value": "0"
                },
                "nodeType": 0
            },
            "1": {
                "invocation": {
                    "address": "0x96e62454e99f1069a44cb34d4962e9d6fce19a74",
                    "callData": "0x000000000000000000000000727a37f2d2b48092ecbf03fb482a04fcbb5199ec",
                    "decodedMethod": {
                        "callParams": [
                            {
                                "name": "account",
                                "type": "address",
                                "value": "0x727a37f2d2b48092ecbf03fb482a04fcbb5199ec"
                            }
                        ],
                        "constructorArguments": "",
                        "name": "balanceOf",
                        "returnParams": [
                            {
                                "decimalAvailable": true,
                                "name": "",
                                "type": "uint256",
                                "value": "139,386,837,736,374,492"
                            }
                        ],
                        "signature": "balanceOf(address)"
                    },
                    "errorInfo": "",
                    "fromAddress": "0xdb5889e35e379ef0498aae126fc2cce1fbd23216",
                    "gasUsed": 2918,
                    "id": 1,
                    "methodDecoded": true,
                    "operation": "STATICCALL",
                    "output": "0x00000000000000000000000000000000000000000000000001ef339725a440dc",
                    "revert": false,
                    "revertMessage": "",
                    "selector": "0x70a08231",
                    "status": true,
                    "value": "0"
                },
                "nodeType": 0
            },
            "10": {
                "invocation": {
                    "address": "0xc02aaa39b223fe8d0a0e5c4f27ead9083c756cc2",
                    "callData": "0x000000000000000000000000db5889e35e379ef0498aae126fc2cce1fbd232160000000000000000000000000000000000000000000000000224e031a980540b",
                    "decodedMethod": {
                        "callParams": [
                            {
                                "name": "dst",
                                "type": "address",
                                "value": "0xdb5889e35e379ef0498aae126fc2cce1fbd23216"
                            },
                            {
                                "decimalAvailable": true,
                                "name": "wad",
                                "type": "uint256",
                                "value": "154,494,791,139,218,443"
                            }
                        ],
                        "constructorArguments": "",
                        "name": "transfer",
                        "returnParams": [
                            {
                                "name": "",
                                "type": "bool",
                                "value": true
                            }
                        ],
                        "signature": "transfer(address,uint256)"
                    },
                    "errorInfo": "",
                    "fromAddress": "0xbdd67a1a041bca2d8cdbdccef47b6f1e6152c5c4",
                    "gasUsed": 29962,
                    "id": 10,
                    "methodDecoded": true,
                    "operation": "CALL",
                    "output": "0x0000000000000000000000000000000000000000000000000000000000000001",
                    "revert": false,
                    "revertMessage": "",
                    "selector": "0xa9059cbb",
                    "status": true,
                    "value": "0"
                },
                "nodeType": 0
            },
            "11": {
                "event": {
                    "contract": "0xc02aaa39b223fe8d0a0e5c4f27ead9083c756cc2",
                    "decodedLog": {
                        "name": "Transfer",
                        "params": [
                            {
                                "name": "src",
                                "type": "address",
                                "value": "0xbdd67a1a041bca2d8cdbdccef47b6f1e6152c5c4"
                            },
                            {
                                "name": "dst",
                                "type": "address",
                                "value": "0xdb5889e35e379ef0498aae126fc2cce1fbd23216"
                            },
                            {
                                "decimalAvailable": true,
                                "name": "wad",
                                "type": "uint256",
                                "value": "154,494,791,139,218,443"
                            }
                        ],
                        "signature": "Transfer(address,address,uint256)"
                    },
                    "id": 11,
                    "logData": "0x0000000000000000000000000000000000000000000000000224e031a980540b",
                    "logDecoded": true,
                    "operation": "EVENT",
                    "revert": false,
                    "status": true,
                    "topics": [
                        "0xddf252ad1be2c89b69c2b068fc378daa952ba7f163c4a11628f55a4df523b3ef",
                        "0x000000000000000000000000bdd67a1a041bca2d8cdbdccef47b6f1e6152c5c4",
                        "0x000000000000000000000000db5889e35e379ef0498aae126fc2cce1fbd23216"
                    ]
                },
                "nodeType": 1
            },
            "12": {
                "invocation": {
                    "address": "0x96e62454e99f1069a44cb34d4962e9d6fce19a74",
                    "callData": "0x000000000000000000000000bdd67a1a041bca2d8cdbdccef47b6f1e6152c5c4",
                    "decodedMethod": {
                        "callParams": [
                            {
                                "name": "account",
                                "type": "address",
                                "value": "0xbdd67a1a041bca2d8cdbdccef47b6f1e6152c5c4"
                            }
                        ],
                        "constructorArguments": "",
                        "name": "balanceOf",
                        "returnParams": [
                            {
                                "decimalAvailable": true,
                                "name": "",
                                "type": "uint256",
                                "value": "2,708,251,578,639,724,451"
                            }
                        ],
                        "signature": "balanceOf(address)"
                    },
                    "errorInfo": "",
                    "fromAddress": "0xbdd67a1a041bca2d8cdbdccef47b6f1e6152c5c4",
                    "gasUsed": 918,
                    "id": 12,
                    "methodDecoded": true,
                    "operation": "STATICCALL",
                    "output": "0x0000000000000000000000000000000000000000000000002595a4763b362fa3",
                    "revert": false,
                    "revertMessage": "",
                    "selector": "0x70a08231",
                    "status": true,
                    "value": "0"
                },
                "nodeType": 0
            },
            "13": {
                "invocation": {
                    "address": "0xc02aaa39b223fe8d0a0e5c4f27ead9083c756cc2",
                    "callData": "0x000000000000000000000000bdd67a1a041bca2d8cdbdccef47b6f1e6152c5c4",
                    "decodedMethod": {
                        "callParams": [
                            {
                                "name": "",
                                "type": "address",
                                "value": "0xbdd67a1a041bca2d8cdbdccef47b6f1e6152c5c4"
                            }
                        ],
                        "constructorArguments": "",
                        "name": "balanceOf",
                        "returnParams": [
                            {
                                "decimalAvailable": true,
                                "name": "",
                                "type": "uint256",
                                "value": "2,855,868,167,856,521,226"
                            }
                        ],
                        "signature": "balanceOf(address)"
                    },
                    "errorInfo": "",
                    "fromAddress": "0xbdd67a1a041bca2d8cdbdccef47b6f1e6152c5c4",
                    "gasUsed": 534,
                    "id": 13,
                    "methodDecoded": true,
                    "operation": "STATICCALL",
                    "output": "0x00000000000000000000000000000000000000000000000027a214f7b66f000a",
                    "revert": false,
                    "revertMessage": "",
                    "selector": "0x70a08231",
                    "status": true,
                    "value": "0"
                },
                "nodeType": 0
            },
            "14": {
                "event": {
                    "contract": "0xbdd67a1a041bca2d8cdbdccef47b6f1e6152c5c4",
                    "decodedLog": {
                        "name": "Sync",
                        "params": [
                            {
                                "name": "reserve0",
                                "type": "uint112",
                                "value": "2,708,251,578,639,724,451"
                            },
                            {
                                "name": "reserve1",
                                "type": "uint112",
                                "value": "2,855,868,167,856,521,226"
                            }
                        ],
                        "signature": "Sync(uint112,uint112)"
                    },
                    "id": 14,
                    "logData": "0x0000000000000000000000000000000000000000000000002595a4763b362fa300000000000000000000000000000000000000000000000027a214f7b66f000a",
                    "logDecoded": true,
                    "operation": "EVENT",
                    "revert": false,
                    "status": true,
                    "topics": [
                        "0x1c411e9a96e071241c2f21f7726b17ae89e3cab4c78be50e062b03a9fffbbad1"
                    ]
                },
                "nodeType": 1
            },
            "15": {
                "event": {
                    "contract": "0xbdd67a1a041bca2d8cdbdccef47b6f1e6152c5c4",
                    "decodedLog": {
                        "name": "Swap",
                        "params": [
                            {
                                "name": "sender",
                                "type": "address",
                                "value": "0xc6265979793435b496e28e61af1500c22c3ba277"
                            },
                            {
                                "name": "to",
                                "type": "address",
                                "value": "0xdb5889e35e379ef0498aae126fc2cce1fbd23216"
                            },
                            {
                                "name": "amount0In",
                                "type": "uint256",
                                "value": "139,386,837,736,374,492"
                            },
                            {
                                "name": "amount1In",
                                "type": "uint256",
                                "value": "0"
                            },
                            {
                                "name": "amount0Out",
                                "type": "uint256",
                                "value": "0"
                            },
                            {
                                "name": "amount1Out",
                                "type": "uint256",
                                "value": "154,494,791,139,218,443"
                            }
                        ],
                        "signature": "Swap(address,uint256,uint256,uint256,uint256,address)"
                    },
                    "id": 15,
                    "logData": "0x00000000000000000000000000000000000000000000000001ef339725a440dc000000000000000000000000000000000000000000000000000000000000000000000000000000000000000000000000000000000000000000000000000000000000000000000000000000000000000000000000000000000224e031a980540b",
                    "logDecoded": true,
                    "operation": "EVENT",
                    "revert": false,
                    "status": true,
                    "topics": [
                        "0xd78ad95fa46c994b6551d0da85fc275fe613ce37657fb8d5e3d130840159d822",
                        "0x000000000000000000000000c6265979793435b496e28e61af1500c22c3ba277",
                        "0x000000000000000000000000db5889e35e379ef0498aae126fc2cce1fbd23216"
                    ]
                },
                "nodeType": 1
            },
            "16": {
                "invocation": {
                    "address": "0xc02aaa39b223fe8d0a0e5c4f27ead9083c756cc2",
                    "callData": "0x000000000000000000000000db5889e35e379ef0498aae126fc2cce1fbd23216",
                    "decodedMethod": {
                        "callParams": [
                            {
                                "name": "",
                                "type": "address",
                                "value": "0xdb5889e35e379ef0498aae126fc2cce1fbd23216"
                            }
                        ],
                        "constructorArguments": "",
                        "name": "balanceOf",
                        "returnParams": [
                            {
                                "decimalAvailable": true,
                                "name": "",
                                "type": "uint256",
                                "value": "154,494,791,139,218,443"
                            }
                        ],
                        "signature": "balanceOf(address)"
                    },
                    "errorInfo": "",
                    "fromAddress": "0xdb5889e35e379ef0498aae126fc2cce1fbd23216",
                    "gasUsed": 534,
                    "id": 16,
                    "methodDecoded": true,
                    "operation": "STATICCALL",
                    "output": "0x0000000000000000000000000000000000000000000000000224e031a980540b",
                    "revert": false,
                    "revertMessage": "",
                    "selector": "0x70a08231",
                    "status": true,
                    "value": "0"
                },
                "nodeType": 0
            },
            "17": {
                "invocation": {
                    "address": "0xc02aaa39b223fe8d0a0e5c4f27ead9083c756cc2",
                    "callData": "0x0000000000000000000000000000000000000000000000000224e031a980540b",
                    "decodedMethod": {
                        "callParams": [
                            {
                                "name": "wad",
                                "type": "uint256",
                                "value": "154,494,791,139,218,443"
                            }
                        ],
                        "constructorArguments": "",
                        "name": "withdraw",
                        "returnParams": [],
                        "signature": "withdraw(uint256)"
                    },
                    "errorInfo": "",
                    "fromAddress": "0xdb5889e35e379ef0498aae126fc2cce1fbd23216",
                    "gasUsed": 9195,
                    "id": 17,
                    "methodDecoded": true,
                    "operation": "CALL",
                    "output": "",
                    "revert": false,
                    "revertMessage": "",
                    "selector": "0x2e1a7d4d",
                    "status": true,
                    "value": "0"
                },
                "nodeType": 0
            },
            "18": {
                "invocation": {
                    "address": "0xdb5889e35e379ef0498aae126fc2cce1fbd23216",
                    "callData": "0x",
                    "decodedMethod": null,
                    "errorInfo": "",
                    "fromAddress": "0xc02aaa39b223fe8d0a0e5c4f27ead9083c756cc2",
                    "gasUsed": 55,
                    "id": 18,
                    "methodDecoded": false,
                    "operation": "CALL",
                    "output": "",
                    "revert": false,
                    "revertMessage": "",
                    "selector": "fallback",
                    "status": true,
                    "value": "0.154494791139218443"
                },
                "nodeType": 0
            },
            "19": {
                "event": {
                    "contract": "0xc02aaa39b223fe8d0a0e5c4f27ead9083c756cc2",
                    "decodedLog": {
                        "name": "Withdrawal",
                        "params": [
                            {
                                "name": "src",
                                "type": "address",
                                "value": "0xdb5889e35e379ef0498aae126fc2cce1fbd23216"
                            },
                            {
                                "name": "wad",
                                "type": "uint256",
                                "value": "154,494,791,139,218,443"
                            }
                        ],
                        "signature": "Withdrawal(address,uint256)"
                    },
                    "id": 19,
                    "logData": "0x0000000000000000000000000000000000000000000000000224e031a980540b",
                    "logDecoded": true,
                    "operation": "EVENT",
                    "revert": false,
                    "status": true,
                    "topics": [
                        "0x7fcf532c15f0a6db0bd6d0e038bea71d30d808c7d98cb3bf7268a95bf5081b65",
                        "0x000000000000000000000000db5889e35e379ef0498aae126fc2cce1fbd23216"
                    ]
                },
                "nodeType": 1
            },
            "2": {
                "invocation": {
                    "address": "0x5200a0e9b161bc59feecb165fe2592bef3e1847a",
                    "callData": "0x00000000000000000000000096e62454e99f1069a44cb34d4962e9d6fce19a74000000000000000000000000727a37f2d2b48092ecbf03fb482a04fcbb5199ec000000000000000000000000bdd67a1a041bca2d8cdbdccef47b6f1e6152c5c400000000000000000000000000000000000000000000000001ef339725a440dc",
                    "decodedMethod": null,
                    "errorInfo": "",
                    "fromAddress": "0xdb5889e35e379ef0498aae126fc2cce1fbd23216",
                    "gasUsed": 51095,
                    "id": 2,
                    "methodDecoded": false,
                    "operation": "CALL",
                    "output": "",
                    "revert": false,
                    "revertMessage": "",
                    "selector": "0x199f7260",
                    "status": true,
                    "value": "0"
                },
                "nodeType": 0
            },
            "20": {
                "event": {
                    "contract": "0xdb5889e35e379ef0498aae126fc2cce1fbd23216",
                    "decodedLog": null,
                    "id": 20,
                    "logData": "0x0000000000000000000000000000000000000000000000000002be8f9bba3ddc0000000000000000000000000000000000000000000000000000000000000033",
                    "logDecoded": false,
                    "operation": "EVENT",
                    "revert": false,
                    "status": true,
                    "topics": [
                        "0x6cb8c9cbcedb37b7d125170f5d929dbbdb3203c8fd4d60356b496fa31f77fd00"
                    ]
                },
                "nodeType": 1
            },
            "21": {
                "event": {
                    "contract": "0xdb5889e35e379ef0498aae126fc2cce1fbd23216",
                    "decodedLog": null,
                    "id": 21,
                    "logData": "0x0000000000000000000000000000000000000000000000000002be8f9bba3ddc000000000000000000000000727a37f2d2b48092ecbf03fb482a04fcbb5199ec",
                    "logDecoded": false,
                    "operation": "EVENT",
                    "revert": false,
                    "status": true,
                    "topics": [
                        "0x0c2a2f565c7774c59e49ef6b3c255329f4d254147e06e724d3a8569bb7bd21ad"
                    ]
                },
                "nodeType": 1
            },
            "22": {
                "invocation": {
                    "address": "0x727a37f2d2b48092ecbf03fb482a04fcbb5199ec",
                    "callData": "0x",
                    "decodedMethod": null,
                    "errorInfo": "",
                    "fromAddress": "0xdb5889e35e379ef0498aae126fc2cce1fbd23216",
                    "gasUsed": 0,
                    "id": 22,
                    "methodDecoded": false,
                    "operation": "CALL",
                    "output": "",
                    "revert": false,
                    "revertMessage": "",
                    "selector": "fallback",
                    "status": true,
                    "value": "0.153722317183522351"
                },
                "nodeType": 0
            },
            "23": {
                "event": {
                    "contract": "0xdb5889e35e379ef0498aae126fc2cce1fbd23216",
                    "decodedLog": {
                        "name": "Sell",
                        "params": [
                            {
                                "name": "amount",
                                "type": "uint256",
                                "value": "154,494,791,139,218,443"
                            }
                        ],
                        "signature": "Sell(uint256)"
                    },
                    "id": 23,
                    "logData": "0x0000000000000000000000000000000000000000000000000224e031a980540b",
                    "logDecoded": true,
                    "operation": "EVENT",
                    "revert": false,
                    "status": true,
                    "topics": [
                        "0x522881958b3c4a6fc0840ad3b7fb947b881edc28c004245a62541647422ade97"
                    ]
                },
                "nodeType": 1
            },
            "3": {
                "invocation": {
                    "address": "0x96e62454e99f1069a44cb34d4962e9d6fce19a74",
                    "callData": "0x000000000000000000000000727a37f2d2b48092ecbf03fb482a04fcbb5199ec000000000000000000000000bdd67a1a041bca2d8cdbdccef47b6f1e6152c5c400000000000000000000000000000000000000000000000001ef339725a440dc",
                    "decodedMethod": {
                        "callParams": [
                            {
                                "name": "sender",
                                "type": "address",
                                "value": "0x727a37f2d2b48092ecbf03fb482a04fcbb5199ec"
                            },
                            {
                                "name": "recipient",
                                "type": "address",
                                "value": "0xbdd67a1a041bca2d8cdbdccef47b6f1e6152c5c4"
                            },
                            {
                                "decimalAvailable": true,
                                "name": "amount",
                                "type": "uint256",
                                "value": "139,386,837,736,374,492"
                            }
                        ],
                        "constructorArguments": "",
                        "name": "transferFrom",
                        "returnParams": [
                            {
                                "name": "",
                                "type": "bool",
                                "value": true
                            }
                        ],
                        "signature": "transferFrom(address,address,uint256)"
                    },
                    "errorInfo": "",
                    "fromAddress": "0x5200a0e9b161bc59feecb165fe2592bef3e1847a",
                    "gasUsed": 48036,
                    "id": 3,
                    "methodDecoded": true,
                    "operation": "CALL",
                    "output": "0x0000000000000000000000000000000000000000000000000000000000000001",
                    "revert": false,
                    "revertMessage": "",
                    "selector": "0x23b872dd",
                    "status": true,
                    "value": "0"
                },
                "nodeType": 0
            },
            "4": {
                "event": {
                    "contract": "0x96e62454e99f1069a44cb34d4962e9d6fce19a74",
                    "decodedLog": {
                        "name": "Transfer",
                        "params": [
                            {
                                "name": "from",
                                "type": "address",
                                "value": "0x727a37f2d2b48092ecbf03fb482a04fcbb5199ec"
                            },
                            {
                                "name": "to",
                                "type": "address",
                                "value": "0xbdd67a1a041bca2d8cdbdccef47b6f1e6152c5c4"
                            },
                            {
                                "decimalAvailable": true,
                                "name": "value",
                                "type": "uint256",
                                "value": "139,386,837,736,374,492"
                            }
                        ],
                        "signature": "Transfer(address,address,uint256)"
                    },
                    "id": 4,
                    "logData": "0x00000000000000000000000000000000000000000000000001ef339725a440dc",
                    "logDecoded": true,
                    "operation": "EVENT",
                    "revert": false,
                    "status": true,
                    "topics": [
                        "0xddf252ad1be2c89b69c2b068fc378daa952ba7f163c4a11628f55a4df523b3ef",
                        "0x000000000000000000000000727a37f2d2b48092ecbf03fb482a04fcbb5199ec",
                        "0x000000000000000000000000bdd67a1a041bca2d8cdbdccef47b6f1e6152c5c4"
                    ]
                },
                "nodeType": 1
            },
            "5": {
                "event": {
                    "contract": "0x96e62454e99f1069a44cb34d4962e9d6fce19a74",
                    "decodedLog": {
                        "name": "Approval",
                        "params": [
                            {
                                "name": "owner",
                                "type": "address",
                                "value": "0x727a37f2d2b48092ecbf03fb482a04fcbb5199ec"
                            },
                            {
                                "name": "spender",
                                "type": "address",
                                "value": "0x5200a0e9b161bc59feecb165fe2592bef3e1847a"
                            },
                            {
                                "decimalAvailable": true,
                                "name": "value",
                                "type": "uint256",
                                "value": "115,792,089,237,316,195,423,570,985,008,687,907,853,269,984,665,640,564,039,457,444,621,075,393,265,443"
                            }
                        ],
                        "signature": "Approval(address,address,uint256)"
                    },
                    "id": 5,
                    "logData": "0xfffffffffffffffffffffffffffffffffffffffffffffffffe10cc68da5bbf23",
                    "logDecoded": true,
                    "operation": "EVENT",
                    "revert": false,
                    "status": true,
                    "topics": [
                        "0x8c5be1e5ebec7d5bd14f71427d1e84f3dd0314c0f7b2291e5b200ac8c7c3b925",
                        "0x000000000000000000000000727a37f2d2b48092ecbf03fb482a04fcbb5199ec",
                        "0x0000000000000000000000005200a0e9b161bc59feecb165fe2592bef3e1847a"
                    ]
                },
                "nodeType": 1
            },
            "6": {
                "invocation": {
                    "address": "0xc6265979793435b496e28e61af1500c22c3ba277",
                    "callData": "0x0000000000000000000000000000000000000000000000000000000000000060000000000000000000000000db5889e35e379ef0498aae126fc2cce1fbd232160000000000000000000000007a250d5630b4cf539739df2c5dacb4c659f2488d000000000000000000000000000000000000000000000000000000000000000200000000000000000000000096e62454e99f1069a44cb34d4962e9d6fce19a74000000000000000000000000c02aaa39b223fe8d0a0e5c4f27ead9083c756cc2",
                    "decodedMethod": null,
                    "errorInfo": "",
                    "fromAddress": "0xdb5889e35e379ef0498aae126fc2cce1fbd23216",
                    "gasUsed": 75796,
                    "id": 6,
                    "methodDecoded": false,
                    "operation": "CALL",
                    "output": "",
                    "revert": false,
                    "revertMessage": "",
                    "selector": "0x5154e7f4",
                    "status": true,
                    "value": "0"
                },
                "nodeType": 0
            },
            "7": {
                "invocation": {
                    "address": "0xbdd67a1a041bca2d8cdbdccef47b6f1e6152c5c4",
                    "callData": "0x",
                    "decodedMethod": {
                        "callParams": [],
                        "constructorArguments": "",
                        "name": "getReserves",
                        "returnParams": [
                            {
                                "name": "_reserve0",
                                "type": "uint112",
                                "value": "2,568,864,740,903,349,959"
                            },
                            {
                                "name": "_reserve1",
                                "type": "uint112",
                                "value": "3,010,362,958,995,739,669"
                            },
                            {
                                "name": "_blockTimestampLast",
                                "type": "uint32",
                                "value": "1,700,797,595"
                            }
                        ],
                        "signature": "getReserves()"
                    },
                    "errorInfo": "",
                    "fromAddress": "0xc6265979793435b496e28e61af1500c22c3ba277",
                    "gasUsed": 2504,
                    "id": 7,
                    "methodDecoded": true,
                    "operation": "STATICCALL",
                    "output": "0x00000000000000000000000000000000000000000000000023a670df1591eec700000000000000000000000000000000000000000000000029c6f5295fef54150000000000000000000000000000000000000000000000000000000065601c9b",
                    "revert": false,
                    "revertMessage": "",
                    "selector": "0x0902f1ac",
                    "status": true,
                    "value": "0"
                },
                "nodeType": 0
            },
            "8": {
                "invocation": {
                    "address": "0x96e62454e99f1069a44cb34d4962e9d6fce19a74",
                    "callData": "0x000000000000000000000000bdd67a1a041bca2d8cdbdccef47b6f1e6152c5c4",
                    "decodedMethod": {
                        "callParams": [
                            {
                                "name": "account",
                                "type": "address",
                                "value": "0xbdd67a1a041bca2d8cdbdccef47b6f1e6152c5c4"
                            }
                        ],
                        "constructorArguments": "",
                        "name": "balanceOf",
                        "returnParams": [
                            {
                                "decimalAvailable": true,
                                "name": "",
                                "type": "uint256",
                                "value": "2,708,251,578,639,724,451"
                            }
                        ],
                        "signature": "balanceOf(address)"
                    },
                    "errorInfo": "",
                    "fromAddress": "0xc6265979793435b496e28e61af1500c22c3ba277",
                    "gasUsed": 918,
                    "id": 8,
                    "methodDecoded": true,
                    "operation": "STATICCALL",
                    "output": "0x0000000000000000000000000000000000000000000000002595a4763b362fa3",
                    "revert": false,
                    "revertMessage": "",
                    "selector": "0x70a08231",
                    "status": true,
                    "value": "0"
                },
                "nodeType": 0
            },
            "9": {
                "invocation": {
                    "address": "0xbdd67a1a041bca2d8cdbdccef47b6f1e6152c5c4",
                    "callData": "0x00000000000000000000000000000000000000000000000000000000000000000000000000000000000000000000000000000000000000000224e031a980540b000000000000000000000000db5889e35e379ef0498aae126fc2cce1fbd2321600000000000000000000000000000000000000000000000000000000000000800000000000000000000000000000000000000000000000000000000000000000",
                    "decodedMethod": {
                        "callParams": [
                            {
                                "name": "amount0Out",
                                "type": "uint256",
                                "value": "0"
                            },
                            {
                                "name": "amount1Out",
                                "type": "uint256",
                                "value": "154,494,791,139,218,443"
                            },
                            {
                                "name": "to",
                                "type": "address",
                                "value": "0xdb5889e35e379ef0498aae126fc2cce1fbd23216"
                            },
                            {
                                "name": "data",
                                "type": "bytes",
                                "value": "0x"
                            }
                        ],
                        "constructorArguments": "",
                        "name": "swap",
                        "returnParams": [],
                        "signature": "swap(uint256,uint256,address,bytes)"
                    },
                    "errorInfo": "",
                    "fromAddress": "0xc6265979793435b496e28e61af1500c22c3ba277",
                    "gasUsed": 65237,
                    "id": 9,
                    "methodDecoded": true,
                    "operation": "CALL",
                    "output": "",
                    "revert": false,
                    "revertMessage": "",
                    "selector": "0x022c0d9f",
                    "status": true,
                    "value": "0"
                },
                "nodeType": 0
            }
        },
        "gasFlame": [
            {
                "children": [
                    {
                        "children": [
                            {
                                "children": [],
                                "depth": 0,
                                "name": "Initial Gas",
                                "value": 24280
                            },
                            {
                                "children": [
                                    {
                                        "children": [],
                                        "depth": 1,
                                        "name": "balanceOf",
                                        "value": 2918
                                    },
                                    {
                                        "children": [
                                            {
                                                "children": [],
                                                "depth": 2,
                                                "name": "transferFrom",
                                                "value": 48036
                                            }
                                        ],
                                        "depth": 1,
                                        "name": "0x199f7260",
                                        "value": 51095
                                    },
                                    {
                                        "children": [
                                            {
                                                "children": [],
                                                "depth": 2,
                                                "name": "getReserves",
                                                "value": 2504
                                            },
                                            {
                                                "children": [],
                                                "depth": 2,
                                                "name": "balanceOf",
                                                "value": 918
                                            },
                                            {
                                                "children": [
                                                    {
                                                        "children": [],
                                                        "depth": 3,
                                                        "name": "transfer",
                                                        "value": 29962
                                                    },
                                                    {
                                                        "children": [],
                                                        "depth": 3,
                                                        "name": "balanceOf",
                                                        "value": 918
                                                    },
                                                    {
                                                        "children": [],
                                                        "depth": 3,
                                                        "name": "balanceOf",
                                                        "value": 534
                                                    }
                                                ],
                                                "depth": 2,
                                                "name": "swap",
                                                "value": 65237
                                            }
                                        ],
                                        "depth": 1,
                                        "name": "0x5154e7f4",
                                        "value": 75796
                                    },
                                    {
                                        "children": [],
                                        "depth": 1,
                                        "name": "balanceOf",
                                        "value": 534
                                    },
                                    {
                                        "children": [
                                            {
                                                "children": [],
                                                "depth": 2,
                                                "name": "fallback",
                                                "value": 55
                                            }
                                        ],
                                        "depth": 1,
                                        "name": "withdraw",
                                        "value": 9195
                                    },
                                    {
                                        "children": [],
                                        "depth": 1,
                                        "name": "fallback",
                                        "value": 0
                                    }
                                ],
                                "depth": 0,
                                "name": "Executed Gas",
                                "value": 168783
                            }
                        ],
                        "depth": -1,
                        "name": "Actual Gas Used",
                        "value": 165563
                    },
                    {
                        "children": [],
                        "depth": -1,
                        "name": "Refunded Gas",
                        "value": 27500
                    }
                ],
                "depth": -2,
                "name": "Total Gas",
                "value": 193063
            }
        ],
        "isConfirmed": true,
        "mainTrace": [
            {
                "children": [
                    {
                        "children": [
                            {
                                "children": [],
                                "depth": 1,
                                "id": 1,
                                "order": 1
                            },
                            {
                                "children": [
                                    {
                                        "children": [
                                            {
                                                "children": [],
                                                "depth": 3,
                                                "id": 4,
                                                "order": 4
                                            },
                                            {
                                                "children": [],
                                                "depth": 3,
                                                "id": 5,
                                                "order": 5
                                            }
                                        ],
                                        "depth": 2,
                                        "id": 3,
                                        "order": 3
                                    }
                                ],
                                "depth": 1,
                                "id": 2,
                                "order": 2
                            },
                            {
                                "children": [
                                    {
                                        "children": [],
                                        "depth": 2,
                                        "id": 7,
                                        "order": 7
                                    },
                                    {
                                        "children": [],
                                        "depth": 2,
                                        "id": 8,
                                        "order": 8
                                    },
                                    {
                                        "children": [
                                            {
                                                "children": [
                                                    {
                                                        "children": [],
                                                        "depth": 4,
                                                        "id": 11,
                                                        "order": 11
                                                    }
                                                ],
                                                "depth": 3,
                                                "id": 10,
                                                "order": 10
                                            },
                                            {
                                                "children": [],
                                                "depth": 3,
                                                "id": 12,
                                                "order": 12
                                            },
                                            {
                                                "children": [],
                                                "depth": 3,
                                                "id": 13,
                                                "order": 13
                                            },
                                            {
                                                "children": [],
                                                "depth": 3,
                                                "id": 14,
                                                "order": 14
                                            },
                                            {
                                                "children": [],
                                                "depth": 3,
                                                "id": 15,
                                                "order": 15
                                            }
                                        ],
                                        "depth": 2,
                                        "id": 9,
                                        "order": 9
                                    }
                                ],
                                "depth": 1,
                                "id": 6,
                                "order": 6
                            },
                            {
                                "children": [],
                                "depth": 1,
                                "id": 16,
                                "order": 16
                            },
                            {
                                "children": [
                                    {
                                        "children": [],
                                        "depth": 2,
                                        "id": 18,
                                        "order": 18
                                    },
                                    {
                                        "children": [],
                                        "depth": 2,
                                        "id": 19,
                                        "order": 19
                                    }
                                ],
                                "depth": 1,
                                "id": 17,
                                "order": 17
                            },
                            {
                                "children": [],
                                "depth": 1,
                                "id": 20,
                                "order": 20
                            },
                            {
                                "children": [],
                                "depth": 1,
                                "id": 21,
                                "order": 21
                            },
                            {
                                "children": [],
                                "depth": 1,
                                "id": 22,
                                "order": 22
                            },
                            {
                                "children": [],
                                "depth": 1,
                                "id": 23,
                                "order": 23
                            }
                        ],
                        "depth": 0,
                        "id": 0,
                        "order": 0
                    }
                ],
                "depth": -1,
                "id": -1,
                "order": -1
            }
        ],
        "mainTraceNodeCount": 24,
        "parentIdMap": {
            "0": -1,
            "1": 0,
            "10": 9,
            "11": 10,
            "12": 9,
            "13": 9,
            "14": 9,
            "15": 9,
            "16": 0,
            "17": 0,
            "18": 17,
            "19": 17,
            "2": 0,
            "20": 0,
            "21": 0,
            "22": 0,
            "23": 0,
            "3": 2,
            "4": 3,
            "5": 3,
            "6": 0,
            "7": 6,
            "8": 6,
            "9": 6
        },
        "tidyTrace": [
            {
                "children": [
                    {
                        "children": [
                            {
                                "children": [
                                    {
                                        "children": [
                                            {
                                                "children": [],
                                                "depth": 3,
                                                "id": 4,
                                                "order": 4
                                            },
                                            {
                                                "children": [],
                                                "depth": 3,
                                                "id": 5,
                                                "order": 5
                                            }
                                        ],
                                        "depth": 2,
                                        "id": 3,
                                        "order": 3
                                    }
                                ],
                                "depth": 1,
                                "id": 2,
                                "order": 2
                            },
                            {
                                "children": [
                                    {
                                        "children": [
                                            {
                                                "children": [
                                                    {
                                                        "children": [],
                                                        "depth": 4,
                                                        "id": 11,
                                                        "order": 11
                                                    }
                                                ],
                                                "depth": 3,
                                                "id": 10,
                                                "order": 10
                                            },
                                            {
                                                "children": [],
                                                "depth": 3,
                                                "id": 14,
                                                "order": 14
                                            },
                                            {
                                                "children": [],
                                                "depth": 3,
                                                "id": 15,
                                                "order": 15
                                            }
                                        ],
                                        "depth": 2,
                                        "id": 9,
                                        "order": 9
                                    }
                                ],
                                "depth": 1,
                                "id": 6,
                                "order": 6
                            },
                            {
                                "children": [
                                    {
                                        "children": [],
                                        "depth": 2,
                                        "id": 18,
                                        "order": 18
                                    },
                                    {
                                        "children": [],
                                        "depth": 2,
                                        "id": 19,
                                        "order": 19
                                    }
                                ],
                                "depth": 1,
                                "id": 17,
                                "order": 17
                            },
                            {
                                "children": [],
                                "depth": 1,
                                "id": 20,
                                "order": 20
                            },
                            {
                                "children": [],
                                "depth": 1,
                                "id": 21,
                                "order": 21
                            },
                            {
                                "children": [],
                                "depth": 1,
                                "id": 22,
                                "order": 22
                            },
                            {
                                "children": [],
                                "depth": 1,
                                "id": 23,
                                "order": 23
                            }
                        ],
                        "depth": 0,
                        "id": 0,
                        "order": 0
                    }
                ],
                "depth": -1,
                "id": -1,
                "order": -1
            }
        ],
        "tidyTraceNodeCount": 18
    },
    "state_change": {
        "stateChanges": [
            {
                "address": "0x96e62454e99f1069a44cb34d4962e9d6fce19a74",
                "erc": "ERC-20",
                "slots": [
                    {
                        "current": "0x0000000000000000000000000000000000000000000000002595a4763b362fa3",
                        "key": "0xe3a676a74b33214c8ab3f5544f0ae938577488f839d78f4dcefea9fdf46c9045",
                        "prev": "0x00000000000000000000000000000000000000000000000023a670df1591eec7"
                    },
                    {
                        "current": "0xfffffffffffffffffffffffffffffffffffffffffffffffffe10cc68da5bbf23",
                        "key": "0x7d64ce534d1846f5b23be26463cf325ce69574f468815a330978267cfadceed7",
                        "prev": "0xffffffffffffffffffffffffffffffffffffffffffffffffffffffffffffffff"
                    },
                    {
                        "current": "0x0000000000000000000000000000000000000000000000000000000000000000",
                        "key": "0x35127b55cc9948c77e9d8a33d78c7c875190f3455e40de963c14aaac2d8e30ea",
                        "prev": "0x00000000000000000000000000000000000000000000000001ef339725a440dc"
                    }
                ],
                "storageVariables": [
                    {
                        "name": "_balances",
                        "type": "mapping(address => uint256)",
                        "value": {
                            "pairs": [
                                {
                                    "key": "0x727a37f2d2b48092ecbf03fb482a04fcbb5199ec",
                                    "value": {
                                        "current": "0",
                                        "prev": "139386837736374492",
                                        "typeTag": 1
                                    }
                                },
                                {
                                    "key": "0xbdd67a1a041bca2d8cdbdccef47b6f1e6152c5c4",
                                    "value": {
                                        "current": "2708251578639724451",
                                        "prev": "2568864740903349959",
                                        "typeTag": 1
                                    }
                                }
                            ],
                            "typeTag": 4
                        }
                    },
                    {
                        "name": "_allowances",
                        "type": "mapping(address => mapping(address => uint256))",
                        "value": {
                            "pairs": [
                                {
                                    "key": "0x727a37f2d2b48092ecbf03fb482a04fcbb5199ec",
                                    "value": {
                                        "pairs": [
                                            {
                                                "key": "0x5200a0e9b161bc59feecb165fe2592bef3e1847a",
                                                "value": {
                                                    "current": "115792089237316195423570985008687907853269984665640564039457444621075393265443",
                                                    "prev": "115792089237316195423570985008687907853269984665640564039457584007913129639935",
                                                    "typeTag": 1
                                                }
                                            }
                                        ],
                                        "typeTag": 4
                                    }
                                }
                            ],
                            "typeTag": 4
                        }
                    }
                ]
            },
            {
                "address": "0xbdd67a1a041bca2d8cdbdccef47b6f1e6152c5c4",
                "erc": "ERC-20",
                "slots": [
                    {
                        "current": "0x0000000000000000000000000000000003a2123f9e7e77d4eb165baf29b55144",
                        "key": "0x0000000000000000000000000000000000000000000000000000000000000009",
                        "prev": "0x000000000000000000000000000000000394024765dcf305e4593684198797a0"
                    },
                    {
                        "current": "0x00000000000000000000000000000000046cbd98b56012a0695fa8424baf03b8",
                        "key": "0x000000000000000000000000000000000000000000000000000000000000000a",
                        "prev": "0x00000000000000000000000000000000046280226773ccba1dd2092b524fac64"
                    },
                    {
                        "current": "0x65601ca700000000000027a214f7b66f000a0000000000002595a4763b362fa3",
                        "key": "0x0000000000000000000000000000000000000000000000000000000000000008",
                        "prev": "0x65601c9b00000000000029c6f5295fef541500000000000023a670df1591eec7"
                    }
                ],
                "storageVariables": [
                    {
                        "name": "reserve0",
                        "type": "uint112",
                        "value": {
                            "current": "2708251578639724451",
                            "prev": "2568864740903349959",
                            "typeTag": 1
                        }
                    },
                    {
                        "name": "reserve1",
                        "type": "uint112",
                        "value": {
                            "current": "2855868167856521226",
                            "prev": "3010362958995739669",
                            "typeTag": 1
                        }
                    },
                    {
                        "name": "blockTimestampLast",
                        "type": "uint32",
                        "value": {
                            "current": "1700797607",
                            "prev": "1700797595",
                            "typeTag": 1
                        }
                    },
                    {
                        "name": "price0CumulativeLast",
                        "type": "uint256",
                        "value": {
                            "current": "4829206202236015917559258134978318660",
                            "prev": "4756190143961745239857122380228302752",
                            "typeTag": 1
                        }
                    },
                    {
                        "name": "price1CumulativeLast",
                        "type": "uint256",
                        "value": {
                            "current": "5881525518090148827401139880410940344",
                            "prev": "5828355949479818774872877915266067556",
                            "typeTag": 1
                        }
                    }
                ]
            },
            {
                "address": "0xc02aaa39b223fe8d0a0e5c4f27ead9083c756cc2",
                "erc": "ERC-20",
                "slots": [
                    {
                        "current": "0x00000000000000000000000000000000000000000000000027a214f7b66f000a",
                        "key": "0xbfbb5b83e49c04258698ab22f45bde8dee8d2770672ebe27869f90db54522caa",
                        "prev": "0x00000000000000000000000000000000000000000000000029c6f5295fef5415"
                    }
                ],
                "storageVariables": [
                    {
                        "name": "balanceOf",
                        "type": "mapping(address => uint256)",
                        "value": {
                            "pairs": [
                                {
                                    "key": "0xbdd67a1a041bca2d8cdbdccef47b6f1e6152c5c4",
                                    "value": {
                                        "current": "2855868167856521226",
                                        "prev": "3010362958995739669",
                                        "typeTag": 1
                                    }
                                }
                            ],
                            "typeTag": 4
                        }
                    }
                ]
            },
            {
                "address": "0xdb5889e35e379ef0498aae126fc2cce1fbd23216",
                "erc": "",
                "slots": [
                    {
                        "current": "0x00000000000000000000000000000000000000000000000040e691306e942921",
                        "key": "0x0000000000000000000000000000000000000000000000000000000000000000",
                        "prev": "0x00000000000000000000000000000000000000000000000040e3d2a0d2d9eb45"
                    }
                ],
                "storageVariables": []
            }
        ]
    }
}