{
    "balance_change": {
        "balanceChanges": [
            {
                "account": "0xcd10c5026fee15e19dff79c966611d990578030e",
                "assets": [
                    {
                        "address": "0x94d6b4fb35fb08cb34aa716ab40049ec88002079",
                        "amount": "100",
                        "iconUrl": "",
                        "isERC1155": false,
                        "isERC721": false,
                        "sign": false,
                        "value": ""
                    }
                ]
            },
            {
                "account": "0xc3874a2c59b9779a75874be6b5f0b578120a8701",
                "assets": [
                    {
                        "address": "0x94d6b4fb35fb08cb34aa716ab40049ec88002079",
                        "amount": "100",
                        "iconUrl": "",
                        "isERC1155": false,
                        "isERC721": false,
                        "sign": true,
                        "value": ""
                    }
                ]
            }
        ]
    },
    "profile": {
        "basic_info": {
            "baseFee": "",
            "blockNumber": 4940683,
            "callData": "0xa9059cbb000000000000000000000000c3874a2c59b9779a75874be6b5f0b578120a870100000000000000000000000000000000000000000000000000000002540be400",
            "debugEnable": true,
            "errorInfo": "",
            "eventCount": 1,
            "feeRecipient": "0x829bd824b016326a401d083b33d092293333a830",
            "formatValue": "0",
            "gasLimit": 52687,
            "gasPrice": "21",
            "gasUsed": 52687,
            "intTxnCount": 0,
            "internalRevert": false,
            "internalRevertMessage": "",
            "isContractCreation": false,
            "isFlashloan": false,
            "maxFee": "",
            "nonce": 104,
            "overwritedBlockNumber": -1,
            "priorityFee": "",
            "receiver": "0x94d6b4fb35fb08cb34aa716ab40049ec88002079",
            "revertMessage": "",
            "sender": "0xcd10c5026fee15e19dff79c966611d990578030e",
            "simulationEnable": true,
            "sourceTxnHash": "0x908a173f9b912aa1a8258da2a90c591cba6708061f1db46c953f9852a689c0e3",
            "status": true,
            "timestamp": "2018-01-20T13:12:39Z",
            "transactionFee": "0.001106427",
            "txnHash": "0x908a173f9b912aa1a8258da2a90c591cba6708061f1db46c953f9852a689c0e3",
            "txnIndex": 213,
            "type": 0,
            "value": "0"
        },
        "fund_flow": [
            {
                "amount": "100",
                "from": "0xcd10c5026fee15e19dff79c966611d990578030e",
                "id": 1,
                "isERC1155": false,
                "isERC721": false,
                "isReverted": false,
                "order": 1,
                "to": "0xc3874a2c59b9779a75874be6b5f0b578120a8701",
                "token": "0x94d6b4fb35fb08cb34aa716ab40049ec88002079"
            }
        ],
        "token_infos": [
            {
                "address": "0x94d6b4fb35fb08cb34aa716ab40049ec88002079",
                "decimals": 8
            },
            {
                "address": "0xc02aaa39b223fe8d0a0e5c4f27ead9083c756cc2",
                "decimals": 18
            },
            {
                "address": "0xeeeeeeeeeeeeeeeeeeeeeeeeeeeeeeeeeeeeeeee",
                "decimals": 18
            }
        ]
    },
    "address_label": {
        "labels": [
            {
                "address": "0xeeeeeeeeeeeeeeeeeeeeeeeeeeeeeeeeeeeeeeee",
                "label": "Ether"
            },
            {
                "address": "0x94d6b4fb35fb08cb34aa716ab40049ec88002079",
                "label": "Cryptonex: CNX Token 2"
            },
            {
                "address": "0x0000000000000000000000000000000000000001",
                "label": "Precompiled"
            },
            {
                "address": "0x0000000000000000000000000000000000000002",
                "label": "Precompiled"
            },
            {
                "address": "0x0000000000000000000000000000000000000003",
                "label": "Precompiled"
            },
            {
                "address": "0x0000000000000000000000000000000000000004",
                "label": "Precompiled"
            }
        ]
    },
    "trace": {
        "accountLabels": null,
        "dataMap": {
            "-1": {
                "invocation": {
                    "address": "0xcd10c5026fee15e19dff79c966611d990578030e",
                    "callData": "",
                    "decodedMethod": null,
                    "errorInfo": "",
                    "fromAddress": "",
                    "gasUsed": 0,
                    "id": -1,
                    "methodDecoded": false,
                    "operation": "",
                    "output": "",
                    "revert": false,
                    "revertMessage": "",
                    "selector": "",
                    "status": false,
                    "value": ""
                },
                "nodeType": 0
            },
            "0": {
                "invocation": {
                    "address": "0x94d6b4fb35fb08cb34aa716ab40049ec88002079",
                    "callData": "0x000000000000000000000000c3874a2c59b9779a75874be6b5f0b578120a870100000000000000000000000000000000000000000000000000000002540be400",
                    "decodedMethod": {
                        "callParams": [
                            {
                                "name": "_to",
                                "type": "address",
                                "value": "0xc3874a2c59b9779a75874be6b5f0b578120a8701"
                            },
                            {
                                "decimalAvailable": true,
                                "name": "_value",
                                "type": "uint256",
                                "value": "10,000,000,000"
                            }
                        ],
                        "constructorArguments": "",
                        "name": "transfer",
                        "returnParams": [],
                        "signature": "transfer(address,uint256)"
                    },
                    "errorInfo": "",
                    "fromAddress": "0xcd10c5026fee15e19dff79c966611d990578030e",
                    "gasUsed": 52687,
                    "id": 0,
                    "methodDecoded": true,
                    "operation": "CALL",
                    "output": "",
                    "revert": false,
                    "revertMessage": "",
                    "selector": "0xa9059cbb",
                    "status": true,
                    "value": "0"
                },
                "nodeType": 0
            },
            "1": {
                "event": {
                    "contract": "0x94d6b4fb35fb08cb34aa716ab40049ec88002079",
                    "decodedLog": {
                        "name": "Transfer",
                        "params": [
                            {
                                "name": "from",
                                "type": "address",
                                "value": "0xcd10c5026fee15e19dff79c966611d990578030e"
                            },
                            {
                                "name": "to",
                                "type": "address",
                                "value": "0xc3874a2c59b9779a75874be6b5f0b578120a8701"
                            },
                            {
                                "decimalAvailable": true,
                                "name": "value",
                                "type": "uint256",
                                "value": "10,000,000,000"
                            }
                        ],
                        "signature": "Transfer(address,address,uint256)"
                    },
                    "id": 1,
                    "logData": "0x00000000000000000000000000000000000000000000000000000002540be400",
                    "logDecoded": true,
                    "operation": "EVENT",
                    "revert": false,
                    "status": true,
                    "topics": [
                        "0xddf252ad1be2c89b69c2b068fc378daa952ba7f163c4a11628f55a4df523b3ef",
                        "0x000000000000000000000000cd10c5026fee15e19dff79c966611d990578030e",
                        "0x000000000000000000000000c3874a2c59b9779a75874be6b5f0b578120a8701"
                    ]
                },
                "nodeType": 1
            }
        },
        "gasFlame": [
            {
                "children": [
                    {
                        "children": [
                            {
                                "children": [],
                                "depth": 0,
                                "name": "Initial Gas",
                                "value": 23064
                            },
                            {
                                "children": [],
                                "depth": 0,
                                "name": "Executed Gas",
                                "value": 29623
                            }
                        ],
                        "depth": -1,
                        "name": "Actual Gas Used",
                        "value": 52687
                    },
                    {
                        "children": [],
                        "depth": -1,
                        "name": "Refunded Gas",
                        "value": 0
                    }
                ],
                "depth": -2,
                "name": "Total Gas",
                "value": 52687
            }
        ],
        "isConfirmed": true,
        "mainTrace": [
            {
                "children": [
                    {
                        "children": [
                            {
                                "children": [],
                                "depth": 1,
                                "id": 1,
                                "order": 1
                            }
                        ],
                        "depth": 0,
                        "id": 0,
                        "order": 0
                    }
                ],
                "depth": -1,
                "id": -1,
                "order": -1
            }
        ],
        "mainTraceNodeCount": 2,
        "parentIdMap": {
            "0": -1,
            "1": 0
        },
        "tidyTrace": [
            {
                "children": [
                    {
                        "children": [
                            {
                                "children": [],
                                "depth": 1,
                                "id": 1,
                                "order": 1
                            }
                        ],
                        "depth": 0,
                        "id": 0,
                        "order": 0
                    }
                ],
                "depth": -1,
                "id": -1,
                "order": -1
            }
        ],
        "tidyTraceNodeCount": 2
    },
    "state_change": {
        "stateChanges": [
            {
                "address": "0x94d6b4fb35fb08cb34aa716ab40049ec88002079",
                "erc": "",
                "slots": [
                    {
                        "current": "0x00000000000000000000000000000000000000000000000000000014f46b0400",
                        "key": "0x2c3f44d2d45784770a44254fbb133f3e1be73b8438a28a326e0ca24ad94bf9cb",
                        "prev": "0x000000000000000000000000000000000000000000000000000000174876e800"
                    },
                    {
                        "current": "0x00000000000000000000000000000000000000000000000000000002540be400",
                        "key": "0x324486178d560bcc7707b5efe89ef35f9df2b875573e3c33f69f1a1207362ba9",
                        "prev": "0x0000000000000000000000000000000000000000000000000000000000000000"
                    }
                ],
                "storageVariables": []
            }
        ]
    }
}