{
    "balance_change": {
        "balanceChanges": []
    },
    "profile": {
        "basic_info": {
            "baseFee": "",
            "blockNumber": 4582873,
            "callData": "0x278b8c0e0000000000000000000000000000000000000000000000000000000000000000000000000000000000000000000000000000000000000000015262d0062af19c000000000000000000000000ab95e915c123fded5bdfb6325e35ef5515f1ea690000000000000000000000000000000000000000000000695fec7692df73cf0000000000000000000000000000000000000000000000000000000000004605ff000000000000000000000000000000000000000000000000000000001a5013f1000000000000000000000000000000000000000000000000000000000000001c5c896627fb0521a0ead51b98926ea92fb9d746b240d707692c411d77e87a897e70d65a4be19bc2e3c3a62f5d9847f171bc1e2f42da66029e010c9eee731e6a6f",
            "debugEnable": true,
            "errorInfo": "",
            "eventCount": 1,
            "feeRecipient": "0x52bc44d5378309ee2abf1539bf71de1b7d7be3b5",
            "formatValue": "0",
            "gasLimit": 250000,
            "gasPrice": "4",
            "gasUsed": 59482,
            "intTxnCount": 2,
            "internalRevert": false,
            "internalRevertMessage": "",
            "isContractCreation": false,
            "isFlashloan": false,
            "maxFee": "",
            "nonce": 3,
            "overwritedBlockNumber": -1,
            "priorityFee": "",
            "receiver": "0x8d12a197cb00d4747a1fe03395095ce2a5cc6819",
            "revertMessage": "",
            "sender": "0xf1ceaa55c1b75aad5394c1cbb0819a032595078e",
            "simulationEnable": true,
            "sourceTxnHash": "0x906b7e8b62f196f6492f74b08b5c7ec56bf5a6980a1116b7b1c686b8b9f86cc3",
            "status": true,
            "timestamp": "2017-11-19T15:32:11Z",
            "transactionFee": "0.000237928",
            "txnHash": "0x906b7e8b62f196f6492f74b08b5c7ec56bf5a6980a1116b7b1c686b8b9f86cc3",
            "txnIndex": 84,
            "type": 0,
            "value": "0"
        },
        "fund_flow": [],
        "token_infos": [
            {
                "address": "0xc02aaa39b223fe8d0a0e5c4f27ead9083c756cc2",
                "decimals": 18
            },
            {
                "address": "0xeeeeeeeeeeeeeeeeeeeeeeeeeeeeeeeeeeeeeeee",
                "decimals": 18
            }
        ]
    },
    "address_label": {
        "labels": [
            {
                "address": "0x0000000000000000000000000000000000000002",
                "label": "Precompiled"
            },
            {
                "address": "0x0000000000000000000000000000000000000000",
                "label": "Null Address"
            },
            {
                "address": "0x0000000000000000000000000000000000000001",
                "label": "Precompiled"
            },
            {
                "address": "0x0000000000000000000000000000000000000003",
                "label": "Precompiled"
            },
            {
                "address": "0x0000000000000000000000000000000000000004",
                "label": "Precompiled"
            },
            {
                "address": "0xeeeeeeeeeeeeeeeeeeeeeeeeeeeeeeeeeeeeeeee",
                "label": "Ether"
            },
            {
                "address": "0x8d12a197cb00d4747a1fe03395095ce2a5cc6819",
                "label": "EtherDelta"
            },
            {
                "address": "0xab95e915c123fded5bdfb6325e35ef5515f1ea69",
                "label": "XenonToken"
            }
        ]
    },
    "trace": {
        "accountLabels": null,
        "dataMap": {
            "-1": {
                "invocation": {
                    "address": "0xf1ceaa55c1b75aad5394c1cbb0819a032595078e",
                    "callData": "",
                    "decodedMethod": null,
                    "errorInfo": "",
                    "fromAddress": "",
                    "gasUsed": 0,
                    "id": -1,
                    "methodDecoded": false,
                    "operation": "",
                    "output": "",
                    "revert": false,
                    "revertMessage": "",
                    "selector": "",
                    "status": false,
                    "value": ""
                },
                "nodeType": 0
            },
            "0": {
                "invocation": {
                    "address": "0x8d12a197cb00d4747a1fe03395095ce2a5cc6819",
                    "callData": "0x0000000000000000000000000000000000000000000000000000000000000000000000000000000000000000000000000000000000000000015262d0062af19c000000000000000000000000ab95e915c123fded5bdfb6325e35ef5515f1ea690000000000000000000000000000000000000000000000695fec7692df73cf0000000000000000000000000000000000000000000000000000000000004605ff000000000000000000000000000000000000000000000000000000001a5013f1000000000000000000000000000000000000000000000000000000000000001c5c896627fb0521a0ead51b98926ea92fb9d746b240d707692c411d77e87a897e70d65a4be19bc2e3c3a62f5d9847f171bc1e2f42da66029e010c9eee731e6a6f",
                    "decodedMethod": {
                        "callParams": [
                            {
                                "name": "tokenGet",
                                "type": "address",
                                "value": "0x0000000000000000000000000000000000000000"
                            },
                            {
                                "name": "amountGet",
                                "type": "uint256",
                                "value": "95,247,187,724,399,004"
                            },
                            {
                                "name": "tokenGive",
                                "type": "address",
                                "value": "0xab95e915c123fded5bdfb6325e35ef5515f1ea69"
                            },
                            {
                                "name": "amountGive",
                                "type": "uint256",
                                "value": "1,943,820,157,640,796,000,000"
                            },
                            {
                                "name": "expires",
                                "type": "uint256",
                                "value": "4,589,055"
                            },
                            {
                                "name": "nonce",
                                "type": "uint256",
                                "value": "441,455,601"
                            },
                            {
                                "name": "v",
                                "type": "uint8",
                                "value": "28"
                            },
                            {
                                "name": "r",
                                "type": "bytes32",
                                "value": "0x5c896627fb0521a0ead51b98926ea92fb9d746b240d707692c411d77e87a897e"
                            },
                            {
                                "name": "s",
                                "type": "bytes32",
                                "value": "0x70d65a4be19bc2e3c3a62f5d9847f171bc1e2f42da66029e010c9eee731e6a6f"
                            }
                        ],
                        "constructorArguments": "",
                        "name": "cancelOrder",
                        "returnParams": [],
                        "signature": "cancelOrder(address,uint256,address,uint256,uint256,uint256,uint8,bytes32,bytes32)"
                    },
                    "errorInfo": "",
                    "fromAddress": "0xf1ceaa55c1b75aad5394c1cbb0819a032595078e",
                    "gasUsed": 59482,
                    "id": 0,
                    "methodDecoded": true,
                    "operation": "CALL",
                    "output": "",
                    "revert": false,
                    "revertMessage": "",
                    "selector": "0x278b8c0e",
                    "status": true,
                    "value": "0"
                },
                "nodeType": 0
            },
            "1": {
                "invocation": {
                    "address": "0x0000000000000000000000000000000000000002",
                    "callData": "0xcb00d4747a1fe03395095ce2a5cc68190000000000000000000000000000000000000000000000000000000000000000000000000000000000000000015262d0062af19cab95e915c123fded5bdfb6325e35ef5515f1ea690000000000000000000000000000000000000000000000695fec7692df73cf0000000000000000000000000000000000000000000000000000000000004605ff000000000000000000000000000000000000000000000000000000001a5013f1",
                    "decodedMethod": {
                        "callParams": [
                            {
                                "name": "data",
                                "type": "bytes",
                                "value": "0x8d12a197cb00d4747a1fe03395095ce2a5cc68190000000000000000000000000000000000000000000000000000000000000000000000000000000000000000015262d0062af19cab95e915c123fded5bdfb6325e35ef5515f1ea690000000000000000000000000000000000000000000000695fec7692df73cf0000000000000000000000000000000000000000000000000000000000004605ff000000000000000000000000000000000000000000000000000000001a5013f1"
                            }
                        ],
                        "constructorArguments": "",
                        "name": "sha256hash",
                        "returnParams": [
                            {
                                "name": "hash",
                                "type": "bytes32",
                                "value": "0xfb96d0cf1beca66657c7cf3bfb2ffac5f7b3dfddddfc0f8fd44ece0b54a9e492"
                            }
                        ],
                        "signature": "sha256hash(bytes)"
                    },
                    "errorInfo": "",
                    "fromAddress": "0x8d12a197cb00d4747a1fe03395095ce2a5cc6819",
                    "gasUsed": 132,
                    "id": 1,
                    "methodDecoded": true,
                    "operation": "CALL",
                    "output": "0xfb96d0cf1beca66657c7cf3bfb2ffac5f7b3dfddddfc0f8fd44ece0b54a9e492",
                    "revert": false,
                    "revertMessage": "",
                    "selector": "0x8d12a197",
                    "status": true,
                    "value": "0"
                },
                "nodeType": 0
            },
            "2": {
                "invocation": {
                    "address": "0x0000000000000000000000000000000000000001",
                    "callData": "0x44b6bfc784235a229f7d8e5f7fd962b53ad60d0f92869130a635cce3000000000000000000000000000000000000000000000000000000000000001c5c896627fb0521a0ead51b98926ea92fb9d746b240d707692c411d77e87a897e70d65a4be19bc2e3c3a62f5d9847f171bc1e2f42da66029e010c9eee731e6a6f",
                    "decodedMethod": {
                        "callParams": [
                            {
                                "name": "hash",
                                "type": "bytes32",
                                "value": "0xa516624e44b6bfc784235a229f7d8e5f7fd962b53ad60d0f92869130a635cce3"
                            },
                            {
                                "name": "v",
                                "type": "uint256",
                                "value": "28"
                            },
                            {
                                "name": "r",
                                "type": "bytes32",
                                "value": "0x5c896627fb0521a0ead51b98926ea92fb9d746b240d707692c411d77e87a897e"
                            },
                            {
                                "name": "s",
                                "type": "bytes32",
                                "value": "0x70d65a4be19bc2e3c3a62f5d9847f171bc1e2f42da66029e010c9eee731e6a6f"
                            }
                        ],
                        "constructorArguments": "",
                        "name": "ecrecover",
                        "returnParams": [
                            {
                                "name": "",
                                "type": "address",
                                "value": "0xf1ceaa55c1b75aad5394c1cbb0819a032595078e"
                            }
                        ],
                        "signature": "ecrecover(bytes32,uint256,bytes32,bytes32)"
                    },
                    "errorInfo": "",
                    "fromAddress": "0x8d12a197cb00d4747a1fe03395095ce2a5cc6819",
                    "gasUsed": 3000,
                    "id": 2,
                    "methodDecoded": true,
                    "operation": "CALL",
                    "output": "0x000000000000000000000000f1ceaa55c1b75aad5394c1cbb0819a032595078e",
                    "revert": false,
                    "revertMessage": "",
                    "selector": "0xa516624e",
                    "status": true,
                    "value": "0"
                },
                "nodeType": 0
            },
            "3": {
                "event": {
                    "contract": "0x8d12a197cb00d4747a1fe03395095ce2a5cc6819",
                    "decodedLog": {
                        "name": "Cancel",
                        "params": [
                            {
                                "name": "tokenGet",
                                "type": "address",
                                "value": "0x0000000000000000000000000000000000000000"
                            },
                            {
                                "name": "amountGet",
                                "type": "uint256",
                                "value": "95,247,187,724,399,004"
                            },
                            {
                                "name": "tokenGive",
                                "type": "address",
                                "value": "0xab95e915c123fded5bdfb6325e35ef5515f1ea69"
                            },
                            {
                                "name": "amountGive",
                                "type": "uint256",
                                "value": "1,943,820,157,640,796,000,000"
                            },
                            {
                                "name": "expires",
                                "type": "uint256",
                                "value": "4,589,055"
                            },
                            {
                                "name": "nonce",
                                "type": "uint256",
                                "value": "441,455,601"
                            },
                            {
                                "name": "user",
                                "type": "address",
                                "value": "0xf1ceaa55c1b75aad5394c1cbb0819a032595078e"
                            },
                            {
                                "name": "v",
                                "type": "uint8",
                                "value": "28"
                            },
                            {
                                "name": "r",
                                "type": "bytes32",
                                "value": "0x5c896627fb0521a0ead51b98926ea92fb9d746b240d707692c411d77e87a897e"
                            },
                            {
                                "name": "s",
                                "type": "bytes32",
                                "value": "0x70d65a4be19bc2e3c3a62f5d9847f171bc1e2f42da66029e010c9eee731e6a6f"
                            }
                        ],
                        "signature": "Cancel(address,uint256,address,uint256,uint256,uint256,address,uint8,bytes32,bytes32)"
                    },
                    "id": 3,
                    "logData": "0x0000000000000000000000000000000000000000000000000000000000000000000000000000000000000000000000000000000000000000015262d0062af19c000000000000000000000000ab95e915c123fded5bdfb6325e35ef5515f1ea690000000000000000000000000000000000000000000000695fec7692df73cf0000000000000000000000000000000000000000000000000000000000004605ff000000000000000000000000000000000000000000000000000000001a5013f1000000000000000000000000f1ceaa55c1b75aad5394c1cbb0819a032595078e000000000000000000000000000000000000000000000000000000000000001c5c896627fb0521a0ead51b98926ea92fb9d746b240d707692c411d77e87a897e70d65a4be19bc2e3c3a62f5d9847f171bc1e2f42da66029e010c9eee731e6a6f",
                    "logDecoded": true,
                    "operation": "EVENT",
                    "revert": false,
                    "status": true,
                    "topics": [
                        "0x1e0b760c386003e9cb9bcf4fcf3997886042859d9b6ed6320e804597fcdb28b0"
                    ]
                },
                "nodeType": 1
            }
        },
        "gasFlame": [
            {
                "children": [
                    {
                        "children": [
                            {
                                "children": [],
                                "depth": 0,
                                "name": "Initial Gas",
                                "value": 29336
                            },
                            {
                                "children": [
                                    {
                                        "children": [],
                                        "depth": 1,
                                        "name": "sha256hash",
                                        "value": 132
                                    },
                                    {
                                        "children": [],
                                        "depth": 1,
                                        "name": "ecrecover",
                                        "value": 3000
                                    }
                                ],
                                "depth": 0,
                                "name": "Executed Gas",
                                "value": 30146
                            }
                        ],
                        "depth": -1,
                        "name": "Actual Gas Used",
                        "value": 59482
                    },
                    {
                        "children": [],
                        "depth": -1,
                        "name": "Refunded Gas",
                        "value": 0
                    }
                ],
                "depth": -2,
                "name": "Total Gas",
                "value": 59482
            }
        ],
        "isConfirmed": true,
        "mainTrace": [
            {
                "children": [
                    {
                        "children": [
                            {
                                "children": [],
                                "depth": 1,
                                "id": 1,
                                "order": 1
                            },
                            {
                                "children": [],
                                "depth": 1,
                                "id": 2,
                                "order": 2
                            },
                            {
                                "children": [],
                                "depth": 1,
                                "id": 3,
                                "order": 3
                            }
                        ],
                        "depth": 0,
                        "id": 0,
                        "order": 0
                    }
                ],
                "depth": -1,
                "id": -1,
                "order": -1
            }
        ],
        "mainTraceNodeCount": 4,
        "parentIdMap": {
            "0": -1,
            "1": 0,
            "2": 0,
            "3": 0
        },
        "tidyTrace": [
            {
                "children": [
                    {
                        "children": [
                            {
                                "children": [],
                                "depth": 1,
                                "id": 1,
                                "order": 1
                            },
                            {
                                "children": [],
                                "depth": 1,
                                "id": 2,
                                "order": 2
                            },
                            {
                                "children": [],
                                "depth": 1,
                                "id": 3,
                                "order": 3
                            }
                        ],
                        "depth": 0,
                        "id": 0,
                        "order": 0
                    }
                ],
                "depth": -1,
                "id": -1,
                "order": -1
            }
        ],
        "tidyTraceNodeCount": 4
    },
    "state_change": {
        "stateChanges": [
            {
                "address": "0x8d12a197cb00d4747a1fe03395095ce2a5cc6819",
                "erc": "",
                "slots": [
                    {
                        "current": "0x000000000000000000000000000000000000000000000000015262d0062af19c",
                        "key": "0x91616def445aeefb2ac72aaaac34adfa58ed3d08d874ce2a2604f75e6ddd0cdf",
                        "prev": "0x0000000000000000000000000000000000000000000000000000000000000000"
                    }
                ],
                "storageVariables": []
            }
        ]
    }
}