{
    "balance_change": {
        "balanceChanges": []
    },
    "profile": {
        "basic_info": {
            "baseFee": "1.829114911",
            "blockNumber": 20515500,
            "callData": "0x095ea7b3000000000000000000000000f2614a233c7c3e7f08b1f887ba133a13f1eb2c55000000000000000000000000000000000000000000000000001e905fb2f4cc00",
            "debugEnable": true,
            "errorInfo": "",
            "eventCount": 1,
            "feeRecipient": "0x95222290dd7278aa3ddd389cc1e1d165cc4bafe5",
            "formatValue": "0",
            "gasLimit": 59102,
            "gasPrice": "1.830114911",
            "gasUsed": 46898,
            "intTxnCount": 0,
            "internalRevert": false,
            "internalRevertMessage": "",
            "isContractCreation": false,
            "isFlashloan": false,
            "maxFee": "1.919844536",
            "nonce": 69,
            "overwritedBlockNumber": -1,
            "priorityFee": "0.001",
            "receiver": "0x180000dda70eb7fb7f3e10e52e88ce88f46e3b3a",
            "revertMessage": "",
            "sender": "0x62f9458b5347b6a5af2b7192f537e5782dbdd140",
            "simulationEnable": true,
            "sourceTxnHash": "0x91e1096cf47c51c938d5a0c1eea7c0698c9554b18d06af7eb729c21a70914092",
            "status": true,
            "timestamp": "2024-08-12T22:23:59Z",
            "transactionFee": "0.000085828729096078",
            "txnHash": "0x91e1096cf47c51c938d5a0c1eea7c0698c9554b18d06af7eb729c21a70914092",
            "txnIndex": 102,
            "type": 2,
            "value": "0"
        },
        "fund_flow": [],
        "token_infos": [
            {
                "address": "0xc02aaa39b223fe8d0a0e5c4f27ead9083c756cc2",
                "decimals": 18
            },
            {
                "address": "0xeeeeeeeeeeeeeeeeeeeeeeeeeeeeeeeeeeeeeeee",
                "decimals": 18
            }
        ]
    },
    "address_label": {
        "labels": [
            {
                "address": "0x0000000000000000000000000000000000000003",
                "label": "Precompiled"
            },
            {
                "address": "0x0000000000000000000000000000000000000004",
                "label": "Precompiled"
            },
            {
                "address": "0xeeeeeeeeeeeeeeeeeeeeeeeeeeeeeeeeeeeeeeee",
                "label": "Ether"
            },
            {
                "address": "0x180000dda70eb7fb7f3e10e52e88ce88f46e3b3a",
                "label": "KABOSU: KABOSU Token"
            },
            {
                "address": "0x0000000000000000000000000000000000000001",
                "label": "Precompiled"
            },
            {
                "address": "0x0000000000000000000000000000000000000002",
                "label": "Precompiled"
            }
        ]
    },
    "trace": {
        "accountLabels": null,
        "dataMap": {
            "-1": {
                "invocation": {
                    "address": "0x62f9458b5347b6a5af2b7192f537e5782dbdd140",
                    "callData": "",
                    "decodedMethod": null,
                    "errorInfo": "",
                    "fromAddress": "",
                    "gasUsed": 0,
                    "id": -1,
                    "methodDecoded": false,
                    "operation": "",
                    "output": "",
                    "revert": false,
                    "revertMessage": "",
                    "selector": "",
                    "status": false,
                    "value": ""
                },
                "nodeType": 0
            },
            "0": {
                "invocation": {
                    "address": "0x180000dda70eb7fb7f3e10e52e88ce88f46e3b3a",
                    "callData": "0x000000000000000000000000f2614a233c7c3e7f08b1f887ba133a13f1eb2c55000000000000000000000000000000000000000000000000001e905fb2f4cc00",
                    "decodedMethod": {
                        "callParams": [
                            {
                                "name": "spender",
                                "type": "address",
                                "value": "0xf2614a233c7c3e7f08b1f887ba133a13f1eb2c55"
                            },
                            {
                                "decimalAvailable": true,
                                "name": "amount",
                                "type": "uint256",
                                "value": "8,602,990,000,000,000"
                            }
                        ],
                        "constructorArguments": "",
                        "name": "approve",
                        "returnParams": [
                            {
                                "name": "",
                                "type": "bool",
                                "value": true
                            }
                        ],
                        "signature": "approve(address,uint256)"
                    },
                    "errorInfo": "",
                    "fromAddress": "0x62f9458b5347b6a5af2b7192f537e5782dbdd140",
                    "gasUsed": 46898,
                    "id": 0,
                    "methodDecoded": true,
                    "operation": "CALL",
                    "output": "0x0000000000000000000000000000000000000000000000000000000000000001",
                    "revert": false,
                    "revertMessage": "",
                    "selector": "0x095ea7b3",
                    "status": true,
                    "value": "0"
                },
                "nodeType": 0
            },
            "1": {
                "event": {
                    "contract": "0x180000dda70eb7fb7f3e10e52e88ce88f46e3b3a",
                    "decodedLog": {
                        "name": "Approval",
                        "params": [
                            {
                                "name": "owner",
                                "type": "address",
                                "value": "0x62f9458b5347b6a5af2b7192f537e5782dbdd140"
                            },
                            {
                                "name": "spender",
                                "type": "address",
                                "value": "0xf2614a233c7c3e7f08b1f887ba133a13f1eb2c55"
                            },
                            {
                                "decimalAvailable": true,
                                "name": "value",
                                "type": "uint256",
                                "value": "8,602,990,000,000,000"
                            }
                        ],
                        "signature": "Approval(address,address,uint256)"
                    },
                    "id": 1,
                    "logData": "0x000000000000000000000000000000000000000000000000001e905fb2f4cc00",
                    "logDecoded": true,
                    "operation": "EVENT",
                    "revert": false,
                    "status": true,
                    "topics": [
                        "0x8c5be1e5ebec7d5bd14f71427d1e84f3dd0314c0f7b2291e5b200ac8c7c3b925",
                        "0x00000000000000000000000062f9458b5347b6a5af2b7192f537e5782dbdd140",
                        "0x000000000000000000000000f2614a233c7c3e7f08b1f887ba133a13f1eb2c55"
                    ]
                },
                "nodeType": 1
            }
        },
        "gasFlame": [
            {
                "children": [
                    {
                        "children": [
                            {
                                "children": [],
                                "depth": 0,
                                "name": "Initial Gas",
                                "value": 21632
                            },
                            {
                                "children": [],
                                "depth": 0,
                                "name": "Executed Gas",
                                "value": 25266
                            }
                        ],
                        "depth": -1,
                        "name": "Actual Gas Used",
                        "value": 46898
                    },
                    {
                        "children": [],
                        "depth": -1,
                        "name": "Refunded Gas",
                        "value": 0
                    }
                ],
                "depth": -2,
                "name": "Total Gas",
                "value": 46898
            }
        ],
        "isConfirmed": true,
        "mainTrace": [
            {
                "children": [
                    {
                        "children": [
                            {
                                "children": [],
                                "depth": 1,
                                "id": 1,
                                "order": 1
                            }
                        ],
                        "depth": 0,
                        "id": 0,
                        "order": 0
                    }
                ],
                "depth": -1,
                "id": -1,
                "order": -1
            }
        ],
        "mainTraceNodeCount": 2,
        "parentIdMap": {
            "0": -1,
            "1": 0
        },
        "tidyTrace": [
            {
                "children": [
                    {
                        "children": [
                            {
                                "children": [],
                                "depth": 1,
                                "id": 1,
                                "order": 1
                            }
                        ],
                        "depth": 0,
                        "id": 0,
                        "order": 0
                    }
                ],
                "depth": -1,
                "id": -1,
                "order": -1
            }
        ],
        "tidyTraceNodeCount": 2
    },
    "state_change": {
        "stateChanges": [
            {
                "address": "0x180000dda70eb7fb7f3e10e52e88ce88f46e3b3a",
                "erc": "ERC-20",
                "slots": [
                    {
                        "current": "0x000000000000000000000000000000000000000000000000001e905fb2f4cc00",
                        "key": "0x6fdd3f8fcc69c9655fac8513077fab77cf2e0c1162780dfbcc2d15854dc70865",
                        "prev": "0x0000000000000000000000000000000000000000000000000000000000000000"
                    }
                ],
                "storageVariables": [
                    {
                        "name": "_allowances",
                        "type": "mapping(address => mapping(address => uint256))",
                        "value": {
                            "pairs": [
                                {
                                    "key": "0x62f9458b5347b6a5af2b7192f537e5782dbdd140",
                                    "value": {
                                        "pairs": [
                                            {
                                                "key": "0xf2614a233c7c3e7f08b1f887ba133a13f1eb2c55",
                                                "value": {
                                                    "current": "8602990000000000",
                                                    "prev": "0",
                                                    "typeTag": 1
                                                }
                                            }
                                        ],
                                        "typeTag": 4
                                    }
                                }
                            ],
                            "typeTag": 4
                        }
                    }
                ]
            }
        ]
    }
}