{
    "balance_change": {
        "balanceChanges": [
            {
                "account": "0xaa60a225ca2d272b946117f86e03c76c8c261675",
                "assets": [
                    {
                        "address": "0x8198ad77845ba0f33151f13e6993e5ff5c93b899",
                        "amount": "1",
                        "iconUrl": "",
                        "isERC1155": false,
                        "isERC721": true,
                        "sign": false,
                        "tokenID": "1184",
                        "value": ""
                    }
                ]
            },
            {
                "account": "0x0ca944724d375210cc283c1de5c0b20f07b1a39d",
                "assets": [
                    {
                        "address": "0x8198ad77845ba0f33151f13e6993e5ff5c93b899",
                        "amount": "1",
                        "iconUrl": "",
                        "isERC1155": false,
                        "isERC721": true,
                        "sign": true,
                        "tokenID": "1184",
                        "value": ""
                    }
                ]
            }
        ]
    },
    "profile": {
        "basic_info": {
            "baseFee": "130.105530866",
            "blockNumber": 14109902,
            "callData": "0x23b872dd000000000000000000000000aa60a225ca2d272b946117f86e03c76c8c2616750000000000000000000000000ca944724d375210cc283c1de5c0b20f07b1a39d00000000000000000000000000000000000000000000000000000000000004a0",
            "debugEnable": true,
            "errorInfo": "",
            "eventCount": 2,
            "feeRecipient": "0x26b3eea1cd34a4aff7ce828a5f71daac042d38e0",
            "formatValue": "0",
            "gasLimit": 77528,
            "gasPrice": "131.725530866",
            "gasUsed": 65039,
            "intTxnCount": 1,
            "internalRevert": false,
            "internalRevertMessage": "",
            "isContractCreation": false,
            "isFlashloan": false,
            "maxFee": "137",
            "nonce": 2,
            "overwritedBlockNumber": -1,
            "priorityFee": "1.62",
            "receiver": "0x8198ad77845ba0f33151f13e6993e5ff5c93b899",
            "revertMessage": "",
            "sender": "0xaa60a225ca2d272b946117f86e03c76c8c261675",
            "simulationEnable": true,
            "sourceTxnHash": "0x9186d5a1d440b356c1b96ca5e4f1443be4d495fb9938a86388f60fc8d6cc7f4f",
            "status": true,
            "timestamp": "2022-01-30T22:32:59Z",
            "transactionFee": "0.008567296801993774",
            "txnHash": "0x9186d5a1d440b356c1b96ca5e4f1443be4d495fb9938a86388f60fc8d6cc7f4f",
            "txnIndex": 44,
            "type": 2,
            "value": "0"
        },
        "fund_flow": [
            {
                "amount": "1",
                "from": "0xaa60a225ca2d272b946117f86e03c76c8c261675",
                "id": 1,
                "isERC1155": false,
                "isERC721": true,
                "isReverted": false,
                "order": 1,
                "to": "0x0ca944724d375210cc283c1de5c0b20f07b1a39d",
                "token": "0x8198ad77845ba0f33151f13e6993e5ff5c93b899",
                "tokenID": "1184"
            }
        ],
        "token_infos": [
            {
                "address": "0xc02aaa39b223fe8d0a0e5c4f27ead9083c756cc2",
                "decimals": 18
            },
            {
                "address": "0xeeeeeeeeeeeeeeeeeeeeeeeeeeeeeeeeeeeeeeee",
                "decimals": 18
            }
        ]
    },
    "address_label": {
        "labels": [
            {
                "address": "0xeeeeeeeeeeeeeeeeeeeeeeeeeeeeeeeeeeeeeeee",
                "label": "Ether"
            },
            {
                "address": "0x8198ad77845ba0f33151f13e6993e5ff5c93b899",
                "label": "STAXX Invaders (STAXX)"
            },
            {
                "address": "0xf273b9eeb2e6d1da35004b18291d05f342a518e6",
                "label": "StaxxInvaders"
            },
            {
                "address": "0x0000000000000000000000000000000000000001",
                "label": "Precompiled"
            },
            {
                "address": "0x0000000000000000000000000000000000000002",
                "label": "Precompiled"
            },
            {
                "address": "0x0000000000000000000000000000000000000003",
                "label": "Precompiled"
            },
            {
                "address": "0x0000000000000000000000000000000000000004",
                "label": "Precompiled"
            }
        ]
    },
    "trace": {
        "accountLabels": null,
        "dataMap": {
            "-1": {
                "invocation": {
                    "address": "0xaa60a225ca2d272b946117f86e03c76c8c261675",
                    "callData": "",
                    "decodedMethod": null,
                    "errorInfo": "",
                    "fromAddress": "",
                    "gasUsed": 0,
                    "id": -1,
                    "methodDecoded": false,
                    "operation": "",
                    "output": "",
                    "revert": false,
                    "revertMessage": "",
                    "selector": "",
                    "status": false,
                    "value": ""
                },
                "nodeType": 0
            },
            "0": {
                "invocation": {
                    "address": "0x8198ad77845ba0f33151f13e6993e5ff5c93b899",
                    "callData": "0x000000000000000000000000aa60a225ca2d272b946117f86e03c76c8c2616750000000000000000000000000ca944724d375210cc283c1de5c0b20f07b1a39d00000000000000000000000000000000000000000000000000000000000004a0",
                    "decodedMethod": {
                        "callParams": [
                            {
                                "name": "from",
                                "type": "address",
                                "value": "0xaa60a225ca2d272b946117f86e03c76c8c261675"
                            },
                            {
                                "name": "to",
                                "type": "address",
                                "value": "0x0ca944724d375210cc283c1de5c0b20f07b1a39d"
                            },
                            {
                                "decimalAvailable": true,
                                "name": "tokenId",
                                "type": "uint256",
                                "value": "1,184"
                            }
                        ],
                        "constructorArguments": "",
                        "name": "transferFrom",
                        "returnParams": [],
                        "signature": "transferFrom(address,address,uint256)"
                    },
                    "errorInfo": "",
                    "fromAddress": "0xaa60a225ca2d272b946117f86e03c76c8c261675",
                    "gasUsed": 65039,
                    "id": 0,
                    "methodDecoded": true,
                    "operation": "CALL",
                    "output": "",
                    "revert": false,
                    "revertMessage": "",
                    "selector": "0x23b872dd",
                    "status": true,
                    "value": "0"
                },
                "nodeType": 0
            },
            "1": {
                "invocation": {
                    "address": "0xf273b9eeb2e6d1da35004b18291d05f342a518e6",
                    "callData": "0x000000000000000000000000aa60a225ca2d272b946117f86e03c76c8c2616750000000000000000000000000ca944724d375210cc283c1de5c0b20f07b1a39d00000000000000000000000000000000000000000000000000000000000004a0",
                    "decodedMethod": {
                        "callParams": [
                            {
                                "name": "from",
                                "type": "address",
                                "value": "0xaa60a225ca2d272b946117f86e03c76c8c261675"
                            },
                            {
                                "name": "to",
                                "type": "address",
                                "value": "0x0ca944724d375210cc283c1de5c0b20f07b1a39d"
                            },
                            {
                                "decimalAvailable": true,
                                "name": "tokenId",
                                "type": "uint256",
                                "value": "1,184"
                            }
                        ],
                        "constructorArguments": "",
                        "name": "transferFrom",
                        "returnParams": [],
                        "signature": "transferFrom(address,address,uint256)"
                    },
                    "errorInfo": "",
                    "fromAddress": "0x8198ad77845ba0f33151f13e6993e5ff5c93b899",
                    "gasUsed": 42784,
                    "id": 1,
                    "methodDecoded": true,
                    "operation": "DELEGATECALL",
                    "output": "",
                    "revert": false,
                    "revertMessage": "",
                    "selector": "0x23b872dd",
                    "status": true,
                    "value": "0"
                },
                "nodeType": 0
            },
            "2": {
                "event": {
                    "contract": "0x8198ad77845ba0f33151f13e6993e5ff5c93b899",
                    "decodedLog": {
                        "name": "Approval",
                        "params": [
                            {
                                "name": "owner",
                                "type": "address",
                                "value": "0xaa60a225ca2d272b946117f86e03c76c8c261675"
                            },
                            {
                                "name": "approved",
                                "type": "address",
                                "value": "0x0000000000000000000000000000000000000000"
                            },
                            {
                                "decimalAvailable": true,
                                "name": "tokenId",
                                "type": "uint256",
                                "value": "1,184"
                            }
                        ],
                        "signature": "Approval(address,address,uint256)"
                    },
                    "id": 2,
                    "logData": "0x",
                    "logDecoded": true,
                    "operation": "EVENT",
                    "revert": false,
                    "status": true,
                    "topics": [
                        "0x8c5be1e5ebec7d5bd14f71427d1e84f3dd0314c0f7b2291e5b200ac8c7c3b925",
                        "0x000000000000000000000000aa60a225ca2d272b946117f86e03c76c8c261675",
                        "0x0000000000000000000000000000000000000000000000000000000000000000",
                        "0x00000000000000000000000000000000000000000000000000000000000004a0"
                    ]
                },
                "nodeType": 1
            },
            "3": {
                "event": {
                    "contract": "0x8198ad77845ba0f33151f13e6993e5ff5c93b899",
                    "decodedLog": {
                        "name": "Transfer",
                        "params": [
                            {
                                "name": "from",
                                "type": "address",
                                "value": "0xaa60a225ca2d272b946117f86e03c76c8c261675"
                            },
                            {
                                "name": "to",
                                "type": "address",
                                "value": "0x0ca944724d375210cc283c1de5c0b20f07b1a39d"
                            },
                            {
                                "decimalAvailable": true,
                                "name": "tokenId",
                                "type": "uint256",
                                "value": "1,184"
                            }
                        ],
                        "signature": "Transfer(address,address,uint256)"
                    },
                    "id": 3,
                    "logData": "0x",
                    "logDecoded": true,
                    "operation": "EVENT",
                    "revert": false,
                    "status": true,
                    "topics": [
                        "0xddf252ad1be2c89b69c2b068fc378daa952ba7f163c4a11628f55a4df523b3ef",
                        "0x000000000000000000000000aa60a225ca2d272b946117f86e03c76c8c261675",
                        "0x0000000000000000000000000ca944724d375210cc283c1de5c0b20f07b1a39d",
                        "0x00000000000000000000000000000000000000000000000000000000000004a0"
                    ]
                },
                "nodeType": 1
            }
        },
        "gasFlame": [
            {
                "children": [
                    {
                        "children": [
                            {
                                "children": [],
                                "depth": 0,
                                "name": "Initial Gas",
                                "value": 21952
                            },
                            {
                                "children": [
                                    {
                                        "children": [],
                                        "depth": 1,
                                        "name": "transferFrom",
                                        "value": 42784
                                    }
                                ],
                                "depth": 0,
                                "name": "Executed Gas",
                                "value": 47887
                            }
                        ],
                        "depth": -1,
                        "name": "Actual Gas Used",
                        "value": 65039
                    },
                    {
                        "children": [],
                        "depth": -1,
                        "name": "Refunded Gas",
                        "value": 4800
                    }
                ],
                "depth": -2,
                "name": "Total Gas",
                "value": 69839
            }
        ],
        "isConfirmed": true,
        "mainTrace": [
            {
                "children": [
                    {
                        "children": [
                            {
                                "children": [
                                    {
                                        "children": [],
                                        "depth": 2,
                                        "id": 2,
                                        "order": 2
                                    },
                                    {
                                        "children": [],
                                        "depth": 2,
                                        "id": 3,
                                        "order": 3
                                    }
                                ],
                                "depth": 1,
                                "id": 1,
                                "order": 1
                            }
                        ],
                        "depth": 0,
                        "id": 0,
                        "order": 0
                    }
                ],
                "depth": -1,
                "id": -1,
                "order": -1
            }
        ],
        "mainTraceNodeCount": 4,
        "parentIdMap": {
            "0": -1,
            "1": 0,
            "2": 1,
            "3": 1
        },
        "tidyTrace": [
            {
                "children": [
                    {
                        "children": [
                            {
                                "children": [
                                    {
                                        "children": [],
                                        "depth": 2,
                                        "id": 2,
                                        "order": 2
                                    },
                                    {
                                        "children": [],
                                        "depth": 2,
                                        "id": 3,
                                        "order": 3
                                    }
                                ],
                                "depth": 1,
                                "id": 1,
                                "order": 1
                            }
                        ],
                        "depth": 0,
                        "id": 0,
                        "order": 0
                    }
                ],
                "depth": -1,
                "id": -1,
                "order": -1
            }
        ],
        "tidyTraceNodeCount": 4
    },
    "state_change": {
        "stateChanges": [
            {
                "address": "0x8198ad77845ba0f33151f13e6993e5ff5c93b899",
                "erc": "ERC-721",
                "slots": [
                    {
                        "current": "0x0000000000000000000000000000000000000000000000000000000000000000",
                        "key": "0x4d72ca6a32ee16dc9094e99ab0bd8a23848d5bd256fd70b77f10d23799f4a13c",
                        "prev": "0x0000000000000000000000000000000000000000000000000000000000000001"
                    },
                    {
                        "current": "0x0000000000000000000000000000000000000000000000000000000000000001",
                        "key": "0x0c8c829411678980d0213f493695f032eeb7ba0b994ead11d5cd1618cb0c3351",
                        "prev": "0x0000000000000000000000000000000000000000000000000000000000000000"
                    },
                    {
                        "current": "0x0000000000000000000000000ca944724d375210cc283c1de5c0b20f07b1a39d",
                        "key": "0xe7a52f6aafc2b05d354d2f839f324d31c3ba15e1188340db3208a2bc184ff143",
                        "prev": "0x000000000000000000000000aa60a225ca2d272b946117f86e03c76c8c261675"
                    }
                ],
                "storageVariables": [
                    {
                        "name": "_owners",
                        "type": "mapping(uint256 => address)",
                        "value": {
                            "pairs": [
                                {
                                    "key": "1184",
                                    "value": {
                                        "current": "0x0ca944724d375210cc283c1de5c0b20f07b1a39d",
                                        "prev": "0xaa60a225ca2d272b946117f86e03c76c8c261675",
                                        "typeTag": 1
                                    }
                                }
                            ],
                            "typeTag": 4
                        }
                    },
                    {
                        "name": "_balances",
                        "type": "mapping(address => uint256)",
                        "value": {
                            "pairs": [
                                {
                                    "key": "0x0ca944724d375210cc283c1de5c0b20f07b1a39d",
                                    "value": {
                                        "current": "1",
                                        "prev": "0",
                                        "typeTag": 1
                                    }
                                },
                                {
                                    "key": "0xaa60a225ca2d272b946117f86e03c76c8c261675",
                                    "value": {
                                        "current": "0",
                                        "prev": "1",
                                        "typeTag": 1
                                    }
                                }
                            ],
                            "typeTag": 4
                        }
                    }
                ]
            }
        ]
    }
}