{
    "balance_change": {
        "balanceChanges": [
            {
                "account": "0x21a31ee1afc51d94c2efccaa2092ad1028285549",
                "assets": [
                    {
                        "address": "0x6de037ef9ad2725eb40118bb1702ebb27e4aeb24",
                        "amount": "79.66",
                        "iconUrl": "https://assets.blocksec.com/icon/6c26f87685a6412859bba1e0c89004d66add895d445c9f5310994f4fa8be5731.png",
                        "isERC1155": false,
                        "isERC721": false,
                        "sign": false,
                        "value": "641.26300000000005663"
                    }
                ]
            },
            {
                "account": "0x25057dc803df2802f699e66e77e5cb62d9257fcf",
                "assets": [
                    {
                        "address": "0x6de037ef9ad2725eb40118bb1702ebb27e4aeb24",
                        "amount": "79.66",
                        "iconUrl": "https://assets.blocksec.com/icon/6c26f87685a6412859bba1e0c89004d66add895d445c9f5310994f4fa8be5731.png",
                        "isERC1155": false,
                        "isERC721": false,
                        "sign": true,
                        "value": "641.26300000000005663"
                    }
                ]
            }
        ]
    },
    "profile": {
        "basic_info": {
            "baseFee": "9.592580254",
            "blockNumber": 19789724,
            "callData": "0xa9059cbb00000000000000000000000025057dc803df2802f699e66e77e5cb62d9257fcf00000000000000000000000000000000000000000000000451812bf1779e0000",
            "debugEnable": true,
            "errorInfo": "",
            "eventCount": 1,
            "feeRecipient": "0x1f9090aae28b8a3dceadf281b0f12828e676c326",
            "formatValue": "0",
            "gasLimit": 207128,
            "gasPrice": "11.592580254",
            "gasUsed": 59384,
            "intTxnCount": 1,
            "internalRevert": false,
            "internalRevertMessage": "",
            "isContractCreation": false,
            "isFlashloan": false,
            "maxFee": "102",
            "nonce": 9367479,
            "overwritedBlockNumber": -1,
            "priorityFee": "2",
            "receiver": "0x6de037ef9ad2725eb40118bb1702ebb27e4aeb24",
            "revertMessage": "",
            "sender": "0x21a31ee1afc51d94c2efccaa2092ad1028285549",
            "simulationEnable": true,
            "sourceTxnHash": "0x917e45ab398e752ab62a2e2b4677e64608989e1069e2c3dbd6986172b2da38f2",
            "status": true,
            "timestamp": "2024-05-03T12:55:47Z",
            "transactionFee": "0.000688413785803536",
            "txnHash": "0x917e45ab398e752ab62a2e2b4677e64608989e1069e2c3dbd6986172b2da38f2",
            "txnIndex": 55,
            "type": 2,
            "value": "0"
        },
        "fund_flow": [
            {
                "amount": "79.66",
                "from": "0x21a31ee1afc51d94c2efccaa2092ad1028285549",
                "id": 1,
                "isERC1155": false,
                "isERC721": false,
                "isReverted": false,
                "order": 1,
                "to": "0x25057dc803df2802f699e66e77e5cb62d9257fcf",
                "token": "0x6de037ef9ad2725eb40118bb1702ebb27e4aeb24"
            }
        ],
        "token_infos": [
            {
                "address": "0xc02aaa39b223fe8d0a0e5c4f27ead9083c756cc2",
                "decimals": 18
            },
            {
                "address": "0xeeeeeeeeeeeeeeeeeeeeeeeeeeeeeeeeeeeeeeee",
                "decimals": 18
            },
            {
                "address": "0x6de037ef9ad2725eb40118bb1702ebb27e4aeb24",
                "decimals": 18
            }
        ]
    },
    "address_label": {
        "labels": [
            {
                "address": "0x0000000000000000000000000000000000000004",
                "label": "Precompiled"
            },
            {
                "address": "0xeeeeeeeeeeeeeeeeeeeeeeeeeeeeeeeeeeeeeeee",
                "label": "Ether"
            },
            {
                "address": "0x1a1fdf27c5e6784d1cebf256a8a5cc0877e73af0",
                "label": "Render Token (RNDR)"
            },
            {
                "address": "0x6de037ef9ad2725eb40118bb1702ebb27e4aeb24",
                "label": "Render : RNDR Token"
            },
            {
                "address": "0x21a31ee1afc51d94c2efccaa2092ad1028285549",
                "label": "Binance 15"
            },
            {
                "address": "0x0000000000000000000000000000000000000001",
                "label": "Precompiled"
            },
            {
                "address": "0x0000000000000000000000000000000000000002",
                "label": "Precompiled"
            },
            {
                "address": "0x0000000000000000000000000000000000000003",
                "label": "Precompiled"
            }
        ]
    },
    "trace": {
        "accountLabels": null,
        "dataMap": {
            "-1": {
                "invocation": {
                    "address": "0x21a31ee1afc51d94c2efccaa2092ad1028285549",
                    "callData": "",
                    "decodedMethod": null,
                    "errorInfo": "",
                    "fromAddress": "",
                    "gasUsed": 0,
                    "id": -1,
                    "methodDecoded": false,
                    "operation": "",
                    "output": "",
                    "revert": false,
                    "revertMessage": "",
                    "selector": "",
                    "status": false,
                    "value": ""
                },
                "nodeType": 0
            },
            "0": {
                "invocation": {
                    "address": "0x6de037ef9ad2725eb40118bb1702ebb27e4aeb24",
                    "callData": "0x00000000000000000000000025057dc803df2802f699e66e77e5cb62d9257fcf00000000000000000000000000000000000000000000000451812bf1779e0000",
                    "decodedMethod": {
                        "callParams": [
                            {
                                "name": "_to",
                                "type": "address",
                                "value": "0x25057dc803df2802f699e66e77e5cb62d9257fcf"
                            },
                            {
                                "decimalAvailable": true,
                                "name": "_value",
                                "type": "uint256",
                                "value": "79,660,000,000,000,000,000"
                            }
                        ],
                        "constructorArguments": "",
                        "name": "transfer",
                        "returnParams": [
                            {
                                "name": "",
                                "type": "bool",
                                "value": true
                            }
                        ],
                        "signature": "transfer(address,uint256)"
                    },
                    "errorInfo": "",
                    "fromAddress": "0x21a31ee1afc51d94c2efccaa2092ad1028285549",
                    "gasUsed": 59384,
                    "id": 0,
                    "methodDecoded": true,
                    "operation": "CALL",
                    "output": "0x0000000000000000000000000000000000000000000000000000000000000001",
                    "revert": false,
                    "revertMessage": "",
                    "selector": "0xa9059cbb",
                    "status": true,
                    "value": "0"
                },
                "nodeType": 0
            },
            "1": {
                "invocation": {
                    "address": "0x1a1fdf27c5e6784d1cebf256a8a5cc0877e73af0",
                    "callData": "0x00000000000000000000000025057dc803df2802f699e66e77e5cb62d9257fcf00000000000000000000000000000000000000000000000451812bf1779e0000",
                    "decodedMethod": {
                        "callParams": [
                            {
                                "name": "_to",
                                "type": "address",
                                "value": "0x25057dc803df2802f699e66e77e5cb62d9257fcf"
                            },
                            {
                                "decimalAvailable": true,
                                "name": "_value",
                                "type": "uint256",
                                "value": "79,660,000,000,000,000,000"
                            }
                        ],
                        "constructorArguments": "",
                        "name": "transfer",
                        "returnParams": [
                            {
                                "name": "",
                                "type": "bool",
                                "value": true
                            }
                        ],
                        "signature": "transfer(address,uint256)"
                    },
                    "errorInfo": "",
                    "fromAddress": "0x6de037ef9ad2725eb40118bb1702ebb27e4aeb24",
                    "gasUsed": 30451,
                    "id": 1,
                    "methodDecoded": true,
                    "operation": "DELEGATECALL",
                    "output": "0x0000000000000000000000000000000000000000000000000000000000000001",
                    "revert": false,
                    "revertMessage": "",
                    "selector": "0xa9059cbb",
                    "status": true,
                    "value": "0"
                },
                "nodeType": 0
            },
            "2": {
                "event": {
                    "contract": "0x6de037ef9ad2725eb40118bb1702ebb27e4aeb24",
                    "decodedLog": {
                        "name": "Transfer",
                        "params": [
                            {
                                "name": "from",
                                "type": "address",
                                "value": "0x21a31ee1afc51d94c2efccaa2092ad1028285549"
                            },
                            {
                                "name": "to",
                                "type": "address",
                                "value": "0x25057dc803df2802f699e66e77e5cb62d9257fcf"
                            },
                            {
                                "decimalAvailable": true,
                                "name": "value",
                                "type": "uint256",
                                "value": "79,660,000,000,000,000,000"
                            }
                        ],
                        "signature": "Transfer(address,address,uint256)"
                    },
                    "id": 2,
                    "logData": "0x00000000000000000000000000000000000000000000000451812bf1779e0000",
                    "logDecoded": true,
                    "operation": "EVENT",
                    "revert": false,
                    "status": true,
                    "topics": [
                        "0xddf252ad1be2c89b69c2b068fc378daa952ba7f163c4a11628f55a4df523b3ef",
                        "0x00000000000000000000000021a31ee1afc51d94c2efccaa2092ad1028285549",
                        "0x00000000000000000000000025057dc803df2802f699e66e77e5cb62d9257fcf"
                    ]
                },
                "nodeType": 1
            }
        },
        "gasFlame": [
            {
                "children": [
                    {
                        "children": [
                            {
                                "children": [],
                                "depth": 0,
                                "name": "Initial Gas",
                                "value": 21644
                            },
                            {
                                "children": [
                                    {
                                        "children": [],
                                        "depth": 1,
                                        "name": "transfer",
                                        "value": 30451
                                    }
                                ],
                                "depth": 0,
                                "name": "Executed Gas",
                                "value": 37740
                            }
                        ],
                        "depth": -1,
                        "name": "Actual Gas Used",
                        "value": 59384
                    },
                    {
                        "children": [],
                        "depth": -1,
                        "name": "Refunded Gas",
                        "value": 0
                    }
                ],
                "depth": -2,
                "name": "Total Gas",
                "value": 59384
            }
        ],
        "isConfirmed": true,
        "mainTrace": [
            {
                "children": [
                    {
                        "children": [
                            {
                                "children": [
                                    {
                                        "children": [],
                                        "depth": 2,
                                        "id": 2,
                                        "order": 2
                                    }
                                ],
                                "depth": 1,
                                "id": 1,
                                "order": 1
                            }
                        ],
                        "depth": 0,
                        "id": 0,
                        "order": 0
                    }
                ],
                "depth": -1,
                "id": -1,
                "order": -1
            }
        ],
        "mainTraceNodeCount": 3,
        "parentIdMap": {
            "0": -1,
            "1": 0,
            "2": 1
        },
        "tidyTrace": [
            {
                "children": [
                    {
                        "children": [
                            {
                                "children": [
                                    {
                                        "children": [],
                                        "depth": 2,
                                        "id": 2,
                                        "order": 2
                                    }
                                ],
                                "depth": 1,
                                "id": 1,
                                "order": 1
                            }
                        ],
                        "depth": 0,
                        "id": 0,
                        "order": 0
                    }
                ],
                "depth": -1,
                "id": -1,
                "order": -1
            }
        ],
        "tidyTraceNodeCount": 3
    },
    "state_change": {
        "stateChanges": [
            {
                "address": "0x6de037ef9ad2725eb40118bb1702ebb27e4aeb24",
                "erc": "ERC-20",
                "slots": [
                    {
                        "current": "0x000000000000000000000000000000000000000000009e9979f879ad6802c800",
                        "key": "0x96d315064f7a9bbe259cc8db54c89d58fb299805efa1bb8cf1870e5b7c7730e1",
                        "prev": "0x000000000000000000000000000000000000000000009e9dcb79a59edfa0c800"
                    },
                    {
                        "current": "0x00000000000000000000000000000000000000000000000451812bf1779e0000",
                        "key": "0x36238b03a6fcef49c6d8665ca5e9866e87a7cd4913b7f8198871f06233e19a87",
                        "prev": "0x0000000000000000000000000000000000000000000000000000000000000000"
                    }
                ],
                "storageVariables": [
                    {
                        "name": "balances",
                        "type": "mapping(address => uint256)",
                        "value": {
                            "pairs": [
                                {
                                    "key": "0x21a31ee1afc51d94c2efccaa2092ad1028285549",
                                    "value": {
                                        "current": "748965045045140000000000",
                                        "prev": "749044705045140000000000",
                                        "typeTag": 1
                                    }
                                },
                                {
                                    "key": "0x25057dc803df2802f699e66e77e5cb62d9257fcf",
                                    "value": {
                                        "current": "79660000000000000000",
                                        "prev": "0",
                                        "typeTag": 1
                                    }
                                }
                            ],
                            "typeTag": 4
                        }
                    }
                ]
            }
        ]
    }
}