{
    "balance_change": {
        "balanceChanges": [
            {
                "account": "0xcea01225a12ac10512dccb74d8ba5cab6df42ffb",
                "assets": [
                    {
                        "address": "0xab4e1802c61e12fd7b10a69a226f5d727c76a8aa",
                        "amount": "30",
                        "iconUrl": "",
                        "isERC1155": false,
                        "isERC721": false,
                        "sign": false,
                        "value": ""
                    }
                ]
            },
            {
                "account": "0x69a8cd36c8936df4cb1b3ecd5f37a890b0e96a97",
                "assets": [
                    {
                        "address": "0xab4e1802c61e12fd7b10a69a226f5d727c76a8aa",
                        "amount": "30",
                        "iconUrl": "",
                        "isERC1155": false,
                        "isERC721": false,
                        "sign": true,
                        "value": ""
                    }
                ]
            }
        ]
    },
    "profile": {
        "basic_info": {
            "baseFee": "",
            "blockNumber": 7182109,
            "callData": "0xa9059cbb00000000000000000000000069a8cd36c8936df4cb1b3ecd5f37a890b0e96a97000000000000000000000000000000000000000000000001a055690d9db80000",
            "debugEnable": true,
            "errorInfo": "",
            "eventCount": 1,
            "feeRecipient": "0x2a65aca4d5fc5b5c859090a6c34d164135398226",
            "formatValue": "0",
            "gasLimit": 182000,
            "gasPrice": "12",
            "gasUsed": 24687,
            "intTxnCount": 0,
            "internalRevert": false,
            "internalRevertMessage": "",
            "isContractCreation": false,
            "isFlashloan": false,
            "maxFee": "",
            "nonce": 36,
            "overwritedBlockNumber": -1,
            "priorityFee": "",
            "receiver": "0xab4e1802c61e12fd7b10a69a226f5d727c76a8aa",
            "revertMessage": "",
            "sender": "0xcea01225a12ac10512dccb74d8ba5cab6df42ffb",
            "simulationEnable": true,
            "sourceTxnHash": "0x910f94a3fa1dd2557a18d5342b806f8b8d642de47bd466a65b773547416048ff",
            "status": true,
            "timestamp": "2019-02-06T07:11:39Z",
            "transactionFee": "0.000296244",
            "txnHash": "0x910f94a3fa1dd2557a18d5342b806f8b8d642de47bd466a65b773547416048ff",
            "txnIndex": 72,
            "type": 0,
            "value": "0"
        },
        "fund_flow": [
            {
                "amount": "30",
                "from": "0xcea01225a12ac10512dccb74d8ba5cab6df42ffb",
                "id": 1,
                "isERC1155": false,
                "isERC721": false,
                "isReverted": false,
                "order": 1,
                "to": "0x69a8cd36c8936df4cb1b3ecd5f37a890b0e96a97",
                "token": "0xab4e1802c61e12fd7b10a69a226f5d727c76a8aa"
            }
        ],
        "token_infos": [
            {
                "address": "0xab4e1802c61e12fd7b10a69a226f5d727c76a8aa",
                "decimals": 18
            },
            {
                "address": "0xc02aaa39b223fe8d0a0e5c4f27ead9083c756cc2",
                "decimals": 18
            },
            {
                "address": "0xeeeeeeeeeeeeeeeeeeeeeeeeeeeeeeeeeeeeeeee",
                "decimals": 18
            }
        ]
    },
    "address_label": {
        "labels": [
            {
                "address": "0x0000000000000000000000000000000000000003",
                "label": "Precompiled"
            },
            {
                "address": "0x0000000000000000000000000000000000000004",
                "label": "Precompiled"
            },
            {
                "address": "0xeeeeeeeeeeeeeeeeeeeeeeeeeeeeeeeeeeeeeeee",
                "label": "Ether"
            },
            {
                "address": "0xab4e1802c61e12fd7b10a69a226f5d727c76a8aa",
                "label": "ODF"
            },
            {
                "address": "0x0000000000000000000000000000000000000001",
                "label": "Precompiled"
            },
            {
                "address": "0x0000000000000000000000000000000000000002",
                "label": "Precompiled"
            }
        ]
    },
    "trace": {
        "accountLabels": null,
        "dataMap": {
            "-1": {
                "invocation": {
                    "address": "0xcea01225a12ac10512dccb74d8ba5cab6df42ffb",
                    "callData": "",
                    "decodedMethod": null,
                    "errorInfo": "",
                    "fromAddress": "",
                    "gasUsed": 0,
                    "id": -1,
                    "methodDecoded": false,
                    "operation": "",
                    "output": "",
                    "revert": false,
                    "revertMessage": "",
                    "selector": "",
                    "status": false,
                    "value": ""
                },
                "nodeType": 0
            },
            "0": {
                "invocation": {
                    "address": "0xab4e1802c61e12fd7b10a69a226f5d727c76a8aa",
                    "callData": "0x00000000000000000000000069a8cd36c8936df4cb1b3ecd5f37a890b0e96a97000000000000000000000000000000000000000000000001a055690d9db80000",
                    "decodedMethod": {
                        "callParams": [
                            {
                                "name": "recipient",
                                "type": "address",
                                "value": "0x69a8cd36c8936df4cb1b3ecd5f37a890b0e96a97"
                            },
                            {
                                "decimalAvailable": true,
                                "name": "amount",
                                "type": "uint256",
                                "value": "30,000,000,000,000,000,000"
                            }
                        ],
                        "constructorArguments": "",
                        "name": "transfer",
                        "returnParams": [
                            {
                                "name": "",
                                "type": "bool",
                                "value": true
                            }
                        ],
                        "signature": "transfer(address,uint256)"
                    },
                    "errorInfo": "",
                    "fromAddress": "0xcea01225a12ac10512dccb74d8ba5cab6df42ffb",
                    "gasUsed": 24687,
                    "id": 0,
                    "methodDecoded": true,
                    "operation": "CALL",
                    "output": "0x0000000000000000000000000000000000000000000000000000000000000001",
                    "revert": false,
                    "revertMessage": "",
                    "selector": "0xa9059cbb",
                    "status": true,
                    "value": "0"
                },
                "nodeType": 0
            },
            "1": {
                "event": {
                    "contract": "0xab4e1802c61e12fd7b10a69a226f5d727c76a8aa",
                    "decodedLog": {
                        "name": "Transfer",
                        "params": [
                            {
                                "name": "from",
                                "type": "address",
                                "value": "0xcea01225a12ac10512dccb74d8ba5cab6df42ffb"
                            },
                            {
                                "name": "to",
                                "type": "address",
                                "value": "0x69a8cd36c8936df4cb1b3ecd5f37a890b0e96a97"
                            },
                            {
                                "decimalAvailable": true,
                                "name": "value",
                                "type": "uint256",
                                "value": "30,000,000,000,000,000,000"
                            }
                        ],
                        "signature": "Transfer(address,address,uint256)"
                    },
                    "id": 1,
                    "logData": "0x000000000000000000000000000000000000000000000001a055690d9db80000",
                    "logDecoded": true,
                    "operation": "EVENT",
                    "revert": false,
                    "status": true,
                    "topics": [
                        "0xddf252ad1be2c89b69c2b068fc378daa952ba7f163c4a11628f55a4df523b3ef",
                        "0x000000000000000000000000cea01225a12ac10512dccb74d8ba5cab6df42ffb",
                        "0x00000000000000000000000069a8cd36c8936df4cb1b3ecd5f37a890b0e96a97"
                    ]
                },
                "nodeType": 1
            }
        },
        "gasFlame": [
            {
                "children": [
                    {
                        "children": [
                            {
                                "children": [],
                                "depth": 0,
                                "name": "Initial Gas",
                                "value": 23256
                            },
                            {
                                "children": [],
                                "depth": 0,
                                "name": "Executed Gas",
                                "value": 16431
                            }
                        ],
                        "depth": -1,
                        "name": "Actual Gas Used",
                        "value": 24687
                    },
                    {
                        "children": [],
                        "depth": -1,
                        "name": "Refunded Gas",
                        "value": 15000
                    }
                ],
                "depth": -2,
                "name": "Total Gas",
                "value": 39687
            }
        ],
        "isConfirmed": true,
        "mainTrace": [
            {
                "children": [
                    {
                        "children": [
                            {
                                "children": [],
                                "depth": 1,
                                "id": 1,
                                "order": 1
                            }
                        ],
                        "depth": 0,
                        "id": 0,
                        "order": 0
                    }
                ],
                "depth": -1,
                "id": -1,
                "order": -1
            }
        ],
        "mainTraceNodeCount": 2,
        "parentIdMap": {
            "0": -1,
            "1": 0
        },
        "tidyTrace": [
            {
                "children": [
                    {
                        "children": [
                            {
                                "children": [],
                                "depth": 1,
                                "id": 1,
                                "order": 1
                            }
                        ],
                        "depth": 0,
                        "id": 0,
                        "order": 0
                    }
                ],
                "depth": -1,
                "id": -1,
                "order": -1
            }
        ],
        "tidyTraceNodeCount": 2
    },
    "state_change": {
        "stateChanges": [
            {
                "address": "0xab4e1802c61e12fd7b10a69a226f5d727c76a8aa",
                "erc": "",
                "slots": [
                    {
                        "current": "0x0000000000000000000000000000000000000000000000093739534d28680000",
                        "key": "0xf71b26bafd5d688c06fd88b83003c5ec3168c84ad13b41986d0077d151722366",
                        "prev": "0x00000000000000000000000000000000000000000000000796e3ea3f8ab00000"
                    },
                    {
                        "current": "0x0000000000000000000000000000000000000000000000000000000000000000",
                        "key": "0x07b2ccfd29339e8290934f02322b3ff13d1472482918a0eee333603bf16e3f93",
                        "prev": "0x000000000000000000000000000000000000000000000001a055690d9db80000"
                    }
                ],
                "storageVariables": []
            }
        ]
    }
}