{
    "balance_change": {
        "balanceChanges": [
            {
                "account": "0xfbb1b73c4f0bda4f67dca266ce6ef42f520fbb98",
                "assets": [
                    {
                        "address": "0x41e5560054824ea6b0732e656e3ad64e20e94e45",
                        "amount": "515.09210526",
                        "iconUrl": "",
                        "isERC1155": false,
                        "isERC721": false,
                        "sign": false,
                        "value": ""
                    }
                ]
            },
            {
                "account": "0xc007c804729dccc28523c5d4f1e3d23a21dc9914",
                "assets": [
                    {
                        "address": "0x41e5560054824ea6b0732e656e3ad64e20e94e45",
                        "amount": "515.09210526",
                        "iconUrl": "",
                        "isERC1155": false,
                        "isERC721": false,
                        "sign": true,
                        "value": ""
                    }
                ]
            }
        ]
    },
    "profile": {
        "basic_info": {
            "baseFee": "",
            "blockNumber": 4799796,
            "callData": "0xa9059cbb000000000000000000000000c007c804729dccc28523c5d4f1e3d23a21dc99140000000000000000000000000000000000000000000000000000000bfe302d9e",
            "debugEnable": true,
            "errorInfo": "",
            "eventCount": 1,
            "feeRecipient": "0xea674fdde714fd979de3edf0f56aa9716b898ec8",
            "formatValue": "0",
            "gasLimit": 201779,
            "gasPrice": "51",
            "gasUsed": 51779,
            "intTxnCount": 0,
            "internalRevert": false,
            "internalRevertMessage": "",
            "isContractCreation": false,
            "isFlashloan": false,
            "maxFee": "",
            "nonce": 3660996,
            "overwritedBlockNumber": -1,
            "priorityFee": "",
            "receiver": "0x41e5560054824ea6b0732e656e3ad64e20e94e45",
            "revertMessage": "",
            "sender": "0xfbb1b73c4f0bda4f67dca266ce6ef42f520fbb98",
            "simulationEnable": true,
            "sourceTxnHash": "0x9151cfcabfdca3db1798e7ef139b4db34613e5d6a9ee6373c77b3aeb914af392",
            "status": true,
            "timestamp": "2017-12-26T09:40:53Z",
            "transactionFee": "0.002640729",
            "txnHash": "0x9151cfcabfdca3db1798e7ef139b4db34613e5d6a9ee6373c77b3aeb914af392",
            "txnIndex": 1,
            "type": 0,
            "value": "0"
        },
        "fund_flow": [
            {
                "amount": "515.09210526",
                "from": "0xfbb1b73c4f0bda4f67dca266ce6ef42f520fbb98",
                "id": 1,
                "isERC1155": false,
                "isERC721": false,
                "isReverted": false,
                "order": 1,
                "to": "0xc007c804729dccc28523c5d4f1e3d23a21dc9914",
                "token": "0x41e5560054824ea6b0732e656e3ad64e20e94e45"
            }
        ],
        "token_infos": [
            {
                "address": "0x41e5560054824ea6b0732e656e3ad64e20e94e45",
                "decimals": 8
            },
            {
                "address": "0xc02aaa39b223fe8d0a0e5c4f27ead9083c756cc2",
                "decimals": 18
            },
            {
                "address": "0xeeeeeeeeeeeeeeeeeeeeeeeeeeeeeeeeeeeeeeee",
                "decimals": 18
            }
        ]
    },
    "address_label": {
        "labels": [
            {
                "address": "0x41e5560054824ea6b0732e656e3ad64e20e94e45",
                "label": "Civic: CVC Token"
            },
            {
                "address": "0x0000000000000000000000000000000000000001",
                "label": "Precompiled"
            },
            {
                "address": "0x0000000000000000000000000000000000000002",
                "label": "Precompiled"
            },
            {
                "address": "0x0000000000000000000000000000000000000003",
                "label": "Precompiled"
            },
            {
                "address": "0x0000000000000000000000000000000000000004",
                "label": "Precompiled"
            },
            {
                "address": "0xeeeeeeeeeeeeeeeeeeeeeeeeeeeeeeeeeeeeeeee",
                "label": "Ether"
            },
            {
                "address": "0xc007c804729dccc28523c5d4f1e3d23a21dc9914",
                "label": "COSS.IO"
            },
            {
                "address": "0xfbb1b73c4f0bda4f67dca266ce6ef42f520fbb98",
                "label": "Bittrex"
            }
        ]
    },
    "trace": {
        "accountLabels": null,
        "dataMap": {
            "-1": {
                "invocation": {
                    "address": "0xfbb1b73c4f0bda4f67dca266ce6ef42f520fbb98",
                    "callData": "",
                    "decodedMethod": null,
                    "errorInfo": "",
                    "fromAddress": "",
                    "gasUsed": 0,
                    "id": -1,
                    "methodDecoded": false,
                    "operation": "",
                    "output": "",
                    "revert": false,
                    "revertMessage": "",
                    "selector": "",
                    "status": false,
                    "value": ""
                },
                "nodeType": 0
            },
            "0": {
                "invocation": {
                    "address": "0x41e5560054824ea6b0732e656e3ad64e20e94e45",
                    "callData": "0x000000000000000000000000c007c804729dccc28523c5d4f1e3d23a21dc99140000000000000000000000000000000000000000000000000000000bfe302d9e",
                    "decodedMethod": {
                        "callParams": [
                            {
                                "name": "_to",
                                "type": "address",
                                "value": "0xc007c804729dccc28523c5d4f1e3d23a21dc9914"
                            },
                            {
                                "decimalAvailable": true,
                                "name": "_value",
                                "type": "uint256",
                                "value": "51,509,210,526"
                            }
                        ],
                        "constructorArguments": "",
                        "name": "transfer",
                        "returnParams": [
                            {
                                "name": "success",
                                "type": "bool",
                                "value": true
                            }
                        ],
                        "signature": "transfer(address,uint256)"
                    },
                    "errorInfo": "",
                    "fromAddress": "0xfbb1b73c4f0bda4f67dca266ce6ef42f520fbb98",
                    "gasUsed": 51779,
                    "id": 0,
                    "methodDecoded": true,
                    "operation": "CALL",
                    "output": "0x0000000000000000000000000000000000000000000000000000000000000001",
                    "revert": false,
                    "revertMessage": "",
                    "selector": "0xa9059cbb",
                    "status": true,
                    "value": "0"
                },
                "nodeType": 0
            },
            "1": {
                "event": {
                    "contract": "0x41e5560054824ea6b0732e656e3ad64e20e94e45",
                    "decodedLog": {
                        "name": "Transfer",
                        "params": [
                            {
                                "name": "from",
                                "type": "address",
                                "value": "0xfbb1b73c4f0bda4f67dca266ce6ef42f520fbb98"
                            },
                            {
                                "name": "to",
                                "type": "address",
                                "value": "0xc007c804729dccc28523c5d4f1e3d23a21dc9914"
                            },
                            {
                                "decimalAvailable": true,
                                "name": "value",
                                "type": "uint256",
                                "value": "51,509,210,526"
                            }
                        ],
                        "signature": "Transfer(address,address,uint256)"
                    },
                    "id": 1,
                    "logData": "0x0000000000000000000000000000000000000000000000000000000bfe302d9e",
                    "logDecoded": true,
                    "operation": "EVENT",
                    "revert": false,
                    "status": true,
                    "topics": [
                        "0xddf252ad1be2c89b69c2b068fc378daa952ba7f163c4a11628f55a4df523b3ef",
                        "0x000000000000000000000000fbb1b73c4f0bda4f67dca266ce6ef42f520fbb98",
                        "0x000000000000000000000000c007c804729dccc28523c5d4f1e3d23a21dc9914"
                    ]
                },
                "nodeType": 1
            }
        },
        "gasFlame": [
            {
                "children": [
                    {
                        "children": [
                            {
                                "children": [],
                                "depth": 0,
                                "name": "Initial Gas",
                                "value": 23128
                            },
                            {
                                "children": [],
                                "depth": 0,
                                "name": "Executed Gas",
                                "value": 28651
                            }
                        ],
                        "depth": -1,
                        "name": "Actual Gas Used",
                        "value": 51779
                    },
                    {
                        "children": [],
                        "depth": -1,
                        "name": "Refunded Gas",
                        "value": 0
                    }
                ],
                "depth": -2,
                "name": "Total Gas",
                "value": 51779
            }
        ],
        "isConfirmed": true,
        "mainTrace": [
            {
                "children": [
                    {
                        "children": [
                            {
                                "children": [],
                                "depth": 1,
                                "id": 1,
                                "order": 1
                            }
                        ],
                        "depth": 0,
                        "id": 0,
                        "order": 0
                    }
                ],
                "depth": -1,
                "id": -1,
                "order": -1
            }
        ],
        "mainTraceNodeCount": 2,
        "parentIdMap": {
            "0": -1,
            "1": 0
        },
        "tidyTrace": [
            {
                "children": [
                    {
                        "children": [
                            {
                                "children": [],
                                "depth": 1,
                                "id": 1,
                                "order": 1
                            }
                        ],
                        "depth": 0,
                        "id": 0,
                        "order": 0
                    }
                ],
                "depth": -1,
                "id": -1,
                "order": -1
            }
        ],
        "tidyTraceNodeCount": 2
    },
    "state_change": {
        "stateChanges": [
            {
                "address": "0x41e5560054824ea6b0732e656e3ad64e20e94e45",
                "erc": "ERC-20",
                "slots": [
                    {
                        "current": "0x0000000000000000000000000000000000000000000000000028426304941d40",
                        "key": "0xc39fa2f9f6840acacbf351eafb282414a00c711119269d645c4d10c2b8bca396",
                        "prev": "0x0000000000000000000000000000000000000000000000000028426f02c44ade"
                    },
                    {
                        "current": "0x0000000000000000000000000000000000000000000000000000000bfe302d9e",
                        "key": "0x15a4345b20458a15bfb60bbdcb8f2c09bac0c10206b5a6a7cf72c862d22e77c0",
                        "prev": "0x0000000000000000000000000000000000000000000000000000000000000000"
                    }
                ],
                "storageVariables": []
            }
        ]
    }
}