{
    "balance_change": {
        "balanceChanges": [
            {
                "account": "0x0000000000000000000000000000000000000000",
                "assets": [
                    {
                        "address": "0x13791a28814a31a703ad1ab724d768b3e030252c",
                        "amount": "2,000,000,000,000,000,000,000",
                        "iconUrl": "",
                        "isERC1155": false,
                        "isERC721": false,
                        "sign": false,
                        "value": ""
                    }
                ]
            },
            {
                "account": "0x61f4c0127ccde9ff19317b7be0c61f88d0bdc8c7",
                "assets": [
                    {
                        "address": "0x13791a28814a31a703ad1ab724d768b3e030252c",
                        "amount": "2,000,000,000,000,000,000,000",
                        "iconUrl": "",
                        "isERC1155": false,
                        "isERC721": false,
                        "sign": true,
                        "value": ""
                    }
                ]
            }
        ]
    },
    "profile": {
        "basic_info": {
            "baseFee": "",
            "blockNumber": 6709422,
            "callData": "0x61865abb00000000000000000000000061f4c0127ccde9ff19317b7be0c61f88d0bdc8c700000000000000000000000000000000000000000000006c6b935b8bbd400000",
            "debugEnable": true,
            "errorInfo": "",
            "eventCount": 2,
            "feeRecipient": "0x52bc44d5378309ee2abf1539bf71de1b7d7be3b5",
            "formatValue": "0",
            "gasLimit": 76546,
            "gasPrice": "9.6",
            "gasUsed": 38273,
            "intTxnCount": 0,
            "internalRevert": false,
            "internalRevertMessage": "",
            "isContractCreation": false,
            "isFlashloan": false,
            "maxFee": "",
            "nonce": 593,
            "overwritedBlockNumber": -1,
            "priorityFee": "",
            "receiver": "0x13791a28814a31a703ad1ab724d768b3e030252c",
            "revertMessage": "",
            "sender": "0x61f4c0127ccde9ff19317b7be0c61f88d0bdc8c7",
            "simulationEnable": true,
            "sourceTxnHash": "0x916a8ff1d3632f51998be8e0e88baa8326a839a0a666c4a1f0acc8bd42cf422c",
            "status": true,
            "timestamp": "2018-11-15T14:02:00Z",
            "transactionFee": "0.0003674208",
            "txnHash": "0x916a8ff1d3632f51998be8e0e88baa8326a839a0a666c4a1f0acc8bd42cf422c",
            "txnIndex": 101,
            "type": 0,
            "value": "0"
        },
        "fund_flow": [
            {
                "amount": "2,000,000,000,000,000,000,000",
                "from": "0x0000000000000000000000000000000000000000",
                "id": 1,
                "isERC1155": false,
                "isERC721": false,
                "isReverted": false,
                "order": 1,
                "to": "0x13791a28814a31a703ad1ab724d768b3e030252c",
                "token": "0x13791a28814a31a703ad1ab724d768b3e030252c"
            },
            {
                "amount": "2,000,000,000,000,000,000,000",
                "from": "0x13791a28814a31a703ad1ab724d768b3e030252c",
                "id": 2,
                "isERC1155": false,
                "isERC721": false,
                "isReverted": false,
                "order": 2,
                "to": "0x61f4c0127ccde9ff19317b7be0c61f88d0bdc8c7",
                "token": "0x13791a28814a31a703ad1ab724d768b3e030252c"
            }
        ],
        "token_infos": [
            {
                "address": "0xc02aaa39b223fe8d0a0e5c4f27ead9083c756cc2",
                "decimals": 18
            },
            {
                "address": "0xeeeeeeeeeeeeeeeeeeeeeeeeeeeeeeeeeeeeeeee",
                "decimals": 18
            }
        ]
    },
    "address_label": {
        "labels": [
            {
                "address": "0x0000000000000000000000000000000000000004",
                "label": "Precompiled"
            },
            {
                "address": "0xeeeeeeeeeeeeeeeeeeeeeeeeeeeeeeeeeeeeeeee",
                "label": "Ether"
            },
            {
                "address": "0x13791a28814a31a703ad1ab724d768b3e030252c",
                "label": "ZingCoin"
            },
            {
                "address": "0x0000000000000000000000000000000000000001",
                "label": "Precompiled"
            },
            {
                "address": "0x0000000000000000000000000000000000000002",
                "label": "Precompiled"
            },
            {
                "address": "0x0000000000000000000000000000000000000003",
                "label": "Precompiled"
            }
        ]
    },
    "trace": {
        "accountLabels": null,
        "dataMap": {
            "-1": {
                "invocation": {
                    "address": "0x61f4c0127ccde9ff19317b7be0c61f88d0bdc8c7",
                    "callData": "",
                    "decodedMethod": null,
                    "errorInfo": "",
                    "fromAddress": "",
                    "gasUsed": 0,
                    "id": -1,
                    "methodDecoded": false,
                    "operation": "",
                    "output": "",
                    "revert": false,
                    "revertMessage": "",
                    "selector": "",
                    "status": false,
                    "value": ""
                },
                "nodeType": 0
            },
            "0": {
                "invocation": {
                    "address": "0x13791a28814a31a703ad1ab724d768b3e030252c",
                    "callData": "0x00000000000000000000000061f4c0127ccde9ff19317b7be0c61f88d0bdc8c700000000000000000000000000000000000000000000006c6b935b8bbd400000",
                    "decodedMethod": {
                        "callParams": [
                            {
                                "name": "target",
                                "type": "address",
                                "value": "0x61f4c0127ccde9ff19317b7be0c61f88d0bdc8c7"
                            },
                            {
                                "name": "amount",
                                "type": "uint256",
                                "value": "2,000,000,000,000,000,000,000"
                            }
                        ],
                        "constructorArguments": "",
                        "name": "rollIn",
                        "returnParams": [],
                        "signature": "rollIn(address,uint256)"
                    },
                    "errorInfo": "",
                    "fromAddress": "0x61f4c0127ccde9ff19317b7be0c61f88d0bdc8c7",
                    "gasUsed": 38273,
                    "id": 0,
                    "methodDecoded": true,
                    "operation": "CALL",
                    "output": "",
                    "revert": false,
                    "revertMessage": "",
                    "selector": "0x61865abb",
                    "status": true,
                    "value": "0"
                },
                "nodeType": 0
            },
            "1": {
                "event": {
                    "contract": "0x13791a28814a31a703ad1ab724d768b3e030252c",
                    "decodedLog": {
                        "name": "Transfer",
                        "params": [
                            {
                                "name": "from",
                                "type": "address",
                                "value": "0x0000000000000000000000000000000000000000"
                            },
                            {
                                "name": "to",
                                "type": "address",
                                "value": "0x13791a28814a31a703ad1ab724d768b3e030252c"
                            },
                            {
                                "decimalAvailable": true,
                                "name": "value",
                                "type": "uint256",
                                "value": "2,000,000,000,000,000,000,000"
                            }
                        ],
                        "signature": "Transfer(address,address,uint256)"
                    },
                    "id": 1,
                    "logData": "0x00000000000000000000000000000000000000000000006c6b935b8bbd400000",
                    "logDecoded": true,
                    "operation": "EVENT",
                    "revert": false,
                    "status": true,
                    "topics": [
                        "0xddf252ad1be2c89b69c2b068fc378daa952ba7f163c4a11628f55a4df523b3ef",
                        "0x0000000000000000000000000000000000000000000000000000000000000000",
                        "0x00000000000000000000000013791a28814a31a703ad1ab724d768b3e030252c"
                    ]
                },
                "nodeType": 1
            },
            "2": {
                "event": {
                    "contract": "0x13791a28814a31a703ad1ab724d768b3e030252c",
                    "decodedLog": {
                        "name": "Transfer",
                        "params": [
                            {
                                "name": "from",
                                "type": "address",
                                "value": "0x13791a28814a31a703ad1ab724d768b3e030252c"
                            },
                            {
                                "name": "to",
                                "type": "address",
                                "value": "0x61f4c0127ccde9ff19317b7be0c61f88d0bdc8c7"
                            },
                            {
                                "decimalAvailable": true,
                                "name": "value",
                                "type": "uint256",
                                "value": "2,000,000,000,000,000,000,000"
                            }
                        ],
                        "signature": "Transfer(address,address,uint256)"
                    },
                    "id": 2,
                    "logData": "0x00000000000000000000000000000000000000000000006c6b935b8bbd400000",
                    "logDecoded": true,
                    "operation": "EVENT",
                    "revert": false,
                    "status": true,
                    "topics": [
                        "0xddf252ad1be2c89b69c2b068fc378daa952ba7f163c4a11628f55a4df523b3ef",
                        "0x00000000000000000000000013791a28814a31a703ad1ab724d768b3e030252c",
                        "0x00000000000000000000000061f4c0127ccde9ff19317b7be0c61f88d0bdc8c7"
                    ]
                },
                "nodeType": 1
            }
        },
        "gasFlame": [
            {
                "children": [
                    {
                        "children": [
                            {
                                "children": [],
                                "depth": 0,
                                "name": "Initial Gas",
                                "value": 23256
                            },
                            {
                                "children": [],
                                "depth": 0,
                                "name": "Executed Gas",
                                "value": 15017
                            }
                        ],
                        "depth": -1,
                        "name": "Actual Gas Used",
                        "value": 38273
                    },
                    {
                        "children": [],
                        "depth": -1,
                        "name": "Refunded Gas",
                        "value": 0
                    }
                ],
                "depth": -2,
                "name": "Total Gas",
                "value": 38273
            }
        ],
        "isConfirmed": true,
        "mainTrace": [
            {
                "children": [
                    {
                        "children": [
                            {
                                "children": [],
                                "depth": 1,
                                "id": 1,
                                "order": 1
                            },
                            {
                                "children": [],
                                "depth": 1,
                                "id": 2,
                                "order": 2
                            }
                        ],
                        "depth": 0,
                        "id": 0,
                        "order": 0
                    }
                ],
                "depth": -1,
                "id": -1,
                "order": -1
            }
        ],
        "mainTraceNodeCount": 3,
        "parentIdMap": {
            "0": -1,
            "1": 0,
            "2": 0
        },
        "tidyTrace": [
            {
                "children": [
                    {
                        "children": [
                            {
                                "children": [],
                                "depth": 1,
                                "id": 1,
                                "order": 1
                            },
                            {
                                "children": [],
                                "depth": 1,
                                "id": 2,
                                "order": 2
                            }
                        ],
                        "depth": 0,
                        "id": 0,
                        "order": 0
                    }
                ],
                "depth": -1,
                "id": -1,
                "order": -1
            }
        ],
        "tidyTraceNodeCount": 3
    },
    "state_change": {
        "stateChanges": [
            {
                "address": "0x13791a28814a31a703ad1ab724d768b3e030252c",
                "erc": "ERC-20",
                "slots": [
                    {
                        "current": "0x000000000000000000000000000000000000000009b217d8db23b5ab2c2c0000",
                        "key": "0x0000000000000000000000000000000000000000000000000000000000000006",
                        "prev": "0x000000000000000000000000000000000000000009b2176c6f905a1f6eec0000"
                    },
                    {
                        "current": "0x0000000000000000000000000000000000000000000006982830abe927740000",
                        "key": "0x6ab759a1263bbd3347f50d96b9a74c573fc3ac9139b426f45b8699efaba0e48c",
                        "prev": "0x00000000000000000000000000000000000000000000062bbc9d505d6a340000"
                    }
                ],
                "storageVariables": [
                    {
                        "name": "totalSupply",
                        "type": "uint256",
                        "value": {
                            "current": "3000666499000000000000000000",
                            "prev": "3000664499000000000000000000",
                            "typeTag": 1
                        }
                    },
                    {
                        "name": "balanceOf",
                        "type": "mapping(address => uint256)",
                        "value": {
                            "pairs": [
                                {
                                    "key": "0x61f4c0127ccde9ff19317b7be0c61f88d0bdc8c7",
                                    "value": {
                                        "current": "31141000000000000000000",
                                        "prev": "29141000000000000000000",
                                        "typeTag": 1
                                    }
                                }
                            ],
                            "typeTag": 4
                        }
                    }
                ]
            }
        ]
    }
}