{
    "balance_change": {
        "balanceChanges": [
            {
                "account": "0xeb3cbfae40ba1e1df0d96c08c663da9a2ba0855a",
                "assets": [
                    {
                        "address": "0x96c520a79bf62c955eaa044f600f67e3ecfeff52",
                        "amount": "95",
                        "iconUrl": "",
                        "isERC1155": false,
                        "isERC721": false,
                        "sign": false,
                        "value": "1.19759709"
                    }
                ]
            },
            {
                "account": "0xabbcb476a127f172dd7a65178f389d6fdac21459",
                "assets": [
                    {
                        "address": "0x96c520a79bf62c955eaa044f600f67e3ecfeff52",
                        "amount": "95",
                        "iconUrl": "",
                        "isERC1155": false,
                        "isERC721": false,
                        "sign": true,
                        "value": "1.19759709"
                    }
                ]
            }
        ]
    },
    "profile": {
        "basic_info": {
            "baseFee": "",
            "blockNumber": 11742412,
            "callData": "0xa9059cbb000000000000000000000000abbcb476a127f172dd7a65178f389d6fdac214590000000000000000000000000000000000000000000000052663ccab1e1c0000",
            "debugEnable": true,
            "errorInfo": "",
            "eventCount": 1,
            "feeRecipient": "0x829bd824b016326a401d083b33d092293333a830",
            "formatValue": "0",
            "gasLimit": 36010,
            "gasPrice": "55",
            "gasUsed": 36010,
            "intTxnCount": 0,
            "internalRevert": false,
            "internalRevertMessage": "",
            "isContractCreation": false,
            "isFlashloan": false,
            "maxFee": "",
            "nonce": 4850,
            "overwritedBlockNumber": -1,
            "priorityFee": "",
            "receiver": "0x96c520a79bf62c955eaa044f600f67e3ecfeff52",
            "revertMessage": "",
            "sender": "0xeb3cbfae40ba1e1df0d96c08c663da9a2ba0855a",
            "simulationEnable": true,
            "sourceTxnHash": "0x91017579de6ed15245ca160764570f24af71ccbc10d3757a5d1db7265360ee2f",
            "status": true,
            "timestamp": "2021-01-28T05:16:00Z",
            "transactionFee": "0.00198055",
            "txnHash": "0x91017579de6ed15245ca160764570f24af71ccbc10d3757a5d1db7265360ee2f",
            "txnIndex": 8,
            "type": 0,
            "value": "0"
        },
        "fund_flow": [
            {
                "amount": "95",
                "from": "0xeb3cbfae40ba1e1df0d96c08c663da9a2ba0855a",
                "id": 1,
                "isERC1155": false,
                "isERC721": false,
                "isReverted": false,
                "order": 1,
                "to": "0xabbcb476a127f172dd7a65178f389d6fdac21459",
                "token": "0x96c520a79bf62c955eaa044f600f67e3ecfeff52"
            }
        ],
        "token_infos": [
            {
                "address": "0x96c520a79bf62c955eaa044f600f67e3ecfeff52",
                "decimals": 18
            },
            {
                "address": "0xc02aaa39b223fe8d0a0e5c4f27ead9083c756cc2",
                "decimals": 18
            },
            {
                "address": "0xeeeeeeeeeeeeeeeeeeeeeeeeeeeeeeeeeeeeeeee",
                "decimals": 18
            }
        ]
    },
    "address_label": {
        "labels": [
            {
                "address": "0xeeeeeeeeeeeeeeeeeeeeeeeeeeeeeeeeeeeeeeee",
                "label": "Ether"
            },
            {
                "address": "0x96c520a79bf62c955eaa044f600f67e3ecfeff52",
                "label": "LaNd: LAND Token"
            },
            {
                "address": "0x0000000000000000000000000000000000000001",
                "label": "Precompiled"
            },
            {
                "address": "0x0000000000000000000000000000000000000002",
                "label": "Precompiled"
            },
            {
                "address": "0x0000000000000000000000000000000000000003",
                "label": "Precompiled"
            },
            {
                "address": "0x0000000000000000000000000000000000000004",
                "label": "Precompiled"
            }
        ]
    },
    "trace": {
        "accountLabels": null,
        "dataMap": {
            "-1": {
                "invocation": {
                    "address": "0xeb3cbfae40ba1e1df0d96c08c663da9a2ba0855a",
                    "callData": "",
                    "decodedMethod": null,
                    "errorInfo": "",
                    "fromAddress": "",
                    "gasUsed": 0,
                    "id": -1,
                    "methodDecoded": false,
                    "operation": "",
                    "output": "",
                    "revert": false,
                    "revertMessage": "",
                    "selector": "",
                    "status": false,
                    "value": ""
                },
                "nodeType": 0
            },
            "0": {
                "invocation": {
                    "address": "0x96c520a79bf62c955eaa044f600f67e3ecfeff52",
                    "callData": "0x000000000000000000000000abbcb476a127f172dd7a65178f389d6fdac214590000000000000000000000000000000000000000000000052663ccab1e1c0000",
                    "decodedMethod": {
                        "callParams": [
                            {
                                "name": "to",
                                "type": "address",
                                "value": "0xabbcb476a127f172dd7a65178f389d6fdac21459"
                            },
                            {
                                "decimalAvailable": true,
                                "name": "tokens",
                                "type": "uint256",
                                "value": "95,000,000,000,000,000,000"
                            }
                        ],
                        "constructorArguments": "",
                        "name": "transfer",
                        "returnParams": [
                            {
                                "name": "success",
                                "type": "bool",
                                "value": true
                            }
                        ],
                        "signature": "transfer(address,uint256)"
                    },
                    "errorInfo": "",
                    "fromAddress": "0xeb3cbfae40ba1e1df0d96c08c663da9a2ba0855a",
                    "gasUsed": 36010,
                    "id": 0,
                    "methodDecoded": true,
                    "operation": "CALL",
                    "output": "0x0000000000000000000000000000000000000000000000000000000000000001",
                    "revert": false,
                    "revertMessage": "",
                    "selector": "0xa9059cbb",
                    "status": true,
                    "value": "0"
                },
                "nodeType": 0
            },
            "1": {
                "event": {
                    "contract": "0x96c520a79bf62c955eaa044f600f67e3ecfeff52",
                    "decodedLog": {
                        "name": "Transfer",
                        "params": [
                            {
                                "name": "from",
                                "type": "address",
                                "value": "0xeb3cbfae40ba1e1df0d96c08c663da9a2ba0855a"
                            },
                            {
                                "name": "to",
                                "type": "address",
                                "value": "0xabbcb476a127f172dd7a65178f389d6fdac21459"
                            },
                            {
                                "decimalAvailable": true,
                                "name": "tokens",
                                "type": "uint256",
                                "value": "95,000,000,000,000,000,000"
                            }
                        ],
                        "signature": "Transfer(address,address,uint256)"
                    },
                    "id": 1,
                    "logData": "0x0000000000000000000000000000000000000000000000052663ccab1e1c0000",
                    "logDecoded": true,
                    "operation": "EVENT",
                    "revert": false,
                    "status": true,
                    "topics": [
                        "0xddf252ad1be2c89b69c2b068fc378daa952ba7f163c4a11628f55a4df523b3ef",
                        "0x000000000000000000000000eb3cbfae40ba1e1df0d96c08c663da9a2ba0855a",
                        "0x000000000000000000000000abbcb476a127f172dd7a65178f389d6fdac21459"
                    ]
                },
                "nodeType": 1
            }
        },
        "gasFlame": [
            {
                "children": [
                    {
                        "children": [
                            {
                                "children": [],
                                "depth": 0,
                                "name": "Initial Gas",
                                "value": 21644
                            },
                            {
                                "children": [],
                                "depth": 0,
                                "name": "Executed Gas",
                                "value": 14366
                            }
                        ],
                        "depth": -1,
                        "name": "Actual Gas Used",
                        "value": 36010
                    },
                    {
                        "children": [],
                        "depth": -1,
                        "name": "Refunded Gas",
                        "value": 0
                    }
                ],
                "depth": -2,
                "name": "Total Gas",
                "value": 36010
            }
        ],
        "isConfirmed": true,
        "mainTrace": [
            {
                "children": [
                    {
                        "children": [
                            {
                                "children": [],
                                "depth": 1,
                                "id": 1,
                                "order": 1
                            }
                        ],
                        "depth": 0,
                        "id": 0,
                        "order": 0
                    }
                ],
                "depth": -1,
                "id": -1,
                "order": -1
            }
        ],
        "mainTraceNodeCount": 2,
        "parentIdMap": {
            "0": -1,
            "1": 0
        },
        "tidyTrace": [
            {
                "children": [
                    {
                        "children": [
                            {
                                "children": [],
                                "depth": 1,
                                "id": 1,
                                "order": 1
                            }
                        ],
                        "depth": 0,
                        "id": 0,
                        "order": 0
                    }
                ],
                "depth": -1,
                "id": -1,
                "order": -1
            }
        ],
        "tidyTraceNodeCount": 2
    },
    "state_change": {
        "stateChanges": [
            {
                "address": "0x96c520a79bf62c955eaa044f600f67e3ecfeff52",
                "erc": "ERC-20",
                "slots": [
                    {
                        "current": "0x00000000000000000000000000000000000000000000622156cbfbc7a1185000",
                        "key": "0x013881030f534bf723ab2a9415cf8be049be0a228092ed3a1e0ad2a5119b7ee7",
                        "prev": "0x0000000000000000000000000000000000000000000062267d2fc872bf345000"
                    },
                    {
                        "current": "0x000000000000000000000000000000000000000000000037e0879fda39e30000",
                        "key": "0x4f05809be6071e462716ab1ba6cc4f3bf711820703d9ddea22f56efed618b151",
                        "prev": "0x000000000000000000000000000000000000000000000032ba23d32f1bc70000"
                    }
                ],
                "storageVariables": [
                    {
                        "name": "balances",
                        "type": "mapping(address => uint256)",
                        "value": {
                            "pairs": [
                                {
                                    "key": "0xabbcb476a127f172dd7a65178f389d6fdac21459",
                                    "value": {
                                        "current": "1030750000000000000000",
                                        "prev": "935750000000000000000",
                                        "typeTag": 1
                                    }
                                },
                                {
                                    "key": "0xeb3cbfae40ba1e1df0d96c08c663da9a2ba0855a",
                                    "value": {
                                        "current": "463406912245000000000000",
                                        "prev": "463501912245000000000000",
                                        "typeTag": 1
                                    }
                                }
                            ],
                            "typeTag": 4
                        }
                    }
                ]
            }
        ]
    }
}