{
    "balance_change": {
        "balanceChanges": [
            {
                "account": "0xdc1882f350b42ac9a23508996254b1915c78b204",
                "assets": [
                    {
                        "address": "0xa858bc1b71a895ee83b92f149616f9b3f6afa0fb",
                        "amount": "2,800",
                        "iconUrl": "",
                        "isERC1155": false,
                        "isERC721": false,
                        "sign": false,
                        "value": ""
                    }
                ]
            },
            {
                "account": "0xa997771e7a5d8ce5bc9d21bc696431413e8e7fd2",
                "assets": [
                    {
                        "address": "0xa858bc1b71a895ee83b92f149616f9b3f6afa0fb",
                        "amount": "2,800",
                        "iconUrl": "",
                        "isERC1155": false,
                        "isERC721": false,
                        "sign": true,
                        "value": ""
                    }
                ]
            }
        ]
    },
    "profile": {
        "basic_info": {
            "baseFee": "",
            "blockNumber": 7217008,
            "callData": "0xa09234a300000000000000000000000000000000000000000000000000000000000000c0000000000000000000000000000000000000000000000000000000000000012000000000000000000000000000000000000000000000000000000000000001c00000000000000000000000000000000000000000000000000000000000000260000000000000000000000000000000000000000000000000000000000000030000000000000000000000000000000000000000000000000000000000000003a000000000000000000000000000000000000000000000000000000000000000020000000000000000000000000000000000000000000000000000000000000874000000000000000000000000000000000000000000000097c9ce4cf6d5c000000000000000000000000000000000000000000000000000000000000000000004000000000000000000000000a858bc1b71a895ee83b92f149616f9b3f6afa0fb0000000000000000000000005c04493df56ad1787a10a869c914fbdee5b4d164000000000000000000000000a997771e7a5d8ce5bc9d21bc696431413e8e7fd20000000000000000000000005c78a59c9d914d56ec1e8cb65676e2c34afd59560000000000000000000000000000000000000000000000000000000000000004000000000000000000000000000000000000000000000000000000000000001c000000000000000000000000000000000000000000000000000000000000001c000000000000000000000000000000000000000000000000000000000000001c000000000000000000000000000000000000000000000000000000000000001b0000000000000000000000000000000000000000000000000000000000000004f891397eec545a740616913ee31b068dd29d4b35faeda6e5fbc33d182380488ac13df24f7a7e4934ce34bd0490babe205e42452a75774f1dfafaddacc2b0a3bb295b2e294eedc075914d891bc76f86ec6721632d12dda73fd541b198173739b385be421286f7279031dab9b0ce44678c365370ec842120637dae9d8a65e460f200000000000000000000000000000000000000000000000000000000000000047056fa6d247c0e8702543afeb8d9e79e73ff8ee2800a7b1ebf6fbc3a4776020c670f0cbedb659b265b7bff5b2210c4ac0412b66bcd21d969acf623f1804366a64905c09e7e66999b5282b57a04c8c816547e3210eea4cf47e7cff9085a9a19085b42557356d8ca0cc6dda4691a9769b927e4e096ed086ea54b9a43c3108bc9f300000000000000000000000000000000000000000000000000000000000000145c5bd4dadb395e2d525b03d5a7abb80a1d48e16b000000000000000000000000",
            "debugEnable": true,
            "errorInfo": "",
            "eventCount": 2,
            "feeRecipient": "0xea674fdde714fd979de3edf0f56aa9716b898ec8",
            "formatValue": "0",
            "gasLimit": 140686,
            "gasPrice": "14.399999999",
            "gasUsed": 140686,
            "intTxnCount": 12,
            "internalRevert": false,
            "internalRevertMessage": "",
            "isContractCreation": false,
            "isFlashloan": false,
            "maxFee": "",
            "nonce": 3169,
            "overwritedBlockNumber": -1,
            "priorityFee": "",
            "receiver": "0xdc1882f350b42ac9a23508996254b1915c78b204",
            "revertMessage": "",
            "sender": "0x77876c36fe1c640f0dacb51b9374f89e3d291720",
            "simulationEnable": true,
            "sourceTxnHash": "0x91c55b3202c8ebfeb4fc96837f080e33ff9f6648145cc4b6d556b0a86e63f4e0",
            "status": true,
            "timestamp": "2019-02-13T23:01:46Z",
            "transactionFee": "0.002025878399859314",
            "txnHash": "0x91c55b3202c8ebfeb4fc96837f080e33ff9f6648145cc4b6d556b0a86e63f4e0",
            "txnIndex": 86,
            "type": 0,
            "value": "0"
        },
        "fund_flow": [
            {
                "amount": "2,800",
                "from": "0xdc1882f350b42ac9a23508996254b1915c78b204",
                "id": 1,
                "isERC1155": false,
                "isERC721": false,
                "isReverted": false,
                "order": 1,
                "to": "0xa997771e7a5d8ce5bc9d21bc696431413e8e7fd2",
                "token": "0xa858bc1b71a895ee83b92f149616f9b3f6afa0fb"
            }
        ],
        "token_infos": [
            {
                "address": "0xa858bc1b71a895ee83b92f149616f9b3f6afa0fb",
                "decimals": 18
            },
            {
                "address": "0xc02aaa39b223fe8d0a0e5c4f27ead9083c756cc2",
                "decimals": 18
            },
            {
                "address": "0xeeeeeeeeeeeeeeeeeeeeeeeeeeeeeeeeeeeeeeee",
                "decimals": 18
            }
        ]
    },
    "address_label": {
        "labels": [
            {
                "address": "0x0000000000000000000000000000000000000001",
                "label": "Precompiled"
            },
            {
                "address": "0x0000000000000000000000000000000000000003",
                "label": "Precompiled"
            },
            {
                "address": "0x0000000000000000000000000000000000000004",
                "label": "Precompiled"
            },
            {
                "address": "0xeeeeeeeeeeeeeeeeeeeeeeeeeeeeeeeeeeeeeeee",
                "label": "Ether"
            },
            {
                "address": "0x0000000000000000000000000000000000000002",
                "label": "Precompiled"
            },
            {
                "address": "0xdc1882f350b42ac9a23508996254b1915c78b204",
                "label": "Allbit 1"
            },
            {
                "address": "0xa858bc1b71a895ee83b92f149616f9b3f6afa0fb",
                "label": "Kambria Token (KAT)"
            }
        ]
    },
    "trace": {
        "accountLabels": null,
        "dataMap": {
            "-1": {
                "invocation": {
                    "address": "0x77876c36fe1c640f0dacb51b9374f89e3d291720",
                    "callData": "",
                    "decodedMethod": null,
                    "errorInfo": "",
                    "fromAddress": "",
                    "gasUsed": 0,
                    "id": -1,
                    "methodDecoded": false,
                    "operation": "",
                    "output": "",
                    "revert": false,
                    "revertMessage": "",
                    "selector": "",
                    "status": false,
                    "value": ""
                },
                "nodeType": 0
            },
            "0": {
                "invocation": {
                    "address": "0xdc1882f350b42ac9a23508996254b1915c78b204",
                    "callData": "0x00000000000000000000000000000000000000000000000000000000000000c0000000000000000000000000000000000000000000000000000000000000012000000000000000000000000000000000000000000000000000000000000001c00000000000000000000000000000000000000000000000000000000000000260000000000000000000000000000000000000000000000000000000000000030000000000000000000000000000000000000000000000000000000000000003a000000000000000000000000000000000000000000000000000000000000000020000000000000000000000000000000000000000000000000000000000000874000000000000000000000000000000000000000000000097c9ce4cf6d5c000000000000000000000000000000000000000000000000000000000000000000004000000000000000000000000a858bc1b71a895ee83b92f149616f9b3f6afa0fb0000000000000000000000005c04493df56ad1787a10a869c914fbdee5b4d164000000000000000000000000a997771e7a5d8ce5bc9d21bc696431413e8e7fd20000000000000000000000005c78a59c9d914d56ec1e8cb65676e2c34afd59560000000000000000000000000000000000000000000000000000000000000004000000000000000000000000000000000000000000000000000000000000001c000000000000000000000000000000000000000000000000000000000000001c000000000000000000000000000000000000000000000000000000000000001c000000000000000000000000000000000000000000000000000000000000001b0000000000000000000000000000000000000000000000000000000000000004f891397eec545a740616913ee31b068dd29d4b35faeda6e5fbc33d182380488ac13df24f7a7e4934ce34bd0490babe205e42452a75774f1dfafaddacc2b0a3bb295b2e294eedc075914d891bc76f86ec6721632d12dda73fd541b198173739b385be421286f7279031dab9b0ce44678c365370ec842120637dae9d8a65e460f200000000000000000000000000000000000000000000000000000000000000047056fa6d247c0e8702543afeb8d9e79e73ff8ee2800a7b1ebf6fbc3a4776020c670f0cbedb659b265b7bff5b2210c4ac0412b66bcd21d969acf623f1804366a64905c09e7e66999b5282b57a04c8c816547e3210eea4cf47e7cff9085a9a19085b42557356d8ca0cc6dda4691a9769b927e4e096ed086ea54b9a43c3108bc9f300000000000000000000000000000000000000000000000000000000000000145c5bd4dadb395e2d525b03d5a7abb80a1d48e16b000000000000000000000000",
                    "decodedMethod": null,
                    "errorInfo": "",
                    "fromAddress": "0x77876c36fe1c640f0dacb51b9374f89e3d291720",
                    "gasUsed": 140686,
                    "id": 0,
                    "methodDecoded": false,
                    "operation": "CALL",
                    "output": "",
                    "revert": false,
                    "revertMessage": "",
                    "selector": "0xa09234a3",
                    "status": true,
                    "value": "0"
                },
                "nodeType": 0
            },
            "1": {
                "invocation": {
                    "address": "0x0000000000000000000000000000000000000002",
                    "callData": "0x58bc1b71a895ee83b92f149616f9b3f6afa0fb",
                    "decodedMethod": {
                        "callParams": [
                            {
                                "name": "data",
                                "type": "bytes",
                                "value": "0x455448a858bc1b71a895ee83b92f149616f9b3f6afa0fb"
                            }
                        ],
                        "constructorArguments": "",
                        "name": "sha256hash",
                        "returnParams": [
                            {
                                "name": "hash",
                                "type": "bytes32",
                                "value": "0xfb8d044e638a2fd3d2d462ea10e4539a6f107471ea21742d04dd5c1b1ebfbd0f"
                            }
                        ],
                        "signature": "sha256hash(bytes)"
                    },
                    "errorInfo": "",
                    "fromAddress": "0xdc1882f350b42ac9a23508996254b1915c78b204",
                    "gasUsed": 72,
                    "id": 1,
                    "methodDecoded": true,
                    "operation": "CALL",
                    "output": "0xfb8d044e638a2fd3d2d462ea10e4539a6f107471ea21742d04dd5c1b1ebfbd0f",
                    "revert": false,
                    "revertMessage": "",
                    "selector": "0x455448a8",
                    "status": true,
                    "value": "0"
                },
                "nodeType": 0
            },
            "10": {
                "invocation": {
                    "address": "0x36893442f6cbd69a2ad0c00bac68d9687877b509",
                    "callData": "0x000000000000000000000000256654cc36d7e7ec47b80122cb3c4fd4e97bcd2f",
                    "decodedMethod": {
                        "callParams": [
                            {
                                "name": "account",
                                "type": "address",
                                "value": "0x256654cc36d7e7ec47b80122cb3c4fd4e97bcd2f"
                            }
                        ],
                        "constructorArguments": "",
                        "name": "isOwner",
                        "returnParams": [
                            {
                                "name": "",
                                "type": "bool",
                                "value": true
                            }
                        ],
                        "signature": "isOwner(address)"
                    },
                    "errorInfo": "",
                    "fromAddress": "0xdc1882f350b42ac9a23508996254b1915c78b204",
                    "gasUsed": 631,
                    "id": 10,
                    "methodDecoded": true,
                    "operation": "CALL",
                    "output": "0x0000000000000000000000000000000000000000000000000000000000000001",
                    "revert": false,
                    "revertMessage": "",
                    "selector": "0x2f54bf6e",
                    "status": true,
                    "value": "0"
                },
                "nodeType": 0
            },
            "11": {
                "invocation": {
                    "address": "0x36893442f6cbd69a2ad0c00bac68d9687877b509",
                    "callData": "0x",
                    "decodedMethod": {
                        "callParams": [],
                        "constructorArguments": "",
                        "name": "required",
                        "returnParams": [
                            {
                                "name": "",
                                "type": "uint256",
                                "value": "4"
                            }
                        ],
                        "signature": "required()"
                    },
                    "errorInfo": "",
                    "fromAddress": "0xdc1882f350b42ac9a23508996254b1915c78b204",
                    "gasUsed": 1000,
                    "id": 11,
                    "methodDecoded": true,
                    "operation": "CALL",
                    "output": "0x0000000000000000000000000000000000000000000000000000000000000004",
                    "revert": false,
                    "revertMessage": "",
                    "selector": "0xdc8452cd",
                    "status": true,
                    "value": "0"
                },
                "nodeType": 0
            },
            "12": {
                "invocation": {
                    "address": "0xa858bc1b71a895ee83b92f149616f9b3f6afa0fb",
                    "callData": "0x000000000000000000000000a997771e7a5d8ce5bc9d21bc696431413e8e7fd2000000000000000000000000000000000000000000000097c9ce4cf6d5c00000",
                    "decodedMethod": {
                        "callParams": [
                            {
                                "name": "_to",
                                "type": "address",
                                "value": "0xa997771e7a5d8ce5bc9d21bc696431413e8e7fd2"
                            },
                            {
                                "decimalAvailable": true,
                                "name": "_value",
                                "type": "uint256",
                                "value": "2,800,000,000,000,000,000,000"
                            }
                        ],
                        "constructorArguments": "",
                        "name": "transfer",
                        "returnParams": [
                            {
                                "name": "",
                                "type": "bool",
                                "value": true
                            }
                        ],
                        "signature": "transfer(address,uint256)"
                    },
                    "errorInfo": "",
                    "fromAddress": "0xdc1882f350b42ac9a23508996254b1915c78b204",
                    "gasUsed": 28680,
                    "id": 12,
                    "methodDecoded": true,
                    "operation": "CALL",
                    "output": "0x0000000000000000000000000000000000000000000000000000000000000001",
                    "revert": false,
                    "revertMessage": "",
                    "selector": "0xa9059cbb",
                    "status": true,
                    "value": "0"
                },
                "nodeType": 0
            },
            "13": {
                "event": {
                    "contract": "0xa858bc1b71a895ee83b92f149616f9b3f6afa0fb",
                    "decodedLog": {
                        "name": "Transfer",
                        "params": [
                            {
                                "name": "from",
                                "type": "address",
                                "value": "0xdc1882f350b42ac9a23508996254b1915c78b204"
                            },
                            {
                                "name": "to",
                                "type": "address",
                                "value": "0xa997771e7a5d8ce5bc9d21bc696431413e8e7fd2"
                            },
                            {
                                "decimalAvailable": true,
                                "name": "value",
                                "type": "uint256",
                                "value": "2,800,000,000,000,000,000,000"
                            }
                        ],
                        "signature": "Transfer(address,address,uint256)"
                    },
                    "id": 13,
                    "logData": "0x000000000000000000000000000000000000000000000097c9ce4cf6d5c00000",
                    "logDecoded": true,
                    "operation": "EVENT",
                    "revert": false,
                    "status": true,
                    "topics": [
                        "0xddf252ad1be2c89b69c2b068fc378daa952ba7f163c4a11628f55a4df523b3ef",
                        "0x000000000000000000000000dc1882f350b42ac9a23508996254b1915c78b204",
                        "0x000000000000000000000000a997771e7a5d8ce5bc9d21bc696431413e8e7fd2"
                    ]
                },
                "nodeType": 1
            },
            "14": {
                "event": {
                    "contract": "0xdc1882f350b42ac9a23508996254b1915c78b204",
                    "decodedLog": null,
                    "id": 14,
                    "logData": "0x000000000000000000000000a858bc1b71a895ee83b92f149616f9b3f6afa0fb0000000000000000000000005c04493df56ad1787a10a869c914fbdee5b4d164000000000000000000000000a997771e7a5d8ce5bc9d21bc696431413e8e7fd2000000000000000000000000000000000000000000000097c9ce4cf6d5c00000a727c1da1ac9b956b5f1bf70a836fc7b81f6fbd06d4bf435d25141cb827d9d5d000000000000000000000000000000000000000000000000000000000000087400000000000000000000000000000000000000000000000000000000000000e000000000000000000000000000000000000000000000000000000000000000145c5bd4dadb395e2d525b03d5a7abb80a1d48e16b000000000000000000000000",
                    "logDecoded": false,
                    "operation": "EVENT",
                    "revert": false,
                    "status": true,
                    "topics": [
                        "0xa0b2c94a6947b97084546b87e7c30fa2b5b0e751d5e4d6636d34b7f08ad2f65d"
                    ]
                },
                "nodeType": 1
            },
            "2": {
                "invocation": {
                    "address": "0x0000000000000000000000000000000000000002",
                    "callData": "0x9d914d56ec1e8cb65676e2c34afd595600000000000000000000000000000000000000000000000000000000000008745c04493df56ad1787a10a869c914fbdee5b4d164fb8d044e638a2fd3d2d462ea10e4539a6f107471ea21742d04dd5c1b1ebfbd0fa997771e7a5d8ce5bc9d21bc696431413e8e7fd2000000000000000000000000000000000000000000000097c9ce4cf6d5c000005c5bd4dadb395e2d525b03d5a7abb80a1d48e16b",
                    "decodedMethod": {
                        "callParams": [
                            {
                                "name": "data",
                                "type": "bytes",
                                "value": "0x5c78a59c9d914d56ec1e8cb65676e2c34afd595600000000000000000000000000000000000000000000000000000000000008745c04493df56ad1787a10a869c914fbdee5b4d164fb8d044e638a2fd3d2d462ea10e4539a6f107471ea21742d04dd5c1b1ebfbd0fa997771e7a5d8ce5bc9d21bc696431413e8e7fd2000000000000000000000000000000000000000000000097c9ce4cf6d5c000005c5bd4dadb395e2d525b03d5a7abb80a1d48e16b"
                            }
                        ],
                        "constructorArguments": "",
                        "name": "sha256hash",
                        "returnParams": [
                            {
                                "name": "hash",
                                "type": "bytes32",
                                "value": "0xa727c1da1ac9b956b5f1bf70a836fc7b81f6fbd06d4bf435d25141cb827d9d5d"
                            }
                        ],
                        "signature": "sha256hash(bytes)"
                    },
                    "errorInfo": "",
                    "fromAddress": "0xdc1882f350b42ac9a23508996254b1915c78b204",
                    "gasUsed": 132,
                    "id": 2,
                    "methodDecoded": true,
                    "operation": "CALL",
                    "output": "0xa727c1da1ac9b956b5f1bf70a836fc7b81f6fbd06d4bf435d25141cb827d9d5d",
                    "revert": false,
                    "revertMessage": "",
                    "selector": "0x5c78a59c",
                    "status": true,
                    "value": "0"
                },
                "nodeType": 0
            },
            "3": {
                "invocation": {
                    "address": "0x0000000000000000000000000000000000000001",
                    "callData": "0x1ac9b956b5f1bf70a836fc7b81f6fbd06d4bf435d25141cb827d9d5d000000000000000000000000000000000000000000000000000000000000001cf891397eec545a740616913ee31b068dd29d4b35faeda6e5fbc33d182380488a7056fa6d247c0e8702543afeb8d9e79e73ff8ee2800a7b1ebf6fbc3a4776020c",
                    "decodedMethod": {
                        "callParams": [
                            {
                                "name": "hash",
                                "type": "bytes32",
                                "value": "0xa727c1da1ac9b956b5f1bf70a836fc7b81f6fbd06d4bf435d25141cb827d9d5d"
                            },
                            {
                                "name": "v",
                                "type": "uint256",
                                "value": "28"
                            },
                            {
                                "name": "r",
                                "type": "bytes32",
                                "value": "0xf891397eec545a740616913ee31b068dd29d4b35faeda6e5fbc33d182380488a"
                            },
                            {
                                "name": "s",
                                "type": "bytes32",
                                "value": "0x7056fa6d247c0e8702543afeb8d9e79e73ff8ee2800a7b1ebf6fbc3a4776020c"
                            }
                        ],
                        "constructorArguments": "",
                        "name": "ecrecover",
                        "returnParams": [
                            {
                                "name": "",
                                "type": "address",
                                "value": "0x6524b4c510aa27a018a14a9364c2924672fb5957"
                            }
                        ],
                        "signature": "ecrecover(bytes32,uint256,bytes32,bytes32)"
                    },
                    "errorInfo": "",
                    "fromAddress": "0xdc1882f350b42ac9a23508996254b1915c78b204",
                    "gasUsed": 3000,
                    "id": 3,
                    "methodDecoded": true,
                    "operation": "CALL",
                    "output": "0x0000000000000000000000006524b4c510aa27a018a14a9364c2924672fb5957",
                    "revert": false,
                    "revertMessage": "",
                    "selector": "0xa727c1da",
                    "status": true,
                    "value": "0"
                },
                "nodeType": 0
            },
            "4": {
                "invocation": {
                    "address": "0x36893442f6cbd69a2ad0c00bac68d9687877b509",
                    "callData": "0x0000000000000000000000006524b4c510aa27a018a14a9364c2924672fb5957",
                    "decodedMethod": {
                        "callParams": [
                            {
                                "name": "account",
                                "type": "address",
                                "value": "0x6524b4c510aa27a018a14a9364c2924672fb5957"
                            }
                        ],
                        "constructorArguments": "",
                        "name": "isOwner",
                        "returnParams": [
                            {
                                "name": "",
                                "type": "bool",
                                "value": true
                            }
                        ],
                        "signature": "isOwner(address)"
                    },
                    "errorInfo": "",
                    "fromAddress": "0xdc1882f350b42ac9a23508996254b1915c78b204",
                    "gasUsed": 631,
                    "id": 4,
                    "methodDecoded": true,
                    "operation": "CALL",
                    "output": "0x0000000000000000000000000000000000000000000000000000000000000001",
                    "revert": false,
                    "revertMessage": "",
                    "selector": "0x2f54bf6e",
                    "status": true,
                    "value": "0"
                },
                "nodeType": 0
            },
            "5": {
                "invocation": {
                    "address": "0x0000000000000000000000000000000000000001",
                    "callData": "0x1ac9b956b5f1bf70a836fc7b81f6fbd06d4bf435d25141cb827d9d5d000000000000000000000000000000000000000000000000000000000000001cc13df24f7a7e4934ce34bd0490babe205e42452a75774f1dfafaddacc2b0a3bb670f0cbedb659b265b7bff5b2210c4ac0412b66bcd21d969acf623f1804366a6",
                    "decodedMethod": {
                        "callParams": [
                            {
                                "name": "hash",
                                "type": "bytes32",
                                "value": "0xa727c1da1ac9b956b5f1bf70a836fc7b81f6fbd06d4bf435d25141cb827d9d5d"
                            },
                            {
                                "name": "v",
                                "type": "uint256",
                                "value": "28"
                            },
                            {
                                "name": "r",
                                "type": "bytes32",
                                "value": "0xc13df24f7a7e4934ce34bd0490babe205e42452a75774f1dfafaddacc2b0a3bb"
                            },
                            {
                                "name": "s",
                                "type": "bytes32",
                                "value": "0x670f0cbedb659b265b7bff5b2210c4ac0412b66bcd21d969acf623f1804366a6"
                            }
                        ],
                        "constructorArguments": "",
                        "name": "ecrecover",
                        "returnParams": [
                            {
                                "name": "",
                                "type": "address",
                                "value": "0x13dd5f400719297cca79def0ed1765895f28de5c"
                            }
                        ],
                        "signature": "ecrecover(bytes32,uint256,bytes32,bytes32)"
                    },
                    "errorInfo": "",
                    "fromAddress": "0xdc1882f350b42ac9a23508996254b1915c78b204",
                    "gasUsed": 3000,
                    "id": 5,
                    "methodDecoded": true,
                    "operation": "CALL",
                    "output": "0x00000000000000000000000013dd5f400719297cca79def0ed1765895f28de5c",
                    "revert": false,
                    "revertMessage": "",
                    "selector": "0xa727c1da",
                    "status": true,
                    "value": "0"
                },
                "nodeType": 0
            },
            "6": {
                "invocation": {
                    "address": "0x36893442f6cbd69a2ad0c00bac68d9687877b509",
                    "callData": "0x00000000000000000000000013dd5f400719297cca79def0ed1765895f28de5c",
                    "decodedMethod": {
                        "callParams": [
                            {
                                "name": "account",
                                "type": "address",
                                "value": "0x13dd5f400719297cca79def0ed1765895f28de5c"
                            }
                        ],
                        "constructorArguments": "",
                        "name": "isOwner",
                        "returnParams": [
                            {
                                "name": "",
                                "type": "bool",
                                "value": true
                            }
                        ],
                        "signature": "isOwner(address)"
                    },
                    "errorInfo": "",
                    "fromAddress": "0xdc1882f350b42ac9a23508996254b1915c78b204",
                    "gasUsed": 631,
                    "id": 6,
                    "methodDecoded": true,
                    "operation": "CALL",
                    "output": "0x0000000000000000000000000000000000000000000000000000000000000001",
                    "revert": false,
                    "revertMessage": "",
                    "selector": "0x2f54bf6e",
                    "status": true,
                    "value": "0"
                },
                "nodeType": 0
            },
            "7": {
                "invocation": {
                    "address": "0x0000000000000000000000000000000000000001",
                    "callData": "0x1ac9b956b5f1bf70a836fc7b81f6fbd06d4bf435d25141cb827d9d5d000000000000000000000000000000000000000000000000000000000000001c295b2e294eedc075914d891bc76f86ec6721632d12dda73fd541b198173739b34905c09e7e66999b5282b57a04c8c816547e3210eea4cf47e7cff9085a9a1908",
                    "decodedMethod": {
                        "callParams": [
                            {
                                "name": "hash",
                                "type": "bytes32",
                                "value": "0xa727c1da1ac9b956b5f1bf70a836fc7b81f6fbd06d4bf435d25141cb827d9d5d"
                            },
                            {
                                "name": "v",
                                "type": "uint256",
                                "value": "28"
                            },
                            {
                                "name": "r",
                                "type": "bytes32",
                                "value": "0x295b2e294eedc075914d891bc76f86ec6721632d12dda73fd541b198173739b3"
                            },
                            {
                                "name": "s",
                                "type": "bytes32",
                                "value": "0x4905c09e7e66999b5282b57a04c8c816547e3210eea4cf47e7cff9085a9a1908"
                            }
                        ],
                        "constructorArguments": "",
                        "name": "ecrecover",
                        "returnParams": [
                            {
                                "name": "",
                                "type": "address",
                                "value": "0x76aafe563d544947fdbc9dfba4b22754c7b61d60"
                            }
                        ],
                        "signature": "ecrecover(bytes32,uint256,bytes32,bytes32)"
                    },
                    "errorInfo": "",
                    "fromAddress": "0xdc1882f350b42ac9a23508996254b1915c78b204",
                    "gasUsed": 3000,
                    "id": 7,
                    "methodDecoded": true,
                    "operation": "CALL",
                    "output": "0x00000000000000000000000076aafe563d544947fdbc9dfba4b22754c7b61d60",
                    "revert": false,
                    "revertMessage": "",
                    "selector": "0xa727c1da",
                    "status": true,
                    "value": "0"
                },
                "nodeType": 0
            },
            "8": {
                "invocation": {
                    "address": "0x36893442f6cbd69a2ad0c00bac68d9687877b509",
                    "callData": "0x00000000000000000000000076aafe563d544947fdbc9dfba4b22754c7b61d60",
                    "decodedMethod": {
                        "callParams": [
                            {
                                "name": "account",
                                "type": "address",
                                "value": "0x76aafe563d544947fdbc9dfba4b22754c7b61d60"
                            }
                        ],
                        "constructorArguments": "",
                        "name": "isOwner",
                        "returnParams": [
                            {
                                "name": "",
                                "type": "bool",
                                "value": true
                            }
                        ],
                        "signature": "isOwner(address)"
                    },
                    "errorInfo": "",
                    "fromAddress": "0xdc1882f350b42ac9a23508996254b1915c78b204",
                    "gasUsed": 631,
                    "id": 8,
                    "methodDecoded": true,
                    "operation": "CALL",
                    "output": "0x0000000000000000000000000000000000000000000000000000000000000001",
                    "revert": false,
                    "revertMessage": "",
                    "selector": "0x2f54bf6e",
                    "status": true,
                    "value": "0"
                },
                "nodeType": 0
            },
            "9": {
                "invocation": {
                    "address": "0x0000000000000000000000000000000000000001",
                    "callData": "0x1ac9b956b5f1bf70a836fc7b81f6fbd06d4bf435d25141cb827d9d5d000000000000000000000000000000000000000000000000000000000000001b85be421286f7279031dab9b0ce44678c365370ec842120637dae9d8a65e460f25b42557356d8ca0cc6dda4691a9769b927e4e096ed086ea54b9a43c3108bc9f3",
                    "decodedMethod": {
                        "callParams": [
                            {
                                "name": "hash",
                                "type": "bytes32",
                                "value": "0xa727c1da1ac9b956b5f1bf70a836fc7b81f6fbd06d4bf435d25141cb827d9d5d"
                            },
                            {
                                "name": "v",
                                "type": "uint256",
                                "value": "27"
                            },
                            {
                                "name": "r",
                                "type": "bytes32",
                                "value": "0x85be421286f7279031dab9b0ce44678c365370ec842120637dae9d8a65e460f2"
                            },
                            {
                                "name": "s",
                                "type": "bytes32",
                                "value": "0x5b42557356d8ca0cc6dda4691a9769b927e4e096ed086ea54b9a43c3108bc9f3"
                            }
                        ],
                        "constructorArguments": "",
                        "name": "ecrecover",
                        "returnParams": [
                            {
                                "name": "",
                                "type": "address",
                                "value": "0x256654cc36d7e7ec47b80122cb3c4fd4e97bcd2f"
                            }
                        ],
                        "signature": "ecrecover(bytes32,uint256,bytes32,bytes32)"
                    },
                    "errorInfo": "",
                    "fromAddress": "0xdc1882f350b42ac9a23508996254b1915c78b204",
                    "gasUsed": 3000,
                    "id": 9,
                    "methodDecoded": true,
                    "operation": "CALL",
                    "output": "0x000000000000000000000000256654cc36d7e7ec47b80122cb3c4fd4e97bcd2f",
                    "revert": false,
                    "revertMessage": "",
                    "selector": "0xa727c1da",
                    "status": true,
                    "value": "0"
                },
                "nodeType": 0
            }
        },
        "gasFlame": [
            {
                "children": [
                    {
                        "children": [
                            {
                                "children": [],
                                "depth": 0,
                                "name": "Initial Gas",
                                "value": 49880
                            },
                            {
                                "children": [
                                    {
                                        "children": [],
                                        "depth": 1,
                                        "name": "sha256hash",
                                        "value": 72
                                    },
                                    {
                                        "children": [],
                                        "depth": 1,
                                        "name": "sha256hash",
                                        "value": 132
                                    },
                                    {
                                        "children": [],
                                        "depth": 1,
                                        "name": "ecrecover",
                                        "value": 3000
                                    },
                                    {
                                        "children": [],
                                        "depth": 1,
                                        "name": "isOwner",
                                        "value": 631
                                    },
                                    {
                                        "children": [],
                                        "depth": 1,
                                        "name": "ecrecover",
                                        "value": 3000
                                    },
                                    {
                                        "children": [],
                                        "depth": 1,
                                        "name": "isOwner",
                                        "value": 631
                                    },
                                    {
                                        "children": [],
                                        "depth": 1,
                                        "name": "ecrecover",
                                        "value": 3000
                                    },
                                    {
                                        "children": [],
                                        "depth": 1,
                                        "name": "isOwner",
                                        "value": 631
                                    },
                                    {
                                        "children": [],
                                        "depth": 1,
                                        "name": "ecrecover",
                                        "value": 3000
                                    },
                                    {
                                        "children": [],
                                        "depth": 1,
                                        "name": "isOwner",
                                        "value": 631
                                    },
                                    {
                                        "children": [],
                                        "depth": 1,
                                        "name": "required",
                                        "value": 1000
                                    },
                                    {
                                        "children": [],
                                        "depth": 1,
                                        "name": "transfer",
                                        "value": 28680
                                    }
                                ],
                                "depth": 0,
                                "name": "Executed Gas",
                                "value": 90806
                            }
                        ],
                        "depth": -1,
                        "name": "Actual Gas Used",
                        "value": 140686
                    },
                    {
                        "children": [],
                        "depth": -1,
                        "name": "Refunded Gas",
                        "value": 0
                    }
                ],
                "depth": -2,
                "name": "Total Gas",
                "value": 140686
            }
        ],
        "isConfirmed": true,
        "mainTrace": [
            {
                "children": [
                    {
                        "children": [
                            {
                                "children": [],
                                "depth": 1,
                                "id": 1,
                                "order": 1
                            },
                            {
                                "children": [],
                                "depth": 1,
                                "id": 2,
                                "order": 2
                            },
                            {
                                "children": [],
                                "depth": 1,
                                "id": 3,
                                "order": 3
                            },
                            {
                                "children": [],
                                "depth": 1,
                                "id": 4,
                                "order": 4
                            },
                            {
                                "children": [],
                                "depth": 1,
                                "id": 5,
                                "order": 5
                            },
                            {
                                "children": [],
                                "depth": 1,
                                "id": 6,
                                "order": 6
                            },
                            {
                                "children": [],
                                "depth": 1,
                                "id": 7,
                                "order": 7
                            },
                            {
                                "children": [],
                                "depth": 1,
                                "id": 8,
                                "order": 8
                            },
                            {
                                "children": [],
                                "depth": 1,
                                "id": 9,
                                "order": 9
                            },
                            {
                                "children": [],
                                "depth": 1,
                                "id": 10,
                                "order": 10
                            },
                            {
                                "children": [],
                                "depth": 1,
                                "id": 11,
                                "order": 11
                            },
                            {
                                "children": [
                                    {
                                        "children": [],
                                        "depth": 2,
                                        "id": 13,
                                        "order": 13
                                    }
                                ],
                                "depth": 1,
                                "id": 12,
                                "order": 12
                            },
                            {
                                "children": [],
                                "depth": 1,
                                "id": 14,
                                "order": 14
                            }
                        ],
                        "depth": 0,
                        "id": 0,
                        "order": 0
                    }
                ],
                "depth": -1,
                "id": -1,
                "order": -1
            }
        ],
        "mainTraceNodeCount": 15,
        "parentIdMap": {
            "0": -1,
            "1": 0,
            "10": 0,
            "11": 0,
            "12": 0,
            "13": 12,
            "14": 0,
            "2": 0,
            "3": 0,
            "4": 0,
            "5": 0,
            "6": 0,
            "7": 0,
            "8": 0,
            "9": 0
        },
        "tidyTrace": [
            {
                "children": [
                    {
                        "children": [
                            {
                                "children": [],
                                "depth": 1,
                                "id": 1,
                                "order": 1
                            },
                            {
                                "children": [],
                                "depth": 1,
                                "id": 2,
                                "order": 2
                            },
                            {
                                "children": [],
                                "depth": 1,
                                "id": 3,
                                "order": 3
                            },
                            {
                                "children": [],
                                "depth": 1,
                                "id": 4,
                                "order": 4
                            },
                            {
                                "children": [],
                                "depth": 1,
                                "id": 5,
                                "order": 5
                            },
                            {
                                "children": [],
                                "depth": 1,
                                "id": 6,
                                "order": 6
                            },
                            {
                                "children": [],
                                "depth": 1,
                                "id": 7,
                                "order": 7
                            },
                            {
                                "children": [],
                                "depth": 1,
                                "id": 8,
                                "order": 8
                            },
                            {
                                "children": [],
                                "depth": 1,
                                "id": 9,
                                "order": 9
                            },
                            {
                                "children": [],
                                "depth": 1,
                                "id": 10,
                                "order": 10
                            },
                            {
                                "children": [],
                                "depth": 1,
                                "id": 11,
                                "order": 11
                            },
                            {
                                "children": [
                                    {
                                        "children": [],
                                        "depth": 2,
                                        "id": 13,
                                        "order": 13
                                    }
                                ],
                                "depth": 1,
                                "id": 12,
                                "order": 12
                            },
                            {
                                "children": [],
                                "depth": 1,
                                "id": 14,
                                "order": 14
                            }
                        ],
                        "depth": 0,
                        "id": 0,
                        "order": 0
                    }
                ],
                "depth": -1,
                "id": -1,
                "order": -1
            }
        ],
        "tidyTraceNodeCount": 15
    },
    "state_change": {
        "stateChanges": [
            {
                "address": "0xa858bc1b71a895ee83b92f149616f9b3f6afa0fb",
                "erc": "ERC-20",
                "slots": [
                    {
                        "current": "0x00000000000000000000000000000000000000000009b4f038d5f94505171000",
                        "key": "0x14d85193e4162fce53f42bdbd496d0529247ce12caf61c38e2a6d107e8cf552f",
                        "prev": "0x00000000000000000000000000000000000000000009b58802a4463bdad71000"
                    },
                    {
                        "current": "0x000000000000000000000000000000000000000000000097c9ce4cf6d5c00000",
                        "key": "0x6b43a55d832c4b7cda4bb09a355f67e065374661cf6a6a11c53e543f18bbc7d7",
                        "prev": "0x0000000000000000000000000000000000000000000000000000000000000000"
                    }
                ],
                "storageVariables": [
                    {
                        "name": "balances",
                        "type": "mapping(address => uint256)",
                        "value": {
                            "pairs": [
                                {
                                    "key": "0xa997771e7a5d8ce5bc9d21bc696431413e8e7fd2",
                                    "value": {
                                        "current": "2800000000000000000000",
                                        "prev": "0",
                                        "typeTag": 1
                                    }
                                },
                                {
                                    "key": "0xdc1882f350b42ac9a23508996254b1915c78b204",
                                    "value": {
                                        "current": "11734789657479400000000000",
                                        "prev": "11737589657479400000000000",
                                        "typeTag": 1
                                    }
                                }
                            ],
                            "typeTag": 4
                        }
                    }
                ]
            },
            {
                "address": "0xdc1882f350b42ac9a23508996254b1915c78b204",
                "erc": "",
                "slots": [
                    {
                        "current": "0x0000000000000000000000000000000000000000000000000000000000000001",
                        "key": "0x7e349c4cbd0cfcefdc360ee09d34c8dc1baf2e71d705e8895254c0ca6f133e9f",
                        "prev": "0x0000000000000000000000000000000000000000000000000000000000000000"
                    }
                ],
                "storageVariables": []
            }
        ]
    }
}