{
    "balance_change": {
        "balanceChanges": []
    },
    "profile": {
        "basic_info": {
            "baseFee": "113.685035734",
            "blockNumber": 13957382,
            "callData": "0xe94ce44500000000000000000000000000000000000000000000000000000000000000e00000000000000000000000000000000000000000000000000000000000000100000000000000000000000000000000000000000000000000000000000000016000000000000000000000000000000000000000000000000000000000000001e0208000000000000000000000000000000000000000000000000000000000000100000000000000000000000000000000000000000000013f9f09772a4a564bf8000000000000000000000000000000000000000000000000000000000326b8b800000000000000000000000000000000000000000000000000000000000000000000000000000000000000000000000000000000000000000000000000000002000000000000000000000000bbc95e1eb6ee476e9cbb8112435e14b372563038000000000000000000000000f5ca27927ffb16bd8c870dcb49750146cce8217c00000000000000000000000000000000000000000000000000000000000000030000000000000000000000004691937a7508860f876c9c0a2a617e7d9e945d4b000000000000000000000000a0b86991c6218b36c1d19d4a2e9eb0ce3606eb48000000000000000000000000a0b86991c6218b36c1d19d4a2e9eb0ce3606eb48000000000000000000000000000000000000000000000000000000000000000200000000000000000000000000000000000000000000000000000000000f368800000000000000000000000000000000000000000000000000000000000f3688",
            "debugEnable": true,
            "errorInfo": "",
            "eventCount": 0,
            "feeRecipient": "0x829bd824b016326a401d083b33d092293333a830",
            "formatValue": "0",
            "gasLimit": 292849,
            "gasPrice": "115.185035734",
            "gasUsed": 39771,
            "intTxnCount": 2,
            "internalRevert": false,
            "internalRevertMessage": "",
            "isContractCreation": false,
            "isFlashloan": false,
            "maxFee": "125.078277449",
            "nonce": 2971,
            "overwritedBlockNumber": -1,
            "priorityFee": "1.5",
            "receiver": "0xd7c09e006a2891880331b0f6224071c1e890a98a",
            "revertMessage": "",
            "sender": "0xa923952a3a9ad38516568ddb6270dfd07fb5105e",
            "simulationEnable": true,
            "sourceTxnHash": "0x91828babed3cc57c4f1598e2e8e5845766a99441df563290580dd05afaaf801d",
            "status": true,
            "timestamp": "2022-01-07T08:58:05Z",
            "transactionFee": "0.004581024056176914",
            "txnHash": "0x91828babed3cc57c4f1598e2e8e5845766a99441df563290580dd05afaaf801d",
            "txnIndex": 59,
            "type": 2,
            "value": "0"
        },
        "fund_flow": [],
        "token_infos": [
            {
                "address": "0xc02aaa39b223fe8d0a0e5c4f27ead9083c756cc2",
                "decimals": 18
            },
            {
                "address": "0xeeeeeeeeeeeeeeeeeeeeeeeeeeeeeeeeeeeeeeee",
                "decimals": 18
            }
        ]
    },
    "address_label": {
        "labels": [
            {
                "address": "0xeeeeeeeeeeeeeeeeeeeeeeeeeeeeeeeeeeeeeeee",
                "label": "Ether"
            },
            {
                "address": "0xbbc95e1eb6ee476e9cbb8112435e14b372563038",
                "label": "Uniswap V2: WOO-USDC"
            },
            {
                "address": "0xf5ca27927ffb16bd8c870dcb49750146cce8217c",
                "label": "SushiSwap LP Token (SLP)"
            },
            {
                "address": "0xd7c09e006a2891880331b0f6224071c1e890a98a",
                "label": "Uniswap V2 (UNI-V2)"
            },
            {
                "address": "0x0000000000000000000000000000000000000001",
                "label": "Precompiled"
            },
            {
                "address": "0x0000000000000000000000000000000000000002",
                "label": "Precompiled"
            },
            {
                "address": "0x0000000000000000000000000000000000000003",
                "label": "Precompiled"
            },
            {
                "address": "0x0000000000000000000000000000000000000004",
                "label": "Precompiled"
            }
        ]
    },
    "trace": {
        "accountLabels": null,
        "dataMap": {
            "-1": {
                "invocation": {
                    "address": "0xa923952a3a9ad38516568ddb6270dfd07fb5105e",
                    "callData": "",
                    "decodedMethod": null,
                    "errorInfo": "",
                    "fromAddress": "",
                    "gasUsed": 0,
                    "id": -1,
                    "methodDecoded": false,
                    "operation": "",
                    "output": "",
                    "revert": false,
                    "revertMessage": "",
                    "selector": "",
                    "status": false,
                    "value": ""
                },
                "nodeType": 0
            },
            "0": {
                "invocation": {
                    "address": "0xd7c09e006a2891880331b0f6224071c1e890a98a",
                    "callData": "0x00000000000000000000000000000000000000000000000000000000000000e00000000000000000000000000000000000000000000000000000000000000100000000000000000000000000000000000000000000000000000000000000016000000000000000000000000000000000000000000000000000000000000001e0208000000000000000000000000000000000000000000000000000000000000100000000000000000000000000000000000000000000013f9f09772a4a564bf8000000000000000000000000000000000000000000000000000000000326b8b800000000000000000000000000000000000000000000000000000000000000000000000000000000000000000000000000000000000000000000000000000002000000000000000000000000bbc95e1eb6ee476e9cbb8112435e14b372563038000000000000000000000000f5ca27927ffb16bd8c870dcb49750146cce8217c00000000000000000000000000000000000000000000000000000000000000030000000000000000000000004691937a7508860f876c9c0a2a617e7d9e945d4b000000000000000000000000a0b86991c6218b36c1d19d4a2e9eb0ce3606eb48000000000000000000000000a0b86991c6218b36c1d19d4a2e9eb0ce3606eb48000000000000000000000000000000000000000000000000000000000000000200000000000000000000000000000000000000000000000000000000000f368800000000000000000000000000000000000000000000000000000000000f3688",
                    "decodedMethod": null,
                    "errorInfo": "",
                    "fromAddress": "0xa923952a3a9ad38516568ddb6270dfd07fb5105e",
                    "gasUsed": 39771,
                    "id": 0,
                    "methodDecoded": false,
                    "operation": "CALL",
                    "output": "",
                    "revert": false,
                    "revertMessage": "",
                    "selector": "0xe94ce445",
                    "status": true,
                    "value": "0"
                },
                "nodeType": 0
            },
            "1": {
                "invocation": {
                    "address": "0xbbc95e1eb6ee476e9cbb8112435e14b372563038",
                    "callData": "0x",
                    "decodedMethod": {
                        "callParams": [],
                        "constructorArguments": "",
                        "name": "getReserves",
                        "returnParams": [
                            {
                                "name": "_reserve0",
                                "type": "uint112",
                                "value": "557,230,224,420,956,701,312,227"
                            },
                            {
                                "name": "_reserve1",
                                "type": "uint112",
                                "value": "557,794,793,685"
                            },
                            {
                                "name": "_blockTimestampLast",
                                "type": "uint32",
                                "value": "1,641,545,820"
                            }
                        ],
                        "signature": "getReserves()"
                    },
                    "errorInfo": "",
                    "fromAddress": "0xd7c09e006a2891880331b0f6224071c1e890a98a",
                    "gasUsed": 2504,
                    "id": 1,
                    "methodDecoded": true,
                    "operation": "STATICCALL",
                    "output": "0x0000000000000000000000000000000000000000000075ff82d08a99924dc4e300000000000000000000000000000000000000000000000000000081df2918d50000000000000000000000000000000000000000000000000000000061d8005c",
                    "revert": false,
                    "revertMessage": "",
                    "selector": "0x0902f1ac",
                    "status": true,
                    "value": "0"
                },
                "nodeType": 0
            },
            "2": {
                "invocation": {
                    "address": "0xf5ca27927ffb16bd8c870dcb49750146cce8217c",
                    "callData": "0x",
                    "decodedMethod": {
                        "callParams": [],
                        "constructorArguments": "",
                        "name": "getReserves",
                        "returnParams": [
                            {
                                "name": "_reserve0",
                                "type": "uint112",
                                "value": "401,888,712,724,988,674,718,429"
                            },
                            {
                                "name": "_reserve1",
                                "type": "uint112",
                                "value": "404,690,220,257"
                            },
                            {
                                "name": "_blockTimestampLast",
                                "type": "uint32",
                                "value": "1,641,545,820"
                            }
                        ],
                        "signature": "getReserves()"
                    },
                    "errorInfo": "",
                    "fromAddress": "0xd7c09e006a2891880331b0f6224071c1e890a98a",
                    "gasUsed": 2517,
                    "id": 2,
                    "methodDecoded": true,
                    "operation": "STATICCALL",
                    "output": "0x00000000000000000000000000000000000000000000551a6e470db838003add0000000000000000000000000000000000000000000000000000005e396ab4e10000000000000000000000000000000000000000000000000000000061d8005c",
                    "revert": false,
                    "revertMessage": "",
                    "selector": "0x0902f1ac",
                    "status": true,
                    "value": "0"
                },
                "nodeType": 0
            }
        },
        "gasFlame": [
            {
                "children": [
                    {
                        "children": [
                            {
                                "children": [],
                                "depth": 0,
                                "name": "Initial Gas",
                                "value": 24952
                            },
                            {
                                "children": [
                                    {
                                        "children": [],
                                        "depth": 1,
                                        "name": "getReserves",
                                        "value": 2504
                                    },
                                    {
                                        "children": [],
                                        "depth": 1,
                                        "name": "getReserves",
                                        "value": 2517
                                    }
                                ],
                                "depth": 0,
                                "name": "Executed Gas",
                                "value": 14819
                            }
                        ],
                        "depth": -1,
                        "name": "Actual Gas Used",
                        "value": 39771
                    },
                    {
                        "children": [],
                        "depth": -1,
                        "name": "Refunded Gas",
                        "value": 0
                    }
                ],
                "depth": -2,
                "name": "Total Gas",
                "value": 39771
            }
        ],
        "isConfirmed": true,
        "mainTrace": [
            {
                "children": [
                    {
                        "children": [
                            {
                                "children": [],
                                "depth": 1,
                                "id": 1,
                                "order": 1
                            },
                            {
                                "children": [],
                                "depth": 1,
                                "id": 2,
                                "order": 2
                            }
                        ],
                        "depth": 0,
                        "id": 0,
                        "order": 0
                    }
                ],
                "depth": -1,
                "id": -1,
                "order": -1
            }
        ],
        "mainTraceNodeCount": 3,
        "parentIdMap": {
            "0": -1,
            "1": 0,
            "2": 0
        },
        "tidyTrace": [
            {
                "children": [
                    {
                        "children": [],
                        "depth": 0,
                        "id": 0,
                        "order": 0
                    }
                ],
                "depth": -1,
                "id": -1,
                "order": -1
            }
        ],
        "tidyTraceNodeCount": 1
    },
    "state_change": {
        "stateChanges": []
    }
}