{
    "balance_change": {
        "balanceChanges": [
            {
                "account": "0x3e6575972a4915cc0eb44676cb0cc9a70a8a0b09",
                "assets": [
                    {
                        "address": "0xdac17f958d2ee523a2206206994597c13d831ec7",
                        "amount": "107.9",
                        "iconUrl": "https://assets.blocksec.com/icon/fcea71f3193ce895be44bfdf941f7e4c9381dd587f273c2d1a27f1263d84e4ea.png",
                        "isERC1155": false,
                        "isERC721": false,
                        "sign": false,
                        "value": "107.808392900000001226"
                    }
                ]
            },
            {
                "account": "0x341910b9d7c0dc7f21e1d15d28e2d8dea7489fbf",
                "assets": [
                    {
                        "address": "0xdac17f958d2ee523a2206206994597c13d831ec7",
                        "amount": "107.9",
                        "iconUrl": "https://assets.blocksec.com/icon/fcea71f3193ce895be44bfdf941f7e4c9381dd587f273c2d1a27f1263d84e4ea.png",
                        "isERC1155": false,
                        "isERC721": false,
                        "sign": true,
                        "value": "107.808392900000001226"
                    }
                ]
            }
        ]
    },
    "profile": {
        "basic_info": {
            "baseFee": "13.348228448",
            "blockNumber": 18904360,
            "callData": "0xa9059cbb000000000000000000000000341910b9d7c0dc7f21e1d15d28e2d8dea7489fbf00000000000000000000000000000000000000000000000000000000066e6c60",
            "debugEnable": true,
            "errorInfo": "",
            "eventCount": 1,
            "feeRecipient": "0xffee087852cb4898e6c3532e776e68bc68b1143b",
            "formatValue": "0",
            "gasLimit": 69163,
            "gasPrice": "13.448228448",
            "gasUsed": 46109,
            "intTxnCount": 0,
            "internalRevert": false,
            "internalRevertMessage": "",
            "isContractCreation": false,
            "isFlashloan": false,
            "maxFee": "17.302095004",
            "nonce": 31,
            "overwritedBlockNumber": -1,
            "priorityFee": "0.1",
            "receiver": "0xdac17f958d2ee523a2206206994597c13d831ec7",
            "revertMessage": "",
            "sender": "0x3e6575972a4915cc0eb44676cb0cc9a70a8a0b09",
            "simulationEnable": true,
            "sourceTxnHash": "0x91d7611ed587d1e1d030f139b5658f76eabfb78c39aa308dbceec194d0d7ba68",
            "status": true,
            "timestamp": "2023-12-31T08:46:11Z",
            "transactionFee": "0.000620084365508832",
            "txnHash": "0x91d7611ed587d1e1d030f139b5658f76eabfb78c39aa308dbceec194d0d7ba68",
            "txnIndex": 141,
            "type": 2,
            "value": "0"
        },
        "fund_flow": [
            {
                "amount": "107.9",
                "from": "0x3e6575972a4915cc0eb44676cb0cc9a70a8a0b09",
                "id": 1,
                "isERC1155": false,
                "isERC721": false,
                "isReverted": false,
                "order": 1,
                "to": "0x341910b9d7c0dc7f21e1d15d28e2d8dea7489fbf",
                "token": "0xdac17f958d2ee523a2206206994597c13d831ec7"
            }
        ],
        "token_infos": [
            {
                "address": "0xc02aaa39b223fe8d0a0e5c4f27ead9083c756cc2",
                "decimals": 18
            },
            {
                "address": "0xdac17f958d2ee523a2206206994597c13d831ec7",
                "decimals": 6
            },
            {
                "address": "0xeeeeeeeeeeeeeeeeeeeeeeeeeeeeeeeeeeeeeeee",
                "decimals": 18
            }
        ]
    },
    "address_label": {
        "labels": [
            {
                "address": "0xeeeeeeeeeeeeeeeeeeeeeeeeeeeeeeeeeeeeeeee",
                "label": "Ether"
            },
            {
                "address": "0xdac17f958d2ee523a2206206994597c13d831ec7",
                "label": "Tether: USDT Stablecoin"
            },
            {
                "address": "0xffee087852cb4898e6c3532e776e68bc68b1143b",
                "label": "ERC1967ProxyWithReceive"
            },
            {
                "address": "0x0000000000000000000000000000000000000001",
                "label": "Precompiled"
            },
            {
                "address": "0x0000000000000000000000000000000000000002",
                "label": "Precompiled"
            },
            {
                "address": "0x0000000000000000000000000000000000000003",
                "label": "Precompiled"
            },
            {
                "address": "0x0000000000000000000000000000000000000004",
                "label": "Precompiled"
            }
        ]
    },
    "trace": {
        "accountLabels": null,
        "dataMap": {
            "-1": {
                "invocation": {
                    "address": "0x3e6575972a4915cc0eb44676cb0cc9a70a8a0b09",
                    "callData": "",
                    "decodedMethod": null,
                    "errorInfo": "",
                    "fromAddress": "",
                    "gasUsed": 0,
                    "id": -1,
                    "methodDecoded": false,
                    "operation": "",
                    "output": "",
                    "revert": false,
                    "revertMessage": "",
                    "selector": "",
                    "status": false,
                    "value": ""
                },
                "nodeType": 0
            },
            "0": {
                "invocation": {
                    "address": "0xdac17f958d2ee523a2206206994597c13d831ec7",
                    "callData": "0x000000000000000000000000341910b9d7c0dc7f21e1d15d28e2d8dea7489fbf00000000000000000000000000000000000000000000000000000000066e6c60",
                    "decodedMethod": {
                        "callParams": [
                            {
                                "name": "_to",
                                "type": "address",
                                "value": "0x341910b9d7c0dc7f21e1d15d28e2d8dea7489fbf"
                            },
                            {
                                "decimalAvailable": true,
                                "name": "_value",
                                "type": "uint256",
                                "value": "107,900,000"
                            }
                        ],
                        "constructorArguments": "",
                        "name": "transfer",
                        "returnParams": [],
                        "signature": "transfer(address,uint256)"
                    },
                    "errorInfo": "",
                    "fromAddress": "0x3e6575972a4915cc0eb44676cb0cc9a70a8a0b09",
                    "gasUsed": 46109,
                    "id": 0,
                    "methodDecoded": true,
                    "operation": "CALL",
                    "output": "",
                    "revert": false,
                    "revertMessage": "",
                    "selector": "0xa9059cbb",
                    "status": true,
                    "value": "0"
                },
                "nodeType": 0
            },
            "1": {
                "event": {
                    "contract": "0xdac17f958d2ee523a2206206994597c13d831ec7",
                    "decodedLog": {
                        "name": "Transfer",
                        "params": [
                            {
                                "name": "from",
                                "type": "address",
                                "value": "0x3e6575972a4915cc0eb44676cb0cc9a70a8a0b09"
                            },
                            {
                                "name": "to",
                                "type": "address",
                                "value": "0x341910b9d7c0dc7f21e1d15d28e2d8dea7489fbf"
                            },
                            {
                                "decimalAvailable": true,
                                "name": "value",
                                "type": "uint256",
                                "value": "107,900,000"
                            }
                        ],
                        "signature": "Transfer(address,address,uint256)"
                    },
                    "id": 1,
                    "logData": "0x00000000000000000000000000000000000000000000000000000000066e6c60",
                    "logDecoded": true,
                    "operation": "EVENT",
                    "revert": false,
                    "status": true,
                    "topics": [
                        "0xddf252ad1be2c89b69c2b068fc378daa952ba7f163c4a11628f55a4df523b3ef",
                        "0x0000000000000000000000003e6575972a4915cc0eb44676cb0cc9a70a8a0b09",
                        "0x000000000000000000000000341910b9d7c0dc7f21e1d15d28e2d8dea7489fbf"
                    ]
                },
                "nodeType": 1
            }
        },
        "gasFlame": [
            {
                "children": [
                    {
                        "children": [
                            {
                                "children": [],
                                "depth": 0,
                                "name": "Initial Gas",
                                "value": 21608
                            },
                            {
                                "children": [],
                                "depth": 0,
                                "name": "Executed Gas",
                                "value": 24501
                            }
                        ],
                        "depth": -1,
                        "name": "Actual Gas Used",
                        "value": 46109
                    },
                    {
                        "children": [],
                        "depth": -1,
                        "name": "Refunded Gas",
                        "value": 0
                    }
                ],
                "depth": -2,
                "name": "Total Gas",
                "value": 46109
            }
        ],
        "isConfirmed": true,
        "mainTrace": [
            {
                "children": [
                    {
                        "children": [
                            {
                                "children": [],
                                "depth": 1,
                                "id": 1,
                                "order": 1
                            }
                        ],
                        "depth": 0,
                        "id": 0,
                        "order": 0
                    }
                ],
                "depth": -1,
                "id": -1,
                "order": -1
            }
        ],
        "mainTraceNodeCount": 2,
        "parentIdMap": {
            "0": -1,
            "1": 0
        },
        "tidyTrace": [
            {
                "children": [
                    {
                        "children": [
                            {
                                "children": [],
                                "depth": 1,
                                "id": 1,
                                "order": 1
                            }
                        ],
                        "depth": 0,
                        "id": 0,
                        "order": 0
                    }
                ],
                "depth": -1,
                "id": -1,
                "order": -1
            }
        ],
        "tidyTraceNodeCount": 2
    },
    "state_change": {
        "stateChanges": [
            {
                "address": "0xdac17f958d2ee523a2206206994597c13d831ec7",
                "erc": "ERC-20",
                "slots": [
                    {
                        "current": "0x00000000000000000000000000000000000000000000000000000000156c2950",
                        "key": "0x2150f3ff873e7af5c1a29e94f3f8712a49a5a7e77cf745f2d3c400c9be58ace8",
                        "prev": "0x000000000000000000000000000000000000000000000000000000000efdbcf0"
                    },
                    {
                        "current": "0x0000000000000000000000000000000000000000000000000000001cd947d120",
                        "key": "0xed70d26b27088f8f2d070eed8b8ed018e727b36be8decb8193e88c524af4d660",
                        "prev": "0x0000000000000000000000000000000000000000000000000000001cdfb63d80"
                    }
                ],
                "storageVariables": [
                    {
                        "name": "balances",
                        "type": "mapping(address => uint256)",
                        "value": {
                            "pairs": [
                                {
                                    "key": "0x341910b9d7c0dc7f21e1d15d28e2d8dea7489fbf",
                                    "value": {
                                        "current": "359410000",
                                        "prev": "251510000",
                                        "typeTag": 1
                                    }
                                },
                                {
                                    "key": "0x3e6575972a4915cc0eb44676cb0cc9a70a8a0b09",
                                    "value": {
                                        "current": "123904446752",
                                        "prev": "124012346752",
                                        "typeTag": 1
                                    }
                                }
                            ],
                            "typeTag": 4
                        }
                    }
                ]
            }
        ]
    }
}