{
    "balance_change": {
        "balanceChanges": []
    },
    "profile": {
        "basic_info": {
            "baseFee": "11.397266654",
            "blockNumber": 17909697,
            "callData": "0x1d2ab0004d414b4552000000000000000000000000000000000000000000000000000000000000000000000000000000000000000000000000000000000000000000004000000000000000000000000000000000000000000000000000000000000000200000000000000000000000055bf6c031714e815d47a563db4367d128f11e359a",
            "debugEnable": true,
            "errorInfo": "execution reverted",
            "eventCount": 0,
            "feeRecipient": "0x95222290dd7278aa3ddd389cc1e1d165cc4bafe5",
            "formatValue": "0",
            "gasLimit": 452802,
            "gasPrice": "11.477266654",
            "gasUsed": 34510,
            "intTxnCount": 1,
            "internalRevert": true,
            "internalRevertMessage": "",
            "isContractCreation": false,
            "isFlashloan": false,
            "maxFee": "14.299940678",
            "nonce": 5910,
            "overwritedBlockNumber": -1,
            "priorityFee": "0.08",
            "receiver": "0xc32506e9bb590971671b649d9b8e18cb6260559f",
            "revertMessage": "NotMaster(network=0x4d414b4552000000000000000000000000000000000000000000000000000000)",
            "sender": "0xcb4fadd1f51977372a2ac7f1bc1e16c3d0e3c969",
            "simulationEnable": true,
            "sourceTxnHash": "0x91151bdb1e3cfb5e577c2744228206fa6cc7ff7207f8d6723a3bfec7ea2835f9",
            "status": false,
            "timestamp": "2023-08-14T01:05:23Z",
            "transactionFee": "0.00039608047222954",
            "txnHash": "0x91151bdb1e3cfb5e577c2744228206fa6cc7ff7207f8d6723a3bfec7ea2835f9",
            "txnIndex": 94,
            "type": 2,
            "value": "0"
        },
        "fund_flow": [],
        "token_infos": [
            {
                "address": "0xc02aaa39b223fe8d0a0e5c4f27ead9083c756cc2",
                "decimals": 18
            },
            {
                "address": "0xeeeeeeeeeeeeeeeeeeeeeeeeeeeeeeeeeeeeeeee",
                "decimals": 18
            }
        ]
    },
    "address_label": {
        "labels": [
            {
                "address": "0x238b4e35daed6100c6162fae4510261f88996ec9",
                "label": "Maker: Sequencer"
            },
            {
                "address": "0x0000000000000000000000000000000000000001",
                "label": "Precompiled"
            },
            {
                "address": "0x0000000000000000000000000000000000000002",
                "label": "Precompiled"
            },
            {
                "address": "0x0000000000000000000000000000000000000003",
                "label": "Precompiled"
            },
            {
                "address": "0x0000000000000000000000000000000000000004",
                "label": "Precompiled"
            },
            {
                "address": "0xeeeeeeeeeeeeeeeeeeeeeeeeeeeeeeeeeeeeeeee",
                "label": "Ether"
            },
            {
                "address": "0xc32506e9bb590971671b649d9b8e18cb6260559f",
                "label": "Maker: Flap Job"
            }
        ]
    },
    "trace": {
        "accountLabels": null,
        "dataMap": {
            "-1": {
                "invocation": {
                    "address": "0xcb4fadd1f51977372a2ac7f1bc1e16c3d0e3c969",
                    "callData": "",
                    "decodedMethod": null,
                    "errorInfo": "",
                    "fromAddress": "",
                    "gasUsed": 0,
                    "id": -1,
                    "methodDecoded": false,
                    "operation": "",
                    "output": "",
                    "revert": false,
                    "revertMessage": "",
                    "selector": "",
                    "status": false,
                    "value": ""
                },
                "nodeType": 0
            },
            "0": {
                "invocation": {
                    "address": "0xc32506e9bb590971671b649d9b8e18cb6260559f",
                    "callData": "0x4d414b4552000000000000000000000000000000000000000000000000000000000000000000000000000000000000000000000000000000000000000000004000000000000000000000000000000000000000000000000000000000000000200000000000000000000000055bf6c031714e815d47a563db4367d128f11e359a",
                    "decodedMethod": {
                        "callParams": [
                            {
                                "name": "network",
                                "type": "bytes32",
                                "value": "0x4d414b4552000000000000000000000000000000000000000000000000000000"
                            },
                            {
                                "name": "args",
                                "type": "bytes",
                                "value": "0x0000000000000000000000055bf6c031714e815d47a563db4367d128f11e359a"
                            }
                        ],
                        "constructorArguments": "",
                        "name": "work",
                        "returnParams": [],
                        "signature": "work(bytes32,bytes)"
                    },
                    "errorInfo": "execution reverted",
                    "fromAddress": "0xcb4fadd1f51977372a2ac7f1bc1e16c3d0e3c969",
                    "gasUsed": 34510,
                    "id": 0,
                    "methodDecoded": true,
                    "operation": "CALL",
                    "output": "0xd58409f64d414b4552000000000000000000000000000000000000000000000000000000",
                    "revert": true,
                    "revertMessage": "NotMaster(network=0x4d414b4552000000000000000000000000000000000000000000000000000000)",
                    "selector": "0x1d2ab000",
                    "status": false,
                    "value": "0"
                },
                "nodeType": 0
            },
            "1": {
                "invocation": {
                    "address": "0x238b4e35daed6100c6162fae4510261f88996ec9",
                    "callData": "0x4d414b4552000000000000000000000000000000000000000000000000000000",
                    "decodedMethod": {
                        "callParams": [
                            {
                                "name": "network",
                                "type": "bytes32",
                                "value": "0x4d414b4552000000000000000000000000000000000000000000000000000000"
                            }
                        ],
                        "constructorArguments": "",
                        "name": "isMaster",
                        "returnParams": [
                            {
                                "name": "",
                                "type": "bool",
                                "value": false
                            }
                        ],
                        "signature": "isMaster(bytes32)"
                    },
                    "errorInfo": "",
                    "fromAddress": "0xc32506e9bb590971671b649d9b8e18cb6260559f",
                    "gasUsed": 9236,
                    "id": 1,
                    "methodDecoded": true,
                    "operation": "STATICCALL",
                    "output": "0x0000000000000000000000000000000000000000000000000000000000000000",
                    "revert": true,
                    "revertMessage": "",
                    "selector": "0x7c530f13",
                    "status": true,
                    "value": "0"
                },
                "nodeType": 0
            }
        },
        "gasFlame": [
            {
                "children": [
                    {
                        "children": [
                            {
                                "children": [],
                                "depth": 0,
                                "name": "Initial Gas",
                                "value": 21900
                            },
                            {
                                "children": [
                                    {
                                        "children": [],
                                        "depth": 1,
                                        "name": "isMaster",
                                        "value": 9236
                                    }
                                ],
                                "depth": 0,
                                "name": "Executed Gas",
                                "value": 12610
                            }
                        ],
                        "depth": -1,
                        "name": "Actual Gas Used",
                        "value": 34510
                    },
                    {
                        "children": [],
                        "depth": -1,
                        "name": "Refunded Gas",
                        "value": 0
                    }
                ],
                "depth": -2,
                "name": "Total Gas",
                "value": 34510
            }
        ],
        "isConfirmed": true,
        "mainTrace": [
            {
                "children": [
                    {
                        "children": [
                            {
                                "children": [],
                                "depth": 1,
                                "id": 1,
                                "order": 1
                            }
                        ],
                        "depth": 0,
                        "id": 0,
                        "order": 0
                    }
                ],
                "depth": -1,
                "id": -1,
                "order": -1
            }
        ],
        "mainTraceNodeCount": 2,
        "parentIdMap": {
            "0": -1,
            "1": 0
        },
        "tidyTrace": [
            {
                "children": [
                    {
                        "children": [],
                        "depth": 0,
                        "id": 0,
                        "order": 0
                    }
                ],
                "depth": -1,
                "id": -1,
                "order": -1
            }
        ],
        "tidyTraceNodeCount": 1
    },
    "state_change": {
        "stateChanges": []
    }
}