{
    "balance_change": {
        "balanceChanges": []
    },
    "profile": {
        "basic_info": {
            "baseFee": "",
            "blockNumber": 12065894,
            "callData": "0x202ee0ed0000000000000000000000000000000000000000000000000000000000005ff800000000000000000000000000000000000000000000000000000028e6d535b7",
            "debugEnable": true,
            "errorInfo": "",
            "eventCount": 2,
            "feeRecipient": "0x52bc44d5378309ee2abf1539bf71de1b7d7be3b5",
            "formatValue": "0",
            "gasLimit": 500000,
            "gasPrice": "175",
            "gasUsed": 82903,
            "intTxnCount": 0,
            "internalRevert": false,
            "internalRevertMessage": "",
            "isContractCreation": false,
            "isFlashloan": false,
            "maxFee": "",
            "nonce": 195896,
            "overwritedBlockNumber": -1,
            "priorityFee": "",
            "receiver": "0x00c7a37b03690fb9f41b5c5af8131735c7275446",
            "revertMessage": "",
            "sender": "0xa14ebb5909fba95a9305cbcaa6ea069733fcd443",
            "simulationEnable": true,
            "sourceTxnHash": "0x920ce3eecfd2f4efd5e4b1af5f936ae889ee48958f7e135ec6d119f0d2a9e759",
            "status": true,
            "timestamp": "2021-03-19T00:19:55Z",
            "transactionFee": "0.014508025",
            "txnHash": "0x920ce3eecfd2f4efd5e4b1af5f936ae889ee48958f7e135ec6d119f0d2a9e759",
            "txnIndex": 131,
            "type": 0,
            "value": "0"
        },
        "fund_flow": [],
        "token_infos": [
            {
                "address": "0xc02aaa39b223fe8d0a0e5c4f27ead9083c756cc2",
                "decimals": 18
            },
            {
                "address": "0xeeeeeeeeeeeeeeeeeeeeeeeeeeeeeeeeeeeeeeee",
                "decimals": 18
            }
        ]
    },
    "address_label": {
        "labels": [
            {
                "address": "0xeeeeeeeeeeeeeeeeeeeeeeeeeeeeeeeeeeeeeeee",
                "label": "Ether"
            },
            {
                "address": "0x00c7a37b03690fb9f41b5c5af8131735c7275446",
                "label": "Chainlink: Old ETH/USD FM A. Price Feed"
            },
            {
                "address": "0x0000000000000000000000000000000000000001",
                "label": "Precompiled"
            },
            {
                "address": "0x0000000000000000000000000000000000000002",
                "label": "Precompiled"
            },
            {
                "address": "0x0000000000000000000000000000000000000003",
                "label": "Precompiled"
            },
            {
                "address": "0x0000000000000000000000000000000000000004",
                "label": "Precompiled"
            }
        ]
    },
    "trace": {
        "accountLabels": null,
        "dataMap": {
            "-1": {
                "invocation": {
                    "address": "0xa14ebb5909fba95a9305cbcaa6ea069733fcd443",
                    "callData": "",
                    "decodedMethod": null,
                    "errorInfo": "",
                    "fromAddress": "",
                    "gasUsed": 0,
                    "id": -1,
                    "methodDecoded": false,
                    "operation": "",
                    "output": "",
                    "revert": false,
                    "revertMessage": "",
                    "selector": "",
                    "status": false,
                    "value": ""
                },
                "nodeType": 0
            },
            "0": {
                "invocation": {
                    "address": "0x00c7a37b03690fb9f41b5c5af8131735c7275446",
                    "callData": "0x0000000000000000000000000000000000000000000000000000000000005ff800000000000000000000000000000000000000000000000000000028e6d535b7",
                    "decodedMethod": {
                        "callParams": [
                            {
                                "name": "_roundId",
                                "type": "uint256",
                                "value": "24,568"
                            },
                            {
                                "name": "_submission",
                                "type": "int256",
                                "value": "175,671,424,439"
                            }
                        ],
                        "constructorArguments": "",
                        "name": "submit",
                        "returnParams": [],
                        "signature": "submit(uint256,int256)"
                    },
                    "errorInfo": "",
                    "fromAddress": "0xa14ebb5909fba95a9305cbcaa6ea069733fcd443",
                    "gasUsed": 82903,
                    "id": 0,
                    "methodDecoded": true,
                    "operation": "CALL",
                    "output": "",
                    "revert": false,
                    "revertMessage": "",
                    "selector": "0x202ee0ed",
                    "status": true,
                    "value": "0"
                },
                "nodeType": 0
            },
            "1": {
                "event": {
                    "contract": "0x00c7a37b03690fb9f41b5c5af8131735c7275446",
                    "decodedLog": {
                        "name": "SubmissionReceived",
                        "params": [
                            {
                                "name": "submission",
                                "type": "int256",
                                "value": "175,671,424,439"
                            },
                            {
                                "name": "round",
                                "type": "uint32",
                                "value": "24,568"
                            },
                            {
                                "name": "oracle",
                                "type": "address",
                                "value": "0xa14ebb5909fba95a9305cbcaa6ea069733fcd443"
                            }
                        ],
                        "signature": "SubmissionReceived(int256,uint32,address)"
                    },
                    "id": 1,
                    "logData": "0x",
                    "logDecoded": true,
                    "operation": "EVENT",
                    "revert": false,
                    "status": true,
                    "topics": [
                        "0x92e98423f8adac6e64d0608e519fd1cefb861498385c6dee70d58fc926ddc68c",
                        "0x00000000000000000000000000000000000000000000000000000028e6d535b7",
                        "0x0000000000000000000000000000000000000000000000000000000000005ff8",
                        "0x000000000000000000000000a14ebb5909fba95a9305cbcaa6ea069733fcd443"
                    ]
                },
                "nodeType": 1
            },
            "2": {
                "event": {
                    "contract": "0x00c7a37b03690fb9f41b5c5af8131735c7275446",
                    "decodedLog": {
                        "name": "AvailableFundsUpdated",
                        "params": [
                            {
                                "name": "amount",
                                "type": "uint256",
                                "value": "60,439,750,000,000,000,000,000"
                            }
                        ],
                        "signature": "AvailableFundsUpdated(uint256)"
                    },
                    "id": 2,
                    "logData": "0x",
                    "logDecoded": true,
                    "operation": "EVENT",
                    "revert": false,
                    "status": true,
                    "topics": [
                        "0xfe25c73e3b9089fac37d55c4c7efcba6f04af04cebd2fc4d6d7dbb07e1e5234f",
                        "0x000000000000000000000000000000000000000000000ccc7206917af7870000"
                    ]
                },
                "nodeType": 1
            }
        },
        "gasFlame": [
            {
                "children": [
                    {
                        "children": [
                            {
                                "children": [],
                                "depth": 0,
                                "name": "Initial Gas",
                                "value": 21404
                            },
                            {
                                "children": [],
                                "depth": 0,
                                "name": "Executed Gas",
                                "value": 61499
                            }
                        ],
                        "depth": -1,
                        "name": "Actual Gas Used",
                        "value": 82903
                    },
                    {
                        "children": [],
                        "depth": -1,
                        "name": "Refunded Gas",
                        "value": 0
                    }
                ],
                "depth": -2,
                "name": "Total Gas",
                "value": 82903
            }
        ],
        "isConfirmed": true,
        "mainTrace": [
            {
                "children": [
                    {
                        "children": [
                            {
                                "children": [],
                                "depth": 1,
                                "id": 1,
                                "order": 1
                            },
                            {
                                "children": [],
                                "depth": 1,
                                "id": 2,
                                "order": 2
                            }
                        ],
                        "depth": 0,
                        "id": 0,
                        "order": 0
                    }
                ],
                "depth": -1,
                "id": -1,
                "order": -1
            }
        ],
        "mainTraceNodeCount": 3,
        "parentIdMap": {
            "0": -1,
            "1": 0,
            "2": 0
        },
        "tidyTrace": [
            {
                "children": [
                    {
                        "children": [
                            {
                                "children": [],
                                "depth": 1,
                                "id": 1,
                                "order": 1
                            },
                            {
                                "children": [],
                                "depth": 1,
                                "id": 2,
                                "order": 2
                            }
                        ],
                        "depth": 0,
                        "id": 0,
                        "order": 0
                    }
                ],
                "depth": -1,
                "id": -1,
                "order": -1
            }
        ],
        "tidyTraceNodeCount": 3
    },
    "state_change": {
        "stateChanges": [
            {
                "address": "0x00c7a37b03690fb9f41b5c5af8131735c7275446",
                "erc": "",
                "slots": [
                    {
                        "current": "0x00005fe600005ff8ffffffff00000001000000000000000da41157ce9f8b0000",
                        "key": "0x817dc495d1c0f870dd8750ad39091600fd2b30a6e96be87a37901049f6123610",
                        "prev": "0x00005fe600005ff7ffffffff00000001000000000000000d972951bc066e0000"
                    },
                    {
                        "current": "0x00000000000000000000000000000000000000000000000000000028e6d535b7",
                        "key": "0x817dc495d1c0f870dd8750ad39091600fd2b30a6e96be87a37901049f6123611",
                        "prev": "0x00000000000000000000000000000000000000000000000000000028fc6cd2fd"
                    },
                    {
                        "current": "0x0000000000000451a9a673dbc9ed1e300000000000000ccc7206917af7870000",
                        "key": "0x000000000000000000000000000000000000000000000000000000000000000d",
                        "prev": "0x00000000000004519cbe6dc930d01e300000000000000ccc7eee978d90a40000"
                    },
                    {
                        "current": "0x0000000000000000000000000000000000000000000000000000000000000007",
                        "key": "0xd19ad308aee9b36b6c8f550310658a4b2a36a7750f2b48dc3f1a7c2884d77f75",
                        "prev": "0x0000000000000000000000000000000000000000000000000000000000000006"
                    },
                    {
                        "current": "0x00000000000000000000000000000000000000000000000000000028e6d535b7",
                        "key": "0x0c1b530a386a76177be4acb77a572561ab387504db11e29f61a91170aacc86a1",
                        "prev": "0x0000000000000000000000000000000000000000000000000000000000000000"
                    }
                ],
                "storageVariables": [
                    {
                        "name": "oracles",
                        "type": "mapping(address => struct FluxAggregator.OracleStatus)",
                        "value": {
                            "pairs": [
                                {
                                    "key": "0xa14ebb5909fba95a9305cbcaa6ea069733fcd443",
                                    "value": {
                                        "fields": [
                                            {
                                                "name": "withdrawable",
                                                "type": "uint128",
                                                "value": {
                                                    "current": "251630000000000000000",
                                                    "prev": "250700000000000000000",
                                                    "typeTag": 1
                                                }
                                            },
                                            {
                                                "name": "startingRound",
                                                "type": "uint32",
                                                "value": {
                                                    "current": "1",
                                                    "prev": "1",
                                                    "typeTag": 1
                                                }
                                            },
                                            {
                                                "name": "endingRound",
                                                "type": "uint32",
                                                "value": {
                                                    "current": "4294967295",
                                                    "prev": "4294967295",
                                                    "typeTag": 1
                                                }
                                            },
                                            {
                                                "name": "lastReportedRound",
                                                "type": "uint32",
                                                "value": {
                                                    "current": "24568",
                                                    "prev": "24567",
                                                    "typeTag": 1
                                                }
                                            },
                                            {
                                                "name": "lastStartedRound",
                                                "type": "uint32",
                                                "value": {
                                                    "current": "24550",
                                                    "prev": "24550",
                                                    "typeTag": 1
                                                }
                                            },
                                            {
                                                "name": "latestSubmission",
                                                "type": "int256",
                                                "value": {
                                                    "current": "175671424439",
                                                    "prev": "176033682173",
                                                    "typeTag": 1
                                                }
                                            }
                                        ],
                                        "typeTag": 3
                                    }
                                }
                            ],
                            "typeTag": 4
                        }
                    },
                    {
                        "name": "recordedFunds",
                        "type": "struct FluxAggregator.Funds",
                        "value": {
                            "fields": [
                                {
                                    "name": "available",
                                    "type": "uint128",
                                    "value": {
                                        "current": "60439750000000000000000",
                                        "prev": "60440680000000000000000",
                                        "typeTag": 1
                                    }
                                },
                                {
                                    "name": "allocated",
                                    "type": "uint128",
                                    "value": {
                                        "current": "20395876787075421118000",
                                        "prev": "20394946787075421118000",
                                        "typeTag": 1
                                    }
                                }
                            ],
                            "typeTag": 3
                        }
                    },
                    {
                        "name": "details",
                        "type": "mapping(uint32 => struct FluxAggregator.RoundDetails)",
                        "value": {
                            "pairs": [
                                {
                                    "key": "24568",
                                    "value": {
                                        "fields": [
                                            {
                                                "name": "submissions",
                                                "type": "int256[]",
                                                "value": {
                                                    "elemType": "int256",
                                                    "elems": [
                                                        {
                                                            "index": 6,
                                                            "value": {
                                                                "current": "175671424439",
                                                                "prev": "0",
                                                                "typeTag": 1
                                                            }
                                                        }
                                                    ],
                                                    "typeTag": 2
                                                }
                                            }
                                        ],
                                        "typeTag": 3
                                    }
                                }
                            ],
                            "typeTag": 4
                        }
                    }
                ]
            }
        ]
    }
}