{
    "balance_change": {
        "balanceChanges": [
            {
                "account": "0x87f14261163e9149726230fd644c31523e983d9d",
                "assets": [
                    {
                        "address": "0xda9c03dfd4d137f926c3cf6953cb951832eb08b2",
                        "amount": "19,154",
                        "iconUrl": "",
                        "isERC1155": false,
                        "isERC721": false,
                        "sign": false,
                        "value": ""
                    }
                ]
            },
            {
                "account": "0x0000000000000000000000000000000000000000",
                "assets": [
                    {
                        "address": "0xda9c03dfd4d137f926c3cf6953cb951832eb08b2",
                        "amount": "79,296",
                        "iconUrl": "",
                        "isERC1155": false,
                        "isERC721": false,
                        "sign": true,
                        "value": ""
                    }
                ]
            },
            {
                "account": "0xda9c03dfd4d137f926c3cf6953cb951832eb08b2",
                "assets": [
                    {
                        "address": "0xda9c03dfd4d137f926c3cf6953cb951832eb08b2",
                        "amount": "60,142",
                        "iconUrl": "",
                        "isERC1155": false,
                        "isERC721": false,
                        "sign": false,
                        "value": ""
                    }
                ]
            }
        ]
    },
    "profile": {
        "basic_info": {
            "baseFee": "",
            "blockNumber": 5738420,
            "callData": "0x976f37fd0000000000000000000000000000000000000000000000000000000000009a860000000000000000000000000000000000000000000000000000000000009b3a",
            "debugEnable": true,
            "errorInfo": "",
            "eventCount": 7,
            "feeRecipient": "0xea674fdde714fd979de3edf0f56aa9716b898ec8",
            "formatValue": "0",
            "gasLimit": 420000,
            "gasPrice": "5",
            "gasUsed": 176008,
            "intTxnCount": 12,
            "internalRevert": false,
            "internalRevertMessage": "",
            "isContractCreation": false,
            "isFlashloan": false,
            "maxFee": "",
            "nonce": 1400,
            "overwritedBlockNumber": -1,
            "priorityFee": "",
            "receiver": "0xbe8115cdf67fcbbca3efb2a9ff18bb98eac2308f",
            "revertMessage": "",
            "sender": "0x87f14261163e9149726230fd644c31523e983d9d",
            "simulationEnable": true,
            "sourceTxnHash": "0x922f47510ed2350e7c707f3432e3c7be45e9bf73f6d5734796a791f83e17f1d7",
            "status": true,
            "timestamp": "2018-06-05T21:12:36Z",
            "transactionFee": "0.00088004",
            "txnHash": "0x922f47510ed2350e7c707f3432e3c7be45e9bf73f6d5734796a791f83e17f1d7",
            "txnIndex": 11,
            "type": 0,
            "value": "0"
        },
        "fund_flow": [
            {
                "amount": "79,296",
                "from": "0x87f14261163e9149726230fd644c31523e983d9d",
                "id": 1,
                "isERC1155": false,
                "isERC721": false,
                "isReverted": false,
                "order": 1,
                "to": "0x0000000000000000000000000000000000000000",
                "token": "0xda9c03dfd4d137f926c3cf6953cb951832eb08b2"
            },
            {
                "amount": "60,142",
                "from": "0xda9c03dfd4d137f926c3cf6953cb951832eb08b2",
                "id": 2,
                "isERC1155": false,
                "isERC721": false,
                "isReverted": false,
                "order": 2,
                "to": "0x87f14261163e9149726230fd644c31523e983d9d",
                "token": "0xda9c03dfd4d137f926c3cf6953cb951832eb08b2"
            }
        ],
        "token_infos": [
            {
                "address": "0xc02aaa39b223fe8d0a0e5c4f27ead9083c756cc2",
                "decimals": 18
            },
            {
                "address": "0xda9c03dfd4d137f926c3cf6953cb951832eb08b2",
                "decimals": -1
            },
            {
                "address": "0xeeeeeeeeeeeeeeeeeeeeeeeeeeeeeeeeeeeeeeee",
                "decimals": 18
            }
        ]
    },
    "address_label": {
        "labels": [
            {
                "address": "0xeae08961bf8bfe92879b1455c96893e313c8d858",
                "label": "ActionAuction"
            },
            {
                "address": "0x405207beb564422f44e90bf1966dadb447c65081",
                "label": "DataAuction"
            },
            {
                "address": "0x0000000000000000000000000000000000000001",
                "label": "Precompiled"
            },
            {
                "address": "0x0000000000000000000000000000000000000002",
                "label": "Precompiled"
            },
            {
                "address": "0x0000000000000000000000000000000000000003",
                "label": "Precompiled"
            },
            {
                "address": "0xbe8115cdf67fcbbca3efb2a9ff18bb98eac2308f",
                "label": "ActionCompose"
            },
            {
                "address": "0xda9c03dfd4d137f926c3cf6953cb951832eb08b2",
                "label": "WAR"
            },
            {
                "address": "0x07f98e3eb47e6873fa7b85b5b8f088bb2b2e94a3",
                "label": "ActionAuctionPlat"
            },
            {
                "address": "0x4209f9bbb4e4dd48dbd84701fcaaab1d492b5a05",
                "label": "DataEquip"
            },
            {
                "address": "0x0000000000000000000000000000000000000004",
                "label": "Precompiled"
            },
            {
                "address": "0xeeeeeeeeeeeeeeeeeeeeeeeeeeeeeeeeeeeeeeee",
                "label": "Ether"
            }
        ]
    },
    "trace": {
        "accountLabels": null,
        "dataMap": {
            "-1": {
                "invocation": {
                    "address": "0x87f14261163e9149726230fd644c31523e983d9d",
                    "callData": "",
                    "decodedMethod": null,
                    "errorInfo": "",
                    "fromAddress": "",
                    "gasUsed": 0,
                    "id": -1,
                    "methodDecoded": false,
                    "operation": "",
                    "output": "",
                    "revert": false,
                    "revertMessage": "",
                    "selector": "",
                    "status": false,
                    "value": ""
                },
                "nodeType": 0
            },
            "0": {
                "invocation": {
                    "address": "0xbe8115cdf67fcbbca3efb2a9ff18bb98eac2308f",
                    "callData": "0x0000000000000000000000000000000000000000000000000000000000009a860000000000000000000000000000000000000000000000000000000000009b3a",
                    "decodedMethod": {
                        "callParams": [
                            {
                                "name": "token1",
                                "type": "uint256",
                                "value": "39,558"
                            },
                            {
                                "name": "token2",
                                "type": "uint256",
                                "value": "39,738"
                            }
                        ],
                        "constructorArguments": "",
                        "name": "lowCompose",
                        "returnParams": [],
                        "signature": "lowCompose(uint256,uint256)"
                    },
                    "errorInfo": "",
                    "fromAddress": "0x87f14261163e9149726230fd644c31523e983d9d",
                    "gasUsed": 176008,
                    "id": 0,
                    "methodDecoded": true,
                    "operation": "CALL",
                    "output": "",
                    "revert": false,
                    "revertMessage": "",
                    "selector": "0x976f37fd",
                    "status": true,
                    "value": "0"
                },
                "nodeType": 0
            },
            "1": {
                "invocation": {
                    "address": "0xda9c03dfd4d137f926c3cf6953cb951832eb08b2",
                    "callData": "0x0000000000000000000000000000000000000000000000000000000000009a86",
                    "decodedMethod": {
                        "callParams": [
                            {
                                "name": "_tokenId",
                                "type": "uint256",
                                "value": "39,558"
                            }
                        ],
                        "constructorArguments": "",
                        "name": "ownerOf",
                        "returnParams": [
                            {
                                "name": "owner",
                                "type": "address",
                                "value": "0x87f14261163e9149726230fd644c31523e983d9d"
                            }
                        ],
                        "signature": "ownerOf(uint256)"
                    },
                    "errorInfo": "",
                    "fromAddress": "0xbe8115cdf67fcbbca3efb2a9ff18bb98eac2308f",
                    "gasUsed": 906,
                    "id": 1,
                    "methodDecoded": true,
                    "operation": "CALL",
                    "output": "0x00000000000000000000000087f14261163e9149726230fd644c31523e983d9d",
                    "revert": false,
                    "revertMessage": "",
                    "selector": "0x6352211e",
                    "status": true,
                    "value": "0"
                },
                "nodeType": 0
            },
            "10": {
                "invocation": {
                    "address": "0xda9c03dfd4d137f926c3cf6953cb951832eb08b2",
                    "callData": "0x0000000000000000000000000000000000000000000000000000000000009a860000000000000000000000000000000000000000000000000000000000000001",
                    "decodedMethod": {
                        "callParams": [
                            {
                                "name": "_tokenId",
                                "type": "uint256",
                                "value": "39,558"
                            },
                            {
                                "name": "_deleteType",
                                "type": "uint16",
                                "value": "1"
                            }
                        ],
                        "constructorArguments": "",
                        "name": "destroyFashion",
                        "returnParams": [],
                        "signature": "destroyFashion(uint256,uint16)"
                    },
                    "errorInfo": "",
                    "fromAddress": "0xbe8115cdf67fcbbca3efb2a9ff18bb98eac2308f",
                    "gasUsed": 43715,
                    "id": 10,
                    "methodDecoded": true,
                    "operation": "CALL",
                    "output": "",
                    "revert": false,
                    "revertMessage": "",
                    "selector": "0x0378f83f",
                    "status": true,
                    "value": "0"
                },
                "nodeType": 0
            },
            "11": {
                "event": {
                    "contract": "0xda9c03dfd4d137f926c3cf6953cb951832eb08b2",
                    "decodedLog": {
                        "name": "Transfer",
                        "params": [
                            {
                                "name": "from",
                                "type": "address",
                                "value": "0x87f14261163e9149726230fd644c31523e983d9d"
                            },
                            {
                                "name": "to",
                                "type": "address",
                                "value": "0x0000000000000000000000000000000000000000"
                            },
                            {
                                "decimalAvailable": true,
                                "name": "tokenId",
                                "type": "uint256",
                                "value": "39,558"
                            }
                        ],
                        "signature": "Transfer(address,address,uint256)"
                    },
                    "id": 11,
                    "logData": "0x0000000000000000000000000000000000000000000000000000000000009a86",
                    "logDecoded": true,
                    "operation": "EVENT",
                    "revert": false,
                    "status": true,
                    "topics": [
                        "0xddf252ad1be2c89b69c2b068fc378daa952ba7f163c4a11628f55a4df523b3ef",
                        "0x00000000000000000000000087f14261163e9149726230fd644c31523e983d9d",
                        "0x0000000000000000000000000000000000000000000000000000000000000000"
                    ]
                },
                "nodeType": 1
            },
            "12": {
                "event": {
                    "contract": "0xda9c03dfd4d137f926c3cf6953cb951832eb08b2",
                    "decodedLog": {
                        "name": "DeleteFashion",
                        "params": [
                            {
                                "name": "owner",
                                "type": "address",
                                "value": "0x87f14261163e9149726230fd644c31523e983d9d"
                            },
                            {
                                "name": "tokenId",
                                "type": "uint256",
                                "value": "39,558"
                            },
                            {
                                "name": "deleteType",
                                "type": "uint16",
                                "value": "1"
                            }
                        ],
                        "signature": "DeleteFashion(address,uint256,uint16)"
                    },
                    "id": 12,
                    "logData": "0x0000000000000000000000000000000000000000000000000000000000009a860000000000000000000000000000000000000000000000000000000000000001",
                    "logDecoded": true,
                    "operation": "EVENT",
                    "revert": false,
                    "status": true,
                    "topics": [
                        "0x731c886bc6fd1e9c7249159422a4e267e6babaa0543d8aa9c085d1d0ce896611",
                        "0x00000000000000000000000087f14261163e9149726230fd644c31523e983d9d"
                    ]
                },
                "nodeType": 1
            },
            "13": {
                "invocation": {
                    "address": "0xda9c03dfd4d137f926c3cf6953cb951832eb08b2",
                    "callData": "0x0000000000000000000000000000000000000000000000000000000000009b3a0000000000000000000000000000000000000000000000000000000000000001",
                    "decodedMethod": {
                        "callParams": [
                            {
                                "name": "_tokenId",
                                "type": "uint256",
                                "value": "39,738"
                            },
                            {
                                "name": "_deleteType",
                                "type": "uint16",
                                "value": "1"
                            }
                        ],
                        "constructorArguments": "",
                        "name": "destroyFashion",
                        "returnParams": [],
                        "signature": "destroyFashion(uint256,uint16)"
                    },
                    "errorInfo": "",
                    "fromAddress": "0xbe8115cdf67fcbbca3efb2a9ff18bb98eac2308f",
                    "gasUsed": 43715,
                    "id": 13,
                    "methodDecoded": true,
                    "operation": "CALL",
                    "output": "",
                    "revert": false,
                    "revertMessage": "",
                    "selector": "0x0378f83f",
                    "status": true,
                    "value": "0"
                },
                "nodeType": 0
            },
            "14": {
                "event": {
                    "contract": "0xda9c03dfd4d137f926c3cf6953cb951832eb08b2",
                    "decodedLog": {
                        "name": "Transfer",
                        "params": [
                            {
                                "name": "from",
                                "type": "address",
                                "value": "0x87f14261163e9149726230fd644c31523e983d9d"
                            },
                            {
                                "name": "to",
                                "type": "address",
                                "value": "0x0000000000000000000000000000000000000000"
                            },
                            {
                                "decimalAvailable": true,
                                "name": "tokenId",
                                "type": "uint256",
                                "value": "39,738"
                            }
                        ],
                        "signature": "Transfer(address,address,uint256)"
                    },
                    "id": 14,
                    "logData": "0x0000000000000000000000000000000000000000000000000000000000009b3a",
                    "logDecoded": true,
                    "operation": "EVENT",
                    "revert": false,
                    "status": true,
                    "topics": [
                        "0xddf252ad1be2c89b69c2b068fc378daa952ba7f163c4a11628f55a4df523b3ef",
                        "0x00000000000000000000000087f14261163e9149726230fd644c31523e983d9d",
                        "0x0000000000000000000000000000000000000000000000000000000000000000"
                    ]
                },
                "nodeType": 1
            },
            "15": {
                "event": {
                    "contract": "0xda9c03dfd4d137f926c3cf6953cb951832eb08b2",
                    "decodedLog": {
                        "name": "DeleteFashion",
                        "params": [
                            {
                                "name": "owner",
                                "type": "address",
                                "value": "0x87f14261163e9149726230fd644c31523e983d9d"
                            },
                            {
                                "name": "tokenId",
                                "type": "uint256",
                                "value": "39,738"
                            },
                            {
                                "name": "deleteType",
                                "type": "uint16",
                                "value": "1"
                            }
                        ],
                        "signature": "DeleteFashion(address,uint256,uint16)"
                    },
                    "id": 15,
                    "logData": "0x0000000000000000000000000000000000000000000000000000000000009b3a0000000000000000000000000000000000000000000000000000000000000001",
                    "logDecoded": true,
                    "operation": "EVENT",
                    "revert": false,
                    "status": true,
                    "topics": [
                        "0x731c886bc6fd1e9c7249159422a4e267e6babaa0543d8aa9c085d1d0ce896611",
                        "0x00000000000000000000000087f14261163e9149726230fd644c31523e983d9d"
                    ]
                },
                "nodeType": 1
            },
            "16": {
                "invocation": {
                    "address": "0xda9c03dfd4d137f926c3cf6953cb951832eb08b2",
                    "callData": "0x00000000000000000000000087f14261163e9149726230fd644c31523e983d9d00000000000000000000000000000000000000000000000000000000000000030000000000000000000000000000000000000000000000000000000000000002000000000000000000000000000000000000000000000000000000000000000300000000000000000000000000000000000000000000000000000000000004a4000000000000000000000000000000000000000000000000000000000000000000000000000000000000000000000000000000000000000000000000000000000000000000000000000000000000000000000000000000000000000000000000000000000000000000000000000000000000000000000000000000000000000000000000000000000000000000000000000000000000000000000000000000000000000000000000000000000000000000000000000000000000000000000003",
                    "decodedMethod": {
                        "callParams": [
                            {
                                "name": "_owner",
                                "type": "address",
                                "value": "0x87f14261163e9149726230fd644c31523e983d9d"
                            },
                            {
                                "name": "_attrs",
                                "type": "uint16[9]",
                                "value": [
                                    "3",
                                    "2",
                                    "3",
                                    "1,188",
                                    "0",
                                    "0",
                                    "0",
                                    "0",
                                    "0"
                                ]
                            },
                            {
                                "name": "_createType",
                                "type": "uint16",
                                "value": "3"
                            }
                        ],
                        "constructorArguments": "",
                        "name": "createFashion",
                        "returnParams": [
                            {
                                "name": "",
                                "type": "uint256",
                                "value": "60,142"
                            }
                        ],
                        "signature": "createFashion(address,uint16[9],uint16)"
                    },
                    "errorInfo": "",
                    "fromAddress": "0xbe8115cdf67fcbbca3efb2a9ff18bb98eac2308f",
                    "gasUsed": 104727,
                    "id": 16,
                    "methodDecoded": true,
                    "operation": "CALL",
                    "output": "0x000000000000000000000000000000000000000000000000000000000000eaee",
                    "revert": false,
                    "revertMessage": "",
                    "selector": "0x9cc477b2",
                    "status": true,
                    "value": "0"
                },
                "nodeType": 0
            },
            "17": {
                "event": {
                    "contract": "0xda9c03dfd4d137f926c3cf6953cb951832eb08b2",
                    "decodedLog": {
                        "name": "Transfer",
                        "params": [
                            {
                                "name": "from",
                                "type": "address",
                                "value": "0xda9c03dfd4d137f926c3cf6953cb951832eb08b2"
                            },
                            {
                                "name": "to",
                                "type": "address",
                                "value": "0x87f14261163e9149726230fd644c31523e983d9d"
                            },
                            {
                                "decimalAvailable": true,
                                "name": "tokenId",
                                "type": "uint256",
                                "value": "60,142"
                            }
                        ],
                        "signature": "Transfer(address,address,uint256)"
                    },
                    "id": 17,
                    "logData": "0x000000000000000000000000000000000000000000000000000000000000eaee",
                    "logDecoded": true,
                    "operation": "EVENT",
                    "revert": false,
                    "status": true,
                    "topics": [
                        "0xddf252ad1be2c89b69c2b068fc378daa952ba7f163c4a11628f55a4df523b3ef",
                        "0x000000000000000000000000da9c03dfd4d137f926c3cf6953cb951832eb08b2",
                        "0x00000000000000000000000087f14261163e9149726230fd644c31523e983d9d"
                    ]
                },
                "nodeType": 1
            },
            "18": {
                "event": {
                    "contract": "0xda9c03dfd4d137f926c3cf6953cb951832eb08b2",
                    "decodedLog": {
                        "name": "CreateFashion",
                        "params": [
                            {
                                "name": "owner",
                                "type": "address",
                                "value": "0x87f14261163e9149726230fd644c31523e983d9d"
                            },
                            {
                                "name": "tokenId",
                                "type": "uint256",
                                "value": "60,142"
                            },
                            {
                                "name": "protoId",
                                "type": "uint16",
                                "value": "3"
                            },
                            {
                                "name": "quality",
                                "type": "uint16",
                                "value": "2"
                            },
                            {
                                "name": "pos",
                                "type": "uint16",
                                "value": "3"
                            },
                            {
                                "name": "createType",
                                "type": "uint16",
                                "value": "3"
                            }
                        ],
                        "signature": "CreateFashion(address,uint256,uint16,uint16,uint16,uint16)"
                    },
                    "id": 18,
                    "logData": "0x000000000000000000000000000000000000000000000000000000000000eaee0000000000000000000000000000000000000000000000000000000000000003000000000000000000000000000000000000000000000000000000000000000200000000000000000000000000000000000000000000000000000000000000030000000000000000000000000000000000000000000000000000000000000003",
                    "logDecoded": true,
                    "operation": "EVENT",
                    "revert": false,
                    "status": true,
                    "topics": [
                        "0x8ded42b67fd3601c2cdbeb4fcb9a03da61bfd15fedc18f2908c4fe93305ed742",
                        "0x00000000000000000000000087f14261163e9149726230fd644c31523e983d9d"
                    ]
                },
                "nodeType": 1
            },
            "19": {
                "event": {
                    "contract": "0xbe8115cdf67fcbbca3efb2a9ff18bb98eac2308f",
                    "decodedLog": {
                        "name": "ComposeSuccess",
                        "params": [
                            {
                                "name": "owner",
                                "type": "address",
                                "value": "0x87f14261163e9149726230fd644c31523e983d9d"
                            },
                            {
                                "name": "tokenId",
                                "type": "uint256",
                                "value": "60,142"
                            },
                            {
                                "name": "protoId",
                                "type": "uint16",
                                "value": "3"
                            },
                            {
                                "name": "quality",
                                "type": "uint16",
                                "value": "2"
                            },
                            {
                                "name": "pos",
                                "type": "uint16",
                                "value": "3"
                            }
                        ],
                        "signature": "ComposeSuccess(address,uint256,uint16,uint16,uint16)"
                    },
                    "id": 19,
                    "logData": "0x000000000000000000000000000000000000000000000000000000000000eaee000000000000000000000000000000000000000000000000000000000000000300000000000000000000000000000000000000000000000000000000000000020000000000000000000000000000000000000000000000000000000000000003",
                    "logDecoded": true,
                    "operation": "EVENT",
                    "revert": false,
                    "status": true,
                    "topics": [
                        "0xb8f93b6ee7a79dc8fb386209ef989a56e4f51f5735e63135fbbdf10c6e15383c",
                        "0x00000000000000000000000087f14261163e9149726230fd644c31523e983d9d"
                    ]
                },
                "nodeType": 1
            },
            "2": {
                "invocation": {
                    "address": "0xda9c03dfd4d137f926c3cf6953cb951832eb08b2",
                    "callData": "0x0000000000000000000000000000000000000000000000000000000000009b3a",
                    "decodedMethod": {
                        "callParams": [
                            {
                                "name": "_tokenId",
                                "type": "uint256",
                                "value": "39,738"
                            }
                        ],
                        "constructorArguments": "",
                        "name": "ownerOf",
                        "returnParams": [
                            {
                                "name": "owner",
                                "type": "address",
                                "value": "0x87f14261163e9149726230fd644c31523e983d9d"
                            }
                        ],
                        "signature": "ownerOf(uint256)"
                    },
                    "errorInfo": "",
                    "fromAddress": "0xbe8115cdf67fcbbca3efb2a9ff18bb98eac2308f",
                    "gasUsed": 906,
                    "id": 2,
                    "methodDecoded": true,
                    "operation": "CALL",
                    "output": "0x00000000000000000000000087f14261163e9149726230fd644c31523e983d9d",
                    "revert": false,
                    "revertMessage": "",
                    "selector": "0x6352211e",
                    "status": true,
                    "value": "0"
                },
                "nodeType": 0
            },
            "3": {
                "invocation": {
                    "address": "0x4209f9bbb4e4dd48dbd84701fcaaab1d492b5a05",
                    "callData": "0x00000000000000000000000087f14261163e9149726230fd644c31523e983d9d0000000000000000000000000000000000000000000000000000000000009a860000000000000000000000000000000000000000000000000000000000009b3a",
                    "decodedMethod": {
                        "callParams": [
                            {
                                "name": "_target",
                                "type": "address",
                                "value": "0x87f14261163e9149726230fd644c31523e983d9d"
                            },
                            {
                                "name": "_tokenId1",
                                "type": "uint256",
                                "value": "39,558"
                            },
                            {
                                "name": "_tokenId2",
                                "type": "uint256",
                                "value": "39,738"
                            }
                        ],
                        "constructorArguments": "",
                        "name": "isEquipedAny2",
                        "returnParams": [
                            {
                                "name": "",
                                "type": "bool",
                                "value": false
                            }
                        ],
                        "signature": "isEquipedAny2(address,uint256,uint256)"
                    },
                    "errorInfo": "",
                    "fromAddress": "0xbe8115cdf67fcbbca3efb2a9ff18bb98eac2308f",
                    "gasUsed": 3052,
                    "id": 3,
                    "methodDecoded": true,
                    "operation": "CALL",
                    "output": "0x0000000000000000000000000000000000000000000000000000000000000000",
                    "revert": false,
                    "revertMessage": "",
                    "selector": "0x48e06300",
                    "status": true,
                    "value": "0"
                },
                "nodeType": 0
            },
            "4": {
                "invocation": {
                    "address": "0x405207beb564422f44e90bf1966dadb447c65081",
                    "callData": "0x0000000000000000000000000000000000000000000000000000000000009a860000000000000000000000000000000000000000000000000000000000009b3a",
                    "decodedMethod": {
                        "callParams": [
                            {
                                "name": "_tokenId1",
                                "type": "uint256",
                                "value": "39,558"
                            },
                            {
                                "name": "_tokenId2",
                                "type": "uint256",
                                "value": "39,738"
                            }
                        ],
                        "constructorArguments": "",
                        "name": "isOnSaleAny2",
                        "returnParams": [
                            {
                                "name": "",
                                "type": "bool",
                                "value": false
                            }
                        ],
                        "signature": "isOnSaleAny2(uint256,uint256)"
                    },
                    "errorInfo": "",
                    "fromAddress": "0xbe8115cdf67fcbbca3efb2a9ff18bb98eac2308f",
                    "gasUsed": 7488,
                    "id": 4,
                    "methodDecoded": true,
                    "operation": "CALL",
                    "output": "0x0000000000000000000000000000000000000000000000000000000000000000",
                    "revert": false,
                    "revertMessage": "",
                    "selector": "0xa5c464b3",
                    "status": true,
                    "value": "0"
                },
                "nodeType": 0
            },
            "5": {
                "invocation": {
                    "address": "0xeae08961bf8bfe92879b1455c96893e313c8d858",
                    "callData": "0x0000000000000000000000000000000000000000000000000000000000009a860000000000000000000000000000000000000000000000000000000000009b3a",
                    "decodedMethod": {
                        "callParams": [
                            {
                                "name": "_tokenId1",
                                "type": "uint256",
                                "value": "39,558"
                            },
                            {
                                "name": "_tokenId2",
                                "type": "uint256",
                                "value": "39,738"
                            }
                        ],
                        "constructorArguments": "",
                        "name": "isOnSaleAny2",
                        "returnParams": [
                            {
                                "name": "",
                                "type": "bool",
                                "value": false
                            }
                        ],
                        "signature": "isOnSaleAny2(uint256,uint256)"
                    },
                    "errorInfo": "",
                    "fromAddress": "0x405207beb564422f44e90bf1966dadb447c65081",
                    "gasUsed": 1359,
                    "id": 5,
                    "methodDecoded": true,
                    "operation": "CALL",
                    "output": "0x0000000000000000000000000000000000000000000000000000000000000000",
                    "revert": false,
                    "revertMessage": "",
                    "selector": "0xa5c464b3",
                    "status": true,
                    "value": "0"
                },
                "nodeType": 0
            },
            "6": {
                "invocation": {
                    "address": "0x07f98e3eb47e6873fa7b85b5b8f088bb2b2e94a3",
                    "callData": "0x0000000000000000000000000000000000000000000000000000000000009a860000000000000000000000000000000000000000000000000000000000009b3a",
                    "decodedMethod": {
                        "callParams": [
                            {
                                "name": "_tokenId1",
                                "type": "uint256",
                                "value": "39,558"
                            },
                            {
                                "name": "_tokenId2",
                                "type": "uint256",
                                "value": "39,738"
                            }
                        ],
                        "constructorArguments": "",
                        "name": "isOnSaleAny2",
                        "returnParams": [
                            {
                                "name": "",
                                "type": "bool",
                                "value": false
                            }
                        ],
                        "signature": "isOnSaleAny2(uint256,uint256)"
                    },
                    "errorInfo": "",
                    "fromAddress": "0x405207beb564422f44e90bf1966dadb447c65081",
                    "gasUsed": 1271,
                    "id": 6,
                    "methodDecoded": true,
                    "operation": "CALL",
                    "output": "0x0000000000000000000000000000000000000000000000000000000000000000",
                    "revert": false,
                    "revertMessage": "",
                    "selector": "0xa5c464b3",
                    "status": true,
                    "value": "0"
                },
                "nodeType": 0
            },
            "7": {
                "invocation": {
                    "address": "0xda9c03dfd4d137f926c3cf6953cb951832eb08b2",
                    "callData": "0x0000000000000000000000000000000000000000000000000000000000009a86",
                    "decodedMethod": {
                        "callParams": [
                            {
                                "name": "_tokenId",
                                "type": "uint256",
                                "value": "39,558"
                            }
                        ],
                        "constructorArguments": "",
                        "name": "ownerOf",
                        "returnParams": [
                            {
                                "name": "owner",
                                "type": "address",
                                "value": "0x87f14261163e9149726230fd644c31523e983d9d"
                            }
                        ],
                        "signature": "ownerOf(uint256)"
                    },
                    "errorInfo": "",
                    "fromAddress": "0xbe8115cdf67fcbbca3efb2a9ff18bb98eac2308f",
                    "gasUsed": 906,
                    "id": 7,
                    "methodDecoded": true,
                    "operation": "CALL",
                    "output": "0x00000000000000000000000087f14261163e9149726230fd644c31523e983d9d",
                    "revert": false,
                    "revertMessage": "",
                    "selector": "0x6352211e",
                    "status": true,
                    "value": "0"
                },
                "nodeType": 0
            },
            "8": {
                "invocation": {
                    "address": "0xda9c03dfd4d137f926c3cf6953cb951832eb08b2",
                    "callData": "0x0000000000000000000000000000000000000000000000000000000000009a86",
                    "decodedMethod": {
                        "callParams": [
                            {
                                "name": "_tokenId",
                                "type": "uint256",
                                "value": "39,558"
                            }
                        ],
                        "constructorArguments": "",
                        "name": "getFashion",
                        "returnParams": [
                            {
                                "name": "datas",
                                "type": "uint16[12]",
                                "value": [
                                    "3",
                                    "1",
                                    "3",
                                    "660",
                                    "0",
                                    "0",
                                    "0",
                                    "0",
                                    "0",
                                    "0",
                                    "0",
                                    "0"
                                ]
                            }
                        ],
                        "signature": "getFashion(uint256)"
                    },
                    "errorInfo": "",
                    "fromAddress": "0xbe8115cdf67fcbbca3efb2a9ff18bb98eac2308f",
                    "gasUsed": 3561,
                    "id": 8,
                    "methodDecoded": true,
                    "operation": "CALL",
                    "output": "0x000000000000000000000000000000000000000000000000000000000000000300000000000000000000000000000000000000000000000000000000000000010000000000000000000000000000000000000000000000000000000000000003000000000000000000000000000000000000000000000000000000000000029400000000000000000000000000000000000000000000000000000000000000000000000000000000000000000000000000000000000000000000000000000000000000000000000000000000000000000000000000000000000000000000000000000000000000000000000000000000000000000000000000000000000000000000000000000000000000000000000000000000000000000000000000000000000000000000000000000000000000000000000000000000000000000000000000000000000000000000000000000000000000000000000000000000000000000000000000000000000000000000000000000000000000000000000000000000",
                    "revert": false,
                    "revertMessage": "",
                    "selector": "0x425189e0",
                    "status": true,
                    "value": "0"
                },
                "nodeType": 0
            },
            "9": {
                "invocation": {
                    "address": "0xda9c03dfd4d137f926c3cf6953cb951832eb08b2",
                    "callData": "0x0000000000000000000000000000000000000000000000000000000000009b3a",
                    "decodedMethod": {
                        "callParams": [
                            {
                                "name": "_tokenId",
                                "type": "uint256",
                                "value": "39,738"
                            }
                        ],
                        "constructorArguments": "",
                        "name": "getFashion",
                        "returnParams": [
                            {
                                "name": "datas",
                                "type": "uint16[12]",
                                "value": [
                                    "3",
                                    "1",
                                    "3",
                                    "660",
                                    "0",
                                    "0",
                                    "0",
                                    "0",
                                    "0",
                                    "0",
                                    "0",
                                    "0"
                                ]
                            }
                        ],
                        "signature": "getFashion(uint256)"
                    },
                    "errorInfo": "",
                    "fromAddress": "0xbe8115cdf67fcbbca3efb2a9ff18bb98eac2308f",
                    "gasUsed": 3561,
                    "id": 9,
                    "methodDecoded": true,
                    "operation": "CALL",
                    "output": "0x000000000000000000000000000000000000000000000000000000000000000300000000000000000000000000000000000000000000000000000000000000010000000000000000000000000000000000000000000000000000000000000003000000000000000000000000000000000000000000000000000000000000029400000000000000000000000000000000000000000000000000000000000000000000000000000000000000000000000000000000000000000000000000000000000000000000000000000000000000000000000000000000000000000000000000000000000000000000000000000000000000000000000000000000000000000000000000000000000000000000000000000000000000000000000000000000000000000000000000000000000000000000000000000000000000000000000000000000000000000000000000000000000000000000000000000000000000000000000000000000000000000000000000000000000000000000000000000000",
                    "revert": false,
                    "revertMessage": "",
                    "selector": "0x425189e0",
                    "status": true,
                    "value": "0"
                },
                "nodeType": 0
            }
        },
        "gasFlame": [
            {
                "children": [
                    {
                        "children": [
                            {
                                "children": [],
                                "depth": 0,
                                "name": "Initial Gas",
                                "value": 21784
                            },
                            {
                                "children": [
                                    {
                                        "children": [],
                                        "depth": 1,
                                        "name": "ownerOf",
                                        "value": 906
                                    },
                                    {
                                        "children": [],
                                        "depth": 1,
                                        "name": "ownerOf",
                                        "value": 906
                                    },
                                    {
                                        "children": [],
                                        "depth": 1,
                                        "name": "isEquipedAny2",
                                        "value": 3052
                                    },
                                    {
                                        "children": [
                                            {
                                                "children": [],
                                                "depth": 2,
                                                "name": "isOnSaleAny2",
                                                "value": 1359
                                            },
                                            {
                                                "children": [],
                                                "depth": 2,
                                                "name": "isOnSaleAny2",
                                                "value": 1271
                                            }
                                        ],
                                        "depth": 1,
                                        "name": "isOnSaleAny2",
                                        "value": 7488
                                    },
                                    {
                                        "children": [],
                                        "depth": 1,
                                        "name": "ownerOf",
                                        "value": 906
                                    },
                                    {
                                        "children": [],
                                        "depth": 1,
                                        "name": "getFashion",
                                        "value": 3561
                                    },
                                    {
                                        "children": [],
                                        "depth": 1,
                                        "name": "getFashion",
                                        "value": 3561
                                    },
                                    {
                                        "children": [],
                                        "depth": 1,
                                        "name": "destroyFashion",
                                        "value": 43715
                                    },
                                    {
                                        "children": [],
                                        "depth": 1,
                                        "name": "destroyFashion",
                                        "value": 43715
                                    },
                                    {
                                        "children": [],
                                        "depth": 1,
                                        "name": "createFashion",
                                        "value": 104727
                                    }
                                ],
                                "depth": 0,
                                "name": "Executed Gas",
                                "value": 244224
                            }
                        ],
                        "depth": -1,
                        "name": "Actual Gas Used",
                        "value": 176008
                    },
                    {
                        "children": [],
                        "depth": -1,
                        "name": "Refunded Gas",
                        "value": 90000
                    }
                ],
                "depth": -2,
                "name": "Total Gas",
                "value": 266008
            }
        ],
        "isConfirmed": true,
        "mainTrace": [
            {
                "children": [
                    {
                        "children": [
                            {
                                "children": [],
                                "depth": 1,
                                "id": 1,
                                "order": 1
                            },
                            {
                                "children": [],
                                "depth": 1,
                                "id": 2,
                                "order": 2
                            },
                            {
                                "children": [],
                                "depth": 1,
                                "id": 3,
                                "order": 3
                            },
                            {
                                "children": [
                                    {
                                        "children": [],
                                        "depth": 2,
                                        "id": 5,
                                        "order": 5
                                    },
                                    {
                                        "children": [],
                                        "depth": 2,
                                        "id": 6,
                                        "order": 6
                                    }
                                ],
                                "depth": 1,
                                "id": 4,
                                "order": 4
                            },
                            {
                                "children": [],
                                "depth": 1,
                                "id": 7,
                                "order": 7
                            },
                            {
                                "children": [],
                                "depth": 1,
                                "id": 8,
                                "order": 8
                            },
                            {
                                "children": [],
                                "depth": 1,
                                "id": 9,
                                "order": 9
                            },
                            {
                                "children": [
                                    {
                                        "children": [],
                                        "depth": 2,
                                        "id": 11,
                                        "order": 11
                                    },
                                    {
                                        "children": [],
                                        "depth": 2,
                                        "id": 12,
                                        "order": 12
                                    }
                                ],
                                "depth": 1,
                                "id": 10,
                                "order": 10
                            },
                            {
                                "children": [
                                    {
                                        "children": [],
                                        "depth": 2,
                                        "id": 14,
                                        "order": 14
                                    },
                                    {
                                        "children": [],
                                        "depth": 2,
                                        "id": 15,
                                        "order": 15
                                    }
                                ],
                                "depth": 1,
                                "id": 13,
                                "order": 13
                            },
                            {
                                "children": [
                                    {
                                        "children": [],
                                        "depth": 2,
                                        "id": 17,
                                        "order": 17
                                    },
                                    {
                                        "children": [],
                                        "depth": 2,
                                        "id": 18,
                                        "order": 18
                                    }
                                ],
                                "depth": 1,
                                "id": 16,
                                "order": 16
                            },
                            {
                                "children": [],
                                "depth": 1,
                                "id": 19,
                                "order": 19
                            }
                        ],
                        "depth": 0,
                        "id": 0,
                        "order": 0
                    }
                ],
                "depth": -1,
                "id": -1,
                "order": -1
            }
        ],
        "mainTraceNodeCount": 20,
        "parentIdMap": {
            "0": -1,
            "1": 0,
            "10": 0,
            "11": 10,
            "12": 10,
            "13": 0,
            "14": 13,
            "15": 13,
            "16": 0,
            "17": 16,
            "18": 16,
            "19": 0,
            "2": 0,
            "3": 0,
            "4": 0,
            "5": 4,
            "6": 4,
            "7": 0,
            "8": 0,
            "9": 0
        },
        "tidyTrace": [
            {
                "children": [
                    {
                        "children": [
                            {
                                "children": [],
                                "depth": 1,
                                "id": 1,
                                "order": 1
                            },
                            {
                                "children": [],
                                "depth": 1,
                                "id": 2,
                                "order": 2
                            },
                            {
                                "children": [],
                                "depth": 1,
                                "id": 3,
                                "order": 3
                            },
                            {
                                "children": [
                                    {
                                        "children": [],
                                        "depth": 2,
                                        "id": 5,
                                        "order": 5
                                    },
                                    {
                                        "children": [],
                                        "depth": 2,
                                        "id": 6,
                                        "order": 6
                                    }
                                ],
                                "depth": 1,
                                "id": 4,
                                "order": 4
                            },
                            {
                                "children": [],
                                "depth": 1,
                                "id": 7,
                                "order": 7
                            },
                            {
                                "children": [],
                                "depth": 1,
                                "id": 8,
                                "order": 8
                            },
                            {
                                "children": [],
                                "depth": 1,
                                "id": 9,
                                "order": 9
                            },
                            {
                                "children": [
                                    {
                                        "children": [],
                                        "depth": 2,
                                        "id": 11,
                                        "order": 11
                                    },
                                    {
                                        "children": [],
                                        "depth": 2,
                                        "id": 12,
                                        "order": 12
                                    }
                                ],
                                "depth": 1,
                                "id": 10,
                                "order": 10
                            },
                            {
                                "children": [
                                    {
                                        "children": [],
                                        "depth": 2,
                                        "id": 14,
                                        "order": 14
                                    },
                                    {
                                        "children": [],
                                        "depth": 2,
                                        "id": 15,
                                        "order": 15
                                    }
                                ],
                                "depth": 1,
                                "id": 13,
                                "order": 13
                            },
                            {
                                "children": [
                                    {
                                        "children": [],
                                        "depth": 2,
                                        "id": 17,
                                        "order": 17
                                    },
                                    {
                                        "children": [],
                                        "depth": 2,
                                        "id": 18,
                                        "order": 18
                                    }
                                ],
                                "depth": 1,
                                "id": 16,
                                "order": 16
                            },
                            {
                                "children": [],
                                "depth": 1,
                                "id": 19,
                                "order": 19
                            }
                        ],
                        "depth": 0,
                        "id": 0,
                        "order": 0
                    }
                ],
                "depth": -1,
                "id": -1,
                "order": -1
            }
        ],
        "tidyTraceNodeCount": 20
    },
    "state_change": {
        "stateChanges": [
            {
                "address": "0xbe8115cdf67fcbbca3efb2a9ff18bb98eac2308f",
                "erc": "",
                "slots": [
                    {
                        "current": "0xb6f58624b9e4335e910a3d810a8552c3130678d796be26276ea3f77ad6026ad6",
                        "key": "0x0000000000000000000000000000000000000000000000000000000000000000",
                        "prev": "0x75bd6b795a6871cde3a3f25403f0e7bde3e4256384b4627db5a20b3edb90372b"
                    }
                ],
                "storageVariables": [
                    {
                        "name": "_seed",
                        "type": "uint256",
                        "value": {
                            "current": "82754741797170387063558033001889121808846636161708498596029373105765380942550",
                            "prev": "53255279138019007638569922592043293049894943801861385850680499799148236650283",
                            "typeTag": 1
                        }
                    }
                ]
            },
            {
                "address": "0xda9c03dfd4d137f926c3cf6953cb951832eb08b2",
                "erc": "ERC-721",
                "slots": [
                    {
                        "current": "0x0000000000000000000000000000000000000000000000000000000000000000",
                        "key": "0x890dec5314c0e0e430f6962237827cf32446243c00947597aad449f7a0e73a47",
                        "prev": "0x000000000000000000000000000000000000000000000000000000000000eaec"
                    },
                    {
                        "current": "0x000000000000000000000000000000000000000000000000000000000000a04b",
                        "key": "0x0000000000000000000000000000000000000000000000000000000000000002",
                        "prev": "0x000000000000000000000000000000000000000000000000000000000000a049"
                    },
                    {
                        "current": "0x000000000000000000000000000000000000000000000000000000000000eaec",
                        "key": "0x890dec5314c0e0e430f6962237827cf32446243c00947597aad449f7a0e73a2e",
                        "prev": "0x0000000000000000000000000000000000000000000000000000000000009a86"
                    },
                    {
                        "current": "0x00000000000000000000000000000000000000000000000000000000000000d6",
                        "key": "0x1afd74732f85727e16d13dbd9c612a0faa20804b3ca47ee68b331b6af0593c62",
                        "prev": "0x00000000000000000000000000000000000000000000000000000000000000ef"
                    },
                    {
                        "current": "0x00000000000000000000000087f14261163e9149726230fd644c31523e983d9d",
                        "key": "0xae12ca69cad0d6a23164d7fdbc2f1f19819972d1517fdbe2a080c4cd92dd7225",
                        "prev": "0x0000000000000000000000000000000000000000000000000000000000000000"
                    },
                    {
                        "current": "0x00000000000000000000000000000000000000000000000000000000000000ef",
                        "key": "0x49a1e5b73018feebf9a1fbe43f0a29c9f9fa5da57431aae002d92dd469b70f1b",
                        "prev": "0x00000000000000000000000000000000000000000000000000000000000000f0"
                    },
                    {
                        "current": "0x0000000000000000000000000000000000000000000000000000000000000000",
                        "key": "0xb6185f18d622573c034a8a89329fc09eea12e91d73eca0d09f60fcf312baad08",
                        "prev": "0x00000000000000000000000087f14261163e9149726230fd644c31523e983d9d"
                    },
                    {
                        "current": "0x000000000000000000000000000000000000000000000000000000000000eaee",
                        "key": "0x890dec5314c0e0e430f6962237827cf32446243c00947597aad449f7a0e73a46",
                        "prev": "0x0000000000000000000000000000000000000000000000000000000000009b39"
                    },
                    {
                        "current": "0x000000000000000000000000000000000000000000000000000000000000003f",
                        "key": "0x737fb937b0d092dbfac0c89d51d7c9a88f5c7aa47a40e9bb28382c976bcb8869",
                        "prev": "0x00000000000000000000000000000000000000000000000000000000000000ee"
                    },
                    {
                        "current": "0x00000000000000000000000000000000000000000000000000000000000000ee",
                        "key": "0xa8c9135cf6eb2a065c1cb65f6e46f1f9cb4ddff3be70f2ebbd01d872fe10ce68",
                        "prev": "0x0000000000000000000000000000000000000000000000000000000000000000"
                    },
                    {
                        "current": "0x000000000000000000000000000000000000000000000000000000000000eaef",
                        "key": "0x0000000000000000000000000000000000000000000000000000000000000001",
                        "prev": "0x000000000000000000000000000000000000000000000000000000000000eaee"
                    },
                    {
                        "current": "0x00000000000000000000000000000000000000000000000004a4000300020003",
                        "key": "0xb10e2d527612073b26eecdfd717e6a320cf44b4afac2b0732d9fcbe2b7faf7e4",
                        "prev": "0x0000000000000000000000000000000000000000000000000000000000000000"
                    },
                    {
                        "current": "0x0000000000000000000000000000000000000000000000000000000000000000",
                        "key": "0x0cd0e0660661c2580de380790fc00a4979abcb44009268443c57ef14d7970f73",
                        "prev": "0x00000000000000000000000000000000000000000000000000000000000000d6"
                    },
                    {
                        "current": "0x0000000000000000000000000000000000000000000000000000000000000000",
                        "key": "0x259443315b8739fd177f1f0372030b5f8678ce8bbf7f820aa6140262a33a8783",
                        "prev": "0x00000000000000000000000087f14261163e9149726230fd644c31523e983d9d"
                    },
                    {
                        "current": "0x0000000000000000000000000000000000000000000000000000000000009b39",
                        "key": "0x890dec5314c0e0e430f6962237827cf32446243c00947597aad449f7a0e73997",
                        "prev": "0x0000000000000000000000000000000000000000000000000000000000009b3a"
                    },
                    {
                        "current": "0x0000000000000000000000000000000000000000000000000000000000000000",
                        "key": "0xe3b7a8ef3276223825a280f400b84b3f17377b9173a3a9b926916edf6fa59662",
                        "prev": "0x000000000000000000000000000000000000000000000000000000000000003f"
                    }
                ],
                "storageVariables": [
                    {
                        "name": "ownerToFashionArray",
                        "type": "mapping(address => uint256[])",
                        "value": {
                            "pairs": [
                                {
                                    "key": "0x87f14261163e9149726230fd644c31523e983d9d",
                                    "value": {
                                        "elemType": "uint256",
                                        "elems": [
                                            {
                                                "index": 63,
                                                "value": {
                                                    "current": "39737",
                                                    "prev": "39738",
                                                    "typeTag": 1
                                                }
                                            },
                                            {
                                                "index": 214,
                                                "value": {
                                                    "current": "60140",
                                                    "prev": "39558",
                                                    "typeTag": 1
                                                }
                                            },
                                            {
                                                "index": 238,
                                                "value": {
                                                    "current": "60142",
                                                    "prev": "39737",
                                                    "typeTag": 1
                                                }
                                            }
                                        ],
                                        "typeTag": 2
                                    }
                                }
                            ],
                            "typeTag": 4
                        }
                    },
                    {
                        "name": "fashionIdToOwner",
                        "type": "mapping(uint256 => address)",
                        "value": {
                            "pairs": [
                                {
                                    "key": "39558",
                                    "value": {
                                        "current": "0x0000000000000000000000000000000000000000",
                                        "prev": "0x87f14261163e9149726230fd644c31523e983d9d",
                                        "typeTag": 1
                                    }
                                },
                                {
                                    "key": "39738",
                                    "value": {
                                        "current": "0x0000000000000000000000000000000000000000",
                                        "prev": "0x87f14261163e9149726230fd644c31523e983d9d",
                                        "typeTag": 1
                                    }
                                },
                                {
                                    "key": "60142",
                                    "value": {
                                        "current": "0x87f14261163e9149726230fd644c31523e983d9d",
                                        "prev": "0x0000000000000000000000000000000000000000",
                                        "typeTag": 1
                                    }
                                }
                            ],
                            "typeTag": 4
                        }
                    },
                    {
                        "name": "fashionIdToOwnerIndex",
                        "type": "mapping(uint256 => uint256)",
                        "value": {
                            "pairs": [
                                {
                                    "key": "39558",
                                    "value": {
                                        "current": "0",
                                        "prev": "214",
                                        "typeTag": 1
                                    }
                                },
                                {
                                    "key": "39737",
                                    "value": {
                                        "current": "63",
                                        "prev": "238",
                                        "typeTag": 1
                                    }
                                },
                                {
                                    "key": "39738",
                                    "value": {
                                        "current": "0",
                                        "prev": "63",
                                        "typeTag": 1
                                    }
                                },
                                {
                                    "key": "60140",
                                    "value": {
                                        "current": "214",
                                        "prev": "239",
                                        "typeTag": 1
                                    }
                                },
                                {
                                    "key": "60142",
                                    "value": {
                                        "current": "238",
                                        "prev": "0",
                                        "typeTag": 1
                                    }
                                }
                            ],
                            "typeTag": 4
                        }
                    },
                    {
                        "name": "fashionArray",
                        "type": "struct WarToken.Fashion[]",
                        "value": {
                            "elemType": "struct WarToken.Fashion",
                            "elems": [
                                {
                                    "index": 60142,
                                    "value": {
                                        "fields": [
                                            {
                                                "name": "protoId",
                                                "type": "uint16",
                                                "value": {
                                                    "current": "3",
                                                    "prev": "0",
                                                    "typeTag": 1
                                                }
                                            },
                                            {
                                                "name": "quality",
                                                "type": "uint16",
                                                "value": {
                                                    "current": "2",
                                                    "prev": "0",
                                                    "typeTag": 1
                                                }
                                            },
                                            {
                                                "name": "pos",
                                                "type": "uint16",
                                                "value": {
                                                    "current": "3",
                                                    "prev": "0",
                                                    "typeTag": 1
                                                }
                                            },
                                            {
                                                "name": "health",
                                                "type": "uint16",
                                                "value": {
                                                    "current": "1188",
                                                    "prev": "0",
                                                    "typeTag": 1
                                                }
                                            },
                                            {
                                                "name": "atkMin",
                                                "type": "uint16",
                                                "value": {
                                                    "current": "0",
                                                    "prev": "0",
                                                    "typeTag": 1
                                                }
                                            },
                                            {
                                                "name": "atkMax",
                                                "type": "uint16",
                                                "value": {
                                                    "current": "0",
                                                    "prev": "0",
                                                    "typeTag": 1
                                                }
                                            },
                                            {
                                                "name": "defence",
                                                "type": "uint16",
                                                "value": {
                                                    "current": "0",
                                                    "prev": "0",
                                                    "typeTag": 1
                                                }
                                            },
                                            {
                                                "name": "crit",
                                                "type": "uint16",
                                                "value": {
                                                    "current": "0",
                                                    "prev": "0",
                                                    "typeTag": 1
                                                }
                                            },
                                            {
                                                "name": "isPercent",
                                                "type": "uint16",
                                                "value": {
                                                    "current": "0",
                                                    "prev": "0",
                                                    "typeTag": 1
                                                }
                                            },
                                            {
                                                "name": "attrExt1",
                                                "type": "uint16",
                                                "value": {
                                                    "current": "0",
                                                    "prev": "0",
                                                    "typeTag": 1
                                                }
                                            },
                                            {
                                                "name": "attrExt2",
                                                "type": "uint16",
                                                "value": {
                                                    "current": "0",
                                                    "prev": "0",
                                                    "typeTag": 1
                                                }
                                            },
                                            {
                                                "name": "attrExt3",
                                                "type": "uint16",
                                                "value": {
                                                    "current": "0",
                                                    "prev": "0",
                                                    "typeTag": 1
                                                }
                                            }
                                        ],
                                        "typeTag": 3
                                    }
                                }
                            ],
                            "typeTag": 2
                        }
                    },
                    {
                        "name": "destroyFashionCount",
                        "type": "uint256",
                        "value": {
                            "current": "41035",
                            "prev": "41033",
                            "typeTag": 1
                        }
                    }
                ]
            }
        ]
    }
}