{
    "balance_change": {
        "balanceChanges": []
    },
    "profile": {
        "basic_info": {
            "baseFee": "",
            "blockNumber": 12694225,
            "callData": "0xc5d404940000000000000000000000000000000000000000000000000dce76d6c1addd44000000000000000000000000000000000000000000000000001085267e34a0000000000000000000000000000000000000000000000000000000000000000000000000000000000000000000000000000000000000000000000000000000007300000000000000000000000000000000000000000000000000000000000000a000000000000000000000000000000000000000000000000000000000000000020000000000000000000000003da1313ae46132a397d90d95b1424a9a7e3e0fce000000000000000000000000d533a949740bb3306d119cc777fa900ba034cd520000000000000000000000000000000000000000000000000000000000000000000000000000000000000000919fa96e88d67499339577fa202345436bcdaf79000000000000000000000000c02aaa39b223fe8d0a0e5c4f27ead9083c756cc2000000000000000000000000000000000000000000000000000000000000000a",
            "debugEnable": true,
            "errorInfo": "",
            "eventCount": 0,
            "feeRecipient": "0xea674fdde714fd979de3edf0f56aa9716b898ec8",
            "formatValue": "0",
            "gasLimit": 1200000,
            "gasPrice": "15",
            "gasUsed": 68137,
            "intTxnCount": 10,
            "internalRevert": false,
            "internalRevertMessage": "",
            "isContractCreation": false,
            "isFlashloan": false,
            "maxFee": "",
            "nonce": 4609,
            "overwritedBlockNumber": -1,
            "priorityFee": "",
            "receiver": "0x5c4003c0f337b406ee693378df215f8a5d571ce4",
            "revertMessage": "",
            "sender": "0x51ec652e62d4164811ef81b32cf146da91268833",
            "simulationEnable": true,
            "sourceTxnHash": "0x92b642e7eeebaa023a98682a934ea39a839785fb74c828e23c21254c364e8356",
            "status": true,
            "timestamp": "2021-06-24T02:32:24Z",
            "transactionFee": "0.001022055",
            "txnHash": "0x92b642e7eeebaa023a98682a934ea39a839785fb74c828e23c21254c364e8356",
            "txnIndex": 95,
            "type": 1,
            "value": "0"
        },
        "fund_flow": [],
        "token_infos": [
            {
                "address": "0xc02aaa39b223fe8d0a0e5c4f27ead9083c756cc2",
                "decimals": 18
            },
            {
                "address": "0xeeeeeeeeeeeeeeeeeeeeeeeeeeeeeeeeeeeeeeee",
                "decimals": 18
            }
        ]
    },
    "address_label": {
        "labels": [
            {
                "address": "0x919fa96e88d67499339577fa202345436bcdaf79",
                "label": "Uniswap V3: CRV"
            },
            {
                "address": "0x3da1313ae46132a397d90d95b1424a9a7e3e0fce",
                "label": "Uniswap V2: CRV 6"
            },
            {
                "address": "0x0000000000000000000000000000000000000001",
                "label": "Precompiled"
            },
            {
                "address": "0x0000000000000000000000000000000000000002",
                "label": "Precompiled"
            },
            {
                "address": "0x0000000000000000000000000000000000000003",
                "label": "Precompiled"
            },
            {
                "address": "0x0000000000000000000000000000000000000004",
                "label": "Precompiled"
            },
            {
                "address": "0xeeeeeeeeeeeeeeeeeeeeeeeeeeeeeeeeeeeeeeee",
                "label": "Ether"
            },
            {
                "address": "0xc02aaa39b223fe8d0a0e5c4f27ead9083c756cc2",
                "label": "Wrapped Ether (WETH)"
            }
        ]
    },
    "trace": {
        "accountLabels": null,
        "dataMap": {
            "-1": {
                "invocation": {
                    "address": "0x51ec652e62d4164811ef81b32cf146da91268833",
                    "callData": "",
                    "decodedMethod": null,
                    "errorInfo": "",
                    "fromAddress": "",
                    "gasUsed": 0,
                    "id": -1,
                    "methodDecoded": false,
                    "operation": "",
                    "output": "",
                    "revert": false,
                    "revertMessage": "",
                    "selector": "",
                    "status": false,
                    "value": ""
                },
                "nodeType": 0
            },
            "0": {
                "invocation": {
                    "address": "0x5c4003c0f337b406ee693378df215f8a5d571ce4",
                    "callData": "0x0000000000000000000000000000000000000000000000000dce76d6c1addd44000000000000000000000000000000000000000000000000001085267e34a0000000000000000000000000000000000000000000000000000000000000000000000000000000000000000000000000000000000000000000000000000000007300000000000000000000000000000000000000000000000000000000000000a000000000000000000000000000000000000000000000000000000000000000020000000000000000000000003da1313ae46132a397d90d95b1424a9a7e3e0fce000000000000000000000000d533a949740bb3306d119cc777fa900ba034cd520000000000000000000000000000000000000000000000000000000000000000000000000000000000000000919fa96e88d67499339577fa202345436bcdaf79000000000000000000000000c02aaa39b223fe8d0a0e5c4f27ead9083c756cc2000000000000000000000000000000000000000000000000000000000000000a",
                    "decodedMethod": null,
                    "errorInfo": "",
                    "fromAddress": "0x51ec652e62d4164811ef81b32cf146da91268833",
                    "gasUsed": 68137,
                    "id": 0,
                    "methodDecoded": false,
                    "operation": "CALL",
                    "output": "",
                    "revert": false,
                    "revertMessage": "",
                    "selector": "0xc5d40494",
                    "status": true,
                    "value": "0"
                },
                "nodeType": 0
            },
            "1": {
                "invocation": {
                    "address": "0x19404ecdabe21572d1124d21f30c78c55ed51988",
                    "callData": "0x0000000000000000000000000000000000000000000000000dce76d6c1addd44000000000000000000000000d533a949740bb3306d119cc777fa900ba034cd520000000000000000000000003da1313ae46132a397d90d95b1424a9a7e3e0fce00000000000000000000000000000000000000000000000000000000000026f2",
                    "decodedMethod": null,
                    "errorInfo": "",
                    "fromAddress": "0x5c4003c0f337b406ee693378df215f8a5d571ce4",
                    "gasUsed": 8826,
                    "id": 1,
                    "methodDecoded": false,
                    "operation": "DELEGATECALL",
                    "output": "0x0000000000000000000000000000000000000000000000460d30a1ab950625630000000000000000000000000000000000000000000000000000000000000001",
                    "revert": false,
                    "revertMessage": "",
                    "selector": "0xac0f3cc0",
                    "status": true,
                    "value": "0"
                },
                "nodeType": 0
            },
            "10": {
                "invocation": {
                    "address": "0x919fa96e88d67499339577fa202345436bcdaf79",
                    "callData": "0x0000000000000000000000000000000000000000000000000000000000000004",
                    "decodedMethod": {
                        "callParams": [
                            {
                                "name": "",
                                "type": "int16",
                                "value": "4"
                            }
                        ],
                        "constructorArguments": "",
                        "name": "tickBitmap",
                        "returnParams": [
                            {
                                "name": "",
                                "type": "uint256",
                                "value": "14,134,776,701,445,333,237,980,915,571,017,902,947,100,032,218,448,758,189,226,672,452,127,428,608"
                            }
                        ],
                        "signature": "tickBitmap(int16)"
                    },
                    "errorInfo": "",
                    "fromAddress": "0x5c4003c0f337b406ee693378df215f8a5d571ce4",
                    "gasUsed": 2525,
                    "id": 10,
                    "methodDecoded": true,
                    "operation": "STATICCALL",
                    "output": "0x0008000001bd610093301b6041dacee7b730c0818402001401000c0000001000",
                    "revert": false,
                    "revertMessage": "",
                    "selector": "0x5339c296",
                    "status": true,
                    "value": "0"
                },
                "nodeType": 0
            },
            "2": {
                "invocation": {
                    "address": "0x3da1313ae46132a397d90d95b1424a9a7e3e0fce",
                    "callData": "0x",
                    "decodedMethod": {
                        "callParams": [],
                        "constructorArguments": "",
                        "name": "getReserves",
                        "returnParams": [
                            {
                                "name": "_reserve0",
                                "type": "uint112",
                                "value": "610,551,551,705,263,564,318"
                            },
                            {
                                "name": "_reserve1",
                                "type": "uint112",
                                "value": "796,720,647,155,401,248,052,607"
                            },
                            {
                                "name": "_blockTimestampLast",
                                "type": "uint32",
                                "value": "1,624,501,317"
                            }
                        ],
                        "signature": "getReserves()"
                    },
                    "errorInfo": "",
                    "fromAddress": "0x5c4003c0f337b406ee693378df215f8a5d571ce4",
                    "gasUsed": 2504,
                    "id": 2,
                    "methodDecoded": true,
                    "operation": "STATICCALL",
                    "output": "0x000000000000000000000000000000000000000000000021191ad96f67c6e61e00000000000000000000000000000000000000000000a8b6501554efa09d957f0000000000000000000000000000000000000000000000000000000060d3ec45",
                    "revert": false,
                    "revertMessage": "",
                    "selector": "0x0902f1ac",
                    "status": true,
                    "value": "0"
                },
                "nodeType": 0
            },
            "3": {
                "invocation": {
                    "address": "0x3da1313ae46132a397d90d95b1424a9a7e3e0fce",
                    "callData": "0x",
                    "decodedMethod": {
                        "callParams": [],
                        "constructorArguments": "",
                        "name": "token0",
                        "returnParams": [
                            {
                                "name": "",
                                "type": "address",
                                "value": "0xc02aaa39b223fe8d0a0e5c4f27ead9083c756cc2"
                            }
                        ],
                        "signature": "token0()"
                    },
                    "errorInfo": "",
                    "fromAddress": "0x5c4003c0f337b406ee693378df215f8a5d571ce4",
                    "gasUsed": 2381,
                    "id": 3,
                    "methodDecoded": true,
                    "operation": "STATICCALL",
                    "output": "0x000000000000000000000000c02aaa39b223fe8d0a0e5c4f27ead9083c756cc2",
                    "revert": false,
                    "revertMessage": "",
                    "selector": "0x0dfe1681",
                    "status": true,
                    "value": "0"
                },
                "nodeType": 0
            },
            "4": {
                "invocation": {
                    "address": "0x453e8a837a50383508287a9fe6e8d311d2b1d24b",
                    "callData": "0x0000000000000000000000000000000000000000000000460d30a1ab95062563000000000000000000000000d533a949740bb3306d119cc777fa900ba034cd52000000000000000000000000919fa96e88d67499339577fa202345436bcdaf79",
                    "decodedMethod": null,
                    "errorInfo": "",
                    "fromAddress": "0x5c4003c0f337b406ee693378df215f8a5d571ce4",
                    "gasUsed": 23363,
                    "id": 4,
                    "methodDecoded": false,
                    "operation": "DELEGATECALL",
                    "output": "0x0000000000000000000000000000000000000000000000000d8b9ebae1ddbfd60000000000000000000000000000000000000000000000000000000000000000",
                    "revert": false,
                    "revertMessage": "",
                    "selector": "0x5d28692c",
                    "status": true,
                    "value": "0"
                },
                "nodeType": 0
            },
            "5": {
                "invocation": {
                    "address": "0x919fa96e88d67499339577fa202345436bcdaf79",
                    "callData": "0x",
                    "decodedMethod": {
                        "callParams": [],
                        "constructorArguments": "",
                        "name": "token0",
                        "returnParams": [
                            {
                                "name": "",
                                "type": "address",
                                "value": "0xc02aaa39b223fe8d0a0e5c4f27ead9083c756cc2"
                            }
                        ],
                        "signature": "token0()"
                    },
                    "errorInfo": "",
                    "fromAddress": "0x5c4003c0f337b406ee693378df215f8a5d571ce4",
                    "gasUsed": 266,
                    "id": 5,
                    "methodDecoded": true,
                    "operation": "STATICCALL",
                    "output": "0x000000000000000000000000c02aaa39b223fe8d0a0e5c4f27ead9083c756cc2",
                    "revert": false,
                    "revertMessage": "",
                    "selector": "0x0dfe1681",
                    "status": true,
                    "value": "0"
                },
                "nodeType": 0
            },
            "6": {
                "invocation": {
                    "address": "0x919fa96e88d67499339577fa202345436bcdaf79",
                    "callData": "0x",
                    "decodedMethod": {
                        "callParams": [],
                        "constructorArguments": "",
                        "name": "slot0",
                        "returnParams": [
                            {
                                "name": "sqrtPriceX96",
                                "type": "uint160",
                                "value": "2,869,420,300,230,790,012,406,066,650,873"
                            },
                            {
                                "name": "tick",
                                "type": "int24",
                                "value": "71,794"
                            },
                            {
                                "name": "observationIndex",
                                "type": "uint16",
                                "value": "0"
                            },
                            {
                                "name": "observationCardinality",
                                "type": "uint16",
                                "value": "1"
                            },
                            {
                                "name": "observationCardinalityNext",
                                "type": "uint16",
                                "value": "1"
                            },
                            {
                                "name": "feeProtocol",
                                "type": "uint8",
                                "value": "0"
                            },
                            {
                                "name": "unlocked",
                                "type": "bool",
                                "value": true
                            }
                        ],
                        "signature": "slot0()"
                    },
                    "errorInfo": "",
                    "fromAddress": "0x5c4003c0f337b406ee693378df215f8a5d571ce4",
                    "gasUsed": 2696,
                    "id": 6,
                    "methodDecoded": true,
                    "operation": "STATICCALL",
                    "output": "0x00000000000000000000000000000000000000243798d7743627d9d273191ef9000000000000000000000000000000000000000000000000000000000001187200000000000000000000000000000000000000000000000000000000000000000000000000000000000000000000000000000000000000000000000000000001000000000000000000000000000000000000000000000000000000000000000100000000000000000000000000000000000000000000000000000000000000000000000000000000000000000000000000000000000000000000000000000001",
                    "revert": false,
                    "revertMessage": "",
                    "selector": "0x3850c7bd",
                    "status": true,
                    "value": "0"
                },
                "nodeType": 0
            },
            "7": {
                "invocation": {
                    "address": "0x919fa96e88d67499339577fa202345436bcdaf79",
                    "callData": "0x",
                    "decodedMethod": {
                        "callParams": [],
                        "constructorArguments": "",
                        "name": "liquidity",
                        "returnParams": [
                            {
                                "name": "",
                                "type": "uint128",
                                "value": "5,637,081,117,564,368,403,010"
                            }
                        ],
                        "signature": "liquidity()"
                    },
                    "errorInfo": "",
                    "fromAddress": "0x5c4003c0f337b406ee693378df215f8a5d571ce4",
                    "gasUsed": 2428,
                    "id": 7,
                    "methodDecoded": true,
                    "operation": "STATICCALL",
                    "output": "0x000000000000000000000000000000000000000000000131963731e3962d3a42",
                    "revert": false,
                    "revertMessage": "",
                    "selector": "0x1a686502",
                    "status": true,
                    "value": "0"
                },
                "nodeType": 0
            },
            "8": {
                "invocation": {
                    "address": "0x919fa96e88d67499339577fa202345436bcdaf79",
                    "callData": "0x",
                    "decodedMethod": {
                        "callParams": [],
                        "constructorArguments": "",
                        "name": "fee",
                        "returnParams": [
                            {
                                "name": "",
                                "type": "uint24",
                                "value": "3,000"
                            }
                        ],
                        "signature": "fee()"
                    },
                    "errorInfo": "",
                    "fromAddress": "0x5c4003c0f337b406ee693378df215f8a5d571ce4",
                    "gasUsed": 251,
                    "id": 8,
                    "methodDecoded": true,
                    "operation": "STATICCALL",
                    "output": "0x0000000000000000000000000000000000000000000000000000000000000bb8",
                    "revert": false,
                    "revertMessage": "",
                    "selector": "0xddca3f43",
                    "status": true,
                    "value": "0"
                },
                "nodeType": 0
            },
            "9": {
                "invocation": {
                    "address": "0x919fa96e88d67499339577fa202345436bcdaf79",
                    "callData": "0x",
                    "decodedMethod": {
                        "callParams": [],
                        "constructorArguments": "",
                        "name": "tickSpacing",
                        "returnParams": [
                            {
                                "name": "",
                                "type": "int24",
                                "value": "60"
                            }
                        ],
                        "signature": "tickSpacing()"
                    },
                    "errorInfo": "",
                    "fromAddress": "0x5c4003c0f337b406ee693378df215f8a5d571ce4",
                    "gasUsed": 279,
                    "id": 9,
                    "methodDecoded": true,
                    "operation": "STATICCALL",
                    "output": "0x000000000000000000000000000000000000000000000000000000000000003c",
                    "revert": false,
                    "revertMessage": "",
                    "selector": "0xd0c93a7c",
                    "status": true,
                    "value": "0"
                },
                "nodeType": 0
            }
        },
        "gasFlame": [
            {
                "children": [
                    {
                        "children": [
                            {
                                "children": [],
                                "depth": 0,
                                "name": "Initial Gas",
                                "value": 23776
                            },
                            {
                                "children": [
                                    {
                                        "children": [
                                            {
                                                "children": [],
                                                "depth": 2,
                                                "name": "getReserves",
                                                "value": 2504
                                            },
                                            {
                                                "children": [],
                                                "depth": 2,
                                                "name": "token0",
                                                "value": 2381
                                            }
                                        ],
                                        "depth": 1,
                                        "name": "0xac0f3cc0",
                                        "value": 8826
                                    },
                                    {
                                        "children": [
                                            {
                                                "children": [],
                                                "depth": 2,
                                                "name": "token0",
                                                "value": 266
                                            },
                                            {
                                                "children": [],
                                                "depth": 2,
                                                "name": "slot0",
                                                "value": 2696
                                            },
                                            {
                                                "children": [],
                                                "depth": 2,
                                                "name": "liquidity",
                                                "value": 2428
                                            },
                                            {
                                                "children": [],
                                                "depth": 2,
                                                "name": "fee",
                                                "value": 251
                                            },
                                            {
                                                "children": [],
                                                "depth": 2,
                                                "name": "tickSpacing",
                                                "value": 279
                                            },
                                            {
                                                "children": [],
                                                "depth": 2,
                                                "name": "tickBitmap",
                                                "value": 2525
                                            }
                                        ],
                                        "depth": 1,
                                        "name": "0x5d28692c",
                                        "value": 23363
                                    }
                                ],
                                "depth": 0,
                                "name": "Executed Gas",
                                "value": 44361
                            }
                        ],
                        "depth": -1,
                        "name": "Actual Gas Used",
                        "value": 68137
                    },
                    {
                        "children": [],
                        "depth": -1,
                        "name": "Refunded Gas",
                        "value": 0
                    }
                ],
                "depth": -2,
                "name": "Total Gas",
                "value": 68137
            }
        ],
        "isConfirmed": true,
        "mainTrace": [
            {
                "children": [
                    {
                        "children": [
                            {
                                "children": [
                                    {
                                        "children": [],
                                        "depth": 2,
                                        "id": 2,
                                        "order": 2
                                    },
                                    {
                                        "children": [],
                                        "depth": 2,
                                        "id": 3,
                                        "order": 3
                                    }
                                ],
                                "depth": 1,
                                "id": 1,
                                "order": 1
                            },
                            {
                                "children": [
                                    {
                                        "children": [],
                                        "depth": 2,
                                        "id": 5,
                                        "order": 5
                                    },
                                    {
                                        "children": [],
                                        "depth": 2,
                                        "id": 6,
                                        "order": 6
                                    },
                                    {
                                        "children": [],
                                        "depth": 2,
                                        "id": 7,
                                        "order": 7
                                    },
                                    {
                                        "children": [],
                                        "depth": 2,
                                        "id": 8,
                                        "order": 8
                                    },
                                    {
                                        "children": [],
                                        "depth": 2,
                                        "id": 9,
                                        "order": 9
                                    },
                                    {
                                        "children": [],
                                        "depth": 2,
                                        "id": 10,
                                        "order": 10
                                    }
                                ],
                                "depth": 1,
                                "id": 4,
                                "order": 4
                            }
                        ],
                        "depth": 0,
                        "id": 0,
                        "order": 0
                    }
                ],
                "depth": -1,
                "id": -1,
                "order": -1
            }
        ],
        "mainTraceNodeCount": 11,
        "parentIdMap": {
            "0": -1,
            "1": 0,
            "10": 4,
            "2": 1,
            "3": 1,
            "4": 0,
            "5": 4,
            "6": 4,
            "7": 4,
            "8": 4,
            "9": 4
        },
        "tidyTrace": [
            {
                "children": [
                    {
                        "children": [
                            {
                                "children": [],
                                "depth": 1,
                                "id": 1,
                                "order": 1
                            },
                            {
                                "children": [],
                                "depth": 1,
                                "id": 4,
                                "order": 4
                            }
                        ],
                        "depth": 0,
                        "id": 0,
                        "order": 0
                    }
                ],
                "depth": -1,
                "id": -1,
                "order": -1
            }
        ],
        "tidyTraceNodeCount": 3
    },
    "state_change": {
        "stateChanges": []
    }
}