{
    "balance_change": {
        "balanceChanges": [
            {
                "account": "0x9d1f1bfcbf80d98f3f72946898a97811996eca85",
                "assets": [
                    {
                        "address": "0xeeeeeeeeeeeeeeeeeeeeeeeeeeeeeeeeeeeeeeee",
                        "amount": "0.1",
                        "iconUrl": "https://assets.blocksec.com/image/1663669189317-3.png",
                        "isERC1155": false,
                        "isERC721": false,
                        "sign": false,
                        "value": ""
                    }
                ]
            },
            {
                "account": "0xd1ceeeeee83f8bcf3bedad437202b6154e9f5405",
                "assets": [
                    {
                        "address": "0xeeeeeeeeeeeeeeeeeeeeeeeeeeeeeeeeeeeeeeee",
                        "amount": "0.1",
                        "iconUrl": "https://assets.blocksec.com/image/1663669189317-3.png",
                        "isERC1155": false,
                        "isERC721": false,
                        "sign": true,
                        "value": ""
                    }
                ]
            }
        ]
    },
    "profile": {
        "basic_info": {
            "baseFee": "",
            "blockNumber": 7730714,
            "callData": "0x5e83b46300000000000000000000000000000000000000000000000000000000000000010000000000000000000000000000000000000000000000000000000000000002000000000000000000000000000000000000000000000000000000000075f6de8330ce1f3e6513ae84602f6248a14dd2d7fe82e23be6f6e851869140669b6989af60aeeeab6f261619bac06332cb3c389ebc150f9e44b66f1f6235cae73df158341ecfd1a027b2192e685fa4955298f18a190bd88776f2ac99404d8040205a9c",
            "debugEnable": true,
            "errorInfo": "",
            "eventCount": 1,
            "feeRecipient": "0xb2930b35844a230f00e51431acae96fe543a0347",
            "formatValue": "0.1",
            "gasLimit": 150000,
            "gasPrice": "9",
            "gasUsed": 82132,
            "intTxnCount": 1,
            "internalRevert": false,
            "internalRevertMessage": "",
            "isContractCreation": false,
            "isFlashloan": false,
            "maxFee": "",
            "nonce": 1807,
            "overwritedBlockNumber": -1,
            "priorityFee": "",
            "receiver": "0xd1ceeeeee83f8bcf3bedad437202b6154e9f5405",
            "revertMessage": "",
            "sender": "0x9d1f1bfcbf80d98f3f72946898a97811996eca85",
            "simulationEnable": true,
            "sourceTxnHash": "0x92c8951c9e9f507a38b770fe2ce0c7a236049fb5c6c6c72db3ff63a0c488653e",
            "status": true,
            "timestamp": "2019-05-10T04:45:42Z",
            "transactionFee": "0.000739188",
            "txnHash": "0x92c8951c9e9f507a38b770fe2ce0c7a236049fb5c6c6c72db3ff63a0c488653e",
            "txnIndex": 22,
            "type": 0,
            "value": "100000000000000000"
        },
        "fund_flow": [
            {
                "amount": "0.1",
                "from": "0x9d1f1bfcbf80d98f3f72946898a97811996eca85",
                "id": 1,
                "isERC1155": false,
                "isERC721": false,
                "isReverted": false,
                "order": 1,
                "to": "0xd1ceeeeee83f8bcf3bedad437202b6154e9f5405",
                "token": "0xeeeeeeeeeeeeeeeeeeeeeeeeeeeeeeeeeeeeeeee"
            }
        ],
        "token_infos": [
            {
                "address": "0xc02aaa39b223fe8d0a0e5c4f27ead9083c756cc2",
                "decimals": 18
            },
            {
                "address": "0xeeeeeeeeeeeeeeeeeeeeeeeeeeeeeeeeeeeeeeee",
                "decimals": 18
            }
        ]
    },
    "address_label": {
        "labels": [
            {
                "address": "0x0000000000000000000000000000000000000004",
                "label": "Precompiled"
            },
            {
                "address": "0xeeeeeeeeeeeeeeeeeeeeeeeeeeeeeeeeeeeeeeee",
                "label": "Ether"
            },
            {
                "address": "0xd1ceeeeee83f8bcf3bedad437202b6154e9f5405",
                "label": "Dice2Win"
            },
            {
                "address": "0x0000000000000000000000000000000000000001",
                "label": "Precompiled"
            },
            {
                "address": "0x0000000000000000000000000000000000000002",
                "label": "Precompiled"
            },
            {
                "address": "0x0000000000000000000000000000000000000003",
                "label": "Precompiled"
            }
        ]
    },
    "trace": {
        "accountLabels": null,
        "dataMap": {
            "-1": {
                "invocation": {
                    "address": "0x9d1f1bfcbf80d98f3f72946898a97811996eca85",
                    "callData": "",
                    "decodedMethod": null,
                    "errorInfo": "",
                    "fromAddress": "",
                    "gasUsed": 0,
                    "id": -1,
                    "methodDecoded": false,
                    "operation": "",
                    "output": "",
                    "revert": false,
                    "revertMessage": "",
                    "selector": "",
                    "status": false,
                    "value": ""
                },
                "nodeType": 0
            },
            "0": {
                "invocation": {
                    "address": "0xd1ceeeeee83f8bcf3bedad437202b6154e9f5405",
                    "callData": "0x00000000000000000000000000000000000000000000000000000000000000010000000000000000000000000000000000000000000000000000000000000002000000000000000000000000000000000000000000000000000000000075f6de8330ce1f3e6513ae84602f6248a14dd2d7fe82e23be6f6e851869140669b6989af60aeeeab6f261619bac06332cb3c389ebc150f9e44b66f1f6235cae73df158341ecfd1a027b2192e685fa4955298f18a190bd88776f2ac99404d8040205a9c",
                    "decodedMethod": {
                        "callParams": [
                            {
                                "name": "betMask",
                                "type": "uint256",
                                "value": "1"
                            },
                            {
                                "name": "modulo",
                                "type": "uint256",
                                "value": "2"
                            },
                            {
                                "name": "commitLastBlock",
                                "type": "uint256",
                                "value": "7,730,910"
                            },
                            {
                                "name": "commit",
                                "type": "uint256",
                                "value": "59,339,214,425,593,987,563,342,800,649,251,749,054,080,305,034,457,440,830,000,458,536,529,205,881,225"
                            },
                            {
                                "name": "r",
                                "type": "bytes32",
                                "value": "0xaf60aeeeab6f261619bac06332cb3c389ebc150f9e44b66f1f6235cae73df158"
                            },
                            {
                                "name": "s",
                                "type": "bytes32",
                                "value": "0x341ecfd1a027b2192e685fa4955298f18a190bd88776f2ac99404d8040205a9c"
                            }
                        ],
                        "constructorArguments": "",
                        "name": "placeBet",
                        "returnParams": [],
                        "signature": "placeBet(uint256,uint256,uint256,uint256,bytes32,bytes32)"
                    },
                    "errorInfo": "",
                    "fromAddress": "0x9d1f1bfcbf80d98f3f72946898a97811996eca85",
                    "gasUsed": 82132,
                    "id": 0,
                    "methodDecoded": true,
                    "operation": "CALL",
                    "output": "",
                    "revert": false,
                    "revertMessage": "",
                    "selector": "0x5e83b463",
                    "status": true,
                    "value": "0.1"
                },
                "nodeType": 0
            },
            "1": {
                "invocation": {
                    "address": "0x0000000000000000000000000000000000000001",
                    "callData": "0xc89486071b97a0d5f3c78f820c5e233d1044f09462687637863b4718000000000000000000000000000000000000000000000000000000000000001baf60aeeeab6f261619bac06332cb3c389ebc150f9e44b66f1f6235cae73df158341ecfd1a027b2192e685fa4955298f18a190bd88776f2ac99404d8040205a9c",
                    "decodedMethod": {
                        "callParams": [
                            {
                                "name": "hash",
                                "type": "bytes32",
                                "value": "0xf20a7dffc89486071b97a0d5f3c78f820c5e233d1044f09462687637863b4718"
                            },
                            {
                                "name": "v",
                                "type": "uint256",
                                "value": "27"
                            },
                            {
                                "name": "r",
                                "type": "bytes32",
                                "value": "0xaf60aeeeab6f261619bac06332cb3c389ebc150f9e44b66f1f6235cae73df158"
                            },
                            {
                                "name": "s",
                                "type": "bytes32",
                                "value": "0x341ecfd1a027b2192e685fa4955298f18a190bd88776f2ac99404d8040205a9c"
                            }
                        ],
                        "constructorArguments": "",
                        "name": "ecrecover",
                        "returnParams": [
                            {
                                "name": "",
                                "type": "address",
                                "value": "0xb00b5ca7ec0502f2f269e99b91ebbccbce9cccec"
                            }
                        ],
                        "signature": "ecrecover(bytes32,uint256,bytes32,bytes32)"
                    },
                    "errorInfo": "",
                    "fromAddress": "0xd1ceeeeee83f8bcf3bedad437202b6154e9f5405",
                    "gasUsed": 3000,
                    "id": 1,
                    "methodDecoded": true,
                    "operation": "CALL",
                    "output": "0x000000000000000000000000b00b5ca7ec0502f2f269e99b91ebbccbce9cccec",
                    "revert": false,
                    "revertMessage": "",
                    "selector": "0xf20a7dff",
                    "status": true,
                    "value": "0"
                },
                "nodeType": 0
            },
            "2": {
                "event": {
                    "contract": "0xd1ceeeeee83f8bcf3bedad437202b6154e9f5405",
                    "decodedLog": {
                        "name": "Commit",
                        "params": [
                            {
                                "name": "commit",
                                "type": "uint256",
                                "value": "59,339,214,425,593,987,563,342,800,649,251,749,054,080,305,034,457,440,830,000,458,536,529,205,881,225"
                            }
                        ],
                        "signature": "Commit(uint256)"
                    },
                    "id": 2,
                    "logData": "0x8330ce1f3e6513ae84602f6248a14dd2d7fe82e23be6f6e851869140669b6989",
                    "logDecoded": true,
                    "operation": "EVENT",
                    "revert": false,
                    "status": true,
                    "topics": [
                        "0x5bdd2fc99022530157777690475b670d3872f32262eb1d47d9ba8000dad58f87"
                    ]
                },
                "nodeType": 1
            }
        },
        "gasFlame": [
            {
                "children": [
                    {
                        "children": [
                            {
                                "children": [],
                                "depth": 0,
                                "name": "Initial Gas",
                                "value": 28504
                            },
                            {
                                "children": [
                                    {
                                        "children": [],
                                        "depth": 1,
                                        "name": "ecrecover",
                                        "value": 3000
                                    }
                                ],
                                "depth": 0,
                                "name": "Executed Gas",
                                "value": 53628
                            }
                        ],
                        "depth": -1,
                        "name": "Actual Gas Used",
                        "value": 82132
                    },
                    {
                        "children": [],
                        "depth": -1,
                        "name": "Refunded Gas",
                        "value": 0
                    }
                ],
                "depth": -2,
                "name": "Total Gas",
                "value": 82132
            }
        ],
        "isConfirmed": true,
        "mainTrace": [
            {
                "children": [
                    {
                        "children": [
                            {
                                "children": [],
                                "depth": 1,
                                "id": 1,
                                "order": 1
                            },
                            {
                                "children": [],
                                "depth": 1,
                                "id": 2,
                                "order": 2
                            }
                        ],
                        "depth": 0,
                        "id": 0,
                        "order": 0
                    }
                ],
                "depth": -1,
                "id": -1,
                "order": -1
            }
        ],
        "mainTraceNodeCount": 3,
        "parentIdMap": {
            "0": -1,
            "1": 0,
            "2": 0
        },
        "tidyTrace": [
            {
                "children": [
                    {
                        "children": [
                            {
                                "children": [],
                                "depth": 1,
                                "id": 1,
                                "order": 1
                            },
                            {
                                "children": [],
                                "depth": 1,
                                "id": 2,
                                "order": 2
                            }
                        ],
                        "depth": 0,
                        "id": 0,
                        "order": 0
                    }
                ],
                "depth": -1,
                "id": -1,
                "order": -1
            }
        ],
        "tidyTraceNodeCount": 3
    },
    "state_change": {
        "stateChanges": [
            {
                "address": "0xd1ceeeeee83f8bcf3bedad437202b6154e9f5405",
                "erc": "",
                "slots": [
                    {
                        "current": "0x9d1f1bfcbf80d98f3f72946898a97811996eca850000000001000075f61a0102",
                        "key": "0x1273b02598c921f87e1fa96fc8e4171e86eacdfad831fc0eab974fb9c0246855",
                        "prev": "0x0000000000000000000000000000000000000000000000000000000000000000"
                    },
                    {
                        "current": "0x000000000000000005fca403ac1a8000000000000000000006779087f1550000",
                        "key": "0x0000000000000000000000000000000000000000000000000000000000000004",
                        "prev": "0x000000000000000003444f0d842080000000000000000000067403094c8e8000"
                    },
                    {
                        "current": "0x000000000000000000000000000000000000000000000000016345785d8a0000",
                        "key": "0x1273b02598c921f87e1fa96fc8e4171e86eacdfad831fc0eab974fb9c0246854",
                        "prev": "0x0000000000000000000000000000000000000000000000000000000000000000"
                    }
                ],
                "storageVariables": [
                    {
                        "name": "bets",
                        "type": "mapping(uint256 => struct Dice2Win.Bet)",
                        "value": {
                            "pairs": [
                                {
                                    "key": "59339214425593987563342800649251749054080305034457440830000458536529205881225",
                                    "value": {
                                        "fields": [
                                            {
                                                "name": "amount",
                                                "type": "uint256",
                                                "value": {
                                                    "current": "100000000000000000",
                                                    "prev": "0",
                                                    "typeTag": 1
                                                }
                                            },
                                            {
                                                "name": "modulo",
                                                "type": "uint8",
                                                "value": {
                                                    "current": "2",
                                                    "prev": "0",
                                                    "typeTag": 1
                                                }
                                            },
                                            {
                                                "name": "rollUnder",
                                                "type": "uint8",
                                                "value": {
                                                    "current": "1",
                                                    "prev": "0",
                                                    "typeTag": 1
                                                }
                                            },
                                            {
                                                "name": "placeBlockNumber",
                                                "type": "uint40",
                                                "value": {
                                                    "current": "7730714",
                                                    "prev": "0",
                                                    "typeTag": 1
                                                }
                                            },
                                            {
                                                "name": "mask",
                                                "type": "uint40",
                                                "value": {
                                                    "current": "1",
                                                    "prev": "0",
                                                    "typeTag": 1
                                                }
                                            },
                                            {
                                                "name": "gambler",
                                                "type": "address",
                                                "value": {
                                                    "current": "0x9d1f1bfcbf80d98f3f72946898a97811996eca85",
                                                    "prev": "0x0000000000000000000000000000000000000000",
                                                    "typeTag": 1
                                                }
                                            }
                                        ],
                                        "typeTag": 3
                                    }
                                }
                            ],
                            "typeTag": 4
                        }
                    },
                    {
                        "name": "jackpotSize",
                        "type": "uint128",
                        "value": {
                            "current": "466000000000000000",
                            "prev": "465000000000000000",
                            "typeTag": 1
                        }
                    },
                    {
                        "name": "lockedInBets",
                        "type": "uint128",
                        "value": {
                            "current": "431400000000000000",
                            "prev": "235400000000000000",
                            "typeTag": 1
                        }
                    }
                ]
            }
        ]
    }
}