{
    "balance_change": {
        "balanceChanges": [
            {
                "account": "0x8c721c1b9edccc73fa313eae01fc269c56d5b7d8",
                "assets": [
                    {
                        "address": "0xeeeeeeeeeeeeeeeeeeeeeeeeeeeeeeeeeeeeeeee",
                        "amount": "0.23689946",
                        "iconUrl": "https://assets.blocksec.com/image/1663669189317-3.png",
                        "isERC1155": false,
                        "isERC721": false,
                        "sign": false,
                        "value": ""
                    }
                ]
            },
            {
                "account": "0xc0c1cc82336f366b5a46f2690dc341fc60f791ed",
                "assets": [
                    {
                        "address": "0xeeeeeeeeeeeeeeeeeeeeeeeeeeeeeeeeeeeeeeee",
                        "amount": "0.23689946",
                        "iconUrl": "https://assets.blocksec.com/image/1663669189317-3.png",
                        "isERC1155": false,
                        "isERC721": false,
                        "sign": true,
                        "value": ""
                    }
                ]
            }
        ]
    },
    "profile": {
        "basic_info": {
            "baseFee": "",
            "blockNumber": 8879367,
            "callData": "0x39125215000000000000000000000000c0c1cc82336f366b5a46f2690dc341fc60f791ed0000000000000000000000000000000000000000000000000349a2cdc0c8280000000000000000000000000000000000000000000000000000000000000000c0000000000000000000000000000000000000000000000000000000005dcb071300000000000000000000000000000000000000000000000000000000000001aa0000000000000000000000000000000000000000000000000000000000000100000000000000000000000000000000000000000000000000000000000000000000000000000000000000000000000000000000000000000000000000000000000000000000000000000000000000000000000000000000000000000000000041adf91b82417e7053c890833356cc34387f19295f886484aa6a1deb050440f3d12a8442014701e80977ed0553b99a0d81b2b19f4d5e054591b4a811f534e1c8fc1c00000000000000000000000000000000000000000000000000000000000000",
            "debugEnable": true,
            "errorInfo": "",
            "eventCount": 1,
            "feeRecipient": "0x829bd824b016326a401d083b33d092293333a830",
            "formatValue": "0",
            "gasLimit": 70174,
            "gasPrice": "9",
            "gasUsed": 67605,
            "intTxnCount": 3,
            "internalRevert": false,
            "internalRevertMessage": "",
            "isContractCreation": false,
            "isFlashloan": false,
            "maxFee": "",
            "nonce": 423,
            "overwritedBlockNumber": -1,
            "priorityFee": "",
            "receiver": "0x8c721c1b9edccc73fa313eae01fc269c56d5b7d8",
            "revertMessage": "",
            "sender": "0xe215468390b0cc8e8ec977acbc11e11e976d65a1",
            "simulationEnable": true,
            "sourceTxnHash": "0x92d8fb5184263e2dc5f3fcb636ca0a652681601b5bac9aeec28ae3d0ad5906e9",
            "status": true,
            "timestamp": "2019-11-05T19:25:36Z",
            "transactionFee": "0.000608445",
            "txnHash": "0x92d8fb5184263e2dc5f3fcb636ca0a652681601b5bac9aeec28ae3d0ad5906e9",
            "txnIndex": 45,
            "type": 0,
            "value": "0"
        },
        "fund_flow": [
            {
                "amount": "0.23689946",
                "from": "0x8c721c1b9edccc73fa313eae01fc269c56d5b7d8",
                "id": 1,
                "isERC1155": false,
                "isERC721": false,
                "isReverted": false,
                "order": 1,
                "to": "0xc0c1cc82336f366b5a46f2690dc341fc60f791ed",
                "token": "0xeeeeeeeeeeeeeeeeeeeeeeeeeeeeeeeeeeeeeeee"
            }
        ],
        "token_infos": [
            {
                "address": "0xc02aaa39b223fe8d0a0e5c4f27ead9083c756cc2",
                "decimals": 18
            },
            {
                "address": "0xeeeeeeeeeeeeeeeeeeeeeeeeeeeeeeeeeeeeeeee",
                "decimals": 18
            }
        ]
    },
    "address_label": {
        "labels": [
            {
                "address": "0x0000000000000000000000000000000000000001",
                "label": "Precompiled"
            },
            {
                "address": "0x0000000000000000000000000000000000000002",
                "label": "Precompiled"
            },
            {
                "address": "0x0000000000000000000000000000000000000003",
                "label": "Precompiled"
            },
            {
                "address": "0x0000000000000000000000000000000000000004",
                "label": "Precompiled"
            },
            {
                "address": "0xeeeeeeeeeeeeeeeeeeeeeeeeeeeeeeeeeeeeeeee",
                "label": "Ether"
            },
            {
                "address": "0x5b9e8728e316bbeb692d22daaab74f6cbf2c4691",
                "label": "WalletSimple"
            }
        ]
    },
    "trace": {
        "accountLabels": null,
        "dataMap": {
            "-1": {
                "invocation": {
                    "address": "0xe215468390b0cc8e8ec977acbc11e11e976d65a1",
                    "callData": "",
                    "decodedMethod": null,
                    "errorInfo": "",
                    "fromAddress": "",
                    "gasUsed": 0,
                    "id": -1,
                    "methodDecoded": false,
                    "operation": "",
                    "output": "",
                    "revert": false,
                    "revertMessage": "",
                    "selector": "",
                    "status": false,
                    "value": ""
                },
                "nodeType": 0
            },
            "0": {
                "invocation": {
                    "address": "0x8c721c1b9edccc73fa313eae01fc269c56d5b7d8",
                    "callData": "0x000000000000000000000000c0c1cc82336f366b5a46f2690dc341fc60f791ed0000000000000000000000000000000000000000000000000349a2cdc0c8280000000000000000000000000000000000000000000000000000000000000000c0000000000000000000000000000000000000000000000000000000005dcb071300000000000000000000000000000000000000000000000000000000000001aa0000000000000000000000000000000000000000000000000000000000000100000000000000000000000000000000000000000000000000000000000000000000000000000000000000000000000000000000000000000000000000000000000000000000000000000000000000000000000000000000000000000000000041adf91b82417e7053c890833356cc34387f19295f886484aa6a1deb050440f3d12a8442014701e80977ed0553b99a0d81b2b19f4d5e054591b4a811f534e1c8fc1c00000000000000000000000000000000000000000000000000000000000000",
                    "decodedMethod": {
                        "callParams": [
                            {
                                "name": "toAddress",
                                "type": "address",
                                "value": "0xc0c1cc82336f366b5a46f2690dc341fc60f791ed"
                            },
                            {
                                "name": "value",
                                "type": "uint256",
                                "value": "236,899,460,000,000,000"
                            },
                            {
                                "name": "data",
                                "type": "bytes",
                                "value": "0x"
                            },
                            {
                                "name": "expireTime",
                                "type": "uint256",
                                "value": "1,573,586,707"
                            },
                            {
                                "name": "sequenceId",
                                "type": "uint256",
                                "value": "426"
                            },
                            {
                                "name": "signature",
                                "type": "bytes",
                                "value": "0xadf91b82417e7053c890833356cc34387f19295f886484aa6a1deb050440f3d12a8442014701e80977ed0553b99a0d81b2b19f4d5e054591b4a811f534e1c8fc1c"
                            }
                        ],
                        "constructorArguments": "",
                        "name": "sendMultiSig",
                        "returnParams": [],
                        "signature": "sendMultiSig(address,uint256,bytes,uint256,uint256,bytes)"
                    },
                    "errorInfo": "",
                    "fromAddress": "0xe215468390b0cc8e8ec977acbc11e11e976d65a1",
                    "gasUsed": 67605,
                    "id": 0,
                    "methodDecoded": true,
                    "operation": "CALL",
                    "output": "0x39125215000000000000000000000000c0c1cc82336f366b5a46f2690dc341fc",
                    "revert": false,
                    "revertMessage": "",
                    "selector": "0x39125215",
                    "status": true,
                    "value": "0"
                },
                "nodeType": 0
            },
            "1": {
                "invocation": {
                    "address": "0x5b9e8728e316bbeb692d22daaab74f6cbf2c4691",
                    "callData": "0x000000000000000000000000c0c1cc82336f366b5a46f2690dc341fc60f791ed0000000000000000000000000000000000000000000000000349a2cdc0c8280000000000000000000000000000000000000000000000000000000000000000c0000000000000000000000000000000000000000000000000000000005dcb071300000000000000000000000000000000000000000000000000000000000001aa0000000000000000000000000000000000000000000000000000000000000100000000000000000000000000000000000000000000000000000000000000000000000000000000000000000000000000000000000000000000000000000000000000000000000000000000000000000000000000000000000000000000000041adf91b82417e7053c890833356cc34387f19295f886484aa6a1deb050440f3d12a8442014701e80977ed0553b99a0d81b2b19f4d5e054591b4a811f534e1c8fc1c00000000000000000000000000000000000000000000000000000000000000",
                    "decodedMethod": {
                        "callParams": [
                            {
                                "name": "toAddress",
                                "type": "address",
                                "value": "0xc0c1cc82336f366b5a46f2690dc341fc60f791ed"
                            },
                            {
                                "name": "value",
                                "type": "uint256",
                                "value": "236,899,460,000,000,000"
                            },
                            {
                                "name": "data",
                                "type": "bytes",
                                "value": "0x"
                            },
                            {
                                "name": "expireTime",
                                "type": "uint256",
                                "value": "1,573,586,707"
                            },
                            {
                                "name": "sequenceId",
                                "type": "uint256",
                                "value": "426"
                            },
                            {
                                "name": "signature",
                                "type": "bytes",
                                "value": "0xadf91b82417e7053c890833356cc34387f19295f886484aa6a1deb050440f3d12a8442014701e80977ed0553b99a0d81b2b19f4d5e054591b4a811f534e1c8fc1c"
                            }
                        ],
                        "constructorArguments": "",
                        "name": "sendMultiSig",
                        "returnParams": [],
                        "signature": "sendMultiSig(address,uint256,bytes,uint256,uint256,bytes)"
                    },
                    "errorInfo": "",
                    "fromAddress": "0x8c721c1b9edccc73fa313eae01fc269c56d5b7d8",
                    "gasUsed": 37496,
                    "id": 1,
                    "methodDecoded": true,
                    "operation": "DELEGATECALL",
                    "output": "",
                    "revert": false,
                    "revertMessage": "",
                    "selector": "0x39125215",
                    "status": true,
                    "value": "0"
                },
                "nodeType": 0
            },
            "2": {
                "invocation": {
                    "address": "0x0000000000000000000000000000000000000001",
                    "callData": "0x4baa59984bede702c31a11947c55627559880408edd7f05a906b1250000000000000000000000000000000000000000000000000000000000000001cadf91b82417e7053c890833356cc34387f19295f886484aa6a1deb050440f3d12a8442014701e80977ed0553b99a0d81b2b19f4d5e054591b4a811f534e1c8fc",
                    "decodedMethod": {
                        "callParams": [
                            {
                                "name": "hash",
                                "type": "bytes32",
                                "value": "0xc830ac634baa59984bede702c31a11947c55627559880408edd7f05a906b1250"
                            },
                            {
                                "name": "v",
                                "type": "uint256",
                                "value": "28"
                            },
                            {
                                "name": "r",
                                "type": "bytes32",
                                "value": "0xadf91b82417e7053c890833356cc34387f19295f886484aa6a1deb050440f3d1"
                            },
                            {
                                "name": "s",
                                "type": "bytes32",
                                "value": "0x2a8442014701e80977ed0553b99a0d81b2b19f4d5e054591b4a811f534e1c8fc"
                            }
                        ],
                        "constructorArguments": "",
                        "name": "ecrecover",
                        "returnParams": [
                            {
                                "name": "",
                                "type": "address",
                                "value": "0x212408e0996a29b4bc3c29ba582c21cdb204973f"
                            }
                        ],
                        "signature": "ecrecover(bytes32,uint256,bytes32,bytes32)"
                    },
                    "errorInfo": "",
                    "fromAddress": "0x8c721c1b9edccc73fa313eae01fc269c56d5b7d8",
                    "gasUsed": 3000,
                    "id": 2,
                    "methodDecoded": true,
                    "operation": "CALL",
                    "output": "0x000000000000000000000000212408e0996a29b4bc3c29ba582c21cdb204973f",
                    "revert": false,
                    "revertMessage": "",
                    "selector": "0xc830ac63",
                    "status": true,
                    "value": "0"
                },
                "nodeType": 0
            },
            "3": {
                "invocation": {
                    "address": "0xc0c1cc82336f366b5a46f2690dc341fc60f791ed",
                    "callData": "0x",
                    "decodedMethod": null,
                    "errorInfo": "",
                    "fromAddress": "0x8c721c1b9edccc73fa313eae01fc269c56d5b7d8",
                    "gasUsed": 0,
                    "id": 3,
                    "methodDecoded": false,
                    "operation": "CALL",
                    "output": "",
                    "revert": false,
                    "revertMessage": "",
                    "selector": "fallback",
                    "status": true,
                    "value": "0.23689946"
                },
                "nodeType": 0
            },
            "4": {
                "event": {
                    "contract": "0x8c721c1b9edccc73fa313eae01fc269c56d5b7d8",
                    "decodedLog": {
                        "name": "Transacted",
                        "params": [
                            {
                                "name": "msgSender",
                                "type": "address",
                                "value": "0xe215468390b0cc8e8ec977acbc11e11e976d65a1"
                            },
                            {
                                "name": "otherSigner",
                                "type": "address",
                                "value": "0x212408e0996a29b4bc3c29ba582c21cdb204973f"
                            },
                            {
                                "name": "operation",
                                "type": "bytes32",
                                "value": "0xc830ac634baa59984bede702c31a11947c55627559880408edd7f05a906b1250"
                            },
                            {
                                "name": "toAddress",
                                "type": "address",
                                "value": "0xc0c1cc82336f366b5a46f2690dc341fc60f791ed"
                            },
                            {
                                "name": "value",
                                "type": "uint256",
                                "value": "236,899,460,000,000,000"
                            },
                            {
                                "name": "data",
                                "type": "bytes",
                                "value": "0x"
                            }
                        ],
                        "signature": "Transacted(address,address,bytes32,address,uint256,bytes)"
                    },
                    "id": 4,
                    "logData": "0x000000000000000000000000e215468390b0cc8e8ec977acbc11e11e976d65a1000000000000000000000000212408e0996a29b4bc3c29ba582c21cdb204973fc830ac634baa59984bede702c31a11947c55627559880408edd7f05a906b1250000000000000000000000000c0c1cc82336f366b5a46f2690dc341fc60f791ed0000000000000000000000000000000000000000000000000349a2cdc0c8280000000000000000000000000000000000000000000000000000000000000000c00000000000000000000000000000000000000000000000000000000000000000",
                    "logDecoded": true,
                    "operation": "EVENT",
                    "revert": false,
                    "status": true,
                    "topics": [
                        "0x59bed9ab5d78073465dd642a9e3e76dfdb7d53bcae9d09df7d0b8f5234d5a806"
                    ]
                },
                "nodeType": 1
            }
        },
        "gasFlame": [
            {
                "children": [
                    {
                        "children": [
                            {
                                "children": [],
                                "depth": 0,
                                "name": "Initial Gas",
                                "value": 29272
                            },
                            {
                                "children": [
                                    {
                                        "children": [
                                            {
                                                "children": [],
                                                "depth": 2,
                                                "name": "ecrecover",
                                                "value": 3000
                                            },
                                            {
                                                "children": [],
                                                "depth": 2,
                                                "name": "fallback",
                                                "value": 0
                                            }
                                        ],
                                        "depth": 1,
                                        "name": "sendMultiSig",
                                        "value": 37496
                                    }
                                ],
                                "depth": 0,
                                "name": "Executed Gas",
                                "value": 38333
                            }
                        ],
                        "depth": -1,
                        "name": "Actual Gas Used",
                        "value": 67605
                    },
                    {
                        "children": [],
                        "depth": -1,
                        "name": "Refunded Gas",
                        "value": 0
                    }
                ],
                "depth": -2,
                "name": "Total Gas",
                "value": 67605
            }
        ],
        "isConfirmed": true,
        "mainTrace": [
            {
                "children": [
                    {
                        "children": [
                            {
                                "children": [
                                    {
                                        "children": [],
                                        "depth": 2,
                                        "id": 2,
                                        "order": 2
                                    },
                                    {
                                        "children": [],
                                        "depth": 2,
                                        "id": 3,
                                        "order": 3
                                    },
                                    {
                                        "children": [],
                                        "depth": 2,
                                        "id": 4,
                                        "order": 4
                                    }
                                ],
                                "depth": 1,
                                "id": 1,
                                "order": 1
                            }
                        ],
                        "depth": 0,
                        "id": 0,
                        "order": 0
                    }
                ],
                "depth": -1,
                "id": -1,
                "order": -1
            }
        ],
        "mainTraceNodeCount": 5,
        "parentIdMap": {
            "0": -1,
            "1": 0,
            "2": 1,
            "3": 1,
            "4": 1
        },
        "tidyTrace": [
            {
                "children": [
                    {
                        "children": [
                            {
                                "children": [
                                    {
                                        "children": [],
                                        "depth": 2,
                                        "id": 2,
                                        "order": 2
                                    },
                                    {
                                        "children": [],
                                        "depth": 2,
                                        "id": 3,
                                        "order": 3
                                    },
                                    {
                                        "children": [],
                                        "depth": 2,
                                        "id": 4,
                                        "order": 4
                                    }
                                ],
                                "depth": 1,
                                "id": 1,
                                "order": 1
                            }
                        ],
                        "depth": 0,
                        "id": 0,
                        "order": 0
                    }
                ],
                "depth": -1,
                "id": -1,
                "order": -1
            }
        ],
        "tidyTraceNodeCount": 5
    },
    "state_change": {
        "stateChanges": [
            {
                "address": "0x8c721c1b9edccc73fa313eae01fc269c56d5b7d8",
                "erc": "",
                "slots": [
                    {
                        "current": "0x00000000000000000000000000000000000000000000000000000000000001aa",
                        "key": "0x0000000000000000000000000000000000000000000000000000000000000004",
                        "prev": "0x00000000000000000000000000000000000000000000000000000000000001a0"
                    }
                ],
                "storageVariables": []
            }
        ]
    }
}