{
    "balance_change": {
        "balanceChanges": [
            {
                "account": "0x2b763c03a2a5af346b363be10659d0530dfdeb09",
                "assets": [
                    {
                        "address": "0x3212b29e33587a00fb1c83346f5dbfa69a458923",
                        "amount": "0.133866",
                        "iconUrl": "",
                        "isERC1155": false,
                        "isERC721": false,
                        "sign": true,
                        "value": "5110.550641"
                    }
                ]
            },
            {
                "account": "0x0000000000000000000000000000000000000000",
                "assets": [
                    {
                        "address": "0x3212b29e33587a00fb1c83346f5dbfa69a458923",
                        "amount": "0.133866",
                        "iconUrl": "",
                        "isERC1155": false,
                        "isERC721": false,
                        "sign": false,
                        "value": "5110.550641"
                    }
                ]
            }
        ]
    },
    "profile": {
        "basic_info": {
            "baseFee": "",
            "blockNumber": 12498447,
            "callData": "0xdcdc7dd00000000000000000000000002b763c03a2a5af346b363be10659d0530dfdeb090000000000000000000000000000000000000000000000000000000000cc4368000000000000000000000000000000000000000000000000000000000000008000000000000000000000000000000000000000000000000000000000000000c0000000000000000000000000000000000000000000000000000000000000002045d5aedc45818a5d53ad5949a706ed200c280034337cbb7768deeace213260b60000000000000000000000000000000000000000000000000000000000000000",
            "debugEnable": true,
            "errorInfo": "",
            "eventCount": 2,
            "feeRecipient": "0xea674fdde714fd979de3edf0f56aa9716b898ec8",
            "formatValue": "0",
            "gasLimit": 120000,
            "gasPrice": "66",
            "gasUsed": 58035,
            "intTxnCount": 1,
            "internalRevert": false,
            "internalRevertMessage": "",
            "isContractCreation": false,
            "isFlashloan": false,
            "maxFee": "",
            "nonce": 8795,
            "overwritedBlockNumber": -1,
            "priorityFee": "",
            "receiver": "0x3212b29e33587a00fb1c83346f5dbfa69a458923",
            "revertMessage": "",
            "sender": "0x2b763c03a2a5af346b363be10659d0530dfdeb09",
            "simulationEnable": true,
            "sourceTxnHash": "0x931b704225d93412d27d139cd3e2b35695708bb7fcf26206a6291d5decfd3284",
            "status": true,
            "timestamp": "2021-05-24T17:40:49Z",
            "transactionFee": "0.00383031",
            "txnHash": "0x931b704225d93412d27d139cd3e2b35695708bb7fcf26206a6291d5decfd3284",
            "txnIndex": 98,
            "type": 0,
            "value": "0"
        },
        "fund_flow": [
            {
                "amount": "0.133866",
                "from": "0x0000000000000000000000000000000000000000",
                "id": 1,
                "isERC1155": false,
                "isERC721": false,
                "isReverted": false,
                "order": 1,
                "to": "0x2b763c03a2a5af346b363be10659d0530dfdeb09",
                "token": "0x3212b29e33587a00fb1c83346f5dbfa69a458923"
            }
        ],
        "token_infos": [
            {
                "address": "0x3212b29e33587a00fb1c83346f5dbfa69a458923",
                "decimals": 8
            },
            {
                "address": "0xc02aaa39b223fe8d0a0e5c4f27ead9083c756cc2",
                "decimals": 18
            },
            {
                "address": "0xeeeeeeeeeeeeeeeeeeeeeeeeeeeeeeeeeeeeeeee",
                "decimals": 18
            }
        ]
    },
    "address_label": {
        "labels": [
            {
                "address": "0x0000000000000000000000000000000000000004",
                "label": "Precompiled"
            },
            {
                "address": "0xeeeeeeeeeeeeeeeeeeeeeeeeeeeeeeeeeeeeeeee",
                "label": "Ether"
            },
            {
                "address": "0x1820a4b7618bde71dce8cdc73aab6c95905fad24",
                "label": "ERC1820Registry"
            },
            {
                "address": "0x0000000000000000000000000000000000000000",
                "label": "Null Address"
            },
            {
                "address": "0x3212b29e33587a00fb1c83346f5dbfa69a458923",
                "label": "imBTC Token"
            },
            {
                "address": "0x0000000000000000000000000000000000000001",
                "label": "Precompiled"
            },
            {
                "address": "0x0000000000000000000000000000000000000002",
                "label": "Precompiled"
            },
            {
                "address": "0x0000000000000000000000000000000000000003",
                "label": "Precompiled"
            }
        ]
    },
    "trace": {
        "accountLabels": null,
        "dataMap": {
            "-1": {
                "invocation": {
                    "address": "0x2b763c03a2a5af346b363be10659d0530dfdeb09",
                    "callData": "",
                    "decodedMethod": null,
                    "errorInfo": "",
                    "fromAddress": "",
                    "gasUsed": 0,
                    "id": -1,
                    "methodDecoded": false,
                    "operation": "",
                    "output": "",
                    "revert": false,
                    "revertMessage": "",
                    "selector": "",
                    "status": false,
                    "value": ""
                },
                "nodeType": 0
            },
            "0": {
                "invocation": {
                    "address": "0x3212b29e33587a00fb1c83346f5dbfa69a458923",
                    "callData": "0x0000000000000000000000002b763c03a2a5af346b363be10659d0530dfdeb090000000000000000000000000000000000000000000000000000000000cc4368000000000000000000000000000000000000000000000000000000000000008000000000000000000000000000000000000000000000000000000000000000c0000000000000000000000000000000000000000000000000000000000000002045d5aedc45818a5d53ad5949a706ed200c280034337cbb7768deeace213260b60000000000000000000000000000000000000000000000000000000000000000",
                    "decodedMethod": {
                        "callParams": [
                            {
                                "name": "recipient",
                                "type": "address",
                                "value": "0x2b763c03a2a5af346b363be10659d0530dfdeb09"
                            },
                            {
                                "name": "amount",
                                "type": "uint256",
                                "value": "13,386,600"
                            },
                            {
                                "name": "userData",
                                "type": "bytes",
                                "value": "0x45d5aedc45818a5d53ad5949a706ed200c280034337cbb7768deeace213260b6"
                            },
                            {
                                "name": "operatorData",
                                "type": "bytes",
                                "value": "0x"
                            }
                        ],
                        "constructorArguments": "",
                        "name": "mint",
                        "returnParams": [],
                        "signature": "mint(address,uint256,bytes,bytes)"
                    },
                    "errorInfo": "",
                    "fromAddress": "0x2b763c03a2a5af346b363be10659d0530dfdeb09",
                    "gasUsed": 58035,
                    "id": 0,
                    "methodDecoded": true,
                    "operation": "CALL",
                    "output": "",
                    "revert": false,
                    "revertMessage": "",
                    "selector": "0xdcdc7dd0",
                    "status": true,
                    "value": "0"
                },
                "nodeType": 0
            },
            "1": {
                "invocation": {
                    "address": "0x1820a4b7618bde71dce8cdc73aab6c95905fad24",
                    "callData": "0x0000000000000000000000002b763c03a2a5af346b363be10659d0530dfdeb09b281fc8c12954d22544db45de3159a39272895b169a852b314f9cc762e44c53b",
                    "decodedMethod": {
                        "callParams": [
                            {
                                "name": "_addr",
                                "type": "address",
                                "value": "0x2b763c03a2a5af346b363be10659d0530dfdeb09"
                            },
                            {
                                "name": "_interfaceHash",
                                "type": "bytes32",
                                "value": "0xb281fc8c12954d22544db45de3159a39272895b169a852b314f9cc762e44c53b"
                            }
                        ],
                        "constructorArguments": "",
                        "name": "getInterfaceImplementer",
                        "returnParams": [
                            {
                                "name": "",
                                "type": "address",
                                "value": "0x0000000000000000000000000000000000000000"
                            }
                        ],
                        "signature": "getInterfaceImplementer(address,bytes32)"
                    },
                    "errorInfo": "",
                    "fromAddress": "0x3212b29e33587a00fb1c83346f5dbfa69a458923",
                    "gasUsed": 2942,
                    "id": 1,
                    "methodDecoded": true,
                    "operation": "STATICCALL",
                    "output": "0x0000000000000000000000000000000000000000000000000000000000000000",
                    "revert": false,
                    "revertMessage": "",
                    "selector": "0xaabbb8ca",
                    "status": true,
                    "value": "0"
                },
                "nodeType": 0
            },
            "2": {
                "event": {
                    "contract": "0x3212b29e33587a00fb1c83346f5dbfa69a458923",
                    "decodedLog": {
                        "name": "Minted",
                        "params": [
                            {
                                "name": "operator",
                                "type": "address",
                                "value": "0x2b763c03a2a5af346b363be10659d0530dfdeb09"
                            },
                            {
                                "name": "to",
                                "type": "address",
                                "value": "0x2b763c03a2a5af346b363be10659d0530dfdeb09"
                            },
                            {
                                "name": "amount",
                                "type": "uint256",
                                "value": "13,386,600"
                            },
                            {
                                "name": "data",
                                "type": "bytes",
                                "value": "0x45d5aedc45818a5d53ad5949a706ed200c280034337cbb7768deeace213260b6"
                            },
                            {
                                "name": "operatorData",
                                "type": "bytes",
                                "value": "0x"
                            }
                        ],
                        "signature": "Minted(address,address,uint256,bytes,bytes)"
                    },
                    "id": 2,
                    "logData": "0x0000000000000000000000000000000000000000000000000000000000cc4368000000000000000000000000000000000000000000000000000000000000006000000000000000000000000000000000000000000000000000000000000000a0000000000000000000000000000000000000000000000000000000000000002045d5aedc45818a5d53ad5949a706ed200c280034337cbb7768deeace213260b60000000000000000000000000000000000000000000000000000000000000000",
                    "logDecoded": true,
                    "operation": "EVENT",
                    "revert": false,
                    "status": true,
                    "topics": [
                        "0x2fe5be0146f74c5bce36c0b80911af6c7d86ff27e89d5cfa61fc681327954e5d",
                        "0x0000000000000000000000002b763c03a2a5af346b363be10659d0530dfdeb09",
                        "0x0000000000000000000000002b763c03a2a5af346b363be10659d0530dfdeb09"
                    ]
                },
                "nodeType": 1
            },
            "3": {
                "event": {
                    "contract": "0x3212b29e33587a00fb1c83346f5dbfa69a458923",
                    "decodedLog": {
                        "name": "Transfer",
                        "params": [
                            {
                                "name": "from",
                                "type": "address",
                                "value": "0x0000000000000000000000000000000000000000"
                            },
                            {
                                "name": "to",
                                "type": "address",
                                "value": "0x2b763c03a2a5af346b363be10659d0530dfdeb09"
                            },
                            {
                                "decimalAvailable": true,
                                "name": "value",
                                "type": "uint256",
                                "value": "13,386,600"
                            }
                        ],
                        "signature": "Transfer(address,address,uint256)"
                    },
                    "id": 3,
                    "logData": "0x0000000000000000000000000000000000000000000000000000000000cc4368",
                    "logDecoded": true,
                    "operation": "EVENT",
                    "revert": false,
                    "status": true,
                    "topics": [
                        "0xddf252ad1be2c89b69c2b068fc378daa952ba7f163c4a11628f55a4df523b3ef",
                        "0x0000000000000000000000000000000000000000000000000000000000000000",
                        "0x0000000000000000000000002b763c03a2a5af346b363be10659d0530dfdeb09"
                    ]
                },
                "nodeType": 1
            }
        },
        "gasFlame": [
            {
                "children": [
                    {
                        "children": [
                            {
                                "children": [],
                                "depth": 0,
                                "name": "Initial Gas",
                                "value": 22644
                            },
                            {
                                "children": [
                                    {
                                        "children": [],
                                        "depth": 1,
                                        "name": "getInterfaceImplementer",
                                        "value": 2942
                                    }
                                ],
                                "depth": 0,
                                "name": "Executed Gas",
                                "value": 35391
                            }
                        ],
                        "depth": -1,
                        "name": "Actual Gas Used",
                        "value": 58035
                    },
                    {
                        "children": [],
                        "depth": -1,
                        "name": "Refunded Gas",
                        "value": 0
                    }
                ],
                "depth": -2,
                "name": "Total Gas",
                "value": 58035
            }
        ],
        "isConfirmed": true,
        "mainTrace": [
            {
                "children": [
                    {
                        "children": [
                            {
                                "children": [],
                                "depth": 1,
                                "id": 1,
                                "order": 1
                            },
                            {
                                "children": [],
                                "depth": 1,
                                "id": 2,
                                "order": 2
                            },
                            {
                                "children": [],
                                "depth": 1,
                                "id": 3,
                                "order": 3
                            }
                        ],
                        "depth": 0,
                        "id": 0,
                        "order": 0
                    }
                ],
                "depth": -1,
                "id": -1,
                "order": -1
            }
        ],
        "mainTraceNodeCount": 4,
        "parentIdMap": {
            "0": -1,
            "1": 0,
            "2": 0,
            "3": 0
        },
        "tidyTrace": [
            {
                "children": [
                    {
                        "children": [
                            {
                                "children": [],
                                "depth": 1,
                                "id": 2,
                                "order": 2
                            },
                            {
                                "children": [],
                                "depth": 1,
                                "id": 3,
                                "order": 3
                            }
                        ],
                        "depth": 0,
                        "id": 0,
                        "order": 0
                    }
                ],
                "depth": -1,
                "id": -1,
                "order": -1
            }
        ],
        "tidyTraceNodeCount": 3
    },
    "state_change": {
        "stateChanges": [
            {
                "address": "0x3212b29e33587a00fb1c83346f5dbfa69a458923",
                "erc": "ERC-20",
                "slots": [
                    {
                        "current": "0x0000000000000000000000000000000000000000000cd4929b653dcd52d0c711",
                        "key": "0xbb4572ed1d84f337e5750adae30f259a14d54a618048e776c51c4b6087393074",
                        "prev": "0x00000000000000000000000000000000000000000001c1d991209c522630c711"
                    },
                    {
                        "current": "0x000000000000000000000000000000000000000146520fef187b1928d0940000",
                        "key": "0x0000000000000000000000000000000000000000000000000000000000000002",
                        "prev": "0x00000000000000000000000000000000000000014646fd360e3677ada3f40000"
                    }
                ],
                "storageVariables": [
                    {
                        "name": "_totalSupply",
                        "type": "uint256",
                        "value": {
                            "current": "100991320365000000000000000000",
                            "prev": "100977933765000000000000000000",
                            "typeTag": 1
                        }
                    },
                    {
                        "name": "_balances",
                        "type": "mapping(address => struct EarnERC777.Balance)",
                        "value": {
                            "pairs": [
                                {
                                    "key": "0x2b763c03a2a5af346b363be10659d0530dfdeb09",
                                    "value": {
                                        "fields": [
                                            {
                                                "name": "value",
                                                "type": "uint256",
                                                "value": {
                                                    "current": "15510955951802677069924113",
                                                    "prev": "2124355951802677069924113",
                                                    "typeTag": 1
                                                }
                                            }
                                        ],
                                        "typeTag": 3
                                    }
                                }
                            ],
                            "typeTag": 4
                        }
                    }
                ]
            }
        ]
    }
}