{
    "balance_change": {
        "balanceChanges": [
            {
                "account": "0x06db912fdd786e66588f7cff33e84dba58c5bd31",
                "assets": [
                    {
                        "address": "0x488e0369f9bc5c40c002ea7c1fe4fd01a198801c",
                        "amount": "2,014.01",
                        "iconUrl": "",
                        "isERC1155": false,
                        "isERC721": false,
                        "sign": false,
                        "value": "2896.348331"
                    }
                ]
            },
            {
                "account": "0x5ca486786ae0cc9844f9b7420bb64fcaf265c11c",
                "assets": [
                    {
                        "address": "0x488e0369f9bc5c40c002ea7c1fe4fd01a198801c",
                        "amount": "2,014.01",
                        "iconUrl": "",
                        "isERC1155": false,
                        "isERC721": false,
                        "sign": true,
                        "value": "2896.348331"
                    }
                ]
            }
        ]
    },
    "profile": {
        "basic_info": {
            "baseFee": "",
            "blockNumber": 10963602,
            "callData": "0xa9059cbb0000000000000000000000005ca486786ae0cc9844f9b7420bb64fcaf265c11c00000000000000000000000000000000000000000000006d2e00e05154790000",
            "debugEnable": true,
            "errorInfo": "",
            "eventCount": 1,
            "feeRecipient": "0xea674fdde714fd979de3edf0f56aa9716b898ec8",
            "formatValue": "0",
            "gasLimit": 67400,
            "gasPrice": "146.300001604",
            "gasUsed": 51400,
            "intTxnCount": 0,
            "internalRevert": false,
            "internalRevertMessage": "",
            "isContractCreation": false,
            "isFlashloan": false,
            "maxFee": "",
            "nonce": 495,
            "overwritedBlockNumber": -1,
            "priorityFee": "",
            "receiver": "0x488e0369f9bc5c40c002ea7c1fe4fd01a198801c",
            "revertMessage": "",
            "sender": "0x06db912fdd786e66588f7cff33e84dba58c5bd31",
            "simulationEnable": true,
            "sourceTxnHash": "0x936c15bd4aa65cf07c41904607d3d812729f617bde68a4c25e1b176ba3f2f15e",
            "status": true,
            "timestamp": "2020-09-30T11:59:22Z",
            "transactionFee": "0.0075198200824456",
            "txnHash": "0x936c15bd4aa65cf07c41904607d3d812729f617bde68a4c25e1b176ba3f2f15e",
            "txnIndex": 85,
            "type": 0,
            "value": "0"
        },
        "fund_flow": [
            {
                "amount": "2,014.01",
                "from": "0x06db912fdd786e66588f7cff33e84dba58c5bd31",
                "id": 1,
                "isERC1155": false,
                "isERC721": false,
                "isReverted": false,
                "order": 1,
                "to": "0x5ca486786ae0cc9844f9b7420bb64fcaf265c11c",
                "token": "0x488e0369f9bc5c40c002ea7c1fe4fd01a198801c"
            }
        ],
        "token_infos": [
            {
                "address": "0x488e0369f9bc5c40c002ea7c1fe4fd01a198801c",
                "decimals": 18
            },
            {
                "address": "0xc02aaa39b223fe8d0a0e5c4f27ead9083c756cc2",
                "decimals": 18
            },
            {
                "address": "0xeeeeeeeeeeeeeeeeeeeeeeeeeeeeeeeeeeeeeeee",
                "decimals": 18
            }
        ]
    },
    "address_label": {
        "labels": [
            {
                "address": "0x0000000000000000000000000000000000000002",
                "label": "Precompiled"
            },
            {
                "address": "0x0000000000000000000000000000000000000003",
                "label": "Precompiled"
            },
            {
                "address": "0x0000000000000000000000000000000000000004",
                "label": "Precompiled"
            },
            {
                "address": "0xeeeeeeeeeeeeeeeeeeeeeeeeeeeeeeeeeeeeeeee",
                "label": "Ether"
            },
            {
                "address": "0x488e0369f9bc5c40c002ea7c1fe4fd01a198801c",
                "label": "Golff.Finance: GOF Token"
            },
            {
                "address": "0x5ca486786ae0cc9844f9b7420bb64fcaf265c11c",
                "label": "MEXC"
            },
            {
                "address": "0x0000000000000000000000000000000000000001",
                "label": "Precompiled"
            }
        ]
    },
    "trace": {
        "accountLabels": null,
        "dataMap": {
            "-1": {
                "invocation": {
                    "address": "0x06db912fdd786e66588f7cff33e84dba58c5bd31",
                    "callData": "",
                    "decodedMethod": null,
                    "errorInfo": "",
                    "fromAddress": "",
                    "gasUsed": 0,
                    "id": -1,
                    "methodDecoded": false,
                    "operation": "",
                    "output": "",
                    "revert": false,
                    "revertMessage": "",
                    "selector": "",
                    "status": false,
                    "value": ""
                },
                "nodeType": 0
            },
            "0": {
                "invocation": {
                    "address": "0x488e0369f9bc5c40c002ea7c1fe4fd01a198801c",
                    "callData": "0x0000000000000000000000005ca486786ae0cc9844f9b7420bb64fcaf265c11c00000000000000000000000000000000000000000000006d2e00e05154790000",
                    "decodedMethod": {
                        "callParams": [
                            {
                                "name": "recipient",
                                "type": "address",
                                "value": "0x5ca486786ae0cc9844f9b7420bb64fcaf265c11c"
                            },
                            {
                                "decimalAvailable": true,
                                "name": "amount",
                                "type": "uint256",
                                "value": "2,014,010,000,000,000,000,000"
                            }
                        ],
                        "constructorArguments": "",
                        "name": "transfer",
                        "returnParams": [
                            {
                                "name": "",
                                "type": "bool",
                                "value": true
                            }
                        ],
                        "signature": "transfer(address,uint256)"
                    },
                    "errorInfo": "",
                    "fromAddress": "0x06db912fdd786e66588f7cff33e84dba58c5bd31",
                    "gasUsed": 51400,
                    "id": 0,
                    "methodDecoded": true,
                    "operation": "CALL",
                    "output": "0x0000000000000000000000000000000000000000000000000000000000000001",
                    "revert": false,
                    "revertMessage": "",
                    "selector": "0xa9059cbb",
                    "status": true,
                    "value": "0"
                },
                "nodeType": 0
            },
            "1": {
                "event": {
                    "contract": "0x488e0369f9bc5c40c002ea7c1fe4fd01a198801c",
                    "decodedLog": {
                        "name": "Transfer",
                        "params": [
                            {
                                "name": "from",
                                "type": "address",
                                "value": "0x06db912fdd786e66588f7cff33e84dba58c5bd31"
                            },
                            {
                                "name": "to",
                                "type": "address",
                                "value": "0x5ca486786ae0cc9844f9b7420bb64fcaf265c11c"
                            },
                            {
                                "decimalAvailable": true,
                                "name": "value",
                                "type": "uint256",
                                "value": "2,014,010,000,000,000,000,000"
                            }
                        ],
                        "signature": "Transfer(address,address,uint256)"
                    },
                    "id": 1,
                    "logData": "0x00000000000000000000000000000000000000000000006d2e00e05154790000",
                    "logDecoded": true,
                    "operation": "EVENT",
                    "revert": false,
                    "status": true,
                    "topics": [
                        "0xddf252ad1be2c89b69c2b068fc378daa952ba7f163c4a11628f55a4df523b3ef",
                        "0x00000000000000000000000006db912fdd786e66588f7cff33e84dba58c5bd31",
                        "0x0000000000000000000000005ca486786ae0cc9844f9b7420bb64fcaf265c11c"
                    ]
                },
                "nodeType": 1
            }
        },
        "gasFlame": [
            {
                "children": [
                    {
                        "children": [
                            {
                                "children": [],
                                "depth": 0,
                                "name": "Initial Gas",
                                "value": 21632
                            },
                            {
                                "children": [],
                                "depth": 0,
                                "name": "Executed Gas",
                                "value": 29768
                            }
                        ],
                        "depth": -1,
                        "name": "Actual Gas Used",
                        "value": 51400
                    },
                    {
                        "children": [],
                        "depth": -1,
                        "name": "Refunded Gas",
                        "value": 0
                    }
                ],
                "depth": -2,
                "name": "Total Gas",
                "value": 51400
            }
        ],
        "isConfirmed": true,
        "mainTrace": [
            {
                "children": [
                    {
                        "children": [
                            {
                                "children": [],
                                "depth": 1,
                                "id": 1,
                                "order": 1
                            }
                        ],
                        "depth": 0,
                        "id": 0,
                        "order": 0
                    }
                ],
                "depth": -1,
                "id": -1,
                "order": -1
            }
        ],
        "mainTraceNodeCount": 2,
        "parentIdMap": {
            "0": -1,
            "1": 0
        },
        "tidyTrace": [
            {
                "children": [
                    {
                        "children": [
                            {
                                "children": [],
                                "depth": 1,
                                "id": 1,
                                "order": 1
                            }
                        ],
                        "depth": 0,
                        "id": 0,
                        "order": 0
                    }
                ],
                "depth": -1,
                "id": -1,
                "order": -1
            }
        ],
        "tidyTraceNodeCount": 2
    },
    "state_change": {
        "stateChanges": [
            {
                "address": "0x488e0369f9bc5c40c002ea7c1fe4fd01a198801c",
                "erc": "ERC-20",
                "slots": [
                    {
                        "current": "0x00000000000000000000000000000000000000000000004e6016dafb74810000",
                        "key": "0xd4a767b8e78ded39947a741fa7f75f1ef806b4a7b1a5fee9f5e5701ebc2feab8",
                        "prev": "0x0000000000000000000000000000000000000000000000bb8e17bb4cc8fa0000"
                    },
                    {
                        "current": "0x00000000000000000000000000000000000000000000006d2e00e05154790000",
                        "key": "0x7e24f851526a7e9f71546e06558e502f5e6f652deb2af4510b9933ca4974ebe1",
                        "prev": "0x0000000000000000000000000000000000000000000000000000000000000000"
                    }
                ],
                "storageVariables": [
                    {
                        "name": "_balances",
                        "type": "mapping(address => uint256)",
                        "value": {
                            "pairs": [
                                {
                                    "key": "0x06db912fdd786e66588f7cff33e84dba58c5bd31",
                                    "value": {
                                        "current": "1445770000000000000000",
                                        "prev": "3459780000000000000000",
                                        "typeTag": 1
                                    }
                                },
                                {
                                    "key": "0x5ca486786ae0cc9844f9b7420bb64fcaf265c11c",
                                    "value": {
                                        "current": "2014010000000000000000",
                                        "prev": "0",
                                        "typeTag": 1
                                    }
                                }
                            ],
                            "typeTag": 4
                        }
                    }
                ]
            }
        ]
    }
}