{
    "balance_change": {
        "balanceChanges": [
            {
                "account": "0x47bba492a403b230c9932a79f9945f2c5163f6bd",
                "assets": [
                    {
                        "address": "0xdac17f958d2ee523a2206206994597c13d831ec7",
                        "amount": "1,013.5342",
                        "iconUrl": "https://assets.blocksec.com/icon/fcea71f3193ce895be44bfdf941f7e4c9381dd587f273c2d1a27f1263d84e4ea.png",
                        "isERC1155": false,
                        "isERC721": false,
                        "sign": false,
                        "value": ""
                    }
                ]
            },
            {
                "account": "0xa03dcdd7b1cfd4a3ecdcc843bcef848e3b8dc859",
                "assets": [
                    {
                        "address": "0xdac17f958d2ee523a2206206994597c13d831ec7",
                        "amount": "1,013.5342",
                        "iconUrl": "https://assets.blocksec.com/icon/fcea71f3193ce895be44bfdf941f7e4c9381dd587f273c2d1a27f1263d84e4ea.png",
                        "isERC1155": false,
                        "isERC721": false,
                        "sign": true,
                        "value": ""
                    }
                ]
            }
        ]
    },
    "profile": {
        "basic_info": {
            "baseFee": "",
            "blockNumber": 8796869,
            "callData": "0xa9059cbb000000000000000000000000a03dcdd7b1cfd4a3ecdcc843bcef848e3b8dc859000000000000000000000000000000000000000000000000000000003c694df8",
            "debugEnable": true,
            "errorInfo": "",
            "eventCount": 1,
            "feeRecipient": "0xeea5b82b61424df8020f5fedd81767f2d0d25bfb",
            "formatValue": "0",
            "gasLimit": 60000,
            "gasPrice": "7.05",
            "gasUsed": 53465,
            "intTxnCount": 0,
            "internalRevert": false,
            "internalRevertMessage": "",
            "isContractCreation": false,
            "isFlashloan": false,
            "maxFee": "",
            "nonce": 17,
            "overwritedBlockNumber": -1,
            "priorityFee": "",
            "receiver": "0xdac17f958d2ee523a2206206994597c13d831ec7",
            "revertMessage": "",
            "sender": "0x47bba492a403b230c9932a79f9945f2c5163f6bd",
            "simulationEnable": true,
            "sourceTxnHash": "0x93c1665a18936ddece4b57bccee5a066a4cba55e2d20c6ddbb6e0d7f024b529b",
            "status": true,
            "timestamp": "2019-10-23T13:14:34Z",
            "transactionFee": "0.00037692825",
            "txnHash": "0x93c1665a18936ddece4b57bccee5a066a4cba55e2d20c6ddbb6e0d7f024b529b",
            "txnIndex": 60,
            "type": 0,
            "value": "0"
        },
        "fund_flow": [
            {
                "amount": "1,013.5342",
                "from": "0x47bba492a403b230c9932a79f9945f2c5163f6bd",
                "id": 1,
                "isERC1155": false,
                "isERC721": false,
                "isReverted": false,
                "order": 1,
                "to": "0xa03dcdd7b1cfd4a3ecdcc843bcef848e3b8dc859",
                "token": "0xdac17f958d2ee523a2206206994597c13d831ec7"
            }
        ],
        "token_infos": [
            {
                "address": "0xdac17f958d2ee523a2206206994597c13d831ec7",
                "decimals": 6
            },
            {
                "address": "0xeeeeeeeeeeeeeeeeeeeeeeeeeeeeeeeeeeeeeeee",
                "decimals": 18
            },
            {
                "address": "0xc02aaa39b223fe8d0a0e5c4f27ead9083c756cc2",
                "decimals": 18
            }
        ]
    },
    "address_label": {
        "labels": [
            {
                "address": "0x0000000000000000000000000000000000000002",
                "label": "Precompiled"
            },
            {
                "address": "0x0000000000000000000000000000000000000003",
                "label": "Precompiled"
            },
            {
                "address": "0x0000000000000000000000000000000000000004",
                "label": "Precompiled"
            },
            {
                "address": "0xeeeeeeeeeeeeeeeeeeeeeeeeeeeeeeeeeeeeeeee",
                "label": "Ether"
            },
            {
                "address": "0xa03dcdd7b1cfd4a3ecdcc843bcef848e3b8dc859",
                "label": "HUOBI"
            },
            {
                "address": "0xdac17f958d2ee523a2206206994597c13d831ec7",
                "label": "Tether: USDT Stablecoin"
            },
            {
                "address": "0x0000000000000000000000000000000000000001",
                "label": "Precompiled"
            }
        ]
    },
    "trace": {
        "accountLabels": null,
        "dataMap": {
            "-1": {
                "invocation": {
                    "address": "0x47bba492a403b230c9932a79f9945f2c5163f6bd",
                    "callData": "",
                    "decodedMethod": null,
                    "errorInfo": "",
                    "fromAddress": "",
                    "gasUsed": 0,
                    "id": -1,
                    "methodDecoded": false,
                    "operation": "",
                    "output": "",
                    "revert": false,
                    "revertMessage": "",
                    "selector": "",
                    "status": false,
                    "value": ""
                },
                "nodeType": 0
            },
            "0": {
                "invocation": {
                    "address": "0xdac17f958d2ee523a2206206994597c13d831ec7",
                    "callData": "0x000000000000000000000000a03dcdd7b1cfd4a3ecdcc843bcef848e3b8dc859000000000000000000000000000000000000000000000000000000003c694df8",
                    "decodedMethod": {
                        "callParams": [
                            {
                                "name": "_to",
                                "type": "address",
                                "value": "0xa03dcdd7b1cfd4a3ecdcc843bcef848e3b8dc859"
                            },
                            {
                                "decimalAvailable": true,
                                "name": "_value",
                                "type": "uint256",
                                "value": "1,013,534,200"
                            }
                        ],
                        "constructorArguments": "",
                        "name": "transfer",
                        "returnParams": [],
                        "signature": "transfer(address,uint256)"
                    },
                    "errorInfo": "",
                    "fromAddress": "0x47bba492a403b230c9932a79f9945f2c5163f6bd",
                    "gasUsed": 53465,
                    "id": 0,
                    "methodDecoded": true,
                    "operation": "CALL",
                    "output": "",
                    "revert": false,
                    "revertMessage": "",
                    "selector": "0xa9059cbb",
                    "status": true,
                    "value": "0"
                },
                "nodeType": 0
            },
            "1": {
                "event": {
                    "contract": "0xdac17f958d2ee523a2206206994597c13d831ec7",
                    "decodedLog": {
                        "name": "Transfer",
                        "params": [
                            {
                                "name": "from",
                                "type": "address",
                                "value": "0x47bba492a403b230c9932a79f9945f2c5163f6bd"
                            },
                            {
                                "name": "to",
                                "type": "address",
                                "value": "0xa03dcdd7b1cfd4a3ecdcc843bcef848e3b8dc859"
                            },
                            {
                                "decimalAvailable": true,
                                "name": "value",
                                "type": "uint256",
                                "value": "1,013,534,200"
                            }
                        ],
                        "signature": "Transfer(address,address,uint256)"
                    },
                    "id": 1,
                    "logData": "0x000000000000000000000000000000000000000000000000000000003c694df8",
                    "logDecoded": true,
                    "operation": "EVENT",
                    "revert": false,
                    "status": true,
                    "topics": [
                        "0xddf252ad1be2c89b69c2b068fc378daa952ba7f163c4a11628f55a4df523b3ef",
                        "0x00000000000000000000000047bba492a403b230c9932a79f9945f2c5163f6bd",
                        "0x000000000000000000000000a03dcdd7b1cfd4a3ecdcc843bcef848e3b8dc859"
                    ]
                },
                "nodeType": 1
            }
        },
        "gasFlame": [
            {
                "children": [
                    {
                        "children": [
                            {
                                "children": [],
                                "depth": 0,
                                "name": "Initial Gas",
                                "value": 23064
                            },
                            {
                                "children": [],
                                "depth": 0,
                                "name": "Executed Gas",
                                "value": 30401
                            }
                        ],
                        "depth": -1,
                        "name": "Actual Gas Used",
                        "value": 53465
                    },
                    {
                        "children": [],
                        "depth": -1,
                        "name": "Refunded Gas",
                        "value": 0
                    }
                ],
                "depth": -2,
                "name": "Total Gas",
                "value": 53465
            }
        ],
        "isConfirmed": true,
        "mainTrace": [
            {
                "children": [
                    {
                        "children": [
                            {
                                "children": [],
                                "depth": 1,
                                "id": 1,
                                "order": 1
                            }
                        ],
                        "depth": 0,
                        "id": 0,
                        "order": 0
                    }
                ],
                "depth": -1,
                "id": -1,
                "order": -1
            }
        ],
        "mainTraceNodeCount": 2,
        "parentIdMap": {
            "0": -1,
            "1": 0
        },
        "tidyTrace": [
            {
                "children": [
                    {
                        "children": [
                            {
                                "children": [],
                                "depth": 1,
                                "id": 1,
                                "order": 1
                            }
                        ],
                        "depth": 0,
                        "id": 0,
                        "order": 0
                    }
                ],
                "depth": -1,
                "id": -1,
                "order": -1
            }
        ],
        "tidyTraceNodeCount": 2
    },
    "state_change": {
        "stateChanges": [
            {
                "address": "0xdac17f958d2ee523a2206206994597c13d831ec7",
                "erc": "ERC-20",
                "slots": [
                    {
                        "current": "0x0000000000000000000000000000000000000000000000000000000000000047",
                        "key": "0xf3131aef8ab30efc688d815fe3b5bbc6ecf1c58b7083970d15b6045a06957f52",
                        "prev": "0x000000000000000000000000000000000000000000000000000000003c694e3f"
                    },
                    {
                        "current": "0x000000000000000000000000000000000000000000000000000000003c694df8",
                        "key": "0x8298b35598bbeeeb7f9c12685dc4b09a5dea4c9efa43f314832c1a6819207ba9",
                        "prev": "0x0000000000000000000000000000000000000000000000000000000000000000"
                    }
                ],
                "storageVariables": [
                    {
                        "name": "balances",
                        "type": "mapping(address => uint256)",
                        "value": {
                            "pairs": [
                                {
                                    "key": "0x47bba492a403b230c9932a79f9945f2c5163f6bd",
                                    "value": {
                                        "current": "71",
                                        "prev": "1013534271",
                                        "typeTag": 1
                                    }
                                },
                                {
                                    "key": "0xa03dcdd7b1cfd4a3ecdcc843bcef848e3b8dc859",
                                    "value": {
                                        "current": "1013534200",
                                        "prev": "0",
                                        "typeTag": 1
                                    }
                                }
                            ],
                            "typeTag": 4
                        }
                    }
                ]
            }
        ]
    }
}