{
    "balance_change": {
        "balanceChanges": [
            {
                "account": "0x1ba39ee8709f6938747b71634e14741230e06baa",
                "assets": [
                    {
                        "address": "0xeeeeeeeeeeeeeeeeeeeeeeeeeeeeeeeeeeeeeeee",
                        "amount": "0.04147018408156056",
                        "iconUrl": "https://assets.blocksec.com/image/1663669189317-3.png",
                        "isERC1155": false,
                        "isERC721": false,
                        "sign": false,
                        "value": "67.36084940482559736"
                    },
                    {
                        "address": "0x9b120fa54444ce699e5d0887ea2d8fd0bd68980e",
                        "amount": "592,777.67",
                        "iconUrl": "",
                        "isERC1155": false,
                        "isERC721": false,
                        "sign": true,
                        "value": "64.90752997"
                    }
                ]
            },
            {
                "account": "0x9e15ab99f119917aeaada40d6593bda7cca84662",
                "assets": [
                    {
                        "address": "0xc02aaa39b223fe8d0a0e5c4f27ead9083c756cc2",
                        "amount": "0.04147018408156056",
                        "iconUrl": "https://assets.blocksec.com/icon/f1cb2d02c471d545bbc7722daf3277fd852d98e63d118771af7047bd8256c516.png",
                        "isERC1155": false,
                        "isERC721": false,
                        "sign": true,
                        "value": "67.36084940482559736"
                    },
                    {
                        "address": "0x9b120fa54444ce699e5d0887ea2d8fd0bd68980e",
                        "amount": "592,777.67",
                        "iconUrl": "",
                        "isERC1155": false,
                        "isERC721": false,
                        "sign": false,
                        "value": "64.90752997"
                    }
                ]
            },
            {
                "account": "0xc02aaa39b223fe8d0a0e5c4f27ead9083c756cc2",
                "assets": [
                    {
                        "address": "0xeeeeeeeeeeeeeeeeeeeeeeeeeeeeeeeeeeeeeeee",
                        "amount": "0.04147018408156056",
                        "iconUrl": "https://assets.blocksec.com/image/1663669189317-3.png",
                        "isERC1155": false,
                        "isERC721": false,
                        "sign": true,
                        "value": "67.36084940482559736"
                    },
                    {
                        "address": "0xc02aaa39b223fe8d0a0e5c4f27ead9083c756cc2",
                        "amount": "0.04147018408156056",
                        "iconUrl": "https://assets.blocksec.com/icon/f1cb2d02c471d545bbc7722daf3277fd852d98e63d118771af7047bd8256c516.png",
                        "isERC1155": false,
                        "isERC721": false,
                        "sign": false,
                        "value": "67.36084940482559736"
                    }
                ]
            }
        ]
    },
    "profile": {
        "basic_info": {
            "baseFee": "20.890947504",
            "blockNumber": 15854963,
            "callData": "0x5ae401dc00000000000000000000000000000000000000000000000000000000635d5e4f000000000000000000000000000000000000000000000000000000000000004000000000000000000000000000000000000000000000000000000000000000020000000000000000000000000000000000000000000000000000000000000040000000000000000000000000000000000000000000000000000000000000016000000000000000000000000000000000000000000000000000000000000000e442712a6700000000000000000000000000000000000000000000000000022bcd5e12c60000000000000000000000000000000000000000000000000000959fb41bad217600000000000000000000000000000000000000000000000000000000000000800000000000000000000000001ba39ee8709f6938747b71634e14741230e06baa0000000000000000000000000000000000000000000000000000000000000002000000000000000000000000c02aaa39b223fe8d0a0e5c4f27ead9083c756cc20000000000000000000000009b120fa54444ce699e5d0887ea2d8fd0bd68980e00000000000000000000000000000000000000000000000000000000000000000000000000000000000000000000000000000000000000000000000412210e8a00000000000000000000000000000000000000000000000000000000",
            "debugEnable": true,
            "errorInfo": "",
            "eventCount": 5,
            "feeRecipient": "0xdafea492d9c6733ae3d56b7ed1adb60692c98bc5",
            "formatValue": "0.042115367437148534",
            "gasLimit": 234354,
            "gasPrice": "22.390947504",
            "gasUsed": 171331,
            "intTxnCount": 12,
            "internalRevert": false,
            "internalRevertMessage": "",
            "isContractCreation": false,
            "isFlashloan": false,
            "maxFee": "31.139728322",
            "nonce": 559,
            "overwritedBlockNumber": -1,
            "priorityFee": "1.5",
            "receiver": "0x68b3465833fb72a70ecdf485e0e4c7bd8665fc45",
            "revertMessage": "",
            "sender": "0x1ba39ee8709f6938747b71634e14741230e06baa",
            "simulationEnable": true,
            "sourceTxnHash": "0x93916fdd041b2150626038ca1a6e98c1c987cac2e4fd915838b7a27886f372c7",
            "status": true,
            "timestamp": "2022-10-29T16:40:11Z",
            "transactionFee": "0.003836263426807824",
            "txnHash": "0x93916fdd041b2150626038ca1a6e98c1c987cac2e4fd915838b7a27886f372c7",
            "txnIndex": 145,
            "type": 2,
            "value": "42115367437148534"
        },
        "fund_flow": [
            {
                "amount": "0.042115367437148534",
                "from": "0x1ba39ee8709f6938747b71634e14741230e06baa",
                "id": 1,
                "isERC1155": false,
                "isERC721": false,
                "isReverted": false,
                "order": 1,
                "to": "0x68b3465833fb72a70ecdf485e0e4c7bd8665fc45",
                "token": "0xeeeeeeeeeeeeeeeeeeeeeeeeeeeeeeeeeeeeeeee"
            },
            {
                "amount": "0.04147018408156056",
                "from": "0x68b3465833fb72a70ecdf485e0e4c7bd8665fc45",
                "id": 2,
                "isERC1155": false,
                "isERC721": false,
                "isReverted": false,
                "order": 2,
                "to": "0xc02aaa39b223fe8d0a0e5c4f27ead9083c756cc2",
                "token": "0xeeeeeeeeeeeeeeeeeeeeeeeeeeeeeeeeeeeeeeee"
            },
            {
                "amount": "0.04147018408156056",
                "from": "0xc02aaa39b223fe8d0a0e5c4f27ead9083c756cc2",
                "id": 3,
                "isERC1155": false,
                "isERC721": false,
                "isReverted": false,
                "order": 3,
                "to": "0x68b3465833fb72a70ecdf485e0e4c7bd8665fc45",
                "token": "0xc02aaa39b223fe8d0a0e5c4f27ead9083c756cc2"
            },
            {
                "amount": "0.04147018408156056",
                "from": "0x68b3465833fb72a70ecdf485e0e4c7bd8665fc45",
                "id": 4,
                "isERC1155": false,
                "isERC721": false,
                "isReverted": false,
                "order": 4,
                "to": "0x9e15ab99f119917aeaada40d6593bda7cca84662",
                "token": "0xc02aaa39b223fe8d0a0e5c4f27ead9083c756cc2"
            },
            {
                "amount": "592,777.67",
                "from": "0x9e15ab99f119917aeaada40d6593bda7cca84662",
                "id": 5,
                "isERC1155": false,
                "isERC721": false,
                "isReverted": false,
                "order": 5,
                "to": "0x1ba39ee8709f6938747b71634e14741230e06baa",
                "token": "0x9b120fa54444ce699e5d0887ea2d8fd0bd68980e"
            },
            {
                "amount": "0.000645183355587974",
                "from": "0x68b3465833fb72a70ecdf485e0e4c7bd8665fc45",
                "id": 6,
                "isERC1155": false,
                "isERC721": false,
                "isReverted": false,
                "order": 6,
                "to": "0x1ba39ee8709f6938747b71634e14741230e06baa",
                "token": "0xeeeeeeeeeeeeeeeeeeeeeeeeeeeeeeeeeeeeeeee"
            }
        ],
        "token_infos": [
            {
                "address": "0xeeeeeeeeeeeeeeeeeeeeeeeeeeeeeeeeeeeeeeee",
                "decimals": 18
            },
            {
                "address": "0x9b120fa54444ce699e5d0887ea2d8fd0bd68980e",
                "decimals": 9
            },
            {
                "address": "0xc02aaa39b223fe8d0a0e5c4f27ead9083c756cc2",
                "decimals": 18
            }
        ]
    },
    "address_label": {
        "labels": [
            {
                "address": "0xeeeeeeeeeeeeeeeeeeeeeeeeeeeeeeeeeeeeeeee",
                "label": "Ether"
            },
            {
                "address": "0x9e15ab99f119917aeaada40d6593bda7cca84662",
                "label": "Uniswap V2: FOGE 7"
            },
            {
                "address": "0x0000000000000000000000000000000000000001",
                "label": "Precompiled"
            },
            {
                "address": "0x0000000000000000000000000000000000000002",
                "label": "Precompiled"
            },
            {
                "address": "0x0000000000000000000000000000000000000004",
                "label": "Precompiled"
            },
            {
                "address": "0xc02aaa39b223fe8d0a0e5c4f27ead9083c756cc2",
                "label": "Wrapped Ether (WETH)"
            },
            {
                "address": "0x68b3465833fb72a70ecdf485e0e4c7bd8665fc45",
                "label": "Uniswap V3: Router 2"
            },
            {
                "address": "0x9b120fa54444ce699e5d0887ea2d8fd0bd68980e",
                "label": "FOGE"
            },
            {
                "address": "0x0000000000000000000000000000000000000003",
                "label": "Precompiled"
            }
        ]
    },
    "trace": {
        "accountLabels": null,
        "dataMap": {
            "-1": {
                "invocation": {
                    "address": "0x1ba39ee8709f6938747b71634e14741230e06baa",
                    "callData": "",
                    "decodedMethod": null,
                    "errorInfo": "",
                    "fromAddress": "",
                    "gasUsed": 0,
                    "id": -1,
                    "methodDecoded": false,
                    "operation": "",
                    "output": "",
                    "revert": false,
                    "revertMessage": "",
                    "selector": "",
                    "status": false,
                    "value": ""
                },
                "nodeType": 0
            },
            "0": {
                "invocation": {
                    "address": "0x68b3465833fb72a70ecdf485e0e4c7bd8665fc45",
                    "callData": "0x00000000000000000000000000000000000000000000000000000000635d5e4f000000000000000000000000000000000000000000000000000000000000004000000000000000000000000000000000000000000000000000000000000000020000000000000000000000000000000000000000000000000000000000000040000000000000000000000000000000000000000000000000000000000000016000000000000000000000000000000000000000000000000000000000000000e442712a6700000000000000000000000000000000000000000000000000022bcd5e12c60000000000000000000000000000000000000000000000000000959fb41bad217600000000000000000000000000000000000000000000000000000000000000800000000000000000000000001ba39ee8709f6938747b71634e14741230e06baa0000000000000000000000000000000000000000000000000000000000000002000000000000000000000000c02aaa39b223fe8d0a0e5c4f27ead9083c756cc20000000000000000000000009b120fa54444ce699e5d0887ea2d8fd0bd68980e00000000000000000000000000000000000000000000000000000000000000000000000000000000000000000000000000000000000000000000000412210e8a00000000000000000000000000000000000000000000000000000000",
                    "decodedMethod": {
                        "callParams": [
                            {
                                "name": "deadline",
                                "type": "uint256",
                                "value": "1,667,063,375"
                            },
                            {
                                "name": "data",
                                "type": "bytes[]",
                                "value": [
                                    "0x42712a6700000000000000000000000000000000000000000000000000022bcd5e12c60000000000000000000000000000000000000000000000000000959fb41bad217600000000000000000000000000000000000000000000000000000000000000800000000000000000000000001ba39ee8709f6938747b71634e14741230e06baa0000000000000000000000000000000000000000000000000000000000000002000000000000000000000000c02aaa39b223fe8d0a0e5c4f27ead9083c756cc20000000000000000000000009b120fa54444ce699e5d0887ea2d8fd0bd68980e",
                                    "0x12210e8a"
                                ]
                            }
                        ],
                        "constructorArguments": "",
                        "name": "multicall",
                        "returnParams": [
                            {
                                "name": "",
                                "type": "bytes[]",
                                "value": [
                                    "0x000000000000000000000000000000000000000000000000009354e9a6f393f0",
                                    "0x"
                                ]
                            }
                        ],
                        "signature": "multicall(uint256,bytes[])"
                    },
                    "errorInfo": "",
                    "fromAddress": "0x1ba39ee8709f6938747b71634e14741230e06baa",
                    "gasUsed": 171331,
                    "id": 0,
                    "methodDecoded": true,
                    "operation": "CALL",
                    "output": "0x00000000000000000000000000000000000000000000000000000000000000200000000000000000000000000000000000000000000000000000000000000002000000000000000000000000000000000000000000000000000000000000004000000000000000000000000000000000000000000000000000000000000000800000000000000000000000000000000000000000000000000000000000000020000000000000000000000000000000000000000000000000009354e9a6f393f00000000000000000000000000000000000000000000000000000000000000000",
                    "revert": false,
                    "revertMessage": "",
                    "selector": "0x5ae401dc",
                    "status": true,
                    "value": "0.042115367437148534"
                },
                "nodeType": 0
            },
            "1": {
                "invocation": {
                    "address": "0x68b3465833fb72a70ecdf485e0e4c7bd8665fc45",
                    "callData": "0x00000000000000000000000000000000000000000000000000022bcd5e12c60000000000000000000000000000000000000000000000000000959fb41bad217600000000000000000000000000000000000000000000000000000000000000800000000000000000000000001ba39ee8709f6938747b71634e14741230e06baa0000000000000000000000000000000000000000000000000000000000000002000000000000000000000000c02aaa39b223fe8d0a0e5c4f27ead9083c756cc20000000000000000000000009b120fa54444ce699e5d0887ea2d8fd0bd68980e",
                    "decodedMethod": {
                        "callParams": [
                            {
                                "name": "amountOut",
                                "type": "uint256",
                                "value": "611,111,000,000,000"
                            },
                            {
                                "name": "amountInMax",
                                "type": "uint256",
                                "value": "42,115,367,437,148,534"
                            },
                            {
                                "name": "path",
                                "type": "address[]",
                                "value": [
                                    "0xc02aaa39b223fe8d0a0e5c4f27ead9083c756cc2",
                                    "0x9b120fa54444ce699e5d0887ea2d8fd0bd68980e"
                                ]
                            },
                            {
                                "name": "to",
                                "type": "address",
                                "value": "0x1ba39ee8709f6938747b71634e14741230e06baa"
                            }
                        ],
                        "constructorArguments": "",
                        "name": "swapTokensForExactTokens",
                        "returnParams": [
                            {
                                "name": "amountIn",
                                "type": "uint256",
                                "value": "41,470,184,081,560,560"
                            }
                        ],
                        "signature": "swapTokensForExactTokens(uint256,uint256,address[],address)"
                    },
                    "errorInfo": "",
                    "fromAddress": "0x68b3465833fb72a70ecdf485e0e4c7bd8665fc45",
                    "gasUsed": 159170,
                    "id": 1,
                    "methodDecoded": true,
                    "operation": "DELEGATECALL",
                    "output": "0x000000000000000000000000000000000000000000000000009354e9a6f393f0",
                    "revert": false,
                    "revertMessage": "",
                    "selector": "0x42712a67",
                    "status": true,
                    "value": "0.042115367437148534"
                },
                "nodeType": 0
            },
            "10": {
                "invocation": {
                    "address": "0x9b120fa54444ce699e5d0887ea2d8fd0bd68980e",
                    "callData": "0x0000000000000000000000001ba39ee8709f6938747b71634e14741230e06baa00000000000000000000000000000000000000000000000000022bcd5e12c600",
                    "decodedMethod": {
                        "callParams": [
                            {
                                "name": "recipient",
                                "type": "address",
                                "value": "0x1ba39ee8709f6938747b71634e14741230e06baa"
                            },
                            {
                                "decimalAvailable": true,
                                "name": "amount",
                                "type": "uint256",
                                "value": "611,111,000,000,000"
                            }
                        ],
                        "constructorArguments": "",
                        "name": "transfer",
                        "returnParams": [
                            {
                                "name": "",
                                "type": "bool",
                                "value": true
                            }
                        ],
                        "signature": "transfer(address,uint256)"
                    },
                    "errorInfo": "",
                    "fromAddress": "0x9e15ab99f119917aeaada40d6593bda7cca84662",
                    "gasUsed": 64805,
                    "id": 10,
                    "methodDecoded": true,
                    "operation": "CALL",
                    "output": "0x0000000000000000000000000000000000000000000000000000000000000001",
                    "revert": false,
                    "revertMessage": "",
                    "selector": "0xa9059cbb",
                    "status": true,
                    "value": "0"
                },
                "nodeType": 0
            },
            "11": {
                "event": {
                    "contract": "0x9b120fa54444ce699e5d0887ea2d8fd0bd68980e",
                    "decodedLog": {
                        "name": "Transfer",
                        "params": [
                            {
                                "name": "from",
                                "type": "address",
                                "value": "0x9e15ab99f119917aeaada40d6593bda7cca84662"
                            },
                            {
                                "name": "to",
                                "type": "address",
                                "value": "0x1ba39ee8709f6938747b71634e14741230e06baa"
                            },
                            {
                                "decimalAvailable": true,
                                "name": "value",
                                "type": "uint256",
                                "value": "592,777,670,000,000"
                            }
                        ],
                        "signature": "Transfer(address,address,uint256)"
                    },
                    "id": 11,
                    "logData": "0x00000000000000000000000000000000000000000000000000021b20ce737d80",
                    "logDecoded": true,
                    "operation": "EVENT",
                    "revert": false,
                    "status": true,
                    "topics": [
                        "0xddf252ad1be2c89b69c2b068fc378daa952ba7f163c4a11628f55a4df523b3ef",
                        "0x0000000000000000000000009e15ab99f119917aeaada40d6593bda7cca84662",
                        "0x0000000000000000000000001ba39ee8709f6938747b71634e14741230e06baa"
                    ]
                },
                "nodeType": 1
            },
            "12": {
                "invocation": {
                    "address": "0x9b120fa54444ce699e5d0887ea2d8fd0bd68980e",
                    "callData": "0x0000000000000000000000009e15ab99f119917aeaada40d6593bda7cca84662",
                    "decodedMethod": {
                        "callParams": [
                            {
                                "name": "account",
                                "type": "address",
                                "value": "0x9e15ab99f119917aeaada40d6593bda7cca84662"
                            }
                        ],
                        "constructorArguments": "",
                        "name": "balanceOf",
                        "returnParams": [
                            {
                                "decimalAvailable": true,
                                "name": "",
                                "type": "uint256",
                                "value": "125,151,944,843,010,845"
                            }
                        ],
                        "signature": "balanceOf(address)"
                    },
                    "errorInfo": "",
                    "fromAddress": "0x9e15ab99f119917aeaada40d6593bda7cca84662",
                    "gasUsed": 2654,
                    "id": 12,
                    "methodDecoded": true,
                    "operation": "STATICCALL",
                    "output": "0x00000000000000000000000000000000000000000000000001bca107df51231d",
                    "revert": false,
                    "revertMessage": "",
                    "selector": "0x70a08231",
                    "status": true,
                    "value": "0"
                },
                "nodeType": 0
            },
            "13": {
                "invocation": {
                    "address": "0xc02aaa39b223fe8d0a0e5c4f27ead9083c756cc2",
                    "callData": "0x0000000000000000000000009e15ab99f119917aeaada40d6593bda7cca84662",
                    "decodedMethod": {
                        "callParams": [
                            {
                                "name": "",
                                "type": "address",
                                "value": "0x9e15ab99f119917aeaada40d6593bda7cca84662"
                            }
                        ],
                        "constructorArguments": "",
                        "name": "balanceOf",
                        "returnParams": [
                            {
                                "decimalAvailable": true,
                                "name": "",
                                "type": "uint256",
                                "value": "8,508,841,853,438,778,199"
                            }
                        ],
                        "signature": "balanceOf(address)"
                    },
                    "errorInfo": "",
                    "fromAddress": "0x9e15ab99f119917aeaada40d6593bda7cca84662",
                    "gasUsed": 534,
                    "id": 13,
                    "methodDecoded": true,
                    "operation": "STATICCALL",
                    "output": "0x00000000000000000000000000000000000000000000000076157a957c31db57",
                    "revert": false,
                    "revertMessage": "",
                    "selector": "0x70a08231",
                    "status": true,
                    "value": "0"
                },
                "nodeType": 0
            },
            "14": {
                "event": {
                    "contract": "0x9e15ab99f119917aeaada40d6593bda7cca84662",
                    "decodedLog": {
                        "name": "Sync",
                        "params": [
                            {
                                "name": "reserve0",
                                "type": "uint112",
                                "value": "125,151,944,843,010,845"
                            },
                            {
                                "name": "reserve1",
                                "type": "uint112",
                                "value": "8,508,841,853,438,778,199"
                            }
                        ],
                        "signature": "Sync(uint112,uint112)"
                    },
                    "id": 14,
                    "logData": "0x00000000000000000000000000000000000000000000000001bca107df51231d00000000000000000000000000000000000000000000000076157a957c31db57",
                    "logDecoded": true,
                    "operation": "EVENT",
                    "revert": false,
                    "status": true,
                    "topics": [
                        "0x1c411e9a96e071241c2f21f7726b17ae89e3cab4c78be50e062b03a9fffbbad1"
                    ]
                },
                "nodeType": 1
            },
            "15": {
                "event": {
                    "contract": "0x9e15ab99f119917aeaada40d6593bda7cca84662",
                    "decodedLog": {
                        "name": "Swap",
                        "params": [
                            {
                                "name": "sender",
                                "type": "address",
                                "value": "0x68b3465833fb72a70ecdf485e0e4c7bd8665fc45"
                            },
                            {
                                "name": "to",
                                "type": "address",
                                "value": "0x1ba39ee8709f6938747b71634e14741230e06baa"
                            },
                            {
                                "name": "amount0In",
                                "type": "uint256",
                                "value": "0"
                            },
                            {
                                "name": "amount1In",
                                "type": "uint256",
                                "value": "41,470,184,081,560,560"
                            },
                            {
                                "name": "amount0Out",
                                "type": "uint256",
                                "value": "611,111,000,000,000"
                            },
                            {
                                "name": "amount1Out",
                                "type": "uint256",
                                "value": "0"
                            }
                        ],
                        "signature": "Swap(address,uint256,uint256,uint256,uint256,address)"
                    },
                    "id": 15,
                    "logData": "0x0000000000000000000000000000000000000000000000000000000000000000000000000000000000000000000000000000000000000000009354e9a6f393f000000000000000000000000000000000000000000000000000022bcd5e12c6000000000000000000000000000000000000000000000000000000000000000000",
                    "logDecoded": true,
                    "operation": "EVENT",
                    "revert": false,
                    "status": true,
                    "topics": [
                        "0xd78ad95fa46c994b6551d0da85fc275fe613ce37657fb8d5e3d130840159d822",
                        "0x00000000000000000000000068b3465833fb72a70ecdf485e0e4c7bd8665fc45",
                        "0x0000000000000000000000001ba39ee8709f6938747b71634e14741230e06baa"
                    ]
                },
                "nodeType": 1
            },
            "16": {
                "invocation": {
                    "address": "0x68b3465833fb72a70ecdf485e0e4c7bd8665fc45",
                    "callData": "0x",
                    "decodedMethod": {
                        "callParams": [],
                        "constructorArguments": "",
                        "name": "refundETH",
                        "returnParams": [],
                        "signature": "refundETH()"
                    },
                    "errorInfo": "",
                    "fromAddress": "0x68b3465833fb72a70ecdf485e0e4c7bd8665fc45",
                    "gasUsed": 7468,
                    "id": 16,
                    "methodDecoded": true,
                    "operation": "DELEGATECALL",
                    "output": "",
                    "revert": false,
                    "revertMessage": "",
                    "selector": "0x12210e8a",
                    "status": true,
                    "value": "0.042115367437148534"
                },
                "nodeType": 0
            },
            "17": {
                "invocation": {
                    "address": "0x1ba39ee8709f6938747b71634e14741230e06baa",
                    "callData": "0x",
                    "decodedMethod": null,
                    "errorInfo": "",
                    "fromAddress": "0x68b3465833fb72a70ecdf485e0e4c7bd8665fc45",
                    "gasUsed": 0,
                    "id": 17,
                    "methodDecoded": false,
                    "operation": "CALL",
                    "output": "",
                    "revert": false,
                    "revertMessage": "",
                    "selector": "fallback",
                    "status": true,
                    "value": "0.000645183355587974"
                },
                "nodeType": 0
            },
            "2": {
                "invocation": {
                    "address": "0x9e15ab99f119917aeaada40d6593bda7cca84662",
                    "callData": "0x",
                    "decodedMethod": {
                        "callParams": [],
                        "constructorArguments": "",
                        "name": "getReserves",
                        "returnParams": [
                            {
                                "name": "_reserve0",
                                "type": "uint112",
                                "value": "125,763,055,843,010,845"
                            },
                            {
                                "name": "_reserve1",
                                "type": "uint112",
                                "value": "8,467,371,669,357,217,639"
                            },
                            {
                                "name": "_blockTimestampLast",
                                "type": "uint32",
                                "value": "1,667,061,599"
                            }
                        ],
                        "signature": "getReserves()"
                    },
                    "errorInfo": "",
                    "fromAddress": "0x68b3465833fb72a70ecdf485e0e4c7bd8665fc45",
                    "gasUsed": 2504,
                    "id": 2,
                    "methodDecoded": true,
                    "operation": "STATICCALL",
                    "output": "0x00000000000000000000000000000000000000000000000001beccd53d63e91d000000000000000000000000000000000000000000000000758225abd53e476700000000000000000000000000000000000000000000000000000000635d575f",
                    "revert": false,
                    "revertMessage": "",
                    "selector": "0x0902f1ac",
                    "status": true,
                    "value": "0"
                },
                "nodeType": 0
            },
            "3": {
                "invocation": {
                    "address": "0xc02aaa39b223fe8d0a0e5c4f27ead9083c756cc2",
                    "callData": "0x",
                    "decodedMethod": {
                        "callParams": [],
                        "constructorArguments": "",
                        "name": "deposit",
                        "returnParams": [],
                        "signature": "deposit()"
                    },
                    "errorInfo": "",
                    "fromAddress": "0x68b3465833fb72a70ecdf485e0e4c7bd8665fc45",
                    "gasUsed": 23974,
                    "id": 3,
                    "methodDecoded": true,
                    "operation": "CALL",
                    "output": "",
                    "revert": false,
                    "revertMessage": "",
                    "selector": "0xd0e30db0",
                    "status": true,
                    "value": "0.04147018408156056"
                },
                "nodeType": 0
            },
            "4": {
                "event": {
                    "contract": "0xc02aaa39b223fe8d0a0e5c4f27ead9083c756cc2",
                    "decodedLog": {
                        "name": "Deposit",
                        "params": [
                            {
                                "name": "dst",
                                "type": "address",
                                "value": "0x68b3465833fb72a70ecdf485e0e4c7bd8665fc45"
                            },
                            {
                                "name": "wad",
                                "type": "uint256",
                                "value": "41,470,184,081,560,560"
                            }
                        ],
                        "signature": "Deposit(address,uint256)"
                    },
                    "id": 4,
                    "logData": "0x000000000000000000000000000000000000000000000000009354e9a6f393f0",
                    "logDecoded": true,
                    "operation": "EVENT",
                    "revert": false,
                    "status": true,
                    "topics": [
                        "0xe1fffcc4923d04b559f4d29a8bfc6cda04eb5b0d3c460751c2402c5c5cc9109c",
                        "0x00000000000000000000000068b3465833fb72a70ecdf485e0e4c7bd8665fc45"
                    ]
                },
                "nodeType": 1
            },
            "5": {
                "invocation": {
                    "address": "0xc02aaa39b223fe8d0a0e5c4f27ead9083c756cc2",
                    "callData": "0x0000000000000000000000009e15ab99f119917aeaada40d6593bda7cca84662000000000000000000000000000000000000000000000000009354e9a6f393f0",
                    "decodedMethod": {
                        "callParams": [
                            {
                                "name": "dst",
                                "type": "address",
                                "value": "0x9e15ab99f119917aeaada40d6593bda7cca84662"
                            },
                            {
                                "decimalAvailable": true,
                                "name": "wad",
                                "type": "uint256",
                                "value": "41,470,184,081,560,560"
                            }
                        ],
                        "constructorArguments": "",
                        "name": "transfer",
                        "returnParams": [
                            {
                                "name": "",
                                "type": "bool",
                                "value": true
                            }
                        ],
                        "signature": "transfer(address,uint256)"
                    },
                    "errorInfo": "",
                    "fromAddress": "0x68b3465833fb72a70ecdf485e0e4c7bd8665fc45",
                    "gasUsed": 8062,
                    "id": 5,
                    "methodDecoded": true,
                    "operation": "CALL",
                    "output": "0x0000000000000000000000000000000000000000000000000000000000000001",
                    "revert": false,
                    "revertMessage": "",
                    "selector": "0xa9059cbb",
                    "status": true,
                    "value": "0"
                },
                "nodeType": 0
            },
            "6": {
                "event": {
                    "contract": "0xc02aaa39b223fe8d0a0e5c4f27ead9083c756cc2",
                    "decodedLog": {
                        "name": "Transfer",
                        "params": [
                            {
                                "name": "src",
                                "type": "address",
                                "value": "0x68b3465833fb72a70ecdf485e0e4c7bd8665fc45"
                            },
                            {
                                "name": "dst",
                                "type": "address",
                                "value": "0x9e15ab99f119917aeaada40d6593bda7cca84662"
                            },
                            {
                                "decimalAvailable": true,
                                "name": "wad",
                                "type": "uint256",
                                "value": "41,470,184,081,560,560"
                            }
                        ],
                        "signature": "Transfer(address,address,uint256)"
                    },
                    "id": 6,
                    "logData": "0x000000000000000000000000000000000000000000000000009354e9a6f393f0",
                    "logDecoded": true,
                    "operation": "EVENT",
                    "revert": false,
                    "status": true,
                    "topics": [
                        "0xddf252ad1be2c89b69c2b068fc378daa952ba7f163c4a11628f55a4df523b3ef",
                        "0x00000000000000000000000068b3465833fb72a70ecdf485e0e4c7bd8665fc45",
                        "0x0000000000000000000000009e15ab99f119917aeaada40d6593bda7cca84662"
                    ]
                },
                "nodeType": 1
            },
            "7": {
                "invocation": {
                    "address": "0x9e15ab99f119917aeaada40d6593bda7cca84662",
                    "callData": "0x",
                    "decodedMethod": {
                        "callParams": [],
                        "constructorArguments": "",
                        "name": "getReserves",
                        "returnParams": [
                            {
                                "name": "_reserve0",
                                "type": "uint112",
                                "value": "125,763,055,843,010,845"
                            },
                            {
                                "name": "_reserve1",
                                "type": "uint112",
                                "value": "8,467,371,669,357,217,639"
                            },
                            {
                                "name": "_blockTimestampLast",
                                "type": "uint32",
                                "value": "1,667,061,599"
                            }
                        ],
                        "signature": "getReserves()"
                    },
                    "errorInfo": "",
                    "fromAddress": "0x68b3465833fb72a70ecdf485e0e4c7bd8665fc45",
                    "gasUsed": 504,
                    "id": 7,
                    "methodDecoded": true,
                    "operation": "STATICCALL",
                    "output": "0x00000000000000000000000000000000000000000000000001beccd53d63e91d000000000000000000000000000000000000000000000000758225abd53e476700000000000000000000000000000000000000000000000000000000635d575f",
                    "revert": false,
                    "revertMessage": "",
                    "selector": "0x0902f1ac",
                    "status": true,
                    "value": "0"
                },
                "nodeType": 0
            },
            "8": {
                "invocation": {
                    "address": "0xc02aaa39b223fe8d0a0e5c4f27ead9083c756cc2",
                    "callData": "0x0000000000000000000000009e15ab99f119917aeaada40d6593bda7cca84662",
                    "decodedMethod": {
                        "callParams": [
                            {
                                "name": "",
                                "type": "address",
                                "value": "0x9e15ab99f119917aeaada40d6593bda7cca84662"
                            }
                        ],
                        "constructorArguments": "",
                        "name": "balanceOf",
                        "returnParams": [
                            {
                                "decimalAvailable": true,
                                "name": "",
                                "type": "uint256",
                                "value": "8,508,841,853,438,778,199"
                            }
                        ],
                        "signature": "balanceOf(address)"
                    },
                    "errorInfo": "",
                    "fromAddress": "0x68b3465833fb72a70ecdf485e0e4c7bd8665fc45",
                    "gasUsed": 534,
                    "id": 8,
                    "methodDecoded": true,
                    "operation": "STATICCALL",
                    "output": "0x00000000000000000000000000000000000000000000000076157a957c31db57",
                    "revert": false,
                    "revertMessage": "",
                    "selector": "0x70a08231",
                    "status": true,
                    "value": "0"
                },
                "nodeType": 0
            },
            "9": {
                "invocation": {
                    "address": "0x9e15ab99f119917aeaada40d6593bda7cca84662",
                    "callData": "0x00000000000000000000000000000000000000000000000000022bcd5e12c60000000000000000000000000000000000000000000000000000000000000000000000000000000000000000001ba39ee8709f6938747b71634e14741230e06baa00000000000000000000000000000000000000000000000000000000000000800000000000000000000000000000000000000000000000000000000000000000",
                    "decodedMethod": {
                        "callParams": [
                            {
                                "name": "amount0Out",
                                "type": "uint256",
                                "value": "611,111,000,000,000"
                            },
                            {
                                "name": "amount1Out",
                                "type": "uint256",
                                "value": "0"
                            },
                            {
                                "name": "to",
                                "type": "address",
                                "value": "0x1ba39ee8709f6938747b71634e14741230e06baa"
                            },
                            {
                                "name": "data",
                                "type": "bytes",
                                "value": "0x"
                            }
                        ],
                        "constructorArguments": "",
                        "name": "swap",
                        "returnParams": [],
                        "signature": "swap(uint256,uint256,address,bytes)"
                    },
                    "errorInfo": "",
                    "fromAddress": "0x68b3465833fb72a70ecdf485e0e4c7bd8665fc45",
                    "gasUsed": 101816,
                    "id": 9,
                    "methodDecoded": true,
                    "operation": "CALL",
                    "output": "",
                    "revert": false,
                    "revertMessage": "",
                    "selector": "0x022c0d9f",
                    "status": true,
                    "value": "0"
                },
                "nodeType": 0
            }
        },
        "gasFlame": [
            {
                "children": [
                    {
                        "children": [
                            {
                                "children": [],
                                "depth": 0,
                                "name": "Initial Gas",
                                "value": 24240
                            },
                            {
                                "children": [
                                    {
                                        "children": [
                                            {
                                                "children": [],
                                                "depth": 2,
                                                "name": "getReserves",
                                                "value": 2504
                                            },
                                            {
                                                "children": [],
                                                "depth": 2,
                                                "name": "deposit",
                                                "value": 23974
                                            },
                                            {
                                                "children": [],
                                                "depth": 2,
                                                "name": "transfer",
                                                "value": 8062
                                            },
                                            {
                                                "children": [],
                                                "depth": 2,
                                                "name": "getReserves",
                                                "value": 504
                                            },
                                            {
                                                "children": [],
                                                "depth": 2,
                                                "name": "balanceOf",
                                                "value": 534
                                            },
                                            {
                                                "children": [
                                                    {
                                                        "children": [],
                                                        "depth": 3,
                                                        "name": "transfer",
                                                        "value": 64805
                                                    },
                                                    {
                                                        "children": [],
                                                        "depth": 3,
                                                        "name": "balanceOf",
                                                        "value": 2654
                                                    },
                                                    {
                                                        "children": [],
                                                        "depth": 3,
                                                        "name": "balanceOf",
                                                        "value": 534
                                                    }
                                                ],
                                                "depth": 2,
                                                "name": "swap",
                                                "value": 101816
                                            }
                                        ],
                                        "depth": 1,
                                        "name": "swapTokensForExactTokens",
                                        "value": 159170
                                    },
                                    {
                                        "children": [
                                            {
                                                "children": [],
                                                "depth": 2,
                                                "name": "fallback",
                                                "value": 0
                                            }
                                        ],
                                        "depth": 1,
                                        "name": "refundETH",
                                        "value": 7468
                                    }
                                ],
                                "depth": 0,
                                "name": "Executed Gas",
                                "value": 169791
                            }
                        ],
                        "depth": -1,
                        "name": "Actual Gas Used",
                        "value": 171331
                    },
                    {
                        "children": [],
                        "depth": -1,
                        "name": "Refunded Gas",
                        "value": 22700
                    }
                ],
                "depth": -2,
                "name": "Total Gas",
                "value": 194031
            }
        ],
        "isConfirmed": true,
        "mainTrace": [
            {
                "children": [
                    {
                        "children": [
                            {
                                "children": [
                                    {
                                        "children": [],
                                        "depth": 2,
                                        "id": 2,
                                        "order": 2
                                    },
                                    {
                                        "children": [
                                            {
                                                "children": [],
                                                "depth": 3,
                                                "id": 4,
                                                "order": 4
                                            }
                                        ],
                                        "depth": 2,
                                        "id": 3,
                                        "order": 3
                                    },
                                    {
                                        "children": [
                                            {
                                                "children": [],
                                                "depth": 3,
                                                "id": 6,
                                                "order": 6
                                            }
                                        ],
                                        "depth": 2,
                                        "id": 5,
                                        "order": 5
                                    },
                                    {
                                        "children": [],
                                        "depth": 2,
                                        "id": 7,
                                        "order": 7
                                    },
                                    {
                                        "children": [],
                                        "depth": 2,
                                        "id": 8,
                                        "order": 8
                                    },
                                    {
                                        "children": [
                                            {
                                                "children": [
                                                    {
                                                        "children": [],
                                                        "depth": 4,
                                                        "id": 11,
                                                        "order": 11
                                                    }
                                                ],
                                                "depth": 3,
                                                "id": 10,
                                                "order": 10
                                            },
                                            {
                                                "children": [],
                                                "depth": 3,
                                                "id": 12,
                                                "order": 12
                                            },
                                            {
                                                "children": [],
                                                "depth": 3,
                                                "id": 13,
                                                "order": 13
                                            },
                                            {
                                                "children": [],
                                                "depth": 3,
                                                "id": 14,
                                                "order": 14
                                            },
                                            {
                                                "children": [],
                                                "depth": 3,
                                                "id": 15,
                                                "order": 15
                                            }
                                        ],
                                        "depth": 2,
                                        "id": 9,
                                        "order": 9
                                    }
                                ],
                                "depth": 1,
                                "id": 1,
                                "order": 1
                            },
                            {
                                "children": [
                                    {
                                        "children": [],
                                        "depth": 2,
                                        "id": 17,
                                        "order": 17
                                    }
                                ],
                                "depth": 1,
                                "id": 16,
                                "order": 16
                            }
                        ],
                        "depth": 0,
                        "id": 0,
                        "order": 0
                    }
                ],
                "depth": -1,
                "id": -1,
                "order": -1
            }
        ],
        "mainTraceNodeCount": 18,
        "parentIdMap": {
            "0": -1,
            "1": 0,
            "10": 9,
            "11": 10,
            "12": 9,
            "13": 9,
            "14": 9,
            "15": 9,
            "16": 0,
            "17": 16,
            "2": 1,
            "3": 1,
            "4": 3,
            "5": 1,
            "6": 5,
            "7": 1,
            "8": 1,
            "9": 1
        },
        "tidyTrace": [
            {
                "children": [
                    {
                        "children": [
                            {
                                "children": [
                                    {
                                        "children": [
                                            {
                                                "children": [],
                                                "depth": 3,
                                                "id": 4,
                                                "order": 4
                                            }
                                        ],
                                        "depth": 2,
                                        "id": 3,
                                        "order": 3
                                    },
                                    {
                                        "children": [
                                            {
                                                "children": [],
                                                "depth": 3,
                                                "id": 6,
                                                "order": 6
                                            }
                                        ],
                                        "depth": 2,
                                        "id": 5,
                                        "order": 5
                                    },
                                    {
                                        "children": [
                                            {
                                                "children": [
                                                    {
                                                        "children": [],
                                                        "depth": 4,
                                                        "id": 11,
                                                        "order": 11
                                                    }
                                                ],
                                                "depth": 3,
                                                "id": 10,
                                                "order": 10
                                            },
                                            {
                                                "children": [],
                                                "depth": 3,
                                                "id": 14,
                                                "order": 14
                                            },
                                            {
                                                "children": [],
                                                "depth": 3,
                                                "id": 15,
                                                "order": 15
                                            }
                                        ],
                                        "depth": 2,
                                        "id": 9,
                                        "order": 9
                                    }
                                ],
                                "depth": 1,
                                "id": 1,
                                "order": 1
                            },
                            {
                                "children": [
                                    {
                                        "children": [],
                                        "depth": 2,
                                        "id": 17,
                                        "order": 17
                                    }
                                ],
                                "depth": 1,
                                "id": 16,
                                "order": 16
                            }
                        ],
                        "depth": 0,
                        "id": 0,
                        "order": 0
                    }
                ],
                "depth": -1,
                "id": -1,
                "order": -1
            }
        ],
        "tidyTraceNodeCount": 13
    },
    "state_change": {
        "stateChanges": [
            {
                "address": "0x9b120fa54444ce699e5d0887ea2d8fd0bd68980e",
                "erc": "ERC-20",
                "slots": [
                    {
                        "current": "0x2009f53621abc8292ff7ab8e16aed647b83c4f319bf7a79bfff3d6f2a0cc09bd",
                        "key": "0x893e2279068764b6e897fdf956616504255ac3a4f2356b497fd15aa5c6d810cc",
                        "prev": "0x203201f3e4086856fc27893b1f54dbef30d581e1e13e1c8f35ce8625db318fbd"
                    },
                    {
                        "current": "0x00c0c5a325309ade8d916bf5dba4cec0c0df0d68e4a0980596266570e3e7fd83",
                        "key": "0xbb7ab75c30a0d886b1994a50a7a1f5dc3a5faaf501b7baac36d23c2b36faf5c0",
                        "prev": "0x0099ec7a7056c20e4a11125fef6a2a8c62ee4a5263fd87dc3b82e993add25003"
                    },
                    {
                        "current": "0x0015ff7295ac5e81816fe34871966312612aa50c7d0a74253ccd0fa053c8b7a2",
                        "key": "0xa2ef945df7629fc7ef083e1f83757e8633388a713d7fb1d4086c176971951c70",
                        "prev": "0x0014cbdd88299723f8c05f31552b019f46823572b8670f5b6195dc4a4f78df22"
                    }
                ],
                "storageVariables": [
                    {
                        "name": "_rOwned",
                        "type": "mapping(address => uint256)",
                        "value": {
                            "pairs": [
                                {
                                    "key": "0x1ba39ee8709f6938747b71634e14741230e06baa",
                                    "value": {
                                        "current": "340598678855623989771514392252595409590496279751422557462893313905819909507",
                                        "prev": "271959713993095618395065320679540461816060196360388414854098205380629909507",
                                        "typeTag": 1
                                    }
                                },
                                {
                                    "key": "0x9b120fa54444ce699e5d0887ea2d8fd0bd68980e",
                                    "value": {
                                        "current": "38866822875137739535886110892058997646327047494489519803369967915769575330",
                                        "prev": "36743968291760573410841294245469669364643457286519391681448469713959575330",
                                        "typeTag": 1
                                    }
                                },
                                {
                                    "key": "0x9e15ab99f119917aeaada40d6593bda7cca84662",
                                    "value": {
                                        "current": "14491605165485586192209143632041857546785930878422372380913230611587258911165",
                                        "prev": "14562366984931491729710637520261501822842050552021376651643947218314258911165",
                                        "typeTag": 1
                                    }
                                }
                            ],
                            "typeTag": 4
                        }
                    }
                ]
            },
            {
                "address": "0x9e15ab99f119917aeaada40d6593bda7cca84662",
                "erc": "ERC-20",
                "slots": [
                    {
                        "current": "0x635d576b00000000000076157a957c31db5700000000000001bca107df51231d",
                        "key": "0x0000000000000000000000000000000000000000000000000000000000000008",
                        "prev": "0x635d575f000000000000758225abd53e476700000000000001beccd53d63e91d"
                    },
                    {
                        "current": "0x000000000000000000000000000000047d3f2c166d9f19a3b857a3d25c933188",
                        "key": "0x0000000000000000000000000000000000000000000000000000000000000009",
                        "prev": "0x000000000000000000000000000000047a173c8db55ed83f4de720d4a6958b28"
                    },
                    {
                        "current": "0x00000000000000000000000000000000011a5f28cd817cc2e5a955f6be96070c",
                        "key": "0x000000000000000000000000000000000000000000000000000000000000000a",
                        "prev": "0x00000000000000000000000000000000011a318830946a8c81f9ded5e991bcc4"
                    }
                ],
                "storageVariables": [
                    {
                        "name": "reserve0",
                        "type": "uint112",
                        "value": {
                            "current": "125151944843010845",
                            "prev": "125763055843010845",
                            "typeTag": 1
                        }
                    },
                    {
                        "name": "reserve1",
                        "type": "uint112",
                        "value": {
                            "current": "8508841853438778199",
                            "prev": "8467371669357217639",
                            "typeTag": 1
                        }
                    },
                    {
                        "name": "blockTimestampLast",
                        "type": "uint32",
                        "value": {
                            "current": "1667061611",
                            "prev": "1667061599",
                            "typeTag": 1
                        }
                    },
                    {
                        "name": "price0CumulativeLast",
                        "type": "uint256",
                        "value": {
                            "current": "1527610976061924374449495774303291126152",
                            "prev": "1523415934169138471998342030648537353000",
                            "typeTag": 1
                        }
                    },
                    {
                        "name": "price1CumulativeLast",
                        "type": "uint256",
                        "value": {
                            "current": "1466157775746636483276483907244394252",
                            "prev": "1465232342242206918530930930927910084",
                            "typeTag": 1
                        }
                    }
                ]
            },
            {
                "address": "0xc02aaa39b223fe8d0a0e5c4f27ead9083c756cc2",
                "erc": "ERC-20",
                "slots": [
                    {
                        "current": "0x00000000000000000000000000000000000000000000000076157a957c31db57",
                        "key": "0x6237b64b6b58b56d2131512f3f383a83da85f53df752d4d0d2af65f1fa1fd354",
                        "prev": "0x000000000000000000000000000000000000000000000000758225abd53e4767"
                    }
                ],
                "storageVariables": [
                    {
                        "name": "balanceOf",
                        "type": "mapping(address => uint256)",
                        "value": {
                            "pairs": [
                                {
                                    "key": "0x9e15ab99f119917aeaada40d6593bda7cca84662",
                                    "value": {
                                        "current": "8508841853438778199",
                                        "prev": "8467371669357217639",
                                        "typeTag": 1
                                    }
                                }
                            ],
                            "typeTag": 4
                        }
                    }
                ]
            }
        ]
    }
}