{
    "balance_change": {
        "balanceChanges": [
            {
                "account": "0x8bbb73bcb5d553b5a556358d27625323fd781d37",
                "assets": [
                    {
                        "address": "0xf230b790e05390fc8295f4d3f60332c93bed42e2",
                        "amount": "691,244.741794",
                        "iconUrl": "",
                        "isERC1155": false,
                        "isERC721": false,
                        "sign": false,
                        "value": ""
                    }
                ]
            },
            {
                "account": "0x876eabf441b2ee5b5b0554fd502a8e0600950cfa",
                "assets": [
                    {
                        "address": "0xf230b790e05390fc8295f4d3f60332c93bed42e2",
                        "amount": "691,244.741794",
                        "iconUrl": "",
                        "isERC1155": false,
                        "isERC721": false,
                        "sign": true,
                        "value": ""
                    }
                ]
            }
        ]
    },
    "profile": {
        "basic_info": {
            "baseFee": "",
            "blockNumber": 5424280,
            "callData": "0xa9059cbb000000000000000000000000876eabf441b2ee5b5b0554fd502a8e0600950cfa000000000000000000000000000000000000000000000000000000a0f165b4a2",
            "debugEnable": true,
            "errorInfo": "",
            "eventCount": 1,
            "feeRecipient": "0xb75d1e62b10e4ba91315c4aa3facc536f8a922f5",
            "formatValue": "0",
            "gasLimit": 90000,
            "gasPrice": "30",
            "gasUsed": 22091,
            "intTxnCount": 0,
            "internalRevert": false,
            "internalRevertMessage": "",
            "isContractCreation": false,
            "isFlashloan": false,
            "maxFee": "",
            "nonce": 16482,
            "overwritedBlockNumber": -1,
            "priorityFee": "",
            "receiver": "0xf230b790e05390fc8295f4d3f60332c93bed42e2",
            "revertMessage": "",
            "sender": "0x8bbb73bcb5d553b5a556358d27625323fd781d37",
            "simulationEnable": true,
            "sourceTxnHash": "0x93aa4dc477cf33f91c3678e03041d7b397b8d08c36fc041315103edca1d1618b",
            "status": true,
            "timestamp": "2018-04-12T00:30:15Z",
            "transactionFee": "0.00066273",
            "txnHash": "0x93aa4dc477cf33f91c3678e03041d7b397b8d08c36fc041315103edca1d1618b",
            "txnIndex": 27,
            "type": 0,
            "value": "0"
        },
        "fund_flow": [
            {
                "amount": "691,244.741794",
                "from": "0x8bbb73bcb5d553b5a556358d27625323fd781d37",
                "id": 1,
                "isERC1155": false,
                "isERC721": false,
                "isReverted": false,
                "order": 1,
                "to": "0x876eabf441b2ee5b5b0554fd502a8e0600950cfa",
                "token": "0xf230b790e05390fc8295f4d3f60332c93bed42e2"
            }
        ],
        "token_infos": [
            {
                "address": "0xc02aaa39b223fe8d0a0e5c4f27ead9083c756cc2",
                "decimals": 18
            },
            {
                "address": "0xf230b790e05390fc8295f4d3f60332c93bed42e2",
                "decimals": 6
            },
            {
                "address": "0xeeeeeeeeeeeeeeeeeeeeeeeeeeeeeeeeeeeeeeee",
                "decimals": 18
            }
        ]
    },
    "address_label": {
        "labels": [
            {
                "address": "0x0000000000000000000000000000000000000002",
                "label": "Precompiled"
            },
            {
                "address": "0x0000000000000000000000000000000000000003",
                "label": "Precompiled"
            },
            {
                "address": "0x0000000000000000000000000000000000000004",
                "label": "Precompiled"
            },
            {
                "address": "0xeeeeeeeeeeeeeeeeeeeeeeeeeeeeeeeeeeeeeeee",
                "label": "Ether"
            },
            {
                "address": "0x876eabf441b2ee5b5b0554fd502a8e0600950cfa",
                "label": "Bitfinex 3"
            },
            {
                "address": "0xf230b790e05390fc8295f4d3f60332c93bed42e2",
                "label": "TRON: Old TRX Token"
            },
            {
                "address": "0x0000000000000000000000000000000000000001",
                "label": "Precompiled"
            }
        ]
    },
    "trace": {
        "accountLabels": null,
        "dataMap": {
            "-1": {
                "invocation": {
                    "address": "0x8bbb73bcb5d553b5a556358d27625323fd781d37",
                    "callData": "",
                    "decodedMethod": null,
                    "errorInfo": "",
                    "fromAddress": "",
                    "gasUsed": 0,
                    "id": -1,
                    "methodDecoded": false,
                    "operation": "",
                    "output": "",
                    "revert": false,
                    "revertMessage": "",
                    "selector": "",
                    "status": false,
                    "value": ""
                },
                "nodeType": 0
            },
            "0": {
                "invocation": {
                    "address": "0xf230b790e05390fc8295f4d3f60332c93bed42e2",
                    "callData": "0x000000000000000000000000876eabf441b2ee5b5b0554fd502a8e0600950cfa000000000000000000000000000000000000000000000000000000a0f165b4a2",
                    "decodedMethod": {
                        "callParams": [
                            {
                                "name": "_to",
                                "type": "address",
                                "value": "0x876eabf441b2ee5b5b0554fd502a8e0600950cfa"
                            },
                            {
                                "decimalAvailable": true,
                                "name": "_value",
                                "type": "uint256",
                                "value": "691,244,741,794"
                            }
                        ],
                        "constructorArguments": "",
                        "name": "transfer",
                        "returnParams": [
                            {
                                "name": "success",
                                "type": "bool",
                                "value": true
                            }
                        ],
                        "signature": "transfer(address,uint256)"
                    },
                    "errorInfo": "",
                    "fromAddress": "0x8bbb73bcb5d553b5a556358d27625323fd781d37",
                    "gasUsed": 22091,
                    "id": 0,
                    "methodDecoded": true,
                    "operation": "CALL",
                    "output": "0x0000000000000000000000000000000000000000000000000000000000000001",
                    "revert": false,
                    "revertMessage": "",
                    "selector": "0xa9059cbb",
                    "status": true,
                    "value": "0"
                },
                "nodeType": 0
            },
            "1": {
                "event": {
                    "contract": "0xf230b790e05390fc8295f4d3f60332c93bed42e2",
                    "decodedLog": {
                        "name": "Transfer",
                        "params": [
                            {
                                "name": "_from",
                                "type": "address",
                                "value": "0x8bbb73bcb5d553b5a556358d27625323fd781d37"
                            },
                            {
                                "name": "_to",
                                "type": "address",
                                "value": "0x876eabf441b2ee5b5b0554fd502a8e0600950cfa"
                            },
                            {
                                "decimalAvailable": true,
                                "name": "_value",
                                "type": "uint256",
                                "value": "691,244,741,794"
                            }
                        ],
                        "signature": "Transfer(address,address,uint256)"
                    },
                    "id": 1,
                    "logData": "0x000000000000000000000000000000000000000000000000000000a0f165b4a2",
                    "logDecoded": true,
                    "operation": "EVENT",
                    "revert": false,
                    "status": true,
                    "topics": [
                        "0xddf252ad1be2c89b69c2b068fc378daa952ba7f163c4a11628f55a4df523b3ef",
                        "0x0000000000000000000000008bbb73bcb5d553b5a556358d27625323fd781d37",
                        "0x000000000000000000000000876eabf441b2ee5b5b0554fd502a8e0600950cfa"
                    ]
                },
                "nodeType": 1
            }
        },
        "gasFlame": [
            {
                "children": [
                    {
                        "children": [
                            {
                                "children": [],
                                "depth": 0,
                                "name": "Initial Gas",
                                "value": 23064
                            },
                            {
                                "children": [],
                                "depth": 0,
                                "name": "Executed Gas",
                                "value": 14027
                            }
                        ],
                        "depth": -1,
                        "name": "Actual Gas Used",
                        "value": 22091
                    },
                    {
                        "children": [],
                        "depth": -1,
                        "name": "Refunded Gas",
                        "value": 15000
                    }
                ],
                "depth": -2,
                "name": "Total Gas",
                "value": 37091
            }
        ],
        "isConfirmed": true,
        "mainTrace": [
            {
                "children": [
                    {
                        "children": [
                            {
                                "children": [],
                                "depth": 1,
                                "id": 1,
                                "order": 1
                            }
                        ],
                        "depth": 0,
                        "id": 0,
                        "order": 0
                    }
                ],
                "depth": -1,
                "id": -1,
                "order": -1
            }
        ],
        "mainTraceNodeCount": 2,
        "parentIdMap": {
            "0": -1,
            "1": 0
        },
        "tidyTrace": [
            {
                "children": [
                    {
                        "children": [
                            {
                                "children": [],
                                "depth": 1,
                                "id": 1,
                                "order": 1
                            }
                        ],
                        "depth": 0,
                        "id": 0,
                        "order": 0
                    }
                ],
                "depth": -1,
                "id": -1,
                "order": -1
            }
        ],
        "tidyTraceNodeCount": 2
    },
    "state_change": {
        "stateChanges": [
            {
                "address": "0xf230b790e05390fc8295f4d3f60332c93bed42e2",
                "erc": "ERC-20",
                "slots": [
                    {
                        "current": "0x0000000000000000000000000000000000000000000000000000000000000000",
                        "key": "0x5ca1b231376bee11068875eced88493d1ebe2ba66eb3aad8166530d48e0025c2",
                        "prev": "0x000000000000000000000000000000000000000000000000000000a0f165b4a2"
                    },
                    {
                        "current": "0x0000000000000000000000000000000000000000000000000000159c869c99db",
                        "key": "0x44fa1018153b96a6f2ea7bc6a2547671b143c2cb316a4afefe27b077a3bd391a",
                        "prev": "0x000000000000000000000000000000000000000000000000000014fb9536e539"
                    }
                ],
                "storageVariables": [
                    {
                        "name": "balanceOf",
                        "type": "mapping(address => uint256)",
                        "value": {
                            "pairs": [
                                {
                                    "key": "0x876eabf441b2ee5b5b0554fd502a8e0600950cfa",
                                    "value": {
                                        "current": "23762017491419",
                                        "prev": "23070772749625",
                                        "typeTag": 1
                                    }
                                },
                                {
                                    "key": "0x8bbb73bcb5d553b5a556358d27625323fd781d37",
                                    "value": {
                                        "current": "0",
                                        "prev": "691244741794",
                                        "typeTag": 1
                                    }
                                }
                            ],
                            "typeTag": 4
                        }
                    }
                ]
            }
        ]
    }
}