{
    "balance_change": {
        "balanceChanges": []
    },
    "profile": {
        "basic_info": {
            "baseFee": "",
            "blockNumber": 10430523,
            "callData": "0x4a25d94a0000000000000000000000000000000000000000000000004563918244f4000000000000000000000000000000000000000000000000035ff0c83efb478dc2fe00000000000000000000000000000000000000000000000000000000000000a0000000000000000000000000320e732862e03b164abbb69e86f560b1c0c70122000000000000000000000000000000000000000000000000000000005f08241d0000000000000000000000000000000000000000000000000000000000000002000000000000000000000000cc4304a31d09258b0029ea7fe63d032f52e44efe000000000000000000000000c02aaa39b223fe8d0a0e5c4f27ead9083c756cc2",
            "debugEnable": true,
            "errorInfo": "execution reverted",
            "eventCount": 0,
            "feeRecipient": "0x84a0d77c693adabe0ebc48f88b3ffff010577051",
            "formatValue": "0",
            "gasLimit": 162182,
            "gasPrice": "153.7963",
            "gasUsed": 29139,
            "intTxnCount": 1,
            "internalRevert": true,
            "internalRevertMessage": "",
            "isContractCreation": false,
            "isFlashloan": false,
            "maxFee": "",
            "nonce": 539,
            "overwritedBlockNumber": -1,
            "priorityFee": "",
            "receiver": "0x7a250d5630b4cf539739df2c5dacb4c659f2488d",
            "revertMessage": "'UniswapV2Router: EXCESSIVE_INPUT_AMOUNT",
            "sender": "0x320e732862e03b164abbb69e86f560b1c0c70122",
            "simulationEnable": true,
            "sourceTxnHash": "0x93757363d8cc5284dce0d0c30f263b95b683a5a27c026fb9edb744c5e03fa0b5",
            "status": false,
            "timestamp": "2020-07-10T07:57:45Z",
            "transactionFee": "0.0044814703857",
            "txnHash": "0x93757363d8cc5284dce0d0c30f263b95b683a5a27c026fb9edb744c5e03fa0b5",
            "txnIndex": 0,
            "type": 0,
            "value": "0"
        },
        "fund_flow": [],
        "token_infos": [
            {
                "address": "0xc02aaa39b223fe8d0a0e5c4f27ead9083c756cc2",
                "decimals": 18
            },
            {
                "address": "0xeeeeeeeeeeeeeeeeeeeeeeeeeeeeeeeeeeeeeeee",
                "decimals": 18
            }
        ]
    },
    "address_label": {
        "labels": [
            {
                "address": "0xc02aaa39b223fe8d0a0e5c4f27ead9083c756cc2",
                "label": "Wrapped Ether (WETH)"
            },
            {
                "address": "0x0000000000000000000000000000000000000004",
                "label": "Precompiled"
            },
            {
                "address": "0xeeeeeeeeeeeeeeeeeeeeeeeeeeeeeeeeeeeeeeee",
                "label": "Ether"
            },
            {
                "address": "0xd90a1ba0cbaaaabfdc6c814cdf1611306a26e1f8",
                "label": "Uniswap V2: SWAP 6"
            },
            {
                "address": "0x7a250d5630b4cf539739df2c5dacb4c659f2488d",
                "label": "Uniswap V2: Router 2"
            },
            {
                "address": "0x0000000000000000000000000000000000000003",
                "label": "Precompiled"
            },
            {
                "address": "0xcc4304a31d09258b0029ea7fe63d032f52e44efe",
                "label": "TrustSwap: SWAP Token"
            },
            {
                "address": "0x0000000000000000000000000000000000000001",
                "label": "Precompiled"
            },
            {
                "address": "0x0000000000000000000000000000000000000002",
                "label": "Precompiled"
            }
        ]
    },
    "trace": {
        "accountLabels": null,
        "dataMap": {
            "-1": {
                "invocation": {
                    "address": "0x320e732862e03b164abbb69e86f560b1c0c70122",
                    "callData": "",
                    "decodedMethod": null,
                    "errorInfo": "",
                    "fromAddress": "",
                    "gasUsed": 0,
                    "id": -1,
                    "methodDecoded": false,
                    "operation": "",
                    "output": "",
                    "revert": false,
                    "revertMessage": "",
                    "selector": "",
                    "status": false,
                    "value": ""
                },
                "nodeType": 0
            },
            "0": {
                "invocation": {
                    "address": "0x7a250d5630b4cf539739df2c5dacb4c659f2488d",
                    "callData": "0x0000000000000000000000000000000000000000000000004563918244f4000000000000000000000000000000000000000000000000035ff0c83efb478dc2fe00000000000000000000000000000000000000000000000000000000000000a0000000000000000000000000320e732862e03b164abbb69e86f560b1c0c70122000000000000000000000000000000000000000000000000000000005f08241d0000000000000000000000000000000000000000000000000000000000000002000000000000000000000000cc4304a31d09258b0029ea7fe63d032f52e44efe000000000000000000000000c02aaa39b223fe8d0a0e5c4f27ead9083c756cc2",
                    "decodedMethod": {
                        "callParams": [
                            {
                                "name": "amountOut",
                                "type": "uint256",
                                "value": "5,000,000,000,000,000,000"
                            },
                            {
                                "name": "amountInMax",
                                "type": "uint256",
                                "value": "15,936,890,322,424,746,066,686"
                            },
                            {
                                "name": "path",
                                "type": "address[]",
                                "value": [
                                    "0xcc4304a31d09258b0029ea7fe63d032f52e44efe",
                                    "0xc02aaa39b223fe8d0a0e5c4f27ead9083c756cc2"
                                ]
                            },
                            {
                                "name": "to",
                                "type": "address",
                                "value": "0x320e732862e03b164abbb69e86f560b1c0c70122"
                            },
                            {
                                "name": "deadline",
                                "type": "uint256",
                                "value": "1,594,369,053"
                            }
                        ],
                        "constructorArguments": "",
                        "name": "swapTokensForExactETH",
                        "returnParams": [],
                        "signature": "swapTokensForExactETH(uint256,uint256,address[],address,uint256)"
                    },
                    "errorInfo": "execution reverted",
                    "fromAddress": "0x320e732862e03b164abbb69e86f560b1c0c70122",
                    "gasUsed": 29139,
                    "id": 0,
                    "methodDecoded": true,
                    "operation": "CALL",
                    "output": "0x08c379a000000000000000000000000000000000000000000000000000000000000000200000000000000000000000000000000000000000000000000000000000000027556e69737761705632526f757465723a204558434553534956455f494e5055545f414d4f554e5400000000000000000000000000000000000000000000000000",
                    "revert": true,
                    "revertMessage": "'UniswapV2Router: EXCESSIVE_INPUT_AMOUNT",
                    "selector": "0x4a25d94a",
                    "status": false,
                    "value": "0"
                },
                "nodeType": 0
            },
            "1": {
                "invocation": {
                    "address": "0xd90a1ba0cbaaaabfdc6c814cdf1611306a26e1f8",
                    "callData": "0x",
                    "decodedMethod": {
                        "callParams": [],
                        "constructorArguments": "",
                        "name": "getReserves",
                        "returnParams": [
                            {
                                "name": "_reserve0",
                                "type": "uint112",
                                "value": "1,416,454,849,175,278,190,257"
                            },
                            {
                                "name": "_reserve1",
                                "type": "uint112",
                                "value": "4,508,486,286,208,104,873,957,423"
                            },
                            {
                                "name": "_blockTimestampLast",
                                "type": "uint32",
                                "value": "1,594,367,858"
                            }
                        ],
                        "signature": "getReserves()"
                    },
                    "errorInfo": "",
                    "fromAddress": "0x7a250d5630b4cf539739df2c5dacb4c659f2488d",
                    "gasUsed": 1204,
                    "id": 1,
                    "methodDecoded": true,
                    "operation": "STATICCALL",
                    "output": "0x00000000000000000000000000000000000000000000004cc94284a01ff5feb100000000000000000000000000000000000000000003bab58803b22d5831982f000000000000000000000000000000000000000000000000000000005f081f72",
                    "revert": true,
                    "revertMessage": "",
                    "selector": "0x0902f1ac",
                    "status": true,
                    "value": "0"
                },
                "nodeType": 0
            }
        },
        "gasFlame": [
            {
                "children": [
                    {
                        "children": [
                            {
                                "children": [],
                                "depth": 0,
                                "name": "Initial Gas",
                                "value": 23060
                            },
                            {
                                "children": [
                                    {
                                        "children": [],
                                        "depth": 1,
                                        "name": "getReserves",
                                        "value": 1204
                                    }
                                ],
                                "depth": 0,
                                "name": "Executed Gas",
                                "value": 6079
                            }
                        ],
                        "depth": -1,
                        "name": "Actual Gas Used",
                        "value": 29139
                    },
                    {
                        "children": [],
                        "depth": -1,
                        "name": "Refunded Gas",
                        "value": 0
                    }
                ],
                "depth": -2,
                "name": "Total Gas",
                "value": 29139
            }
        ],
        "isConfirmed": true,
        "mainTrace": [
            {
                "children": [
                    {
                        "children": [
                            {
                                "children": [],
                                "depth": 1,
                                "id": 1,
                                "order": 1
                            }
                        ],
                        "depth": 0,
                        "id": 0,
                        "order": 0
                    }
                ],
                "depth": -1,
                "id": -1,
                "order": -1
            }
        ],
        "mainTraceNodeCount": 2,
        "parentIdMap": {
            "0": -1,
            "1": 0
        },
        "tidyTrace": [
            {
                "children": [
                    {
                        "children": [],
                        "depth": 0,
                        "id": 0,
                        "order": 0
                    }
                ],
                "depth": -1,
                "id": -1,
                "order": -1
            }
        ],
        "tidyTraceNodeCount": 1
    },
    "state_change": {
        "stateChanges": []
    }
}