{
    "balance_change": {
        "balanceChanges": [
            {
                "account": "0xf8d1fa49c58560dc85dc0475fc1c574cde78d127",
                "assets": [
                    {
                        "address": "0x0bef619cf38cf0c22967289b8419720fbd1db9f7",
                        "amount": "1,692.74",
                        "iconUrl": "",
                        "isERC1155": false,
                        "isERC721": false,
                        "sign": false,
                        "value": ""
                    }
                ]
            },
            {
                "account": "0xadb7e619db95eb19675d34ad683bbc3c1ee6c4f5",
                "assets": [
                    {
                        "address": "0x0bef619cf38cf0c22967289b8419720fbd1db9f7",
                        "amount": "1,692.74",
                        "iconUrl": "",
                        "isERC1155": false,
                        "isERC721": false,
                        "sign": true,
                        "value": ""
                    }
                ]
            }
        ]
    },
    "profile": {
        "basic_info": {
            "baseFee": "",
            "blockNumber": 7060356,
            "callData": "0xa9059cbb000000000000000000000000adb7e619db95eb19675d34ad683bbc3c1ee6c4f50000000000000000000000000000000000000000000000000000002769844280",
            "debugEnable": true,
            "errorInfo": "",
            "eventCount": 1,
            "feeRecipient": "0x5a0b54d5dc17e0aadc383d2db43b0a0d3e029c4c",
            "formatValue": "0",
            "gasLimit": 54231,
            "gasPrice": "3",
            "gasUsed": 36474,
            "intTxnCount": 0,
            "internalRevert": false,
            "internalRevertMessage": "",
            "isContractCreation": false,
            "isFlashloan": false,
            "maxFee": "",
            "nonce": 21,
            "overwritedBlockNumber": -1,
            "priorityFee": "",
            "receiver": "0x0bef619cf38cf0c22967289b8419720fbd1db9f7",
            "revertMessage": "",
            "sender": "0xf8d1fa49c58560dc85dc0475fc1c574cde78d127",
            "simulationEnable": true,
            "sourceTxnHash": "0x931b7f176b15cfc32db7afd70fe8fd04c2c35da28a1d23a74a37d45a82f0729e",
            "status": true,
            "timestamp": "2019-01-13T17:50:26Z",
            "transactionFee": "0.000109422",
            "txnHash": "0x931b7f176b15cfc32db7afd70fe8fd04c2c35da28a1d23a74a37d45a82f0729e",
            "txnIndex": 26,
            "type": 0,
            "value": "0"
        },
        "fund_flow": [
            {
                "amount": "1,692.74",
                "from": "0xf8d1fa49c58560dc85dc0475fc1c574cde78d127",
                "id": 1,
                "isERC1155": false,
                "isERC721": false,
                "isReverted": false,
                "order": 1,
                "to": "0xadb7e619db95eb19675d34ad683bbc3c1ee6c4f5",
                "token": "0x0bef619cf38cf0c22967289b8419720fbd1db9f7"
            }
        ],
        "token_infos": [
            {
                "address": "0x0bef619cf38cf0c22967289b8419720fbd1db9f7",
                "decimals": 8
            },
            {
                "address": "0xc02aaa39b223fe8d0a0e5c4f27ead9083c756cc2",
                "decimals": 18
            },
            {
                "address": "0xeeeeeeeeeeeeeeeeeeeeeeeeeeeeeeeeeeeeeeee",
                "decimals": 18
            }
        ]
    },
    "address_label": {
        "labels": [
            {
                "address": "0xeeeeeeeeeeeeeeeeeeeeeeeeeeeeeeeeeeeeeeee",
                "label": "Ether"
            },
            {
                "address": "0x0bef619cf38cf0c22967289b8419720fbd1db9f7",
                "label": "Aenco: AEN Token"
            },
            {
                "address": "0x0000000000000000000000000000000000000001",
                "label": "Precompiled"
            },
            {
                "address": "0x0000000000000000000000000000000000000002",
                "label": "Precompiled"
            },
            {
                "address": "0x0000000000000000000000000000000000000003",
                "label": "Precompiled"
            },
            {
                "address": "0x0000000000000000000000000000000000000004",
                "label": "Precompiled"
            }
        ]
    },
    "trace": {
        "accountLabels": null,
        "dataMap": {
            "-1": {
                "invocation": {
                    "address": "0xf8d1fa49c58560dc85dc0475fc1c574cde78d127",
                    "callData": "",
                    "decodedMethod": null,
                    "errorInfo": "",
                    "fromAddress": "",
                    "gasUsed": 0,
                    "id": -1,
                    "methodDecoded": false,
                    "operation": "",
                    "output": "",
                    "revert": false,
                    "revertMessage": "",
                    "selector": "",
                    "status": false,
                    "value": ""
                },
                "nodeType": 0
            },
            "0": {
                "invocation": {
                    "address": "0x0bef619cf38cf0c22967289b8419720fbd1db9f7",
                    "callData": "0x000000000000000000000000adb7e619db95eb19675d34ad683bbc3c1ee6c4f50000000000000000000000000000000000000000000000000000002769844280",
                    "decodedMethod": {
                        "callParams": [
                            {
                                "name": "to",
                                "type": "address",
                                "value": "0xadb7e619db95eb19675d34ad683bbc3c1ee6c4f5"
                            },
                            {
                                "decimalAvailable": true,
                                "name": "tokens",
                                "type": "uint256",
                                "value": "169,274,000,000"
                            }
                        ],
                        "constructorArguments": "",
                        "name": "transfer",
                        "returnParams": [
                            {
                                "name": "success",
                                "type": "bool",
                                "value": true
                            }
                        ],
                        "signature": "transfer(address,uint256)"
                    },
                    "errorInfo": "",
                    "fromAddress": "0xf8d1fa49c58560dc85dc0475fc1c574cde78d127",
                    "gasUsed": 36474,
                    "id": 0,
                    "methodDecoded": true,
                    "operation": "CALL",
                    "output": "0x0000000000000000000000000000000000000000000000000000000000000001",
                    "revert": false,
                    "revertMessage": "",
                    "selector": "0xa9059cbb",
                    "status": true,
                    "value": "0"
                },
                "nodeType": 0
            },
            "1": {
                "event": {
                    "contract": "0x0bef619cf38cf0c22967289b8419720fbd1db9f7",
                    "decodedLog": {
                        "name": "Transfer",
                        "params": [
                            {
                                "name": "from",
                                "type": "address",
                                "value": "0xf8d1fa49c58560dc85dc0475fc1c574cde78d127"
                            },
                            {
                                "name": "to",
                                "type": "address",
                                "value": "0xadb7e619db95eb19675d34ad683bbc3c1ee6c4f5"
                            },
                            {
                                "decimalAvailable": true,
                                "name": "tokens",
                                "type": "uint256",
                                "value": "169,274,000,000"
                            }
                        ],
                        "signature": "Transfer(address,address,uint256)"
                    },
                    "id": 1,
                    "logData": "0x0000000000000000000000000000000000000000000000000000002769844280",
                    "logDecoded": true,
                    "operation": "EVENT",
                    "revert": false,
                    "status": true,
                    "topics": [
                        "0xddf252ad1be2c89b69c2b068fc378daa952ba7f163c4a11628f55a4df523b3ef",
                        "0x000000000000000000000000f8d1fa49c58560dc85dc0475fc1c574cde78d127",
                        "0x000000000000000000000000adb7e619db95eb19675d34ad683bbc3c1ee6c4f5"
                    ]
                },
                "nodeType": 1
            }
        },
        "gasFlame": [
            {
                "children": [
                    {
                        "children": [
                            {
                                "children": [],
                                "depth": 0,
                                "name": "Initial Gas",
                                "value": 23128
                            },
                            {
                                "children": [],
                                "depth": 0,
                                "name": "Executed Gas",
                                "value": 28346
                            }
                        ],
                        "depth": -1,
                        "name": "Actual Gas Used",
                        "value": 36474
                    },
                    {
                        "children": [],
                        "depth": -1,
                        "name": "Refunded Gas",
                        "value": 15000
                    }
                ],
                "depth": -2,
                "name": "Total Gas",
                "value": 51474
            }
        ],
        "isConfirmed": true,
        "mainTrace": [
            {
                "children": [
                    {
                        "children": [
                            {
                                "children": [],
                                "depth": 1,
                                "id": 1,
                                "order": 1
                            }
                        ],
                        "depth": 0,
                        "id": 0,
                        "order": 0
                    }
                ],
                "depth": -1,
                "id": -1,
                "order": -1
            }
        ],
        "mainTraceNodeCount": 2,
        "parentIdMap": {
            "0": -1,
            "1": 0
        },
        "tidyTrace": [
            {
                "children": [
                    {
                        "children": [
                            {
                                "children": [],
                                "depth": 1,
                                "id": 1,
                                "order": 1
                            }
                        ],
                        "depth": 0,
                        "id": 0,
                        "order": 0
                    }
                ],
                "depth": -1,
                "id": -1,
                "order": -1
            }
        ],
        "tidyTraceNodeCount": 2
    },
    "state_change": {
        "stateChanges": [
            {
                "address": "0x0bef619cf38cf0c22967289b8419720fbd1db9f7",
                "erc": "ERC-20",
                "slots": [
                    {
                        "current": "0x0000000000000000000000000000000000000000000000000000000000000000",
                        "key": "0x9adfa8311c4db134bd725b95b5edd414b4c8a4534acfa896dadc2e46e33243dd",
                        "prev": "0x0000000000000000000000000000000000000000000000000000002769844280"
                    },
                    {
                        "current": "0x0000000000000000000000000000000000000000000000000000002769844280",
                        "key": "0x82c85005f2415daab77cc6a1d3b5d7754c5f6dc7ed134d223309293c87e5f157",
                        "prev": "0x0000000000000000000000000000000000000000000000000000000000000000"
                    }
                ],
                "storageVariables": [
                    {
                        "name": "balances",
                        "type": "mapping(address => uint256)",
                        "value": {
                            "pairs": [
                                {
                                    "key": "0xadb7e619db95eb19675d34ad683bbc3c1ee6c4f5",
                                    "value": {
                                        "current": "169274000000",
                                        "prev": "0",
                                        "typeTag": 1
                                    }
                                },
                                {
                                    "key": "0xf8d1fa49c58560dc85dc0475fc1c574cde78d127",
                                    "value": {
                                        "current": "0",
                                        "prev": "169274000000",
                                        "typeTag": 1
                                    }
                                }
                            ],
                            "typeTag": 4
                        }
                    }
                ]
            }
        ]
    }
}