{
    "balance_change": {
        "balanceChanges": [
            {
                "account": "0x1f5d2c5de70dcf3e82471e8b3ad5781395e36cf6",
                "assets": [
                    {
                        "address": "0x6982508145454ce325ddbe47a25d4ec3d2311933",
                        "amount": "412,291,976,058.348043038130924772",
                        "iconUrl": "https://assets.blocksec.com/icon/99f1a626358e559d9a9d6dc4254c663e595a9ebcd362efa2d4cd902a8d75ea2c.png",
                        "isERC1155": false,
                        "isERC721": false,
                        "sign": false,
                        "value": ""
                    },
                    {
                        "address": "0xa0b86991c6218b36c1d19d4a2e9eb0ce3606eb48",
                        "amount": "286,124.032624",
                        "iconUrl": "https://assets.blocksec.com/icon/0347a86cc07dbd03fdc5db01a4e5ac7e1217f90e0b6e4bb0f75cbcca09160989.png",
                        "isERC1155": false,
                        "isERC721": false,
                        "sign": true,
                        "value": "286124.0326"
                    }
                ]
            },
            {
                "account": "0x11950d141ecb863f01007add7d1a342041227b58",
                "assets": [
                    {
                        "address": "0xc02aaa39b223fe8d0a0e5c4f27ead9083c756cc2",
                        "amount": "158.799149959289594963",
                        "iconUrl": "https://assets.blocksec.com/icon/f1cb2d02c471d545bbc7722daf3277fd852d98e63d118771af7047bd8256c516.png",
                        "isERC1155": false,
                        "isERC721": false,
                        "sign": false,
                        "value": "257873.93968500001444"
                    },
                    {
                        "address": "0x6982508145454ce325ddbe47a25d4ec3d2311933",
                        "amount": "371,062,778,452.513238734317832295",
                        "iconUrl": "https://assets.blocksec.com/icon/99f1a626358e559d9a9d6dc4254c663e595a9ebcd362efa2d4cd902a8d75ea2c.png",
                        "isERC1155": false,
                        "isERC721": false,
                        "sign": true,
                        "value": ""
                    }
                ]
            },
            {
                "account": "0x88e6a0c2ddd26feeb64f039a2c41296fcb3f5640",
                "assets": [
                    {
                        "address": "0xa0b86991c6218b36c1d19d4a2e9eb0ce3606eb48",
                        "amount": "257,651.628521",
                        "iconUrl": "https://assets.blocksec.com/icon/0347a86cc07dbd03fdc5db01a4e5ac7e1217f90e0b6e4bb0f75cbcca09160989.png",
                        "isERC1155": false,
                        "isERC721": false,
                        "sign": false,
                        "value": "257651.6285"
                    },
                    {
                        "address": "0xc02aaa39b223fe8d0a0e5c4f27ead9083c756cc2",
                        "amount": "158.799149959289594963",
                        "iconUrl": "https://assets.blocksec.com/icon/f1cb2d02c471d545bbc7722daf3277fd852d98e63d118771af7047bd8256c516.png",
                        "isERC1155": false,
                        "isERC721": false,
                        "sign": true,
                        "value": "257873.93968500001444"
                    }
                ]
            },
            {
                "account": "0xa43fe16908251ee70ef74718545e4fe6c5ccec9f",
                "assets": [
                    {
                        "address": "0x6982508145454ce325ddbe47a25d4ec3d2311933",
                        "amount": "41,229,197,605.834804303813092477",
                        "iconUrl": "https://assets.blocksec.com/icon/99f1a626358e559d9a9d6dc4254c663e595a9ebcd362efa2d4cd902a8d75ea2c.png",
                        "isERC1155": false,
                        "isERC721": false,
                        "sign": true,
                        "value": ""
                    },
                    {
                        "address": "0xc02aaa39b223fe8d0a0e5c4f27ead9083c756cc2",
                        "amount": "17.642576633558275732",
                        "iconUrl": "https://assets.blocksec.com/icon/f1cb2d02c471d545bbc7722daf3277fd852d98e63d118771af7047bd8256c516.png",
                        "isERC1155": false,
                        "isERC721": false,
                        "sign": false,
                        "value": "28649.780189457001603"
                    }
                ]
            },
            {
                "account": "0xb4e16d0168e52d35cacd2c6185b44281ec28c9dc",
                "assets": [
                    {
                        "address": "0xc02aaa39b223fe8d0a0e5c4f27ead9083c756cc2",
                        "amount": "17.642576633558275732",
                        "iconUrl": "https://assets.blocksec.com/icon/f1cb2d02c471d545bbc7722daf3277fd852d98e63d118771af7047bd8256c516.png",
                        "isERC1155": false,
                        "isERC721": false,
                        "sign": true,
                        "value": "28649.780189457001603"
                    },
                    {
                        "address": "0xa0b86991c6218b36c1d19d4a2e9eb0ce3606eb48",
                        "amount": "28,472.404103",
                        "iconUrl": "https://assets.blocksec.com/icon/0347a86cc07dbd03fdc5db01a4e5ac7e1217f90e0b6e4bb0f75cbcca09160989.png",
                        "isERC1155": false,
                        "isERC721": false,
                        "sign": false,
                        "value": "28472.4041"
                    }
                ]
            }
        ]
    },
    "profile": {
        "basic_info": {
            "baseFee": "5.575740914",
            "blockNumber": 18288541,
            "callData": "0x3593564c000000000000000000000000000000000000000000000000000000000000006000000000000000000000000000000000000000000000000000000000000000a000000000000000000000000000000000000000000000000000000000651f7a9f000000000000000000000000000000000000000000000000000000000000000208000000000000000000000000000000000000000000000000000000000000000000000000000000000000000000000000000000000000000000000000000002000000000000000000000000000000000000000000000000000000000000004000000000000000000000000000000000000000000000000000000000000001800000000000000000000000000000000000000000000000000000000000000120000000000000000000000000000000000000000000000000000000000000000100000000000000000000000000000000000000008537fe30b43a2c407733247d00000000000000000000000000000000000000000000000000000006a116683900000000000000000000000000000000000000000000000000000000000000a0000000000000000000000000000000000000000000000000000000000000000100000000000000000000000000000000000000000000000000000000000000030000000000000000000000006982508145454ce325ddbe47a25d4ec3d2311933000000000000000000000000c02aaa39b223fe8d0a0e5c4f27ead9083c756cc2000000000000000000000000a0b86991c6218b36c1d19d4a2e9eb0ce3606eb48000000000000000000000000000000000000000000000000000000000000012000000000000000000000000000000000000000000000000000000000000000010000000000000000000000000000000000000004aef7efb6560b8e4430cc48670000000000000000000000000000000000000000000000000000003bfd3bd8c900000000000000000000000000000000000000000000000000000000000000a0000000000000000000000000000000000000000000000000000000000000000100000000000000000000000000000000000000000000000000000000000000426982508145454ce325ddbe47a25d4ec3d2311933000bb8c02aaa39b223fe8d0a0e5c4f27ead9083c756cc20001f4a0b86991c6218b36c1d19d4a2e9eb0ce3606eb48000000000000000000000000000000000000000000000000000000000000",
            "debugEnable": true,
            "errorInfo": "",
            "eventCount": 15,
            "feeRecipient": "0x95222290dd7278aa3ddd389cc1e1d165cc4bafe5",
            "formatValue": "0",
            "gasLimit": 539949,
            "gasPrice": "5.675740914",
            "gasUsed": 402534,
            "intTxnCount": 34,
            "internalRevert": false,
            "internalRevertMessage": "",
            "isContractCreation": false,
            "isFlashloan": false,
            "maxFee": "8.217312136",
            "nonce": 12,
            "overwritedBlockNumber": -1,
            "priorityFee": "0.1",
            "receiver": "0x3fc91a3afd70395cd496c647d5a6cc9d4b2b7fad",
            "revertMessage": "",
            "sender": "0x1f5d2c5de70dcf3e82471e8b3ad5781395e36cf6",
            "simulationEnable": true,
            "sourceTxnHash": "0x935577597d4da6c93eed08ce9bcd1e7018176e3d14e6533ef543b8b735450850",
            "status": true,
            "timestamp": "2023-10-06T02:40:47Z",
            "transactionFee": "0.002284678693076076",
            "txnHash": "0x935577597d4da6c93eed08ce9bcd1e7018176e3d14e6533ef543b8b735450850",
            "txnIndex": 1,
            "type": 2,
            "value": "0"
        },
        "fund_flow": [
            {
                "amount": "41,229,197,605.834804303813092477",
                "from": "0x1f5d2c5de70dcf3e82471e8b3ad5781395e36cf6",
                "id": 1,
                "isERC1155": false,
                "isERC721": false,
                "isReverted": false,
                "order": 1,
                "to": "0xa43fe16908251ee70ef74718545e4fe6c5ccec9f",
                "token": "0x6982508145454ce325ddbe47a25d4ec3d2311933"
            },
            {
                "amount": "17.642576633558275732",
                "from": "0xa43fe16908251ee70ef74718545e4fe6c5ccec9f",
                "id": 2,
                "isERC1155": false,
                "isERC721": false,
                "isReverted": false,
                "order": 2,
                "to": "0xb4e16d0168e52d35cacd2c6185b44281ec28c9dc",
                "token": "0xc02aaa39b223fe8d0a0e5c4f27ead9083c756cc2"
            },
            {
                "amount": "28,472.404103",
                "from": "0xb4e16d0168e52d35cacd2c6185b44281ec28c9dc",
                "id": 3,
                "isERC1155": false,
                "isERC721": false,
                "isReverted": false,
                "order": 3,
                "to": "0x1f5d2c5de70dcf3e82471e8b3ad5781395e36cf6",
                "token": "0xa0b86991c6218b36c1d19d4a2e9eb0ce3606eb48"
            },
            {
                "amount": "158.799149959289594963",
                "from": "0x11950d141ecb863f01007add7d1a342041227b58",
                "id": 4,
                "isERC1155": false,
                "isERC721": false,
                "isReverted": false,
                "order": 4,
                "to": "0x3fc91a3afd70395cd496c647d5a6cc9d4b2b7fad",
                "token": "0xc02aaa39b223fe8d0a0e5c4f27ead9083c756cc2"
            },
            {
                "amount": "371,062,778,452.513238734317832295",
                "from": "0x1f5d2c5de70dcf3e82471e8b3ad5781395e36cf6",
                "id": 5,
                "isERC1155": false,
                "isERC721": false,
                "isReverted": false,
                "order": 5,
                "to": "0x11950d141ecb863f01007add7d1a342041227b58",
                "token": "0x6982508145454ce325ddbe47a25d4ec3d2311933"
            },
            {
                "amount": "257,651.628521",
                "from": "0x88e6a0c2ddd26feeb64f039a2c41296fcb3f5640",
                "id": 6,
                "isERC1155": false,
                "isERC721": false,
                "isReverted": false,
                "order": 6,
                "to": "0x1f5d2c5de70dcf3e82471e8b3ad5781395e36cf6",
                "token": "0xa0b86991c6218b36c1d19d4a2e9eb0ce3606eb48"
            },
            {
                "amount": "158.799149959289594963",
                "from": "0x3fc91a3afd70395cd496c647d5a6cc9d4b2b7fad",
                "id": 7,
                "isERC1155": false,
                "isERC721": false,
                "isReverted": false,
                "order": 7,
                "to": "0x88e6a0c2ddd26feeb64f039a2c41296fcb3f5640",
                "token": "0xc02aaa39b223fe8d0a0e5c4f27ead9083c756cc2"
            }
        ],
        "token_infos": [
            {
                "address": "0x6982508145454ce325ddbe47a25d4ec3d2311933",
                "decimals": 18
            },
            {
                "address": "0xa0b86991c6218b36c1d19d4a2e9eb0ce3606eb48",
                "decimals": 6
            },
            {
                "address": "0xc02aaa39b223fe8d0a0e5c4f27ead9083c756cc2",
                "decimals": 18
            },
            {
                "address": "0xeeeeeeeeeeeeeeeeeeeeeeeeeeeeeeeeeeeeeeee",
                "decimals": 18
            }
        ]
    },
    "address_label": {
        "labels": [
            {
                "address": "0xeeeeeeeeeeeeeeeeeeeeeeeeeeeeeeeeeeeeeeee",
                "label": "Ether"
            },
            {
                "address": "0x3fc91a3afd70395cd496c647d5a6cc9d4b2b7fad",
                "label": "Uniswap: Universal Router"
            },
            {
                "address": "0xc02aaa39b223fe8d0a0e5c4f27ead9083c756cc2",
                "label": "Wrapped Ether (WETH)"
            },
            {
                "address": "0x0000000000000000000000000000000000000002",
                "label": "Precompiled"
            },
            {
                "address": "0x0000000000000000000000000000000000000004",
                "label": "Precompiled"
            },
            {
                "address": "0x000000000022d473030f116ddee9f6b43ac78ba3",
                "label": "Permit2"
            },
            {
                "address": "0xb4e16d0168e52d35cacd2c6185b44281ec28c9dc",
                "label": "Uniswap V2: USDC"
            },
            {
                "address": "0x6982508145454ce325ddbe47a25d4ec3d2311933",
                "label": "Pepe: PEPE Token"
            },
            {
                "address": "0x0000000000000000000000000000000000000003",
                "label": "Precompiled"
            },
            {
                "address": "0x11950d141ecb863f01007add7d1a342041227b58",
                "label": "Uniswap V3: PEPE 4"
            },
            {
                "address": "0x88e6a0c2ddd26feeb64f039a2c41296fcb3f5640",
                "label": "Uniswap V3: USDC 3"
            },
            {
                "address": "0xa43fe16908251ee70ef74718545e4fe6c5ccec9f",
                "label": "Uniswap V2 (UNI-V2)"
            },
            {
                "address": "0xa2327a938febf5fec13bacfb16ae10ecbc4cbdcf",
                "label": "FiatTokenV2_1"
            },
            {
                "address": "0xa0b86991c6218b36c1d19d4a2e9eb0ce3606eb48",
                "label": "Circle: USDC Token"
            },
            {
                "address": "0x0000000000000000000000000000000000000001",
                "label": "Precompiled"
            }
        ]
    },
    "trace": {
        "accountLabels": null,
        "dataMap": {
            "-1": {
                "invocation": {
                    "address": "0x1f5d2c5de70dcf3e82471e8b3ad5781395e36cf6",
                    "callData": "",
                    "decodedMethod": null,
                    "errorInfo": "",
                    "fromAddress": "",
                    "gasUsed": 0,
                    "id": -1,
                    "methodDecoded": false,
                    "operation": "",
                    "output": "",
                    "revert": false,
                    "revertMessage": "",
                    "selector": "",
                    "status": false,
                    "value": ""
                },
                "nodeType": 0
            },
            "0": {
                "invocation": {
                    "address": "0x3fc91a3afd70395cd496c647d5a6cc9d4b2b7fad",
                    "callData": "0x000000000000000000000000000000000000000000000000000000000000006000000000000000000000000000000000000000000000000000000000000000a000000000000000000000000000000000000000000000000000000000651f7a9f000000000000000000000000000000000000000000000000000000000000000208000000000000000000000000000000000000000000000000000000000000000000000000000000000000000000000000000000000000000000000000000002000000000000000000000000000000000000000000000000000000000000004000000000000000000000000000000000000000000000000000000000000001800000000000000000000000000000000000000000000000000000000000000120000000000000000000000000000000000000000000000000000000000000000100000000000000000000000000000000000000008537fe30b43a2c407733247d00000000000000000000000000000000000000000000000000000006a116683900000000000000000000000000000000000000000000000000000000000000a0000000000000000000000000000000000000000000000000000000000000000100000000000000000000000000000000000000000000000000000000000000030000000000000000000000006982508145454ce325ddbe47a25d4ec3d2311933000000000000000000000000c02aaa39b223fe8d0a0e5c4f27ead9083c756cc2000000000000000000000000a0b86991c6218b36c1d19d4a2e9eb0ce3606eb48000000000000000000000000000000000000000000000000000000000000012000000000000000000000000000000000000000000000000000000000000000010000000000000000000000000000000000000004aef7efb6560b8e4430cc48670000000000000000000000000000000000000000000000000000003bfd3bd8c900000000000000000000000000000000000000000000000000000000000000a0000000000000000000000000000000000000000000000000000000000000000100000000000000000000000000000000000000000000000000000000000000426982508145454ce325ddbe47a25d4ec3d2311933000bb8c02aaa39b223fe8d0a0e5c4f27ead9083c756cc20001f4a0b86991c6218b36c1d19d4a2e9eb0ce3606eb48000000000000000000000000000000000000000000000000000000000000",
                    "decodedMethod": {
                        "callParams": [
                            {
                                "name": "commands",
                                "type": "bytes",
                                "value": "0x0800"
                            },
                            {
                                "name": "inputs",
                                "type": "bytes[]",
                                "value": [
                                    "0x000000000000000000000000000000000000000000000000000000000000000100000000000000000000000000000000000000008537fe30b43a2c407733247d00000000000000000000000000000000000000000000000000000006a116683900000000000000000000000000000000000000000000000000000000000000a0000000000000000000000000000000000000000000000000000000000000000100000000000000000000000000000000000000000000000000000000000000030000000000000000000000006982508145454ce325ddbe47a25d4ec3d2311933000000000000000000000000c02aaa39b223fe8d0a0e5c4f27ead9083c756cc2000000000000000000000000a0b86991c6218b36c1d19d4a2e9eb0ce3606eb48",
                                    "0x00000000000000000000000000000000000000000000000000000000000000010000000000000000000000000000000000000004aef7efb6560b8e4430cc48670000000000000000000000000000000000000000000000000000003bfd3bd8c900000000000000000000000000000000000000000000000000000000000000a0000000000000000000000000000000000000000000000000000000000000000100000000000000000000000000000000000000000000000000000000000000426982508145454ce325ddbe47a25d4ec3d2311933000bb8c02aaa39b223fe8d0a0e5c4f27ead9083c756cc20001f4a0b86991c6218b36c1d19d4a2e9eb0ce3606eb48000000000000000000000000000000000000000000000000000000000000"
                                ]
                            },
                            {
                                "name": "deadline",
                                "type": "uint256",
                                "value": "1,696,561,823"
                            }
                        ],
                        "constructorArguments": "",
                        "name": "execute",
                        "returnParams": [],
                        "signature": "execute(bytes,bytes[],uint256)"
                    },
                    "errorInfo": "",
                    "fromAddress": "0x1f5d2c5de70dcf3e82471e8b3ad5781395e36cf6",
                    "gasUsed": 402534,
                    "id": 0,
                    "methodDecoded": true,
                    "operation": "CALL",
                    "output": "",
                    "revert": false,
                    "revertMessage": "",
                    "selector": "0x3593564c",
                    "status": true,
                    "value": "0"
                },
                "nodeType": 0
            },
            "1": {
                "invocation": {
                    "address": "0x000000000022d473030f116ddee9f6b43ac78ba3",
                    "callData": "0x0000000000000000000000001f5d2c5de70dcf3e82471e8b3ad5781395e36cf6000000000000000000000000a43fe16908251ee70ef74718545e4fe6c5ccec9f00000000000000000000000000000000000000008537fe30b43a2c407733247d0000000000000000000000006982508145454ce325ddbe47a25d4ec3d2311933",
                    "decodedMethod": {
                        "callParams": [
                            {
                                "name": "from",
                                "type": "address",
                                "value": "0x1f5d2c5de70dcf3e82471e8b3ad5781395e36cf6"
                            },
                            {
                                "name": "to",
                                "type": "address",
                                "value": "0xa43fe16908251ee70ef74718545e4fe6c5ccec9f"
                            },
                            {
                                "name": "amount",
                                "type": "uint160",
                                "value": "41,229,197,605,834,804,303,813,092,477"
                            },
                            {
                                "name": "token",
                                "type": "address",
                                "value": "0x6982508145454ce325ddbe47a25d4ec3d2311933"
                            }
                        ],
                        "constructorArguments": "",
                        "name": "transferFrom",
                        "returnParams": [],
                        "signature": "transferFrom(address,address,uint160,address)"
                    },
                    "errorInfo": "",
                    "fromAddress": "0x3fc91a3afd70395cd496c647d5a6cc9d4b2b7fad",
                    "gasUsed": 34852,
                    "id": 1,
                    "methodDecoded": true,
                    "operation": "CALL",
                    "output": "",
                    "revert": false,
                    "revertMessage": "",
                    "selector": "0x36c78516",
                    "status": true,
                    "value": "0"
                },
                "nodeType": 0
            },
            "10": {
                "invocation": {
                    "address": "0xc02aaa39b223fe8d0a0e5c4f27ead9083c756cc2",
                    "callData": "0x000000000000000000000000b4e16d0168e52d35cacd2c6185b44281ec28c9dc000000000000000000000000000000000000000000000000f4d705f94dd91694",
                    "decodedMethod": {
                        "callParams": [
                            {
                                "name": "dst",
                                "type": "address",
                                "value": "0xb4e16d0168e52d35cacd2c6185b44281ec28c9dc"
                            },
                            {
                                "decimalAvailable": true,
                                "name": "wad",
                                "type": "uint256",
                                "value": "17,642,576,633,558,275,732"
                            }
                        ],
                        "constructorArguments": "",
                        "name": "transfer",
                        "returnParams": [
                            {
                                "name": "",
                                "type": "bool",
                                "value": true
                            }
                        ],
                        "signature": "transfer(address,uint256)"
                    },
                    "errorInfo": "",
                    "fromAddress": "0xa43fe16908251ee70ef74718545e4fe6c5ccec9f",
                    "gasUsed": 12862,
                    "id": 10,
                    "methodDecoded": true,
                    "operation": "CALL",
                    "output": "0x0000000000000000000000000000000000000000000000000000000000000001",
                    "revert": false,
                    "revertMessage": "",
                    "selector": "0xa9059cbb",
                    "status": true,
                    "value": "0"
                },
                "nodeType": 0
            },
            "11": {
                "event": {
                    "contract": "0xc02aaa39b223fe8d0a0e5c4f27ead9083c756cc2",
                    "decodedLog": {
                        "name": "Transfer",
                        "params": [
                            {
                                "name": "src",
                                "type": "address",
                                "value": "0xa43fe16908251ee70ef74718545e4fe6c5ccec9f"
                            },
                            {
                                "name": "dst",
                                "type": "address",
                                "value": "0xb4e16d0168e52d35cacd2c6185b44281ec28c9dc"
                            },
                            {
                                "decimalAvailable": true,
                                "name": "wad",
                                "type": "uint256",
                                "value": "17,642,576,633,558,275,732"
                            }
                        ],
                        "signature": "Transfer(address,address,uint256)"
                    },
                    "id": 11,
                    "logData": "0x000000000000000000000000000000000000000000000000f4d705f94dd91694",
                    "logDecoded": true,
                    "operation": "EVENT",
                    "revert": false,
                    "status": true,
                    "topics": [
                        "0xddf252ad1be2c89b69c2b068fc378daa952ba7f163c4a11628f55a4df523b3ef",
                        "0x000000000000000000000000a43fe16908251ee70ef74718545e4fe6c5ccec9f",
                        "0x000000000000000000000000b4e16d0168e52d35cacd2c6185b44281ec28c9dc"
                    ]
                },
                "nodeType": 1
            },
            "12": {
                "invocation": {
                    "address": "0x6982508145454ce325ddbe47a25d4ec3d2311933",
                    "callData": "0x000000000000000000000000a43fe16908251ee70ef74718545e4fe6c5ccec9f",
                    "decodedMethod": {
                        "callParams": [
                            {
                                "name": "account",
                                "type": "address",
                                "value": "0xa43fe16908251ee70ef74718545e4fe6c5ccec9f"
                            }
                        ],
                        "constructorArguments": "",
                        "name": "balanceOf",
                        "returnParams": [
                            {
                                "decimalAvailable": true,
                                "name": "",
                                "type": "uint256",
                                "value": "4,984,568,157,578,272,210,437,725,988,993"
                            }
                        ],
                        "signature": "balanceOf(address)"
                    },
                    "errorInfo": "",
                    "fromAddress": "0xa43fe16908251ee70ef74718545e4fe6c5ccec9f",
                    "gasUsed": 624,
                    "id": 12,
                    "methodDecoded": true,
                    "operation": "STATICCALL",
                    "output": "0x000000000000000000000000000000000000003eea0224536bea7aeedcb7a881",
                    "revert": false,
                    "revertMessage": "",
                    "selector": "0x70a08231",
                    "status": true,
                    "value": "0"
                },
                "nodeType": 0
            },
            "13": {
                "invocation": {
                    "address": "0xc02aaa39b223fe8d0a0e5c4f27ead9083c756cc2",
                    "callData": "0x000000000000000000000000a43fe16908251ee70ef74718545e4fe6c5ccec9f",
                    "decodedMethod": {
                        "callParams": [
                            {
                                "name": "",
                                "type": "address",
                                "value": "0xa43fe16908251ee70ef74718545e4fe6c5ccec9f"
                            }
                        ],
                        "constructorArguments": "",
                        "name": "balanceOf",
                        "returnParams": [
                            {
                                "decimalAvailable": true,
                                "name": "",
                                "type": "uint256",
                                "value": "2,121,692,113,766,482,648,300"
                            }
                        ],
                        "signature": "balanceOf(address)"
                    },
                    "errorInfo": "",
                    "fromAddress": "0xa43fe16908251ee70ef74718545e4fe6c5ccec9f",
                    "gasUsed": 534,
                    "id": 13,
                    "methodDecoded": true,
                    "operation": "STATICCALL",
                    "output": "0x0000000000000000000000000000000000000000000000730464984396df1cec",
                    "revert": false,
                    "revertMessage": "",
                    "selector": "0x70a08231",
                    "status": true,
                    "value": "0"
                },
                "nodeType": 0
            },
            "14": {
                "event": {
                    "contract": "0xa43fe16908251ee70ef74718545e4fe6c5ccec9f",
                    "decodedLog": {
                        "name": "Sync",
                        "params": [
                            {
                                "name": "reserve0",
                                "type": "uint112",
                                "value": "4,984,568,157,578,272,210,437,725,988,993"
                            },
                            {
                                "name": "reserve1",
                                "type": "uint112",
                                "value": "2,121,692,113,766,482,648,300"
                            }
                        ],
                        "signature": "Sync(uint112,uint112)"
                    },
                    "id": 14,
                    "logData": "0x000000000000000000000000000000000000003eea0224536bea7aeedcb7a8810000000000000000000000000000000000000000000000730464984396df1cec",
                    "logDecoded": true,
                    "operation": "EVENT",
                    "revert": false,
                    "status": true,
                    "topics": [
                        "0x1c411e9a96e071241c2f21f7726b17ae89e3cab4c78be50e062b03a9fffbbad1"
                    ]
                },
                "nodeType": 1
            },
            "15": {
                "event": {
                    "contract": "0xa43fe16908251ee70ef74718545e4fe6c5ccec9f",
                    "decodedLog": {
                        "name": "Swap",
                        "params": [
                            {
                                "name": "sender",
                                "type": "address",
                                "value": "0x3fc91a3afd70395cd496c647d5a6cc9d4b2b7fad"
                            },
                            {
                                "name": "to",
                                "type": "address",
                                "value": "0xb4e16d0168e52d35cacd2c6185b44281ec28c9dc"
                            },
                            {
                                "name": "amount0In",
                                "type": "uint256",
                                "value": "41,229,197,605,834,804,303,813,092,477"
                            },
                            {
                                "name": "amount1In",
                                "type": "uint256",
                                "value": "0"
                            },
                            {
                                "name": "amount0Out",
                                "type": "uint256",
                                "value": "0"
                            },
                            {
                                "name": "amount1Out",
                                "type": "uint256",
                                "value": "17,642,576,633,558,275,732"
                            }
                        ],
                        "signature": "Swap(address,uint256,uint256,uint256,uint256,address)"
                    },
                    "id": 15,
                    "logData": "0x00000000000000000000000000000000000000008537fe30b43a2c407733247d00000000000000000000000000000000000000000000000000000000000000000000000000000000000000000000000000000000000000000000000000000000000000000000000000000000000000000000000000000000f4d705f94dd91694",
                    "logDecoded": true,
                    "operation": "EVENT",
                    "revert": false,
                    "status": true,
                    "topics": [
                        "0xd78ad95fa46c994b6551d0da85fc275fe613ce37657fb8d5e3d130840159d822",
                        "0x0000000000000000000000003fc91a3afd70395cd496c647d5a6cc9d4b2b7fad",
                        "0x000000000000000000000000b4e16d0168e52d35cacd2c6185b44281ec28c9dc"
                    ]
                },
                "nodeType": 1
            },
            "16": {
                "invocation": {
                    "address": "0xb4e16d0168e52d35cacd2c6185b44281ec28c9dc",
                    "callData": "0x",
                    "decodedMethod": {
                        "callParams": [],
                        "constructorArguments": "",
                        "name": "getReserves",
                        "returnParams": [
                            {
                                "name": "_reserve0",
                                "type": "uint112",
                                "value": "27,833,202,140,674"
                            },
                            {
                                "name": "_reserve1",
                                "type": "uint112",
                                "value": "17,177,173,804,939,770,971,904"
                            },
                            {
                                "name": "_blockTimestampLast",
                                "type": "uint32",
                                "value": "1,696,559,963"
                            }
                        ],
                        "signature": "getReserves()"
                    },
                    "errorInfo": "",
                    "fromAddress": "0x3fc91a3afd70395cd496c647d5a6cc9d4b2b7fad",
                    "gasUsed": 2504,
                    "id": 16,
                    "methodDecoded": true,
                    "operation": "STATICCALL",
                    "output": "0x000000000000000000000000000000000000000000000000000019506c2066020000000000000000000000000000000000000000000003a32d2c57068405c70000000000000000000000000000000000000000000000000000000000651f735b",
                    "revert": false,
                    "revertMessage": "",
                    "selector": "0x0902f1ac",
                    "status": true,
                    "value": "0"
                },
                "nodeType": 0
            },
            "17": {
                "invocation": {
                    "address": "0xc02aaa39b223fe8d0a0e5c4f27ead9083c756cc2",
                    "callData": "0x000000000000000000000000b4e16d0168e52d35cacd2c6185b44281ec28c9dc",
                    "decodedMethod": {
                        "callParams": [
                            {
                                "name": "",
                                "type": "address",
                                "value": "0xb4e16d0168e52d35cacd2c6185b44281ec28c9dc"
                            }
                        ],
                        "constructorArguments": "",
                        "name": "balanceOf",
                        "returnParams": [
                            {
                                "decimalAvailable": true,
                                "name": "",
                                "type": "uint256",
                                "value": "17,194,816,381,573,329,247,636"
                            }
                        ],
                        "signature": "balanceOf(address)"
                    },
                    "errorInfo": "",
                    "fromAddress": "0x3fc91a3afd70395cd496c647d5a6cc9d4b2b7fad",
                    "gasUsed": 534,
                    "id": 17,
                    "methodDecoded": true,
                    "operation": "STATICCALL",
                    "output": "0x0000000000000000000000000000000000000000000003a422035cffd1dedd94",
                    "revert": false,
                    "revertMessage": "",
                    "selector": "0x70a08231",
                    "status": true,
                    "value": "0"
                },
                "nodeType": 0
            },
            "18": {
                "invocation": {
                    "address": "0xb4e16d0168e52d35cacd2c6185b44281ec28c9dc",
                    "callData": "0x00000000000000000000000000000000000000000000000000000006a116688700000000000000000000000000000000000000000000000000000000000000000000000000000000000000001f5d2c5de70dcf3e82471e8b3ad5781395e36cf600000000000000000000000000000000000000000000000000000000000000800000000000000000000000000000000000000000000000000000000000000000",
                    "decodedMethod": {
                        "callParams": [
                            {
                                "name": "amount0Out",
                                "type": "uint256",
                                "value": "28,472,404,103"
                            },
                            {
                                "name": "amount1Out",
                                "type": "uint256",
                                "value": "0"
                            },
                            {
                                "name": "to",
                                "type": "address",
                                "value": "0x1f5d2c5de70dcf3e82471e8b3ad5781395e36cf6"
                            },
                            {
                                "name": "data",
                                "type": "bytes",
                                "value": "0x"
                            }
                        ],
                        "constructorArguments": "",
                        "name": "swap",
                        "returnParams": [],
                        "signature": "swap(uint256,uint256,address,bytes)"
                    },
                    "errorInfo": "",
                    "fromAddress": "0x3fc91a3afd70395cd496c647d5a6cc9d4b2b7fad",
                    "gasUsed": 51589,
                    "id": 18,
                    "methodDecoded": true,
                    "operation": "CALL",
                    "output": "",
                    "revert": false,
                    "revertMessage": "",
                    "selector": "0x022c0d9f",
                    "status": true,
                    "value": "0"
                },
                "nodeType": 0
            },
            "19": {
                "invocation": {
                    "address": "0xa0b86991c6218b36c1d19d4a2e9eb0ce3606eb48",
                    "callData": "0x0000000000000000000000001f5d2c5de70dcf3e82471e8b3ad5781395e36cf600000000000000000000000000000000000000000000000000000006a1166887",
                    "decodedMethod": {
                        "callParams": [
                            {
                                "name": "to",
                                "type": "address",
                                "value": "0x1f5d2c5de70dcf3e82471e8b3ad5781395e36cf6"
                            },
                            {
                                "decimalAvailable": true,
                                "name": "value",
                                "type": "uint256",
                                "value": "28,472,404,103"
                            }
                        ],
                        "constructorArguments": "",
                        "name": "transfer",
                        "returnParams": [
                            {
                                "name": "",
                                "type": "bool",
                                "value": true
                            }
                        ],
                        "signature": "transfer(address,uint256)"
                    },
                    "errorInfo": "",
                    "fromAddress": "0xb4e16d0168e52d35cacd2c6185b44281ec28c9dc",
                    "gasUsed": 18417,
                    "id": 19,
                    "methodDecoded": true,
                    "operation": "CALL",
                    "output": "0x0000000000000000000000000000000000000000000000000000000000000001",
                    "revert": false,
                    "revertMessage": "",
                    "selector": "0xa9059cbb",
                    "status": true,
                    "value": "0"
                },
                "nodeType": 0
            },
            "2": {
                "invocation": {
                    "address": "0x6982508145454ce325ddbe47a25d4ec3d2311933",
                    "callData": "0x0000000000000000000000001f5d2c5de70dcf3e82471e8b3ad5781395e36cf6000000000000000000000000a43fe16908251ee70ef74718545e4fe6c5ccec9f00000000000000000000000000000000000000008537fe30b43a2c407733247d",
                    "decodedMethod": {
                        "callParams": [
                            {
                                "name": "sender",
                                "type": "address",
                                "value": "0x1f5d2c5de70dcf3e82471e8b3ad5781395e36cf6"
                            },
                            {
                                "name": "recipient",
                                "type": "address",
                                "value": "0xa43fe16908251ee70ef74718545e4fe6c5ccec9f"
                            },
                            {
                                "decimalAvailable": true,
                                "name": "amount",
                                "type": "uint256",
                                "value": "41,229,197,605,834,804,303,813,092,477"
                            }
                        ],
                        "constructorArguments": "",
                        "name": "transferFrom",
                        "returnParams": [
                            {
                                "name": "",
                                "type": "bool",
                                "value": true
                            }
                        ],
                        "signature": "transferFrom(address,address,uint256)"
                    },
                    "errorInfo": "",
                    "fromAddress": "0x000000000022d473030f116ddee9f6b43ac78ba3",
                    "gasUsed": 29145,
                    "id": 2,
                    "methodDecoded": true,
                    "operation": "CALL",
                    "output": "0x0000000000000000000000000000000000000000000000000000000000000001",
                    "revert": false,
                    "revertMessage": "",
                    "selector": "0x23b872dd",
                    "status": true,
                    "value": "0"
                },
                "nodeType": 0
            },
            "20": {
                "invocation": {
                    "address": "0xa2327a938febf5fec13bacfb16ae10ecbc4cbdcf",
                    "callData": "0x0000000000000000000000001f5d2c5de70dcf3e82471e8b3ad5781395e36cf600000000000000000000000000000000000000000000000000000006a1166887",
                    "decodedMethod": {
                        "callParams": [
                            {
                                "name": "to",
                                "type": "address",
                                "value": "0x1f5d2c5de70dcf3e82471e8b3ad5781395e36cf6"
                            },
                            {
                                "decimalAvailable": true,
                                "name": "value",
                                "type": "uint256",
                                "value": "28,472,404,103"
                            }
                        ],
                        "constructorArguments": "",
                        "name": "transfer",
                        "returnParams": [
                            {
                                "name": "",
                                "type": "bool",
                                "value": true
                            }
                        ],
                        "signature": "transfer(address,uint256)"
                    },
                    "errorInfo": "",
                    "fromAddress": "0xa0b86991c6218b36c1d19d4a2e9eb0ce3606eb48",
                    "gasUsed": 17628,
                    "id": 20,
                    "methodDecoded": true,
                    "operation": "DELEGATECALL",
                    "output": "0x0000000000000000000000000000000000000000000000000000000000000001",
                    "revert": false,
                    "revertMessage": "",
                    "selector": "0xa9059cbb",
                    "status": true,
                    "value": "0"
                },
                "nodeType": 0
            },
            "21": {
                "event": {
                    "contract": "0xa0b86991c6218b36c1d19d4a2e9eb0ce3606eb48",
                    "decodedLog": {
                        "name": "Transfer",
                        "params": [
                            {
                                "name": "from",
                                "type": "address",
                                "value": "0xb4e16d0168e52d35cacd2c6185b44281ec28c9dc"
                            },
                            {
                                "name": "to",
                                "type": "address",
                                "value": "0x1f5d2c5de70dcf3e82471e8b3ad5781395e36cf6"
                            },
                            {
                                "decimalAvailable": true,
                                "name": "value",
                                "type": "uint256",
                                "value": "28,472,404,103"
                            }
                        ],
                        "signature": "Transfer(address,address,uint256)"
                    },
                    "id": 21,
                    "logData": "0x00000000000000000000000000000000000000000000000000000006a1166887",
                    "logDecoded": true,
                    "operation": "EVENT",
                    "revert": false,
                    "status": true,
                    "topics": [
                        "0xddf252ad1be2c89b69c2b068fc378daa952ba7f163c4a11628f55a4df523b3ef",
                        "0x000000000000000000000000b4e16d0168e52d35cacd2c6185b44281ec28c9dc",
                        "0x0000000000000000000000001f5d2c5de70dcf3e82471e8b3ad5781395e36cf6"
                    ]
                },
                "nodeType": 1
            },
            "22": {
                "invocation": {
                    "address": "0xa0b86991c6218b36c1d19d4a2e9eb0ce3606eb48",
                    "callData": "0x000000000000000000000000b4e16d0168e52d35cacd2c6185b44281ec28c9dc",
                    "decodedMethod": {
                        "callParams": [
                            {
                                "name": "account",
                                "type": "address",
                                "value": "0xb4e16d0168e52d35cacd2c6185b44281ec28c9dc"
                            }
                        ],
                        "constructorArguments": "",
                        "name": "balanceOf",
                        "returnParams": [
                            {
                                "decimalAvailable": true,
                                "name": "",
                                "type": "uint256",
                                "value": "27,804,729,736,571"
                            }
                        ],
                        "signature": "balanceOf(address)"
                    },
                    "errorInfo": "",
                    "fromAddress": "0xb4e16d0168e52d35cacd2c6185b44281ec28c9dc",
                    "gasUsed": 1315,
                    "id": 22,
                    "methodDecoded": true,
                    "operation": "STATICCALL",
                    "output": "0x00000000000000000000000000000000000000000000000000001949cb09fd7b",
                    "revert": false,
                    "revertMessage": "",
                    "selector": "0x70a08231",
                    "status": true,
                    "value": "0"
                },
                "nodeType": 0
            },
            "23": {
                "invocation": {
                    "address": "0xa2327a938febf5fec13bacfb16ae10ecbc4cbdcf",
                    "callData": "0x000000000000000000000000b4e16d0168e52d35cacd2c6185b44281ec28c9dc",
                    "decodedMethod": {
                        "callParams": [
                            {
                                "name": "account",
                                "type": "address",
                                "value": "0xb4e16d0168e52d35cacd2c6185b44281ec28c9dc"
                            }
                        ],
                        "constructorArguments": "",
                        "name": "balanceOf",
                        "returnParams": [
                            {
                                "decimalAvailable": true,
                                "name": "",
                                "type": "uint256",
                                "value": "27,804,729,736,571"
                            }
                        ],
                        "signature": "balanceOf(address)"
                    },
                    "errorInfo": "",
                    "fromAddress": "0xa0b86991c6218b36c1d19d4a2e9eb0ce3606eb48",
                    "gasUsed": 529,
                    "id": 23,
                    "methodDecoded": true,
                    "operation": "DELEGATECALL",
                    "output": "0x00000000000000000000000000000000000000000000000000001949cb09fd7b",
                    "revert": false,
                    "revertMessage": "",
                    "selector": "0x70a08231",
                    "status": true,
                    "value": "0"
                },
                "nodeType": 0
            },
            "24": {
                "invocation": {
                    "address": "0xc02aaa39b223fe8d0a0e5c4f27ead9083c756cc2",
                    "callData": "0x000000000000000000000000b4e16d0168e52d35cacd2c6185b44281ec28c9dc",
                    "decodedMethod": {
                        "callParams": [
                            {
                                "name": "",
                                "type": "address",
                                "value": "0xb4e16d0168e52d35cacd2c6185b44281ec28c9dc"
                            }
                        ],
                        "constructorArguments": "",
                        "name": "balanceOf",
                        "returnParams": [
                            {
                                "decimalAvailable": true,
                                "name": "",
                                "type": "uint256",
                                "value": "17,194,816,381,573,329,247,636"
                            }
                        ],
                        "signature": "balanceOf(address)"
                    },
                    "errorInfo": "",
                    "fromAddress": "0xb4e16d0168e52d35cacd2c6185b44281ec28c9dc",
                    "gasUsed": 534,
                    "id": 24,
                    "methodDecoded": true,
                    "operation": "STATICCALL",
                    "output": "0x0000000000000000000000000000000000000000000003a422035cffd1dedd94",
                    "revert": false,
                    "revertMessage": "",
                    "selector": "0x70a08231",
                    "status": true,
                    "value": "0"
                },
                "nodeType": 0
            },
            "25": {
                "event": {
                    "contract": "0xb4e16d0168e52d35cacd2c6185b44281ec28c9dc",
                    "decodedLog": {
                        "name": "Sync",
                        "params": [
                            {
                                "name": "reserve0",
                                "type": "uint112",
                                "value": "27,804,729,736,571"
                            },
                            {
                                "name": "reserve1",
                                "type": "uint112",
                                "value": "17,194,816,381,573,329,247,636"
                            }
                        ],
                        "signature": "Sync(uint112,uint112)"
                    },
                    "id": 25,
                    "logData": "0x00000000000000000000000000000000000000000000000000001949cb09fd7b0000000000000000000000000000000000000000000003a422035cffd1dedd94",
                    "logDecoded": true,
                    "operation": "EVENT",
                    "revert": false,
                    "status": true,
                    "topics": [
                        "0x1c411e9a96e071241c2f21f7726b17ae89e3cab4c78be50e062b03a9fffbbad1"
                    ]
                },
                "nodeType": 1
            },
            "26": {
                "event": {
                    "contract": "0xb4e16d0168e52d35cacd2c6185b44281ec28c9dc",
                    "decodedLog": {
                        "name": "Swap",
                        "params": [
                            {
                                "name": "sender",
                                "type": "address",
                                "value": "0x3fc91a3afd70395cd496c647d5a6cc9d4b2b7fad"
                            },
                            {
                                "name": "to",
                                "type": "address",
                                "value": "0x1f5d2c5de70dcf3e82471e8b3ad5781395e36cf6"
                            },
                            {
                                "name": "amount0In",
                                "type": "uint256",
                                "value": "0"
                            },
                            {
                                "name": "amount1In",
                                "type": "uint256",
                                "value": "17,642,576,633,558,275,732"
                            },
                            {
                                "name": "amount0Out",
                                "type": "uint256",
                                "value": "28,472,404,103"
                            },
                            {
                                "name": "amount1Out",
                                "type": "uint256",
                                "value": "0"
                            }
                        ],
                        "signature": "Swap(address,uint256,uint256,uint256,uint256,address)"
                    },
                    "id": 26,
                    "logData": "0x0000000000000000000000000000000000000000000000000000000000000000000000000000000000000000000000000000000000000000f4d705f94dd9169400000000000000000000000000000000000000000000000000000006a11668870000000000000000000000000000000000000000000000000000000000000000",
                    "logDecoded": true,
                    "operation": "EVENT",
                    "revert": false,
                    "status": true,
                    "topics": [
                        "0xd78ad95fa46c994b6551d0da85fc275fe613ce37657fb8d5e3d130840159d822",
                        "0x0000000000000000000000003fc91a3afd70395cd496c647d5a6cc9d4b2b7fad",
                        "0x0000000000000000000000001f5d2c5de70dcf3e82471e8b3ad5781395e36cf6"
                    ]
                },
                "nodeType": 1
            },
            "27": {
                "invocation": {
                    "address": "0xa0b86991c6218b36c1d19d4a2e9eb0ce3606eb48",
                    "callData": "0x0000000000000000000000001f5d2c5de70dcf3e82471e8b3ad5781395e36cf6",
                    "decodedMethod": {
                        "callParams": [
                            {
                                "name": "account",
                                "type": "address",
                                "value": "0x1f5d2c5de70dcf3e82471e8b3ad5781395e36cf6"
                            }
                        ],
                        "constructorArguments": "",
                        "name": "balanceOf",
                        "returnParams": [
                            {
                                "decimalAvailable": true,
                                "name": "",
                                "type": "uint256",
                                "value": "51,238,727,849"
                            }
                        ],
                        "signature": "balanceOf(address)"
                    },
                    "errorInfo": "",
                    "fromAddress": "0x3fc91a3afd70395cd496c647d5a6cc9d4b2b7fad",
                    "gasUsed": 1315,
                    "id": 27,
                    "methodDecoded": true,
                    "operation": "STATICCALL",
                    "output": "0x0000000000000000000000000000000000000000000000000000000bee10f0a9",
                    "revert": false,
                    "revertMessage": "",
                    "selector": "0x70a08231",
                    "status": true,
                    "value": "0"
                },
                "nodeType": 0
            },
            "28": {
                "invocation": {
                    "address": "0xa2327a938febf5fec13bacfb16ae10ecbc4cbdcf",
                    "callData": "0x0000000000000000000000001f5d2c5de70dcf3e82471e8b3ad5781395e36cf6",
                    "decodedMethod": {
                        "callParams": [
                            {
                                "name": "account",
                                "type": "address",
                                "value": "0x1f5d2c5de70dcf3e82471e8b3ad5781395e36cf6"
                            }
                        ],
                        "constructorArguments": "",
                        "name": "balanceOf",
                        "returnParams": [
                            {
                                "decimalAvailable": true,
                                "name": "",
                                "type": "uint256",
                                "value": "51,238,727,849"
                            }
                        ],
                        "signature": "balanceOf(address)"
                    },
                    "errorInfo": "",
                    "fromAddress": "0xa0b86991c6218b36c1d19d4a2e9eb0ce3606eb48",
                    "gasUsed": 529,
                    "id": 28,
                    "methodDecoded": true,
                    "operation": "DELEGATECALL",
                    "output": "0x0000000000000000000000000000000000000000000000000000000bee10f0a9",
                    "revert": false,
                    "revertMessage": "",
                    "selector": "0x70a08231",
                    "status": true,
                    "value": "0"
                },
                "nodeType": 0
            },
            "29": {
                "invocation": {
                    "address": "0x11950d141ecb863f01007add7d1a342041227b58",
                    "callData": "0x0000000000000000000000003fc91a3afd70395cd496c647d5a6cc9d4b2b7fad00000000000000000000000000000000000000000000000000000000000000010000000000000000000000000000000000000004aef7efb6560b8e4430cc486700000000000000000000000000000000000000000000000000000001000276a400000000000000000000000000000000000000000000000000000000000000a000000000000000000000000000000000000000000000000000000000000000a000000000000000000000000000000000000000000000000000000000000000400000000000000000000000001f5d2c5de70dcf3e82471e8b3ad5781395e36cf6000000000000000000000000000000000000000000000000000000000000002b6982508145454ce325ddbe47a25d4ec3d2311933000bb8c02aaa39b223fe8d0a0e5c4f27ead9083c756cc2000000000000000000000000000000000000000000",
                    "decodedMethod": {
                        "callParams": [
                            {
                                "name": "recipient",
                                "type": "address",
                                "value": "0x3fc91a3afd70395cd496c647d5a6cc9d4b2b7fad"
                            },
                            {
                                "name": "zeroForOne",
                                "type": "bool",
                                "value": true
                            },
                            {
                                "name": "amountSpecified",
                                "type": "int256",
                                "value": "371,062,778,452,513,238,734,317,832,295"
                            },
                            {
                                "name": "sqrtPriceLimitX96",
                                "type": "uint160",
                                "value": "4,295,128,740"
                            },
                            {
                                "name": "data",
                                "type": "bytes",
                                "value": "0x00000000000000000000000000000000000000000000000000000000000000400000000000000000000000001f5d2c5de70dcf3e82471e8b3ad5781395e36cf6000000000000000000000000000000000000000000000000000000000000002b6982508145454ce325ddbe47a25d4ec3d2311933000bb8c02aaa39b223fe8d0a0e5c4f27ead9083c756cc2000000000000000000000000000000000000000000"
                            }
                        ],
                        "constructorArguments": "",
                        "name": "swap",
                        "returnParams": [
                            {
                                "name": "amount0",
                                "type": "int256",
                                "value": "371,062,778,452,513,238,734,317,832,295"
                            },
                            {
                                "name": "amount1",
                                "type": "int256",
                                "value": "-158,799,149,959,289,594,963"
                            }
                        ],
                        "signature": "swap(address,bool,int256,uint160,bytes)"
                    },
                    "errorInfo": "",
                    "fromAddress": "0x3fc91a3afd70395cd496c647d5a6cc9d4b2b7fad",
                    "gasUsed": 162247,
                    "id": 29,
                    "methodDecoded": true,
                    "operation": "CALL",
                    "output": "0x0000000000000000000000000000000000000004aef7efb6560b8e4430cc4867fffffffffffffffffffffffffffffffffffffffffffffff7643816774a8e9bad",
                    "revert": false,
                    "revertMessage": "",
                    "selector": "0x128acb08",
                    "status": true,
                    "value": "0"
                },
                "nodeType": 0
            },
            "3": {
                "event": {
                    "contract": "0x6982508145454ce325ddbe47a25d4ec3d2311933",
                    "decodedLog": {
                        "name": "Transfer",
                        "params": [
                            {
                                "name": "from",
                                "type": "address",
                                "value": "0x1f5d2c5de70dcf3e82471e8b3ad5781395e36cf6"
                            },
                            {
                                "name": "to",
                                "type": "address",
                                "value": "0xa43fe16908251ee70ef74718545e4fe6c5ccec9f"
                            },
                            {
                                "decimalAvailable": true,
                                "name": "value",
                                "type": "uint256",
                                "value": "41,229,197,605,834,804,303,813,092,477"
                            }
                        ],
                        "signature": "Transfer(address,address,uint256)"
                    },
                    "id": 3,
                    "logData": "0x00000000000000000000000000000000000000008537fe30b43a2c407733247d",
                    "logDecoded": true,
                    "operation": "EVENT",
                    "revert": false,
                    "status": true,
                    "topics": [
                        "0xddf252ad1be2c89b69c2b068fc378daa952ba7f163c4a11628f55a4df523b3ef",
                        "0x0000000000000000000000001f5d2c5de70dcf3e82471e8b3ad5781395e36cf6",
                        "0x000000000000000000000000a43fe16908251ee70ef74718545e4fe6c5ccec9f"
                    ]
                },
                "nodeType": 1
            },
            "30": {
                "invocation": {
                    "address": "0xc02aaa39b223fe8d0a0e5c4f27ead9083c756cc2",
                    "callData": "0x0000000000000000000000003fc91a3afd70395cd496c647d5a6cc9d4b2b7fad0000000000000000000000000000000000000000000000089bc7e988b5716453",
                    "decodedMethod": {
                        "callParams": [
                            {
                                "name": "dst",
                                "type": "address",
                                "value": "0x3fc91a3afd70395cd496c647d5a6cc9d4b2b7fad"
                            },
                            {
                                "decimalAvailable": true,
                                "name": "wad",
                                "type": "uint256",
                                "value": "158,799,149,959,289,594,963"
                            }
                        ],
                        "constructorArguments": "",
                        "name": "transfer",
                        "returnParams": [
                            {
                                "name": "",
                                "type": "bool",
                                "value": true
                            }
                        ],
                        "signature": "transfer(address,uint256)"
                    },
                    "errorInfo": "",
                    "fromAddress": "0x11950d141ecb863f01007add7d1a342041227b58",
                    "gasUsed": 29962,
                    "id": 30,
                    "methodDecoded": true,
                    "operation": "CALL",
                    "output": "0x0000000000000000000000000000000000000000000000000000000000000001",
                    "revert": false,
                    "revertMessage": "",
                    "selector": "0xa9059cbb",
                    "status": true,
                    "value": "0"
                },
                "nodeType": 0
            },
            "31": {
                "event": {
                    "contract": "0xc02aaa39b223fe8d0a0e5c4f27ead9083c756cc2",
                    "decodedLog": {
                        "name": "Transfer",
                        "params": [
                            {
                                "name": "src",
                                "type": "address",
                                "value": "0x11950d141ecb863f01007add7d1a342041227b58"
                            },
                            {
                                "name": "dst",
                                "type": "address",
                                "value": "0x3fc91a3afd70395cd496c647d5a6cc9d4b2b7fad"
                            },
                            {
                                "decimalAvailable": true,
                                "name": "wad",
                                "type": "uint256",
                                "value": "158,799,149,959,289,594,963"
                            }
                        ],
                        "signature": "Transfer(address,address,uint256)"
                    },
                    "id": 31,
                    "logData": "0x0000000000000000000000000000000000000000000000089bc7e988b5716453",
                    "logDecoded": true,
                    "operation": "EVENT",
                    "revert": false,
                    "status": true,
                    "topics": [
                        "0xddf252ad1be2c89b69c2b068fc378daa952ba7f163c4a11628f55a4df523b3ef",
                        "0x00000000000000000000000011950d141ecb863f01007add7d1a342041227b58",
                        "0x0000000000000000000000003fc91a3afd70395cd496c647d5a6cc9d4b2b7fad"
                    ]
                },
                "nodeType": 1
            },
            "32": {
                "invocation": {
                    "address": "0x6982508145454ce325ddbe47a25d4ec3d2311933",
                    "callData": "0x00000000000000000000000011950d141ecb863f01007add7d1a342041227b58",
                    "decodedMethod": {
                        "callParams": [
                            {
                                "name": "account",
                                "type": "address",
                                "value": "0x11950d141ecb863f01007add7d1a342041227b58"
                            }
                        ],
                        "constructorArguments": "",
                        "name": "balanceOf",
                        "returnParams": [
                            {
                                "decimalAvailable": true,
                                "name": "",
                                "type": "uint256",
                                "value": "8,447,166,764,721,507,411,704,963,530,433"
                            }
                        ],
                        "signature": "balanceOf(address)"
                    },
                    "errorInfo": "",
                    "fromAddress": "0x11950d141ecb863f01007add7d1a342041227b58",
                    "gasUsed": 2624,
                    "id": 32,
                    "methodDecoded": true,
                    "operation": "STATICCALL",
                    "output": "0x000000000000000000000000000000000000006a9e44942aeba01682315dfec1",
                    "revert": false,
                    "revertMessage": "",
                    "selector": "0x70a08231",
                    "status": true,
                    "value": "0"
                },
                "nodeType": 0
            },
            "33": {
                "invocation": {
                    "address": "0x3fc91a3afd70395cd496c647d5a6cc9d4b2b7fad",
                    "callData": "0x0000000000000000000000000000000000000004aef7efb6560b8e4430cc4867fffffffffffffffffffffffffffffffffffffffffffffff7643816774a8e9bad000000000000000000000000000000000000000000000000000000000000006000000000000000000000000000000000000000000000000000000000000000a000000000000000000000000000000000000000000000000000000000000000400000000000000000000000001f5d2c5de70dcf3e82471e8b3ad5781395e36cf6000000000000000000000000000000000000000000000000000000000000002b6982508145454ce325ddbe47a25d4ec3d2311933000bb8c02aaa39b223fe8d0a0e5c4f27ead9083c756cc2000000000000000000000000000000000000000000",
                    "decodedMethod": {
                        "callParams": [
                            {
                                "name": "amount0Delta",
                                "type": "int256",
                                "value": "371,062,778,452,513,238,734,317,832,295"
                            },
                            {
                                "name": "amount1Delta",
                                "type": "int256",
                                "value": "-158,799,149,959,289,594,963"
                            },
                            {
                                "name": "data",
                                "type": "bytes",
                                "value": "0x00000000000000000000000000000000000000000000000000000000000000400000000000000000000000001f5d2c5de70dcf3e82471e8b3ad5781395e36cf6000000000000000000000000000000000000000000000000000000000000002b6982508145454ce325ddbe47a25d4ec3d2311933000bb8c02aaa39b223fe8d0a0e5c4f27ead9083c756cc2000000000000000000000000000000000000000000"
                            }
                        ],
                        "constructorArguments": "",
                        "name": "uniswapV3SwapCallback",
                        "returnParams": [],
                        "signature": "uniswapV3SwapCallback(int256,int256,bytes)"
                    },
                    "errorInfo": "",
                    "fromAddress": "0x11950d141ecb863f01007add7d1a342041227b58",
                    "gasUsed": 15273,
                    "id": 33,
                    "methodDecoded": true,
                    "operation": "CALL",
                    "output": "",
                    "revert": false,
                    "revertMessage": "",
                    "selector": "0xfa461e33",
                    "status": true,
                    "value": "0"
                },
                "nodeType": 0
            },
            "34": {
                "invocation": {
                    "address": "0x000000000022d473030f116ddee9f6b43ac78ba3",
                    "callData": "0x0000000000000000000000001f5d2c5de70dcf3e82471e8b3ad5781395e36cf600000000000000000000000011950d141ecb863f01007add7d1a342041227b580000000000000000000000000000000000000004aef7efb6560b8e4430cc48670000000000000000000000006982508145454ce325ddbe47a25d4ec3d2311933",
                    "decodedMethod": {
                        "callParams": [
                            {
                                "name": "from",
                                "type": "address",
                                "value": "0x1f5d2c5de70dcf3e82471e8b3ad5781395e36cf6"
                            },
                            {
                                "name": "to",
                                "type": "address",
                                "value": "0x11950d141ecb863f01007add7d1a342041227b58"
                            },
                            {
                                "name": "amount",
                                "type": "uint160",
                                "value": "371,062,778,452,513,238,734,317,832,295"
                            },
                            {
                                "name": "token",
                                "type": "address",
                                "value": "0x6982508145454ce325ddbe47a25d4ec3d2311933"
                            }
                        ],
                        "constructorArguments": "",
                        "name": "transferFrom",
                        "returnParams": [],
                        "signature": "transferFrom(address,address,uint160,address)"
                    },
                    "errorInfo": "",
                    "fromAddress": "0x3fc91a3afd70395cd496c647d5a6cc9d4b2b7fad",
                    "gasUsed": 12752,
                    "id": 34,
                    "methodDecoded": true,
                    "operation": "CALL",
                    "output": "",
                    "revert": false,
                    "revertMessage": "",
                    "selector": "0x36c78516",
                    "status": true,
                    "value": "0"
                },
                "nodeType": 0
            },
            "35": {
                "invocation": {
                    "address": "0x6982508145454ce325ddbe47a25d4ec3d2311933",
                    "callData": "0x0000000000000000000000001f5d2c5de70dcf3e82471e8b3ad5781395e36cf600000000000000000000000011950d141ecb863f01007add7d1a342041227b580000000000000000000000000000000000000004aef7efb6560b8e4430cc4867",
                    "decodedMethod": {
                        "callParams": [
                            {
                                "name": "sender",
                                "type": "address",
                                "value": "0x1f5d2c5de70dcf3e82471e8b3ad5781395e36cf6"
                            },
                            {
                                "name": "recipient",
                                "type": "address",
                                "value": "0x11950d141ecb863f01007add7d1a342041227b58"
                            },
                            {
                                "decimalAvailable": true,
                                "name": "amount",
                                "type": "uint256",
                                "value": "371,062,778,452,513,238,734,317,832,295"
                            }
                        ],
                        "constructorArguments": "",
                        "name": "transferFrom",
                        "returnParams": [
                            {
                                "name": "",
                                "type": "bool",
                                "value": true
                            }
                        ],
                        "signature": "transferFrom(address,address,uint256)"
                    },
                    "errorInfo": "",
                    "fromAddress": "0x000000000022d473030f116ddee9f6b43ac78ba3",
                    "gasUsed": 11545,
                    "id": 35,
                    "methodDecoded": true,
                    "operation": "CALL",
                    "output": "0x0000000000000000000000000000000000000000000000000000000000000001",
                    "revert": false,
                    "revertMessage": "",
                    "selector": "0x23b872dd",
                    "status": true,
                    "value": "0"
                },
                "nodeType": 0
            },
            "36": {
                "event": {
                    "contract": "0x6982508145454ce325ddbe47a25d4ec3d2311933",
                    "decodedLog": {
                        "name": "Transfer",
                        "params": [
                            {
                                "name": "from",
                                "type": "address",
                                "value": "0x1f5d2c5de70dcf3e82471e8b3ad5781395e36cf6"
                            },
                            {
                                "name": "to",
                                "type": "address",
                                "value": "0x11950d141ecb863f01007add7d1a342041227b58"
                            },
                            {
                                "decimalAvailable": true,
                                "name": "value",
                                "type": "uint256",
                                "value": "371,062,778,452,513,238,734,317,832,295"
                            }
                        ],
                        "signature": "Transfer(address,address,uint256)"
                    },
                    "id": 36,
                    "logData": "0x0000000000000000000000000000000000000004aef7efb6560b8e4430cc4867",
                    "logDecoded": true,
                    "operation": "EVENT",
                    "revert": false,
                    "status": true,
                    "topics": [
                        "0xddf252ad1be2c89b69c2b068fc378daa952ba7f163c4a11628f55a4df523b3ef",
                        "0x0000000000000000000000001f5d2c5de70dcf3e82471e8b3ad5781395e36cf6",
                        "0x00000000000000000000000011950d141ecb863f01007add7d1a342041227b58"
                    ]
                },
                "nodeType": 1
            },
            "37": {
                "event": {
                    "contract": "0x6982508145454ce325ddbe47a25d4ec3d2311933",
                    "decodedLog": {
                        "name": "Approval",
                        "params": [
                            {
                                "name": "owner",
                                "type": "address",
                                "value": "0x1f5d2c5de70dcf3e82471e8b3ad5781395e36cf6"
                            },
                            {
                                "name": "spender",
                                "type": "address",
                                "value": "0x000000000022d473030f116ddee9f6b43ac78ba3"
                            },
                            {
                                "decimalAvailable": true,
                                "name": "value",
                                "type": "uint256",
                                "value": "1"
                            }
                        ],
                        "signature": "Approval(address,address,uint256)"
                    },
                    "id": 37,
                    "logData": "0x0000000000000000000000000000000000000000000000000000000000000001",
                    "logDecoded": true,
                    "operation": "EVENT",
                    "revert": false,
                    "status": true,
                    "topics": [
                        "0x8c5be1e5ebec7d5bd14f71427d1e84f3dd0314c0f7b2291e5b200ac8c7c3b925",
                        "0x0000000000000000000000001f5d2c5de70dcf3e82471e8b3ad5781395e36cf6",
                        "0x000000000000000000000000000000000022d473030f116ddee9f6b43ac78ba3"
                    ]
                },
                "nodeType": 1
            },
            "38": {
                "invocation": {
                    "address": "0x6982508145454ce325ddbe47a25d4ec3d2311933",
                    "callData": "0x00000000000000000000000011950d141ecb863f01007add7d1a342041227b58",
                    "decodedMethod": {
                        "callParams": [
                            {
                                "name": "account",
                                "type": "address",
                                "value": "0x11950d141ecb863f01007add7d1a342041227b58"
                            }
                        ],
                        "constructorArguments": "",
                        "name": "balanceOf",
                        "returnParams": [
                            {
                                "decimalAvailable": true,
                                "name": "",
                                "type": "uint256",
                                "value": "8,818,229,543,174,020,650,439,281,362,728"
                            }
                        ],
                        "signature": "balanceOf(address)"
                    },
                    "errorInfo": "",
                    "fromAddress": "0x11950d141ecb863f01007add7d1a342041227b58",
                    "gasUsed": 624,
                    "id": 38,
                    "methodDecoded": true,
                    "operation": "STATICCALL",
                    "output": "0x000000000000000000000000000000000000006f4d3c83e141aba4c6622a4728",
                    "revert": false,
                    "revertMessage": "",
                    "selector": "0x70a08231",
                    "status": true,
                    "value": "0"
                },
                "nodeType": 0
            },
            "39": {
                "event": {
                    "contract": "0x11950d141ecb863f01007add7d1a342041227b58",
                    "decodedLog": {
                        "name": "Swap",
                        "params": [
                            {
                                "name": "sender",
                                "type": "address",
                                "value": "0x3fc91a3afd70395cd496c647d5a6cc9d4b2b7fad"
                            },
                            {
                                "name": "recipient",
                                "type": "address",
                                "value": "0x3fc91a3afd70395cd496c647d5a6cc9d4b2b7fad"
                            },
                            {
                                "name": "amount0",
                                "type": "int256",
                                "value": "371,062,778,452,513,238,734,317,832,295"
                            },
                            {
                                "name": "amount1",
                                "type": "int256",
                                "value": "-158,799,149,959,289,594,963"
                            },
                            {
                                "name": "sqrtPriceX96",
                                "type": "uint160",
                                "value": "1,633,480,710,614,328,436,431,177"
                            },
                            {
                                "name": "liquidity",
                                "type": "uint128",
                                "value": "750,964,964,645,021,441,659,022,624"
                            },
                            {
                                "name": "tick",
                                "type": "int24",
                                "value": "-215,799"
                            }
                        ],
                        "signature": "Swap(address,address,int256,int256,uint160,uint128,int24)"
                    },
                    "id": 39,
                    "logData": "0x0000000000000000000000000000000000000004aef7efb6560b8e4430cc4867fffffffffffffffffffffffffffffffffffffffffffffff7643816774a8e9bad0000000000000000000000000000000000000000000159e72ab0a80270e199490000000000000000000000000000000000000000026d2f044e724d5fc3a8ad20fffffffffffffffffffffffffffffffffffffffffffffffffffffffffffcb509",
                    "logDecoded": true,
                    "operation": "EVENT",
                    "revert": false,
                    "status": true,
                    "topics": [
                        "0xc42079f94a6350d7e6235f29174924f928cc2ac818eb64fed8004e115fbcca67",
                        "0x0000000000000000000000003fc91a3afd70395cd496c647d5a6cc9d4b2b7fad",
                        "0x0000000000000000000000003fc91a3afd70395cd496c647d5a6cc9d4b2b7fad"
                    ]
                },
                "nodeType": 1
            },
            "4": {
                "event": {
                    "contract": "0x6982508145454ce325ddbe47a25d4ec3d2311933",
                    "decodedLog": {
                        "name": "Approval",
                        "params": [
                            {
                                "name": "owner",
                                "type": "address",
                                "value": "0x1f5d2c5de70dcf3e82471e8b3ad5781395e36cf6"
                            },
                            {
                                "name": "spender",
                                "type": "address",
                                "value": "0x000000000022d473030f116ddee9f6b43ac78ba3"
                            },
                            {
                                "decimalAvailable": true,
                                "name": "value",
                                "type": "uint256",
                                "value": "371,062,778,452,513,238,734,317,832,296"
                            }
                        ],
                        "signature": "Approval(address,address,uint256)"
                    },
                    "id": 4,
                    "logData": "0x0000000000000000000000000000000000000004aef7efb6560b8e4430cc4868",
                    "logDecoded": true,
                    "operation": "EVENT",
                    "revert": false,
                    "status": true,
                    "topics": [
                        "0x8c5be1e5ebec7d5bd14f71427d1e84f3dd0314c0f7b2291e5b200ac8c7c3b925",
                        "0x0000000000000000000000001f5d2c5de70dcf3e82471e8b3ad5781395e36cf6",
                        "0x000000000000000000000000000000000022d473030f116ddee9f6b43ac78ba3"
                    ]
                },
                "nodeType": 1
            },
            "40": {
                "invocation": {
                    "address": "0x88e6a0c2ddd26feeb64f039a2c41296fcb3f5640",
                    "callData": "0x0000000000000000000000001f5d2c5de70dcf3e82471e8b3ad5781395e36cf600000000000000000000000000000000000000000000000000000000000000000000000000000000000000000000000000000000000000089bc7e988b5716453000000000000000000000000fffd8963efd1fc6a506488495d951d5263988d2500000000000000000000000000000000000000000000000000000000000000a000000000000000000000000000000000000000000000000000000000000000a000000000000000000000000000000000000000000000000000000000000000400000000000000000000000003fc91a3afd70395cd496c647d5a6cc9d4b2b7fad000000000000000000000000000000000000000000000000000000000000002bc02aaa39b223fe8d0a0e5c4f27ead9083c756cc20001f4a0b86991c6218b36c1d19d4a2e9eb0ce3606eb48000000000000000000000000000000000000000000",
                    "decodedMethod": {
                        "callParams": [
                            {
                                "name": "recipient",
                                "type": "address",
                                "value": "0x1f5d2c5de70dcf3e82471e8b3ad5781395e36cf6"
                            },
                            {
                                "name": "zeroForOne",
                                "type": "bool",
                                "value": false
                            },
                            {
                                "name": "amountSpecified",
                                "type": "int256",
                                "value": "158,799,149,959,289,594,963"
                            },
                            {
                                "name": "sqrtPriceLimitX96",
                                "type": "uint160",
                                "value": "1,461,446,703,485,210,103,287,273,052,203,988,822,378,723,970,341"
                            },
                            {
                                "name": "data",
                                "type": "bytes",
                                "value": "0x00000000000000000000000000000000000000000000000000000000000000400000000000000000000000003fc91a3afd70395cd496c647d5a6cc9d4b2b7fad000000000000000000000000000000000000000000000000000000000000002bc02aaa39b223fe8d0a0e5c4f27ead9083c756cc20001f4a0b86991c6218b36c1d19d4a2e9eb0ce3606eb48000000000000000000000000000000000000000000"
                            }
                        ],
                        "constructorArguments": "",
                        "name": "swap",
                        "returnParams": [
                            {
                                "name": "amount0",
                                "type": "int256",
                                "value": "-257,651,628,521"
                            },
                            {
                                "name": "amount1",
                                "type": "int256",
                                "value": "158,799,149,959,289,594,963"
                            }
                        ],
                        "signature": "swap(address,bool,int256,uint160,bytes)"
                    },
                    "errorInfo": "",
                    "fromAddress": "0x3fc91a3afd70395cd496c647d5a6cc9d4b2b7fad",
                    "gasUsed": 64185,
                    "id": 40,
                    "methodDecoded": true,
                    "operation": "CALL",
                    "output": "0xffffffffffffffffffffffffffffffffffffffffffffffffffffffc402c426170000000000000000000000000000000000000000000000089bc7e988b5716453",
                    "revert": false,
                    "revertMessage": "",
                    "selector": "0x128acb08",
                    "status": true,
                    "value": "0"
                },
                "nodeType": 0
            },
            "41": {
                "invocation": {
                    "address": "0xa0b86991c6218b36c1d19d4a2e9eb0ce3606eb48",
                    "callData": "0x0000000000000000000000001f5d2c5de70dcf3e82471e8b3ad5781395e36cf60000000000000000000000000000000000000000000000000000003bfd3bd9e9",
                    "decodedMethod": {
                        "callParams": [
                            {
                                "name": "to",
                                "type": "address",
                                "value": "0x1f5d2c5de70dcf3e82471e8b3ad5781395e36cf6"
                            },
                            {
                                "decimalAvailable": true,
                                "name": "value",
                                "type": "uint256",
                                "value": "257,651,628,521"
                            }
                        ],
                        "constructorArguments": "",
                        "name": "transfer",
                        "returnParams": [
                            {
                                "name": "",
                                "type": "bool",
                                "value": true
                            }
                        ],
                        "signature": "transfer(address,uint256)"
                    },
                    "errorInfo": "",
                    "fromAddress": "0x88e6a0c2ddd26feeb64f039a2c41296fcb3f5640",
                    "gasUsed": 11617,
                    "id": 41,
                    "methodDecoded": true,
                    "operation": "CALL",
                    "output": "0x0000000000000000000000000000000000000000000000000000000000000001",
                    "revert": false,
                    "revertMessage": "",
                    "selector": "0xa9059cbb",
                    "status": true,
                    "value": "0"
                },
                "nodeType": 0
            },
            "42": {
                "invocation": {
                    "address": "0xa2327a938febf5fec13bacfb16ae10ecbc4cbdcf",
                    "callData": "0x0000000000000000000000001f5d2c5de70dcf3e82471e8b3ad5781395e36cf60000000000000000000000000000000000000000000000000000003bfd3bd9e9",
                    "decodedMethod": {
                        "callParams": [
                            {
                                "name": "to",
                                "type": "address",
                                "value": "0x1f5d2c5de70dcf3e82471e8b3ad5781395e36cf6"
                            },
                            {
                                "decimalAvailable": true,
                                "name": "value",
                                "type": "uint256",
                                "value": "257,651,628,521"
                            }
                        ],
                        "constructorArguments": "",
                        "name": "transfer",
                        "returnParams": [
                            {
                                "name": "",
                                "type": "bool",
                                "value": true
                            }
                        ],
                        "signature": "transfer(address,uint256)"
                    },
                    "errorInfo": "",
                    "fromAddress": "0xa0b86991c6218b36c1d19d4a2e9eb0ce3606eb48",
                    "gasUsed": 10828,
                    "id": 42,
                    "methodDecoded": true,
                    "operation": "DELEGATECALL",
                    "output": "0x0000000000000000000000000000000000000000000000000000000000000001",
                    "revert": false,
                    "revertMessage": "",
                    "selector": "0xa9059cbb",
                    "status": true,
                    "value": "0"
                },
                "nodeType": 0
            },
            "43": {
                "event": {
                    "contract": "0xa0b86991c6218b36c1d19d4a2e9eb0ce3606eb48",
                    "decodedLog": {
                        "name": "Transfer",
                        "params": [
                            {
                                "name": "from",
                                "type": "address",
                                "value": "0x88e6a0c2ddd26feeb64f039a2c41296fcb3f5640"
                            },
                            {
                                "name": "to",
                                "type": "address",
                                "value": "0x1f5d2c5de70dcf3e82471e8b3ad5781395e36cf6"
                            },
                            {
                                "decimalAvailable": true,
                                "name": "value",
                                "type": "uint256",
                                "value": "257,651,628,521"
                            }
                        ],
                        "signature": "Transfer(address,address,uint256)"
                    },
                    "id": 43,
                    "logData": "0x0000000000000000000000000000000000000000000000000000003bfd3bd9e9",
                    "logDecoded": true,
                    "operation": "EVENT",
                    "revert": false,
                    "status": true,
                    "topics": [
                        "0xddf252ad1be2c89b69c2b068fc378daa952ba7f163c4a11628f55a4df523b3ef",
                        "0x00000000000000000000000088e6a0c2ddd26feeb64f039a2c41296fcb3f5640",
                        "0x0000000000000000000000001f5d2c5de70dcf3e82471e8b3ad5781395e36cf6"
                    ]
                },
                "nodeType": 1
            },
            "44": {
                "invocation": {
                    "address": "0xc02aaa39b223fe8d0a0e5c4f27ead9083c756cc2",
                    "callData": "0x00000000000000000000000088e6a0c2ddd26feeb64f039a2c41296fcb3f5640",
                    "decodedMethod": {
                        "callParams": [
                            {
                                "name": "",
                                "type": "address",
                                "value": "0x88e6a0c2ddd26feeb64f039a2c41296fcb3f5640"
                            }
                        ],
                        "constructorArguments": "",
                        "name": "balanceOf",
                        "returnParams": [
                            {
                                "decimalAvailable": true,
                                "name": "",
                                "type": "uint256",
                                "value": "68,263,985,958,674,874,008,356"
                            }
                        ],
                        "signature": "balanceOf(address)"
                    },
                    "errorInfo": "",
                    "fromAddress": "0x88e6a0c2ddd26feeb64f039a2c41296fcb3f5640",
                    "gasUsed": 2534,
                    "id": 44,
                    "methodDecoded": true,
                    "operation": "STATICCALL",
                    "output": "0x000000000000000000000000000000000000000000000e74991caf50fd508324",
                    "revert": false,
                    "revertMessage": "",
                    "selector": "0x70a08231",
                    "status": true,
                    "value": "0"
                },
                "nodeType": 0
            },
            "45": {
                "invocation": {
                    "address": "0x3fc91a3afd70395cd496c647d5a6cc9d4b2b7fad",
                    "callData": "0xffffffffffffffffffffffffffffffffffffffffffffffffffffffc402c426170000000000000000000000000000000000000000000000089bc7e988b5716453000000000000000000000000000000000000000000000000000000000000006000000000000000000000000000000000000000000000000000000000000000a000000000000000000000000000000000000000000000000000000000000000400000000000000000000000003fc91a3afd70395cd496c647d5a6cc9d4b2b7fad000000000000000000000000000000000000000000000000000000000000002bc02aaa39b223fe8d0a0e5c4f27ead9083c756cc20001f4a0b86991c6218b36c1d19d4a2e9eb0ce3606eb48000000000000000000000000000000000000000000",
                    "decodedMethod": {
                        "callParams": [
                            {
                                "name": "amount0Delta",
                                "type": "int256",
                                "value": "-257,651,628,521"
                            },
                            {
                                "name": "amount1Delta",
                                "type": "int256",
                                "value": "158,799,149,959,289,594,963"
                            },
                            {
                                "name": "data",
                                "type": "bytes",
                                "value": "0x00000000000000000000000000000000000000000000000000000000000000400000000000000000000000003fc91a3afd70395cd496c647d5a6cc9d4b2b7fad000000000000000000000000000000000000000000000000000000000000002bc02aaa39b223fe8d0a0e5c4f27ead9083c756cc20001f4a0b86991c6218b36c1d19d4a2e9eb0ce3606eb48000000000000000000000000000000000000000000"
                            }
                        ],
                        "constructorArguments": "",
                        "name": "uniswapV3SwapCallback",
                        "returnParams": [],
                        "signature": "uniswapV3SwapCallback(int256,int256,bytes)"
                    },
                    "errorInfo": "",
                    "fromAddress": "0x88e6a0c2ddd26feeb64f039a2c41296fcb3f5640",
                    "gasUsed": 8464,
                    "id": 45,
                    "methodDecoded": true,
                    "operation": "CALL",
                    "output": "",
                    "revert": false,
                    "revertMessage": "",
                    "selector": "0xfa461e33",
                    "status": true,
                    "value": "0"
                },
                "nodeType": 0
            },
            "46": {
                "invocation": {
                    "address": "0xc02aaa39b223fe8d0a0e5c4f27ead9083c756cc2",
                    "callData": "0x00000000000000000000000088e6a0c2ddd26feeb64f039a2c41296fcb3f56400000000000000000000000000000000000000000000000089bc7e988b5716453",
                    "decodedMethod": {
                        "callParams": [
                            {
                                "name": "dst",
                                "type": "address",
                                "value": "0x88e6a0c2ddd26feeb64f039a2c41296fcb3f5640"
                            },
                            {
                                "decimalAvailable": true,
                                "name": "wad",
                                "type": "uint256",
                                "value": "158,799,149,959,289,594,963"
                            }
                        ],
                        "constructorArguments": "",
                        "name": "transfer",
                        "returnParams": [
                            {
                                "name": "",
                                "type": "bool",
                                "value": true
                            }
                        ],
                        "signature": "transfer(address,uint256)"
                    },
                    "errorInfo": "",
                    "fromAddress": "0x3fc91a3afd70395cd496c647d5a6cc9d4b2b7fad",
                    "gasUsed": 6062,
                    "id": 46,
                    "methodDecoded": true,
                    "operation": "CALL",
                    "output": "0x0000000000000000000000000000000000000000000000000000000000000001",
                    "revert": false,
                    "revertMessage": "",
                    "selector": "0xa9059cbb",
                    "status": true,
                    "value": "0"
                },
                "nodeType": 0
            },
            "47": {
                "event": {
                    "contract": "0xc02aaa39b223fe8d0a0e5c4f27ead9083c756cc2",
                    "decodedLog": {
                        "name": "Transfer",
                        "params": [
                            {
                                "name": "src",
                                "type": "address",
                                "value": "0x3fc91a3afd70395cd496c647d5a6cc9d4b2b7fad"
                            },
                            {
                                "name": "dst",
                                "type": "address",
                                "value": "0x88e6a0c2ddd26feeb64f039a2c41296fcb3f5640"
                            },
                            {
                                "decimalAvailable": true,
                                "name": "wad",
                                "type": "uint256",
                                "value": "158,799,149,959,289,594,963"
                            }
                        ],
                        "signature": "Transfer(address,address,uint256)"
                    },
                    "id": 47,
                    "logData": "0x0000000000000000000000000000000000000000000000089bc7e988b5716453",
                    "logDecoded": true,
                    "operation": "EVENT",
                    "revert": false,
                    "status": true,
                    "topics": [
                        "0xddf252ad1be2c89b69c2b068fc378daa952ba7f163c4a11628f55a4df523b3ef",
                        "0x0000000000000000000000003fc91a3afd70395cd496c647d5a6cc9d4b2b7fad",
                        "0x00000000000000000000000088e6a0c2ddd26feeb64f039a2c41296fcb3f5640"
                    ]
                },
                "nodeType": 1
            },
            "48": {
                "invocation": {
                    "address": "0xc02aaa39b223fe8d0a0e5c4f27ead9083c756cc2",
                    "callData": "0x00000000000000000000000088e6a0c2ddd26feeb64f039a2c41296fcb3f5640",
                    "decodedMethod": {
                        "callParams": [
                            {
                                "name": "",
                                "type": "address",
                                "value": "0x88e6a0c2ddd26feeb64f039a2c41296fcb3f5640"
                            }
                        ],
                        "constructorArguments": "",
                        "name": "balanceOf",
                        "returnParams": [
                            {
                                "decimalAvailable": true,
                                "name": "",
                                "type": "uint256",
                                "value": "68,422,785,108,634,163,603,319"
                            }
                        ],
                        "signature": "balanceOf(address)"
                    },
                    "errorInfo": "",
                    "fromAddress": "0x88e6a0c2ddd26feeb64f039a2c41296fcb3f5640",
                    "gasUsed": 534,
                    "id": 48,
                    "methodDecoded": true,
                    "operation": "STATICCALL",
                    "output": "0x000000000000000000000000000000000000000000000e7d34e498d9b2c1e777",
                    "revert": false,
                    "revertMessage": "",
                    "selector": "0x70a08231",
                    "status": true,
                    "value": "0"
                },
                "nodeType": 0
            },
            "49": {
                "event": {
                    "contract": "0x88e6a0c2ddd26feeb64f039a2c41296fcb3f5640",
                    "decodedLog": {
                        "name": "Swap",
                        "params": [
                            {
                                "name": "sender",
                                "type": "address",
                                "value": "0x3fc91a3afd70395cd496c647d5a6cc9d4b2b7fad"
                            },
                            {
                                "name": "recipient",
                                "type": "address",
                                "value": "0x1f5d2c5de70dcf3e82471e8b3ad5781395e36cf6"
                            },
                            {
                                "name": "amount0",
                                "type": "int256",
                                "value": "-257,651,628,521"
                            },
                            {
                                "name": "amount1",
                                "type": "int256",
                                "value": "158,799,149,959,289,594,963"
                            },
                            {
                                "name": "sqrtPriceX96",
                                "type": "uint160",
                                "value": "1,966,610,472,214,482,463,329,383,208,653,270"
                            },
                            {
                                "name": "liquidity",
                                "type": "uint128",
                                "value": "34,957,175,166,487,848,606"
                            },
                            {
                                "name": "tick",
                                "type": "int24",
                                "value": "202,399"
                            }
                        ],
                        "signature": "Swap(address,address,int256,int256,uint160,uint128,int24)"
                    },
                    "id": 49,
                    "logData": "0xffffffffffffffffffffffffffffffffffffffffffffffffffffffc402c426170000000000000000000000000000000000000000000000089bc7e988b571645300000000000000000000000000000000000060f61d270f404833d980f02f11d6000000000000000000000000000000000000000000000001e520d59a559d669e000000000000000000000000000000000000000000000000000000000003169f",
                    "logDecoded": true,
                    "operation": "EVENT",
                    "revert": false,
                    "status": true,
                    "topics": [
                        "0xc42079f94a6350d7e6235f29174924f928cc2ac818eb64fed8004e115fbcca67",
                        "0x0000000000000000000000003fc91a3afd70395cd496c647d5a6cc9d4b2b7fad",
                        "0x0000000000000000000000001f5d2c5de70dcf3e82471e8b3ad5781395e36cf6"
                    ]
                },
                "nodeType": 1
            },
            "5": {
                "invocation": {
                    "address": "0xa0b86991c6218b36c1d19d4a2e9eb0ce3606eb48",
                    "callData": "0x0000000000000000000000001f5d2c5de70dcf3e82471e8b3ad5781395e36cf6",
                    "decodedMethod": {
                        "callParams": [
                            {
                                "name": "account",
                                "type": "address",
                                "value": "0x1f5d2c5de70dcf3e82471e8b3ad5781395e36cf6"
                            }
                        ],
                        "constructorArguments": "",
                        "name": "balanceOf",
                        "returnParams": [
                            {
                                "decimalAvailable": true,
                                "name": "",
                                "type": "uint256",
                                "value": "22,766,323,746"
                            }
                        ],
                        "signature": "balanceOf(address)"
                    },
                    "errorInfo": "",
                    "fromAddress": "0x3fc91a3afd70395cd496c647d5a6cc9d4b2b7fad",
                    "gasUsed": 9815,
                    "id": 5,
                    "methodDecoded": true,
                    "operation": "STATICCALL",
                    "output": "0x000000000000000000000000000000000000000000000000000000054cfa8822",
                    "revert": false,
                    "revertMessage": "",
                    "selector": "0x70a08231",
                    "status": true,
                    "value": "0"
                },
                "nodeType": 0
            },
            "6": {
                "invocation": {
                    "address": "0xa2327a938febf5fec13bacfb16ae10ecbc4cbdcf",
                    "callData": "0x0000000000000000000000001f5d2c5de70dcf3e82471e8b3ad5781395e36cf6",
                    "decodedMethod": {
                        "callParams": [
                            {
                                "name": "account",
                                "type": "address",
                                "value": "0x1f5d2c5de70dcf3e82471e8b3ad5781395e36cf6"
                            }
                        ],
                        "constructorArguments": "",
                        "name": "balanceOf",
                        "returnParams": [
                            {
                                "decimalAvailable": true,
                                "name": "",
                                "type": "uint256",
                                "value": "22,766,323,746"
                            }
                        ],
                        "signature": "balanceOf(address)"
                    },
                    "errorInfo": "",
                    "fromAddress": "0xa0b86991c6218b36c1d19d4a2e9eb0ce3606eb48",
                    "gasUsed": 2529,
                    "id": 6,
                    "methodDecoded": true,
                    "operation": "DELEGATECALL",
                    "output": "0x000000000000000000000000000000000000000000000000000000054cfa8822",
                    "revert": false,
                    "revertMessage": "",
                    "selector": "0x70a08231",
                    "status": true,
                    "value": "0"
                },
                "nodeType": 0
            },
            "7": {
                "invocation": {
                    "address": "0xa43fe16908251ee70ef74718545e4fe6c5ccec9f",
                    "callData": "0x",
                    "decodedMethod": {
                        "callParams": [],
                        "constructorArguments": "",
                        "name": "getReserves",
                        "returnParams": [
                            {
                                "name": "_reserve0",
                                "type": "uint112",
                                "value": "4,943,338,959,972,437,406,133,912,896,516"
                            },
                            {
                                "name": "_reserve1",
                                "type": "uint112",
                                "value": "2,139,334,690,400,040,924,032"
                            },
                            {
                                "name": "_blockTimestampLast",
                                "type": "uint32",
                                "value": "1,696,560,047"
                            }
                        ],
                        "signature": "getReserves()"
                    },
                    "errorInfo": "",
                    "fromAddress": "0x3fc91a3afd70395cd496c647d5a6cc9d4b2b7fad",
                    "gasUsed": 2504,
                    "id": 7,
                    "methodDecoded": true,
                    "operation": "STATICCALL",
                    "output": "0x000000000000000000000000000000000000003e64ca2622b7b04eae65848404000000000000000000000000000000000000000000000073f93b9e3ce4b8338000000000000000000000000000000000000000000000000000000000651f73af",
                    "revert": false,
                    "revertMessage": "",
                    "selector": "0x0902f1ac",
                    "status": true,
                    "value": "0"
                },
                "nodeType": 0
            },
            "8": {
                "invocation": {
                    "address": "0x6982508145454ce325ddbe47a25d4ec3d2311933",
                    "callData": "0x000000000000000000000000a43fe16908251ee70ef74718545e4fe6c5ccec9f",
                    "decodedMethod": {
                        "callParams": [
                            {
                                "name": "account",
                                "type": "address",
                                "value": "0xa43fe16908251ee70ef74718545e4fe6c5ccec9f"
                            }
                        ],
                        "constructorArguments": "",
                        "name": "balanceOf",
                        "returnParams": [
                            {
                                "decimalAvailable": true,
                                "name": "",
                                "type": "uint256",
                                "value": "4,984,568,157,578,272,210,437,725,988,993"
                            }
                        ],
                        "signature": "balanceOf(address)"
                    },
                    "errorInfo": "",
                    "fromAddress": "0x3fc91a3afd70395cd496c647d5a6cc9d4b2b7fad",
                    "gasUsed": 624,
                    "id": 8,
                    "methodDecoded": true,
                    "operation": "STATICCALL",
                    "output": "0x000000000000000000000000000000000000003eea0224536bea7aeedcb7a881",
                    "revert": false,
                    "revertMessage": "",
                    "selector": "0x70a08231",
                    "status": true,
                    "value": "0"
                },
                "nodeType": 0
            },
            "9": {
                "invocation": {
                    "address": "0xa43fe16908251ee70ef74718545e4fe6c5ccec9f",
                    "callData": "0x0000000000000000000000000000000000000000000000000000000000000000000000000000000000000000000000000000000000000000f4d705f94dd91694000000000000000000000000b4e16d0168e52d35cacd2c6185b44281ec28c9dc00000000000000000000000000000000000000000000000000000000000000800000000000000000000000000000000000000000000000000000000000000000",
                    "decodedMethod": {
                        "callParams": [
                            {
                                "name": "amount0Out",
                                "type": "uint256",
                                "value": "0"
                            },
                            {
                                "name": "amount1Out",
                                "type": "uint256",
                                "value": "17,642,576,633,558,275,732"
                            },
                            {
                                "name": "to",
                                "type": "address",
                                "value": "0xb4e16d0168e52d35cacd2c6185b44281ec28c9dc"
                            },
                            {
                                "name": "data",
                                "type": "bytes",
                                "value": "0x"
                            }
                        ],
                        "constructorArguments": "",
                        "name": "swap",
                        "returnParams": [],
                        "signature": "swap(uint256,uint256,address,bytes)"
                    },
                    "errorInfo": "",
                    "fromAddress": "0x3fc91a3afd70395cd496c647d5a6cc9d4b2b7fad",
                    "gasUsed": 37427,
                    "id": 9,
                    "methodDecoded": true,
                    "operation": "CALL",
                    "output": "",
                    "revert": false,
                    "revertMessage": "",
                    "selector": "0x022c0d9f",
                    "status": true,
                    "value": "0"
                },
                "nodeType": 0
            }
        },
        "gasFlame": [
            {
                "children": [
                    {
                        "children": [
                            {
                                "children": [],
                                "depth": 0,
                                "name": "Initial Gas",
                                "value": 26844
                            },
                            {
                                "children": [
                                    {
                                        "children": [
                                            {
                                                "children": [],
                                                "depth": 2,
                                                "name": "transferFrom",
                                                "value": 29145
                                            }
                                        ],
                                        "depth": 1,
                                        "name": "transferFrom",
                                        "value": 34852
                                    },
                                    {
                                        "children": [
                                            {
                                                "children": [],
                                                "depth": 2,
                                                "name": "balanceOf",
                                                "value": 2529
                                            }
                                        ],
                                        "depth": 1,
                                        "name": "balanceOf",
                                        "value": 9815
                                    },
                                    {
                                        "children": [],
                                        "depth": 1,
                                        "name": "getReserves",
                                        "value": 2504
                                    },
                                    {
                                        "children": [],
                                        "depth": 1,
                                        "name": "balanceOf",
                                        "value": 624
                                    },
                                    {
                                        "children": [
                                            {
                                                "children": [],
                                                "depth": 2,
                                                "name": "transfer",
                                                "value": 12862
                                            },
                                            {
                                                "children": [],
                                                "depth": 2,
                                                "name": "balanceOf",
                                                "value": 624
                                            },
                                            {
                                                "children": [],
                                                "depth": 2,
                                                "name": "balanceOf",
                                                "value": 534
                                            }
                                        ],
                                        "depth": 1,
                                        "name": "swap",
                                        "value": 37427
                                    },
                                    {
                                        "children": [],
                                        "depth": 1,
                                        "name": "getReserves",
                                        "value": 2504
                                    },
                                    {
                                        "children": [],
                                        "depth": 1,
                                        "name": "balanceOf",
                                        "value": 534
                                    },
                                    {
                                        "children": [
                                            {
                                                "children": [
                                                    {
                                                        "children": [],
                                                        "depth": 3,
                                                        "name": "transfer",
                                                        "value": 17628
                                                    }
                                                ],
                                                "depth": 2,
                                                "name": "transfer",
                                                "value": 18417
                                            },
                                            {
                                                "children": [
                                                    {
                                                        "children": [],
                                                        "depth": 3,
                                                        "name": "balanceOf",
                                                        "value": 529
                                                    }
                                                ],
                                                "depth": 2,
                                                "name": "balanceOf",
                                                "value": 1315
                                            },
                                            {
                                                "children": [],
                                                "depth": 2,
                                                "name": "balanceOf",
                                                "value": 534
                                            }
                                        ],
                                        "depth": 1,
                                        "name": "swap",
                                        "value": 51589
                                    },
                                    {
                                        "children": [
                                            {
                                                "children": [],
                                                "depth": 2,
                                                "name": "balanceOf",
                                                "value": 529
                                            }
                                        ],
                                        "depth": 1,
                                        "name": "balanceOf",
                                        "value": 1315
                                    },
                                    {
                                        "children": [
                                            {
                                                "children": [],
                                                "depth": 2,
                                                "name": "transfer",
                                                "value": 29962
                                            },
                                            {
                                                "children": [],
                                                "depth": 2,
                                                "name": "balanceOf",
                                                "value": 2624
                                            },
                                            {
                                                "children": [
                                                    {
                                                        "children": [
                                                            {
                                                                "children": [],
                                                                "depth": 4,
                                                                "name": "transferFrom",
                                                                "value": 11545
                                                            }
                                                        ],
                                                        "depth": 3,
                                                        "name": "transferFrom",
                                                        "value": 12752
                                                    }
                                                ],
                                                "depth": 2,
                                                "name": "uniswapV3SwapCallback",
                                                "value": 15273
                                            },
                                            {
                                                "children": [],
                                                "depth": 2,
                                                "name": "balanceOf",
                                                "value": 624
                                            }
                                        ],
                                        "depth": 1,
                                        "name": "swap",
                                        "value": 162247
                                    },
                                    {
                                        "children": [
                                            {
                                                "children": [
                                                    {
                                                        "children": [],
                                                        "depth": 3,
                                                        "name": "transfer",
                                                        "value": 10828
                                                    }
                                                ],
                                                "depth": 2,
                                                "name": "transfer",
                                                "value": 11617
                                            },
                                            {
                                                "children": [],
                                                "depth": 2,
                                                "name": "balanceOf",
                                                "value": 2534
                                            },
                                            {
                                                "children": [
                                                    {
                                                        "children": [],
                                                        "depth": 3,
                                                        "name": "transfer",
                                                        "value": 6062
                                                    }
                                                ],
                                                "depth": 2,
                                                "name": "uniswapV3SwapCallback",
                                                "value": 8464
                                            },
                                            {
                                                "children": [],
                                                "depth": 2,
                                                "name": "balanceOf",
                                                "value": 534
                                            }
                                        ],
                                        "depth": 1,
                                        "name": "swap",
                                        "value": 64185
                                    }
                                ],
                                "depth": 0,
                                "name": "Executed Gas",
                                "value": 403990
                            }
                        ],
                        "depth": -1,
                        "name": "Actual Gas Used",
                        "value": 402534
                    },
                    {
                        "children": [],
                        "depth": -1,
                        "name": "Refunded Gas",
                        "value": 28300
                    }
                ],
                "depth": -2,
                "name": "Total Gas",
                "value": 430834
            }
        ],
        "isConfirmed": true,
        "mainTrace": [
            {
                "children": [
                    {
                        "children": [
                            {
                                "children": [
                                    {
                                        "children": [
                                            {
                                                "children": [],
                                                "depth": 3,
                                                "id": 3,
                                                "order": 3
                                            },
                                            {
                                                "children": [],
                                                "depth": 3,
                                                "id": 4,
                                                "order": 4
                                            }
                                        ],
                                        "depth": 2,
                                        "id": 2,
                                        "order": 2
                                    }
                                ],
                                "depth": 1,
                                "id": 1,
                                "order": 1
                            },
                            {
                                "children": [
                                    {
                                        "children": [],
                                        "depth": 2,
                                        "id": 6,
                                        "order": 6
                                    }
                                ],
                                "depth": 1,
                                "id": 5,
                                "order": 5
                            },
                            {
                                "children": [],
                                "depth": 1,
                                "id": 7,
                                "order": 7
                            },
                            {
                                "children": [],
                                "depth": 1,
                                "id": 8,
                                "order": 8
                            },
                            {
                                "children": [
                                    {
                                        "children": [
                                            {
                                                "children": [],
                                                "depth": 3,
                                                "id": 11,
                                                "order": 11
                                            }
                                        ],
                                        "depth": 2,
                                        "id": 10,
                                        "order": 10
                                    },
                                    {
                                        "children": [],
                                        "depth": 2,
                                        "id": 12,
                                        "order": 12
                                    },
                                    {
                                        "children": [],
                                        "depth": 2,
                                        "id": 13,
                                        "order": 13
                                    },
                                    {
                                        "children": [],
                                        "depth": 2,
                                        "id": 14,
                                        "order": 14
                                    },
                                    {
                                        "children": [],
                                        "depth": 2,
                                        "id": 15,
                                        "order": 15
                                    }
                                ],
                                "depth": 1,
                                "id": 9,
                                "order": 9
                            },
                            {
                                "children": [],
                                "depth": 1,
                                "id": 16,
                                "order": 16
                            },
                            {
                                "children": [],
                                "depth": 1,
                                "id": 17,
                                "order": 17
                            },
                            {
                                "children": [
                                    {
                                        "children": [
                                            {
                                                "children": [
                                                    {
                                                        "children": [],
                                                        "depth": 4,
                                                        "id": 21,
                                                        "order": 21
                                                    }
                                                ],
                                                "depth": 3,
                                                "id": 20,
                                                "order": 20
                                            }
                                        ],
                                        "depth": 2,
                                        "id": 19,
                                        "order": 19
                                    },
                                    {
                                        "children": [
                                            {
                                                "children": [],
                                                "depth": 3,
                                                "id": 23,
                                                "order": 23
                                            }
                                        ],
                                        "depth": 2,
                                        "id": 22,
                                        "order": 22
                                    },
                                    {
                                        "children": [],
                                        "depth": 2,
                                        "id": 24,
                                        "order": 24
                                    },
                                    {
                                        "children": [],
                                        "depth": 2,
                                        "id": 25,
                                        "order": 25
                                    },
                                    {
                                        "children": [],
                                        "depth": 2,
                                        "id": 26,
                                        "order": 26
                                    }
                                ],
                                "depth": 1,
                                "id": 18,
                                "order": 18
                            },
                            {
                                "children": [
                                    {
                                        "children": [],
                                        "depth": 2,
                                        "id": 28,
                                        "order": 28
                                    }
                                ],
                                "depth": 1,
                                "id": 27,
                                "order": 27
                            },
                            {
                                "children": [
                                    {
                                        "children": [
                                            {
                                                "children": [],
                                                "depth": 3,
                                                "id": 31,
                                                "order": 31
                                            }
                                        ],
                                        "depth": 2,
                                        "id": 30,
                                        "order": 30
                                    },
                                    {
                                        "children": [],
                                        "depth": 2,
                                        "id": 32,
                                        "order": 32
                                    },
                                    {
                                        "children": [
                                            {
                                                "children": [
                                                    {
                                                        "children": [
                                                            {
                                                                "children": [],
                                                                "depth": 5,
                                                                "id": 36,
                                                                "order": 36
                                                            },
                                                            {
                                                                "children": [],
                                                                "depth": 5,
                                                                "id": 37,
                                                                "order": 37
                                                            }
                                                        ],
                                                        "depth": 4,
                                                        "id": 35,
                                                        "order": 35
                                                    }
                                                ],
                                                "depth": 3,
                                                "id": 34,
                                                "order": 34
                                            }
                                        ],
                                        "depth": 2,
                                        "id": 33,
                                        "order": 33
                                    },
                                    {
                                        "children": [],
                                        "depth": 2,
                                        "id": 38,
                                        "order": 38
                                    },
                                    {
                                        "children": [],
                                        "depth": 2,
                                        "id": 39,
                                        "order": 39
                                    }
                                ],
                                "depth": 1,
                                "id": 29,
                                "order": 29
                            },
                            {
                                "children": [
                                    {
                                        "children": [
                                            {
                                                "children": [
                                                    {
                                                        "children": [],
                                                        "depth": 4,
                                                        "id": 43,
                                                        "order": 43
                                                    }
                                                ],
                                                "depth": 3,
                                                "id": 42,
                                                "order": 42
                                            }
                                        ],
                                        "depth": 2,
                                        "id": 41,
                                        "order": 41
                                    },
                                    {
                                        "children": [],
                                        "depth": 2,
                                        "id": 44,
                                        "order": 44
                                    },
                                    {
                                        "children": [
                                            {
                                                "children": [
                                                    {
                                                        "children": [],
                                                        "depth": 4,
                                                        "id": 47,
                                                        "order": 47
                                                    }
                                                ],
                                                "depth": 3,
                                                "id": 46,
                                                "order": 46
                                            }
                                        ],
                                        "depth": 2,
                                        "id": 45,
                                        "order": 45
                                    },
                                    {
                                        "children": [],
                                        "depth": 2,
                                        "id": 48,
                                        "order": 48
                                    },
                                    {
                                        "children": [],
                                        "depth": 2,
                                        "id": 49,
                                        "order": 49
                                    }
                                ],
                                "depth": 1,
                                "id": 40,
                                "order": 40
                            }
                        ],
                        "depth": 0,
                        "id": 0,
                        "order": 0
                    }
                ],
                "depth": -1,
                "id": -1,
                "order": -1
            }
        ],
        "mainTraceNodeCount": 50,
        "parentIdMap": {
            "0": -1,
            "1": 0,
            "10": 9,
            "11": 10,
            "12": 9,
            "13": 9,
            "14": 9,
            "15": 9,
            "16": 0,
            "17": 0,
            "18": 0,
            "19": 18,
            "2": 1,
            "20": 19,
            "21": 20,
            "22": 18,
            "23": 22,
            "24": 18,
            "25": 18,
            "26": 18,
            "27": 0,
            "28": 27,
            "29": 0,
            "3": 2,
            "30": 29,
            "31": 30,
            "32": 29,
            "33": 29,
            "34": 33,
            "35": 34,
            "36": 35,
            "37": 35,
            "38": 29,
            "39": 29,
            "4": 2,
            "40": 0,
            "41": 40,
            "42": 41,
            "43": 42,
            "44": 40,
            "45": 40,
            "46": 45,
            "47": 46,
            "48": 40,
            "49": 40,
            "5": 0,
            "6": 5,
            "7": 0,
            "8": 0,
            "9": 0
        },
        "tidyTrace": [
            {
                "children": [
                    {
                        "children": [
                            {
                                "children": [
                                    {
                                        "children": [
                                            {
                                                "children": [],
                                                "depth": 3,
                                                "id": 3,
                                                "order": 3
                                            },
                                            {
                                                "children": [],
                                                "depth": 3,
                                                "id": 4,
                                                "order": 4
                                            }
                                        ],
                                        "depth": 2,
                                        "id": 2,
                                        "order": 2
                                    }
                                ],
                                "depth": 1,
                                "id": 1,
                                "order": 1
                            },
                            {
                                "children": [
                                    {
                                        "children": [
                                            {
                                                "children": [],
                                                "depth": 3,
                                                "id": 11,
                                                "order": 11
                                            }
                                        ],
                                        "depth": 2,
                                        "id": 10,
                                        "order": 10
                                    },
                                    {
                                        "children": [],
                                        "depth": 2,
                                        "id": 14,
                                        "order": 14
                                    },
                                    {
                                        "children": [],
                                        "depth": 2,
                                        "id": 15,
                                        "order": 15
                                    }
                                ],
                                "depth": 1,
                                "id": 9,
                                "order": 9
                            },
                            {
                                "children": [
                                    {
                                        "children": [
                                            {
                                                "children": [
                                                    {
                                                        "children": [],
                                                        "depth": 4,
                                                        "id": 21,
                                                        "order": 21
                                                    }
                                                ],
                                                "depth": 3,
                                                "id": 20,
                                                "order": 20
                                            }
                                        ],
                                        "depth": 2,
                                        "id": 19,
                                        "order": 19
                                    },
                                    {
                                        "children": [],
                                        "depth": 2,
                                        "id": 25,
                                        "order": 25
                                    },
                                    {
                                        "children": [],
                                        "depth": 2,
                                        "id": 26,
                                        "order": 26
                                    }
                                ],
                                "depth": 1,
                                "id": 18,
                                "order": 18
                            },
                            {
                                "children": [
                                    {
                                        "children": [
                                            {
                                                "children": [],
                                                "depth": 3,
                                                "id": 31,
                                                "order": 31
                                            }
                                        ],
                                        "depth": 2,
                                        "id": 30,
                                        "order": 30
                                    },
                                    {
                                        "children": [
                                            {
                                                "children": [
                                                    {
                                                        "children": [
                                                            {
                                                                "children": [],
                                                                "depth": 5,
                                                                "id": 36,
                                                                "order": 36
                                                            },
                                                            {
                                                                "children": [],
                                                                "depth": 5,
                                                                "id": 37,
                                                                "order": 37
                                                            }
                                                        ],
                                                        "depth": 4,
                                                        "id": 35,
                                                        "order": 35
                                                    }
                                                ],
                                                "depth": 3,
                                                "id": 34,
                                                "order": 34
                                            }
                                        ],
                                        "depth": 2,
                                        "id": 33,
                                        "order": 33
                                    },
                                    {
                                        "children": [],
                                        "depth": 2,
                                        "id": 39,
                                        "order": 39
                                    }
                                ],
                                "depth": 1,
                                "id": 29,
                                "order": 29
                            },
                            {
                                "children": [
                                    {
                                        "children": [
                                            {
                                                "children": [
                                                    {
                                                        "children": [],
                                                        "depth": 4,
                                                        "id": 43,
                                                        "order": 43
                                                    }
                                                ],
                                                "depth": 3,
                                                "id": 42,
                                                "order": 42
                                            }
                                        ],
                                        "depth": 2,
                                        "id": 41,
                                        "order": 41
                                    },
                                    {
                                        "children": [
                                            {
                                                "children": [
                                                    {
                                                        "children": [],
                                                        "depth": 4,
                                                        "id": 47,
                                                        "order": 47
                                                    }
                                                ],
                                                "depth": 3,
                                                "id": 46,
                                                "order": 46
                                            }
                                        ],
                                        "depth": 2,
                                        "id": 45,
                                        "order": 45
                                    },
                                    {
                                        "children": [],
                                        "depth": 2,
                                        "id": 49,
                                        "order": 49
                                    }
                                ],
                                "depth": 1,
                                "id": 40,
                                "order": 40
                            }
                        ],
                        "depth": 0,
                        "id": 0,
                        "order": 0
                    }
                ],
                "depth": -1,
                "id": -1,
                "order": -1
            }
        ],
        "tidyTraceNodeCount": 33
    },
    "state_change": {
        "stateChanges": [
            {
                "address": "0x11950d141ecb863f01007add7d1a342041227b58",
                "erc": "",
                "slots": [
                    {
                        "current": "0x000000000000000000000000000000000000012a9f7eac37340527c30516fe1d",
                        "key": "0x6393a35264dda61668a9f2cb45434da1155308ebec61d77bbaa49fb1187ebf24",
                        "prev": "0x000000000000000000000000000000000000cdd9eac5cecffe91815428a10e72"
                    },
                    {
                        "current": "0x000000000000000000000000000007dfdafacc7977dbae21f915bca30504531c",
                        "key": "0x058f5282ac6b9f9f4d1299cdf06d5303b04293003231cfc29475fb084df0c042",
                        "prev": "0x000000000000000000000000000062cbae3fcd0642b3ae46462fa365d06642f7"
                    },
                    {
                        "current": "0x000000000000000000000000000000000000173244a463597e53de3174b6f1f6",
                        "key": "0x058f5282ac6b9f9f4d1299cdf06d5303b04293003231cfc29475fb084df0c043",
                        "prev": "0x000000000000000000000000000000000000b7d245a017adb442cae5b9011a99"
                    },
                    {
                        "current": "0x010088f8d8000000000000000000000000382ce44d32a3fc9dfffe4578bd42c8",
                        "key": "0x058f5282ac6b9f9f4d1299cdf06d5303b04293003231cfc29475fb084df0c044",
                        "prev": "0x0164967ad7000005e80000000000000003ef637be77dee9ff4fffee78b2fe6e4"
                    },
                    {
                        "current": "0x000000000000000000000000000000a33f71978b5c27d2aa3528f32565cff202",
                        "key": "0x5c8643e28c8858ecac9d1e919a9a0f9f317dc662ff49844d148d148203140705",
                        "prev": "0x00000000000000000000000000006a08b97bee8c656a0bb1b33b974329211304"
                    },
                    {
                        "current": "0x01001057e0000000000000000000000000058e35260cbebbc4ffffca53717148",
                        "key": "0x5c8643e28c8858ecac9d1e919a9a0f9f317dc662ff49844d148d148203140707",
                        "prev": "0x01650f1bcf000005e8000000000000000422022b0ea3d3e0cdfffd62b07bb864"
                    },
                    {
                        "current": "0x0000000000000000000000000000000000000000026d2f044e724d5fc3a8ad20",
                        "key": "0x0000000000000000000000000000000000000000000000000000000000000004",
                        "prev": "0x000000000000000000000000000000000000000002bc53cc309c463ffa05158d"
                    },
                    {
                        "current": "0x000000000000000000000000000000982541dfec248fd72cfcfc522cb992b149",
                        "key": "0x6393a35264dda61668a9f2cb45434da1155308ebec61d77bbaa49fb1187ebf23",
                        "prev": "0x00000000000000000000000000006a12f49b73e19dbcfebc9170c6284613e5c9"
                    },
                    {
                        "current": "0x000000000000000000000000000000000000013f195e8052e4f1386be2535bcd",
                        "key": "0x5c8643e28c8858ecac9d1e919a9a0f9f317dc662ff49844d148d148203140706",
                        "prev": "0x000000000000000000000000000000000000cdc570e5fab44da570ab4b64b0c2"
                    },
                    {
                        "current": "0x00000000000000000000000000006aac405865025297d25e4718476306cfa0a4",
                        "key": "0x0000000000000000000000000000000000000000000000000000000000000001",
                        "prev": "0x00000000000000000000000000006aaadc181d0b3c7a6cfe23653d7e40c99816"
                    },
                    {
                        "current": "0x00010000b400b40069fcb5090000000000000000000159e72ab0a80270e19949",
                        "key": "0x0000000000000000000000000000000000000000000000000000000000000000",
                        "prev": "0x00010000b400b40069fcb5c9000000000000000000015d3ba357fd6d3539d1b5"
                    },
                    {
                        "current": "0x01000f9bdc0000000000000000000000000542029fa93b689dffffccbe382590",
                        "key": "0x6393a35264dda61668a9f2cb45434da1155308ebec61d77bbaa49fb1187ebf25",
                        "prev": "0x01650fd7d3000005e80000000000000004224e5d95075733f4fffd6045b5041c"
                    }
                ],
                "storageVariables": []
            },
            {
                "address": "0x6982508145454ce325ddbe47a25d4ec3d2311933",
                "erc": "ERC-20",
                "slots": [
                    {
                        "current": "0x0000000000000000000000000000000000000000000000000000000000000001",
                        "key": "0x308b9d67b9e764a6448504ec45bcc4ba7a96e35d0798709fdac3c28677491588",
                        "prev": "0x0000000000000000000000000000000000000005342fede70a45ba84a7ff6ce5"
                    },
                    {
                        "current": "0x000000000000000000000000000000000000003eea0224536bea7aeedcb7a881",
                        "key": "0x037199b0744c1ed84f0f7ae52d5760694aa3b29cff7b52bc1088ada5714d2980",
                        "prev": "0x000000000000000000000000000000000000003e64ca2622b7b04eae65848404"
                    },
                    {
                        "current": "0x0000000000000000000000000000000000000000000000000000000000000001",
                        "key": "0x083d9de66d4c6d4111b65b9c2c1ac3aaaf4050d71a6bb79c47d26a5c65f08dce",
                        "prev": "0x0000000000000000000000000000000000000005342fede70a45ba84a7ff6ce5"
                    },
                    {
                        "current": "0x000000000000000000000000000000000000006f4d3c83e141aba4c6622a4728",
                        "key": "0xba43b84b17deebeec7f36d05cea2b2641fd23600f9e29f5940ca5a63978b912d",
                        "prev": "0x000000000000000000000000000000000000006a9e44942aeba01682315dfec1"
                    }
                ],
                "storageVariables": [
                    {
                        "name": "_balances",
                        "type": "mapping(address => uint256)",
                        "value": {
                            "pairs": [
                                {
                                    "key": "0x11950d141ecb863f01007add7d1a342041227b58",
                                    "value": {
                                        "current": "8818229543174020650439281362728",
                                        "prev": "8447166764721507411704963530433",
                                        "typeTag": 1
                                    }
                                },
                                {
                                    "key": "0x1f5d2c5de70dcf3e82471e8b3ad5781395e36cf6",
                                    "value": {
                                        "current": "1",
                                        "prev": "412291976058348043038130924773",
                                        "typeTag": 1
                                    }
                                },
                                {
                                    "key": "0xa43fe16908251ee70ef74718545e4fe6c5ccec9f",
                                    "value": {
                                        "current": "4984568157578272210437725988993",
                                        "prev": "4943338959972437406133912896516",
                                        "typeTag": 1
                                    }
                                }
                            ],
                            "typeTag": 4
                        }
                    },
                    {
                        "name": "_allowances",
                        "type": "mapping(address => mapping(address => uint256))",
                        "value": {
                            "pairs": [
                                {
                                    "key": "0x1f5d2c5de70dcf3e82471e8b3ad5781395e36cf6",
                                    "value": {
                                        "pairs": [
                                            {
                                                "key": "0x000000000022d473030f116ddee9f6b43ac78ba3",
                                                "value": {
                                                    "current": "1",
                                                    "prev": "412291976058348043038130924773",
                                                    "typeTag": 1
                                                }
                                            }
                                        ],
                                        "typeTag": 4
                                    }
                                }
                            ],
                            "typeTag": 4
                        }
                    }
                ]
            },
            {
                "address": "0x88e6a0c2ddd26feeb64f039a2c41296fcb3f5640",
                "erc": "",
                "slots": [
                    {
                        "current": "0x00010002d202d2019f03169f00000000000060f61d270f404833d980f02f11d6",
                        "key": "0x0000000000000000000000000000000000000000000000000000000000000000",
                        "prev": "0x00010002d202d2019e03169c00000000000060f192cf0b73f32c7201a9e7f8ef"
                    },
                    {
                        "current": "0x010000000000000001ea7b05a3a4e78d552221ad55000dde8fc231fb651f73af",
                        "key": "0x00000000000000000000000000000000000000000000000000000000000001a7",
                        "prev": "0x010000000000000001ea7a89b057629fb682542d41000ddc51922d1f651eb9c7"
                    },
                    {
                        "current": "0x00000000000000000000000000000da0cbfc29fcab6a766e42fd1dee0e8ace8d",
                        "key": "0x0000000000000000000000000000000000000000000000000000000000000002",
                        "prev": "0x00000000000000000000000000000da0cb674f4070f9e4002c62d7f461740018"
                    }
                ],
                "storageVariables": []
            },
            {
                "address": "0xa0b86991c6218b36c1d19d4a2e9eb0ce3606eb48",
                "erc": "ERC-20",
                "slots": [
                    {
                        "current": "0x00000000000000000000000000000000000000000000000000001949cb09fd7b",
                        "key": "0x28c0947f463362aab09a2d7896ccc847fb7e52633a16b978fb2caf3db1a9b8f8",
                        "prev": "0x000000000000000000000000000000000000000000000000000019506c206602"
                    },
                    {
                        "current": "0x00000000000000000000000000000000000000000000000000000047eb4cca92",
                        "key": "0x66bcc211b6692f966659516482ff46f9e2d218a35fae4d431e7fa69c3037c9d3",
                        "prev": "0x000000000000000000000000000000000000000000000000000000054cfa8822"
                    },
                    {
                        "current": "0x00000000000000000000000000000000000000000000000000004317a6879f3b",
                        "key": "0x1f21a62c4538bacf2aabeca410f0fe63151869f172e03c0e00357ba26a341eff",
                        "prev": "0x00000000000000000000000000000000000000000000000000004353a3c37924"
                    }
                ],
                "storageVariables": [
                    {
                        "name": "balances",
                        "type": "mapping(address => uint256)",
                        "value": {
                            "pairs": [
                                {
                                    "key": "0x1f5d2c5de70dcf3e82471e8b3ad5781395e36cf6",
                                    "value": {
                                        "current": "308890356370",
                                        "prev": "22766323746",
                                        "typeTag": 1
                                    }
                                },
                                {
                                    "key": "0x88e6a0c2ddd26feeb64f039a2c41296fcb3f5640",
                                    "value": {
                                        "current": "73768857214779",
                                        "prev": "74026508843300",
                                        "typeTag": 1
                                    }
                                },
                                {
                                    "key": "0xb4e16d0168e52d35cacd2c6185b44281ec28c9dc",
                                    "value": {
                                        "current": "27804729736571",
                                        "prev": "27833202140674",
                                        "typeTag": 1
                                    }
                                }
                            ],
                            "typeTag": 4
                        }
                    }
                ]
            },
            {
                "address": "0xa43fe16908251ee70ef74718545e4fe6c5ccec9f",
                "erc": "ERC-20",
                "slots": [
                    {
                        "current": "0x651f73af0000000000730464984396df1cec003eea0224536bea7aeedcb7a881",
                        "key": "0x0000000000000000000000000000000000000000000000000000000000000008",
                        "prev": "0x651f73af000000000073f93b9e3ce4b83380003e64ca2622b7b04eae65848404"
                    }
                ],
                "storageVariables": [
                    {
                        "name": "reserve0",
                        "type": "uint112",
                        "value": {
                            "current": "4984568157578272210437725988993",
                            "prev": "4943338959972437406133912896516",
                            "typeTag": 1
                        }
                    },
                    {
                        "name": "reserve1",
                        "type": "uint112",
                        "value": {
                            "current": "2121692113766482648300",
                            "prev": "2139334690400040924032",
                            "typeTag": 1
                        }
                    },
                    {
                        "name": "blockTimestampLast",
                        "type": "uint32",
                        "value": {
                            "current": "1696560047",
                            "prev": "1696560047",
                            "typeTag": 1
                        }
                    }
                ]
            },
            {
                "address": "0xb4e16d0168e52d35cacd2c6185b44281ec28c9dc",
                "erc": "ERC-20",
                "slots": [
                    {
                        "current": "0x651f73af0000000003a422035cffd1dedd9400000000000000001949cb09fd7b",
                        "key": "0x0000000000000000000000000000000000000000000000000000000000000008",
                        "prev": "0x651f735b0000000003a32d2c57068405c700000000000000000019506c206602"
                    },
                    {
                        "current": "0x000000000000000000000184246329abf18c9ee57655e4eaf2e31581c1bced24",
                        "key": "0x0000000000000000000000000000000000000000000000000000000000000009",
                        "prev": "0x000000000000000000000184245717bf2a3765c58bdbfdcd7e552c6b6cf548b8"
                    },
                    {
                        "current": "0x000000000000000000000000000000000000331324d9967ab77c9ad404012296",
                        "key": "0x000000000000000000000000000000000000000000000000000000000000000a",
                        "prev": "0x00000000000000000000000000000000000033132290ffb47ed8947d29670ca2"
                    }
                ],
                "storageVariables": [
                    {
                        "name": "reserve0",
                        "type": "uint112",
                        "value": {
                            "current": "27804729736571",
                            "prev": "27833202140674",
                            "typeTag": 1
                        }
                    },
                    {
                        "name": "reserve1",
                        "type": "uint112",
                        "value": {
                            "current": "17194816381573329247636",
                            "prev": "17177173804939770971904",
                            "typeTag": 1
                        }
                    },
                    {
                        "name": "blockTimestampLast",
                        "type": "uint32",
                        "value": {
                            "current": "1696560047",
                            "prev": "1696559963",
                            "typeTag": 1
                        }
                    },
                    {
                        "name": "price0CumulativeLast",
                        "type": "uint256",
                        "value": {
                            "current": "567270370356027727054588659338299924677542922743076",
                            "prev": "567270101185604886378825129510841882810275742435512",
                            "typeTag": 1
                        }
                    },
                    {
                        "name": "price1CumulativeLast",
                        "type": "uint256",
                        "value": {
                            "current": "1035919629381881335652872945214102",
                            "prev": "1035918922657191171558261234535586",
                            "typeTag": 1
                        }
                    }
                ]
            },
            {
                "address": "0xc02aaa39b223fe8d0a0e5c4f27ead9083c756cc2",
                "erc": "ERC-20",
                "slots": [
                    {
                        "current": "0x000000000000000000000000000000000000000000000e7d34e498d9b2c1e777",
                        "key": "0x390f6178407c9b8e95802b8659e6df8e34c1e3d4f8d6a49e6132bbcdd937b63a",
                        "prev": "0x000000000000000000000000000000000000000000000e74991caf50fd508324"
                    },
                    {
                        "current": "0x0000000000000000000000000000000000000000000000730464984396df1cec",
                        "key": "0x68e65bda2915772569224994d285f0b459d64f53fd952966225bf9b4df32f338",
                        "prev": "0x000000000000000000000000000000000000000000000073f93b9e3ce4b83380"
                    },
                    {
                        "current": "0x0000000000000000000000000000000000000000000003a422035cffd1dedd94",
                        "key": "0xb374801ace2c02f5db0425ab5920a2b7ed1d5a00abbcd395fda7530ba1d666c0",
                        "prev": "0x0000000000000000000000000000000000000000000003a32d2c57068405c700"
                    },
                    {
                        "current": "0x00000000000000000000000000000000000000000000002c58ce12b2b5ce7258",
                        "key": "0xc906b0b0df36e2042f059120e95e6dd99f11c9ac2ef306a59ba0efa77fd8622d",
                        "prev": "0x000000000000000000000000000000000000000000000034f495fc3b6b3fd6ab"
                    }
                ],
                "storageVariables": [
                    {
                        "name": "balanceOf",
                        "type": "mapping(address => uint256)",
                        "value": {
                            "pairs": [
                                {
                                    "key": "0x11950d141ecb863f01007add7d1a342041227b58",
                                    "value": {
                                        "current": "818055811922524009048",
                                        "prev": "976854961881813604011",
                                        "typeTag": 1
                                    }
                                },
                                {
                                    "key": "0x88e6a0c2ddd26feeb64f039a2c41296fcb3f5640",
                                    "value": {
                                        "current": "68422785108634163603319",
                                        "prev": "68263985958674874008356",
                                        "typeTag": 1
                                    }
                                },
                                {
                                    "key": "0xa43fe16908251ee70ef74718545e4fe6c5ccec9f",
                                    "value": {
                                        "current": "2121692113766482648300",
                                        "prev": "2139334690400040924032",
                                        "typeTag": 1
                                    }
                                },
                                {
                                    "key": "0xb4e16d0168e52d35cacd2c6185b44281ec28c9dc",
                                    "value": {
                                        "current": "17194816381573329247636",
                                        "prev": "17177173804939770971904",
                                        "typeTag": 1
                                    }
                                }
                            ],
                            "typeTag": 4
                        }
                    }
                ]
            }
        ]
    }
}