{
    "balance_change": {
        "balanceChanges": [
            {
                "account": "0x5dd09afc9ca51b46d6cda2189478b505ace7f37b",
                "assets": [
                    {
                        "address": "0xa47c8bf37f92abed4a126bda807a7b7498661acd",
                        "amount": "67,409.078971616543771385",
                        "iconUrl": "",
                        "isERC1155": false,
                        "isERC721": false,
                        "sign": true,
                        "value": "66359.22734"
                    },
                    {
                        "address": "0x09a3ecafa817268f77be1283176b946c4ff2e608",
                        "amount": "6,500",
                        "iconUrl": "",
                        "isERC1155": false,
                        "isERC721": false,
                        "sign": false,
                        "value": "65303.92698"
                    }
                ]
            },
            {
                "account": "0x87da823b6fc8eb8575a235a824690fda94674c88",
                "assets": [
                    {
                        "address": "0x09a3ecafa817268f77be1283176b946c4ff2e608",
                        "amount": "6,500",
                        "iconUrl": "",
                        "isERC1155": false,
                        "isERC721": false,
                        "sign": true,
                        "value": "65303.92698"
                    },
                    {
                        "address": "0xa47c8bf37f92abed4a126bda807a7b7498661acd",
                        "amount": "67,409.078971616543771385",
                        "iconUrl": "",
                        "isERC1155": false,
                        "isERC721": false,
                        "sign": false,
                        "value": "66359.22734"
                    }
                ]
            }
        ]
    },
    "profile": {
        "basic_info": {
            "baseFee": "",
            "blockNumber": 12341825,
            "callData": "0x38ed17390000000000000000000000000000000000000000000001605d9ee98627100000000000000000000000000000000000000000000000000e3412b87ecddbd9e9ce00000000000000000000000000000000000000000000000000000000000000a00000000000000000000000005dd09afc9ca51b46d6cda2189478b505ace7f37b00000000000000000000000000000000000000000000000000000000608bfcfb000000000000000000000000000000000000000000000000000000000000000200000000000000000000000009a3ecafa817268f77be1283176b946c4ff2e608000000000000000000000000a47c8bf37f92abed4a126bda807a7b7498661acd",
            "debugEnable": true,
            "errorInfo": "",
            "eventCount": 5,
            "feeRecipient": "0xd224ca0c819e8e97ba0136b3b95ceff503b79f53",
            "formatValue": "0",
            "gasLimit": 120598,
            "gasPrice": "46",
            "gasUsed": 104322,
            "intTxnCount": 6,
            "internalRevert": false,
            "internalRevertMessage": "",
            "isContractCreation": false,
            "isFlashloan": false,
            "maxFee": "",
            "nonce": 576,
            "overwritedBlockNumber": -1,
            "priorityFee": "",
            "receiver": "0x7a250d5630b4cf539739df2c5dacb4c659f2488d",
            "revertMessage": "",
            "sender": "0x5dd09afc9ca51b46d6cda2189478b505ace7f37b",
            "simulationEnable": true,
            "sourceTxnHash": "0x9439ec9538c9372558d9898d669412af9d84068818965f99226be83886f2fd8e",
            "status": true,
            "timestamp": "2021-04-30T12:31:55Z",
            "transactionFee": "0.004798812",
            "txnHash": "0x9439ec9538c9372558d9898d669412af9d84068818965f99226be83886f2fd8e",
            "txnIndex": 202,
            "type": 0,
            "value": "0"
        },
        "fund_flow": [
            {
                "amount": "6,500",
                "from": "0x5dd09afc9ca51b46d6cda2189478b505ace7f37b",
                "id": 1,
                "isERC1155": false,
                "isERC721": false,
                "isReverted": false,
                "order": 1,
                "to": "0x87da823b6fc8eb8575a235a824690fda94674c88",
                "token": "0x09a3ecafa817268f77be1283176b946c4ff2e608"
            },
            {
                "amount": "67,409.078971616543771385",
                "from": "0x87da823b6fc8eb8575a235a824690fda94674c88",
                "id": 2,
                "isERC1155": false,
                "isERC721": false,
                "isReverted": false,
                "order": 2,
                "to": "0x5dd09afc9ca51b46d6cda2189478b505ace7f37b",
                "token": "0xa47c8bf37f92abed4a126bda807a7b7498661acd"
            }
        ],
        "token_infos": [
            {
                "address": "0xeeeeeeeeeeeeeeeeeeeeeeeeeeeeeeeeeeeeeeee",
                "decimals": 18
            },
            {
                "address": "0x09a3ecafa817268f77be1283176b946c4ff2e608",
                "decimals": 18
            },
            {
                "address": "0xa47c8bf37f92abed4a126bda807a7b7498661acd",
                "decimals": 18
            },
            {
                "address": "0xc02aaa39b223fe8d0a0e5c4f27ead9083c756cc2",
                "decimals": 18
            }
        ]
    },
    "address_label": {
        "labels": [
            {
                "address": "0x0000000000000000000000000000000000000002",
                "label": "Precompiled"
            },
            {
                "address": "0x0000000000000000000000000000000000000003",
                "label": "Precompiled"
            },
            {
                "address": "0x09a3ecafa817268f77be1283176b946c4ff2e608",
                "label": "Mirror Protocol: MIR Token"
            },
            {
                "address": "0x7a250d5630b4cf539739df2c5dacb4c659f2488d",
                "label": "Uniswap V2: Router 2"
            },
            {
                "address": "0x87da823b6fc8eb8575a235a824690fda94674c88",
                "label": "Uniswap V2: MIR-UST"
            },
            {
                "address": "0x0000000000000000000000000000000000000004",
                "label": "Precompiled"
            },
            {
                "address": "0xeeeeeeeeeeeeeeeeeeeeeeeeeeeeeeeeeeeeeeee",
                "label": "Ether"
            },
            {
                "address": "0xa47c8bf37f92abed4a126bda807a7b7498661acd",
                "label": "Terra: USTC Token"
            },
            {
                "address": "0x0000000000000000000000000000000000000001",
                "label": "Precompiled"
            }
        ]
    },
    "trace": {
        "accountLabels": null,
        "dataMap": {
            "-1": {
                "invocation": {
                    "address": "0x5dd09afc9ca51b46d6cda2189478b505ace7f37b",
                    "callData": "",
                    "decodedMethod": null,
                    "errorInfo": "",
                    "fromAddress": "",
                    "gasUsed": 0,
                    "id": -1,
                    "methodDecoded": false,
                    "operation": "",
                    "output": "",
                    "revert": false,
                    "revertMessage": "",
                    "selector": "",
                    "status": false,
                    "value": ""
                },
                "nodeType": 0
            },
            "0": {
                "invocation": {
                    "address": "0x7a250d5630b4cf539739df2c5dacb4c659f2488d",
                    "callData": "0x0000000000000000000000000000000000000000000001605d9ee98627100000000000000000000000000000000000000000000000000e3412b87ecddbd9e9ce00000000000000000000000000000000000000000000000000000000000000a00000000000000000000000005dd09afc9ca51b46d6cda2189478b505ace7f37b00000000000000000000000000000000000000000000000000000000608bfcfb000000000000000000000000000000000000000000000000000000000000000200000000000000000000000009a3ecafa817268f77be1283176b946c4ff2e608000000000000000000000000a47c8bf37f92abed4a126bda807a7b7498661acd",
                    "decodedMethod": {
                        "callParams": [
                            {
                                "name": "amountIn",
                                "type": "uint256",
                                "value": "6,500,000,000,000,000,000,000"
                            },
                            {
                                "name": "amountOutMin",
                                "type": "uint256",
                                "value": "67,073,710,419,518,949,026,254"
                            },
                            {
                                "name": "path",
                                "type": "address[]",
                                "value": [
                                    "0x09a3ecafa817268f77be1283176b946c4ff2e608",
                                    "0xa47c8bf37f92abed4a126bda807a7b7498661acd"
                                ]
                            },
                            {
                                "name": "to",
                                "type": "address",
                                "value": "0x5dd09afc9ca51b46d6cda2189478b505ace7f37b"
                            },
                            {
                                "name": "deadline",
                                "type": "uint256",
                                "value": "1,619,787,003"
                            }
                        ],
                        "constructorArguments": "",
                        "name": "swapExactTokensForTokens",
                        "returnParams": [
                            {
                                "name": "amounts",
                                "type": "uint256[]",
                                "value": [
                                    "6,500,000,000,000,000,000,000",
                                    "67,409,078,971,616,543,771,386"
                                ]
                            }
                        ],
                        "signature": "swapExactTokensForTokens(uint256,uint256,address[],address,uint256)"
                    },
                    "errorInfo": "",
                    "fromAddress": "0x5dd09afc9ca51b46d6cda2189478b505ace7f37b",
                    "gasUsed": 104322,
                    "id": 0,
                    "methodDecoded": true,
                    "operation": "CALL",
                    "output": "0x000000000000000000000000000000000000000000000000000000000000002000000000000000000000000000000000000000000000000000000000000000020000000000000000000000000000000000000000000001605d9ee98627100000000000000000000000000000000000000000000000000e4640e4f01402120afa",
                    "revert": false,
                    "revertMessage": "",
                    "selector": "0x38ed1739",
                    "status": true,
                    "value": "0"
                },
                "nodeType": 0
            },
            "1": {
                "invocation": {
                    "address": "0x87da823b6fc8eb8575a235a824690fda94674c88",
                    "callData": "0x",
                    "decodedMethod": {
                        "callParams": [],
                        "constructorArguments": "",
                        "name": "getReserves",
                        "returnParams": [
                            {
                                "name": "_reserve0",
                                "type": "uint112",
                                "value": "7,361,606,698,197,710,093,508,351"
                            },
                            {
                                "name": "_reserve1",
                                "type": "uint112",
                                "value": "76,641,612,809,669,981,765,874,265"
                            },
                            {
                                "name": "_blockTimestampLast",
                                "type": "uint32",
                                "value": "1,619,783,604"
                            }
                        ],
                        "signature": "getReserves()"
                    },
                    "errorInfo": "",
                    "fromAddress": "0x7a250d5630b4cf539739df2c5dacb4c659f2488d",
                    "gasUsed": 2504,
                    "id": 1,
                    "methodDecoded": true,
                    "operation": "STATICCALL",
                    "output": "0x0000000000000000000000000000000000000000000616e17faea2ead2755eff0000000000000000000000000000000000000000003f657e27d23f096623b25900000000000000000000000000000000000000000000000000000000608befb4",
                    "revert": false,
                    "revertMessage": "",
                    "selector": "0x0902f1ac",
                    "status": true,
                    "value": "0"
                },
                "nodeType": 0
            },
            "10": {
                "event": {
                    "contract": "0x87da823b6fc8eb8575a235a824690fda94674c88",
                    "decodedLog": {
                        "name": "Sync",
                        "params": [
                            {
                                "name": "reserve0",
                                "type": "uint112",
                                "value": "7,368,106,698,197,710,093,508,351"
                            },
                            {
                                "name": "reserve1",
                                "type": "uint112",
                                "value": "76,574,203,730,698,365,222,102,879"
                            }
                        ],
                        "signature": "Sync(uint112,uint112)"
                    },
                    "id": 10,
                    "logData": "0x000000000000000000000000000000000000000000061841dd4d8c70f9855eff0000000000000000000000000000000000000000003f5737e6ed4ef56411a75f",
                    "logDecoded": true,
                    "operation": "EVENT",
                    "revert": false,
                    "status": true,
                    "topics": [
                        "0x1c411e9a96e071241c2f21f7726b17ae89e3cab4c78be50e062b03a9fffbbad1"
                    ]
                },
                "nodeType": 1
            },
            "11": {
                "event": {
                    "contract": "0x87da823b6fc8eb8575a235a824690fda94674c88",
                    "decodedLog": {
                        "name": "Swap",
                        "params": [
                            {
                                "name": "sender",
                                "type": "address",
                                "value": "0x7a250d5630b4cf539739df2c5dacb4c659f2488d"
                            },
                            {
                                "name": "to",
                                "type": "address",
                                "value": "0x5dd09afc9ca51b46d6cda2189478b505ace7f37b"
                            },
                            {
                                "name": "amount0In",
                                "type": "uint256",
                                "value": "6,500,000,000,000,000,000,000"
                            },
                            {
                                "name": "amount1In",
                                "type": "uint256",
                                "value": "0"
                            },
                            {
                                "name": "amount0Out",
                                "type": "uint256",
                                "value": "0"
                            },
                            {
                                "name": "amount1Out",
                                "type": "uint256",
                                "value": "67,409,078,971,616,543,771,386"
                            }
                        ],
                        "signature": "Swap(address,uint256,uint256,uint256,uint256,address)"
                    },
                    "id": 11,
                    "logData": "0x0000000000000000000000000000000000000000000001605d9ee9862710000000000000000000000000000000000000000000000000000000000000000000000000000000000000000000000000000000000000000000000000000000000000000000000000000000000000000000000000000000000e4640e4f01402120afa",
                    "logDecoded": true,
                    "operation": "EVENT",
                    "revert": false,
                    "status": true,
                    "topics": [
                        "0xd78ad95fa46c994b6551d0da85fc275fe613ce37657fb8d5e3d130840159d822",
                        "0x0000000000000000000000007a250d5630b4cf539739df2c5dacb4c659f2488d",
                        "0x0000000000000000000000005dd09afc9ca51b46d6cda2189478b505ace7f37b"
                    ]
                },
                "nodeType": 1
            },
            "2": {
                "invocation": {
                    "address": "0x09a3ecafa817268f77be1283176b946c4ff2e608",
                    "callData": "0x0000000000000000000000005dd09afc9ca51b46d6cda2189478b505ace7f37b00000000000000000000000087da823b6fc8eb8575a235a824690fda94674c880000000000000000000000000000000000000000000001605d9ee98627100000",
                    "decodedMethod": {
                        "callParams": [
                            {
                                "name": "sender",
                                "type": "address",
                                "value": "0x5dd09afc9ca51b46d6cda2189478b505ace7f37b"
                            },
                            {
                                "name": "recipient",
                                "type": "address",
                                "value": "0x87da823b6fc8eb8575a235a824690fda94674c88"
                            },
                            {
                                "decimalAvailable": true,
                                "name": "amount",
                                "type": "uint256",
                                "value": "6,500,000,000,000,000,000,000"
                            }
                        ],
                        "constructorArguments": "",
                        "name": "transferFrom",
                        "returnParams": [
                            {
                                "name": "",
                                "type": "bool",
                                "value": true
                            }
                        ],
                        "signature": "transferFrom(address,address,uint256)"
                    },
                    "errorInfo": "",
                    "fromAddress": "0x7a250d5630b4cf539739df2c5dacb4c659f2488d",
                    "gasUsed": 20711,
                    "id": 2,
                    "methodDecoded": true,
                    "operation": "CALL",
                    "output": "0x0000000000000000000000000000000000000000000000000000000000000001",
                    "revert": false,
                    "revertMessage": "",
                    "selector": "0x23b872dd",
                    "status": true,
                    "value": "0"
                },
                "nodeType": 0
            },
            "3": {
                "event": {
                    "contract": "0x09a3ecafa817268f77be1283176b946c4ff2e608",
                    "decodedLog": {
                        "name": "Transfer",
                        "params": [
                            {
                                "name": "from",
                                "type": "address",
                                "value": "0x5dd09afc9ca51b46d6cda2189478b505ace7f37b"
                            },
                            {
                                "name": "to",
                                "type": "address",
                                "value": "0x87da823b6fc8eb8575a235a824690fda94674c88"
                            },
                            {
                                "decimalAvailable": true,
                                "name": "value",
                                "type": "uint256",
                                "value": "6,500,000,000,000,000,000,000"
                            }
                        ],
                        "signature": "Transfer(address,address,uint256)"
                    },
                    "id": 3,
                    "logData": "0x0000000000000000000000000000000000000000000001605d9ee98627100000",
                    "logDecoded": true,
                    "operation": "EVENT",
                    "revert": false,
                    "status": true,
                    "topics": [
                        "0xddf252ad1be2c89b69c2b068fc378daa952ba7f163c4a11628f55a4df523b3ef",
                        "0x0000000000000000000000005dd09afc9ca51b46d6cda2189478b505ace7f37b",
                        "0x00000000000000000000000087da823b6fc8eb8575a235a824690fda94674c88"
                    ]
                },
                "nodeType": 1
            },
            "4": {
                "event": {
                    "contract": "0x09a3ecafa817268f77be1283176b946c4ff2e608",
                    "decodedLog": {
                        "name": "Approval",
                        "params": [
                            {
                                "name": "owner",
                                "type": "address",
                                "value": "0x5dd09afc9ca51b46d6cda2189478b505ace7f37b"
                            },
                            {
                                "name": "spender",
                                "type": "address",
                                "value": "0x7a250d5630b4cf539739df2c5dacb4c659f2488d"
                            },
                            {
                                "decimalAvailable": true,
                                "name": "value",
                                "type": "uint256",
                                "value": "115,792,089,237,316,195,423,570,985,008,687,907,853,269,984,665,640,562,715,786,501,384,913,129,639,935"
                            }
                        ],
                        "signature": "Approval(address,address,uint256)"
                    },
                    "id": 4,
                    "logData": "0xfffffffffffffffffffffffffffffffffffffffffffee7b3a596885876bd0fff",
                    "logDecoded": true,
                    "operation": "EVENT",
                    "revert": false,
                    "status": true,
                    "topics": [
                        "0x8c5be1e5ebec7d5bd14f71427d1e84f3dd0314c0f7b2291e5b200ac8c7c3b925",
                        "0x0000000000000000000000005dd09afc9ca51b46d6cda2189478b505ace7f37b",
                        "0x0000000000000000000000007a250d5630b4cf539739df2c5dacb4c659f2488d"
                    ]
                },
                "nodeType": 1
            },
            "5": {
                "invocation": {
                    "address": "0x87da823b6fc8eb8575a235a824690fda94674c88",
                    "callData": "0x0000000000000000000000000000000000000000000000000000000000000000000000000000000000000000000000000000000000000e4640e4f01402120afa0000000000000000000000005dd09afc9ca51b46d6cda2189478b505ace7f37b00000000000000000000000000000000000000000000000000000000000000800000000000000000000000000000000000000000000000000000000000000000",
                    "decodedMethod": {
                        "callParams": [
                            {
                                "name": "amount0Out",
                                "type": "uint256",
                                "value": "0"
                            },
                            {
                                "name": "amount1Out",
                                "type": "uint256",
                                "value": "67,409,078,971,616,543,771,386"
                            },
                            {
                                "name": "to",
                                "type": "address",
                                "value": "0x5dd09afc9ca51b46d6cda2189478b505ace7f37b"
                            },
                            {
                                "name": "data",
                                "type": "bytes",
                                "value": "0x"
                            }
                        ],
                        "constructorArguments": "",
                        "name": "swap",
                        "returnParams": [],
                        "signature": "swap(uint256,uint256,address,bytes)"
                    },
                    "errorInfo": "",
                    "fromAddress": "0x7a250d5630b4cf539739df2c5dacb4c659f2488d",
                    "gasUsed": 48062,
                    "id": 5,
                    "methodDecoded": true,
                    "operation": "CALL",
                    "output": "",
                    "revert": false,
                    "revertMessage": "",
                    "selector": "0x022c0d9f",
                    "status": true,
                    "value": "0"
                },
                "nodeType": 0
            },
            "6": {
                "invocation": {
                    "address": "0xa47c8bf37f92abed4a126bda807a7b7498661acd",
                    "callData": "0x0000000000000000000000005dd09afc9ca51b46d6cda2189478b505ace7f37b000000000000000000000000000000000000000000000e4640e4f01402120afa",
                    "decodedMethod": {
                        "callParams": [
                            {
                                "name": "recipient",
                                "type": "address",
                                "value": "0x5dd09afc9ca51b46d6cda2189478b505ace7f37b"
                            },
                            {
                                "decimalAvailable": true,
                                "name": "amount",
                                "type": "uint256",
                                "value": "67,409,078,971,616,543,771,386"
                            }
                        ],
                        "constructorArguments": "",
                        "name": "transfer",
                        "returnParams": [
                            {
                                "name": "",
                                "type": "bool",
                                "value": true
                            }
                        ],
                        "signature": "transfer(address,uint256)"
                    },
                    "errorInfo": "",
                    "fromAddress": "0x87da823b6fc8eb8575a235a824690fda94674c88",
                    "gasUsed": 13069,
                    "id": 6,
                    "methodDecoded": true,
                    "operation": "CALL",
                    "output": "0x0000000000000000000000000000000000000000000000000000000000000001",
                    "revert": false,
                    "revertMessage": "",
                    "selector": "0xa9059cbb",
                    "status": true,
                    "value": "0"
                },
                "nodeType": 0
            },
            "7": {
                "event": {
                    "contract": "0xa47c8bf37f92abed4a126bda807a7b7498661acd",
                    "decodedLog": {
                        "name": "Transfer",
                        "params": [
                            {
                                "name": "from",
                                "type": "address",
                                "value": "0x87da823b6fc8eb8575a235a824690fda94674c88"
                            },
                            {
                                "name": "to",
                                "type": "address",
                                "value": "0x5dd09afc9ca51b46d6cda2189478b505ace7f37b"
                            },
                            {
                                "decimalAvailable": true,
                                "name": "value",
                                "type": "uint256",
                                "value": "67,409,078,971,616,543,771,386"
                            }
                        ],
                        "signature": "Transfer(address,address,uint256)"
                    },
                    "id": 7,
                    "logData": "0x000000000000000000000000000000000000000000000e4640e4f01402120afa",
                    "logDecoded": true,
                    "operation": "EVENT",
                    "revert": false,
                    "status": true,
                    "topics": [
                        "0xddf252ad1be2c89b69c2b068fc378daa952ba7f163c4a11628f55a4df523b3ef",
                        "0x00000000000000000000000087da823b6fc8eb8575a235a824690fda94674c88",
                        "0x0000000000000000000000005dd09afc9ca51b46d6cda2189478b505ace7f37b"
                    ]
                },
                "nodeType": 1
            },
            "8": {
                "invocation": {
                    "address": "0x09a3ecafa817268f77be1283176b946c4ff2e608",
                    "callData": "0x00000000000000000000000087da823b6fc8eb8575a235a824690fda94674c88",
                    "decodedMethod": {
                        "callParams": [
                            {
                                "name": "account",
                                "type": "address",
                                "value": "0x87da823b6fc8eb8575a235a824690fda94674c88"
                            }
                        ],
                        "constructorArguments": "",
                        "name": "balanceOf",
                        "returnParams": [
                            {
                                "decimalAvailable": true,
                                "name": "",
                                "type": "uint256",
                                "value": "7,368,106,698,197,710,093,508,351"
                            }
                        ],
                        "signature": "balanceOf(address)"
                    },
                    "errorInfo": "",
                    "fromAddress": "0x87da823b6fc8eb8575a235a824690fda94674c88",
                    "gasUsed": 585,
                    "id": 8,
                    "methodDecoded": true,
                    "operation": "STATICCALL",
                    "output": "0x000000000000000000000000000000000000000000061841dd4d8c70f9855eff",
                    "revert": false,
                    "revertMessage": "",
                    "selector": "0x70a08231",
                    "status": true,
                    "value": "0"
                },
                "nodeType": 0
            },
            "9": {
                "invocation": {
                    "address": "0xa47c8bf37f92abed4a126bda807a7b7498661acd",
                    "callData": "0x00000000000000000000000087da823b6fc8eb8575a235a824690fda94674c88",
                    "decodedMethod": {
                        "callParams": [
                            {
                                "name": "account",
                                "type": "address",
                                "value": "0x87da823b6fc8eb8575a235a824690fda94674c88"
                            }
                        ],
                        "constructorArguments": "",
                        "name": "balanceOf",
                        "returnParams": [
                            {
                                "decimalAvailable": true,
                                "name": "",
                                "type": "uint256",
                                "value": "76,574,203,730,698,365,222,102,879"
                            }
                        ],
                        "signature": "balanceOf(address)"
                    },
                    "errorInfo": "",
                    "fromAddress": "0x87da823b6fc8eb8575a235a824690fda94674c88",
                    "gasUsed": 585,
                    "id": 9,
                    "methodDecoded": true,
                    "operation": "STATICCALL",
                    "output": "0x0000000000000000000000000000000000000000003f5737e6ed4ef56411a75f",
                    "revert": false,
                    "revertMessage": "",
                    "selector": "0x70a08231",
                    "status": true,
                    "value": "0"
                },
                "nodeType": 0
            }
        },
        "gasFlame": [
            {
                "children": [
                    {
                        "children": [
                            {
                                "children": [],
                                "depth": 0,
                                "name": "Initial Gas",
                                "value": 23096
                            },
                            {
                                "children": [
                                    {
                                        "children": [],
                                        "depth": 1,
                                        "name": "getReserves",
                                        "value": 2504
                                    },
                                    {
                                        "children": [],
                                        "depth": 1,
                                        "name": "transferFrom",
                                        "value": 20711
                                    },
                                    {
                                        "children": [
                                            {
                                                "children": [],
                                                "depth": 2,
                                                "name": "transfer",
                                                "value": 13069
                                            },
                                            {
                                                "children": [],
                                                "depth": 2,
                                                "name": "balanceOf",
                                                "value": 585
                                            },
                                            {
                                                "children": [],
                                                "depth": 2,
                                                "name": "balanceOf",
                                                "value": 585
                                            }
                                        ],
                                        "depth": 1,
                                        "name": "swap",
                                        "value": 48062
                                    }
                                ],
                                "depth": 0,
                                "name": "Executed Gas",
                                "value": 84026
                            }
                        ],
                        "depth": -1,
                        "name": "Actual Gas Used",
                        "value": 104322
                    },
                    {
                        "children": [],
                        "depth": -1,
                        "name": "Refunded Gas",
                        "value": 2800
                    }
                ],
                "depth": -2,
                "name": "Total Gas",
                "value": 107122
            }
        ],
        "isConfirmed": true,
        "mainTrace": [
            {
                "children": [
                    {
                        "children": [
                            {
                                "children": [],
                                "depth": 1,
                                "id": 1,
                                "order": 1
                            },
                            {
                                "children": [
                                    {
                                        "children": [],
                                        "depth": 2,
                                        "id": 3,
                                        "order": 3
                                    },
                                    {
                                        "children": [],
                                        "depth": 2,
                                        "id": 4,
                                        "order": 4
                                    }
                                ],
                                "depth": 1,
                                "id": 2,
                                "order": 2
                            },
                            {
                                "children": [
                                    {
                                        "children": [
                                            {
                                                "children": [],
                                                "depth": 3,
                                                "id": 7,
                                                "order": 7
                                            }
                                        ],
                                        "depth": 2,
                                        "id": 6,
                                        "order": 6
                                    },
                                    {
                                        "children": [],
                                        "depth": 2,
                                        "id": 8,
                                        "order": 8
                                    },
                                    {
                                        "children": [],
                                        "depth": 2,
                                        "id": 9,
                                        "order": 9
                                    },
                                    {
                                        "children": [],
                                        "depth": 2,
                                        "id": 10,
                                        "order": 10
                                    },
                                    {
                                        "children": [],
                                        "depth": 2,
                                        "id": 11,
                                        "order": 11
                                    }
                                ],
                                "depth": 1,
                                "id": 5,
                                "order": 5
                            }
                        ],
                        "depth": 0,
                        "id": 0,
                        "order": 0
                    }
                ],
                "depth": -1,
                "id": -1,
                "order": -1
            }
        ],
        "mainTraceNodeCount": 12,
        "parentIdMap": {
            "0": -1,
            "1": 0,
            "10": 5,
            "11": 5,
            "2": 0,
            "3": 2,
            "4": 2,
            "5": 0,
            "6": 5,
            "7": 6,
            "8": 5,
            "9": 5
        },
        "tidyTrace": [
            {
                "children": [
                    {
                        "children": [
                            {
                                "children": [
                                    {
                                        "children": [],
                                        "depth": 2,
                                        "id": 3,
                                        "order": 3
                                    },
                                    {
                                        "children": [],
                                        "depth": 2,
                                        "id": 4,
                                        "order": 4
                                    }
                                ],
                                "depth": 1,
                                "id": 2,
                                "order": 2
                            },
                            {
                                "children": [
                                    {
                                        "children": [
                                            {
                                                "children": [],
                                                "depth": 3,
                                                "id": 7,
                                                "order": 7
                                            }
                                        ],
                                        "depth": 2,
                                        "id": 6,
                                        "order": 6
                                    },
                                    {
                                        "children": [],
                                        "depth": 2,
                                        "id": 10,
                                        "order": 10
                                    },
                                    {
                                        "children": [],
                                        "depth": 2,
                                        "id": 11,
                                        "order": 11
                                    }
                                ],
                                "depth": 1,
                                "id": 5,
                                "order": 5
                            }
                        ],
                        "depth": 0,
                        "id": 0,
                        "order": 0
                    }
                ],
                "depth": -1,
                "id": -1,
                "order": -1
            }
        ],
        "tidyTraceNodeCount": 9
    },
    "state_change": {
        "stateChanges": [
            {
                "address": "0x09a3ecafa817268f77be1283176b946c4ff2e608",
                "erc": "ERC-20",
                "slots": [
                    {
                        "current": "0x0000000000000000000000000000000000000000000000bd9df64d4572828000",
                        "key": "0x1a2e2d35b2094bb7eb8b0e20380f51817acf296507b594ea812b08c18494a8f4",
                        "prev": "0x00000000000000000000000000000000000000000000021dfb9536cb99928000"
                    },
                    {
                        "current": "0x000000000000000000000000000000000000000000061841dd4d8c70f9855eff",
                        "key": "0x115dce1588f01f05b74404514d7aa0e230e3debd116053d38be05e378b1ba4d1",
                        "prev": "0x0000000000000000000000000000000000000000000616e17faea2ead2755eff"
                    },
                    {
                        "current": "0xfffffffffffffffffffffffffffffffffffffffffffee7b3a596885876bd0fff",
                        "key": "0xf3848bb0209c62ae556f83154346c8fb70fc6e7c06cd6e7b17135c893d398819",
                        "prev": "0xfffffffffffffffffffffffffffffffffffffffffffee914033571de9dcd0fff"
                    }
                ],
                "storageVariables": [
                    {
                        "name": "_balances",
                        "type": "mapping(address => uint256)",
                        "value": {
                            "pairs": [
                                {
                                    "key": "0x5dd09afc9ca51b46d6cda2189478b505ace7f37b",
                                    "value": {
                                        "current": "3497817000000000000000",
                                        "prev": "9997817000000000000000",
                                        "typeTag": 1
                                    }
                                },
                                {
                                    "key": "0x87da823b6fc8eb8575a235a824690fda94674c88",
                                    "value": {
                                        "current": "7368106698197710093508351",
                                        "prev": "7361606698197710093508351",
                                        "typeTag": 1
                                    }
                                }
                            ],
                            "typeTag": 4
                        }
                    },
                    {
                        "name": "_allowances",
                        "type": "mapping(address => mapping(address => uint256))",
                        "value": {
                            "pairs": [
                                {
                                    "key": "0x5dd09afc9ca51b46d6cda2189478b505ace7f37b",
                                    "value": {
                                        "pairs": [
                                            {
                                                "key": "0x7a250d5630b4cf539739df2c5dacb4c659f2488d",
                                                "value": {
                                                    "current": "115792089237316195423570985008687907853269984665640562715786501384913129639935",
                                                    "prev": "115792089237316195423570985008687907853269984665640562722286501384913129639935",
                                                    "typeTag": 1
                                                }
                                            }
                                        ],
                                        "typeTag": 4
                                    }
                                }
                            ],
                            "typeTag": 4
                        }
                    }
                ]
            },
            {
                "address": "0x87da823b6fc8eb8575a235a824690fda94674c88",
                "erc": "ERC-20",
                "slots": [
                    {
                        "current": "0x000000000000000000000000000003c2cf2784b3c7b437f8b0c8e781e1cf2d9e",
                        "key": "0x0000000000000000000000000000000000000000000000000000000000000009",
                        "prev": "0x000000000000000000000000000003c2712bb883f767d33568b213beaac16f84"
                    },
                    {
                        "current": "0x0000000000000000000000000000004a7dc4d2d0e5caa8a98a7c9051222bb84c",
                        "key": "0x000000000000000000000000000000000000000000000000000000000000000a",
                        "prev": "0x0000000000000000000000000000004a7ce6d8b61ce87d2b4b9b2c91ad8b267f"
                    },
                    {
                        "current": "0x608bf8bb0000003f5737e6ed4ef56411a75f000000061841dd4d8c70f9855eff",
                        "key": "0x0000000000000000000000000000000000000000000000000000000000000008",
                        "prev": "0x608befb40000003f657e27d23f096623b2590000000616e17faea2ead2755eff"
                    }
                ],
                "storageVariables": [
                    {
                        "name": "reserve0",
                        "type": "uint112",
                        "value": {
                            "current": "7368106698197710093508351",
                            "prev": "7361606698197710093508351",
                            "typeTag": 1
                        }
                    },
                    {
                        "name": "reserve1",
                        "type": "uint112",
                        "value": {
                            "current": "76574203730698365222102879",
                            "prev": "76641612809669981765874265",
                            "typeTag": 1
                        }
                    },
                    {
                        "name": "blockTimestampLast",
                        "type": "uint32",
                        "value": {
                            "current": "1619785915",
                            "prev": "1619783604",
                            "typeTag": 1
                        }
                    },
                    {
                        "name": "price0CumulativeLast",
                        "type": "uint256",
                        "value": {
                            "current": "327626992364169476455728451566606603988382",
                            "prev": "327502066752650239018458357563780539445124",
                            "typeTag": 1
                        }
                    },
                    {
                        "name": "price1CumulativeLast",
                        "type": "uint256",
                        "value": {
                            "current": "25348070617663425243185358114087391443020",
                            "prev": "25346918047333185483400892661159024076415",
                            "typeTag": 1
                        }
                    }
                ]
            },
            {
                "address": "0xa47c8bf37f92abed4a126bda807a7b7498661acd",
                "erc": "ERC-20",
                "slots": [
                    {
                        "current": "0x0000000000000000000000000000000000000000003f5737e6ed4ef56411a75f",
                        "key": "0x115dce1588f01f05b74404514d7aa0e230e3debd116053d38be05e378b1ba4d1",
                        "prev": "0x0000000000000000000000000000000000000000003f657e27d23f096623b259"
                    },
                    {
                        "current": "0x000000000000000000000000000000000000000000004186a6bae38cf7dc8af2",
                        "key": "0x1a2e2d35b2094bb7eb8b0e20380f51817acf296507b594ea812b08c18494a8f4",
                        "prev": "0x00000000000000000000000000000000000000000000334065d5f378f5ca7ff8"
                    }
                ],
                "storageVariables": [
                    {
                        "name": "_balances",
                        "type": "mapping(address => uint256)",
                        "value": {
                            "pairs": [
                                {
                                    "key": "0x5dd09afc9ca51b46d6cda2189478b505ace7f37b",
                                    "value": {
                                        "current": "309437699257554576378610",
                                        "prev": "242028620285938032607224",
                                        "typeTag": 1
                                    }
                                },
                                {
                                    "key": "0x87da823b6fc8eb8575a235a824690fda94674c88",
                                    "value": {
                                        "current": "76574203730698365222102879",
                                        "prev": "76641612809669981765874265",
                                        "typeTag": 1
                                    }
                                }
                            ],
                            "typeTag": 4
                        }
                    }
                ]
            }
        ]
    }
}