{
    "balance_change": {
        "balanceChanges": [
            {
                "account": "0x13552c7cc9ce39af665955412faa08f0e6555a29",
                "assets": [
                    {
                        "address": "0xab4e1802c61e12fd7b10a69a226f5d727c76a8aa",
                        "amount": "30",
                        "iconUrl": "",
                        "isERC1155": false,
                        "isERC721": false,
                        "sign": false,
                        "value": ""
                    }
                ]
            },
            {
                "account": "0x5827d84f295d62f8f70b3cabfc93c80face51eb7",
                "assets": [
                    {
                        "address": "0xab4e1802c61e12fd7b10a69a226f5d727c76a8aa",
                        "amount": "30",
                        "iconUrl": "",
                        "isERC1155": false,
                        "isERC721": false,
                        "sign": true,
                        "value": ""
                    }
                ]
            }
        ]
    },
    "profile": {
        "basic_info": {
            "baseFee": "",
            "blockNumber": 8530114,
            "callData": "0xf907fc5b00000000000000000000000000000000000000000000000000000000000000000000000000000000000000000000000000000000000000000000000000000000",
            "debugEnable": true,
            "errorInfo": "",
            "eventCount": 1,
            "feeRecipient": "0x005e288d713a5fb3d7c9cf1b43810a98688c7223",
            "formatValue": "0",
            "gasLimit": 326740,
            "gasPrice": "15",
            "gasUsed": 221339,
            "intTxnCount": 3,
            "internalRevert": false,
            "internalRevertMessage": "",
            "isContractCreation": false,
            "isFlashloan": false,
            "maxFee": "",
            "nonce": 14,
            "overwritedBlockNumber": -1,
            "priorityFee": "",
            "receiver": "0x13552c7cc9ce39af665955412faa08f0e6555a29",
            "revertMessage": "",
            "sender": "0xca4bf9420bbbc4c3ace1885af8cd3b6a1ccec525",
            "simulationEnable": true,
            "sourceTxnHash": "0x94172f0f147d914a763b685844931bb7d5d052d35277828f0c68900494d9f8eb",
            "status": true,
            "timestamp": "2019-09-11T18:33:48Z",
            "transactionFee": "0.003320085",
            "txnHash": "0x94172f0f147d914a763b685844931bb7d5d052d35277828f0c68900494d9f8eb",
            "txnIndex": 54,
            "type": 0,
            "value": "0"
        },
        "fund_flow": [
            {
                "amount": "30",
                "from": "0x13552c7cc9ce39af665955412faa08f0e6555a29",
                "id": 1,
                "isERC1155": false,
                "isERC721": false,
                "isReverted": false,
                "order": 1,
                "to": "0x5827d84f295d62f8f70b3cabfc93c80face51eb7",
                "token": "0xab4e1802c61e12fd7b10a69a226f5d727c76a8aa"
            }
        ],
        "token_infos": [
            {
                "address": "0xab4e1802c61e12fd7b10a69a226f5d727c76a8aa",
                "decimals": 18
            },
            {
                "address": "0xc02aaa39b223fe8d0a0e5c4f27ead9083c756cc2",
                "decimals": 18
            },
            {
                "address": "0xeeeeeeeeeeeeeeeeeeeeeeeeeeeeeeeeeeeeeeee",
                "decimals": 18
            }
        ]
    },
    "address_label": {
        "labels": [
            {
                "address": "0xeeeeeeeeeeeeeeeeeeeeeeeeeeeeeeeeeeeeeeee",
                "label": "Ether"
            },
            {
                "address": "0xab4e1802c61e12fd7b10a69a226f5d727c76a8aa",
                "label": "ODF"
            },
            {
                "address": "0x0000000000000000000000000000000000000001",
                "label": "Precompiled"
            },
            {
                "address": "0x0000000000000000000000000000000000000002",
                "label": "Precompiled"
            },
            {
                "address": "0x0000000000000000000000000000000000000003",
                "label": "Precompiled"
            },
            {
                "address": "0x0000000000000000000000000000000000000004",
                "label": "Precompiled"
            }
        ]
    },
    "trace": {
        "accountLabels": null,
        "dataMap": {
            "-1": {
                "invocation": {
                    "address": "0xca4bf9420bbbc4c3ace1885af8cd3b6a1ccec525",
                    "callData": "",
                    "decodedMethod": null,
                    "errorInfo": "",
                    "fromAddress": "",
                    "gasUsed": 0,
                    "id": -1,
                    "methodDecoded": false,
                    "operation": "",
                    "output": "",
                    "revert": false,
                    "revertMessage": "",
                    "selector": "",
                    "status": false,
                    "value": ""
                },
                "nodeType": 0
            },
            "0": {
                "invocation": {
                    "address": "0x13552c7cc9ce39af665955412faa08f0e6555a29",
                    "callData": "0x00000000000000000000000000000000000000000000000000000000000000000000000000000000000000000000000000000000000000000000000000000000",
                    "decodedMethod": null,
                    "errorInfo": "",
                    "fromAddress": "0xca4bf9420bbbc4c3ace1885af8cd3b6a1ccec525",
                    "gasUsed": 221339,
                    "id": 0,
                    "methodDecoded": false,
                    "operation": "CALL",
                    "output": "",
                    "revert": false,
                    "revertMessage": "",
                    "selector": "0xf907fc5b",
                    "status": true,
                    "value": "0"
                },
                "nodeType": 0
            },
            "1": {
                "invocation": {
                    "address": "0xab4e1802c61e12fd7b10a69a226f5d727c76a8aa",
                    "callData": "0x000000000000000000000000ca4bf9420bbbc4c3ace1885af8cd3b6a1ccec525",
                    "decodedMethod": {
                        "callParams": [
                            {
                                "name": "account",
                                "type": "address",
                                "value": "0xca4bf9420bbbc4c3ace1885af8cd3b6a1ccec525"
                            }
                        ],
                        "constructorArguments": "",
                        "name": "balanceOf",
                        "returnParams": [
                            {
                                "decimalAvailable": true,
                                "name": "",
                                "type": "uint256",
                                "value": "3,800,000,000,000,000,000,000"
                            }
                        ],
                        "signature": "balanceOf(address)"
                    },
                    "errorInfo": "",
                    "fromAddress": "0x13552c7cc9ce39af665955412faa08f0e6555a29",
                    "gasUsed": 664,
                    "id": 1,
                    "methodDecoded": true,
                    "operation": "CALL",
                    "output": "0x0000000000000000000000000000000000000000000000cdff97fabcb4600000",
                    "revert": false,
                    "revertMessage": "",
                    "selector": "0x70a08231",
                    "status": true,
                    "value": "0"
                },
                "nodeType": 0
            },
            "2": {
                "invocation": {
                    "address": "0xab4e1802c61e12fd7b10a69a226f5d727c76a8aa",
                    "callData": "0x0000000000000000000000005827d84f295d62f8f70b3cabfc93c80face51eb7000000000000000000000000000000000000000000000001a055690d9db80000",
                    "decodedMethod": {
                        "callParams": [
                            {
                                "name": "recipient",
                                "type": "address",
                                "value": "0x5827d84f295d62f8f70b3cabfc93c80face51eb7"
                            },
                            {
                                "decimalAvailable": true,
                                "name": "amount",
                                "type": "uint256",
                                "value": "30,000,000,000,000,000,000"
                            }
                        ],
                        "constructorArguments": "",
                        "name": "transfer",
                        "returnParams": [
                            {
                                "name": "",
                                "type": "bool",
                                "value": true
                            }
                        ],
                        "signature": "transfer(address,uint256)"
                    },
                    "errorInfo": "",
                    "fromAddress": "0x13552c7cc9ce39af665955412faa08f0e6555a29",
                    "gasUsed": 16431,
                    "id": 2,
                    "methodDecoded": true,
                    "operation": "CALL",
                    "output": "0x0000000000000000000000000000000000000000000000000000000000000001",
                    "revert": false,
                    "revertMessage": "",
                    "selector": "0xa9059cbb",
                    "status": true,
                    "value": "0"
                },
                "nodeType": 0
            },
            "3": {
                "event": {
                    "contract": "0xab4e1802c61e12fd7b10a69a226f5d727c76a8aa",
                    "decodedLog": {
                        "name": "Transfer",
                        "params": [
                            {
                                "name": "from",
                                "type": "address",
                                "value": "0x13552c7cc9ce39af665955412faa08f0e6555a29"
                            },
                            {
                                "name": "to",
                                "type": "address",
                                "value": "0x5827d84f295d62f8f70b3cabfc93c80face51eb7"
                            },
                            {
                                "decimalAvailable": true,
                                "name": "value",
                                "type": "uint256",
                                "value": "30,000,000,000,000,000,000"
                            }
                        ],
                        "signature": "Transfer(address,address,uint256)"
                    },
                    "id": 3,
                    "logData": "0x000000000000000000000000000000000000000000000001a055690d9db80000",
                    "logDecoded": true,
                    "operation": "EVENT",
                    "revert": false,
                    "status": true,
                    "topics": [
                        "0xddf252ad1be2c89b69c2b068fc378daa952ba7f163c4a11628f55a4df523b3ef",
                        "0x00000000000000000000000013552c7cc9ce39af665955412faa08f0e6555a29",
                        "0x0000000000000000000000005827d84f295d62f8f70b3cabfc93c80face51eb7"
                    ]
                },
                "nodeType": 1
            },
            "4": {
                "invocation": {
                    "address": "0xab4e1802c61e12fd7b10a69a226f5d727c76a8aa",
                    "callData": "0x00000000000000000000000013552c7cc9ce39af665955412faa08f0e6555a29",
                    "decodedMethod": {
                        "callParams": [
                            {
                                "name": "account",
                                "type": "address",
                                "value": "0x13552c7cc9ce39af665955412faa08f0e6555a29"
                            }
                        ],
                        "constructorArguments": "",
                        "name": "balanceOf",
                        "returnParams": [
                            {
                                "decimalAvailable": true,
                                "name": "",
                                "type": "uint256",
                                "value": "197,270,000,000,000,000,000,000"
                            }
                        ],
                        "signature": "balanceOf(address)"
                    },
                    "errorInfo": "",
                    "fromAddress": "0x13552c7cc9ce39af665955412faa08f0e6555a29",
                    "gasUsed": 664,
                    "id": 4,
                    "methodDecoded": true,
                    "operation": "CALL",
                    "output": "0x0000000000000000000000000000000000000000000029c607336abedc980000",
                    "revert": false,
                    "revertMessage": "",
                    "selector": "0x70a08231",
                    "status": true,
                    "value": "0"
                },
                "nodeType": 0
            }
        },
        "gasFlame": [
            {
                "children": [
                    {
                        "children": [
                            {
                                "children": [],
                                "depth": 0,
                                "name": "Initial Gas",
                                "value": 21528
                            },
                            {
                                "children": [
                                    {
                                        "children": [],
                                        "depth": 1,
                                        "name": "balanceOf",
                                        "value": 664
                                    },
                                    {
                                        "children": [],
                                        "depth": 1,
                                        "name": "transfer",
                                        "value": 16431
                                    },
                                    {
                                        "children": [],
                                        "depth": 1,
                                        "name": "balanceOf",
                                        "value": 664
                                    }
                                ],
                                "depth": 0,
                                "name": "Executed Gas",
                                "value": 229811
                            }
                        ],
                        "depth": -1,
                        "name": "Actual Gas Used",
                        "value": 221339
                    },
                    {
                        "children": [],
                        "depth": -1,
                        "name": "Refunded Gas",
                        "value": 30000
                    }
                ],
                "depth": -2,
                "name": "Total Gas",
                "value": 251339
            }
        ],
        "isConfirmed": true,
        "mainTrace": [
            {
                "children": [
                    {
                        "children": [
                            {
                                "children": [],
                                "depth": 1,
                                "id": 1,
                                "order": 1
                            },
                            {
                                "children": [
                                    {
                                        "children": [],
                                        "depth": 2,
                                        "id": 3,
                                        "order": 3
                                    }
                                ],
                                "depth": 1,
                                "id": 2,
                                "order": 2
                            },
                            {
                                "children": [],
                                "depth": 1,
                                "id": 4,
                                "order": 4
                            }
                        ],
                        "depth": 0,
                        "id": 0,
                        "order": 0
                    }
                ],
                "depth": -1,
                "id": -1,
                "order": -1
            }
        ],
        "mainTraceNodeCount": 5,
        "parentIdMap": {
            "0": -1,
            "1": 0,
            "2": 0,
            "3": 2,
            "4": 0
        },
        "tidyTrace": [
            {
                "children": [
                    {
                        "children": [
                            {
                                "children": [],
                                "depth": 1,
                                "id": 1,
                                "order": 1
                            },
                            {
                                "children": [
                                    {
                                        "children": [],
                                        "depth": 2,
                                        "id": 3,
                                        "order": 3
                                    }
                                ],
                                "depth": 1,
                                "id": 2,
                                "order": 2
                            },
                            {
                                "children": [],
                                "depth": 1,
                                "id": 4,
                                "order": 4
                            }
                        ],
                        "depth": 0,
                        "id": 0,
                        "order": 0
                    }
                ],
                "depth": -1,
                "id": -1,
                "order": -1
            }
        ],
        "tidyTraceNodeCount": 5
    },
    "state_change": {
        "stateChanges": [
            {
                "address": "0x13552c7cc9ce39af665955412faa08f0e6555a29",
                "erc": "",
                "slots": [
                    {
                        "current": "0x00000000000000000000000000000000000000000000cc2f8e1da58740400000",
                        "key": "0x0000000000000000000000000000000000000000000000000000000000000047",
                        "prev": "0x00000000000000000000000000000000000000000000cc2f03568282b6580000"
                    },
                    {
                        "current": "0x0000000000000000000000000000000000000000000000000000000000015b9a",
                        "key": "0xa2c9b1f3aeab0f83d855f71ceb7ade48f06a825d5c3a4895beaefe5df8d2a9ac",
                        "prev": "0x0000000000000000000000000000000000000000000000000000000000015b89"
                    },
                    {
                        "current": "0x0000000000000000000000000000000000000000000000bed1d0263d9f000000",
                        "key": "0x00aa52eabbfcc275efef4f8318b913873a3e1c1fee3005c76237d9a6d985ae11",
                        "prev": "0x0000000000000000000000000000000000000000000000b2e4b323d9c5100000"
                    },
                    {
                        "current": "0x00000000000000000000000000000000000000000000001158e460913d000000",
                        "key": "0x00aa52eabbfcc275efef4f8318b913873a3e1c1fee3005c76237d9a6d985ae14",
                        "prev": "0x00000000000000000000000000000000000000000000001043561a8829300000"
                    },
                    {
                        "current": "0x0000000000000000000000000000000000000000000000000000000000000000",
                        "key": "0x00aa52eabbfcc275efef4f8318b913873a3e1c1fee3005c76237d9a6d985ae12",
                        "prev": "0x000000000000000000000000000000000000000000000009c2007651b2500000"
                    },
                    {
                        "current": "0x0000000000000000000000000000000000000000000000000000000000015b80",
                        "key": "0xa2c9b1f3aeab0f83d855f71ceb7ade48f06a825d5c3a4895beaefe5df8d2a9a8",
                        "prev": "0x0000000000000000000000000000000000000000000000000000000000015b7c"
                    },
                    {
                        "current": "0x000000000000000000000000000000000000000000000000000000000000000e",
                        "key": "0x256535977c413034c2758a3ac5afda18a65a8ec60865ff609192e5823aef5a73",
                        "prev": "0x000000000000000000000000000000000000000000000000000000000000000d"
                    },
                    {
                        "current": "0x000000000000000000000000000000000000000000000000000000000001e07b",
                        "key": "0x0000000000000000000000000000000000000000000000000000000000000049",
                        "prev": "0x000000000000000000000000000000000000000000000000000000000001e07a"
                    },
                    {
                        "current": "0x0000000000000000000000000000000000000000000000000000000000015b88",
                        "key": "0xa2c9b1f3aeab0f83d855f71ceb7ade48f06a825d5c3a4895beaefe5df8d2a9aa",
                        "prev": "0x0000000000000000000000000000000000000000000000000000000000015b84"
                    },
                    {
                        "current": "0x00000000000000000000000000000000000000000013e1b1a513710a14200000",
                        "key": "0x0000000000000000000000000000000000000000000000000000000000000046",
                        "prev": "0x00000000000000000000000000000000000000000013e1a6cd84b4af4e000000"
                    },
                    {
                        "current": "0x00000000000000000000000000000000000000000000004be4e7267b6ae00000",
                        "key": "0x256535977c413034c2758a3ac5afda18a65a8ec60865ff609192e5823aef5a71",
                        "prev": "0x000000000000000000000000000000000000000000000056bc75e2d631000000"
                    },
                    {
                        "current": "0x000000000000000000000000000000000000000000000000000000000000000e",
                        "key": "0x256535977c413034c2758a3ac5afda18a65a8ec60865ff609192e5823aef5a6e",
                        "prev": "0x000000000000000000000000000000000000000000000000000000000000000d"
                    },
                    {
                        "current": "0x0000000000000000000000000000000000000000000000000000000000000007",
                        "key": "0x00aa52eabbfcc275efef4f8318b913873a3e1c1fee3005c76237d9a6d985ae0e",
                        "prev": "0x0000000000000000000000000000000000000000000000000000000000000008"
                    },
                    {
                        "current": "0x0000000000000000000000000000000000000000000000000000000000000000",
                        "key": "0xa2c9b1f3aeab0f83d855f71ceb7ade48f06a825d5c3a4895beaefe5df8d2a9af",
                        "prev": "0x0000000000000000000000000000000000000000000000000000000000017ff5"
                    },
                    {
                        "current": "0x0000000000000000000000000000000000000000000000068155a43676e00000",
                        "key": "0xd2e7b2b21b8dd59719519f2dbf27325d3aebc0c88906e7afc68c7c0650d946b6",
                        "prev": "0x0000000000000000000000000000000000000000000000000000000000000000"
                    },
                    {
                        "current": "0x000000000000000000000000000000000000000000000000000000005d79f03f",
                        "key": "0x0000000000000000000000000000000000000000000000000000000000000017",
                        "prev": "0x000000000000000000000000000000000000000000000000000000005d79e937"
                    },
                    {
                        "current": "0x0000000000000000000000000000000000000000000000000000000000017ff5",
                        "key": "0xa2c9b1f3aeab0f83d855f71ceb7ade48f06a825d5c3a4895beaefe5df8d2a9ae",
                        "prev": "0x0000000000000000000000000000000000000000000000000000000000017ff4"
                    },
                    {
                        "current": "0x000000000000000000000000000000000000000000000000000000000001e07b",
                        "key": "0x54ae8a5505a0c79b0a7b4573de5b6860f0069c1b6f9404030c6455267effa747",
                        "prev": "0x0000000000000000000000000000000000000000000000000000000000000000"
                    },
                    {
                        "current": "0x00000000000000000000000000000000000000000000000000000000000011e1",
                        "key": "0x58f1d5da529947ca8afbccb754550ea07991902ba296ac76afa3b8860cd84b88",
                        "prev": "0x0000000000000000000000000000000000000000000000000000000000000000"
                    },
                    {
                        "current": "0x0000000000000000000000000000000000000000000000000000000000015b84",
                        "key": "0xa2c9b1f3aeab0f83d855f71ceb7ade48f06a825d5c3a4895beaefe5df8d2a9a9",
                        "prev": "0x0000000000000000000000000000000000000000000000000000000000015b80"
                    },
                    {
                        "current": "0x0000000000000000000000000000000000000000000000000000000000015b7d",
                        "key": "0x000000000000000000000000000000000000000000000000000000000000004a",
                        "prev": "0x0000000000000000000000000000000000000000000000000000000000015b7c"
                    },
                    {
                        "current": "0x0000000000000000000000000000000000000000000000000000000000015b89",
                        "key": "0xa2c9b1f3aeab0f83d855f71ceb7ade48f06a825d5c3a4895beaefe5df8d2a9ab",
                        "prev": "0x0000000000000000000000000000000000000000000000000000000000015b88"
                    },
                    {
                        "current": "0x0000000000000000000000000000000000000000000000000000000000017ff4",
                        "key": "0xa2c9b1f3aeab0f83d855f71ceb7ade48f06a825d5c3a4895beaefe5df8d2a9ad",
                        "prev": "0x0000000000000000000000000000000000000000000000000000000000015b9a"
                    }
                ],
                "storageVariables": []
            },
            {
                "address": "0xab4e1802c61e12fd7b10a69a226f5d727c76a8aa",
                "erc": "",
                "slots": [
                    {
                        "current": "0x0000000000000000000000000000000000000000000029c607336abedc980000",
                        "key": "0x66d1ccafe1592b2f8765284d9842d469225cce373fa8cb0b42f3ed0c18800108",
                        "prev": "0x0000000000000000000000000000000000000000000029c7a788d3cc7a500000"
                    },
                    {
                        "current": "0x0000000000000000000000000000000000000000000014ad106d0e2b198c0008",
                        "key": "0xfcf4c2907b7a117d260e536a1d6a99d9cb945599255375906378c8ccef05beb2",
                        "prev": "0x0000000000000000000000000000000000000000000014ab7017a51d7bd40008"
                    }
                ],
                "storageVariables": []
            }
        ]
    }
}