{
    "balance_change": {
        "balanceChanges": [
            {
                "account": "0xa6a21fd96979ebd74f64bc988ac49c8d40b1d76f",
                "assets": [
                    {
                        "address": "0xdac17f958d2ee523a2206206994597c13d831ec7",
                        "amount": "1,976",
                        "iconUrl": "https://assets.blocksec.com/icon/fcea71f3193ce895be44bfdf941f7e4c9381dd587f273c2d1a27f1263d84e4ea.png",
                        "isERC1155": false,
                        "isERC721": false,
                        "sign": false,
                        "value": "1977.938713"
                    }
                ]
            },
            {
                "account": "0xe59cd29be3be4461d79c0881d238cbe87d64595a",
                "assets": [
                    {
                        "address": "0xdac17f958d2ee523a2206206994597c13d831ec7",
                        "amount": "1,976",
                        "iconUrl": "https://assets.blocksec.com/icon/fcea71f3193ce895be44bfdf941f7e4c9381dd587f273c2d1a27f1263d84e4ea.png",
                        "isERC1155": false,
                        "isERC721": false,
                        "sign": true,
                        "value": "1977.938713"
                    }
                ]
            }
        ]
    },
    "profile": {
        "basic_info": {
            "baseFee": "146.020220685",
            "blockNumber": 13558694,
            "callData": "0xa9059cbb000000000000000000000000e59cd29be3be4461d79c0881d238cbe87d64595a0000000000000000000000000000000000000000000000000000000075c75e00",
            "debugEnable": true,
            "errorInfo": "",
            "eventCount": 1,
            "feeRecipient": "0x1ad91ee08f21be3de0ba2ba6918e714da6b45836",
            "formatValue": "0",
            "gasLimit": 142171,
            "gasPrice": "151",
            "gasUsed": 41297,
            "intTxnCount": 0,
            "internalRevert": false,
            "internalRevertMessage": "",
            "isContractCreation": false,
            "isFlashloan": false,
            "maxFee": "",
            "nonce": 0,
            "overwritedBlockNumber": -1,
            "priorityFee": "",
            "receiver": "0xdac17f958d2ee523a2206206994597c13d831ec7",
            "revertMessage": "",
            "sender": "0xa6a21fd96979ebd74f64bc988ac49c8d40b1d76f",
            "simulationEnable": true,
            "sourceTxnHash": "0x94b59379b30d1f9b52a264d558a664584c58c62ce27cda92cee6e58ca7b68738",
            "status": true,
            "timestamp": "2021-11-05T20:19:19Z",
            "transactionFee": "0.006235847",
            "txnHash": "0x94b59379b30d1f9b52a264d558a664584c58c62ce27cda92cee6e58ca7b68738",
            "txnIndex": 131,
            "type": 0,
            "value": "0"
        },
        "fund_flow": [
            {
                "amount": "1,976",
                "from": "0xa6a21fd96979ebd74f64bc988ac49c8d40b1d76f",
                "id": 1,
                "isERC1155": false,
                "isERC721": false,
                "isReverted": false,
                "order": 1,
                "to": "0xe59cd29be3be4461d79c0881d238cbe87d64595a",
                "token": "0xdac17f958d2ee523a2206206994597c13d831ec7"
            }
        ],
        "token_infos": [
            {
                "address": "0xdac17f958d2ee523a2206206994597c13d831ec7",
                "decimals": 6
            },
            {
                "address": "0xeeeeeeeeeeeeeeeeeeeeeeeeeeeeeeeeeeeeeeee",
                "decimals": 18
            },
            {
                "address": "0xc02aaa39b223fe8d0a0e5c4f27ead9083c756cc2",
                "decimals": 18
            }
        ]
    },
    "address_label": {
        "labels": [
            {
                "address": "0x0000000000000000000000000000000000000002",
                "label": "Precompiled"
            },
            {
                "address": "0x0000000000000000000000000000000000000003",
                "label": "Precompiled"
            },
            {
                "address": "0x0000000000000000000000000000000000000004",
                "label": "Precompiled"
            },
            {
                "address": "0xeeeeeeeeeeeeeeeeeeeeeeeeeeeeeeeeeeeeeeee",
                "label": "Ether"
            },
            {
                "address": "0xdac17f958d2ee523a2206206994597c13d831ec7",
                "label": "Tether: USDT Stablecoin"
            },
            {
                "address": "0xe59cd29be3be4461d79c0881d238cbe87d64595a",
                "label": "Kucoin 7"
            },
            {
                "address": "0xa6a21fd96979ebd74f64bc988ac49c8d40b1d76f",
                "label": "KUCOIN"
            },
            {
                "address": "0x0000000000000000000000000000000000000001",
                "label": "Precompiled"
            }
        ]
    },
    "trace": {
        "accountLabels": null,
        "dataMap": {
            "-1": {
                "invocation": {
                    "address": "0xa6a21fd96979ebd74f64bc988ac49c8d40b1d76f",
                    "callData": "",
                    "decodedMethod": null,
                    "errorInfo": "",
                    "fromAddress": "",
                    "gasUsed": 0,
                    "id": -1,
                    "methodDecoded": false,
                    "operation": "",
                    "output": "",
                    "revert": false,
                    "revertMessage": "",
                    "selector": "",
                    "status": false,
                    "value": ""
                },
                "nodeType": 0
            },
            "0": {
                "invocation": {
                    "address": "0xdac17f958d2ee523a2206206994597c13d831ec7",
                    "callData": "0x000000000000000000000000e59cd29be3be4461d79c0881d238cbe87d64595a0000000000000000000000000000000000000000000000000000000075c75e00",
                    "decodedMethod": {
                        "callParams": [
                            {
                                "name": "_to",
                                "type": "address",
                                "value": "0xe59cd29be3be4461d79c0881d238cbe87d64595a"
                            },
                            {
                                "decimalAvailable": true,
                                "name": "_value",
                                "type": "uint256",
                                "value": "1,976,000,000"
                            }
                        ],
                        "constructorArguments": "",
                        "name": "transfer",
                        "returnParams": [],
                        "signature": "transfer(address,uint256)"
                    },
                    "errorInfo": "",
                    "fromAddress": "0xa6a21fd96979ebd74f64bc988ac49c8d40b1d76f",
                    "gasUsed": 41297,
                    "id": 0,
                    "methodDecoded": true,
                    "operation": "CALL",
                    "output": "",
                    "revert": false,
                    "revertMessage": "",
                    "selector": "0xa9059cbb",
                    "status": true,
                    "value": "0"
                },
                "nodeType": 0
            },
            "1": {
                "event": {
                    "contract": "0xdac17f958d2ee523a2206206994597c13d831ec7",
                    "decodedLog": {
                        "name": "Transfer",
                        "params": [
                            {
                                "name": "from",
                                "type": "address",
                                "value": "0xa6a21fd96979ebd74f64bc988ac49c8d40b1d76f"
                            },
                            {
                                "name": "to",
                                "type": "address",
                                "value": "0xe59cd29be3be4461d79c0881d238cbe87d64595a"
                            },
                            {
                                "decimalAvailable": true,
                                "name": "value",
                                "type": "uint256",
                                "value": "1,976,000,000"
                            }
                        ],
                        "signature": "Transfer(address,address,uint256)"
                    },
                    "id": 1,
                    "logData": "0x0000000000000000000000000000000000000000000000000000000075c75e00",
                    "logDecoded": true,
                    "operation": "EVENT",
                    "revert": false,
                    "status": true,
                    "topics": [
                        "0xddf252ad1be2c89b69c2b068fc378daa952ba7f163c4a11628f55a4df523b3ef",
                        "0x000000000000000000000000a6a21fd96979ebd74f64bc988ac49c8d40b1d76f",
                        "0x000000000000000000000000e59cd29be3be4461d79c0881d238cbe87d64595a"
                    ]
                },
                "nodeType": 1
            }
        },
        "gasFlame": [
            {
                "children": [
                    {
                        "children": [
                            {
                                "children": [],
                                "depth": 0,
                                "name": "Initial Gas",
                                "value": 21596
                            },
                            {
                                "children": [],
                                "depth": 0,
                                "name": "Executed Gas",
                                "value": 24501
                            }
                        ],
                        "depth": -1,
                        "name": "Actual Gas Used",
                        "value": 41297
                    },
                    {
                        "children": [],
                        "depth": -1,
                        "name": "Refunded Gas",
                        "value": 4800
                    }
                ],
                "depth": -2,
                "name": "Total Gas",
                "value": 46097
            }
        ],
        "isConfirmed": true,
        "mainTrace": [
            {
                "children": [
                    {
                        "children": [
                            {
                                "children": [],
                                "depth": 1,
                                "id": 1,
                                "order": 1
                            }
                        ],
                        "depth": 0,
                        "id": 0,
                        "order": 0
                    }
                ],
                "depth": -1,
                "id": -1,
                "order": -1
            }
        ],
        "mainTraceNodeCount": 2,
        "parentIdMap": {
            "0": -1,
            "1": 0
        },
        "tidyTrace": [
            {
                "children": [
                    {
                        "children": [
                            {
                                "children": [],
                                "depth": 1,
                                "id": 1,
                                "order": 1
                            }
                        ],
                        "depth": 0,
                        "id": 0,
                        "order": 0
                    }
                ],
                "depth": -1,
                "id": -1,
                "order": -1
            }
        ],
        "tidyTraceNodeCount": 2
    },
    "state_change": {
        "stateChanges": [
            {
                "address": "0xdac17f958d2ee523a2206206994597c13d831ec7",
                "erc": "ERC-20",
                "slots": [
                    {
                        "current": "0x0000000000000000000000000000000000000000000000000000000000000000",
                        "key": "0x132b9edcdb5feb026490f08d5bb6095b15ad7c1ef81dfb1a3b81c8f40b280111",
                        "prev": "0x0000000000000000000000000000000000000000000000000000000075c75e00"
                    },
                    {
                        "current": "0x00000000000000000000000000000000000000000000000000001e8e3e2ddc33",
                        "key": "0x80977597641ab7eadca6a188fa025fbfccbaf6dd9d6d6a7b250d1bd6e78b0cf1",
                        "prev": "0x00000000000000000000000000000000000000000000000000001e8dc8667e33"
                    }
                ],
                "storageVariables": [
                    {
                        "name": "balances",
                        "type": "mapping(address => uint256)",
                        "value": {
                            "pairs": [
                                {
                                    "key": "0xa6a21fd96979ebd74f64bc988ac49c8d40b1d76f",
                                    "value": {
                                        "current": "0",
                                        "prev": "1976000000",
                                        "typeTag": 1
                                    }
                                },
                                {
                                    "key": "0xe59cd29be3be4461d79c0881d238cbe87d64595a",
                                    "value": {
                                        "current": "33596277382195",
                                        "prev": "33594301382195",
                                        "typeTag": 1
                                    }
                                }
                            ],
                            "typeTag": 4
                        }
                    }
                ]
            }
        ]
    }
}