{
    "balance_change": {
        "balanceChanges": []
    },
    "profile": {
        "basic_info": {
            "baseFee": "",
            "blockNumber": 4105670,
            "callData": "0x0a19b14a000000000000000000000000000000000000000000000000000000000000000000000000000000000000000000000000000000000000000018fae27693b40000000000000000000000000000b97048628db6b661d4c2aa833e95dbe1a905b28000000000000000000000000000000000000000000000000d8d726b7177a8000000000000000000000000000000000000000000000000000000000000003ebfa8000000000000000000000000000000000000000000000000000000003e9d05b6000000000000000000000000f1384c34dc9c3e09d053ee8e56de552e6805fe4a000000000000000000000000000000000000000000000000000000000000001b97d0a3a8b3d7e11a2d48f19e7a21fd38e3b15b4c4090fb42058836e82ebc853d2c4e1bb90e5436f1022d0d481bd7c9c0dcbc77be1280b2e69ae0449d8e01d61b00000000000000000000000000000000000000000000000018fae27693b40000",
            "debugEnable": true,
            "errorInfo": "",
            "eventCount": 1,
            "feeRecipient": "0xea674fdde714fd979de3edf0f56aa9716b898ec8",
            "formatValue": "0",
            "gasLimit": 250000,
            "gasPrice": "4",
            "gasUsed": 78050,
            "intTxnCount": 2,
            "internalRevert": false,
            "internalRevertMessage": "",
            "isContractCreation": false,
            "isFlashloan": false,
            "maxFee": "",
            "nonce": 190,
            "overwritedBlockNumber": -1,
            "priorityFee": "",
            "receiver": "0x8d12a197cb00d4747a1fe03395095ce2a5cc6819",
            "revertMessage": "",
            "sender": "0x716adeed517c3238647cc1dbc2a2f62ee9a3cc7f",
            "simulationEnable": true,
            "sourceTxnHash": "0x94f5e6d9c1b77406af9d8efb2a0dc218e0ca408a03810394db6630c92433877a",
            "status": true,
            "timestamp": "2017-08-01T23:12:06Z",
            "transactionFee": "0.0003122",
            "txnHash": "0x94f5e6d9c1b77406af9d8efb2a0dc218e0ca408a03810394db6630c92433877a",
            "txnIndex": 79,
            "type": 0,
            "value": "0"
        },
        "fund_flow": [],
        "token_infos": [
            {
                "address": "0xc02aaa39b223fe8d0a0e5c4f27ead9083c756cc2",
                "decimals": 18
            },
            {
                "address": "0xeeeeeeeeeeeeeeeeeeeeeeeeeeeeeeeeeeeeeeee",
                "decimals": 18
            }
        ]
    },
    "address_label": {
        "labels": [
            {
                "address": "0xeeeeeeeeeeeeeeeeeeeeeeeeeeeeeeeeeeeeeeee",
                "label": "Ether"
            },
            {
                "address": "0x8d12a197cb00d4747a1fe03395095ce2a5cc6819",
                "label": "EtherDelta"
            },
            {
                "address": "0xb97048628db6b661d4c2aa833e95dbe1a905b280",
                "label": "TenX Token"
            },
            {
                "address": "0x0000000000000000000000000000000000000002",
                "label": "Precompiled"
            },
            {
                "address": "0x0000000000000000000000000000000000000000",
                "label": "Null Address"
            },
            {
                "address": "0x0000000000000000000000000000000000000001",
                "label": "Precompiled"
            },
            {
                "address": "0x0000000000000000000000000000000000000003",
                "label": "Precompiled"
            },
            {
                "address": "0x0000000000000000000000000000000000000004",
                "label": "Precompiled"
            }
        ]
    },
    "trace": {
        "accountLabels": null,
        "dataMap": {
            "-1": {
                "invocation": {
                    "address": "0x716adeed517c3238647cc1dbc2a2f62ee9a3cc7f",
                    "callData": "",
                    "decodedMethod": null,
                    "errorInfo": "",
                    "fromAddress": "",
                    "gasUsed": 0,
                    "id": -1,
                    "methodDecoded": false,
                    "operation": "",
                    "output": "",
                    "revert": false,
                    "revertMessage": "",
                    "selector": "",
                    "status": false,
                    "value": ""
                },
                "nodeType": 0
            },
            "0": {
                "invocation": {
                    "address": "0x8d12a197cb00d4747a1fe03395095ce2a5cc6819",
                    "callData": "0x000000000000000000000000000000000000000000000000000000000000000000000000000000000000000000000000000000000000000018fae27693b40000000000000000000000000000b97048628db6b661d4c2aa833e95dbe1a905b28000000000000000000000000000000000000000000000000d8d726b7177a8000000000000000000000000000000000000000000000000000000000000003ebfa8000000000000000000000000000000000000000000000000000000003e9d05b6000000000000000000000000f1384c34dc9c3e09d053ee8e56de552e6805fe4a000000000000000000000000000000000000000000000000000000000000001b97d0a3a8b3d7e11a2d48f19e7a21fd38e3b15b4c4090fb42058836e82ebc853d2c4e1bb90e5436f1022d0d481bd7c9c0dcbc77be1280b2e69ae0449d8e01d61b00000000000000000000000000000000000000000000000018fae27693b40000",
                    "decodedMethod": {
                        "callParams": [
                            {
                                "name": "tokenGet",
                                "type": "address",
                                "value": "0x0000000000000000000000000000000000000000"
                            },
                            {
                                "name": "amountGet",
                                "type": "uint256",
                                "value": "1,800,000,000,000,000,000"
                            },
                            {
                                "name": "tokenGive",
                                "type": "address",
                                "value": "0xb97048628db6b661d4c2aa833e95dbe1a905b280"
                            },
                            {
                                "name": "amountGive",
                                "type": "uint256",
                                "value": "250,000,000,000,000,000,000"
                            },
                            {
                                "name": "expires",
                                "type": "uint256",
                                "value": "4,112,296"
                            },
                            {
                                "name": "nonce",
                                "type": "uint256",
                                "value": "1,050,478,006"
                            },
                            {
                                "name": "user",
                                "type": "address",
                                "value": "0xf1384c34dc9c3e09d053ee8e56de552e6805fe4a"
                            },
                            {
                                "name": "v",
                                "type": "uint8",
                                "value": "27"
                            },
                            {
                                "name": "r",
                                "type": "bytes32",
                                "value": "0x97d0a3a8b3d7e11a2d48f19e7a21fd38e3b15b4c4090fb42058836e82ebc853d"
                            },
                            {
                                "name": "s",
                                "type": "bytes32",
                                "value": "0x2c4e1bb90e5436f1022d0d481bd7c9c0dcbc77be1280b2e69ae0449d8e01d61b"
                            },
                            {
                                "name": "amount",
                                "type": "uint256",
                                "value": "1,800,000,000,000,000,000"
                            }
                        ],
                        "constructorArguments": "",
                        "name": "trade",
                        "returnParams": [],
                        "signature": "trade(address,uint256,address,uint256,uint256,uint256,address,uint8,bytes32,bytes32,uint256)"
                    },
                    "errorInfo": "",
                    "fromAddress": "0x716adeed517c3238647cc1dbc2a2f62ee9a3cc7f",
                    "gasUsed": 78050,
                    "id": 0,
                    "methodDecoded": true,
                    "operation": "CALL",
                    "output": "",
                    "revert": false,
                    "revertMessage": "",
                    "selector": "0x0a19b14a",
                    "status": true,
                    "value": "0"
                },
                "nodeType": 0
            },
            "1": {
                "invocation": {
                    "address": "0x0000000000000000000000000000000000000002",
                    "callData": "0xcb00d4747a1fe03395095ce2a5cc6819000000000000000000000000000000000000000000000000000000000000000000000000000000000000000018fae27693b40000b97048628db6b661d4c2aa833e95dbe1a905b28000000000000000000000000000000000000000000000000d8d726b7177a8000000000000000000000000000000000000000000000000000000000000003ebfa8000000000000000000000000000000000000000000000000000000003e9d05b6",
                    "decodedMethod": {
                        "callParams": [
                            {
                                "name": "data",
                                "type": "bytes",
                                "value": "0x8d12a197cb00d4747a1fe03395095ce2a5cc6819000000000000000000000000000000000000000000000000000000000000000000000000000000000000000018fae27693b40000b97048628db6b661d4c2aa833e95dbe1a905b28000000000000000000000000000000000000000000000000d8d726b7177a8000000000000000000000000000000000000000000000000000000000000003ebfa8000000000000000000000000000000000000000000000000000000003e9d05b6"
                            }
                        ],
                        "constructorArguments": "",
                        "name": "sha256hash",
                        "returnParams": [
                            {
                                "name": "hash",
                                "type": "bytes32",
                                "value": "0x0534f362d992fd42d9eb22b3a200857e67f5dbdefb28cc19d38c954341f17cf6"
                            }
                        ],
                        "signature": "sha256hash(bytes)"
                    },
                    "errorInfo": "",
                    "fromAddress": "0x8d12a197cb00d4747a1fe03395095ce2a5cc6819",
                    "gasUsed": 132,
                    "id": 1,
                    "methodDecoded": true,
                    "operation": "CALL",
                    "output": "0x0534f362d992fd42d9eb22b3a200857e67f5dbdefb28cc19d38c954341f17cf6",
                    "revert": false,
                    "revertMessage": "",
                    "selector": "0x8d12a197",
                    "status": true,
                    "value": "0"
                },
                "nodeType": 0
            },
            "2": {
                "invocation": {
                    "address": "0x0000000000000000000000000000000000000001",
                    "callData": "0x12e087bc24b79175ca2d977e278eeee05ebe9c06a721ed51574a74c4000000000000000000000000000000000000000000000000000000000000001b97d0a3a8b3d7e11a2d48f19e7a21fd38e3b15b4c4090fb42058836e82ebc853d2c4e1bb90e5436f1022d0d481bd7c9c0dcbc77be1280b2e69ae0449d8e01d61b",
                    "decodedMethod": {
                        "callParams": [
                            {
                                "name": "hash",
                                "type": "bytes32",
                                "value": "0x92a6ebac12e087bc24b79175ca2d977e278eeee05ebe9c06a721ed51574a74c4"
                            },
                            {
                                "name": "v",
                                "type": "uint256",
                                "value": "27"
                            },
                            {
                                "name": "r",
                                "type": "bytes32",
                                "value": "0x97d0a3a8b3d7e11a2d48f19e7a21fd38e3b15b4c4090fb42058836e82ebc853d"
                            },
                            {
                                "name": "s",
                                "type": "bytes32",
                                "value": "0x2c4e1bb90e5436f1022d0d481bd7c9c0dcbc77be1280b2e69ae0449d8e01d61b"
                            }
                        ],
                        "constructorArguments": "",
                        "name": "ecrecover",
                        "returnParams": [
                            {
                                "name": "",
                                "type": "address",
                                "value": "0xf1384c34dc9c3e09d053ee8e56de552e6805fe4a"
                            }
                        ],
                        "signature": "ecrecover(bytes32,uint256,bytes32,bytes32)"
                    },
                    "errorInfo": "",
                    "fromAddress": "0x8d12a197cb00d4747a1fe03395095ce2a5cc6819",
                    "gasUsed": 3000,
                    "id": 2,
                    "methodDecoded": true,
                    "operation": "CALL",
                    "output": "0x000000000000000000000000f1384c34dc9c3e09d053ee8e56de552e6805fe4a",
                    "revert": false,
                    "revertMessage": "",
                    "selector": "0x92a6ebac",
                    "status": true,
                    "value": "0"
                },
                "nodeType": 0
            },
            "3": {
                "event": {
                    "contract": "0x8d12a197cb00d4747a1fe03395095ce2a5cc6819",
                    "decodedLog": {
                        "name": "Trade",
                        "params": [
                            {
                                "name": "tokenGet",
                                "type": "address",
                                "value": "0x0000000000000000000000000000000000000000"
                            },
                            {
                                "name": "amountGet",
                                "type": "uint256",
                                "value": "1,800,000,000,000,000,000"
                            },
                            {
                                "name": "tokenGive",
                                "type": "address",
                                "value": "0xb97048628db6b661d4c2aa833e95dbe1a905b280"
                            },
                            {
                                "name": "amountGive",
                                "type": "uint256",
                                "value": "250,000,000,000,000,000,000"
                            },
                            {
                                "name": "get",
                                "type": "address",
                                "value": "0xf1384c34dc9c3e09d053ee8e56de552e6805fe4a"
                            },
                            {
                                "name": "give",
                                "type": "address",
                                "value": "0x716adeed517c3238647cc1dbc2a2f62ee9a3cc7f"
                            }
                        ],
                        "signature": "Trade(address,uint256,address,uint256,address,address)"
                    },
                    "id": 3,
                    "logData": "0x000000000000000000000000000000000000000000000000000000000000000000000000000000000000000000000000000000000000000018fae27693b40000000000000000000000000000b97048628db6b661d4c2aa833e95dbe1a905b28000000000000000000000000000000000000000000000000d8d726b7177a80000000000000000000000000000f1384c34dc9c3e09d053ee8e56de552e6805fe4a000000000000000000000000716adeed517c3238647cc1dbc2a2f62ee9a3cc7f",
                    "logDecoded": true,
                    "operation": "EVENT",
                    "revert": false,
                    "status": true,
                    "topics": [
                        "0x6effdda786735d5033bfad5f53e5131abcced9e52be6c507b62d639685fbed6d"
                    ]
                },
                "nodeType": 1
            }
        },
        "gasFlame": [
            {
                "children": [
                    {
                        "children": [
                            {
                                "children": [],
                                "depth": 0,
                                "name": "Initial Gas",
                                "value": 31064
                            },
                            {
                                "children": [
                                    {
                                        "children": [],
                                        "depth": 1,
                                        "name": "sha256hash",
                                        "value": 132
                                    },
                                    {
                                        "children": [],
                                        "depth": 1,
                                        "name": "ecrecover",
                                        "value": 3000
                                    }
                                ],
                                "depth": 0,
                                "name": "Executed Gas",
                                "value": 61986
                            }
                        ],
                        "depth": -1,
                        "name": "Actual Gas Used",
                        "value": 78050
                    },
                    {
                        "children": [],
                        "depth": -1,
                        "name": "Refunded Gas",
                        "value": 15000
                    }
                ],
                "depth": -2,
                "name": "Total Gas",
                "value": 93050
            }
        ],
        "isConfirmed": true,
        "mainTrace": [
            {
                "children": [
                    {
                        "children": [
                            {
                                "children": [],
                                "depth": 1,
                                "id": 1,
                                "order": 1
                            },
                            {
                                "children": [],
                                "depth": 1,
                                "id": 2,
                                "order": 2
                            },
                            {
                                "children": [],
                                "depth": 1,
                                "id": 3,
                                "order": 3
                            }
                        ],
                        "depth": 0,
                        "id": 0,
                        "order": 0
                    }
                ],
                "depth": -1,
                "id": -1,
                "order": -1
            }
        ],
        "mainTraceNodeCount": 4,
        "parentIdMap": {
            "0": -1,
            "1": 0,
            "2": 0,
            "3": 0
        },
        "tidyTrace": [
            {
                "children": [
                    {
                        "children": [
                            {
                                "children": [],
                                "depth": 1,
                                "id": 1,
                                "order": 1
                            },
                            {
                                "children": [],
                                "depth": 1,
                                "id": 2,
                                "order": 2
                            },
                            {
                                "children": [],
                                "depth": 1,
                                "id": 3,
                                "order": 3
                            }
                        ],
                        "depth": 0,
                        "id": 0,
                        "order": 0
                    }
                ],
                "depth": -1,
                "id": -1,
                "order": -1
            }
        ],
        "tidyTraceNodeCount": 4
    },
    "state_change": {
        "stateChanges": [
            {
                "address": "0x8d12a197cb00d4747a1fe03395095ce2a5cc6819",
                "erc": "",
                "slots": [
                    {
                        "current": "0x000000000000000000000000000000000000000000000000193fda077267c801",
                        "key": "0x56da63a3dad114168750e050e8919d5827a5977eac57e68f79233c13ca775c90",
                        "prev": "0x0000000000000000000000000000000000000000000000000044f790deb3c801"
                    },
                    {
                        "current": "0x000000000000000000000000000000000000000000000059a3b2ad93ff80319d",
                        "key": "0x9db71ea29ae27159ae6b0bc7608a91ca5e83d8e7e559f64559591e0344fb950e",
                        "prev": "0x000000000000000000000000000000000000000000000059a39f7e4e85b6b19d"
                    },
                    {
                        "current": "0x0000000000000000000000000000000000000000000000000000000000000000",
                        "key": "0x52682bde533d8c012da26bfb59295a8ab33b8bbe58dad079be008b9058af93ba",
                        "prev": "0x00000000000000000000000000000000000000000000000d8d726b7177a80000"
                    },
                    {
                        "current": "0x00000000000000000000000000000000000000000000000f5769f89a0b8c0000",
                        "key": "0x10a4c7c29f010996c4b5c26b74fa892f8ee432fb0253ce160432606e1fd26552",
                        "prev": "0x000000000000000000000000000000000000000000000001c9f78d2893e40000"
                    },
                    {
                        "current": "0x00000000000000000000000000000000000000000000000018fae27693b40000",
                        "key": "0xefecfbdcf46b4b36376292a4acc84f47a9557845fb428a637a5a5ae59f5fe946",
                        "prev": "0x0000000000000000000000000000000000000000000000000000000000000000"
                    },
                    {
                        "current": "0x000000000000000000000000000000000000000000000002296d49de0f8fe791",
                        "key": "0xa1c1fd865b25144c8af3354bbf4e68813dfaaa1256561c1adc3259e35dc7276b",
                        "prev": "0x000000000000000000000000000000000000000000000002427b5b9a1d0d6791"
                    }
                ],
                "storageVariables": []
            }
        ]
    }
}