{
    "balance_change": {
        "balanceChanges": [
            {
                "account": "0x69189716420ffcc0ca2e4f9869433389df331f9c",
                "assets": [
                    {
                        "address": "0xf19eac69f9566f0b40660bd0cc16234330f38456",
                        "amount": "5.60611394115632947",
                        "iconUrl": "",
                        "isERC1155": false,
                        "isERC721": false,
                        "sign": false,
                        "value": ""
                    }
                ]
            },
            {
                "account": "0xd6f74e8327caed8e47efa3b56f50613d646ff539",
                "assets": [
                    {
                        "address": "0xf19eac69f9566f0b40660bd0cc16234330f38456",
                        "amount": "5.60611394115632947",
                        "iconUrl": "",
                        "isERC1155": false,
                        "isERC721": false,
                        "sign": true,
                        "value": ""
                    }
                ]
            }
        ]
    },
    "profile": {
        "basic_info": {
            "baseFee": "",
            "blockNumber": 6825032,
            "callData": "0xa9059cbb000000000000000000000000d6f74e8327caed8e47efa3b56f50613d646ff5390000000000000000000000000000000000000000000000004dcceaed50fcf7fe",
            "debugEnable": true,
            "errorInfo": "",
            "eventCount": 1,
            "feeRecipient": "0x5a0b54d5dc17e0aadc383d2db43b0a0d3e029c4c",
            "formatValue": "0",
            "gasLimit": 177770,
            "gasPrice": "7",
            "gasUsed": 131609,
            "intTxnCount": 0,
            "internalRevert": false,
            "internalRevertMessage": "",
            "isContractCreation": false,
            "isFlashloan": false,
            "maxFee": "",
            "nonce": 29425,
            "overwritedBlockNumber": -1,
            "priorityFee": "",
            "receiver": "0xf19eac69f9566f0b40660bd0cc16234330f38456",
            "revertMessage": "",
            "sender": "0x69189716420ffcc0ca2e4f9869433389df331f9c",
            "simulationEnable": true,
            "sourceTxnHash": "0x947e22be0311711f1537bb3f091fd72f2438f91eec76322fe3e7120868aa4681",
            "status": true,
            "timestamp": "2018-12-04T14:23:14Z",
            "transactionFee": "0.000921263",
            "txnHash": "0x947e22be0311711f1537bb3f091fd72f2438f91eec76322fe3e7120868aa4681",
            "txnIndex": 29,
            "type": 0,
            "value": "0"
        },
        "fund_flow": [
            {
                "amount": "5.60611394115632947",
                "from": "0x69189716420ffcc0ca2e4f9869433389df331f9c",
                "id": 1,
                "isERC1155": false,
                "isERC721": false,
                "isReverted": false,
                "order": 1,
                "to": "0xd6f74e8327caed8e47efa3b56f50613d646ff539",
                "token": "0xf19eac69f9566f0b40660bd0cc16234330f38456"
            }
        ],
        "token_infos": [
            {
                "address": "0xc02aaa39b223fe8d0a0e5c4f27ead9083c756cc2",
                "decimals": 18
            },
            {
                "address": "0xf19eac69f9566f0b40660bd0cc16234330f38456",
                "decimals": 18
            },
            {
                "address": "0xeeeeeeeeeeeeeeeeeeeeeeeeeeeeeeeeeeeeeeee",
                "decimals": 18
            }
        ]
    },
    "address_label": {
        "labels": [
            {
                "address": "0xeeeeeeeeeeeeeeeeeeeeeeeeeeeeeeeeeeeeeeee",
                "label": "Ether"
            },
            {
                "address": "0xf19eac69f9566f0b40660bd0cc16234330f38456",
                "label": "CraftR: Old Token"
            },
            {
                "address": "0x0000000000000000000000000000000000000001",
                "label": "Precompiled"
            },
            {
                "address": "0x0000000000000000000000000000000000000002",
                "label": "Precompiled"
            },
            {
                "address": "0x0000000000000000000000000000000000000003",
                "label": "Precompiled"
            },
            {
                "address": "0x0000000000000000000000000000000000000004",
                "label": "Precompiled"
            }
        ]
    },
    "trace": {
        "accountLabels": null,
        "dataMap": {
            "-1": {
                "invocation": {
                    "address": "0x69189716420ffcc0ca2e4f9869433389df331f9c",
                    "callData": "",
                    "decodedMethod": null,
                    "errorInfo": "",
                    "fromAddress": "",
                    "gasUsed": 0,
                    "id": -1,
                    "methodDecoded": false,
                    "operation": "",
                    "output": "",
                    "revert": false,
                    "revertMessage": "",
                    "selector": "",
                    "status": false,
                    "value": ""
                },
                "nodeType": 0
            },
            "0": {
                "invocation": {
                    "address": "0xf19eac69f9566f0b40660bd0cc16234330f38456",
                    "callData": "0x000000000000000000000000d6f74e8327caed8e47efa3b56f50613d646ff5390000000000000000000000000000000000000000000000004dcceaed50fcf7fe",
                    "decodedMethod": {
                        "callParams": [
                            {
                                "name": "_to",
                                "type": "address",
                                "value": "0xd6f74e8327caed8e47efa3b56f50613d646ff539"
                            },
                            {
                                "decimalAvailable": true,
                                "name": "_value",
                                "type": "uint256",
                                "value": "5,606,113,941,156,329,470"
                            }
                        ],
                        "constructorArguments": "",
                        "name": "transfer",
                        "returnParams": [
                            {
                                "name": "",
                                "type": "bool",
                                "value": true
                            }
                        ],
                        "signature": "transfer(address,uint256)"
                    },
                    "errorInfo": "",
                    "fromAddress": "0x69189716420ffcc0ca2e4f9869433389df331f9c",
                    "gasUsed": 131609,
                    "id": 0,
                    "methodDecoded": true,
                    "operation": "CALL",
                    "output": "0x0000000000000000000000000000000000000000000000000000000000000001",
                    "revert": false,
                    "revertMessage": "",
                    "selector": "0xa9059cbb",
                    "status": true,
                    "value": "0"
                },
                "nodeType": 0
            },
            "1": {
                "event": {
                    "contract": "0xf19eac69f9566f0b40660bd0cc16234330f38456",
                    "decodedLog": {
                        "name": "Transfer",
                        "params": [
                            {
                                "name": "from",
                                "type": "address",
                                "value": "0x69189716420ffcc0ca2e4f9869433389df331f9c"
                            },
                            {
                                "name": "to",
                                "type": "address",
                                "value": "0xd6f74e8327caed8e47efa3b56f50613d646ff539"
                            },
                            {
                                "decimalAvailable": true,
                                "name": "value",
                                "type": "uint256",
                                "value": "5,606,113,941,156,329,470"
                            }
                        ],
                        "signature": "Transfer(address,address,uint256)"
                    },
                    "id": 1,
                    "logData": "0x0000000000000000000000000000000000000000000000004dcceaed50fcf7fe",
                    "logDecoded": true,
                    "operation": "EVENT",
                    "revert": false,
                    "status": true,
                    "topics": [
                        "0xddf252ad1be2c89b69c2b068fc378daa952ba7f163c4a11628f55a4df523b3ef",
                        "0x00000000000000000000000069189716420ffcc0ca2e4f9869433389df331f9c",
                        "0x000000000000000000000000d6f74e8327caed8e47efa3b56f50613d646ff539"
                    ]
                },
                "nodeType": 1
            }
        },
        "gasFlame": [
            {
                "children": [
                    {
                        "children": [
                            {
                                "children": [],
                                "depth": 0,
                                "name": "Initial Gas",
                                "value": 23320
                            },
                            {
                                "children": [],
                                "depth": 0,
                                "name": "Executed Gas",
                                "value": 138289
                            }
                        ],
                        "depth": -1,
                        "name": "Actual Gas Used",
                        "value": 131609
                    },
                    {
                        "children": [],
                        "depth": -1,
                        "name": "Refunded Gas",
                        "value": 30000
                    }
                ],
                "depth": -2,
                "name": "Total Gas",
                "value": 161609
            }
        ],
        "isConfirmed": true,
        "mainTrace": [
            {
                "children": [
                    {
                        "children": [
                            {
                                "children": [],
                                "depth": 1,
                                "id": 1,
                                "order": 1
                            }
                        ],
                        "depth": 0,
                        "id": 0,
                        "order": 0
                    }
                ],
                "depth": -1,
                "id": -1,
                "order": -1
            }
        ],
        "mainTraceNodeCount": 2,
        "parentIdMap": {
            "0": -1,
            "1": 0
        },
        "tidyTrace": [
            {
                "children": [
                    {
                        "children": [
                            {
                                "children": [],
                                "depth": 1,
                                "id": 1,
                                "order": 1
                            }
                        ],
                        "depth": 0,
                        "id": 0,
                        "order": 0
                    }
                ],
                "depth": -1,
                "id": -1,
                "order": -1
            }
        ],
        "tidyTraceNodeCount": 2
    },
    "state_change": {
        "stateChanges": [
            {
                "address": "0xf19eac69f9566f0b40660bd0cc16234330f38456",
                "erc": "ERC-20",
                "slots": [
                    {
                        "current": "0x0000000000000000000000000000000000000000000000004dcceaed50fcf7fe",
                        "key": "0xb105127b9b1e7a1877e1df22870746223b5ab4d3339c8c177a9007d21177da23",
                        "prev": "0x0000000000000000000000000000000000000000000000000000000000000000"
                    },
                    {
                        "current": "0x0000000000000000000000005c068dd20000000000011ce7caace95895f5c27e",
                        "key": "0x63f29180995b74f94c0b1a18a1eac0abdd0715090dd7e667f14e10b5783c40b9",
                        "prev": "0x0000000000000000000000005c068dd20000000000011ce81879d445e6f2ba7c"
                    },
                    {
                        "current": "0x0000000000000000000000000000000000000000000000000000000000000001",
                        "key": "0xfb96dccae564fba163a31db4f3972850968692a6fc6b0ce047ad332ba1fb7d76",
                        "prev": "0x0000000000000000000000000000000000000000000000000000000000000000"
                    },
                    {
                        "current": "0x0000000000000000000000005c068dd200000000000000004dcceaed50fcf7fe",
                        "key": "0xc962db8e14fb2a1e54e359cf66eb1536d323038ffb7dd614c6ccb65c77a27fd3",
                        "prev": "0x0000000000000000000000000000000000000000000000000000000000000000"
                    },
                    {
                        "current": "0x000000000000000000000000000000000000000000011ce7caace95895f5c27e",
                        "key": "0x33cfb813b355e1f7f6c69dfb310494ce8de06e277f6dc01184838d1e8fb9138c",
                        "prev": "0x000000000000000000000000000000000000000000011ce81879d445e6f2ba7c"
                    }
                ],
                "storageVariables": [
                    {
                        "name": "balances",
                        "type": "mapping(address => uint256)",
                        "value": {
                            "pairs": [
                                {
                                    "key": "0x69189716420ffcc0ca2e4f9869433389df331f9c",
                                    "value": {
                                        "current": "1345427883320264485094014",
                                        "prev": "1345433489434205641423484",
                                        "typeTag": 1
                                    }
                                },
                                {
                                    "key": "0xd6f74e8327caed8e47efa3b56f50613d646ff539",
                                    "value": {
                                        "current": "5606113941156329470",
                                        "prev": "0",
                                        "typeTag": 1
                                    }
                                }
                            ],
                            "typeTag": 4
                        }
                    },
                    {
                        "name": "transferIns",
                        "type": "mapping(address => struct CraftR.transferInStruct[])",
                        "value": {
                            "pairs": [
                                {
                                    "key": "0x69189716420ffcc0ca2e4f9869433389df331f9c",
                                    "value": {
                                        "elemType": "struct CraftR.transferInStruct",
                                        "elems": [
                                            {
                                                "index": 0,
                                                "value": {
                                                    "fields": [
                                                        {
                                                            "name": "amount",
                                                            "type": "uint128",
                                                            "value": {
                                                                "current": "1345427883320264485094014",
                                                                "prev": "1345433489434205641423484",
                                                                "typeTag": 1
                                                            }
                                                        },
                                                        {
                                                            "name": "time",
                                                            "type": "uint64",
                                                            "value": {
                                                                "current": "1543933394",
                                                                "prev": "1543933394",
                                                                "typeTag": 1
                                                            }
                                                        }
                                                    ],
                                                    "typeTag": 3
                                                }
                                            }
                                        ],
                                        "typeTag": 2
                                    }
                                },
                                {
                                    "key": "0xd6f74e8327caed8e47efa3b56f50613d646ff539",
                                    "value": {
                                        "elemType": "struct CraftR.transferInStruct",
                                        "elems": [
                                            {
                                                "index": 0,
                                                "value": {
                                                    "fields": [
                                                        {
                                                            "name": "amount",
                                                            "type": "uint128",
                                                            "value": {
                                                                "current": "5606113941156329470",
                                                                "prev": "0",
                                                                "typeTag": 1
                                                            }
                                                        },
                                                        {
                                                            "name": "time",
                                                            "type": "uint64",
                                                            "value": {
                                                                "current": "1543933394",
                                                                "prev": "0",
                                                                "typeTag": 1
                                                            }
                                                        }
                                                    ],
                                                    "typeTag": 3
                                                }
                                            }
                                        ],
                                        "typeTag": 2
                                    }
                                }
                            ],
                            "typeTag": 4
                        }
                    }
                ]
            }
        ]
    }
}