{
    "balance_change": {
        "balanceChanges": [
            {
                "account": "0xffd13f0b0a2fbdc559189a3d15c244cb0e3fef2a",
                "assets": [
                    {
                        "address": "0xbb9bc244d798123fde783fcc1c72d3bb8c189413",
                        "amount": "1,000,000,000,000,000,000",
                        "iconUrl": "",
                        "isERC1155": false,
                        "isERC721": false,
                        "sign": false,
                        "value": ""
                    }
                ]
            },
            {
                "account": "0x5d5ea3a0be4383d6274394a1d7d697f1c1826ceb",
                "assets": [
                    {
                        "address": "0xbb9bc244d798123fde783fcc1c72d3bb8c189413",
                        "amount": "1,000,000,000,000,000,000",
                        "iconUrl": "",
                        "isERC1155": false,
                        "isERC721": false,
                        "sign": true,
                        "value": ""
                    }
                ]
            }
        ]
    },
    "profile": {
        "basic_info": {
            "baseFee": "",
            "blockNumber": 1720563,
            "callData": "0xa9059cbb0000000000000000000000005d5ea3a0be4383d6274394a1d7d697f1c1826ceb0000000000000000000000000000000000000000000000008ac7230489e80000",
            "debugEnable": true,
            "errorInfo": "",
            "eventCount": 1,
            "feeRecipient": "0xea674fdde714fd979de3edf0f56aa9716b898ec8",
            "formatValue": "0",
            "gasLimit": 177714,
            "gasPrice": "35.248785366",
            "gasUsed": 77714,
            "intTxnCount": 0,
            "internalRevert": false,
            "internalRevertMessage": "",
            "isContractCreation": false,
            "isFlashloan": false,
            "maxFee": "",
            "nonce": 12,
            "overwritedBlockNumber": -1,
            "priorityFee": "",
            "receiver": "0xbb9bc244d798123fde783fcc1c72d3bb8c189413",
            "revertMessage": "",
            "sender": "0xffd13f0b0a2fbdc559189a3d15c244cb0e3fef2a",
            "simulationEnable": true,
            "sourceTxnHash": "0x9468483c6c454445f4709cd8f1129a88a0e8ad8b85c4799640a94ccf790d9b91",
            "status": true,
            "timestamp": "2016-06-17T12:22:17Z",
            "transactionFee": "0.002739324105933324",
            "txnHash": "0x9468483c6c454445f4709cd8f1129a88a0e8ad8b85c4799640a94ccf790d9b91",
            "txnIndex": 2,
            "type": 0,
            "value": "0"
        },
        "fund_flow": [
            {
                "amount": "1,000,000,000,000,000,000",
                "from": "0xffd13f0b0a2fbdc559189a3d15c244cb0e3fef2a",
                "id": 1,
                "isERC1155": false,
                "isERC721": false,
                "isReverted": false,
                "order": 1,
                "to": "0x5d5ea3a0be4383d6274394a1d7d697f1c1826ceb",
                "token": "0xbb9bc244d798123fde783fcc1c72d3bb8c189413"
            }
        ],
        "token_infos": [
            {
                "address": "0xeeeeeeeeeeeeeeeeeeeeeeeeeeeeeeeeeeeeeeee",
                "decimals": 18
            },
            {
                "address": "0xbb9bc244d798123fde783fcc1c72d3bb8c189413",
                "decimals": 1
            },
            {
                "address": "0xc02aaa39b223fe8d0a0e5c4f27ead9083c756cc2",
                "decimals": 18
            }
        ]
    },
    "address_label": {
        "labels": [
            {
                "address": "0x0000000000000000000000000000000000000003",
                "label": "Precompiled"
            },
            {
                "address": "0x0000000000000000000000000000000000000004",
                "label": "Precompiled"
            },
            {
                "address": "0xeeeeeeeeeeeeeeeeeeeeeeeeeeeeeeeeeeeeeeee",
                "label": "Ether"
            },
            {
                "address": "0xbb9bc244d798123fde783fcc1c72d3bb8c189413",
                "label": "TheDAO Token"
            },
            {
                "address": "0x0000000000000000000000000000000000000001",
                "label": "Precompiled"
            },
            {
                "address": "0x0000000000000000000000000000000000000002",
                "label": "Precompiled"
            }
        ]
    },
    "trace": {
        "accountLabels": null,
        "dataMap": {
            "-1": {
                "invocation": {
                    "address": "0xffd13f0b0a2fbdc559189a3d15c244cb0e3fef2a",
                    "callData": "",
                    "decodedMethod": null,
                    "errorInfo": "",
                    "fromAddress": "",
                    "gasUsed": 0,
                    "id": -1,
                    "methodDecoded": false,
                    "operation": "",
                    "output": "",
                    "revert": false,
                    "revertMessage": "",
                    "selector": "",
                    "status": false,
                    "value": ""
                },
                "nodeType": 0
            },
            "0": {
                "invocation": {
                    "address": "0xbb9bc244d798123fde783fcc1c72d3bb8c189413",
                    "callData": "0x0000000000000000000000005d5ea3a0be4383d6274394a1d7d697f1c1826ceb0000000000000000000000000000000000000000000000008ac7230489e80000",
                    "decodedMethod": {
                        "callParams": [
                            {
                                "name": "_to",
                                "type": "address",
                                "value": "0x5d5ea3a0be4383d6274394a1d7d697f1c1826ceb"
                            },
                            {
                                "decimalAvailable": true,
                                "name": "_value",
                                "type": "uint256",
                                "value": "10,000,000,000,000,000,000"
                            }
                        ],
                        "constructorArguments": "",
                        "name": "transfer",
                        "returnParams": [
                            {
                                "name": "success",
                                "type": "bool",
                                "value": true
                            }
                        ],
                        "signature": "transfer(address,uint256)"
                    },
                    "errorInfo": "",
                    "fromAddress": "0xffd13f0b0a2fbdc559189a3d15c244cb0e3fef2a",
                    "gasUsed": 77714,
                    "id": 0,
                    "methodDecoded": true,
                    "operation": "CALL",
                    "output": "0x0000000000000000000000000000000000000000000000000000000000000001",
                    "revert": false,
                    "revertMessage": "",
                    "selector": "0xa9059cbb",
                    "status": true,
                    "value": "0"
                },
                "nodeType": 0
            },
            "1": {
                "event": {
                    "contract": "0xbb9bc244d798123fde783fcc1c72d3bb8c189413",
                    "decodedLog": {
                        "name": "Transfer",
                        "params": [
                            {
                                "name": "_from",
                                "type": "address",
                                "value": "0xffd13f0b0a2fbdc559189a3d15c244cb0e3fef2a"
                            },
                            {
                                "name": "_to",
                                "type": "address",
                                "value": "0x5d5ea3a0be4383d6274394a1d7d697f1c1826ceb"
                            },
                            {
                                "decimalAvailable": true,
                                "name": "_amount",
                                "type": "uint256",
                                "value": "10,000,000,000,000,000,000"
                            }
                        ],
                        "signature": "Transfer(address,address,uint256)"
                    },
                    "id": 1,
                    "logData": "0x0000000000000000000000000000000000000000000000008ac7230489e80000",
                    "logDecoded": true,
                    "operation": "EVENT",
                    "revert": false,
                    "status": true,
                    "topics": [
                        "0xddf252ad1be2c89b69c2b068fc378daa952ba7f163c4a11628f55a4df523b3ef",
                        "0x000000000000000000000000ffd13f0b0a2fbdc559189a3d15c244cb0e3fef2a",
                        "0x0000000000000000000000005d5ea3a0be4383d6274394a1d7d697f1c1826ceb"
                    ]
                },
                "nodeType": 1
            }
        },
        "gasFlame": [
            {
                "children": [
                    {
                        "children": [
                            {
                                "children": [],
                                "depth": 0,
                                "name": "Initial Gas",
                                "value": 23192
                            },
                            {
                                "children": [],
                                "depth": 0,
                                "name": "Executed Gas",
                                "value": 54522
                            }
                        ],
                        "depth": -1,
                        "name": "Actual Gas Used",
                        "value": 77714
                    },
                    {
                        "children": [],
                        "depth": -1,
                        "name": "Refunded Gas",
                        "value": 0
                    }
                ],
                "depth": -2,
                "name": "Total Gas",
                "value": 77714
            }
        ],
        "isConfirmed": true,
        "mainTrace": [
            {
                "children": [
                    {
                        "children": [
                            {
                                "children": [],
                                "depth": 1,
                                "id": 1,
                                "order": 1
                            }
                        ],
                        "depth": 0,
                        "id": 0,
                        "order": 0
                    }
                ],
                "depth": -1,
                "id": -1,
                "order": -1
            }
        ],
        "mainTraceNodeCount": 2,
        "parentIdMap": {
            "0": -1,
            "1": 0
        },
        "tidyTrace": [
            {
                "children": [
                    {
                        "children": [
                            {
                                "children": [],
                                "depth": 1,
                                "id": 1,
                                "order": 1
                            }
                        ],
                        "depth": 0,
                        "id": 0,
                        "order": 0
                    }
                ],
                "depth": -1,
                "id": -1,
                "order": -1
            }
        ],
        "tidyTraceNodeCount": 2
    },
    "state_change": {
        "stateChanges": [
            {
                "address": "0xbb9bc244d798123fde783fcc1c72d3bb8c189413",
                "erc": "ERC-20",
                "slots": [
                    {
                        "current": "0x0000000000000000000000000000000000000000000000008ac7230489e80000",
                        "key": "0xa200863532c79a31c96c65189e6a621ee6c1e9e3ad7506a5c97693dcfceeb3cb",
                        "prev": "0x0000000000000000000000000000000000000000000000000000000000000000"
                    },
                    {
                        "current": "0x000000000000000000000000000000000000000000000000000000000008efe8",
                        "key": "0x521e47af1c7f048b5ceb74a5898776a55b4295e9067923594b6d38180b8ffd83",
                        "prev": "0x0000000000000000000000000000000000000000000000000000000000116ebc"
                    },
                    {
                        "current": "0x0000000000000000000000000000000000000000000000000000000000087ed4",
                        "key": "0x8dbdf4cbcc4bbd23a84969183688ccd6c6708945e91118373374a40aa38f5ae9",
                        "prev": "0x0000000000000000000000000000000000000000000000000000000000000000"
                    },
                    {
                        "current": "0x00000000000000000000000000000000000000000000000091fe3bdbd483ad55",
                        "key": "0xde77e658bd2a549a2f1c725de7d94cfcbacbb157fa1d734a807a4c939588b79b",
                        "prev": "0x0000000000000000000000000000000000000000000000011cc55ee05e6bad55"
                    }
                ],
                "storageVariables": []
            }
        ]
    }
}