{
    "balance_change": {
        "balanceChanges": []
    },
    "profile": {
        "basic_info": {
            "baseFee": "",
            "blockNumber": 4341643,
            "callData": "0xdf8de3e7000000000000000000000000668fdf891363f5e62048ebee9386b3b058256edd",
            "debugEnable": true,
            "errorInfo": "",
            "eventCount": 0,
            "feeRecipient": "0x829bd824b016326a401d083b33d092293333a830",
            "formatValue": "0",
            "gasLimit": 53539,
            "gasPrice": "21",
            "gasUsed": 38151,
            "intTxnCount": 1,
            "internalRevert": false,
            "internalRevertMessage": "",
            "isContractCreation": false,
            "isFlashloan": false,
            "maxFee": "",
            "nonce": 7134,
            "overwritedBlockNumber": -1,
            "priorityFee": "",
            "receiver": "0xaac3090257be280087d8bdc530265203d105b120",
            "revertMessage": "",
            "sender": "0x6066033f0f1064627cb00e0024867bb1cc124279",
            "simulationEnable": true,
            "sourceTxnHash": "0x94c3762fbab717119050f9afc9e4df557b2104fe7a7bb2822bb5c614146ac85e",
            "status": true,
            "timestamp": "2017-10-06T10:03:26Z",
            "transactionFee": "0.000801171",
            "txnHash": "0x94c3762fbab717119050f9afc9e4df557b2104fe7a7bb2822bb5c614146ac85e",
            "txnIndex": 128,
            "type": 0,
            "value": "0"
        },
        "fund_flow": [],
        "token_infos": [
            {
                "address": "0xc02aaa39b223fe8d0a0e5c4f27ead9083c756cc2",
                "decimals": 18
            },
            {
                "address": "0xeeeeeeeeeeeeeeeeeeeeeeeeeeeeeeeeeeeeeeee",
                "decimals": 18
            }
        ]
    },
    "address_label": {
        "labels": [
            {
                "address": "0x0000000000000000000000000000000000000003",
                "label": "Precompiled"
            },
            {
                "address": "0x0000000000000000000000000000000000000004",
                "label": "Precompiled"
            },
            {
                "address": "0xeeeeeeeeeeeeeeeeeeeeeeeeeeeeeeeeeeeeeeee",
                "label": "Ether"
            },
            {
                "address": "0x5fc6de61258e63706543bb57619b99cc0e5a5a1f",
                "label": "WanCoin"
            },
            {
                "address": "0xaac3090257be280087d8bdc530265203d105b120",
                "label": "Wanchain: Token Sale"
            },
            {
                "address": "0x0000000000000000000000000000000000000001",
                "label": "Precompiled"
            },
            {
                "address": "0x0000000000000000000000000000000000000002",
                "label": "Precompiled"
            }
        ]
    },
    "trace": {
        "accountLabels": null,
        "dataMap": {
            "-1": {
                "invocation": {
                    "address": "0x6066033f0f1064627cb00e0024867bb1cc124279",
                    "callData": "",
                    "decodedMethod": null,
                    "errorInfo": "",
                    "fromAddress": "",
                    "gasUsed": 0,
                    "id": -1,
                    "methodDecoded": false,
                    "operation": "",
                    "output": "",
                    "revert": false,
                    "revertMessage": "",
                    "selector": "",
                    "status": false,
                    "value": ""
                },
                "nodeType": 0
            },
            "0": {
                "invocation": {
                    "address": "0xaac3090257be280087d8bdc530265203d105b120",
                    "callData": "0x000000000000000000000000668fdf891363f5e62048ebee9386b3b058256edd",
                    "decodedMethod": {
                        "callParams": [
                            {
                                "name": "receipent",
                                "type": "address",
                                "value": "0x668fdf891363f5e62048ebee9386b3b058256edd"
                            }
                        ],
                        "constructorArguments": "",
                        "name": "claimTokens",
                        "returnParams": [],
                        "signature": "claimTokens(address)"
                    },
                    "errorInfo": "",
                    "fromAddress": "0x6066033f0f1064627cb00e0024867bb1cc124279",
                    "gasUsed": 38151,
                    "id": 0,
                    "methodDecoded": true,
                    "operation": "CALL",
                    "output": "",
                    "revert": false,
                    "revertMessage": "",
                    "selector": "0xdf8de3e7",
                    "status": true,
                    "value": "0"
                },
                "nodeType": 0
            },
            "1": {
                "invocation": {
                    "address": "0x5fc6de61258e63706543bb57619b99cc0e5a5a1f",
                    "callData": "0x000000000000000000000000668fdf891363f5e62048ebee9386b3b058256edd",
                    "decodedMethod": {
                        "callParams": [
                            {
                                "name": "receipent",
                                "type": "address",
                                "value": "0x668fdf891363f5e62048ebee9386b3b058256edd"
                            }
                        ],
                        "constructorArguments": "",
                        "name": "claimTokens",
                        "returnParams": [],
                        "signature": "claimTokens(address)"
                    },
                    "errorInfo": "",
                    "fromAddress": "0xaac3090257be280087d8bdc530265203d105b120",
                    "gasUsed": 26798,
                    "id": 1,
                    "methodDecoded": true,
                    "operation": "CALL",
                    "output": "",
                    "revert": false,
                    "revertMessage": "",
                    "selector": "0xdf8de3e7",
                    "status": true,
                    "value": "0"
                },
                "nodeType": 0
            }
        },
        "gasFlame": [
            {
                "children": [
                    {
                        "children": [
                            {
                                "children": [],
                                "depth": 0,
                                "name": "Initial Gas",
                                "value": 22680
                            },
                            {
                                "children": [
                                    {
                                        "children": [],
                                        "depth": 1,
                                        "name": "claimTokens",
                                        "value": 26798
                                    }
                                ],
                                "depth": 0,
                                "name": "Executed Gas",
                                "value": 30471
                            }
                        ],
                        "depth": -1,
                        "name": "Actual Gas Used",
                        "value": 38151
                    },
                    {
                        "children": [],
                        "depth": -1,
                        "name": "Refunded Gas",
                        "value": 15000
                    }
                ],
                "depth": -2,
                "name": "Total Gas",
                "value": 53151
            }
        ],
        "isConfirmed": true,
        "mainTrace": [
            {
                "children": [
                    {
                        "children": [
                            {
                                "children": [],
                                "depth": 1,
                                "id": 1,
                                "order": 1
                            }
                        ],
                        "depth": 0,
                        "id": 0,
                        "order": 0
                    }
                ],
                "depth": -1,
                "id": -1,
                "order": -1
            }
        ],
        "mainTraceNodeCount": 2,
        "parentIdMap": {
            "0": -1,
            "1": 0
        },
        "tidyTrace": [
            {
                "children": [
                    {
                        "children": [
                            {
                                "children": [],
                                "depth": 1,
                                "id": 1,
                                "order": 1
                            }
                        ],
                        "depth": 0,
                        "id": 0,
                        "order": 0
                    }
                ],
                "depth": -1,
                "id": -1,
                "order": -1
            }
        ],
        "tidyTraceNodeCount": 2
    },
    "state_change": {
        "stateChanges": [
            {
                "address": "0x5fc6de61258e63706543bb57619b99cc0e5a5a1f",
                "erc": "ERC-20",
                "slots": [
                    {
                        "current": "0x00000000000000000000000000000000000000000000014464aea768c1800000",
                        "key": "0xdacad919a2a65c934355b3ef68f7a3007dfe6688f366df36483b57095abab586",
                        "prev": "0x0000000000000000000000000000000000000000000000000000000000000000"
                    },
                    {
                        "current": "0x0000000000000000000000000000000000000000000000000000000000000000",
                        "key": "0xaac43248b865b0947b0eb42c4d3c58dacb927eb8fb4ec8383c7d694f3922639c",
                        "prev": "0x00000000000000000000000000000000000000000000014464aea768c1800000"
                    }
                ],
                "storageVariables": [
                    {
                        "name": "balances",
                        "type": "mapping(address => uint256)",
                        "value": {
                            "pairs": [
                                {
                                    "key": "0x668fdf891363f5e62048ebee9386b3b058256edd",
                                    "value": {
                                        "current": "5984000000000000000000",
                                        "prev": "0",
                                        "typeTag": 1
                                    }
                                }
                            ],
                            "typeTag": 4
                        }
                    },
                    {
                        "name": "lockedBalances",
                        "type": "mapping(address => uint256)",
                        "value": {
                            "pairs": [
                                {
                                    "key": "0x668fdf891363f5e62048ebee9386b3b058256edd",
                                    "value": {
                                        "current": "0",
                                        "prev": "5984000000000000000000",
                                        "typeTag": 1
                                    }
                                }
                            ],
                            "typeTag": 4
                        }
                    }
                ]
            }
        ]
    }
}