{
    "balance_change": {
        "balanceChanges": [
            {
                "account": "0x710bda329b2a6224e4b44833de30f38e7f81d564",
                "assets": [
                    {
                        "address": "0xeeeeeeeeeeeeeeeeeeeeeeeeeeeeeeeeeeeeeeee",
                        "amount": "0.005404328136328248",
                        "iconUrl": "https://assets.blocksec.com/image/1663669189317-3.png",
                        "isERC1155": false,
                        "isERC721": false,
                        "sign": true,
                        "value": "9.781996056004079852"
                    }
                ]
            },
            {
                "account": "0xb8901acb165ed027e32754e0ffe830802919727f",
                "assets": [
                    {
                        "address": "0xeeeeeeeeeeeeeeeeeeeeeeeeeeeeeeeeeeeeeeee",
                        "amount": "0.990684372060048599",
                        "iconUrl": "https://assets.blocksec.com/image/1663669189317-3.png",
                        "isERC1155": false,
                        "isERC721": false,
                        "sign": false,
                        "value": "1793.1684340321629729"
                    }
                ]
            },
            {
                "account": "0x59719d517208b306ea9c7a9fd90d6215163323ee",
                "assets": [
                    {
                        "address": "0xeeeeeeeeeeeeeeeeeeeeeeeeeeeeeeeeeeeeeeee",
                        "amount": "0.985280043923720351",
                        "iconUrl": "https://assets.blocksec.com/image/1663669189317-3.png",
                        "isERC1155": false,
                        "isERC721": false,
                        "sign": true,
                        "value": "1783.3864378603169731"
                    }
                ]
            }
        ]
    },
    "profile": {
        "basic_info": {
            "baseFee": "34.352800353",
            "blockNumber": 17338479,
            "callData": "0x23c452cd00000000000000000000000059719d517208b306ea9c7a9fd90d6215163323ee0000000000000000000000000000000000000000000000000dbf9e30012b8cd766fcdf8d54e7a7e0c4e578c1724a7f2eb41e11f97acb17eb675bf72c90dc85580000000000000000000000000000000000000000000000000013333532d0c438",
            "debugEnable": true,
            "errorInfo": "",
            "eventCount": 1,
            "feeRecipient": "0x6d2e03b7effeae98bd302a9f836d0d6ab0002766",
            "formatValue": "0",
            "gasLimit": 500000,
            "gasPrice": "34.532800353",
            "gasUsed": 115459,
            "intTxnCount": 2,
            "internalRevert": false,
            "internalRevertMessage": "",
            "isContractCreation": false,
            "isFlashloan": false,
            "maxFee": "64.804024538",
            "nonce": 359831,
            "overwritedBlockNumber": -1,
            "priorityFee": "0.18",
            "receiver": "0xb8901acb165ed027e32754e0ffe830802919727f",
            "revertMessage": "",
            "sender": "0x710bda329b2a6224e4b44833de30f38e7f81d564",
            "simulationEnable": true,
            "sourceTxnHash": "0x94b6ce4c95d2fd552bf23742e468667b39d5324897b63ca2a4d34446992e3d7a",
            "status": true,
            "timestamp": "2023-05-25T20:17:47Z",
            "transactionFee": "0.003987122595957027",
            "txnHash": "0x94b6ce4c95d2fd552bf23742e468667b39d5324897b63ca2a4d34446992e3d7a",
            "txnIndex": 72,
            "type": 2,
            "value": "0"
        },
        "fund_flow": [
            {
                "amount": "0.985280043923720351",
                "from": "0xb8901acb165ed027e32754e0ffe830802919727f",
                "id": 1,
                "isERC1155": false,
                "isERC721": false,
                "isReverted": false,
                "order": 1,
                "to": "0x59719d517208b306ea9c7a9fd90d6215163323ee",
                "token": "0xeeeeeeeeeeeeeeeeeeeeeeeeeeeeeeeeeeeeeeee"
            },
            {
                "amount": "0.005404328136328248",
                "from": "0xb8901acb165ed027e32754e0ffe830802919727f",
                "id": 2,
                "isERC1155": false,
                "isERC721": false,
                "isReverted": false,
                "order": 2,
                "to": "0x710bda329b2a6224e4b44833de30f38e7f81d564",
                "token": "0xeeeeeeeeeeeeeeeeeeeeeeeeeeeeeeeeeeeeeeee"
            }
        ],
        "token_infos": [
            {
                "address": "0xc02aaa39b223fe8d0a0e5c4f27ead9083c756cc2",
                "decimals": 18
            },
            {
                "address": "0xeeeeeeeeeeeeeeeeeeeeeeeeeeeeeeeeeeeeeeee",
                "decimals": 18
            }
        ]
    },
    "address_label": {
        "labels": [
            {
                "address": "0x0000000000000000000000000000000000000001",
                "label": "Precompiled"
            },
            {
                "address": "0x0000000000000000000000000000000000000002",
                "label": "Precompiled"
            },
            {
                "address": "0x0000000000000000000000000000000000000003",
                "label": "Precompiled"
            },
            {
                "address": "0x0000000000000000000000000000000000000004",
                "label": "Precompiled"
            },
            {
                "address": "0xeeeeeeeeeeeeeeeeeeeeeeeeeeeeeeeeeeeeeeee",
                "label": "Ether"
            },
            {
                "address": "0xb8901acb165ed027e32754e0ffe830802919727f",
                "label": "Hop Protocol: Ethereum Bridge"
            },
            {
                "address": "0x710bda329b2a6224e4b44833de30f38e7f81d564",
                "label": "Hop Protocol: ETH Bonder"
            }
        ]
    },
    "trace": {
        "accountLabels": null,
        "dataMap": {
            "-1": {
                "invocation": {
                    "address": "0x710bda329b2a6224e4b44833de30f38e7f81d564",
                    "callData": "",
                    "decodedMethod": null,
                    "errorInfo": "",
                    "fromAddress": "",
                    "gasUsed": 0,
                    "id": -1,
                    "methodDecoded": false,
                    "operation": "",
                    "output": "",
                    "revert": false,
                    "revertMessage": "",
                    "selector": "",
                    "status": false,
                    "value": ""
                },
                "nodeType": 0
            },
            "0": {
                "invocation": {
                    "address": "0xb8901acb165ed027e32754e0ffe830802919727f",
                    "callData": "0x00000000000000000000000059719d517208b306ea9c7a9fd90d6215163323ee0000000000000000000000000000000000000000000000000dbf9e30012b8cd766fcdf8d54e7a7e0c4e578c1724a7f2eb41e11f97acb17eb675bf72c90dc85580000000000000000000000000000000000000000000000000013333532d0c438",
                    "decodedMethod": {
                        "callParams": [
                            {
                                "name": "recipient",
                                "type": "address",
                                "value": "0x59719d517208b306ea9c7a9fd90d6215163323ee"
                            },
                            {
                                "name": "amount",
                                "type": "uint256",
                                "value": "990,684,372,060,048,599"
                            },
                            {
                                "name": "transferNonce",
                                "type": "bytes32",
                                "value": "0x66fcdf8d54e7a7e0c4e578c1724a7f2eb41e11f97acb17eb675bf72c90dc8558"
                            },
                            {
                                "name": "bonderFee",
                                "type": "uint256",
                                "value": "5,404,328,136,328,248"
                            }
                        ],
                        "constructorArguments": "",
                        "name": "bondWithdrawal",
                        "returnParams": [],
                        "signature": "bondWithdrawal(address,uint256,bytes32,uint256)"
                    },
                    "errorInfo": "",
                    "fromAddress": "0x710bda329b2a6224e4b44833de30f38e7f81d564",
                    "gasUsed": 115459,
                    "id": 0,
                    "methodDecoded": true,
                    "operation": "CALL",
                    "output": "",
                    "revert": false,
                    "revertMessage": "",
                    "selector": "0x23c452cd",
                    "status": true,
                    "value": "0"
                },
                "nodeType": 0
            },
            "1": {
                "event": {
                    "contract": "0xb8901acb165ed027e32754e0ffe830802919727f",
                    "decodedLog": {
                        "name": "WithdrawalBonded",
                        "params": [
                            {
                                "name": "transferId",
                                "type": "bytes32",
                                "value": "0x336cbda1d23cea05c74418ac361ffbe4869b2e288412f4ae5dcd241d375ca7d4"
                            },
                            {
                                "name": "amount",
                                "type": "uint256",
                                "value": "990,684,372,060,048,599"
                            }
                        ],
                        "signature": "WithdrawalBonded(bytes32,uint256)"
                    },
                    "id": 1,
                    "logData": "0x0000000000000000000000000000000000000000000000000dbf9e30012b8cd7",
                    "logDecoded": true,
                    "operation": "EVENT",
                    "revert": false,
                    "status": true,
                    "topics": [
                        "0x0c3d250c7831051e78aa6a56679e590374c7c424415ffe4aa474491def2fe705",
                        "0x336cbda1d23cea05c74418ac361ffbe4869b2e288412f4ae5dcd241d375ca7d4"
                    ]
                },
                "nodeType": 1
            },
            "2": {
                "invocation": {
                    "address": "0x59719d517208b306ea9c7a9fd90d6215163323ee",
                    "callData": "0x",
                    "decodedMethod": null,
                    "errorInfo": "",
                    "fromAddress": "0xb8901acb165ed027e32754e0ffe830802919727f",
                    "gasUsed": 0,
                    "id": 2,
                    "methodDecoded": false,
                    "operation": "CALL",
                    "output": "",
                    "revert": false,
                    "revertMessage": "",
                    "selector": "fallback",
                    "status": true,
                    "value": "0.985280043923720351"
                },
                "nodeType": 0
            },
            "3": {
                "invocation": {
                    "address": "0x710bda329b2a6224e4b44833de30f38e7f81d564",
                    "callData": "0x",
                    "decodedMethod": null,
                    "errorInfo": "",
                    "fromAddress": "0xb8901acb165ed027e32754e0ffe830802919727f",
                    "gasUsed": 0,
                    "id": 3,
                    "methodDecoded": false,
                    "operation": "CALL",
                    "output": "",
                    "revert": false,
                    "revertMessage": "",
                    "selector": "fallback",
                    "status": true,
                    "value": "0.005404328136328248"
                },
                "nodeType": 0
            }
        },
        "gasFlame": [
            {
                "children": [
                    {
                        "children": [
                            {
                                "children": [],
                                "depth": 0,
                                "name": "Initial Gas",
                                "value": 22380
                            },
                            {
                                "children": [
                                    {
                                        "children": [],
                                        "depth": 1,
                                        "name": "fallback",
                                        "value": 0
                                    },
                                    {
                                        "children": [],
                                        "depth": 1,
                                        "name": "fallback",
                                        "value": 0
                                    }
                                ],
                                "depth": 0,
                                "name": "Executed Gas",
                                "value": 95879
                            }
                        ],
                        "depth": -1,
                        "name": "Actual Gas Used",
                        "value": 115459
                    },
                    {
                        "children": [],
                        "depth": -1,
                        "name": "Refunded Gas",
                        "value": 2800
                    }
                ],
                "depth": -2,
                "name": "Total Gas",
                "value": 118259
            }
        ],
        "isConfirmed": true,
        "mainTrace": [
            {
                "children": [
                    {
                        "children": [
                            {
                                "children": [],
                                "depth": 1,
                                "id": 1,
                                "order": 1
                            },
                            {
                                "children": [],
                                "depth": 1,
                                "id": 2,
                                "order": 2
                            },
                            {
                                "children": [],
                                "depth": 1,
                                "id": 3,
                                "order": 3
                            }
                        ],
                        "depth": 0,
                        "id": 0,
                        "order": 0
                    }
                ],
                "depth": -1,
                "id": -1,
                "order": -1
            }
        ],
        "mainTraceNodeCount": 4,
        "parentIdMap": {
            "0": -1,
            "1": 0,
            "2": 0,
            "3": 0
        },
        "tidyTrace": [
            {
                "children": [
                    {
                        "children": [
                            {
                                "children": [],
                                "depth": 1,
                                "id": 1,
                                "order": 1
                            },
                            {
                                "children": [],
                                "depth": 1,
                                "id": 2,
                                "order": 2
                            },
                            {
                                "children": [],
                                "depth": 1,
                                "id": 3,
                                "order": 3
                            }
                        ],
                        "depth": 0,
                        "id": 0,
                        "order": 0
                    }
                ],
                "depth": -1,
                "id": -1,
                "order": -1
            }
        ],
        "tidyTraceNodeCount": 4
    },
    "state_change": {
        "stateChanges": [
            {
                "address": "0xb8901acb165ed027e32754e0ffe830802919727f",
                "erc": "",
                "slots": [
                    {
                        "current": "0x000000000000000000000000000000000000000000005acfd4af5f95f5bf369c",
                        "key": "0x812c8fc731d689ed5ded39e7869bf6693f18a74a2f3cb1feb1b6e33f7014843a",
                        "prev": "0x000000000000000000000000000000000000000000005acfc6efc165f493a9c5"
                    },
                    {
                        "current": "0x0000000000000000000000000000000000000000000000000dbf9e30012b8cd7",
                        "key": "0x41402b7c6c0a56a8f2486fa20bc6bf885fc7f5c9be1cdf65387e96bea1a25e49",
                        "prev": "0x0000000000000000000000000000000000000000000000000000000000000000"
                    },
                    {
                        "current": "0x0000000000000000000000000000000000000000000000000000000000000001",
                        "key": "0xb46a316a2e69fbd1cfae85373e75733319f92d9b3e847b801f2542b90d885dc8",
                        "prev": "0x0000000000000000000000000000000000000000000000000000000000000000"
                    }
                ],
                "storageVariables": [
                    {
                        "name": "_debit",
                        "type": "mapping(address => uint256)",
                        "value": {
                            "pairs": [
                                {
                                    "key": "0x710bda329b2a6224e4b44833de30f38e7f81d564",
                                    "value": {
                                        "current": "428846785054680589219484",
                                        "prev": "428845794370308529170885",
                                        "typeTag": 1
                                    }
                                }
                            ],
                            "typeTag": 4
                        }
                    },
                    {
                        "name": "_bondedWithdrawalAmounts",
                        "type": "mapping(address => mapping(bytes32 => uint256))",
                        "value": {
                            "pairs": [
                                {
                                    "key": "0x710bda329b2a6224e4b44833de30f38e7f81d564",
                                    "value": {
                                        "pairs": [
                                            {
                                                "key": "0x336cbda1d23cea05c74418ac361ffbe4869b2e288412f4ae5dcd241d375ca7d4",
                                                "value": {
                                                    "current": "990684372060048599",
                                                    "prev": "0",
                                                    "typeTag": 1
                                                }
                                            }
                                        ],
                                        "typeTag": 4
                                    }
                                }
                            ],
                            "typeTag": 4
                        }
                    },
                    {
                        "name": "_spentTransferIds",
                        "type": "mapping(bytes32 => bool)",
                        "value": {
                            "pairs": [
                                {
                                    "key": "0x336cbda1d23cea05c74418ac361ffbe4869b2e288412f4ae5dcd241d375ca7d4",
                                    "value": {
                                        "current": "true",
                                        "prev": "false",
                                        "typeTag": 1
                                    }
                                }
                            ],
                            "typeTag": 4
                        }
                    }
                ]
            }
        ]
    }
}