{
    "balance_change": {
        "balanceChanges": [
            {
                "account": "0xf3a67132d044d72b1ea3c1e023d7e0cf555a8d31",
                "assets": [
                    {
                        "address": "0xfca59cd816ab1ead66534d82bc21e7515ce441cf",
                        "amount": "12.846397103226342",
                        "iconUrl": "https://assets.blocksec.com/icon/53fb560a0712efd02cfb25421c5d7d0f9210b5806771583b539b41a17101842e.png",
                        "isERC1155": false,
                        "isERC721": false,
                        "sign": false,
                        "value": "124.2872637"
                    }
                ]
            },
            {
                "account": "0x9c020da44b96575c31d277a5b5b70ce2fe20c759",
                "assets": [
                    {
                        "address": "0xfca59cd816ab1ead66534d82bc21e7515ce441cf",
                        "amount": "12.846397103226342",
                        "iconUrl": "https://assets.blocksec.com/icon/53fb560a0712efd02cfb25421c5d7d0f9210b5806771583b539b41a17101842e.png",
                        "isERC1155": false,
                        "isERC721": false,
                        "sign": true,
                        "value": "124.2872637"
                    }
                ]
            }
        ]
    },
    "profile": {
        "basic_info": {
            "baseFee": "",
            "blockNumber": 12643821,
            "callData": "0xa9059cbb0000000000000000000000009c020da44b96575c31d277a5b5b70ce2fe20c759000000000000000000000000000000000000000000000000b247921a2d69ca70",
            "debugEnable": true,
            "errorInfo": "",
            "eventCount": 1,
            "feeRecipient": "0x829bd824b016326a401d083b33d092293333a830",
            "formatValue": "0",
            "gasLimit": 55105,
            "gasPrice": "10",
            "gasUsed": 21737,
            "intTxnCount": 0,
            "internalRevert": false,
            "internalRevertMessage": "",
            "isContractCreation": false,
            "isFlashloan": false,
            "maxFee": "",
            "nonce": 111,
            "overwritedBlockNumber": -1,
            "priorityFee": "",
            "receiver": "0xfca59cd816ab1ead66534d82bc21e7515ce441cf",
            "revertMessage": "",
            "sender": "0xf3a67132d044d72b1ea3c1e023d7e0cf555a8d31",
            "simulationEnable": true,
            "sourceTxnHash": "0x94f756964a19ee26e083de2b0a5c007bbeeab1fed93e8ee6be5a171fb3ac471e",
            "status": true,
            "timestamp": "2021-06-16T06:10:38Z",
            "transactionFee": "0.00021737",
            "txnHash": "0x94f756964a19ee26e083de2b0a5c007bbeeab1fed93e8ee6be5a171fb3ac471e",
            "txnIndex": 3,
            "type": 0,
            "value": "0"
        },
        "fund_flow": [
            {
                "amount": "12.846397103226342",
                "from": "0xf3a67132d044d72b1ea3c1e023d7e0cf555a8d31",
                "id": 1,
                "isERC1155": false,
                "isERC721": false,
                "isReverted": false,
                "order": 1,
                "to": "0x9c020da44b96575c31d277a5b5b70ce2fe20c759",
                "token": "0xfca59cd816ab1ead66534d82bc21e7515ce441cf"
            }
        ],
        "token_infos": [
            {
                "address": "0xc02aaa39b223fe8d0a0e5c4f27ead9083c756cc2",
                "decimals": 18
            },
            {
                "address": "0xfca59cd816ab1ead66534d82bc21e7515ce441cf",
                "decimals": 18
            },
            {
                "address": "0xeeeeeeeeeeeeeeeeeeeeeeeeeeeeeeeeeeeeeeee",
                "decimals": 18
            }
        ]
    },
    "address_label": {
        "labels": [
            {
                "address": "0xfca59cd816ab1ead66534d82bc21e7515ce441cf",
                "label": "Rarible: RARI Token 1"
            },
            {
                "address": "0x0000000000000000000000000000000000000001",
                "label": "Precompiled"
            },
            {
                "address": "0x0000000000000000000000000000000000000002",
                "label": "Precompiled"
            },
            {
                "address": "0x0000000000000000000000000000000000000003",
                "label": "Precompiled"
            },
            {
                "address": "0x0000000000000000000000000000000000000004",
                "label": "Precompiled"
            },
            {
                "address": "0xeeeeeeeeeeeeeeeeeeeeeeeeeeeeeeeeeeeeeeee",
                "label": "Ether"
            }
        ]
    },
    "trace": {
        "accountLabels": null,
        "dataMap": {
            "-1": {
                "invocation": {
                    "address": "0xf3a67132d044d72b1ea3c1e023d7e0cf555a8d31",
                    "callData": "",
                    "decodedMethod": null,
                    "errorInfo": "",
                    "fromAddress": "",
                    "gasUsed": 0,
                    "id": -1,
                    "methodDecoded": false,
                    "operation": "",
                    "output": "",
                    "revert": false,
                    "revertMessage": "",
                    "selector": "",
                    "status": false,
                    "value": ""
                },
                "nodeType": 0
            },
            "0": {
                "invocation": {
                    "address": "0xfca59cd816ab1ead66534d82bc21e7515ce441cf",
                    "callData": "0x0000000000000000000000009c020da44b96575c31d277a5b5b70ce2fe20c759000000000000000000000000000000000000000000000000b247921a2d69ca70",
                    "decodedMethod": {
                        "callParams": [
                            {
                                "name": "to",
                                "type": "address",
                                "value": "0x9c020da44b96575c31d277a5b5b70ce2fe20c759"
                            },
                            {
                                "decimalAvailable": true,
                                "name": "value",
                                "type": "uint256",
                                "value": "12,846,397,103,226,342,000"
                            }
                        ],
                        "constructorArguments": "",
                        "name": "transfer",
                        "returnParams": [
                            {
                                "name": "",
                                "type": "bool",
                                "value": true
                            }
                        ],
                        "signature": "transfer(address,uint256)"
                    },
                    "errorInfo": "",
                    "fromAddress": "0xf3a67132d044d72b1ea3c1e023d7e0cf555a8d31",
                    "gasUsed": 21737,
                    "id": 0,
                    "methodDecoded": true,
                    "operation": "CALL",
                    "output": "0x0000000000000000000000000000000000000000000000000000000000000001",
                    "revert": false,
                    "revertMessage": "",
                    "selector": "0xa9059cbb",
                    "status": true,
                    "value": "0"
                },
                "nodeType": 0
            },
            "1": {
                "event": {
                    "contract": "0xfca59cd816ab1ead66534d82bc21e7515ce441cf",
                    "decodedLog": {
                        "name": "Transfer",
                        "params": [
                            {
                                "name": "from",
                                "type": "address",
                                "value": "0xf3a67132d044d72b1ea3c1e023d7e0cf555a8d31"
                            },
                            {
                                "name": "to",
                                "type": "address",
                                "value": "0x9c020da44b96575c31d277a5b5b70ce2fe20c759"
                            },
                            {
                                "decimalAvailable": true,
                                "name": "value",
                                "type": "uint256",
                                "value": "12,846,397,103,226,342,000"
                            }
                        ],
                        "signature": "Transfer(address,address,uint256)"
                    },
                    "id": 1,
                    "logData": "0x000000000000000000000000000000000000000000000000b247921a2d69ca70",
                    "logDecoded": true,
                    "operation": "EVENT",
                    "revert": false,
                    "status": true,
                    "topics": [
                        "0xddf252ad1be2c89b69c2b068fc378daa952ba7f163c4a11628f55a4df523b3ef",
                        "0x000000000000000000000000f3a67132d044d72b1ea3c1e023d7e0cf555a8d31",
                        "0x0000000000000000000000009c020da44b96575c31d277a5b5b70ce2fe20c759"
                    ]
                },
                "nodeType": 1
            }
        },
        "gasFlame": [
            {
                "children": [
                    {
                        "children": [
                            {
                                "children": [],
                                "depth": 0,
                                "name": "Initial Gas",
                                "value": 21656
                            },
                            {
                                "children": [],
                                "depth": 0,
                                "name": "Executed Gas",
                                "value": 15081
                            }
                        ],
                        "depth": -1,
                        "name": "Actual Gas Used",
                        "value": 21737
                    },
                    {
                        "children": [],
                        "depth": -1,
                        "name": "Refunded Gas",
                        "value": 15000
                    }
                ],
                "depth": -2,
                "name": "Total Gas",
                "value": 36737
            }
        ],
        "isConfirmed": true,
        "mainTrace": [
            {
                "children": [
                    {
                        "children": [
                            {
                                "children": [],
                                "depth": 1,
                                "id": 1,
                                "order": 1
                            }
                        ],
                        "depth": 0,
                        "id": 0,
                        "order": 0
                    }
                ],
                "depth": -1,
                "id": -1,
                "order": -1
            }
        ],
        "mainTraceNodeCount": 2,
        "parentIdMap": {
            "0": -1,
            "1": 0
        },
        "tidyTrace": [
            {
                "children": [
                    {
                        "children": [
                            {
                                "children": [],
                                "depth": 1,
                                "id": 1,
                                "order": 1
                            }
                        ],
                        "depth": 0,
                        "id": 0,
                        "order": 0
                    }
                ],
                "depth": -1,
                "id": -1,
                "order": -1
            }
        ],
        "tidyTraceNodeCount": 2
    },
    "state_change": {
        "stateChanges": [
            {
                "address": "0xfca59cd816ab1ead66534d82bc21e7515ce441cf",
                "erc": "ERC-20",
                "slots": [
                    {
                        "current": "0x0000000000000000000000000000000000000000000000000000000000000000",
                        "key": "0xefcfa518fbf98043ced61adbf2be85dfdccde742738a650a12359f0791c75b7c",
                        "prev": "0x000000000000000000000000000000000000000000000000b247921a2d69ca70"
                    },
                    {
                        "current": "0x0000000000000000000000000000000000000000000000034c48d69556064988",
                        "key": "0xbf5a21c4343933a49744ff063249f9d8755f4c50752aea63c35a928dc64933f8",
                        "prev": "0x0000000000000000000000000000000000000000000000029a01447b289c7f18"
                    }
                ],
                "storageVariables": [
                    {
                        "name": "_balances",
                        "type": "mapping(address => uint256)",
                        "value": {
                            "pairs": [
                                {
                                    "key": "0x9c020da44b96575c31d277a5b5b70ce2fe20c759",
                                    "value": {
                                        "current": "60837111503216069000",
                                        "prev": "47990714399989727000",
                                        "typeTag": 1
                                    }
                                },
                                {
                                    "key": "0xf3a67132d044d72b1ea3c1e023d7e0cf555a8d31",
                                    "value": {
                                        "current": "0",
                                        "prev": "12846397103226342000",
                                        "typeTag": 1
                                    }
                                }
                            ],
                            "typeTag": 4
                        }
                    }
                ]
            }
        ]
    }
}