{
    "balance_change": {
        "balanceChanges": [
            {
                "account": "0x88904ba6608f6e12b7847e482f44041937219c81",
                "assets": [
                    {
                        "address": "0x8a3e08353e3c64d9fa5683bb5e2fbbf8aef7e7e9",
                        "amount": "10",
                        "iconUrl": "",
                        "isERC1155": false,
                        "isERC721": false,
                        "sign": false,
                        "value": ""
                    }
                ]
            },
            {
                "account": "0xff7d1e09dc1a4d38ed0a20751a8cce62a4f43d5f",
                "assets": [
                    {
                        "address": "0x8a3e08353e3c64d9fa5683bb5e2fbbf8aef7e7e9",
                        "amount": "10",
                        "iconUrl": "",
                        "isERC1155": false,
                        "isERC721": false,
                        "sign": true,
                        "value": ""
                    }
                ]
            }
        ]
    },
    "profile": {
        "basic_info": {
            "baseFee": "",
            "blockNumber": 5531040,
            "callData": "0xa9059cbb000000000000000000000000ff7d1e09dc1a4d38ed0a20751a8cce62a4f43d5f0000000000000000000000000000000000000000000000008ac7230489e80000",
            "debugEnable": true,
            "errorInfo": "",
            "eventCount": 1,
            "feeRecipient": "0xea674fdde714fd979de3edf0f56aa9716b898ec8",
            "formatValue": "0",
            "gasLimit": 4300000,
            "gasPrice": "6",
            "gasUsed": 52820,
            "intTxnCount": 0,
            "internalRevert": false,
            "internalRevertMessage": "",
            "isContractCreation": false,
            "isFlashloan": false,
            "maxFee": "",
            "nonce": 76,
            "overwritedBlockNumber": -1,
            "priorityFee": "",
            "receiver": "0x8a3e08353e3c64d9fa5683bb5e2fbbf8aef7e7e9",
            "revertMessage": "",
            "sender": "0x88904ba6608f6e12b7847e482f44041937219c81",
            "simulationEnable": true,
            "sourceTxnHash": "0x94b5d599e770b15e089bcc1df62fbd9061823c46c1adacdaf200893a4dcf532c",
            "status": true,
            "timestamp": "2018-04-30T07:55:22Z",
            "transactionFee": "0.00031692",
            "txnHash": "0x94b5d599e770b15e089bcc1df62fbd9061823c46c1adacdaf200893a4dcf532c",
            "txnIndex": 59,
            "type": 0,
            "value": "0"
        },
        "fund_flow": [
            {
                "amount": "10",
                "from": "0x88904ba6608f6e12b7847e482f44041937219c81",
                "id": 1,
                "isERC1155": false,
                "isERC721": false,
                "isReverted": false,
                "order": 1,
                "to": "0xff7d1e09dc1a4d38ed0a20751a8cce62a4f43d5f",
                "token": "0x8a3e08353e3c64d9fa5683bb5e2fbbf8aef7e7e9"
            }
        ],
        "token_infos": [
            {
                "address": "0x8a3e08353e3c64d9fa5683bb5e2fbbf8aef7e7e9",
                "decimals": 18
            },
            {
                "address": "0xc02aaa39b223fe8d0a0e5c4f27ead9083c756cc2",
                "decimals": 18
            },
            {
                "address": "0xeeeeeeeeeeeeeeeeeeeeeeeeeeeeeeeeeeeeeeee",
                "decimals": 18
            }
        ]
    },
    "address_label": {
        "labels": [
            {
                "address": "0x0000000000000000000000000000000000000004",
                "label": "Precompiled"
            },
            {
                "address": "0xeeeeeeeeeeeeeeeeeeeeeeeeeeeeeeeeeeeeeeee",
                "label": "Ether"
            },
            {
                "address": "0x8a3e08353e3c64d9fa5683bb5e2fbbf8aef7e7e9",
                "label": "CNMC"
            },
            {
                "address": "0x0000000000000000000000000000000000000001",
                "label": "Precompiled"
            },
            {
                "address": "0x0000000000000000000000000000000000000002",
                "label": "Precompiled"
            },
            {
                "address": "0x0000000000000000000000000000000000000003",
                "label": "Precompiled"
            }
        ]
    },
    "trace": {
        "accountLabels": null,
        "dataMap": {
            "-1": {
                "invocation": {
                    "address": "0x88904ba6608f6e12b7847e482f44041937219c81",
                    "callData": "",
                    "decodedMethod": null,
                    "errorInfo": "",
                    "fromAddress": "",
                    "gasUsed": 0,
                    "id": -1,
                    "methodDecoded": false,
                    "operation": "",
                    "output": "",
                    "revert": false,
                    "revertMessage": "",
                    "selector": "",
                    "status": false,
                    "value": ""
                },
                "nodeType": 0
            },
            "0": {
                "invocation": {
                    "address": "0x8a3e08353e3c64d9fa5683bb5e2fbbf8aef7e7e9",
                    "callData": "0x000000000000000000000000ff7d1e09dc1a4d38ed0a20751a8cce62a4f43d5f0000000000000000000000000000000000000000000000008ac7230489e80000",
                    "decodedMethod": {
                        "callParams": [
                            {
                                "name": "_to",
                                "type": "address",
                                "value": "0xff7d1e09dc1a4d38ed0a20751a8cce62a4f43d5f"
                            },
                            {
                                "decimalAvailable": true,
                                "name": "_value",
                                "type": "uint256",
                                "value": "10,000,000,000,000,000,000"
                            }
                        ],
                        "constructorArguments": "",
                        "name": "transfer",
                        "returnParams": [],
                        "signature": "transfer(address,uint256)"
                    },
                    "errorInfo": "",
                    "fromAddress": "0x88904ba6608f6e12b7847e482f44041937219c81",
                    "gasUsed": 52820,
                    "id": 0,
                    "methodDecoded": true,
                    "operation": "CALL",
                    "output": "",
                    "revert": false,
                    "revertMessage": "",
                    "selector": "0xa9059cbb",
                    "status": true,
                    "value": "0"
                },
                "nodeType": 0
            },
            "1": {
                "event": {
                    "contract": "0x8a3e08353e3c64d9fa5683bb5e2fbbf8aef7e7e9",
                    "decodedLog": {
                        "name": "Transfer",
                        "params": [
                            {
                                "name": "from",
                                "type": "address",
                                "value": "0x88904ba6608f6e12b7847e482f44041937219c81"
                            },
                            {
                                "name": "to",
                                "type": "address",
                                "value": "0xff7d1e09dc1a4d38ed0a20751a8cce62a4f43d5f"
                            },
                            {
                                "decimalAvailable": true,
                                "name": "value",
                                "type": "uint256",
                                "value": "10,000,000,000,000,000,000"
                            }
                        ],
                        "signature": "Transfer(address,address,uint256)"
                    },
                    "id": 1,
                    "logData": "0x0000000000000000000000000000000000000000000000008ac7230489e80000",
                    "logDecoded": true,
                    "operation": "EVENT",
                    "revert": false,
                    "status": true,
                    "topics": [
                        "0xddf252ad1be2c89b69c2b068fc378daa952ba7f163c4a11628f55a4df523b3ef",
                        "0x00000000000000000000000088904ba6608f6e12b7847e482f44041937219c81",
                        "0x000000000000000000000000ff7d1e09dc1a4d38ed0a20751a8cce62a4f43d5f"
                    ]
                },
                "nodeType": 1
            }
        },
        "gasFlame": [
            {
                "children": [
                    {
                        "children": [
                            {
                                "children": [],
                                "depth": 0,
                                "name": "Initial Gas",
                                "value": 23192
                            },
                            {
                                "children": [],
                                "depth": 0,
                                "name": "Executed Gas",
                                "value": 29628
                            }
                        ],
                        "depth": -1,
                        "name": "Actual Gas Used",
                        "value": 52820
                    },
                    {
                        "children": [],
                        "depth": -1,
                        "name": "Refunded Gas",
                        "value": 0
                    }
                ],
                "depth": -2,
                "name": "Total Gas",
                "value": 52820
            }
        ],
        "isConfirmed": true,
        "mainTrace": [
            {
                "children": [
                    {
                        "children": [
                            {
                                "children": [],
                                "depth": 1,
                                "id": 1,
                                "order": 1
                            }
                        ],
                        "depth": 0,
                        "id": 0,
                        "order": 0
                    }
                ],
                "depth": -1,
                "id": -1,
                "order": -1
            }
        ],
        "mainTraceNodeCount": 2,
        "parentIdMap": {
            "0": -1,
            "1": 0
        },
        "tidyTrace": [
            {
                "children": [
                    {
                        "children": [
                            {
                                "children": [],
                                "depth": 1,
                                "id": 1,
                                "order": 1
                            }
                        ],
                        "depth": 0,
                        "id": 0,
                        "order": 0
                    }
                ],
                "depth": -1,
                "id": -1,
                "order": -1
            }
        ],
        "tidyTraceNodeCount": 2
    },
    "state_change": {
        "stateChanges": [
            {
                "address": "0x8a3e08353e3c64d9fa5683bb5e2fbbf8aef7e7e9",
                "erc": "",
                "slots": [
                    {
                        "current": "0x0000000000000000000000000000000000000000000000008ac7230489e80000",
                        "key": "0xf6da7518d6d2109cbbf55a7a55def18f5b8389d2f47d8edaef702f5e78344430",
                        "prev": "0x0000000000000000000000000000000000000000000000000000000000000000"
                    },
                    {
                        "current": "0x000000000000000000000000000000000000000000003f62b63979b0cbc80000",
                        "key": "0xfbb7807c1c0047f4950629556289521180596f798bd760a9cc8030701f549dce",
                        "prev": "0x000000000000000000000000000000000000000000003f6341009cb555b00000"
                    }
                ],
                "storageVariables": [
                    {
                        "name": "balanceOf",
                        "type": "mapping(address => uint256)",
                        "value": {
                            "pairs": [
                                {
                                    "key": "0x88904ba6608f6e12b7847e482f44041937219c81",
                                    "value": {
                                        "current": "299330000000000000000000",
                                        "prev": "299340000000000000000000",
                                        "typeTag": 1
                                    }
                                },
                                {
                                    "key": "0xff7d1e09dc1a4d38ed0a20751a8cce62a4f43d5f",
                                    "value": {
                                        "current": "10000000000000000000",
                                        "prev": "0",
                                        "typeTag": 1
                                    }
                                }
                            ],
                            "typeTag": 4
                        }
                    }
                ]
            }
        ]
    }
}