{
    "balance_change": {
        "balanceChanges": [
            {
                "account": "0x0d0707963952f2fba59dd06f2b425ace40b492fe",
                "assets": [
                    {
                        "address": "0xa3d58c4e56fedcae3a7c43a725aee9a71f0ece4e",
                        "amount": "2,500.7",
                        "iconUrl": "",
                        "isERC1155": false,
                        "isERC721": false,
                        "sign": false,
                        "value": ""
                    }
                ]
            },
            {
                "account": "0xc403e00461dd9e97ef66753319239dba373c192d",
                "assets": [
                    {
                        "address": "0xa3d58c4e56fedcae3a7c43a725aee9a71f0ece4e",
                        "amount": "2,500.7",
                        "iconUrl": "",
                        "isERC1155": false,
                        "isERC721": false,
                        "sign": true,
                        "value": ""
                    }
                ]
            }
        ]
    },
    "profile": {
        "basic_info": {
            "baseFee": "",
            "blockNumber": 5893311,
            "callData": "0xa9059cbb000000000000000000000000c403e00461dd9e97ef66753319239dba373c192d000000000000000000000000000000000000000000000087902f18b93b560000",
            "debugEnable": true,
            "errorInfo": "",
            "eventCount": 1,
            "feeRecipient": "0xa3c084ae80a3f03963017669bc696e961d3ae5d5",
            "formatValue": "0",
            "gasLimit": 200000,
            "gasPrice": "212",
            "gasUsed": 56552,
            "intTxnCount": 1,
            "internalRevert": false,
            "internalRevertMessage": "",
            "isContractCreation": false,
            "isFlashloan": false,
            "maxFee": "",
            "nonce": 415707,
            "overwritedBlockNumber": -1,
            "priorityFee": "",
            "receiver": "0xa3d58c4e56fedcae3a7c43a725aee9a71f0ece4e",
            "revertMessage": "",
            "sender": "0x0d0707963952f2fba59dd06f2b425ace40b492fe",
            "simulationEnable": true,
            "sourceTxnHash": "0x9503bfdd56119d69b5b2c785846f2de0ac029b27b6a705b6ea96a8035d6d45eb",
            "status": true,
            "timestamp": "2018-07-02T16:05:38Z",
            "transactionFee": "0.011989024",
            "txnHash": "0x9503bfdd56119d69b5b2c785846f2de0ac029b27b6a705b6ea96a8035d6d45eb",
            "txnIndex": 4,
            "type": 0,
            "value": "0"
        },
        "fund_flow": [
            {
                "amount": "2,500.7",
                "from": "0x0d0707963952f2fba59dd06f2b425ace40b492fe",
                "id": 1,
                "isERC1155": false,
                "isERC721": false,
                "isReverted": false,
                "order": 1,
                "to": "0xc403e00461dd9e97ef66753319239dba373c192d",
                "token": "0xa3d58c4e56fedcae3a7c43a725aee9a71f0ece4e"
            }
        ],
        "token_infos": [
            {
                "address": "0xa3d58c4e56fedcae3a7c43a725aee9a71f0ece4e",
                "decimals": 18
            },
            {
                "address": "0xc02aaa39b223fe8d0a0e5c4f27ead9083c756cc2",
                "decimals": 18
            },
            {
                "address": "0xeeeeeeeeeeeeeeeeeeeeeeeeeeeeeeeeeeeeeeee",
                "decimals": 18
            }
        ]
    },
    "address_label": {
        "labels": [
            {
                "address": "0x68c4b7d05fae45bcb6192bb93e246c77e98360e1",
                "label": "Metronome: Proceeds"
            },
            {
                "address": "0x0000000000000000000000000000000000000004",
                "label": "Precompiled"
            },
            {
                "address": "0xeeeeeeeeeeeeeeeeeeeeeeeeeeeeeeeeeeeeeeee",
                "label": "Ether"
            },
            {
                "address": "0xa3d58c4e56fedcae3a7c43a725aee9a71f0ece4e",
                "label": "Old Metronome Token"
            },
            {
                "address": "0x9d9bcdd249e439aaab545f59a33812e39a8e3072",
                "label": "Metronome: Auctions"
            },
            {
                "address": "0x0000000000000000000000000000000000000003",
                "label": "Precompiled"
            },
            {
                "address": "0x0d0707963952f2fba59dd06f2b425ace40b492fe",
                "label": "Gate.io"
            },
            {
                "address": "0x0000000000000000000000000000000000000001",
                "label": "Precompiled"
            },
            {
                "address": "0x0000000000000000000000000000000000000002",
                "label": "Precompiled"
            }
        ]
    },
    "trace": {
        "accountLabels": null,
        "dataMap": {
            "-1": {
                "invocation": {
                    "address": "0x0d0707963952f2fba59dd06f2b425ace40b492fe",
                    "callData": "",
                    "decodedMethod": null,
                    "errorInfo": "",
                    "fromAddress": "",
                    "gasUsed": 0,
                    "id": -1,
                    "methodDecoded": false,
                    "operation": "",
                    "output": "",
                    "revert": false,
                    "revertMessage": "",
                    "selector": "",
                    "status": false,
                    "value": ""
                },
                "nodeType": 0
            },
            "0": {
                "invocation": {
                    "address": "0xa3d58c4e56fedcae3a7c43a725aee9a71f0ece4e",
                    "callData": "0x000000000000000000000000c403e00461dd9e97ef66753319239dba373c192d000000000000000000000000000000000000000000000087902f18b93b560000",
                    "decodedMethod": {
                        "callParams": [
                            {
                                "name": "_to",
                                "type": "address",
                                "value": "0xc403e00461dd9e97ef66753319239dba373c192d"
                            },
                            {
                                "decimalAvailable": true,
                                "name": "_value",
                                "type": "uint256",
                                "value": "2,500,700,000,000,000,000,000"
                            }
                        ],
                        "constructorArguments": "",
                        "name": "transfer",
                        "returnParams": [
                            {
                                "name": "",
                                "type": "bool",
                                "value": true
                            }
                        ],
                        "signature": "transfer(address,uint256)"
                    },
                    "errorInfo": "",
                    "fromAddress": "0x0d0707963952f2fba59dd06f2b425ace40b492fe",
                    "gasUsed": 56552,
                    "id": 0,
                    "methodDecoded": true,
                    "operation": "CALL",
                    "output": "0x0000000000000000000000000000000000000000000000000000000000000001",
                    "revert": false,
                    "revertMessage": "",
                    "selector": "0xa9059cbb",
                    "status": true,
                    "value": "0"
                },
                "nodeType": 0
            },
            "1": {
                "invocation": {
                    "address": "0x9d9bcdd249e439aaab545f59a33812e39a8e3072",
                    "callData": "0x",
                    "decodedMethod": {
                        "callParams": [],
                        "constructorArguments": "",
                        "name": "proceeds",
                        "returnParams": [
                            {
                                "name": "",
                                "type": "address",
                                "value": "0x68c4b7d05fae45bcb6192bb93e246c77e98360e1"
                            }
                        ],
                        "signature": "proceeds()"
                    },
                    "errorInfo": "",
                    "fromAddress": "0xa3d58c4e56fedcae3a7c43a725aee9a71f0ece4e",
                    "gasUsed": 1205,
                    "id": 1,
                    "methodDecoded": true,
                    "operation": "CALL",
                    "output": "0x00000000000000000000000068c4b7d05fae45bcb6192bb93e246c77e98360e1",
                    "revert": false,
                    "revertMessage": "",
                    "selector": "0x55b5ec64",
                    "status": true,
                    "value": "0"
                },
                "nodeType": 0
            },
            "2": {
                "event": {
                    "contract": "0xa3d58c4e56fedcae3a7c43a725aee9a71f0ece4e",
                    "decodedLog": {
                        "name": "Transfer",
                        "params": [
                            {
                                "name": "_from",
                                "type": "address",
                                "value": "0x0d0707963952f2fba59dd06f2b425ace40b492fe"
                            },
                            {
                                "name": "_to",
                                "type": "address",
                                "value": "0xc403e00461dd9e97ef66753319239dba373c192d"
                            },
                            {
                                "decimalAvailable": true,
                                "name": "_value",
                                "type": "uint256",
                                "value": "2,500,700,000,000,000,000,000"
                            }
                        ],
                        "signature": "Transfer(address,address,uint256)"
                    },
                    "id": 2,
                    "logData": "0x000000000000000000000000000000000000000000000087902f18b93b560000",
                    "logDecoded": true,
                    "operation": "EVENT",
                    "revert": false,
                    "status": true,
                    "topics": [
                        "0xddf252ad1be2c89b69c2b068fc378daa952ba7f163c4a11628f55a4df523b3ef",
                        "0x0000000000000000000000000d0707963952f2fba59dd06f2b425ace40b492fe",
                        "0x000000000000000000000000c403e00461dd9e97ef66753319239dba373c192d"
                    ]
                },
                "nodeType": 1
            }
        },
        "gasFlame": [
            {
                "children": [
                    {
                        "children": [
                            {
                                "children": [],
                                "depth": 0,
                                "name": "Initial Gas",
                                "value": 23256
                            },
                            {
                                "children": [
                                    {
                                        "children": [],
                                        "depth": 1,
                                        "name": "proceeds",
                                        "value": 1205
                                    }
                                ],
                                "depth": 0,
                                "name": "Executed Gas",
                                "value": 33296
                            }
                        ],
                        "depth": -1,
                        "name": "Actual Gas Used",
                        "value": 56552
                    },
                    {
                        "children": [],
                        "depth": -1,
                        "name": "Refunded Gas",
                        "value": 0
                    }
                ],
                "depth": -2,
                "name": "Total Gas",
                "value": 56552
            }
        ],
        "isConfirmed": true,
        "mainTrace": [
            {
                "children": [
                    {
                        "children": [
                            {
                                "children": [],
                                "depth": 1,
                                "id": 1,
                                "order": 1
                            },
                            {
                                "children": [],
                                "depth": 1,
                                "id": 2,
                                "order": 2
                            }
                        ],
                        "depth": 0,
                        "id": 0,
                        "order": 0
                    }
                ],
                "depth": -1,
                "id": -1,
                "order": -1
            }
        ],
        "mainTraceNodeCount": 3,
        "parentIdMap": {
            "0": -1,
            "1": 0,
            "2": 0
        },
        "tidyTrace": [
            {
                "children": [
                    {
                        "children": [
                            {
                                "children": [],
                                "depth": 1,
                                "id": 1,
                                "order": 1
                            },
                            {
                                "children": [],
                                "depth": 1,
                                "id": 2,
                                "order": 2
                            }
                        ],
                        "depth": 0,
                        "id": 0,
                        "order": 0
                    }
                ],
                "depth": -1,
                "id": -1,
                "order": -1
            }
        ],
        "tidyTraceNodeCount": 3
    },
    "state_change": {
        "stateChanges": [
            {
                "address": "0xa3d58c4e56fedcae3a7c43a725aee9a71f0ece4e",
                "erc": "ERC-20",
                "slots": [
                    {
                        "current": "0x000000000000000000000000000000000000000000000d86cdce5e5208021500",
                        "key": "0xf29cdd059219383448e8b463b31f88f5e17e69c1c7262cd3b2b0c57147c048d6",
                        "prev": "0x000000000000000000000000000000000000000000000e0e5dfd770b43581500"
                    },
                    {
                        "current": "0x000000000000000000000000000000000000000000000087902f18b93b560000",
                        "key": "0xf67a4697f820146c544367e3659529cdf6580ea01fffa252dd0e84b788f57123",
                        "prev": "0x0000000000000000000000000000000000000000000000000000000000000000"
                    }
                ],
                "storageVariables": [
                    {
                        "name": "_balanceOf",
                        "type": "mapping(address => uint256)",
                        "value": {
                            "pairs": [
                                {
                                    "key": "0x0d0707963952f2fba59dd06f2b425ace40b492fe",
                                    "value": {
                                        "current": "63877457877511860000000",
                                        "prev": "66378157877511860000000",
                                        "typeTag": 1
                                    }
                                },
                                {
                                    "key": "0xc403e00461dd9e97ef66753319239dba373c192d",
                                    "value": {
                                        "current": "2500700000000000000000",
                                        "prev": "0",
                                        "typeTag": 1
                                    }
                                }
                            ],
                            "typeTag": 4
                        }
                    }
                ]
            }
        ]
    }
}