{
    "balance_change": {
        "balanceChanges": [
            {
                "account": "0x3a966ffa8451cbf3769b7d1f94d5b47da254edb0",
                "assets": [
                    {
                        "address": "0xeeeeeeeeeeeeeeeeeeeeeeeeeeeeeeeeeeeeeeee",
                        "amount": "0.1035",
                        "iconUrl": "https://assets.blocksec.com/image/1663669189317-3.png",
                        "isERC1155": false,
                        "isERC721": false,
                        "sign": false,
                        "value": ""
                    }
                ]
            },
            {
                "account": "0x8c90e2d6af9bd3810a38984357430eb240b7eab8",
                "assets": [
                    {
                        "address": "0xeeeeeeeeeeeeeeeeeeeeeeeeeeeeeeeeeeeeeeee",
                        "amount": "0.1035",
                        "iconUrl": "https://assets.blocksec.com/image/1663669189317-3.png",
                        "isERC1155": false,
                        "isERC721": false,
                        "sign": true,
                        "value": ""
                    }
                ]
            }
        ]
    },
    "profile": {
        "basic_info": {
            "baseFee": "",
            "blockNumber": 7450402,
            "callData": "0xd365a3fb00000000000000000000000000000000000000000000000000000000000000403866d5b9b3b2ad1a5d84f5fc55b1325c45eb3e6f137477944de878c4b817bf83000000000000000000000000000000000000000000000000000000000000000c000000000000000000000000000000000000000000000000000000000000000f000000000000000000000000000000000000000000000000000000000000290400000000000000000000000000000000000000000000000000000000000000020000000000000000000000000000000000000000000000000000000000000000000000000000000000000000000000000000000000000000000000000000000e00000000000000000000000000000000000000000000000000ba8478cab5400000000000000000000000000000000000000000000000000000b1a2bc2ec50000000000000000000000000000000000000000000000000000017508f1956a800000000000000000000000000000000000000000000000000034306237656162380000000000000000000000000000000000000000000000000001c6bf5263400000000000000000000000000000000000000000000000000000000000000000022e677dbae589a6bb99695156ee516ec70c9b27e79b55cae7f317d1c45f0f6340",
            "debugEnable": true,
            "errorInfo": "",
            "eventCount": 2,
            "feeRecipient": "0xb2930b35844a230f00e51431acae96fe543a0347",
            "formatValue": "0",
            "gasLimit": 200000,
            "gasPrice": "4.8",
            "gasUsed": 53662,
            "intTxnCount": 1,
            "internalRevert": false,
            "internalRevertMessage": "",
            "isContractCreation": false,
            "isFlashloan": false,
            "maxFee": "",
            "nonce": 560,
            "overwritedBlockNumber": -1,
            "priorityFee": "",
            "receiver": "0x3a966ffa8451cbf3769b7d1f94d5b47da254edb0",
            "revertMessage": "",
            "sender": "0x33333333039a03aaa0f80e5420aa9fab157b0b01",
            "simulationEnable": true,
            "sourceTxnHash": "0x951c02eacc528590b8ee617bd362691c249c7b61bc45cfce93cf3a996d5b30d2",
            "status": true,
            "timestamp": "2019-03-27T11:44:59Z",
            "transactionFee": "0.0002575776",
            "txnHash": "0x951c02eacc528590b8ee617bd362691c249c7b61bc45cfce93cf3a996d5b30d2",
            "txnIndex": 81,
            "type": 0,
            "value": "0"
        },
        "fund_flow": [
            {
                "amount": "0.1035",
                "from": "0x3a966ffa8451cbf3769b7d1f94d5b47da254edb0",
                "id": 1,
                "isERC1155": false,
                "isERC721": false,
                "isReverted": false,
                "order": 1,
                "to": "0x8c90e2d6af9bd3810a38984357430eb240b7eab8",
                "token": "0xeeeeeeeeeeeeeeeeeeeeeeeeeeeeeeeeeeeeeeee"
            }
        ],
        "token_infos": [
            {
                "address": "0xc02aaa39b223fe8d0a0e5c4f27ead9083c756cc2",
                "decimals": 18
            },
            {
                "address": "0xeeeeeeeeeeeeeeeeeeeeeeeeeeeeeeeeeeeeeeee",
                "decimals": 18
            }
        ]
    },
    "address_label": {
        "labels": [
            {
                "address": "0x3a966ffa8451cbf3769b7d1f94d5b47da254edb0",
                "label": "Play0x_LottoBall"
            },
            {
                "address": "0x0000000000000000000000000000000000000001",
                "label": "Precompiled"
            },
            {
                "address": "0x0000000000000000000000000000000000000002",
                "label": "Precompiled"
            },
            {
                "address": "0x0000000000000000000000000000000000000003",
                "label": "Precompiled"
            },
            {
                "address": "0x0000000000000000000000000000000000000004",
                "label": "Precompiled"
            },
            {
                "address": "0xeeeeeeeeeeeeeeeeeeeeeeeeeeeeeeeeeeeeeeee",
                "label": "Ether"
            }
        ]
    },
    "trace": {
        "accountLabels": null,
        "dataMap": {
            "-1": {
                "invocation": {
                    "address": "0x33333333039a03aaa0f80e5420aa9fab157b0b01",
                    "callData": "",
                    "decodedMethod": null,
                    "errorInfo": "",
                    "fromAddress": "",
                    "gasUsed": 0,
                    "id": -1,
                    "methodDecoded": false,
                    "operation": "",
                    "output": "",
                    "revert": false,
                    "revertMessage": "",
                    "selector": "",
                    "status": false,
                    "value": ""
                },
                "nodeType": 0
            },
            "0": {
                "invocation": {
                    "address": "0x3a966ffa8451cbf3769b7d1f94d5b47da254edb0",
                    "callData": "0x00000000000000000000000000000000000000000000000000000000000000403866d5b9b3b2ad1a5d84f5fc55b1325c45eb3e6f137477944de878c4b817bf83000000000000000000000000000000000000000000000000000000000000000c000000000000000000000000000000000000000000000000000000000000000f000000000000000000000000000000000000000000000000000000000000290400000000000000000000000000000000000000000000000000000000000000020000000000000000000000000000000000000000000000000000000000000000000000000000000000000000000000000000000000000000000000000000000e00000000000000000000000000000000000000000000000000ba8478cab5400000000000000000000000000000000000000000000000000000b1a2bc2ec50000000000000000000000000000000000000000000000000000017508f1956a800000000000000000000000000000000000000000000000000034306237656162380000000000000000000000000000000000000000000000000001c6bf5263400000000000000000000000000000000000000000000000000000000000000000022e677dbae589a6bb99695156ee516ec70c9b27e79b55cae7f317d1c45f0f6340",
                    "decodedMethod": {
                        "callParams": [
                            {
                                "name": "combinationParameter",
                                "type": "uint256[]",
                                "value": [
                                    "15",
                                    "10,500",
                                    "2",
                                    "0",
                                    "14",
                                    "52,500,000,000,000,000",
                                    "50,000,000,000,000,000",
                                    "105,000,000,000,000,000",
                                    "3,760,613,678,917,968,440",
                                    "500,000,000,000,000",
                                    "2",
                                    "20,989,244,039,518,997,614,095,277,253,109,075,339,266,939,586,181,437,004,632,468,458,402,091,066,176"
                                ]
                            },
                            {
                                "name": "blockHash",
                                "type": "bytes32",
                                "value": "0x3866d5b9b3b2ad1a5d84f5fc55b1325c45eb3e6f137477944de878c4b817bf83"
                            }
                        ],
                        "constructorArguments": "",
                        "name": "settleBet",
                        "returnParams": [],
                        "signature": "settleBet(uint256[],bytes32)"
                    },
                    "errorInfo": "",
                    "fromAddress": "0x33333333039a03aaa0f80e5420aa9fab157b0b01",
                    "gasUsed": 53662,
                    "id": 0,
                    "methodDecoded": true,
                    "operation": "CALL",
                    "output": "",
                    "revert": false,
                    "revertMessage": "",
                    "selector": "0xd365a3fb",
                    "status": true,
                    "value": "0"
                },
                "nodeType": 0
            },
            "1": {
                "event": {
                    "contract": "0x3a966ffa8451cbf3769b7d1f94d5b47da254edb0",
                    "decodedLog": {
                        "name": "BetRelatedData",
                        "params": [
                            {
                                "name": "player",
                                "type": "address",
                                "value": "0x8c90e2d6af9bd3810a38984357430eb240b7eab8"
                            },
                            {
                                "name": "playerBetAmount",
                                "type": "uint256",
                                "value": "100,000,000,000,000,000"
                            },
                            {
                                "name": "playerGetAmount",
                                "type": "uint256",
                                "value": "103,500,000,000,000,000"
                            },
                            {
                                "name": "entropy",
                                "type": "bytes32",
                                "value": "0xb2a38da8105241f94068533c462913b5da3fb39bdc1aeec5f47cb565ba2fdbe7"
                            },
                            {
                                "name": "entropy2",
                                "type": "bytes32",
                                "value": "0x81cf03f2253fbc297ebfd3a1f78aaa51408efee0b063525d7a7e038a2ee73434"
                            },
                            {
                                "name": "Uplimit",
                                "type": "uint8",
                                "value": "15"
                            },
                            {
                                "name": "rotateTime",
                                "type": "uint8",
                                "value": "2"
                            }
                        ],
                        "signature": "BetRelatedData(address,uint256,uint256,bytes32,bytes32,uint8,uint8)"
                    },
                    "id": 1,
                    "logData": "0x000000000000000000000000000000000000000000000000016345785d8a0000000000000000000000000000000000000000000000000000016fb4b39e40c000b2a38da8105241f94068533c462913b5da3fb39bdc1aeec5f47cb565ba2fdbe781cf03f2253fbc297ebfd3a1f78aaa51408efee0b063525d7a7e038a2ee73434000000000000000000000000000000000000000000000000000000000000000f0000000000000000000000000000000000000000000000000000000000000002",
                    "logDecoded": true,
                    "operation": "EVENT",
                    "revert": false,
                    "status": true,
                    "topics": [
                        "0xdc1a0794dc88e281a93fbca38d11fc32f4b77eadcd69a4a06e836caac2de7982",
                        "0x0000000000000000000000008c90e2d6af9bd3810a38984357430eb240b7eab8"
                    ]
                },
                "nodeType": 1
            },
            "2": {
                "invocation": {
                    "address": "0x8c90e2d6af9bd3810a38984357430eb240b7eab8",
                    "callData": "0x",
                    "decodedMethod": null,
                    "errorInfo": "",
                    "fromAddress": "0x3a966ffa8451cbf3769b7d1f94d5b47da254edb0",
                    "gasUsed": 0,
                    "id": 2,
                    "methodDecoded": false,
                    "operation": "CALL",
                    "output": "",
                    "revert": false,
                    "revertMessage": "",
                    "selector": "fallback",
                    "status": true,
                    "value": "0.1035"
                },
                "nodeType": 0
            },
            "3": {
                "event": {
                    "contract": "0x3a966ffa8451cbf3769b7d1f94d5b47da254edb0",
                    "decodedLog": {
                        "name": "Payment",
                        "params": [
                            {
                                "name": "beneficiary",
                                "type": "address",
                                "value": "0x8c90e2d6af9bd3810a38984357430eb240b7eab8"
                            },
                            {
                                "name": "amount",
                                "type": "uint256",
                                "value": "103,500,000,000,000,000"
                            }
                        ],
                        "signature": "Payment(address,uint256)"
                    },
                    "id": 3,
                    "logData": "0x000000000000000000000000000000000000000000000000016fb4b39e40c000",
                    "logDecoded": true,
                    "operation": "EVENT",
                    "revert": false,
                    "status": true,
                    "topics": [
                        "0xd4f43975feb89f48dd30cabbb32011045be187d1e11c8ea9faa43efc35282519",
                        "0x0000000000000000000000008c90e2d6af9bd3810a38984357430eb240b7eab8"
                    ]
                },
                "nodeType": 1
            }
        },
        "gasFlame": [
            {
                "children": [
                    {
                        "children": [
                            {
                                "children": [],
                                "depth": 0,
                                "name": "Initial Gas",
                                "value": 29848
                            },
                            {
                                "children": [
                                    {
                                        "children": [],
                                        "depth": 1,
                                        "name": "fallback",
                                        "value": 0
                                    }
                                ],
                                "depth": 0,
                                "name": "Executed Gas",
                                "value": 38814
                            }
                        ],
                        "depth": -1,
                        "name": "Actual Gas Used",
                        "value": 53662
                    },
                    {
                        "children": [],
                        "depth": -1,
                        "name": "Refunded Gas",
                        "value": 15000
                    }
                ],
                "depth": -2,
                "name": "Total Gas",
                "value": 68662
            }
        ],
        "isConfirmed": true,
        "mainTrace": [
            {
                "children": [
                    {
                        "children": [
                            {
                                "children": [],
                                "depth": 1,
                                "id": 1,
                                "order": 1
                            },
                            {
                                "children": [],
                                "depth": 1,
                                "id": 2,
                                "order": 2
                            },
                            {
                                "children": [],
                                "depth": 1,
                                "id": 3,
                                "order": 3
                            }
                        ],
                        "depth": 0,
                        "id": 0,
                        "order": 0
                    }
                ],
                "depth": -1,
                "id": -1,
                "order": -1
            }
        ],
        "mainTraceNodeCount": 4,
        "parentIdMap": {
            "0": -1,
            "1": 0,
            "2": 0,
            "3": 0
        },
        "tidyTrace": [
            {
                "children": [
                    {
                        "children": [
                            {
                                "children": [],
                                "depth": 1,
                                "id": 1,
                                "order": 1
                            },
                            {
                                "children": [],
                                "depth": 1,
                                "id": 2,
                                "order": 2
                            },
                            {
                                "children": [],
                                "depth": 1,
                                "id": 3,
                                "order": 3
                            }
                        ],
                        "depth": 0,
                        "id": 0,
                        "order": 0
                    }
                ],
                "depth": -1,
                "id": -1,
                "order": -1
            }
        ],
        "tidyTraceNodeCount": 4
    },
    "state_change": {
        "stateChanges": [
            {
                "address": "0x3a966ffa8451cbf3769b7d1f94d5b47da254edb0",
                "erc": "",
                "slots": [
                    {
                        "current": "0x0000000000000000000000000000000000000000000000000000000000000000",
                        "key": "0xe2452192e5338e375d100d5b394850e7ebea9fc642e9d4ba569a0c615bddb1ba",
                        "prev": "0x000000000000000000000000000000000000000000000000016345785d8a0000"
                    },
                    {
                        "current": "0x00000000000000000000000000000000000000000000000011e7b18449fc3000",
                        "key": "0x0000000000000000000000000000000000000000000000000000000000000000",
                        "prev": "0x00000000000000000000000000000000000000000000000011e5eac4f798f000"
                    },
                    {
                        "current": "0x000000000000000000000000000000000000000000000000065ac99fbaa6c0f0",
                        "key": "0x0000000000000000000000000000000000000000000000000000000000000008",
                        "prev": "0x00000000000000000000000000000000000000000000000007cfd291501140f0"
                    }
                ],
                "storageVariables": [
                    {
                        "name": "bets",
                        "type": "mapping(uint256 => struct Play0x_LottoBall.Bet)",
                        "value": {
                            "pairs": [
                                {
                                    "key": "21440753404653268432340152228942553458238077479933173531704497618423660651815",
                                    "value": {
                                        "fields": [
                                            {
                                                "name": "amount",
                                                "type": "uint256",
                                                "value": {
                                                    "current": "0",
                                                    "prev": "100000000000000000",
                                                    "typeTag": 1
                                                }
                                            }
                                        ],
                                        "typeTag": 3
                                    }
                                }
                            ],
                            "typeTag": 4
                        }
                    },
                    {
                        "name": "jackpotSize",
                        "type": "uint256",
                        "value": {
                            "current": "1290195000000000000",
                            "prev": "1289695000000000000",
                            "typeTag": 1
                        }
                    },
                    {
                        "name": "lockedInBets",
                        "type": "uint256",
                        "value": {
                            "current": "457900000000000240",
                            "prev": "562900000000000240",
                            "typeTag": 1
                        }
                    }
                ]
            }
        ]
    }
}