{
    "balance_change": {
        "balanceChanges": [
            {
                "account": "0x8bc73e82aa17f8de2a6f57fdca33c07e651042be",
                "assets": [
                    {
                        "address": "0xa701122c1b67220a8b6883d03c8ad67896b12466",
                        "amount": "250",
                        "iconUrl": "",
                        "isERC1155": false,
                        "isERC721": false,
                        "sign": false,
                        "value": ""
                    }
                ]
            },
            {
                "account": "0x9c62f2d13e9384c853e8fa23e71b3e8c155ffcfc",
                "assets": [
                    {
                        "address": "0xa701122c1b67220a8b6883d03c8ad67896b12466",
                        "amount": "250",
                        "iconUrl": "",
                        "isERC1155": false,
                        "isERC721": false,
                        "sign": true,
                        "value": ""
                    }
                ]
            }
        ]
    },
    "profile": {
        "basic_info": {
            "baseFee": "",
            "blockNumber": 5832707,
            "callData": "0xa9059cbb0000000000000000000000009c62f2d13e9384c853e8fa23e71b3e8c155ffcfc00000000000000000000000000000000000000000000000000000005d21dba00",
            "debugEnable": true,
            "errorInfo": "",
            "eventCount": 1,
            "feeRecipient": "0x829bd824b016326a401d083b33d092293333a830",
            "formatValue": "0",
            "gasLimit": 60000,
            "gasPrice": "1",
            "gasUsed": 21959,
            "intTxnCount": 0,
            "internalRevert": false,
            "internalRevertMessage": "",
            "isContractCreation": false,
            "isFlashloan": false,
            "maxFee": "",
            "nonce": 4,
            "overwritedBlockNumber": -1,
            "priorityFee": "",
            "receiver": "0xa701122c1b67220a8b6883d03c8ad67896b12466",
            "revertMessage": "",
            "sender": "0x8bc73e82aa17f8de2a6f57fdca33c07e651042be",
            "simulationEnable": true,
            "sourceTxnHash": "0x9574ceaf9014d3e5026f47e34f4fec7ddd1d89a801d406391a93b923a1674e13",
            "status": true,
            "timestamp": "2018-06-22T06:12:05Z",
            "transactionFee": "0.000021959",
            "txnHash": "0x9574ceaf9014d3e5026f47e34f4fec7ddd1d89a801d406391a93b923a1674e13",
            "txnIndex": 96,
            "type": 0,
            "value": "0"
        },
        "fund_flow": [
            {
                "amount": "250",
                "from": "0x8bc73e82aa17f8de2a6f57fdca33c07e651042be",
                "id": 1,
                "isERC1155": false,
                "isERC721": false,
                "isReverted": false,
                "order": 1,
                "to": "0x9c62f2d13e9384c853e8fa23e71b3e8c155ffcfc",
                "token": "0xa701122c1b67220a8b6883d03c8ad67896b12466"
            }
        ],
        "token_infos": [
            {
                "address": "0xa701122c1b67220a8b6883d03c8ad67896b12466",
                "decimals": 8
            },
            {
                "address": "0xc02aaa39b223fe8d0a0e5c4f27ead9083c756cc2",
                "decimals": 18
            },
            {
                "address": "0xeeeeeeeeeeeeeeeeeeeeeeeeeeeeeeeeeeeeeeee",
                "decimals": 18
            }
        ]
    },
    "address_label": {
        "labels": [
            {
                "address": "0x0000000000000000000000000000000000000002",
                "label": "Precompiled"
            },
            {
                "address": "0x0000000000000000000000000000000000000003",
                "label": "Precompiled"
            },
            {
                "address": "0x0000000000000000000000000000000000000004",
                "label": "Precompiled"
            },
            {
                "address": "0xeeeeeeeeeeeeeeeeeeeeeeeeeeeeeeeeeeeeeeee",
                "label": "Ether"
            },
            {
                "address": "0xa701122c1b67220a8b6883d03c8ad67896b12466",
                "label": "BrofistCoin: PEW Token"
            },
            {
                "address": "0x0000000000000000000000000000000000000001",
                "label": "Precompiled"
            }
        ]
    },
    "trace": {
        "accountLabels": null,
        "dataMap": {
            "-1": {
                "invocation": {
                    "address": "0x8bc73e82aa17f8de2a6f57fdca33c07e651042be",
                    "callData": "",
                    "decodedMethod": null,
                    "errorInfo": "",
                    "fromAddress": "",
                    "gasUsed": 0,
                    "id": -1,
                    "methodDecoded": false,
                    "operation": "",
                    "output": "",
                    "revert": false,
                    "revertMessage": "",
                    "selector": "",
                    "status": false,
                    "value": ""
                },
                "nodeType": 0
            },
            "0": {
                "invocation": {
                    "address": "0xa701122c1b67220a8b6883d03c8ad67896b12466",
                    "callData": "0x0000000000000000000000009c62f2d13e9384c853e8fa23e71b3e8c155ffcfc00000000000000000000000000000000000000000000000000000005d21dba00",
                    "decodedMethod": {
                        "callParams": [
                            {
                                "name": "_to",
                                "type": "address",
                                "value": "0x9c62f2d13e9384c853e8fa23e71b3e8c155ffcfc"
                            },
                            {
                                "decimalAvailable": true,
                                "name": "_amount",
                                "type": "uint256",
                                "value": "25,000,000,000"
                            }
                        ],
                        "constructorArguments": "",
                        "name": "transfer",
                        "returnParams": [
                            {
                                "name": "success",
                                "type": "bool",
                                "value": true
                            }
                        ],
                        "signature": "transfer(address,uint256)"
                    },
                    "errorInfo": "",
                    "fromAddress": "0x8bc73e82aa17f8de2a6f57fdca33c07e651042be",
                    "gasUsed": 21959,
                    "id": 0,
                    "methodDecoded": true,
                    "operation": "CALL",
                    "output": "0x0000000000000000000000000000000000000000000000000000000000000001",
                    "revert": false,
                    "revertMessage": "",
                    "selector": "0xa9059cbb",
                    "status": true,
                    "value": "0"
                },
                "nodeType": 0
            },
            "1": {
                "event": {
                    "contract": "0xa701122c1b67220a8b6883d03c8ad67896b12466",
                    "decodedLog": {
                        "name": "Transfer",
                        "params": [
                            {
                                "name": "_from",
                                "type": "address",
                                "value": "0x8bc73e82aa17f8de2a6f57fdca33c07e651042be"
                            },
                            {
                                "name": "_to",
                                "type": "address",
                                "value": "0x9c62f2d13e9384c853e8fa23e71b3e8c155ffcfc"
                            },
                            {
                                "decimalAvailable": true,
                                "name": "_value",
                                "type": "uint256",
                                "value": "25,000,000,000"
                            }
                        ],
                        "signature": "Transfer(address,address,uint256)"
                    },
                    "id": 1,
                    "logData": "0x00000000000000000000000000000000000000000000000000000005d21dba00",
                    "logDecoded": true,
                    "operation": "EVENT",
                    "revert": false,
                    "status": true,
                    "topics": [
                        "0xddf252ad1be2c89b69c2b068fc378daa952ba7f163c4a11628f55a4df523b3ef",
                        "0x0000000000000000000000008bc73e82aa17f8de2a6f57fdca33c07e651042be",
                        "0x0000000000000000000000009c62f2d13e9384c853e8fa23e71b3e8c155ffcfc"
                    ]
                },
                "nodeType": 1
            }
        },
        "gasFlame": [
            {
                "children": [
                    {
                        "children": [
                            {
                                "children": [],
                                "depth": 0,
                                "name": "Initial Gas",
                                "value": 23064
                            },
                            {
                                "children": [],
                                "depth": 0,
                                "name": "Executed Gas",
                                "value": 13895
                            }
                        ],
                        "depth": -1,
                        "name": "Actual Gas Used",
                        "value": 21959
                    },
                    {
                        "children": [],
                        "depth": -1,
                        "name": "Refunded Gas",
                        "value": 15000
                    }
                ],
                "depth": -2,
                "name": "Total Gas",
                "value": 36959
            }
        ],
        "isConfirmed": true,
        "mainTrace": [
            {
                "children": [
                    {
                        "children": [
                            {
                                "children": [],
                                "depth": 1,
                                "id": 1,
                                "order": 1
                            }
                        ],
                        "depth": 0,
                        "id": 0,
                        "order": 0
                    }
                ],
                "depth": -1,
                "id": -1,
                "order": -1
            }
        ],
        "mainTraceNodeCount": 2,
        "parentIdMap": {
            "0": -1,
            "1": 0
        },
        "tidyTrace": [
            {
                "children": [
                    {
                        "children": [
                            {
                                "children": [],
                                "depth": 1,
                                "id": 1,
                                "order": 1
                            }
                        ],
                        "depth": 0,
                        "id": 0,
                        "order": 0
                    }
                ],
                "depth": -1,
                "id": -1,
                "order": -1
            }
        ],
        "tidyTraceNodeCount": 2
    },
    "state_change": {
        "stateChanges": [
            {
                "address": "0xa701122c1b67220a8b6883d03c8ad67896b12466",
                "erc": "ERC-20",
                "slots": [
                    {
                        "current": "0x0000000000000000000000000000000000000000000000000000000000000000",
                        "key": "0x2e8063ecbeea71b03780d6a2d0436f2a237efcbfa21638189908743c468611e1",
                        "prev": "0x00000000000000000000000000000000000000000000000000000005d21dba00"
                    },
                    {
                        "current": "0x0000000000000000000000000000000000000000000000000000078da8932a00",
                        "key": "0xe87b7d12037d1d267fd05b0d7c77901644791431dd93251b2f00e3b0aef6e3d4",
                        "prev": "0x00000000000000000000000000000000000000000000000000000787d6757000"
                    }
                ],
                "storageVariables": [
                    {
                        "name": "balances",
                        "type": "mapping(address => uint256)",
                        "value": {
                            "pairs": [
                                {
                                    "key": "0x8bc73e82aa17f8de2a6f57fdca33c07e651042be",
                                    "value": {
                                        "current": "0",
                                        "prev": "25000000000",
                                        "typeTag": 1
                                    }
                                },
                                {
                                    "key": "0x9c62f2d13e9384c853e8fa23e71b3e8c155ffcfc",
                                    "value": {
                                        "current": "8305000000000",
                                        "prev": "8280000000000",
                                        "typeTag": 1
                                    }
                                }
                            ],
                            "typeTag": 4
                        }
                    }
                ]
            }
        ]
    }
}