{
    "balance_change": {
        "balanceChanges": []
    },
    "profile": {
        "basic_info": {
            "baseFee": "",
            "blockNumber": 12894562,
            "callData": "0xa8a41c700000000000000000000000007be8076f4ea4a4ad08075c2508e481d6c946d12b000000000000000000000000eb311c71459d04fa75f0be04015b7dcb46bfd9db00000000000000000000000000000000000000000000000000000000000000000000000000000000000000005b3256965e7c3cf26e11fcaf296dfc8807c01073000000000000000000000000b159f1a0920a7f1d336397a52d92da94b12798380000000000000000000000000000000000000000000000000000000000000000000000000000000000000000000000000000000000000000000000000000000000000000000000000000000000000000000000000000000000000000000002ee0000000000000000000000000000000000000000000000000000000000000000000000000000000000000000000000000000000000000000000000000000000000000000000000000000000000000000000000000000000000000000000000000000000000000000000000000000000000000000000000000d2f13f7789f000000000000000000000000000000000000000000000000000000000000000000000000000000000000000000000000000000000000000000000000000060fc220f000000000000000000000000000000000000000000000000000000000000000056f6824252d8f0ad12bf81c85194191e72d6f34f4398f875af85bec86c6315010000000000000000000000000000000000000000000000000000000000000001000000000000000000000000000000000000000000000000000000000000000100000000000000000000000000000000000000000000000000000000000000000000000000000000000000000000000000000000000000000000000000000000000000000000000000000000000000000000000000000000000000000000034000000000000000000000000000000000000000000000000000000000000003e00000000000000000000000000000000000000000000000000000000000000480000000000000000000000000000000000000000000000000000000000000001b61d7ce5a38e4a67527e153b08ffc3be675b6f4708f6f6621852086495a55ab0f5093501ac75bc912131162dec9f8b52e12ad5ca1f48279804c919f14b9548287000000000000000000000000000000000000000000000000000000000000006423b872dd000000000000000000000000eb311c71459d04fa75f0be04015b7dcb46bfd9db0000000000000000000000000000000000000000000000000000000000000000000000000000000000000000000000000000000000000000000000000000028e000000000000000000000000000000000000000000000000000000000000000000000000000000000000000000000000000000000000000000000064000000000000000000000000000000000000000000000000000000000000000000000000ffffffffffffffffffffffffffffffffffffffffffffffffffffffffffffffff0000000000000000000000000000000000000000000000000000000000000000000000000000000000000000000000000000000000000000000000000000000000000000000000000000000000000000000000000000000000000000",
            "debugEnable": true,
            "errorInfo": "",
            "eventCount": 1,
            "feeRecipient": "0xb7e390864a90b7b923c9f9310c6f98aafe43f707",
            "formatValue": "0",
            "gasLimit": 74926,
            "gasPrice": "15",
            "gasUsed": 74926,
            "intTxnCount": 1,
            "internalRevert": false,
            "internalRevertMessage": "",
            "isContractCreation": false,
            "isFlashloan": false,
            "maxFee": "",
            "nonce": 851,
            "overwritedBlockNumber": -1,
            "priorityFee": "",
            "receiver": "0x7be8076f4ea4a4ad08075c2508e481d6c946d12b",
            "revertMessage": "",
            "sender": "0xeb311c71459d04fa75f0be04015b7dcb46bfd9db",
            "simulationEnable": true,
            "sourceTxnHash": "0x9506768c5fde1087e75a1e6904a79aa82489a36513ec3b9d0107ffd9e504a730",
            "status": true,
            "timestamp": "2021-07-25T09:09:29Z",
            "transactionFee": "0.00112389",
            "txnHash": "0x9506768c5fde1087e75a1e6904a79aa82489a36513ec3b9d0107ffd9e504a730",
            "txnIndex": 114,
            "type": 0,
            "value": "0"
        },
        "fund_flow": [],
        "token_infos": [
            {
                "address": "0xc02aaa39b223fe8d0a0e5c4f27ead9083c756cc2",
                "decimals": 18
            },
            {
                "address": "0xeeeeeeeeeeeeeeeeeeeeeeeeeeeeeeeeeeeeeeee",
                "decimals": 18
            }
        ]
    },
    "address_label": {
        "labels": [
            {
                "address": "0xb159f1a0920a7f1d336397a52d92da94b1279838",
                "label": "Royal Society of Players: ROYALSOCIETY Token"
            },
            {
                "address": "0x0000000000000000000000000000000000000001",
                "label": "Precompiled"
            },
            {
                "address": "0x0000000000000000000000000000000000000002",
                "label": "Precompiled"
            },
            {
                "address": "0x0000000000000000000000000000000000000003",
                "label": "Precompiled"
            },
            {
                "address": "0x0000000000000000000000000000000000000004",
                "label": "Precompiled"
            },
            {
                "address": "0xeeeeeeeeeeeeeeeeeeeeeeeeeeeeeeeeeeeeeeee",
                "label": "Ether"
            },
            {
                "address": "0x5b3256965e7c3cf26e11fcaf296dfc8807c01073",
                "label": "OpenSea: Wallet"
            },
            {
                "address": "0x7be8076f4ea4a4ad08075c2508e481d6c946d12b",
                "label": "OpenSea: Wyvern Exchange v1"
            },
            {
                "address": "0x0000000000000000000000000000000000000000",
                "label": "Null Address"
            }
        ]
    },
    "trace": {
        "accountLabels": null,
        "dataMap": {
            "-1": {
                "invocation": {
                    "address": "0xeb311c71459d04fa75f0be04015b7dcb46bfd9db",
                    "callData": "",
                    "decodedMethod": null,
                    "errorInfo": "",
                    "fromAddress": "",
                    "gasUsed": 0,
                    "id": -1,
                    "methodDecoded": false,
                    "operation": "",
                    "output": "",
                    "revert": false,
                    "revertMessage": "",
                    "selector": "",
                    "status": false,
                    "value": ""
                },
                "nodeType": 0
            },
            "0": {
                "invocation": {
                    "address": "0x7be8076f4ea4a4ad08075c2508e481d6c946d12b",
                    "callData": "0x0000000000000000000000007be8076f4ea4a4ad08075c2508e481d6c946d12b000000000000000000000000eb311c71459d04fa75f0be04015b7dcb46bfd9db00000000000000000000000000000000000000000000000000000000000000000000000000000000000000005b3256965e7c3cf26e11fcaf296dfc8807c01073000000000000000000000000b159f1a0920a7f1d336397a52d92da94b12798380000000000000000000000000000000000000000000000000000000000000000000000000000000000000000000000000000000000000000000000000000000000000000000000000000000000000000000000000000000000000000000002ee0000000000000000000000000000000000000000000000000000000000000000000000000000000000000000000000000000000000000000000000000000000000000000000000000000000000000000000000000000000000000000000000000000000000000000000000000000000000000000000000000d2f13f7789f000000000000000000000000000000000000000000000000000000000000000000000000000000000000000000000000000000000000000000000000000060fc220f000000000000000000000000000000000000000000000000000000000000000056f6824252d8f0ad12bf81c85194191e72d6f34f4398f875af85bec86c6315010000000000000000000000000000000000000000000000000000000000000001000000000000000000000000000000000000000000000000000000000000000100000000000000000000000000000000000000000000000000000000000000000000000000000000000000000000000000000000000000000000000000000000000000000000000000000000000000000000000000000000000000000000034000000000000000000000000000000000000000000000000000000000000003e00000000000000000000000000000000000000000000000000000000000000480000000000000000000000000000000000000000000000000000000000000001b61d7ce5a38e4a67527e153b08ffc3be675b6f4708f6f6621852086495a55ab0f5093501ac75bc912131162dec9f8b52e12ad5ca1f48279804c919f14b9548287000000000000000000000000000000000000000000000000000000000000006423b872dd000000000000000000000000eb311c71459d04fa75f0be04015b7dcb46bfd9db0000000000000000000000000000000000000000000000000000000000000000000000000000000000000000000000000000000000000000000000000000028e000000000000000000000000000000000000000000000000000000000000000000000000000000000000000000000000000000000000000000000064000000000000000000000000000000000000000000000000000000000000000000000000ffffffffffffffffffffffffffffffffffffffffffffffffffffffffffffffff0000000000000000000000000000000000000000000000000000000000000000000000000000000000000000000000000000000000000000000000000000000000000000000000000000000000000000000000000000000000000000",
                    "decodedMethod": {
                        "callParams": [
                            {
                                "name": "addrs",
                                "type": "address[7]",
                                "value": [
                                    "0x7be8076f4ea4a4ad08075c2508e481d6c946d12b",
                                    "0xeb311c71459d04fa75f0be04015b7dcb46bfd9db",
                                    "0x0000000000000000000000000000000000000000",
                                    "0x5b3256965e7c3cf26e11fcaf296dfc8807c01073",
                                    "0xb159f1a0920a7f1d336397a52d92da94b1279838",
                                    "0x0000000000000000000000000000000000000000",
                                    "0x0000000000000000000000000000000000000000"
                                ]
                            },
                            {
                                "name": "uints",
                                "type": "uint256[9]",
                                "value": [
                                    "750",
                                    "0",
                                    "0",
                                    "0",
                                    "950,000,000,000,000,000",
                                    "0",
                                    "1,627,136,527",
                                    "0",
                                    "39,334,448,371,202,806,664,863,920,181,576,084,748,635,486,111,787,920,008,408,548,410,909,840,839,937"
                                ]
                            },
                            {
                                "name": "feeMethod",
                                "type": "uint8",
                                "value": "1"
                            },
                            {
                                "name": "side",
                                "type": "uint8",
                                "value": "1"
                            },
                            {
                                "name": "saleKind",
                                "type": "uint8",
                                "value": "0"
                            },
                            {
                                "name": "howToCall",
                                "type": "uint8",
                                "value": "0"
                            },
                            {
                                "name": "calldata",
                                "type": "bytes",
                                "value": "0x23b872dd000000000000000000000000eb311c71459d04fa75f0be04015b7dcb46bfd9db0000000000000000000000000000000000000000000000000000000000000000000000000000000000000000000000000000000000000000000000000000028e"
                            },
                            {
                                "name": "replacementPattern",
                                "type": "bytes",
                                "value": "0x000000000000000000000000000000000000000000000000000000000000000000000000ffffffffffffffffffffffffffffffffffffffffffffffffffffffffffffffff0000000000000000000000000000000000000000000000000000000000000000"
                            },
                            {
                                "name": "staticExtradata",
                                "type": "bytes",
                                "value": "0x"
                            },
                            {
                                "name": "v",
                                "type": "uint8",
                                "value": "27"
                            },
                            {
                                "name": "r",
                                "type": "bytes32",
                                "value": "0x61d7ce5a38e4a67527e153b08ffc3be675b6f4708f6f6621852086495a55ab0f"
                            },
                            {
                                "name": "s",
                                "type": "bytes32",
                                "value": "0x5093501ac75bc912131162dec9f8b52e12ad5ca1f48279804c919f14b9548287"
                            }
                        ],
                        "constructorArguments": "",
                        "name": "cancelOrder_",
                        "returnParams": [],
                        "signature": "cancelOrder_(address[7],uint256[9],uint8,uint8,uint8,uint8,bytes,bytes,bytes,uint8,bytes32,bytes32)"
                    },
                    "errorInfo": "",
                    "fromAddress": "0xeb311c71459d04fa75f0be04015b7dcb46bfd9db",
                    "gasUsed": 74926,
                    "id": 0,
                    "methodDecoded": true,
                    "operation": "CALL",
                    "output": "",
                    "revert": false,
                    "revertMessage": "",
                    "selector": "0xa8a41c70",
                    "status": true,
                    "value": "0"
                },
                "nodeType": 0
            },
            "1": {
                "invocation": {
                    "address": "0x0000000000000000000000000000000000000001",
                    "callData": "0x36b35254a4ae49a77df9d260441b13f6e5e7a52458204d0813f9d8e9000000000000000000000000000000000000000000000000000000000000001b61d7ce5a38e4a67527e153b08ffc3be675b6f4708f6f6621852086495a55ab0f5093501ac75bc912131162dec9f8b52e12ad5ca1f48279804c919f14b9548287",
                    "decodedMethod": {
                        "callParams": [
                            {
                                "name": "hash",
                                "type": "bytes32",
                                "value": "0xb3472eab36b35254a4ae49a77df9d260441b13f6e5e7a52458204d0813f9d8e9"
                            },
                            {
                                "name": "v",
                                "type": "uint256",
                                "value": "27"
                            },
                            {
                                "name": "r",
                                "type": "bytes32",
                                "value": "0x61d7ce5a38e4a67527e153b08ffc3be675b6f4708f6f6621852086495a55ab0f"
                            },
                            {
                                "name": "s",
                                "type": "bytes32",
                                "value": "0x5093501ac75bc912131162dec9f8b52e12ad5ca1f48279804c919f14b9548287"
                            }
                        ],
                        "constructorArguments": "",
                        "name": "ecrecover",
                        "returnParams": [
                            {
                                "name": "",
                                "type": "address",
                                "value": "0xeb311c71459d04fa75f0be04015b7dcb46bfd9db"
                            }
                        ],
                        "signature": "ecrecover(bytes32,uint256,bytes32,bytes32)"
                    },
                    "errorInfo": "",
                    "fromAddress": "0x7be8076f4ea4a4ad08075c2508e481d6c946d12b",
                    "gasUsed": 3000,
                    "id": 1,
                    "methodDecoded": true,
                    "operation": "CALL",
                    "output": "0x000000000000000000000000eb311c71459d04fa75f0be04015b7dcb46bfd9db",
                    "revert": false,
                    "revertMessage": "",
                    "selector": "0xb3472eab",
                    "status": true,
                    "value": "0"
                },
                "nodeType": 0
            },
            "2": {
                "event": {
                    "contract": "0x7be8076f4ea4a4ad08075c2508e481d6c946d12b",
                    "decodedLog": {
                        "name": "OrderCancelled",
                        "params": [
                            {
                                "name": "hash",
                                "type": "bytes32",
                                "value": "0xb3472eab36b35254a4ae49a77df9d260441b13f6e5e7a52458204d0813f9d8e9"
                            }
                        ],
                        "signature": "OrderCancelled(bytes32)"
                    },
                    "id": 2,
                    "logData": "0x",
                    "logDecoded": true,
                    "operation": "EVENT",
                    "revert": false,
                    "status": true,
                    "topics": [
                        "0x5152abf959f6564662358c2e52b702259b78bac5ee7842a0f01937e670efcc7d",
                        "0xb3472eab36b35254a4ae49a77df9d260441b13f6e5e7a52458204d0813f9d8e9"
                    ]
                },
                "nodeType": 1
            }
        },
        "gasFlame": [
            {
                "children": [
                    {
                        "children": [
                            {
                                "children": [],
                                "depth": 0,
                                "name": "Initial Gas",
                                "value": 28884
                            },
                            {
                                "children": [
                                    {
                                        "children": [],
                                        "depth": 1,
                                        "name": "ecrecover",
                                        "value": 3000
                                    }
                                ],
                                "depth": 0,
                                "name": "Executed Gas",
                                "value": 46042
                            }
                        ],
                        "depth": -1,
                        "name": "Actual Gas Used",
                        "value": 74926
                    },
                    {
                        "children": [],
                        "depth": -1,
                        "name": "Refunded Gas",
                        "value": 0
                    }
                ],
                "depth": -2,
                "name": "Total Gas",
                "value": 74926
            }
        ],
        "isConfirmed": true,
        "mainTrace": [
            {
                "children": [
                    {
                        "children": [
                            {
                                "children": [],
                                "depth": 1,
                                "id": 1,
                                "order": 1
                            },
                            {
                                "children": [],
                                "depth": 1,
                                "id": 2,
                                "order": 2
                            }
                        ],
                        "depth": 0,
                        "id": 0,
                        "order": 0
                    }
                ],
                "depth": -1,
                "id": -1,
                "order": -1
            }
        ],
        "mainTraceNodeCount": 3,
        "parentIdMap": {
            "0": -1,
            "1": 0,
            "2": 0
        },
        "tidyTrace": [
            {
                "children": [
                    {
                        "children": [
                            {
                                "children": [],
                                "depth": 1,
                                "id": 1,
                                "order": 1
                            },
                            {
                                "children": [],
                                "depth": 1,
                                "id": 2,
                                "order": 2
                            }
                        ],
                        "depth": 0,
                        "id": 0,
                        "order": 0
                    }
                ],
                "depth": -1,
                "id": -1,
                "order": -1
            }
        ],
        "tidyTraceNodeCount": 3
    },
    "state_change": {
        "stateChanges": [
            {
                "address": "0x7be8076f4ea4a4ad08075c2508e481d6c946d12b",
                "erc": "",
                "slots": [
                    {
                        "current": "0x0000000000000000000000000000000000000000000000000000000000000001",
                        "key": "0xbc4fabf34c217a836e016f294487f6cb713188f78b3752b7cf66d5e1b492fbd5",
                        "prev": "0x0000000000000000000000000000000000000000000000000000000000000000"
                    }
                ],
                "storageVariables": [
                    {
                        "name": "cancelledOrFinalized",
                        "type": "mapping(bytes32 => bool)",
                        "value": {
                            "pairs": [
                                {
                                    "key": "0xb3472eab36b35254a4ae49a77df9d260441b13f6e5e7a52458204d0813f9d8e9",
                                    "value": {
                                        "current": "true",
                                        "prev": "false",
                                        "typeTag": 1
                                    }
                                }
                            ],
                            "typeTag": 4
                        }
                    }
                ]
            }
        ]
    }
}