{
    "balance_change": {
        "balanceChanges": [
            {
                "account": "0xf3ef82a5acfe76781822e9b18172401bbf812aa0",
                "assets": [
                    {
                        "address": "0x514910771af9ca656af840dff83e8264ecf986ca",
                        "amount": "506.3660400263872",
                        "iconUrl": "https://assets.blocksec.com/icon/f97453a18956674db69f16b525216d646fc76f3c7f90f0cd6147f8534d5af3e9.png",
                        "isERC1155": false,
                        "isERC721": false,
                        "sign": true,
                        "value": "9717.164307600000647"
                    }
                ]
            },
            {
                "account": "0xbc10f2e862ed4502144c7d632a3459f49dfcdb5e",
                "assets": [
                    {
                        "address": "0x514910771af9ca656af840dff83e8264ecf986ca",
                        "amount": "506.3660400263872",
                        "iconUrl": "https://assets.blocksec.com/icon/f97453a18956674db69f16b525216d646fc76f3c7f90f0cd6147f8534d5af3e9.png",
                        "isERC1155": false,
                        "isERC721": false,
                        "sign": false,
                        "value": "9717.164307600000647"
                    }
                ]
            }
        ]
    },
    "profile": {
        "basic_info": {
            "baseFee": "20.246721558",
            "blockNumber": 19163833,
            "callData": "0x2e17de7800000000000000000000000000000000000000000000001b733d8e8fce0a3800",
            "debugEnable": true,
            "errorInfo": "",
            "eventCount": 6,
            "feeRecipient": "0x95222290dd7278aa3ddd389cc1e1d165cc4bafe5",
            "formatValue": "0",
            "gasLimit": 144553,
            "gasPrice": "20.290986199",
            "gasUsed": 144553,
            "intTxnCount": 4,
            "internalRevert": false,
            "internalRevertMessage": "",
            "isContractCreation": false,
            "isFlashloan": false,
            "maxFee": "27.367685037",
            "nonce": 121,
            "overwritedBlockNumber": -1,
            "priorityFee": "0.044264641",
            "receiver": "0xbc10f2e862ed4502144c7d632a3459f49dfcdb5e",
            "revertMessage": "",
            "sender": "0xf3ef82a5acfe76781822e9b18172401bbf812aa0",
            "simulationEnable": true,
            "sourceTxnHash": "0x95fa249c1f067c5e0c49e799cdbc8204a260ffe7dbd3a1531339e6a965afe7c0",
            "status": true,
            "timestamp": "2024-02-05T18:26:47Z",
            "transactionFee": "0.002933122928024047",
            "txnHash": "0x95fa249c1f067c5e0c49e799cdbc8204a260ffe7dbd3a1531339e6a965afe7c0",
            "txnIndex": 0,
            "type": 2,
            "value": "0"
        },
        "fund_flow": [
            {
                "amount": "506.3660400263872",
                "from": "0xbc10f2e862ed4502144c7d632a3459f49dfcdb5e",
                "id": 1,
                "isERC1155": false,
                "isERC721": false,
                "isReverted": false,
                "order": 1,
                "to": "0xf3ef82a5acfe76781822e9b18172401bbf812aa0",
                "token": "0x514910771af9ca656af840dff83e8264ecf986ca"
            }
        ],
        "token_infos": [
            {
                "address": "0xc02aaa39b223fe8d0a0e5c4f27ead9083c756cc2",
                "decimals": 18
            },
            {
                "address": "0xeeeeeeeeeeeeeeeeeeeeeeeeeeeeeeeeeeeeeeee",
                "decimals": 18
            },
            {
                "address": "0x514910771af9ca656af840dff83e8264ecf986ca",
                "decimals": 18
            }
        ]
    },
    "address_label": {
        "labels": [
            {
                "address": "0x0000000000000000000000000000000000000004",
                "label": "Precompiled"
            },
            {
                "address": "0xeeeeeeeeeeeeeeeeeeeeeeeeeeeeeeeeeeeeeeee",
                "label": "Ether"
            },
            {
                "address": "0x514910771af9ca656af840dff83e8264ecf986ca",
                "label": "Chainlink: LINK Token"
            },
            {
                "address": "0x996913c8c08472f584ab8834e925b06d0eb1d813",
                "label": "RewardVault"
            },
            {
                "address": "0xbc10f2e862ed4502144c7d632a3459f49dfcdb5e",
                "label": "CommunityStakingPool"
            },
            {
                "address": "0x0000000000000000000000000000000000000001",
                "label": "Precompiled"
            },
            {
                "address": "0x0000000000000000000000000000000000000002",
                "label": "Precompiled"
            },
            {
                "address": "0x0000000000000000000000000000000000000003",
                "label": "Precompiled"
            }
        ]
    },
    "trace": {
        "accountLabels": null,
        "dataMap": {
            "-1": {
                "invocation": {
                    "address": "0xf3ef82a5acfe76781822e9b18172401bbf812aa0",
                    "callData": "",
                    "decodedMethod": null,
                    "errorInfo": "",
                    "fromAddress": "",
                    "gasUsed": 0,
                    "id": -1,
                    "methodDecoded": false,
                    "operation": "",
                    "output": "",
                    "revert": false,
                    "revertMessage": "",
                    "selector": "",
                    "status": false,
                    "value": ""
                },
                "nodeType": 0
            },
            "0": {
                "invocation": {
                    "address": "0xbc10f2e862ed4502144c7d632a3459f49dfcdb5e",
                    "callData": "0x00000000000000000000000000000000000000000000001b733d8e8fce0a3800",
                    "decodedMethod": {
                        "callParams": [
                            {
                                "name": "amount",
                                "type": "uint256",
                                "value": "506,366,040,026,387,200,000"
                            }
                        ],
                        "constructorArguments": "",
                        "name": "unstake",
                        "returnParams": [],
                        "signature": "unstake(uint256)"
                    },
                    "errorInfo": "",
                    "fromAddress": "0xf3ef82a5acfe76781822e9b18172401bbf812aa0",
                    "gasUsed": 144553,
                    "id": 0,
                    "methodDecoded": true,
                    "operation": "CALL",
                    "output": "",
                    "revert": false,
                    "revertMessage": "",
                    "selector": "0x2e17de78",
                    "status": true,
                    "value": "0"
                },
                "nodeType": 0
            },
            "1": {
                "invocation": {
                    "address": "0x996913c8c08472f584ab8834e925b06d0eb1d813",
                    "callData": "0x000000000000000000000000f3ef82a5acfe76781822e9b18172401bbf812aa000000000000000000000000000000000000000000000001b733d8e8fce0a38000000000000000000000000000000000000000000000000000000000065669a3b00000000000000000000000000000000000000000000001b733d8e8fce0a38000000000000000000000000000000000000000000000000000000000000000001",
                    "decodedMethod": {
                        "callParams": [
                            {
                                "name": "staker",
                                "type": "address",
                                "value": "0xf3ef82a5acfe76781822e9b18172401bbf812aa0"
                            },
                            {
                                "name": "oldPrincipal",
                                "type": "uint256",
                                "value": "506,366,040,026,387,200,000"
                            },
                            {
                                "name": "stakedAt",
                                "type": "uint256",
                                "value": "1,701,222,971"
                            },
                            {
                                "name": "unstakedAmount",
                                "type": "uint256",
                                "value": "506,366,040,026,387,200,000"
                            },
                            {
                                "name": "shouldForfeit",
                                "type": "bool",
                                "value": true
                            }
                        ],
                        "constructorArguments": "",
                        "name": "concludeRewardPeriod",
                        "returnParams": [],
                        "signature": "concludeRewardPeriod(address,uint256,uint256,uint256,bool)"
                    },
                    "errorInfo": "",
                    "fromAddress": "0xbc10f2e862ed4502144c7d632a3459f49dfcdb5e",
                    "gasUsed": 60640,
                    "id": 1,
                    "methodDecoded": true,
                    "operation": "CALL",
                    "output": "",
                    "revert": false,
                    "revertMessage": "",
                    "selector": "0xcf3bf2eb",
                    "status": true,
                    "value": "0"
                },
                "nodeType": 0
            },
            "10": {
                "event": {
                    "contract": "0xbc10f2e862ed4502144c7d632a3459f49dfcdb5e",
                    "decodedLog": {
                        "name": "Unstaked",
                        "params": [
                            {
                                "name": "staker",
                                "type": "address",
                                "value": "0xf3ef82a5acfe76781822e9b18172401bbf812aa0"
                            },
                            {
                                "name": "amount",
                                "type": "uint256",
                                "value": "506,366,040,026,387,200,000"
                            },
                            {
                                "name": "newStake",
                                "type": "uint256",
                                "value": "0"
                            },
                            {
                                "name": "newTotalPrincipal",
                                "type": "uint256",
                                "value": "40,874,493,633,959,973,612,800,000"
                            }
                        ],
                        "signature": "Unstaked(address,uint256,uint256,uint256)"
                    },
                    "id": 10,
                    "logData": "0x00000000000000000000000000000000000000000000001b733d8e8fce0a3800000000000000000000000000000000000000000000000000000000000000000000000000000000000000000000000000000000000021cf82bd6769e146d5c800",
                    "logDecoded": true,
                    "operation": "EVENT",
                    "revert": false,
                    "status": true,
                    "topics": [
                        "0x204fccf0d92ed8d48f204adb39b2e81e92bad0dedb93f5716ca9478cfb57de00",
                        "0x000000000000000000000000f3ef82a5acfe76781822e9b18172401bbf812aa0"
                    ]
                },
                "nodeType": 1
            },
            "2": {
                "invocation": {
                    "address": "0xbc10f2e862ed4502144c7d632a3459f49dfcdb5e",
                    "callData": "0x",
                    "decodedMethod": {
                        "callParams": [],
                        "constructorArguments": "",
                        "name": "getTotalPrincipal",
                        "returnParams": [
                            {
                                "name": "",
                                "type": "uint256",
                                "value": "40,875,000,000,000,000,000,000,000"
                            }
                        ],
                        "signature": "getTotalPrincipal()"
                    },
                    "errorInfo": "",
                    "fromAddress": "0x996913c8c08472f584ab8834e925b06d0eb1d813",
                    "gasUsed": 2404,
                    "id": 2,
                    "methodDecoded": true,
                    "operation": "STATICCALL",
                    "output": "0x00000000000000000000000000000000000000000021cf9e30a4f87114e00000",
                    "revert": false,
                    "revertMessage": "",
                    "selector": "0x885491af",
                    "status": true,
                    "value": "0"
                },
                "nodeType": 0
            },
            "3": {
                "event": {
                    "contract": "0x996913c8c08472f584ab8834e925b06d0eb1d813",
                    "decodedLog": {
                        "name": "CommunityPoolRewardUpdated",
                        "params": [
                            {
                                "name": "baseRewardPerToken",
                                "type": "uint256",
                                "value": "12,055,819,377,118,367"
                            }
                        ],
                        "signature": "CommunityPoolRewardUpdated(uint256)"
                    },
                    "id": 3,
                    "logData": "0x000000000000000000000000000000000000000000000000002ad4b42f730c9f",
                    "logDecoded": true,
                    "operation": "EVENT",
                    "revert": false,
                    "status": true,
                    "topics": [
                        "0x1236d5f7290187e9ac80880b3e28a193a9f38bb8bdc8a8a197744d80c50ca326"
                    ]
                },
                "nodeType": 1
            },
            "4": {
                "invocation": {
                    "address": "0xbc10f2e862ed4502144c7d632a3459f49dfcdb5e",
                    "callData": "0x",
                    "decodedMethod": {
                        "callParams": [],
                        "constructorArguments": "",
                        "name": "getTotalPrincipal",
                        "returnParams": [
                            {
                                "name": "",
                                "type": "uint256",
                                "value": "40,875,000,000,000,000,000,000,000"
                            }
                        ],
                        "signature": "getTotalPrincipal()"
                    },
                    "errorInfo": "",
                    "fromAddress": "0x996913c8c08472f584ab8834e925b06d0eb1d813",
                    "gasUsed": 404,
                    "id": 4,
                    "methodDecoded": true,
                    "operation": "STATICCALL",
                    "output": "0x00000000000000000000000000000000000000000021cf9e30a4f87114e00000",
                    "revert": false,
                    "revertMessage": "",
                    "selector": "0x885491af",
                    "status": true,
                    "value": "0"
                },
                "nodeType": 0
            },
            "5": {
                "event": {
                    "contract": "0x996913c8c08472f584ab8834e925b06d0eb1d813",
                    "decodedLog": {
                        "name": "ForfeitedRewardDistributed",
                        "params": [
                            {
                                "name": "vestedReward",
                                "type": "uint256",
                                "value": "1,120,654,869,976,740,227"
                            },
                            {
                                "name": "vestedRewardPerToken",
                                "type": "uint256",
                                "value": "27,416,972,550"
                            },
                            {
                                "name": "reclaimedReward",
                                "type": "uint256",
                                "value": "0"
                            },
                            {
                                "name": "isOperatorReward",
                                "type": "bool",
                                "value": false
                            }
                        ],
                        "signature": "ForfeitedRewardDistributed(uint256,uint256,uint256,bool)"
                    },
                    "id": 5,
                    "logData": "0x0000000000000000000000000000000000000000000000000f8d5daab0c6718300000000000000000000000000000000000000000000000000000006622dcd0600000000000000000000000000000000000000000000000000000000000000000000000000000000000000000000000000000000000000000000000000000000",
                    "logDecoded": true,
                    "operation": "EVENT",
                    "revert": false,
                    "status": true,
                    "topics": [
                        "0xeb34a4cfa3869c57492c653f9c06f128abac61952688567d4396e9ffaf93a67a"
                    ]
                },
                "nodeType": 1
            },
            "6": {
                "event": {
                    "contract": "0x996913c8c08472f584ab8834e925b06d0eb1d813",
                    "decodedLog": {
                        "name": "RewardFinalized",
                        "params": [
                            {
                                "name": "staker",
                                "type": "address",
                                "value": "0xf3ef82a5acfe76781822e9b18172401bbf812aa0"
                            },
                            {
                                "name": "shouldForfeit",
                                "type": "bool",
                                "value": true
                            }
                        ],
                        "signature": "RewardFinalized(address,bool)"
                    },
                    "id": 6,
                    "logData": "0x0000000000000000000000000000000000000000000000000000000000000001",
                    "logDecoded": true,
                    "operation": "EVENT",
                    "revert": false,
                    "status": true,
                    "topics": [
                        "0xa6b1f21803a1471cf6981bffc4c07ff6610f2b88efc44f62b96dca65a63d3d27",
                        "0x000000000000000000000000f3ef82a5acfe76781822e9b18172401bbf812aa0"
                    ]
                },
                "nodeType": 1
            },
            "7": {
                "event": {
                    "contract": "0x996913c8c08472f584ab8834e925b06d0eb1d813",
                    "decodedLog": {
                        "name": "StakerRewardUpdated",
                        "params": [
                            {
                                "name": "staker",
                                "type": "address",
                                "value": "0xf3ef82a5acfe76781822e9b18172401bbf812aa0"
                            },
                            {
                                "name": "vestedBaseReward",
                                "type": "uint256",
                                "value": "3,611,821,853,223,632,975"
                            },
                            {
                                "name": "vestedDelegatedReward",
                                "type": "uint256",
                                "value": "0"
                            },
                            {
                                "name": "baseRewardPerToken",
                                "type": "uint256",
                                "value": "12,055,846,794,090,917"
                            },
                            {
                                "name": "operatorDelegatedRewardPerToken",
                                "type": "uint256",
                                "value": "0"
                            },
                            {
                                "name": "claimedBaseRewardsInPeriod",
                                "type": "uint256",
                                "value": "0"
                            }
                        ],
                        "signature": "StakerRewardUpdated(address,uint256,uint256,uint256,uint256,uint256)"
                    },
                    "id": 7,
                    "logData": "0x000000000000000000000000000000000000000000000000321fc4d6d963404f0000000000000000000000000000000000000000000000000000000000000000000000000000000000000000000000000000000000000000002ad4ba91a0d9a500000000000000000000000000000000000000000000000000000000000000000000000000000000000000000000000000000000000000000000000000000000",
                    "logDecoded": true,
                    "operation": "EVENT",
                    "revert": false,
                    "status": true,
                    "topics": [
                        "0x16aadfd997cc8ab0f2890a6c7fe1ea76bdb61f8c74cc386c92818a2b1767006a",
                        "0x000000000000000000000000f3ef82a5acfe76781822e9b18172401bbf812aa0"
                    ]
                },
                "nodeType": 1
            },
            "8": {
                "invocation": {
                    "address": "0x514910771af9ca656af840dff83e8264ecf986ca",
                    "callData": "0x000000000000000000000000f3ef82a5acfe76781822e9b18172401bbf812aa000000000000000000000000000000000000000000000001b733d8e8fce0a3800",
                    "decodedMethod": {
                        "callParams": [
                            {
                                "name": "_to",
                                "type": "address",
                                "value": "0xf3ef82a5acfe76781822e9b18172401bbf812aa0"
                            },
                            {
                                "decimalAvailable": true,
                                "name": "_value",
                                "type": "uint256",
                                "value": "506,366,040,026,387,200,000"
                            }
                        ],
                        "constructorArguments": "",
                        "name": "transfer",
                        "returnParams": [
                            {
                                "name": "success",
                                "type": "bool",
                                "value": true
                            }
                        ],
                        "signature": "transfer(address,uint256)"
                    },
                    "errorInfo": "",
                    "fromAddress": "0xbc10f2e862ed4502144c7d632a3459f49dfcdb5e",
                    "gasUsed": 13345,
                    "id": 8,
                    "methodDecoded": true,
                    "operation": "CALL",
                    "output": "0x0000000000000000000000000000000000000000000000000000000000000001",
                    "revert": false,
                    "revertMessage": "",
                    "selector": "0xa9059cbb",
                    "status": true,
                    "value": "0"
                },
                "nodeType": 0
            },
            "9": {
                "event": {
                    "contract": "0x514910771af9ca656af840dff83e8264ecf986ca",
                    "decodedLog": {
                        "name": "Transfer",
                        "params": [
                            {
                                "name": "from",
                                "type": "address",
                                "value": "0xbc10f2e862ed4502144c7d632a3459f49dfcdb5e"
                            },
                            {
                                "name": "to",
                                "type": "address",
                                "value": "0xf3ef82a5acfe76781822e9b18172401bbf812aa0"
                            },
                            {
                                "decimalAvailable": true,
                                "name": "value",
                                "type": "uint256",
                                "value": "506,366,040,026,387,200,000"
                            }
                        ],
                        "signature": "Transfer(address,address,uint256)"
                    },
                    "id": 9,
                    "logData": "0x00000000000000000000000000000000000000000000001b733d8e8fce0a3800",
                    "logDecoded": true,
                    "operation": "EVENT",
                    "revert": false,
                    "status": true,
                    "topics": [
                        "0xddf252ad1be2c89b69c2b068fc378daa952ba7f163c4a11628f55a4df523b3ef",
                        "0x000000000000000000000000bc10f2e862ed4502144c7d632a3459f49dfcdb5e",
                        "0x000000000000000000000000f3ef82a5acfe76781822e9b18172401bbf812aa0"
                    ]
                },
                "nodeType": 1
            }
        },
        "gasFlame": [
            {
                "children": [
                    {
                        "children": [
                            {
                                "children": [],
                                "depth": 0,
                                "name": "Initial Gas",
                                "value": 21288
                            },
                            {
                                "children": [
                                    {
                                        "children": [
                                            {
                                                "children": [],
                                                "depth": 2,
                                                "name": "getTotalPrincipal",
                                                "value": 2404
                                            },
                                            {
                                                "children": [],
                                                "depth": 2,
                                                "name": "getTotalPrincipal",
                                                "value": 404
                                            }
                                        ],
                                        "depth": 1,
                                        "name": "concludeRewardPeriod",
                                        "value": 60640
                                    },
                                    {
                                        "children": [],
                                        "depth": 1,
                                        "name": "transfer",
                                        "value": 13345
                                    }
                                ],
                                "depth": 0,
                                "name": "Executed Gas",
                                "value": 123265
                            }
                        ],
                        "depth": -1,
                        "name": "Actual Gas Used",
                        "value": 144553
                    },
                    {
                        "children": [],
                        "depth": -1,
                        "name": "Refunded Gas",
                        "value": 0
                    }
                ],
                "depth": -2,
                "name": "Total Gas",
                "value": 144553
            }
        ],
        "isConfirmed": true,
        "mainTrace": [
            {
                "children": [
                    {
                        "children": [
                            {
                                "children": [
                                    {
                                        "children": [],
                                        "depth": 2,
                                        "id": 2,
                                        "order": 2
                                    },
                                    {
                                        "children": [],
                                        "depth": 2,
                                        "id": 3,
                                        "order": 3
                                    },
                                    {
                                        "children": [],
                                        "depth": 2,
                                        "id": 4,
                                        "order": 4
                                    },
                                    {
                                        "children": [],
                                        "depth": 2,
                                        "id": 5,
                                        "order": 5
                                    },
                                    {
                                        "children": [],
                                        "depth": 2,
                                        "id": 6,
                                        "order": 6
                                    },
                                    {
                                        "children": [],
                                        "depth": 2,
                                        "id": 7,
                                        "order": 7
                                    }
                                ],
                                "depth": 1,
                                "id": 1,
                                "order": 1
                            },
                            {
                                "children": [
                                    {
                                        "children": [],
                                        "depth": 2,
                                        "id": 9,
                                        "order": 9
                                    }
                                ],
                                "depth": 1,
                                "id": 8,
                                "order": 8
                            },
                            {
                                "children": [],
                                "depth": 1,
                                "id": 10,
                                "order": 10
                            }
                        ],
                        "depth": 0,
                        "id": 0,
                        "order": 0
                    }
                ],
                "depth": -1,
                "id": -1,
                "order": -1
            }
        ],
        "mainTraceNodeCount": 11,
        "parentIdMap": {
            "0": -1,
            "1": 0,
            "10": 0,
            "2": 1,
            "3": 1,
            "4": 1,
            "5": 1,
            "6": 1,
            "7": 1,
            "8": 0,
            "9": 8
        },
        "tidyTrace": [
            {
                "children": [
                    {
                        "children": [
                            {
                                "children": [
                                    {
                                        "children": [],
                                        "depth": 2,
                                        "id": 3,
                                        "order": 3
                                    },
                                    {
                                        "children": [],
                                        "depth": 2,
                                        "id": 5,
                                        "order": 5
                                    },
                                    {
                                        "children": [],
                                        "depth": 2,
                                        "id": 6,
                                        "order": 6
                                    },
                                    {
                                        "children": [],
                                        "depth": 2,
                                        "id": 7,
                                        "order": 7
                                    }
                                ],
                                "depth": 1,
                                "id": 1,
                                "order": 1
                            },
                            {
                                "children": [
                                    {
                                        "children": [],
                                        "depth": 2,
                                        "id": 9,
                                        "order": 9
                                    }
                                ],
                                "depth": 1,
                                "id": 8,
                                "order": 8
                            },
                            {
                                "children": [],
                                "depth": 1,
                                "id": 10,
                                "order": 10
                            }
                        ],
                        "depth": 0,
                        "id": 0,
                        "order": 0
                    }
                ],
                "depth": -1,
                "id": -1,
                "order": -1
            }
        ],
        "tidyTraceNodeCount": 9
    },
    "state_change": {
        "stateChanges": [
            {
                "address": "0x514910771af9ca656af840dff83e8264ecf986ca",
                "erc": "",
                "slots": [
                    {
                        "current": "0x00000000000000000000000000000000000000000021cf82bd6769e146d5c800",
                        "key": "0x69214dcfee59b528ba9004d0724e2a074e03c4332f8ffad74183e68b199f3ade",
                        "prev": "0x00000000000000000000000000000000000000000021cf9e30a4f87114e00000"
                    },
                    {
                        "current": "0x00000000000000000000000000000000000000000000001b7b3bdc831f472ab5",
                        "key": "0x8582d8af016459361a99ea170c0fb23df1928c6675828085b282aeeccf7bc52e",
                        "prev": "0x00000000000000000000000000000000000000000000000007fe4df3513cf2b5"
                    }
                ],
                "storageVariables": [
                    {
                        "name": "balances",
                        "type": "mapping(address => uint256)",
                        "value": {
                            "pairs": [
                                {
                                    "key": "0xbc10f2e862ed4502144c7d632a3459f49dfcdb5e",
                                    "value": {
                                        "current": "40874493633959973612800000",
                                        "prev": "40875000000000000000000000",
                                        "typeTag": 1
                                    }
                                },
                                {
                                    "key": "0xf3ef82a5acfe76781822e9b18172401bbf812aa0",
                                    "value": {
                                        "current": "506942023536172542645",
                                        "prev": "575983509785342645",
                                        "typeTag": 1
                                    }
                                }
                            ],
                            "typeTag": 4
                        }
                    }
                ]
            },
            {
                "address": "0x996913c8c08472f584ab8834e925b06d0eb1d813",
                "erc": "",
                "slots": [
                    {
                        "current": "0x000000010000000000000000000000000000000000000000002ad4ba91a0d9a5",
                        "key": "0x3f5903adc728b15fa498841b857b7b414978ec7d6eb7b8bbbe9cc9053739c0be",
                        "prev": "0x0000000100000000000000000000000000000000000000000009a09a515c24d8"
                    },
                    {
                        "current": "0x000000000000000000000000000000000000000000000000321fc4d6d963404f",
                        "key": "0x3f5903adc728b15fa498841b857b7b414978ec7d6eb7b8bbbe9cc9053739c0bd",
                        "prev": "0x0000000000000000000000000000000000000000000000000000000000000000"
                    },
                    {
                        "current": "0x00000000002ad4ba91a0d9a500000000000065f67834000000c6ed87c6c6e001",
                        "key": "0x0000000000000000000000000000000000000000000000000000000000000005",
                        "prev": "0x00000000002ad41b174f8c9f00000000000065f67834000000c6ed87c6c6e001"
                    },
                    {
                        "current": "0x0000000000000000000000000000000000000000058420af50713ad45efb7ccf",
                        "key": "0x000000000000000000000000000000000000000000000000000000000000000b",
                        "prev": "0x0000000000000000000000000000000000000000058420954b1aa9fa837b7ccf"
                    }
                ],
                "storageVariables": [
                    {
                        "name": "s_rewards",
                        "type": "mapping(address => struct IRewardVault.StakerReward)",
                        "value": {
                            "pairs": [
                                {
                                    "key": "0xf3ef82a5acfe76781822e9b18172401bbf812aa0",
                                    "value": {
                                        "fields": [
                                            {
                                                "name": "vestedBaseReward",
                                                "type": "uint112",
                                                "value": {
                                                    "current": "3611821853223632975",
                                                    "prev": "0",
                                                    "typeTag": 1
                                                }
                                            },
                                            {
                                                "name": "vestedDelegatedReward",
                                                "type": "uint112",
                                                "value": {
                                                    "current": "0",
                                                    "prev": "0",
                                                    "typeTag": 1
                                                }
                                            },
                                            {
                                                "name": "baseRewardPerToken",
                                                "type": "uint112",
                                                "value": {
                                                    "current": "12055846794090917",
                                                    "prev": "2709859440796888",
                                                    "typeTag": 1
                                                }
                                            },
                                            {
                                                "name": "operatorDelegatedRewardPerToken",
                                                "type": "uint112",
                                                "value": {
                                                    "current": "0",
                                                    "prev": "0",
                                                    "typeTag": 1
                                                }
                                            },
                                            {
                                                "name": "stakerType",
                                                "type": "enum IRewardVault.StakerType",
                                                "value": {
                                                    "current": "1",
                                                    "prev": "1",
                                                    "typeTag": 1
                                                }
                                            }
                                        ],
                                        "typeTag": 3
                                    }
                                }
                            ],
                            "typeTag": 4
                        }
                    },
                    {
                        "name": "s_packedRewardUpdateTimestamps",
                        "type": "uint256",
                        "value": {
                            "current": "1707157607000000001707048143",
                            "prev": "1707157127000000001707048143",
                            "typeTag": 1
                        }
                    }
                ]
            },
            {
                "address": "0xbc10f2e862ed4502144c7d632a3459f49dfcdb5e",
                "erc": "",
                "slots": [
                    {
                        "current": "0x0000000000000000000000000000000000000000000000000000000001246ab9",
                        "key": "0xf52941cacbe934f93222587a5727c03efbdd1aecc9ec799521de09d1a9d600d2",
                        "prev": "0x0000000000000000000000000000000000000000000000000000000000000000"
                    },
                    {
                        "current": "0x00000000000000000000000000000000000000000021cf82bd6769e146d5c800",
                        "key": "0x0000000000000000000000000000000000000000000000000000000000000006",
                        "prev": "0x00000000000000000000000000000000000000000021cf9e30a4f87114e00000"
                    },
                    {
                        "current": "0x0000000000000000000000000000000000000000000000000000000000000002",
                        "key": "0x9e584cc46a0d8800990a68893291f78da018f3d28c133c38d2218e22343328df",
                        "prev": "0x0000000000000000000000000000000000000000000000000000000000000001"
                    }
                ],
                "storageVariables": [
                    {
                        "name": "s_stakers",
                        "type": "mapping(address => struct IStakingPool.Staker)",
                        "value": {
                            "pairs": [
                                {
                                    "key": "0xf3ef82a5acfe76781822e9b18172401bbf812aa0",
                                    "value": {
                                        "fields": [
                                            {
                                                "name": "history",
                                                "type": "struct Checkpoints.History",
                                                "value": {
                                                    "fields": [
                                                        {
                                                            "name": "_checkpoints",
                                                            "type": "struct Checkpoints.Checkpoint[]",
                                                            "value": {
                                                                "elemType": "struct Checkpoints.Checkpoint",
                                                                "elems": [
                                                                    {
                                                                        "index": 1,
                                                                        "value": {
                                                                            "fields": [
                                                                                {
                                                                                    "name": "_blockNumber",
                                                                                    "type": "uint32",
                                                                                    "value": {
                                                                                        "current": "19163833",
                                                                                        "prev": "0",
                                                                                        "typeTag": 1
                                                                                    }
                                                                                },
                                                                                {
                                                                                    "name": "_value",
                                                                                    "type": "uint224",
                                                                                    "value": {
                                                                                        "current": "0",
                                                                                        "prev": "0",
                                                                                        "typeTag": 1
                                                                                    }
                                                                                }
                                                                            ],
                                                                            "typeTag": 3
                                                                        }
                                                                    }
                                                                ],
                                                                "typeTag": 2
                                                            }
                                                        }
                                                    ],
                                                    "typeTag": 3
                                                }
                                            }
                                        ],
                                        "typeTag": 3
                                    }
                                }
                            ],
                            "typeTag": 4
                        }
                    }
                ]
            }
        ]
    }
}