{
    "balance_change": {
        "balanceChanges": [
            {
                "account": "0xd736ef0ca4592c3bc172677b7a866cd2f52e3b27",
                "assets": [
                    {
                        "address": "0xe99ddae9181957e91b457e4c79a1b577e55a5742",
                        "amount": "7,100.26099668",
                        "iconUrl": "",
                        "isERC1155": false,
                        "isERC721": false,
                        "sign": false,
                        "value": ""
                    }
                ]
            },
            {
                "account": "0x3d0f5cf7dc5d69fa802597cb5eb1b92d9ba42a7e",
                "assets": [
                    {
                        "address": "0xe99ddae9181957e91b457e4c79a1b577e55a5742",
                        "amount": "7,100.26099668",
                        "iconUrl": "",
                        "isERC1155": false,
                        "isERC721": false,
                        "sign": true,
                        "value": ""
                    }
                ]
            }
        ]
    },
    "profile": {
        "basic_info": {
            "baseFee": "",
            "blockNumber": 5765915,
            "callData": "0xa9059cbb0000000000000000000000003d0f5cf7dc5d69fa802597cb5eb1b92d9ba42a7e000000000000000000000000000000000000000000000000000000a550da7bd4",
            "debugEnable": true,
            "errorInfo": "",
            "eventCount": 1,
            "feeRecipient": "0xb2930b35844a230f00e51431acae96fe543a0347",
            "formatValue": "0",
            "gasLimit": 60000,
            "gasPrice": "5",
            "gasUsed": 21924,
            "intTxnCount": 0,
            "internalRevert": false,
            "internalRevertMessage": "",
            "isContractCreation": false,
            "isFlashloan": false,
            "maxFee": "",
            "nonce": 7,
            "overwritedBlockNumber": -1,
            "priorityFee": "",
            "receiver": "0xe99ddae9181957e91b457e4c79a1b577e55a5742",
            "revertMessage": "",
            "sender": "0xd736ef0ca4592c3bc172677b7a866cd2f52e3b27",
            "simulationEnable": true,
            "sourceTxnHash": "0x95e7737a31ef25079d491d75e80e9bfb236a689ab8000d6059532f5efab35b53",
            "status": true,
            "timestamp": "2018-06-10T18:10:40Z",
            "transactionFee": "0.00010962",
            "txnHash": "0x95e7737a31ef25079d491d75e80e9bfb236a689ab8000d6059532f5efab35b53",
            "txnIndex": 127,
            "type": 0,
            "value": "0"
        },
        "fund_flow": [
            {
                "amount": "7,100.26099668",
                "from": "0xd736ef0ca4592c3bc172677b7a866cd2f52e3b27",
                "id": 1,
                "isERC1155": false,
                "isERC721": false,
                "isReverted": false,
                "order": 1,
                "to": "0x3d0f5cf7dc5d69fa802597cb5eb1b92d9ba42a7e",
                "token": "0xe99ddae9181957e91b457e4c79a1b577e55a5742"
            }
        ],
        "token_infos": [
            {
                "address": "0xc02aaa39b223fe8d0a0e5c4f27ead9083c756cc2",
                "decimals": 18
            },
            {
                "address": "0xe99ddae9181957e91b457e4c79a1b577e55a5742",
                "decimals": 8
            },
            {
                "address": "0xeeeeeeeeeeeeeeeeeeeeeeeeeeeeeeeeeeeeeeee",
                "decimals": 18
            }
        ]
    },
    "address_label": {
        "labels": [
            {
                "address": "0xeeeeeeeeeeeeeeeeeeeeeeeeeeeeeeeeeeeeeeee",
                "label": "Ether"
            },
            {
                "address": "0xe99ddae9181957e91b457e4c79a1b577e55a5742",
                "label": "LMM"
            },
            {
                "address": "0x0000000000000000000000000000000000000001",
                "label": "Precompiled"
            },
            {
                "address": "0x0000000000000000000000000000000000000002",
                "label": "Precompiled"
            },
            {
                "address": "0x0000000000000000000000000000000000000003",
                "label": "Precompiled"
            },
            {
                "address": "0x0000000000000000000000000000000000000004",
                "label": "Precompiled"
            }
        ]
    },
    "trace": {
        "accountLabels": null,
        "dataMap": {
            "-1": {
                "invocation": {
                    "address": "0xd736ef0ca4592c3bc172677b7a866cd2f52e3b27",
                    "callData": "",
                    "decodedMethod": null,
                    "errorInfo": "",
                    "fromAddress": "",
                    "gasUsed": 0,
                    "id": -1,
                    "methodDecoded": false,
                    "operation": "",
                    "output": "",
                    "revert": false,
                    "revertMessage": "",
                    "selector": "",
                    "status": false,
                    "value": ""
                },
                "nodeType": 0
            },
            "0": {
                "invocation": {
                    "address": "0xe99ddae9181957e91b457e4c79a1b577e55a5742",
                    "callData": "0x0000000000000000000000003d0f5cf7dc5d69fa802597cb5eb1b92d9ba42a7e000000000000000000000000000000000000000000000000000000a550da7bd4",
                    "decodedMethod": {
                        "callParams": [
                            {
                                "name": "_to",
                                "type": "address",
                                "value": "0x3d0f5cf7dc5d69fa802597cb5eb1b92d9ba42a7e"
                            },
                            {
                                "decimalAvailable": true,
                                "name": "_amount",
                                "type": "uint256",
                                "value": "710,026,099,668"
                            }
                        ],
                        "constructorArguments": "",
                        "name": "transfer",
                        "returnParams": [
                            {
                                "name": "success",
                                "type": "bool",
                                "value": true
                            }
                        ],
                        "signature": "transfer(address,uint256)"
                    },
                    "errorInfo": "",
                    "fromAddress": "0xd736ef0ca4592c3bc172677b7a866cd2f52e3b27",
                    "gasUsed": 21924,
                    "id": 0,
                    "methodDecoded": true,
                    "operation": "CALL",
                    "output": "0x0000000000000000000000000000000000000000000000000000000000000001",
                    "revert": false,
                    "revertMessage": "",
                    "selector": "0xa9059cbb",
                    "status": true,
                    "value": "0"
                },
                "nodeType": 0
            },
            "1": {
                "event": {
                    "contract": "0xe99ddae9181957e91b457e4c79a1b577e55a5742",
                    "decodedLog": {
                        "name": "Transfer",
                        "params": [
                            {
                                "name": "_from",
                                "type": "address",
                                "value": "0xd736ef0ca4592c3bc172677b7a866cd2f52e3b27"
                            },
                            {
                                "name": "_to",
                                "type": "address",
                                "value": "0x3d0f5cf7dc5d69fa802597cb5eb1b92d9ba42a7e"
                            },
                            {
                                "decimalAvailable": true,
                                "name": "_value",
                                "type": "uint256",
                                "value": "710,026,099,668"
                            }
                        ],
                        "signature": "Transfer(address,address,uint256)"
                    },
                    "id": 1,
                    "logData": "0x000000000000000000000000000000000000000000000000000000a550da7bd4",
                    "logDecoded": true,
                    "operation": "EVENT",
                    "revert": false,
                    "status": true,
                    "topics": [
                        "0xddf252ad1be2c89b69c2b068fc378daa952ba7f163c4a11628f55a4df523b3ef",
                        "0x000000000000000000000000d736ef0ca4592c3bc172677b7a866cd2f52e3b27",
                        "0x0000000000000000000000003d0f5cf7dc5d69fa802597cb5eb1b92d9ba42a7e"
                    ]
                },
                "nodeType": 1
            }
        },
        "gasFlame": [
            {
                "children": [
                    {
                        "children": [
                            {
                                "children": [],
                                "depth": 0,
                                "name": "Initial Gas",
                                "value": 23128
                            },
                            {
                                "children": [],
                                "depth": 0,
                                "name": "Executed Gas",
                                "value": 13796
                            }
                        ],
                        "depth": -1,
                        "name": "Actual Gas Used",
                        "value": 21924
                    },
                    {
                        "children": [],
                        "depth": -1,
                        "name": "Refunded Gas",
                        "value": 15000
                    }
                ],
                "depth": -2,
                "name": "Total Gas",
                "value": 36924
            }
        ],
        "isConfirmed": true,
        "mainTrace": [
            {
                "children": [
                    {
                        "children": [
                            {
                                "children": [],
                                "depth": 1,
                                "id": 1,
                                "order": 1
                            }
                        ],
                        "depth": 0,
                        "id": 0,
                        "order": 0
                    }
                ],
                "depth": -1,
                "id": -1,
                "order": -1
            }
        ],
        "mainTraceNodeCount": 2,
        "parentIdMap": {
            "0": -1,
            "1": 0
        },
        "tidyTrace": [
            {
                "children": [
                    {
                        "children": [
                            {
                                "children": [],
                                "depth": 1,
                                "id": 1,
                                "order": 1
                            }
                        ],
                        "depth": 0,
                        "id": 0,
                        "order": 0
                    }
                ],
                "depth": -1,
                "id": -1,
                "order": -1
            }
        ],
        "tidyTraceNodeCount": 2
    },
    "state_change": {
        "stateChanges": [
            {
                "address": "0xe99ddae9181957e91b457e4c79a1b577e55a5742",
                "erc": "ERC-20",
                "slots": [
                    {
                        "current": "0x0000000000000000000000000000000000000000000000000000000000000000",
                        "key": "0xee7fb7a0635f9720834d1502f42f25f888ba95579ea1aac3048a11d2ac3a6fec",
                        "prev": "0x000000000000000000000000000000000000000000000000000000a550da7bd4"
                    },
                    {
                        "current": "0x0000000000000000000000000000000000000000000000000001263e0d9ec629",
                        "key": "0x3f2a2f6a1c4b1f33f5f0b28c99c790c5468d195c0cf5c65686518374ef5e18b5",
                        "prev": "0x00000000000000000000000000000000000000000000000000012598bcc44a55"
                    }
                ],
                "storageVariables": [
                    {
                        "name": "balances",
                        "type": "mapping(address => uint256)",
                        "value": {
                            "pairs": [
                                {
                                    "key": "0x3d0f5cf7dc5d69fa802597cb5eb1b92d9ba42a7e",
                                    "value": {
                                        "current": "323522935047721",
                                        "prev": "322812908948053",
                                        "typeTag": 1
                                    }
                                },
                                {
                                    "key": "0xd736ef0ca4592c3bc172677b7a866cd2f52e3b27",
                                    "value": {
                                        "current": "0",
                                        "prev": "710026099668",
                                        "typeTag": 1
                                    }
                                }
                            ],
                            "typeTag": 4
                        }
                    }
                ]
            }
        ]
    }
}