{
    "balance_change": {
        "balanceChanges": [
            {
                "account": "0xde07abf5663b88fbd0974ee69b3bc75971a29381",
                "assets": [
                    {
                        "address": "0x7d1afa7b718fb893db30a3abc0cfc608aacfebb0",
                        "amount": "13,729.816933461635431817",
                        "iconUrl": "https://assets.blocksec.com/icon/5dc5187d80083e1e6ca5ca29581f660fdc3ebdf47eef117c3dfa3a0c07ab7d33.png",
                        "isERC1155": false,
                        "isERC721": false,
                        "sign": true,
                        "value": "14622.25503"
                    },
                    {
                        "address": "0xdac17f958d2ee523a2206206994597c13d831ec7",
                        "amount": "110.665401",
                        "iconUrl": "https://assets.blocksec.com/icon/fcea71f3193ce895be44bfdf941f7e4c9381dd587f273c2d1a27f1263d84e4ea.png",
                        "isERC1155": false,
                        "isERC721": false,
                        "sign": true,
                        "value": "110.740618"
                    }
                ]
            },
            {
                "account": "0x972f43bb94b76b9e2d036553d818879860b6a114",
                "assets": [
                    {
                        "address": "0x7d1afa7b718fb893db30a3abc0cfc608aacfebb0",
                        "amount": "13,729.816933461635431817",
                        "iconUrl": "https://assets.blocksec.com/icon/5dc5187d80083e1e6ca5ca29581f660fdc3ebdf47eef117c3dfa3a0c07ab7d33.png",
                        "isERC1155": false,
                        "isERC721": false,
                        "sign": false,
                        "value": "14622.25503"
                    },
                    {
                        "address": "0xdac17f958d2ee523a2206206994597c13d831ec7",
                        "amount": "110.665401",
                        "iconUrl": "https://assets.blocksec.com/icon/fcea71f3193ce895be44bfdf941f7e4c9381dd587f273c2d1a27f1263d84e4ea.png",
                        "isERC1155": false,
                        "isERC721": false,
                        "sign": false,
                        "value": "110.740618"
                    }
                ]
            }
        ]
    },
    "profile": {
        "basic_info": {
            "baseFee": "",
            "blockNumber": 12683436,
            "callData": "0xac9650d8000000000000000000000000000000000000000000000000000000000000002000000000000000000000000000000000000000000000000000000000000000020000000000000000000000000000000000000000000000000000000000000040000000000000000000000000000000000000000000000000000000000000012000000000000000000000000000000000000000000000000000000000000000a40c49ccbe000000000000000000000000000000000000000000000000000000000000db50000000000000000000000000000000000000000000000000015a8cb765d09b4d00000000000000000000000000000000000000000000026fd76ba1a9ebb99b6800000000000000000000000000000000000000000000000000000000000000000000000000000000000000000000000000000000000000000000000060d1b94e000000000000000000000000000000000000000000000000000000000000000000000000000000000000000000000000000000000000000000000084fc6f7865000000000000000000000000000000000000000000000000000000000000db50000000000000000000000000de07abf5663b88fbd0974ee69b3bc75971a2938100000000000000000000000000000000ffffffffffffffffffffffffffffffff00000000000000000000000000000000ffffffffffffffffffffffffffffffff00000000000000000000000000000000000000000000000000000000",
            "debugEnable": true,
            "errorInfo": "",
            "eventCount": 6,
            "feeRecipient": "0x99c85bb64564d9ef9a99621301f22c9993cb89e3",
            "formatValue": "0",
            "gasLimit": 404571,
            "gasPrice": "50",
            "gasUsed": 168572,
            "intTxnCount": 7,
            "internalRevert": false,
            "internalRevertMessage": "",
            "isContractCreation": false,
            "isFlashloan": false,
            "maxFee": "",
            "nonce": 1056,
            "overwritedBlockNumber": -1,
            "priorityFee": "",
            "receiver": "0xc36442b4a4522e871399cd717abdd847ab11fe88",
            "revertMessage": "",
            "sender": "0xde07abf5663b88fbd0974ee69b3bc75971a29381",
            "simulationEnable": true,
            "sourceTxnHash": "0x9578a156cbdaaf5cc57560078822c6b6bbdb952362fbb659495f1119582e3ede",
            "status": true,
            "timestamp": "2021-06-22T10:16:09Z",
            "transactionFee": "0.0084286",
            "txnHash": "0x9578a156cbdaaf5cc57560078822c6b6bbdb952362fbb659495f1119582e3ede",
            "txnIndex": 65,
            "type": 0,
            "value": "0"
        },
        "fund_flow": [
            {
                "amount": "13,729.816933461635431817",
                "from": "0x972f43bb94b76b9e2d036553d818879860b6a114",
                "id": 1,
                "isERC1155": false,
                "isERC721": false,
                "isReverted": false,
                "order": 1,
                "to": "0xde07abf5663b88fbd0974ee69b3bc75971a29381",
                "token": "0x7d1afa7b718fb893db30a3abc0cfc608aacfebb0"
            },
            {
                "amount": "110.665401",
                "from": "0x972f43bb94b76b9e2d036553d818879860b6a114",
                "id": 2,
                "isERC1155": false,
                "isERC721": false,
                "isReverted": false,
                "order": 2,
                "to": "0xde07abf5663b88fbd0974ee69b3bc75971a29381",
                "token": "0xdac17f958d2ee523a2206206994597c13d831ec7"
            }
        ],
        "token_infos": [
            {
                "address": "0x7d1afa7b718fb893db30a3abc0cfc608aacfebb0",
                "decimals": 18
            },
            {
                "address": "0xc02aaa39b223fe8d0a0e5c4f27ead9083c756cc2",
                "decimals": 18
            },
            {
                "address": "0xdac17f958d2ee523a2206206994597c13d831ec7",
                "decimals": 6
            },
            {
                "address": "0xeeeeeeeeeeeeeeeeeeeeeeeeeeeeeeeeeeeeeeee",
                "decimals": 18
            }
        ]
    },
    "address_label": {
        "labels": [
            {
                "address": "0x972f43bb94b76b9e2d036553d818879860b6a114",
                "label": "Uniswap V3: MATIC-USDT 3"
            },
            {
                "address": "0x0000000000000000000000000000000000000001",
                "label": "Precompiled"
            },
            {
                "address": "0x0000000000000000000000000000000000000002",
                "label": "Precompiled"
            },
            {
                "address": "0xeeeeeeeeeeeeeeeeeeeeeeeeeeeeeeeeeeeeeeee",
                "label": "Ether"
            },
            {
                "address": "0xdac17f958d2ee523a2206206994597c13d831ec7",
                "label": "Tether: USDT Stablecoin"
            },
            {
                "address": "0x7d1afa7b718fb893db30a3abc0cfc608aacfebb0",
                "label": "Polygon (Matic): Old Matic Token"
            },
            {
                "address": "0xc36442b4a4522e871399cd717abdd847ab11fe88",
                "label": "Uniswap V3: Positions NFT"
            },
            {
                "address": "0x0000000000000000000000000000000000000003",
                "label": "Precompiled"
            },
            {
                "address": "0x0000000000000000000000000000000000000004",
                "label": "Precompiled"
            }
        ]
    },
    "trace": {
        "accountLabels": null,
        "dataMap": {
            "-1": {
                "invocation": {
                    "address": "0xde07abf5663b88fbd0974ee69b3bc75971a29381",
                    "callData": "",
                    "decodedMethod": null,
                    "errorInfo": "",
                    "fromAddress": "",
                    "gasUsed": 0,
                    "id": -1,
                    "methodDecoded": false,
                    "operation": "",
                    "output": "",
                    "revert": false,
                    "revertMessage": "",
                    "selector": "",
                    "status": false,
                    "value": ""
                },
                "nodeType": 0
            },
            "0": {
                "invocation": {
                    "address": "0xc36442b4a4522e871399cd717abdd847ab11fe88",
                    "callData": "0x000000000000000000000000000000000000000000000000000000000000002000000000000000000000000000000000000000000000000000000000000000020000000000000000000000000000000000000000000000000000000000000040000000000000000000000000000000000000000000000000000000000000012000000000000000000000000000000000000000000000000000000000000000a40c49ccbe000000000000000000000000000000000000000000000000000000000000db50000000000000000000000000000000000000000000000000015a8cb765d09b4d00000000000000000000000000000000000000000000026fd76ba1a9ebb99b6800000000000000000000000000000000000000000000000000000000000000000000000000000000000000000000000000000000000000000000000060d1b94e000000000000000000000000000000000000000000000000000000000000000000000000000000000000000000000000000000000000000000000084fc6f7865000000000000000000000000000000000000000000000000000000000000db50000000000000000000000000de07abf5663b88fbd0974ee69b3bc75971a2938100000000000000000000000000000000ffffffffffffffffffffffffffffffff00000000000000000000000000000000ffffffffffffffffffffffffffffffff00000000000000000000000000000000000000000000000000000000",
                    "decodedMethod": {
                        "callParams": [
                            {
                                "name": "data",
                                "type": "bytes[]",
                                "value": [
                                    "0x0c49ccbe000000000000000000000000000000000000000000000000000000000000db50000000000000000000000000000000000000000000000000015a8cb765d09b4d00000000000000000000000000000000000000000000026fd76ba1a9ebb99b6800000000000000000000000000000000000000000000000000000000000000000000000000000000000000000000000000000000000000000000000060d1b94e",
                                    "0xfc6f7865000000000000000000000000000000000000000000000000000000000000db50000000000000000000000000de07abf5663b88fbd0974ee69b3bc75971a2938100000000000000000000000000000000ffffffffffffffffffffffffffffffff00000000000000000000000000000000ffffffffffffffffffffffffffffffff"
                                ]
                            }
                        ],
                        "constructorArguments": "",
                        "name": "multicall",
                        "returnParams": [
                            {
                                "name": "results",
                                "type": "bytes[]",
                                "value": [
                                    "0x0000000000000000000000000000000000000000000002e821367f2d94d619220000000000000000000000000000000000000000000000000000000006707339",
                                    "0x0000000000000000000000000000000000000000000002e84b7c6d4babccfd890000000000000000000000000000000000000000000000000000000006989eb9"
                                ]
                            }
                        ],
                        "signature": "multicall(bytes[])"
                    },
                    "errorInfo": "",
                    "fromAddress": "0xde07abf5663b88fbd0974ee69b3bc75971a29381",
                    "gasUsed": 168572,
                    "id": 0,
                    "methodDecoded": true,
                    "operation": "CALL",
                    "output": "0x00000000000000000000000000000000000000000000000000000000000000200000000000000000000000000000000000000000000000000000000000000002000000000000000000000000000000000000000000000000000000000000004000000000000000000000000000000000000000000000000000000000000000a000000000000000000000000000000000000000000000000000000000000000400000000000000000000000000000000000000000000002e821367f2d94d61922000000000000000000000000000000000000000000000000000000000670733900000000000000000000000000000000000000000000000000000000000000400000000000000000000000000000000000000000000002e84b7c6d4babccfd890000000000000000000000000000000000000000000000000000000006989eb9",
                    "revert": false,
                    "revertMessage": "",
                    "selector": "0xac9650d8",
                    "status": true,
                    "value": "0"
                },
                "nodeType": 0
            },
            "1": {
                "invocation": {
                    "address": "0xc36442b4a4522e871399cd717abdd847ab11fe88",
                    "callData": "0x000000000000000000000000000000000000000000000000000000000000db50000000000000000000000000000000000000000000000000015a8cb765d09b4d00000000000000000000000000000000000000000000026fd76ba1a9ebb99b6800000000000000000000000000000000000000000000000000000000000000000000000000000000000000000000000000000000000000000000000060d1b94e",
                    "decodedMethod": {
                        "callParams": [
                            {
                                "name": "params",
                                "type": "(uint256,uint128,uint256,uint256,uint256)",
                                "value": [
                                    {
                                        "name": "tokenId",
                                        "type": "uint256",
                                        "value": "56,144"
                                    },
                                    {
                                        "name": "liquidity",
                                        "type": "uint128",
                                        "value": "97,545,061,256,960,845"
                                    },
                                    {
                                        "name": "amount0Min",
                                        "type": "uint256",
                                        "value": "11,507,844,236,212,889,557,864"
                                    },
                                    {
                                        "name": "amount1Min",
                                        "type": "uint256",
                                        "value": "0"
                                    },
                                    {
                                        "name": "deadline",
                                        "type": "uint256",
                                        "value": "1,624,357,198"
                                    }
                                ]
                            }
                        ],
                        "constructorArguments": "",
                        "name": "decreaseLiquidity",
                        "returnParams": [
                            {
                                "name": "amount0",
                                "type": "uint256",
                                "value": "13,726,770,830,925,647,714,594"
                            },
                            {
                                "name": "amount1",
                                "type": "uint256",
                                "value": "108,032,825"
                            }
                        ],
                        "signature": "decreaseLiquidity((uint256,uint128,uint256,uint256,uint256))"
                    },
                    "errorInfo": "",
                    "fromAddress": "0xc36442b4a4522e871399cd717abdd847ab11fe88",
                    "gasUsed": 247103,
                    "id": 1,
                    "methodDecoded": true,
                    "operation": "DELEGATECALL",
                    "output": "0x0000000000000000000000000000000000000000000002e821367f2d94d619220000000000000000000000000000000000000000000000000000000006707339",
                    "revert": false,
                    "revertMessage": "",
                    "selector": "0x0c49ccbe",
                    "status": true,
                    "value": "0"
                },
                "nodeType": 0
            },
            "10": {
                "invocation": {
                    "address": "0xdac17f958d2ee523a2206206994597c13d831ec7",
                    "callData": "0x000000000000000000000000de07abf5663b88fbd0974ee69b3bc75971a293810000000000000000000000000000000000000000000000000000000006989eb9",
                    "decodedMethod": {
                        "callParams": [
                            {
                                "name": "_to",
                                "type": "address",
                                "value": "0xde07abf5663b88fbd0974ee69b3bc75971a29381"
                            },
                            {
                                "decimalAvailable": true,
                                "name": "_value",
                                "type": "uint256",
                                "value": "110,665,401"
                            }
                        ],
                        "constructorArguments": "",
                        "name": "transfer",
                        "returnParams": [],
                        "signature": "transfer(address,uint256)"
                    },
                    "errorInfo": "",
                    "fromAddress": "0x972f43bb94b76b9e2d036553d818879860b6a114",
                    "gasUsed": 24501,
                    "id": 10,
                    "methodDecoded": true,
                    "operation": "CALL",
                    "output": "",
                    "revert": false,
                    "revertMessage": "",
                    "selector": "0xa9059cbb",
                    "status": true,
                    "value": "0"
                },
                "nodeType": 0
            },
            "11": {
                "event": {
                    "contract": "0xdac17f958d2ee523a2206206994597c13d831ec7",
                    "decodedLog": {
                        "name": "Transfer",
                        "params": [
                            {
                                "name": "from",
                                "type": "address",
                                "value": "0x972f43bb94b76b9e2d036553d818879860b6a114"
                            },
                            {
                                "name": "to",
                                "type": "address",
                                "value": "0xde07abf5663b88fbd0974ee69b3bc75971a29381"
                            },
                            {
                                "decimalAvailable": true,
                                "name": "value",
                                "type": "uint256",
                                "value": "110,665,401"
                            }
                        ],
                        "signature": "Transfer(address,address,uint256)"
                    },
                    "id": 11,
                    "logData": "0x0000000000000000000000000000000000000000000000000000000006989eb9",
                    "logDecoded": true,
                    "operation": "EVENT",
                    "revert": false,
                    "status": true,
                    "topics": [
                        "0xddf252ad1be2c89b69c2b068fc378daa952ba7f163c4a11628f55a4df523b3ef",
                        "0x000000000000000000000000972f43bb94b76b9e2d036553d818879860b6a114",
                        "0x000000000000000000000000de07abf5663b88fbd0974ee69b3bc75971a29381"
                    ]
                },
                "nodeType": 1
            },
            "12": {
                "event": {
                    "contract": "0x972f43bb94b76b9e2d036553d818879860b6a114",
                    "decodedLog": {
                        "name": "Collect",
                        "params": [
                            {
                                "name": "owner",
                                "type": "address",
                                "value": "0xc36442b4a4522e871399cd717abdd847ab11fe88"
                            },
                            {
                                "name": "tickLower",
                                "type": "int24",
                                "value": "-275,190"
                            },
                            {
                                "name": "tickUpper",
                                "type": "int24",
                                "value": "-271,940"
                            },
                            {
                                "name": "recipient",
                                "type": "address",
                                "value": "0xde07abf5663b88fbd0974ee69b3bc75971a29381"
                            },
                            {
                                "name": "amount0",
                                "type": "uint128",
                                "value": "13,729,816,933,461,635,431,817"
                            },
                            {
                                "name": "amount1",
                                "type": "uint128",
                                "value": "110,665,401"
                            }
                        ],
                        "signature": "Collect(address,address,int24,int24,uint128,uint128)"
                    },
                    "id": 12,
                    "logData": "0x000000000000000000000000de07abf5663b88fbd0974ee69b3bc75971a293810000000000000000000000000000000000000000000002e84b7c6d4babccfd890000000000000000000000000000000000000000000000000000000006989eb9",
                    "logDecoded": true,
                    "operation": "EVENT",
                    "revert": false,
                    "status": true,
                    "topics": [
                        "0x70935338e69775456a85ddef226c395fb668b63fa0115f5f20610b388e6ca9c0",
                        "0x000000000000000000000000c36442b4a4522e871399cd717abdd847ab11fe88",
                        "0xfffffffffffffffffffffffffffffffffffffffffffffffffffffffffffbcd0a",
                        "0xfffffffffffffffffffffffffffffffffffffffffffffffffffffffffffbd9bc"
                    ]
                },
                "nodeType": 1
            },
            "13": {
                "event": {
                    "contract": "0xc36442b4a4522e871399cd717abdd847ab11fe88",
                    "decodedLog": {
                        "name": "Collect",
                        "params": [
                            {
                                "name": "tokenId",
                                "type": "uint256",
                                "value": "56,144"
                            },
                            {
                                "name": "recipient",
                                "type": "address",
                                "value": "0xde07abf5663b88fbd0974ee69b3bc75971a29381"
                            },
                            {
                                "name": "amount0",
                                "type": "uint256",
                                "value": "13,729,816,933,461,635,431,817"
                            },
                            {
                                "name": "amount1",
                                "type": "uint256",
                                "value": "110,665,401"
                            }
                        ],
                        "signature": "Collect(uint256,address,uint256,uint256)"
                    },
                    "id": 13,
                    "logData": "0x000000000000000000000000de07abf5663b88fbd0974ee69b3bc75971a293810000000000000000000000000000000000000000000002e84b7c6d4babccfd890000000000000000000000000000000000000000000000000000000006989eb9",
                    "logDecoded": true,
                    "operation": "EVENT",
                    "revert": false,
                    "status": true,
                    "topics": [
                        "0x40d0efd1a53d60ecbf40971b9daf7dc90178c3aadc7aab1765632738fa8b8f01",
                        "0x000000000000000000000000000000000000000000000000000000000000db50"
                    ]
                },
                "nodeType": 1
            },
            "2": {
                "invocation": {
                    "address": "0x972f43bb94b76b9e2d036553d818879860b6a114",
                    "callData": "0xfffffffffffffffffffffffffffffffffffffffffffffffffffffffffffbcd0afffffffffffffffffffffffffffffffffffffffffffffffffffffffffffbd9bc000000000000000000000000000000000000000000000000015a8cb765d09b4d",
                    "decodedMethod": {
                        "callParams": [
                            {
                                "name": "tickLower",
                                "type": "int24",
                                "value": "-275,190"
                            },
                            {
                                "name": "tickUpper",
                                "type": "int24",
                                "value": "-271,940"
                            },
                            {
                                "name": "amount",
                                "type": "uint128",
                                "value": "97,545,061,256,960,845"
                            }
                        ],
                        "constructorArguments": "",
                        "name": "burn",
                        "returnParams": [
                            {
                                "name": "amount0",
                                "type": "uint256",
                                "value": "13,726,770,830,925,647,714,594"
                            },
                            {
                                "name": "amount1",
                                "type": "uint256",
                                "value": "108,032,825"
                            }
                        ],
                        "signature": "burn(int24,int24,uint128)"
                    },
                    "errorInfo": "",
                    "fromAddress": "0xc36442b4a4522e871399cd717abdd847ab11fe88",
                    "gasUsed": 153059,
                    "id": 2,
                    "methodDecoded": true,
                    "operation": "CALL",
                    "output": "0x0000000000000000000000000000000000000000000002e821367f2d94d619220000000000000000000000000000000000000000000000000000000006707339",
                    "revert": false,
                    "revertMessage": "",
                    "selector": "0xa34123a7",
                    "status": true,
                    "value": "0"
                },
                "nodeType": 0
            },
            "3": {
                "event": {
                    "contract": "0x972f43bb94b76b9e2d036553d818879860b6a114",
                    "decodedLog": {
                        "name": "Burn",
                        "params": [
                            {
                                "name": "owner",
                                "type": "address",
                                "value": "0xc36442b4a4522e871399cd717abdd847ab11fe88"
                            },
                            {
                                "name": "tickLower",
                                "type": "int24",
                                "value": "-275,190"
                            },
                            {
                                "name": "tickUpper",
                                "type": "int24",
                                "value": "-271,940"
                            },
                            {
                                "name": "amount",
                                "type": "uint128",
                                "value": "97,545,061,256,960,845"
                            },
                            {
                                "name": "amount0",
                                "type": "uint256",
                                "value": "13,726,770,830,925,647,714,594"
                            },
                            {
                                "name": "amount1",
                                "type": "uint256",
                                "value": "108,032,825"
                            }
                        ],
                        "signature": "Burn(address,int24,int24,uint128,uint256,uint256)"
                    },
                    "id": 3,
                    "logData": "0x000000000000000000000000000000000000000000000000015a8cb765d09b4d0000000000000000000000000000000000000000000002e821367f2d94d619220000000000000000000000000000000000000000000000000000000006707339",
                    "logDecoded": true,
                    "operation": "EVENT",
                    "revert": false,
                    "status": true,
                    "topics": [
                        "0x0c396cd989a39f4459b5fa1aed6a9a8dcdbc45908acfd67e028cd568da98982c",
                        "0x000000000000000000000000c36442b4a4522e871399cd717abdd847ab11fe88",
                        "0xfffffffffffffffffffffffffffffffffffffffffffffffffffffffffffbcd0a",
                        "0xfffffffffffffffffffffffffffffffffffffffffffffffffffffffffffbd9bc"
                    ]
                },
                "nodeType": 1
            },
            "4": {
                "invocation": {
                    "address": "0x972f43bb94b76b9e2d036553d818879860b6a114",
                    "callData": "0xa62d44812cbf4728ee59c87c167bbe454457e8e51b0a9c5f135df1d31a319752",
                    "decodedMethod": {
                        "callParams": [
                            {
                                "name": "",
                                "type": "bytes32",
                                "value": "0xa62d44812cbf4728ee59c87c167bbe454457e8e51b0a9c5f135df1d31a319752"
                            }
                        ],
                        "constructorArguments": "",
                        "name": "positions",
                        "returnParams": [
                            {
                                "name": "liquidity",
                                "type": "uint128",
                                "value": "0"
                            },
                            {
                                "name": "feeGrowthInside0LastX128",
                                "type": "uint256",
                                "value": "10,626,216,924,496,585,971,627,462,584,444,639,082,935"
                            },
                            {
                                "name": "feeGrowthInside1LastX128",
                                "type": "uint256",
                                "value": "9,183,648,265,920,766,595,606,880,040"
                            },
                            {
                                "name": "tokensOwed0",
                                "type": "uint128",
                                "value": "13,729,816,933,461,635,431,817"
                            },
                            {
                                "name": "tokensOwed1",
                                "type": "uint128",
                                "value": "110,665,401"
                            }
                        ],
                        "signature": "positions(bytes32)"
                    },
                    "errorInfo": "",
                    "fromAddress": "0xc36442b4a4522e871399cd717abdd847ab11fe88",
                    "gasUsed": 1013,
                    "id": 4,
                    "methodDecoded": true,
                    "operation": "STATICCALL",
                    "output": "0x00000000000000000000000000000000000000000000000000000000000000000000000000000000000000000000001f3a46efe221a3d079915ba6b5c92179b700000000000000000000000000000000000000001dac892a100d352d26b59f280000000000000000000000000000000000000000000002e84b7c6d4babccfd890000000000000000000000000000000000000000000000000000000006989eb9",
                    "revert": false,
                    "revertMessage": "",
                    "selector": "0x514ea4bf",
                    "status": true,
                    "value": "0"
                },
                "nodeType": 0
            },
            "5": {
                "event": {
                    "contract": "0xc36442b4a4522e871399cd717abdd847ab11fe88",
                    "decodedLog": {
                        "name": "DecreaseLiquidity",
                        "params": [
                            {
                                "name": "tokenId",
                                "type": "uint256",
                                "value": "56,144"
                            },
                            {
                                "name": "liquidity",
                                "type": "uint128",
                                "value": "97,545,061,256,960,845"
                            },
                            {
                                "name": "amount0",
                                "type": "uint256",
                                "value": "13,726,770,830,925,647,714,594"
                            },
                            {
                                "name": "amount1",
                                "type": "uint256",
                                "value": "108,032,825"
                            }
                        ],
                        "signature": "DecreaseLiquidity(uint256,uint128,uint256,uint256)"
                    },
                    "id": 5,
                    "logData": "0x000000000000000000000000000000000000000000000000015a8cb765d09b4d0000000000000000000000000000000000000000000002e821367f2d94d619220000000000000000000000000000000000000000000000000000000006707339",
                    "logDecoded": true,
                    "operation": "EVENT",
                    "revert": false,
                    "status": true,
                    "topics": [
                        "0x26f6a048ee9138f2c0ce266f322cb99228e8d619ae2bff30c67f8dcf9d2377b4",
                        "0x000000000000000000000000000000000000000000000000000000000000db50"
                    ]
                },
                "nodeType": 1
            },
            "6": {
                "invocation": {
                    "address": "0xc36442b4a4522e871399cd717abdd847ab11fe88",
                    "callData": "0x000000000000000000000000000000000000000000000000000000000000db50000000000000000000000000de07abf5663b88fbd0974ee69b3bc75971a2938100000000000000000000000000000000ffffffffffffffffffffffffffffffff00000000000000000000000000000000ffffffffffffffffffffffffffffffff",
                    "decodedMethod": {
                        "callParams": [
                            {
                                "name": "params",
                                "type": "(uint256,address,uint128,uint128)",
                                "value": [
                                    {
                                        "name": "tokenId",
                                        "type": "uint256",
                                        "value": "56,144"
                                    },
                                    {
                                        "name": "recipient",
                                        "type": "address",
                                        "value": "0xde07abf5663b88fbd0974ee69b3bc75971a29381"
                                    },
                                    {
                                        "name": "amount0Max",
                                        "type": "uint128",
                                        "value": "340,282,366,920,938,463,463,374,607,431,768,211,455"
                                    },
                                    {
                                        "name": "amount1Max",
                                        "type": "uint128",
                                        "value": "340,282,366,920,938,463,463,374,607,431,768,211,455"
                                    }
                                ]
                            }
                        ],
                        "constructorArguments": "",
                        "name": "collect",
                        "returnParams": [
                            {
                                "name": "amount0",
                                "type": "uint256",
                                "value": "13,729,816,933,461,635,431,817"
                            },
                            {
                                "name": "amount1",
                                "type": "uint256",
                                "value": "110,665,401"
                            }
                        ],
                        "signature": "collect((uint256,address,uint128,uint128))"
                    },
                    "errorInfo": "",
                    "fromAddress": "0xc36442b4a4522e871399cd717abdd847ab11fe88",
                    "gasUsed": 62412,
                    "id": 6,
                    "methodDecoded": true,
                    "operation": "DELEGATECALL",
                    "output": "0x0000000000000000000000000000000000000000000002e84b7c6d4babccfd890000000000000000000000000000000000000000000000000000000006989eb9",
                    "revert": false,
                    "revertMessage": "",
                    "selector": "0xfc6f7865",
                    "status": true,
                    "value": "0"
                },
                "nodeType": 0
            },
            "7": {
                "invocation": {
                    "address": "0x972f43bb94b76b9e2d036553d818879860b6a114",
                    "callData": "0x000000000000000000000000de07abf5663b88fbd0974ee69b3bc75971a29381fffffffffffffffffffffffffffffffffffffffffffffffffffffffffffbcd0afffffffffffffffffffffffffffffffffffffffffffffffffffffffffffbd9bc0000000000000000000000000000000000000000000002e84b7c6d4babccfd890000000000000000000000000000000000000000000000000000000006989eb9",
                    "decodedMethod": {
                        "callParams": [
                            {
                                "name": "recipient",
                                "type": "address",
                                "value": "0xde07abf5663b88fbd0974ee69b3bc75971a29381"
                            },
                            {
                                "name": "tickLower",
                                "type": "int24",
                                "value": "-275,190"
                            },
                            {
                                "name": "tickUpper",
                                "type": "int24",
                                "value": "-271,940"
                            },
                            {
                                "name": "amount0Requested",
                                "type": "uint128",
                                "value": "13,729,816,933,461,635,431,817"
                            },
                            {
                                "name": "amount1Requested",
                                "type": "uint128",
                                "value": "110,665,401"
                            }
                        ],
                        "constructorArguments": "",
                        "name": "collect",
                        "returnParams": [
                            {
                                "name": "amount0",
                                "type": "uint128",
                                "value": "13,729,816,933,461,635,431,817"
                            },
                            {
                                "name": "amount1",
                                "type": "uint128",
                                "value": "110,665,401"
                            }
                        ],
                        "signature": "collect(address,int24,int24,uint128,uint128)"
                    },
                    "errorInfo": "",
                    "fromAddress": "0xc36442b4a4522e871399cd717abdd847ab11fe88",
                    "gasUsed": 54771,
                    "id": 7,
                    "methodDecoded": true,
                    "operation": "CALL",
                    "output": "0x0000000000000000000000000000000000000000000002e84b7c6d4babccfd890000000000000000000000000000000000000000000000000000000006989eb9",
                    "revert": false,
                    "revertMessage": "",
                    "selector": "0x4f1eb3d8",
                    "status": true,
                    "value": "0"
                },
                "nodeType": 0
            },
            "8": {
                "invocation": {
                    "address": "0x7d1afa7b718fb893db30a3abc0cfc608aacfebb0",
                    "callData": "0x000000000000000000000000de07abf5663b88fbd0974ee69b3bc75971a293810000000000000000000000000000000000000000000002e84b7c6d4babccfd89",
                    "decodedMethod": {
                        "callParams": [
                            {
                                "name": "to",
                                "type": "address",
                                "value": "0xde07abf5663b88fbd0974ee69b3bc75971a29381"
                            },
                            {
                                "decimalAvailable": true,
                                "name": "value",
                                "type": "uint256",
                                "value": "13,729,816,933,461,635,431,817"
                            }
                        ],
                        "constructorArguments": "",
                        "name": "transfer",
                        "returnParams": [
                            {
                                "name": "",
                                "type": "bool",
                                "value": true
                            }
                        ],
                        "signature": "transfer(address,uint256)"
                    },
                    "errorInfo": "",
                    "fromAddress": "0x972f43bb94b76b9e2d036553d818879860b6a114",
                    "gasUsed": 15272,
                    "id": 8,
                    "methodDecoded": true,
                    "operation": "CALL",
                    "output": "0x0000000000000000000000000000000000000000000000000000000000000001",
                    "revert": false,
                    "revertMessage": "",
                    "selector": "0xa9059cbb",
                    "status": true,
                    "value": "0"
                },
                "nodeType": 0
            },
            "9": {
                "event": {
                    "contract": "0x7d1afa7b718fb893db30a3abc0cfc608aacfebb0",
                    "decodedLog": {
                        "name": "Transfer",
                        "params": [
                            {
                                "name": "from",
                                "type": "address",
                                "value": "0x972f43bb94b76b9e2d036553d818879860b6a114"
                            },
                            {
                                "name": "to",
                                "type": "address",
                                "value": "0xde07abf5663b88fbd0974ee69b3bc75971a29381"
                            },
                            {
                                "decimalAvailable": true,
                                "name": "value",
                                "type": "uint256",
                                "value": "13,729,816,933,461,635,431,817"
                            }
                        ],
                        "signature": "Transfer(address,address,uint256)"
                    },
                    "id": 9,
                    "logData": "0x0000000000000000000000000000000000000000000002e84b7c6d4babccfd89",
                    "logDecoded": true,
                    "operation": "EVENT",
                    "revert": false,
                    "status": true,
                    "topics": [
                        "0xddf252ad1be2c89b69c2b068fc378daa952ba7f163c4a11628f55a4df523b3ef",
                        "0x000000000000000000000000972f43bb94b76b9e2d036553d818879860b6a114",
                        "0x000000000000000000000000de07abf5663b88fbd0974ee69b3bc75971a29381"
                    ]
                },
                "nodeType": 1
            }
        },
        "gasFlame": [
            {
                "children": [
                    {
                        "children": [
                            {
                                "children": [],
                                "depth": 0,
                                "name": "Initial Gas",
                                "value": 24356
                            },
                            {
                                "children": [
                                    {
                                        "children": [
                                            {
                                                "children": [],
                                                "depth": 2,
                                                "name": "burn",
                                                "value": 153059
                                            },
                                            {
                                                "children": [],
                                                "depth": 2,
                                                "name": "positions",
                                                "value": 1013
                                            }
                                        ],
                                        "depth": 1,
                                        "name": "decreaseLiquidity",
                                        "value": 247103
                                    },
                                    {
                                        "children": [
                                            {
                                                "children": [
                                                    {
                                                        "children": [],
                                                        "depth": 3,
                                                        "name": "transfer",
                                                        "value": 15272
                                                    },
                                                    {
                                                        "children": [],
                                                        "depth": 3,
                                                        "name": "transfer",
                                                        "value": 24501
                                                    }
                                                ],
                                                "depth": 2,
                                                "name": "collect",
                                                "value": 54771
                                            }
                                        ],
                                        "depth": 1,
                                        "name": "collect",
                                        "value": 62412
                                    }
                                ],
                                "depth": 0,
                                "name": "Executed Gas",
                                "value": 312787
                            }
                        ],
                        "depth": -1,
                        "name": "Actual Gas Used",
                        "value": 168572
                    },
                    {
                        "children": [],
                        "depth": -1,
                        "name": "Refunded Gas",
                        "value": 168571
                    }
                ],
                "depth": -2,
                "name": "Total Gas",
                "value": 337143
            }
        ],
        "isConfirmed": true,
        "mainTrace": [
            {
                "children": [
                    {
                        "children": [
                            {
                                "children": [
                                    {
                                        "children": [
                                            {
                                                "children": [],
                                                "depth": 3,
                                                "id": 3,
                                                "order": 3
                                            }
                                        ],
                                        "depth": 2,
                                        "id": 2,
                                        "order": 2
                                    },
                                    {
                                        "children": [],
                                        "depth": 2,
                                        "id": 4,
                                        "order": 4
                                    },
                                    {
                                        "children": [],
                                        "depth": 2,
                                        "id": 5,
                                        "order": 5
                                    }
                                ],
                                "depth": 1,
                                "id": 1,
                                "order": 1
                            },
                            {
                                "children": [
                                    {
                                        "children": [
                                            {
                                                "children": [
                                                    {
                                                        "children": [],
                                                        "depth": 4,
                                                        "id": 9,
                                                        "order": 9
                                                    }
                                                ],
                                                "depth": 3,
                                                "id": 8,
                                                "order": 8
                                            },
                                            {
                                                "children": [
                                                    {
                                                        "children": [],
                                                        "depth": 4,
                                                        "id": 11,
                                                        "order": 11
                                                    }
                                                ],
                                                "depth": 3,
                                                "id": 10,
                                                "order": 10
                                            },
                                            {
                                                "children": [],
                                                "depth": 3,
                                                "id": 12,
                                                "order": 12
                                            }
                                        ],
                                        "depth": 2,
                                        "id": 7,
                                        "order": 7
                                    },
                                    {
                                        "children": [],
                                        "depth": 2,
                                        "id": 13,
                                        "order": 13
                                    }
                                ],
                                "depth": 1,
                                "id": 6,
                                "order": 6
                            }
                        ],
                        "depth": 0,
                        "id": 0,
                        "order": 0
                    }
                ],
                "depth": -1,
                "id": -1,
                "order": -1
            }
        ],
        "mainTraceNodeCount": 14,
        "parentIdMap": {
            "0": -1,
            "1": 0,
            "10": 7,
            "11": 10,
            "12": 7,
            "13": 6,
            "2": 1,
            "3": 2,
            "4": 1,
            "5": 1,
            "6": 0,
            "7": 6,
            "8": 7,
            "9": 8
        },
        "tidyTrace": [
            {
                "children": [
                    {
                        "children": [
                            {
                                "children": [
                                    {
                                        "children": [
                                            {
                                                "children": [],
                                                "depth": 3,
                                                "id": 3,
                                                "order": 3
                                            }
                                        ],
                                        "depth": 2,
                                        "id": 2,
                                        "order": 2
                                    },
                                    {
                                        "children": [],
                                        "depth": 2,
                                        "id": 5,
                                        "order": 5
                                    }
                                ],
                                "depth": 1,
                                "id": 1,
                                "order": 1
                            },
                            {
                                "children": [
                                    {
                                        "children": [
                                            {
                                                "children": [
                                                    {
                                                        "children": [],
                                                        "depth": 4,
                                                        "id": 9,
                                                        "order": 9
                                                    }
                                                ],
                                                "depth": 3,
                                                "id": 8,
                                                "order": 8
                                            },
                                            {
                                                "children": [
                                                    {
                                                        "children": [],
                                                        "depth": 4,
                                                        "id": 11,
                                                        "order": 11
                                                    }
                                                ],
                                                "depth": 3,
                                                "id": 10,
                                                "order": 10
                                            },
                                            {
                                                "children": [],
                                                "depth": 3,
                                                "id": 12,
                                                "order": 12
                                            }
                                        ],
                                        "depth": 2,
                                        "id": 7,
                                        "order": 7
                                    },
                                    {
                                        "children": [],
                                        "depth": 2,
                                        "id": 13,
                                        "order": 13
                                    }
                                ],
                                "depth": 1,
                                "id": 6,
                                "order": 6
                            }
                        ],
                        "depth": 0,
                        "id": 0,
                        "order": 0
                    }
                ],
                "depth": -1,
                "id": -1,
                "order": -1
            }
        ],
        "tidyTraceNodeCount": 13
    },
    "state_change": {
        "stateChanges": [
            {
                "address": "0x7d1afa7b718fb893db30a3abc0cfc608aacfebb0",
                "erc": "ERC-20",
                "slots": [
                    {
                        "current": "0x0000000000000000000000000000000000000000000000000000000000000051",
                        "key": "0x67def0dc42370c7cc09bcfbdf8be75d09bd867d7dacd956d995b868a4d1a0290",
                        "prev": "0x0000000000000000000000000000000000000000000002e84b7c6d4babccfdda"
                    },
                    {
                        "current": "0x0000000000000000000000000000000000000000000002e84b7c6ed203b650f9",
                        "key": "0x0ad8eea5664e8b3b5991c7400b608530721d042263fbde13d1b1b07ce4135b0a",
                        "prev": "0x0000000000000000000000000000000000000000000000000000018657e95370"
                    }
                ],
                "storageVariables": [
                    {
                        "name": "_balances",
                        "type": "mapping(address => uint256)",
                        "value": {
                            "pairs": [
                                {
                                    "key": "0x972f43bb94b76b9e2d036553d818879860b6a114",
                                    "value": {
                                        "current": "81",
                                        "prev": "13729816933461635431898",
                                        "typeTag": 1
                                    }
                                },
                                {
                                    "key": "0xde07abf5663b88fbd0974ee69b3bc75971a29381",
                                    "value": {
                                        "current": "13729816935138147586297",
                                        "prev": "1676512154480",
                                        "typeTag": 1
                                    }
                                }
                            ],
                            "typeTag": 4
                        }
                    }
                ]
            },
            {
                "address": "0x972f43bb94b76b9e2d036553d818879860b6a114",
                "erc": "",
                "slots": [
                    {
                        "current": "0x00000000000000000000000000000000000000001dac892a100d352d26b59f28",
                        "key": "0xb3c4ff28641c66d8ef9c877c82f5473be3b4f940f2cdba338180b2b8b6457e7f",
                        "prev": "0x0000000000000000000000000000000000000000000000000000000000000000"
                    },
                    {
                        "current": "0x01000001d800000000039c15139fcb4bf28af54d41fffff3ab144c8760d1b869",
                        "key": "0x0000000000000000000000000000000000000000000000000000000000000008",
                        "prev": "0x01000001d800000000038acceffc3aa070bf5db040fffff40d4eadb160d1a104"
                    },
                    {
                        "current": "0x0000000000000000000000000000000000000000000000000000000000000000",
                        "key": "0xc56953fe792168366438508237b3c61819039d8f9384f6a6133886eac949ca74",
                        "prev": "0x0100000000000000000000000000000000000000000000000000000000000000"
                    },
                    {
                        "current": "0x0000000000000000000000000000000000000000000000000000000000000000",
                        "key": "0x0000000000000000000000000000000000000000000000000000000000000004",
                        "prev": "0x000000000000000000000000000000000000000000000000015a8cb765d09b4d"
                    },
                    {
                        "current": "0x0000000000000000000000000000000000000000000000000000000000000000",
                        "key": "0x918cfc45073e7a8befeda107cec8f3ce514f4a406e227c253b570e1d6485d524",
                        "prev": "0x0000000000000000000000000000000200000000000000000000000000000000"
                    },
                    {
                        "current": "0x0000000000000000000000000000000000000000000000000000000000000000",
                        "key": "0xc56953fe792168366438508237b3c61819039d8f9384f6a6133886eac949ca71",
                        "prev": "0xfffffffffffffffffea573489a2f64b30000000000000000015a8cb765d09b4d"
                    },
                    {
                        "current": "0x0000000000000000000000000000000000000000000000000000000000000000",
                        "key": "0xbc7421a8a47517d06a4326ba8555f4caf27795a5326463e697d4f76e7ca6831c",
                        "prev": "0x0000000000000000015a8cb765d09b4d0000000000000000015a8cb765d09b4d"
                    },
                    {
                        "current": "0x0000000000000000000000000000000000000000000000000000000000000000",
                        "key": "0xbc7421a8a47517d06a4326ba8555f4caf27795a5326463e697d4f76e7ca6831f",
                        "prev": "0x0160d13d98000001d80000000003415b44e844e9b98577853afffff5ae095bf0"
                    },
                    {
                        "current": "0x0000000000000000000000000000001f3a46efe221a3d079915ba6b5c92179b7",
                        "key": "0xb3c4ff28641c66d8ef9c877c82f5473be3b4f940f2cdba338180b2b8b6457e7e",
                        "prev": "0x0000000000000000000000000000000000000000000000000000000000000000"
                    },
                    {
                        "current": "0x0000000000000000000000000000000000000000000000000000000000000000",
                        "key": "0x99485e26bc1950f8b2eb0ced3a443eb1c1595d361859d2b46394d5a90482d4d9",
                        "prev": "0x0000000000000040000000000000000000000000000000000000000000000000"
                    },
                    {
                        "current": "0x0000000000000000000000000000000000000000000000000000000000000000",
                        "key": "0xb3c4ff28641c66d8ef9c877c82f5473be3b4f940f2cdba338180b2b8b6457e7d",
                        "prev": "0x000000000000000000000000000000000000000000000000015a8cb765d09b4d"
                    },
                    {
                        "current": "0x0000000000000000000000000000000000000000000000000000000000000000",
                        "key": "0xbc7421a8a47517d06a4326ba8555f4caf27795a5326463e697d4f76e7ca6831e",
                        "prev": "0x0000000000000000000000000000000000000000970eac1773ef0306c9bdff33"
                    },
                    {
                        "current": "0x0000000000000000000000000000000000000000000000000000000000000000",
                        "key": "0xbc7421a8a47517d06a4326ba8555f4caf27795a5326463e697d4f76e7ca6831d",
                        "prev": "0x000000000000000000000000000000821e4133a0957bb6139737e7748074e012"
                    }
                ],
                "storageVariables": []
            },
            {
                "address": "0xc36442b4a4522e871399cd717abdd847ab11fe88",
                "erc": "ERC-721",
                "slots": [
                    {
                        "current": "0x0000000000000000000000000000001f3a46efe221a3d079915ba6b5c92179b7",
                        "key": "0x8c9b58a731b85fa7271b389455f2ba30df2f9b7fb7145270f8310fe5a3eba03f",
                        "prev": "0x0000000000000000000000000000000000000000000000000000000000000000"
                    },
                    {
                        "current": "0x00000000000000000000000000000000000000001dac892a100d352d26b59f28",
                        "key": "0x8c9b58a731b85fa7271b389455f2ba30df2f9b7fb7145270f8310fe5a3eba040",
                        "prev": "0x0000000000000000000000000000000000000000000000000000000000000000"
                    },
                    {
                        "current": "0x00000000000000000000000000000000fbd9bcfbcd0a000000000000000009a3",
                        "key": "0x8c9b58a731b85fa7271b389455f2ba30df2f9b7fb7145270f8310fe5a3eba03e",
                        "prev": "0x0000000000000000015a8cb765d09b4dfbd9bcfbcd0a000000000000000009a3"
                    }
                ],
                "storageVariables": [
                    {
                        "name": "_positions",
                        "type": "mapping(uint256 => struct NonfungiblePositionManager.Position)",
                        "value": {
                            "pairs": [
                                {
                                    "key": "56144",
                                    "value": {
                                        "fields": [
                                            {
                                                "name": "poolId",
                                                "type": "uint80",
                                                "value": {
                                                    "current": "2467",
                                                    "prev": "2467",
                                                    "typeTag": 1
                                                }
                                            },
                                            {
                                                "name": "tickLower",
                                                "type": "int24",
                                                "value": {
                                                    "current": "-275190",
                                                    "prev": "-275190",
                                                    "typeTag": 1
                                                }
                                            },
                                            {
                                                "name": "tickUpper",
                                                "type": "int24",
                                                "value": {
                                                    "current": "-271940",
                                                    "prev": "-271940",
                                                    "typeTag": 1
                                                }
                                            },
                                            {
                                                "name": "liquidity",
                                                "type": "uint128",
                                                "value": {
                                                    "current": "0",
                                                    "prev": "97545061256960845",
                                                    "typeTag": 1
                                                }
                                            },
                                            {
                                                "name": "feeGrowthInside0LastX128",
                                                "type": "uint256",
                                                "value": {
                                                    "current": "10626216924496585971627462584444639082935",
                                                    "prev": "0",
                                                    "typeTag": 1
                                                }
                                            },
                                            {
                                                "name": "feeGrowthInside1LastX128",
                                                "type": "uint256",
                                                "value": {
                                                    "current": "9183648265920766595606880040",
                                                    "prev": "0",
                                                    "typeTag": 1
                                                }
                                            }
                                        ],
                                        "typeTag": 3
                                    }
                                }
                            ],
                            "typeTag": 4
                        }
                    }
                ]
            },
            {
                "address": "0xdac17f958d2ee523a2206206994597c13d831ec7",
                "erc": "ERC-20",
                "slots": [
                    {
                        "current": "0x0000000000000000000000000000000000000000000000000000000000000031",
                        "key": "0xf772849dd784f0a4c0ec918198b7007b9ecf3b19452ffd2fdedbf19a3c9dbae4",
                        "prev": "0x0000000000000000000000000000000000000000000000000000000006989eea"
                    },
                    {
                        "current": "0x000000000000000000000000000000000000000000000000000000014a20aac7",
                        "key": "0xa4d1cf2a41bbe898df4e4a007d36091572ad427880924d509f76cecfa94586ce",
                        "prev": "0x0000000000000000000000000000000000000000000000000000000143880c0e"
                    }
                ],
                "storageVariables": [
                    {
                        "name": "balances",
                        "type": "mapping(address => uint256)",
                        "value": {
                            "pairs": [
                                {
                                    "key": "0x972f43bb94b76b9e2d036553d818879860b6a114",
                                    "value": {
                                        "current": "49",
                                        "prev": "110665450",
                                        "typeTag": 1
                                    }
                                },
                                {
                                    "key": "0xde07abf5663b88fbd0974ee69b3bc75971a29381",
                                    "value": {
                                        "current": "5538622151",
                                        "prev": "5427956750",
                                        "typeTag": 1
                                    }
                                }
                            ],
                            "typeTag": 4
                        }
                    }
                ]
            }
        ]
    }
}