{
    "balance_change": {
        "balanceChanges": [
            {
                "account": "0xfdf1946a9b40245224488f1a36f4a9ed4844a523",
                "assets": [
                    {
                        "address": "0xa37d94e80eab7a5bcb6d2e76b7666e341e4b58f6",
                        "amount": "133.330000000000016384",
                        "iconUrl": "",
                        "isERC1155": false,
                        "isERC721": false,
                        "sign": false,
                        "value": ""
                    }
                ]
            },
            {
                "account": "0x88cb956a6bb129fd3d7c8a99470a9b4125a9177f",
                "assets": [
                    {
                        "address": "0xa37d94e80eab7a5bcb6d2e76b7666e341e4b58f6",
                        "amount": "133.330000000000016384",
                        "iconUrl": "",
                        "isERC1155": false,
                        "isERC721": false,
                        "sign": true,
                        "value": ""
                    }
                ]
            }
        ]
    },
    "profile": {
        "basic_info": {
            "baseFee": "",
            "blockNumber": 7339637,
            "callData": "0xa9059cbb00000000000000000000000088cb956a6bb129fd3d7c8a99470a9b4125a9177f0000000000000000000000000000000000000000000000073a5350965ed54000",
            "debugEnable": true,
            "errorInfo": "",
            "eventCount": 1,
            "feeRecipient": "0xea674fdde714fd979de3edf0f56aa9716b898ec8",
            "formatValue": "0",
            "gasLimit": 80000,
            "gasPrice": "6.25",
            "gasUsed": 37261,
            "intTxnCount": 0,
            "internalRevert": false,
            "internalRevertMessage": "",
            "isContractCreation": false,
            "isFlashloan": false,
            "maxFee": "",
            "nonce": 24089,
            "overwritedBlockNumber": -1,
            "priorityFee": "",
            "receiver": "0xa37d94e80eab7a5bcb6d2e76b7666e341e4b58f6",
            "revertMessage": "",
            "sender": "0xfdf1946a9b40245224488f1a36f4a9ed4844a523",
            "simulationEnable": true,
            "sourceTxnHash": "0x95c43b21b413afb7feb5b841360b4fe2043bb0ecc101f1ab2c4383539062160d",
            "status": true,
            "timestamp": "2019-03-10T05:44:02Z",
            "transactionFee": "0.00023288125",
            "txnHash": "0x95c43b21b413afb7feb5b841360b4fe2043bb0ecc101f1ab2c4383539062160d",
            "txnIndex": 6,
            "type": 0,
            "value": "0"
        },
        "fund_flow": [
            {
                "amount": "133.330000000000016384",
                "from": "0xfdf1946a9b40245224488f1a36f4a9ed4844a523",
                "id": 1,
                "isERC1155": false,
                "isERC721": false,
                "isReverted": false,
                "order": 1,
                "to": "0x88cb956a6bb129fd3d7c8a99470a9b4125a9177f",
                "token": "0xa37d94e80eab7a5bcb6d2e76b7666e341e4b58f6"
            }
        ],
        "token_infos": [
            {
                "address": "0xa37d94e80eab7a5bcb6d2e76b7666e341e4b58f6",
                "decimals": 18
            },
            {
                "address": "0xc02aaa39b223fe8d0a0e5c4f27ead9083c756cc2",
                "decimals": 18
            },
            {
                "address": "0xeeeeeeeeeeeeeeeeeeeeeeeeeeeeeeeeeeeeeeee",
                "decimals": 18
            }
        ]
    },
    "address_label": {
        "labels": [
            {
                "address": "0xa37d94e80eab7a5bcb6d2e76b7666e341e4b58f6",
                "label": "PFC"
            },
            {
                "address": "0x0000000000000000000000000000000000000001",
                "label": "Precompiled"
            },
            {
                "address": "0x0000000000000000000000000000000000000002",
                "label": "Precompiled"
            },
            {
                "address": "0x0000000000000000000000000000000000000003",
                "label": "Precompiled"
            },
            {
                "address": "0x0000000000000000000000000000000000000004",
                "label": "Precompiled"
            },
            {
                "address": "0xeeeeeeeeeeeeeeeeeeeeeeeeeeeeeeeeeeeeeeee",
                "label": "Ether"
            }
        ]
    },
    "trace": {
        "accountLabels": null,
        "dataMap": {
            "-1": {
                "invocation": {
                    "address": "0xfdf1946a9b40245224488f1a36f4a9ed4844a523",
                    "callData": "",
                    "decodedMethod": null,
                    "errorInfo": "",
                    "fromAddress": "",
                    "gasUsed": 0,
                    "id": -1,
                    "methodDecoded": false,
                    "operation": "",
                    "output": "",
                    "revert": false,
                    "revertMessage": "",
                    "selector": "",
                    "status": false,
                    "value": ""
                },
                "nodeType": 0
            },
            "0": {
                "invocation": {
                    "address": "0xa37d94e80eab7a5bcb6d2e76b7666e341e4b58f6",
                    "callData": "0x00000000000000000000000088cb956a6bb129fd3d7c8a99470a9b4125a9177f0000000000000000000000000000000000000000000000073a5350965ed54000",
                    "decodedMethod": {
                        "callParams": [
                            {
                                "name": "dst",
                                "type": "address",
                                "value": "0x88cb956a6bb129fd3d7c8a99470a9b4125a9177f"
                            },
                            {
                                "decimalAvailable": true,
                                "name": "wad",
                                "type": "uint256",
                                "value": "133,330,000,000,000,016,384"
                            }
                        ],
                        "constructorArguments": "",
                        "name": "transfer",
                        "returnParams": [
                            {
                                "name": "",
                                "type": "bool",
                                "value": true
                            }
                        ],
                        "signature": "transfer(address,uint256)"
                    },
                    "errorInfo": "",
                    "fromAddress": "0xfdf1946a9b40245224488f1a36f4a9ed4844a523",
                    "gasUsed": 37261,
                    "id": 0,
                    "methodDecoded": true,
                    "operation": "CALL",
                    "output": "0x0000000000000000000000000000000000000000000000000000000000000001",
                    "revert": false,
                    "revertMessage": "",
                    "selector": "0xa9059cbb",
                    "status": true,
                    "value": "0"
                },
                "nodeType": 0
            },
            "1": {
                "event": {
                    "contract": "0xa37d94e80eab7a5bcb6d2e76b7666e341e4b58f6",
                    "decodedLog": {
                        "name": "Transfer",
                        "params": [
                            {
                                "name": "from",
                                "type": "address",
                                "value": "0xfdf1946a9b40245224488f1a36f4a9ed4844a523"
                            },
                            {
                                "name": "to",
                                "type": "address",
                                "value": "0x88cb956a6bb129fd3d7c8a99470a9b4125a9177f"
                            },
                            {
                                "decimalAvailable": true,
                                "name": "value",
                                "type": "uint256",
                                "value": "133,330,000,000,000,016,384"
                            }
                        ],
                        "signature": "Transfer(address,address,uint256)"
                    },
                    "id": 1,
                    "logData": "0x0000000000000000000000000000000000000000000000073a5350965ed54000",
                    "logDecoded": true,
                    "operation": "EVENT",
                    "revert": false,
                    "status": true,
                    "topics": [
                        "0xddf252ad1be2c89b69c2b068fc378daa952ba7f163c4a11628f55a4df523b3ef",
                        "0x000000000000000000000000fdf1946a9b40245224488f1a36f4a9ed4844a523",
                        "0x00000000000000000000000088cb956a6bb129fd3d7c8a99470a9b4125a9177f"
                    ]
                },
                "nodeType": 1
            }
        },
        "gasFlame": [
            {
                "children": [
                    {
                        "children": [
                            {
                                "children": [],
                                "depth": 0,
                                "name": "Initial Gas",
                                "value": 23320
                            },
                            {
                                "children": [],
                                "depth": 0,
                                "name": "Executed Gas",
                                "value": 13941
                            }
                        ],
                        "depth": -1,
                        "name": "Actual Gas Used",
                        "value": 37261
                    },
                    {
                        "children": [],
                        "depth": -1,
                        "name": "Refunded Gas",
                        "value": 0
                    }
                ],
                "depth": -2,
                "name": "Total Gas",
                "value": 37261
            }
        ],
        "isConfirmed": true,
        "mainTrace": [
            {
                "children": [
                    {
                        "children": [
                            {
                                "children": [],
                                "depth": 1,
                                "id": 1,
                                "order": 1
                            }
                        ],
                        "depth": 0,
                        "id": 0,
                        "order": 0
                    }
                ],
                "depth": -1,
                "id": -1,
                "order": -1
            }
        ],
        "mainTraceNodeCount": 2,
        "parentIdMap": {
            "0": -1,
            "1": 0
        },
        "tidyTrace": [
            {
                "children": [
                    {
                        "children": [
                            {
                                "children": [],
                                "depth": 1,
                                "id": 1,
                                "order": 1
                            }
                        ],
                        "depth": 0,
                        "id": 0,
                        "order": 0
                    }
                ],
                "depth": -1,
                "id": -1,
                "order": -1
            }
        ],
        "tidyTraceNodeCount": 2
    },
    "state_change": {
        "stateChanges": [
            {
                "address": "0xa37d94e80eab7a5bcb6d2e76b7666e341e4b58f6",
                "erc": "ERC-20",
                "slots": [
                    {
                        "current": "0x000000000000000000000000000000000000000000018c5f61cae83946038580",
                        "key": "0x0a7448285f1da66068c4412e696a19270efe58758129b97d835508c10fc15f7c",
                        "prev": "0x000000000000000000000000000000000000000000018c669c1e38cfa4d8c580"
                    },
                    {
                        "current": "0x000000000000000000000000000000000000000000000029b1e46f72b8114000",
                        "key": "0x48c64dd49b085cc08887de5b07b2514fe91ba91dfdf3611f251b45a3a5ef06a2",
                        "prev": "0x00000000000000000000000000000000000000000000002277911edc593c0000"
                    }
                ],
                "storageVariables": [
                    {
                        "name": "_balances",
                        "type": "mapping(address => uint256)",
                        "value": {
                            "pairs": [
                                {
                                    "key": "0x88cb956a6bb129fd3d7c8a99470a9b4125a9177f",
                                    "value": {
                                        "current": "769134999999999983616",
                                        "prev": "635804999999999967232",
                                        "typeTag": 1
                                    }
                                },
                                {
                                    "key": "0xfdf1946a9b40245224488f1a36f4a9ed4844a523",
                                    "value": {
                                        "current": "1871816614603281572005248",
                                        "prev": "1871949944603281572021632",
                                        "typeTag": 1
                                    }
                                }
                            ],
                            "typeTag": 4
                        }
                    }
                ]
            }
        ]
    }
}