{
    "balance_change": {
        "balanceChanges": [
            {
                "account": "0x223f3557663be0ff449b814e986015ac40da97a6",
                "assets": [
                    {
                        "address": "0xcf6daab95c476106eca715d48de4b13287ffdeaa",
                        "amount": "3,613.267981945834481074",
                        "iconUrl": "",
                        "isERC1155": false,
                        "isERC721": false,
                        "sign": false,
                        "value": "888.1921874"
                    },
                    {
                        "address": "0x95ad61b0a150d79219dcf64e1e6cc01f0b64c4ce",
                        "amount": "59,539,864.485356019337447096",
                        "iconUrl": "https://assets.blocksec.com/icon/56235cdcac277d59ed89deae8cb8e206f4c4384e75186903e74565b748deabf5.png",
                        "isERC1155": false,
                        "isERC721": false,
                        "sign": true,
                        "value": "535.8587804100000136"
                    },
                    {
                        "address": "0xeeeeeeeeeeeeeeeeeeeeeeeeeeeeeeeeeeeeeeee",
                        "amount": "0.221261433012242106",
                        "iconUrl": "https://assets.blocksec.com/image/1663669189317-3.png",
                        "isERC1155": false,
                        "isERC721": false,
                        "sign": true,
                        "value": "512.09485885373525194"
                    }
                ]
            },
            {
                "account": "0x0000000000000000000000000000000000000000",
                "assets": [
                    {
                        "address": "0xcf6daab95c476106eca715d48de4b13287ffdeaa",
                        "amount": "3,613.109767138292223244",
                        "iconUrl": "",
                        "isERC1155": false,
                        "isERC721": false,
                        "sign": true,
                        "value": "888.1578425"
                    }
                ]
            },
            {
                "account": "0x00e82e98a2119aa175eab206706efe0df2c7d51d",
                "assets": [
                    {
                        "address": "0xcf6daab95c476106eca715d48de4b13287ffdeaa",
                        "amount": "0.15821480754225783",
                        "iconUrl": "",
                        "isERC1155": false,
                        "isERC721": false,
                        "sign": true,
                        "value": "0.03901631"
                    }
                ]
            },
            {
                "account": "0xc02aaa39b223fe8d0a0e5c4f27ead9083c756cc2",
                "assets": [
                    {
                        "address": "0xeeeeeeeeeeeeeeeeeeeeeeeeeeeeeeeeeeeeeeee",
                        "amount": "0.221261433012242106",
                        "iconUrl": "https://assets.blocksec.com/image/1663669189317-3.png",
                        "isERC1155": false,
                        "isERC721": false,
                        "sign": false,
                        "value": "512.09485885373525194"
                    },
                    {
                        "address": "0xc02aaa39b223fe8d0a0e5c4f27ead9083c756cc2",
                        "amount": "0.221261433012242106",
                        "iconUrl": "https://assets.blocksec.com/icon/f1cb2d02c471d545bbc7722daf3277fd852d98e63d118771af7047bd8256c516.png",
                        "isERC1155": false,
                        "isERC721": false,
                        "sign": true,
                        "value": "512.09485885373525194"
                    }
                ]
            },
            {
                "account": "0xcf6daab95c476106eca715d48de4b13287ffdeaa",
                "assets": [
                    {
                        "address": "0x95ad61b0a150d79219dcf64e1e6cc01f0b64c4ce",
                        "amount": "59,539,864.485356019337447096",
                        "iconUrl": "https://assets.blocksec.com/icon/56235cdcac277d59ed89deae8cb8e206f4c4384e75186903e74565b748deabf5.png",
                        "isERC1155": false,
                        "isERC721": false,
                        "sign": false,
                        "value": "535.8587804100000136"
                    },
                    {
                        "address": "0xc02aaa39b223fe8d0a0e5c4f27ead9083c756cc2",
                        "amount": "0.221261433012242106",
                        "iconUrl": "https://assets.blocksec.com/icon/f1cb2d02c471d545bbc7722daf3277fd852d98e63d118771af7047bd8256c516.png",
                        "isERC1155": false,
                        "isERC721": false,
                        "sign": false,
                        "value": "512.09485885373525194"
                    }
                ]
            }
        ]
    },
    "profile": {
        "basic_info": {
            "baseFee": "",
            "blockNumber": 12825917,
            "callData": "0xded9382a00000000000000000000000095ad61b0a150d79219dcf64e1e6cc01f0b64c4ce0000000000000000000000000000000000000000000000c3e02a95aa5e02a5b2000000000000000000000000000000000000000000310105a65ac48ae6c4d0cb000000000000000000000000000000000000000000000000030e25d4a19e7f41000000000000000000000000223f3557663be0ff449b814e986015ac40da97a60000000000000000000000000000000000000000000000000000000060ef06210000000000000000000000000000000000000000000000000000000000000000000000000000000000000000000000000000000000000000000000000000001c90435e72d3ff95eba0a1349162f28535c7a07b717296356e5c04fe898ca8f08e00308d3290a075f27fb23fcba071026f7eef1d9c5266fa601d6917e56cc223b0",
            "debugEnable": true,
            "errorInfo": "",
            "eventCount": 10,
            "feeRecipient": "0x52bc44d5378309ee2abf1539bf71de1b7d7be3b5",
            "formatValue": "0",
            "gasLimit": 313337,
            "gasPrice": "40.7",
            "gasUsed": 198144,
            "intTxnCount": 15,
            "internalRevert": false,
            "internalRevertMessage": "",
            "isContractCreation": false,
            "isFlashloan": false,
            "maxFee": "",
            "nonce": 137,
            "overwritedBlockNumber": -1,
            "priorityFee": "",
            "receiver": "0x03f7724180aa6b939894b5ca4314783b0b36b329",
            "revertMessage": "",
            "sender": "0x223f3557663be0ff449b814e986015ac40da97a6",
            "simulationEnable": true,
            "sourceTxnHash": "0x9572549188d389febbfb5b0f61291bfbe3fcbc4912440cf734758ff16e598ef7",
            "status": true,
            "timestamp": "2021-07-14T15:24:10Z",
            "transactionFee": "0.0080644608",
            "txnHash": "0x9572549188d389febbfb5b0f61291bfbe3fcbc4912440cf734758ff16e598ef7",
            "txnIndex": 110,
            "type": 0,
            "value": "0"
        },
        "fund_flow": [
            {
                "amount": "3,613.267981945834481074",
                "from": "0x223f3557663be0ff449b814e986015ac40da97a6",
                "id": 1,
                "isERC1155": false,
                "isERC721": false,
                "isReverted": false,
                "order": 1,
                "to": "0xcf6daab95c476106eca715d48de4b13287ffdeaa",
                "token": "0xcf6daab95c476106eca715d48de4b13287ffdeaa"
            },
            {
                "amount": "0.15821480754225783",
                "from": "0x0000000000000000000000000000000000000000",
                "id": 2,
                "isERC1155": false,
                "isERC721": false,
                "isReverted": false,
                "order": 2,
                "to": "0x00e82e98a2119aa175eab206706efe0df2c7d51d",
                "token": "0xcf6daab95c476106eca715d48de4b13287ffdeaa"
            },
            {
                "amount": "3,613.267981945834481074",
                "from": "0xcf6daab95c476106eca715d48de4b13287ffdeaa",
                "id": 3,
                "isERC1155": false,
                "isERC721": false,
                "isReverted": false,
                "order": 3,
                "to": "0x0000000000000000000000000000000000000000",
                "token": "0xcf6daab95c476106eca715d48de4b13287ffdeaa"
            },
            {
                "amount": "59,539,864.485356019337447096",
                "from": "0xcf6daab95c476106eca715d48de4b13287ffdeaa",
                "id": 4,
                "isERC1155": false,
                "isERC721": false,
                "isReverted": false,
                "order": 4,
                "to": "0x03f7724180aa6b939894b5ca4314783b0b36b329",
                "token": "0x95ad61b0a150d79219dcf64e1e6cc01f0b64c4ce"
            },
            {
                "amount": "0.221261433012242106",
                "from": "0xcf6daab95c476106eca715d48de4b13287ffdeaa",
                "id": 5,
                "isERC1155": false,
                "isERC721": false,
                "isReverted": false,
                "order": 5,
                "to": "0x03f7724180aa6b939894b5ca4314783b0b36b329",
                "token": "0xc02aaa39b223fe8d0a0e5c4f27ead9083c756cc2"
            },
            {
                "amount": "59,539,864.485356019337447096",
                "from": "0x03f7724180aa6b939894b5ca4314783b0b36b329",
                "id": 6,
                "isERC1155": false,
                "isERC721": false,
                "isReverted": false,
                "order": 6,
                "to": "0x223f3557663be0ff449b814e986015ac40da97a6",
                "token": "0x95ad61b0a150d79219dcf64e1e6cc01f0b64c4ce"
            },
            {
                "amount": "0.221261433012242106",
                "from": "0xc02aaa39b223fe8d0a0e5c4f27ead9083c756cc2",
                "id": 7,
                "isERC1155": false,
                "isERC721": false,
                "isReverted": false,
                "order": 7,
                "to": "0x03f7724180aa6b939894b5ca4314783b0b36b329",
                "token": "0xeeeeeeeeeeeeeeeeeeeeeeeeeeeeeeeeeeeeeeee"
            },
            {
                "amount": "0.221261433012242106",
                "from": "0x03f7724180aa6b939894b5ca4314783b0b36b329",
                "id": 8,
                "isERC1155": false,
                "isERC721": false,
                "isReverted": false,
                "order": 8,
                "to": "0xc02aaa39b223fe8d0a0e5c4f27ead9083c756cc2",
                "token": "0xc02aaa39b223fe8d0a0e5c4f27ead9083c756cc2"
            },
            {
                "amount": "0.221261433012242106",
                "from": "0x03f7724180aa6b939894b5ca4314783b0b36b329",
                "id": 9,
                "isERC1155": false,
                "isERC721": false,
                "isReverted": false,
                "order": 9,
                "to": "0x223f3557663be0ff449b814e986015ac40da97a6",
                "token": "0xeeeeeeeeeeeeeeeeeeeeeeeeeeeeeeeeeeeeeeee"
            }
        ],
        "token_infos": [
            {
                "address": "0x95ad61b0a150d79219dcf64e1e6cc01f0b64c4ce",
                "decimals": 18
            },
            {
                "address": "0xc02aaa39b223fe8d0a0e5c4f27ead9083c756cc2",
                "decimals": 18
            },
            {
                "address": "0xcf6daab95c476106eca715d48de4b13287ffdeaa",
                "decimals": 18
            },
            {
                "address": "0xeeeeeeeeeeeeeeeeeeeeeeeeeeeeeeeeeeeeeeee",
                "decimals": 18
            }
        ]
    },
    "address_label": {
        "labels": [
            {
                "address": "0xcf6daab95c476106eca715d48de4b13287ffdeaa",
                "label": "ShibaSwap LP Token (SSLP)"
            },
            {
                "address": "0x0000000000000000000000000000000000000003",
                "label": "Precompiled"
            },
            {
                "address": "0xeeeeeeeeeeeeeeeeeeeeeeeeeeeeeeeeeeeeeeee",
                "label": "Ether"
            },
            {
                "address": "0x95ad61b0a150d79219dcf64e1e6cc01f0b64c4ce",
                "label": "Shiba Inu: SHIB Token"
            },
            {
                "address": "0x115934131916c8b277dd010ee02de363c09d037c",
                "label": "UniswapV2Factory"
            },
            {
                "address": "0x0000000000000000000000000000000000000002",
                "label": "Precompiled"
            },
            {
                "address": "0x0000000000000000000000000000000000000004",
                "label": "Precompiled"
            },
            {
                "address": "0x03f7724180aa6b939894b5ca4314783b0b36b329",
                "label": "Shiba Inu: ShibaSwap"
            },
            {
                "address": "0xc02aaa39b223fe8d0a0e5c4f27ead9083c756cc2",
                "label": "Wrapped Ether (WETH)"
            },
            {
                "address": "0x0000000000000000000000000000000000000001",
                "label": "Precompiled"
            }
        ]
    },
    "trace": {
        "accountLabels": null,
        "dataMap": {
            "-1": {
                "invocation": {
                    "address": "0x223f3557663be0ff449b814e986015ac40da97a6",
                    "callData": "",
                    "decodedMethod": null,
                    "errorInfo": "",
                    "fromAddress": "",
                    "gasUsed": 0,
                    "id": -1,
                    "methodDecoded": false,
                    "operation": "",
                    "output": "",
                    "revert": false,
                    "revertMessage": "",
                    "selector": "",
                    "status": false,
                    "value": ""
                },
                "nodeType": 0
            },
            "0": {
                "invocation": {
                    "address": "0x03f7724180aa6b939894b5ca4314783b0b36b329",
                    "callData": "0x00000000000000000000000095ad61b0a150d79219dcf64e1e6cc01f0b64c4ce0000000000000000000000000000000000000000000000c3e02a95aa5e02a5b2000000000000000000000000000000000000000000310105a65ac48ae6c4d0cb000000000000000000000000000000000000000000000000030e25d4a19e7f41000000000000000000000000223f3557663be0ff449b814e986015ac40da97a60000000000000000000000000000000000000000000000000000000060ef06210000000000000000000000000000000000000000000000000000000000000000000000000000000000000000000000000000000000000000000000000000001c90435e72d3ff95eba0a1349162f28535c7a07b717296356e5c04fe898ca8f08e00308d3290a075f27fb23fcba071026f7eef1d9c5266fa601d6917e56cc223b0",
                    "decodedMethod": {
                        "callParams": [
                            {
                                "name": "token",
                                "type": "address",
                                "value": "0x95ad61b0a150d79219dcf64e1e6cc01f0b64c4ce"
                            },
                            {
                                "name": "liquidity",
                                "type": "uint256",
                                "value": "3,613,267,981,945,834,481,074"
                            },
                            {
                                "name": "amountTokenMin",
                                "type": "uint256",
                                "value": "59,242,191,748,429,526,809,759,947"
                            },
                            {
                                "name": "amountETHMin",
                                "type": "uint256",
                                "value": "220,155,026,962,546,497"
                            },
                            {
                                "name": "to",
                                "type": "address",
                                "value": "0x223f3557663be0ff449b814e986015ac40da97a6"
                            },
                            {
                                "name": "deadline",
                                "type": "uint256",
                                "value": "1,626,277,409"
                            },
                            {
                                "name": "approveMax",
                                "type": "bool",
                                "value": false
                            },
                            {
                                "name": "v",
                                "type": "uint8",
                                "value": "28"
                            },
                            {
                                "name": "r",
                                "type": "bytes32",
                                "value": "0x90435e72d3ff95eba0a1349162f28535c7a07b717296356e5c04fe898ca8f08e"
                            },
                            {
                                "name": "s",
                                "type": "bytes32",
                                "value": "0x00308d3290a075f27fb23fcba071026f7eef1d9c5266fa601d6917e56cc223b0"
                            }
                        ],
                        "constructorArguments": "",
                        "name": "removeLiquidityETHWithPermit",
                        "returnParams": [
                            {
                                "name": "amountToken",
                                "type": "uint256",
                                "value": "59,539,864,485,356,019,337,447,096"
                            },
                            {
                                "name": "amountETH",
                                "type": "uint256",
                                "value": "221,261,433,012,242,106"
                            }
                        ],
                        "signature": "removeLiquidityETHWithPermit(address,uint256,uint256,uint256,address,uint256,bool,uint8,bytes32,bytes32)"
                    },
                    "errorInfo": "",
                    "fromAddress": "0x223f3557663be0ff449b814e986015ac40da97a6",
                    "gasUsed": 198144,
                    "id": 0,
                    "methodDecoded": true,
                    "operation": "CALL",
                    "output": "0x00000000000000000000000000000000000000000031400e856f0d6f2994c6b800000000000000000000000000000000000000000000000003121419dd3046ba",
                    "revert": false,
                    "revertMessage": "",
                    "selector": "0xded9382a",
                    "status": true,
                    "value": "0"
                },
                "nodeType": 0
            },
            "1": {
                "invocation": {
                    "address": "0xcf6daab95c476106eca715d48de4b13287ffdeaa",
                    "callData": "0x000000000000000000000000223f3557663be0ff449b814e986015ac40da97a600000000000000000000000003f7724180aa6b939894b5ca4314783b0b36b3290000000000000000000000000000000000000000000000c3e02a95aa5e02a5b20000000000000000000000000000000000000000000000000000000060ef0621000000000000000000000000000000000000000000000000000000000000001c90435e72d3ff95eba0a1349162f28535c7a07b717296356e5c04fe898ca8f08e00308d3290a075f27fb23fcba071026f7eef1d9c5266fa601d6917e56cc223b0",
                    "decodedMethod": {
                        "callParams": [
                            {
                                "name": "owner",
                                "type": "address",
                                "value": "0x223f3557663be0ff449b814e986015ac40da97a6"
                            },
                            {
                                "name": "spender",
                                "type": "address",
                                "value": "0x03f7724180aa6b939894b5ca4314783b0b36b329"
                            },
                            {
                                "name": "value",
                                "type": "uint256",
                                "value": "3,613,267,981,945,834,481,074"
                            },
                            {
                                "name": "deadline",
                                "type": "uint256",
                                "value": "1,626,277,409"
                            },
                            {
                                "name": "v",
                                "type": "uint8",
                                "value": "28"
                            },
                            {
                                "name": "r",
                                "type": "bytes32",
                                "value": "0x90435e72d3ff95eba0a1349162f28535c7a07b717296356e5c04fe898ca8f08e"
                            },
                            {
                                "name": "s",
                                "type": "bytes32",
                                "value": "0x00308d3290a075f27fb23fcba071026f7eef1d9c5266fa601d6917e56cc223b0"
                            }
                        ],
                        "constructorArguments": "",
                        "name": "permit",
                        "returnParams": [],
                        "signature": "permit(address,address,uint256,uint256,uint8,bytes32,bytes32)"
                    },
                    "errorInfo": "",
                    "fromAddress": "0x03f7724180aa6b939894b5ca4314783b0b36b329",
                    "gasUsed": 35725,
                    "id": 1,
                    "methodDecoded": true,
                    "operation": "CALL",
                    "output": "",
                    "revert": false,
                    "revertMessage": "",
                    "selector": "0xd505accf",
                    "status": true,
                    "value": "0"
                },
                "nodeType": 0
            },
            "10": {
                "event": {
                    "contract": "0xcf6daab95c476106eca715d48de4b13287ffdeaa",
                    "decodedLog": {
                        "name": "Transfer",
                        "params": [
                            {
                                "name": "from",
                                "type": "address",
                                "value": "0x0000000000000000000000000000000000000000"
                            },
                            {
                                "name": "to",
                                "type": "address",
                                "value": "0x00e82e98a2119aa175eab206706efe0df2c7d51d"
                            },
                            {
                                "decimalAvailable": true,
                                "name": "value",
                                "type": "uint256",
                                "value": "158,214,807,542,257,830"
                            }
                        ],
                        "signature": "Transfer(address,address,uint256)"
                    },
                    "id": 10,
                    "logData": "0x0000000000000000000000000000000000000000000000000232178779c358a6",
                    "logDecoded": true,
                    "operation": "EVENT",
                    "revert": false,
                    "status": true,
                    "topics": [
                        "0xddf252ad1be2c89b69c2b068fc378daa952ba7f163c4a11628f55a4df523b3ef",
                        "0x0000000000000000000000000000000000000000000000000000000000000000",
                        "0x00000000000000000000000000e82e98a2119aa175eab206706efe0df2c7d51d"
                    ]
                },
                "nodeType": 1
            },
            "11": {
                "event": {
                    "contract": "0xcf6daab95c476106eca715d48de4b13287ffdeaa",
                    "decodedLog": {
                        "name": "Transfer",
                        "params": [
                            {
                                "name": "from",
                                "type": "address",
                                "value": "0xcf6daab95c476106eca715d48de4b13287ffdeaa"
                            },
                            {
                                "name": "to",
                                "type": "address",
                                "value": "0x0000000000000000000000000000000000000000"
                            },
                            {
                                "decimalAvailable": true,
                                "name": "value",
                                "type": "uint256",
                                "value": "3,613,267,981,945,834,481,074"
                            }
                        ],
                        "signature": "Transfer(address,address,uint256)"
                    },
                    "id": 11,
                    "logData": "0x0000000000000000000000000000000000000000000000c3e02a95aa5e02a5b2",
                    "logDecoded": true,
                    "operation": "EVENT",
                    "revert": false,
                    "status": true,
                    "topics": [
                        "0xddf252ad1be2c89b69c2b068fc378daa952ba7f163c4a11628f55a4df523b3ef",
                        "0x000000000000000000000000cf6daab95c476106eca715d48de4b13287ffdeaa",
                        "0x0000000000000000000000000000000000000000000000000000000000000000"
                    ]
                },
                "nodeType": 1
            },
            "12": {
                "invocation": {
                    "address": "0x95ad61b0a150d79219dcf64e1e6cc01f0b64c4ce",
                    "callData": "0x00000000000000000000000003f7724180aa6b939894b5ca4314783b0b36b32900000000000000000000000000000000000000000031400e856f0d6f2994c6b8",
                    "decodedMethod": {
                        "callParams": [
                            {
                                "name": "recipient",
                                "type": "address",
                                "value": "0x03f7724180aa6b939894b5ca4314783b0b36b329"
                            },
                            {
                                "decimalAvailable": true,
                                "name": "amount",
                                "type": "uint256",
                                "value": "59,539,864,485,356,019,337,447,096"
                            }
                        ],
                        "constructorArguments": "",
                        "name": "transfer",
                        "returnParams": [
                            {
                                "name": "",
                                "type": "bool",
                                "value": true
                            }
                        ],
                        "signature": "transfer(address,uint256)"
                    },
                    "errorInfo": "",
                    "fromAddress": "0xcf6daab95c476106eca715d48de4b13287ffdeaa",
                    "gasUsed": 28227,
                    "id": 12,
                    "methodDecoded": true,
                    "operation": "CALL",
                    "output": "0x0000000000000000000000000000000000000000000000000000000000000001",
                    "revert": false,
                    "revertMessage": "",
                    "selector": "0xa9059cbb",
                    "status": true,
                    "value": "0"
                },
                "nodeType": 0
            },
            "13": {
                "event": {
                    "contract": "0x95ad61b0a150d79219dcf64e1e6cc01f0b64c4ce",
                    "decodedLog": {
                        "name": "Transfer",
                        "params": [
                            {
                                "name": "from",
                                "type": "address",
                                "value": "0xcf6daab95c476106eca715d48de4b13287ffdeaa"
                            },
                            {
                                "name": "to",
                                "type": "address",
                                "value": "0x03f7724180aa6b939894b5ca4314783b0b36b329"
                            },
                            {
                                "decimalAvailable": true,
                                "name": "value",
                                "type": "uint256",
                                "value": "59,539,864,485,356,019,337,447,096"
                            }
                        ],
                        "signature": "Transfer(address,address,uint256)"
                    },
                    "id": 13,
                    "logData": "0x00000000000000000000000000000000000000000031400e856f0d6f2994c6b8",
                    "logDecoded": true,
                    "operation": "EVENT",
                    "revert": false,
                    "status": true,
                    "topics": [
                        "0xddf252ad1be2c89b69c2b068fc378daa952ba7f163c4a11628f55a4df523b3ef",
                        "0x000000000000000000000000cf6daab95c476106eca715d48de4b13287ffdeaa",
                        "0x00000000000000000000000003f7724180aa6b939894b5ca4314783b0b36b329"
                    ]
                },
                "nodeType": 1
            },
            "14": {
                "invocation": {
                    "address": "0xc02aaa39b223fe8d0a0e5c4f27ead9083c756cc2",
                    "callData": "0x00000000000000000000000003f7724180aa6b939894b5ca4314783b0b36b32900000000000000000000000000000000000000000000000003121419dd3046ba",
                    "decodedMethod": {
                        "callParams": [
                            {
                                "name": "dst",
                                "type": "address",
                                "value": "0x03f7724180aa6b939894b5ca4314783b0b36b329"
                            },
                            {
                                "decimalAvailable": true,
                                "name": "wad",
                                "type": "uint256",
                                "value": "221,261,433,012,242,106"
                            }
                        ],
                        "constructorArguments": "",
                        "name": "transfer",
                        "returnParams": [
                            {
                                "name": "",
                                "type": "bool",
                                "value": true
                            }
                        ],
                        "signature": "transfer(address,uint256)"
                    },
                    "errorInfo": "",
                    "fromAddress": "0xcf6daab95c476106eca715d48de4b13287ffdeaa",
                    "gasUsed": 27962,
                    "id": 14,
                    "methodDecoded": true,
                    "operation": "CALL",
                    "output": "0x0000000000000000000000000000000000000000000000000000000000000001",
                    "revert": false,
                    "revertMessage": "",
                    "selector": "0xa9059cbb",
                    "status": true,
                    "value": "0"
                },
                "nodeType": 0
            },
            "15": {
                "event": {
                    "contract": "0xc02aaa39b223fe8d0a0e5c4f27ead9083c756cc2",
                    "decodedLog": {
                        "name": "Transfer",
                        "params": [
                            {
                                "name": "src",
                                "type": "address",
                                "value": "0xcf6daab95c476106eca715d48de4b13287ffdeaa"
                            },
                            {
                                "name": "dst",
                                "type": "address",
                                "value": "0x03f7724180aa6b939894b5ca4314783b0b36b329"
                            },
                            {
                                "decimalAvailable": true,
                                "name": "wad",
                                "type": "uint256",
                                "value": "221,261,433,012,242,106"
                            }
                        ],
                        "signature": "Transfer(address,address,uint256)"
                    },
                    "id": 15,
                    "logData": "0x00000000000000000000000000000000000000000000000003121419dd3046ba",
                    "logDecoded": true,
                    "operation": "EVENT",
                    "revert": false,
                    "status": true,
                    "topics": [
                        "0xddf252ad1be2c89b69c2b068fc378daa952ba7f163c4a11628f55a4df523b3ef",
                        "0x000000000000000000000000cf6daab95c476106eca715d48de4b13287ffdeaa",
                        "0x00000000000000000000000003f7724180aa6b939894b5ca4314783b0b36b329"
                    ]
                },
                "nodeType": 1
            },
            "16": {
                "invocation": {
                    "address": "0x95ad61b0a150d79219dcf64e1e6cc01f0b64c4ce",
                    "callData": "0x000000000000000000000000cf6daab95c476106eca715d48de4b13287ffdeaa",
                    "decodedMethod": {
                        "callParams": [
                            {
                                "name": "account",
                                "type": "address",
                                "value": "0xcf6daab95c476106eca715d48de4b13287ffdeaa"
                            }
                        ],
                        "constructorArguments": "",
                        "name": "balanceOf",
                        "returnParams": [
                            {
                                "decimalAvailable": true,
                                "name": "",
                                "type": "uint256",
                                "value": "11,596,414,317,719,116,493,371,017,211,245"
                            }
                        ],
                        "signature": "balanceOf(address)"
                    },
                    "errorInfo": "",
                    "fromAddress": "0xcf6daab95c476106eca715d48de4b13287ffdeaa",
                    "gasUsed": 639,
                    "id": 16,
                    "methodDecoded": true,
                    "operation": "STATICCALL",
                    "output": "0x00000000000000000000000000000000000000925e091947a75b5dd99a272d6d",
                    "revert": false,
                    "revertMessage": "",
                    "selector": "0x70a08231",
                    "status": true,
                    "value": "0"
                },
                "nodeType": 0
            },
            "17": {
                "invocation": {
                    "address": "0xc02aaa39b223fe8d0a0e5c4f27ead9083c756cc2",
                    "callData": "0x000000000000000000000000cf6daab95c476106eca715d48de4b13287ffdeaa",
                    "decodedMethod": {
                        "callParams": [
                            {
                                "name": "",
                                "type": "address",
                                "value": "0xcf6daab95c476106eca715d48de4b13287ffdeaa"
                            }
                        ],
                        "constructorArguments": "",
                        "name": "balanceOf",
                        "returnParams": [
                            {
                                "decimalAvailable": true,
                                "name": "",
                                "type": "uint256",
                                "value": "43,094,475,809,115,894,428,822"
                            }
                        ],
                        "signature": "balanceOf(address)"
                    },
                    "errorInfo": "",
                    "fromAddress": "0xcf6daab95c476106eca715d48de4b13287ffdeaa",
                    "gasUsed": 534,
                    "id": 17,
                    "methodDecoded": true,
                    "operation": "STATICCALL",
                    "output": "0x00000000000000000000000000000000000000000000092027fdb012915fb496",
                    "revert": false,
                    "revertMessage": "",
                    "selector": "0x70a08231",
                    "status": true,
                    "value": "0"
                },
                "nodeType": 0
            },
            "18": {
                "event": {
                    "contract": "0xcf6daab95c476106eca715d48de4b13287ffdeaa",
                    "decodedLog": {
                        "name": "Sync",
                        "params": [
                            {
                                "name": "reserve0",
                                "type": "uint112",
                                "value": "11,596,414,317,719,116,493,371,017,211,245"
                            },
                            {
                                "name": "reserve1",
                                "type": "uint112",
                                "value": "43,094,475,809,115,894,428,822"
                            }
                        ],
                        "signature": "Sync(uint112,uint112)"
                    },
                    "id": 18,
                    "logData": "0x00000000000000000000000000000000000000925e091947a75b5dd99a272d6d00000000000000000000000000000000000000000000092027fdb012915fb496",
                    "logDecoded": true,
                    "operation": "EVENT",
                    "revert": false,
                    "status": true,
                    "topics": [
                        "0x1c411e9a96e071241c2f21f7726b17ae89e3cab4c78be50e062b03a9fffbbad1"
                    ]
                },
                "nodeType": 1
            },
            "19": {
                "event": {
                    "contract": "0xcf6daab95c476106eca715d48de4b13287ffdeaa",
                    "decodedLog": {
                        "name": "Burn",
                        "params": [
                            {
                                "name": "sender",
                                "type": "address",
                                "value": "0x03f7724180aa6b939894b5ca4314783b0b36b329"
                            },
                            {
                                "name": "to",
                                "type": "address",
                                "value": "0x03f7724180aa6b939894b5ca4314783b0b36b329"
                            },
                            {
                                "name": "amount0",
                                "type": "uint256",
                                "value": "59,539,864,485,356,019,337,447,096"
                            },
                            {
                                "name": "amount1",
                                "type": "uint256",
                                "value": "221,261,433,012,242,106"
                            }
                        ],
                        "signature": "Burn(address,uint256,uint256,address)"
                    },
                    "id": 19,
                    "logData": "0x00000000000000000000000000000000000000000031400e856f0d6f2994c6b800000000000000000000000000000000000000000000000003121419dd3046ba",
                    "logDecoded": true,
                    "operation": "EVENT",
                    "revert": false,
                    "status": true,
                    "topics": [
                        "0xdccd412f0b1252819cb1fd330b93224ca42612892bb3f4f789976e6d81936496",
                        "0x00000000000000000000000003f7724180aa6b939894b5ca4314783b0b36b329",
                        "0x00000000000000000000000003f7724180aa6b939894b5ca4314783b0b36b329"
                    ]
                },
                "nodeType": 1
            },
            "2": {
                "invocation": {
                    "address": "0x0000000000000000000000000000000000000001",
                    "callData": "0xf9794a271acb075bf09c2cfca271b97efe02298f78ecb01df3cd4625000000000000000000000000000000000000000000000000000000000000001c90435e72d3ff95eba0a1349162f28535c7a07b717296356e5c04fe898ca8f08e00308d3290a075f27fb23fcba071026f7eef1d9c5266fa601d6917e56cc223b0",
                    "decodedMethod": {
                        "callParams": [
                            {
                                "name": "hash",
                                "type": "bytes32",
                                "value": "0x0e44f249f9794a271acb075bf09c2cfca271b97efe02298f78ecb01df3cd4625"
                            },
                            {
                                "name": "v",
                                "type": "uint256",
                                "value": "28"
                            },
                            {
                                "name": "r",
                                "type": "bytes32",
                                "value": "0x90435e72d3ff95eba0a1349162f28535c7a07b717296356e5c04fe898ca8f08e"
                            },
                            {
                                "name": "s",
                                "type": "bytes32",
                                "value": "0x00308d3290a075f27fb23fcba071026f7eef1d9c5266fa601d6917e56cc223b0"
                            }
                        ],
                        "constructorArguments": "",
                        "name": "ecrecover",
                        "returnParams": [
                            {
                                "name": "",
                                "type": "address",
                                "value": "0x223f3557663be0ff449b814e986015ac40da97a6"
                            }
                        ],
                        "signature": "ecrecover(bytes32,uint256,bytes32,bytes32)"
                    },
                    "errorInfo": "",
                    "fromAddress": "0xcf6daab95c476106eca715d48de4b13287ffdeaa",
                    "gasUsed": 3000,
                    "id": 2,
                    "methodDecoded": true,
                    "operation": "STATICCALL",
                    "output": "0x000000000000000000000000223f3557663be0ff449b814e986015ac40da97a6",
                    "revert": false,
                    "revertMessage": "",
                    "selector": "0x0e44f249",
                    "status": true,
                    "value": "0"
                },
                "nodeType": 0
            },
            "20": {
                "invocation": {
                    "address": "0x95ad61b0a150d79219dcf64e1e6cc01f0b64c4ce",
                    "callData": "0x000000000000000000000000223f3557663be0ff449b814e986015ac40da97a600000000000000000000000000000000000000000031400e856f0d6f2994c6b8",
                    "decodedMethod": {
                        "callParams": [
                            {
                                "name": "recipient",
                                "type": "address",
                                "value": "0x223f3557663be0ff449b814e986015ac40da97a6"
                            },
                            {
                                "decimalAvailable": true,
                                "name": "amount",
                                "type": "uint256",
                                "value": "59,539,864,485,356,019,337,447,096"
                            }
                        ],
                        "constructorArguments": "",
                        "name": "transfer",
                        "returnParams": [
                            {
                                "name": "",
                                "type": "bool",
                                "value": true
                            }
                        ],
                        "signature": "transfer(address,uint256)"
                    },
                    "errorInfo": "",
                    "fromAddress": "0x03f7724180aa6b939894b5ca4314783b0b36b329",
                    "gasUsed": 25427,
                    "id": 20,
                    "methodDecoded": true,
                    "operation": "CALL",
                    "output": "0x0000000000000000000000000000000000000000000000000000000000000001",
                    "revert": false,
                    "revertMessage": "",
                    "selector": "0xa9059cbb",
                    "status": true,
                    "value": "0"
                },
                "nodeType": 0
            },
            "21": {
                "event": {
                    "contract": "0x95ad61b0a150d79219dcf64e1e6cc01f0b64c4ce",
                    "decodedLog": {
                        "name": "Transfer",
                        "params": [
                            {
                                "name": "from",
                                "type": "address",
                                "value": "0x03f7724180aa6b939894b5ca4314783b0b36b329"
                            },
                            {
                                "name": "to",
                                "type": "address",
                                "value": "0x223f3557663be0ff449b814e986015ac40da97a6"
                            },
                            {
                                "decimalAvailable": true,
                                "name": "value",
                                "type": "uint256",
                                "value": "59,539,864,485,356,019,337,447,096"
                            }
                        ],
                        "signature": "Transfer(address,address,uint256)"
                    },
                    "id": 21,
                    "logData": "0x00000000000000000000000000000000000000000031400e856f0d6f2994c6b8",
                    "logDecoded": true,
                    "operation": "EVENT",
                    "revert": false,
                    "status": true,
                    "topics": [
                        "0xddf252ad1be2c89b69c2b068fc378daa952ba7f163c4a11628f55a4df523b3ef",
                        "0x00000000000000000000000003f7724180aa6b939894b5ca4314783b0b36b329",
                        "0x000000000000000000000000223f3557663be0ff449b814e986015ac40da97a6"
                    ]
                },
                "nodeType": 1
            },
            "22": {
                "invocation": {
                    "address": "0xc02aaa39b223fe8d0a0e5c4f27ead9083c756cc2",
                    "callData": "0x00000000000000000000000000000000000000000000000003121419dd3046ba",
                    "decodedMethod": {
                        "callParams": [
                            {
                                "name": "wad",
                                "type": "uint256",
                                "value": "221,261,433,012,242,106"
                            }
                        ],
                        "constructorArguments": "",
                        "name": "withdraw",
                        "returnParams": [],
                        "signature": "withdraw(uint256)"
                    },
                    "errorInfo": "",
                    "fromAddress": "0x03f7724180aa6b939894b5ca4314783b0b36b329",
                    "gasUsed": 9235,
                    "id": 22,
                    "methodDecoded": true,
                    "operation": "CALL",
                    "output": "",
                    "revert": false,
                    "revertMessage": "",
                    "selector": "0x2e1a7d4d",
                    "status": true,
                    "value": "0"
                },
                "nodeType": 0
            },
            "23": {
                "invocation": {
                    "address": "0x03f7724180aa6b939894b5ca4314783b0b36b329",
                    "callData": "0x",
                    "decodedMethod": null,
                    "errorInfo": "",
                    "fromAddress": "0xc02aaa39b223fe8d0a0e5c4f27ead9083c756cc2",
                    "gasUsed": 95,
                    "id": 23,
                    "methodDecoded": false,
                    "operation": "CALL",
                    "output": "",
                    "revert": false,
                    "revertMessage": "",
                    "selector": "fallback",
                    "status": true,
                    "value": "0.221261433012242106"
                },
                "nodeType": 0
            },
            "24": {
                "event": {
                    "contract": "0xc02aaa39b223fe8d0a0e5c4f27ead9083c756cc2",
                    "decodedLog": {
                        "name": "Withdrawal",
                        "params": [
                            {
                                "name": "src",
                                "type": "address",
                                "value": "0x03f7724180aa6b939894b5ca4314783b0b36b329"
                            },
                            {
                                "name": "wad",
                                "type": "uint256",
                                "value": "221,261,433,012,242,106"
                            }
                        ],
                        "signature": "Withdrawal(address,uint256)"
                    },
                    "id": 24,
                    "logData": "0x00000000000000000000000000000000000000000000000003121419dd3046ba",
                    "logDecoded": true,
                    "operation": "EVENT",
                    "revert": false,
                    "status": true,
                    "topics": [
                        "0x7fcf532c15f0a6db0bd6d0e038bea71d30d808c7d98cb3bf7268a95bf5081b65",
                        "0x00000000000000000000000003f7724180aa6b939894b5ca4314783b0b36b329"
                    ]
                },
                "nodeType": 1
            },
            "25": {
                "invocation": {
                    "address": "0x223f3557663be0ff449b814e986015ac40da97a6",
                    "callData": "0x",
                    "decodedMethod": null,
                    "errorInfo": "",
                    "fromAddress": "0x03f7724180aa6b939894b5ca4314783b0b36b329",
                    "gasUsed": 0,
                    "id": 25,
                    "methodDecoded": false,
                    "operation": "CALL",
                    "output": "",
                    "revert": false,
                    "revertMessage": "",
                    "selector": "fallback",
                    "status": true,
                    "value": "0.221261433012242106"
                },
                "nodeType": 0
            },
            "3": {
                "event": {
                    "contract": "0xcf6daab95c476106eca715d48de4b13287ffdeaa",
                    "decodedLog": {
                        "name": "Approval",
                        "params": [
                            {
                                "name": "owner",
                                "type": "address",
                                "value": "0x223f3557663be0ff449b814e986015ac40da97a6"
                            },
                            {
                                "name": "spender",
                                "type": "address",
                                "value": "0x03f7724180aa6b939894b5ca4314783b0b36b329"
                            },
                            {
                                "decimalAvailable": true,
                                "name": "value",
                                "type": "uint256",
                                "value": "3,613,267,981,945,834,481,074"
                            }
                        ],
                        "signature": "Approval(address,address,uint256)"
                    },
                    "id": 3,
                    "logData": "0x0000000000000000000000000000000000000000000000c3e02a95aa5e02a5b2",
                    "logDecoded": true,
                    "operation": "EVENT",
                    "revert": false,
                    "status": true,
                    "topics": [
                        "0x8c5be1e5ebec7d5bd14f71427d1e84f3dd0314c0f7b2291e5b200ac8c7c3b925",
                        "0x000000000000000000000000223f3557663be0ff449b814e986015ac40da97a6",
                        "0x00000000000000000000000003f7724180aa6b939894b5ca4314783b0b36b329"
                    ]
                },
                "nodeType": 1
            },
            "4": {
                "invocation": {
                    "address": "0xcf6daab95c476106eca715d48de4b13287ffdeaa",
                    "callData": "0x000000000000000000000000223f3557663be0ff449b814e986015ac40da97a6000000000000000000000000cf6daab95c476106eca715d48de4b13287ffdeaa0000000000000000000000000000000000000000000000c3e02a95aa5e02a5b2",
                    "decodedMethod": {
                        "callParams": [
                            {
                                "name": "from",
                                "type": "address",
                                "value": "0x223f3557663be0ff449b814e986015ac40da97a6"
                            },
                            {
                                "name": "to",
                                "type": "address",
                                "value": "0xcf6daab95c476106eca715d48de4b13287ffdeaa"
                            },
                            {
                                "decimalAvailable": true,
                                "name": "value",
                                "type": "uint256",
                                "value": "3,613,267,981,945,834,481,074"
                            }
                        ],
                        "constructorArguments": "",
                        "name": "transferFrom",
                        "returnParams": [
                            {
                                "name": "",
                                "type": "bool",
                                "value": true
                            }
                        ],
                        "signature": "transferFrom(address,address,uint256)"
                    },
                    "errorInfo": "",
                    "fromAddress": "0x03f7724180aa6b939894b5ca4314783b0b36b329",
                    "gasUsed": 30715,
                    "id": 4,
                    "methodDecoded": true,
                    "operation": "CALL",
                    "output": "0x0000000000000000000000000000000000000000000000000000000000000001",
                    "revert": false,
                    "revertMessage": "",
                    "selector": "0x23b872dd",
                    "status": true,
                    "value": "0"
                },
                "nodeType": 0
            },
            "5": {
                "event": {
                    "contract": "0xcf6daab95c476106eca715d48de4b13287ffdeaa",
                    "decodedLog": {
                        "name": "Transfer",
                        "params": [
                            {
                                "name": "from",
                                "type": "address",
                                "value": "0x223f3557663be0ff449b814e986015ac40da97a6"
                            },
                            {
                                "name": "to",
                                "type": "address",
                                "value": "0xcf6daab95c476106eca715d48de4b13287ffdeaa"
                            },
                            {
                                "decimalAvailable": true,
                                "name": "value",
                                "type": "uint256",
                                "value": "3,613,267,981,945,834,481,074"
                            }
                        ],
                        "signature": "Transfer(address,address,uint256)"
                    },
                    "id": 5,
                    "logData": "0x0000000000000000000000000000000000000000000000c3e02a95aa5e02a5b2",
                    "logDecoded": true,
                    "operation": "EVENT",
                    "revert": false,
                    "status": true,
                    "topics": [
                        "0xddf252ad1be2c89b69c2b068fc378daa952ba7f163c4a11628f55a4df523b3ef",
                        "0x000000000000000000000000223f3557663be0ff449b814e986015ac40da97a6",
                        "0x000000000000000000000000cf6daab95c476106eca715d48de4b13287ffdeaa"
                    ]
                },
                "nodeType": 1
            },
            "6": {
                "invocation": {
                    "address": "0xcf6daab95c476106eca715d48de4b13287ffdeaa",
                    "callData": "0x00000000000000000000000003f7724180aa6b939894b5ca4314783b0b36b329",
                    "decodedMethod": {
                        "callParams": [
                            {
                                "name": "to",
                                "type": "address",
                                "value": "0x03f7724180aa6b939894b5ca4314783b0b36b329"
                            }
                        ],
                        "constructorArguments": "",
                        "name": "burn",
                        "returnParams": [
                            {
                                "name": "amount0",
                                "type": "uint256",
                                "value": "59,539,864,485,356,019,337,447,096"
                            },
                            {
                                "name": "amount1",
                                "type": "uint256",
                                "value": "221,261,433,012,242,106"
                            }
                        ],
                        "signature": "burn(address)"
                    },
                    "errorInfo": "",
                    "fromAddress": "0x03f7724180aa6b939894b5ca4314783b0b36b329",
                    "gasUsed": 155388,
                    "id": 6,
                    "methodDecoded": true,
                    "operation": "CALL",
                    "output": "0x00000000000000000000000000000000000000000031400e856f0d6f2994c6b800000000000000000000000000000000000000000000000003121419dd3046ba",
                    "revert": false,
                    "revertMessage": "",
                    "selector": "0x89afcb44",
                    "status": true,
                    "value": "0"
                },
                "nodeType": 0
            },
            "7": {
                "invocation": {
                    "address": "0x95ad61b0a150d79219dcf64e1e6cc01f0b64c4ce",
                    "callData": "0x000000000000000000000000cf6daab95c476106eca715d48de4b13287ffdeaa",
                    "decodedMethod": {
                        "callParams": [
                            {
                                "name": "account",
                                "type": "address",
                                "value": "0xcf6daab95c476106eca715d48de4b13287ffdeaa"
                            }
                        ],
                        "constructorArguments": "",
                        "name": "balanceOf",
                        "returnParams": [
                            {
                                "decimalAvailable": true,
                                "name": "",
                                "type": "uint256",
                                "value": "11,596,473,857,583,601,849,390,354,658,341"
                            }
                        ],
                        "signature": "balanceOf(address)"
                    },
                    "errorInfo": "",
                    "fromAddress": "0xcf6daab95c476106eca715d48de4b13287ffdeaa",
                    "gasUsed": 2639,
                    "id": 7,
                    "methodDecoded": true,
                    "operation": "STATICCALL",
                    "output": "0x00000000000000000000000000000000000000925e3a59562cca6b48c3bbf425",
                    "revert": false,
                    "revertMessage": "",
                    "selector": "0x70a08231",
                    "status": true,
                    "value": "0"
                },
                "nodeType": 0
            },
            "8": {
                "invocation": {
                    "address": "0xc02aaa39b223fe8d0a0e5c4f27ead9083c756cc2",
                    "callData": "0x000000000000000000000000cf6daab95c476106eca715d48de4b13287ffdeaa",
                    "decodedMethod": {
                        "callParams": [
                            {
                                "name": "",
                                "type": "address",
                                "value": "0xcf6daab95c476106eca715d48de4b13287ffdeaa"
                            }
                        ],
                        "constructorArguments": "",
                        "name": "balanceOf",
                        "returnParams": [
                            {
                                "decimalAvailable": true,
                                "name": "",
                                "type": "uint256",
                                "value": "43,094,697,070,548,906,670,928"
                            }
                        ],
                        "signature": "balanceOf(address)"
                    },
                    "errorInfo": "",
                    "fromAddress": "0xcf6daab95c476106eca715d48de4b13287ffdeaa",
                    "gasUsed": 2534,
                    "id": 8,
                    "methodDecoded": true,
                    "operation": "STATICCALL",
                    "output": "0x0000000000000000000000000000000000000000000009202b0fc42c6e8ffb50",
                    "revert": false,
                    "revertMessage": "",
                    "selector": "0x70a08231",
                    "status": true,
                    "value": "0"
                },
                "nodeType": 0
            },
            "9": {
                "invocation": {
                    "address": "0x115934131916c8b277dd010ee02de363c09d037c",
                    "callData": "0x",
                    "decodedMethod": {
                        "callParams": [],
                        "constructorArguments": "",
                        "name": "feeTo",
                        "returnParams": [
                            {
                                "name": "",
                                "type": "address",
                                "value": "0x00e82e98a2119aa175eab206706efe0df2c7d51d"
                            }
                        ],
                        "signature": "feeTo()"
                    },
                    "errorInfo": "",
                    "fromAddress": "0xcf6daab95c476106eca715d48de4b13287ffdeaa",
                    "gasUsed": 2384,
                    "id": 9,
                    "methodDecoded": true,
                    "operation": "STATICCALL",
                    "output": "0x00000000000000000000000000e82e98a2119aa175eab206706efe0df2c7d51d",
                    "revert": false,
                    "revertMessage": "",
                    "selector": "0x017e7e58",
                    "status": true,
                    "value": "0"
                },
                "nodeType": 0
            }
        },
        "gasFlame": [
            {
                "children": [
                    {
                        "children": [
                            {
                                "children": [],
                                "depth": 0,
                                "name": "Initial Gas",
                                "value": 23976
                            },
                            {
                                "children": [
                                    {
                                        "children": [
                                            {
                                                "children": [],
                                                "depth": 2,
                                                "name": "ecrecover",
                                                "value": 3000
                                            }
                                        ],
                                        "depth": 1,
                                        "name": "permit",
                                        "value": 35725
                                    },
                                    {
                                        "children": [],
                                        "depth": 1,
                                        "name": "transferFrom",
                                        "value": 30715
                                    },
                                    {
                                        "children": [
                                            {
                                                "children": [],
                                                "depth": 2,
                                                "name": "balanceOf",
                                                "value": 2639
                                            },
                                            {
                                                "children": [],
                                                "depth": 2,
                                                "name": "balanceOf",
                                                "value": 2534
                                            },
                                            {
                                                "children": [],
                                                "depth": 2,
                                                "name": "feeTo",
                                                "value": 2384
                                            },
                                            {
                                                "children": [],
                                                "depth": 2,
                                                "name": "transfer",
                                                "value": 28227
                                            },
                                            {
                                                "children": [],
                                                "depth": 2,
                                                "name": "transfer",
                                                "value": 27962
                                            },
                                            {
                                                "children": [],
                                                "depth": 2,
                                                "name": "balanceOf",
                                                "value": 639
                                            },
                                            {
                                                "children": [],
                                                "depth": 2,
                                                "name": "balanceOf",
                                                "value": 534
                                            }
                                        ],
                                        "depth": 1,
                                        "name": "burn",
                                        "value": 155388
                                    },
                                    {
                                        "children": [],
                                        "depth": 1,
                                        "name": "transfer",
                                        "value": 25427
                                    },
                                    {
                                        "children": [
                                            {
                                                "children": [],
                                                "depth": 2,
                                                "name": "fallback",
                                                "value": 95
                                            }
                                        ],
                                        "depth": 1,
                                        "name": "withdraw",
                                        "value": 9235
                                    },
                                    {
                                        "children": [],
                                        "depth": 1,
                                        "name": "fallback",
                                        "value": 0
                                    }
                                ],
                                "depth": 0,
                                "name": "Executed Gas",
                                "value": 271568
                            }
                        ],
                        "depth": -1,
                        "name": "Actual Gas Used",
                        "value": 198144
                    },
                    {
                        "children": [],
                        "depth": -1,
                        "name": "Refunded Gas",
                        "value": 97400
                    }
                ],
                "depth": -2,
                "name": "Total Gas",
                "value": 295544
            }
        ],
        "isConfirmed": true,
        "mainTrace": [
            {
                "children": [
                    {
                        "children": [
                            {
                                "children": [
                                    {
                                        "children": [],
                                        "depth": 2,
                                        "id": 2,
                                        "order": 2
                                    },
                                    {
                                        "children": [],
                                        "depth": 2,
                                        "id": 3,
                                        "order": 3
                                    }
                                ],
                                "depth": 1,
                                "id": 1,
                                "order": 1
                            },
                            {
                                "children": [
                                    {
                                        "children": [],
                                        "depth": 2,
                                        "id": 5,
                                        "order": 5
                                    }
                                ],
                                "depth": 1,
                                "id": 4,
                                "order": 4
                            },
                            {
                                "children": [
                                    {
                                        "children": [],
                                        "depth": 2,
                                        "id": 7,
                                        "order": 7
                                    },
                                    {
                                        "children": [],
                                        "depth": 2,
                                        "id": 8,
                                        "order": 8
                                    },
                                    {
                                        "children": [],
                                        "depth": 2,
                                        "id": 9,
                                        "order": 9
                                    },
                                    {
                                        "children": [],
                                        "depth": 2,
                                        "id": 10,
                                        "order": 10
                                    },
                                    {
                                        "children": [],
                                        "depth": 2,
                                        "id": 11,
                                        "order": 11
                                    },
                                    {
                                        "children": [
                                            {
                                                "children": [],
                                                "depth": 3,
                                                "id": 13,
                                                "order": 13
                                            }
                                        ],
                                        "depth": 2,
                                        "id": 12,
                                        "order": 12
                                    },
                                    {
                                        "children": [
                                            {
                                                "children": [],
                                                "depth": 3,
                                                "id": 15,
                                                "order": 15
                                            }
                                        ],
                                        "depth": 2,
                                        "id": 14,
                                        "order": 14
                                    },
                                    {
                                        "children": [],
                                        "depth": 2,
                                        "id": 16,
                                        "order": 16
                                    },
                                    {
                                        "children": [],
                                        "depth": 2,
                                        "id": 17,
                                        "order": 17
                                    },
                                    {
                                        "children": [],
                                        "depth": 2,
                                        "id": 18,
                                        "order": 18
                                    },
                                    {
                                        "children": [],
                                        "depth": 2,
                                        "id": 19,
                                        "order": 19
                                    }
                                ],
                                "depth": 1,
                                "id": 6,
                                "order": 6
                            },
                            {
                                "children": [
                                    {
                                        "children": [],
                                        "depth": 2,
                                        "id": 21,
                                        "order": 21
                                    }
                                ],
                                "depth": 1,
                                "id": 20,
                                "order": 20
                            },
                            {
                                "children": [
                                    {
                                        "children": [],
                                        "depth": 2,
                                        "id": 23,
                                        "order": 23
                                    },
                                    {
                                        "children": [],
                                        "depth": 2,
                                        "id": 24,
                                        "order": 24
                                    }
                                ],
                                "depth": 1,
                                "id": 22,
                                "order": 22
                            },
                            {
                                "children": [],
                                "depth": 1,
                                "id": 25,
                                "order": 25
                            }
                        ],
                        "depth": 0,
                        "id": 0,
                        "order": 0
                    }
                ],
                "depth": -1,
                "id": -1,
                "order": -1
            }
        ],
        "mainTraceNodeCount": 26,
        "parentIdMap": {
            "0": -1,
            "1": 0,
            "10": 6,
            "11": 6,
            "12": 6,
            "13": 12,
            "14": 6,
            "15": 14,
            "16": 6,
            "17": 6,
            "18": 6,
            "19": 6,
            "2": 1,
            "20": 0,
            "21": 20,
            "22": 0,
            "23": 22,
            "24": 22,
            "25": 0,
            "3": 1,
            "4": 0,
            "5": 4,
            "6": 0,
            "7": 6,
            "8": 6,
            "9": 6
        },
        "tidyTrace": [
            {
                "children": [
                    {
                        "children": [
                            {
                                "children": [
                                    {
                                        "children": [],
                                        "depth": 2,
                                        "id": 3,
                                        "order": 3
                                    }
                                ],
                                "depth": 1,
                                "id": 1,
                                "order": 1
                            },
                            {
                                "children": [
                                    {
                                        "children": [],
                                        "depth": 2,
                                        "id": 5,
                                        "order": 5
                                    }
                                ],
                                "depth": 1,
                                "id": 4,
                                "order": 4
                            },
                            {
                                "children": [
                                    {
                                        "children": [],
                                        "depth": 2,
                                        "id": 10,
                                        "order": 10
                                    },
                                    {
                                        "children": [],
                                        "depth": 2,
                                        "id": 11,
                                        "order": 11
                                    },
                                    {
                                        "children": [
                                            {
                                                "children": [],
                                                "depth": 3,
                                                "id": 13,
                                                "order": 13
                                            }
                                        ],
                                        "depth": 2,
                                        "id": 12,
                                        "order": 12
                                    },
                                    {
                                        "children": [
                                            {
                                                "children": [],
                                                "depth": 3,
                                                "id": 15,
                                                "order": 15
                                            }
                                        ],
                                        "depth": 2,
                                        "id": 14,
                                        "order": 14
                                    },
                                    {
                                        "children": [],
                                        "depth": 2,
                                        "id": 18,
                                        "order": 18
                                    },
                                    {
                                        "children": [],
                                        "depth": 2,
                                        "id": 19,
                                        "order": 19
                                    }
                                ],
                                "depth": 1,
                                "id": 6,
                                "order": 6
                            },
                            {
                                "children": [
                                    {
                                        "children": [],
                                        "depth": 2,
                                        "id": 21,
                                        "order": 21
                                    }
                                ],
                                "depth": 1,
                                "id": 20,
                                "order": 20
                            },
                            {
                                "children": [
                                    {
                                        "children": [],
                                        "depth": 2,
                                        "id": 23,
                                        "order": 23
                                    },
                                    {
                                        "children": [],
                                        "depth": 2,
                                        "id": 24,
                                        "order": 24
                                    }
                                ],
                                "depth": 1,
                                "id": 22,
                                "order": 22
                            },
                            {
                                "children": [],
                                "depth": 1,
                                "id": 25,
                                "order": 25
                            }
                        ],
                        "depth": 0,
                        "id": 0,
                        "order": 0
                    }
                ],
                "depth": -1,
                "id": -1,
                "order": -1
            }
        ],
        "tidyTraceNodeCount": 20
    },
    "state_change": {
        "stateChanges": [
            {
                "address": "0x95ad61b0a150d79219dcf64e1e6cc01f0b64c4ce",
                "erc": "ERC-20",
                "slots": [
                    {
                        "current": "0x00000000000000000000000000000000000000925e091947a75b5dd99a272d6d",
                        "key": "0x8ca43d7619371d0834e06fa31b042aaaa680586ab3652a0f8c98e768b6443765",
                        "prev": "0x00000000000000000000000000000000000000925e3a59562cca6b48c3bbf425"
                    },
                    {
                        "current": "0x00000000000000000000000000000000000000000031400e856f0d6f2994c6b8",
                        "key": "0x1345f1bc8e5459b15f06af6ff26963c0dd39c360043f919ef95bfd37bc785ac3",
                        "prev": "0x0000000000000000000000000000000000000000000000000000000000000000"
                    }
                ],
                "storageVariables": [
                    {
                        "name": "_balances",
                        "type": "mapping(address => uint256)",
                        "value": {
                            "pairs": [
                                {
                                    "key": "0x223f3557663be0ff449b814e986015ac40da97a6",
                                    "value": {
                                        "current": "59539864485356019337447096",
                                        "prev": "0",
                                        "typeTag": 1
                                    }
                                },
                                {
                                    "key": "0xcf6daab95c476106eca715d48de4b13287ffdeaa",
                                    "value": {
                                        "current": "11596414317719116493371017211245",
                                        "prev": "11596473857583601849390354658341",
                                        "typeTag": 1
                                    }
                                }
                            ],
                            "typeTag": 4
                        }
                    }
                ]
            },
            {
                "address": "0xc02aaa39b223fe8d0a0e5c4f27ead9083c756cc2",
                "erc": "ERC-20",
                "slots": [
                    {
                        "current": "0x00000000000000000000000000000000000000000000092027fdb012915fb496",
                        "key": "0xbb609bf4e7a9c5741724a2ad55eabdc40913c8923f30251e38f2ea5017d9a032",
                        "prev": "0x0000000000000000000000000000000000000000000009202b0fc42c6e8ffb50"
                    }
                ],
                "storageVariables": [
                    {
                        "name": "balanceOf",
                        "type": "mapping(address => uint256)",
                        "value": {
                            "pairs": [
                                {
                                    "key": "0xcf6daab95c476106eca715d48de4b13287ffdeaa",
                                    "value": {
                                        "current": "43094475809115894428822",
                                        "prev": "43094697070548906670928",
                                        "typeTag": 1
                                    }
                                }
                            ],
                            "typeTag": 4
                        }
                    }
                ]
            },
            {
                "address": "0xcf6daab95c476106eca715d48de4b13287ffdeaa",
                "erc": "ERC-20",
                "slots": [
                    {
                        "current": "0x00000000000000000000000000000000000000000246200d32e98ed3c0d3fc9d",
                        "key": "0x0000000000000000000000000000000000000000000000000000000000000000",
                        "prev": "0x0000000000000000000000000000000000000000024620d110e20cf6a51349a9"
                    },
                    {
                        "current": "0x000000000000000000000000b41ab0fba01a58e365d24a40a6ca59db3c430607",
                        "key": "0x000000000000000000000000000000000000000000000000000000000000000a",
                        "prev": "0x000000000000000000000000b41a70d380aee3a206d394f2f86e0c1d37058d4f"
                    },
                    {
                        "current": "0x0000000000000000000000000000000000000000000000000000000000000000",
                        "key": "0x9713fb82927c503a832cd3a12042d752d4f7c75115b47ad68c0f5ccc7e986271",
                        "prev": "0x0000000000000000000000000000000000000000000000c3e02a95aa5e02a5b2"
                    },
                    {
                        "current": "0x0000000000000000000000000000000000000000000002cdfeafe2fc6dc3047f",
                        "key": "0x34a43e5409a3945f42a573aa3dedfb97e67ef565515dddf7cc8f75d6cebc515a",
                        "prev": "0x0000000000000000000000000000000000000000000002cdfc7dcb74f3ffabd9"
                    },
                    {
                        "current": "0x0000000000000000000537b0f065aaf3040808e297771343a74b84d2775841de",
                        "key": "0x000000000000000000000000000000000000000000000000000000000000000b",
                        "prev": "0x0000000000000000000537b4732873ee5416aa372972da2f30ba9a6a7a880c08"
                    },
                    {
                        "current": "0x00000000000000000000000000000000000000b0321ef38f758ee97e5297fda6",
                        "key": "0x0000000000000000000000000000000000000000000000000000000000000009",
                        "prev": "0x00000000000000000000000000000000000000b031df1b95c9697dba278a0e3a"
                    },
                    {
                        "current": "0x60ef019a00000000092027fdb012915fb49600925e091947a75b5dd99a272d6d",
                        "key": "0x0000000000000000000000000000000000000000000000000000000000000008",
                        "prev": "0x60ef01960000000009202b0fc42c6e8ffb5000925e3a59562cca6b48c3bbf425"
                    },
                    {
                        "current": "0x0000000000000000000000000000000000000000000000000000000000000004",
                        "key": "0x9ba2664097bf74ba52d0cd5d170acb2405027c0923e7cf9218018cd638409687",
                        "prev": "0x0000000000000000000000000000000000000000000000000000000000000003"
                    }
                ],
                "storageVariables": [
                    {
                        "name": "reserve0",
                        "type": "uint112",
                        "value": {
                            "current": "11596414317719116493371017211245",
                            "prev": "11596473857583601849390354658341",
                            "typeTag": 1
                        }
                    },
                    {
                        "name": "reserve1",
                        "type": "uint112",
                        "value": {
                            "current": "43094475809115894428822",
                            "prev": "43094697070548906670928",
                            "typeTag": 1
                        }
                    },
                    {
                        "name": "blockTimestampLast",
                        "type": "uint32",
                        "value": {
                            "current": "1626276250",
                            "prev": "1626276246",
                            "typeTag": 1
                        }
                    },
                    {
                        "name": "nonces",
                        "type": "mapping(address => uint256)",
                        "value": {
                            "pairs": [
                                {
                                    "key": "0x223f3557663be0ff449b814e986015ac40da97a6",
                                    "value": {
                                        "current": "4",
                                        "prev": "3",
                                        "typeTag": 1
                                    }
                                }
                            ],
                            "typeTag": 4
                        }
                    },
                    {
                        "name": "totalSupply",
                        "type": "uint256",
                        "value": {
                            "current": "703746186219459378144345245",
                            "prev": "703749799329226516436568489",
                            "typeTag": 1
                        }
                    },
                    {
                        "name": "price1CumulativeLast",
                        "type": "uint256",
                        "value": {
                            "current": "1028213575509464279434868630121821924851877873159",
                            "prev": "1028207986670105948087195384105691890215190629711",
                            "typeTag": 1
                        }
                    },
                    {
                        "name": "balanceOf",
                        "type": "mapping(address => uint256)",
                        "value": {
                            "pairs": [
                                {
                                    "key": "0x00e82e98a2119aa175eab206706efe0df2c7d51d",
                                    "value": {
                                        "current": "13244667637430107702399",
                                        "prev": "13244509422622565444569",
                                        "typeTag": 1
                                    }
                                },
                                {
                                    "key": "0x223f3557663be0ff449b814e986015ac40da97a6",
                                    "value": {
                                        "current": "0",
                                        "prev": "3613267981945834481074",
                                        "typeTag": 1
                                    }
                                }
                            ],
                            "typeTag": 4
                        }
                    },
                    {
                        "name": "kLast",
                        "type": "uint256",
                        "value": {
                            "current": "499741396287431665594165529911550008861231370590503390",
                            "prev": "499746527304996408391652372720638417785050679694855176",
                            "typeTag": 1
                        }
                    },
                    {
                        "name": "price0CumulativeLast",
                        "type": "uint256",
                        "value": {
                            "current": "13959668270957589813317359631782",
                            "prev": "13959591088716516561113011850810",
                            "typeTag": 1
                        }
                    }
                ]
            }
        ]
    }
}