{
    "balance_change": {
        "balanceChanges": [
            {
                "account": "0xfc16823d472fa66ae9c4c50cb8bc96aa61df27ab",
                "assets": [
                    {
                        "address": "0xb753428af26e81097e7fd17f40c88aaa3e04902c",
                        "amount": "6.42270553",
                        "iconUrl": "https://assets.blocksec.com/icon/17b36fa7ac44af84683139fa79918e4330ec3c7ee1edf9a6713dd8fa55a36ac9.png",
                        "isERC1155": false,
                        "isERC721": false,
                        "sign": false,
                        "value": "3188.98923"
                    }
                ]
            },
            {
                "account": "0x18f89dc173beeeb244245635de87a9cdbd5983a8",
                "assets": [
                    {
                        "address": "0xeeeeeeeeeeeeeeeeeeeeeeeeeeeeeeeeeeeeeeee",
                        "amount": "5.42720454252420845",
                        "iconUrl": "https://assets.blocksec.com/image/1663669189317-3.png",
                        "isERC1155": false,
                        "isERC721": false,
                        "sign": true,
                        "value": "3188.989231"
                    }
                ]
            },
            {
                "account": "0x23a9292830fc80db7f563edb28d2fe6fb47f8624",
                "assets": [
                    {
                        "address": "0xb753428af26e81097e7fd17f40c88aaa3e04902c",
                        "amount": "6.42270553",
                        "iconUrl": "https://assets.blocksec.com/icon/17b36fa7ac44af84683139fa79918e4330ec3c7ee1edf9a6713dd8fa55a36ac9.png",
                        "isERC1155": false,
                        "isERC721": false,
                        "sign": true,
                        "value": "3188.98923"
                    },
                    {
                        "address": "0xc02aaa39b223fe8d0a0e5c4f27ead9083c756cc2",
                        "amount": "5.42720454252420845",
                        "iconUrl": "https://assets.blocksec.com/icon/f1cb2d02c471d545bbc7722daf3277fd852d98e63d118771af7047bd8256c516.png",
                        "isERC1155": false,
                        "isERC721": false,
                        "sign": false,
                        "value": "3188.989231"
                    }
                ]
            },
            {
                "account": "0xc02aaa39b223fe8d0a0e5c4f27ead9083c756cc2",
                "assets": [
                    {
                        "address": "0xeeeeeeeeeeeeeeeeeeeeeeeeeeeeeeeeeeeeeeee",
                        "amount": "5.42720454252420845",
                        "iconUrl": "https://assets.blocksec.com/image/1663669189317-3.png",
                        "isERC1155": false,
                        "isERC721": false,
                        "sign": false,
                        "value": "3188.989231"
                    },
                    {
                        "address": "0xc02aaa39b223fe8d0a0e5c4f27ead9083c756cc2",
                        "amount": "5.42720454252420845",
                        "iconUrl": "https://assets.blocksec.com/icon/f1cb2d02c471d545bbc7722daf3277fd852d98e63d118771af7047bd8256c516.png",
                        "isERC1155": false,
                        "isERC721": false,
                        "sign": true,
                        "value": "3188.989231"
                    }
                ]
            }
        ]
    },
    "profile": {
        "basic_info": {
            "baseFee": "",
            "blockNumber": 11454164,
            "callData": "0x18cbafe5000000000000000000000000000000000000000000000000592208a68c9644000000000000000000000000000000000000000000000000004a345bc2ad4d632100000000000000000000000000000000000000000000000000000000000000a000000000000000000000000018f89dc173beeeb244245635de87a9cdbd5983a8000000000000000000000000000000000000000000000000000000005fd7fbec0000000000000000000000000000000000000000000000000000000000000002000000000000000000000000b753428af26e81097e7fd17f40c88aaa3e04902c000000000000000000000000c02aaa39b223fe8d0a0e5c4f27ead9083c756cc2",
            "debugEnable": true,
            "errorInfo": "",
            "eventCount": 6,
            "feeRecipient": "0x5a0b54d5dc17e0aadc383d2db43b0a0d3e029c4c",
            "formatValue": "0",
            "gasLimit": 168991,
            "gasPrice": "50",
            "gasUsed": 128347,
            "intTxnCount": 9,
            "internalRevert": false,
            "internalRevertMessage": "",
            "isContractCreation": false,
            "isFlashloan": false,
            "maxFee": "",
            "nonce": 681,
            "overwritedBlockNumber": -1,
            "priorityFee": "",
            "receiver": "0xd9e1ce17f2641f24ae83637ab66a2cca9c378b9f",
            "revertMessage": "",
            "sender": "0xfc16823d472fa66ae9c4c50cb8bc96aa61df27ab",
            "simulationEnable": true,
            "sourceTxnHash": "0x96680fc49184772ee9633af040cbd277152bb8e9e4d441735dbfe8c03cb9d183",
            "status": true,
            "timestamp": "2020-12-14T23:37:43Z",
            "transactionFee": "0.00641735",
            "txnHash": "0x96680fc49184772ee9633af040cbd277152bb8e9e4d441735dbfe8c03cb9d183",
            "txnIndex": 138,
            "type": 0,
            "value": "0"
        },
        "fund_flow": [
            {
                "amount": "6.42270553",
                "from": "0xfc16823d472fa66ae9c4c50cb8bc96aa61df27ab",
                "id": 1,
                "isERC1155": false,
                "isERC721": false,
                "isReverted": false,
                "order": 1,
                "to": "0x23a9292830fc80db7f563edb28d2fe6fb47f8624",
                "token": "0xb753428af26e81097e7fd17f40c88aaa3e04902c"
            },
            {
                "amount": "5.42720454252420845",
                "from": "0x23a9292830fc80db7f563edb28d2fe6fb47f8624",
                "id": 2,
                "isERC1155": false,
                "isERC721": false,
                "isReverted": false,
                "order": 2,
                "to": "0xd9e1ce17f2641f24ae83637ab66a2cca9c378b9f",
                "token": "0xc02aaa39b223fe8d0a0e5c4f27ead9083c756cc2"
            },
            {
                "amount": "5.42720454252420845",
                "from": "0xc02aaa39b223fe8d0a0e5c4f27ead9083c756cc2",
                "id": 3,
                "isERC1155": false,
                "isERC721": false,
                "isReverted": false,
                "order": 3,
                "to": "0xd9e1ce17f2641f24ae83637ab66a2cca9c378b9f",
                "token": "0xeeeeeeeeeeeeeeeeeeeeeeeeeeeeeeeeeeeeeeee"
            },
            {
                "amount": "5.42720454252420845",
                "from": "0xd9e1ce17f2641f24ae83637ab66a2cca9c378b9f",
                "id": 4,
                "isERC1155": false,
                "isERC721": false,
                "isReverted": false,
                "order": 4,
                "to": "0xc02aaa39b223fe8d0a0e5c4f27ead9083c756cc2",
                "token": "0xc02aaa39b223fe8d0a0e5c4f27ead9083c756cc2"
            },
            {
                "amount": "5.42720454252420845",
                "from": "0xd9e1ce17f2641f24ae83637ab66a2cca9c378b9f",
                "id": 5,
                "isERC1155": false,
                "isERC721": false,
                "isReverted": false,
                "order": 5,
                "to": "0x18f89dc173beeeb244245635de87a9cdbd5983a8",
                "token": "0xeeeeeeeeeeeeeeeeeeeeeeeeeeeeeeeeeeeeeeee"
            }
        ],
        "token_infos": [
            {
                "address": "0xeeeeeeeeeeeeeeeeeeeeeeeeeeeeeeeeeeeeeeee",
                "decimals": 18
            },
            {
                "address": "0xb753428af26e81097e7fd17f40c88aaa3e04902c",
                "decimals": 18
            },
            {
                "address": "0xc02aaa39b223fe8d0a0e5c4f27ead9083c756cc2",
                "decimals": 18
            }
        ]
    },
    "address_label": {
        "labels": [
            {
                "address": "0xeeeeeeeeeeeeeeeeeeeeeeeeeeeeeeeeeeeeeeee",
                "label": "Ether"
            },
            {
                "address": "0x23a9292830fc80db7f563edb28d2fe6fb47f8624",
                "label": "SushiSwap: SFI"
            },
            {
                "address": "0xd9e1ce17f2641f24ae83637ab66a2cca9c378b9f",
                "label": "SushiSwap: Router"
            },
            {
                "address": "0x0000000000000000000000000000000000000002",
                "label": "Precompiled"
            },
            {
                "address": "0x0000000000000000000000000000000000000003",
                "label": "Precompiled"
            },
            {
                "address": "0x0000000000000000000000000000000000000004",
                "label": "Precompiled"
            },
            {
                "address": "0xb753428af26e81097e7fd17f40c88aaa3e04902c",
                "label": "Saffron: SFI Token"
            },
            {
                "address": "0xc02aaa39b223fe8d0a0e5c4f27ead9083c756cc2",
                "label": "Wrapped Ether (WETH)"
            },
            {
                "address": "0x0000000000000000000000000000000000000001",
                "label": "Precompiled"
            }
        ]
    },
    "trace": {
        "accountLabels": null,
        "dataMap": {
            "-1": {
                "invocation": {
                    "address": "0xfc16823d472fa66ae9c4c50cb8bc96aa61df27ab",
                    "callData": "",
                    "decodedMethod": null,
                    "errorInfo": "",
                    "fromAddress": "",
                    "gasUsed": 0,
                    "id": -1,
                    "methodDecoded": false,
                    "operation": "",
                    "output": "",
                    "revert": false,
                    "revertMessage": "",
                    "selector": "",
                    "status": false,
                    "value": ""
                },
                "nodeType": 0
            },
            "0": {
                "invocation": {
                    "address": "0xd9e1ce17f2641f24ae83637ab66a2cca9c378b9f",
                    "callData": "0x000000000000000000000000000000000000000000000000592208a68c9644000000000000000000000000000000000000000000000000004a345bc2ad4d632100000000000000000000000000000000000000000000000000000000000000a000000000000000000000000018f89dc173beeeb244245635de87a9cdbd5983a8000000000000000000000000000000000000000000000000000000005fd7fbec0000000000000000000000000000000000000000000000000000000000000002000000000000000000000000b753428af26e81097e7fd17f40c88aaa3e04902c000000000000000000000000c02aaa39b223fe8d0a0e5c4f27ead9083c756cc2",
                    "decodedMethod": {
                        "callParams": [
                            {
                                "name": "amountIn",
                                "type": "uint256",
                                "value": "6,422,705,530,000,000,000"
                            },
                            {
                                "name": "amountOutMin",
                                "type": "uint256",
                                "value": "5,346,999,549,284,934,433"
                            },
                            {
                                "name": "path",
                                "type": "address[]",
                                "value": [
                                    "0xb753428af26e81097e7fd17f40c88aaa3e04902c",
                                    "0xc02aaa39b223fe8d0a0e5c4f27ead9083c756cc2"
                                ]
                            },
                            {
                                "name": "to",
                                "type": "address",
                                "value": "0x18f89dc173beeeb244245635de87a9cdbd5983a8"
                            },
                            {
                                "name": "deadline",
                                "type": "uint256",
                                "value": "1,607,990,252"
                            }
                        ],
                        "constructorArguments": "",
                        "name": "swapExactTokensForETH",
                        "returnParams": [
                            {
                                "name": "amounts",
                                "type": "uint256[]",
                                "value": [
                                    "6,422,705,530,000,000,000",
                                    "5,427,204,542,524,208,450"
                                ]
                            }
                        ],
                        "signature": "swapExactTokensForETH(uint256,uint256,address[],address,uint256)"
                    },
                    "errorInfo": "",
                    "fromAddress": "0xfc16823d472fa66ae9c4c50cb8bc96aa61df27ab",
                    "gasUsed": 128347,
                    "id": 0,
                    "methodDecoded": true,
                    "operation": "CALL",
                    "output": "0x00000000000000000000000000000000000000000000000000000000000000200000000000000000000000000000000000000000000000000000000000000002000000000000000000000000000000000000000000000000592208a68c9644000000000000000000000000000000000000000000000000004b514dc6e08ab542",
                    "revert": false,
                    "revertMessage": "",
                    "selector": "0x18cbafe5",
                    "status": true,
                    "value": "0"
                },
                "nodeType": 0
            },
            "1": {
                "invocation": {
                    "address": "0x23a9292830fc80db7f563edb28d2fe6fb47f8624",
                    "callData": "0x",
                    "decodedMethod": {
                        "callParams": [],
                        "constructorArguments": "",
                        "name": "getReserves",
                        "returnParams": [
                            {
                                "name": "_reserve0",
                                "type": "uint112",
                                "value": "3,240,886,138,050,255,713,887"
                            },
                            {
                                "name": "_reserve1",
                                "type": "uint112",
                                "value": "2,752,225,655,854,864,593,556"
                            },
                            {
                                "name": "_blockTimestampLast",
                                "type": "uint32",
                                "value": "1,607,988,748"
                            }
                        ],
                        "signature": "getReserves()"
                    },
                    "errorInfo": "",
                    "fromAddress": "0xd9e1ce17f2641f24ae83637ab66a2cca9c378b9f",
                    "gasUsed": 1217,
                    "id": 1,
                    "methodDecoded": true,
                    "operation": "STATICCALL",
                    "output": "0x0000000000000000000000000000000000000000000000afb054839b2512f65f00000000000000000000000000000000000000000000009532cdbc1561b0f294000000000000000000000000000000000000000000000000000000005fd7f60c",
                    "revert": false,
                    "revertMessage": "",
                    "selector": "0x0902f1ac",
                    "status": true,
                    "value": "0"
                },
                "nodeType": 0
            },
            "10": {
                "event": {
                    "contract": "0x23a9292830fc80db7f563edb28d2fe6fb47f8624",
                    "decodedLog": {
                        "name": "Sync",
                        "params": [
                            {
                                "name": "reserve0",
                                "type": "uint112",
                                "value": "3,247,308,843,580,255,713,887"
                            },
                            {
                                "name": "reserve1",
                                "type": "uint112",
                                "value": "2,746,798,451,312,340,385,106"
                            }
                        ],
                        "signature": "Sync(uint112,uint112)"
                    },
                    "id": 10,
                    "logData": "0x0000000000000000000000000000000000000000000000b009768c41b1a93a5f000000000000000000000000000000000000000000000094e77c6e4e81263d52",
                    "logDecoded": true,
                    "operation": "EVENT",
                    "revert": false,
                    "status": true,
                    "topics": [
                        "0x1c411e9a96e071241c2f21f7726b17ae89e3cab4c78be50e062b03a9fffbbad1"
                    ]
                },
                "nodeType": 1
            },
            "11": {
                "event": {
                    "contract": "0x23a9292830fc80db7f563edb28d2fe6fb47f8624",
                    "decodedLog": {
                        "name": "Swap",
                        "params": [
                            {
                                "name": "sender",
                                "type": "address",
                                "value": "0xd9e1ce17f2641f24ae83637ab66a2cca9c378b9f"
                            },
                            {
                                "name": "to",
                                "type": "address",
                                "value": "0xd9e1ce17f2641f24ae83637ab66a2cca9c378b9f"
                            },
                            {
                                "name": "amount0In",
                                "type": "uint256",
                                "value": "6,422,705,530,000,000,000"
                            },
                            {
                                "name": "amount1In",
                                "type": "uint256",
                                "value": "0"
                            },
                            {
                                "name": "amount0Out",
                                "type": "uint256",
                                "value": "0"
                            },
                            {
                                "name": "amount1Out",
                                "type": "uint256",
                                "value": "5,427,204,542,524,208,450"
                            }
                        ],
                        "signature": "Swap(address,uint256,uint256,uint256,uint256,address)"
                    },
                    "id": 11,
                    "logData": "0x000000000000000000000000000000000000000000000000592208a68c964400000000000000000000000000000000000000000000000000000000000000000000000000000000000000000000000000000000000000000000000000000000000000000000000000000000000000000000000000000000004b514dc6e08ab542",
                    "logDecoded": true,
                    "operation": "EVENT",
                    "revert": false,
                    "status": true,
                    "topics": [
                        "0xd78ad95fa46c994b6551d0da85fc275fe613ce37657fb8d5e3d130840159d822",
                        "0x000000000000000000000000d9e1ce17f2641f24ae83637ab66a2cca9c378b9f",
                        "0x000000000000000000000000d9e1ce17f2641f24ae83637ab66a2cca9c378b9f"
                    ]
                },
                "nodeType": 1
            },
            "12": {
                "invocation": {
                    "address": "0xc02aaa39b223fe8d0a0e5c4f27ead9083c756cc2",
                    "callData": "0x0000000000000000000000000000000000000000000000004b514dc6e08ab542",
                    "decodedMethod": {
                        "callParams": [
                            {
                                "name": "wad",
                                "type": "uint256",
                                "value": "5,427,204,542,524,208,450"
                            }
                        ],
                        "constructorArguments": "",
                        "name": "withdraw",
                        "returnParams": [],
                        "signature": "withdraw(uint256)"
                    },
                    "errorInfo": "",
                    "fromAddress": "0xd9e1ce17f2641f24ae83637ab66a2cca9c378b9f",
                    "gasUsed": 11935,
                    "id": 12,
                    "methodDecoded": true,
                    "operation": "CALL",
                    "output": "",
                    "revert": false,
                    "revertMessage": "",
                    "selector": "0x2e1a7d4d",
                    "status": true,
                    "value": "0"
                },
                "nodeType": 0
            },
            "13": {
                "invocation": {
                    "address": "0xd9e1ce17f2641f24ae83637ab66a2cca9c378b9f",
                    "callData": "0x",
                    "decodedMethod": null,
                    "errorInfo": "",
                    "fromAddress": "0xc02aaa39b223fe8d0a0e5c4f27ead9083c756cc2",
                    "gasUsed": 95,
                    "id": 13,
                    "methodDecoded": false,
                    "operation": "CALL",
                    "output": "",
                    "revert": false,
                    "revertMessage": "",
                    "selector": "fallback",
                    "status": true,
                    "value": "5.42720454252420845"
                },
                "nodeType": 0
            },
            "14": {
                "event": {
                    "contract": "0xc02aaa39b223fe8d0a0e5c4f27ead9083c756cc2",
                    "decodedLog": {
                        "name": "Withdrawal",
                        "params": [
                            {
                                "name": "src",
                                "type": "address",
                                "value": "0xd9e1ce17f2641f24ae83637ab66a2cca9c378b9f"
                            },
                            {
                                "name": "wad",
                                "type": "uint256",
                                "value": "5,427,204,542,524,208,450"
                            }
                        ],
                        "signature": "Withdrawal(address,uint256)"
                    },
                    "id": 14,
                    "logData": "0x0000000000000000000000000000000000000000000000004b514dc6e08ab542",
                    "logDecoded": true,
                    "operation": "EVENT",
                    "revert": false,
                    "status": true,
                    "topics": [
                        "0x7fcf532c15f0a6db0bd6d0e038bea71d30d808c7d98cb3bf7268a95bf5081b65",
                        "0x000000000000000000000000d9e1ce17f2641f24ae83637ab66a2cca9c378b9f"
                    ]
                },
                "nodeType": 1
            },
            "15": {
                "invocation": {
                    "address": "0x18f89dc173beeeb244245635de87a9cdbd5983a8",
                    "callData": "0x",
                    "decodedMethod": null,
                    "errorInfo": "",
                    "fromAddress": "0xd9e1ce17f2641f24ae83637ab66a2cca9c378b9f",
                    "gasUsed": 0,
                    "id": 15,
                    "methodDecoded": false,
                    "operation": "CALL",
                    "output": "",
                    "revert": false,
                    "revertMessage": "",
                    "selector": "fallback",
                    "status": true,
                    "value": "5.42720454252420845"
                },
                "nodeType": 0
            },
            "2": {
                "invocation": {
                    "address": "0xb753428af26e81097e7fd17f40c88aaa3e04902c",
                    "callData": "0x000000000000000000000000fc16823d472fa66ae9c4c50cb8bc96aa61df27ab00000000000000000000000023a9292830fc80db7f563edb28d2fe6fb47f8624000000000000000000000000000000000000000000000000592208a68c964400",
                    "decodedMethod": {
                        "callParams": [
                            {
                                "name": "sender",
                                "type": "address",
                                "value": "0xfc16823d472fa66ae9c4c50cb8bc96aa61df27ab"
                            },
                            {
                                "name": "recipient",
                                "type": "address",
                                "value": "0x23a9292830fc80db7f563edb28d2fe6fb47f8624"
                            },
                            {
                                "decimalAvailable": true,
                                "name": "amount",
                                "type": "uint256",
                                "value": "6,422,705,530,000,000,000"
                            }
                        ],
                        "constructorArguments": "",
                        "name": "transferFrom",
                        "returnParams": [
                            {
                                "name": "",
                                "type": "bool",
                                "value": true
                            }
                        ],
                        "signature": "transferFrom(address,address,uint256)"
                    },
                    "errorInfo": "",
                    "fromAddress": "0xd9e1ce17f2641f24ae83637ab66a2cca9c378b9f",
                    "gasUsed": 22705,
                    "id": 2,
                    "methodDecoded": true,
                    "operation": "CALL",
                    "output": "0x0000000000000000000000000000000000000000000000000000000000000001",
                    "revert": false,
                    "revertMessage": "",
                    "selector": "0x23b872dd",
                    "status": true,
                    "value": "0"
                },
                "nodeType": 0
            },
            "3": {
                "event": {
                    "contract": "0xb753428af26e81097e7fd17f40c88aaa3e04902c",
                    "decodedLog": {
                        "name": "Transfer",
                        "params": [
                            {
                                "name": "from",
                                "type": "address",
                                "value": "0xfc16823d472fa66ae9c4c50cb8bc96aa61df27ab"
                            },
                            {
                                "name": "to",
                                "type": "address",
                                "value": "0x23a9292830fc80db7f563edb28d2fe6fb47f8624"
                            },
                            {
                                "decimalAvailable": true,
                                "name": "value",
                                "type": "uint256",
                                "value": "6,422,705,530,000,000,000"
                            }
                        ],
                        "signature": "Transfer(address,address,uint256)"
                    },
                    "id": 3,
                    "logData": "0x000000000000000000000000000000000000000000000000592208a68c964400",
                    "logDecoded": true,
                    "operation": "EVENT",
                    "revert": false,
                    "status": true,
                    "topics": [
                        "0xddf252ad1be2c89b69c2b068fc378daa952ba7f163c4a11628f55a4df523b3ef",
                        "0x000000000000000000000000fc16823d472fa66ae9c4c50cb8bc96aa61df27ab",
                        "0x00000000000000000000000023a9292830fc80db7f563edb28d2fe6fb47f8624"
                    ]
                },
                "nodeType": 1
            },
            "4": {
                "event": {
                    "contract": "0xb753428af26e81097e7fd17f40c88aaa3e04902c",
                    "decodedLog": {
                        "name": "Approval",
                        "params": [
                            {
                                "name": "owner",
                                "type": "address",
                                "value": "0xfc16823d472fa66ae9c4c50cb8bc96aa61df27ab"
                            },
                            {
                                "name": "spender",
                                "type": "address",
                                "value": "0xd9e1ce17f2641f24ae83637ab66a2cca9c378b9f"
                            },
                            {
                                "decimalAvailable": true,
                                "name": "value",
                                "type": "uint256",
                                "value": "115,792,089,237,316,195,423,570,985,008,687,907,853,269,984,665,640,564,039,429,666,602,203,129,639,935"
                            }
                        ],
                        "signature": "Approval(address,address,uint256)"
                    },
                    "id": 4,
                    "logData": "0xfffffffffffffffffffffffffffffffffffffffffffffffe7c91736b64fcf3ff",
                    "logDecoded": true,
                    "operation": "EVENT",
                    "revert": false,
                    "status": true,
                    "topics": [
                        "0x8c5be1e5ebec7d5bd14f71427d1e84f3dd0314c0f7b2291e5b200ac8c7c3b925",
                        "0x000000000000000000000000fc16823d472fa66ae9c4c50cb8bc96aa61df27ab",
                        "0x000000000000000000000000d9e1ce17f2641f24ae83637ab66a2cca9c378b9f"
                    ]
                },
                "nodeType": 1
            },
            "5": {
                "invocation": {
                    "address": "0x23a9292830fc80db7f563edb28d2fe6fb47f8624",
                    "callData": "0x00000000000000000000000000000000000000000000000000000000000000000000000000000000000000000000000000000000000000004b514dc6e08ab542000000000000000000000000d9e1ce17f2641f24ae83637ab66a2cca9c378b9f00000000000000000000000000000000000000000000000000000000000000800000000000000000000000000000000000000000000000000000000000000000",
                    "decodedMethod": {
                        "callParams": [
                            {
                                "name": "amount0Out",
                                "type": "uint256",
                                "value": "0"
                            },
                            {
                                "name": "amount1Out",
                                "type": "uint256",
                                "value": "5,427,204,542,524,208,450"
                            },
                            {
                                "name": "to",
                                "type": "address",
                                "value": "0xd9e1ce17f2641f24ae83637ab66a2cca9c378b9f"
                            },
                            {
                                "name": "data",
                                "type": "bytes",
                                "value": "0x"
                            }
                        ],
                        "constructorArguments": "",
                        "name": "swap",
                        "returnParams": [],
                        "signature": "swap(uint256,uint256,address,bytes)"
                    },
                    "errorInfo": "",
                    "fromAddress": "0xd9e1ce17f2641f24ae83637ab66a2cca9c378b9f",
                    "gasUsed": 71958,
                    "id": 5,
                    "methodDecoded": true,
                    "operation": "CALL",
                    "output": "",
                    "revert": false,
                    "revertMessage": "",
                    "selector": "0x022c0d9f",
                    "status": true,
                    "value": "0"
                },
                "nodeType": 0
            },
            "6": {
                "invocation": {
                    "address": "0xc02aaa39b223fe8d0a0e5c4f27ead9083c756cc2",
                    "callData": "0x000000000000000000000000d9e1ce17f2641f24ae83637ab66a2cca9c378b9f0000000000000000000000000000000000000000000000004b514dc6e08ab542",
                    "decodedMethod": {
                        "callParams": [
                            {
                                "name": "dst",
                                "type": "address",
                                "value": "0xd9e1ce17f2641f24ae83637ab66a2cca9c378b9f"
                            },
                            {
                                "decimalAvailable": true,
                                "name": "wad",
                                "type": "uint256",
                                "value": "5,427,204,542,524,208,450"
                            }
                        ],
                        "constructorArguments": "",
                        "name": "transfer",
                        "returnParams": [
                            {
                                "name": "",
                                "type": "bool",
                                "value": true
                            }
                        ],
                        "signature": "transfer(address,uint256)"
                    },
                    "errorInfo": "",
                    "fromAddress": "0x23a9292830fc80db7f563edb28d2fe6fb47f8624",
                    "gasUsed": 30162,
                    "id": 6,
                    "methodDecoded": true,
                    "operation": "CALL",
                    "output": "0x0000000000000000000000000000000000000000000000000000000000000001",
                    "revert": false,
                    "revertMessage": "",
                    "selector": "0xa9059cbb",
                    "status": true,
                    "value": "0"
                },
                "nodeType": 0
            },
            "7": {
                "event": {
                    "contract": "0xc02aaa39b223fe8d0a0e5c4f27ead9083c756cc2",
                    "decodedLog": {
                        "name": "Transfer",
                        "params": [
                            {
                                "name": "src",
                                "type": "address",
                                "value": "0x23a9292830fc80db7f563edb28d2fe6fb47f8624"
                            },
                            {
                                "name": "dst",
                                "type": "address",
                                "value": "0xd9e1ce17f2641f24ae83637ab66a2cca9c378b9f"
                            },
                            {
                                "decimalAvailable": true,
                                "name": "wad",
                                "type": "uint256",
                                "value": "5,427,204,542,524,208,450"
                            }
                        ],
                        "signature": "Transfer(address,address,uint256)"
                    },
                    "id": 7,
                    "logData": "0x0000000000000000000000000000000000000000000000004b514dc6e08ab542",
                    "logDecoded": true,
                    "operation": "EVENT",
                    "revert": false,
                    "status": true,
                    "topics": [
                        "0xddf252ad1be2c89b69c2b068fc378daa952ba7f163c4a11628f55a4df523b3ef",
                        "0x00000000000000000000000023a9292830fc80db7f563edb28d2fe6fb47f8624",
                        "0x000000000000000000000000d9e1ce17f2641f24ae83637ab66a2cca9c378b9f"
                    ]
                },
                "nodeType": 1
            },
            "8": {
                "invocation": {
                    "address": "0xb753428af26e81097e7fd17f40c88aaa3e04902c",
                    "callData": "0x00000000000000000000000023a9292830fc80db7f563edb28d2fe6fb47f8624",
                    "decodedMethod": {
                        "callParams": [
                            {
                                "name": "account",
                                "type": "address",
                                "value": "0x23a9292830fc80db7f563edb28d2fe6fb47f8624"
                            }
                        ],
                        "constructorArguments": "",
                        "name": "balanceOf",
                        "returnParams": [
                            {
                                "decimalAvailable": true,
                                "name": "",
                                "type": "uint256",
                                "value": "3,247,308,843,580,255,713,887"
                            }
                        ],
                        "signature": "balanceOf(address)"
                    },
                    "errorInfo": "",
                    "fromAddress": "0x23a9292830fc80db7f563edb28d2fe6fb47f8624",
                    "gasUsed": 1166,
                    "id": 8,
                    "methodDecoded": true,
                    "operation": "STATICCALL",
                    "output": "0x0000000000000000000000000000000000000000000000b009768c41b1a93a5f",
                    "revert": false,
                    "revertMessage": "",
                    "selector": "0x70a08231",
                    "status": true,
                    "value": "0"
                },
                "nodeType": 0
            },
            "9": {
                "invocation": {
                    "address": "0xc02aaa39b223fe8d0a0e5c4f27ead9083c756cc2",
                    "callData": "0x00000000000000000000000023a9292830fc80db7f563edb28d2fe6fb47f8624",
                    "decodedMethod": {
                        "callParams": [
                            {
                                "name": "",
                                "type": "address",
                                "value": "0x23a9292830fc80db7f563edb28d2fe6fb47f8624"
                            }
                        ],
                        "constructorArguments": "",
                        "name": "balanceOf",
                        "returnParams": [
                            {
                                "decimalAvailable": true,
                                "name": "",
                                "type": "uint256",
                                "value": "2,746,798,451,312,340,385,106"
                            }
                        ],
                        "signature": "balanceOf(address)"
                    },
                    "errorInfo": "",
                    "fromAddress": "0x23a9292830fc80db7f563edb28d2fe6fb47f8624",
                    "gasUsed": 1234,
                    "id": 9,
                    "methodDecoded": true,
                    "operation": "STATICCALL",
                    "output": "0x000000000000000000000000000000000000000000000094e77c6e4e81263d52",
                    "revert": false,
                    "revertMessage": "",
                    "selector": "0x70a08231",
                    "status": true,
                    "value": "0"
                },
                "nodeType": 0
            }
        },
        "gasFlame": [
            {
                "children": [
                    {
                        "children": [
                            {
                                "children": [],
                                "depth": 0,
                                "name": "Initial Gas",
                                "value": 23060
                            },
                            {
                                "children": [
                                    {
                                        "children": [],
                                        "depth": 1,
                                        "name": "getReserves",
                                        "value": 1217
                                    },
                                    {
                                        "children": [],
                                        "depth": 1,
                                        "name": "transferFrom",
                                        "value": 22705
                                    },
                                    {
                                        "children": [
                                            {
                                                "children": [],
                                                "depth": 2,
                                                "name": "transfer",
                                                "value": 30162
                                            },
                                            {
                                                "children": [],
                                                "depth": 2,
                                                "name": "balanceOf",
                                                "value": 1166
                                            },
                                            {
                                                "children": [],
                                                "depth": 2,
                                                "name": "balanceOf",
                                                "value": 1234
                                            }
                                        ],
                                        "depth": 1,
                                        "name": "swap",
                                        "value": 71958
                                    },
                                    {
                                        "children": [
                                            {
                                                "children": [],
                                                "depth": 2,
                                                "name": "fallback",
                                                "value": 95
                                            }
                                        ],
                                        "depth": 1,
                                        "name": "withdraw",
                                        "value": 11935
                                    },
                                    {
                                        "children": [],
                                        "depth": 1,
                                        "name": "fallback",
                                        "value": 0
                                    }
                                ],
                                "depth": 0,
                                "name": "Executed Gas",
                                "value": 128687
                            }
                        ],
                        "depth": -1,
                        "name": "Actual Gas Used",
                        "value": 128347
                    },
                    {
                        "children": [],
                        "depth": -1,
                        "name": "Refunded Gas",
                        "value": 23400
                    }
                ],
                "depth": -2,
                "name": "Total Gas",
                "value": 151747
            }
        ],
        "isConfirmed": true,
        "mainTrace": [
            {
                "children": [
                    {
                        "children": [
                            {
                                "children": [],
                                "depth": 1,
                                "id": 1,
                                "order": 1
                            },
                            {
                                "children": [
                                    {
                                        "children": [],
                                        "depth": 2,
                                        "id": 3,
                                        "order": 3
                                    },
                                    {
                                        "children": [],
                                        "depth": 2,
                                        "id": 4,
                                        "order": 4
                                    }
                                ],
                                "depth": 1,
                                "id": 2,
                                "order": 2
                            },
                            {
                                "children": [
                                    {
                                        "children": [
                                            {
                                                "children": [],
                                                "depth": 3,
                                                "id": 7,
                                                "order": 7
                                            }
                                        ],
                                        "depth": 2,
                                        "id": 6,
                                        "order": 6
                                    },
                                    {
                                        "children": [],
                                        "depth": 2,
                                        "id": 8,
                                        "order": 8
                                    },
                                    {
                                        "children": [],
                                        "depth": 2,
                                        "id": 9,
                                        "order": 9
                                    },
                                    {
                                        "children": [],
                                        "depth": 2,
                                        "id": 10,
                                        "order": 10
                                    },
                                    {
                                        "children": [],
                                        "depth": 2,
                                        "id": 11,
                                        "order": 11
                                    }
                                ],
                                "depth": 1,
                                "id": 5,
                                "order": 5
                            },
                            {
                                "children": [
                                    {
                                        "children": [],
                                        "depth": 2,
                                        "id": 13,
                                        "order": 13
                                    },
                                    {
                                        "children": [],
                                        "depth": 2,
                                        "id": 14,
                                        "order": 14
                                    }
                                ],
                                "depth": 1,
                                "id": 12,
                                "order": 12
                            },
                            {
                                "children": [],
                                "depth": 1,
                                "id": 15,
                                "order": 15
                            }
                        ],
                        "depth": 0,
                        "id": 0,
                        "order": 0
                    }
                ],
                "depth": -1,
                "id": -1,
                "order": -1
            }
        ],
        "mainTraceNodeCount": 16,
        "parentIdMap": {
            "0": -1,
            "1": 0,
            "10": 5,
            "11": 5,
            "12": 0,
            "13": 12,
            "14": 12,
            "15": 0,
            "2": 0,
            "3": 2,
            "4": 2,
            "5": 0,
            "6": 5,
            "7": 6,
            "8": 5,
            "9": 5
        },
        "tidyTrace": [
            {
                "children": [
                    {
                        "children": [
                            {
                                "children": [
                                    {
                                        "children": [],
                                        "depth": 2,
                                        "id": 3,
                                        "order": 3
                                    },
                                    {
                                        "children": [],
                                        "depth": 2,
                                        "id": 4,
                                        "order": 4
                                    }
                                ],
                                "depth": 1,
                                "id": 2,
                                "order": 2
                            },
                            {
                                "children": [
                                    {
                                        "children": [
                                            {
                                                "children": [],
                                                "depth": 3,
                                                "id": 7,
                                                "order": 7
                                            }
                                        ],
                                        "depth": 2,
                                        "id": 6,
                                        "order": 6
                                    },
                                    {
                                        "children": [],
                                        "depth": 2,
                                        "id": 10,
                                        "order": 10
                                    },
                                    {
                                        "children": [],
                                        "depth": 2,
                                        "id": 11,
                                        "order": 11
                                    }
                                ],
                                "depth": 1,
                                "id": 5,
                                "order": 5
                            },
                            {
                                "children": [
                                    {
                                        "children": [],
                                        "depth": 2,
                                        "id": 13,
                                        "order": 13
                                    },
                                    {
                                        "children": [],
                                        "depth": 2,
                                        "id": 14,
                                        "order": 14
                                    }
                                ],
                                "depth": 1,
                                "id": 12,
                                "order": 12
                            },
                            {
                                "children": [],
                                "depth": 1,
                                "id": 15,
                                "order": 15
                            }
                        ],
                        "depth": 0,
                        "id": 0,
                        "order": 0
                    }
                ],
                "depth": -1,
                "id": -1,
                "order": -1
            }
        ],
        "tidyTraceNodeCount": 13
    },
    "state_change": {
        "stateChanges": [
            {
                "address": "0x23a9292830fc80db7f563edb28d2fe6fb47f8624",
                "erc": "ERC-20",
                "slots": [
                    {
                        "current": "0x5fd7f747000000000094e77c6e4e81263d520000000000b009768c41b1a93a5f",
                        "key": "0x0000000000000000000000000000000000000000000000000000000000000008",
                        "prev": "0x5fd7f60c00000000009532cdbc1561b0f2940000000000afb054839b2512f65f"
                    },
                    {
                        "current": "0x00000000000000000000000000000005c4aa525de933103ce681ebe5ead5fd35",
                        "key": "0x0000000000000000000000000000000000000000000000000000000000000009",
                        "prev": "0x00000000000000000000000000000005c39ed1420189cef045ab4bcc50af2621"
                    },
                    {
                        "current": "0x00000000000000000000000000000006bad1c7897483129819159770b190a3cb",
                        "key": "0x000000000000000000000000000000000000000000000000000000000000000a",
                        "prev": "0x00000000000000000000000000000006b95ed9d2888f7875057f48f0ed464188"
                    }
                ],
                "storageVariables": [
                    {
                        "name": "price0CumulativeLast",
                        "type": "uint256",
                        "value": {
                            "current": "1962824882842465101552879498935068392757",
                            "prev": "1961435920939541389525830906136344077857",
                            "typeTag": 1
                        }
                    },
                    {
                        "name": "price1CumulativeLast",
                        "type": "uint256",
                        "value": {
                            "current": "2290019845874887021481302099941244576715",
                            "prev": "2288093874613604018043077646387016778120",
                            "typeTag": 1
                        }
                    },
                    {
                        "name": "reserve0",
                        "type": "uint112",
                        "value": {
                            "current": "3247308843580255713887",
                            "prev": "3240886138050255713887",
                            "typeTag": 1
                        }
                    },
                    {
                        "name": "reserve1",
                        "type": "uint112",
                        "value": {
                            "current": "2746798451312340385106",
                            "prev": "2752225655854864593556",
                            "typeTag": 1
                        }
                    },
                    {
                        "name": "blockTimestampLast",
                        "type": "uint32",
                        "value": {
                            "current": "1607989063",
                            "prev": "1607988748",
                            "typeTag": 1
                        }
                    }
                ]
            },
            {
                "address": "0xb753428af26e81097e7fd17f40c88aaa3e04902c",
                "erc": "ERC-20",
                "slots": [
                    {
                        "current": "0x00000000000000000000000000000000000000000000000053444835ec580000",
                        "key": "0xc51f1bb99deeed8d6a846bfc1aab0b152813f90c24f7f500445e698187f1cfad",
                        "prev": "0x000000000000000000000000000000000000000000000000ac6650dc78ee4400"
                    },
                    {
                        "current": "0x0000000000000000000000000000000000000000000000b009768c41b1a93a5f",
                        "key": "0x8d3a970634faf8025baba23ee9be9ea65415c0b15731b0c826459e8b168f20b8",
                        "prev": "0x0000000000000000000000000000000000000000000000afb054839b2512f65f"
                    },
                    {
                        "current": "0xfffffffffffffffffffffffffffffffffffffffffffffffe7c91736b64fcf3ff",
                        "key": "0xeb84c7712e46a77f1202147cd019e8c63d817531198853accfa7bbefa7b77d9c",
                        "prev": "0xfffffffffffffffffffffffffffffffffffffffffffffffed5b37c11f19337ff"
                    }
                ],
                "storageVariables": [
                    {
                        "name": "_balances",
                        "type": "mapping(address => uint256)",
                        "value": {
                            "pairs": [
                                {
                                    "key": "0x23a9292830fc80db7f563edb28d2fe6fb47f8624",
                                    "value": {
                                        "current": "3247308843580255713887",
                                        "prev": "3240886138050255713887",
                                        "typeTag": 1
                                    }
                                },
                                {
                                    "key": "0xfc16823d472fa66ae9c4c50cb8bc96aa61df27ab",
                                    "value": {
                                        "current": "6000000000000000000",
                                        "prev": "12422705530000000000",
                                        "typeTag": 1
                                    }
                                }
                            ],
                            "typeTag": 4
                        }
                    },
                    {
                        "name": "_allowances",
                        "type": "mapping(address => mapping(address => uint256))",
                        "value": {
                            "pairs": [
                                {
                                    "key": "0xfc16823d472fa66ae9c4c50cb8bc96aa61df27ab",
                                    "value": {
                                        "pairs": [
                                            {
                                                "key": "0xd9e1ce17f2641f24ae83637ab66a2cca9c378b9f",
                                                "value": {
                                                    "current": "115792089237316195423570985008687907853269984665640564039429666602203129639935",
                                                    "prev": "115792089237316195423570985008687907853269984665640564039436089307733129639935",
                                                    "typeTag": 1
                                                }
                                            }
                                        ],
                                        "typeTag": 4
                                    }
                                }
                            ],
                            "typeTag": 4
                        }
                    }
                ]
            },
            {
                "address": "0xc02aaa39b223fe8d0a0e5c4f27ead9083c756cc2",
                "erc": "ERC-20",
                "slots": [
                    {
                        "current": "0x000000000000000000000000000000000000000000000094e77c6e4e81263d52",
                        "key": "0x5fb43ef323b3623685875f1209ae3f369c17fb8c88319d9ebb1272b24f1bf6b1",
                        "prev": "0x00000000000000000000000000000000000000000000009532cdbc1561b0f294"
                    }
                ],
                "storageVariables": [
                    {
                        "name": "balanceOf",
                        "type": "mapping(address => uint256)",
                        "value": {
                            "pairs": [
                                {
                                    "key": "0x23a9292830fc80db7f563edb28d2fe6fb47f8624",
                                    "value": {
                                        "current": "2746798451312340385106",
                                        "prev": "2752225655854864593556",
                                        "typeTag": 1
                                    }
                                }
                            ],
                            "typeTag": 4
                        }
                    }
                ]
            }
        ]
    }
}