{
    "balance_change": {
        "balanceChanges": [
            {
                "account": "0x459077e1211226aef47a46a89f6cab1371e6b349",
                "assets": [
                    {
                        "address": "0xeeeeeeeeeeeeeeeeeeeeeeeeeeeeeeeeeeeeeeee",
                        "amount": "0.022",
                        "iconUrl": "https://assets.blocksec.com/image/1663669189317-3.png",
                        "isERC1155": false,
                        "isERC721": false,
                        "sign": false,
                        "value": ""
                    }
                ]
            },
            {
                "account": "0x05fc95c91ef6c3e2d8970cc70c6a16ad550afa7f",
                "assets": [
                    {
                        "address": "0x03cb0021808442ad5efb61197966aef72a1def96",
                        "amount": "0.02002",
                        "iconUrl": "",
                        "isERC1155": false,
                        "isERC721": false,
                        "sign": true,
                        "value": ""
                    }
                ]
            },
            {
                "account": "0x0000000000000000000000000000000000000000",
                "assets": [
                    {
                        "address": "0x03cb0021808442ad5efb61197966aef72a1def96",
                        "amount": "0.022",
                        "iconUrl": "",
                        "isERC1155": false,
                        "isERC721": false,
                        "sign": false,
                        "value": ""
                    }
                ]
            },
            {
                "account": "0x03cb0021808442ad5efb61197966aef72a1def96",
                "assets": [
                    {
                        "address": "0xeeeeeeeeeeeeeeeeeeeeeeeeeeeeeeeeeeeeeeee",
                        "amount": "0.022",
                        "iconUrl": "https://assets.blocksec.com/image/1663669189317-3.png",
                        "isERC1155": false,
                        "isERC721": false,
                        "sign": true,
                        "value": ""
                    }
                ]
            },
            {
                "account": "0x62a364f7cba3be8fc9dcfdde12cabec8244af381",
                "assets": [
                    {
                        "address": "0x03cb0021808442ad5efb61197966aef72a1def96",
                        "amount": "0.00198",
                        "iconUrl": "",
                        "isERC1155": false,
                        "isERC721": false,
                        "sign": true,
                        "value": ""
                    }
                ]
            }
        ]
    },
    "profile": {
        "basic_info": {
            "baseFee": "",
            "blockNumber": 7613406,
            "callData": "0x31c26b1100000000000000000000000000000000000000000000000000000000000000000000000000000000000000000000000000000000000000000000000000000001",
            "debugEnable": true,
            "errorInfo": "",
            "eventCount": 4,
            "feeRecipient": "0x5a0b54d5dc17e0aadc383d2db43b0a0d3e029c4c",
            "formatValue": "0.022",
            "gasLimit": 1000000,
            "gasPrice": "11",
            "gasUsed": 148066,
            "intTxnCount": 4,
            "internalRevert": false,
            "internalRevertMessage": "",
            "isContractCreation": false,
            "isFlashloan": false,
            "maxFee": "",
            "nonce": 198,
            "overwritedBlockNumber": -1,
            "priorityFee": "",
            "receiver": "0x05fc95c91ef6c3e2d8970cc70c6a16ad550afa7f",
            "revertMessage": "",
            "sender": "0x459077e1211226aef47a46a89f6cab1371e6b349",
            "simulationEnable": true,
            "sourceTxnHash": "0x9631e643ab5a4c5d6aefadf43024ebd85d91e8015c0313005ee991a32e4b0708",
            "status": true,
            "timestamp": "2019-04-21T21:28:54Z",
            "transactionFee": "0.001628726",
            "txnHash": "0x9631e643ab5a4c5d6aefadf43024ebd85d91e8015c0313005ee991a32e4b0708",
            "txnIndex": 7,
            "type": 0,
            "value": "22000000000000000"
        },
        "fund_flow": [
            {
                "amount": "0.022",
                "from": "0x459077e1211226aef47a46a89f6cab1371e6b349",
                "id": 1,
                "isERC1155": false,
                "isERC721": false,
                "isReverted": false,
                "order": 1,
                "to": "0x05fc95c91ef6c3e2d8970cc70c6a16ad550afa7f",
                "token": "0xeeeeeeeeeeeeeeeeeeeeeeeeeeeeeeeeeeeeeeee"
            },
            {
                "amount": "0.022",
                "from": "0x05fc95c91ef6c3e2d8970cc70c6a16ad550afa7f",
                "id": 2,
                "isERC1155": false,
                "isERC721": false,
                "isReverted": false,
                "order": 2,
                "to": "0x03cb0021808442ad5efb61197966aef72a1def96",
                "token": "0xeeeeeeeeeeeeeeeeeeeeeeeeeeeeeeeeeeeeeeee"
            },
            {
                "amount": "0.022",
                "from": "0x0000000000000000000000000000000000000000",
                "id": 3,
                "isERC1155": false,
                "isERC721": false,
                "isReverted": false,
                "order": 3,
                "to": "0x03cb0021808442ad5efb61197966aef72a1def96",
                "token": "0x03cb0021808442ad5efb61197966aef72a1def96"
            },
            {
                "amount": "0.022",
                "from": "0x03cb0021808442ad5efb61197966aef72a1def96",
                "id": 4,
                "isERC1155": false,
                "isERC721": false,
                "isReverted": false,
                "order": 4,
                "to": "0x459077e1211226aef47a46a89f6cab1371e6b349",
                "token": "0x03cb0021808442ad5efb61197966aef72a1def96"
            },
            {
                "amount": "0.022",
                "from": "0x459077e1211226aef47a46a89f6cab1371e6b349",
                "id": 5,
                "isERC1155": false,
                "isERC721": false,
                "isReverted": false,
                "order": 5,
                "to": "0x05fc95c91ef6c3e2d8970cc70c6a16ad550afa7f",
                "token": "0x03cb0021808442ad5efb61197966aef72a1def96"
            },
            {
                "amount": "0.00198",
                "from": "0x05fc95c91ef6c3e2d8970cc70c6a16ad550afa7f",
                "id": 6,
                "isERC1155": false,
                "isERC721": false,
                "isReverted": false,
                "order": 6,
                "to": "0x62a364f7cba3be8fc9dcfdde12cabec8244af381",
                "token": "0x03cb0021808442ad5efb61197966aef72a1def96"
            }
        ],
        "token_infos": [
            {
                "address": "0x03cb0021808442ad5efb61197966aef72a1def96",
                "decimals": 18
            },
            {
                "address": "0xc02aaa39b223fe8d0a0e5c4f27ead9083c756cc2",
                "decimals": 18
            },
            {
                "address": "0xeeeeeeeeeeeeeeeeeeeeeeeeeeeeeeeeeeeeeeee",
                "decimals": 18
            }
        ]
    },
    "address_label": {
        "labels": [
            {
                "address": "0x0000000000000000000000000000000000000002",
                "label": "Precompiled"
            },
            {
                "address": "0x0000000000000000000000000000000000000003",
                "label": "Precompiled"
            },
            {
                "address": "0x0000000000000000000000000000000000000004",
                "label": "Precompiled"
            },
            {
                "address": "0xeeeeeeeeeeeeeeeeeeeeeeeeeeeeeeeeeeeeeeee",
                "label": "Ether"
            },
            {
                "address": "0x03cb0021808442ad5efb61197966aef72a1def96",
                "label": "coToken (coToken)"
            },
            {
                "address": "0x0000000000000000000000000000000000000001",
                "label": "Precompiled"
            }
        ]
    },
    "trace": {
        "accountLabels": null,
        "dataMap": {
            "-1": {
                "invocation": {
                    "address": "0x459077e1211226aef47a46a89f6cab1371e6b349",
                    "callData": "",
                    "decodedMethod": null,
                    "errorInfo": "",
                    "fromAddress": "",
                    "gasUsed": 0,
                    "id": -1,
                    "methodDecoded": false,
                    "operation": "",
                    "output": "",
                    "revert": false,
                    "revertMessage": "",
                    "selector": "",
                    "status": false,
                    "value": ""
                },
                "nodeType": 0
            },
            "0": {
                "invocation": {
                    "address": "0x05fc95c91ef6c3e2d8970cc70c6a16ad550afa7f",
                    "callData": "0x00000000000000000000000000000000000000000000000000000000000000000000000000000000000000000000000000000000000000000000000000000001",
                    "decodedMethod": {
                        "callParams": [
                            {
                                "name": "qty",
                                "type": "uint256",
                                "value": "0"
                            },
                            {
                                "name": "boost_",
                                "type": "bool",
                                "value": true
                            }
                        ],
                        "constructorArguments": "",
                        "name": "buy",
                        "returnParams": [],
                        "signature": "buy(uint256,bool)"
                    },
                    "errorInfo": "",
                    "fromAddress": "0x459077e1211226aef47a46a89f6cab1371e6b349",
                    "gasUsed": 148066,
                    "id": 0,
                    "methodDecoded": true,
                    "operation": "CALL",
                    "output": "",
                    "revert": false,
                    "revertMessage": "",
                    "selector": "0x31c26b11",
                    "status": true,
                    "value": "0.022"
                },
                "nodeType": 0
            },
            "1": {
                "invocation": {
                    "address": "0x03cb0021808442ad5efb61197966aef72a1def96",
                    "callData": "0x000000000000000000000000459077e1211226aef47a46a89f6cab1371e6b349",
                    "decodedMethod": {
                        "callParams": [
                            {
                                "name": "_referer",
                                "type": "address",
                                "value": "0x459077e1211226aef47a46a89f6cab1371e6b349"
                            }
                        ],
                        "constructorArguments": "",
                        "name": "deposit",
                        "returnParams": [],
                        "signature": "deposit(address)"
                    },
                    "errorInfo": "",
                    "fromAddress": "0x05fc95c91ef6c3e2d8970cc70c6a16ad550afa7f",
                    "gasUsed": 14925,
                    "id": 1,
                    "methodDecoded": true,
                    "operation": "CALL",
                    "output": "",
                    "revert": false,
                    "revertMessage": "",
                    "selector": "0xf340fa01",
                    "status": true,
                    "value": "0.022"
                },
                "nodeType": 0
            },
            "2": {
                "event": {
                    "contract": "0x03cb0021808442ad5efb61197966aef72a1def96",
                    "decodedLog": {
                        "name": "Transfer",
                        "params": [
                            {
                                "name": "from",
                                "type": "address",
                                "value": "0x0000000000000000000000000000000000000000"
                            },
                            {
                                "name": "to",
                                "type": "address",
                                "value": "0x03cb0021808442ad5efb61197966aef72a1def96"
                            },
                            {
                                "decimalAvailable": true,
                                "name": "value",
                                "type": "uint256",
                                "value": "22,000,000,000,000,000"
                            }
                        ],
                        "signature": "Transfer(address,address,uint256)"
                    },
                    "id": 2,
                    "logData": "0x000000000000000000000000000000000000000000000000004e28e2290f0000",
                    "logDecoded": true,
                    "operation": "EVENT",
                    "revert": false,
                    "status": true,
                    "topics": [
                        "0xddf252ad1be2c89b69c2b068fc378daa952ba7f163c4a11628f55a4df523b3ef",
                        "0x0000000000000000000000000000000000000000000000000000000000000000",
                        "0x00000000000000000000000003cb0021808442ad5efb61197966aef72a1def96"
                    ]
                },
                "nodeType": 1
            },
            "3": {
                "event": {
                    "contract": "0x03cb0021808442ad5efb61197966aef72a1def96",
                    "decodedLog": {
                        "name": "Transfer",
                        "params": [
                            {
                                "name": "from",
                                "type": "address",
                                "value": "0x03cb0021808442ad5efb61197966aef72a1def96"
                            },
                            {
                                "name": "to",
                                "type": "address",
                                "value": "0x459077e1211226aef47a46a89f6cab1371e6b349"
                            },
                            {
                                "decimalAvailable": true,
                                "name": "value",
                                "type": "uint256",
                                "value": "22,000,000,000,000,000"
                            }
                        ],
                        "signature": "Transfer(address,address,uint256)"
                    },
                    "id": 3,
                    "logData": "0x000000000000000000000000000000000000000000000000004e28e2290f0000",
                    "logDecoded": true,
                    "operation": "EVENT",
                    "revert": false,
                    "status": true,
                    "topics": [
                        "0xddf252ad1be2c89b69c2b068fc378daa952ba7f163c4a11628f55a4df523b3ef",
                        "0x00000000000000000000000003cb0021808442ad5efb61197966aef72a1def96",
                        "0x000000000000000000000000459077e1211226aef47a46a89f6cab1371e6b349"
                    ]
                },
                "nodeType": 1
            },
            "4": {
                "invocation": {
                    "address": "0x03cb0021808442ad5efb61197966aef72a1def96",
                    "callData": "0x000000000000000000000000459077e1211226aef47a46a89f6cab1371e6b349000000000000000000000000000000000000000000000000004e28e2290f0000",
                    "decodedMethod": {
                        "callParams": [
                            {
                                "name": "_to",
                                "type": "address",
                                "value": "0x459077e1211226aef47a46a89f6cab1371e6b349"
                            },
                            {
                                "name": "_value",
                                "type": "uint256",
                                "value": "22,000,000,000,000,000"
                            }
                        ],
                        "constructorArguments": "",
                        "name": "deduct",
                        "returnParams": [
                            {
                                "name": "success",
                                "type": "bool",
                                "value": true
                            }
                        ],
                        "signature": "deduct(address,uint256)"
                    },
                    "errorInfo": "",
                    "fromAddress": "0x05fc95c91ef6c3e2d8970cc70c6a16ad550afa7f",
                    "gasUsed": 14038,
                    "id": 4,
                    "methodDecoded": true,
                    "operation": "CALL",
                    "output": "0x0000000000000000000000000000000000000000000000000000000000000001",
                    "revert": false,
                    "revertMessage": "",
                    "selector": "0x47055321",
                    "status": true,
                    "value": "0"
                },
                "nodeType": 0
            },
            "5": {
                "event": {
                    "contract": "0x03cb0021808442ad5efb61197966aef72a1def96",
                    "decodedLog": {
                        "name": "Transfer",
                        "params": [
                            {
                                "name": "from",
                                "type": "address",
                                "value": "0x459077e1211226aef47a46a89f6cab1371e6b349"
                            },
                            {
                                "name": "to",
                                "type": "address",
                                "value": "0x05fc95c91ef6c3e2d8970cc70c6a16ad550afa7f"
                            },
                            {
                                "decimalAvailable": true,
                                "name": "value",
                                "type": "uint256",
                                "value": "22,000,000,000,000,000"
                            }
                        ],
                        "signature": "Transfer(address,address,uint256)"
                    },
                    "id": 5,
                    "logData": "0x000000000000000000000000000000000000000000000000004e28e2290f0000",
                    "logDecoded": true,
                    "operation": "EVENT",
                    "revert": false,
                    "status": true,
                    "topics": [
                        "0xddf252ad1be2c89b69c2b068fc378daa952ba7f163c4a11628f55a4df523b3ef",
                        "0x000000000000000000000000459077e1211226aef47a46a89f6cab1371e6b349",
                        "0x00000000000000000000000005fc95c91ef6c3e2d8970cc70c6a16ad550afa7f"
                    ]
                },
                "nodeType": 1
            },
            "6": {
                "invocation": {
                    "address": "0x62a364f7cba3be8fc9dcfdde12cabec8244af381",
                    "callData": "0x381376836dc30cb6b108dd7b7661a64dbd0d102e009c7cf0efd64ea6400eb0550000000000000000000000000000000000000000000000000004b088731a800000000000000000000000000000000000000000000000000000025844398d4000",
                    "decodedMethod": null,
                    "errorInfo": "",
                    "fromAddress": "0x05fc95c91ef6c3e2d8970cc70c6a16ad550afa7f",
                    "gasUsed": 34214,
                    "id": 6,
                    "methodDecoded": false,
                    "operation": "CALL",
                    "output": "",
                    "revert": false,
                    "revertMessage": "",
                    "selector": "0x7f2dc9b5",
                    "status": true,
                    "value": "0"
                },
                "nodeType": 0
            },
            "7": {
                "invocation": {
                    "address": "0x03cb0021808442ad5efb61197966aef72a1def96",
                    "callData": "0x00000000000000000000000005fc95c91ef6c3e2d8970cc70c6a16ad550afa7f000000000000000000000000000000000000000000000000000708ccaca7c000",
                    "decodedMethod": {
                        "callParams": [
                            {
                                "name": "_to",
                                "type": "address",
                                "value": "0x05fc95c91ef6c3e2d8970cc70c6a16ad550afa7f"
                            },
                            {
                                "name": "_value",
                                "type": "uint256",
                                "value": "1,980,000,000,000,000"
                            }
                        ],
                        "constructorArguments": "",
                        "name": "deduct",
                        "returnParams": [
                            {
                                "name": "success",
                                "type": "bool",
                                "value": true
                            }
                        ],
                        "signature": "deduct(address,uint256)"
                    },
                    "errorInfo": "",
                    "fromAddress": "0x62a364f7cba3be8fc9dcfdde12cabec8244af381",
                    "gasUsed": 14038,
                    "id": 7,
                    "methodDecoded": true,
                    "operation": "CALL",
                    "output": "0x0000000000000000000000000000000000000000000000000000000000000001",
                    "revert": false,
                    "revertMessage": "",
                    "selector": "0x47055321",
                    "status": true,
                    "value": "0"
                },
                "nodeType": 0
            },
            "8": {
                "event": {
                    "contract": "0x03cb0021808442ad5efb61197966aef72a1def96",
                    "decodedLog": {
                        "name": "Transfer",
                        "params": [
                            {
                                "name": "from",
                                "type": "address",
                                "value": "0x05fc95c91ef6c3e2d8970cc70c6a16ad550afa7f"
                            },
                            {
                                "name": "to",
                                "type": "address",
                                "value": "0x62a364f7cba3be8fc9dcfdde12cabec8244af381"
                            },
                            {
                                "decimalAvailable": true,
                                "name": "value",
                                "type": "uint256",
                                "value": "1,980,000,000,000,000"
                            }
                        ],
                        "signature": "Transfer(address,address,uint256)"
                    },
                    "id": 8,
                    "logData": "0x000000000000000000000000000000000000000000000000000708ccaca7c000",
                    "logDecoded": true,
                    "operation": "EVENT",
                    "revert": false,
                    "status": true,
                    "topics": [
                        "0xddf252ad1be2c89b69c2b068fc378daa952ba7f163c4a11628f55a4df523b3ef",
                        "0x00000000000000000000000005fc95c91ef6c3e2d8970cc70c6a16ad550afa7f",
                        "0x00000000000000000000000062a364f7cba3be8fc9dcfdde12cabec8244af381"
                    ]
                },
                "nodeType": 1
            }
        },
        "gasFlame": [
            {
                "children": [
                    {
                        "children": [
                            {
                                "children": [],
                                "depth": 0,
                                "name": "Initial Gas",
                                "value": 21592
                            },
                            {
                                "children": [
                                    {
                                        "children": [],
                                        "depth": 1,
                                        "name": "deposit",
                                        "value": 14925
                                    },
                                    {
                                        "children": [],
                                        "depth": 1,
                                        "name": "deduct",
                                        "value": 14038
                                    },
                                    {
                                        "children": [
                                            {
                                                "children": [],
                                                "depth": 2,
                                                "name": "deduct",
                                                "value": 14038
                                            }
                                        ],
                                        "depth": 1,
                                        "name": "0x7f2dc9b5",
                                        "value": 34214
                                    }
                                ],
                                "depth": 0,
                                "name": "Executed Gas",
                                "value": 126474
                            }
                        ],
                        "depth": -1,
                        "name": "Actual Gas Used",
                        "value": 148066
                    },
                    {
                        "children": [],
                        "depth": -1,
                        "name": "Refunded Gas",
                        "value": 0
                    }
                ],
                "depth": -2,
                "name": "Total Gas",
                "value": 148066
            }
        ],
        "isConfirmed": true,
        "mainTrace": [
            {
                "children": [
                    {
                        "children": [
                            {
                                "children": [
                                    {
                                        "children": [],
                                        "depth": 2,
                                        "id": 2,
                                        "order": 2
                                    },
                                    {
                                        "children": [],
                                        "depth": 2,
                                        "id": 3,
                                        "order": 3
                                    }
                                ],
                                "depth": 1,
                                "id": 1,
                                "order": 1
                            },
                            {
                                "children": [
                                    {
                                        "children": [],
                                        "depth": 2,
                                        "id": 5,
                                        "order": 5
                                    }
                                ],
                                "depth": 1,
                                "id": 4,
                                "order": 4
                            },
                            {
                                "children": [
                                    {
                                        "children": [
                                            {
                                                "children": [],
                                                "depth": 3,
                                                "id": 8,
                                                "order": 8
                                            }
                                        ],
                                        "depth": 2,
                                        "id": 7,
                                        "order": 7
                                    }
                                ],
                                "depth": 1,
                                "id": 6,
                                "order": 6
                            }
                        ],
                        "depth": 0,
                        "id": 0,
                        "order": 0
                    }
                ],
                "depth": -1,
                "id": -1,
                "order": -1
            }
        ],
        "mainTraceNodeCount": 9,
        "parentIdMap": {
            "0": -1,
            "1": 0,
            "2": 1,
            "3": 1,
            "4": 0,
            "5": 4,
            "6": 0,
            "7": 6,
            "8": 7
        },
        "tidyTrace": [
            {
                "children": [
                    {
                        "children": [
                            {
                                "children": [
                                    {
                                        "children": [],
                                        "depth": 2,
                                        "id": 2,
                                        "order": 2
                                    },
                                    {
                                        "children": [],
                                        "depth": 2,
                                        "id": 3,
                                        "order": 3
                                    }
                                ],
                                "depth": 1,
                                "id": 1,
                                "order": 1
                            },
                            {
                                "children": [
                                    {
                                        "children": [],
                                        "depth": 2,
                                        "id": 5,
                                        "order": 5
                                    }
                                ],
                                "depth": 1,
                                "id": 4,
                                "order": 4
                            },
                            {
                                "children": [
                                    {
                                        "children": [
                                            {
                                                "children": [],
                                                "depth": 3,
                                                "id": 8,
                                                "order": 8
                                            }
                                        ],
                                        "depth": 2,
                                        "id": 7,
                                        "order": 7
                                    }
                                ],
                                "depth": 1,
                                "id": 6,
                                "order": 6
                            }
                        ],
                        "depth": 0,
                        "id": 0,
                        "order": 0
                    }
                ],
                "depth": -1,
                "id": -1,
                "order": -1
            }
        ],
        "tidyTraceNodeCount": 9
    },
    "state_change": {
        "stateChanges": [
            {
                "address": "0x03cb0021808442ad5efb61197966aef72a1def96",
                "erc": "",
                "slots": [
                    {
                        "current": "0x0000000000000000000000000000000000000000000000373dafde73c0c44000",
                        "key": "0x2ae1781e2b15e18335d21665ed35f55f4489bb9a28dc7e5c8dd1f7abd6dbaf1c",
                        "prev": "0x0000000000000000000000000000000000000000000000373da8d5a7141c8000"
                    },
                    {
                        "current": "0x0000000000000000000000000000000000000000000001a2188cd319600f7d86",
                        "key": "0x0000000000000000000000000000000000000000000000000000000000000005",
                        "prev": "0x0000000000000000000000000000000000000000000001a2183eaa3737007d86"
                    },
                    {
                        "current": "0x00000000000000000000000000000000000000000000001c866ee2039d0fa68f",
                        "key": "0x1c19399ee79ba8e32c21de7cf96446fd25b8490b538d4cb2a6f5840dc9460c5d",
                        "prev": "0x00000000000000000000000000000000000000000000001c8627c1ee20a8668f"
                    }
                ],
                "storageVariables": []
            },
            {
                "address": "0x05fc95c91ef6c3e2d8970cc70c6a16ad550afa7f",
                "erc": "",
                "slots": [
                    {
                        "current": "0x0000000000000000000000000000000000000000000000089da43d29e7968000",
                        "key": "0xffedcb5c2329ce8592fea678aa3328951a25fcc7d4ca547bb04f5380cc266f95",
                        "prev": "0x0000000000000000000000000000000000000000000000089d9b2c221a1f0000"
                    },
                    {
                        "current": "0x0000000000000000000000000006489985cd03990000000d82f448b069e10000",
                        "key": "0x0000000000000000000000000000000000000000000000000000000000000006",
                        "prev": "0x000000000000000000000000000648659fe6f8b80000000d82eae79f83ac0000"
                    },
                    {
                        "current": "0x0000000f341bde1496f40000000000005cbce10e000000005cbb86c000000001",
                        "key": "0x0000000000000000000000000000000000000000000000000000000000000005",
                        "prev": "0x0000000f341bde1496f40000000000005cbce0f8000000005cbb86c000000001"
                    },
                    {
                        "current": "0x0000000000000000000000000000000000000000000000000a4c1d1197570000",
                        "key": "0x901c30e86b8641158058bc02f70ec860a212a479109f7f9b8f939afa286f3632",
                        "prev": "0x00000000000000000000000000000000000000000000000009fdf42f6e480000"
                    },
                    {
                        "current": "0x000a185b3a5c2fba9479000a185c3b65bc4c000000097697041c14d70000000b",
                        "key": "0x0000000000000000000000000000000000000000000000000000000000000007",
                        "prev": "0x000a185b3a5c2fba9479000a185c3b65bc4c000000097648db39ebc80000000b"
                    },
                    {
                        "current": "0x00000000000000005cbce10e459077e1211226aef47a46a89f6cab1371e6b349",
                        "key": "0x0000000000000000000000000000000000000000000000000000000000000003",
                        "prev": "0x00000000000000005cbce0eefbdc28c838e57f022025e3fee9892dee784fdd8b"
                    },
                    {
                        "current": "0x0000000000000000000000000000000000000000000000000000000000742bde",
                        "key": "0x0000000000000000000000000000000000000000000000000000000000000004",
                        "prev": "0x0000000000000000000000000000000000000000000000000000000000742bdd"
                    },
                    {
                        "current": "0x00000000000000000000000000000000000000000000000001b5e8512303c000",
                        "key": "0x2b5c1abfbbd4ec2b921dcb259cd2a39032bf5588223ac5edaf4f4933216d4b99",
                        "prev": "0x00000000000000000000000000000000000000000000000001b5203a652a0000"
                    },
                    {
                        "current": "0x0000000000000000000000000000000000000000000006c3d19cd06b1d578000",
                        "key": "0x000000000000000000000000000000000000000000000000000000000000000e",
                        "prev": "0x0000000000000000000000000000000000000000000006c3d14ea788f4488000"
                    }
                ],
                "storageVariables": []
            },
            {
                "address": "0x62a364f7cba3be8fc9dcfdde12cabec8244af381",
                "erc": "",
                "slots": [
                    {
                        "current": "0x00000000000000000000000000000000000000000000000008b985210d648000",
                        "key": "0xeae1c01e4031a6c23cbee205db8615c180e4c190b442ba4739016cac28132b79",
                        "prev": "0x00000000000000000000000000000000000000000000000008b4d4989a4a0000"
                    },
                    {
                        "current": "0x00000000000000000000000000000000000000000000000d49a622682fc10000",
                        "key": "0x0000000000000000000000000000000000000000000000000000000000000011",
                        "prev": "0x00000000000000000000000000000000000000000000000d499f199b83194000"
                    },
                    {
                        "current": "0x000000000000000000000000000000000000000000000000035cc060582e8000",
                        "key": "0x2b5c1abfbbd4ec2b921dcb259cd2a39032bf5588223ac5edaf4f4933216d4b99",
                        "prev": "0x000000000000000000000000000000000000000000000000035a681c1ea14000"
                    }
                ],
                "storageVariables": []
            }
        ]
    }
}