{
    "balance_change": {
        "balanceChanges": []
    },
    "profile": {
        "basic_info": {
            "baseFee": "",
            "blockNumber": 3070172,
            "callData": "0xe637a44b0000000000000000000000000000000000000000000000000003a5c5d5db0b09000000000000000000000000000000000000000000000000000388f848410e02",
            "debugEnable": true,
            "errorInfo": "",
            "eventCount": 1,
            "feeRecipient": "0x61c808d82a3ac53231750dadc13c777b59310bd9",
            "formatValue": "0",
            "gasLimit": 70000,
            "gasPrice": "40",
            "gasUsed": 46860,
            "intTxnCount": 1,
            "internalRevert": false,
            "internalRevertMessage": "",
            "isContractCreation": false,
            "isFlashloan": false,
            "maxFee": "",
            "nonce": 29793,
            "overwritedBlockNumber": -1,
            "priorityFee": "",
            "receiver": "0xfdc77b9cb732eb8c896b152e28294521f5f62e67",
            "revertMessage": "",
            "sender": "0xcaa216e03ee4932941ef0729f250e297fd5655ad",
            "simulationEnable": true,
            "sourceTxnHash": "0x9673dcd978014586d09c221e40ad66c194e5c6322df8351a3efcca0526bf3f49",
            "status": true,
            "timestamp": "2017-01-27T00:32:05Z",
            "transactionFee": "0.0018744",
            "txnHash": "0x9673dcd978014586d09c221e40ad66c194e5c6322df8351a3efcca0526bf3f49",
            "txnIndex": 1,
            "type": 0,
            "value": "0"
        },
        "fund_flow": [],
        "token_infos": [
            {
                "address": "0xc02aaa39b223fe8d0a0e5c4f27ead9083c756cc2",
                "decimals": 18
            },
            {
                "address": "0xeeeeeeeeeeeeeeeeeeeeeeeeeeeeeeeeeeeeeeee",
                "decimals": 18
            }
        ]
    },
    "address_label": {
        "labels": [
            {
                "address": "0xeeeeeeeeeeeeeeeeeeeeeeeeeeeeeeeeeeeeeeee",
                "label": "Ether"
            },
            {
                "address": "0x0000000000000000000000000000000000000001",
                "label": "Precompiled"
            },
            {
                "address": "0x0000000000000000000000000000000000000002",
                "label": "Precompiled"
            },
            {
                "address": "0x0000000000000000000000000000000000000003",
                "label": "Precompiled"
            },
            {
                "address": "0x0000000000000000000000000000000000000004",
                "label": "Precompiled"
            }
        ]
    },
    "trace": {
        "accountLabels": null,
        "dataMap": {
            "-1": {
                "invocation": {
                    "address": "0xcaa216e03ee4932941ef0729f250e297fd5655ad",
                    "callData": "",
                    "decodedMethod": null,
                    "errorInfo": "",
                    "fromAddress": "",
                    "gasUsed": 0,
                    "id": -1,
                    "methodDecoded": false,
                    "operation": "",
                    "output": "",
                    "revert": false,
                    "revertMessage": "",
                    "selector": "",
                    "status": false,
                    "value": ""
                },
                "nodeType": 0
            },
            "0": {
                "invocation": {
                    "address": "0xfdc77b9cb732eb8c896b152e28294521f5f62e67",
                    "callData": "0x0000000000000000000000000000000000000000000000000003a5c5d5db0b09000000000000000000000000000000000000000000000000000388f848410e02",
                    "decodedMethod": {
                        "callParams": [
                            {
                                "name": "newUsdcExchangeRate",
                                "type": "uint256",
                                "value": "1,026,694,045,174,537"
                            },
                            {
                                "name": "newBsggExchangeRate",
                                "type": "uint256",
                                "value": "995,024,875,621,890"
                            }
                        ],
                        "constructorArguments": "",
                        "name": "setExchangeRates",
                        "returnParams": [],
                        "signature": "setExchangeRates(uint256,uint256)"
                    },
                    "errorInfo": "",
                    "fromAddress": "0xcaa216e03ee4932941ef0729f250e297fd5655ad",
                    "gasUsed": 46860,
                    "id": 0,
                    "methodDecoded": true,
                    "operation": "CALL",
                    "output": "",
                    "revert": false,
                    "revertMessage": "",
                    "selector": "0xe637a44b",
                    "status": true,
                    "value": "0"
                },
                "nodeType": 0
            },
            "1": {
                "invocation": {
                    "address": "0x8f57162ef4204e383cdd7ca55c11ab374e23634d",
                    "callData": "0x0000000000000000000000000000000000000000000000000000000000000001000000000000000000000000caa216e03ee4932941ef0729f250e297fd5655ad",
                    "decodedMethod": null,
                    "errorInfo": "",
                    "fromAddress": "0xfdc77b9cb732eb8c896b152e28294521f5f62e67",
                    "gasUsed": 597,
                    "id": 1,
                    "methodDecoded": false,
                    "operation": "CALLCODE",
                    "output": "0x0000000000000000000000000000000000000000000000000000000000000000",
                    "revert": false,
                    "revertMessage": "",
                    "selector": "0x5035db4a",
                    "status": true,
                    "value": "0"
                },
                "nodeType": 0
            },
            "2": {
                "event": {
                    "contract": "0xfdc77b9cb732eb8c896b152e28294521f5f62e67",
                    "decodedLog": null,
                    "id": 2,
                    "logData": "0x0000000000000000000000000000000000000000000000000003a5c5d5db0b09000000000000000000000000000000000000000000000000000388f848410e020000000000000000000000000000000000000000000000000003a5c5d5db0b0900000000000000000000000000000000000000000000000000038ac63dada8b500000000000000000000000000000000000000000000000000000000002ed896",
                    "logDecoded": false,
                    "operation": "EVENT",
                    "revert": false,
                    "status": true,
                    "topics": [
                        "0xdd20a4d3d59f66467618fdcb21f5274fc32dc36573b92ec33c88f5236a4e52cb"
                    ]
                },
                "nodeType": 1
            }
        },
        "gasFlame": [
            {
                "children": [
                    {
                        "children": [
                            {
                                "children": [],
                                "depth": 0,
                                "name": "Initial Gas",
                                "value": 22424
                            },
                            {
                                "children": [
                                    {
                                        "children": [],
                                        "depth": 1,
                                        "name": "0x5035db4a",
                                        "value": 597
                                    }
                                ],
                                "depth": 0,
                                "name": "Executed Gas",
                                "value": 24436
                            }
                        ],
                        "depth": -1,
                        "name": "Actual Gas Used",
                        "value": 46860
                    },
                    {
                        "children": [],
                        "depth": -1,
                        "name": "Refunded Gas",
                        "value": 0
                    }
                ],
                "depth": -2,
                "name": "Total Gas",
                "value": 46860
            }
        ],
        "isConfirmed": true,
        "mainTrace": [
            {
                "children": [
                    {
                        "children": [
                            {
                                "children": [],
                                "depth": 1,
                                "id": 1,
                                "order": 1
                            },
                            {
                                "children": [],
                                "depth": 1,
                                "id": 2,
                                "order": 2
                            }
                        ],
                        "depth": 0,
                        "id": 0,
                        "order": 0
                    }
                ],
                "depth": -1,
                "id": -1,
                "order": -1
            }
        ],
        "mainTraceNodeCount": 3,
        "parentIdMap": {
            "0": -1,
            "1": 0,
            "2": 0
        },
        "tidyTrace": [
            {
                "children": [
                    {
                        "children": [
                            {
                                "children": [],
                                "depth": 1,
                                "id": 1,
                                "order": 1
                            },
                            {
                                "children": [],
                                "depth": 1,
                                "id": 2,
                                "order": 2
                            }
                        ],
                        "depth": 0,
                        "id": 0,
                        "order": 0
                    }
                ],
                "depth": -1,
                "id": -1,
                "order": -1
            }
        ],
        "tidyTraceNodeCount": 3
    },
    "state_change": {
        "stateChanges": [
            {
                "address": "0xfdc77b9cb732eb8c896b152e28294521f5f62e67",
                "erc": "",
                "slots": [
                    {
                        "current": "0x000000000000000000000000000000000000000000000000000388f848410e02",
                        "key": "0x000000000000000000000000000000000000000000000000000000000000020e",
                        "prev": "0x00000000000000000000000000000000000000000000000000038ac63dada8b5"
                    },
                    {
                        "current": "0x00000000000000000000000000000000000000000000000000000000002ed8dc",
                        "key": "0x0000000000000000000000000000000000000000000000000000000000000210",
                        "prev": "0x00000000000000000000000000000000000000000000000000000000002ed896"
                    }
                ],
                "storageVariables": []
            }
        ]
    }
}