{
    "balance_change": {
        "balanceChanges": [
            {
                "account": "0xfbb1b73c4f0bda4f67dca266ce6ef42f520fbb98",
                "assets": [
                    {
                        "address": "0xa74476443119a942de498590fe1f2454d7d4ac0d",
                        "amount": "240.38590389",
                        "iconUrl": "",
                        "isERC1155": false,
                        "isERC721": false,
                        "sign": false,
                        "value": ""
                    }
                ]
            },
            {
                "account": "0x1865d8414dfb4a61c6460428ac13f42303e07fd3",
                "assets": [
                    {
                        "address": "0xa74476443119a942de498590fe1f2454d7d4ac0d",
                        "amount": "240.38590389",
                        "iconUrl": "",
                        "isERC1155": false,
                        "isERC721": false,
                        "sign": true,
                        "value": ""
                    }
                ]
            }
        ]
    },
    "profile": {
        "basic_info": {
            "baseFee": "",
            "blockNumber": 4613820,
            "callData": "0xa9059cbb0000000000000000000000001865d8414dfb4a61c6460428ac13f42303e07fd300000000000000000000000000000000000000000000000d080649f806a43400",
            "debugEnable": true,
            "errorInfo": "",
            "eventCount": 1,
            "feeRecipient": "0x829bd824b016326a401d083b33d092293333a830",
            "formatValue": "0",
            "gasLimit": 201848,
            "gasPrice": "20",
            "gasUsed": 51848,
            "intTxnCount": 0,
            "internalRevert": false,
            "internalRevertMessage": "",
            "isContractCreation": false,
            "isFlashloan": false,
            "maxFee": "",
            "nonce": 2687997,
            "overwritedBlockNumber": -1,
            "priorityFee": "",
            "receiver": "0xa74476443119a942de498590fe1f2454d7d4ac0d",
            "revertMessage": "",
            "sender": "0xfbb1b73c4f0bda4f67dca266ce6ef42f520fbb98",
            "simulationEnable": true,
            "sourceTxnHash": "0x96513a05df1171110e7047444c992ee75ec9fac049f8742413c2d1ebcbb4f96f",
            "status": true,
            "timestamp": "2017-11-24T15:17:00Z",
            "transactionFee": "0.00103696",
            "txnHash": "0x96513a05df1171110e7047444c992ee75ec9fac049f8742413c2d1ebcbb4f96f",
            "txnIndex": 113,
            "type": 0,
            "value": "0"
        },
        "fund_flow": [
            {
                "amount": "240.38590389",
                "from": "0xfbb1b73c4f0bda4f67dca266ce6ef42f520fbb98",
                "id": 1,
                "isERC1155": false,
                "isERC721": false,
                "isReverted": false,
                "order": 1,
                "to": "0x1865d8414dfb4a61c6460428ac13f42303e07fd3",
                "token": "0xa74476443119a942de498590fe1f2454d7d4ac0d"
            }
        ],
        "token_infos": [
            {
                "address": "0xa74476443119a942de498590fe1f2454d7d4ac0d",
                "decimals": 18
            },
            {
                "address": "0xc02aaa39b223fe8d0a0e5c4f27ead9083c756cc2",
                "decimals": 18
            },
            {
                "address": "0xeeeeeeeeeeeeeeeeeeeeeeeeeeeeeeeeeeeeeeee",
                "decimals": 18
            }
        ]
    },
    "address_label": {
        "labels": [
            {
                "address": "0xfbb1b73c4f0bda4f67dca266ce6ef42f520fbb98",
                "label": "Bittrex"
            },
            {
                "address": "0x1865d8414dfb4a61c6460428ac13f42303e07fd3",
                "label": "LIQUI.IO"
            },
            {
                "address": "0xa74476443119a942de498590fe1f2454d7d4ac0d",
                "label": "Golem Token"
            },
            {
                "address": "0x0000000000000000000000000000000000000001",
                "label": "Precompiled"
            },
            {
                "address": "0x0000000000000000000000000000000000000002",
                "label": "Precompiled"
            },
            {
                "address": "0x0000000000000000000000000000000000000003",
                "label": "Precompiled"
            },
            {
                "address": "0x0000000000000000000000000000000000000004",
                "label": "Precompiled"
            },
            {
                "address": "0xeeeeeeeeeeeeeeeeeeeeeeeeeeeeeeeeeeeeeeee",
                "label": "Ether"
            }
        ]
    },
    "trace": {
        "accountLabels": null,
        "dataMap": {
            "-1": {
                "invocation": {
                    "address": "0xfbb1b73c4f0bda4f67dca266ce6ef42f520fbb98",
                    "callData": "",
                    "decodedMethod": null,
                    "errorInfo": "",
                    "fromAddress": "",
                    "gasUsed": 0,
                    "id": -1,
                    "methodDecoded": false,
                    "operation": "",
                    "output": "",
                    "revert": false,
                    "revertMessage": "",
                    "selector": "",
                    "status": false,
                    "value": ""
                },
                "nodeType": 0
            },
            "0": {
                "invocation": {
                    "address": "0xa74476443119a942de498590fe1f2454d7d4ac0d",
                    "callData": "0x0000000000000000000000001865d8414dfb4a61c6460428ac13f42303e07fd300000000000000000000000000000000000000000000000d080649f806a43400",
                    "decodedMethod": {
                        "callParams": [
                            {
                                "name": "_to",
                                "type": "address",
                                "value": "0x1865d8414dfb4a61c6460428ac13f42303e07fd3"
                            },
                            {
                                "decimalAvailable": true,
                                "name": "_value",
                                "type": "uint256",
                                "value": "240,385,903,890,000,000,000"
                            }
                        ],
                        "constructorArguments": "",
                        "name": "transfer",
                        "returnParams": [
                            {
                                "name": "",
                                "type": "bool",
                                "value": true
                            }
                        ],
                        "signature": "transfer(address,uint256)"
                    },
                    "errorInfo": "",
                    "fromAddress": "0xfbb1b73c4f0bda4f67dca266ce6ef42f520fbb98",
                    "gasUsed": 51848,
                    "id": 0,
                    "methodDecoded": true,
                    "operation": "CALL",
                    "output": "0x0000000000000000000000000000000000000000000000000000000000000001",
                    "revert": false,
                    "revertMessage": "",
                    "selector": "0xa9059cbb",
                    "status": true,
                    "value": "0"
                },
                "nodeType": 0
            },
            "1": {
                "event": {
                    "contract": "0xa74476443119a942de498590fe1f2454d7d4ac0d",
                    "decodedLog": {
                        "name": "Transfer",
                        "params": [
                            {
                                "name": "_from",
                                "type": "address",
                                "value": "0xfbb1b73c4f0bda4f67dca266ce6ef42f520fbb98"
                            },
                            {
                                "name": "_to",
                                "type": "address",
                                "value": "0x1865d8414dfb4a61c6460428ac13f42303e07fd3"
                            },
                            {
                                "decimalAvailable": true,
                                "name": "_value",
                                "type": "uint256",
                                "value": "240,385,903,890,000,000,000"
                            }
                        ],
                        "signature": "Transfer(address,address,uint256)"
                    },
                    "id": 1,
                    "logData": "0x00000000000000000000000000000000000000000000000d080649f806a43400",
                    "logDecoded": true,
                    "operation": "EVENT",
                    "revert": false,
                    "status": true,
                    "topics": [
                        "0xddf252ad1be2c89b69c2b068fc378daa952ba7f163c4a11628f55a4df523b3ef",
                        "0x000000000000000000000000fbb1b73c4f0bda4f67dca266ce6ef42f520fbb98",
                        "0x0000000000000000000000001865d8414dfb4a61c6460428ac13f42303e07fd3"
                    ]
                },
                "nodeType": 1
            }
        },
        "gasFlame": [
            {
                "children": [
                    {
                        "children": [
                            {
                                "children": [],
                                "depth": 0,
                                "name": "Initial Gas",
                                "value": 23320
                            },
                            {
                                "children": [],
                                "depth": 0,
                                "name": "Executed Gas",
                                "value": 28528
                            }
                        ],
                        "depth": -1,
                        "name": "Actual Gas Used",
                        "value": 51848
                    },
                    {
                        "children": [],
                        "depth": -1,
                        "name": "Refunded Gas",
                        "value": 0
                    }
                ],
                "depth": -2,
                "name": "Total Gas",
                "value": 51848
            }
        ],
        "isConfirmed": true,
        "mainTrace": [
            {
                "children": [
                    {
                        "children": [
                            {
                                "children": [],
                                "depth": 1,
                                "id": 1,
                                "order": 1
                            }
                        ],
                        "depth": 0,
                        "id": 0,
                        "order": 0
                    }
                ],
                "depth": -1,
                "id": -1,
                "order": -1
            }
        ],
        "mainTraceNodeCount": 2,
        "parentIdMap": {
            "0": -1,
            "1": 0
        },
        "tidyTrace": [
            {
                "children": [
                    {
                        "children": [
                            {
                                "children": [],
                                "depth": 1,
                                "id": 1,
                                "order": 1
                            }
                        ],
                        "depth": 0,
                        "id": 0,
                        "order": 0
                    }
                ],
                "depth": -1,
                "id": -1,
                "order": -1
            }
        ],
        "tidyTraceNodeCount": 2
    },
    "state_change": {
        "stateChanges": [
            {
                "address": "0xa74476443119a942de498590fe1f2454d7d4ac0d",
                "erc": "",
                "slots": [
                    {
                        "current": "0x0000000000000000000000000000000000000000004c9009c210c8505a6fa000",
                        "key": "0x8512b86e37edb28c03715fbf463fd95779fa58197d3beda4c00d85ba958c38bd",
                        "prev": "0x0000000000000000000000000000000000000000004c9016ca1712486113d400"
                    },
                    {
                        "current": "0x00000000000000000000000000000000000000000000000d080649f806a43400",
                        "key": "0xf15cfa17dbe40f614fd15ef64f8d90980eb54e2023e772b2f656d33bb8ccf07f",
                        "prev": "0x0000000000000000000000000000000000000000000000000000000000000000"
                    }
                ],
                "storageVariables": []
            }
        ]
    }
}