{
    "balance_change": {
        "balanceChanges": [
            {
                "account": "0xa2d4eda620bfe3527a31327e3033e86eaacfd998",
                "assets": [
                    {
                        "address": "0x86e6a4f512b1290c043970b04e0b570d4fc98291",
                        "amount": "30",
                        "iconUrl": "",
                        "isERC1155": false,
                        "isERC721": false,
                        "sign": false,
                        "value": ""
                    }
                ]
            },
            {
                "account": "0xbe81787ad3e7c031ef1a3df687ac96240b1316ce",
                "assets": [
                    {
                        "address": "0x86e6a4f512b1290c043970b04e0b570d4fc98291",
                        "amount": "30",
                        "iconUrl": "",
                        "isERC1155": false,
                        "isERC721": false,
                        "sign": true,
                        "value": ""
                    }
                ]
            }
        ]
    },
    "profile": {
        "basic_info": {
            "baseFee": "",
            "blockNumber": 8090262,
            "callData": "0xa9059cbb000000000000000000000000be81787ad3e7c031ef1a3df687ac96240b1316ce000000000000000000000000000000000000000000000001a055690d9db80000",
            "debugEnable": true,
            "errorInfo": "",
            "eventCount": 1,
            "feeRecipient": "0x5a0b54d5dc17e0aadc383d2db43b0a0d3e029c4c",
            "formatValue": "0",
            "gasLimit": 37439,
            "gasPrice": "3",
            "gasUsed": 22439,
            "intTxnCount": 0,
            "internalRevert": false,
            "internalRevertMessage": "",
            "isContractCreation": false,
            "isFlashloan": false,
            "maxFee": "",
            "nonce": 18,
            "overwritedBlockNumber": -1,
            "priorityFee": "",
            "receiver": "0x86e6a4f512b1290c043970b04e0b570d4fc98291",
            "revertMessage": "",
            "sender": "0xa2d4eda620bfe3527a31327e3033e86eaacfd998",
            "simulationEnable": true,
            "sourceTxnHash": "0x9615ab12e79bfe945015f982e5b7e50c9269e92795d66fa12f622035a9df01cc",
            "status": true,
            "timestamp": "2019-07-05T08:27:29Z",
            "transactionFee": "0.000067317",
            "txnHash": "0x9615ab12e79bfe945015f982e5b7e50c9269e92795d66fa12f622035a9df01cc",
            "txnIndex": 175,
            "type": 0,
            "value": "0"
        },
        "fund_flow": [
            {
                "amount": "30",
                "from": "0xa2d4eda620bfe3527a31327e3033e86eaacfd998",
                "id": 1,
                "isERC1155": false,
                "isERC721": false,
                "isReverted": false,
                "order": 1,
                "to": "0xbe81787ad3e7c031ef1a3df687ac96240b1316ce",
                "token": "0x86e6a4f512b1290c043970b04e0b570d4fc98291"
            }
        ],
        "token_infos": [
            {
                "address": "0x86e6a4f512b1290c043970b04e0b570d4fc98291",
                "decimals": 18
            },
            {
                "address": "0xc02aaa39b223fe8d0a0e5c4f27ead9083c756cc2",
                "decimals": 18
            },
            {
                "address": "0xeeeeeeeeeeeeeeeeeeeeeeeeeeeeeeeeeeeeeeee",
                "decimals": 18
            }
        ]
    },
    "address_label": {
        "labels": [
            {
                "address": "0x0000000000000000000000000000000000000001",
                "label": "Precompiled"
            },
            {
                "address": "0x0000000000000000000000000000000000000002",
                "label": "Precompiled"
            },
            {
                "address": "0x0000000000000000000000000000000000000003",
                "label": "Precompiled"
            },
            {
                "address": "0x0000000000000000000000000000000000000004",
                "label": "Precompiled"
            },
            {
                "address": "0xeeeeeeeeeeeeeeeeeeeeeeeeeeeeeeeeeeeeeeee",
                "label": "Ether"
            },
            {
                "address": "0x86e6a4f512b1290c043970b04e0b570d4fc98291",
                "label": "IntelliShare Token"
            }
        ]
    },
    "trace": {
        "accountLabels": null,
        "dataMap": {
            "-1": {
                "invocation": {
                    "address": "0xa2d4eda620bfe3527a31327e3033e86eaacfd998",
                    "callData": "",
                    "decodedMethod": null,
                    "errorInfo": "",
                    "fromAddress": "",
                    "gasUsed": 0,
                    "id": -1,
                    "methodDecoded": false,
                    "operation": "",
                    "output": "",
                    "revert": false,
                    "revertMessage": "",
                    "selector": "",
                    "status": false,
                    "value": ""
                },
                "nodeType": 0
            },
            "0": {
                "invocation": {
                    "address": "0x86e6a4f512b1290c043970b04e0b570d4fc98291",
                    "callData": "0x000000000000000000000000be81787ad3e7c031ef1a3df687ac96240b1316ce000000000000000000000000000000000000000000000001a055690d9db80000",
                    "decodedMethod": {
                        "callParams": [
                            {
                                "name": "_to",
                                "type": "address",
                                "value": "0xbe81787ad3e7c031ef1a3df687ac96240b1316ce"
                            },
                            {
                                "decimalAvailable": true,
                                "name": "_value",
                                "type": "uint256",
                                "value": "30,000,000,000,000,000,000"
                            }
                        ],
                        "constructorArguments": "",
                        "name": "transfer",
                        "returnParams": [
                            {
                                "name": "",
                                "type": "bool",
                                "value": true
                            }
                        ],
                        "signature": "transfer(address,uint256)"
                    },
                    "errorInfo": "",
                    "fromAddress": "0xa2d4eda620bfe3527a31327e3033e86eaacfd998",
                    "gasUsed": 22439,
                    "id": 0,
                    "methodDecoded": true,
                    "operation": "CALL",
                    "output": "0x0000000000000000000000000000000000000000000000000000000000000001",
                    "revert": false,
                    "revertMessage": "",
                    "selector": "0xa9059cbb",
                    "status": true,
                    "value": "0"
                },
                "nodeType": 0
            },
            "1": {
                "event": {
                    "contract": "0x86e6a4f512b1290c043970b04e0b570d4fc98291",
                    "decodedLog": {
                        "name": "Transfer",
                        "params": [
                            {
                                "name": "from",
                                "type": "address",
                                "value": "0xa2d4eda620bfe3527a31327e3033e86eaacfd998"
                            },
                            {
                                "name": "to",
                                "type": "address",
                                "value": "0xbe81787ad3e7c031ef1a3df687ac96240b1316ce"
                            },
                            {
                                "decimalAvailable": true,
                                "name": "value",
                                "type": "uint256",
                                "value": "30,000,000,000,000,000,000"
                            }
                        ],
                        "signature": "Transfer(address,address,uint256)"
                    },
                    "id": 1,
                    "logData": "0x000000000000000000000000000000000000000000000001a055690d9db80000",
                    "logDecoded": true,
                    "operation": "EVENT",
                    "revert": false,
                    "status": true,
                    "topics": [
                        "0xddf252ad1be2c89b69c2b068fc378daa952ba7f163c4a11628f55a4df523b3ef",
                        "0x000000000000000000000000a2d4eda620bfe3527a31327e3033e86eaacfd998",
                        "0x000000000000000000000000be81787ad3e7c031ef1a3df687ac96240b1316ce"
                    ]
                },
                "nodeType": 1
            }
        },
        "gasFlame": [
            {
                "children": [
                    {
                        "children": [
                            {
                                "children": [],
                                "depth": 0,
                                "name": "Initial Gas",
                                "value": 23256
                            },
                            {
                                "children": [],
                                "depth": 0,
                                "name": "Executed Gas",
                                "value": 14183
                            }
                        ],
                        "depth": -1,
                        "name": "Actual Gas Used",
                        "value": 22439
                    },
                    {
                        "children": [],
                        "depth": -1,
                        "name": "Refunded Gas",
                        "value": 15000
                    }
                ],
                "depth": -2,
                "name": "Total Gas",
                "value": 37439
            }
        ],
        "isConfirmed": true,
        "mainTrace": [
            {
                "children": [
                    {
                        "children": [
                            {
                                "children": [],
                                "depth": 1,
                                "id": 1,
                                "order": 1
                            }
                        ],
                        "depth": 0,
                        "id": 0,
                        "order": 0
                    }
                ],
                "depth": -1,
                "id": -1,
                "order": -1
            }
        ],
        "mainTraceNodeCount": 2,
        "parentIdMap": {
            "0": -1,
            "1": 0
        },
        "tidyTrace": [
            {
                "children": [
                    {
                        "children": [
                            {
                                "children": [],
                                "depth": 1,
                                "id": 1,
                                "order": 1
                            }
                        ],
                        "depth": 0,
                        "id": 0,
                        "order": 0
                    }
                ],
                "depth": -1,
                "id": -1,
                "order": -1
            }
        ],
        "tidyTraceNodeCount": 2
    },
    "state_change": {
        "stateChanges": [
            {
                "address": "0x86e6a4f512b1290c043970b04e0b570d4fc98291",
                "erc": "ERC-20",
                "slots": [
                    {
                        "current": "0x0000000000000000000000000000000000000000000000000000000000000000",
                        "key": "0x348bfb0f0708e409fa783107eaaa39e60c14e8cb1bd4bf617faf2cb75a948db3",
                        "prev": "0x000000000000000000000000000000000000000000000001a055690d9db80000"
                    },
                    {
                        "current": "0x000000000000000000000000000000000000000000000038ebad5cdc90280000",
                        "key": "0x749632bc2a682da65c08de4b0aae92d8e52f296ebdbbcdb710e3e847a5ffab4b",
                        "prev": "0x0000000000000000000000000000000000000000000000374b57f3cef2700000"
                    }
                ],
                "storageVariables": [
                    {
                        "name": "balances",
                        "type": "mapping(address => uint256)",
                        "value": {
                            "pairs": [
                                {
                                    "key": "0xa2d4eda620bfe3527a31327e3033e86eaacfd998",
                                    "value": {
                                        "current": "0",
                                        "prev": "30000000000000000000",
                                        "typeTag": 1
                                    }
                                },
                                {
                                    "key": "0xbe81787ad3e7c031ef1a3df687ac96240b1316ce",
                                    "value": {
                                        "current": "1050000000000000000000",
                                        "prev": "1020000000000000000000",
                                        "typeTag": 1
                                    }
                                }
                            ],
                            "typeTag": 4
                        }
                    }
                ]
            }
        ]
    }
}