{
    "balance_change": {
        "balanceChanges": [
            {
                "account": "0xbd6d79f3f02584cfcb754437ac6776c4c6e0a0ec",
                "assets": [
                    {
                        "address": "0xbf5f8bfcee9502a30018d91c63eca66980e6e9bb",
                        "amount": "1,121.5",
                        "iconUrl": "",
                        "isERC1155": false,
                        "isERC721": false,
                        "sign": false,
                        "value": ""
                    }
                ]
            },
            {
                "account": "0x0f00bf1d462699665d6edb07aa17b766fdcb0891",
                "assets": [
                    {
                        "address": "0xbf5f8bfcee9502a30018d91c63eca66980e6e9bb",
                        "amount": "1,121.5",
                        "iconUrl": "",
                        "isERC1155": false,
                        "isERC721": false,
                        "sign": true,
                        "value": ""
                    }
                ]
            }
        ]
    },
    "profile": {
        "basic_info": {
            "baseFee": "",
            "blockNumber": 8360948,
            "callData": "0xa9059cbb0000000000000000000000000f00bf1d462699665d6edb07aa17b766fdcb089100000000000000000000000000000000000000000000003ccbf06409d0960000",
            "debugEnable": true,
            "errorInfo": "",
            "eventCount": 1,
            "feeRecipient": "0x09ab1303d3ccaf5f018cd511146b07a240c70294",
            "formatValue": "0",
            "gasLimit": 52509,
            "gasPrice": "20",
            "gasUsed": 52509,
            "intTxnCount": 0,
            "internalRevert": false,
            "internalRevertMessage": "",
            "isContractCreation": false,
            "isFlashloan": false,
            "maxFee": "",
            "nonce": 142404,
            "overwritedBlockNumber": -1,
            "priorityFee": "",
            "receiver": "0xbf5f8bfcee9502a30018d91c63eca66980e6e9bb",
            "revertMessage": "",
            "sender": "0xbd6d79f3f02584cfcb754437ac6776c4c6e0a0ec",
            "simulationEnable": true,
            "sourceTxnHash": "0x96bb7611d89426213af33a3e2d9b2da28c3ffb08ffb813dfcc527af86dd0fe2e",
            "status": true,
            "timestamp": "2019-08-16T10:26:58Z",
            "transactionFee": "0.00105018",
            "txnHash": "0x96bb7611d89426213af33a3e2d9b2da28c3ffb08ffb813dfcc527af86dd0fe2e",
            "txnIndex": 64,
            "type": 0,
            "value": "0"
        },
        "fund_flow": [
            {
                "amount": "1,121.5",
                "from": "0xbd6d79f3f02584cfcb754437ac6776c4c6e0a0ec",
                "id": 1,
                "isERC1155": false,
                "isERC721": false,
                "isReverted": false,
                "order": 1,
                "to": "0x0f00bf1d462699665d6edb07aa17b766fdcb0891",
                "token": "0xbf5f8bfcee9502a30018d91c63eca66980e6e9bb"
            }
        ],
        "token_infos": [
            {
                "address": "0xbf5f8bfcee9502a30018d91c63eca66980e6e9bb",
                "decimals": 18
            },
            {
                "address": "0xc02aaa39b223fe8d0a0e5c4f27ead9083c756cc2",
                "decimals": 18
            },
            {
                "address": "0xeeeeeeeeeeeeeeeeeeeeeeeeeeeeeeeeeeeeeeee",
                "decimals": 18
            }
        ]
    },
    "address_label": {
        "labels": [
            {
                "address": "0x0000000000000000000000000000000000000004",
                "label": "Precompiled"
            },
            {
                "address": "0xeeeeeeeeeeeeeeeeeeeeeeeeeeeeeeeeeeeeeeee",
                "label": "Ether"
            },
            {
                "address": "0xbf5f8bfcee9502a30018d91c63eca66980e6e9bb",
                "label": "IDAX Token (IT)"
            },
            {
                "address": "0x0000000000000000000000000000000000000001",
                "label": "Precompiled"
            },
            {
                "address": "0x0000000000000000000000000000000000000002",
                "label": "Precompiled"
            },
            {
                "address": "0x0000000000000000000000000000000000000003",
                "label": "Precompiled"
            }
        ]
    },
    "trace": {
        "accountLabels": null,
        "dataMap": {
            "-1": {
                "invocation": {
                    "address": "0xbd6d79f3f02584cfcb754437ac6776c4c6e0a0ec",
                    "callData": "",
                    "decodedMethod": null,
                    "errorInfo": "",
                    "fromAddress": "",
                    "gasUsed": 0,
                    "id": -1,
                    "methodDecoded": false,
                    "operation": "",
                    "output": "",
                    "revert": false,
                    "revertMessage": "",
                    "selector": "",
                    "status": false,
                    "value": ""
                },
                "nodeType": 0
            },
            "0": {
                "invocation": {
                    "address": "0xbf5f8bfcee9502a30018d91c63eca66980e6e9bb",
                    "callData": "0x0000000000000000000000000f00bf1d462699665d6edb07aa17b766fdcb089100000000000000000000000000000000000000000000003ccbf06409d0960000",
                    "decodedMethod": {
                        "callParams": [
                            {
                                "name": "_to",
                                "type": "address",
                                "value": "0x0f00bf1d462699665d6edb07aa17b766fdcb0891"
                            },
                            {
                                "decimalAvailable": true,
                                "name": "_value",
                                "type": "uint256",
                                "value": "1,121,500,000,000,000,000,000"
                            }
                        ],
                        "constructorArguments": "",
                        "name": "transfer",
                        "returnParams": [
                            {
                                "name": "success",
                                "type": "bool",
                                "value": true
                            }
                        ],
                        "signature": "transfer(address,uint256)"
                    },
                    "errorInfo": "",
                    "fromAddress": "0xbd6d79f3f02584cfcb754437ac6776c4c6e0a0ec",
                    "gasUsed": 52509,
                    "id": 0,
                    "methodDecoded": true,
                    "operation": "CALL",
                    "output": "0x0000000000000000000000000000000000000000000000000000000000000001",
                    "revert": false,
                    "revertMessage": "",
                    "selector": "0xa9059cbb",
                    "status": true,
                    "value": "0"
                },
                "nodeType": 0
            },
            "1": {
                "event": {
                    "contract": "0xbf5f8bfcee9502a30018d91c63eca66980e6e9bb",
                    "decodedLog": {
                        "name": "Transfer",
                        "params": [
                            {
                                "name": "from",
                                "type": "address",
                                "value": "0xbd6d79f3f02584cfcb754437ac6776c4c6e0a0ec"
                            },
                            {
                                "name": "to",
                                "type": "address",
                                "value": "0x0f00bf1d462699665d6edb07aa17b766fdcb0891"
                            },
                            {
                                "decimalAvailable": true,
                                "name": "value",
                                "type": "uint256",
                                "value": "1,121,500,000,000,000,000,000"
                            }
                        ],
                        "signature": "Transfer(address,address,uint256)"
                    },
                    "id": 1,
                    "logData": "0x00000000000000000000000000000000000000000000003ccbf06409d0960000",
                    "logDecoded": true,
                    "operation": "EVENT",
                    "revert": false,
                    "status": true,
                    "topics": [
                        "0xddf252ad1be2c89b69c2b068fc378daa952ba7f163c4a11628f55a4df523b3ef",
                        "0x000000000000000000000000bd6d79f3f02584cfcb754437ac6776c4c6e0a0ec",
                        "0x0000000000000000000000000f00bf1d462699665d6edb07aa17b766fdcb0891"
                    ]
                },
                "nodeType": 1
            }
        },
        "gasFlame": [
            {
                "children": [
                    {
                        "children": [
                            {
                                "children": [],
                                "depth": 0,
                                "name": "Initial Gas",
                                "value": 23192
                            },
                            {
                                "children": [],
                                "depth": 0,
                                "name": "Executed Gas",
                                "value": 29317
                            }
                        ],
                        "depth": -1,
                        "name": "Actual Gas Used",
                        "value": 52509
                    },
                    {
                        "children": [],
                        "depth": -1,
                        "name": "Refunded Gas",
                        "value": 0
                    }
                ],
                "depth": -2,
                "name": "Total Gas",
                "value": 52509
            }
        ],
        "isConfirmed": true,
        "mainTrace": [
            {
                "children": [
                    {
                        "children": [
                            {
                                "children": [],
                                "depth": 1,
                                "id": 1,
                                "order": 1
                            }
                        ],
                        "depth": 0,
                        "id": 0,
                        "order": 0
                    }
                ],
                "depth": -1,
                "id": -1,
                "order": -1
            }
        ],
        "mainTraceNodeCount": 2,
        "parentIdMap": {
            "0": -1,
            "1": 0
        },
        "tidyTrace": [
            {
                "children": [
                    {
                        "children": [
                            {
                                "children": [],
                                "depth": 1,
                                "id": 1,
                                "order": 1
                            }
                        ],
                        "depth": 0,
                        "id": 0,
                        "order": 0
                    }
                ],
                "depth": -1,
                "id": -1,
                "order": -1
            }
        ],
        "tidyTraceNodeCount": 2
    },
    "state_change": {
        "stateChanges": [
            {
                "address": "0xbf5f8bfcee9502a30018d91c63eca66980e6e9bb",
                "erc": "ERC-20",
                "slots": [
                    {
                        "current": "0x0000000000000000000000000000000000000000000966a695de41e4e6237800",
                        "key": "0xb907266599dff392296f7197bd1a2dd559536cc9a68d72ca891fb11c6955cb2e",
                        "prev": "0x0000000000000000000000000000000000000000000966e361cea5eeb6b97800"
                    },
                    {
                        "current": "0x00000000000000000000000000000000000000000000003ccbf06409d0960000",
                        "key": "0xc1360ef05c1654ae0510a86f1192bd442274cf90013bbc76ffc04a0bb48e5366",
                        "prev": "0x0000000000000000000000000000000000000000000000000000000000000000"
                    }
                ],
                "storageVariables": [
                    {
                        "name": "balanceOf",
                        "type": "mapping(address => uint256)",
                        "value": {
                            "pairs": [
                                {
                                    "key": "0x0f00bf1d462699665d6edb07aa17b766fdcb0891",
                                    "value": {
                                        "current": "1121500000000000000000",
                                        "prev": "0",
                                        "typeTag": 1
                                    }
                                },
                                {
                                    "key": "0xbd6d79f3f02584cfcb754437ac6776c4c6e0a0ec",
                                    "value": {
                                        "current": "11365086716442010020182016",
                                        "prev": "11366208216442010020182016",
                                        "typeTag": 1
                                    }
                                }
                            ],
                            "typeTag": 4
                        }
                    }
                ]
            }
        ]
    }
}