{
    "balance_change": {
        "balanceChanges": [
            {
                "account": "0x70bc990cf0227633fa2fde56e925b1f5c1d75a60",
                "assets": [
                    {
                        "address": "0x5c76ad4764a4607cd57644faa937a8ca16729e39",
                        "amount": "799.423397260273972312",
                        "iconUrl": "",
                        "isERC1155": false,
                        "isERC721": false,
                        "sign": false,
                        "value": ""
                    },
                    {
                        "address": "0x949d48eca67b17269629c7194f4b727d4ef9e5d6",
                        "amount": "400.26",
                        "iconUrl": "",
                        "isERC1155": false,
                        "isERC721": false,
                        "sign": true,
                        "value": "192.2580901"
                    }
                ]
            },
            {
                "account": "0x5c76ad4764a4607cd57644faa937a8ca16729e39",
                "assets": [
                    {
                        "address": "0x949d48eca67b17269629c7194f4b727d4ef9e5d6",
                        "amount": "400.26",
                        "iconUrl": "",
                        "isERC1155": false,
                        "isERC721": false,
                        "sign": false,
                        "value": "192.2580901"
                    }
                ]
            },
            {
                "account": "0x0000000000000000000000000000000000000000",
                "assets": [
                    {
                        "address": "0x5c76ad4764a4607cd57644faa937a8ca16729e39",
                        "amount": "799.423397260273972312",
                        "iconUrl": "",
                        "isERC1155": false,
                        "isERC721": false,
                        "sign": true,
                        "value": ""
                    }
                ]
            }
        ]
    },
    "profile": {
        "basic_info": {
            "baseFee": "13.246752612",
            "blockNumber": 18502371,
            "callData": "0x00f714ce000000000000000000000000000000000000000000000000000000000000000100000000000000000000000070bc990cf0227633fa2fde56e925b1f5c1d75a60",
            "debugEnable": true,
            "errorInfo": "",
            "eventCount": 3,
            "feeRecipient": "0x1f9090aae28b8a3dceadf281b0f12828e676c326",
            "formatValue": "0",
            "gasLimit": 178720,
            "gasPrice": "13.256752612",
            "gasUsed": 109547,
            "intTxnCount": 1,
            "internalRevert": false,
            "internalRevertMessage": "",
            "isContractCreation": false,
            "isFlashloan": false,
            "maxFee": "16.153517273",
            "nonce": 48,
            "overwritedBlockNumber": -1,
            "priorityFee": "0.01",
            "receiver": "0x5c76ad4764a4607cd57644faa937a8ca16729e39",
            "revertMessage": "",
            "sender": "0x70bc990cf0227633fa2fde56e925b1f5c1d75a60",
            "simulationEnable": true,
            "sourceTxnHash": "0x9617e442fecce9c6e6e6041bf886c9ff7c03cd696be49e503558f39221ca7bea",
            "status": true,
            "timestamp": "2023-11-05T00:54:35Z",
            "transactionFee": "0.001452237478386764",
            "txnHash": "0x9617e442fecce9c6e6e6041bf886c9ff7c03cd696be49e503558f39221ca7bea",
            "txnIndex": 112,
            "type": 2,
            "value": "0"
        },
        "fund_flow": [
            {
                "amount": "799.423397260273972312",
                "from": "0x70bc990cf0227633fa2fde56e925b1f5c1d75a60",
                "id": 1,
                "isERC1155": false,
                "isERC721": false,
                "isReverted": false,
                "order": 1,
                "to": "0x0000000000000000000000000000000000000000",
                "token": "0x5c76ad4764a4607cd57644faa937a8ca16729e39"
            },
            {
                "amount": "400.26",
                "from": "0x5c76ad4764a4607cd57644faa937a8ca16729e39",
                "id": 2,
                "isERC1155": false,
                "isERC721": false,
                "isReverted": false,
                "order": 2,
                "to": "0x70bc990cf0227633fa2fde56e925b1f5c1d75a60",
                "token": "0x949d48eca67b17269629c7194f4b727d4ef9e5d6"
            }
        ],
        "token_infos": [
            {
                "address": "0x5c76ad4764a4607cd57644faa937a8ca16729e39",
                "decimals": 18
            },
            {
                "address": "0x949d48eca67b17269629c7194f4b727d4ef9e5d6",
                "decimals": 18
            },
            {
                "address": "0xc02aaa39b223fe8d0a0e5c4f27ead9083c756cc2",
                "decimals": 18
            },
            {
                "address": "0xeeeeeeeeeeeeeeeeeeeeeeeeeeeeeeeeeeeeeeee",
                "decimals": 18
            }
        ]
    },
    "address_label": {
        "labels": [
            {
                "address": "0x5c76ad4764a4607cd57644faa937a8ca16729e39",
                "label": "Merit Circle: mcLPPool V1"
            },
            {
                "address": "0x0000000000000000000000000000000000000001",
                "label": "Precompiled"
            },
            {
                "address": "0x0000000000000000000000000000000000000002",
                "label": "Precompiled"
            },
            {
                "address": "0x0000000000000000000000000000000000000003",
                "label": "Precompiled"
            },
            {
                "address": "0x0000000000000000000000000000000000000004",
                "label": "Precompiled"
            },
            {
                "address": "0xeeeeeeeeeeeeeeeeeeeeeeeeeeeeeeeeeeeeeeee",
                "label": "Ether"
            },
            {
                "address": "0x949d48eca67b17269629c7194f4b727d4ef9e5d6",
                "label": "Merit Circle: Old MC Token"
            }
        ]
    },
    "trace": {
        "accountLabels": null,
        "dataMap": {
            "-1": {
                "invocation": {
                    "address": "0x70bc990cf0227633fa2fde56e925b1f5c1d75a60",
                    "callData": "",
                    "decodedMethod": null,
                    "errorInfo": "",
                    "fromAddress": "",
                    "gasUsed": 0,
                    "id": -1,
                    "methodDecoded": false,
                    "operation": "",
                    "output": "",
                    "revert": false,
                    "revertMessage": "",
                    "selector": "",
                    "status": false,
                    "value": ""
                },
                "nodeType": 0
            },
            "0": {
                "invocation": {
                    "address": "0x5c76ad4764a4607cd57644faa937a8ca16729e39",
                    "callData": "0x000000000000000000000000000000000000000000000000000000000000000100000000000000000000000070bc990cf0227633fa2fde56e925b1f5c1d75a60",
                    "decodedMethod": {
                        "callParams": [
                            {
                                "name": "_depositId",
                                "type": "uint256",
                                "value": "1"
                            },
                            {
                                "name": "_receiver",
                                "type": "address",
                                "value": "0x70bc990cf0227633fa2fde56e925b1f5c1d75a60"
                            }
                        ],
                        "constructorArguments": "",
                        "name": "withdraw",
                        "returnParams": [],
                        "signature": "withdraw(uint256,address)"
                    },
                    "errorInfo": "",
                    "fromAddress": "0x70bc990cf0227633fa2fde56e925b1f5c1d75a60",
                    "gasUsed": 109547,
                    "id": 0,
                    "methodDecoded": true,
                    "operation": "CALL",
                    "output": "",
                    "revert": false,
                    "revertMessage": "",
                    "selector": "0x00f714ce",
                    "status": true,
                    "value": "0"
                },
                "nodeType": 0
            },
            "1": {
                "event": {
                    "contract": "0x5c76ad4764a4607cd57644faa937a8ca16729e39",
                    "decodedLog": {
                        "name": "Transfer",
                        "params": [
                            {
                                "name": "from",
                                "type": "address",
                                "value": "0x70bc990cf0227633fa2fde56e925b1f5c1d75a60"
                            },
                            {
                                "name": "to",
                                "type": "address",
                                "value": "0x0000000000000000000000000000000000000000"
                            },
                            {
                                "decimalAvailable": true,
                                "name": "value",
                                "type": "uint256",
                                "value": "799,423,397,260,273,972,312"
                            }
                        ],
                        "signature": "Transfer(address,address,uint256)"
                    },
                    "id": 1,
                    "logData": "0x00000000000000000000000000000000000000000000002b563a7048129cf458",
                    "logDecoded": true,
                    "operation": "EVENT",
                    "revert": false,
                    "status": true,
                    "topics": [
                        "0xddf252ad1be2c89b69c2b068fc378daa952ba7f163c4a11628f55a4df523b3ef",
                        "0x00000000000000000000000070bc990cf0227633fa2fde56e925b1f5c1d75a60",
                        "0x0000000000000000000000000000000000000000000000000000000000000000"
                    ]
                },
                "nodeType": 1
            },
            "2": {
                "invocation": {
                    "address": "0x949d48eca67b17269629c7194f4b727d4ef9e5d6",
                    "callData": "0x00000000000000000000000070bc990cf0227633fa2fde56e925b1f5c1d75a60000000000000000000000000000000000000000000000015b2b92d54e5da0000",
                    "decodedMethod": {
                        "callParams": [
                            {
                                "name": "recipient",
                                "type": "address",
                                "value": "0x70bc990cf0227633fa2fde56e925b1f5c1d75a60"
                            },
                            {
                                "decimalAvailable": true,
                                "name": "amount",
                                "type": "uint256",
                                "value": "400,260,000,000,000,000,000"
                            }
                        ],
                        "constructorArguments": "",
                        "name": "transfer",
                        "returnParams": [
                            {
                                "name": "",
                                "type": "bool",
                                "value": true
                            }
                        ],
                        "signature": "transfer(address,uint256)"
                    },
                    "errorInfo": "",
                    "fromAddress": "0x5c76ad4764a4607cd57644faa937a8ca16729e39",
                    "gasUsed": 17428,
                    "id": 2,
                    "methodDecoded": true,
                    "operation": "CALL",
                    "output": "0x0000000000000000000000000000000000000000000000000000000000000001",
                    "revert": false,
                    "revertMessage": "",
                    "selector": "0xa9059cbb",
                    "status": true,
                    "value": "0"
                },
                "nodeType": 0
            },
            "3": {
                "event": {
                    "contract": "0x949d48eca67b17269629c7194f4b727d4ef9e5d6",
                    "decodedLog": {
                        "name": "Transfer",
                        "params": [
                            {
                                "name": "from",
                                "type": "address",
                                "value": "0x5c76ad4764a4607cd57644faa937a8ca16729e39"
                            },
                            {
                                "name": "to",
                                "type": "address",
                                "value": "0x70bc990cf0227633fa2fde56e925b1f5c1d75a60"
                            },
                            {
                                "decimalAvailable": true,
                                "name": "value",
                                "type": "uint256",
                                "value": "400,260,000,000,000,000,000"
                            }
                        ],
                        "signature": "Transfer(address,address,uint256)"
                    },
                    "id": 3,
                    "logData": "0x000000000000000000000000000000000000000000000015b2b92d54e5da0000",
                    "logDecoded": true,
                    "operation": "EVENT",
                    "revert": false,
                    "status": true,
                    "topics": [
                        "0xddf252ad1be2c89b69c2b068fc378daa952ba7f163c4a11628f55a4df523b3ef",
                        "0x0000000000000000000000005c76ad4764a4607cd57644faa937a8ca16729e39",
                        "0x00000000000000000000000070bc990cf0227633fa2fde56e925b1f5c1d75a60"
                    ]
                },
                "nodeType": 1
            },
            "4": {
                "event": {
                    "contract": "0x5c76ad4764a4607cd57644faa937a8ca16729e39",
                    "decodedLog": {
                        "name": "Withdrawn",
                        "params": [
                            {
                                "name": "depositId",
                                "type": "uint256",
                                "value": "1"
                            },
                            {
                                "name": "receiver",
                                "type": "address",
                                "value": "0x70bc990cf0227633fa2fde56e925b1f5c1d75a60"
                            },
                            {
                                "name": "from",
                                "type": "address",
                                "value": "0x70bc990cf0227633fa2fde56e925b1f5c1d75a60"
                            },
                            {
                                "name": "amount",
                                "type": "uint256",
                                "value": "400,260,000,000,000,000,000"
                            }
                        ],
                        "signature": "Withdrawn(uint256,address,address,uint256)"
                    },
                    "id": 4,
                    "logData": "0x000000000000000000000000000000000000000000000015b2b92d54e5da0000",
                    "logDecoded": true,
                    "operation": "EVENT",
                    "revert": false,
                    "status": true,
                    "topics": [
                        "0xe5df19de43c8c04fd192bc68e484b2593570925fbb6ad8c07ccafbc2aa5c37a1",
                        "0x0000000000000000000000000000000000000000000000000000000000000001",
                        "0x00000000000000000000000070bc990cf0227633fa2fde56e925b1f5c1d75a60",
                        "0x00000000000000000000000070bc990cf0227633fa2fde56e925b1f5c1d75a60"
                    ]
                },
                "nodeType": 1
            }
        },
        "gasFlame": [
            {
                "children": [
                    {
                        "children": [
                            {
                                "children": [],
                                "depth": 0,
                                "name": "Initial Gas",
                                "value": 21560
                            },
                            {
                                "children": [
                                    {
                                        "children": [],
                                        "depth": 1,
                                        "name": "transfer",
                                        "value": 17428
                                    }
                                ],
                                "depth": 0,
                                "name": "Executed Gas",
                                "value": 97587
                            }
                        ],
                        "depth": -1,
                        "name": "Actual Gas Used",
                        "value": 109547
                    },
                    {
                        "children": [],
                        "depth": -1,
                        "name": "Refunded Gas",
                        "value": 9600
                    }
                ],
                "depth": -2,
                "name": "Total Gas",
                "value": 119147
            }
        ],
        "isConfirmed": true,
        "mainTrace": [
            {
                "children": [
                    {
                        "children": [
                            {
                                "children": [],
                                "depth": 1,
                                "id": 1,
                                "order": 1
                            },
                            {
                                "children": [
                                    {
                                        "children": [],
                                        "depth": 2,
                                        "id": 3,
                                        "order": 3
                                    }
                                ],
                                "depth": 1,
                                "id": 2,
                                "order": 2
                            },
                            {
                                "children": [],
                                "depth": 1,
                                "id": 4,
                                "order": 4
                            }
                        ],
                        "depth": 0,
                        "id": 0,
                        "order": 0
                    }
                ],
                "depth": -1,
                "id": -1,
                "order": -1
            }
        ],
        "mainTraceNodeCount": 5,
        "parentIdMap": {
            "0": -1,
            "1": 0,
            "2": 0,
            "3": 2,
            "4": 0
        },
        "tidyTrace": [
            {
                "children": [
                    {
                        "children": [
                            {
                                "children": [],
                                "depth": 1,
                                "id": 1,
                                "order": 1
                            },
                            {
                                "children": [
                                    {
                                        "children": [],
                                        "depth": 2,
                                        "id": 3,
                                        "order": 3
                                    }
                                ],
                                "depth": 1,
                                "id": 2,
                                "order": 2
                            },
                            {
                                "children": [],
                                "depth": 1,
                                "id": 4,
                                "order": 4
                            }
                        ],
                        "depth": 0,
                        "id": 0,
                        "order": 0
                    }
                ],
                "depth": -1,
                "id": -1,
                "order": -1
            }
        ],
        "tidyTraceNodeCount": 5
    },
    "state_change": {
        "stateChanges": [
            {
                "address": "0x5c76ad4764a4607cd57644faa937a8ca16729e39",
                "erc": "ERC-20",
                "slots": [
                    {
                        "current": "0xfffffffffffffff6bf85162ea9c015b796906ddd0cfd6423bae3dc112bca326e",
                        "key": "0xd15cf459f3c03ecdfb232cd14dcd2c94b1dfec3ef1630b90666209dd47a87ad3",
                        "prev": "0xffffffffffffffe020f1c63b287f9197f11c78f4870ef68a9e2bf01f89267696"
                    },
                    {
                        "current": "0x0000000000000000000000000000000000000000000000000000000000000000",
                        "key": "0x95d3a411293d8428f483e091d517c1e8cdc27d51d5c815b9f4dd4a08d13c9f2d",
                        "prev": "0x000000000000000000000000000000000000000000000015b2b92d54e5da0000"
                    },
                    {
                        "current": "0x0000000000000000000000000000000000000000000000000000000000000000",
                        "key": "0x95d3a411293d8428f483e091d517c1e8cdc27d51d5c815b9f4dd4a08d13c9f2e",
                        "prev": "0x00000000000000000000000000000000000000006517eadf00000000633808df"
                    },
                    {
                        "current": "0x0000000000000000000000000000000000000000000000000000000000000001",
                        "key": "0x2951d8866c9285061cfd5ad7f0e2727f795888fd875e4cbe996bba1df711f719",
                        "prev": "0x0000000000000000000000000000000000000000000000000000000000000002"
                    },
                    {
                        "current": "0x000000000000000000000000000000000000000000000016724f188ac7708be7",
                        "key": "0x080d9ebf0aae01f839ec4a4ffe5aecf57926811de3463e33f5066939c703be34",
                        "prev": "0x000000000000000000000000000000000000000000000041c88988d2da0d803f"
                    },
                    {
                        "current": "0x000000000000000000000000000000000000000000085ac72692f914bc936b94",
                        "key": "0x0000000000000000000000000000000000000000000000000000000000000002",
                        "prev": "0x000000000000000000000000000000000000000000085af27ccd695ccf305fec"
                    },
                    {
                        "current": "0x0000000000000000000000000000000000000000000000000000000000004607",
                        "key": "0x0000000000000000000000000000000000000000000000000000000000000008",
                        "prev": "0x0000000000000000000000000000000000000000000000000000000000004606"
                    },
                    {
                        "current": "0x0000000000000000000000000000000000085ac72692f914bc936b94011a52e3",
                        "key": "0xf3f7a9fe364faab93b216da50a3214154f22a0a2b415b23a84c8169e8b63b4e9",
                        "prev": "0x0000000000000000000000000000000000000000000000000000000000000000"
                    }
                ],
                "storageVariables": [
                    {
                        "name": "pointsCorrection",
                        "type": "mapping(address => int256)",
                        "value": {
                            "pairs": [
                                {
                                    "key": "0x70bc990cf0227633fa2fde56e925b1f5c1d75a60",
                                    "value": {
                                        "current": "-58074963812421803746035753805772700360540677311341362793874",
                                        "prev": "-200059460434311362756548618915289110735431460175078124783978",
                                        "typeTag": 1
                                    }
                                }
                            ],
                            "typeTag": 4
                        }
                    },
                    {
                        "name": "_balances",
                        "type": "mapping(address => uint256)",
                        "value": {
                            "pairs": [
                                {
                                    "key": "0x70bc990cf0227633fa2fde56e925b1f5c1d75a60",
                                    "value": {
                                        "current": "414065198849424657383",
                                        "prev": "1213488596109698629695",
                                        "typeTag": 1
                                    }
                                }
                            ],
                            "typeTag": 4
                        }
                    },
                    {
                        "name": "_totalSupply",
                        "type": "uint256",
                        "value": {
                            "current": "10100093222003757167111060",
                            "prev": "10100892645401017441083372",
                            "typeTag": 1
                        }
                    },
                    {
                        "name": "_totalSupplyCheckpoints",
                        "type": "struct ERC20Votes.Checkpoint[]",
                        "value": {
                            "elemType": "struct ERC20Votes.Checkpoint",
                            "elems": [
                                {
                                    "index": 17926,
                                    "value": {
                                        "fields": [
                                            {
                                                "name": "fromBlock",
                                                "type": "uint32",
                                                "value": {
                                                    "current": "18502371",
                                                    "prev": "0",
                                                    "typeTag": 1
                                                }
                                            },
                                            {
                                                "name": "votes",
                                                "type": "uint224",
                                                "value": {
                                                    "current": "10100093222003757167111060",
                                                    "prev": "0",
                                                    "typeTag": 1
                                                }
                                            }
                                        ],
                                        "typeTag": 3
                                    }
                                }
                            ],
                            "typeTag": 2
                        }
                    }
                ]
            },
            {
                "address": "0x949d48eca67b17269629c7194f4b727d4ef9e5d6",
                "erc": "ERC-20",
                "slots": [
                    {
                        "current": "0x000000000000000000000000000000000000000000065dd21507ee02dbf03dfc",
                        "key": "0xcc7cee66817d53a5219507ad41113c669071ef63703f48473bcbc9a9043d809e",
                        "prev": "0x000000000000000000000000000000000000000000065de7c7c11b57c1ca3dfc"
                    },
                    {
                        "current": "0x0000000000000000000000000000000000000000000000583350da2ad760629a",
                        "key": "0x51f17faf0658115ffa0e4679bfce9806045d5819b846841970bc4916f8646511",
                        "prev": "0x0000000000000000000000000000000000000000000000428097acd5f186629a"
                    }
                ],
                "storageVariables": [
                    {
                        "name": "_balances",
                        "type": "mapping(address => uint256)",
                        "value": {
                            "pairs": [
                                {
                                    "key": "0x5c76ad4764a4607cd57644faa937a8ca16729e39",
                                    "value": {
                                        "current": "7696610332291626739711484",
                                        "prev": "7697010592291626739711484",
                                        "typeTag": 1
                                    }
                                },
                                {
                                    "key": "0x70bc990cf0227633fa2fde56e925b1f5c1d75a60",
                                    "value": {
                                        "current": "1627011173658048619162",
                                        "prev": "1226751173658048619162",
                                        "typeTag": 1
                                    }
                                }
                            ],
                            "typeTag": 4
                        }
                    }
                ]
            }
        ]
    }
}