{
    "balance_change": {
        "balanceChanges": [
            {
                "account": "0xf4c8a66cf1e0ec21f551721a54b37121016b469c",
                "assets": [
                    {
                        "address": "0xeeeeeeeeeeeeeeeeeeeeeeeeeeeeeeeeeeeeeeee",
                        "amount": "0.2",
                        "iconUrl": "https://assets.blocksec.com/image/1663669189317-3.png",
                        "isERC1155": false,
                        "isERC721": false,
                        "sign": false,
                        "value": "447.9199999999999818"
                    }
                ]
            },
            {
                "account": "0xe87753eb91d6a61ea342bb9044a97764366cc7b2",
                "assets": [
                    {
                        "address": "0xeeeeeeeeeeeeeeeeeeeeeeeeeeeeeeeeeeeeeeee",
                        "amount": "0.2",
                        "iconUrl": "https://assets.blocksec.com/image/1663669189317-3.png",
                        "isERC1155": false,
                        "isERC721": false,
                        "sign": true,
                        "value": "447.9199999999999818"
                    }
                ]
            }
        ]
    },
    "profile": {
        "basic_info": {
            "baseFee": "29.847821543",
            "blockNumber": 18956468,
            "callData": "0x8f1e3767000000000000000000000000f4c8a66cf1e0ec21f551721a54b37121016b469c00000000000000000000000000000000000000000000000000000000000000029ee58fc3ef21e0b3bbb8e5482426f0a670f6f8e1db34e97f8d9da95c0cf3247900000000000000000000000000000000000000000000000000000000000000800000000000000000000000000000000000000000000000000000000000000041b9cf428e518c8c7a3f2d9aee8585407016630585636831423695a5f7b4b3a4765e5733a30d45d7f632f572d71751813b8f4b92072c4e6f6189eee552ff50ef071c00000000000000000000000000000000000000000000000000000000000000",
            "debugEnable": true,
            "errorInfo": "",
            "eventCount": 1,
            "feeRecipient": "0x388c818ca8b9251b393131c08a736a67ccb19297",
            "formatValue": "0.2",
            "gasLimit": 148545,
            "gasPrice": "29.947821543",
            "gasUsed": 93028,
            "intTxnCount": 2,
            "internalRevert": false,
            "internalRevertMessage": "",
            "isContractCreation": false,
            "isFlashloan": false,
            "maxFee": "42.20427506",
            "nonce": 0,
            "overwritedBlockNumber": -1,
            "priorityFee": "0.1",
            "receiver": "0xe87753eb91d6a61ea342bb9044a97764366cc7b2",
            "revertMessage": "",
            "sender": "0xf4c8a66cf1e0ec21f551721a54b37121016b469c",
            "simulationEnable": true,
            "sourceTxnHash": "0x96424d58303ef029d913d7ef23eebe4d83701f20bb0e398f27612a6f64732a55",
            "status": true,
            "timestamp": "2024-01-07T16:44:59Z",
            "transactionFee": "0.002785985942502204",
            "txnHash": "0x96424d58303ef029d913d7ef23eebe4d83701f20bb0e398f27612a6f64732a55",
            "txnIndex": 41,
            "type": 2,
            "value": "200000000000000000"
        },
        "fund_flow": [
            {
                "amount": "0.2",
                "from": "0xf4c8a66cf1e0ec21f551721a54b37121016b469c",
                "id": 1,
                "isERC1155": false,
                "isERC721": false,
                "isReverted": false,
                "order": 1,
                "to": "0xe87753eb91d6a61ea342bb9044a97764366cc7b2",
                "token": "0xeeeeeeeeeeeeeeeeeeeeeeeeeeeeeeeeeeeeeeee"
            }
        ],
        "token_infos": [
            {
                "address": "0xc02aaa39b223fe8d0a0e5c4f27ead9083c756cc2",
                "decimals": 18
            },
            {
                "address": "0xeeeeeeeeeeeeeeeeeeeeeeeeeeeeeeeeeeeeeeee",
                "decimals": 18
            }
        ]
    },
    "address_label": {
        "labels": [
            {
                "address": "0xeeeeeeeeeeeeeeeeeeeeeeeeeeeeeeeeeeeeeeee",
                "label": "Ether"
            },
            {
                "address": "0x289656792b971ee0e81d467316f0849d8f74ba44",
                "label": "TinfunReserve"
            },
            {
                "address": "0xe87753eb91d6a61ea342bb9044a97764366cc7b2",
                "label": "TransparentUpgradeableProxy"
            },
            {
                "address": "0x388c818ca8b9251b393131c08a736a67ccb19297",
                "label": "LidoExecutionLayerRewardsVault"
            },
            {
                "address": "0x0000000000000000000000000000000000000001",
                "label": "Precompiled"
            },
            {
                "address": "0x0000000000000000000000000000000000000002",
                "label": "Precompiled"
            },
            {
                "address": "0x0000000000000000000000000000000000000003",
                "label": "Precompiled"
            },
            {
                "address": "0x0000000000000000000000000000000000000004",
                "label": "Precompiled"
            }
        ]
    },
    "trace": {
        "accountLabels": null,
        "dataMap": {
            "-1": {
                "invocation": {
                    "address": "0xf4c8a66cf1e0ec21f551721a54b37121016b469c",
                    "callData": "",
                    "decodedMethod": null,
                    "errorInfo": "",
                    "fromAddress": "",
                    "gasUsed": 0,
                    "id": -1,
                    "methodDecoded": false,
                    "operation": "",
                    "output": "",
                    "revert": false,
                    "revertMessage": "",
                    "selector": "",
                    "status": false,
                    "value": ""
                },
                "nodeType": 0
            },
            "0": {
                "invocation": {
                    "address": "0xe87753eb91d6a61ea342bb9044a97764366cc7b2",
                    "callData": "0x000000000000000000000000f4c8a66cf1e0ec21f551721a54b37121016b469c00000000000000000000000000000000000000000000000000000000000000029ee58fc3ef21e0b3bbb8e5482426f0a670f6f8e1db34e97f8d9da95c0cf3247900000000000000000000000000000000000000000000000000000000000000800000000000000000000000000000000000000000000000000000000000000041b9cf428e518c8c7a3f2d9aee8585407016630585636831423695a5f7b4b3a4765e5733a30d45d7f632f572d71751813b8f4b92072c4e6f6189eee552ff50ef071c00000000000000000000000000000000000000000000000000000000000000",
                    "decodedMethod": {
                        "callParams": [
                            {
                                "name": "_guest",
                                "type": "address",
                                "value": "0xf4c8a66cf1e0ec21f551721a54b37121016b469c"
                            },
                            {
                                "name": "_amount",
                                "type": "uint256",
                                "value": "2"
                            },
                            {
                                "name": "_nonce",
                                "type": "bytes32",
                                "value": "0x9ee58fc3ef21e0b3bbb8e5482426f0a670f6f8e1db34e97f8d9da95c0cf32479"
                            },
                            {
                                "name": "_signature",
                                "type": "bytes",
                                "value": "0xb9cf428e518c8c7a3f2d9aee8585407016630585636831423695a5f7b4b3a4765e5733a30d45d7f632f572d71751813b8f4b92072c4e6f6189eee552ff50ef071c"
                            }
                        ],
                        "constructorArguments": "",
                        "name": "publicReserve",
                        "returnParams": [],
                        "signature": "publicReserve(address,uint256,bytes32,bytes)"
                    },
                    "errorInfo": "",
                    "fromAddress": "0xf4c8a66cf1e0ec21f551721a54b37121016b469c",
                    "gasUsed": 93028,
                    "id": 0,
                    "methodDecoded": true,
                    "operation": "CALL",
                    "output": "",
                    "revert": false,
                    "revertMessage": "",
                    "selector": "0x8f1e3767",
                    "status": true,
                    "value": "0.2"
                },
                "nodeType": 0
            },
            "1": {
                "invocation": {
                    "address": "0x289656792b971ee0e81d467316f0849d8f74ba44",
                    "callData": "0x000000000000000000000000f4c8a66cf1e0ec21f551721a54b37121016b469c00000000000000000000000000000000000000000000000000000000000000029ee58fc3ef21e0b3bbb8e5482426f0a670f6f8e1db34e97f8d9da95c0cf3247900000000000000000000000000000000000000000000000000000000000000800000000000000000000000000000000000000000000000000000000000000041b9cf428e518c8c7a3f2d9aee8585407016630585636831423695a5f7b4b3a4765e5733a30d45d7f632f572d71751813b8f4b92072c4e6f6189eee552ff50ef071c00000000000000000000000000000000000000000000000000000000000000",
                    "decodedMethod": {
                        "callParams": [
                            {
                                "name": "_guest",
                                "type": "address",
                                "value": "0xf4c8a66cf1e0ec21f551721a54b37121016b469c"
                            },
                            {
                                "name": "_amount",
                                "type": "uint256",
                                "value": "2"
                            },
                            {
                                "name": "_nonce",
                                "type": "bytes32",
                                "value": "0x9ee58fc3ef21e0b3bbb8e5482426f0a670f6f8e1db34e97f8d9da95c0cf32479"
                            },
                            {
                                "name": "_signature",
                                "type": "bytes",
                                "value": "0xb9cf428e518c8c7a3f2d9aee8585407016630585636831423695a5f7b4b3a4765e5733a30d45d7f632f572d71751813b8f4b92072c4e6f6189eee552ff50ef071c"
                            }
                        ],
                        "constructorArguments": "",
                        "name": "publicReserve",
                        "returnParams": [],
                        "signature": "publicReserve(address,uint256,bytes32,bytes)"
                    },
                    "errorInfo": "",
                    "fromAddress": "0xe87753eb91d6a61ea342bb9044a97764366cc7b2",
                    "gasUsed": 65104,
                    "id": 1,
                    "methodDecoded": true,
                    "operation": "DELEGATECALL",
                    "output": "",
                    "revert": false,
                    "revertMessage": "",
                    "selector": "0x8f1e3767",
                    "status": true,
                    "value": "0.2"
                },
                "nodeType": 0
            },
            "2": {
                "invocation": {
                    "address": "0x0000000000000000000000000000000000000001",
                    "callData": "0x76fb7de4a674dc8314e4e8cb2b5e5709d5e7cb70a2db1c87896905e1000000000000000000000000000000000000000000000000000000000000001cb9cf428e518c8c7a3f2d9aee8585407016630585636831423695a5f7b4b3a4765e5733a30d45d7f632f572d71751813b8f4b92072c4e6f6189eee552ff50ef07",
                    "decodedMethod": {
                        "callParams": [
                            {
                                "name": "hash",
                                "type": "bytes32",
                                "value": "0x1b69c85b76fb7de4a674dc8314e4e8cb2b5e5709d5e7cb70a2db1c87896905e1"
                            },
                            {
                                "name": "v",
                                "type": "uint256",
                                "value": "28"
                            },
                            {
                                "name": "r",
                                "type": "bytes32",
                                "value": "0xb9cf428e518c8c7a3f2d9aee8585407016630585636831423695a5f7b4b3a476"
                            },
                            {
                                "name": "s",
                                "type": "bytes32",
                                "value": "0x5e5733a30d45d7f632f572d71751813b8f4b92072c4e6f6189eee552ff50ef07"
                            }
                        ],
                        "constructorArguments": "",
                        "name": "ecrecover",
                        "returnParams": [
                            {
                                "name": "",
                                "type": "address",
                                "value": "0x886b461dc88f1a6ba38f1e727f3898d464268b08"
                            }
                        ],
                        "signature": "ecrecover(bytes32,uint256,bytes32,bytes32)"
                    },
                    "errorInfo": "",
                    "fromAddress": "0xe87753eb91d6a61ea342bb9044a97764366cc7b2",
                    "gasUsed": 3000,
                    "id": 2,
                    "methodDecoded": true,
                    "operation": "STATICCALL",
                    "output": "0x000000000000000000000000886b461dc88f1a6ba38f1e727f3898d464268b08",
                    "revert": false,
                    "revertMessage": "",
                    "selector": "0x1b69c85b",
                    "status": true,
                    "value": "0"
                },
                "nodeType": 0
            },
            "3": {
                "event": {
                    "contract": "0xe87753eb91d6a61ea342bb9044a97764366cc7b2",
                    "decodedLog": {
                        "name": "PublicReserved",
                        "params": [
                            {
                                "name": "guest",
                                "type": "address",
                                "value": "0xf4c8a66cf1e0ec21f551721a54b37121016b469c"
                            },
                            {
                                "name": "amount",
                                "type": "uint256",
                                "value": "200,000,000,000,000,000"
                            }
                        ],
                        "signature": "PublicReserved(address,uint256)"
                    },
                    "id": 3,
                    "logData": "0x00000000000000000000000000000000000000000000000002c68af0bb140000",
                    "logDecoded": true,
                    "operation": "EVENT",
                    "revert": false,
                    "status": true,
                    "topics": [
                        "0x692fa538b2bd81fa33eeab6a237e93b6a15b5a541f30f4b60a39d63d0654b5fa",
                        "0x000000000000000000000000f4c8a66cf1e0ec21f551721a54b37121016b469c"
                    ]
                },
                "nodeType": 1
            }
        },
        "gasFlame": [
            {
                "children": [
                    {
                        "children": [
                            {
                                "children": [],
                                "depth": 0,
                                "name": "Initial Gas",
                                "value": 23528
                            },
                            {
                                "children": [
                                    {
                                        "children": [
                                            {
                                                "children": [],
                                                "depth": 2,
                                                "name": "ecrecover",
                                                "value": 3000
                                            }
                                        ],
                                        "depth": 1,
                                        "name": "publicReserve",
                                        "value": 65104
                                    }
                                ],
                                "depth": 0,
                                "name": "Executed Gas",
                                "value": 72300
                            }
                        ],
                        "depth": -1,
                        "name": "Actual Gas Used",
                        "value": 93028
                    },
                    {
                        "children": [],
                        "depth": -1,
                        "name": "Refunded Gas",
                        "value": 2800
                    }
                ],
                "depth": -2,
                "name": "Total Gas",
                "value": 95828
            }
        ],
        "isConfirmed": true,
        "mainTrace": [
            {
                "children": [
                    {
                        "children": [
                            {
                                "children": [
                                    {
                                        "children": [],
                                        "depth": 2,
                                        "id": 2,
                                        "order": 2
                                    },
                                    {
                                        "children": [],
                                        "depth": 2,
                                        "id": 3,
                                        "order": 3
                                    }
                                ],
                                "depth": 1,
                                "id": 1,
                                "order": 1
                            }
                        ],
                        "depth": 0,
                        "id": 0,
                        "order": 0
                    }
                ],
                "depth": -1,
                "id": -1,
                "order": -1
            }
        ],
        "mainTraceNodeCount": 4,
        "parentIdMap": {
            "0": -1,
            "1": 0,
            "2": 1,
            "3": 1
        },
        "tidyTrace": [
            {
                "children": [
                    {
                        "children": [
                            {
                                "children": [
                                    {
                                        "children": [],
                                        "depth": 2,
                                        "id": 3,
                                        "order": 3
                                    }
                                ],
                                "depth": 1,
                                "id": 1,
                                "order": 1
                            }
                        ],
                        "depth": 0,
                        "id": 0,
                        "order": 0
                    }
                ],
                "depth": -1,
                "id": -1,
                "order": -1
            }
        ],
        "tidyTraceNodeCount": 3
    },
    "state_change": {
        "stateChanges": [
            {
                "address": "0xe87753eb91d6a61ea342bb9044a97764366cc7b2",
                "erc": "",
                "slots": [
                    {
                        "current": "0x0000000000000000000000000000000000000000000000000000000000000001",
                        "key": "0x142f2e31f7db2adbbf03183e235ff5d61d295cda178619b663dc4465236fc345",
                        "prev": "0x0000000000000000000000000000000000000000000000000000000000000000"
                    },
                    {
                        "current": "0x00000000000000000000000000000000000000000000000002c68af0bb140000",
                        "key": "0xacca894cf26d3edf6d58c17d15874d841404eeef0468cf360f72cfd73a6f5ab0",
                        "prev": "0x0000000000000000000000000000000000000000000000000000000000000000"
                    }
                ],
                "storageVariables": [
                    {
                        "name": "nonceUsed",
                        "type": "mapping(bytes32 => bool)",
                        "value": {
                            "pairs": [
                                {
                                    "key": "0x9ee58fc3ef21e0b3bbb8e5482426f0a670f6f8e1db34e97f8d9da95c0cf32479",
                                    "value": {
                                        "current": "true",
                                        "prev": "false",
                                        "typeTag": 1
                                    }
                                }
                            ],
                            "typeTag": 4
                        }
                    },
                    {
                        "name": "depositBalances",
                        "type": "mapping(address => uint256)",
                        "value": {
                            "pairs": [
                                {
                                    "key": "0xf4c8a66cf1e0ec21f551721a54b37121016b469c",
                                    "value": {
                                        "current": "200000000000000000",
                                        "prev": "0",
                                        "typeTag": 1
                                    }
                                }
                            ],
                            "typeTag": 4
                        }
                    }
                ]
            }
        ]
    }
}