{
    "balance_change": {
        "balanceChanges": [
            {
                "account": "0x5758aec3419366d0ecd506df062fff8b0e0419f7",
                "assets": [
                    {
                        "address": "0x13f25cd52b21650caa8225c9942337d914c9b030",
                        "amount": "6,061.76",
                        "iconUrl": "",
                        "isERC1155": false,
                        "isERC721": false,
                        "sign": false,
                        "value": ""
                    }
                ]
            },
            {
                "account": "0x99fe5d6383289cdd56e54fc0baf7f67c957a8888",
                "assets": [
                    {
                        "address": "0x13f25cd52b21650caa8225c9942337d914c9b030",
                        "amount": "6,061.76",
                        "iconUrl": "",
                        "isERC1155": false,
                        "isERC721": false,
                        "sign": true,
                        "value": ""
                    }
                ]
            }
        ]
    },
    "profile": {
        "basic_info": {
            "baseFee": "",
            "blockNumber": 5068663,
            "callData": "0xa9059cbb00000000000000000000000099fe5d6383289cdd56e54fc0baf7f67c957a88880000000000000000000000000000000000000000000001489bd1ab6b47e00000",
            "debugEnable": true,
            "errorInfo": "",
            "eventCount": 1,
            "feeRecipient": "0xf3b9d2c81f2b24b0fa0acaaa865b7d9ced5fc2fb",
            "formatValue": "0",
            "gasLimit": 66666,
            "gasPrice": "66",
            "gasUsed": 22948,
            "intTxnCount": 0,
            "internalRevert": false,
            "internalRevertMessage": "",
            "isContractCreation": false,
            "isFlashloan": false,
            "maxFee": "",
            "nonce": 13,
            "overwritedBlockNumber": -1,
            "priorityFee": "",
            "receiver": "0x13f25cd52b21650caa8225c9942337d914c9b030",
            "revertMessage": "",
            "sender": "0x5758aec3419366d0ecd506df062fff8b0e0419f7",
            "simulationEnable": true,
            "sourceTxnHash": "0x97ff293eed65d6051b3e2be934a6b5a2fe79603eed505510681092de58dc627f",
            "status": true,
            "timestamp": "2018-02-11T03:20:18Z",
            "transactionFee": "0.001514568",
            "txnHash": "0x97ff293eed65d6051b3e2be934a6b5a2fe79603eed505510681092de58dc627f",
            "txnIndex": 2,
            "type": 0,
            "value": "0"
        },
        "fund_flow": [
            {
                "amount": "6,061.76",
                "from": "0x5758aec3419366d0ecd506df062fff8b0e0419f7",
                "id": 1,
                "isERC1155": false,
                "isERC721": false,
                "isReverted": false,
                "order": 1,
                "to": "0x99fe5d6383289cdd56e54fc0baf7f67c957a8888",
                "token": "0x13f25cd52b21650caa8225c9942337d914c9b030"
            }
        ],
        "token_infos": [
            {
                "address": "0x13f25cd52b21650caa8225c9942337d914c9b030",
                "decimals": 18
            },
            {
                "address": "0xc02aaa39b223fe8d0a0e5c4f27ead9083c756cc2",
                "decimals": 18
            },
            {
                "address": "0xeeeeeeeeeeeeeeeeeeeeeeeeeeeeeeeeeeeeeeee",
                "decimals": 18
            }
        ]
    },
    "address_label": {
        "labels": [
            {
                "address": "0xeeeeeeeeeeeeeeeeeeeeeeeeeeeeeeeeeeeeeeee",
                "label": "Ether"
            },
            {
                "address": "0x99fe5d6383289cdd56e54fc0baf7f67c957a8888",
                "label": "HTX 42"
            },
            {
                "address": "0x13f25cd52b21650caa8225c9942337d914c9b030",
                "label": "realchain: RCT Token"
            },
            {
                "address": "0x0000000000000000000000000000000000000001",
                "label": "Precompiled"
            },
            {
                "address": "0x0000000000000000000000000000000000000002",
                "label": "Precompiled"
            },
            {
                "address": "0x0000000000000000000000000000000000000003",
                "label": "Precompiled"
            },
            {
                "address": "0x0000000000000000000000000000000000000004",
                "label": "Precompiled"
            }
        ]
    },
    "trace": {
        "accountLabels": null,
        "dataMap": {
            "-1": {
                "invocation": {
                    "address": "0x5758aec3419366d0ecd506df062fff8b0e0419f7",
                    "callData": "",
                    "decodedMethod": null,
                    "errorInfo": "",
                    "fromAddress": "",
                    "gasUsed": 0,
                    "id": -1,
                    "methodDecoded": false,
                    "operation": "",
                    "output": "",
                    "revert": false,
                    "revertMessage": "",
                    "selector": "",
                    "status": false,
                    "value": ""
                },
                "nodeType": 0
            },
            "0": {
                "invocation": {
                    "address": "0x13f25cd52b21650caa8225c9942337d914c9b030",
                    "callData": "0x00000000000000000000000099fe5d6383289cdd56e54fc0baf7f67c957a88880000000000000000000000000000000000000000000001489bd1ab6b47e00000",
                    "decodedMethod": {
                        "callParams": [
                            {
                                "name": "_to",
                                "type": "address",
                                "value": "0x99fe5d6383289cdd56e54fc0baf7f67c957a8888"
                            },
                            {
                                "decimalAvailable": true,
                                "name": "_value",
                                "type": "uint256",
                                "value": "6,061,760,000,000,000,000,000"
                            }
                        ],
                        "constructorArguments": "",
                        "name": "transfer",
                        "returnParams": [],
                        "signature": "transfer(address,uint256)"
                    },
                    "errorInfo": "",
                    "fromAddress": "0x5758aec3419366d0ecd506df062fff8b0e0419f7",
                    "gasUsed": 22948,
                    "id": 0,
                    "methodDecoded": true,
                    "operation": "CALL",
                    "output": "",
                    "revert": false,
                    "revertMessage": "",
                    "selector": "0xa9059cbb",
                    "status": true,
                    "value": "0"
                },
                "nodeType": 0
            },
            "1": {
                "event": {
                    "contract": "0x13f25cd52b21650caa8225c9942337d914c9b030",
                    "decodedLog": {
                        "name": "Transfer",
                        "params": [
                            {
                                "name": "from",
                                "type": "address",
                                "value": "0x5758aec3419366d0ecd506df062fff8b0e0419f7"
                            },
                            {
                                "name": "to",
                                "type": "address",
                                "value": "0x99fe5d6383289cdd56e54fc0baf7f67c957a8888"
                            },
                            {
                                "decimalAvailable": true,
                                "name": "value",
                                "type": "uint256",
                                "value": "6,061,760,000,000,000,000,000"
                            }
                        ],
                        "signature": "Transfer(address,address,uint256)"
                    },
                    "id": 1,
                    "logData": "0x0000000000000000000000000000000000000000000001489bd1ab6b47e00000",
                    "logDecoded": true,
                    "operation": "EVENT",
                    "revert": false,
                    "status": true,
                    "topics": [
                        "0xddf252ad1be2c89b69c2b068fc378daa952ba7f163c4a11628f55a4df523b3ef",
                        "0x0000000000000000000000005758aec3419366d0ecd506df062fff8b0e0419f7",
                        "0x00000000000000000000000099fe5d6383289cdd56e54fc0baf7f67c957a8888"
                    ]
                },
                "nodeType": 1
            }
        },
        "gasFlame": [
            {
                "children": [
                    {
                        "children": [
                            {
                                "children": [],
                                "depth": 0,
                                "name": "Initial Gas",
                                "value": 23320
                            },
                            {
                                "children": [],
                                "depth": 0,
                                "name": "Executed Gas",
                                "value": 14628
                            }
                        ],
                        "depth": -1,
                        "name": "Actual Gas Used",
                        "value": 22948
                    },
                    {
                        "children": [],
                        "depth": -1,
                        "name": "Refunded Gas",
                        "value": 15000
                    }
                ],
                "depth": -2,
                "name": "Total Gas",
                "value": 37948
            }
        ],
        "isConfirmed": true,
        "mainTrace": [
            {
                "children": [
                    {
                        "children": [
                            {
                                "children": [],
                                "depth": 1,
                                "id": 1,
                                "order": 1
                            }
                        ],
                        "depth": 0,
                        "id": 0,
                        "order": 0
                    }
                ],
                "depth": -1,
                "id": -1,
                "order": -1
            }
        ],
        "mainTraceNodeCount": 2,
        "parentIdMap": {
            "0": -1,
            "1": 0
        },
        "tidyTrace": [
            {
                "children": [
                    {
                        "children": [
                            {
                                "children": [],
                                "depth": 1,
                                "id": 1,
                                "order": 1
                            }
                        ],
                        "depth": 0,
                        "id": 0,
                        "order": 0
                    }
                ],
                "depth": -1,
                "id": -1,
                "order": -1
            }
        ],
        "tidyTraceNodeCount": 2
    },
    "state_change": {
        "stateChanges": [
            {
                "address": "0x13f25cd52b21650caa8225c9942337d914c9b030",
                "erc": "",
                "slots": [
                    {
                        "current": "0x0000000000000000000000000000000000000000000000000000000000000000",
                        "key": "0x3521c8aa649e9eb0e58ee0ab4e19568d15fda53b3a50f5239f93783a5c578887",
                        "prev": "0x0000000000000000000000000000000000000000000001489bd1ab6b47e00000"
                    },
                    {
                        "current": "0x0000000000000000000000000000000000000000001db198959f3b4edebfb800",
                        "key": "0x498fc0b1e36e06b8870e6138b8cc51f78aed5887ab820968be2035ff9aea4f53",
                        "prev": "0x0000000000000000000000000000000000000000001db04ff9cd8fe396dfb800"
                    }
                ],
                "storageVariables": [
                    {
                        "name": "balanceOf",
                        "type": "mapping(address => uint256)",
                        "value": {
                            "pairs": [
                                {
                                    "key": "0x5758aec3419366d0ecd506df062fff8b0e0419f7",
                                    "value": {
                                        "current": "0",
                                        "prev": "6061760000000000000000",
                                        "typeTag": 1
                                    }
                                },
                                {
                                    "key": "0x99fe5d6383289cdd56e54fc0baf7f67c957a8888",
                                    "value": {
                                        "current": "35897522322792620000000000",
                                        "prev": "35891460562792620000000000",
                                        "typeTag": 1
                                    }
                                }
                            ],
                            "typeTag": 4
                        }
                    }
                ]
            }
        ]
    }
}