{
    "balance_change": {
        "balanceChanges": [
            {
                "account": "0x453725a197b4fdaf5b58e8453968fdae1e76e874",
                "assets": [
                    {
                        "address": "0x56f527c3f4a24bb2beba449ffd766331da840ffa",
                        "amount": "10",
                        "iconUrl": "",
                        "isERC1155": false,
                        "isERC721": false,
                        "sign": true,
                        "value": ""
                    }
                ]
            },
            {
                "account": "0xcbea55838282d951544f3e16d6e3304e9b147896",
                "assets": [
                    {
                        "address": "0x56f527c3f4a24bb2beba449ffd766331da840ffa",
                        "amount": "10",
                        "iconUrl": "",
                        "isERC1155": false,
                        "isERC721": false,
                        "sign": false,
                        "value": ""
                    }
                ]
            }
        ]
    },
    "profile": {
        "basic_info": {
            "baseFee": "",
            "blockNumber": 6222732,
            "callData": "0x79c65068000000000000000000000000453725a197b4fdaf5b58e8453968fdae1e76e8740000000000000000000000000000000000000000000000008ac7230489e80000",
            "debugEnable": true,
            "errorInfo": "",
            "eventCount": 1,
            "feeRecipient": "0x829bd824b016326a401d083b33d092293333a830",
            "formatValue": "0",
            "gasLimit": 750000,
            "gasPrice": "2.42",
            "gasUsed": 84014,
            "intTxnCount": 0,
            "internalRevert": false,
            "internalRevertMessage": "",
            "isContractCreation": false,
            "isFlashloan": false,
            "maxFee": "",
            "nonce": 167,
            "overwritedBlockNumber": -1,
            "priorityFee": "",
            "receiver": "0x56f527c3f4a24bb2beba449ffd766331da840ffa",
            "revertMessage": "",
            "sender": "0xfff62d15e30f24555511e813dae73f40ce588388",
            "simulationEnable": true,
            "sourceTxnHash": "0x9736f6b8a24a1f86e8bbffcb916bb002e8375ed1da4c9f5ff6717f9eea887ee7",
            "status": true,
            "timestamp": "2018-08-27T11:54:55Z",
            "transactionFee": "0.00020331388",
            "txnHash": "0x9736f6b8a24a1f86e8bbffcb916bb002e8375ed1da4c9f5ff6717f9eea887ee7",
            "txnIndex": 67,
            "type": 0,
            "value": "0"
        },
        "fund_flow": [
            {
                "amount": "10",
                "from": "0xcbea55838282d951544f3e16d6e3304e9b147896",
                "id": 1,
                "isERC1155": false,
                "isERC721": false,
                "isReverted": false,
                "order": 1,
                "to": "0x453725a197b4fdaf5b58e8453968fdae1e76e874",
                "token": "0x56f527c3f4a24bb2beba449ffd766331da840ffa"
            }
        ],
        "token_infos": [
            {
                "address": "0x56f527c3f4a24bb2beba449ffd766331da840ffa",
                "decimals": 18
            },
            {
                "address": "0xc02aaa39b223fe8d0a0e5c4f27ead9083c756cc2",
                "decimals": 18
            },
            {
                "address": "0xeeeeeeeeeeeeeeeeeeeeeeeeeeeeeeeeeeeeeeee",
                "decimals": 18
            }
        ]
    },
    "address_label": {
        "labels": [
            {
                "address": "0x0000000000000000000000000000000000000003",
                "label": "Precompiled"
            },
            {
                "address": "0x0000000000000000000000000000000000000004",
                "label": "Precompiled"
            },
            {
                "address": "0xeeeeeeeeeeeeeeeeeeeeeeeeeeeeeeeeeeeeeeee",
                "label": "Ether"
            },
            {
                "address": "0x56f527c3f4a24bb2beba449ffd766331da840ffa",
                "label": "BTYC Coin (BTYC)"
            },
            {
                "address": "0x0000000000000000000000000000000000000001",
                "label": "Precompiled"
            },
            {
                "address": "0x0000000000000000000000000000000000000002",
                "label": "Precompiled"
            }
        ]
    },
    "trace": {
        "accountLabels": null,
        "dataMap": {
            "-1": {
                "invocation": {
                    "address": "0xfff62d15e30f24555511e813dae73f40ce588388",
                    "callData": "",
                    "decodedMethod": null,
                    "errorInfo": "",
                    "fromAddress": "",
                    "gasUsed": 0,
                    "id": -1,
                    "methodDecoded": false,
                    "operation": "",
                    "output": "",
                    "revert": false,
                    "revertMessage": "",
                    "selector": "",
                    "status": false,
                    "value": ""
                },
                "nodeType": 0
            },
            "0": {
                "invocation": {
                    "address": "0x56f527c3f4a24bb2beba449ffd766331da840ffa",
                    "callData": "0x000000000000000000000000453725a197b4fdaf5b58e8453968fdae1e76e8740000000000000000000000000000000000000000000000008ac7230489e80000",
                    "decodedMethod": {
                        "callParams": [
                            {
                                "name": "target",
                                "type": "address",
                                "value": "0x453725a197b4fdaf5b58e8453968fdae1e76e874"
                            },
                            {
                                "name": "mintedAmount",
                                "type": "uint256",
                                "value": "10,000,000,000,000,000,000"
                            }
                        ],
                        "constructorArguments": "",
                        "name": "mintToken",
                        "returnParams": [],
                        "signature": "mintToken(address,uint256)"
                    },
                    "errorInfo": "",
                    "fromAddress": "0xfff62d15e30f24555511e813dae73f40ce588388",
                    "gasUsed": 84014,
                    "id": 0,
                    "methodDecoded": true,
                    "operation": "CALL",
                    "output": "",
                    "revert": false,
                    "revertMessage": "",
                    "selector": "0x79c65068",
                    "status": true,
                    "value": "0"
                },
                "nodeType": 0
            },
            "1": {
                "event": {
                    "contract": "0x56f527c3f4a24bb2beba449ffd766331da840ffa",
                    "decodedLog": {
                        "name": "Transfer",
                        "params": [
                            {
                                "name": "from",
                                "type": "address",
                                "value": "0xcbea55838282d951544f3e16d6e3304e9b147896"
                            },
                            {
                                "name": "to",
                                "type": "address",
                                "value": "0x453725a197b4fdaf5b58e8453968fdae1e76e874"
                            },
                            {
                                "decimalAvailable": true,
                                "name": "tokens",
                                "type": "uint256",
                                "value": "10,000,000,000,000,000,000"
                            }
                        ],
                        "signature": "Transfer(address,address,uint256)"
                    },
                    "id": 1,
                    "logData": "0x0000000000000000000000000000000000000000000000008ac7230489e80000",
                    "logDecoded": true,
                    "operation": "EVENT",
                    "revert": false,
                    "status": true,
                    "topics": [
                        "0xddf252ad1be2c89b69c2b068fc378daa952ba7f163c4a11628f55a4df523b3ef",
                        "0x000000000000000000000000cbea55838282d951544f3e16d6e3304e9b147896",
                        "0x000000000000000000000000453725a197b4fdaf5b58e8453968fdae1e76e874"
                    ]
                },
                "nodeType": 1
            }
        },
        "gasFlame": [
            {
                "children": [
                    {
                        "children": [
                            {
                                "children": [],
                                "depth": 0,
                                "name": "Initial Gas",
                                "value": 23192
                            },
                            {
                                "children": [],
                                "depth": 0,
                                "name": "Executed Gas",
                                "value": 60822
                            }
                        ],
                        "depth": -1,
                        "name": "Actual Gas Used",
                        "value": 84014
                    },
                    {
                        "children": [],
                        "depth": -1,
                        "name": "Refunded Gas",
                        "value": 0
                    }
                ],
                "depth": -2,
                "name": "Total Gas",
                "value": 84014
            }
        ],
        "isConfirmed": true,
        "mainTrace": [
            {
                "children": [
                    {
                        "children": [
                            {
                                "children": [],
                                "depth": 1,
                                "id": 1,
                                "order": 1
                            }
                        ],
                        "depth": 0,
                        "id": 0,
                        "order": 0
                    }
                ],
                "depth": -1,
                "id": -1,
                "order": -1
            }
        ],
        "mainTraceNodeCount": 2,
        "parentIdMap": {
            "0": -1,
            "1": 0
        },
        "tidyTrace": [
            {
                "children": [
                    {
                        "children": [
                            {
                                "children": [],
                                "depth": 1,
                                "id": 1,
                                "order": 1
                            }
                        ],
                        "depth": 0,
                        "id": 0,
                        "order": 0
                    }
                ],
                "depth": -1,
                "id": -1,
                "order": -1
            }
        ],
        "tidyTraceNodeCount": 2
    },
    "state_change": {
        "stateChanges": [
            {
                "address": "0x56f527c3f4a24bb2beba449ffd766331da840ffa",
                "erc": "ERC-20",
                "slots": [
                    {
                        "current": "0x0000000000000000000000000000000000000000000000000000000000000006",
                        "key": "0x770faf621be0f8d95ade9dde1f8cef899dc8f76df80678c8114e5f8238f70819",
                        "prev": "0x0000000000000000000000000000000000000000000000000000000000000005"
                    },
                    {
                        "current": "0x0000000000000000000000000000000000000000000000008ac7230489e80000",
                        "key": "0xff8b86f6fb00d0f851d5ac7436124b62b09dc3d9b84a71ddd1a4bfbe6cb5ed64",
                        "prev": "0x0000000000000000000000000000000000000000000000000000000000000000"
                    },
                    {
                        "current": "0x0000000000000000000000000000000000000000000000000000000000000006",
                        "key": "0xbfee931748ced65fde38dd751b2472518883809270fc7fc9ac21898b78488bb6",
                        "prev": "0x0000000000000000000000000000000000000000000000000000000000000005"
                    },
                    {
                        "current": "0x000000000000000000000000000000000000000000000000000000005b83e68f",
                        "key": "0xb2337621694a39ca30b739ee1661db66ca151f06e5b0198df6fdfef23fe8f8d6",
                        "prev": "0x0000000000000000000000000000000000000000000000000000000000000000"
                    },
                    {
                        "current": "0x000000000000000000000000000000000000000000000004e1003b28d9280000",
                        "key": "0xeb296d48e337959ab4da7efbf258c24684069bc6f75a796c287f79e5d795d9d9",
                        "prev": "0x000000000000000000000000000000000000000000000004563918244f400000"
                    }
                ],
                "storageVariables": [
                    {
                        "name": "mycantime",
                        "type": "mapping(address => uint256[])",
                        "value": {
                            "pairs": [
                                {
                                    "key": "0x453725a197b4fdaf5b58e8453968fdae1e76e874",
                                    "value": {
                                        "elemType": "uint256",
                                        "elems": [
                                            {
                                                "index": 5,
                                                "value": {
                                                    "current": "1535370895",
                                                    "prev": "0",
                                                    "typeTag": 1
                                                }
                                            }
                                        ],
                                        "typeTag": 2
                                    }
                                }
                            ],
                            "typeTag": 4
                        }
                    },
                    {
                        "name": "balances",
                        "type": "mapping(address => uint256)",
                        "value": {
                            "pairs": [
                                {
                                    "key": "0x453725a197b4fdaf5b58e8453968fdae1e76e874",
                                    "value": {
                                        "current": "90000000000000000000",
                                        "prev": "80000000000000000000",
                                        "typeTag": 1
                                    }
                                }
                            ],
                            "typeTag": 4
                        }
                    },
                    {
                        "name": "mycanmoney",
                        "type": "mapping(address => uint256[])",
                        "value": {
                            "pairs": [
                                {
                                    "key": "0x453725a197b4fdaf5b58e8453968fdae1e76e874",
                                    "value": {
                                        "elemType": "uint256",
                                        "elems": [
                                            {
                                                "index": 5,
                                                "value": {
                                                    "current": "10000000000000000000",
                                                    "prev": "0",
                                                    "typeTag": 1
                                                }
                                            }
                                        ],
                                        "typeTag": 2
                                    }
                                }
                            ],
                            "typeTag": 4
                        }
                    }
                ]
            }
        ]
    }
}