{
    "balance_change": {
        "balanceChanges": [
            {
                "account": "0xcf62dfc079c5d594c257c8fcc0bc2334d17595e1",
                "assets": [
                    {
                        "address": "0xedbaf3c5100302dcdda53269322f3730b1f0416d",
                        "amount": "0.00027",
                        "iconUrl": "",
                        "isERC1155": false,
                        "isERC721": false,
                        "sign": false,
                        "value": ""
                    }
                ]
            },
            {
                "account": "0x68370eb26551809ea1002b8937d8bc84a42f2de1",
                "assets": [
                    {
                        "address": "0xedbaf3c5100302dcdda53269322f3730b1f0416d",
                        "amount": "0.00027",
                        "iconUrl": "",
                        "isERC1155": false,
                        "isERC721": false,
                        "sign": true,
                        "value": ""
                    }
                ]
            }
        ]
    },
    "profile": {
        "basic_info": {
            "baseFee": "",
            "blockNumber": 3025151,
            "callData": "0xa9059cbb00000000000000000000000068370eb26551809ea1002b8937d8bc84a42f2de1000000000000000000000000000000000000000000000000000000000000001b",
            "debugEnable": true,
            "errorInfo": "",
            "eventCount": 1,
            "feeRecipient": "0xea674fdde714fd979de3edf0f56aa9716b898ec8",
            "formatValue": "0",
            "gasLimit": 90000,
            "gasPrice": "20",
            "gasUsed": 42648,
            "intTxnCount": 0,
            "internalRevert": false,
            "internalRevertMessage": "",
            "isContractCreation": false,
            "isFlashloan": false,
            "maxFee": "",
            "nonce": 6396,
            "overwritedBlockNumber": -1,
            "priorityFee": "",
            "receiver": "0xedbaf3c5100302dcdda53269322f3730b1f0416d",
            "revertMessage": "",
            "sender": "0xcf62dfc079c5d594c257c8fcc0bc2334d17595e1",
            "simulationEnable": true,
            "sourceTxnHash": "0x970d96d4243a2435b2dfe3cfc402be053efbf80eabaee96c54a68b8c44cdb120",
            "status": true,
            "timestamp": "2017-01-19T13:45:06Z",
            "transactionFee": "0.00085296",
            "txnHash": "0x970d96d4243a2435b2dfe3cfc402be053efbf80eabaee96c54a68b8c44cdb120",
            "txnIndex": 1,
            "type": 0,
            "value": "0"
        },
        "fund_flow": [
            {
                "amount": "0.00027",
                "from": "0xcf62dfc079c5d594c257c8fcc0bc2334d17595e1",
                "id": 1,
                "isERC1155": false,
                "isERC721": false,
                "isReverted": false,
                "order": 1,
                "to": "0x68370eb26551809ea1002b8937d8bc84a42f2de1",
                "token": "0xedbaf3c5100302dcdda53269322f3730b1f0416d"
            }
        ],
        "token_infos": [
            {
                "address": "0xc02aaa39b223fe8d0a0e5c4f27ead9083c756cc2",
                "decimals": 18
            },
            {
                "address": "0xedbaf3c5100302dcdda53269322f3730b1f0416d",
                "decimals": 5
            },
            {
                "address": "0xeeeeeeeeeeeeeeeeeeeeeeeeeeeeeeeeeeeeeeee",
                "decimals": 18
            }
        ]
    },
    "address_label": {
        "labels": [
            {
                "address": "0xeeeeeeeeeeeeeeeeeeeeeeeeeeeeeeeeeeeeeeee",
                "label": "Ether"
            },
            {
                "address": "0xedbaf3c5100302dcdda53269322f3730b1f0416d",
                "label": "Veros (Veros)"
            },
            {
                "address": "0x0000000000000000000000000000000000000001",
                "label": "Precompiled"
            },
            {
                "address": "0x0000000000000000000000000000000000000002",
                "label": "Precompiled"
            },
            {
                "address": "0x0000000000000000000000000000000000000003",
                "label": "Precompiled"
            },
            {
                "address": "0x0000000000000000000000000000000000000004",
                "label": "Precompiled"
            }
        ]
    },
    "trace": {
        "accountLabels": null,
        "dataMap": {
            "-1": {
                "invocation": {
                    "address": "0xcf62dfc079c5d594c257c8fcc0bc2334d17595e1",
                    "callData": "",
                    "decodedMethod": null,
                    "errorInfo": "",
                    "fromAddress": "",
                    "gasUsed": 0,
                    "id": -1,
                    "methodDecoded": false,
                    "operation": "",
                    "output": "",
                    "revert": false,
                    "revertMessage": "",
                    "selector": "",
                    "status": false,
                    "value": ""
                },
                "nodeType": 0
            },
            "0": {
                "invocation": {
                    "address": "0xedbaf3c5100302dcdda53269322f3730b1f0416d",
                    "callData": "0x00000000000000000000000068370eb26551809ea1002b8937d8bc84a42f2de1000000000000000000000000000000000000000000000000000000000000001b",
                    "decodedMethod": {
                        "callParams": [
                            {
                                "name": "recipient",
                                "type": "address",
                                "value": "0x68370eb26551809ea1002b8937d8bc84a42f2de1"
                            },
                            {
                                "decimalAvailable": true,
                                "name": "amount",
                                "type": "uint256",
                                "value": "27"
                            }
                        ],
                        "constructorArguments": "",
                        "name": "transfer",
                        "returnParams": [
                            {
                                "name": "",
                                "type": "bool",
                                "value": true
                            }
                        ],
                        "signature": "transfer(address,uint256)"
                    },
                    "errorInfo": "",
                    "fromAddress": "0xcf62dfc079c5d594c257c8fcc0bc2334d17595e1",
                    "gasUsed": 42648,
                    "id": 0,
                    "methodDecoded": true,
                    "operation": "CALL",
                    "output": "0x0000000000000000000000000000000000000000000000000000000000000001",
                    "revert": false,
                    "revertMessage": "",
                    "selector": "0xa9059cbb",
                    "status": true,
                    "value": "0"
                },
                "nodeType": 0
            },
            "1": {
                "event": {
                    "contract": "0xedbaf3c5100302dcdda53269322f3730b1f0416d",
                    "decodedLog": {
                        "name": "Transfer",
                        "params": [
                            {
                                "name": "from",
                                "type": "address",
                                "value": "0xcf62dfc079c5d594c257c8fcc0bc2334d17595e1"
                            },
                            {
                                "name": "to",
                                "type": "address",
                                "value": "0x68370eb26551809ea1002b8937d8bc84a42f2de1"
                            },
                            {
                                "decimalAvailable": true,
                                "name": "value",
                                "type": "uint256",
                                "value": "27"
                            }
                        ],
                        "signature": "Transfer(address,address,uint256)"
                    },
                    "id": 1,
                    "logData": "0x000000000000000000000000000000000000000000000000000000000000001b",
                    "logDecoded": true,
                    "operation": "EVENT",
                    "revert": false,
                    "status": true,
                    "topics": [
                        "0xddf252ad1be2c89b69c2b068fc378daa952ba7f163c4a11628f55a4df523b3ef",
                        "0x000000000000000000000000cf62dfc079c5d594c257c8fcc0bc2334d17595e1",
                        "0x00000000000000000000000068370eb26551809ea1002b8937d8bc84a42f2de1"
                    ]
                },
                "nodeType": 1
            }
        },
        "gasFlame": [
            {
                "children": [
                    {
                        "children": [
                            {
                                "children": [],
                                "depth": 0,
                                "name": "Initial Gas",
                                "value": 22808
                            },
                            {
                                "children": [],
                                "depth": 0,
                                "name": "Executed Gas",
                                "value": 19840
                            }
                        ],
                        "depth": -1,
                        "name": "Actual Gas Used",
                        "value": 42648
                    },
                    {
                        "children": [],
                        "depth": -1,
                        "name": "Refunded Gas",
                        "value": 0
                    }
                ],
                "depth": -2,
                "name": "Total Gas",
                "value": 42648
            }
        ],
        "isConfirmed": true,
        "mainTrace": [
            {
                "children": [
                    {
                        "children": [
                            {
                                "children": [],
                                "depth": 1,
                                "id": 1,
                                "order": 1
                            }
                        ],
                        "depth": 0,
                        "id": 0,
                        "order": 0
                    }
                ],
                "depth": -1,
                "id": -1,
                "order": -1
            }
        ],
        "mainTraceNodeCount": 2,
        "parentIdMap": {
            "0": -1,
            "1": 0
        },
        "tidyTrace": [
            {
                "children": [
                    {
                        "children": [
                            {
                                "children": [],
                                "depth": 1,
                                "id": 1,
                                "order": 1
                            }
                        ],
                        "depth": 0,
                        "id": 0,
                        "order": 0
                    }
                ],
                "depth": -1,
                "id": -1,
                "order": -1
            }
        ],
        "tidyTraceNodeCount": 2
    },
    "state_change": {
        "stateChanges": [
            {
                "address": "0xedbaf3c5100302dcdda53269322f3730b1f0416d",
                "erc": "",
                "slots": [
                    {
                        "current": "0x000000000000000000000000000000000000000000000000000000003eb7b9a0",
                        "key": "0x6d5257204ebe7d88fd91ae87941cb2dd9d8062b64ae5a2bd2d28ec40b9fbf6df",
                        "prev": "0x000000000000000000000000000000000000000000000000000000003eb7ade8"
                    },
                    {
                        "current": "0x0000000000000000000000000000000000000000000000000000093efddd358b",
                        "key": "0x4cfd83a5a74b6e4f40f55714b97a1d4f4523ae79478425293f6619f414536594",
                        "prev": "0x0000000000000000000000000000000000000000000000000000093efddd415e"
                    },
                    {
                        "current": "0x00000000000000000000000000000000000000000000000000000000b19c2cb2",
                        "key": "0xf2744c95fe1b5f8f89e7382c6f17dd24bc429a5729c53c25fe9e9a4e2c462130",
                        "prev": "0x00000000000000000000000000000000000000000000000000000000b19c2c97"
                    }
                ],
                "storageVariables": []
            }
        ]
    }
}