{
    "balance_change": {
        "balanceChanges": []
    },
    "profile": {
        "basic_info": {
            "baseFee": "23.724069144",
            "blockNumber": 16682115,
            "callData": "0x25b75d6800000000000000000000000000000000000000000000000000000000000000100000000000000000000000000000000000000000000000000000000000000040000000000000000000000000000000000000000000000000000000000000000c43432042592d4e4320342e300000000000000000000000000000000000000000",
            "debugEnable": true,
            "errorInfo": "",
            "eventCount": 0,
            "feeRecipient": "0x95222290dd7278aa3ddd389cc1e1d165cc4bafe5",
            "formatValue": "0",
            "gasLimit": 51586,
            "gasPrice": "24.224069144",
            "gasUsed": 51586,
            "intTxnCount": 0,
            "internalRevert": false,
            "internalRevertMessage": "",
            "isContractCreation": false,
            "isFlashloan": false,
            "maxFee": "33.608505013",
            "nonce": 97,
            "overwritedBlockNumber": -1,
            "priorityFee": "0.5",
            "receiver": "0xa319c382a702682129fcbf55d514e61a16f97f9c",
            "revertMessage": "",
            "sender": "0x9e192409efff9300432d089e9e3a6183cc26e5c0",
            "simulationEnable": true,
            "sourceTxnHash": "0x9778efc76c2c29b242426b1becae94f6e2bb04a90eb887e2ff48bc6659fbfcd2",
            "status": true,
            "timestamp": "2023-02-22T06:09:35Z",
            "transactionFee": "0.001249622830862384",
            "txnHash": "0x9778efc76c2c29b242426b1becae94f6e2bb04a90eb887e2ff48bc6659fbfcd2",
            "txnIndex": 78,
            "type": 2,
            "value": "0"
        },
        "fund_flow": [],
        "token_infos": [
            {
                "address": "0xc02aaa39b223fe8d0a0e5c4f27ead9083c756cc2",
                "decimals": 18
            },
            {
                "address": "0xeeeeeeeeeeeeeeeeeeeeeeeeeeeeeeeeeeeeeeee",
                "decimals": 18
            }
        ]
    },
    "address_label": {
        "labels": [
            {
                "address": "0xeeeeeeeeeeeeeeeeeeeeeeeeeeeeeeeeeeeeeeee",
                "label": "Ether"
            },
            {
                "address": "0xa319c382a702682129fcbf55d514e61a16f97f9c",
                "label": "Plottables: PLOTS Token"
            },
            {
                "address": "0x0000000000000000000000000000000000000001",
                "label": "Precompiled"
            },
            {
                "address": "0x0000000000000000000000000000000000000002",
                "label": "Precompiled"
            },
            {
                "address": "0x0000000000000000000000000000000000000003",
                "label": "Precompiled"
            },
            {
                "address": "0x0000000000000000000000000000000000000004",
                "label": "Precompiled"
            }
        ]
    },
    "trace": {
        "accountLabels": null,
        "dataMap": {
            "-1": {
                "invocation": {
                    "address": "0x9e192409efff9300432d089e9e3a6183cc26e5c0",
                    "callData": "",
                    "decodedMethod": null,
                    "errorInfo": "",
                    "fromAddress": "",
                    "gasUsed": 0,
                    "id": -1,
                    "methodDecoded": false,
                    "operation": "",
                    "output": "",
                    "revert": false,
                    "revertMessage": "",
                    "selector": "",
                    "status": false,
                    "value": ""
                },
                "nodeType": 0
            },
            "0": {
                "invocation": {
                    "address": "0xa319c382a702682129fcbf55d514e61a16f97f9c",
                    "callData": "0x00000000000000000000000000000000000000000000000000000000000000100000000000000000000000000000000000000000000000000000000000000040000000000000000000000000000000000000000000000000000000000000000c43432042592d4e4320342e300000000000000000000000000000000000000000",
                    "decodedMethod": {
                        "callParams": [
                            {
                                "name": "_projectId",
                                "type": "uint256",
                                "value": "16"
                            },
                            {
                                "name": "_projectLicense",
                                "type": "string",
                                "value": "CC BY-NC 4.0"
                            }
                        ],
                        "constructorArguments": "",
                        "name": "updateProjectLicense",
                        "returnParams": [],
                        "signature": "updateProjectLicense(uint256,string)"
                    },
                    "errorInfo": "",
                    "fromAddress": "0x9e192409efff9300432d089e9e3a6183cc26e5c0",
                    "gasUsed": 51586,
                    "id": 0,
                    "methodDecoded": true,
                    "operation": "CALL",
                    "output": "",
                    "revert": false,
                    "revertMessage": "",
                    "selector": "0x25b75d68",
                    "status": true,
                    "value": "0"
                },
                "nodeType": 0
            }
        },
        "gasFlame": [
            {
                "children": [
                    {
                        "children": [
                            {
                                "children": [],
                                "depth": 0,
                                "name": "Initial Gas",
                                "value": 21756
                            },
                            {
                                "children": [],
                                "depth": 0,
                                "name": "Executed Gas",
                                "value": 29830
                            }
                        ],
                        "depth": -1,
                        "name": "Actual Gas Used",
                        "value": 51586
                    },
                    {
                        "children": [],
                        "depth": -1,
                        "name": "Refunded Gas",
                        "value": 0
                    }
                ],
                "depth": -2,
                "name": "Total Gas",
                "value": 51586
            }
        ],
        "isConfirmed": true,
        "mainTrace": [
            {
                "children": [
                    {
                        "children": [],
                        "depth": 0,
                        "id": 0,
                        "order": 0
                    }
                ],
                "depth": -1,
                "id": -1,
                "order": -1
            }
        ],
        "mainTraceNodeCount": 1,
        "parentIdMap": {
            "0": -1
        },
        "tidyTrace": [
            {
                "children": [
                    {
                        "children": [],
                        "depth": 0,
                        "id": 0,
                        "order": 0
                    }
                ],
                "depth": -1,
                "id": -1,
                "order": -1
            }
        ],
        "tidyTraceNodeCount": 1
    },
    "state_change": {
        "stateChanges": [
            {
                "address": "0xa319c382a702682129fcbf55d514e61a16f97f9c",
                "erc": "ERC-721",
                "slots": [
                    {
                        "current": "0x43432042592d4e4320342e300000000000000000000000000000000000000018",
                        "key": "0xfba2bf5b1dd468baf16221045792a70d5cdd656b9f3da14b127c3e81dc5d6de6",
                        "prev": "0x0000000000000000000000000000000000000000000000000000000000000000"
                    }
                ],
                "storageVariables": [
                    {
                        "name": "projects",
                        "type": "mapping(uint256 => struct GenArt721CoreV2_Plottables.Project)",
                        "value": {
                            "pairs": [
                                {
                                    "key": "16",
                                    "value": {
                                        "fields": [
                                            {
                                                "name": "description",
                                                "type": "string",
                                                "value": {
                                                    "current": "Structures builds unique architectures using a set of geometric bricks resting on a grid of hexagonal cells.\nThe combination and orientation of these elements can generate both abstract buildings or simple ornamental patterns by playing with the imagination of the viewer.\nEach structure is assembled from a limited choice of patterns according to rules of distribution and construction where a part of randomness intervenes.\nStructures has 20 possible combinations of 15 geometric patterns with 5 different palettes. Each palette was chosen based on available paper and ink colors for printing with a plotter.\n\nPress [e] in live view to export file as SVG\nPress [s] in live view to save file as PNG",
                                                    "prev": "Structures builds unique architectures using a set of geometric bricks resting on a grid of hexagonal cells.\nThe combination and orientation of these elements can generate both abstract buildings or simple ornamental patterns by playing with the imagination of the viewer.\nEach structure is assembled from a limited choice of patterns according to rules of distribution and construction where a part of randomness intervenes.\nStructures has 20 possible combinations of 15 geometric patterns with 5 different palettes. Each palette was chosen based on available paper and ink colors for printing with a plotter.\n\nPress [e] in live view to export file as SVG\nPress [s] in live view to save file as PNG",
                                                    "typeTag": 1
                                                }
                                            },
                                            {
                                                "name": "license",
                                                "type": "string",
                                                "value": {
                                                    "current": "CC BY-NC 4.0",
                                                    "prev": "",
                                                    "typeTag": 1
                                                }
                                            },
                                            {
                                                "name": "scriptJSON",
                                                "type": "string",
                                                "value": {
                                                    "current": "{\"aspectRatio\":\"0.707071\",\"type\":\"p5js\"}",
                                                    "prev": "{\"aspectRatio\":\"0.707071\",\"type\":\"p5js\"}",
                                                    "typeTag": 1
                                                }
                                            }
                                        ],
                                        "typeTag": 3
                                    }
                                }
                            ],
                            "typeTag": 4
                        }
                    }
                ]
            }
        ]
    }
}