{
    "balance_change": {
        "balanceChanges": [
            {
                "account": "0xb5e2d774c4672aa4297272f62d61e8a041175cb5",
                "assets": [
                    {
                        "address": "0x1abaea1f7c830bd89acc67ec4af516284b1bc33c",
                        "amount": "358.49135",
                        "iconUrl": "",
                        "isERC1155": false,
                        "isERC721": false,
                        "sign": true,
                        "value": "383.5857445000000223"
                    }
                ]
            },
            {
                "account": "0x0e144bc2102496e9e25038c25f89a85ac9038add",
                "assets": [
                    {
                        "address": "0x1abaea1f7c830bd89acc67ec4af516284b1bc33c",
                        "amount": "358.49135",
                        "iconUrl": "",
                        "isERC1155": false,
                        "isERC721": false,
                        "sign": false,
                        "value": "383.5857445000000223"
                    }
                ]
            }
        ]
    },
    "profile": {
        "basic_info": {
            "baseFee": "30.475530108",
            "blockNumber": 17297259,
            "callData": "0x2da034090000000000000000000000000e144bc2102496e9e25038c25f89a85ac9038add0000000000000000000000001abaea1f7c830bd89acc67ec4af516284b1bc33c",
            "debugEnable": true,
            "errorInfo": "",
            "eventCount": 1,
            "feeRecipient": "0x1f9090aae28b8a3dceadf281b0f12828e676c326",
            "formatValue": "0",
            "gasLimit": 173727,
            "gasPrice": "30.648030108",
            "gasUsed": 67631,
            "intTxnCount": 6,
            "internalRevert": false,
            "internalRevertMessage": "",
            "isContractCreation": false,
            "isFlashloan": false,
            "maxFee": "63.378328476",
            "nonce": 93452,
            "overwritedBlockNumber": -1,
            "priorityFee": "0.1725",
            "receiver": "0xb5e2d774c4672aa4297272f62d61e8a041175cb5",
            "revertMessage": "",
            "sender": "0x7a3cdc2e82c354e1a3bc51626726f20de661620b",
            "simulationEnable": true,
            "sourceTxnHash": "0x976c82dcd0b2ab53c2422eff54b15f9521ef0b4e04ecc1d17591a1cc6c3071a2",
            "status": true,
            "timestamp": "2023-05-20T01:04:23Z",
            "transactionFee": "0.002072756924234148",
            "txnHash": "0x976c82dcd0b2ab53c2422eff54b15f9521ef0b4e04ecc1d17591a1cc6c3071a2",
            "txnIndex": 63,
            "type": 2,
            "value": "0"
        },
        "fund_flow": [
            {
                "amount": "358.49135",
                "from": "0x0e144bc2102496e9e25038c25f89a85ac9038add",
                "id": 1,
                "isERC1155": false,
                "isERC721": false,
                "isReverted": false,
                "order": 1,
                "to": "0xb5e2d774c4672aa4297272f62d61e8a041175cb5",
                "token": "0x1abaea1f7c830bd89acc67ec4af516284b1bc33c"
            }
        ],
        "token_infos": [
            {
                "address": "0x1abaea1f7c830bd89acc67ec4af516284b1bc33c",
                "decimals": 6
            },
            {
                "address": "0xc02aaa39b223fe8d0a0e5c4f27ead9083c756cc2",
                "decimals": 18
            },
            {
                "address": "0xeeeeeeeeeeeeeeeeeeeeeeeeeeeeeeeeeeeeeeee",
                "decimals": 18
            }
        ]
    },
    "address_label": {
        "labels": [
            {
                "address": "0x0000000000000000000000000000000000000001",
                "label": "Precompiled"
            },
            {
                "address": "0x0000000000000000000000000000000000000002",
                "label": "Precompiled"
            },
            {
                "address": "0x0000000000000000000000000000000000000003",
                "label": "Precompiled"
            },
            {
                "address": "0x0000000000000000000000000000000000000004",
                "label": "Precompiled"
            },
            {
                "address": "0xeeeeeeeeeeeeeeeeeeeeeeeeeeeeeeeeeeeeeeee",
                "label": "Ether"
            },
            {
                "address": "0x1abaea1f7c830bd89acc67ec4af516284b1bc33c",
                "label": "Circle: EURC Token"
            },
            {
                "address": "0xa2327a938febf5fec13bacfb16ae10ecbc4cbdcf",
                "label": "FiatTokenV2_1"
            },
            {
                "address": "0x059ffafdc6ef594230de44f824e2bd0a51ca5ded",
                "label": "Forwarder"
            }
        ]
    },
    "trace": {
        "accountLabels": null,
        "dataMap": {
            "-1": {
                "invocation": {
                    "address": "0x7a3cdc2e82c354e1a3bc51626726f20de661620b",
                    "callData": "",
                    "decodedMethod": null,
                    "errorInfo": "",
                    "fromAddress": "",
                    "gasUsed": 0,
                    "id": -1,
                    "methodDecoded": false,
                    "operation": "",
                    "output": "",
                    "revert": false,
                    "revertMessage": "",
                    "selector": "",
                    "status": false,
                    "value": ""
                },
                "nodeType": 0
            },
            "0": {
                "invocation": {
                    "address": "0xb5e2d774c4672aa4297272f62d61e8a041175cb5",
                    "callData": "0x0000000000000000000000000e144bc2102496e9e25038c25f89a85ac9038add0000000000000000000000001abaea1f7c830bd89acc67ec4af516284b1bc33c",
                    "decodedMethod": {
                        "callParams": [
                            {
                                "name": "forwarderAddress",
                                "type": "address",
                                "value": "0x0e144bc2102496e9e25038c25f89a85ac9038add"
                            },
                            {
                                "name": "tokenContractAddress",
                                "type": "address",
                                "value": "0x1abaea1f7c830bd89acc67ec4af516284b1bc33c"
                            }
                        ],
                        "constructorArguments": "",
                        "name": "flushForwarderTokens",
                        "returnParams": [],
                        "signature": "flushForwarderTokens(address,address)"
                    },
                    "errorInfo": "",
                    "fromAddress": "0x7a3cdc2e82c354e1a3bc51626726f20de661620b",
                    "gasUsed": 67631,
                    "id": 0,
                    "methodDecoded": true,
                    "operation": "CALL",
                    "output": "",
                    "revert": false,
                    "revertMessage": "",
                    "selector": "0x2da03409",
                    "status": true,
                    "value": "0"
                },
                "nodeType": 0
            },
            "1": {
                "invocation": {
                    "address": "0x0e144bc2102496e9e25038c25f89a85ac9038add",
                    "callData": "0x0000000000000000000000001abaea1f7c830bd89acc67ec4af516284b1bc33c",
                    "decodedMethod": {
                        "callParams": [
                            {
                                "name": "tokenContractAddress",
                                "type": "address",
                                "value": "0x1abaea1f7c830bd89acc67ec4af516284b1bc33c"
                            }
                        ],
                        "constructorArguments": "",
                        "name": "flushTokens",
                        "returnParams": [],
                        "signature": "flushTokens(address)"
                    },
                    "errorInfo": "",
                    "fromAddress": "0xb5e2d774c4672aa4297272f62d61e8a041175cb5",
                    "gasUsed": 37327,
                    "id": 1,
                    "methodDecoded": true,
                    "operation": "CALL",
                    "output": "",
                    "revert": false,
                    "revertMessage": "",
                    "selector": "0x3ef13367",
                    "status": true,
                    "value": "0"
                },
                "nodeType": 0
            },
            "2": {
                "invocation": {
                    "address": "0x059ffafdc6ef594230de44f824e2bd0a51ca5ded",
                    "callData": "0x0000000000000000000000001abaea1f7c830bd89acc67ec4af516284b1bc33c",
                    "decodedMethod": {
                        "callParams": [
                            {
                                "name": "tokenContractAddress",
                                "type": "address",
                                "value": "0x1abaea1f7c830bd89acc67ec4af516284b1bc33c"
                            }
                        ],
                        "constructorArguments": "",
                        "name": "flushTokens",
                        "returnParams": [],
                        "signature": "flushTokens(address)"
                    },
                    "errorInfo": "",
                    "fromAddress": "0x0e144bc2102496e9e25038c25f89a85ac9038add",
                    "gasUsed": 34658,
                    "id": 2,
                    "methodDecoded": true,
                    "operation": "DELEGATECALL",
                    "output": "",
                    "revert": false,
                    "revertMessage": "",
                    "selector": "0x3ef13367",
                    "status": true,
                    "value": "0"
                },
                "nodeType": 0
            },
            "3": {
                "invocation": {
                    "address": "0x1abaea1f7c830bd89acc67ec4af516284b1bc33c",
                    "callData": "0x0000000000000000000000000e144bc2102496e9e25038c25f89a85ac9038add",
                    "decodedMethod": {
                        "callParams": [
                            {
                                "name": "account",
                                "type": "address",
                                "value": "0x0e144bc2102496e9e25038c25f89a85ac9038add"
                            }
                        ],
                        "constructorArguments": "",
                        "name": "balanceOf",
                        "returnParams": [
                            {
                                "decimalAvailable": true,
                                "name": "",
                                "type": "uint256",
                                "value": "358,491,350"
                            }
                        ],
                        "signature": "balanceOf(address)"
                    },
                    "errorInfo": "",
                    "fromAddress": "0x0e144bc2102496e9e25038c25f89a85ac9038add",
                    "gasUsed": 9726,
                    "id": 3,
                    "methodDecoded": true,
                    "operation": "STATICCALL",
                    "output": "0x00000000000000000000000000000000000000000000000000000000155e24d6",
                    "revert": false,
                    "revertMessage": "",
                    "selector": "0x70a08231",
                    "status": true,
                    "value": "0"
                },
                "nodeType": 0
            },
            "4": {
                "invocation": {
                    "address": "0xa2327a938febf5fec13bacfb16ae10ecbc4cbdcf",
                    "callData": "0x0000000000000000000000000e144bc2102496e9e25038c25f89a85ac9038add",
                    "decodedMethod": {
                        "callParams": [
                            {
                                "name": "account",
                                "type": "address",
                                "value": "0x0e144bc2102496e9e25038c25f89a85ac9038add"
                            }
                        ],
                        "constructorArguments": "",
                        "name": "balanceOf",
                        "returnParams": [
                            {
                                "decimalAvailable": true,
                                "name": "",
                                "type": "uint256",
                                "value": "358,491,350"
                            }
                        ],
                        "signature": "balanceOf(address)"
                    },
                    "errorInfo": "",
                    "fromAddress": "0x1abaea1f7c830bd89acc67ec4af516284b1bc33c",
                    "gasUsed": 2529,
                    "id": 4,
                    "methodDecoded": true,
                    "operation": "DELEGATECALL",
                    "output": "0x00000000000000000000000000000000000000000000000000000000155e24d6",
                    "revert": false,
                    "revertMessage": "",
                    "selector": "0x70a08231",
                    "status": true,
                    "value": "0"
                },
                "nodeType": 0
            },
            "5": {
                "invocation": {
                    "address": "0x1abaea1f7c830bd89acc67ec4af516284b1bc33c",
                    "callData": "0x000000000000000000000000b5e2d774c4672aa4297272f62d61e8a041175cb500000000000000000000000000000000000000000000000000000000155e24d6",
                    "decodedMethod": {
                        "callParams": [
                            {
                                "name": "to",
                                "type": "address",
                                "value": "0xb5e2d774c4672aa4297272f62d61e8a041175cb5"
                            },
                            {
                                "decimalAvailable": true,
                                "name": "value",
                                "type": "uint256",
                                "value": "358,491,350"
                            }
                        ],
                        "constructorArguments": "",
                        "name": "transfer",
                        "returnParams": [
                            {
                                "name": "",
                                "type": "bool",
                                "value": true
                            }
                        ],
                        "signature": "transfer(address,uint256)"
                    },
                    "errorInfo": "",
                    "fromAddress": "0x0e144bc2102496e9e25038c25f89a85ac9038add",
                    "gasUsed": 18328,
                    "id": 5,
                    "methodDecoded": true,
                    "operation": "CALL",
                    "output": "0x0000000000000000000000000000000000000000000000000000000000000001",
                    "revert": false,
                    "revertMessage": "",
                    "selector": "0xa9059cbb",
                    "status": true,
                    "value": "0"
                },
                "nodeType": 0
            },
            "6": {
                "invocation": {
                    "address": "0xa2327a938febf5fec13bacfb16ae10ecbc4cbdcf",
                    "callData": "0x000000000000000000000000b5e2d774c4672aa4297272f62d61e8a041175cb500000000000000000000000000000000000000000000000000000000155e24d6",
                    "decodedMethod": {
                        "callParams": [
                            {
                                "name": "to",
                                "type": "address",
                                "value": "0xb5e2d774c4672aa4297272f62d61e8a041175cb5"
                            },
                            {
                                "decimalAvailable": true,
                                "name": "value",
                                "type": "uint256",
                                "value": "358,491,350"
                            }
                        ],
                        "constructorArguments": "",
                        "name": "transfer",
                        "returnParams": [
                            {
                                "name": "",
                                "type": "bool",
                                "value": true
                            }
                        ],
                        "signature": "transfer(address,uint256)"
                    },
                    "errorInfo": "",
                    "fromAddress": "0x1abaea1f7c830bd89acc67ec4af516284b1bc33c",
                    "gasUsed": 17628,
                    "id": 6,
                    "methodDecoded": true,
                    "operation": "DELEGATECALL",
                    "output": "0x0000000000000000000000000000000000000000000000000000000000000001",
                    "revert": false,
                    "revertMessage": "",
                    "selector": "0xa9059cbb",
                    "status": true,
                    "value": "0"
                },
                "nodeType": 0
            },
            "7": {
                "event": {
                    "contract": "0x1abaea1f7c830bd89acc67ec4af516284b1bc33c",
                    "decodedLog": {
                        "name": "Transfer",
                        "params": [
                            {
                                "name": "from",
                                "type": "address",
                                "value": "0x0e144bc2102496e9e25038c25f89a85ac9038add"
                            },
                            {
                                "name": "to",
                                "type": "address",
                                "value": "0xb5e2d774c4672aa4297272f62d61e8a041175cb5"
                            },
                            {
                                "decimalAvailable": true,
                                "name": "value",
                                "type": "uint256",
                                "value": "358,491,350"
                            }
                        ],
                        "signature": "Transfer(address,address,uint256)"
                    },
                    "id": 7,
                    "logData": "0x00000000000000000000000000000000000000000000000000000000155e24d6",
                    "logDecoded": true,
                    "operation": "EVENT",
                    "revert": false,
                    "status": true,
                    "topics": [
                        "0xddf252ad1be2c89b69c2b068fc378daa952ba7f163c4a11628f55a4df523b3ef",
                        "0x0000000000000000000000000e144bc2102496e9e25038c25f89a85ac9038add",
                        "0x000000000000000000000000b5e2d774c4672aa4297272f62d61e8a041175cb5"
                    ]
                },
                "nodeType": 1
            }
        },
        "gasFlame": [
            {
                "children": [
                    {
                        "children": [
                            {
                                "children": [],
                                "depth": 0,
                                "name": "Initial Gas",
                                "value": 21800
                            },
                            {
                                "children": [
                                    {
                                        "children": [
                                            {
                                                "children": [
                                                    {
                                                        "children": [
                                                            {
                                                                "children": [],
                                                                "depth": 4,
                                                                "name": "balanceOf",
                                                                "value": 2529
                                                            }
                                                        ],
                                                        "depth": 3,
                                                        "name": "balanceOf",
                                                        "value": 9726
                                                    },
                                                    {
                                                        "children": [
                                                            {
                                                                "children": [],
                                                                "depth": 4,
                                                                "name": "transfer",
                                                                "value": 17628
                                                            }
                                                        ],
                                                        "depth": 3,
                                                        "name": "transfer",
                                                        "value": 18328
                                                    }
                                                ],
                                                "depth": 2,
                                                "name": "flushTokens",
                                                "value": 34658
                                            }
                                        ],
                                        "depth": 1,
                                        "name": "flushTokens",
                                        "value": 37327
                                    }
                                ],
                                "depth": 0,
                                "name": "Executed Gas",
                                "value": 50631
                            }
                        ],
                        "depth": -1,
                        "name": "Actual Gas Used",
                        "value": 67631
                    },
                    {
                        "children": [],
                        "depth": -1,
                        "name": "Refunded Gas",
                        "value": 4800
                    }
                ],
                "depth": -2,
                "name": "Total Gas",
                "value": 72431
            }
        ],
        "isConfirmed": true,
        "mainTrace": [
            {
                "children": [
                    {
                        "children": [
                            {
                                "children": [
                                    {
                                        "children": [
                                            {
                                                "children": [
                                                    {
                                                        "children": [],
                                                        "depth": 4,
                                                        "id": 4,
                                                        "order": 4
                                                    }
                                                ],
                                                "depth": 3,
                                                "id": 3,
                                                "order": 3
                                            },
                                            {
                                                "children": [
                                                    {
                                                        "children": [
                                                            {
                                                                "children": [],
                                                                "depth": 5,
                                                                "id": 7,
                                                                "order": 7
                                                            }
                                                        ],
                                                        "depth": 4,
                                                        "id": 6,
                                                        "order": 6
                                                    }
                                                ],
                                                "depth": 3,
                                                "id": 5,
                                                "order": 5
                                            }
                                        ],
                                        "depth": 2,
                                        "id": 2,
                                        "order": 2
                                    }
                                ],
                                "depth": 1,
                                "id": 1,
                                "order": 1
                            }
                        ],
                        "depth": 0,
                        "id": 0,
                        "order": 0
                    }
                ],
                "depth": -1,
                "id": -1,
                "order": -1
            }
        ],
        "mainTraceNodeCount": 8,
        "parentIdMap": {
            "0": -1,
            "1": 0,
            "2": 1,
            "3": 2,
            "4": 3,
            "5": 2,
            "6": 5,
            "7": 6
        },
        "tidyTrace": [
            {
                "children": [
                    {
                        "children": [
                            {
                                "children": [
                                    {
                                        "children": [
                                            {
                                                "children": [
                                                    {
                                                        "children": [
                                                            {
                                                                "children": [],
                                                                "depth": 5,
                                                                "id": 7,
                                                                "order": 7
                                                            }
                                                        ],
                                                        "depth": 4,
                                                        "id": 6,
                                                        "order": 6
                                                    }
                                                ],
                                                "depth": 3,
                                                "id": 5,
                                                "order": 5
                                            }
                                        ],
                                        "depth": 2,
                                        "id": 2,
                                        "order": 2
                                    }
                                ],
                                "depth": 1,
                                "id": 1,
                                "order": 1
                            }
                        ],
                        "depth": 0,
                        "id": 0,
                        "order": 0
                    }
                ],
                "depth": -1,
                "id": -1,
                "order": -1
            }
        ],
        "tidyTraceNodeCount": 6
    },
    "state_change": {
        "stateChanges": [
            {
                "address": "0x1abaea1f7c830bd89acc67ec4af516284b1bc33c",
                "erc": "ERC-20",
                "slots": [
                    {
                        "current": "0x0000000000000000000000000000000000000000000000000000000000000000",
                        "key": "0x43e4961d5b0eb96e1e1e209832e2ed6f7331c4069918e2749045597ca6b149ae",
                        "prev": "0x00000000000000000000000000000000000000000000000000000000155e24d6"
                    },
                    {
                        "current": "0x00000000000000000000000000000000000000000000000000000002d4e09692",
                        "key": "0x7f957239109e2a24024c0e00ba0ab0fe958c2bc8f5e725e67f7bf5a5a8cbafad",
                        "prev": "0x00000000000000000000000000000000000000000000000000000002bf8271bc"
                    }
                ],
                "storageVariables": [
                    {
                        "name": "balances",
                        "type": "mapping(address => uint256)",
                        "value": {
                            "pairs": [
                                {
                                    "key": "0x0e144bc2102496e9e25038c25f89a85ac9038add",
                                    "value": {
                                        "current": "0",
                                        "prev": "358491350",
                                        "typeTag": 1
                                    }
                                },
                                {
                                    "key": "0xb5e2d774c4672aa4297272f62d61e8a041175cb5",
                                    "value": {
                                        "current": "12161422994",
                                        "prev": "11802931644",
                                        "typeTag": 1
                                    }
                                }
                            ],
                            "typeTag": 4
                        }
                    }
                ]
            }
        ]
    }
}