{
    "balance_change": {
        "balanceChanges": [
            {
                "account": "0x8f44b72ff52f12c02827dc57e585abcd27af7b98",
                "assets": [
                    {
                        "address": "0xc00e94cb662c3520282e6f5717214004a7f26888",
                        "amount": "0.72992286",
                        "iconUrl": "https://assets.blocksec.com/icon/479cb2e15b0a933cedbcf12e2f7327d232e092ac568091b0e1ad6c219f06de17.png",
                        "isERC1155": false,
                        "isERC721": false,
                        "sign": false,
                        "value": "89.32119682"
                    }
                ]
            },
            {
                "account": "0x050f99d0a694711d06c2b304d803df15857c9327",
                "assets": [
                    {
                        "address": "0xc00e94cb662c3520282e6f5717214004a7f26888",
                        "amount": "0.72992286",
                        "iconUrl": "https://assets.blocksec.com/icon/479cb2e15b0a933cedbcf12e2f7327d232e092ac568091b0e1ad6c219f06de17.png",
                        "isERC1155": false,
                        "isERC721": false,
                        "sign": true,
                        "value": "89.32119682"
                    }
                ]
            }
        ]
    },
    "profile": {
        "basic_info": {
            "baseFee": "",
            "blockNumber": 11269838,
            "callData": "0xa9059cbb000000000000000000000000050f99d0a694711d06c2b304d803df15857c93270000000000000000000000000000000000000000000000000a2134f94fbcb800",
            "debugEnable": true,
            "errorInfo": "",
            "eventCount": 1,
            "feeRecipient": "0xea674fdde714fd979de3edf0f56aa9716b898ec8",
            "formatValue": "0",
            "gasLimit": 200000,
            "gasPrice": "77",
            "gasUsed": 25734,
            "intTxnCount": 0,
            "internalRevert": false,
            "internalRevertMessage": "",
            "isContractCreation": false,
            "isFlashloan": false,
            "maxFee": "",
            "nonce": 0,
            "overwritedBlockNumber": -1,
            "priorityFee": "",
            "receiver": "0xc00e94cb662c3520282e6f5717214004a7f26888",
            "revertMessage": "",
            "sender": "0x8f44b72ff52f12c02827dc57e585abcd27af7b98",
            "simulationEnable": true,
            "sourceTxnHash": "0x97c2e8ef47e70fcb9b53a7390b370a92d6027f0f1ea572f6efd2984c30943428",
            "status": true,
            "timestamp": "2020-11-16T16:01:00Z",
            "transactionFee": "0.001981518",
            "txnHash": "0x97c2e8ef47e70fcb9b53a7390b370a92d6027f0f1ea572f6efd2984c30943428",
            "txnIndex": 11,
            "type": 0,
            "value": "0"
        },
        "fund_flow": [
            {
                "amount": "0.72992286",
                "from": "0x8f44b72ff52f12c02827dc57e585abcd27af7b98",
                "id": 1,
                "isERC1155": false,
                "isERC721": false,
                "isReverted": false,
                "order": 1,
                "to": "0x050f99d0a694711d06c2b304d803df15857c9327",
                "token": "0xc00e94cb662c3520282e6f5717214004a7f26888"
            }
        ],
        "token_infos": [
            {
                "address": "0xc00e94cb662c3520282e6f5717214004a7f26888",
                "decimals": 18
            },
            {
                "address": "0xc02aaa39b223fe8d0a0e5c4f27ead9083c756cc2",
                "decimals": 18
            },
            {
                "address": "0xeeeeeeeeeeeeeeeeeeeeeeeeeeeeeeeeeeeeeeee",
                "decimals": 18
            }
        ]
    },
    "address_label": {
        "labels": [
            {
                "address": "0x0000000000000000000000000000000000000001",
                "label": "Precompiled"
            },
            {
                "address": "0x0000000000000000000000000000000000000002",
                "label": "Precompiled"
            },
            {
                "address": "0x0000000000000000000000000000000000000003",
                "label": "Precompiled"
            },
            {
                "address": "0x0000000000000000000000000000000000000004",
                "label": "Precompiled"
            },
            {
                "address": "0xeeeeeeeeeeeeeeeeeeeeeeeeeeeeeeeeeeeeeeee",
                "label": "Ether"
            },
            {
                "address": "0xc00e94cb662c3520282e6f5717214004a7f26888",
                "label": "Compound: COMP Token"
            }
        ]
    },
    "trace": {
        "accountLabels": null,
        "dataMap": {
            "-1": {
                "invocation": {
                    "address": "0x8f44b72ff52f12c02827dc57e585abcd27af7b98",
                    "callData": "",
                    "decodedMethod": null,
                    "errorInfo": "",
                    "fromAddress": "",
                    "gasUsed": 0,
                    "id": -1,
                    "methodDecoded": false,
                    "operation": "",
                    "output": "",
                    "revert": false,
                    "revertMessage": "",
                    "selector": "",
                    "status": false,
                    "value": ""
                },
                "nodeType": 0
            },
            "0": {
                "invocation": {
                    "address": "0xc00e94cb662c3520282e6f5717214004a7f26888",
                    "callData": "0x000000000000000000000000050f99d0a694711d06c2b304d803df15857c93270000000000000000000000000000000000000000000000000a2134f94fbcb800",
                    "decodedMethod": {
                        "callParams": [
                            {
                                "name": "dst",
                                "type": "address",
                                "value": "0x050f99d0a694711d06c2b304d803df15857c9327"
                            },
                            {
                                "decimalAvailable": true,
                                "name": "rawAmount",
                                "type": "uint256",
                                "value": "729,922,860,000,000,000"
                            }
                        ],
                        "constructorArguments": "",
                        "name": "transfer",
                        "returnParams": [
                            {
                                "name": "",
                                "type": "bool",
                                "value": true
                            }
                        ],
                        "signature": "transfer(address,uint256)"
                    },
                    "errorInfo": "",
                    "fromAddress": "0x8f44b72ff52f12c02827dc57e585abcd27af7b98",
                    "gasUsed": 25734,
                    "id": 0,
                    "methodDecoded": true,
                    "operation": "CALL",
                    "output": "0x0000000000000000000000000000000000000000000000000000000000000001",
                    "revert": false,
                    "revertMessage": "",
                    "selector": "0xa9059cbb",
                    "status": true,
                    "value": "0"
                },
                "nodeType": 0
            },
            "1": {
                "event": {
                    "contract": "0xc00e94cb662c3520282e6f5717214004a7f26888",
                    "decodedLog": {
                        "name": "Transfer",
                        "params": [
                            {
                                "name": "from",
                                "type": "address",
                                "value": "0x8f44b72ff52f12c02827dc57e585abcd27af7b98"
                            },
                            {
                                "name": "to",
                                "type": "address",
                                "value": "0x050f99d0a694711d06c2b304d803df15857c9327"
                            },
                            {
                                "decimalAvailable": true,
                                "name": "amount",
                                "type": "uint256",
                                "value": "729,922,860,000,000,000"
                            }
                        ],
                        "signature": "Transfer(address,address,uint256)"
                    },
                    "id": 1,
                    "logData": "0x0000000000000000000000000000000000000000000000000a2134f94fbcb800",
                    "logDecoded": true,
                    "operation": "EVENT",
                    "revert": false,
                    "status": true,
                    "topics": [
                        "0xddf252ad1be2c89b69c2b068fc378daa952ba7f163c4a11628f55a4df523b3ef",
                        "0x0000000000000000000000008f44b72ff52f12c02827dc57e585abcd27af7b98",
                        "0x000000000000000000000000050f99d0a694711d06c2b304d803df15857c9327"
                    ]
                },
                "nodeType": 1
            }
        },
        "gasFlame": [
            {
                "children": [
                    {
                        "children": [
                            {
                                "children": [],
                                "depth": 0,
                                "name": "Initial Gas",
                                "value": 21644
                            },
                            {
                                "children": [],
                                "depth": 0,
                                "name": "Executed Gas",
                                "value": 19090
                            }
                        ],
                        "depth": -1,
                        "name": "Actual Gas Used",
                        "value": 25734
                    },
                    {
                        "children": [],
                        "depth": -1,
                        "name": "Refunded Gas",
                        "value": 15000
                    }
                ],
                "depth": -2,
                "name": "Total Gas",
                "value": 40734
            }
        ],
        "isConfirmed": true,
        "mainTrace": [
            {
                "children": [
                    {
                        "children": [
                            {
                                "children": [],
                                "depth": 1,
                                "id": 1,
                                "order": 1
                            }
                        ],
                        "depth": 0,
                        "id": 0,
                        "order": 0
                    }
                ],
                "depth": -1,
                "id": -1,
                "order": -1
            }
        ],
        "mainTraceNodeCount": 2,
        "parentIdMap": {
            "0": -1,
            "1": 0
        },
        "tidyTrace": [
            {
                "children": [
                    {
                        "children": [
                            {
                                "children": [],
                                "depth": 1,
                                "id": 1,
                                "order": 1
                            }
                        ],
                        "depth": 0,
                        "id": 0,
                        "order": 0
                    }
                ],
                "depth": -1,
                "id": -1,
                "order": -1
            }
        ],
        "tidyTraceNodeCount": 2
    },
    "state_change": {
        "stateChanges": [
            {
                "address": "0xc00e94cb662c3520282e6f5717214004a7f26888",
                "erc": "ERC-20",
                "slots": [
                    {
                        "current": "0x0000000000000000000000000000000000000000000000000000000000000000",
                        "key": "0xf6b2eadd080c926bc3553f09640dc3b17917dbd554d4d1aea724d59bad0aeb46",
                        "prev": "0x0000000000000000000000000000000000000000000000000a2134f94fbcb800"
                    },
                    {
                        "current": "0x00000000000000000000000000000000000000000000000018198b50b0545c00",
                        "key": "0xbc33787af617bb56da82662ce77f9ace1a713a9ceef179def0a9453299ea8935",
                        "prev": "0x0000000000000000000000000000000000000000000000000df856576097a400"
                    }
                ],
                "storageVariables": [
                    {
                        "name": "balances",
                        "type": "mapping(address => uint96)",
                        "value": {
                            "pairs": [
                                {
                                    "key": "0x050f99d0a694711d06c2b304d803df15857c9327",
                                    "value": {
                                        "current": "1736572310000000000",
                                        "prev": "1006649450000000000",
                                        "typeTag": 1
                                    }
                                },
                                {
                                    "key": "0x8f44b72ff52f12c02827dc57e585abcd27af7b98",
                                    "value": {
                                        "current": "0",
                                        "prev": "729922860000000000",
                                        "typeTag": 1
                                    }
                                }
                            ],
                            "typeTag": 4
                        }
                    }
                ]
            }
        ]
    }
}