{
    "balance_change": {
        "balanceChanges": [
            {
                "account": "0xc79da3c2652dcd847009b71b6ecf21264f4e6b7b",
                "assets": [
                    {
                        "address": "0xeeeeeeeeeeeeeeeeeeeeeeeeeeeeeeeeeeeeeeee",
                        "amount": "0.022",
                        "iconUrl": "https://assets.blocksec.com/image/1663669189317-3.png",
                        "isERC1155": false,
                        "isERC721": false,
                        "sign": false,
                        "value": "45.809279999999995198"
                    },
                    {
                        "address": "0x90eeb88e449a3ce1bf0c374cdd8835c0cd1886d8",
                        "amount": "1",
                        "iconUrl": "",
                        "isERC1155": false,
                        "isERC721": true,
                        "sign": true,
                        "tokenID": "10",
                        "value": ""
                    }
                ]
            },
            {
                "account": "0xcda72070e455bb31c7690a170224ce43623d0b6f",
                "assets": [
                    {
                        "address": "0x90eeb88e449a3ce1bf0c374cdd8835c0cd1886d8",
                        "amount": "1",
                        "iconUrl": "",
                        "isERC1155": false,
                        "isERC721": true,
                        "sign": false,
                        "tokenID": "10",
                        "value": ""
                    }
                ]
            },
            {
                "account": "0x67df244584b67e8c51b10ad610aaffa9a402fdb6",
                "assets": [
                    {
                        "address": "0xeeeeeeeeeeeeeeeeeeeeeeeeeeeeeeeeeeeeeeee",
                        "amount": "0.0011",
                        "iconUrl": "https://assets.blocksec.com/image/1663669189317-3.png",
                        "isERC1155": false,
                        "isERC721": false,
                        "sign": true,
                        "value": "2.29046399999999976"
                    }
                ]
            },
            {
                "account": "0xd6f3bc068dd5d113aa80036dc966e446770067af",
                "assets": [
                    {
                        "address": "0xeeeeeeeeeeeeeeeeeeeeeeeeeeeeeeeeeeeeeeee",
                        "amount": "0.0209",
                        "iconUrl": "https://assets.blocksec.com/image/1663669189317-3.png",
                        "isERC1155": false,
                        "isERC721": false,
                        "sign": true,
                        "value": "43.518815999999995437"
                    }
                ]
            }
        ]
    },
    "profile": {
        "basic_info": {
            "baseFee": "25.524837314",
            "blockNumber": 17063190,
            "callData": "0xb01ef60800000000000000000000000090eeb88e449a3ce1bf0c374cdd8835c0cd1886d8000000000000000000000000000000000000000000000000000000000000000a000000000000000000000000000000000000000000000000004e28e2290f00000000000000000000000000000000000000000000000000000000000000000000",
            "debugEnable": true,
            "errorInfo": "",
            "eventCount": 3,
            "feeRecipient": "0xdafea492d9c6733ae3d56b7ed1adb60692c98bc5",
            "formatValue": "0.022",
            "gasLimit": 141031,
            "gasPrice": "25.618010868",
            "gasUsed": 129566,
            "intTxnCount": 14,
            "internalRevert": false,
            "internalRevertMessage": "",
            "isContractCreation": false,
            "isFlashloan": false,
            "maxFee": "28.19055765",
            "nonce": 3,
            "overwritedBlockNumber": -1,
            "priorityFee": "0.093173554",
            "receiver": "0xcda72070e455bb31c7690a170224ce43623d0b6f",
            "revertMessage": "",
            "sender": "0xc79da3c2652dcd847009b71b6ecf21264f4e6b7b",
            "simulationEnable": true,
            "sourceTxnHash": "0x97a0e38508aa974ad82c2b77dcdb6ba80d554b19bf48beebfdb13286559deac7",
            "status": true,
            "timestamp": "2023-04-17T01:13:11Z",
            "transactionFee": "0.003319223196123288",
            "txnHash": "0x97a0e38508aa974ad82c2b77dcdb6ba80d554b19bf48beebfdb13286559deac7",
            "txnIndex": 159,
            "type": 2,
            "value": "22000000000000000"
        },
        "fund_flow": [
            {
                "amount": "0.022",
                "from": "0xc79da3c2652dcd847009b71b6ecf21264f4e6b7b",
                "id": 1,
                "isERC1155": false,
                "isERC721": false,
                "isReverted": false,
                "order": 1,
                "to": "0xcda72070e455bb31c7690a170224ce43623d0b6f",
                "token": "0xeeeeeeeeeeeeeeeeeeeeeeeeeeeeeeeeeeeeeeee"
            },
            {
                "amount": "1",
                "from": "0xcda72070e455bb31c7690a170224ce43623d0b6f",
                "id": 2,
                "isERC1155": false,
                "isERC721": true,
                "isReverted": false,
                "order": 2,
                "to": "0xc79da3c2652dcd847009b71b6ecf21264f4e6b7b",
                "token": "0x90eeb88e449a3ce1bf0c374cdd8835c0cd1886d8",
                "tokenID": "10"
            },
            {
                "amount": "0.0209",
                "from": "0xcda72070e455bb31c7690a170224ce43623d0b6f",
                "id": 3,
                "isERC1155": false,
                "isERC721": false,
                "isReverted": false,
                "order": 3,
                "to": "0xd6f3bc068dd5d113aa80036dc966e446770067af",
                "token": "0xeeeeeeeeeeeeeeeeeeeeeeeeeeeeeeeeeeeeeeee"
            },
            {
                "amount": "0.0011",
                "from": "0xcda72070e455bb31c7690a170224ce43623d0b6f",
                "id": 4,
                "isERC1155": false,
                "isERC721": false,
                "isReverted": false,
                "order": 4,
                "to": "0x67df244584b67e8c51b10ad610aaffa9a402fdb6",
                "token": "0xeeeeeeeeeeeeeeeeeeeeeeeeeeeeeeeeeeeeeeee"
            }
        ],
        "token_infos": [
            {
                "address": "0xeeeeeeeeeeeeeeeeeeeeeeeeeeeeeeeeeeeeeeee",
                "decimals": 18
            },
            {
                "address": "0xc02aaa39b223fe8d0a0e5c4f27ead9083c756cc2",
                "decimals": 18
            }
        ]
    },
    "address_label": {
        "labels": [
            {
                "address": "0x0000000000000000000000000000000000000000",
                "label": "Null Address"
            },
            {
                "address": "0xcda72070e455bb31c7690a170224ce43623d0b6f",
                "label": "Foundation: Market"
            },
            {
                "address": "0x0000000000000000000000000000000000000001",
                "label": "Precompiled"
            },
            {
                "address": "0x0000000000000000000000000000000000000002",
                "label": "Precompiled"
            },
            {
                "address": "0x0000000000000000000000000000000000000003",
                "label": "Precompiled"
            },
            {
                "address": "0x0000000000000000000000000000000000000004",
                "label": "Precompiled"
            },
            {
                "address": "0xe38f942db7a1b4213d6213f70c499b59287b01f1",
                "label": "Foundation Collection Template v2 (FCTv2)"
            },
            {
                "address": "0x1c0df262a40f99d7d6145faba04db75d1126f93d",
                "label": "FoundationTreasury"
            },
            {
                "address": "0xc6bda983ce0a00142e2334bc2726c30573fe5e3e",
                "label": "NFTMarket"
            },
            {
                "address": "0x67df244584b67e8c51b10ad610aaffa9a402fdb6",
                "label": "Foundation: Treasury"
            },
            {
                "address": "0xeeeeeeeeeeeeeeeeeeeeeeeeeeeeeeeeeeeeeeee",
                "label": "Ether"
            }
        ]
    },
    "trace": {
        "accountLabels": null,
        "dataMap": {
            "-1": {
                "invocation": {
                    "address": "0xc79da3c2652dcd847009b71b6ecf21264f4e6b7b",
                    "callData": "",
                    "decodedMethod": null,
                    "errorInfo": "",
                    "fromAddress": "",
                    "gasUsed": 0,
                    "id": -1,
                    "methodDecoded": false,
                    "operation": "",
                    "output": "",
                    "revert": false,
                    "revertMessage": "",
                    "selector": "",
                    "status": false,
                    "value": ""
                },
                "nodeType": 0
            },
            "0": {
                "invocation": {
                    "address": "0xcda72070e455bb31c7690a170224ce43623d0b6f",
                    "callData": "0x00000000000000000000000090eeb88e449a3ce1bf0c374cdd8835c0cd1886d8000000000000000000000000000000000000000000000000000000000000000a000000000000000000000000000000000000000000000000004e28e2290f00000000000000000000000000000000000000000000000000000000000000000000",
                    "decodedMethod": {
                        "callParams": [
                            {
                                "name": "nftContract",
                                "type": "address",
                                "value": "0x90eeb88e449a3ce1bf0c374cdd8835c0cd1886d8"
                            },
                            {
                                "name": "tokenId",
                                "type": "uint256",
                                "value": "10"
                            },
                            {
                                "name": "maxPrice",
                                "type": "uint256",
                                "value": "22,000,000,000,000,000"
                            },
                            {
                                "name": "referrer",
                                "type": "address",
                                "value": "0x0000000000000000000000000000000000000000"
                            }
                        ],
                        "constructorArguments": "",
                        "name": "buyV2",
                        "returnParams": [],
                        "signature": "buyV2(address,uint256,uint256,address)"
                    },
                    "errorInfo": "",
                    "fromAddress": "0xc79da3c2652dcd847009b71b6ecf21264f4e6b7b",
                    "gasUsed": 129566,
                    "id": 0,
                    "methodDecoded": true,
                    "operation": "CALL",
                    "output": "",
                    "revert": false,
                    "revertMessage": "",
                    "selector": "0xb01ef608",
                    "status": true,
                    "value": "0.022"
                },
                "nodeType": 0
            },
            "1": {
                "invocation": {
                    "address": "0xc6bda983ce0a00142e2334bc2726c30573fe5e3e",
                    "callData": "0x00000000000000000000000090eeb88e449a3ce1bf0c374cdd8835c0cd1886d8000000000000000000000000000000000000000000000000000000000000000a000000000000000000000000000000000000000000000000004e28e2290f00000000000000000000000000000000000000000000000000000000000000000000",
                    "decodedMethod": {
                        "callParams": [
                            {
                                "name": "nftContract",
                                "type": "address",
                                "value": "0x90eeb88e449a3ce1bf0c374cdd8835c0cd1886d8"
                            },
                            {
                                "name": "tokenId",
                                "type": "uint256",
                                "value": "10"
                            },
                            {
                                "name": "maxPrice",
                                "type": "uint256",
                                "value": "22,000,000,000,000,000"
                            },
                            {
                                "name": "referrer",
                                "type": "address",
                                "value": "0x0000000000000000000000000000000000000000"
                            }
                        ],
                        "constructorArguments": "",
                        "name": "buyV2",
                        "returnParams": [],
                        "signature": "buyV2(address,uint256,uint256,address)"
                    },
                    "errorInfo": "",
                    "fromAddress": "0xcda72070e455bb31c7690a170224ce43623d0b6f",
                    "gasUsed": 107990,
                    "id": 1,
                    "methodDecoded": true,
                    "operation": "DELEGATECALL",
                    "output": "",
                    "revert": false,
                    "revertMessage": "",
                    "selector": "0xb01ef608",
                    "status": true,
                    "value": "0.022"
                },
                "nodeType": 0
            },
            "10": {
                "invocation": {
                    "address": "0x90eeb88e449a3ce1bf0c374cdd8835c0cd1886d8",
                    "callData": "0x2a55205a00000000000000000000000000000000000000000000000000000000",
                    "decodedMethod": {
                        "callParams": [
                            {
                                "name": "interfaceId",
                                "type": "bytes4",
                                "value": "0x2a55205a"
                            }
                        ],
                        "constructorArguments": "",
                        "name": "supportsInterface",
                        "returnParams": [
                            {
                                "name": "",
                                "type": "bool",
                                "value": true
                            }
                        ],
                        "signature": "supportsInterface(bytes4)"
                    },
                    "errorInfo": "",
                    "fromAddress": "0xc6bda983ce0a00142e2334bc2726c30573fe5e3e",
                    "gasUsed": 828,
                    "id": 10,
                    "methodDecoded": true,
                    "operation": "STATICCALL",
                    "output": "0x0000000000000000000000000000000000000000000000000000000000000001",
                    "revert": false,
                    "revertMessage": "",
                    "selector": "0x01ffc9a7",
                    "status": true,
                    "value": "0"
                },
                "nodeType": 0
            },
            "11": {
                "invocation": {
                    "address": "0xe38f942db7a1b4213d6213f70c499b59287b01f1",
                    "callData": "0x2a55205a00000000000000000000000000000000000000000000000000000000",
                    "decodedMethod": {
                        "callParams": [
                            {
                                "name": "interfaceId",
                                "type": "bytes4",
                                "value": "0x2a55205a"
                            }
                        ],
                        "constructorArguments": "",
                        "name": "supportsInterface",
                        "returnParams": [
                            {
                                "name": "",
                                "type": "bool",
                                "value": true
                            }
                        ],
                        "signature": "supportsInterface(bytes4)"
                    },
                    "errorInfo": "",
                    "fromAddress": "0x90eeb88e449a3ce1bf0c374cdd8835c0cd1886d8",
                    "gasUsed": 656,
                    "id": 11,
                    "methodDecoded": true,
                    "operation": "DELEGATECALL",
                    "output": "0x0000000000000000000000000000000000000000000000000000000000000001",
                    "revert": false,
                    "revertMessage": "",
                    "selector": "0x01ffc9a7",
                    "status": true,
                    "value": "0"
                },
                "nodeType": 0
            },
            "12": {
                "invocation": {
                    "address": "0x90eeb88e449a3ce1bf0c374cdd8835c0cd1886d8",
                    "callData": "0x000000000000000000000000000000000000000000000000000000000000000a0000000000000000000000000000000000000000000000000000000000002710",
                    "decodedMethod": {
                        "callParams": [
                            {
                                "name": "_tokenId",
                                "type": "uint256",
                                "value": "10"
                            },
                            {
                                "name": "_salePrice",
                                "type": "uint256",
                                "value": "10,000"
                            }
                        ],
                        "constructorArguments": "",
                        "name": "royaltyInfo",
                        "returnParams": [
                            {
                                "name": "receiver",
                                "type": "address",
                                "value": "0xd6f3bc068dd5d113aa80036dc966e446770067af"
                            },
                            {
                                "name": "royaltyAmount",
                                "type": "uint256",
                                "value": "1,000"
                            }
                        ],
                        "signature": "royaltyInfo(uint256,uint256)"
                    },
                    "errorInfo": "",
                    "fromAddress": "0xc6bda983ce0a00142e2334bc2726c30573fe5e3e",
                    "gasUsed": 3033,
                    "id": 12,
                    "methodDecoded": true,
                    "operation": "STATICCALL",
                    "output": "0x000000000000000000000000d6f3bc068dd5d113aa80036dc966e446770067af00000000000000000000000000000000000000000000000000000000000003e8",
                    "revert": false,
                    "revertMessage": "",
                    "selector": "0x2a55205a",
                    "status": true,
                    "value": "0"
                },
                "nodeType": 0
            },
            "13": {
                "invocation": {
                    "address": "0xe38f942db7a1b4213d6213f70c499b59287b01f1",
                    "callData": "0x000000000000000000000000000000000000000000000000000000000000000a0000000000000000000000000000000000000000000000000000000000002710",
                    "decodedMethod": {
                        "callParams": [
                            {
                                "name": "_tokenId",
                                "type": "uint256",
                                "value": "10"
                            },
                            {
                                "name": "_salePrice",
                                "type": "uint256",
                                "value": "10,000"
                            }
                        ],
                        "constructorArguments": "",
                        "name": "royaltyInfo",
                        "returnParams": [
                            {
                                "name": "receiver",
                                "type": "address",
                                "value": "0xd6f3bc068dd5d113aa80036dc966e446770067af"
                            },
                            {
                                "name": "royaltyAmount",
                                "type": "uint256",
                                "value": "1,000"
                            }
                        ],
                        "signature": "royaltyInfo(uint256,uint256)"
                    },
                    "errorInfo": "",
                    "fromAddress": "0x90eeb88e449a3ce1bf0c374cdd8835c0cd1886d8",
                    "gasUsed": 2852,
                    "id": 13,
                    "methodDecoded": true,
                    "operation": "DELEGATECALL",
                    "output": "0x000000000000000000000000d6f3bc068dd5d113aa80036dc966e446770067af00000000000000000000000000000000000000000000000000000000000003e8",
                    "revert": false,
                    "revertMessage": "",
                    "selector": "0x2a55205a",
                    "status": true,
                    "value": "0"
                },
                "nodeType": 0
            },
            "14": {
                "invocation": {
                    "address": "0xd6f3bc068dd5d113aa80036dc966e446770067af",
                    "callData": "0x",
                    "decodedMethod": null,
                    "errorInfo": "",
                    "fromAddress": "0xcda72070e455bb31c7690a170224ce43623d0b6f",
                    "gasUsed": 0,
                    "id": 14,
                    "methodDecoded": false,
                    "operation": "CALL",
                    "output": "",
                    "revert": false,
                    "revertMessage": "",
                    "selector": "fallback",
                    "status": true,
                    "value": "0.0209"
                },
                "nodeType": 0
            },
            "15": {
                "invocation": {
                    "address": "0x67df244584b67e8c51b10ad610aaffa9a402fdb6",
                    "callData": "0x",
                    "decodedMethod": null,
                    "errorInfo": "",
                    "fromAddress": "0xcda72070e455bb31c7690a170224ce43623d0b6f",
                    "gasUsed": 7204,
                    "id": 15,
                    "methodDecoded": false,
                    "operation": "CALL",
                    "output": "",
                    "revert": false,
                    "revertMessage": "",
                    "selector": "fallback",
                    "status": true,
                    "value": "0.0011"
                },
                "nodeType": 0
            },
            "16": {
                "invocation": {
                    "address": "0x1c0df262a40f99d7d6145faba04db75d1126f93d",
                    "callData": "0x",
                    "decodedMethod": null,
                    "errorInfo": "",
                    "fromAddress": "0x67df244584b67e8c51b10ad610aaffa9a402fdb6",
                    "gasUsed": 55,
                    "id": 16,
                    "methodDecoded": false,
                    "operation": "DELEGATECALL",
                    "output": "",
                    "revert": false,
                    "revertMessage": "",
                    "selector": "fallback",
                    "status": true,
                    "value": "0.0011"
                },
                "nodeType": 0
            },
            "17": {
                "event": {
                    "contract": "0xcda72070e455bb31c7690a170224ce43623d0b6f",
                    "decodedLog": {
                        "name": "BuyPriceAccepted",
                        "params": [
                            {
                                "name": "nftContract",
                                "type": "address",
                                "value": "0x90eeb88e449a3ce1bf0c374cdd8835c0cd1886d8"
                            },
                            {
                                "name": "tokenId",
                                "type": "uint256",
                                "value": "10"
                            },
                            {
                                "name": "seller",
                                "type": "address",
                                "value": "0xd6f3bc068dd5d113aa80036dc966e446770067af"
                            },
                            {
                                "name": "buyer",
                                "type": "address",
                                "value": "0xc79da3c2652dcd847009b71b6ecf21264f4e6b7b"
                            },
                            {
                                "name": "totalFees",
                                "type": "uint256",
                                "value": "1,100,000,000,000,000"
                            },
                            {
                                "name": "creatorRev",
                                "type": "uint256",
                                "value": "20,900,000,000,000,000"
                            },
                            {
                                "name": "sellerRev",
                                "type": "uint256",
                                "value": "0"
                            }
                        ],
                        "signature": "BuyPriceAccepted(address,uint256,address,address,uint256,uint256,uint256)"
                    },
                    "id": 17,
                    "logData": "0x000000000000000000000000c79da3c2652dcd847009b71b6ecf21264f4e6b7b0000000000000000000000000000000000000000000000000003e871b540c000000000000000000000000000000000000000000000000000004a407073ce40000000000000000000000000000000000000000000000000000000000000000000",
                    "logDecoded": true,
                    "operation": "EVENT",
                    "revert": false,
                    "status": true,
                    "topics": [
                        "0xd28c0a7dd63bc853a4e36306655da9f8c0b29ff9d0605bb976ae420e46a99930",
                        "0x00000000000000000000000090eeb88e449a3ce1bf0c374cdd8835c0cd1886d8",
                        "0x000000000000000000000000000000000000000000000000000000000000000a",
                        "0x000000000000000000000000d6f3bc068dd5d113aa80036dc966e446770067af"
                    ]
                },
                "nodeType": 1
            },
            "2": {
                "invocation": {
                    "address": "0x90eeb88e449a3ce1bf0c374cdd8835c0cd1886d8",
                    "callData": "0x000000000000000000000000cda72070e455bb31c7690a170224ce43623d0b6f000000000000000000000000c79da3c2652dcd847009b71b6ecf21264f4e6b7b000000000000000000000000000000000000000000000000000000000000000a",
                    "decodedMethod": {
                        "callParams": [
                            {
                                "name": "from",
                                "type": "address",
                                "value": "0xcda72070e455bb31c7690a170224ce43623d0b6f"
                            },
                            {
                                "name": "to",
                                "type": "address",
                                "value": "0xc79da3c2652dcd847009b71b6ecf21264f4e6b7b"
                            },
                            {
                                "decimalAvailable": true,
                                "name": "tokenId",
                                "type": "uint256",
                                "value": "10"
                            }
                        ],
                        "constructorArguments": "",
                        "name": "transferFrom",
                        "returnParams": [],
                        "signature": "transferFrom(address,address,uint256)"
                    },
                    "errorInfo": "",
                    "fromAddress": "0xcda72070e455bb31c7690a170224ce43623d0b6f",
                    "gasUsed": 43166,
                    "id": 2,
                    "methodDecoded": true,
                    "operation": "CALL",
                    "output": "",
                    "revert": false,
                    "revertMessage": "",
                    "selector": "0x23b872dd",
                    "status": true,
                    "value": "0"
                },
                "nodeType": 0
            },
            "3": {
                "invocation": {
                    "address": "0xe38f942db7a1b4213d6213f70c499b59287b01f1",
                    "callData": "0x000000000000000000000000cda72070e455bb31c7690a170224ce43623d0b6f000000000000000000000000c79da3c2652dcd847009b71b6ecf21264f4e6b7b000000000000000000000000000000000000000000000000000000000000000a",
                    "decodedMethod": {
                        "callParams": [
                            {
                                "name": "from",
                                "type": "address",
                                "value": "0xcda72070e455bb31c7690a170224ce43623d0b6f"
                            },
                            {
                                "name": "to",
                                "type": "address",
                                "value": "0xc79da3c2652dcd847009b71b6ecf21264f4e6b7b"
                            },
                            {
                                "decimalAvailable": true,
                                "name": "tokenId",
                                "type": "uint256",
                                "value": "10"
                            }
                        ],
                        "constructorArguments": "",
                        "name": "transferFrom",
                        "returnParams": [],
                        "signature": "transferFrom(address,address,uint256)"
                    },
                    "errorInfo": "",
                    "fromAddress": "0x90eeb88e449a3ce1bf0c374cdd8835c0cd1886d8",
                    "gasUsed": 40485,
                    "id": 3,
                    "methodDecoded": true,
                    "operation": "DELEGATECALL",
                    "output": "",
                    "revert": false,
                    "revertMessage": "",
                    "selector": "0x23b872dd",
                    "status": true,
                    "value": "0"
                },
                "nodeType": 0
            },
            "4": {
                "event": {
                    "contract": "0x90eeb88e449a3ce1bf0c374cdd8835c0cd1886d8",
                    "decodedLog": {
                        "name": "Approval",
                        "params": [
                            {
                                "name": "owner",
                                "type": "address",
                                "value": "0xcda72070e455bb31c7690a170224ce43623d0b6f"
                            },
                            {
                                "name": "approved",
                                "type": "address",
                                "value": "0x0000000000000000000000000000000000000000"
                            },
                            {
                                "decimalAvailable": true,
                                "name": "tokenId",
                                "type": "uint256",
                                "value": "10"
                            }
                        ],
                        "signature": "Approval(address,address,uint256)"
                    },
                    "id": 4,
                    "logData": "0x",
                    "logDecoded": true,
                    "operation": "EVENT",
                    "revert": false,
                    "status": true,
                    "topics": [
                        "0x8c5be1e5ebec7d5bd14f71427d1e84f3dd0314c0f7b2291e5b200ac8c7c3b925",
                        "0x000000000000000000000000cda72070e455bb31c7690a170224ce43623d0b6f",
                        "0x0000000000000000000000000000000000000000000000000000000000000000",
                        "0x000000000000000000000000000000000000000000000000000000000000000a"
                    ]
                },
                "nodeType": 1
            },
            "5": {
                "event": {
                    "contract": "0x90eeb88e449a3ce1bf0c374cdd8835c0cd1886d8",
                    "decodedLog": {
                        "name": "Transfer",
                        "params": [
                            {
                                "name": "from",
                                "type": "address",
                                "value": "0xcda72070e455bb31c7690a170224ce43623d0b6f"
                            },
                            {
                                "name": "to",
                                "type": "address",
                                "value": "0xc79da3c2652dcd847009b71b6ecf21264f4e6b7b"
                            },
                            {
                                "decimalAvailable": true,
                                "name": "tokenId",
                                "type": "uint256",
                                "value": "10"
                            }
                        ],
                        "signature": "Transfer(address,address,uint256)"
                    },
                    "id": 5,
                    "logData": "0x",
                    "logDecoded": true,
                    "operation": "EVENT",
                    "revert": false,
                    "status": true,
                    "topics": [
                        "0xddf252ad1be2c89b69c2b068fc378daa952ba7f163c4a11628f55a4df523b3ef",
                        "0x000000000000000000000000cda72070e455bb31c7690a170224ce43623d0b6f",
                        "0x000000000000000000000000c79da3c2652dcd847009b71b6ecf21264f4e6b7b",
                        "0x000000000000000000000000000000000000000000000000000000000000000a"
                    ]
                },
                "nodeType": 1
            },
            "6": {
                "invocation": {
                    "address": "0xc6bda983ce0a00142e2334bc2726c30573fe5e3e",
                    "callData": "0x00000000000000000000000090eeb88e449a3ce1bf0c374cdd8835c0cd1886d8000000000000000000000000000000000000000000000000000000000000000a",
                    "decodedMethod": {
                        "callParams": [
                            {
                                "name": "nftContract",
                                "type": "address",
                                "value": "0x90eeb88e449a3ce1bf0c374cdd8835c0cd1886d8"
                            },
                            {
                                "name": "tokenId",
                                "type": "uint256",
                                "value": "10"
                            }
                        ],
                        "constructorArguments": "",
                        "name": "internalGetTokenCreator",
                        "returnParams": [
                            {
                                "name": "creator",
                                "type": "address",
                                "value": "0xd6f3bc068dd5d113aa80036dc966e446770067af"
                            }
                        ],
                        "signature": "internalGetTokenCreator(address,uint256)"
                    },
                    "errorInfo": "",
                    "fromAddress": "0xcda72070e455bb31c7690a170224ce43623d0b6f",
                    "gasUsed": 3644,
                    "id": 6,
                    "methodDecoded": true,
                    "operation": "STATICCALL",
                    "output": "0x000000000000000000000000d6f3bc068dd5d113aa80036dc966e446770067af",
                    "revert": false,
                    "revertMessage": "",
                    "selector": "0x4c542f77",
                    "status": true,
                    "value": "0"
                },
                "nodeType": 0
            },
            "7": {
                "invocation": {
                    "address": "0x90eeb88e449a3ce1bf0c374cdd8835c0cd1886d8",
                    "callData": "0x000000000000000000000000000000000000000000000000000000000000000a",
                    "decodedMethod": {
                        "callParams": [
                            {
                                "name": "",
                                "type": "uint256",
                                "value": "10"
                            }
                        ],
                        "constructorArguments": "",
                        "name": "tokenCreator",
                        "returnParams": [
                            {
                                "name": "",
                                "type": "address",
                                "value": "0xd6f3bc068dd5d113aa80036dc966e446770067af"
                            }
                        ],
                        "signature": "tokenCreator(uint256)"
                    },
                    "errorInfo": "",
                    "fromAddress": "0xc6bda983ce0a00142e2334bc2726c30573fe5e3e",
                    "gasUsed": 2676,
                    "id": 7,
                    "methodDecoded": true,
                    "operation": "STATICCALL",
                    "output": "0x000000000000000000000000d6f3bc068dd5d113aa80036dc966e446770067af",
                    "revert": false,
                    "revertMessage": "",
                    "selector": "0x40c1a064",
                    "status": true,
                    "value": "0"
                },
                "nodeType": 0
            },
            "8": {
                "invocation": {
                    "address": "0xe38f942db7a1b4213d6213f70c499b59287b01f1",
                    "callData": "0x000000000000000000000000000000000000000000000000000000000000000a",
                    "decodedMethod": {
                        "callParams": [
                            {
                                "name": "",
                                "type": "uint256",
                                "value": "10"
                            }
                        ],
                        "constructorArguments": "",
                        "name": "tokenCreator",
                        "returnParams": [
                            {
                                "name": "",
                                "type": "address",
                                "value": "0xd6f3bc068dd5d113aa80036dc966e446770067af"
                            }
                        ],
                        "signature": "tokenCreator(uint256)"
                    },
                    "errorInfo": "",
                    "fromAddress": "0x90eeb88e449a3ce1bf0c374cdd8835c0cd1886d8",
                    "gasUsed": 2504,
                    "id": 8,
                    "methodDecoded": true,
                    "operation": "DELEGATECALL",
                    "output": "0x000000000000000000000000d6f3bc068dd5d113aa80036dc966e446770067af",
                    "revert": false,
                    "revertMessage": "",
                    "selector": "0x40c1a064",
                    "status": true,
                    "value": "0"
                },
                "nodeType": 0
            },
            "9": {
                "invocation": {
                    "address": "0xc6bda983ce0a00142e2334bc2726c30573fe5e3e",
                    "callData": "0x00000000000000000000000090eeb88e449a3ce1bf0c374cdd8835c0cd1886d8000000000000000000000000000000000000000000000000000000000000000a",
                    "decodedMethod": {
                        "callParams": [
                            {
                                "name": "nftContract",
                                "type": "address",
                                "value": "0x90eeb88e449a3ce1bf0c374cdd8835c0cd1886d8"
                            },
                            {
                                "name": "tokenId",
                                "type": "uint256",
                                "value": "10"
                            }
                        ],
                        "constructorArguments": "",
                        "name": "internalGetImmutableRoyalties",
                        "returnParams": [
                            {
                                "name": "recipients",
                                "type": "address[]",
                                "value": [
                                    "0xd6f3bc068dd5d113aa80036dc966e446770067af"
                                ]
                            },
                            {
                                "name": "splitPerRecipientInBasisPoints",
                                "type": "uint256[]",
                                "value": [
                                    "0"
                                ]
                            }
                        ],
                        "signature": "internalGetImmutableRoyalties(address,uint256)"
                    },
                    "errorInfo": "",
                    "fromAddress": "0xcda72070e455bb31c7690a170224ce43623d0b6f",
                    "gasUsed": 6110,
                    "id": 9,
                    "methodDecoded": true,
                    "operation": "STATICCALL",
                    "output": "0x000000000000000000000000000000000000000000000000000000000000004000000000000000000000000000000000000000000000000000000000000000800000000000000000000000000000000000000000000000000000000000000001000000000000000000000000d6f3bc068dd5d113aa80036dc966e446770067af00000000000000000000000000000000000000000000000000000000000000010000000000000000000000000000000000000000000000000000000000000000",
                    "revert": false,
                    "revertMessage": "",
                    "selector": "0x0d7daf3e",
                    "status": true,
                    "value": "0"
                },
                "nodeType": 0
            }
        },
        "gasFlame": [
            {
                "children": [
                    {
                        "children": [
                            {
                                "children": [],
                                "depth": 0,
                                "name": "Initial Gas",
                                "value": 21888
                            },
                            {
                                "children": [
                                    {
                                        "children": [
                                            {
                                                "children": [
                                                    {
                                                        "children": [],
                                                        "depth": 3,
                                                        "name": "transferFrom",
                                                        "value": 40485
                                                    }
                                                ],
                                                "depth": 2,
                                                "name": "transferFrom",
                                                "value": 43166
                                            },
                                            {
                                                "children": [
                                                    {
                                                        "children": [
                                                            {
                                                                "children": [],
                                                                "depth": 4,
                                                                "name": "tokenCreator",
                                                                "value": 2504
                                                            }
                                                        ],
                                                        "depth": 3,
                                                        "name": "tokenCreator",
                                                        "value": 2676
                                                    }
                                                ],
                                                "depth": 2,
                                                "name": "internalGetTokenCreator",
                                                "value": 3644
                                            },
                                            {
                                                "children": [
                                                    {
                                                        "children": [
                                                            {
                                                                "children": [],
                                                                "depth": 4,
                                                                "name": "supportsInterface",
                                                                "value": 656
                                                            }
                                                        ],
                                                        "depth": 3,
                                                        "name": "supportsInterface",
                                                        "value": 828
                                                    },
                                                    {
                                                        "children": [
                                                            {
                                                                "children": [],
                                                                "depth": 4,
                                                                "name": "royaltyInfo",
                                                                "value": 2852
                                                            }
                                                        ],
                                                        "depth": 3,
                                                        "name": "royaltyInfo",
                                                        "value": 3033
                                                    }
                                                ],
                                                "depth": 2,
                                                "name": "internalGetImmutableRoyalties",
                                                "value": 6110
                                            },
                                            {
                                                "children": [],
                                                "depth": 2,
                                                "name": "fallback",
                                                "value": 0
                                            },
                                            {
                                                "children": [
                                                    {
                                                        "children": [],
                                                        "depth": 3,
                                                        "name": "fallback",
                                                        "value": 55
                                                    }
                                                ],
                                                "depth": 2,
                                                "name": "fallback",
                                                "value": 7204
                                            }
                                        ],
                                        "depth": 1,
                                        "name": "buyV2",
                                        "value": 107990
                                    }
                                ],
                                "depth": 0,
                                "name": "Executed Gas",
                                "value": 115278
                            }
                        ],
                        "depth": -1,
                        "name": "Actual Gas Used",
                        "value": 129566
                    },
                    {
                        "children": [],
                        "depth": -1,
                        "name": "Refunded Gas",
                        "value": 7600
                    }
                ],
                "depth": -2,
                "name": "Total Gas",
                "value": 137166
            }
        ],
        "isConfirmed": true,
        "mainTrace": [
            {
                "children": [
                    {
                        "children": [
                            {
                                "children": [
                                    {
                                        "children": [
                                            {
                                                "children": [
                                                    {
                                                        "children": [],
                                                        "depth": 4,
                                                        "id": 4,
                                                        "order": 4
                                                    },
                                                    {
                                                        "children": [],
                                                        "depth": 4,
                                                        "id": 5,
                                                        "order": 5
                                                    }
                                                ],
                                                "depth": 3,
                                                "id": 3,
                                                "order": 3
                                            }
                                        ],
                                        "depth": 2,
                                        "id": 2,
                                        "order": 2
                                    },
                                    {
                                        "children": [
                                            {
                                                "children": [
                                                    {
                                                        "children": [],
                                                        "depth": 4,
                                                        "id": 8,
                                                        "order": 8
                                                    }
                                                ],
                                                "depth": 3,
                                                "id": 7,
                                                "order": 7
                                            }
                                        ],
                                        "depth": 2,
                                        "id": 6,
                                        "order": 6
                                    },
                                    {
                                        "children": [
                                            {
                                                "children": [
                                                    {
                                                        "children": [],
                                                        "depth": 4,
                                                        "id": 11,
                                                        "order": 11
                                                    }
                                                ],
                                                "depth": 3,
                                                "id": 10,
                                                "order": 10
                                            },
                                            {
                                                "children": [
                                                    {
                                                        "children": [],
                                                        "depth": 4,
                                                        "id": 13,
                                                        "order": 13
                                                    }
                                                ],
                                                "depth": 3,
                                                "id": 12,
                                                "order": 12
                                            }
                                        ],
                                        "depth": 2,
                                        "id": 9,
                                        "order": 9
                                    },
                                    {
                                        "children": [],
                                        "depth": 2,
                                        "id": 14,
                                        "order": 14
                                    },
                                    {
                                        "children": [
                                            {
                                                "children": [],
                                                "depth": 3,
                                                "id": 16,
                                                "order": 16
                                            }
                                        ],
                                        "depth": 2,
                                        "id": 15,
                                        "order": 15
                                    },
                                    {
                                        "children": [],
                                        "depth": 2,
                                        "id": 17,
                                        "order": 17
                                    }
                                ],
                                "depth": 1,
                                "id": 1,
                                "order": 1
                            }
                        ],
                        "depth": 0,
                        "id": 0,
                        "order": 0
                    }
                ],
                "depth": -1,
                "id": -1,
                "order": -1
            }
        ],
        "mainTraceNodeCount": 18,
        "parentIdMap": {
            "0": -1,
            "1": 0,
            "10": 9,
            "11": 10,
            "12": 9,
            "13": 12,
            "14": 1,
            "15": 1,
            "16": 15,
            "17": 1,
            "2": 1,
            "3": 2,
            "4": 3,
            "5": 3,
            "6": 1,
            "7": 6,
            "8": 7,
            "9": 1
        },
        "tidyTrace": [
            {
                "children": [
                    {
                        "children": [
                            {
                                "children": [
                                    {
                                        "children": [
                                            {
                                                "children": [
                                                    {
                                                        "children": [],
                                                        "depth": 4,
                                                        "id": 4,
                                                        "order": 4
                                                    },
                                                    {
                                                        "children": [],
                                                        "depth": 4,
                                                        "id": 5,
                                                        "order": 5
                                                    }
                                                ],
                                                "depth": 3,
                                                "id": 3,
                                                "order": 3
                                            }
                                        ],
                                        "depth": 2,
                                        "id": 2,
                                        "order": 2
                                    },
                                    {
                                        "children": [],
                                        "depth": 2,
                                        "id": 14,
                                        "order": 14
                                    },
                                    {
                                        "children": [
                                            {
                                                "children": [],
                                                "depth": 3,
                                                "id": 16,
                                                "order": 16
                                            }
                                        ],
                                        "depth": 2,
                                        "id": 15,
                                        "order": 15
                                    },
                                    {
                                        "children": [],
                                        "depth": 2,
                                        "id": 17,
                                        "order": 17
                                    }
                                ],
                                "depth": 1,
                                "id": 1,
                                "order": 1
                            }
                        ],
                        "depth": 0,
                        "id": 0,
                        "order": 0
                    }
                ],
                "depth": -1,
                "id": -1,
                "order": -1
            }
        ],
        "tidyTraceNodeCount": 10
    },
    "state_change": {
        "stateChanges": [
            {
                "address": "0x90eeb88e449a3ce1bf0c374cdd8835c0cd1886d8",
                "erc": "ERC-721",
                "slots": [
                    {
                        "current": "0x0000000000000000000000000000000000000000000000000000000000000017",
                        "key": "0xeb40862b1d6c4ab7ecfc5aea55b22c875e4ab0a78d1a611b68c7ad49f7631166",
                        "prev": "0x0000000000000000000000000000000000000000000000000000000000000018"
                    },
                    {
                        "current": "0x0000000000000000000000000000000000000000000000000000000000000001",
                        "key": "0xe6242a48f608e210b3dafb2c81b9b72f36a8deb45c17ffd1988053f02b614274",
                        "prev": "0x0000000000000000000000000000000000000000000000000000000000000000"
                    },
                    {
                        "current": "0x000000000000000000000000c79da3c2652dcd847009b71b6ecf21264f4e6b7b",
                        "key": "0xb10bae057df4eeed4491902e236dc3c914068f619b69f3e0ec9770a23773d56f",
                        "prev": "0x000000000000000000000000cda72070e455bb31c7690a170224ce43623d0b6f"
                    }
                ],
                "storageVariables": [
                    {
                        "name": "_balances",
                        "type": "mapping(address => uint256)",
                        "value": {
                            "pairs": [
                                {
                                    "key": "0xc79da3c2652dcd847009b71b6ecf21264f4e6b7b",
                                    "value": {
                                        "current": "1",
                                        "prev": "0",
                                        "typeTag": 1
                                    }
                                },
                                {
                                    "key": "0xcda72070e455bb31c7690a170224ce43623d0b6f",
                                    "value": {
                                        "current": "23",
                                        "prev": "24",
                                        "typeTag": 1
                                    }
                                }
                            ],
                            "typeTag": 4
                        }
                    },
                    {
                        "name": "_owners",
                        "type": "mapping(uint256 => address)",
                        "value": {
                            "pairs": [
                                {
                                    "key": "10",
                                    "value": {
                                        "current": "0xc79da3c2652dcd847009b71b6ecf21264f4e6b7b",
                                        "prev": "0xcda72070e455bb31c7690a170224ce43623d0b6f",
                                        "typeTag": 1
                                    }
                                }
                            ],
                            "typeTag": 4
                        }
                    }
                ]
            },
            {
                "address": "0xcda72070e455bb31c7690a170224ce43623d0b6f",
                "erc": "",
                "slots": [
                    {
                        "current": "0x0000000000000000000000000000000000000000000000000000000000000000",
                        "key": "0xfccbd6971bbab7ca30b347dd6b7e872f2a2236abf78b44a71d56f69be1a39c22",
                        "prev": "0x00000000004e28e2290f0000d6f3bc068dd5d113aa80036dc966e446770067af"
                    }
                ],
                "storageVariables": [
                    {
                        "name": "nftContractToTokenIdToBuyPrice",
                        "type": "mapping(address => mapping(uint256 => struct NFTMarketBuyPrice.BuyPrice))",
                        "value": {
                            "pairs": [
                                {
                                    "key": "0x90eeb88e449a3ce1bf0c374cdd8835c0cd1886d8",
                                    "value": {
                                        "pairs": [
                                            {
                                                "key": "10",
                                                "value": {
                                                    "fields": [
                                                        {
                                                            "name": "seller",
                                                            "type": "address payable",
                                                            "value": {
                                                                "current": "0x0000000000000000000000000000000000000000",
                                                                "prev": "0xd6f3bc068dd5d113aa80036dc966e446770067af",
                                                                "typeTag": 1
                                                            }
                                                        },
                                                        {
                                                            "name": "price",
                                                            "type": "uint96",
                                                            "value": {
                                                                "current": "0",
                                                                "prev": "22000000000000000",
                                                                "typeTag": 1
                                                            }
                                                        }
                                                    ],
                                                    "typeTag": 3
                                                }
                                            }
                                        ],
                                        "typeTag": 4
                                    }
                                }
                            ],
                            "typeTag": 4
                        }
                    }
                ]
            }
        ]
    }
}