{
    "balance_change": {
        "balanceChanges": [
            {
                "account": "0xdf9bac2de42c32cb38f1fa0b33a0b5a195ba34ff",
                "assets": [
                    {
                        "address": "0xeeeeeeeeeeeeeeeeeeeeeeeeeeeeeeeeeeeeeeee",
                        "amount": "0.06",
                        "iconUrl": "https://assets.blocksec.com/image/1663669189317-3.png",
                        "isERC1155": false,
                        "isERC721": false,
                        "sign": false,
                        "value": "75.51419999999999618"
                    },
                    {
                        "address": "0x2ede18ee26e311032db5ecff554f465bc17eb4a0",
                        "amount": "1",
                        "iconUrl": "",
                        "isERC1155": false,
                        "isERC721": true,
                        "sign": true,
                        "tokenID": "362",
                        "value": ""
                    },
                    {
                        "address": "0x2ede18ee26e311032db5ecff554f465bc17eb4a0",
                        "amount": "1",
                        "iconUrl": "",
                        "isERC1155": false,
                        "isERC721": true,
                        "sign": true,
                        "tokenID": "363",
                        "value": ""
                    },
                    {
                        "address": "0x2ede18ee26e311032db5ecff554f465bc17eb4a0",
                        "amount": "1",
                        "iconUrl": "",
                        "isERC1155": false,
                        "isERC721": true,
                        "sign": true,
                        "tokenID": "364",
                        "value": ""
                    },
                    {
                        "address": "0x2ede18ee26e311032db5ecff554f465bc17eb4a0",
                        "amount": "1",
                        "iconUrl": "",
                        "isERC1155": false,
                        "isERC721": true,
                        "sign": true,
                        "tokenID": "365",
                        "value": ""
                    }
                ]
            },
            {
                "account": "0x2ede18ee26e311032db5ecff554f465bc17eb4a0",
                "assets": [
                    {
                        "address": "0xeeeeeeeeeeeeeeeeeeeeeeeeeeeeeeeeeeeeeeee",
                        "amount": "0.06",
                        "iconUrl": "https://assets.blocksec.com/image/1663669189317-3.png",
                        "isERC1155": false,
                        "isERC721": false,
                        "sign": true,
                        "value": "75.51419999999999618"
                    }
                ]
            },
            {
                "account": "0x0000000000000000000000000000000000000000",
                "assets": [
                    {
                        "address": "0x2ede18ee26e311032db5ecff554f465bc17eb4a0",
                        "amount": "1",
                        "iconUrl": "",
                        "isERC1155": false,
                        "isERC721": true,
                        "sign": false,
                        "tokenID": "362",
                        "value": ""
                    },
                    {
                        "address": "0x2ede18ee26e311032db5ecff554f465bc17eb4a0",
                        "amount": "1",
                        "iconUrl": "",
                        "isERC1155": false,
                        "isERC721": true,
                        "sign": false,
                        "tokenID": "363",
                        "value": ""
                    },
                    {
                        "address": "0x2ede18ee26e311032db5ecff554f465bc17eb4a0",
                        "amount": "1",
                        "iconUrl": "",
                        "isERC1155": false,
                        "isERC721": true,
                        "sign": false,
                        "tokenID": "364",
                        "value": ""
                    },
                    {
                        "address": "0x2ede18ee26e311032db5ecff554f465bc17eb4a0",
                        "amount": "1",
                        "iconUrl": "",
                        "isERC1155": false,
                        "isERC721": true,
                        "sign": false,
                        "tokenID": "365",
                        "value": ""
                    }
                ]
            }
        ]
    },
    "profile": {
        "basic_info": {
            "baseFee": "10.791237569",
            "blockNumber": 15956678,
            "callData": "0x9fb17e340000000000000000000000000000000000000000000000000000000000000004",
            "debugEnable": true,
            "errorInfo": "",
            "eventCount": 4,
            "feeRecipient": "0x95222290dd7278aa3ddd389cc1e1d165cc4bafe5",
            "formatValue": "0.06",
            "gasLimit": 121061,
            "gasPrice": "12.291237569",
            "gasUsed": 121061,
            "intTxnCount": 0,
            "internalRevert": false,
            "internalRevertMessage": "",
            "isContractCreation": false,
            "isFlashloan": false,
            "maxFee": "16.126960268",
            "nonce": 79,
            "overwritedBlockNumber": -1,
            "priorityFee": "1.5",
            "receiver": "0x2ede18ee26e311032db5ecff554f465bc17eb4a0",
            "revertMessage": "",
            "sender": "0xdf9bac2de42c32cb38f1fa0b33a0b5a195ba34ff",
            "simulationEnable": true,
            "sourceTxnHash": "0x97a574dc31abfc1d477ad088fd104aaa2eb04e2e8928cce7c188eeec3948a92f",
            "status": true,
            "timestamp": "2022-11-12T21:39:23Z",
            "transactionFee": "0.001487989511340709",
            "txnHash": "0x97a574dc31abfc1d477ad088fd104aaa2eb04e2e8928cce7c188eeec3948a92f",
            "txnIndex": 54,
            "type": 2,
            "value": "60000000000000000"
        },
        "fund_flow": [
            {
                "amount": "0.06",
                "from": "0xdf9bac2de42c32cb38f1fa0b33a0b5a195ba34ff",
                "id": 1,
                "isERC1155": false,
                "isERC721": false,
                "isReverted": false,
                "order": 1,
                "to": "0x2ede18ee26e311032db5ecff554f465bc17eb4a0",
                "token": "0xeeeeeeeeeeeeeeeeeeeeeeeeeeeeeeeeeeeeeeee"
            },
            {
                "amount": "1",
                "from": "0x0000000000000000000000000000000000000000",
                "id": 2,
                "isERC1155": false,
                "isERC721": true,
                "isReverted": false,
                "order": 2,
                "to": "0xdf9bac2de42c32cb38f1fa0b33a0b5a195ba34ff",
                "token": "0x2ede18ee26e311032db5ecff554f465bc17eb4a0",
                "tokenID": "362"
            },
            {
                "amount": "1",
                "from": "0x0000000000000000000000000000000000000000",
                "id": 3,
                "isERC1155": false,
                "isERC721": true,
                "isReverted": false,
                "order": 3,
                "to": "0xdf9bac2de42c32cb38f1fa0b33a0b5a195ba34ff",
                "token": "0x2ede18ee26e311032db5ecff554f465bc17eb4a0",
                "tokenID": "363"
            },
            {
                "amount": "1",
                "from": "0x0000000000000000000000000000000000000000",
                "id": 4,
                "isERC1155": false,
                "isERC721": true,
                "isReverted": false,
                "order": 4,
                "to": "0xdf9bac2de42c32cb38f1fa0b33a0b5a195ba34ff",
                "token": "0x2ede18ee26e311032db5ecff554f465bc17eb4a0",
                "tokenID": "364"
            },
            {
                "amount": "1",
                "from": "0x0000000000000000000000000000000000000000",
                "id": 5,
                "isERC1155": false,
                "isERC721": true,
                "isReverted": false,
                "order": 5,
                "to": "0xdf9bac2de42c32cb38f1fa0b33a0b5a195ba34ff",
                "token": "0x2ede18ee26e311032db5ecff554f465bc17eb4a0",
                "tokenID": "365"
            }
        ],
        "token_infos": [
            {
                "address": "0xc02aaa39b223fe8d0a0e5c4f27ead9083c756cc2",
                "decimals": 18
            },
            {
                "address": "0xeeeeeeeeeeeeeeeeeeeeeeeeeeeeeeeeeeeeeeee",
                "decimals": 18
            }
        ]
    },
    "address_label": {
        "labels": [
            {
                "address": "0x0000000000000000000000000000000000000003",
                "label": "Precompiled"
            },
            {
                "address": "0x0000000000000000000000000000000000000004",
                "label": "Precompiled"
            },
            {
                "address": "0xeeeeeeeeeeeeeeeeeeeeeeeeeeeeeeeeeeeeeeee",
                "label": "Ether"
            },
            {
                "address": "0x2ede18ee26e311032db5ecff554f465bc17eb4a0",
                "label": "Hikiko Hearts (HIKIH)"
            },
            {
                "address": "0x0000000000000000000000000000000000000001",
                "label": "Precompiled"
            },
            {
                "address": "0x0000000000000000000000000000000000000002",
                "label": "Precompiled"
            }
        ]
    },
    "trace": {
        "accountLabels": null,
        "dataMap": {
            "-1": {
                "invocation": {
                    "address": "0xdf9bac2de42c32cb38f1fa0b33a0b5a195ba34ff",
                    "callData": "",
                    "decodedMethod": null,
                    "errorInfo": "",
                    "fromAddress": "",
                    "gasUsed": 0,
                    "id": -1,
                    "methodDecoded": false,
                    "operation": "",
                    "output": "",
                    "revert": false,
                    "revertMessage": "",
                    "selector": "",
                    "status": false,
                    "value": ""
                },
                "nodeType": 0
            },
            "0": {
                "invocation": {
                    "address": "0x2ede18ee26e311032db5ecff554f465bc17eb4a0",
                    "callData": "0x0000000000000000000000000000000000000000000000000000000000000004",
                    "decodedMethod": {
                        "callParams": [
                            {
                                "name": "_mintAmount",
                                "type": "uint256",
                                "value": "4"
                            }
                        ],
                        "constructorArguments": "",
                        "name": "PublicMint",
                        "returnParams": [],
                        "signature": "PublicMint(uint256)"
                    },
                    "errorInfo": "",
                    "fromAddress": "0xdf9bac2de42c32cb38f1fa0b33a0b5a195ba34ff",
                    "gasUsed": 121061,
                    "id": 0,
                    "methodDecoded": true,
                    "operation": "CALL",
                    "output": "",
                    "revert": false,
                    "revertMessage": "",
                    "selector": "0x9fb17e34",
                    "status": true,
                    "value": "0.06"
                },
                "nodeType": 0
            },
            "1": {
                "event": {
                    "contract": "0x2ede18ee26e311032db5ecff554f465bc17eb4a0",
                    "decodedLog": {
                        "name": "Transfer",
                        "params": [
                            {
                                "name": "from",
                                "type": "address",
                                "value": "0x0000000000000000000000000000000000000000"
                            },
                            {
                                "name": "to",
                                "type": "address",
                                "value": "0xdf9bac2de42c32cb38f1fa0b33a0b5a195ba34ff"
                            },
                            {
                                "decimalAvailable": true,
                                "name": "tokenId",
                                "type": "uint256",
                                "value": "362"
                            }
                        ],
                        "signature": "Transfer(address,address,uint256)"
                    },
                    "id": 1,
                    "logData": "0x",
                    "logDecoded": true,
                    "operation": "EVENT",
                    "revert": false,
                    "status": true,
                    "topics": [
                        "0xddf252ad1be2c89b69c2b068fc378daa952ba7f163c4a11628f55a4df523b3ef",
                        "0x0000000000000000000000000000000000000000000000000000000000000000",
                        "0x000000000000000000000000df9bac2de42c32cb38f1fa0b33a0b5a195ba34ff",
                        "0x000000000000000000000000000000000000000000000000000000000000016a"
                    ]
                },
                "nodeType": 1
            },
            "2": {
                "event": {
                    "contract": "0x2ede18ee26e311032db5ecff554f465bc17eb4a0",
                    "decodedLog": {
                        "name": "Transfer",
                        "params": [
                            {
                                "name": "from",
                                "type": "address",
                                "value": "0x0000000000000000000000000000000000000000"
                            },
                            {
                                "name": "to",
                                "type": "address",
                                "value": "0xdf9bac2de42c32cb38f1fa0b33a0b5a195ba34ff"
                            },
                            {
                                "decimalAvailable": true,
                                "name": "tokenId",
                                "type": "uint256",
                                "value": "363"
                            }
                        ],
                        "signature": "Transfer(address,address,uint256)"
                    },
                    "id": 2,
                    "logData": "0x",
                    "logDecoded": true,
                    "operation": "EVENT",
                    "revert": false,
                    "status": true,
                    "topics": [
                        "0xddf252ad1be2c89b69c2b068fc378daa952ba7f163c4a11628f55a4df523b3ef",
                        "0x0000000000000000000000000000000000000000000000000000000000000000",
                        "0x000000000000000000000000df9bac2de42c32cb38f1fa0b33a0b5a195ba34ff",
                        "0x000000000000000000000000000000000000000000000000000000000000016b"
                    ]
                },
                "nodeType": 1
            },
            "3": {
                "event": {
                    "contract": "0x2ede18ee26e311032db5ecff554f465bc17eb4a0",
                    "decodedLog": {
                        "name": "Transfer",
                        "params": [
                            {
                                "name": "from",
                                "type": "address",
                                "value": "0x0000000000000000000000000000000000000000"
                            },
                            {
                                "name": "to",
                                "type": "address",
                                "value": "0xdf9bac2de42c32cb38f1fa0b33a0b5a195ba34ff"
                            },
                            {
                                "decimalAvailable": true,
                                "name": "tokenId",
                                "type": "uint256",
                                "value": "364"
                            }
                        ],
                        "signature": "Transfer(address,address,uint256)"
                    },
                    "id": 3,
                    "logData": "0x",
                    "logDecoded": true,
                    "operation": "EVENT",
                    "revert": false,
                    "status": true,
                    "topics": [
                        "0xddf252ad1be2c89b69c2b068fc378daa952ba7f163c4a11628f55a4df523b3ef",
                        "0x0000000000000000000000000000000000000000000000000000000000000000",
                        "0x000000000000000000000000df9bac2de42c32cb38f1fa0b33a0b5a195ba34ff",
                        "0x000000000000000000000000000000000000000000000000000000000000016c"
                    ]
                },
                "nodeType": 1
            },
            "4": {
                "event": {
                    "contract": "0x2ede18ee26e311032db5ecff554f465bc17eb4a0",
                    "decodedLog": {
                        "name": "Transfer",
                        "params": [
                            {
                                "name": "from",
                                "type": "address",
                                "value": "0x0000000000000000000000000000000000000000"
                            },
                            {
                                "name": "to",
                                "type": "address",
                                "value": "0xdf9bac2de42c32cb38f1fa0b33a0b5a195ba34ff"
                            },
                            {
                                "decimalAvailable": true,
                                "name": "tokenId",
                                "type": "uint256",
                                "value": "365"
                            }
                        ],
                        "signature": "Transfer(address,address,uint256)"
                    },
                    "id": 4,
                    "logData": "0x",
                    "logDecoded": true,
                    "operation": "EVENT",
                    "revert": false,
                    "status": true,
                    "topics": [
                        "0xddf252ad1be2c89b69c2b068fc378daa952ba7f163c4a11628f55a4df523b3ef",
                        "0x0000000000000000000000000000000000000000000000000000000000000000",
                        "0x000000000000000000000000df9bac2de42c32cb38f1fa0b33a0b5a195ba34ff",
                        "0x000000000000000000000000000000000000000000000000000000000000016d"
                    ]
                },
                "nodeType": 1
            }
        },
        "gasFlame": [
            {
                "children": [
                    {
                        "children": [
                            {
                                "children": [],
                                "depth": 0,
                                "name": "Initial Gas",
                                "value": 21204
                            },
                            {
                                "children": [],
                                "depth": 0,
                                "name": "Executed Gas",
                                "value": 99857
                            }
                        ],
                        "depth": -1,
                        "name": "Actual Gas Used",
                        "value": 121061
                    },
                    {
                        "children": [],
                        "depth": -1,
                        "name": "Refunded Gas",
                        "value": 0
                    }
                ],
                "depth": -2,
                "name": "Total Gas",
                "value": 121061
            }
        ],
        "isConfirmed": true,
        "mainTrace": [
            {
                "children": [
                    {
                        "children": [
                            {
                                "children": [],
                                "depth": 1,
                                "id": 1,
                                "order": 1
                            },
                            {
                                "children": [],
                                "depth": 1,
                                "id": 2,
                                "order": 2
                            },
                            {
                                "children": [],
                                "depth": 1,
                                "id": 3,
                                "order": 3
                            },
                            {
                                "children": [],
                                "depth": 1,
                                "id": 4,
                                "order": 4
                            }
                        ],
                        "depth": 0,
                        "id": 0,
                        "order": 0
                    }
                ],
                "depth": -1,
                "id": -1,
                "order": -1
            }
        ],
        "mainTraceNodeCount": 5,
        "parentIdMap": {
            "0": -1,
            "1": 0,
            "2": 0,
            "3": 0,
            "4": 0
        },
        "tidyTrace": [
            {
                "children": [
                    {
                        "children": [
                            {
                                "children": [],
                                "depth": 1,
                                "id": 1,
                                "order": 1
                            },
                            {
                                "children": [],
                                "depth": 1,
                                "id": 2,
                                "order": 2
                            },
                            {
                                "children": [],
                                "depth": 1,
                                "id": 3,
                                "order": 3
                            },
                            {
                                "children": [],
                                "depth": 1,
                                "id": 4,
                                "order": 4
                            }
                        ],
                        "depth": 0,
                        "id": 0,
                        "order": 0
                    }
                ],
                "depth": -1,
                "id": -1,
                "order": -1
            }
        ],
        "tidyTraceNodeCount": 5
    },
    "state_change": {
        "stateChanges": [
            {
                "address": "0x2ede18ee26e311032db5ecff554f465bc17eb4a0",
                "erc": "ERC-721",
                "slots": [
                    {
                        "current": "0x00000000000000006370128bdf9bac2de42c32cb38f1fa0b33a0b5a195ba34ff",
                        "key": "0xd47157986cd9399273bcefa314fdbdd83426676588e51226dab6a56dd2ba279d",
                        "prev": "0x0000000000000000000000000000000000000000000000000000000000000000"
                    },
                    {
                        "current": "0x000000000000000000000000000000000000000000000000000000000000016e",
                        "key": "0x0000000000000000000000000000000000000000000000000000000000000000",
                        "prev": "0x000000000000000000000000000000000000000000000000000000000000016a"
                    },
                    {
                        "current": "0x0000000000000000000000000000000000000000000000000000000000000004",
                        "key": "0x9231217500bdde20687a886dd7e7d3bf0b92c230ccdef0805af677730c57367f",
                        "prev": "0x0000000000000000000000000000000000000000000000000000000000000000"
                    },
                    {
                        "current": "0x000000000000000000000000000000000000000000000000000000000000007c",
                        "key": "0x0000000000000000000000000000000000000000000000000000000000000019",
                        "prev": "0x0000000000000000000000000000000000000000000000000000000000000078"
                    },
                    {
                        "current": "0x0000000000000000000000000000000000000000000000040000000000000004",
                        "key": "0x795b3a54bfb3be5775a3bb392c1beca75d85d26e95a77a378aca844f7f1e1268",
                        "prev": "0x0000000000000000000000000000000000000000000000000000000000000000"
                    }
                ],
                "storageVariables": [
                    {
                        "name": "_packedOwnerships",
                        "type": "mapping(uint256 => uint256)",
                        "value": {
                            "pairs": [
                                {
                                    "key": "362",
                                    "value": {
                                        "current": "2438207344542478139772951542105783228464372782974191154431",
                                        "prev": "0",
                                        "typeTag": 1
                                    }
                                }
                            ],
                            "typeTag": 4
                        }
                    },
                    {
                        "name": "_currentIndex",
                        "type": "uint256",
                        "value": {
                            "current": "366",
                            "prev": "362",
                            "typeTag": 1
                        }
                    },
                    {
                        "name": "publicMintCount",
                        "type": "mapping(address => uint256)",
                        "value": {
                            "pairs": [
                                {
                                    "key": "0xdf9bac2de42c32cb38f1fa0b33a0b5a195ba34ff",
                                    "value": {
                                        "current": "4",
                                        "prev": "0",
                                        "typeTag": 1
                                    }
                                }
                            ],
                            "typeTag": 4
                        }
                    },
                    {
                        "name": "publicMinted",
                        "type": "uint256",
                        "value": {
                            "current": "124",
                            "prev": "120",
                            "typeTag": 1
                        }
                    },
                    {
                        "name": "_packedAddressData",
                        "type": "mapping(address => uint256)",
                        "value": {
                            "pairs": [
                                {
                                    "key": "0xdf9bac2de42c32cb38f1fa0b33a0b5a195ba34ff",
                                    "value": {
                                        "current": "73786976294838206468",
                                        "prev": "0",
                                        "typeTag": 1
                                    }
                                }
                            ],
                            "typeTag": 4
                        }
                    }
                ]
            }
        ]
    }
}