{
    "balance_change": {
        "balanceChanges": []
    },
    "profile": {
        "basic_info": {
            "baseFee": "38.126883915",
            "blockNumber": 19282697,
            "callData": "0x3f8fc23300000000000000000000000000000000000000000000000000000000000000200000000000000000000000000000000000000000000000000000000000000001805d19981fe4c555b11152ebb420f978797b0d4829b68a4f52d01730300850de00000000000000000000000000000000000000000000000000000000000000000000000000000000000000000000000000000000000000000000000000000001",
            "debugEnable": true,
            "errorInfo": "",
            "eventCount": 1,
            "feeRecipient": "0x95222290dd7278aa3ddd389cc1e1d165cc4bafe5",
            "formatValue": "0",
            "gasLimit": 53411,
            "gasPrice": "38.175383915",
            "gasUsed": 52619,
            "intTxnCount": 1,
            "internalRevert": false,
            "internalRevertMessage": "",
            "isContractCreation": false,
            "isFlashloan": false,
            "maxFee": "48.121912134",
            "nonce": 2024,
            "overwritedBlockNumber": -1,
            "priorityFee": "0.0485",
            "receiver": "0xb2ecfe4e4d61f8790bbb9de2d1259b9e2410cea5",
            "revertMessage": "",
            "sender": "0xd55d6239bb1705ed3d01fded569cf416d5a25a5b",
            "simulationEnable": true,
            "sourceTxnHash": "0x973bc15725929391c04f5c941768a3b1dc5be9bf49c38db17b262a2641ae7cdf",
            "status": true,
            "timestamp": "2024-02-22T10:56:11Z",
            "transactionFee": "0.002008750526223385",
            "txnHash": "0x973bc15725929391c04f5c941768a3b1dc5be9bf49c38db17b262a2641ae7cdf",
            "txnIndex": 159,
            "type": 2,
            "value": "0"
        },
        "fund_flow": [],
        "token_infos": [
            {
                "address": "0xc02aaa39b223fe8d0a0e5c4f27ead9083c756cc2",
                "decimals": 18
            },
            {
                "address": "0xeeeeeeeeeeeeeeeeeeeeeeeeeeeeeeeeeeeeeeee",
                "decimals": 18
            }
        ]
    },
    "address_label": {
        "labels": [
            {
                "address": "0x0000000000000000000000000000000000000002",
                "label": "Precompiled"
            },
            {
                "address": "0x0000000000000000000000000000000000000003",
                "label": "Precompiled"
            },
            {
                "address": "0x0000000000000000000000000000000000000004",
                "label": "Precompiled"
            },
            {
                "address": "0xeeeeeeeeeeeeeeeeeeeeeeeeeeeeeeeeeeeeeeee",
                "label": "Ether"
            },
            {
                "address": "0x5fa60726e62c50af45ff2f6280c468da438a7837",
                "label": "BlurExchangeV2"
            },
            {
                "address": "0xb2ecfe4e4d61f8790bbb9de2d1259b9e2410cea5",
                "label": "Blur.io: Marketplace 3"
            },
            {
                "address": "0x0000000000000000000000000000000000000001",
                "label": "Precompiled"
            }
        ]
    },
    "trace": {
        "accountLabels": null,
        "dataMap": {
            "-1": {
                "invocation": {
                    "address": "0xd55d6239bb1705ed3d01fded569cf416d5a25a5b",
                    "callData": "",
                    "decodedMethod": null,
                    "errorInfo": "",
                    "fromAddress": "",
                    "gasUsed": 0,
                    "id": -1,
                    "methodDecoded": false,
                    "operation": "",
                    "output": "",
                    "revert": false,
                    "revertMessage": "",
                    "selector": "",
                    "status": false,
                    "value": ""
                },
                "nodeType": 0
            },
            "0": {
                "invocation": {
                    "address": "0xb2ecfe4e4d61f8790bbb9de2d1259b9e2410cea5",
                    "callData": "0x00000000000000000000000000000000000000000000000000000000000000200000000000000000000000000000000000000000000000000000000000000001805d19981fe4c555b11152ebb420f978797b0d4829b68a4f52d01730300850de00000000000000000000000000000000000000000000000000000000000000000000000000000000000000000000000000000000000000000000000000000001",
                    "decodedMethod": {
                        "callParams": [
                            {
                                "name": "cancels",
                                "type": "(bytes32,uint256,uint256)[]",
                                "value": [
                                    [
                                        {
                                            "name": "hash",
                                            "type": "bytes32",
                                            "value": "0x805d19981fe4c555b11152ebb420f978797b0d4829b68a4f52d01730300850de"
                                        },
                                        {
                                            "name": "index",
                                            "type": "uint256",
                                            "value": "0"
                                        },
                                        {
                                            "name": "amount",
                                            "type": "uint256",
                                            "value": "1"
                                        }
                                    ]
                                ]
                            }
                        ],
                        "constructorArguments": "",
                        "name": "cancelTrades",
                        "returnParams": [],
                        "signature": "cancelTrades((bytes32,uint256,uint256)[])"
                    },
                    "errorInfo": "",
                    "fromAddress": "0xd55d6239bb1705ed3d01fded569cf416d5a25a5b",
                    "gasUsed": 52619,
                    "id": 0,
                    "methodDecoded": true,
                    "operation": "CALL",
                    "output": "",
                    "revert": false,
                    "revertMessage": "",
                    "selector": "0x3f8fc233",
                    "status": true,
                    "value": "0"
                },
                "nodeType": 0
            },
            "1": {
                "invocation": {
                    "address": "0x5fa60726e62c50af45ff2f6280c468da438a7837",
                    "callData": "0x00000000000000000000000000000000000000000000000000000000000000200000000000000000000000000000000000000000000000000000000000000001805d19981fe4c555b11152ebb420f978797b0d4829b68a4f52d01730300850de00000000000000000000000000000000000000000000000000000000000000000000000000000000000000000000000000000000000000000000000000000001",
                    "decodedMethod": {
                        "callParams": [
                            {
                                "name": "cancels",
                                "type": "(bytes32,uint256,uint256)[]",
                                "value": [
                                    [
                                        {
                                            "name": "hash",
                                            "type": "bytes32",
                                            "value": "0x805d19981fe4c555b11152ebb420f978797b0d4829b68a4f52d01730300850de"
                                        },
                                        {
                                            "name": "index",
                                            "type": "uint256",
                                            "value": "0"
                                        },
                                        {
                                            "name": "amount",
                                            "type": "uint256",
                                            "value": "1"
                                        }
                                    ]
                                ]
                            }
                        ],
                        "constructorArguments": "",
                        "name": "cancelTrades",
                        "returnParams": [],
                        "signature": "cancelTrades((bytes32,uint256,uint256)[])"
                    },
                    "errorInfo": "",
                    "fromAddress": "0xb2ecfe4e4d61f8790bbb9de2d1259b9e2410cea5",
                    "gasUsed": 25591,
                    "id": 1,
                    "methodDecoded": true,
                    "operation": "DELEGATECALL",
                    "output": "",
                    "revert": false,
                    "revertMessage": "",
                    "selector": "0x3f8fc233",
                    "status": true,
                    "value": "0"
                },
                "nodeType": 0
            },
            "2": {
                "event": {
                    "contract": "0xb2ecfe4e4d61f8790bbb9de2d1259b9e2410cea5",
                    "decodedLog": {
                        "name": "CancelTrade",
                        "params": [
                            {
                                "name": "user",
                                "type": "address",
                                "value": "0xd55d6239bb1705ed3d01fded569cf416d5a25a5b"
                            },
                            {
                                "name": "hash",
                                "type": "bytes32",
                                "value": "0x805d19981fe4c555b11152ebb420f978797b0d4829b68a4f52d01730300850de"
                            },
                            {
                                "name": "index",
                                "type": "uint256",
                                "value": "0"
                            },
                            {
                                "name": "amount",
                                "type": "uint256",
                                "value": "1"
                            }
                        ],
                        "signature": "CancelTrade(address,bytes32,uint256,uint256)"
                    },
                    "id": 2,
                    "logData": "0x805d19981fe4c555b11152ebb420f978797b0d4829b68a4f52d01730300850de00000000000000000000000000000000000000000000000000000000000000000000000000000000000000000000000000000000000000000000000000000001",
                    "logDecoded": true,
                    "operation": "EVENT",
                    "revert": false,
                    "status": true,
                    "topics": [
                        "0xf4092a7c54e135dc5f273d6675327b7b7838392537d2f7b63f7acbec8c7cd296",
                        "0x000000000000000000000000d55d6239bb1705ed3d01fded569cf416d5a25a5b"
                    ]
                },
                "nodeType": 1
            }
        },
        "gasFlame": [
            {
                "children": [
                    {
                        "children": [
                            {
                                "children": [],
                                "depth": 0,
                                "name": "Initial Gas",
                                "value": 22124
                            },
                            {
                                "children": [
                                    {
                                        "children": [],
                                        "depth": 1,
                                        "name": "cancelTrades",
                                        "value": 25591
                                    }
                                ],
                                "depth": 0,
                                "name": "Executed Gas",
                                "value": 30495
                            }
                        ],
                        "depth": -1,
                        "name": "Actual Gas Used",
                        "value": 52619
                    },
                    {
                        "children": [],
                        "depth": -1,
                        "name": "Refunded Gas",
                        "value": 0
                    }
                ],
                "depth": -2,
                "name": "Total Gas",
                "value": 52619
            }
        ],
        "isConfirmed": true,
        "mainTrace": [
            {
                "children": [
                    {
                        "children": [
                            {
                                "children": [
                                    {
                                        "children": [],
                                        "depth": 2,
                                        "id": 2,
                                        "order": 2
                                    }
                                ],
                                "depth": 1,
                                "id": 1,
                                "order": 1
                            }
                        ],
                        "depth": 0,
                        "id": 0,
                        "order": 0
                    }
                ],
                "depth": -1,
                "id": -1,
                "order": -1
            }
        ],
        "mainTraceNodeCount": 3,
        "parentIdMap": {
            "0": -1,
            "1": 0,
            "2": 1
        },
        "tidyTrace": [
            {
                "children": [
                    {
                        "children": [
                            {
                                "children": [
                                    {
                                        "children": [],
                                        "depth": 2,
                                        "id": 2,
                                        "order": 2
                                    }
                                ],
                                "depth": 1,
                                "id": 1,
                                "order": 1
                            }
                        ],
                        "depth": 0,
                        "id": 0,
                        "order": 0
                    }
                ],
                "depth": -1,
                "id": -1,
                "order": -1
            }
        ],
        "tidyTraceNodeCount": 3
    },
    "state_change": {
        "stateChanges": [
            {
                "address": "0xb2ecfe4e4d61f8790bbb9de2d1259b9e2410cea5",
                "erc": "",
                "slots": [
                    {
                        "current": "0x0000000000000000000000000000000000000000000000000000000000000001",
                        "key": "0x06ce572ca64c6755842e7c242e0f42d0e2fbc3ba270d3e3337605aa042f37f73",
                        "prev": "0x0000000000000000000000000000000000000000000000000000000000000000"
                    }
                ],
                "storageVariables": [
                    {
                        "name": "amountTaken",
                        "type": "mapping(address => mapping(bytes32 => mapping(uint256 => uint256)))",
                        "value": {
                            "pairs": [
                                {
                                    "key": "0xd55d6239bb1705ed3d01fded569cf416d5a25a5b",
                                    "value": {
                                        "pairs": [
                                            {
                                                "key": "0x805d19981fe4c555b11152ebb420f978797b0d4829b68a4f52d01730300850de",
                                                "value": {
                                                    "pairs": [
                                                        {
                                                            "key": "0",
                                                            "value": {
                                                                "current": "1",
                                                                "prev": "0",
                                                                "typeTag": 1
                                                            }
                                                        }
                                                    ],
                                                    "typeTag": 4
                                                }
                                            }
                                        ],
                                        "typeTag": 4
                                    }
                                }
                            ],
                            "typeTag": 4
                        }
                    }
                ]
            }
        ]
    }
}