{
    "balance_change": {
        "balanceChanges": [
            {
                "account": "0x5a8597e16d034d66a38e8704a1e54b84f911122a",
                "assets": [
                    {
                        "address": "0xeeeeeeeeeeeeeeeeeeeeeeeeeeeeeeeeeeeeeeee",
                        "amount": "0.015",
                        "iconUrl": "https://assets.blocksec.com/image/1663669189317-3.png",
                        "isERC1155": false,
                        "isERC721": false,
                        "sign": true,
                        "value": ""
                    }
                ]
            },
            {
                "account": "0x06012c8cf97bead5deae237070f9587f8e7a266d",
                "assets": [
                    {
                        "address": "0xeeeeeeeeeeeeeeeeeeeeeeeeeeeeeeeeeeeeeeee",
                        "amount": "0.015",
                        "iconUrl": "https://assets.blocksec.com/image/1663669189317-3.png",
                        "isERC1155": false,
                        "isERC721": false,
                        "sign": false,
                        "value": ""
                    }
                ]
            }
        ]
    },
    "profile": {
        "basic_info": {
            "baseFee": "",
            "blockNumber": 4689285,
            "callData": "0x88c2a0bf0000000000000000000000000000000000000000000000000000000000018473",
            "debugEnable": true,
            "errorInfo": "",
            "eventCount": 2,
            "feeRecipient": "0x5a0b54d5dc17e0aadc383d2db43b0a0d3e029c4c",
            "formatValue": "0",
            "gasLimit": 270000,
            "gasPrice": "52.000000001",
            "gasUsed": 256251,
            "intTxnCount": 2,
            "internalRevert": false,
            "internalRevertMessage": "",
            "isContractCreation": false,
            "isFlashloan": false,
            "maxFee": "",
            "nonce": 4,
            "overwritedBlockNumber": -1,
            "priorityFee": "",
            "receiver": "0x06012c8cf97bead5deae237070f9587f8e7a266d",
            "revertMessage": "",
            "sender": "0x5a8597e16d034d66a38e8704a1e54b84f911122a",
            "simulationEnable": true,
            "sourceTxnHash": "0x978f2de1471a73d2054c2a2b8a5f1017f66eddcbd758cbcdb600977f4f923167",
            "status": true,
            "timestamp": "2017-12-07T05:57:47Z",
            "transactionFee": "0.013325052000256251",
            "txnHash": "0x978f2de1471a73d2054c2a2b8a5f1017f66eddcbd758cbcdb600977f4f923167",
            "txnIndex": 85,
            "type": 0,
            "value": "0"
        },
        "fund_flow": [
            {
                "amount": "0.015",
                "from": "0x06012c8cf97bead5deae237070f9587f8e7a266d",
                "id": 1,
                "isERC1155": false,
                "isERC721": false,
                "isReverted": false,
                "order": 1,
                "to": "0x5a8597e16d034d66a38e8704a1e54b84f911122a",
                "token": "0xeeeeeeeeeeeeeeeeeeeeeeeeeeeeeeeeeeeeeeee"
            }
        ],
        "token_infos": [
            {
                "address": "0xc02aaa39b223fe8d0a0e5c4f27ead9083c756cc2",
                "decimals": 18
            },
            {
                "address": "0xeeeeeeeeeeeeeeeeeeeeeeeeeeeeeeeeeeeeeeee",
                "decimals": 18
            }
        ]
    },
    "address_label": {
        "labels": [
            {
                "address": "0x06012c8cf97bead5deae237070f9587f8e7a266d",
                "label": "CryptoKitties: Core"
            },
            {
                "address": "0xf97e0a5b616dffc913e72455fde9ea8bbe946a2b",
                "label": "GeneScience"
            },
            {
                "address": "0x0000000000000000000000000000000000000001",
                "label": "Precompiled"
            },
            {
                "address": "0x0000000000000000000000000000000000000002",
                "label": "Precompiled"
            },
            {
                "address": "0x0000000000000000000000000000000000000003",
                "label": "Precompiled"
            },
            {
                "address": "0x0000000000000000000000000000000000000004",
                "label": "Precompiled"
            },
            {
                "address": "0xeeeeeeeeeeeeeeeeeeeeeeeeeeeeeeeeeeeeeeee",
                "label": "Ether"
            }
        ]
    },
    "trace": {
        "accountLabels": null,
        "dataMap": {
            "-1": {
                "invocation": {
                    "address": "0x5a8597e16d034d66a38e8704a1e54b84f911122a",
                    "callData": "",
                    "decodedMethod": null,
                    "errorInfo": "",
                    "fromAddress": "",
                    "gasUsed": 0,
                    "id": -1,
                    "methodDecoded": false,
                    "operation": "",
                    "output": "",
                    "revert": false,
                    "revertMessage": "",
                    "selector": "",
                    "status": false,
                    "value": ""
                },
                "nodeType": 0
            },
            "0": {
                "invocation": {
                    "address": "0x06012c8cf97bead5deae237070f9587f8e7a266d",
                    "callData": "0x0000000000000000000000000000000000000000000000000000000000018473",
                    "decodedMethod": {
                        "callParams": [
                            {
                                "name": "_matronId",
                                "type": "uint256",
                                "value": "99,443"
                            }
                        ],
                        "constructorArguments": "",
                        "name": "giveBirth",
                        "returnParams": [
                            {
                                "name": "",
                                "type": "uint256",
                                "value": "122,880"
                            }
                        ],
                        "signature": "giveBirth(uint256)"
                    },
                    "errorInfo": "",
                    "fromAddress": "0x5a8597e16d034d66a38e8704a1e54b84f911122a",
                    "gasUsed": 256251,
                    "id": 0,
                    "methodDecoded": true,
                    "operation": "CALL",
                    "output": "0x000000000000000000000000000000000000000000000000000000000001e000",
                    "revert": false,
                    "revertMessage": "",
                    "selector": "0x88c2a0bf",
                    "status": true,
                    "value": "0"
                },
                "nodeType": 0
            },
            "1": {
                "invocation": {
                    "address": "0xf97e0a5b616dffc913e72455fde9ea8bbe946a2b",
                    "callData": "0x00005a56b210a40982342549000053088442da8084a629a66114457a12f732b6000042d283188630d2e4b90e18ca03888443548314aa39e7329462725e955ad60000000000000000000000000000000000000000000000000000000000478d82",
                    "decodedMethod": {
                        "callParams": [
                            {
                                "name": "_genes1",
                                "type": "uint256",
                                "value": "623,494,479,058,058,454,114,904,216,245,497,568,950,835,655,397,736,842,897,325,949,757,895,350"
                            },
                            {
                                "name": "_genes2",
                                "type": "uint256",
                                "value": "461,190,653,687,150,939,152,586,984,682,517,828,182,165,706,946,558,687,851,674,684,175,506,134"
                            },
                            {
                                "name": "_targetBlock",
                                "type": "uint256",
                                "value": "4,689,282"
                            }
                        ],
                        "constructorArguments": "",
                        "name": "mixGenes",
                        "returnParams": [
                            {
                                "name": "",
                                "type": "uint256",
                                "value": "623,332,719,326,633,925,466,004,735,664,342,440,932,137,561,877,433,418,444,696,000,379,957,974"
                            }
                        ],
                        "signature": "mixGenes(uint256,uint256,uint256)"
                    },
                    "errorInfo": "",
                    "fromAddress": "0x06012c8cf97bead5deae237070f9587f8e7a266d",
                    "gasUsed": 100400,
                    "id": 1,
                    "methodDecoded": true,
                    "operation": "CALL",
                    "output": "0x00005a50b21084099237252a18c0538884429a8304c531e73294a27a129732d6",
                    "revert": false,
                    "revertMessage": "",
                    "selector": "0x0d9f5aed",
                    "status": true,
                    "value": "0"
                },
                "nodeType": 0
            },
            "2": {
                "event": {
                    "contract": "0x06012c8cf97bead5deae237070f9587f8e7a266d",
                    "decodedLog": {
                        "name": "Birth",
                        "params": [
                            {
                                "name": "owner",
                                "type": "address",
                                "value": "0x3e10a5cce005064e5d142a49ef28a94785c0ba47"
                            },
                            {
                                "name": "kittyId",
                                "type": "uint256",
                                "value": "122,880"
                            },
                            {
                                "name": "matronId",
                                "type": "uint256",
                                "value": "99,443"
                            },
                            {
                                "name": "sireId",
                                "type": "uint256",
                                "value": "99,029"
                            },
                            {
                                "name": "genes",
                                "type": "uint256",
                                "value": "623,332,719,326,633,925,466,004,735,664,342,440,932,137,561,877,433,418,444,696,000,379,957,974"
                            }
                        ],
                        "signature": "Birth(address,uint256,uint256,uint256,uint256)"
                    },
                    "id": 2,
                    "logData": "0x0000000000000000000000003e10a5cce005064e5d142a49ef28a94785c0ba47000000000000000000000000000000000000000000000000000000000001e000000000000000000000000000000000000000000000000000000000000001847300000000000000000000000000000000000000000000000000000000000182d500005a50b21084099237252a18c0538884429a8304c531e73294a27a129732d6",
                    "logDecoded": true,
                    "operation": "EVENT",
                    "revert": false,
                    "status": true,
                    "topics": [
                        "0x0a5311bd2a6608f08a180df2ee7c5946819a649b204b554bb8e39825b2c50ad5"
                    ]
                },
                "nodeType": 1
            },
            "3": {
                "event": {
                    "contract": "0x06012c8cf97bead5deae237070f9587f8e7a266d",
                    "decodedLog": {
                        "name": "Transfer",
                        "params": [
                            {
                                "name": "from",
                                "type": "address",
                                "value": "0x0000000000000000000000000000000000000000"
                            },
                            {
                                "name": "to",
                                "type": "address",
                                "value": "0x3e10a5cce005064e5d142a49ef28a94785c0ba47"
                            },
                            {
                                "decimalAvailable": true,
                                "name": "tokenId",
                                "type": "uint256",
                                "value": "122,880"
                            }
                        ],
                        "signature": "Transfer(address,address,uint256)"
                    },
                    "id": 3,
                    "logData": "0x00000000000000000000000000000000000000000000000000000000000000000000000000000000000000003e10a5cce005064e5d142a49ef28a94785c0ba47000000000000000000000000000000000000000000000000000000000001e000",
                    "logDecoded": true,
                    "operation": "EVENT",
                    "revert": false,
                    "status": true,
                    "topics": [
                        "0xddf252ad1be2c89b69c2b068fc378daa952ba7f163c4a11628f55a4df523b3ef"
                    ]
                },
                "nodeType": 1
            },
            "4": {
                "invocation": {
                    "address": "0x5a8597e16d034d66a38e8704a1e54b84f911122a",
                    "callData": "0x",
                    "decodedMethod": null,
                    "errorInfo": "",
                    "fromAddress": "0x06012c8cf97bead5deae237070f9587f8e7a266d",
                    "gasUsed": 0,
                    "id": 4,
                    "methodDecoded": false,
                    "operation": "CALL",
                    "output": "",
                    "revert": false,
                    "revertMessage": "",
                    "selector": "fallback",
                    "status": true,
                    "value": "0.015"
                },
                "nodeType": 0
            }
        },
        "gasFlame": [
            {
                "children": [
                    {
                        "children": [
                            {
                                "children": [],
                                "depth": 0,
                                "name": "Initial Gas",
                                "value": 21592
                            },
                            {
                                "children": [
                                    {
                                        "children": [],
                                        "depth": 1,
                                        "name": "mixGenes",
                                        "value": 100400
                                    },
                                    {
                                        "children": [],
                                        "depth": 1,
                                        "name": "fallback",
                                        "value": 0
                                    }
                                ],
                                "depth": 0,
                                "name": "Executed Gas",
                                "value": 234659
                            }
                        ],
                        "depth": -1,
                        "name": "Actual Gas Used",
                        "value": 256251
                    },
                    {
                        "children": [],
                        "depth": -1,
                        "name": "Refunded Gas",
                        "value": 0
                    }
                ],
                "depth": -2,
                "name": "Total Gas",
                "value": 256251
            }
        ],
        "isConfirmed": true,
        "mainTrace": [
            {
                "children": [
                    {
                        "children": [
                            {
                                "children": [],
                                "depth": 1,
                                "id": 1,
                                "order": 1
                            },
                            {
                                "children": [],
                                "depth": 1,
                                "id": 2,
                                "order": 2
                            },
                            {
                                "children": [],
                                "depth": 1,
                                "id": 3,
                                "order": 3
                            },
                            {
                                "children": [],
                                "depth": 1,
                                "id": 4,
                                "order": 4
                            }
                        ],
                        "depth": 0,
                        "id": 0,
                        "order": 0
                    }
                ],
                "depth": -1,
                "id": -1,
                "order": -1
            }
        ],
        "mainTraceNodeCount": 5,
        "parentIdMap": {
            "0": -1,
            "1": 0,
            "2": 0,
            "3": 0,
            "4": 0
        },
        "tidyTrace": [
            {
                "children": [
                    {
                        "children": [
                            {
                                "children": [],
                                "depth": 1,
                                "id": 1,
                                "order": 1
                            },
                            {
                                "children": [],
                                "depth": 1,
                                "id": 2,
                                "order": 2
                            },
                            {
                                "children": [],
                                "depth": 1,
                                "id": 3,
                                "order": 3
                            },
                            {
                                "children": [],
                                "depth": 1,
                                "id": 4,
                                "order": 4
                            }
                        ],
                        "depth": 0,
                        "id": 0,
                        "order": 0
                    }
                ],
                "depth": -1,
                "id": -1,
                "order": -1
            }
        ],
        "tidyTraceNodeCount": 5
    },
    "state_change": {
        "stateChanges": [
            {
                "address": "0x06012c8cf97bead5deae237070f9587f8e7a266d",
                "erc": "",
                "slots": [
                    {
                        "current": "0x000c000600000000000182d5000184730000000000000000000000005a28d85b",
                        "key": "0xf652222313e28459528d920b65115c16c04f3efc82aaedc97be59f3f377fcd40",
                        "prev": "0x0000000000000000000000000000000000000000000000000000000000000000"
                    },
                    {
                        "current": "0x0000000000000000000000000000000000000000000000000000000000000003",
                        "key": "0x7fdaa69c5a226cca6767a21daed62a1506a9d5a1e20d71830ac0f458f4426d38",
                        "prev": "0x0000000000000000000000000000000000000000000000000000000000000002"
                    },
                    {
                        "current": "0x0000000000000000000000003e10a5cce005064e5d142a49ef28a94785c0ba47",
                        "key": "0x079838e8cc619a606578727fe63cd64de5fc9e060b622e3413d66bb1620ec04d",
                        "prev": "0x0000000000000000000000000000000000000000000000000000000000000000"
                    },
                    {
                        "current": "0x000b000700000000000175070001795b0000000000478d83000000005a274263",
                        "key": "0xf652222313e28459528d920b65115c16c04f3efc82aaedc97be59f3f377f1626",
                        "prev": "0x000b0007000182d5000175070001795b0000000000478d83000000005a274263"
                    },
                    {
                        "current": "0x0000000000000000000000000000000000000000000000000000000000000e62",
                        "key": "0x000000000000000000000000000000000000000000000000000000000000000f",
                        "prev": "0x0000000000000000000000000000000000000000000000000000000000000e63"
                    },
                    {
                        "current": "0x000000000000000000000000000000000000000000000000000000000001e001",
                        "key": "0x0000000000000000000000000000000000000000000000000000000000000006",
                        "prev": "0x000000000000000000000000000000000000000000000000000000000001e000"
                    },
                    {
                        "current": "0x00005a50b21084099237252a18c0538884429a8304c531e73294a27a129732d6",
                        "key": "0xf652222313e28459528d920b65115c16c04f3efc82aaedc97be59f3f377fcd3f",
                        "prev": "0x0000000000000000000000000000000000000000000000000000000000000000"
                    }
                ],
                "storageVariables": [
                    {
                        "name": "kitties",
                        "type": "struct KittyBase.Kitty[]",
                        "value": {
                            "elemType": "struct KittyBase.Kitty",
                            "elems": [
                                {
                                    "index": 99443,
                                    "value": {
                                        "fields": [
                                            {
                                                "name": "birthTime",
                                                "type": "uint64",
                                                "value": {
                                                    "current": "1512522339",
                                                    "prev": "1512522339",
                                                    "typeTag": 1
                                                }
                                            },
                                            {
                                                "name": "cooldownEndBlock",
                                                "type": "uint64",
                                                "value": {
                                                    "current": "4689283",
                                                    "prev": "4689283",
                                                    "typeTag": 1
                                                }
                                            },
                                            {
                                                "name": "matronId",
                                                "type": "uint32",
                                                "value": {
                                                    "current": "96603",
                                                    "prev": "96603",
                                                    "typeTag": 1
                                                }
                                            },
                                            {
                                                "name": "sireId",
                                                "type": "uint32",
                                                "value": {
                                                    "current": "95495",
                                                    "prev": "95495",
                                                    "typeTag": 1
                                                }
                                            },
                                            {
                                                "name": "siringWithId",
                                                "type": "uint32",
                                                "value": {
                                                    "current": "0",
                                                    "prev": "99029",
                                                    "typeTag": 1
                                                }
                                            },
                                            {
                                                "name": "cooldownIndex",
                                                "type": "uint16",
                                                "value": {
                                                    "current": "7",
                                                    "prev": "7",
                                                    "typeTag": 1
                                                }
                                            },
                                            {
                                                "name": "generation",
                                                "type": "uint16",
                                                "value": {
                                                    "current": "11",
                                                    "prev": "11",
                                                    "typeTag": 1
                                                }
                                            }
                                        ],
                                        "typeTag": 3
                                    }
                                },
                                {
                                    "index": 122880,
                                    "value": {
                                        "fields": [
                                            {
                                                "name": "genes",
                                                "type": "uint256",
                                                "value": {
                                                    "current": "623332719326633925466004735664342440932137561877433418444696000379957974",
                                                    "prev": "0",
                                                    "typeTag": 1
                                                }
                                            },
                                            {
                                                "name": "birthTime",
                                                "type": "uint64",
                                                "value": {
                                                    "current": "1512626267",
                                                    "prev": "0",
                                                    "typeTag": 1
                                                }
                                            },
                                            {
                                                "name": "cooldownEndBlock",
                                                "type": "uint64",
                                                "value": {
                                                    "current": "0",
                                                    "prev": "0",
                                                    "typeTag": 1
                                                }
                                            },
                                            {
                                                "name": "matronId",
                                                "type": "uint32",
                                                "value": {
                                                    "current": "99443",
                                                    "prev": "0",
                                                    "typeTag": 1
                                                }
                                            },
                                            {
                                                "name": "sireId",
                                                "type": "uint32",
                                                "value": {
                                                    "current": "99029",
                                                    "prev": "0",
                                                    "typeTag": 1
                                                }
                                            },
                                            {
                                                "name": "siringWithId",
                                                "type": "uint32",
                                                "value": {
                                                    "current": "0",
                                                    "prev": "0",
                                                    "typeTag": 1
                                                }
                                            },
                                            {
                                                "name": "cooldownIndex",
                                                "type": "uint16",
                                                "value": {
                                                    "current": "6",
                                                    "prev": "0",
                                                    "typeTag": 1
                                                }
                                            },
                                            {
                                                "name": "generation",
                                                "type": "uint16",
                                                "value": {
                                                    "current": "12",
                                                    "prev": "0",
                                                    "typeTag": 1
                                                }
                                            }
                                        ],
                                        "typeTag": 3
                                    }
                                }
                            ],
                            "typeTag": 2
                        }
                    },
                    {
                        "name": "ownershipTokenCount",
                        "type": "mapping(address => uint256)",
                        "value": {
                            "pairs": [
                                {
                                    "key": "0x3e10a5cce005064e5d142a49ef28a94785c0ba47",
                                    "value": {
                                        "current": "3",
                                        "prev": "2",
                                        "typeTag": 1
                                    }
                                }
                            ],
                            "typeTag": 4
                        }
                    },
                    {
                        "name": "kittyIndexToOwner",
                        "type": "mapping(uint256 => address)",
                        "value": {
                            "pairs": [
                                {
                                    "key": "122880",
                                    "value": {
                                        "current": "0x3e10a5cce005064e5d142a49ef28a94785c0ba47",
                                        "prev": "0x0000000000000000000000000000000000000000",
                                        "typeTag": 1
                                    }
                                }
                            ],
                            "typeTag": 4
                        }
                    },
                    {
                        "name": "pregnantKitties",
                        "type": "uint256",
                        "value": {
                            "current": "3682",
                            "prev": "3683",
                            "typeTag": 1
                        }
                    }
                ]
            }
        ]
    }
}