{
    "balance_change": {
        "balanceChanges": [
            {
                "account": "0x05a7d295fce4da2d2b95e3b8223919fb301810a1",
                "assets": [
                    {
                        "address": "0xd4f6f9ae14399fd5eb8dfc7725f0094a1a7f5d80",
                        "amount": "14",
                        "iconUrl": "",
                        "isERC1155": false,
                        "isERC721": false,
                        "sign": false,
                        "value": ""
                    }
                ]
            },
            {
                "account": "0xcd9789c679af82355fc2941b71e83a1d82ee72f0",
                "assets": [
                    {
                        "address": "0xd4f6f9ae14399fd5eb8dfc7725f0094a1a7f5d80",
                        "amount": "14",
                        "iconUrl": "",
                        "isERC1155": false,
                        "isERC721": false,
                        "sign": true,
                        "value": ""
                    }
                ]
            }
        ]
    },
    "profile": {
        "basic_info": {
            "baseFee": "",
            "blockNumber": 8299283,
            "callData": "0xa9059cbb000000000000000000000000cd9789c679af82355fc2941b71e83a1d82ee72f0000000000000000000000000000000000000000000000000c249fdd327780000",
            "debugEnable": true,
            "errorInfo": "",
            "eventCount": 1,
            "feeRecipient": "0x5a0b54d5dc17e0aadc383d2db43b0a0d3e029c4c",
            "formatValue": "0",
            "gasLimit": 60000,
            "gasPrice": "1.1",
            "gasUsed": 21541,
            "intTxnCount": 0,
            "internalRevert": false,
            "internalRevertMessage": "",
            "isContractCreation": false,
            "isFlashloan": false,
            "maxFee": "",
            "nonce": 184,
            "overwritedBlockNumber": -1,
            "priorityFee": "",
            "receiver": "0xd4f6f9ae14399fd5eb8dfc7725f0094a1a7f5d80",
            "revertMessage": "",
            "sender": "0x05a7d295fce4da2d2b95e3b8223919fb301810a1",
            "simulationEnable": true,
            "sourceTxnHash": "0x9836a7b4443fbc3594a7f9e4e683f837b72a4cd33066a129237084871e4e531d",
            "status": true,
            "timestamp": "2019-08-06T20:41:15Z",
            "transactionFee": "0.0000236951",
            "txnHash": "0x9836a7b4443fbc3594a7f9e4e683f837b72a4cd33066a129237084871e4e531d",
            "txnIndex": 14,
            "type": 0,
            "value": "0"
        },
        "fund_flow": [
            {
                "amount": "14",
                "from": "0x05a7d295fce4da2d2b95e3b8223919fb301810a1",
                "id": 1,
                "isERC1155": false,
                "isERC721": false,
                "isReverted": false,
                "order": 1,
                "to": "0xcd9789c679af82355fc2941b71e83a1d82ee72f0",
                "token": "0xd4f6f9ae14399fd5eb8dfc7725f0094a1a7f5d80"
            }
        ],
        "token_infos": [
            {
                "address": "0xeeeeeeeeeeeeeeeeeeeeeeeeeeeeeeeeeeeeeeee",
                "decimals": 18
            },
            {
                "address": "0xc02aaa39b223fe8d0a0e5c4f27ead9083c756cc2",
                "decimals": 18
            },
            {
                "address": "0xd4f6f9ae14399fd5eb8dfc7725f0094a1a7f5d80",
                "decimals": 18
            }
        ]
    },
    "address_label": {
        "labels": [
            {
                "address": "0xd4f6f9ae14399fd5eb8dfc7725f0094a1a7f5d80",
                "label": "Bitsten Exchange: BST Token"
            },
            {
                "address": "0x0000000000000000000000000000000000000001",
                "label": "Precompiled"
            },
            {
                "address": "0x0000000000000000000000000000000000000002",
                "label": "Precompiled"
            },
            {
                "address": "0x0000000000000000000000000000000000000003",
                "label": "Precompiled"
            },
            {
                "address": "0x0000000000000000000000000000000000000004",
                "label": "Precompiled"
            },
            {
                "address": "0xeeeeeeeeeeeeeeeeeeeeeeeeeeeeeeeeeeeeeeee",
                "label": "Ether"
            }
        ]
    },
    "trace": {
        "accountLabels": null,
        "dataMap": {
            "-1": {
                "invocation": {
                    "address": "0x05a7d295fce4da2d2b95e3b8223919fb301810a1",
                    "callData": "",
                    "decodedMethod": null,
                    "errorInfo": "",
                    "fromAddress": "",
                    "gasUsed": 0,
                    "id": -1,
                    "methodDecoded": false,
                    "operation": "",
                    "output": "",
                    "revert": false,
                    "revertMessage": "",
                    "selector": "",
                    "status": false,
                    "value": ""
                },
                "nodeType": 0
            },
            "0": {
                "invocation": {
                    "address": "0xd4f6f9ae14399fd5eb8dfc7725f0094a1a7f5d80",
                    "callData": "0x000000000000000000000000cd9789c679af82355fc2941b71e83a1d82ee72f0000000000000000000000000000000000000000000000000c249fdd327780000",
                    "decodedMethod": {
                        "callParams": [
                            {
                                "name": "to",
                                "type": "address",
                                "value": "0xcd9789c679af82355fc2941b71e83a1d82ee72f0"
                            },
                            {
                                "decimalAvailable": true,
                                "name": "tokens",
                                "type": "uint256",
                                "value": "14,000,000,000,000,000,000"
                            }
                        ],
                        "constructorArguments": "",
                        "name": "transfer",
                        "returnParams": [
                            {
                                "name": "success",
                                "type": "bool",
                                "value": true
                            }
                        ],
                        "signature": "transfer(address,uint256)"
                    },
                    "errorInfo": "",
                    "fromAddress": "0x05a7d295fce4da2d2b95e3b8223919fb301810a1",
                    "gasUsed": 21541,
                    "id": 0,
                    "methodDecoded": true,
                    "operation": "CALL",
                    "output": "0x0000000000000000000000000000000000000000000000000000000000000001",
                    "revert": false,
                    "revertMessage": "",
                    "selector": "0xa9059cbb",
                    "status": true,
                    "value": "0"
                },
                "nodeType": 0
            },
            "1": {
                "event": {
                    "contract": "0xd4f6f9ae14399fd5eb8dfc7725f0094a1a7f5d80",
                    "decodedLog": {
                        "name": "Transfer",
                        "params": [
                            {
                                "name": "from",
                                "type": "address",
                                "value": "0x05a7d295fce4da2d2b95e3b8223919fb301810a1"
                            },
                            {
                                "name": "to",
                                "type": "address",
                                "value": "0xcd9789c679af82355fc2941b71e83a1d82ee72f0"
                            },
                            {
                                "decimalAvailable": true,
                                "name": "tokens",
                                "type": "uint256",
                                "value": "14,000,000,000,000,000,000"
                            }
                        ],
                        "signature": "Transfer(address,address,uint256)"
                    },
                    "id": 1,
                    "logData": "0x000000000000000000000000000000000000000000000000c249fdd327780000",
                    "logDecoded": true,
                    "operation": "EVENT",
                    "revert": false,
                    "status": true,
                    "topics": [
                        "0xddf252ad1be2c89b69c2b068fc378daa952ba7f163c4a11628f55a4df523b3ef",
                        "0x00000000000000000000000005a7d295fce4da2d2b95e3b8223919fb301810a1",
                        "0x000000000000000000000000cd9789c679af82355fc2941b71e83a1d82ee72f0"
                    ]
                },
                "nodeType": 1
            }
        },
        "gasFlame": [
            {
                "children": [
                    {
                        "children": [
                            {
                                "children": [],
                                "depth": 0,
                                "name": "Initial Gas",
                                "value": 23192
                            },
                            {
                                "children": [],
                                "depth": 0,
                                "name": "Executed Gas",
                                "value": 13349
                            }
                        ],
                        "depth": -1,
                        "name": "Actual Gas Used",
                        "value": 21541
                    },
                    {
                        "children": [],
                        "depth": -1,
                        "name": "Refunded Gas",
                        "value": 15000
                    }
                ],
                "depth": -2,
                "name": "Total Gas",
                "value": 36541
            }
        ],
        "isConfirmed": true,
        "mainTrace": [
            {
                "children": [
                    {
                        "children": [
                            {
                                "children": [],
                                "depth": 1,
                                "id": 1,
                                "order": 1
                            }
                        ],
                        "depth": 0,
                        "id": 0,
                        "order": 0
                    }
                ],
                "depth": -1,
                "id": -1,
                "order": -1
            }
        ],
        "mainTraceNodeCount": 2,
        "parentIdMap": {
            "0": -1,
            "1": 0
        },
        "tidyTrace": [
            {
                "children": [
                    {
                        "children": [
                            {
                                "children": [],
                                "depth": 1,
                                "id": 1,
                                "order": 1
                            }
                        ],
                        "depth": 0,
                        "id": 0,
                        "order": 0
                    }
                ],
                "depth": -1,
                "id": -1,
                "order": -1
            }
        ],
        "tidyTraceNodeCount": 2
    },
    "state_change": {
        "stateChanges": [
            {
                "address": "0xd4f6f9ae14399fd5eb8dfc7725f0094a1a7f5d80",
                "erc": "ERC-20",
                "slots": [
                    {
                        "current": "0x0000000000000000000000000000000000000000000000000000000000000000",
                        "key": "0x031e12eff2db1673761657cda26630788b98bac88663dbd47d8ecb4b8196b64f",
                        "prev": "0x000000000000000000000000000000000000000000000000c249fdd327780000"
                    },
                    {
                        "current": "0x0000000000000000000000000000000000000000000000062e115c008a880000",
                        "key": "0x25a39d5b59edb29c0ab7193f76defd298b386a7f9f755364b1835944cbeed628",
                        "prev": "0x0000000000000000000000000000000000000000000000056bc75e2d63100000"
                    }
                ],
                "storageVariables": [
                    {
                        "name": "balances",
                        "type": "mapping(address => uint256)",
                        "value": {
                            "pairs": [
                                {
                                    "key": "0x05a7d295fce4da2d2b95e3b8223919fb301810a1",
                                    "value": {
                                        "current": "0",
                                        "prev": "14000000000000000000",
                                        "typeTag": 1
                                    }
                                },
                                {
                                    "key": "0xcd9789c679af82355fc2941b71e83a1d82ee72f0",
                                    "value": {
                                        "current": "114000000000000000000",
                                        "prev": "100000000000000000000",
                                        "typeTag": 1
                                    }
                                }
                            ],
                            "typeTag": 4
                        }
                    }
                ]
            }
        ]
    }
}