{
    "balance_change": {
        "balanceChanges": [
            {
                "account": "0xd9dc7c3c25de4b14b8ec833b4e8402369da3a75c",
                "assets": [
                    {
                        "address": "0x8dec670f7f87490ebcf2957263cff142d1a6632b",
                        "amount": "2,888",
                        "iconUrl": "",
                        "isERC1155": false,
                        "isERC721": false,
                        "sign": false,
                        "value": ""
                    }
                ]
            },
            {
                "account": "0xce85247b032f7528ba97396f7b17c76d5d034d2f",
                "assets": [
                    {
                        "address": "0x8dec670f7f87490ebcf2957263cff142d1a6632b",
                        "amount": "2,888",
                        "iconUrl": "",
                        "isERC1155": false,
                        "isERC721": false,
                        "sign": true,
                        "value": ""
                    }
                ]
            }
        ]
    },
    "profile": {
        "basic_info": {
            "baseFee": "",
            "blockNumber": 6030969,
            "callData": "0xa9059cbb000000000000000000000000ce85247b032f7528ba97396f7b17c76d5d034d2f00000000000000000000000000000000000000000000009c8f0d1ab860200000",
            "debugEnable": true,
            "errorInfo": "",
            "eventCount": 1,
            "feeRecipient": "0xea674fdde714fd979de3edf0f56aa9716b898ec8",
            "formatValue": "0",
            "gasLimit": 150000,
            "gasPrice": "4",
            "gasUsed": 21545,
            "intTxnCount": 0,
            "internalRevert": false,
            "internalRevertMessage": "",
            "isContractCreation": false,
            "isFlashloan": false,
            "maxFee": "",
            "nonce": 0,
            "overwritedBlockNumber": -1,
            "priorityFee": "",
            "receiver": "0x8dec670f7f87490ebcf2957263cff142d1a6632b",
            "revertMessage": "",
            "sender": "0xd9dc7c3c25de4b14b8ec833b4e8402369da3a75c",
            "simulationEnable": true,
            "sourceTxnHash": "0x9896a06212c2b681149a076b44d07d35cb360a5e4ec9169694608528b68fe438",
            "status": true,
            "timestamp": "2018-07-26T02:39:07Z",
            "transactionFee": "0.00008618",
            "txnHash": "0x9896a06212c2b681149a076b44d07d35cb360a5e4ec9169694608528b68fe438",
            "txnIndex": 145,
            "type": 0,
            "value": "0"
        },
        "fund_flow": [
            {
                "amount": "2,888",
                "from": "0xd9dc7c3c25de4b14b8ec833b4e8402369da3a75c",
                "id": 1,
                "isERC1155": false,
                "isERC721": false,
                "isReverted": false,
                "order": 1,
                "to": "0xce85247b032f7528ba97396f7b17c76d5d034d2f",
                "token": "0x8dec670f7f87490ebcf2957263cff142d1a6632b"
            }
        ],
        "token_infos": [
            {
                "address": "0x8dec670f7f87490ebcf2957263cff142d1a6632b",
                "decimals": 18
            },
            {
                "address": "0xc02aaa39b223fe8d0a0e5c4f27ead9083c756cc2",
                "decimals": 18
            },
            {
                "address": "0xeeeeeeeeeeeeeeeeeeeeeeeeeeeeeeeeeeeeeeee",
                "decimals": 18
            }
        ]
    },
    "address_label": {
        "labels": [
            {
                "address": "0x0000000000000000000000000000000000000004",
                "label": "Precompiled"
            },
            {
                "address": "0xeeeeeeeeeeeeeeeeeeeeeeeeeeeeeeeeeeeeeeee",
                "label": "Ether"
            },
            {
                "address": "0x8dec670f7f87490ebcf2957263cff142d1a6632b",
                "label": "EIEC"
            },
            {
                "address": "0x0000000000000000000000000000000000000001",
                "label": "Precompiled"
            },
            {
                "address": "0x0000000000000000000000000000000000000002",
                "label": "Precompiled"
            },
            {
                "address": "0x0000000000000000000000000000000000000003",
                "label": "Precompiled"
            }
        ]
    },
    "trace": {
        "accountLabels": null,
        "dataMap": {
            "-1": {
                "invocation": {
                    "address": "0xd9dc7c3c25de4b14b8ec833b4e8402369da3a75c",
                    "callData": "",
                    "decodedMethod": null,
                    "errorInfo": "",
                    "fromAddress": "",
                    "gasUsed": 0,
                    "id": -1,
                    "methodDecoded": false,
                    "operation": "",
                    "output": "",
                    "revert": false,
                    "revertMessage": "",
                    "selector": "",
                    "status": false,
                    "value": ""
                },
                "nodeType": 0
            },
            "0": {
                "invocation": {
                    "address": "0x8dec670f7f87490ebcf2957263cff142d1a6632b",
                    "callData": "0x000000000000000000000000ce85247b032f7528ba97396f7b17c76d5d034d2f00000000000000000000000000000000000000000000009c8f0d1ab860200000",
                    "decodedMethod": {
                        "callParams": [
                            {
                                "name": "_to",
                                "type": "address",
                                "value": "0xce85247b032f7528ba97396f7b17c76d5d034d2f"
                            },
                            {
                                "decimalAvailable": true,
                                "name": "_value",
                                "type": "uint256",
                                "value": "2,888,000,000,000,000,000,000"
                            }
                        ],
                        "constructorArguments": "",
                        "name": "transfer",
                        "returnParams": [
                            {
                                "name": "success",
                                "type": "bool",
                                "value": true
                            }
                        ],
                        "signature": "transfer(address,uint256)"
                    },
                    "errorInfo": "",
                    "fromAddress": "0xd9dc7c3c25de4b14b8ec833b4e8402369da3a75c",
                    "gasUsed": 21545,
                    "id": 0,
                    "methodDecoded": true,
                    "operation": "CALL",
                    "output": "0x0000000000000000000000000000000000000000000000000000000000000001",
                    "revert": false,
                    "revertMessage": "",
                    "selector": "0xa9059cbb",
                    "status": true,
                    "value": "0"
                },
                "nodeType": 0
            },
            "1": {
                "event": {
                    "contract": "0x8dec670f7f87490ebcf2957263cff142d1a6632b",
                    "decodedLog": {
                        "name": "Transfer",
                        "params": [
                            {
                                "name": "_from",
                                "type": "address",
                                "value": "0xd9dc7c3c25de4b14b8ec833b4e8402369da3a75c"
                            },
                            {
                                "name": "_to",
                                "type": "address",
                                "value": "0xce85247b032f7528ba97396f7b17c76d5d034d2f"
                            },
                            {
                                "decimalAvailable": true,
                                "name": "_value",
                                "type": "uint256",
                                "value": "2,888,000,000,000,000,000,000"
                            }
                        ],
                        "signature": "Transfer(address,address,uint256)"
                    },
                    "id": 1,
                    "logData": "0x00000000000000000000000000000000000000000000009c8f0d1ab860200000",
                    "logDecoded": true,
                    "operation": "EVENT",
                    "revert": false,
                    "status": true,
                    "topics": [
                        "0xddf252ad1be2c89b69c2b068fc378daa952ba7f163c4a11628f55a4df523b3ef",
                        "0x000000000000000000000000d9dc7c3c25de4b14b8ec833b4e8402369da3a75c",
                        "0x000000000000000000000000ce85247b032f7528ba97396f7b17c76d5d034d2f"
                    ]
                },
                "nodeType": 1
            }
        },
        "gasFlame": [
            {
                "children": [
                    {
                        "children": [
                            {
                                "children": [],
                                "depth": 0,
                                "name": "Initial Gas",
                                "value": 23256
                            },
                            {
                                "children": [],
                                "depth": 0,
                                "name": "Executed Gas",
                                "value": 13289
                            }
                        ],
                        "depth": -1,
                        "name": "Actual Gas Used",
                        "value": 21545
                    },
                    {
                        "children": [],
                        "depth": -1,
                        "name": "Refunded Gas",
                        "value": 15000
                    }
                ],
                "depth": -2,
                "name": "Total Gas",
                "value": 36545
            }
        ],
        "isConfirmed": true,
        "mainTrace": [
            {
                "children": [
                    {
                        "children": [
                            {
                                "children": [],
                                "depth": 1,
                                "id": 1,
                                "order": 1
                            }
                        ],
                        "depth": 0,
                        "id": 0,
                        "order": 0
                    }
                ],
                "depth": -1,
                "id": -1,
                "order": -1
            }
        ],
        "mainTraceNodeCount": 2,
        "parentIdMap": {
            "0": -1,
            "1": 0
        },
        "tidyTrace": [
            {
                "children": [
                    {
                        "children": [
                            {
                                "children": [],
                                "depth": 1,
                                "id": 1,
                                "order": 1
                            }
                        ],
                        "depth": 0,
                        "id": 0,
                        "order": 0
                    }
                ],
                "depth": -1,
                "id": -1,
                "order": -1
            }
        ],
        "tidyTraceNodeCount": 2
    },
    "state_change": {
        "stateChanges": [
            {
                "address": "0x8dec670f7f87490ebcf2957263cff142d1a6632b",
                "erc": "ERC-20",
                "slots": [
                    {
                        "current": "0x0000000000000000000000000000000000000000000000000000000000000000",
                        "key": "0x73fe8b8aeb57848b449eb60a7f35a94e01fa8f78ea6cbdb5c723fcb1a534d713",
                        "prev": "0x00000000000000000000000000000000000000000000009c8f0d1ab860200000"
                    },
                    {
                        "current": "0x0000000000000000000000000000000000000000000730f2331399ba1d3a9000",
                        "key": "0x812f44e178d4ec053d42433605c71950c89ac07d8324324e9eeb5d7dbec08b08",
                        "prev": "0x000000000000000000000000000000000000000000073055a4067f01bd1a9000"
                    }
                ],
                "storageVariables": []
            }
        ]
    }
}