{
    "balance_change": {
        "balanceChanges": []
    },
    "profile": {
        "basic_info": {
            "baseFee": "",
            "blockNumber": 9052004,
            "callData": "0x14151f7f0000000000000000000000000000000000000000000000000000000000000001000000000000000000000000000000000000000000000000000000000000001e",
            "debugEnable": true,
            "errorInfo": "",
            "eventCount": 0,
            "feeRecipient": "0x04668ec2f57cc15c381b461b9fedab5d451c8f7f",
            "formatValue": "0",
            "gasLimit": 9309055,
            "gasPrice": "5.1111",
            "gasUsed": 7009055,
            "intTxnCount": 0,
            "internalRevert": false,
            "internalRevertMessage": "",
            "isContractCreation": false,
            "isFlashloan": false,
            "maxFee": "",
            "nonce": 474,
            "overwritedBlockNumber": -1,
            "priorityFee": "",
            "receiver": "0xae6733ec673bc211b3f6959dbd5c377e1a439769",
            "revertMessage": "",
            "sender": "0x7dab4f7b8e72e907d2778883c2bfa6c14fa79e28",
            "simulationEnable": true,
            "sourceTxnHash": "0x9804ebb76bdeb6edaa42b8765204ce0953e15f44cec1dc7e37980a6315e3797c",
            "status": true,
            "timestamp": "2019-12-05T00:02:50Z",
            "transactionFee": "0.0358239810105",
            "txnHash": "0x9804ebb76bdeb6edaa42b8765204ce0953e15f44cec1dc7e37980a6315e3797c",
            "txnIndex": 4,
            "type": 0,
            "value": "0"
        },
        "fund_flow": [],
        "token_infos": [
            {
                "address": "0xc02aaa39b223fe8d0a0e5c4f27ead9083c756cc2",
                "decimals": 18
            },
            {
                "address": "0xeeeeeeeeeeeeeeeeeeeeeeeeeeeeeeeeeeeeeeee",
                "decimals": 18
            }
        ]
    },
    "address_label": {
        "labels": [
            {
                "address": "0x0000000000000000000000000000000000000004",
                "label": "Precompiled"
            },
            {
                "address": "0xeeeeeeeeeeeeeeeeeeeeeeeeeeeeeeeeeeeeeeee",
                "label": "Ether"
            },
            {
                "address": "0x0000000000000000000000000000000000000001",
                "label": "Precompiled"
            },
            {
                "address": "0x0000000000000000000000000000000000000002",
                "label": "Precompiled"
            },
            {
                "address": "0x0000000000000000000000000000000000000003",
                "label": "Precompiled"
            }
        ]
    },
    "trace": {
        "accountLabels": null,
        "dataMap": {
            "-1": {
                "invocation": {
                    "address": "0x7dab4f7b8e72e907d2778883c2bfa6c14fa79e28",
                    "callData": "",
                    "decodedMethod": null,
                    "errorInfo": "",
                    "fromAddress": "",
                    "gasUsed": 0,
                    "id": -1,
                    "methodDecoded": false,
                    "operation": "",
                    "output": "",
                    "revert": false,
                    "revertMessage": "",
                    "selector": "",
                    "status": false,
                    "value": ""
                },
                "nodeType": 0
            },
            "0": {
                "invocation": {
                    "address": "0xae6733ec673bc211b3f6959dbd5c377e1a439769",
                    "callData": "0x0000000000000000000000000000000000000000000000000000000000000001000000000000000000000000000000000000000000000000000000000000001e",
                    "decodedMethod": {
                        "callParams": [
                            {
                                "name": "start",
                                "type": "uint256",
                                "value": "1"
                            },
                            {
                                "name": "end",
                                "type": "uint256",
                                "value": "30"
                            }
                        ],
                        "constructorArguments": "",
                        "name": "calDynamicProfit",
                        "returnParams": [],
                        "signature": "calDynamicProfit(uint256,uint256)"
                    },
                    "errorInfo": "",
                    "fromAddress": "0x7dab4f7b8e72e907d2778883c2bfa6c14fa79e28",
                    "gasUsed": 7009055,
                    "id": 0,
                    "methodDecoded": true,
                    "operation": "CALL",
                    "output": "",
                    "revert": false,
                    "revertMessage": "",
                    "selector": "0x14151f7f",
                    "status": true,
                    "value": "0"
                },
                "nodeType": 0
            }
        },
        "gasFlame": [
            {
                "children": [
                    {
                        "children": [
                            {
                                "children": [],
                                "depth": 0,
                                "name": "Initial Gas",
                                "value": 21656
                            },
                            {
                                "children": [],
                                "depth": 0,
                                "name": "Executed Gas",
                                "value": 7287399
                            }
                        ],
                        "depth": -1,
                        "name": "Actual Gas Used",
                        "value": 7009055
                    },
                    {
                        "children": [],
                        "depth": -1,
                        "name": "Refunded Gas",
                        "value": 300000
                    }
                ],
                "depth": -2,
                "name": "Total Gas",
                "value": 7309055
            }
        ],
        "isConfirmed": true,
        "mainTrace": [
            {
                "children": [
                    {
                        "children": [],
                        "depth": 0,
                        "id": 0,
                        "order": 0
                    }
                ],
                "depth": -1,
                "id": -1,
                "order": -1
            }
        ],
        "mainTraceNodeCount": 1,
        "parentIdMap": {
            "0": -1
        },
        "tidyTrace": [
            {
                "children": [
                    {
                        "children": [],
                        "depth": 0,
                        "id": 0,
                        "order": 0
                    }
                ],
                "depth": -1,
                "id": -1,
                "order": -1
            }
        ],
        "tidyTraceNodeCount": 1
    },
    "state_change": {
        "stateChanges": [
            {
                "address": "0xae6733ec673bc211b3f6959dbd5c377e1a439769",
                "erc": "",
                "slots": [
                    {
                        "current": "0x00000000000000000000000000000000000000000000000352b9b7e5ac84e000",
                        "key": "0x120fc72398adcbfcc5302e7e1c749ccdbdf39e45c05b05e898b16a2fac198d91",
                        "prev": "0x00000000000000000000000000000000000000000000000346ede966916fe000"
                    },
                    {
                        "current": "0x0000000000000000000000000000000000000000000000000000000000000002",
                        "key": "0xab56162c46958c35a1983285e7e39fbc509551860323fb721c64b0dccbf49665",
                        "prev": "0x0000000000000000000000000000000000000000000000000000000000000001"
                    },
                    {
                        "current": "0x000000000000000000000000000000000000000000000001158e460913d00000",
                        "key": "0x0a071b80e8939f9e19b0b25c705c59b0d93a8fba9ba58d7e426f654a26aa9b0a",
                        "prev": "0x0000000000000000000000000000000000000000000000000000000000000000"
                    },
                    {
                        "current": "0x000000000000000000000000000000000000000000000000061b31ab352c0000",
                        "key": "0xe75e1e005394cf5312aaa1e9053ab0137a0efd04a52ca2e26c1543b89cd38d5e",
                        "prev": "0x0000000000000000000000000000000000000000000000000000000000000000"
                    },
                    {
                        "current": "0x0000000000000000000000000000000000000000000000000000000000000000",
                        "key": "0x2cf2db6ad14061397f255a2581326390e1e22be7d471eba58b61f3e9c770704f",
                        "prev": "0x0000000000000000000000000000000000000000000000000000000000000003"
                    },
                    {
                        "current": "0x0000000000000000000000000000000000000000000000000000000000000000",
                        "key": "0x2cf2db6ad14061397f255a2581326390e1e22be7d471eba58b61f3e9c7707052",
                        "prev": "0x000000000000000000000000000000000000000000000001158e460913d00000"
                    },
                    {
                        "current": "0x000000000000000000000000000000000000000000000001158e460913d00000",
                        "key": "0x612b8d9ca18ae22e3f512ca656aadad5f07e3325a6426a4452fdef0c1d4eca91",
                        "prev": "0x0000000000000000000000000000000000000000000000000000000000000000"
                    },
                    {
                        "current": "0x0000000000000000000000000000000000000000000000000000000000000000",
                        "key": "0x4b70f4aba0419152c904f8a701350cce5e88c2728f9e6dc774c25d7c134c8245",
                        "prev": "0x000000000000000000000000000000000000000000000001158e460913d00000"
                    },
                    {
                        "current": "0x000000000000000000000000000000000000000000000001158e460913d00000",
                        "key": "0x2cf2db6ad14061397f255a2581326390e1e22be7d471eba58b61f3e9c7707053",
                        "prev": "0x0000000000000000000000000000000000000000000000000000000000000000"
                    },
                    {
                        "current": "0x00000000000000000000000000000000000000000000000002c68af0bb140000",
                        "key": "0x4b70f4aba0419152c904f8a701350cce5e88c2728f9e6dc774c25d7c134c8247",
                        "prev": "0x0000000000000000000000000000000000000000000000000000000000000000"
                    },
                    {
                        "current": "0x0000000000000000000000000000000000000000000000000000000000000002",
                        "key": "0x3bd16ac93d1ab39f8f0d0e894439985fcd48b2265e84a725cb7b8dae157a823d",
                        "prev": "0x0000000000000000000000000000000000000000000000000000000000000001"
                    },
                    {
                        "current": "0x0000000000000000000000000000000000000000000000001bc16d674ec80000",
                        "key": "0xcc54778e4943e06a7dd10988d324c566e9bf5526c24e330c4b1bad2d5e1d84f2",
                        "prev": "0x00000000000000000000000000000000000000000000000018fae27693b40000"
                    },
                    {
                        "current": "0x00000000000000000000000000000000000000000000000026023e4773bc4000",
                        "key": "0x0a071b80e8939f9e19b0b25c705c59b0d93a8fba9ba58d7e426f654a26aa9b0c",
                        "prev": "0x0000000000000000000000000000000000000000000000001b52a75bd6af4000"
                    },
                    {
                        "current": "0x00000000000000000000000000000000000000000000000004b7ec32d7a20000",
                        "key": "0x4da5f75d8c2d44cb8c4c9ced5f8f85ba924b5cad8272f2592bd5de08286cc9d4",
                        "prev": "0x0000000000000000000000000000000000000000000000000000000000000000"
                    },
                    {
                        "current": "0x00000000000000000000000000000000000000000000000012dfb0cb5e880000",
                        "key": "0xb6904b665abb146dea533bd860a11046075e1924dcb5bd13b4b53148cc671b7e",
                        "prev": "0x0000000000000000000000000000000000000000000000000000000000000000"
                    },
                    {
                        "current": "0x00000000000000000000000000000000000000000000000002c68af0bb140000",
                        "key": "0x612b8d9ca18ae22e3f512ca656aadad5f07e3325a6426a4452fdef0c1d4eca92",
                        "prev": "0x0000000000000000000000000000000000000000000000000000000000000000"
                    },
                    {
                        "current": "0x0000000000000000000000000000000000000000000000002cf9b49e90fb4000",
                        "key": "0x2cf2db6ad14061397f255a2581326390e1e22be7d471eba58b61f3e9c7707055",
                        "prev": "0x00000000000000000000000000000000000000000000000022912b97d3704000"
                    },
                    {
                        "current": "0x00000000000000000000000000000000000000000000000002c68af0bb140000",
                        "key": "0x2cf2db6ad14061397f255a2581326390e1e22be7d471eba58b61f3e9c7707054",
                        "prev": "0x0000000000000000000000000000000000000000000000000000000000000000"
                    },
                    {
                        "current": "0x00000000000000000000000000000000000000000000000002c68af0bb140000",
                        "key": "0xb28edbd074d71792904e7de1ddba662ad92ad544c7f5ed4434f973b2fd8c1004",
                        "prev": "0x0000000000000000000000000000000000000000000000000000000000000000"
                    },
                    {
                        "current": "0x000000000000000000000000000000000000000000000004e2c422e2b8960000",
                        "key": "0x2e91022bb026fdbe1788580afd14576779e555f0f6adc2a79c7fb4efd05bcad0",
                        "prev": "0x000000000000000000000000000000000000000000000004d68dbf8c4e3e0000"
                    },
                    {
                        "current": "0x00000000000000000000000000000000000000000000000002c68af0bb140000",
                        "key": "0x42b0f13c4b15f09c963be49c314e1503904732e5d287726560aff5f26a524f38",
                        "prev": "0x0000000000000000000000000000000000000000000000000000000000000000"
                    },
                    {
                        "current": "0x0000000000000000000000000000000000000000000000003782dace9d900000",
                        "key": "0x3c99d7a9b51370d2349bd2916dea9bd15ce3ea0d5833c7940f64eeb82ecc7007",
                        "prev": "0x00000000000000000000000000000000000000000000000034bc4fdde27c0000"
                    },
                    {
                        "current": "0x000000000000000000000000000000000000000000000000000000000000000a",
                        "key": "0xf5cb4743d6773a98c945c0b526a195ea7a16eb7e0b105255ef7542c0b05cf4b4",
                        "prev": "0x0000000000000000000000000000000000000000000000000000000000000009"
                    },
                    {
                        "current": "0x000000000000000000000000000000000000000000000001ff447575a8bbc000",
                        "key": "0xfe40b748cf0277679e37db273104f91b4ca027d3993f1e22e3a5574b77e9f153",
                        "prev": "0x000000000000000000000000000000000000000000000001f8e235e5940dc000"
                    },
                    {
                        "current": "0x00000000000000000000000000000000000000000000000002c68af0bb140000",
                        "key": "0x67643bcfe59f22427215d745afb0094205494916a4b9984b27616f4d594cef42",
                        "prev": "0x0000000000000000000000000000000000000000000000000000000000000000"
                    },
                    {
                        "current": "0x00000000000000000000000000000000000000000000000031bd35c54e950000",
                        "key": "0x67643bcfe59f22427215d745afb0094205494916a4b9984b27616f4d594cef43",
                        "prev": "0x000000000000000000000000000000000000000000000000273125cc21490000"
                    },
                    {
                        "current": "0x00000000000000000000000000000000000000000000000036425431f1ed4000",
                        "key": "0x3c99d7a9b51370d2349bd2916dea9bd15ce3ea0d5833c7940f64eeb82ecc7006",
                        "prev": "0x0000000000000000000000000000000000000000000000002b92bd4654e04000"
                    },
                    {
                        "current": "0x000000000000000000000000000000000000000000000002195252d00e0d4000",
                        "key": "0xb28edbd074d71792904e7de1ddba662ad92ad544c7f5ed4434f973b2fd8c1007",
                        "prev": "0x000000000000000000000000000000000000000000000002168bc7df52f94000"
                    },
                    {
                        "current": "0x0000000000000000000000000000000000000000000000000000000000000002",
                        "key": "0xc4650afcd0b0bbdcf78eeccdb1263c3f4dc5914fe97b05038ab44a1cfa523bf0",
                        "prev": "0x0000000000000000000000000000000000000000000000000000000000000001"
                    },
                    {
                        "current": "0x0000000000000000000000000000000000000000000000005d671cf36f64c000",
                        "key": "0xb02ca82d403d33ed8ca349208211d7ad9d6919312bcf62e1e283e0d13ba2901f",
                        "prev": "0x00000000000000000000000000000000000000000000000053221adf219ac000"
                    },
                    {
                        "current": "0x00000000000000000000000000000000000000000000000034bc4fdde27c0000",
                        "key": "0xb28edbd074d71792904e7de1ddba662ad92ad544c7f5ed4434f973b2fd8c1006",
                        "prev": "0x00000000000000000000000000000000000000000000000031f5c4ed27680000"
                    },
                    {
                        "current": "0x0000000000000000000000000000000000000000000000000000000000000000",
                        "key": "0xab56162c46958c35a1983285e7e39fbc509551860323fb721c64b0dccbf4965b",
                        "prev": "0x000000000000000000000000000000000000000000000001158e460913d00000"
                    },
                    {
                        "current": "0x000000000000000000000000000000000000000000000001158e460913d00000",
                        "key": "0x67643bcfe59f22427215d745afb0094205494916a4b9984b27616f4d594cef41",
                        "prev": "0x0000000000000000000000000000000000000000000000000000000000000000"
                    },
                    {
                        "current": "0x0000000000000000000000000000000000000000000000000000000000000000",
                        "key": "0xc4650afcd0b0bbdcf78eeccdb1263c3f4dc5914fe97b05038ab44a1cfa523be6",
                        "prev": "0x000000000000000000000000000000000000000000000001158e460913d00000"
                    },
                    {
                        "current": "0x000000000000000000000000000000000000000000000002a8bac08c3c5f2000",
                        "key": "0x2cf2db6ad14061397f255a2581326390e1e22be7d471eba58b61f3e9c7707057",
                        "prev": "0x0000000000000000000000000000000000000000000000029e5237857ed42000"
                    },
                    {
                        "current": "0x0000000000000000000000000000000000000000000000000000000000000000",
                        "key": "0x0a071b80e8939f9e19b0b25c705c59b0d93a8fba9ba58d7e426f654a26aa9b06",
                        "prev": "0x0000000000000000000000000000000000000000000000000000000000000003"
                    },
                    {
                        "current": "0x000000000000000000000000000000000000000000000001158e460913d00000",
                        "key": "0xab56162c46958c35a1983285e7e39fbc509551860323fb721c64b0dccbf4965c",
                        "prev": "0x0000000000000000000000000000000000000000000000000000000000000000"
                    },
                    {
                        "current": "0x00000000000000000000000000000000000000000000000006623f9014ae0000",
                        "key": "0xfe40b748cf0277679e37db273104f91b4ca027d3993f1e22e3a5574b77e9f151",
                        "prev": "0x0000000000000000000000000000000000000000000000000000000000000000"
                    },
                    {
                        "current": "0x00000000000000000000000000000000000000000000000103a6350592204000",
                        "key": "0xeb618b311623477098c94433c69bc637e8511ecd6e9abac3a5818c4511e273ee",
                        "prev": "0x000000000000000000000000000000000000000000000000feee48d2ba7e4000"
                    },
                    {
                        "current": "0x000000000000000000000000000000000000000000000007371e75d6277a6000",
                        "key": "0xb6904b665abb146dea533bd860a11046075e1924dcb5bd13b4b53148cc671b80",
                        "prev": "0x000000000000000000000000000000000000000000000007243ec50ac8f26000"
                    },
                    {
                        "current": "0x000000000000000000000000000000000000000000000003a4c3a8043f22e000",
                        "key": "0xc4650afcd0b0bbdcf78eeccdb1263c3f4dc5914fe97b05038ab44a1cfa523beb",
                        "prev": "0x000000000000000000000000000000000000000000000003984636c8f548e000"
                    },
                    {
                        "current": "0x000000000000000000000000000000000000000000000002deacdc5a3f452000",
                        "key": "0x67643bcfe59f22427215d745afb0094205494916a4b9984b27616f4d594cef45",
                        "prev": "0x000000000000000000000000000000000000000000000002d420cc6111f92000"
                    },
                    {
                        "current": "0x000000000000000000000000000000000000000000000001158e460913d00000",
                        "key": "0x3bd16ac93d1ab39f8f0d0e894439985fcd48b2265e84a725cb7b8dae157a8234",
                        "prev": "0x0000000000000000000000000000000000000000000000000000000000000000"
                    },
                    {
                        "current": "0x0000000000000000000000000000000000000000000000003782dace9d900000",
                        "key": "0xcc54778e4943e06a7dd10988d324c566e9bf5526c24e330c4b1bad2d5e1d84f4",
                        "prev": "0x00000000000000000000000000000000000000000000000034bc4fdde27c0000"
                    },
                    {
                        "current": "0x0000000000000000000000000000000000000000000000013d0852aa03e38000",
                        "key": "0x18b8b7169174e185ceba5db7cd21d1720c920d229b7eb23818eca649746d586f",
                        "prev": "0x0000000000000000000000000000000000000000000000013a41c7b948cf8000"
                    },
                    {
                        "current": "0x0000000000000000000000000000000000000000000000000a8c0ff92d4c0000",
                        "key": "0xad5dfb6b21d6ed25a4b757dc8a3baff5c4bf7fc9315dc71097631cd9af5834eb",
                        "prev": "0x0000000000000000000000000000000000000000000000000000000000000000"
                    },
                    {
                        "current": "0x000000000000000000000000000000000000000000000000000000000000000a",
                        "key": "0xb328ffc3d13a89baed54124b367215a0a77dc3e058cb61aaeff53b3c2d7aa4b0",
                        "prev": "0x0000000000000000000000000000000000000000000000000000000000000009"
                    },
                    {
                        "current": "0x0000000000000000000000000000000000000000000000003782dace9d900000",
                        "key": "0x612b8d9ca18ae22e3f512ca656aadad5f07e3325a6426a4452fdef0c1d4eca94",
                        "prev": "0x00000000000000000000000000000000000000000000000034bc4fdde27c0000"
                    },
                    {
                        "current": "0x0000000000000000000000000000000000000000000000012a09dda5459a4000",
                        "key": "0x2e91022bb026fdbe1788580afd14576779e555f0f6adc2a79c7fb4efd05bcace",
                        "prev": "0x0000000000000000000000000000000000000000000000011dd37a4edb424000"
                    },
                    {
                        "current": "0x00000000000000000000000000000000000000000000000002c68af0bb140000",
                        "key": "0x3bd16ac93d1ab39f8f0d0e894439985fcd48b2265e84a725cb7b8dae157a8235",
                        "prev": "0x0000000000000000000000000000000000000000000000000000000000000000"
                    },
                    {
                        "current": "0x000000000000000000000000000000000000000000000003ed10b9e4c7c1e000",
                        "key": "0xad5dfb6b21d6ed25a4b757dc8a3baff5c4bf7fc9315dc71097631cd9af5834ed",
                        "prev": "0x000000000000000000000000000000000000000000000003e284a9eb9a75e000"
                    },
                    {
                        "current": "0x0000000000000000000000000000000000000000000000000000000000000000",
                        "key": "0x120fc72398adcbfcc5302e7e1c749ccdbdf39e45c05b05e898b16a2fac198d89",
                        "prev": "0x0000000000000000000000000000000000000000000000000000000000000003"
                    },
                    {
                        "current": "0x0000000000000000000000000000000000000000000000004439b5791afc0000",
                        "key": "0xc4650afcd0b0bbdcf78eeccdb1263c3f4dc5914fe97b05038ab44a1cfa523be9",
                        "prev": "0x00000000000000000000000000000000000000000000000037bc443dd1220000"
                    },
                    {
                        "current": "0x00000000000000000000000000000000000000000000000002c68af0bb140000",
                        "key": "0xb28edbd074d71792904e7de1ddba662ad92ad544c7f5ed4434f973b2fd8c1005",
                        "prev": "0x0000000000000000000000000000000000000000000000000000000000000000"
                    },
                    {
                        "current": "0x000000000000000000000000000000000000000000000000000000000000000a",
                        "key": "0x97e4d4f3761f4e1e670e29038f129cfb386e7205e4d6bf952cb3ee32beb43c97",
                        "prev": "0x0000000000000000000000000000000000000000000000000000000000000009"
                    },
                    {
                        "current": "0x0000000000000000000000000000000000000000000000007a519e4d2a4b0000",
                        "key": "0x65fb6f14cd7879a82bbe5566f7ce10a47c2d17d9f9b0b255bf8ebe5d800e9eb6",
                        "prev": "0x000000000000000000000000000000000000000000000000778b135c6f370000"
                    },
                    {
                        "current": "0x000000000000000000000000000000000000000000000005ba2285b00da26000",
                        "key": "0x903bbc3dffc8e53efe3c735be4e883598e43d64553340dd43659b367ad7ac4af",
                        "prev": "0x000000000000000000000000000000000000000000000005aade898408b46000"
                    },
                    {
                        "current": "0x0000000000000000000000000000000000000000000000003782dace9d900000",
                        "key": "0x67643bcfe59f22427215d745afb0094205494916a4b9984b27616f4d594cef44",
                        "prev": "0x00000000000000000000000000000000000000000000000034bc4fdde27c0000"
                    },
                    {
                        "current": "0x0000000000000000000000000000000000000000000000000000000000000002",
                        "key": "0x120fc72398adcbfcc5302e7e1c749ccdbdf39e45c05b05e898b16a2fac198d96",
                        "prev": "0x0000000000000000000000000000000000000000000000000000000000000001"
                    },
                    {
                        "current": "0x000000000000000000000000000000000000000000000000215abbf22ef70000",
                        "key": "0x4b70f4aba0419152c904f8a701350cce5e88c2728f9e6dc774c25d7c134c8248",
                        "prev": "0x00000000000000000000000000000000000000000000000016879e1422290000"
                    },
                    {
                        "current": "0x0000000000000000000000000000000000000000000000000000000000000000",
                        "key": "0x3bd16ac93d1ab39f8f0d0e894439985fcd48b2265e84a725cb7b8dae157a8230",
                        "prev": "0x0000000000000000000000000000000000000000000000000000000000000003"
                    },
                    {
                        "current": "0x000000000000000000000000000000000000000000000000000000000000000a",
                        "key": "0x12fb7653a89d8423d69a9df6c55d688b0aae60542f0107e6676f3cd64970c151",
                        "prev": "0x0000000000000000000000000000000000000000000000000000000000000009"
                    },
                    {
                        "current": "0x0000000000000000000000000000000000000000000000000000000000000000",
                        "key": "0x0a071b80e8939f9e19b0b25c705c59b0d93a8fba9ba58d7e426f654a26aa9b09",
                        "prev": "0x000000000000000000000000000000000000000000000001158e460913d00000"
                    },
                    {
                        "current": "0x000000000000000000000000000000000000000000000001158e460913d00000",
                        "key": "0xc4650afcd0b0bbdcf78eeccdb1263c3f4dc5914fe97b05038ab44a1cfa523be7",
                        "prev": "0x0000000000000000000000000000000000000000000000000000000000000000"
                    },
                    {
                        "current": "0x0000000000000000000000000000000000000000000000041a7afb4e23392000",
                        "key": "0xb02ca82d403d33ed8ca349208211d7ad9d6919312bcf62e1e283e0d13ba29021",
                        "prev": "0x0000000000000000000000000000000000000000000000041035f939d56f2000"
                    },
                    {
                        "current": "0x0000000000000000000000000000000000000000000000004ced94816f2f2000",
                        "key": "0xd2d1f28e8fcca2bb1dae19a0614019dbccb8055c1ede393fffd8f2910489ec9f",
                        "prev": "0x0000000000000000000000000000000000000000000000004499f3af3df32000"
                    },
                    {
                        "current": "0x000000000000000000000000000000000000000000000002aa7e320a1ffb0000",
                        "key": "0x3f45db9e992623d8ab62faaaa5a9c764fdf85787aad275104cfb97604a31ca6d",
                        "prev": "0x0000000000000000000000000000000000000000000000029fab142c132d0000"
                    },
                    {
                        "current": "0x00000000000000000000000000000000000000000000000271786a2a1bee2000",
                        "key": "0x612b8d9ca18ae22e3f512ca656aadad5f07e3325a6426a4452fdef0c1d4eca95",
                        "prev": "0x00000000000000000000000000000000000000000000000266ec5a30eea22000"
                    },
                    {
                        "current": "0x000000000000000000000000000000000000000000000000000000000000000a",
                        "key": "0x2b8b8d46f4d5d80f956a4667c828c0a9df7d677c50808b7bb1aa8a9795069bfb",
                        "prev": "0x0000000000000000000000000000000000000000000000000000000000000009"
                    },
                    {
                        "current": "0x0000000000000000000000000000000000000000000000000000000000000000",
                        "key": "0xab56162c46958c35a1983285e7e39fbc509551860323fb721c64b0dccbf49658",
                        "prev": "0x0000000000000000000000000000000000000000000000000000000000000003"
                    },
                    {
                        "current": "0x0000000000000000000000000000000000000000000000003782dace9d900000",
                        "key": "0x65fb6f14cd7879a82bbe5566f7ce10a47c2d17d9f9b0b255bf8ebe5d800e9eb5",
                        "prev": "0x00000000000000000000000000000000000000000000000034bc4fdde27c0000"
                    },
                    {
                        "current": "0x0000000000000000000000000000000000000000000000003782dace9d900000",
                        "key": "0x0a071b80e8939f9e19b0b25c705c59b0d93a8fba9ba58d7e426f654a26aa9b0d",
                        "prev": "0x00000000000000000000000000000000000000000000000034bc4fdde27c0000"
                    },
                    {
                        "current": "0x0000000000000000000000000000000000000000000000003782dace9d900000",
                        "key": "0x2cf2db6ad14061397f255a2581326390e1e22be7d471eba58b61f3e9c7707056",
                        "prev": "0x00000000000000000000000000000000000000000000000034bc4fdde27c0000"
                    },
                    {
                        "current": "0x0000000000000000000000000000000000000000000000024f825b1c2f62a000",
                        "key": "0x0a071b80e8939f9e19b0b25c705c59b0d93a8fba9ba58d7e426f654a26aa9b0e",
                        "prev": "0x00000000000000000000000000000000000000000000000244d2c4309255a000"
                    },
                    {
                        "current": "0x0000000000000000000000000000000000000000000000000000000000000000",
                        "key": "0x3c99d7a9b51370d2349bd2916dea9bd15ce3ea0d5833c7940f64eeb82ecc7003",
                        "prev": "0x000000000000000000000000000000000000000000000001158e460913d00000"
                    },
                    {
                        "current": "0x000000000000000000000000000000000000000000000000000000000000000a",
                        "key": "0x2047a450b095b488648931a63b686a43d9d7bd98b0768017a3c7d8df8642af10",
                        "prev": "0x0000000000000000000000000000000000000000000000000000000000000009"
                    },
                    {
                        "current": "0x00000000000000000000000000000000000000000000000034bc4fdde27c0000",
                        "key": "0x6ad643a4a5419d184519bf5db1cc8c143e6945e89ff541c9e4602dfadddf653e",
                        "prev": "0x00000000000000000000000000000000000000000000000031f5c4ed27680000"
                    },
                    {
                        "current": "0x0000000000000000000000000000000000000000000000000000000000000009",
                        "key": "0xeee04c57eee97f52bf0e695611c892ac84e0932b2ca7e43d2dd252cabf2fff1f",
                        "prev": "0x0000000000000000000000000000000000000000000000000000000000000008"
                    },
                    {
                        "current": "0x0000000000000000000000000000000000000000000000000000000000000000",
                        "key": "0xc4650afcd0b0bbdcf78eeccdb1263c3f4dc5914fe97b05038ab44a1cfa523be3",
                        "prev": "0x0000000000000000000000000000000000000000000000000000000000000003"
                    },
                    {
                        "current": "0x0000000000000000000000000000000000000000000000000000000000000000",
                        "key": "0x4b70f4aba0419152c904f8a701350cce5e88c2728f9e6dc774c25d7c134c8242",
                        "prev": "0x0000000000000000000000000000000000000000000000000000000000000003"
                    },
                    {
                        "current": "0x0000000000000000000000000000000000000000000000000000000000000002",
                        "key": "0x612b8d9ca18ae22e3f512ca656aadad5f07e3325a6426a4452fdef0c1d4eca9a",
                        "prev": "0x0000000000000000000000000000000000000000000000000000000000000001"
                    },
                    {
                        "current": "0x0000000000000000000000000000000000000000000000003d7681ccc2626000",
                        "key": "0x120fc72398adcbfcc5302e7e1c749ccdbdf39e45c05b05e898b16a2fac198d8f",
                        "prev": "0x00000000000000000000000000000000000000000000000031aab34da74d6000"
                    },
                    {
                        "current": "0x0000000000000000000000000000000000000000000000000000000000000000",
                        "key": "0x3bd16ac93d1ab39f8f0d0e894439985fcd48b2265e84a725cb7b8dae157a8233",
                        "prev": "0x000000000000000000000000000000000000000000000001158e460913d00000"
                    },
                    {
                        "current": "0x0000000000000000000000000000000000000000000000000000000000000000",
                        "key": "0x612b8d9ca18ae22e3f512ca656aadad5f07e3325a6426a4452fdef0c1d4eca90",
                        "prev": "0x000000000000000000000000000000000000000000000001158e460913d00000"
                    },
                    {
                        "current": "0x0000000000000000000000000000000000000000000000000000000000000000",
                        "key": "0x612b8d9ca18ae22e3f512ca656aadad5f07e3325a6426a4452fdef0c1d4eca8d",
                        "prev": "0x0000000000000000000000000000000000000000000000000000000000000003"
                    },
                    {
                        "current": "0x000000000000000000000000000000000000000000000000000000000000000a",
                        "key": "0xd186cd2c186ff850801b7761c17a269a4310477a7037b133c453fc92d887384a",
                        "prev": "0x0000000000000000000000000000000000000000000000000000000000000009"
                    },
                    {
                        "current": "0x0000000000000000000000000000000000000000000000003782dace9d900000",
                        "key": "0x3bd16ac93d1ab39f8f0d0e894439985fcd48b2265e84a725cb7b8dae157a8237",
                        "prev": "0x00000000000000000000000000000000000000000000000034bc4fdde27c0000"
                    },
                    {
                        "current": "0x000000000000000000000000000000000000000000000000130a52bb17d60000",
                        "key": "0x65fb6f14cd7879a82bbe5566f7ce10a47c2d17d9f9b0b255bf8ebe5d800e9eb4",
                        "prev": "0x0000000000000000000000000000000000000000000000001043c7ca5cc20000"
                    },
                    {
                        "current": "0x000000000000000000000000000000000000000000000000058d15e176280000",
                        "key": "0xab56162c46958c35a1983285e7e39fbc509551860323fb721c64b0dccbf4965d",
                        "prev": "0x00000000000000000000000000000000000000000000000002c68af0bb140000"
                    },
                    {
                        "current": "0x000000000000000000000000000000000000000000000002d2c3d0b6f1afc000",
                        "key": "0xe75e1e005394cf5312aaa1e9053ab0137a0efd04a52ca2e26c1543b89cd38d60",
                        "prev": "0x000000000000000000000000000000000000000000000002cca89f0bbc83c000"
                    },
                    {
                        "current": "0x000000000000000000000000000000000000000000000001158e460913d00000",
                        "key": "0x120fc72398adcbfcc5302e7e1c749ccdbdf39e45c05b05e898b16a2fac198d8d",
                        "prev": "0x0000000000000000000000000000000000000000000000000000000000000000"
                    },
                    {
                        "current": "0x000000000000000000000000000000000000000000000000000000000000000a",
                        "key": "0xa90413d3e348197e96bd32c3056ad3925d9dab2b781828d5d84137c04c97312e",
                        "prev": "0x0000000000000000000000000000000000000000000000000000000000000009"
                    },
                    {
                        "current": "0x0000000000000000000000000000000000000000000000003782dace9d900000",
                        "key": "0x120fc72398adcbfcc5302e7e1c749ccdbdf39e45c05b05e898b16a2fac198d90",
                        "prev": "0x00000000000000000000000000000000000000000000000034bc4fdde27c0000"
                    },
                    {
                        "current": "0x0000000000000000000000000000000000000000000000000000000000000002",
                        "key": "0x67643bcfe59f22427215d745afb0094205494916a4b9984b27616f4d594cef4a",
                        "prev": "0x0000000000000000000000000000000000000000000000000000000000000001"
                    },
                    {
                        "current": "0x000000000000000000000000000000000000000000000000000000000000000a",
                        "key": "0x2ea26450ffac720d51ceef6723d94a3b88d1a0dd4c00967687fdc99aaf3d68f7",
                        "prev": "0x0000000000000000000000000000000000000000000000000000000000000009"
                    },
                    {
                        "current": "0x00000000000000000000000000000000000000000000000057f70da4550d6000",
                        "key": "0x26563152975fdf06be7b5c3d0c826e62c8765792bffa59acdfb4d17ca9407d51",
                        "prev": "0x0000000000000000000000000000000000000000000000004e402759c6476000"
                    },
                    {
                        "current": "0x00000000000000000000000000000000000000000000000212136a88b25f6000",
                        "key": "0x4b70f4aba0419152c904f8a701350cce5e88c2728f9e6dc774c25d7c134c824a",
                        "prev": "0x00000000000000000000000000000000000000000000000207404caaa5916000"
                    },
                    {
                        "current": "0x00000000000000000000000000000000000000000000000002c68af0bb140000",
                        "key": "0x0a071b80e8939f9e19b0b25c705c59b0d93a8fba9ba58d7e426f654a26aa9b0b",
                        "prev": "0x0000000000000000000000000000000000000000000000000000000000000000"
                    },
                    {
                        "current": "0x000000000000000000000000000000000000000000000000000000000000000a",
                        "key": "0x114df92fb727def7090d42a1cb99299e0c8fa5d8705bd3a002da87fa03b42617",
                        "prev": "0x0000000000000000000000000000000000000000000000000000000000000009"
                    },
                    {
                        "current": "0x0000000000000000000000000000000000000000000000000000000000000000",
                        "key": "0x67643bcfe59f22427215d745afb0094205494916a4b9984b27616f4d594cef3d",
                        "prev": "0x0000000000000000000000000000000000000000000000000000000000000003"
                    },
                    {
                        "current": "0x0000000000000000000000000000000000000000000000000853a0d2313c0000",
                        "key": "0x65fb6f14cd7879a82bbe5566f7ce10a47c2d17d9f9b0b255bf8ebe5d800e9eb3",
                        "prev": "0x000000000000000000000000000000000000000000000000058d15e176280000"
                    },
                    {
                        "current": "0x0000000000000000000000000000000000000000000000000000000000000000",
                        "key": "0x120fc72398adcbfcc5302e7e1c749ccdbdf39e45c05b05e898b16a2fac198d8c",
                        "prev": "0x000000000000000000000000000000000000000000000001158e460913d00000"
                    },
                    {
                        "current": "0x00000000000000000000000000000000000000000000000459265c930e614000",
                        "key": "0x4da5f75d8c2d44cb8c4c9ced5f8f85ba924b5cad8272f2592bd5de08286cc9d6",
                        "prev": "0x000000000000000000000000000000000000000000000004546e706036bf4000"
                    },
                    {
                        "current": "0x000000000000000000000000000000000000000000000002370ff76eeff3e000",
                        "key": "0x26563152975fdf06be7b5c3d0c826e62c8765792bffa59acdfb4d17ca9407d53",
                        "prev": "0x0000000000000000000000000000000000000000000000022d591124612de000"
                    },
                    {
                        "current": "0x0000000000000000000000000000000000000000000000000000000000000002",
                        "key": "0x4b70f4aba0419152c904f8a701350cce5e88c2728f9e6dc774c25d7c134c824f",
                        "prev": "0x0000000000000000000000000000000000000000000000000000000000000001"
                    },
                    {
                        "current": "0x00000000000000000000000000000000000000000000000002c68af0bb140000",
                        "key": "0x6ad643a4a5419d184519bf5db1cc8c143e6945e89ff541c9e4602dfadddf653c",
                        "prev": "0x0000000000000000000000000000000000000000000000000000000000000000"
                    },
                    {
                        "current": "0x0000000000000000000000000000000000000000000000003782dace9d900000",
                        "key": "0x4b70f4aba0419152c904f8a701350cce5e88c2728f9e6dc774c25d7c134c8249",
                        "prev": "0x00000000000000000000000000000000000000000000000034bc4fdde27c0000"
                    },
                    {
                        "current": "0x0000000000000000000000000000000000000000000000000000000000000002",
                        "key": "0x2cf2db6ad14061397f255a2581326390e1e22be7d471eba58b61f3e9c770705c",
                        "prev": "0x0000000000000000000000000000000000000000000000000000000000000001"
                    },
                    {
                        "current": "0x0000000000000000000000000000000000000000000000000000000000000009",
                        "key": "0x38a296691c370570263e32b9c62c68247a90c1785549aebf8f630a8781dfce0e",
                        "prev": "0x0000000000000000000000000000000000000000000000000000000000000008"
                    },
                    {
                        "current": "0x000000000000000000000000000000000000000000000003f519da9c600d4000",
                        "key": "0x3bd16ac93d1ab39f8f0d0e894439985fcd48b2265e84a725cb7b8dae157a8238",
                        "prev": "0x000000000000000000000000000000000000000000000003e7a3b8c007ec4000"
                    },
                    {
                        "current": "0x0000000000000000000000000000000000000000000000003782dace9d900000",
                        "key": "0xc4650afcd0b0bbdcf78eeccdb1263c3f4dc5914fe97b05038ab44a1cfa523bea",
                        "prev": "0x00000000000000000000000000000000000000000000000034bc4fdde27c0000"
                    },
                    {
                        "current": "0x000000000000000000000000000000000000000000000001158e460913d00000",
                        "key": "0x4b70f4aba0419152c904f8a701350cce5e88c2728f9e6dc774c25d7c134c8246",
                        "prev": "0x0000000000000000000000000000000000000000000000000000000000000000"
                    },
                    {
                        "current": "0x0000000000000000000000000000000000000000000000030aca950f5bc26000",
                        "key": "0x3c99d7a9b51370d2349bd2916dea9bd15ce3ea0d5833c7940f64eeb82ecc7008",
                        "prev": "0x000000000000000000000000000000000000000000000003001afe23beb56000"
                    },
                    {
                        "current": "0x000000000000000000000000000000000000000000000001158e460913d00000",
                        "key": "0x3c99d7a9b51370d2349bd2916dea9bd15ce3ea0d5833c7940f64eeb82ecc7004",
                        "prev": "0x0000000000000000000000000000000000000000000000000000000000000000"
                    },
                    {
                        "current": "0x0000000000000000000000000000000000000000000000000f43fc2c04ee0000",
                        "key": "0x903bbc3dffc8e53efe3c735be4e883598e43d64553340dd43659b367ad7ac4ad",
                        "prev": "0x0000000000000000000000000000000000000000000000000000000000000000"
                    },
                    {
                        "current": "0x000000000000000000000000000000000000000000000001d8f7adfb4d9c4000",
                        "key": "0xd2d1f28e8fcca2bb1dae19a0614019dbccb8055c1ede393fffd8f2910489eca1",
                        "prev": "0x000000000000000000000000000000000000000000000001d0a40d291c604000"
                    },
                    {
                        "current": "0x0000000000000000000000000000000000000000000000004b83463c64fd6000",
                        "key": "0x3bd16ac93d1ab39f8f0d0e894439985fcd48b2265e84a725cb7b8dae157a8236",
                        "prev": "0x0000000000000000000000000000000000000000000000003e0d24600cdc6000"
                    },
                    {
                        "current": "0x00000000000000000000000000000000000000000000000002c68af0bb140000",
                        "key": "0x18b8b7169174e185ceba5db7cd21d1720c920d229b7eb23818eca649746d586d",
                        "prev": "0x0000000000000000000000000000000000000000000000000000000000000000"
                    },
                    {
                        "current": "0x0000000000000000000000000000000000000000000000000000000000000000",
                        "key": "0x67643bcfe59f22427215d745afb0094205494916a4b9984b27616f4d594cef40",
                        "prev": "0x000000000000000000000000000000000000000000000001158e460913d00000"
                    },
                    {
                        "current": "0x0000000000000000000000000000000000000000000000000000000000000002",
                        "key": "0x3c99d7a9b51370d2349bd2916dea9bd15ce3ea0d5833c7940f64eeb82ecc700d",
                        "prev": "0x0000000000000000000000000000000000000000000000000000000000000001"
                    },
                    {
                        "current": "0x00000000000000000000000000000000000000000000000027416b487a5b4000",
                        "key": "0x612b8d9ca18ae22e3f512ca656aadad5f07e3325a6426a4452fdef0c1d4eca93",
                        "prev": "0x0000000000000000000000000000000000000000000000001cb55b4f4d0f4000"
                    },
                    {
                        "current": "0x000000000000000000000000000000000000000000000000000000000000000a",
                        "key": "0x1df34fabc2347beb01b7c9d4203c367734f236088d08c41c6b93d10cb5dcb707",
                        "prev": "0x0000000000000000000000000000000000000000000000000000000000000009"
                    },
                    {
                        "current": "0x00000000000000000000000000000000000000000000000002c68af0bb140000",
                        "key": "0xc4650afcd0b0bbdcf78eeccdb1263c3f4dc5914fe97b05038ab44a1cfa523be8",
                        "prev": "0x0000000000000000000000000000000000000000000000000000000000000000"
                    },
                    {
                        "current": "0x000000000000000000000000000000000000000000000001038bbd49468ca000",
                        "key": "0x42b0f13c4b15f09c963be49c314e1503904732e5d287726560aff5f26a524f3a",
                        "prev": "0x00000000000000000000000000000000000000000000000100c532588b78a000"
                    },
                    {
                        "current": "0x0000000000000000000000000000000000000000000000000000000000000002",
                        "key": "0x0a071b80e8939f9e19b0b25c705c59b0d93a8fba9ba58d7e426f654a26aa9b13",
                        "prev": "0x0000000000000000000000000000000000000000000000000000000000000001"
                    },
                    {
                        "current": "0x0000000000000000000000000000000000000000000000003782dace9d900000",
                        "key": "0xab56162c46958c35a1983285e7e39fbc509551860323fb721c64b0dccbf4965f",
                        "prev": "0x00000000000000000000000000000000000000000000000034bc4fdde27c0000"
                    },
                    {
                        "current": "0x000000000000000000000000000000000000000000000000000000000000000a",
                        "key": "0x910a173d936b2b1c17dbcf0701c01951bbdeea486d72504666bfe86513e29714",
                        "prev": "0x0000000000000000000000000000000000000000000000000000000000000009"
                    },
                    {
                        "current": "0x00000000000000000000000000000000000000000000000002c68af0bb140000",
                        "key": "0x120fc72398adcbfcc5302e7e1c749ccdbdf39e45c05b05e898b16a2fac198d8e",
                        "prev": "0x0000000000000000000000000000000000000000000000000000000000000000"
                    },
                    {
                        "current": "0x00000000000000000000000000000000000000000000000067ce4c5e87ec0000",
                        "key": "0x3f45db9e992623d8ab62faaaa5a9c764fdf85787aad275104cfb97604a31ca6b",
                        "prev": "0x0000000000000000000000000000000000000000000000005cfb2e807b1e0000"
                    },
                    {
                        "current": "0x00000000000000000000000000000000000000000000000002c68af0bb140000",
                        "key": "0x3c99d7a9b51370d2349bd2916dea9bd15ce3ea0d5833c7940f64eeb82ecc7005",
                        "prev": "0x0000000000000000000000000000000000000000000000000000000000000000"
                    },
                    {
                        "current": "0x0000000000000000000000000000000000000000000000002b566a0e00970000",
                        "key": "0xeb618b311623477098c94433c69bc637e8511ecd6e9abac3a5818c4511e273ec",
                        "prev": "0x000000000000000000000000000000000000000000000000269e7ddb28f50000"
                    },
                    {
                        "current": "0x0000000000000000000000000000000000000000000000000000000000000000",
                        "key": "0x3c99d7a9b51370d2349bd2916dea9bd15ce3ea0d5833c7940f64eeb82ecc7000",
                        "prev": "0x0000000000000000000000000000000000000000000000000000000000000003"
                    }
                ],
                "storageVariables": []
            }
        ]
    }
}