{
    "balance_change": {
        "balanceChanges": [
            {
                "account": "0x95a9bd206ae52c4ba8eecfc93d18eacdd41c88cc",
                "assets": [
                    {
                        "address": "0x3506424f91fd33084466f402d5d97f05f8e3b4af",
                        "amount": "1,087.16668401",
                        "iconUrl": "https://assets.blocksec.com/icon/206fcc9fb6f1bc7fad1ab78e1cd3e44539d71743a172be83828afbe05b6ada6c.png",
                        "isERC1155": false,
                        "isERC721": false,
                        "sign": false,
                        "value": "222.9966308"
                    }
                ]
            },
            {
                "account": "0xafa98a00103ad2a282f43d463d7c9bcb82abcdbe",
                "assets": [
                    {
                        "address": "0x3506424f91fd33084466f402d5d97f05f8e3b4af",
                        "amount": "1,087.16668401",
                        "iconUrl": "https://assets.blocksec.com/icon/206fcc9fb6f1bc7fad1ab78e1cd3e44539d71743a172be83828afbe05b6ada6c.png",
                        "isERC1155": false,
                        "isERC721": false,
                        "sign": true,
                        "value": "222.9966308"
                    }
                ]
            }
        ]
    },
    "profile": {
        "basic_info": {
            "baseFee": "40.608971822",
            "blockNumber": 14305653,
            "callData": "0xa9059cbb000000000000000000000000afa98a00103ad2a282f43d463d7c9bcb82abcdbe00000000000000000000000000000000000000000000003aef77f30d1765a400",
            "debugEnable": true,
            "errorInfo": "",
            "eventCount": 1,
            "feeRecipient": "0xea674fdde714fd979de3edf0f56aa9716b898ec8",
            "formatValue": "0",
            "gasLimit": 250000,
            "gasPrice": "42.608971822",
            "gasUsed": 54343,
            "intTxnCount": 0,
            "internalRevert": false,
            "internalRevertMessage": "",
            "isContractCreation": false,
            "isFlashloan": false,
            "maxFee": "81",
            "nonce": 875122,
            "overwritedBlockNumber": -1,
            "priorityFee": "2",
            "receiver": "0x3506424f91fd33084466f402d5d97f05f8e3b4af",
            "revertMessage": "",
            "sender": "0x95a9bd206ae52c4ba8eecfc93d18eacdd41c88cc",
            "simulationEnable": true,
            "sourceTxnHash": "0x98f3c35501a678b3166d8731a10d6606b4d9d28153ece814bdccfff4ff2f14d1",
            "status": true,
            "timestamp": "2022-03-02T05:13:34Z",
            "transactionFee": "0.002315499355722946",
            "txnHash": "0x98f3c35501a678b3166d8731a10d6606b4d9d28153ece814bdccfff4ff2f14d1",
            "txnIndex": 263,
            "type": 2,
            "value": "0"
        },
        "fund_flow": [
            {
                "amount": "1,087.16668401",
                "from": "0x95a9bd206ae52c4ba8eecfc93d18eacdd41c88cc",
                "id": 1,
                "isERC1155": false,
                "isERC721": false,
                "isReverted": false,
                "order": 1,
                "to": "0xafa98a00103ad2a282f43d463d7c9bcb82abcdbe",
                "token": "0x3506424f91fd33084466f402d5d97f05f8e3b4af"
            }
        ],
        "token_infos": [
            {
                "address": "0x3506424f91fd33084466f402d5d97f05f8e3b4af",
                "decimals": 18
            },
            {
                "address": "0xc02aaa39b223fe8d0a0e5c4f27ead9083c756cc2",
                "decimals": 18
            },
            {
                "address": "0xeeeeeeeeeeeeeeeeeeeeeeeeeeeeeeeeeeeeeeee",
                "decimals": 18
            }
        ]
    },
    "address_label": {
        "labels": [
            {
                "address": "0x95a9bd206ae52c4ba8eecfc93d18eacdd41c88cc",
                "label": "Coinbase 13"
            },
            {
                "address": "0x3506424f91fd33084466f402d5d97f05f8e3b4af",
                "label": "Chiliz: CHZ Token"
            },
            {
                "address": "0x0000000000000000000000000000000000000001",
                "label": "Precompiled"
            },
            {
                "address": "0x0000000000000000000000000000000000000002",
                "label": "Precompiled"
            },
            {
                "address": "0x0000000000000000000000000000000000000003",
                "label": "Precompiled"
            },
            {
                "address": "0x0000000000000000000000000000000000000004",
                "label": "Precompiled"
            },
            {
                "address": "0xeeeeeeeeeeeeeeeeeeeeeeeeeeeeeeeeeeeeeeee",
                "label": "Ether"
            },
            {
                "address": "0xafa98a00103ad2a282f43d463d7c9bcb82abcdbe",
                "label": "BINANCE"
            }
        ]
    },
    "trace": {
        "accountLabels": null,
        "dataMap": {
            "-1": {
                "invocation": {
                    "address": "0x95a9bd206ae52c4ba8eecfc93d18eacdd41c88cc",
                    "callData": "",
                    "decodedMethod": null,
                    "errorInfo": "",
                    "fromAddress": "",
                    "gasUsed": 0,
                    "id": -1,
                    "methodDecoded": false,
                    "operation": "",
                    "output": "",
                    "revert": false,
                    "revertMessage": "",
                    "selector": "",
                    "status": false,
                    "value": ""
                },
                "nodeType": 0
            },
            "0": {
                "invocation": {
                    "address": "0x3506424f91fd33084466f402d5d97f05f8e3b4af",
                    "callData": "0x000000000000000000000000afa98a00103ad2a282f43d463d7c9bcb82abcdbe00000000000000000000000000000000000000000000003aef77f30d1765a400",
                    "decodedMethod": {
                        "callParams": [
                            {
                                "name": "to",
                                "type": "address",
                                "value": "0xafa98a00103ad2a282f43d463d7c9bcb82abcdbe"
                            },
                            {
                                "decimalAvailable": true,
                                "name": "value",
                                "type": "uint256",
                                "value": "1,087,166,684,010,000,000,000"
                            }
                        ],
                        "constructorArguments": "",
                        "name": "transfer",
                        "returnParams": [
                            {
                                "name": "",
                                "type": "bool",
                                "value": true
                            }
                        ],
                        "signature": "transfer(address,uint256)"
                    },
                    "errorInfo": "",
                    "fromAddress": "0x95a9bd206ae52c4ba8eecfc93d18eacdd41c88cc",
                    "gasUsed": 54343,
                    "id": 0,
                    "methodDecoded": true,
                    "operation": "CALL",
                    "output": "0x0000000000000000000000000000000000000000000000000000000000000001",
                    "revert": false,
                    "revertMessage": "",
                    "selector": "0xa9059cbb",
                    "status": true,
                    "value": "0"
                },
                "nodeType": 0
            },
            "1": {
                "event": {
                    "contract": "0x3506424f91fd33084466f402d5d97f05f8e3b4af",
                    "decodedLog": {
                        "name": "Transfer",
                        "params": [
                            {
                                "name": "from",
                                "type": "address",
                                "value": "0x95a9bd206ae52c4ba8eecfc93d18eacdd41c88cc"
                            },
                            {
                                "name": "to",
                                "type": "address",
                                "value": "0xafa98a00103ad2a282f43d463d7c9bcb82abcdbe"
                            },
                            {
                                "decimalAvailable": true,
                                "name": "value",
                                "type": "uint256",
                                "value": "1,087,166,684,010,000,000,000"
                            }
                        ],
                        "signature": "Transfer(address,address,uint256)"
                    },
                    "id": 1,
                    "logData": "0x00000000000000000000000000000000000000000000003aef77f30d1765a400",
                    "logDecoded": true,
                    "operation": "EVENT",
                    "revert": false,
                    "status": true,
                    "topics": [
                        "0xddf252ad1be2c89b69c2b068fc378daa952ba7f163c4a11628f55a4df523b3ef",
                        "0x00000000000000000000000095a9bd206ae52c4ba8eecfc93d18eacdd41c88cc",
                        "0x000000000000000000000000afa98a00103ad2a282f43d463d7c9bcb82abcdbe"
                    ]
                },
                "nodeType": 1
            }
        },
        "gasFlame": [
            {
                "children": [
                    {
                        "children": [
                            {
                                "children": [],
                                "depth": 0,
                                "name": "Initial Gas",
                                "value": 21644
                            },
                            {
                                "children": [],
                                "depth": 0,
                                "name": "Executed Gas",
                                "value": 32699
                            }
                        ],
                        "depth": -1,
                        "name": "Actual Gas Used",
                        "value": 54343
                    },
                    {
                        "children": [],
                        "depth": -1,
                        "name": "Refunded Gas",
                        "value": 0
                    }
                ],
                "depth": -2,
                "name": "Total Gas",
                "value": 54343
            }
        ],
        "isConfirmed": true,
        "mainTrace": [
            {
                "children": [
                    {
                        "children": [
                            {
                                "children": [],
                                "depth": 1,
                                "id": 1,
                                "order": 1
                            }
                        ],
                        "depth": 0,
                        "id": 0,
                        "order": 0
                    }
                ],
                "depth": -1,
                "id": -1,
                "order": -1
            }
        ],
        "mainTraceNodeCount": 2,
        "parentIdMap": {
            "0": -1,
            "1": 0
        },
        "tidyTrace": [
            {
                "children": [
                    {
                        "children": [
                            {
                                "children": [],
                                "depth": 1,
                                "id": 1,
                                "order": 1
                            }
                        ],
                        "depth": 0,
                        "id": 0,
                        "order": 0
                    }
                ],
                "depth": -1,
                "id": -1,
                "order": -1
            }
        ],
        "tidyTraceNodeCount": 2
    },
    "state_change": {
        "stateChanges": [
            {
                "address": "0x3506424f91fd33084466f402d5d97f05f8e3b4af",
                "erc": "ERC-20",
                "slots": [
                    {
                        "current": "0x000000000000000000000000000000000000000000054bd5e839bd29a06a6b2c",
                        "key": "0x5d7884dd8ffa2d3dcdbcd8b260f24860b9e90621a85d23ecbf1177303595e841",
                        "prev": "0x000000000000000000000000000000000000000000054c10d7b1b036b7d00f2c"
                    },
                    {
                        "current": "0x00000000000000000000000000000000000000000000003aef77f30d1765a400",
                        "key": "0x08b2bd069e3921f42044a0544a5b43e12703dd97c402bf5ac85d9bbcf71d731b",
                        "prev": "0x0000000000000000000000000000000000000000000000000000000000000000"
                    }
                ],
                "storageVariables": [
                    {
                        "name": "_balances",
                        "type": "mapping(address => uint256)",
                        "value": {
                            "pairs": [
                                {
                                    "key": "0x95a9bd206ae52c4ba8eecfc93d18eacdd41c88cc",
                                    "value": {
                                        "current": "6402752474389946353478444",
                                        "prev": "6403839641073956353478444",
                                        "typeTag": 1
                                    }
                                },
                                {
                                    "key": "0xafa98a00103ad2a282f43d463d7c9bcb82abcdbe",
                                    "value": {
                                        "current": "1087166684010000000000",
                                        "prev": "0",
                                        "typeTag": 1
                                    }
                                }
                            ],
                            "typeTag": 4
                        }
                    }
                ]
            }
        ]
    }
}