{
    "balance_change": {
        "balanceChanges": [
            {
                "account": "0x95a867568b1b70ba61a94e367e65cf80290092ce",
                "assets": [
                    {
                        "address": "0xa10740ff9ff6852eac84cdcff9184e1d6d27c057",
                        "amount": "1",
                        "iconUrl": "",
                        "isERC1155": false,
                        "isERC721": false,
                        "sign": false,
                        "value": "88.97570998"
                    }
                ]
            },
            {
                "account": "0x0000000000000000000000000000000000000000",
                "assets": [
                    {
                        "address": "0xa10740ff9ff6852eac84cdcff9184e1d6d27c057",
                        "amount": "1",
                        "iconUrl": "",
                        "isERC1155": false,
                        "isERC721": false,
                        "sign": true,
                        "value": "88.97570998"
                    }
                ]
            }
        ]
    },
    "profile": {
        "basic_info": {
            "baseFee": "2.080144593",
            "blockNumber": 20669666,
            "callData": "0x17a09fb700000000000000000000000000000000000000000000000000000000000000400000000000000000000000000000000000000000000000000000000000000080000000000000000000000000000000000000000000000000000000000000000100000000000000000000000000000000000000000000000000000000000cb60b000000000000000000000000000000000000000000000000000000000000000100000000000000000000000095a867568b1b70ba61a94e367e65cf80290092ce",
            "debugEnable": true,
            "errorInfo": "",
            "eventCount": 3,
            "feeRecipient": "0x95222290dd7278aa3ddd389cc1e1d165cc4bafe5",
            "formatValue": "0",
            "gasLimit": 128283,
            "gasPrice": "2.714108857",
            "gasUsed": 80219,
            "intTxnCount": 2,
            "internalRevert": false,
            "internalRevertMessage": "",
            "isContractCreation": false,
            "isFlashloan": false,
            "maxFee": "3.224889068",
            "nonce": 58,
            "overwritedBlockNumber": -1,
            "priorityFee": "0.633964264",
            "receiver": "0xa10740ff9ff6852eac84cdcff9184e1d6d27c057",
            "revertMessage": "",
            "sender": "0x95a867568b1b70ba61a94e367e65cf80290092ce",
            "simulationEnable": true,
            "sourceTxnHash": "0x9838e98e9055c74316baf58467b0f573af8488d29ebbc4c5e62e2dc4755d1e13",
            "status": true,
            "timestamp": "2024-09-03T11:11:11Z",
            "transactionFee": "0.000217723098399683",
            "txnHash": "0x9838e98e9055c74316baf58467b0f573af8488d29ebbc4c5e62e2dc4755d1e13",
            "txnIndex": 29,
            "type": 2,
            "value": "0"
        },
        "fund_flow": [
            {
                "amount": "1",
                "from": "0x95a867568b1b70ba61a94e367e65cf80290092ce",
                "id": 1,
                "isERC1155": false,
                "isERC721": false,
                "isReverted": false,
                "order": 1,
                "to": "0x0000000000000000000000000000000000000000",
                "token": "0xa10740ff9ff6852eac84cdcff9184e1d6d27c057"
            }
        ],
        "token_infos": [
            {
                "address": "0xeeeeeeeeeeeeeeeeeeeeeeeeeeeeeeeeeeeeeeee",
                "decimals": 18
            },
            {
                "address": "0xa10740ff9ff6852eac84cdcff9184e1d6d27c057",
                "decimals": 18
            },
            {
                "address": "0xc02aaa39b223fe8d0a0e5c4f27ead9083c756cc2",
                "decimals": 18
            }
        ]
    },
    "address_label": {
        "labels": [
            {
                "address": "0x0000000000000000000000000000000000000004",
                "label": "Precompiled"
            },
            {
                "address": "0xeeeeeeeeeeeeeeeeeeeeeeeeeeeeeeeeeeeeeeee",
                "label": "Ether"
            },
            {
                "address": "0x06012c8cf97bead5deae237070f9587f8e7a266d",
                "label": "CryptoKitties: Core"
            },
            {
                "address": "0xa10740ff9ff6852eac84cdcff9184e1d6d27c057",
                "label": "Wrappered: WG0 Token"
            },
            {
                "address": "0x0000000000000000000000000000000000000001",
                "label": "Precompiled"
            },
            {
                "address": "0x0000000000000000000000000000000000000002",
                "label": "Precompiled"
            },
            {
                "address": "0x0000000000000000000000000000000000000003",
                "label": "Precompiled"
            }
        ]
    },
    "trace": {
        "accountLabels": null,
        "dataMap": {
            "-1": {
                "invocation": {
                    "address": "0x95a867568b1b70ba61a94e367e65cf80290092ce",
                    "callData": "",
                    "decodedMethod": null,
                    "errorInfo": "",
                    "fromAddress": "",
                    "gasUsed": 0,
                    "id": -1,
                    "methodDecoded": false,
                    "operation": "",
                    "output": "",
                    "revert": false,
                    "revertMessage": "",
                    "selector": "",
                    "status": false,
                    "value": ""
                },
                "nodeType": 0
            },
            "0": {
                "invocation": {
                    "address": "0xa10740ff9ff6852eac84cdcff9184e1d6d27c057",
                    "callData": "0x00000000000000000000000000000000000000000000000000000000000000400000000000000000000000000000000000000000000000000000000000000080000000000000000000000000000000000000000000000000000000000000000100000000000000000000000000000000000000000000000000000000000cb60b000000000000000000000000000000000000000000000000000000000000000100000000000000000000000095a867568b1b70ba61a94e367e65cf80290092ce",
                    "decodedMethod": {
                        "callParams": [
                            {
                                "name": "_kittyIds",
                                "type": "uint256[]",
                                "value": [
                                    "833,035"
                                ]
                            },
                            {
                                "name": "_destinationAddresses",
                                "type": "address[]",
                                "value": [
                                    "0x95a867568b1b70ba61a94e367e65cf80290092ce"
                                ]
                            }
                        ],
                        "constructorArguments": "",
                        "name": "burnTokensAndWithdrawKitties",
                        "returnParams": [],
                        "signature": "burnTokensAndWithdrawKitties(uint256[],address[])"
                    },
                    "errorInfo": "",
                    "fromAddress": "0x95a867568b1b70ba61a94e367e65cf80290092ce",
                    "gasUsed": 80219,
                    "id": 0,
                    "methodDecoded": true,
                    "operation": "CALL",
                    "output": "",
                    "revert": false,
                    "revertMessage": "",
                    "selector": "0x17a09fb7",
                    "status": true,
                    "value": "0"
                },
                "nodeType": 0
            },
            "1": {
                "event": {
                    "contract": "0xa10740ff9ff6852eac84cdcff9184e1d6d27c057",
                    "decodedLog": {
                        "name": "Transfer",
                        "params": [
                            {
                                "name": "from",
                                "type": "address",
                                "value": "0x95a867568b1b70ba61a94e367e65cf80290092ce"
                            },
                            {
                                "name": "to",
                                "type": "address",
                                "value": "0x0000000000000000000000000000000000000000"
                            },
                            {
                                "decimalAvailable": true,
                                "name": "value",
                                "type": "uint256",
                                "value": "1,000,000,000,000,000,000"
                            }
                        ],
                        "signature": "Transfer(address,address,uint256)"
                    },
                    "id": 1,
                    "logData": "0x0000000000000000000000000000000000000000000000000de0b6b3a7640000",
                    "logDecoded": true,
                    "operation": "EVENT",
                    "revert": false,
                    "status": true,
                    "topics": [
                        "0xddf252ad1be2c89b69c2b068fc378daa952ba7f163c4a11628f55a4df523b3ef",
                        "0x00000000000000000000000095a867568b1b70ba61a94e367e65cf80290092ce",
                        "0x0000000000000000000000000000000000000000000000000000000000000000"
                    ]
                },
                "nodeType": 1
            },
            "2": {
                "invocation": {
                    "address": "0x06012c8cf97bead5deae237070f9587f8e7a266d",
                    "callData": "0x00000000000000000000000000000000000000000000000000000000000cb60b",
                    "decodedMethod": {
                        "callParams": [
                            {
                                "name": "_tokenId",
                                "type": "uint256",
                                "value": "833,035"
                            }
                        ],
                        "constructorArguments": "",
                        "name": "ownerOf",
                        "returnParams": [
                            {
                                "name": "owner",
                                "type": "address",
                                "value": "0xa10740ff9ff6852eac84cdcff9184e1d6d27c057"
                            }
                        ],
                        "signature": "ownerOf(uint256)"
                    },
                    "errorInfo": "",
                    "fromAddress": "0xa10740ff9ff6852eac84cdcff9184e1d6d27c057",
                    "gasUsed": 3271,
                    "id": 2,
                    "methodDecoded": true,
                    "operation": "STATICCALL",
                    "output": "0x000000000000000000000000a10740ff9ff6852eac84cdcff9184e1d6d27c057",
                    "revert": false,
                    "revertMessage": "",
                    "selector": "0x6352211e",
                    "status": true,
                    "value": "0"
                },
                "nodeType": 0
            },
            "3": {
                "invocation": {
                    "address": "0x06012c8cf97bead5deae237070f9587f8e7a266d",
                    "callData": "0x00000000000000000000000095a867568b1b70ba61a94e367e65cf80290092ce00000000000000000000000000000000000000000000000000000000000cb60b",
                    "decodedMethod": {
                        "callParams": [
                            {
                                "name": "_to",
                                "type": "address",
                                "value": "0x95a867568b1b70ba61a94e367e65cf80290092ce"
                            },
                            {
                                "decimalAvailable": true,
                                "name": "_tokenId",
                                "type": "uint256",
                                "value": "833,035"
                            }
                        ],
                        "constructorArguments": "",
                        "name": "transfer",
                        "returnParams": [],
                        "signature": "transfer(address,uint256)"
                    },
                    "errorInfo": "",
                    "fromAddress": "0xa10740ff9ff6852eac84cdcff9184e1d6d27c057",
                    "gasUsed": 28379,
                    "id": 3,
                    "methodDecoded": true,
                    "operation": "CALL",
                    "output": "",
                    "revert": false,
                    "revertMessage": "",
                    "selector": "0xa9059cbb",
                    "status": true,
                    "value": "0"
                },
                "nodeType": 0
            },
            "4": {
                "event": {
                    "contract": "0x06012c8cf97bead5deae237070f9587f8e7a266d",
                    "decodedLog": {
                        "name": "Transfer",
                        "params": [
                            {
                                "name": "from",
                                "type": "address",
                                "value": "0xa10740ff9ff6852eac84cdcff9184e1d6d27c057"
                            },
                            {
                                "name": "to",
                                "type": "address",
                                "value": "0x95a867568b1b70ba61a94e367e65cf80290092ce"
                            },
                            {
                                "decimalAvailable": true,
                                "name": "tokenId",
                                "type": "uint256",
                                "value": "833,035"
                            }
                        ],
                        "signature": "Transfer(address,address,uint256)"
                    },
                    "id": 4,
                    "logData": "0x000000000000000000000000a10740ff9ff6852eac84cdcff9184e1d6d27c05700000000000000000000000095a867568b1b70ba61a94e367e65cf80290092ce00000000000000000000000000000000000000000000000000000000000cb60b",
                    "logDecoded": true,
                    "operation": "EVENT",
                    "revert": false,
                    "status": true,
                    "topics": [
                        "0xddf252ad1be2c89b69c2b068fc378daa952ba7f163c4a11628f55a4df523b3ef"
                    ]
                },
                "nodeType": 1
            },
            "5": {
                "event": {
                    "contract": "0xa10740ff9ff6852eac84cdcff9184e1d6d27c057",
                    "decodedLog": {
                        "name": "BurnTokenAndWithdrawKitty",
                        "params": [
                            {
                                "name": "kittyId",
                                "type": "uint256",
                                "value": "833,035"
                            }
                        ],
                        "signature": "BurnTokenAndWithdrawKitty(uint256)"
                    },
                    "id": 5,
                    "logData": "0x00000000000000000000000000000000000000000000000000000000000cb60b",
                    "logDecoded": true,
                    "operation": "EVENT",
                    "revert": false,
                    "status": true,
                    "topics": [
                        "0x2f467b677a4a63395bce26e8731fa49a02cd892ddeaf266650b403f140ba4590"
                    ]
                },
                "nodeType": 1
            }
        },
        "gasFlame": [
            {
                "children": [
                    {
                        "children": [
                            {
                                "children": [],
                                "depth": 0,
                                "name": "Initial Gas",
                                "value": 22144
                            },
                            {
                                "children": [
                                    {
                                        "children": [],
                                        "depth": 1,
                                        "name": "ownerOf",
                                        "value": 3271
                                    },
                                    {
                                        "children": [],
                                        "depth": 1,
                                        "name": "transfer",
                                        "value": 28379
                                    }
                                ],
                                "depth": 0,
                                "name": "Executed Gas",
                                "value": 62875
                            }
                        ],
                        "depth": -1,
                        "name": "Actual Gas Used",
                        "value": 80219
                    },
                    {
                        "children": [],
                        "depth": -1,
                        "name": "Refunded Gas",
                        "value": 4800
                    }
                ],
                "depth": -2,
                "name": "Total Gas",
                "value": 85019
            }
        ],
        "isConfirmed": true,
        "mainTrace": [
            {
                "children": [
                    {
                        "children": [
                            {
                                "children": [],
                                "depth": 1,
                                "id": 1,
                                "order": 1
                            },
                            {
                                "children": [],
                                "depth": 1,
                                "id": 2,
                                "order": 2
                            },
                            {
                                "children": [
                                    {
                                        "children": [],
                                        "depth": 2,
                                        "id": 4,
                                        "order": 4
                                    }
                                ],
                                "depth": 1,
                                "id": 3,
                                "order": 3
                            },
                            {
                                "children": [],
                                "depth": 1,
                                "id": 5,
                                "order": 5
                            }
                        ],
                        "depth": 0,
                        "id": 0,
                        "order": 0
                    }
                ],
                "depth": -1,
                "id": -1,
                "order": -1
            }
        ],
        "mainTraceNodeCount": 6,
        "parentIdMap": {
            "0": -1,
            "1": 0,
            "2": 0,
            "3": 0,
            "4": 3,
            "5": 0
        },
        "tidyTrace": [
            {
                "children": [
                    {
                        "children": [
                            {
                                "children": [],
                                "depth": 1,
                                "id": 1,
                                "order": 1
                            },
                            {
                                "children": [
                                    {
                                        "children": [],
                                        "depth": 2,
                                        "id": 4,
                                        "order": 4
                                    }
                                ],
                                "depth": 1,
                                "id": 3,
                                "order": 3
                            },
                            {
                                "children": [],
                                "depth": 1,
                                "id": 5,
                                "order": 5
                            }
                        ],
                        "depth": 0,
                        "id": 0,
                        "order": 0
                    }
                ],
                "depth": -1,
                "id": -1,
                "order": -1
            }
        ],
        "tidyTraceNodeCount": 5
    },
    "state_change": {
        "stateChanges": [
            {
                "address": "0x06012c8cf97bead5deae237070f9587f8e7a266d",
                "erc": "",
                "slots": [
                    {
                        "current": "0x000000000000000000000000000000000000000000000000000000000000000e",
                        "key": "0x5ff3a393459142213d7493fff3b17a13d018664f1c5cc89dd273c85c35f58f26",
                        "prev": "0x000000000000000000000000000000000000000000000000000000000000000d"
                    },
                    {
                        "current": "0x00000000000000000000000095a867568b1b70ba61a94e367e65cf80290092ce",
                        "key": "0xb2c1d993a888ff1c29e25fb3ae22f401f9b02a37cc921e303e78a2d57b2844b5",
                        "prev": "0x000000000000000000000000a10740ff9ff6852eac84cdcff9184e1d6d27c057"
                    },
                    {
                        "current": "0x00000000000000000000000000000000000000000000000000000000000008c9",
                        "key": "0xb05f536927b10a41bccdfbe9e738f0be16ecfeae7745ce7bd54aa68c08250f4a",
                        "prev": "0x00000000000000000000000000000000000000000000000000000000000008ca"
                    }
                ],
                "storageVariables": [
                    {
                        "name": "ownershipTokenCount",
                        "type": "mapping(address => uint256)",
                        "value": {
                            "pairs": [
                                {
                                    "key": "0x95a867568b1b70ba61a94e367e65cf80290092ce",
                                    "value": {
                                        "current": "14",
                                        "prev": "13",
                                        "typeTag": 1
                                    }
                                },
                                {
                                    "key": "0xa10740ff9ff6852eac84cdcff9184e1d6d27c057",
                                    "value": {
                                        "current": "2249",
                                        "prev": "2250",
                                        "typeTag": 1
                                    }
                                }
                            ],
                            "typeTag": 4
                        }
                    },
                    {
                        "name": "kittyIndexToOwner",
                        "type": "mapping(uint256 => address)",
                        "value": {
                            "pairs": [
                                {
                                    "key": "833035",
                                    "value": {
                                        "current": "0x95a867568b1b70ba61a94e367e65cf80290092ce",
                                        "prev": "0xa10740ff9ff6852eac84cdcff9184e1d6d27c057",
                                        "typeTag": 1
                                    }
                                }
                            ],
                            "typeTag": 4
                        }
                    }
                ]
            },
            {
                "address": "0xa10740ff9ff6852eac84cdcff9184e1d6d27c057",
                "erc": "ERC-20",
                "slots": [
                    {
                        "current": "0x0000000000000000000000000000000000000000000000000000000000000f03",
                        "key": "0x0000000000000000000000000000000000000000000000000000000000000003",
                        "prev": "0x0000000000000000000000000000000000000000000000000000000000000f02"
                    },
                    {
                        "current": "0x000000000000000000000000000000000000000000000079eb2510498d840000",
                        "key": "0x0000000000000000000000000000000000000000000000000000000000000002",
                        "prev": "0x000000000000000000000000000000000000000000000079f905c6fd34e80000"
                    },
                    {
                        "current": "0x0000000000000000000000000000000000000000000000000000000000000000",
                        "key": "0x5117b8ec6dad8f452a7fde48f0164f0ecdac3c85c5340d5b5d61b87999177f1d",
                        "prev": "0x0000000000000000000000000000000000000000000000000000000000000001"
                    },
                    {
                        "current": "0x0000000000000000000000000000000000000000000000000188c24ef73ba2ea",
                        "key": "0xc7cdbe7cceb7ce7e7db29a36bf72ede30c17e083d03fb264d0b7b15dac8e12ec",
                        "prev": "0x0000000000000000000000000000000000000000000000000f6979029e9fa2ea"
                    }
                ],
                "storageVariables": [
                    {
                        "name": "_balances",
                        "type": "mapping(address => uint256)",
                        "value": {
                            "pairs": [
                                {
                                    "key": "0x95a867568b1b70ba61a94e367e65cf80290092ce",
                                    "value": {
                                        "current": "110551835281695466",
                                        "prev": "1110551835281695466",
                                        "typeTag": 1
                                    }
                                }
                            ],
                            "typeTag": 4
                        }
                    },
                    {
                        "name": "_guardCounter",
                        "type": "uint256",
                        "value": {
                            "current": "3843",
                            "prev": "3842",
                            "typeTag": 1
                        }
                    },
                    {
                        "name": "_totalSupply",
                        "type": "uint256",
                        "value": {
                            "current": "2249000000000000000000",
                            "prev": "2250000000000000000000",
                            "typeTag": 1
                        }
                    },
                    {
                        "name": "kittyIsDepositedInContract",
                        "type": "mapping(uint256 => bool)",
                        "value": {
                            "pairs": [
                                {
                                    "key": "833035",
                                    "value": {
                                        "current": "false",
                                        "prev": "true",
                                        "typeTag": 1
                                    }
                                }
                            ],
                            "typeTag": 4
                        }
                    }
                ]
            }
        ]
    }
}