{
    "balance_change": {
        "balanceChanges": [
            {
                "account": "0x1e4175f1d3936217d8397511e852777d3d42a454",
                "assets": [
                    {
                        "address": "0x5f0bfe2ac3c0a34eca548d377315c2d3fe60c84f",
                        "amount": "10,000",
                        "iconUrl": "",
                        "isERC1155": false,
                        "isERC721": false,
                        "sign": false,
                        "value": ""
                    }
                ]
            },
            {
                "account": "0xc7f6a6f05bee8d87fd41460142e0341bf1d85751",
                "assets": [
                    {
                        "address": "0x5f0bfe2ac3c0a34eca548d377315c2d3fe60c84f",
                        "amount": "10,000",
                        "iconUrl": "",
                        "isERC1155": false,
                        "isERC721": false,
                        "sign": true,
                        "value": ""
                    }
                ]
            }
        ]
    },
    "profile": {
        "basic_info": {
            "baseFee": "",
            "blockNumber": 6162273,
            "callData": "0xa9059cbb000000000000000000000000c7f6a6f05bee8d87fd41460142e0341bf1d857510000000000000000000000000000000000000000000000000000000005f5e100",
            "debugEnable": true,
            "errorInfo": "",
            "eventCount": 1,
            "feeRecipient": "0xb2930b35844a230f00e51431acae96fe543a0347",
            "formatValue": "0",
            "gasLimit": 60000,
            "gasPrice": "67.467022336",
            "gasUsed": 51730,
            "intTxnCount": 0,
            "internalRevert": false,
            "internalRevertMessage": "",
            "isContractCreation": false,
            "isFlashloan": false,
            "maxFee": "",
            "nonce": 85,
            "overwritedBlockNumber": -1,
            "priorityFee": "",
            "receiver": "0x5f0bfe2ac3c0a34eca548d377315c2d3fe60c84f",
            "revertMessage": "",
            "sender": "0x1e4175f1d3936217d8397511e852777d3d42a454",
            "simulationEnable": true,
            "sourceTxnHash": "0x9916672112b39d29b2ab475d0f43c32dedd9c91d6b75530988e520d968a4860e",
            "status": true,
            "timestamp": "2018-08-17T06:42:53Z",
            "transactionFee": "0.00349006906544128",
            "txnHash": "0x9916672112b39d29b2ab475d0f43c32dedd9c91d6b75530988e520d968a4860e",
            "txnIndex": 47,
            "type": 0,
            "value": "0"
        },
        "fund_flow": [
            {
                "amount": "10,000",
                "from": "0x1e4175f1d3936217d8397511e852777d3d42a454",
                "id": 1,
                "isERC1155": false,
                "isERC721": false,
                "isReverted": false,
                "order": 1,
                "to": "0xc7f6a6f05bee8d87fd41460142e0341bf1d85751",
                "token": "0x5f0bfe2ac3c0a34eca548d377315c2d3fe60c84f"
            }
        ],
        "token_infos": [
            {
                "address": "0x5f0bfe2ac3c0a34eca548d377315c2d3fe60c84f",
                "decimals": 4
            },
            {
                "address": "0xc02aaa39b223fe8d0a0e5c4f27ead9083c756cc2",
                "decimals": 18
            },
            {
                "address": "0xeeeeeeeeeeeeeeeeeeeeeeeeeeeeeeeeeeeeeeee",
                "decimals": 18
            }
        ]
    },
    "address_label": {
        "labels": [
            {
                "address": "0xeeeeeeeeeeeeeeeeeeeeeeeeeeeeeeeeeeeeeeee",
                "label": "Ether"
            },
            {
                "address": "0x5f0bfe2ac3c0a34eca548d377315c2d3fe60c84f",
                "label": "Defraycoin (DAR)"
            },
            {
                "address": "0x0000000000000000000000000000000000000001",
                "label": "Precompiled"
            },
            {
                "address": "0x0000000000000000000000000000000000000002",
                "label": "Precompiled"
            },
            {
                "address": "0x0000000000000000000000000000000000000003",
                "label": "Precompiled"
            },
            {
                "address": "0x0000000000000000000000000000000000000004",
                "label": "Precompiled"
            }
        ]
    },
    "trace": {
        "accountLabels": null,
        "dataMap": {
            "-1": {
                "invocation": {
                    "address": "0x1e4175f1d3936217d8397511e852777d3d42a454",
                    "callData": "",
                    "decodedMethod": null,
                    "errorInfo": "",
                    "fromAddress": "",
                    "gasUsed": 0,
                    "id": -1,
                    "methodDecoded": false,
                    "operation": "",
                    "output": "",
                    "revert": false,
                    "revertMessage": "",
                    "selector": "",
                    "status": false,
                    "value": ""
                },
                "nodeType": 0
            },
            "0": {
                "invocation": {
                    "address": "0x5f0bfe2ac3c0a34eca548d377315c2d3fe60c84f",
                    "callData": "0x000000000000000000000000c7f6a6f05bee8d87fd41460142e0341bf1d857510000000000000000000000000000000000000000000000000000000005f5e100",
                    "decodedMethod": {
                        "callParams": [
                            {
                                "name": "_to",
                                "type": "address",
                                "value": "0xc7f6a6f05bee8d87fd41460142e0341bf1d85751"
                            },
                            {
                                "decimalAvailable": true,
                                "name": "_value",
                                "type": "uint256",
                                "value": "100,000,000"
                            }
                        ],
                        "constructorArguments": "",
                        "name": "transfer",
                        "returnParams": [
                            {
                                "name": "",
                                "type": "bool",
                                "value": true
                            }
                        ],
                        "signature": "transfer(address,uint256)"
                    },
                    "errorInfo": "",
                    "fromAddress": "0x1e4175f1d3936217d8397511e852777d3d42a454",
                    "gasUsed": 51730,
                    "id": 0,
                    "methodDecoded": true,
                    "operation": "CALL",
                    "output": "0x0000000000000000000000000000000000000000000000000000000000000001",
                    "revert": false,
                    "revertMessage": "",
                    "selector": "0xa9059cbb",
                    "status": true,
                    "value": "0"
                },
                "nodeType": 0
            },
            "1": {
                "event": {
                    "contract": "0x5f0bfe2ac3c0a34eca548d377315c2d3fe60c84f",
                    "decodedLog": {
                        "name": "Transfer",
                        "params": [
                            {
                                "name": "from",
                                "type": "address",
                                "value": "0x1e4175f1d3936217d8397511e852777d3d42a454"
                            },
                            {
                                "name": "to",
                                "type": "address",
                                "value": "0xc7f6a6f05bee8d87fd41460142e0341bf1d85751"
                            },
                            {
                                "decimalAvailable": true,
                                "name": "value",
                                "type": "uint256",
                                "value": "100,000,000"
                            }
                        ],
                        "signature": "Transfer(address,address,uint256)"
                    },
                    "id": 1,
                    "logData": "0x0000000000000000000000000000000000000000000000000000000005f5e100",
                    "logDecoded": true,
                    "operation": "EVENT",
                    "revert": false,
                    "status": true,
                    "topics": [
                        "0xddf252ad1be2c89b69c2b068fc378daa952ba7f163c4a11628f55a4df523b3ef",
                        "0x0000000000000000000000001e4175f1d3936217d8397511e852777d3d42a454",
                        "0x000000000000000000000000c7f6a6f05bee8d87fd41460142e0341bf1d85751"
                    ]
                },
                "nodeType": 1
            }
        },
        "gasFlame": [
            {
                "children": [
                    {
                        "children": [
                            {
                                "children": [],
                                "depth": 0,
                                "name": "Initial Gas",
                                "value": 23000
                            },
                            {
                                "children": [],
                                "depth": 0,
                                "name": "Executed Gas",
                                "value": 28730
                            }
                        ],
                        "depth": -1,
                        "name": "Actual Gas Used",
                        "value": 51730
                    },
                    {
                        "children": [],
                        "depth": -1,
                        "name": "Refunded Gas",
                        "value": 0
                    }
                ],
                "depth": -2,
                "name": "Total Gas",
                "value": 51730
            }
        ],
        "isConfirmed": true,
        "mainTrace": [
            {
                "children": [
                    {
                        "children": [
                            {
                                "children": [],
                                "depth": 1,
                                "id": 1,
                                "order": 1
                            }
                        ],
                        "depth": 0,
                        "id": 0,
                        "order": 0
                    }
                ],
                "depth": -1,
                "id": -1,
                "order": -1
            }
        ],
        "mainTraceNodeCount": 2,
        "parentIdMap": {
            "0": -1,
            "1": 0
        },
        "tidyTrace": [
            {
                "children": [
                    {
                        "children": [
                            {
                                "children": [],
                                "depth": 1,
                                "id": 1,
                                "order": 1
                            }
                        ],
                        "depth": 0,
                        "id": 0,
                        "order": 0
                    }
                ],
                "depth": -1,
                "id": -1,
                "order": -1
            }
        ],
        "tidyTraceNodeCount": 2
    },
    "state_change": {
        "stateChanges": [
            {
                "address": "0x5f0bfe2ac3c0a34eca548d377315c2d3fe60c84f",
                "erc": "ERC-20",
                "slots": [
                    {
                        "current": "0x000000000000000000000000000000000000000000000000000000002160ec00",
                        "key": "0x5534a981a72c4be63ed84684092fdbd08eb5111755d099e990adb2da2ff5c446",
                        "prev": "0x000000000000000000000000000000000000000000000000000000002756cd00"
                    },
                    {
                        "current": "0x0000000000000000000000000000000000000000000000000000000005f5e100",
                        "key": "0x0cab6a07489b977b2e106783c630832354aef0127fa288faf115f1e178b0cea5",
                        "prev": "0x0000000000000000000000000000000000000000000000000000000000000000"
                    }
                ],
                "storageVariables": [
                    {
                        "name": "balances",
                        "type": "mapping(address => uint256)",
                        "value": {
                            "pairs": [
                                {
                                    "key": "0x1e4175f1d3936217d8397511e852777d3d42a454",
                                    "value": {
                                        "current": "560000000",
                                        "prev": "660000000",
                                        "typeTag": 1
                                    }
                                },
                                {
                                    "key": "0xc7f6a6f05bee8d87fd41460142e0341bf1d85751",
                                    "value": {
                                        "current": "100000000",
                                        "prev": "0",
                                        "typeTag": 1
                                    }
                                }
                            ],
                            "typeTag": 4
                        }
                    }
                ]
            }
        ]
    }
}