{
    "balance_change": {
        "balanceChanges": [
            {
                "account": "0xf621f2bfa44902dcca863cec17eb1c6713cdb14f",
                "assets": [
                    {
                        "address": "0xb17df9a3b09583a9bdcf757d6367171476d4d8a3",
                        "amount": "5",
                        "iconUrl": "",
                        "isERC1155": false,
                        "isERC721": false,
                        "sign": false,
                        "value": ""
                    }
                ]
            },
            {
                "account": "0xe9bf89fe7648ea5fda0f6e35433d47a25a945edd",
                "assets": [
                    {
                        "address": "0xb17df9a3b09583a9bdcf757d6367171476d4d8a3",
                        "amount": "5",
                        "iconUrl": "",
                        "isERC1155": false,
                        "isERC721": false,
                        "sign": true,
                        "value": ""
                    }
                ]
            }
        ]
    },
    "profile": {
        "basic_info": {
            "baseFee": "",
            "blockNumber": 4536522,
            "callData": "0xa9059cbb000000000000000000000000e9bf89fe7648ea5fda0f6e35433d47a25a945edd0000000000000000000000000000000000000000000000004563918244f40000",
            "debugEnable": true,
            "errorInfo": "",
            "eventCount": 1,
            "feeRecipient": "0x829bd824b016326a401d083b33d092293333a830",
            "formatValue": "0",
            "gasLimit": 100000,
            "gasPrice": "0.25",
            "gasUsed": 51590,
            "intTxnCount": 0,
            "internalRevert": false,
            "internalRevertMessage": "",
            "isContractCreation": false,
            "isFlashloan": false,
            "maxFee": "",
            "nonce": 1902,
            "overwritedBlockNumber": -1,
            "priorityFee": "",
            "receiver": "0xb17df9a3b09583a9bdcf757d6367171476d4d8a3",
            "revertMessage": "",
            "sender": "0xf621f2bfa44902dcca863cec17eb1c6713cdb14f",
            "simulationEnable": true,
            "sourceTxnHash": "0x997eed10f1c79cd38b959d44b3de2147d70f8a6e4e7afbc5757f9e779415a9e1",
            "status": true,
            "timestamp": "2017-11-12T04:13:26Z",
            "transactionFee": "0.0000128975",
            "txnHash": "0x997eed10f1c79cd38b959d44b3de2147d70f8a6e4e7afbc5757f9e779415a9e1",
            "txnIndex": 114,
            "type": 0,
            "value": "0"
        },
        "fund_flow": [
            {
                "amount": "5",
                "from": "0xf621f2bfa44902dcca863cec17eb1c6713cdb14f",
                "id": 1,
                "isERC1155": false,
                "isERC721": false,
                "isReverted": false,
                "order": 1,
                "to": "0xe9bf89fe7648ea5fda0f6e35433d47a25a945edd",
                "token": "0xb17df9a3b09583a9bdcf757d6367171476d4d8a3"
            }
        ],
        "token_infos": [
            {
                "address": "0xb17df9a3b09583a9bdcf757d6367171476d4d8a3",
                "decimals": 18
            },
            {
                "address": "0xc02aaa39b223fe8d0a0e5c4f27ead9083c756cc2",
                "decimals": 18
            },
            {
                "address": "0xeeeeeeeeeeeeeeeeeeeeeeeeeeeeeeeeeeeeeeee",
                "decimals": 18
            }
        ]
    },
    "address_label": {
        "labels": [
            {
                "address": "0x0000000000000000000000000000000000000002",
                "label": "Precompiled"
            },
            {
                "address": "0x0000000000000000000000000000000000000003",
                "label": "Precompiled"
            },
            {
                "address": "0x0000000000000000000000000000000000000004",
                "label": "Precompiled"
            },
            {
                "address": "0xeeeeeeeeeeeeeeeeeeeeeeeeeeeeeeeeeeeeeeee",
                "label": "Ether"
            },
            {
                "address": "0xb17df9a3b09583a9bdcf757d6367171476d4d8a3",
                "label": "MaverickChain Token"
            },
            {
                "address": "0x0000000000000000000000000000000000000001",
                "label": "Precompiled"
            }
        ]
    },
    "trace": {
        "accountLabels": null,
        "dataMap": {
            "-1": {
                "invocation": {
                    "address": "0xf621f2bfa44902dcca863cec17eb1c6713cdb14f",
                    "callData": "",
                    "decodedMethod": null,
                    "errorInfo": "",
                    "fromAddress": "",
                    "gasUsed": 0,
                    "id": -1,
                    "methodDecoded": false,
                    "operation": "",
                    "output": "",
                    "revert": false,
                    "revertMessage": "",
                    "selector": "",
                    "status": false,
                    "value": ""
                },
                "nodeType": 0
            },
            "0": {
                "invocation": {
                    "address": "0xb17df9a3b09583a9bdcf757d6367171476d4d8a3",
                    "callData": "0x000000000000000000000000e9bf89fe7648ea5fda0f6e35433d47a25a945edd0000000000000000000000000000000000000000000000004563918244f40000",
                    "decodedMethod": {
                        "callParams": [
                            {
                                "name": "_to",
                                "type": "address",
                                "value": "0xe9bf89fe7648ea5fda0f6e35433d47a25a945edd"
                            },
                            {
                                "decimalAvailable": true,
                                "name": "_value",
                                "type": "uint256",
                                "value": "5,000,000,000,000,000,000"
                            }
                        ],
                        "constructorArguments": "",
                        "name": "transfer",
                        "returnParams": [
                            {
                                "name": "success",
                                "type": "bool",
                                "value": true
                            }
                        ],
                        "signature": "transfer(address,uint256)"
                    },
                    "errorInfo": "",
                    "fromAddress": "0xf621f2bfa44902dcca863cec17eb1c6713cdb14f",
                    "gasUsed": 51590,
                    "id": 0,
                    "methodDecoded": true,
                    "operation": "CALL",
                    "output": "0x0000000000000000000000000000000000000000000000000000000000000001",
                    "revert": false,
                    "revertMessage": "",
                    "selector": "0xa9059cbb",
                    "status": true,
                    "value": "0"
                },
                "nodeType": 0
            },
            "1": {
                "event": {
                    "contract": "0xb17df9a3b09583a9bdcf757d6367171476d4d8a3",
                    "decodedLog": {
                        "name": "Transfer",
                        "params": [
                            {
                                "name": "_from",
                                "type": "address",
                                "value": "0xf621f2bfa44902dcca863cec17eb1c6713cdb14f"
                            },
                            {
                                "name": "_to",
                                "type": "address",
                                "value": "0xe9bf89fe7648ea5fda0f6e35433d47a25a945edd"
                            },
                            {
                                "decimalAvailable": true,
                                "name": "_value",
                                "type": "uint256",
                                "value": "5,000,000,000,000,000,000"
                            }
                        ],
                        "signature": "Transfer(address,address,uint256)"
                    },
                    "id": 1,
                    "logData": "0x0000000000000000000000000000000000000000000000004563918244f40000",
                    "logDecoded": true,
                    "operation": "EVENT",
                    "revert": false,
                    "status": true,
                    "topics": [
                        "0xddf252ad1be2c89b69c2b068fc378daa952ba7f163c4a11628f55a4df523b3ef",
                        "0x000000000000000000000000f621f2bfa44902dcca863cec17eb1c6713cdb14f",
                        "0x000000000000000000000000e9bf89fe7648ea5fda0f6e35433d47a25a945edd"
                    ]
                },
                "nodeType": 1
            }
        },
        "gasFlame": [
            {
                "children": [
                    {
                        "children": [
                            {
                                "children": [],
                                "depth": 0,
                                "name": "Initial Gas",
                                "value": 23192
                            },
                            {
                                "children": [],
                                "depth": 0,
                                "name": "Executed Gas",
                                "value": 28398
                            }
                        ],
                        "depth": -1,
                        "name": "Actual Gas Used",
                        "value": 51590
                    },
                    {
                        "children": [],
                        "depth": -1,
                        "name": "Refunded Gas",
                        "value": 0
                    }
                ],
                "depth": -2,
                "name": "Total Gas",
                "value": 51590
            }
        ],
        "isConfirmed": true,
        "mainTrace": [
            {
                "children": [
                    {
                        "children": [
                            {
                                "children": [],
                                "depth": 1,
                                "id": 1,
                                "order": 1
                            }
                        ],
                        "depth": 0,
                        "id": 0,
                        "order": 0
                    }
                ],
                "depth": -1,
                "id": -1,
                "order": -1
            }
        ],
        "mainTraceNodeCount": 2,
        "parentIdMap": {
            "0": -1,
            "1": 0
        },
        "tidyTrace": [
            {
                "children": [
                    {
                        "children": [
                            {
                                "children": [],
                                "depth": 1,
                                "id": 1,
                                "order": 1
                            }
                        ],
                        "depth": 0,
                        "id": 0,
                        "order": 0
                    }
                ],
                "depth": -1,
                "id": -1,
                "order": -1
            }
        ],
        "tidyTraceNodeCount": 2
    },
    "state_change": {
        "stateChanges": [
            {
                "address": "0xb17df9a3b09583a9bdcf757d6367171476d4d8a3",
                "erc": "ERC-20",
                "slots": [
                    {
                        "current": "0x000000000000000000000000000000000000000000000276a19a3ae9f20bb000",
                        "key": "0x9396166e2b67f4bb5e60eee63997c7ec5cd2043a2aa5cb9dcc833f77e0e39cf6",
                        "prev": "0x000000000000000000000000000000000000000000000276e6fdcc6c36ffb000"
                    },
                    {
                        "current": "0x0000000000000000000000000000000000000000000000004563918244f40000",
                        "key": "0x5c72297df15bd7548d194c55152c74542fd8fd120775baff1734d9e17eaefcd9",
                        "prev": "0x0000000000000000000000000000000000000000000000000000000000000000"
                    }
                ],
                "storageVariables": []
            }
        ]
    }
}