{
    "balance_change": {
        "balanceChanges": [
            {
                "account": "0x6551f97f7d133083b11c0350c5fa83eefee8000d",
                "assets": [
                    {
                        "address": "0x28b5e12cce51f15594b0b91d5b5adaa70f684a02",
                        "amount": "550",
                        "iconUrl": "https://assets.blocksec.com/icon/7ebe2ac5eb9f4c9c205667fbc4df39031e4508782ca455e839270c56d818642a.png",
                        "isERC1155": false,
                        "isERC721": false,
                        "sign": false,
                        "value": ""
                    }
                ]
            },
            {
                "account": "0xc7f52ab098d99975669bb50646a106b5e991279f",
                "assets": [
                    {
                        "address": "0x28b5e12cce51f15594b0b91d5b5adaa70f684a02",
                        "amount": "550",
                        "iconUrl": "https://assets.blocksec.com/icon/7ebe2ac5eb9f4c9c205667fbc4df39031e4508782ca455e839270c56d818642a.png",
                        "isERC1155": false,
                        "isERC721": false,
                        "sign": true,
                        "value": ""
                    }
                ]
            }
        ]
    },
    "profile": {
        "basic_info": {
            "baseFee": "",
            "blockNumber": 5217904,
            "callData": "0xa9059cbb000000000000000000000000c7f52ab098d99975669bb50646a106b5e991279f000000000000000000000000000000000000000000000000000000000000d6d8",
            "debugEnable": true,
            "errorInfo": "",
            "eventCount": 1,
            "feeRecipient": "0x52bc44d5378309ee2abf1539bf71de1b7d7be3b5",
            "formatValue": "0",
            "gasLimit": 53000,
            "gasPrice": "7.219251228",
            "gasUsed": 51671,
            "intTxnCount": 0,
            "internalRevert": false,
            "internalRevertMessage": "",
            "isContractCreation": false,
            "isFlashloan": false,
            "maxFee": "",
            "nonce": 4450,
            "overwritedBlockNumber": -1,
            "priorityFee": "",
            "receiver": "0x28b5e12cce51f15594b0b91d5b5adaa70f684a02",
            "revertMessage": "",
            "sender": "0x6551f97f7d133083b11c0350c5fa83eefee8000d",
            "simulationEnable": true,
            "sourceTxnHash": "0x9956dec570979522dc4b1d3db0ec9ed9bbc25979df3e62c870045d02024721e4",
            "status": true,
            "timestamp": "2018-03-08T10:08:27Z",
            "transactionFee": "0.000373025930201988",
            "txnHash": "0x9956dec570979522dc4b1d3db0ec9ed9bbc25979df3e62c870045d02024721e4",
            "txnIndex": 125,
            "type": 0,
            "value": "0"
        },
        "fund_flow": [
            {
                "amount": "550",
                "from": "0x6551f97f7d133083b11c0350c5fa83eefee8000d",
                "id": 1,
                "isERC1155": false,
                "isERC721": false,
                "isReverted": false,
                "order": 1,
                "to": "0xc7f52ab098d99975669bb50646a106b5e991279f",
                "token": "0x28b5e12cce51f15594b0b91d5b5adaa70f684a02"
            }
        ],
        "token_infos": [
            {
                "address": "0x28b5e12cce51f15594b0b91d5b5adaa70f684a02",
                "decimals": 2
            },
            {
                "address": "0xc02aaa39b223fe8d0a0e5c4f27ead9083c756cc2",
                "decimals": 18
            },
            {
                "address": "0xeeeeeeeeeeeeeeeeeeeeeeeeeeeeeeeeeeeeeeee",
                "decimals": 18
            }
        ]
    },
    "address_label": {
        "labels": [
            {
                "address": "0x0000000000000000000000000000000000000001",
                "label": "Precompiled"
            },
            {
                "address": "0x0000000000000000000000000000000000000002",
                "label": "Precompiled"
            },
            {
                "address": "0x0000000000000000000000000000000000000003",
                "label": "Precompiled"
            },
            {
                "address": "0x0000000000000000000000000000000000000004",
                "label": "Precompiled"
            },
            {
                "address": "0xeeeeeeeeeeeeeeeeeeeeeeeeeeeeeeeeeeeeeeee",
                "label": "Ether"
            },
            {
                "address": "0x28b5e12cce51f15594b0b91d5b5adaa70f684a02",
                "label": "Napoleon Group: NPX Token"
            },
            {
                "address": "0x6551f97f7d133083b11c0350c5fa83eefee8000d",
                "label": "Napoleon Group: Deployer"
            }
        ]
    },
    "trace": {
        "accountLabels": null,
        "dataMap": {
            "-1": {
                "invocation": {
                    "address": "0x6551f97f7d133083b11c0350c5fa83eefee8000d",
                    "callData": "",
                    "decodedMethod": null,
                    "errorInfo": "",
                    "fromAddress": "",
                    "gasUsed": 0,
                    "id": -1,
                    "methodDecoded": false,
                    "operation": "",
                    "output": "",
                    "revert": false,
                    "revertMessage": "",
                    "selector": "",
                    "status": false,
                    "value": ""
                },
                "nodeType": 0
            },
            "0": {
                "invocation": {
                    "address": "0x28b5e12cce51f15594b0b91d5b5adaa70f684a02",
                    "callData": "0x000000000000000000000000c7f52ab098d99975669bb50646a106b5e991279f000000000000000000000000000000000000000000000000000000000000d6d8",
                    "decodedMethod": {
                        "callParams": [
                            {
                                "name": "_to",
                                "type": "address",
                                "value": "0xc7f52ab098d99975669bb50646a106b5e991279f"
                            },
                            {
                                "decimalAvailable": true,
                                "name": "_value",
                                "type": "uint256",
                                "value": "55,000"
                            }
                        ],
                        "constructorArguments": "",
                        "name": "transfer",
                        "returnParams": [
                            {
                                "name": "",
                                "type": "bool",
                                "value": true
                            }
                        ],
                        "signature": "transfer(address,uint256)"
                    },
                    "errorInfo": "",
                    "fromAddress": "0x6551f97f7d133083b11c0350c5fa83eefee8000d",
                    "gasUsed": 51671,
                    "id": 0,
                    "methodDecoded": true,
                    "operation": "CALL",
                    "output": "0x0000000000000000000000000000000000000000000000000000000000000001",
                    "revert": false,
                    "revertMessage": "",
                    "selector": "0xa9059cbb",
                    "status": true,
                    "value": "0"
                },
                "nodeType": 0
            },
            "1": {
                "event": {
                    "contract": "0x28b5e12cce51f15594b0b91d5b5adaa70f684a02",
                    "decodedLog": {
                        "name": "Transfer",
                        "params": [
                            {
                                "name": "from",
                                "type": "address",
                                "value": "0x6551f97f7d133083b11c0350c5fa83eefee8000d"
                            },
                            {
                                "name": "to",
                                "type": "address",
                                "value": "0xc7f52ab098d99975669bb50646a106b5e991279f"
                            },
                            {
                                "decimalAvailable": true,
                                "name": "value",
                                "type": "uint256",
                                "value": "55,000"
                            }
                        ],
                        "signature": "Transfer(address,address,uint256)"
                    },
                    "id": 1,
                    "logData": "0x000000000000000000000000000000000000000000000000000000000000d6d8",
                    "logDecoded": true,
                    "operation": "EVENT",
                    "revert": false,
                    "status": true,
                    "topics": [
                        "0xddf252ad1be2c89b69c2b068fc378daa952ba7f163c4a11628f55a4df523b3ef",
                        "0x0000000000000000000000006551f97f7d133083b11c0350c5fa83eefee8000d",
                        "0x000000000000000000000000c7f52ab098d99975669bb50646a106b5e991279f"
                    ]
                },
                "nodeType": 1
            }
        },
        "gasFlame": [
            {
                "children": [
                    {
                        "children": [
                            {
                                "children": [],
                                "depth": 0,
                                "name": "Initial Gas",
                                "value": 22936
                            },
                            {
                                "children": [],
                                "depth": 0,
                                "name": "Executed Gas",
                                "value": 28735
                            }
                        ],
                        "depth": -1,
                        "name": "Actual Gas Used",
                        "value": 51671
                    },
                    {
                        "children": [],
                        "depth": -1,
                        "name": "Refunded Gas",
                        "value": 0
                    }
                ],
                "depth": -2,
                "name": "Total Gas",
                "value": 51671
            }
        ],
        "isConfirmed": true,
        "mainTrace": [
            {
                "children": [
                    {
                        "children": [
                            {
                                "children": [],
                                "depth": 1,
                                "id": 1,
                                "order": 1
                            }
                        ],
                        "depth": 0,
                        "id": 0,
                        "order": 0
                    }
                ],
                "depth": -1,
                "id": -1,
                "order": -1
            }
        ],
        "mainTraceNodeCount": 2,
        "parentIdMap": {
            "0": -1,
            "1": 0
        },
        "tidyTrace": [
            {
                "children": [
                    {
                        "children": [
                            {
                                "children": [],
                                "depth": 1,
                                "id": 1,
                                "order": 1
                            }
                        ],
                        "depth": 0,
                        "id": 0,
                        "order": 0
                    }
                ],
                "depth": -1,
                "id": -1,
                "order": -1
            }
        ],
        "tidyTraceNodeCount": 2
    },
    "state_change": {
        "stateChanges": [
            {
                "address": "0x28b5e12cce51f15594b0b91d5b5adaa70f684a02",
                "erc": "ERC-20",
                "slots": [
                    {
                        "current": "0x0000000000000000000000000000000000000000000000000000000082264eac",
                        "key": "0x55a0d04bf609f8f96cfe6665fbb3361c3b58864e450f68148cd1c02f92e2e51e",
                        "prev": "0x0000000000000000000000000000000000000000000000000000000082272584"
                    },
                    {
                        "current": "0x000000000000000000000000000000000000000000000000000000000000d6d8",
                        "key": "0x46cb02299dfd9e8be4665b648db85f02f783fbb22da39322d5099d6fc753ef8f",
                        "prev": "0x0000000000000000000000000000000000000000000000000000000000000000"
                    }
                ],
                "storageVariables": [
                    {
                        "name": "balances",
                        "type": "mapping(address => uint256)",
                        "value": {
                            "pairs": [
                                {
                                    "key": "0x6551f97f7d133083b11c0350c5fa83eefee8000d",
                                    "value": {
                                        "current": "2183548588",
                                        "prev": "2183603588",
                                        "typeTag": 1
                                    }
                                },
                                {
                                    "key": "0xc7f52ab098d99975669bb50646a106b5e991279f",
                                    "value": {
                                        "current": "55000",
                                        "prev": "0",
                                        "typeTag": 1
                                    }
                                }
                            ],
                            "typeTag": 4
                        }
                    }
                ]
            }
        ]
    }
}