{
    "balance_change": {
        "balanceChanges": [
            {
                "account": "0xb8b2779178dbece29dff68378ffeb00825329869",
                "assets": [
                    {
                        "address": "0x00059ae69c1622a7542edc15e8d17b060fe307b6",
                        "amount": "397.5",
                        "iconUrl": "",
                        "isERC1155": false,
                        "isERC721": false,
                        "sign": false,
                        "value": ""
                    }
                ]
            },
            {
                "account": "0x00b73d236b397da6d5895a999614a263cc81c09a",
                "assets": [
                    {
                        "address": "0x00059ae69c1622a7542edc15e8d17b060fe307b6",
                        "amount": "397.5",
                        "iconUrl": "",
                        "isERC1155": false,
                        "isERC721": false,
                        "sign": true,
                        "value": ""
                    }
                ]
            }
        ]
    },
    "profile": {
        "basic_info": {
            "baseFee": "",
            "blockNumber": 7890152,
            "callData": "0xa9059cbb00000000000000000000000000b73d236b397da6d5895a999614a263cc81c09a0000000000000000000000000000000000000000000000158c6baff469c60000",
            "debugEnable": true,
            "errorInfo": "",
            "eventCount": 1,
            "feeRecipient": "0xea674fdde714fd979de3edf0f56aa9716b898ec8",
            "formatValue": "0",
            "gasLimit": 60000,
            "gasPrice": "15",
            "gasUsed": 53737,
            "intTxnCount": 0,
            "internalRevert": false,
            "internalRevertMessage": "",
            "isContractCreation": false,
            "isFlashloan": false,
            "maxFee": "",
            "nonce": 181,
            "overwritedBlockNumber": -1,
            "priorityFee": "",
            "receiver": "0x00059ae69c1622a7542edc15e8d17b060fe307b6",
            "revertMessage": "",
            "sender": "0xb8b2779178dbece29dff68378ffeb00825329869",
            "simulationEnable": true,
            "sourceTxnHash": "0x9ac34345b6d51f3a62a46913c2f00d62bf73187fdf221d9c4def62842da507b6",
            "status": true,
            "timestamp": "2019-06-04T02:26:50Z",
            "transactionFee": "0.000806055",
            "txnHash": "0x9ac34345b6d51f3a62a46913c2f00d62bf73187fdf221d9c4def62842da507b6",
            "txnIndex": 46,
            "type": 0,
            "value": "0"
        },
        "fund_flow": [
            {
                "amount": "397.5",
                "from": "0xb8b2779178dbece29dff68378ffeb00825329869",
                "id": 1,
                "isERC1155": false,
                "isERC721": false,
                "isReverted": false,
                "order": 1,
                "to": "0x00b73d236b397da6d5895a999614a263cc81c09a",
                "token": "0x00059ae69c1622a7542edc15e8d17b060fe307b6"
            }
        ],
        "token_infos": [
            {
                "address": "0xeeeeeeeeeeeeeeeeeeeeeeeeeeeeeeeeeeeeeeee",
                "decimals": 18
            },
            {
                "address": "0x00059ae69c1622a7542edc15e8d17b060fe307b6",
                "decimals": 18
            },
            {
                "address": "0xc02aaa39b223fe8d0a0e5c4f27ead9083c756cc2",
                "decimals": 18
            }
        ]
    },
    "address_label": {
        "labels": [
            {
                "address": "0x0000000000000000000000000000000000000001",
                "label": "Precompiled"
            },
            {
                "address": "0x0000000000000000000000000000000000000002",
                "label": "Precompiled"
            },
            {
                "address": "0x0000000000000000000000000000000000000003",
                "label": "Precompiled"
            },
            {
                "address": "0x0000000000000000000000000000000000000004",
                "label": "Precompiled"
            },
            {
                "address": "0xeeeeeeeeeeeeeeeeeeeeeeeeeeeeeeeeeeeeeeee",
                "label": "Ether"
            },
            {
                "address": "0x00059ae69c1622a7542edc15e8d17b060fe307b6",
                "label": "AmonD: AMON Token"
            }
        ]
    },
    "trace": {
        "accountLabels": null,
        "dataMap": {
            "-1": {
                "invocation": {
                    "address": "0xb8b2779178dbece29dff68378ffeb00825329869",
                    "callData": "",
                    "decodedMethod": null,
                    "errorInfo": "",
                    "fromAddress": "",
                    "gasUsed": 0,
                    "id": -1,
                    "methodDecoded": false,
                    "operation": "",
                    "output": "",
                    "revert": false,
                    "revertMessage": "",
                    "selector": "",
                    "status": false,
                    "value": ""
                },
                "nodeType": 0
            },
            "0": {
                "invocation": {
                    "address": "0x00059ae69c1622a7542edc15e8d17b060fe307b6",
                    "callData": "0x00000000000000000000000000b73d236b397da6d5895a999614a263cc81c09a0000000000000000000000000000000000000000000000158c6baff469c60000",
                    "decodedMethod": {
                        "callParams": [
                            {
                                "name": "_to",
                                "type": "address",
                                "value": "0x00b73d236b397da6d5895a999614a263cc81c09a"
                            },
                            {
                                "decimalAvailable": true,
                                "name": "_value",
                                "type": "uint256",
                                "value": "397,500,000,000,000,000,000"
                            }
                        ],
                        "constructorArguments": "",
                        "name": "transfer",
                        "returnParams": [
                            {
                                "name": "",
                                "type": "bool",
                                "value": true
                            }
                        ],
                        "signature": "transfer(address,uint256)"
                    },
                    "errorInfo": "",
                    "fromAddress": "0xb8b2779178dbece29dff68378ffeb00825329869",
                    "gasUsed": 53737,
                    "id": 0,
                    "methodDecoded": true,
                    "operation": "CALL",
                    "output": "0x0000000000000000000000000000000000000000000000000000000000000001",
                    "revert": false,
                    "revertMessage": "",
                    "selector": "0xa9059cbb",
                    "status": true,
                    "value": "0"
                },
                "nodeType": 0
            },
            "1": {
                "event": {
                    "contract": "0x00059ae69c1622a7542edc15e8d17b060fe307b6",
                    "decodedLog": {
                        "name": "Transfer",
                        "params": [
                            {
                                "name": "from",
                                "type": "address",
                                "value": "0xb8b2779178dbece29dff68378ffeb00825329869"
                            },
                            {
                                "name": "to",
                                "type": "address",
                                "value": "0x00b73d236b397da6d5895a999614a263cc81c09a"
                            },
                            {
                                "decimalAvailable": true,
                                "name": "value",
                                "type": "uint256",
                                "value": "397,500,000,000,000,000,000"
                            }
                        ],
                        "signature": "Transfer(address,address,uint256)"
                    },
                    "id": 1,
                    "logData": "0x0000000000000000000000000000000000000000000000158c6baff469c60000",
                    "logDecoded": true,
                    "operation": "EVENT",
                    "revert": false,
                    "status": true,
                    "topics": [
                        "0xddf252ad1be2c89b69c2b068fc378daa952ba7f163c4a11628f55a4df523b3ef",
                        "0x000000000000000000000000b8b2779178dbece29dff68378ffeb00825329869",
                        "0x00000000000000000000000000b73d236b397da6d5895a999614a263cc81c09a"
                    ]
                },
                "nodeType": 1
            }
        },
        "gasFlame": [
            {
                "children": [
                    {
                        "children": [
                            {
                                "children": [],
                                "depth": 0,
                                "name": "Initial Gas",
                                "value": 23192
                            },
                            {
                                "children": [],
                                "depth": 0,
                                "name": "Executed Gas",
                                "value": 30545
                            }
                        ],
                        "depth": -1,
                        "name": "Actual Gas Used",
                        "value": 53737
                    },
                    {
                        "children": [],
                        "depth": -1,
                        "name": "Refunded Gas",
                        "value": 0
                    }
                ],
                "depth": -2,
                "name": "Total Gas",
                "value": 53737
            }
        ],
        "isConfirmed": true,
        "mainTrace": [
            {
                "children": [
                    {
                        "children": [
                            {
                                "children": [],
                                "depth": 1,
                                "id": 1,
                                "order": 1
                            }
                        ],
                        "depth": 0,
                        "id": 0,
                        "order": 0
                    }
                ],
                "depth": -1,
                "id": -1,
                "order": -1
            }
        ],
        "mainTraceNodeCount": 2,
        "parentIdMap": {
            "0": -1,
            "1": 0
        },
        "tidyTrace": [
            {
                "children": [
                    {
                        "children": [
                            {
                                "children": [],
                                "depth": 1,
                                "id": 1,
                                "order": 1
                            }
                        ],
                        "depth": 0,
                        "id": 0,
                        "order": 0
                    }
                ],
                "depth": -1,
                "id": -1,
                "order": -1
            }
        ],
        "tidyTraceNodeCount": 2
    },
    "state_change": {
        "stateChanges": [
            {
                "address": "0x00059ae69c1622a7542edc15e8d17b060fe307b6",
                "erc": "ERC-20",
                "slots": [
                    {
                        "current": "0x000000000000000000000000000000000000000000003968e6e9eeb628970000",
                        "key": "0xc670cd56d357560a4b60cb0ed0569488b4e6e972bc1f3010f657dfa2a2bc2df7",
                        "prev": "0x00000000000000000000000000000000000000000000397e73559eaa925d0000"
                    },
                    {
                        "current": "0x0000000000000000000000000000000000000000000000158c6baff469c60000",
                        "key": "0xbc71d00e0e36d404e735c65140ffba33bc10d7990e52108f14fe53de6d0eac62",
                        "prev": "0x0000000000000000000000000000000000000000000000000000000000000000"
                    }
                ],
                "storageVariables": [
                    {
                        "name": "balances",
                        "type": "mapping(address => uint256)",
                        "value": {
                            "pairs": [
                                {
                                    "key": "0x00b73d236b397da6d5895a999614a263cc81c09a",
                                    "value": {
                                        "current": "397500000000000000000",
                                        "prev": "0",
                                        "typeTag": 1
                                    }
                                },
                                {
                                    "key": "0xb8b2779178dbece29dff68378ffeb00825329869",
                                    "value": {
                                        "current": "271109990000000000000000",
                                        "prev": "271507490000000000000000",
                                        "typeTag": 1
                                    }
                                }
                            ],
                            "typeTag": 4
                        }
                    }
                ]
            }
        ]
    }
}