{
    "balance_change": {
        "balanceChanges": [
            {
                "account": "0xdb34bdbc8937b137e3b78dbc20de23b560db7376",
                "assets": [
                    {
                        "address": "0xc4131c1893576e078a0b637b653f3e6a18e137ac",
                        "amount": "1",
                        "iconUrl": "",
                        "isERC1155": false,
                        "isERC721": false,
                        "sign": false,
                        "value": ""
                    }
                ]
            },
            {
                "account": "0x9004b577c8f1c5ec858b3df916909209d8a1f413",
                "assets": [
                    {
                        "address": "0xc4131c1893576e078a0b637b653f3e6a18e137ac",
                        "amount": "1",
                        "iconUrl": "",
                        "isERC1155": false,
                        "isERC721": false,
                        "sign": true,
                        "value": ""
                    }
                ]
            }
        ]
    },
    "profile": {
        "basic_info": {
            "baseFee": "",
            "blockNumber": 7477458,
            "callData": "0xa9059cbb0000000000000000000000009004b577c8f1c5ec858b3df916909209d8a1f4130000000000000000000000000000000000000000000000000000000000002710",
            "debugEnable": true,
            "errorInfo": "",
            "eventCount": 1,
            "feeRecipient": "0xea674fdde714fd979de3edf0f56aa9716b898ec8",
            "formatValue": "0",
            "gasLimit": 110000,
            "gasPrice": "3.6",
            "gasUsed": 51255,
            "intTxnCount": 0,
            "internalRevert": false,
            "internalRevertMessage": "",
            "isContractCreation": false,
            "isFlashloan": false,
            "maxFee": "",
            "nonce": 268173,
            "overwritedBlockNumber": -1,
            "priorityFee": "",
            "receiver": "0xc4131c1893576e078a0b637b653f3e6a18e137ac",
            "revertMessage": "",
            "sender": "0xdb34bdbc8937b137e3b78dbc20de23b560db7376",
            "simulationEnable": true,
            "sourceTxnHash": "0x9a9b89d35afa36751cf8620ea55766cfbb40871bde0f23bf3001df9f378001fd",
            "status": true,
            "timestamp": "2019-03-31T17:21:21Z",
            "transactionFee": "0.000184518",
            "txnHash": "0x9a9b89d35afa36751cf8620ea55766cfbb40871bde0f23bf3001df9f378001fd",
            "txnIndex": 88,
            "type": 0,
            "value": "0"
        },
        "fund_flow": [
            {
                "amount": "1",
                "from": "0xdb34bdbc8937b137e3b78dbc20de23b560db7376",
                "id": 1,
                "isERC1155": false,
                "isERC721": false,
                "isReverted": false,
                "order": 1,
                "to": "0x9004b577c8f1c5ec858b3df916909209d8a1f413",
                "token": "0xc4131c1893576e078a0b637b653f3e6a18e137ac"
            }
        ],
        "token_infos": [
            {
                "address": "0xc02aaa39b223fe8d0a0e5c4f27ead9083c756cc2",
                "decimals": 18
            },
            {
                "address": "0xc4131c1893576e078a0b637b653f3e6a18e137ac",
                "decimals": 4
            },
            {
                "address": "0xeeeeeeeeeeeeeeeeeeeeeeeeeeeeeeeeeeeeeeee",
                "decimals": 18
            }
        ]
    },
    "address_label": {
        "labels": [
            {
                "address": "0xeeeeeeeeeeeeeeeeeeeeeeeeeeeeeeeeeeeeeeee",
                "label": "Ether"
            },
            {
                "address": "0xc4131c1893576e078a0b637b653f3e6a18e137ac",
                "label": "YB"
            },
            {
                "address": "0x0000000000000000000000000000000000000001",
                "label": "Precompiled"
            },
            {
                "address": "0x0000000000000000000000000000000000000002",
                "label": "Precompiled"
            },
            {
                "address": "0x0000000000000000000000000000000000000003",
                "label": "Precompiled"
            },
            {
                "address": "0x0000000000000000000000000000000000000004",
                "label": "Precompiled"
            }
        ]
    },
    "trace": {
        "accountLabels": null,
        "dataMap": {
            "-1": {
                "invocation": {
                    "address": "0xdb34bdbc8937b137e3b78dbc20de23b560db7376",
                    "callData": "",
                    "decodedMethod": null,
                    "errorInfo": "",
                    "fromAddress": "",
                    "gasUsed": 0,
                    "id": -1,
                    "methodDecoded": false,
                    "operation": "",
                    "output": "",
                    "revert": false,
                    "revertMessage": "",
                    "selector": "",
                    "status": false,
                    "value": ""
                },
                "nodeType": 0
            },
            "0": {
                "invocation": {
                    "address": "0xc4131c1893576e078a0b637b653f3e6a18e137ac",
                    "callData": "0x0000000000000000000000009004b577c8f1c5ec858b3df916909209d8a1f4130000000000000000000000000000000000000000000000000000000000002710",
                    "decodedMethod": {
                        "callParams": [
                            {
                                "name": "_to",
                                "type": "address",
                                "value": "0x9004b577c8f1c5ec858b3df916909209d8a1f413"
                            },
                            {
                                "decimalAvailable": true,
                                "name": "_value",
                                "type": "uint256",
                                "value": "10,000"
                            }
                        ],
                        "constructorArguments": "",
                        "name": "transfer",
                        "returnParams": [
                            {
                                "name": "success",
                                "type": "bool",
                                "value": true
                            }
                        ],
                        "signature": "transfer(address,uint256)"
                    },
                    "errorInfo": "",
                    "fromAddress": "0xdb34bdbc8937b137e3b78dbc20de23b560db7376",
                    "gasUsed": 51255,
                    "id": 0,
                    "methodDecoded": true,
                    "operation": "CALL",
                    "output": "0x0000000000000000000000000000000000000000000000000000000000000001",
                    "revert": false,
                    "revertMessage": "",
                    "selector": "0xa9059cbb",
                    "status": true,
                    "value": "0"
                },
                "nodeType": 0
            },
            "1": {
                "event": {
                    "contract": "0xc4131c1893576e078a0b637b653f3e6a18e137ac",
                    "decodedLog": {
                        "name": "Transfer",
                        "params": [
                            {
                                "name": "_from",
                                "type": "address",
                                "value": "0xdb34bdbc8937b137e3b78dbc20de23b560db7376"
                            },
                            {
                                "name": "_to",
                                "type": "address",
                                "value": "0x9004b577c8f1c5ec858b3df916909209d8a1f413"
                            },
                            {
                                "decimalAvailable": true,
                                "name": "_value",
                                "type": "uint256",
                                "value": "10,000"
                            }
                        ],
                        "signature": "Transfer(address,address,uint256)"
                    },
                    "id": 1,
                    "logData": "0x0000000000000000000000000000000000000000000000000000000000002710",
                    "logDecoded": true,
                    "operation": "EVENT",
                    "revert": false,
                    "status": true,
                    "topics": [
                        "0xddf252ad1be2c89b69c2b068fc378daa952ba7f163c4a11628f55a4df523b3ef",
                        "0x000000000000000000000000db34bdbc8937b137e3b78dbc20de23b560db7376",
                        "0x0000000000000000000000009004b577c8f1c5ec858b3df916909209d8a1f413"
                    ]
                },
                "nodeType": 1
            }
        },
        "gasFlame": [
            {
                "children": [
                    {
                        "children": [
                            {
                                "children": [],
                                "depth": 0,
                                "name": "Initial Gas",
                                "value": 22936
                            },
                            {
                                "children": [],
                                "depth": 0,
                                "name": "Executed Gas",
                                "value": 28319
                            }
                        ],
                        "depth": -1,
                        "name": "Actual Gas Used",
                        "value": 51255
                    },
                    {
                        "children": [],
                        "depth": -1,
                        "name": "Refunded Gas",
                        "value": 0
                    }
                ],
                "depth": -2,
                "name": "Total Gas",
                "value": 51255
            }
        ],
        "isConfirmed": true,
        "mainTrace": [
            {
                "children": [
                    {
                        "children": [
                            {
                                "children": [],
                                "depth": 1,
                                "id": 1,
                                "order": 1
                            }
                        ],
                        "depth": 0,
                        "id": 0,
                        "order": 0
                    }
                ],
                "depth": -1,
                "id": -1,
                "order": -1
            }
        ],
        "mainTraceNodeCount": 2,
        "parentIdMap": {
            "0": -1,
            "1": 0
        },
        "tidyTrace": [
            {
                "children": [
                    {
                        "children": [
                            {
                                "children": [],
                                "depth": 1,
                                "id": 1,
                                "order": 1
                            }
                        ],
                        "depth": 0,
                        "id": 0,
                        "order": 0
                    }
                ],
                "depth": -1,
                "id": -1,
                "order": -1
            }
        ],
        "tidyTraceNodeCount": 2
    },
    "state_change": {
        "stateChanges": [
            {
                "address": "0xc4131c1893576e078a0b637b653f3e6a18e137ac",
                "erc": "ERC-20",
                "slots": [
                    {
                        "current": "0x0000000000000000000000000000000000000000000000000000000000002710",
                        "key": "0xfcc734f7efbc0591569dea780e4e4b64f0c930d8379baba347b3db3d7832fd02",
                        "prev": "0x0000000000000000000000000000000000000000000000000000000000000000"
                    },
                    {
                        "current": "0x000000000000000000000000000000000000000000000000000008e5400e8520",
                        "key": "0x9c1343d219fb52c13c7fa5dfc50fee6510532be6655d7101fdd93b16e9b477de",
                        "prev": "0x000000000000000000000000000000000000000000000000000008e5400eac30"
                    }
                ],
                "storageVariables": [
                    {
                        "name": "balances",
                        "type": "mapping(address => uint256)",
                        "value": {
                            "pairs": [
                                {
                                    "key": "0x9004b577c8f1c5ec858b3df916909209d8a1f413",
                                    "value": {
                                        "current": "10000",
                                        "prev": "0",
                                        "typeTag": 1
                                    }
                                },
                                {
                                    "key": "0xdb34bdbc8937b137e3b78dbc20de23b560db7376",
                                    "value": {
                                        "current": "9780715226400",
                                        "prev": "9780715236400",
                                        "typeTag": 1
                                    }
                                }
                            ],
                            "typeTag": 4
                        }
                    }
                ]
            }
        ]
    }
}