{
    "balance_change": {
        "balanceChanges": [
            {
                "account": "0x834f6fa204fc8f7fd861cd7d497feb7eabd8aaf7",
                "assets": [
                    {
                        "address": "0xcc4304a31d09258b0029ea7fe63d032f52e44efe",
                        "amount": "400.000099770731103692",
                        "iconUrl": "",
                        "isERC1155": false,
                        "isERC721": false,
                        "sign": false,
                        "value": "98.37380183"
                    }
                ]
            },
            {
                "account": "0x5a753021ce28cbc5a7c51f732ba83873d673d8cc",
                "assets": [
                    {
                        "address": "0xcc4304a31d09258b0029ea7fe63d032f52e44efe",
                        "amount": "400.000099770731103692",
                        "iconUrl": "",
                        "isERC1155": false,
                        "isERC721": false,
                        "sign": true,
                        "value": "98.37380183"
                    }
                ]
            }
        ]
    },
    "profile": {
        "basic_info": {
            "baseFee": "",
            "blockNumber": 11116453,
            "callData": "0xb6b55f25000000000000000000000000000000000000000000000015af1dd3733b3c85cc",
            "debugEnable": true,
            "errorInfo": "",
            "eventCount": 3,
            "feeRecipient": "0xb3b7874f13387d44a3398d298b075b7a3505d8d4",
            "formatValue": "0",
            "gasLimit": 167585,
            "gasPrice": "27",
            "gasUsed": 129699,
            "intTxnCount": 3,
            "internalRevert": false,
            "internalRevertMessage": "",
            "isContractCreation": false,
            "isFlashloan": false,
            "maxFee": "",
            "nonce": 39,
            "overwritedBlockNumber": -1,
            "priorityFee": "",
            "receiver": "0x5a753021ce28cbc5a7c51f732ba83873d673d8cc",
            "revertMessage": "",
            "sender": "0x834f6fa204fc8f7fd861cd7d497feb7eabd8aaf7",
            "simulationEnable": true,
            "sourceTxnHash": "0x9a173ed4f106cef7182a79c377807b227d79741d6c0acefd51431fcba98c97d7",
            "status": true,
            "timestamp": "2020-10-24T02:56:45Z",
            "transactionFee": "0.003501873",
            "txnHash": "0x9a173ed4f106cef7182a79c377807b227d79741d6c0acefd51431fcba98c97d7",
            "txnIndex": 188,
            "type": 0,
            "value": "0"
        },
        "fund_flow": [
            {
                "amount": "400.000099770731103692",
                "from": "0x834f6fa204fc8f7fd861cd7d497feb7eabd8aaf7",
                "id": 1,
                "isERC1155": false,
                "isERC721": false,
                "isReverted": false,
                "order": 1,
                "to": "0x5a753021ce28cbc5a7c51f732ba83873d673d8cc",
                "token": "0xcc4304a31d09258b0029ea7fe63d032f52e44efe"
            }
        ],
        "token_infos": [
            {
                "address": "0xeeeeeeeeeeeeeeeeeeeeeeeeeeeeeeeeeeeeeeee",
                "decimals": 18
            },
            {
                "address": "0xc02aaa39b223fe8d0a0e5c4f27ead9083c756cc2",
                "decimals": 18
            },
            {
                "address": "0xcc4304a31d09258b0029ea7fe63d032f52e44efe",
                "decimals": 18
            }
        ]
    },
    "address_label": {
        "labels": [
            {
                "address": "0xcc4304a31d09258b0029ea7fe63d032f52e44efe",
                "label": "TrustSwap: SWAP Token"
            },
            {
                "address": "0xb9f45edeffe5abd7a1a1dffc65068a065b98524d",
                "label": "SwapToken"
            },
            {
                "address": "0x0000000000000000000000000000000000000003",
                "label": "Precompiled"
            },
            {
                "address": "0x0000000000000000000000000000000000000004",
                "label": "Precompiled"
            },
            {
                "address": "0xeeeeeeeeeeeeeeeeeeeeeeeeeeeeeeeeeeeeeeee",
                "label": "Ether"
            },
            {
                "address": "0x5a753021ce28cbc5a7c51f732ba83873d673d8cc",
                "label": "AdminUpgradeabilityProxy"
            },
            {
                "address": "0x94c5f7d26a718f47d3db490d7bdb178324f1f34e",
                "label": "SwapStakingContract"
            },
            {
                "address": "0x0000000000000000000000000000000000000001",
                "label": "Precompiled"
            },
            {
                "address": "0x0000000000000000000000000000000000000002",
                "label": "Precompiled"
            }
        ]
    },
    "trace": {
        "accountLabels": null,
        "dataMap": {
            "-1": {
                "invocation": {
                    "address": "0x834f6fa204fc8f7fd861cd7d497feb7eabd8aaf7",
                    "callData": "",
                    "decodedMethod": null,
                    "errorInfo": "",
                    "fromAddress": "",
                    "gasUsed": 0,
                    "id": -1,
                    "methodDecoded": false,
                    "operation": "",
                    "output": "",
                    "revert": false,
                    "revertMessage": "",
                    "selector": "",
                    "status": false,
                    "value": ""
                },
                "nodeType": 0
            },
            "0": {
                "invocation": {
                    "address": "0x5a753021ce28cbc5a7c51f732ba83873d673d8cc",
                    "callData": "0x000000000000000000000000000000000000000000000015af1dd3733b3c85cc",
                    "decodedMethod": {
                        "callParams": [
                            {
                                "name": "amount",
                                "type": "uint256",
                                "value": "400,000,099,770,731,103,692"
                            }
                        ],
                        "constructorArguments": "",
                        "name": "deposit",
                        "returnParams": [],
                        "signature": "deposit(uint256)"
                    },
                    "errorInfo": "",
                    "fromAddress": "0x834f6fa204fc8f7fd861cd7d497feb7eabd8aaf7",
                    "gasUsed": 129699,
                    "id": 0,
                    "methodDecoded": true,
                    "operation": "CALL",
                    "output": "",
                    "revert": false,
                    "revertMessage": "",
                    "selector": "0xb6b55f25",
                    "status": true,
                    "value": "0"
                },
                "nodeType": 0
            },
            "1": {
                "invocation": {
                    "address": "0x94c5f7d26a718f47d3db490d7bdb178324f1f34e",
                    "callData": "0x000000000000000000000000000000000000000000000015af1dd3733b3c85cc",
                    "decodedMethod": {
                        "callParams": [
                            {
                                "name": "amount",
                                "type": "uint256",
                                "value": "400,000,099,770,731,103,692"
                            }
                        ],
                        "constructorArguments": "",
                        "name": "deposit",
                        "returnParams": [],
                        "signature": "deposit(uint256)"
                    },
                    "errorInfo": "",
                    "fromAddress": "0x5a753021ce28cbc5a7c51f732ba83873d673d8cc",
                    "gasUsed": 139831,
                    "id": 1,
                    "methodDecoded": true,
                    "operation": "DELEGATECALL",
                    "output": "",
                    "revert": false,
                    "revertMessage": "",
                    "selector": "0xb6b55f25",
                    "status": true,
                    "value": "0"
                },
                "nodeType": 0
            },
            "2": {
                "invocation": {
                    "address": "0xcc4304a31d09258b0029ea7fe63d032f52e44efe",
                    "callData": "0x000000000000000000000000834f6fa204fc8f7fd861cd7d497feb7eabd8aaf70000000000000000000000005a753021ce28cbc5a7c51f732ba83873d673d8cc000000000000000000000000000000000000000000000015af1dd3733b3c85cc",
                    "decodedMethod": {
                        "callParams": [
                            {
                                "name": "sender",
                                "type": "address",
                                "value": "0x834f6fa204fc8f7fd861cd7d497feb7eabd8aaf7"
                            },
                            {
                                "name": "recipient",
                                "type": "address",
                                "value": "0x5a753021ce28cbc5a7c51f732ba83873d673d8cc"
                            },
                            {
                                "decimalAvailable": true,
                                "name": "amount",
                                "type": "uint256",
                                "value": "400,000,099,770,731,103,692"
                            }
                        ],
                        "constructorArguments": "",
                        "name": "transferFrom",
                        "returnParams": [
                            {
                                "name": "",
                                "type": "bool",
                                "value": true
                            }
                        ],
                        "signature": "transferFrom(address,address,uint256)"
                    },
                    "errorInfo": "",
                    "fromAddress": "0x5a753021ce28cbc5a7c51f732ba83873d673d8cc",
                    "gasUsed": 30328,
                    "id": 2,
                    "methodDecoded": true,
                    "operation": "CALL",
                    "output": "0x0000000000000000000000000000000000000000000000000000000000000001",
                    "revert": false,
                    "revertMessage": "",
                    "selector": "0x23b872dd",
                    "status": true,
                    "value": "0"
                },
                "nodeType": 0
            },
            "3": {
                "invocation": {
                    "address": "0xb9f45edeffe5abd7a1a1dffc65068a065b98524d",
                    "callData": "0x000000000000000000000000834f6fa204fc8f7fd861cd7d497feb7eabd8aaf70000000000000000000000005a753021ce28cbc5a7c51f732ba83873d673d8cc000000000000000000000000000000000000000000000015af1dd3733b3c85cc",
                    "decodedMethod": {
                        "callParams": [
                            {
                                "name": "sender",
                                "type": "address",
                                "value": "0x834f6fa204fc8f7fd861cd7d497feb7eabd8aaf7"
                            },
                            {
                                "name": "recipient",
                                "type": "address",
                                "value": "0x5a753021ce28cbc5a7c51f732ba83873d673d8cc"
                            },
                            {
                                "decimalAvailable": true,
                                "name": "amount",
                                "type": "uint256",
                                "value": "400,000,099,770,731,103,692"
                            }
                        ],
                        "constructorArguments": "",
                        "name": "transferFrom",
                        "returnParams": [
                            {
                                "name": "",
                                "type": "bool",
                                "value": true
                            }
                        ],
                        "signature": "transferFrom(address,address,uint256)"
                    },
                    "errorInfo": "",
                    "fromAddress": "0xcc4304a31d09258b0029ea7fe63d032f52e44efe",
                    "gasUsed": 27548,
                    "id": 3,
                    "methodDecoded": true,
                    "operation": "DELEGATECALL",
                    "output": "0x0000000000000000000000000000000000000000000000000000000000000001",
                    "revert": false,
                    "revertMessage": "",
                    "selector": "0x23b872dd",
                    "status": true,
                    "value": "0"
                },
                "nodeType": 0
            },
            "4": {
                "event": {
                    "contract": "0xcc4304a31d09258b0029ea7fe63d032f52e44efe",
                    "decodedLog": {
                        "name": "Transfer",
                        "params": [
                            {
                                "name": "from",
                                "type": "address",
                                "value": "0x834f6fa204fc8f7fd861cd7d497feb7eabd8aaf7"
                            },
                            {
                                "name": "to",
                                "type": "address",
                                "value": "0x5a753021ce28cbc5a7c51f732ba83873d673d8cc"
                            },
                            {
                                "decimalAvailable": true,
                                "name": "value",
                                "type": "uint256",
                                "value": "400,000,099,770,731,103,692"
                            }
                        ],
                        "signature": "Transfer(address,address,uint256)"
                    },
                    "id": 4,
                    "logData": "0x000000000000000000000000000000000000000000000015af1dd3733b3c85cc",
                    "logDecoded": true,
                    "operation": "EVENT",
                    "revert": false,
                    "status": true,
                    "topics": [
                        "0xddf252ad1be2c89b69c2b068fc378daa952ba7f163c4a11628f55a4df523b3ef",
                        "0x000000000000000000000000834f6fa204fc8f7fd861cd7d497feb7eabd8aaf7",
                        "0x0000000000000000000000005a753021ce28cbc5a7c51f732ba83873d673d8cc"
                    ]
                },
                "nodeType": 1
            },
            "5": {
                "event": {
                    "contract": "0xcc4304a31d09258b0029ea7fe63d032f52e44efe",
                    "decodedLog": {
                        "name": "Approval",
                        "params": [
                            {
                                "name": "owner",
                                "type": "address",
                                "value": "0x834f6fa204fc8f7fd861cd7d497feb7eabd8aaf7"
                            },
                            {
                                "name": "spender",
                                "type": "address",
                                "value": "0x5a753021ce28cbc5a7c51f732ba83873d673d8cc"
                            },
                            {
                                "decimalAvailable": true,
                                "name": "value",
                                "type": "uint256",
                                "value": "0"
                            }
                        ],
                        "signature": "Approval(address,address,uint256)"
                    },
                    "id": 5,
                    "logData": "0x0000000000000000000000000000000000000000000000000000000000000000",
                    "logDecoded": true,
                    "operation": "EVENT",
                    "revert": false,
                    "status": true,
                    "topics": [
                        "0x8c5be1e5ebec7d5bd14f71427d1e84f3dd0314c0f7b2291e5b200ac8c7c3b925",
                        "0x000000000000000000000000834f6fa204fc8f7fd861cd7d497feb7eabd8aaf7",
                        "0x0000000000000000000000005a753021ce28cbc5a7c51f732ba83873d673d8cc"
                    ]
                },
                "nodeType": 1
            },
            "6": {
                "event": {
                    "contract": "0x5a753021ce28cbc5a7c51f732ba83873d673d8cc",
                    "decodedLog": {
                        "name": "StakeDeposited",
                        "params": [
                            {
                                "name": "indexer",
                                "type": "address",
                                "value": "0x834f6fa204fc8f7fd861cd7d497feb7eabd8aaf7"
                            },
                            {
                                "name": "tokens",
                                "type": "uint256",
                                "value": "400,000,099,770,731,103,692"
                            }
                        ],
                        "signature": "StakeDeposited(address,uint256)"
                    },
                    "id": 6,
                    "logData": "0x000000000000000000000000000000000000000000000015af1dd3733b3c85cc",
                    "logDecoded": true,
                    "operation": "EVENT",
                    "revert": false,
                    "status": true,
                    "topics": [
                        "0x0a7bb2e28cc4698aac06db79cf9163bfcc20719286cf59fa7d492ceda1b8edc2",
                        "0x000000000000000000000000834f6fa204fc8f7fd861cd7d497feb7eabd8aaf7"
                    ]
                },
                "nodeType": 1
            }
        },
        "gasFlame": [
            {
                "children": [
                    {
                        "children": [
                            {
                                "children": [],
                                "depth": 0,
                                "name": "Initial Gas",
                                "value": 21300
                            },
                            {
                                "children": [
                                    {
                                        "children": [
                                            {
                                                "children": [
                                                    {
                                                        "children": [],
                                                        "depth": 3,
                                                        "name": "transferFrom",
                                                        "value": 27548
                                                    }
                                                ],
                                                "depth": 2,
                                                "name": "transferFrom",
                                                "value": 30328
                                            }
                                        ],
                                        "depth": 1,
                                        "name": "deposit",
                                        "value": 139831
                                    }
                                ],
                                "depth": 0,
                                "name": "Executed Gas",
                                "value": 142599
                            }
                        ],
                        "depth": -1,
                        "name": "Actual Gas Used",
                        "value": 129699
                    },
                    {
                        "children": [],
                        "depth": -1,
                        "name": "Refunded Gas",
                        "value": 34200
                    }
                ],
                "depth": -2,
                "name": "Total Gas",
                "value": 163899
            }
        ],
        "isConfirmed": true,
        "mainTrace": [
            {
                "children": [
                    {
                        "children": [
                            {
                                "children": [
                                    {
                                        "children": [
                                            {
                                                "children": [
                                                    {
                                                        "children": [],
                                                        "depth": 4,
                                                        "id": 4,
                                                        "order": 4
                                                    },
                                                    {
                                                        "children": [],
                                                        "depth": 4,
                                                        "id": 5,
                                                        "order": 5
                                                    }
                                                ],
                                                "depth": 3,
                                                "id": 3,
                                                "order": 3
                                            }
                                        ],
                                        "depth": 2,
                                        "id": 2,
                                        "order": 2
                                    },
                                    {
                                        "children": [],
                                        "depth": 2,
                                        "id": 6,
                                        "order": 6
                                    }
                                ],
                                "depth": 1,
                                "id": 1,
                                "order": 1
                            }
                        ],
                        "depth": 0,
                        "id": 0,
                        "order": 0
                    }
                ],
                "depth": -1,
                "id": -1,
                "order": -1
            }
        ],
        "mainTraceNodeCount": 7,
        "parentIdMap": {
            "0": -1,
            "1": 0,
            "2": 1,
            "3": 2,
            "4": 3,
            "5": 3,
            "6": 1
        },
        "tidyTrace": [
            {
                "children": [
                    {
                        "children": [
                            {
                                "children": [
                                    {
                                        "children": [
                                            {
                                                "children": [
                                                    {
                                                        "children": [],
                                                        "depth": 4,
                                                        "id": 4,
                                                        "order": 4
                                                    },
                                                    {
                                                        "children": [],
                                                        "depth": 4,
                                                        "id": 5,
                                                        "order": 5
                                                    }
                                                ],
                                                "depth": 3,
                                                "id": 3,
                                                "order": 3
                                            }
                                        ],
                                        "depth": 2,
                                        "id": 2,
                                        "order": 2
                                    },
                                    {
                                        "children": [],
                                        "depth": 2,
                                        "id": 6,
                                        "order": 6
                                    }
                                ],
                                "depth": 1,
                                "id": 1,
                                "order": 1
                            }
                        ],
                        "depth": 0,
                        "id": 0,
                        "order": 0
                    }
                ],
                "depth": -1,
                "id": -1,
                "order": -1
            }
        ],
        "tidyTraceNodeCount": 7
    },
    "state_change": {
        "stateChanges": [
            {
                "address": "0x5a753021ce28cbc5a7c51f732ba83873d673d8cc",
                "erc": "",
                "slots": [
                    {
                        "current": "0x0000000000000000000000000000000000000000000000000000de06d3c72096",
                        "key": "0xf66fee8d3cb60813d8a560d9c3ca29ef1dec38f55136a9345dfebaca4e0a245e",
                        "prev": "0x0000000000000000000000000000000000000000000000000000000000000000"
                    },
                    {
                        "current": "0x00000000000000000000000000000000000000000016baaf1848f6b06167a852",
                        "key": "0x00000000000000000000000000000000000000000000000000000000000000fe",
                        "prev": "0x00000000000000000000000000000000000000000016ba99692b233d262b2286"
                    },
                    {
                        "current": "0x000000000000000000000000000000000000000000000015af1dd3733b3c85cc",
                        "key": "0xf66fee8d3cb60813d8a560d9c3ca29ef1dec38f55136a9345dfebaca4e0a245b",
                        "prev": "0x0000000000000000000000000000000000000000000000000000000000000000"
                    },
                    {
                        "current": "0x000000000000000000000000000000000000000000000000000000005f9397ed",
                        "key": "0xf66fee8d3cb60813d8a560d9c3ca29ef1dec38f55136a9345dfebaca4e0a245c",
                        "prev": "0x0000000000000000000000000000000000000000000000000000000000000000"
                    },
                    {
                        "current": "0x0000000000000000000000000000000000000000000000000000000000000001",
                        "key": "0xf66fee8d3cb60813d8a560d9c3ca29ef1dec38f55136a9345dfebaca4e0a2460",
                        "prev": "0x0000000000000000000000000000000000000000000000000000000000000000"
                    }
                ],
                "storageVariables": [
                    {
                        "name": "_stakeDeposits",
                        "type": "mapping(address => struct SwapStakingContract.StakeDeposit)",
                        "value": {
                            "pairs": [
                                {
                                    "key": "0x834f6fa204fc8f7fd861cd7d497feb7eabd8aaf7",
                                    "value": {
                                        "fields": [
                                            {
                                                "name": "amount",
                                                "type": "uint256",
                                                "value": {
                                                    "current": "400000099770731103692",
                                                    "prev": "0",
                                                    "typeTag": 1
                                                }
                                            },
                                            {
                                                "name": "startDate",
                                                "type": "uint256",
                                                "value": {
                                                    "current": "1603508205",
                                                    "prev": "0",
                                                    "typeTag": 1
                                                }
                                            },
                                            {
                                                "name": "entryRewardPoints",
                                                "type": "uint256",
                                                "value": {
                                                    "current": "244120904212630",
                                                    "prev": "0",
                                                    "typeTag": 1
                                                }
                                            },
                                            {
                                                "name": "exists",
                                                "type": "bool",
                                                "value": {
                                                    "current": "true",
                                                    "prev": "false",
                                                    "typeTag": 1
                                                }
                                            }
                                        ],
                                        "typeTag": 3
                                    }
                                }
                            ],
                            "typeTag": 4
                        }
                    },
                    {
                        "name": "currentTotalStake",
                        "type": "uint256",
                        "value": {
                            "current": "27477958127468187667114066",
                            "prev": "27477558127368416936010374",
                            "typeTag": 1
                        }
                    }
                ]
            },
            {
                "address": "0xcc4304a31d09258b0029ea7fe63d032f52e44efe",
                "erc": "ERC-20",
                "slots": [
                    {
                        "current": "0x0000000000000000000000000000000000000000000000000000000000000000",
                        "key": "0x7a14a21ae10888779774c2bf66999205f710ee2489130769f37de8f8fbc63da8",
                        "prev": "0x000000000000000000000000000000000000000000000015af1dd3733b3c85cc"
                    },
                    {
                        "current": "0x0000000000000000000000000000000000000000000000000000000000000000",
                        "key": "0xc163f65ae82ec025537c06553bcb1228692e24b8d037935e36e5f5a5a8688936",
                        "prev": "0x000000000000000000000000000000000000000000000015af1dd3733b3c85cc"
                    },
                    {
                        "current": "0x000000000000000000000000000000000000000000183ca54a829e00f8f720af",
                        "key": "0x7b45bbe8daf265ac90313d977b1bcef0098d296663759a1944c3c0eab3c53513",
                        "prev": "0x000000000000000000000000000000000000000000183c8f9b64ca8dbdba9ae3"
                    }
                ],
                "storageVariables": [
                    {
                        "name": "_allowances",
                        "type": "mapping(address => mapping(address => uint256))",
                        "value": {
                            "pairs": [
                                {
                                    "key": "0x834f6fa204fc8f7fd861cd7d497feb7eabd8aaf7",
                                    "value": {
                                        "pairs": [
                                            {
                                                "key": "0x5a753021ce28cbc5a7c51f732ba83873d673d8cc",
                                                "value": {
                                                    "current": "0",
                                                    "prev": "400000099770731103692",
                                                    "typeTag": 1
                                                }
                                            }
                                        ],
                                        "typeTag": 4
                                    }
                                }
                            ],
                            "typeTag": 4
                        }
                    },
                    {
                        "name": "_balances",
                        "type": "mapping(address => uint256)",
                        "value": {
                            "pairs": [
                                {
                                    "key": "0x5a753021ce28cbc5a7c51f732ba83873d673d8cc",
                                    "value": {
                                        "current": "29300610741522873774973103",
                                        "prev": "29300210741423103043869411",
                                        "typeTag": 1
                                    }
                                },
                                {
                                    "key": "0x834f6fa204fc8f7fd861cd7d497feb7eabd8aaf7",
                                    "value": {
                                        "current": "0",
                                        "prev": "400000099770731103692",
                                        "typeTag": 1
                                    }
                                }
                            ],
                            "typeTag": 4
                        }
                    }
                ]
            }
        ]
    }
}