{
    "balance_change": {
        "balanceChanges": [
            {
                "account": "0xe4165e0f1150eaaf03677a4306df05c8fcf52633",
                "assets": [
                    {
                        "address": "0xeeeeeeeeeeeeeeeeeeeeeeeeeeeeeeeeeeeeeeee",
                        "amount": "0.097999999684757588",
                        "iconUrl": "https://assets.blocksec.com/image/1663669189317-3.png",
                        "isERC1155": false,
                        "isERC721": false,
                        "sign": false,
                        "value": "372.83777458257051288"
                    }
                ]
            },
            {
                "account": "0xab19d5d8590a7f337b7c2ece83e0733f55fe2dbf",
                "assets": [
                    {
                        "address": "0x62f03b52c377fea3eb71d451a95ad86c818755d1",
                        "amount": "1,203,375",
                        "iconUrl": "",
                        "isERC1155": false,
                        "isERC721": false,
                        "sign": false,
                        "value": ""
                    }
                ]
            },
            {
                "account": "0x7935083bade77e77c6b56a1f758a07114ba4a308",
                "assets": [
                    {
                        "address": "0x62f03b52c377fea3eb71d451a95ad86c818755d1",
                        "amount": "1,203,375",
                        "iconUrl": "",
                        "isERC1155": false,
                        "isERC721": false,
                        "sign": true,
                        "value": ""
                    }
                ]
            },
            {
                "account": "0x8319bf8930f85dae22722b27d1ce3314214feaa3",
                "assets": [
                    {
                        "address": "0xeeeeeeeeeeeeeeeeeeeeeeeeeeeeeeeeeeeeeeee",
                        "amount": "0.003919999987390304",
                        "iconUrl": "https://assets.blocksec.com/image/1663669189317-3.png",
                        "isERC1155": false,
                        "isERC721": false,
                        "sign": true,
                        "value": "14.913510982541927095"
                    }
                ]
            },
            {
                "account": "0xbefd9901fa1c9670801420496b321b23907e0e21",
                "assets": [
                    {
                        "address": "0xeeeeeeeeeeeeeeeeeeeeeeeeeeeeeeeeeeeeeeee",
                        "amount": "0.094079999697367284",
                        "iconUrl": "https://assets.blocksec.com/image/1663669189317-3.png",
                        "isERC1155": false,
                        "isERC721": false,
                        "sign": true,
                        "value": "357.92426362665985548"
                    }
                ]
            }
        ]
    },
    "profile": {
        "basic_info": {
            "baseFee": "7.051456846",
            "blockNumber": 20023926,
            "callData": "0x7649b9570000000000000000000000000000000000000000000000000000000000125caf",
            "debugEnable": true,
            "errorInfo": "",
            "eventCount": 4,
            "feeRecipient": "0x4838b106fce9647bdf1e7877bf73ce8b0bad5f97",
            "formatValue": "0.1",
            "gasLimit": 363471,
            "gasPrice": "9.051456846",
            "gasUsed": 293061,
            "intTxnCount": 10,
            "internalRevert": false,
            "internalRevertMessage": "",
            "isContractCreation": false,
            "isFlashloan": false,
            "maxFee": "9.680557972",
            "nonce": 3,
            "overwritedBlockNumber": -1,
            "priorityFee": "2",
            "receiver": "0xab19d5d8590a7f337b7c2ece83e0733f55fe2dbf",
            "revertMessage": "",
            "sender": "0xe4165e0f1150eaaf03677a4306df05c8fcf52633",
            "simulationEnable": true,
            "sourceTxnHash": "0x9a97855d332c0ead9f0275d3eb8baad81c475bbe1738d064bffe6f5925d32cc8",
            "status": true,
            "timestamp": "2024-06-05T06:46:23Z",
            "transactionFee": "0.002652628994745606",
            "txnHash": "0x9a97855d332c0ead9f0275d3eb8baad81c475bbe1738d064bffe6f5925d32cc8",
            "txnIndex": 17,
            "type": 2,
            "value": "100000000000000000"
        },
        "fund_flow": [
            {
                "amount": "0.1",
                "from": "0xe4165e0f1150eaaf03677a4306df05c8fcf52633",
                "id": 1,
                "isERC1155": false,
                "isERC721": false,
                "isReverted": false,
                "order": 1,
                "to": "0xab19d5d8590a7f337b7c2ece83e0733f55fe2dbf",
                "token": "0xeeeeeeeeeeeeeeeeeeeeeeeeeeeeeeeeeeeeeeee"
            },
            {
                "amount": "1,203,375",
                "from": "0xab19d5d8590a7f337b7c2ece83e0733f55fe2dbf",
                "id": 2,
                "isERC1155": false,
                "isERC721": false,
                "isReverted": false,
                "order": 2,
                "to": "0x7935083bade77e77c6b56a1f758a07114ba4a308",
                "token": "0x62f03b52c377fea3eb71d451a95ad86c818755d1"
            },
            {
                "amount": "0.094079999697367284",
                "from": "0xab19d5d8590a7f337b7c2ece83e0733f55fe2dbf",
                "id": 3,
                "isERC1155": false,
                "isERC721": false,
                "isReverted": false,
                "order": 3,
                "to": "0xbefd9901fa1c9670801420496b321b23907e0e21",
                "token": "0xeeeeeeeeeeeeeeeeeeeeeeeeeeeeeeeeeeeeeeee"
            },
            {
                "amount": "0.003919999987390304",
                "from": "0xab19d5d8590a7f337b7c2ece83e0733f55fe2dbf",
                "id": 4,
                "isERC1155": false,
                "isERC721": false,
                "isReverted": false,
                "order": 4,
                "to": "0x8319bf8930f85dae22722b27d1ce3314214feaa3",
                "token": "0xeeeeeeeeeeeeeeeeeeeeeeeeeeeeeeeeeeeeeeee"
            },
            {
                "amount": "0.002000000315242412",
                "from": "0xab19d5d8590a7f337b7c2ece83e0733f55fe2dbf",
                "id": 5,
                "isERC1155": false,
                "isERC721": false,
                "isReverted": false,
                "order": 5,
                "to": "0xe4165e0f1150eaaf03677a4306df05c8fcf52633",
                "token": "0xeeeeeeeeeeeeeeeeeeeeeeeeeeeeeeeeeeeeeeee"
            }
        ],
        "token_infos": [
            {
                "address": "0x62f03b52c377fea3eb71d451a95ad86c818755d1",
                "decimals": 18
            },
            {
                "address": "0xc02aaa39b223fe8d0a0e5c4f27ead9083c756cc2",
                "decimals": 18
            },
            {
                "address": "0xeeeeeeeeeeeeeeeeeeeeeeeeeeeeeeeeeeeeeeee",
                "decimals": 18
            }
        ]
    },
    "address_label": {
        "labels": [
            {
                "address": "0xd28fe7f34731d5cd6a02669db98505dc3442944c",
                "label": "stakingManager"
            },
            {
                "address": "0xab19d5d8590a7f337b7c2ece83e0733f55fe2dbf",
                "label": "0xab19_TransparentUpgradeableProxy"
            },
            {
                "address": "0xe75e0af1baf41b4f48daf0b31f40d7d1eab2c782",
                "label": "PresaleV2"
            },
            {
                "address": "0x0000000000000000000000000000000000000002",
                "label": "Precompiled"
            },
            {
                "address": "0xeeeeeeeeeeeeeeeeeeeeeeeeeeeeeeeeeeeeeeee",
                "label": "Ether"
            },
            {
                "address": "0xe62b71cf983019bff55bc83b48601ce8419650cc",
                "label": "AccessControlledOffchainAggregator"
            },
            {
                "address": "0x5f4ec3df9cbd43714fe2740f5e3616155c5b8419",
                "label": "EACAggregatorProxy"
            },
            {
                "address": "0x62f03b52c377fea3eb71d451a95ad86c818755d1",
                "label": "DOGEVERSE"
            },
            {
                "address": "0x7935083bade77e77c6b56a1f758a07114ba4a308",
                "label": "0x7935_TransparentUpgradeableProxy"
            },
            {
                "address": "0x0000000000000000000000000000000000000001",
                "label": "Precompiled"
            },
            {
                "address": "0x0000000000000000000000000000000000000003",
                "label": "Precompiled"
            },
            {
                "address": "0x0000000000000000000000000000000000000004",
                "label": "Precompiled"
            }
        ]
    },
    "trace": {
        "accountLabels": null,
        "dataMap": {
            "-1": {
                "invocation": {
                    "address": "0xe4165e0f1150eaaf03677a4306df05c8fcf52633",
                    "callData": "",
                    "decodedMethod": null,
                    "errorInfo": "",
                    "fromAddress": "",
                    "gasUsed": 0,
                    "id": -1,
                    "methodDecoded": false,
                    "operation": "",
                    "output": "",
                    "revert": false,
                    "revertMessage": "",
                    "selector": "",
                    "status": false,
                    "value": ""
                },
                "nodeType": 0
            },
            "0": {
                "invocation": {
                    "address": "0xab19d5d8590a7f337b7c2ece83e0733f55fe2dbf",
                    "callData": "0x0000000000000000000000000000000000000000000000000000000000125caf",
                    "decodedMethod": {
                        "callParams": [
                            {
                                "name": "amount",
                                "type": "uint256",
                                "value": "1,203,375"
                            }
                        ],
                        "constructorArguments": "",
                        "name": "buyWithEth",
                        "returnParams": [
                            {
                                "name": "",
                                "type": "bool",
                                "value": true
                            }
                        ],
                        "signature": "buyWithEth(uint256)"
                    },
                    "errorInfo": "",
                    "fromAddress": "0xe4165e0f1150eaaf03677a4306df05c8fcf52633",
                    "gasUsed": 293061,
                    "id": 0,
                    "methodDecoded": true,
                    "operation": "CALL",
                    "output": "0x0000000000000000000000000000000000000000000000000000000000000001",
                    "revert": false,
                    "revertMessage": "",
                    "selector": "0x7649b957",
                    "status": true,
                    "value": "0.1"
                },
                "nodeType": 0
            },
            "1": {
                "invocation": {
                    "address": "0xe75e0af1baf41b4f48daf0b31f40d7d1eab2c782",
                    "callData": "0x0000000000000000000000000000000000000000000000000000000000125caf",
                    "decodedMethod": {
                        "callParams": [
                            {
                                "name": "amount",
                                "type": "uint256",
                                "value": "1,203,375"
                            }
                        ],
                        "constructorArguments": "",
                        "name": "buyWithEth",
                        "returnParams": [
                            {
                                "name": "",
                                "type": "bool",
                                "value": true
                            }
                        ],
                        "signature": "buyWithEth(uint256)"
                    },
                    "errorInfo": "",
                    "fromAddress": "0xab19d5d8590a7f337b7c2ece83e0733f55fe2dbf",
                    "gasUsed": 267314,
                    "id": 1,
                    "methodDecoded": true,
                    "operation": "DELEGATECALL",
                    "output": "0x0000000000000000000000000000000000000000000000000000000000000001",
                    "revert": false,
                    "revertMessage": "",
                    "selector": "0x7649b957",
                    "status": true,
                    "value": "0.1"
                },
                "nodeType": 0
            },
            "10": {
                "event": {
                    "contract": "0xab19d5d8590a7f337b7c2ece83e0733f55fe2dbf",
                    "decodedLog": {
                        "name": "TokensBoughtAndStaked",
                        "params": [
                            {
                                "name": "user",
                                "type": "address",
                                "value": "0xe4165e0f1150eaaf03677a4306df05c8fcf52633"
                            },
                            {
                                "name": "tokensBought",
                                "type": "uint256",
                                "value": "1,203,375"
                            },
                            {
                                "name": "purchaseToken",
                                "type": "address",
                                "value": "0x0000000000000000000000000000000000000000"
                            },
                            {
                                "name": "amountPaid",
                                "type": "uint256",
                                "value": "97,999,999,684,757,588"
                            },
                            {
                                "name": "usdEq",
                                "type": "uint256",
                                "value": "373,046,250,000,000,000,000"
                            },
                            {
                                "name": "timestamp",
                                "type": "uint256",
                                "value": "1,717,569,983"
                            }
                        ],
                        "signature": "TokensBoughtAndStaked(address,uint256,address,uint256,uint256,uint256)"
                    },
                    "id": 10,
                    "logData": "0x000000000000000000000000000000000000000000000000015c2a7b0132c854000000000000000000000000000000000000000000000014390e83e42990a00000000000000000000000000000000000000000000000000000000000666009bf",
                    "logDecoded": true,
                    "operation": "EVENT",
                    "revert": false,
                    "status": true,
                    "topics": [
                        "0x6f225532a9c33b023b8e48247ad8df9d98f132ae17c769b97ff22d2b278fa73a",
                        "0x000000000000000000000000e4165e0f1150eaaf03677a4306df05c8fcf52633",
                        "0x0000000000000000000000000000000000000000000000000000000000125caf",
                        "0x0000000000000000000000000000000000000000000000000000000000000000"
                    ]
                },
                "nodeType": 1
            },
            "11": {
                "invocation": {
                    "address": "0xbefd9901fa1c9670801420496b321b23907e0e21",
                    "callData": "0x",
                    "decodedMethod": null,
                    "errorInfo": "",
                    "fromAddress": "0xab19d5d8590a7f337b7c2ece83e0733f55fe2dbf",
                    "gasUsed": 0,
                    "id": 11,
                    "methodDecoded": false,
                    "operation": "CALL",
                    "output": "",
                    "revert": false,
                    "revertMessage": "",
                    "selector": "fallback",
                    "status": true,
                    "value": "0.094079999697367284"
                },
                "nodeType": 0
            },
            "12": {
                "invocation": {
                    "address": "0x8319bf8930f85dae22722b27d1ce3314214feaa3",
                    "callData": "0x",
                    "decodedMethod": null,
                    "errorInfo": "",
                    "fromAddress": "0xab19d5d8590a7f337b7c2ece83e0733f55fe2dbf",
                    "gasUsed": 0,
                    "id": 12,
                    "methodDecoded": false,
                    "operation": "CALL",
                    "output": "",
                    "revert": false,
                    "revertMessage": "",
                    "selector": "fallback",
                    "status": true,
                    "value": "0.003919999987390303"
                },
                "nodeType": 0
            },
            "13": {
                "invocation": {
                    "address": "0x8319bf8930f85dae22722b27d1ce3314214feaa3",
                    "callData": "0x",
                    "decodedMethod": null,
                    "errorInfo": "",
                    "fromAddress": "0xab19d5d8590a7f337b7c2ece83e0733f55fe2dbf",
                    "gasUsed": 0,
                    "id": 13,
                    "methodDecoded": false,
                    "operation": "CALL",
                    "output": "",
                    "revert": false,
                    "revertMessage": "",
                    "selector": "fallback",
                    "status": true,
                    "value": "0.000000000000000001"
                },
                "nodeType": 0
            },
            "14": {
                "invocation": {
                    "address": "0xe4165e0f1150eaaf03677a4306df05c8fcf52633",
                    "callData": "0x",
                    "decodedMethod": null,
                    "errorInfo": "",
                    "fromAddress": "0xab19d5d8590a7f337b7c2ece83e0733f55fe2dbf",
                    "gasUsed": 0,
                    "id": 14,
                    "methodDecoded": false,
                    "operation": "CALL",
                    "output": "",
                    "revert": false,
                    "revertMessage": "",
                    "selector": "fallback",
                    "status": true,
                    "value": "0.002000000315242412"
                },
                "nodeType": 0
            },
            "2": {
                "invocation": {
                    "address": "0x5f4ec3df9cbd43714fe2740f5e3616155c5b8419",
                    "callData": "0x",
                    "decodedMethod": {
                        "callParams": [],
                        "constructorArguments": "",
                        "name": "latestRoundData",
                        "returnParams": [
                            {
                                "name": "roundId",
                                "type": "uint80",
                                "value": "110,680,464,442,257,327,644"
                            },
                            {
                                "name": "answer",
                                "type": "int256",
                                "value": "380,659,440,000"
                            },
                            {
                                "name": "startedAt",
                                "type": "uint256",
                                "value": "1,717,569,743"
                            },
                            {
                                "name": "updatedAt",
                                "type": "uint256",
                                "value": "1,717,569,743"
                            },
                            {
                                "name": "answeredInRound",
                                "type": "uint80",
                                "value": "110,680,464,442,257,327,644"
                            }
                        ],
                        "signature": "latestRoundData()"
                    },
                    "errorInfo": "",
                    "fromAddress": "0xab19d5d8590a7f337b7c2ece83e0733f55fe2dbf",
                    "gasUsed": 15735,
                    "id": 2,
                    "methodDecoded": true,
                    "operation": "STATICCALL",
                    "output": "0x000000000000000000000000000000000000000000000006000000000000461c00000000000000000000000000000000000000000000000000000058a112198000000000000000000000000000000000000000000000000000000000666008cf00000000000000000000000000000000000000000000000000000000666008cf000000000000000000000000000000000000000000000006000000000000461c",
                    "revert": false,
                    "revertMessage": "",
                    "selector": "0xfeaf968c",
                    "status": true,
                    "value": "0"
                },
                "nodeType": 0
            },
            "3": {
                "invocation": {
                    "address": "0xe62b71cf983019bff55bc83b48601ce8419650cc",
                    "callData": "0x",
                    "decodedMethod": {
                        "callParams": [],
                        "constructorArguments": "",
                        "name": "latestRoundData",
                        "returnParams": [
                            {
                                "name": "roundId",
                                "type": "uint80",
                                "value": "17,948"
                            },
                            {
                                "name": "answer",
                                "type": "int256",
                                "value": "380,659,440,000"
                            },
                            {
                                "name": "startedAt",
                                "type": "uint256",
                                "value": "1,717,569,743"
                            },
                            {
                                "name": "updatedAt",
                                "type": "uint256",
                                "value": "1,717,569,743"
                            },
                            {
                                "name": "answeredInRound",
                                "type": "uint80",
                                "value": "17,948"
                            }
                        ],
                        "signature": "latestRoundData()"
                    },
                    "errorInfo": "",
                    "fromAddress": "0x5f4ec3df9cbd43714fe2740f5e3616155c5b8419",
                    "gasUsed": 7502,
                    "id": 3,
                    "methodDecoded": true,
                    "operation": "STATICCALL",
                    "output": "0x000000000000000000000000000000000000000000000000000000000000461c00000000000000000000000000000000000000000000000000000058a112198000000000000000000000000000000000000000000000000000000000666008cf00000000000000000000000000000000000000000000000000000000666008cf000000000000000000000000000000000000000000000000000000000000461c",
                    "revert": false,
                    "revertMessage": "",
                    "selector": "0xfeaf968c",
                    "status": true,
                    "value": "0"
                },
                "nodeType": 0
            },
            "4": {
                "invocation": {
                    "address": "0x7935083bade77e77c6b56a1f758a07114ba4a308",
                    "callData": "0x000000000000000000000000e4165e0f1150eaaf03677a4306df05c8fcf5263300000000000000000000000000000000000000000000fed316e739ff5d5c0000",
                    "decodedMethod": {
                        "callParams": [
                            {
                                "name": "_user",
                                "type": "address",
                                "value": "0xe4165e0f1150eaaf03677a4306df05c8fcf52633"
                            },
                            {
                                "name": "_amount",
                                "type": "uint256",
                                "value": "1,203,375,000,000,000,000,000,000"
                            }
                        ],
                        "constructorArguments": "",
                        "name": "depositByPresale",
                        "returnParams": [],
                        "signature": "depositByPresale(address,uint256)"
                    },
                    "errorInfo": "",
                    "fromAddress": "0xab19d5d8590a7f337b7c2ece83e0733f55fe2dbf",
                    "gasUsed": 133905,
                    "id": 4,
                    "methodDecoded": true,
                    "operation": "CALL",
                    "output": "",
                    "revert": false,
                    "revertMessage": "",
                    "selector": "0x91c61966",
                    "status": true,
                    "value": "0"
                },
                "nodeType": 0
            },
            "5": {
                "invocation": {
                    "address": "0xd28fe7f34731d5cd6a02669db98505dc3442944c",
                    "callData": "0x000000000000000000000000e4165e0f1150eaaf03677a4306df05c8fcf5263300000000000000000000000000000000000000000000fed316e739ff5d5c0000",
                    "decodedMethod": {
                        "callParams": [
                            {
                                "name": "_user",
                                "type": "address",
                                "value": "0xe4165e0f1150eaaf03677a4306df05c8fcf52633"
                            },
                            {
                                "name": "_amount",
                                "type": "uint256",
                                "value": "1,203,375,000,000,000,000,000,000"
                            }
                        ],
                        "constructorArguments": "",
                        "name": "depositByPresale",
                        "returnParams": [],
                        "signature": "depositByPresale(address,uint256)"
                    },
                    "errorInfo": "",
                    "fromAddress": "0x7935083bade77e77c6b56a1f758a07114ba4a308",
                    "gasUsed": 126745,
                    "id": 5,
                    "methodDecoded": true,
                    "operation": "DELEGATECALL",
                    "output": "",
                    "revert": false,
                    "revertMessage": "",
                    "selector": "0x91c61966",
                    "status": true,
                    "value": "0"
                },
                "nodeType": 0
            },
            "6": {
                "event": {
                    "contract": "0x7935083bade77e77c6b56a1f758a07114ba4a308",
                    "decodedLog": {
                        "name": "Deposit",
                        "params": [
                            {
                                "name": "user",
                                "type": "address",
                                "value": "0xe4165e0f1150eaaf03677a4306df05c8fcf52633"
                            },
                            {
                                "name": "amount",
                                "type": "uint256",
                                "value": "1,203,375,000,000,000,000,000,000"
                            }
                        ],
                        "signature": "Deposit(address,uint256)"
                    },
                    "id": 6,
                    "logData": "0x00000000000000000000000000000000000000000000fed316e739ff5d5c0000",
                    "logDecoded": true,
                    "operation": "EVENT",
                    "revert": false,
                    "status": true,
                    "topics": [
                        "0xe1fffcc4923d04b559f4d29a8bfc6cda04eb5b0d3c460751c2402c5c5cc9109c",
                        "0x000000000000000000000000e4165e0f1150eaaf03677a4306df05c8fcf52633"
                    ]
                },
                "nodeType": 1
            },
            "7": {
                "invocation": {
                    "address": "0x62f03b52c377fea3eb71d451a95ad86c818755d1",
                    "callData": "0x000000000000000000000000ab19d5d8590a7f337b7c2ece83e0733f55fe2dbf0000000000000000000000007935083bade77e77c6b56a1f758a07114ba4a30800000000000000000000000000000000000000000000fed316e739ff5d5c0000",
                    "decodedMethod": {
                        "callParams": [
                            {
                                "name": "sender",
                                "type": "address",
                                "value": "0xab19d5d8590a7f337b7c2ece83e0733f55fe2dbf"
                            },
                            {
                                "name": "recipient",
                                "type": "address",
                                "value": "0x7935083bade77e77c6b56a1f758a07114ba4a308"
                            },
                            {
                                "decimalAvailable": true,
                                "name": "amount",
                                "type": "uint256",
                                "value": "1,203,375,000,000,000,000,000,000"
                            }
                        ],
                        "constructorArguments": "",
                        "name": "transferFrom",
                        "returnParams": [
                            {
                                "name": "",
                                "type": "bool",
                                "value": true
                            }
                        ],
                        "signature": "transferFrom(address,address,uint256)"
                    },
                    "errorInfo": "",
                    "fromAddress": "0x7935083bade77e77c6b56a1f758a07114ba4a308",
                    "gasUsed": 21357,
                    "id": 7,
                    "methodDecoded": true,
                    "operation": "CALL",
                    "output": "0x0000000000000000000000000000000000000000000000000000000000000001",
                    "revert": false,
                    "revertMessage": "",
                    "selector": "0x23b872dd",
                    "status": true,
                    "value": "0"
                },
                "nodeType": 0
            },
            "8": {
                "event": {
                    "contract": "0x62f03b52c377fea3eb71d451a95ad86c818755d1",
                    "decodedLog": {
                        "name": "Transfer",
                        "params": [
                            {
                                "name": "from",
                                "type": "address",
                                "value": "0xab19d5d8590a7f337b7c2ece83e0733f55fe2dbf"
                            },
                            {
                                "name": "to",
                                "type": "address",
                                "value": "0x7935083bade77e77c6b56a1f758a07114ba4a308"
                            },
                            {
                                "decimalAvailable": true,
                                "name": "value",
                                "type": "uint256",
                                "value": "1,203,375,000,000,000,000,000,000"
                            }
                        ],
                        "signature": "Transfer(address,address,uint256)"
                    },
                    "id": 8,
                    "logData": "0x00000000000000000000000000000000000000000000fed316e739ff5d5c0000",
                    "logDecoded": true,
                    "operation": "EVENT",
                    "revert": false,
                    "status": true,
                    "topics": [
                        "0xddf252ad1be2c89b69c2b068fc378daa952ba7f163c4a11628f55a4df523b3ef",
                        "0x000000000000000000000000ab19d5d8590a7f337b7c2ece83e0733f55fe2dbf",
                        "0x0000000000000000000000007935083bade77e77c6b56a1f758a07114ba4a308"
                    ]
                },
                "nodeType": 1
            },
            "9": {
                "event": {
                    "contract": "0x62f03b52c377fea3eb71d451a95ad86c818755d1",
                    "decodedLog": {
                        "name": "Approval",
                        "params": [
                            {
                                "name": "owner",
                                "type": "address",
                                "value": "0xab19d5d8590a7f337b7c2ece83e0733f55fe2dbf"
                            },
                            {
                                "name": "spender",
                                "type": "address",
                                "value": "0x7935083bade77e77c6b56a1f758a07114ba4a308"
                            },
                            {
                                "decimalAvailable": true,
                                "name": "value",
                                "type": "uint256",
                                "value": "115,792,089,237,316,195,423,570,985,008,687,907,853,269,984,665,595,819,508,918,584,007,913,129,639,935"
                            }
                        ],
                        "signature": "Approval(address,address,uint256)"
                    },
                    "id": 9,
                    "logData": "0xffffffffffffffffffffffffffffffffffffffff6f6c311b237bf303e133ffff",
                    "logDecoded": true,
                    "operation": "EVENT",
                    "revert": false,
                    "status": true,
                    "topics": [
                        "0x8c5be1e5ebec7d5bd14f71427d1e84f3dd0314c0f7b2291e5b200ac8c7c3b925",
                        "0x000000000000000000000000ab19d5d8590a7f337b7c2ece83e0733f55fe2dbf",
                        "0x0000000000000000000000007935083bade77e77c6b56a1f758a07114ba4a308"
                    ]
                },
                "nodeType": 1
            }
        },
        "gasFlame": [
            {
                "children": [
                    {
                        "children": [
                            {
                                "children": [],
                                "depth": 0,
                                "name": "Initial Gas",
                                "value": 21228
                            },
                            {
                                "children": [
                                    {
                                        "children": [
                                            {
                                                "children": [
                                                    {
                                                        "children": [],
                                                        "depth": 3,
                                                        "name": "latestRoundData",
                                                        "value": 7502
                                                    }
                                                ],
                                                "depth": 2,
                                                "name": "latestRoundData",
                                                "value": 15735
                                            },
                                            {
                                                "children": [
                                                    {
                                                        "children": [
                                                            {
                                                                "children": [],
                                                                "depth": 4,
                                                                "name": "transferFrom",
                                                                "value": 21357
                                                            }
                                                        ],
                                                        "depth": 3,
                                                        "name": "depositByPresale",
                                                        "value": 126745
                                                    }
                                                ],
                                                "depth": 2,
                                                "name": "depositByPresale",
                                                "value": 133905
                                            },
                                            {
                                                "children": [],
                                                "depth": 2,
                                                "name": "fallback",
                                                "value": 0
                                            },
                                            {
                                                "children": [],
                                                "depth": 2,
                                                "name": "fallback",
                                                "value": 0
                                            },
                                            {
                                                "children": [],
                                                "depth": 2,
                                                "name": "fallback",
                                                "value": 0
                                            },
                                            {
                                                "children": [],
                                                "depth": 2,
                                                "name": "fallback",
                                                "value": 0
                                            }
                                        ],
                                        "depth": 1,
                                        "name": "buyWithEth",
                                        "value": 267314
                                    }
                                ],
                                "depth": 0,
                                "name": "Executed Gas",
                                "value": 274633
                            }
                        ],
                        "depth": -1,
                        "name": "Actual Gas Used",
                        "value": 293061
                    },
                    {
                        "children": [],
                        "depth": -1,
                        "name": "Refunded Gas",
                        "value": 2800
                    }
                ],
                "depth": -2,
                "name": "Total Gas",
                "value": 295861
            }
        ],
        "isConfirmed": true,
        "mainTrace": [
            {
                "children": [
                    {
                        "children": [
                            {
                                "children": [
                                    {
                                        "children": [
                                            {
                                                "children": [],
                                                "depth": 3,
                                                "id": 3,
                                                "order": 3
                                            }
                                        ],
                                        "depth": 2,
                                        "id": 2,
                                        "order": 2
                                    },
                                    {
                                        "children": [
                                            {
                                                "children": [
                                                    {
                                                        "children": [],
                                                        "depth": 4,
                                                        "id": 6,
                                                        "order": 6
                                                    },
                                                    {
                                                        "children": [
                                                            {
                                                                "children": [],
                                                                "depth": 5,
                                                                "id": 8,
                                                                "order": 8
                                                            },
                                                            {
                                                                "children": [],
                                                                "depth": 5,
                                                                "id": 9,
                                                                "order": 9
                                                            }
                                                        ],
                                                        "depth": 4,
                                                        "id": 7,
                                                        "order": 7
                                                    }
                                                ],
                                                "depth": 3,
                                                "id": 5,
                                                "order": 5
                                            }
                                        ],
                                        "depth": 2,
                                        "id": 4,
                                        "order": 4
                                    },
                                    {
                                        "children": [],
                                        "depth": 2,
                                        "id": 10,
                                        "order": 10
                                    },
                                    {
                                        "children": [],
                                        "depth": 2,
                                        "id": 11,
                                        "order": 11
                                    },
                                    {
                                        "children": [],
                                        "depth": 2,
                                        "id": 12,
                                        "order": 12
                                    },
                                    {
                                        "children": [],
                                        "depth": 2,
                                        "id": 13,
                                        "order": 13
                                    },
                                    {
                                        "children": [],
                                        "depth": 2,
                                        "id": 14,
                                        "order": 14
                                    }
                                ],
                                "depth": 1,
                                "id": 1,
                                "order": 1
                            }
                        ],
                        "depth": 0,
                        "id": 0,
                        "order": 0
                    }
                ],
                "depth": -1,
                "id": -1,
                "order": -1
            }
        ],
        "mainTraceNodeCount": 15,
        "parentIdMap": {
            "0": -1,
            "1": 0,
            "10": 1,
            "11": 1,
            "12": 1,
            "13": 1,
            "14": 1,
            "2": 1,
            "3": 2,
            "4": 1,
            "5": 4,
            "6": 5,
            "7": 5,
            "8": 7,
            "9": 7
        },
        "tidyTrace": [
            {
                "children": [
                    {
                        "children": [
                            {
                                "children": [
                                    {
                                        "children": [
                                            {
                                                "children": [
                                                    {
                                                        "children": [],
                                                        "depth": 4,
                                                        "id": 6,
                                                        "order": 6
                                                    },
                                                    {
                                                        "children": [
                                                            {
                                                                "children": [],
                                                                "depth": 5,
                                                                "id": 8,
                                                                "order": 8
                                                            },
                                                            {
                                                                "children": [],
                                                                "depth": 5,
                                                                "id": 9,
                                                                "order": 9
                                                            }
                                                        ],
                                                        "depth": 4,
                                                        "id": 7,
                                                        "order": 7
                                                    }
                                                ],
                                                "depth": 3,
                                                "id": 5,
                                                "order": 5
                                            }
                                        ],
                                        "depth": 2,
                                        "id": 4,
                                        "order": 4
                                    },
                                    {
                                        "children": [],
                                        "depth": 2,
                                        "id": 10,
                                        "order": 10
                                    },
                                    {
                                        "children": [],
                                        "depth": 2,
                                        "id": 11,
                                        "order": 11
                                    },
                                    {
                                        "children": [],
                                        "depth": 2,
                                        "id": 12,
                                        "order": 12
                                    },
                                    {
                                        "children": [],
                                        "depth": 2,
                                        "id": 13,
                                        "order": 13
                                    },
                                    {
                                        "children": [],
                                        "depth": 2,
                                        "id": 14,
                                        "order": 14
                                    }
                                ],
                                "depth": 1,
                                "id": 1,
                                "order": 1
                            }
                        ],
                        "depth": 0,
                        "id": 0,
                        "order": 0
                    }
                ],
                "depth": -1,
                "id": -1,
                "order": -1
            }
        ],
        "tidyTraceNodeCount": 13
    },
    "state_change": {
        "stateChanges": [
            {
                "address": "0x62f03b52c377fea3eb71d451a95ad86c818755d1",
                "erc": "ERC-20",
                "slots": [
                    {
                        "current": "0x0000000000000000000000000000000000000000b28a40c990ee0ace81340000",
                        "key": "0x61db6e64248113bc853085aa546d81351fdeeb126ff3d37b2f7baa08268ce1e4",
                        "prev": "0x0000000000000000000000000000000000000000b28b3f9ca7d544cdde900000"
                    },
                    {
                        "current": "0x0000000000000000000000000000000000000000d1336ba158ce11be3ecc0000",
                        "key": "0xdd4f04d523ac7bf7aa68b9f4739c25306f45c0571e71d227caf55e6306e1d601",
                        "prev": "0x0000000000000000000000000000000000000000d1326cce41e6d7bee1700000"
                    },
                    {
                        "current": "0xffffffffffffffffffffffffffffffffffffffff6f6c311b237bf303e133ffff",
                        "key": "0xa274eea5194b7c07ba325d10d9413c6b86aa1464510e79d71508abe5346873d4",
                        "prev": "0xffffffffffffffffffffffffffffffffffffffff6f6d2fee3a632d033e8fffff"
                    }
                ],
                "storageVariables": [
                    {
                        "name": "_balances",
                        "type": "mapping(address => uint256)",
                        "value": {
                            "pairs": [
                                {
                                    "key": "0x7935083bade77e77c6b56a1f758a07114ba4a308",
                                    "value": {
                                        "current": "64744530539000000000000000000",
                                        "prev": "64743327164000000000000000000",
                                        "typeTag": 1
                                    }
                                },
                                {
                                    "key": "0xab19d5d8590a7f337b7c2ece83e0733f55fe2dbf",
                                    "value": {
                                        "current": "55255469461000000000000000000",
                                        "prev": "55256672836000000000000000000",
                                        "typeTag": 1
                                    }
                                }
                            ],
                            "typeTag": 4
                        }
                    },
                    {
                        "name": "_allowances",
                        "type": "mapping(address => mapping(address => uint256))",
                        "value": {
                            "pairs": [
                                {
                                    "key": "0xab19d5d8590a7f337b7c2ece83e0733f55fe2dbf",
                                    "value": {
                                        "pairs": [
                                            {
                                                "key": "0x7935083bade77e77c6b56a1f758a07114ba4a308",
                                                "value": {
                                                    "current": "115792089237316195423570985008687907853269984665595819508918584007913129639935",
                                                    "prev": "115792089237316195423570985008687907853269984665595820712293584007913129639935",
                                                    "typeTag": 1
                                                }
                                            }
                                        ],
                                        "typeTag": 4
                                    }
                                }
                            ],
                            "typeTag": 4
                        }
                    }
                ]
            },
            {
                "address": "0x7935083bade77e77c6b56a1f758a07114ba4a308",
                "erc": "",
                "slots": [
                    {
                        "current": "0x000000000000000000000000000000000000000000000000000002f8efd5cf69",
                        "key": "0x000000000000000000000000000000000000000000000000000000000000006a",
                        "prev": "0x000000000000000000000000000000000000000000000000000002f8efd3bbe2"
                    },
                    {
                        "current": "0x0000000000000000000000000000000000000000000000000000000001318a76",
                        "key": "0x0000000000000000000000000000000000000000000000000000000000000069",
                        "prev": "0x0000000000000000000000000000000000000000000000000000000001318a75"
                    },
                    {
                        "current": "0x00000000000000000000000000000000000000000000fed316e739ff5d5c0000",
                        "key": "0x0713c9a1e81f6dd2ffe1fd8c46aa51d4e7efe226cc0be0f56635fc9ab3328849",
                        "prev": "0x0000000000000000000000000000000000000000000000000000000000000000"
                    },
                    {
                        "current": "0x0000000000000000000000000000000000000000000340d13f978e0ed7057fc0",
                        "key": "0x0713c9a1e81f6dd2ffe1fd8c46aa51d4e7efe226cc0be0f56635fc9ab332884d",
                        "prev": "0x0000000000000000000000000000000000000000000000000000000000000000"
                    },
                    {
                        "current": "0x00000000000000000000000000000000000000000000000000000000666009bf",
                        "key": "0x0713c9a1e81f6dd2ffe1fd8c46aa51d4e7efe226cc0be0f56635fc9ab332884a",
                        "prev": "0x0000000000000000000000000000000000000000000000000000000000000000"
                    },
                    {
                        "current": "0x00000000000000000000000000000000000000009093cee4dc840cfc1ecc0000",
                        "key": "0x0000000000000000000000000000000000000000000000000000000000000068",
                        "prev": "0x00000000000000000000000000000000000000009092d011c59cd2fcc1700000"
                    },
                    {
                        "current": "0x00000000000000000000000000000000000000009093cee4dc840cfc1ecc0000",
                        "key": "0x0000000000000000000000000000000000000000000000000000000000000067",
                        "prev": "0x00000000000000000000000000000000000000009092d011c59cd2fcc1700000"
                    }
                ],
                "storageVariables": [
                    {
                        "name": "poolStakers",
                        "type": "mapping(address => struct stakingManager.PoolStaker)",
                        "value": {
                            "pairs": [
                                {
                                    "key": "0xe4165e0f1150eaaf03677a4306df05c8fcf52633",
                                    "value": {
                                        "fields": [
                                            {
                                                "name": "amount",
                                                "type": "uint256",
                                                "value": {
                                                    "current": "1203375000000000000000000",
                                                    "prev": "0",
                                                    "typeTag": 1
                                                }
                                            },
                                            {
                                                "name": "stakedTime",
                                                "type": "uint256",
                                                "value": {
                                                    "current": "1717569983",
                                                    "prev": "0",
                                                    "typeTag": 1
                                                }
                                            },
                                            {
                                                "name": "rewardDebt",
                                                "type": "uint256",
                                                "value": {
                                                    "current": "3932868865546290375000000",
                                                    "prev": "0",
                                                    "typeTag": 1
                                                }
                                            }
                                        ],
                                        "typeTag": 3
                                    }
                                }
                            ],
                            "typeTag": 4
                        }
                    },
                    {
                        "name": "tokensStaked",
                        "type": "uint256",
                        "value": {
                            "current": "44744530539000000000000000000",
                            "prev": "44743327164000000000000000000",
                            "typeTag": 1
                        }
                    },
                    {
                        "name": "tokensStakedByPresale",
                        "type": "uint256",
                        "value": {
                            "current": "44744530539000000000000000000",
                            "prev": "44743327164000000000000000000",
                            "typeTag": 1
                        }
                    },
                    {
                        "name": "accumulatedRewardsPerShare",
                        "type": "uint256",
                        "value": {
                            "current": "3268198911849",
                            "prev": "3268198775778",
                            "typeTag": 1
                        }
                    },
                    {
                        "name": "lastRewardedBlock",
                        "type": "uint256",
                        "value": {
                            "current": "20023926",
                            "prev": "20023925",
                            "typeTag": 1
                        }
                    }
                ]
            },
            {
                "address": "0xab19d5d8590a7f337b7c2ece83e0733f55fe2dbf",
                "erc": "",
                "slots": [
                    {
                        "current": "0x000000000000000000000000000000000000000000000000000000170668060d",
                        "key": "0x00000000000000000000000000000000000000000000000000000000000000c9",
                        "prev": "0x000000000000000000000000000000000000000000000000000000170655a95e"
                    },
                    {
                        "current": "0x0000000000000000000000000000000000000000000000000000001cf46fc564",
                        "key": "0x00000000000000000000000000000000000000000000000000000000000000d1",
                        "prev": "0x0000000000000000000000000000000000000000000000000000001cf45d68b5"
                    },
                    {
                        "current": "0x00000000000000000000000000000000000000000018f3e4ee78c3e5dc41d000",
                        "key": "0x00000000000000000000000000000000000000000000000000000000000000d2",
                        "prev": "0x00000000000000000000000000000000000000000018f3d0b56a4001b2b13000"
                    },
                    {
                        "current": "0x0000000000000000000000000000000000000000000000000000000863171662",
                        "key": "0x00000000000000000000000000000000000000000000000000000000000000d4",
                        "prev": "0x000000000000000000000000000000000000000000000000000000086304b9b3"
                    }
                ],
                "storageVariables": [
                    {
                        "name": "totalTokensSold",
                        "type": "uint256",
                        "value": {
                            "current": "98891728397",
                            "prev": "98890525022",
                            "typeTag": 1
                        }
                    },
                    {
                        "name": "checkPoint",
                        "type": "uint256",
                        "value": {
                            "current": "124360050020",
                            "prev": "124358846645",
                            "typeTag": 1
                        }
                    },
                    {
                        "name": "usdRaised",
                        "type": "uint256",
                        "value": {
                            "current": "30165977767437000000000000",
                            "prev": "30165604721187000000000000",
                            "typeTag": 1
                        }
                    },
                    {
                        "name": "totalBoughtAndStaked",
                        "type": "uint256",
                        "value": {
                            "current": "36022195810",
                            "prev": "36020992435",
                            "typeTag": 1
                        }
                    }
                ]
            }
        ]
    }
}