{
    "balance_change": {
        "balanceChanges": [
            {
                "account": "0x0000000000000000000000000000000000000000",
                "assets": [
                    {
                        "address": "0xa417ce5b28a7140510f7f72d54154c5e88aa8df8",
                        "amount": "1",
                        "iconUrl": "",
                        "isERC1155": false,
                        "isERC721": true,
                        "sign": false,
                        "tokenID": "2467",
                        "value": ""
                    },
                    {
                        "address": "0xa417ce5b28a7140510f7f72d54154c5e88aa8df8",
                        "amount": "1",
                        "iconUrl": "",
                        "isERC1155": false,
                        "isERC721": true,
                        "sign": false,
                        "tokenID": "2469",
                        "value": ""
                    },
                    {
                        "address": "0xa417ce5b28a7140510f7f72d54154c5e88aa8df8",
                        "amount": "1",
                        "iconUrl": "",
                        "isERC1155": false,
                        "isERC721": true,
                        "sign": false,
                        "tokenID": "2463",
                        "value": ""
                    },
                    {
                        "address": "0xa417ce5b28a7140510f7f72d54154c5e88aa8df8",
                        "amount": "1",
                        "iconUrl": "",
                        "isERC1155": false,
                        "isERC721": true,
                        "sign": false,
                        "tokenID": "2466",
                        "value": ""
                    },
                    {
                        "address": "0xa417ce5b28a7140510f7f72d54154c5e88aa8df8",
                        "amount": "1",
                        "iconUrl": "",
                        "isERC1155": false,
                        "isERC721": true,
                        "sign": false,
                        "tokenID": "2464",
                        "value": ""
                    },
                    {
                        "address": "0xa417ce5b28a7140510f7f72d54154c5e88aa8df8",
                        "amount": "1",
                        "iconUrl": "",
                        "isERC1155": false,
                        "isERC721": true,
                        "sign": false,
                        "tokenID": "2465",
                        "value": ""
                    },
                    {
                        "address": "0xa417ce5b28a7140510f7f72d54154c5e88aa8df8",
                        "amount": "1",
                        "iconUrl": "",
                        "isERC1155": false,
                        "isERC721": true,
                        "sign": false,
                        "tokenID": "2468",
                        "value": ""
                    },
                    {
                        "address": "0xa417ce5b28a7140510f7f72d54154c5e88aa8df8",
                        "amount": "1",
                        "iconUrl": "",
                        "isERC1155": false,
                        "isERC721": true,
                        "sign": false,
                        "tokenID": "2470",
                        "value": ""
                    },
                    {
                        "address": "0xa417ce5b28a7140510f7f72d54154c5e88aa8df8",
                        "amount": "1",
                        "iconUrl": "",
                        "isERC1155": false,
                        "isERC721": true,
                        "sign": false,
                        "tokenID": "2461",
                        "value": ""
                    },
                    {
                        "address": "0xa417ce5b28a7140510f7f72d54154c5e88aa8df8",
                        "amount": "1",
                        "iconUrl": "",
                        "isERC1155": false,
                        "isERC721": true,
                        "sign": false,
                        "tokenID": "2462",
                        "value": ""
                    }
                ]
            },
            {
                "account": "0x285d7fe8d39a46bf7a574787b9883e1ed487d333",
                "assets": [
                    {
                        "address": "0xa417ce5b28a7140510f7f72d54154c5e88aa8df8",
                        "amount": "1",
                        "iconUrl": "",
                        "isERC1155": false,
                        "isERC721": true,
                        "sign": true,
                        "tokenID": "2462",
                        "value": ""
                    },
                    {
                        "address": "0xa417ce5b28a7140510f7f72d54154c5e88aa8df8",
                        "amount": "1",
                        "iconUrl": "",
                        "isERC1155": false,
                        "isERC721": true,
                        "sign": true,
                        "tokenID": "2467",
                        "value": ""
                    },
                    {
                        "address": "0xa417ce5b28a7140510f7f72d54154c5e88aa8df8",
                        "amount": "1",
                        "iconUrl": "",
                        "isERC1155": false,
                        "isERC721": true,
                        "sign": true,
                        "tokenID": "2465",
                        "value": ""
                    },
                    {
                        "address": "0xa417ce5b28a7140510f7f72d54154c5e88aa8df8",
                        "amount": "1",
                        "iconUrl": "",
                        "isERC1155": false,
                        "isERC721": true,
                        "sign": true,
                        "tokenID": "2466",
                        "value": ""
                    },
                    {
                        "address": "0xa417ce5b28a7140510f7f72d54154c5e88aa8df8",
                        "amount": "1",
                        "iconUrl": "",
                        "isERC1155": false,
                        "isERC721": true,
                        "sign": true,
                        "tokenID": "2468",
                        "value": ""
                    },
                    {
                        "address": "0xa417ce5b28a7140510f7f72d54154c5e88aa8df8",
                        "amount": "1",
                        "iconUrl": "",
                        "isERC1155": false,
                        "isERC721": true,
                        "sign": true,
                        "tokenID": "2469",
                        "value": ""
                    },
                    {
                        "address": "0xa417ce5b28a7140510f7f72d54154c5e88aa8df8",
                        "amount": "1",
                        "iconUrl": "",
                        "isERC1155": false,
                        "isERC721": true,
                        "sign": true,
                        "tokenID": "2470",
                        "value": ""
                    },
                    {
                        "address": "0xa417ce5b28a7140510f7f72d54154c5e88aa8df8",
                        "amount": "1",
                        "iconUrl": "",
                        "isERC1155": false,
                        "isERC721": true,
                        "sign": true,
                        "tokenID": "2461",
                        "value": ""
                    },
                    {
                        "address": "0xa417ce5b28a7140510f7f72d54154c5e88aa8df8",
                        "amount": "1",
                        "iconUrl": "",
                        "isERC1155": false,
                        "isERC721": true,
                        "sign": true,
                        "tokenID": "2463",
                        "value": ""
                    },
                    {
                        "address": "0xa417ce5b28a7140510f7f72d54154c5e88aa8df8",
                        "amount": "1",
                        "iconUrl": "",
                        "isERC1155": false,
                        "isERC721": true,
                        "sign": true,
                        "tokenID": "2464",
                        "value": ""
                    }
                ]
            }
        ]
    },
    "profile": {
        "basic_info": {
            "baseFee": "14.99403214",
            "blockNumber": 14994702,
            "callData": "0xd96a094a000000000000000000000000000000000000000000000000000000000000000a",
            "debugEnable": true,
            "errorInfo": "",
            "eventCount": 20,
            "feeRecipient": "0x1ad91ee08f21be3de0ba2ba6918e714da6b45836",
            "formatValue": "0",
            "gasLimit": 630405,
            "gasPrice": "16.99403214",
            "gasUsed": 420270,
            "intTxnCount": 0,
            "internalRevert": false,
            "internalRevertMessage": "",
            "isContractCreation": false,
            "isFlashloan": false,
            "maxFee": "21",
            "nonce": 2550,
            "overwritedBlockNumber": -1,
            "priorityFee": "2",
            "receiver": "0xa417ce5b28a7140510f7f72d54154c5e88aa8df8",
            "revertMessage": "",
            "sender": "0x285d7fe8d39a46bf7a574787b9883e1ed487d333",
            "simulationEnable": true,
            "sourceTxnHash": "0x9a7777ef0c700cde30372ddfd344e78c628f35fdd2ab407fa0c325b5f816f0ad",
            "status": true,
            "timestamp": "2022-06-20T04:46:20Z",
            "transactionFee": "0.0071420818874778",
            "txnHash": "0x9a7777ef0c700cde30372ddfd344e78c628f35fdd2ab407fa0c325b5f816f0ad",
            "txnIndex": 122,
            "type": 2,
            "value": "0"
        },
        "fund_flow": [
            {
                "amount": "1",
                "from": "0x0000000000000000000000000000000000000000",
                "id": 1,
                "isERC1155": false,
                "isERC721": true,
                "isReverted": false,
                "order": 1,
                "to": "0x285d7fe8d39a46bf7a574787b9883e1ed487d333",
                "token": "0xa417ce5b28a7140510f7f72d54154c5e88aa8df8",
                "tokenID": "2461"
            },
            {
                "amount": "1",
                "from": "0x0000000000000000000000000000000000000000",
                "id": 2,
                "isERC1155": false,
                "isERC721": true,
                "isReverted": false,
                "order": 2,
                "to": "0x285d7fe8d39a46bf7a574787b9883e1ed487d333",
                "token": "0xa417ce5b28a7140510f7f72d54154c5e88aa8df8",
                "tokenID": "2462"
            },
            {
                "amount": "1",
                "from": "0x0000000000000000000000000000000000000000",
                "id": 3,
                "isERC1155": false,
                "isERC721": true,
                "isReverted": false,
                "order": 3,
                "to": "0x285d7fe8d39a46bf7a574787b9883e1ed487d333",
                "token": "0xa417ce5b28a7140510f7f72d54154c5e88aa8df8",
                "tokenID": "2463"
            },
            {
                "amount": "1",
                "from": "0x0000000000000000000000000000000000000000",
                "id": 4,
                "isERC1155": false,
                "isERC721": true,
                "isReverted": false,
                "order": 4,
                "to": "0x285d7fe8d39a46bf7a574787b9883e1ed487d333",
                "token": "0xa417ce5b28a7140510f7f72d54154c5e88aa8df8",
                "tokenID": "2464"
            },
            {
                "amount": "1",
                "from": "0x0000000000000000000000000000000000000000",
                "id": 5,
                "isERC1155": false,
                "isERC721": true,
                "isReverted": false,
                "order": 5,
                "to": "0x285d7fe8d39a46bf7a574787b9883e1ed487d333",
                "token": "0xa417ce5b28a7140510f7f72d54154c5e88aa8df8",
                "tokenID": "2465"
            },
            {
                "amount": "1",
                "from": "0x0000000000000000000000000000000000000000",
                "id": 6,
                "isERC1155": false,
                "isERC721": true,
                "isReverted": false,
                "order": 6,
                "to": "0x285d7fe8d39a46bf7a574787b9883e1ed487d333",
                "token": "0xa417ce5b28a7140510f7f72d54154c5e88aa8df8",
                "tokenID": "2466"
            },
            {
                "amount": "1",
                "from": "0x0000000000000000000000000000000000000000",
                "id": 7,
                "isERC1155": false,
                "isERC721": true,
                "isReverted": false,
                "order": 7,
                "to": "0x285d7fe8d39a46bf7a574787b9883e1ed487d333",
                "token": "0xa417ce5b28a7140510f7f72d54154c5e88aa8df8",
                "tokenID": "2467"
            },
            {
                "amount": "1",
                "from": "0x0000000000000000000000000000000000000000",
                "id": 8,
                "isERC1155": false,
                "isERC721": true,
                "isReverted": false,
                "order": 8,
                "to": "0x285d7fe8d39a46bf7a574787b9883e1ed487d333",
                "token": "0xa417ce5b28a7140510f7f72d54154c5e88aa8df8",
                "tokenID": "2468"
            },
            {
                "amount": "1",
                "from": "0x0000000000000000000000000000000000000000",
                "id": 9,
                "isERC1155": false,
                "isERC721": true,
                "isReverted": false,
                "order": 9,
                "to": "0x285d7fe8d39a46bf7a574787b9883e1ed487d333",
                "token": "0xa417ce5b28a7140510f7f72d54154c5e88aa8df8",
                "tokenID": "2469"
            },
            {
                "amount": "1",
                "from": "0x0000000000000000000000000000000000000000",
                "id": 10,
                "isERC1155": false,
                "isERC721": true,
                "isReverted": false,
                "order": 10,
                "to": "0x285d7fe8d39a46bf7a574787b9883e1ed487d333",
                "token": "0xa417ce5b28a7140510f7f72d54154c5e88aa8df8",
                "tokenID": "2470"
            }
        ],
        "token_infos": [
            {
                "address": "0xc02aaa39b223fe8d0a0e5c4f27ead9083c756cc2",
                "decimals": 18
            },
            {
                "address": "0xeeeeeeeeeeeeeeeeeeeeeeeeeeeeeeeeeeeeeeee",
                "decimals": 18
            }
        ]
    },
    "address_label": {
        "labels": [
            {
                "address": "0xeeeeeeeeeeeeeeeeeeeeeeeeeeeeeeeeeeeeeeee",
                "label": "Ether"
            },
            {
                "address": "0xa417ce5b28a7140510f7f72d54154c5e88aa8df8",
                "label": "Cyborg Ape Dynasty (CAD)"
            },
            {
                "address": "0x0000000000000000000000000000000000000001",
                "label": "Precompiled"
            },
            {
                "address": "0x0000000000000000000000000000000000000002",
                "label": "Precompiled"
            },
            {
                "address": "0x0000000000000000000000000000000000000003",
                "label": "Precompiled"
            },
            {
                "address": "0x0000000000000000000000000000000000000004",
                "label": "Precompiled"
            }
        ]
    },
    "trace": {
        "accountLabels": null,
        "dataMap": {
            "-1": {
                "invocation": {
                    "address": "0x285d7fe8d39a46bf7a574787b9883e1ed487d333",
                    "callData": "",
                    "decodedMethod": null,
                    "errorInfo": "",
                    "fromAddress": "",
                    "gasUsed": 0,
                    "id": -1,
                    "methodDecoded": false,
                    "operation": "",
                    "output": "",
                    "revert": false,
                    "revertMessage": "",
                    "selector": "",
                    "status": false,
                    "value": ""
                },
                "nodeType": 0
            },
            "0": {
                "invocation": {
                    "address": "0xa417ce5b28a7140510f7f72d54154c5e88aa8df8",
                    "callData": "0x000000000000000000000000000000000000000000000000000000000000000a",
                    "decodedMethod": {
                        "callParams": [
                            {
                                "name": "_amount",
                                "type": "uint256",
                                "value": "10"
                            }
                        ],
                        "constructorArguments": "",
                        "name": "buy",
                        "returnParams": [],
                        "signature": "buy(uint256)"
                    },
                    "errorInfo": "",
                    "fromAddress": "0x285d7fe8d39a46bf7a574787b9883e1ed487d333",
                    "gasUsed": 420270,
                    "id": 0,
                    "methodDecoded": true,
                    "operation": "CALL",
                    "output": "",
                    "revert": false,
                    "revertMessage": "",
                    "selector": "0xd96a094a",
                    "status": true,
                    "value": "0"
                },
                "nodeType": 0
            },
            "1": {
                "event": {
                    "contract": "0xa417ce5b28a7140510f7f72d54154c5e88aa8df8",
                    "decodedLog": {
                        "name": "Transfer",
                        "params": [
                            {
                                "name": "from",
                                "type": "address",
                                "value": "0x0000000000000000000000000000000000000000"
                            },
                            {
                                "name": "to",
                                "type": "address",
                                "value": "0x285d7fe8d39a46bf7a574787b9883e1ed487d333"
                            },
                            {
                                "decimalAvailable": true,
                                "name": "tokenId",
                                "type": "uint256",
                                "value": "2,461"
                            }
                        ],
                        "signature": "Transfer(address,address,uint256)"
                    },
                    "id": 1,
                    "logData": "0x",
                    "logDecoded": true,
                    "operation": "EVENT",
                    "revert": false,
                    "status": true,
                    "topics": [
                        "0xddf252ad1be2c89b69c2b068fc378daa952ba7f163c4a11628f55a4df523b3ef",
                        "0x0000000000000000000000000000000000000000000000000000000000000000",
                        "0x000000000000000000000000285d7fe8d39a46bf7a574787b9883e1ed487d333",
                        "0x000000000000000000000000000000000000000000000000000000000000099d"
                    ]
                },
                "nodeType": 1
            },
            "10": {
                "event": {
                    "contract": "0xa417ce5b28a7140510f7f72d54154c5e88aa8df8",
                    "decodedLog": {
                        "name": "Mint",
                        "params": [
                            {
                                "name": "_user",
                                "type": "address",
                                "value": "0x285d7fe8d39a46bf7a574787b9883e1ed487d333"
                            },
                            {
                                "name": "_tokenId",
                                "type": "uint256",
                                "value": "2,465"
                            },
                            {
                                "name": "_tokenURI",
                                "type": "string",
                                "value": "/2465"
                            }
                        ],
                        "signature": "Mint(address,uint256,string)"
                    },
                    "id": 10,
                    "logData": "0x000000000000000000000000000000000000000000000000000000000000002000000000000000000000000000000000000000000000000000000000000000052f32343635000000000000000000000000000000000000000000000000000000",
                    "logDecoded": true,
                    "operation": "EVENT",
                    "revert": false,
                    "status": true,
                    "topics": [
                        "0x85a66b9141978db9980f7e0ce3b468cebf4f7999f32b23091c5c03e798b1ba7a",
                        "0x000000000000000000000000285d7fe8d39a46bf7a574787b9883e1ed487d333",
                        "0x00000000000000000000000000000000000000000000000000000000000009a1"
                    ]
                },
                "nodeType": 1
            },
            "11": {
                "event": {
                    "contract": "0xa417ce5b28a7140510f7f72d54154c5e88aa8df8",
                    "decodedLog": {
                        "name": "Transfer",
                        "params": [
                            {
                                "name": "from",
                                "type": "address",
                                "value": "0x0000000000000000000000000000000000000000"
                            },
                            {
                                "name": "to",
                                "type": "address",
                                "value": "0x285d7fe8d39a46bf7a574787b9883e1ed487d333"
                            },
                            {
                                "decimalAvailable": true,
                                "name": "tokenId",
                                "type": "uint256",
                                "value": "2,466"
                            }
                        ],
                        "signature": "Transfer(address,address,uint256)"
                    },
                    "id": 11,
                    "logData": "0x",
                    "logDecoded": true,
                    "operation": "EVENT",
                    "revert": false,
                    "status": true,
                    "topics": [
                        "0xddf252ad1be2c89b69c2b068fc378daa952ba7f163c4a11628f55a4df523b3ef",
                        "0x0000000000000000000000000000000000000000000000000000000000000000",
                        "0x000000000000000000000000285d7fe8d39a46bf7a574787b9883e1ed487d333",
                        "0x00000000000000000000000000000000000000000000000000000000000009a2"
                    ]
                },
                "nodeType": 1
            },
            "12": {
                "event": {
                    "contract": "0xa417ce5b28a7140510f7f72d54154c5e88aa8df8",
                    "decodedLog": {
                        "name": "Mint",
                        "params": [
                            {
                                "name": "_user",
                                "type": "address",
                                "value": "0x285d7fe8d39a46bf7a574787b9883e1ed487d333"
                            },
                            {
                                "name": "_tokenId",
                                "type": "uint256",
                                "value": "2,466"
                            },
                            {
                                "name": "_tokenURI",
                                "type": "string",
                                "value": "/2466"
                            }
                        ],
                        "signature": "Mint(address,uint256,string)"
                    },
                    "id": 12,
                    "logData": "0x000000000000000000000000000000000000000000000000000000000000002000000000000000000000000000000000000000000000000000000000000000052f32343636000000000000000000000000000000000000000000000000000000",
                    "logDecoded": true,
                    "operation": "EVENT",
                    "revert": false,
                    "status": true,
                    "topics": [
                        "0x85a66b9141978db9980f7e0ce3b468cebf4f7999f32b23091c5c03e798b1ba7a",
                        "0x000000000000000000000000285d7fe8d39a46bf7a574787b9883e1ed487d333",
                        "0x00000000000000000000000000000000000000000000000000000000000009a2"
                    ]
                },
                "nodeType": 1
            },
            "13": {
                "event": {
                    "contract": "0xa417ce5b28a7140510f7f72d54154c5e88aa8df8",
                    "decodedLog": {
                        "name": "Transfer",
                        "params": [
                            {
                                "name": "from",
                                "type": "address",
                                "value": "0x0000000000000000000000000000000000000000"
                            },
                            {
                                "name": "to",
                                "type": "address",
                                "value": "0x285d7fe8d39a46bf7a574787b9883e1ed487d333"
                            },
                            {
                                "decimalAvailable": true,
                                "name": "tokenId",
                                "type": "uint256",
                                "value": "2,467"
                            }
                        ],
                        "signature": "Transfer(address,address,uint256)"
                    },
                    "id": 13,
                    "logData": "0x",
                    "logDecoded": true,
                    "operation": "EVENT",
                    "revert": false,
                    "status": true,
                    "topics": [
                        "0xddf252ad1be2c89b69c2b068fc378daa952ba7f163c4a11628f55a4df523b3ef",
                        "0x0000000000000000000000000000000000000000000000000000000000000000",
                        "0x000000000000000000000000285d7fe8d39a46bf7a574787b9883e1ed487d333",
                        "0x00000000000000000000000000000000000000000000000000000000000009a3"
                    ]
                },
                "nodeType": 1
            },
            "14": {
                "event": {
                    "contract": "0xa417ce5b28a7140510f7f72d54154c5e88aa8df8",
                    "decodedLog": {
                        "name": "Mint",
                        "params": [
                            {
                                "name": "_user",
                                "type": "address",
                                "value": "0x285d7fe8d39a46bf7a574787b9883e1ed487d333"
                            },
                            {
                                "name": "_tokenId",
                                "type": "uint256",
                                "value": "2,467"
                            },
                            {
                                "name": "_tokenURI",
                                "type": "string",
                                "value": "/2467"
                            }
                        ],
                        "signature": "Mint(address,uint256,string)"
                    },
                    "id": 14,
                    "logData": "0x000000000000000000000000000000000000000000000000000000000000002000000000000000000000000000000000000000000000000000000000000000052f32343637000000000000000000000000000000000000000000000000000000",
                    "logDecoded": true,
                    "operation": "EVENT",
                    "revert": false,
                    "status": true,
                    "topics": [
                        "0x85a66b9141978db9980f7e0ce3b468cebf4f7999f32b23091c5c03e798b1ba7a",
                        "0x000000000000000000000000285d7fe8d39a46bf7a574787b9883e1ed487d333",
                        "0x00000000000000000000000000000000000000000000000000000000000009a3"
                    ]
                },
                "nodeType": 1
            },
            "15": {
                "event": {
                    "contract": "0xa417ce5b28a7140510f7f72d54154c5e88aa8df8",
                    "decodedLog": {
                        "name": "Transfer",
                        "params": [
                            {
                                "name": "from",
                                "type": "address",
                                "value": "0x0000000000000000000000000000000000000000"
                            },
                            {
                                "name": "to",
                                "type": "address",
                                "value": "0x285d7fe8d39a46bf7a574787b9883e1ed487d333"
                            },
                            {
                                "decimalAvailable": true,
                                "name": "tokenId",
                                "type": "uint256",
                                "value": "2,468"
                            }
                        ],
                        "signature": "Transfer(address,address,uint256)"
                    },
                    "id": 15,
                    "logData": "0x",
                    "logDecoded": true,
                    "operation": "EVENT",
                    "revert": false,
                    "status": true,
                    "topics": [
                        "0xddf252ad1be2c89b69c2b068fc378daa952ba7f163c4a11628f55a4df523b3ef",
                        "0x0000000000000000000000000000000000000000000000000000000000000000",
                        "0x000000000000000000000000285d7fe8d39a46bf7a574787b9883e1ed487d333",
                        "0x00000000000000000000000000000000000000000000000000000000000009a4"
                    ]
                },
                "nodeType": 1
            },
            "16": {
                "event": {
                    "contract": "0xa417ce5b28a7140510f7f72d54154c5e88aa8df8",
                    "decodedLog": {
                        "name": "Mint",
                        "params": [
                            {
                                "name": "_user",
                                "type": "address",
                                "value": "0x285d7fe8d39a46bf7a574787b9883e1ed487d333"
                            },
                            {
                                "name": "_tokenId",
                                "type": "uint256",
                                "value": "2,468"
                            },
                            {
                                "name": "_tokenURI",
                                "type": "string",
                                "value": "/2468"
                            }
                        ],
                        "signature": "Mint(address,uint256,string)"
                    },
                    "id": 16,
                    "logData": "0x000000000000000000000000000000000000000000000000000000000000002000000000000000000000000000000000000000000000000000000000000000052f32343638000000000000000000000000000000000000000000000000000000",
                    "logDecoded": true,
                    "operation": "EVENT",
                    "revert": false,
                    "status": true,
                    "topics": [
                        "0x85a66b9141978db9980f7e0ce3b468cebf4f7999f32b23091c5c03e798b1ba7a",
                        "0x000000000000000000000000285d7fe8d39a46bf7a574787b9883e1ed487d333",
                        "0x00000000000000000000000000000000000000000000000000000000000009a4"
                    ]
                },
                "nodeType": 1
            },
            "17": {
                "event": {
                    "contract": "0xa417ce5b28a7140510f7f72d54154c5e88aa8df8",
                    "decodedLog": {
                        "name": "Transfer",
                        "params": [
                            {
                                "name": "from",
                                "type": "address",
                                "value": "0x0000000000000000000000000000000000000000"
                            },
                            {
                                "name": "to",
                                "type": "address",
                                "value": "0x285d7fe8d39a46bf7a574787b9883e1ed487d333"
                            },
                            {
                                "decimalAvailable": true,
                                "name": "tokenId",
                                "type": "uint256",
                                "value": "2,469"
                            }
                        ],
                        "signature": "Transfer(address,address,uint256)"
                    },
                    "id": 17,
                    "logData": "0x",
                    "logDecoded": true,
                    "operation": "EVENT",
                    "revert": false,
                    "status": true,
                    "topics": [
                        "0xddf252ad1be2c89b69c2b068fc378daa952ba7f163c4a11628f55a4df523b3ef",
                        "0x0000000000000000000000000000000000000000000000000000000000000000",
                        "0x000000000000000000000000285d7fe8d39a46bf7a574787b9883e1ed487d333",
                        "0x00000000000000000000000000000000000000000000000000000000000009a5"
                    ]
                },
                "nodeType": 1
            },
            "18": {
                "event": {
                    "contract": "0xa417ce5b28a7140510f7f72d54154c5e88aa8df8",
                    "decodedLog": {
                        "name": "Mint",
                        "params": [
                            {
                                "name": "_user",
                                "type": "address",
                                "value": "0x285d7fe8d39a46bf7a574787b9883e1ed487d333"
                            },
                            {
                                "name": "_tokenId",
                                "type": "uint256",
                                "value": "2,469"
                            },
                            {
                                "name": "_tokenURI",
                                "type": "string",
                                "value": "/2469"
                            }
                        ],
                        "signature": "Mint(address,uint256,string)"
                    },
                    "id": 18,
                    "logData": "0x000000000000000000000000000000000000000000000000000000000000002000000000000000000000000000000000000000000000000000000000000000052f32343639000000000000000000000000000000000000000000000000000000",
                    "logDecoded": true,
                    "operation": "EVENT",
                    "revert": false,
                    "status": true,
                    "topics": [
                        "0x85a66b9141978db9980f7e0ce3b468cebf4f7999f32b23091c5c03e798b1ba7a",
                        "0x000000000000000000000000285d7fe8d39a46bf7a574787b9883e1ed487d333",
                        "0x00000000000000000000000000000000000000000000000000000000000009a5"
                    ]
                },
                "nodeType": 1
            },
            "19": {
                "event": {
                    "contract": "0xa417ce5b28a7140510f7f72d54154c5e88aa8df8",
                    "decodedLog": {
                        "name": "Transfer",
                        "params": [
                            {
                                "name": "from",
                                "type": "address",
                                "value": "0x0000000000000000000000000000000000000000"
                            },
                            {
                                "name": "to",
                                "type": "address",
                                "value": "0x285d7fe8d39a46bf7a574787b9883e1ed487d333"
                            },
                            {
                                "decimalAvailable": true,
                                "name": "tokenId",
                                "type": "uint256",
                                "value": "2,470"
                            }
                        ],
                        "signature": "Transfer(address,address,uint256)"
                    },
                    "id": 19,
                    "logData": "0x",
                    "logDecoded": true,
                    "operation": "EVENT",
                    "revert": false,
                    "status": true,
                    "topics": [
                        "0xddf252ad1be2c89b69c2b068fc378daa952ba7f163c4a11628f55a4df523b3ef",
                        "0x0000000000000000000000000000000000000000000000000000000000000000",
                        "0x000000000000000000000000285d7fe8d39a46bf7a574787b9883e1ed487d333",
                        "0x00000000000000000000000000000000000000000000000000000000000009a6"
                    ]
                },
                "nodeType": 1
            },
            "2": {
                "event": {
                    "contract": "0xa417ce5b28a7140510f7f72d54154c5e88aa8df8",
                    "decodedLog": {
                        "name": "Mint",
                        "params": [
                            {
                                "name": "_user",
                                "type": "address",
                                "value": "0x285d7fe8d39a46bf7a574787b9883e1ed487d333"
                            },
                            {
                                "name": "_tokenId",
                                "type": "uint256",
                                "value": "2,461"
                            },
                            {
                                "name": "_tokenURI",
                                "type": "string",
                                "value": "/2461"
                            }
                        ],
                        "signature": "Mint(address,uint256,string)"
                    },
                    "id": 2,
                    "logData": "0x000000000000000000000000000000000000000000000000000000000000002000000000000000000000000000000000000000000000000000000000000000052f32343631000000000000000000000000000000000000000000000000000000",
                    "logDecoded": true,
                    "operation": "EVENT",
                    "revert": false,
                    "status": true,
                    "topics": [
                        "0x85a66b9141978db9980f7e0ce3b468cebf4f7999f32b23091c5c03e798b1ba7a",
                        "0x000000000000000000000000285d7fe8d39a46bf7a574787b9883e1ed487d333",
                        "0x000000000000000000000000000000000000000000000000000000000000099d"
                    ]
                },
                "nodeType": 1
            },
            "20": {
                "event": {
                    "contract": "0xa417ce5b28a7140510f7f72d54154c5e88aa8df8",
                    "decodedLog": {
                        "name": "Mint",
                        "params": [
                            {
                                "name": "_user",
                                "type": "address",
                                "value": "0x285d7fe8d39a46bf7a574787b9883e1ed487d333"
                            },
                            {
                                "name": "_tokenId",
                                "type": "uint256",
                                "value": "2,470"
                            },
                            {
                                "name": "_tokenURI",
                                "type": "string",
                                "value": "/2470"
                            }
                        ],
                        "signature": "Mint(address,uint256,string)"
                    },
                    "id": 20,
                    "logData": "0x000000000000000000000000000000000000000000000000000000000000002000000000000000000000000000000000000000000000000000000000000000052f32343730000000000000000000000000000000000000000000000000000000",
                    "logDecoded": true,
                    "operation": "EVENT",
                    "revert": false,
                    "status": true,
                    "topics": [
                        "0x85a66b9141978db9980f7e0ce3b468cebf4f7999f32b23091c5c03e798b1ba7a",
                        "0x000000000000000000000000285d7fe8d39a46bf7a574787b9883e1ed487d333",
                        "0x00000000000000000000000000000000000000000000000000000000000009a6"
                    ]
                },
                "nodeType": 1
            },
            "3": {
                "event": {
                    "contract": "0xa417ce5b28a7140510f7f72d54154c5e88aa8df8",
                    "decodedLog": {
                        "name": "Transfer",
                        "params": [
                            {
                                "name": "from",
                                "type": "address",
                                "value": "0x0000000000000000000000000000000000000000"
                            },
                            {
                                "name": "to",
                                "type": "address",
                                "value": "0x285d7fe8d39a46bf7a574787b9883e1ed487d333"
                            },
                            {
                                "decimalAvailable": true,
                                "name": "tokenId",
                                "type": "uint256",
                                "value": "2,462"
                            }
                        ],
                        "signature": "Transfer(address,address,uint256)"
                    },
                    "id": 3,
                    "logData": "0x",
                    "logDecoded": true,
                    "operation": "EVENT",
                    "revert": false,
                    "status": true,
                    "topics": [
                        "0xddf252ad1be2c89b69c2b068fc378daa952ba7f163c4a11628f55a4df523b3ef",
                        "0x0000000000000000000000000000000000000000000000000000000000000000",
                        "0x000000000000000000000000285d7fe8d39a46bf7a574787b9883e1ed487d333",
                        "0x000000000000000000000000000000000000000000000000000000000000099e"
                    ]
                },
                "nodeType": 1
            },
            "4": {
                "event": {
                    "contract": "0xa417ce5b28a7140510f7f72d54154c5e88aa8df8",
                    "decodedLog": {
                        "name": "Mint",
                        "params": [
                            {
                                "name": "_user",
                                "type": "address",
                                "value": "0x285d7fe8d39a46bf7a574787b9883e1ed487d333"
                            },
                            {
                                "name": "_tokenId",
                                "type": "uint256",
                                "value": "2,462"
                            },
                            {
                                "name": "_tokenURI",
                                "type": "string",
                                "value": "/2462"
                            }
                        ],
                        "signature": "Mint(address,uint256,string)"
                    },
                    "id": 4,
                    "logData": "0x000000000000000000000000000000000000000000000000000000000000002000000000000000000000000000000000000000000000000000000000000000052f32343632000000000000000000000000000000000000000000000000000000",
                    "logDecoded": true,
                    "operation": "EVENT",
                    "revert": false,
                    "status": true,
                    "topics": [
                        "0x85a66b9141978db9980f7e0ce3b468cebf4f7999f32b23091c5c03e798b1ba7a",
                        "0x000000000000000000000000285d7fe8d39a46bf7a574787b9883e1ed487d333",
                        "0x000000000000000000000000000000000000000000000000000000000000099e"
                    ]
                },
                "nodeType": 1
            },
            "5": {
                "event": {
                    "contract": "0xa417ce5b28a7140510f7f72d54154c5e88aa8df8",
                    "decodedLog": {
                        "name": "Transfer",
                        "params": [
                            {
                                "name": "from",
                                "type": "address",
                                "value": "0x0000000000000000000000000000000000000000"
                            },
                            {
                                "name": "to",
                                "type": "address",
                                "value": "0x285d7fe8d39a46bf7a574787b9883e1ed487d333"
                            },
                            {
                                "decimalAvailable": true,
                                "name": "tokenId",
                                "type": "uint256",
                                "value": "2,463"
                            }
                        ],
                        "signature": "Transfer(address,address,uint256)"
                    },
                    "id": 5,
                    "logData": "0x",
                    "logDecoded": true,
                    "operation": "EVENT",
                    "revert": false,
                    "status": true,
                    "topics": [
                        "0xddf252ad1be2c89b69c2b068fc378daa952ba7f163c4a11628f55a4df523b3ef",
                        "0x0000000000000000000000000000000000000000000000000000000000000000",
                        "0x000000000000000000000000285d7fe8d39a46bf7a574787b9883e1ed487d333",
                        "0x000000000000000000000000000000000000000000000000000000000000099f"
                    ]
                },
                "nodeType": 1
            },
            "6": {
                "event": {
                    "contract": "0xa417ce5b28a7140510f7f72d54154c5e88aa8df8",
                    "decodedLog": {
                        "name": "Mint",
                        "params": [
                            {
                                "name": "_user",
                                "type": "address",
                                "value": "0x285d7fe8d39a46bf7a574787b9883e1ed487d333"
                            },
                            {
                                "name": "_tokenId",
                                "type": "uint256",
                                "value": "2,463"
                            },
                            {
                                "name": "_tokenURI",
                                "type": "string",
                                "value": "/2463"
                            }
                        ],
                        "signature": "Mint(address,uint256,string)"
                    },
                    "id": 6,
                    "logData": "0x000000000000000000000000000000000000000000000000000000000000002000000000000000000000000000000000000000000000000000000000000000052f32343633000000000000000000000000000000000000000000000000000000",
                    "logDecoded": true,
                    "operation": "EVENT",
                    "revert": false,
                    "status": true,
                    "topics": [
                        "0x85a66b9141978db9980f7e0ce3b468cebf4f7999f32b23091c5c03e798b1ba7a",
                        "0x000000000000000000000000285d7fe8d39a46bf7a574787b9883e1ed487d333",
                        "0x000000000000000000000000000000000000000000000000000000000000099f"
                    ]
                },
                "nodeType": 1
            },
            "7": {
                "event": {
                    "contract": "0xa417ce5b28a7140510f7f72d54154c5e88aa8df8",
                    "decodedLog": {
                        "name": "Transfer",
                        "params": [
                            {
                                "name": "from",
                                "type": "address",
                                "value": "0x0000000000000000000000000000000000000000"
                            },
                            {
                                "name": "to",
                                "type": "address",
                                "value": "0x285d7fe8d39a46bf7a574787b9883e1ed487d333"
                            },
                            {
                                "decimalAvailable": true,
                                "name": "tokenId",
                                "type": "uint256",
                                "value": "2,464"
                            }
                        ],
                        "signature": "Transfer(address,address,uint256)"
                    },
                    "id": 7,
                    "logData": "0x",
                    "logDecoded": true,
                    "operation": "EVENT",
                    "revert": false,
                    "status": true,
                    "topics": [
                        "0xddf252ad1be2c89b69c2b068fc378daa952ba7f163c4a11628f55a4df523b3ef",
                        "0x0000000000000000000000000000000000000000000000000000000000000000",
                        "0x000000000000000000000000285d7fe8d39a46bf7a574787b9883e1ed487d333",
                        "0x00000000000000000000000000000000000000000000000000000000000009a0"
                    ]
                },
                "nodeType": 1
            },
            "8": {
                "event": {
                    "contract": "0xa417ce5b28a7140510f7f72d54154c5e88aa8df8",
                    "decodedLog": {
                        "name": "Mint",
                        "params": [
                            {
                                "name": "_user",
                                "type": "address",
                                "value": "0x285d7fe8d39a46bf7a574787b9883e1ed487d333"
                            },
                            {
                                "name": "_tokenId",
                                "type": "uint256",
                                "value": "2,464"
                            },
                            {
                                "name": "_tokenURI",
                                "type": "string",
                                "value": "/2464"
                            }
                        ],
                        "signature": "Mint(address,uint256,string)"
                    },
                    "id": 8,
                    "logData": "0x000000000000000000000000000000000000000000000000000000000000002000000000000000000000000000000000000000000000000000000000000000052f32343634000000000000000000000000000000000000000000000000000000",
                    "logDecoded": true,
                    "operation": "EVENT",
                    "revert": false,
                    "status": true,
                    "topics": [
                        "0x85a66b9141978db9980f7e0ce3b468cebf4f7999f32b23091c5c03e798b1ba7a",
                        "0x000000000000000000000000285d7fe8d39a46bf7a574787b9883e1ed487d333",
                        "0x00000000000000000000000000000000000000000000000000000000000009a0"
                    ]
                },
                "nodeType": 1
            },
            "9": {
                "event": {
                    "contract": "0xa417ce5b28a7140510f7f72d54154c5e88aa8df8",
                    "decodedLog": {
                        "name": "Transfer",
                        "params": [
                            {
                                "name": "from",
                                "type": "address",
                                "value": "0x0000000000000000000000000000000000000000"
                            },
                            {
                                "name": "to",
                                "type": "address",
                                "value": "0x285d7fe8d39a46bf7a574787b9883e1ed487d333"
                            },
                            {
                                "decimalAvailable": true,
                                "name": "tokenId",
                                "type": "uint256",
                                "value": "2,465"
                            }
                        ],
                        "signature": "Transfer(address,address,uint256)"
                    },
                    "id": 9,
                    "logData": "0x",
                    "logDecoded": true,
                    "operation": "EVENT",
                    "revert": false,
                    "status": true,
                    "topics": [
                        "0xddf252ad1be2c89b69c2b068fc378daa952ba7f163c4a11628f55a4df523b3ef",
                        "0x0000000000000000000000000000000000000000000000000000000000000000",
                        "0x000000000000000000000000285d7fe8d39a46bf7a574787b9883e1ed487d333",
                        "0x00000000000000000000000000000000000000000000000000000000000009a1"
                    ]
                },
                "nodeType": 1
            }
        },
        "gasFlame": [
            {
                "children": [
                    {
                        "children": [
                            {
                                "children": [],
                                "depth": 0,
                                "name": "Initial Gas",
                                "value": 21204
                            },
                            {
                                "children": [],
                                "depth": 0,
                                "name": "Executed Gas",
                                "value": 399066
                            }
                        ],
                        "depth": -1,
                        "name": "Actual Gas Used",
                        "value": 420270
                    },
                    {
                        "children": [],
                        "depth": -1,
                        "name": "Refunded Gas",
                        "value": 0
                    }
                ],
                "depth": -2,
                "name": "Total Gas",
                "value": 420270
            }
        ],
        "isConfirmed": true,
        "mainTrace": [
            {
                "children": [
                    {
                        "children": [
                            {
                                "children": [],
                                "depth": 1,
                                "id": 1,
                                "order": 1
                            },
                            {
                                "children": [],
                                "depth": 1,
                                "id": 2,
                                "order": 2
                            },
                            {
                                "children": [],
                                "depth": 1,
                                "id": 3,
                                "order": 3
                            },
                            {
                                "children": [],
                                "depth": 1,
                                "id": 4,
                                "order": 4
                            },
                            {
                                "children": [],
                                "depth": 1,
                                "id": 5,
                                "order": 5
                            },
                            {
                                "children": [],
                                "depth": 1,
                                "id": 6,
                                "order": 6
                            },
                            {
                                "children": [],
                                "depth": 1,
                                "id": 7,
                                "order": 7
                            },
                            {
                                "children": [],
                                "depth": 1,
                                "id": 8,
                                "order": 8
                            },
                            {
                                "children": [],
                                "depth": 1,
                                "id": 9,
                                "order": 9
                            },
                            {
                                "children": [],
                                "depth": 1,
                                "id": 10,
                                "order": 10
                            },
                            {
                                "children": [],
                                "depth": 1,
                                "id": 11,
                                "order": 11
                            },
                            {
                                "children": [],
                                "depth": 1,
                                "id": 12,
                                "order": 12
                            },
                            {
                                "children": [],
                                "depth": 1,
                                "id": 13,
                                "order": 13
                            },
                            {
                                "children": [],
                                "depth": 1,
                                "id": 14,
                                "order": 14
                            },
                            {
                                "children": [],
                                "depth": 1,
                                "id": 15,
                                "order": 15
                            },
                            {
                                "children": [],
                                "depth": 1,
                                "id": 16,
                                "order": 16
                            },
                            {
                                "children": [],
                                "depth": 1,
                                "id": 17,
                                "order": 17
                            },
                            {
                                "children": [],
                                "depth": 1,
                                "id": 18,
                                "order": 18
                            },
                            {
                                "children": [],
                                "depth": 1,
                                "id": 19,
                                "order": 19
                            },
                            {
                                "children": [],
                                "depth": 1,
                                "id": 20,
                                "order": 20
                            }
                        ],
                        "depth": 0,
                        "id": 0,
                        "order": 0
                    }
                ],
                "depth": -1,
                "id": -1,
                "order": -1
            }
        ],
        "mainTraceNodeCount": 21,
        "parentIdMap": {
            "0": -1,
            "1": 0,
            "10": 0,
            "11": 0,
            "12": 0,
            "13": 0,
            "14": 0,
            "15": 0,
            "16": 0,
            "17": 0,
            "18": 0,
            "19": 0,
            "2": 0,
            "20": 0,
            "3": 0,
            "4": 0,
            "5": 0,
            "6": 0,
            "7": 0,
            "8": 0,
            "9": 0
        },
        "tidyTrace": [
            {
                "children": [
                    {
                        "children": [
                            {
                                "children": [],
                                "depth": 1,
                                "id": 1,
                                "order": 1
                            },
                            {
                                "children": [],
                                "depth": 1,
                                "id": 2,
                                "order": 2
                            },
                            {
                                "children": [],
                                "depth": 1,
                                "id": 3,
                                "order": 3
                            },
                            {
                                "children": [],
                                "depth": 1,
                                "id": 4,
                                "order": 4
                            },
                            {
                                "children": [],
                                "depth": 1,
                                "id": 5,
                                "order": 5
                            },
                            {
                                "children": [],
                                "depth": 1,
                                "id": 6,
                                "order": 6
                            },
                            {
                                "children": [],
                                "depth": 1,
                                "id": 7,
                                "order": 7
                            },
                            {
                                "children": [],
                                "depth": 1,
                                "id": 8,
                                "order": 8
                            },
                            {
                                "children": [],
                                "depth": 1,
                                "id": 9,
                                "order": 9
                            },
                            {
                                "children": [],
                                "depth": 1,
                                "id": 10,
                                "order": 10
                            },
                            {
                                "children": [],
                                "depth": 1,
                                "id": 11,
                                "order": 11
                            },
                            {
                                "children": [],
                                "depth": 1,
                                "id": 12,
                                "order": 12
                            },
                            {
                                "children": [],
                                "depth": 1,
                                "id": 13,
                                "order": 13
                            },
                            {
                                "children": [],
                                "depth": 1,
                                "id": 14,
                                "order": 14
                            },
                            {
                                "children": [],
                                "depth": 1,
                                "id": 15,
                                "order": 15
                            },
                            {
                                "children": [],
                                "depth": 1,
                                "id": 16,
                                "order": 16
                            },
                            {
                                "children": [],
                                "depth": 1,
                                "id": 17,
                                "order": 17
                            },
                            {
                                "children": [],
                                "depth": 1,
                                "id": 18,
                                "order": 18
                            },
                            {
                                "children": [],
                                "depth": 1,
                                "id": 19,
                                "order": 19
                            },
                            {
                                "children": [],
                                "depth": 1,
                                "id": 20,
                                "order": 20
                            }
                        ],
                        "depth": 0,
                        "id": 0,
                        "order": 0
                    }
                ],
                "depth": -1,
                "id": -1,
                "order": -1
            }
        ],
        "tidyTraceNodeCount": 21
    },
    "state_change": {
        "stateChanges": [
            {
                "address": "0xa417ce5b28a7140510f7f72d54154c5e88aa8df8",
                "erc": "ERC-721",
                "slots": [
                    {
                        "current": "0x000000000000000000000000285d7fe8d39a46bf7a574787b9883e1ed487d333",
                        "key": "0x2e2edddabf12a319c6d20592c2fd107fdf85e278a3fdf80bd24b801b004a4d86",
                        "prev": "0x0000000000000000000000000000000000000000000000000000000000000000"
                    },
                    {
                        "current": "0x000000000000000000000000285d7fe8d39a46bf7a574787b9883e1ed487d333",
                        "key": "0xddd7dfde0825904a1b278fbd2996ba6b3a0e067674dbc2085332d2146de2a4bc",
                        "prev": "0x0000000000000000000000000000000000000000000000000000000000000000"
                    },
                    {
                        "current": "0x000000000000000000000000285d7fe8d39a46bf7a574787b9883e1ed487d333",
                        "key": "0x9958f6136268375cf25259159d47e794ded40cebdec562994d1f15bc57ac8a19",
                        "prev": "0x0000000000000000000000000000000000000000000000000000000000000000"
                    },
                    {
                        "current": "0x000000000000000000000000285d7fe8d39a46bf7a574787b9883e1ed487d333",
                        "key": "0x5cdcca225ae32a663af10f7dc6d38c426fc240dd7b6fe12a606fc2a2d5093f5c",
                        "prev": "0x0000000000000000000000000000000000000000000000000000000000000000"
                    },
                    {
                        "current": "0x000000000000000000000000285d7fe8d39a46bf7a574787b9883e1ed487d333",
                        "key": "0xa8ac0c6075a1ad4bc0f9d629ea03836766839825a6dcca28225cd0b9ef1dd702",
                        "prev": "0x0000000000000000000000000000000000000000000000000000000000000000"
                    },
                    {
                        "current": "0x00000000000000000000000000000000000000000000000000000000000009a6",
                        "key": "0x0000000000000000000000000000000000000000000000000000000000000007",
                        "prev": "0x000000000000000000000000000000000000000000000000000000000000099c"
                    },
                    {
                        "current": "0x000000000000000000000000000000000000000000000000000000000000000a",
                        "key": "0x6e099d10ea2041ffecb6ebab4da7723ec7bac977312c4ac31f8d3a962a0e38a4",
                        "prev": "0x0000000000000000000000000000000000000000000000000000000000000000"
                    },
                    {
                        "current": "0x000000000000000000000000285d7fe8d39a46bf7a574787b9883e1ed487d333",
                        "key": "0x68a5216af819456b379e486b79094c171c3e0817e3ada2792501a997c348782e",
                        "prev": "0x0000000000000000000000000000000000000000000000000000000000000000"
                    },
                    {
                        "current": "0x000000000000000000000000285d7fe8d39a46bf7a574787b9883e1ed487d333",
                        "key": "0x2718ab52c47c68668ca3af8271bc4f32c8828ec85cb8a32f494ebeb68305425a",
                        "prev": "0x0000000000000000000000000000000000000000000000000000000000000000"
                    },
                    {
                        "current": "0x000000000000000000000000285d7fe8d39a46bf7a574787b9883e1ed487d333",
                        "key": "0xddf029cc49478521c7b2a9d5b99216dcd42e71d8c2fdc3ed036e2690a992dcc1",
                        "prev": "0x0000000000000000000000000000000000000000000000000000000000000000"
                    },
                    {
                        "current": "0x000000000000000000000000285d7fe8d39a46bf7a574787b9883e1ed487d333",
                        "key": "0x897b31747b7eee0a985041390d69eae14c834f1387913f6b205b940392129d08",
                        "prev": "0x0000000000000000000000000000000000000000000000000000000000000000"
                    },
                    {
                        "current": "0x000000000000000000000000285d7fe8d39a46bf7a574787b9883e1ed487d333",
                        "key": "0x64e74cf8b0298d2b86566cb84c757b3bb5e3cfd4f08899385714be882e7089a6",
                        "prev": "0x0000000000000000000000000000000000000000000000000000000000000000"
                    }
                ],
                "storageVariables": [
                    {
                        "name": "_owners",
                        "type": "mapping(uint256 => address)",
                        "value": {
                            "pairs": [
                                {
                                    "key": "2461",
                                    "value": {
                                        "current": "0x285d7fe8d39a46bf7a574787b9883e1ed487d333",
                                        "prev": "0x0000000000000000000000000000000000000000",
                                        "typeTag": 1
                                    }
                                },
                                {
                                    "key": "2462",
                                    "value": {
                                        "current": "0x285d7fe8d39a46bf7a574787b9883e1ed487d333",
                                        "prev": "0x0000000000000000000000000000000000000000",
                                        "typeTag": 1
                                    }
                                },
                                {
                                    "key": "2463",
                                    "value": {
                                        "current": "0x285d7fe8d39a46bf7a574787b9883e1ed487d333",
                                        "prev": "0x0000000000000000000000000000000000000000",
                                        "typeTag": 1
                                    }
                                },
                                {
                                    "key": "2464",
                                    "value": {
                                        "current": "0x285d7fe8d39a46bf7a574787b9883e1ed487d333",
                                        "prev": "0x0000000000000000000000000000000000000000",
                                        "typeTag": 1
                                    }
                                },
                                {
                                    "key": "2465",
                                    "value": {
                                        "current": "0x285d7fe8d39a46bf7a574787b9883e1ed487d333",
                                        "prev": "0x0000000000000000000000000000000000000000",
                                        "typeTag": 1
                                    }
                                },
                                {
                                    "key": "2466",
                                    "value": {
                                        "current": "0x285d7fe8d39a46bf7a574787b9883e1ed487d333",
                                        "prev": "0x0000000000000000000000000000000000000000",
                                        "typeTag": 1
                                    }
                                },
                                {
                                    "key": "2467",
                                    "value": {
                                        "current": "0x285d7fe8d39a46bf7a574787b9883e1ed487d333",
                                        "prev": "0x0000000000000000000000000000000000000000",
                                        "typeTag": 1
                                    }
                                },
                                {
                                    "key": "2468",
                                    "value": {
                                        "current": "0x285d7fe8d39a46bf7a574787b9883e1ed487d333",
                                        "prev": "0x0000000000000000000000000000000000000000",
                                        "typeTag": 1
                                    }
                                },
                                {
                                    "key": "2469",
                                    "value": {
                                        "current": "0x285d7fe8d39a46bf7a574787b9883e1ed487d333",
                                        "prev": "0x0000000000000000000000000000000000000000",
                                        "typeTag": 1
                                    }
                                },
                                {
                                    "key": "2470",
                                    "value": {
                                        "current": "0x285d7fe8d39a46bf7a574787b9883e1ed487d333",
                                        "prev": "0x0000000000000000000000000000000000000000",
                                        "typeTag": 1
                                    }
                                }
                            ],
                            "typeTag": 4
                        }
                    },
                    {
                        "name": "totalSupply",
                        "type": "uint256",
                        "value": {
                            "current": "2470",
                            "prev": "2460",
                            "typeTag": 1
                        }
                    },
                    {
                        "name": "_balances",
                        "type": "mapping(address => uint256)",
                        "value": {
                            "pairs": [
                                {
                                    "key": "0x285d7fe8d39a46bf7a574787b9883e1ed487d333",
                                    "value": {
                                        "current": "10",
                                        "prev": "0",
                                        "typeTag": 1
                                    }
                                }
                            ],
                            "typeTag": 4
                        }
                    }
                ]
            }
        ]
    }
}