{
    "balance_change": {
        "balanceChanges": [
            {
                "account": "0x23a66e3588152affb30dce0ada6fb89369122fe1",
                "assets": [
                    {
                        "address": "0x8762db106b2c2a0bccb3a80d1ed41273552616e8",
                        "amount": "5,732.271",
                        "iconUrl": "",
                        "isERC1155": false,
                        "isERC721": false,
                        "sign": false,
                        "value": "118.5801128"
                    }
                ]
            },
            {
                "account": "0x6262998ced04146fa42253a5c0af90ca02dfd2a3",
                "assets": [
                    {
                        "address": "0x8762db106b2c2a0bccb3a80d1ed41273552616e8",
                        "amount": "5,732.271",
                        "iconUrl": "",
                        "isERC1155": false,
                        "isERC721": false,
                        "sign": true,
                        "value": "118.5801128"
                    }
                ]
            }
        ]
    },
    "profile": {
        "basic_info": {
            "baseFee": "",
            "blockNumber": 12834283,
            "callData": "0xa9059cbb0000000000000000000000006262998ced04146fa42253a5c0af90ca02dfd2a3000000000000000000000000000000000000000000000136bf3d97a069318000",
            "debugEnable": true,
            "errorInfo": "",
            "eventCount": 1,
            "feeRecipient": "0x5a0b54d5dc17e0aadc383d2db43b0a0d3e029c4c",
            "formatValue": "0",
            "gasLimit": 47114,
            "gasPrice": "41",
            "gasUsed": 24262,
            "intTxnCount": 0,
            "internalRevert": false,
            "internalRevertMessage": "",
            "isContractCreation": false,
            "isFlashloan": false,
            "maxFee": "",
            "nonce": 1,
            "overwritedBlockNumber": -1,
            "priorityFee": "",
            "receiver": "0x8762db106b2c2a0bccb3a80d1ed41273552616e8",
            "revertMessage": "",
            "sender": "0x23a66e3588152affb30dce0ada6fb89369122fe1",
            "simulationEnable": true,
            "sourceTxnHash": "0x9a4f74a240322d40ba72105f85fdbdd4244e97cd5318955674c2f2bd8ba821d5",
            "status": true,
            "timestamp": "2021-07-15T22:42:52Z",
            "transactionFee": "0.000994742",
            "txnHash": "0x9a4f74a240322d40ba72105f85fdbdd4244e97cd5318955674c2f2bd8ba821d5",
            "txnIndex": 22,
            "type": 0,
            "value": "0"
        },
        "fund_flow": [
            {
                "amount": "5,732.271",
                "from": "0x23a66e3588152affb30dce0ada6fb89369122fe1",
                "id": 1,
                "isERC1155": false,
                "isERC721": false,
                "isReverted": false,
                "order": 1,
                "to": "0x6262998ced04146fa42253a5c0af90ca02dfd2a3",
                "token": "0x8762db106b2c2a0bccb3a80d1ed41273552616e8"
            }
        ],
        "token_infos": [
            {
                "address": "0xeeeeeeeeeeeeeeeeeeeeeeeeeeeeeeeeeeeeeeee",
                "decimals": 18
            },
            {
                "address": "0x8762db106b2c2a0bccb3a80d1ed41273552616e8",
                "decimals": 18
            },
            {
                "address": "0xc02aaa39b223fe8d0a0e5c4f27ead9083c756cc2",
                "decimals": 18
            }
        ]
    },
    "address_label": {
        "labels": [
            {
                "address": "0x0000000000000000000000000000000000000002",
                "label": "Precompiled"
            },
            {
                "address": "0x0000000000000000000000000000000000000003",
                "label": "Precompiled"
            },
            {
                "address": "0x0000000000000000000000000000000000000004",
                "label": "Precompiled"
            },
            {
                "address": "0xeeeeeeeeeeeeeeeeeeeeeeeeeeeeeeeeeeeeeeee",
                "label": "Ether"
            },
            {
                "address": "0x6262998ced04146fa42253a5c0af90ca02dfd2a3",
                "label": "Crypto.com"
            },
            {
                "address": "0x23a66e3588152affb30dce0ada6fb89369122fe1",
                "label": "CRYPTO.COM"
            },
            {
                "address": "0x8762db106b2c2a0bccb3a80d1ed41273552616e8",
                "label": "Reserve Rights: Old RSR Token"
            },
            {
                "address": "0x0000000000000000000000000000000000000001",
                "label": "Precompiled"
            }
        ]
    },
    "trace": {
        "accountLabels": null,
        "dataMap": {
            "-1": {
                "invocation": {
                    "address": "0x23a66e3588152affb30dce0ada6fb89369122fe1",
                    "callData": "",
                    "decodedMethod": null,
                    "errorInfo": "",
                    "fromAddress": "",
                    "gasUsed": 0,
                    "id": -1,
                    "methodDecoded": false,
                    "operation": "",
                    "output": "",
                    "revert": false,
                    "revertMessage": "",
                    "selector": "",
                    "status": false,
                    "value": ""
                },
                "nodeType": 0
            },
            "0": {
                "invocation": {
                    "address": "0x8762db106b2c2a0bccb3a80d1ed41273552616e8",
                    "callData": "0x0000000000000000000000006262998ced04146fa42253a5c0af90ca02dfd2a3000000000000000000000000000000000000000000000136bf3d97a069318000",
                    "decodedMethod": {
                        "callParams": [
                            {
                                "name": "to",
                                "type": "address",
                                "value": "0x6262998ced04146fa42253a5c0af90ca02dfd2a3"
                            },
                            {
                                "decimalAvailable": true,
                                "name": "value",
                                "type": "uint256",
                                "value": "5,732,271,000,000,000,000,000"
                            }
                        ],
                        "constructorArguments": "",
                        "name": "transfer",
                        "returnParams": [
                            {
                                "name": "",
                                "type": "bool",
                                "value": true
                            }
                        ],
                        "signature": "transfer(address,uint256)"
                    },
                    "errorInfo": "",
                    "fromAddress": "0x23a66e3588152affb30dce0ada6fb89369122fe1",
                    "gasUsed": 24262,
                    "id": 0,
                    "methodDecoded": true,
                    "operation": "CALL",
                    "output": "0x0000000000000000000000000000000000000000000000000000000000000001",
                    "revert": false,
                    "revertMessage": "",
                    "selector": "0xa9059cbb",
                    "status": true,
                    "value": "0"
                },
                "nodeType": 0
            },
            "1": {
                "event": {
                    "contract": "0x8762db106b2c2a0bccb3a80d1ed41273552616e8",
                    "decodedLog": {
                        "name": "Transfer",
                        "params": [
                            {
                                "name": "from",
                                "type": "address",
                                "value": "0x23a66e3588152affb30dce0ada6fb89369122fe1"
                            },
                            {
                                "name": "to",
                                "type": "address",
                                "value": "0x6262998ced04146fa42253a5c0af90ca02dfd2a3"
                            },
                            {
                                "decimalAvailable": true,
                                "name": "value",
                                "type": "uint256",
                                "value": "5,732,271,000,000,000,000,000"
                            }
                        ],
                        "signature": "Transfer(address,address,uint256)"
                    },
                    "id": 1,
                    "logData": "0x000000000000000000000000000000000000000000000136bf3d97a069318000",
                    "logDecoded": true,
                    "operation": "EVENT",
                    "revert": false,
                    "status": true,
                    "topics": [
                        "0xddf252ad1be2c89b69c2b068fc378daa952ba7f163c4a11628f55a4df523b3ef",
                        "0x00000000000000000000000023a66e3588152affb30dce0ada6fb89369122fe1",
                        "0x0000000000000000000000006262998ced04146fa42253a5c0af90ca02dfd2a3"
                    ]
                },
                "nodeType": 1
            }
        },
        "gasFlame": [
            {
                "children": [
                    {
                        "children": [
                            {
                                "children": [],
                                "depth": 0,
                                "name": "Initial Gas",
                                "value": 21668
                            },
                            {
                                "children": [],
                                "depth": 0,
                                "name": "Executed Gas",
                                "value": 17594
                            }
                        ],
                        "depth": -1,
                        "name": "Actual Gas Used",
                        "value": 24262
                    },
                    {
                        "children": [],
                        "depth": -1,
                        "name": "Refunded Gas",
                        "value": 15000
                    }
                ],
                "depth": -2,
                "name": "Total Gas",
                "value": 39262
            }
        ],
        "isConfirmed": true,
        "mainTrace": [
            {
                "children": [
                    {
                        "children": [
                            {
                                "children": [],
                                "depth": 1,
                                "id": 1,
                                "order": 1
                            }
                        ],
                        "depth": 0,
                        "id": 0,
                        "order": 0
                    }
                ],
                "depth": -1,
                "id": -1,
                "order": -1
            }
        ],
        "mainTraceNodeCount": 2,
        "parentIdMap": {
            "0": -1,
            "1": 0
        },
        "tidyTrace": [
            {
                "children": [
                    {
                        "children": [
                            {
                                "children": [],
                                "depth": 1,
                                "id": 1,
                                "order": 1
                            }
                        ],
                        "depth": 0,
                        "id": 0,
                        "order": 0
                    }
                ],
                "depth": -1,
                "id": -1,
                "order": -1
            }
        ],
        "tidyTraceNodeCount": 2
    },
    "state_change": {
        "stateChanges": [
            {
                "address": "0x8762db106b2c2a0bccb3a80d1ed41273552616e8",
                "erc": "ERC-20",
                "slots": [
                    {
                        "current": "0x00000000000000000000000000000000000000000011c3c7a3635ea7bc4ebf49",
                        "key": "0xdd5fb4ba38a4efff96505b6891ff7d560a25302ec81fd37e7041260418ceaf64",
                        "prev": "0x00000000000000000000000000000000000000000011c290e425c707531d3f49"
                    },
                    {
                        "current": "0x0000000000000000000000000000000000000000000000000000000000000000",
                        "key": "0xd6ff62da8147827eca8ce59aa72c14f2eb37dfb742ac976aa83b5f89a8dd7eb5",
                        "prev": "0x000000000000000000000000000000000000000000000136bf3d97a069318000"
                    }
                ],
                "storageVariables": [
                    {
                        "name": "_balances",
                        "type": "mapping(address => uint256)",
                        "value": {
                            "pairs": [
                                {
                                    "key": "0x23a66e3588152affb30dce0ada6fb89369122fe1",
                                    "value": {
                                        "current": "0",
                                        "prev": "5732271000000000000000",
                                        "typeTag": 1
                                    }
                                },
                                {
                                    "key": "0x6262998ced04146fa42253a5c0af90ca02dfd2a3",
                                    "value": {
                                        "current": "21476283073036870375882569",
                                        "prev": "21470550802036870375882569",
                                        "typeTag": 1
                                    }
                                }
                            ],
                            "typeTag": 4
                        }
                    }
                ]
            }
        ]
    }
}