{
    "balance_change": {
        "balanceChanges": []
    },
    "profile": {
        "basic_info": {
            "baseFee": "",
            "blockNumber": 4016517,
            "callData": "0x45977d03000000000000000000000000000000000000000000000000000051dac207a000",
            "debugEnable": true,
            "errorInfo": "",
            "eventCount": 2,
            "feeRecipient": "0xb2930b35844a230f00e51431acae96fe543a0347",
            "formatValue": "0",
            "gasLimit": 77209,
            "gasPrice": "21",
            "gasUsed": 62209,
            "intTxnCount": 4,
            "internalRevert": false,
            "internalRevertMessage": "",
            "isContractCreation": false,
            "isFlashloan": false,
            "maxFee": "",
            "nonce": 5,
            "overwritedBlockNumber": -1,
            "priorityFee": "",
            "receiver": "0x807b9487aaf00629b674bd6d02e4917453bc5939",
            "revertMessage": "",
            "sender": "0x0de6f11176d948affe127ee926ef2388b3965d98",
            "simulationEnable": true,
            "sourceTxnHash": "0x9a3f7eb825da1070f5b0d0b3a9c606a4f0695faf8dafb0a3e26a5ceb37440bda",
            "status": true,
            "timestamp": "2017-07-13T12:12:38Z",
            "transactionFee": "0.001306389",
            "txnHash": "0x9a3f7eb825da1070f5b0d0b3a9c606a4f0695faf8dafb0a3e26a5ceb37440bda",
            "txnIndex": 8,
            "type": 0,
            "value": "0"
        },
        "fund_flow": [],
        "token_infos": [
            {
                "address": "0xc02aaa39b223fe8d0a0e5c4f27ead9083c756cc2",
                "decimals": 18
            },
            {
                "address": "0xeeeeeeeeeeeeeeeeeeeeeeeeeeeeeeeeeeeeeeee",
                "decimals": 18
            }
        ]
    },
    "address_label": {
        "labels": [
            {
                "address": "0x0000000000000000000000000000000000000003",
                "label": "Precompiled"
            },
            {
                "address": "0x0000000000000000000000000000000000000004",
                "label": "Precompiled"
            },
            {
                "address": "0xeeeeeeeeeeeeeeeeeeeeeeeeeeeeeeeeeeeeeeee",
                "label": "Ether"
            },
            {
                "address": "0x4fe6ea636abe664e0268af373a10ca3621a0b95b",
                "label": "EthBits: Old Token 2"
            },
            {
                "address": "0x807b9487aaf00629b674bd6d02e4917453bc5939",
                "label": "Ethbits: Old Token 1"
            },
            {
                "address": "0x0000000000000000000000000000000000000001",
                "label": "Precompiled"
            },
            {
                "address": "0x0000000000000000000000000000000000000002",
                "label": "Precompiled"
            }
        ]
    },
    "trace": {
        "accountLabels": null,
        "dataMap": {
            "-1": {
                "invocation": {
                    "address": "0x0de6f11176d948affe127ee926ef2388b3965d98",
                    "callData": "",
                    "decodedMethod": null,
                    "errorInfo": "",
                    "fromAddress": "",
                    "gasUsed": 0,
                    "id": -1,
                    "methodDecoded": false,
                    "operation": "",
                    "output": "",
                    "revert": false,
                    "revertMessage": "",
                    "selector": "",
                    "status": false,
                    "value": ""
                },
                "nodeType": 0
            },
            "0": {
                "invocation": {
                    "address": "0x807b9487aaf00629b674bd6d02e4917453bc5939",
                    "callData": "0x000000000000000000000000000000000000000000000000000051dac207a000",
                    "decodedMethod": {
                        "callParams": [
                            {
                                "name": "value",
                                "type": "uint256",
                                "value": "90,000,000,000,000"
                            }
                        ],
                        "constructorArguments": "",
                        "name": "upgrade",
                        "returnParams": [],
                        "signature": "upgrade(uint256)"
                    },
                    "errorInfo": "",
                    "fromAddress": "0x0de6f11176d948affe127ee926ef2388b3965d98",
                    "gasUsed": 62209,
                    "id": 0,
                    "methodDecoded": true,
                    "operation": "CALL",
                    "output": "",
                    "revert": false,
                    "revertMessage": "",
                    "selector": "0x45977d03",
                    "status": true,
                    "value": "0"
                },
                "nodeType": 0
            },
            "1": {
                "invocation": {
                    "address": "0xf49005661e34f8d09fe78f1b196cf084a3bd3033",
                    "callData": "0x000000000000000000000000000000000000000000000000000051dac207a000000000000000000000000000000000000000000000000000000051dac207a000",
                    "decodedMethod": {
                        "callParams": [
                            {
                                "name": "a",
                                "type": "uint256",
                                "value": "90,000,000,000,000"
                            },
                            {
                                "name": "b",
                                "type": "uint256",
                                "value": "90,000,000,000,000"
                            }
                        ],
                        "constructorArguments": "",
                        "name": "minus",
                        "returnParams": [
                            {
                                "name": "",
                                "type": "uint256",
                                "value": "0"
                            }
                        ],
                        "signature": "minus(uint256,uint256)"
                    },
                    "errorInfo": "",
                    "fromAddress": "0x807b9487aaf00629b674bd6d02e4917453bc5939",
                    "gasUsed": 336,
                    "id": 1,
                    "methodDecoded": true,
                    "operation": "DELEGATECALL",
                    "output": "0x0000000000000000000000000000000000000000000000000000000000000000",
                    "revert": false,
                    "revertMessage": "",
                    "selector": "0xf4f3bdc1",
                    "status": true,
                    "value": "0"
                },
                "nodeType": 0
            },
            "2": {
                "invocation": {
                    "address": "0xf49005661e34f8d09fe78f1b196cf084a3bd3033",
                    "callData": "0x0000000000000000000000000000000000000000000000000500eefa3faf5663000000000000000000000000000000000000000000000000000051dac207a000",
                    "decodedMethod": {
                        "callParams": [
                            {
                                "name": "a",
                                "type": "uint256",
                                "value": "360,550,728,767,329,891"
                            },
                            {
                                "name": "b",
                                "type": "uint256",
                                "value": "90,000,000,000,000"
                            }
                        ],
                        "constructorArguments": "",
                        "name": "minus",
                        "returnParams": [
                            {
                                "name": "",
                                "type": "uint256",
                                "value": "360,460,728,767,329,891"
                            }
                        ],
                        "signature": "minus(uint256,uint256)"
                    },
                    "errorInfo": "",
                    "fromAddress": "0x807b9487aaf00629b674bd6d02e4917453bc5939",
                    "gasUsed": 336,
                    "id": 2,
                    "methodDecoded": true,
                    "operation": "DELEGATECALL",
                    "output": "0x00000000000000000000000000000000000000000000000005009d1f7da7b663",
                    "revert": false,
                    "revertMessage": "",
                    "selector": "0xf4f3bdc1",
                    "status": true,
                    "value": "0"
                },
                "nodeType": 0
            },
            "3": {
                "invocation": {
                    "address": "0xf49005661e34f8d09fe78f1b196cf084a3bd3033",
                    "callData": "0x00000000000000000000000000000000000000000000000011aea79c371de2d9000000000000000000000000000000000000000000000000000051dac207a000",
                    "decodedMethod": {
                        "callParams": [
                            {
                                "name": "a",
                                "type": "uint256",
                                "value": "1,274,140,033,973,871,321"
                            },
                            {
                                "name": "b",
                                "type": "uint256",
                                "value": "90,000,000,000,000"
                            }
                        ],
                        "constructorArguments": "",
                        "name": "plus",
                        "returnParams": [
                            {
                                "name": "",
                                "type": "uint256",
                                "value": "1,274,230,033,973,871,321"
                            }
                        ],
                        "signature": "plus(uint256,uint256)"
                    },
                    "errorInfo": "",
                    "fromAddress": "0x807b9487aaf00629b674bd6d02e4917453bc5939",
                    "gasUsed": 356,
                    "id": 3,
                    "methodDecoded": true,
                    "operation": "DELEGATECALL",
                    "output": "0x00000000000000000000000000000000000000000000000011aef976f92582d9",
                    "revert": false,
                    "revertMessage": "",
                    "selector": "0x66098d4f",
                    "status": true,
                    "value": "0"
                },
                "nodeType": 0
            },
            "4": {
                "invocation": {
                    "address": "0x4fe6ea636abe664e0268af373a10ca3621a0b95b",
                    "callData": "0x0000000000000000000000000de6f11176d948affe127ee926ef2388b3965d98000000000000000000000000000000000000000000000000000051dac207a000",
                    "decodedMethod": {
                        "callParams": [
                            {
                                "name": "_from",
                                "type": "address",
                                "value": "0x0de6f11176d948affe127ee926ef2388b3965d98"
                            },
                            {
                                "name": "_value",
                                "type": "uint256",
                                "value": "90,000,000,000,000"
                            }
                        ],
                        "constructorArguments": "",
                        "name": "upgradeFrom",
                        "returnParams": [],
                        "signature": "upgradeFrom(address,uint256)"
                    },
                    "errorInfo": "",
                    "fromAddress": "0x807b9487aaf00629b674bd6d02e4917453bc5939",
                    "gasUsed": 28118,
                    "id": 4,
                    "methodDecoded": true,
                    "operation": "CALL",
                    "output": "",
                    "revert": false,
                    "revertMessage": "",
                    "selector": "0x753e88e5",
                    "status": true,
                    "value": "0"
                },
                "nodeType": 0
            },
            "5": {
                "event": {
                    "contract": "0x4fe6ea636abe664e0268af373a10ca3621a0b95b",
                    "decodedLog": {
                        "name": "TokensUpgradedFrom",
                        "params": [
                            {
                                "name": "from",
                                "type": "address",
                                "value": "0x0de6f11176d948affe127ee926ef2388b3965d98"
                            },
                            {
                                "name": "value",
                                "type": "uint256",
                                "value": "90,000,000,000,000"
                            }
                        ],
                        "signature": "TokensUpgradedFrom(address,uint256)"
                    },
                    "id": 5,
                    "logData": "0x000000000000000000000000000000000000000000000000000051dac207a000",
                    "logDecoded": true,
                    "operation": "EVENT",
                    "revert": false,
                    "status": true,
                    "topics": [
                        "0xc2e4b8fb33d61f21e744bf579fce57fe53d046942bab0e574e63d8cac1d656cf",
                        "0x0000000000000000000000000de6f11176d948affe127ee926ef2388b3965d98"
                    ]
                },
                "nodeType": 1
            },
            "6": {
                "event": {
                    "contract": "0x807b9487aaf00629b674bd6d02e4917453bc5939",
                    "decodedLog": {
                        "name": "Upgrade",
                        "params": [
                            {
                                "name": "_from",
                                "type": "address",
                                "value": "0x0de6f11176d948affe127ee926ef2388b3965d98"
                            },
                            {
                                "name": "_to",
                                "type": "address",
                                "value": "0x4fe6ea636abe664e0268af373a10ca3621a0b95b"
                            },
                            {
                                "name": "_value",
                                "type": "uint256",
                                "value": "90,000,000,000,000"
                            }
                        ],
                        "signature": "Upgrade(address,address,uint256)"
                    },
                    "id": 6,
                    "logData": "0x000000000000000000000000000000000000000000000000000051dac207a000",
                    "logDecoded": true,
                    "operation": "EVENT",
                    "revert": false,
                    "status": true,
                    "topics": [
                        "0x7e5c344a8141a805725cb476f76c6953b842222b967edd1f78ddb6e8b3f397ac",
                        "0x0000000000000000000000000de6f11176d948affe127ee926ef2388b3965d98",
                        "0x0000000000000000000000004fe6ea636abe664e0268af373a10ca3621a0b95b"
                    ]
                },
                "nodeType": 1
            }
        },
        "gasFlame": [
            {
                "children": [
                    {
                        "children": [
                            {
                                "children": [],
                                "depth": 0,
                                "name": "Initial Gas",
                                "value": 21720
                            },
                            {
                                "children": [
                                    {
                                        "children": [],
                                        "depth": 1,
                                        "name": "minus",
                                        "value": 336
                                    },
                                    {
                                        "children": [],
                                        "depth": 1,
                                        "name": "minus",
                                        "value": 336
                                    },
                                    {
                                        "children": [],
                                        "depth": 1,
                                        "name": "plus",
                                        "value": 356
                                    },
                                    {
                                        "children": [],
                                        "depth": 1,
                                        "name": "upgradeFrom",
                                        "value": 28118
                                    }
                                ],
                                "depth": 0,
                                "name": "Executed Gas",
                                "value": 55489
                            }
                        ],
                        "depth": -1,
                        "name": "Actual Gas Used",
                        "value": 62209
                    },
                    {
                        "children": [],
                        "depth": -1,
                        "name": "Refunded Gas",
                        "value": 15000
                    }
                ],
                "depth": -2,
                "name": "Total Gas",
                "value": 77209
            }
        ],
        "isConfirmed": true,
        "mainTrace": [
            {
                "children": [
                    {
                        "children": [
                            {
                                "children": [],
                                "depth": 1,
                                "id": 1,
                                "order": 1
                            },
                            {
                                "children": [],
                                "depth": 1,
                                "id": 2,
                                "order": 2
                            },
                            {
                                "children": [],
                                "depth": 1,
                                "id": 3,
                                "order": 3
                            },
                            {
                                "children": [
                                    {
                                        "children": [],
                                        "depth": 2,
                                        "id": 5,
                                        "order": 5
                                    }
                                ],
                                "depth": 1,
                                "id": 4,
                                "order": 4
                            },
                            {
                                "children": [],
                                "depth": 1,
                                "id": 6,
                                "order": 6
                            }
                        ],
                        "depth": 0,
                        "id": 0,
                        "order": 0
                    }
                ],
                "depth": -1,
                "id": -1,
                "order": -1
            }
        ],
        "mainTraceNodeCount": 7,
        "parentIdMap": {
            "0": -1,
            "1": 0,
            "2": 0,
            "3": 0,
            "4": 0,
            "5": 4,
            "6": 0
        },
        "tidyTrace": [
            {
                "children": [
                    {
                        "children": [
                            {
                                "children": [],
                                "depth": 1,
                                "id": 1,
                                "order": 1
                            },
                            {
                                "children": [],
                                "depth": 1,
                                "id": 2,
                                "order": 2
                            },
                            {
                                "children": [],
                                "depth": 1,
                                "id": 3,
                                "order": 3
                            },
                            {
                                "children": [
                                    {
                                        "children": [],
                                        "depth": 2,
                                        "id": 5,
                                        "order": 5
                                    }
                                ],
                                "depth": 1,
                                "id": 4,
                                "order": 4
                            },
                            {
                                "children": [],
                                "depth": 1,
                                "id": 6,
                                "order": 6
                            }
                        ],
                        "depth": 0,
                        "id": 0,
                        "order": 0
                    }
                ],
                "depth": -1,
                "id": -1,
                "order": -1
            }
        ],
        "tidyTraceNodeCount": 7
    },
    "state_change": {
        "stateChanges": [
            {
                "address": "0x4fe6ea636abe664e0268af373a10ca3621a0b95b",
                "erc": "ERC-20",
                "slots": [
                    {
                        "current": "0x00000000000000000000000000000000000000000000000011aef976f92582d9",
                        "key": "0x0000000000000000000000000000000000000000000000000000000000000000",
                        "prev": "0x00000000000000000000000000000000000000000000000011aea79c371de2d9"
                    },
                    {
                        "current": "0x000000000000000000000000000000000000000000000000000051dac207a000",
                        "key": "0x225cdb9b62e3eb8bc763e5df6ffec8569ba5d0f28997217758d2a6c23be90723",
                        "prev": "0x0000000000000000000000000000000000000000000000000000000000000000"
                    }
                ],
                "storageVariables": []
            },
            {
                "address": "0x807b9487aaf00629b674bd6d02e4917453bc5939",
                "erc": "ERC-20",
                "slots": [
                    {
                        "current": "0x0000000000000000000000000000000000000000000000000000000000000000",
                        "key": "0x225cdb9b62e3eb8bc763e5df6ffec8569ba5d0f28997217758d2a6c23be90723",
                        "prev": "0x000000000000000000000000000000000000000000000000000051dac207a000"
                    },
                    {
                        "current": "0x00000000000000000000000000000000000000000000000005009d1f7da7b663",
                        "key": "0x0000000000000000000000000000000000000000000000000000000000000000",
                        "prev": "0x0000000000000000000000000000000000000000000000000500eefa3faf5663"
                    },
                    {
                        "current": "0x00000000000000000000000000000000000000000000000011aef976f92582d9",
                        "key": "0x000000000000000000000000000000000000000000000000000000000000000a",
                        "prev": "0x00000000000000000000000000000000000000000000000011aea79c371de2d9"
                    }
                ],
                "storageVariables": []
            }
        ]
    }
}