{
    "balance_change": {
        "balanceChanges": [
            {
                "account": "0x7ad072163effc4ccc3c4230652cb30e4e25f2201",
                "assets": [
                    {
                        "address": "0xeeeeeeeeeeeeeeeeeeeeeeeeeeeeeeeeeeeeeeee",
                        "amount": "0.000777",
                        "iconUrl": "https://assets.blocksec.com/image/1663669189317-3.png",
                        "isERC1155": false,
                        "isERC721": false,
                        "sign": false,
                        "value": "1.3549015199999999929"
                    },
                    {
                        "address": "0x0bb12d00709ae3b02b90091e0475b8b0ddb7621d",
                        "amount": "1",
                        "iconUrl": "",
                        "isERC1155": false,
                        "isERC721": true,
                        "sign": true,
                        "tokenID": "55",
                        "value": ""
                    }
                ]
            },
            {
                "account": "0x0000000000000000000000000000000000000000",
                "assets": [
                    {
                        "address": "0x0bb12d00709ae3b02b90091e0475b8b0ddb7621d",
                        "amount": "1",
                        "iconUrl": "",
                        "isERC1155": false,
                        "isERC721": true,
                        "sign": false,
                        "tokenID": "55",
                        "value": ""
                    }
                ]
            },
            {
                "account": "0xd1d1d4e36117ab794ec5d4c78cbd3a8904e691d0",
                "assets": [
                    {
                        "address": "0xeeeeeeeeeeeeeeeeeeeeeeeeeeeeeeeeeeeeeeee",
                        "amount": "0.000777",
                        "iconUrl": "https://assets.blocksec.com/image/1663669189317-3.png",
                        "isERC1155": false,
                        "isERC721": false,
                        "sign": true,
                        "value": "1.3549015199999999929"
                    }
                ]
            }
        ]
    },
    "profile": {
        "basic_info": {
            "baseFee": "12.56763492",
            "blockNumber": 16907568,
            "callData": "0x25024a2b000000000000000000000000000000000000000000000000000000000000000100000000000000000000000000000000000000000000000000000000000000010000000000000000000000000000000000000000000000000000000000000000000000000000000000000000000000000000000000000000000000000000008000000000000000000000000000000000000000000000000000000000000000072f011ba92e2c4b7f8f6f429b4b41ebdf0fcb3e9440212cd00eea7d0771bec1e41d8d98eeea45ecab84397ff6dbadc9167ff19977c73a2ef1447b3f52661bac55b39b64bb68b004717eabb1310dd5053fecff5cb6e7c4576f04660225c40e662160754c6335f74aacfcb29633e0edba39407cd17f141a7094996db81c199f9d550254cdbe0c44319ad6a8cbda9a43265d95604fca14c602ec20cb8460a320f3fe4e89f21c7405a14a438d49a513677414084cfb0b03424a7c376184954b4958d492c8e3e99d4d5828fb5d0547dac14ffd42a5c42ccd93d8662d3cbe1338a17d23",
            "debugEnable": true,
            "errorInfo": "",
            "eventCount": 4,
            "feeRecipient": "0xa27cef8af2b6575903b676e5644657fae96f491f",
            "formatValue": "0.000777",
            "gasLimit": 143916,
            "gasPrice": "12.66763492",
            "gasUsed": 137260,
            "intTxnCount": 3,
            "internalRevert": false,
            "internalRevertMessage": "",
            "isContractCreation": false,
            "isFlashloan": false,
            "maxFee": "17.950195938",
            "nonce": 24,
            "overwritedBlockNumber": -1,
            "priorityFee": "0.1",
            "receiver": "0x0bb12d00709ae3b02b90091e0475b8b0ddb7621d",
            "revertMessage": "",
            "sender": "0x7ad072163effc4ccc3c4230652cb30e4e25f2201",
            "simulationEnable": true,
            "sourceTxnHash": "0x9ae15a3093cc0690b8141d8cd6595a46ed44e91f4a23707f0e4d6f8f18f6e926",
            "status": true,
            "timestamp": "2023-03-25T22:52:59Z",
            "transactionFee": "0.0017387595691192",
            "txnHash": "0x9ae15a3093cc0690b8141d8cd6595a46ed44e91f4a23707f0e4d6f8f18f6e926",
            "txnIndex": 125,
            "type": 2,
            "value": "777000000000000"
        },
        "fund_flow": [
            {
                "amount": "0.000777",
                "from": "0x7ad072163effc4ccc3c4230652cb30e4e25f2201",
                "id": 1,
                "isERC1155": false,
                "isERC721": false,
                "isReverted": false,
                "order": 1,
                "to": "0x0bb12d00709ae3b02b90091e0475b8b0ddb7621d",
                "token": "0xeeeeeeeeeeeeeeeeeeeeeeeeeeeeeeeeeeeeeeee"
            },
            {
                "amount": "1",
                "from": "0x0000000000000000000000000000000000000000",
                "id": 2,
                "isERC1155": false,
                "isERC721": true,
                "isReverted": false,
                "order": 2,
                "to": "0x7ad072163effc4ccc3c4230652cb30e4e25f2201",
                "token": "0x0bb12d00709ae3b02b90091e0475b8b0ddb7621d",
                "tokenID": "55"
            },
            {
                "amount": "0.000777",
                "from": "0x0bb12d00709ae3b02b90091e0475b8b0ddb7621d",
                "id": 3,
                "isERC1155": false,
                "isERC721": false,
                "isReverted": false,
                "order": 3,
                "to": "0xd1d1d4e36117ab794ec5d4c78cbd3a8904e691d0",
                "token": "0xeeeeeeeeeeeeeeeeeeeeeeeeeeeeeeeeeeeeeeee"
            }
        ],
        "token_infos": [
            {
                "address": "0xc02aaa39b223fe8d0a0e5c4f27ead9083c756cc2",
                "decimals": 18
            },
            {
                "address": "0xeeeeeeeeeeeeeeeeeeeeeeeeeeeeeeeeeeeeeeee",
                "decimals": 18
            }
        ]
    },
    "address_label": {
        "labels": [
            {
                "address": "0xd1d1d4e36117ab794ec5d4c78cbd3a8904e691d0",
                "label": "GnosisSafeProxy_d1d1_91d0"
            },
            {
                "address": "0x5eb5babcefea846b220c82f222f00df95934f5f0",
                "label": "ERC721Drop"
            },
            {
                "address": "0x0bb12d00709ae3b02b90091e0475b8b0ddb7621d",
                "label": "SynapticSanctuary (SYN)"
            },
            {
                "address": "0x0000000000000000000000000000000000000004",
                "label": "Precompiled"
            },
            {
                "address": "0xeeeeeeeeeeeeeeeeeeeeeeeeeeeeeeeeeeeeeeee",
                "label": "Ether"
            },
            {
                "address": "0xd9db270c1b5e3bd161e8c8503c55ceabee709552",
                "label": "Safe: Singleton 1.3.0"
            },
            {
                "address": "0x0000000000000000000000000000000000000001",
                "label": "Precompiled"
            },
            {
                "address": "0x0000000000000000000000000000000000000002",
                "label": "Precompiled"
            },
            {
                "address": "0x0000000000000000000000000000000000000003",
                "label": "Precompiled"
            }
        ]
    },
    "trace": {
        "accountLabels": null,
        "dataMap": {
            "-1": {
                "invocation": {
                    "address": "0x7ad072163effc4ccc3c4230652cb30e4e25f2201",
                    "callData": "",
                    "decodedMethod": null,
                    "errorInfo": "",
                    "fromAddress": "",
                    "gasUsed": 0,
                    "id": -1,
                    "methodDecoded": false,
                    "operation": "",
                    "output": "",
                    "revert": false,
                    "revertMessage": "",
                    "selector": "",
                    "status": false,
                    "value": ""
                },
                "nodeType": 0
            },
            "0": {
                "invocation": {
                    "address": "0x0bb12d00709ae3b02b90091e0475b8b0ddb7621d",
                    "callData": "0x000000000000000000000000000000000000000000000000000000000000000100000000000000000000000000000000000000000000000000000000000000010000000000000000000000000000000000000000000000000000000000000000000000000000000000000000000000000000000000000000000000000000008000000000000000000000000000000000000000000000000000000000000000072f011ba92e2c4b7f8f6f429b4b41ebdf0fcb3e9440212cd00eea7d0771bec1e41d8d98eeea45ecab84397ff6dbadc9167ff19977c73a2ef1447b3f52661bac55b39b64bb68b004717eabb1310dd5053fecff5cb6e7c4576f04660225c40e662160754c6335f74aacfcb29633e0edba39407cd17f141a7094996db81c199f9d550254cdbe0c44319ad6a8cbda9a43265d95604fca14c602ec20cb8460a320f3fe4e89f21c7405a14a438d49a513677414084cfb0b03424a7c376184954b4958d492c8e3e99d4d5828fb5d0547dac14ffd42a5c42ccd93d8662d3cbe1338a17d23",
                    "decodedMethod": {
                        "callParams": [
                            {
                                "name": "quantity",
                                "type": "uint256",
                                "value": "1"
                            },
                            {
                                "name": "maxQuantity",
                                "type": "uint256",
                                "value": "1"
                            },
                            {
                                "name": "pricePerToken",
                                "type": "uint256",
                                "value": "0"
                            },
                            {
                                "name": "merkleProof",
                                "type": "bytes32[]",
                                "value": [
                                    "0x2f011ba92e2c4b7f8f6f429b4b41ebdf0fcb3e9440212cd00eea7d0771bec1e4",
                                    "0x1d8d98eeea45ecab84397ff6dbadc9167ff19977c73a2ef1447b3f52661bac55",
                                    "0xb39b64bb68b004717eabb1310dd5053fecff5cb6e7c4576f04660225c40e6621",
                                    "0x60754c6335f74aacfcb29633e0edba39407cd17f141a7094996db81c199f9d55",
                                    "0x0254cdbe0c44319ad6a8cbda9a43265d95604fca14c602ec20cb8460a320f3fe",
                                    "0x4e89f21c7405a14a438d49a513677414084cfb0b03424a7c376184954b4958d4",
                                    "0x92c8e3e99d4d5828fb5d0547dac14ffd42a5c42ccd93d8662d3cbe1338a17d23"
                                ]
                            }
                        ],
                        "constructorArguments": "",
                        "name": "purchasePresale",
                        "returnParams": [
                            {
                                "name": "",
                                "type": "uint256",
                                "value": "54"
                            }
                        ],
                        "signature": "purchasePresale(uint256,uint256,uint256,bytes32[])"
                    },
                    "errorInfo": "",
                    "fromAddress": "0x7ad072163effc4ccc3c4230652cb30e4e25f2201",
                    "gasUsed": 137260,
                    "id": 0,
                    "methodDecoded": true,
                    "operation": "CALL",
                    "output": "0x0000000000000000000000000000000000000000000000000000000000000036",
                    "revert": false,
                    "revertMessage": "",
                    "selector": "0x25024a2b",
                    "status": true,
                    "value": "0.000777"
                },
                "nodeType": 0
            },
            "1": {
                "invocation": {
                    "address": "0x5eb5babcefea846b220c82f222f00df95934f5f0",
                    "callData": "0x000000000000000000000000000000000000000000000000000000000000000100000000000000000000000000000000000000000000000000000000000000010000000000000000000000000000000000000000000000000000000000000000000000000000000000000000000000000000000000000000000000000000008000000000000000000000000000000000000000000000000000000000000000072f011ba92e2c4b7f8f6f429b4b41ebdf0fcb3e9440212cd00eea7d0771bec1e41d8d98eeea45ecab84397ff6dbadc9167ff19977c73a2ef1447b3f52661bac55b39b64bb68b004717eabb1310dd5053fecff5cb6e7c4576f04660225c40e662160754c6335f74aacfcb29633e0edba39407cd17f141a7094996db81c199f9d550254cdbe0c44319ad6a8cbda9a43265d95604fca14c602ec20cb8460a320f3fe4e89f21c7405a14a438d49a513677414084cfb0b03424a7c376184954b4958d492c8e3e99d4d5828fb5d0547dac14ffd42a5c42ccd93d8662d3cbe1338a17d23",
                    "decodedMethod": {
                        "callParams": [
                            {
                                "name": "quantity",
                                "type": "uint256",
                                "value": "1"
                            },
                            {
                                "name": "maxQuantity",
                                "type": "uint256",
                                "value": "1"
                            },
                            {
                                "name": "pricePerToken",
                                "type": "uint256",
                                "value": "0"
                            },
                            {
                                "name": "merkleProof",
                                "type": "bytes32[]",
                                "value": [
                                    "0x2f011ba92e2c4b7f8f6f429b4b41ebdf0fcb3e9440212cd00eea7d0771bec1e4",
                                    "0x1d8d98eeea45ecab84397ff6dbadc9167ff19977c73a2ef1447b3f52661bac55",
                                    "0xb39b64bb68b004717eabb1310dd5053fecff5cb6e7c4576f04660225c40e6621",
                                    "0x60754c6335f74aacfcb29633e0edba39407cd17f141a7094996db81c199f9d55",
                                    "0x0254cdbe0c44319ad6a8cbda9a43265d95604fca14c602ec20cb8460a320f3fe",
                                    "0x4e89f21c7405a14a438d49a513677414084cfb0b03424a7c376184954b4958d4",
                                    "0x92c8e3e99d4d5828fb5d0547dac14ffd42a5c42ccd93d8662d3cbe1338a17d23"
                                ]
                            }
                        ],
                        "constructorArguments": "",
                        "name": "purchasePresale",
                        "returnParams": [
                            {
                                "name": "",
                                "type": "uint256",
                                "value": "54"
                            }
                        ],
                        "signature": "purchasePresale(uint256,uint256,uint256,bytes32[])"
                    },
                    "errorInfo": "",
                    "fromAddress": "0x0bb12d00709ae3b02b90091e0475b8b0ddb7621d",
                    "gasUsed": 109775,
                    "id": 1,
                    "methodDecoded": true,
                    "operation": "DELEGATECALL",
                    "output": "0x0000000000000000000000000000000000000000000000000000000000000036",
                    "revert": false,
                    "revertMessage": "",
                    "selector": "0x25024a2b",
                    "status": true,
                    "value": "0.000777"
                },
                "nodeType": 0
            },
            "2": {
                "event": {
                    "contract": "0x0bb12d00709ae3b02b90091e0475b8b0ddb7621d",
                    "decodedLog": {
                        "name": "Transfer",
                        "params": [
                            {
                                "name": "from",
                                "type": "address",
                                "value": "0x0000000000000000000000000000000000000000"
                            },
                            {
                                "name": "to",
                                "type": "address",
                                "value": "0x7ad072163effc4ccc3c4230652cb30e4e25f2201"
                            },
                            {
                                "decimalAvailable": true,
                                "name": "tokenId",
                                "type": "uint256",
                                "value": "55"
                            }
                        ],
                        "signature": "Transfer(address,address,uint256)"
                    },
                    "id": 2,
                    "logData": "0x",
                    "logDecoded": true,
                    "operation": "EVENT",
                    "revert": false,
                    "status": true,
                    "topics": [
                        "0xddf252ad1be2c89b69c2b068fc378daa952ba7f163c4a11628f55a4df523b3ef",
                        "0x0000000000000000000000000000000000000000000000000000000000000000",
                        "0x0000000000000000000000007ad072163effc4ccc3c4230652cb30e4e25f2201",
                        "0x0000000000000000000000000000000000000000000000000000000000000037"
                    ]
                },
                "nodeType": 1
            },
            "3": {
                "invocation": {
                    "address": "0xd1d1d4e36117ab794ec5d4c78cbd3a8904e691d0",
                    "callData": "0x",
                    "decodedMethod": null,
                    "errorInfo": "",
                    "fromAddress": "0x0bb12d00709ae3b02b90091e0475b8b0ddb7621d",
                    "gasUsed": 6329,
                    "id": 3,
                    "methodDecoded": false,
                    "operation": "CALL",
                    "output": "",
                    "revert": false,
                    "revertMessage": "",
                    "selector": "fallback",
                    "status": true,
                    "value": "0.000777"
                },
                "nodeType": 0
            },
            "4": {
                "invocation": {
                    "address": "0xd9db270c1b5e3bd161e8c8503c55ceabee709552",
                    "callData": "0x",
                    "decodedMethod": null,
                    "errorInfo": "",
                    "fromAddress": "0xd1d1d4e36117ab794ec5d4c78cbd3a8904e691d0",
                    "gasUsed": 1504,
                    "id": 4,
                    "methodDecoded": false,
                    "operation": "DELEGATECALL",
                    "output": "",
                    "revert": false,
                    "revertMessage": "",
                    "selector": "fallback",
                    "status": true,
                    "value": "0.000777"
                },
                "nodeType": 0
            },
            "5": {
                "event": {
                    "contract": "0xd1d1d4e36117ab794ec5d4c78cbd3a8904e691d0",
                    "decodedLog": {
                        "name": "SafeReceived",
                        "params": [
                            {
                                "name": "sender",
                                "type": "address",
                                "value": "0x0bb12d00709ae3b02b90091e0475b8b0ddb7621d"
                            },
                            {
                                "name": "value",
                                "type": "uint256",
                                "value": "777,000,000,000,000"
                            }
                        ],
                        "signature": "SafeReceived(address,uint256)"
                    },
                    "id": 5,
                    "logData": "0x0000000000000000000000000000000000000000000000000002c2ad68fd9000",
                    "logDecoded": true,
                    "operation": "EVENT",
                    "revert": false,
                    "status": true,
                    "topics": [
                        "0x3d0ce9bfc3ed7d6862dbb28b2dea94561fe714a1b4d019aa8af39730d1ad7c3d",
                        "0x0000000000000000000000000bb12d00709ae3b02b90091e0475b8b0ddb7621d"
                    ]
                },
                "nodeType": 1
            },
            "6": {
                "event": {
                    "contract": "0x0bb12d00709ae3b02b90091e0475b8b0ddb7621d",
                    "decodedLog": {
                        "name": "MintFeePayout",
                        "params": [
                            {
                                "name": "mintFeeAmount",
                                "type": "uint256",
                                "value": "777,000,000,000,000"
                            },
                            {
                                "name": "mintFeeRecipient",
                                "type": "address",
                                "value": "0xd1d1d4e36117ab794ec5d4c78cbd3a8904e691d0"
                            },
                            {
                                "name": "success",
                                "type": "bool",
                                "value": true
                            }
                        ],
                        "signature": "MintFeePayout(uint256,address,bool)"
                    },
                    "id": 6,
                    "logData": "0x0000000000000000000000000000000000000000000000000002c2ad68fd9000000000000000000000000000d1d1d4e36117ab794ec5d4c78cbd3a8904e691d00000000000000000000000000000000000000000000000000000000000000001",
                    "logDecoded": true,
                    "operation": "EVENT",
                    "revert": false,
                    "status": true,
                    "topics": [
                        "0x6f8da53cfedb8cc4f7935c3629624e50b63053c93bb2cad246aa4d3a2ba7d4ce"
                    ]
                },
                "nodeType": 1
            },
            "7": {
                "event": {
                    "contract": "0x0bb12d00709ae3b02b90091e0475b8b0ddb7621d",
                    "decodedLog": {
                        "name": "Sale",
                        "params": [
                            {
                                "name": "to",
                                "type": "address",
                                "value": "0x7ad072163effc4ccc3c4230652cb30e4e25f2201"
                            },
                            {
                                "name": "quantity",
                                "type": "uint256",
                                "value": "1"
                            },
                            {
                                "name": "pricePerToken",
                                "type": "uint256",
                                "value": "0"
                            },
                            {
                                "name": "firstPurchasedTokenId",
                                "type": "uint256",
                                "value": "54"
                            }
                        ],
                        "signature": "Sale(address,uint256,uint256,uint256)"
                    },
                    "id": 7,
                    "logData": "0x0000000000000000000000000000000000000000000000000000000000000036",
                    "logDecoded": true,
                    "operation": "EVENT",
                    "revert": false,
                    "status": true,
                    "topics": [
                        "0x4e26b0356a15833a75d497ecc40ebbb716b99466ed0dba9454f1fff451e25a90",
                        "0x0000000000000000000000007ad072163effc4ccc3c4230652cb30e4e25f2201",
                        "0x0000000000000000000000000000000000000000000000000000000000000001",
                        "0x0000000000000000000000000000000000000000000000000000000000000000"
                    ]
                },
                "nodeType": 1
            }
        },
        "gasFlame": [
            {
                "children": [
                    {
                        "children": [
                            {
                                "children": [],
                                "depth": 0,
                                "name": "Initial Gas",
                                "value": 25336
                            },
                            {
                                "children": [
                                    {
                                        "children": [
                                            {
                                                "children": [
                                                    {
                                                        "children": [],
                                                        "depth": 3,
                                                        "name": "fallback",
                                                        "value": 1504
                                                    }
                                                ],
                                                "depth": 2,
                                                "name": "fallback",
                                                "value": 6329
                                            }
                                        ],
                                        "depth": 1,
                                        "name": "purchasePresale",
                                        "value": 109775
                                    }
                                ],
                                "depth": 0,
                                "name": "Executed Gas",
                                "value": 114724
                            }
                        ],
                        "depth": -1,
                        "name": "Actual Gas Used",
                        "value": 137260
                    },
                    {
                        "children": [],
                        "depth": -1,
                        "name": "Refunded Gas",
                        "value": 2800
                    }
                ],
                "depth": -2,
                "name": "Total Gas",
                "value": 140060
            }
        ],
        "isConfirmed": true,
        "mainTrace": [
            {
                "children": [
                    {
                        "children": [
                            {
                                "children": [
                                    {
                                        "children": [],
                                        "depth": 2,
                                        "id": 2,
                                        "order": 2
                                    },
                                    {
                                        "children": [
                                            {
                                                "children": [
                                                    {
                                                        "children": [],
                                                        "depth": 4,
                                                        "id": 5,
                                                        "order": 5
                                                    }
                                                ],
                                                "depth": 3,
                                                "id": 4,
                                                "order": 4
                                            }
                                        ],
                                        "depth": 2,
                                        "id": 3,
                                        "order": 3
                                    },
                                    {
                                        "children": [],
                                        "depth": 2,
                                        "id": 6,
                                        "order": 6
                                    },
                                    {
                                        "children": [],
                                        "depth": 2,
                                        "id": 7,
                                        "order": 7
                                    }
                                ],
                                "depth": 1,
                                "id": 1,
                                "order": 1
                            }
                        ],
                        "depth": 0,
                        "id": 0,
                        "order": 0
                    }
                ],
                "depth": -1,
                "id": -1,
                "order": -1
            }
        ],
        "mainTraceNodeCount": 8,
        "parentIdMap": {
            "0": -1,
            "1": 0,
            "2": 1,
            "3": 1,
            "4": 3,
            "5": 4,
            "6": 1,
            "7": 1
        },
        "tidyTrace": [
            {
                "children": [
                    {
                        "children": [
                            {
                                "children": [
                                    {
                                        "children": [],
                                        "depth": 2,
                                        "id": 2,
                                        "order": 2
                                    },
                                    {
                                        "children": [
                                            {
                                                "children": [
                                                    {
                                                        "children": [],
                                                        "depth": 4,
                                                        "id": 5,
                                                        "order": 5
                                                    }
                                                ],
                                                "depth": 3,
                                                "id": 4,
                                                "order": 4
                                            }
                                        ],
                                        "depth": 2,
                                        "id": 3,
                                        "order": 3
                                    },
                                    {
                                        "children": [],
                                        "depth": 2,
                                        "id": 6,
                                        "order": 6
                                    },
                                    {
                                        "children": [],
                                        "depth": 2,
                                        "id": 7,
                                        "order": 7
                                    }
                                ],
                                "depth": 1,
                                "id": 1,
                                "order": 1
                            }
                        ],
                        "depth": 0,
                        "id": 0,
                        "order": 0
                    }
                ],
                "depth": -1,
                "id": -1,
                "order": -1
            }
        ],
        "tidyTraceNodeCount": 8
    },
    "state_change": {
        "stateChanges": [
            {
                "address": "0x0bb12d00709ae3b02b90091e0475b8b0ddb7621d",
                "erc": "ERC-721",
                "slots": [
                    {
                        "current": "0x0000000000000000000000000000000000000000000000010000000000000001",
                        "key": "0xa8174ed337b634a473f947cabc8a801c374d71211e232c965d5f08f141f0cb0c",
                        "prev": "0x0000000000000000000000000000000000000000000000000000000000000000"
                    },
                    {
                        "current": "0x0000000000000000641f7b4b7ad072163effc4ccc3c4230652cb30e4e25f2201",
                        "key": "0x69273a56457376e766647352827df4c4ba21de6257d791d1efa3d71d895b0788",
                        "prev": "0x0000000000000000000000000000000000000000000000000000000000000000"
                    },
                    {
                        "current": "0x0000000000000000000000000000000000000000000000000000000000000038",
                        "key": "0x0000000000000000000000000000000000000000000000000000000000000065",
                        "prev": "0x0000000000000000000000000000000000000000000000000000000000000037"
                    },
                    {
                        "current": "0x0000000000000000000000000000000000000000000000000000000000000001",
                        "key": "0x13efdae60fbe3d3df3af5fd36d276b8c66ce5991aa551966d7805fb8c83a6e25",
                        "prev": "0x0000000000000000000000000000000000000000000000000000000000000000"
                    }
                ],
                "storageVariables": [
                    {
                        "name": "presaleMintsByAddress",
                        "type": "mapping(address => uint256)",
                        "value": {
                            "pairs": [
                                {
                                    "key": "0x7ad072163effc4ccc3c4230652cb30e4e25f2201",
                                    "value": {
                                        "current": "1",
                                        "prev": "0",
                                        "typeTag": 1
                                    }
                                }
                            ],
                            "typeTag": 4
                        }
                    },
                    {
                        "name": "_addressData",
                        "type": "mapping(address => struct IERC721AUpgradeable.AddressData)",
                        "value": {
                            "pairs": [
                                {
                                    "key": "0x7ad072163effc4ccc3c4230652cb30e4e25f2201",
                                    "value": {
                                        "fields": [
                                            {
                                                "name": "balance",
                                                "type": "uint64",
                                                "value": {
                                                    "current": "1",
                                                    "prev": "0",
                                                    "typeTag": 1
                                                }
                                            },
                                            {
                                                "name": "numberMinted",
                                                "type": "uint64",
                                                "value": {
                                                    "current": "1",
                                                    "prev": "0",
                                                    "typeTag": 1
                                                }
                                            },
                                            {
                                                "name": "numberBurned",
                                                "type": "uint64",
                                                "value": {
                                                    "current": "0",
                                                    "prev": "0",
                                                    "typeTag": 1
                                                }
                                            },
                                            {
                                                "name": "aux",
                                                "type": "uint64",
                                                "value": {
                                                    "current": "0",
                                                    "prev": "0",
                                                    "typeTag": 1
                                                }
                                            }
                                        ],
                                        "typeTag": 3
                                    }
                                }
                            ],
                            "typeTag": 4
                        }
                    },
                    {
                        "name": "_ownerships",
                        "type": "mapping(uint256 => struct IERC721AUpgradeable.TokenOwnership)",
                        "value": {
                            "pairs": [
                                {
                                    "key": "55",
                                    "value": {
                                        "fields": [
                                            {
                                                "name": "addr",
                                                "type": "address",
                                                "value": {
                                                    "current": "0x7ad072163effc4ccc3c4230652cb30e4e25f2201",
                                                    "prev": "0x0000000000000000000000000000000000000000",
                                                    "typeTag": 1
                                                }
                                            },
                                            {
                                                "name": "startTimestamp",
                                                "type": "uint64",
                                                "value": {
                                                    "current": "1679784779",
                                                    "prev": "0",
                                                    "typeTag": 1
                                                }
                                            },
                                            {
                                                "name": "burned",
                                                "type": "bool",
                                                "value": {
                                                    "current": "false",
                                                    "prev": "false",
                                                    "typeTag": 1
                                                }
                                            }
                                        ],
                                        "typeTag": 3
                                    }
                                }
                            ],
                            "typeTag": 4
                        }
                    },
                    {
                        "name": "_currentIndex",
                        "type": "uint256",
                        "value": {
                            "current": "56",
                            "prev": "55",
                            "typeTag": 1
                        }
                    }
                ]
            }
        ]
    }
}