{
    "balance_change": {
        "balanceChanges": [
            {
                "account": "0x6cd72b1e6e300340a48943d6af34ef5ae07d3577",
                "assets": [
                    {
                        "address": "0xeeeeeeeeeeeeeeeeeeeeeeeeeeeeeeeeeeeeeeee",
                        "amount": "0.02024528",
                        "iconUrl": "https://assets.blocksec.com/image/1663669189317-3.png",
                        "isERC1155": false,
                        "isERC721": false,
                        "sign": false,
                        "value": "69.63364056"
                    }
                ]
            },
            {
                "account": "0x6774bcbd5cecef1336b5300fb5186a12ddd8b367",
                "assets": [
                    {
                        "address": "0xeeeeeeeeeeeeeeeeeeeeeeeeeeeeeeeeeeeeeeee",
                        "amount": "0.02",
                        "iconUrl": "https://assets.blocksec.com/image/1663669189317-3.png",
                        "isERC1155": false,
                        "isERC721": false,
                        "sign": true,
                        "value": "68.79"
                    }
                ]
            },
            {
                "account": "0x8fa3b4570b4c96f8036c13b64971ba65867eeb48",
                "assets": [
                    {
                        "address": "0xeeeeeeeeeeeeeeeeeeeeeeeeeeeeeeeeeeeeeeee",
                        "amount": "0.00024528",
                        "iconUrl": "https://assets.blocksec.com/image/1663669189317-3.png",
                        "isERC1155": false,
                        "isERC721": false,
                        "sign": true,
                        "value": "0.84364056"
                    }
                ]
            }
        ]
    },
    "profile": {
        "basic_info": {
            "baseFee": "40.944438298",
            "blockNumber": 19625353,
            "callData": "0xb2267a7b0000000000000000000000006cd72b1e6e300340a48943d6af34ef5ae07d357700000000000000000000000000000000000000000000000000470de4df820000000000000000000000000000000000000000000000000000000000000000008000000000000000000000000000000000000000000000000000000000000290400000000000000000000000000000000000000000000000000000000000000000",
            "debugEnable": true,
            "errorInfo": "",
            "eventCount": 3,
            "feeRecipient": "0x4838b106fce9647bdf1e7877bf73ce8b0bad5f97",
            "formatValue": "0.020294336",
            "gasLimit": 146036,
            "gasPrice": "40.945438298",
            "gasUsed": 138655,
            "intTxnCount": 10,
            "internalRevert": false,
            "internalRevertMessage": "",
            "isContractCreation": false,
            "isFlashloan": false,
            "maxFee": "43.487870839",
            "nonce": 248,
            "overwritedBlockNumber": -1,
            "priorityFee": "0.001",
            "receiver": "0x6774bcbd5cecef1336b5300fb5186a12ddd8b367",
            "revertMessage": "",
            "sender": "0x6cd72b1e6e300340a48943d6af34ef5ae07d3577",
            "simulationEnable": true,
            "sourceTxnHash": "0x9ab4a863259557c84ff6b4ee5ed2388ee4f4e9807e8138a2b61788b0babdc697",
            "status": true,
            "timestamp": "2024-04-10T12:53:47Z",
            "transactionFee": "0.00567728974720919",
            "txnHash": "0x9ab4a863259557c84ff6b4ee5ed2388ee4f4e9807e8138a2b61788b0babdc697",
            "txnIndex": 132,
            "type": 2,
            "value": "20294336000000000"
        },
        "fund_flow": [
            {
                "amount": "0.020294336",
                "from": "0x6cd72b1e6e300340a48943d6af34ef5ae07d3577",
                "id": 1,
                "isERC1155": false,
                "isERC721": false,
                "isReverted": false,
                "order": 1,
                "to": "0x6774bcbd5cecef1336b5300fb5186a12ddd8b367",
                "token": "0xeeeeeeeeeeeeeeeeeeeeeeeeeeeeeeeeeeeeeeee"
            },
            {
                "amount": "0.00024528",
                "from": "0x6774bcbd5cecef1336b5300fb5186a12ddd8b367",
                "id": 2,
                "isERC1155": false,
                "isERC721": false,
                "isReverted": false,
                "order": 2,
                "to": "0x8fa3b4570b4c96f8036c13b64971ba65867eeb48",
                "token": "0xeeeeeeeeeeeeeeeeeeeeeeeeeeeeeeeeeeeeeeee"
            },
            {
                "amount": "0.000049056",
                "from": "0x6774bcbd5cecef1336b5300fb5186a12ddd8b367",
                "id": 3,
                "isERC1155": false,
                "isERC721": false,
                "isReverted": false,
                "order": 3,
                "to": "0x6cd72b1e6e300340a48943d6af34ef5ae07d3577",
                "token": "0xeeeeeeeeeeeeeeeeeeeeeeeeeeeeeeeeeeeeeeee"
            }
        ],
        "token_infos": [
            {
                "address": "0xc02aaa39b223fe8d0a0e5c4f27ead9083c756cc2",
                "decimals": 18
            },
            {
                "address": "0xeeeeeeeeeeeeeeeeeeeeeeeeeeeeeeeeeeeeeeee",
                "decimals": 18
            }
        ]
    },
    "address_label": {
        "labels": [
            {
                "address": "0x0000000000000000000000000000000000000002",
                "label": "Precompiled"
            },
            {
                "address": "0x0000000000000000000000000000000000000003",
                "label": "Precompiled"
            },
            {
                "address": "0x8fa3b4570b4c96f8036c13b64971ba65867eeb48",
                "label": "GnosisSafeProxy_8fa3_eb48"
            },
            {
                "address": "0xebaed7a81c298b24ee6d59c22698a951dc448e01",
                "label": "L1MessageQueueWithGasPriceOracle"
            },
            {
                "address": "0x72981fd00087ff4f60abfde9f353cb1912a37fb6",
                "label": "L1ScrollMessenger"
            },
            {
                "address": "0x0000000000000000000000000000000000000001",
                "label": "Precompiled"
            },
            {
                "address": "0xeeeeeeeeeeeeeeeeeeeeeeeeeeeeeeeeeeeeeeee",
                "label": "Ether"
            },
            {
                "address": "0xd9db270c1b5e3bd161e8c8503c55ceabee709552",
                "label": "Safe: Singleton 1.3.0"
            },
            {
                "address": "0x0d7e906bd9cafa154b048cfa766cc1e54e39af9b",
                "label": "Scroll: L1 Message Queue Proxy"
            },
            {
                "address": "0x6774bcbd5cecef1336b5300fb5186a12ddd8b367",
                "label": "Scroll: L1 Scroll Messenger Proxy"
            },
            {
                "address": "0x0000000000000000000000000000000000000004",
                "label": "Precompiled"
            }
        ]
    },
    "trace": {
        "accountLabels": null,
        "dataMap": {
            "-1": {
                "invocation": {
                    "address": "0x6cd72b1e6e300340a48943d6af34ef5ae07d3577",
                    "callData": "",
                    "decodedMethod": null,
                    "errorInfo": "",
                    "fromAddress": "",
                    "gasUsed": 0,
                    "id": -1,
                    "methodDecoded": false,
                    "operation": "",
                    "output": "",
                    "revert": false,
                    "revertMessage": "",
                    "selector": "",
                    "status": false,
                    "value": ""
                },
                "nodeType": 0
            },
            "0": {
                "invocation": {
                    "address": "0x6774bcbd5cecef1336b5300fb5186a12ddd8b367",
                    "callData": "0x0000000000000000000000006cd72b1e6e300340a48943d6af34ef5ae07d357700000000000000000000000000000000000000000000000000470de4df820000000000000000000000000000000000000000000000000000000000000000008000000000000000000000000000000000000000000000000000000000000290400000000000000000000000000000000000000000000000000000000000000000",
                    "decodedMethod": {
                        "callParams": [
                            {
                                "name": "_to",
                                "type": "address",
                                "value": "0x6cd72b1e6e300340a48943d6af34ef5ae07d3577"
                            },
                            {
                                "name": "_value",
                                "type": "uint256",
                                "value": "20,000,000,000,000,000"
                            },
                            {
                                "name": "_message",
                                "type": "bytes",
                                "value": "0x"
                            },
                            {
                                "name": "_gasLimit",
                                "type": "uint256",
                                "value": "168,000"
                            }
                        ],
                        "constructorArguments": "",
                        "name": "sendMessage",
                        "returnParams": [],
                        "signature": "sendMessage(address,uint256,bytes,uint256)"
                    },
                    "errorInfo": "",
                    "fromAddress": "0x6cd72b1e6e300340a48943d6af34ef5ae07d3577",
                    "gasUsed": 138655,
                    "id": 0,
                    "methodDecoded": true,
                    "operation": "CALL",
                    "output": "",
                    "revert": false,
                    "revertMessage": "",
                    "selector": "0xb2267a7b",
                    "status": true,
                    "value": "0.020294336"
                },
                "nodeType": 0
            },
            "1": {
                "invocation": {
                    "address": "0x72981fd00087ff4f60abfde9f353cb1912a37fb6",
                    "callData": "0x0000000000000000000000006cd72b1e6e300340a48943d6af34ef5ae07d357700000000000000000000000000000000000000000000000000470de4df820000000000000000000000000000000000000000000000000000000000000000008000000000000000000000000000000000000000000000000000000000000290400000000000000000000000000000000000000000000000000000000000000000",
                    "decodedMethod": {
                        "callParams": [
                            {
                                "name": "_to",
                                "type": "address",
                                "value": "0x6cd72b1e6e300340a48943d6af34ef5ae07d3577"
                            },
                            {
                                "name": "_value",
                                "type": "uint256",
                                "value": "20,000,000,000,000,000"
                            },
                            {
                                "name": "_message",
                                "type": "bytes",
                                "value": "0x"
                            },
                            {
                                "name": "_gasLimit",
                                "type": "uint256",
                                "value": "168,000"
                            }
                        ],
                        "constructorArguments": "",
                        "name": "sendMessage",
                        "returnParams": [],
                        "signature": "sendMessage(address,uint256,bytes,uint256)"
                    },
                    "errorInfo": "",
                    "fromAddress": "0x6774bcbd5cecef1336b5300fb5186a12ddd8b367",
                    "gasUsed": 112246,
                    "id": 1,
                    "methodDecoded": true,
                    "operation": "DELEGATECALL",
                    "output": "",
                    "revert": false,
                    "revertMessage": "",
                    "selector": "0xb2267a7b",
                    "status": true,
                    "value": "0.020294336"
                },
                "nodeType": 0
            },
            "10": {
                "invocation": {
                    "address": "0xebaed7a81c298b24ee6d59c22698a951dc448e01",
                    "callData": "0x000000000000000000000000781e90f1c8fc4611c9b7497c3b47f99ef6969cbc0000000000000000000000000000000000000000000000000000000000029040000000000000000000000000000000000000000000000000000000000000006000000000000000000000000000000000000000000000000000000000000000c48ef1332e0000000000000000000000006cd72b1e6e300340a48943d6af34ef5ae07d35770000000000000000000000006cd72b1e6e300340a48943d6af34ef5ae07d357700000000000000000000000000000000000000000000000000470de4df8200000000000000000000000000000000000000000000000000000000000000046fdf00000000000000000000000000000000000000000000000000000000000000a0000000000000000000000000000000000000000000000000000000000000000000000000000000000000000000000000000000000000000000000000",
                    "decodedMethod": {
                        "callParams": [
                            {
                                "name": "_target",
                                "type": "address",
                                "value": "0x781e90f1c8fc4611c9b7497c3b47f99ef6969cbc"
                            },
                            {
                                "name": "_gasLimit",
                                "type": "uint256",
                                "value": "168,000"
                            },
                            {
                                "name": "_data",
                                "type": "bytes",
                                "value": "0x8ef1332e0000000000000000000000006cd72b1e6e300340a48943d6af34ef5ae07d35770000000000000000000000006cd72b1e6e300340a48943d6af34ef5ae07d357700000000000000000000000000000000000000000000000000470de4df8200000000000000000000000000000000000000000000000000000000000000046fdf00000000000000000000000000000000000000000000000000000000000000a00000000000000000000000000000000000000000000000000000000000000000"
                            }
                        ],
                        "constructorArguments": "",
                        "name": "appendCrossDomainMessage",
                        "returnParams": [],
                        "signature": "appendCrossDomainMessage(address,uint256,bytes)"
                    },
                    "errorInfo": "",
                    "fromAddress": "0x0d7e906bd9cafa154b048cfa766cc1e54e39af9b",
                    "gasUsed": 35209,
                    "id": 10,
                    "methodDecoded": true,
                    "operation": "DELEGATECALL",
                    "output": "",
                    "revert": false,
                    "revertMessage": "",
                    "selector": "0x9b159782",
                    "status": true,
                    "value": "0"
                },
                "nodeType": 0
            },
            "11": {
                "event": {
                    "contract": "0x0d7e906bd9cafa154b048cfa766cc1e54e39af9b",
                    "decodedLog": {
                        "name": "QueueTransaction",
                        "params": [
                            {
                                "name": "sender",
                                "type": "address",
                                "value": "0x7885bcbd5cecef1336b5300fb5186a12ddd8c478"
                            },
                            {
                                "name": "target",
                                "type": "address",
                                "value": "0x781e90f1c8fc4611c9b7497c3b47f99ef6969cbc"
                            },
                            {
                                "name": "value",
                                "type": "uint256",
                                "value": "0"
                            },
                            {
                                "name": "queueIndex",
                                "type": "uint64",
                                "value": "290,783"
                            },
                            {
                                "name": "gasLimit",
                                "type": "uint256",
                                "value": "168,000"
                            },
                            {
                                "name": "data",
                                "type": "bytes",
                                "value": "0x8ef1332e0000000000000000000000006cd72b1e6e300340a48943d6af34ef5ae07d35770000000000000000000000006cd72b1e6e300340a48943d6af34ef5ae07d357700000000000000000000000000000000000000000000000000470de4df8200000000000000000000000000000000000000000000000000000000000000046fdf00000000000000000000000000000000000000000000000000000000000000a00000000000000000000000000000000000000000000000000000000000000000"
                            }
                        ],
                        "signature": "QueueTransaction(address,address,uint256,uint64,uint256,bytes)"
                    },
                    "id": 11,
                    "logData": "0x00000000000000000000000000000000000000000000000000000000000000000000000000000000000000000000000000000000000000000000000000046fdf0000000000000000000000000000000000000000000000000000000000029040000000000000000000000000000000000000000000000000000000000000008000000000000000000000000000000000000000000000000000000000000000c48ef1332e0000000000000000000000006cd72b1e6e300340a48943d6af34ef5ae07d35770000000000000000000000006cd72b1e6e300340a48943d6af34ef5ae07d357700000000000000000000000000000000000000000000000000470de4df8200000000000000000000000000000000000000000000000000000000000000046fdf00000000000000000000000000000000000000000000000000000000000000a0000000000000000000000000000000000000000000000000000000000000000000000000000000000000000000000000000000000000000000000000",
                    "logDecoded": true,
                    "operation": "EVENT",
                    "revert": false,
                    "status": true,
                    "topics": [
                        "0x69cfcb8e6d4192b8aba9902243912587f37e550d75c1fa801491fce26717f37e",
                        "0x0000000000000000000000007885bcbd5cecef1336b5300fb5186a12ddd8c478",
                        "0x000000000000000000000000781e90f1c8fc4611c9b7497c3b47f99ef6969cbc"
                    ]
                },
                "nodeType": 1
            },
            "12": {
                "event": {
                    "contract": "0x6774bcbd5cecef1336b5300fb5186a12ddd8b367",
                    "decodedLog": {
                        "name": "SentMessage",
                        "params": [
                            {
                                "name": "sender",
                                "type": "address",
                                "value": "0x6cd72b1e6e300340a48943d6af34ef5ae07d3577"
                            },
                            {
                                "name": "target",
                                "type": "address",
                                "value": "0x6cd72b1e6e300340a48943d6af34ef5ae07d3577"
                            },
                            {
                                "name": "value",
                                "type": "uint256",
                                "value": "20,000,000,000,000,000"
                            },
                            {
                                "name": "messageNonce",
                                "type": "uint256",
                                "value": "290,783"
                            },
                            {
                                "name": "gasLimit",
                                "type": "uint256",
                                "value": "168,000"
                            },
                            {
                                "name": "message",
                                "type": "bytes",
                                "value": "0x"
                            }
                        ],
                        "signature": "SentMessage(address,address,uint256,uint256,uint256,bytes)"
                    },
                    "id": 12,
                    "logData": "0x00000000000000000000000000000000000000000000000000470de4df8200000000000000000000000000000000000000000000000000000000000000046fdf000000000000000000000000000000000000000000000000000000000002904000000000000000000000000000000000000000000000000000000000000000800000000000000000000000000000000000000000000000000000000000000000",
                    "logDecoded": true,
                    "operation": "EVENT",
                    "revert": false,
                    "status": true,
                    "topics": [
                        "0x104371f3b442861a2a7b82a070afbbaab748bb13757bf47769e170e37809ec1e",
                        "0x0000000000000000000000006cd72b1e6e300340a48943d6af34ef5ae07d3577",
                        "0x0000000000000000000000006cd72b1e6e300340a48943d6af34ef5ae07d3577"
                    ]
                },
                "nodeType": 1
            },
            "13": {
                "invocation": {
                    "address": "0x6cd72b1e6e300340a48943d6af34ef5ae07d3577",
                    "callData": "0x",
                    "decodedMethod": null,
                    "errorInfo": "",
                    "fromAddress": "0x6774bcbd5cecef1336b5300fb5186a12ddd8b367",
                    "gasUsed": 0,
                    "id": 13,
                    "methodDecoded": false,
                    "operation": "CALL",
                    "output": "",
                    "revert": false,
                    "revertMessage": "",
                    "selector": "fallback",
                    "status": true,
                    "value": "0.000049056"
                },
                "nodeType": 0
            },
            "2": {
                "invocation": {
                    "address": "0x0d7e906bd9cafa154b048cfa766cc1e54e39af9b",
                    "callData": "0x",
                    "decodedMethod": {
                        "callParams": [],
                        "constructorArguments": "",
                        "name": "nextCrossDomainMessageIndex",
                        "returnParams": [
                            {
                                "name": "",
                                "type": "uint256",
                                "value": "290,783"
                            }
                        ],
                        "signature": "nextCrossDomainMessageIndex()"
                    },
                    "errorInfo": "",
                    "fromAddress": "0x6774bcbd5cecef1336b5300fb5186a12ddd8b367",
                    "gasUsed": 9527,
                    "id": 2,
                    "methodDecoded": true,
                    "operation": "STATICCALL",
                    "output": "0x0000000000000000000000000000000000000000000000000000000000046fdf",
                    "revert": false,
                    "revertMessage": "",
                    "selector": "0xfd0ad31e",
                    "status": true,
                    "value": "0"
                },
                "nodeType": 0
            },
            "3": {
                "invocation": {
                    "address": "0xebaed7a81c298b24ee6d59c22698a951dc448e01",
                    "callData": "0x",
                    "decodedMethod": {
                        "callParams": [],
                        "constructorArguments": "",
                        "name": "nextCrossDomainMessageIndex",
                        "returnParams": [
                            {
                                "name": "",
                                "type": "uint256",
                                "value": "290,783"
                            }
                        ],
                        "signature": "nextCrossDomainMessageIndex()"
                    },
                    "errorInfo": "",
                    "fromAddress": "0x0d7e906bd9cafa154b048cfa766cc1e54e39af9b",
                    "gasUsed": 2391,
                    "id": 3,
                    "methodDecoded": true,
                    "operation": "DELEGATECALL",
                    "output": "0x0000000000000000000000000000000000000000000000000000000000046fdf",
                    "revert": false,
                    "revertMessage": "",
                    "selector": "0xfd0ad31e",
                    "status": true,
                    "value": "0"
                },
                "nodeType": 0
            },
            "4": {
                "invocation": {
                    "address": "0x0d7e906bd9cafa154b048cfa766cc1e54e39af9b",
                    "callData": "0x0000000000000000000000000000000000000000000000000000000000029040",
                    "decodedMethod": {
                        "callParams": [
                            {
                                "name": "_gasLimit",
                                "type": "uint256",
                                "value": "168,000"
                            }
                        ],
                        "constructorArguments": "",
                        "name": "estimateCrossDomainMessageFee",
                        "returnParams": [
                            {
                                "name": "",
                                "type": "uint256",
                                "value": "245,280,000,000,000"
                            }
                        ],
                        "signature": "estimateCrossDomainMessageFee(uint256)"
                    },
                    "errorInfo": "",
                    "fromAddress": "0x6774bcbd5cecef1336b5300fb5186a12ddd8b367",
                    "gasUsed": 3184,
                    "id": 4,
                    "methodDecoded": true,
                    "operation": "STATICCALL",
                    "output": "0x0000000000000000000000000000000000000000000000000000df14b3454000",
                    "revert": false,
                    "revertMessage": "",
                    "selector": "0xd7704bae",
                    "status": true,
                    "value": "0"
                },
                "nodeType": 0
            },
            "5": {
                "invocation": {
                    "address": "0xebaed7a81c298b24ee6d59c22698a951dc448e01",
                    "callData": "0x0000000000000000000000000000000000000000000000000000000000029040",
                    "decodedMethod": {
                        "callParams": [
                            {
                                "name": "_gasLimit",
                                "type": "uint256",
                                "value": "168,000"
                            }
                        ],
                        "constructorArguments": "",
                        "name": "estimateCrossDomainMessageFee",
                        "returnParams": [
                            {
                                "name": "",
                                "type": "uint256",
                                "value": "245,280,000,000,000"
                            }
                        ],
                        "signature": "estimateCrossDomainMessageFee(uint256)"
                    },
                    "errorInfo": "",
                    "fromAddress": "0x0d7e906bd9cafa154b048cfa766cc1e54e39af9b",
                    "gasUsed": 2545,
                    "id": 5,
                    "methodDecoded": true,
                    "operation": "DELEGATECALL",
                    "output": "0x0000000000000000000000000000000000000000000000000000df14b3454000",
                    "revert": false,
                    "revertMessage": "",
                    "selector": "0xd7704bae",
                    "status": true,
                    "value": "0"
                },
                "nodeType": 0
            },
            "6": {
                "invocation": {
                    "address": "0x8fa3b4570b4c96f8036c13b64971ba65867eeb48",
                    "callData": "0x",
                    "decodedMethod": null,
                    "errorInfo": "",
                    "fromAddress": "0x6774bcbd5cecef1336b5300fb5186a12ddd8b367",
                    "gasUsed": 6329,
                    "id": 6,
                    "methodDecoded": false,
                    "operation": "CALL",
                    "output": "",
                    "revert": false,
                    "revertMessage": "",
                    "selector": "fallback",
                    "status": true,
                    "value": "0.00024528"
                },
                "nodeType": 0
            },
            "7": {
                "invocation": {
                    "address": "0xd9db270c1b5e3bd161e8c8503c55ceabee709552",
                    "callData": "0x",
                    "decodedMethod": null,
                    "errorInfo": "",
                    "fromAddress": "0x8fa3b4570b4c96f8036c13b64971ba65867eeb48",
                    "gasUsed": 1504,
                    "id": 7,
                    "methodDecoded": false,
                    "operation": "DELEGATECALL",
                    "output": "",
                    "revert": false,
                    "revertMessage": "",
                    "selector": "fallback",
                    "status": true,
                    "value": "0.00024528"
                },
                "nodeType": 0
            },
            "8": {
                "event": {
                    "contract": "0x8fa3b4570b4c96f8036c13b64971ba65867eeb48",
                    "decodedLog": {
                        "name": "SafeReceived",
                        "params": [
                            {
                                "name": "sender",
                                "type": "address",
                                "value": "0x6774bcbd5cecef1336b5300fb5186a12ddd8b367"
                            },
                            {
                                "name": "value",
                                "type": "uint256",
                                "value": "245,280,000,000,000"
                            }
                        ],
                        "signature": "SafeReceived(address,uint256)"
                    },
                    "id": 8,
                    "logData": "0x0000000000000000000000000000000000000000000000000000df14b3454000",
                    "logDecoded": true,
                    "operation": "EVENT",
                    "revert": false,
                    "status": true,
                    "topics": [
                        "0x3d0ce9bfc3ed7d6862dbb28b2dea94561fe714a1b4d019aa8af39730d1ad7c3d",
                        "0x0000000000000000000000006774bcbd5cecef1336b5300fb5186a12ddd8b367"
                    ]
                },
                "nodeType": 1
            },
            "9": {
                "invocation": {
                    "address": "0x0d7e906bd9cafa154b048cfa766cc1e54e39af9b",
                    "callData": "0x000000000000000000000000781e90f1c8fc4611c9b7497c3b47f99ef6969cbc0000000000000000000000000000000000000000000000000000000000029040000000000000000000000000000000000000000000000000000000000000006000000000000000000000000000000000000000000000000000000000000000c48ef1332e0000000000000000000000006cd72b1e6e300340a48943d6af34ef5ae07d35770000000000000000000000006cd72b1e6e300340a48943d6af34ef5ae07d357700000000000000000000000000000000000000000000000000470de4df8200000000000000000000000000000000000000000000000000000000000000046fdf00000000000000000000000000000000000000000000000000000000000000a0000000000000000000000000000000000000000000000000000000000000000000000000000000000000000000000000000000000000000000000000",
                    "decodedMethod": {
                        "callParams": [
                            {
                                "name": "_target",
                                "type": "address",
                                "value": "0x781e90f1c8fc4611c9b7497c3b47f99ef6969cbc"
                            },
                            {
                                "name": "_gasLimit",
                                "type": "uint256",
                                "value": "168,000"
                            },
                            {
                                "name": "_data",
                                "type": "bytes",
                                "value": "0x8ef1332e0000000000000000000000006cd72b1e6e300340a48943d6af34ef5ae07d35770000000000000000000000006cd72b1e6e300340a48943d6af34ef5ae07d357700000000000000000000000000000000000000000000000000470de4df8200000000000000000000000000000000000000000000000000000000000000046fdf00000000000000000000000000000000000000000000000000000000000000a00000000000000000000000000000000000000000000000000000000000000000"
                            }
                        ],
                        "constructorArguments": "",
                        "name": "appendCrossDomainMessage",
                        "returnParams": [],
                        "signature": "appendCrossDomainMessage(address,uint256,bytes)"
                    },
                    "errorInfo": "",
                    "fromAddress": "0x6774bcbd5cecef1336b5300fb5186a12ddd8b367",
                    "gasUsed": 35902,
                    "id": 9,
                    "methodDecoded": true,
                    "operation": "CALL",
                    "output": "",
                    "revert": false,
                    "revertMessage": "",
                    "selector": "0x9b159782",
                    "status": true,
                    "value": "0"
                },
                "nodeType": 0
            }
        },
        "gasFlame": [
            {
                "children": [
                    {
                        "children": [
                            {
                                "children": [],
                                "depth": 0,
                                "name": "Initial Gas",
                                "value": 22052
                            },
                            {
                                "children": [
                                    {
                                        "children": [
                                            {
                                                "children": [
                                                    {
                                                        "children": [],
                                                        "depth": 3,
                                                        "name": "nextCrossDomainMessageIndex",
                                                        "value": 2391
                                                    }
                                                ],
                                                "depth": 2,
                                                "name": "nextCrossDomainMessageIndex",
                                                "value": 9527
                                            },
                                            {
                                                "children": [
                                                    {
                                                        "children": [],
                                                        "depth": 3,
                                                        "name": "estimateCrossDomainMessageFee",
                                                        "value": 2545
                                                    }
                                                ],
                                                "depth": 2,
                                                "name": "estimateCrossDomainMessageFee",
                                                "value": 3184
                                            },
                                            {
                                                "children": [
                                                    {
                                                        "children": [],
                                                        "depth": 3,
                                                        "name": "fallback",
                                                        "value": 1504
                                                    }
                                                ],
                                                "depth": 2,
                                                "name": "fallback",
                                                "value": 6329
                                            },
                                            {
                                                "children": [
                                                    {
                                                        "children": [],
                                                        "depth": 3,
                                                        "name": "appendCrossDomainMessage",
                                                        "value": 35209
                                                    }
                                                ],
                                                "depth": 2,
                                                "name": "appendCrossDomainMessage",
                                                "value": 35902
                                            },
                                            {
                                                "children": [],
                                                "depth": 2,
                                                "name": "fallback",
                                                "value": 0
                                            }
                                        ],
                                        "depth": 1,
                                        "name": "sendMessage",
                                        "value": 112246
                                    }
                                ],
                                "depth": 0,
                                "name": "Executed Gas",
                                "value": 119403
                            }
                        ],
                        "depth": -1,
                        "name": "Actual Gas Used",
                        "value": 138655
                    },
                    {
                        "children": [],
                        "depth": -1,
                        "name": "Refunded Gas",
                        "value": 2800
                    }
                ],
                "depth": -2,
                "name": "Total Gas",
                "value": 141455
            }
        ],
        "isConfirmed": true,
        "mainTrace": [
            {
                "children": [
                    {
                        "children": [
                            {
                                "children": [
                                    {
                                        "children": [
                                            {
                                                "children": [],
                                                "depth": 3,
                                                "id": 3,
                                                "order": 3
                                            }
                                        ],
                                        "depth": 2,
                                        "id": 2,
                                        "order": 2
                                    },
                                    {
                                        "children": [
                                            {
                                                "children": [],
                                                "depth": 3,
                                                "id": 5,
                                                "order": 5
                                            }
                                        ],
                                        "depth": 2,
                                        "id": 4,
                                        "order": 4
                                    },
                                    {
                                        "children": [
                                            {
                                                "children": [
                                                    {
                                                        "children": [],
                                                        "depth": 4,
                                                        "id": 8,
                                                        "order": 8
                                                    }
                                                ],
                                                "depth": 3,
                                                "id": 7,
                                                "order": 7
                                            }
                                        ],
                                        "depth": 2,
                                        "id": 6,
                                        "order": 6
                                    },
                                    {
                                        "children": [
                                            {
                                                "children": [
                                                    {
                                                        "children": [],
                                                        "depth": 4,
                                                        "id": 11,
                                                        "order": 11
                                                    }
                                                ],
                                                "depth": 3,
                                                "id": 10,
                                                "order": 10
                                            }
                                        ],
                                        "depth": 2,
                                        "id": 9,
                                        "order": 9
                                    },
                                    {
                                        "children": [],
                                        "depth": 2,
                                        "id": 12,
                                        "order": 12
                                    },
                                    {
                                        "children": [],
                                        "depth": 2,
                                        "id": 13,
                                        "order": 13
                                    }
                                ],
                                "depth": 1,
                                "id": 1,
                                "order": 1
                            }
                        ],
                        "depth": 0,
                        "id": 0,
                        "order": 0
                    }
                ],
                "depth": -1,
                "id": -1,
                "order": -1
            }
        ],
        "mainTraceNodeCount": 14,
        "parentIdMap": {
            "0": -1,
            "1": 0,
            "10": 9,
            "11": 10,
            "12": 1,
            "13": 1,
            "2": 1,
            "3": 2,
            "4": 1,
            "5": 4,
            "6": 1,
            "7": 6,
            "8": 7,
            "9": 1
        },
        "tidyTrace": [
            {
                "children": [
                    {
                        "children": [
                            {
                                "children": [
                                    {
                                        "children": [
                                            {
                                                "children": [
                                                    {
                                                        "children": [],
                                                        "depth": 4,
                                                        "id": 8,
                                                        "order": 8
                                                    }
                                                ],
                                                "depth": 3,
                                                "id": 7,
                                                "order": 7
                                            }
                                        ],
                                        "depth": 2,
                                        "id": 6,
                                        "order": 6
                                    },
                                    {
                                        "children": [
                                            {
                                                "children": [
                                                    {
                                                        "children": [],
                                                        "depth": 4,
                                                        "id": 11,
                                                        "order": 11
                                                    }
                                                ],
                                                "depth": 3,
                                                "id": 10,
                                                "order": 10
                                            }
                                        ],
                                        "depth": 2,
                                        "id": 9,
                                        "order": 9
                                    },
                                    {
                                        "children": [],
                                        "depth": 2,
                                        "id": 12,
                                        "order": 12
                                    },
                                    {
                                        "children": [],
                                        "depth": 2,
                                        "id": 13,
                                        "order": 13
                                    }
                                ],
                                "depth": 1,
                                "id": 1,
                                "order": 1
                            }
                        ],
                        "depth": 0,
                        "id": 0,
                        "order": 0
                    }
                ],
                "depth": -1,
                "id": -1,
                "order": -1
            }
        ],
        "tidyTraceNodeCount": 10
    },
    "state_change": {
        "stateChanges": [
            {
                "address": "0x0d7e906bd9cafa154b048cfa766cc1e54e39af9b",
                "erc": "",
                "slots": [
                    {
                        "current": "0x0000000000000000000000000000000000000000000000000000000000046fe0",
                        "key": "0x0000000000000000000000000000000000000000000000000000000000000069",
                        "prev": "0x0000000000000000000000000000000000000000000000000000000000046fdf"
                    },
                    {
                        "current": "0x44512f8dcb9f8106f0e55d57c855430ecb9e75019586eed2094946935b6fb418",
                        "key": "0x7fb4302e8e91f9110a6554c2c0a24601252c2a42c2220ca988efcfe39995b2e7",
                        "prev": "0x0000000000000000000000000000000000000000000000000000000000000000"
                    }
                ],
                "storageVariables": [
                    {
                        "name": "messageQueue",
                        "type": "bytes32[]",
                        "value": {
                            "elemType": "bytes32",
                            "elems": [
                                {
                                    "index": 290783,
                                    "value": {
                                        "current": "0x44512f8dcb9f8106f0e55d57c855430ecb9e75019586eed2094946935b6fb418",
                                        "prev": "0x0000000000000000000000000000000000000000000000000000000000000000",
                                        "typeTag": 1
                                    }
                                }
                            ],
                            "typeTag": 2
                        }
                    }
                ]
            },
            {
                "address": "0x6774bcbd5cecef1336b5300fb5186a12ddd8b367",
                "erc": "",
                "slots": [
                    {
                        "current": "0x0000000000000000000000000000000000000000000000000000000066168bdb",
                        "key": "0xa75e88dfc873ff02fab88638f05cb6bf50ba21eff170f9e12ca45abc0f467f4c",
                        "prev": "0x0000000000000000000000000000000000000000000000000000000000000000"
                    }
                ],
                "storageVariables": [
                    {
                        "name": "messageSendTimestamp",
                        "type": "mapping(bytes32 => uint256)",
                        "value": {
                            "pairs": [
                                {
                                    "key": "0xd3a3bad2f82fb3dc2f72303d785547dd74578cec356459e29268ffc62ec4de3b",
                                    "value": {
                                        "current": "1712753627",
                                        "prev": "0",
                                        "typeTag": 1
                                    }
                                }
                            ],
                            "typeTag": 4
                        }
                    }
                ]
            }
        ]
    }
}