{
    "balance_change": {
        "balanceChanges": [
            {
                "account": "0xeb8ffe34fbd5bbacfb222e607cd9125c87a66656",
                "assets": [
                    {
                        "address": "0x38b2012e5f32ca876d8e6d1cbf83a78dbb734e3e",
                        "amount": "11.6047",
                        "iconUrl": "",
                        "isERC1155": false,
                        "isERC721": false,
                        "sign": false,
                        "value": ""
                    }
                ]
            },
            {
                "account": "0xaf4137708985572782ee8f6ce15ce53bcc324e73",
                "assets": [
                    {
                        "address": "0x38b2012e5f32ca876d8e6d1cbf83a78dbb734e3e",
                        "amount": "11.6047",
                        "iconUrl": "",
                        "isERC1155": false,
                        "isERC721": false,
                        "sign": true,
                        "value": ""
                    }
                ]
            }
        ]
    },
    "profile": {
        "basic_info": {
            "baseFee": "",
            "blockNumber": 9317391,
            "callData": "0xa9059cbb000000000000000000000000af4137708985572782ee8f6ce15ce53bcc324e73000000000000000000000000000000000000000000000000a10c2d2a68f9c000",
            "debugEnable": true,
            "errorInfo": "",
            "eventCount": 1,
            "feeRecipient": "0x5a0b54d5dc17e0aadc383d2db43b0a0d3e029c4c",
            "formatValue": "0",
            "gasLimit": 2100000,
            "gasPrice": "1",
            "gasUsed": 50937,
            "intTxnCount": 0,
            "internalRevert": false,
            "internalRevertMessage": "",
            "isContractCreation": false,
            "isFlashloan": false,
            "maxFee": "",
            "nonce": 5114,
            "overwritedBlockNumber": -1,
            "priorityFee": "",
            "receiver": "0x38b2012e5f32ca876d8e6d1cbf83a78dbb734e3e",
            "revertMessage": "",
            "sender": "0xeb8ffe34fbd5bbacfb222e607cd9125c87a66656",
            "simulationEnable": true,
            "sourceTxnHash": "0x9a2540e323c17c8a26a6813b509d6586bcf370bd0e2f88ec7987ca8ad8fe13af",
            "status": true,
            "timestamp": "2020-01-20T08:59:28Z",
            "transactionFee": "0.000050937",
            "txnHash": "0x9a2540e323c17c8a26a6813b509d6586bcf370bd0e2f88ec7987ca8ad8fe13af",
            "txnIndex": 32,
            "type": 0,
            "value": "0"
        },
        "fund_flow": [
            {
                "amount": "11.6047",
                "from": "0xeb8ffe34fbd5bbacfb222e607cd9125c87a66656",
                "id": 1,
                "isERC1155": false,
                "isERC721": false,
                "isReverted": false,
                "order": 1,
                "to": "0xaf4137708985572782ee8f6ce15ce53bcc324e73",
                "token": "0x38b2012e5f32ca876d8e6d1cbf83a78dbb734e3e"
            }
        ],
        "token_infos": [
            {
                "address": "0x38b2012e5f32ca876d8e6d1cbf83a78dbb734e3e",
                "decimals": 18
            },
            {
                "address": "0xc02aaa39b223fe8d0a0e5c4f27ead9083c756cc2",
                "decimals": 18
            },
            {
                "address": "0xeeeeeeeeeeeeeeeeeeeeeeeeeeeeeeeeeeeeeeee",
                "decimals": 18
            }
        ]
    },
    "address_label": {
        "labels": [
            {
                "address": "0x38b2012e5f32ca876d8e6d1cbf83a78dbb734e3e",
                "label": "EthereumHD (EHD)"
            },
            {
                "address": "0x0000000000000000000000000000000000000001",
                "label": "Precompiled"
            },
            {
                "address": "0x0000000000000000000000000000000000000002",
                "label": "Precompiled"
            },
            {
                "address": "0x0000000000000000000000000000000000000003",
                "label": "Precompiled"
            },
            {
                "address": "0x0000000000000000000000000000000000000004",
                "label": "Precompiled"
            },
            {
                "address": "0xeeeeeeeeeeeeeeeeeeeeeeeeeeeeeeeeeeeeeeee",
                "label": "Ether"
            }
        ]
    },
    "trace": {
        "accountLabels": null,
        "dataMap": {
            "-1": {
                "invocation": {
                    "address": "0xeb8ffe34fbd5bbacfb222e607cd9125c87a66656",
                    "callData": "",
                    "decodedMethod": null,
                    "errorInfo": "",
                    "fromAddress": "",
                    "gasUsed": 0,
                    "id": -1,
                    "methodDecoded": false,
                    "operation": "",
                    "output": "",
                    "revert": false,
                    "revertMessage": "",
                    "selector": "",
                    "status": false,
                    "value": ""
                },
                "nodeType": 0
            },
            "0": {
                "invocation": {
                    "address": "0x38b2012e5f32ca876d8e6d1cbf83a78dbb734e3e",
                    "callData": "0x000000000000000000000000af4137708985572782ee8f6ce15ce53bcc324e73000000000000000000000000000000000000000000000000a10c2d2a68f9c000",
                    "decodedMethod": {
                        "callParams": [
                            {
                                "name": "to",
                                "type": "address",
                                "value": "0xaf4137708985572782ee8f6ce15ce53bcc324e73"
                            },
                            {
                                "decimalAvailable": true,
                                "name": "value",
                                "type": "uint256",
                                "value": "11,604,700,000,000,000,000"
                            }
                        ],
                        "constructorArguments": "",
                        "name": "transfer",
                        "returnParams": [
                            {
                                "name": "",
                                "type": "bool",
                                "value": true
                            }
                        ],
                        "signature": "transfer(address,uint256)"
                    },
                    "errorInfo": "",
                    "fromAddress": "0xeb8ffe34fbd5bbacfb222e607cd9125c87a66656",
                    "gasUsed": 50937,
                    "id": 0,
                    "methodDecoded": true,
                    "operation": "CALL",
                    "output": "0x0000000000000000000000000000000000000000000000000000000000000001",
                    "revert": false,
                    "revertMessage": "",
                    "selector": "0xa9059cbb",
                    "status": true,
                    "value": "0"
                },
                "nodeType": 0
            },
            "1": {
                "event": {
                    "contract": "0x38b2012e5f32ca876d8e6d1cbf83a78dbb734e3e",
                    "decodedLog": {
                        "name": "Transfer",
                        "params": [
                            {
                                "name": "from",
                                "type": "address",
                                "value": "0xeb8ffe34fbd5bbacfb222e607cd9125c87a66656"
                            },
                            {
                                "name": "to",
                                "type": "address",
                                "value": "0xaf4137708985572782ee8f6ce15ce53bcc324e73"
                            },
                            {
                                "decimalAvailable": true,
                                "name": "value",
                                "type": "uint256",
                                "value": "11,604,700,000,000,000,000"
                            }
                        ],
                        "signature": "Transfer(address,address,uint256)"
                    },
                    "id": 1,
                    "logData": "0x000000000000000000000000000000000000000000000000a10c2d2a68f9c000",
                    "logDecoded": true,
                    "operation": "EVENT",
                    "revert": false,
                    "status": true,
                    "topics": [
                        "0xddf252ad1be2c89b69c2b068fc378daa952ba7f163c4a11628f55a4df523b3ef",
                        "0x000000000000000000000000eb8ffe34fbd5bbacfb222e607cd9125c87a66656",
                        "0x000000000000000000000000af4137708985572782ee8f6ce15ce53bcc324e73"
                    ]
                },
                "nodeType": 1
            }
        },
        "gasFlame": [
            {
                "children": [
                    {
                        "children": [
                            {
                                "children": [],
                                "depth": 0,
                                "name": "Initial Gas",
                                "value": 21644
                            },
                            {
                                "children": [],
                                "depth": 0,
                                "name": "Executed Gas",
                                "value": 29293
                            }
                        ],
                        "depth": -1,
                        "name": "Actual Gas Used",
                        "value": 50937
                    },
                    {
                        "children": [],
                        "depth": -1,
                        "name": "Refunded Gas",
                        "value": 0
                    }
                ],
                "depth": -2,
                "name": "Total Gas",
                "value": 50937
            }
        ],
        "isConfirmed": true,
        "mainTrace": [
            {
                "children": [
                    {
                        "children": [
                            {
                                "children": [],
                                "depth": 1,
                                "id": 1,
                                "order": 1
                            }
                        ],
                        "depth": 0,
                        "id": 0,
                        "order": 0
                    }
                ],
                "depth": -1,
                "id": -1,
                "order": -1
            }
        ],
        "mainTraceNodeCount": 2,
        "parentIdMap": {
            "0": -1,
            "1": 0
        },
        "tidyTrace": [
            {
                "children": [
                    {
                        "children": [
                            {
                                "children": [],
                                "depth": 1,
                                "id": 1,
                                "order": 1
                            }
                        ],
                        "depth": 0,
                        "id": 0,
                        "order": 0
                    }
                ],
                "depth": -1,
                "id": -1,
                "order": -1
            }
        ],
        "tidyTraceNodeCount": 2
    },
    "state_change": {
        "stateChanges": [
            {
                "address": "0x38b2012e5f32ca876d8e6d1cbf83a78dbb734e3e",
                "erc": "ERC-20",
                "slots": [
                    {
                        "current": "0x000000000000000000000000000000000000000000000000a10c2d2a68f9c000",
                        "key": "0xe3a634bf9b4474e681a2e7577c2b3008e125001cad224cbde52b186a538ac1c4",
                        "prev": "0x0000000000000000000000000000000000000000000000000000000000000000"
                    },
                    {
                        "current": "0x00000000000000000000000000000000000000000007b6740825ba7a50cdd0e4",
                        "key": "0xce8492dcb504132e3a9bfb9f59af19837a95232e9851a118a09d2d9a0452554d",
                        "prev": "0x00000000000000000000000000000000000000000007b674a931e7a4b9c790e4"
                    }
                ],
                "storageVariables": [
                    {
                        "name": "_balances",
                        "type": "mapping(address => uint256)",
                        "value": {
                            "pairs": [
                                {
                                    "key": "0xaf4137708985572782ee8f6ce15ce53bcc324e73",
                                    "value": {
                                        "current": "11604700000000000000",
                                        "prev": "0",
                                        "typeTag": 1
                                    }
                                },
                                {
                                    "key": "0xeb8ffe34fbd5bbacfb222e607cd9125c87a66656",
                                    "value": {
                                        "current": "9324091846577590905983204",
                                        "prev": "9324103451277590905983204",
                                        "typeTag": 1
                                    }
                                }
                            ],
                            "typeTag": 4
                        }
                    }
                ]
            }
        ]
    }
}