{
    "balance_change": {
        "balanceChanges": [
            {
                "account": "0x63d52a5dafe278860b0486504b57b1d364b37413",
                "assets": [
                    {
                        "address": "0xeeeeeeeeeeeeeeeeeeeeeeeeeeeeeeeeeeeeeeee",
                        "amount": "1.755575",
                        "iconUrl": "https://assets.blocksec.com/image/1663669189317-3.png",
                        "isERC1155": false,
                        "isERC721": false,
                        "sign": false,
                        "value": ""
                    }
                ]
            },
            {
                "account": "0x31880ffaddcbef469503c2b6961982ad5dbbc87c",
                "assets": [
                    {
                        "address": "0xeeeeeeeeeeeeeeeeeeeeeeeeeeeeeeeeeeeeeeee",
                        "amount": "1.755575",
                        "iconUrl": "https://assets.blocksec.com/image/1663669189317-3.png",
                        "isERC1155": false,
                        "isERC721": false,
                        "sign": true,
                        "value": ""
                    }
                ]
            }
        ]
    },
    "profile": {
        "basic_info": {
            "baseFee": "",
            "blockNumber": 10276976,
            "callData": "0x3912521500000000000000000000000031880ffaddcbef469503c2b6961982ad5dbbc87c000000000000000000000000000000000000000000000000185d0e293b8e700000000000000000000000000000000000000000000000000000000000000000c0000000000000000000000000000000000000000000000000000000005ef1feae0000000000000000000000000000000000000000000000000000000000003dc10000000000000000000000000000000000000000000000000000000000000100000000000000000000000000000000000000000000000000000000000000000000000000000000000000000000000000000000000000000000000000000000000000000000000000000000000000000000000000000000000000000000000041ef4f9078fdfb72f8f4a50f608977cf9e607fbfc4ff40f83bd3799639bd177be569861229b0f5b1f9715c651858a72edbae97f4f1ea63d4d9285bbf4473ab1d501b00000000000000000000000000000000000000000000000000000000000000",
            "debugEnable": true,
            "errorInfo": "",
            "eventCount": 1,
            "feeRecipient": "0x829bd824b016326a401d083b33d092293333a830",
            "formatValue": "0",
            "gasLimit": 165636,
            "gasPrice": "45",
            "gasUsed": 94553,
            "intTxnCount": 3,
            "internalRevert": false,
            "internalRevertMessage": "",
            "isContractCreation": false,
            "isFlashloan": false,
            "maxFee": "",
            "nonce": 23080,
            "overwritedBlockNumber": -1,
            "priorityFee": "",
            "receiver": "0x63d52a5dafe278860b0486504b57b1d364b37413",
            "revertMessage": "",
            "sender": "0xb64cb43be59120972fb508a8171137c38b83eeea",
            "simulationEnable": true,
            "sourceTxnHash": "0x9a1a07795a2d14034453cf6172e1b48b399d217835af8d45f4d297a95a74b9dc",
            "status": true,
            "timestamp": "2020-06-16T13:11:06Z",
            "transactionFee": "0.004254885",
            "txnHash": "0x9a1a07795a2d14034453cf6172e1b48b399d217835af8d45f4d297a95a74b9dc",
            "txnIndex": 81,
            "type": 0,
            "value": "0"
        },
        "fund_flow": [
            {
                "amount": "1.755575",
                "from": "0x63d52a5dafe278860b0486504b57b1d364b37413",
                "id": 1,
                "isERC1155": false,
                "isERC721": false,
                "isReverted": false,
                "order": 1,
                "to": "0x31880ffaddcbef469503c2b6961982ad5dbbc87c",
                "token": "0xeeeeeeeeeeeeeeeeeeeeeeeeeeeeeeeeeeeeeeee"
            }
        ],
        "token_infos": [
            {
                "address": "0xc02aaa39b223fe8d0a0e5c4f27ead9083c756cc2",
                "decimals": 18
            },
            {
                "address": "0xeeeeeeeeeeeeeeeeeeeeeeeeeeeeeeeeeeeeeeee",
                "decimals": 18
            }
        ]
    },
    "address_label": {
        "labels": [
            {
                "address": "0x5b9e8728e316bbeb692d22daaab74f6cbf2c4691",
                "label": "WalletSimple"
            },
            {
                "address": "0x0000000000000000000000000000000000000001",
                "label": "Precompiled"
            },
            {
                "address": "0x0000000000000000000000000000000000000002",
                "label": "Precompiled"
            },
            {
                "address": "0x0000000000000000000000000000000000000003",
                "label": "Precompiled"
            },
            {
                "address": "0x0000000000000000000000000000000000000004",
                "label": "Precompiled"
            },
            {
                "address": "0xeeeeeeeeeeeeeeeeeeeeeeeeeeeeeeeeeeeeeeee",
                "label": "Ether"
            }
        ]
    },
    "trace": {
        "accountLabels": null,
        "dataMap": {
            "-1": {
                "invocation": {
                    "address": "0xb64cb43be59120972fb508a8171137c38b83eeea",
                    "callData": "",
                    "decodedMethod": null,
                    "errorInfo": "",
                    "fromAddress": "",
                    "gasUsed": 0,
                    "id": -1,
                    "methodDecoded": false,
                    "operation": "",
                    "output": "",
                    "revert": false,
                    "revertMessage": "",
                    "selector": "",
                    "status": false,
                    "value": ""
                },
                "nodeType": 0
            },
            "0": {
                "invocation": {
                    "address": "0x63d52a5dafe278860b0486504b57b1d364b37413",
                    "callData": "0x00000000000000000000000031880ffaddcbef469503c2b6961982ad5dbbc87c000000000000000000000000000000000000000000000000185d0e293b8e700000000000000000000000000000000000000000000000000000000000000000c0000000000000000000000000000000000000000000000000000000005ef1feae0000000000000000000000000000000000000000000000000000000000003dc10000000000000000000000000000000000000000000000000000000000000100000000000000000000000000000000000000000000000000000000000000000000000000000000000000000000000000000000000000000000000000000000000000000000000000000000000000000000000000000000000000000000000041ef4f9078fdfb72f8f4a50f608977cf9e607fbfc4ff40f83bd3799639bd177be569861229b0f5b1f9715c651858a72edbae97f4f1ea63d4d9285bbf4473ab1d501b00000000000000000000000000000000000000000000000000000000000000",
                    "decodedMethod": {
                        "callParams": [
                            {
                                "name": "toAddress",
                                "type": "address",
                                "value": "0x31880ffaddcbef469503c2b6961982ad5dbbc87c"
                            },
                            {
                                "name": "value",
                                "type": "uint256",
                                "value": "1,755,575,000,000,000,000"
                            },
                            {
                                "name": "data",
                                "type": "bytes",
                                "value": "0x"
                            },
                            {
                                "name": "expireTime",
                                "type": "uint256",
                                "value": "1,592,917,678"
                            },
                            {
                                "name": "sequenceId",
                                "type": "uint256",
                                "value": "15,809"
                            },
                            {
                                "name": "signature",
                                "type": "bytes",
                                "value": "0xef4f9078fdfb72f8f4a50f608977cf9e607fbfc4ff40f83bd3799639bd177be569861229b0f5b1f9715c651858a72edbae97f4f1ea63d4d9285bbf4473ab1d501b"
                            }
                        ],
                        "constructorArguments": "",
                        "name": "sendMultiSig",
                        "returnParams": [],
                        "signature": "sendMultiSig(address,uint256,bytes,uint256,uint256,bytes)"
                    },
                    "errorInfo": "",
                    "fromAddress": "0xb64cb43be59120972fb508a8171137c38b83eeea",
                    "gasUsed": 94553,
                    "id": 0,
                    "methodDecoded": true,
                    "operation": "CALL",
                    "output": "0x3912521500000000000000000000000031880ffaddcbef469503c2b6961982ad",
                    "revert": false,
                    "revertMessage": "",
                    "selector": "0x39125215",
                    "status": true,
                    "value": "0"
                },
                "nodeType": 0
            },
            "1": {
                "invocation": {
                    "address": "0x5b9e8728e316bbeb692d22daaab74f6cbf2c4691",
                    "callData": "0x00000000000000000000000031880ffaddcbef469503c2b6961982ad5dbbc87c000000000000000000000000000000000000000000000000185d0e293b8e700000000000000000000000000000000000000000000000000000000000000000c0000000000000000000000000000000000000000000000000000000005ef1feae0000000000000000000000000000000000000000000000000000000000003dc10000000000000000000000000000000000000000000000000000000000000100000000000000000000000000000000000000000000000000000000000000000000000000000000000000000000000000000000000000000000000000000000000000000000000000000000000000000000000000000000000000000000000041ef4f9078fdfb72f8f4a50f608977cf9e607fbfc4ff40f83bd3799639bd177be569861229b0f5b1f9715c651858a72edbae97f4f1ea63d4d9285bbf4473ab1d501b00000000000000000000000000000000000000000000000000000000000000",
                    "decodedMethod": {
                        "callParams": [
                            {
                                "name": "toAddress",
                                "type": "address",
                                "value": "0x31880ffaddcbef469503c2b6961982ad5dbbc87c"
                            },
                            {
                                "name": "value",
                                "type": "uint256",
                                "value": "1,755,575,000,000,000,000"
                            },
                            {
                                "name": "data",
                                "type": "bytes",
                                "value": "0x"
                            },
                            {
                                "name": "expireTime",
                                "type": "uint256",
                                "value": "1,592,917,678"
                            },
                            {
                                "name": "sequenceId",
                                "type": "uint256",
                                "value": "15,809"
                            },
                            {
                                "name": "signature",
                                "type": "bytes",
                                "value": "0xef4f9078fdfb72f8f4a50f608977cf9e607fbfc4ff40f83bd3799639bd177be569861229b0f5b1f9715c651858a72edbae97f4f1ea63d4d9285bbf4473ab1d501b"
                            }
                        ],
                        "constructorArguments": "",
                        "name": "sendMultiSig",
                        "returnParams": [],
                        "signature": "sendMultiSig(address,uint256,bytes,uint256,uint256,bytes)"
                    },
                    "errorInfo": "",
                    "fromAddress": "0x63d52a5dafe278860b0486504b57b1d364b37413",
                    "gasUsed": 69904,
                    "id": 1,
                    "methodDecoded": true,
                    "operation": "DELEGATECALL",
                    "output": "",
                    "revert": false,
                    "revertMessage": "",
                    "selector": "0x39125215",
                    "status": true,
                    "value": "0"
                },
                "nodeType": 0
            },
            "2": {
                "invocation": {
                    "address": "0x0000000000000000000000000000000000000001",
                    "callData": "0xf813f099d92fc362ac9ca2205f0e71760a48641608f08654330be0f6000000000000000000000000000000000000000000000000000000000000001bef4f9078fdfb72f8f4a50f608977cf9e607fbfc4ff40f83bd3799639bd177be569861229b0f5b1f9715c651858a72edbae97f4f1ea63d4d9285bbf4473ab1d50",
                    "decodedMethod": {
                        "callParams": [
                            {
                                "name": "hash",
                                "type": "bytes32",
                                "value": "0xa80b52faf813f099d92fc362ac9ca2205f0e71760a48641608f08654330be0f6"
                            },
                            {
                                "name": "v",
                                "type": "uint256",
                                "value": "27"
                            },
                            {
                                "name": "r",
                                "type": "bytes32",
                                "value": "0xef4f9078fdfb72f8f4a50f608977cf9e607fbfc4ff40f83bd3799639bd177be5"
                            },
                            {
                                "name": "s",
                                "type": "bytes32",
                                "value": "0x69861229b0f5b1f9715c651858a72edbae97f4f1ea63d4d9285bbf4473ab1d50"
                            }
                        ],
                        "constructorArguments": "",
                        "name": "ecrecover",
                        "returnParams": [
                            {
                                "name": "",
                                "type": "address",
                                "value": "0x48eef6ac21395841c4ad2bdc7dc53e4dcd52e463"
                            }
                        ],
                        "signature": "ecrecover(bytes32,uint256,bytes32,bytes32)"
                    },
                    "errorInfo": "",
                    "fromAddress": "0x63d52a5dafe278860b0486504b57b1d364b37413",
                    "gasUsed": 3000,
                    "id": 2,
                    "methodDecoded": true,
                    "operation": "CALL",
                    "output": "0x00000000000000000000000048eef6ac21395841c4ad2bdc7dc53e4dcd52e463",
                    "revert": false,
                    "revertMessage": "",
                    "selector": "0xa80b52fa",
                    "status": true,
                    "value": "0"
                },
                "nodeType": 0
            },
            "3": {
                "invocation": {
                    "address": "0x31880ffaddcbef469503c2b6961982ad5dbbc87c",
                    "callData": "0x",
                    "decodedMethod": null,
                    "errorInfo": "",
                    "fromAddress": "0x63d52a5dafe278860b0486504b57b1d364b37413",
                    "gasUsed": 0,
                    "id": 3,
                    "methodDecoded": false,
                    "operation": "CALL",
                    "output": "",
                    "revert": false,
                    "revertMessage": "",
                    "selector": "fallback",
                    "status": true,
                    "value": "1.755575"
                },
                "nodeType": 0
            },
            "4": {
                "event": {
                    "contract": "0x63d52a5dafe278860b0486504b57b1d364b37413",
                    "decodedLog": {
                        "name": "Transacted",
                        "params": [
                            {
                                "name": "msgSender",
                                "type": "address",
                                "value": "0xb64cb43be59120972fb508a8171137c38b83eeea"
                            },
                            {
                                "name": "otherSigner",
                                "type": "address",
                                "value": "0x48eef6ac21395841c4ad2bdc7dc53e4dcd52e463"
                            },
                            {
                                "name": "operation",
                                "type": "bytes32",
                                "value": "0xa80b52faf813f099d92fc362ac9ca2205f0e71760a48641608f08654330be0f6"
                            },
                            {
                                "name": "toAddress",
                                "type": "address",
                                "value": "0x31880ffaddcbef469503c2b6961982ad5dbbc87c"
                            },
                            {
                                "name": "value",
                                "type": "uint256",
                                "value": "1,755,575,000,000,000,000"
                            },
                            {
                                "name": "data",
                                "type": "bytes",
                                "value": "0x"
                            }
                        ],
                        "signature": "Transacted(address,address,bytes32,address,uint256,bytes)"
                    },
                    "id": 4,
                    "logData": "0x000000000000000000000000b64cb43be59120972fb508a8171137c38b83eeea00000000000000000000000048eef6ac21395841c4ad2bdc7dc53e4dcd52e463a80b52faf813f099d92fc362ac9ca2205f0e71760a48641608f08654330be0f600000000000000000000000031880ffaddcbef469503c2b6961982ad5dbbc87c000000000000000000000000000000000000000000000000185d0e293b8e700000000000000000000000000000000000000000000000000000000000000000c00000000000000000000000000000000000000000000000000000000000000000",
                    "logDecoded": true,
                    "operation": "EVENT",
                    "revert": false,
                    "status": true,
                    "topics": [
                        "0x59bed9ab5d78073465dd642a9e3e76dfdb7d53bcae9d09df7d0b8f5234d5a806"
                    ]
                },
                "nodeType": 1
            }
        },
        "gasFlame": [
            {
                "children": [
                    {
                        "children": [
                            {
                                "children": [],
                                "depth": 0,
                                "name": "Initial Gas",
                                "value": 23812
                            },
                            {
                                "children": [
                                    {
                                        "children": [
                                            {
                                                "children": [],
                                                "depth": 2,
                                                "name": "ecrecover",
                                                "value": 3000
                                            },
                                            {
                                                "children": [],
                                                "depth": 2,
                                                "name": "fallback",
                                                "value": 0
                                            }
                                        ],
                                        "depth": 1,
                                        "name": "sendMultiSig",
                                        "value": 69904
                                    }
                                ],
                                "depth": 0,
                                "name": "Executed Gas",
                                "value": 70741
                            }
                        ],
                        "depth": -1,
                        "name": "Actual Gas Used",
                        "value": 94553
                    },
                    {
                        "children": [],
                        "depth": -1,
                        "name": "Refunded Gas",
                        "value": 0
                    }
                ],
                "depth": -2,
                "name": "Total Gas",
                "value": 94553
            }
        ],
        "isConfirmed": true,
        "mainTrace": [
            {
                "children": [
                    {
                        "children": [
                            {
                                "children": [
                                    {
                                        "children": [],
                                        "depth": 2,
                                        "id": 2,
                                        "order": 2
                                    },
                                    {
                                        "children": [],
                                        "depth": 2,
                                        "id": 3,
                                        "order": 3
                                    },
                                    {
                                        "children": [],
                                        "depth": 2,
                                        "id": 4,
                                        "order": 4
                                    }
                                ],
                                "depth": 1,
                                "id": 1,
                                "order": 1
                            }
                        ],
                        "depth": 0,
                        "id": 0,
                        "order": 0
                    }
                ],
                "depth": -1,
                "id": -1,
                "order": -1
            }
        ],
        "mainTraceNodeCount": 5,
        "parentIdMap": {
            "0": -1,
            "1": 0,
            "2": 1,
            "3": 1,
            "4": 1
        },
        "tidyTrace": [
            {
                "children": [
                    {
                        "children": [
                            {
                                "children": [
                                    {
                                        "children": [],
                                        "depth": 2,
                                        "id": 2,
                                        "order": 2
                                    },
                                    {
                                        "children": [],
                                        "depth": 2,
                                        "id": 3,
                                        "order": 3
                                    },
                                    {
                                        "children": [],
                                        "depth": 2,
                                        "id": 4,
                                        "order": 4
                                    }
                                ],
                                "depth": 1,
                                "id": 1,
                                "order": 1
                            }
                        ],
                        "depth": 0,
                        "id": 0,
                        "order": 0
                    }
                ],
                "depth": -1,
                "id": -1,
                "order": -1
            }
        ],
        "tidyTraceNodeCount": 5
    },
    "state_change": {
        "stateChanges": [
            {
                "address": "0x63d52a5dafe278860b0486504b57b1d364b37413",
                "erc": "",
                "slots": [
                    {
                        "current": "0x0000000000000000000000000000000000000000000000000000000000003dc1",
                        "key": "0x000000000000000000000000000000000000000000000000000000000000000a",
                        "prev": "0x0000000000000000000000000000000000000000000000000000000000003db7"
                    }
                ],
                "storageVariables": []
            }
        ]
    }
}