{
    "balance_change": {
        "balanceChanges": [
            {
                "account": "0xf190f0193b694d9d2bb865a66f0c17cbd8280c71",
                "assets": [
                    {
                        "address": "0xea38eaa3c86c8f9b751533ba2e562deb9acded40",
                        "amount": "500,000",
                        "iconUrl": "https://assets.blocksec.com/icon/85ce3a4b89a0f7adf0f76e9140bd1a4921898e918e25faee59a735309baff096.png",
                        "isERC1155": false,
                        "isERC721": false,
                        "sign": false,
                        "value": ""
                    }
                ]
            },
            {
                "account": "0xf988b93c57aeb29f9a9b12f8541aa9230248e120",
                "assets": [
                    {
                        "address": "0xea38eaa3c86c8f9b751533ba2e562deb9acded40",
                        "amount": "500,000",
                        "iconUrl": "https://assets.blocksec.com/icon/85ce3a4b89a0f7adf0f76e9140bd1a4921898e918e25faee59a735309baff096.png",
                        "isERC1155": false,
                        "isERC721": false,
                        "sign": true,
                        "value": ""
                    }
                ]
            }
        ]
    },
    "profile": {
        "basic_info": {
            "baseFee": "",
            "blockNumber": 4487401,
            "callData": "0xa9059cbb000000000000000000000000f988b93c57aeb29f9a9b12f8541aa9230248e1200000000000000000000000000000000000000000000069e10de76676d0800000",
            "debugEnable": true,
            "errorInfo": "",
            "eventCount": 1,
            "feeRecipient": "0x829bd824b016326a401d083b33d092293333a830",
            "formatValue": "0",
            "gasLimit": 100000,
            "gasPrice": "60",
            "gasUsed": 37571,
            "intTxnCount": 0,
            "internalRevert": false,
            "internalRevertMessage": "",
            "isContractCreation": false,
            "isFlashloan": false,
            "maxFee": "",
            "nonce": 44,
            "overwritedBlockNumber": -1,
            "priorityFee": "",
            "receiver": "0xea38eaa3c86c8f9b751533ba2e562deb9acded40",
            "revertMessage": "",
            "sender": "0xf190f0193b694d9d2bb865a66f0c17cbd8280c71",
            "simulationEnable": true,
            "sourceTxnHash": "0x9ad36438188f893de4280bdd028738aec57039f54df8a28f862c6f20c7451278",
            "status": true,
            "timestamp": "2017-11-04T07:22:57Z",
            "transactionFee": "0.00225426",
            "txnHash": "0x9ad36438188f893de4280bdd028738aec57039f54df8a28f862c6f20c7451278",
            "txnIndex": 0,
            "type": 0,
            "value": "0"
        },
        "fund_flow": [
            {
                "amount": "500,000",
                "from": "0xf190f0193b694d9d2bb865a66f0c17cbd8280c71",
                "id": 1,
                "isERC1155": false,
                "isERC721": false,
                "isReverted": false,
                "order": 1,
                "to": "0xf988b93c57aeb29f9a9b12f8541aa9230248e120",
                "token": "0xea38eaa3c86c8f9b751533ba2e562deb9acded40"
            }
        ],
        "token_infos": [
            {
                "address": "0xea38eaa3c86c8f9b751533ba2e562deb9acded40",
                "decimals": 18
            },
            {
                "address": "0xeeeeeeeeeeeeeeeeeeeeeeeeeeeeeeeeeeeeeeee",
                "decimals": 18
            },
            {
                "address": "0xc02aaa39b223fe8d0a0e5c4f27ead9083c756cc2",
                "decimals": 18
            }
        ]
    },
    "address_label": {
        "labels": [
            {
                "address": "0x0000000000000000000000000000000000000003",
                "label": "Precompiled"
            },
            {
                "address": "0x0000000000000000000000000000000000000004",
                "label": "Precompiled"
            },
            {
                "address": "0xeeeeeeeeeeeeeeeeeeeeeeeeeeeeeeeeeeeeeeee",
                "label": "Ether"
            },
            {
                "address": "0xea38eaa3c86c8f9b751533ba2e562deb9acded40",
                "label": "FuelToken"
            },
            {
                "address": "0x0000000000000000000000000000000000000001",
                "label": "Precompiled"
            },
            {
                "address": "0x0000000000000000000000000000000000000002",
                "label": "Precompiled"
            }
        ]
    },
    "trace": {
        "accountLabels": null,
        "dataMap": {
            "-1": {
                "invocation": {
                    "address": "0xf190f0193b694d9d2bb865a66f0c17cbd8280c71",
                    "callData": "",
                    "decodedMethod": null,
                    "errorInfo": "",
                    "fromAddress": "",
                    "gasUsed": 0,
                    "id": -1,
                    "methodDecoded": false,
                    "operation": "",
                    "output": "",
                    "revert": false,
                    "revertMessage": "",
                    "selector": "",
                    "status": false,
                    "value": ""
                },
                "nodeType": 0
            },
            "0": {
                "invocation": {
                    "address": "0xea38eaa3c86c8f9b751533ba2e562deb9acded40",
                    "callData": "0x000000000000000000000000f988b93c57aeb29f9a9b12f8541aa9230248e1200000000000000000000000000000000000000000000069e10de76676d0800000",
                    "decodedMethod": {
                        "callParams": [
                            {
                                "name": "_to",
                                "type": "address",
                                "value": "0xf988b93c57aeb29f9a9b12f8541aa9230248e120"
                            },
                            {
                                "decimalAvailable": true,
                                "name": "_amount",
                                "type": "uint256",
                                "value": "500,000,000,000,000,000,000,000"
                            }
                        ],
                        "constructorArguments": "",
                        "name": "transfer",
                        "returnParams": [
                            {
                                "name": "success",
                                "type": "bool",
                                "value": true
                            }
                        ],
                        "signature": "transfer(address,uint256)"
                    },
                    "errorInfo": "",
                    "fromAddress": "0xf190f0193b694d9d2bb865a66f0c17cbd8280c71",
                    "gasUsed": 37571,
                    "id": 0,
                    "methodDecoded": true,
                    "operation": "CALL",
                    "output": "0x0000000000000000000000000000000000000000000000000000000000000001",
                    "revert": false,
                    "revertMessage": "",
                    "selector": "0xa9059cbb",
                    "status": true,
                    "value": "0"
                },
                "nodeType": 0
            },
            "1": {
                "event": {
                    "contract": "0xea38eaa3c86c8f9b751533ba2e562deb9acded40",
                    "decodedLog": {
                        "name": "Transfer",
                        "params": [
                            {
                                "name": "from",
                                "type": "address",
                                "value": "0xf190f0193b694d9d2bb865a66f0c17cbd8280c71"
                            },
                            {
                                "name": "to",
                                "type": "address",
                                "value": "0xf988b93c57aeb29f9a9b12f8541aa9230248e120"
                            },
                            {
                                "decimalAvailable": true,
                                "name": "value",
                                "type": "uint256",
                                "value": "500,000,000,000,000,000,000,000"
                            }
                        ],
                        "signature": "Transfer(address,address,uint256)"
                    },
                    "id": 1,
                    "logData": "0x0000000000000000000000000000000000000000000069e10de76676d0800000",
                    "logDecoded": true,
                    "operation": "EVENT",
                    "revert": false,
                    "status": true,
                    "topics": [
                        "0xddf252ad1be2c89b69c2b068fc378daa952ba7f163c4a11628f55a4df523b3ef",
                        "0x000000000000000000000000f190f0193b694d9d2bb865a66f0c17cbd8280c71",
                        "0x000000000000000000000000f988b93c57aeb29f9a9b12f8541aa9230248e120"
                    ]
                },
                "nodeType": 1
            }
        },
        "gasFlame": [
            {
                "children": [
                    {
                        "children": [
                            {
                                "children": [],
                                "depth": 0,
                                "name": "Initial Gas",
                                "value": 23320
                            },
                            {
                                "children": [],
                                "depth": 0,
                                "name": "Executed Gas",
                                "value": 29251
                            }
                        ],
                        "depth": -1,
                        "name": "Actual Gas Used",
                        "value": 37571
                    },
                    {
                        "children": [],
                        "depth": -1,
                        "name": "Refunded Gas",
                        "value": 15000
                    }
                ],
                "depth": -2,
                "name": "Total Gas",
                "value": 52571
            }
        ],
        "isConfirmed": true,
        "mainTrace": [
            {
                "children": [
                    {
                        "children": [
                            {
                                "children": [],
                                "depth": 1,
                                "id": 1,
                                "order": 1
                            }
                        ],
                        "depth": 0,
                        "id": 0,
                        "order": 0
                    }
                ],
                "depth": -1,
                "id": -1,
                "order": -1
            }
        ],
        "mainTraceNodeCount": 2,
        "parentIdMap": {
            "0": -1,
            "1": 0
        },
        "tidyTrace": [
            {
                "children": [
                    {
                        "children": [
                            {
                                "children": [],
                                "depth": 1,
                                "id": 1,
                                "order": 1
                            }
                        ],
                        "depth": 0,
                        "id": 0,
                        "order": 0
                    }
                ],
                "depth": -1,
                "id": -1,
                "order": -1
            }
        ],
        "tidyTraceNodeCount": 2
    },
    "state_change": {
        "stateChanges": [
            {
                "address": "0xea38eaa3c86c8f9b751533ba2e562deb9acded40",
                "erc": "ERC-20",
                "slots": [
                    {
                        "current": "0x0000000000000000000000000000000000000000000069e10de76676d0800000",
                        "key": "0x7f2fd93b4bd8e3759298352d1ec066d2213cfffc97396136339f0008eb094bb5",
                        "prev": "0x0000000000000000000000000000000000000000000000000000000000000000"
                    },
                    {
                        "current": "0x0000000000000000000000000000000000000000000000000000000000000000",
                        "key": "0x064d2f0dbc2508bc6f24002522a996aa4aef79ec6789b45e5f8068209cfc5c11",
                        "prev": "0x0000000000000000000000000000000000000000000069e10de76676d0800000"
                    }
                ],
                "storageVariables": [
                    {
                        "name": "balances",
                        "type": "mapping(address => uint256)",
                        "value": {
                            "pairs": [
                                {
                                    "key": "0xf190f0193b694d9d2bb865a66f0c17cbd8280c71",
                                    "value": {
                                        "current": "0",
                                        "prev": "500000000000000000000000",
                                        "typeTag": 1
                                    }
                                },
                                {
                                    "key": "0xf988b93c57aeb29f9a9b12f8541aa9230248e120",
                                    "value": {
                                        "current": "500000000000000000000000",
                                        "prev": "0",
                                        "typeTag": 1
                                    }
                                }
                            ],
                            "typeTag": 4
                        }
                    }
                ]
            }
        ]
    }
}