{
    "balance_change": {
        "balanceChanges": [
            {
                "account": "0x0681d8db095565fe8a346fa0277bffde9c0edbbf",
                "assets": [
                    {
                        "address": "0x514910771af9ca656af840dff83e8264ecf986ca",
                        "amount": "51.63271787",
                        "iconUrl": "https://assets.blocksec.com/icon/f97453a18956674db69f16b525216d646fc76f3c7f90f0cd6147f8534d5af3e9.png",
                        "isERC1155": false,
                        "isERC721": false,
                        "sign": false,
                        "value": "1244.796682"
                    }
                ]
            },
            {
                "account": "0xefa314a0b43c0178ffc6c87347497c90bcfade13",
                "assets": [
                    {
                        "address": "0x514910771af9ca656af840dff83e8264ecf986ca",
                        "amount": "51.63271787",
                        "iconUrl": "https://assets.blocksec.com/icon/f97453a18956674db69f16b525216d646fc76f3c7f90f0cd6147f8534d5af3e9.png",
                        "isERC1155": false,
                        "isERC721": false,
                        "sign": true,
                        "value": "1244.796682"
                    }
                ]
            }
        ]
    },
    "profile": {
        "basic_info": {
            "baseFee": "",
            "blockNumber": 11718277,
            "callData": "0xa9059cbb000000000000000000000000efa314a0b43c0178ffc6c87347497c90bcfade13000000000000000000000000000000000000000000000002cc8c435745504c00",
            "debugEnable": true,
            "errorInfo": "",
            "eventCount": 1,
            "feeRecipient": "0xea674fdde714fd979de3edf0f56aa9716b898ec8",
            "formatValue": "0",
            "gasLimit": 207128,
            "gasPrice": "86",
            "gasUsed": 51601,
            "intTxnCount": 0,
            "internalRevert": false,
            "internalRevertMessage": "",
            "isContractCreation": false,
            "isFlashloan": false,
            "maxFee": "",
            "nonce": 3841659,
            "overwritedBlockNumber": -1,
            "priorityFee": "",
            "receiver": "0x514910771af9ca656af840dff83e8264ecf986ca",
            "revertMessage": "",
            "sender": "0x0681d8db095565fe8a346fa0277bffde9c0edbbf",
            "simulationEnable": true,
            "sourceTxnHash": "0x9bda8987a2ec0644caedd8237a7610ac7da5d69353e82051bba6a7fb2cea6fbd",
            "status": true,
            "timestamp": "2021-01-24T12:20:09Z",
            "transactionFee": "0.004437686",
            "txnHash": "0x9bda8987a2ec0644caedd8237a7610ac7da5d69353e82051bba6a7fb2cea6fbd",
            "txnIndex": 4,
            "type": 0,
            "value": "0"
        },
        "fund_flow": [
            {
                "amount": "51.63271787",
                "from": "0x0681d8db095565fe8a346fa0277bffde9c0edbbf",
                "id": 1,
                "isERC1155": false,
                "isERC721": false,
                "isReverted": false,
                "order": 1,
                "to": "0xefa314a0b43c0178ffc6c87347497c90bcfade13",
                "token": "0x514910771af9ca656af840dff83e8264ecf986ca"
            }
        ],
        "token_infos": [
            {
                "address": "0x514910771af9ca656af840dff83e8264ecf986ca",
                "decimals": 18
            },
            {
                "address": "0xc02aaa39b223fe8d0a0e5c4f27ead9083c756cc2",
                "decimals": 18
            },
            {
                "address": "0xeeeeeeeeeeeeeeeeeeeeeeeeeeeeeeeeeeeeeeee",
                "decimals": 18
            }
        ]
    },
    "address_label": {
        "labels": [
            {
                "address": "0x0000000000000000000000000000000000000002",
                "label": "Precompiled"
            },
            {
                "address": "0x0000000000000000000000000000000000000003",
                "label": "Precompiled"
            },
            {
                "address": "0x0000000000000000000000000000000000000004",
                "label": "Precompiled"
            },
            {
                "address": "0xeeeeeeeeeeeeeeeeeeeeeeeeeeeeeeeeeeeeeeee",
                "label": "Ether"
            },
            {
                "address": "0x0681d8db095565fe8a346fa0277bffde9c0edbbf",
                "label": "Binance 4"
            },
            {
                "address": "0x514910771af9ca656af840dff83e8264ecf986ca",
                "label": "Chainlink: LINK Token"
            },
            {
                "address": "0x0000000000000000000000000000000000000001",
                "label": "Precompiled"
            }
        ]
    },
    "trace": {
        "accountLabels": null,
        "dataMap": {
            "-1": {
                "invocation": {
                    "address": "0x0681d8db095565fe8a346fa0277bffde9c0edbbf",
                    "callData": "",
                    "decodedMethod": null,
                    "errorInfo": "",
                    "fromAddress": "",
                    "gasUsed": 0,
                    "id": -1,
                    "methodDecoded": false,
                    "operation": "",
                    "output": "",
                    "revert": false,
                    "revertMessage": "",
                    "selector": "",
                    "status": false,
                    "value": ""
                },
                "nodeType": 0
            },
            "0": {
                "invocation": {
                    "address": "0x514910771af9ca656af840dff83e8264ecf986ca",
                    "callData": "0x000000000000000000000000efa314a0b43c0178ffc6c87347497c90bcfade13000000000000000000000000000000000000000000000002cc8c435745504c00",
                    "decodedMethod": {
                        "callParams": [
                            {
                                "name": "_to",
                                "type": "address",
                                "value": "0xefa314a0b43c0178ffc6c87347497c90bcfade13"
                            },
                            {
                                "decimalAvailable": true,
                                "name": "_value",
                                "type": "uint256",
                                "value": "51,632,717,870,000,000,000"
                            }
                        ],
                        "constructorArguments": "",
                        "name": "transfer",
                        "returnParams": [
                            {
                                "name": "success",
                                "type": "bool",
                                "value": true
                            }
                        ],
                        "signature": "transfer(address,uint256)"
                    },
                    "errorInfo": "",
                    "fromAddress": "0x0681d8db095565fe8a346fa0277bffde9c0edbbf",
                    "gasUsed": 51601,
                    "id": 0,
                    "methodDecoded": true,
                    "operation": "CALL",
                    "output": "0x0000000000000000000000000000000000000000000000000000000000000001",
                    "revert": false,
                    "revertMessage": "",
                    "selector": "0xa9059cbb",
                    "status": true,
                    "value": "0"
                },
                "nodeType": 0
            },
            "1": {
                "event": {
                    "contract": "0x514910771af9ca656af840dff83e8264ecf986ca",
                    "decodedLog": {
                        "name": "Transfer",
                        "params": [
                            {
                                "name": "from",
                                "type": "address",
                                "value": "0x0681d8db095565fe8a346fa0277bffde9c0edbbf"
                            },
                            {
                                "name": "to",
                                "type": "address",
                                "value": "0xefa314a0b43c0178ffc6c87347497c90bcfade13"
                            },
                            {
                                "decimalAvailable": true,
                                "name": "value",
                                "type": "uint256",
                                "value": "51,632,717,870,000,000,000"
                            }
                        ],
                        "signature": "Transfer(address,address,uint256)"
                    },
                    "id": 1,
                    "logData": "0x000000000000000000000000000000000000000000000002cc8c435745504c00",
                    "logDecoded": true,
                    "operation": "EVENT",
                    "revert": false,
                    "status": true,
                    "topics": [
                        "0xddf252ad1be2c89b69c2b068fc378daa952ba7f163c4a11628f55a4df523b3ef",
                        "0x0000000000000000000000000681d8db095565fe8a346fa0277bffde9c0edbbf",
                        "0x000000000000000000000000efa314a0b43c0178ffc6c87347497c90bcfade13"
                    ]
                },
                "nodeType": 1
            }
        },
        "gasFlame": [
            {
                "children": [
                    {
                        "children": [
                            {
                                "children": [],
                                "depth": 0,
                                "name": "Initial Gas",
                                "value": 21656
                            },
                            {
                                "children": [],
                                "depth": 0,
                                "name": "Executed Gas",
                                "value": 29945
                            }
                        ],
                        "depth": -1,
                        "name": "Actual Gas Used",
                        "value": 51601
                    },
                    {
                        "children": [],
                        "depth": -1,
                        "name": "Refunded Gas",
                        "value": 0
                    }
                ],
                "depth": -2,
                "name": "Total Gas",
                "value": 51601
            }
        ],
        "isConfirmed": true,
        "mainTrace": [
            {
                "children": [
                    {
                        "children": [
                            {
                                "children": [],
                                "depth": 1,
                                "id": 1,
                                "order": 1
                            }
                        ],
                        "depth": 0,
                        "id": 0,
                        "order": 0
                    }
                ],
                "depth": -1,
                "id": -1,
                "order": -1
            }
        ],
        "mainTraceNodeCount": 2,
        "parentIdMap": {
            "0": -1,
            "1": 0
        },
        "tidyTrace": [
            {
                "children": [
                    {
                        "children": [
                            {
                                "children": [],
                                "depth": 1,
                                "id": 1,
                                "order": 1
                            }
                        ],
                        "depth": 0,
                        "id": 0,
                        "order": 0
                    }
                ],
                "depth": -1,
                "id": -1,
                "order": -1
            }
        ],
        "tidyTraceNodeCount": 2
    },
    "state_change": {
        "stateChanges": [
            {
                "address": "0x514910771af9ca656af840dff83e8264ecf986ca",
                "erc": "",
                "slots": [
                    {
                        "current": "0x0000000000000000000000000000000000000000000027ffe29790571e5d3c00",
                        "key": "0x3ac278e99f6803d9ce8fed46cf412a32f546b1d54ba1b17613d1603377058582",
                        "prev": "0x000000000000000000000000000000000000000000002802af23d3ae63ad8800"
                    },
                    {
                        "current": "0x000000000000000000000000000000000000000000000002cc8c435745504c00",
                        "key": "0xcafa8e75ca954d38e53c1747c27a0790032fa9648467a8a5a3c22c20cd539fac",
                        "prev": "0x0000000000000000000000000000000000000000000000000000000000000000"
                    }
                ],
                "storageVariables": [
                    {
                        "name": "balances",
                        "type": "mapping(address => uint256)",
                        "value": {
                            "pairs": [
                                {
                                    "key": "0x0681d8db095565fe8a346fa0277bffde9c0edbbf",
                                    "value": {
                                        "current": "188892540248390000000000",
                                        "prev": "188944172966260000000000",
                                        "typeTag": 1
                                    }
                                },
                                {
                                    "key": "0xefa314a0b43c0178ffc6c87347497c90bcfade13",
                                    "value": {
                                        "current": "51632717870000000000",
                                        "prev": "0",
                                        "typeTag": 1
                                    }
                                }
                            ],
                            "typeTag": 4
                        }
                    }
                ]
            }
        ]
    }
}