{
    "balance_change": {
        "balanceChanges": [
            {
                "account": "0x4dd9e7b27489d1f494acb3c940da7012db7d1a61",
                "assets": [
                    {
                        "address": "0xa0b86991c6218b36c1d19d4a2e9eb0ce3606eb48",
                        "amount": "3",
                        "iconUrl": "https://assets.blocksec.com/icon/0347a86cc07dbd03fdc5db01a4e5ac7e1217f90e0b6e4bb0f75cbcca09160989.png",
                        "isERC1155": false,
                        "isERC721": false,
                        "sign": false,
                        "value": ""
                    },
                    {
                        "address": "0x39aa39c021dfbae8fac545936693ac917d5e7563",
                        "amount": "141.32360547",
                        "iconUrl": "https://assets.blocksec.com/icon/a0c5d903b8287675754b76ffc050d1bc04125601b5ae211cf224ecb8f98e3802.png",
                        "isERC1155": false,
                        "isERC721": false,
                        "sign": true,
                        "value": ""
                    }
                ]
            },
            {
                "account": "0x39aa39c021dfbae8fac545936693ac917d5e7563",
                "assets": [
                    {
                        "address": "0xa0b86991c6218b36c1d19d4a2e9eb0ce3606eb48",
                        "amount": "3",
                        "iconUrl": "https://assets.blocksec.com/icon/0347a86cc07dbd03fdc5db01a4e5ac7e1217f90e0b6e4bb0f75cbcca09160989.png",
                        "isERC1155": false,
                        "isERC721": false,
                        "sign": true,
                        "value": ""
                    },
                    {
                        "address": "0x39aa39c021dfbae8fac545936693ac917d5e7563",
                        "amount": "141.32360547",
                        "iconUrl": "https://assets.blocksec.com/icon/a0c5d903b8287675754b76ffc050d1bc04125601b5ae211cf224ecb8f98e3802.png",
                        "isERC1155": false,
                        "isERC721": false,
                        "sign": false,
                        "value": ""
                    }
                ]
            }
        ]
    },
    "profile": {
        "basic_info": {
            "baseFee": "",
            "blockNumber": 11194655,
            "callData": "0xa0712d6800000000000000000000000000000000000000000000000000000000002dc6c0",
            "debugEnable": true,
            "errorInfo": "",
            "eventCount": 5,
            "feeRecipient": "0xeea5b82b61424df8020f5fedd81767f2d0d25bfb",
            "formatValue": "0",
            "gasLimit": 247777,
            "gasPrice": "29",
            "gasUsed": 174552,
            "intTxnCount": 16,
            "internalRevert": false,
            "internalRevertMessage": "",
            "isContractCreation": false,
            "isFlashloan": false,
            "maxFee": "",
            "nonce": 1,
            "overwritedBlockNumber": -1,
            "priorityFee": "",
            "receiver": "0x39aa39c021dfbae8fac545936693ac917d5e7563",
            "revertMessage": "",
            "sender": "0x4dd9e7b27489d1f494acb3c940da7012db7d1a61",
            "simulationEnable": true,
            "sourceTxnHash": "0x9bd660b33442d661ba0f395dfff363a3ef2136a38d4ff1eb5cdadf580551c91d",
            "status": true,
            "timestamp": "2020-11-05T03:04:33Z",
            "transactionFee": "0.005062008",
            "txnHash": "0x9bd660b33442d661ba0f395dfff363a3ef2136a38d4ff1eb5cdadf580551c91d",
            "txnIndex": 83,
            "type": 0,
            "value": "0"
        },
        "fund_flow": [
            {
                "amount": "3",
                "from": "0x4dd9e7b27489d1f494acb3c940da7012db7d1a61",
                "id": 1,
                "isERC1155": false,
                "isERC721": false,
                "isReverted": false,
                "order": 1,
                "to": "0x39aa39c021dfbae8fac545936693ac917d5e7563",
                "token": "0xa0b86991c6218b36c1d19d4a2e9eb0ce3606eb48"
            },
            {
                "amount": "141.32360547",
                "from": "0x39aa39c021dfbae8fac545936693ac917d5e7563",
                "id": 2,
                "isERC1155": false,
                "isERC721": false,
                "isReverted": false,
                "order": 2,
                "to": "0x4dd9e7b27489d1f494acb3c940da7012db7d1a61",
                "token": "0x39aa39c021dfbae8fac545936693ac917d5e7563"
            }
        ],
        "token_infos": [
            {
                "address": "0x39aa39c021dfbae8fac545936693ac917d5e7563",
                "decimals": 8
            },
            {
                "address": "0xa0b86991c6218b36c1d19d4a2e9eb0ce3606eb48",
                "decimals": 6
            },
            {
                "address": "0xc02aaa39b223fe8d0a0e5c4f27ead9083c756cc2",
                "decimals": 18
            },
            {
                "address": "0xeeeeeeeeeeeeeeeeeeeeeeeeeeeeeeeeeeeeeeee",
                "decimals": 18
            }
        ]
    },
    "address_label": {
        "labels": [
            {
                "address": "0xd8ec56013ea119e7181d231e5048f90fbbe753c0",
                "label": "LegacyJumpRateModelV2"
            },
            {
                "address": "0x0000000000000000000000000000000000000001",
                "label": "Precompiled"
            },
            {
                "address": "0x0000000000000000000000000000000000000002",
                "label": "Precompiled"
            },
            {
                "address": "0x0000000000000000000000000000000000000003",
                "label": "Precompiled"
            },
            {
                "address": "0x0000000000000000000000000000000000000004",
                "label": "Precompiled"
            },
            {
                "address": "0xeeeeeeeeeeeeeeeeeeeeeeeeeeeeeeeeeeeeeeee",
                "label": "Ether"
            },
            {
                "address": "0x39aa39c021dfbae8fac545936693ac917d5e7563",
                "label": "Compound USD Coin (cUSDC)"
            },
            {
                "address": "0x3d9819210a31b4961b30ef54be2aed79b9c9cd3b",
                "label": "Compound: Comptroller"
            },
            {
                "address": "0x7b5e3521a049c8ff88e6349f33044c6cc33c113c",
                "label": "Comptroller"
            },
            {
                "address": "0xb7277a6e95992041568d9391d09d0122023778a2",
                "label": "FiatTokenV2"
            },
            {
                "address": "0xa0b86991c6218b36c1d19d4a2e9eb0ce3606eb48",
                "label": "Circle: USDC Token"
            }
        ]
    },
    "trace": {
        "accountLabels": null,
        "dataMap": {
            "-1": {
                "invocation": {
                    "address": "0x4dd9e7b27489d1f494acb3c940da7012db7d1a61",
                    "callData": "",
                    "decodedMethod": null,
                    "errorInfo": "",
                    "fromAddress": "",
                    "gasUsed": 0,
                    "id": -1,
                    "methodDecoded": false,
                    "operation": "",
                    "output": "",
                    "revert": false,
                    "revertMessage": "",
                    "selector": "",
                    "status": false,
                    "value": ""
                },
                "nodeType": 0
            },
            "0": {
                "invocation": {
                    "address": "0x39aa39c021dfbae8fac545936693ac917d5e7563",
                    "callData": "0x00000000000000000000000000000000000000000000000000000000002dc6c0",
                    "decodedMethod": {
                        "callParams": [
                            {
                                "name": "mintAmount",
                                "type": "uint256",
                                "value": "3,000,000"
                            }
                        ],
                        "constructorArguments": "",
                        "name": "mint",
                        "returnParams": [
                            {
                                "name": "",
                                "type": "uint256",
                                "value": "0"
                            }
                        ],
                        "signature": "mint(uint256)"
                    },
                    "errorInfo": "",
                    "fromAddress": "0x4dd9e7b27489d1f494acb3c940da7012db7d1a61",
                    "gasUsed": 174552,
                    "id": 0,
                    "methodDecoded": true,
                    "operation": "CALL",
                    "output": "0x0000000000000000000000000000000000000000000000000000000000000000",
                    "revert": false,
                    "revertMessage": "",
                    "selector": "0xa0712d68",
                    "status": true,
                    "value": "0"
                },
                "nodeType": 0
            },
            "1": {
                "invocation": {
                    "address": "0xa0b86991c6218b36c1d19d4a2e9eb0ce3606eb48",
                    "callData": "0x00000000000000000000000039aa39c021dfbae8fac545936693ac917d5e7563",
                    "decodedMethod": {
                        "callParams": [
                            {
                                "name": "account",
                                "type": "address",
                                "value": "0x39aa39c021dfbae8fac545936693ac917d5e7563"
                            }
                        ],
                        "constructorArguments": "",
                        "name": "balanceOf",
                        "returnParams": [
                            {
                                "decimalAvailable": true,
                                "name": "",
                                "type": "uint256",
                                "value": "76,423,549,199,074"
                            }
                        ],
                        "signature": "balanceOf(address)"
                    },
                    "errorInfo": "",
                    "fromAddress": "0x39aa39c021dfbae8fac545936693ac917d5e7563",
                    "gasUsed": 3993,
                    "id": 1,
                    "methodDecoded": true,
                    "operation": "STATICCALL",
                    "output": "0x00000000000000000000000000000000000000000000000000004581be80a2e2",
                    "revert": false,
                    "revertMessage": "",
                    "selector": "0x70a08231",
                    "status": true,
                    "value": "0"
                },
                "nodeType": 0
            },
            "10": {
                "invocation": {
                    "address": "0xb7277a6e95992041568d9391d09d0122023778a2",
                    "callData": "0x0000000000000000000000004dd9e7b27489d1f494acb3c940da7012db7d1a6100000000000000000000000039aa39c021dfbae8fac545936693ac917d5e7563",
                    "decodedMethod": {
                        "callParams": [
                            {
                                "name": "owner",
                                "type": "address",
                                "value": "0x4dd9e7b27489d1f494acb3c940da7012db7d1a61"
                            },
                            {
                                "name": "spender",
                                "type": "address",
                                "value": "0x39aa39c021dfbae8fac545936693ac917d5e7563"
                            }
                        ],
                        "constructorArguments": "",
                        "name": "allowance",
                        "returnParams": [
                            {
                                "decimalAvailable": true,
                                "name": "",
                                "type": "uint256",
                                "value": "115,792,089,237,316,195,423,570,985,008,687,907,853,269,984,665,640,564,039,457,584,007,913,129,639,935"
                            }
                        ],
                        "signature": "allowance(address,address)"
                    },
                    "errorInfo": "",
                    "fromAddress": "0xa0b86991c6218b36c1d19d4a2e9eb0ce3606eb48",
                    "gasUsed": 1337,
                    "id": 10,
                    "methodDecoded": true,
                    "operation": "DELEGATECALL",
                    "output": "0xffffffffffffffffffffffffffffffffffffffffffffffffffffffffffffffff",
                    "revert": false,
                    "revertMessage": "",
                    "selector": "0xdd62ed3e",
                    "status": true,
                    "value": "0"
                },
                "nodeType": 0
            },
            "11": {
                "invocation": {
                    "address": "0xa0b86991c6218b36c1d19d4a2e9eb0ce3606eb48",
                    "callData": "0x0000000000000000000000004dd9e7b27489d1f494acb3c940da7012db7d1a61",
                    "decodedMethod": {
                        "callParams": [
                            {
                                "name": "account",
                                "type": "address",
                                "value": "0x4dd9e7b27489d1f494acb3c940da7012db7d1a61"
                            }
                        ],
                        "constructorArguments": "",
                        "name": "balanceOf",
                        "returnParams": [
                            {
                                "decimalAvailable": true,
                                "name": "",
                                "type": "uint256",
                                "value": "3,000,000"
                            }
                        ],
                        "signature": "balanceOf(address)"
                    },
                    "errorInfo": "",
                    "fromAddress": "0x39aa39c021dfbae8fac545936693ac917d5e7563",
                    "gasUsed": 3993,
                    "id": 11,
                    "methodDecoded": true,
                    "operation": "STATICCALL",
                    "output": "0x00000000000000000000000000000000000000000000000000000000002dc6c0",
                    "revert": false,
                    "revertMessage": "",
                    "selector": "0x70a08231",
                    "status": true,
                    "value": "0"
                },
                "nodeType": 0
            },
            "12": {
                "invocation": {
                    "address": "0xb7277a6e95992041568d9391d09d0122023778a2",
                    "callData": "0x0000000000000000000000004dd9e7b27489d1f494acb3c940da7012db7d1a61",
                    "decodedMethod": {
                        "callParams": [
                            {
                                "name": "account",
                                "type": "address",
                                "value": "0x4dd9e7b27489d1f494acb3c940da7012db7d1a61"
                            }
                        ],
                        "constructorArguments": "",
                        "name": "balanceOf",
                        "returnParams": [
                            {
                                "decimalAvailable": true,
                                "name": "",
                                "type": "uint256",
                                "value": "3,000,000"
                            }
                        ],
                        "signature": "balanceOf(address)"
                    },
                    "errorInfo": "",
                    "fromAddress": "0xa0b86991c6218b36c1d19d4a2e9eb0ce3606eb48",
                    "gasUsed": 1207,
                    "id": 12,
                    "methodDecoded": true,
                    "operation": "DELEGATECALL",
                    "output": "0x00000000000000000000000000000000000000000000000000000000002dc6c0",
                    "revert": false,
                    "revertMessage": "",
                    "selector": "0x70a08231",
                    "status": true,
                    "value": "0"
                },
                "nodeType": 0
            },
            "13": {
                "invocation": {
                    "address": "0xa0b86991c6218b36c1d19d4a2e9eb0ce3606eb48",
                    "callData": "0x00000000000000000000000039aa39c021dfbae8fac545936693ac917d5e7563",
                    "decodedMethod": {
                        "callParams": [
                            {
                                "name": "account",
                                "type": "address",
                                "value": "0x39aa39c021dfbae8fac545936693ac917d5e7563"
                            }
                        ],
                        "constructorArguments": "",
                        "name": "balanceOf",
                        "returnParams": [
                            {
                                "decimalAvailable": true,
                                "name": "",
                                "type": "uint256",
                                "value": "76,423,549,199,074"
                            }
                        ],
                        "signature": "balanceOf(address)"
                    },
                    "errorInfo": "",
                    "fromAddress": "0x39aa39c021dfbae8fac545936693ac917d5e7563",
                    "gasUsed": 3993,
                    "id": 13,
                    "methodDecoded": true,
                    "operation": "STATICCALL",
                    "output": "0x00000000000000000000000000000000000000000000000000004581be80a2e2",
                    "revert": false,
                    "revertMessage": "",
                    "selector": "0x70a08231",
                    "status": true,
                    "value": "0"
                },
                "nodeType": 0
            },
            "14": {
                "invocation": {
                    "address": "0xb7277a6e95992041568d9391d09d0122023778a2",
                    "callData": "0x00000000000000000000000039aa39c021dfbae8fac545936693ac917d5e7563",
                    "decodedMethod": {
                        "callParams": [
                            {
                                "name": "account",
                                "type": "address",
                                "value": "0x39aa39c021dfbae8fac545936693ac917d5e7563"
                            }
                        ],
                        "constructorArguments": "",
                        "name": "balanceOf",
                        "returnParams": [
                            {
                                "decimalAvailable": true,
                                "name": "",
                                "type": "uint256",
                                "value": "76,423,549,199,074"
                            }
                        ],
                        "signature": "balanceOf(address)"
                    },
                    "errorInfo": "",
                    "fromAddress": "0xa0b86991c6218b36c1d19d4a2e9eb0ce3606eb48",
                    "gasUsed": 1207,
                    "id": 14,
                    "methodDecoded": true,
                    "operation": "DELEGATECALL",
                    "output": "0x00000000000000000000000000000000000000000000000000004581be80a2e2",
                    "revert": false,
                    "revertMessage": "",
                    "selector": "0x70a08231",
                    "status": true,
                    "value": "0"
                },
                "nodeType": 0
            },
            "15": {
                "invocation": {
                    "address": "0xa0b86991c6218b36c1d19d4a2e9eb0ce3606eb48",
                    "callData": "0x0000000000000000000000004dd9e7b27489d1f494acb3c940da7012db7d1a6100000000000000000000000039aa39c021dfbae8fac545936693ac917d5e756300000000000000000000000000000000000000000000000000000000002dc6c0",
                    "decodedMethod": {
                        "callParams": [
                            {
                                "name": "from",
                                "type": "address",
                                "value": "0x4dd9e7b27489d1f494acb3c940da7012db7d1a61"
                            },
                            {
                                "name": "to",
                                "type": "address",
                                "value": "0x39aa39c021dfbae8fac545936693ac917d5e7563"
                            },
                            {
                                "decimalAvailable": true,
                                "name": "value",
                                "type": "uint256",
                                "value": "3,000,000"
                            }
                        ],
                        "constructorArguments": "",
                        "name": "transferFrom",
                        "returnParams": [
                            {
                                "name": "",
                                "type": "bool",
                                "value": true
                            }
                        ],
                        "signature": "transferFrom(address,address,uint256)"
                    },
                    "errorInfo": "",
                    "fromAddress": "0x39aa39c021dfbae8fac545936693ac917d5e7563",
                    "gasUsed": 29014,
                    "id": 15,
                    "methodDecoded": true,
                    "operation": "CALL",
                    "output": "0x0000000000000000000000000000000000000000000000000000000000000001",
                    "revert": false,
                    "revertMessage": "",
                    "selector": "0x23b872dd",
                    "status": true,
                    "value": "0"
                },
                "nodeType": 0
            },
            "16": {
                "invocation": {
                    "address": "0xb7277a6e95992041568d9391d09d0122023778a2",
                    "callData": "0x0000000000000000000000004dd9e7b27489d1f494acb3c940da7012db7d1a6100000000000000000000000039aa39c021dfbae8fac545936693ac917d5e756300000000000000000000000000000000000000000000000000000000002dc6c0",
                    "decodedMethod": {
                        "callParams": [
                            {
                                "name": "from",
                                "type": "address",
                                "value": "0x4dd9e7b27489d1f494acb3c940da7012db7d1a61"
                            },
                            {
                                "name": "to",
                                "type": "address",
                                "value": "0x39aa39c021dfbae8fac545936693ac917d5e7563"
                            },
                            {
                                "decimalAvailable": true,
                                "name": "value",
                                "type": "uint256",
                                "value": "3,000,000"
                            }
                        ],
                        "constructorArguments": "",
                        "name": "transferFrom",
                        "returnParams": [
                            {
                                "name": "",
                                "type": "bool",
                                "value": true
                            }
                        ],
                        "signature": "transferFrom(address,address,uint256)"
                    },
                    "errorInfo": "",
                    "fromAddress": "0xa0b86991c6218b36c1d19d4a2e9eb0ce3606eb48",
                    "gasUsed": 26219,
                    "id": 16,
                    "methodDecoded": true,
                    "operation": "DELEGATECALL",
                    "output": "0x0000000000000000000000000000000000000000000000000000000000000001",
                    "revert": false,
                    "revertMessage": "",
                    "selector": "0x23b872dd",
                    "status": true,
                    "value": "0"
                },
                "nodeType": 0
            },
            "17": {
                "event": {
                    "contract": "0xa0b86991c6218b36c1d19d4a2e9eb0ce3606eb48",
                    "decodedLog": {
                        "name": "Transfer",
                        "params": [
                            {
                                "name": "from",
                                "type": "address",
                                "value": "0x4dd9e7b27489d1f494acb3c940da7012db7d1a61"
                            },
                            {
                                "name": "to",
                                "type": "address",
                                "value": "0x39aa39c021dfbae8fac545936693ac917d5e7563"
                            },
                            {
                                "decimalAvailable": true,
                                "name": "value",
                                "type": "uint256",
                                "value": "3,000,000"
                            }
                        ],
                        "signature": "Transfer(address,address,uint256)"
                    },
                    "id": 17,
                    "logData": "0x00000000000000000000000000000000000000000000000000000000002dc6c0",
                    "logDecoded": true,
                    "operation": "EVENT",
                    "revert": false,
                    "status": true,
                    "topics": [
                        "0xddf252ad1be2c89b69c2b068fc378daa952ba7f163c4a11628f55a4df523b3ef",
                        "0x0000000000000000000000004dd9e7b27489d1f494acb3c940da7012db7d1a61",
                        "0x00000000000000000000000039aa39c021dfbae8fac545936693ac917d5e7563"
                    ]
                },
                "nodeType": 1
            },
            "18": {
                "event": {
                    "contract": "0x39aa39c021dfbae8fac545936693ac917d5e7563",
                    "decodedLog": {
                        "name": "Mint",
                        "params": [
                            {
                                "name": "minter",
                                "type": "address",
                                "value": "0x4dd9e7b27489d1f494acb3c940da7012db7d1a61"
                            },
                            {
                                "name": "mintAmount",
                                "type": "uint256",
                                "value": "3,000,000"
                            },
                            {
                                "name": "mintTokens",
                                "type": "uint256",
                                "value": "14,132,360,547"
                            }
                        ],
                        "signature": "Mint(address,uint256,uint256)"
                    },
                    "id": 18,
                    "logData": "0x0000000000000000000000004dd9e7b27489d1f494acb3c940da7012db7d1a6100000000000000000000000000000000000000000000000000000000002dc6c0000000000000000000000000000000000000000000000000000000034a5ab563",
                    "logDecoded": true,
                    "operation": "EVENT",
                    "revert": false,
                    "status": true,
                    "topics": [
                        "0x4c209b5fc8ad50758f13e2e1088ba56a560dff690a1c6fef26394f4c03821c4f"
                    ]
                },
                "nodeType": 1
            },
            "19": {
                "event": {
                    "contract": "0x39aa39c021dfbae8fac545936693ac917d5e7563",
                    "decodedLog": {
                        "name": "Transfer",
                        "params": [
                            {
                                "name": "from",
                                "type": "address",
                                "value": "0x39aa39c021dfbae8fac545936693ac917d5e7563"
                            },
                            {
                                "name": "to",
                                "type": "address",
                                "value": "0x4dd9e7b27489d1f494acb3c940da7012db7d1a61"
                            },
                            {
                                "decimalAvailable": true,
                                "name": "amount",
                                "type": "uint256",
                                "value": "14,132,360,547"
                            }
                        ],
                        "signature": "Transfer(address,address,uint256)"
                    },
                    "id": 19,
                    "logData": "0x000000000000000000000000000000000000000000000000000000034a5ab563",
                    "logDecoded": true,
                    "operation": "EVENT",
                    "revert": false,
                    "status": true,
                    "topics": [
                        "0xddf252ad1be2c89b69c2b068fc378daa952ba7f163c4a11628f55a4df523b3ef",
                        "0x00000000000000000000000039aa39c021dfbae8fac545936693ac917d5e7563",
                        "0x0000000000000000000000004dd9e7b27489d1f494acb3c940da7012db7d1a61"
                    ]
                },
                "nodeType": 1
            },
            "2": {
                "invocation": {
                    "address": "0xb7277a6e95992041568d9391d09d0122023778a2",
                    "callData": "0x00000000000000000000000039aa39c021dfbae8fac545936693ac917d5e7563",
                    "decodedMethod": {
                        "callParams": [
                            {
                                "name": "account",
                                "type": "address",
                                "value": "0x39aa39c021dfbae8fac545936693ac917d5e7563"
                            }
                        ],
                        "constructorArguments": "",
                        "name": "balanceOf",
                        "returnParams": [
                            {
                                "decimalAvailable": true,
                                "name": "",
                                "type": "uint256",
                                "value": "76,423,549,199,074"
                            }
                        ],
                        "signature": "balanceOf(address)"
                    },
                    "errorInfo": "",
                    "fromAddress": "0xa0b86991c6218b36c1d19d4a2e9eb0ce3606eb48",
                    "gasUsed": 1207,
                    "id": 2,
                    "methodDecoded": true,
                    "operation": "DELEGATECALL",
                    "output": "0x00000000000000000000000000000000000000000000000000004581be80a2e2",
                    "revert": false,
                    "revertMessage": "",
                    "selector": "0x70a08231",
                    "status": true,
                    "value": "0"
                },
                "nodeType": 0
            },
            "20": {
                "invocation": {
                    "address": "0x3d9819210a31b4961b30ef54be2aed79b9c9cd3b",
                    "callData": "0x00000000000000000000000039aa39c021dfbae8fac545936693ac917d5e75630000000000000000000000004dd9e7b27489d1f494acb3c940da7012db7d1a6100000000000000000000000000000000000000000000000000000000002dc6c0000000000000000000000000000000000000000000000000000000034a5ab563",
                    "decodedMethod": {
                        "callParams": [
                            {
                                "name": "cToken",
                                "type": "address",
                                "value": "0x39aa39c021dfbae8fac545936693ac917d5e7563"
                            },
                            {
                                "name": "minter",
                                "type": "address",
                                "value": "0x4dd9e7b27489d1f494acb3c940da7012db7d1a61"
                            },
                            {
                                "name": "actualMintAmount",
                                "type": "uint256",
                                "value": "3,000,000"
                            },
                            {
                                "name": "mintTokens",
                                "type": "uint256",
                                "value": "14,132,360,547"
                            }
                        ],
                        "constructorArguments": "",
                        "name": "mintVerify",
                        "returnParams": [],
                        "signature": "mintVerify(address,address,uint256,uint256)"
                    },
                    "errorInfo": "",
                    "fromAddress": "0x39aa39c021dfbae8fac545936693ac917d5e7563",
                    "gasUsed": 2316,
                    "id": 20,
                    "methodDecoded": true,
                    "operation": "CALL",
                    "output": "",
                    "revert": false,
                    "revertMessage": "",
                    "selector": "0x41c728b9",
                    "status": true,
                    "value": "0"
                },
                "nodeType": 0
            },
            "21": {
                "invocation": {
                    "address": "0x7b5e3521a049c8ff88e6349f33044c6cc33c113c",
                    "callData": "0x00000000000000000000000039aa39c021dfbae8fac545936693ac917d5e75630000000000000000000000004dd9e7b27489d1f494acb3c940da7012db7d1a6100000000000000000000000000000000000000000000000000000000002dc6c0000000000000000000000000000000000000000000000000000000034a5ab563",
                    "decodedMethod": {
                        "callParams": [
                            {
                                "name": "cToken",
                                "type": "address",
                                "value": "0x39aa39c021dfbae8fac545936693ac917d5e7563"
                            },
                            {
                                "name": "minter",
                                "type": "address",
                                "value": "0x4dd9e7b27489d1f494acb3c940da7012db7d1a61"
                            },
                            {
                                "name": "actualMintAmount",
                                "type": "uint256",
                                "value": "3,000,000"
                            },
                            {
                                "name": "mintTokens",
                                "type": "uint256",
                                "value": "14,132,360,547"
                            }
                        ],
                        "constructorArguments": "",
                        "name": "mintVerify",
                        "returnParams": [],
                        "signature": "mintVerify(address,address,uint256,uint256)"
                    },
                    "errorInfo": "",
                    "fromAddress": "0x3d9819210a31b4961b30ef54be2aed79b9c9cd3b",
                    "gasUsed": 403,
                    "id": 21,
                    "methodDecoded": true,
                    "operation": "DELEGATECALL",
                    "output": "",
                    "revert": false,
                    "revertMessage": "",
                    "selector": "0x41c728b9",
                    "status": true,
                    "value": "0"
                },
                "nodeType": 0
            },
            "3": {
                "invocation": {
                    "address": "0xd8ec56013ea119e7181d231e5048f90fbbe753c0",
                    "callData": "0x00000000000000000000000000000000000000000000000000004581be80a2e20000000000000000000000000000000000000000000000000000b15d27cb37b60000000000000000000000000000000000000000000000000000002e77fbe72e",
                    "decodedMethod": {
                        "callParams": [
                            {
                                "name": "cash",
                                "type": "uint256",
                                "value": "76,423,549,199,074"
                            },
                            {
                                "name": "borrows",
                                "type": "uint256",
                                "value": "195,013,657,704,374"
                            },
                            {
                                "name": "reserves",
                                "type": "uint256",
                                "value": "199,581,493,038"
                            }
                        ],
                        "constructorArguments": "",
                        "name": "getBorrowRate",
                        "returnParams": [
                            {
                                "name": "",
                                "type": "uint256",
                                "value": "0"
                            },
                            {
                                "name": "",
                                "type": "uint256",
                                "value": "17,098,962,146"
                            }
                        ],
                        "signature": "getBorrowRate(uint256,uint256,uint256)"
                    },
                    "errorInfo": "",
                    "fromAddress": "0x39aa39c021dfbae8fac545936693ac917d5e7563",
                    "gasUsed": 3953,
                    "id": 3,
                    "methodDecoded": true,
                    "operation": "STATICCALL",
                    "output": "0x000000000000000000000000000000000000000000000000000000000000000000000000000000000000000000000000000000000000000000000003fb2d74e2",
                    "revert": false,
                    "revertMessage": "",
                    "selector": "0x15f24053",
                    "status": true,
                    "value": "0"
                },
                "nodeType": 0
            },
            "4": {
                "event": {
                    "contract": "0x39aa39c021dfbae8fac545936693ac917d5e7563",
                    "decodedLog": {
                        "name": "AccrueInterest",
                        "params": [
                            {
                                "name": "interestAccumulated",
                                "type": "uint256",
                                "value": "0"
                            },
                            {
                                "name": "borrowIndex",
                                "type": "uint256",
                                "value": "1,134,779,686,675,831,817"
                            },
                            {
                                "name": "totalBorrows",
                                "type": "uint256",
                                "value": "195,013,657,704,374"
                            }
                        ],
                        "signature": "AccrueInterest(uint256,uint256,uint256)"
                    },
                    "id": 4,
                    "logData": "0x00000000000000000000000000000000000000000000000000000000000000000000000000000000000000000000000000000000000000000fbf8c1cdaa45c090000000000000000000000000000000000000000000000000000b15d27cb37b6",
                    "logDecoded": true,
                    "operation": "EVENT",
                    "revert": false,
                    "status": true,
                    "topics": [
                        "0x875352fb3fadeb8c0be7cbbe8ff761b308fa7033470cd0287f02f3436fd76cb9"
                    ]
                },
                "nodeType": 1
            },
            "5": {
                "invocation": {
                    "address": "0x3d9819210a31b4961b30ef54be2aed79b9c9cd3b",
                    "callData": "0x00000000000000000000000039aa39c021dfbae8fac545936693ac917d5e75630000000000000000000000004dd9e7b27489d1f494acb3c940da7012db7d1a6100000000000000000000000000000000000000000000000000000000002dc6c0",
                    "decodedMethod": {
                        "callParams": [
                            {
                                "name": "cToken",
                                "type": "address",
                                "value": "0x39aa39c021dfbae8fac545936693ac917d5e7563"
                            },
                            {
                                "name": "minter",
                                "type": "address",
                                "value": "0x4dd9e7b27489d1f494acb3c940da7012db7d1a61"
                            },
                            {
                                "name": "mintAmount",
                                "type": "uint256",
                                "value": "3,000,000"
                            }
                        ],
                        "constructorArguments": "",
                        "name": "mintAllowed",
                        "returnParams": [
                            {
                                "name": "",
                                "type": "uint256",
                                "value": "0"
                            }
                        ],
                        "signature": "mintAllowed(address,address,uint256)"
                    },
                    "errorInfo": "",
                    "fromAddress": "0x39aa39c021dfbae8fac545936693ac917d5e7563",
                    "gasUsed": 36425,
                    "id": 5,
                    "methodDecoded": true,
                    "operation": "CALL",
                    "output": "0x0000000000000000000000000000000000000000000000000000000000000000",
                    "revert": false,
                    "revertMessage": "",
                    "selector": "0x4ef4c3e1",
                    "status": true,
                    "value": "0"
                },
                "nodeType": 0
            },
            "6": {
                "invocation": {
                    "address": "0x7b5e3521a049c8ff88e6349f33044c6cc33c113c",
                    "callData": "0x00000000000000000000000039aa39c021dfbae8fac545936693ac917d5e75630000000000000000000000004dd9e7b27489d1f494acb3c940da7012db7d1a6100000000000000000000000000000000000000000000000000000000002dc6c0",
                    "decodedMethod": {
                        "callParams": [
                            {
                                "name": "cToken",
                                "type": "address",
                                "value": "0x39aa39c021dfbae8fac545936693ac917d5e7563"
                            },
                            {
                                "name": "minter",
                                "type": "address",
                                "value": "0x4dd9e7b27489d1f494acb3c940da7012db7d1a61"
                            },
                            {
                                "name": "mintAmount",
                                "type": "uint256",
                                "value": "3,000,000"
                            }
                        ],
                        "constructorArguments": "",
                        "name": "mintAllowed",
                        "returnParams": [
                            {
                                "name": "",
                                "type": "uint256",
                                "value": "0"
                            }
                        ],
                        "signature": "mintAllowed(address,address,uint256)"
                    },
                    "errorInfo": "",
                    "fromAddress": "0x3d9819210a31b4961b30ef54be2aed79b9c9cd3b",
                    "gasUsed": 34445,
                    "id": 6,
                    "methodDecoded": true,
                    "operation": "DELEGATECALL",
                    "output": "0x0000000000000000000000000000000000000000000000000000000000000000",
                    "revert": false,
                    "revertMessage": "",
                    "selector": "0x4ef4c3e1",
                    "status": true,
                    "value": "0"
                },
                "nodeType": 0
            },
            "7": {
                "invocation": {
                    "address": "0x39aa39c021dfbae8fac545936693ac917d5e7563",
                    "callData": "0x0000000000000000000000004dd9e7b27489d1f494acb3c940da7012db7d1a61",
                    "decodedMethod": {
                        "callParams": [
                            {
                                "name": "owner",
                                "type": "address",
                                "value": "0x4dd9e7b27489d1f494acb3c940da7012db7d1a61"
                            }
                        ],
                        "constructorArguments": "",
                        "name": "balanceOf",
                        "returnParams": [
                            {
                                "decimalAvailable": true,
                                "name": "",
                                "type": "uint256",
                                "value": "0"
                            }
                        ],
                        "signature": "balanceOf(address)"
                    },
                    "errorInfo": "",
                    "fromAddress": "0x3d9819210a31b4961b30ef54be2aed79b9c9cd3b",
                    "gasUsed": 1253,
                    "id": 7,
                    "methodDecoded": true,
                    "operation": "STATICCALL",
                    "output": "0x0000000000000000000000000000000000000000000000000000000000000000",
                    "revert": false,
                    "revertMessage": "",
                    "selector": "0x70a08231",
                    "status": true,
                    "value": "0"
                },
                "nodeType": 0
            },
            "8": {
                "event": {
                    "contract": "0x3d9819210a31b4961b30ef54be2aed79b9c9cd3b",
                    "decodedLog": {
                        "name": "DistributedSupplierComp",
                        "params": [
                            {
                                "name": "cToken",
                                "type": "address",
                                "value": "0x39aa39c021dfbae8fac545936693ac917d5e7563"
                            },
                            {
                                "name": "supplier",
                                "type": "address",
                                "value": "0x4dd9e7b27489d1f494acb3c940da7012db7d1a61"
                            },
                            {
                                "name": "compDelta",
                                "type": "uint256",
                                "value": "0"
                            },
                            {
                                "name": "compSupplyIndex",
                                "type": "uint256",
                                "value": "16,948,407,223,805,368,800,678,514,398,239,899,918,057"
                            }
                        ],
                        "signature": "DistributedSupplierComp(address,address,uint256,uint256)"
                    },
                    "id": 8,
                    "logData": "0x000000000000000000000000000000000000000000000000000000000000000000000000000000000000000000000031ce907f8a01cc2c55e811acef092a1ee9",
                    "logDecoded": true,
                    "operation": "EVENT",
                    "revert": false,
                    "status": true,
                    "topics": [
                        "0x2caecd17d02f56fa897705dcc740da2d237c373f70686f4e0d9bd3bf0400ea7a",
                        "0x00000000000000000000000039aa39c021dfbae8fac545936693ac917d5e7563",
                        "0x0000000000000000000000004dd9e7b27489d1f494acb3c940da7012db7d1a61"
                    ]
                },
                "nodeType": 1
            },
            "9": {
                "invocation": {
                    "address": "0xa0b86991c6218b36c1d19d4a2e9eb0ce3606eb48",
                    "callData": "0x0000000000000000000000004dd9e7b27489d1f494acb3c940da7012db7d1a6100000000000000000000000039aa39c021dfbae8fac545936693ac917d5e7563",
                    "decodedMethod": {
                        "callParams": [
                            {
                                "name": "owner",
                                "type": "address",
                                "value": "0x4dd9e7b27489d1f494acb3c940da7012db7d1a61"
                            },
                            {
                                "name": "spender",
                                "type": "address",
                                "value": "0x39aa39c021dfbae8fac545936693ac917d5e7563"
                            }
                        ],
                        "constructorArguments": "",
                        "name": "allowance",
                        "returnParams": [
                            {
                                "decimalAvailable": true,
                                "name": "",
                                "type": "uint256",
                                "value": "115,792,089,237,316,195,423,570,985,008,687,907,853,269,984,665,640,564,039,457,584,007,913,129,639,935"
                            }
                        ],
                        "signature": "allowance(address,address)"
                    },
                    "errorInfo": "",
                    "fromAddress": "0x39aa39c021dfbae8fac545936693ac917d5e7563",
                    "gasUsed": 4126,
                    "id": 9,
                    "methodDecoded": true,
                    "operation": "STATICCALL",
                    "output": "0xffffffffffffffffffffffffffffffffffffffffffffffffffffffffffffffff",
                    "revert": false,
                    "revertMessage": "",
                    "selector": "0xdd62ed3e",
                    "status": true,
                    "value": "0"
                },
                "nodeType": 0
            }
        },
        "gasFlame": [
            {
                "children": [
                    {
                        "children": [
                            {
                                "children": [],
                                "depth": 0,
                                "name": "Initial Gas",
                                "value": 21228
                            },
                            {
                                "children": [
                                    {
                                        "children": [
                                            {
                                                "children": [],
                                                "depth": 2,
                                                "name": "balanceOf",
                                                "value": 1207
                                            }
                                        ],
                                        "depth": 1,
                                        "name": "balanceOf",
                                        "value": 3993
                                    },
                                    {
                                        "children": [],
                                        "depth": 1,
                                        "name": "getBorrowRate",
                                        "value": 3953
                                    },
                                    {
                                        "children": [
                                            {
                                                "children": [
                                                    {
                                                        "children": [],
                                                        "depth": 3,
                                                        "name": "balanceOf",
                                                        "value": 1253
                                                    }
                                                ],
                                                "depth": 2,
                                                "name": "mintAllowed",
                                                "value": 34445
                                            }
                                        ],
                                        "depth": 1,
                                        "name": "mintAllowed",
                                        "value": 36425
                                    },
                                    {
                                        "children": [
                                            {
                                                "children": [],
                                                "depth": 2,
                                                "name": "allowance",
                                                "value": 1337
                                            }
                                        ],
                                        "depth": 1,
                                        "name": "allowance",
                                        "value": 4126
                                    },
                                    {
                                        "children": [
                                            {
                                                "children": [],
                                                "depth": 2,
                                                "name": "balanceOf",
                                                "value": 1207
                                            }
                                        ],
                                        "depth": 1,
                                        "name": "balanceOf",
                                        "value": 3993
                                    },
                                    {
                                        "children": [
                                            {
                                                "children": [],
                                                "depth": 2,
                                                "name": "balanceOf",
                                                "value": 1207
                                            }
                                        ],
                                        "depth": 1,
                                        "name": "balanceOf",
                                        "value": 3993
                                    },
                                    {
                                        "children": [
                                            {
                                                "children": [],
                                                "depth": 2,
                                                "name": "transferFrom",
                                                "value": 26219
                                            }
                                        ],
                                        "depth": 1,
                                        "name": "transferFrom",
                                        "value": 29014
                                    },
                                    {
                                        "children": [
                                            {
                                                "children": [],
                                                "depth": 2,
                                                "name": "mintVerify",
                                                "value": 403
                                            }
                                        ],
                                        "depth": 1,
                                        "name": "mintVerify",
                                        "value": 2316
                                    }
                                ],
                                "depth": 0,
                                "name": "Executed Gas",
                                "value": 168324
                            }
                        ],
                        "depth": -1,
                        "name": "Actual Gas Used",
                        "value": 174552
                    },
                    {
                        "children": [],
                        "depth": -1,
                        "name": "Refunded Gas",
                        "value": 15000
                    }
                ],
                "depth": -2,
                "name": "Total Gas",
                "value": 189552
            }
        ],
        "isConfirmed": true,
        "mainTrace": [
            {
                "children": [
                    {
                        "children": [
                            {
                                "children": [
                                    {
                                        "children": [],
                                        "depth": 2,
                                        "id": 2,
                                        "order": 2
                                    }
                                ],
                                "depth": 1,
                                "id": 1,
                                "order": 1
                            },
                            {
                                "children": [],
                                "depth": 1,
                                "id": 3,
                                "order": 3
                            },
                            {
                                "children": [],
                                "depth": 1,
                                "id": 4,
                                "order": 4
                            },
                            {
                                "children": [
                                    {
                                        "children": [
                                            {
                                                "children": [],
                                                "depth": 3,
                                                "id": 7,
                                                "order": 7
                                            },
                                            {
                                                "children": [],
                                                "depth": 3,
                                                "id": 8,
                                                "order": 8
                                            }
                                        ],
                                        "depth": 2,
                                        "id": 6,
                                        "order": 6
                                    }
                                ],
                                "depth": 1,
                                "id": 5,
                                "order": 5
                            },
                            {
                                "children": [
                                    {
                                        "children": [],
                                        "depth": 2,
                                        "id": 10,
                                        "order": 10
                                    }
                                ],
                                "depth": 1,
                                "id": 9,
                                "order": 9
                            },
                            {
                                "children": [
                                    {
                                        "children": [],
                                        "depth": 2,
                                        "id": 12,
                                        "order": 12
                                    }
                                ],
                                "depth": 1,
                                "id": 11,
                                "order": 11
                            },
                            {
                                "children": [
                                    {
                                        "children": [],
                                        "depth": 2,
                                        "id": 14,
                                        "order": 14
                                    }
                                ],
                                "depth": 1,
                                "id": 13,
                                "order": 13
                            },
                            {
                                "children": [
                                    {
                                        "children": [
                                            {
                                                "children": [],
                                                "depth": 3,
                                                "id": 17,
                                                "order": 17
                                            }
                                        ],
                                        "depth": 2,
                                        "id": 16,
                                        "order": 16
                                    }
                                ],
                                "depth": 1,
                                "id": 15,
                                "order": 15
                            },
                            {
                                "children": [],
                                "depth": 1,
                                "id": 18,
                                "order": 18
                            },
                            {
                                "children": [],
                                "depth": 1,
                                "id": 19,
                                "order": 19
                            },
                            {
                                "children": [
                                    {
                                        "children": [],
                                        "depth": 2,
                                        "id": 21,
                                        "order": 21
                                    }
                                ],
                                "depth": 1,
                                "id": 20,
                                "order": 20
                            }
                        ],
                        "depth": 0,
                        "id": 0,
                        "order": 0
                    }
                ],
                "depth": -1,
                "id": -1,
                "order": -1
            }
        ],
        "mainTraceNodeCount": 22,
        "parentIdMap": {
            "0": -1,
            "1": 0,
            "10": 9,
            "11": 0,
            "12": 11,
            "13": 0,
            "14": 13,
            "15": 0,
            "16": 15,
            "17": 16,
            "18": 0,
            "19": 0,
            "2": 1,
            "20": 0,
            "21": 20,
            "3": 0,
            "4": 0,
            "5": 0,
            "6": 5,
            "7": 6,
            "8": 6,
            "9": 0
        },
        "tidyTrace": [
            {
                "children": [
                    {
                        "children": [
                            {
                                "children": [],
                                "depth": 1,
                                "id": 4,
                                "order": 4
                            },
                            {
                                "children": [
                                    {
                                        "children": [
                                            {
                                                "children": [],
                                                "depth": 3,
                                                "id": 8,
                                                "order": 8
                                            }
                                        ],
                                        "depth": 2,
                                        "id": 6,
                                        "order": 6
                                    }
                                ],
                                "depth": 1,
                                "id": 5,
                                "order": 5
                            },
                            {
                                "children": [
                                    {
                                        "children": [
                                            {
                                                "children": [],
                                                "depth": 3,
                                                "id": 17,
                                                "order": 17
                                            }
                                        ],
                                        "depth": 2,
                                        "id": 16,
                                        "order": 16
                                    }
                                ],
                                "depth": 1,
                                "id": 15,
                                "order": 15
                            },
                            {
                                "children": [],
                                "depth": 1,
                                "id": 18,
                                "order": 18
                            },
                            {
                                "children": [],
                                "depth": 1,
                                "id": 19,
                                "order": 19
                            },
                            {
                                "children": [
                                    {
                                        "children": [],
                                        "depth": 2,
                                        "id": 21,
                                        "order": 21
                                    }
                                ],
                                "depth": 1,
                                "id": 20,
                                "order": 20
                            }
                        ],
                        "depth": 0,
                        "id": 0,
                        "order": 0
                    }
                ],
                "depth": -1,
                "id": -1,
                "order": -1
            }
        ],
        "tidyTraceNodeCount": 12
    },
    "state_change": {
        "stateChanges": [
            {
                "address": "0x39aa39c021dfbae8fac545936693ac917d5e7563",
                "erc": "ERC-20",
                "slots": [
                    {
                        "current": "0x0000000000000000000000000000000000000000000000000000000000056039",
                        "key": "0x0000000000000000000000000000000000000000000000000000000000000000",
                        "prev": "0x0000000000000000000000000000000000000000000000000000000000056038"
                    },
                    {
                        "current": "0x00000000000000000000000000000000000000000000000011bb742c4cfcee6d",
                        "key": "0x000000000000000000000000000000000000000000000000000000000000000e",
                        "prev": "0x00000000000000000000000000000000000000000000000011bb742902a2390a"
                    },
                    {
                        "current": "0x000000000000000000000000000000000000000000000000000000034a5ab563",
                        "key": "0xb4949fad864199596b82ba255fc843a82b7cc7a41f6fe94b40c742816a5cc3da",
                        "prev": "0x0000000000000000000000000000000000000000000000000000000000000000"
                    }
                ],
                "storageVariables": [
                    {
                        "name": "totalSupply",
                        "type": "uint256",
                        "value": {
                            "current": "1277742652908695149",
                            "prev": "1277742638776334602",
                            "typeTag": 1
                        }
                    },
                    {
                        "name": "accountTokens",
                        "type": "mapping(address => uint256)",
                        "value": {
                            "pairs": [
                                {
                                    "key": "0x4dd9e7b27489d1f494acb3c940da7012db7d1a61",
                                    "value": {
                                        "current": "14132360547",
                                        "prev": "0",
                                        "typeTag": 1
                                    }
                                }
                            ],
                            "typeTag": 4
                        }
                    },
                    {
                        "name": "_guardCounter",
                        "type": "uint256",
                        "value": {
                            "current": "352313",
                            "prev": "352312",
                            "typeTag": 1
                        }
                    }
                ]
            },
            {
                "address": "0x3d9819210a31b4961b30ef54be2aed79b9c9cd3b",
                "erc": "",
                "slots": [
                    {
                        "current": "0x00000000000000000000000000000031ce907f8a01cc2c55e811acef092a1ee9",
                        "key": "0x0cb8a613034975f6d93114ab4d3247d6c1e0594a0b9207c2373b281c7b26661d",
                        "prev": "0x0000000000000000000000000000000000000000000000000000000000000000"
                    }
                ],
                "storageVariables": [
                    {
                        "name": "compSupplierIndex",
                        "type": "mapping(address => mapping(address => uint256))",
                        "value": {
                            "pairs": [
                                {
                                    "key": "0x39aa39c021dfbae8fac545936693ac917d5e7563",
                                    "value": {
                                        "pairs": [
                                            {
                                                "key": "0x4dd9e7b27489d1f494acb3c940da7012db7d1a61",
                                                "value": {
                                                    "current": "16948407223805368800678514398239899918057",
                                                    "prev": "0",
                                                    "typeTag": 1
                                                }
                                            }
                                        ],
                                        "typeTag": 4
                                    }
                                }
                            ],
                            "typeTag": 4
                        }
                    }
                ]
            },
            {
                "address": "0xa0b86991c6218b36c1d19d4a2e9eb0ce3606eb48",
                "erc": "ERC-20",
                "slots": [
                    {
                        "current": "0x00000000000000000000000000000000000000000000000000004581beae69a2",
                        "key": "0xbccdc544072f1d154275788f84bcf1a9429a7563287106936a820738716d6e84",
                        "prev": "0x00000000000000000000000000000000000000000000000000004581be80a2e2"
                    },
                    {
                        "current": "0xffffffffffffffffffffffffffffffffffffffffffffffffffffffffffd2393f",
                        "key": "0x802f81774959f21a9f0f85e6e956284a551ee12533833ccbaf5201dcc0e37932",
                        "prev": "0xffffffffffffffffffffffffffffffffffffffffffffffffffffffffffffffff"
                    },
                    {
                        "current": "0x0000000000000000000000000000000000000000000000000000000000000000",
                        "key": "0x054f01fbb9e4badca84a5e37bcd7ca63c91cbc870edad50a544e8fcd9d298827",
                        "prev": "0x00000000000000000000000000000000000000000000000000000000002dc6c0"
                    }
                ],
                "storageVariables": [
                    {
                        "name": "allowed",
                        "type": "mapping(address => mapping(address => uint256))",
                        "value": {
                            "pairs": [
                                {
                                    "key": "0x4dd9e7b27489d1f494acb3c940da7012db7d1a61",
                                    "value": {
                                        "pairs": [
                                            {
                                                "key": "0x39aa39c021dfbae8fac545936693ac917d5e7563",
                                                "value": {
                                                    "current": "115792089237316195423570985008687907853269984665640564039457584007913126639935",
                                                    "prev": "115792089237316195423570985008687907853269984665640564039457584007913129639935",
                                                    "typeTag": 1
                                                }
                                            }
                                        ],
                                        "typeTag": 4
                                    }
                                }
                            ],
                            "typeTag": 4
                        }
                    },
                    {
                        "name": "balances",
                        "type": "mapping(address => uint256)",
                        "value": {
                            "pairs": [
                                {
                                    "key": "0x39aa39c021dfbae8fac545936693ac917d5e7563",
                                    "value": {
                                        "current": "76423552199074",
                                        "prev": "76423549199074",
                                        "typeTag": 1
                                    }
                                },
                                {
                                    "key": "0x4dd9e7b27489d1f494acb3c940da7012db7d1a61",
                                    "value": {
                                        "current": "0",
                                        "prev": "3000000",
                                        "typeTag": 1
                                    }
                                }
                            ],
                            "typeTag": 4
                        }
                    }
                ]
            }
        ]
    }
}