{
    "balance_change": {
        "balanceChanges": [
            {
                "account": "0xbfe5b53b1a6dc0643b19ec5cfe1c93a702e07bdc",
                "assets": [
                    {
                        "address": "0x68c85b9f78f30a0df5ac5723e4e700037f185415",
                        "amount": "3,798,249",
                        "iconUrl": "",
                        "isERC1155": false,
                        "isERC721": false,
                        "sign": false,
                        "value": ""
                    }
                ]
            },
            {
                "account": "0x251c0de47b181f392698a5e0390eff3c9686bb30",
                "assets": [
                    {
                        "address": "0x68c85b9f78f30a0df5ac5723e4e700037f185415",
                        "amount": "3,798,249",
                        "iconUrl": "",
                        "isERC1155": false,
                        "isERC721": false,
                        "sign": true,
                        "value": ""
                    }
                ]
            }
        ]
    },
    "profile": {
        "basic_info": {
            "baseFee": "21.917847962",
            "blockNumber": 15167039,
            "callData": "0xa9059cbb000000000000000000000000251c0de47b181f392698a5e0390eff3c9686bb3000000000000000000000000000000000000000000003244f7da9ca52aa040000",
            "debugEnable": true,
            "errorInfo": "",
            "eventCount": 1,
            "feeRecipient": "0xcd458d7f11023556cc9058f729831a038cb8df9c",
            "formatValue": "0",
            "gasLimit": 200000,
            "gasPrice": "56",
            "gasUsed": 29996,
            "intTxnCount": 0,
            "internalRevert": false,
            "internalRevertMessage": "",
            "isContractCreation": false,
            "isFlashloan": false,
            "maxFee": "",
            "nonce": 28,
            "overwritedBlockNumber": -1,
            "priorityFee": "",
            "receiver": "0x68c85b9f78f30a0df5ac5723e4e700037f185415",
            "revertMessage": "",
            "sender": "0xbfe5b53b1a6dc0643b19ec5cfe1c93a702e07bdc",
            "simulationEnable": true,
            "sourceTxnHash": "0x9b5a700a47f91f733037f13488f8f75976d273fa4460d454d3a8ef04c12cb66e",
            "status": true,
            "timestamp": "2022-07-18T13:55:06Z",
            "transactionFee": "0.001679776",
            "txnHash": "0x9b5a700a47f91f733037f13488f8f75976d273fa4460d454d3a8ef04c12cb66e",
            "txnIndex": 28,
            "type": 0,
            "value": "0"
        },
        "fund_flow": [
            {
                "amount": "3,798,249",
                "from": "0xbfe5b53b1a6dc0643b19ec5cfe1c93a702e07bdc",
                "id": 1,
                "isERC1155": false,
                "isERC721": false,
                "isReverted": false,
                "order": 1,
                "to": "0x251c0de47b181f392698a5e0390eff3c9686bb30",
                "token": "0x68c85b9f78f30a0df5ac5723e4e700037f185415"
            }
        ],
        "token_infos": [
            {
                "address": "0x68c85b9f78f30a0df5ac5723e4e700037f185415",
                "decimals": 18
            },
            {
                "address": "0xc02aaa39b223fe8d0a0e5c4f27ead9083c756cc2",
                "decimals": 18
            },
            {
                "address": "0xeeeeeeeeeeeeeeeeeeeeeeeeeeeeeeeeeeeeeeee",
                "decimals": 18
            }
        ]
    },
    "address_label": {
        "labels": [
            {
                "address": "0xeeeeeeeeeeeeeeeeeeeeeeeeeeeeeeeeeeeeeeee",
                "label": "Ether"
            },
            {
                "address": "0x68c85b9f78f30a0df5ac5723e4e700037f185415",
                "label": "AIWORK (AWO)"
            },
            {
                "address": "0x0000000000000000000000000000000000000001",
                "label": "Precompiled"
            },
            {
                "address": "0x0000000000000000000000000000000000000002",
                "label": "Precompiled"
            },
            {
                "address": "0x0000000000000000000000000000000000000003",
                "label": "Precompiled"
            },
            {
                "address": "0x0000000000000000000000000000000000000004",
                "label": "Precompiled"
            }
        ]
    },
    "trace": {
        "accountLabels": null,
        "dataMap": {
            "-1": {
                "invocation": {
                    "address": "0xbfe5b53b1a6dc0643b19ec5cfe1c93a702e07bdc",
                    "callData": "",
                    "decodedMethod": null,
                    "errorInfo": "",
                    "fromAddress": "",
                    "gasUsed": 0,
                    "id": -1,
                    "methodDecoded": false,
                    "operation": "",
                    "output": "",
                    "revert": false,
                    "revertMessage": "",
                    "selector": "",
                    "status": false,
                    "value": ""
                },
                "nodeType": 0
            },
            "0": {
                "invocation": {
                    "address": "0x68c85b9f78f30a0df5ac5723e4e700037f185415",
                    "callData": "0x000000000000000000000000251c0de47b181f392698a5e0390eff3c9686bb3000000000000000000000000000000000000000000003244f7da9ca52aa040000",
                    "decodedMethod": {
                        "callParams": [
                            {
                                "name": "recipient",
                                "type": "address",
                                "value": "0x251c0de47b181f392698a5e0390eff3c9686bb30"
                            },
                            {
                                "decimalAvailable": true,
                                "name": "amount",
                                "type": "uint256",
                                "value": "3,798,249,000,000,000,000,000,000"
                            }
                        ],
                        "constructorArguments": "",
                        "name": "transfer",
                        "returnParams": [
                            {
                                "name": "",
                                "type": "bool",
                                "value": true
                            }
                        ],
                        "signature": "transfer(address,uint256)"
                    },
                    "errorInfo": "",
                    "fromAddress": "0xbfe5b53b1a6dc0643b19ec5cfe1c93a702e07bdc",
                    "gasUsed": 29996,
                    "id": 0,
                    "methodDecoded": true,
                    "operation": "CALL",
                    "output": "0x0000000000000000000000000000000000000000000000000000000000000001",
                    "revert": false,
                    "revertMessage": "",
                    "selector": "0xa9059cbb",
                    "status": true,
                    "value": "0"
                },
                "nodeType": 0
            },
            "1": {
                "event": {
                    "contract": "0x68c85b9f78f30a0df5ac5723e4e700037f185415",
                    "decodedLog": {
                        "name": "Transfer",
                        "params": [
                            {
                                "name": "from",
                                "type": "address",
                                "value": "0xbfe5b53b1a6dc0643b19ec5cfe1c93a702e07bdc"
                            },
                            {
                                "name": "to",
                                "type": "address",
                                "value": "0x251c0de47b181f392698a5e0390eff3c9686bb30"
                            },
                            {
                                "decimalAvailable": true,
                                "name": "value",
                                "type": "uint256",
                                "value": "3,798,249,000,000,000,000,000,000"
                            }
                        ],
                        "signature": "Transfer(address,address,uint256)"
                    },
                    "id": 1,
                    "logData": "0x00000000000000000000000000000000000000000003244f7da9ca52aa040000",
                    "logDecoded": true,
                    "operation": "EVENT",
                    "revert": false,
                    "status": true,
                    "topics": [
                        "0xddf252ad1be2c89b69c2b068fc378daa952ba7f163c4a11628f55a4df523b3ef",
                        "0x000000000000000000000000bfe5b53b1a6dc0643b19ec5cfe1c93a702e07bdc",
                        "0x000000000000000000000000251c0de47b181f392698a5e0390eff3c9686bb30"
                    ]
                },
                "nodeType": 1
            }
        },
        "gasFlame": [
            {
                "children": [
                    {
                        "children": [
                            {
                                "children": [],
                                "depth": 0,
                                "name": "Initial Gas",
                                "value": 21668
                            },
                            {
                                "children": [],
                                "depth": 0,
                                "name": "Executed Gas",
                                "value": 13128
                            }
                        ],
                        "depth": -1,
                        "name": "Actual Gas Used",
                        "value": 29996
                    },
                    {
                        "children": [],
                        "depth": -1,
                        "name": "Refunded Gas",
                        "value": 4800
                    }
                ],
                "depth": -2,
                "name": "Total Gas",
                "value": 34796
            }
        ],
        "isConfirmed": true,
        "mainTrace": [
            {
                "children": [
                    {
                        "children": [
                            {
                                "children": [],
                                "depth": 1,
                                "id": 1,
                                "order": 1
                            }
                        ],
                        "depth": 0,
                        "id": 0,
                        "order": 0
                    }
                ],
                "depth": -1,
                "id": -1,
                "order": -1
            }
        ],
        "mainTraceNodeCount": 2,
        "parentIdMap": {
            "0": -1,
            "1": 0
        },
        "tidyTrace": [
            {
                "children": [
                    {
                        "children": [
                            {
                                "children": [],
                                "depth": 1,
                                "id": 1,
                                "order": 1
                            }
                        ],
                        "depth": 0,
                        "id": 0,
                        "order": 0
                    }
                ],
                "depth": -1,
                "id": -1,
                "order": -1
            }
        ],
        "tidyTraceNodeCount": 2
    },
    "state_change": {
        "stateChanges": [
            {
                "address": "0x68c85b9f78f30a0df5ac5723e4e700037f185415",
                "erc": "ERC-20",
                "slots": [
                    {
                        "current": "0x0000000000000000000000000000000000000000000000000000000000000000",
                        "key": "0x1e94cdd38b668a9acba4592f11fcf151991970c0ba6b4818832bbaf4898fb5eb",
                        "prev": "0x00000000000000000000000000000000000000000003244f7da9ca52aa040000"
                    },
                    {
                        "current": "0x000000000000000000000000000000000000000003b7b71876d3466ab9520000",
                        "key": "0x2cfbb8ada8da8eb7fb2e77d7f0a4284b41e32a6ecc38f5a29b177a2345aed987",
                        "prev": "0x000000000000000000000000000000000000000003b492c8f9297c180f4e0000"
                    }
                ],
                "storageVariables": [
                    {
                        "name": "_balances",
                        "type": "mapping(address => uint256)",
                        "value": {
                            "pairs": [
                                {
                                    "key": "0x251c0de47b181f392698a5e0390eff3c9686bb30",
                                    "value": {
                                        "current": "1150553098804000000000000000",
                                        "prev": "1146754849804000000000000000",
                                        "typeTag": 1
                                    }
                                },
                                {
                                    "key": "0xbfe5b53b1a6dc0643b19ec5cfe1c93a702e07bdc",
                                    "value": {
                                        "current": "0",
                                        "prev": "3798249000000000000000000",
                                        "typeTag": 1
                                    }
                                }
                            ],
                            "typeTag": 4
                        }
                    }
                ]
            }
        ]
    }
}