{
    "balance_change": {
        "balanceChanges": []
    },
    "profile": {
        "basic_info": {
            "baseFee": "",
            "blockNumber": 9689610,
            "callData": "0x34fcf437000000000000000000000000000000000000000000000000000000000001fed6",
            "debugEnable": true,
            "errorInfo": "",
            "eventCount": 1,
            "feeRecipient": "0x829bd824b016326a401d083b33d092293333a830",
            "formatValue": "0",
            "gasLimit": 29375,
            "gasPrice": "11",
            "gasUsed": 29375,
            "intTxnCount": 0,
            "internalRevert": false,
            "internalRevertMessage": "",
            "isContractCreation": false,
            "isFlashloan": false,
            "maxFee": "",
            "nonce": 11703,
            "overwritedBlockNumber": -1,
            "priorityFee": "",
            "receiver": "0x2b591350c2f80bb0a8f079efb2dc1371b4eede96",
            "revertMessage": "",
            "sender": "0x477b2d92c1182ef1c7ddf1b5d0f6e95b32f6dca8",
            "simulationEnable": true,
            "sourceTxnHash": "0x9ba99ed09330185b2e3a2e46bc8ff32ff9371420110cb1d79ec25e9959ac8f89",
            "status": true,
            "timestamp": "2020-03-17T14:30:00Z",
            "transactionFee": "0.000323125",
            "txnHash": "0x9ba99ed09330185b2e3a2e46bc8ff32ff9371420110cb1d79ec25e9959ac8f89",
            "txnIndex": 179,
            "type": 0,
            "value": "0"
        },
        "fund_flow": [],
        "token_infos": [
            {
                "address": "0xc02aaa39b223fe8d0a0e5c4f27ead9083c756cc2",
                "decimals": 18
            },
            {
                "address": "0xeeeeeeeeeeeeeeeeeeeeeeeeeeeeeeeeeeeeeeee",
                "decimals": 18
            }
        ]
    },
    "address_label": {
        "labels": [
            {
                "address": "0x0000000000000000000000000000000000000001",
                "label": "Precompiled"
            },
            {
                "address": "0x0000000000000000000000000000000000000002",
                "label": "Precompiled"
            },
            {
                "address": "0x0000000000000000000000000000000000000003",
                "label": "Precompiled"
            },
            {
                "address": "0x0000000000000000000000000000000000000004",
                "label": "Precompiled"
            },
            {
                "address": "0xeeeeeeeeeeeeeeeeeeeeeeeeeeeeeeeeeeeeeeee",
                "label": "Ether"
            },
            {
                "address": "0x2b591350c2f80bb0a8f079efb2dc1371b4eede96",
                "label": "ERC20Supplier"
            }
        ]
    },
    "trace": {
        "accountLabels": null,
        "dataMap": {
            "-1": {
                "invocation": {
                    "address": "0x477b2d92c1182ef1c7ddf1b5d0f6e95b32f6dca8",
                    "callData": "",
                    "decodedMethod": null,
                    "errorInfo": "",
                    "fromAddress": "",
                    "gasUsed": 0,
                    "id": -1,
                    "methodDecoded": false,
                    "operation": "",
                    "output": "",
                    "revert": false,
                    "revertMessage": "",
                    "selector": "",
                    "status": false,
                    "value": ""
                },
                "nodeType": 0
            },
            "0": {
                "invocation": {
                    "address": "0x2b591350c2f80bb0a8f079efb2dc1371b4eede96",
                    "callData": "0x000000000000000000000000000000000000000000000000000000000001fed6",
                    "decodedMethod": {
                        "callParams": [
                            {
                                "name": "_rate",
                                "type": "uint256",
                                "value": "130,774"
                            }
                        ],
                        "constructorArguments": "",
                        "name": "setRate",
                        "returnParams": [
                            {
                                "name": "",
                                "type": "bool",
                                "value": true
                            }
                        ],
                        "signature": "setRate(uint256)"
                    },
                    "errorInfo": "",
                    "fromAddress": "0x477b2d92c1182ef1c7ddf1b5d0f6e95b32f6dca8",
                    "gasUsed": 29375,
                    "id": 0,
                    "methodDecoded": true,
                    "operation": "CALL",
                    "output": "0x0000000000000000000000000000000000000000000000000000000000000001",
                    "revert": false,
                    "revertMessage": "",
                    "selector": "0x34fcf437",
                    "status": true,
                    "value": "0"
                },
                "nodeType": 0
            },
            "1": {
                "event": {
                    "contract": "0x2b591350c2f80bb0a8f079efb2dc1371b4eede96",
                    "decodedLog": {
                        "name": "LogSetRate",
                        "params": [
                            {
                                "name": "_rate",
                                "type": "uint256",
                                "value": "130,774"
                            }
                        ],
                        "signature": "LogSetRate(uint256)"
                    },
                    "id": 1,
                    "logData": "0x000000000000000000000000000000000000000000000000000000000001fed6",
                    "logDecoded": true,
                    "operation": "EVENT",
                    "revert": false,
                    "status": true,
                    "topics": [
                        "0x97f3618dcc589e75b1390255d2a478cab0cdda42602c8cc0e973aa281784bb83"
                    ]
                },
                "nodeType": 1
            }
        },
        "gasFlame": [
            {
                "children": [
                    {
                        "children": [
                            {
                                "children": [],
                                "depth": 0,
                                "name": "Initial Gas",
                                "value": 21228
                            },
                            {
                                "children": [],
                                "depth": 0,
                                "name": "Executed Gas",
                                "value": 8147
                            }
                        ],
                        "depth": -1,
                        "name": "Actual Gas Used",
                        "value": 29375
                    },
                    {
                        "children": [],
                        "depth": -1,
                        "name": "Refunded Gas",
                        "value": 0
                    }
                ],
                "depth": -2,
                "name": "Total Gas",
                "value": 29375
            }
        ],
        "isConfirmed": true,
        "mainTrace": [
            {
                "children": [
                    {
                        "children": [
                            {
                                "children": [],
                                "depth": 1,
                                "id": 1,
                                "order": 1
                            }
                        ],
                        "depth": 0,
                        "id": 0,
                        "order": 0
                    }
                ],
                "depth": -1,
                "id": -1,
                "order": -1
            }
        ],
        "mainTraceNodeCount": 2,
        "parentIdMap": {
            "0": -1,
            "1": 0
        },
        "tidyTrace": [
            {
                "children": [
                    {
                        "children": [
                            {
                                "children": [],
                                "depth": 1,
                                "id": 1,
                                "order": 1
                            }
                        ],
                        "depth": 0,
                        "id": 0,
                        "order": 0
                    }
                ],
                "depth": -1,
                "id": -1,
                "order": -1
            }
        ],
        "tidyTraceNodeCount": 2
    },
    "state_change": {
        "stateChanges": [
            {
                "address": "0x2b591350c2f80bb0a8f079efb2dc1371b4eede96",
                "erc": "",
                "slots": [
                    {
                        "current": "0x000000000000000000000000000000000000000000000000000000000001fed6",
                        "key": "0x0000000000000000000000000000000000000000000000000000000000000005",
                        "prev": "0x0000000000000000000000000000000000000000000000000000000000020b19"
                    }
                ],
                "storageVariables": [
                    {
                        "name": "rate",
                        "type": "uint256",
                        "value": {
                            "current": "130774",
                            "prev": "133913",
                            "typeTag": 1
                        }
                    }
                ]
            }
        ]
    }
}