{
    "balance_change": {
        "balanceChanges": [
            {
                "account": "0x0f12ce9d4d6f508526f94ce1c0ba819ee68648d5",
                "assets": [
                    {
                        "address": "0xeeeeeeeeeeeeeeeeeeeeeeeeeeeeeeeeeeeeeeee",
                        "amount": "0.09",
                        "iconUrl": "https://assets.blocksec.com/image/1663669189317-3.png",
                        "isERC1155": false,
                        "isERC721": false,
                        "sign": false,
                        "value": "171.98730000000000247"
                    },
                    {
                        "address": "0xf5de1f255b8fe15657574079cfb10371ced2929f",
                        "amount": "900",
                        "iconUrl": "",
                        "isERC1155": false,
                        "isERC721": false,
                        "sign": true,
                        "value": ""
                    }
                ]
            },
            {
                "account": "0x0000000000000000000000000000000000000000",
                "assets": [
                    {
                        "address": "0xf5de1f255b8fe15657574079cfb10371ced2929f",
                        "amount": "900",
                        "iconUrl": "",
                        "isERC1155": false,
                        "isERC721": false,
                        "sign": false,
                        "value": ""
                    }
                ]
            },
            {
                "account": "0x7a9a74540f34b9412b404de0e5ac5a788a92420f",
                "assets": [
                    {
                        "address": "0xeeeeeeeeeeeeeeeeeeeeeeeeeeeeeeeeeeeeeeee",
                        "amount": "0.09",
                        "iconUrl": "https://assets.blocksec.com/image/1663669189317-3.png",
                        "isERC1155": false,
                        "isERC721": false,
                        "sign": true,
                        "value": "171.98730000000000247"
                    }
                ]
            }
        ]
    },
    "profile": {
        "basic_info": {
            "baseFee": "4.420801465",
            "blockNumber": 15351666,
            "callData": "0x6a627842000000000000000000000000f5de1f255b8fe15657574079cfb10371ced2929f",
            "debugEnable": true,
            "errorInfo": "",
            "eventCount": 3,
            "feeRecipient": "0x1ad91ee08f21be3de0ba2ba6918e714da6b45836",
            "formatValue": "0.09",
            "gasLimit": 234316,
            "gasPrice": "5.147755269",
            "gasUsed": 151289,
            "intTxnCount": 14,
            "internalRevert": false,
            "internalRevertMessage": "",
            "isContractCreation": false,
            "isFlashloan": false,
            "maxFee": "",
            "nonce": 15,
            "overwritedBlockNumber": -1,
            "priorityFee": "",
            "receiver": "0x960fd5cfa6c36e9db131824ddf07df6322a053de",
            "revertMessage": "",
            "sender": "0x0f12ce9d4d6f508526f94ce1c0ba819ee68648d5",
            "simulationEnable": true,
            "sourceTxnHash": "0x9bc8319cd454773f36b41162ee8d08ddf4948e2c615479db9f5afa51b94a4d8b",
            "status": true,
            "timestamp": "2022-08-16T09:47:31Z",
            "transactionFee": "0.000778798746891741",
            "txnHash": "0x9bc8319cd454773f36b41162ee8d08ddf4948e2c615479db9f5afa51b94a4d8b",
            "txnIndex": 254,
            "type": 0,
            "value": "90000000000000000"
        },
        "fund_flow": [
            {
                "amount": "0.09",
                "from": "0x0f12ce9d4d6f508526f94ce1c0ba819ee68648d5",
                "id": 1,
                "isERC1155": false,
                "isERC721": false,
                "isReverted": false,
                "order": 1,
                "to": "0x960fd5cfa6c36e9db131824ddf07df6322a053de",
                "token": "0xeeeeeeeeeeeeeeeeeeeeeeeeeeeeeeeeeeeeeeee"
            },
            {
                "amount": "900",
                "from": "0x0000000000000000000000000000000000000000",
                "id": 2,
                "isERC1155": false,
                "isERC721": false,
                "isReverted": false,
                "order": 2,
                "to": "0x0f12ce9d4d6f508526f94ce1c0ba819ee68648d5",
                "token": "0xf5de1f255b8fe15657574079cfb10371ced2929f"
            },
            {
                "amount": "0.09",
                "from": "0x960fd5cfa6c36e9db131824ddf07df6322a053de",
                "id": 3,
                "isERC1155": false,
                "isERC721": false,
                "isReverted": false,
                "order": 3,
                "to": "0x7a9a74540f34b9412b404de0e5ac5a788a92420f",
                "token": "0xeeeeeeeeeeeeeeeeeeeeeeeeeeeeeeeeeeeeeeee"
            }
        ],
        "token_infos": [
            {
                "address": "0xc02aaa39b223fe8d0a0e5c4f27ead9083c756cc2",
                "decimals": 18
            },
            {
                "address": "0xf5de1f255b8fe15657574079cfb10371ced2929f",
                "decimals": 18
            },
            {
                "address": "0xeeeeeeeeeeeeeeeeeeeeeeeeeeeeeeeeeeeeeeee",
                "decimals": 18
            }
        ]
    },
    "address_label": {
        "labels": [
            {
                "address": "0x0000000000000000000000000000000000000002",
                "label": "Precompiled"
            },
            {
                "address": "0x0000000000000000000000000000000000000003",
                "label": "Precompiled"
            },
            {
                "address": "0x0000000000000000000000000000000000000004",
                "label": "Precompiled"
            },
            {
                "address": "0xeeeeeeeeeeeeeeeeeeeeeeeeeeeeeeeeeeeeeeee",
                "label": "Ether"
            },
            {
                "address": "0x0000000000000000000000000000000000000000",
                "label": "Null Address"
            },
            {
                "address": "0xf5de1f255b8fe15657574079cfb10371ced2929f",
                "label": "\u273aWU8"
            },
            {
                "address": "0x0000000000000000000000000000000000000001",
                "label": "Precompiled"
            }
        ]
    },
    "trace": {
        "accountLabels": null,
        "dataMap": {
            "-1": {
                "invocation": {
                    "address": "0x0f12ce9d4d6f508526f94ce1c0ba819ee68648d5",
                    "callData": "",
                    "decodedMethod": null,
                    "errorInfo": "",
                    "fromAddress": "",
                    "gasUsed": 0,
                    "id": -1,
                    "methodDecoded": false,
                    "operation": "",
                    "output": "",
                    "revert": false,
                    "revertMessage": "",
                    "selector": "",
                    "status": false,
                    "value": ""
                },
                "nodeType": 0
            },
            "0": {
                "invocation": {
                    "address": "0x960fd5cfa6c36e9db131824ddf07df6322a053de",
                    "callData": "0x000000000000000000000000f5de1f255b8fe15657574079cfb10371ced2929f",
                    "decodedMethod": {
                        "callParams": [
                            {
                                "name": "to",
                                "type": "address",
                                "value": "0xf5de1f255b8fe15657574079cfb10371ced2929f"
                            }
                        ],
                        "constructorArguments": "",
                        "name": "mint",
                        "returnParams": [],
                        "signature": "mint(address)"
                    },
                    "errorInfo": "",
                    "fromAddress": "0x0f12ce9d4d6f508526f94ce1c0ba819ee68648d5",
                    "gasUsed": 151289,
                    "id": 0,
                    "methodDecoded": true,
                    "operation": "CALL",
                    "output": "0x000000000000000000000000000000000000000000000030ca024f987b900000",
                    "revert": false,
                    "revertMessage": "",
                    "selector": "0x6a627842",
                    "status": true,
                    "value": "0.09"
                },
                "nodeType": 0
            },
            "1": {
                "invocation": {
                    "address": "0xf5de1f255b8fe15657574079cfb10371ced2929f",
                    "callData": "0x0000000000000000000000000f12ce9d4d6f508526f94ce1c0ba819ee68648d5000000000000000000000000000000000000000000000030ca024f987b900000",
                    "decodedMethod": {
                        "callParams": [
                            {
                                "name": "_to",
                                "type": "address",
                                "value": "0x0f12ce9d4d6f508526f94ce1c0ba819ee68648d5"
                            },
                            {
                                "name": "_amount",
                                "type": "uint256",
                                "value": "900,000,000,000,000,000,000"
                            }
                        ],
                        "constructorArguments": "",
                        "name": "mintTo",
                        "returnParams": [],
                        "signature": "mintTo(address,uint256)"
                    },
                    "errorInfo": "",
                    "fromAddress": "0x960fd5cfa6c36e9db131824ddf07df6322a053de",
                    "gasUsed": 93680,
                    "id": 1,
                    "methodDecoded": true,
                    "operation": "CALL",
                    "output": "0x0000000000000000000000000000000000000000000000000000000000000001",
                    "revert": false,
                    "revertMessage": "",
                    "selector": "0x449a52f8",
                    "status": true,
                    "value": "0"
                },
                "nodeType": 0
            },
            "10": {
                "event": {
                    "contract": "0xf5de1f255b8fe15657574079cfb10371ced2929f",
                    "decodedLog": {
                        "name": "Transfer",
                        "params": [
                            {
                                "name": "from",
                                "type": "address",
                                "value": "0x0000000000000000000000000000000000000000"
                            },
                            {
                                "name": "to",
                                "type": "address",
                                "value": "0x0f12ce9d4d6f508526f94ce1c0ba819ee68648d5"
                            },
                            {
                                "decimalAvailable": true,
                                "name": "value",
                                "type": "uint256",
                                "value": "900,000,000,000,000,000,000"
                            }
                        ],
                        "signature": "Transfer(address,address,uint256)"
                    },
                    "id": 10,
                    "logData": "0x000000000000000000000000000000000000000000000030ca024f987b900000",
                    "logDecoded": true,
                    "operation": "EVENT",
                    "revert": false,
                    "status": true,
                    "topics": [
                        "0xddf252ad1be2c89b69c2b068fc378daa952ba7f163c4a11628f55a4df523b3ef",
                        "0x0000000000000000000000000000000000000000000000000000000000000000",
                        "0x0000000000000000000000000f12ce9d4d6f508526f94ce1c0ba819ee68648d5"
                    ]
                },
                "nodeType": 1
            },
            "11": {
                "event": {
                    "contract": "0xf5de1f255b8fe15657574079cfb10371ced2929f",
                    "decodedLog": {
                        "name": "MemberJoined",
                        "params": [
                            {
                                "name": "member",
                                "type": "address",
                                "value": "0x0f12ce9d4d6f508526f94ce1c0ba819ee68648d5"
                            }
                        ],
                        "signature": "MemberJoined(address)"
                    },
                    "id": 11,
                    "logData": "0x",
                    "logDecoded": true,
                    "operation": "EVENT",
                    "revert": false,
                    "status": true,
                    "topics": [
                        "0x0abf3b3f643594d958297062a019458e27d7766629590ac621aa1000fa1298ab",
                        "0x0000000000000000000000000f12ce9d4d6f508526f94ce1c0ba819ee68648d5"
                    ]
                },
                "nodeType": 1
            },
            "12": {
                "invocation": {
                    "address": "0x8ad5e863f232e0e7dc91816ccdd03275b19afa44",
                    "callData": "0x000000000000000000000000f5de1f255b8fe15657574079cfb10371ced2929f",
                    "decodedMethod": null,
                    "errorInfo": "",
                    "fromAddress": "0x960fd5cfa6c36e9db131824ddf07df6322a053de",
                    "gasUsed": 4768,
                    "id": 12,
                    "methodDecoded": false,
                    "operation": "STATICCALL",
                    "output": "0x0000000000000000000000005165c17d754d8e643807746d54e225cbcca70531",
                    "revert": false,
                    "revertMessage": "",
                    "selector": "0x65af419f",
                    "status": true,
                    "value": "0"
                },
                "nodeType": 0
            },
            "13": {
                "invocation": {
                    "address": "0x5165c17d754d8e643807746d54e225cbcca70531",
                    "callData": "0x0000000000000000000000000f12ce9d4d6f508526f94ce1c0ba819ee68648d5000000000000000000000000000000000000000000000000013fbe85edc90000",
                    "decodedMethod": {
                        "callParams": [
                            {
                                "name": "_token",
                                "type": "address",
                                "value": "0x0f12ce9d4d6f508526f94ce1c0ba819ee68648d5"
                            },
                            {
                                "name": "_amount",
                                "type": "uint256",
                                "value": "90,000,000,000,000,000"
                            }
                        ],
                        "constructorArguments": "",
                        "name": "calculate",
                        "returnParams": [
                            {
                                "name": "amount_",
                                "type": "uint256",
                                "value": "0"
                            }
                        ],
                        "signature": "calculate(address,uint256)"
                    },
                    "errorInfo": "",
                    "fromAddress": "0x960fd5cfa6c36e9db131824ddf07df6322a053de",
                    "gasUsed": 2703,
                    "id": 13,
                    "methodDecoded": true,
                    "operation": "STATICCALL",
                    "output": "0x0000000000000000000000000000000000000000000000000000000000000000",
                    "revert": false,
                    "revertMessage": "",
                    "selector": "0x6e908ca3",
                    "status": true,
                    "value": "0"
                },
                "nodeType": 0
            },
            "14": {
                "invocation": {
                    "address": "0xf5de1f255b8fe15657574079cfb10371ced2929f",
                    "callData": "0x",
                    "decodedMethod": {
                        "callParams": [],
                        "constructorArguments": "",
                        "name": "owner",
                        "returnParams": [
                            {
                                "name": "",
                                "type": "address",
                                "value": "0x7a9a74540f34b9412b404de0e5ac5a788a92420f"
                            }
                        ],
                        "signature": "owner()"
                    },
                    "errorInfo": "",
                    "fromAddress": "0x960fd5cfa6c36e9db131824ddf07df6322a053de",
                    "gasUsed": 2585,
                    "id": 14,
                    "methodDecoded": true,
                    "operation": "STATICCALL",
                    "output": "0x0000000000000000000000007a9a74540f34b9412b404de0e5ac5a788a92420f",
                    "revert": false,
                    "revertMessage": "",
                    "selector": "0x8da5cb5b",
                    "status": true,
                    "value": "0"
                },
                "nodeType": 0
            },
            "15": {
                "invocation": {
                    "address": "0x8b1ada2cb1b4690cc25d0637cbf8ea7300358e92",
                    "callData": "0x",
                    "decodedMethod": {
                        "callParams": [],
                        "constructorArguments": "",
                        "name": "owner",
                        "returnParams": [
                            {
                                "name": "",
                                "type": "address",
                                "value": "0x7a9a74540f34b9412b404de0e5ac5a788a92420f"
                            }
                        ],
                        "signature": "owner()"
                    },
                    "errorInfo": "",
                    "fromAddress": "0xf5de1f255b8fe15657574079cfb10371ced2929f",
                    "gasUsed": 2419,
                    "id": 15,
                    "methodDecoded": true,
                    "operation": "DELEGATECALL",
                    "output": "0x0000000000000000000000007a9a74540f34b9412b404de0e5ac5a788a92420f",
                    "revert": false,
                    "revertMessage": "",
                    "selector": "0x8da5cb5b",
                    "status": true,
                    "value": "0"
                },
                "nodeType": 0
            },
            "16": {
                "invocation": {
                    "address": "0x7a9a74540f34b9412b404de0e5ac5a788a92420f",
                    "callData": "0x",
                    "decodedMethod": null,
                    "errorInfo": "",
                    "fromAddress": "0x960fd5cfa6c36e9db131824ddf07df6322a053de",
                    "gasUsed": 0,
                    "id": 16,
                    "methodDecoded": false,
                    "operation": "CALL",
                    "output": "",
                    "revert": false,
                    "revertMessage": "",
                    "selector": "fallback",
                    "status": true,
                    "value": "0.09"
                },
                "nodeType": 0
            },
            "17": {
                "event": {
                    "contract": "0x960fd5cfa6c36e9db131824ddf07df6322a053de",
                    "decodedLog": null,
                    "id": 17,
                    "logData": "0x000000000000000000000000000000000000000000000030ca024f987b900000000000000000000000000000000000000000000000000000013fbe85edc900000000000000000000000000000000000000000000000000000000000000000000",
                    "logDecoded": false,
                    "operation": "EVENT",
                    "revert": false,
                    "status": true,
                    "topics": [
                        "0x44ee29906cdea5ad07361f3ffbb191e6f596ff0e08d89f0e5ba53f508c8adfa5",
                        "0x000000000000000000000000f5de1f255b8fe15657574079cfb10371ced2929f",
                        "0x0000000000000000000000000f12ce9d4d6f508526f94ce1c0ba819ee68648d5"
                    ]
                },
                "nodeType": 1
            },
            "2": {
                "invocation": {
                    "address": "0x8b1ada2cb1b4690cc25d0637cbf8ea7300358e92",
                    "callData": "0x0000000000000000000000000f12ce9d4d6f508526f94ce1c0ba819ee68648d5000000000000000000000000000000000000000000000030ca024f987b900000",
                    "decodedMethod": {
                        "callParams": [
                            {
                                "name": "_to",
                                "type": "address",
                                "value": "0x0f12ce9d4d6f508526f94ce1c0ba819ee68648d5"
                            },
                            {
                                "name": "_amount",
                                "type": "uint256",
                                "value": "900,000,000,000,000,000,000"
                            }
                        ],
                        "constructorArguments": "",
                        "name": "mintTo",
                        "returnParams": [],
                        "signature": "mintTo(address,uint256)"
                    },
                    "errorInfo": "",
                    "fromAddress": "0xf5de1f255b8fe15657574079cfb10371ced2929f",
                    "gasUsed": 91002,
                    "id": 2,
                    "methodDecoded": true,
                    "operation": "DELEGATECALL",
                    "output": "0x0000000000000000000000000000000000000000000000000000000000000001",
                    "revert": false,
                    "revertMessage": "",
                    "selector": "0x449a52f8",
                    "status": true,
                    "value": "0"
                },
                "nodeType": 0
            },
            "3": {
                "invocation": {
                    "address": "0xc92836bc3201f2784fae26875ac1c1d5aca0aef2",
                    "callData": "0x000000000000000000000000960fd5cfa6c36e9db131824ddf07df6322a053de00000000000000000000000000000000000000000000000000000000000000000000000000000000000000000f12ce9d4d6f508526f94ce1c0ba819ee68648d5000000000000000000000000000000000000000000000030ca024f987b900000",
                    "decodedMethod": {
                        "callParams": [
                            {
                                "name": "operator",
                                "type": "address",
                                "value": "0x960fd5cfa6c36e9db131824ddf07df6322a053de"
                            },
                            {
                                "name": "from",
                                "type": "address",
                                "value": "0x0000000000000000000000000000000000000000"
                            },
                            {
                                "name": "to",
                                "type": "address",
                                "value": "0x0f12ce9d4d6f508526f94ce1c0ba819ee68648d5"
                            },
                            {
                                "name": "value",
                                "type": "uint256",
                                "value": "900,000,000,000,000,000,000"
                            }
                        ],
                        "constructorArguments": "",
                        "name": "isAllowed",
                        "returnParams": [
                            {
                                "name": "",
                                "type": "bool",
                                "value": true
                            }
                        ],
                        "signature": "isAllowed(address,address,address,uint256)"
                    },
                    "errorInfo": "",
                    "fromAddress": "0xf5de1f255b8fe15657574079cfb10371ced2929f",
                    "gasUsed": 21072,
                    "id": 3,
                    "methodDecoded": true,
                    "operation": "STATICCALL",
                    "output": "0x0000000000000000000000000000000000000000000000000000000000000001",
                    "revert": false,
                    "revertMessage": "",
                    "selector": "0x601ef880",
                    "status": true,
                    "value": "0"
                },
                "nodeType": 0
            },
            "4": {
                "invocation": {
                    "address": "0xf5de1f255b8fe15657574079cfb10371ced2929f",
                    "callData": "0x",
                    "decodedMethod": {
                        "callParams": [],
                        "constructorArguments": "",
                        "name": "totalSupply",
                        "returnParams": [
                            {
                                "name": "",
                                "type": "uint256",
                                "value": "0"
                            }
                        ],
                        "signature": "totalSupply()"
                    },
                    "errorInfo": "",
                    "fromAddress": "0xc92836bc3201f2784fae26875ac1c1d5aca0aef2",
                    "gasUsed": 2504,
                    "id": 4,
                    "methodDecoded": true,
                    "operation": "STATICCALL",
                    "output": "0x0000000000000000000000000000000000000000000000000000000000000000",
                    "revert": false,
                    "revertMessage": "",
                    "selector": "0x18160ddd",
                    "status": true,
                    "value": "0"
                },
                "nodeType": 0
            },
            "5": {
                "invocation": {
                    "address": "0x8b1ada2cb1b4690cc25d0637cbf8ea7300358e92",
                    "callData": "0x",
                    "decodedMethod": {
                        "callParams": [],
                        "constructorArguments": "",
                        "name": "totalSupply",
                        "returnParams": [
                            {
                                "name": "",
                                "type": "uint256",
                                "value": "0"
                            }
                        ],
                        "signature": "totalSupply()"
                    },
                    "errorInfo": "",
                    "fromAddress": "0xf5de1f255b8fe15657574079cfb10371ced2929f",
                    "gasUsed": 2338,
                    "id": 5,
                    "methodDecoded": true,
                    "operation": "DELEGATECALL",
                    "output": "0x0000000000000000000000000000000000000000000000000000000000000000",
                    "revert": false,
                    "revertMessage": "",
                    "selector": "0x18160ddd",
                    "status": true,
                    "value": "0"
                },
                "nodeType": 0
            },
            "6": {
                "invocation": {
                    "address": "0xf5de1f255b8fe15657574079cfb10371ced2929f",
                    "callData": "0x0000000000000000000000000f12ce9d4d6f508526f94ce1c0ba819ee68648d5",
                    "decodedMethod": {
                        "callParams": [
                            {
                                "name": "account",
                                "type": "address",
                                "value": "0x0f12ce9d4d6f508526f94ce1c0ba819ee68648d5"
                            }
                        ],
                        "constructorArguments": "",
                        "name": "balanceOf",
                        "returnParams": [
                            {
                                "decimalAvailable": true,
                                "name": "",
                                "type": "uint256",
                                "value": "0"
                            }
                        ],
                        "signature": "balanceOf(address)"
                    },
                    "errorInfo": "",
                    "fromAddress": "0xc92836bc3201f2784fae26875ac1c1d5aca0aef2",
                    "gasUsed": 2731,
                    "id": 6,
                    "methodDecoded": true,
                    "operation": "STATICCALL",
                    "output": "0x0000000000000000000000000000000000000000000000000000000000000000",
                    "revert": false,
                    "revertMessage": "",
                    "selector": "0x70a08231",
                    "status": true,
                    "value": "0"
                },
                "nodeType": 0
            },
            "7": {
                "invocation": {
                    "address": "0x8b1ada2cb1b4690cc25d0637cbf8ea7300358e92",
                    "callData": "0x0000000000000000000000000f12ce9d4d6f508526f94ce1c0ba819ee68648d5",
                    "decodedMethod": {
                        "callParams": [
                            {
                                "name": "account",
                                "type": "address",
                                "value": "0x0f12ce9d4d6f508526f94ce1c0ba819ee68648d5"
                            }
                        ],
                        "constructorArguments": "",
                        "name": "balanceOf",
                        "returnParams": [
                            {
                                "decimalAvailable": true,
                                "name": "",
                                "type": "uint256",
                                "value": "0"
                            }
                        ],
                        "signature": "balanceOf(address)"
                    },
                    "errorInfo": "",
                    "fromAddress": "0xf5de1f255b8fe15657574079cfb10371ced2929f",
                    "gasUsed": 2559,
                    "id": 7,
                    "methodDecoded": true,
                    "operation": "DELEGATECALL",
                    "output": "0x0000000000000000000000000000000000000000000000000000000000000000",
                    "revert": false,
                    "revertMessage": "",
                    "selector": "0x70a08231",
                    "status": true,
                    "value": "0"
                },
                "nodeType": 0
            },
            "8": {
                "invocation": {
                    "address": "0xf5de1f255b8fe15657574079cfb10371ced2929f",
                    "callData": "0x",
                    "decodedMethod": {
                        "callParams": [],
                        "constructorArguments": "",
                        "name": "memberCount",
                        "returnParams": [
                            {
                                "name": "",
                                "type": "uint256",
                                "value": "0"
                            }
                        ],
                        "signature": "memberCount()"
                    },
                    "errorInfo": "",
                    "fromAddress": "0xc92836bc3201f2784fae26875ac1c1d5aca0aef2",
                    "gasUsed": 2574,
                    "id": 8,
                    "methodDecoded": true,
                    "operation": "STATICCALL",
                    "output": "0x0000000000000000000000000000000000000000000000000000000000000000",
                    "revert": false,
                    "revertMessage": "",
                    "selector": "0x11aee380",
                    "status": true,
                    "value": "0"
                },
                "nodeType": 0
            },
            "9": {
                "invocation": {
                    "address": "0x8b1ada2cb1b4690cc25d0637cbf8ea7300358e92",
                    "callData": "0x",
                    "decodedMethod": {
                        "callParams": [],
                        "constructorArguments": "",
                        "name": "memberCount",
                        "returnParams": [
                            {
                                "name": "",
                                "type": "uint256",
                                "value": "0"
                            }
                        ],
                        "signature": "memberCount()"
                    },
                    "errorInfo": "",
                    "fromAddress": "0xf5de1f255b8fe15657574079cfb10371ced2929f",
                    "gasUsed": 2408,
                    "id": 9,
                    "methodDecoded": true,
                    "operation": "DELEGATECALL",
                    "output": "0x0000000000000000000000000000000000000000000000000000000000000000",
                    "revert": false,
                    "revertMessage": "",
                    "selector": "0x11aee380",
                    "status": true,
                    "value": "0"
                },
                "nodeType": 0
            }
        },
        "gasFlame": [
            {
                "children": [
                    {
                        "children": [
                            {
                                "children": [],
                                "depth": 0,
                                "name": "Initial Gas",
                                "value": 21432
                            },
                            {
                                "children": [
                                    {
                                        "children": [
                                            {
                                                "children": [
                                                    {
                                                        "children": [
                                                            {
                                                                "children": [
                                                                    {
                                                                        "children": [],
                                                                        "depth": 5,
                                                                        "name": "totalSupply",
                                                                        "value": 2338
                                                                    }
                                                                ],
                                                                "depth": 4,
                                                                "name": "totalSupply",
                                                                "value": 2504
                                                            },
                                                            {
                                                                "children": [
                                                                    {
                                                                        "children": [],
                                                                        "depth": 5,
                                                                        "name": "balanceOf",
                                                                        "value": 2559
                                                                    }
                                                                ],
                                                                "depth": 4,
                                                                "name": "balanceOf",
                                                                "value": 2731
                                                            },
                                                            {
                                                                "children": [
                                                                    {
                                                                        "children": [],
                                                                        "depth": 5,
                                                                        "name": "memberCount",
                                                                        "value": 2408
                                                                    }
                                                                ],
                                                                "depth": 4,
                                                                "name": "memberCount",
                                                                "value": 2574
                                                            }
                                                        ],
                                                        "depth": 3,
                                                        "name": "isAllowed",
                                                        "value": 21072
                                                    }
                                                ],
                                                "depth": 2,
                                                "name": "mintTo",
                                                "value": 91002
                                            }
                                        ],
                                        "depth": 1,
                                        "name": "mintTo",
                                        "value": 93680
                                    },
                                    {
                                        "children": [],
                                        "depth": 1,
                                        "name": "0x65af419f",
                                        "value": 4768
                                    },
                                    {
                                        "children": [],
                                        "depth": 1,
                                        "name": "calculate",
                                        "value": 2703
                                    },
                                    {
                                        "children": [
                                            {
                                                "children": [],
                                                "depth": 2,
                                                "name": "owner",
                                                "value": 2419
                                            }
                                        ],
                                        "depth": 1,
                                        "name": "owner",
                                        "value": 2585
                                    },
                                    {
                                        "children": [],
                                        "depth": 1,
                                        "name": "fallback",
                                        "value": 0
                                    }
                                ],
                                "depth": 0,
                                "name": "Executed Gas",
                                "value": 132657
                            }
                        ],
                        "depth": -1,
                        "name": "Actual Gas Used",
                        "value": 151289
                    },
                    {
                        "children": [],
                        "depth": -1,
                        "name": "Refunded Gas",
                        "value": 2800
                    }
                ],
                "depth": -2,
                "name": "Total Gas",
                "value": 154089
            }
        ],
        "isConfirmed": true,
        "mainTrace": [
            {
                "children": [
                    {
                        "children": [
                            {
                                "children": [
                                    {
                                        "children": [
                                            {
                                                "children": [
                                                    {
                                                        "children": [
                                                            {
                                                                "children": [],
                                                                "depth": 5,
                                                                "id": 5,
                                                                "order": 5
                                                            }
                                                        ],
                                                        "depth": 4,
                                                        "id": 4,
                                                        "order": 4
                                                    },
                                                    {
                                                        "children": [
                                                            {
                                                                "children": [],
                                                                "depth": 5,
                                                                "id": 7,
                                                                "order": 7
                                                            }
                                                        ],
                                                        "depth": 4,
                                                        "id": 6,
                                                        "order": 6
                                                    },
                                                    {
                                                        "children": [
                                                            {
                                                                "children": [],
                                                                "depth": 5,
                                                                "id": 9,
                                                                "order": 9
                                                            }
                                                        ],
                                                        "depth": 4,
                                                        "id": 8,
                                                        "order": 8
                                                    }
                                                ],
                                                "depth": 3,
                                                "id": 3,
                                                "order": 3
                                            },
                                            {
                                                "children": [],
                                                "depth": 3,
                                                "id": 10,
                                                "order": 10
                                            },
                                            {
                                                "children": [],
                                                "depth": 3,
                                                "id": 11,
                                                "order": 11
                                            }
                                        ],
                                        "depth": 2,
                                        "id": 2,
                                        "order": 2
                                    }
                                ],
                                "depth": 1,
                                "id": 1,
                                "order": 1
                            },
                            {
                                "children": [],
                                "depth": 1,
                                "id": 12,
                                "order": 12
                            },
                            {
                                "children": [],
                                "depth": 1,
                                "id": 13,
                                "order": 13
                            },
                            {
                                "children": [
                                    {
                                        "children": [],
                                        "depth": 2,
                                        "id": 15,
                                        "order": 15
                                    }
                                ],
                                "depth": 1,
                                "id": 14,
                                "order": 14
                            },
                            {
                                "children": [],
                                "depth": 1,
                                "id": 16,
                                "order": 16
                            },
                            {
                                "children": [],
                                "depth": 1,
                                "id": 17,
                                "order": 17
                            }
                        ],
                        "depth": 0,
                        "id": 0,
                        "order": 0
                    }
                ],
                "depth": -1,
                "id": -1,
                "order": -1
            }
        ],
        "mainTraceNodeCount": 18,
        "parentIdMap": {
            "0": -1,
            "1": 0,
            "10": 2,
            "11": 2,
            "12": 0,
            "13": 0,
            "14": 0,
            "15": 14,
            "16": 0,
            "17": 0,
            "2": 1,
            "3": 2,
            "4": 3,
            "5": 4,
            "6": 3,
            "7": 6,
            "8": 3,
            "9": 8
        },
        "tidyTrace": [
            {
                "children": [
                    {
                        "children": [
                            {
                                "children": [
                                    {
                                        "children": [
                                            {
                                                "children": [],
                                                "depth": 3,
                                                "id": 10,
                                                "order": 10
                                            },
                                            {
                                                "children": [],
                                                "depth": 3,
                                                "id": 11,
                                                "order": 11
                                            }
                                        ],
                                        "depth": 2,
                                        "id": 2,
                                        "order": 2
                                    }
                                ],
                                "depth": 1,
                                "id": 1,
                                "order": 1
                            },
                            {
                                "children": [],
                                "depth": 1,
                                "id": 16,
                                "order": 16
                            },
                            {
                                "children": [],
                                "depth": 1,
                                "id": 17,
                                "order": 17
                            }
                        ],
                        "depth": 0,
                        "id": 0,
                        "order": 0
                    }
                ],
                "depth": -1,
                "id": -1,
                "order": -1
            }
        ],
        "tidyTraceNodeCount": 7
    },
    "state_change": {
        "stateChanges": [
            {
                "address": "0xf5de1f255b8fe15657574079cfb10371ced2929f",
                "erc": "",
                "slots": [
                    {
                        "current": "0x000000000000000000000000000000000000000000000030ca024f987b900000",
                        "key": "0x0000000000000000000000000000000000000000000000000000000000000067",
                        "prev": "0x0000000000000000000000000000000000000000000000000000000000000000"
                    },
                    {
                        "current": "0x000000000000000000000000000000000000000000000030ca024f987b900000",
                        "key": "0x4f24e604c11fd76ecfd1ace0b38c588cb2eb3e7d701583a97e8da53b3b40a215",
                        "prev": "0x0000000000000000000000000000000000000000000000000000000000000000"
                    },
                    {
                        "current": "0x0000000000000000000000000000000000000000000000000000000000000001",
                        "key": "0x0000000000000000000000000000000000000000000000000000000000000101",
                        "prev": "0x0000000000000000000000000000000000000000000000000000000000000000"
                    }
                ],
                "storageVariables": []
            }
        ]
    }
}