{
    "balance_change": {
        "balanceChanges": [
            {
                "account": "0x83bb781a2a2ca1fec0350f178c911848811cc440",
                "assets": [
                    {
                        "address": "0xf5b0a3efb8e8e4c201e2a935f110eaaf3ffecb8d",
                        "amount": "54,267",
                        "iconUrl": "",
                        "isERC1155": false,
                        "isERC721": false,
                        "sign": true,
                        "value": ""
                    }
                ]
            },
            {
                "account": "0xf4985070ce32b6b1994329df787d1acc9a2dd9e2",
                "assets": [
                    {
                        "address": "0xf5b0a3efb8e8e4c201e2a935f110eaaf3ffecb8d",
                        "amount": "54,267",
                        "iconUrl": "",
                        "isERC1155": false,
                        "isERC721": false,
                        "sign": false,
                        "value": ""
                    }
                ]
            }
        ]
    },
    "profile": {
        "basic_info": {
            "baseFee": "",
            "blockNumber": 8176385,
            "callData": "0x859b97fe000000000000000000000000f5b0a3efb8e8e4c201e2a935f110eaaf3ffecb8d000000000000000000000000000000000000000000000000000000000000d3fb",
            "debugEnable": true,
            "errorInfo": "",
            "eventCount": 3,
            "feeRecipient": "0x5a0b54d5dc17e0aadc383d2db43b0a0d3e029c4c",
            "formatValue": "0",
            "gasLimit": 216820,
            "gasPrice": "1.1",
            "gasUsed": 83276,
            "intTxnCount": 3,
            "internalRevert": false,
            "internalRevertMessage": "",
            "isContractCreation": false,
            "isFlashloan": false,
            "maxFee": "",
            "nonce": 8391,
            "overwritedBlockNumber": -1,
            "priorityFee": "",
            "receiver": "0xf4985070ce32b6b1994329df787d1acc9a2dd9e2",
            "revertMessage": "",
            "sender": "0x83bb781a2a2ca1fec0350f178c911848811cc440",
            "simulationEnable": true,
            "sourceTxnHash": "0x9bb772a7a6100f3983551e1ceb358def1217465f2efaf6a609733ef30e743f5c",
            "status": true,
            "timestamp": "2019-07-18T18:44:32Z",
            "transactionFee": "0.0000916036",
            "txnHash": "0x9bb772a7a6100f3983551e1ceb358def1217465f2efaf6a609733ef30e743f5c",
            "txnIndex": 16,
            "type": 0,
            "value": "0"
        },
        "fund_flow": [
            {
                "amount": "54,267",
                "from": "0xf4985070ce32b6b1994329df787d1acc9a2dd9e2",
                "id": 1,
                "isERC1155": false,
                "isERC721": false,
                "isReverted": false,
                "order": 1,
                "to": "0x83bb781a2a2ca1fec0350f178c911848811cc440",
                "token": "0xf5b0a3efb8e8e4c201e2a935f110eaaf3ffecb8d"
            }
        ],
        "token_infos": [
            {
                "address": "0xeeeeeeeeeeeeeeeeeeeeeeeeeeeeeeeeeeeeeeee",
                "decimals": 18
            },
            {
                "address": "0xc02aaa39b223fe8d0a0e5c4f27ead9083c756cc2",
                "decimals": 18
            },
            {
                "address": "0xf5b0a3efb8e8e4c201e2a935f110eaaf3ffecb8d",
                "decimals": -1
            }
        ]
    },
    "address_label": {
        "labels": [
            {
                "address": "0xf4985070ce32b6b1994329df787d1acc9a2dd9e2",
                "label": "Axie Infinity: Axie Clock Auction"
            },
            {
                "address": "0xf5b0a3efb8e8e4c201e2a935f110eaaf3ffecb8d",
                "label": "Axie Infinity: AXIE Token"
            },
            {
                "address": "0x0000000000000000000000000000000000000001",
                "label": "Precompiled"
            },
            {
                "address": "0x0000000000000000000000000000000000000002",
                "label": "Precompiled"
            },
            {
                "address": "0x0000000000000000000000000000000000000003",
                "label": "Precompiled"
            },
            {
                "address": "0x0000000000000000000000000000000000000004",
                "label": "Precompiled"
            },
            {
                "address": "0xeeeeeeeeeeeeeeeeeeeeeeeeeeeeeeeeeeeeeeee",
                "label": "Ether"
            }
        ]
    },
    "trace": {
        "accountLabels": null,
        "dataMap": {
            "-1": {
                "invocation": {
                    "address": "0x83bb781a2a2ca1fec0350f178c911848811cc440",
                    "callData": "",
                    "decodedMethod": null,
                    "errorInfo": "",
                    "fromAddress": "",
                    "gasUsed": 0,
                    "id": -1,
                    "methodDecoded": false,
                    "operation": "",
                    "output": "",
                    "revert": false,
                    "revertMessage": "",
                    "selector": "",
                    "status": false,
                    "value": ""
                },
                "nodeType": 0
            },
            "0": {
                "invocation": {
                    "address": "0xf4985070ce32b6b1994329df787d1acc9a2dd9e2",
                    "callData": "0x000000000000000000000000f5b0a3efb8e8e4c201e2a935f110eaaf3ffecb8d000000000000000000000000000000000000000000000000000000000000d3fb",
                    "decodedMethod": {
                        "callParams": [
                            {
                                "name": "_nftAddress",
                                "type": "address",
                                "value": "0xf5b0a3efb8e8e4c201e2a935f110eaaf3ffecb8d"
                            },
                            {
                                "name": "_tokenId",
                                "type": "uint256",
                                "value": "54,267"
                            }
                        ],
                        "constructorArguments": "",
                        "name": "cancelAuction",
                        "returnParams": [],
                        "signature": "cancelAuction(address,uint256)"
                    },
                    "errorInfo": "",
                    "fromAddress": "0x83bb781a2a2ca1fec0350f178c911848811cc440",
                    "gasUsed": 83276,
                    "id": 0,
                    "methodDecoded": true,
                    "operation": "CALL",
                    "output": "",
                    "revert": false,
                    "revertMessage": "",
                    "selector": "0x859b97fe",
                    "status": true,
                    "value": "0"
                },
                "nodeType": 0
            },
            "1": {
                "invocation": {
                    "address": "0xf5b0a3efb8e8e4c201e2a935f110eaaf3ffecb8d",
                    "callData": "0x000000000000000000000000f4985070ce32b6b1994329df787d1acc9a2dd9e200000000000000000000000083bb781a2a2ca1fec0350f178c911848811cc440000000000000000000000000000000000000000000000000000000000000d3fb",
                    "decodedMethod": {
                        "callParams": [
                            {
                                "name": "_from",
                                "type": "address",
                                "value": "0xf4985070ce32b6b1994329df787d1acc9a2dd9e2"
                            },
                            {
                                "name": "_to",
                                "type": "address",
                                "value": "0x83bb781a2a2ca1fec0350f178c911848811cc440"
                            },
                            {
                                "decimalAvailable": true,
                                "name": "_tokenId",
                                "type": "uint256",
                                "value": "54,267"
                            }
                        ],
                        "constructorArguments": "",
                        "name": "transferFrom",
                        "returnParams": [],
                        "signature": "transferFrom(address,address,uint256)"
                    },
                    "errorInfo": "",
                    "fromAddress": "0xf4985070ce32b6b1994329df787d1acc9a2dd9e2",
                    "gasUsed": 122790,
                    "id": 1,
                    "methodDecoded": true,
                    "operation": "CALL",
                    "output": "",
                    "revert": false,
                    "revertMessage": "",
                    "selector": "0x23b872dd",
                    "status": true,
                    "value": "0"
                },
                "nodeType": 0
            },
            "2": {
                "invocation": {
                    "address": "0xe8bd438d0383cf4d19641eaa4793eddc6cebeaf1",
                    "callData": "0x000000000000000000000000f4985070ce32b6b1994329df787d1acc9a2dd9e200000000000000000000000083bb781a2a2ca1fec0350f178c911848811cc440000000000000000000000000000000000000000000000000000000000000d3fb",
                    "decodedMethod": {
                        "callParams": [
                            {
                                "name": "",
                                "type": "address",
                                "value": "0xf4985070ce32b6b1994329df787d1acc9a2dd9e2"
                            },
                            {
                                "name": "",
                                "type": "address",
                                "value": "0x83bb781a2a2ca1fec0350f178c911848811cc440"
                            },
                            {
                                "name": "",
                                "type": "uint256",
                                "value": "54,267"
                            }
                        ],
                        "constructorArguments": "",
                        "name": "isTransferAllowed",
                        "returnParams": [
                            {
                                "name": "",
                                "type": "bool",
                                "value": true
                            }
                        ],
                        "signature": "isTransferAllowed(address,address,uint256)"
                    },
                    "errorInfo": "",
                    "fromAddress": "0xf5b0a3efb8e8e4c201e2a935f110eaaf3ffecb8d",
                    "gasUsed": 3558,
                    "id": 2,
                    "methodDecoded": true,
                    "operation": "CALL",
                    "output": "0x0000000000000000000000000000000000000000000000000000000000000001",
                    "revert": false,
                    "revertMessage": "",
                    "selector": "0xf7ebc39a",
                    "status": true,
                    "value": "0"
                },
                "nodeType": 0
            },
            "3": {
                "invocation": {
                    "address": "0xf5b0a3efb8e8e4c201e2a935f110eaaf3ffecb8d",
                    "callData": "0x",
                    "decodedMethod": {
                        "callParams": [],
                        "constructorArguments": "",
                        "name": "paused",
                        "returnParams": [
                            {
                                "name": "",
                                "type": "bool",
                                "value": false
                            }
                        ],
                        "signature": "paused()"
                    },
                    "errorInfo": "",
                    "fromAddress": "0xe8bd438d0383cf4d19641eaa4793eddc6cebeaf1",
                    "gasUsed": 1028,
                    "id": 3,
                    "methodDecoded": true,
                    "operation": "CALL",
                    "output": "0x0000000000000000000000000000000000000000000000000000000000000000",
                    "revert": false,
                    "revertMessage": "",
                    "selector": "0x5c975abb",
                    "status": true,
                    "value": "0"
                },
                "nodeType": 0
            },
            "4": {
                "event": {
                    "contract": "0xf5b0a3efb8e8e4c201e2a935f110eaaf3ffecb8d",
                    "decodedLog": {
                        "name": "Approval",
                        "params": [
                            {
                                "name": "_owner",
                                "type": "address",
                                "value": "0xf4985070ce32b6b1994329df787d1acc9a2dd9e2"
                            },
                            {
                                "name": "_approved",
                                "type": "address",
                                "value": "0x0000000000000000000000000000000000000000"
                            },
                            {
                                "decimalAvailable": true,
                                "name": "_tokenId",
                                "type": "uint256",
                                "value": "54,267"
                            }
                        ],
                        "signature": "Approval(address,address,uint256)"
                    },
                    "id": 4,
                    "logData": "0x000000000000000000000000000000000000000000000000000000000000d3fb",
                    "logDecoded": true,
                    "operation": "EVENT",
                    "revert": false,
                    "status": true,
                    "topics": [
                        "0x8c5be1e5ebec7d5bd14f71427d1e84f3dd0314c0f7b2291e5b200ac8c7c3b925",
                        "0x000000000000000000000000f4985070ce32b6b1994329df787d1acc9a2dd9e2",
                        "0x0000000000000000000000000000000000000000000000000000000000000000"
                    ]
                },
                "nodeType": 1
            },
            "5": {
                "event": {
                    "contract": "0xf5b0a3efb8e8e4c201e2a935f110eaaf3ffecb8d",
                    "decodedLog": {
                        "name": "Transfer",
                        "params": [
                            {
                                "name": "_from",
                                "type": "address",
                                "value": "0xf4985070ce32b6b1994329df787d1acc9a2dd9e2"
                            },
                            {
                                "name": "_to",
                                "type": "address",
                                "value": "0x83bb781a2a2ca1fec0350f178c911848811cc440"
                            },
                            {
                                "decimalAvailable": true,
                                "name": "_tokenId",
                                "type": "uint256",
                                "value": "54,267"
                            }
                        ],
                        "signature": "Transfer(address,address,uint256)"
                    },
                    "id": 5,
                    "logData": "0x000000000000000000000000000000000000000000000000000000000000d3fb",
                    "logDecoded": true,
                    "operation": "EVENT",
                    "revert": false,
                    "status": true,
                    "topics": [
                        "0xddf252ad1be2c89b69c2b068fc378daa952ba7f163c4a11628f55a4df523b3ef",
                        "0x000000000000000000000000f4985070ce32b6b1994329df787d1acc9a2dd9e2",
                        "0x00000000000000000000000083bb781a2a2ca1fec0350f178c911848811cc440"
                    ]
                },
                "nodeType": 1
            },
            "6": {
                "event": {
                    "contract": "0xf4985070ce32b6b1994329df787d1acc9a2dd9e2",
                    "decodedLog": {
                        "name": "AuctionCancelled",
                        "params": [
                            {
                                "name": "_nftAddress",
                                "type": "address",
                                "value": "0xf5b0a3efb8e8e4c201e2a935f110eaaf3ffecb8d"
                            },
                            {
                                "name": "_tokenId",
                                "type": "uint256",
                                "value": "54,267"
                            }
                        ],
                        "signature": "AuctionCancelled(address,uint256)"
                    },
                    "id": 6,
                    "logData": "0x",
                    "logDecoded": true,
                    "operation": "EVENT",
                    "revert": false,
                    "status": true,
                    "topics": [
                        "0x018b64b6242d32aa550e95d78985b938d71af5b3f10827b0683f55da16393048",
                        "0x000000000000000000000000f5b0a3efb8e8e4c201e2a935f110eaaf3ffecb8d",
                        "0x000000000000000000000000000000000000000000000000000000000000d3fb"
                    ]
                },
                "nodeType": 1
            }
        },
        "gasFlame": [
            {
                "children": [
                    {
                        "children": [
                            {
                                "children": [],
                                "depth": 0,
                                "name": "Initial Gas",
                                "value": 22936
                            },
                            {
                                "children": [
                                    {
                                        "children": [
                                            {
                                                "children": [
                                                    {
                                                        "children": [],
                                                        "depth": 3,
                                                        "name": "paused",
                                                        "value": 1028
                                                    }
                                                ],
                                                "depth": 2,
                                                "name": "isTransferAllowed",
                                                "value": 3558
                                            }
                                        ],
                                        "depth": 1,
                                        "name": "transferFrom",
                                        "value": 122790
                                    }
                                ],
                                "depth": 0,
                                "name": "Executed Gas",
                                "value": 143616
                            }
                        ],
                        "depth": -1,
                        "name": "Actual Gas Used",
                        "value": 83276
                    },
                    {
                        "children": [],
                        "depth": -1,
                        "name": "Refunded Gas",
                        "value": 83276
                    }
                ],
                "depth": -2,
                "name": "Total Gas",
                "value": 166552
            }
        ],
        "isConfirmed": true,
        "mainTrace": [
            {
                "children": [
                    {
                        "children": [
                            {
                                "children": [
                                    {
                                        "children": [
                                            {
                                                "children": [],
                                                "depth": 3,
                                                "id": 3,
                                                "order": 3
                                            }
                                        ],
                                        "depth": 2,
                                        "id": 2,
                                        "order": 2
                                    },
                                    {
                                        "children": [],
                                        "depth": 2,
                                        "id": 4,
                                        "order": 4
                                    },
                                    {
                                        "children": [],
                                        "depth": 2,
                                        "id": 5,
                                        "order": 5
                                    }
                                ],
                                "depth": 1,
                                "id": 1,
                                "order": 1
                            },
                            {
                                "children": [],
                                "depth": 1,
                                "id": 6,
                                "order": 6
                            }
                        ],
                        "depth": 0,
                        "id": 0,
                        "order": 0
                    }
                ],
                "depth": -1,
                "id": -1,
                "order": -1
            }
        ],
        "mainTraceNodeCount": 7,
        "parentIdMap": {
            "0": -1,
            "1": 0,
            "2": 1,
            "3": 2,
            "4": 1,
            "5": 1,
            "6": 0
        },
        "tidyTrace": [
            {
                "children": [
                    {
                        "children": [
                            {
                                "children": [
                                    {
                                        "children": [
                                            {
                                                "children": [],
                                                "depth": 3,
                                                "id": 3,
                                                "order": 3
                                            }
                                        ],
                                        "depth": 2,
                                        "id": 2,
                                        "order": 2
                                    },
                                    {
                                        "children": [],
                                        "depth": 2,
                                        "id": 4,
                                        "order": 4
                                    },
                                    {
                                        "children": [],
                                        "depth": 2,
                                        "id": 5,
                                        "order": 5
                                    }
                                ],
                                "depth": 1,
                                "id": 1,
                                "order": 1
                            },
                            {
                                "children": [],
                                "depth": 1,
                                "id": 6,
                                "order": 6
                            }
                        ],
                        "depth": 0,
                        "id": 0,
                        "order": 0
                    }
                ],
                "depth": -1,
                "id": -1,
                "order": -1
            }
        ],
        "tidyTraceNodeCount": 7
    },
    "state_change": {
        "stateChanges": [
            {
                "address": "0xf4985070ce32b6b1994329df787d1acc9a2dd9e2",
                "erc": "",
                "slots": [
                    {
                        "current": "0x0000000000000000000000000000000000000000000000000000000000000000",
                        "key": "0x2a7046e7c0172db8517407f5e0830e5b9c47c73dfb4b8859e16d93fcabe656b1",
                        "prev": "0x00000000000000000000000000000000000000005d2999340000000000069780"
                    },
                    {
                        "current": "0x0000000000000000000000000000000000000000000000000000000000000000",
                        "key": "0x2a7046e7c0172db8517407f5e0830e5b9c47c73dfb4b8859e16d93fcabe656af",
                        "prev": "0x00000000000000000000000083bb781a2a2ca1fec0350f178c911848811cc440"
                    },
                    {
                        "current": "0x0000000000000000000000000000000000000000000000000000000000000000",
                        "key": "0x2a7046e7c0172db8517407f5e0830e5b9c47c73dfb4b8859e16d93fcabe656b0",
                        "prev": "0x0000000000000000001550f7dca70000000000000000000000470de4df820000"
                    }
                ],
                "storageVariables": [
                    {
                        "name": "auctions",
                        "type": "mapping(address => mapping(uint256 => struct AxieClockAuction.Auction))",
                        "value": {
                            "pairs": [
                                {
                                    "key": "0xf5b0a3efb8e8e4c201e2a935f110eaaf3ffecb8d",
                                    "value": {
                                        "pairs": [
                                            {
                                                "key": "54267",
                                                "value": {
                                                    "fields": [
                                                        {
                                                            "name": "seller",
                                                            "type": "address",
                                                            "value": {
                                                                "current": "0x0000000000000000000000000000000000000000",
                                                                "prev": "0x83bb781a2a2ca1fec0350f178c911848811cc440",
                                                                "typeTag": 1
                                                            }
                                                        },
                                                        {
                                                            "name": "startingPrice",
                                                            "type": "uint128",
                                                            "value": {
                                                                "current": "0",
                                                                "prev": "20000000000000000",
                                                                "typeTag": 1
                                                            }
                                                        },
                                                        {
                                                            "name": "endingPrice",
                                                            "type": "uint128",
                                                            "value": {
                                                                "current": "0",
                                                                "prev": "6000000000000000",
                                                                "typeTag": 1
                                                            }
                                                        },
                                                        {
                                                            "name": "duration",
                                                            "type": "uint64",
                                                            "value": {
                                                                "current": "0",
                                                                "prev": "432000",
                                                                "typeTag": 1
                                                            }
                                                        },
                                                        {
                                                            "name": "startedAt",
                                                            "type": "uint64",
                                                            "value": {
                                                                "current": "0",
                                                                "prev": "1563007284",
                                                                "typeTag": 1
                                                            }
                                                        }
                                                    ],
                                                    "typeTag": 3
                                                }
                                            }
                                        ],
                                        "typeTag": 4
                                    }
                                }
                            ],
                            "typeTag": 4
                        }
                    }
                ]
            },
            {
                "address": "0xf5b0a3efb8e8e4c201e2a935f110eaaf3ffecb8d",
                "erc": "ERC-721",
                "slots": [
                    {
                        "current": "0x0000000000000000000000000000000000000000000000000000000000000125",
                        "key": "0x18610caba2b856d7484d288bf633b00df408125323670bf6ce53b171ea753c2a",
                        "prev": "0x0000000000000000000000000000000000000000000000000000000000000124"
                    },
                    {
                        "current": "0x000000000000000000000000000000000000000000000000000000000000d3fb",
                        "key": "0x190a256f847cd8eb4fcc6d5a437e65088864473e6f7707159b65dcd618c0fb48",
                        "prev": "0x0000000000000000000000000000000000000000000000000000000000000000"
                    },
                    {
                        "current": "0x00000000000000000000000083bb781a2a2ca1fec0350f178c911848811cc440",
                        "key": "0xc05ffbf5e6057d089f86e83517c9a9102e17b68d722b3d6fed6903d8bcf4befc",
                        "prev": "0x000000000000000000000000f4985070ce32b6b1994329df787d1acc9a2dd9e2"
                    },
                    {
                        "current": "0x00000000000000000000000000000000000000000000000000000000000126ac",
                        "key": "0xf977cc87cb9530b700142d22309e54b5022847fb0e1975303101c38e16b0d292",
                        "prev": "0x000000000000000000000000000000000000000000000000000000000000d3fb"
                    },
                    {
                        "current": "0x0000000000000000000000000000000000000000000000000000000000000ff3",
                        "key": "0xbf0b3af629e96c2a71ad05233672a956c5cb22ae747bc21a377102b2058fde22",
                        "prev": "0x00000000000000000000000000000000000000000000000000000000000014d4"
                    },
                    {
                        "current": "0x0000000000000000000000000000000000000000000000000000000000000000",
                        "key": "0xf977cc87cb9530b700142d22309e54b5022847fb0e1975303101c38e16b0d773",
                        "prev": "0x00000000000000000000000000000000000000000000000000000000000126ac"
                    },
                    {
                        "current": "0x00000000000000000000000000000000000000000000000000000000000014d4",
                        "key": "0xda6130b50a42de694f5ea1ae82c75586f0831f0f41b8349336a692d06cf359d7",
                        "prev": "0x00000000000000000000000000000000000000000000000000000000000014d5"
                    },
                    {
                        "current": "0x0000000000000000000000000000000000000000000000000000000000000124",
                        "key": "0x1571bf4a26681e771bd58b8eab13b00a328acb480e1b974ee3cfa81dafd273c2",
                        "prev": "0x0000000000000000000000000000000000000000000000000000000000000ff3"
                    }
                ],
                "storageVariables": [
                    {
                        "name": "_ownedTokens",
                        "type": "mapping(address => uint256[])",
                        "value": {
                            "pairs": [
                                {
                                    "key": "0x83bb781a2a2ca1fec0350f178c911848811cc440",
                                    "value": {
                                        "elemType": "uint256",
                                        "elems": [
                                            {
                                                "index": 292,
                                                "value": {
                                                    "current": "54267",
                                                    "prev": "0",
                                                    "typeTag": 1
                                                }
                                            }
                                        ],
                                        "typeTag": 2
                                    }
                                },
                                {
                                    "key": "0xf4985070ce32b6b1994329df787d1acc9a2dd9e2",
                                    "value": {
                                        "elemType": "uint256",
                                        "elems": [
                                            {
                                                "index": 4083,
                                                "value": {
                                                    "current": "75436",
                                                    "prev": "54267",
                                                    "typeTag": 1
                                                }
                                            }
                                        ],
                                        "typeTag": 2
                                    }
                                }
                            ],
                            "typeTag": 4
                        }
                    },
                    {
                        "name": "_tokenOwner",
                        "type": "mapping(uint256 => address)",
                        "value": {
                            "pairs": [
                                {
                                    "key": "54267",
                                    "value": {
                                        "current": "0x83bb781a2a2ca1fec0350f178c911848811cc440",
                                        "prev": "0xf4985070ce32b6b1994329df787d1acc9a2dd9e2",
                                        "typeTag": 1
                                    }
                                }
                            ],
                            "typeTag": 4
                        }
                    },
                    {
                        "name": "_ownedTokenIndex",
                        "type": "mapping(uint256 => uint256)",
                        "value": {
                            "pairs": [
                                {
                                    "key": "54267",
                                    "value": {
                                        "current": "292",
                                        "prev": "4083",
                                        "typeTag": 1
                                    }
                                },
                                {
                                    "key": "75436",
                                    "value": {
                                        "current": "4083",
                                        "prev": "5332",
                                        "typeTag": 1
                                    }
                                }
                            ],
                            "typeTag": 4
                        }
                    }
                ]
            }
        ]
    }
}