{
    "balance_change": {
        "balanceChanges": [
            {
                "account": "0x876eabf441b2ee5b5b0554fd502a8e0600950cfa",
                "assets": [
                    {
                        "address": "0xd26114cd6ee289accf82350c8d8487fedb8a0c07",
                        "amount": "1,625.2",
                        "iconUrl": "https://assets.blocksec.com/icon/33337523e3649cd91abcb0cac0df074ff9512695abafe3958d0a610195d87716.png",
                        "isERC1155": false,
                        "isERC721": false,
                        "sign": false,
                        "value": ""
                    }
                ]
            },
            {
                "account": "0x0093569578b15e323705e084a41e9771065ed4ea",
                "assets": [
                    {
                        "address": "0xd26114cd6ee289accf82350c8d8487fedb8a0c07",
                        "amount": "1,625.2",
                        "iconUrl": "https://assets.blocksec.com/icon/33337523e3649cd91abcb0cac0df074ff9512695abafe3958d0a610195d87716.png",
                        "isERC1155": false,
                        "isERC721": false,
                        "sign": true,
                        "value": ""
                    }
                ]
            }
        ]
    },
    "profile": {
        "basic_info": {
            "baseFee": "",
            "blockNumber": 6756663,
            "callData": "0xa9059cbb0000000000000000000000000093569578b15e323705e084a41e9771065ed4ea0000000000000000000000000000000000000000000000581a2e455244d80000",
            "debugEnable": true,
            "errorInfo": "",
            "eventCount": 1,
            "feeRecipient": "0xd4383232c8d1dbe0e03bdfab849871fa17e61807",
            "formatValue": "0",
            "gasLimit": 90000,
            "gasPrice": "20",
            "gasUsed": 52094,
            "intTxnCount": 0,
            "internalRevert": false,
            "internalRevertMessage": "",
            "isContractCreation": false,
            "isFlashloan": false,
            "maxFee": "",
            "nonce": 530585,
            "overwritedBlockNumber": -1,
            "priorityFee": "",
            "receiver": "0xd26114cd6ee289accf82350c8d8487fedb8a0c07",
            "revertMessage": "",
            "sender": "0x876eabf441b2ee5b5b0554fd502a8e0600950cfa",
            "simulationEnable": true,
            "sourceTxnHash": "0x9ce16ed9d4e579b66230af237bec8da1745000f527d2d78e571c6fdb9c36ae40",
            "status": true,
            "timestamp": "2018-11-23T08:04:23Z",
            "transactionFee": "0.00104188",
            "txnHash": "0x9ce16ed9d4e579b66230af237bec8da1745000f527d2d78e571c6fdb9c36ae40",
            "txnIndex": 8,
            "type": 0,
            "value": "0"
        },
        "fund_flow": [
            {
                "amount": "1,625.2",
                "from": "0x876eabf441b2ee5b5b0554fd502a8e0600950cfa",
                "id": 1,
                "isERC1155": false,
                "isERC721": false,
                "isReverted": false,
                "order": 1,
                "to": "0x0093569578b15e323705e084a41e9771065ed4ea",
                "token": "0xd26114cd6ee289accf82350c8d8487fedb8a0c07"
            }
        ],
        "token_infos": [
            {
                "address": "0xc02aaa39b223fe8d0a0e5c4f27ead9083c756cc2",
                "decimals": 18
            },
            {
                "address": "0xd26114cd6ee289accf82350c8d8487fedb8a0c07",
                "decimals": 18
            },
            {
                "address": "0xeeeeeeeeeeeeeeeeeeeeeeeeeeeeeeeeeeeeeeee",
                "decimals": 18
            }
        ]
    },
    "address_label": {
        "labels": [
            {
                "address": "0x0000000000000000000000000000000000000001",
                "label": "Precompiled"
            },
            {
                "address": "0x0000000000000000000000000000000000000002",
                "label": "Precompiled"
            },
            {
                "address": "0x0000000000000000000000000000000000000003",
                "label": "Precompiled"
            },
            {
                "address": "0x0000000000000000000000000000000000000004",
                "label": "Precompiled"
            },
            {
                "address": "0xeeeeeeeeeeeeeeeeeeeeeeeeeeeeeeeeeeeeeeee",
                "label": "Ether"
            },
            {
                "address": "0xd26114cd6ee289accf82350c8d8487fedb8a0c07",
                "label": "OMG Network: OMG Token"
            },
            {
                "address": "0x876eabf441b2ee5b5b0554fd502a8e0600950cfa",
                "label": "Bitfinex 3"
            }
        ]
    },
    "trace": {
        "accountLabels": null,
        "dataMap": {
            "-1": {
                "invocation": {
                    "address": "0x876eabf441b2ee5b5b0554fd502a8e0600950cfa",
                    "callData": "",
                    "decodedMethod": null,
                    "errorInfo": "",
                    "fromAddress": "",
                    "gasUsed": 0,
                    "id": -1,
                    "methodDecoded": false,
                    "operation": "",
                    "output": "",
                    "revert": false,
                    "revertMessage": "",
                    "selector": "",
                    "status": false,
                    "value": ""
                },
                "nodeType": 0
            },
            "0": {
                "invocation": {
                    "address": "0xd26114cd6ee289accf82350c8d8487fedb8a0c07",
                    "callData": "0x0000000000000000000000000093569578b15e323705e084a41e9771065ed4ea0000000000000000000000000000000000000000000000581a2e455244d80000",
                    "decodedMethod": {
                        "callParams": [
                            {
                                "name": "_to",
                                "type": "address",
                                "value": "0x0093569578b15e323705e084a41e9771065ed4ea"
                            },
                            {
                                "decimalAvailable": true,
                                "name": "_value",
                                "type": "uint256",
                                "value": "1,625,200,000,000,000,000,000"
                            }
                        ],
                        "constructorArguments": "",
                        "name": "transfer",
                        "returnParams": [],
                        "signature": "transfer(address,uint256)"
                    },
                    "errorInfo": "",
                    "fromAddress": "0x876eabf441b2ee5b5b0554fd502a8e0600950cfa",
                    "gasUsed": 52094,
                    "id": 0,
                    "methodDecoded": true,
                    "operation": "CALL",
                    "output": "",
                    "revert": false,
                    "revertMessage": "",
                    "selector": "0xa9059cbb",
                    "status": true,
                    "value": "0"
                },
                "nodeType": 0
            },
            "1": {
                "event": {
                    "contract": "0xd26114cd6ee289accf82350c8d8487fedb8a0c07",
                    "decodedLog": {
                        "name": "Transfer",
                        "params": [
                            {
                                "name": "from",
                                "type": "address",
                                "value": "0x876eabf441b2ee5b5b0554fd502a8e0600950cfa"
                            },
                            {
                                "name": "to",
                                "type": "address",
                                "value": "0x0093569578b15e323705e084a41e9771065ed4ea"
                            },
                            {
                                "decimalAvailable": true,
                                "name": "value",
                                "type": "uint256",
                                "value": "1,625,200,000,000,000,000,000"
                            }
                        ],
                        "signature": "Transfer(address,address,uint256)"
                    },
                    "id": 1,
                    "logData": "0x0000000000000000000000000000000000000000000000581a2e455244d80000",
                    "logDecoded": true,
                    "operation": "EVENT",
                    "revert": false,
                    "status": true,
                    "topics": [
                        "0xddf252ad1be2c89b69c2b068fc378daa952ba7f163c4a11628f55a4df523b3ef",
                        "0x000000000000000000000000876eabf441b2ee5b5b0554fd502a8e0600950cfa",
                        "0x0000000000000000000000000093569578b15e323705e084a41e9771065ed4ea"
                    ]
                },
                "nodeType": 1
            }
        },
        "gasFlame": [
            {
                "children": [
                    {
                        "children": [
                            {
                                "children": [],
                                "depth": 0,
                                "name": "Initial Gas",
                                "value": 23192
                            },
                            {
                                "children": [],
                                "depth": 0,
                                "name": "Executed Gas",
                                "value": 28902
                            }
                        ],
                        "depth": -1,
                        "name": "Actual Gas Used",
                        "value": 52094
                    },
                    {
                        "children": [],
                        "depth": -1,
                        "name": "Refunded Gas",
                        "value": 0
                    }
                ],
                "depth": -2,
                "name": "Total Gas",
                "value": 52094
            }
        ],
        "isConfirmed": true,
        "mainTrace": [
            {
                "children": [
                    {
                        "children": [
                            {
                                "children": [],
                                "depth": 1,
                                "id": 1,
                                "order": 1
                            }
                        ],
                        "depth": 0,
                        "id": 0,
                        "order": 0
                    }
                ],
                "depth": -1,
                "id": -1,
                "order": -1
            }
        ],
        "mainTraceNodeCount": 2,
        "parentIdMap": {
            "0": -1,
            "1": 0
        },
        "tidyTrace": [
            {
                "children": [
                    {
                        "children": [
                            {
                                "children": [],
                                "depth": 1,
                                "id": 1,
                                "order": 1
                            }
                        ],
                        "depth": 0,
                        "id": 0,
                        "order": 0
                    }
                ],
                "depth": -1,
                "id": -1,
                "order": -1
            }
        ],
        "tidyTraceNodeCount": 2
    },
    "state_change": {
        "stateChanges": [
            {
                "address": "0xd26114cd6ee289accf82350c8d8487fedb8a0c07",
                "erc": "ERC-20",
                "slots": [
                    {
                        "current": "0x000000000000000000000000000000000000000000009b47bf412f7f14ad5975",
                        "key": "0xd1241bce2c2deda1a58f52fbb0d7cacfa3ab9946f123faf19be09a0397dcbfca",
                        "prev": "0x000000000000000000000000000000000000000000009b9fd96f74d159855975"
                    },
                    {
                        "current": "0x0000000000000000000000000000000000000000000000581a2e455244d80000",
                        "key": "0xae6a274fb8aea33238bc229f211de36c0327091c6a8a297336499a202dca54f4",
                        "prev": "0x0000000000000000000000000000000000000000000000000000000000000000"
                    }
                ],
                "storageVariables": []
            }
        ]
    }
}