{
    "balance_change": {
        "balanceChanges": [
            {
                "account": "0x0b1a89664970ebeb16d6a1a039017049eea45a20",
                "assets": [
                    {
                        "address": "0xeeeeeeeeeeeeeeeeeeeeeeeeeeeeeeeeeeeeeeee",
                        "amount": "0.204343955996570181",
                        "iconUrl": "https://assets.blocksec.com/image/1663669189317-3.png",
                        "isERC1155": false,
                        "isERC721": false,
                        "sign": true,
                        "value": "353.4169587811199963"
                    },
                    {
                        "address": "0x64aa3364f17a4d01c6f1751fd97c2bd3d7e7f1d5",
                        "amount": "33.201958266",
                        "iconUrl": "https://assets.blocksec.com/icon/ed25b27e69b7aa4fe4fbb6b895064aa1be99a1588ade0bd4a3be2e83c340d1de.png",
                        "isERC1155": false,
                        "isERC721": false,
                        "sign": false,
                        "value": "355.2609534889999764"
                    }
                ]
            },
            {
                "account": "0xba12222222228d8ba445958a75a0704d566bf2c8",
                "assets": [
                    {
                        "address": "0x64aa3364f17a4d01c6f1751fd97c2bd3d7e7f1d5",
                        "amount": "33.201958266",
                        "iconUrl": "https://assets.blocksec.com/icon/ed25b27e69b7aa4fe4fbb6b895064aa1be99a1588ade0bd4a3be2e83c340d1de.png",
                        "isERC1155": false,
                        "isERC721": false,
                        "sign": true,
                        "value": "355.2609534889999764"
                    },
                    {
                        "address": "0xc02aaa39b223fe8d0a0e5c4f27ead9083c756cc2",
                        "amount": "0.204343955996570181",
                        "iconUrl": "https://assets.blocksec.com/icon/f1cb2d02c471d545bbc7722daf3277fd852d98e63d118771af7047bd8256c516.png",
                        "isERC1155": false,
                        "isERC721": false,
                        "sign": false,
                        "value": "353.4169587811199963"
                    }
                ]
            },
            {
                "account": "0xc02aaa39b223fe8d0a0e5c4f27ead9083c756cc2",
                "assets": [
                    {
                        "address": "0xeeeeeeeeeeeeeeeeeeeeeeeeeeeeeeeeeeeeeeee",
                        "amount": "0.204343955996570181",
                        "iconUrl": "https://assets.blocksec.com/image/1663669189317-3.png",
                        "isERC1155": false,
                        "isERC721": false,
                        "sign": false,
                        "value": "353.4169587811199963"
                    },
                    {
                        "address": "0xc02aaa39b223fe8d0a0e5c4f27ead9083c756cc2",
                        "amount": "0.204343955996570181",
                        "iconUrl": "https://assets.blocksec.com/icon/f1cb2d02c471d545bbc7722daf3277fd852d98e63d118771af7047bd8256c516.png",
                        "isERC1155": false,
                        "isERC721": false,
                        "sign": true,
                        "value": "353.4169587811199963"
                    }
                ]
            }
        ]
    },
    "profile": {
        "basic_info": {
            "baseFee": "13.742726855",
            "blockNumber": 17518970,
            "callData": "0x52bbbe2900000000000000000000000000000000000000000000000000000000000000e00000000000000000000000000b1a89664970ebeb16d6a1a039017049eea45a2000000000000000000000000000000000000000000000000000000000000000000000000000000000000000000b1a89664970ebeb16d6a1a039017049eea45a20000000000000000000000000000000000000000000000000000000000000000000000000000000000000000000000000000000000000000002d25d28d7b432f100000000000000000000000000000000000000000000000000000000649156e0d1ec5e215e8148d76f4460e4097fd3d5ae0a35580002000000000000000003d3000000000000000000000000000000000000000000000000000000000000000000000000000000000000000064aa3364f17a4d01c6f1751fd97c2bd3d7e7f1d5000000000000000000000000000000000000000000000000000000000000000000000000000000000000000000000000000000000000000000000007bafdad7a00000000000000000000000000000000000000000000000000000000000000c00000000000000000000000000000000000000000000000000000000000000000",
            "debugEnable": true,
            "errorInfo": "",
            "eventCount": 4,
            "feeRecipient": "0x5124fcc2b3f99f571ad67d075643c743f38f1c34",
            "formatValue": "0",
            "gasLimit": 222626,
            "gasPrice": "14",
            "gasUsed": 101616,
            "intTxnCount": 5,
            "internalRevert": false,
            "internalRevertMessage": "",
            "isContractCreation": false,
            "isFlashloan": false,
            "maxFee": "14",
            "nonce": 260,
            "overwritedBlockNumber": -1,
            "priorityFee": "1.4",
            "receiver": "0xba12222222228d8ba445958a75a0704d566bf2c8",
            "revertMessage": "",
            "sender": "0x0b1a89664970ebeb16d6a1a039017049eea45a20",
            "simulationEnable": true,
            "sourceTxnHash": "0x9c073ac325ac834afd877ce4d4dbd0c247157e7044150ff297a21a9720b33f71",
            "status": true,
            "timestamp": "2023-06-20T05:56:23Z",
            "transactionFee": "0.001422624",
            "txnHash": "0x9c073ac325ac834afd877ce4d4dbd0c247157e7044150ff297a21a9720b33f71",
            "txnIndex": 50,
            "type": 2,
            "value": "0"
        },
        "fund_flow": [
            {
                "amount": "33.201958266",
                "from": "0x0b1a89664970ebeb16d6a1a039017049eea45a20",
                "id": 1,
                "isERC1155": false,
                "isERC721": false,
                "isReverted": false,
                "order": 1,
                "to": "0xba12222222228d8ba445958a75a0704d566bf2c8",
                "token": "0x64aa3364f17a4d01c6f1751fd97c2bd3d7e7f1d5"
            },
            {
                "amount": "0.204343955996570181",
                "from": "0xc02aaa39b223fe8d0a0e5c4f27ead9083c756cc2",
                "id": 2,
                "isERC1155": false,
                "isERC721": false,
                "isReverted": false,
                "order": 2,
                "to": "0xba12222222228d8ba445958a75a0704d566bf2c8",
                "token": "0xeeeeeeeeeeeeeeeeeeeeeeeeeeeeeeeeeeeeeeee"
            },
            {
                "amount": "0.204343955996570181",
                "from": "0xba12222222228d8ba445958a75a0704d566bf2c8",
                "id": 3,
                "isERC1155": false,
                "isERC721": false,
                "isReverted": false,
                "order": 3,
                "to": "0xc02aaa39b223fe8d0a0e5c4f27ead9083c756cc2",
                "token": "0xc02aaa39b223fe8d0a0e5c4f27ead9083c756cc2"
            },
            {
                "amount": "0.204343955996570181",
                "from": "0xba12222222228d8ba445958a75a0704d566bf2c8",
                "id": 4,
                "isERC1155": false,
                "isERC721": false,
                "isReverted": false,
                "order": 4,
                "to": "0x0b1a89664970ebeb16d6a1a039017049eea45a20",
                "token": "0xeeeeeeeeeeeeeeeeeeeeeeeeeeeeeeeeeeeeeeee"
            }
        ],
        "token_infos": [
            {
                "address": "0x64aa3364f17a4d01c6f1751fd97c2bd3d7e7f1d5",
                "decimals": 9
            },
            {
                "address": "0xc02aaa39b223fe8d0a0e5c4f27ead9083c756cc2",
                "decimals": 18
            },
            {
                "address": "0xeeeeeeeeeeeeeeeeeeeeeeeeeeeeeeeeeeeeeeee",
                "decimals": 18
            }
        ]
    },
    "address_label": {
        "labels": [
            {
                "address": "0xba12222222228d8ba445958a75a0704d566bf2c8",
                "label": "Balancer: Vault"
            },
            {
                "address": "0xeeeeeeeeeeeeeeeeeeeeeeeeeeeeeeeeeeeeeeee",
                "label": "Ether"
            },
            {
                "address": "0xc02aaa39b223fe8d0a0e5c4f27ead9083c756cc2",
                "label": "Wrapped Ether (WETH)"
            },
            {
                "address": "0x0000000000000000000000000000000000000000",
                "label": "Null Address"
            },
            {
                "address": "0xd1ec5e215e8148d76f4460e4097fd3d5ae0a3558",
                "label": "50OHM-50WETH (50OHM-50W...)"
            },
            {
                "address": "0x0000000000000000000000000000000000000001",
                "label": "Precompiled"
            },
            {
                "address": "0x0000000000000000000000000000000000000002",
                "label": "Precompiled"
            },
            {
                "address": "0x0000000000000000000000000000000000000003",
                "label": "Precompiled"
            },
            {
                "address": "0x0000000000000000000000000000000000000004",
                "label": "Precompiled"
            },
            {
                "address": "0x64aa3364f17a4d01c6f1751fd97c2bd3d7e7f1d5",
                "label": "OlympusDAO: OHM Token"
            }
        ]
    },
    "trace": {
        "accountLabels": null,
        "dataMap": {
            "-1": {
                "invocation": {
                    "address": "0x0b1a89664970ebeb16d6a1a039017049eea45a20",
                    "callData": "",
                    "decodedMethod": null,
                    "errorInfo": "",
                    "fromAddress": "",
                    "gasUsed": 0,
                    "id": -1,
                    "methodDecoded": false,
                    "operation": "",
                    "output": "",
                    "revert": false,
                    "revertMessage": "",
                    "selector": "",
                    "status": false,
                    "value": ""
                },
                "nodeType": 0
            },
            "0": {
                "invocation": {
                    "address": "0xba12222222228d8ba445958a75a0704d566bf2c8",
                    "callData": "0x00000000000000000000000000000000000000000000000000000000000000e00000000000000000000000000b1a89664970ebeb16d6a1a039017049eea45a2000000000000000000000000000000000000000000000000000000000000000000000000000000000000000000b1a89664970ebeb16d6a1a039017049eea45a20000000000000000000000000000000000000000000000000000000000000000000000000000000000000000000000000000000000000000002d25d28d7b432f100000000000000000000000000000000000000000000000000000000649156e0d1ec5e215e8148d76f4460e4097fd3d5ae0a35580002000000000000000003d3000000000000000000000000000000000000000000000000000000000000000000000000000000000000000064aa3364f17a4d01c6f1751fd97c2bd3d7e7f1d5000000000000000000000000000000000000000000000000000000000000000000000000000000000000000000000000000000000000000000000007bafdad7a00000000000000000000000000000000000000000000000000000000000000c00000000000000000000000000000000000000000000000000000000000000000",
                    "decodedMethod": {
                        "callParams": [
                            {
                                "name": "singleSwap",
                                "type": "(bytes32,uint8,address,address,uint256,bytes)",
                                "value": [
                                    {
                                        "name": "poolId",
                                        "type": "bytes32",
                                        "value": "0xd1ec5e215e8148d76f4460e4097fd3d5ae0a35580002000000000000000003d3"
                                    },
                                    {
                                        "name": "kind",
                                        "type": "uint8",
                                        "value": "0"
                                    },
                                    {
                                        "name": "assetIn",
                                        "type": "address",
                                        "value": "0x64aa3364f17a4d01c6f1751fd97c2bd3d7e7f1d5"
                                    },
                                    {
                                        "name": "assetOut",
                                        "type": "address",
                                        "value": "0x0000000000000000000000000000000000000000"
                                    },
                                    {
                                        "name": "amount",
                                        "type": "uint256",
                                        "value": "33,201,958,266"
                                    },
                                    {
                                        "name": "userData",
                                        "type": "bytes",
                                        "value": "0x"
                                    }
                                ]
                            },
                            {
                                "name": "funds",
                                "type": "(address,bool,address,bool)",
                                "value": [
                                    {
                                        "name": "sender",
                                        "type": "address",
                                        "value": "0x0b1a89664970ebeb16d6a1a039017049eea45a20"
                                    },
                                    {
                                        "name": "fromInternalBalance",
                                        "type": "bool",
                                        "value": false
                                    },
                                    {
                                        "name": "recipient",
                                        "type": "address",
                                        "value": "0x0b1a89664970ebeb16d6a1a039017049eea45a20"
                                    },
                                    {
                                        "name": "toInternalBalance",
                                        "type": "bool",
                                        "value": false
                                    }
                                ]
                            },
                            {
                                "name": "limit",
                                "type": "uint256",
                                "value": "203,327,363,184,079,601"
                            },
                            {
                                "name": "deadline",
                                "type": "uint256",
                                "value": "1,687,246,560"
                            }
                        ],
                        "constructorArguments": "",
                        "name": "swap",
                        "returnParams": [
                            {
                                "name": "amountCalculated",
                                "type": "uint256",
                                "value": "204,343,955,996,570,181"
                            }
                        ],
                        "signature": "swap((bytes32,uint8,address,address,uint256,bytes),(address,bool,address,bool),uint256,uint256)"
                    },
                    "errorInfo": "",
                    "fromAddress": "0x0b1a89664970ebeb16d6a1a039017049eea45a20",
                    "gasUsed": 101616,
                    "id": 0,
                    "methodDecoded": true,
                    "operation": "CALL",
                    "output": "0x00000000000000000000000000000000000000000000000002d5f9becd2c7245",
                    "revert": false,
                    "revertMessage": "",
                    "selector": "0x52bbbe29",
                    "status": true,
                    "value": "0"
                },
                "nodeType": 0
            },
            "1": {
                "invocation": {
                    "address": "0xd1ec5e215e8148d76f4460e4097fd3d5ae0a3558",
                    "callData": "0x0000000000000000000000000000000000000000000000000000000000000060000000000000000000000000000000000000000000000000000207deb2156edc0000000000000000000000000000000000000000000000bf4b6f82e825ef7023000000000000000000000000000000000000000000000000000000000000000000000000000000000000000064aa3364f17a4d01c6f1751fd97c2bd3d7e7f1d5000000000000000000000000c02aaa39b223fe8d0a0e5c4f27ead9083c756cc200000000000000000000000000000000000000000000000000000007bafdad7ad1ec5e215e8148d76f4460e4097fd3d5ae0a35580002000000000000000003d300000000000000000000000000000000000000000000000000000000010b4d700000000000000000000000000b1a89664970ebeb16d6a1a039017049eea45a200000000000000000000000000b1a89664970ebeb16d6a1a039017049eea45a2000000000000000000000000000000000000000000000000000000000000001200000000000000000000000000000000000000000000000000000000000000000",
                    "decodedMethod": {
                        "callParams": [
                            {
                                "name": "request",
                                "type": "(uint8,address,address,uint256,bytes32,uint256,address,address,bytes)",
                                "value": [
                                    {
                                        "name": "kind",
                                        "type": "uint8",
                                        "value": "0"
                                    },
                                    {
                                        "name": "tokenIn",
                                        "type": "address",
                                        "value": "0x64aa3364f17a4d01c6f1751fd97c2bd3d7e7f1d5"
                                    },
                                    {
                                        "name": "tokenOut",
                                        "type": "address",
                                        "value": "0xc02aaa39b223fe8d0a0e5c4f27ead9083c756cc2"
                                    },
                                    {
                                        "name": "amount",
                                        "type": "uint256",
                                        "value": "33,201,958,266"
                                    },
                                    {
                                        "name": "poolId",
                                        "type": "bytes32",
                                        "value": "0xd1ec5e215e8148d76f4460e4097fd3d5ae0a35580002000000000000000003d3"
                                    },
                                    {
                                        "name": "lastChangeBlock",
                                        "type": "uint256",
                                        "value": "17,517,936"
                                    },
                                    {
                                        "name": "from",
                                        "type": "address",
                                        "value": "0x0b1a89664970ebeb16d6a1a039017049eea45a20"
                                    },
                                    {
                                        "name": "to",
                                        "type": "address",
                                        "value": "0x0b1a89664970ebeb16d6a1a039017049eea45a20"
                                    },
                                    {
                                        "name": "userData",
                                        "type": "bytes",
                                        "value": "0x"
                                    }
                                ]
                            },
                            {
                                "name": "balanceTokenIn",
                                "type": "uint256",
                                "value": "571,603,005,304,540"
                            },
                            {
                                "name": "balanceTokenOut",
                                "type": "uint256",
                                "value": "3,528,763,825,287,364,309,027"
                            }
                        ],
                        "constructorArguments": "",
                        "name": "onSwap",
                        "returnParams": [
                            {
                                "name": "",
                                "type": "uint256",
                                "value": "204,343,955,996,570,181"
                            }
                        ],
                        "signature": "onSwap((uint8,address,address,uint256,bytes32,uint256,address,address,bytes),uint256,uint256)"
                    },
                    "errorInfo": "",
                    "fromAddress": "0xba12222222228d8ba445958a75a0704d566bf2c8",
                    "gasUsed": 9840,
                    "id": 1,
                    "methodDecoded": true,
                    "operation": "CALL",
                    "output": "0x00000000000000000000000000000000000000000000000002d5f9becd2c7245",
                    "revert": false,
                    "revertMessage": "",
                    "selector": "0x9d2c110c",
                    "status": true,
                    "value": "0"
                },
                "nodeType": 0
            },
            "2": {
                "event": {
                    "contract": "0xba12222222228d8ba445958a75a0704d566bf2c8",
                    "decodedLog": {
                        "name": "Swap",
                        "params": [
                            {
                                "name": "poolId",
                                "type": "bytes32",
                                "value": "0xd1ec5e215e8148d76f4460e4097fd3d5ae0a35580002000000000000000003d3"
                            },
                            {
                                "name": "tokenIn",
                                "type": "address",
                                "value": "0x64aa3364f17a4d01c6f1751fd97c2bd3d7e7f1d5"
                            },
                            {
                                "name": "tokenOut",
                                "type": "address",
                                "value": "0xc02aaa39b223fe8d0a0e5c4f27ead9083c756cc2"
                            },
                            {
                                "name": "amountIn",
                                "type": "uint256",
                                "value": "33,201,958,266"
                            },
                            {
                                "name": "amountOut",
                                "type": "uint256",
                                "value": "204,343,955,996,570,181"
                            }
                        ],
                        "signature": "Swap(bytes32,address,address,uint256,uint256)"
                    },
                    "id": 2,
                    "logData": "0x00000000000000000000000000000000000000000000000000000007bafdad7a00000000000000000000000000000000000000000000000002d5f9becd2c7245",
                    "logDecoded": true,
                    "operation": "EVENT",
                    "revert": false,
                    "status": true,
                    "topics": [
                        "0x2170c741c41531aec20e7c107c24eecfdd15e69c9bb0a8dd37b1840b9e0b207b",
                        "0xd1ec5e215e8148d76f4460e4097fd3d5ae0a35580002000000000000000003d3",
                        "0x00000000000000000000000064aa3364f17a4d01c6f1751fd97c2bd3d7e7f1d5",
                        "0x000000000000000000000000c02aaa39b223fe8d0a0e5c4f27ead9083c756cc2"
                    ]
                },
                "nodeType": 1
            },
            "3": {
                "invocation": {
                    "address": "0x64aa3364f17a4d01c6f1751fd97c2bd3d7e7f1d5",
                    "callData": "0x0000000000000000000000000b1a89664970ebeb16d6a1a039017049eea45a20000000000000000000000000ba12222222228d8ba445958a75a0704d566bf2c800000000000000000000000000000000000000000000000000000007bafdad7a",
                    "decodedMethod": {
                        "callParams": [
                            {
                                "name": "sender",
                                "type": "address",
                                "value": "0x0b1a89664970ebeb16d6a1a039017049eea45a20"
                            },
                            {
                                "name": "recipient",
                                "type": "address",
                                "value": "0xba12222222228d8ba445958a75a0704d566bf2c8"
                            },
                            {
                                "decimalAvailable": true,
                                "name": "amount",
                                "type": "uint256",
                                "value": "33,201,958,266"
                            }
                        ],
                        "constructorArguments": "",
                        "name": "transferFrom",
                        "returnParams": [
                            {
                                "name": "",
                                "type": "bool",
                                "value": true
                            }
                        ],
                        "signature": "transferFrom(address,address,uint256)"
                    },
                    "errorInfo": "",
                    "fromAddress": "0xba12222222228d8ba445958a75a0704d566bf2c8",
                    "gasUsed": 20374,
                    "id": 3,
                    "methodDecoded": true,
                    "operation": "CALL",
                    "output": "0x0000000000000000000000000000000000000000000000000000000000000001",
                    "revert": false,
                    "revertMessage": "",
                    "selector": "0x23b872dd",
                    "status": true,
                    "value": "0"
                },
                "nodeType": 0
            },
            "4": {
                "event": {
                    "contract": "0x64aa3364f17a4d01c6f1751fd97c2bd3d7e7f1d5",
                    "decodedLog": {
                        "name": "Transfer",
                        "params": [
                            {
                                "name": "from",
                                "type": "address",
                                "value": "0x0b1a89664970ebeb16d6a1a039017049eea45a20"
                            },
                            {
                                "name": "to",
                                "type": "address",
                                "value": "0xba12222222228d8ba445958a75a0704d566bf2c8"
                            },
                            {
                                "decimalAvailable": true,
                                "name": "value",
                                "type": "uint256",
                                "value": "33,201,958,266"
                            }
                        ],
                        "signature": "Transfer(address,address,uint256)"
                    },
                    "id": 4,
                    "logData": "0x00000000000000000000000000000000000000000000000000000007bafdad7a",
                    "logDecoded": true,
                    "operation": "EVENT",
                    "revert": false,
                    "status": true,
                    "topics": [
                        "0xddf252ad1be2c89b69c2b068fc378daa952ba7f163c4a11628f55a4df523b3ef",
                        "0x0000000000000000000000000b1a89664970ebeb16d6a1a039017049eea45a20",
                        "0x000000000000000000000000ba12222222228d8ba445958a75a0704d566bf2c8"
                    ]
                },
                "nodeType": 1
            },
            "5": {
                "event": {
                    "contract": "0x64aa3364f17a4d01c6f1751fd97c2bd3d7e7f1d5",
                    "decodedLog": {
                        "name": "Approval",
                        "params": [
                            {
                                "name": "owner",
                                "type": "address",
                                "value": "0x0b1a89664970ebeb16d6a1a039017049eea45a20"
                            },
                            {
                                "name": "spender",
                                "type": "address",
                                "value": "0xba12222222228d8ba445958a75a0704d566bf2c8"
                            },
                            {
                                "decimalAvailable": true,
                                "name": "value",
                                "type": "uint256",
                                "value": "115,792,089,237,316,195,423,570,985,008,687,907,853,269,984,665,640,564,039,457,584,007,879,927,681,669"
                            }
                        ],
                        "signature": "Approval(address,address,uint256)"
                    },
                    "id": 5,
                    "logData": "0xfffffffffffffffffffffffffffffffffffffffffffffffffffffff845025285",
                    "logDecoded": true,
                    "operation": "EVENT",
                    "revert": false,
                    "status": true,
                    "topics": [
                        "0x8c5be1e5ebec7d5bd14f71427d1e84f3dd0314c0f7b2291e5b200ac8c7c3b925",
                        "0x0000000000000000000000000b1a89664970ebeb16d6a1a039017049eea45a20",
                        "0x000000000000000000000000ba12222222228d8ba445958a75a0704d566bf2c8"
                    ]
                },
                "nodeType": 1
            },
            "6": {
                "invocation": {
                    "address": "0xc02aaa39b223fe8d0a0e5c4f27ead9083c756cc2",
                    "callData": "0x00000000000000000000000000000000000000000000000002d5f9becd2c7245",
                    "decodedMethod": {
                        "callParams": [
                            {
                                "name": "wad",
                                "type": "uint256",
                                "value": "204,343,955,996,570,181"
                            }
                        ],
                        "constructorArguments": "",
                        "name": "withdraw",
                        "returnParams": [],
                        "signature": "withdraw(uint256)"
                    },
                    "errorInfo": "",
                    "fromAddress": "0xba12222222228d8ba445958a75a0704d566bf2c8",
                    "gasUsed": 14115,
                    "id": 6,
                    "methodDecoded": true,
                    "operation": "CALL",
                    "output": "",
                    "revert": false,
                    "revertMessage": "",
                    "selector": "0x2e1a7d4d",
                    "status": true,
                    "value": "0"
                },
                "nodeType": 0
            },
            "7": {
                "invocation": {
                    "address": "0xba12222222228d8ba445958a75a0704d566bf2c8",
                    "callData": "0x",
                    "decodedMethod": null,
                    "errorInfo": "",
                    "fromAddress": "0xc02aaa39b223fe8d0a0e5c4f27ead9083c756cc2",
                    "gasUsed": 175,
                    "id": 7,
                    "methodDecoded": false,
                    "operation": "CALL",
                    "output": "",
                    "revert": false,
                    "revertMessage": "",
                    "selector": "fallback",
                    "status": true,
                    "value": "0.204343955996570181"
                },
                "nodeType": 0
            },
            "8": {
                "event": {
                    "contract": "0xc02aaa39b223fe8d0a0e5c4f27ead9083c756cc2",
                    "decodedLog": {
                        "name": "Withdrawal",
                        "params": [
                            {
                                "name": "src",
                                "type": "address",
                                "value": "0xba12222222228d8ba445958a75a0704d566bf2c8"
                            },
                            {
                                "name": "wad",
                                "type": "uint256",
                                "value": "204,343,955,996,570,181"
                            }
                        ],
                        "signature": "Withdrawal(address,uint256)"
                    },
                    "id": 8,
                    "logData": "0x00000000000000000000000000000000000000000000000002d5f9becd2c7245",
                    "logDecoded": true,
                    "operation": "EVENT",
                    "revert": false,
                    "status": true,
                    "topics": [
                        "0x7fcf532c15f0a6db0bd6d0e038bea71d30d808c7d98cb3bf7268a95bf5081b65",
                        "0x000000000000000000000000ba12222222228d8ba445958a75a0704d566bf2c8"
                    ]
                },
                "nodeType": 1
            },
            "9": {
                "invocation": {
                    "address": "0x0b1a89664970ebeb16d6a1a039017049eea45a20",
                    "callData": "0x",
                    "decodedMethod": null,
                    "errorInfo": "",
                    "fromAddress": "0xba12222222228d8ba445958a75a0704d566bf2c8",
                    "gasUsed": 0,
                    "id": 9,
                    "methodDecoded": false,
                    "operation": "CALL",
                    "output": "",
                    "revert": false,
                    "revertMessage": "",
                    "selector": "fallback",
                    "status": true,
                    "value": "0.204343955996570181"
                },
                "nodeType": 0
            }
        },
        "gasFlame": [
            {
                "children": [
                    {
                        "children": [
                            {
                                "children": [],
                                "depth": 0,
                                "name": "Initial Gas",
                                "value": 24080
                            },
                            {
                                "children": [
                                    {
                                        "children": [],
                                        "depth": 1,
                                        "name": "onSwap",
                                        "value": 9840
                                    },
                                    {
                                        "children": [],
                                        "depth": 1,
                                        "name": "transferFrom",
                                        "value": 20374
                                    },
                                    {
                                        "children": [
                                            {
                                                "children": [],
                                                "depth": 2,
                                                "name": "fallback",
                                                "value": 175
                                            }
                                        ],
                                        "depth": 1,
                                        "name": "withdraw",
                                        "value": 14115
                                    },
                                    {
                                        "children": [],
                                        "depth": 1,
                                        "name": "fallback",
                                        "value": 0
                                    }
                                ],
                                "depth": 0,
                                "name": "Executed Gas",
                                "value": 85136
                            }
                        ],
                        "depth": -1,
                        "name": "Actual Gas Used",
                        "value": 101616
                    },
                    {
                        "children": [],
                        "depth": -1,
                        "name": "Refunded Gas",
                        "value": 7600
                    }
                ],
                "depth": -2,
                "name": "Total Gas",
                "value": 109216
            }
        ],
        "isConfirmed": true,
        "mainTrace": [
            {
                "children": [
                    {
                        "children": [
                            {
                                "children": [],
                                "depth": 1,
                                "id": 1,
                                "order": 1
                            },
                            {
                                "children": [],
                                "depth": 1,
                                "id": 2,
                                "order": 2
                            },
                            {
                                "children": [
                                    {
                                        "children": [],
                                        "depth": 2,
                                        "id": 4,
                                        "order": 4
                                    },
                                    {
                                        "children": [],
                                        "depth": 2,
                                        "id": 5,
                                        "order": 5
                                    }
                                ],
                                "depth": 1,
                                "id": 3,
                                "order": 3
                            },
                            {
                                "children": [
                                    {
                                        "children": [],
                                        "depth": 2,
                                        "id": 7,
                                        "order": 7
                                    },
                                    {
                                        "children": [],
                                        "depth": 2,
                                        "id": 8,
                                        "order": 8
                                    }
                                ],
                                "depth": 1,
                                "id": 6,
                                "order": 6
                            },
                            {
                                "children": [],
                                "depth": 1,
                                "id": 9,
                                "order": 9
                            }
                        ],
                        "depth": 0,
                        "id": 0,
                        "order": 0
                    }
                ],
                "depth": -1,
                "id": -1,
                "order": -1
            }
        ],
        "mainTraceNodeCount": 10,
        "parentIdMap": {
            "0": -1,
            "1": 0,
            "2": 0,
            "3": 0,
            "4": 3,
            "5": 3,
            "6": 0,
            "7": 6,
            "8": 6,
            "9": 0
        },
        "tidyTrace": [
            {
                "children": [
                    {
                        "children": [
                            {
                                "children": [],
                                "depth": 1,
                                "id": 1,
                                "order": 1
                            },
                            {
                                "children": [],
                                "depth": 1,
                                "id": 2,
                                "order": 2
                            },
                            {
                                "children": [
                                    {
                                        "children": [],
                                        "depth": 2,
                                        "id": 4,
                                        "order": 4
                                    },
                                    {
                                        "children": [],
                                        "depth": 2,
                                        "id": 5,
                                        "order": 5
                                    }
                                ],
                                "depth": 1,
                                "id": 3,
                                "order": 3
                            },
                            {
                                "children": [
                                    {
                                        "children": [],
                                        "depth": 2,
                                        "id": 7,
                                        "order": 7
                                    },
                                    {
                                        "children": [],
                                        "depth": 2,
                                        "id": 8,
                                        "order": 8
                                    }
                                ],
                                "depth": 1,
                                "id": 6,
                                "order": 6
                            },
                            {
                                "children": [],
                                "depth": 1,
                                "id": 9,
                                "order": 9
                            }
                        ],
                        "depth": 0,
                        "id": 0,
                        "order": 0
                    }
                ],
                "depth": -1,
                "id": -1,
                "order": -1
            }
        ],
        "tidyTraceNodeCount": 10
    },
    "state_change": {
        "stateChanges": [
            {
                "address": "0x64aa3364f17a4d01c6f1751fd97c2bd3d7e7f1d5",
                "erc": "ERC-20",
                "slots": [
                    {
                        "current": "0x0000000000000000000000000000000000000000000000000000000000000000",
                        "key": "0x5b11b7ec0ca6f53def1ff7c51557dbbe09923cbce9f9f41e9ddd8db92d8f353b",
                        "prev": "0x00000000000000000000000000000000000000000000000000000007bafdad7a"
                    },
                    {
                        "current": "0x0000000000000000000000000000000000000000000000000005c42923b78667",
                        "key": "0x35319886236d14fde3fb5d2d478c99523591cec1329d23f2a1dd0025f7b62718",
                        "prev": "0x0000000000000000000000000000000000000000000000000005c42168b9d8ed"
                    },
                    {
                        "current": "0xfffffffffffffffffffffffffffffffffffffffffffffffffffffff845025285",
                        "key": "0x34403459444b6be0dda1f13bb8247df191df57236357679d2ebff572356c55e5",
                        "prev": "0xffffffffffffffffffffffffffffffffffffffffffffffffffffffffffffffff"
                    }
                ],
                "storageVariables": [
                    {
                        "name": "_balances",
                        "type": "mapping(address => uint256)",
                        "value": {
                            "pairs": [
                                {
                                    "key": "0x0b1a89664970ebeb16d6a1a039017049eea45a20",
                                    "value": {
                                        "current": "0",
                                        "prev": "33201958266",
                                        "typeTag": 1
                                    }
                                },
                                {
                                    "key": "0xba12222222228d8ba445958a75a0704d566bf2c8",
                                    "value": {
                                        "current": "1623055855486567",
                                        "prev": "1623022653528301",
                                        "typeTag": 1
                                    }
                                }
                            ],
                            "typeTag": 4
                        }
                    },
                    {
                        "name": "_allowances",
                        "type": "mapping(address => mapping(address => uint256))",
                        "value": {
                            "pairs": [
                                {
                                    "key": "0x0b1a89664970ebeb16d6a1a039017049eea45a20",
                                    "value": {
                                        "pairs": [
                                            {
                                                "key": "0xba12222222228d8ba445958a75a0704d566bf2c8",
                                                "value": {
                                                    "current": "115792089237316195423570985008687907853269984665640564039457584007879927681669",
                                                    "prev": "115792089237316195423570985008687907853269984665640564039457584007913129639935",
                                                    "typeTag": 1
                                                }
                                            }
                                        ],
                                        "typeTag": 4
                                    }
                                }
                            ],
                            "typeTag": 4
                        }
                    }
                ]
            },
            {
                "address": "0xba12222222228d8ba445958a75a0704d566bf2c8",
                "erc": "",
                "slots": [
                    {
                        "current": "0x010b517a0000000000bf4899892958c2fdde000000000000000207e66d131c56",
                        "key": "0xfef96e8c177371ac0f921ca6f73a5bcfa06db644dd8be8d8d98f9fb8d76e55e0",
                        "prev": "0x010b4d700000000000bf4b6f82e825ef7023000000000000000207deb2156edc"
                    }
                ],
                "storageVariables": [
                    {
                        "name": "_twoTokenPoolTokens",
                        "type": "mapping(bytes32 => struct TwoTokenPoolsBalance.TwoTokenPoolTokens)",
                        "value": {
                            "pairs": [
                                {
                                    "key": "0xd1ec5e215e8148d76f4460e4097fd3d5ae0a35580002000000000000000003d3",
                                    "value": {
                                        "fields": [
                                            {
                                                "name": "balances",
                                                "type": "mapping(bytes32 => struct TwoTokenPoolsBalance.TwoTokenPoolBalances)",
                                                "value": {
                                                    "pairs": [
                                                        {
                                                            "key": "0xde0f5f81366357495767a7078c079edf3733d73b8d6ad56f9bfb86ff38fd0c84",
                                                            "value": {
                                                                "fields": [
                                                                    {
                                                                        "name": "sharedCash",
                                                                        "type": "bytes32",
                                                                        "value": {
                                                                            "current": "0x010b517a0000000000bf4899892958c2fdde000000000000000207e66d131c56",
                                                                            "prev": "0x010b4d700000000000bf4b6f82e825ef7023000000000000000207deb2156edc",
                                                                            "typeTag": 1
                                                                        }
                                                                    }
                                                                ],
                                                                "typeTag": 3
                                                            }
                                                        }
                                                    ],
                                                    "typeTag": 4
                                                }
                                            }
                                        ],
                                        "typeTag": 3
                                    }
                                }
                            ],
                            "typeTag": 4
                        }
                    }
                ]
            },
            {
                "address": "0xc02aaa39b223fe8d0a0e5c4f27ead9083c756cc2",
                "erc": "ERC-20",
                "slots": [
                    {
                        "current": "0x0000000000000000000000000000000000000000000013cbf13662c7ec2acb41",
                        "key": "0x3a0f132b80eb284c2ac247698d2ec7dce851ca420b700161ad6082d0e9762150",
                        "prev": "0x0000000000000000000000000000000000000000000013cbf40c5c86b9573d86"
                    }
                ],
                "storageVariables": [
                    {
                        "name": "balanceOf",
                        "type": "mapping(address => uint256)",
                        "value": {
                            "pairs": [
                                {
                                    "key": "0xba12222222228d8ba445958a75a0704d566bf2c8",
                                    "value": {
                                        "current": "93487033409908981287745",
                                        "prev": "93487237753864977857926",
                                        "typeTag": 1
                                    }
                                }
                            ],
                            "typeTag": 4
                        }
                    }
                ]
            }
        ]
    }
}