{
    "balance_change": {
        "balanceChanges": []
    },
    "profile": {
        "basic_info": {
            "baseFee": "149.73830636",
            "blockNumber": 17211406,
            "callData": "0x5578ceae000000000000000000000000000000000000000000000000000000000050a21300000000000000000000000000000000000000000000000000000000000000a003f61c45d253ab26b089e94513fe79b40b44b0337739966c7ddb505a10c2b58305a7042beb471cea590961b206bcadfcf552d74d0e07b8495d68d5deeb588ebc0800000000000011000000000000000000000000000000000000000000000001000000000000000000000000000000000000000000000000000000000000000d0214c2e62b8bf054534ad68fff61de9ca80edbf0eda86628c5711e25e97e91560117681d9a592af8dc7de5d6b31061c1a8d1604e30e50845349b07d6c71e0ae6000000000000000000000000000000000000000000000000000000000000c147017c0bc29d31e9a7d14671610a7626264ce9ce8e3ed066a4775adf9b123de9dd0000000000000000000000000000000000000000000000000000000000000007073314940630fd6dcda0d772d4c972c4e0a9946bef9dabf4ef84eda8ef542b82000000000000000000000000ae0ee0a63a2ce6baeeffe56e7714fb4efe48d41900000000000000000000000000000000000000000000000000000000000000040000000000000000000000000000000000000000000000000000000000000000000000000000000000000000c9309b9f41a30817b6ef8d34e8f2f22ab0fb55b600000000000000000000000000000000000000000000000003e2c284391c000000000000000000000000000000000000000000000000000000000000000000000000000000000000000000000000000000000000000000000000000000000000",
            "debugEnable": true,
            "errorInfo": "",
            "eventCount": 1,
            "feeRecipient": "0x95222290dd7278aa3ddd389cc1e1d165cc4bafe5",
            "formatValue": "0",
            "gasLimit": 11000000,
            "gasPrice": "150",
            "gasUsed": 55146,
            "intTxnCount": 0,
            "internalRevert": false,
            "internalRevertMessage": "",
            "isContractCreation": false,
            "isFlashloan": false,
            "maxFee": "150",
            "nonce": 72199,
            "overwritedBlockNumber": -1,
            "priorityFee": "1",
            "receiver": "0xfd14567eaf9ba941cb8c8a94eec14831ca7fd1b4",
            "revertMessage": "",
            "sender": "0x16d5783a96ab20c9157d7933ac236646b29589a4",
            "simulationEnable": true,
            "sourceTxnHash": "0x9c6997d3523ac5eb0d08434ba1c459354438d59a06ef0f62453d07251b4cbe9f",
            "status": true,
            "timestamp": "2023-05-07T21:44:47Z",
            "transactionFee": "0.0082719",
            "txnHash": "0x9c6997d3523ac5eb0d08434ba1c459354438d59a06ef0f62453d07251b4cbe9f",
            "txnIndex": 103,
            "type": 2,
            "value": "0"
        },
        "fund_flow": [],
        "token_infos": [
            {
                "address": "0xc02aaa39b223fe8d0a0e5c4f27ead9083c756cc2",
                "decimals": 18
            },
            {
                "address": "0xeeeeeeeeeeeeeeeeeeeeeeeeeeeeeeeeeeeeeeee",
                "decimals": 18
            }
        ]
    },
    "address_label": {
        "labels": [
            {
                "address": "0xfd14567eaf9ba941cb8c8a94eec14831ca7fd1b4",
                "label": "StarkEx: SHARP"
            },
            {
                "address": "0x0000000000000000000000000000000000000001",
                "label": "Precompiled"
            },
            {
                "address": "0x0000000000000000000000000000000000000002",
                "label": "Precompiled"
            },
            {
                "address": "0x0000000000000000000000000000000000000003",
                "label": "Precompiled"
            },
            {
                "address": "0x0000000000000000000000000000000000000004",
                "label": "Precompiled"
            },
            {
                "address": "0xeeeeeeeeeeeeeeeeeeeeeeeeeeeeeeeeeeeeeeee",
                "label": "Ether"
            },
            {
                "address": "0x16d5783a96ab20c9157d7933ac236646b29589a4",
                "label": "SHARP Blockchain Writer"
            }
        ]
    },
    "trace": {
        "accountLabels": null,
        "dataMap": {
            "-1": {
                "invocation": {
                    "address": "0x16d5783a96ab20c9157d7933ac236646b29589a4",
                    "callData": "",
                    "decodedMethod": null,
                    "errorInfo": "",
                    "fromAddress": "",
                    "gasUsed": 0,
                    "id": -1,
                    "methodDecoded": false,
                    "operation": "",
                    "output": "",
                    "revert": false,
                    "revertMessage": "",
                    "selector": "",
                    "status": false,
                    "value": ""
                },
                "nodeType": 0
            },
            "0": {
                "invocation": {
                    "address": "0xfd14567eaf9ba941cb8c8a94eec14831ca7fd1b4",
                    "callData": "0x000000000000000000000000000000000000000000000000000000000050a21300000000000000000000000000000000000000000000000000000000000000a003f61c45d253ab26b089e94513fe79b40b44b0337739966c7ddb505a10c2b58305a7042beb471cea590961b206bcadfcf552d74d0e07b8495d68d5deeb588ebc0800000000000011000000000000000000000000000000000000000000000001000000000000000000000000000000000000000000000000000000000000000d0214c2e62b8bf054534ad68fff61de9ca80edbf0eda86628c5711e25e97e91560117681d9a592af8dc7de5d6b31061c1a8d1604e30e50845349b07d6c71e0ae6000000000000000000000000000000000000000000000000000000000000c147017c0bc29d31e9a7d14671610a7626264ce9ce8e3ed066a4775adf9b123de9dd0000000000000000000000000000000000000000000000000000000000000007073314940630fd6dcda0d772d4c972c4e0a9946bef9dabf4ef84eda8ef542b82000000000000000000000000ae0ee0a63a2ce6baeeffe56e7714fb4efe48d41900000000000000000000000000000000000000000000000000000000000000040000000000000000000000000000000000000000000000000000000000000000000000000000000000000000c9309b9f41a30817b6ef8d34e8f2f22ab0fb55b600000000000000000000000000000000000000000000000003e2c284391c000000000000000000000000000000000000000000000000000000000000000000000000000000000000000000000000000000000000000000000000000000000000",
                    "decodedMethod": {
                        "callParams": [
                            {
                                "name": "startAddr",
                                "type": "uint256",
                                "value": "5,284,371"
                            },
                            {
                                "name": "values",
                                "type": "uint256[]",
                                "value": [
                                    "941,307,782,627,107,296,924,590,402,073,473,035,926,852,309,853,093,953,987,948,808,415,207,133,526",
                                    "493,668,910,786,463,240,839,923,020,182,670,610,897,496,166,276,362,763,696,957,511,504,370,731,750",
                                    "49,479",
                                    "671,483,050,609,816,861,429,812,414,688,707,376,174,032,882,875,357,307,847,551,691,140,236,175,837",
                                    "7",
                                    "3,256,441,166,037,631,918,262,930,812,410,838,598,500,200,462,657,642,943,867,372,734,773,841,898,370",
                                    "993,696,174,272,377,493,693,496,825,928,908,586,134,624,850,969",
                                    "4",
                                    "0",
                                    "1,148,591,137,301,583,305,801,202,698,867,170,991,627,069,773,238",
                                    "280,000,000,000,000,000",
                                    "0",
                                    "0"
                                ]
                            },
                            {
                                "name": "z",
                                "type": "uint256",
                                "value": "1,791,778,054,969,312,378,603,232,847,664,421,765,297,744,634,329,967,743,432,787,002,671,879,075,203"
                            },
                            {
                                "name": "alpha",
                                "type": "uint256",
                                "value": "2,556,656,493,775,058,687,933,300,237,879,276,147,406,630,577,213,050,917,527,570,590,142,555,524,796"
                            },
                            {
                                "name": "prime",
                                "type": "uint256",
                                "value": "3,618,502,788,666,131,213,697,322,783,095,070,105,623,107,215,331,596,699,973,092,056,135,872,020,481"
                            }
                        ],
                        "constructorArguments": "",
                        "name": "registerContinuousMemoryPage",
                        "returnParams": [
                            {
                                "name": "factHash",
                                "type": "bytes32",
                                "value": "0xa40274cd7e11717579ad65fab50e898d97af9d05f302e324ebfe55923cafd1fd"
                            },
                            {
                                "name": "memoryHash",
                                "type": "uint256",
                                "value": "109,848,868,124,535,289,348,809,896,186,373,165,147,323,738,331,734,549,636,620,074,931,599,926,087,146"
                            },
                            {
                                "name": "prod",
                                "type": "uint256",
                                "value": "3,493,578,667,382,104,538,830,788,430,797,133,347,695,367,612,741,613,311,580,483,022,148,099,064,300"
                            }
                        ],
                        "signature": "registerContinuousMemoryPage(uint256,uint256[],uint256,uint256,uint256)"
                    },
                    "errorInfo": "",
                    "fromAddress": "0x16d5783a96ab20c9157d7933ac236646b29589a4",
                    "gasUsed": 55146,
                    "id": 0,
                    "methodDecoded": true,
                    "operation": "CALL",
                    "output": "0xa40274cd7e11717579ad65fab50e898d97af9d05f302e324ebfe55923cafd1fdf2dc418cef8f1898c6ffc252e617e199d1690feff085afa1192d123354bbcdea07b94ba2cf449c71a4ea437092a3f09633f6aecc95cae9ca01b8e913640741ec",
                    "revert": false,
                    "revertMessage": "",
                    "selector": "0x5578ceae",
                    "status": true,
                    "value": "0"
                },
                "nodeType": 0
            },
            "1": {
                "event": {
                    "contract": "0xfd14567eaf9ba941cb8c8a94eec14831ca7fd1b4",
                    "decodedLog": {
                        "name": "LogMemoryPageFactContinuous",
                        "params": [
                            {
                                "name": "factHash",
                                "type": "bytes32",
                                "value": "0xa40274cd7e11717579ad65fab50e898d97af9d05f302e324ebfe55923cafd1fd"
                            },
                            {
                                "name": "memoryHash",
                                "type": "uint256",
                                "value": "109,848,868,124,535,289,348,809,896,186,373,165,147,323,738,331,734,549,636,620,074,931,599,926,087,146"
                            },
                            {
                                "name": "prod",
                                "type": "uint256",
                                "value": "3,493,578,667,382,104,538,830,788,430,797,133,347,695,367,612,741,613,311,580,483,022,148,099,064,300"
                            }
                        ],
                        "signature": "LogMemoryPageFactContinuous(bytes32,uint256,uint256)"
                    },
                    "id": 1,
                    "logData": "0xa40274cd7e11717579ad65fab50e898d97af9d05f302e324ebfe55923cafd1fdf2dc418cef8f1898c6ffc252e617e199d1690feff085afa1192d123354bbcdea07b94ba2cf449c71a4ea437092a3f09633f6aecc95cae9ca01b8e913640741ec",
                    "logDecoded": true,
                    "operation": "EVENT",
                    "revert": false,
                    "status": true,
                    "topics": [
                        "0xb8b9c39aeba1cfd98c38dfeebe11c2f7e02b334cbe9f05f22b442a5d9c1ea0c5"
                    ]
                },
                "nodeType": 1
            }
        },
        "gasFlame": [
            {
                "children": [
                    {
                        "children": [
                            {
                                "children": [],
                                "depth": 0,
                                "name": "Initial Gas",
                                "value": 26496
                            },
                            {
                                "children": [],
                                "depth": 0,
                                "name": "Executed Gas",
                                "value": 28650
                            }
                        ],
                        "depth": -1,
                        "name": "Actual Gas Used",
                        "value": 55146
                    },
                    {
                        "children": [],
                        "depth": -1,
                        "name": "Refunded Gas",
                        "value": 0
                    }
                ],
                "depth": -2,
                "name": "Total Gas",
                "value": 55146
            }
        ],
        "isConfirmed": true,
        "mainTrace": [
            {
                "children": [
                    {
                        "children": [
                            {
                                "children": [],
                                "depth": 1,
                                "id": 1,
                                "order": 1
                            }
                        ],
                        "depth": 0,
                        "id": 0,
                        "order": 0
                    }
                ],
                "depth": -1,
                "id": -1,
                "order": -1
            }
        ],
        "mainTraceNodeCount": 2,
        "parentIdMap": {
            "0": -1,
            "1": 0
        },
        "tidyTrace": [
            {
                "children": [
                    {
                        "children": [
                            {
                                "children": [],
                                "depth": 1,
                                "id": 1,
                                "order": 1
                            }
                        ],
                        "depth": 0,
                        "id": 0,
                        "order": 0
                    }
                ],
                "depth": -1,
                "id": -1,
                "order": -1
            }
        ],
        "tidyTraceNodeCount": 2
    },
    "state_change": {
        "stateChanges": [
            {
                "address": "0xfd14567eaf9ba941cb8c8a94eec14831ca7fd1b4",
                "erc": "",
                "slots": [
                    {
                        "current": "0x0000000000000000000000000000000000000000000000000000000000000001",
                        "key": "0x72278d7105ee197cdc0e9ac3e3eb50ed5715aef923d86f5ba27a7d6b2199d1c4",
                        "prev": "0x0000000000000000000000000000000000000000000000000000000000000000"
                    }
                ],
                "storageVariables": [
                    {
                        "name": "verifiedFact",
                        "type": "mapping(bytes32 => bool)",
                        "value": {
                            "pairs": [
                                {
                                    "key": "0xa40274cd7e11717579ad65fab50e898d97af9d05f302e324ebfe55923cafd1fd",
                                    "value": {
                                        "current": "true",
                                        "prev": "false",
                                        "typeTag": 1
                                    }
                                }
                            ],
                            "typeTag": 4
                        }
                    }
                ]
            }
        ]
    }
}