{
    "balance_change": {
        "balanceChanges": [
            {
                "account": "0x9327f05318c6aa7c5ce4ca8b21918ec35925fbde",
                "assets": [
                    {
                        "address": "0xa88fc5e2b9aa4e3bb40d67fa553517a1569c8e72",
                        "amount": "2,160",
                        "iconUrl": "",
                        "isERC1155": false,
                        "isERC721": false,
                        "sign": false,
                        "value": ""
                    }
                ]
            },
            {
                "account": "0x9a39966197b4684afcff150726145dc57d0930a2",
                "assets": [
                    {
                        "address": "0xa88fc5e2b9aa4e3bb40d67fa553517a1569c8e72",
                        "amount": "2,160",
                        "iconUrl": "",
                        "isERC1155": false,
                        "isERC721": false,
                        "sign": true,
                        "value": ""
                    }
                ]
            }
        ]
    },
    "profile": {
        "basic_info": {
            "baseFee": "",
            "blockNumber": 8723494,
            "callData": "0xa9059cbb0000000000000000000000009a39966197b4684afcff150726145dc57d0930a200000000000000000000000000000000000000000000007518058bd45bc00000",
            "debugEnable": true,
            "errorInfo": "",
            "eventCount": 1,
            "feeRecipient": "0x99c85bb64564d9ef9a99621301f22c9993cb89e3",
            "formatValue": "0",
            "gasLimit": 120000,
            "gasPrice": "27",
            "gasUsed": 54700,
            "intTxnCount": 0,
            "internalRevert": false,
            "internalRevertMessage": "",
            "isContractCreation": false,
            "isFlashloan": false,
            "maxFee": "",
            "nonce": 5560,
            "overwritedBlockNumber": -1,
            "priorityFee": "",
            "receiver": "0xa88fc5e2b9aa4e3bb40d67fa553517a1569c8e72",
            "revertMessage": "",
            "sender": "0x9327f05318c6aa7c5ce4ca8b21918ec35925fbde",
            "simulationEnable": true,
            "sourceTxnHash": "0x9c7ae5d72125c7ffb8518101e505776d9d29c5c54285adc70f59ef7ab711b7eb",
            "status": true,
            "timestamp": "2019-10-12T00:10:02Z",
            "transactionFee": "0.0014769",
            "txnHash": "0x9c7ae5d72125c7ffb8518101e505776d9d29c5c54285adc70f59ef7ab711b7eb",
            "txnIndex": 4,
            "type": 0,
            "value": "0"
        },
        "fund_flow": [
            {
                "amount": "2,160",
                "from": "0x9327f05318c6aa7c5ce4ca8b21918ec35925fbde",
                "id": 1,
                "isERC1155": false,
                "isERC721": false,
                "isReverted": false,
                "order": 1,
                "to": "0x9a39966197b4684afcff150726145dc57d0930a2",
                "token": "0xa88fc5e2b9aa4e3bb40d67fa553517a1569c8e72"
            }
        ],
        "token_infos": [
            {
                "address": "0xa88fc5e2b9aa4e3bb40d67fa553517a1569c8e72",
                "decimals": 18
            },
            {
                "address": "0xc02aaa39b223fe8d0a0e5c4f27ead9083c756cc2",
                "decimals": 18
            },
            {
                "address": "0xeeeeeeeeeeeeeeeeeeeeeeeeeeeeeeeeeeeeeeee",
                "decimals": 18
            }
        ]
    },
    "address_label": {
        "labels": [
            {
                "address": "0xa88fc5e2b9aa4e3bb40d67fa553517a1569c8e72",
                "label": "GMPC"
            },
            {
                "address": "0x0000000000000000000000000000000000000001",
                "label": "Precompiled"
            },
            {
                "address": "0x0000000000000000000000000000000000000002",
                "label": "Precompiled"
            },
            {
                "address": "0x0000000000000000000000000000000000000003",
                "label": "Precompiled"
            },
            {
                "address": "0x0000000000000000000000000000000000000004",
                "label": "Precompiled"
            },
            {
                "address": "0xeeeeeeeeeeeeeeeeeeeeeeeeeeeeeeeeeeeeeeee",
                "label": "Ether"
            }
        ]
    },
    "trace": {
        "accountLabels": null,
        "dataMap": {
            "-1": {
                "invocation": {
                    "address": "0x9327f05318c6aa7c5ce4ca8b21918ec35925fbde",
                    "callData": "",
                    "decodedMethod": null,
                    "errorInfo": "",
                    "fromAddress": "",
                    "gasUsed": 0,
                    "id": -1,
                    "methodDecoded": false,
                    "operation": "",
                    "output": "",
                    "revert": false,
                    "revertMessage": "",
                    "selector": "",
                    "status": false,
                    "value": ""
                },
                "nodeType": 0
            },
            "0": {
                "invocation": {
                    "address": "0xa88fc5e2b9aa4e3bb40d67fa553517a1569c8e72",
                    "callData": "0x0000000000000000000000009a39966197b4684afcff150726145dc57d0930a200000000000000000000000000000000000000000000007518058bd45bc00000",
                    "decodedMethod": {
                        "callParams": [
                            {
                                "name": "_to",
                                "type": "address",
                                "value": "0x9a39966197b4684afcff150726145dc57d0930a2"
                            },
                            {
                                "decimalAvailable": true,
                                "name": "_value",
                                "type": "uint256",
                                "value": "2,160,000,000,000,000,000,000"
                            }
                        ],
                        "constructorArguments": "",
                        "name": "transfer",
                        "returnParams": [
                            {
                                "name": "success",
                                "type": "bool",
                                "value": true
                            }
                        ],
                        "signature": "transfer(address,uint256)"
                    },
                    "errorInfo": "",
                    "fromAddress": "0x9327f05318c6aa7c5ce4ca8b21918ec35925fbde",
                    "gasUsed": 54700,
                    "id": 0,
                    "methodDecoded": true,
                    "operation": "CALL",
                    "output": "0x0000000000000000000000000000000000000000000000000000000000000001",
                    "revert": false,
                    "revertMessage": "",
                    "selector": "0xa9059cbb",
                    "status": true,
                    "value": "0"
                },
                "nodeType": 0
            },
            "1": {
                "event": {
                    "contract": "0xa88fc5e2b9aa4e3bb40d67fa553517a1569c8e72",
                    "decodedLog": {
                        "name": "Transfer",
                        "params": [
                            {
                                "name": "from",
                                "type": "address",
                                "value": "0x9327f05318c6aa7c5ce4ca8b21918ec35925fbde"
                            },
                            {
                                "name": "to",
                                "type": "address",
                                "value": "0x9a39966197b4684afcff150726145dc57d0930a2"
                            },
                            {
                                "decimalAvailable": true,
                                "name": "value",
                                "type": "uint256",
                                "value": "2,160,000,000,000,000,000,000"
                            }
                        ],
                        "signature": "Transfer(address,address,uint256)"
                    },
                    "id": 1,
                    "logData": "0x00000000000000000000000000000000000000000000007518058bd45bc00000",
                    "logDecoded": true,
                    "operation": "EVENT",
                    "revert": false,
                    "status": true,
                    "topics": [
                        "0xddf252ad1be2c89b69c2b068fc378daa952ba7f163c4a11628f55a4df523b3ef",
                        "0x0000000000000000000000009327f05318c6aa7c5ce4ca8b21918ec35925fbde",
                        "0x0000000000000000000000009a39966197b4684afcff150726145dc57d0930a2"
                    ]
                },
                "nodeType": 1
            }
        },
        "gasFlame": [
            {
                "children": [
                    {
                        "children": [
                            {
                                "children": [],
                                "depth": 0,
                                "name": "Initial Gas",
                                "value": 23256
                            },
                            {
                                "children": [],
                                "depth": 0,
                                "name": "Executed Gas",
                                "value": 31444
                            }
                        ],
                        "depth": -1,
                        "name": "Actual Gas Used",
                        "value": 54700
                    },
                    {
                        "children": [],
                        "depth": -1,
                        "name": "Refunded Gas",
                        "value": 0
                    }
                ],
                "depth": -2,
                "name": "Total Gas",
                "value": 54700
            }
        ],
        "isConfirmed": true,
        "mainTrace": [
            {
                "children": [
                    {
                        "children": [
                            {
                                "children": [],
                                "depth": 1,
                                "id": 1,
                                "order": 1
                            }
                        ],
                        "depth": 0,
                        "id": 0,
                        "order": 0
                    }
                ],
                "depth": -1,
                "id": -1,
                "order": -1
            }
        ],
        "mainTraceNodeCount": 2,
        "parentIdMap": {
            "0": -1,
            "1": 0
        },
        "tidyTrace": [
            {
                "children": [
                    {
                        "children": [
                            {
                                "children": [],
                                "depth": 1,
                                "id": 1,
                                "order": 1
                            }
                        ],
                        "depth": 0,
                        "id": 0,
                        "order": 0
                    }
                ],
                "depth": -1,
                "id": -1,
                "order": -1
            }
        ],
        "tidyTraceNodeCount": 2
    },
    "state_change": {
        "stateChanges": [
            {
                "address": "0xa88fc5e2b9aa4e3bb40d67fa553517a1569c8e72",
                "erc": "",
                "slots": [
                    {
                        "current": "0x00000000000000000000000000000000000000000005db8618ae6756a8340000",
                        "key": "0x621847543224485926fda278c182b3d01b45210b9c392ab0367e1cd116fc0a6f",
                        "prev": "0x00000000000000000000000000000000000000000005dbfb30b3f32b03f40000"
                    },
                    {
                        "current": "0x00000000000000000000000000000000000000000000007518058bd45bc00000",
                        "key": "0x19eadcd1664abdd1e55e78526559df752e53454976205ab8f00bb5016bdf29ab",
                        "prev": "0x0000000000000000000000000000000000000000000000000000000000000000"
                    }
                ],
                "storageVariables": [
                    {
                        "name": "balanceOf",
                        "type": "mapping(address => uint256)",
                        "value": {
                            "pairs": [
                                {
                                    "key": "0x9327f05318c6aa7c5ce4ca8b21918ec35925fbde",
                                    "value": {
                                        "current": "7081301000000000000000000",
                                        "prev": "7083461000000000000000000",
                                        "typeTag": 1
                                    }
                                },
                                {
                                    "key": "0x9a39966197b4684afcff150726145dc57d0930a2",
                                    "value": {
                                        "current": "2160000000000000000000",
                                        "prev": "0",
                                        "typeTag": 1
                                    }
                                }
                            ],
                            "typeTag": 4
                        }
                    }
                ]
            }
        ]
    }
}