{
    "balance_change": {
        "balanceChanges": [
            {
                "account": "0x7bbbede95eccbfe975c3e23fc04635dfebb11351",
                "assets": [
                    {
                        "address": "0x91ba8a14d2cc851abb69212c09f59e06e1e7f0a5",
                        "amount": "1",
                        "iconUrl": "",
                        "isERC1155": false,
                        "isERC721": true,
                        "sign": true,
                        "tokenID": "279",
                        "value": ""
                    }
                ]
            },
            {
                "account": "0x9c4c49c3c3bd7ab49d91576d0103a25514cad1d6",
                "assets": [
                    {
                        "address": "0x7ef911f8ef130f73d166468c0068753932357b17",
                        "amount": "10",
                        "iconUrl": "",
                        "isERC1155": false,
                        "isERC721": false,
                        "sign": false,
                        "value": ""
                    }
                ]
            },
            {
                "account": "0x0000000000000000000000000000000000000000",
                "assets": [
                    {
                        "address": "0x91ba8a14d2cc851abb69212c09f59e06e1e7f0a5",
                        "amount": "1",
                        "iconUrl": "",
                        "isERC1155": false,
                        "isERC721": true,
                        "sign": false,
                        "tokenID": "279",
                        "value": ""
                    }
                ]
            },
            {
                "account": "0x91ba8a14d2cc851abb69212c09f59e06e1e7f0a5",
                "assets": [
                    {
                        "address": "0x7ef911f8ef130f73d166468c0068753932357b17",
                        "amount": "10",
                        "iconUrl": "",
                        "isERC1155": false,
                        "isERC721": false,
                        "sign": true,
                        "value": ""
                    }
                ]
            }
        ]
    },
    "profile": {
        "basic_info": {
            "baseFee": "21.903085927",
            "blockNumber": 16994528,
            "callData": "0x9b6528e2000000000000000000000000d500efdef75e89bf6caf5c98f7633575d0049a72",
            "debugEnable": true,
            "errorInfo": "",
            "eventCount": 4,
            "feeRecipient": "0xef5a4f602a88ec442a270d97786a5faa0b72dc3b",
            "formatValue": "0",
            "gasLimit": 259993,
            "gasPrice": "22.003085927",
            "gasUsed": 259993,
            "intTxnCount": 4,
            "internalRevert": false,
            "internalRevertMessage": "",
            "isContractCreation": false,
            "isFlashloan": false,
            "maxFee": "30.949227406",
            "nonce": 0,
            "overwritedBlockNumber": -1,
            "priorityFee": "0.1",
            "receiver": "0x9c4c49c3c3bd7ab49d91576d0103a25514cad1d6",
            "revertMessage": "",
            "sender": "0x7bbbede95eccbfe975c3e23fc04635dfebb11351",
            "simulationEnable": true,
            "sourceTxnHash": "0x9c83b3bd9fe5bb89533e3abdaca30dd3fe9bfc9e779c1d2a53c10cb32c73ce0b",
            "status": true,
            "timestamp": "2023-04-07T05:21:35Z",
            "transactionFee": "0.005720648319418511",
            "txnHash": "0x9c83b3bd9fe5bb89533e3abdaca30dd3fe9bfc9e779c1d2a53c10cb32c73ce0b",
            "txnIndex": 62,
            "type": 2,
            "value": "0"
        },
        "fund_flow": [
            {
                "amount": "1",
                "from": "0x0000000000000000000000000000000000000000",
                "id": 1,
                "isERC1155": false,
                "isERC721": true,
                "isReverted": false,
                "order": 1,
                "to": "0x7bbbede95eccbfe975c3e23fc04635dfebb11351",
                "token": "0x91ba8a14d2cc851abb69212c09f59e06e1e7f0a5",
                "tokenID": "279"
            },
            {
                "amount": "10",
                "from": "0x9c4c49c3c3bd7ab49d91576d0103a25514cad1d6",
                "id": 2,
                "isERC1155": false,
                "isERC721": false,
                "isReverted": false,
                "order": 2,
                "to": "0x91ba8a14d2cc851abb69212c09f59e06e1e7f0a5",
                "token": "0x7ef911f8ef130f73d166468c0068753932357b17"
            }
        ],
        "token_infos": [
            {
                "address": "0x7ef911f8ef130f73d166468c0068753932357b17",
                "decimals": 18
            },
            {
                "address": "0xc02aaa39b223fe8d0a0e5c4f27ead9083c756cc2",
                "decimals": 18
            },
            {
                "address": "0xeeeeeeeeeeeeeeeeeeeeeeeeeeeeeeeeeeeeeeee",
                "decimals": 18
            }
        ]
    },
    "address_label": {
        "labels": [
            {
                "address": "0xeeeeeeeeeeeeeeeeeeeeeeeeeeeeeeeeeeeeeeee",
                "label": "Ether"
            },
            {
                "address": "0x91ba8a14d2cc851abb69212c09f59e06e1e7f0a5",
                "label": "John McAfee Legacy (JML)"
            },
            {
                "address": "0x9c4c49c3c3bd7ab49d91576d0103a25514cad1d6",
                "label": "GhostFaucet"
            },
            {
                "address": "0x7ef911f8ef130f73d166468c0068753932357b17",
                "label": "Ghost McAfee Vision (GMV)"
            },
            {
                "address": "0x0000000000000000000000000000000000000001",
                "label": "Precompiled"
            },
            {
                "address": "0x0000000000000000000000000000000000000002",
                "label": "Precompiled"
            },
            {
                "address": "0x0000000000000000000000000000000000000003",
                "label": "Precompiled"
            },
            {
                "address": "0x0000000000000000000000000000000000000004",
                "label": "Precompiled"
            }
        ]
    },
    "trace": {
        "accountLabels": null,
        "dataMap": {
            "-1": {
                "invocation": {
                    "address": "0x7bbbede95eccbfe975c3e23fc04635dfebb11351",
                    "callData": "",
                    "decodedMethod": null,
                    "errorInfo": "",
                    "fromAddress": "",
                    "gasUsed": 0,
                    "id": -1,
                    "methodDecoded": false,
                    "operation": "",
                    "output": "",
                    "revert": false,
                    "revertMessage": "",
                    "selector": "",
                    "status": false,
                    "value": ""
                },
                "nodeType": 0
            },
            "0": {
                "invocation": {
                    "address": "0x9c4c49c3c3bd7ab49d91576d0103a25514cad1d6",
                    "callData": "0x000000000000000000000000d500efdef75e89bf6caf5c98f7633575d0049a72",
                    "decodedMethod": {
                        "callParams": [
                            {
                                "name": "friend",
                                "type": "address",
                                "value": "0xd500efdef75e89bf6caf5c98f7633575d0049a72"
                            }
                        ],
                        "constructorArguments": "",
                        "name": "sendMeGhostNft",
                        "returnParams": [],
                        "signature": "sendMeGhostNft(address)"
                    },
                    "errorInfo": "",
                    "fromAddress": "0x7bbbede95eccbfe975c3e23fc04635dfebb11351",
                    "gasUsed": 259993,
                    "id": 0,
                    "methodDecoded": true,
                    "operation": "CALL",
                    "output": "",
                    "revert": false,
                    "revertMessage": "",
                    "selector": "0x9b6528e2",
                    "status": true,
                    "value": "0"
                },
                "nodeType": 0
            },
            "1": {
                "invocation": {
                    "address": "0x91ba8a14d2cc851abb69212c09f59e06e1e7f0a5",
                    "callData": "0x000000000000000000000000d500efdef75e89bf6caf5c98f7633575d0049a720000000000000000000000000000000000000000000000000000000000000000",
                    "decodedMethod": {
                        "callParams": [
                            {
                                "name": "owner",
                                "type": "address",
                                "value": "0xd500efdef75e89bf6caf5c98f7633575d0049a72"
                            },
                            {
                                "name": "index",
                                "type": "uint256",
                                "value": "0"
                            }
                        ],
                        "constructorArguments": "",
                        "name": "tokenOfOwnerByIndex",
                        "returnParams": [
                            {
                                "name": "",
                                "type": "uint256",
                                "value": "15"
                            }
                        ],
                        "signature": "tokenOfOwnerByIndex(address,uint256)"
                    },
                    "errorInfo": "",
                    "fromAddress": "0x9c4c49c3c3bd7ab49d91576d0103a25514cad1d6",
                    "gasUsed": 5020,
                    "id": 1,
                    "methodDecoded": true,
                    "operation": "STATICCALL",
                    "output": "0x000000000000000000000000000000000000000000000000000000000000000f",
                    "revert": false,
                    "revertMessage": "",
                    "selector": "0x2f745c59",
                    "status": true,
                    "value": "0"
                },
                "nodeType": 0
            },
            "2": {
                "invocation": {
                    "address": "0x91ba8a14d2cc851abb69212c09f59e06e1e7f0a5",
                    "callData": "0x0000000000000000000000007bbbede95eccbfe975c3e23fc04635dfebb11351",
                    "decodedMethod": {
                        "callParams": [
                            {
                                "name": "to",
                                "type": "address",
                                "value": "0x7bbbede95eccbfe975c3e23fc04635dfebb11351"
                            }
                        ],
                        "constructorArguments": "",
                        "name": "mint",
                        "returnParams": [],
                        "signature": "mint(address)"
                    },
                    "errorInfo": "",
                    "fromAddress": "0x9c4c49c3c3bd7ab49d91576d0103a25514cad1d6",
                    "gasUsed": 129308,
                    "id": 2,
                    "methodDecoded": true,
                    "operation": "CALL",
                    "output": "",
                    "revert": false,
                    "revertMessage": "",
                    "selector": "0x6a627842",
                    "status": true,
                    "value": "0"
                },
                "nodeType": 0
            },
            "3": {
                "event": {
                    "contract": "0x91ba8a14d2cc851abb69212c09f59e06e1e7f0a5",
                    "decodedLog": {
                        "name": "Transfer",
                        "params": [
                            {
                                "name": "from",
                                "type": "address",
                                "value": "0x0000000000000000000000000000000000000000"
                            },
                            {
                                "name": "to",
                                "type": "address",
                                "value": "0x7bbbede95eccbfe975c3e23fc04635dfebb11351"
                            },
                            {
                                "decimalAvailable": true,
                                "name": "tokenId",
                                "type": "uint256",
                                "value": "279"
                            }
                        ],
                        "signature": "Transfer(address,address,uint256)"
                    },
                    "id": 3,
                    "logData": "0x",
                    "logDecoded": true,
                    "operation": "EVENT",
                    "revert": false,
                    "status": true,
                    "topics": [
                        "0xddf252ad1be2c89b69c2b068fc378daa952ba7f163c4a11628f55a4df523b3ef",
                        "0x0000000000000000000000000000000000000000000000000000000000000000",
                        "0x0000000000000000000000007bbbede95eccbfe975c3e23fc04635dfebb11351",
                        "0x0000000000000000000000000000000000000000000000000000000000000117"
                    ]
                },
                "nodeType": 1
            },
            "4": {
                "invocation": {
                    "address": "0x91ba8a14d2cc851abb69212c09f59e06e1e7f0a5",
                    "callData": "0x000000000000000000000000000000000000000000000000000000000000000f000000000000000000000000000000000000000000000000000000000000006000000000000000000000000000000000000000000000000000000000000000a000000000000000000000000000000000000000000000000000000000000000010000000000000000000000000000000000000000000000008ac7230489e8000000000000000000000000000000000000000000000000000000000000000000010000000000000000000000007ef911f8ef130f73d166468c0068753932357b17",
                    "decodedMethod": {
                        "callParams": [
                            {
                                "name": "tokenId",
                                "type": "uint256",
                                "value": "15"
                            },
                            {
                                "name": "amounts",
                                "type": "uint256[]",
                                "value": [
                                    "10,000,000,000,000,000,000"
                                ]
                            },
                            {
                                "name": "tokenAddresses",
                                "type": "address[]",
                                "value": [
                                    "0x7ef911f8ef130f73d166468c0068753932357b17"
                                ]
                            }
                        ],
                        "constructorArguments": "",
                        "name": "collateralize",
                        "returnParams": [],
                        "signature": "collateralize(uint256,uint256[],address[])"
                    },
                    "errorInfo": "",
                    "fromAddress": "0x9c4c49c3c3bd7ab49d91576d0103a25514cad1d6",
                    "gasUsed": 49738,
                    "id": 4,
                    "methodDecoded": true,
                    "operation": "CALL",
                    "output": "",
                    "revert": false,
                    "revertMessage": "",
                    "selector": "0xf4532e5c",
                    "status": true,
                    "value": "0"
                },
                "nodeType": 0
            },
            "5": {
                "invocation": {
                    "address": "0x7ef911f8ef130f73d166468c0068753932357b17",
                    "callData": "0x0000000000000000000000009c4c49c3c3bd7ab49d91576d0103a25514cad1d600000000000000000000000091ba8a14d2cc851abb69212c09f59e06e1e7f0a50000000000000000000000000000000000000000000000008ac7230489e80000",
                    "decodedMethod": {
                        "callParams": [
                            {
                                "name": "from",
                                "type": "address",
                                "value": "0x9c4c49c3c3bd7ab49d91576d0103a25514cad1d6"
                            },
                            {
                                "name": "to",
                                "type": "address",
                                "value": "0x91ba8a14d2cc851abb69212c09f59e06e1e7f0a5"
                            },
                            {
                                "decimalAvailable": true,
                                "name": "amount",
                                "type": "uint256",
                                "value": "10,000,000,000,000,000,000"
                            }
                        ],
                        "constructorArguments": "",
                        "name": "transferFrom",
                        "returnParams": [
                            {
                                "name": "",
                                "type": "bool",
                                "value": true
                            }
                        ],
                        "signature": "transferFrom(address,address,uint256)"
                    },
                    "errorInfo": "",
                    "fromAddress": "0x91ba8a14d2cc851abb69212c09f59e06e1e7f0a5",
                    "gasUsed": 15107,
                    "id": 5,
                    "methodDecoded": true,
                    "operation": "CALL",
                    "output": "0x0000000000000000000000000000000000000000000000000000000000000001",
                    "revert": false,
                    "revertMessage": "",
                    "selector": "0x23b872dd",
                    "status": true,
                    "value": "0"
                },
                "nodeType": 0
            },
            "6": {
                "event": {
                    "contract": "0x7ef911f8ef130f73d166468c0068753932357b17",
                    "decodedLog": {
                        "name": "Transfer",
                        "params": [
                            {
                                "name": "from",
                                "type": "address",
                                "value": "0x9c4c49c3c3bd7ab49d91576d0103a25514cad1d6"
                            },
                            {
                                "name": "to",
                                "type": "address",
                                "value": "0x91ba8a14d2cc851abb69212c09f59e06e1e7f0a5"
                            },
                            {
                                "decimalAvailable": true,
                                "name": "value",
                                "type": "uint256",
                                "value": "10,000,000,000,000,000,000"
                            }
                        ],
                        "signature": "Transfer(address,address,uint256)"
                    },
                    "id": 6,
                    "logData": "0x0000000000000000000000000000000000000000000000008ac7230489e80000",
                    "logDecoded": true,
                    "operation": "EVENT",
                    "revert": false,
                    "status": true,
                    "topics": [
                        "0xddf252ad1be2c89b69c2b068fc378daa952ba7f163c4a11628f55a4df523b3ef",
                        "0x0000000000000000000000009c4c49c3c3bd7ab49d91576d0103a25514cad1d6",
                        "0x00000000000000000000000091ba8a14d2cc851abb69212c09f59e06e1e7f0a5"
                    ]
                },
                "nodeType": 1
            },
            "7": {
                "event": {
                    "contract": "0x91ba8a14d2cc851abb69212c09f59e06e1e7f0a5",
                    "decodedLog": {
                        "name": "Collateralized",
                        "params": [
                            {
                                "name": "tokenId",
                                "type": "uint256",
                                "value": "15"
                            },
                            {
                                "name": "amount",
                                "type": "uint256",
                                "value": "10,000,000,000,000,000,000"
                            },
                            {
                                "name": "tokenAddress",
                                "type": "address",
                                "value": "0x7ef911f8ef130f73d166468c0068753932357b17"
                            }
                        ],
                        "signature": "Collateralized(uint256,uint256,address)"
                    },
                    "id": 7,
                    "logData": "0x0000000000000000000000000000000000000000000000008ac7230489e800000000000000000000000000007ef911f8ef130f73d166468c0068753932357b17",
                    "logDecoded": true,
                    "operation": "EVENT",
                    "revert": false,
                    "status": true,
                    "topics": [
                        "0x1cedfb451d4da3a63f72a945ba92f51b8fd558a5be4652404d037bb1578ff582",
                        "0x000000000000000000000000000000000000000000000000000000000000000f"
                    ]
                },
                "nodeType": 1
            },
            "8": {
                "event": {
                    "contract": "0x9c4c49c3c3bd7ab49d91576d0103a25514cad1d6",
                    "decodedLog": {
                        "name": "AssetAirdropped",
                        "params": [
                            {
                                "name": "sender",
                                "type": "address",
                                "value": "0x7bbbede95eccbfe975c3e23fc04635dfebb11351"
                            },
                            {
                                "name": "friend",
                                "type": "address",
                                "value": "0xd500efdef75e89bf6caf5c98f7633575d0049a72"
                            },
                            {
                                "name": "amount",
                                "type": "uint256",
                                "value": "10,000,000,000,000,000,000"
                            },
                            {
                                "name": "timestamp",
                                "type": "uint256",
                                "value": "1,680,844,895"
                            }
                        ],
                        "signature": "AssetAirdropped(address,address,uint256,uint256)"
                    },
                    "id": 8,
                    "logData": "0x0000000000000000000000000000000000000000000000008ac7230489e8000000000000000000000000000000000000000000000000000000000000642fa85f",
                    "logDecoded": true,
                    "operation": "EVENT",
                    "revert": false,
                    "status": true,
                    "topics": [
                        "0x4c2a880a361ba80054f5389522ee436c4d4559ac0ecd8dcced59fb6fdc7b3f8b",
                        "0x0000000000000000000000007bbbede95eccbfe975c3e23fc04635dfebb11351",
                        "0x000000000000000000000000d500efdef75e89bf6caf5c98f7633575d0049a72"
                    ]
                },
                "nodeType": 1
            }
        },
        "gasFlame": [
            {
                "children": [
                    {
                        "children": [
                            {
                                "children": [],
                                "depth": 0,
                                "name": "Initial Gas",
                                "value": 21420
                            },
                            {
                                "children": [
                                    {
                                        "children": [],
                                        "depth": 1,
                                        "name": "tokenOfOwnerByIndex",
                                        "value": 5020
                                    },
                                    {
                                        "children": [],
                                        "depth": 1,
                                        "name": "mint",
                                        "value": 129308
                                    },
                                    {
                                        "children": [
                                            {
                                                "children": [],
                                                "depth": 2,
                                                "name": "transferFrom",
                                                "value": 15107
                                            }
                                        ],
                                        "depth": 1,
                                        "name": "collateralize",
                                        "value": 49738
                                    }
                                ],
                                "depth": 0,
                                "name": "Executed Gas",
                                "value": 238573
                            }
                        ],
                        "depth": -1,
                        "name": "Actual Gas Used",
                        "value": 259993
                    },
                    {
                        "children": [],
                        "depth": -1,
                        "name": "Refunded Gas",
                        "value": 0
                    }
                ],
                "depth": -2,
                "name": "Total Gas",
                "value": 259993
            }
        ],
        "isConfirmed": true,
        "mainTrace": [
            {
                "children": [
                    {
                        "children": [
                            {
                                "children": [],
                                "depth": 1,
                                "id": 1,
                                "order": 1
                            },
                            {
                                "children": [
                                    {
                                        "children": [],
                                        "depth": 2,
                                        "id": 3,
                                        "order": 3
                                    }
                                ],
                                "depth": 1,
                                "id": 2,
                                "order": 2
                            },
                            {
                                "children": [
                                    {
                                        "children": [
                                            {
                                                "children": [],
                                                "depth": 3,
                                                "id": 6,
                                                "order": 6
                                            }
                                        ],
                                        "depth": 2,
                                        "id": 5,
                                        "order": 5
                                    },
                                    {
                                        "children": [],
                                        "depth": 2,
                                        "id": 7,
                                        "order": 7
                                    }
                                ],
                                "depth": 1,
                                "id": 4,
                                "order": 4
                            },
                            {
                                "children": [],
                                "depth": 1,
                                "id": 8,
                                "order": 8
                            }
                        ],
                        "depth": 0,
                        "id": 0,
                        "order": 0
                    }
                ],
                "depth": -1,
                "id": -1,
                "order": -1
            }
        ],
        "mainTraceNodeCount": 9,
        "parentIdMap": {
            "0": -1,
            "1": 0,
            "2": 0,
            "3": 2,
            "4": 0,
            "5": 4,
            "6": 5,
            "7": 4,
            "8": 0
        },
        "tidyTrace": [
            {
                "children": [
                    {
                        "children": [
                            {
                                "children": [
                                    {
                                        "children": [],
                                        "depth": 2,
                                        "id": 3,
                                        "order": 3
                                    }
                                ],
                                "depth": 1,
                                "id": 2,
                                "order": 2
                            },
                            {
                                "children": [
                                    {
                                        "children": [
                                            {
                                                "children": [],
                                                "depth": 3,
                                                "id": 6,
                                                "order": 6
                                            }
                                        ],
                                        "depth": 2,
                                        "id": 5,
                                        "order": 5
                                    },
                                    {
                                        "children": [],
                                        "depth": 2,
                                        "id": 7,
                                        "order": 7
                                    }
                                ],
                                "depth": 1,
                                "id": 4,
                                "order": 4
                            },
                            {
                                "children": [],
                                "depth": 1,
                                "id": 8,
                                "order": 8
                            }
                        ],
                        "depth": 0,
                        "id": 0,
                        "order": 0
                    }
                ],
                "depth": -1,
                "id": -1,
                "order": -1
            }
        ],
        "tidyTraceNodeCount": 8
    },
    "state_change": {
        "stateChanges": [
            {
                "address": "0x7ef911f8ef130f73d166468c0068753932357b17",
                "erc": "ERC-20",
                "slots": [
                    {
                        "current": "0x0000000000000000000000000000000000000000000000a58ec39336eaf80000",
                        "key": "0xd4a5b9362961dcc751108737b9ce9773c6061986aaee6fdbba5ecb4ea4bf5d11",
                        "prev": "0x0000000000000000000000000000000000000000000000a6198ab63b74e00000"
                    },
                    {
                        "current": "0x00000000000000000000000000000000000000000006004feff0c04bf2660000",
                        "key": "0x5d4f564f021d461f1c3251f3f19e4b51797cc79104a026f1ca6810dfc4d76935",
                        "prev": "0x00000000000000000000000000000000000000000006004f65299d47687e0000"
                    }
                ],
                "storageVariables": [
                    {
                        "name": "_balances",
                        "type": "mapping(address => uint256)",
                        "value": {
                            "pairs": [
                                {
                                    "key": "0x91ba8a14d2cc851abb69212c09f59e06e1e7f0a5",
                                    "value": {
                                        "current": "7255029500000000000000000",
                                        "prev": "7255019500000000000000000",
                                        "typeTag": 1
                                    }
                                },
                                {
                                    "key": "0x9c4c49c3c3bd7ab49d91576d0103a25514cad1d6",
                                    "value": {
                                        "current": "3054000000000000000000",
                                        "prev": "3064000000000000000000",
                                        "typeTag": 1
                                    }
                                }
                            ],
                            "typeTag": 4
                        }
                    }
                ]
            },
            {
                "address": "0x91ba8a14d2cc851abb69212c09f59e06e1e7f0a5",
                "erc": "ERC-721",
                "slots": [
                    {
                        "current": "0x0000000000000000000000000000000000000000000000000000000000000117",
                        "key": "0xf3f7a9fe364faab93b216da50a3214154f22a0a2b415b23a84c8169e8b636ff9",
                        "prev": "0x0000000000000000000000000000000000000000000000000000000000000000"
                    },
                    {
                        "current": "0x0000000000000000000000000000000000000000000000000000000000000117",
                        "key": "0xf4dd1ed267dfd700109da3ae728bf07caa0c9ba05f657e18c222b675c5536d07",
                        "prev": "0x0000000000000000000000000000000000000000000000000000000000000000"
                    },
                    {
                        "current": "0x0000000000000000000000000000000000000000000000000000000000000001",
                        "key": "0xef13ea97d861bb95fa0047854c39c81651929b638b52aa48e277fa88f59301d5",
                        "prev": "0x0000000000000000000000000000000000000000000000000000000000000000"
                    },
                    {
                        "current": "0x0000000000000000000000007bbbede95eccbfe975c3e23fc04635dfebb11351",
                        "key": "0xbba447b14b3e2fac71495b564846ce7012d652f9478eaaf5be48418fce8ddc34",
                        "prev": "0x0000000000000000000000000000000000000000000000000000000000000000"
                    },
                    {
                        "current": "0x0000000000000000000000000000000000000000000000000000000000000117",
                        "key": "0x000000000000000000000000000000000000000000000000000000000000001b",
                        "prev": "0x0000000000000000000000000000000000000000000000000000000000000116"
                    },
                    {
                        "current": "0x0000000000000000000000000000000000000000000000000000000000000116",
                        "key": "0xfc9b09417073ef8f7e23ad553a3d06c8654e9c7d074afdcf5e10d54ba554aff1",
                        "prev": "0x0000000000000000000000000000000000000000000000000000000000000000"
                    },
                    {
                        "current": "0x00000000000000000000000000000000000000000000005c0c7bd39c45480000",
                        "key": "0x2121d86a63045a74218fff3323ab2dfbc7ac043f6102b872c7ad1bdf4d155e20",
                        "prev": "0x00000000000000000000000000000000000000000000005b81b4b097bb600000"
                    },
                    {
                        "current": "0x0000000000000000000000000000000000000000000000000000000000000117",
                        "key": "0x0000000000000000000000000000000000000000000000000000000000000008",
                        "prev": "0x0000000000000000000000000000000000000000000000000000000000000116"
                    }
                ],
                "storageVariables": [
                    {
                        "name": "_allTokensIndex",
                        "type": "mapping(uint256 => uint256)",
                        "value": {
                            "pairs": [
                                {
                                    "key": "279",
                                    "value": {
                                        "current": "278",
                                        "prev": "0",
                                        "typeTag": 1
                                    }
                                }
                            ],
                            "typeTag": 4
                        }
                    },
                    {
                        "name": "collateralBalances",
                        "type": "mapping(uint256 => mapping(address => uint256))",
                        "value": {
                            "pairs": [
                                {
                                    "key": "15",
                                    "value": {
                                        "pairs": [
                                            {
                                                "key": "0x7ef911f8ef130f73d166468c0068753932357b17",
                                                "value": {
                                                    "current": "1698000000000000000000",
                                                    "prev": "1688000000000000000000",
                                                    "typeTag": 1
                                                }
                                            }
                                        ],
                                        "typeTag": 4
                                    }
                                }
                            ],
                            "typeTag": 4
                        }
                    },
                    {
                        "name": "_allTokens",
                        "type": "uint256[]",
                        "value": {
                            "elemType": "uint256",
                            "elems": [
                                {
                                    "index": 278,
                                    "value": {
                                        "current": "279",
                                        "prev": "0",
                                        "typeTag": 1
                                    }
                                }
                            ],
                            "typeTag": 2
                        }
                    },
                    {
                        "name": "_ownedTokens",
                        "type": "mapping(address => mapping(uint256 => uint256))",
                        "value": {
                            "pairs": [
                                {
                                    "key": "0x7bbbede95eccbfe975c3e23fc04635dfebb11351",
                                    "value": {
                                        "pairs": [
                                            {
                                                "key": "0",
                                                "value": {
                                                    "current": "279",
                                                    "prev": "0",
                                                    "typeTag": 1
                                                }
                                            }
                                        ],
                                        "typeTag": 4
                                    }
                                }
                            ],
                            "typeTag": 4
                        }
                    },
                    {
                        "name": "_balances",
                        "type": "mapping(address => uint256)",
                        "value": {
                            "pairs": [
                                {
                                    "key": "0x7bbbede95eccbfe975c3e23fc04635dfebb11351",
                                    "value": {
                                        "current": "1",
                                        "prev": "0",
                                        "typeTag": 1
                                    }
                                }
                            ],
                            "typeTag": 4
                        }
                    },
                    {
                        "name": "_owners",
                        "type": "mapping(uint256 => address)",
                        "value": {
                            "pairs": [
                                {
                                    "key": "279",
                                    "value": {
                                        "current": "0x7bbbede95eccbfe975c3e23fc04635dfebb11351",
                                        "prev": "0x0000000000000000000000000000000000000000",
                                        "typeTag": 1
                                    }
                                }
                            ],
                            "typeTag": 4
                        }
                    },
                    {
                        "name": "_tokenTracker",
                        "type": "struct Counters.Counter",
                        "value": {
                            "fields": [
                                {
                                    "name": "_value",
                                    "type": "uint256",
                                    "value": {
                                        "current": "279",
                                        "prev": "278",
                                        "typeTag": 1
                                    }
                                }
                            ],
                            "typeTag": 3
                        }
                    }
                ]
            },
            {
                "address": "0x9c4c49c3c3bd7ab49d91576d0103a25514cad1d6",
                "erc": "",
                "slots": [
                    {
                        "current": "0x0000000000000000000000000000000000000000000000000000000000000001",
                        "key": "0xc6e2f24be1bf754652567a8596dac068c02bb817f3ab4c9fbe8554fc90d15471",
                        "prev": "0x0000000000000000000000000000000000000000000000000000000000000000"
                    },
                    {
                        "current": "0x00000000000000000000000000000000000000000000005c0c7bd39c45480000",
                        "key": "0x5b29027d11d88cf4a9586985ca5b067f2623ee74e2b13674e0d5be00fab93774",
                        "prev": "0x00000000000000000000000000000000000000000000005b81b4b097bb600000"
                    },
                    {
                        "current": "0x0000000000000000000000000000000000000000000000697e2cd1a66e280000",
                        "key": "0x0000000000000000000000000000000000000000000000000000000000000000",
                        "prev": "0x000000000000000000000000000000000000000000000068f365aea1e4400000"
                    },
                    {
                        "current": "0x00000000000000000000000000000000000000000000000000000000000000ca",
                        "key": "0x253fd7de163c50bb672dfc4a0fa8e95bb3ec0e05249f0507089307c7ca03d3b5",
                        "prev": "0x00000000000000000000000000000000000000000000000000000000000000c9"
                    }
                ],
                "storageVariables": [
                    {
                        "name": "totalTokensMinted",
                        "type": "uint256",
                        "value": {
                            "current": "1946000000000000000000",
                            "prev": "1936000000000000000000",
                            "typeTag": 1
                        }
                    },
                    {
                        "name": "referralsNumber",
                        "type": "mapping(address => uint256)",
                        "value": {
                            "pairs": [
                                {
                                    "key": "0xd500efdef75e89bf6caf5c98f7633575d0049a72",
                                    "value": {
                                        "current": "202",
                                        "prev": "201",
                                        "typeTag": 1
                                    }
                                }
                            ],
                            "typeTag": 4
                        }
                    },
                    {
                        "name": "nftsMinted",
                        "type": "mapping(address => uint256)",
                        "value": {
                            "pairs": [
                                {
                                    "key": "0x7bbbede95eccbfe975c3e23fc04635dfebb11351",
                                    "value": {
                                        "current": "1",
                                        "prev": "0",
                                        "typeTag": 1
                                    }
                                }
                            ],
                            "typeTag": 4
                        }
                    },
                    {
                        "name": "tokensMinted",
                        "type": "mapping(address => uint256)",
                        "value": {
                            "pairs": [
                                {
                                    "key": "0xd500efdef75e89bf6caf5c98f7633575d0049a72",
                                    "value": {
                                        "current": "1698000000000000000000",
                                        "prev": "1688000000000000000000",
                                        "typeTag": 1
                                    }
                                }
                            ],
                            "typeTag": 4
                        }
                    }
                ]
            }
        ]
    }
}