{
    "balance_change": {
        "balanceChanges": [
            {
                "account": "0x9a7b1c1e44dfd82878941aa1470b75840ade489c",
                "assets": [
                    {
                        "address": "0x2a46f2ffd99e19a89476e2f62270e0a35bbf0756",
                        "amount": "68,748",
                        "iconUrl": "",
                        "isERC1155": false,
                        "isERC721": false,
                        "sign": false,
                        "value": ""
                    }
                ]
            },
            {
                "account": "0x57115f7d04c16f3983802b7c5a2d5089a188d76a",
                "assets": [
                    {
                        "address": "0x2a46f2ffd99e19a89476e2f62270e0a35bbf0756",
                        "amount": "68,748",
                        "iconUrl": "",
                        "isERC1155": false,
                        "isERC721": false,
                        "sign": true,
                        "value": ""
                    }
                ]
            }
        ]
    },
    "profile": {
        "basic_info": {
            "baseFee": "19.20478802",
            "blockNumber": 13061666,
            "callData": "0x42842e0e0000000000000000000000009a7b1c1e44dfd82878941aa1470b75840ade489c00000000000000000000000057115f7d04c16f3983802b7c5a2d5089a188d76a0000000000000000000000000000000000000000000000000000000000010c8c",
            "debugEnable": true,
            "errorInfo": "",
            "eventCount": 1,
            "feeRecipient": "0xea674fdde714fd979de3edf0f56aa9716b898ec8",
            "formatValue": "0",
            "gasLimit": 102042,
            "gasPrice": "21.232092819",
            "gasUsed": 89583,
            "intTxnCount": 0,
            "internalRevert": false,
            "internalRevertMessage": "",
            "isContractCreation": false,
            "isFlashloan": false,
            "maxFee": "21.232092819",
            "nonce": 74,
            "overwritedBlockNumber": -1,
            "priorityFee": "21.232092819",
            "receiver": "0x2a46f2ffd99e19a89476e2f62270e0a35bbf0756",
            "revertMessage": "",
            "sender": "0x9a7b1c1e44dfd82878941aa1470b75840ade489c",
            "simulationEnable": true,
            "sourceTxnHash": "0x9c00197a6a2f5bf3f8838ea26c9a9bc19c84494820181f5ce73e48189e077618",
            "status": true,
            "timestamp": "2021-08-20T10:42:28Z",
            "transactionFee": "0.001902034571004477",
            "txnHash": "0x9c00197a6a2f5bf3f8838ea26c9a9bc19c84494820181f5ce73e48189e077618",
            "txnIndex": 55,
            "type": 2,
            "value": "0"
        },
        "fund_flow": [
            {
                "amount": "68,748",
                "from": "0x9a7b1c1e44dfd82878941aa1470b75840ade489c",
                "id": 1,
                "isERC1155": false,
                "isERC721": false,
                "isReverted": false,
                "order": 1,
                "to": "0x57115f7d04c16f3983802b7c5a2d5089a188d76a",
                "token": "0x2a46f2ffd99e19a89476e2f62270e0a35bbf0756"
            }
        ],
        "token_infos": [
            {
                "address": "0x2a46f2ffd99e19a89476e2f62270e0a35bbf0756",
                "decimals": -1
            },
            {
                "address": "0xc02aaa39b223fe8d0a0e5c4f27ead9083c756cc2",
                "decimals": 18
            },
            {
                "address": "0xeeeeeeeeeeeeeeeeeeeeeeeeeeeeeeeeeeeeeeee",
                "decimals": 18
            }
        ]
    },
    "address_label": {
        "labels": [
            {
                "address": "0x2a46f2ffd99e19a89476e2f62270e0a35bbf0756",
                "label": "MakersPlace: MKT2 Token"
            },
            {
                "address": "0x0000000000000000000000000000000000000001",
                "label": "Precompiled"
            },
            {
                "address": "0x0000000000000000000000000000000000000002",
                "label": "Precompiled"
            },
            {
                "address": "0x0000000000000000000000000000000000000003",
                "label": "Precompiled"
            },
            {
                "address": "0x0000000000000000000000000000000000000004",
                "label": "Precompiled"
            },
            {
                "address": "0xeeeeeeeeeeeeeeeeeeeeeeeeeeeeeeeeeeeeeeee",
                "label": "Ether"
            }
        ]
    },
    "trace": {
        "accountLabels": null,
        "dataMap": {
            "-1": {
                "invocation": {
                    "address": "0x9a7b1c1e44dfd82878941aa1470b75840ade489c",
                    "callData": "",
                    "decodedMethod": null,
                    "errorInfo": "",
                    "fromAddress": "",
                    "gasUsed": 0,
                    "id": -1,
                    "methodDecoded": false,
                    "operation": "",
                    "output": "",
                    "revert": false,
                    "revertMessage": "",
                    "selector": "",
                    "status": false,
                    "value": ""
                },
                "nodeType": 0
            },
            "0": {
                "invocation": {
                    "address": "0x2a46f2ffd99e19a89476e2f62270e0a35bbf0756",
                    "callData": "0x0000000000000000000000009a7b1c1e44dfd82878941aa1470b75840ade489c00000000000000000000000057115f7d04c16f3983802b7c5a2d5089a188d76a0000000000000000000000000000000000000000000000000000000000010c8c",
                    "decodedMethod": {
                        "callParams": [
                            {
                                "name": "_from",
                                "type": "address",
                                "value": "0x9a7b1c1e44dfd82878941aa1470b75840ade489c"
                            },
                            {
                                "name": "_to",
                                "type": "address",
                                "value": "0x57115f7d04c16f3983802b7c5a2d5089a188d76a"
                            },
                            {
                                "name": "_tokenId",
                                "type": "uint256",
                                "value": "68,748"
                            }
                        ],
                        "constructorArguments": "",
                        "name": "safeTransferFrom",
                        "returnParams": [],
                        "signature": "safeTransferFrom(address,address,uint256)"
                    },
                    "errorInfo": "",
                    "fromAddress": "0x9a7b1c1e44dfd82878941aa1470b75840ade489c",
                    "gasUsed": 89583,
                    "id": 0,
                    "methodDecoded": true,
                    "operation": "CALL",
                    "output": "",
                    "revert": false,
                    "revertMessage": "",
                    "selector": "0x42842e0e",
                    "status": true,
                    "value": "0"
                },
                "nodeType": 0
            },
            "1": {
                "event": {
                    "contract": "0x2a46f2ffd99e19a89476e2f62270e0a35bbf0756",
                    "decodedLog": {
                        "name": "Transfer",
                        "params": [
                            {
                                "name": "_from",
                                "type": "address",
                                "value": "0x9a7b1c1e44dfd82878941aa1470b75840ade489c"
                            },
                            {
                                "name": "_to",
                                "type": "address",
                                "value": "0x57115f7d04c16f3983802b7c5a2d5089a188d76a"
                            },
                            {
                                "decimalAvailable": true,
                                "name": "_tokenId",
                                "type": "uint256",
                                "value": "68,748"
                            }
                        ],
                        "signature": "Transfer(address,address,uint256)"
                    },
                    "id": 1,
                    "logData": "0x0000000000000000000000000000000000000000000000000000000000010c8c",
                    "logDecoded": true,
                    "operation": "EVENT",
                    "revert": false,
                    "status": true,
                    "topics": [
                        "0xddf252ad1be2c89b69c2b068fc378daa952ba7f163c4a11628f55a4df523b3ef",
                        "0x0000000000000000000000009a7b1c1e44dfd82878941aa1470b75840ade489c",
                        "0x00000000000000000000000057115f7d04c16f3983802b7c5a2d5089a188d76a"
                    ]
                },
                "nodeType": 1
            }
        },
        "gasFlame": [
            {
                "children": [
                    {
                        "children": [
                            {
                                "children": [],
                                "depth": 0,
                                "name": "Initial Gas",
                                "value": 21964
                            },
                            {
                                "children": [],
                                "depth": 0,
                                "name": "Executed Gas",
                                "value": 75219
                            }
                        ],
                        "depth": -1,
                        "name": "Actual Gas Used",
                        "value": 89583
                    },
                    {
                        "children": [],
                        "depth": -1,
                        "name": "Refunded Gas",
                        "value": 7600
                    }
                ],
                "depth": -2,
                "name": "Total Gas",
                "value": 97183
            }
        ],
        "isConfirmed": true,
        "mainTrace": [
            {
                "children": [
                    {
                        "children": [
                            {
                                "children": [],
                                "depth": 1,
                                "id": 1,
                                "order": 1
                            }
                        ],
                        "depth": 0,
                        "id": 0,
                        "order": 0
                    }
                ],
                "depth": -1,
                "id": -1,
                "order": -1
            }
        ],
        "mainTraceNodeCount": 2,
        "parentIdMap": {
            "0": -1,
            "1": 0
        },
        "tidyTrace": [
            {
                "children": [
                    {
                        "children": [
                            {
                                "children": [],
                                "depth": 1,
                                "id": 1,
                                "order": 1
                            }
                        ],
                        "depth": 0,
                        "id": 0,
                        "order": 0
                    }
                ],
                "depth": -1,
                "id": -1,
                "order": -1
            }
        ],
        "tidyTraceNodeCount": 2
    },
    "state_change": {
        "stateChanges": [
            {
                "address": "0x2a46f2ffd99e19a89476e2f62270e0a35bbf0756",
                "erc": "ERC-721",
                "slots": [
                    {
                        "current": "0x00000000000000000000000057115f7d04c16f3983802b7c5a2d5089a188d76a",
                        "key": "0xb1b18bc5ce65a0251b49663d4bc591b4af37d7c0beac00efbda8bbb9488547fe",
                        "prev": "0x0000000000000000000000009a7b1c1e44dfd82878941aa1470b75840ade489c"
                    },
                    {
                        "current": "0x0000000000000000000000000000000000000000000000000000000000000000",
                        "key": "0x8dd8f09d111aff2e22f3e3945e87769820ecf95b9d6f0b805230a8a39e32d1bf",
                        "prev": "0x0000000000000000000000000000000000000000000000000000000000010c8c"
                    },
                    {
                        "current": "0x0000000000000000000000000000000000000000000000000000000000000006",
                        "key": "0x1806f91c8ccde23bbefe4c2a7a91adc11b399f618185ae20fc59675fb61ae22d",
                        "prev": "0x0000000000000000000000000000000000000000000000000000000000000007"
                    },
                    {
                        "current": "0x0000000000000000000000000000000000000000000000000000000000000183",
                        "key": "0x28da2f183f420e5aef86f6d6c174cf4f1054663e3151b9c0b1cf483fc7d546c2",
                        "prev": "0x0000000000000000000000000000000000000000000000000000000000000006"
                    },
                    {
                        "current": "0x0000000000000000000000000000000000000000000000000000000000000184",
                        "key": "0x0e734f366863a12f0411ddf5123fa641bfb0033c7cdd271b1bd87d7f42758955",
                        "prev": "0x0000000000000000000000000000000000000000000000000000000000000183"
                    },
                    {
                        "current": "0x0000000000000000000000000000000000000000000000000000000000000184",
                        "key": "0xf9a95da35d67c7c9e3a1cee795e36707366c91ee8514a2aaa8ce107aaee22c14",
                        "prev": "0x0000000000000000000000000000000000000000000000000000000000000183"
                    },
                    {
                        "current": "0x0000000000000000000000000000000000000000000000000000000000010c8c",
                        "key": "0x897de1470938b37d970404fda042924bfc97302eb04b20ae5525551ee738e4a4",
                        "prev": "0x0000000000000000000000000000000000000000000000000000000000000000"
                    },
                    {
                        "current": "0x0000000000000000000000000000000000000000000000000000000000000006",
                        "key": "0xa54ccc0a1b8286c5905f412b0345ba7ea3c4837de579b1056a86ae3c5cde8b00",
                        "prev": "0x0000000000000000000000000000000000000000000000000000000000000007"
                    }
                ],
                "storageVariables": [
                    {
                        "name": "ownedTokensCount",
                        "type": "mapping(address => uint256)",
                        "value": {
                            "pairs": [
                                {
                                    "key": "0x57115f7d04c16f3983802b7c5a2d5089a188d76a",
                                    "value": {
                                        "current": "388",
                                        "prev": "387",
                                        "typeTag": 1
                                    }
                                },
                                {
                                    "key": "0x9a7b1c1e44dfd82878941aa1470b75840ade489c",
                                    "value": {
                                        "current": "6",
                                        "prev": "7",
                                        "typeTag": 1
                                    }
                                }
                            ],
                            "typeTag": 4
                        }
                    },
                    {
                        "name": "tokenOwner",
                        "type": "mapping(uint256 => address)",
                        "value": {
                            "pairs": [
                                {
                                    "key": "68748",
                                    "value": {
                                        "current": "0x57115f7d04c16f3983802b7c5a2d5089a188d76a",
                                        "prev": "0x9a7b1c1e44dfd82878941aa1470b75840ade489c",
                                        "typeTag": 1
                                    }
                                }
                            ],
                            "typeTag": 4
                        }
                    },
                    {
                        "name": "ownedTokensIndex",
                        "type": "mapping(uint256 => uint256)",
                        "value": {
                            "pairs": [
                                {
                                    "key": "68748",
                                    "value": {
                                        "current": "387",
                                        "prev": "6",
                                        "typeTag": 1
                                    }
                                }
                            ],
                            "typeTag": 4
                        }
                    },
                    {
                        "name": "ownedTokens",
                        "type": "mapping(address => uint256[])",
                        "value": {
                            "pairs": [
                                {
                                    "key": "0x57115f7d04c16f3983802b7c5a2d5089a188d76a",
                                    "value": {
                                        "elemType": "uint256",
                                        "elems": [
                                            {
                                                "index": 387,
                                                "value": {
                                                    "current": "68748",
                                                    "prev": "0",
                                                    "typeTag": 1
                                                }
                                            }
                                        ],
                                        "typeTag": 2
                                    }
                                }
                            ],
                            "typeTag": 4
                        }
                    }
                ]
            }
        ]
    }
}