{
    "balance_change": {
        "balanceChanges": []
    },
    "profile": {
        "basic_info": {
            "baseFee": "",
            "blockNumber": 5732118,
            "callData": "0xef343588000000000000000000000000000000000000000000000000aaa9dbfde33110b100000000000000000000000000000000000000000000063362b97441f1b7b730000000000000000000000000000000000000000000000000000000000002e6300000000000000000000000000000000000000000000000000000000000000004000000000000000000000000000000000000000000000000aaa9dbfde33110b10000000000000000000000000000000000000000000000000000000000000d2100000000000000000000000000000000000000000000000000038d7ea4c680000000000000000000000000000000000000000000000000000001212c134393460000000000000000000000000000000000000000000000000000000000000000000000000000000000000000ea26c4ac16d4a5a106820bc8aee85fd0b7b2b664000000000000000000000000473ff4da1d5909298d434b39a6cdc2cca3986eb5000000000000000000000000595e76bb891250c082f6d62d7bac5d900a195b79000000000000000000000000000000000000000000000000000000000000001c000000000000000000000000000000000000000000000000000000000000001b5466c1523a90b090ded7c6075529562face69c573b484d59b7ca3b2945cecdcb66a4419d8b01223d93bc37e2e9b9f7a32e92728090194a15bc0ab450082eb33ab4e6f95327fd7dd3a6939bc4f1c0dce903b8c91964a8885cb803c120838c68f6132199de7fba5b7468792f4d5ecea0322d38e5c2281b4da269bcf7c30501e0f5",
            "debugEnable": true,
            "errorInfo": "",
            "eventCount": 0,
            "feeRecipient": "0x52bc44d5378309ee2abf1539bf71de1b7d7be3b5",
            "formatValue": "0",
            "gasLimit": 210000,
            "gasPrice": "23",
            "gasUsed": 142900,
            "intTxnCount": 2,
            "internalRevert": false,
            "internalRevertMessage": "",
            "isContractCreation": false,
            "isFlashloan": false,
            "maxFee": "",
            "nonce": 147644,
            "overwritedBlockNumber": -1,
            "priorityFee": "",
            "receiver": "0x2a0c0dbecc7e4d658f48e01e3fa353f44050c208",
            "revertMessage": "",
            "sender": "0xa7a7899d944fe658c4b0a1803bab2f490bd3849e",
            "simulationEnable": true,
            "sourceTxnHash": "0x9ce572ba0f0dfdb09cdb58953d45e8d3e3c432684af94142c835d7a992a5a6ac",
            "status": true,
            "timestamp": "2018-06-04T18:05:35Z",
            "transactionFee": "0.0032867",
            "txnHash": "0x9ce572ba0f0dfdb09cdb58953d45e8d3e3c432684af94142c835d7a992a5a6ac",
            "txnIndex": 74,
            "type": 0,
            "value": "0"
        },
        "fund_flow": [],
        "token_infos": [
            {
                "address": "0xc02aaa39b223fe8d0a0e5c4f27ead9083c756cc2",
                "decimals": 18
            },
            {
                "address": "0xeeeeeeeeeeeeeeeeeeeeeeeeeeeeeeeeeeeeeeee",
                "decimals": 18
            }
        ]
    },
    "address_label": {
        "labels": [
            {
                "address": "0xeeeeeeeeeeeeeeeeeeeeeeeeeeeeeeeeeeeeeeee",
                "label": "Ether"
            },
            {
                "address": "0xa7a7899d944fe658c4b0a1803bab2f490bd3849e",
                "label": "IDEX 2"
            },
            {
                "address": "0x0000000000000000000000000000000000000001",
                "label": "Precompiled"
            },
            {
                "address": "0x0000000000000000000000000000000000000002",
                "label": "Precompiled"
            },
            {
                "address": "0x0000000000000000000000000000000000000003",
                "label": "Precompiled"
            },
            {
                "address": "0x0000000000000000000000000000000000000004",
                "label": "Precompiled"
            },
            {
                "address": "0xea26c4ac16d4a5a106820bc8aee85fd0b7b2b664",
                "label": "QuarkChain Token"
            },
            {
                "address": "0x0000000000000000000000000000000000000000",
                "label": "Null Address"
            },
            {
                "address": "0x2a0c0dbecc7e4d658f48e01e3fa353f44050c208",
                "label": "IDEX"
            }
        ]
    },
    "trace": {
        "accountLabels": null,
        "dataMap": {
            "-1": {
                "invocation": {
                    "address": "0xa7a7899d944fe658c4b0a1803bab2f490bd3849e",
                    "callData": "",
                    "decodedMethod": null,
                    "errorInfo": "",
                    "fromAddress": "",
                    "gasUsed": 0,
                    "id": -1,
                    "methodDecoded": false,
                    "operation": "",
                    "output": "",
                    "revert": false,
                    "revertMessage": "",
                    "selector": "",
                    "status": false,
                    "value": ""
                },
                "nodeType": 0
            },
            "0": {
                "invocation": {
                    "address": "0x2a0c0dbecc7e4d658f48e01e3fa353f44050c208",
                    "callData": "0x000000000000000000000000000000000000000000000000aaa9dbfde33110b100000000000000000000000000000000000000000000063362b97441f1b7b730000000000000000000000000000000000000000000000000000000000002e6300000000000000000000000000000000000000000000000000000000000000004000000000000000000000000000000000000000000000000aaa9dbfde33110b10000000000000000000000000000000000000000000000000000000000000d2100000000000000000000000000000000000000000000000000038d7ea4c680000000000000000000000000000000000000000000000000000001212c134393460000000000000000000000000000000000000000000000000000000000000000000000000000000000000000ea26c4ac16d4a5a106820bc8aee85fd0b7b2b664000000000000000000000000473ff4da1d5909298d434b39a6cdc2cca3986eb5000000000000000000000000595e76bb891250c082f6d62d7bac5d900a195b79000000000000000000000000000000000000000000000000000000000000001c000000000000000000000000000000000000000000000000000000000000001b5466c1523a90b090ded7c6075529562face69c573b484d59b7ca3b2945cecdcb66a4419d8b01223d93bc37e2e9b9f7a32e92728090194a15bc0ab450082eb33ab4e6f95327fd7dd3a6939bc4f1c0dce903b8c91964a8885cb803c120838c68f6132199de7fba5b7468792f4d5ecea0322d38e5c2281b4da269bcf7c30501e0f5",
                    "decodedMethod": {
                        "callParams": [
                            {
                                "name": "tradeValues",
                                "type": "uint256[8]",
                                "value": [
                                    "12,297,602,140,996,702,385",
                                    "29,282,096,689,890,043,868,976",
                                    "190,000",
                                    "4",
                                    "12,297,602,140,996,702,385",
                                    "3,361",
                                    "1,000,000,000,000,000",
                                    "317,948,162,184,006"
                                ]
                            },
                            {
                                "name": "tradeAddresses",
                                "type": "address[4]",
                                "value": [
                                    "0x0000000000000000000000000000000000000000",
                                    "0xea26c4ac16d4a5a106820bc8aee85fd0b7b2b664",
                                    "0x473ff4da1d5909298d434b39a6cdc2cca3986eb5",
                                    "0x595e76bb891250c082f6d62d7bac5d900a195b79"
                                ]
                            },
                            {
                                "name": "v",
                                "type": "uint8[2]",
                                "value": [
                                    "28",
                                    "27"
                                ]
                            },
                            {
                                "name": "rs",
                                "type": "bytes32[4]",
                                "value": [
                                    "0x5466c1523a90b090ded7c6075529562face69c573b484d59b7ca3b2945cecdcb",
                                    "0x66a4419d8b01223d93bc37e2e9b9f7a32e92728090194a15bc0ab450082eb33a",
                                    "0xb4e6f95327fd7dd3a6939bc4f1c0dce903b8c91964a8885cb803c120838c68f6",
                                    "0x132199de7fba5b7468792f4d5ecea0322d38e5c2281b4da269bcf7c30501e0f5"
                                ]
                            }
                        ],
                        "constructorArguments": "",
                        "name": "trade",
                        "returnParams": [
                            {
                                "name": "success",
                                "type": "bool",
                                "value": false
                            }
                        ],
                        "signature": "trade(uint256[8],address[4],uint8[2],bytes32[4])"
                    },
                    "errorInfo": "",
                    "fromAddress": "0xa7a7899d944fe658c4b0a1803bab2f490bd3849e",
                    "gasUsed": 142900,
                    "id": 0,
                    "methodDecoded": true,
                    "operation": "CALL",
                    "output": "0x0000000000000000000000000000000000000000000000000000000000000000",
                    "revert": false,
                    "revertMessage": "",
                    "selector": "0xef343588",
                    "status": true,
                    "value": "0"
                },
                "nodeType": 0
            },
            "1": {
                "invocation": {
                    "address": "0x0000000000000000000000000000000000000001",
                    "callData": "0x65792b290d3ca3e477630785ff83b6af820e06e7577a9238fb22951d000000000000000000000000000000000000000000000000000000000000001c5466c1523a90b090ded7c6075529562face69c573b484d59b7ca3b2945cecdcb66a4419d8b01223d93bc37e2e9b9f7a32e92728090194a15bc0ab450082eb33a",
                    "decodedMethod": {
                        "callParams": [
                            {
                                "name": "hash",
                                "type": "bytes32",
                                "value": "0xc93fabb465792b290d3ca3e477630785ff83b6af820e06e7577a9238fb22951d"
                            },
                            {
                                "name": "v",
                                "type": "uint256",
                                "value": "28"
                            },
                            {
                                "name": "r",
                                "type": "bytes32",
                                "value": "0x5466c1523a90b090ded7c6075529562face69c573b484d59b7ca3b2945cecdcb"
                            },
                            {
                                "name": "s",
                                "type": "bytes32",
                                "value": "0x66a4419d8b01223d93bc37e2e9b9f7a32e92728090194a15bc0ab450082eb33a"
                            }
                        ],
                        "constructorArguments": "",
                        "name": "ecrecover",
                        "returnParams": [
                            {
                                "name": "",
                                "type": "address",
                                "value": "0x473ff4da1d5909298d434b39a6cdc2cca3986eb5"
                            }
                        ],
                        "signature": "ecrecover(bytes32,uint256,bytes32,bytes32)"
                    },
                    "errorInfo": "",
                    "fromAddress": "0x2a0c0dbecc7e4d658f48e01e3fa353f44050c208",
                    "gasUsed": 3000,
                    "id": 1,
                    "methodDecoded": true,
                    "operation": "CALL",
                    "output": "0x000000000000000000000000473ff4da1d5909298d434b39a6cdc2cca3986eb5",
                    "revert": false,
                    "revertMessage": "",
                    "selector": "0xc93fabb4",
                    "status": true,
                    "value": "0"
                },
                "nodeType": 0
            },
            "2": {
                "invocation": {
                    "address": "0x0000000000000000000000000000000000000001",
                    "callData": "0x7bc456cb7e9839d7f1afb35d2f67fa9d7065b1c26bace974fde44257000000000000000000000000000000000000000000000000000000000000001bb4e6f95327fd7dd3a6939bc4f1c0dce903b8c91964a8885cb803c120838c68f6132199de7fba5b7468792f4d5ecea0322d38e5c2281b4da269bcf7c30501e0f5",
                    "decodedMethod": {
                        "callParams": [
                            {
                                "name": "hash",
                                "type": "bytes32",
                                "value": "0x48e4b8f37bc456cb7e9839d7f1afb35d2f67fa9d7065b1c26bace974fde44257"
                            },
                            {
                                "name": "v",
                                "type": "uint256",
                                "value": "27"
                            },
                            {
                                "name": "r",
                                "type": "bytes32",
                                "value": "0xb4e6f95327fd7dd3a6939bc4f1c0dce903b8c91964a8885cb803c120838c68f6"
                            },
                            {
                                "name": "s",
                                "type": "bytes32",
                                "value": "0x132199de7fba5b7468792f4d5ecea0322d38e5c2281b4da269bcf7c30501e0f5"
                            }
                        ],
                        "constructorArguments": "",
                        "name": "ecrecover",
                        "returnParams": [
                            {
                                "name": "",
                                "type": "address",
                                "value": "0x595e76bb891250c082f6d62d7bac5d900a195b79"
                            }
                        ],
                        "signature": "ecrecover(bytes32,uint256,bytes32,bytes32)"
                    },
                    "errorInfo": "",
                    "fromAddress": "0x2a0c0dbecc7e4d658f48e01e3fa353f44050c208",
                    "gasUsed": 3000,
                    "id": 2,
                    "methodDecoded": true,
                    "operation": "CALL",
                    "output": "0x000000000000000000000000595e76bb891250c082f6d62d7bac5d900a195b79",
                    "revert": false,
                    "revertMessage": "",
                    "selector": "0x48e4b8f3",
                    "status": true,
                    "value": "0"
                },
                "nodeType": 0
            }
        },
        "gasFlame": [
            {
                "children": [
                    {
                        "children": [
                            {
                                "children": [],
                                "depth": 0,
                                "name": "Initial Gas",
                                "value": 38616
                            },
                            {
                                "children": [
                                    {
                                        "children": [],
                                        "depth": 1,
                                        "name": "ecrecover",
                                        "value": 3000
                                    },
                                    {
                                        "children": [],
                                        "depth": 1,
                                        "name": "ecrecover",
                                        "value": 3000
                                    }
                                ],
                                "depth": 0,
                                "name": "Executed Gas",
                                "value": 104284
                            }
                        ],
                        "depth": -1,
                        "name": "Actual Gas Used",
                        "value": 142900
                    },
                    {
                        "children": [],
                        "depth": -1,
                        "name": "Refunded Gas",
                        "value": 0
                    }
                ],
                "depth": -2,
                "name": "Total Gas",
                "value": 142900
            }
        ],
        "isConfirmed": true,
        "mainTrace": [
            {
                "children": [
                    {
                        "children": [
                            {
                                "children": [],
                                "depth": 1,
                                "id": 1,
                                "order": 1
                            },
                            {
                                "children": [],
                                "depth": 1,
                                "id": 2,
                                "order": 2
                            }
                        ],
                        "depth": 0,
                        "id": 0,
                        "order": 0
                    }
                ],
                "depth": -1,
                "id": -1,
                "order": -1
            }
        ],
        "mainTraceNodeCount": 3,
        "parentIdMap": {
            "0": -1,
            "1": 0,
            "2": 0
        },
        "tidyTrace": [
            {
                "children": [
                    {
                        "children": [
                            {
                                "children": [],
                                "depth": 1,
                                "id": 1,
                                "order": 1
                            },
                            {
                                "children": [],
                                "depth": 1,
                                "id": 2,
                                "order": 2
                            }
                        ],
                        "depth": 0,
                        "id": 0,
                        "order": 0
                    }
                ],
                "depth": -1,
                "id": -1,
                "order": -1
            }
        ],
        "tidyTraceNodeCount": 3
    },
    "state_change": {
        "stateChanges": [
            {
                "address": "0x2a0c0dbecc7e4d658f48e01e3fa353f44050c208",
                "erc": "",
                "slots": [
                    {
                        "current": "0x000000000000000000000000000000000000000000000632e18504d8b60dbce8",
                        "key": "0x4d53001b3d9f68e54ec7a58cc951e08b673630bfde9ae6847ccebf3234e9f9f3",
                        "prev": "0x000000000000000000000000000000000000000000000000000000000000098a"
                    },
                    {
                        "current": "0x0000000000000000000000000000000000000000000000000000000000577716",
                        "key": "0xaed8aad3baccecfd844bdfa79234c0ddbbcdd89441d6bc11a4905856de06f7a1",
                        "prev": "0x00000000000000000000000000000000000000000000000000000000005776ec"
                    },
                    {
                        "current": "0x000000000000000000000000000000000000000000000003da84a9baf411829f",
                        "key": "0x90616af16df8b7d5f8506299f2daf0b96bb4263faed0ab46f4bf2430ccfa9d8b",
                        "prev": "0x000000000000000000000000000000000000000000000004852e85b8d7429350"
                    },
                    {
                        "current": "0x0000000000000000000000000000000000000000000000000000000000577716",
                        "key": "0xda356879f2254b40d4daa1ab0214ccf002d974266eadf4a553a51bc6e30721fa",
                        "prev": "0x00000000000000000000000000000000000000000000000000000000005776f6"
                    },
                    {
                        "current": "0x0000000000000000000000000000000000000000000000000000000000000001",
                        "key": "0x23fb93ed0f3b002123d01ed71fda2db0e68dc998802cbddfbbb9b85fef67117f",
                        "prev": "0x0000000000000000000000000000000000000000000000000000000000000000"
                    },
                    {
                        "current": "0x00000000000000000000000000000000000000000000006b73184c8d9b281896",
                        "key": "0x3ccb72d91c5c66cba135a4135963ed23443b8a63817f501517468fcd5097e277",
                        "prev": "0x00000000000000000000000000000000000000000000006b72ec9bf2fbf41438"
                    },
                    {
                        "current": "0x000000000000000000000000000000000000000000000000aaa9dbfde33110b1",
                        "key": "0xded82c8c69a6f29b7eea9d7e48d9b088efb04346e9465e14e1cb709cce95b457",
                        "prev": "0x0000000000000000000000000000000000000000000000000000000000000000"
                    },
                    {
                        "current": "0x000000000000000000000000000000000000000000000002bf809027b2e7bd69",
                        "key": "0xd80446ba427447e70031755037267770f9016e106c0b6f68cecbea8289b9c815",
                        "prev": "0x000000000000000000000000000000000000000000000002150264c46eeab117"
                    },
                    {
                        "current": "0x000000000000000000000000000000000000000000000fdc3b486d166e0ca50b",
                        "key": "0xbdfc5766ed778c4cd75e34705e6cf1f59aac6bbd4cd38d9bf2637f0df662da50",
                        "prev": "0x00000000000000000000000000000000000000000000160f9e01e1585fc45c3b"
                    },
                    {
                        "current": "0x000000000000000000000000000000000000000000000de15c3b745f864fb6df",
                        "key": "0x14816f79a81f1f8faba01b23ad3791ecf5831a34b3e1700e04600b422b4c82eb",
                        "prev": "0x000000000000000000000000000000000000000000000de0db0704f64aa5b30e"
                    }
                ],
                "storageVariables": [
                    {
                        "name": "lastActiveTransaction",
                        "type": "mapping(address => uint256)",
                        "value": {
                            "pairs": [
                                {
                                    "key": "0x473ff4da1d5909298d434b39a6cdc2cca3986eb5",
                                    "value": {
                                        "current": "5732118",
                                        "prev": "5732086",
                                        "typeTag": 1
                                    }
                                },
                                {
                                    "key": "0x595e76bb891250c082f6d62d7bac5d900a195b79",
                                    "value": {
                                        "current": "5732118",
                                        "prev": "5732076",
                                        "typeTag": 1
                                    }
                                }
                            ],
                            "typeTag": 4
                        }
                    },
                    {
                        "name": "traded",
                        "type": "mapping(bytes32 => bool)",
                        "value": {
                            "pairs": [
                                {
                                    "key": "0x666140b12aff9ae9e0a48c1146542cd4e7f17a8210c16ee5298ccba99da1b4d9",
                                    "value": {
                                        "current": "true",
                                        "prev": "false",
                                        "typeTag": 1
                                    }
                                }
                            ],
                            "typeTag": 4
                        }
                    },
                    {
                        "name": "tokens",
                        "type": "mapping(address => mapping(address => uint256))",
                        "value": {
                            "pairs": [
                                {
                                    "key": "0x0000000000000000000000000000000000000000",
                                    "value": {
                                        "pairs": [
                                            {
                                                "key": "0x034767f3c519f361c5ecf46ebfc08981c629d381",
                                                "value": {
                                                    "current": "1982095078771801987222",
                                                    "prev": "1982082781169660990520",
                                                    "typeTag": 1
                                                }
                                            },
                                            {
                                                "key": "0x473ff4da1d5909298d434b39a6cdc2cca3986eb5",
                                                "value": {
                                                    "current": "50692675905861959017",
                                                    "prev": "38407371367006253335",
                                                    "typeTag": 1
                                                }
                                            },
                                            {
                                                "key": "0x595e76bb891250c082f6d62d7bac5d900a195b79",
                                                "value": {
                                                    "current": "71086129038746550943",
                                                    "prev": "83383731179743253328",
                                                    "typeTag": 1
                                                }
                                            }
                                        ],
                                        "typeTag": 4
                                    }
                                },
                                {
                                    "key": "0xea26c4ac16d4a5a106820bc8aee85fd0b7b2b664",
                                    "value": {
                                        "pairs": [
                                            {
                                                "key": "0x034767f3c519f361c5ecf46ebfc08981c629d381",
                                                "value": {
                                                    "current": "65547927727518776276703",
                                                    "prev": "65538617538691331371790",
                                                    "typeTag": 1
                                                }
                                            },
                                            {
                                                "key": "0x473ff4da1d5909298d434b39a6cdc2cca3986eb5",
                                                "value": {
                                                    "current": "74898052723450443506955",
                                                    "prev": "104180149413340487375931",
                                                    "typeTag": 1
                                                }
                                            },
                                            {
                                                "key": "0x595e76bb891250c082f6d62d7bac5d900a195b79",
                                                "value": {
                                                    "current": "29272786501062598966504",
                                                    "prev": "2442",
                                                    "typeTag": 1
                                                }
                                            }
                                        ],
                                        "typeTag": 4
                                    }
                                }
                            ],
                            "typeTag": 4
                        }
                    },
                    {
                        "name": "orderFills",
                        "type": "mapping(bytes32 => uint256)",
                        "value": {
                            "pairs": [
                                {
                                    "key": "0x7852bd78bcfdfbe3cfff0d1206aad88084e4f278d9358cd144559ecef54b179d",
                                    "value": {
                                        "current": "12297602140996702385",
                                        "prev": "0",
                                        "typeTag": 1
                                    }
                                }
                            ],
                            "typeTag": 4
                        }
                    }
                ]
            }
        ]
    }
}