{
    "balance_change": {
        "balanceChanges": [
            {
                "account": "0xd1ceeeeee83f8bcf3bedad437202b6154e9f5405",
                "assets": [
                    {
                        "address": "0xeeeeeeeeeeeeeeeeeeeeeeeeeeeeeeeeeeeeeeee",
                        "amount": "0.295",
                        "iconUrl": "https://assets.blocksec.com/image/1663669189317-3.png",
                        "isERC1155": false,
                        "isERC721": false,
                        "sign": false,
                        "value": ""
                    }
                ]
            },
            {
                "account": "0xc4d805e6e960cc608357cb0aef01e19eed29abb5",
                "assets": [
                    {
                        "address": "0xeeeeeeeeeeeeeeeeeeeeeeeeeeeeeeeeeeeeeeee",
                        "amount": "0.295",
                        "iconUrl": "https://assets.blocksec.com/image/1663669189317-3.png",
                        "isERC1155": false,
                        "isERC721": false,
                        "sign": true,
                        "value": ""
                    }
                ]
            }
        ]
    },
    "profile": {
        "basic_info": {
            "baseFee": "",
            "blockNumber": 6407660,
            "callData": "0xca722cdcba3778727bef525f78a1d269eae8fc2002e2ad3f66484686eb9e10018d71076e2a96ac4488f08a9a307d9f78d1108a8a68993ae1c25b7f4d448285f87d257367",
            "debugEnable": true,
            "errorInfo": "",
            "eventCount": 1,
            "feeRecipient": "0x829bd824b016326a401d083b33d092293333a830",
            "formatValue": "0",
            "gasLimit": 65000,
            "gasPrice": "13",
            "gasUsed": 33740,
            "intTxnCount": 1,
            "internalRevert": false,
            "internalRevertMessage": "",
            "isContractCreation": false,
            "isFlashloan": false,
            "maxFee": "",
            "nonce": 225809,
            "overwritedBlockNumber": -1,
            "priorityFee": "",
            "receiver": "0xd1ceeeeee83f8bcf3bedad437202b6154e9f5405",
            "revertMessage": "",
            "sender": "0x00000000c0293c8ca34dac9bcc0f953532d34e4d",
            "simulationEnable": true,
            "sourceTxnHash": "0x9c1ccbb14d1aeadf29ece88de472f4cb19b1a8e996f764c328082adc989c9e3f",
            "status": true,
            "timestamp": "2018-09-27T06:56:31Z",
            "transactionFee": "0.00043862",
            "txnHash": "0x9c1ccbb14d1aeadf29ece88de472f4cb19b1a8e996f764c328082adc989c9e3f",
            "txnIndex": 15,
            "type": 0,
            "value": "0"
        },
        "fund_flow": [
            {
                "amount": "0.295",
                "from": "0xd1ceeeeee83f8bcf3bedad437202b6154e9f5405",
                "id": 1,
                "isERC1155": false,
                "isERC721": false,
                "isReverted": false,
                "order": 1,
                "to": "0xc4d805e6e960cc608357cb0aef01e19eed29abb5",
                "token": "0xeeeeeeeeeeeeeeeeeeeeeeeeeeeeeeeeeeeeeeee"
            }
        ],
        "token_infos": [
            {
                "address": "0xeeeeeeeeeeeeeeeeeeeeeeeeeeeeeeeeeeeeeeee",
                "decimals": 18
            },
            {
                "address": "0xc02aaa39b223fe8d0a0e5c4f27ead9083c756cc2",
                "decimals": 18
            }
        ]
    },
    "address_label": {
        "labels": [
            {
                "address": "0x0000000000000000000000000000000000000003",
                "label": "Precompiled"
            },
            {
                "address": "0x0000000000000000000000000000000000000004",
                "label": "Precompiled"
            },
            {
                "address": "0xeeeeeeeeeeeeeeeeeeeeeeeeeeeeeeeeeeeeeeee",
                "label": "Ether"
            },
            {
                "address": "0xd1ceeeeee83f8bcf3bedad437202b6154e9f5405",
                "label": "Dice2Win"
            },
            {
                "address": "0x00000000c0293c8ca34dac9bcc0f953532d34e4d",
                "label": "Dice2Win 2"
            },
            {
                "address": "0x0000000000000000000000000000000000000001",
                "label": "Precompiled"
            },
            {
                "address": "0x0000000000000000000000000000000000000002",
                "label": "Precompiled"
            }
        ]
    },
    "trace": {
        "accountLabels": null,
        "dataMap": {
            "-1": {
                "invocation": {
                    "address": "0x00000000c0293c8ca34dac9bcc0f953532d34e4d",
                    "callData": "",
                    "decodedMethod": null,
                    "errorInfo": "",
                    "fromAddress": "",
                    "gasUsed": 0,
                    "id": -1,
                    "methodDecoded": false,
                    "operation": "",
                    "output": "",
                    "revert": false,
                    "revertMessage": "",
                    "selector": "",
                    "status": false,
                    "value": ""
                },
                "nodeType": 0
            },
            "0": {
                "invocation": {
                    "address": "0xd1ceeeeee83f8bcf3bedad437202b6154e9f5405",
                    "callData": "0xba3778727bef525f78a1d269eae8fc2002e2ad3f66484686eb9e10018d71076e2a96ac4488f08a9a307d9f78d1108a8a68993ae1c25b7f4d448285f87d257367",
                    "decodedMethod": {
                        "callParams": [
                            {
                                "name": "reveal",
                                "type": "uint256",
                                "value": "84,228,197,721,097,757,439,127,464,944,428,069,570,563,717,551,453,162,356,265,793,552,002,543,847,278"
                            },
                            {
                                "name": "blockHash",
                                "type": "bytes32",
                                "value": "0x2a96ac4488f08a9a307d9f78d1108a8a68993ae1c25b7f4d448285f87d257367"
                            }
                        ],
                        "constructorArguments": "",
                        "name": "settleBet",
                        "returnParams": [],
                        "signature": "settleBet(uint256,bytes32)"
                    },
                    "errorInfo": "",
                    "fromAddress": "0x00000000c0293c8ca34dac9bcc0f953532d34e4d",
                    "gasUsed": 33740,
                    "id": 0,
                    "methodDecoded": true,
                    "operation": "CALL",
                    "output": "",
                    "revert": false,
                    "revertMessage": "",
                    "selector": "0xca722cdc",
                    "status": true,
                    "value": "0"
                },
                "nodeType": 0
            },
            "1": {
                "invocation": {
                    "address": "0xc4d805e6e960cc608357cb0aef01e19eed29abb5",
                    "callData": "0x",
                    "decodedMethod": null,
                    "errorInfo": "",
                    "fromAddress": "0xd1ceeeeee83f8bcf3bedad437202b6154e9f5405",
                    "gasUsed": 0,
                    "id": 1,
                    "methodDecoded": false,
                    "operation": "CALL",
                    "output": "",
                    "revert": false,
                    "revertMessage": "",
                    "selector": "fallback",
                    "status": true,
                    "value": "0.295"
                },
                "nodeType": 0
            },
            "2": {
                "event": {
                    "contract": "0xd1ceeeeee83f8bcf3bedad437202b6154e9f5405",
                    "decodedLog": {
                        "name": "Payment",
                        "params": [
                            {
                                "name": "beneficiary",
                                "type": "address",
                                "value": "0xc4d805e6e960cc608357cb0aef01e19eed29abb5"
                            },
                            {
                                "name": "amount",
                                "type": "uint256",
                                "value": "295,000,000,000,000,000"
                            }
                        ],
                        "signature": "Payment(address,uint256)"
                    },
                    "id": 2,
                    "logData": "0x00000000000000000000000000000000000000000000000004180cefe0bd8000",
                    "logDecoded": true,
                    "operation": "EVENT",
                    "revert": false,
                    "status": true,
                    "topics": [
                        "0xd4f43975feb89f48dd30cabbb32011045be187d1e11c8ea9faa43efc35282519",
                        "0x000000000000000000000000c4d805e6e960cc608357cb0aef01e19eed29abb5"
                    ]
                },
                "nodeType": 1
            }
        },
        "gasFlame": [
            {
                "children": [
                    {
                        "children": [
                            {
                                "children": [],
                                "depth": 0,
                                "name": "Initial Gas",
                                "value": 25624
                            },
                            {
                                "children": [
                                    {
                                        "children": [],
                                        "depth": 1,
                                        "name": "fallback",
                                        "value": 0
                                    }
                                ],
                                "depth": 0,
                                "name": "Executed Gas",
                                "value": 23116
                            }
                        ],
                        "depth": -1,
                        "name": "Actual Gas Used",
                        "value": 33740
                    },
                    {
                        "children": [],
                        "depth": -1,
                        "name": "Refunded Gas",
                        "value": 15000
                    }
                ],
                "depth": -2,
                "name": "Total Gas",
                "value": 48740
            }
        ],
        "isConfirmed": true,
        "mainTrace": [
            {
                "children": [
                    {
                        "children": [
                            {
                                "children": [],
                                "depth": 1,
                                "id": 1,
                                "order": 1
                            },
                            {
                                "children": [],
                                "depth": 1,
                                "id": 2,
                                "order": 2
                            }
                        ],
                        "depth": 0,
                        "id": 0,
                        "order": 0
                    }
                ],
                "depth": -1,
                "id": -1,
                "order": -1
            }
        ],
        "mainTraceNodeCount": 3,
        "parentIdMap": {
            "0": -1,
            "1": 0,
            "2": 0
        },
        "tidyTrace": [
            {
                "children": [
                    {
                        "children": [
                            {
                                "children": [],
                                "depth": 1,
                                "id": 1,
                                "order": 1
                            },
                            {
                                "children": [],
                                "depth": 1,
                                "id": 2,
                                "order": 2
                            }
                        ],
                        "depth": 0,
                        "id": 0,
                        "order": 0
                    }
                ],
                "depth": -1,
                "id": -1,
                "order": -1
            }
        ],
        "tidyTraceNodeCount": 3
    },
    "state_change": {
        "stateChanges": [
            {
                "address": "0xd1ceeeeee83f8bcf3bedad437202b6154e9f5405",
                "erc": "",
                "slots": [
                    {
                        "current": "0x0000000000000000000000000000000000000000000000000000000000000000",
                        "key": "0x2d8b9a69845a95764abc4d15bb18d39c2dc5500f2f28d405b66e4eb5954bf49d",
                        "prev": "0x0000000000000000000000000000000000000000000000000214e8348c4f0000"
                    },
                    {
                        "current": "0x000000000000000027f6926aff742000000000000000000018b7621058f88000",
                        "key": "0x0000000000000000000000000000000000000000000000000000000000000004",
                        "prev": "0x00000000000000002c0e9f5ae031a000000000000000000018b7621058f88000"
                    }
                ],
                "storageVariables": [
                    {
                        "name": "jackpotSize",
                        "type": "uint128",
                        "value": {
                            "current": "1781000000000000000",
                            "prev": "1781000000000000000",
                            "typeTag": 1
                        }
                    },
                    {
                        "name": "lockedInBets",
                        "type": "uint128",
                        "value": {
                            "current": "2879650000000000000",
                            "prev": "3174650000000000000",
                            "typeTag": 1
                        }
                    },
                    {
                        "name": "bets",
                        "type": "mapping(uint256 => struct Dice2Win.Bet)",
                        "value": {
                            "pairs": [
                                {
                                    "key": "77007782710765872759237382881135104029410353698026254195727297298724413729256",
                                    "value": {
                                        "fields": [
                                            {
                                                "name": "amount",
                                                "type": "uint256",
                                                "value": {
                                                    "current": "0",
                                                    "prev": "150000000000000000",
                                                    "typeTag": 1
                                                }
                                            }
                                        ],
                                        "typeTag": 3
                                    }
                                }
                            ],
                            "typeTag": 4
                        }
                    }
                ]
            }
        ]
    }
}