{
    "balance_change": {
        "balanceChanges": [
            {
                "account": "0xcd2bf636ce40abdf0229cd8b4fb43120a3bb9b24",
                "assets": [
                    {
                        "address": "0x6c2adc2073994fb2ccc5032cc2906fa221e9b391",
                        "amount": "200.984234999999999999",
                        "iconUrl": "https://assets.blocksec.com/icon/5e694bf0714938358e3b59ecb1059d767e695b0b343eac3c4d03202f8b39d58d.png",
                        "isERC1155": false,
                        "isERC721": false,
                        "sign": false,
                        "value": ""
                    }
                ]
            },
            {
                "account": "0x6cc5f688a315f3dc28a7781717a9a798a59fda7b",
                "assets": [
                    {
                        "address": "0x6c2adc2073994fb2ccc5032cc2906fa221e9b391",
                        "amount": "200.984234999999999999",
                        "iconUrl": "https://assets.blocksec.com/icon/5e694bf0714938358e3b59ecb1059d767e695b0b343eac3c4d03202f8b39d58d.png",
                        "isERC1155": false,
                        "isERC721": false,
                        "sign": true,
                        "value": ""
                    }
                ]
            }
        ]
    },
    "profile": {
        "basic_info": {
            "baseFee": "",
            "blockNumber": 5365135,
            "callData": "0xa9059cbb0000000000000000000000006cc5f688a315f3dc28a7781717a9a798a59fda7b00000000000000000000000000000000000000000000000ae53770df54a1afff",
            "debugEnable": true,
            "errorInfo": "",
            "eventCount": 1,
            "feeRecipient": "0xea674fdde714fd979de3edf0f56aa9716b898ec8",
            "formatValue": "0",
            "gasLimit": 168000,
            "gasPrice": "50",
            "gasUsed": 40919,
            "intTxnCount": 2,
            "internalRevert": false,
            "internalRevertMessage": "",
            "isContractCreation": false,
            "isFlashloan": false,
            "maxFee": "",
            "nonce": 662,
            "overwritedBlockNumber": -1,
            "priorityFee": "",
            "receiver": "0x6c2adc2073994fb2ccc5032cc2906fa221e9b391",
            "revertMessage": "",
            "sender": "0xcd2bf636ce40abdf0229cd8b4fb43120a3bb9b24",
            "simulationEnable": true,
            "sourceTxnHash": "0x9de28d694a7ad914d0af1227c7a54954b808d4bc1d0991d899dbcbe5b9e5c400",
            "status": true,
            "timestamp": "2018-04-02T05:06:50Z",
            "transactionFee": "0.00204595",
            "txnHash": "0x9de28d694a7ad914d0af1227c7a54954b808d4bc1d0991d899dbcbe5b9e5c400",
            "txnIndex": 1,
            "type": 0,
            "value": "0"
        },
        "fund_flow": [
            {
                "amount": "200.984234999999999999",
                "from": "0xcd2bf636ce40abdf0229cd8b4fb43120a3bb9b24",
                "id": 1,
                "isERC1155": false,
                "isERC721": false,
                "isReverted": false,
                "order": 1,
                "to": "0x6cc5f688a315f3dc28a7781717a9a798a59fda7b",
                "token": "0x6c2adc2073994fb2ccc5032cc2906fa221e9b391"
            }
        ],
        "token_infos": [
            {
                "address": "0xc02aaa39b223fe8d0a0e5c4f27ead9083c756cc2",
                "decimals": 18
            },
            {
                "address": "0xeeeeeeeeeeeeeeeeeeeeeeeeeeeeeeeeeeeeeeee",
                "decimals": 18
            },
            {
                "address": "0x6c2adc2073994fb2ccc5032cc2906fa221e9b391",
                "decimals": 18
            }
        ]
    },
    "address_label": {
        "labels": [
            {
                "address": "0x19d07141c1ac170630ddf66835ec28a79bc53ee0",
                "label": "Math"
            },
            {
                "address": "0x0000000000000000000000000000000000000001",
                "label": "Precompiled"
            },
            {
                "address": "0x0000000000000000000000000000000000000002",
                "label": "Precompiled"
            },
            {
                "address": "0x0000000000000000000000000000000000000003",
                "label": "Precompiled"
            },
            {
                "address": "0x0000000000000000000000000000000000000004",
                "label": "Precompiled"
            },
            {
                "address": "0xeeeeeeeeeeeeeeeeeeeeeeeeeeeeeeeeeeeeeeee",
                "label": "Ether"
            },
            {
                "address": "0x6cc5f688a315f3dc28a7781717a9a798a59fda7b",
                "label": "OKX"
            },
            {
                "address": "0x6c2adc2073994fb2ccc5032cc2906fa221e9b391",
                "label": "Delphy Token"
            }
        ]
    },
    "trace": {
        "accountLabels": null,
        "dataMap": {
            "-1": {
                "invocation": {
                    "address": "0xcd2bf636ce40abdf0229cd8b4fb43120a3bb9b24",
                    "callData": "",
                    "decodedMethod": null,
                    "errorInfo": "",
                    "fromAddress": "",
                    "gasUsed": 0,
                    "id": -1,
                    "methodDecoded": false,
                    "operation": "",
                    "output": "",
                    "revert": false,
                    "revertMessage": "",
                    "selector": "",
                    "status": false,
                    "value": ""
                },
                "nodeType": 0
            },
            "0": {
                "invocation": {
                    "address": "0x6c2adc2073994fb2ccc5032cc2906fa221e9b391",
                    "callData": "0x0000000000000000000000006cc5f688a315f3dc28a7781717a9a798a59fda7b00000000000000000000000000000000000000000000000ae53770df54a1afff",
                    "decodedMethod": {
                        "callParams": [
                            {
                                "name": "to",
                                "type": "address",
                                "value": "0x6cc5f688a315f3dc28a7781717a9a798a59fda7b"
                            },
                            {
                                "decimalAvailable": true,
                                "name": "value",
                                "type": "uint256",
                                "value": "200,984,234,999,999,999,999"
                            }
                        ],
                        "constructorArguments": "",
                        "name": "transfer",
                        "returnParams": [
                            {
                                "name": "",
                                "type": "bool",
                                "value": true
                            }
                        ],
                        "signature": "transfer(address,uint256)"
                    },
                    "errorInfo": "",
                    "fromAddress": "0xcd2bf636ce40abdf0229cd8b4fb43120a3bb9b24",
                    "gasUsed": 40919,
                    "id": 0,
                    "methodDecoded": true,
                    "operation": "CALL",
                    "output": "0x0000000000000000000000000000000000000000000000000000000000000001",
                    "revert": false,
                    "revertMessage": "",
                    "selector": "0xa9059cbb",
                    "status": true,
                    "value": "0"
                },
                "nodeType": 0
            },
            "1": {
                "invocation": {
                    "address": "0x19d07141c1ac170630ddf66835ec28a79bc53ee0",
                    "callData": "0x00000000000000000000000000000000000000000000000ae53770df54a1b00900000000000000000000000000000000000000000000000ae53770df54a1afff",
                    "decodedMethod": {
                        "callParams": [
                            {
                                "name": "a",
                                "type": "uint256",
                                "value": "200,984,235,000,000,000,009"
                            },
                            {
                                "name": "b",
                                "type": "uint256",
                                "value": "200,984,234,999,999,999,999"
                            }
                        ],
                        "constructorArguments": "",
                        "name": "safeToSub",
                        "returnParams": [
                            {
                                "name": "",
                                "type": "bool",
                                "value": true
                            }
                        ],
                        "signature": "safeToSub(uint256,uint256)"
                    },
                    "errorInfo": "",
                    "fromAddress": "0x6c2adc2073994fb2ccc5032cc2906fa221e9b391",
                    "gasUsed": 296,
                    "id": 1,
                    "methodDecoded": true,
                    "operation": "DELEGATECALL",
                    "output": "0x0000000000000000000000000000000000000000000000000000000000000001",
                    "revert": false,
                    "revertMessage": "",
                    "selector": "0xe31c71c4",
                    "status": true,
                    "value": "0"
                },
                "nodeType": 0
            },
            "2": {
                "invocation": {
                    "address": "0x19d07141c1ac170630ddf66835ec28a79bc53ee0",
                    "callData": "0x0000000000000000000000000000000000000000000001ec553494bdcbbb3ffd00000000000000000000000000000000000000000000000ae53770df54a1afff",
                    "decodedMethod": {
                        "callParams": [
                            {
                                "name": "a",
                                "type": "uint256",
                                "value": "9,081,937,779,999,999,999,997"
                            },
                            {
                                "name": "b",
                                "type": "uint256",
                                "value": "200,984,234,999,999,999,999"
                            }
                        ],
                        "constructorArguments": "",
                        "name": "safeToAdd",
                        "returnParams": [
                            {
                                "name": "",
                                "type": "bool",
                                "value": true
                            }
                        ],
                        "signature": "safeToAdd(uint256,uint256)"
                    },
                    "errorInfo": "",
                    "fromAddress": "0x6c2adc2073994fb2ccc5032cc2906fa221e9b391",
                    "gasUsed": 195,
                    "id": 2,
                    "methodDecoded": true,
                    "operation": "DELEGATECALL",
                    "output": "0x0000000000000000000000000000000000000000000000000000000000000001",
                    "revert": false,
                    "revertMessage": "",
                    "selector": "0x4e30a66c",
                    "status": true,
                    "value": "0"
                },
                "nodeType": 0
            },
            "3": {
                "event": {
                    "contract": "0x6c2adc2073994fb2ccc5032cc2906fa221e9b391",
                    "decodedLog": {
                        "name": "Transfer",
                        "params": [
                            {
                                "name": "from",
                                "type": "address",
                                "value": "0xcd2bf636ce40abdf0229cd8b4fb43120a3bb9b24"
                            },
                            {
                                "name": "to",
                                "type": "address",
                                "value": "0x6cc5f688a315f3dc28a7781717a9a798a59fda7b"
                            },
                            {
                                "decimalAvailable": true,
                                "name": "value",
                                "type": "uint256",
                                "value": "200,984,234,999,999,999,999"
                            }
                        ],
                        "signature": "Transfer(address,address,uint256)"
                    },
                    "id": 3,
                    "logData": "0x00000000000000000000000000000000000000000000000ae53770df54a1afff",
                    "logDecoded": true,
                    "operation": "EVENT",
                    "revert": false,
                    "status": true,
                    "topics": [
                        "0xddf252ad1be2c89b69c2b068fc378daa952ba7f163c4a11628f55a4df523b3ef",
                        "0x000000000000000000000000cd2bf636ce40abdf0229cd8b4fb43120a3bb9b24",
                        "0x0000000000000000000000006cc5f688a315f3dc28a7781717a9a798a59fda7b"
                    ]
                },
                "nodeType": 1
            }
        },
        "gasFlame": [
            {
                "children": [
                    {
                        "children": [
                            {
                                "children": [],
                                "depth": 0,
                                "name": "Initial Gas",
                                "value": 23384
                            },
                            {
                                "children": [
                                    {
                                        "children": [],
                                        "depth": 1,
                                        "name": "safeToSub",
                                        "value": 296
                                    },
                                    {
                                        "children": [],
                                        "depth": 1,
                                        "name": "safeToAdd",
                                        "value": 195
                                    }
                                ],
                                "depth": 0,
                                "name": "Executed Gas",
                                "value": 17535
                            }
                        ],
                        "depth": -1,
                        "name": "Actual Gas Used",
                        "value": 40919
                    },
                    {
                        "children": [],
                        "depth": -1,
                        "name": "Refunded Gas",
                        "value": 0
                    }
                ],
                "depth": -2,
                "name": "Total Gas",
                "value": 40919
            }
        ],
        "isConfirmed": true,
        "mainTrace": [
            {
                "children": [
                    {
                        "children": [
                            {
                                "children": [],
                                "depth": 1,
                                "id": 1,
                                "order": 1
                            },
                            {
                                "children": [],
                                "depth": 1,
                                "id": 2,
                                "order": 2
                            },
                            {
                                "children": [],
                                "depth": 1,
                                "id": 3,
                                "order": 3
                            }
                        ],
                        "depth": 0,
                        "id": 0,
                        "order": 0
                    }
                ],
                "depth": -1,
                "id": -1,
                "order": -1
            }
        ],
        "mainTraceNodeCount": 4,
        "parentIdMap": {
            "0": -1,
            "1": 0,
            "2": 0,
            "3": 0
        },
        "tidyTrace": [
            {
                "children": [
                    {
                        "children": [
                            {
                                "children": [],
                                "depth": 1,
                                "id": 1,
                                "order": 1
                            },
                            {
                                "children": [],
                                "depth": 1,
                                "id": 2,
                                "order": 2
                            },
                            {
                                "children": [],
                                "depth": 1,
                                "id": 3,
                                "order": 3
                            }
                        ],
                        "depth": 0,
                        "id": 0,
                        "order": 0
                    }
                ],
                "depth": -1,
                "id": -1,
                "order": -1
            }
        ],
        "tidyTraceNodeCount": 4
    },
    "state_change": {
        "stateChanges": [
            {
                "address": "0x6c2adc2073994fb2ccc5032cc2906fa221e9b391",
                "erc": "ERC-20",
                "slots": [
                    {
                        "current": "0x000000000000000000000000000000000000000000000000000000000000000a",
                        "key": "0x0a945b83fd7e0a414c856d6dd6d3262d89a2d9d22f90e19f7b7ec4a2b8cb9f5a",
                        "prev": "0x00000000000000000000000000000000000000000000000ae53770df54a1b009"
                    },
                    {
                        "current": "0x0000000000000000000000000000000000000000000001f73a6c059d205ceffc",
                        "key": "0xb0c86e9b81cc33f480ad0d1717460fbad99accc1c5deec69a6063d6af332ad0c",
                        "prev": "0x0000000000000000000000000000000000000000000001ec553494bdcbbb3ffd"
                    }
                ],
                "storageVariables": [
                    {
                        "name": "balances",
                        "type": "mapping(address => uint256)",
                        "value": {
                            "pairs": [
                                {
                                    "key": "0x6cc5f688a315f3dc28a7781717a9a798a59fda7b",
                                    "value": {
                                        "current": "9282922014999999999996",
                                        "prev": "9081937779999999999997",
                                        "typeTag": 1
                                    }
                                },
                                {
                                    "key": "0xcd2bf636ce40abdf0229cd8b4fb43120a3bb9b24",
                                    "value": {
                                        "current": "10",
                                        "prev": "200984235000000000009",
                                        "typeTag": 1
                                    }
                                }
                            ],
                            "typeTag": 4
                        }
                    }
                ]
            }
        ]
    }
}