{
    "balance_change": {
        "balanceChanges": []
    },
    "profile": {
        "basic_info": {
            "baseFee": "48.22082857",
            "blockNumber": 14283466,
            "callData": "0xa22cb4650000000000000000000000009a38ef5d3b87faaba34f7611af31e4ba2ff97e700000000000000000000000000000000000000000000000000000000000000001",
            "debugEnable": true,
            "errorInfo": "",
            "eventCount": 1,
            "feeRecipient": "0x249bdb4499bd7c683664c149276c1d86108e2137",
            "formatValue": "0",
            "gasLimit": 51547,
            "gasPrice": "49.72082857",
            "gasUsed": 51203,
            "intTxnCount": 1,
            "internalRevert": false,
            "internalRevertMessage": "",
            "isContractCreation": false,
            "isFlashloan": false,
            "maxFee": "56.367376257",
            "nonce": 1390,
            "overwritedBlockNumber": -1,
            "priorityFee": "1.5",
            "receiver": "0x59a498d8cb5f0028591c865c44f55e30b76c9611",
            "revertMessage": "",
            "sender": "0x3c6b176c1e44d5423fd946f876fa9a1793df4c3e",
            "simulationEnable": true,
            "sourceTxnHash": "0x9d7b63429608320114c66174bedfd0b4de67cf804745834e079d6ba78943b2e5",
            "status": true,
            "timestamp": "2022-02-26T18:47:21Z",
            "transactionFee": "0.00254585558526971",
            "txnHash": "0x9d7b63429608320114c66174bedfd0b4de67cf804745834e079d6ba78943b2e5",
            "txnIndex": 4,
            "type": 2,
            "value": "0"
        },
        "fund_flow": [],
        "token_infos": [
            {
                "address": "0xc02aaa39b223fe8d0a0e5c4f27ead9083c756cc2",
                "decimals": 18
            },
            {
                "address": "0xeeeeeeeeeeeeeeeeeeeeeeeeeeeeeeeeeeeeeeee",
                "decimals": 18
            }
        ]
    },
    "address_label": {
        "labels": [
            {
                "address": "0x0000000000000000000000000000000000000002",
                "label": "Precompiled"
            },
            {
                "address": "0x0000000000000000000000000000000000000003",
                "label": "Precompiled"
            },
            {
                "address": "0x0000000000000000000000000000000000000004",
                "label": "Precompiled"
            },
            {
                "address": "0xeeeeeeeeeeeeeeeeeeeeeeeeeeeeeeeeeeeeeeee",
                "label": "Ether"
            },
            {
                "address": "0x59573dccbdcf66e8f2df6ed8b4e388b374ba278f",
                "label": "BlueprintV11"
            },
            {
                "address": "0x59a498d8cb5f0028591c865c44f55e30b76c9611",
                "label": "TOKYO PUNKS by SABET: TOKYO-PUNKS Token"
            },
            {
                "address": "0x0000000000000000000000000000000000000001",
                "label": "Precompiled"
            }
        ]
    },
    "trace": {
        "accountLabels": null,
        "dataMap": {
            "-1": {
                "invocation": {
                    "address": "0x3c6b176c1e44d5423fd946f876fa9a1793df4c3e",
                    "callData": "",
                    "decodedMethod": null,
                    "errorInfo": "",
                    "fromAddress": "",
                    "gasUsed": 0,
                    "id": -1,
                    "methodDecoded": false,
                    "operation": "",
                    "output": "",
                    "revert": false,
                    "revertMessage": "",
                    "selector": "",
                    "status": false,
                    "value": ""
                },
                "nodeType": 0
            },
            "0": {
                "invocation": {
                    "address": "0x59a498d8cb5f0028591c865c44f55e30b76c9611",
                    "callData": "0x0000000000000000000000009a38ef5d3b87faaba34f7611af31e4ba2ff97e700000000000000000000000000000000000000000000000000000000000000001",
                    "decodedMethod": {
                        "callParams": [
                            {
                                "name": "operator",
                                "type": "address",
                                "value": "0x9a38ef5d3b87faaba34f7611af31e4ba2ff97e70"
                            },
                            {
                                "name": "approved",
                                "type": "bool",
                                "value": true
                            }
                        ],
                        "constructorArguments": "",
                        "name": "setApprovalForAll",
                        "returnParams": [],
                        "signature": "setApprovalForAll(address,bool)"
                    },
                    "errorInfo": "",
                    "fromAddress": "0x3c6b176c1e44d5423fd946f876fa9a1793df4c3e",
                    "gasUsed": 51203,
                    "id": 0,
                    "methodDecoded": true,
                    "operation": "CALL",
                    "output": "",
                    "revert": false,
                    "revertMessage": "",
                    "selector": "0xa22cb465",
                    "status": true,
                    "value": "0"
                },
                "nodeType": 0
            },
            "1": {
                "invocation": {
                    "address": "0x59573dccbdcf66e8f2df6ed8b4e388b374ba278f",
                    "callData": "0x0000000000000000000000009a38ef5d3b87faaba34f7611af31e4ba2ff97e700000000000000000000000000000000000000000000000000000000000000001",
                    "decodedMethod": {
                        "callParams": [
                            {
                                "name": "operator",
                                "type": "address",
                                "value": "0x9a38ef5d3b87faaba34f7611af31e4ba2ff97e70"
                            },
                            {
                                "name": "approved",
                                "type": "bool",
                                "value": true
                            }
                        ],
                        "constructorArguments": "",
                        "name": "setApprovalForAll",
                        "returnParams": [],
                        "signature": "setApprovalForAll(address,bool)"
                    },
                    "errorInfo": "",
                    "fromAddress": "0x59a498d8cb5f0028591c865c44f55e30b76c9611",
                    "gasUsed": 24676,
                    "id": 1,
                    "methodDecoded": true,
                    "operation": "DELEGATECALL",
                    "output": "",
                    "revert": false,
                    "revertMessage": "",
                    "selector": "0xa22cb465",
                    "status": true,
                    "value": "0"
                },
                "nodeType": 0
            },
            "2": {
                "event": {
                    "contract": "0x59a498d8cb5f0028591c865c44f55e30b76c9611",
                    "decodedLog": {
                        "name": "ApprovalForAll",
                        "params": [
                            {
                                "name": "owner",
                                "type": "address",
                                "value": "0x3c6b176c1e44d5423fd946f876fa9a1793df4c3e"
                            },
                            {
                                "name": "operator",
                                "type": "address",
                                "value": "0x9a38ef5d3b87faaba34f7611af31e4ba2ff97e70"
                            },
                            {
                                "name": "approved",
                                "type": "bool",
                                "value": true
                            }
                        ],
                        "signature": "ApprovalForAll(address,address,bool)"
                    },
                    "id": 2,
                    "logData": "0x0000000000000000000000000000000000000000000000000000000000000001",
                    "logDecoded": true,
                    "operation": "EVENT",
                    "revert": false,
                    "status": true,
                    "topics": [
                        "0x17307eab39ab6107e8899845ad3d59bd9653f200f220920489ca2b5937696c31",
                        "0x0000000000000000000000003c6b176c1e44d5423fd946f876fa9a1793df4c3e",
                        "0x0000000000000000000000009a38ef5d3b87faaba34f7611af31e4ba2ff97e70"
                    ]
                },
                "nodeType": 1
            }
        },
        "gasFlame": [
            {
                "children": [
                    {
                        "children": [
                            {
                                "children": [],
                                "depth": 0,
                                "name": "Initial Gas",
                                "value": 21572
                            },
                            {
                                "children": [
                                    {
                                        "children": [],
                                        "depth": 1,
                                        "name": "setApprovalForAll",
                                        "value": 24676
                                    }
                                ],
                                "depth": 0,
                                "name": "Executed Gas",
                                "value": 29631
                            }
                        ],
                        "depth": -1,
                        "name": "Actual Gas Used",
                        "value": 51203
                    },
                    {
                        "children": [],
                        "depth": -1,
                        "name": "Refunded Gas",
                        "value": 0
                    }
                ],
                "depth": -2,
                "name": "Total Gas",
                "value": 51203
            }
        ],
        "isConfirmed": true,
        "mainTrace": [
            {
                "children": [
                    {
                        "children": [
                            {
                                "children": [
                                    {
                                        "children": [],
                                        "depth": 2,
                                        "id": 2,
                                        "order": 2
                                    }
                                ],
                                "depth": 1,
                                "id": 1,
                                "order": 1
                            }
                        ],
                        "depth": 0,
                        "id": 0,
                        "order": 0
                    }
                ],
                "depth": -1,
                "id": -1,
                "order": -1
            }
        ],
        "mainTraceNodeCount": 3,
        "parentIdMap": {
            "0": -1,
            "1": 0,
            "2": 1
        },
        "tidyTrace": [
            {
                "children": [
                    {
                        "children": [
                            {
                                "children": [
                                    {
                                        "children": [],
                                        "depth": 2,
                                        "id": 2,
                                        "order": 2
                                    }
                                ],
                                "depth": 1,
                                "id": 1,
                                "order": 1
                            }
                        ],
                        "depth": 0,
                        "id": 0,
                        "order": 0
                    }
                ],
                "depth": -1,
                "id": -1,
                "order": -1
            }
        ],
        "tidyTraceNodeCount": 3
    },
    "state_change": {
        "stateChanges": [
            {
                "address": "0x59a498d8cb5f0028591c865c44f55e30b76c9611",
                "erc": "ERC-721",
                "slots": [
                    {
                        "current": "0x0000000000000000000000000000000000000000000000000000000000000001",
                        "key": "0x77d163841709cfeece2b486528c3f2027bdaa604d56232465a3661d9c0a23752",
                        "prev": "0x0000000000000000000000000000000000000000000000000000000000000000"
                    }
                ],
                "storageVariables": [
                    {
                        "name": "_operatorApprovals",
                        "type": "mapping(address => mapping(address => bool))",
                        "value": {
                            "pairs": [
                                {
                                    "key": "0x3c6b176c1e44d5423fd946f876fa9a1793df4c3e",
                                    "value": {
                                        "pairs": [
                                            {
                                                "key": "0x9a38ef5d3b87faaba34f7611af31e4ba2ff97e70",
                                                "value": {
                                                    "current": "true",
                                                    "prev": "false",
                                                    "typeTag": 1
                                                }
                                            }
                                        ],
                                        "typeTag": 4
                                    }
                                }
                            ],
                            "typeTag": 4
                        }
                    }
                ]
            }
        ]
    }
}