{
    "balance_change": {
        "balanceChanges": [
            {
                "account": "0x8f33f0aa7ceb91fd1ed695cdbda59a93cd4c28c8",
                "assets": [
                    {
                        "address": "0x923c90b98ee834d118c85ddf44906ee1769df648",
                        "amount": "2,020,202.020202",
                        "iconUrl": "",
                        "isERC1155": false,
                        "isERC721": false,
                        "sign": true,
                        "value": ""
                    }
                ]
            },
            {
                "account": "0x923c90b98ee834d118c85ddf44906ee1769df648",
                "assets": [
                    {
                        "address": "0x923c90b98ee834d118c85ddf44906ee1769df648",
                        "amount": "3,030,303.030303",
                        "iconUrl": "",
                        "isERC1155": false,
                        "isERC721": false,
                        "sign": false,
                        "value": ""
                    }
                ]
            },
            {
                "account": "0xdf166db810779b87ffed5faccd4b6ddfb61a353d",
                "assets": [
                    {
                        "address": "0x923c90b98ee834d118c85ddf44906ee1769df648",
                        "amount": "1,010,101.010101",
                        "iconUrl": "",
                        "isERC1155": false,
                        "isERC721": false,
                        "sign": true,
                        "value": ""
                    }
                ]
            }
        ]
    },
    "profile": {
        "basic_info": {
            "baseFee": "",
            "blockNumber": 9142729,
            "callData": "0x069f5bdd000000000000000000000000df166db810779b87ffed5faccd4b6ddfb61a353d",
            "debugEnable": true,
            "errorInfo": "",
            "eventCount": 2,
            "feeRecipient": "0x5a0b54d5dc17e0aadc383d2db43b0a0d3e029c4c",
            "formatValue": "0",
            "gasLimit": 65396,
            "gasPrice": "1",
            "gasUsed": 60396,
            "intTxnCount": 0,
            "internalRevert": false,
            "internalRevertMessage": "",
            "isContractCreation": false,
            "isFlashloan": false,
            "maxFee": "",
            "nonce": 94,
            "overwritedBlockNumber": -1,
            "priorityFee": "",
            "receiver": "0x923c90b98ee834d118c85ddf44906ee1769df648",
            "revertMessage": "",
            "sender": "0x8f33f0aa7ceb91fd1ed695cdbda59a93cd4c28c8",
            "simulationEnable": true,
            "sourceTxnHash": "0x9dbd886967bf77a877f0c110831498f135ece3a431ccf846465ca813bbe7a22c",
            "status": true,
            "timestamp": "2019-12-21T22:25:43Z",
            "transactionFee": "0.000060396",
            "txnHash": "0x9dbd886967bf77a877f0c110831498f135ece3a431ccf846465ca813bbe7a22c",
            "txnIndex": 24,
            "type": 0,
            "value": "0"
        },
        "fund_flow": [
            {
                "amount": "1,010,101.010101",
                "from": "0x923c90b98ee834d118c85ddf44906ee1769df648",
                "id": 1,
                "isERC1155": false,
                "isERC721": false,
                "isReverted": false,
                "order": 1,
                "to": "0xdf166db810779b87ffed5faccd4b6ddfb61a353d",
                "token": "0x923c90b98ee834d118c85ddf44906ee1769df648"
            },
            {
                "amount": "2,020,202.020202",
                "from": "0x923c90b98ee834d118c85ddf44906ee1769df648",
                "id": 2,
                "isERC1155": false,
                "isERC721": false,
                "isReverted": false,
                "order": 2,
                "to": "0x8f33f0aa7ceb91fd1ed695cdbda59a93cd4c28c8",
                "token": "0x923c90b98ee834d118c85ddf44906ee1769df648"
            }
        ],
        "token_infos": [
            {
                "address": "0xc02aaa39b223fe8d0a0e5c4f27ead9083c756cc2",
                "decimals": 18
            },
            {
                "address": "0xeeeeeeeeeeeeeeeeeeeeeeeeeeeeeeeeeeeeeeee",
                "decimals": 18
            },
            {
                "address": "0x923c90b98ee834d118c85ddf44906ee1769df648",
                "decimals": 6
            }
        ]
    },
    "address_label": {
        "labels": [
            {
                "address": "0x0000000000000000000000000000000000000001",
                "label": "Precompiled"
            },
            {
                "address": "0x0000000000000000000000000000000000000002",
                "label": "Precompiled"
            },
            {
                "address": "0x0000000000000000000000000000000000000003",
                "label": "Precompiled"
            },
            {
                "address": "0x0000000000000000000000000000000000000004",
                "label": "Precompiled"
            },
            {
                "address": "0xeeeeeeeeeeeeeeeeeeeeeeeeeeeeeeeeeeeeeeee",
                "label": "Ether"
            },
            {
                "address": "0x923c90b98ee834d118c85ddf44906ee1769df648",
                "label": "Qitcoin (QTC)"
            }
        ]
    },
    "trace": {
        "accountLabels": null,
        "dataMap": {
            "-1": {
                "invocation": {
                    "address": "0x8f33f0aa7ceb91fd1ed695cdbda59a93cd4c28c8",
                    "callData": "",
                    "decodedMethod": null,
                    "errorInfo": "",
                    "fromAddress": "",
                    "gasUsed": 0,
                    "id": -1,
                    "methodDecoded": false,
                    "operation": "",
                    "output": "",
                    "revert": false,
                    "revertMessage": "",
                    "selector": "",
                    "status": false,
                    "value": ""
                },
                "nodeType": 0
            },
            "0": {
                "invocation": {
                    "address": "0x923c90b98ee834d118c85ddf44906ee1769df648",
                    "callData": "0x000000000000000000000000df166db810779b87ffed5faccd4b6ddfb61a353d",
                    "decodedMethod": {
                        "callParams": [
                            {
                                "name": "_refer",
                                "type": "address",
                                "value": "0xdf166db810779b87ffed5faccd4b6ddfb61a353d"
                            }
                        ],
                        "constructorArguments": "",
                        "name": "getAirdrop",
                        "returnParams": [
                            {
                                "name": "success",
                                "type": "bool",
                                "value": true
                            }
                        ],
                        "signature": "getAirdrop(address)"
                    },
                    "errorInfo": "",
                    "fromAddress": "0x8f33f0aa7ceb91fd1ed695cdbda59a93cd4c28c8",
                    "gasUsed": 60396,
                    "id": 0,
                    "methodDecoded": true,
                    "operation": "CALL",
                    "output": "0x0000000000000000000000000000000000000000000000000000000000000001",
                    "revert": false,
                    "revertMessage": "",
                    "selector": "0x069f5bdd",
                    "status": true,
                    "value": "0"
                },
                "nodeType": 0
            },
            "1": {
                "event": {
                    "contract": "0x923c90b98ee834d118c85ddf44906ee1769df648",
                    "decodedLog": {
                        "name": "Transfer",
                        "params": [
                            {
                                "name": "from",
                                "type": "address",
                                "value": "0x923c90b98ee834d118c85ddf44906ee1769df648"
                            },
                            {
                                "name": "to",
                                "type": "address",
                                "value": "0xdf166db810779b87ffed5faccd4b6ddfb61a353d"
                            },
                            {
                                "decimalAvailable": true,
                                "name": "tokens",
                                "type": "uint256",
                                "value": "1,010,101,010,101"
                            }
                        ],
                        "signature": "Transfer(address,address,uint256)"
                    },
                    "id": 1,
                    "logData": "0x000000000000000000000000000000000000000000000000000000eb2eb63eb5",
                    "logDecoded": true,
                    "operation": "EVENT",
                    "revert": false,
                    "status": true,
                    "topics": [
                        "0xddf252ad1be2c89b69c2b068fc378daa952ba7f163c4a11628f55a4df523b3ef",
                        "0x000000000000000000000000923c90b98ee834d118c85ddf44906ee1769df648",
                        "0x000000000000000000000000df166db810779b87ffed5faccd4b6ddfb61a353d"
                    ]
                },
                "nodeType": 1
            },
            "2": {
                "event": {
                    "contract": "0x923c90b98ee834d118c85ddf44906ee1769df648",
                    "decodedLog": {
                        "name": "Transfer",
                        "params": [
                            {
                                "name": "from",
                                "type": "address",
                                "value": "0x923c90b98ee834d118c85ddf44906ee1769df648"
                            },
                            {
                                "name": "to",
                                "type": "address",
                                "value": "0x8f33f0aa7ceb91fd1ed695cdbda59a93cd4c28c8"
                            },
                            {
                                "decimalAvailable": true,
                                "name": "tokens",
                                "type": "uint256",
                                "value": "2,020,202,020,202"
                            }
                        ],
                        "signature": "Transfer(address,address,uint256)"
                    },
                    "id": 2,
                    "logData": "0x000000000000000000000000000000000000000000000000000001d65d6c7d6a",
                    "logDecoded": true,
                    "operation": "EVENT",
                    "revert": false,
                    "status": true,
                    "topics": [
                        "0xddf252ad1be2c89b69c2b068fc378daa952ba7f163c4a11628f55a4df523b3ef",
                        "0x000000000000000000000000923c90b98ee834d118c85ddf44906ee1769df648",
                        "0x0000000000000000000000008f33f0aa7ceb91fd1ed695cdbda59a93cd4c28c8"
                    ]
                },
                "nodeType": 1
            }
        },
        "gasFlame": [
            {
                "children": [
                    {
                        "children": [
                            {
                                "children": [],
                                "depth": 0,
                                "name": "Initial Gas",
                                "value": 21432
                            },
                            {
                                "children": [],
                                "depth": 0,
                                "name": "Executed Gas",
                                "value": 38964
                            }
                        ],
                        "depth": -1,
                        "name": "Actual Gas Used",
                        "value": 60396
                    },
                    {
                        "children": [],
                        "depth": -1,
                        "name": "Refunded Gas",
                        "value": 0
                    }
                ],
                "depth": -2,
                "name": "Total Gas",
                "value": 60396
            }
        ],
        "isConfirmed": true,
        "mainTrace": [
            {
                "children": [
                    {
                        "children": [
                            {
                                "children": [],
                                "depth": 1,
                                "id": 1,
                                "order": 1
                            },
                            {
                                "children": [],
                                "depth": 1,
                                "id": 2,
                                "order": 2
                            }
                        ],
                        "depth": 0,
                        "id": 0,
                        "order": 0
                    }
                ],
                "depth": -1,
                "id": -1,
                "order": -1
            }
        ],
        "mainTraceNodeCount": 3,
        "parentIdMap": {
            "0": -1,
            "1": 0,
            "2": 0
        },
        "tidyTrace": [
            {
                "children": [
                    {
                        "children": [
                            {
                                "children": [],
                                "depth": 1,
                                "id": 1,
                                "order": 1
                            },
                            {
                                "children": [],
                                "depth": 1,
                                "id": 2,
                                "order": 2
                            }
                        ],
                        "depth": 0,
                        "id": 0,
                        "order": 0
                    }
                ],
                "depth": -1,
                "id": -1,
                "order": -1
            }
        ],
        "tidyTraceNodeCount": 3
    },
    "state_change": {
        "stateChanges": [
            {
                "address": "0x923c90b98ee834d118c85ddf44906ee1769df648",
                "erc": "ERC-20",
                "slots": [
                    {
                        "current": "0x0000000000000000000000000000000000000000000000000000ae8cab428a56",
                        "key": "0x9efa92ec3701ac61a1515f21cc22f10fcd03c3ff8e51e7a795173bfc487e3fce",
                        "prev": "0x0000000000000000000000000000000000000000000000000000acb64dd60cec"
                    },
                    {
                        "current": "0x0000000000000000000000000000000000000000000000000000000000002790",
                        "key": "0x000000000000000000000000000000000000000000000000000000000000000b",
                        "prev": "0x000000000000000000000000000000000000000000000000000000000000278f"
                    },
                    {
                        "current": "0x00000000000000000000000000000000000000000000000676a69556403c4380",
                        "key": "0xd47b7a6c191130aee8766331d37dfea5161e485881d7e0cb3469e5ff7cf7fdee",
                        "prev": "0x00000000000000000000000000000000000000000000000676a69817cc5eff9f"
                    },
                    {
                        "current": "0x00000000000000000000000000000000000000000000000000018bf3a4d392bd",
                        "key": "0xa370e05f9a7cf7e6410accb8bc7f752132cf37ac4d7f02d23e45407e4cbeaaa2",
                        "prev": "0x00000000000000000000000000000000000000000000000000018b08761d5408"
                    }
                ],
                "storageVariables": [
                    {
                        "name": "balances",
                        "type": "mapping(address => uint256)",
                        "value": {
                            "pairs": [
                                {
                                    "key": "0x8f33f0aa7ceb91fd1ed695cdbda59a93cd4c28c8",
                                    "value": {
                                        "current": "191919191919190",
                                        "prev": "189898989898988",
                                        "typeTag": 1
                                    }
                                },
                                {
                                    "key": "0x923c90b98ee834d118c85ddf44906ee1769df648",
                                    "value": {
                                        "current": "119230149582544192384",
                                        "prev": "119230152612847222687",
                                        "typeTag": 1
                                    }
                                },
                                {
                                    "key": "0xdf166db810779b87ffed5faccd4b6ddfb61a353d",
                                    "value": {
                                        "current": "435353535353533",
                                        "prev": "434343434343432",
                                        "typeTag": 1
                                    }
                                }
                            ],
                            "typeTag": 4
                        }
                    },
                    {
                        "name": "aTot",
                        "type": "uint256",
                        "value": {
                            "current": "10128",
                            "prev": "10127",
                            "typeTag": 1
                        }
                    }
                ]
            }
        ]
    }
}