{
    "balance_change": {
        "balanceChanges": [
            {
                "account": "0xd551234ae421e3bcba99a0da6d736074f22192ff",
                "assets": [
                    {
                        "address": "0x0f5d2fb29fb7d3cfee444a200298f468908cc942",
                        "amount": "74,968",
                        "iconUrl": "https://assets.blocksec.com/icon/54d64db7c4b21ad51c32e15fe06a87bf31831382d6c6aa49b4adb5dfaa42993c.png",
                        "isERC1155": false,
                        "isERC721": false,
                        "sign": false,
                        "value": "6011.810915"
                    }
                ]
            },
            {
                "account": "0x4d8346d46229ef4aa64c456a37b2661be272c772",
                "assets": [
                    {
                        "address": "0x0f5d2fb29fb7d3cfee444a200298f468908cc942",
                        "amount": "74,968",
                        "iconUrl": "https://assets.blocksec.com/icon/54d64db7c4b21ad51c32e15fe06a87bf31831382d6c6aa49b4adb5dfaa42993c.png",
                        "isERC1155": false,
                        "isERC721": false,
                        "sign": true,
                        "value": "6011.810915"
                    }
                ]
            }
        ]
    },
    "profile": {
        "basic_info": {
            "baseFee": "",
            "blockNumber": 10771489,
            "callData": "0xa9059cbb0000000000000000000000004d8346d46229ef4aa64c456a37b2661be272c772000000000000000000000000000000000000000000000fe005ff12834c600000",
            "debugEnable": true,
            "errorInfo": "",
            "eventCount": 1,
            "feeRecipient": "0x2a5994b501e6a560e727b6c2de5d856396aadd38",
            "formatValue": "0",
            "gasLimit": 207128,
            "gasPrice": "237",
            "gasUsed": 37449,
            "intTxnCount": 0,
            "internalRevert": false,
            "internalRevertMessage": "",
            "isContractCreation": false,
            "isFlashloan": false,
            "maxFee": "",
            "nonce": 2767350,
            "overwritedBlockNumber": -1,
            "priorityFee": "",
            "receiver": "0x0f5d2fb29fb7d3cfee444a200298f468908cc942",
            "revertMessage": "",
            "sender": "0xd551234ae421e3bcba99a0da6d736074f22192ff",
            "simulationEnable": true,
            "sourceTxnHash": "0x9d0d6cb5eaac8566377dc2be9dbae2dcee18f87ad356b9b650f0fc8205aca48c",
            "status": true,
            "timestamp": "2020-08-31T22:28:47Z",
            "transactionFee": "0.008875413",
            "txnHash": "0x9d0d6cb5eaac8566377dc2be9dbae2dcee18f87ad356b9b650f0fc8205aca48c",
            "txnIndex": 9,
            "type": 0,
            "value": "0"
        },
        "fund_flow": [
            {
                "amount": "74,968",
                "from": "0xd551234ae421e3bcba99a0da6d736074f22192ff",
                "id": 1,
                "isERC1155": false,
                "isERC721": false,
                "isReverted": false,
                "order": 1,
                "to": "0x4d8346d46229ef4aa64c456a37b2661be272c772",
                "token": "0x0f5d2fb29fb7d3cfee444a200298f468908cc942"
            }
        ],
        "token_infos": [
            {
                "address": "0x0f5d2fb29fb7d3cfee444a200298f468908cc942",
                "decimals": 18
            },
            {
                "address": "0xc02aaa39b223fe8d0a0e5c4f27ead9083c756cc2",
                "decimals": 18
            },
            {
                "address": "0xeeeeeeeeeeeeeeeeeeeeeeeeeeeeeeeeeeeeeeee",
                "decimals": 18
            }
        ]
    },
    "address_label": {
        "labels": [
            {
                "address": "0x0000000000000000000000000000000000000004",
                "label": "Precompiled"
            },
            {
                "address": "0xeeeeeeeeeeeeeeeeeeeeeeeeeeeeeeeeeeeeeeee",
                "label": "Ether"
            },
            {
                "address": "0x0f5d2fb29fb7d3cfee444a200298f468908cc942",
                "label": "Decentraland: MANA Token"
            },
            {
                "address": "0xd551234ae421e3bcba99a0da6d736074f22192ff",
                "label": "Binance 2"
            },
            {
                "address": "0x4d8346d46229ef4aa64c456a37b2661be272c772",
                "label": "UPBIT"
            },
            {
                "address": "0x0000000000000000000000000000000000000001",
                "label": "Precompiled"
            },
            {
                "address": "0x0000000000000000000000000000000000000002",
                "label": "Precompiled"
            },
            {
                "address": "0x0000000000000000000000000000000000000003",
                "label": "Precompiled"
            }
        ]
    },
    "trace": {
        "accountLabels": null,
        "dataMap": {
            "-1": {
                "invocation": {
                    "address": "0xd551234ae421e3bcba99a0da6d736074f22192ff",
                    "callData": "",
                    "decodedMethod": null,
                    "errorInfo": "",
                    "fromAddress": "",
                    "gasUsed": 0,
                    "id": -1,
                    "methodDecoded": false,
                    "operation": "",
                    "output": "",
                    "revert": false,
                    "revertMessage": "",
                    "selector": "",
                    "status": false,
                    "value": ""
                },
                "nodeType": 0
            },
            "0": {
                "invocation": {
                    "address": "0x0f5d2fb29fb7d3cfee444a200298f468908cc942",
                    "callData": "0x0000000000000000000000004d8346d46229ef4aa64c456a37b2661be272c772000000000000000000000000000000000000000000000fe005ff12834c600000",
                    "decodedMethod": {
                        "callParams": [
                            {
                                "name": "_to",
                                "type": "address",
                                "value": "0x4d8346d46229ef4aa64c456a37b2661be272c772"
                            },
                            {
                                "decimalAvailable": true,
                                "name": "_value",
                                "type": "uint256",
                                "value": "74,968,000,000,000,000,000,000"
                            }
                        ],
                        "constructorArguments": "",
                        "name": "transfer",
                        "returnParams": [
                            {
                                "name": "",
                                "type": "bool",
                                "value": true
                            }
                        ],
                        "signature": "transfer(address,uint256)"
                    },
                    "errorInfo": "",
                    "fromAddress": "0xd551234ae421e3bcba99a0da6d736074f22192ff",
                    "gasUsed": 37449,
                    "id": 0,
                    "methodDecoded": true,
                    "operation": "CALL",
                    "output": "0x0000000000000000000000000000000000000000000000000000000000000001",
                    "revert": false,
                    "revertMessage": "",
                    "selector": "0xa9059cbb",
                    "status": true,
                    "value": "0"
                },
                "nodeType": 0
            },
            "1": {
                "event": {
                    "contract": "0x0f5d2fb29fb7d3cfee444a200298f468908cc942",
                    "decodedLog": {
                        "name": "Transfer",
                        "params": [
                            {
                                "name": "from",
                                "type": "address",
                                "value": "0xd551234ae421e3bcba99a0da6d736074f22192ff"
                            },
                            {
                                "name": "to",
                                "type": "address",
                                "value": "0x4d8346d46229ef4aa64c456a37b2661be272c772"
                            },
                            {
                                "decimalAvailable": true,
                                "name": "value",
                                "type": "uint256",
                                "value": "74,968,000,000,000,000,000,000"
                            }
                        ],
                        "signature": "Transfer(address,address,uint256)"
                    },
                    "id": 1,
                    "logData": "0x000000000000000000000000000000000000000000000fe005ff12834c600000",
                    "logDecoded": true,
                    "operation": "EVENT",
                    "revert": false,
                    "status": true,
                    "topics": [
                        "0xddf252ad1be2c89b69c2b068fc378daa952ba7f163c4a11628f55a4df523b3ef",
                        "0x000000000000000000000000d551234ae421e3bcba99a0da6d736074f22192ff",
                        "0x0000000000000000000000004d8346d46229ef4aa64c456a37b2661be272c772"
                    ]
                },
                "nodeType": 1
            }
        },
        "gasFlame": [
            {
                "children": [
                    {
                        "children": [
                            {
                                "children": [],
                                "depth": 0,
                                "name": "Initial Gas",
                                "value": 21656
                            },
                            {
                                "children": [],
                                "depth": 0,
                                "name": "Executed Gas",
                                "value": 15793
                            }
                        ],
                        "depth": -1,
                        "name": "Actual Gas Used",
                        "value": 37449
                    },
                    {
                        "children": [],
                        "depth": -1,
                        "name": "Refunded Gas",
                        "value": 0
                    }
                ],
                "depth": -2,
                "name": "Total Gas",
                "value": 37449
            }
        ],
        "isConfirmed": true,
        "mainTrace": [
            {
                "children": [
                    {
                        "children": [
                            {
                                "children": [],
                                "depth": 1,
                                "id": 1,
                                "order": 1
                            }
                        ],
                        "depth": 0,
                        "id": 0,
                        "order": 0
                    }
                ],
                "depth": -1,
                "id": -1,
                "order": -1
            }
        ],
        "mainTraceNodeCount": 2,
        "parentIdMap": {
            "0": -1,
            "1": 0
        },
        "tidyTrace": [
            {
                "children": [
                    {
                        "children": [
                            {
                                "children": [],
                                "depth": 1,
                                "id": 1,
                                "order": 1
                            }
                        ],
                        "depth": 0,
                        "id": 0,
                        "order": 0
                    }
                ],
                "depth": -1,
                "id": -1,
                "order": -1
            }
        ],
        "tidyTraceNodeCount": 2
    },
    "state_change": {
        "stateChanges": [
            {
                "address": "0x0f5d2fb29fb7d3cfee444a200298f468908cc942",
                "erc": "ERC-20",
                "slots": [
                    {
                        "current": "0x00000000000000000000000000000000000000000000377fc3c5ef8fbabc0000",
                        "key": "0x58f81e9114b18571879ee19f1dcf2a076fc193cae436591fe2a014e2afba9730",
                        "prev": "0x00000000000000000000000000000000000000000000279fbdc6dd0c6e5c0000"
                    },
                    {
                        "current": "0x00000000000000000000000000000000000000000002ff343f1c43b9d8e76000",
                        "key": "0xf998ea9c0b98411650caecdde7c9db0627b6dcab50bc2f5bfbf9d3b669553844",
                        "prev": "0x000000000000000000000000000000000000000000030f14451b563d25476000"
                    }
                ],
                "storageVariables": []
            }
        ]
    }
}