{
    "balance_change": {
        "balanceChanges": [
            {
                "account": "0x68b384197e7cd486a17f2c30b2d6ba0d58f86626",
                "assets": [
                    {
                        "address": "0x66668757b73deecc5d7241ea8daf39b509de3ae9",
                        "amount": "34,000",
                        "iconUrl": "",
                        "isERC1155": false,
                        "isERC721": false,
                        "sign": false,
                        "value": ""
                    }
                ]
            },
            {
                "account": "0x9a05d81a394f309fe6abd8ee8e0679f275f78ca0",
                "assets": [
                    {
                        "address": "0x66668757b73deecc5d7241ea8daf39b509de3ae9",
                        "amount": "34,000",
                        "iconUrl": "",
                        "isERC1155": false,
                        "isERC721": false,
                        "sign": true,
                        "value": ""
                    }
                ]
            }
        ]
    },
    "profile": {
        "basic_info": {
            "baseFee": "",
            "blockNumber": 10385716,
            "callData": "0xa9059cbb0000000000000000000000009a05d81a394f309fe6abd8ee8e0679f275f78ca000000000000000000000000000000000000000000000073324c9144791400000",
            "debugEnable": true,
            "errorInfo": "",
            "eventCount": 1,
            "feeRecipient": "0x5a0b54d5dc17e0aadc383d2db43b0a0d3e029c4c",
            "formatValue": "0",
            "gasLimit": 100000,
            "gasPrice": "50",
            "gasUsed": 22832,
            "intTxnCount": 0,
            "internalRevert": false,
            "internalRevertMessage": "",
            "isContractCreation": false,
            "isFlashloan": false,
            "maxFee": "",
            "nonce": 4,
            "overwritedBlockNumber": -1,
            "priorityFee": "",
            "receiver": "0x66668757b73deecc5d7241ea8daf39b509de3ae9",
            "revertMessage": "",
            "sender": "0x68b384197e7cd486a17f2c30b2d6ba0d58f86626",
            "simulationEnable": true,
            "sourceTxnHash": "0x9deb9fab6070069f7080c2133e9ea8ee162dca8d675c4235d828472ea7cabfdc",
            "status": true,
            "timestamp": "2020-07-03T09:37:44Z",
            "transactionFee": "0.0011416",
            "txnHash": "0x9deb9fab6070069f7080c2133e9ea8ee162dca8d675c4235d828472ea7cabfdc",
            "txnIndex": 251,
            "type": 0,
            "value": "0"
        },
        "fund_flow": [
            {
                "amount": "34,000",
                "from": "0x68b384197e7cd486a17f2c30b2d6ba0d58f86626",
                "id": 1,
                "isERC1155": false,
                "isERC721": false,
                "isReverted": false,
                "order": 1,
                "to": "0x9a05d81a394f309fe6abd8ee8e0679f275f78ca0",
                "token": "0x66668757b73deecc5d7241ea8daf39b509de3ae9"
            }
        ],
        "token_infos": [
            {
                "address": "0x66668757b73deecc5d7241ea8daf39b509de3ae9",
                "decimals": 18
            },
            {
                "address": "0xc02aaa39b223fe8d0a0e5c4f27ead9083c756cc2",
                "decimals": 18
            },
            {
                "address": "0xeeeeeeeeeeeeeeeeeeeeeeeeeeeeeeeeeeeeeeee",
                "decimals": 18
            }
        ]
    },
    "address_label": {
        "labels": [
            {
                "address": "0x0000000000000000000000000000000000000003",
                "label": "Precompiled"
            },
            {
                "address": "0x0000000000000000000000000000000000000004",
                "label": "Precompiled"
            },
            {
                "address": "0xeeeeeeeeeeeeeeeeeeeeeeeeeeeeeeeeeeeeeeee",
                "label": "Ether"
            },
            {
                "address": "0x66668757b73deecc5d7241ea8daf39b509de3ae9",
                "label": "OrtaMineFund (OMF)"
            },
            {
                "address": "0x0000000000000000000000000000000000000001",
                "label": "Precompiled"
            },
            {
                "address": "0x0000000000000000000000000000000000000002",
                "label": "Precompiled"
            }
        ]
    },
    "trace": {
        "accountLabels": null,
        "dataMap": {
            "-1": {
                "invocation": {
                    "address": "0x68b384197e7cd486a17f2c30b2d6ba0d58f86626",
                    "callData": "",
                    "decodedMethod": null,
                    "errorInfo": "",
                    "fromAddress": "",
                    "gasUsed": 0,
                    "id": -1,
                    "methodDecoded": false,
                    "operation": "",
                    "output": "",
                    "revert": false,
                    "revertMessage": "",
                    "selector": "",
                    "status": false,
                    "value": ""
                },
                "nodeType": 0
            },
            "0": {
                "invocation": {
                    "address": "0x66668757b73deecc5d7241ea8daf39b509de3ae9",
                    "callData": "0x0000000000000000000000009a05d81a394f309fe6abd8ee8e0679f275f78ca000000000000000000000000000000000000000000000073324c9144791400000",
                    "decodedMethod": {
                        "callParams": [
                            {
                                "name": "_to",
                                "type": "address",
                                "value": "0x9a05d81a394f309fe6abd8ee8e0679f275f78ca0"
                            },
                            {
                                "decimalAvailable": true,
                                "name": "_value",
                                "type": "uint256",
                                "value": "34,000,000,000,000,000,000,000"
                            }
                        ],
                        "constructorArguments": "",
                        "name": "transfer",
                        "returnParams": [
                            {
                                "name": "success",
                                "type": "bool",
                                "value": true
                            }
                        ],
                        "signature": "transfer(address,uint256)"
                    },
                    "errorInfo": "",
                    "fromAddress": "0x68b384197e7cd486a17f2c30b2d6ba0d58f86626",
                    "gasUsed": 22832,
                    "id": 0,
                    "methodDecoded": true,
                    "operation": "CALL",
                    "output": "0x0000000000000000000000000000000000000000000000000000000000000001",
                    "revert": false,
                    "revertMessage": "",
                    "selector": "0xa9059cbb",
                    "status": true,
                    "value": "0"
                },
                "nodeType": 0
            },
            "1": {
                "event": {
                    "contract": "0x66668757b73deecc5d7241ea8daf39b509de3ae9",
                    "decodedLog": {
                        "name": "Transfer",
                        "params": [
                            {
                                "name": "_from",
                                "type": "address",
                                "value": "0x68b384197e7cd486a17f2c30b2d6ba0d58f86626"
                            },
                            {
                                "name": "_to",
                                "type": "address",
                                "value": "0x9a05d81a394f309fe6abd8ee8e0679f275f78ca0"
                            },
                            {
                                "decimalAvailable": true,
                                "name": "_value",
                                "type": "uint256",
                                "value": "34,000,000,000,000,000,000,000"
                            }
                        ],
                        "signature": "Transfer(address,address,uint256)"
                    },
                    "id": 1,
                    "logData": "0x00000000000000000000000000000000000000000000073324c9144791400000",
                    "logDecoded": true,
                    "operation": "EVENT",
                    "revert": false,
                    "status": true,
                    "topics": [
                        "0xddf252ad1be2c89b69c2b068fc378daa952ba7f163c4a11628f55a4df523b3ef",
                        "0x00000000000000000000000068b384197e7cd486a17f2c30b2d6ba0d58f86626",
                        "0x0000000000000000000000009a05d81a394f309fe6abd8ee8e0679f275f78ca0"
                    ]
                },
                "nodeType": 1
            }
        },
        "gasFlame": [
            {
                "children": [
                    {
                        "children": [
                            {
                                "children": [],
                                "depth": 0,
                                "name": "Initial Gas",
                                "value": 21656
                            },
                            {
                                "children": [],
                                "depth": 0,
                                "name": "Executed Gas",
                                "value": 16176
                            }
                        ],
                        "depth": -1,
                        "name": "Actual Gas Used",
                        "value": 22832
                    },
                    {
                        "children": [],
                        "depth": -1,
                        "name": "Refunded Gas",
                        "value": 15000
                    }
                ],
                "depth": -2,
                "name": "Total Gas",
                "value": 37832
            }
        ],
        "isConfirmed": true,
        "mainTrace": [
            {
                "children": [
                    {
                        "children": [
                            {
                                "children": [],
                                "depth": 1,
                                "id": 1,
                                "order": 1
                            }
                        ],
                        "depth": 0,
                        "id": 0,
                        "order": 0
                    }
                ],
                "depth": -1,
                "id": -1,
                "order": -1
            }
        ],
        "mainTraceNodeCount": 2,
        "parentIdMap": {
            "0": -1,
            "1": 0
        },
        "tidyTrace": [
            {
                "children": [
                    {
                        "children": [
                            {
                                "children": [],
                                "depth": 1,
                                "id": 1,
                                "order": 1
                            }
                        ],
                        "depth": 0,
                        "id": 0,
                        "order": 0
                    }
                ],
                "depth": -1,
                "id": -1,
                "order": -1
            }
        ],
        "tidyTraceNodeCount": 2
    },
    "state_change": {
        "stateChanges": [
            {
                "address": "0x66668757b73deecc5d7241ea8daf39b509de3ae9",
                "erc": "ERC-20",
                "slots": [
                    {
                        "current": "0x0000000000000000000000000000000000000000000000000000000000000000",
                        "key": "0xf6d7b1e20ae70a624ec81a9b33dd7b54c1dbb4f6425382a12120df2f0ce68a1e",
                        "prev": "0x00000000000000000000000000000000000000000000073324c9144791400000"
                    },
                    {
                        "current": "0x0000000000000000000000000000000000000000001ee7a2cfa06d715c58c000",
                        "key": "0x02d6253423809527d7e67969f928ddeaa78716ab1172d3003e0815c8792ce8f9",
                        "prev": "0x0000000000000000000000000000000000000000001ee06faad75929cb18c000"
                    }
                ],
                "storageVariables": [
                    {
                        "name": "balances",
                        "type": "mapping(address => uint256)",
                        "value": {
                            "pairs": [
                                {
                                    "key": "0x68b384197e7cd486a17f2c30b2d6ba0d58f86626",
                                    "value": {
                                        "current": "0",
                                        "prev": "34000000000000000000000",
                                        "typeTag": 1
                                    }
                                },
                                {
                                    "key": "0x9a05d81a394f309fe6abd8ee8e0679f275f78ca0",
                                    "value": {
                                        "current": "37361644579600000005750784",
                                        "prev": "37327644579600000005750784",
                                        "typeTag": 1
                                    }
                                }
                            ],
                            "typeTag": 4
                        }
                    }
                ]
            }
        ]
    }
}