{
    "balance_change": {
        "balanceChanges": [
            {
                "account": "0x0f1838b28fa12422f9097e86abcf892807bb64a5",
                "assets": [
                    {
                        "address": "0xeeeeeeeeeeeeeeeeeeeeeeeeeeeeeeeeeeeeeeee",
                        "amount": "0.021142955799629427",
                        "iconUrl": "https://assets.blocksec.com/image/1663669189317-3.png",
                        "isERC1155": false,
                        "isERC721": false,
                        "sign": false,
                        "value": ""
                    }
                ]
            },
            {
                "account": "0x283af0b28c62c092c9727f1ee09c02ca627eb7f5",
                "assets": [
                    {
                        "address": "0xeeeeeeeeeeeeeeeeeeeeeeeeeeeeeeeeeeeeeeee",
                        "amount": "0.021142955799629427",
                        "iconUrl": "https://assets.blocksec.com/image/1663669189317-3.png",
                        "isERC1155": false,
                        "isERC721": false,
                        "sign": true,
                        "value": ""
                    }
                ]
            }
        ]
    },
    "profile": {
        "basic_info": {
            "baseFee": "",
            "blockNumber": 10412521,
            "callData": "0xacf1a84100000000000000000000000000000000000000000000000000000000000000400000000000000000000000000000000000000000000000000000000001e185580000000000000000000000000000000000000000000000000000000000000007706c616e65747800000000000000000000000000000000000000000000000000",
            "debugEnable": true,
            "errorInfo": "",
            "eventCount": 2,
            "feeRecipient": "0x04668ec2f57cc15c381b461b9fedab5d451c8f7f",
            "formatValue": "0.021142955799629427",
            "gasLimit": 63028,
            "gasPrice": "28",
            "gasUsed": 63028,
            "intTxnCount": 5,
            "internalRevert": false,
            "internalRevertMessage": "",
            "isContractCreation": false,
            "isFlashloan": false,
            "maxFee": "",
            "nonce": 2458,
            "overwritedBlockNumber": -1,
            "priorityFee": "",
            "receiver": "0x283af0b28c62c092c9727f1ee09c02ca627eb7f5",
            "revertMessage": "",
            "sender": "0x0f1838b28fa12422f9097e86abcf892807bb64a5",
            "simulationEnable": true,
            "sourceTxnHash": "0x9d6e58549c538283cecedaa4dcc86b1e5fa563e3df6d2ee746827f5e77855e5f",
            "status": true,
            "timestamp": "2020-07-07T13:14:05Z",
            "transactionFee": "0.001764784",
            "txnHash": "0x9d6e58549c538283cecedaa4dcc86b1e5fa563e3df6d2ee746827f5e77855e5f",
            "txnIndex": 96,
            "type": 0,
            "value": "21142955799629427"
        },
        "fund_flow": [
            {
                "amount": "0.021142955799629427",
                "from": "0x0f1838b28fa12422f9097e86abcf892807bb64a5",
                "id": 1,
                "isERC1155": false,
                "isERC721": false,
                "isReverted": false,
                "order": 1,
                "to": "0x283af0b28c62c092c9727f1ee09c02ca627eb7f5",
                "token": "0xeeeeeeeeeeeeeeeeeeeeeeeeeeeeeeeeeeeeeeee"
            }
        ],
        "token_infos": [
            {
                "address": "0xc02aaa39b223fe8d0a0e5c4f27ead9083c756cc2",
                "decimals": 18
            },
            {
                "address": "0xeeeeeeeeeeeeeeeeeeeeeeeeeeeeeeeeeeeeeeee",
                "decimals": 18
            }
        ]
    },
    "address_label": {
        "labels": [
            {
                "address": "0x00000000000c2e074ec69a0dfb2997ba6c7d2e1e",
                "label": "ENS: Registry with Fallback"
            },
            {
                "address": "0x283af0b28c62c092c9727f1ee09c02ca627eb7f5",
                "label": "ENS: Old ETH Registrar Controller"
            },
            {
                "address": "0x0000000000000000000000000000000000000001",
                "label": "Precompiled"
            },
            {
                "address": "0x0000000000000000000000000000000000000002",
                "label": "Precompiled"
            },
            {
                "address": "0x0000000000000000000000000000000000000003",
                "label": "Precompiled"
            },
            {
                "address": "0x0000000000000000000000000000000000000004",
                "label": "Precompiled"
            },
            {
                "address": "0xeeeeeeeeeeeeeeeeeeeeeeeeeeeeeeeeeeeeeeee",
                "label": "Ether"
            },
            {
                "address": "0x57f1887a8bf19b14fc0df6fd9b2acc9af147ea85",
                "label": "ENS: Base Registrar Implementation"
            },
            {
                "address": "0xb9d374d0fe3d8341155663fae31b7beae0ae233a",
                "label": "ENS: Stable Price Oracle"
            },
            {
                "address": "0x729d19f657bd0614b4985cf1d82531c67569197b",
                "label": "Maker: Medianizer 2"
            }
        ]
    },
    "trace": {
        "accountLabels": null,
        "dataMap": {
            "-1": {
                "invocation": {
                    "address": "0x0f1838b28fa12422f9097e86abcf892807bb64a5",
                    "callData": "",
                    "decodedMethod": null,
                    "errorInfo": "",
                    "fromAddress": "",
                    "gasUsed": 0,
                    "id": -1,
                    "methodDecoded": false,
                    "operation": "",
                    "output": "",
                    "revert": false,
                    "revertMessage": "",
                    "selector": "",
                    "status": false,
                    "value": ""
                },
                "nodeType": 0
            },
            "0": {
                "invocation": {
                    "address": "0x283af0b28c62c092c9727f1ee09c02ca627eb7f5",
                    "callData": "0x00000000000000000000000000000000000000000000000000000000000000400000000000000000000000000000000000000000000000000000000001e185580000000000000000000000000000000000000000000000000000000000000007706c616e65747800000000000000000000000000000000000000000000000000",
                    "decodedMethod": {
                        "callParams": [
                            {
                                "name": "name",
                                "type": "string",
                                "value": "planetx"
                            },
                            {
                                "name": "duration",
                                "type": "uint256",
                                "value": "31,556,952"
                            }
                        ],
                        "constructorArguments": "",
                        "name": "renew",
                        "returnParams": [],
                        "signature": "renew(string,uint256)"
                    },
                    "errorInfo": "",
                    "fromAddress": "0x0f1838b28fa12422f9097e86abcf892807bb64a5",
                    "gasUsed": 63028,
                    "id": 0,
                    "methodDecoded": true,
                    "operation": "CALL",
                    "output": "",
                    "revert": false,
                    "revertMessage": "",
                    "selector": "0xacf1a841",
                    "status": true,
                    "value": "0.021142955799629427"
                },
                "nodeType": 0
            },
            "1": {
                "invocation": {
                    "address": "0x57f1887a8bf19b14fc0df6fd9b2acc9af147ea85",
                    "callData": "0x5d5582f813bb98d79a4b55cbfcc4c07d6b28d98997ea025f9989de73745befa0",
                    "decodedMethod": {
                        "callParams": [
                            {
                                "name": "id",
                                "type": "uint256",
                                "value": "42,216,180,833,919,899,501,085,000,871,266,696,719,232,822,809,810,927,235,765,364,279,629,355,675,552"
                            }
                        ],
                        "constructorArguments": "",
                        "name": "nameExpires",
                        "returnParams": [
                            {
                                "name": "",
                                "type": "uint256",
                                "value": "1,588,550,400"
                            }
                        ],
                        "signature": "nameExpires(uint256)"
                    },
                    "errorInfo": "",
                    "fromAddress": "0x283af0b28c62c092c9727f1ee09c02ca627eb7f5",
                    "gasUsed": 1223,
                    "id": 1,
                    "methodDecoded": true,
                    "operation": "STATICCALL",
                    "output": "0x000000000000000000000000000000000000000000000000000000005eaf5b00",
                    "revert": false,
                    "revertMessage": "",
                    "selector": "0xd6e4fa86",
                    "status": true,
                    "value": "0"
                },
                "nodeType": 0
            },
            "2": {
                "invocation": {
                    "address": "0xb9d374d0fe3d8341155663fae31b7beae0ae233a",
                    "callData": "0x0000000000000000000000000000000000000000000000000000000000000060000000000000000000000000000000000000000000000000000000005eaf5b000000000000000000000000000000000000000000000000000000000001e185580000000000000000000000000000000000000000000000000000000000000007706c616e65747800000000000000000000000000000000000000000000000000",
                    "decodedMethod": {
                        "callParams": [
                            {
                                "name": "name",
                                "type": "string",
                                "value": "planetx"
                            },
                            {
                                "name": "",
                                "type": "uint256",
                                "value": "1,588,550,400"
                            },
                            {
                                "name": "duration",
                                "type": "uint256",
                                "value": "31,556,952"
                            }
                        ],
                        "constructorArguments": "",
                        "name": "price",
                        "returnParams": [
                            {
                                "name": "",
                                "type": "uint256",
                                "value": "21,142,955,799,629,427"
                            }
                        ],
                        "signature": "price(string,uint256,uint256)"
                    },
                    "errorInfo": "",
                    "fromAddress": "0x283af0b28c62c092c9727f1ee09c02ca627eb7f5",
                    "gasUsed": 10641,
                    "id": 2,
                    "methodDecoded": true,
                    "operation": "STATICCALL",
                    "output": "0x000000000000000000000000000000000000000000000000004b1d6801f04e73",
                    "revert": false,
                    "revertMessage": "",
                    "selector": "0x50e9a715",
                    "status": true,
                    "value": "0"
                },
                "nodeType": 0
            },
            "3": {
                "invocation": {
                    "address": "0x729d19f657bd0614b4985cf1d82531c67569197b",
                    "callData": "0x",
                    "decodedMethod": {
                        "callParams": [],
                        "constructorArguments": "",
                        "name": "read",
                        "returnParams": [
                            {
                                "name": "",
                                "type": "bytes32",
                                "value": "0x00000000000000000000000000000000000000000000000cd4130bf6dc604000"
                            }
                        ],
                        "signature": "read()"
                    },
                    "errorInfo": "",
                    "fromAddress": "0xb9d374d0fe3d8341155663fae31b7beae0ae233a",
                    "gasUsed": 2211,
                    "id": 3,
                    "methodDecoded": true,
                    "operation": "STATICCALL",
                    "output": "0x00000000000000000000000000000000000000000000000cd4130bf6dc604000",
                    "revert": false,
                    "revertMessage": "",
                    "selector": "0x57de26a4",
                    "status": true,
                    "value": "0"
                },
                "nodeType": 0
            },
            "4": {
                "invocation": {
                    "address": "0x57f1887a8bf19b14fc0df6fd9b2acc9af147ea85",
                    "callData": "0x5d5582f813bb98d79a4b55cbfcc4c07d6b28d98997ea025f9989de73745befa00000000000000000000000000000000000000000000000000000000001e18558",
                    "decodedMethod": {
                        "callParams": [
                            {
                                "name": "id",
                                "type": "uint256",
                                "value": "42,216,180,833,919,899,501,085,000,871,266,696,719,232,822,809,810,927,235,765,364,279,629,355,675,552"
                            },
                            {
                                "name": "duration",
                                "type": "uint256",
                                "value": "31,556,952"
                            }
                        ],
                        "constructorArguments": "",
                        "name": "renew",
                        "returnParams": [
                            {
                                "name": "",
                                "type": "uint256",
                                "value": "1,620,107,352"
                            }
                        ],
                        "signature": "renew(uint256,uint256)"
                    },
                    "errorInfo": "",
                    "fromAddress": "0x283af0b28c62c092c9727f1ee09c02ca627eb7f5",
                    "gasUsed": 17974,
                    "id": 4,
                    "methodDecoded": true,
                    "operation": "CALL",
                    "output": "0x000000000000000000000000000000000000000000000000000000006090e058",
                    "revert": false,
                    "revertMessage": "",
                    "selector": "0xc475abff",
                    "status": true,
                    "value": "0"
                },
                "nodeType": 0
            },
            "5": {
                "invocation": {
                    "address": "0x00000000000c2e074ec69a0dfb2997ba6c7d2e1e",
                    "callData": "0x93cdeb708b7545dc668eb9280176169d1c33cfd8ed6f04690a0bcc88a93fc4ae",
                    "decodedMethod": {
                        "callParams": [
                            {
                                "name": "node",
                                "type": "bytes32",
                                "value": "0x93cdeb708b7545dc668eb9280176169d1c33cfd8ed6f04690a0bcc88a93fc4ae"
                            }
                        ],
                        "constructorArguments": "",
                        "name": "owner",
                        "returnParams": [
                            {
                                "name": "",
                                "type": "address",
                                "value": "0x57f1887a8bf19b14fc0df6fd9b2acc9af147ea85"
                            }
                        ],
                        "signature": "owner(bytes32)"
                    },
                    "errorInfo": "",
                    "fromAddress": "0x57f1887a8bf19b14fc0df6fd9b2acc9af147ea85",
                    "gasUsed": 2351,
                    "id": 5,
                    "methodDecoded": true,
                    "operation": "STATICCALL",
                    "output": "0x00000000000000000000000057f1887a8bf19b14fc0df6fd9b2acc9af147ea85",
                    "revert": false,
                    "revertMessage": "",
                    "selector": "0x02571be3",
                    "status": true,
                    "value": "0"
                },
                "nodeType": 0
            },
            "6": {
                "event": {
                    "contract": "0x57f1887a8bf19b14fc0df6fd9b2acc9af147ea85",
                    "decodedLog": {
                        "name": "NameRenewed",
                        "params": [
                            {
                                "name": "id",
                                "type": "uint256",
                                "value": "42,216,180,833,919,899,501,085,000,871,266,696,719,232,822,809,810,927,235,765,364,279,629,355,675,552"
                            },
                            {
                                "name": "expires",
                                "type": "uint256",
                                "value": "1,620,107,352"
                            }
                        ],
                        "signature": "NameRenewed(uint256,uint256)"
                    },
                    "id": 6,
                    "logData": "0x000000000000000000000000000000000000000000000000000000006090e058",
                    "logDecoded": true,
                    "operation": "EVENT",
                    "revert": false,
                    "status": true,
                    "topics": [
                        "0x9b87a00e30f1ac65d898f070f8a3488fe60517182d0a2098e1b4b93a54aa9bd6",
                        "0x5d5582f813bb98d79a4b55cbfcc4c07d6b28d98997ea025f9989de73745befa0"
                    ]
                },
                "nodeType": 1
            },
            "7": {
                "event": {
                    "contract": "0x283af0b28c62c092c9727f1ee09c02ca627eb7f5",
                    "decodedLog": {
                        "name": "NameRenewed",
                        "params": [
                            {
                                "name": "label",
                                "type": "bytes32",
                                "value": "0x5d5582f813bb98d79a4b55cbfcc4c07d6b28d98997ea025f9989de73745befa0"
                            },
                            {
                                "name": "name",
                                "type": "string",
                                "value": "planetx"
                            },
                            {
                                "name": "cost",
                                "type": "uint256",
                                "value": "21,142,955,799,629,427"
                            },
                            {
                                "name": "expires",
                                "type": "uint256",
                                "value": "1,620,107,352"
                            }
                        ],
                        "signature": "NameRenewed(string,bytes32,uint256,uint256)"
                    },
                    "id": 7,
                    "logData": "0x0000000000000000000000000000000000000000000000000000000000000060000000000000000000000000000000000000000000000000004b1d6801f04e73000000000000000000000000000000000000000000000000000000006090e0580000000000000000000000000000000000000000000000000000000000000007706c616e65747800000000000000000000000000000000000000000000000000",
                    "logDecoded": true,
                    "operation": "EVENT",
                    "revert": false,
                    "status": true,
                    "topics": [
                        "0x3da24c024582931cfaf8267d8ed24d13a82a8068d5bd337d30ec45cea4e506ae",
                        "0x5d5582f813bb98d79a4b55cbfcc4c07d6b28d98997ea025f9989de73745befa0"
                    ]
                },
                "nodeType": 1
            }
        },
        "gasFlame": [
            {
                "children": [
                    {
                        "children": [
                            {
                                "children": [],
                                "depth": 0,
                                "name": "Initial Gas",
                                "value": 21732
                            },
                            {
                                "children": [
                                    {
                                        "children": [],
                                        "depth": 1,
                                        "name": "nameExpires",
                                        "value": 1223
                                    },
                                    {
                                        "children": [
                                            {
                                                "children": [],
                                                "depth": 2,
                                                "name": "read",
                                                "value": 2211
                                            }
                                        ],
                                        "depth": 1,
                                        "name": "price",
                                        "value": 10641
                                    },
                                    {
                                        "children": [
                                            {
                                                "children": [],
                                                "depth": 2,
                                                "name": "owner",
                                                "value": 2351
                                            }
                                        ],
                                        "depth": 1,
                                        "name": "renew",
                                        "value": 17974
                                    }
                                ],
                                "depth": 0,
                                "name": "Executed Gas",
                                "value": 41296
                            }
                        ],
                        "depth": -1,
                        "name": "Actual Gas Used",
                        "value": 63028
                    },
                    {
                        "children": [],
                        "depth": -1,
                        "name": "Refunded Gas",
                        "value": 0
                    }
                ],
                "depth": -2,
                "name": "Total Gas",
                "value": 63028
            }
        ],
        "isConfirmed": true,
        "mainTrace": [
            {
                "children": [
                    {
                        "children": [
                            {
                                "children": [],
                                "depth": 1,
                                "id": 1,
                                "order": 1
                            },
                            {
                                "children": [
                                    {
                                        "children": [],
                                        "depth": 2,
                                        "id": 3,
                                        "order": 3
                                    }
                                ],
                                "depth": 1,
                                "id": 2,
                                "order": 2
                            },
                            {
                                "children": [
                                    {
                                        "children": [],
                                        "depth": 2,
                                        "id": 5,
                                        "order": 5
                                    },
                                    {
                                        "children": [],
                                        "depth": 2,
                                        "id": 6,
                                        "order": 6
                                    }
                                ],
                                "depth": 1,
                                "id": 4,
                                "order": 4
                            },
                            {
                                "children": [],
                                "depth": 1,
                                "id": 7,
                                "order": 7
                            }
                        ],
                        "depth": 0,
                        "id": 0,
                        "order": 0
                    }
                ],
                "depth": -1,
                "id": -1,
                "order": -1
            }
        ],
        "mainTraceNodeCount": 8,
        "parentIdMap": {
            "0": -1,
            "1": 0,
            "2": 0,
            "3": 2,
            "4": 0,
            "5": 4,
            "6": 4,
            "7": 0
        },
        "tidyTrace": [
            {
                "children": [
                    {
                        "children": [
                            {
                                "children": [
                                    {
                                        "children": [],
                                        "depth": 2,
                                        "id": 6,
                                        "order": 6
                                    }
                                ],
                                "depth": 1,
                                "id": 4,
                                "order": 4
                            },
                            {
                                "children": [],
                                "depth": 1,
                                "id": 7,
                                "order": 7
                            }
                        ],
                        "depth": 0,
                        "id": 0,
                        "order": 0
                    }
                ],
                "depth": -1,
                "id": -1,
                "order": -1
            }
        ],
        "tidyTraceNodeCount": 4
    },
    "state_change": {
        "stateChanges": [
            {
                "address": "0x57f1887a8bf19b14fc0df6fd9b2acc9af147ea85",
                "erc": "ERC-721",
                "slots": [
                    {
                        "current": "0x000000000000000000000000000000000000000000000000000000006090e058",
                        "key": "0x343bb9d38530f656746d8498cf4643f853dc31fc18979db4783c4d0823e71376",
                        "prev": "0x000000000000000000000000000000000000000000000000000000005eaf5b00"
                    }
                ],
                "storageVariables": [
                    {
                        "name": "expiries",
                        "type": "mapping(uint256 => uint256)",
                        "value": {
                            "pairs": [
                                {
                                    "key": "42216180833919899501085000871266696719232822809810927235765364279629355675552",
                                    "value": {
                                        "current": "1620107352",
                                        "prev": "1588550400",
                                        "typeTag": 1
                                    }
                                }
                            ],
                            "typeTag": 4
                        }
                    }
                ]
            }
        ]
    }
}