{
    "balance_change": {
        "balanceChanges": [
            {
                "account": "0xec30d02f10353f8efc9601371f56e808751f396f",
                "assets": [
                    {
                        "address": "0xdac17f958d2ee523a2206206994597c13d831ec7",
                        "amount": "135.969752",
                        "iconUrl": "https://assets.blocksec.com/icon/fcea71f3193ce895be44bfdf941f7e4c9381dd587f273c2d1a27f1263d84e4ea.png",
                        "isERC1155": false,
                        "isERC721": false,
                        "sign": false,
                        "value": "135.9100871"
                    }
                ]
            },
            {
                "account": "0xf8ad32e031e03d04ab5d375a20972793561e3b9a",
                "assets": [
                    {
                        "address": "0xdac17f958d2ee523a2206206994597c13d831ec7",
                        "amount": "135.969752",
                        "iconUrl": "https://assets.blocksec.com/icon/fcea71f3193ce895be44bfdf941f7e4c9381dd587f273c2d1a27f1263d84e4ea.png",
                        "isERC1155": false,
                        "isERC721": false,
                        "sign": true,
                        "value": "135.9100871"
                    }
                ]
            }
        ]
    },
    "profile": {
        "basic_info": {
            "baseFee": "74.600235582",
            "blockNumber": 14926782,
            "callData": "0xa9059cbb000000000000000000000000f8ad32e031e03d04ab5d375a20972793561e3b9a00000000000000000000000000000000000000000000000000000000081abbd8",
            "debugEnable": true,
            "errorInfo": "",
            "eventCount": 1,
            "feeRecipient": "0x6ebaf477f83e055589c1188bcc6ddccd8c9b131a",
            "formatValue": "0",
            "gasLimit": 100000,
            "gasPrice": "75.963125154",
            "gasUsed": 46109,
            "intTxnCount": 0,
            "internalRevert": false,
            "internalRevertMessage": "",
            "isContractCreation": false,
            "isFlashloan": false,
            "maxFee": "162.679022693",
            "nonce": 269153,
            "overwritedBlockNumber": -1,
            "priorityFee": "1.362889572",
            "receiver": "0xdac17f958d2ee523a2206206994597c13d831ec7",
            "revertMessage": "",
            "sender": "0xec30d02f10353f8efc9601371f56e808751f396f",
            "simulationEnable": true,
            "sourceTxnHash": "0x9d7b2403a2f6e8fd34f85765bbcb551368d4c966b8c2ed1669cc7d2e08baa01c",
            "status": true,
            "timestamp": "2022-06-08T12:52:23Z",
            "transactionFee": "0.003502583737725786",
            "txnHash": "0x9d7b2403a2f6e8fd34f85765bbcb551368d4c966b8c2ed1669cc7d2e08baa01c",
            "txnIndex": 257,
            "type": 2,
            "value": "0"
        },
        "fund_flow": [
            {
                "amount": "135.969752",
                "from": "0xec30d02f10353f8efc9601371f56e808751f396f",
                "id": 1,
                "isERC1155": false,
                "isERC721": false,
                "isReverted": false,
                "order": 1,
                "to": "0xf8ad32e031e03d04ab5d375a20972793561e3b9a",
                "token": "0xdac17f958d2ee523a2206206994597c13d831ec7"
            }
        ],
        "token_infos": [
            {
                "address": "0xc02aaa39b223fe8d0a0e5c4f27ead9083c756cc2",
                "decimals": 18
            },
            {
                "address": "0xdac17f958d2ee523a2206206994597c13d831ec7",
                "decimals": 6
            },
            {
                "address": "0xeeeeeeeeeeeeeeeeeeeeeeeeeeeeeeeeeeeeeeee",
                "decimals": 18
            }
        ]
    },
    "address_label": {
        "labels": [
            {
                "address": "0xeeeeeeeeeeeeeeeeeeeeeeeeeeeeeeeeeeeeeeee",
                "label": "Ether"
            },
            {
                "address": "0xf8ad32e031e03d04ab5d375a20972793561e3b9a",
                "label": "BINANCE"
            },
            {
                "address": "0xdac17f958d2ee523a2206206994597c13d831ec7",
                "label": "Tether: USDT Stablecoin"
            },
            {
                "address": "0xec30d02f10353f8efc9601371f56e808751f396f",
                "label": "KuCoin 11"
            },
            {
                "address": "0x0000000000000000000000000000000000000001",
                "label": "Precompiled"
            },
            {
                "address": "0x0000000000000000000000000000000000000002",
                "label": "Precompiled"
            },
            {
                "address": "0x0000000000000000000000000000000000000003",
                "label": "Precompiled"
            },
            {
                "address": "0x0000000000000000000000000000000000000004",
                "label": "Precompiled"
            }
        ]
    },
    "trace": {
        "accountLabels": null,
        "dataMap": {
            "-1": {
                "invocation": {
                    "address": "0xec30d02f10353f8efc9601371f56e808751f396f",
                    "callData": "",
                    "decodedMethod": null,
                    "errorInfo": "",
                    "fromAddress": "",
                    "gasUsed": 0,
                    "id": -1,
                    "methodDecoded": false,
                    "operation": "",
                    "output": "",
                    "revert": false,
                    "revertMessage": "",
                    "selector": "",
                    "status": false,
                    "value": ""
                },
                "nodeType": 0
            },
            "0": {
                "invocation": {
                    "address": "0xdac17f958d2ee523a2206206994597c13d831ec7",
                    "callData": "0x000000000000000000000000f8ad32e031e03d04ab5d375a20972793561e3b9a00000000000000000000000000000000000000000000000000000000081abbd8",
                    "decodedMethod": {
                        "callParams": [
                            {
                                "name": "_to",
                                "type": "address",
                                "value": "0xf8ad32e031e03d04ab5d375a20972793561e3b9a"
                            },
                            {
                                "decimalAvailable": true,
                                "name": "_value",
                                "type": "uint256",
                                "value": "135,969,752"
                            }
                        ],
                        "constructorArguments": "",
                        "name": "transfer",
                        "returnParams": [],
                        "signature": "transfer(address,uint256)"
                    },
                    "errorInfo": "",
                    "fromAddress": "0xec30d02f10353f8efc9601371f56e808751f396f",
                    "gasUsed": 46109,
                    "id": 0,
                    "methodDecoded": true,
                    "operation": "CALL",
                    "output": "",
                    "revert": false,
                    "revertMessage": "",
                    "selector": "0xa9059cbb",
                    "status": true,
                    "value": "0"
                },
                "nodeType": 0
            },
            "1": {
                "event": {
                    "contract": "0xdac17f958d2ee523a2206206994597c13d831ec7",
                    "decodedLog": {
                        "name": "Transfer",
                        "params": [
                            {
                                "name": "from",
                                "type": "address",
                                "value": "0xec30d02f10353f8efc9601371f56e808751f396f"
                            },
                            {
                                "name": "to",
                                "type": "address",
                                "value": "0xf8ad32e031e03d04ab5d375a20972793561e3b9a"
                            },
                            {
                                "decimalAvailable": true,
                                "name": "value",
                                "type": "uint256",
                                "value": "135,969,752"
                            }
                        ],
                        "signature": "Transfer(address,address,uint256)"
                    },
                    "id": 1,
                    "logData": "0x00000000000000000000000000000000000000000000000000000000081abbd8",
                    "logDecoded": true,
                    "operation": "EVENT",
                    "revert": false,
                    "status": true,
                    "topics": [
                        "0xddf252ad1be2c89b69c2b068fc378daa952ba7f163c4a11628f55a4df523b3ef",
                        "0x000000000000000000000000ec30d02f10353f8efc9601371f56e808751f396f",
                        "0x000000000000000000000000f8ad32e031e03d04ab5d375a20972793561e3b9a"
                    ]
                },
                "nodeType": 1
            }
        },
        "gasFlame": [
            {
                "children": [
                    {
                        "children": [
                            {
                                "children": [],
                                "depth": 0,
                                "name": "Initial Gas",
                                "value": 21608
                            },
                            {
                                "children": [],
                                "depth": 0,
                                "name": "Executed Gas",
                                "value": 24501
                            }
                        ],
                        "depth": -1,
                        "name": "Actual Gas Used",
                        "value": 46109
                    },
                    {
                        "children": [],
                        "depth": -1,
                        "name": "Refunded Gas",
                        "value": 0
                    }
                ],
                "depth": -2,
                "name": "Total Gas",
                "value": 46109
            }
        ],
        "isConfirmed": true,
        "mainTrace": [
            {
                "children": [
                    {
                        "children": [
                            {
                                "children": [],
                                "depth": 1,
                                "id": 1,
                                "order": 1
                            }
                        ],
                        "depth": 0,
                        "id": 0,
                        "order": 0
                    }
                ],
                "depth": -1,
                "id": -1,
                "order": -1
            }
        ],
        "mainTraceNodeCount": 2,
        "parentIdMap": {
            "0": -1,
            "1": 0
        },
        "tidyTrace": [
            {
                "children": [
                    {
                        "children": [
                            {
                                "children": [],
                                "depth": 1,
                                "id": 1,
                                "order": 1
                            }
                        ],
                        "depth": 0,
                        "id": 0,
                        "order": 0
                    }
                ],
                "depth": -1,
                "id": -1,
                "order": -1
            }
        ],
        "tidyTraceNodeCount": 2
    },
    "state_change": {
        "stateChanges": [
            {
                "address": "0xdac17f958d2ee523a2206206994597c13d831ec7",
                "erc": "ERC-20",
                "slots": [
                    {
                        "current": "0x000000000000000000000000000000000000000000000000000015c2243d6a6b",
                        "key": "0xe8bd9fbe32351f346c1fd91b8583943e7caf1cff0bff4fd3ee68bb8872b90da3",
                        "prev": "0x000000000000000000000000000000000000000000000000000015c22c582643"
                    },
                    {
                        "current": "0x000000000000000000000000000000000000000000000000000000001c0e3d8b",
                        "key": "0x5dae2b3208320a41cc7cfe7d10c9e0bc0093e4cdb4898511205e3b9057a48a9a",
                        "prev": "0x0000000000000000000000000000000000000000000000000000000013f381b3"
                    }
                ],
                "storageVariables": [
                    {
                        "name": "balances",
                        "type": "mapping(address => uint256)",
                        "value": {
                            "pairs": [
                                {
                                    "key": "0xec30d02f10353f8efc9601371f56e808751f396f",
                                    "value": {
                                        "current": "23923575843435",
                                        "prev": "23923711813187",
                                        "typeTag": 1
                                    }
                                },
                                {
                                    "key": "0xf8ad32e031e03d04ab5d375a20972793561e3b9a",
                                    "value": {
                                        "current": "470695307",
                                        "prev": "334725555",
                                        "typeTag": 1
                                    }
                                }
                            ],
                            "typeTag": 4
                        }
                    }
                ]
            }
        ]
    }
}