{
    "balance_change": {
        "balanceChanges": [
            {
                "account": "0x2faf487a4414fe77e2327f0bf4ae2a264a776ad2",
                "assets": [
                    {
                        "address": "0x50d1c9771902476076ecfc8b2a83ad6b9355a4c9",
                        "amount": "46,389",
                        "iconUrl": "",
                        "isERC1155": false,
                        "isERC721": false,
                        "sign": true,
                        "value": "438658.8386"
                    }
                ]
            },
            {
                "account": "0xe7b9e3fa71c5a2e2b767f2dae0f4e4067816d7cc",
                "assets": [
                    {
                        "address": "0x50d1c9771902476076ecfc8b2a83ad6b9355a4c9",
                        "amount": "46,389",
                        "iconUrl": "",
                        "isERC1155": false,
                        "isERC721": false,
                        "sign": false,
                        "value": "438658.8386"
                    }
                ]
            }
        ]
    },
    "profile": {
        "basic_info": {
            "baseFee": "6.026209967",
            "blockNumber": 15395145,
            "callData": "0x23b872dd000000000000000000000000e7b9e3fa71c5a2e2b767f2dae0f4e4067816d7cc0000000000000000000000002faf487a4414fe77e2327f0bf4ae2a264a776ad20000000000000000000000000000000000000000000009d2c0b2d88b5bb40000",
            "debugEnable": true,
            "errorInfo": "",
            "eventCount": 2,
            "feeRecipient": "0xea674fdde714fd979de3edf0f56aa9716b898ec8",
            "formatValue": "0",
            "gasLimit": 68608,
            "gasPrice": "11.431209967",
            "gasUsed": 37374,
            "intTxnCount": 0,
            "internalRevert": false,
            "internalRevertMessage": "",
            "isContractCreation": false,
            "isFlashloan": false,
            "maxFee": "1000",
            "nonce": 4503599,
            "overwritedBlockNumber": -1,
            "priorityFee": "5.405",
            "receiver": "0x50d1c9771902476076ecfc8b2a83ad6b9355a4c9",
            "revertMessage": "",
            "sender": "0x2faf487a4414fe77e2327f0bf4ae2a264a776ad2",
            "simulationEnable": true,
            "sourceTxnHash": "0x9ef198287c57fd62bc307ceef5a172320343421ade4c270ce1a6233a8a561d39",
            "status": true,
            "timestamp": "2022-08-23T06:52:34Z",
            "transactionFee": "0.000427230041306658",
            "txnHash": "0x9ef198287c57fd62bc307ceef5a172320343421ade4c270ce1a6233a8a561d39",
            "txnIndex": 34,
            "type": 2,
            "value": "0"
        },
        "fund_flow": [
            {
                "amount": "46,389",
                "from": "0xe7b9e3fa71c5a2e2b767f2dae0f4e4067816d7cc",
                "id": 1,
                "isERC1155": false,
                "isERC721": false,
                "isReverted": false,
                "order": 1,
                "to": "0x2faf487a4414fe77e2327f0bf4ae2a264a776ad2",
                "token": "0x50d1c9771902476076ecfc8b2a83ad6b9355a4c9"
            }
        ],
        "token_infos": [
            {
                "address": "0x50d1c9771902476076ecfc8b2a83ad6b9355a4c9",
                "decimals": 18
            },
            {
                "address": "0xc02aaa39b223fe8d0a0e5c4f27ead9083c756cc2",
                "decimals": 18
            },
            {
                "address": "0xeeeeeeeeeeeeeeeeeeeeeeeeeeeeeeeeeeeeeeee",
                "decimals": 18
            }
        ]
    },
    "address_label": {
        "labels": [
            {
                "address": "0x0000000000000000000000000000000000000002",
                "label": "Precompiled"
            },
            {
                "address": "0x0000000000000000000000000000000000000003",
                "label": "Precompiled"
            },
            {
                "address": "0x0000000000000000000000000000000000000004",
                "label": "Precompiled"
            },
            {
                "address": "0xeeeeeeeeeeeeeeeeeeeeeeeeeeeeeeeeeeeeeeee",
                "label": "Ether"
            },
            {
                "address": "0x50d1c9771902476076ecfc8b2a83ad6b9355a4c9",
                "label": "FTX: FTT Token"
            },
            {
                "address": "0xe7b9e3fa71c5a2e2b767f2dae0f4e4067816d7cc",
                "label": "FTX"
            },
            {
                "address": "0x2faf487a4414fe77e2327f0bf4ae2a264a776ad2",
                "label": "FTX Exchange"
            },
            {
                "address": "0x0000000000000000000000000000000000000001",
                "label": "Precompiled"
            }
        ]
    },
    "trace": {
        "accountLabels": null,
        "dataMap": {
            "-1": {
                "invocation": {
                    "address": "0x2faf487a4414fe77e2327f0bf4ae2a264a776ad2",
                    "callData": "",
                    "decodedMethod": null,
                    "errorInfo": "",
                    "fromAddress": "",
                    "gasUsed": 0,
                    "id": -1,
                    "methodDecoded": false,
                    "operation": "",
                    "output": "",
                    "revert": false,
                    "revertMessage": "",
                    "selector": "",
                    "status": false,
                    "value": ""
                },
                "nodeType": 0
            },
            "0": {
                "invocation": {
                    "address": "0x50d1c9771902476076ecfc8b2a83ad6b9355a4c9",
                    "callData": "0x000000000000000000000000e7b9e3fa71c5a2e2b767f2dae0f4e4067816d7cc0000000000000000000000002faf487a4414fe77e2327f0bf4ae2a264a776ad20000000000000000000000000000000000000000000009d2c0b2d88b5bb40000",
                    "decodedMethod": {
                        "callParams": [
                            {
                                "name": "from",
                                "type": "address",
                                "value": "0xe7b9e3fa71c5a2e2b767f2dae0f4e4067816d7cc"
                            },
                            {
                                "name": "to",
                                "type": "address",
                                "value": "0x2faf487a4414fe77e2327f0bf4ae2a264a776ad2"
                            },
                            {
                                "decimalAvailable": true,
                                "name": "value",
                                "type": "uint256",
                                "value": "46,389,000,000,000,000,000,000"
                            }
                        ],
                        "constructorArguments": "",
                        "name": "transferFrom",
                        "returnParams": [
                            {
                                "name": "",
                                "type": "bool",
                                "value": true
                            }
                        ],
                        "signature": "transferFrom(address,address,uint256)"
                    },
                    "errorInfo": "",
                    "fromAddress": "0x2faf487a4414fe77e2327f0bf4ae2a264a776ad2",
                    "gasUsed": 37374,
                    "id": 0,
                    "methodDecoded": true,
                    "operation": "CALL",
                    "output": "0x0000000000000000000000000000000000000000000000000000000000000001",
                    "revert": false,
                    "revertMessage": "",
                    "selector": "0x23b872dd",
                    "status": true,
                    "value": "0"
                },
                "nodeType": 0
            },
            "1": {
                "event": {
                    "contract": "0x50d1c9771902476076ecfc8b2a83ad6b9355a4c9",
                    "decodedLog": {
                        "name": "Transfer",
                        "params": [
                            {
                                "name": "from",
                                "type": "address",
                                "value": "0xe7b9e3fa71c5a2e2b767f2dae0f4e4067816d7cc"
                            },
                            {
                                "name": "to",
                                "type": "address",
                                "value": "0x2faf487a4414fe77e2327f0bf4ae2a264a776ad2"
                            },
                            {
                                "decimalAvailable": true,
                                "name": "value",
                                "type": "uint256",
                                "value": "46,389,000,000,000,000,000,000"
                            }
                        ],
                        "signature": "Transfer(address,address,uint256)"
                    },
                    "id": 1,
                    "logData": "0x0000000000000000000000000000000000000000000009d2c0b2d88b5bb40000",
                    "logDecoded": true,
                    "operation": "EVENT",
                    "revert": false,
                    "status": true,
                    "topics": [
                        "0xddf252ad1be2c89b69c2b068fc378daa952ba7f163c4a11628f55a4df523b3ef",
                        "0x000000000000000000000000e7b9e3fa71c5a2e2b767f2dae0f4e4067816d7cc",
                        "0x0000000000000000000000002faf487a4414fe77e2327f0bf4ae2a264a776ad2"
                    ]
                },
                "nodeType": 1
            },
            "2": {
                "event": {
                    "contract": "0x50d1c9771902476076ecfc8b2a83ad6b9355a4c9",
                    "decodedLog": {
                        "name": "Approval",
                        "params": [
                            {
                                "name": "owner",
                                "type": "address",
                                "value": "0xe7b9e3fa71c5a2e2b767f2dae0f4e4067816d7cc"
                            },
                            {
                                "name": "spender",
                                "type": "address",
                                "value": "0x2faf487a4414fe77e2327f0bf4ae2a264a776ad2"
                            },
                            {
                                "decimalAvailable": true,
                                "name": "value",
                                "type": "uint256",
                                "value": "115,792,089,237,316,195,423,570,985,008,687,907,853,269,984,665,640,563,954,993,404,007,913,129,639,935"
                            }
                        ],
                        "signature": "Approval(address,address,uint256)"
                    },
                    "id": 2,
                    "logData": "0xffffffffffffffffffffffffffffffffffffffffffffee1d30085867b2adffff",
                    "logDecoded": true,
                    "operation": "EVENT",
                    "revert": false,
                    "status": true,
                    "topics": [
                        "0x8c5be1e5ebec7d5bd14f71427d1e84f3dd0314c0f7b2291e5b200ac8c7c3b925",
                        "0x000000000000000000000000e7b9e3fa71c5a2e2b767f2dae0f4e4067816d7cc",
                        "0x0000000000000000000000002faf487a4414fe77e2327f0bf4ae2a264a776ad2"
                    ]
                },
                "nodeType": 1
            }
        },
        "gasFlame": [
            {
                "children": [
                    {
                        "children": [
                            {
                                "children": [],
                                "depth": 0,
                                "name": "Initial Gas",
                                "value": 22024
                            },
                            {
                                "children": [],
                                "depth": 0,
                                "name": "Executed Gas",
                                "value": 20150
                            }
                        ],
                        "depth": -1,
                        "name": "Actual Gas Used",
                        "value": 37374
                    },
                    {
                        "children": [],
                        "depth": -1,
                        "name": "Refunded Gas",
                        "value": 4800
                    }
                ],
                "depth": -2,
                "name": "Total Gas",
                "value": 42174
            }
        ],
        "isConfirmed": true,
        "mainTrace": [
            {
                "children": [
                    {
                        "children": [
                            {
                                "children": [],
                                "depth": 1,
                                "id": 1,
                                "order": 1
                            },
                            {
                                "children": [],
                                "depth": 1,
                                "id": 2,
                                "order": 2
                            }
                        ],
                        "depth": 0,
                        "id": 0,
                        "order": 0
                    }
                ],
                "depth": -1,
                "id": -1,
                "order": -1
            }
        ],
        "mainTraceNodeCount": 3,
        "parentIdMap": {
            "0": -1,
            "1": 0,
            "2": 0
        },
        "tidyTrace": [
            {
                "children": [
                    {
                        "children": [
                            {
                                "children": [],
                                "depth": 1,
                                "id": 1,
                                "order": 1
                            },
                            {
                                "children": [],
                                "depth": 1,
                                "id": 2,
                                "order": 2
                            }
                        ],
                        "depth": 0,
                        "id": 0,
                        "order": 0
                    }
                ],
                "depth": -1,
                "id": -1,
                "order": -1
            }
        ],
        "tidyTraceNodeCount": 3
    },
    "state_change": {
        "stateChanges": [
            {
                "address": "0x50d1c9771902476076ecfc8b2a83ad6b9355a4c9",
                "erc": "ERC-20",
                "slots": [
                    {
                        "current": "0x0000000000000000000000000000000000000000000000000000000000000000",
                        "key": "0x2e10889258446e705fafdb02b8cb01e9109e7bb28f4c65cf3cd080c302cc25ae",
                        "prev": "0x0000000000000000000000000000000000000000000009d2c0b2d88b5bb40000"
                    },
                    {
                        "current": "0x0000000000000000000000000000000000000000002fff278ddef4be765935bb",
                        "key": "0x0895b50d920716c7d4f1076d56bc7f0dffc2b78a8edd3b6944dd6e826d85d149",
                        "prev": "0x0000000000000000000000000000000000000000002ff554cd2c1c331aa535bb"
                    },
                    {
                        "current": "0xffffffffffffffffffffffffffffffffffffffffffffee1d30085867b2adffff",
                        "key": "0x1992b4526d4df4092163e6b4ce52edfd0d5cd17d91c74e149f871979f8e80492",
                        "prev": "0xfffffffffffffffffffffffffffffffffffffffffffff7eff0bb30f30e61ffff"
                    }
                ],
                "storageVariables": [
                    {
                        "name": "_balances",
                        "type": "mapping(address => uint256)",
                        "value": {
                            "pairs": [
                                {
                                    "key": "0x2faf487a4414fe77e2327f0bf4ae2a264a776ad2",
                                    "value": {
                                        "current": "58024446620915508457321915",
                                        "prev": "57978057620915508457321915",
                                        "typeTag": 1
                                    }
                                },
                                {
                                    "key": "0xe7b9e3fa71c5a2e2b767f2dae0f4e4067816d7cc",
                                    "value": {
                                        "current": "0",
                                        "prev": "46389000000000000000000",
                                        "typeTag": 1
                                    }
                                }
                            ],
                            "typeTag": 4
                        }
                    },
                    {
                        "name": "_allowed",
                        "type": "mapping(address => mapping(address => uint256))",
                        "value": {
                            "pairs": [
                                {
                                    "key": "0xe7b9e3fa71c5a2e2b767f2dae0f4e4067816d7cc",
                                    "value": {
                                        "pairs": [
                                            {
                                                "key": "0x2faf487a4414fe77e2327f0bf4ae2a264a776ad2",
                                                "value": {
                                                    "current": "115792089237316195423570985008687907853269984665640563954993404007913129639935",
                                                    "prev": "115792089237316195423570985008687907853269984665640564001382404007913129639935",
                                                    "typeTag": 1
                                                }
                                            }
                                        ],
                                        "typeTag": 4
                                    }
                                }
                            ],
                            "typeTag": 4
                        }
                    }
                ]
            }
        ]
    }
}