{
    "balance_change": {
        "balanceChanges": [
            {
                "account": "0x85c5c26dc2af5546341fc1988b9d178148b4838b",
                "assets": [
                    {
                        "address": "0xeeeeeeeeeeeeeeeeeeeeeeeeeeeeeeeeeeeeeeee",
                        "amount": "0.002143373261794464",
                        "iconUrl": "https://assets.blocksec.com/image/1663669189317-3.png",
                        "isERC1155": false,
                        "isERC721": false,
                        "sign": true,
                        "value": ""
                    },
                    {
                        "address": "0x2260fac5e5542a773aa44fbcfedf7c193bc2c599",
                        "amount": "0.00000008",
                        "iconUrl": "https://assets.blocksec.com/icon/878f2983cb21c5816eb5879d9b6f7a3fe2eb6fce7560c367a0315527852a8a84.png",
                        "isERC1155": false,
                        "isERC721": false,
                        "sign": true,
                        "value": ""
                    }
                ]
            },
            {
                "account": "0x4d2f5cfba55ae412221182d8475bc85799a5644b",
                "assets": [
                    {
                        "address": "0xeeeeeeeeeeeeeeeeeeeeeeeeeeeeeeeeeeeeeeee",
                        "amount": "2.999999660686232621",
                        "iconUrl": "https://assets.blocksec.com/image/1663669189317-3.png",
                        "isERC1155": false,
                        "isERC721": false,
                        "sign": false,
                        "value": ""
                    },
                    {
                        "address": "0x2260fac5e5542a773aa44fbcfedf7c193bc2c599",
                        "amount": "0.07208165",
                        "iconUrl": "https://assets.blocksec.com/icon/878f2983cb21c5816eb5879d9b6f7a3fe2eb6fce7560c367a0315527852a8a84.png",
                        "isERC1155": false,
                        "isERC721": false,
                        "sign": true,
                        "value": ""
                    }
                ]
            },
            {
                "account": "0x63825c174ab367968ec60f061753d3bbd36a0d8f",
                "assets": [
                    {
                        "address": "0x2260fac5e5542a773aa44fbcfedf7c193bc2c599",
                        "amount": "0.07208173",
                        "iconUrl": "https://assets.blocksec.com/icon/878f2983cb21c5816eb5879d9b6f7a3fe2eb6fce7560c367a0315527852a8a84.png",
                        "isERC1155": false,
                        "isERC721": false,
                        "sign": false,
                        "value": ""
                    },
                    {
                        "address": "0xeeeeeeeeeeeeeeeeeeeeeeeeeeeeeeeeeeeeeeee",
                        "amount": "2.997856287424438157",
                        "iconUrl": "https://assets.blocksec.com/image/1663669189317-3.png",
                        "isERC1155": false,
                        "isERC721": false,
                        "sign": true,
                        "value": ""
                    }
                ]
            }
        ]
    },
    "profile": {
        "basic_info": {
            "baseFee": "",
            "blockNumber": 8144877,
            "callData": "0xab5898e80000000000000000000000000000000000000000000000000000000000000040000000000000000000000000000000000000000000000000000000000000000000000000000000000000000000000000000000000000000000000000000003a04801e61634d29dae5c94ba7eb70b61f43600a249000000000000000000000000000000000000000000000000000000000000000000000000000000000000000000000000000000000000000000000000000000649ce10e770000000000000000000000004d2f5cfba55ae412221182d8475bc85799a5644b00000000000000000000000000000000000000000000000000000000006dfce500000000000000000000000000000000000000000000000029a223ba0f09e4734801e61634d29dae5c94ba7eb70b61f43600a249000000000000000000000000000000000000000000000000000000000000000000000000000000000000000000000000000000000000000000000000000000a4cf0b3890000000000000000000000000798abda6cc246d0edba912092a2a3dbd3d11191b0000000000000000000000002260fac5e5542a773aa44fbcfedf7c193bc2c5990000000000000000000000000000000000000000000000000000000000000001000000000000000000000000000000000000000000000000299a8668fb9adf8d00000000000000000000000000000000000000000000000000556c40af29a4d8818e6fecd516ecc3849daf6845e3ec868087b755000000000000000000000000000000000000000000000000299a8668fb9adf8d00000000000000000000000000000000000000000000000000000000000000e4cb3c28c7000000000000000000000000eeeeeeeeeeeeeeeeeeeeeeeeeeeeeeeeeeeeeeee000000000000000000000000000000000000000000000000299a8668fb9adf8d0000000000000000000000002260fac5e5542a773aa44fbcfedf7c193bc2c59900000000000000000000000085c5c26dc2af5546341fc1988b9d178148b4838b800000000000000000000000000000000000000000000000000000000000000000000000000000000000000000000000000000000000000000556c40af29a4d8000000000000000000000000c9d81352fbdb0294b091e51d774a0652ef776d994d2f5cfba55ae412221182d8475bc85799a5644b0000000000000000000000000000000000000000000000000000000000000000000000000000000000000000000000000000000000000000000000000000006495e3c50b00000000000000000000000000000000000000000000000000000000006dfce500000000000000000000000000000000000000000000000029a223ba0f09e473000000000000000000000000000000000000000000000000000000005d2a41ba",
            "debugEnable": true,
            "errorInfo": "",
            "eventCount": 9,
            "feeRecipient": "0xea674fdde714fd979de3edf0f56aa9716b898ec8",
            "formatValue": "0",
            "gasLimit": 411364,
            "gasPrice": "4.800000002",
            "gasUsed": 337777,
            "intTxnCount": 33,
            "internalRevert": false,
            "internalRevertMessage": "",
            "isContractCreation": false,
            "isFlashloan": false,
            "maxFee": "",
            "nonce": 90998,
            "overwritedBlockNumber": -1,
            "priorityFee": "",
            "receiver": "0x85c5c26dc2af5546341fc1988b9d178148b4838b",
            "revertMessage": "",
            "sender": "0x55ae3f67039c332f55be00c1d33d989d2da108c5",
            "simulationEnable": true,
            "sourceTxnHash": "0x9ec3e1403fa3ef04237cf55bad1bb4dd493566951621f5751ac2dc05ea0a22ca",
            "status": true,
            "timestamp": "2019-07-13T20:35:56Z",
            "transactionFee": "0.001621329600675554",
            "txnHash": "0x9ec3e1403fa3ef04237cf55bad1bb4dd493566951621f5751ac2dc05ea0a22ca",
            "txnIndex": 39,
            "type": 0,
            "value": "0"
        },
        "fund_flow": [
            {
                "amount": "2.997856287424438157",
                "from": "0x85c5c26dc2af5546341fc1988b9d178148b4838b",
                "id": 1,
                "isERC1155": false,
                "isERC721": false,
                "isReverted": false,
                "order": 1,
                "to": "0x818e6fecd516ecc3849daf6845e3ec868087b755",
                "token": "0xeeeeeeeeeeeeeeeeeeeeeeeeeeeeeeeeeeeeeeee"
            },
            {
                "amount": "2.997856287424438157",
                "from": "0x818e6fecd516ecc3849daf6845e3ec868087b755",
                "id": 2,
                "isERC1155": false,
                "isERC721": false,
                "isReverted": false,
                "order": 2,
                "to": "0x9ae49c0d7f8f9ef4b864e004fe86ac8294e20950",
                "token": "0xeeeeeeeeeeeeeeeeeeeeeeeeeeeeeeeeeeeeeeee"
            },
            {
                "amount": "2.997856287424438157",
                "from": "0x9ae49c0d7f8f9ef4b864e004fe86ac8294e20950",
                "id": 3,
                "isERC1155": false,
                "isERC721": false,
                "isReverted": false,
                "order": 3,
                "to": "0x63825c174ab367968ec60f061753d3bbd36a0d8f",
                "token": "0xeeeeeeeeeeeeeeeeeeeeeeeeeeeeeeeeeeeeeeee"
            },
            {
                "amount": "0.07208173",
                "from": "0x63825c174ab367968ec60f061753d3bbd36a0d8f",
                "id": 4,
                "isERC1155": false,
                "isERC721": false,
                "isReverted": false,
                "order": 4,
                "to": "0x9ae49c0d7f8f9ef4b864e004fe86ac8294e20950",
                "token": "0x2260fac5e5542a773aa44fbcfedf7c193bc2c599"
            },
            {
                "amount": "0.07208173",
                "from": "0x9ae49c0d7f8f9ef4b864e004fe86ac8294e20950",
                "id": 5,
                "isERC1155": false,
                "isERC721": false,
                "isReverted": false,
                "order": 5,
                "to": "0x85c5c26dc2af5546341fc1988b9d178148b4838b",
                "token": "0x2260fac5e5542a773aa44fbcfedf7c193bc2c599"
            },
            {
                "amount": "2.999999660686232621",
                "from": "0x4d2f5cfba55ae412221182d8475bc85799a5644b",
                "id": 6,
                "isERC1155": false,
                "isERC721": false,
                "isReverted": false,
                "order": 6,
                "to": "0x85c5c26dc2af5546341fc1988b9d178148b4838b",
                "token": "0xeeeeeeeeeeeeeeeeeeeeeeeeeeeeeeeeeeeeeeee"
            },
            {
                "amount": "0.07208165",
                "from": "0x85c5c26dc2af5546341fc1988b9d178148b4838b",
                "id": 7,
                "isERC1155": false,
                "isERC721": false,
                "isReverted": false,
                "order": 7,
                "to": "0x4d2f5cfba55ae412221182d8475bc85799a5644b",
                "token": "0x2260fac5e5542a773aa44fbcfedf7c193bc2c599"
            }
        ],
        "token_infos": [
            {
                "address": "0xc02aaa39b223fe8d0a0e5c4f27ead9083c756cc2",
                "decimals": 18
            },
            {
                "address": "0xeeeeeeeeeeeeeeeeeeeeeeeeeeeeeeeeeeeeeeee",
                "decimals": 18
            },
            {
                "address": "0x2260fac5e5542a773aa44fbcfedf7c193bc2c599",
                "decimals": 8
            }
        ]
    },
    "address_label": {
        "labels": [
            {
                "address": "0x63825c174ab367968ec60f061753d3bbd36a0d8f",
                "label": "Kyber: Reserve"
            },
            {
                "address": "0xdd974d5c2e2928dea5f71b9825b8b646686bd200",
                "label": "Kyber: Old KNC Token"
            },
            {
                "address": "0x798abda6cc246d0edba912092a2a3dbd3d11191b",
                "label": "Kyber: Conversion Rates"
            },
            {
                "address": "0x818e6fecd516ecc3849daf6845e3ec868087b755",
                "label": "Kyber: Proxy"
            },
            {
                "address": "0xb0d27b025d5f79f955fa37cd3170b998661abff3",
                "label": "OrderbookReserve"
            },
            {
                "address": "0xeeeeeeeeeeeeeeeeeeeeeeeeeeeeeeeeeeeeeeee",
                "label": "Ether"
            },
            {
                "address": "0x2157a7894439191e520825fe9399ab8655e0f708",
                "label": "Uniswap Exchange Template"
            },
            {
                "address": "0x9ae49c0d7f8f9ef4b864e004fe86ac8294e20950",
                "label": "Kyber: Old Contract"
            },
            {
                "address": "0x7a3370075a54b187d7bd5dcebf0ff2b5552d4f7d",
                "label": "Kyber: Reserve 2"
            },
            {
                "address": "0x2260fac5e5542a773aa44fbcfedf7c193bc2c599",
                "label": "Wrapped BTC: WBTC Token"
            },
            {
                "address": "0x0000000000000000000000000000000000000001",
                "label": "Precompiled"
            },
            {
                "address": "0x0000000000000000000000000000000000000002",
                "label": "Precompiled"
            },
            {
                "address": "0xfb80bfa19cae9e00f28b0f7e1023109deeb10483",
                "label": "ConversionRates"
            },
            {
                "address": "0x52166528fcc12681af996e409ee3a421a4e128a3",
                "label": "FeeBurner"
            },
            {
                "address": "0xc0d3e654676b117663143eac33b45b620171244b",
                "label": "OrderList"
            },
            {
                "address": "0x0000000000000000000000000000000000000003",
                "label": "Precompiled"
            },
            {
                "address": "0x0000000000000000000000000000000000000004",
                "label": "Precompiled"
            },
            {
                "address": "0x4d2f5cfba55ae412221182d8475bc85799a5644b",
                "label": "Uniswap: WBTC"
            },
            {
                "address": "0xdfc85c08d5e5924ab49750e006cf8a826ffb7b13",
                "label": "SanityRates"
            }
        ]
    },
    "trace": {
        "accountLabels": null,
        "dataMap": {
            "-1": {
                "invocation": {
                    "address": "0x55ae3f67039c332f55be00c1d33d989d2da108c5",
                    "callData": "",
                    "decodedMethod": null,
                    "errorInfo": "",
                    "fromAddress": "",
                    "gasUsed": 0,
                    "id": -1,
                    "methodDecoded": false,
                    "operation": "",
                    "output": "",
                    "revert": false,
                    "revertMessage": "",
                    "selector": "",
                    "status": false,
                    "value": ""
                },
                "nodeType": 0
            },
            "0": {
                "invocation": {
                    "address": "0x85c5c26dc2af5546341fc1988b9d178148b4838b",
                    "callData": "0x0000000000000000000000000000000000000000000000000000000000000040000000000000000000000000000000000000000000000000000000000000000000000000000000000000000000000000000000000000000000000000000003a04801e61634d29dae5c94ba7eb70b61f43600a249000000000000000000000000000000000000000000000000000000000000000000000000000000000000000000000000000000000000000000000000000000649ce10e770000000000000000000000004d2f5cfba55ae412221182d8475bc85799a5644b00000000000000000000000000000000000000000000000000000000006dfce500000000000000000000000000000000000000000000000029a223ba0f09e4734801e61634d29dae5c94ba7eb70b61f43600a249000000000000000000000000000000000000000000000000000000000000000000000000000000000000000000000000000000000000000000000000000000a4cf0b3890000000000000000000000000798abda6cc246d0edba912092a2a3dbd3d11191b0000000000000000000000002260fac5e5542a773aa44fbcfedf7c193bc2c5990000000000000000000000000000000000000000000000000000000000000001000000000000000000000000000000000000000000000000299a8668fb9adf8d00000000000000000000000000000000000000000000000000556c40af29a4d8818e6fecd516ecc3849daf6845e3ec868087b755000000000000000000000000000000000000000000000000299a8668fb9adf8d00000000000000000000000000000000000000000000000000000000000000e4cb3c28c7000000000000000000000000eeeeeeeeeeeeeeeeeeeeeeeeeeeeeeeeeeeeeeee000000000000000000000000000000000000000000000000299a8668fb9adf8d0000000000000000000000002260fac5e5542a773aa44fbcfedf7c193bc2c59900000000000000000000000085c5c26dc2af5546341fc1988b9d178148b4838b800000000000000000000000000000000000000000000000000000000000000000000000000000000000000000000000000000000000000000556c40af29a4d8000000000000000000000000c9d81352fbdb0294b091e51d774a0652ef776d994d2f5cfba55ae412221182d8475bc85799a5644b0000000000000000000000000000000000000000000000000000000000000000000000000000000000000000000000000000000000000000000000000000006495e3c50b00000000000000000000000000000000000000000000000000000000006dfce500000000000000000000000000000000000000000000000029a223ba0f09e473000000000000000000000000000000000000000000000000000000005d2a41ba",
                    "decodedMethod": {
                        "callParams": [
                            {
                                "name": "data",
                                "type": "bytes",
                                "value": "0x4801e61634d29dae5c94ba7eb70b61f43600a249000000000000000000000000000000000000000000000000000000000000000000000000000000000000000000000000000000000000000000000000000000649ce10e770000000000000000000000004d2f5cfba55ae412221182d8475bc85799a5644b00000000000000000000000000000000000000000000000000000000006dfce500000000000000000000000000000000000000000000000029a223ba0f09e4734801e61634d29dae5c94ba7eb70b61f43600a249000000000000000000000000000000000000000000000000000000000000000000000000000000000000000000000000000000000000000000000000000000a4cf0b3890000000000000000000000000798abda6cc246d0edba912092a2a3dbd3d11191b0000000000000000000000002260fac5e5542a773aa44fbcfedf7c193bc2c5990000000000000000000000000000000000000000000000000000000000000001000000000000000000000000000000000000000000000000299a8668fb9adf8d00000000000000000000000000000000000000000000000000556c40af29a4d8818e6fecd516ecc3849daf6845e3ec868087b755000000000000000000000000000000000000000000000000299a8668fb9adf8d00000000000000000000000000000000000000000000000000000000000000e4cb3c28c7000000000000000000000000eeeeeeeeeeeeeeeeeeeeeeeeeeeeeeeeeeeeeeee000000000000000000000000000000000000000000000000299a8668fb9adf8d0000000000000000000000002260fac5e5542a773aa44fbcfedf7c193bc2c59900000000000000000000000085c5c26dc2af5546341fc1988b9d178148b4838b800000000000000000000000000000000000000000000000000000000000000000000000000000000000000000000000000000000000000000556c40af29a4d8000000000000000000000000c9d81352fbdb0294b091e51d774a0652ef776d994d2f5cfba55ae412221182d8475bc85799a5644b0000000000000000000000000000000000000000000000000000000000000000000000000000000000000000000000000000000000000000000000000000006495e3c50b00000000000000000000000000000000000000000000000000000000006dfce500000000000000000000000000000000000000000000000029a223ba0f09e473000000000000000000000000000000000000000000000000000000005d2a41ba"
                            },
                            {
                                "name": "tradeAmount",
                                "type": "uint256",
                                "value": "0"
                            }
                        ],
                        "constructorArguments": "",
                        "name": "execute",
                        "returnParams": [],
                        "signature": "execute(bytes,uint256)"
                    },
                    "errorInfo": "",
                    "fromAddress": "0x55ae3f67039c332f55be00c1d33d989d2da108c5",
                    "gasUsed": 337777,
                    "id": 0,
                    "methodDecoded": true,
                    "operation": "CALL",
                    "output": "",
                    "revert": false,
                    "revertMessage": "",
                    "selector": "0xab5898e8",
                    "status": true,
                    "value": "0"
                },
                "nodeType": 0
            },
            "1": {
                "invocation": {
                    "address": "0x4801e61634d29dae5c94ba7eb70b61f43600a249",
                    "callData": "0x0000000000000000000000004d2f5cfba55ae412221182d8475bc85799a5644b00000000000000000000000000000000000000000000000000000000006dfce500000000000000000000000000000000000000000000000029a223ba0f09e473",
                    "decodedMethod": null,
                    "errorInfo": "",
                    "fromAddress": "0x85c5c26dc2af5546341fc1988b9d178148b4838b",
                    "gasUsed": 8627,
                    "id": 1,
                    "methodDecoded": false,
                    "operation": "CALL",
                    "output": "0x0000000000000000000000000000000000000000000000000000000000000001",
                    "revert": false,
                    "revertMessage": "",
                    "selector": "0x9ce10e77",
                    "status": true,
                    "value": "0"
                },
                "nodeType": 0
            },
            "10": {
                "invocation": {
                    "address": "0x63825c174ab367968ec60f061753d3bbd36a0d8f",
                    "callData": "0x000000000000000000000000eeeeeeeeeeeeeeeeeeeeeeeeeeeeeeeeeeeeeeee0000000000000000000000002260fac5e5542a773aa44fbcfedf7c193bc2c599000000000000000000000000000000000000000000000000299a8668fb9adf8d00000000000000000000000000000000000000000000000000000000007c47ed",
                    "decodedMethod": {
                        "callParams": [
                            {
                                "name": "src",
                                "type": "address",
                                "value": "0xeeeeeeeeeeeeeeeeeeeeeeeeeeeeeeeeeeeeeeee"
                            },
                            {
                                "name": "dest",
                                "type": "address",
                                "value": "0x2260fac5e5542a773aa44fbcfedf7c193bc2c599"
                            },
                            {
                                "name": "srcQty",
                                "type": "uint256",
                                "value": "2,997,856,287,424,438,157"
                            },
                            {
                                "name": "blockNumber",
                                "type": "uint256",
                                "value": "8,144,877"
                            }
                        ],
                        "constructorArguments": "",
                        "name": "getConversionRate",
                        "returnParams": [
                            {
                                "name": "",
                                "type": "uint256",
                                "value": "24,044,426,229,047,315"
                            }
                        ],
                        "signature": "getConversionRate(address,address,uint256,uint256)"
                    },
                    "errorInfo": "",
                    "fromAddress": "0x9ae49c0d7f8f9ef4b864e004fe86ac8294e20950",
                    "gasUsed": 30863,
                    "id": 10,
                    "methodDecoded": true,
                    "operation": "CALL",
                    "output": "0x00000000000000000000000000000000000000000000000000556c473c35e013",
                    "revert": false,
                    "revertMessage": "",
                    "selector": "0x7cd44272",
                    "status": true,
                    "value": "0"
                },
                "nodeType": 0
            },
            "11": {
                "invocation": {
                    "address": "0x798abda6cc246d0edba912092a2a3dbd3d11191b",
                    "callData": "0x0000000000000000000000002260fac5e5542a773aa44fbcfedf7c193bc2c59900000000000000000000000000000000000000000000000000000000007c47ed0000000000000000000000000000000000000000000000000000000000000001000000000000000000000000000000000000000000000000299a8668fb9adf8d",
                    "decodedMethod": {
                        "callParams": [
                            {
                                "name": "token",
                                "type": "address",
                                "value": "0x2260fac5e5542a773aa44fbcfedf7c193bc2c599"
                            },
                            {
                                "name": "currentBlockNumber",
                                "type": "uint256",
                                "value": "8,144,877"
                            },
                            {
                                "name": "buy",
                                "type": "bool",
                                "value": true
                            },
                            {
                                "name": "qty",
                                "type": "uint256",
                                "value": "2,997,856,287,424,438,157"
                            }
                        ],
                        "constructorArguments": "",
                        "name": "getRate",
                        "returnParams": [
                            {
                                "name": "",
                                "type": "uint256",
                                "value": "24,044,426,229,047,315"
                            }
                        ],
                        "signature": "getRate(address,uint256,bool,uint256)"
                    },
                    "errorInfo": "",
                    "fromAddress": "0x63825c174ab367968ec60f061753d3bbd36a0d8f",
                    "gasUsed": 19695,
                    "id": 11,
                    "methodDecoded": true,
                    "operation": "CALL",
                    "output": "0x00000000000000000000000000000000000000000000000000556c473c35e013",
                    "revert": false,
                    "revertMessage": "",
                    "selector": "0xb8e9c22e",
                    "status": true,
                    "value": "0"
                },
                "nodeType": 0
            },
            "12": {
                "invocation": {
                    "address": "0x2260fac5e5542a773aa44fbcfedf7c193bc2c599",
                    "callData": "0x00000000000000000000000063825c174ab367968ec60f061753d3bbd36a0d8f",
                    "decodedMethod": {
                        "callParams": [
                            {
                                "name": "_owner",
                                "type": "address",
                                "value": "0x63825c174ab367968ec60f061753d3bbd36a0d8f"
                            }
                        ],
                        "constructorArguments": "",
                        "name": "balanceOf",
                        "returnParams": [
                            {
                                "decimalAvailable": true,
                                "name": "",
                                "type": "uint256",
                                "value": "3,604,965,061"
                            }
                        ],
                        "signature": "balanceOf(address)"
                    },
                    "errorInfo": "",
                    "fromAddress": "0x63825c174ab367968ec60f061753d3bbd36a0d8f",
                    "gasUsed": 895,
                    "id": 12,
                    "methodDecoded": true,
                    "operation": "CALL",
                    "output": "0x00000000000000000000000000000000000000000000000000000000d6df66c5",
                    "revert": false,
                    "revertMessage": "",
                    "selector": "0x70a08231",
                    "status": true,
                    "value": "0"
                },
                "nodeType": 0
            },
            "13": {
                "invocation": {
                    "address": "0xdfc85c08d5e5924ab49750e006cf8a826ffb7b13",
                    "callData": "0x000000000000000000000000eeeeeeeeeeeeeeeeeeeeeeeeeeeeeeeeeeeeeeee0000000000000000000000002260fac5e5542a773aa44fbcfedf7c193bc2c599",
                    "decodedMethod": {
                        "callParams": [
                            {
                                "name": "src",
                                "type": "address",
                                "value": "0xeeeeeeeeeeeeeeeeeeeeeeeeeeeeeeeeeeeeeeee"
                            },
                            {
                                "name": "dest",
                                "type": "address",
                                "value": "0x2260fac5e5542a773aa44fbcfedf7c193bc2c599"
                            }
                        ],
                        "constructorArguments": "",
                        "name": "getSanityRate",
                        "returnParams": [
                            {
                                "name": "",
                                "type": "uint256",
                                "value": "25,750,999,999,999,996"
                            }
                        ],
                        "signature": "getSanityRate(address,address)"
                    },
                    "errorInfo": "",
                    "fromAddress": "0x63825c174ab367968ec60f061753d3bbd36a0d8f",
                    "gasUsed": 1555,
                    "id": 13,
                    "methodDecoded": true,
                    "operation": "CALL",
                    "output": "0x000000000000000000000000000000000000000000000000005b7c65e79c6ffc",
                    "revert": false,
                    "revertMessage": "",
                    "selector": "0xa58092b7",
                    "status": true,
                    "value": "0"
                },
                "nodeType": 0
            },
            "14": {
                "invocation": {
                    "address": "0xb0d27b025d5f79f955fa37cd3170b998661abff3",
                    "callData": "0x000000000000000000000000eeeeeeeeeeeeeeeeeeeeeeeeeeeeeeeeeeeeeeee0000000000000000000000002260fac5e5542a773aa44fbcfedf7c193bc2c599000000000000000000000000000000000000000000000000299a8668fb9adf8d00000000000000000000000000000000000000000000000000000000007c47ed",
                    "decodedMethod": {
                        "callParams": [
                            {
                                "name": "src",
                                "type": "address",
                                "value": "0xeeeeeeeeeeeeeeeeeeeeeeeeeeeeeeeeeeeeeeee"
                            },
                            {
                                "name": "dst",
                                "type": "address",
                                "value": "0x2260fac5e5542a773aa44fbcfedf7c193bc2c599"
                            },
                            {
                                "name": "srcQty",
                                "type": "uint256",
                                "value": "2,997,856,287,424,438,157"
                            },
                            {
                                "name": "blockNumber",
                                "type": "uint256",
                                "value": "8,144,877"
                            }
                        ],
                        "constructorArguments": "",
                        "name": "getConversionRate",
                        "returnParams": [
                            {
                                "name": "",
                                "type": "uint256",
                                "value": "0"
                            }
                        ],
                        "signature": "getConversionRate(address,address,uint256,uint256)"
                    },
                    "errorInfo": "",
                    "fromAddress": "0x9ae49c0d7f8f9ef4b864e004fe86ac8294e20950",
                    "gasUsed": 8260,
                    "id": 14,
                    "methodDecoded": true,
                    "operation": "CALL",
                    "output": "0x0000000000000000000000000000000000000000000000000000000000000000",
                    "revert": false,
                    "revertMessage": "",
                    "selector": "0x7cd44272",
                    "status": true,
                    "value": "0"
                },
                "nodeType": 0
            },
            "15": {
                "invocation": {
                    "address": "0x52166528fcc12681af996e409ee3a421a4e128a3",
                    "callData": "0x",
                    "decodedMethod": {
                        "callParams": [],
                        "constructorArguments": "",
                        "name": "kncPerEthRatePrecision",
                        "returnParams": [
                            {
                                "name": "",
                                "type": "uint256",
                                "value": "1,269,005,578,316,618,993,994"
                            }
                        ],
                        "signature": "kncPerEthRatePrecision()"
                    },
                    "errorInfo": "",
                    "fromAddress": "0xb0d27b025d5f79f955fa37cd3170b998661abff3",
                    "gasUsed": 590,
                    "id": 15,
                    "methodDecoded": true,
                    "operation": "CALL",
                    "output": "0x000000000000000000000000000000000000000000000044cafd79ffcf39114a",
                    "revert": false,
                    "revertMessage": "",
                    "selector": "0x30125416",
                    "status": true,
                    "value": "0"
                },
                "nodeType": 0
            },
            "16": {
                "invocation": {
                    "address": "0xc0d3e654676b117663143eac33b45b620171244b",
                    "callData": "0x",
                    "decodedMethod": {
                        "callParams": [],
                        "constructorArguments": "",
                        "name": "getFirstOrder",
                        "returnParams": [
                            {
                                "name": "orderId",
                                "type": "uint32",
                                "value": "1"
                            },
                            {
                                "name": "isEmpty",
                                "type": "bool",
                                "value": true
                            }
                        ],
                        "signature": "getFirstOrder()"
                    },
                    "errorInfo": "",
                    "fromAddress": "0xb0d27b025d5f79f955fa37cd3170b998661abff3",
                    "gasUsed": 871,
                    "id": 16,
                    "methodDecoded": true,
                    "operation": "CALL",
                    "output": "0x00000000000000000000000000000000000000000000000000000000000000010000000000000000000000000000000000000000000000000000000000000001",
                    "revert": false,
                    "revertMessage": "",
                    "selector": "0xa3fb5917",
                    "status": true,
                    "value": "0"
                },
                "nodeType": 0
            },
            "17": {
                "invocation": {
                    "address": "0x7a3370075a54b187d7bd5dcebf0ff2b5552d4f7d",
                    "callData": "0x000000000000000000000000eeeeeeeeeeeeeeeeeeeeeeeeeeeeeeeeeeeeeeee0000000000000000000000002260fac5e5542a773aa44fbcfedf7c193bc2c599000000000000000000000000000000000000000000000000299a8668fb9adf8d00000000000000000000000000000000000000000000000000000000007c47ed",
                    "decodedMethod": {
                        "callParams": [
                            {
                                "name": "src",
                                "type": "address",
                                "value": "0xeeeeeeeeeeeeeeeeeeeeeeeeeeeeeeeeeeeeeeee"
                            },
                            {
                                "name": "dest",
                                "type": "address",
                                "value": "0x2260fac5e5542a773aa44fbcfedf7c193bc2c599"
                            },
                            {
                                "name": "srcQty",
                                "type": "uint256",
                                "value": "2,997,856,287,424,438,157"
                            },
                            {
                                "name": "blockNumber",
                                "type": "uint256",
                                "value": "8,144,877"
                            }
                        ],
                        "constructorArguments": "",
                        "name": "getConversionRate",
                        "returnParams": [
                            {
                                "name": "",
                                "type": "uint256",
                                "value": "23,903,191,738,910,400"
                            }
                        ],
                        "signature": "getConversionRate(address,address,uint256,uint256)"
                    },
                    "errorInfo": "",
                    "fromAddress": "0x9ae49c0d7f8f9ef4b864e004fe86ac8294e20950",
                    "gasUsed": 34248,
                    "id": 17,
                    "methodDecoded": true,
                    "operation": "CALL",
                    "output": "0x0000000000000000000000000000000000000000000000000054ebd3849886c0",
                    "revert": false,
                    "revertMessage": "",
                    "selector": "0x7cd44272",
                    "status": true,
                    "value": "0"
                },
                "nodeType": 0
            },
            "18": {
                "invocation": {
                    "address": "0xfb80bfa19cae9e00f28b0f7e1023109deeb10483",
                    "callData": "0x0000000000000000000000002260fac5e5542a773aa44fbcfedf7c193bc2c59900000000000000000000000000000000000000000000000000000000007c47ed0000000000000000000000000000000000000000000000000000000000000001000000000000000000000000000000000000000000000000299a8668fb9adf8d",
                    "decodedMethod": {
                        "callParams": [
                            {
                                "name": "token",
                                "type": "address",
                                "value": "0x2260fac5e5542a773aa44fbcfedf7c193bc2c599"
                            },
                            {
                                "name": "currentBlockNumber",
                                "type": "uint256",
                                "value": "8,144,877"
                            },
                            {
                                "name": "buy",
                                "type": "bool",
                                "value": true
                            },
                            {
                                "name": "qty",
                                "type": "uint256",
                                "value": "2,997,856,287,424,438,157"
                            }
                        ],
                        "constructorArguments": "",
                        "name": "getRate",
                        "returnParams": [
                            {
                                "name": "",
                                "type": "uint256",
                                "value": "23,903,191,738,910,400"
                            }
                        ],
                        "signature": "getRate(address,uint256,bool,uint256)"
                    },
                    "errorInfo": "",
                    "fromAddress": "0x7a3370075a54b187d7bd5dcebf0ff2b5552d4f7d",
                    "gasUsed": 21090,
                    "id": 18,
                    "methodDecoded": true,
                    "operation": "CALL",
                    "output": "0x0000000000000000000000000000000000000000000000000054ebd3849886c0",
                    "revert": false,
                    "revertMessage": "",
                    "selector": "0xb8e9c22e",
                    "status": true,
                    "value": "0"
                },
                "nodeType": 0
            },
            "19": {
                "invocation": {
                    "address": "0x2260fac5e5542a773aa44fbcfedf7c193bc2c599",
                    "callData": "0x",
                    "decodedMethod": {
                        "callParams": [],
                        "constructorArguments": "",
                        "name": "decimals",
                        "returnParams": [
                            {
                                "name": "",
                                "type": "uint8",
                                "value": "8"
                            }
                        ],
                        "signature": "decimals()"
                    },
                    "errorInfo": "",
                    "fromAddress": "0x7a3370075a54b187d7bd5dcebf0ff2b5552d4f7d",
                    "gasUsed": 531,
                    "id": 19,
                    "methodDecoded": true,
                    "operation": "CALL",
                    "output": "0x0000000000000000000000000000000000000000000000000000000000000008",
                    "revert": false,
                    "revertMessage": "",
                    "selector": "0x313ce567",
                    "status": true,
                    "value": "0"
                },
                "nodeType": 0
            },
            "2": {
                "invocation": {
                    "address": "0x4d2f5cfba55ae412221182d8475bc85799a5644b",
                    "callData": "0x00000000000000000000000000000000000000000000000000000000006dfce5",
                    "decodedMethod": {
                        "callParams": [
                            {
                                "name": "tokens_sold",
                                "type": "uint256",
                                "value": "7,208,165"
                            }
                        ],
                        "constructorArguments": "",
                        "name": "getTokenToEthInputPrice",
                        "returnParams": [
                            {
                                "name": "out",
                                "type": "uint256",
                                "value": "2,999,999,660,686,232,621"
                            }
                        ],
                        "signature": "getTokenToEthInputPrice(uint256)"
                    },
                    "errorInfo": "",
                    "fromAddress": "0x4801e61634d29dae5c94ba7eb70b61f43600a249",
                    "gasUsed": 6405,
                    "id": 2,
                    "methodDecoded": true,
                    "operation": "CALL",
                    "output": "0x00000000000000000000000000000000000000000000000029a223cbf57ecc2d006dfce500000000000000000000000000000000000000000000000000000000000000000000000000000000000000000000000000000000000000000000000000000000000000000000000000000000000000000000000000000000000000000000000000000000000000000000000000000000000000000000000000000000000000000000000000000000000000000000000000000000000000000000000000000000000000000000000000000000000000000000000000000000000000000000000000000000000000000000000000000000000000000000000000000000000000000000000000000000000000000000000000000000000000000000000000000000000000000000000000000000000000000000000000000000000000000000000000000000000000000000000000000000000000000000000000000000000000000000000000000000000000000000000000000000000000000000000000000000000000000000000000000000000000000000000000000000000000000000000000000000000000000000000000000000000000000000000000000000000000000000000000000000000000000000000000000000000000000000000000000000000000000000000000000000000000000000000000000000000000000000000000000000000000000000000000000000000000000000000000000000000000000000000000000000000000000000000000000000000000000000000000000000000000000000000000000000000000000000000000000000000000000000000000000000000000000000000000000000000000000000000000000000000000000000000000000000000000000000000000000000000000000000000000000000000000000000000000000000000000000000000000000000000000000000000000000000000000000000000000000000000000000000000000000000000000000000000000000000000000000000000000000000000000000000000000000000000000000000000000000000000000000000000000000000000000000000000000000000000000000000000000000000000000000000000000000000000000000000000000000000000000000000000000000000000000000000000000000000000000000000000000000000000000000000000000000000000000000000000000000000000000000000000000000000000000000000000000000000000000000000000000000000000000000000000000000000000000000000000000000000000000000000000000000000000000000000000000000000000000000000000000000000000000000000000000000000000000000000000000000000000000000000000000000000000000000000000000000000000000000000000000000000000000000000000000000000000000000000000000000000000000000000000000000000000000000000000000000000000000000000000000000000000000000000000000000000000000000000000000000000000000000000000000000000000000000000000000000000000000000000000000000000000000000000000000000000000000000000000000000000000000000000000000000000000000000000000000000000000000000000000000000000000000000000000000000000000000000000000000000000000000000000000000000000000000000000000000000000000000000000000000000000000000000000000000000000000000000000000000000000000000000000000000000000000000000000000000000000000000000000000000000000000000000000000000000000000000000000000000000000000000000000000000000000000000000000000000000000000000000000000000000000000000000000000000000000000000000000000000000000000000000000000000000000000000000000000000000000000000000000000000000000000000000000000000000000000000000000000000000000000000000000000000000000000000000000000000000000000000000000000000000000000000000000000000000000000000000000000000000000000000000000000000000000000000000000000000000000000000000000000000000000000000000000000000000000000000000000000000000000000000000000000000000000000000000000000000000000000000000000000000000000000000000000000000000000000000000000000000000000000000000000000000000000000000000000000000000000000000000000000000000000000000000000000000000000000000000000000000000000000000000000000000000000000000000000000000000000000000000000000000000000000000000000000000000000000000000000000000000000000000000000000000000000000000000000000000000000000000000000000000000000000000000000000000000000000000000000000000000000000000000000000000000000000000000000000000000000000000000000000000000000000000000000000000000000000000000000000000000000000000000000000000000000000000000000000000000000000000000000000000000000000000000000000000000000000000000000000000000000000000000000000000000000000000000000000000000000000000000000000000000000000000000000000000000000000000000000000000000000000000000000000000000000000000000000000000000000000000000000000000000000000000000000000000000000000000000000000000000000000000000000000000000000000000000000000000000000000000000000000000000000000000000000000000000000000000000000000000000000000000000000000000000000000000000000000000000000000000000000000000000000000000000000000000000000000000000000000000000000000000000000000000000000000000000000000000000000000000000000000000000000000000000000000000000000000000000000000000000000000000000000000000000000000000000000000000000000000000000000000000000000000000000000000000000000000000000000000000000000000000000000000000000000000000000000000000000000000000000000000000000000000000000000000000000000000000000000000000000000000000000000000000000000000000000000000000000000000000000000000000000000000000000000000000000000000000000000000000000000000000000000000000000000000000000000000000000000000000000000000000000000000000000000000000000000000000000000000000000000000000000000000000000000000000000000000000000000000000000000000000000000000000000000000000000000000000000000000000000000000000000000000000000000000000000000000000000000000000000000000000000000000000000000000000000000000000000000000000000000000000000000000000000000000000000000000000000000000000000000000000000000000000000000000000000000000000000000000000000000000000000000000000000000000000000000000000000000000000000000000000000000000000000000000000000000000000000000000000000000000000000000000000000000000000000000000000000000000000000000000000000000000000000000000000000000000000000000000000000000000000000000000000000000000000000000000000000000000000000000000000000000000000000000000000000000000000000000000000000000000000000000000000000000000000000000000000000000000000000000000000000000000000000000000000000000000000000000000000000000000000000000000000000000000000000000000000000000000000000000000000000000000000000000000000000000000000000000000000000000000000000000000000000000000000000000000000000000000000000000000000000000000000000000000000000000000000000000000000000000000000000000000000000000000000000000000000000000000000000000000000000000000000000000000000000000000000000000000000000000000000000000000000000000000000000000000000000000000000000000000000000000000000000000000000000000000000000000000000000000000000000000000000000000000000000000000000000000000000000000000000000000000000000000000000000000000000000000000000000000000000000000000000000000000000000000000000000000000000000000000000000000000000000000000000000000000000000000000000000000000000000000000000000000000000000000000000000000000000000000000000000000000000000000000000000000000000000000000000000000000000000000000000000000000000000000000000000000000000000000000000000000000000000000000000000000000000000000000000000000000000000000000000000000000000000000000000000000000000000000000000000000000000000000000000000000000000000000000000000000000000000000000000000000000000000000000000000000000000000000000000000000000000000000000000000000000000000000000000000000000000000000000000000000000000000000000000000000000000000000000000000000000000000000000000000000000000000000000000000000000000000000000000000000000000000000000000000000000000000000000000000000000000000000000000000000000000000000000000000000000000000000000000000000000000000000000000000000000000000000000000000000000000000000000000000000000000000000000000000000000000000000000000000000000000000000000000000000000000000000000000000000000000000000000000000000000000000000000000000000000000000000000000000000000000000000000000000000000000000000000000000000000000000000000000000000000000000000000000000000000000000000000000000000000000000000000000000000000000000000000000000000000000000000000000000000000000000000000000000000000000000000000000000000000000000000000000000000000000000000000000000000000000000000000000000000000000000000000000000000000000000000000000000000000000000000000000000000000000000000000000000000000000000000000000000000000000000000000000000000000000000000000000000000000000000000000000000000000000000000000000000000000000000000000000000000000000000000000000000000000000000000000000000000",
                    "revert": false,
                    "revertMessage": "",
                    "selector": "0x95b68fe7",
                    "status": true,
                    "value": "0"
                },
                "nodeType": 0
            },
            "20": {
                "invocation": {
                    "address": "0x2260fac5e5542a773aa44fbcfedf7c193bc2c599",
                    "callData": "0x0000000000000000000000009787ffbd8ac920317ba43333913419f14489aa5f",
                    "decodedMethod": {
                        "callParams": [
                            {
                                "name": "_owner",
                                "type": "address",
                                "value": "0x9787ffbd8ac920317ba43333913419f14489aa5f"
                            }
                        ],
                        "constructorArguments": "",
                        "name": "balanceOf",
                        "returnParams": [
                            {
                                "decimalAvailable": true,
                                "name": "",
                                "type": "uint256",
                                "value": "168,019,680"
                            }
                        ],
                        "signature": "balanceOf(address)"
                    },
                    "errorInfo": "",
                    "fromAddress": "0x7a3370075a54b187d7bd5dcebf0ff2b5552d4f7d",
                    "gasUsed": 895,
                    "id": 20,
                    "methodDecoded": true,
                    "operation": "CALL",
                    "output": "0x000000000000000000000000000000000000000000000000000000000a03c6e0",
                    "revert": false,
                    "revertMessage": "",
                    "selector": "0x70a08231",
                    "status": true,
                    "value": "0"
                },
                "nodeType": 0
            },
            "21": {
                "invocation": {
                    "address": "0x2260fac5e5542a773aa44fbcfedf7c193bc2c599",
                    "callData": "0x0000000000000000000000009787ffbd8ac920317ba43333913419f14489aa5f0000000000000000000000007a3370075a54b187d7bd5dcebf0ff2b5552d4f7d",
                    "decodedMethod": {
                        "callParams": [
                            {
                                "name": "_owner",
                                "type": "address",
                                "value": "0x9787ffbd8ac920317ba43333913419f14489aa5f"
                            },
                            {
                                "name": "_spender",
                                "type": "address",
                                "value": "0x7a3370075a54b187d7bd5dcebf0ff2b5552d4f7d"
                            }
                        ],
                        "constructorArguments": "",
                        "name": "allowance",
                        "returnParams": [
                            {
                                "decimalAvailable": true,
                                "name": "",
                                "type": "uint256",
                                "value": "115,792,089,237,316,195,423,570,985,008,687,907,853,269,984,665,640,564,039,457,584,007,913,010,295,877"
                            }
                        ],
                        "signature": "allowance(address,address)"
                    },
                    "errorInfo": "",
                    "fromAddress": "0x7a3370075a54b187d7bd5dcebf0ff2b5552d4f7d",
                    "gasUsed": 1170,
                    "id": 21,
                    "methodDecoded": true,
                    "operation": "CALL",
                    "output": "0xfffffffffffffffffffffffffffffffffffffffffffffffffffffffff8e2f445",
                    "revert": false,
                    "revertMessage": "",
                    "selector": "0xdd62ed3e",
                    "status": true,
                    "value": "0"
                },
                "nodeType": 0
            },
            "22": {
                "invocation": {
                    "address": "0x63825c174ab367968ec60f061753d3bbd36a0d8f",
                    "callData": "0x000000000000000000000000eeeeeeeeeeeeeeeeeeeeeeeeeeeeeeeeeeeeeeee000000000000000000000000000000000000000000000000299a8668fb9adf8d0000000000000000000000002260fac5e5542a773aa44fbcfedf7c193bc2c5990000000000000000000000009ae49c0d7f8f9ef4b864e004fe86ac8294e2095000000000000000000000000000000000000000000000000000556c473c35e0130000000000000000000000000000000000000000000000000000000000000001",
                    "decodedMethod": {
                        "callParams": [
                            {
                                "name": "srcToken",
                                "type": "address",
                                "value": "0xeeeeeeeeeeeeeeeeeeeeeeeeeeeeeeeeeeeeeeee"
                            },
                            {
                                "name": "srcAmount",
                                "type": "uint256",
                                "value": "2,997,856,287,424,438,157"
                            },
                            {
                                "name": "destToken",
                                "type": "address",
                                "value": "0x2260fac5e5542a773aa44fbcfedf7c193bc2c599"
                            },
                            {
                                "name": "destAddress",
                                "type": "address",
                                "value": "0x9ae49c0d7f8f9ef4b864e004fe86ac8294e20950"
                            },
                            {
                                "name": "conversionRate",
                                "type": "uint256",
                                "value": "24,044,426,229,047,315"
                            },
                            {
                                "name": "validate",
                                "type": "bool",
                                "value": true
                            }
                        ],
                        "constructorArguments": "",
                        "name": "trade",
                        "returnParams": [
                            {
                                "name": "",
                                "type": "bool",
                                "value": true
                            }
                        ],
                        "signature": "trade(address,uint256,address,address,uint256,bool)"
                    },
                    "errorInfo": "",
                    "fromAddress": "0x9ae49c0d7f8f9ef4b864e004fe86ac8294e20950",
                    "gasUsed": 53666,
                    "id": 22,
                    "methodDecoded": true,
                    "operation": "CALL",
                    "output": "0x0000000000000000000000000000000000000000000000000000000000000001",
                    "revert": false,
                    "revertMessage": "",
                    "selector": "0x6cf69811",
                    "status": true,
                    "value": "2.997856287424438157"
                },
                "nodeType": 0
            },
            "23": {
                "invocation": {
                    "address": "0x798abda6cc246d0edba912092a2a3dbd3d11191b",
                    "callData": "0x0000000000000000000000002260fac5e5542a773aa44fbcfedf7c193bc2c59900000000000000000000000000000000000000000000000000000000006dfced000000000000000000000000000000000000000000000000000000000000000000000000000000000000000000000000000000000000000000000000007c47ed",
                    "decodedMethod": {
                        "callParams": [
                            {
                                "name": "token",
                                "type": "address",
                                "value": "0x2260fac5e5542a773aa44fbcfedf7c193bc2c599"
                            },
                            {
                                "name": "buyAmount",
                                "type": "int256",
                                "value": "7,208,173"
                            },
                            {
                                "name": "rateUpdateBlock",
                                "type": "uint256",
                                "value": "0"
                            },
                            {
                                "name": "currentBlock",
                                "type": "uint256",
                                "value": "8,144,877"
                            }
                        ],
                        "constructorArguments": "",
                        "name": "recordImbalance",
                        "returnParams": [],
                        "signature": "recordImbalance(address,int256,uint256,uint256)"
                    },
                    "errorInfo": "",
                    "fromAddress": "0x63825c174ab367968ec60f061753d3bbd36a0d8f",
                    "gasUsed": 14759,
                    "id": 23,
                    "methodDecoded": true,
                    "operation": "CALL",
                    "output": "",
                    "revert": false,
                    "revertMessage": "",
                    "selector": "0xc6fd2103",
                    "status": true,
                    "value": "0"
                },
                "nodeType": 0
            },
            "24": {
                "invocation": {
                    "address": "0x2260fac5e5542a773aa44fbcfedf7c193bc2c599",
                    "callData": "0x0000000000000000000000009ae49c0d7f8f9ef4b864e004fe86ac8294e2095000000000000000000000000000000000000000000000000000000000006dfced",
                    "decodedMethod": {
                        "callParams": [
                            {
                                "name": "_to",
                                "type": "address",
                                "value": "0x9ae49c0d7f8f9ef4b864e004fe86ac8294e20950"
                            },
                            {
                                "decimalAvailable": true,
                                "name": "_value",
                                "type": "uint256",
                                "value": "7,208,173"
                            }
                        ],
                        "constructorArguments": "",
                        "name": "transfer",
                        "returnParams": [
                            {
                                "name": "",
                                "type": "bool",
                                "value": true
                            }
                        ],
                        "signature": "transfer(address,uint256)"
                    },
                    "errorInfo": "",
                    "fromAddress": "0x63825c174ab367968ec60f061753d3bbd36a0d8f",
                    "gasUsed": 29303,
                    "id": 24,
                    "methodDecoded": true,
                    "operation": "CALL",
                    "output": "0x0000000000000000000000000000000000000000000000000000000000000001",
                    "revert": false,
                    "revertMessage": "",
                    "selector": "0xa9059cbb",
                    "status": true,
                    "value": "0"
                },
                "nodeType": 0
            },
            "25": {
                "event": {
                    "contract": "0x2260fac5e5542a773aa44fbcfedf7c193bc2c599",
                    "decodedLog": {
                        "name": "Transfer",
                        "params": [
                            {
                                "name": "from",
                                "type": "address",
                                "value": "0x63825c174ab367968ec60f061753d3bbd36a0d8f"
                            },
                            {
                                "name": "to",
                                "type": "address",
                                "value": "0x9ae49c0d7f8f9ef4b864e004fe86ac8294e20950"
                            },
                            {
                                "decimalAvailable": true,
                                "name": "value",
                                "type": "uint256",
                                "value": "7,208,173"
                            }
                        ],
                        "signature": "Transfer(address,address,uint256)"
                    },
                    "id": 25,
                    "logData": "0x00000000000000000000000000000000000000000000000000000000006dfced",
                    "logDecoded": true,
                    "operation": "EVENT",
                    "revert": false,
                    "status": true,
                    "topics": [
                        "0xddf252ad1be2c89b69c2b068fc378daa952ba7f163c4a11628f55a4df523b3ef",
                        "0x00000000000000000000000063825c174ab367968ec60f061753d3bbd36a0d8f",
                        "0x0000000000000000000000009ae49c0d7f8f9ef4b864e004fe86ac8294e20950"
                    ]
                },
                "nodeType": 1
            },
            "26": {
                "event": {
                    "contract": "0x63825c174ab367968ec60f061753d3bbd36a0d8f",
                    "decodedLog": {
                        "name": "TradeExecute",
                        "params": [
                            {
                                "name": "origin",
                                "type": "address",
                                "value": "0x9ae49c0d7f8f9ef4b864e004fe86ac8294e20950"
                            },
                            {
                                "name": "src",
                                "type": "address",
                                "value": "0xeeeeeeeeeeeeeeeeeeeeeeeeeeeeeeeeeeeeeeee"
                            },
                            {
                                "name": "srcAmount",
                                "type": "uint256",
                                "value": "2,997,856,287,424,438,157"
                            },
                            {
                                "name": "destToken",
                                "type": "address",
                                "value": "0x2260fac5e5542a773aa44fbcfedf7c193bc2c599"
                            },
                            {
                                "name": "destAmount",
                                "type": "uint256",
                                "value": "7,208,173"
                            },
                            {
                                "name": "destAddress",
                                "type": "address",
                                "value": "0x9ae49c0d7f8f9ef4b864e004fe86ac8294e20950"
                            }
                        ],
                        "signature": "TradeExecute(address,address,uint256,address,uint256,address)"
                    },
                    "id": 26,
                    "logData": "0x000000000000000000000000eeeeeeeeeeeeeeeeeeeeeeeeeeeeeeeeeeeeeeee000000000000000000000000000000000000000000000000299a8668fb9adf8d0000000000000000000000002260fac5e5542a773aa44fbcfedf7c193bc2c59900000000000000000000000000000000000000000000000000000000006dfced0000000000000000000000009ae49c0d7f8f9ef4b864e004fe86ac8294e20950",
                    "logDecoded": true,
                    "operation": "EVENT",
                    "revert": false,
                    "status": true,
                    "topics": [
                        "0xea9415385bae08fe9f6dc457b02577166790cde83bb18cc340aac6cb81b824de",
                        "0x0000000000000000000000009ae49c0d7f8f9ef4b864e004fe86ac8294e20950"
                    ]
                },
                "nodeType": 1
            },
            "27": {
                "invocation": {
                    "address": "0x2260fac5e5542a773aa44fbcfedf7c193bc2c599",
                    "callData": "0x00000000000000000000000085c5c26dc2af5546341fc1988b9d178148b4838b00000000000000000000000000000000000000000000000000000000006dfced",
                    "decodedMethod": {
                        "callParams": [
                            {
                                "name": "_to",
                                "type": "address",
                                "value": "0x85c5c26dc2af5546341fc1988b9d178148b4838b"
                            },
                            {
                                "decimalAvailable": true,
                                "name": "_value",
                                "type": "uint256",
                                "value": "7,208,173"
                            }
                        ],
                        "constructorArguments": "",
                        "name": "transfer",
                        "returnParams": [
                            {
                                "name": "",
                                "type": "bool",
                                "value": true
                            }
                        ],
                        "signature": "transfer(address,uint256)"
                    },
                    "errorInfo": "",
                    "fromAddress": "0x9ae49c0d7f8f9ef4b864e004fe86ac8294e20950",
                    "gasUsed": 14303,
                    "id": 27,
                    "methodDecoded": true,
                    "operation": "CALL",
                    "output": "0x0000000000000000000000000000000000000000000000000000000000000001",
                    "revert": false,
                    "revertMessage": "",
                    "selector": "0xa9059cbb",
                    "status": true,
                    "value": "0"
                },
                "nodeType": 0
            },
            "28": {
                "event": {
                    "contract": "0x2260fac5e5542a773aa44fbcfedf7c193bc2c599",
                    "decodedLog": {
                        "name": "Transfer",
                        "params": [
                            {
                                "name": "from",
                                "type": "address",
                                "value": "0x9ae49c0d7f8f9ef4b864e004fe86ac8294e20950"
                            },
                            {
                                "name": "to",
                                "type": "address",
                                "value": "0x85c5c26dc2af5546341fc1988b9d178148b4838b"
                            },
                            {
                                "decimalAvailable": true,
                                "name": "value",
                                "type": "uint256",
                                "value": "7,208,173"
                            }
                        ],
                        "signature": "Transfer(address,address,uint256)"
                    },
                    "id": 28,
                    "logData": "0x00000000000000000000000000000000000000000000000000000000006dfced",
                    "logDecoded": true,
                    "operation": "EVENT",
                    "revert": false,
                    "status": true,
                    "topics": [
                        "0xddf252ad1be2c89b69c2b068fc378daa952ba7f163c4a11628f55a4df523b3ef",
                        "0x0000000000000000000000009ae49c0d7f8f9ef4b864e004fe86ac8294e20950",
                        "0x00000000000000000000000085c5c26dc2af5546341fc1988b9d178148b4838b"
                    ]
                },
                "nodeType": 1
            },
            "29": {
                "invocation": {
                    "address": "0x52166528fcc12681af996e409ee3a421a4e128a3",
                    "callData": "0x000000000000000000000000000000000000000000000000299a8668fb9adf8d00000000000000000000000063825c174ab367968ec60f061753d3bbd36a0d8f000000000000000000000000c9d81352fbdb0294b091e51d774a0652ef776d99",
                    "decodedMethod": {
                        "callParams": [
                            {
                                "name": "tradeWeiAmount",
                                "type": "uint256",
                                "value": "2,997,856,287,424,438,157"
                            },
                            {
                                "name": "reserve",
                                "type": "address",
                                "value": "0x63825c174ab367968ec60f061753d3bbd36a0d8f"
                            },
                            {
                                "name": "wallet",
                                "type": "address",
                                "value": "0xc9d81352fbdb0294b091e51d774a0652ef776d99"
                            }
                        ],
                        "constructorArguments": "",
                        "name": "handleFees",
                        "returnParams": [
                            {
                                "name": "",
                                "type": "bool",
                                "value": true
                            }
                        ],
                        "signature": "handleFees(uint256,address,address)"
                    },
                    "errorInfo": "",
                    "fromAddress": "0x9ae49c0d7f8f9ef4b864e004fe86ac8294e20950",
                    "gasUsed": 19637,
                    "id": 29,
                    "methodDecoded": true,
                    "operation": "CALL",
                    "output": "0x0000000000000000000000000000000000000000000000000000000000000001",
                    "revert": false,
                    "revertMessage": "",
                    "selector": "0xfd062d3b",
                    "status": true,
                    "value": "0"
                },
                "nodeType": 0
            },
            "3": {
                "invocation": {
                    "address": "0x2157a7894439191e520825fe9399ab8655e0f708",
                    "callData": "0x00000000000000000000000000000000000000000000000000000000006dfce5",
                    "decodedMethod": {
                        "callParams": [
                            {
                                "name": "tokens_sold",
                                "type": "uint256",
                                "value": "7,208,165"
                            }
                        ],
                        "constructorArguments": "",
                        "name": "getTokenToEthInputPrice",
                        "returnParams": [
                            {
                                "name": "out",
                                "type": "uint256",
                                "value": "2,999,999,660,686,232,621"
                            }
                        ],
                        "signature": "getTokenToEthInputPrice(uint256)"
                    },
                    "errorInfo": "",
                    "fromAddress": "0x4d2f5cfba55ae412221182d8475bc85799a5644b",
                    "gasUsed": 5235,
                    "id": 3,
                    "methodDecoded": true,
                    "operation": "DELEGATECALL",
                    "output": "0x00000000000000000000000000000000000000000000000029a223cbf57ecc2d",
                    "revert": false,
                    "revertMessage": "",
                    "selector": "0x95b68fe7",
                    "status": true,
                    "value": "0"
                },
                "nodeType": 0
            },
            "30": {
                "invocation": {
                    "address": "0xdd974d5c2e2928dea5f71b9825b8b646686bd200",
                    "callData": "0x",
                    "decodedMethod": {
                        "callParams": [],
                        "constructorArguments": "",
                        "name": "decimals",
                        "returnParams": [
                            {
                                "name": "",
                                "type": "uint256",
                                "value": "18"
                            }
                        ],
                        "signature": "decimals()"
                    },
                    "errorInfo": "",
                    "fromAddress": "0x52166528fcc12681af996e409ee3a421a4e128a3",
                    "gasUsed": 280,
                    "id": 30,
                    "methodDecoded": true,
                    "operation": "CALL",
                    "output": "0x0000000000000000000000000000000000000000000000000000000000000012",
                    "revert": false,
                    "revertMessage": "",
                    "selector": "0x313ce567",
                    "status": true,
                    "value": "0"
                },
                "nodeType": 0
            },
            "31": {
                "event": {
                    "contract": "0x52166528fcc12681af996e409ee3a421a4e128a3",
                    "decodedLog": {
                        "name": "AssignFeeToWallet",
                        "params": [
                            {
                                "name": "reserve",
                                "type": "address",
                                "value": "0x63825c174ab367968ec60f061753d3bbd36a0d8f"
                            },
                            {
                                "name": "wallet",
                                "type": "address",
                                "value": "0xc9d81352fbdb0294b091e51d774a0652ef776d99"
                            },
                            {
                                "name": "walletFee",
                                "type": "uint256",
                                "value": "2,853,222,263,799,871,137"
                            }
                        ],
                        "signature": "AssignFeeToWallet(address,address,uint256)"
                    },
                    "id": 31,
                    "logData": "0x00000000000000000000000063825c174ab367968ec60f061753d3bbd36a0d8f000000000000000000000000c9d81352fbdb0294b091e51d774a0652ef776d990000000000000000000000000000000000000000000000002798ae882b06f6a1",
                    "logDecoded": true,
                    "operation": "EVENT",
                    "revert": false,
                    "status": true,
                    "topics": [
                        "0x366bc34352215bf0bd3b527cfd6718605e1f5938777e42bcd8ed92f578368f52"
                    ]
                },
                "nodeType": 1
            },
            "32": {
                "event": {
                    "contract": "0x52166528fcc12681af996e409ee3a421a4e128a3",
                    "decodedLog": {
                        "name": "AssignBurnFees",
                        "params": [
                            {
                                "name": "reserve",
                                "type": "address",
                                "value": "0x63825c174ab367968ec60f061753d3bbd36a0d8f"
                            },
                            {
                                "name": "burnFee",
                                "type": "uint256",
                                "value": "6,657,518,615,533,032,654"
                            }
                        ],
                        "signature": "AssignBurnFees(address,uint256)"
                    },
                    "id": 32,
                    "logData": "0x00000000000000000000000063825c174ab367968ec60f061753d3bbd36a0d8f0000000000000000000000000000000000000000000000005c6441e8646594ce",
                    "logDecoded": true,
                    "operation": "EVENT",
                    "revert": false,
                    "status": true,
                    "topics": [
                        "0xf838f6ddc89706878e3c3e698e9b5cbfbf2c0e3d3dcd0bd2e00f1ccf313e0185"
                    ]
                },
                "nodeType": 1
            },
            "33": {
                "event": {
                    "contract": "0x9ae49c0d7f8f9ef4b864e004fe86ac8294e20950",
                    "decodedLog": {
                        "name": "KyberTrade",
                        "params": [
                            {
                                "name": "trader",
                                "type": "address",
                                "value": "0x85c5c26dc2af5546341fc1988b9d178148b4838b"
                            },
                            {
                                "name": "src",
                                "type": "address",
                                "value": "0xeeeeeeeeeeeeeeeeeeeeeeeeeeeeeeeeeeeeeeee"
                            },
                            {
                                "name": "dest",
                                "type": "address",
                                "value": "0x2260fac5e5542a773aa44fbcfedf7c193bc2c599"
                            },
                            {
                                "name": "srcAmount",
                                "type": "uint256",
                                "value": "2,997,856,287,424,438,157"
                            },
                            {
                                "name": "dstAmount",
                                "type": "uint256",
                                "value": "7,208,173"
                            },
                            {
                                "name": "destAddress",
                                "type": "address",
                                "value": "0x85c5c26dc2af5546341fc1988b9d178148b4838b"
                            },
                            {
                                "name": "ethWeiValue",
                                "type": "uint256",
                                "value": "2,997,856,287,424,438,157"
                            },
                            {
                                "name": "reserve1",
                                "type": "address",
                                "value": "0x0000000000000000000000000000000000000000"
                            },
                            {
                                "name": "reserve2",
                                "type": "address",
                                "value": "0x63825c174ab367968ec60f061753d3bbd36a0d8f"
                            },
                            {
                                "name": "hint",
                                "type": "bytes",
                                "value": "0x"
                            }
                        ],
                        "signature": "KyberTrade(address,address,address,uint256,uint256,address,uint256,address,address,bytes)"
                    },
                    "id": 33,
                    "logData": "0x000000000000000000000000eeeeeeeeeeeeeeeeeeeeeeeeeeeeeeeeeeeeeeee0000000000000000000000002260fac5e5542a773aa44fbcfedf7c193bc2c599000000000000000000000000000000000000000000000000299a8668fb9adf8d00000000000000000000000000000000000000000000000000000000006dfced00000000000000000000000085c5c26dc2af5546341fc1988b9d178148b4838b000000000000000000000000000000000000000000000000299a8668fb9adf8d000000000000000000000000000000000000000000000000000000000000000000000000000000000000000063825c174ab367968ec60f061753d3bbd36a0d8f00000000000000000000000000000000000000000000000000000000000001200000000000000000000000000000000000000000000000000000000000000000",
                    "logDecoded": true,
                    "operation": "EVENT",
                    "revert": false,
                    "status": true,
                    "topics": [
                        "0xd30ca399cb43507ecec6a629a35cf45eb98cda550c27696dcb0d8c4a3873ce6c",
                        "0x00000000000000000000000085c5c26dc2af5546341fc1988b9d178148b4838b"
                    ]
                },
                "nodeType": 1
            },
            "34": {
                "invocation": {
                    "address": "0x2260fac5e5542a773aa44fbcfedf7c193bc2c599",
                    "callData": "0x00000000000000000000000085c5c26dc2af5546341fc1988b9d178148b4838b",
                    "decodedMethod": {
                        "callParams": [
                            {
                                "name": "_owner",
                                "type": "address",
                                "value": "0x85c5c26dc2af5546341fc1988b9d178148b4838b"
                            }
                        ],
                        "constructorArguments": "",
                        "name": "balanceOf",
                        "returnParams": [
                            {
                                "decimalAvailable": true,
                                "name": "",
                                "type": "uint256",
                                "value": "7,266,021"
                            }
                        ],
                        "signature": "balanceOf(address)"
                    },
                    "errorInfo": "",
                    "fromAddress": "0x818e6fecd516ecc3849daf6845e3ec868087b755",
                    "gasUsed": 895,
                    "id": 34,
                    "methodDecoded": true,
                    "operation": "CALL",
                    "output": "0x00000000000000000000000000000000000000000000000000000000006edee5",
                    "revert": false,
                    "revertMessage": "",
                    "selector": "0x70a08231",
                    "status": true,
                    "value": "0"
                },
                "nodeType": 0
            },
            "35": {
                "event": {
                    "contract": "0x818e6fecd516ecc3849daf6845e3ec868087b755",
                    "decodedLog": {
                        "name": "ExecuteTrade",
                        "params": [
                            {
                                "name": "trader",
                                "type": "address",
                                "value": "0x85c5c26dc2af5546341fc1988b9d178148b4838b"
                            },
                            {
                                "name": "src",
                                "type": "address",
                                "value": "0xeeeeeeeeeeeeeeeeeeeeeeeeeeeeeeeeeeeeeeee"
                            },
                            {
                                "name": "dest",
                                "type": "address",
                                "value": "0x2260fac5e5542a773aa44fbcfedf7c193bc2c599"
                            },
                            {
                                "name": "actualSrcAmount",
                                "type": "uint256",
                                "value": "2,997,856,287,424,438,157"
                            },
                            {
                                "name": "actualDestAmount",
                                "type": "uint256",
                                "value": "7,208,173"
                            }
                        ],
                        "signature": "ExecuteTrade(address,address,address,uint256,uint256)"
                    },
                    "id": 35,
                    "logData": "0x000000000000000000000000eeeeeeeeeeeeeeeeeeeeeeeeeeeeeeeeeeeeeeee0000000000000000000000002260fac5e5542a773aa44fbcfedf7c193bc2c599000000000000000000000000000000000000000000000000299a8668fb9adf8d00000000000000000000000000000000000000000000000000000000006dfced",
                    "logDecoded": true,
                    "operation": "EVENT",
                    "revert": false,
                    "status": true,
                    "topics": [
                        "0x1849bd6a030a1bca28b83437fd3de96f3d27a5d172fa7e9c78e7b61468928a39",
                        "0x00000000000000000000000085c5c26dc2af5546341fc1988b9d178148b4838b"
                    ]
                },
                "nodeType": 1
            },
            "36": {
                "invocation": {
                    "address": "0x4d2f5cfba55ae412221182d8475bc85799a5644b",
                    "callData": "0x00000000000000000000000000000000000000000000000000000000006dfce500000000000000000000000000000000000000000000000029a223ba0f09e473000000000000000000000000000000000000000000000000000000005d2a41ba",
                    "decodedMethod": {
                        "callParams": [
                            {
                                "name": "tokens_sold",
                                "type": "uint256",
                                "value": "7,208,165"
                            },
                            {
                                "name": "min_eth",
                                "type": "uint256",
                                "value": "2,999,999,583,805,367,411"
                            },
                            {
                                "name": "deadline",
                                "type": "uint256",
                                "value": "1,563,050,426"
                            }
                        ],
                        "constructorArguments": "",
                        "name": "tokenToEthSwapInput",
                        "returnParams": [
                            {
                                "name": "out",
                                "type": "uint256",
                                "value": "2,999,999,660,686,232,621"
                            }
                        ],
                        "signature": "tokenToEthSwapInput(uint256,uint256,uint256)"
                    },
                    "errorInfo": "",
                    "fromAddress": "0x85c5c26dc2af5546341fc1988b9d178148b4838b",
                    "gasUsed": 38144,
                    "id": 36,
                    "methodDecoded": true,
                    "operation": "CALL",
                    "output": "0x00000000000000000000000000000000000000000000000029a223cbf57ecc2d006dfce500000000000000000000000000000000000000000000000029a223ba0f09e473000000000000000000000000000000000000000000000000000000005d2a41ba000000000000000000000000000000000000000000000000000000000000000000000000000000000000000000000000000000000000000000000000000000000000000000000000000000000000000000000000000000000000000000000000000000000000000000000000000000000000000000000000000000000000000000000000000000000000000000000000000000000000000000000000000000000000000000000000000000000000000000000000000000000000000000000000000000000000000000000000000000000000000000000000000000000000000000000000000000000000000000000000000000000000000000000000000000000000000000000000000000000000000000000000000000000000000000000000000000000000000000000000000000000000000000000000000000000000000000000000000000000000000000000000000000000000000000000000000000000000000000000000000000000000000000000000000000000000000000000000000000000000000000000000000000000000000000000000000000000000000000000000000000000000000000000000000000000000000000000000000000000000000000000000000000000000000000000000000000000000000000000000000000000000000000000000000000000000000000000000000000000000000000000000000000000000000000000000000000000000000000000000000000000000000000000000000000000000000000000000000000000000000000000000000000000000000000000000000000000000000000000000000000000000000000000000000000000000000000000000000000000000000000000000000000000000000000000000000000000000000000000000000000000000000000000000000000000000000000000000000000000000000000000000000000000000000000000000000000000000000000000000000000000000000000000000000000000000000000000000000000000000000000000000000000000000000000000000000000000000000000000000000000000000000000000000000000000000000000000000000000000000000000000000000000000000000000000000000000000000000000000000000000000000000000000000000000000000000000000000000000000000000000000000000000000000000000000000000000000000000000000000000000000000000000000000000000000000000000000000000000000000000000000000000000000000000000000000000000000000000000000000000000000000000000000000000000000000000000000000000000000000000000000000000000000000000000000000000000000000000000000000000000000000000000000000000000000000000000000000000000000000000000000000000000000000000000000000000000000000000000000000000000000000000000000000000000000000000000000000000000000000000000000000000000000000000000000000000000000000000000000000000000000000000000000000000000000000000000000000000000000000000000000000000000000000000000000000000000000000000000000000000000000000000000000000000000000000000000000000000000000000000000000000000000000000000000000000000000000000000000000000000000000000000000000000000000000000000000000000000000000000000000000000000000000000000000000000000000000000000000000000000000000000000000000000000000000000000000000000000000000000000000000000000000000000000000000000000000000000000000000000000000000000000000000000000000000000000000000000000000000000000000000000000000000000000000000000000000000000000000000000000000000000000000000000000000000000000000000000000000000000000000000000000000000000000000000000000000000000000000000000000000000000000000000000000000000000000000000000000000000000000000000000000000000000000000000000000000000000000000000000000000000000000000000000000000000000000000000000000000000000000000000000000000000000000000000000000000000000000000000000000000000000000000000000000000000000000000000000000000000000000000000000000000000000000000000000000000000000000000000000000000000000000000000000000000000000000000000000000000000000000000000000000000000000000000000000000000000000000000000000000000000000000000000000000000000000000000000000000000000000000000000000000000000000000000000000000000000000000000000000000000000000000000000000000000000000000000000000000000000000000000000000000000000000000000000000000000000000000000000000000000000000000000000000000000000000000000000000000000000000000000000000000000000000000000000000000000000000000000000000000000000000000000000000000000000000000000000000000000000000000000000000000000000000000000000000000000000000000000000000000000000000000000000000000000000000000000000000000000000000000000000000000000000000000000000000000000000000000000000000000000000000000000000000000000000000000000000000000000000000000000000000000000000000000000000000000000000000000000000000000000000000000000000000000000000000000000000000000000000000000000000000000000000000000000000000000000000000000000000000000000000000000000000000000000000000000000000000000000000000000000000000000000000000000000000000000000000000000000000000000000000000000000000000000000000000000000000000000000000000000000000000000000000000000000000000000000000000000000000000000000000000000000000000000000000000000000000000000000000000000000000000000000000000000000000000000000000000000000000000000000000000000000000000000000000000000000000000000000000000000000000000000000000000000000000000000000000000000000000000000000000000000000000000000000000000000000000000000000000000000000000000000000000000000000000000000000000000000000000000000000000000000000000000000000000000000000000000000000000000000000000000000000000000000000000000000000000000000000000000000000000000000000000000000000000000000000000000000000000000000000000000000000000000000000000000000000000000000000000000000000000000000000000000000000000000000000000000000000000000000000000000000000000000000000000000000000000000000000000000000000000000000000000000000000000000000000000000000000000000000000000000000000000000000000000000000000000000000000000000000000000000000000000000000000000000000000000000000000000000000000000000000000000000000000000000000000000000000000000000000000000000000000000000000000000000000000000000000000000000000000000000000000000000000000000000000000000000000000000000000000000000000000000000000000000000000000000000000000000000000000000000000000000000000000000000000000000000000000000000000000000000000000000000000000000000000000000000000000000000000000000000000000000000000000000000000000000000000000000000000000000000000000000000000000000000000000000000000000000000000000000000000000000000000000000000000000000000000000000000000000000000000000000000000000000000000000000000000000000000000000000000000000000000000000000000000000000000000000000000000000000000000000000000000000000000000000000000000000000000000000000000000000000000000000000000000000000000000000000000000000000000000000000000000000000000000000000000000000000000000000000000000000000000000000000000000000000000000000000000000000000000000000000000000000000000000000000000000000000000000000000000000000000000000000000000000000000000000000000000000000000000000000000000000000000000000000000000000000000000000000000000000000000000000000000000000000000000000000000000000000000000000000000000000000000000000000000000000000000000000000000000000000000000000000000000000000000000000000000000000000000000000000000000000000000000000000000000000000000000000000000000000000000000000000000000000000000000000000000000000000000000000000000000000000000000000000000000000000000000000000000000000000000000000000000000000000000000000000000000000000000000000000000000000000000000000000000000000000000000000000000000000000000000000000000000000000000000000000000000000000000000000000000000000000000000000000000000000000000000000000000000000000000000000000000000000000000000000000000000000000000000000000000000000000000000000000000000000000000000000000000000000000000000000000000000000000000000000000000000000000000000000000000000000000000000000000000000000000000000000000000000000000000000000000000000000000000000000000000000000000000000000000000000000000000000000000000000000000000000000000000000000000000000000000000000000000000000000000000000000000000000000000000000000000000000000000000000000000000000000000000000000000000000000000000000000000000000000000000000000000000000000000000000000000000000000000000000000000000000000000000000000000000000000000000000000000000000000000000000000000000000000000000000000000000000000000000000000000000000000000000000000000000000000000000000000000000000000000000000000000000000000000000000000000000000000000000000000000000000000000000000",
                    "revert": false,
                    "revertMessage": "",
                    "selector": "0x95e3c50b",
                    "status": true,
                    "value": "0"
                },
                "nodeType": 0
            },
            "37": {
                "invocation": {
                    "address": "0x2157a7894439191e520825fe9399ab8655e0f708",
                    "callData": "0x00000000000000000000000000000000000000000000000000000000006dfce500000000000000000000000000000000000000000000000029a223ba0f09e473000000000000000000000000000000000000000000000000000000005d2a41ba",
                    "decodedMethod": {
                        "callParams": [
                            {
                                "name": "tokens_sold",
                                "type": "uint256",
                                "value": "7,208,165"
                            },
                            {
                                "name": "min_eth",
                                "type": "uint256",
                                "value": "2,999,999,583,805,367,411"
                            },
                            {
                                "name": "deadline",
                                "type": "uint256",
                                "value": "1,563,050,426"
                            }
                        ],
                        "constructorArguments": "",
                        "name": "tokenToEthSwapInput",
                        "returnParams": [
                            {
                                "name": "out",
                                "type": "uint256",
                                "value": "2,999,999,660,686,232,621"
                            }
                        ],
                        "signature": "tokenToEthSwapInput(uint256,uint256,uint256)"
                    },
                    "errorInfo": "",
                    "fromAddress": "0x4d2f5cfba55ae412221182d8475bc85799a5644b",
                    "gasUsed": 36968,
                    "id": 37,
                    "methodDecoded": true,
                    "operation": "DELEGATECALL",
                    "output": "0x00000000000000000000000000000000000000000000000029a223cbf57ecc2d",
                    "revert": false,
                    "revertMessage": "",
                    "selector": "0x95e3c50b",
                    "status": true,
                    "value": "0"
                },
                "nodeType": 0
            },
            "38": {
                "invocation": {
                    "address": "0x2260fac5e5542a773aa44fbcfedf7c193bc2c599",
                    "callData": "0x0000000000000000000000004d2f5cfba55ae412221182d8475bc85799a5644b",
                    "decodedMethod": {
                        "callParams": [
                            {
                                "name": "_owner",
                                "type": "address",
                                "value": "0x4d2f5cfba55ae412221182d8475bc85799a5644b"
                            }
                        ],
                        "constructorArguments": "",
                        "name": "balanceOf",
                        "returnParams": [
                            {
                                "decimalAvailable": true,
                                "name": "",
                                "type": "uint256",
                                "value": "5,282,263,504"
                            }
                        ],
                        "signature": "balanceOf(address)"
                    },
                    "errorInfo": "",
                    "fromAddress": "0x4d2f5cfba55ae412221182d8475bc85799a5644b",
                    "gasUsed": 895,
                    "id": 38,
                    "methodDecoded": true,
                    "operation": "STATICCALL",
                    "output": "0x000000000000000000000000000000000000000000000000000000013ad8f1d0",
                    "revert": false,
                    "revertMessage": "",
                    "selector": "0x70a08231",
                    "status": true,
                    "value": "0"
                },
                "nodeType": 0
            },
            "39": {
                "invocation": {
                    "address": "0x85c5c26dc2af5546341fc1988b9d178148b4838b",
                    "callData": "0x",
                    "decodedMethod": null,
                    "errorInfo": "",
                    "fromAddress": "0x4d2f5cfba55ae412221182d8475bc85799a5644b",
                    "gasUsed": 40,
                    "id": 39,
                    "methodDecoded": false,
                    "operation": "CALL",
                    "output": "",
                    "revert": false,
                    "revertMessage": "",
                    "selector": "fallback",
                    "status": true,
                    "value": "2.999999660686232621"
                },
                "nodeType": 0
            },
            "4": {
                "invocation": {
                    "address": "0x2260fac5e5542a773aa44fbcfedf7c193bc2c599",
                    "callData": "0x0000000000000000000000004d2f5cfba55ae412221182d8475bc85799a5644b",
                    "decodedMethod": {
                        "callParams": [
                            {
                                "name": "_owner",
                                "type": "address",
                                "value": "0x4d2f5cfba55ae412221182d8475bc85799a5644b"
                            }
                        ],
                        "constructorArguments": "",
                        "name": "balanceOf",
                        "returnParams": [
                            {
                                "decimalAvailable": true,
                                "name": "",
                                "type": "uint256",
                                "value": "5,282,263,504"
                            }
                        ],
                        "signature": "balanceOf(address)"
                    },
                    "errorInfo": "",
                    "fromAddress": "0x4d2f5cfba55ae412221182d8475bc85799a5644b",
                    "gasUsed": 895,
                    "id": 4,
                    "methodDecoded": true,
                    "operation": "STATICCALL",
                    "output": "0x000000000000000000000000000000000000000000000000000000013ad8f1d0",
                    "revert": false,
                    "revertMessage": "",
                    "selector": "0x70a08231",
                    "status": true,
                    "value": "0"
                },
                "nodeType": 0
            },
            "40": {
                "invocation": {
                    "address": "0x2260fac5e5542a773aa44fbcfedf7c193bc2c599",
                    "callData": "0x00000000000000000000000085c5c26dc2af5546341fc1988b9d178148b4838b0000000000000000000000004d2f5cfba55ae412221182d8475bc85799a5644b00000000000000000000000000000000000000000000000000000000006dfce5",
                    "decodedMethod": {
                        "callParams": [
                            {
                                "name": "_from",
                                "type": "address",
                                "value": "0x85c5c26dc2af5546341fc1988b9d178148b4838b"
                            },
                            {
                                "name": "_to",
                                "type": "address",
                                "value": "0x4d2f5cfba55ae412221182d8475bc85799a5644b"
                            },
                            {
                                "decimalAvailable": true,
                                "name": "_value",
                                "type": "uint256",
                                "value": "7,208,165"
                            }
                        ],
                        "constructorArguments": "",
                        "name": "transferFrom",
                        "returnParams": [
                            {
                                "name": "",
                                "type": "bool",
                                "value": true
                            }
                        ],
                        "signature": "transferFrom(address,address,uint256)"
                    },
                    "errorInfo": "",
                    "fromAddress": "0x4d2f5cfba55ae412221182d8475bc85799a5644b",
                    "gasUsed": 20270,
                    "id": 40,
                    "methodDecoded": true,
                    "operation": "CALL",
                    "output": "0x0000000000000000000000000000000000000000000000000000000000000001",
                    "revert": false,
                    "revertMessage": "",
                    "selector": "0x23b872dd",
                    "status": true,
                    "value": "0"
                },
                "nodeType": 0
            },
            "41": {
                "event": {
                    "contract": "0x2260fac5e5542a773aa44fbcfedf7c193bc2c599",
                    "decodedLog": {
                        "name": "Transfer",
                        "params": [
                            {
                                "name": "from",
                                "type": "address",
                                "value": "0x85c5c26dc2af5546341fc1988b9d178148b4838b"
                            },
                            {
                                "name": "to",
                                "type": "address",
                                "value": "0x4d2f5cfba55ae412221182d8475bc85799a5644b"
                            },
                            {
                                "decimalAvailable": true,
                                "name": "value",
                                "type": "uint256",
                                "value": "7,208,165"
                            }
                        ],
                        "signature": "Transfer(address,address,uint256)"
                    },
                    "id": 41,
                    "logData": "0x00000000000000000000000000000000000000000000000000000000006dfce5",
                    "logDecoded": true,
                    "operation": "EVENT",
                    "revert": false,
                    "status": true,
                    "topics": [
                        "0xddf252ad1be2c89b69c2b068fc378daa952ba7f163c4a11628f55a4df523b3ef",
                        "0x00000000000000000000000085c5c26dc2af5546341fc1988b9d178148b4838b",
                        "0x0000000000000000000000004d2f5cfba55ae412221182d8475bc85799a5644b"
                    ]
                },
                "nodeType": 1
            },
            "42": {
                "event": {
                    "contract": "0x4d2f5cfba55ae412221182d8475bc85799a5644b",
                    "decodedLog": {
                        "name": "EthPurchase",
                        "params": [
                            {
                                "name": "buyer",
                                "type": "address",
                                "value": "0x85c5c26dc2af5546341fc1988b9d178148b4838b"
                            },
                            {
                                "name": "tokens_sold",
                                "type": "uint256",
                                "value": "7,208,165"
                            },
                            {
                                "name": "eth_bought",
                                "type": "uint256",
                                "value": "2,999,999,660,686,232,621"
                            }
                        ],
                        "signature": "EthPurchase(address,uint256,uint256)"
                    },
                    "id": 42,
                    "logData": "0x",
                    "logDecoded": true,
                    "operation": "EVENT",
                    "revert": false,
                    "status": true,
                    "topics": [
                        "0x7f4091b46c33e918a0f3aa42307641d17bb67029427a5369e54b353984238705",
                        "0x00000000000000000000000085c5c26dc2af5546341fc1988b9d178148b4838b",
                        "0x00000000000000000000000000000000000000000000000000000000006dfce5",
                        "0x00000000000000000000000000000000000000000000000029a223cbf57ecc2d"
                    ]
                },
                "nodeType": 1
            },
            "5": {
                "invocation": {
                    "address": "0x4801e61634d29dae5c94ba7eb70b61f43600a249",
                    "callData": "0x000000000000000000000000798abda6cc246d0edba912092a2a3dbd3d11191b0000000000000000000000002260fac5e5542a773aa44fbcfedf7c193bc2c5990000000000000000000000000000000000000000000000000000000000000001000000000000000000000000000000000000000000000000299a8668fb9adf8d00000000000000000000000000000000000000000000000000556c40af29a4d8",
                    "decodedMethod": null,
                    "errorInfo": "",
                    "fromAddress": "0x85c5c26dc2af5546341fc1988b9d178148b4838b",
                    "gasUsed": 22176,
                    "id": 5,
                    "methodDecoded": false,
                    "operation": "CALL",
                    "output": "0x0000000000000000000000000000000000000000000000000000000000000001",
                    "revert": false,
                    "revertMessage": "",
                    "selector": "0xcf0b3890",
                    "status": true,
                    "value": "0"
                },
                "nodeType": 0
            },
            "6": {
                "invocation": {
                    "address": "0x798abda6cc246d0edba912092a2a3dbd3d11191b",
                    "callData": "0x0000000000000000000000002260fac5e5542a773aa44fbcfedf7c193bc2c59900000000000000000000000000000000000000000000000000000000007c47ed0000000000000000000000000000000000000000000000000000000000000001000000000000000000000000000000000000000000000000299a8668fb9adf8d",
                    "decodedMethod": {
                        "callParams": [
                            {
                                "name": "token",
                                "type": "address",
                                "value": "0x2260fac5e5542a773aa44fbcfedf7c193bc2c599"
                            },
                            {
                                "name": "currentBlockNumber",
                                "type": "uint256",
                                "value": "8,144,877"
                            },
                            {
                                "name": "buy",
                                "type": "bool",
                                "value": true
                            },
                            {
                                "name": "qty",
                                "type": "uint256",
                                "value": "2,997,856,287,424,438,157"
                            }
                        ],
                        "constructorArguments": "",
                        "name": "getRate",
                        "returnParams": [
                            {
                                "name": "",
                                "type": "uint256",
                                "value": "24,044,426,229,047,315"
                            }
                        ],
                        "signature": "getRate(address,uint256,bool,uint256)"
                    },
                    "errorInfo": "",
                    "fromAddress": "0x4801e61634d29dae5c94ba7eb70b61f43600a249",
                    "gasUsed": 19695,
                    "id": 6,
                    "methodDecoded": true,
                    "operation": "CALL",
                    "output": "0x00000000000000000000000000000000000000000000000000556c473c35e013",
                    "revert": false,
                    "revertMessage": "",
                    "selector": "0xb8e9c22e",
                    "status": true,
                    "value": "0"
                },
                "nodeType": 0
            },
            "7": {
                "invocation": {
                    "address": "0x818e6fecd516ecc3849daf6845e3ec868087b755",
                    "callData": "0x000000000000000000000000eeeeeeeeeeeeeeeeeeeeeeeeeeeeeeeeeeeeeeee000000000000000000000000000000000000000000000000299a8668fb9adf8d0000000000000000000000002260fac5e5542a773aa44fbcfedf7c193bc2c59900000000000000000000000085c5c26dc2af5546341fc1988b9d178148b4838b800000000000000000000000000000000000000000000000000000000000000000000000000000000000000000000000000000000000000000556c40af29a4d8000000000000000000000000c9d81352fbdb0294b091e51d774a0652ef776d99",
                    "decodedMethod": {
                        "callParams": [
                            {
                                "name": "src",
                                "type": "address",
                                "value": "0xeeeeeeeeeeeeeeeeeeeeeeeeeeeeeeeeeeeeeeee"
                            },
                            {
                                "name": "srcAmount",
                                "type": "uint256",
                                "value": "2,997,856,287,424,438,157"
                            },
                            {
                                "name": "dest",
                                "type": "address",
                                "value": "0x2260fac5e5542a773aa44fbcfedf7c193bc2c599"
                            },
                            {
                                "name": "destAddress",
                                "type": "address",
                                "value": "0x85c5c26dc2af5546341fc1988b9d178148b4838b"
                            },
                            {
                                "name": "maxDestAmount",
                                "type": "uint256",
                                "value": "57,896,044,618,658,097,711,785,492,504,343,953,926,634,992,332,820,282,019,728,792,003,956,564,819,968"
                            },
                            {
                                "name": "minConversionRate",
                                "type": "uint256",
                                "value": "24,044,398,092,854,488"
                            },
                            {
                                "name": "walletId",
                                "type": "address",
                                "value": "0xc9d81352fbdb0294b091e51d774a0652ef776d99"
                            }
                        ],
                        "constructorArguments": "",
                        "name": "trade",
                        "returnParams": [
                            {
                                "name": "",
                                "type": "uint256",
                                "value": "7,208,173"
                            }
                        ],
                        "signature": "trade(address,uint256,address,address,uint256,uint256,address)"
                    },
                    "errorInfo": "",
                    "fromAddress": "0x85c5c26dc2af5546341fc1988b9d178148b4838b",
                    "gasUsed": 225986,
                    "id": 7,
                    "methodDecoded": true,
                    "operation": "CALL",
                    "output": "0x00000000000000000000000000000000000000000000000000000000006dfced",
                    "revert": false,
                    "revertMessage": "",
                    "selector": "0xcb3c28c7",
                    "status": true,
                    "value": "2.997856287424438157"
                },
                "nodeType": 0
            },
            "8": {
                "invocation": {
                    "address": "0x2260fac5e5542a773aa44fbcfedf7c193bc2c599",
                    "callData": "0x00000000000000000000000085c5c26dc2af5546341fc1988b9d178148b4838b",
                    "decodedMethod": {
                        "callParams": [
                            {
                                "name": "_owner",
                                "type": "address",
                                "value": "0x85c5c26dc2af5546341fc1988b9d178148b4838b"
                            }
                        ],
                        "constructorArguments": "",
                        "name": "balanceOf",
                        "returnParams": [
                            {
                                "decimalAvailable": true,
                                "name": "",
                                "type": "uint256",
                                "value": "57,848"
                            }
                        ],
                        "signature": "balanceOf(address)"
                    },
                    "errorInfo": "",
                    "fromAddress": "0x818e6fecd516ecc3849daf6845e3ec868087b755",
                    "gasUsed": 895,
                    "id": 8,
                    "methodDecoded": true,
                    "operation": "CALL",
                    "output": "0x000000000000000000000000000000000000000000000000000000000000e1f8",
                    "revert": false,
                    "revertMessage": "",
                    "selector": "0x70a08231",
                    "status": true,
                    "value": "0"
                },
                "nodeType": 0
            },
            "9": {
                "invocation": {
                    "address": "0x9ae49c0d7f8f9ef4b864e004fe86ac8294e20950",
                    "callData": "0x00000000000000000000000085c5c26dc2af5546341fc1988b9d178148b4838b000000000000000000000000eeeeeeeeeeeeeeeeeeeeeeeeeeeeeeeeeeeeeeee000000000000000000000000000000000000000000000000299a8668fb9adf8d0000000000000000000000002260fac5e5542a773aa44fbcfedf7c193bc2c59900000000000000000000000085c5c26dc2af5546341fc1988b9d178148b4838b800000000000000000000000000000000000000000000000000000000000000000000000000000000000000000000000000000000000000000556c40af29a4d8000000000000000000000000c9d81352fbdb0294b091e51d774a0652ef776d9900000000000000000000000000000000000000000000000000000000000001200000000000000000000000000000000000000000000000000000000000000000",
                    "decodedMethod": {
                        "callParams": [
                            {
                                "name": "trader",
                                "type": "address",
                                "value": "0x85c5c26dc2af5546341fc1988b9d178148b4838b"
                            },
                            {
                                "name": "src",
                                "type": "address",
                                "value": "0xeeeeeeeeeeeeeeeeeeeeeeeeeeeeeeeeeeeeeeee"
                            },
                            {
                                "name": "srcAmount",
                                "type": "uint256",
                                "value": "2,997,856,287,424,438,157"
                            },
                            {
                                "name": "dest",
                                "type": "address",
                                "value": "0x2260fac5e5542a773aa44fbcfedf7c193bc2c599"
                            },
                            {
                                "name": "destAddress",
                                "type": "address",
                                "value": "0x85c5c26dc2af5546341fc1988b9d178148b4838b"
                            },
                            {
                                "name": "maxDestAmount",
                                "type": "uint256",
                                "value": "57,896,044,618,658,097,711,785,492,504,343,953,926,634,992,332,820,282,019,728,792,003,956,564,819,968"
                            },
                            {
                                "name": "minConversionRate",
                                "type": "uint256",
                                "value": "24,044,398,092,854,488"
                            },
                            {
                                "name": "walletId",
                                "type": "address",
                                "value": "0xc9d81352fbdb0294b091e51d774a0652ef776d99"
                            },
                            {
                                "name": "hint",
                                "type": "bytes",
                                "value": "0x"
                            }
                        ],
                        "constructorArguments": "",
                        "name": "tradeWithHint",
                        "returnParams": [
                            {
                                "name": "",
                                "type": "uint256",
                                "value": "7,208,173"
                            }
                        ],
                        "signature": "tradeWithHint(address,address,uint256,address,address,uint256,uint256,address,bytes)"
                    },
                    "errorInfo": "",
                    "fromAddress": "0x818e6fecd516ecc3849daf6845e3ec868087b755",
                    "gasUsed": 203797,
                    "id": 9,
                    "methodDecoded": true,
                    "operation": "CALL",
                    "output": "0x00000000000000000000000000000000000000000000000000000000006dfced",
                    "revert": false,
                    "revertMessage": "",
                    "selector": "0x088322ef",
                    "status": true,
                    "value": "2.997856287424438157"
                },
                "nodeType": 0
            }
        },
        "gasFlame": [
            {
                "children": [
                    {
                        "children": [
                            {
                                "children": [],
                                "depth": 0,
                                "name": "Initial Gas",
                                "value": 45016
                            },
                            {
                                "children": [
                                    {
                                        "children": [
                                            {
                                                "children": [
                                                    {
                                                        "children": [
                                                            {
                                                                "children": [],
                                                                "depth": 4,
                                                                "name": "balanceOf",
                                                                "value": 895
                                                            }
                                                        ],
                                                        "depth": 3,
                                                        "name": "getTokenToEthInputPrice",
                                                        "value": 5235
                                                    }
                                                ],
                                                "depth": 2,
                                                "name": "getTokenToEthInputPrice",
                                                "value": 6405
                                            }
                                        ],
                                        "depth": 1,
                                        "name": "0x9ce10e77",
                                        "value": 8627
                                    },
                                    {
                                        "children": [
                                            {
                                                "children": [],
                                                "depth": 2,
                                                "name": "getRate",
                                                "value": 19695
                                            }
                                        ],
                                        "depth": 1,
                                        "name": "0xcf0b3890",
                                        "value": 22176
                                    },
                                    {
                                        "children": [
                                            {
                                                "children": [],
                                                "depth": 2,
                                                "name": "balanceOf",
                                                "value": 895
                                            },
                                            {
                                                "children": [
                                                    {
                                                        "children": [
                                                            {
                                                                "children": [],
                                                                "depth": 4,
                                                                "name": "getRate",
                                                                "value": 19695
                                                            },
                                                            {
                                                                "children": [],
                                                                "depth": 4,
                                                                "name": "balanceOf",
                                                                "value": 895
                                                            },
                                                            {
                                                                "children": [],
                                                                "depth": 4,
                                                                "name": "getSanityRate",
                                                                "value": 1555
                                                            }
                                                        ],
                                                        "depth": 3,
                                                        "name": "getConversionRate",
                                                        "value": 30863
                                                    },
                                                    {
                                                        "children": [
                                                            {
                                                                "children": [],
                                                                "depth": 4,
                                                                "name": "kncPerEthRatePrecision",
                                                                "value": 590
                                                            },
                                                            {
                                                                "children": [],
                                                                "depth": 4,
                                                                "name": "getFirstOrder",
                                                                "value": 871
                                                            }
                                                        ],
                                                        "depth": 3,
                                                        "name": "getConversionRate",
                                                        "value": 8260
                                                    },
                                                    {
                                                        "children": [
                                                            {
                                                                "children": [],
                                                                "depth": 4,
                                                                "name": "getRate",
                                                                "value": 21090
                                                            },
                                                            {
                                                                "children": [],
                                                                "depth": 4,
                                                                "name": "decimals",
                                                                "value": 531
                                                            },
                                                            {
                                                                "children": [],
                                                                "depth": 4,
                                                                "name": "balanceOf",
                                                                "value": 895
                                                            },
                                                            {
                                                                "children": [],
                                                                "depth": 4,
                                                                "name": "allowance",
                                                                "value": 1170
                                                            }
                                                        ],
                                                        "depth": 3,
                                                        "name": "getConversionRate",
                                                        "value": 34248
                                                    },
                                                    {
                                                        "children": [
                                                            {
                                                                "children": [],
                                                                "depth": 4,
                                                                "name": "recordImbalance",
                                                                "value": 14759
                                                            },
                                                            {
                                                                "children": [],
                                                                "depth": 4,
                                                                "name": "transfer",
                                                                "value": 29303
                                                            }
                                                        ],
                                                        "depth": 3,
                                                        "name": "trade",
                                                        "value": 53666
                                                    },
                                                    {
                                                        "children": [],
                                                        "depth": 3,
                                                        "name": "transfer",
                                                        "value": 14303
                                                    },
                                                    {
                                                        "children": [
                                                            {
                                                                "children": [],
                                                                "depth": 4,
                                                                "name": "decimals",
                                                                "value": 280
                                                            }
                                                        ],
                                                        "depth": 3,
                                                        "name": "handleFees",
                                                        "value": 19637
                                                    }
                                                ],
                                                "depth": 2,
                                                "name": "tradeWithHint",
                                                "value": 203797
                                            },
                                            {
                                                "children": [],
                                                "depth": 2,
                                                "name": "balanceOf",
                                                "value": 895
                                            }
                                        ],
                                        "depth": 1,
                                        "name": "trade",
                                        "value": 225986
                                    },
                                    {
                                        "children": [
                                            {
                                                "children": [
                                                    {
                                                        "children": [],
                                                        "depth": 3,
                                                        "name": "balanceOf",
                                                        "value": 895
                                                    },
                                                    {
                                                        "children": [],
                                                        "depth": 3,
                                                        "name": "fallback",
                                                        "value": 40
                                                    },
                                                    {
                                                        "children": [],
                                                        "depth": 3,
                                                        "name": "transferFrom",
                                                        "value": 20270
                                                    }
                                                ],
                                                "depth": 2,
                                                "name": "tokenToEthSwapInput",
                                                "value": 36968
                                            }
                                        ],
                                        "depth": 1,
                                        "name": "tokenToEthSwapInput",
                                        "value": 38144
                                    }
                                ],
                                "depth": 0,
                                "name": "Executed Gas",
                                "value": 307761
                            }
                        ],
                        "depth": -1,
                        "name": "Actual Gas Used",
                        "value": 337777
                    },
                    {
                        "children": [],
                        "depth": -1,
                        "name": "Refunded Gas",
                        "value": 15000
                    }
                ],
                "depth": -2,
                "name": "Total Gas",
                "value": 352777
            }
        ],
        "isConfirmed": true,
        "mainTrace": [
            {
                "children": [
                    {
                        "children": [
                            {
                                "children": [
                                    {
                                        "children": [
                                            {
                                                "children": [
                                                    {
                                                        "children": [],
                                                        "depth": 4,
                                                        "id": 4,
                                                        "order": 4
                                                    }
                                                ],
                                                "depth": 3,
                                                "id": 3,
                                                "order": 3
                                            }
                                        ],
                                        "depth": 2,
                                        "id": 2,
                                        "order": 2
                                    }
                                ],
                                "depth": 1,
                                "id": 1,
                                "order": 1
                            },
                            {
                                "children": [
                                    {
                                        "children": [],
                                        "depth": 2,
                                        "id": 6,
                                        "order": 6
                                    }
                                ],
                                "depth": 1,
                                "id": 5,
                                "order": 5
                            },
                            {
                                "children": [
                                    {
                                        "children": [],
                                        "depth": 2,
                                        "id": 8,
                                        "order": 8
                                    },
                                    {
                                        "children": [
                                            {
                                                "children": [
                                                    {
                                                        "children": [],
                                                        "depth": 4,
                                                        "id": 11,
                                                        "order": 11
                                                    },
                                                    {
                                                        "children": [],
                                                        "depth": 4,
                                                        "id": 12,
                                                        "order": 12
                                                    },
                                                    {
                                                        "children": [],
                                                        "depth": 4,
                                                        "id": 13,
                                                        "order": 13
                                                    }
                                                ],
                                                "depth": 3,
                                                "id": 10,
                                                "order": 10
                                            },
                                            {
                                                "children": [
                                                    {
                                                        "children": [],
                                                        "depth": 4,
                                                        "id": 15,
                                                        "order": 15
                                                    },
                                                    {
                                                        "children": [],
                                                        "depth": 4,
                                                        "id": 16,
                                                        "order": 16
                                                    }
                                                ],
                                                "depth": 3,
                                                "id": 14,
                                                "order": 14
                                            },
                                            {
                                                "children": [
                                                    {
                                                        "children": [],
                                                        "depth": 4,
                                                        "id": 18,
                                                        "order": 18
                                                    },
                                                    {
                                                        "children": [],
                                                        "depth": 4,
                                                        "id": 19,
                                                        "order": 19
                                                    },
                                                    {
                                                        "children": [],
                                                        "depth": 4,
                                                        "id": 20,
                                                        "order": 20
                                                    },
                                                    {
                                                        "children": [],
                                                        "depth": 4,
                                                        "id": 21,
                                                        "order": 21
                                                    }
                                                ],
                                                "depth": 3,
                                                "id": 17,
                                                "order": 17
                                            },
                                            {
                                                "children": [
                                                    {
                                                        "children": [],
                                                        "depth": 4,
                                                        "id": 23,
                                                        "order": 23
                                                    },
                                                    {
                                                        "children": [
                                                            {
                                                                "children": [],
                                                                "depth": 5,
                                                                "id": 25,
                                                                "order": 25
                                                            }
                                                        ],
                                                        "depth": 4,
                                                        "id": 24,
                                                        "order": 24
                                                    },
                                                    {
                                                        "children": [],
                                                        "depth": 4,
                                                        "id": 26,
                                                        "order": 26
                                                    }
                                                ],
                                                "depth": 3,
                                                "id": 22,
                                                "order": 22
                                            },
                                            {
                                                "children": [
                                                    {
                                                        "children": [],
                                                        "depth": 4,
                                                        "id": 28,
                                                        "order": 28
                                                    }
                                                ],
                                                "depth": 3,
                                                "id": 27,
                                                "order": 27
                                            },
                                            {
                                                "children": [
                                                    {
                                                        "children": [],
                                                        "depth": 4,
                                                        "id": 30,
                                                        "order": 30
                                                    },
                                                    {
                                                        "children": [],
                                                        "depth": 4,
                                                        "id": 31,
                                                        "order": 31
                                                    },
                                                    {
                                                        "children": [],
                                                        "depth": 4,
                                                        "id": 32,
                                                        "order": 32
                                                    }
                                                ],
                                                "depth": 3,
                                                "id": 29,
                                                "order": 29
                                            },
                                            {
                                                "children": [],
                                                "depth": 3,
                                                "id": 33,
                                                "order": 33
                                            }
                                        ],
                                        "depth": 2,
                                        "id": 9,
                                        "order": 9
                                    },
                                    {
                                        "children": [],
                                        "depth": 2,
                                        "id": 34,
                                        "order": 34
                                    },
                                    {
                                        "children": [],
                                        "depth": 2,
                                        "id": 35,
                                        "order": 35
                                    }
                                ],
                                "depth": 1,
                                "id": 7,
                                "order": 7
                            },
                            {
                                "children": [
                                    {
                                        "children": [
                                            {
                                                "children": [],
                                                "depth": 3,
                                                "id": 38,
                                                "order": 38
                                            },
                                            {
                                                "children": [],
                                                "depth": 3,
                                                "id": 39,
                                                "order": 39
                                            },
                                            {
                                                "children": [
                                                    {
                                                        "children": [],
                                                        "depth": 4,
                                                        "id": 41,
                                                        "order": 41
                                                    }
                                                ],
                                                "depth": 3,
                                                "id": 40,
                                                "order": 40
                                            },
                                            {
                                                "children": [],
                                                "depth": 3,
                                                "id": 42,
                                                "order": 42
                                            }
                                        ],
                                        "depth": 2,
                                        "id": 37,
                                        "order": 37
                                    }
                                ],
                                "depth": 1,
                                "id": 36,
                                "order": 36
                            }
                        ],
                        "depth": 0,
                        "id": 0,
                        "order": 0
                    }
                ],
                "depth": -1,
                "id": -1,
                "order": -1
            }
        ],
        "mainTraceNodeCount": 43,
        "parentIdMap": {
            "0": -1,
            "1": 0,
            "10": 9,
            "11": 10,
            "12": 10,
            "13": 10,
            "14": 9,
            "15": 14,
            "16": 14,
            "17": 9,
            "18": 17,
            "19": 17,
            "2": 1,
            "20": 17,
            "21": 17,
            "22": 9,
            "23": 22,
            "24": 22,
            "25": 24,
            "26": 22,
            "27": 9,
            "28": 27,
            "29": 9,
            "3": 2,
            "30": 29,
            "31": 29,
            "32": 29,
            "33": 9,
            "34": 7,
            "35": 7,
            "36": 0,
            "37": 36,
            "38": 37,
            "39": 37,
            "4": 3,
            "40": 37,
            "41": 40,
            "42": 37,
            "5": 0,
            "6": 5,
            "7": 0,
            "8": 7,
            "9": 7
        },
        "tidyTrace": [
            {
                "children": [
                    {
                        "children": [
                            {
                                "children": [
                                    {
                                        "children": [
                                            {
                                                "children": [],
                                                "depth": 3,
                                                "id": 3,
                                                "order": 3
                                            }
                                        ],
                                        "depth": 2,
                                        "id": 2,
                                        "order": 2
                                    }
                                ],
                                "depth": 1,
                                "id": 1,
                                "order": 1
                            },
                            {
                                "children": [
                                    {
                                        "children": [],
                                        "depth": 2,
                                        "id": 6,
                                        "order": 6
                                    }
                                ],
                                "depth": 1,
                                "id": 5,
                                "order": 5
                            },
                            {
                                "children": [
                                    {
                                        "children": [],
                                        "depth": 2,
                                        "id": 8,
                                        "order": 8
                                    },
                                    {
                                        "children": [
                                            {
                                                "children": [
                                                    {
                                                        "children": [],
                                                        "depth": 4,
                                                        "id": 11,
                                                        "order": 11
                                                    },
                                                    {
                                                        "children": [],
                                                        "depth": 4,
                                                        "id": 12,
                                                        "order": 12
                                                    },
                                                    {
                                                        "children": [],
                                                        "depth": 4,
                                                        "id": 13,
                                                        "order": 13
                                                    }
                                                ],
                                                "depth": 3,
                                                "id": 10,
                                                "order": 10
                                            },
                                            {
                                                "children": [
                                                    {
                                                        "children": [],
                                                        "depth": 4,
                                                        "id": 15,
                                                        "order": 15
                                                    },
                                                    {
                                                        "children": [],
                                                        "depth": 4,
                                                        "id": 16,
                                                        "order": 16
                                                    }
                                                ],
                                                "depth": 3,
                                                "id": 14,
                                                "order": 14
                                            },
                                            {
                                                "children": [
                                                    {
                                                        "children": [],
                                                        "depth": 4,
                                                        "id": 18,
                                                        "order": 18
                                                    },
                                                    {
                                                        "children": [],
                                                        "depth": 4,
                                                        "id": 19,
                                                        "order": 19
                                                    },
                                                    {
                                                        "children": [],
                                                        "depth": 4,
                                                        "id": 20,
                                                        "order": 20
                                                    },
                                                    {
                                                        "children": [],
                                                        "depth": 4,
                                                        "id": 21,
                                                        "order": 21
                                                    }
                                                ],
                                                "depth": 3,
                                                "id": 17,
                                                "order": 17
                                            },
                                            {
                                                "children": [
                                                    {
                                                        "children": [],
                                                        "depth": 4,
                                                        "id": 23,
                                                        "order": 23
                                                    },
                                                    {
                                                        "children": [
                                                            {
                                                                "children": [],
                                                                "depth": 5,
                                                                "id": 25,
                                                                "order": 25
                                                            }
                                                        ],
                                                        "depth": 4,
                                                        "id": 24,
                                                        "order": 24
                                                    },
                                                    {
                                                        "children": [],
                                                        "depth": 4,
                                                        "id": 26,
                                                        "order": 26
                                                    }
                                                ],
                                                "depth": 3,
                                                "id": 22,
                                                "order": 22
                                            },
                                            {
                                                "children": [
                                                    {
                                                        "children": [],
                                                        "depth": 4,
                                                        "id": 28,
                                                        "order": 28
                                                    }
                                                ],
                                                "depth": 3,
                                                "id": 27,
                                                "order": 27
                                            },
                                            {
                                                "children": [
                                                    {
                                                        "children": [],
                                                        "depth": 4,
                                                        "id": 30,
                                                        "order": 30
                                                    },
                                                    {
                                                        "children": [],
                                                        "depth": 4,
                                                        "id": 31,
                                                        "order": 31
                                                    },
                                                    {
                                                        "children": [],
                                                        "depth": 4,
                                                        "id": 32,
                                                        "order": 32
                                                    }
                                                ],
                                                "depth": 3,
                                                "id": 29,
                                                "order": 29
                                            },
                                            {
                                                "children": [],
                                                "depth": 3,
                                                "id": 33,
                                                "order": 33
                                            }
                                        ],
                                        "depth": 2,
                                        "id": 9,
                                        "order": 9
                                    },
                                    {
                                        "children": [],
                                        "depth": 2,
                                        "id": 34,
                                        "order": 34
                                    },
                                    {
                                        "children": [],
                                        "depth": 2,
                                        "id": 35,
                                        "order": 35
                                    }
                                ],
                                "depth": 1,
                                "id": 7,
                                "order": 7
                            },
                            {
                                "children": [
                                    {
                                        "children": [
                                            {
                                                "children": [],
                                                "depth": 3,
                                                "id": 39,
                                                "order": 39
                                            },
                                            {
                                                "children": [
                                                    {
                                                        "children": [],
                                                        "depth": 4,
                                                        "id": 41,
                                                        "order": 41
                                                    }
                                                ],
                                                "depth": 3,
                                                "id": 40,
                                                "order": 40
                                            },
                                            {
                                                "children": [],
                                                "depth": 3,
                                                "id": 42,
                                                "order": 42
                                            }
                                        ],
                                        "depth": 2,
                                        "id": 37,
                                        "order": 37
                                    }
                                ],
                                "depth": 1,
                                "id": 36,
                                "order": 36
                            }
                        ],
                        "depth": 0,
                        "id": 0,
                        "order": 0
                    }
                ],
                "depth": -1,
                "id": -1,
                "order": -1
            }
        ],
        "tidyTraceNodeCount": 41
    },
    "state_change": {
        "stateChanges": [
            {
                "address": "0x2260fac5e5542a773aa44fbcfedf7c193bc2c599",
                "erc": "ERC-20",
                "slots": [
                    {
                        "current": "0x00000000000000000000000000000000000000000000000000000000d67169d8",
                        "key": "0x019c7256272716f09fbbb25bb850233f4655716514b6a00ffc9b71d4d41c3b97",
                        "prev": "0x00000000000000000000000000000000000000000000000000000000d6df66c5"
                    },
                    {
                        "current": "0x000000000000000000000000000000000000000000000000000000000000e200",
                        "key": "0xb6dc5a33d27491ad8692ee31dd6b88e70a44dcfe986dbb8ef29ac2725538edfe",
                        "prev": "0x000000000000000000000000000000000000000000000000000000000000e1f8"
                    },
                    {
                        "current": "0x000000000000000000000000000000000000000000000000000000013b46eeb5",
                        "key": "0xed2725d919d21e66a7686f1c59df1d8b6044cc1a6ff3e193b04b6afd74833dea",
                        "prev": "0x000000000000000000000000000000000000000000000000000000013ad8f1d0"
                    },
                    {
                        "current": "0x7ffffffffffffffffffffffffffffffffffffffffffffffffffffffff4eece2b",
                        "key": "0x4d0b9b45bda52a893c3d6a8493a768bcb1a7723dc261f5798035ba017f6353cb",
                        "prev": "0x7ffffffffffffffffffffffffffffffffffffffffffffffffffffffff55ccb10"
                    }
                ],
                "storageVariables": [
                    {
                        "name": "balances",
                        "type": "mapping(address => uint256)",
                        "value": {
                            "pairs": [
                                {
                                    "key": "0x4d2f5cfba55ae412221182d8475bc85799a5644b",
                                    "value": {
                                        "current": "5289471669",
                                        "prev": "5282263504",
                                        "typeTag": 1
                                    }
                                },
                                {
                                    "key": "0x63825c174ab367968ec60f061753d3bbd36a0d8f",
                                    "value": {
                                        "current": "3597756888",
                                        "prev": "3604965061",
                                        "typeTag": 1
                                    }
                                },
                                {
                                    "key": "0x85c5c26dc2af5546341fc1988b9d178148b4838b",
                                    "value": {
                                        "current": "57856",
                                        "prev": "57848",
                                        "typeTag": 1
                                    }
                                }
                            ],
                            "typeTag": 4
                        }
                    },
                    {
                        "name": "allowed",
                        "type": "mapping(address => mapping(address => uint256))",
                        "value": {
                            "pairs": [
                                {
                                    "key": "0x85c5c26dc2af5546341fc1988b9d178148b4838b",
                                    "value": {
                                        "pairs": [
                                            {
                                                "key": "0x4d2f5cfba55ae412221182d8475bc85799a5644b",
                                                "value": {
                                                    "current": "57896044618658097711785492504343953926634992332820282019728792003956379143723",
                                                    "prev": "57896044618658097711785492504343953926634992332820282019728792003956386351888",
                                                    "typeTag": 1
                                                }
                                            }
                                        ],
                                        "typeTag": 4
                                    }
                                }
                            ],
                            "typeTag": 4
                        }
                    }
                ]
            },
            {
                "address": "0x52166528fcc12681af996e409ee3a421a4e128a3",
                "erc": "",
                "slots": [
                    {
                        "current": "0x00000000000000000000000000000000000000000000000e0e31c4372785e6bd",
                        "key": "0x993ec91e38628be3b5fc71db306ab9f230d77a935d957220c951920a65985f80",
                        "prev": "0x00000000000000000000000000000000000000000000000de69915aefc7ef01c"
                    },
                    {
                        "current": "0x00000000000000000000000000000000000000000000063a571a58368c8ed538",
                        "key": "0x72db188ceebccdd3fc827b6a1006c44a2e7fa96be0a79f4f332160aa0473dbe3",
                        "prev": "0x000000000000000000000000000000000000000000000639fab6164e2829406a"
                    }
                ],
                "storageVariables": [
                    {
                        "name": "reserveFeeToBurn",
                        "type": "mapping(address => uint256)",
                        "value": {
                            "pairs": [
                                {
                                    "key": "0x63825c174ab367968ec60f061753d3bbd36a0d8f",
                                    "value": {
                                        "current": "29410386479515029132600",
                                        "prev": "29403728960899496099946",
                                        "typeTag": 1
                                    }
                                }
                            ],
                            "typeTag": 4
                        }
                    },
                    {
                        "name": "reserveFeeToWallet",
                        "type": "mapping(address => mapping(address => uint256))",
                        "value": {
                            "pairs": [
                                {
                                    "key": "0x63825c174ab367968ec60f061753d3bbd36a0d8f",
                                    "value": {
                                        "pairs": [
                                            {
                                                "key": "0xc9d81352fbdb0294b091e51d774a0652ef776d99",
                                                "value": {
                                                    "current": "259277231363488868029",
                                                    "prev": "256424009099688996892",
                                                    "typeTag": 1
                                                }
                                            }
                                        ],
                                        "typeTag": 4
                                    }
                                }
                            ],
                            "typeTag": 4
                        }
                    }
                ]
            },
            {
                "address": "0x798abda6cc246d0edba912092a2a3dbd3d11191b",
                "erc": "",
                "slots": [
                    {
                        "current": "0x00000000007c47ea000000000001199100000000007c47ed0000000000011991",
                        "key": "0x412af234132eb14be165f9ad6812be1a435e460afffb34b33efb78b34474cd96",
                        "prev": "0x00000000007c4671fffffffffffc551b00000000007c4676fffffffffffa856e"
                    }
                ],
                "storageVariables": [
                    {
                        "name": "tokenImbalanceData",
                        "type": "mapping(address => mapping(uint256 => uint256))",
                        "value": {
                            "pairs": [
                                {
                                    "key": "0x2260fac5e5542a773aa44fbcfedf7c193bc2c599",
                                    "value": {
                                        "pairs": [
                                            {
                                                "key": "2",
                                                "value": {
                                                    "current": "51126202719905856099690789435849146958720406164982691155276798353",
                                                    "prev": "51123842529653350707617270036869976704500374944656522314476324206",
                                                    "typeTag": 1
                                                }
                                            }
                                        ],
                                        "typeTag": 4
                                    }
                                }
                            ],
                            "typeTag": 4
                        }
                    }
                ]
            },
            {
                "address": "0x9ae49c0d7f8f9ef4b864e004fe86ac8294e20950",
                "erc": "",
                "slots": [
                    {
                        "current": "0x00000000000000000000000000000000000000000000000000000000000355b0",
                        "key": "0x0000000000000000000000000000000000000000000000000000000000000007",
                        "prev": "0x00000000000000000000000000000000000000000000000000000000000355af"
                    }
                ],
                "storageVariables": [
                    {
                        "name": "guardCounter",
                        "type": "uint256",
                        "value": {
                            "current": "218544",
                            "prev": "218543",
                            "typeTag": 1
                        }
                    }
                ]
            }
        ]
    }
}