{
    "balance_change": {
        "balanceChanges": [
            {
                "account": "0x67e17c5c237ff3b4d0573ff4679757670ecfbf2b",
                "assets": [
                    {
                        "address": "0xf19308f923582a6f7c465e5ce7a9dc1bec6665b1",
                        "amount": "213,436,521",
                        "iconUrl": "",
                        "isERC1155": false,
                        "isERC721": false,
                        "sign": false,
                        "value": "3005.414129"
                    },
                    {
                        "address": "0xeeeeeeeeeeeeeeeeeeeeeeeeeeeeeeeeeeeeeeee",
                        "amount": "1.349305700755105429",
                        "iconUrl": "https://assets.blocksec.com/image/1663669189317-3.png",
                        "isERC1155": false,
                        "isERC721": false,
                        "sign": true,
                        "value": "2993.6640796376700981"
                    }
                ]
            },
            {
                "account": "0xc02aaa39b223fe8d0a0e5c4f27ead9083c756cc2",
                "assets": [
                    {
                        "address": "0xeeeeeeeeeeeeeeeeeeeeeeeeeeeeeeeeeeeeeeee",
                        "amount": "1.349305700755105429",
                        "iconUrl": "https://assets.blocksec.com/image/1663669189317-3.png",
                        "isERC1155": false,
                        "isERC721": false,
                        "sign": false,
                        "value": "2993.6640796376700981"
                    },
                    {
                        "address": "0xc02aaa39b223fe8d0a0e5c4f27ead9083c756cc2",
                        "amount": "1.349305700755105429",
                        "iconUrl": "https://assets.blocksec.com/icon/f1cb2d02c471d545bbc7722daf3277fd852d98e63d118771af7047bd8256c516.png",
                        "isERC1155": false,
                        "isERC721": false,
                        "sign": true,
                        "value": "2993.6640796376700981"
                    }
                ]
            },
            {
                "account": "0xc45a81bc23a64ea556ab4cdf08a86b61cdceea8b",
                "assets": [
                    {
                        "address": "0xf19308f923582a6f7c465e5ce7a9dc1bec6665b1",
                        "amount": "213,436,521",
                        "iconUrl": "",
                        "isERC1155": false,
                        "isERC721": false,
                        "sign": true,
                        "value": "3005.414129"
                    },
                    {
                        "address": "0xc02aaa39b223fe8d0a0e5c4f27ead9083c756cc2",
                        "amount": "1.349305700755105429",
                        "iconUrl": "https://assets.blocksec.com/icon/f1cb2d02c471d545bbc7722daf3277fd852d98e63d118771af7047bd8256c516.png",
                        "isERC1155": false,
                        "isERC721": false,
                        "sign": false,
                        "value": "2993.6640796376700981"
                    }
                ]
            }
        ]
    },
    "profile": {
        "basic_info": {
            "baseFee": "33.954809948",
            "blockNumber": 18709850,
            "callData": "0x3593564c000000000000000000000000000000000000000000000000000000000000006000000000000000000000000000000000000000000000000000000000000000a000000000000000000000000000000000000000000000000000000000656d336b0000000000000000000000000000000000000000000000000000000000000002000c00000000000000000000000000000000000000000000000000000000000000000000000000000000000000000000000000000000000000000000000000020000000000000000000000000000000000000000000000000000000000000040000000000000000000000000000000000000000000000000000000000000016000000000000000000000000000000000000000000000000000000000000001000000000000000000000000000000000000000000000000000000000000000002000000000000000000000000000000000000000000b08cf0fce04a55c804000000000000000000000000000000000000000000000000000012a4229179c2a50800000000000000000000000000000000000000000000000000000000000000a00000000000000000000000000000000000000000000000000000000000000001000000000000000000000000000000000000000000000000000000000000002bf19308f923582a6f7c465e5ce7a9dc1bec6665b1002710c02aaa39b223fe8d0a0e5c4f27ead9083c756cc20000000000000000000000000000000000000000000000000000000000000000000000000000000000000000000000000000000040000000000000000000000000000000000000000000000000000000000000000100000000000000000000000000000000000000000000000012a4229179c2a508",
            "debugEnable": true,
            "errorInfo": "",
            "eventCount": 5,
            "feeRecipient": "0xdafea492d9c6733ae3d56b7ed1adb60692c98bc5",
            "formatValue": "0",
            "gasLimit": 194083,
            "gasPrice": "34.054809948",
            "gasUsed": 135838,
            "intTxnCount": 11,
            "internalRevert": false,
            "internalRevertMessage": "",
            "isContractCreation": false,
            "isFlashloan": false,
            "maxFee": "48.595590901",
            "nonce": 121,
            "overwritedBlockNumber": -1,
            "priorityFee": "0.1",
            "receiver": "0x3fc91a3afd70395cd496c647d5a6cc9d4b2b7fad",
            "revertMessage": "",
            "sender": "0x67e17c5c237ff3b4d0573ff4679757670ecfbf2b",
            "simulationEnable": true,
            "sourceTxnHash": "0x9ed7839e9bc111e3da0b9ac6275854f6c4966917404c168dd4a027abba0773ed",
            "status": true,
            "timestamp": "2023-12-04T01:53:59Z",
            "transactionFee": "0.004625937273716424",
            "txnHash": "0x9ed7839e9bc111e3da0b9ac6275854f6c4966917404c168dd4a027abba0773ed",
            "txnIndex": 148,
            "type": 2,
            "value": "0"
        },
        "fund_flow": [
            {
                "amount": "1.349305700755105429",
                "from": "0xc45a81bc23a64ea556ab4cdf08a86b61cdceea8b",
                "id": 1,
                "isERC1155": false,
                "isERC721": false,
                "isReverted": false,
                "order": 1,
                "to": "0x3fc91a3afd70395cd496c647d5a6cc9d4b2b7fad",
                "token": "0xc02aaa39b223fe8d0a0e5c4f27ead9083c756cc2"
            },
            {
                "amount": "213,436,521",
                "from": "0x67e17c5c237ff3b4d0573ff4679757670ecfbf2b",
                "id": 2,
                "isERC1155": false,
                "isERC721": false,
                "isReverted": false,
                "order": 2,
                "to": "0xc45a81bc23a64ea556ab4cdf08a86b61cdceea8b",
                "token": "0xf19308f923582a6f7c465e5ce7a9dc1bec6665b1"
            },
            {
                "amount": "1.349305700755105429",
                "from": "0xc02aaa39b223fe8d0a0e5c4f27ead9083c756cc2",
                "id": 3,
                "isERC1155": false,
                "isERC721": false,
                "isReverted": false,
                "order": 3,
                "to": "0x3fc91a3afd70395cd496c647d5a6cc9d4b2b7fad",
                "token": "0xeeeeeeeeeeeeeeeeeeeeeeeeeeeeeeeeeeeeeeee"
            },
            {
                "amount": "1.349305700755105429",
                "from": "0x3fc91a3afd70395cd496c647d5a6cc9d4b2b7fad",
                "id": 4,
                "isERC1155": false,
                "isERC721": false,
                "isReverted": false,
                "order": 4,
                "to": "0xc02aaa39b223fe8d0a0e5c4f27ead9083c756cc2",
                "token": "0xc02aaa39b223fe8d0a0e5c4f27ead9083c756cc2"
            },
            {
                "amount": "1.349305700755105429",
                "from": "0x3fc91a3afd70395cd496c647d5a6cc9d4b2b7fad",
                "id": 5,
                "isERC1155": false,
                "isERC721": false,
                "isReverted": false,
                "order": 5,
                "to": "0x67e17c5c237ff3b4d0573ff4679757670ecfbf2b",
                "token": "0xeeeeeeeeeeeeeeeeeeeeeeeeeeeeeeeeeeeeeeee"
            }
        ],
        "token_infos": [
            {
                "address": "0xc02aaa39b223fe8d0a0e5c4f27ead9083c756cc2",
                "decimals": 18
            },
            {
                "address": "0xf19308f923582a6f7c465e5ce7a9dc1bec6665b1",
                "decimals": 18
            },
            {
                "address": "0xeeeeeeeeeeeeeeeeeeeeeeeeeeeeeeeeeeeeeeee",
                "decimals": 18
            }
        ]
    },
    "address_label": {
        "labels": [
            {
                "address": "0xeeeeeeeeeeeeeeeeeeeeeeeeeeeeeeeeeeeeeeee",
                "label": "Ether"
            },
            {
                "address": "0x000000000022d473030f116ddee9f6b43ac78ba3",
                "label": "Permit2"
            },
            {
                "address": "0xc45a81bc23a64ea556ab4cdf08a86b61cdceea8b",
                "label": "Uniswap V3: TITANX"
            },
            {
                "address": "0xf19308f923582a6f7c465e5ce7a9dc1bec6665b1",
                "label": "TitanX: TITANX Token"
            },
            {
                "address": "0x0000000000000000000000000000000000000001",
                "label": "Precompiled"
            },
            {
                "address": "0x0000000000000000000000000000000000000004",
                "label": "Precompiled"
            },
            {
                "address": "0x3fc91a3afd70395cd496c647d5a6cc9d4b2b7fad",
                "label": "Uniswap: Universal Router"
            },
            {
                "address": "0xc02aaa39b223fe8d0a0e5c4f27ead9083c756cc2",
                "label": "Wrapped Ether (WETH)"
            },
            {
                "address": "0x0000000000000000000000000000000000000002",
                "label": "Precompiled"
            },
            {
                "address": "0x0000000000000000000000000000000000000003",
                "label": "Precompiled"
            }
        ]
    },
    "trace": {
        "accountLabels": null,
        "dataMap": {
            "-1": {
                "invocation": {
                    "address": "0x67e17c5c237ff3b4d0573ff4679757670ecfbf2b",
                    "callData": "",
                    "decodedMethod": null,
                    "errorInfo": "",
                    "fromAddress": "",
                    "gasUsed": 0,
                    "id": -1,
                    "methodDecoded": false,
                    "operation": "",
                    "output": "",
                    "revert": false,
                    "revertMessage": "",
                    "selector": "",
                    "status": false,
                    "value": ""
                },
                "nodeType": 0
            },
            "0": {
                "invocation": {
                    "address": "0x3fc91a3afd70395cd496c647d5a6cc9d4b2b7fad",
                    "callData": "0x000000000000000000000000000000000000000000000000000000000000006000000000000000000000000000000000000000000000000000000000000000a000000000000000000000000000000000000000000000000000000000656d336b0000000000000000000000000000000000000000000000000000000000000002000c00000000000000000000000000000000000000000000000000000000000000000000000000000000000000000000000000000000000000000000000000020000000000000000000000000000000000000000000000000000000000000040000000000000000000000000000000000000000000000000000000000000016000000000000000000000000000000000000000000000000000000000000001000000000000000000000000000000000000000000000000000000000000000002000000000000000000000000000000000000000000b08cf0fce04a55c804000000000000000000000000000000000000000000000000000012a4229179c2a50800000000000000000000000000000000000000000000000000000000000000a00000000000000000000000000000000000000000000000000000000000000001000000000000000000000000000000000000000000000000000000000000002bf19308f923582a6f7c465e5ce7a9dc1bec6665b1002710c02aaa39b223fe8d0a0e5c4f27ead9083c756cc20000000000000000000000000000000000000000000000000000000000000000000000000000000000000000000000000000000040000000000000000000000000000000000000000000000000000000000000000100000000000000000000000000000000000000000000000012a4229179c2a508",
                    "decodedMethod": {
                        "callParams": [
                            {
                                "name": "commands",
                                "type": "bytes",
                                "value": "0x000c"
                            },
                            {
                                "name": "inputs",
                                "type": "bytes[]",
                                "value": [
                                    "0x0000000000000000000000000000000000000000000000000000000000000002000000000000000000000000000000000000000000b08cf0fce04a55c804000000000000000000000000000000000000000000000000000012a4229179c2a50800000000000000000000000000000000000000000000000000000000000000a00000000000000000000000000000000000000000000000000000000000000001000000000000000000000000000000000000000000000000000000000000002bf19308f923582a6f7c465e5ce7a9dc1bec6665b1002710c02aaa39b223fe8d0a0e5c4f27ead9083c756cc2000000000000000000000000000000000000000000",
                                    "0x000000000000000000000000000000000000000000000000000000000000000100000000000000000000000000000000000000000000000012a4229179c2a508"
                                ]
                            },
                            {
                                "name": "deadline",
                                "type": "uint256",
                                "value": "1,701,655,403"
                            }
                        ],
                        "constructorArguments": "",
                        "name": "execute",
                        "returnParams": [],
                        "signature": "execute(bytes,bytes[],uint256)"
                    },
                    "errorInfo": "",
                    "fromAddress": "0x67e17c5c237ff3b4d0573ff4679757670ecfbf2b",
                    "gasUsed": 135838,
                    "id": 0,
                    "methodDecoded": true,
                    "operation": "CALL",
                    "output": "",
                    "revert": false,
                    "revertMessage": "",
                    "selector": "0x3593564c",
                    "status": true,
                    "value": "0"
                },
                "nodeType": 0
            },
            "1": {
                "invocation": {
                    "address": "0xc45a81bc23a64ea556ab4cdf08a86b61cdceea8b",
                    "callData": "0x0000000000000000000000003fc91a3afd70395cd496c647d5a6cc9d4b2b7fad0000000000000000000000000000000000000000000000000000000000000000000000000000000000000000000000000000000000b08cf0fce04a55c8040000000000000000000000000000fffd8963efd1fc6a506488495d951d5263988d2500000000000000000000000000000000000000000000000000000000000000a000000000000000000000000000000000000000000000000000000000000000a0000000000000000000000000000000000000000000000000000000000000004000000000000000000000000067e17c5c237ff3b4d0573ff4679757670ecfbf2b000000000000000000000000000000000000000000000000000000000000002bf19308f923582a6f7c465e5ce7a9dc1bec6665b1002710c02aaa39b223fe8d0a0e5c4f27ead9083c756cc2000000000000000000000000000000000000000000",
                    "decodedMethod": {
                        "callParams": [
                            {
                                "name": "recipient",
                                "type": "address",
                                "value": "0x3fc91a3afd70395cd496c647d5a6cc9d4b2b7fad"
                            },
                            {
                                "name": "zeroForOne",
                                "type": "bool",
                                "value": false
                            },
                            {
                                "name": "amountSpecified",
                                "type": "int256",
                                "value": "213,436,521,000,000,000,000,000,000"
                            },
                            {
                                "name": "sqrtPriceLimitX96",
                                "type": "uint160",
                                "value": "1,461,446,703,485,210,103,287,273,052,203,988,822,378,723,970,341"
                            },
                            {
                                "name": "data",
                                "type": "bytes",
                                "value": "0x000000000000000000000000000000000000000000000000000000000000004000000000000000000000000067e17c5c237ff3b4d0573ff4679757670ecfbf2b000000000000000000000000000000000000000000000000000000000000002bf19308f923582a6f7c465e5ce7a9dc1bec6665b1002710c02aaa39b223fe8d0a0e5c4f27ead9083c756cc2000000000000000000000000000000000000000000"
                            }
                        ],
                        "constructorArguments": "",
                        "name": "swap",
                        "returnParams": [
                            {
                                "name": "amount0",
                                "type": "int256",
                                "value": "-1,349,305,700,755,105,429"
                            },
                            {
                                "name": "amount1",
                                "type": "int256",
                                "value": "213,436,521,000,000,000,000,000,000"
                            }
                        ],
                        "signature": "swap(address,bool,int256,uint160,bytes)"
                    },
                    "errorInfo": "",
                    "fromAddress": "0x3fc91a3afd70395cd496c647d5a6cc9d4b2b7fad",
                    "gasUsed": 103855,
                    "id": 1,
                    "methodDecoded": true,
                    "operation": "CALL",
                    "output": "0xffffffffffffffffffffffffffffffffffffffffffffffffed464d9d3515196b000000000000000000000000000000000000000000b08cf0fce04a55c8040000",
                    "revert": false,
                    "revertMessage": "",
                    "selector": "0x128acb08",
                    "status": true,
                    "value": "0"
                },
                "nodeType": 0
            },
            "10": {
                "invocation": {
                    "address": "0xf19308f923582a6f7c465e5ce7a9dc1bec6665b1",
                    "callData": "0x000000000000000000000000c45a81bc23a64ea556ab4cdf08a86b61cdceea8b",
                    "decodedMethod": {
                        "callParams": [
                            {
                                "name": "account",
                                "type": "address",
                                "value": "0xc45a81bc23a64ea556ab4cdf08a86b61cdceea8b"
                            }
                        ],
                        "constructorArguments": "",
                        "name": "balanceOf",
                        "returnParams": [
                            {
                                "decimalAvailable": true,
                                "name": "",
                                "type": "uint256",
                                "value": "37,121,772,905,084,552,704,501,622,541"
                            }
                        ],
                        "signature": "balanceOf(address)"
                    },
                    "errorInfo": "",
                    "fromAddress": "0xc45a81bc23a64ea556ab4cdf08a86b61cdceea8b",
                    "gasUsed": 1001,
                    "id": 10,
                    "methodDecoded": true,
                    "operation": "STATICCALL",
                    "output": "0x000000000000000000000000000000000000000077f2692d82a3b32958a2270d",
                    "revert": false,
                    "revertMessage": "",
                    "selector": "0x70a08231",
                    "status": true,
                    "value": "0"
                },
                "nodeType": 0
            },
            "11": {
                "event": {
                    "contract": "0xc45a81bc23a64ea556ab4cdf08a86b61cdceea8b",
                    "decodedLog": {
                        "name": "Swap",
                        "params": [
                            {
                                "name": "sender",
                                "type": "address",
                                "value": "0x3fc91a3afd70395cd496c647d5a6cc9d4b2b7fad"
                            },
                            {
                                "name": "recipient",
                                "type": "address",
                                "value": "0x3fc91a3afd70395cd496c647d5a6cc9d4b2b7fad"
                            },
                            {
                                "name": "amount0",
                                "type": "int256",
                                "value": "-1,349,305,700,755,105,429"
                            },
                            {
                                "name": "amount1",
                                "type": "int256",
                                "value": "213,436,521,000,000,000,000,000,000"
                            },
                            {
                                "name": "sqrtPriceX96",
                                "type": "uint160",
                                "value": "991,663,240,258,145,155,619,827,605,533,856"
                            },
                            {
                                "name": "liquidity",
                                "type": "uint128",
                                "value": "41,739,378,018,526,616,848,274,817"
                            },
                            {
                                "name": "tick",
                                "type": "int24",
                                "value": "188,705"
                            }
                        ],
                        "signature": "Swap(address,address,int256,int256,uint160,uint128,int24)"
                    },
                    "id": 11,
                    "logData": "0xffffffffffffffffffffffffffffffffffffffffffffffffed464d9d3515196b000000000000000000000000000000000000000000b08cf0fce04a55c804000000000000000000000000000000000000000030e48cbe85e6c932b6e6555374a00000000000000000000000000000000000000000002286a8375f0b61baa99581000000000000000000000000000000000000000000000000000000000002e121",
                    "logDecoded": true,
                    "operation": "EVENT",
                    "revert": false,
                    "status": true,
                    "topics": [
                        "0xc42079f94a6350d7e6235f29174924f928cc2ac818eb64fed8004e115fbcca67",
                        "0x0000000000000000000000003fc91a3afd70395cd496c647d5a6cc9d4b2b7fad",
                        "0x0000000000000000000000003fc91a3afd70395cd496c647d5a6cc9d4b2b7fad"
                    ]
                },
                "nodeType": 1
            },
            "12": {
                "invocation": {
                    "address": "0xc02aaa39b223fe8d0a0e5c4f27ead9083c756cc2",
                    "callData": "0x0000000000000000000000003fc91a3afd70395cd496c647d5a6cc9d4b2b7fad",
                    "decodedMethod": {
                        "callParams": [
                            {
                                "name": "",
                                "type": "address",
                                "value": "0x3fc91a3afd70395cd496c647d5a6cc9d4b2b7fad"
                            }
                        ],
                        "constructorArguments": "",
                        "name": "balanceOf",
                        "returnParams": [
                            {
                                "decimalAvailable": true,
                                "name": "",
                                "type": "uint256",
                                "value": "1,349,305,700,755,105,429"
                            }
                        ],
                        "signature": "balanceOf(address)"
                    },
                    "errorInfo": "",
                    "fromAddress": "0x3fc91a3afd70395cd496c647d5a6cc9d4b2b7fad",
                    "gasUsed": 534,
                    "id": 12,
                    "methodDecoded": true,
                    "operation": "STATICCALL",
                    "output": "0x00000000000000000000000000000000000000000000000012b9b262caeae695",
                    "revert": false,
                    "revertMessage": "",
                    "selector": "0x70a08231",
                    "status": true,
                    "value": "0"
                },
                "nodeType": 0
            },
            "13": {
                "invocation": {
                    "address": "0xc02aaa39b223fe8d0a0e5c4f27ead9083c756cc2",
                    "callData": "0x00000000000000000000000000000000000000000000000012b9b262caeae695",
                    "decodedMethod": {
                        "callParams": [
                            {
                                "name": "wad",
                                "type": "uint256",
                                "value": "1,349,305,700,755,105,429"
                            }
                        ],
                        "constructorArguments": "",
                        "name": "withdraw",
                        "returnParams": [],
                        "signature": "withdraw(uint256)"
                    },
                    "errorInfo": "",
                    "fromAddress": "0x3fc91a3afd70395cd496c647d5a6cc9d4b2b7fad",
                    "gasUsed": 9220,
                    "id": 13,
                    "methodDecoded": true,
                    "operation": "CALL",
                    "output": "",
                    "revert": false,
                    "revertMessage": "",
                    "selector": "0x2e1a7d4d",
                    "status": true,
                    "value": "0"
                },
                "nodeType": 0
            },
            "14": {
                "invocation": {
                    "address": "0x3fc91a3afd70395cd496c647d5a6cc9d4b2b7fad",
                    "callData": "0x",
                    "decodedMethod": null,
                    "errorInfo": "",
                    "fromAddress": "0xc02aaa39b223fe8d0a0e5c4f27ead9083c756cc2",
                    "gasUsed": 80,
                    "id": 14,
                    "methodDecoded": false,
                    "operation": "CALL",
                    "output": "",
                    "revert": false,
                    "revertMessage": "",
                    "selector": "fallback",
                    "status": true,
                    "value": "1.349305700755105429"
                },
                "nodeType": 0
            },
            "15": {
                "event": {
                    "contract": "0xc02aaa39b223fe8d0a0e5c4f27ead9083c756cc2",
                    "decodedLog": {
                        "name": "Withdrawal",
                        "params": [
                            {
                                "name": "src",
                                "type": "address",
                                "value": "0x3fc91a3afd70395cd496c647d5a6cc9d4b2b7fad"
                            },
                            {
                                "name": "wad",
                                "type": "uint256",
                                "value": "1,349,305,700,755,105,429"
                            }
                        ],
                        "signature": "Withdrawal(address,uint256)"
                    },
                    "id": 15,
                    "logData": "0x00000000000000000000000000000000000000000000000012b9b262caeae695",
                    "logDecoded": true,
                    "operation": "EVENT",
                    "revert": false,
                    "status": true,
                    "topics": [
                        "0x7fcf532c15f0a6db0bd6d0e038bea71d30d808c7d98cb3bf7268a95bf5081b65",
                        "0x0000000000000000000000003fc91a3afd70395cd496c647d5a6cc9d4b2b7fad"
                    ]
                },
                "nodeType": 1
            },
            "16": {
                "invocation": {
                    "address": "0x67e17c5c237ff3b4d0573ff4679757670ecfbf2b",
                    "callData": "0x",
                    "decodedMethod": null,
                    "errorInfo": "",
                    "fromAddress": "0x3fc91a3afd70395cd496c647d5a6cc9d4b2b7fad",
                    "gasUsed": 0,
                    "id": 16,
                    "methodDecoded": false,
                    "operation": "CALL",
                    "output": "",
                    "revert": false,
                    "revertMessage": "",
                    "selector": "fallback",
                    "status": true,
                    "value": "1.349305700755105429"
                },
                "nodeType": 0
            },
            "2": {
                "invocation": {
                    "address": "0xc02aaa39b223fe8d0a0e5c4f27ead9083c756cc2",
                    "callData": "0x0000000000000000000000003fc91a3afd70395cd496c647d5a6cc9d4b2b7fad00000000000000000000000000000000000000000000000012b9b262caeae695",
                    "decodedMethod": {
                        "callParams": [
                            {
                                "name": "dst",
                                "type": "address",
                                "value": "0x3fc91a3afd70395cd496c647d5a6cc9d4b2b7fad"
                            },
                            {
                                "decimalAvailable": true,
                                "name": "wad",
                                "type": "uint256",
                                "value": "1,349,305,700,755,105,429"
                            }
                        ],
                        "constructorArguments": "",
                        "name": "transfer",
                        "returnParams": [
                            {
                                "name": "",
                                "type": "bool",
                                "value": true
                            }
                        ],
                        "signature": "transfer(address,uint256)"
                    },
                    "errorInfo": "",
                    "fromAddress": "0xc45a81bc23a64ea556ab4cdf08a86b61cdceea8b",
                    "gasUsed": 29962,
                    "id": 2,
                    "methodDecoded": true,
                    "operation": "CALL",
                    "output": "0x0000000000000000000000000000000000000000000000000000000000000001",
                    "revert": false,
                    "revertMessage": "",
                    "selector": "0xa9059cbb",
                    "status": true,
                    "value": "0"
                },
                "nodeType": 0
            },
            "3": {
                "event": {
                    "contract": "0xc02aaa39b223fe8d0a0e5c4f27ead9083c756cc2",
                    "decodedLog": {
                        "name": "Transfer",
                        "params": [
                            {
                                "name": "src",
                                "type": "address",
                                "value": "0xc45a81bc23a64ea556ab4cdf08a86b61cdceea8b"
                            },
                            {
                                "name": "dst",
                                "type": "address",
                                "value": "0x3fc91a3afd70395cd496c647d5a6cc9d4b2b7fad"
                            },
                            {
                                "decimalAvailable": true,
                                "name": "wad",
                                "type": "uint256",
                                "value": "1,349,305,700,755,105,429"
                            }
                        ],
                        "signature": "Transfer(address,address,uint256)"
                    },
                    "id": 3,
                    "logData": "0x00000000000000000000000000000000000000000000000012b9b262caeae695",
                    "logDecoded": true,
                    "operation": "EVENT",
                    "revert": false,
                    "status": true,
                    "topics": [
                        "0xddf252ad1be2c89b69c2b068fc378daa952ba7f163c4a11628f55a4df523b3ef",
                        "0x000000000000000000000000c45a81bc23a64ea556ab4cdf08a86b61cdceea8b",
                        "0x0000000000000000000000003fc91a3afd70395cd496c647d5a6cc9d4b2b7fad"
                    ]
                },
                "nodeType": 1
            },
            "4": {
                "invocation": {
                    "address": "0xf19308f923582a6f7c465e5ce7a9dc1bec6665b1",
                    "callData": "0x000000000000000000000000c45a81bc23a64ea556ab4cdf08a86b61cdceea8b",
                    "decodedMethod": {
                        "callParams": [
                            {
                                "name": "account",
                                "type": "address",
                                "value": "0xc45a81bc23a64ea556ab4cdf08a86b61cdceea8b"
                            }
                        ],
                        "constructorArguments": "",
                        "name": "balanceOf",
                        "returnParams": [
                            {
                                "decimalAvailable": true,
                                "name": "",
                                "type": "uint256",
                                "value": "36,908,336,384,084,552,704,501,622,541"
                            }
                        ],
                        "signature": "balanceOf(address)"
                    },
                    "errorInfo": "",
                    "fromAddress": "0xc45a81bc23a64ea556ab4cdf08a86b61cdceea8b",
                    "gasUsed": 3001,
                    "id": 4,
                    "methodDecoded": true,
                    "operation": "STATICCALL",
                    "output": "0x00000000000000000000000000000000000000007741dc3c85c368d3909e270d",
                    "revert": false,
                    "revertMessage": "",
                    "selector": "0x70a08231",
                    "status": true,
                    "value": "0"
                },
                "nodeType": 0
            },
            "5": {
                "invocation": {
                    "address": "0x3fc91a3afd70395cd496c647d5a6cc9d4b2b7fad",
                    "callData": "0xffffffffffffffffffffffffffffffffffffffffffffffffed464d9d3515196b000000000000000000000000000000000000000000b08cf0fce04a55c8040000000000000000000000000000000000000000000000000000000000000000006000000000000000000000000000000000000000000000000000000000000000a0000000000000000000000000000000000000000000000000000000000000004000000000000000000000000067e17c5c237ff3b4d0573ff4679757670ecfbf2b000000000000000000000000000000000000000000000000000000000000002bf19308f923582a6f7c465e5ce7a9dc1bec6665b1002710c02aaa39b223fe8d0a0e5c4f27ead9083c756cc2000000000000000000000000000000000000000000",
                    "decodedMethod": {
                        "callParams": [
                            {
                                "name": "amount0Delta",
                                "type": "int256",
                                "value": "-1,349,305,700,755,105,429"
                            },
                            {
                                "name": "amount1Delta",
                                "type": "int256",
                                "value": "213,436,521,000,000,000,000,000,000"
                            },
                            {
                                "name": "data",
                                "type": "bytes",
                                "value": "0x000000000000000000000000000000000000000000000000000000000000004000000000000000000000000067e17c5c237ff3b4d0573ff4679757670ecfbf2b000000000000000000000000000000000000000000000000000000000000002bf19308f923582a6f7c465e5ce7a9dc1bec6665b1002710c02aaa39b223fe8d0a0e5c4f27ead9083c756cc2000000000000000000000000000000000000000000"
                            }
                        ],
                        "constructorArguments": "",
                        "name": "uniswapV3SwapCallback",
                        "returnParams": [],
                        "signature": "uniswapV3SwapCallback(int256,int256,bytes)"
                    },
                    "errorInfo": "",
                    "fromAddress": "0xc45a81bc23a64ea556ab4cdf08a86b61cdceea8b",
                    "gasUsed": 26869,
                    "id": 5,
                    "methodDecoded": true,
                    "operation": "CALL",
                    "output": "",
                    "revert": false,
                    "revertMessage": "",
                    "selector": "0xfa461e33",
                    "status": true,
                    "value": "0"
                },
                "nodeType": 0
            },
            "6": {
                "invocation": {
                    "address": "0x000000000022d473030f116ddee9f6b43ac78ba3",
                    "callData": "0x00000000000000000000000067e17c5c237ff3b4d0573ff4679757670ecfbf2b000000000000000000000000c45a81bc23a64ea556ab4cdf08a86b61cdceea8b000000000000000000000000000000000000000000b08cf0fce04a55c8040000000000000000000000000000f19308f923582a6f7c465e5ce7a9dc1bec6665b1",
                    "decodedMethod": {
                        "callParams": [
                            {
                                "name": "from",
                                "type": "address",
                                "value": "0x67e17c5c237ff3b4d0573ff4679757670ecfbf2b"
                            },
                            {
                                "name": "to",
                                "type": "address",
                                "value": "0xc45a81bc23a64ea556ab4cdf08a86b61cdceea8b"
                            },
                            {
                                "name": "amount",
                                "type": "uint160",
                                "value": "213,436,521,000,000,000,000,000,000"
                            },
                            {
                                "name": "token",
                                "type": "address",
                                "value": "0xf19308f923582a6f7c465e5ce7a9dc1bec6665b1"
                            }
                        ],
                        "constructorArguments": "",
                        "name": "transferFrom",
                        "returnParams": [],
                        "signature": "transferFrom(address,address,uint160,address)"
                    },
                    "errorInfo": "",
                    "fromAddress": "0x3fc91a3afd70395cd496c647d5a6cc9d4b2b7fad",
                    "gasUsed": 21786,
                    "id": 6,
                    "methodDecoded": true,
                    "operation": "CALL",
                    "output": "",
                    "revert": false,
                    "revertMessage": "",
                    "selector": "0x36c78516",
                    "status": true,
                    "value": "0"
                },
                "nodeType": 0
            },
            "7": {
                "invocation": {
                    "address": "0xf19308f923582a6f7c465e5ce7a9dc1bec6665b1",
                    "callData": "0x00000000000000000000000067e17c5c237ff3b4d0573ff4679757670ecfbf2b000000000000000000000000c45a81bc23a64ea556ab4cdf08a86b61cdceea8b000000000000000000000000000000000000000000b08cf0fce04a55c8040000",
                    "decodedMethod": {
                        "callParams": [
                            {
                                "name": "from",
                                "type": "address",
                                "value": "0x67e17c5c237ff3b4d0573ff4679757670ecfbf2b"
                            },
                            {
                                "name": "to",
                                "type": "address",
                                "value": "0xc45a81bc23a64ea556ab4cdf08a86b61cdceea8b"
                            },
                            {
                                "decimalAvailable": true,
                                "name": "amount",
                                "type": "uint256",
                                "value": "213,436,521,000,000,000,000,000,000"
                            }
                        ],
                        "constructorArguments": "",
                        "name": "transferFrom",
                        "returnParams": [
                            {
                                "name": "",
                                "type": "bool",
                                "value": true
                            }
                        ],
                        "signature": "transferFrom(address,address,uint256)"
                    },
                    "errorInfo": "",
                    "fromAddress": "0x000000000022d473030f116ddee9f6b43ac78ba3",
                    "gasUsed": 18579,
                    "id": 7,
                    "methodDecoded": true,
                    "operation": "CALL",
                    "output": "0x0000000000000000000000000000000000000000000000000000000000000001",
                    "revert": false,
                    "revertMessage": "",
                    "selector": "0x23b872dd",
                    "status": true,
                    "value": "0"
                },
                "nodeType": 0
            },
            "8": {
                "event": {
                    "contract": "0xf19308f923582a6f7c465e5ce7a9dc1bec6665b1",
                    "decodedLog": {
                        "name": "Approval",
                        "params": [
                            {
                                "name": "owner",
                                "type": "address",
                                "value": "0x67e17c5c237ff3b4d0573ff4679757670ecfbf2b"
                            },
                            {
                                "name": "spender",
                                "type": "address",
                                "value": "0x000000000022d473030f116ddee9f6b43ac78ba3"
                            },
                            {
                                "decimalAvailable": true,
                                "name": "value",
                                "type": "uint256",
                                "value": "159,913,479,000,000,000,000,000,000"
                            }
                        ],
                        "signature": "Approval(address,address,uint256)"
                    },
                    "id": 8,
                    "logData": "0x0000000000000000000000000000000000000000008446ff112be06c2bbc0000",
                    "logDecoded": true,
                    "operation": "EVENT",
                    "revert": false,
                    "status": true,
                    "topics": [
                        "0x8c5be1e5ebec7d5bd14f71427d1e84f3dd0314c0f7b2291e5b200ac8c7c3b925",
                        "0x00000000000000000000000067e17c5c237ff3b4d0573ff4679757670ecfbf2b",
                        "0x000000000000000000000000000000000022d473030f116ddee9f6b43ac78ba3"
                    ]
                },
                "nodeType": 1
            },
            "9": {
                "event": {
                    "contract": "0xf19308f923582a6f7c465e5ce7a9dc1bec6665b1",
                    "decodedLog": {
                        "name": "Transfer",
                        "params": [
                            {
                                "name": "from",
                                "type": "address",
                                "value": "0x67e17c5c237ff3b4d0573ff4679757670ecfbf2b"
                            },
                            {
                                "name": "to",
                                "type": "address",
                                "value": "0xc45a81bc23a64ea556ab4cdf08a86b61cdceea8b"
                            },
                            {
                                "decimalAvailable": true,
                                "name": "value",
                                "type": "uint256",
                                "value": "213,436,521,000,000,000,000,000,000"
                            }
                        ],
                        "signature": "Transfer(address,address,uint256)"
                    },
                    "id": 9,
                    "logData": "0x000000000000000000000000000000000000000000b08cf0fce04a55c8040000",
                    "logDecoded": true,
                    "operation": "EVENT",
                    "revert": false,
                    "status": true,
                    "topics": [
                        "0xddf252ad1be2c89b69c2b068fc378daa952ba7f163c4a11628f55a4df523b3ef",
                        "0x00000000000000000000000067e17c5c237ff3b4d0573ff4679757670ecfbf2b",
                        "0x000000000000000000000000c45a81bc23a64ea556ab4cdf08a86b61cdceea8b"
                    ]
                },
                "nodeType": 1
            }
        },
        "gasFlame": [
            {
                "children": [
                    {
                        "children": [
                            {
                                "children": [],
                                "depth": 0,
                                "name": "Initial Gas",
                                "value": 24656
                            },
                            {
                                "children": [
                                    {
                                        "children": [
                                            {
                                                "children": [],
                                                "depth": 2,
                                                "name": "transfer",
                                                "value": 29962
                                            },
                                            {
                                                "children": [],
                                                "depth": 2,
                                                "name": "balanceOf",
                                                "value": 3001
                                            },
                                            {
                                                "children": [
                                                    {
                                                        "children": [
                                                            {
                                                                "children": [],
                                                                "depth": 4,
                                                                "name": "transferFrom",
                                                                "value": 18579
                                                            }
                                                        ],
                                                        "depth": 3,
                                                        "name": "transferFrom",
                                                        "value": 21786
                                                    }
                                                ],
                                                "depth": 2,
                                                "name": "uniswapV3SwapCallback",
                                                "value": 26869
                                            },
                                            {
                                                "children": [],
                                                "depth": 2,
                                                "name": "balanceOf",
                                                "value": 1001
                                            }
                                        ],
                                        "depth": 1,
                                        "name": "swap",
                                        "value": 103855
                                    },
                                    {
                                        "children": [],
                                        "depth": 1,
                                        "name": "balanceOf",
                                        "value": 534
                                    },
                                    {
                                        "children": [
                                            {
                                                "children": [],
                                                "depth": 2,
                                                "name": "fallback",
                                                "value": 80
                                            }
                                        ],
                                        "depth": 1,
                                        "name": "withdraw",
                                        "value": 9220
                                    },
                                    {
                                        "children": [],
                                        "depth": 1,
                                        "name": "fallback",
                                        "value": 0
                                    }
                                ],
                                "depth": 0,
                                "name": "Executed Gas",
                                "value": 133882
                            }
                        ],
                        "depth": -1,
                        "name": "Actual Gas Used",
                        "value": 135838
                    },
                    {
                        "children": [],
                        "depth": -1,
                        "name": "Refunded Gas",
                        "value": 22700
                    }
                ],
                "depth": -2,
                "name": "Total Gas",
                "value": 158538
            }
        ],
        "isConfirmed": true,
        "mainTrace": [
            {
                "children": [
                    {
                        "children": [
                            {
                                "children": [
                                    {
                                        "children": [
                                            {
                                                "children": [],
                                                "depth": 3,
                                                "id": 3,
                                                "order": 3
                                            }
                                        ],
                                        "depth": 2,
                                        "id": 2,
                                        "order": 2
                                    },
                                    {
                                        "children": [],
                                        "depth": 2,
                                        "id": 4,
                                        "order": 4
                                    },
                                    {
                                        "children": [
                                            {
                                                "children": [
                                                    {
                                                        "children": [
                                                            {
                                                                "children": [],
                                                                "depth": 5,
                                                                "id": 8,
                                                                "order": 8
                                                            },
                                                            {
                                                                "children": [],
                                                                "depth": 5,
                                                                "id": 9,
                                                                "order": 9
                                                            }
                                                        ],
                                                        "depth": 4,
                                                        "id": 7,
                                                        "order": 7
                                                    }
                                                ],
                                                "depth": 3,
                                                "id": 6,
                                                "order": 6
                                            }
                                        ],
                                        "depth": 2,
                                        "id": 5,
                                        "order": 5
                                    },
                                    {
                                        "children": [],
                                        "depth": 2,
                                        "id": 10,
                                        "order": 10
                                    },
                                    {
                                        "children": [],
                                        "depth": 2,
                                        "id": 11,
                                        "order": 11
                                    }
                                ],
                                "depth": 1,
                                "id": 1,
                                "order": 1
                            },
                            {
                                "children": [],
                                "depth": 1,
                                "id": 12,
                                "order": 12
                            },
                            {
                                "children": [
                                    {
                                        "children": [],
                                        "depth": 2,
                                        "id": 14,
                                        "order": 14
                                    },
                                    {
                                        "children": [],
                                        "depth": 2,
                                        "id": 15,
                                        "order": 15
                                    }
                                ],
                                "depth": 1,
                                "id": 13,
                                "order": 13
                            },
                            {
                                "children": [],
                                "depth": 1,
                                "id": 16,
                                "order": 16
                            }
                        ],
                        "depth": 0,
                        "id": 0,
                        "order": 0
                    }
                ],
                "depth": -1,
                "id": -1,
                "order": -1
            }
        ],
        "mainTraceNodeCount": 17,
        "parentIdMap": {
            "0": -1,
            "1": 0,
            "10": 1,
            "11": 1,
            "12": 0,
            "13": 0,
            "14": 13,
            "15": 13,
            "16": 0,
            "2": 1,
            "3": 2,
            "4": 1,
            "5": 1,
            "6": 5,
            "7": 6,
            "8": 7,
            "9": 7
        },
        "tidyTrace": [
            {
                "children": [
                    {
                        "children": [
                            {
                                "children": [
                                    {
                                        "children": [
                                            {
                                                "children": [],
                                                "depth": 3,
                                                "id": 3,
                                                "order": 3
                                            }
                                        ],
                                        "depth": 2,
                                        "id": 2,
                                        "order": 2
                                    },
                                    {
                                        "children": [
                                            {
                                                "children": [
                                                    {
                                                        "children": [
                                                            {
                                                                "children": [],
                                                                "depth": 5,
                                                                "id": 8,
                                                                "order": 8
                                                            },
                                                            {
                                                                "children": [],
                                                                "depth": 5,
                                                                "id": 9,
                                                                "order": 9
                                                            }
                                                        ],
                                                        "depth": 4,
                                                        "id": 7,
                                                        "order": 7
                                                    }
                                                ],
                                                "depth": 3,
                                                "id": 6,
                                                "order": 6
                                            }
                                        ],
                                        "depth": 2,
                                        "id": 5,
                                        "order": 5
                                    },
                                    {
                                        "children": [],
                                        "depth": 2,
                                        "id": 11,
                                        "order": 11
                                    }
                                ],
                                "depth": 1,
                                "id": 1,
                                "order": 1
                            },
                            {
                                "children": [
                                    {
                                        "children": [],
                                        "depth": 2,
                                        "id": 14,
                                        "order": 14
                                    },
                                    {
                                        "children": [],
                                        "depth": 2,
                                        "id": 15,
                                        "order": 15
                                    }
                                ],
                                "depth": 1,
                                "id": 13,
                                "order": 13
                            },
                            {
                                "children": [],
                                "depth": 1,
                                "id": 16,
                                "order": 16
                            }
                        ],
                        "depth": 0,
                        "id": 0,
                        "order": 0
                    }
                ],
                "depth": -1,
                "id": -1,
                "order": -1
            }
        ],
        "tidyTraceNodeCount": 14
    },
    "state_change": {
        "stateChanges": [
            {
                "address": "0xc02aaa39b223fe8d0a0e5c4f27ead9083c756cc2",
                "erc": "ERC-20",
                "slots": [
                    {
                        "current": "0x00000000000000000000000000000000000000000000001022e3e5053544e134",
                        "key": "0x1a5cef862424a8f5a3415684532b2fcf844b8c9067c666b1d719fb9ff53a0dc4",
                        "prev": "0x000000000000000000000000000000000000000000000010359d9768002fc7c9"
                    }
                ],
                "storageVariables": [
                    {
                        "name": "balanceOf",
                        "type": "mapping(address => uint256)",
                        "value": {
                            "pairs": [
                                {
                                    "key": "0xc45a81bc23a64ea556ab4cdf08a86b61cdceea8b",
                                    "value": {
                                        "current": "297662010006886998324",
                                        "prev": "299011315707642103753",
                                        "typeTag": 1
                                    }
                                }
                            ],
                            "typeTag": 4
                        }
                    }
                ]
            },
            {
                "address": "0xc45a81bc23a64ea556ab4cdf08a86b61cdceea8b",
                "erc": "",
                "slots": [
                    {
                        "current": "0x000000000000000000000000000043698e5e25a0290d5724814b113def36691e",
                        "key": "0x0000000000000000000000000000000000000000000000000000000000000002",
                        "prev": "0x000000000000000000000000000043698146edcbd9f2b5b61c884dbb0f0d688c"
                    },
                    {
                        "current": "0x00010000010001000002e12100000000000030e48cbe85e6c932b6e6555374a0",
                        "key": "0x0000000000000000000000000000000000000000000000000000000000000000",
                        "prev": "0x00010000010001000002e11900000000000030df7cc3eecc31e649355e01d904"
                    },
                    {
                        "current": "0x0100000a74000000000000000fa9e8cb0445b985a40000921ddf5c74656d3137",
                        "key": "0x0000000000000000000000000000000000000000000000000000000000000008",
                        "prev": "0x0100000a74000000000000000fa9e8720a4f8d62ee0000921dbccf48656d312b"
                    }
                ],
                "storageVariables": []
            },
            {
                "address": "0xf19308f923582a6f7c465e5ce7a9dc1bec6665b1",
                "erc": "ERC-20",
                "slots": [
                    {
                        "current": "0x0000000000000000000000000000000000000000008446ff112be06c2bbc0000",
                        "key": "0x6f2e6a1cccae26b811a6c6f9ce6fcac7aa2f53274977653798a992721e5f6ff3",
                        "prev": "0x00000000000000000000000000000000000000000134d3f00e0c2ac1f3c00000"
                    },
                    {
                        "current": "0x000000000000000000000000000000000000000003bc6532c3a09e64c6ac0000",
                        "key": "0x2eeb8411a3c16f1515a5ba460f4d68cd18cf4f1c2fdbbcc1a99ce470311f6704",
                        "prev": "0x0000000000000000000000000000000000000000046cf223c080e8ba8eb00000"
                    },
                    {
                        "current": "0x000000000000000000000000000000000000000077f2692d82a3b32958a2270d",
                        "key": "0x1ce130e20c3373ba275e248149bd84f5fe75a0287d0ae10534266ecd6c667673",
                        "prev": "0x00000000000000000000000000000000000000007741dc3c85c368d3909e270d"
                    }
                ],
                "storageVariables": [
                    {
                        "name": "_allowances",
                        "type": "mapping(address => mapping(address => uint256))",
                        "value": {
                            "pairs": [
                                {
                                    "key": "0x67e17c5c237ff3b4d0573ff4679757670ecfbf2b",
                                    "value": {
                                        "pairs": [
                                            {
                                                "key": "0x000000000022d473030f116ddee9f6b43ac78ba3",
                                                "value": {
                                                    "current": "159913479000000000000000000",
                                                    "prev": "373350000000000000000000000",
                                                    "typeTag": 1
                                                }
                                            }
                                        ],
                                        "typeTag": 4
                                    }
                                }
                            ],
                            "typeTag": 4
                        }
                    },
                    {
                        "name": "_balances",
                        "type": "mapping(address => uint256)",
                        "value": {
                            "pairs": [
                                {
                                    "key": "0x67e17c5c237ff3b4d0573ff4679757670ecfbf2b",
                                    "value": {
                                        "current": "1156210979000000000000000000",
                                        "prev": "1369647500000000000000000000",
                                        "typeTag": 1
                                    }
                                },
                                {
                                    "key": "0xc45a81bc23a64ea556ab4cdf08a86b61cdceea8b",
                                    "value": {
                                        "current": "37121772905084552704501622541",
                                        "prev": "36908336384084552704501622541",
                                        "typeTag": 1
                                    }
                                }
                            ],
                            "typeTag": 4
                        }
                    }
                ]
            }
        ]
    }
}