{
    "balance_change": {
        "balanceChanges": [
            {
                "account": "0x44a6c2795d848e20fa35b4d87ad7377474df4fba",
                "assets": [
                    {
                        "address": "0xff75ced57419bcaebe5f05254983b013b0646ef5",
                        "amount": "83,291.666666666666666667",
                        "iconUrl": "",
                        "isERC1155": false,
                        "isERC721": false,
                        "sign": false,
                        "value": "572.4777294"
                    }
                ]
            },
            {
                "account": "0x4b0d41b786f987cded3dcef72fa034be493eee3c",
                "assets": [
                    {
                        "address": "0xff75ced57419bcaebe5f05254983b013b0646ef5",
                        "amount": "83,291.666666666666666667",
                        "iconUrl": "",
                        "isERC1155": false,
                        "isERC721": false,
                        "sign": true,
                        "value": "572.4777294"
                    }
                ]
            }
        ]
    },
    "profile": {
        "basic_info": {
            "baseFee": "100.749288338",
            "blockNumber": 14034568,
            "callData": "0xa9059cbb0000000000000000000000004b0d41b786f987cded3dcef72fa034be493eee3c0000000000000000000000000000000000000000000011a340137f2b8eceaaab",
            "debugEnable": true,
            "errorInfo": "",
            "eventCount": 1,
            "feeRecipient": "0x829bd824b016326a401d083b33d092293333a830",
            "formatValue": "0",
            "gasLimit": 68080,
            "gasPrice": "118.233379022",
            "gasUsed": 56620,
            "intTxnCount": 1,
            "internalRevert": false,
            "internalRevertMessage": "",
            "isContractCreation": false,
            "isFlashloan": false,
            "maxFee": "",
            "nonce": 41,
            "overwritedBlockNumber": -1,
            "priorityFee": "",
            "receiver": "0xff75ced57419bcaebe5f05254983b013b0646ef5",
            "revertMessage": "",
            "sender": "0x44a6c2795d848e20fa35b4d87ad7377474df4fba",
            "simulationEnable": true,
            "sourceTxnHash": "0x9e07eb1e198d49a4bf5483e892884d47150cc7be811e4722020bb8f592c55965",
            "status": true,
            "timestamp": "2022-01-19T07:17:02Z",
            "transactionFee": "0.00669437392022564",
            "txnHash": "0x9e07eb1e198d49a4bf5483e892884d47150cc7be811e4722020bb8f592c55965",
            "txnIndex": 70,
            "type": 0,
            "value": "0"
        },
        "fund_flow": [
            {
                "amount": "83,291.666666666666666667",
                "from": "0x44a6c2795d848e20fa35b4d87ad7377474df4fba",
                "id": 1,
                "isERC1155": false,
                "isERC721": false,
                "isReverted": false,
                "order": 1,
                "to": "0x4b0d41b786f987cded3dcef72fa034be493eee3c",
                "token": "0xff75ced57419bcaebe5f05254983b013b0646ef5"
            }
        ],
        "token_infos": [
            {
                "address": "0xc02aaa39b223fe8d0a0e5c4f27ead9083c756cc2",
                "decimals": 18
            },
            {
                "address": "0xff75ced57419bcaebe5f05254983b013b0646ef5",
                "decimals": 18
            },
            {
                "address": "0xeeeeeeeeeeeeeeeeeeeeeeeeeeeeeeeeeeeeeeee",
                "decimals": 18
            }
        ]
    },
    "address_label": {
        "labels": [
            {
                "address": "0x0000000000000000000000000000000000000004",
                "label": "Precompiled"
            },
            {
                "address": "0xeeeeeeeeeeeeeeeeeeeeeeeeeeeeeeeeeeeeeeee",
                "label": "Ether"
            },
            {
                "address": "0x0c5778a97e5f143fefdaa251b6b7ac3404c21a85",
                "label": "CookToken"
            },
            {
                "address": "0xff75ced57419bcaebe5f05254983b013b0646ef5",
                "label": "Cook Protocol: COOK Token"
            },
            {
                "address": "0x0000000000000000000000000000000000000001",
                "label": "Precompiled"
            },
            {
                "address": "0x0000000000000000000000000000000000000002",
                "label": "Precompiled"
            },
            {
                "address": "0x0000000000000000000000000000000000000003",
                "label": "Precompiled"
            }
        ]
    },
    "trace": {
        "accountLabels": null,
        "dataMap": {
            "-1": {
                "invocation": {
                    "address": "0x44a6c2795d848e20fa35b4d87ad7377474df4fba",
                    "callData": "",
                    "decodedMethod": null,
                    "errorInfo": "",
                    "fromAddress": "",
                    "gasUsed": 0,
                    "id": -1,
                    "methodDecoded": false,
                    "operation": "",
                    "output": "",
                    "revert": false,
                    "revertMessage": "",
                    "selector": "",
                    "status": false,
                    "value": ""
                },
                "nodeType": 0
            },
            "0": {
                "invocation": {
                    "address": "0xff75ced57419bcaebe5f05254983b013b0646ef5",
                    "callData": "0x0000000000000000000000004b0d41b786f987cded3dcef72fa034be493eee3c0000000000000000000000000000000000000000000011a340137f2b8eceaaab",
                    "decodedMethod": {
                        "callParams": [
                            {
                                "name": "recipient",
                                "type": "address",
                                "value": "0x4b0d41b786f987cded3dcef72fa034be493eee3c"
                            },
                            {
                                "decimalAvailable": true,
                                "name": "amount",
                                "type": "uint256",
                                "value": "83,291,666,666,666,666,666,667"
                            }
                        ],
                        "constructorArguments": "",
                        "name": "transfer",
                        "returnParams": [
                            {
                                "name": "",
                                "type": "bool",
                                "value": true
                            }
                        ],
                        "signature": "transfer(address,uint256)"
                    },
                    "errorInfo": "",
                    "fromAddress": "0x44a6c2795d848e20fa35b4d87ad7377474df4fba",
                    "gasUsed": 56620,
                    "id": 0,
                    "methodDecoded": true,
                    "operation": "CALL",
                    "output": "0x0000000000000000000000000000000000000000000000000000000000000001",
                    "revert": false,
                    "revertMessage": "",
                    "selector": "0xa9059cbb",
                    "status": true,
                    "value": "0"
                },
                "nodeType": 0
            },
            "1": {
                "invocation": {
                    "address": "0x0c5778a97e5f143fefdaa251b6b7ac3404c21a85",
                    "callData": "0x0000000000000000000000004b0d41b786f987cded3dcef72fa034be493eee3c0000000000000000000000000000000000000000000011a340137f2b8eceaaab",
                    "decodedMethod": {
                        "callParams": [
                            {
                                "name": "recipient",
                                "type": "address",
                                "value": "0x4b0d41b786f987cded3dcef72fa034be493eee3c"
                            },
                            {
                                "decimalAvailable": true,
                                "name": "amount",
                                "type": "uint256",
                                "value": "83,291,666,666,666,666,666,667"
                            }
                        ],
                        "constructorArguments": "",
                        "name": "transfer",
                        "returnParams": [
                            {
                                "name": "",
                                "type": "bool",
                                "value": true
                            }
                        ],
                        "signature": "transfer(address,uint256)"
                    },
                    "errorInfo": "",
                    "fromAddress": "0xff75ced57419bcaebe5f05254983b013b0646ef5",
                    "gasUsed": 32461,
                    "id": 1,
                    "methodDecoded": true,
                    "operation": "DELEGATECALL",
                    "output": "0x0000000000000000000000000000000000000000000000000000000000000001",
                    "revert": false,
                    "revertMessage": "",
                    "selector": "0xa9059cbb",
                    "status": true,
                    "value": "0"
                },
                "nodeType": 0
            },
            "2": {
                "event": {
                    "contract": "0xff75ced57419bcaebe5f05254983b013b0646ef5",
                    "decodedLog": {
                        "name": "Transfer",
                        "params": [
                            {
                                "name": "from",
                                "type": "address",
                                "value": "0x44a6c2795d848e20fa35b4d87ad7377474df4fba"
                            },
                            {
                                "name": "to",
                                "type": "address",
                                "value": "0x4b0d41b786f987cded3dcef72fa034be493eee3c"
                            },
                            {
                                "decimalAvailable": true,
                                "name": "value",
                                "type": "uint256",
                                "value": "83,291,666,666,666,666,666,667"
                            }
                        ],
                        "signature": "Transfer(address,address,uint256)"
                    },
                    "id": 2,
                    "logData": "0x0000000000000000000000000000000000000000000011a340137f2b8eceaaab",
                    "logDecoded": true,
                    "operation": "EVENT",
                    "revert": false,
                    "status": true,
                    "topics": [
                        "0xddf252ad1be2c89b69c2b068fc378daa952ba7f163c4a11628f55a4df523b3ef",
                        "0x00000000000000000000000044a6c2795d848e20fa35b4d87ad7377474df4fba",
                        "0x0000000000000000000000004b0d41b786f987cded3dcef72fa034be493eee3c"
                    ]
                },
                "nodeType": 1
            }
        },
        "gasFlame": [
            {
                "children": [
                    {
                        "children": [
                            {
                                "children": [],
                                "depth": 0,
                                "name": "Initial Gas",
                                "value": 21680
                            },
                            {
                                "children": [
                                    {
                                        "children": [],
                                        "depth": 1,
                                        "name": "transfer",
                                        "value": 32461
                                    }
                                ],
                                "depth": 0,
                                "name": "Executed Gas",
                                "value": 39740
                            }
                        ],
                        "depth": -1,
                        "name": "Actual Gas Used",
                        "value": 56620
                    },
                    {
                        "children": [],
                        "depth": -1,
                        "name": "Refunded Gas",
                        "value": 4800
                    }
                ],
                "depth": -2,
                "name": "Total Gas",
                "value": 61420
            }
        ],
        "isConfirmed": true,
        "mainTrace": [
            {
                "children": [
                    {
                        "children": [
                            {
                                "children": [
                                    {
                                        "children": [],
                                        "depth": 2,
                                        "id": 2,
                                        "order": 2
                                    }
                                ],
                                "depth": 1,
                                "id": 1,
                                "order": 1
                            }
                        ],
                        "depth": 0,
                        "id": 0,
                        "order": 0
                    }
                ],
                "depth": -1,
                "id": -1,
                "order": -1
            }
        ],
        "mainTraceNodeCount": 3,
        "parentIdMap": {
            "0": -1,
            "1": 0,
            "2": 1
        },
        "tidyTrace": [
            {
                "children": [
                    {
                        "children": [
                            {
                                "children": [
                                    {
                                        "children": [],
                                        "depth": 2,
                                        "id": 2,
                                        "order": 2
                                    }
                                ],
                                "depth": 1,
                                "id": 1,
                                "order": 1
                            }
                        ],
                        "depth": 0,
                        "id": 0,
                        "order": 0
                    }
                ],
                "depth": -1,
                "id": -1,
                "order": -1
            }
        ],
        "tidyTraceNodeCount": 3
    },
    "state_change": {
        "stateChanges": [
            {
                "address": "0xff75ced57419bcaebe5f05254983b013b0646ef5",
                "erc": "ERC-20",
                "slots": [
                    {
                        "current": "0x0000000000000000000000000000000000000000000000000000000000000000",
                        "key": "0xe054e2004f89fba1912261232f569b1728579f95dcfd6945fa0d8d2ff6de4638",
                        "prev": "0x0000000000000000000000000000000000000000000011a340137f2b8eceaaab"
                    },
                    {
                        "current": "0x0000000000000000000000000000000000000000000011a340137f2b8eceaaab",
                        "key": "0xe17074d1121d01fcf314bb72787cf50154f272010e5e197dafa49e7e55d59dfa",
                        "prev": "0x0000000000000000000000000000000000000000000000000000000000000000"
                    }
                ],
                "storageVariables": [
                    {
                        "name": "_balances",
                        "type": "mapping(address => uint256)",
                        "value": {
                            "pairs": [
                                {
                                    "key": "0x44a6c2795d848e20fa35b4d87ad7377474df4fba",
                                    "value": {
                                        "current": "0",
                                        "prev": "83291666666666666666667",
                                        "typeTag": 1
                                    }
                                },
                                {
                                    "key": "0x4b0d41b786f987cded3dcef72fa034be493eee3c",
                                    "value": {
                                        "current": "83291666666666666666667",
                                        "prev": "0",
                                        "typeTag": 1
                                    }
                                }
                            ],
                            "typeTag": 4
                        }
                    }
                ]
            }
        ]
    }
}