{
    "balance_change": {
        "balanceChanges": [
            {
                "account": "0x27f93efbda33e98acb90f4b8e3b00eb1822c82a4",
                "assets": [
                    {
                        "address": "0x66b279a074faa84e2a29b9a6997dc2957044c486",
                        "amount": "0.1",
                        "iconUrl": "",
                        "isERC1155": false,
                        "isERC721": false,
                        "sign": false,
                        "value": ""
                    }
                ]
            },
            {
                "account": "0x9ad9da579d3255bbe9e931d264c6fa58c93a0047",
                "assets": [
                    {
                        "address": "0x66b279a074faa84e2a29b9a6997dc2957044c486",
                        "amount": "0.1",
                        "iconUrl": "",
                        "isERC1155": false,
                        "isERC721": false,
                        "sign": true,
                        "value": ""
                    }
                ]
            }
        ]
    },
    "profile": {
        "basic_info": {
            "baseFee": "",
            "blockNumber": 9479278,
            "callData": "0xa9059cbb0000000000000000000000009ad9da579d3255bbe9e931d264c6fa58c93a0047000000000000000000000000000000000000000000000000016345785d8a0000",
            "debugEnable": true,
            "errorInfo": "",
            "eventCount": 1,
            "feeRecipient": "0xea674fdde714fd979de3edf0f56aa9716b898ec8",
            "formatValue": "0",
            "gasLimit": 210000,
            "gasPrice": "1",
            "gasUsed": 57152,
            "intTxnCount": 0,
            "internalRevert": false,
            "internalRevertMessage": "",
            "isContractCreation": false,
            "isFlashloan": false,
            "maxFee": "",
            "nonce": 5735,
            "overwritedBlockNumber": -1,
            "priorityFee": "",
            "receiver": "0x66b279a074faa84e2a29b9a6997dc2957044c486",
            "revertMessage": "",
            "sender": "0x27f93efbda33e98acb90f4b8e3b00eb1822c82a4",
            "simulationEnable": true,
            "sourceTxnHash": "0x9ee2a59a610cead2a6c386d4a30577f368740a6d933282777d95dbecb6336e5a",
            "status": true,
            "timestamp": "2020-02-14T05:29:33Z",
            "transactionFee": "0.000057152",
            "txnHash": "0x9ee2a59a610cead2a6c386d4a30577f368740a6d933282777d95dbecb6336e5a",
            "txnIndex": 127,
            "type": 0,
            "value": "0"
        },
        "fund_flow": [
            {
                "amount": "0.1",
                "from": "0x27f93efbda33e98acb90f4b8e3b00eb1822c82a4",
                "id": 1,
                "isERC1155": false,
                "isERC721": false,
                "isReverted": false,
                "order": 1,
                "to": "0x9ad9da579d3255bbe9e931d264c6fa58c93a0047",
                "token": "0x66b279a074faa84e2a29b9a6997dc2957044c486"
            }
        ],
        "token_infos": [
            {
                "address": "0x66b279a074faa84e2a29b9a6997dc2957044c486",
                "decimals": 18
            },
            {
                "address": "0xc02aaa39b223fe8d0a0e5c4f27ead9083c756cc2",
                "decimals": 18
            },
            {
                "address": "0xeeeeeeeeeeeeeeeeeeeeeeeeeeeeeeeeeeeeeeee",
                "decimals": 18
            }
        ]
    },
    "address_label": {
        "labels": [
            {
                "address": "0x0000000000000000000000000000000000000001",
                "label": "Precompiled"
            },
            {
                "address": "0x0000000000000000000000000000000000000002",
                "label": "Precompiled"
            },
            {
                "address": "0x0000000000000000000000000000000000000003",
                "label": "Precompiled"
            },
            {
                "address": "0x0000000000000000000000000000000000000004",
                "label": "Precompiled"
            },
            {
                "address": "0xeeeeeeeeeeeeeeeeeeeeeeeeeeeeeeeeeeeeeeee",
                "label": "Ether"
            },
            {
                "address": "0x66b279a074faa84e2a29b9a6997dc2957044c486",
                "label": "Game Token Gate (GTG)"
            }
        ]
    },
    "trace": {
        "accountLabels": null,
        "dataMap": {
            "-1": {
                "invocation": {
                    "address": "0x27f93efbda33e98acb90f4b8e3b00eb1822c82a4",
                    "callData": "",
                    "decodedMethod": null,
                    "errorInfo": "",
                    "fromAddress": "",
                    "gasUsed": 0,
                    "id": -1,
                    "methodDecoded": false,
                    "operation": "",
                    "output": "",
                    "revert": false,
                    "revertMessage": "",
                    "selector": "",
                    "status": false,
                    "value": ""
                },
                "nodeType": 0
            },
            "0": {
                "invocation": {
                    "address": "0x66b279a074faa84e2a29b9a6997dc2957044c486",
                    "callData": "0x0000000000000000000000009ad9da579d3255bbe9e931d264c6fa58c93a0047000000000000000000000000000000000000000000000000016345785d8a0000",
                    "decodedMethod": {
                        "callParams": [
                            {
                                "name": "_to",
                                "type": "address",
                                "value": "0x9ad9da579d3255bbe9e931d264c6fa58c93a0047"
                            },
                            {
                                "decimalAvailable": true,
                                "name": "_value",
                                "type": "uint256",
                                "value": "100,000,000,000,000,000"
                            }
                        ],
                        "constructorArguments": "",
                        "name": "transfer",
                        "returnParams": [],
                        "signature": "transfer(address,uint256)"
                    },
                    "errorInfo": "",
                    "fromAddress": "0x27f93efbda33e98acb90f4b8e3b00eb1822c82a4",
                    "gasUsed": 57152,
                    "id": 0,
                    "methodDecoded": true,
                    "operation": "CALL",
                    "output": "",
                    "revert": false,
                    "revertMessage": "",
                    "selector": "0xa9059cbb",
                    "status": true,
                    "value": "0"
                },
                "nodeType": 0
            },
            "1": {
                "event": {
                    "contract": "0x66b279a074faa84e2a29b9a6997dc2957044c486",
                    "decodedLog": {
                        "name": "Transfer",
                        "params": [
                            {
                                "name": "from",
                                "type": "address",
                                "value": "0x27f93efbda33e98acb90f4b8e3b00eb1822c82a4"
                            },
                            {
                                "name": "to",
                                "type": "address",
                                "value": "0x9ad9da579d3255bbe9e931d264c6fa58c93a0047"
                            },
                            {
                                "decimalAvailable": true,
                                "name": "value",
                                "type": "uint256",
                                "value": "100,000,000,000,000,000"
                            }
                        ],
                        "signature": "Transfer(address,address,uint256)"
                    },
                    "id": 1,
                    "logData": "0x000000000000000000000000000000000000000000000000016345785d8a0000",
                    "logDecoded": true,
                    "operation": "EVENT",
                    "revert": false,
                    "status": true,
                    "topics": [
                        "0xddf252ad1be2c89b69c2b068fc378daa952ba7f163c4a11628f55a4df523b3ef",
                        "0x00000000000000000000000027f93efbda33e98acb90f4b8e3b00eb1822c82a4",
                        "0x0000000000000000000000009ad9da579d3255bbe9e931d264c6fa58c93a0047"
                    ]
                },
                "nodeType": 1
            }
        },
        "gasFlame": [
            {
                "children": [
                    {
                        "children": [
                            {
                                "children": [],
                                "depth": 0,
                                "name": "Initial Gas",
                                "value": 21620
                            },
                            {
                                "children": [],
                                "depth": 0,
                                "name": "Executed Gas",
                                "value": 35532
                            }
                        ],
                        "depth": -1,
                        "name": "Actual Gas Used",
                        "value": 57152
                    },
                    {
                        "children": [],
                        "depth": -1,
                        "name": "Refunded Gas",
                        "value": 0
                    }
                ],
                "depth": -2,
                "name": "Total Gas",
                "value": 57152
            }
        ],
        "isConfirmed": true,
        "mainTrace": [
            {
                "children": [
                    {
                        "children": [
                            {
                                "children": [],
                                "depth": 1,
                                "id": 1,
                                "order": 1
                            }
                        ],
                        "depth": 0,
                        "id": 0,
                        "order": 0
                    }
                ],
                "depth": -1,
                "id": -1,
                "order": -1
            }
        ],
        "mainTraceNodeCount": 2,
        "parentIdMap": {
            "0": -1,
            "1": 0
        },
        "tidyTrace": [
            {
                "children": [
                    {
                        "children": [
                            {
                                "children": [],
                                "depth": 1,
                                "id": 1,
                                "order": 1
                            }
                        ],
                        "depth": 0,
                        "id": 0,
                        "order": 0
                    }
                ],
                "depth": -1,
                "id": -1,
                "order": -1
            }
        ],
        "tidyTraceNodeCount": 2
    },
    "state_change": {
        "stateChanges": [
            {
                "address": "0x66b279a074faa84e2a29b9a6997dc2957044c486",
                "erc": "",
                "slots": [
                    {
                        "current": "0x0000000000000000000000000000000000000000000003587b5539b8951a0000",
                        "key": "0x32cb7857a7c7fb3b143e2636b11eb536ba715ab18bf08584682295769dc3648b",
                        "prev": "0x0000000000000000000000000000000000000000000003587cb87f30f2a40000"
                    },
                    {
                        "current": "0x000000000000000000000000000000000000000000000000016345785d8a0000",
                        "key": "0xc9769f2cddbc80ebb0cd521fbfc7fa0a2188d10a6cbd748985e96254c788764e",
                        "prev": "0x0000000000000000000000000000000000000000000000000000000000000000"
                    }
                ],
                "storageVariables": [
                    {
                        "name": "balanceOf",
                        "type": "mapping(address => uint256)",
                        "value": {
                            "pairs": [
                                {
                                    "key": "0x27f93efbda33e98acb90f4b8e3b00eb1822c82a4",
                                    "value": {
                                        "current": "15799300000000000000000",
                                        "prev": "15799400000000000000000",
                                        "typeTag": 1
                                    }
                                },
                                {
                                    "key": "0x9ad9da579d3255bbe9e931d264c6fa58c93a0047",
                                    "value": {
                                        "current": "100000000000000000",
                                        "prev": "0",
                                        "typeTag": 1
                                    }
                                }
                            ],
                            "typeTag": 4
                        }
                    }
                ]
            }
        ]
    }
}