{
    "balance_change": {
        "balanceChanges": [
            {
                "account": "0xe8c4bbaeec2286a7e312217e51d6ade15be4f1fd",
                "assets": [
                    {
                        "address": "0xeeeeeeeeeeeeeeeeeeeeeeeeeeeeeeeeeeeeeeee",
                        "amount": "0.10063",
                        "iconUrl": "https://assets.blocksec.com/image/1663669189317-3.png",
                        "isERC1155": false,
                        "isERC721": false,
                        "sign": false,
                        "value": "162.1936181"
                    }
                ]
            },
            {
                "account": "0xff1f2b4adb9df6fc8eafecdcbf96a2b351680455",
                "assets": [
                    {
                        "address": "0xeeeeeeeeeeeeeeeeeeeeeeeeeeeeeeeeeeeeeeee",
                        "amount": "0.10063",
                        "iconUrl": "https://assets.blocksec.com/image/1663669189317-3.png",
                        "isERC1155": false,
                        "isERC721": false,
                        "sign": true,
                        "value": "162.1936181"
                    }
                ]
            }
        ]
    },
    "profile": {
        "basic_info": {
            "baseFee": "4.100989805",
            "blockNumber": 15400568,
            "callData": "0x7ff48afb000000000000000000000000000000000000000000000000000000000000000000000000000000000000000000000000000000000000000001658273abbf6000000000000000000000000000e8c4bbaeec2286a7e312217e51d6ade15be4f1fd0000000000000000000000000000000000000000000000000000000000000000",
            "debugEnable": true,
            "errorInfo": "",
            "eventCount": 1,
            "feeRecipient": "0xc730b028da66ebb14f20e67c68dd809fbc49890d",
            "formatValue": "0.10063",
            "gasLimit": 62229,
            "gasPrice": "5.600989805",
            "gasUsed": 56768,
            "intTxnCount": 1,
            "internalRevert": false,
            "internalRevertMessage": "",
            "isContractCreation": false,
            "isFlashloan": false,
            "maxFee": "8.153283202",
            "nonce": 122,
            "overwritedBlockNumber": -1,
            "priorityFee": "1.5",
            "receiver": "0xff1f2b4adb9df6fc8eafecdcbf96a2b351680455",
            "revertMessage": "",
            "sender": "0xe8c4bbaeec2286a7e312217e51d6ade15be4f1fd",
            "simulationEnable": true,
            "sourceTxnHash": "0x9e82d0b6a4726ec122b61f310fbb47f77f469727b362cb305aca1b6765b6362c",
            "status": true,
            "timestamp": "2022-08-24T03:31:54Z",
            "transactionFee": "0.00031795698925024",
            "txnHash": "0x9e82d0b6a4726ec122b61f310fbb47f77f469727b362cb305aca1b6765b6362c",
            "txnIndex": 124,
            "type": 2,
            "value": "100630000000000000"
        },
        "fund_flow": [
            {
                "amount": "0.10063",
                "from": "0xe8c4bbaeec2286a7e312217e51d6ade15be4f1fd",
                "id": 1,
                "isERC1155": false,
                "isERC721": false,
                "isReverted": false,
                "order": 1,
                "to": "0xff1f2b4adb9df6fc8eafecdcbf96a2b351680455",
                "token": "0xeeeeeeeeeeeeeeeeeeeeeeeeeeeeeeeeeeeeeeee"
            }
        ],
        "token_infos": [
            {
                "address": "0xc02aaa39b223fe8d0a0e5c4f27ead9083c756cc2",
                "decimals": 18
            },
            {
                "address": "0xeeeeeeeeeeeeeeeeeeeeeeeeeeeeeeeeeeeeeeee",
                "decimals": 18
            }
        ]
    },
    "address_label": {
        "labels": [
            {
                "address": "0x0000000000000000000000000000000000000004",
                "label": "Precompiled"
            },
            {
                "address": "0xeeeeeeeeeeeeeeeeeeeeeeeeeeeeeeeeeeeeeeee",
                "label": "Ether"
            },
            {
                "address": "0xff1f2b4adb9df6fc8eafecdcbf96a2b351680455",
                "label": "Aztec: Connect"
            },
            {
                "address": "0x3f972e325cecd99a6be267fd36ceb46dca7c3f28",
                "label": "RollupProcessor"
            },
            {
                "address": "0x0000000000000000000000000000000000000001",
                "label": "Precompiled"
            },
            {
                "address": "0x0000000000000000000000000000000000000002",
                "label": "Precompiled"
            },
            {
                "address": "0x0000000000000000000000000000000000000003",
                "label": "Precompiled"
            }
        ]
    },
    "trace": {
        "accountLabels": null,
        "dataMap": {
            "-1": {
                "invocation": {
                    "address": "0xe8c4bbaeec2286a7e312217e51d6ade15be4f1fd",
                    "callData": "",
                    "decodedMethod": null,
                    "errorInfo": "",
                    "fromAddress": "",
                    "gasUsed": 0,
                    "id": -1,
                    "methodDecoded": false,
                    "operation": "",
                    "output": "",
                    "revert": false,
                    "revertMessage": "",
                    "selector": "",
                    "status": false,
                    "value": ""
                },
                "nodeType": 0
            },
            "0": {
                "invocation": {
                    "address": "0xff1f2b4adb9df6fc8eafecdcbf96a2b351680455",
                    "callData": "0x000000000000000000000000000000000000000000000000000000000000000000000000000000000000000000000000000000000000000001658273abbf6000000000000000000000000000e8c4bbaeec2286a7e312217e51d6ade15be4f1fd0000000000000000000000000000000000000000000000000000000000000000",
                    "decodedMethod": {
                        "callParams": [
                            {
                                "name": "assetId",
                                "type": "uint256",
                                "value": "0"
                            },
                            {
                                "name": "amount",
                                "type": "uint256",
                                "value": "100,630,000,000,000,000"
                            },
                            {
                                "name": "owner",
                                "type": "address",
                                "value": "0xe8c4bbaeec2286a7e312217e51d6ade15be4f1fd"
                            },
                            {
                                "name": "proofHash",
                                "type": "bytes32",
                                "value": "0x0000000000000000000000000000000000000000000000000000000000000000"
                            }
                        ],
                        "constructorArguments": "",
                        "name": "depositPendingFunds",
                        "returnParams": [],
                        "signature": "depositPendingFunds(uint256,uint256,address,bytes32)"
                    },
                    "errorInfo": "",
                    "fromAddress": "0xe8c4bbaeec2286a7e312217e51d6ade15be4f1fd",
                    "gasUsed": 56768,
                    "id": 0,
                    "methodDecoded": true,
                    "operation": "CALL",
                    "output": "",
                    "revert": false,
                    "revertMessage": "",
                    "selector": "0x7ff48afb",
                    "status": true,
                    "value": "0.10063"
                },
                "nodeType": 0
            },
            "1": {
                "invocation": {
                    "address": "0x3f972e325cecd99a6be267fd36ceb46dca7c3f28",
                    "callData": "0x000000000000000000000000000000000000000000000000000000000000000000000000000000000000000000000000000000000000000001658273abbf6000000000000000000000000000e8c4bbaeec2286a7e312217e51d6ade15be4f1fd0000000000000000000000000000000000000000000000000000000000000000",
                    "decodedMethod": {
                        "callParams": [
                            {
                                "name": "assetId",
                                "type": "uint256",
                                "value": "0"
                            },
                            {
                                "name": "amount",
                                "type": "uint256",
                                "value": "100,630,000,000,000,000"
                            },
                            {
                                "name": "owner",
                                "type": "address",
                                "value": "0xe8c4bbaeec2286a7e312217e51d6ade15be4f1fd"
                            },
                            {
                                "name": "proofHash",
                                "type": "bytes32",
                                "value": "0x0000000000000000000000000000000000000000000000000000000000000000"
                            }
                        ],
                        "constructorArguments": "",
                        "name": "depositPendingFunds",
                        "returnParams": [],
                        "signature": "depositPendingFunds(uint256,uint256,address,bytes32)"
                    },
                    "errorInfo": "",
                    "fromAddress": "0xff1f2b4adb9df6fc8eafecdcbf96a2b351680455",
                    "gasUsed": 30407,
                    "id": 1,
                    "methodDecoded": true,
                    "operation": "DELEGATECALL",
                    "output": "",
                    "revert": false,
                    "revertMessage": "",
                    "selector": "0x7ff48afb",
                    "status": true,
                    "value": "0.10063"
                },
                "nodeType": 0
            },
            "2": {
                "event": {
                    "contract": "0xff1f2b4adb9df6fc8eafecdcbf96a2b351680455",
                    "decodedLog": {
                        "name": "Deposit",
                        "params": [
                            {
                                "name": "pid",
                                "type": "uint256",
                                "value": "0"
                            },
                            {
                                "name": "user",
                                "type": "address",
                                "value": "0xe8c4bbaeec2286a7e312217e51d6ade15be4f1fd"
                            },
                            {
                                "name": "amount",
                                "type": "uint256",
                                "value": "100,630,000,000,000,000"
                            }
                        ],
                        "signature": "Deposit(uint256,address,uint256)"
                    },
                    "id": 2,
                    "logData": "0x00000000000000000000000000000000000000000000000001658273abbf6000",
                    "logDecoded": true,
                    "operation": "EVENT",
                    "revert": false,
                    "status": true,
                    "topics": [
                        "0xeaa18152488ce5959073c9c79c88ca90b3d96c00de1f118cfaad664c3dab06b9",
                        "0x0000000000000000000000000000000000000000000000000000000000000000",
                        "0x000000000000000000000000e8c4bbaeec2286a7e312217e51d6ade15be4f1fd"
                    ]
                },
                "nodeType": 1
            }
        },
        "gasFlame": [
            {
                "children": [
                    {
                        "children": [
                            {
                                "children": [],
                                "depth": 0,
                                "name": "Initial Gas",
                                "value": 21900
                            },
                            {
                                "children": [
                                    {
                                        "children": [],
                                        "depth": 1,
                                        "name": "depositPendingFunds",
                                        "value": 30407
                                    }
                                ],
                                "depth": 0,
                                "name": "Executed Gas",
                                "value": 37668
                            }
                        ],
                        "depth": -1,
                        "name": "Actual Gas Used",
                        "value": 56768
                    },
                    {
                        "children": [],
                        "depth": -1,
                        "name": "Refunded Gas",
                        "value": 2800
                    }
                ],
                "depth": -2,
                "name": "Total Gas",
                "value": 59568
            }
        ],
        "isConfirmed": true,
        "mainTrace": [
            {
                "children": [
                    {
                        "children": [
                            {
                                "children": [
                                    {
                                        "children": [],
                                        "depth": 2,
                                        "id": 2,
                                        "order": 2
                                    }
                                ],
                                "depth": 1,
                                "id": 1,
                                "order": 1
                            }
                        ],
                        "depth": 0,
                        "id": 0,
                        "order": 0
                    }
                ],
                "depth": -1,
                "id": -1,
                "order": -1
            }
        ],
        "mainTraceNodeCount": 3,
        "parentIdMap": {
            "0": -1,
            "1": 0,
            "2": 1
        },
        "tidyTrace": [
            {
                "children": [
                    {
                        "children": [
                            {
                                "children": [
                                    {
                                        "children": [],
                                        "depth": 2,
                                        "id": 2,
                                        "order": 2
                                    }
                                ],
                                "depth": 1,
                                "id": 1,
                                "order": 1
                            }
                        ],
                        "depth": 0,
                        "id": 0,
                        "order": 0
                    }
                ],
                "depth": -1,
                "id": -1,
                "order": -1
            }
        ],
        "tidyTraceNodeCount": 3
    },
    "state_change": {
        "stateChanges": [
            {
                "address": "0xff1f2b4adb9df6fc8eafecdcbf96a2b351680455",
                "erc": "",
                "slots": [
                    {
                        "current": "0x00000000000000000000000000000000000000000000000001658273abbf6000",
                        "key": "0x24a5b59e2ae6abd1acfafaa120b9219c9c1649daf61e4f59cca4167df04c5e4a",
                        "prev": "0x0000000000000000000000000000000000000000000000000000000000000000"
                    }
                ],
                "storageVariables": [
                    {
                        "name": "userPendingDeposits",
                        "type": "mapping(uint256 => mapping(address => uint256))",
                        "value": {
                            "pairs": [
                                {
                                    "key": "0",
                                    "value": {
                                        "pairs": [
                                            {
                                                "key": "0xe8c4bbaeec2286a7e312217e51d6ade15be4f1fd",
                                                "value": {
                                                    "current": "100630000000000000",
                                                    "prev": "0",
                                                    "typeTag": 1
                                                }
                                            }
                                        ],
                                        "typeTag": 4
                                    }
                                }
                            ],
                            "typeTag": 4
                        }
                    }
                ]
            }
        ]
    }
}