{
    "balance_change": {
        "balanceChanges": []
    },
    "profile": {
        "basic_info": {
            "baseFee": "",
            "blockNumber": 8057579,
            "callData": "0xef3435880000000000000000000000000000000000000000000000000dd41b8cb115af80000000000000000000000000000000000000000000000128c68124a4db000000000000000000000000000000000000000000000000000000000000000000271000000000000000000000000000000000000000000000000000000002b12439c400000000000000000000000000000000000000000000000000d51dbaf1eeeba300000000000000000000000000000000000000000000000000000000000005d700000000000000000000000000000000000000000000000000038d7ea4c6800000000000000000000000000000000000000000000000000000316458ea4464740000000000000000000000000000000000000000000000000000000000000000000000000000000000000000b705268213d593b8fd88d3fdeff93aff5cbdcfae000000000000000000000000cc5d6c7a2095033e606023ee89b65dd0ecdf929c0000000000000000000000005863a2e344da593fb7ff670c98fddcc9a34fa81e000000000000000000000000000000000000000000000000000000000000001c000000000000000000000000000000000000000000000000000000000000001b96967a9d969abe840cc20591e206a6c581041f6869dea02f5a0a463f51aadaaf0a9c317009614354b0c49e5e1b9e5f9915bfb79228894bc86f4f1000d6b381f9f0439fc3e8e60886fb7bb18e48ff795bd268b8e3d82331d9e48f3f0bb49c6c930b2c9304128ba8ab3fa6be123028bd2faf96245dc2b480b1c81af8dcf2a5a61a",
            "debugEnable": true,
            "errorInfo": "",
            "eventCount": 0,
            "feeRecipient": "0x5a0b54d5dc17e0aadc383d2db43b0a0d3e029c4c",
            "formatValue": "0",
            "gasLimit": 400000,
            "gasPrice": "4",
            "gasUsed": 142772,
            "intTxnCount": 2,
            "internalRevert": false,
            "internalRevertMessage": "",
            "isContractCreation": false,
            "isFlashloan": false,
            "maxFee": "",
            "nonce": 3609090,
            "overwritedBlockNumber": -1,
            "priorityFee": "",
            "receiver": "0x2a0c0dbecc7e4d658f48e01e3fa353f44050c208",
            "revertMessage": "",
            "sender": "0xa7a7899d944fe658c4b0a1803bab2f490bd3849e",
            "simulationEnable": true,
            "sourceTxnHash": "0x9ead67d9d3609b113254e443cd2feee2d6f6e53a3da435a42cf269e584a79912",
            "status": true,
            "timestamp": "2019-06-30T06:25:16Z",
            "transactionFee": "0.000571088",
            "txnHash": "0x9ead67d9d3609b113254e443cd2feee2d6f6e53a3da435a42cf269e584a79912",
            "txnIndex": 25,
            "type": 0,
            "value": "0"
        },
        "fund_flow": [],
        "token_infos": [
            {
                "address": "0xc02aaa39b223fe8d0a0e5c4f27ead9083c756cc2",
                "decimals": 18
            },
            {
                "address": "0xeeeeeeeeeeeeeeeeeeeeeeeeeeeeeeeeeeeeeeee",
                "decimals": 18
            }
        ]
    },
    "address_label": {
        "labels": [
            {
                "address": "0xeeeeeeeeeeeeeeeeeeeeeeeeeeeeeeeeeeeeeeee",
                "label": "Ether"
            },
            {
                "address": "0xa7a7899d944fe658c4b0a1803bab2f490bd3849e",
                "label": "IDEX 2"
            },
            {
                "address": "0x0000000000000000000000000000000000000000",
                "label": "Null Address"
            },
            {
                "address": "0x2a0c0dbecc7e4d658f48e01e3fa353f44050c208",
                "label": "IDEX"
            },
            {
                "address": "0x0000000000000000000000000000000000000001",
                "label": "Precompiled"
            },
            {
                "address": "0x0000000000000000000000000000000000000002",
                "label": "Precompiled"
            },
            {
                "address": "0x0000000000000000000000000000000000000004",
                "label": "Precompiled"
            },
            {
                "address": "0xb705268213d593b8fd88d3fdeff93aff5cbdcfae",
                "label": "IDEX Token"
            },
            {
                "address": "0x0000000000000000000000000000000000000003",
                "label": "Precompiled"
            }
        ]
    },
    "trace": {
        "accountLabels": null,
        "dataMap": {
            "-1": {
                "invocation": {
                    "address": "0xa7a7899d944fe658c4b0a1803bab2f490bd3849e",
                    "callData": "",
                    "decodedMethod": null,
                    "errorInfo": "",
                    "fromAddress": "",
                    "gasUsed": 0,
                    "id": -1,
                    "methodDecoded": false,
                    "operation": "",
                    "output": "",
                    "revert": false,
                    "revertMessage": "",
                    "selector": "",
                    "status": false,
                    "value": ""
                },
                "nodeType": 0
            },
            "0": {
                "invocation": {
                    "address": "0x2a0c0dbecc7e4d658f48e01e3fa353f44050c208",
                    "callData": "0x0000000000000000000000000000000000000000000000000dd41b8cb115af80000000000000000000000000000000000000000000000128c68124a4db000000000000000000000000000000000000000000000000000000000000000000271000000000000000000000000000000000000000000000000000000002b12439c400000000000000000000000000000000000000000000000000d51dbaf1eeeba300000000000000000000000000000000000000000000000000000000000005d700000000000000000000000000000000000000000000000000038d7ea4c6800000000000000000000000000000000000000000000000000000316458ea4464740000000000000000000000000000000000000000000000000000000000000000000000000000000000000000b705268213d593b8fd88d3fdeff93aff5cbdcfae000000000000000000000000cc5d6c7a2095033e606023ee89b65dd0ecdf929c0000000000000000000000005863a2e344da593fb7ff670c98fddcc9a34fa81e000000000000000000000000000000000000000000000000000000000000001c000000000000000000000000000000000000000000000000000000000000001b96967a9d969abe840cc20591e206a6c581041f6869dea02f5a0a463f51aadaaf0a9c317009614354b0c49e5e1b9e5f9915bfb79228894bc86f4f1000d6b381f9f0439fc3e8e60886fb7bb18e48ff795bd268b8e3d82331d9e48f3f0bb49c6c930b2c9304128ba8ab3fa6be123028bd2faf96245dc2b480b1c81af8dcf2a5a61a",
                    "decodedMethod": {
                        "callParams": [
                            {
                                "name": "tradeValues",
                                "type": "uint256[8]",
                                "value": [
                                    "996,451,708,636,082,048",
                                    "5,474,540,000,000,000,131,072",
                                    "10,000",
                                    "11,561,875,908",
                                    "59,986,858,799,459,235",
                                    "1,495",
                                    "1,000,000,000,000,000",
                                    "13,902,606,909,072,500"
                                ]
                            },
                            {
                                "name": "tradeAddresses",
                                "type": "address[4]",
                                "value": [
                                    "0x0000000000000000000000000000000000000000",
                                    "0xb705268213d593b8fd88d3fdeff93aff5cbdcfae",
                                    "0xcc5d6c7a2095033e606023ee89b65dd0ecdf929c",
                                    "0x5863a2e344da593fb7ff670c98fddcc9a34fa81e"
                                ]
                            },
                            {
                                "name": "v",
                                "type": "uint8[2]",
                                "value": [
                                    "28",
                                    "27"
                                ]
                            },
                            {
                                "name": "rs",
                                "type": "bytes32[4]",
                                "value": [
                                    "0x96967a9d969abe840cc20591e206a6c581041f6869dea02f5a0a463f51aadaaf",
                                    "0x0a9c317009614354b0c49e5e1b9e5f9915bfb79228894bc86f4f1000d6b381f9",
                                    "0xf0439fc3e8e60886fb7bb18e48ff795bd268b8e3d82331d9e48f3f0bb49c6c93",
                                    "0x0b2c9304128ba8ab3fa6be123028bd2faf96245dc2b480b1c81af8dcf2a5a61a"
                                ]
                            }
                        ],
                        "constructorArguments": "",
                        "name": "trade",
                        "returnParams": [
                            {
                                "name": "success",
                                "type": "bool",
                                "value": false
                            }
                        ],
                        "signature": "trade(uint256[8],address[4],uint8[2],bytes32[4])"
                    },
                    "errorInfo": "",
                    "fromAddress": "0xa7a7899d944fe658c4b0a1803bab2f490bd3849e",
                    "gasUsed": 142772,
                    "id": 0,
                    "methodDecoded": true,
                    "operation": "CALL",
                    "output": "0x0000000000000000000000000000000000000000000000000000000000000000",
                    "revert": false,
                    "revertMessage": "",
                    "selector": "0xef343588",
                    "status": true,
                    "value": "0"
                },
                "nodeType": 0
            },
            "1": {
                "invocation": {
                    "address": "0x0000000000000000000000000000000000000001",
                    "callData": "0x14784803cdf8c9bd5cc35705ac0cb2687dfd2a3e4cf9f746ac38bcec000000000000000000000000000000000000000000000000000000000000001c96967a9d969abe840cc20591e206a6c581041f6869dea02f5a0a463f51aadaaf0a9c317009614354b0c49e5e1b9e5f9915bfb79228894bc86f4f1000d6b381f9",
                    "decodedMethod": {
                        "callParams": [
                            {
                                "name": "hash",
                                "type": "bytes32",
                                "value": "0x087b658714784803cdf8c9bd5cc35705ac0cb2687dfd2a3e4cf9f746ac38bcec"
                            },
                            {
                                "name": "v",
                                "type": "uint256",
                                "value": "28"
                            },
                            {
                                "name": "r",
                                "type": "bytes32",
                                "value": "0x96967a9d969abe840cc20591e206a6c581041f6869dea02f5a0a463f51aadaaf"
                            },
                            {
                                "name": "s",
                                "type": "bytes32",
                                "value": "0x0a9c317009614354b0c49e5e1b9e5f9915bfb79228894bc86f4f1000d6b381f9"
                            }
                        ],
                        "constructorArguments": "",
                        "name": "ecrecover",
                        "returnParams": [
                            {
                                "name": "",
                                "type": "address",
                                "value": "0xcc5d6c7a2095033e606023ee89b65dd0ecdf929c"
                            }
                        ],
                        "signature": "ecrecover(bytes32,uint256,bytes32,bytes32)"
                    },
                    "errorInfo": "",
                    "fromAddress": "0x2a0c0dbecc7e4d658f48e01e3fa353f44050c208",
                    "gasUsed": 3000,
                    "id": 1,
                    "methodDecoded": true,
                    "operation": "CALL",
                    "output": "0x000000000000000000000000cc5d6c7a2095033e606023ee89b65dd0ecdf929c",
                    "revert": false,
                    "revertMessage": "",
                    "selector": "0x087b6587",
                    "status": true,
                    "value": "0"
                },
                "nodeType": 0
            },
            "2": {
                "invocation": {
                    "address": "0x0000000000000000000000000000000000000001",
                    "callData": "0x5d6708d53039bf025d8e88832ddf2639a94393d5420321d97c5a86bd000000000000000000000000000000000000000000000000000000000000001bf0439fc3e8e60886fb7bb18e48ff795bd268b8e3d82331d9e48f3f0bb49c6c930b2c9304128ba8ab3fa6be123028bd2faf96245dc2b480b1c81af8dcf2a5a61a",
                    "decodedMethod": {
                        "callParams": [
                            {
                                "name": "hash",
                                "type": "bytes32",
                                "value": "0x9848c7205d6708d53039bf025d8e88832ddf2639a94393d5420321d97c5a86bd"
                            },
                            {
                                "name": "v",
                                "type": "uint256",
                                "value": "27"
                            },
                            {
                                "name": "r",
                                "type": "bytes32",
                                "value": "0xf0439fc3e8e60886fb7bb18e48ff795bd268b8e3d82331d9e48f3f0bb49c6c93"
                            },
                            {
                                "name": "s",
                                "type": "bytes32",
                                "value": "0x0b2c9304128ba8ab3fa6be123028bd2faf96245dc2b480b1c81af8dcf2a5a61a"
                            }
                        ],
                        "constructorArguments": "",
                        "name": "ecrecover",
                        "returnParams": [
                            {
                                "name": "",
                                "type": "address",
                                "value": "0x5863a2e344da593fb7ff670c98fddcc9a34fa81e"
                            }
                        ],
                        "signature": "ecrecover(bytes32,uint256,bytes32,bytes32)"
                    },
                    "errorInfo": "",
                    "fromAddress": "0x2a0c0dbecc7e4d658f48e01e3fa353f44050c208",
                    "gasUsed": 3000,
                    "id": 2,
                    "methodDecoded": true,
                    "operation": "CALL",
                    "output": "0x0000000000000000000000005863a2e344da593fb7ff670c98fddcc9a34fa81e",
                    "revert": false,
                    "revertMessage": "",
                    "selector": "0x9848c720",
                    "status": true,
                    "value": "0"
                },
                "nodeType": 0
            }
        },
        "gasFlame": [
            {
                "children": [
                    {
                        "children": [
                            {
                                "children": [],
                                "depth": 0,
                                "name": "Initial Gas",
                                "value": 38488
                            },
                            {
                                "children": [
                                    {
                                        "children": [],
                                        "depth": 1,
                                        "name": "ecrecover",
                                        "value": 3000
                                    },
                                    {
                                        "children": [],
                                        "depth": 1,
                                        "name": "ecrecover",
                                        "value": 3000
                                    }
                                ],
                                "depth": 0,
                                "name": "Executed Gas",
                                "value": 104284
                            }
                        ],
                        "depth": -1,
                        "name": "Actual Gas Used",
                        "value": 142772
                    },
                    {
                        "children": [],
                        "depth": -1,
                        "name": "Refunded Gas",
                        "value": 0
                    }
                ],
                "depth": -2,
                "name": "Total Gas",
                "value": 142772
            }
        ],
        "isConfirmed": true,
        "mainTrace": [
            {
                "children": [
                    {
                        "children": [
                            {
                                "children": [],
                                "depth": 1,
                                "id": 1,
                                "order": 1
                            },
                            {
                                "children": [],
                                "depth": 1,
                                "id": 2,
                                "order": 2
                            }
                        ],
                        "depth": 0,
                        "id": 0,
                        "order": 0
                    }
                ],
                "depth": -1,
                "id": -1,
                "order": -1
            }
        ],
        "mainTraceNodeCount": 3,
        "parentIdMap": {
            "0": -1,
            "1": 0,
            "2": 0
        },
        "tidyTrace": [
            {
                "children": [
                    {
                        "children": [
                            {
                                "children": [],
                                "depth": 1,
                                "id": 1,
                                "order": 1
                            },
                            {
                                "children": [],
                                "depth": 1,
                                "id": 2,
                                "order": 2
                            }
                        ],
                        "depth": 0,
                        "id": 0,
                        "order": 0
                    }
                ],
                "depth": -1,
                "id": -1,
                "order": -1
            }
        ],
        "tidyTraceNodeCount": 3
    },
    "state_change": {
        "stateChanges": [
            {
                "address": "0x2a0c0dbecc7e4d658f48e01e3fa353f44050c208",
                "erc": "",
                "slots": [
                    {
                        "current": "0x0000000000000000000000000000000000000000000001c9fa0b93ca7de41fbc",
                        "key": "0xc3ebff5477595ad4a6426a479f976724488720c3875b76a47a121807d216d130",
                        "prev": "0x0000000000000000000000000000000000000000000001c9ba7577e9e6866658"
                    },
                    {
                        "current": "0x00000000000000000000000000000000000000000000000000000000007af2eb",
                        "key": "0x3e2ca228ce016395661063594da5567ce0caff06e0d3000f5ca5a13fc17de928",
                        "prev": "0x00000000000000000000000000000000000000000000000000000000007af2df"
                    },
                    {
                        "current": "0x00000000000000000000000000000000000000000000000000d51dbaf1eeeba3",
                        "key": "0x151c81471dc9421ba3a3ee39f1fb309390c6ab69bd6070b14926168802481126",
                        "prev": "0x0000000000000000000000000000000000000000000000000000000000000000"
                    },
                    {
                        "current": "0x00000000000000000000000000000000000000000000000000000000007af2eb",
                        "key": "0x4e7a8405d0399775d0289cf922f1979a948994fcdb1f2b122b4d2e4edafe861d",
                        "prev": "0x00000000000000000000000000000000000000000000000000000000007aee3d"
                    },
                    {
                        "current": "0x000000000000000000000000000000000000000000000116e8d29b574e4d890b",
                        "key": "0x9b060f853fc2c7306808baa27a648683c18b3474183d95806a1600fc0b78d15f",
                        "prev": "0x000000000000000000000000000000000000000000000128c685fc0c98862e24"
                    },
                    {
                        "current": "0x0000000000000000000000000000000000000000000000000e27d08c337d145d",
                        "key": "0x26b3c5a42654b524354f1232619ccf45b8912c32d13a07170403d76408e480c0",
                        "prev": "0x0000000000000000000000000000000000000000000000000efcee47256c0000"
                    },
                    {
                        "current": "0x000000000000000000000000000000000000000000000000018497f6b383e745",
                        "key": "0xd581315c15319126c4ef6dec55f1589787f90e3f217b6d93d41e72c8e855c413",
                        "prev": "0x00000000000000000000000000000000000000000000000000afb0ca88fded06"
                    },
                    {
                        "current": "0x000000000000000000000000000000000000000000000008c04a85f4143778c8",
                        "key": "0x3ccb72d91c5c66cba135a4135963ed23443b8a63817f501517468fcd5097e277",
                        "prev": "0x000000000000000000000000000000000000000000000008c04a4f654cce8765"
                    },
                    {
                        "current": "0x0000000000000000000000000000000000000000000000207bbca249e470b0c9",
                        "key": "0xf3971e0fd79220cebb729d6b8f98b75c23860eb3db562a3f9c52efb967604144",
                        "prev": "0x00000000000000000000000000000000000000000000000edd9f5d753195c514"
                    },
                    {
                        "current": "0x0000000000000000000000000000000000000000000000000000000000000001",
                        "key": "0xbc1802d20c6da157f2e53d147713b52106e0ca61d93fe4c02409d1eca2427a0f",
                        "prev": "0x0000000000000000000000000000000000000000000000000000000000000000"
                    }
                ],
                "storageVariables": [
                    {
                        "name": "tokens",
                        "type": "mapping(address => mapping(address => uint256))",
                        "value": {
                            "pairs": [
                                {
                                    "key": "0x0000000000000000000000000000000000000000",
                                    "value": {
                                        "pairs": [
                                            {
                                                "key": "0x034767f3c519f361c5ecf46ebfc08981c629d381",
                                                "value": {
                                                    "current": "161429987076592859336",
                                                    "prev": "161429927089734059877",
                                                    "typeTag": 1
                                                }
                                            },
                                            {
                                                "key": "0x5863a2e344da593fb7ff670c98fddcc9a34fa81e",
                                                "value": {
                                                    "current": "1020013141200540765",
                                                    "prev": "1080000000000000000",
                                                    "typeTag": 1
                                                }
                                            },
                                            {
                                                "key": "0xcc5d6c7a2095033e606023ee89b65dd0ecdf929c",
                                                "value": {
                                                    "current": "109379376793249605",
                                                    "prev": "49452504852589830",
                                                    "typeTag": 1
                                                }
                                            }
                                        ],
                                        "typeTag": 4
                                    }
                                },
                                {
                                    "key": "0xb705268213d593b8fd88d3fdeff93aff5cbdcfae",
                                    "value": {
                                        "pairs": [
                                            {
                                                "key": "0x034767f3c519f361c5ecf46ebfc08981c629d381",
                                                "value": {
                                                    "current": "8448179698917395668924",
                                                    "prev": "8443597818595073484376",
                                                    "typeTag": 1
                                                }
                                            },
                                            {
                                                "key": "0x5863a2e344da593fb7ff670c98fddcc9a34fa81e",
                                                "value": {
                                                    "current": "599211990159241294025",
                                                    "prev": "274224002593537246484",
                                                    "typeTag": 1
                                                }
                                            },
                                            {
                                                "key": "0xcc5d6c7a2095033e606023ee89b65dd0ecdf929c",
                                                "value": {
                                                    "current": "5144971494852442032395",
                                                    "prev": "5474541362740468264484",
                                                    "typeTag": 1
                                                }
                                            }
                                        ],
                                        "typeTag": 4
                                    }
                                }
                            ],
                            "typeTag": 4
                        }
                    },
                    {
                        "name": "orderFills",
                        "type": "mapping(bytes32 => uint256)",
                        "value": {
                            "pairs": [
                                {
                                    "key": "0x34eb48fd9fd389beb4711b581daa577192815548e78f9084e15e874850a9fe0a",
                                    "value": {
                                        "current": "59986858799459235",
                                        "prev": "0",
                                        "typeTag": 1
                                    }
                                }
                            ],
                            "typeTag": 4
                        }
                    },
                    {
                        "name": "lastActiveTransaction",
                        "type": "mapping(address => uint256)",
                        "value": {
                            "pairs": [
                                {
                                    "key": "0x5863a2e344da593fb7ff670c98fddcc9a34fa81e",
                                    "value": {
                                        "current": "8057579",
                                        "prev": "8057567",
                                        "typeTag": 1
                                    }
                                },
                                {
                                    "key": "0xcc5d6c7a2095033e606023ee89b65dd0ecdf929c",
                                    "value": {
                                        "current": "8057579",
                                        "prev": "8056381",
                                        "typeTag": 1
                                    }
                                }
                            ],
                            "typeTag": 4
                        }
                    },
                    {
                        "name": "traded",
                        "type": "mapping(bytes32 => bool)",
                        "value": {
                            "pairs": [
                                {
                                    "key": "0xc2e5c230c50c3d32abff584da243ca479462323e3febba46b9132defc4a9bcc1",
                                    "value": {
                                        "current": "true",
                                        "prev": "false",
                                        "typeTag": 1
                                    }
                                }
                            ],
                            "typeTag": 4
                        }
                    }
                ]
            }
        ]
    }
}