{
    "balance_change": {
        "balanceChanges": []
    },
    "profile": {
        "basic_info": {
            "baseFee": "110.632972899",
            "blockNumber": 14119004,
            "callData": "0x99a88ec400000000000000000000000022f485d0e314e9e38b16da4f2992ad4cbf7585be0000000000000000000000005678864d7f05799f45982d542ea4f676dac7ef17",
            "debugEnable": true,
            "errorInfo": "",
            "eventCount": 1,
            "feeRecipient": "0x52bc44d5378309ee2abf1539bf71de1b7d7be3b5",
            "formatValue": "0",
            "gasLimit": 57856,
            "gasPrice": "111.632972899",
            "gasUsed": 38437,
            "intTxnCount": 1,
            "internalRevert": false,
            "internalRevertMessage": "",
            "isContractCreation": false,
            "isFlashloan": false,
            "maxFee": "175.853764066",
            "nonce": 193,
            "overwritedBlockNumber": -1,
            "priorityFee": "1",
            "receiver": "0xee913f6f0016db2929a0b2061a38f1461ef93477",
            "revertMessage": "",
            "sender": "0x33459acd9ca8493c0e0163eac92a928e293b2218",
            "simulationEnable": true,
            "sourceTxnHash": "0x9edb86139940251a162e2c5c077b79dacb8a047aa3c3897958fd734287f0ab92",
            "status": true,
            "timestamp": "2022-02-01T08:11:57Z",
            "transactionFee": "0.004290836579318863",
            "txnHash": "0x9edb86139940251a162e2c5c077b79dacb8a047aa3c3897958fd734287f0ab92",
            "txnIndex": 56,
            "type": 2,
            "value": "0"
        },
        "fund_flow": [],
        "token_infos": [
            {
                "address": "0xc02aaa39b223fe8d0a0e5c4f27ead9083c756cc2",
                "decimals": 18
            },
            {
                "address": "0xeeeeeeeeeeeeeeeeeeeeeeeeeeeeeeeeeeeeeeee",
                "decimals": 18
            }
        ]
    },
    "address_label": {
        "labels": [
            {
                "address": "0xee913f6f0016db2929a0b2061a38f1461ef93477",
                "label": "ProxyAdmin"
            },
            {
                "address": "0x0000000000000000000000000000000000000001",
                "label": "Precompiled"
            },
            {
                "address": "0x0000000000000000000000000000000000000002",
                "label": "Precompiled"
            },
            {
                "address": "0x0000000000000000000000000000000000000004",
                "label": "Precompiled"
            },
            {
                "address": "0x33459acd9ca8493c0e0163eac92a928e293b2218",
                "label": "Orion Protocol: Deployer 2"
            },
            {
                "address": "0x22f485d0e314e9e38b16da4f2992ad4cbf7585be",
                "label": "AdminUpgradeabilityProxy_22f4_85be"
            },
            {
                "address": "0x5678864d7f05799f45982d542ea4f676dac7ef17",
                "label": "ExchangeWithAtomic"
            },
            {
                "address": "0x0000000000000000000000000000000000000003",
                "label": "Precompiled"
            },
            {
                "address": "0xeeeeeeeeeeeeeeeeeeeeeeeeeeeeeeeeeeeeeeee",
                "label": "Ether"
            }
        ]
    },
    "trace": {
        "accountLabels": null,
        "dataMap": {
            "-1": {
                "invocation": {
                    "address": "0x33459acd9ca8493c0e0163eac92a928e293b2218",
                    "callData": "",
                    "decodedMethod": null,
                    "errorInfo": "",
                    "fromAddress": "",
                    "gasUsed": 0,
                    "id": -1,
                    "methodDecoded": false,
                    "operation": "",
                    "output": "",
                    "revert": false,
                    "revertMessage": "",
                    "selector": "",
                    "status": false,
                    "value": ""
                },
                "nodeType": 0
            },
            "0": {
                "invocation": {
                    "address": "0xee913f6f0016db2929a0b2061a38f1461ef93477",
                    "callData": "0x00000000000000000000000022f485d0e314e9e38b16da4f2992ad4cbf7585be0000000000000000000000005678864d7f05799f45982d542ea4f676dac7ef17",
                    "decodedMethod": {
                        "callParams": [
                            {
                                "name": "proxy",
                                "type": "address",
                                "value": "0x22f485d0e314e9e38b16da4f2992ad4cbf7585be"
                            },
                            {
                                "name": "implementation",
                                "type": "address",
                                "value": "0x5678864d7f05799f45982d542ea4f676dac7ef17"
                            }
                        ],
                        "constructorArguments": "",
                        "name": "upgrade",
                        "returnParams": [],
                        "signature": "upgrade(address,address)"
                    },
                    "errorInfo": "",
                    "fromAddress": "0x33459acd9ca8493c0e0163eac92a928e293b2218",
                    "gasUsed": 38437,
                    "id": 0,
                    "methodDecoded": true,
                    "operation": "CALL",
                    "output": "",
                    "revert": false,
                    "revertMessage": "",
                    "selector": "0x99a88ec4",
                    "status": true,
                    "value": "0"
                },
                "nodeType": 0
            },
            "1": {
                "invocation": {
                    "address": "0x22f485d0e314e9e38b16da4f2992ad4cbf7585be",
                    "callData": "0x0000000000000000000000005678864d7f05799f45982d542ea4f676dac7ef17",
                    "decodedMethod": {
                        "callParams": [
                            {
                                "name": "newImplementation",
                                "type": "address",
                                "value": "0x5678864d7f05799f45982d542ea4f676dac7ef17"
                            }
                        ],
                        "constructorArguments": "",
                        "name": "upgradeTo",
                        "returnParams": [],
                        "signature": "upgradeTo(address)"
                    },
                    "errorInfo": "",
                    "fromAddress": "0xee913f6f0016db2929a0b2061a38f1461ef93477",
                    "gasUsed": 11259,
                    "id": 1,
                    "methodDecoded": true,
                    "operation": "CALL",
                    "output": "",
                    "revert": false,
                    "revertMessage": "",
                    "selector": "0x3659cfe6",
                    "status": true,
                    "value": "0"
                },
                "nodeType": 0
            },
            "2": {
                "event": {
                    "contract": "0x22f485d0e314e9e38b16da4f2992ad4cbf7585be",
                    "decodedLog": {
                        "name": "Upgraded",
                        "params": [
                            {
                                "name": "implementation",
                                "type": "address",
                                "value": "0x5678864d7f05799f45982d542ea4f676dac7ef17"
                            }
                        ],
                        "signature": "Upgraded(address)"
                    },
                    "id": 2,
                    "logData": "0x",
                    "logDecoded": true,
                    "operation": "EVENT",
                    "revert": false,
                    "status": true,
                    "topics": [
                        "0xbc7cd75a20ee27fd9adebab32041f755214dbc6bffa90cc0225b39da2e5c2d3b",
                        "0x0000000000000000000000005678864d7f05799f45982d542ea4f676dac7ef17"
                    ]
                },
                "nodeType": 1
            }
        },
        "gasFlame": [
            {
                "children": [
                    {
                        "children": [
                            {
                                "children": [],
                                "depth": 0,
                                "name": "Initial Gas",
                                "value": 21800
                            },
                            {
                                "children": [
                                    {
                                        "children": [],
                                        "depth": 1,
                                        "name": "upgradeTo",
                                        "value": 11259
                                    }
                                ],
                                "depth": 0,
                                "name": "Executed Gas",
                                "value": 16637
                            }
                        ],
                        "depth": -1,
                        "name": "Actual Gas Used",
                        "value": 38437
                    },
                    {
                        "children": [],
                        "depth": -1,
                        "name": "Refunded Gas",
                        "value": 0
                    }
                ],
                "depth": -2,
                "name": "Total Gas",
                "value": 38437
            }
        ],
        "isConfirmed": true,
        "mainTrace": [
            {
                "children": [
                    {
                        "children": [
                            {
                                "children": [
                                    {
                                        "children": [],
                                        "depth": 2,
                                        "id": 2,
                                        "order": 2
                                    }
                                ],
                                "depth": 1,
                                "id": 1,
                                "order": 1
                            }
                        ],
                        "depth": 0,
                        "id": 0,
                        "order": 0
                    }
                ],
                "depth": -1,
                "id": -1,
                "order": -1
            }
        ],
        "mainTraceNodeCount": 3,
        "parentIdMap": {
            "0": -1,
            "1": 0,
            "2": 1
        },
        "tidyTrace": [
            {
                "children": [
                    {
                        "children": [
                            {
                                "children": [
                                    {
                                        "children": [],
                                        "depth": 2,
                                        "id": 2,
                                        "order": 2
                                    }
                                ],
                                "depth": 1,
                                "id": 1,
                                "order": 1
                            }
                        ],
                        "depth": 0,
                        "id": 0,
                        "order": 0
                    }
                ],
                "depth": -1,
                "id": -1,
                "order": -1
            }
        ],
        "tidyTraceNodeCount": 3
    },
    "state_change": {
        "stateChanges": [
            {
                "address": "0x22f485d0e314e9e38b16da4f2992ad4cbf7585be",
                "erc": "",
                "slots": [
                    {
                        "current": "0x0000000000000000000000005678864d7f05799f45982d542ea4f676dac7ef17",
                        "key": "0x360894a13ba1a3210667c828492db98dca3e2076cc3735a920a3ca505d382bbc",
                        "prev": "0x00000000000000000000000023221abb15082142838c925ea9930e7e35fdb8ce"
                    }
                ],
                "storageVariables": [
                    {
                        "name": "logic contract address(EIP1967)",
                        "type": "address",
                        "value": {
                            "current": "0x5678864d7f05799f45982d542ea4f676dac7ef17",
                            "prev": "0x23221abb15082142838c925ea9930e7e35fdb8ce",
                            "typeTag": 1
                        }
                    }
                ]
            }
        ]
    }
}