{
    "balance_change": {
        "balanceChanges": [
            {
                "account": "0x52cd272ac1724bdcc721b8770d7867fa871f5f3f",
                "assets": [
                    {
                        "address": "0x3bff697e966b77cb4f0e32815dd020b09750b22d",
                        "amount": "2,318.46",
                        "iconUrl": "",
                        "isERC1155": false,
                        "isERC721": false,
                        "sign": false,
                        "value": ""
                    }
                ]
            },
            {
                "account": "0x0a4b7fb162eb5cef247822b987987120bda29c28",
                "assets": [
                    {
                        "address": "0x3bff697e966b77cb4f0e32815dd020b09750b22d",
                        "amount": "2,318.46",
                        "iconUrl": "",
                        "isERC1155": false,
                        "isERC721": false,
                        "sign": true,
                        "value": ""
                    }
                ]
            }
        ]
    },
    "profile": {
        "basic_info": {
            "baseFee": "",
            "blockNumber": 8026294,
            "callData": "0xa9059cbb0000000000000000000000000a4b7fb162eb5cef247822b987987120bda29c2800000000000000000000000000000000000000000000007daf188e45c0260000",
            "debugEnable": true,
            "errorInfo": "",
            "eventCount": 1,
            "feeRecipient": "0x5a0b54d5dc17e0aadc383d2db43b0a0d3e029c4c",
            "formatValue": "0",
            "gasLimit": 60000,
            "gasPrice": "20",
            "gasUsed": 23800,
            "intTxnCount": 0,
            "internalRevert": false,
            "internalRevertMessage": "",
            "isContractCreation": false,
            "isFlashloan": false,
            "maxFee": "",
            "nonce": 1,
            "overwritedBlockNumber": -1,
            "priorityFee": "",
            "receiver": "0x3bff697e966b77cb4f0e32815dd020b09750b22d",
            "revertMessage": "",
            "sender": "0x52cd272ac1724bdcc721b8770d7867fa871f5f3f",
            "simulationEnable": true,
            "sourceTxnHash": "0x9e3b282fae2a6c53016c1cca3664b9136ce49d5804766c1038696a1fc93a0dc4",
            "status": true,
            "timestamp": "2019-06-25T09:24:01Z",
            "transactionFee": "0.000476",
            "txnHash": "0x9e3b282fae2a6c53016c1cca3664b9136ce49d5804766c1038696a1fc93a0dc4",
            "txnIndex": 181,
            "type": 0,
            "value": "0"
        },
        "fund_flow": [
            {
                "amount": "2,318.46",
                "from": "0x52cd272ac1724bdcc721b8770d7867fa871f5f3f",
                "id": 1,
                "isERC1155": false,
                "isERC721": false,
                "isReverted": false,
                "order": 1,
                "to": "0x0a4b7fb162eb5cef247822b987987120bda29c28",
                "token": "0x3bff697e966b77cb4f0e32815dd020b09750b22d"
            }
        ],
        "token_infos": [
            {
                "address": "0x3bff697e966b77cb4f0e32815dd020b09750b22d",
                "decimals": 18
            },
            {
                "address": "0xc02aaa39b223fe8d0a0e5c4f27ead9083c756cc2",
                "decimals": 18
            },
            {
                "address": "0xeeeeeeeeeeeeeeeeeeeeeeeeeeeeeeeeeeeeeeee",
                "decimals": 18
            }
        ]
    },
    "address_label": {
        "labels": [
            {
                "address": "0xeeeeeeeeeeeeeeeeeeeeeeeeeeeeeeeeeeeeeeee",
                "label": "Ether"
            },
            {
                "address": "0x3bff697e966b77cb4f0e32815dd020b09750b22d",
                "label": "KeslaChain (KEC)"
            },
            {
                "address": "0x0000000000000000000000000000000000000001",
                "label": "Precompiled"
            },
            {
                "address": "0x0000000000000000000000000000000000000002",
                "label": "Precompiled"
            },
            {
                "address": "0x0000000000000000000000000000000000000003",
                "label": "Precompiled"
            },
            {
                "address": "0x0000000000000000000000000000000000000004",
                "label": "Precompiled"
            }
        ]
    },
    "trace": {
        "accountLabels": null,
        "dataMap": {
            "-1": {
                "invocation": {
                    "address": "0x52cd272ac1724bdcc721b8770d7867fa871f5f3f",
                    "callData": "",
                    "decodedMethod": null,
                    "errorInfo": "",
                    "fromAddress": "",
                    "gasUsed": 0,
                    "id": -1,
                    "methodDecoded": false,
                    "operation": "",
                    "output": "",
                    "revert": false,
                    "revertMessage": "",
                    "selector": "",
                    "status": false,
                    "value": ""
                },
                "nodeType": 0
            },
            "0": {
                "invocation": {
                    "address": "0x3bff697e966b77cb4f0e32815dd020b09750b22d",
                    "callData": "0x0000000000000000000000000a4b7fb162eb5cef247822b987987120bda29c2800000000000000000000000000000000000000000000007daf188e45c0260000",
                    "decodedMethod": {
                        "callParams": [
                            {
                                "name": "_to",
                                "type": "address",
                                "value": "0x0a4b7fb162eb5cef247822b987987120bda29c28"
                            },
                            {
                                "decimalAvailable": true,
                                "name": "_value",
                                "type": "uint256",
                                "value": "2,318,460,000,000,000,000,000"
                            }
                        ],
                        "constructorArguments": "",
                        "name": "transfer",
                        "returnParams": [
                            {
                                "name": "success",
                                "type": "bool",
                                "value": true
                            }
                        ],
                        "signature": "transfer(address,uint256)"
                    },
                    "errorInfo": "",
                    "fromAddress": "0x52cd272ac1724bdcc721b8770d7867fa871f5f3f",
                    "gasUsed": 23800,
                    "id": 0,
                    "methodDecoded": true,
                    "operation": "CALL",
                    "output": "0x0000000000000000000000000000000000000000000000000000000000000001",
                    "revert": false,
                    "revertMessage": "",
                    "selector": "0xa9059cbb",
                    "status": true,
                    "value": "0"
                },
                "nodeType": 0
            },
            "1": {
                "event": {
                    "contract": "0x3bff697e966b77cb4f0e32815dd020b09750b22d",
                    "decodedLog": {
                        "name": "Transfer",
                        "params": [
                            {
                                "name": "_from",
                                "type": "address",
                                "value": "0x52cd272ac1724bdcc721b8770d7867fa871f5f3f"
                            },
                            {
                                "name": "_to",
                                "type": "address",
                                "value": "0x0a4b7fb162eb5cef247822b987987120bda29c28"
                            },
                            {
                                "decimalAvailable": true,
                                "name": "_value",
                                "type": "uint256",
                                "value": "2,318,460,000,000,000,000,000"
                            }
                        ],
                        "signature": "Transfer(address,address,uint256)"
                    },
                    "id": 1,
                    "logData": "0x00000000000000000000000000000000000000000000007daf188e45c0260000",
                    "logDecoded": true,
                    "operation": "EVENT",
                    "revert": false,
                    "status": true,
                    "topics": [
                        "0xddf252ad1be2c89b69c2b068fc378daa952ba7f163c4a11628f55a4df523b3ef",
                        "0x00000000000000000000000052cd272ac1724bdcc721b8770d7867fa871f5f3f",
                        "0x0000000000000000000000000a4b7fb162eb5cef247822b987987120bda29c28"
                    ]
                },
                "nodeType": 1
            }
        },
        "gasFlame": [
            {
                "children": [
                    {
                        "children": [
                            {
                                "children": [],
                                "depth": 0,
                                "name": "Initial Gas",
                                "value": 23256
                            },
                            {
                                "children": [],
                                "depth": 0,
                                "name": "Executed Gas",
                                "value": 15544
                            }
                        ],
                        "depth": -1,
                        "name": "Actual Gas Used",
                        "value": 23800
                    },
                    {
                        "children": [],
                        "depth": -1,
                        "name": "Refunded Gas",
                        "value": 15000
                    }
                ],
                "depth": -2,
                "name": "Total Gas",
                "value": 38800
            }
        ],
        "isConfirmed": true,
        "mainTrace": [
            {
                "children": [
                    {
                        "children": [
                            {
                                "children": [],
                                "depth": 1,
                                "id": 1,
                                "order": 1
                            }
                        ],
                        "depth": 0,
                        "id": 0,
                        "order": 0
                    }
                ],
                "depth": -1,
                "id": -1,
                "order": -1
            }
        ],
        "mainTraceNodeCount": 2,
        "parentIdMap": {
            "0": -1,
            "1": 0
        },
        "tidyTrace": [
            {
                "children": [
                    {
                        "children": [
                            {
                                "children": [],
                                "depth": 1,
                                "id": 1,
                                "order": 1
                            }
                        ],
                        "depth": 0,
                        "id": 0,
                        "order": 0
                    }
                ],
                "depth": -1,
                "id": -1,
                "order": -1
            }
        ],
        "tidyTraceNodeCount": 2
    },
    "state_change": {
        "stateChanges": [
            {
                "address": "0x3bff697e966b77cb4f0e32815dd020b09750b22d",
                "erc": "ERC-20",
                "slots": [
                    {
                        "current": "0x0000000000000000000000000000000000000000000000000000000000000000",
                        "key": "0x61b9e8b12d2dc439fa601c300c5017bfdec6e1a21c689f55d3568a4d835037f7",
                        "prev": "0x00000000000000000000000000000000000000000000007daf188e45c0260000"
                    },
                    {
                        "current": "0x0000000000000000000000000000000000000000000005ff02bee4aaca2b0000",
                        "key": "0xae1d47dcbd5e5f848d60152fbd8e6ad3e294ffe71f656db9d1e34aef9f3cd2ce",
                        "prev": "0x00000000000000000000000000000000000000000000058153a656650a050000"
                    }
                ],
                "storageVariables": [
                    {
                        "name": "balances",
                        "type": "mapping(address => uint256)",
                        "value": {
                            "pairs": [
                                {
                                    "key": "0x0a4b7fb162eb5cef247822b987987120bda29c28",
                                    "value": {
                                        "current": "28315950000000000000000",
                                        "prev": "25997490000000000000000",
                                        "typeTag": 1
                                    }
                                },
                                {
                                    "key": "0x52cd272ac1724bdcc721b8770d7867fa871f5f3f",
                                    "value": {
                                        "current": "0",
                                        "prev": "2318460000000000000000",
                                        "typeTag": 1
                                    }
                                }
                            ],
                            "typeTag": 4
                        }
                    }
                ]
            }
        ]
    }
}