{
    "balance_change": {
        "balanceChanges": [
            {
                "account": "0x5f3e759d09e1059e4c46d6984f07cbb36a73bdf1",
                "assets": [
                    {
                        "address": "0xc02aaa39b223fe8d0a0e5c4f27ead9083c756cc2",
                        "amount": "9.5387",
                        "iconUrl": "https://assets.blocksec.com/icon/f1cb2d02c471d545bbc7722daf3277fd852d98e63d118771af7047bd8256c516.png",
                        "isERC1155": false,
                        "isERC721": false,
                        "sign": false,
                        "value": "3305.922646"
                    },
                    {
                        "address": "0xf4cd3d3fda8d7fd6c5a500203e38640a70bf9577",
                        "amount": "7.228674398147184705",
                        "iconUrl": "",
                        "isERC1155": false,
                        "isERC721": false,
                        "sign": true,
                        "value": "3161.905497"
                    }
                ]
            },
            {
                "account": "0x84e34df6f8f85f15d24ec8e347d32f1184089a14",
                "assets": [
                    {
                        "address": "0xc02aaa39b223fe8d0a0e5c4f27ead9083c756cc2",
                        "amount": "9.5387",
                        "iconUrl": "https://assets.blocksec.com/icon/f1cb2d02c471d545bbc7722daf3277fd852d98e63d118771af7047bd8256c516.png",
                        "isERC1155": false,
                        "isERC721": false,
                        "sign": true,
                        "value": "3305.922646"
                    },
                    {
                        "address": "0xf4cd3d3fda8d7fd6c5a500203e38640a70bf9577",
                        "amount": "7.228674398147184705",
                        "iconUrl": "",
                        "isERC1155": false,
                        "isERC721": false,
                        "sign": false,
                        "value": "3161.905497"
                    }
                ]
            }
        ]
    },
    "profile": {
        "basic_info": {
            "baseFee": "",
            "blockNumber": 10981373,
            "callData": "0xc21e369a00000000000000008460451c9f04c000000000000000000064516910e286084100000000000000000000000184e34df6f8f85f15d24ec8e347d32f1184089a14",
            "debugEnable": true,
            "errorInfo": "",
            "eventCount": 4,
            "feeRecipient": "0x04668ec2f57cc15c381b461b9fedab5d451c8f7f",
            "formatValue": "0",
            "gasLimit": 250000,
            "gasPrice": "176.15734747",
            "gasUsed": 98699,
            "intTxnCount": 6,
            "internalRevert": false,
            "internalRevertMessage": "",
            "isContractCreation": false,
            "isFlashloan": false,
            "maxFee": "",
            "nonce": 9712,
            "overwritedBlockNumber": -1,
            "priorityFee": "",
            "receiver": "0x5f3e759d09e1059e4c46d6984f07cbb36a73bdf1",
            "revertMessage": "",
            "sender": "0x17ab75b3bd6b9872fe8d021d6d72bab32f91aaef",
            "simulationEnable": true,
            "sourceTxnHash": "0x9f51efe0f5756054df65380eb53965e23903c240446903e563f8ad08a68c20b7",
            "status": true,
            "timestamp": "2020-10-03T06:33:54Z",
            "transactionFee": "0.01738655403794153",
            "txnHash": "0x9f51efe0f5756054df65380eb53965e23903c240446903e563f8ad08a68c20b7",
            "txnIndex": 0,
            "type": 0,
            "value": "0"
        },
        "fund_flow": [
            {
                "amount": "9.5387",
                "from": "0x5f3e759d09e1059e4c46d6984f07cbb36a73bdf1",
                "id": 1,
                "isERC1155": false,
                "isERC721": false,
                "isReverted": false,
                "order": 1,
                "to": "0x84e34df6f8f85f15d24ec8e347d32f1184089a14",
                "token": "0xc02aaa39b223fe8d0a0e5c4f27ead9083c756cc2"
            },
            {
                "amount": "7.228674398147184705",
                "from": "0x84e34df6f8f85f15d24ec8e347d32f1184089a14",
                "id": 2,
                "isERC1155": false,
                "isERC721": false,
                "isReverted": false,
                "order": 2,
                "to": "0x5f3e759d09e1059e4c46d6984f07cbb36a73bdf1",
                "token": "0xf4cd3d3fda8d7fd6c5a500203e38640a70bf9577"
            }
        ],
        "token_infos": [
            {
                "address": "0xc02aaa39b223fe8d0a0e5c4f27ead9083c756cc2",
                "decimals": 18
            },
            {
                "address": "0xf4cd3d3fda8d7fd6c5a500203e38640a70bf9577",
                "decimals": 18
            },
            {
                "address": "0xeeeeeeeeeeeeeeeeeeeeeeeeeeeeeeeeeeeeeeee",
                "decimals": 18
            }
        ]
    },
    "address_label": {
        "labels": [
            {
                "address": "0x0000000000000000000000000000000000000002",
                "label": "Precompiled"
            },
            {
                "address": "0x0000000000000000000000000000000000000003",
                "label": "Precompiled"
            },
            {
                "address": "0x0000000000000000000000000000000000000004",
                "label": "Precompiled"
            },
            {
                "address": "0xeeeeeeeeeeeeeeeeeeeeeeeeeeeeeeeeeeeeeeee",
                "label": "Ether"
            },
            {
                "address": "0xc02aaa39b223fe8d0a0e5c4f27ead9083c756cc2",
                "label": "Wrapped Ether (WETH)"
            },
            {
                "address": "0xf4cd3d3fda8d7fd6c5a500203e38640a70bf9577",
                "label": "YFDAI.Finance: Yf-DAI Token"
            },
            {
                "address": "0x84e34df6f8f85f15d24ec8e347d32f1184089a14",
                "label": "Uniswap V2: Yf-DAI"
            },
            {
                "address": "0x0000000000000000000000000000000000000001",
                "label": "Precompiled"
            }
        ]
    },
    "trace": {
        "accountLabels": null,
        "dataMap": {
            "-1": {
                "invocation": {
                    "address": "0x17ab75b3bd6b9872fe8d021d6d72bab32f91aaef",
                    "callData": "",
                    "decodedMethod": null,
                    "errorInfo": "",
                    "fromAddress": "",
                    "gasUsed": 0,
                    "id": -1,
                    "methodDecoded": false,
                    "operation": "",
                    "output": "",
                    "revert": false,
                    "revertMessage": "",
                    "selector": "",
                    "status": false,
                    "value": ""
                },
                "nodeType": 0
            },
            "0": {
                "invocation": {
                    "address": "0x5f3e759d09e1059e4c46d6984f07cbb36a73bdf1",
                    "callData": "0x00000000000000008460451c9f04c000000000000000000064516910e286084100000000000000000000000184e34df6f8f85f15d24ec8e347d32f1184089a14",
                    "decodedMethod": null,
                    "errorInfo": "",
                    "fromAddress": "0x17ab75b3bd6b9872fe8d021d6d72bab32f91aaef",
                    "gasUsed": 98699,
                    "id": 0,
                    "methodDecoded": false,
                    "operation": "CALL",
                    "output": "",
                    "revert": false,
                    "revertMessage": "",
                    "selector": "0xc21e369a",
                    "status": true,
                    "value": "0"
                },
                "nodeType": 0
            },
            "1": {
                "invocation": {
                    "address": "0x84e34df6f8f85f15d24ec8e347d32f1184089a14",
                    "callData": "0x",
                    "decodedMethod": {
                        "callParams": [],
                        "constructorArguments": "",
                        "name": "getReserves",
                        "returnParams": [
                            {
                                "name": "_reserve0",
                                "type": "uint112",
                                "value": "483,448,211,747,744,405,954"
                            },
                            {
                                "name": "_reserve1",
                                "type": "uint112",
                                "value": "374,700,691,242,389,642,337"
                            },
                            {
                                "name": "_blockTimestampLast",
                                "type": "uint32",
                                "value": "1,601,706,702"
                            }
                        ],
                        "signature": "getReserves()"
                    },
                    "errorInfo": "",
                    "fromAddress": "0x5f3e759d09e1059e4c46d6984f07cbb36a73bdf1",
                    "gasUsed": 1204,
                    "id": 1,
                    "methodDecoded": true,
                    "operation": "CALL",
                    "output": "0x00000000000000000000000000000000000000000000001a3531132a8a2259c20000000000000000000000000000000000000000000000145004456f83f49c61000000000000000000000000000000000000000000000000000000005f781ace",
                    "revert": false,
                    "revertMessage": "",
                    "selector": "0x0902f1ac",
                    "status": true,
                    "value": "0"
                },
                "nodeType": 0
            },
            "10": {
                "event": {
                    "contract": "0x84e34df6f8f85f15d24ec8e347d32f1184089a14",
                    "decodedLog": {
                        "name": "Swap",
                        "params": [
                            {
                                "name": "sender",
                                "type": "address",
                                "value": "0x5f3e759d09e1059e4c46d6984f07cbb36a73bdf1"
                            },
                            {
                                "name": "to",
                                "type": "address",
                                "value": "0x5f3e759d09e1059e4c46d6984f07cbb36a73bdf1"
                            },
                            {
                                "name": "amount0In",
                                "type": "uint256",
                                "value": "9,538,700,000,000,000,000"
                            },
                            {
                                "name": "amount1In",
                                "type": "uint256",
                                "value": "0"
                            },
                            {
                                "name": "amount0Out",
                                "type": "uint256",
                                "value": "0"
                            },
                            {
                                "name": "amount1Out",
                                "type": "uint256",
                                "value": "7,228,674,398,147,184,705"
                            }
                        ],
                        "signature": "Swap(address,uint256,uint256,uint256,uint256,address)"
                    },
                    "id": 10,
                    "logData": "0x0000000000000000000000000000000000000000000000008460451c9f04c0000000000000000000000000000000000000000000000000000000000000000000000000000000000000000000000000000000000000000000000000000000000000000000000000000000000000000000000000000000000064516910e2860841",
                    "logDecoded": true,
                    "operation": "EVENT",
                    "revert": false,
                    "status": true,
                    "topics": [
                        "0xd78ad95fa46c994b6551d0da85fc275fe613ce37657fb8d5e3d130840159d822",
                        "0x0000000000000000000000005f3e759d09e1059e4c46d6984f07cbb36a73bdf1",
                        "0x0000000000000000000000005f3e759d09e1059e4c46d6984f07cbb36a73bdf1"
                    ]
                },
                "nodeType": 1
            },
            "2": {
                "invocation": {
                    "address": "0xc02aaa39b223fe8d0a0e5c4f27ead9083c756cc2",
                    "callData": "0x00000000000000000000000084e34df6f8f85f15d24ec8e347d32f1184089a140000000000000000000000000000000000000000000000008460451c9f04c000",
                    "decodedMethod": {
                        "callParams": [
                            {
                                "name": "dst",
                                "type": "address",
                                "value": "0x84e34df6f8f85f15d24ec8e347d32f1184089a14"
                            },
                            {
                                "decimalAvailable": true,
                                "name": "wad",
                                "type": "uint256",
                                "value": "9,538,700,000,000,000,000"
                            }
                        ],
                        "constructorArguments": "",
                        "name": "transfer",
                        "returnParams": [
                            {
                                "name": "",
                                "type": "bool",
                                "value": true
                            }
                        ],
                        "signature": "transfer(address,uint256)"
                    },
                    "errorInfo": "",
                    "fromAddress": "0x5f3e759d09e1059e4c46d6984f07cbb36a73bdf1",
                    "gasUsed": 15162,
                    "id": 2,
                    "methodDecoded": true,
                    "operation": "CALL",
                    "output": "0x0000000000000000000000000000000000000000000000000000000000000001",
                    "revert": false,
                    "revertMessage": "",
                    "selector": "0xa9059cbb",
                    "status": true,
                    "value": "0"
                },
                "nodeType": 0
            },
            "3": {
                "event": {
                    "contract": "0xc02aaa39b223fe8d0a0e5c4f27ead9083c756cc2",
                    "decodedLog": {
                        "name": "Transfer",
                        "params": [
                            {
                                "name": "src",
                                "type": "address",
                                "value": "0x5f3e759d09e1059e4c46d6984f07cbb36a73bdf1"
                            },
                            {
                                "name": "dst",
                                "type": "address",
                                "value": "0x84e34df6f8f85f15d24ec8e347d32f1184089a14"
                            },
                            {
                                "decimalAvailable": true,
                                "name": "wad",
                                "type": "uint256",
                                "value": "9,538,700,000,000,000,000"
                            }
                        ],
                        "signature": "Transfer(address,address,uint256)"
                    },
                    "id": 3,
                    "logData": "0x0000000000000000000000000000000000000000000000008460451c9f04c000",
                    "logDecoded": true,
                    "operation": "EVENT",
                    "revert": false,
                    "status": true,
                    "topics": [
                        "0xddf252ad1be2c89b69c2b068fc378daa952ba7f163c4a11628f55a4df523b3ef",
                        "0x0000000000000000000000005f3e759d09e1059e4c46d6984f07cbb36a73bdf1",
                        "0x00000000000000000000000084e34df6f8f85f15d24ec8e347d32f1184089a14"
                    ]
                },
                "nodeType": 1
            },
            "4": {
                "invocation": {
                    "address": "0x84e34df6f8f85f15d24ec8e347d32f1184089a14",
                    "callData": "0x000000000000000000000000000000000000000000000000000000000000000000000000000000000000000000000000000000000000000064516910e28608410000000000000000000000005f3e759d09e1059e4c46d6984f07cbb36a73bdf100000000000000000000000000000000000000000000000000000000000000800000000000000000000000000000000000000000000000000000000000000000",
                    "decodedMethod": {
                        "callParams": [
                            {
                                "name": "amount0Out",
                                "type": "uint256",
                                "value": "0"
                            },
                            {
                                "name": "amount1Out",
                                "type": "uint256",
                                "value": "7,228,674,398,147,184,705"
                            },
                            {
                                "name": "to",
                                "type": "address",
                                "value": "0x5f3e759d09e1059e4c46d6984f07cbb36a73bdf1"
                            },
                            {
                                "name": "data",
                                "type": "bytes",
                                "value": "0x"
                            }
                        ],
                        "constructorArguments": "",
                        "name": "swap",
                        "returnParams": [],
                        "signature": "swap(uint256,uint256,address,bytes)"
                    },
                    "errorInfo": "",
                    "fromAddress": "0x5f3e759d09e1059e4c46d6984f07cbb36a73bdf1",
                    "gasUsed": 58324,
                    "id": 4,
                    "methodDecoded": true,
                    "operation": "CALL",
                    "output": "",
                    "revert": false,
                    "revertMessage": "",
                    "selector": "0x022c0d9f",
                    "status": true,
                    "value": "0"
                },
                "nodeType": 0
            },
            "5": {
                "invocation": {
                    "address": "0xf4cd3d3fda8d7fd6c5a500203e38640a70bf9577",
                    "callData": "0x0000000000000000000000005f3e759d09e1059e4c46d6984f07cbb36a73bdf100000000000000000000000000000000000000000000000064516910e2860841",
                    "decodedMethod": {
                        "callParams": [
                            {
                                "name": "_to",
                                "type": "address",
                                "value": "0x5f3e759d09e1059e4c46d6984f07cbb36a73bdf1"
                            },
                            {
                                "decimalAvailable": true,
                                "name": "_amount",
                                "type": "uint256",
                                "value": "7,228,674,398,147,184,705"
                            }
                        ],
                        "constructorArguments": "",
                        "name": "transfer",
                        "returnParams": [
                            {
                                "name": "success",
                                "type": "bool",
                                "value": true
                            }
                        ],
                        "signature": "transfer(address,uint256)"
                    },
                    "errorInfo": "",
                    "fromAddress": "0x84e34df6f8f85f15d24ec8e347d32f1184089a14",
                    "gasUsed": 16871,
                    "id": 5,
                    "methodDecoded": true,
                    "operation": "CALL",
                    "output": "0x0000000000000000000000000000000000000000000000000000000000000001",
                    "revert": false,
                    "revertMessage": "",
                    "selector": "0xa9059cbb",
                    "status": true,
                    "value": "0"
                },
                "nodeType": 0
            },
            "6": {
                "event": {
                    "contract": "0xf4cd3d3fda8d7fd6c5a500203e38640a70bf9577",
                    "decodedLog": {
                        "name": "Transfer",
                        "params": [
                            {
                                "name": "_from",
                                "type": "address",
                                "value": "0x84e34df6f8f85f15d24ec8e347d32f1184089a14"
                            },
                            {
                                "name": "_to",
                                "type": "address",
                                "value": "0x5f3e759d09e1059e4c46d6984f07cbb36a73bdf1"
                            },
                            {
                                "decimalAvailable": true,
                                "name": "_value",
                                "type": "uint256",
                                "value": "7,228,674,398,147,184,705"
                            }
                        ],
                        "signature": "Transfer(address,address,uint256)"
                    },
                    "id": 6,
                    "logData": "0x00000000000000000000000000000000000000000000000064516910e2860841",
                    "logDecoded": true,
                    "operation": "EVENT",
                    "revert": false,
                    "status": true,
                    "topics": [
                        "0xddf252ad1be2c89b69c2b068fc378daa952ba7f163c4a11628f55a4df523b3ef",
                        "0x00000000000000000000000084e34df6f8f85f15d24ec8e347d32f1184089a14",
                        "0x0000000000000000000000005f3e759d09e1059e4c46d6984f07cbb36a73bdf1"
                    ]
                },
                "nodeType": 1
            },
            "7": {
                "invocation": {
                    "address": "0xc02aaa39b223fe8d0a0e5c4f27ead9083c756cc2",
                    "callData": "0x00000000000000000000000084e34df6f8f85f15d24ec8e347d32f1184089a14",
                    "decodedMethod": {
                        "callParams": [
                            {
                                "name": "",
                                "type": "address",
                                "value": "0x84e34df6f8f85f15d24ec8e347d32f1184089a14"
                            }
                        ],
                        "constructorArguments": "",
                        "name": "balanceOf",
                        "returnParams": [
                            {
                                "decimalAvailable": true,
                                "name": "",
                                "type": "uint256",
                                "value": "492,986,911,747,744,405,954"
                            }
                        ],
                        "signature": "balanceOf(address)"
                    },
                    "errorInfo": "",
                    "fromAddress": "0x84e34df6f8f85f15d24ec8e347d32f1184089a14",
                    "gasUsed": 1234,
                    "id": 7,
                    "methodDecoded": true,
                    "operation": "STATICCALL",
                    "output": "0x00000000000000000000000000000000000000000000001ab9915847292719c2",
                    "revert": false,
                    "revertMessage": "",
                    "selector": "0x70a08231",
                    "status": true,
                    "value": "0"
                },
                "nodeType": 0
            },
            "8": {
                "invocation": {
                    "address": "0xf4cd3d3fda8d7fd6c5a500203e38640a70bf9577",
                    "callData": "0x00000000000000000000000084e34df6f8f85f15d24ec8e347d32f1184089a14",
                    "decodedMethod": {
                        "callParams": [
                            {
                                "name": "_owner",
                                "type": "address",
                                "value": "0x84e34df6f8f85f15d24ec8e347d32f1184089a14"
                            }
                        ],
                        "constructorArguments": "",
                        "name": "balanceOf",
                        "returnParams": [
                            {
                                "decimalAvailable": true,
                                "name": "balance",
                                "type": "uint256",
                                "value": "367,472,016,844,242,457,632"
                            }
                        ],
                        "signature": "balanceOf(address)"
                    },
                    "errorInfo": "",
                    "fromAddress": "0x84e34df6f8f85f15d24ec8e347d32f1184089a14",
                    "gasUsed": 1196,
                    "id": 8,
                    "methodDecoded": true,
                    "operation": "STATICCALL",
                    "output": "0x000000000000000000000000000000000000000000000013ebb2dc5ea16e9420",
                    "revert": false,
                    "revertMessage": "",
                    "selector": "0x70a08231",
                    "status": true,
                    "value": "0"
                },
                "nodeType": 0
            },
            "9": {
                "event": {
                    "contract": "0x84e34df6f8f85f15d24ec8e347d32f1184089a14",
                    "decodedLog": {
                        "name": "Sync",
                        "params": [
                            {
                                "name": "reserve0",
                                "type": "uint112",
                                "value": "492,986,911,747,744,405,954"
                            },
                            {
                                "name": "reserve1",
                                "type": "uint112",
                                "value": "367,472,016,844,242,457,632"
                            }
                        ],
                        "signature": "Sync(uint112,uint112)"
                    },
                    "id": 9,
                    "logData": "0x00000000000000000000000000000000000000000000001ab9915847292719c2000000000000000000000000000000000000000000000013ebb2dc5ea16e9420",
                    "logDecoded": true,
                    "operation": "EVENT",
                    "revert": false,
                    "status": true,
                    "topics": [
                        "0x1c411e9a96e071241c2f21f7726b17ae89e3cab4c78be50e062b03a9fffbbad1"
                    ]
                },
                "nodeType": 1
            }
        },
        "gasFlame": [
            {
                "children": [
                    {
                        "children": [
                            {
                                "children": [],
                                "depth": 0,
                                "name": "Initial Gas",
                                "value": 21752
                            },
                            {
                                "children": [
                                    {
                                        "children": [],
                                        "depth": 1,
                                        "name": "getReserves",
                                        "value": 1204
                                    },
                                    {
                                        "children": [],
                                        "depth": 1,
                                        "name": "transfer",
                                        "value": 15162
                                    },
                                    {
                                        "children": [
                                            {
                                                "children": [],
                                                "depth": 2,
                                                "name": "transfer",
                                                "value": 16871
                                            },
                                            {
                                                "children": [],
                                                "depth": 2,
                                                "name": "balanceOf",
                                                "value": 1234
                                            },
                                            {
                                                "children": [],
                                                "depth": 2,
                                                "name": "balanceOf",
                                                "value": 1196
                                            }
                                        ],
                                        "depth": 1,
                                        "name": "swap",
                                        "value": 58324
                                    }
                                ],
                                "depth": 0,
                                "name": "Executed Gas",
                                "value": 81147
                            }
                        ],
                        "depth": -1,
                        "name": "Actual Gas Used",
                        "value": 98699
                    },
                    {
                        "children": [],
                        "depth": -1,
                        "name": "Refunded Gas",
                        "value": 4200
                    }
                ],
                "depth": -2,
                "name": "Total Gas",
                "value": 102899
            }
        ],
        "isConfirmed": true,
        "mainTrace": [
            {
                "children": [
                    {
                        "children": [
                            {
                                "children": [],
                                "depth": 1,
                                "id": 1,
                                "order": 1
                            },
                            {
                                "children": [
                                    {
                                        "children": [],
                                        "depth": 2,
                                        "id": 3,
                                        "order": 3
                                    }
                                ],
                                "depth": 1,
                                "id": 2,
                                "order": 2
                            },
                            {
                                "children": [
                                    {
                                        "children": [
                                            {
                                                "children": [],
                                                "depth": 3,
                                                "id": 6,
                                                "order": 6
                                            }
                                        ],
                                        "depth": 2,
                                        "id": 5,
                                        "order": 5
                                    },
                                    {
                                        "children": [],
                                        "depth": 2,
                                        "id": 7,
                                        "order": 7
                                    },
                                    {
                                        "children": [],
                                        "depth": 2,
                                        "id": 8,
                                        "order": 8
                                    },
                                    {
                                        "children": [],
                                        "depth": 2,
                                        "id": 9,
                                        "order": 9
                                    },
                                    {
                                        "children": [],
                                        "depth": 2,
                                        "id": 10,
                                        "order": 10
                                    }
                                ],
                                "depth": 1,
                                "id": 4,
                                "order": 4
                            }
                        ],
                        "depth": 0,
                        "id": 0,
                        "order": 0
                    }
                ],
                "depth": -1,
                "id": -1,
                "order": -1
            }
        ],
        "mainTraceNodeCount": 11,
        "parentIdMap": {
            "0": -1,
            "1": 0,
            "10": 4,
            "2": 0,
            "3": 2,
            "4": 0,
            "5": 4,
            "6": 5,
            "7": 4,
            "8": 4,
            "9": 4
        },
        "tidyTrace": [
            {
                "children": [
                    {
                        "children": [
                            {
                                "children": [],
                                "depth": 1,
                                "id": 1,
                                "order": 1
                            },
                            {
                                "children": [
                                    {
                                        "children": [],
                                        "depth": 2,
                                        "id": 3,
                                        "order": 3
                                    }
                                ],
                                "depth": 1,
                                "id": 2,
                                "order": 2
                            },
                            {
                                "children": [
                                    {
                                        "children": [
                                            {
                                                "children": [],
                                                "depth": 3,
                                                "id": 6,
                                                "order": 6
                                            }
                                        ],
                                        "depth": 2,
                                        "id": 5,
                                        "order": 5
                                    },
                                    {
                                        "children": [],
                                        "depth": 2,
                                        "id": 9,
                                        "order": 9
                                    },
                                    {
                                        "children": [],
                                        "depth": 2,
                                        "id": 10,
                                        "order": 10
                                    }
                                ],
                                "depth": 1,
                                "id": 4,
                                "order": 4
                            }
                        ],
                        "depth": 0,
                        "id": 0,
                        "order": 0
                    }
                ],
                "depth": -1,
                "id": -1,
                "order": -1
            }
        ],
        "tidyTraceNodeCount": 9
    },
    "state_change": {
        "stateChanges": [
            {
                "address": "0x84e34df6f8f85f15d24ec8e347d32f1184089a14",
                "erc": "ERC-20",
                "slots": [
                    {
                        "current": "0x000000000000000000000000000000599c3ffeb8b6ca64f78ee73f934bd4cdd8",
                        "key": "0x0000000000000000000000000000000000000000000000000000000000000009",
                        "prev": "0x000000000000000000000000000000599bd9aff108476932649a21239bc635ec"
                    },
                    {
                        "current": "0x0000000000000000000000000000002c4ba4117a598710407fb2164fee562387",
                        "key": "0x000000000000000000000000000000000000000000000000000000000000000a",
                        "prev": "0x0000000000000000000000000000002c4af9c2319081aeb27412819a57c9184f"
                    },
                    {
                        "current": "0x5f781b52000000000013ebb2dc5ea16e942000000000001ab9915847292719c2",
                        "key": "0x0000000000000000000000000000000000000000000000000000000000000008",
                        "prev": "0x5f781ace0000000000145004456f83f49c6100000000001a3531132a8a2259c2"
                    }
                ],
                "storageVariables": [
                    {
                        "name": "price0CumulativeLast",
                        "type": "uint256",
                        "value": {
                            "current": "30492822504374650000309195483660611276248",
                            "prev": "30492291292246717281705681271493786744300",
                            "typeTag": 1
                        }
                    },
                    {
                        "name": "price1CumulativeLast",
                        "type": "uint256",
                        "value": {
                            "current": "15072968135384467331013398125640506811271",
                            "prev": "15072083836841517028514539662351276775503",
                            "typeTag": 1
                        }
                    },
                    {
                        "name": "reserve0",
                        "type": "uint112",
                        "value": {
                            "current": "492986911747744405954",
                            "prev": "483448211747744405954",
                            "typeTag": 1
                        }
                    },
                    {
                        "name": "reserve1",
                        "type": "uint112",
                        "value": {
                            "current": "367472016844242457632",
                            "prev": "374700691242389642337",
                            "typeTag": 1
                        }
                    },
                    {
                        "name": "blockTimestampLast",
                        "type": "uint32",
                        "value": {
                            "current": "1601706834",
                            "prev": "1601706702",
                            "typeTag": 1
                        }
                    }
                ]
            },
            {
                "address": "0xc02aaa39b223fe8d0a0e5c4f27ead9083c756cc2",
                "erc": "ERC-20",
                "slots": [
                    {
                        "current": "0x000000000000000000000000000000000000000000000005a76c8ab769126452",
                        "key": "0x6d713152d67c905a3712589c30e50157b870d45bdad2ecdff92f2ded9d4b1116",
                        "prev": "0x0000000000000000000000000000000000000000000000062bcccfd408172452"
                    },
                    {
                        "current": "0x00000000000000000000000000000000000000000000001ab9915847292719c2",
                        "key": "0x866b287c2b098e61b335e74b2b101c3f2f8912b0acb9ce5b1fb81d31213f43a1",
                        "prev": "0x00000000000000000000000000000000000000000000001a3531132a8a2259c2"
                    }
                ],
                "storageVariables": [
                    {
                        "name": "balanceOf",
                        "type": "mapping(address => uint256)",
                        "value": {
                            "pairs": [
                                {
                                    "key": "0x5f3e759d09e1059e4c46d6984f07cbb36a73bdf1",
                                    "value": {
                                        "current": "104297890390712935506",
                                        "prev": "113836590390712935506",
                                        "typeTag": 1
                                    }
                                },
                                {
                                    "key": "0x84e34df6f8f85f15d24ec8e347d32f1184089a14",
                                    "value": {
                                        "current": "492986911747744405954",
                                        "prev": "483448211747744405954",
                                        "typeTag": 1
                                    }
                                }
                            ],
                            "typeTag": 4
                        }
                    }
                ]
            },
            {
                "address": "0xf4cd3d3fda8d7fd6c5a500203e38640a70bf9577",
                "erc": "ERC-20",
                "slots": [
                    {
                        "current": "0x00000000000000000000000000000000000000000000000064516910e2860842",
                        "key": "0x8a2dfb85770898a7b3d6a1e88eaa0353b8ae8ee89c811bb9add324a1cc0576a5",
                        "prev": "0x0000000000000000000000000000000000000000000000000000000000000001"
                    },
                    {
                        "current": "0x000000000000000000000000000000000000000000000013ebb2dc5ea16e9420",
                        "key": "0xba22ed9db3ba76243ee86bf8ca61fab9d716edaef96d4f27600e1af3c28b143b",
                        "prev": "0x0000000000000000000000000000000000000000000000145004456f83f49c61"
                    }
                ],
                "storageVariables": [
                    {
                        "name": "balances",
                        "type": "mapping(address => uint256)",
                        "value": {
                            "pairs": [
                                {
                                    "key": "0x5f3e759d09e1059e4c46d6984f07cbb36a73bdf1",
                                    "value": {
                                        "current": "7228674398147184706",
                                        "prev": "1",
                                        "typeTag": 1
                                    }
                                },
                                {
                                    "key": "0x84e34df6f8f85f15d24ec8e347d32f1184089a14",
                                    "value": {
                                        "current": "367472016844242457632",
                                        "prev": "374700691242389642337",
                                        "typeTag": 1
                                    }
                                }
                            ],
                            "typeTag": 4
                        }
                    }
                ]
            }
        ]
    }
}