{
    "balance_change": {
        "balanceChanges": [
            {
                "account": "0xd91efec7e42f80156d1d9f660a69847188950747",
                "assets": [
                    {
                        "address": "0xdac17f958d2ee523a2206206994597c13d831ec7",
                        "amount": "233,786.81001",
                        "iconUrl": "https://assets.blocksec.com/icon/fcea71f3193ce895be44bfdf941f7e4c9381dd587f273c2d1a27f1263d84e4ea.png",
                        "isERC1155": false,
                        "isERC721": false,
                        "sign": false,
                        "value": "233786.81"
                    },
                    {
                        "address": "0xaa7a9ca87d3694b5755f213b5d04094b8d0f0a6f",
                        "amount": "949.257",
                        "iconUrl": "https://assets.blocksec.com/icon/6015c1cdde7df0820da97162ea028774e3f8e86f578d7ecc4b580621eafcbce7.png",
                        "isERC1155": false,
                        "isERC721": false,
                        "sign": false,
                        "value": "255.25520729999997378"
                    },
                    {
                        "address": "0xf57e7e7c23978c3caec3c3548e3d615c346e79ff",
                        "amount": "5,123",
                        "iconUrl": "",
                        "isERC1155": false,
                        "isERC721": false,
                        "sign": false,
                        "value": "4860.190099999999937"
                    }
                ]
            },
            {
                "account": "0x338fe15f93f22e79903288ed025e8b7d73024ffa",
                "assets": [
                    {
                        "address": "0xdac17f958d2ee523a2206206994597c13d831ec7",
                        "amount": "4,240.200979",
                        "iconUrl": "https://assets.blocksec.com/icon/fcea71f3193ce895be44bfdf941f7e4c9381dd587f273c2d1a27f1263d84e4ea.png",
                        "isERC1155": false,
                        "isERC721": false,
                        "sign": true,
                        "value": "4240.200979"
                    }
                ]
            },
            {
                "account": "0x4c0ad502dab7aed3fd787d2332d4aca49eec77cd",
                "assets": [
                    {
                        "address": "0xdac17f958d2ee523a2206206994597c13d831ec7",
                        "amount": "229,546.609031",
                        "iconUrl": "https://assets.blocksec.com/icon/fcea71f3193ce895be44bfdf941f7e4c9381dd587f273c2d1a27f1263d84e4ea.png",
                        "isERC1155": false,
                        "isERC721": false,
                        "sign": true,
                        "value": "229546.609"
                    }
                ]
            },
            {
                "account": "0x989a69a3e608483ae3f6fb21e2874f5c8fb98697",
                "assets": [
                    {
                        "address": "0xf57e7e7c23978c3caec3c3548e3d615c346e79ff",
                        "amount": "5,123",
                        "iconUrl": "",
                        "isERC1155": false,
                        "isERC721": false,
                        "sign": true,
                        "value": "4860.190099999999937"
                    }
                ]
            },
            {
                "account": "0xe6bbf263adc66ae3582a4c2a7f6dc8453599f4ea",
                "assets": [
                    {
                        "address": "0xaa7a9ca87d3694b5755f213b5d04094b8d0f0a6f",
                        "amount": "949.257",
                        "iconUrl": "https://assets.blocksec.com/icon/6015c1cdde7df0820da97162ea028774e3f8e86f578d7ecc4b580621eafcbce7.png",
                        "isERC1155": false,
                        "isERC721": false,
                        "sign": true,
                        "value": "255.25520729999997378"
                    }
                ]
            }
        ]
    },
    "profile": {
        "basic_info": {
            "baseFee": "15.757948015",
            "blockNumber": 18504348,
            "callData": "0xe6930a220000000000000000000000000000000000000000000000000000000000000060000000000000000000000000000000000000000000000000000000000000010000000000000000000000000000000000000000000000000000000000000001a00000000000000000000000000000000000000000000000000000000000000004000000000000000000000000f57e7e7c23978c3caec3c3548e3d615c346e79ff000000000000000000000000dac17f958d2ee523a2206206994597c13d831ec7000000000000000000000000dac17f958d2ee523a2206206994597c13d831ec7000000000000000000000000aa7a9ca87d3694b5755f213b5d04094b8d0f0a6f0000000000000000000000000000000000000000000000000000000000000004000000000000000000000000989a69a3e608483ae3f6fb21e2874f5c8fb986970000000000000000000000004c0ad502dab7aed3fd787d2332d4aca49eec77cd000000000000000000000000338fe15f93f22e79903288ed025e8b7d73024ffa000000000000000000000000e6bbf263adc66ae3582a4c2a7f6dc8453599f4ea0000000000000000000000000000000000000000000000000000000000000004000000000000000000000000000000000000000000000115b7e82d2ec62c000000000000000000000000000000000000000000000000000000000035720b498700000000000000000000000000000000000000000000000000000000fcbc55130000000000000000000000000000000000000000000000337596541ef0fa8000",
            "debugEnable": true,
            "errorInfo": "",
            "eventCount": 4,
            "feeRecipient": "0x95222290dd7278aa3ddd389cc1e1d165cc4bafe5",
            "formatValue": "0",
            "gasLimit": 700000,
            "gasPrice": "17.483590627",
            "gasUsed": 181214,
            "intTxnCount": 5,
            "internalRevert": false,
            "internalRevertMessage": "",
            "isContractCreation": false,
            "isFlashloan": false,
            "maxFee": "34",
            "nonce": 100437,
            "overwritedBlockNumber": -1,
            "priorityFee": "1.725642612",
            "receiver": "0xd91efec7e42f80156d1d9f660a69847188950747",
            "revertMessage": "",
            "sender": "0xce0d2213a0eaff4176d90b39879b7b4f870fa428",
            "simulationEnable": true,
            "sourceTxnHash": "0x9f683aebceb48b45b17983c290660194398a40cf569fcbd44a8efa2dd20a7e90",
            "status": true,
            "timestamp": "2023-11-05T07:33:35Z",
            "transactionFee": "0.003168271391881178",
            "txnHash": "0x9f683aebceb48b45b17983c290660194398a40cf569fcbd44a8efa2dd20a7e90",
            "txnIndex": 36,
            "type": 2,
            "value": "0"
        },
        "fund_flow": [
            {
                "amount": "5,123",
                "from": "0xd91efec7e42f80156d1d9f660a69847188950747",
                "id": 1,
                "isERC1155": false,
                "isERC721": false,
                "isReverted": false,
                "order": 1,
                "to": "0x989a69a3e608483ae3f6fb21e2874f5c8fb98697",
                "token": "0xf57e7e7c23978c3caec3c3548e3d615c346e79ff"
            },
            {
                "amount": "229,546.609031",
                "from": "0xd91efec7e42f80156d1d9f660a69847188950747",
                "id": 2,
                "isERC1155": false,
                "isERC721": false,
                "isReverted": false,
                "order": 2,
                "to": "0x4c0ad502dab7aed3fd787d2332d4aca49eec77cd",
                "token": "0xdac17f958d2ee523a2206206994597c13d831ec7"
            },
            {
                "amount": "4,240.200979",
                "from": "0xd91efec7e42f80156d1d9f660a69847188950747",
                "id": 3,
                "isERC1155": false,
                "isERC721": false,
                "isReverted": false,
                "order": 3,
                "to": "0x338fe15f93f22e79903288ed025e8b7d73024ffa",
                "token": "0xdac17f958d2ee523a2206206994597c13d831ec7"
            },
            {
                "amount": "949.257",
                "from": "0xd91efec7e42f80156d1d9f660a69847188950747",
                "id": 4,
                "isERC1155": false,
                "isERC721": false,
                "isReverted": false,
                "order": 4,
                "to": "0xe6bbf263adc66ae3582a4c2a7f6dc8453599f4ea",
                "token": "0xaa7a9ca87d3694b5755f213b5d04094b8d0f0a6f"
            }
        ],
        "token_infos": [
            {
                "address": "0xaa7a9ca87d3694b5755f213b5d04094b8d0f0a6f",
                "decimals": 18
            },
            {
                "address": "0xc02aaa39b223fe8d0a0e5c4f27ead9083c756cc2",
                "decimals": 18
            },
            {
                "address": "0xdac17f958d2ee523a2206206994597c13d831ec7",
                "decimals": 6
            },
            {
                "address": "0xf57e7e7c23978c3caec3c3548e3d615c346e79ff",
                "decimals": 18
            },
            {
                "address": "0xeeeeeeeeeeeeeeeeeeeeeeeeeeeeeeeeeeeeeeee",
                "decimals": 18
            }
        ]
    },
    "address_label": {
        "labels": [
            {
                "address": "0xd91efec7e42f80156d1d9f660a69847188950747",
                "label": "KuCoin: ERC-20 Batch Transfer"
            },
            {
                "address": "0x989a69a3e608483ae3f6fb21e2874f5c8fb98697",
                "label": "BINANCE"
            },
            {
                "address": "0x0000000000000000000000000000000000000001",
                "label": "Precompiled"
            },
            {
                "address": "0x0000000000000000000000000000000000000002",
                "label": "Precompiled"
            },
            {
                "address": "0x0000000000000000000000000000000000000003",
                "label": "Precompiled"
            },
            {
                "address": "0x0000000000000000000000000000000000000004",
                "label": "Precompiled"
            },
            {
                "address": "0xeeeeeeeeeeeeeeeeeeeeeeeeeeeeeeeeeeeeeeee",
                "label": "Ether"
            },
            {
                "address": "0xaa7a9ca87d3694b5755f213b5d04094b8d0f0a6f",
                "label": "Origin Trail: TRAC Token"
            },
            {
                "address": "0xdac17f958d2ee523a2206206994597c13d831ec7",
                "label": "Tether: USDT Stablecoin"
            },
            {
                "address": "0xf57e7e7c23978c3caec3c3548e3d615c346e79ff",
                "label": "IMMUTABLE X: IMX Token"
            }
        ]
    },
    "trace": {
        "accountLabels": null,
        "dataMap": {
            "-1": {
                "invocation": {
                    "address": "0xce0d2213a0eaff4176d90b39879b7b4f870fa428",
                    "callData": "",
                    "decodedMethod": null,
                    "errorInfo": "",
                    "fromAddress": "",
                    "gasUsed": 0,
                    "id": -1,
                    "methodDecoded": false,
                    "operation": "",
                    "output": "",
                    "revert": false,
                    "revertMessage": "",
                    "selector": "",
                    "status": false,
                    "value": ""
                },
                "nodeType": 0
            },
            "0": {
                "invocation": {
                    "address": "0xd91efec7e42f80156d1d9f660a69847188950747",
                    "callData": "0x0000000000000000000000000000000000000000000000000000000000000060000000000000000000000000000000000000000000000000000000000000010000000000000000000000000000000000000000000000000000000000000001a00000000000000000000000000000000000000000000000000000000000000004000000000000000000000000f57e7e7c23978c3caec3c3548e3d615c346e79ff000000000000000000000000dac17f958d2ee523a2206206994597c13d831ec7000000000000000000000000dac17f958d2ee523a2206206994597c13d831ec7000000000000000000000000aa7a9ca87d3694b5755f213b5d04094b8d0f0a6f0000000000000000000000000000000000000000000000000000000000000004000000000000000000000000989a69a3e608483ae3f6fb21e2874f5c8fb986970000000000000000000000004c0ad502dab7aed3fd787d2332d4aca49eec77cd000000000000000000000000338fe15f93f22e79903288ed025e8b7d73024ffa000000000000000000000000e6bbf263adc66ae3582a4c2a7f6dc8453599f4ea0000000000000000000000000000000000000000000000000000000000000004000000000000000000000000000000000000000000000115b7e82d2ec62c000000000000000000000000000000000000000000000000000000000035720b498700000000000000000000000000000000000000000000000000000000fcbc55130000000000000000000000000000000000000000000000337596541ef0fa8000",
                    "decodedMethod": {
                        "callParams": [
                            {
                                "name": "tokens",
                                "type": "address[]",
                                "value": [
                                    "0xf57e7e7c23978c3caec3c3548e3d615c346e79ff",
                                    "0xdac17f958d2ee523a2206206994597c13d831ec7",
                                    "0xdac17f958d2ee523a2206206994597c13d831ec7",
                                    "0xaa7a9ca87d3694b5755f213b5d04094b8d0f0a6f"
                                ]
                            },
                            {
                                "name": "payees",
                                "type": "address[]",
                                "value": [
                                    "0x989a69a3e608483ae3f6fb21e2874f5c8fb98697",
                                    "0x4c0ad502dab7aed3fd787d2332d4aca49eec77cd",
                                    "0x338fe15f93f22e79903288ed025e8b7d73024ffa",
                                    "0xe6bbf263adc66ae3582a4c2a7f6dc8453599f4ea"
                                ]
                            },
                            {
                                "name": "amounts",
                                "type": "uint256[]",
                                "value": [
                                    "5,123,000,000,000,000,000,000",
                                    "229,546,609,031",
                                    "4,240,200,979",
                                    "949,257,000,000,000,000,000"
                                ]
                            }
                        ],
                        "constructorArguments": "",
                        "name": "batchTransferErc20",
                        "returnParams": [],
                        "signature": "batchTransferErc20(address[],address[],uint256[])"
                    },
                    "errorInfo": "",
                    "fromAddress": "0xce0d2213a0eaff4176d90b39879b7b4f870fa428",
                    "gasUsed": 181214,
                    "id": 0,
                    "methodDecoded": true,
                    "operation": "CALL",
                    "output": "",
                    "revert": false,
                    "revertMessage": "",
                    "selector": "0xe6930a22",
                    "status": true,
                    "value": "0"
                },
                "nodeType": 0
            },
            "1": {
                "invocation": {
                    "address": "0x74ae836d6f949118b4e4d0af79924edd0d6fd163",
                    "callData": "0x0000000000000000000000000000000000000000000000000000000000000060000000000000000000000000000000000000000000000000000000000000010000000000000000000000000000000000000000000000000000000000000001a00000000000000000000000000000000000000000000000000000000000000004000000000000000000000000f57e7e7c23978c3caec3c3548e3d615c346e79ff000000000000000000000000dac17f958d2ee523a2206206994597c13d831ec7000000000000000000000000dac17f958d2ee523a2206206994597c13d831ec7000000000000000000000000aa7a9ca87d3694b5755f213b5d04094b8d0f0a6f0000000000000000000000000000000000000000000000000000000000000004000000000000000000000000989a69a3e608483ae3f6fb21e2874f5c8fb986970000000000000000000000004c0ad502dab7aed3fd787d2332d4aca49eec77cd000000000000000000000000338fe15f93f22e79903288ed025e8b7d73024ffa000000000000000000000000e6bbf263adc66ae3582a4c2a7f6dc8453599f4ea0000000000000000000000000000000000000000000000000000000000000004000000000000000000000000000000000000000000000115b7e82d2ec62c000000000000000000000000000000000000000000000000000000000035720b498700000000000000000000000000000000000000000000000000000000fcbc55130000000000000000000000000000000000000000000000337596541ef0fa8000",
                    "decodedMethod": {
                        "callParams": [
                            {
                                "name": "tokens",
                                "type": "address[]",
                                "value": [
                                    "0xf57e7e7c23978c3caec3c3548e3d615c346e79ff",
                                    "0xdac17f958d2ee523a2206206994597c13d831ec7",
                                    "0xdac17f958d2ee523a2206206994597c13d831ec7",
                                    "0xaa7a9ca87d3694b5755f213b5d04094b8d0f0a6f"
                                ]
                            },
                            {
                                "name": "payees",
                                "type": "address[]",
                                "value": [
                                    "0x989a69a3e608483ae3f6fb21e2874f5c8fb98697",
                                    "0x4c0ad502dab7aed3fd787d2332d4aca49eec77cd",
                                    "0x338fe15f93f22e79903288ed025e8b7d73024ffa",
                                    "0xe6bbf263adc66ae3582a4c2a7f6dc8453599f4ea"
                                ]
                            },
                            {
                                "name": "amounts",
                                "type": "uint256[]",
                                "value": [
                                    "5,123,000,000,000,000,000,000",
                                    "229,546,609,031",
                                    "4,240,200,979",
                                    "949,257,000,000,000,000,000"
                                ]
                            }
                        ],
                        "constructorArguments": "",
                        "name": "batchTransferErc20",
                        "returnParams": [],
                        "signature": "batchTransferErc20(address[],address[],uint256[])"
                    },
                    "errorInfo": "",
                    "fromAddress": "0xd91efec7e42f80156d1d9f660a69847188950747",
                    "gasUsed": 150548,
                    "id": 1,
                    "methodDecoded": true,
                    "operation": "DELEGATECALL",
                    "output": "",
                    "revert": false,
                    "revertMessage": "",
                    "selector": "0xe6930a22",
                    "status": true,
                    "value": "0"
                },
                "nodeType": 0
            },
            "2": {
                "invocation": {
                    "address": "0xf57e7e7c23978c3caec3c3548e3d615c346e79ff",
                    "callData": "0x000000000000000000000000989a69a3e608483ae3f6fb21e2874f5c8fb98697000000000000000000000000000000000000000000000115b7e82d2ec62c0000",
                    "decodedMethod": {
                        "callParams": [
                            {
                                "name": "recipient",
                                "type": "address",
                                "value": "0x989a69a3e608483ae3f6fb21e2874f5c8fb98697"
                            },
                            {
                                "decimalAvailable": true,
                                "name": "amount",
                                "type": "uint256",
                                "value": "5,123,000,000,000,000,000,000"
                            }
                        ],
                        "constructorArguments": "",
                        "name": "transfer",
                        "returnParams": [
                            {
                                "name": "",
                                "type": "bool",
                                "value": true
                            }
                        ],
                        "signature": "transfer(address,uint256)"
                    },
                    "errorInfo": "",
                    "fromAddress": "0xd91efec7e42f80156d1d9f660a69847188950747",
                    "gasUsed": 30100,
                    "id": 2,
                    "methodDecoded": true,
                    "operation": "CALL",
                    "output": "0x0000000000000000000000000000000000000000000000000000000000000001",
                    "revert": false,
                    "revertMessage": "",
                    "selector": "0xa9059cbb",
                    "status": true,
                    "value": "0"
                },
                "nodeType": 0
            },
            "3": {
                "event": {
                    "contract": "0xf57e7e7c23978c3caec3c3548e3d615c346e79ff",
                    "decodedLog": {
                        "name": "Transfer",
                        "params": [
                            {
                                "name": "from",
                                "type": "address",
                                "value": "0xd91efec7e42f80156d1d9f660a69847188950747"
                            },
                            {
                                "name": "to",
                                "type": "address",
                                "value": "0x989a69a3e608483ae3f6fb21e2874f5c8fb98697"
                            },
                            {
                                "decimalAvailable": true,
                                "name": "value",
                                "type": "uint256",
                                "value": "5,123,000,000,000,000,000,000"
                            }
                        ],
                        "signature": "Transfer(address,address,uint256)"
                    },
                    "id": 3,
                    "logData": "0x000000000000000000000000000000000000000000000115b7e82d2ec62c0000",
                    "logDecoded": true,
                    "operation": "EVENT",
                    "revert": false,
                    "status": true,
                    "topics": [
                        "0xddf252ad1be2c89b69c2b068fc378daa952ba7f163c4a11628f55a4df523b3ef",
                        "0x000000000000000000000000d91efec7e42f80156d1d9f660a69847188950747",
                        "0x000000000000000000000000989a69a3e608483ae3f6fb21e2874f5c8fb98697"
                    ]
                },
                "nodeType": 1
            },
            "4": {
                "invocation": {
                    "address": "0xdac17f958d2ee523a2206206994597c13d831ec7",
                    "callData": "0x0000000000000000000000004c0ad502dab7aed3fd787d2332d4aca49eec77cd00000000000000000000000000000000000000000000000000000035720b4987",
                    "decodedMethod": {
                        "callParams": [
                            {
                                "name": "_to",
                                "type": "address",
                                "value": "0x4c0ad502dab7aed3fd787d2332d4aca49eec77cd"
                            },
                            {
                                "decimalAvailable": true,
                                "name": "_value",
                                "type": "uint256",
                                "value": "229,546,609,031"
                            }
                        ],
                        "constructorArguments": "",
                        "name": "transfer",
                        "returnParams": [],
                        "signature": "transfer(address,uint256)"
                    },
                    "errorInfo": "",
                    "fromAddress": "0xd91efec7e42f80156d1d9f660a69847188950747",
                    "gasUsed": 41601,
                    "id": 4,
                    "methodDecoded": true,
                    "operation": "CALL",
                    "output": "",
                    "revert": false,
                    "revertMessage": "",
                    "selector": "0xa9059cbb",
                    "status": true,
                    "value": "0"
                },
                "nodeType": 0
            },
            "5": {
                "event": {
                    "contract": "0xdac17f958d2ee523a2206206994597c13d831ec7",
                    "decodedLog": {
                        "name": "Transfer",
                        "params": [
                            {
                                "name": "from",
                                "type": "address",
                                "value": "0xd91efec7e42f80156d1d9f660a69847188950747"
                            },
                            {
                                "name": "to",
                                "type": "address",
                                "value": "0x4c0ad502dab7aed3fd787d2332d4aca49eec77cd"
                            },
                            {
                                "decimalAvailable": true,
                                "name": "value",
                                "type": "uint256",
                                "value": "229,546,609,031"
                            }
                        ],
                        "signature": "Transfer(address,address,uint256)"
                    },
                    "id": 5,
                    "logData": "0x00000000000000000000000000000000000000000000000000000035720b4987",
                    "logDecoded": true,
                    "operation": "EVENT",
                    "revert": false,
                    "status": true,
                    "topics": [
                        "0xddf252ad1be2c89b69c2b068fc378daa952ba7f163c4a11628f55a4df523b3ef",
                        "0x000000000000000000000000d91efec7e42f80156d1d9f660a69847188950747",
                        "0x0000000000000000000000004c0ad502dab7aed3fd787d2332d4aca49eec77cd"
                    ]
                },
                "nodeType": 1
            },
            "6": {
                "invocation": {
                    "address": "0xdac17f958d2ee523a2206206994597c13d831ec7",
                    "callData": "0x000000000000000000000000338fe15f93f22e79903288ed025e8b7d73024ffa00000000000000000000000000000000000000000000000000000000fcbc5513",
                    "decodedMethod": {
                        "callParams": [
                            {
                                "name": "_to",
                                "type": "address",
                                "value": "0x338fe15f93f22e79903288ed025e8b7d73024ffa"
                            },
                            {
                                "decimalAvailable": true,
                                "name": "_value",
                                "type": "uint256",
                                "value": "4,240,200,979"
                            }
                        ],
                        "constructorArguments": "",
                        "name": "transfer",
                        "returnParams": [],
                        "signature": "transfer(address,uint256)"
                    },
                    "errorInfo": "",
                    "fromAddress": "0xd91efec7e42f80156d1d9f660a69847188950747",
                    "gasUsed": 26801,
                    "id": 6,
                    "methodDecoded": true,
                    "operation": "CALL",
                    "output": "",
                    "revert": false,
                    "revertMessage": "",
                    "selector": "0xa9059cbb",
                    "status": true,
                    "value": "0"
                },
                "nodeType": 0
            },
            "7": {
                "event": {
                    "contract": "0xdac17f958d2ee523a2206206994597c13d831ec7",
                    "decodedLog": {
                        "name": "Transfer",
                        "params": [
                            {
                                "name": "from",
                                "type": "address",
                                "value": "0xd91efec7e42f80156d1d9f660a69847188950747"
                            },
                            {
                                "name": "to",
                                "type": "address",
                                "value": "0x338fe15f93f22e79903288ed025e8b7d73024ffa"
                            },
                            {
                                "decimalAvailable": true,
                                "name": "value",
                                "type": "uint256",
                                "value": "4,240,200,979"
                            }
                        ],
                        "signature": "Transfer(address,address,uint256)"
                    },
                    "id": 7,
                    "logData": "0x00000000000000000000000000000000000000000000000000000000fcbc5513",
                    "logDecoded": true,
                    "operation": "EVENT",
                    "revert": false,
                    "status": true,
                    "topics": [
                        "0xddf252ad1be2c89b69c2b068fc378daa952ba7f163c4a11628f55a4df523b3ef",
                        "0x000000000000000000000000d91efec7e42f80156d1d9f660a69847188950747",
                        "0x000000000000000000000000338fe15f93f22e79903288ed025e8b7d73024ffa"
                    ]
                },
                "nodeType": 1
            },
            "8": {
                "invocation": {
                    "address": "0xaa7a9ca87d3694b5755f213b5d04094b8d0f0a6f",
                    "callData": "0x000000000000000000000000e6bbf263adc66ae3582a4c2a7f6dc8453599f4ea0000000000000000000000000000000000000000000000337596541ef0fa8000",
                    "decodedMethod": {
                        "callParams": [
                            {
                                "name": "to",
                                "type": "address",
                                "value": "0xe6bbf263adc66ae3582a4c2a7f6dc8453599f4ea"
                            },
                            {
                                "decimalAvailable": true,
                                "name": "value",
                                "type": "uint256",
                                "value": "949,257,000,000,000,000,000"
                            }
                        ],
                        "constructorArguments": "",
                        "name": "transfer",
                        "returnParams": [
                            {
                                "name": "",
                                "type": "bool",
                                "value": true
                            }
                        ],
                        "signature": "transfer(address,uint256)"
                    },
                    "errorInfo": "",
                    "fromAddress": "0xd91efec7e42f80156d1d9f660a69847188950747",
                    "gasUsed": 32812,
                    "id": 8,
                    "methodDecoded": true,
                    "operation": "CALL",
                    "output": "0x0000000000000000000000000000000000000000000000000000000000000001",
                    "revert": false,
                    "revertMessage": "",
                    "selector": "0xa9059cbb",
                    "status": true,
                    "value": "0"
                },
                "nodeType": 0
            },
            "9": {
                "event": {
                    "contract": "0xaa7a9ca87d3694b5755f213b5d04094b8d0f0a6f",
                    "decodedLog": {
                        "name": "Transfer",
                        "params": [
                            {
                                "name": "from",
                                "type": "address",
                                "value": "0xd91efec7e42f80156d1d9f660a69847188950747"
                            },
                            {
                                "name": "to",
                                "type": "address",
                                "value": "0xe6bbf263adc66ae3582a4c2a7f6dc8453599f4ea"
                            },
                            {
                                "decimalAvailable": true,
                                "name": "value",
                                "type": "uint256",
                                "value": "949,257,000,000,000,000,000"
                            }
                        ],
                        "signature": "Transfer(address,address,uint256)"
                    },
                    "id": 9,
                    "logData": "0x0000000000000000000000000000000000000000000000337596541ef0fa8000",
                    "logDecoded": true,
                    "operation": "EVENT",
                    "revert": false,
                    "status": true,
                    "topics": [
                        "0xddf252ad1be2c89b69c2b068fc378daa952ba7f163c4a11628f55a4df523b3ef",
                        "0x000000000000000000000000d91efec7e42f80156d1d9f660a69847188950747",
                        "0x000000000000000000000000e6bbf263adc66ae3582a4c2a7f6dc8453599f4ea"
                    ]
                },
                "nodeType": 1
            }
        },
        "gasFlame": [
            {
                "children": [
                    {
                        "children": [
                            {
                                "children": [],
                                "depth": 0,
                                "name": "Initial Gas",
                                "value": 25672
                            },
                            {
                                "children": [
                                    {
                                        "children": [
                                            {
                                                "children": [],
                                                "depth": 2,
                                                "name": "transfer",
                                                "value": 30100
                                            },
                                            {
                                                "children": [],
                                                "depth": 2,
                                                "name": "transfer",
                                                "value": 41601
                                            },
                                            {
                                                "children": [],
                                                "depth": 2,
                                                "name": "transfer",
                                                "value": 26801
                                            },
                                            {
                                                "children": [],
                                                "depth": 2,
                                                "name": "transfer",
                                                "value": 32812
                                            }
                                        ],
                                        "depth": 1,
                                        "name": "batchTransferErc20",
                                        "value": 150548
                                    }
                                ],
                                "depth": 0,
                                "name": "Executed Gas",
                                "value": 155542
                            }
                        ],
                        "depth": -1,
                        "name": "Actual Gas Used",
                        "value": 181214
                    },
                    {
                        "children": [],
                        "depth": -1,
                        "name": "Refunded Gas",
                        "value": 0
                    }
                ],
                "depth": -2,
                "name": "Total Gas",
                "value": 181214
            }
        ],
        "isConfirmed": true,
        "mainTrace": [
            {
                "children": [
                    {
                        "children": [
                            {
                                "children": [
                                    {
                                        "children": [
                                            {
                                                "children": [],
                                                "depth": 3,
                                                "id": 3,
                                                "order": 3
                                            }
                                        ],
                                        "depth": 2,
                                        "id": 2,
                                        "order": 2
                                    },
                                    {
                                        "children": [
                                            {
                                                "children": [],
                                                "depth": 3,
                                                "id": 5,
                                                "order": 5
                                            }
                                        ],
                                        "depth": 2,
                                        "id": 4,
                                        "order": 4
                                    },
                                    {
                                        "children": [
                                            {
                                                "children": [],
                                                "depth": 3,
                                                "id": 7,
                                                "order": 7
                                            }
                                        ],
                                        "depth": 2,
                                        "id": 6,
                                        "order": 6
                                    },
                                    {
                                        "children": [
                                            {
                                                "children": [],
                                                "depth": 3,
                                                "id": 9,
                                                "order": 9
                                            }
                                        ],
                                        "depth": 2,
                                        "id": 8,
                                        "order": 8
                                    }
                                ],
                                "depth": 1,
                                "id": 1,
                                "order": 1
                            }
                        ],
                        "depth": 0,
                        "id": 0,
                        "order": 0
                    }
                ],
                "depth": -1,
                "id": -1,
                "order": -1
            }
        ],
        "mainTraceNodeCount": 10,
        "parentIdMap": {
            "0": -1,
            "1": 0,
            "2": 1,
            "3": 2,
            "4": 1,
            "5": 4,
            "6": 1,
            "7": 6,
            "8": 1,
            "9": 8
        },
        "tidyTrace": [
            {
                "children": [
                    {
                        "children": [
                            {
                                "children": [
                                    {
                                        "children": [
                                            {
                                                "children": [],
                                                "depth": 3,
                                                "id": 3,
                                                "order": 3
                                            }
                                        ],
                                        "depth": 2,
                                        "id": 2,
                                        "order": 2
                                    },
                                    {
                                        "children": [
                                            {
                                                "children": [],
                                                "depth": 3,
                                                "id": 5,
                                                "order": 5
                                            }
                                        ],
                                        "depth": 2,
                                        "id": 4,
                                        "order": 4
                                    },
                                    {
                                        "children": [
                                            {
                                                "children": [],
                                                "depth": 3,
                                                "id": 7,
                                                "order": 7
                                            }
                                        ],
                                        "depth": 2,
                                        "id": 6,
                                        "order": 6
                                    },
                                    {
                                        "children": [
                                            {
                                                "children": [],
                                                "depth": 3,
                                                "id": 9,
                                                "order": 9
                                            }
                                        ],
                                        "depth": 2,
                                        "id": 8,
                                        "order": 8
                                    }
                                ],
                                "depth": 1,
                                "id": 1,
                                "order": 1
                            }
                        ],
                        "depth": 0,
                        "id": 0,
                        "order": 0
                    }
                ],
                "depth": -1,
                "id": -1,
                "order": -1
            }
        ],
        "tidyTraceNodeCount": 10
    },
    "state_change": {
        "stateChanges": [
            {
                "address": "0xaa7a9ca87d3694b5755f213b5d04094b8d0f0a6f",
                "erc": "ERC-20",
                "slots": [
                    {
                        "current": "0x0000000000000000000000000000000000000000000016e28a4ff12b7b2d0800",
                        "key": "0xee88929c177d7958d31b51523a24780afc695aa512f0e558851bacb0f8387a1e",
                        "prev": "0x000000000000000000000000000000000000000000001715ffe6454a6c278800"
                    },
                    {
                        "current": "0x0000000000000000000000000000000000000000000000337596541ef0fa8000",
                        "key": "0xd7a75a844744194c27b888124c398328d7ce2c4dfb03e319e54bdd217baaf06c",
                        "prev": "0x0000000000000000000000000000000000000000000000000000000000000000"
                    }
                ],
                "storageVariables": [
                    {
                        "name": "balances",
                        "type": "mapping(address => uint256)",
                        "value": {
                            "pairs": [
                                {
                                    "key": "0xd91efec7e42f80156d1d9f660a69847188950747",
                                    "value": {
                                        "current": "108070993233460000000000",
                                        "prev": "109020250233460000000000",
                                        "typeTag": 1
                                    }
                                },
                                {
                                    "key": "0xe6bbf263adc66ae3582a4c2a7f6dc8453599f4ea",
                                    "value": {
                                        "current": "949257000000000000000",
                                        "prev": "0",
                                        "typeTag": 1
                                    }
                                }
                            ],
                            "typeTag": 4
                        }
                    }
                ]
            },
            {
                "address": "0xdac17f958d2ee523a2206206994597c13d831ec7",
                "erc": "ERC-20",
                "slots": [
                    {
                        "current": "0x000000000000000000000000000000000000000000000000000003ea4dc961da",
                        "key": "0xa31f299c8f915b8f34791d571af54c8b48b55ef33583b4a4a8222dade18d8fed",
                        "prev": "0x00000000000000000000000000000000000000000000000000000420bc910074"
                    },
                    {
                        "current": "0x00000000000000000000000000000000000000000000000000000035720b4987",
                        "key": "0x5086830564bcf9913e576e69493c58e3f375eb4349ce2beff88871f1462ea6b7",
                        "prev": "0x0000000000000000000000000000000000000000000000000000000000000000"
                    },
                    {
                        "current": "0x00000000000000000000000000000000000000000000000000000000fcbc5513",
                        "key": "0xa94f8882d014cb5826093743a7b7ba0b0c0966abf9e78575f75dcd1e3d6016ca",
                        "prev": "0x0000000000000000000000000000000000000000000000000000000000000000"
                    }
                ],
                "storageVariables": [
                    {
                        "name": "balances",
                        "type": "mapping(address => uint256)",
                        "value": {
                            "pairs": [
                                {
                                    "key": "0x338fe15f93f22e79903288ed025e8b7d73024ffa",
                                    "value": {
                                        "current": "4240200979",
                                        "prev": "0",
                                        "typeTag": 1
                                    }
                                },
                                {
                                    "key": "0x4c0ad502dab7aed3fd787d2332d4aca49eec77cd",
                                    "value": {
                                        "current": "229546609031",
                                        "prev": "0",
                                        "typeTag": 1
                                    }
                                },
                                {
                                    "key": "0xd91efec7e42f80156d1d9f660a69847188950747",
                                    "value": {
                                        "current": "4304862274010",
                                        "prev": "4538649084020",
                                        "typeTag": 1
                                    }
                                }
                            ],
                            "typeTag": 4
                        }
                    }
                ]
            },
            {
                "address": "0xf57e7e7c23978c3caec3c3548e3d615c346e79ff",
                "erc": "ERC-20",
                "slots": [
                    {
                        "current": "0x0000000000000000000000000000000000000000000007ccbf2491d9f67a8400",
                        "key": "0xc4897320dc958fb2f3b9ff76e8c2a24b22a473be9e6205618c56acf517263fff",
                        "prev": "0x0000000000000000000000000000000000000000000008e2770cbf08bca68400"
                    },
                    {
                        "current": "0x000000000000000000000000000000000000000000000115b7e82d2ec62c0000",
                        "key": "0xfa856cf251ccc6ceba3fca8d352770401755d6d659937eaef50b8320175224de",
                        "prev": "0x0000000000000000000000000000000000000000000000000000000000000000"
                    }
                ],
                "storageVariables": [
                    {
                        "name": "_balances",
                        "type": "mapping(address => uint256)",
                        "value": {
                            "pairs": [
                                {
                                    "key": "0x989a69a3e608483ae3f6fb21e2874f5c8fb98697",
                                    "value": {
                                        "current": "5123000000000000000000",
                                        "prev": "0",
                                        "typeTag": 1
                                    }
                                },
                                {
                                    "key": "0xd91efec7e42f80156d1d9f660a69847188950747",
                                    "value": {
                                        "current": "36833474465050000000000",
                                        "prev": "41956474465050000000000",
                                        "typeTag": 1
                                    }
                                }
                            ],
                            "typeTag": 4
                        }
                    }
                ]
            }
        ]
    }
}