{
    "balance_change": {
        "balanceChanges": [
            {
                "account": "0x5a7b9ac1a0cd20e1a9ead8b0d36ba97c9fed4dc9",
                "assets": [
                    {
                        "address": "0xd9a72fec8683db0666769d841d6d127f350b4418",
                        "amount": "276",
                        "iconUrl": "",
                        "isERC1155": false,
                        "isERC721": false,
                        "sign": false,
                        "value": ""
                    }
                ]
            },
            {
                "account": "0x6058ffe6c11a63809eac03e842de1be7e8d7d721",
                "assets": [
                    {
                        "address": "0xd9a72fec8683db0666769d841d6d127f350b4418",
                        "amount": "276",
                        "iconUrl": "",
                        "isERC1155": false,
                        "isERC721": false,
                        "sign": true,
                        "value": ""
                    }
                ]
            }
        ]
    },
    "profile": {
        "basic_info": {
            "baseFee": "",
            "blockNumber": 5234313,
            "callData": "0xa9059cbb0000000000000000000000006058ffe6c11a63809eac03e842de1be7e8d7d72100000000000000000000000000000000000000000000000ef644f9b077d00000",
            "debugEnable": true,
            "errorInfo": "",
            "eventCount": 1,
            "feeRecipient": "0x829bd824b016326a401d083b33d092293333a830",
            "formatValue": "0",
            "gasLimit": 100000,
            "gasPrice": "1",
            "gasUsed": 84316,
            "intTxnCount": 0,
            "internalRevert": false,
            "internalRevertMessage": "",
            "isContractCreation": false,
            "isFlashloan": false,
            "maxFee": "",
            "nonce": 0,
            "overwritedBlockNumber": -1,
            "priorityFee": "",
            "receiver": "0xd9a72fec8683db0666769d841d6d127f350b4418",
            "revertMessage": "",
            "sender": "0x5a7b9ac1a0cd20e1a9ead8b0d36ba97c9fed4dc9",
            "simulationEnable": true,
            "sourceTxnHash": "0x9fdb55beac78b16cf90b9c96ae135bb8db7817e9fa6d4f32f6439e7b7f4092bb",
            "status": true,
            "timestamp": "2018-03-11T05:06:25Z",
            "transactionFee": "0.000084316",
            "txnHash": "0x9fdb55beac78b16cf90b9c96ae135bb8db7817e9fa6d4f32f6439e7b7f4092bb",
            "txnIndex": 58,
            "type": 0,
            "value": "0"
        },
        "fund_flow": [
            {
                "amount": "276",
                "from": "0x5a7b9ac1a0cd20e1a9ead8b0d36ba97c9fed4dc9",
                "id": 1,
                "isERC1155": false,
                "isERC721": false,
                "isReverted": false,
                "order": 1,
                "to": "0x6058ffe6c11a63809eac03e842de1be7e8d7d721",
                "token": "0xd9a72fec8683db0666769d841d6d127f350b4418"
            }
        ],
        "token_infos": [
            {
                "address": "0xeeeeeeeeeeeeeeeeeeeeeeeeeeeeeeeeeeeeeeee",
                "decimals": 18
            },
            {
                "address": "0xc02aaa39b223fe8d0a0e5c4f27ead9083c756cc2",
                "decimals": 18
            },
            {
                "address": "0xd9a72fec8683db0666769d841d6d127f350b4418",
                "decimals": 18
            }
        ]
    },
    "address_label": {
        "labels": [
            {
                "address": "0x0000000000000000000000000000000000000001",
                "label": "Precompiled"
            },
            {
                "address": "0x0000000000000000000000000000000000000002",
                "label": "Precompiled"
            },
            {
                "address": "0x0000000000000000000000000000000000000003",
                "label": "Precompiled"
            },
            {
                "address": "0x0000000000000000000000000000000000000004",
                "label": "Precompiled"
            },
            {
                "address": "0xeeeeeeeeeeeeeeeeeeeeeeeeeeeeeeeeeeeeeeee",
                "label": "Ether"
            },
            {
                "address": "0xd9a72fec8683db0666769d841d6d127f350b4418",
                "label": "SURPRISE (SPS)"
            }
        ]
    },
    "trace": {
        "accountLabels": null,
        "dataMap": {
            "-1": {
                "invocation": {
                    "address": "0x5a7b9ac1a0cd20e1a9ead8b0d36ba97c9fed4dc9",
                    "callData": "",
                    "decodedMethod": null,
                    "errorInfo": "",
                    "fromAddress": "",
                    "gasUsed": 0,
                    "id": -1,
                    "methodDecoded": false,
                    "operation": "",
                    "output": "",
                    "revert": false,
                    "revertMessage": "",
                    "selector": "",
                    "status": false,
                    "value": ""
                },
                "nodeType": 0
            },
            "0": {
                "invocation": {
                    "address": "0xd9a72fec8683db0666769d841d6d127f350b4418",
                    "callData": "0x0000000000000000000000006058ffe6c11a63809eac03e842de1be7e8d7d72100000000000000000000000000000000000000000000000ef644f9b077d00000",
                    "decodedMethod": {
                        "callParams": [
                            {
                                "name": "_to",
                                "type": "address",
                                "value": "0x6058ffe6c11a63809eac03e842de1be7e8d7d721"
                            },
                            {
                                "decimalAvailable": true,
                                "name": "_value",
                                "type": "uint256",
                                "value": "276,000,000,000,000,000,000"
                            }
                        ],
                        "constructorArguments": "",
                        "name": "transfer",
                        "returnParams": [
                            {
                                "name": "",
                                "type": "bool",
                                "value": true
                            }
                        ],
                        "signature": "transfer(address,uint256)"
                    },
                    "errorInfo": "",
                    "fromAddress": "0x5a7b9ac1a0cd20e1a9ead8b0d36ba97c9fed4dc9",
                    "gasUsed": 84316,
                    "id": 0,
                    "methodDecoded": true,
                    "operation": "CALL",
                    "output": "0x0000000000000000000000000000000000000000000000000000000000000001",
                    "revert": false,
                    "revertMessage": "",
                    "selector": "0xa9059cbb",
                    "status": true,
                    "value": "0"
                },
                "nodeType": 0
            },
            "1": {
                "event": {
                    "contract": "0xd9a72fec8683db0666769d841d6d127f350b4418",
                    "decodedLog": {
                        "name": "Transfer",
                        "params": [
                            {
                                "name": "from",
                                "type": "address",
                                "value": "0x5a7b9ac1a0cd20e1a9ead8b0d36ba97c9fed4dc9"
                            },
                            {
                                "name": "to",
                                "type": "address",
                                "value": "0x6058ffe6c11a63809eac03e842de1be7e8d7d721"
                            },
                            {
                                "decimalAvailable": true,
                                "name": "value",
                                "type": "uint256",
                                "value": "276,000,000,000,000,000,000"
                            }
                        ],
                        "signature": "Transfer(address,address,uint256)"
                    },
                    "id": 1,
                    "logData": "0x00000000000000000000000000000000000000000000000ef644f9b077d00000",
                    "logDecoded": true,
                    "operation": "EVENT",
                    "revert": false,
                    "status": true,
                    "topics": [
                        "0xddf252ad1be2c89b69c2b068fc378daa952ba7f163c4a11628f55a4df523b3ef",
                        "0x0000000000000000000000005a7b9ac1a0cd20e1a9ead8b0d36ba97c9fed4dc9",
                        "0x0000000000000000000000006058ffe6c11a63809eac03e842de1be7e8d7d721"
                    ]
                },
                "nodeType": 1
            }
        },
        "gasFlame": [
            {
                "children": [
                    {
                        "children": [
                            {
                                "children": [],
                                "depth": 0,
                                "name": "Initial Gas",
                                "value": 23256
                            },
                            {
                                "children": [],
                                "depth": 0,
                                "name": "Executed Gas",
                                "value": 76060
                            }
                        ],
                        "depth": -1,
                        "name": "Actual Gas Used",
                        "value": 84316
                    },
                    {
                        "children": [],
                        "depth": -1,
                        "name": "Refunded Gas",
                        "value": 15000
                    }
                ],
                "depth": -2,
                "name": "Total Gas",
                "value": 99316
            }
        ],
        "isConfirmed": true,
        "mainTrace": [
            {
                "children": [
                    {
                        "children": [
                            {
                                "children": [],
                                "depth": 1,
                                "id": 1,
                                "order": 1
                            }
                        ],
                        "depth": 0,
                        "id": 0,
                        "order": 0
                    }
                ],
                "depth": -1,
                "id": -1,
                "order": -1
            }
        ],
        "mainTraceNodeCount": 2,
        "parentIdMap": {
            "0": -1,
            "1": 0
        },
        "tidyTrace": [
            {
                "children": [
                    {
                        "children": [
                            {
                                "children": [],
                                "depth": 1,
                                "id": 1,
                                "order": 1
                            }
                        ],
                        "depth": 0,
                        "id": 0,
                        "order": 0
                    }
                ],
                "depth": -1,
                "id": -1,
                "order": -1
            }
        ],
        "tidyTraceNodeCount": 2
    },
    "state_change": {
        "stateChanges": [
            {
                "address": "0xd9a72fec8683db0666769d841d6d127f350b4418",
                "erc": "ERC-20",
                "slots": [
                    {
                        "current": "0x0000000000000000000000000000000000000000000000000000000000000001",
                        "key": "0xaca0e6203807cd4a0b7b9eb141ce7766ced8e1ab3ab4e1d70b121326abdfc4c3",
                        "prev": "0x0000000000000000000000000000000000000000000000000000000000000000"
                    },
                    {
                        "current": "0x000000000000000000000000000000000000000000017bd5f90ecaf1a5700000",
                        "key": "0x0000000000000000000000000000000000000000000000000000000000000002",
                        "prev": "0x000000000000000000000000000000000000000000017bc702c9d1412da00000"
                    },
                    {
                        "current": "0x00000000000000000000000000000000000000000000000ef644f9b077d00000",
                        "key": "0x8cd1ce02d57cf98f8ed088691190d8a04b034cdb4719e774708eb89eb1d15315",
                        "prev": "0x0000000000000000000000000000000000000000000000000000000000000000"
                    }
                ],
                "storageVariables": [
                    {
                        "name": "currentTotalSupply",
                        "type": "uint256",
                        "value": {
                            "current": "1793724000000000000000000",
                            "prev": "1793448000000000000000000",
                            "typeTag": 1
                        }
                    },
                    {
                        "name": "balances",
                        "type": "mapping(address => uint256)",
                        "value": {
                            "pairs": [
                                {
                                    "key": "0x6058ffe6c11a63809eac03e842de1be7e8d7d721",
                                    "value": {
                                        "current": "276000000000000000000",
                                        "prev": "0",
                                        "typeTag": 1
                                    }
                                }
                            ],
                            "typeTag": 4
                        }
                    },
                    {
                        "name": "touched",
                        "type": "mapping(address => bool)",
                        "value": {
                            "pairs": [
                                {
                                    "key": "0x5a7b9ac1a0cd20e1a9ead8b0d36ba97c9fed4dc9",
                                    "value": {
                                        "current": "true",
                                        "prev": "false",
                                        "typeTag": 1
                                    }
                                }
                            ],
                            "typeTag": 4
                        }
                    }
                ]
            }
        ]
    }
}