{
    "balance_change": {
        "balanceChanges": [
            {
                "account": "0x8b213991ae297e84d8d83f129d138bc9f2a593a8",
                "assets": [
                    {
                        "address": "0x1e3fe98d1c89865b6b819bbfd532dadab3b34d2d",
                        "amount": "1,096.7",
                        "iconUrl": "",
                        "isERC1155": false,
                        "isERC721": false,
                        "sign": false,
                        "value": ""
                    }
                ]
            },
            {
                "account": "0xf14b049ba802c5655eb18df766f294ef22895822",
                "assets": [
                    {
                        "address": "0x1e3fe98d1c89865b6b819bbfd532dadab3b34d2d",
                        "amount": "1,096.7",
                        "iconUrl": "",
                        "isERC1155": false,
                        "isERC721": false,
                        "sign": true,
                        "value": ""
                    }
                ]
            }
        ]
    },
    "profile": {
        "basic_info": {
            "baseFee": "",
            "blockNumber": 9510141,
            "callData": "0xa9059cbb000000000000000000000000f14b049ba802c5655eb18df766f294ef2289582200000000000000000000000000000000000000000000003b73c5176f32e60000",
            "debugEnable": true,
            "errorInfo": "",
            "eventCount": 1,
            "feeRecipient": "0x52bc44d5378309ee2abf1539bf71de1b7d7be3b5",
            "formatValue": "0",
            "gasLimit": 60000,
            "gasPrice": "20",
            "gasUsed": 37112,
            "intTxnCount": 0,
            "internalRevert": false,
            "internalRevertMessage": "",
            "isContractCreation": false,
            "isFlashloan": false,
            "maxFee": "",
            "nonce": 11778,
            "overwritedBlockNumber": -1,
            "priorityFee": "",
            "receiver": "0x1e3fe98d1c89865b6b819bbfd532dadab3b34d2d",
            "revertMessage": "",
            "sender": "0x8b213991ae297e84d8d83f129d138bc9f2a593a8",
            "simulationEnable": true,
            "sourceTxnHash": "0x9f5ef21732d3e5aa8be144a422d902adbe17f199156fe81c90e8e84d6a3a219b",
            "status": true,
            "timestamp": "2020-02-18T23:44:09Z",
            "transactionFee": "0.00074224",
            "txnHash": "0x9f5ef21732d3e5aa8be144a422d902adbe17f199156fe81c90e8e84d6a3a219b",
            "txnIndex": 9,
            "type": 0,
            "value": "0"
        },
        "fund_flow": [
            {
                "amount": "1,096.7",
                "from": "0x8b213991ae297e84d8d83f129d138bc9f2a593a8",
                "id": 1,
                "isERC1155": false,
                "isERC721": false,
                "isReverted": false,
                "order": 1,
                "to": "0xf14b049ba802c5655eb18df766f294ef22895822",
                "token": "0x1e3fe98d1c89865b6b819bbfd532dadab3b34d2d"
            }
        ],
        "token_infos": [
            {
                "address": "0x1e3fe98d1c89865b6b819bbfd532dadab3b34d2d",
                "decimals": 18
            },
            {
                "address": "0xc02aaa39b223fe8d0a0e5c4f27ead9083c756cc2",
                "decimals": 18
            },
            {
                "address": "0xeeeeeeeeeeeeeeeeeeeeeeeeeeeeeeeeeeeeeeee",
                "decimals": 18
            }
        ]
    },
    "address_label": {
        "labels": [
            {
                "address": "0x0000000000000000000000000000000000000004",
                "label": "Precompiled"
            },
            {
                "address": "0xeeeeeeeeeeeeeeeeeeeeeeeeeeeeeeeeeeeeeeee",
                "label": "Ether"
            },
            {
                "address": "0x1e3fe98d1c89865b6b819bbfd532dadab3b34d2d",
                "label": "DET"
            },
            {
                "address": "0x0000000000000000000000000000000000000001",
                "label": "Precompiled"
            },
            {
                "address": "0x0000000000000000000000000000000000000002",
                "label": "Precompiled"
            },
            {
                "address": "0x0000000000000000000000000000000000000003",
                "label": "Precompiled"
            }
        ]
    },
    "trace": {
        "accountLabels": null,
        "dataMap": {
            "-1": {
                "invocation": {
                    "address": "0x8b213991ae297e84d8d83f129d138bc9f2a593a8",
                    "callData": "",
                    "decodedMethod": null,
                    "errorInfo": "",
                    "fromAddress": "",
                    "gasUsed": 0,
                    "id": -1,
                    "methodDecoded": false,
                    "operation": "",
                    "output": "",
                    "revert": false,
                    "revertMessage": "",
                    "selector": "",
                    "status": false,
                    "value": ""
                },
                "nodeType": 0
            },
            "0": {
                "invocation": {
                    "address": "0x1e3fe98d1c89865b6b819bbfd532dadab3b34d2d",
                    "callData": "0x000000000000000000000000f14b049ba802c5655eb18df766f294ef2289582200000000000000000000000000000000000000000000003b73c5176f32e60000",
                    "decodedMethod": {
                        "callParams": [
                            {
                                "name": "_to",
                                "type": "address",
                                "value": "0xf14b049ba802c5655eb18df766f294ef22895822"
                            },
                            {
                                "decimalAvailable": true,
                                "name": "_value",
                                "type": "uint256",
                                "value": "1,096,700,000,000,000,000,000"
                            }
                        ],
                        "constructorArguments": "",
                        "name": "transfer",
                        "returnParams": [
                            {
                                "name": "",
                                "type": "bool",
                                "value": true
                            }
                        ],
                        "signature": "transfer(address,uint256)"
                    },
                    "errorInfo": "",
                    "fromAddress": "0x8b213991ae297e84d8d83f129d138bc9f2a593a8",
                    "gasUsed": 37112,
                    "id": 0,
                    "methodDecoded": true,
                    "operation": "CALL",
                    "output": "0x0000000000000000000000000000000000000000000000000000000000000001",
                    "revert": false,
                    "revertMessage": "",
                    "selector": "0xa9059cbb",
                    "status": true,
                    "value": "0"
                },
                "nodeType": 0
            },
            "1": {
                "event": {
                    "contract": "0x1e3fe98d1c89865b6b819bbfd532dadab3b34d2d",
                    "decodedLog": {
                        "name": "Transfer",
                        "params": [
                            {
                                "name": "from",
                                "type": "address",
                                "value": "0x8b213991ae297e84d8d83f129d138bc9f2a593a8"
                            },
                            {
                                "name": "to",
                                "type": "address",
                                "value": "0xf14b049ba802c5655eb18df766f294ef22895822"
                            },
                            {
                                "decimalAvailable": true,
                                "name": "value",
                                "type": "uint256",
                                "value": "1,096,700,000,000,000,000,000"
                            }
                        ],
                        "signature": "Transfer(address,address,uint256)"
                    },
                    "id": 1,
                    "logData": "0x00000000000000000000000000000000000000000000003b73c5176f32e60000",
                    "logDecoded": true,
                    "operation": "EVENT",
                    "revert": false,
                    "status": true,
                    "topics": [
                        "0xddf252ad1be2c89b69c2b068fc378daa952ba7f163c4a11628f55a4df523b3ef",
                        "0x0000000000000000000000008b213991ae297e84d8d83f129d138bc9f2a593a8",
                        "0x000000000000000000000000f14b049ba802c5655eb18df766f294ef22895822"
                    ]
                },
                "nodeType": 1
            }
        },
        "gasFlame": [
            {
                "children": [
                    {
                        "children": [
                            {
                                "children": [],
                                "depth": 0,
                                "name": "Initial Gas",
                                "value": 21644
                            },
                            {
                                "children": [],
                                "depth": 0,
                                "name": "Executed Gas",
                                "value": 15468
                            }
                        ],
                        "depth": -1,
                        "name": "Actual Gas Used",
                        "value": 37112
                    },
                    {
                        "children": [],
                        "depth": -1,
                        "name": "Refunded Gas",
                        "value": 0
                    }
                ],
                "depth": -2,
                "name": "Total Gas",
                "value": 37112
            }
        ],
        "isConfirmed": true,
        "mainTrace": [
            {
                "children": [
                    {
                        "children": [
                            {
                                "children": [],
                                "depth": 1,
                                "id": 1,
                                "order": 1
                            }
                        ],
                        "depth": 0,
                        "id": 0,
                        "order": 0
                    }
                ],
                "depth": -1,
                "id": -1,
                "order": -1
            }
        ],
        "mainTraceNodeCount": 2,
        "parentIdMap": {
            "0": -1,
            "1": 0
        },
        "tidyTrace": [
            {
                "children": [
                    {
                        "children": [
                            {
                                "children": [],
                                "depth": 1,
                                "id": 1,
                                "order": 1
                            }
                        ],
                        "depth": 0,
                        "id": 0,
                        "order": 0
                    }
                ],
                "depth": -1,
                "id": -1,
                "order": -1
            }
        ],
        "tidyTraceNodeCount": 2
    },
    "state_change": {
        "stateChanges": [
            {
                "address": "0x1e3fe98d1c89865b6b819bbfd532dadab3b34d2d",
                "erc": "ERC-20",
                "slots": [
                    {
                        "current": "0x0000000000000000000000000000000000000000003e2e1b6835641f3f37401a",
                        "key": "0x851aafed55d9ee8d2f38bd87b894de0b194ced982fbf7583215af5d4ba5baa79",
                        "prev": "0x0000000000000000000000000000000000000000003e2e56dbfa7b8e721d401a"
                    },
                    {
                        "current": "0x0000000000000000000000000000000000000000000003bef6e368138e930000",
                        "key": "0x5217512c23a2324c2f4ac90b0ac6e6c00bcf88718f8dcefae9ddbb4c470c6693",
                        "prev": "0x000000000000000000000000000000000000000000000383831e50a45bad0000"
                    }
                ],
                "storageVariables": [
                    {
                        "name": "balances",
                        "type": "mapping(address => uint256)",
                        "value": {
                            "pairs": [
                                {
                                    "key": "0x8b213991ae297e84d8d83f129d138bc9f2a593a8",
                                    "value": {
                                        "current": "75171135245427041747025946",
                                        "prev": "75172231945427041747025946",
                                        "typeTag": 1
                                    }
                                },
                                {
                                    "key": "0xf14b049ba802c5655eb18df766f294ef22895822",
                                    "value": {
                                        "current": "17689770999999999705088",
                                        "prev": "16593070999999999705088",
                                        "typeTag": 1
                                    }
                                }
                            ],
                            "typeTag": 4
                        }
                    }
                ]
            }
        ]
    }
}