{
    "balance_change": {
        "balanceChanges": [
            {
                "account": "0x098848caa08ecf2256bffc2cb3d353416d103147",
                "assets": [
                    {
                        "address": "0xa80f2c8f61c56546001f5fc2eb8d6e4e72c45d4c",
                        "amount": "766.67",
                        "iconUrl": "",
                        "isERC1155": false,
                        "isERC721": false,
                        "sign": false,
                        "value": "2380.397543"
                    }
                ]
            },
            {
                "account": "0xe8582bd23fe58e16e5f37ddd7d745629ee6f46cd",
                "assets": [
                    {
                        "address": "0xa80f2c8f61c56546001f5fc2eb8d6e4e72c45d4c",
                        "amount": "766.67",
                        "iconUrl": "",
                        "isERC1155": false,
                        "isERC721": false,
                        "sign": true,
                        "value": "2380.397543"
                    }
                ]
            }
        ]
    },
    "profile": {
        "basic_info": {
            "baseFee": "70.369593293",
            "blockNumber": 12966600,
            "callData": "0xa9059cbb000000000000000000000000e8582bd23fe58e16e5f37ddd7d745629ee6f46cd0000000000000000000000000000000000000000000000298faeff021cbb0000",
            "debugEnable": true,
            "errorInfo": "",
            "eventCount": 1,
            "feeRecipient": "0x99c85bb64564d9ef9a99621301f22c9993cb89e3",
            "formatValue": "0",
            "gasLimit": 35387,
            "gasPrice": "71.746170729",
            "gasUsed": 35387,
            "intTxnCount": 0,
            "internalRevert": false,
            "internalRevertMessage": "",
            "isContractCreation": false,
            "isFlashloan": false,
            "maxFee": "",
            "nonce": 3,
            "overwritedBlockNumber": -1,
            "priorityFee": "",
            "receiver": "0xa80f2c8f61c56546001f5fc2eb8d6e4e72c45d4c",
            "revertMessage": "",
            "sender": "0x098848caa08ecf2256bffc2cb3d353416d103147",
            "simulationEnable": true,
            "sourceTxnHash": "0x9f2e064007656b9ff7803938b9f7bcf2f6e43864b34e36a58802fa3857fbc5e6",
            "status": true,
            "timestamp": "2021-08-05T18:39:35Z",
            "transactionFee": "0.002538881743587123",
            "txnHash": "0x9f2e064007656b9ff7803938b9f7bcf2f6e43864b34e36a58802fa3857fbc5e6",
            "txnIndex": 159,
            "type": 0,
            "value": "0"
        },
        "fund_flow": [
            {
                "amount": "766.67",
                "from": "0x098848caa08ecf2256bffc2cb3d353416d103147",
                "id": 1,
                "isERC1155": false,
                "isERC721": false,
                "isReverted": false,
                "order": 1,
                "to": "0xe8582bd23fe58e16e5f37ddd7d745629ee6f46cd",
                "token": "0xa80f2c8f61c56546001f5fc2eb8d6e4e72c45d4c"
            }
        ],
        "token_infos": [
            {
                "address": "0xa80f2c8f61c56546001f5fc2eb8d6e4e72c45d4c",
                "decimals": 18
            },
            {
                "address": "0xc02aaa39b223fe8d0a0e5c4f27ead9083c756cc2",
                "decimals": 18
            },
            {
                "address": "0xeeeeeeeeeeeeeeeeeeeeeeeeeeeeeeeeeeeeeeee",
                "decimals": 18
            }
        ]
    },
    "address_label": {
        "labels": [
            {
                "address": "0x0000000000000000000000000000000000000004",
                "label": "Precompiled"
            },
            {
                "address": "0xeeeeeeeeeeeeeeeeeeeeeeeeeeeeeeeeeeeeeeee",
                "label": "Ether"
            },
            {
                "address": "0xa80f2c8f61c56546001f5fc2eb8d6e4e72c45d4c",
                "label": "Unique Utility: UNQT Token"
            },
            {
                "address": "0x0000000000000000000000000000000000000001",
                "label": "Precompiled"
            },
            {
                "address": "0x0000000000000000000000000000000000000002",
                "label": "Precompiled"
            },
            {
                "address": "0x0000000000000000000000000000000000000003",
                "label": "Precompiled"
            }
        ]
    },
    "trace": {
        "accountLabels": null,
        "dataMap": {
            "-1": {
                "invocation": {
                    "address": "0x098848caa08ecf2256bffc2cb3d353416d103147",
                    "callData": "",
                    "decodedMethod": null,
                    "errorInfo": "",
                    "fromAddress": "",
                    "gasUsed": 0,
                    "id": -1,
                    "methodDecoded": false,
                    "operation": "",
                    "output": "",
                    "revert": false,
                    "revertMessage": "",
                    "selector": "",
                    "status": false,
                    "value": ""
                },
                "nodeType": 0
            },
            "0": {
                "invocation": {
                    "address": "0xa80f2c8f61c56546001f5fc2eb8d6e4e72c45d4c",
                    "callData": "0x000000000000000000000000e8582bd23fe58e16e5f37ddd7d745629ee6f46cd0000000000000000000000000000000000000000000000298faeff021cbb0000",
                    "decodedMethod": {
                        "callParams": [
                            {
                                "name": "to",
                                "type": "address",
                                "value": "0xe8582bd23fe58e16e5f37ddd7d745629ee6f46cd"
                            },
                            {
                                "decimalAvailable": true,
                                "name": "tokens",
                                "type": "uint256",
                                "value": "766,670,000,000,000,000,000"
                            }
                        ],
                        "constructorArguments": "",
                        "name": "transfer",
                        "returnParams": [
                            {
                                "name": "success",
                                "type": "bool",
                                "value": true
                            }
                        ],
                        "signature": "transfer(address,uint256)"
                    },
                    "errorInfo": "",
                    "fromAddress": "0x098848caa08ecf2256bffc2cb3d353416d103147",
                    "gasUsed": 35387,
                    "id": 0,
                    "methodDecoded": true,
                    "operation": "CALL",
                    "output": "0x0000000000000000000000000000000000000000000000000000000000000001",
                    "revert": false,
                    "revertMessage": "",
                    "selector": "0xa9059cbb",
                    "status": true,
                    "value": "0"
                },
                "nodeType": 0
            },
            "1": {
                "event": {
                    "contract": "0xa80f2c8f61c56546001f5fc2eb8d6e4e72c45d4c",
                    "decodedLog": {
                        "name": "Transfer",
                        "params": [
                            {
                                "name": "from",
                                "type": "address",
                                "value": "0x098848caa08ecf2256bffc2cb3d353416d103147"
                            },
                            {
                                "name": "to",
                                "type": "address",
                                "value": "0xe8582bd23fe58e16e5f37ddd7d745629ee6f46cd"
                            },
                            {
                                "decimalAvailable": true,
                                "name": "value",
                                "type": "uint256",
                                "value": "766,670,000,000,000,000,000"
                            }
                        ],
                        "signature": "Transfer(address,address,uint256)"
                    },
                    "id": 1,
                    "logData": "0x0000000000000000000000000000000000000000000000298faeff021cbb0000",
                    "logDecoded": true,
                    "operation": "EVENT",
                    "revert": false,
                    "status": true,
                    "topics": [
                        "0xddf252ad1be2c89b69c2b068fc378daa952ba7f163c4a11628f55a4df523b3ef",
                        "0x000000000000000000000000098848caa08ecf2256bffc2cb3d353416d103147",
                        "0x000000000000000000000000e8582bd23fe58e16e5f37ddd7d745629ee6f46cd"
                    ]
                },
                "nodeType": 1
            }
        },
        "gasFlame": [
            {
                "children": [
                    {
                        "children": [
                            {
                                "children": [],
                                "depth": 0,
                                "name": "Initial Gas",
                                "value": 21644
                            },
                            {
                                "children": [],
                                "depth": 0,
                                "name": "Executed Gas",
                                "value": 13743
                            }
                        ],
                        "depth": -1,
                        "name": "Actual Gas Used",
                        "value": 35387
                    },
                    {
                        "children": [],
                        "depth": -1,
                        "name": "Refunded Gas",
                        "value": 0
                    }
                ],
                "depth": -2,
                "name": "Total Gas",
                "value": 35387
            }
        ],
        "isConfirmed": true,
        "mainTrace": [
            {
                "children": [
                    {
                        "children": [
                            {
                                "children": [],
                                "depth": 1,
                                "id": 1,
                                "order": 1
                            }
                        ],
                        "depth": 0,
                        "id": 0,
                        "order": 0
                    }
                ],
                "depth": -1,
                "id": -1,
                "order": -1
            }
        ],
        "mainTraceNodeCount": 2,
        "parentIdMap": {
            "0": -1,
            "1": 0
        },
        "tidyTrace": [
            {
                "children": [
                    {
                        "children": [
                            {
                                "children": [],
                                "depth": 1,
                                "id": 1,
                                "order": 1
                            }
                        ],
                        "depth": 0,
                        "id": 0,
                        "order": 0
                    }
                ],
                "depth": -1,
                "id": -1,
                "order": -1
            }
        ],
        "tidyTraceNodeCount": 2
    },
    "state_change": {
        "stateChanges": [
            {
                "address": "0xa80f2c8f61c56546001f5fc2eb8d6e4e72c45d4c",
                "erc": "ERC-20",
                "slots": [
                    {
                        "current": "0x00000000000000000000000000000000000000000000000063a47bf56f4e0000",
                        "key": "0x6836ab14e212a3661ab44b8c1f33dadfbb56724beec7eca071a6536ba9ab66e0",
                        "prev": "0x000000000000000000000000000000000000000000000029f3537af78c090000"
                    },
                    {
                        "current": "0x00000000000000000000000000000000000000000004ae9628a28a3ed57e96fc",
                        "key": "0xef1eb1ba47114cc1e8d41e8beb9d08c584e90ce8acd26491813c4bd1f9dfc20f",
                        "prev": "0x00000000000000000000000000000000000000000004ae6c98f38b3cb8c396fc"
                    }
                ],
                "storageVariables": [
                    {
                        "name": "balances",
                        "type": "mapping(address => uint256)",
                        "value": {
                            "pairs": [
                                {
                                    "key": "0x098848caa08ecf2256bffc2cb3d353416d103147",
                                    "value": {
                                        "current": "7180000000000000000",
                                        "prev": "773850000000000000000",
                                        "typeTag": 1
                                    }
                                },
                                {
                                    "key": "0xe8582bd23fe58e16e5f37ddd7d745629ee6f46cd",
                                    "value": {
                                        "current": "5660164986143601617442556",
                                        "prev": "5659398316143601617442556",
                                        "typeTag": 1
                                    }
                                }
                            ],
                            "typeTag": 4
                        }
                    }
                ]
            }
        ]
    }
}