{
    "balance_change": {
        "balanceChanges": []
    },
    "profile": {
        "basic_info": {
            "baseFee": "5.074969907",
            "blockNumber": 15291018,
            "callData": "0xa22cb4650000000000000000000000001e0049783f008a0085193e00003d00cd54003c710000000000000000000000000000000000000000000000000000000000000001",
            "debugEnable": true,
            "errorInfo": "",
            "eventCount": 1,
            "feeRecipient": "0xc730b028da66ebb14f20e67c68dd809fbc49890d",
            "formatValue": "0",
            "gasLimit": 46076,
            "gasPrice": "7.574969907",
            "gasUsed": 46076,
            "intTxnCount": 0,
            "internalRevert": false,
            "internalRevertMessage": "",
            "isContractCreation": false,
            "isFlashloan": false,
            "maxFee": "13.235174814",
            "nonce": 5,
            "overwritedBlockNumber": -1,
            "priorityFee": "2.5",
            "receiver": "0x7bd29408f11d2bfc23c34f18275bbf23bb716bc7",
            "revertMessage": "",
            "sender": "0xd21175eb3fb28f86b11fc5051f81898a9b3ca547",
            "simulationEnable": true,
            "sourceTxnHash": "0x9fb232ee9599d1eed454a551dfff904898cf2dbecd506646c24dd92e2e6a7802",
            "status": true,
            "timestamp": "2022-08-06T20:52:33Z",
            "transactionFee": "0.000349024313434932",
            "txnHash": "0x9fb232ee9599d1eed454a551dfff904898cf2dbecd506646c24dd92e2e6a7802",
            "txnIndex": 109,
            "type": 2,
            "value": "0"
        },
        "fund_flow": [],
        "token_infos": [
            {
                "address": "0xc02aaa39b223fe8d0a0e5c4f27ead9083c756cc2",
                "decimals": 18
            },
            {
                "address": "0xeeeeeeeeeeeeeeeeeeeeeeeeeeeeeeeeeeeeeeee",
                "decimals": 18
            }
        ]
    },
    "address_label": {
        "labels": [
            {
                "address": "0x0000000000000000000000000000000000000003",
                "label": "Precompiled"
            },
            {
                "address": "0x0000000000000000000000000000000000000004",
                "label": "Precompiled"
            },
            {
                "address": "0xeeeeeeeeeeeeeeeeeeeeeeeeeeeeeeeeeeeeeeee",
                "label": "Ether"
            },
            {
                "address": "0x1e0049783f008a0085193e00003d00cd54003c71",
                "label": "OpenSea: Conduit"
            },
            {
                "address": "0x7bd29408f11d2bfc23c34f18275bbf23bb716bc7",
                "label": "Meebits: \u2687 Token"
            },
            {
                "address": "0x0000000000000000000000000000000000000001",
                "label": "Precompiled"
            },
            {
                "address": "0x0000000000000000000000000000000000000002",
                "label": "Precompiled"
            }
        ]
    },
    "trace": {
        "accountLabels": null,
        "dataMap": {
            "-1": {
                "invocation": {
                    "address": "0xd21175eb3fb28f86b11fc5051f81898a9b3ca547",
                    "callData": "",
                    "decodedMethod": null,
                    "errorInfo": "",
                    "fromAddress": "",
                    "gasUsed": 0,
                    "id": -1,
                    "methodDecoded": false,
                    "operation": "",
                    "output": "",
                    "revert": false,
                    "revertMessage": "",
                    "selector": "",
                    "status": false,
                    "value": ""
                },
                "nodeType": 0
            },
            "0": {
                "invocation": {
                    "address": "0x7bd29408f11d2bfc23c34f18275bbf23bb716bc7",
                    "callData": "0x0000000000000000000000001e0049783f008a0085193e00003d00cd54003c710000000000000000000000000000000000000000000000000000000000000001",
                    "decodedMethod": {
                        "callParams": [
                            {
                                "name": "_operator",
                                "type": "address",
                                "value": "0x1e0049783f008a0085193e00003d00cd54003c71"
                            },
                            {
                                "name": "_approved",
                                "type": "bool",
                                "value": true
                            }
                        ],
                        "constructorArguments": "",
                        "name": "setApprovalForAll",
                        "returnParams": [],
                        "signature": "setApprovalForAll(address,bool)"
                    },
                    "errorInfo": "",
                    "fromAddress": "0xd21175eb3fb28f86b11fc5051f81898a9b3ca547",
                    "gasUsed": 46076,
                    "id": 0,
                    "methodDecoded": true,
                    "operation": "CALL",
                    "output": "",
                    "revert": false,
                    "revertMessage": "",
                    "selector": "0xa22cb465",
                    "status": true,
                    "value": "0"
                },
                "nodeType": 0
            },
            "1": {
                "event": {
                    "contract": "0x7bd29408f11d2bfc23c34f18275bbf23bb716bc7",
                    "decodedLog": {
                        "name": "ApprovalForAll",
                        "params": [
                            {
                                "name": "owner",
                                "type": "address",
                                "value": "0xd21175eb3fb28f86b11fc5051f81898a9b3ca547"
                            },
                            {
                                "name": "operator",
                                "type": "address",
                                "value": "0x1e0049783f008a0085193e00003d00cd54003c71"
                            },
                            {
                                "name": "approved",
                                "type": "bool",
                                "value": true
                            }
                        ],
                        "signature": "ApprovalForAll(address,address,bool)"
                    },
                    "id": 1,
                    "logData": "0x0000000000000000000000000000000000000000000000000000000000000001",
                    "logDecoded": true,
                    "operation": "EVENT",
                    "revert": false,
                    "status": true,
                    "topics": [
                        "0x17307eab39ab6107e8899845ad3d59bd9653f200f220920489ca2b5937696c31",
                        "0x000000000000000000000000d21175eb3fb28f86b11fc5051f81898a9b3ca547",
                        "0x0000000000000000000000001e0049783f008a0085193e00003d00cd54003c71"
                    ]
                },
                "nodeType": 1
            }
        },
        "gasFlame": [
            {
                "children": [
                    {
                        "children": [
                            {
                                "children": [],
                                "depth": 0,
                                "name": "Initial Gas",
                                "value": 21488
                            },
                            {
                                "children": [],
                                "depth": 0,
                                "name": "Executed Gas",
                                "value": 24588
                            }
                        ],
                        "depth": -1,
                        "name": "Actual Gas Used",
                        "value": 46076
                    },
                    {
                        "children": [],
                        "depth": -1,
                        "name": "Refunded Gas",
                        "value": 0
                    }
                ],
                "depth": -2,
                "name": "Total Gas",
                "value": 46076
            }
        ],
        "isConfirmed": true,
        "mainTrace": [
            {
                "children": [
                    {
                        "children": [
                            {
                                "children": [],
                                "depth": 1,
                                "id": 1,
                                "order": 1
                            }
                        ],
                        "depth": 0,
                        "id": 0,
                        "order": 0
                    }
                ],
                "depth": -1,
                "id": -1,
                "order": -1
            }
        ],
        "mainTraceNodeCount": 2,
        "parentIdMap": {
            "0": -1,
            "1": 0
        },
        "tidyTrace": [
            {
                "children": [
                    {
                        "children": [
                            {
                                "children": [],
                                "depth": 1,
                                "id": 1,
                                "order": 1
                            }
                        ],
                        "depth": 0,
                        "id": 0,
                        "order": 0
                    }
                ],
                "depth": -1,
                "id": -1,
                "order": -1
            }
        ],
        "tidyTraceNodeCount": 2
    },
    "state_change": {
        "stateChanges": [
            {
                "address": "0x7bd29408f11d2bfc23c34f18275bbf23bb716bc7",
                "erc": "ERC-721",
                "slots": [
                    {
                        "current": "0x0000000000000000000000000000000000000000000000000000000000000001",
                        "key": "0x4342ac17014fe27233414c55aef2b9693afcb0639d70f93b5b09c0adc8b061d9",
                        "prev": "0x0000000000000000000000000000000000000000000000000000000000000000"
                    }
                ],
                "storageVariables": [
                    {
                        "name": "ownerToOperators",
                        "type": "mapping(address => mapping(address => bool))",
                        "value": {
                            "pairs": [
                                {
                                    "key": "0xd21175eb3fb28f86b11fc5051f81898a9b3ca547",
                                    "value": {
                                        "pairs": [
                                            {
                                                "key": "0x1e0049783f008a0085193e00003d00cd54003c71",
                                                "value": {
                                                    "current": "true",
                                                    "prev": "false",
                                                    "typeTag": 1
                                                }
                                            }
                                        ],
                                        "typeTag": 4
                                    }
                                }
                            ],
                            "typeTag": 4
                        }
                    }
                ]
            }
        ]
    }
}