{
    "balance_change": {
        "balanceChanges": [
            {
                "account": "0x5b08fb38ed6113a02cec39d9b6b9ee40cf6734ac",
                "assets": [
                    {
                        "address": "0x5e7ebea68ab05198f771d77a875480314f1d0aae",
                        "amount": "15.934259259259259258",
                        "iconUrl": "",
                        "isERC1155": false,
                        "isERC721": false,
                        "sign": true,
                        "value": ""
                    }
                ]
            },
            {
                "account": "0x0a7d984c7f91e9be3ea02a5369fcc9f1a4f6a322",
                "assets": [
                    {
                        "address": "0x5e7ebea68ab05198f771d77a875480314f1d0aae",
                        "amount": "16.481481481481481479",
                        "iconUrl": "",
                        "isERC1155": false,
                        "isERC721": false,
                        "sign": false,
                        "value": ""
                    }
                ]
            },
            {
                "account": "0xf0342819ad53288c92665658a0f39afec4ba6000",
                "assets": [
                    {
                        "address": "0x5e7ebea68ab05198f771d77a875480314f1d0aae",
                        "amount": "0.51074074074074074",
                        "iconUrl": "",
                        "isERC1155": false,
                        "isERC721": false,
                        "sign": true,
                        "value": ""
                    }
                ]
            },
            {
                "account": "0xfe894f1fcf787cfd44d05ca18f246d18f9066143",
                "assets": [
                    {
                        "address": "0x5e7ebea68ab05198f771d77a875480314f1d0aae",
                        "amount": "0.036481481481481481",
                        "iconUrl": "",
                        "isERC1155": false,
                        "isERC721": false,
                        "sign": true,
                        "value": ""
                    }
                ]
            }
        ]
    },
    "profile": {
        "basic_info": {
            "baseFee": "",
            "blockNumber": 8757564,
            "callData": "0x40e800d80000000000000000000000000000000000000000000000000000000000000000000000000000000000000000000000000000000000000000000000000000002d000000000000000000000000000000000000000000000001158e460913d000000000000000000000000000008bd9aec4bbb22c7c6dcf32154c9290a8ef95bd5100000000000000000000000000000000000000000000000000000000000000c00000000000000000000000000000000000000000000000000000000000000100000000000000000000000000000000000000000000000000000000000000000d3135373133303134323639323900000000000000000000000000000000000000000000000000000000000000000000000000000000000000000000000000000b6c75636b794e756d626572000000000000000000000000000000000000000000",
            "debugEnable": true,
            "errorInfo": "",
            "eventCount": 7,
            "feeRecipient": "0x5a0b54d5dc17e0aadc383d2db43b0a0d3e029c4c",
            "formatValue": "0",
            "gasLimit": 220000,
            "gasPrice": "2",
            "gasUsed": 198211,
            "intTxnCount": 7,
            "internalRevert": false,
            "internalRevertMessage": "",
            "isContractCreation": false,
            "isFlashloan": false,
            "maxFee": "",
            "nonce": 729,
            "overwritedBlockNumber": -1,
            "priorityFee": "",
            "receiver": "0x0a7d984c7f91e9be3ea02a5369fcc9f1a4f6a322",
            "revertMessage": "",
            "sender": "0x5b08fb38ed6113a02cec39d9b6b9ee40cf6734ac",
            "simulationEnable": true,
            "sourceTxnHash": "0x9f64a47af82330549b13548a1a23130218dae34cc4fff5f9bd28541b9ff44b5e",
            "status": true,
            "timestamp": "2019-10-17T08:38:14Z",
            "transactionFee": "0.000396422",
            "txnHash": "0x9f64a47af82330549b13548a1a23130218dae34cc4fff5f9bd28541b9ff44b5e",
            "txnIndex": 26,
            "type": 0,
            "value": "0"
        },
        "fund_flow": [
            {
                "amount": "20",
                "from": "0x5b08fb38ed6113a02cec39d9b6b9ee40cf6734ac",
                "id": 1,
                "isERC1155": false,
                "isERC721": false,
                "isReverted": false,
                "order": 1,
                "to": "0x0a7d984c7f91e9be3ea02a5369fcc9f1a4f6a322",
                "token": "0x5e7ebea68ab05198f771d77a875480314f1d0aae"
            },
            {
                "amount": "0.036481481481481481",
                "from": "0x0a7d984c7f91e9be3ea02a5369fcc9f1a4f6a322",
                "id": 2,
                "isERC1155": false,
                "isERC721": false,
                "isReverted": false,
                "order": 2,
                "to": "0xfe894f1fcf787cfd44d05ca18f246d18f9066143",
                "token": "0x5e7ebea68ab05198f771d77a875480314f1d0aae"
            },
            {
                "amount": "0.51074074074074074",
                "from": "0x0a7d984c7f91e9be3ea02a5369fcc9f1a4f6a322",
                "id": 3,
                "isERC1155": false,
                "isERC721": false,
                "isReverted": false,
                "order": 3,
                "to": "0xf0342819ad53288c92665658a0f39afec4ba6000",
                "token": "0x5e7ebea68ab05198f771d77a875480314f1d0aae"
            },
            {
                "amount": "35.934259259259259258",
                "from": "0x0a7d984c7f91e9be3ea02a5369fcc9f1a4f6a322",
                "id": 4,
                "isERC1155": false,
                "isERC721": false,
                "isReverted": false,
                "order": 4,
                "to": "0x5b08fb38ed6113a02cec39d9b6b9ee40cf6734ac",
                "token": "0x5e7ebea68ab05198f771d77a875480314f1d0aae"
            }
        ],
        "token_infos": [
            {
                "address": "0x5e7ebea68ab05198f771d77a875480314f1d0aae",
                "decimals": 18
            },
            {
                "address": "0xc02aaa39b223fe8d0a0e5c4f27ead9083c756cc2",
                "decimals": 18
            },
            {
                "address": "0xeeeeeeeeeeeeeeeeeeeeeeeeeeeeeeeeeeeeeeee",
                "decimals": 18
            }
        ]
    },
    "address_label": {
        "labels": [
            {
                "address": "0x0000000000000000000000000000000000000003",
                "label": "Precompiled"
            },
            {
                "address": "0x0000000000000000000000000000000000000004",
                "label": "Precompiled"
            },
            {
                "address": "0xeeeeeeeeeeeeeeeeeeeeeeeeeeeeeeeeeeeeeeee",
                "label": "Ether"
            },
            {
                "address": "0x5e7ebea68ab05198f771d77a875480314f1d0aae",
                "label": "DABANKING: DAB Token"
            },
            {
                "address": "0xa8745e0bf1953f9a8ee785b22dc2b383dbf795e6",
                "label": "Citizen"
            },
            {
                "address": "0x0000000000000000000000000000000000000001",
                "label": "Precompiled"
            },
            {
                "address": "0x0000000000000000000000000000000000000002",
                "label": "Precompiled"
            }
        ]
    },
    "trace": {
        "accountLabels": null,
        "dataMap": {
            "-1": {
                "invocation": {
                    "address": "0x5b08fb38ed6113a02cec39d9b6b9ee40cf6734ac",
                    "callData": "",
                    "decodedMethod": null,
                    "errorInfo": "",
                    "fromAddress": "",
                    "gasUsed": 0,
                    "id": -1,
                    "methodDecoded": false,
                    "operation": "",
                    "output": "",
                    "revert": false,
                    "revertMessage": "",
                    "selector": "",
                    "status": false,
                    "value": ""
                },
                "nodeType": 0
            },
            "0": {
                "invocation": {
                    "address": "0x0a7d984c7f91e9be3ea02a5369fcc9f1a4f6a322",
                    "callData": "0x0000000000000000000000000000000000000000000000000000000000000000000000000000000000000000000000000000000000000000000000000000002d000000000000000000000000000000000000000000000001158e460913d000000000000000000000000000008bd9aec4bbb22c7c6dcf32154c9290a8ef95bd5100000000000000000000000000000000000000000000000000000000000000c00000000000000000000000000000000000000000000000000000000000000100000000000000000000000000000000000000000000000000000000000000000d3135373133303134323639323900000000000000000000000000000000000000000000000000000000000000000000000000000000000000000000000000000b6c75636b794e756d626572000000000000000000000000000000000000000000",
                    "decodedMethod": null,
                    "errorInfo": "",
                    "fromAddress": "0x5b08fb38ed6113a02cec39d9b6b9ee40cf6734ac",
                    "gasUsed": 198211,
                    "id": 0,
                    "methodDecoded": false,
                    "operation": "CALL",
                    "output": "",
                    "revert": false,
                    "revertMessage": "",
                    "selector": "0x40e800d8",
                    "status": true,
                    "value": "0"
                },
                "nodeType": 0
            },
            "1": {
                "invocation": {
                    "address": "0x5e7ebea68ab05198f771d77a875480314f1d0aae",
                    "callData": "0x0000000000000000000000005b08fb38ed6113a02cec39d9b6b9ee40cf6734ac0000000000000000000000000a7d984c7f91e9be3ea02a5369fcc9f1a4f6a322",
                    "decodedMethod": {
                        "callParams": [
                            {
                                "name": "owner",
                                "type": "address",
                                "value": "0x5b08fb38ed6113a02cec39d9b6b9ee40cf6734ac"
                            },
                            {
                                "name": "spender",
                                "type": "address",
                                "value": "0x0a7d984c7f91e9be3ea02a5369fcc9f1a4f6a322"
                            }
                        ],
                        "constructorArguments": "",
                        "name": "allowance",
                        "returnParams": [
                            {
                                "decimalAvailable": true,
                                "name": "",
                                "type": "uint256",
                                "value": "99,997,455,000,000,000,000,000,000"
                            }
                        ],
                        "signature": "allowance(address,address)"
                    },
                    "errorInfo": "",
                    "fromAddress": "0x0a7d984c7f91e9be3ea02a5369fcc9f1a4f6a322",
                    "gasUsed": 928,
                    "id": 1,
                    "methodDecoded": true,
                    "operation": "CALL",
                    "output": "0x00000000000000000000000000000000000000000052b748e5cfbccfcadc0000",
                    "revert": false,
                    "revertMessage": "",
                    "selector": "0xdd62ed3e",
                    "status": true,
                    "value": "0"
                },
                "nodeType": 0
            },
            "10": {
                "event": {
                    "contract": "0xfe894f1fcf787cfd44d05ca18f246d18f9066143",
                    "decodedLog": null,
                    "id": 10,
                    "logData": "0x0000000000000000000000005b08fb38ed6113a02cec39d9b6b9ee40cf6734ac000000000000000000000000000000000000000000000000000000000000a95500000000000000000000000000000000000000000000000000000000000000800000000000000000000000000000000000000000000000000000000000000001000000000000000000000000000000000000000000000000000000000000000b6c75636b794e756d626572000000000000000000000000000000000000000000",
                    "logDecoded": false,
                    "operation": "EVENT",
                    "revert": false,
                    "status": true,
                    "topics": [
                        "0x258b9c776e0814f5e1631b2e237129a3bcd6f6940aed2c9d192ba39f607f5d5f",
                        "0x0000000000000000000000000000000000000000000000000000000000000001"
                    ]
                },
                "nodeType": 1
            },
            "11": {
                "invocation": {
                    "address": "0x5e7ebea68ab05198f771d77a875480314f1d0aae",
                    "callData": "0x0000000000000000000000005b08fb38ed6113a02cec39d9b6b9ee40cf6734ac000000000000000000000000000000000000000000000001f2b022688ef0897a",
                    "decodedMethod": {
                        "callParams": [
                            {
                                "name": "to",
                                "type": "address",
                                "value": "0x5b08fb38ed6113a02cec39d9b6b9ee40cf6734ac"
                            },
                            {
                                "decimalAvailable": true,
                                "name": "value",
                                "type": "uint256",
                                "value": "35,934,259,259,259,259,258"
                            }
                        ],
                        "constructorArguments": "",
                        "name": "transfer",
                        "returnParams": [
                            {
                                "name": "",
                                "type": "bool",
                                "value": true
                            }
                        ],
                        "signature": "transfer(address,uint256)"
                    },
                    "errorInfo": "",
                    "fromAddress": "0x0a7d984c7f91e9be3ea02a5369fcc9f1a4f6a322",
                    "gasUsed": 13549,
                    "id": 11,
                    "methodDecoded": true,
                    "operation": "CALL",
                    "output": "0x0000000000000000000000000000000000000000000000000000000000000001",
                    "revert": false,
                    "revertMessage": "",
                    "selector": "0xa9059cbb",
                    "status": true,
                    "value": "0"
                },
                "nodeType": 0
            },
            "12": {
                "event": {
                    "contract": "0x5e7ebea68ab05198f771d77a875480314f1d0aae",
                    "decodedLog": {
                        "name": "Transfer",
                        "params": [
                            {
                                "name": "from",
                                "type": "address",
                                "value": "0x0a7d984c7f91e9be3ea02a5369fcc9f1a4f6a322"
                            },
                            {
                                "name": "to",
                                "type": "address",
                                "value": "0x5b08fb38ed6113a02cec39d9b6b9ee40cf6734ac"
                            },
                            {
                                "decimalAvailable": true,
                                "name": "value",
                                "type": "uint256",
                                "value": "35,934,259,259,259,259,258"
                            }
                        ],
                        "signature": "Transfer(address,address,uint256)"
                    },
                    "id": 12,
                    "logData": "0x000000000000000000000000000000000000000000000001f2b022688ef0897a",
                    "logDecoded": true,
                    "operation": "EVENT",
                    "revert": false,
                    "status": true,
                    "topics": [
                        "0xddf252ad1be2c89b69c2b068fc378daa952ba7f163c4a11628f55a4df523b3ef",
                        "0x0000000000000000000000000a7d984c7f91e9be3ea02a5369fcc9f1a4f6a322",
                        "0x0000000000000000000000005b08fb38ed6113a02cec39d9b6b9ee40cf6734ac"
                    ]
                },
                "nodeType": 1
            },
            "13": {
                "invocation": {
                    "address": "0xa8745e0bf1953f9a8ee785b22dc2b383dbf795e6",
                    "callData": "0x0000000000000000000000008bd9aec4bbb22c7c6dcf32154c9290a8ef95bd51",
                    "decodedMethod": {
                        "callParams": [
                            {
                                "name": "_investor",
                                "type": "address",
                                "value": "0x8bd9aec4bbb22c7c6dcf32154c9290a8ef95bd51"
                            }
                        ],
                        "constructorArguments": "",
                        "name": "isCitizen",
                        "returnParams": [
                            {
                                "name": "",
                                "type": "bool",
                                "value": true
                            }
                        ],
                        "signature": "isCitizen(address)"
                    },
                    "errorInfo": "",
                    "fromAddress": "0x0a7d984c7f91e9be3ea02a5369fcc9f1a4f6a322",
                    "gasUsed": 3004,
                    "id": 13,
                    "methodDecoded": true,
                    "operation": "CALL",
                    "output": "0x0000000000000000000000000000000000000000000000000000000000000001",
                    "revert": false,
                    "revertMessage": "",
                    "selector": "0xf3caad03",
                    "status": true,
                    "value": "0"
                },
                "nodeType": 0
            },
            "14": {
                "event": {
                    "contract": "0x0a7d984c7f91e9be3ea02a5369fcc9f1a4f6a322",
                    "decodedLog": null,
                    "id": 14,
                    "logData": "0x0000000000000000000000000000000000000000000000000000000000000000000000000000000000000000000000000000000000000000000000000000002d0000000000000000000000000000000000000000000000000000000000000055000000000000000000000000000000000000000000000000e14bacc893be897a000000000000000000000000000000000000000000000001f2b022688ef0897a",
                    "logDecoded": false,
                    "operation": "EVENT",
                    "revert": false,
                    "status": true,
                    "topics": [
                        "0xe260bb0cdf58af341d75a45558e03a7d5ed5b9d61f99704337af3c9b2a0a0e39",
                        "0x0000000000000000000000005b08fb38ed6113a02cec39d9b6b9ee40cf6734ac",
                        "0x000000000000000000000000000000000000000000000001158e460913d00000",
                        "0x0000000000000000000000000000000000000000000000000000000000000036"
                    ]
                },
                "nodeType": 1
            },
            "2": {
                "invocation": {
                    "address": "0x5e7ebea68ab05198f771d77a875480314f1d0aae",
                    "callData": "0x0000000000000000000000005b08fb38ed6113a02cec39d9b6b9ee40cf6734ac0000000000000000000000000a7d984c7f91e9be3ea02a5369fcc9f1a4f6a322000000000000000000000000000000000000000000000001158e460913d00000",
                    "decodedMethod": {
                        "callParams": [
                            {
                                "name": "from",
                                "type": "address",
                                "value": "0x5b08fb38ed6113a02cec39d9b6b9ee40cf6734ac"
                            },
                            {
                                "name": "to",
                                "type": "address",
                                "value": "0x0a7d984c7f91e9be3ea02a5369fcc9f1a4f6a322"
                            },
                            {
                                "decimalAvailable": true,
                                "name": "value",
                                "type": "uint256",
                                "value": "20,000,000,000,000,000,000"
                            }
                        ],
                        "constructorArguments": "",
                        "name": "transferFrom",
                        "returnParams": [
                            {
                                "name": "",
                                "type": "bool",
                                "value": true
                            }
                        ],
                        "signature": "transferFrom(address,address,uint256)"
                    },
                    "errorInfo": "",
                    "fromAddress": "0x0a7d984c7f91e9be3ea02a5369fcc9f1a4f6a322",
                    "gasUsed": 21219,
                    "id": 2,
                    "methodDecoded": true,
                    "operation": "CALL",
                    "output": "0x0000000000000000000000000000000000000000000000000000000000000001",
                    "revert": false,
                    "revertMessage": "",
                    "selector": "0x23b872dd",
                    "status": true,
                    "value": "0"
                },
                "nodeType": 0
            },
            "3": {
                "event": {
                    "contract": "0x5e7ebea68ab05198f771d77a875480314f1d0aae",
                    "decodedLog": {
                        "name": "Transfer",
                        "params": [
                            {
                                "name": "from",
                                "type": "address",
                                "value": "0x5b08fb38ed6113a02cec39d9b6b9ee40cf6734ac"
                            },
                            {
                                "name": "to",
                                "type": "address",
                                "value": "0x0a7d984c7f91e9be3ea02a5369fcc9f1a4f6a322"
                            },
                            {
                                "decimalAvailable": true,
                                "name": "value",
                                "type": "uint256",
                                "value": "20,000,000,000,000,000,000"
                            }
                        ],
                        "signature": "Transfer(address,address,uint256)"
                    },
                    "id": 3,
                    "logData": "0x000000000000000000000000000000000000000000000001158e460913d00000",
                    "logDecoded": true,
                    "operation": "EVENT",
                    "revert": false,
                    "status": true,
                    "topics": [
                        "0xddf252ad1be2c89b69c2b068fc378daa952ba7f163c4a11628f55a4df523b3ef",
                        "0x0000000000000000000000005b08fb38ed6113a02cec39d9b6b9ee40cf6734ac",
                        "0x0000000000000000000000000a7d984c7f91e9be3ea02a5369fcc9f1a4f6a322"
                    ]
                },
                "nodeType": 1
            },
            "4": {
                "event": {
                    "contract": "0x5e7ebea68ab05198f771d77a875480314f1d0aae",
                    "decodedLog": {
                        "name": "Approval",
                        "params": [
                            {
                                "name": "owner",
                                "type": "address",
                                "value": "0x5b08fb38ed6113a02cec39d9b6b9ee40cf6734ac"
                            },
                            {
                                "name": "spender",
                                "type": "address",
                                "value": "0x0a7d984c7f91e9be3ea02a5369fcc9f1a4f6a322"
                            },
                            {
                                "decimalAvailable": true,
                                "name": "value",
                                "type": "uint256",
                                "value": "99,997,435,000,000,000,000,000,000"
                            }
                        ],
                        "signature": "Approval(address,address,uint256)"
                    },
                    "id": 4,
                    "logData": "0x00000000000000000000000000000000000000000052b747d04176c6b70c0000",
                    "logDecoded": true,
                    "operation": "EVENT",
                    "revert": false,
                    "status": true,
                    "topics": [
                        "0x8c5be1e5ebec7d5bd14f71427d1e84f3dd0314c0f7b2291e5b200ac8c7c3b925",
                        "0x0000000000000000000000005b08fb38ed6113a02cec39d9b6b9ee40cf6734ac",
                        "0x0000000000000000000000000a7d984c7f91e9be3ea02a5369fcc9f1a4f6a322"
                    ]
                },
                "nodeType": 1
            },
            "5": {
                "invocation": {
                    "address": "0x5e7ebea68ab05198f771d77a875480314f1d0aae",
                    "callData": "0x000000000000000000000000fe894f1fcf787cfd44d05ca18f246d18f906614300000000000000000000000000000000000000000000000000819bb6d0956d09",
                    "decodedMethod": {
                        "callParams": [
                            {
                                "name": "to",
                                "type": "address",
                                "value": "0xfe894f1fcf787cfd44d05ca18f246d18f9066143"
                            },
                            {
                                "decimalAvailable": true,
                                "name": "value",
                                "type": "uint256",
                                "value": "36,481,481,481,481,481"
                            }
                        ],
                        "constructorArguments": "",
                        "name": "transfer",
                        "returnParams": [
                            {
                                "name": "",
                                "type": "bool",
                                "value": true
                            }
                        ],
                        "signature": "transfer(address,uint256)"
                    },
                    "errorInfo": "",
                    "fromAddress": "0x0a7d984c7f91e9be3ea02a5369fcc9f1a4f6a322",
                    "gasUsed": 13549,
                    "id": 5,
                    "methodDecoded": true,
                    "operation": "CALL",
                    "output": "0x0000000000000000000000000000000000000000000000000000000000000001",
                    "revert": false,
                    "revertMessage": "",
                    "selector": "0xa9059cbb",
                    "status": true,
                    "value": "0"
                },
                "nodeType": 0
            },
            "6": {
                "event": {
                    "contract": "0x5e7ebea68ab05198f771d77a875480314f1d0aae",
                    "decodedLog": {
                        "name": "Transfer",
                        "params": [
                            {
                                "name": "from",
                                "type": "address",
                                "value": "0x0a7d984c7f91e9be3ea02a5369fcc9f1a4f6a322"
                            },
                            {
                                "name": "to",
                                "type": "address",
                                "value": "0xfe894f1fcf787cfd44d05ca18f246d18f9066143"
                            },
                            {
                                "decimalAvailable": true,
                                "name": "value",
                                "type": "uint256",
                                "value": "36,481,481,481,481,481"
                            }
                        ],
                        "signature": "Transfer(address,address,uint256)"
                    },
                    "id": 6,
                    "logData": "0x00000000000000000000000000000000000000000000000000819bb6d0956d09",
                    "logDecoded": true,
                    "operation": "EVENT",
                    "revert": false,
                    "status": true,
                    "topics": [
                        "0xddf252ad1be2c89b69c2b068fc378daa952ba7f163c4a11628f55a4df523b3ef",
                        "0x0000000000000000000000000a7d984c7f91e9be3ea02a5369fcc9f1a4f6a322",
                        "0x000000000000000000000000fe894f1fcf787cfd44d05ca18f246d18f9066143"
                    ]
                },
                "nodeType": 1
            },
            "7": {
                "invocation": {
                    "address": "0x5e7ebea68ab05198f771d77a875480314f1d0aae",
                    "callData": "0x000000000000000000000000f0342819ad53288c92665658a0f39afec4ba6000000000000000000000000000000000000000000000000000071683ff682bf684",
                    "decodedMethod": {
                        "callParams": [
                            {
                                "name": "to",
                                "type": "address",
                                "value": "0xf0342819ad53288c92665658a0f39afec4ba6000"
                            },
                            {
                                "decimalAvailable": true,
                                "name": "value",
                                "type": "uint256",
                                "value": "510,740,740,740,740,740"
                            }
                        ],
                        "constructorArguments": "",
                        "name": "transfer",
                        "returnParams": [
                            {
                                "name": "",
                                "type": "bool",
                                "value": true
                            }
                        ],
                        "signature": "transfer(address,uint256)"
                    },
                    "errorInfo": "",
                    "fromAddress": "0x0a7d984c7f91e9be3ea02a5369fcc9f1a4f6a322",
                    "gasUsed": 13549,
                    "id": 7,
                    "methodDecoded": true,
                    "operation": "CALL",
                    "output": "0x0000000000000000000000000000000000000000000000000000000000000001",
                    "revert": false,
                    "revertMessage": "",
                    "selector": "0xa9059cbb",
                    "status": true,
                    "value": "0"
                },
                "nodeType": 0
            },
            "8": {
                "event": {
                    "contract": "0x5e7ebea68ab05198f771d77a875480314f1d0aae",
                    "decodedLog": {
                        "name": "Transfer",
                        "params": [
                            {
                                "name": "from",
                                "type": "address",
                                "value": "0x0a7d984c7f91e9be3ea02a5369fcc9f1a4f6a322"
                            },
                            {
                                "name": "to",
                                "type": "address",
                                "value": "0xf0342819ad53288c92665658a0f39afec4ba6000"
                            },
                            {
                                "decimalAvailable": true,
                                "name": "value",
                                "type": "uint256",
                                "value": "510,740,740,740,740,740"
                            }
                        ],
                        "signature": "Transfer(address,address,uint256)"
                    },
                    "id": 8,
                    "logData": "0x000000000000000000000000000000000000000000000000071683ff682bf684",
                    "logDecoded": true,
                    "operation": "EVENT",
                    "revert": false,
                    "status": true,
                    "topics": [
                        "0xddf252ad1be2c89b69c2b068fc378daa952ba7f163c4a11628f55a4df523b3ef",
                        "0x0000000000000000000000000a7d984c7f91e9be3ea02a5369fcc9f1a4f6a322",
                        "0x000000000000000000000000f0342819ad53288c92665658a0f39afec4ba6000"
                    ]
                },
                "nodeType": 1
            },
            "9": {
                "invocation": {
                    "address": "0xfe894f1fcf787cfd44d05ca18f246d18f9066143",
                    "callData": "0x0000000000000000000000005b08fb38ed6113a02cec39d9b6b9ee40cf6734ac00000000000000000000000000000000000000000000000000000000000000600000000000000000000000000000000000000000000000000000000000000001000000000000000000000000000000000000000000000000000000000000000b6c75636b794e756d626572000000000000000000000000000000000000000000",
                    "decodedMethod": null,
                    "errorInfo": "",
                    "fromAddress": "0x0a7d984c7f91e9be3ea02a5369fcc9f1a4f6a322",
                    "gasUsed": 30090,
                    "id": 9,
                    "methodDecoded": false,
                    "operation": "CALL",
                    "output": "",
                    "revert": false,
                    "revertMessage": "",
                    "selector": "0x7d8fe32e",
                    "status": true,
                    "value": "0"
                },
                "nodeType": 0
            }
        },
        "gasFlame": [
            {
                "children": [
                    {
                        "children": [
                            {
                                "children": [],
                                "depth": 0,
                                "name": "Initial Gas",
                                "value": 26072
                            },
                            {
                                "children": [
                                    {
                                        "children": [],
                                        "depth": 1,
                                        "name": "allowance",
                                        "value": 928
                                    },
                                    {
                                        "children": [],
                                        "depth": 1,
                                        "name": "transferFrom",
                                        "value": 21219
                                    },
                                    {
                                        "children": [],
                                        "depth": 1,
                                        "name": "transfer",
                                        "value": 13549
                                    },
                                    {
                                        "children": [],
                                        "depth": 1,
                                        "name": "transfer",
                                        "value": 13549
                                    },
                                    {
                                        "children": [],
                                        "depth": 1,
                                        "name": "0x7d8fe32e",
                                        "value": 30090
                                    },
                                    {
                                        "children": [],
                                        "depth": 1,
                                        "name": "transfer",
                                        "value": 13549
                                    },
                                    {
                                        "children": [],
                                        "depth": 1,
                                        "name": "isCitizen",
                                        "value": 3004
                                    }
                                ],
                                "depth": 0,
                                "name": "Executed Gas",
                                "value": 172139
                            }
                        ],
                        "depth": -1,
                        "name": "Actual Gas Used",
                        "value": 198211
                    },
                    {
                        "children": [],
                        "depth": -1,
                        "name": "Refunded Gas",
                        "value": 0
                    }
                ],
                "depth": -2,
                "name": "Total Gas",
                "value": 198211
            }
        ],
        "isConfirmed": true,
        "mainTrace": [
            {
                "children": [
                    {
                        "children": [
                            {
                                "children": [],
                                "depth": 1,
                                "id": 1,
                                "order": 1
                            },
                            {
                                "children": [
                                    {
                                        "children": [],
                                        "depth": 2,
                                        "id": 3,
                                        "order": 3
                                    },
                                    {
                                        "children": [],
                                        "depth": 2,
                                        "id": 4,
                                        "order": 4
                                    }
                                ],
                                "depth": 1,
                                "id": 2,
                                "order": 2
                            },
                            {
                                "children": [
                                    {
                                        "children": [],
                                        "depth": 2,
                                        "id": 6,
                                        "order": 6
                                    }
                                ],
                                "depth": 1,
                                "id": 5,
                                "order": 5
                            },
                            {
                                "children": [
                                    {
                                        "children": [],
                                        "depth": 2,
                                        "id": 8,
                                        "order": 8
                                    }
                                ],
                                "depth": 1,
                                "id": 7,
                                "order": 7
                            },
                            {
                                "children": [
                                    {
                                        "children": [],
                                        "depth": 2,
                                        "id": 10,
                                        "order": 10
                                    }
                                ],
                                "depth": 1,
                                "id": 9,
                                "order": 9
                            },
                            {
                                "children": [
                                    {
                                        "children": [],
                                        "depth": 2,
                                        "id": 12,
                                        "order": 12
                                    }
                                ],
                                "depth": 1,
                                "id": 11,
                                "order": 11
                            },
                            {
                                "children": [],
                                "depth": 1,
                                "id": 13,
                                "order": 13
                            },
                            {
                                "children": [],
                                "depth": 1,
                                "id": 14,
                                "order": 14
                            }
                        ],
                        "depth": 0,
                        "id": 0,
                        "order": 0
                    }
                ],
                "depth": -1,
                "id": -1,
                "order": -1
            }
        ],
        "mainTraceNodeCount": 15,
        "parentIdMap": {
            "0": -1,
            "1": 0,
            "10": 9,
            "11": 0,
            "12": 11,
            "13": 0,
            "14": 0,
            "2": 0,
            "3": 2,
            "4": 2,
            "5": 0,
            "6": 5,
            "7": 0,
            "8": 7,
            "9": 0
        },
        "tidyTrace": [
            {
                "children": [
                    {
                        "children": [
                            {
                                "children": [],
                                "depth": 1,
                                "id": 1,
                                "order": 1
                            },
                            {
                                "children": [
                                    {
                                        "children": [],
                                        "depth": 2,
                                        "id": 3,
                                        "order": 3
                                    },
                                    {
                                        "children": [],
                                        "depth": 2,
                                        "id": 4,
                                        "order": 4
                                    }
                                ],
                                "depth": 1,
                                "id": 2,
                                "order": 2
                            },
                            {
                                "children": [
                                    {
                                        "children": [],
                                        "depth": 2,
                                        "id": 6,
                                        "order": 6
                                    }
                                ],
                                "depth": 1,
                                "id": 5,
                                "order": 5
                            },
                            {
                                "children": [
                                    {
                                        "children": [],
                                        "depth": 2,
                                        "id": 8,
                                        "order": 8
                                    }
                                ],
                                "depth": 1,
                                "id": 7,
                                "order": 7
                            },
                            {
                                "children": [
                                    {
                                        "children": [],
                                        "depth": 2,
                                        "id": 10,
                                        "order": 10
                                    }
                                ],
                                "depth": 1,
                                "id": 9,
                                "order": 9
                            },
                            {
                                "children": [
                                    {
                                        "children": [],
                                        "depth": 2,
                                        "id": 12,
                                        "order": 12
                                    }
                                ],
                                "depth": 1,
                                "id": 11,
                                "order": 11
                            },
                            {
                                "children": [],
                                "depth": 1,
                                "id": 13,
                                "order": 13
                            },
                            {
                                "children": [],
                                "depth": 1,
                                "id": 14,
                                "order": 14
                            }
                        ],
                        "depth": 0,
                        "id": 0,
                        "order": 0
                    }
                ],
                "depth": -1,
                "id": -1,
                "order": -1
            }
        ],
        "tidyTraceNodeCount": 15
    },
    "state_change": {
        "stateChanges": [
            {
                "address": "0x0a7d984c7f91e9be3ea02a5369fcc9f1a4f6a322",
                "erc": "",
                "slots": [
                    {
                        "current": "0x0000000000000000000000000000000000000000000000000000000000010b85",
                        "key": "0x0000000000000000000000000000000000000000000000000000000000000003",
                        "prev": "0x0000000000000000000000000000000000000000000000000000000000010b84"
                    },
                    {
                        "current": "0x0000000000000000000000000000000000000000000228f11d2ecbeb6ee17258",
                        "key": "0x0000000000000000000000000000000000000000000000000000000000000002",
                        "prev": "0x0000000000000000000000000000000000000000000228ef2a7ea982dff0e8de"
                    },
                    {
                        "current": "0x00000000000000000000000000000000000000000000032fea959462644c0000",
                        "key": "0x377dfd69f889d0d9e16a64882922b379a7dcb074ce20f191ca4f8f31a36b1b5c",
                        "prev": "0x00000000000000000000000000000000000000000000032ed5074e59507c0000"
                    },
                    {
                        "current": "0x000000000000000000000000000000000000000000000008a325ded55efd0000",
                        "key": "0xd03e23df32d4614d612c83334bbf42b7cf8a68c9a15a1ec8cf471343946c582d",
                        "prev": "0x000000000000000000000000000000000000000000000008a1c2995d01730000"
                    },
                    {
                        "current": "0x0000000000000000000000000000000000000000000001410ce7d39bd6e731c2",
                        "key": "0x0000000000000000000000000000000000000000000000000000000000000011",
                        "prev": "0x000000000000000000000000000000000000000000000141f3051529e8531ecb"
                    },
                    {
                        "current": "0x00000000000000000000000000000000000000000000000000000000000002b0",
                        "key": "0x377dfd69f889d0d9e16a64882922b379a7dcb074ce20f191ca4f8f31a36b1b5d",
                        "prev": "0x00000000000000000000000000000000000000000000000000000000000002af"
                    },
                    {
                        "current": "0x00000000000000000000000000000000000000000000044862870572c5b9c885",
                        "key": "0x377dfd69f889d0d9e16a64882922b379a7dcb074ce20f191ca4f8f31a36b1b5f",
                        "prev": "0x0000000000000000000000000000000000000000000004466fd6e30a36c93f0b"
                    }
                ],
                "storageVariables": []
            },
            {
                "address": "0x5e7ebea68ab05198f771d77a875480314f1d0aae",
                "erc": "ERC-20",
                "slots": [
                    {
                        "current": "0x0000000000000000000000000000000000000000000002495bd630275bf7f21b",
                        "key": "0xefa8519cd6dbfb54ffb86a950b01a09ddc471e34f8e394865a29b330a2f47a35",
                        "prev": "0x00000000000000000000000000000000000000000000024a40902c3d0fd9df22"
                    },
                    {
                        "current": "0x00000000000000000000000000000000000000000052b747d04176c6b70c0000",
                        "key": "0xd0afe0e1ef53b22723edbc702fedc7463094d935c2e1cb902c4b0e483192e8c0",
                        "prev": "0x00000000000000000000000000000000000000000052b748e5cfbccfcadc0000"
                    },
                    {
                        "current": "0x0000000000000000000000000000000000000000000000986abe6c71090a13b5",
                        "key": "0x1ed5fe0302dd818bdb3064557be131589fe72954d127e50f69635f0f64c12d8c",
                        "prev": "0x0000000000000000000000000000000000000000000000978d9c90118de98a3b"
                    },
                    {
                        "current": "0x0000000000000000000000000000000000000000000003e6d240cea84c9126ec",
                        "key": "0x23fdf237820c617a151b819602ca88aa7b23ac492b835e9f405eba384ff3e9c3",
                        "prev": "0x0000000000000000000000000000000000000000000003e6d1bf32f17bfbb9e3"
                    },
                    {
                        "current": "0x00000000000000000000000000000000000000000000043aad54845d17d40b1a",
                        "key": "0x9e4ccc11e1f2ff8bc0e941df2e525921b1e9cc8233d5afccad36e9a5f68ee7ff",
                        "prev": "0x00000000000000000000000000000000000000000000043aa63e005dafa81496"
                    }
                ],
                "storageVariables": [
                    {
                        "name": "_balances",
                        "type": "mapping(address => uint256)",
                        "value": {
                            "pairs": [
                                {
                                    "key": "0x0a7d984c7f91e9be3ea02a5369fcc9f1a4f6a322",
                                    "value": {
                                        "current": "10797962812768160051739",
                                        "prev": "10814444294249641533218",
                                        "typeTag": 1
                                    }
                                },
                                {
                                    "key": "0x5b08fb38ed6113a02cec39d9b6b9ee40cf6734ac",
                                    "value": {
                                        "current": "2811596803650185991093",
                                        "prev": "2795662544390926731835",
                                        "typeTag": 1
                                    }
                                },
                                {
                                    "key": "0xf0342819ad53288c92665658a0f39afec4ba6000",
                                    "value": {
                                        "current": "19971866840955706673946",
                                        "prev": "19971356100214965933206",
                                        "typeTag": 1
                                    }
                                },
                                {
                                    "key": "0xfe894f1fcf787cfd44d05ca18f246d18f9066143",
                                    "value": {
                                        "current": "18425000921930841269996",
                                        "prev": "18424964440449359788515",
                                        "typeTag": 1
                                    }
                                }
                            ],
                            "typeTag": 4
                        }
                    },
                    {
                        "name": "_allowed",
                        "type": "mapping(address => mapping(address => uint256))",
                        "value": {
                            "pairs": [
                                {
                                    "key": "0x5b08fb38ed6113a02cec39d9b6b9ee40cf6734ac",
                                    "value": {
                                        "pairs": [
                                            {
                                                "key": "0x0a7d984c7f91e9be3ea02a5369fcc9f1a4f6a322",
                                                "value": {
                                                    "current": "99997435000000000000000000",
                                                    "prev": "99997455000000000000000000",
                                                    "typeTag": 1
                                                }
                                            }
                                        ],
                                        "typeTag": 4
                                    }
                                }
                            ],
                            "typeTag": 4
                        }
                    }
                ]
            },
            {
                "address": "0xfe894f1fcf787cfd44d05ca18f246d18f9066143",
                "erc": "",
                "slots": [
                    {
                        "current": "0x000000000000000000000000000000000000000000000000000000000000a56d",
                        "key": "0x0000000000000000000000000000000000000000000000000000000000000004",
                        "prev": "0x000000000000000000000000000000000000000000000000000000000000a56c"
                    },
                    {
                        "current": "0x0000000000000000000000005b08fb38ed6113a02cec39d9b6b9ee40cf6734ac",
                        "key": "0x8a35acfbc15ff81a39ae7d344fd709f28e8600b4aa8c65c6b64bfe7fe36c7707",
                        "prev": "0x0000000000000000000000000000000000000000000000000000000000000000"
                    }
                ],
                "storageVariables": []
            }
        ]
    }
}