{
    "balance_change": {
        "balanceChanges": [
            {
                "account": "0xf73c3c65bde10bf26c2e1763104e609a41702efe",
                "assets": [
                    {
                        "address": "0xed494c9e2f8e34e53bdd0ea9b4d80305cb15c5c2",
                        "amount": "300",
                        "iconUrl": "",
                        "isERC1155": false,
                        "isERC721": false,
                        "sign": false,
                        "value": ""
                    }
                ]
            },
            {
                "account": "0x456ca852c08ce270bce0417418e1cda8dbc423f8",
                "assets": [
                    {
                        "address": "0xed494c9e2f8e34e53bdd0ea9b4d80305cb15c5c2",
                        "amount": "300",
                        "iconUrl": "",
                        "isERC1155": false,
                        "isERC721": false,
                        "sign": true,
                        "value": ""
                    }
                ]
            }
        ]
    },
    "profile": {
        "basic_info": {
            "baseFee": "",
            "blockNumber": 6739462,
            "callData": "0xa9059cbb000000000000000000000000456ca852c08ce270bce0417418e1cda8dbc423f800000000000000000000000000000000000000000000001043561a8829300000",
            "debugEnable": true,
            "errorInfo": "",
            "eventCount": 1,
            "feeRecipient": "0x5a0b54d5dc17e0aadc383d2db43b0a0d3e029c4c",
            "formatValue": "0",
            "gasLimit": 400000,
            "gasPrice": "40",
            "gasUsed": 52106,
            "intTxnCount": 0,
            "internalRevert": false,
            "internalRevertMessage": "",
            "isContractCreation": false,
            "isFlashloan": false,
            "maxFee": "",
            "nonce": 292607,
            "overwritedBlockNumber": -1,
            "priorityFee": "",
            "receiver": "0xed494c9e2f8e34e53bdd0ea9b4d80305cb15c5c2",
            "revertMessage": "",
            "sender": "0xf73c3c65bde10bf26c2e1763104e609a41702efe",
            "simulationEnable": true,
            "sourceTxnHash": "0x9f2e86619b0d4c72fde23cb662fd1c112cfc76573dccaad4639f38eadcae4da0",
            "status": true,
            "timestamp": "2018-11-20T12:19:03Z",
            "transactionFee": "0.00208424",
            "txnHash": "0x9f2e86619b0d4c72fde23cb662fd1c112cfc76573dccaad4639f38eadcae4da0",
            "txnIndex": 142,
            "type": 0,
            "value": "0"
        },
        "fund_flow": [
            {
                "amount": "300",
                "from": "0xf73c3c65bde10bf26c2e1763104e609a41702efe",
                "id": 1,
                "isERC1155": false,
                "isERC721": false,
                "isReverted": false,
                "order": 1,
                "to": "0x456ca852c08ce270bce0417418e1cda8dbc423f8",
                "token": "0xed494c9e2f8e34e53bdd0ea9b4d80305cb15c5c2"
            }
        ],
        "token_infos": [
            {
                "address": "0xc02aaa39b223fe8d0a0e5c4f27ead9083c756cc2",
                "decimals": 18
            },
            {
                "address": "0xed494c9e2f8e34e53bdd0ea9b4d80305cb15c5c2",
                "decimals": 18
            },
            {
                "address": "0xeeeeeeeeeeeeeeeeeeeeeeeeeeeeeeeeeeeeeeee",
                "decimals": 18
            }
        ]
    },
    "address_label": {
        "labels": [
            {
                "address": "0x0000000000000000000000000000000000000002",
                "label": "Precompiled"
            },
            {
                "address": "0x0000000000000000000000000000000000000003",
                "label": "Precompiled"
            },
            {
                "address": "0x0000000000000000000000000000000000000004",
                "label": "Precompiled"
            },
            {
                "address": "0xeeeeeeeeeeeeeeeeeeeeeeeeeeeeeeeeeeeeeeee",
                "label": "Ether"
            },
            {
                "address": "0xf73c3c65bde10bf26c2e1763104e609a41702efe",
                "label": "Bibox"
            },
            {
                "address": "0xed494c9e2f8e34e53bdd0ea9b4d80305cb15c5c2",
                "label": "CWV Chain (CWV)"
            },
            {
                "address": "0x0000000000000000000000000000000000000001",
                "label": "Precompiled"
            }
        ]
    },
    "trace": {
        "accountLabels": null,
        "dataMap": {
            "-1": {
                "invocation": {
                    "address": "0xf73c3c65bde10bf26c2e1763104e609a41702efe",
                    "callData": "",
                    "decodedMethod": null,
                    "errorInfo": "",
                    "fromAddress": "",
                    "gasUsed": 0,
                    "id": -1,
                    "methodDecoded": false,
                    "operation": "",
                    "output": "",
                    "revert": false,
                    "revertMessage": "",
                    "selector": "",
                    "status": false,
                    "value": ""
                },
                "nodeType": 0
            },
            "0": {
                "invocation": {
                    "address": "0xed494c9e2f8e34e53bdd0ea9b4d80305cb15c5c2",
                    "callData": "0x000000000000000000000000456ca852c08ce270bce0417418e1cda8dbc423f800000000000000000000000000000000000000000000001043561a8829300000",
                    "decodedMethod": {
                        "callParams": [
                            {
                                "name": "to",
                                "type": "address",
                                "value": "0x456ca852c08ce270bce0417418e1cda8dbc423f8"
                            },
                            {
                                "decimalAvailable": true,
                                "name": "value",
                                "type": "uint256",
                                "value": "300,000,000,000,000,000,000"
                            }
                        ],
                        "constructorArguments": "",
                        "name": "transfer",
                        "returnParams": [
                            {
                                "name": "",
                                "type": "bool",
                                "value": true
                            }
                        ],
                        "signature": "transfer(address,uint256)"
                    },
                    "errorInfo": "",
                    "fromAddress": "0xf73c3c65bde10bf26c2e1763104e609a41702efe",
                    "gasUsed": 52106,
                    "id": 0,
                    "methodDecoded": true,
                    "operation": "CALL",
                    "output": "0x0000000000000000000000000000000000000000000000000000000000000001",
                    "revert": false,
                    "revertMessage": "",
                    "selector": "0xa9059cbb",
                    "status": true,
                    "value": "0"
                },
                "nodeType": 0
            },
            "1": {
                "event": {
                    "contract": "0xed494c9e2f8e34e53bdd0ea9b4d80305cb15c5c2",
                    "decodedLog": {
                        "name": "Transfer",
                        "params": [
                            {
                                "name": "from",
                                "type": "address",
                                "value": "0xf73c3c65bde10bf26c2e1763104e609a41702efe"
                            },
                            {
                                "name": "to",
                                "type": "address",
                                "value": "0x456ca852c08ce270bce0417418e1cda8dbc423f8"
                            },
                            {
                                "decimalAvailable": true,
                                "name": "value",
                                "type": "uint256",
                                "value": "300,000,000,000,000,000,000"
                            }
                        ],
                        "signature": "Transfer(address,address,uint256)"
                    },
                    "id": 1,
                    "logData": "0x00000000000000000000000000000000000000000000001043561a8829300000",
                    "logDecoded": true,
                    "operation": "EVENT",
                    "revert": false,
                    "status": true,
                    "topics": [
                        "0xddf252ad1be2c89b69c2b068fc378daa952ba7f163c4a11628f55a4df523b3ef",
                        "0x000000000000000000000000f73c3c65bde10bf26c2e1763104e609a41702efe",
                        "0x000000000000000000000000456ca852c08ce270bce0417418e1cda8dbc423f8"
                    ]
                },
                "nodeType": 1
            }
        },
        "gasFlame": [
            {
                "children": [
                    {
                        "children": [
                            {
                                "children": [],
                                "depth": 0,
                                "name": "Initial Gas",
                                "value": 23256
                            },
                            {
                                "children": [],
                                "depth": 0,
                                "name": "Executed Gas",
                                "value": 28850
                            }
                        ],
                        "depth": -1,
                        "name": "Actual Gas Used",
                        "value": 52106
                    },
                    {
                        "children": [],
                        "depth": -1,
                        "name": "Refunded Gas",
                        "value": 0
                    }
                ],
                "depth": -2,
                "name": "Total Gas",
                "value": 52106
            }
        ],
        "isConfirmed": true,
        "mainTrace": [
            {
                "children": [
                    {
                        "children": [
                            {
                                "children": [],
                                "depth": 1,
                                "id": 1,
                                "order": 1
                            }
                        ],
                        "depth": 0,
                        "id": 0,
                        "order": 0
                    }
                ],
                "depth": -1,
                "id": -1,
                "order": -1
            }
        ],
        "mainTraceNodeCount": 2,
        "parentIdMap": {
            "0": -1,
            "1": 0
        },
        "tidyTrace": [
            {
                "children": [
                    {
                        "children": [
                            {
                                "children": [],
                                "depth": 1,
                                "id": 1,
                                "order": 1
                            }
                        ],
                        "depth": 0,
                        "id": 0,
                        "order": 0
                    }
                ],
                "depth": -1,
                "id": -1,
                "order": -1
            }
        ],
        "tidyTraceNodeCount": 2
    },
    "state_change": {
        "stateChanges": [
            {
                "address": "0xed494c9e2f8e34e53bdd0ea9b4d80305cb15c5c2",
                "erc": "ERC-20",
                "slots": [
                    {
                        "current": "0x0000000000000000000000000000000000000000008b3cdc0f3172029338e400",
                        "key": "0xc335c71a8894d17b23c55188cc3bca0d0c8ab9c90625af5b59d0eb8f44906f3d",
                        "prev": "0x0000000000000000000000000000000000000000008b3cec52878c8abc68e400"
                    },
                    {
                        "current": "0x00000000000000000000000000000000000000000000001043561a8829300000",
                        "key": "0xe8b48dfffad2586a471664d266c7daa7ec4429ed4b637f2e0a27efd40a010be7",
                        "prev": "0x0000000000000000000000000000000000000000000000000000000000000000"
                    }
                ],
                "storageVariables": [
                    {
                        "name": "_balances",
                        "type": "mapping(address => uint256)",
                        "value": {
                            "pairs": [
                                {
                                    "key": "0x456ca852c08ce270bce0417418e1cda8dbc423f8",
                                    "value": {
                                        "current": "300000000000000000000",
                                        "prev": "0",
                                        "typeTag": 1
                                    }
                                },
                                {
                                    "key": "0xf73c3c65bde10bf26c2e1763104e609a41702efe",
                                    "value": {
                                        "current": "168328090293883389911557120",
                                        "prev": "168328390293883389911557120",
                                        "typeTag": 1
                                    }
                                }
                            ],
                            "typeTag": 4
                        }
                    }
                ]
            }
        ]
    }
}