{
    "balance_change": {
        "balanceChanges": []
    },
    "profile": {
        "basic_info": {
            "baseFee": "",
            "blockNumber": 11591192,
            "callData": "0xfaebafa800000000000000000000000000000000000000000000000000000000000000a00000000000000000000000000000000000000000000000000000000000000000000000000000000000000000000000000000000000000000d85084ad4776f0000000000000000000000000000000000000000000000000000000000000032f6700000000000000000000000000000000000000000000000000000000000001c000000000000000000000000000000000000000000000000000000000000000020000000000000000000000000000000000000000000000000000000000000000000000000000000000000000742c15d71ea7444964bc39b0ed729b3729adc361000000000000000000000000c02aaa39b223fe8d0a0e5c4f27ead9083c756cc2000000000000000000000000d26114cd6ee289accf82350c8d8487fedb8a0c07000000000000000000000000000000000000000000000000000000000000000000000000000000000000000048e313460dd00100e22230e56e0a87b394066844000000000000000000000000d26114cd6ee289accf82350c8d8487fedb8a0c07000000000000000000000000c02aaa39b223fe8d0a0e5c4f27ead9083c756cc200000000000000000000000000000000000000000000000000000000000000000000000000000000000000000000000000000000000000000000000000000000",
            "debugEnable": true,
            "errorInfo": "",
            "eventCount": 0,
            "feeRecipient": "0xea674fdde714fd979de3edf0f56aa9716b898ec8",
            "formatValue": "0",
            "gasLimit": 441929,
            "gasPrice": "204",
            "gasUsed": 39499,
            "intTxnCount": 2,
            "internalRevert": false,
            "internalRevertMessage": "",
            "isContractCreation": false,
            "isFlashloan": false,
            "maxFee": "",
            "nonce": 385,
            "overwritedBlockNumber": -1,
            "priorityFee": "",
            "receiver": "0xfe7f0897239ce9cc6645d9323e6fe428591b821c",
            "revertMessage": "",
            "sender": "0x6ab4a816ea7a91b6dfb80b1a40b92a3b0b6965c3",
            "simulationEnable": true,
            "sourceTxnHash": "0x9f4133b6a172099120efabd7f90978eb47bddff0e1c41656ae60aaa410c02bb3",
            "status": true,
            "timestamp": "2021-01-05T00:08:14Z",
            "transactionFee": "0.008057796",
            "txnHash": "0x9f4133b6a172099120efabd7f90978eb47bddff0e1c41656ae60aaa410c02bb3",
            "txnIndex": 42,
            "type": 0,
            "value": "0"
        },
        "fund_flow": [],
        "token_infos": [
            {
                "address": "0xc02aaa39b223fe8d0a0e5c4f27ead9083c756cc2",
                "decimals": 18
            },
            {
                "address": "0xeeeeeeeeeeeeeeeeeeeeeeeeeeeeeeeeeeeeeeee",
                "decimals": 18
            }
        ]
    },
    "address_label": {
        "labels": [
            {
                "address": "0x0000000000000000000000000000000000000001",
                "label": "Precompiled"
            },
            {
                "address": "0x0000000000000000000000000000000000000002",
                "label": "Precompiled"
            },
            {
                "address": "0x0000000000000000000000000000000000000003",
                "label": "Precompiled"
            },
            {
                "address": "0x0000000000000000000000000000000000000004",
                "label": "Precompiled"
            },
            {
                "address": "0xeeeeeeeeeeeeeeeeeeeeeeeeeeeeeeeeeeeeeeee",
                "label": "Ether"
            },
            {
                "address": "0x48e313460dd00100e22230e56e0a87b394066844",
                "label": "Uniswap V2: OMG"
            },
            {
                "address": "0x742c15d71ea7444964bc39b0ed729b3729adc361",
                "label": "SushiSwap: OMG"
            }
        ]
    },
    "trace": {
        "accountLabels": null,
        "dataMap": {
            "-1": {
                "invocation": {
                    "address": "0x6ab4a816ea7a91b6dfb80b1a40b92a3b0b6965c3",
                    "callData": "",
                    "decodedMethod": null,
                    "errorInfo": "",
                    "fromAddress": "",
                    "gasUsed": 0,
                    "id": -1,
                    "methodDecoded": false,
                    "operation": "",
                    "output": "",
                    "revert": false,
                    "revertMessage": "",
                    "selector": "",
                    "status": false,
                    "value": ""
                },
                "nodeType": 0
            },
            "0": {
                "invocation": {
                    "address": "0xfe7f0897239ce9cc6645d9323e6fe428591b821c",
                    "callData": "0x00000000000000000000000000000000000000000000000000000000000000a00000000000000000000000000000000000000000000000000000000000000000000000000000000000000000000000000000000000000000d85084ad4776f0000000000000000000000000000000000000000000000000000000000000032f6700000000000000000000000000000000000000000000000000000000000001c000000000000000000000000000000000000000000000000000000000000000020000000000000000000000000000000000000000000000000000000000000000000000000000000000000000742c15d71ea7444964bc39b0ed729b3729adc361000000000000000000000000c02aaa39b223fe8d0a0e5c4f27ead9083c756cc2000000000000000000000000d26114cd6ee289accf82350c8d8487fedb8a0c07000000000000000000000000000000000000000000000000000000000000000000000000000000000000000048e313460dd00100e22230e56e0a87b394066844000000000000000000000000d26114cd6ee289accf82350c8d8487fedb8a0c07000000000000000000000000c02aaa39b223fe8d0a0e5c4f27ead9083c756cc200000000000000000000000000000000000000000000000000000000000000000000000000000000000000000000000000000000000000000000000000000000",
                    "decodedMethod": null,
                    "errorInfo": "",
                    "fromAddress": "0x6ab4a816ea7a91b6dfb80b1a40b92a3b0b6965c3",
                    "gasUsed": 39499,
                    "id": 0,
                    "methodDecoded": false,
                    "operation": "CALL",
                    "output": "",
                    "revert": false,
                    "revertMessage": "",
                    "selector": "0xfaebafa8",
                    "status": true,
                    "value": "0"
                },
                "nodeType": 0
            },
            "1": {
                "invocation": {
                    "address": "0x742c15d71ea7444964bc39b0ed729b3729adc361",
                    "callData": "0x",
                    "decodedMethod": {
                        "callParams": [],
                        "constructorArguments": "",
                        "name": "getReserves",
                        "returnParams": [
                            {
                                "name": "_reserve0",
                                "type": "uint112",
                                "value": "2,122,040,001,035,206,697,540"
                            },
                            {
                                "name": "_reserve1",
                                "type": "uint112",
                                "value": "672,271,872,212,274,308,472,593"
                            },
                            {
                                "name": "_blockTimestampLast",
                                "type": "uint32",
                                "value": "1,609,804,364"
                            }
                        ],
                        "signature": "getReserves()"
                    },
                    "errorInfo": "",
                    "fromAddress": "0xfe7f0897239ce9cc6645d9323e6fe428591b821c",
                    "gasUsed": 1217,
                    "id": 1,
                    "methodDecoded": true,
                    "operation": "STATICCALL",
                    "output": "0x000000000000000000000000000000000000000000000073093889e4490ca244000000000000000000000000000000000000000000008e5bee644807d1c05f11000000000000000000000000000000000000000000000000000000005ff3aa4c",
                    "revert": false,
                    "revertMessage": "",
                    "selector": "0x0902f1ac",
                    "status": true,
                    "value": "0"
                },
                "nodeType": 0
            },
            "2": {
                "invocation": {
                    "address": "0x48e313460dd00100e22230e56e0a87b394066844",
                    "callData": "0x",
                    "decodedMethod": {
                        "callParams": [],
                        "constructorArguments": "",
                        "name": "getReserves",
                        "returnParams": [
                            {
                                "name": "_reserve0",
                                "type": "uint112",
                                "value": "2,753,432,332,343,235,549,368"
                            },
                            {
                                "name": "_reserve1",
                                "type": "uint112",
                                "value": "861,005,754,992,440,270,817,797"
                            },
                            {
                                "name": "_blockTimestampLast",
                                "type": "uint32",
                                "value": "1,609,805,294"
                            }
                        ],
                        "signature": "getReserves()"
                    },
                    "errorInfo": "",
                    "fromAddress": "0xfe7f0897239ce9cc6645d9323e6fe428591b821c",
                    "gasUsed": 1204,
                    "id": 2,
                    "methodDecoded": true,
                    "operation": "STATICCALL",
                    "output": "0x000000000000000000000000000000000000000000000095438cb5f4d9db98b800000000000000000000000000000000000000000000b653372b499fd7868a05000000000000000000000000000000000000000000000000000000005ff3adee",
                    "revert": false,
                    "revertMessage": "",
                    "selector": "0x0902f1ac",
                    "status": true,
                    "value": "0"
                },
                "nodeType": 0
            }
        },
        "gasFlame": [
            {
                "children": [
                    {
                        "children": [
                            {
                                "children": [],
                                "depth": 0,
                                "name": "Initial Gas",
                                "value": 24708
                            },
                            {
                                "children": [
                                    {
                                        "children": [],
                                        "depth": 1,
                                        "name": "getReserves",
                                        "value": 1217
                                    },
                                    {
                                        "children": [],
                                        "depth": 1,
                                        "name": "getReserves",
                                        "value": 1204
                                    }
                                ],
                                "depth": 0,
                                "name": "Executed Gas",
                                "value": 14791
                            }
                        ],
                        "depth": -1,
                        "name": "Actual Gas Used",
                        "value": 39499
                    },
                    {
                        "children": [],
                        "depth": -1,
                        "name": "Refunded Gas",
                        "value": 0
                    }
                ],
                "depth": -2,
                "name": "Total Gas",
                "value": 39499
            }
        ],
        "isConfirmed": true,
        "mainTrace": [
            {
                "children": [
                    {
                        "children": [
                            {
                                "children": [],
                                "depth": 1,
                                "id": 1,
                                "order": 1
                            },
                            {
                                "children": [],
                                "depth": 1,
                                "id": 2,
                                "order": 2
                            }
                        ],
                        "depth": 0,
                        "id": 0,
                        "order": 0
                    }
                ],
                "depth": -1,
                "id": -1,
                "order": -1
            }
        ],
        "mainTraceNodeCount": 3,
        "parentIdMap": {
            "0": -1,
            "1": 0,
            "2": 0
        },
        "tidyTrace": [
            {
                "children": [
                    {
                        "children": [],
                        "depth": 0,
                        "id": 0,
                        "order": 0
                    }
                ],
                "depth": -1,
                "id": -1,
                "order": -1
            }
        ],
        "tidyTraceNodeCount": 1
    },
    "state_change": {
        "stateChanges": []
    }
}