{
    "balance_change": {
        "balanceChanges": [
            {
                "account": "0xa210b20c55c00b55dd71d2abd63734a3071ba901",
                "assets": [
                    {
                        "address": "0xeeeeeeeeeeeeeeeeeeeeeeeeeeeeeeeeeeeeeeee",
                        "amount": "2",
                        "iconUrl": "https://assets.blocksec.com/image/1663669189317-3.png",
                        "isERC1155": false,
                        "isERC721": false,
                        "sign": false,
                        "value": ""
                    }
                ]
            },
            {
                "account": "0x2c58b11405a6a8154fd3bbc4ccaa43924f2be769",
                "assets": [
                    {
                        "address": "0xeeeeeeeeeeeeeeeeeeeeeeeeeeeeeeeeeeeeeeee",
                        "amount": "1.76",
                        "iconUrl": "https://assets.blocksec.com/image/1663669189317-3.png",
                        "isERC1155": false,
                        "isERC721": false,
                        "sign": true,
                        "value": ""
                    }
                ]
            },
            {
                "account": "0x2232614d32181f617ce0cc770356708a3a269f65",
                "assets": [
                    {
                        "address": "0xeeeeeeeeeeeeeeeeeeeeeeeeeeeeeeeeeeeeeeee",
                        "amount": "0.02",
                        "iconUrl": "https://assets.blocksec.com/image/1663669189317-3.png",
                        "isERC1155": false,
                        "isERC721": false,
                        "sign": true,
                        "value": ""
                    }
                ]
            },
            {
                "account": "0x2a4af60da58c2d3bbc25835f73a9e7f6ac0a039f",
                "assets": [
                    {
                        "address": "0xeeeeeeeeeeeeeeeeeeeeeeeeeeeeeeeeeeeeeeee",
                        "amount": "0.015",
                        "iconUrl": "https://assets.blocksec.com/image/1663669189317-3.png",
                        "isERC1155": false,
                        "isERC721": false,
                        "sign": true,
                        "value": ""
                    }
                ]
            },
            {
                "account": "0xab670fdc4ef4fbeb72636a36c551a25a40565d39",
                "assets": [
                    {
                        "address": "0xeeeeeeeeeeeeeeeeeeeeeeeeeeeeeeeeeeeeeeee",
                        "amount": "0.024",
                        "iconUrl": "https://assets.blocksec.com/image/1663669189317-3.png",
                        "isERC1155": false,
                        "isERC721": false,
                        "sign": true,
                        "value": ""
                    }
                ]
            },
            {
                "account": "0xb9968643250ee99dccc95a139c62f98a20313f8e",
                "assets": [
                    {
                        "address": "0xeeeeeeeeeeeeeeeeeeeeeeeeeeeeeeeeeeeeeeee",
                        "amount": "0.126",
                        "iconUrl": "https://assets.blocksec.com/image/1663669189317-3.png",
                        "isERC1155": false,
                        "isERC721": false,
                        "sign": true,
                        "value": ""
                    }
                ]
            },
            {
                "account": "0xbf01160823fc060579941e9331fa029841935a66",
                "assets": [
                    {
                        "address": "0xeeeeeeeeeeeeeeeeeeeeeeeeeeeeeeeeeeeeeeee",
                        "amount": "0.055",
                        "iconUrl": "https://assets.blocksec.com/image/1663669189317-3.png",
                        "isERC1155": false,
                        "isERC721": false,
                        "sign": true,
                        "value": ""
                    }
                ]
            }
        ]
    },
    "profile": {
        "basic_info": {
            "baseFee": "",
            "blockNumber": 7418444,
            "callData": "0xb72fb02b00000000000000000000000000000000000000000000000000000000000002630000000000000000000000000000000000000000000000000000000000000001",
            "debugEnable": true,
            "errorInfo": "",
            "eventCount": 16,
            "feeRecipient": "0x2a5994b501e6a560e727b6c2de5d856396aadd38",
            "formatValue": "2",
            "gasLimit": 1218928,
            "gasPrice": "8",
            "gasUsed": 1208928,
            "intTxnCount": 9,
            "internalRevert": false,
            "internalRevertMessage": "",
            "isContractCreation": false,
            "isFlashloan": false,
            "maxFee": "",
            "nonce": 0,
            "overwritedBlockNumber": -1,
            "priorityFee": "",
            "receiver": "0x2c58b11405a6a8154fd3bbc4ccaa43924f2be769",
            "revertMessage": "",
            "sender": "0xa210b20c55c00b55dd71d2abd63734a3071ba901",
            "simulationEnable": true,
            "sourceTxnHash": "0x9f855ca74571a349050e463b7753b513b09e8a8e032f748acf1dbc3f84a5bf6c",
            "status": true,
            "timestamp": "2019-03-22T12:09:47Z",
            "transactionFee": "0.009671424",
            "txnHash": "0x9f855ca74571a349050e463b7753b513b09e8a8e032f748acf1dbc3f84a5bf6c",
            "txnIndex": 35,
            "type": 0,
            "value": "2000000000000000000"
        },
        "fund_flow": [
            {
                "amount": "2",
                "from": "0xa210b20c55c00b55dd71d2abd63734a3071ba901",
                "id": 1,
                "isERC1155": false,
                "isERC721": false,
                "isReverted": false,
                "order": 1,
                "to": "0x2c58b11405a6a8154fd3bbc4ccaa43924f2be769",
                "token": "0xeeeeeeeeeeeeeeeeeeeeeeeeeeeeeeeeeeeeeeee"
            },
            {
                "amount": "0.055",
                "from": "0x2c58b11405a6a8154fd3bbc4ccaa43924f2be769",
                "id": 2,
                "isERC1155": false,
                "isERC721": false,
                "isReverted": false,
                "order": 2,
                "to": "0xbf01160823fc060579941e9331fa029841935a66",
                "token": "0xeeeeeeeeeeeeeeeeeeeeeeeeeeeeeeeeeeeeeeee"
            },
            {
                "amount": "0.02",
                "from": "0x2c58b11405a6a8154fd3bbc4ccaa43924f2be769",
                "id": 3,
                "isERC1155": false,
                "isERC721": false,
                "isReverted": false,
                "order": 3,
                "to": "0x2232614d32181f617ce0cc770356708a3a269f65",
                "token": "0xeeeeeeeeeeeeeeeeeeeeeeeeeeeeeeeeeeeeeeee"
            },
            {
                "amount": "0.015",
                "from": "0x2c58b11405a6a8154fd3bbc4ccaa43924f2be769",
                "id": 4,
                "isERC1155": false,
                "isERC721": false,
                "isReverted": false,
                "order": 4,
                "to": "0x2a4af60da58c2d3bbc25835f73a9e7f6ac0a039f",
                "token": "0xeeeeeeeeeeeeeeeeeeeeeeeeeeeeeeeeeeeeeeee"
            },
            {
                "amount": "0.024",
                "from": "0x2c58b11405a6a8154fd3bbc4ccaa43924f2be769",
                "id": 5,
                "isERC1155": false,
                "isERC721": false,
                "isReverted": false,
                "order": 5,
                "to": "0xab670fdc4ef4fbeb72636a36c551a25a40565d39",
                "token": "0xeeeeeeeeeeeeeeeeeeeeeeeeeeeeeeeeeeeeeeee"
            },
            {
                "amount": "0.126",
                "from": "0x2c58b11405a6a8154fd3bbc4ccaa43924f2be769",
                "id": 6,
                "isERC1155": false,
                "isERC721": false,
                "isReverted": false,
                "order": 6,
                "to": "0xb9968643250ee99dccc95a139c62f98a20313f8e",
                "token": "0xeeeeeeeeeeeeeeeeeeeeeeeeeeeeeeeeeeeeeeee"
            }
        ],
        "token_infos": [
            {
                "address": "0xc02aaa39b223fe8d0a0e5c4f27ead9083c756cc2",
                "decimals": 18
            },
            {
                "address": "0xeeeeeeeeeeeeeeeeeeeeeeeeeeeeeeeeeeeeeeee",
                "decimals": 18
            }
        ]
    },
    "address_label": {
        "labels": [
            {
                "address": "0x0000000000000000000000000000000000000004",
                "label": "Precompiled"
            },
            {
                "address": "0xeeeeeeeeeeeeeeeeeeeeeeeeeeeeeeeeeeeeeeee",
                "label": "Ether"
            },
            {
                "address": "0x0000000000000000000000000000000000000001",
                "label": "Precompiled"
            },
            {
                "address": "0x0000000000000000000000000000000000000002",
                "label": "Precompiled"
            },
            {
                "address": "0x0000000000000000000000000000000000000003",
                "label": "Precompiled"
            }
        ]
    },
    "trace": {
        "accountLabels": null,
        "dataMap": {
            "-1": {
                "invocation": {
                    "address": "0xa210b20c55c00b55dd71d2abd63734a3071ba901",
                    "callData": "",
                    "decodedMethod": null,
                    "errorInfo": "",
                    "fromAddress": "",
                    "gasUsed": 0,
                    "id": -1,
                    "methodDecoded": false,
                    "operation": "",
                    "output": "",
                    "revert": false,
                    "revertMessage": "",
                    "selector": "",
                    "status": false,
                    "value": ""
                },
                "nodeType": 0
            },
            "0": {
                "invocation": {
                    "address": "0x2c58b11405a6a8154fd3bbc4ccaa43924f2be769",
                    "callData": "0x00000000000000000000000000000000000000000000000000000000000002630000000000000000000000000000000000000000000000000000000000000001",
                    "decodedMethod": null,
                    "errorInfo": "",
                    "fromAddress": "0xa210b20c55c00b55dd71d2abd63734a3071ba901",
                    "gasUsed": 1208928,
                    "id": 0,
                    "methodDecoded": false,
                    "operation": "CALL",
                    "output": "",
                    "revert": false,
                    "revertMessage": "",
                    "selector": "0xb72fb02b",
                    "status": true,
                    "value": "2"
                },
                "nodeType": 0
            },
            "1": {
                "invocation": {
                    "address": "0xff31369ec8c5be238936ecbceea60bf46427ce28",
                    "callData": "0x000000000000000000000000a210b20c55c00b55dd71d2abd63734a3071ba901",
                    "decodedMethod": {
                        "callParams": [
                            {
                                "name": "_addr",
                                "type": "address",
                                "value": "0xa210b20c55c00b55dd71d2abd63734a3071ba901"
                            }
                        ],
                        "constructorArguments": "",
                        "name": "getPlayerID",
                        "returnParams": [
                            {
                                "name": "",
                                "type": "uint256",
                                "value": "1,230"
                            }
                        ],
                        "signature": "getPlayerID(address)"
                    },
                    "errorInfo": "",
                    "fromAddress": "0x2c58b11405a6a8154fd3bbc4ccaa43924f2be769",
                    "gasUsed": 47658,
                    "id": 1,
                    "methodDecoded": true,
                    "operation": "CALL",
                    "output": "0x00000000000000000000000000000000000000000000000000000000000004ce",
                    "revert": false,
                    "revertMessage": "",
                    "selector": "0xe56556a9",
                    "status": true,
                    "value": "0"
                },
                "nodeType": 0
            },
            "10": {
                "event": {
                    "contract": "0x2c58b11405a6a8154fd3bbc4ccaa43924f2be769",
                    "decodedLog": null,
                    "id": 10,
                    "logData": "0x00000000000000000000000000000000000000000000000000000000000000cf000000000000000000000000e8e1910c064c50f5f21f9741afa709450f4eaf4e000000000000000000000000000000000000000000000000a2297597187080000000000000000000000000000000000000000000000000022eebc45dd6784000",
                    "logDecoded": false,
                    "operation": "EVENT",
                    "revert": false,
                    "status": true,
                    "topics": [
                        "0xefaee3c90b37d63765790779d33d0b50dbd22a4eb719facd2a4863412441d2e0"
                    ]
                },
                "nodeType": 1
            },
            "11": {
                "event": {
                    "contract": "0x2c58b11405a6a8154fd3bbc4ccaa43924f2be769",
                    "decodedLog": null,
                    "id": 11,
                    "logData": "0x00000000000000000000000000000000000000000000000000000000000000ce00000000000000000000000019675a3285768658c17bba667e3d418665c8e4d40000000000000000000000000000000000000000000000009ae048df2d5c0000000000000000000000000000000000000000000000000002163794d911cc0000",
                    "logDecoded": false,
                    "operation": "EVENT",
                    "revert": false,
                    "status": true,
                    "topics": [
                        "0xefaee3c90b37d63765790779d33d0b50dbd22a4eb719facd2a4863412441d2e0"
                    ]
                },
                "nodeType": 1
            },
            "12": {
                "event": {
                    "contract": "0x2c58b11405a6a8154fd3bbc4ccaa43924f2be769",
                    "decodedLog": null,
                    "id": 12,
                    "logData": "0x00000000000000000000000000000000000000000000000000000000000000b0000000000000000000000000aafa2f4e84da642ccc3ddef5df6177775e3f686300000000000000000000000000000000000000000000000075f610f70ed20000000000000000000000000000000000000000000000000001c8370e8c1f720000",
                    "logDecoded": false,
                    "operation": "EVENT",
                    "revert": false,
                    "status": true,
                    "topics": [
                        "0xefaee3c90b37d63765790779d33d0b50dbd22a4eb719facd2a4863412441d2e0"
                    ]
                },
                "nodeType": 1
            },
            "13": {
                "event": {
                    "contract": "0x2c58b11405a6a8154fd3bbc4ccaa43924f2be769",
                    "decodedLog": null,
                    "id": 13,
                    "logData": "0x000000000000000000000000000000000000000000000000000000000000008300000000000000000000000020ff8caf87e025463d7a2125e1065bc0c0683fe10000000000000000000000000000000000000000000000004c53ecdc18a60000000000000000000000000000000000000000000000000001266d45a642cea000",
                    "logDecoded": false,
                    "operation": "EVENT",
                    "revert": false,
                    "status": true,
                    "topics": [
                        "0xefaee3c90b37d63765790779d33d0b50dbd22a4eb719facd2a4863412441d2e0"
                    ]
                },
                "nodeType": 1
            },
            "14": {
                "event": {
                    "contract": "0x2c58b11405a6a8154fd3bbc4ccaa43924f2be769",
                    "decodedLog": null,
                    "id": 14,
                    "logData": "0x000000000000000000000000000000000000000000000000000000000000002100000000000000000000000017414175373dbbbe785e03bb21b0dc560c7e822d0000000000000000000000000000000000000000000000003782dace9d900000000000000000000000000000000000000000000000000000d7f15380c0f56000",
                    "logDecoded": false,
                    "operation": "EVENT",
                    "revert": false,
                    "status": true,
                    "topics": [
                        "0xefaee3c90b37d63765790779d33d0b50dbd22a4eb719facd2a4863412441d2e0"
                    ]
                },
                "nodeType": 1
            },
            "15": {
                "event": {
                    "contract": "0x2c58b11405a6a8154fd3bbc4ccaa43924f2be769",
                    "decodedLog": null,
                    "id": 15,
                    "logData": "0x000000000000000000000000000000000000000000000000000000000000001f00000000000000000000000095e2f97c2cf7bc32509c7022897049ad9fc379590000000000000000000000000000000000000000000000006124fee993bc00000000000000000000000000000000000000000000000000017509f4ca2642d000",
                    "logDecoded": false,
                    "operation": "EVENT",
                    "revert": false,
                    "status": true,
                    "topics": [
                        "0xefaee3c90b37d63765790779d33d0b50dbd22a4eb719facd2a4863412441d2e0"
                    ]
                },
                "nodeType": 1
            },
            "16": {
                "event": {
                    "contract": "0x2c58b11405a6a8154fd3bbc4ccaa43924f2be769",
                    "decodedLog": null,
                    "id": 16,
                    "logData": "0x000000000000000000000000000000000000000000000000000000000000001e000000000000000000000000cb975a3fd2e0cb2c97a37da24a6484f26e1800530000000000000000000000000000000000000000000000004563918244f40000000000000000000000000000000000000000000000000000fbe9569bbdef7000",
                    "logDecoded": false,
                    "operation": "EVENT",
                    "revert": false,
                    "status": true,
                    "topics": [
                        "0xefaee3c90b37d63765790779d33d0b50dbd22a4eb719facd2a4863412441d2e0"
                    ]
                },
                "nodeType": 1
            },
            "17": {
                "event": {
                    "contract": "0x2c58b11405a6a8154fd3bbc4ccaa43924f2be769",
                    "decodedLog": null,
                    "id": 17,
                    "logData": "0x000000000000000000000000000000000000000000000000000000000000001900000000000000000000000084b111e52f3098d293e1fc15d7d0af0ffb7480a10000000000000000000000000000000000000000000000004563918244f40000000000000000000000000000000000000000000000000000d3370f09afc62000",
                    "logDecoded": false,
                    "operation": "EVENT",
                    "revert": false,
                    "status": true,
                    "topics": [
                        "0xefaee3c90b37d63765790779d33d0b50dbd22a4eb719facd2a4863412441d2e0"
                    ]
                },
                "nodeType": 1
            },
            "18": {
                "event": {
                    "contract": "0x2c58b11405a6a8154fd3bbc4ccaa43924f2be769",
                    "decodedLog": null,
                    "id": 18,
                    "logData": "0x0000000000000000000000000000000000000000000000000000000000000011000000000000000000000000b77d2a91bf5d6f49b639484e07d84ade4f11a66c0000000000000000000000000000000000000000000000004563918244f40000000000000000000000000000000000000000000000000000e20ef3d55f699000",
                    "logDecoded": false,
                    "operation": "EVENT",
                    "revert": false,
                    "status": true,
                    "topics": [
                        "0xefaee3c90b37d63765790779d33d0b50dbd22a4eb719facd2a4863412441d2e0"
                    ]
                },
                "nodeType": 1
            },
            "19": {
                "event": {
                    "contract": "0x2c58b11405a6a8154fd3bbc4ccaa43924f2be769",
                    "decodedLog": null,
                    "id": 19,
                    "logData": "0x000000000000000000000000000000000000000000000000000000000000000f00000000000000000000000093ba6bf5c32361d66c923fe4d7910f2de7ae03e3000000000000000000000000000000000000000000000000482a1c7300080000000000000000000000000000000000000000000000000001369eaf5a32138000",
                    "logDecoded": false,
                    "operation": "EVENT",
                    "revert": false,
                    "status": true,
                    "topics": [
                        "0xefaee3c90b37d63765790779d33d0b50dbd22a4eb719facd2a4863412441d2e0"
                    ]
                },
                "nodeType": 1
            },
            "2": {
                "invocation": {
                    "address": "0xff31369ec8c5be238936ecbceea60bf46427ce28",
                    "callData": "0x00000000000000000000000000000000000000000000000000000000000004ce",
                    "decodedMethod": {
                        "callParams": [
                            {
                                "name": "_pID",
                                "type": "uint256",
                                "value": "1,230"
                            }
                        ],
                        "constructorArguments": "",
                        "name": "getPlayerName",
                        "returnParams": [
                            {
                                "name": "",
                                "type": "bytes32",
                                "value": "0x0000000000000000000000000000000000000000000000000000000000000000"
                            }
                        ],
                        "signature": "getPlayerName(uint256)"
                    },
                    "errorInfo": "",
                    "fromAddress": "0x2c58b11405a6a8154fd3bbc4ccaa43924f2be769",
                    "gasUsed": 855,
                    "id": 2,
                    "methodDecoded": true,
                    "operation": "CALL",
                    "output": "0x0000000000000000000000000000000000000000000000000000000000000000",
                    "revert": false,
                    "revertMessage": "",
                    "selector": "0x82e37b2c",
                    "status": true,
                    "value": "0"
                },
                "nodeType": 0
            },
            "20": {
                "event": {
                    "contract": "0x2c58b11405a6a8154fd3bbc4ccaa43924f2be769",
                    "decodedLog": null,
                    "id": 20,
                    "logData": "0x000000000000000000000000000000000000000000000000000000000000000e000000000000000000000000c9e47008158228ff175a114e47d0da52ebb6ff1200000000000000000000000000000000000000000000000022b1c8c1227a000000000000000000000000000000000000000000000000000091c8630413823000",
                    "logDecoded": false,
                    "operation": "EVENT",
                    "revert": false,
                    "status": true,
                    "topics": [
                        "0xefaee3c90b37d63765790779d33d0b50dbd22a4eb719facd2a4863412441d2e0"
                    ]
                },
                "nodeType": 1
            },
            "21": {
                "event": {
                    "contract": "0x2c58b11405a6a8154fd3bbc4ccaa43924f2be769",
                    "decodedLog": null,
                    "id": 21,
                    "logData": "0x000000000000000000000000000000000000000000000000000000000000000b00000000000000000000000043f4650f83fad54bff060da7f9632ec75b13593b00000000000000000000000000000000000000000000000053444835ec580000000000000000000000000000000000000000000000000000d6ccb06ca2cf4000",
                    "logDecoded": false,
                    "operation": "EVENT",
                    "revert": false,
                    "status": true,
                    "topics": [
                        "0xefaee3c90b37d63765790779d33d0b50dbd22a4eb719facd2a4863412441d2e0"
                    ]
                },
                "nodeType": 1
            },
            "22": {
                "event": {
                    "contract": "0x2c58b11405a6a8154fd3bbc4ccaa43924f2be769",
                    "decodedLog": null,
                    "id": 22,
                    "logData": "0x000000000000000000000000000000000000000000000000000000000000000a0000000000000000000000005f55710b1dea0def30808969e7b492eec1740ebb00000000000000000000000000000000000000000000000010a741a4627800000000000000000000000000000000000000000000000000001d7348e582c08000",
                    "logDecoded": false,
                    "operation": "EVENT",
                    "revert": false,
                    "status": true,
                    "topics": [
                        "0xefaee3c90b37d63765790779d33d0b50dbd22a4eb719facd2a4863412441d2e0"
                    ]
                },
                "nodeType": 1
            },
            "23": {
                "invocation": {
                    "address": "0xb9968643250ee99dccc95a139c62f98a20313f8e",
                    "callData": "0x",
                    "decodedMethod": null,
                    "errorInfo": "",
                    "fromAddress": "0x2c58b11405a6a8154fd3bbc4ccaa43924f2be769",
                    "gasUsed": 0,
                    "id": 23,
                    "methodDecoded": false,
                    "operation": "CALL",
                    "output": "",
                    "revert": false,
                    "revertMessage": "",
                    "selector": "fallback",
                    "status": true,
                    "value": "0.126"
                },
                "nodeType": 0
            },
            "24": {
                "invocation": {
                    "address": "0xab670fdc4ef4fbeb72636a36c551a25a40565d39",
                    "callData": "0x",
                    "decodedMethod": null,
                    "errorInfo": "",
                    "fromAddress": "0x2c58b11405a6a8154fd3bbc4ccaa43924f2be769",
                    "gasUsed": 0,
                    "id": 24,
                    "methodDecoded": false,
                    "operation": "CALL",
                    "output": "",
                    "revert": false,
                    "revertMessage": "",
                    "selector": "fallback",
                    "status": true,
                    "value": "0.014"
                },
                "nodeType": 0
            },
            "25": {
                "event": {
                    "contract": "0x2c58b11405a6a8154fd3bbc4ccaa43924f2be769",
                    "decodedLog": {
                        "name": "onEndTx",
                        "params": [
                            {
                                "name": "compressedData",
                                "type": "uint256",
                                "value": "101,553,256,587,000,000,000,000,000,111"
                            },
                            {
                                "name": "compressedIDs",
                                "type": "uint256",
                                "value": "10,000,000,000,000,000,000,000,000,000,000,000,000,000,000,000,001,230"
                            },
                            {
                                "name": "playerName",
                                "type": "bytes32",
                                "value": "0x0000000000000000000000000000000000000000000000000000000000000000"
                            },
                            {
                                "name": "playerAddress",
                                "type": "address",
                                "value": "0xa210b20c55c00b55dd71d2abd63734a3071ba901"
                            },
                            {
                                "name": "ethIn",
                                "type": "uint256",
                                "value": "2,000,000,000,000,000,000"
                            },
                            {
                                "name": "keysBought",
                                "type": "uint256",
                                "value": "20,000,000,000,000,000,000"
                            },
                            {
                                "name": "winnerAddr",
                                "type": "address",
                                "value": "0x0000000000000000000000000000000000000000"
                            },
                            {
                                "name": "winnerName",
                                "type": "bytes32",
                                "value": "0x0000000000000000000000000000000000000000000000000000000000000000"
                            },
                            {
                                "name": "amountWon",
                                "type": "uint256",
                                "value": "0"
                            },
                            {
                                "name": "newPot",
                                "type": "uint256",
                                "value": "0"
                            },
                            {
                                "name": "P3DAmount",
                                "type": "uint256",
                                "value": "0"
                            },
                            {
                                "name": "genAmount",
                                "type": "uint256",
                                "value": "699,999,999,999,991,298"
                            },
                            {
                                "name": "potAmount",
                                "type": "uint256",
                                "value": "200,000,000,000,000,000"
                            },
                            {
                                "name": "airDropPot",
                                "type": "uint256",
                                "value": "6,163,500,000,000,000,000"
                            }
                        ],
                        "signature": "onEndTx(uint256,uint256,bytes32,address,uint256,uint256,address,bytes32,uint256,uint256,uint256,uint256,uint256,uint256)"
                    },
                    "id": 25,
                    "logData": "0x00000000000000000000000000000000000000014822e28ebaebf927c34c006f000000000000000000001aba4714957d300d0e549208b31adb100000000004ce0000000000000000000000000000000000000000000000000000000000000000000000000000000000000000a210b20c55c00b55dd71d2abd63734a3071ba9010000000000000000000000000000000000000000000000001bc16d674ec80000000000000000000000000000000000000000000000000001158e460913d000000000000000000000000000000000000000000000000000000000000000000000000000000000000000000000000000000000000000000000000000000000000000000000000000000000000000000000000000000000000000000000000000000000000000000000000000000000000000000000000000000000000000000000000000000000000000000000000000000000000000000000000000000000000000000000000000000000000000000000000000000000000009b6e64a8ec5de0200000000000000000000000000000000000000000000000002c68af0bb14000000000000000000000000000000000000000000000000000055892698291ec000",
                    "logDecoded": true,
                    "operation": "EVENT",
                    "revert": false,
                    "status": true,
                    "topics": [
                        "0x500e72a0e114930aebdbcb371ccdbf43922c49f979794b5de4257ff7e310c746"
                    ]
                },
                "nodeType": 1
            },
            "3": {
                "invocation": {
                    "address": "0xff31369ec8c5be238936ecbceea60bf46427ce28",
                    "callData": "0x00000000000000000000000000000000000000000000000000000000000004ce",
                    "decodedMethod": {
                        "callParams": [
                            {
                                "name": "_pID",
                                "type": "uint256",
                                "value": "1,230"
                            }
                        ],
                        "constructorArguments": "",
                        "name": "getPlayerLAff",
                        "returnParams": [
                            {
                                "name": "",
                                "type": "uint256",
                                "value": "0"
                            }
                        ],
                        "signature": "getPlayerLAff(uint256)"
                    },
                    "errorInfo": "",
                    "fromAddress": "0x2c58b11405a6a8154fd3bbc4ccaa43924f2be769",
                    "gasUsed": 1097,
                    "id": 3,
                    "methodDecoded": true,
                    "operation": "CALL",
                    "output": "0x0000000000000000000000000000000000000000000000000000000000000000",
                    "revert": false,
                    "revertMessage": "",
                    "selector": "0xe3c08adf",
                    "status": true,
                    "value": "0"
                },
                "nodeType": 0
            },
            "4": {
                "invocation": {
                    "address": "0xbf01160823fc060579941e9331fa029841935a66",
                    "callData": "0x",
                    "decodedMethod": null,
                    "errorInfo": "",
                    "fromAddress": "0x2c58b11405a6a8154fd3bbc4ccaa43924f2be769",
                    "gasUsed": 0,
                    "id": 4,
                    "methodDecoded": false,
                    "operation": "CALL",
                    "output": "",
                    "revert": false,
                    "revertMessage": "",
                    "selector": "fallback",
                    "status": true,
                    "value": "0.055"
                },
                "nodeType": 0
            },
            "5": {
                "invocation": {
                    "address": "0x2232614d32181f617ce0cc770356708a3a269f65",
                    "callData": "0x",
                    "decodedMethod": null,
                    "errorInfo": "",
                    "fromAddress": "0x2c58b11405a6a8154fd3bbc4ccaa43924f2be769",
                    "gasUsed": 0,
                    "id": 5,
                    "methodDecoded": false,
                    "operation": "CALL",
                    "output": "",
                    "revert": false,
                    "revertMessage": "",
                    "selector": "fallback",
                    "status": true,
                    "value": "0.02"
                },
                "nodeType": 0
            },
            "6": {
                "invocation": {
                    "address": "0x2a4af60da58c2d3bbc25835f73a9e7f6ac0a039f",
                    "callData": "0x",
                    "decodedMethod": null,
                    "errorInfo": "",
                    "fromAddress": "0x2c58b11405a6a8154fd3bbc4ccaa43924f2be769",
                    "gasUsed": 0,
                    "id": 6,
                    "methodDecoded": false,
                    "operation": "CALL",
                    "output": "",
                    "revert": false,
                    "revertMessage": "",
                    "selector": "fallback",
                    "status": true,
                    "value": "0.015"
                },
                "nodeType": 0
            },
            "7": {
                "invocation": {
                    "address": "0xab670fdc4ef4fbeb72636a36c551a25a40565d39",
                    "callData": "0x",
                    "decodedMethod": null,
                    "errorInfo": "",
                    "fromAddress": "0x2c58b11405a6a8154fd3bbc4ccaa43924f2be769",
                    "gasUsed": 0,
                    "id": 7,
                    "methodDecoded": false,
                    "operation": "CALL",
                    "output": "",
                    "revert": false,
                    "revertMessage": "",
                    "selector": "fallback",
                    "status": true,
                    "value": "0.01"
                },
                "nodeType": 0
            },
            "8": {
                "event": {
                    "contract": "0x2c58b11405a6a8154fd3bbc4ccaa43924f2be769",
                    "decodedLog": null,
                    "id": 8,
                    "logData": "0x00000000000000000000000000000000000000000000000000000000000002630000000000000000000000004a24e4d57c8170bf002be9470607372e244f9342000000000000000000000000000000000000000000000000a688906bd8b00000000000000000000000000000000000000000000000000000c856f983c98a0000",
                    "logDecoded": false,
                    "operation": "EVENT",
                    "revert": false,
                    "status": true,
                    "topics": [
                        "0xefaee3c90b37d63765790779d33d0b50dbd22a4eb719facd2a4863412441d2e0"
                    ]
                },
                "nodeType": 1
            },
            "9": {
                "event": {
                    "contract": "0x2c58b11405a6a8154fd3bbc4ccaa43924f2be769",
                    "decodedLog": null,
                    "id": 9,
                    "logData": "0x00000000000000000000000000000000000000000000000000000000000000d2000000000000000000000000f83f6b8cea13e47556952932e19e4a4c3afe1e85000000000000000000000000000000000000000000000000d35bd44ed9330000000000000000000000000000000000000000000000000002e2ddf53a29ad4000",
                    "logDecoded": false,
                    "operation": "EVENT",
                    "revert": false,
                    "status": true,
                    "topics": [
                        "0xefaee3c90b37d63765790779d33d0b50dbd22a4eb719facd2a4863412441d2e0"
                    ]
                },
                "nodeType": 1
            }
        },
        "gasFlame": [
            {
                "children": [
                    {
                        "children": [
                            {
                                "children": [],
                                "depth": 0,
                                "name": "Initial Gas",
                                "value": 21720
                            },
                            {
                                "children": [
                                    {
                                        "children": [],
                                        "depth": 1,
                                        "name": "getPlayerID",
                                        "value": 47658
                                    },
                                    {
                                        "children": [],
                                        "depth": 1,
                                        "name": "getPlayerName",
                                        "value": 855
                                    },
                                    {
                                        "children": [],
                                        "depth": 1,
                                        "name": "getPlayerLAff",
                                        "value": 1097
                                    },
                                    {
                                        "children": [],
                                        "depth": 1,
                                        "name": "fallback",
                                        "value": 0
                                    },
                                    {
                                        "children": [],
                                        "depth": 1,
                                        "name": "fallback",
                                        "value": 0
                                    },
                                    {
                                        "children": [],
                                        "depth": 1,
                                        "name": "fallback",
                                        "value": 0
                                    },
                                    {
                                        "children": [],
                                        "depth": 1,
                                        "name": "fallback",
                                        "value": 0
                                    },
                                    {
                                        "children": [],
                                        "depth": 1,
                                        "name": "fallback",
                                        "value": 0
                                    },
                                    {
                                        "children": [],
                                        "depth": 1,
                                        "name": "fallback",
                                        "value": 0
                                    }
                                ],
                                "depth": 0,
                                "name": "Executed Gas",
                                "value": 1187208
                            }
                        ],
                        "depth": -1,
                        "name": "Actual Gas Used",
                        "value": 1208928
                    },
                    {
                        "children": [],
                        "depth": -1,
                        "name": "Refunded Gas",
                        "value": 0
                    }
                ],
                "depth": -2,
                "name": "Total Gas",
                "value": 1208928
            }
        ],
        "isConfirmed": true,
        "mainTrace": [
            {
                "children": [
                    {
                        "children": [
                            {
                                "children": [],
                                "depth": 1,
                                "id": 1,
                                "order": 1
                            },
                            {
                                "children": [],
                                "depth": 1,
                                "id": 2,
                                "order": 2
                            },
                            {
                                "children": [],
                                "depth": 1,
                                "id": 3,
                                "order": 3
                            },
                            {
                                "children": [],
                                "depth": 1,
                                "id": 4,
                                "order": 4
                            },
                            {
                                "children": [],
                                "depth": 1,
                                "id": 5,
                                "order": 5
                            },
                            {
                                "children": [],
                                "depth": 1,
                                "id": 6,
                                "order": 6
                            },
                            {
                                "children": [],
                                "depth": 1,
                                "id": 7,
                                "order": 7
                            },
                            {
                                "children": [],
                                "depth": 1,
                                "id": 8,
                                "order": 8
                            },
                            {
                                "children": [],
                                "depth": 1,
                                "id": 9,
                                "order": 9
                            },
                            {
                                "children": [],
                                "depth": 1,
                                "id": 10,
                                "order": 10
                            },
                            {
                                "children": [],
                                "depth": 1,
                                "id": 11,
                                "order": 11
                            },
                            {
                                "children": [],
                                "depth": 1,
                                "id": 12,
                                "order": 12
                            },
                            {
                                "children": [],
                                "depth": 1,
                                "id": 13,
                                "order": 13
                            },
                            {
                                "children": [],
                                "depth": 1,
                                "id": 14,
                                "order": 14
                            },
                            {
                                "children": [],
                                "depth": 1,
                                "id": 15,
                                "order": 15
                            },
                            {
                                "children": [],
                                "depth": 1,
                                "id": 16,
                                "order": 16
                            },
                            {
                                "children": [],
                                "depth": 1,
                                "id": 17,
                                "order": 17
                            },
                            {
                                "children": [],
                                "depth": 1,
                                "id": 18,
                                "order": 18
                            },
                            {
                                "children": [],
                                "depth": 1,
                                "id": 19,
                                "order": 19
                            },
                            {
                                "children": [],
                                "depth": 1,
                                "id": 20,
                                "order": 20
                            },
                            {
                                "children": [],
                                "depth": 1,
                                "id": 21,
                                "order": 21
                            },
                            {
                                "children": [],
                                "depth": 1,
                                "id": 22,
                                "order": 22
                            },
                            {
                                "children": [],
                                "depth": 1,
                                "id": 23,
                                "order": 23
                            },
                            {
                                "children": [],
                                "depth": 1,
                                "id": 24,
                                "order": 24
                            },
                            {
                                "children": [],
                                "depth": 1,
                                "id": 25,
                                "order": 25
                            }
                        ],
                        "depth": 0,
                        "id": 0,
                        "order": 0
                    }
                ],
                "depth": -1,
                "id": -1,
                "order": -1
            }
        ],
        "mainTraceNodeCount": 26,
        "parentIdMap": {
            "0": -1,
            "1": 0,
            "10": 0,
            "11": 0,
            "12": 0,
            "13": 0,
            "14": 0,
            "15": 0,
            "16": 0,
            "17": 0,
            "18": 0,
            "19": 0,
            "2": 0,
            "20": 0,
            "21": 0,
            "22": 0,
            "23": 0,
            "24": 0,
            "25": 0,
            "3": 0,
            "4": 0,
            "5": 0,
            "6": 0,
            "7": 0,
            "8": 0,
            "9": 0
        },
        "tidyTrace": [
            {
                "children": [
                    {
                        "children": [
                            {
                                "children": [],
                                "depth": 1,
                                "id": 1,
                                "order": 1
                            },
                            {
                                "children": [],
                                "depth": 1,
                                "id": 2,
                                "order": 2
                            },
                            {
                                "children": [],
                                "depth": 1,
                                "id": 3,
                                "order": 3
                            },
                            {
                                "children": [],
                                "depth": 1,
                                "id": 4,
                                "order": 4
                            },
                            {
                                "children": [],
                                "depth": 1,
                                "id": 5,
                                "order": 5
                            },
                            {
                                "children": [],
                                "depth": 1,
                                "id": 6,
                                "order": 6
                            },
                            {
                                "children": [],
                                "depth": 1,
                                "id": 7,
                                "order": 7
                            },
                            {
                                "children": [],
                                "depth": 1,
                                "id": 8,
                                "order": 8
                            },
                            {
                                "children": [],
                                "depth": 1,
                                "id": 9,
                                "order": 9
                            },
                            {
                                "children": [],
                                "depth": 1,
                                "id": 10,
                                "order": 10
                            },
                            {
                                "children": [],
                                "depth": 1,
                                "id": 11,
                                "order": 11
                            },
                            {
                                "children": [],
                                "depth": 1,
                                "id": 12,
                                "order": 12
                            },
                            {
                                "children": [],
                                "depth": 1,
                                "id": 13,
                                "order": 13
                            },
                            {
                                "children": [],
                                "depth": 1,
                                "id": 14,
                                "order": 14
                            },
                            {
                                "children": [],
                                "depth": 1,
                                "id": 15,
                                "order": 15
                            },
                            {
                                "children": [],
                                "depth": 1,
                                "id": 16,
                                "order": 16
                            },
                            {
                                "children": [],
                                "depth": 1,
                                "id": 17,
                                "order": 17
                            },
                            {
                                "children": [],
                                "depth": 1,
                                "id": 18,
                                "order": 18
                            },
                            {
                                "children": [],
                                "depth": 1,
                                "id": 19,
                                "order": 19
                            },
                            {
                                "children": [],
                                "depth": 1,
                                "id": 20,
                                "order": 20
                            },
                            {
                                "children": [],
                                "depth": 1,
                                "id": 21,
                                "order": 21
                            },
                            {
                                "children": [],
                                "depth": 1,
                                "id": 22,
                                "order": 22
                            },
                            {
                                "children": [],
                                "depth": 1,
                                "id": 23,
                                "order": 23
                            },
                            {
                                "children": [],
                                "depth": 1,
                                "id": 24,
                                "order": 24
                            },
                            {
                                "children": [],
                                "depth": 1,
                                "id": 25,
                                "order": 25
                            }
                        ],
                        "depth": 0,
                        "id": 0,
                        "order": 0
                    }
                ],
                "depth": -1,
                "id": -1,
                "order": -1
            }
        ],
        "tidyTraceNodeCount": 26
    },
    "state_change": {
        "stateChanges": [
            {
                "address": "0x2c58b11405a6a8154fd3bbc4ccaa43924f2be769",
                "erc": "",
                "slots": [
                    {
                        "current": "0x00000000000000000000000000000000000000000000000000000000000002eb",
                        "key": "0x169f97de0d9a84d840042b17d3c6b9638b3d6fd9024c9eb0c7a306a17b49f8c4",
                        "prev": "0x00000000000000000000000000000000000000000000000000000000000004cd"
                    },
                    {
                        "current": "0x00000000000000000000000000000000000000000000000000000000000004c8",
                        "key": "0x169f97de0d9a84d840042b17d3c6b9638b3d6fd9024c9eb0c7a306a17b49f8b4",
                        "prev": "0x00000000000000000000000000000000000000000000000000000000000004b7"
                    },
                    {
                        "current": "0x000000000000000000000000000000000000000000000000000000000000036f",
                        "key": "0x169f97de0d9a84d840042b17d3c6b9638b3d6fd9024c9eb0c7a306a17b49f8bb",
                        "prev": "0x0000000000000000000000000000000000000000000000000000000000000203"
                    },
                    {
                        "current": "0x00000000000000000000000000000000000000000000000000000000000004ca",
                        "key": "0x169f97de0d9a84d840042b17d3c6b9638b3d6fd9024c9eb0c7a306a17b49f8c9",
                        "prev": "0x00000000000000000000000000000000000000000000000000000000000004c9"
                    },
                    {
                        "current": "0x0000000000000000000000000000000000000000000000001bc16d674ec80000",
                        "key": "0x215ef0dad64655b537080ab6db8ff6fdcbdc33807b1574a57a15e51676a0d06c",
                        "prev": "0x0000000000000000000000000000000000000000000000000000000000000000"
                    },
                    {
                        "current": "0x0000000000000000000000000000000000000000000000000000000000000203",
                        "key": "0x169f97de0d9a84d840042b17d3c6b9638b3d6fd9024c9eb0c7a306a17b49f8ba",
                        "prev": "0x00000000000000000000000000000000000000000000000000000000000004b8"
                    },
                    {
                        "current": "0x0000000000000000000000000000000000000000000000000000000000000263",
                        "key": "0xb657ad275acc57cfab467d22f4a9079f5c9fcbc866a1b6a4100764c003b779c7",
                        "prev": "0x0000000000000000000000000000000000000000000000000000000000000000"
                    },
                    {
                        "current": "0x0000000000000000000000000000000000000000000000b1c1808c85fb0a8000",
                        "key": "0x169f97de0d9a84d840042b17d3c6b9638b3d6fd9024c9eb0c7a306a17b49f895",
                        "prev": "0x0000000000000000000000000000000000000000000000b1a5bf1f1eac428000"
                    },
                    {
                        "current": "0x00000000000000000000000000000000000000000000000000000000000008d6",
                        "key": "0x0000000000000000000000000000000000000000000000000000000000000003",
                        "prev": "0x00000000000000000000000000000000000000000000000000000000000008d5"
                    },
                    {
                        "current": "0x000000000000000000000000000000000000000000000000051b99614ac0032e",
                        "key": "0x169f97de0d9a84d840042b17d3c6b9638b3d6fd9024c9eb0c7a306a17b49f897",
                        "prev": "0x000000000000000000000000000000000000000000000000051b85aa1b9a0ac8"
                    },
                    {
                        "current": "0x00000000000000000000000000000000000000000000000000000000000002dd",
                        "key": "0x169f97de0d9a84d840042b17d3c6b9638b3d6fd9024c9eb0c7a306a17b49f8bc",
                        "prev": "0x000000000000000000000000000000000000000000000000000000000000036f"
                    },
                    {
                        "current": "0x0000000000000000000000000000000000000000000000b1c1808c85fb0a8000",
                        "key": "0x1061b5517c6e1813fa4a07d1613ee4384e750538d69c4513a8df591da5f938ac",
                        "prev": "0x0000000000000000000000000000000000000000000000b1a5bf1f1eac428000"
                    },
                    {
                        "current": "0x000000000000000000000000000000000000000000000000000000000000007b",
                        "key": "0x169f97de0d9a84d840042b17d3c6b9638b3d6fd9024c9eb0c7a306a17b49f89a",
                        "prev": "0x00000000000000000000000000000000000000000000000000000000000002fa"
                    },
                    {
                        "current": "0x00000000000000000000000000000000000000000000000000000000000004ce",
                        "key": "0x169f97de0d9a84d840042b17d3c6b9638b3d6fd9024c9eb0c7a306a17b49f89d",
                        "prev": "0x00000000000000000000000000000000000000000000000000000000000002eb"
                    },
                    {
                        "current": "0x0000000000000000000000000000000000000000000006d6876aebfb8ce40000",
                        "key": "0x169f97de0d9a84d840042b17d3c6b9638b3d6fd9024c9eb0c7a306a17b49f894",
                        "prev": "0x0000000000000000000000000000000000000000000006d571dca5f279140000"
                    },
                    {
                        "current": "0x00000000000000000000000000000000000000000000000055892698291ec000",
                        "key": "0x0000000000000000000000000000000000000000000000000000000000000002",
                        "prev": "0x0000000000000000000000000000000000000000000000005425e11fcb94c000"
                    },
                    {
                        "current": "0x0000000000000000000000000000000000000000000000000429d069189e0000",
                        "key": "0x9e3e73a407d0ba8cdaade0fd042e65ba67ae17329fb93928073d0b6014f7f460",
                        "prev": "0x0000000000000000000000000000000000000000000000000000000000000000"
                    },
                    {
                        "current": "0x00000000000000000000000000000000000000000000000000000000000004cc",
                        "key": "0x169f97de0d9a84d840042b17d3c6b9638b3d6fd9024c9eb0c7a306a17b49f8c0",
                        "prev": "0x000000000000000000000000000000000000000000000000000000000000049d"
                    },
                    {
                        "current": "0x00000000000000000000000000000000000000000000000000000000000004ce",
                        "key": "0x169f97de0d9a84d840042b17d3c6b9638b3d6fd9024c9eb0c7a306a17b49f8c5",
                        "prev": "0x00000000000000000000000000000000000000000000000000000000000002eb"
                    },
                    {
                        "current": "0x0000000000000000000000000000000000000000000000000000000000000001",
                        "key": "0xb657ad275acc57cfab467d22f4a9079f5c9fcbc866a1b6a4100764c003b779ca",
                        "prev": "0x0000000000000000000000000000000000000000000000000000000000000000"
                    },
                    {
                        "current": "0x0000000000000000000000000000000000000000000000000c033a9d25940000",
                        "key": "0xb6457486547dfd0925a66a479476c3a3e54935ea6192a908abe6bd58ec247b45",
                        "prev": "0x0000000000000000000000000000000000000000000000000bbc2cb846120000"
                    },
                    {
                        "current": "0x00000000000000000000000000000000000000000000000000000000000004bd",
                        "key": "0x169f97de0d9a84d840042b17d3c6b9638b3d6fd9024c9eb0c7a306a17b49f8b2",
                        "prev": "0x00000000000000000000000000000000000000000000000000000000000004c7"
                    },
                    {
                        "current": "0x00000000000000000000000000000000000000000000000000000000000000bc",
                        "key": "0x169f97de0d9a84d840042b17d3c6b9638b3d6fd9024c9eb0c7a306a17b49f8b6",
                        "prev": "0x00000000000000000000000000000000000000000000000000000000000004c9"
                    },
                    {
                        "current": "0x0000000000000000000000000000000000000000000000000bec474730544000",
                        "key": "0x18fd5681ae57cb24534810e7d412d5f5690a9c6f8b4cd1522e2df7c22ae0888a",
                        "prev": "0x0000000000000000000000000000000000000000000000000ba5396250d24000"
                    },
                    {
                        "current": "0x000000000000000000000000000000000000000000000006eefe1e7f6de9287f",
                        "key": "0x169f97de0d9a84d840042b17d3c6b9638b3d6fd9024c9eb0c7a306a17b49f896",
                        "prev": "0x000000000000000000000000000000000000000000000006ec37938eb2d50681"
                    },
                    {
                        "current": "0x00000000000000000000000000000000000000000000000000000000000004cb",
                        "key": "0x169f97de0d9a84d840042b17d3c6b9638b3d6fd9024c9eb0c7a306a17b49f8be",
                        "prev": "0x000000000000000000000000000000000000000000000000000000000000041f"
                    },
                    {
                        "current": "0x00000000000000000000000000000000000000000000000000000000000004ca",
                        "key": "0x169f97de0d9a84d840042b17d3c6b9638b3d6fd9024c9eb0c7a306a17b49f8b7",
                        "prev": "0x00000000000000000000000000000000000000000000000000000000000000bc"
                    },
                    {
                        "current": "0x00000000000000000000000000000000000000000000000000038d7ea4c68000",
                        "key": "0x215ef0dad64655b537080ab6db8ff6fdcbdc33807b1574a57a15e51676a0d073",
                        "prev": "0x0000000000000000000000000000000000000000000000000000000000000000"
                    },
                    {
                        "current": "0x00000000000000000000000000000000000000000000000000000000000002eb",
                        "key": "0x169f97de0d9a84d840042b17d3c6b9638b3d6fd9024c9eb0c7a306a17b49f89c",
                        "prev": "0x00000000000000000000000000000000000000000000000000000000000004cd"
                    },
                    {
                        "current": "0x0000000000000000000000000000000000000000000000000000000000000101",
                        "key": "0xb0823e07866f6a19f15157a2e68f508e4c55bb4279b7e03f3b945a9e42bdb872",
                        "prev": "0x0000000000000000000000000000000000000000000000000000000000000000"
                    },
                    {
                        "current": "0x000000000000000000000000000000000000000000000000000000000000007b",
                        "key": "0x169f97de0d9a84d840042b17d3c6b9638b3d6fd9024c9eb0c7a306a17b49f8c2",
                        "prev": "0x00000000000000000000000000000000000000000000000000000000000002fa"
                    },
                    {
                        "current": "0x000000000000000000000000000000000000000000000001158e460913d00000",
                        "key": "0x215ef0dad64655b537080ab6db8ff6fdcbdc33807b1574a57a15e51676a0d06d",
                        "prev": "0x0000000000000000000000000000000000000000000000000000000000000000"
                    },
                    {
                        "current": "0x000000000000000000000000000000000000000000000000026e26b651110000",
                        "key": "0x586689db7536874b78a6eac0f58556a56a106985743f7c16a699b27bb02f88c1",
                        "prev": "0x000000000000000000000000000000000000000000000000022718d1718f0000"
                    },
                    {
                        "current": "0x0000000000000000000000000000000000000000000000001ecdb5b992cce000",
                        "key": "0x1e00437c059ded11d56fbc0f9acb2b99126636f749097c5c8224b228fcea6fe5",
                        "prev": "0x0000000000000000000000000000000000000000000000001e3f99efd3c8e000"
                    },
                    {
                        "current": "0x00000000000000000000000000000000000000000000000000000000000002fa",
                        "key": "0x169f97de0d9a84d840042b17d3c6b9638b3d6fd9024c9eb0c7a306a17b49f8c1",
                        "prev": "0x00000000000000000000000000000000000000000000000000000000000004cc"
                    },
                    {
                        "current": "0x00000000000000000000000000000000000000000000000000000000000002fa",
                        "key": "0x169f97de0d9a84d840042b17d3c6b9638b3d6fd9024c9eb0c7a306a17b49f899",
                        "prev": "0x00000000000000000000000000000000000000000000000000000000000004cc"
                    },
                    {
                        "current": "0x000000000000000000000000000000000000000000000000000000005c96220b",
                        "key": "0x169f97de0d9a84d840042b17d3c6b9638b3d6fd9024c9eb0c7a306a17b49f891",
                        "prev": "0x000000000000000000000000000000000000000000000000000000005c96207a"
                    },
                    {
                        "current": "0x000000000000000000000000000000000000000000000000000000000000049d",
                        "key": "0x169f97de0d9a84d840042b17d3c6b9638b3d6fd9024c9eb0c7a306a17b49f8bf",
                        "prev": "0x00000000000000000000000000000000000000000000000000000000000004cb"
                    },
                    {
                        "current": "0x00000000000000000000000000000000000000000000000003a9ea99ecb40000",
                        "key": "0x530e015a04c72c7695e070c2195023411a90ed3494434a33da2b6c9903b43740",
                        "prev": "0x000000000000000000000000000000000000000000000000031bced02db00000"
                    },
                    {
                        "current": "0x00000000000000000000000000000000000000000000000003a9ea99ecb40000",
                        "key": "0xbbd1ea16b82b060b75c1dcd0667344b47254e65c5b4877a72ea66018f43118ec",
                        "prev": "0x000000000000000000000000000000000000000000000000031bced02db00000"
                    },
                    {
                        "current": "0x00000000000000000000000000000000000000000000000013210666e7f36000",
                        "key": "0xbb47c685b7a6169f9415fd073108f8b7da3e741b7dde8513850bca404684fa9b",
                        "prev": "0x00000000000000000000000000000000000000000000000012d9f88208716000"
                    },
                    {
                        "current": "0x00000000000000000000000000000000000000000000000000000000000004b7",
                        "key": "0x169f97de0d9a84d840042b17d3c6b9638b3d6fd9024c9eb0c7a306a17b49f8b3",
                        "prev": "0x00000000000000000000000000000000000000000000000000000000000004bd"
                    },
                    {
                        "current": "0x00000000000000000000000000000000000000000000000000000000000004b8",
                        "key": "0x169f97de0d9a84d840042b17d3c6b9638b3d6fd9024c9eb0c7a306a17b49f8b9",
                        "prev": "0x0000000000000000000000000000000000000000000000000000000000000009"
                    },
                    {
                        "current": "0x00000000000000000000000000000000000000000000000000000000000004ce",
                        "key": "0x8d16e3cf000c16c61543016f79f6249840f2d3231ad92e5d91a847a817a616ac",
                        "prev": "0x0000000000000000000000000000000000000000000000000000000000000000"
                    },
                    {
                        "current": "0x00000000000000000000000000000000000000000000000000000000000004c9",
                        "key": "0x169f97de0d9a84d840042b17d3c6b9638b3d6fd9024c9eb0c7a306a17b49f8b5",
                        "prev": "0x00000000000000000000000000000000000000000000000000000000000004c8"
                    },
                    {
                        "current": "0x00000000000000000000000000000000000000000000000000000000000004cd",
                        "key": "0x169f97de0d9a84d840042b17d3c6b9638b3d6fd9024c9eb0c7a306a17b49f8c3",
                        "prev": "0x000000000000000000000000000000000000000000000000000000000000007b"
                    },
                    {
                        "current": "0x00000000000000000000000000000000000000000000000000000000000004cd",
                        "key": "0x169f97de0d9a84d840042b17d3c6b9638b3d6fd9024c9eb0c7a306a17b49f89b",
                        "prev": "0x000000000000000000000000000000000000000000000000000000000000007b"
                    },
                    {
                        "current": "0x00000000000000000000000000000000000000000000000002ffe22f51c0c000",
                        "key": "0x8fab3b3b6d3bf24f9b00213fe8dda2fb1e188fcd88f523fcb711ff1f6aed59e7",
                        "prev": "0x00000000000000000000000000000000000000000000000002b8d44a723ec000"
                    },
                    {
                        "current": "0x0000000000000000000000000000000000000000000000006626714a2808d7a0",
                        "key": "0x215ef0dad64655b537080ab6db8ff6fdcbdc33807b1574a57a15e51676a0d06e",
                        "prev": "0x0000000000000000000000000000000000000000000000000000000000000000"
                    },
                    {
                        "current": "0x0000000000000000000000000000000000000000000000000000000000000001",
                        "key": "0xb657ad275acc57cfab467d22f4a9079f5c9fcbc866a1b6a4100764c003b779cb",
                        "prev": "0x0000000000000000000000000000000000000000000000000000000000000000"
                    },
                    {
                        "current": "0x000000000000000000000000000000000000000000000000043478e506f18000",
                        "key": "0xbf9d401098de5f726b743ded8be27d97dff83a958c044e4a6b6c9d48875aa24f",
                        "prev": "0x000000000000000000000000000000000000000000000000035f4f36686b8000"
                    },
                    {
                        "current": "0x00000000000000000000000000000000000000000000000003a9ea99ecb40000",
                        "key": "0xee1db292c7600eb6d07a5c1847c41a45dd94e58dc4d123b5d637bd0784f9c29b",
                        "prev": "0x000000000000000000000000000000000000000000000000031bced02db00000"
                    },
                    {
                        "current": "0x000000000000000000000000000000000000000000000000224b92978449e000",
                        "key": "0xb8dca47b5a21b14b970a694a4ed86d4395133e426c22805f0cf8740f8eb9db63",
                        "prev": "0x00000000000000000000000000000000000000000000000021bd76cdc545e000"
                    },
                    {
                        "current": "0x00000000000000000000000000000000000000000000000017b5f413e88bc000",
                        "key": "0x8ff154b69b3b40c11effaf182586e40eb0e8eab5c2d51945cbe34b1b0bcf6e2c",
                        "prev": "0x0000000000000000000000000000000000000000000000001727d84a2987c000"
                    },
                    {
                        "current": "0x000000000000000000000000a210b20c55c00b55dd71d2abd63734a3071ba901",
                        "key": "0xb657ad275acc57cfab467d22f4a9079f5c9fcbc866a1b6a4100764c003b779c1",
                        "prev": "0x0000000000000000000000000000000000000000000000000000000000000000"
                    },
                    {
                        "current": "0x0000000000000000000000000000000000000000000000001b49d7cfd7a44000",
                        "key": "0x3d4691043262bb71b358bddc6f01f8c4de71fc1f1a1b51e3a78463b85cab6622",
                        "prev": "0x0000000000000000000000000000000000000000000000001abbbc0618a04000"
                    },
                    {
                        "current": "0x0000000000000000000000000000000000000000000000000000000000000009",
                        "key": "0x169f97de0d9a84d840042b17d3c6b9638b3d6fd9024c9eb0c7a306a17b49f8b8",
                        "prev": "0x00000000000000000000000000000000000000000000000000000000000004ca"
                    },
                    {
                        "current": "0x0000000000000000000000000000000000000000000000000000000000000012",
                        "key": "0x9e3e73a407d0ba8cdaade0fd042e65ba67ae17329fb93928073d0b6014f7f464",
                        "prev": "0x000000000000000000000000000000000000000000000000000000000000000f"
                    },
                    {
                        "current": "0x000000000000000000000000000000000000000000000000000000000000041f",
                        "key": "0x169f97de0d9a84d840042b17d3c6b9638b3d6fd9024c9eb0c7a306a17b49f8bd",
                        "prev": "0x00000000000000000000000000000000000000000000000000000000000002dd"
                    },
                    {
                        "current": "0x0000000000000000000000000000000000000000000000000000000000000001",
                        "key": "0xb657ad275acc57cfab467d22f4a9079f5c9fcbc866a1b6a4100764c003b779c6",
                        "prev": "0x0000000000000000000000000000000000000000000000000000000000000000"
                    },
                    {
                        "current": "0x000000000000000000000000000000000000000000000001158e460913d00000",
                        "key": "0xb657ad275acc57cfab467d22f4a9079f5c9fcbc866a1b6a4100764c003b779c8",
                        "prev": "0x0000000000000000000000000000000000000000000000000000000000000000"
                    },
                    {
                        "current": "0x00000000000000000000000000000000000000000000000000000000000004ce",
                        "key": "0x169f97de0d9a84d840042b17d3c6b9638b3d6fd9024c9eb0c7a306a17b49f88f",
                        "prev": "0x00000000000000000000000000000000000000000000000000000000000002eb"
                    },
                    {
                        "current": "0x0000000000000000000000000000000000000000000000000a09a46c3f97a000",
                        "key": "0xcb250a1a60f48f70f08c912424f39071fd9a8b7099a72dffd251fce0294f374d",
                        "prev": "0x00000000000000000000000000000000000000000000000009c296876015a000"
                    }
                ],
                "storageVariables": []
            },
            {
                "address": "0xff31369ec8c5be238936ecbceea60bf46427ce28",
                "erc": "",
                "slots": [
                    {
                        "current": "0x000000000000000000000000a210b20c55c00b55dd71d2abd63734a3071ba901",
                        "key": "0xe10af57eca281afbdf0363b153d8b9ef1c6ec2c2dbc21679d05c5b08641cb8bf",
                        "prev": "0x0000000000000000000000000000000000000000000000000000000000000000"
                    },
                    {
                        "current": "0x00000000000000000000000000000000000000000000000000000000000004ce",
                        "key": "0x0000000000000000000000000000000000000000000000000000000000000006",
                        "prev": "0x00000000000000000000000000000000000000000000000000000000000004cd"
                    },
                    {
                        "current": "0x00000000000000000000000000000000000000000000000000000000000004ce",
                        "key": "0x89bacc6053ca6d7602b2fb3b713f6f37736e08f73d0185c19b135388aa8dbba0",
                        "prev": "0x0000000000000000000000000000000000000000000000000000000000000000"
                    }
                ],
                "storageVariables": []
            }
        ]
    }
}