{
    "balance_change": {
        "balanceChanges": [
            {
                "account": "0xd8b93107d820d294cd8082a15c65261ee9d30790",
                "assets": [
                    {
                        "address": "0xf226e38c3007b3d974fc79bcf5a77750035436ee",
                        "amount": "20",
                        "iconUrl": "",
                        "isERC1155": false,
                        "isERC721": false,
                        "sign": false,
                        "value": ""
                    }
                ]
            },
            {
                "account": "0x0000000000000000000000000000000000000000",
                "assets": [
                    {
                        "address": "0x8853b05833029e3cf8d3cbb592f9784fa43d2a79",
                        "amount": "1",
                        "iconUrl": "",
                        "isERC1155": false,
                        "isERC721": true,
                        "sign": false,
                        "tokenID": "248396",
                        "value": ""
                    }
                ]
            },
            {
                "account": "0xbe25ee3619472545418acb609b0ce6ca6f69bdfb",
                "assets": [
                    {
                        "address": "0xf226e38c3007b3d974fc79bcf5a77750035436ee",
                        "amount": "20",
                        "iconUrl": "",
                        "isERC1155": false,
                        "isERC721": false,
                        "sign": true,
                        "value": ""
                    }
                ]
            },
            {
                "account": "0xc9dd2fef87ce09f88aa3ef13ba98208f95beeae0",
                "assets": [
                    {
                        "address": "0x8853b05833029e3cf8d3cbb592f9784fa43d2a79",
                        "amount": "1",
                        "iconUrl": "",
                        "isERC1155": false,
                        "isERC721": true,
                        "sign": true,
                        "tokenID": "248396",
                        "value": ""
                    }
                ]
            }
        ]
    },
    "profile": {
        "basic_info": {
            "baseFee": "",
            "blockNumber": 9342029,
            "callData": "0xee5301d5000000000000000000000000c9dd2fef87ce09f88aa3ef13ba98208f95beeae0f1f9ab3b0aebd33995d1983a625e0a47693decb8b3360dc46d9b6138e582ec21e9c98299e6131b5f0b20e47f01da81eb942fc86f346a3462112b8f6f4cca403200000000000000000000000000000000000000000000000000000000000000a000000000000000000000000000000000000000000000000000000000000001a0000000000000000000000000000000000000000000000000000000000000000710dcae1bf15683f1da11efc60214e763f66badc721f3c9df84c95dbec324fa4d1c3277e6b9510531b2c1516ab21327c962c294a186915f76c81a18db876cda052a60f20c75486f0d58054a58e732f5a92a0a65a2bf3dda2c163ad066d9e5191b616967ad5da18f2046fbb6501523bed754353c68317eb52590ff7e63ae67fa2ab9cdfc222b9d67f010f79c0effc640abb34bf06a9b35998f11feca6b2453c706c933c786e37e9b0e7ef7dc872773e1041cf3d1da339e3431097fa2e456b25d6df773eda05fccf4fb41833eae12f5e916b93255de03d674f7d20328cc86b6c5ae000000000000000000000000000000000000000000000000000000000000001f636f6465783a3a35653261363236306465356435333438393330643738366200",
            "debugEnable": true,
            "errorInfo": "",
            "eventCount": 4,
            "feeRecipient": "0x5a0b54d5dc17e0aadc383d2db43b0a0d3e029c4c",
            "formatValue": "0",
            "gasLimit": 466536,
            "gasPrice": "2",
            "gasUsed": 377070,
            "intTxnCount": 8,
            "internalRevert": false,
            "internalRevertMessage": "",
            "isContractCreation": false,
            "isFlashloan": false,
            "maxFee": "",
            "nonce": 235338,
            "overwritedBlockNumber": -1,
            "priorityFee": "",
            "receiver": "0xd8b93107d820d294cd8082a15c65261ee9d30790",
            "revertMessage": "",
            "sender": "0x4e57529d3630b4ad415bdedda508e40e4c632baf",
            "simulationEnable": true,
            "sourceTxnHash": "0xa04527c553e48e38e3d77933f16021bc28f51fb0151470da1536b03aa5e054e5",
            "status": true,
            "timestamp": "2020-01-24T03:20:36Z",
            "transactionFee": "0.00075414",
            "txnHash": "0xa04527c553e48e38e3d77933f16021bc28f51fb0151470da1536b03aa5e054e5",
            "txnIndex": 96,
            "type": 0,
            "value": "0"
        },
        "fund_flow": [
            {
                "amount": "20",
                "from": "0xd8b93107d820d294cd8082a15c65261ee9d30790",
                "id": 1,
                "isERC1155": false,
                "isERC721": false,
                "isReverted": false,
                "order": 1,
                "to": "0xbe25ee3619472545418acb609b0ce6ca6f69bdfb",
                "token": "0xf226e38c3007b3d974fc79bcf5a77750035436ee"
            },
            {
                "amount": "1",
                "from": "0x0000000000000000000000000000000000000000",
                "id": 2,
                "isERC1155": false,
                "isERC721": true,
                "isReverted": false,
                "order": 2,
                "to": "0xc9dd2fef87ce09f88aa3ef13ba98208f95beeae0",
                "token": "0x8853b05833029e3cf8d3cbb592f9784fa43d2a79",
                "tokenID": "248396"
            }
        ],
        "token_infos": [
            {
                "address": "0xf226e38c3007b3d974fc79bcf5a77750035436ee",
                "decimals": 18
            },
            {
                "address": "0xeeeeeeeeeeeeeeeeeeeeeeeeeeeeeeeeeeeeeeee",
                "decimals": 18
            },
            {
                "address": "0xc02aaa39b223fe8d0a0e5c4f27ead9083c756cc2",
                "decimals": 18
            }
        ]
    },
    "address_label": {
        "labels": [
            {
                "address": "0xeeeeeeeeeeeeeeeeeeeeeeeeeeeeeeeeeeeeeeee",
                "label": "Ether"
            },
            {
                "address": "0x0000000000000000000000000000000000000000",
                "label": "Null Address"
            },
            {
                "address": "0x2c00a92a9c5c919a1a4b5a8ee6bc520f61dbe421",
                "label": "CodexRecord"
            },
            {
                "address": "0x0000000000000000000000000000000000000002",
                "label": "Precompiled"
            },
            {
                "address": "0xf226e38c3007b3d974fc79bcf5a77750035436ee",
                "label": "CodexCoin (CODX)"
            },
            {
                "address": "0x8853b05833029e3cf8d3cbb592f9784fa43d2a79",
                "label": "Codex Record: CR Token"
            },
            {
                "address": "0x0000000000000000000000000000000000000001",
                "label": "Precompiled"
            },
            {
                "address": "0x0000000000000000000000000000000000000003",
                "label": "Precompiled"
            },
            {
                "address": "0x0000000000000000000000000000000000000004",
                "label": "Precompiled"
            }
        ]
    },
    "trace": {
        "accountLabels": null,
        "dataMap": {
            "-1": {
                "invocation": {
                    "address": "0x4e57529d3630b4ad415bdedda508e40e4c632baf",
                    "callData": "",
                    "decodedMethod": null,
                    "errorInfo": "",
                    "fromAddress": "",
                    "gasUsed": 0,
                    "id": -1,
                    "methodDecoded": false,
                    "operation": "",
                    "output": "",
                    "revert": false,
                    "revertMessage": "",
                    "selector": "",
                    "status": false,
                    "value": ""
                },
                "nodeType": 0
            },
            "0": {
                "invocation": {
                    "address": "0xd8b93107d820d294cd8082a15c65261ee9d30790",
                    "callData": "0x000000000000000000000000c9dd2fef87ce09f88aa3ef13ba98208f95beeae0f1f9ab3b0aebd33995d1983a625e0a47693decb8b3360dc46d9b6138e582ec21e9c98299e6131b5f0b20e47f01da81eb942fc86f346a3462112b8f6f4cca403200000000000000000000000000000000000000000000000000000000000000a000000000000000000000000000000000000000000000000000000000000001a0000000000000000000000000000000000000000000000000000000000000000710dcae1bf15683f1da11efc60214e763f66badc721f3c9df84c95dbec324fa4d1c3277e6b9510531b2c1516ab21327c962c294a186915f76c81a18db876cda052a60f20c75486f0d58054a58e732f5a92a0a65a2bf3dda2c163ad066d9e5191b616967ad5da18f2046fbb6501523bed754353c68317eb52590ff7e63ae67fa2ab9cdfc222b9d67f010f79c0effc640abb34bf06a9b35998f11feca6b2453c706c933c786e37e9b0e7ef7dc872773e1041cf3d1da339e3431097fa2e456b25d6df773eda05fccf4fb41833eae12f5e916b93255de03d674f7d20328cc86b6c5ae000000000000000000000000000000000000000000000000000000000000001f636f6465783a3a35653261363236306465356435333438393330643738366200",
                    "decodedMethod": {
                        "callParams": [
                            {
                                "name": "_to",
                                "type": "address",
                                "value": "0xc9dd2fef87ce09f88aa3ef13ba98208f95beeae0"
                            },
                            {
                                "name": "_nameHash",
                                "type": "bytes32",
                                "value": "0xf1f9ab3b0aebd33995d1983a625e0a47693decb8b3360dc46d9b6138e582ec21"
                            },
                            {
                                "name": "_descriptionHash",
                                "type": "bytes32",
                                "value": "0xe9c98299e6131b5f0b20e47f01da81eb942fc86f346a3462112b8f6f4cca4032"
                            },
                            {
                                "name": "_fileHashes",
                                "type": "bytes32[]",
                                "value": [
                                    "0x10dcae1bf15683f1da11efc60214e763f66badc721f3c9df84c95dbec324fa4d",
                                    "0x1c3277e6b9510531b2c1516ab21327c962c294a186915f76c81a18db876cda05",
                                    "0x2a60f20c75486f0d58054a58e732f5a92a0a65a2bf3dda2c163ad066d9e5191b",
                                    "0x616967ad5da18f2046fbb6501523bed754353c68317eb52590ff7e63ae67fa2a",
                                    "0xb9cdfc222b9d67f010f79c0effc640abb34bf06a9b35998f11feca6b2453c706",
                                    "0xc933c786e37e9b0e7ef7dc872773e1041cf3d1da339e3431097fa2e456b25d6d",
                                    "0xf773eda05fccf4fb41833eae12f5e916b93255de03d674f7d20328cc86b6c5ae"
                                ]
                            },
                            {
                                "name": "_data",
                                "type": "bytes",
                                "value": "0x636f6465783a3a356532613632363064653564353334383933306437383662"
                            }
                        ],
                        "constructorArguments": "",
                        "name": "mint",
                        "returnParams": [],
                        "signature": "mint(address,bytes32,bytes32,bytes32[],bytes)"
                    },
                    "errorInfo": "",
                    "fromAddress": "0x4e57529d3630b4ad415bdedda508e40e4c632baf",
                    "gasUsed": 377070,
                    "id": 0,
                    "methodDecoded": true,
                    "operation": "CALL",
                    "output": "",
                    "revert": false,
                    "revertMessage": "",
                    "selector": "0xee5301d5",
                    "status": true,
                    "value": "0"
                },
                "nodeType": 0
            },
            "1": {
                "invocation": {
                    "address": "0x029c8f8668c2f89379e23ba27c6af9847a1ceec7",
                    "callData": "0xee5301d500000000000000000000000000000000000000000000000000000000",
                    "decodedMethod": null,
                    "errorInfo": "",
                    "fromAddress": "0xd8b93107d820d294cd8082a15c65261ee9d30790",
                    "gasUsed": 6961,
                    "id": 1,
                    "methodDecoded": false,
                    "operation": "STATICCALL",
                    "output": "0x000000000000000000000000000000000000000000000001158e460913d00000",
                    "revert": false,
                    "revertMessage": "",
                    "selector": "0xc5ae44de",
                    "status": true,
                    "value": "0"
                },
                "nodeType": 0
            },
            "10": {
                "event": {
                    "contract": "0x8853b05833029e3cf8d3cbb592f9784fa43d2a79",
                    "decodedLog": {
                        "name": "Transfer",
                        "params": [
                            {
                                "name": "from",
                                "type": "address",
                                "value": "0x0000000000000000000000000000000000000000"
                            },
                            {
                                "name": "to",
                                "type": "address",
                                "value": "0xc9dd2fef87ce09f88aa3ef13ba98208f95beeae0"
                            },
                            {
                                "decimalAvailable": true,
                                "name": "tokenId",
                                "type": "uint256",
                                "value": "248,396"
                            }
                        ],
                        "signature": "Transfer(address,address,uint256)"
                    },
                    "id": 10,
                    "logData": "0x",
                    "logDecoded": true,
                    "operation": "EVENT",
                    "revert": false,
                    "status": true,
                    "topics": [
                        "0xddf252ad1be2c89b69c2b068fc378daa952ba7f163c4a11628f55a4df523b3ef",
                        "0x0000000000000000000000000000000000000000000000000000000000000000",
                        "0x000000000000000000000000c9dd2fef87ce09f88aa3ef13ba98208f95beeae0",
                        "0x000000000000000000000000000000000000000000000000000000000003ca4c"
                    ]
                },
                "nodeType": 1
            },
            "11": {
                "event": {
                    "contract": "0x8853b05833029e3cf8d3cbb592f9784fa43d2a79",
                    "decodedLog": {
                        "name": "Minted",
                        "params": [
                            {
                                "name": "_tokenId",
                                "type": "uint256",
                                "value": "248,396"
                            },
                            {
                                "name": "_data",
                                "type": "bytes",
                                "value": "0x636f6465783a3a356532613632363064653564353334383933306437383662"
                            }
                        ],
                        "signature": "Minted(uint256,bytes)"
                    },
                    "id": 11,
                    "logData": "0x000000000000000000000000000000000000000000000000000000000003ca4c0000000000000000000000000000000000000000000000000000000000000040000000000000000000000000000000000000000000000000000000000000001f636f6465783a3a35653261363236306465356435333438393330643738366200",
                    "logDecoded": true,
                    "operation": "EVENT",
                    "revert": false,
                    "status": true,
                    "topics": [
                        "0x9573133e4bf0477d257d5e746e10de577953ee706da897be78cf668a64c16a16"
                    ]
                },
                "nodeType": 1
            },
            "12": {
                "event": {
                    "contract": "0xd8b93107d820d294cd8082a15c65261ee9d30790",
                    "decodedLog": null,
                    "id": 12,
                    "logData": "0x",
                    "logDecoded": false,
                    "operation": "EVENT",
                    "revert": false,
                    "status": true,
                    "topics": []
                },
                "nodeType": 1
            },
            "2": {
                "invocation": {
                    "address": "0x8853b05833029e3cf8d3cbb592f9784fa43d2a79",
                    "callData": "0x",
                    "decodedMethod": {
                        "callParams": [],
                        "constructorArguments": "",
                        "name": "feeRecipient",
                        "returnParams": [
                            {
                                "name": "",
                                "type": "address",
                                "value": "0x0000000000000000000000000000000000000000"
                            }
                        ],
                        "signature": "feeRecipient()"
                    },
                    "errorInfo": "",
                    "fromAddress": "0x029c8f8668c2f89379e23ba27c6af9847a1ceec7",
                    "gasUsed": 3311,
                    "id": 2,
                    "methodDecoded": true,
                    "operation": "STATICCALL",
                    "output": "0x0000000000000000000000000000000000000000000000000000000000000000",
                    "revert": false,
                    "revertMessage": "",
                    "selector": "0x46904840",
                    "status": true,
                    "value": "0"
                },
                "nodeType": 0
            },
            "3": {
                "invocation": {
                    "address": "0x2c00a92a9c5c919a1a4b5a8ee6bc520f61dbe421",
                    "callData": "0x",
                    "decodedMethod": {
                        "callParams": [],
                        "constructorArguments": "",
                        "name": "feeRecipient",
                        "returnParams": [
                            {
                                "name": "",
                                "type": "address",
                                "value": "0x0000000000000000000000000000000000000000"
                            }
                        ],
                        "signature": "feeRecipient()"
                    },
                    "errorInfo": "",
                    "fromAddress": "0x8853b05833029e3cf8d3cbb592f9784fa43d2a79",
                    "gasUsed": 1423,
                    "id": 3,
                    "methodDecoded": true,
                    "operation": "DELEGATECALL",
                    "output": "0x0000000000000000000000000000000000000000000000000000000000000000",
                    "revert": false,
                    "revertMessage": "",
                    "selector": "0x46904840",
                    "status": true,
                    "value": "0"
                },
                "nodeType": 0
            },
            "4": {
                "invocation": {
                    "address": "0x029c8f8668c2f89379e23ba27c6af9847a1ceec7",
                    "callData": "0x",
                    "decodedMethod": {
                        "callParams": [],
                        "constructorArguments": "",
                        "name": "feeRecipient",
                        "returnParams": [
                            {
                                "name": "",
                                "type": "address",
                                "value": "0xbe25ee3619472545418acb609b0ce6ca6f69bdfb"
                            }
                        ],
                        "signature": "feeRecipient()"
                    },
                    "errorInfo": "",
                    "fromAddress": "0xd8b93107d820d294cd8082a15c65261ee9d30790",
                    "gasUsed": 1083,
                    "id": 4,
                    "methodDecoded": true,
                    "operation": "STATICCALL",
                    "output": "0x000000000000000000000000be25ee3619472545418acb609b0ce6ca6f69bdfb",
                    "revert": false,
                    "revertMessage": "",
                    "selector": "0x46904840",
                    "status": true,
                    "value": "0"
                },
                "nodeType": 0
            },
            "5": {
                "invocation": {
                    "address": "0xf226e38c3007b3d974fc79bcf5a77750035436ee",
                    "callData": "0x000000000000000000000000be25ee3619472545418acb609b0ce6ca6f69bdfb000000000000000000000000000000000000000000000001158e460913d00000",
                    "decodedMethod": {
                        "callParams": [
                            {
                                "name": "_to",
                                "type": "address",
                                "value": "0xbe25ee3619472545418acb609b0ce6ca6f69bdfb"
                            },
                            {
                                "decimalAvailable": true,
                                "name": "_value",
                                "type": "uint256",
                                "value": "20,000,000,000,000,000,000"
                            }
                        ],
                        "constructorArguments": "",
                        "name": "transfer",
                        "returnParams": [
                            {
                                "name": "",
                                "type": "bool",
                                "value": true
                            }
                        ],
                        "signature": "transfer(address,uint256)"
                    },
                    "errorInfo": "",
                    "fromAddress": "0xd8b93107d820d294cd8082a15c65261ee9d30790",
                    "gasUsed": 16545,
                    "id": 5,
                    "methodDecoded": true,
                    "operation": "CALL",
                    "output": "0x0000000000000000000000000000000000000000000000000000000000000001",
                    "revert": false,
                    "revertMessage": "",
                    "selector": "0xa9059cbb",
                    "status": true,
                    "value": "0"
                },
                "nodeType": 0
            },
            "6": {
                "event": {
                    "contract": "0xf226e38c3007b3d974fc79bcf5a77750035436ee",
                    "decodedLog": {
                        "name": "Transfer",
                        "params": [
                            {
                                "name": "from",
                                "type": "address",
                                "value": "0xd8b93107d820d294cd8082a15c65261ee9d30790"
                            },
                            {
                                "name": "to",
                                "type": "address",
                                "value": "0xbe25ee3619472545418acb609b0ce6ca6f69bdfb"
                            },
                            {
                                "decimalAvailable": true,
                                "name": "value",
                                "type": "uint256",
                                "value": "20,000,000,000,000,000,000"
                            }
                        ],
                        "signature": "Transfer(address,address,uint256)"
                    },
                    "id": 6,
                    "logData": "0x000000000000000000000000000000000000000000000001158e460913d00000",
                    "logDecoded": true,
                    "operation": "EVENT",
                    "revert": false,
                    "status": true,
                    "topics": [
                        "0xddf252ad1be2c89b69c2b068fc378daa952ba7f163c4a11628f55a4df523b3ef",
                        "0x000000000000000000000000d8b93107d820d294cd8082a15c65261ee9d30790",
                        "0x000000000000000000000000be25ee3619472545418acb609b0ce6ca6f69bdfb"
                    ]
                },
                "nodeType": 1
            },
            "7": {
                "invocation": {
                    "address": "0x029c8f8668c2f89379e23ba27c6af9847a1ceec7",
                    "callData": "0x0000000000000000000000004e57529d3630b4ad415bdedda508e40e4c632baf",
                    "decodedMethod": null,
                    "errorInfo": "",
                    "fromAddress": "0xd8b93107d820d294cd8082a15c65261ee9d30790",
                    "gasUsed": 1264,
                    "id": 7,
                    "methodDecoded": false,
                    "operation": "STATICCALL",
                    "output": "0x0000000000000000000000000000000000000000000000000000000000000001",
                    "revert": false,
                    "revertMessage": "",
                    "selector": "0xb3c2f627",
                    "status": true,
                    "value": "0"
                },
                "nodeType": 0
            },
            "8": {
                "invocation": {
                    "address": "0x8853b05833029e3cf8d3cbb592f9784fa43d2a79",
                    "callData": "0x000000000000000000000000c9dd2fef87ce09f88aa3ef13ba98208f95beeae0f1f9ab3b0aebd33995d1983a625e0a47693decb8b3360dc46d9b6138e582ec21e9c98299e6131b5f0b20e47f01da81eb942fc86f346a3462112b8f6f4cca403200000000000000000000000000000000000000000000000000000000000000a000000000000000000000000000000000000000000000000000000000000001a0000000000000000000000000000000000000000000000000000000000000000710dcae1bf15683f1da11efc60214e763f66badc721f3c9df84c95dbec324fa4d1c3277e6b9510531b2c1516ab21327c962c294a186915f76c81a18db876cda052a60f20c75486f0d58054a58e732f5a92a0a65a2bf3dda2c163ad066d9e5191b616967ad5da18f2046fbb6501523bed754353c68317eb52590ff7e63ae67fa2ab9cdfc222b9d67f010f79c0effc640abb34bf06a9b35998f11feca6b2453c706c933c786e37e9b0e7ef7dc872773e1041cf3d1da339e3431097fa2e456b25d6df773eda05fccf4fb41833eae12f5e916b93255de03d674f7d20328cc86b6c5ae000000000000000000000000000000000000000000000000000000000000001f636f6465783a3a35653261363236306465356435333438393330643738366200",
                    "decodedMethod": {
                        "callParams": [
                            {
                                "name": "_to",
                                "type": "address",
                                "value": "0xc9dd2fef87ce09f88aa3ef13ba98208f95beeae0"
                            },
                            {
                                "name": "_nameHash",
                                "type": "bytes32",
                                "value": "0xf1f9ab3b0aebd33995d1983a625e0a47693decb8b3360dc46d9b6138e582ec21"
                            },
                            {
                                "name": "_descriptionHash",
                                "type": "bytes32",
                                "value": "0xe9c98299e6131b5f0b20e47f01da81eb942fc86f346a3462112b8f6f4cca4032"
                            },
                            {
                                "name": "_fileHashes",
                                "type": "bytes32[]",
                                "value": [
                                    "0x10dcae1bf15683f1da11efc60214e763f66badc721f3c9df84c95dbec324fa4d",
                                    "0x1c3277e6b9510531b2c1516ab21327c962c294a186915f76c81a18db876cda05",
                                    "0x2a60f20c75486f0d58054a58e732f5a92a0a65a2bf3dda2c163ad066d9e5191b",
                                    "0x616967ad5da18f2046fbb6501523bed754353c68317eb52590ff7e63ae67fa2a",
                                    "0xb9cdfc222b9d67f010f79c0effc640abb34bf06a9b35998f11feca6b2453c706",
                                    "0xc933c786e37e9b0e7ef7dc872773e1041cf3d1da339e3431097fa2e456b25d6d",
                                    "0xf773eda05fccf4fb41833eae12f5e916b93255de03d674f7d20328cc86b6c5ae"
                                ]
                            },
                            {
                                "name": "_data",
                                "type": "bytes",
                                "value": "0x636f6465783a3a356532613632363064653564353334383933306437383662"
                            }
                        ],
                        "constructorArguments": "",
                        "name": "mint",
                        "returnParams": [],
                        "signature": "mint(address,bytes32,bytes32,bytes32[],bytes)"
                    },
                    "errorInfo": "",
                    "fromAddress": "0xd8b93107d820d294cd8082a15c65261ee9d30790",
                    "gasUsed": 311967,
                    "id": 8,
                    "methodDecoded": true,
                    "operation": "CALL",
                    "output": "",
                    "revert": false,
                    "revertMessage": "",
                    "selector": "0xee5301d5",
                    "status": true,
                    "value": "0"
                },
                "nodeType": 0
            },
            "9": {
                "invocation": {
                    "address": "0x2c00a92a9c5c919a1a4b5a8ee6bc520f61dbe421",
                    "callData": "0x000000000000000000000000c9dd2fef87ce09f88aa3ef13ba98208f95beeae0f1f9ab3b0aebd33995d1983a625e0a47693decb8b3360dc46d9b6138e582ec21e9c98299e6131b5f0b20e47f01da81eb942fc86f346a3462112b8f6f4cca403200000000000000000000000000000000000000000000000000000000000000a000000000000000000000000000000000000000000000000000000000000001a0000000000000000000000000000000000000000000000000000000000000000710dcae1bf15683f1da11efc60214e763f66badc721f3c9df84c95dbec324fa4d1c3277e6b9510531b2c1516ab21327c962c294a186915f76c81a18db876cda052a60f20c75486f0d58054a58e732f5a92a0a65a2bf3dda2c163ad066d9e5191b616967ad5da18f2046fbb6501523bed754353c68317eb52590ff7e63ae67fa2ab9cdfc222b9d67f010f79c0effc640abb34bf06a9b35998f11feca6b2453c706c933c786e37e9b0e7ef7dc872773e1041cf3d1da339e3431097fa2e456b25d6df773eda05fccf4fb41833eae12f5e916b93255de03d674f7d20328cc86b6c5ae000000000000000000000000000000000000000000000000000000000000001f636f6465783a3a35653261363236306465356435333438393330643738366200",
                    "decodedMethod": {
                        "callParams": [
                            {
                                "name": "_to",
                                "type": "address",
                                "value": "0xc9dd2fef87ce09f88aa3ef13ba98208f95beeae0"
                            },
                            {
                                "name": "_nameHash",
                                "type": "bytes32",
                                "value": "0xf1f9ab3b0aebd33995d1983a625e0a47693decb8b3360dc46d9b6138e582ec21"
                            },
                            {
                                "name": "_descriptionHash",
                                "type": "bytes32",
                                "value": "0xe9c98299e6131b5f0b20e47f01da81eb942fc86f346a3462112b8f6f4cca4032"
                            },
                            {
                                "name": "_fileHashes",
                                "type": "bytes32[]",
                                "value": [
                                    "0x10dcae1bf15683f1da11efc60214e763f66badc721f3c9df84c95dbec324fa4d",
                                    "0x1c3277e6b9510531b2c1516ab21327c962c294a186915f76c81a18db876cda05",
                                    "0x2a60f20c75486f0d58054a58e732f5a92a0a65a2bf3dda2c163ad066d9e5191b",
                                    "0x616967ad5da18f2046fbb6501523bed754353c68317eb52590ff7e63ae67fa2a",
                                    "0xb9cdfc222b9d67f010f79c0effc640abb34bf06a9b35998f11feca6b2453c706",
                                    "0xc933c786e37e9b0e7ef7dc872773e1041cf3d1da339e3431097fa2e456b25d6d",
                                    "0xf773eda05fccf4fb41833eae12f5e916b93255de03d674f7d20328cc86b6c5ae"
                                ]
                            },
                            {
                                "name": "_data",
                                "type": "bytes",
                                "value": "0x636f6465783a3a356532613632363064653564353334383933306437383662"
                            }
                        ],
                        "constructorArguments": "",
                        "name": "mint",
                        "returnParams": [],
                        "signature": "mint(address,bytes32,bytes32,bytes32[],bytes)"
                    },
                    "errorInfo": "",
                    "fromAddress": "0x8853b05833029e3cf8d3cbb592f9784fa43d2a79",
                    "gasUsed": 309992,
                    "id": 9,
                    "methodDecoded": true,
                    "operation": "DELEGATECALL",
                    "output": "",
                    "revert": false,
                    "revertMessage": "",
                    "selector": "0xee5301d5",
                    "status": true,
                    "value": "0"
                },
                "nodeType": 0
            }
        },
        "gasFlame": [
            {
                "children": [
                    {
                        "children": [
                            {
                                "children": [],
                                "depth": 0,
                                "name": "Initial Gas",
                                "value": 27112
                            },
                            {
                                "children": [
                                    {
                                        "children": [
                                            {
                                                "children": [
                                                    {
                                                        "children": [],
                                                        "depth": 3,
                                                        "name": "feeRecipient",
                                                        "value": 1423
                                                    }
                                                ],
                                                "depth": 2,
                                                "name": "feeRecipient",
                                                "value": 3311
                                            }
                                        ],
                                        "depth": 1,
                                        "name": "0xc5ae44de",
                                        "value": 6961
                                    },
                                    {
                                        "children": [],
                                        "depth": 1,
                                        "name": "feeRecipient",
                                        "value": 1083
                                    },
                                    {
                                        "children": [],
                                        "depth": 1,
                                        "name": "transfer",
                                        "value": 16545
                                    },
                                    {
                                        "children": [],
                                        "depth": 1,
                                        "name": "0xb3c2f627",
                                        "value": 1264
                                    },
                                    {
                                        "children": [
                                            {
                                                "children": [],
                                                "depth": 2,
                                                "name": "mint",
                                                "value": 309992
                                            }
                                        ],
                                        "depth": 1,
                                        "name": "mint",
                                        "value": 311967
                                    }
                                ],
                                "depth": 0,
                                "name": "Executed Gas",
                                "value": 349958
                            }
                        ],
                        "depth": -1,
                        "name": "Actual Gas Used",
                        "value": 377070
                    },
                    {
                        "children": [],
                        "depth": -1,
                        "name": "Refunded Gas",
                        "value": 0
                    }
                ],
                "depth": -2,
                "name": "Total Gas",
                "value": 377070
            }
        ],
        "isConfirmed": true,
        "mainTrace": [
            {
                "children": [
                    {
                        "children": [
                            {
                                "children": [
                                    {
                                        "children": [
                                            {
                                                "children": [],
                                                "depth": 3,
                                                "id": 3,
                                                "order": 3
                                            }
                                        ],
                                        "depth": 2,
                                        "id": 2,
                                        "order": 2
                                    }
                                ],
                                "depth": 1,
                                "id": 1,
                                "order": 1
                            },
                            {
                                "children": [],
                                "depth": 1,
                                "id": 4,
                                "order": 4
                            },
                            {
                                "children": [
                                    {
                                        "children": [],
                                        "depth": 2,
                                        "id": 6,
                                        "order": 6
                                    }
                                ],
                                "depth": 1,
                                "id": 5,
                                "order": 5
                            },
                            {
                                "children": [],
                                "depth": 1,
                                "id": 7,
                                "order": 7
                            },
                            {
                                "children": [
                                    {
                                        "children": [
                                            {
                                                "children": [],
                                                "depth": 3,
                                                "id": 10,
                                                "order": 10
                                            },
                                            {
                                                "children": [],
                                                "depth": 3,
                                                "id": 11,
                                                "order": 11
                                            }
                                        ],
                                        "depth": 2,
                                        "id": 9,
                                        "order": 9
                                    }
                                ],
                                "depth": 1,
                                "id": 8,
                                "order": 8
                            },
                            {
                                "children": [],
                                "depth": 1,
                                "id": 12,
                                "order": 12
                            }
                        ],
                        "depth": 0,
                        "id": 0,
                        "order": 0
                    }
                ],
                "depth": -1,
                "id": -1,
                "order": -1
            }
        ],
        "mainTraceNodeCount": 13,
        "parentIdMap": {
            "0": -1,
            "1": 0,
            "10": 9,
            "11": 9,
            "12": 0,
            "2": 1,
            "3": 2,
            "4": 0,
            "5": 0,
            "6": 5,
            "7": 0,
            "8": 0,
            "9": 8
        },
        "tidyTrace": [
            {
                "children": [
                    {
                        "children": [
                            {
                                "children": [
                                    {
                                        "children": [],
                                        "depth": 2,
                                        "id": 6,
                                        "order": 6
                                    }
                                ],
                                "depth": 1,
                                "id": 5,
                                "order": 5
                            },
                            {
                                "children": [
                                    {
                                        "children": [
                                            {
                                                "children": [],
                                                "depth": 3,
                                                "id": 10,
                                                "order": 10
                                            },
                                            {
                                                "children": [],
                                                "depth": 3,
                                                "id": 11,
                                                "order": 11
                                            }
                                        ],
                                        "depth": 2,
                                        "id": 9,
                                        "order": 9
                                    }
                                ],
                                "depth": 1,
                                "id": 8,
                                "order": 8
                            },
                            {
                                "children": [],
                                "depth": 1,
                                "id": 12,
                                "order": 12
                            }
                        ],
                        "depth": 0,
                        "id": 0,
                        "order": 0
                    }
                ],
                "depth": -1,
                "id": -1,
                "order": -1
            }
        ],
        "tidyTraceNodeCount": 8
    },
    "state_change": {
        "stateChanges": [
            {
                "address": "0x8853b05833029e3cf8d3cbb592f9784fa43d2a79",
                "erc": "ERC-721",
                "slots": [
                    {
                        "current": "0x1c3277e6b9510531b2c1516ab21327c962c294a186915f76c81a18db876cda05",
                        "key": "0x893998d7517e9803cf5f285f690b60ea6e03d4a17829ef31da809dbb8da38057",
                        "prev": "0x0000000000000000000000000000000000000000000000000000000000000000"
                    },
                    {
                        "current": "0xf1f9ab3b0aebd33995d1983a625e0a47693decb8b3360dc46d9b6138e582ec21",
                        "key": "0xe01a2bc97e58f9515ca7547607cac6f7ac41c51193cd4bf8821cdb942fab770d",
                        "prev": "0x0000000000000000000000000000000000000000000000000000000000000000"
                    },
                    {
                        "current": "0x000000000000000000000000c9dd2fef87ce09f88aa3ef13ba98208f95beeae0",
                        "key": "0xc0b44b79beb7657c896fcd7a983d7b4df66c5ec125efea71667144d3c82aeaf6",
                        "prev": "0x0000000000000000000000000000000000000000000000000000000000000000"
                    },
                    {
                        "current": "0x000000000000000000000000000000000000000000000000000000000003ca4d",
                        "key": "0x0000000000000000000000000000000000000000000000000000000000000008",
                        "prev": "0x000000000000000000000000000000000000000000000000000000000003ca4c"
                    },
                    {
                        "current": "0xb9cdfc222b9d67f010f79c0effc640abb34bf06a9b35998f11feca6b2453c706",
                        "key": "0x893998d7517e9803cf5f285f690b60ea6e03d4a17829ef31da809dbb8da3805a",
                        "prev": "0x0000000000000000000000000000000000000000000000000000000000000000"
                    },
                    {
                        "current": "0x0000000000000000000000000000000000000000000000000000000000002c3e",
                        "key": "0x7ba7a094ab5c1368a2dcba0aa4a03a5fd525ad8b36253a64bb2a89a7aaf8cf81",
                        "prev": "0x0000000000000000000000000000000000000000000000000000000000002c3d"
                    },
                    {
                        "current": "0x0000000000000000000000000000000000000000000000000000000000002c3e",
                        "key": "0xf6f66be5673e74316016e71571d7688be2c9ac08c8eabf06b60eea9ee5b62665",
                        "prev": "0x0000000000000000000000000000000000000000000000000000000000002c3d"
                    },
                    {
                        "current": "0xf773eda05fccf4fb41833eae12f5e916b93255de03d674f7d20328cc86b6c5ae",
                        "key": "0x893998d7517e9803cf5f285f690b60ea6e03d4a17829ef31da809dbb8da3805c",
                        "prev": "0x0000000000000000000000000000000000000000000000000000000000000000"
                    },
                    {
                        "current": "0x0000000000000000000000000000000000000000000000000000000000000007",
                        "key": "0xe01a2bc97e58f9515ca7547607cac6f7ac41c51193cd4bf8821cdb942fab770f",
                        "prev": "0x0000000000000000000000000000000000000000000000000000000000000000"
                    },
                    {
                        "current": "0xe9c98299e6131b5f0b20e47f01da81eb942fc86f346a3462112b8f6f4cca4032",
                        "key": "0xe01a2bc97e58f9515ca7547607cac6f7ac41c51193cd4bf8821cdb942fab770e",
                        "prev": "0x0000000000000000000000000000000000000000000000000000000000000000"
                    },
                    {
                        "current": "0x10dcae1bf15683f1da11efc60214e763f66badc721f3c9df84c95dbec324fa4d",
                        "key": "0x893998d7517e9803cf5f285f690b60ea6e03d4a17829ef31da809dbb8da38056",
                        "prev": "0x0000000000000000000000000000000000000000000000000000000000000000"
                    },
                    {
                        "current": "0x0000000000000000000000000000000000000000000000000000000000002c3d",
                        "key": "0x209bde32aa1c86b754cc3bd4130ba10055d0b789eacfda5371dc436b86702e33",
                        "prev": "0x0000000000000000000000000000000000000000000000000000000000000000"
                    },
                    {
                        "current": "0x000000000000000000000000000000000000000000000000000000000003ca4c",
                        "key": "0xc5e2423fd929271fc8f1850ae482bfb36d58ba2ae9e96c952e28f4dbd26d4811",
                        "prev": "0x0000000000000000000000000000000000000000000000000000000000000000"
                    },
                    {
                        "current": "0x000000000000000000000000000000000000000000000000000000000003ca4c",
                        "key": "0xf3f7a9fe364faab93b216da50a3214154f22a0a2b415b23a84c8169e8b67392f",
                        "prev": "0x0000000000000000000000000000000000000000000000000000000000000000"
                    },
                    {
                        "current": "0x2a60f20c75486f0d58054a58e732f5a92a0a65a2bf3dda2c163ad066d9e5191b",
                        "key": "0x893998d7517e9803cf5f285f690b60ea6e03d4a17829ef31da809dbb8da38058",
                        "prev": "0x0000000000000000000000000000000000000000000000000000000000000000"
                    },
                    {
                        "current": "0xc933c786e37e9b0e7ef7dc872773e1041cf3d1da339e3431097fa2e456b25d6d",
                        "key": "0x893998d7517e9803cf5f285f690b60ea6e03d4a17829ef31da809dbb8da3805b",
                        "prev": "0x0000000000000000000000000000000000000000000000000000000000000000"
                    },
                    {
                        "current": "0x616967ad5da18f2046fbb6501523bed754353c68317eb52590ff7e63ae67fa2a",
                        "key": "0x893998d7517e9803cf5f285f690b60ea6e03d4a17829ef31da809dbb8da38059",
                        "prev": "0x0000000000000000000000000000000000000000000000000000000000000000"
                    }
                ],
                "storageVariables": [
                    {
                        "name": "tokenData",
                        "type": "mapping(uint256 => struct CodexRecordMetadata.CodexRecordData)",
                        "value": {
                            "pairs": [
                                {
                                    "key": "248396",
                                    "value": {
                                        "fields": [
                                            {
                                                "name": "nameHash",
                                                "type": "bytes32",
                                                "value": {
                                                    "current": "0xf1f9ab3b0aebd33995d1983a625e0a47693decb8b3360dc46d9b6138e582ec21",
                                                    "prev": "0x0000000000000000000000000000000000000000000000000000000000000000",
                                                    "typeTag": 1
                                                }
                                            },
                                            {
                                                "name": "descriptionHash",
                                                "type": "bytes32",
                                                "value": {
                                                    "current": "0xe9c98299e6131b5f0b20e47f01da81eb942fc86f346a3462112b8f6f4cca4032",
                                                    "prev": "0x0000000000000000000000000000000000000000000000000000000000000000",
                                                    "typeTag": 1
                                                }
                                            },
                                            {
                                                "name": "fileHashes",
                                                "type": "bytes32[]",
                                                "value": {
                                                    "elemType": "bytes32",
                                                    "elems": [
                                                        {
                                                            "index": 0,
                                                            "value": {
                                                                "current": "0x10dcae1bf15683f1da11efc60214e763f66badc721f3c9df84c95dbec324fa4d",
                                                                "prev": "0x0000000000000000000000000000000000000000000000000000000000000000",
                                                                "typeTag": 1
                                                            }
                                                        },
                                                        {
                                                            "index": 1,
                                                            "value": {
                                                                "current": "0x1c3277e6b9510531b2c1516ab21327c962c294a186915f76c81a18db876cda05",
                                                                "prev": "0x0000000000000000000000000000000000000000000000000000000000000000",
                                                                "typeTag": 1
                                                            }
                                                        },
                                                        {
                                                            "index": 2,
                                                            "value": {
                                                                "current": "0x2a60f20c75486f0d58054a58e732f5a92a0a65a2bf3dda2c163ad066d9e5191b",
                                                                "prev": "0x0000000000000000000000000000000000000000000000000000000000000000",
                                                                "typeTag": 1
                                                            }
                                                        },
                                                        {
                                                            "index": 3,
                                                            "value": {
                                                                "current": "0x616967ad5da18f2046fbb6501523bed754353c68317eb52590ff7e63ae67fa2a",
                                                                "prev": "0x0000000000000000000000000000000000000000000000000000000000000000",
                                                                "typeTag": 1
                                                            }
                                                        },
                                                        {
                                                            "index": 4,
                                                            "value": {
                                                                "current": "0xb9cdfc222b9d67f010f79c0effc640abb34bf06a9b35998f11feca6b2453c706",
                                                                "prev": "0x0000000000000000000000000000000000000000000000000000000000000000",
                                                                "typeTag": 1
                                                            }
                                                        },
                                                        {
                                                            "index": 5,
                                                            "value": {
                                                                "current": "0xc933c786e37e9b0e7ef7dc872773e1041cf3d1da339e3431097fa2e456b25d6d",
                                                                "prev": "0x0000000000000000000000000000000000000000000000000000000000000000",
                                                                "typeTag": 1
                                                            }
                                                        },
                                                        {
                                                            "index": 6,
                                                            "value": {
                                                                "current": "0xf773eda05fccf4fb41833eae12f5e916b93255de03d674f7d20328cc86b6c5ae",
                                                                "prev": "0x0000000000000000000000000000000000000000000000000000000000000000",
                                                                "typeTag": 1
                                                            }
                                                        }
                                                    ],
                                                    "typeTag": 2
                                                }
                                            }
                                        ],
                                        "typeTag": 3
                                    }
                                }
                            ],
                            "typeTag": 4
                        }
                    },
                    {
                        "name": "tokenOwner",
                        "type": "mapping(uint256 => address)",
                        "value": {
                            "pairs": [
                                {
                                    "key": "248396",
                                    "value": {
                                        "current": "0xc9dd2fef87ce09f88aa3ef13ba98208f95beeae0",
                                        "prev": "0x0000000000000000000000000000000000000000",
                                        "typeTag": 1
                                    }
                                }
                            ],
                            "typeTag": 4
                        }
                    },
                    {
                        "name": "ownedTokens",
                        "type": "mapping(address => uint256[])",
                        "value": {
                            "pairs": [
                                {
                                    "key": "0xc9dd2fef87ce09f88aa3ef13ba98208f95beeae0",
                                    "value": {
                                        "elemType": "uint256",
                                        "elems": [
                                            {
                                                "index": 11325,
                                                "value": {
                                                    "current": "248396",
                                                    "prev": "0",
                                                    "typeTag": 1
                                                }
                                            }
                                        ],
                                        "typeTag": 2
                                    }
                                }
                            ],
                            "typeTag": 4
                        }
                    },
                    {
                        "name": "allTokens",
                        "type": "uint256[]",
                        "value": {
                            "elemType": "uint256",
                            "elems": [
                                {
                                    "index": 248396,
                                    "value": {
                                        "current": "248396",
                                        "prev": "0",
                                        "typeTag": 1
                                    }
                                }
                            ],
                            "typeTag": 2
                        }
                    },
                    {
                        "name": "ownedTokensCount",
                        "type": "mapping(address => uint256)",
                        "value": {
                            "pairs": [
                                {
                                    "key": "0xc9dd2fef87ce09f88aa3ef13ba98208f95beeae0",
                                    "value": {
                                        "current": "11326",
                                        "prev": "11325",
                                        "typeTag": 1
                                    }
                                }
                            ],
                            "typeTag": 4
                        }
                    },
                    {
                        "name": "ownedTokensIndex",
                        "type": "mapping(uint256 => uint256)",
                        "value": {
                            "pairs": [
                                {
                                    "key": "248396",
                                    "value": {
                                        "current": "11325",
                                        "prev": "0",
                                        "typeTag": 1
                                    }
                                }
                            ],
                            "typeTag": 4
                        }
                    }
                ]
            },
            {
                "address": "0xf226e38c3007b3d974fc79bcf5a77750035436ee",
                "erc": "ERC-20",
                "slots": [
                    {
                        "current": "0x00000000000000000000000000000000000000000004bba13b2ad04516800000",
                        "key": "0xdee88efcd342fe5b98250b31dc441bfa9bf019ea9b55d0e763c4847a9ccc264f",
                        "prev": "0x00000000000000000000000000000000000000000004bba250b9164e2a500000"
                    },
                    {
                        "current": "0x00000000000000000000000000000000000000000004113605186373e3500000",
                        "key": "0x4f637aa1ab61f546c750f24a046aa7ff3d4eaa1d8e66e8e119d2fa014d667b83",
                        "prev": "0x000000000000000000000000000000000000000000041134ef8a1d6acf800000"
                    }
                ],
                "storageVariables": [
                    {
                        "name": "balances",
                        "type": "mapping(address => uint256)",
                        "value": {
                            "pairs": [
                                {
                                    "key": "0xbe25ee3619472545418acb609b0ce6ca6f69bdfb",
                                    "value": {
                                        "current": "4916980000000000000000000",
                                        "prev": "4916960000000000000000000",
                                        "typeTag": 1
                                    }
                                },
                                {
                                    "key": "0xd8b93107d820d294cd8082a15c65261ee9d30790",
                                    "value": {
                                        "current": "5721760000000000000000000",
                                        "prev": "5721780000000000000000000",
                                        "typeTag": 1
                                    }
                                }
                            ],
                            "typeTag": 4
                        }
                    }
                ]
            }
        ]
    }
}