{
    "balance_change": {
        "balanceChanges": [
            {
                "account": "0x797a05dd6a8bfc1e1eaaa62e744d3aff197c46b1",
                "assets": [
                    {
                        "address": "0x2ad9addd0d97ec3cdba27f92bf6077893b76ab0b",
                        "amount": "67,999,591",
                        "iconUrl": "",
                        "isERC1155": false,
                        "isERC721": false,
                        "sign": false,
                        "value": "4060.247475"
                    }
                ]
            },
            {
                "account": "0x59141af2478701c6e3aaf5848a7abe2751f029c3",
                "assets": [
                    {
                        "address": "0x2ad9addd0d97ec3cdba27f92bf6077893b76ab0b",
                        "amount": "67,999,591",
                        "iconUrl": "",
                        "isERC1155": false,
                        "isERC721": false,
                        "sign": true,
                        "value": "4060.247475"
                    }
                ]
            }
        ]
    },
    "profile": {
        "basic_info": {
            "baseFee": "60.323563052",
            "blockNumber": 17771803,
            "callData": "0xef61a6db0000000000000000000000002ad9addd0d97ec3cdba27f92bf6077893b76ab0b000000000000000000000000000000000000000000383f7936ea8a18553c0000",
            "debugEnable": true,
            "errorInfo": "",
            "eventCount": 1,
            "feeRecipient": "0x95222290dd7278aa3ddd389cc1e1d165cc4bafe5",
            "formatValue": "0",
            "gasLimit": 400014,
            "gasPrice": "64.413563052",
            "gasUsed": 87788,
            "intTxnCount": 2,
            "internalRevert": false,
            "internalRevertMessage": "",
            "isContractCreation": false,
            "isFlashloan": false,
            "maxFee": "124.647126104",
            "nonce": 16217,
            "overwritedBlockNumber": -1,
            "priorityFee": "4.09",
            "receiver": "0x797a05dd6a8bfc1e1eaaa62e744d3aff197c46b1",
            "revertMessage": "",
            "sender": "0xa9edbf8aeeed12129816f5f513237b570413856f",
            "simulationEnable": true,
            "sourceTxnHash": "0xa09c7cb37712e7298039544b59a1f92bcaed37a431c207e79a402b0147f2fa49",
            "status": true,
            "timestamp": "2023-07-25T18:09:47Z",
            "transactionFee": "0.005654737873208976",
            "txnHash": "0xa09c7cb37712e7298039544b59a1f92bcaed37a431c207e79a402b0147f2fa49",
            "txnIndex": 41,
            "type": 2,
            "value": "0"
        },
        "fund_flow": [
            {
                "amount": "67,999,591",
                "from": "0x797a05dd6a8bfc1e1eaaa62e744d3aff197c46b1",
                "id": 1,
                "isERC1155": false,
                "isERC721": false,
                "isReverted": false,
                "order": 1,
                "to": "0x59141af2478701c6e3aaf5848a7abe2751f029c3",
                "token": "0x2ad9addd0d97ec3cdba27f92bf6077893b76ab0b"
            }
        ],
        "token_infos": [
            {
                "address": "0x2ad9addd0d97ec3cdba27f92bf6077893b76ab0b",
                "decimals": 18
            },
            {
                "address": "0xc02aaa39b223fe8d0a0e5c4f27ead9083c756cc2",
                "decimals": 18
            },
            {
                "address": "0xeeeeeeeeeeeeeeeeeeeeeeeeeeeeeeeeeeeeeeee",
                "decimals": 18
            }
        ]
    },
    "address_label": {
        "labels": [
            {
                "address": "0xeeeeeeeeeeeeeeeeeeeeeeeeeeeeeeeeeeeeeeee",
                "label": "Ether"
            },
            {
                "address": "0x2ad9addd0d97ec3cdba27f92bf6077893b76ab0b",
                "label": "PLANET: PLANET Token"
            },
            {
                "address": "0x59141af2478701c6e3aaf5848a7abe2751f029c3",
                "label": "MEXC"
            },
            {
                "address": "0x797a05dd6a8bfc1e1eaaa62e744d3aff197c46b1",
                "label": "MEV Bot: 0x797\u20266b1"
            },
            {
                "address": "0x0000000000000000000000000000000000000001",
                "label": "Precompiled"
            },
            {
                "address": "0x0000000000000000000000000000000000000002",
                "label": "Precompiled"
            },
            {
                "address": "0x0000000000000000000000000000000000000003",
                "label": "Precompiled"
            },
            {
                "address": "0x0000000000000000000000000000000000000004",
                "label": "Precompiled"
            }
        ]
    },
    "trace": {
        "accountLabels": null,
        "dataMap": {
            "-1": {
                "invocation": {
                    "address": "0xa9edbf8aeeed12129816f5f513237b570413856f",
                    "callData": "",
                    "decodedMethod": null,
                    "errorInfo": "",
                    "fromAddress": "",
                    "gasUsed": 0,
                    "id": -1,
                    "methodDecoded": false,
                    "operation": "",
                    "output": "",
                    "revert": false,
                    "revertMessage": "",
                    "selector": "",
                    "status": false,
                    "value": ""
                },
                "nodeType": 0
            },
            "0": {
                "invocation": {
                    "address": "0x797a05dd6a8bfc1e1eaaa62e744d3aff197c46b1",
                    "callData": "0x0000000000000000000000002ad9addd0d97ec3cdba27f92bf6077893b76ab0b000000000000000000000000000000000000000000383f7936ea8a18553c0000",
                    "decodedMethod": null,
                    "errorInfo": "",
                    "fromAddress": "0xa9edbf8aeeed12129816f5f513237b570413856f",
                    "gasUsed": 87788,
                    "id": 0,
                    "methodDecoded": false,
                    "operation": "CALL",
                    "output": "",
                    "revert": false,
                    "revertMessage": "",
                    "selector": "0xef61a6db",
                    "status": true,
                    "value": "0"
                },
                "nodeType": 0
            },
            "1": {
                "invocation": {
                    "address": "0x2ad9addd0d97ec3cdba27f92bf6077893b76ab0b",
                    "callData": "0x000000000000000000000000797a05dd6a8bfc1e1eaaa62e744d3aff197c46b1",
                    "decodedMethod": {
                        "callParams": [
                            {
                                "name": "account",
                                "type": "address",
                                "value": "0x797a05dd6a8bfc1e1eaaa62e744d3aff197c46b1"
                            }
                        ],
                        "constructorArguments": "",
                        "name": "balanceOf",
                        "returnParams": [
                            {
                                "decimalAvailable": true,
                                "name": "",
                                "type": "uint256",
                                "value": "97,154,568,027,806,846,901,299,460"
                            }
                        ],
                        "signature": "balanceOf(address)"
                    },
                    "errorInfo": "",
                    "fromAddress": "0x797a05dd6a8bfc1e1eaaa62e744d3aff197c46b1",
                    "gasUsed": 2579,
                    "id": 1,
                    "methodDecoded": true,
                    "operation": "STATICCALL",
                    "output": "0x000000000000000000000000000000000000000000505d47afa657db63002904",
                    "revert": false,
                    "revertMessage": "",
                    "selector": "0x70a08231",
                    "status": true,
                    "value": "0"
                },
                "nodeType": 0
            },
            "2": {
                "invocation": {
                    "address": "0x2ad9addd0d97ec3cdba27f92bf6077893b76ab0b",
                    "callData": "0x00000000000000000000000059141af2478701c6e3aaf5848a7abe2751f029c3000000000000000000000000000000000000000000383f7936ea8a18553c0000",
                    "decodedMethod": {
                        "callParams": [
                            {
                                "name": "recipient",
                                "type": "address",
                                "value": "0x59141af2478701c6e3aaf5848a7abe2751f029c3"
                            },
                            {
                                "decimalAvailable": true,
                                "name": "amount",
                                "type": "uint256",
                                "value": "67,999,591,000,000,000,000,000,000"
                            }
                        ],
                        "constructorArguments": "",
                        "name": "transfer",
                        "returnParams": [
                            {
                                "name": "",
                                "type": "bool",
                                "value": true
                            }
                        ],
                        "signature": "transfer(address,uint256)"
                    },
                    "errorInfo": "",
                    "fromAddress": "0x797a05dd6a8bfc1e1eaaa62e744d3aff197c46b1",
                    "gasUsed": 56810,
                    "id": 2,
                    "methodDecoded": true,
                    "operation": "CALL",
                    "output": "0x0000000000000000000000000000000000000000000000000000000000000001",
                    "revert": false,
                    "revertMessage": "",
                    "selector": "0xa9059cbb",
                    "status": true,
                    "value": "0"
                },
                "nodeType": 0
            },
            "3": {
                "event": {
                    "contract": "0x2ad9addd0d97ec3cdba27f92bf6077893b76ab0b",
                    "decodedLog": {
                        "name": "Transfer",
                        "params": [
                            {
                                "name": "from",
                                "type": "address",
                                "value": "0x797a05dd6a8bfc1e1eaaa62e744d3aff197c46b1"
                            },
                            {
                                "name": "to",
                                "type": "address",
                                "value": "0x59141af2478701c6e3aaf5848a7abe2751f029c3"
                            },
                            {
                                "decimalAvailable": true,
                                "name": "value",
                                "type": "uint256",
                                "value": "67,999,591,000,000,000,000,000,000"
                            }
                        ],
                        "signature": "Transfer(address,address,uint256)"
                    },
                    "id": 3,
                    "logData": "0x000000000000000000000000000000000000000000383f7936ea8a18553c0000",
                    "logDecoded": true,
                    "operation": "EVENT",
                    "revert": false,
                    "status": true,
                    "topics": [
                        "0xddf252ad1be2c89b69c2b068fc378daa952ba7f163c4a11628f55a4df523b3ef",
                        "0x000000000000000000000000797a05dd6a8bfc1e1eaaa62e744d3aff197c46b1",
                        "0x00000000000000000000000059141af2478701c6e3aaf5848a7abe2751f029c3"
                    ]
                },
                "nodeType": 1
            }
        },
        "gasFlame": [
            {
                "children": [
                    {
                        "children": [
                            {
                                "children": [],
                                "depth": 0,
                                "name": "Initial Gas",
                                "value": 21668
                            },
                            {
                                "children": [
                                    {
                                        "children": [],
                                        "depth": 1,
                                        "name": "balanceOf",
                                        "value": 2579
                                    },
                                    {
                                        "children": [],
                                        "depth": 1,
                                        "name": "transfer",
                                        "value": 56810
                                    }
                                ],
                                "depth": 0,
                                "name": "Executed Gas",
                                "value": 68920
                            }
                        ],
                        "depth": -1,
                        "name": "Actual Gas Used",
                        "value": 87788
                    },
                    {
                        "children": [],
                        "depth": -1,
                        "name": "Refunded Gas",
                        "value": 2800
                    }
                ],
                "depth": -2,
                "name": "Total Gas",
                "value": 90588
            }
        ],
        "isConfirmed": true,
        "mainTrace": [
            {
                "children": [
                    {
                        "children": [
                            {
                                "children": [],
                                "depth": 1,
                                "id": 1,
                                "order": 1
                            },
                            {
                                "children": [
                                    {
                                        "children": [],
                                        "depth": 2,
                                        "id": 3,
                                        "order": 3
                                    }
                                ],
                                "depth": 1,
                                "id": 2,
                                "order": 2
                            }
                        ],
                        "depth": 0,
                        "id": 0,
                        "order": 0
                    }
                ],
                "depth": -1,
                "id": -1,
                "order": -1
            }
        ],
        "mainTraceNodeCount": 4,
        "parentIdMap": {
            "0": -1,
            "1": 0,
            "2": 0,
            "3": 2
        },
        "tidyTrace": [
            {
                "children": [
                    {
                        "children": [
                            {
                                "children": [
                                    {
                                        "children": [],
                                        "depth": 2,
                                        "id": 3,
                                        "order": 3
                                    }
                                ],
                                "depth": 1,
                                "id": 2,
                                "order": 2
                            }
                        ],
                        "depth": 0,
                        "id": 0,
                        "order": 0
                    }
                ],
                "depth": -1,
                "id": -1,
                "order": -1
            }
        ],
        "tidyTraceNodeCount": 3
    },
    "state_change": {
        "stateChanges": [
            {
                "address": "0x2ad9addd0d97ec3cdba27f92bf6077893b76ab0b",
                "erc": "ERC-20",
                "slots": [
                    {
                        "current": "0x000000000000000000000000000000000000000000181dce78bbcdc30dc42904",
                        "key": "0xa5d9fe66d391d721708cb2d740610a6ca00943bae02e6584cf804352ed382b54",
                        "prev": "0x000000000000000000000000000000000000000000505d47afa657db63002904"
                    },
                    {
                        "current": "0x000000000000000000000000000000000000000000383f7936ea8a18553c0000",
                        "key": "0xe8acd95df2625be0be886d996472fd6ec2548ab4412b0ef3b760f3afe84fd362",
                        "prev": "0x0000000000000000000000000000000000000000000000000000000000000000"
                    }
                ],
                "storageVariables": [
                    {
                        "name": "_balances",
                        "type": "mapping(address => uint256)",
                        "value": {
                            "pairs": [
                                {
                                    "key": "0x59141af2478701c6e3aaf5848a7abe2751f029c3",
                                    "value": {
                                        "current": "67999591000000000000000000",
                                        "prev": "0",
                                        "typeTag": 1
                                    }
                                },
                                {
                                    "key": "0x797a05dd6a8bfc1e1eaaa62e744d3aff197c46b1",
                                    "value": {
                                        "current": "29154977027806846901299460",
                                        "prev": "97154568027806846901299460",
                                        "typeTag": 1
                                    }
                                }
                            ],
                            "typeTag": 4
                        }
                    }
                ]
            }
        ]
    }
}