{
    "balance_change": {
        "balanceChanges": [
            {
                "account": "0xd5c982a35361cd70485737d7bc7db5bee79294dc",
                "assets": [
                    {
                        "address": "0x4d224452801aced8b2f0aebe155379bb5d594381",
                        "amount": "40.519919912288835584",
                        "iconUrl": "https://assets.blocksec.com/icon/2edd169b33ddc44d0c2362c907ae50b3b0aed7e6e08bf6f72599647136aeddd0.png",
                        "isERC1155": false,
                        "isERC721": false,
                        "sign": false,
                        "value": "90.35942139929999928"
                    }
                ]
            },
            {
                "account": "0x787b8840100d9baadd7463f4a73b5ba73b00c6ca",
                "assets": [
                    {
                        "address": "0x4d224452801aced8b2f0aebe155379bb5d594381",
                        "amount": "40.519919912288835584",
                        "iconUrl": "https://assets.blocksec.com/icon/2edd169b33ddc44d0c2362c907ae50b3b0aed7e6e08bf6f72599647136aeddd0.png",
                        "isERC1155": false,
                        "isERC721": false,
                        "sign": true,
                        "value": "90.35942139929999928"
                    }
                ]
            }
        ]
    },
    "profile": {
        "basic_info": {
            "baseFee": "14.983954308",
            "blockNumber": 17475303,
            "callData": "0xa9059cbb000000000000000000000000787b8840100d9baadd7463f4a73b5ba73b00c6ca0000000000000000000000000000000000000000000000023253ac79fb40d800",
            "debugEnable": true,
            "errorInfo": "",
            "eventCount": 1,
            "feeRecipient": "0xdafea492d9c6733ae3d56b7ed1adb60692c98bc5",
            "formatValue": "0",
            "gasLimit": 120000,
            "gasPrice": "16.153460734",
            "gasUsed": 29697,
            "intTxnCount": 0,
            "internalRevert": false,
            "internalRevertMessage": "",
            "isContractCreation": false,
            "isFlashloan": false,
            "maxFee": "",
            "nonce": 0,
            "overwritedBlockNumber": -1,
            "priorityFee": "",
            "receiver": "0x4d224452801aced8b2f0aebe155379bb5d594381",
            "revertMessage": "",
            "sender": "0xd5c982a35361cd70485737d7bc7db5bee79294dc",
            "simulationEnable": true,
            "sourceTxnHash": "0xa0c298eabd63f85aeb0e40aa8ff1d77417a6409ea502856c44152228bc2152df",
            "status": true,
            "timestamp": "2023-06-14T02:44:11Z",
            "transactionFee": "0.000479709323417598",
            "txnHash": "0xa0c298eabd63f85aeb0e40aa8ff1d77417a6409ea502856c44152228bc2152df",
            "txnIndex": 67,
            "type": 0,
            "value": "0"
        },
        "fund_flow": [
            {
                "amount": "40.519919912288835584",
                "from": "0xd5c982a35361cd70485737d7bc7db5bee79294dc",
                "id": 1,
                "isERC1155": false,
                "isERC721": false,
                "isReverted": false,
                "order": 1,
                "to": "0x787b8840100d9baadd7463f4a73b5ba73b00c6ca",
                "token": "0x4d224452801aced8b2f0aebe155379bb5d594381"
            }
        ],
        "token_infos": [
            {
                "address": "0x4d224452801aced8b2f0aebe155379bb5d594381",
                "decimals": 18
            },
            {
                "address": "0xc02aaa39b223fe8d0a0e5c4f27ead9083c756cc2",
                "decimals": 18
            },
            {
                "address": "0xeeeeeeeeeeeeeeeeeeeeeeeeeeeeeeeeeeeeeeee",
                "decimals": 18
            }
        ]
    },
    "address_label": {
        "labels": [
            {
                "address": "0x787b8840100d9baadd7463f4a73b5ba73b00c6ca",
                "label": "Stake.com 11"
            },
            {
                "address": "0x0000000000000000000000000000000000000001",
                "label": "Precompiled"
            },
            {
                "address": "0x0000000000000000000000000000000000000002",
                "label": "Precompiled"
            },
            {
                "address": "0x0000000000000000000000000000000000000003",
                "label": "Precompiled"
            },
            {
                "address": "0x0000000000000000000000000000000000000004",
                "label": "Precompiled"
            },
            {
                "address": "0xeeeeeeeeeeeeeeeeeeeeeeeeeeeeeeeeeeeeeeee",
                "label": "Ether"
            },
            {
                "address": "0x4d224452801aced8b2f0aebe155379bb5d594381",
                "label": "Apecoin: APE Token"
            }
        ]
    },
    "trace": {
        "accountLabels": null,
        "dataMap": {
            "-1": {
                "invocation": {
                    "address": "0xd5c982a35361cd70485737d7bc7db5bee79294dc",
                    "callData": "",
                    "decodedMethod": null,
                    "errorInfo": "",
                    "fromAddress": "",
                    "gasUsed": 0,
                    "id": -1,
                    "methodDecoded": false,
                    "operation": "",
                    "output": "",
                    "revert": false,
                    "revertMessage": "",
                    "selector": "",
                    "status": false,
                    "value": ""
                },
                "nodeType": 0
            },
            "0": {
                "invocation": {
                    "address": "0x4d224452801aced8b2f0aebe155379bb5d594381",
                    "callData": "0x000000000000000000000000787b8840100d9baadd7463f4a73b5ba73b00c6ca0000000000000000000000000000000000000000000000023253ac79fb40d800",
                    "decodedMethod": {
                        "callParams": [
                            {
                                "name": "recipient",
                                "type": "address",
                                "value": "0x787b8840100d9baadd7463f4a73b5ba73b00c6ca"
                            },
                            {
                                "decimalAvailable": true,
                                "name": "amount",
                                "type": "uint256",
                                "value": "40,519,919,912,288,835,584"
                            }
                        ],
                        "constructorArguments": "",
                        "name": "transfer",
                        "returnParams": [
                            {
                                "name": "",
                                "type": "bool",
                                "value": true
                            }
                        ],
                        "signature": "transfer(address,uint256)"
                    },
                    "errorInfo": "",
                    "fromAddress": "0xd5c982a35361cd70485737d7bc7db5bee79294dc",
                    "gasUsed": 29697,
                    "id": 0,
                    "methodDecoded": true,
                    "operation": "CALL",
                    "output": "0x0000000000000000000000000000000000000000000000000000000000000001",
                    "revert": false,
                    "revertMessage": "",
                    "selector": "0xa9059cbb",
                    "status": true,
                    "value": "0"
                },
                "nodeType": 0
            },
            "1": {
                "event": {
                    "contract": "0x4d224452801aced8b2f0aebe155379bb5d594381",
                    "decodedLog": {
                        "name": "Transfer",
                        "params": [
                            {
                                "name": "from",
                                "type": "address",
                                "value": "0xd5c982a35361cd70485737d7bc7db5bee79294dc"
                            },
                            {
                                "name": "to",
                                "type": "address",
                                "value": "0x787b8840100d9baadd7463f4a73b5ba73b00c6ca"
                            },
                            {
                                "decimalAvailable": true,
                                "name": "value",
                                "type": "uint256",
                                "value": "40,519,919,912,288,835,584"
                            }
                        ],
                        "signature": "Transfer(address,address,uint256)"
                    },
                    "id": 1,
                    "logData": "0x0000000000000000000000000000000000000000000000023253ac79fb40d800",
                    "logDecoded": true,
                    "operation": "EVENT",
                    "revert": false,
                    "status": true,
                    "topics": [
                        "0xddf252ad1be2c89b69c2b068fc378daa952ba7f163c4a11628f55a4df523b3ef",
                        "0x000000000000000000000000d5c982a35361cd70485737d7bc7db5bee79294dc",
                        "0x000000000000000000000000787b8840100d9baadd7463f4a73b5ba73b00c6ca"
                    ]
                },
                "nodeType": 1
            }
        },
        "gasFlame": [
            {
                "children": [
                    {
                        "children": [
                            {
                                "children": [],
                                "depth": 0,
                                "name": "Initial Gas",
                                "value": 21644
                            },
                            {
                                "children": [],
                                "depth": 0,
                                "name": "Executed Gas",
                                "value": 12853
                            }
                        ],
                        "depth": -1,
                        "name": "Actual Gas Used",
                        "value": 29697
                    },
                    {
                        "children": [],
                        "depth": -1,
                        "name": "Refunded Gas",
                        "value": 4800
                    }
                ],
                "depth": -2,
                "name": "Total Gas",
                "value": 34497
            }
        ],
        "isConfirmed": true,
        "mainTrace": [
            {
                "children": [
                    {
                        "children": [
                            {
                                "children": [],
                                "depth": 1,
                                "id": 1,
                                "order": 1
                            }
                        ],
                        "depth": 0,
                        "id": 0,
                        "order": 0
                    }
                ],
                "depth": -1,
                "id": -1,
                "order": -1
            }
        ],
        "mainTraceNodeCount": 2,
        "parentIdMap": {
            "0": -1,
            "1": 0
        },
        "tidyTrace": [
            {
                "children": [
                    {
                        "children": [
                            {
                                "children": [],
                                "depth": 1,
                                "id": 1,
                                "order": 1
                            }
                        ],
                        "depth": 0,
                        "id": 0,
                        "order": 0
                    }
                ],
                "depth": -1,
                "id": -1,
                "order": -1
            }
        ],
        "tidyTraceNodeCount": 2
    },
    "state_change": {
        "stateChanges": [
            {
                "address": "0x4d224452801aced8b2f0aebe155379bb5d594381",
                "erc": "ERC-20",
                "slots": [
                    {
                        "current": "0x0000000000000000000000000000000000000000000000000000000000000000",
                        "key": "0xe6a041b2092060fd33c0c9df7f92fdbde9d5147a48b1c41c7f1145b2a6ac43b0",
                        "prev": "0x0000000000000000000000000000000000000000000000023253ac79fb40d800"
                    },
                    {
                        "current": "0x0000000000000000000000000000000000000000000000c341fb9e9915da40af",
                        "key": "0xd055b980a8f16842a84970a92385d10b775dadd06130f91fcaafbbafb64d5f8c",
                        "prev": "0x0000000000000000000000000000000000000000000000c10fa7f21f1a9968af"
                    }
                ],
                "storageVariables": [
                    {
                        "name": "_balances",
                        "type": "mapping(address => uint256)",
                        "value": {
                            "pairs": [
                                {
                                    "key": "0x787b8840100d9baadd7463f4a73b5ba73b00c6ca",
                                    "value": {
                                        "current": "3601869662585316065455",
                                        "prev": "3561349742673027229871",
                                        "typeTag": 1
                                    }
                                },
                                {
                                    "key": "0xd5c982a35361cd70485737d7bc7db5bee79294dc",
                                    "value": {
                                        "current": "0",
                                        "prev": "40519919912288835584",
                                        "typeTag": 1
                                    }
                                }
                            ],
                            "typeTag": 4
                        }
                    }
                ]
            }
        ]
    }
}