{
    "balance_change": {
        "balanceChanges": [
            {
                "account": "0xe94a0b9149e33d990f21d6976728311b5a1946fb",
                "assets": [
                    {
                        "address": "0x2e0721e6c951710725997928dcaaa05daafa031b",
                        "amount": "2.154401548312571034",
                        "iconUrl": "",
                        "isERC1155": false,
                        "isERC721": false,
                        "sign": false,
                        "value": ""
                    }
                ]
            },
            {
                "account": "0xdef7bdf8ecb450c1d93c5db7c8dbce5894ccdaa9",
                "assets": [
                    {
                        "address": "0x2e0721e6c951710725997928dcaaa05daafa031b",
                        "amount": "2.154401548312571034",
                        "iconUrl": "",
                        "isERC1155": false,
                        "isERC721": false,
                        "sign": true,
                        "value": ""
                    }
                ]
            }
        ]
    },
    "profile": {
        "basic_info": {
            "baseFee": "",
            "blockNumber": 11004134,
            "callData": "0xe2bbb15800000000000000000000000000000000000000000000000000000000000000000000000000000000000000000000000000000000000000001de5f8cb2eb8ec9a",
            "debugEnable": true,
            "errorInfo": "",
            "eventCount": 2,
            "feeRecipient": "0x8565fc13217af7482adb7180c5ef6c2c458842ce",
            "formatValue": "0",
            "gasLimit": 171774,
            "gasPrice": "250",
            "gasUsed": 98146,
            "intTxnCount": 4,
            "internalRevert": false,
            "internalRevertMessage": "",
            "isContractCreation": false,
            "isFlashloan": false,
            "maxFee": "",
            "nonce": 234,
            "overwritedBlockNumber": -1,
            "priorityFee": "",
            "receiver": "0xdef7bdf8ecb450c1d93c5db7c8dbce5894ccdaa9",
            "revertMessage": "",
            "sender": "0xe94a0b9149e33d990f21d6976728311b5a1946fb",
            "simulationEnable": true,
            "sourceTxnHash": "0xa00465e1fbf8aee44c54e8a1c0b86f45d911af26c2c3bd50d48aebad7c538964",
            "status": true,
            "timestamp": "2020-10-06T19:47:41Z",
            "transactionFee": "0.0245365",
            "txnHash": "0xa00465e1fbf8aee44c54e8a1c0b86f45d911af26c2c3bd50d48aebad7c538964",
            "txnIndex": 35,
            "type": 0,
            "value": "0"
        },
        "fund_flow": [
            {
                "amount": "2.154401548312571034",
                "from": "0xe94a0b9149e33d990f21d6976728311b5a1946fb",
                "id": 1,
                "isERC1155": false,
                "isERC721": false,
                "isReverted": false,
                "order": 1,
                "to": "0xdef7bdf8ecb450c1d93c5db7c8dbce5894ccdaa9",
                "token": "0x2e0721e6c951710725997928dcaaa05daafa031b"
            }
        ],
        "token_infos": [
            {
                "address": "0x2e0721e6c951710725997928dcaaa05daafa031b",
                "decimals": 18
            },
            {
                "address": "0xc02aaa39b223fe8d0a0e5c4f27ead9083c756cc2",
                "decimals": 18
            },
            {
                "address": "0xeeeeeeeeeeeeeeeeeeeeeeeeeeeeeeeeeeeeeeee",
                "decimals": 18
            }
        ]
    },
    "address_label": {
        "labels": [
            {
                "address": "0x0000000000000000000000000000000000000001",
                "label": "Precompiled"
            },
            {
                "address": "0x0000000000000000000000000000000000000002",
                "label": "Precompiled"
            },
            {
                "address": "0x0000000000000000000000000000000000000003",
                "label": "Precompiled"
            },
            {
                "address": "0x0000000000000000000000000000000000000004",
                "label": "Precompiled"
            },
            {
                "address": "0xeeeeeeeeeeeeeeeeeeeeeeeeeeeeeeeeeeeeeeee",
                "label": "Ether"
            },
            {
                "address": "0x2e0721e6c951710725997928dcaaa05daafa031b",
                "label": "Uniswap V2: ENCORE"
            },
            {
                "address": "0xdef7bdf8ecb450c1d93c5db7c8dbce5894ccdaa9",
                "label": "AdminUpgradeabilityProxy"
            },
            {
                "address": "0x56fded949e920666d653c7467a1982095c84914b",
                "label": "EncoreVault"
            }
        ]
    },
    "trace": {
        "accountLabels": null,
        "dataMap": {
            "-1": {
                "invocation": {
                    "address": "0xe94a0b9149e33d990f21d6976728311b5a1946fb",
                    "callData": "",
                    "decodedMethod": null,
                    "errorInfo": "",
                    "fromAddress": "",
                    "gasUsed": 0,
                    "id": -1,
                    "methodDecoded": false,
                    "operation": "",
                    "output": "",
                    "revert": false,
                    "revertMessage": "",
                    "selector": "",
                    "status": false,
                    "value": ""
                },
                "nodeType": 0
            },
            "0": {
                "invocation": {
                    "address": "0xdef7bdf8ecb450c1d93c5db7c8dbce5894ccdaa9",
                    "callData": "0x00000000000000000000000000000000000000000000000000000000000000000000000000000000000000000000000000000000000000001de5f8cb2eb8ec9a",
                    "decodedMethod": {
                        "callParams": [
                            {
                                "name": "_pid",
                                "type": "uint256",
                                "value": "0"
                            },
                            {
                                "name": "_amount",
                                "type": "uint256",
                                "value": "2,154,401,548,312,571,034"
                            }
                        ],
                        "constructorArguments": "",
                        "name": "deposit",
                        "returnParams": [],
                        "signature": "deposit(uint256,uint256)"
                    },
                    "errorInfo": "",
                    "fromAddress": "0xe94a0b9149e33d990f21d6976728311b5a1946fb",
                    "gasUsed": 98146,
                    "id": 0,
                    "methodDecoded": true,
                    "operation": "CALL",
                    "output": "",
                    "revert": false,
                    "revertMessage": "",
                    "selector": "0xe2bbb158",
                    "status": true,
                    "value": "0"
                },
                "nodeType": 0
            },
            "1": {
                "invocation": {
                    "address": "0x56fded949e920666d653c7467a1982095c84914b",
                    "callData": "0x00000000000000000000000000000000000000000000000000000000000000000000000000000000000000000000000000000000000000001de5f8cb2eb8ec9a",
                    "decodedMethod": {
                        "callParams": [
                            {
                                "name": "_pid",
                                "type": "uint256",
                                "value": "0"
                            },
                            {
                                "name": "_amount",
                                "type": "uint256",
                                "value": "2,154,401,548,312,571,034"
                            }
                        ],
                        "constructorArguments": "",
                        "name": "deposit",
                        "returnParams": [],
                        "signature": "deposit(uint256,uint256)"
                    },
                    "errorInfo": "",
                    "fromAddress": "0xdef7bdf8ecb450c1d93c5db7c8dbce5894ccdaa9",
                    "gasUsed": 88950,
                    "id": 1,
                    "methodDecoded": true,
                    "operation": "DELEGATECALL",
                    "output": "",
                    "revert": false,
                    "revertMessage": "",
                    "selector": "0xe2bbb158",
                    "status": true,
                    "value": "0"
                },
                "nodeType": 0
            },
            "2": {
                "invocation": {
                    "address": "0x000000000000000000636f6e736f6c652e6c6f67",
                    "callData": "0x000000000000000000000000000000000000000000000000000000000000002000000000000000000000000000000000000000000000000000000000000000134d617373205570646174696e6720506f6f6c7300000000000000000000000000",
                    "decodedMethod": {
                        "callParams": [
                            {
                                "name": "str",
                                "type": "string",
                                "value": "Mass Updating Pools"
                            }
                        ],
                        "constructorArguments": "",
                        "name": "log",
                        "returnParams": [],
                        "signature": "log(string)"
                    },
                    "errorInfo": "",
                    "fromAddress": "0xdef7bdf8ecb450c1d93c5db7c8dbce5894ccdaa9",
                    "gasUsed": 0,
                    "id": 2,
                    "methodDecoded": true,
                    "operation": "STATICCALL",
                    "output": "",
                    "revert": false,
                    "revertMessage": "",
                    "selector": "0x41304fac",
                    "status": true,
                    "value": "0"
                },
                "nodeType": 0
            },
            "3": {
                "invocation": {
                    "address": "0x2e0721e6c951710725997928dcaaa05daafa031b",
                    "callData": "0x000000000000000000000000def7bdf8ecb450c1d93c5db7c8dbce5894ccdaa9",
                    "decodedMethod": {
                        "callParams": [
                            {
                                "name": "",
                                "type": "address",
                                "value": "0xdef7bdf8ecb450c1d93c5db7c8dbce5894ccdaa9"
                            }
                        ],
                        "constructorArguments": "",
                        "name": "balanceOf",
                        "returnParams": [
                            {
                                "decimalAvailable": true,
                                "name": "",
                                "type": "uint256",
                                "value": "4,139,000,964,887,228,249,384"
                            }
                        ],
                        "signature": "balanceOf(address)"
                    },
                    "errorInfo": "",
                    "fromAddress": "0xdef7bdf8ecb450c1d93c5db7c8dbce5894ccdaa9",
                    "gasUsed": 1180,
                    "id": 3,
                    "methodDecoded": true,
                    "operation": "STATICCALL",
                    "output": "0x0000000000000000000000000000000000000000000000e0602d5832ae48f528",
                    "revert": false,
                    "revertMessage": "",
                    "selector": "0x70a08231",
                    "status": true,
                    "value": "0"
                },
                "nodeType": 0
            },
            "4": {
                "invocation": {
                    "address": "0x2e0721e6c951710725997928dcaaa05daafa031b",
                    "callData": "0x000000000000000000000000e94a0b9149e33d990f21d6976728311b5a1946fb000000000000000000000000def7bdf8ecb450c1d93c5db7c8dbce5894ccdaa90000000000000000000000000000000000000000000000001de5f8cb2eb8ec9a",
                    "decodedMethod": {
                        "callParams": [
                            {
                                "name": "from",
                                "type": "address",
                                "value": "0xe94a0b9149e33d990f21d6976728311b5a1946fb"
                            },
                            {
                                "name": "to",
                                "type": "address",
                                "value": "0xdef7bdf8ecb450c1d93c5db7c8dbce5894ccdaa9"
                            },
                            {
                                "decimalAvailable": true,
                                "name": "value",
                                "type": "uint256",
                                "value": "2,154,401,548,312,571,034"
                            }
                        ],
                        "constructorArguments": "",
                        "name": "transferFrom",
                        "returnParams": [
                            {
                                "name": "",
                                "type": "bool",
                                "value": true
                            }
                        ],
                        "signature": "transferFrom(address,address,uint256)"
                    },
                    "errorInfo": "",
                    "fromAddress": "0xdef7bdf8ecb450c1d93c5db7c8dbce5894ccdaa9",
                    "gasUsed": 21449,
                    "id": 4,
                    "methodDecoded": true,
                    "operation": "CALL",
                    "output": "0x0000000000000000000000000000000000000000000000000000000000000001",
                    "revert": false,
                    "revertMessage": "",
                    "selector": "0x23b872dd",
                    "status": true,
                    "value": "0"
                },
                "nodeType": 0
            },
            "5": {
                "event": {
                    "contract": "0x2e0721e6c951710725997928dcaaa05daafa031b",
                    "decodedLog": {
                        "name": "Transfer",
                        "params": [
                            {
                                "name": "from",
                                "type": "address",
                                "value": "0xe94a0b9149e33d990f21d6976728311b5a1946fb"
                            },
                            {
                                "name": "to",
                                "type": "address",
                                "value": "0xdef7bdf8ecb450c1d93c5db7c8dbce5894ccdaa9"
                            },
                            {
                                "decimalAvailable": true,
                                "name": "value",
                                "type": "uint256",
                                "value": "2,154,401,548,312,571,034"
                            }
                        ],
                        "signature": "Transfer(address,address,uint256)"
                    },
                    "id": 5,
                    "logData": "0x0000000000000000000000000000000000000000000000001de5f8cb2eb8ec9a",
                    "logDecoded": true,
                    "operation": "EVENT",
                    "revert": false,
                    "status": true,
                    "topics": [
                        "0xddf252ad1be2c89b69c2b068fc378daa952ba7f163c4a11628f55a4df523b3ef",
                        "0x000000000000000000000000e94a0b9149e33d990f21d6976728311b5a1946fb",
                        "0x000000000000000000000000def7bdf8ecb450c1d93c5db7c8dbce5894ccdaa9"
                    ]
                },
                "nodeType": 1
            },
            "6": {
                "event": {
                    "contract": "0xdef7bdf8ecb450c1d93c5db7c8dbce5894ccdaa9",
                    "decodedLog": {
                        "name": "Deposit",
                        "params": [
                            {
                                "name": "user",
                                "type": "address",
                                "value": "0xe94a0b9149e33d990f21d6976728311b5a1946fb"
                            },
                            {
                                "name": "pid",
                                "type": "uint256",
                                "value": "0"
                            },
                            {
                                "name": "amount",
                                "type": "uint256",
                                "value": "2,154,401,548,312,571,034"
                            }
                        ],
                        "signature": "Deposit(address,uint256,uint256)"
                    },
                    "id": 6,
                    "logData": "0x0000000000000000000000000000000000000000000000001de5f8cb2eb8ec9a",
                    "logDecoded": true,
                    "operation": "EVENT",
                    "revert": false,
                    "status": true,
                    "topics": [
                        "0x90890809c654f11d6e72a28fa60149770a0d11ec6c92319d6ceb2bb0a4ea1a15",
                        "0x000000000000000000000000e94a0b9149e33d990f21d6976728311b5a1946fb",
                        "0x0000000000000000000000000000000000000000000000000000000000000000"
                    ]
                },
                "nodeType": 1
            }
        },
        "gasFlame": [
            {
                "children": [
                    {
                        "children": [
                            {
                                "children": [],
                                "depth": 0,
                                "name": "Initial Gas",
                                "value": 21416
                            },
                            {
                                "children": [
                                    {
                                        "children": [
                                            {
                                                "children": [],
                                                "depth": 2,
                                                "name": "log",
                                                "value": 0
                                            },
                                            {
                                                "children": [],
                                                "depth": 2,
                                                "name": "balanceOf",
                                                "value": 1180
                                            },
                                            {
                                                "children": [],
                                                "depth": 2,
                                                "name": "transferFrom",
                                                "value": 21449
                                            }
                                        ],
                                        "depth": 1,
                                        "name": "deposit",
                                        "value": 88950
                                    }
                                ],
                                "depth": 0,
                                "name": "Executed Gas",
                                "value": 91730
                            }
                        ],
                        "depth": -1,
                        "name": "Actual Gas Used",
                        "value": 98146
                    },
                    {
                        "children": [],
                        "depth": -1,
                        "name": "Refunded Gas",
                        "value": 15000
                    }
                ],
                "depth": -2,
                "name": "Total Gas",
                "value": 113146
            }
        ],
        "isConfirmed": true,
        "mainTrace": [
            {
                "children": [
                    {
                        "children": [
                            {
                                "children": [
                                    {
                                        "children": [],
                                        "depth": 2,
                                        "id": 2,
                                        "order": 2
                                    },
                                    {
                                        "children": [],
                                        "depth": 2,
                                        "id": 3,
                                        "order": 3
                                    },
                                    {
                                        "children": [
                                            {
                                                "children": [],
                                                "depth": 3,
                                                "id": 5,
                                                "order": 5
                                            }
                                        ],
                                        "depth": 2,
                                        "id": 4,
                                        "order": 4
                                    },
                                    {
                                        "children": [],
                                        "depth": 2,
                                        "id": 6,
                                        "order": 6
                                    }
                                ],
                                "depth": 1,
                                "id": 1,
                                "order": 1
                            }
                        ],
                        "depth": 0,
                        "id": 0,
                        "order": 0
                    }
                ],
                "depth": -1,
                "id": -1,
                "order": -1
            }
        ],
        "mainTraceNodeCount": 7,
        "parentIdMap": {
            "0": -1,
            "1": 0,
            "2": 1,
            "3": 1,
            "4": 1,
            "5": 4,
            "6": 1
        },
        "tidyTrace": [
            {
                "children": [
                    {
                        "children": [
                            {
                                "children": [
                                    {
                                        "children": [
                                            {
                                                "children": [],
                                                "depth": 3,
                                                "id": 5,
                                                "order": 5
                                            }
                                        ],
                                        "depth": 2,
                                        "id": 4,
                                        "order": 4
                                    },
                                    {
                                        "children": [],
                                        "depth": 2,
                                        "id": 6,
                                        "order": 6
                                    }
                                ],
                                "depth": 1,
                                "id": 1,
                                "order": 1
                            }
                        ],
                        "depth": 0,
                        "id": 0,
                        "order": 0
                    }
                ],
                "depth": -1,
                "id": -1,
                "order": -1
            }
        ],
        "tidyTraceNodeCount": 5
    },
    "state_change": {
        "stateChanges": [
            {
                "address": "0x2e0721e6c951710725997928dcaaa05daafa031b",
                "erc": "ERC-20",
                "slots": [
                    {
                        "current": "0x0000000000000000000000000000000000000000000000e07e1350fddd01e1c2",
                        "key": "0x13140c9155ce954f918131ef95cf6e82c599642fd497931ecb4e3055c66fb03b",
                        "prev": "0x0000000000000000000000000000000000000000000000e0602d5832ae48f528"
                    },
                    {
                        "current": "0x000000000000000197d4df19d605767337e9f14d3eec8920c61a0734d1471365",
                        "key": "0xc156e525069c1482e42d4faaa629814817d21d880248af58bc7f748efe298536",
                        "prev": "0x000000000000000197d4df19d605767337e9f14d3eec8920e3ffffffffffffff"
                    },
                    {
                        "current": "0x0000000000000000000000000000000000000000000000000000000000000000",
                        "key": "0xef7733ad29bc8bb4279bb8dba164f010f960f3046ea8665b99f5eb6228a22461",
                        "prev": "0x0000000000000000000000000000000000000000000000001de5f8cb2eb8ec9a"
                    }
                ],
                "storageVariables": [
                    {
                        "name": "balanceOf",
                        "type": "mapping(address => uint256)",
                        "value": {
                            "pairs": [
                                {
                                    "key": "0xdef7bdf8ecb450c1d93c5db7c8dbce5894ccdaa9",
                                    "value": {
                                        "current": "4141155366435540820418",
                                        "prev": "4139000964887228249384",
                                        "typeTag": 1
                                    }
                                },
                                {
                                    "key": "0xe94a0b9149e33d990f21d6976728311b5a1946fb",
                                    "value": {
                                        "current": "0",
                                        "prev": "2154401548312571034",
                                        "typeTag": 1
                                    }
                                }
                            ],
                            "typeTag": 4
                        }
                    },
                    {
                        "name": "allowance",
                        "type": "mapping(address => mapping(address => uint256))",
                        "value": {
                            "pairs": [
                                {
                                    "key": "0xe94a0b9149e33d990f21d6976728311b5a1946fb",
                                    "value": {
                                        "pairs": [
                                            {
                                                "key": "0xdef7bdf8ecb450c1d93c5db7c8dbce5894ccdaa9",
                                                "value": {
                                                    "current": "9999999999999999999999999999999999999997845598451687428965",
                                                    "prev": "9999999999999999999999999999999999999999999999999999999999",
                                                    "typeTag": 1
                                                }
                                            }
                                        ],
                                        "typeTag": 4
                                    }
                                }
                            ],
                            "typeTag": 4
                        }
                    }
                ]
            },
            {
                "address": "0xdef7bdf8ecb450c1d93c5db7c8dbce5894ccdaa9",
                "erc": "",
                "slots": [
                    {
                        "current": "0x0000000000000000000000000000000000000000000000001094cc999c455a69",
                        "key": "0x678850ffb5e065c1a87017399d9bd8a1b1bd0f44a1bada1f1d0262f48d15b6b7",
                        "prev": "0x0000000000000000000000000000000000000000000000000000000000000000"
                    },
                    {
                        "current": "0x0000000000000000000000000000000000000000000000001de5f8cb2eb8ec9a",
                        "key": "0x678850ffb5e065c1a87017399d9bd8a1b1bd0f44a1bada1f1d0262f48d15b6b6",
                        "prev": "0x0000000000000000000000000000000000000000000000000000000000000000"
                    }
                ],
                "storageVariables": [
                    {
                        "name": "userInfo",
                        "type": "mapping(uint256 => mapping(address => struct EncoreVault.UserInfo))",
                        "value": {
                            "pairs": [
                                {
                                    "key": "0",
                                    "value": {
                                        "pairs": [
                                            {
                                                "key": "0xe94a0b9149e33d990f21d6976728311b5a1946fb",
                                                "value": {
                                                    "fields": [
                                                        {
                                                            "name": "amount",
                                                            "type": "uint256",
                                                            "value": {
                                                                "current": "2154401548312571034",
                                                                "prev": "0",
                                                                "typeTag": 1
                                                            }
                                                        },
                                                        {
                                                            "name": "rewardDebt",
                                                            "type": "uint256",
                                                            "value": {
                                                                "current": "1194804761283877481",
                                                                "prev": "0",
                                                                "typeTag": 1
                                                            }
                                                        }
                                                    ],
                                                    "typeTag": 3
                                                }
                                            }
                                        ],
                                        "typeTag": 4
                                    }
                                }
                            ],
                            "typeTag": 4
                        }
                    }
                ]
            }
        ]
    }
}