{
    "balance_change": {
        "balanceChanges": [
            {
                "account": "0x47859ce1ed589be203e119b81b0764e623ab4086",
                "assets": [
                    {
                        "address": "0x6b3595068778dd592e39a122f4f5a5cf09c90fe2",
                        "amount": "803.612045901418447199",
                        "iconUrl": "https://assets.blocksec.com/icon/bb0cf8c867431b5b96b5fc72143d2d0ff0fb06e17664ccb128080b416f067159.png",
                        "isERC1155": false,
                        "isERC721": false,
                        "sign": true,
                        "value": ""
                    }
                ]
            },
            {
                "account": "0xc2edad668740f1aa35e4d8f227fb8e17dca888cd",
                "assets": [
                    {
                        "address": "0x6b3595068778dd592e39a122f4f5a5cf09c90fe2",
                        "amount": "592.09224348455331533",
                        "iconUrl": "https://assets.blocksec.com/icon/bb0cf8c867431b5b96b5fc72143d2d0ff0fb06e17664ccb128080b416f067159.png",
                        "isERC1155": false,
                        "isERC721": false,
                        "sign": false,
                        "value": ""
                    }
                ]
            },
            {
                "account": "0x0000000000000000000000000000000000000000",
                "assets": [
                    {
                        "address": "0x6b3595068778dd592e39a122f4f5a5cf09c90fe2",
                        "amount": "232.671782658551645055",
                        "iconUrl": "https://assets.blocksec.com/icon/bb0cf8c867431b5b96b5fc72143d2d0ff0fb06e17664ccb128080b416f067159.png",
                        "isERC1155": false,
                        "isERC721": false,
                        "sign": false,
                        "value": ""
                    }
                ]
            },
            {
                "account": "0xf73b31c07e3f8ea8f7c59ac58ed1f878708c8a76",
                "assets": [
                    {
                        "address": "0x6b3595068778dd592e39a122f4f5a5cf09c90fe2",
                        "amount": "21.151980241686513186",
                        "iconUrl": "https://assets.blocksec.com/icon/bb0cf8c867431b5b96b5fc72143d2d0ff0fb06e17664ccb128080b416f067159.png",
                        "isERC1155": false,
                        "isERC721": false,
                        "sign": true,
                        "value": ""
                    }
                ]
            }
        ]
    },
    "profile": {
        "basic_info": {
            "baseFee": "",
            "blockNumber": 10805260,
            "callData": "0xe2bbb158000000000000000000000000000000000000000000000000000000000000000c0000000000000000000000000000000000000000000000000000000000000000",
            "debugEnable": true,
            "errorInfo": "",
            "eventCount": 5,
            "feeRecipient": "0x04668ec2f57cc15c381b461b9fedab5d451c8f7f",
            "formatValue": "0",
            "gasLimit": 134401,
            "gasPrice": "131.670000281",
            "gasUsed": 118401,
            "intTxnCount": 6,
            "internalRevert": false,
            "internalRevertMessage": "",
            "isContractCreation": false,
            "isFlashloan": false,
            "maxFee": "",
            "nonce": 270,
            "overwritedBlockNumber": -1,
            "priorityFee": "",
            "receiver": "0xc2edad668740f1aa35e4d8f227fb8e17dca888cd",
            "revertMessage": "",
            "sender": "0x47859ce1ed589be203e119b81b0764e623ab4086",
            "simulationEnable": true,
            "sourceTxnHash": "0xa010fc7e992104d9ebd7f07ca30bec4426d101669e5eedd7200271b295015232",
            "status": true,
            "timestamp": "2020-09-06T02:34:09Z",
            "transactionFee": "0.015589859703270681",
            "txnHash": "0xa010fc7e992104d9ebd7f07ca30bec4426d101669e5eedd7200271b295015232",
            "txnIndex": 186,
            "type": 0,
            "value": "0"
        },
        "fund_flow": [
            {
                "amount": "21.151980241686513186",
                "from": "0x0000000000000000000000000000000000000000",
                "id": 1,
                "isERC1155": false,
                "isERC721": false,
                "isReverted": false,
                "order": 1,
                "to": "0xf73b31c07e3f8ea8f7c59ac58ed1f878708c8a76",
                "token": "0x6b3595068778dd592e39a122f4f5a5cf09c90fe2"
            },
            {
                "amount": "211.519802416865131869",
                "from": "0x0000000000000000000000000000000000000000",
                "id": 2,
                "isERC1155": false,
                "isERC721": false,
                "isReverted": false,
                "order": 2,
                "to": "0xc2edad668740f1aa35e4d8f227fb8e17dca888cd",
                "token": "0x6b3595068778dd592e39a122f4f5a5cf09c90fe2"
            },
            {
                "amount": "803.612045901418447199",
                "from": "0xc2edad668740f1aa35e4d8f227fb8e17dca888cd",
                "id": 3,
                "isERC1155": false,
                "isERC721": false,
                "isReverted": false,
                "order": 3,
                "to": "0x47859ce1ed589be203e119b81b0764e623ab4086",
                "token": "0x6b3595068778dd592e39a122f4f5a5cf09c90fe2"
            },
            {
                "amount": "0",
                "from": "0x47859ce1ed589be203e119b81b0764e623ab4086",
                "id": 4,
                "isERC1155": false,
                "isERC721": false,
                "isReverted": false,
                "order": 4,
                "to": "0xc2edad668740f1aa35e4d8f227fb8e17dca888cd",
                "token": "0xce84867c3c02b05dc570d0135103d3fb9cc19433"
            }
        ],
        "token_infos": [
            {
                "address": "0x6b3595068778dd592e39a122f4f5a5cf09c90fe2",
                "decimals": 18
            },
            {
                "address": "0xc02aaa39b223fe8d0a0e5c4f27ead9083c756cc2",
                "decimals": 18
            },
            {
                "address": "0xce84867c3c02b05dc570d0135103d3fb9cc19433",
                "decimals": 18
            },
            {
                "address": "0xeeeeeeeeeeeeeeeeeeeeeeeeeeeeeeeeeeeeeeee",
                "decimals": 18
            }
        ]
    },
    "address_label": {
        "labels": [
            {
                "address": "0x0000000000000000000000000000000000000002",
                "label": "Precompiled"
            },
            {
                "address": "0x0000000000000000000000000000000000000004",
                "label": "Precompiled"
            },
            {
                "address": "0xeeeeeeeeeeeeeeeeeeeeeeeeeeeeeeeeeeeeeeee",
                "label": "Ether"
            },
            {
                "address": "0xce84867c3c02b05dc570d0135103d3fb9cc19433",
                "label": "Uniswap V2: SUSHI"
            },
            {
                "address": "0x6b3595068778dd592e39a122f4f5a5cf09c90fe2",
                "label": "SushiSwap: SUSHI Token"
            },
            {
                "address": "0xf73b31c07e3f8ea8f7c59ac58ed1f878708c8a76",
                "label": "SushiSwap: Dev Fund"
            },
            {
                "address": "0xc2edad668740f1aa35e4d8f227fb8e17dca888cd",
                "label": "SushiSwap: MasterChef LP Staking Pool"
            },
            {
                "address": "0x0000000000000000000000000000000000000001",
                "label": "Precompiled"
            },
            {
                "address": "0x0000000000000000000000000000000000000003",
                "label": "Precompiled"
            }
        ]
    },
    "trace": {
        "accountLabels": null,
        "dataMap": {
            "-1": {
                "invocation": {
                    "address": "0x47859ce1ed589be203e119b81b0764e623ab4086",
                    "callData": "",
                    "decodedMethod": null,
                    "errorInfo": "",
                    "fromAddress": "",
                    "gasUsed": 0,
                    "id": -1,
                    "methodDecoded": false,
                    "operation": "",
                    "output": "",
                    "revert": false,
                    "revertMessage": "",
                    "selector": "",
                    "status": false,
                    "value": ""
                },
                "nodeType": 0
            },
            "0": {
                "invocation": {
                    "address": "0xc2edad668740f1aa35e4d8f227fb8e17dca888cd",
                    "callData": "0x000000000000000000000000000000000000000000000000000000000000000c0000000000000000000000000000000000000000000000000000000000000000",
                    "decodedMethod": {
                        "callParams": [
                            {
                                "name": "_pid",
                                "type": "uint256",
                                "value": "12"
                            },
                            {
                                "name": "_amount",
                                "type": "uint256",
                                "value": "0"
                            }
                        ],
                        "constructorArguments": "",
                        "name": "deposit",
                        "returnParams": [],
                        "signature": "deposit(uint256,uint256)"
                    },
                    "errorInfo": "",
                    "fromAddress": "0x47859ce1ed589be203e119b81b0764e623ab4086",
                    "gasUsed": 118401,
                    "id": 0,
                    "methodDecoded": true,
                    "operation": "CALL",
                    "output": "",
                    "revert": false,
                    "revertMessage": "",
                    "selector": "0xe2bbb158",
                    "status": true,
                    "value": "0"
                },
                "nodeType": 0
            },
            "1": {
                "invocation": {
                    "address": "0xce84867c3c02b05dc570d0135103d3fb9cc19433",
                    "callData": "0x000000000000000000000000c2edad668740f1aa35e4d8f227fb8e17dca888cd",
                    "decodedMethod": {
                        "callParams": [
                            {
                                "name": "",
                                "type": "address",
                                "value": "0xc2edad668740f1aa35e4d8f227fb8e17dca888cd"
                            }
                        ],
                        "constructorArguments": "",
                        "name": "balanceOf",
                        "returnParams": [
                            {
                                "decimalAvailable": true,
                                "name": "",
                                "type": "uint256",
                                "value": "1,268,047,492,141,024,994,103,427"
                            }
                        ],
                        "signature": "balanceOf(address)"
                    },
                    "errorInfo": "",
                    "fromAddress": "0xc2edad668740f1aa35e4d8f227fb8e17dca888cd",
                    "gasUsed": 1180,
                    "id": 1,
                    "methodDecoded": true,
                    "operation": "STATICCALL",
                    "output": "0x000000000000000000000000000000000000000000010c84fe06b2b60a079083",
                    "revert": false,
                    "revertMessage": "",
                    "selector": "0x70a08231",
                    "status": true,
                    "value": "0"
                },
                "nodeType": 0
            },
            "10": {
                "event": {
                    "contract": "0xce84867c3c02b05dc570d0135103d3fb9cc19433",
                    "decodedLog": {
                        "name": "Transfer",
                        "params": [
                            {
                                "name": "from",
                                "type": "address",
                                "value": "0x47859ce1ed589be203e119b81b0764e623ab4086"
                            },
                            {
                                "name": "to",
                                "type": "address",
                                "value": "0xc2edad668740f1aa35e4d8f227fb8e17dca888cd"
                            },
                            {
                                "decimalAvailable": true,
                                "name": "value",
                                "type": "uint256",
                                "value": "0"
                            }
                        ],
                        "signature": "Transfer(address,address,uint256)"
                    },
                    "id": 10,
                    "logData": "0x0000000000000000000000000000000000000000000000000000000000000000",
                    "logDecoded": true,
                    "operation": "EVENT",
                    "revert": false,
                    "status": true,
                    "topics": [
                        "0xddf252ad1be2c89b69c2b068fc378daa952ba7f163c4a11628f55a4df523b3ef",
                        "0x00000000000000000000000047859ce1ed589be203e119b81b0764e623ab4086",
                        "0x000000000000000000000000c2edad668740f1aa35e4d8f227fb8e17dca888cd"
                    ]
                },
                "nodeType": 1
            },
            "11": {
                "event": {
                    "contract": "0xc2edad668740f1aa35e4d8f227fb8e17dca888cd",
                    "decodedLog": {
                        "name": "Deposit",
                        "params": [
                            {
                                "name": "user",
                                "type": "address",
                                "value": "0x47859ce1ed589be203e119b81b0764e623ab4086"
                            },
                            {
                                "name": "pid",
                                "type": "uint256",
                                "value": "12"
                            },
                            {
                                "name": "amount",
                                "type": "uint256",
                                "value": "0"
                            }
                        ],
                        "signature": "Deposit(address,uint256,uint256)"
                    },
                    "id": 11,
                    "logData": "0x0000000000000000000000000000000000000000000000000000000000000000",
                    "logDecoded": true,
                    "operation": "EVENT",
                    "revert": false,
                    "status": true,
                    "topics": [
                        "0x90890809c654f11d6e72a28fa60149770a0d11ec6c92319d6ceb2bb0a4ea1a15",
                        "0x00000000000000000000000047859ce1ed589be203e119b81b0764e623ab4086",
                        "0x000000000000000000000000000000000000000000000000000000000000000c"
                    ]
                },
                "nodeType": 1
            },
            "2": {
                "invocation": {
                    "address": "0x6b3595068778dd592e39a122f4f5a5cf09c90fe2",
                    "callData": "0x000000000000000000000000f73b31c07e3f8ea8f7c59ac58ed1f878708c8a76000000000000000000000000000000000000000000000001258aedf639ce4622",
                    "decodedMethod": {
                        "callParams": [
                            {
                                "name": "_to",
                                "type": "address",
                                "value": "0xf73b31c07e3f8ea8f7c59ac58ed1f878708c8a76"
                            },
                            {
                                "name": "_amount",
                                "type": "uint256",
                                "value": "21,151,980,241,686,513,186"
                            }
                        ],
                        "constructorArguments": "",
                        "name": "mint",
                        "returnParams": [],
                        "signature": "mint(address,uint256)"
                    },
                    "errorInfo": "",
                    "fromAddress": "0xc2edad668740f1aa35e4d8f227fb8e17dca888cd",
                    "gasUsed": 16069,
                    "id": 2,
                    "methodDecoded": true,
                    "operation": "CALL",
                    "output": "",
                    "revert": false,
                    "revertMessage": "",
                    "selector": "0x40c10f19",
                    "status": true,
                    "value": "0"
                },
                "nodeType": 0
            },
            "3": {
                "event": {
                    "contract": "0x6b3595068778dd592e39a122f4f5a5cf09c90fe2",
                    "decodedLog": {
                        "name": "Transfer",
                        "params": [
                            {
                                "name": "from",
                                "type": "address",
                                "value": "0x0000000000000000000000000000000000000000"
                            },
                            {
                                "name": "to",
                                "type": "address",
                                "value": "0xf73b31c07e3f8ea8f7c59ac58ed1f878708c8a76"
                            },
                            {
                                "decimalAvailable": true,
                                "name": "value",
                                "type": "uint256",
                                "value": "21,151,980,241,686,513,186"
                            }
                        ],
                        "signature": "Transfer(address,address,uint256)"
                    },
                    "id": 3,
                    "logData": "0x000000000000000000000000000000000000000000000001258aedf639ce4622",
                    "logDecoded": true,
                    "operation": "EVENT",
                    "revert": false,
                    "status": true,
                    "topics": [
                        "0xddf252ad1be2c89b69c2b068fc378daa952ba7f163c4a11628f55a4df523b3ef",
                        "0x0000000000000000000000000000000000000000000000000000000000000000",
                        "0x000000000000000000000000f73b31c07e3f8ea8f7c59ac58ed1f878708c8a76"
                    ]
                },
                "nodeType": 1
            },
            "4": {
                "invocation": {
                    "address": "0x6b3595068778dd592e39a122f4f5a5cf09c90fe2",
                    "callData": "0x000000000000000000000000c2edad668740f1aa35e4d8f227fb8e17dca888cd00000000000000000000000000000000000000000000000b776d4b9e420ebd5d",
                    "decodedMethod": {
                        "callParams": [
                            {
                                "name": "_to",
                                "type": "address",
                                "value": "0xc2edad668740f1aa35e4d8f227fb8e17dca888cd"
                            },
                            {
                                "name": "_amount",
                                "type": "uint256",
                                "value": "211,519,802,416,865,131,869"
                            }
                        ],
                        "constructorArguments": "",
                        "name": "mint",
                        "returnParams": [],
                        "signature": "mint(address,uint256)"
                    },
                    "errorInfo": "",
                    "fromAddress": "0xc2edad668740f1aa35e4d8f227fb8e17dca888cd",
                    "gasUsed": 11869,
                    "id": 4,
                    "methodDecoded": true,
                    "operation": "CALL",
                    "output": "",
                    "revert": false,
                    "revertMessage": "",
                    "selector": "0x40c10f19",
                    "status": true,
                    "value": "0"
                },
                "nodeType": 0
            },
            "5": {
                "event": {
                    "contract": "0x6b3595068778dd592e39a122f4f5a5cf09c90fe2",
                    "decodedLog": {
                        "name": "Transfer",
                        "params": [
                            {
                                "name": "from",
                                "type": "address",
                                "value": "0x0000000000000000000000000000000000000000"
                            },
                            {
                                "name": "to",
                                "type": "address",
                                "value": "0xc2edad668740f1aa35e4d8f227fb8e17dca888cd"
                            },
                            {
                                "decimalAvailable": true,
                                "name": "value",
                                "type": "uint256",
                                "value": "211,519,802,416,865,131,869"
                            }
                        ],
                        "signature": "Transfer(address,address,uint256)"
                    },
                    "id": 5,
                    "logData": "0x00000000000000000000000000000000000000000000000b776d4b9e420ebd5d",
                    "logDecoded": true,
                    "operation": "EVENT",
                    "revert": false,
                    "status": true,
                    "topics": [
                        "0xddf252ad1be2c89b69c2b068fc378daa952ba7f163c4a11628f55a4df523b3ef",
                        "0x0000000000000000000000000000000000000000000000000000000000000000",
                        "0x000000000000000000000000c2edad668740f1aa35e4d8f227fb8e17dca888cd"
                    ]
                },
                "nodeType": 1
            },
            "6": {
                "invocation": {
                    "address": "0x6b3595068778dd592e39a122f4f5a5cf09c90fe2",
                    "callData": "0x000000000000000000000000c2edad668740f1aa35e4d8f227fb8e17dca888cd",
                    "decodedMethod": {
                        "callParams": [
                            {
                                "name": "account",
                                "type": "address",
                                "value": "0xc2edad668740f1aa35e4d8f227fb8e17dca888cd"
                            }
                        ],
                        "constructorArguments": "",
                        "name": "balanceOf",
                        "returnParams": [
                            {
                                "decimalAvailable": true,
                                "name": "",
                                "type": "uint256",
                                "value": "3,860,227,274,538,508,956,767,168"
                            }
                        ],
                        "signature": "balanceOf(address)"
                    },
                    "errorInfo": "",
                    "fromAddress": "0xc2edad668740f1aa35e4d8f227fb8e17dca888cd",
                    "gasUsed": 1278,
                    "id": 6,
                    "methodDecoded": true,
                    "operation": "STATICCALL",
                    "output": "0x00000000000000000000000000000000000000000003316f5701881ff1b493c0",
                    "revert": false,
                    "revertMessage": "",
                    "selector": "0x70a08231",
                    "status": true,
                    "value": "0"
                },
                "nodeType": 0
            },
            "7": {
                "invocation": {
                    "address": "0x6b3595068778dd592e39a122f4f5a5cf09c90fe2",
                    "callData": "0x00000000000000000000000047859ce1ed589be203e119b81b0764e623ab408600000000000000000000000000000000000000000000002b905b82073af3c15f",
                    "decodedMethod": {
                        "callParams": [
                            {
                                "name": "recipient",
                                "type": "address",
                                "value": "0x47859ce1ed589be203e119b81b0764e623ab4086"
                            },
                            {
                                "decimalAvailable": true,
                                "name": "amount",
                                "type": "uint256",
                                "value": "803,612,045,901,418,447,199"
                            }
                        ],
                        "constructorArguments": "",
                        "name": "transfer",
                        "returnParams": [
                            {
                                "name": "",
                                "type": "bool",
                                "value": true
                            }
                        ],
                        "signature": "transfer(address,uint256)"
                    },
                    "errorInfo": "",
                    "fromAddress": "0xc2edad668740f1aa35e4d8f227fb8e17dca888cd",
                    "gasUsed": 10325,
                    "id": 7,
                    "methodDecoded": true,
                    "operation": "CALL",
                    "output": "0x0000000000000000000000000000000000000000000000000000000000000001",
                    "revert": false,
                    "revertMessage": "",
                    "selector": "0xa9059cbb",
                    "status": true,
                    "value": "0"
                },
                "nodeType": 0
            },
            "8": {
                "event": {
                    "contract": "0x6b3595068778dd592e39a122f4f5a5cf09c90fe2",
                    "decodedLog": {
                        "name": "Transfer",
                        "params": [
                            {
                                "name": "from",
                                "type": "address",
                                "value": "0xc2edad668740f1aa35e4d8f227fb8e17dca888cd"
                            },
                            {
                                "name": "to",
                                "type": "address",
                                "value": "0x47859ce1ed589be203e119b81b0764e623ab4086"
                            },
                            {
                                "decimalAvailable": true,
                                "name": "value",
                                "type": "uint256",
                                "value": "803,612,045,901,418,447,199"
                            }
                        ],
                        "signature": "Transfer(address,address,uint256)"
                    },
                    "id": 8,
                    "logData": "0x00000000000000000000000000000000000000000000002b905b82073af3c15f",
                    "logDecoded": true,
                    "operation": "EVENT",
                    "revert": false,
                    "status": true,
                    "topics": [
                        "0xddf252ad1be2c89b69c2b068fc378daa952ba7f163c4a11628f55a4df523b3ef",
                        "0x000000000000000000000000c2edad668740f1aa35e4d8f227fb8e17dca888cd",
                        "0x00000000000000000000000047859ce1ed589be203e119b81b0764e623ab4086"
                    ]
                },
                "nodeType": 1
            },
            "9": {
                "invocation": {
                    "address": "0xce84867c3c02b05dc570d0135103d3fb9cc19433",
                    "callData": "0x00000000000000000000000047859ce1ed589be203e119b81b0764e623ab4086000000000000000000000000c2edad668740f1aa35e4d8f227fb8e17dca888cd0000000000000000000000000000000000000000000000000000000000000000",
                    "decodedMethod": {
                        "callParams": [
                            {
                                "name": "from",
                                "type": "address",
                                "value": "0x47859ce1ed589be203e119b81b0764e623ab4086"
                            },
                            {
                                "name": "to",
                                "type": "address",
                                "value": "0xc2edad668740f1aa35e4d8f227fb8e17dca888cd"
                            },
                            {
                                "decimalAvailable": true,
                                "name": "value",
                                "type": "uint256",
                                "value": "0"
                            }
                        ],
                        "constructorArguments": "",
                        "name": "transferFrom",
                        "returnParams": [
                            {
                                "name": "",
                                "type": "bool",
                                "value": true
                            }
                        ],
                        "signature": "transferFrom(address,address,uint256)"
                    },
                    "errorInfo": "",
                    "fromAddress": "0xc2edad668740f1aa35e4d8f227fb8e17dca888cd",
                    "gasUsed": 6870,
                    "id": 9,
                    "methodDecoded": true,
                    "operation": "CALL",
                    "output": "0x0000000000000000000000000000000000000000000000000000000000000001",
                    "revert": false,
                    "revertMessage": "",
                    "selector": "0x23b872dd",
                    "status": true,
                    "value": "0"
                },
                "nodeType": 0
            }
        },
        "gasFlame": [
            {
                "children": [
                    {
                        "children": [
                            {
                                "children": [],
                                "depth": 0,
                                "name": "Initial Gas",
                                "value": 21332
                            },
                            {
                                "children": [
                                    {
                                        "children": [],
                                        "depth": 1,
                                        "name": "balanceOf",
                                        "value": 1180
                                    },
                                    {
                                        "children": [],
                                        "depth": 1,
                                        "name": "mint",
                                        "value": 16069
                                    },
                                    {
                                        "children": [],
                                        "depth": 1,
                                        "name": "mint",
                                        "value": 11869
                                    },
                                    {
                                        "children": [],
                                        "depth": 1,
                                        "name": "balanceOf",
                                        "value": 1278
                                    },
                                    {
                                        "children": [],
                                        "depth": 1,
                                        "name": "transfer",
                                        "value": 10325
                                    },
                                    {
                                        "children": [],
                                        "depth": 1,
                                        "name": "transferFrom",
                                        "value": 6870
                                    }
                                ],
                                "depth": 0,
                                "name": "Executed Gas",
                                "value": 97069
                            }
                        ],
                        "depth": -1,
                        "name": "Actual Gas Used",
                        "value": 118401
                    },
                    {
                        "children": [],
                        "depth": -1,
                        "name": "Refunded Gas",
                        "value": 0
                    }
                ],
                "depth": -2,
                "name": "Total Gas",
                "value": 118401
            }
        ],
        "isConfirmed": true,
        "mainTrace": [
            {
                "children": [
                    {
                        "children": [
                            {
                                "children": [],
                                "depth": 1,
                                "id": 1,
                                "order": 1
                            },
                            {
                                "children": [
                                    {
                                        "children": [],
                                        "depth": 2,
                                        "id": 3,
                                        "order": 3
                                    }
                                ],
                                "depth": 1,
                                "id": 2,
                                "order": 2
                            },
                            {
                                "children": [
                                    {
                                        "children": [],
                                        "depth": 2,
                                        "id": 5,
                                        "order": 5
                                    }
                                ],
                                "depth": 1,
                                "id": 4,
                                "order": 4
                            },
                            {
                                "children": [],
                                "depth": 1,
                                "id": 6,
                                "order": 6
                            },
                            {
                                "children": [
                                    {
                                        "children": [],
                                        "depth": 2,
                                        "id": 8,
                                        "order": 8
                                    }
                                ],
                                "depth": 1,
                                "id": 7,
                                "order": 7
                            },
                            {
                                "children": [
                                    {
                                        "children": [],
                                        "depth": 2,
                                        "id": 10,
                                        "order": 10
                                    }
                                ],
                                "depth": 1,
                                "id": 9,
                                "order": 9
                            },
                            {
                                "children": [],
                                "depth": 1,
                                "id": 11,
                                "order": 11
                            }
                        ],
                        "depth": 0,
                        "id": 0,
                        "order": 0
                    }
                ],
                "depth": -1,
                "id": -1,
                "order": -1
            }
        ],
        "mainTraceNodeCount": 12,
        "parentIdMap": {
            "0": -1,
            "1": 0,
            "10": 9,
            "11": 0,
            "2": 0,
            "3": 2,
            "4": 0,
            "5": 4,
            "6": 0,
            "7": 0,
            "8": 7,
            "9": 0
        },
        "tidyTrace": [
            {
                "children": [
                    {
                        "children": [
                            {
                                "children": [
                                    {
                                        "children": [],
                                        "depth": 2,
                                        "id": 3,
                                        "order": 3
                                    }
                                ],
                                "depth": 1,
                                "id": 2,
                                "order": 2
                            },
                            {
                                "children": [
                                    {
                                        "children": [],
                                        "depth": 2,
                                        "id": 5,
                                        "order": 5
                                    }
                                ],
                                "depth": 1,
                                "id": 4,
                                "order": 4
                            },
                            {
                                "children": [
                                    {
                                        "children": [],
                                        "depth": 2,
                                        "id": 8,
                                        "order": 8
                                    }
                                ],
                                "depth": 1,
                                "id": 7,
                                "order": 7
                            },
                            {
                                "children": [
                                    {
                                        "children": [],
                                        "depth": 2,
                                        "id": 10,
                                        "order": 10
                                    }
                                ],
                                "depth": 1,
                                "id": 9,
                                "order": 9
                            },
                            {
                                "children": [],
                                "depth": 1,
                                "id": 11,
                                "order": 11
                            }
                        ],
                        "depth": 0,
                        "id": 0,
                        "order": 0
                    }
                ],
                "depth": -1,
                "id": -1,
                "order": -1
            }
        ],
        "tidyTraceNodeCount": 10
    },
    "state_change": {
        "stateChanges": [
            {
                "address": "0x6b3595068778dd592e39a122f4f5a5cf09c90fe2",
                "erc": "ERC-20",
                "slots": [
                    {
                        "current": "0x000000000000000000000000000000000000000000324469d5c9f86550dd59fc",
                        "key": "0x0000000000000000000000000000000000000000000000000000000000000002",
                        "prev": "0x00000000000000000000000000000000000000000032445d38d1bed0d500567d"
                    },
                    {
                        "current": "0x0000000000000000000000000000000000000000000062c215a87d0474b2af79",
                        "key": "0x9ce02de97f0e658067ac5200f491e6d99b2eb8a09f2c926cc462a6c3eaf442c2",
                        "prev": "0x0000000000000000000000000000000000000000000062c0f01d8f0e3ae46957"
                    },
                    {
                        "current": "0x000000000000000000000000000000000000000000033143c6a60618b6c0d261",
                        "key": "0x4eff73fb0bd0bd41224030aefae73a26f2441d7836ff860a31248ce57702dc69",
                        "prev": "0x000000000000000000000000000000000000000000033163df943c81afa5d663"
                    },
                    {
                        "current": "0x000000000000000000000000000000000000000000000043b52b83283bda26dd",
                        "key": "0x81287dfae2d6e085e086989ca1fb014f97aa536631246916630b66b113eb0f06",
                        "prev": "0x00000000000000000000000000000000000000000000001824d0012100e6657e"
                    }
                ],
                "storageVariables": [
                    {
                        "name": "_totalSupply",
                        "type": "uint256",
                        "value": {
                            "current": "60769364214811448542321148",
                            "prev": "60769131543028789990676093",
                            "typeTag": 1
                        }
                    },
                    {
                        "name": "_balances",
                        "type": "mapping(address => uint256)",
                        "value": {
                            "pairs": [
                                {
                                    "key": "0x47859ce1ed589be203e119b81b0764e623ab4086",
                                    "value": {
                                        "current": "1248986525092229555933",
                                        "prev": "445374479190811108734",
                                        "typeTag": 1
                                    }
                                },
                                {
                                    "key": "0xc2edad668740f1aa35e4d8f227fb8e17dca888cd",
                                    "value": {
                                        "current": "3859423662492607538319969",
                                        "prev": "3860015754736092091635299",
                                        "typeTag": 1
                                    }
                                },
                                {
                                    "key": "0xf73b31c07e3f8ea8f7c59ac58ed1f878708c8a76",
                                    "value": {
                                        "current": "466372144306253859041145",
                                        "prev": "466350992326012172527959",
                                        "typeTag": 1
                                    }
                                }
                            ],
                            "typeTag": 4
                        }
                    }
                ]
            },
            {
                "address": "0xc2edad668740f1aa35e4d8f227fb8e17dca888cd",
                "erc": "",
                "slots": [
                    {
                        "current": "0x0000000000000000000000000000000000000000000000000000000000a4e00c",
                        "key": "0xf652222313e28459528d920b65115c16c04f3efc82aaedc97be59f3f377c0d71",
                        "prev": "0x0000000000000000000000000000000000000000000000000000000000a4e00b"
                    },
                    {
                        "current": "0x000000000000000000000000000000000000000003579e39d656174dd970408e",
                        "key": "0x4105d074530070f117074819ce43ce8d7d4f68bc52baf5c3fad29ca663dfb968",
                        "prev": "0x000000000000000000000000000000000000000003579e0e45fa95469e7c7f2f"
                    },
                    {
                        "current": "0x0000000000000000000000000000000000000000000000000448a369484d66a6",
                        "key": "0xf652222313e28459528d920b65115c16c04f3efc82aaedc97be59f3f377c0d72",
                        "prev": "0x0000000000000000000000000000000000000000000000000448a3693e5c1ef2"
                    }
                ],
                "storageVariables": [
                    {
                        "name": "userInfo",
                        "type": "mapping(uint256 => mapping(address => struct MasterChef.UserInfo))",
                        "value": {
                            "pairs": [
                                {
                                    "key": "12",
                                    "value": {
                                        "pairs": [
                                            {
                                                "key": "0x47859ce1ed589be203e119b81b0764e623ab4086",
                                                "value": {
                                                    "fields": [
                                                        {
                                                            "name": "rewardDebt",
                                                            "type": "uint256",
                                                            "value": {
                                                                "current": "1034378776583771145003614350",
                                                                "prev": "1034377972971725243585167151",
                                                                "typeTag": 1
                                                            }
                                                        }
                                                    ],
                                                    "typeTag": 3
                                                }
                                            }
                                        ],
                                        "typeTag": 4
                                    }
                                }
                            ],
                            "typeTag": 4
                        }
                    },
                    {
                        "name": "poolInfo",
                        "type": "struct MasterChef.PoolInfo[]",
                        "value": {
                            "elemType": "struct MasterChef.PoolInfo",
                            "elems": [
                                {
                                    "index": 12,
                                    "value": {
                                        "fields": [
                                            {
                                                "name": "lastRewardBlock",
                                                "type": "uint256",
                                                "value": {
                                                    "current": "10805260",
                                                    "prev": "10805259",
                                                    "typeTag": 1
                                                }
                                            },
                                            {
                                                "name": "accSushiPerShare",
                                                "type": "uint256",
                                                "value": {
                                                    "current": "308676247054804646",
                                                    "prev": "308676246887997170",
                                                    "typeTag": 1
                                                }
                                            }
                                        ],
                                        "typeTag": 3
                                    }
                                }
                            ],
                            "typeTag": 2
                        }
                    }
                ]
            }
        ]
    }
}