{
    "balance_change": {
        "balanceChanges": [
            {
                "account": "0x9da1299767a3a1b20fbc9fa6158f37deb4965f50",
                "assets": [
                    {
                        "address": "0x5121e348e897daef1eef23959ab290e5557cf274",
                        "amount": "5.399",
                        "iconUrl": "https://assets.blocksec.com/icon/596ee9ac869a071da029569f61854965b307748c32c465c376505b4ef4b48e79.png",
                        "isERC1155": false,
                        "isERC721": false,
                        "sign": false,
                        "value": ""
                    }
                ]
            },
            {
                "account": "0xf05cee7273f09f371fec7817ee140bb13343031d",
                "assets": [
                    {
                        "address": "0x5121e348e897daef1eef23959ab290e5557cf274",
                        "amount": "5.399",
                        "iconUrl": "https://assets.blocksec.com/icon/596ee9ac869a071da029569f61854965b307748c32c465c376505b4ef4b48e79.png",
                        "isERC1155": false,
                        "isERC721": false,
                        "sign": true,
                        "value": ""
                    }
                ]
            }
        ]
    },
    "profile": {
        "basic_info": {
            "baseFee": "",
            "blockNumber": 5113251,
            "callData": "0xa9059cbb000000000000000000000000f05cee7273f09f371fec7817ee140bb13343031d0000000000000000000000000000000000000000000000004aed19e516558000",
            "debugEnable": true,
            "errorInfo": "",
            "eventCount": 1,
            "feeRecipient": "0xb2930b35844a230f00e51431acae96fe543a0347",
            "formatValue": "0",
            "gasLimit": 90000,
            "gasPrice": "21",
            "gasUsed": 37276,
            "intTxnCount": 0,
            "internalRevert": false,
            "internalRevertMessage": "",
            "isContractCreation": false,
            "isFlashloan": false,
            "maxFee": "",
            "nonce": 51621,
            "overwritedBlockNumber": -1,
            "priorityFee": "",
            "receiver": "0x5121e348e897daef1eef23959ab290e5557cf274",
            "revertMessage": "",
            "sender": "0x9da1299767a3a1b20fbc9fa6158f37deb4965f50",
            "simulationEnable": true,
            "sourceTxnHash": "0xa087e47e8268a543a0938916fe8b7287954202b675e9c511aaa766d1cf7adfd2",
            "status": true,
            "timestamp": "2018-02-18T14:56:21Z",
            "transactionFee": "0.000782796",
            "txnHash": "0xa087e47e8268a543a0938916fe8b7287954202b675e9c511aaa766d1cf7adfd2",
            "txnIndex": 44,
            "type": 0,
            "value": "0"
        },
        "fund_flow": [
            {
                "amount": "5.399",
                "from": "0x9da1299767a3a1b20fbc9fa6158f37deb4965f50",
                "id": 1,
                "isERC1155": false,
                "isERC721": false,
                "isReverted": false,
                "order": 1,
                "to": "0xf05cee7273f09f371fec7817ee140bb13343031d",
                "token": "0x5121e348e897daef1eef23959ab290e5557cf274"
            }
        ],
        "token_infos": [
            {
                "address": "0x5121e348e897daef1eef23959ab290e5557cf274",
                "decimals": 18
            },
            {
                "address": "0xc02aaa39b223fe8d0a0e5c4f27ead9083c756cc2",
                "decimals": 18
            },
            {
                "address": "0xeeeeeeeeeeeeeeeeeeeeeeeeeeeeeeeeeeeeeeee",
                "decimals": 18
            }
        ]
    },
    "address_label": {
        "labels": [
            {
                "address": "0x0000000000000000000000000000000000000001",
                "label": "Precompiled"
            },
            {
                "address": "0x0000000000000000000000000000000000000002",
                "label": "Precompiled"
            },
            {
                "address": "0x0000000000000000000000000000000000000003",
                "label": "Precompiled"
            },
            {
                "address": "0x0000000000000000000000000000000000000004",
                "label": "Precompiled"
            },
            {
                "address": "0xeeeeeeeeeeeeeeeeeeeeeeeeeeeeeeeeeeeeeeee",
                "label": "Ether"
            },
            {
                "address": "0x5121e348e897daef1eef23959ab290e5557cf274",
                "label": "PolyAi: AI Token"
            },
            {
                "address": "0x9da1299767a3a1b20fbc9fa6158f37deb4965f50",
                "label": "PolyAi: Deployer"
            }
        ]
    },
    "trace": {
        "accountLabels": null,
        "dataMap": {
            "-1": {
                "invocation": {
                    "address": "0x9da1299767a3a1b20fbc9fa6158f37deb4965f50",
                    "callData": "",
                    "decodedMethod": null,
                    "errorInfo": "",
                    "fromAddress": "",
                    "gasUsed": 0,
                    "id": -1,
                    "methodDecoded": false,
                    "operation": "",
                    "output": "",
                    "revert": false,
                    "revertMessage": "",
                    "selector": "",
                    "status": false,
                    "value": ""
                },
                "nodeType": 0
            },
            "0": {
                "invocation": {
                    "address": "0x5121e348e897daef1eef23959ab290e5557cf274",
                    "callData": "0x000000000000000000000000f05cee7273f09f371fec7817ee140bb13343031d0000000000000000000000000000000000000000000000004aed19e516558000",
                    "decodedMethod": {
                        "callParams": [
                            {
                                "name": "_to",
                                "type": "address",
                                "value": "0xf05cee7273f09f371fec7817ee140bb13343031d"
                            },
                            {
                                "decimalAvailable": true,
                                "name": "_value",
                                "type": "uint256",
                                "value": "5,399,000,000,000,000,000"
                            }
                        ],
                        "constructorArguments": "",
                        "name": "transfer",
                        "returnParams": [],
                        "signature": "transfer(address,uint256)"
                    },
                    "errorInfo": "",
                    "fromAddress": "0x9da1299767a3a1b20fbc9fa6158f37deb4965f50",
                    "gasUsed": 37276,
                    "id": 0,
                    "methodDecoded": true,
                    "operation": "CALL",
                    "output": "",
                    "revert": false,
                    "revertMessage": "",
                    "selector": "0xa9059cbb",
                    "status": true,
                    "value": "0"
                },
                "nodeType": 0
            },
            "1": {
                "event": {
                    "contract": "0x5121e348e897daef1eef23959ab290e5557cf274",
                    "decodedLog": {
                        "name": "Transfer",
                        "params": [
                            {
                                "name": "from",
                                "type": "address",
                                "value": "0x9da1299767a3a1b20fbc9fa6158f37deb4965f50"
                            },
                            {
                                "name": "to",
                                "type": "address",
                                "value": "0xf05cee7273f09f371fec7817ee140bb13343031d"
                            },
                            {
                                "decimalAvailable": true,
                                "name": "value",
                                "type": "uint256",
                                "value": "5,399,000,000,000,000,000"
                            }
                        ],
                        "signature": "Transfer(address,address,uint256)"
                    },
                    "id": 1,
                    "logData": "0x0000000000000000000000000000000000000000000000004aed19e516558000",
                    "logDecoded": true,
                    "operation": "EVENT",
                    "revert": false,
                    "status": true,
                    "topics": [
                        "0xddf252ad1be2c89b69c2b068fc378daa952ba7f163c4a11628f55a4df523b3ef",
                        "0x0000000000000000000000009da1299767a3a1b20fbc9fa6158f37deb4965f50",
                        "0x000000000000000000000000f05cee7273f09f371fec7817ee140bb13343031d"
                    ]
                },
                "nodeType": 1
            }
        },
        "gasFlame": [
            {
                "children": [
                    {
                        "children": [
                            {
                                "children": [],
                                "depth": 0,
                                "name": "Initial Gas",
                                "value": 23256
                            },
                            {
                                "children": [],
                                "depth": 0,
                                "name": "Executed Gas",
                                "value": 14020
                            }
                        ],
                        "depth": -1,
                        "name": "Actual Gas Used",
                        "value": 37276
                    },
                    {
                        "children": [],
                        "depth": -1,
                        "name": "Refunded Gas",
                        "value": 0
                    }
                ],
                "depth": -2,
                "name": "Total Gas",
                "value": 37276
            }
        ],
        "isConfirmed": true,
        "mainTrace": [
            {
                "children": [
                    {
                        "children": [
                            {
                                "children": [],
                                "depth": 1,
                                "id": 1,
                                "order": 1
                            }
                        ],
                        "depth": 0,
                        "id": 0,
                        "order": 0
                    }
                ],
                "depth": -1,
                "id": -1,
                "order": -1
            }
        ],
        "mainTraceNodeCount": 2,
        "parentIdMap": {
            "0": -1,
            "1": 0
        },
        "tidyTrace": [
            {
                "children": [
                    {
                        "children": [
                            {
                                "children": [],
                                "depth": 1,
                                "id": 1,
                                "order": 1
                            }
                        ],
                        "depth": 0,
                        "id": 0,
                        "order": 0
                    }
                ],
                "depth": -1,
                "id": -1,
                "order": -1
            }
        ],
        "tidyTraceNodeCount": 2
    },
    "state_change": {
        "stateChanges": [
            {
                "address": "0x5121e348e897daef1eef23959ab290e5557cf274",
                "erc": "",
                "slots": [
                    {
                        "current": "0x000000000000000000000000000000000000000000042ddb752718694141e800",
                        "key": "0xb06acb4a5e06b1dbcd9c1273438e57068b36a9346341dc615b19c96819b8904c",
                        "prev": "0x000000000000000000000000000000000000000000042ddbc014324e57976800"
                    },
                    {
                        "current": "0x000000000000000000000000000000000000000000000000e7b41b8a71ec0000",
                        "key": "0x575fb8c04485bf670bcc69a6698d7226bdb652c6da0a29cbdee73aa15652d5c6",
                        "prev": "0x0000000000000000000000000000000000000000000000009cc701a55b968000"
                    }
                ],
                "storageVariables": [
                    {
                        "name": "balanceOf",
                        "type": "mapping(address => uint256)",
                        "value": {
                            "pairs": [
                                {
                                    "key": "0x9da1299767a3a1b20fbc9fa6158f37deb4965f50",
                                    "value": {
                                        "current": "5052258048882660000000000",
                                        "prev": "5052263447882660000000000",
                                        "typeTag": 1
                                    }
                                },
                                {
                                    "key": "0xf05cee7273f09f371fec7817ee140bb13343031d",
                                    "value": {
                                        "current": "16696000000000000000",
                                        "prev": "11297000000000000000",
                                        "typeTag": 1
                                    }
                                }
                            ],
                            "typeTag": 4
                        }
                    }
                ]
            }
        ]
    }
}