{
    "balance_change": {
        "balanceChanges": [
            {
                "account": "0x1874aeab14386a52ee40356d6c8d159c77611255",
                "assets": [
                    {
                        "address": "0xeeeeeeeeeeeeeeeeeeeeeeeeeeeeeeeeeeeeeeee",
                        "amount": "0.01",
                        "iconUrl": "https://assets.blocksec.com/image/1663669189317-3.png",
                        "isERC1155": false,
                        "isERC721": false,
                        "sign": false,
                        "value": ""
                    }
                ]
            },
            {
                "account": "0xd1ceeeeee83f8bcf3bedad437202b6154e9f5405",
                "assets": [
                    {
                        "address": "0xeeeeeeeeeeeeeeeeeeeeeeeeeeeeeeeeeeeeeeee",
                        "amount": "0.01",
                        "iconUrl": "https://assets.blocksec.com/image/1663669189317-3.png",
                        "isERC1155": false,
                        "isERC721": false,
                        "sign": true,
                        "value": ""
                    }
                ]
            }
        ]
    },
    "profile": {
        "basic_info": {
            "baseFee": "",
            "blockNumber": 8342843,
            "callData": "0x5e83b4630000000000000000000000000000000000000000000000000000000000000002000000000000000000000000000000000000000000000000000000000000000200000000000000000000000000000000000000000000000000000000007f4dfe57bc694e44cd91dd1beeb6102bf18b7747d28aabaeb2981cbce5bcfebf78197fcd8926072f3f640b01070a657620dd8af0e68a907617b6de75f0344e46aae2d5d58e3b137172fd328923a8d0f22d7c83855e969d0f6d93559c4648ff85efca1d",
            "debugEnable": true,
            "errorInfo": "",
            "eventCount": 1,
            "feeRecipient": "0x52bc44d5378309ee2abf1539bf71de1b7d7be3b5",
            "formatValue": "0.01",
            "gasLimit": 150000,
            "gasPrice": "9",
            "gasUsed": 82147,
            "intTxnCount": 1,
            "internalRevert": false,
            "internalRevertMessage": "",
            "isContractCreation": false,
            "isFlashloan": false,
            "maxFee": "",
            "nonce": 94,
            "overwritedBlockNumber": -1,
            "priorityFee": "",
            "receiver": "0xd1ceeeeee83f8bcf3bedad437202b6154e9f5405",
            "revertMessage": "",
            "sender": "0x1874aeab14386a52ee40356d6c8d159c77611255",
            "simulationEnable": true,
            "sourceTxnHash": "0xa03989aa57dc532cc4b7f3c245bf8d8fffe3b9330eb3cc64e904d47f32eeb8b7",
            "status": true,
            "timestamp": "2019-08-13T15:01:35Z",
            "transactionFee": "0.000739323",
            "txnHash": "0xa03989aa57dc532cc4b7f3c245bf8d8fffe3b9330eb3cc64e904d47f32eeb8b7",
            "txnIndex": 3,
            "type": 0,
            "value": "10000000000000000"
        },
        "fund_flow": [
            {
                "amount": "0.01",
                "from": "0x1874aeab14386a52ee40356d6c8d159c77611255",
                "id": 1,
                "isERC1155": false,
                "isERC721": false,
                "isReverted": false,
                "order": 1,
                "to": "0xd1ceeeeee83f8bcf3bedad437202b6154e9f5405",
                "token": "0xeeeeeeeeeeeeeeeeeeeeeeeeeeeeeeeeeeeeeeee"
            }
        ],
        "token_infos": [
            {
                "address": "0xeeeeeeeeeeeeeeeeeeeeeeeeeeeeeeeeeeeeeeee",
                "decimals": 18
            },
            {
                "address": "0xc02aaa39b223fe8d0a0e5c4f27ead9083c756cc2",
                "decimals": 18
            }
        ]
    },
    "address_label": {
        "labels": [
            {
                "address": "0xd1ceeeeee83f8bcf3bedad437202b6154e9f5405",
                "label": "Dice2Win"
            },
            {
                "address": "0x0000000000000000000000000000000000000001",
                "label": "Precompiled"
            },
            {
                "address": "0x0000000000000000000000000000000000000002",
                "label": "Precompiled"
            },
            {
                "address": "0x0000000000000000000000000000000000000003",
                "label": "Precompiled"
            },
            {
                "address": "0x0000000000000000000000000000000000000004",
                "label": "Precompiled"
            },
            {
                "address": "0xeeeeeeeeeeeeeeeeeeeeeeeeeeeeeeeeeeeeeeee",
                "label": "Ether"
            }
        ]
    },
    "trace": {
        "accountLabels": null,
        "dataMap": {
            "-1": {
                "invocation": {
                    "address": "0x1874aeab14386a52ee40356d6c8d159c77611255",
                    "callData": "",
                    "decodedMethod": null,
                    "errorInfo": "",
                    "fromAddress": "",
                    "gasUsed": 0,
                    "id": -1,
                    "methodDecoded": false,
                    "operation": "",
                    "output": "",
                    "revert": false,
                    "revertMessage": "",
                    "selector": "",
                    "status": false,
                    "value": ""
                },
                "nodeType": 0
            },
            "0": {
                "invocation": {
                    "address": "0xd1ceeeeee83f8bcf3bedad437202b6154e9f5405",
                    "callData": "0x0000000000000000000000000000000000000000000000000000000000000002000000000000000000000000000000000000000000000000000000000000000200000000000000000000000000000000000000000000000000000000007f4dfe57bc694e44cd91dd1beeb6102bf18b7747d28aabaeb2981cbce5bcfebf78197fcd8926072f3f640b01070a657620dd8af0e68a907617b6de75f0344e46aae2d5d58e3b137172fd328923a8d0f22d7c83855e969d0f6d93559c4648ff85efca1d",
                    "decodedMethod": {
                        "callParams": [
                            {
                                "name": "betMask",
                                "type": "uint256",
                                "value": "2"
                            },
                            {
                                "name": "modulo",
                                "type": "uint256",
                                "value": "2"
                            },
                            {
                                "name": "commitLastBlock",
                                "type": "uint256",
                                "value": "8,343,038"
                            },
                            {
                                "name": "commit",
                                "type": "uint256",
                                "value": "39,684,111,868,410,567,425,353,850,141,987,566,220,234,677,348,203,822,744,713,680,969,068,835,248,511"
                            },
                            {
                                "name": "r",
                                "type": "bytes32",
                                "value": "0xcd8926072f3f640b01070a657620dd8af0e68a907617b6de75f0344e46aae2d5"
                            },
                            {
                                "name": "s",
                                "type": "bytes32",
                                "value": "0xd58e3b137172fd328923a8d0f22d7c83855e969d0f6d93559c4648ff85efca1d"
                            }
                        ],
                        "constructorArguments": "",
                        "name": "placeBet",
                        "returnParams": [],
                        "signature": "placeBet(uint256,uint256,uint256,uint256,bytes32,bytes32)"
                    },
                    "errorInfo": "",
                    "fromAddress": "0x1874aeab14386a52ee40356d6c8d159c77611255",
                    "gasUsed": 82147,
                    "id": 0,
                    "methodDecoded": true,
                    "operation": "CALL",
                    "output": "",
                    "revert": false,
                    "revertMessage": "",
                    "selector": "0x5e83b463",
                    "status": true,
                    "value": "0.01"
                },
                "nodeType": 0
            },
            "1": {
                "invocation": {
                    "address": "0x0000000000000000000000000000000000000001",
                    "callData": "0x7e16f1eface8c2916839add68d8fe57406473f7436e3e427834c2c25000000000000000000000000000000000000000000000000000000000000001bcd8926072f3f640b01070a657620dd8af0e68a907617b6de75f0344e46aae2d5d58e3b137172fd328923a8d0f22d7c83855e969d0f6d93559c4648ff85efca1d",
                    "decodedMethod": {
                        "callParams": [
                            {
                                "name": "hash",
                                "type": "bytes32",
                                "value": "0xd1c264ce7e16f1eface8c2916839add68d8fe57406473f7436e3e427834c2c25"
                            },
                            {
                                "name": "v",
                                "type": "uint256",
                                "value": "27"
                            },
                            {
                                "name": "r",
                                "type": "bytes32",
                                "value": "0xcd8926072f3f640b01070a657620dd8af0e68a907617b6de75f0344e46aae2d5"
                            },
                            {
                                "name": "s",
                                "type": "bytes32",
                                "value": "0xd58e3b137172fd328923a8d0f22d7c83855e969d0f6d93559c4648ff85efca1d"
                            }
                        ],
                        "constructorArguments": "",
                        "name": "ecrecover",
                        "returnParams": [
                            {
                                "name": "",
                                "type": "address",
                                "value": "0xb00b5ca7ec0502f2f269e99b91ebbccbce9cccec"
                            }
                        ],
                        "signature": "ecrecover(bytes32,uint256,bytes32,bytes32)"
                    },
                    "errorInfo": "",
                    "fromAddress": "0xd1ceeeeee83f8bcf3bedad437202b6154e9f5405",
                    "gasUsed": 3000,
                    "id": 1,
                    "methodDecoded": true,
                    "operation": "CALL",
                    "output": "0x000000000000000000000000b00b5ca7ec0502f2f269e99b91ebbccbce9cccec",
                    "revert": false,
                    "revertMessage": "",
                    "selector": "0xd1c264ce",
                    "status": true,
                    "value": "0"
                },
                "nodeType": 0
            },
            "2": {
                "event": {
                    "contract": "0xd1ceeeeee83f8bcf3bedad437202b6154e9f5405",
                    "decodedLog": {
                        "name": "Commit",
                        "params": [
                            {
                                "name": "commit",
                                "type": "uint256",
                                "value": "39,684,111,868,410,567,425,353,850,141,987,566,220,234,677,348,203,822,744,713,680,969,068,835,248,511"
                            }
                        ],
                        "signature": "Commit(uint256)"
                    },
                    "id": 2,
                    "logData": "0x57bc694e44cd91dd1beeb6102bf18b7747d28aabaeb2981cbce5bcfebf78197f",
                    "logDecoded": true,
                    "operation": "EVENT",
                    "revert": false,
                    "status": true,
                    "topics": [
                        "0x5bdd2fc99022530157777690475b670d3872f32262eb1d47d9ba8000dad58f87"
                    ]
                },
                "nodeType": 1
            }
        },
        "gasFlame": [
            {
                "children": [
                    {
                        "children": [
                            {
                                "children": [],
                                "depth": 0,
                                "name": "Initial Gas",
                                "value": 28504
                            },
                            {
                                "children": [
                                    {
                                        "children": [],
                                        "depth": 1,
                                        "name": "ecrecover",
                                        "value": 3000
                                    }
                                ],
                                "depth": 0,
                                "name": "Executed Gas",
                                "value": 53643
                            }
                        ],
                        "depth": -1,
                        "name": "Actual Gas Used",
                        "value": 82147
                    },
                    {
                        "children": [],
                        "depth": -1,
                        "name": "Refunded Gas",
                        "value": 0
                    }
                ],
                "depth": -2,
                "name": "Total Gas",
                "value": 82147
            }
        ],
        "isConfirmed": true,
        "mainTrace": [
            {
                "children": [
                    {
                        "children": [
                            {
                                "children": [],
                                "depth": 1,
                                "id": 1,
                                "order": 1
                            },
                            {
                                "children": [],
                                "depth": 1,
                                "id": 2,
                                "order": 2
                            }
                        ],
                        "depth": 0,
                        "id": 0,
                        "order": 0
                    }
                ],
                "depth": -1,
                "id": -1,
                "order": -1
            }
        ],
        "mainTraceNodeCount": 3,
        "parentIdMap": {
            "0": -1,
            "1": 0,
            "2": 0
        },
        "tidyTrace": [
            {
                "children": [
                    {
                        "children": [
                            {
                                "children": [],
                                "depth": 1,
                                "id": 1,
                                "order": 1
                            },
                            {
                                "children": [],
                                "depth": 1,
                                "id": 2,
                                "order": 2
                            }
                        ],
                        "depth": 0,
                        "id": 0,
                        "order": 0
                    }
                ],
                "depth": -1,
                "id": -1,
                "order": -1
            }
        ],
        "tidyTraceNodeCount": 3
    },
    "state_change": {
        "stateChanges": [
            {
                "address": "0xd1ceeeeee83f8bcf3bedad437202b6154e9f5405",
                "erc": "",
                "slots": [
                    {
                        "current": "0x1874aeab14386a52ee40356d6c8d159c77611255000000000200007f4d3b0102",
                        "key": "0x3b5b434f7369c7032bdd28ebfff4e02853dd7b01c32d98beac80bc13952214c1",
                        "prev": "0x0000000000000000000000000000000000000000000000000000000000000000"
                    },
                    {
                        "current": "0x000000000000000000d0e649d8cb000000000000000000000258689ac70a8000",
                        "key": "0x0000000000000000000000000000000000000000000000000000000000000004",
                        "prev": "0x0000000000000000008bfa175c26800000000000000000000258689ac70a8000"
                    },
                    {
                        "current": "0x000000000000000000000000000000000000000000000000002386f26fc10000",
                        "key": "0x3b5b434f7369c7032bdd28ebfff4e02853dd7b01c32d98beac80bc13952214c0",
                        "prev": "0x0000000000000000000000000000000000000000000000000000000000000000"
                    }
                ],
                "storageVariables": [
                    {
                        "name": "bets",
                        "type": "mapping(uint256 => struct Dice2Win.Bet)",
                        "value": {
                            "pairs": [
                                {
                                    "key": "39684111868410567425353850141987566220234677348203822744713680969068835248511",
                                    "value": {
                                        "fields": [
                                            {
                                                "name": "amount",
                                                "type": "uint256",
                                                "value": {
                                                    "current": "10000000000000000",
                                                    "prev": "0",
                                                    "typeTag": 1
                                                }
                                            },
                                            {
                                                "name": "modulo",
                                                "type": "uint8",
                                                "value": {
                                                    "current": "2",
                                                    "prev": "0",
                                                    "typeTag": 1
                                                }
                                            },
                                            {
                                                "name": "rollUnder",
                                                "type": "uint8",
                                                "value": {
                                                    "current": "1",
                                                    "prev": "0",
                                                    "typeTag": 1
                                                }
                                            },
                                            {
                                                "name": "placeBlockNumber",
                                                "type": "uint40",
                                                "value": {
                                                    "current": "8342843",
                                                    "prev": "0",
                                                    "typeTag": 1
                                                }
                                            },
                                            {
                                                "name": "mask",
                                                "type": "uint40",
                                                "value": {
                                                    "current": "2",
                                                    "prev": "0",
                                                    "typeTag": 1
                                                }
                                            },
                                            {
                                                "name": "gambler",
                                                "type": "address",
                                                "value": {
                                                    "current": "0x1874aeab14386a52ee40356d6c8d159c77611255",
                                                    "prev": "0x0000000000000000000000000000000000000000",
                                                    "typeTag": 1
                                                }
                                            }
                                        ],
                                        "typeTag": 3
                                    }
                                }
                            ],
                            "typeTag": 4
                        }
                    },
                    {
                        "name": "jackpotSize",
                        "type": "uint128",
                        "value": {
                            "current": "169000000000000000",
                            "prev": "169000000000000000",
                            "typeTag": 1
                        }
                    },
                    {
                        "name": "lockedInBets",
                        "type": "uint128",
                        "value": {
                            "current": "58800000000000000",
                            "prev": "39400000000000000",
                            "typeTag": 1
                        }
                    }
                ]
            }
        ]
    }
}