{
    "balance_change": {
        "balanceChanges": [
            {
                "account": "0xfbb1b73c4f0bda4f67dca266ce6ef42f520fbb98",
                "assets": [
                    {
                        "address": "0x6810e776880c02933d47db1b9fc05908e5386b96",
                        "amount": "75.988022",
                        "iconUrl": "https://assets.blocksec.com/icon/d33574ee39c5c96cdbdfd09b51ce9cff03242b8fd03ce2392e3591da44ce617d.png",
                        "isERC1155": false,
                        "isERC721": false,
                        "sign": true,
                        "value": ""
                    }
                ]
            },
            {
                "account": "0xcebe6f61eed89e162abd3872d042ca06e1590714",
                "assets": [
                    {
                        "address": "0x6810e776880c02933d47db1b9fc05908e5386b96",
                        "amount": "75.988022",
                        "iconUrl": "https://assets.blocksec.com/icon/d33574ee39c5c96cdbdfd09b51ce9cff03242b8fd03ce2392e3591da44ce617d.png",
                        "isERC1155": false,
                        "isERC721": false,
                        "sign": false,
                        "value": ""
                    }
                ]
            }
        ]
    },
    "profile": {
        "basic_info": {
            "baseFee": "",
            "blockNumber": 4115760,
            "callData": "0x6ea056a90000000000000000000000006810e776880c02933d47db1b9fc05908e5386b960000000000000000000000000000000000000000000000041e8baf683e916000",
            "debugEnable": true,
            "errorInfo": "",
            "eventCount": 2,
            "feeRecipient": "0x1e9939daaad6924ad004c2560e90804164900341",
            "formatValue": "0",
            "gasLimit": 208501,
            "gasPrice": "51",
            "gasUsed": 43122,
            "intTxnCount": 8,
            "internalRevert": false,
            "internalRevertMessage": "",
            "isContractCreation": false,
            "isFlashloan": false,
            "maxFee": "",
            "nonce": 716290,
            "overwritedBlockNumber": -1,
            "priorityFee": "",
            "receiver": "0xcebe6f61eed89e162abd3872d042ca06e1590714",
            "revertMessage": "",
            "sender": "0xfbb1b73c4f0bda4f67dca266ce6ef42f520fbb98",
            "simulationEnable": true,
            "sourceTxnHash": "0xa0d597a44f893e89850028cc147c6e369a837aedb48d1af2315c4da3960cacce",
            "status": true,
            "timestamp": "2017-08-04T11:37:34Z",
            "transactionFee": "0.002199222",
            "txnHash": "0xa0d597a44f893e89850028cc147c6e369a837aedb48d1af2315c4da3960cacce",
            "txnIndex": 93,
            "type": 0,
            "value": "0"
        },
        "fund_flow": [
            {
                "amount": "75.988022",
                "from": "0xcebe6f61eed89e162abd3872d042ca06e1590714",
                "id": 1,
                "isERC1155": false,
                "isERC721": false,
                "isReverted": false,
                "order": 1,
                "to": "0xfbb1b73c4f0bda4f67dca266ce6ef42f520fbb98",
                "token": "0x6810e776880c02933d47db1b9fc05908e5386b96"
            }
        ],
        "token_infos": [
            {
                "address": "0x6810e776880c02933d47db1b9fc05908e5386b96",
                "decimals": 18
            },
            {
                "address": "0xc02aaa39b223fe8d0a0e5c4f27ead9083c756cc2",
                "decimals": 18
            },
            {
                "address": "0xeeeeeeeeeeeeeeeeeeeeeeeeeeeeeeeeeeeeeeee",
                "decimals": 18
            }
        ]
    },
    "address_label": {
        "labels": [
            {
                "address": "0xcebe6f61eed89e162abd3872d042ca06e1590714",
                "label": "BITTREX"
            },
            {
                "address": "0x0000000000000000000000000000000000000002",
                "label": "Precompiled"
            },
            {
                "address": "0x0000000000000000000000000000000000000003",
                "label": "Precompiled"
            },
            {
                "address": "0xeeeeeeeeeeeeeeeeeeeeeeeeeeeeeeeeeeeeeeee",
                "label": "Ether"
            },
            {
                "address": "0xfbb1b73c4f0bda4f67dca266ce6ef42f520fbb98",
                "label": "Bittrex"
            },
            {
                "address": "0x0000000000000000000000000000000000000001",
                "label": "Precompiled"
            },
            {
                "address": "0x0000000000000000000000000000000000000004",
                "label": "Precompiled"
            },
            {
                "address": "0xedce883162179d4ed5eb9bb2e7dccf494d75b3a0",
                "label": "Bittrex Controller"
            },
            {
                "address": "0x6810e776880c02933d47db1b9fc05908e5386b96",
                "label": "Gnosis: GNO Token"
            }
        ]
    },
    "trace": {
        "accountLabels": null,
        "dataMap": {
            "-1": {
                "invocation": {
                    "address": "0xfbb1b73c4f0bda4f67dca266ce6ef42f520fbb98",
                    "callData": "",
                    "decodedMethod": null,
                    "errorInfo": "",
                    "fromAddress": "",
                    "gasUsed": 0,
                    "id": -1,
                    "methodDecoded": false,
                    "operation": "",
                    "output": "",
                    "revert": false,
                    "revertMessage": "",
                    "selector": "",
                    "status": false,
                    "value": ""
                },
                "nodeType": 0
            },
            "0": {
                "invocation": {
                    "address": "0xcebe6f61eed89e162abd3872d042ca06e1590714",
                    "callData": "0x0000000000000000000000006810e776880c02933d47db1b9fc05908e5386b960000000000000000000000000000000000000000000000041e8baf683e916000",
                    "decodedMethod": {
                        "callParams": [
                            {
                                "name": "token",
                                "type": "address",
                                "value": "0x6810e776880c02933d47db1b9fc05908e5386b96"
                            },
                            {
                                "name": "amount",
                                "type": "uint256",
                                "value": "75,988,022,000,000,000,000"
                            }
                        ],
                        "constructorArguments": "",
                        "name": "sweep",
                        "returnParams": [],
                        "signature": "sweep(address,uint256)"
                    },
                    "errorInfo": "",
                    "fromAddress": "0xfbb1b73c4f0bda4f67dca266ce6ef42f520fbb98",
                    "gasUsed": 43122,
                    "id": 0,
                    "methodDecoded": true,
                    "operation": "CALL",
                    "output": "0x0000000000000000000000000000000000000000000000000000000000000001",
                    "revert": false,
                    "revertMessage": "",
                    "selector": "0x6ea056a9",
                    "status": true,
                    "value": "0"
                },
                "nodeType": 0
            },
            "1": {
                "invocation": {
                    "address": "0xedce883162179d4ed5eb9bb2e7dccf494d75b3a0",
                    "callData": "0x0000000000000000000000006810e776880c02933d47db1b9fc05908e5386b96",
                    "decodedMethod": {
                        "callParams": [
                            {
                                "name": "_token",
                                "type": "address",
                                "value": "0x6810e776880c02933d47db1b9fc05908e5386b96"
                            }
                        ],
                        "constructorArguments": "",
                        "name": "sweeperOf",
                        "returnParams": [
                            {
                                "name": "",
                                "type": "address",
                                "value": "0x88de41a34871e239c52926f920efb4eefa0f3de3"
                            }
                        ],
                        "signature": "sweeperOf(address)"
                    },
                    "errorInfo": "",
                    "fromAddress": "0xcebe6f61eed89e162abd3872d042ca06e1590714",
                    "gasUsed": 1092,
                    "id": 1,
                    "methodDecoded": true,
                    "operation": "CALL",
                    "output": "0x00000000000000000000000088de41a34871e239c52926f920efb4eefa0f3de3",
                    "revert": false,
                    "revertMessage": "",
                    "selector": "0x3c18d318",
                    "status": true,
                    "value": "0"
                },
                "nodeType": 0
            },
            "10": {
                "event": {
                    "contract": "0xedce883162179d4ed5eb9bb2e7dccf494d75b3a0",
                    "decodedLog": {
                        "name": "LogSweep",
                        "params": [
                            {
                                "name": "from",
                                "type": "address",
                                "value": "0xcebe6f61eed89e162abd3872d042ca06e1590714"
                            },
                            {
                                "name": "token",
                                "type": "address",
                                "value": "0x6810e776880c02933d47db1b9fc05908e5386b96"
                            },
                            {
                                "name": "amount",
                                "type": "uint256",
                                "value": "75,988,022,000,000,000,000"
                            }
                        ],
                        "signature": "LogSweep(address,address,uint256)"
                    },
                    "id": 10,
                    "logData": "0x000000000000000000000000cebe6f61eed89e162abd3872d042ca06e15907140000000000000000000000006810e776880c02933d47db1b9fc05908e5386b960000000000000000000000000000000000000000000000041e8baf683e916000",
                    "logDecoded": true,
                    "operation": "EVENT",
                    "revert": false,
                    "status": true,
                    "topics": [
                        "0x3ffd89314c7891190d2190d5299c9887128a3d4081cf6e41a67722cae685d296"
                    ]
                },
                "nodeType": 1
            },
            "2": {
                "invocation": {
                    "address": "0x88de41a34871e239c52926f920efb4eefa0f3de3",
                    "callData": "0x0000000000000000000000006810e776880c02933d47db1b9fc05908e5386b960000000000000000000000000000000000000000000000041e8baf683e916000",
                    "decodedMethod": {
                        "callParams": [
                            {
                                "name": "token",
                                "type": "address",
                                "value": "0x6810e776880c02933d47db1b9fc05908e5386b96"
                            },
                            {
                                "name": "amount",
                                "type": "uint256",
                                "value": "75,988,022,000,000,000,000"
                            }
                        ],
                        "constructorArguments": "",
                        "name": "sweep",
                        "returnParams": [],
                        "signature": "sweep(address,uint256)"
                    },
                    "errorInfo": "",
                    "fromAddress": "0xcebe6f61eed89e162abd3872d042ca06e1590714",
                    "gasUsed": 30578,
                    "id": 2,
                    "methodDecoded": true,
                    "operation": "DELEGATECALL",
                    "output": "0x0000000000000000000000000000000000000000000000000000000000000001",
                    "revert": false,
                    "revertMessage": "",
                    "selector": "0x6ea056a9",
                    "status": true,
                    "value": "0"
                },
                "nodeType": 0
            },
            "3": {
                "invocation": {
                    "address": "0xedce883162179d4ed5eb9bb2e7dccf494d75b3a0",
                    "callData": "0x",
                    "decodedMethod": {
                        "callParams": [],
                        "constructorArguments": "",
                        "name": "authorizedCaller",
                        "returnParams": [
                            {
                                "name": "",
                                "type": "address",
                                "value": "0xfbb1b73c4f0bda4f67dca266ce6ef42f520fbb98"
                            }
                        ],
                        "signature": "authorizedCaller()"
                    },
                    "errorInfo": "",
                    "fromAddress": "0xcebe6f61eed89e162abd3872d042ca06e1590714",
                    "gasUsed": 765,
                    "id": 3,
                    "methodDecoded": true,
                    "operation": "CALL",
                    "output": "0x000000000000000000000000fbb1b73c4f0bda4f67dca266ce6ef42f520fbb98",
                    "revert": false,
                    "revertMessage": "",
                    "selector": "0x97dc97cb",
                    "status": true,
                    "value": "0"
                },
                "nodeType": 0
            },
            "4": {
                "invocation": {
                    "address": "0xedce883162179d4ed5eb9bb2e7dccf494d75b3a0",
                    "callData": "0x",
                    "decodedMethod": {
                        "callParams": [],
                        "constructorArguments": "",
                        "name": "halted",
                        "returnParams": [
                            {
                                "name": "",
                                "type": "bool",
                                "value": false
                            }
                        ],
                        "signature": "halted()"
                    },
                    "errorInfo": "",
                    "fromAddress": "0xcebe6f61eed89e162abd3872d042ca06e1590714",
                    "gasUsed": 786,
                    "id": 4,
                    "methodDecoded": true,
                    "operation": "CALL",
                    "output": "0x0000000000000000000000000000000000000000000000000000000000000000",
                    "revert": false,
                    "revertMessage": "",
                    "selector": "0xb9b8af0b",
                    "status": true,
                    "value": "0"
                },
                "nodeType": 0
            },
            "5": {
                "invocation": {
                    "address": "0x6810e776880c02933d47db1b9fc05908e5386b96",
                    "callData": "0x000000000000000000000000cebe6f61eed89e162abd3872d042ca06e1590714",
                    "decodedMethod": {
                        "callParams": [
                            {
                                "name": "_owner",
                                "type": "address",
                                "value": "0xcebe6f61eed89e162abd3872d042ca06e1590714"
                            }
                        ],
                        "constructorArguments": "",
                        "name": "balanceOf",
                        "returnParams": [
                            {
                                "decimalAvailable": true,
                                "name": "",
                                "type": "uint256",
                                "value": "75,988,022,000,000,000,000"
                            }
                        ],
                        "signature": "balanceOf(address)"
                    },
                    "errorInfo": "",
                    "fromAddress": "0xcebe6f61eed89e162abd3872d042ca06e1590714",
                    "gasUsed": 637,
                    "id": 5,
                    "methodDecoded": true,
                    "operation": "CALL",
                    "output": "0x0000000000000000000000000000000000000000000000041e8baf683e916000",
                    "revert": false,
                    "revertMessage": "",
                    "selector": "0x70a08231",
                    "status": true,
                    "value": "0"
                },
                "nodeType": 0
            },
            "6": {
                "invocation": {
                    "address": "0xedce883162179d4ed5eb9bb2e7dccf494d75b3a0",
                    "callData": "0x",
                    "decodedMethod": {
                        "callParams": [],
                        "constructorArguments": "",
                        "name": "destination",
                        "returnParams": [
                            {
                                "name": "",
                                "type": "address",
                                "value": "0xfbb1b73c4f0bda4f67dca266ce6ef42f520fbb98"
                            }
                        ],
                        "signature": "destination()"
                    },
                    "errorInfo": "",
                    "fromAddress": "0xcebe6f61eed89e162abd3872d042ca06e1590714",
                    "gasUsed": 831,
                    "id": 6,
                    "methodDecoded": true,
                    "operation": "CALL",
                    "output": "0x000000000000000000000000fbb1b73c4f0bda4f67dca266ce6ef42f520fbb98",
                    "revert": false,
                    "revertMessage": "",
                    "selector": "0xb269681d",
                    "status": true,
                    "value": "0"
                },
                "nodeType": 0
            },
            "7": {
                "invocation": {
                    "address": "0x6810e776880c02933d47db1b9fc05908e5386b96",
                    "callData": "0x000000000000000000000000fbb1b73c4f0bda4f67dca266ce6ef42f520fbb980000000000000000000000000000000000000000000000041e8baf683e916000",
                    "decodedMethod": {
                        "callParams": [
                            {
                                "name": "_to",
                                "type": "address",
                                "value": "0xfbb1b73c4f0bda4f67dca266ce6ef42f520fbb98"
                            },
                            {
                                "decimalAvailable": true,
                                "name": "_value",
                                "type": "uint256",
                                "value": "75,988,022,000,000,000,000"
                            }
                        ],
                        "constructorArguments": "",
                        "name": "transfer",
                        "returnParams": [
                            {
                                "name": "",
                                "type": "bool",
                                "value": true
                            }
                        ],
                        "signature": "transfer(address,uint256)"
                    },
                    "errorInfo": "",
                    "fromAddress": "0xcebe6f61eed89e162abd3872d042ca06e1590714",
                    "gasUsed": 13217,
                    "id": 7,
                    "methodDecoded": true,
                    "operation": "CALL",
                    "output": "0x0000000000000000000000000000000000000000000000000000000000000001",
                    "revert": false,
                    "revertMessage": "",
                    "selector": "0xa9059cbb",
                    "status": true,
                    "value": "0"
                },
                "nodeType": 0
            },
            "8": {
                "event": {
                    "contract": "0x6810e776880c02933d47db1b9fc05908e5386b96",
                    "decodedLog": {
                        "name": "Transfer",
                        "params": [
                            {
                                "name": "from",
                                "type": "address",
                                "value": "0xcebe6f61eed89e162abd3872d042ca06e1590714"
                            },
                            {
                                "name": "to",
                                "type": "address",
                                "value": "0xfbb1b73c4f0bda4f67dca266ce6ef42f520fbb98"
                            },
                            {
                                "decimalAvailable": true,
                                "name": "value",
                                "type": "uint256",
                                "value": "75,988,022,000,000,000,000"
                            }
                        ],
                        "signature": "Transfer(address,address,uint256)"
                    },
                    "id": 8,
                    "logData": "0x0000000000000000000000000000000000000000000000041e8baf683e916000",
                    "logDecoded": true,
                    "operation": "EVENT",
                    "revert": false,
                    "status": true,
                    "topics": [
                        "0xddf252ad1be2c89b69c2b068fc378daa952ba7f163c4a11628f55a4df523b3ef",
                        "0x000000000000000000000000cebe6f61eed89e162abd3872d042ca06e1590714",
                        "0x000000000000000000000000fbb1b73c4f0bda4f67dca266ce6ef42f520fbb98"
                    ]
                },
                "nodeType": 1
            },
            "9": {
                "invocation": {
                    "address": "0xedce883162179d4ed5eb9bb2e7dccf494d75b3a0",
                    "callData": "0x000000000000000000000000cebe6f61eed89e162abd3872d042ca06e15907140000000000000000000000006810e776880c02933d47db1b9fc05908e5386b960000000000000000000000000000000000000000000000041e8baf683e916000",
                    "decodedMethod": {
                        "callParams": [
                            {
                                "name": "from",
                                "type": "address",
                                "value": "0xcebe6f61eed89e162abd3872d042ca06e1590714"
                            },
                            {
                                "name": "token",
                                "type": "address",
                                "value": "0x6810e776880c02933d47db1b9fc05908e5386b96"
                            },
                            {
                                "name": "amount",
                                "type": "uint256",
                                "value": "75,988,022,000,000,000,000"
                            }
                        ],
                        "constructorArguments": "",
                        "name": "logSweep",
                        "returnParams": [],
                        "signature": "logSweep(address,address,uint256)"
                    },
                    "errorInfo": "",
                    "fromAddress": "0xcebe6f61eed89e162abd3872d042ca06e1590714",
                    "gasUsed": 2093,
                    "id": 9,
                    "methodDecoded": true,
                    "operation": "CALL",
                    "output": "",
                    "revert": false,
                    "revertMessage": "",
                    "selector": "0x764358e6",
                    "status": true,
                    "value": "0"
                },
                "nodeType": 0
            }
        },
        "gasFlame": [
            {
                "children": [
                    {
                        "children": [
                            {
                                "children": [],
                                "depth": 0,
                                "name": "Initial Gas",
                                "value": 23320
                            },
                            {
                                "children": [
                                    {
                                        "children": [],
                                        "depth": 1,
                                        "name": "sweeperOf",
                                        "value": 1092
                                    },
                                    {
                                        "children": [
                                            {
                                                "children": [],
                                                "depth": 2,
                                                "name": "authorizedCaller",
                                                "value": 765
                                            },
                                            {
                                                "children": [],
                                                "depth": 2,
                                                "name": "halted",
                                                "value": 786
                                            },
                                            {
                                                "children": [],
                                                "depth": 2,
                                                "name": "balanceOf",
                                                "value": 637
                                            },
                                            {
                                                "children": [],
                                                "depth": 2,
                                                "name": "destination",
                                                "value": 831
                                            },
                                            {
                                                "children": [],
                                                "depth": 2,
                                                "name": "transfer",
                                                "value": 13217
                                            },
                                            {
                                                "children": [],
                                                "depth": 2,
                                                "name": "logSweep",
                                                "value": 2093
                                            }
                                        ],
                                        "depth": 1,
                                        "name": "sweep",
                                        "value": 30578
                                    }
                                ],
                                "depth": 0,
                                "name": "Executed Gas",
                                "value": 34802
                            }
                        ],
                        "depth": -1,
                        "name": "Actual Gas Used",
                        "value": 43122
                    },
                    {
                        "children": [],
                        "depth": -1,
                        "name": "Refunded Gas",
                        "value": 15000
                    }
                ],
                "depth": -2,
                "name": "Total Gas",
                "value": 58122
            }
        ],
        "isConfirmed": true,
        "mainTrace": [
            {
                "children": [
                    {
                        "children": [
                            {
                                "children": [],
                                "depth": 1,
                                "id": 1,
                                "order": 1
                            },
                            {
                                "children": [
                                    {
                                        "children": [],
                                        "depth": 2,
                                        "id": 3,
                                        "order": 3
                                    },
                                    {
                                        "children": [],
                                        "depth": 2,
                                        "id": 4,
                                        "order": 4
                                    },
                                    {
                                        "children": [],
                                        "depth": 2,
                                        "id": 5,
                                        "order": 5
                                    },
                                    {
                                        "children": [],
                                        "depth": 2,
                                        "id": 6,
                                        "order": 6
                                    },
                                    {
                                        "children": [
                                            {
                                                "children": [],
                                                "depth": 3,
                                                "id": 8,
                                                "order": 8
                                            }
                                        ],
                                        "depth": 2,
                                        "id": 7,
                                        "order": 7
                                    },
                                    {
                                        "children": [
                                            {
                                                "children": [],
                                                "depth": 3,
                                                "id": 10,
                                                "order": 10
                                            }
                                        ],
                                        "depth": 2,
                                        "id": 9,
                                        "order": 9
                                    }
                                ],
                                "depth": 1,
                                "id": 2,
                                "order": 2
                            }
                        ],
                        "depth": 0,
                        "id": 0,
                        "order": 0
                    }
                ],
                "depth": -1,
                "id": -1,
                "order": -1
            }
        ],
        "mainTraceNodeCount": 11,
        "parentIdMap": {
            "0": -1,
            "1": 0,
            "10": 9,
            "2": 0,
            "3": 2,
            "4": 2,
            "5": 2,
            "6": 2,
            "7": 2,
            "8": 7,
            "9": 2
        },
        "tidyTrace": [
            {
                "children": [
                    {
                        "children": [
                            {
                                "children": [],
                                "depth": 1,
                                "id": 1,
                                "order": 1
                            },
                            {
                                "children": [
                                    {
                                        "children": [],
                                        "depth": 2,
                                        "id": 3,
                                        "order": 3
                                    },
                                    {
                                        "children": [],
                                        "depth": 2,
                                        "id": 4,
                                        "order": 4
                                    },
                                    {
                                        "children": [],
                                        "depth": 2,
                                        "id": 5,
                                        "order": 5
                                    },
                                    {
                                        "children": [],
                                        "depth": 2,
                                        "id": 6,
                                        "order": 6
                                    },
                                    {
                                        "children": [
                                            {
                                                "children": [],
                                                "depth": 3,
                                                "id": 8,
                                                "order": 8
                                            }
                                        ],
                                        "depth": 2,
                                        "id": 7,
                                        "order": 7
                                    },
                                    {
                                        "children": [
                                            {
                                                "children": [],
                                                "depth": 3,
                                                "id": 10,
                                                "order": 10
                                            }
                                        ],
                                        "depth": 2,
                                        "id": 9,
                                        "order": 9
                                    }
                                ],
                                "depth": 1,
                                "id": 2,
                                "order": 2
                            }
                        ],
                        "depth": 0,
                        "id": 0,
                        "order": 0
                    }
                ],
                "depth": -1,
                "id": -1,
                "order": -1
            }
        ],
        "tidyTraceNodeCount": 11
    },
    "state_change": {
        "stateChanges": [
            {
                "address": "0x6810e776880c02933d47db1b9fc05908e5386b96",
                "erc": "ERC-20",
                "slots": [
                    {
                        "current": "0x0000000000000000000000000000000000000000000000000000000000000000",
                        "key": "0xc9cb8e7e52cb3784f96bb0ecd2231b45ec7efcc821f47e92e3d8c21a2e8e4988",
                        "prev": "0x0000000000000000000000000000000000000000000000041e8baf683e916000"
                    },
                    {
                        "current": "0x0000000000000000000000000000000000000000000001aa29b2c99d819b0800",
                        "key": "0x36ade940784f9137a5fb2fc91e9d24433e995d4fecfa6710c692a54c9ad82f1b",
                        "prev": "0x0000000000000000000000000000000000000000000001a60b271a354309a800"
                    }
                ],
                "storageVariables": []
            }
        ]
    }
}