{
    "balance_change": {
        "balanceChanges": [
            {
                "account": "0x5f8215ee653cb7225c741c7aa8591468d1f158b8",
                "assets": [
                    {
                        "address": "0x6de037ef9ad2725eb40118bb1702ebb27e4aeb24",
                        "amount": "9,561.43709173",
                        "iconUrl": "https://assets.blocksec.com/icon/6c26f87685a6412859bba1e0c89004d66add895d445c9f5310994f4fa8be5731.png",
                        "isERC1155": false,
                        "isERC721": false,
                        "sign": false,
                        "value": "96188.05714552000475"
                    }
                ]
            },
            {
                "account": "0x6cc5f688a315f3dc28a7781717a9a798a59fda7b",
                "assets": [
                    {
                        "address": "0x6de037ef9ad2725eb40118bb1702ebb27e4aeb24",
                        "amount": "9,561.43709173",
                        "iconUrl": "https://assets.blocksec.com/icon/6c26f87685a6412859bba1e0c89004d66add895d445c9f5310994f4fa8be5731.png",
                        "isERC1155": false,
                        "isERC721": false,
                        "sign": true,
                        "value": "96188.05714552000475"
                    }
                ]
            }
        ]
    },
    "profile": {
        "basic_info": {
            "baseFee": "5.322963246",
            "blockNumber": 19882144,
            "callData": "0xa9059cbb0000000000000000000000006cc5f688a315f3dc28a7781717a9a798a59fda7b000000000000000000000000000000000000000000000206539858437aad3400",
            "debugEnable": true,
            "errorInfo": "",
            "eventCount": 1,
            "feeRecipient": "0x95222290dd7278aa3ddd389cc1e1d165cc4bafe5",
            "formatValue": "0",
            "gasLimit": 55000,
            "gasPrice": "7.322963246",
            "gasUsed": 37508,
            "intTxnCount": 1,
            "internalRevert": false,
            "internalRevertMessage": "",
            "isContractCreation": false,
            "isFlashloan": false,
            "maxFee": "10",
            "nonce": 25450,
            "overwritedBlockNumber": -1,
            "priorityFee": "2",
            "receiver": "0x6de037ef9ad2725eb40118bb1702ebb27e4aeb24",
            "revertMessage": "",
            "sender": "0x5f8215ee653cb7225c741c7aa8591468d1f158b8",
            "simulationEnable": true,
            "sourceTxnHash": "0xa0b978c8cbb7eae10d86ae639749d94106853ea69bfefd6d6ac30f7590c10d85",
            "status": true,
            "timestamp": "2024-05-16T11:08:59Z",
            "transactionFee": "0.000274669705430968",
            "txnHash": "0xa0b978c8cbb7eae10d86ae639749d94106853ea69bfefd6d6ac30f7590c10d85",
            "txnIndex": 44,
            "type": 2,
            "value": "0"
        },
        "fund_flow": [
            {
                "amount": "9,561.43709173",
                "from": "0x5f8215ee653cb7225c741c7aa8591468d1f158b8",
                "id": 1,
                "isERC1155": false,
                "isERC721": false,
                "isReverted": false,
                "order": 1,
                "to": "0x6cc5f688a315f3dc28a7781717a9a798a59fda7b",
                "token": "0x6de037ef9ad2725eb40118bb1702ebb27e4aeb24"
            }
        ],
        "token_infos": [
            {
                "address": "0x6de037ef9ad2725eb40118bb1702ebb27e4aeb24",
                "decimals": 18
            },
            {
                "address": "0xc02aaa39b223fe8d0a0e5c4f27ead9083c756cc2",
                "decimals": 18
            },
            {
                "address": "0xeeeeeeeeeeeeeeeeeeeeeeeeeeeeeeeeeeeeeeee",
                "decimals": 18
            }
        ]
    },
    "address_label": {
        "labels": [
            {
                "address": "0x0000000000000000000000000000000000000003",
                "label": "Precompiled"
            },
            {
                "address": "0x0000000000000000000000000000000000000004",
                "label": "Precompiled"
            },
            {
                "address": "0x1a1fdf27c5e6784d1cebf256a8a5cc0877e73af0",
                "label": "Render Token (RNDR)"
            },
            {
                "address": "0x0000000000000000000000000000000000000001",
                "label": "Precompiled"
            },
            {
                "address": "0x6cc5f688a315f3dc28a7781717a9a798a59fda7b",
                "label": "OKX"
            },
            {
                "address": "0x6de037ef9ad2725eb40118bb1702ebb27e4aeb24",
                "label": "Render : RNDR Token"
            },
            {
                "address": "0x0000000000000000000000000000000000000002",
                "label": "Precompiled"
            },
            {
                "address": "0xeeeeeeeeeeeeeeeeeeeeeeeeeeeeeeeeeeeeeeee",
                "label": "Ether"
            },
            {
                "address": "0x5f8215ee653cb7225c741c7aa8591468d1f158b8",
                "label": "OKX 109"
            }
        ]
    },
    "trace": {
        "accountLabels": null,
        "dataMap": {
            "-1": {
                "invocation": {
                    "address": "0x5f8215ee653cb7225c741c7aa8591468d1f158b8",
                    "callData": "",
                    "decodedMethod": null,
                    "errorInfo": "",
                    "fromAddress": "",
                    "gasUsed": 0,
                    "id": -1,
                    "methodDecoded": false,
                    "operation": "",
                    "output": "",
                    "revert": false,
                    "revertMessage": "",
                    "selector": "",
                    "status": false,
                    "value": ""
                },
                "nodeType": 0
            },
            "0": {
                "invocation": {
                    "address": "0x6de037ef9ad2725eb40118bb1702ebb27e4aeb24",
                    "callData": "0x0000000000000000000000006cc5f688a315f3dc28a7781717a9a798a59fda7b000000000000000000000000000000000000000000000206539858437aad3400",
                    "decodedMethod": {
                        "callParams": [
                            {
                                "name": "_to",
                                "type": "address",
                                "value": "0x6cc5f688a315f3dc28a7781717a9a798a59fda7b"
                            },
                            {
                                "decimalAvailable": true,
                                "name": "_value",
                                "type": "uint256",
                                "value": "9,561,437,091,730,000,000,000"
                            }
                        ],
                        "constructorArguments": "",
                        "name": "transfer",
                        "returnParams": [
                            {
                                "name": "",
                                "type": "bool",
                                "value": true
                            }
                        ],
                        "signature": "transfer(address,uint256)"
                    },
                    "errorInfo": "",
                    "fromAddress": "0x5f8215ee653cb7225c741c7aa8591468d1f158b8",
                    "gasUsed": 37508,
                    "id": 0,
                    "methodDecoded": true,
                    "operation": "CALL",
                    "output": "0x0000000000000000000000000000000000000000000000000000000000000001",
                    "revert": false,
                    "revertMessage": "",
                    "selector": "0xa9059cbb",
                    "status": true,
                    "value": "0"
                },
                "nodeType": 0
            },
            "1": {
                "invocation": {
                    "address": "0x1a1fdf27c5e6784d1cebf256a8a5cc0877e73af0",
                    "callData": "0x0000000000000000000000006cc5f688a315f3dc28a7781717a9a798a59fda7b000000000000000000000000000000000000000000000206539858437aad3400",
                    "decodedMethod": {
                        "callParams": [
                            {
                                "name": "_to",
                                "type": "address",
                                "value": "0x6cc5f688a315f3dc28a7781717a9a798a59fda7b"
                            },
                            {
                                "decimalAvailable": true,
                                "name": "_value",
                                "type": "uint256",
                                "value": "9,561,437,091,730,000,000,000"
                            }
                        ],
                        "constructorArguments": "",
                        "name": "transfer",
                        "returnParams": [
                            {
                                "name": "",
                                "type": "bool",
                                "value": true
                            }
                        ],
                        "signature": "transfer(address,uint256)"
                    },
                    "errorInfo": "",
                    "fromAddress": "0x6de037ef9ad2725eb40118bb1702ebb27e4aeb24",
                    "gasUsed": 13351,
                    "id": 1,
                    "methodDecoded": true,
                    "operation": "DELEGATECALL",
                    "output": "0x0000000000000000000000000000000000000000000000000000000000000001",
                    "revert": false,
                    "revertMessage": "",
                    "selector": "0xa9059cbb",
                    "status": true,
                    "value": "0"
                },
                "nodeType": 0
            },
            "2": {
                "event": {
                    "contract": "0x6de037ef9ad2725eb40118bb1702ebb27e4aeb24",
                    "decodedLog": {
                        "name": "Transfer",
                        "params": [
                            {
                                "name": "from",
                                "type": "address",
                                "value": "0x5f8215ee653cb7225c741c7aa8591468d1f158b8"
                            },
                            {
                                "name": "to",
                                "type": "address",
                                "value": "0x6cc5f688a315f3dc28a7781717a9a798a59fda7b"
                            },
                            {
                                "decimalAvailable": true,
                                "name": "value",
                                "type": "uint256",
                                "value": "9,561,437,091,730,000,000,000"
                            }
                        ],
                        "signature": "Transfer(address,address,uint256)"
                    },
                    "id": 2,
                    "logData": "0x000000000000000000000000000000000000000000000206539858437aad3400",
                    "logDecoded": true,
                    "operation": "EVENT",
                    "revert": false,
                    "status": true,
                    "topics": [
                        "0xddf252ad1be2c89b69c2b068fc378daa952ba7f163c4a11628f55a4df523b3ef",
                        "0x0000000000000000000000005f8215ee653cb7225c741c7aa8591468d1f158b8",
                        "0x0000000000000000000000006cc5f688a315f3dc28a7781717a9a798a59fda7b"
                    ]
                },
                "nodeType": 1
            }
        },
        "gasFlame": [
            {
                "children": [
                    {
                        "children": [
                            {
                                "children": [],
                                "depth": 0,
                                "name": "Initial Gas",
                                "value": 21668
                            },
                            {
                                "children": [
                                    {
                                        "children": [],
                                        "depth": 1,
                                        "name": "transfer",
                                        "value": 13351
                                    }
                                ],
                                "depth": 0,
                                "name": "Executed Gas",
                                "value": 20640
                            }
                        ],
                        "depth": -1,
                        "name": "Actual Gas Used",
                        "value": 37508
                    },
                    {
                        "children": [],
                        "depth": -1,
                        "name": "Refunded Gas",
                        "value": 4800
                    }
                ],
                "depth": -2,
                "name": "Total Gas",
                "value": 42308
            }
        ],
        "isConfirmed": true,
        "mainTrace": [
            {
                "children": [
                    {
                        "children": [
                            {
                                "children": [
                                    {
                                        "children": [],
                                        "depth": 2,
                                        "id": 2,
                                        "order": 2
                                    }
                                ],
                                "depth": 1,
                                "id": 1,
                                "order": 1
                            }
                        ],
                        "depth": 0,
                        "id": 0,
                        "order": 0
                    }
                ],
                "depth": -1,
                "id": -1,
                "order": -1
            }
        ],
        "mainTraceNodeCount": 3,
        "parentIdMap": {
            "0": -1,
            "1": 0,
            "2": 1
        },
        "tidyTrace": [
            {
                "children": [
                    {
                        "children": [
                            {
                                "children": [
                                    {
                                        "children": [],
                                        "depth": 2,
                                        "id": 2,
                                        "order": 2
                                    }
                                ],
                                "depth": 1,
                                "id": 1,
                                "order": 1
                            }
                        ],
                        "depth": 0,
                        "id": 0,
                        "order": 0
                    }
                ],
                "depth": -1,
                "id": -1,
                "order": -1
            }
        ],
        "tidyTraceNodeCount": 3
    },
    "state_change": {
        "stateChanges": [
            {
                "address": "0x6de037ef9ad2725eb40118bb1702ebb27e4aeb24",
                "erc": "ERC-20",
                "slots": [
                    {
                        "current": "0x0000000000000000000000000000000000000000000000000000000000000000",
                        "key": "0x6463ffe21453a068c5f1a223e2aabb96f90f4e1090ed7ae2749bf371e7fd85f5",
                        "prev": "0x000000000000000000000000000000000000000000000206539858437aad3400"
                    },
                    {
                        "current": "0x000000000000000000000000000000000000000000040c28a9d7d53cb8b9bc00",
                        "key": "0x8a218ec5a587db7304f129476013c33a17714948651ee146dc8afbd43ab5133e",
                        "prev": "0x000000000000000000000000000000000000000000040a22563f7cf93e0c8800"
                    }
                ],
                "storageVariables": [
                    {
                        "name": "balances",
                        "type": "mapping(address => uint256)",
                        "value": {
                            "pairs": [
                                {
                                    "key": "0x5f8215ee653cb7225c741c7aa8591468d1f158b8",
                                    "value": {
                                        "current": "0",
                                        "prev": "9561437091730000000000",
                                        "typeTag": 1
                                    }
                                },
                                {
                                    "key": "0x6cc5f688a315f3dc28a7781717a9a798a59fda7b",
                                    "value": {
                                        "current": "4893121784500870000000000",
                                        "prev": "4883560347409140000000000",
                                        "typeTag": 1
                                    }
                                }
                            ],
                            "typeTag": 4
                        }
                    }
                ]
            }
        ]
    }
}