{
    "balance_change": {
        "balanceChanges": [
            {
                "account": "0x364d1b6b88eac4d931ab0b43157c801b80036dd8",
                "assets": [
                    {
                        "address": "0x5f4a54e29ccb8a02cdf7d7bfa8a0999a8330cced",
                        "amount": "1",
                        "iconUrl": "",
                        "isERC1155": false,
                        "isERC721": true,
                        "sign": false,
                        "tokenID": "17096",
                        "value": ""
                    },
                    {
                        "address": "0xfe8c6d19365453d26af321d0e8c910428c23873f",
                        "amount": "1",
                        "iconUrl": "",
                        "isERC1155": false,
                        "isERC721": true,
                        "sign": false,
                        "tokenID": "8405",
                        "value": ""
                    },
                    {
                        "address": "0x5f4a54e29ccb8a02cdf7d7bfa8a0999a8330cced",
                        "amount": "1",
                        "iconUrl": "",
                        "isERC1155": false,
                        "isERC721": true,
                        "sign": false,
                        "tokenID": "17094",
                        "value": ""
                    },
                    {
                        "address": "0x5f4a54e29ccb8a02cdf7d7bfa8a0999a8330cced",
                        "amount": "1",
                        "iconUrl": "",
                        "isERC1155": false,
                        "isERC721": true,
                        "sign": false,
                        "tokenID": "17095",
                        "value": ""
                    }
                ]
            },
            {
                "account": "0x3a425cc1d9b4b6116f7d86ea5dad5fe6f629fb1d",
                "assets": [
                    {
                        "address": "0xfe8c6d19365453d26af321d0e8c910428c23873f",
                        "amount": "1",
                        "iconUrl": "",
                        "isERC1155": false,
                        "isERC721": true,
                        "sign": true,
                        "tokenID": "8405",
                        "value": ""
                    },
                    {
                        "address": "0x5f4a54e29ccb8a02cdf7d7bfa8a0999a8330cced",
                        "amount": "1",
                        "iconUrl": "",
                        "isERC1155": false,
                        "isERC721": true,
                        "sign": true,
                        "tokenID": "17094",
                        "value": ""
                    },
                    {
                        "address": "0x5f4a54e29ccb8a02cdf7d7bfa8a0999a8330cced",
                        "amount": "1",
                        "iconUrl": "",
                        "isERC1155": false,
                        "isERC721": true,
                        "sign": true,
                        "tokenID": "17095",
                        "value": ""
                    },
                    {
                        "address": "0x5f4a54e29ccb8a02cdf7d7bfa8a0999a8330cced",
                        "amount": "1",
                        "iconUrl": "",
                        "isERC1155": false,
                        "isERC721": true,
                        "sign": true,
                        "tokenID": "17096",
                        "value": ""
                    }
                ]
            }
        ]
    },
    "profile": {
        "basic_info": {
            "baseFee": "128.0896586",
            "blockNumber": 14049200,
            "callData": "0x3f801f91000000000000000000000000c99f70bfd82fb7c8f8191fdfbfb735606b15e5c500000000000000000000000000000000000000000000000000000000000000010000000000000000000000000000000000000000000000000000000000000060000000000000000000000000000000000000000000000000000000000000042468f0bcaa0000000000000000000000000000000000000000000000000000000000000080000000000000000000000000000000000000000000000000000000000000012000000000000000000000000000000000000000000000000000000000000001c000000000000000000000000000000000000000000000000000000000000002600000000000000000000000000000000000000000000000000000000000000004000000000000000000000000fe8c6d19365453d26af321d0e8c910428c23873f0000000000000000000000005f4a54e29ccb8a02cdf7d7bfa8a0999a8330cced0000000000000000000000005f4a54e29ccb8a02cdf7d7bfa8a0999a8330cced0000000000000000000000005f4a54e29ccb8a02cdf7d7bfa8a0999a8330cced0000000000000000000000000000000000000000000000000000000000000004000000000000000000000000000000000000000000000000000000000000000000000000000000000000000000000000000000000000000000000000000000000000000000000000000000000000000000000000000000000000000000000000000000000000000000000000000000000000000000000000000000000000000000000000000000000000000000000000000000000000000000000000000000040000000000000000000000000000000000000000000000000000000000000064000000000000000000000000000000000000000000000000000000000000006400000000000000000000000000000000000000000000000000000000000000640000000000000000000000000000000000000000000000000000000000000064000000000000000000000000000000000000000000000000000000000000019023b872dd000000000000000000000000364d1b6b88eac4d931ab0b43157c801b80036dd80000000000000000000000003a425cc1d9b4b6116f7d86ea5dad5fe6f629fb1d00000000000000000000000000000000000000000000000000000000000020d523b872dd000000000000000000000000364d1b6b88eac4d931ab0b43157c801b80036dd80000000000000000000000003a425cc1d9b4b6116f7d86ea5dad5fe6f629fb1d00000000000000000000000000000000000000000000000000000000000042c623b872dd000000000000000000000000364d1b6b88eac4d931ab0b43157c801b80036dd80000000000000000000000003a425cc1d9b4b6116f7d86ea5dad5fe6f629fb1d00000000000000000000000000000000000000000000000000000000000042c723b872dd000000000000000000000000364d1b6b88eac4d931ab0b43157c801b80036dd80000000000000000000000003a425cc1d9b4b6116f7d86ea5dad5fe6f629fb1d00000000000000000000000000000000000000000000000000000000000042c80000000000000000000000000000000000000000000000000000000000000000000000000000000000000000",
            "debugEnable": true,
            "errorInfo": "",
            "eventCount": 8,
            "feeRecipient": "0x3ecef08d0e2dad803847e052249bb4f8bff2d5bb",
            "formatValue": "0",
            "gasLimit": 262940,
            "gasPrice": "129.5896586",
            "gasUsed": 221615,
            "intTxnCount": 6,
            "internalRevert": false,
            "internalRevertMessage": "",
            "isContractCreation": false,
            "isFlashloan": false,
            "maxFee": "136.537142282",
            "nonce": 11,
            "overwritedBlockNumber": -1,
            "priorityFee": "1.5",
            "receiver": "0xfd7b54bf7f77c2836a5a30fac0fa964014235ee7",
            "revertMessage": "",
            "sender": "0x364d1b6b88eac4d931ab0b43157c801b80036dd8",
            "simulationEnable": true,
            "sourceTxnHash": "0xa009fe555cae761339afcadb85003f9394863850b41a1cc46a556506cf94853b",
            "status": true,
            "timestamp": "2022-01-21T13:33:07Z",
            "transactionFee": "0.028719012190639",
            "txnHash": "0xa009fe555cae761339afcadb85003f9394863850b41a1cc46a556506cf94853b",
            "txnIndex": 146,
            "type": 2,
            "value": "0"
        },
        "fund_flow": [
            {
                "amount": "1",
                "from": "0x364d1b6b88eac4d931ab0b43157c801b80036dd8",
                "id": 1,
                "isERC1155": false,
                "isERC721": true,
                "isReverted": false,
                "order": 1,
                "to": "0x3a425cc1d9b4b6116f7d86ea5dad5fe6f629fb1d",
                "token": "0xfe8c6d19365453d26af321d0e8c910428c23873f",
                "tokenID": "8405"
            },
            {
                "amount": "1",
                "from": "0x364d1b6b88eac4d931ab0b43157c801b80036dd8",
                "id": 2,
                "isERC1155": false,
                "isERC721": true,
                "isReverted": false,
                "order": 2,
                "to": "0x3a425cc1d9b4b6116f7d86ea5dad5fe6f629fb1d",
                "token": "0x5f4a54e29ccb8a02cdf7d7bfa8a0999a8330cced",
                "tokenID": "17094"
            },
            {
                "amount": "1",
                "from": "0x364d1b6b88eac4d931ab0b43157c801b80036dd8",
                "id": 3,
                "isERC1155": false,
                "isERC721": true,
                "isReverted": false,
                "order": 3,
                "to": "0x3a425cc1d9b4b6116f7d86ea5dad5fe6f629fb1d",
                "token": "0x5f4a54e29ccb8a02cdf7d7bfa8a0999a8330cced",
                "tokenID": "17095"
            },
            {
                "amount": "1",
                "from": "0x364d1b6b88eac4d931ab0b43157c801b80036dd8",
                "id": 4,
                "isERC1155": false,
                "isERC721": true,
                "isReverted": false,
                "order": 4,
                "to": "0x3a425cc1d9b4b6116f7d86ea5dad5fe6f629fb1d",
                "token": "0x5f4a54e29ccb8a02cdf7d7bfa8a0999a8330cced",
                "tokenID": "17096"
            }
        ],
        "token_infos": [
            {
                "address": "0xc02aaa39b223fe8d0a0e5c4f27ead9083c756cc2",
                "decimals": 18
            },
            {
                "address": "0xeeeeeeeeeeeeeeeeeeeeeeeeeeeeeeeeeeeeeeee",
                "decimals": 18
            }
        ]
    },
    "address_label": {
        "labels": [
            {
                "address": "0xc99f70bfd82fb7c8f8191fdfbfb735606b15e5c5",
                "label": "WyvernAtomicizer"
            },
            {
                "address": "0xf9e266af4bca5890e2781812cc6a6e89495a79f2",
                "label": "AuthenticatedProxy"
            },
            {
                "address": "0xfd7b54bf7f77c2836a5a30fac0fa964014235ee7",
                "label": "OwnableDelegateProxy"
            },
            {
                "address": "0x0000000000000000000000000000000000000001",
                "label": "Precompiled"
            },
            {
                "address": "0x0000000000000000000000000000000000000003",
                "label": "Precompiled"
            },
            {
                "address": "0xeeeeeeeeeeeeeeeeeeeeeeeeeeeeeeeeeeeeeeee",
                "label": "Ether"
            },
            {
                "address": "0x5f4a54e29ccb8a02cdf7d7bfa8a0999a8330cced",
                "label": "Creepz: ARMS Token"
            },
            {
                "address": "0xfe8c6d19365453d26af321d0e8c910428c23873f",
                "label": "Creepz: CBC Token"
            },
            {
                "address": "0x0000000000000000000000000000000000000002",
                "label": "Precompiled"
            },
            {
                "address": "0x0000000000000000000000000000000000000004",
                "label": "Precompiled"
            }
        ]
    },
    "trace": {
        "accountLabels": null,
        "dataMap": {
            "-1": {
                "invocation": {
                    "address": "0x364d1b6b88eac4d931ab0b43157c801b80036dd8",
                    "callData": "",
                    "decodedMethod": null,
                    "errorInfo": "",
                    "fromAddress": "",
                    "gasUsed": 0,
                    "id": -1,
                    "methodDecoded": false,
                    "operation": "",
                    "output": "",
                    "revert": false,
                    "revertMessage": "",
                    "selector": "",
                    "status": false,
                    "value": ""
                },
                "nodeType": 0
            },
            "0": {
                "invocation": {
                    "address": "0xfd7b54bf7f77c2836a5a30fac0fa964014235ee7",
                    "callData": "0x000000000000000000000000c99f70bfd82fb7c8f8191fdfbfb735606b15e5c500000000000000000000000000000000000000000000000000000000000000010000000000000000000000000000000000000000000000000000000000000060000000000000000000000000000000000000000000000000000000000000042468f0bcaa0000000000000000000000000000000000000000000000000000000000000080000000000000000000000000000000000000000000000000000000000000012000000000000000000000000000000000000000000000000000000000000001c000000000000000000000000000000000000000000000000000000000000002600000000000000000000000000000000000000000000000000000000000000004000000000000000000000000fe8c6d19365453d26af321d0e8c910428c23873f0000000000000000000000005f4a54e29ccb8a02cdf7d7bfa8a0999a8330cced0000000000000000000000005f4a54e29ccb8a02cdf7d7bfa8a0999a8330cced0000000000000000000000005f4a54e29ccb8a02cdf7d7bfa8a0999a8330cced0000000000000000000000000000000000000000000000000000000000000004000000000000000000000000000000000000000000000000000000000000000000000000000000000000000000000000000000000000000000000000000000000000000000000000000000000000000000000000000000000000000000000000000000000000000000000000000000000000000000000000000000000000000000000000000000000000000000000000000000000000000000000000000000040000000000000000000000000000000000000000000000000000000000000064000000000000000000000000000000000000000000000000000000000000006400000000000000000000000000000000000000000000000000000000000000640000000000000000000000000000000000000000000000000000000000000064000000000000000000000000000000000000000000000000000000000000019023b872dd000000000000000000000000364d1b6b88eac4d931ab0b43157c801b80036dd80000000000000000000000003a425cc1d9b4b6116f7d86ea5dad5fe6f629fb1d00000000000000000000000000000000000000000000000000000000000020d523b872dd000000000000000000000000364d1b6b88eac4d931ab0b43157c801b80036dd80000000000000000000000003a425cc1d9b4b6116f7d86ea5dad5fe6f629fb1d00000000000000000000000000000000000000000000000000000000000042c623b872dd000000000000000000000000364d1b6b88eac4d931ab0b43157c801b80036dd80000000000000000000000003a425cc1d9b4b6116f7d86ea5dad5fe6f629fb1d00000000000000000000000000000000000000000000000000000000000042c723b872dd000000000000000000000000364d1b6b88eac4d931ab0b43157c801b80036dd80000000000000000000000003a425cc1d9b4b6116f7d86ea5dad5fe6f629fb1d00000000000000000000000000000000000000000000000000000000000042c80000000000000000000000000000000000000000000000000000000000000000000000000000000000000000",
                    "decodedMethod": {
                        "callParams": [
                            {
                                "name": "dest",
                                "type": "address",
                                "value": "0xc99f70bfd82fb7c8f8191fdfbfb735606b15e5c5"
                            },
                            {
                                "name": "howToCall",
                                "type": "uint8",
                                "value": "1"
                            },
                            {
                                "name": "calldata",
                                "type": "bytes",
                                "value": "0x68f0bcaa0000000000000000000000000000000000000000000000000000000000000080000000000000000000000000000000000000000000000000000000000000012000000000000000000000000000000000000000000000000000000000000001c000000000000000000000000000000000000000000000000000000000000002600000000000000000000000000000000000000000000000000000000000000004000000000000000000000000fe8c6d19365453d26af321d0e8c910428c23873f0000000000000000000000005f4a54e29ccb8a02cdf7d7bfa8a0999a8330cced0000000000000000000000005f4a54e29ccb8a02cdf7d7bfa8a0999a8330cced0000000000000000000000005f4a54e29ccb8a02cdf7d7bfa8a0999a8330cced0000000000000000000000000000000000000000000000000000000000000004000000000000000000000000000000000000000000000000000000000000000000000000000000000000000000000000000000000000000000000000000000000000000000000000000000000000000000000000000000000000000000000000000000000000000000000000000000000000000000000000000000000000000000000000000000000000000000000000000000000000000000000000000000040000000000000000000000000000000000000000000000000000000000000064000000000000000000000000000000000000000000000000000000000000006400000000000000000000000000000000000000000000000000000000000000640000000000000000000000000000000000000000000000000000000000000064000000000000000000000000000000000000000000000000000000000000019023b872dd000000000000000000000000364d1b6b88eac4d931ab0b43157c801b80036dd80000000000000000000000003a425cc1d9b4b6116f7d86ea5dad5fe6f629fb1d00000000000000000000000000000000000000000000000000000000000020d523b872dd000000000000000000000000364d1b6b88eac4d931ab0b43157c801b80036dd80000000000000000000000003a425cc1d9b4b6116f7d86ea5dad5fe6f629fb1d00000000000000000000000000000000000000000000000000000000000042c623b872dd000000000000000000000000364d1b6b88eac4d931ab0b43157c801b80036dd80000000000000000000000003a425cc1d9b4b6116f7d86ea5dad5fe6f629fb1d00000000000000000000000000000000000000000000000000000000000042c723b872dd000000000000000000000000364d1b6b88eac4d931ab0b43157c801b80036dd80000000000000000000000003a425cc1d9b4b6116f7d86ea5dad5fe6f629fb1d00000000000000000000000000000000000000000000000000000000000042c800000000000000000000000000000000"
                            }
                        ],
                        "constructorArguments": "",
                        "name": "proxyAssert",
                        "returnParams": [],
                        "signature": "proxyAssert(address,uint8,bytes)"
                    },
                    "errorInfo": "",
                    "fromAddress": "0x364d1b6b88eac4d931ab0b43157c801b80036dd8",
                    "gasUsed": 221615,
                    "id": 0,
                    "methodDecoded": true,
                    "operation": "CALL",
                    "output": "",
                    "revert": false,
                    "revertMessage": "",
                    "selector": "0x3f801f91",
                    "status": true,
                    "value": "0"
                },
                "nodeType": 0
            },
            "1": {
                "invocation": {
                    "address": "0xf9e266af4bca5890e2781812cc6a6e89495a79f2",
                    "callData": "0x000000000000000000000000c99f70bfd82fb7c8f8191fdfbfb735606b15e5c500000000000000000000000000000000000000000000000000000000000000010000000000000000000000000000000000000000000000000000000000000060000000000000000000000000000000000000000000000000000000000000042468f0bcaa0000000000000000000000000000000000000000000000000000000000000080000000000000000000000000000000000000000000000000000000000000012000000000000000000000000000000000000000000000000000000000000001c000000000000000000000000000000000000000000000000000000000000002600000000000000000000000000000000000000000000000000000000000000004000000000000000000000000fe8c6d19365453d26af321d0e8c910428c23873f0000000000000000000000005f4a54e29ccb8a02cdf7d7bfa8a0999a8330cced0000000000000000000000005f4a54e29ccb8a02cdf7d7bfa8a0999a8330cced0000000000000000000000005f4a54e29ccb8a02cdf7d7bfa8a0999a8330cced0000000000000000000000000000000000000000000000000000000000000004000000000000000000000000000000000000000000000000000000000000000000000000000000000000000000000000000000000000000000000000000000000000000000000000000000000000000000000000000000000000000000000000000000000000000000000000000000000000000000000000000000000000000000000000000000000000000000000000000000000000000000000000000000040000000000000000000000000000000000000000000000000000000000000064000000000000000000000000000000000000000000000000000000000000006400000000000000000000000000000000000000000000000000000000000000640000000000000000000000000000000000000000000000000000000000000064000000000000000000000000000000000000000000000000000000000000019023b872dd000000000000000000000000364d1b6b88eac4d931ab0b43157c801b80036dd80000000000000000000000003a425cc1d9b4b6116f7d86ea5dad5fe6f629fb1d00000000000000000000000000000000000000000000000000000000000020d523b872dd000000000000000000000000364d1b6b88eac4d931ab0b43157c801b80036dd80000000000000000000000003a425cc1d9b4b6116f7d86ea5dad5fe6f629fb1d00000000000000000000000000000000000000000000000000000000000042c623b872dd000000000000000000000000364d1b6b88eac4d931ab0b43157c801b80036dd80000000000000000000000003a425cc1d9b4b6116f7d86ea5dad5fe6f629fb1d00000000000000000000000000000000000000000000000000000000000042c723b872dd000000000000000000000000364d1b6b88eac4d931ab0b43157c801b80036dd80000000000000000000000003a425cc1d9b4b6116f7d86ea5dad5fe6f629fb1d00000000000000000000000000000000000000000000000000000000000042c80000000000000000000000000000000000000000000000000000000000000000000000000000000000000000",
                    "decodedMethod": {
                        "callParams": [
                            {
                                "name": "dest",
                                "type": "address",
                                "value": "0xc99f70bfd82fb7c8f8191fdfbfb735606b15e5c5"
                            },
                            {
                                "name": "howToCall",
                                "type": "uint8",
                                "value": "1"
                            },
                            {
                                "name": "calldata",
                                "type": "bytes",
                                "value": "0x68f0bcaa0000000000000000000000000000000000000000000000000000000000000080000000000000000000000000000000000000000000000000000000000000012000000000000000000000000000000000000000000000000000000000000001c000000000000000000000000000000000000000000000000000000000000002600000000000000000000000000000000000000000000000000000000000000004000000000000000000000000fe8c6d19365453d26af321d0e8c910428c23873f0000000000000000000000005f4a54e29ccb8a02cdf7d7bfa8a0999a8330cced0000000000000000000000005f4a54e29ccb8a02cdf7d7bfa8a0999a8330cced0000000000000000000000005f4a54e29ccb8a02cdf7d7bfa8a0999a8330cced0000000000000000000000000000000000000000000000000000000000000004000000000000000000000000000000000000000000000000000000000000000000000000000000000000000000000000000000000000000000000000000000000000000000000000000000000000000000000000000000000000000000000000000000000000000000000000000000000000000000000000000000000000000000000000000000000000000000000000000000000000000000000000000000040000000000000000000000000000000000000000000000000000000000000064000000000000000000000000000000000000000000000000000000000000006400000000000000000000000000000000000000000000000000000000000000640000000000000000000000000000000000000000000000000000000000000064000000000000000000000000000000000000000000000000000000000000019023b872dd000000000000000000000000364d1b6b88eac4d931ab0b43157c801b80036dd80000000000000000000000003a425cc1d9b4b6116f7d86ea5dad5fe6f629fb1d00000000000000000000000000000000000000000000000000000000000020d523b872dd000000000000000000000000364d1b6b88eac4d931ab0b43157c801b80036dd80000000000000000000000003a425cc1d9b4b6116f7d86ea5dad5fe6f629fb1d00000000000000000000000000000000000000000000000000000000000042c623b872dd000000000000000000000000364d1b6b88eac4d931ab0b43157c801b80036dd80000000000000000000000003a425cc1d9b4b6116f7d86ea5dad5fe6f629fb1d00000000000000000000000000000000000000000000000000000000000042c723b872dd000000000000000000000000364d1b6b88eac4d931ab0b43157c801b80036dd80000000000000000000000003a425cc1d9b4b6116f7d86ea5dad5fe6f629fb1d00000000000000000000000000000000000000000000000000000000000042c800000000000000000000000000000000"
                            }
                        ],
                        "constructorArguments": "",
                        "name": "proxyAssert",
                        "returnParams": [],
                        "signature": "proxyAssert(address,uint8,bytes)"
                    },
                    "errorInfo": "",
                    "fromAddress": "0xfd7b54bf7f77c2836a5a30fac0fa964014235ee7",
                    "gasUsed": 186551,
                    "id": 1,
                    "methodDecoded": true,
                    "operation": "DELEGATECALL",
                    "output": "",
                    "revert": false,
                    "revertMessage": "",
                    "selector": "0x3f801f91",
                    "status": true,
                    "value": "0"
                },
                "nodeType": 0
            },
            "10": {
                "event": {
                    "contract": "0x5f4a54e29ccb8a02cdf7d7bfa8a0999a8330cced",
                    "decodedLog": {
                        "name": "Approval",
                        "params": [
                            {
                                "name": "owner",
                                "type": "address",
                                "value": "0x364d1b6b88eac4d931ab0b43157c801b80036dd8"
                            },
                            {
                                "name": "approved",
                                "type": "address",
                                "value": "0x0000000000000000000000000000000000000000"
                            },
                            {
                                "decimalAvailable": true,
                                "name": "tokenId",
                                "type": "uint256",
                                "value": "17,095"
                            }
                        ],
                        "signature": "Approval(address,address,uint256)"
                    },
                    "id": 10,
                    "logData": "0x",
                    "logDecoded": true,
                    "operation": "EVENT",
                    "revert": false,
                    "status": true,
                    "topics": [
                        "0x8c5be1e5ebec7d5bd14f71427d1e84f3dd0314c0f7b2291e5b200ac8c7c3b925",
                        "0x000000000000000000000000364d1b6b88eac4d931ab0b43157c801b80036dd8",
                        "0x0000000000000000000000000000000000000000000000000000000000000000",
                        "0x00000000000000000000000000000000000000000000000000000000000042c7"
                    ]
                },
                "nodeType": 1
            },
            "11": {
                "event": {
                    "contract": "0x5f4a54e29ccb8a02cdf7d7bfa8a0999a8330cced",
                    "decodedLog": {
                        "name": "Transfer",
                        "params": [
                            {
                                "name": "from",
                                "type": "address",
                                "value": "0x364d1b6b88eac4d931ab0b43157c801b80036dd8"
                            },
                            {
                                "name": "to",
                                "type": "address",
                                "value": "0x3a425cc1d9b4b6116f7d86ea5dad5fe6f629fb1d"
                            },
                            {
                                "decimalAvailable": true,
                                "name": "tokenId",
                                "type": "uint256",
                                "value": "17,095"
                            }
                        ],
                        "signature": "Transfer(address,address,uint256)"
                    },
                    "id": 11,
                    "logData": "0x",
                    "logDecoded": true,
                    "operation": "EVENT",
                    "revert": false,
                    "status": true,
                    "topics": [
                        "0xddf252ad1be2c89b69c2b068fc378daa952ba7f163c4a11628f55a4df523b3ef",
                        "0x000000000000000000000000364d1b6b88eac4d931ab0b43157c801b80036dd8",
                        "0x0000000000000000000000003a425cc1d9b4b6116f7d86ea5dad5fe6f629fb1d",
                        "0x00000000000000000000000000000000000000000000000000000000000042c7"
                    ]
                },
                "nodeType": 1
            },
            "12": {
                "invocation": {
                    "address": "0x5f4a54e29ccb8a02cdf7d7bfa8a0999a8330cced",
                    "callData": "0x000000000000000000000000364d1b6b88eac4d931ab0b43157c801b80036dd80000000000000000000000003a425cc1d9b4b6116f7d86ea5dad5fe6f629fb1d00000000000000000000000000000000000000000000000000000000000042c800000000000000000000000000000000000000000000000000000000",
                    "decodedMethod": {
                        "callParams": [
                            {
                                "name": "from",
                                "type": "address",
                                "value": "0x364d1b6b88eac4d931ab0b43157c801b80036dd8"
                            },
                            {
                                "name": "to",
                                "type": "address",
                                "value": "0x3a425cc1d9b4b6116f7d86ea5dad5fe6f629fb1d"
                            },
                            {
                                "decimalAvailable": true,
                                "name": "tokenId",
                                "type": "uint256",
                                "value": "17,096"
                            }
                        ],
                        "constructorArguments": "",
                        "name": "transferFrom",
                        "returnParams": [],
                        "signature": "transferFrom(address,address,uint256)"
                    },
                    "errorInfo": "",
                    "fromAddress": "0xfd7b54bf7f77c2836a5a30fac0fa964014235ee7",
                    "gasUsed": 14971,
                    "id": 12,
                    "methodDecoded": true,
                    "operation": "CALL",
                    "output": "",
                    "revert": false,
                    "revertMessage": "",
                    "selector": "0x23b872dd",
                    "status": true,
                    "value": "0"
                },
                "nodeType": 0
            },
            "13": {
                "event": {
                    "contract": "0x5f4a54e29ccb8a02cdf7d7bfa8a0999a8330cced",
                    "decodedLog": {
                        "name": "Approval",
                        "params": [
                            {
                                "name": "owner",
                                "type": "address",
                                "value": "0x364d1b6b88eac4d931ab0b43157c801b80036dd8"
                            },
                            {
                                "name": "approved",
                                "type": "address",
                                "value": "0x0000000000000000000000000000000000000000"
                            },
                            {
                                "decimalAvailable": true,
                                "name": "tokenId",
                                "type": "uint256",
                                "value": "17,096"
                            }
                        ],
                        "signature": "Approval(address,address,uint256)"
                    },
                    "id": 13,
                    "logData": "0x",
                    "logDecoded": true,
                    "operation": "EVENT",
                    "revert": false,
                    "status": true,
                    "topics": [
                        "0x8c5be1e5ebec7d5bd14f71427d1e84f3dd0314c0f7b2291e5b200ac8c7c3b925",
                        "0x000000000000000000000000364d1b6b88eac4d931ab0b43157c801b80036dd8",
                        "0x0000000000000000000000000000000000000000000000000000000000000000",
                        "0x00000000000000000000000000000000000000000000000000000000000042c8"
                    ]
                },
                "nodeType": 1
            },
            "14": {
                "event": {
                    "contract": "0x5f4a54e29ccb8a02cdf7d7bfa8a0999a8330cced",
                    "decodedLog": {
                        "name": "Transfer",
                        "params": [
                            {
                                "name": "from",
                                "type": "address",
                                "value": "0x364d1b6b88eac4d931ab0b43157c801b80036dd8"
                            },
                            {
                                "name": "to",
                                "type": "address",
                                "value": "0x3a425cc1d9b4b6116f7d86ea5dad5fe6f629fb1d"
                            },
                            {
                                "decimalAvailable": true,
                                "name": "tokenId",
                                "type": "uint256",
                                "value": "17,096"
                            }
                        ],
                        "signature": "Transfer(address,address,uint256)"
                    },
                    "id": 14,
                    "logData": "0x",
                    "logDecoded": true,
                    "operation": "EVENT",
                    "revert": false,
                    "status": true,
                    "topics": [
                        "0xddf252ad1be2c89b69c2b068fc378daa952ba7f163c4a11628f55a4df523b3ef",
                        "0x000000000000000000000000364d1b6b88eac4d931ab0b43157c801b80036dd8",
                        "0x0000000000000000000000003a425cc1d9b4b6116f7d86ea5dad5fe6f629fb1d",
                        "0x00000000000000000000000000000000000000000000000000000000000042c8"
                    ]
                },
                "nodeType": 1
            },
            "2": {
                "invocation": {
                    "address": "0xc99f70bfd82fb7c8f8191fdfbfb735606b15e5c5",
                    "callData": "0x0000000000000000000000000000000000000000000000000000000000000080000000000000000000000000000000000000000000000000000000000000012000000000000000000000000000000000000000000000000000000000000001c000000000000000000000000000000000000000000000000000000000000002600000000000000000000000000000000000000000000000000000000000000004000000000000000000000000fe8c6d19365453d26af321d0e8c910428c23873f0000000000000000000000005f4a54e29ccb8a02cdf7d7bfa8a0999a8330cced0000000000000000000000005f4a54e29ccb8a02cdf7d7bfa8a0999a8330cced0000000000000000000000005f4a54e29ccb8a02cdf7d7bfa8a0999a8330cced0000000000000000000000000000000000000000000000000000000000000004000000000000000000000000000000000000000000000000000000000000000000000000000000000000000000000000000000000000000000000000000000000000000000000000000000000000000000000000000000000000000000000000000000000000000000000000000000000000000000000000000000000000000000000000000000000000000000000000000000000000000000000000000000040000000000000000000000000000000000000000000000000000000000000064000000000000000000000000000000000000000000000000000000000000006400000000000000000000000000000000000000000000000000000000000000640000000000000000000000000000000000000000000000000000000000000064000000000000000000000000000000000000000000000000000000000000019023b872dd000000000000000000000000364d1b6b88eac4d931ab0b43157c801b80036dd80000000000000000000000003a425cc1d9b4b6116f7d86ea5dad5fe6f629fb1d00000000000000000000000000000000000000000000000000000000000020d523b872dd000000000000000000000000364d1b6b88eac4d931ab0b43157c801b80036dd80000000000000000000000003a425cc1d9b4b6116f7d86ea5dad5fe6f629fb1d00000000000000000000000000000000000000000000000000000000000042c623b872dd000000000000000000000000364d1b6b88eac4d931ab0b43157c801b80036dd80000000000000000000000003a425cc1d9b4b6116f7d86ea5dad5fe6f629fb1d00000000000000000000000000000000000000000000000000000000000042c723b872dd000000000000000000000000364d1b6b88eac4d931ab0b43157c801b80036dd80000000000000000000000003a425cc1d9b4b6116f7d86ea5dad5fe6f629fb1d00000000000000000000000000000000000000000000000000000000000042c80000000000000000000000000000000000000000000000000000000000000000000000000000000000000000",
                    "decodedMethod": {
                        "callParams": [
                            {
                                "name": "addrs",
                                "type": "address[]",
                                "value": [
                                    "0xfe8c6d19365453d26af321d0e8c910428c23873f",
                                    "0x5f4a54e29ccb8a02cdf7d7bfa8a0999a8330cced",
                                    "0x5f4a54e29ccb8a02cdf7d7bfa8a0999a8330cced",
                                    "0x5f4a54e29ccb8a02cdf7d7bfa8a0999a8330cced"
                                ]
                            },
                            {
                                "name": "values",
                                "type": "uint256[]",
                                "value": [
                                    "0",
                                    "0",
                                    "0",
                                    "0"
                                ]
                            },
                            {
                                "name": "calldataLengths",
                                "type": "uint256[]",
                                "value": [
                                    "100",
                                    "100",
                                    "100",
                                    "100"
                                ]
                            },
                            {
                                "name": "calldatas",
                                "type": "bytes",
                                "value": "0x23b872dd000000000000000000000000364d1b6b88eac4d931ab0b43157c801b80036dd80000000000000000000000003a425cc1d9b4b6116f7d86ea5dad5fe6f629fb1d00000000000000000000000000000000000000000000000000000000000020d523b872dd000000000000000000000000364d1b6b88eac4d931ab0b43157c801b80036dd80000000000000000000000003a425cc1d9b4b6116f7d86ea5dad5fe6f629fb1d00000000000000000000000000000000000000000000000000000000000042c623b872dd000000000000000000000000364d1b6b88eac4d931ab0b43157c801b80036dd80000000000000000000000003a425cc1d9b4b6116f7d86ea5dad5fe6f629fb1d00000000000000000000000000000000000000000000000000000000000042c723b872dd000000000000000000000000364d1b6b88eac4d931ab0b43157c801b80036dd80000000000000000000000003a425cc1d9b4b6116f7d86ea5dad5fe6f629fb1d00000000000000000000000000000000000000000000000000000000000042c8"
                            }
                        ],
                        "constructorArguments": "",
                        "name": "atomicize",
                        "returnParams": [],
                        "signature": "atomicize(address[],uint256[],uint256[],bytes)"
                    },
                    "errorInfo": "",
                    "fromAddress": "0xfd7b54bf7f77c2836a5a30fac0fa964014235ee7",
                    "gasUsed": 178146,
                    "id": 2,
                    "methodDecoded": true,
                    "operation": "DELEGATECALL",
                    "output": "",
                    "revert": false,
                    "revertMessage": "",
                    "selector": "0x68f0bcaa",
                    "status": true,
                    "value": "0"
                },
                "nodeType": 0
            },
            "3": {
                "invocation": {
                    "address": "0xfe8c6d19365453d26af321d0e8c910428c23873f",
                    "callData": "0x000000000000000000000000364d1b6b88eac4d931ab0b43157c801b80036dd80000000000000000000000003a425cc1d9b4b6116f7d86ea5dad5fe6f629fb1d00000000000000000000000000000000000000000000000000000000000020d500000000000000000000000000000000000000000000000000000000",
                    "decodedMethod": {
                        "callParams": [
                            {
                                "name": "from",
                                "type": "address",
                                "value": "0x364d1b6b88eac4d931ab0b43157c801b80036dd8"
                            },
                            {
                                "name": "to",
                                "type": "address",
                                "value": "0x3a425cc1d9b4b6116f7d86ea5dad5fe6f629fb1d"
                            },
                            {
                                "decimalAvailable": true,
                                "name": "tokenId",
                                "type": "uint256",
                                "value": "8,405"
                            }
                        ],
                        "constructorArguments": "",
                        "name": "transferFrom",
                        "returnParams": [],
                        "signature": "transferFrom(address,address,uint256)"
                    },
                    "errorInfo": "",
                    "fromAddress": "0xfd7b54bf7f77c2836a5a30fac0fa964014235ee7",
                    "gasUsed": 19015,
                    "id": 3,
                    "methodDecoded": true,
                    "operation": "CALL",
                    "output": "",
                    "revert": false,
                    "revertMessage": "",
                    "selector": "0x23b872dd",
                    "status": true,
                    "value": "0"
                },
                "nodeType": 0
            },
            "4": {
                "event": {
                    "contract": "0xfe8c6d19365453d26af321d0e8c910428c23873f",
                    "decodedLog": {
                        "name": "Approval",
                        "params": [
                            {
                                "name": "owner",
                                "type": "address",
                                "value": "0x364d1b6b88eac4d931ab0b43157c801b80036dd8"
                            },
                            {
                                "name": "approved",
                                "type": "address",
                                "value": "0x0000000000000000000000000000000000000000"
                            },
                            {
                                "decimalAvailable": true,
                                "name": "tokenId",
                                "type": "uint256",
                                "value": "8,405"
                            }
                        ],
                        "signature": "Approval(address,address,uint256)"
                    },
                    "id": 4,
                    "logData": "0x",
                    "logDecoded": true,
                    "operation": "EVENT",
                    "revert": false,
                    "status": true,
                    "topics": [
                        "0x8c5be1e5ebec7d5bd14f71427d1e84f3dd0314c0f7b2291e5b200ac8c7c3b925",
                        "0x000000000000000000000000364d1b6b88eac4d931ab0b43157c801b80036dd8",
                        "0x0000000000000000000000000000000000000000000000000000000000000000",
                        "0x00000000000000000000000000000000000000000000000000000000000020d5"
                    ]
                },
                "nodeType": 1
            },
            "5": {
                "event": {
                    "contract": "0xfe8c6d19365453d26af321d0e8c910428c23873f",
                    "decodedLog": {
                        "name": "Transfer",
                        "params": [
                            {
                                "name": "from",
                                "type": "address",
                                "value": "0x364d1b6b88eac4d931ab0b43157c801b80036dd8"
                            },
                            {
                                "name": "to",
                                "type": "address",
                                "value": "0x3a425cc1d9b4b6116f7d86ea5dad5fe6f629fb1d"
                            },
                            {
                                "decimalAvailable": true,
                                "name": "tokenId",
                                "type": "uint256",
                                "value": "8,405"
                            }
                        ],
                        "signature": "Transfer(address,address,uint256)"
                    },
                    "id": 5,
                    "logData": "0x",
                    "logDecoded": true,
                    "operation": "EVENT",
                    "revert": false,
                    "status": true,
                    "topics": [
                        "0xddf252ad1be2c89b69c2b068fc378daa952ba7f163c4a11628f55a4df523b3ef",
                        "0x000000000000000000000000364d1b6b88eac4d931ab0b43157c801b80036dd8",
                        "0x0000000000000000000000003a425cc1d9b4b6116f7d86ea5dad5fe6f629fb1d",
                        "0x00000000000000000000000000000000000000000000000000000000000020d5"
                    ]
                },
                "nodeType": 1
            },
            "6": {
                "invocation": {
                    "address": "0x5f4a54e29ccb8a02cdf7d7bfa8a0999a8330cced",
                    "callData": "0x000000000000000000000000364d1b6b88eac4d931ab0b43157c801b80036dd80000000000000000000000003a425cc1d9b4b6116f7d86ea5dad5fe6f629fb1d00000000000000000000000000000000000000000000000000000000000042c600000000000000000000000000000000000000000000000000000000",
                    "decodedMethod": {
                        "callParams": [
                            {
                                "name": "from",
                                "type": "address",
                                "value": "0x364d1b6b88eac4d931ab0b43157c801b80036dd8"
                            },
                            {
                                "name": "to",
                                "type": "address",
                                "value": "0x3a425cc1d9b4b6116f7d86ea5dad5fe6f629fb1d"
                            },
                            {
                                "decimalAvailable": true,
                                "name": "tokenId",
                                "type": "uint256",
                                "value": "17,094"
                            }
                        ],
                        "constructorArguments": "",
                        "name": "transferFrom",
                        "returnParams": [],
                        "signature": "transferFrom(address,address,uint256)"
                    },
                    "errorInfo": "",
                    "fromAddress": "0xfd7b54bf7f77c2836a5a30fac0fa964014235ee7",
                    "gasUsed": 18971,
                    "id": 6,
                    "methodDecoded": true,
                    "operation": "CALL",
                    "output": "",
                    "revert": false,
                    "revertMessage": "",
                    "selector": "0x23b872dd",
                    "status": true,
                    "value": "0"
                },
                "nodeType": 0
            },
            "7": {
                "event": {
                    "contract": "0x5f4a54e29ccb8a02cdf7d7bfa8a0999a8330cced",
                    "decodedLog": {
                        "name": "Approval",
                        "params": [
                            {
                                "name": "owner",
                                "type": "address",
                                "value": "0x364d1b6b88eac4d931ab0b43157c801b80036dd8"
                            },
                            {
                                "name": "approved",
                                "type": "address",
                                "value": "0x0000000000000000000000000000000000000000"
                            },
                            {
                                "decimalAvailable": true,
                                "name": "tokenId",
                                "type": "uint256",
                                "value": "17,094"
                            }
                        ],
                        "signature": "Approval(address,address,uint256)"
                    },
                    "id": 7,
                    "logData": "0x",
                    "logDecoded": true,
                    "operation": "EVENT",
                    "revert": false,
                    "status": true,
                    "topics": [
                        "0x8c5be1e5ebec7d5bd14f71427d1e84f3dd0314c0f7b2291e5b200ac8c7c3b925",
                        "0x000000000000000000000000364d1b6b88eac4d931ab0b43157c801b80036dd8",
                        "0x0000000000000000000000000000000000000000000000000000000000000000",
                        "0x00000000000000000000000000000000000000000000000000000000000042c6"
                    ]
                },
                "nodeType": 1
            },
            "8": {
                "event": {
                    "contract": "0x5f4a54e29ccb8a02cdf7d7bfa8a0999a8330cced",
                    "decodedLog": {
                        "name": "Transfer",
                        "params": [
                            {
                                "name": "from",
                                "type": "address",
                                "value": "0x364d1b6b88eac4d931ab0b43157c801b80036dd8"
                            },
                            {
                                "name": "to",
                                "type": "address",
                                "value": "0x3a425cc1d9b4b6116f7d86ea5dad5fe6f629fb1d"
                            },
                            {
                                "decimalAvailable": true,
                                "name": "tokenId",
                                "type": "uint256",
                                "value": "17,094"
                            }
                        ],
                        "signature": "Transfer(address,address,uint256)"
                    },
                    "id": 8,
                    "logData": "0x",
                    "logDecoded": true,
                    "operation": "EVENT",
                    "revert": false,
                    "status": true,
                    "topics": [
                        "0xddf252ad1be2c89b69c2b068fc378daa952ba7f163c4a11628f55a4df523b3ef",
                        "0x000000000000000000000000364d1b6b88eac4d931ab0b43157c801b80036dd8",
                        "0x0000000000000000000000003a425cc1d9b4b6116f7d86ea5dad5fe6f629fb1d",
                        "0x00000000000000000000000000000000000000000000000000000000000042c6"
                    ]
                },
                "nodeType": 1
            },
            "9": {
                "invocation": {
                    "address": "0x5f4a54e29ccb8a02cdf7d7bfa8a0999a8330cced",
                    "callData": "0x000000000000000000000000364d1b6b88eac4d931ab0b43157c801b80036dd80000000000000000000000003a425cc1d9b4b6116f7d86ea5dad5fe6f629fb1d00000000000000000000000000000000000000000000000000000000000042c700000000000000000000000000000000000000000000000000000000",
                    "decodedMethod": {
                        "callParams": [
                            {
                                "name": "from",
                                "type": "address",
                                "value": "0x364d1b6b88eac4d931ab0b43157c801b80036dd8"
                            },
                            {
                                "name": "to",
                                "type": "address",
                                "value": "0x3a425cc1d9b4b6116f7d86ea5dad5fe6f629fb1d"
                            },
                            {
                                "decimalAvailable": true,
                                "name": "tokenId",
                                "type": "uint256",
                                "value": "17,095"
                            }
                        ],
                        "constructorArguments": "",
                        "name": "transferFrom",
                        "returnParams": [],
                        "signature": "transferFrom(address,address,uint256)"
                    },
                    "errorInfo": "",
                    "fromAddress": "0xfd7b54bf7f77c2836a5a30fac0fa964014235ee7",
                    "gasUsed": 14971,
                    "id": 9,
                    "methodDecoded": true,
                    "operation": "CALL",
                    "output": "",
                    "revert": false,
                    "revertMessage": "",
                    "selector": "0x23b872dd",
                    "status": true,
                    "value": "0"
                },
                "nodeType": 0
            }
        },
        "gasFlame": [
            {
                "children": [
                    {
                        "children": [
                            {
                                "children": [],
                                "depth": 0,
                                "name": "Initial Gas",
                                "value": 29624
                            },
                            {
                                "children": [
                                    {
                                        "children": [
                                            {
                                                "children": [
                                                    {
                                                        "children": [],
                                                        "depth": 3,
                                                        "name": "transferFrom",
                                                        "value": 19015
                                                    },
                                                    {
                                                        "children": [],
                                                        "depth": 3,
                                                        "name": "transferFrom",
                                                        "value": 18971
                                                    },
                                                    {
                                                        "children": [],
                                                        "depth": 3,
                                                        "name": "transferFrom",
                                                        "value": 14971
                                                    },
                                                    {
                                                        "children": [],
                                                        "depth": 3,
                                                        "name": "transferFrom",
                                                        "value": 14971
                                                    }
                                                ],
                                                "depth": 2,
                                                "name": "atomicize",
                                                "value": 178146
                                            }
                                        ],
                                        "depth": 1,
                                        "name": "proxyAssert",
                                        "value": 186551
                                    }
                                ],
                                "depth": 0,
                                "name": "Executed Gas",
                                "value": 191991
                            }
                        ],
                        "depth": -1,
                        "name": "Actual Gas Used",
                        "value": 221615
                    },
                    {
                        "children": [],
                        "depth": -1,
                        "name": "Refunded Gas",
                        "value": 0
                    }
                ],
                "depth": -2,
                "name": "Total Gas",
                "value": 221615
            }
        ],
        "isConfirmed": true,
        "mainTrace": [
            {
                "children": [
                    {
                        "children": [
                            {
                                "children": [
                                    {
                                        "children": [
                                            {
                                                "children": [
                                                    {
                                                        "children": [],
                                                        "depth": 4,
                                                        "id": 4,
                                                        "order": 4
                                                    },
                                                    {
                                                        "children": [],
                                                        "depth": 4,
                                                        "id": 5,
                                                        "order": 5
                                                    }
                                                ],
                                                "depth": 3,
                                                "id": 3,
                                                "order": 3
                                            },
                                            {
                                                "children": [
                                                    {
                                                        "children": [],
                                                        "depth": 4,
                                                        "id": 7,
                                                        "order": 7
                                                    },
                                                    {
                                                        "children": [],
                                                        "depth": 4,
                                                        "id": 8,
                                                        "order": 8
                                                    }
                                                ],
                                                "depth": 3,
                                                "id": 6,
                                                "order": 6
                                            },
                                            {
                                                "children": [
                                                    {
                                                        "children": [],
                                                        "depth": 4,
                                                        "id": 10,
                                                        "order": 10
                                                    },
                                                    {
                                                        "children": [],
                                                        "depth": 4,
                                                        "id": 11,
                                                        "order": 11
                                                    }
                                                ],
                                                "depth": 3,
                                                "id": 9,
                                                "order": 9
                                            },
                                            {
                                                "children": [
                                                    {
                                                        "children": [],
                                                        "depth": 4,
                                                        "id": 13,
                                                        "order": 13
                                                    },
                                                    {
                                                        "children": [],
                                                        "depth": 4,
                                                        "id": 14,
                                                        "order": 14
                                                    }
                                                ],
                                                "depth": 3,
                                                "id": 12,
                                                "order": 12
                                            }
                                        ],
                                        "depth": 2,
                                        "id": 2,
                                        "order": 2
                                    }
                                ],
                                "depth": 1,
                                "id": 1,
                                "order": 1
                            }
                        ],
                        "depth": 0,
                        "id": 0,
                        "order": 0
                    }
                ],
                "depth": -1,
                "id": -1,
                "order": -1
            }
        ],
        "mainTraceNodeCount": 15,
        "parentIdMap": {
            "0": -1,
            "1": 0,
            "10": 9,
            "11": 9,
            "12": 2,
            "13": 12,
            "14": 12,
            "2": 1,
            "3": 2,
            "4": 3,
            "5": 3,
            "6": 2,
            "7": 6,
            "8": 6,
            "9": 2
        },
        "tidyTrace": [
            {
                "children": [
                    {
                        "children": [
                            {
                                "children": [
                                    {
                                        "children": [
                                            {
                                                "children": [
                                                    {
                                                        "children": [],
                                                        "depth": 4,
                                                        "id": 4,
                                                        "order": 4
                                                    },
                                                    {
                                                        "children": [],
                                                        "depth": 4,
                                                        "id": 5,
                                                        "order": 5
                                                    }
                                                ],
                                                "depth": 3,
                                                "id": 3,
                                                "order": 3
                                            },
                                            {
                                                "children": [
                                                    {
                                                        "children": [],
                                                        "depth": 4,
                                                        "id": 7,
                                                        "order": 7
                                                    },
                                                    {
                                                        "children": [],
                                                        "depth": 4,
                                                        "id": 8,
                                                        "order": 8
                                                    }
                                                ],
                                                "depth": 3,
                                                "id": 6,
                                                "order": 6
                                            },
                                            {
                                                "children": [
                                                    {
                                                        "children": [],
                                                        "depth": 4,
                                                        "id": 10,
                                                        "order": 10
                                                    },
                                                    {
                                                        "children": [],
                                                        "depth": 4,
                                                        "id": 11,
                                                        "order": 11
                                                    }
                                                ],
                                                "depth": 3,
                                                "id": 9,
                                                "order": 9
                                            },
                                            {
                                                "children": [
                                                    {
                                                        "children": [],
                                                        "depth": 4,
                                                        "id": 13,
                                                        "order": 13
                                                    },
                                                    {
                                                        "children": [],
                                                        "depth": 4,
                                                        "id": 14,
                                                        "order": 14
                                                    }
                                                ],
                                                "depth": 3,
                                                "id": 12,
                                                "order": 12
                                            }
                                        ],
                                        "depth": 2,
                                        "id": 2,
                                        "order": 2
                                    }
                                ],
                                "depth": 1,
                                "id": 1,
                                "order": 1
                            }
                        ],
                        "depth": 0,
                        "id": 0,
                        "order": 0
                    }
                ],
                "depth": -1,
                "id": -1,
                "order": -1
            }
        ],
        "tidyTraceNodeCount": 15
    },
    "state_change": {
        "stateChanges": [
            {
                "address": "0x5f4a54e29ccb8a02cdf7d7bfa8a0999a8330cced",
                "erc": "ERC-721",
                "slots": [
                    {
                        "current": "0x0000000000000000000000003a425cc1d9b4b6116f7d86ea5dad5fe6f629fb1d",
                        "key": "0x405787fa12a823e0f2b7631cc41b3ba8828b3321ca811111fa75cd3aa3bb9d96",
                        "prev": "0x000000000000000000000000364d1b6b88eac4d931ab0b43157c801b80036dd8"
                    },
                    {
                        "current": "0x0000000000000000000000003a425cc1d9b4b6116f7d86ea5dad5fe6f629fb1d",
                        "key": "0x405787fa12a823e0f2b7631cc41b3ba8828b3321ca811111fa75cd3aa3bb9d94",
                        "prev": "0x000000000000000000000000364d1b6b88eac4d931ab0b43157c801b80036dd8"
                    },
                    {
                        "current": "0x0000000000000000000000003a425cc1d9b4b6116f7d86ea5dad5fe6f629fb1d",
                        "key": "0x405787fa12a823e0f2b7631cc41b3ba8828b3321ca811111fa75cd3aa3bb9d95",
                        "prev": "0x000000000000000000000000364d1b6b88eac4d931ab0b43157c801b80036dd8"
                    }
                ],
                "storageVariables": [
                    {
                        "name": "_owners",
                        "type": "address[]",
                        "value": {
                            "elemType": "address",
                            "elems": [
                                {
                                    "index": 17094,
                                    "value": {
                                        "current": "0x3a425cc1d9b4b6116f7d86ea5dad5fe6f629fb1d",
                                        "prev": "0x364d1b6b88eac4d931ab0b43157c801b80036dd8",
                                        "typeTag": 1
                                    }
                                },
                                {
                                    "index": 17095,
                                    "value": {
                                        "current": "0x3a425cc1d9b4b6116f7d86ea5dad5fe6f629fb1d",
                                        "prev": "0x364d1b6b88eac4d931ab0b43157c801b80036dd8",
                                        "typeTag": 1
                                    }
                                },
                                {
                                    "index": 17096,
                                    "value": {
                                        "current": "0x3a425cc1d9b4b6116f7d86ea5dad5fe6f629fb1d",
                                        "prev": "0x364d1b6b88eac4d931ab0b43157c801b80036dd8",
                                        "typeTag": 1
                                    }
                                }
                            ],
                            "typeTag": 2
                        }
                    }
                ]
            },
            {
                "address": "0xfe8c6d19365453d26af321d0e8c910428c23873f",
                "erc": "ERC-721",
                "slots": [
                    {
                        "current": "0x0000000000000000000000003a425cc1d9b4b6116f7d86ea5dad5fe6f629fb1d",
                        "key": "0x405787fa12a823e0f2b7631cc41b3ba8828b3321ca811111fa75cd3aa3bb7ba3",
                        "prev": "0x000000000000000000000000364d1b6b88eac4d931ab0b43157c801b80036dd8"
                    }
                ],
                "storageVariables": [
                    {
                        "name": "_owners",
                        "type": "address[]",
                        "value": {
                            "elemType": "address",
                            "elems": [
                                {
                                    "index": 8405,
                                    "value": {
                                        "current": "0x3a425cc1d9b4b6116f7d86ea5dad5fe6f629fb1d",
                                        "prev": "0x364d1b6b88eac4d931ab0b43157c801b80036dd8",
                                        "typeTag": 1
                                    }
                                }
                            ],
                            "typeTag": 2
                        }
                    }
                ]
            }
        ]
    }
}