{
    "balance_change": {
        "balanceChanges": [
            {
                "account": "0x0e7f7b279509cf7f70d33fb0cd0d2406c2210ab1",
                "assets": [
                    {
                        "address": "0x51fe2e572e97bfeb1d719809d743ec2675924edc",
                        "amount": "625",
                        "iconUrl": "",
                        "isERC1155": false,
                        "isERC721": false,
                        "sign": true,
                        "value": "621.5811424"
                    }
                ]
            },
            {
                "account": "0x74ae547220302d61aff9911b41509cb34e435610",
                "assets": [
                    {
                        "address": "0x51fe2e572e97bfeb1d719809d743ec2675924edc",
                        "amount": "625",
                        "iconUrl": "",
                        "isERC1155": false,
                        "isERC721": false,
                        "sign": false,
                        "value": "621.5811424"
                    }
                ]
            }
        ]
    },
    "profile": {
        "basic_info": {
            "baseFee": "70.380477965",
            "blockNumber": 13857044,
            "callData": "0x0e53f2330000000000000000000000000e7f7b279509cf7f70d33fb0cd0d2406c2210ab100000000000000000000000000000000000000000000000000000000000002710000000000000000000000000000000000000000000000000000000061c3866300000000000000000000000000000000000000000000000000000000000000800000000000000000000000000000000000000000000000000000000000000041c47e5a4d6ab2647ef6bc44cba293fd45845ac7093e928a9ecaa1da5efe54dbe2787f12b4ae3e02e15a7af6905c4a2e16c0a995716b04f43dfee57f49c6d9c4f91b00000000000000000000000000000000000000000000000000000000000000",
            "debugEnable": true,
            "errorInfo": "",
            "eventCount": 2,
            "feeRecipient": "0xb7e390864a90b7b923c9f9310c6f98aafe43f707",
            "formatValue": "0",
            "gasLimit": 125496,
            "gasPrice": "72.880477965",
            "gasUsed": 107937,
            "intTxnCount": 3,
            "internalRevert": false,
            "internalRevertMessage": "",
            "isContractCreation": false,
            "isFlashloan": false,
            "maxFee": "165.491933504",
            "nonce": 1,
            "overwritedBlockNumber": -1,
            "priorityFee": "2.5",
            "receiver": "0x74ae547220302d61aff9911b41509cb34e435610",
            "revertMessage": "",
            "sender": "0x0e7f7b279509cf7f70d33fb0cd0d2406c2210ab1",
            "simulationEnable": true,
            "sourceTxnHash": "0xa102e16e1c6485e52c03a95835e8e9cf045072741318f513bb3301c9c3b67ff1",
            "status": true,
            "timestamp": "2021-12-22T20:06:17Z",
            "transactionFee": "0.007866500150108205",
            "txnHash": "0xa102e16e1c6485e52c03a95835e8e9cf045072741318f513bb3301c9c3b67ff1",
            "txnIndex": 194,
            "type": 2,
            "value": "0"
        },
        "fund_flow": [
            {
                "amount": "625",
                "from": "0x74ae547220302d61aff9911b41509cb34e435610",
                "id": 1,
                "isERC1155": false,
                "isERC721": false,
                "isReverted": false,
                "order": 1,
                "to": "0x0e7f7b279509cf7f70d33fb0cd0d2406c2210ab1",
                "token": "0x51fe2e572e97bfeb1d719809d743ec2675924edc"
            }
        ],
        "token_infos": [
            {
                "address": "0xc02aaa39b223fe8d0a0e5c4f27ead9083c756cc2",
                "decimals": 18
            },
            {
                "address": "0xeeeeeeeeeeeeeeeeeeeeeeeeeeeeeeeeeeeeeeee",
                "decimals": 18
            },
            {
                "address": "0x51fe2e572e97bfeb1d719809d743ec2675924edc",
                "decimals": 18
            }
        ]
    },
    "address_label": {
        "labels": [
            {
                "address": "0x0000000000000000000000000000000000000001",
                "label": "Precompiled"
            },
            {
                "address": "0x0000000000000000000000000000000000000002",
                "label": "Precompiled"
            },
            {
                "address": "0x0000000000000000000000000000000000000003",
                "label": "Precompiled"
            },
            {
                "address": "0x0000000000000000000000000000000000000004",
                "label": "Precompiled"
            },
            {
                "address": "0xeeeeeeeeeeeeeeeeeeeeeeeeeeeeeeeeeeeeeeee",
                "label": "Ether"
            },
            {
                "address": "0x51fe2e572e97bfeb1d719809d743ec2675924edc",
                "label": "VLaunch (VPAD)"
            },
            {
                "address": "0x2628df3247e4102dfb25a859c31c9d907c0542e7",
                "label": "Launchpad"
            },
            {
                "address": "0x74ae547220302d61aff9911b41509cb34e435610",
                "label": "TransparentUpgradeableProxy"
            }
        ]
    },
    "trace": {
        "accountLabels": null,
        "dataMap": {
            "-1": {
                "invocation": {
                    "address": "0x0e7f7b279509cf7f70d33fb0cd0d2406c2210ab1",
                    "callData": "",
                    "decodedMethod": null,
                    "errorInfo": "",
                    "fromAddress": "",
                    "gasUsed": 0,
                    "id": -1,
                    "methodDecoded": false,
                    "operation": "",
                    "output": "",
                    "revert": false,
                    "revertMessage": "",
                    "selector": "",
                    "status": false,
                    "value": ""
                },
                "nodeType": 0
            },
            "0": {
                "invocation": {
                    "address": "0x74ae547220302d61aff9911b41509cb34e435610",
                    "callData": "0x0000000000000000000000000e7f7b279509cf7f70d33fb0cd0d2406c2210ab100000000000000000000000000000000000000000000000000000000000002710000000000000000000000000000000000000000000000000000000061c3866300000000000000000000000000000000000000000000000000000000000000800000000000000000000000000000000000000000000000000000000000000041c47e5a4d6ab2647ef6bc44cba293fd45845ac7093e928a9ecaa1da5efe54dbe2787f12b4ae3e02e15a7af6905c4a2e16c0a995716b04f43dfee57f49c6d9c4f91b00000000000000000000000000000000000000000000000000000000000000",
                    "decodedMethod": {
                        "callParams": [
                            {
                                "name": "info_",
                                "type": "(address,uint256,uint256)",
                                "value": [
                                    {
                                        "name": "owner",
                                        "type": "address",
                                        "value": "0x0e7f7b279509cf7f70d33fb0cd0d2406c2210ab1"
                                    },
                                    {
                                        "name": "tickets",
                                        "type": "uint256",
                                        "value": "625"
                                    },
                                    {
                                        "name": "validity",
                                        "type": "uint256",
                                        "value": "1,640,203,875"
                                    }
                                ]
                            },
                            {
                                "name": "sig_",
                                "type": "bytes",
                                "value": "0xc47e5a4d6ab2647ef6bc44cba293fd45845ac7093e928a9ecaa1da5efe54dbe2787f12b4ae3e02e15a7af6905c4a2e16c0a995716b04f43dfee57f49c6d9c4f91b"
                            }
                        ],
                        "constructorArguments": "",
                        "name": "buyAndClaimTickets",
                        "returnParams": [],
                        "signature": "buyAndClaimTickets((address,uint256,uint256),bytes)"
                    },
                    "errorInfo": "",
                    "fromAddress": "0x0e7f7b279509cf7f70d33fb0cd0d2406c2210ab1",
                    "gasUsed": 107937,
                    "id": 0,
                    "methodDecoded": true,
                    "operation": "CALL",
                    "output": "",
                    "revert": false,
                    "revertMessage": "",
                    "selector": "0x0e53f233",
                    "status": true,
                    "value": "0"
                },
                "nodeType": 0
            },
            "1": {
                "invocation": {
                    "address": "0x2628df3247e4102dfb25a859c31c9d907c0542e7",
                    "callData": "0x0000000000000000000000000e7f7b279509cf7f70d33fb0cd0d2406c2210ab100000000000000000000000000000000000000000000000000000000000002710000000000000000000000000000000000000000000000000000000061c3866300000000000000000000000000000000000000000000000000000000000000800000000000000000000000000000000000000000000000000000000000000041c47e5a4d6ab2647ef6bc44cba293fd45845ac7093e928a9ecaa1da5efe54dbe2787f12b4ae3e02e15a7af6905c4a2e16c0a995716b04f43dfee57f49c6d9c4f91b00000000000000000000000000000000000000000000000000000000000000",
                    "decodedMethod": {
                        "callParams": [
                            {
                                "name": "info_",
                                "type": "(address,uint256,uint256)",
                                "value": [
                                    {
                                        "name": "owner",
                                        "type": "address",
                                        "value": "0x0e7f7b279509cf7f70d33fb0cd0d2406c2210ab1"
                                    },
                                    {
                                        "name": "tickets",
                                        "type": "uint256",
                                        "value": "625"
                                    },
                                    {
                                        "name": "validity",
                                        "type": "uint256",
                                        "value": "1,640,203,875"
                                    }
                                ]
                            },
                            {
                                "name": "sig_",
                                "type": "bytes",
                                "value": "0xc47e5a4d6ab2647ef6bc44cba293fd45845ac7093e928a9ecaa1da5efe54dbe2787f12b4ae3e02e15a7af6905c4a2e16c0a995716b04f43dfee57f49c6d9c4f91b"
                            }
                        ],
                        "constructorArguments": "",
                        "name": "buyAndClaimTickets",
                        "returnParams": [],
                        "signature": "buyAndClaimTickets((address,uint256,uint256),bytes)"
                    },
                    "errorInfo": "",
                    "fromAddress": "0x74ae547220302d61aff9911b41509cb34e435610",
                    "gasUsed": 77366,
                    "id": 1,
                    "methodDecoded": true,
                    "operation": "DELEGATECALL",
                    "output": "",
                    "revert": false,
                    "revertMessage": "",
                    "selector": "0x0e53f233",
                    "status": true,
                    "value": "0"
                },
                "nodeType": 0
            },
            "2": {
                "invocation": {
                    "address": "0x0000000000000000000000000000000000000001",
                    "callData": "0x332fb7b00a766a4557d717fb35c2fa10db7b33e5498ed209f567849f000000000000000000000000000000000000000000000000000000000000001bc47e5a4d6ab2647ef6bc44cba293fd45845ac7093e928a9ecaa1da5efe54dbe2787f12b4ae3e02e15a7af6905c4a2e16c0a995716b04f43dfee57f49c6d9c4f9",
                    "decodedMethod": {
                        "callParams": [
                            {
                                "name": "hash",
                                "type": "bytes32",
                                "value": "0x8c16cffc332fb7b00a766a4557d717fb35c2fa10db7b33e5498ed209f567849f"
                            },
                            {
                                "name": "v",
                                "type": "uint256",
                                "value": "27"
                            },
                            {
                                "name": "r",
                                "type": "bytes32",
                                "value": "0xc47e5a4d6ab2647ef6bc44cba293fd45845ac7093e928a9ecaa1da5efe54dbe2"
                            },
                            {
                                "name": "s",
                                "type": "bytes32",
                                "value": "0x787f12b4ae3e02e15a7af6905c4a2e16c0a995716b04f43dfee57f49c6d9c4f9"
                            }
                        ],
                        "constructorArguments": "",
                        "name": "ecrecover",
                        "returnParams": [
                            {
                                "name": "",
                                "type": "address",
                                "value": "0x0962a46fd21ebf255aecef864d59369dd531607e"
                            }
                        ],
                        "signature": "ecrecover(bytes32,uint256,bytes32,bytes32)"
                    },
                    "errorInfo": "",
                    "fromAddress": "0x74ae547220302d61aff9911b41509cb34e435610",
                    "gasUsed": 3000,
                    "id": 2,
                    "methodDecoded": true,
                    "operation": "STATICCALL",
                    "output": "0x0000000000000000000000000962a46fd21ebf255aecef864d59369dd531607e",
                    "revert": false,
                    "revertMessage": "",
                    "selector": "0x8c16cffc",
                    "status": true,
                    "value": "0"
                },
                "nodeType": 0
            },
            "3": {
                "event": {
                    "contract": "0x74ae547220302d61aff9911b41509cb34e435610",
                    "decodedLog": {
                        "name": "BuyTickets",
                        "params": [
                            {
                                "name": "amount",
                                "type": "uint256",
                                "value": "625"
                            },
                            {
                                "name": "staker",
                                "type": "address",
                                "value": "0x0e7f7b279509cf7f70d33fb0cd0d2406c2210ab1"
                            }
                        ],
                        "signature": "BuyTickets(uint256,address)"
                    },
                    "id": 3,
                    "logData": "0x00000000000000000000000000000000000000000000000000000000000002710000000000000000000000000e7f7b279509cf7f70d33fb0cd0d2406c2210ab1",
                    "logDecoded": true,
                    "operation": "EVENT",
                    "revert": false,
                    "status": true,
                    "topics": [
                        "0x4daa7468a96d8788f1d7b65f333b3ac797f99bfbe505ae09ef310734fb7a2c25"
                    ]
                },
                "nodeType": 1
            },
            "4": {
                "invocation": {
                    "address": "0x51fe2e572e97bfeb1d719809d743ec2675924edc",
                    "callData": "0x0000000000000000000000000e7f7b279509cf7f70d33fb0cd0d2406c2210ab1000000000000000000000000000000000000000000000021e19e0c9bab240000",
                    "decodedMethod": {
                        "callParams": [
                            {
                                "name": "recipient",
                                "type": "address",
                                "value": "0x0e7f7b279509cf7f70d33fb0cd0d2406c2210ab1"
                            },
                            {
                                "decimalAvailable": true,
                                "name": "amount",
                                "type": "uint256",
                                "value": "625,000,000,000,000,000,000"
                            }
                        ],
                        "constructorArguments": "",
                        "name": "transfer",
                        "returnParams": [
                            {
                                "name": "",
                                "type": "bool",
                                "value": true
                            }
                        ],
                        "signature": "transfer(address,uint256)"
                    },
                    "errorInfo": "",
                    "fromAddress": "0x74ae547220302d61aff9911b41509cb34e435610",
                    "gasUsed": 29953,
                    "id": 4,
                    "methodDecoded": true,
                    "operation": "CALL",
                    "output": "0x0000000000000000000000000000000000000000000000000000000000000001",
                    "revert": false,
                    "revertMessage": "",
                    "selector": "0xa9059cbb",
                    "status": true,
                    "value": "0"
                },
                "nodeType": 0
            },
            "5": {
                "event": {
                    "contract": "0x51fe2e572e97bfeb1d719809d743ec2675924edc",
                    "decodedLog": {
                        "name": "Transfer",
                        "params": [
                            {
                                "name": "from",
                                "type": "address",
                                "value": "0x74ae547220302d61aff9911b41509cb34e435610"
                            },
                            {
                                "name": "to",
                                "type": "address",
                                "value": "0x0e7f7b279509cf7f70d33fb0cd0d2406c2210ab1"
                            },
                            {
                                "decimalAvailable": true,
                                "name": "value",
                                "type": "uint256",
                                "value": "625,000,000,000,000,000,000"
                            }
                        ],
                        "signature": "Transfer(address,address,uint256)"
                    },
                    "id": 5,
                    "logData": "0x000000000000000000000000000000000000000000000021e19e0c9bab240000",
                    "logDecoded": true,
                    "operation": "EVENT",
                    "revert": false,
                    "status": true,
                    "topics": [
                        "0xddf252ad1be2c89b69c2b068fc378daa952ba7f163c4a11628f55a4df523b3ef",
                        "0x00000000000000000000000074ae547220302d61aff9911b41509cb34e435610",
                        "0x0000000000000000000000000e7f7b279509cf7f70d33fb0cd0d2406c2210ab1"
                    ]
                },
                "nodeType": 1
            }
        },
        "gasFlame": [
            {
                "children": [
                    {
                        "children": [
                            {
                                "children": [],
                                "depth": 0,
                                "name": "Initial Gas",
                                "value": 23204
                            },
                            {
                                "children": [
                                    {
                                        "children": [
                                            {
                                                "children": [],
                                                "depth": 2,
                                                "name": "ecrecover",
                                                "value": 3000
                                            },
                                            {
                                                "children": [],
                                                "depth": 2,
                                                "name": "transfer",
                                                "value": 29953
                                            }
                                        ],
                                        "depth": 1,
                                        "name": "buyAndClaimTickets",
                                        "value": 77366
                                    }
                                ],
                                "depth": 0,
                                "name": "Executed Gas",
                                "value": 84733
                            }
                        ],
                        "depth": -1,
                        "name": "Actual Gas Used",
                        "value": 107937
                    },
                    {
                        "children": [],
                        "depth": -1,
                        "name": "Refunded Gas",
                        "value": 0
                    }
                ],
                "depth": -2,
                "name": "Total Gas",
                "value": 107937
            }
        ],
        "isConfirmed": true,
        "mainTrace": [
            {
                "children": [
                    {
                        "children": [
                            {
                                "children": [
                                    {
                                        "children": [],
                                        "depth": 2,
                                        "id": 2,
                                        "order": 2
                                    },
                                    {
                                        "children": [],
                                        "depth": 2,
                                        "id": 3,
                                        "order": 3
                                    },
                                    {
                                        "children": [
                                            {
                                                "children": [],
                                                "depth": 3,
                                                "id": 5,
                                                "order": 5
                                            }
                                        ],
                                        "depth": 2,
                                        "id": 4,
                                        "order": 4
                                    }
                                ],
                                "depth": 1,
                                "id": 1,
                                "order": 1
                            }
                        ],
                        "depth": 0,
                        "id": 0,
                        "order": 0
                    }
                ],
                "depth": -1,
                "id": -1,
                "order": -1
            }
        ],
        "mainTraceNodeCount": 6,
        "parentIdMap": {
            "0": -1,
            "1": 0,
            "2": 1,
            "3": 1,
            "4": 1,
            "5": 4
        },
        "tidyTrace": [
            {
                "children": [
                    {
                        "children": [
                            {
                                "children": [
                                    {
                                        "children": [],
                                        "depth": 2,
                                        "id": 3,
                                        "order": 3
                                    },
                                    {
                                        "children": [
                                            {
                                                "children": [],
                                                "depth": 3,
                                                "id": 5,
                                                "order": 5
                                            }
                                        ],
                                        "depth": 2,
                                        "id": 4,
                                        "order": 4
                                    }
                                ],
                                "depth": 1,
                                "id": 1,
                                "order": 1
                            }
                        ],
                        "depth": 0,
                        "id": 0,
                        "order": 0
                    }
                ],
                "depth": -1,
                "id": -1,
                "order": -1
            }
        ],
        "tidyTraceNodeCount": 5
    },
    "state_change": {
        "stateChanges": [
            {
                "address": "0x51fe2e572e97bfeb1d719809d743ec2675924edc",
                "erc": "ERC-20",
                "slots": [
                    {
                        "current": "0x0000000000000000000000000000000000000000001723d3d0fc2f8d78d00000",
                        "key": "0xfc15e38db86e282b85f4557f6e04d0b3c766df119a3574f1d8290592a62f69b6",
                        "prev": "0x0000000000000000000000000000000000000000001723f5b29a3c2923f40000"
                    },
                    {
                        "current": "0x000000000000000000000000000000000000000000000021e19e0c9bab240000",
                        "key": "0x72f587ca5fc631513934b4f437c80ffba57b598d2befdc04b78f6ea622776ed0",
                        "prev": "0x0000000000000000000000000000000000000000000000000000000000000000"
                    }
                ],
                "storageVariables": [
                    {
                        "name": "_balances",
                        "type": "mapping(address => uint256)",
                        "value": {
                            "pairs": [
                                {
                                    "key": "0x0e7f7b279509cf7f70d33fb0cd0d2406c2210ab1",
                                    "value": {
                                        "current": "625000000000000000000",
                                        "prev": "0",
                                        "typeTag": 1
                                    }
                                },
                                {
                                    "key": "0x74ae547220302d61aff9911b41509cb34e435610",
                                    "value": {
                                        "current": "27974484000000000000000000",
                                        "prev": "27975109000000000000000000",
                                        "typeTag": 1
                                    }
                                }
                            ],
                            "typeTag": 4
                        }
                    }
                ]
            },
            {
                "address": "0x74ae547220302d61aff9911b41509cb34e435610",
                "erc": "",
                "slots": [
                    {
                        "current": "0x0000000000000000000000000000000000000000000000000000000001aaed94",
                        "key": "0x0000000000000000000000000000000000000000000000000000000000000098",
                        "prev": "0x0000000000000000000000000000000000000000000000000000000001aaf005"
                    },
                    {
                        "current": "0x0000000000000000000000000000000000000000000000000000000000000271",
                        "key": "0x6d59686735b845f4ead96fd3c5c152c5ac2b2c245377f4c81825abd3c76fd440",
                        "prev": "0x0000000000000000000000000000000000000000000000000000000000000000"
                    }
                ],
                "storageVariables": [
                    {
                        "name": "ticketsBoughtPerAddress",
                        "type": "mapping(address => uint256)",
                        "value": {
                            "pairs": [
                                {
                                    "key": "0x0e7f7b279509cf7f70d33fb0cd0d2406c2210ab1",
                                    "value": {
                                        "current": "625",
                                        "prev": "0",
                                        "typeTag": 1
                                    }
                                }
                            ],
                            "typeTag": 4
                        }
                    },
                    {
                        "name": "totalTickets",
                        "type": "uint256",
                        "value": {
                            "current": "27979156",
                            "prev": "27979781",
                            "typeTag": 1
                        }
                    }
                ]
            }
        ]
    }
}