{
    "balance_change": {
        "balanceChanges": [
            {
                "account": "0x1ecc75440038d16ad754cf2fdc5e5bf2090036fa",
                "assets": [
                    {
                        "address": "0xeeeeeeeeeeeeeeeeeeeeeeeeeeeeeeeeeeeeeeee",
                        "amount": "5",
                        "iconUrl": "https://assets.blocksec.com/image/1663669189317-3.png",
                        "isERC1155": false,
                        "isERC721": false,
                        "sign": false,
                        "value": ""
                    }
                ]
            },
            {
                "account": "0x6af233aa3498f59a18f1f81fd73a4663f011b315",
                "assets": [
                    {
                        "address": "0xeeeeeeeeeeeeeeeeeeeeeeeeeeeeeeeeeeeeeeee",
                        "amount": "5",
                        "iconUrl": "https://assets.blocksec.com/image/1663669189317-3.png",
                        "isERC1155": false,
                        "isERC721": false,
                        "sign": true,
                        "value": ""
                    }
                ]
            }
        ]
    },
    "profile": {
        "basic_info": {
            "baseFee": "",
            "blockNumber": 9146754,
            "callData": "0xaacaaf880000000000000000000000001ecc75440038d16ad754cf2fdc5e5bf2090036fa00000000000000000000000000000000000000000000000000000000000000c0000000000000000000000000008b91760000000000000000000000005dffa89c00000000000000000000000000000000000000000000000000000000000001c00000000000000000000000000000000000000000000000000000000000000000000000000000000000000000000000000000000000000000000000000003d09000000000000000000000000000000000000000000000000000000000000000c42df546f40000000000000000000000001ecc75440038d16ad754cf2fdc5e5bf2090036fa000000000000000000000000eeeeeeeeeeeeeeeeeeeeeeeeeeeeeeeeeeeeeeee0000000000000000000000006af233aa3498f59a18f1f81fd73a4663f011b3150000000000000000000000000000000000000000000000004563918244f4000000000000000000000000000000000000000000000000000000000000000000a00000000000000000000000000000000000000000000000000000000000000000000000000000000000000000000000000000000000000000000000000000000000000000000000000000000000000000000000000000000000000082a75e7102389b718fabae574bc9bb800cff8fee474ceb2060f49d4414702aac7a72da9510bac018046e6e4521dd430320e45fc91cca5378359caa383cfdf8d0b81cce0ed1447af789c2a399a24d42c5b2ca48cb5ef131fe024e818dbac398ea8b2d5014b8e52355943150e4c7ddf85ae789a837ada5781bc5cbee8c46c260f055001c000000000000000000000000000000000000000000000000000000000000",
            "debugEnable": true,
            "errorInfo": "",
            "eventCount": 3,
            "feeRecipient": "0x829bd824b016326a401d083b33d092293333a830",
            "formatValue": "0",
            "gasLimit": 400000,
            "gasPrice": "10",
            "gasUsed": 106145,
            "intTxnCount": 12,
            "internalRevert": false,
            "internalRevertMessage": "",
            "isContractCreation": false,
            "isFlashloan": false,
            "maxFee": "",
            "nonce": 10644,
            "overwritedBlockNumber": -1,
            "priorityFee": "",
            "receiver": "0xcd23f51912ea8fff38815f628277731c25c7fb02",
            "revertMessage": "",
            "sender": "0xf27696c8bca7d54d696189085ae1283f59342fa6",
            "simulationEnable": true,
            "sourceTxnHash": "0xa18cc97e938154e4c81666ca5c297477bf6e9ea1344d248dc8cc65e502c5ee02",
            "status": true,
            "timestamp": "2019-12-22T17:35:17Z",
            "transactionFee": "0.00106145",
            "txnHash": "0xa18cc97e938154e4c81666ca5c297477bf6e9ea1344d248dc8cc65e502c5ee02",
            "txnIndex": 80,
            "type": 0,
            "value": "0"
        },
        "fund_flow": [
            {
                "amount": "5",
                "from": "0x1ecc75440038d16ad754cf2fdc5e5bf2090036fa",
                "id": 1,
                "isERC1155": false,
                "isERC721": false,
                "isReverted": false,
                "order": 1,
                "to": "0x6af233aa3498f59a18f1f81fd73a4663f011b315",
                "token": "0xeeeeeeeeeeeeeeeeeeeeeeeeeeeeeeeeeeeeeeee"
            }
        ],
        "token_infos": [
            {
                "address": "0xc02aaa39b223fe8d0a0e5c4f27ead9083c756cc2",
                "decimals": 18
            },
            {
                "address": "0xeeeeeeeeeeeeeeeeeeeeeeeeeeeeeeeeeeeeeeee",
                "decimals": 18
            }
        ]
    },
    "address_label": {
        "labels": [
            {
                "address": "0x0000000000000000000000000000000000000001",
                "label": "Precompiled"
            },
            {
                "address": "0x0000000000000000000000000000000000000002",
                "label": "Precompiled"
            },
            {
                "address": "0x0000000000000000000000000000000000000003",
                "label": "Precompiled"
            },
            {
                "address": "0x0000000000000000000000000000000000000004",
                "label": "Precompiled"
            },
            {
                "address": "0xb1dd690cc9af7bb1a906a9b5a94f94191cc553ce",
                "label": "BaseWallet"
            },
            {
                "address": "0xcd23f51912ea8fff38815f628277731c25c7fb02",
                "label": "ApprovedTransfer"
            },
            {
                "address": "0xb6029ea3b2c51d09a50b53ca8012feeb05bda35a",
                "label": "Safe: Mastercopy 1.0.0"
            },
            {
                "address": "0x1ecc75440038d16ad754cf2fdc5e5bf2090036fa",
                "label": "Proxy"
            },
            {
                "address": "0xeeeeeeeeeeeeeeeeeeeeeeeeeeeeeeeeeeeeeeee",
                "label": "Ether"
            },
            {
                "address": "0x6af233aa3498f59a18f1f81fd73a4663f011b315",
                "label": "Proxy_6af2_b315"
            },
            {
                "address": "0xf27696c8bca7d54d696189085ae1283f59342fa6",
                "label": "Argent: Relayer 3"
            }
        ]
    },
    "trace": {
        "accountLabels": null,
        "dataMap": {
            "-1": {
                "invocation": {
                    "address": "0xf27696c8bca7d54d696189085ae1283f59342fa6",
                    "callData": "",
                    "decodedMethod": null,
                    "errorInfo": "",
                    "fromAddress": "",
                    "gasUsed": 0,
                    "id": -1,
                    "methodDecoded": false,
                    "operation": "",
                    "output": "",
                    "revert": false,
                    "revertMessage": "",
                    "selector": "",
                    "status": false,
                    "value": ""
                },
                "nodeType": 0
            },
            "0": {
                "invocation": {
                    "address": "0xcd23f51912ea8fff38815f628277731c25c7fb02",
                    "callData": "0x0000000000000000000000001ecc75440038d16ad754cf2fdc5e5bf2090036fa00000000000000000000000000000000000000000000000000000000000000c0000000000000000000000000008b91760000000000000000000000005dffa89c00000000000000000000000000000000000000000000000000000000000001c00000000000000000000000000000000000000000000000000000000000000000000000000000000000000000000000000000000000000000000000000003d09000000000000000000000000000000000000000000000000000000000000000c42df546f40000000000000000000000001ecc75440038d16ad754cf2fdc5e5bf2090036fa000000000000000000000000eeeeeeeeeeeeeeeeeeeeeeeeeeeeeeeeeeeeeeee0000000000000000000000006af233aa3498f59a18f1f81fd73a4663f011b3150000000000000000000000000000000000000000000000004563918244f4000000000000000000000000000000000000000000000000000000000000000000a00000000000000000000000000000000000000000000000000000000000000000000000000000000000000000000000000000000000000000000000000000000000000000000000000000000000000000000000000000000000000082a75e7102389b718fabae574bc9bb800cff8fee474ceb2060f49d4414702aac7a72da9510bac018046e6e4521dd430320e45fc91cca5378359caa383cfdf8d0b81cce0ed1447af789c2a399a24d42c5b2ca48cb5ef131fe024e818dbac398ea8b2d5014b8e52355943150e4c7ddf85ae789a837ada5781bc5cbee8c46c260f055001c000000000000000000000000000000000000000000000000000000000000",
                    "decodedMethod": {
                        "callParams": [
                            {
                                "name": "_wallet",
                                "type": "address",
                                "value": "0x1ecc75440038d16ad754cf2fdc5e5bf2090036fa"
                            },
                            {
                                "name": "_data",
                                "type": "bytes",
                                "value": "0x2df546f40000000000000000000000001ecc75440038d16ad754cf2fdc5e5bf2090036fa000000000000000000000000eeeeeeeeeeeeeeeeeeeeeeeeeeeeeeeeeeeeeeee0000000000000000000000006af233aa3498f59a18f1f81fd73a4663f011b3150000000000000000000000000000000000000000000000004563918244f4000000000000000000000000000000000000000000000000000000000000000000a00000000000000000000000000000000000000000000000000000000000000000"
                            },
                            {
                                "name": "_nonce",
                                "type": "uint256",
                                "value": "3,112,475,017,375,158,523,175,913,983,529,666,435,566,512,284"
                            },
                            {
                                "name": "_signatures",
                                "type": "bytes",
                                "value": "0xa75e7102389b718fabae574bc9bb800cff8fee474ceb2060f49d4414702aac7a72da9510bac018046e6e4521dd430320e45fc91cca5378359caa383cfdf8d0b81cce0ed1447af789c2a399a24d42c5b2ca48cb5ef131fe024e818dbac398ea8b2d5014b8e52355943150e4c7ddf85ae789a837ada5781bc5cbee8c46c260f055001c"
                            },
                            {
                                "name": "_gasPrice",
                                "type": "uint256",
                                "value": "0"
                            },
                            {
                                "name": "_gasLimit",
                                "type": "uint256",
                                "value": "250,000"
                            }
                        ],
                        "constructorArguments": "",
                        "name": "execute",
                        "returnParams": [
                            {
                                "name": "success",
                                "type": "bool",
                                "value": true
                            }
                        ],
                        "signature": "execute(address,bytes,uint256,bytes,uint256,uint256)"
                    },
                    "errorInfo": "",
                    "fromAddress": "0xf27696c8bca7d54d696189085ae1283f59342fa6",
                    "gasUsed": 106145,
                    "id": 0,
                    "methodDecoded": true,
                    "operation": "CALL",
                    "output": "0x0000000000000000000000000000000000000000000000000000000000000001",
                    "revert": false,
                    "revertMessage": "",
                    "selector": "0xaacaaf88",
                    "status": true,
                    "value": "0"
                },
                "nodeType": 0
            },
            "1": {
                "invocation": {
                    "address": "0x44da3a8051ba88eab0440db3779cab9d679ae76f",
                    "callData": "0x0000000000000000000000001ecc75440038d16ad754cf2fdc5e5bf2090036fa",
                    "decodedMethod": {
                        "callParams": [
                            {
                                "name": "_wallet",
                                "type": "address",
                                "value": "0x1ecc75440038d16ad754cf2fdc5e5bf2090036fa"
                            }
                        ],
                        "constructorArguments": "",
                        "name": "guardianCount",
                        "returnParams": [
                            {
                                "name": "_count",
                                "type": "uint256",
                                "value": "1"
                            }
                        ],
                        "signature": "guardianCount(address)"
                    },
                    "errorInfo": "",
                    "fromAddress": "0xcd23f51912ea8fff38815f628277731c25c7fb02",
                    "gasUsed": 1253,
                    "id": 1,
                    "methodDecoded": true,
                    "operation": "STATICCALL",
                    "output": "0x0000000000000000000000000000000000000000000000000000000000000001",
                    "revert": false,
                    "revertMessage": "",
                    "selector": "0x5040fb76",
                    "status": true,
                    "value": "0"
                },
                "nodeType": 0
            },
            "10": {
                "invocation": {
                    "address": "0xb1dd690cc9af7bb1a906a9b5a94f94191cc553ce",
                    "callData": "0x0000000000000000000000006af233aa3498f59a18f1f81fd73a4663f011b3150000000000000000000000000000000000000000000000004563918244f4000000000000000000000000000000000000000000000000000000000000000000600000000000000000000000000000000000000000000000000000000000000000",
                    "decodedMethod": {
                        "callParams": [
                            {
                                "name": "_target",
                                "type": "address",
                                "value": "0x6af233aa3498f59a18f1f81fd73a4663f011b315"
                            },
                            {
                                "name": "_value",
                                "type": "uint256",
                                "value": "5,000,000,000,000,000,000"
                            },
                            {
                                "name": "_data",
                                "type": "bytes",
                                "value": "0x"
                            }
                        ],
                        "constructorArguments": "",
                        "name": "invoke",
                        "returnParams": [],
                        "signature": "invoke(address,uint256,bytes)"
                    },
                    "errorInfo": "",
                    "fromAddress": "0x1ecc75440038d16ad754cf2fdc5e5bf2090036fa",
                    "gasUsed": 13219,
                    "id": 10,
                    "methodDecoded": true,
                    "operation": "DELEGATECALL",
                    "output": "",
                    "revert": false,
                    "revertMessage": "",
                    "selector": "0x8f6f0332",
                    "status": true,
                    "value": "0"
                },
                "nodeType": 0
            },
            "11": {
                "invocation": {
                    "address": "0x6af233aa3498f59a18f1f81fd73a4663f011b315",
                    "callData": "0x",
                    "decodedMethod": null,
                    "errorInfo": "",
                    "fromAddress": "0x1ecc75440038d16ad754cf2fdc5e5bf2090036fa",
                    "gasUsed": 1636,
                    "id": 11,
                    "methodDecoded": false,
                    "operation": "CALL",
                    "output": "",
                    "revert": false,
                    "revertMessage": "",
                    "selector": "fallback",
                    "status": true,
                    "value": "5"
                },
                "nodeType": 0
            },
            "12": {
                "invocation": {
                    "address": "0xb6029ea3b2c51d09a50b53ca8012feeb05bda35a",
                    "callData": "0x",
                    "decodedMethod": null,
                    "errorInfo": "",
                    "fromAddress": "0x6af233aa3498f59a18f1f81fd73a4663f011b315",
                    "gasUsed": 40,
                    "id": 12,
                    "methodDecoded": false,
                    "operation": "DELEGATECALL",
                    "output": "",
                    "revert": false,
                    "revertMessage": "",
                    "selector": "fallback",
                    "status": true,
                    "value": "5"
                },
                "nodeType": 0
            },
            "13": {
                "event": {
                    "contract": "0x1ecc75440038d16ad754cf2fdc5e5bf2090036fa",
                    "decodedLog": {
                        "name": "Invoked",
                        "params": [
                            {
                                "name": "module",
                                "type": "address",
                                "value": "0xcd23f51912ea8fff38815f628277731c25c7fb02"
                            },
                            {
                                "name": "target",
                                "type": "address",
                                "value": "0x6af233aa3498f59a18f1f81fd73a4663f011b315"
                            },
                            {
                                "name": "value",
                                "type": "uint256",
                                "value": "5,000,000,000,000,000,000"
                            },
                            {
                                "name": "data",
                                "type": "bytes",
                                "value": "0x"
                            }
                        ],
                        "signature": "Invoked(address,address,uint256,bytes)"
                    },
                    "id": 13,
                    "logData": "0x00000000000000000000000000000000000000000000000000000000000000200000000000000000000000000000000000000000000000000000000000000000",
                    "logDecoded": true,
                    "operation": "EVENT",
                    "revert": false,
                    "status": true,
                    "topics": [
                        "0x7d2476ab50663f025cff0be85655bcf355f62768615c0c478f3cd5293f807365",
                        "0x000000000000000000000000cd23f51912ea8fff38815f628277731c25c7fb02",
                        "0x0000000000000000000000006af233aa3498f59a18f1f81fd73a4663f011b315",
                        "0x0000000000000000000000000000000000000000000000004563918244f40000"
                    ]
                },
                "nodeType": 1
            },
            "14": {
                "event": {
                    "contract": "0xcd23f51912ea8fff38815f628277731c25c7fb02",
                    "decodedLog": {
                        "name": "Transfer",
                        "params": [
                            {
                                "name": "wallet",
                                "type": "address",
                                "value": "0x1ecc75440038d16ad754cf2fdc5e5bf2090036fa"
                            },
                            {
                                "name": "token",
                                "type": "address",
                                "value": "0xeeeeeeeeeeeeeeeeeeeeeeeeeeeeeeeeeeeeeeee"
                            },
                            {
                                "name": "amount",
                                "type": "uint256",
                                "value": "5,000,000,000,000,000,000"
                            },
                            {
                                "name": "to",
                                "type": "address",
                                "value": "0x6af233aa3498f59a18f1f81fd73a4663f011b315"
                            },
                            {
                                "name": "data",
                                "type": "bytes",
                                "value": "0x"
                            }
                        ],
                        "signature": "Transfer(address,address,uint256,address,bytes)"
                    },
                    "id": 14,
                    "logData": "0x0000000000000000000000006af233aa3498f59a18f1f81fd73a4663f011b31500000000000000000000000000000000000000000000000000000000000000400000000000000000000000000000000000000000000000000000000000000000",
                    "logDecoded": true,
                    "operation": "EVENT",
                    "revert": false,
                    "status": true,
                    "topics": [
                        "0xd5c97f2e041b2046be3b4337472f05720760a198f4d7d84980b7155eec7cca6f",
                        "0x0000000000000000000000001ecc75440038d16ad754cf2fdc5e5bf2090036fa",
                        "0x000000000000000000000000eeeeeeeeeeeeeeeeeeeeeeeeeeeeeeeeeeeeeeee",
                        "0x0000000000000000000000000000000000000000000000004563918244f40000"
                    ]
                },
                "nodeType": 1
            },
            "15": {
                "event": {
                    "contract": "0xcd23f51912ea8fff38815f628277731c25c7fb02",
                    "decodedLog": {
                        "name": "TransactionExecuted",
                        "params": [
                            {
                                "name": "wallet",
                                "type": "address",
                                "value": "0x1ecc75440038d16ad754cf2fdc5e5bf2090036fa"
                            },
                            {
                                "name": "success",
                                "type": "bool",
                                "value": true
                            },
                            {
                                "name": "signedHash",
                                "type": "bytes32",
                                "value": "0x161e55e8c65db2e1a8b4d6df1f4ee83893ba1954edb158093e4e2cfa3ecd2c12"
                            }
                        ],
                        "signature": "TransactionExecuted(address,bool,bytes32)"
                    },
                    "id": 15,
                    "logData": "0x161e55e8c65db2e1a8b4d6df1f4ee83893ba1954edb158093e4e2cfa3ecd2c12",
                    "logDecoded": true,
                    "operation": "EVENT",
                    "revert": false,
                    "status": true,
                    "topics": [
                        "0x6bb0b384ce772133df63560651bc8c727c53306cec1d51e2cbf8ea35fb8f2ec1",
                        "0x0000000000000000000000001ecc75440038d16ad754cf2fdc5e5bf2090036fa",
                        "0x0000000000000000000000000000000000000000000000000000000000000001"
                    ]
                },
                "nodeType": 1
            },
            "2": {
                "invocation": {
                    "address": "0x44da3a8051ba88eab0440db3779cab9d679ae76f",
                    "callData": "0x0000000000000000000000001ecc75440038d16ad754cf2fdc5e5bf2090036fa",
                    "decodedMethod": {
                        "callParams": [
                            {
                                "name": "_wallet",
                                "type": "address",
                                "value": "0x1ecc75440038d16ad754cf2fdc5e5bf2090036fa"
                            }
                        ],
                        "constructorArguments": "",
                        "name": "getGuardians",
                        "returnParams": [
                            {
                                "name": "_guardians",
                                "type": "address[]",
                                "value": [
                                    "0x2f24046cf95a5df595004d35d99a08d50759546f"
                                ]
                            }
                        ],
                        "signature": "getGuardians(address)"
                    },
                    "errorInfo": "",
                    "fromAddress": "0xcd23f51912ea8fff38815f628277731c25c7fb02",
                    "gasUsed": 5358,
                    "id": 2,
                    "methodDecoded": true,
                    "operation": "STATICCALL",
                    "output": "0x000000000000000000000000000000000000000000000000000000000000002000000000000000000000000000000000000000000000000000000000000000010000000000000000000000002f24046cf95a5df595004d35d99a08d50759546f",
                    "revert": false,
                    "revertMessage": "",
                    "selector": "0xf18858ab",
                    "status": true,
                    "value": "0"
                },
                "nodeType": 0
            },
            "3": {
                "invocation": {
                    "address": "0x0000000000000000000000000000000000000001",
                    "callData": "0xc65db2e1a8b4d6df1f4ee83893ba1954edb158093e4e2cfa3ecd2c12000000000000000000000000000000000000000000000000000000000000001ca75e7102389b718fabae574bc9bb800cff8fee474ceb2060f49d4414702aac7a72da9510bac018046e6e4521dd430320e45fc91cca5378359caa383cfdf8d0b8",
                    "decodedMethod": {
                        "callParams": [
                            {
                                "name": "hash",
                                "type": "bytes32",
                                "value": "0x161e55e8c65db2e1a8b4d6df1f4ee83893ba1954edb158093e4e2cfa3ecd2c12"
                            },
                            {
                                "name": "v",
                                "type": "uint256",
                                "value": "28"
                            },
                            {
                                "name": "r",
                                "type": "bytes32",
                                "value": "0xa75e7102389b718fabae574bc9bb800cff8fee474ceb2060f49d4414702aac7a"
                            },
                            {
                                "name": "s",
                                "type": "bytes32",
                                "value": "0x72da9510bac018046e6e4521dd430320e45fc91cca5378359caa383cfdf8d0b8"
                            }
                        ],
                        "constructorArguments": "",
                        "name": "ecrecover",
                        "returnParams": [
                            {
                                "name": "",
                                "type": "address",
                                "value": "0x346a95165d9ccf262651a95410fcb3055c442960"
                            }
                        ],
                        "signature": "ecrecover(bytes32,uint256,bytes32,bytes32)"
                    },
                    "errorInfo": "",
                    "fromAddress": "0xcd23f51912ea8fff38815f628277731c25c7fb02",
                    "gasUsed": 3000,
                    "id": 3,
                    "methodDecoded": true,
                    "operation": "STATICCALL",
                    "output": "0x000000000000000000000000346a95165d9ccf262651a95410fcb3055c442960",
                    "revert": false,
                    "revertMessage": "",
                    "selector": "0x161e55e8",
                    "status": true,
                    "value": "0"
                },
                "nodeType": 0
            },
            "4": {
                "invocation": {
                    "address": "0x1ecc75440038d16ad754cf2fdc5e5bf2090036fa",
                    "callData": "0x",
                    "decodedMethod": {
                        "callParams": [],
                        "constructorArguments": "",
                        "name": "owner",
                        "returnParams": [
                            {
                                "name": "",
                                "type": "address",
                                "value": "0x346a95165d9ccf262651a95410fcb3055c442960"
                            }
                        ],
                        "signature": "owner()"
                    },
                    "errorInfo": "",
                    "fromAddress": "0xcd23f51912ea8fff38815f628277731c25c7fb02",
                    "gasUsed": 2903,
                    "id": 4,
                    "methodDecoded": true,
                    "operation": "STATICCALL",
                    "output": "0x000000000000000000000000346a95165d9ccf262651a95410fcb3055c442960",
                    "revert": false,
                    "revertMessage": "",
                    "selector": "0x8da5cb5b",
                    "status": true,
                    "value": "0"
                },
                "nodeType": 0
            },
            "5": {
                "invocation": {
                    "address": "0xb1dd690cc9af7bb1a906a9b5a94f94191cc553ce",
                    "callData": "0x",
                    "decodedMethod": {
                        "callParams": [],
                        "constructorArguments": "",
                        "name": "owner",
                        "returnParams": [
                            {
                                "name": "",
                                "type": "address",
                                "value": "0x346a95165d9ccf262651a95410fcb3055c442960"
                            }
                        ],
                        "signature": "owner()"
                    },
                    "errorInfo": "",
                    "fromAddress": "0x1ecc75440038d16ad754cf2fdc5e5bf2090036fa",
                    "gasUsed": 1269,
                    "id": 5,
                    "methodDecoded": true,
                    "operation": "DELEGATECALL",
                    "output": "0x000000000000000000000000346a95165d9ccf262651a95410fcb3055c442960",
                    "revert": false,
                    "revertMessage": "",
                    "selector": "0x8da5cb5b",
                    "status": true,
                    "value": "0"
                },
                "nodeType": 0
            },
            "6": {
                "invocation": {
                    "address": "0x0000000000000000000000000000000000000001",
                    "callData": "0xc65db2e1a8b4d6df1f4ee83893ba1954edb158093e4e2cfa3ecd2c12000000000000000000000000000000000000000000000000000000000000001cce0ed1447af789c2a399a24d42c5b2ca48cb5ef131fe024e818dbac398ea8b2d5014b8e52355943150e4c7ddf85ae789a837ada5781bc5cbee8c46c260f05500",
                    "decodedMethod": {
                        "callParams": [
                            {
                                "name": "hash",
                                "type": "bytes32",
                                "value": "0x161e55e8c65db2e1a8b4d6df1f4ee83893ba1954edb158093e4e2cfa3ecd2c12"
                            },
                            {
                                "name": "v",
                                "type": "uint256",
                                "value": "28"
                            },
                            {
                                "name": "r",
                                "type": "bytes32",
                                "value": "0xce0ed1447af789c2a399a24d42c5b2ca48cb5ef131fe024e818dbac398ea8b2d"
                            },
                            {
                                "name": "s",
                                "type": "bytes32",
                                "value": "0x5014b8e52355943150e4c7ddf85ae789a837ada5781bc5cbee8c46c260f05500"
                            }
                        ],
                        "constructorArguments": "",
                        "name": "ecrecover",
                        "returnParams": [
                            {
                                "name": "",
                                "type": "address",
                                "value": "0x2f24046cf95a5df595004d35d99a08d50759546f"
                            }
                        ],
                        "signature": "ecrecover(bytes32,uint256,bytes32,bytes32)"
                    },
                    "errorInfo": "",
                    "fromAddress": "0xcd23f51912ea8fff38815f628277731c25c7fb02",
                    "gasUsed": 3000,
                    "id": 6,
                    "methodDecoded": true,
                    "operation": "STATICCALL",
                    "output": "0x0000000000000000000000002f24046cf95a5df595004d35d99a08d50759546f",
                    "revert": false,
                    "revertMessage": "",
                    "selector": "0x161e55e8",
                    "status": true,
                    "value": "0"
                },
                "nodeType": 0
            },
            "7": {
                "invocation": {
                    "address": "0xcd23f51912ea8fff38815f628277731c25c7fb02",
                    "callData": "0x0000000000000000000000001ecc75440038d16ad754cf2fdc5e5bf2090036fa000000000000000000000000eeeeeeeeeeeeeeeeeeeeeeeeeeeeeeeeeeeeeeee0000000000000000000000006af233aa3498f59a18f1f81fd73a4663f011b3150000000000000000000000000000000000000000000000004563918244f4000000000000000000000000000000000000000000000000000000000000000000a00000000000000000000000000000000000000000000000000000000000000000",
                    "decodedMethod": {
                        "callParams": [
                            {
                                "name": "_wallet",
                                "type": "address",
                                "value": "0x1ecc75440038d16ad754cf2fdc5e5bf2090036fa"
                            },
                            {
                                "name": "_token",
                                "type": "address",
                                "value": "0xeeeeeeeeeeeeeeeeeeeeeeeeeeeeeeeeeeeeeeee"
                            },
                            {
                                "name": "_to",
                                "type": "address",
                                "value": "0x6af233aa3498f59a18f1f81fd73a4663f011b315"
                            },
                            {
                                "name": "_amount",
                                "type": "uint256",
                                "value": "5,000,000,000,000,000,000"
                            },
                            {
                                "name": "_data",
                                "type": "bytes",
                                "value": "0x"
                            }
                        ],
                        "constructorArguments": "",
                        "name": "transferToken",
                        "returnParams": [],
                        "signature": "transferToken(address,address,address,uint256,bytes)"
                    },
                    "errorInfo": "",
                    "fromAddress": "0xcd23f51912ea8fff38815f628277731c25c7fb02",
                    "gasUsed": 24801,
                    "id": 7,
                    "methodDecoded": true,
                    "operation": "CALL",
                    "output": "",
                    "revert": false,
                    "revertMessage": "",
                    "selector": "0x2df546f4",
                    "status": true,
                    "value": "0"
                },
                "nodeType": 0
            },
            "8": {
                "invocation": {
                    "address": "0x44da3a8051ba88eab0440db3779cab9d679ae76f",
                    "callData": "0x0000000000000000000000001ecc75440038d16ad754cf2fdc5e5bf2090036fa",
                    "decodedMethod": {
                        "callParams": [
                            {
                                "name": "account",
                                "type": "address",
                                "value": "0x1ecc75440038d16ad754cf2fdc5e5bf2090036fa"
                            }
                        ],
                        "constructorArguments": "",
                        "name": "isLocked",
                        "returnParams": [
                            {
                                "name": "",
                                "type": "bool",
                                "value": false
                            }
                        ],
                        "signature": "isLocked(address)"
                    },
                    "errorInfo": "",
                    "fromAddress": "0xcd23f51912ea8fff38815f628277731c25c7fb02",
                    "gasUsed": 1248,
                    "id": 8,
                    "methodDecoded": true,
                    "operation": "STATICCALL",
                    "output": "0x0000000000000000000000000000000000000000000000000000000000000000",
                    "revert": false,
                    "revertMessage": "",
                    "selector": "0x4a4fbeec",
                    "status": true,
                    "value": "0"
                },
                "nodeType": 0
            },
            "9": {
                "invocation": {
                    "address": "0x1ecc75440038d16ad754cf2fdc5e5bf2090036fa",
                    "callData": "0x0000000000000000000000006af233aa3498f59a18f1f81fd73a4663f011b3150000000000000000000000000000000000000000000000004563918244f4000000000000000000000000000000000000000000000000000000000000000000600000000000000000000000000000000000000000000000000000000000000000",
                    "decodedMethod": {
                        "callParams": [
                            {
                                "name": "_target",
                                "type": "address",
                                "value": "0x6af233aa3498f59a18f1f81fd73a4663f011b315"
                            },
                            {
                                "name": "_value",
                                "type": "uint256",
                                "value": "5,000,000,000,000,000,000"
                            },
                            {
                                "name": "_data",
                                "type": "bytes",
                                "value": "0x"
                            }
                        ],
                        "constructorArguments": "",
                        "name": "invoke",
                        "returnParams": [],
                        "signature": "invoke(address,uint256,bytes)"
                    },
                    "errorInfo": "",
                    "fromAddress": "0xcd23f51912ea8fff38815f628277731c25c7fb02",
                    "gasUsed": 14868,
                    "id": 9,
                    "methodDecoded": true,
                    "operation": "CALL",
                    "output": "",
                    "revert": false,
                    "revertMessage": "",
                    "selector": "0x8f6f0332",
                    "status": true,
                    "value": "0"
                },
                "nodeType": 0
            }
        },
        "gasFlame": [
            {
                "children": [
                    {
                        "children": [
                            {
                                "children": [],
                                "depth": 0,
                                "name": "Initial Gas",
                                "value": 26396
                            },
                            {
                                "children": [
                                    {
                                        "children": [],
                                        "depth": 1,
                                        "name": "guardianCount",
                                        "value": 1253
                                    },
                                    {
                                        "children": [],
                                        "depth": 1,
                                        "name": "getGuardians",
                                        "value": 5358
                                    },
                                    {
                                        "children": [],
                                        "depth": 1,
                                        "name": "ecrecover",
                                        "value": 3000
                                    },
                                    {
                                        "children": [
                                            {
                                                "children": [],
                                                "depth": 2,
                                                "name": "owner",
                                                "value": 1269
                                            }
                                        ],
                                        "depth": 1,
                                        "name": "owner",
                                        "value": 2903
                                    },
                                    {
                                        "children": [],
                                        "depth": 1,
                                        "name": "ecrecover",
                                        "value": 3000
                                    },
                                    {
                                        "children": [
                                            {
                                                "children": [],
                                                "depth": 2,
                                                "name": "isLocked",
                                                "value": 1248
                                            },
                                            {
                                                "children": [
                                                    {
                                                        "children": [
                                                            {
                                                                "children": [
                                                                    {
                                                                        "children": [],
                                                                        "depth": 5,
                                                                        "name": "fallback",
                                                                        "value": 40
                                                                    }
                                                                ],
                                                                "depth": 4,
                                                                "name": "fallback",
                                                                "value": 1636
                                                            }
                                                        ],
                                                        "depth": 3,
                                                        "name": "invoke",
                                                        "value": 13219
                                                    }
                                                ],
                                                "depth": 2,
                                                "name": "invoke",
                                                "value": 14868
                                            }
                                        ],
                                        "depth": 1,
                                        "name": "transferToken",
                                        "value": 24801
                                    }
                                ],
                                "depth": 0,
                                "name": "Executed Gas",
                                "value": 79749
                            }
                        ],
                        "depth": -1,
                        "name": "Actual Gas Used",
                        "value": 106145
                    },
                    {
                        "children": [],
                        "depth": -1,
                        "name": "Refunded Gas",
                        "value": 0
                    }
                ],
                "depth": -2,
                "name": "Total Gas",
                "value": 106145
            }
        ],
        "isConfirmed": true,
        "mainTrace": [
            {
                "children": [
                    {
                        "children": [
                            {
                                "children": [],
                                "depth": 1,
                                "id": 1,
                                "order": 1
                            },
                            {
                                "children": [],
                                "depth": 1,
                                "id": 2,
                                "order": 2
                            },
                            {
                                "children": [],
                                "depth": 1,
                                "id": 3,
                                "order": 3
                            },
                            {
                                "children": [
                                    {
                                        "children": [],
                                        "depth": 2,
                                        "id": 5,
                                        "order": 5
                                    }
                                ],
                                "depth": 1,
                                "id": 4,
                                "order": 4
                            },
                            {
                                "children": [],
                                "depth": 1,
                                "id": 6,
                                "order": 6
                            },
                            {
                                "children": [
                                    {
                                        "children": [],
                                        "depth": 2,
                                        "id": 8,
                                        "order": 8
                                    },
                                    {
                                        "children": [
                                            {
                                                "children": [
                                                    {
                                                        "children": [
                                                            {
                                                                "children": [],
                                                                "depth": 5,
                                                                "id": 12,
                                                                "order": 12
                                                            }
                                                        ],
                                                        "depth": 4,
                                                        "id": 11,
                                                        "order": 11
                                                    },
                                                    {
                                                        "children": [],
                                                        "depth": 4,
                                                        "id": 13,
                                                        "order": 13
                                                    }
                                                ],
                                                "depth": 3,
                                                "id": 10,
                                                "order": 10
                                            }
                                        ],
                                        "depth": 2,
                                        "id": 9,
                                        "order": 9
                                    },
                                    {
                                        "children": [],
                                        "depth": 2,
                                        "id": 14,
                                        "order": 14
                                    }
                                ],
                                "depth": 1,
                                "id": 7,
                                "order": 7
                            },
                            {
                                "children": [],
                                "depth": 1,
                                "id": 15,
                                "order": 15
                            }
                        ],
                        "depth": 0,
                        "id": 0,
                        "order": 0
                    }
                ],
                "depth": -1,
                "id": -1,
                "order": -1
            }
        ],
        "mainTraceNodeCount": 16,
        "parentIdMap": {
            "0": -1,
            "1": 0,
            "10": 9,
            "11": 10,
            "12": 11,
            "13": 10,
            "14": 7,
            "15": 0,
            "2": 0,
            "3": 0,
            "4": 0,
            "5": 4,
            "6": 0,
            "7": 0,
            "8": 7,
            "9": 7
        },
        "tidyTrace": [
            {
                "children": [
                    {
                        "children": [
                            {
                                "children": [
                                    {
                                        "children": [
                                            {
                                                "children": [
                                                    {
                                                        "children": [
                                                            {
                                                                "children": [],
                                                                "depth": 5,
                                                                "id": 12,
                                                                "order": 12
                                                            }
                                                        ],
                                                        "depth": 4,
                                                        "id": 11,
                                                        "order": 11
                                                    },
                                                    {
                                                        "children": [],
                                                        "depth": 4,
                                                        "id": 13,
                                                        "order": 13
                                                    }
                                                ],
                                                "depth": 3,
                                                "id": 10,
                                                "order": 10
                                            }
                                        ],
                                        "depth": 2,
                                        "id": 9,
                                        "order": 9
                                    },
                                    {
                                        "children": [],
                                        "depth": 2,
                                        "id": 14,
                                        "order": 14
                                    }
                                ],
                                "depth": 1,
                                "id": 7,
                                "order": 7
                            },
                            {
                                "children": [],
                                "depth": 1,
                                "id": 15,
                                "order": 15
                            }
                        ],
                        "depth": 0,
                        "id": 0,
                        "order": 0
                    }
                ],
                "depth": -1,
                "id": -1,
                "order": -1
            }
        ],
        "tidyTraceNodeCount": 9
    },
    "state_change": {
        "stateChanges": [
            {
                "address": "0xcd23f51912ea8fff38815f628277731c25c7fb02",
                "erc": "",
                "slots": [
                    {
                        "current": "0x0000000000000000000000000000000000000000000000000000000000000001",
                        "key": "0xb329c0e4967e4e9a33e954a7378ee7707af63f06d17b90678c882911e535715c",
                        "prev": "0x0000000000000000000000000000000000000000000000000000000000000000"
                    }
                ],
                "storageVariables": [
                    {
                        "name": "relayer",
                        "type": "mapping(address => struct RelayerModule.RelayerConfig)",
                        "value": {
                            "pairs": [
                                {
                                    "key": "0x1ecc75440038d16ad754cf2fdc5e5bf2090036fa",
                                    "value": {
                                        "fields": [
                                            {
                                                "name": "executedTx",
                                                "type": "mapping(bytes32 => bool)",
                                                "value": {
                                                    "pairs": [
                                                        {
                                                            "key": "0x161e55e8c65db2e1a8b4d6df1f4ee83893ba1954edb158093e4e2cfa3ecd2c12",
                                                            "value": {
                                                                "current": "true",
                                                                "prev": "false",
                                                                "typeTag": 1
                                                            }
                                                        }
                                                    ],
                                                    "typeTag": 4
                                                }
                                            }
                                        ],
                                        "typeTag": 3
                                    }
                                }
                            ],
                            "typeTag": 4
                        }
                    }
                ]
            }
        ]
    }
}