{
    "balance_change": {
        "balanceChanges": [
            {
                "account": "0x4d246be90c2f36730bb853ad41d0a189061192d3",
                "assets": [
                    {
                        "address": "0x0000000000004946c0e9f43f4dee607b0ef1fa1c",
                        "amount": "1",
                        "iconUrl": "https://assets.blocksec.com/icon/7dae71f87d4f3e4764f4c12474a5c7c8f4d0ca30c0645a61e6dc68e8de5b2087.png",
                        "isERC1155": false,
                        "isERC721": false,
                        "sign": false,
                        "value": "1.59289391"
                    }
                ]
            },
            {
                "account": "0x0000000000000000000000000000000000000000",
                "assets": [
                    {
                        "address": "0x0000000000004946c0e9f43f4dee607b0ef1fa1c",
                        "amount": "1",
                        "iconUrl": "https://assets.blocksec.com/icon/7dae71f87d4f3e4764f4c12474a5c7c8f4d0ca30c0645a61e6dc68e8de5b2087.png",
                        "isERC1155": false,
                        "isERC721": false,
                        "sign": true,
                        "value": "1.59289391"
                    }
                ]
            }
        ]
    },
    "profile": {
        "basic_info": {
            "baseFee": "",
            "blockNumber": 11702505,
            "callData": "0xc18a84bc00000000000000000000000059d65e9f150efb65999d3017e0d682646cfa9c2a000000000000000000000000000000000000000000000000000000000000004000000000000000000000000000000000000000000000000000000000000000e4e6d468310000000000000000000000000000000000000000000000007987099ba0e6d00000000000000000000000000000000000000000000000000f8949d118d9cc8000000000000000000000000000000000000000000000000000000000000000008000000000000000000000000000000000000000000000000000000000600a31310000000000000000000000000000000000000000000000000000000000000002000000000000000000000000c02aaa39b223fe8d0a0e5c4f27ead9083c756cc20000000000000000000000000d438f3b5175bebc262bf23753c1e53d03432bde00000000000000000000000000000000000000000000000000000000",
            "debugEnable": true,
            "errorInfo": "",
            "eventCount": 2,
            "feeRecipient": "0x829bd824b016326a401d083b33d092293333a830",
            "formatValue": "0",
            "gasLimit": 600000,
            "gasPrice": "333",
            "gasUsed": 61217,
            "intTxnCount": 10,
            "internalRevert": false,
            "internalRevertMessage": "",
            "isContractCreation": false,
            "isFlashloan": false,
            "maxFee": "",
            "nonce": 4080,
            "overwritedBlockNumber": -1,
            "priorityFee": "",
            "receiver": "0x4d246be90c2f36730bb853ad41d0a189061192d3",
            "revertMessage": "",
            "sender": "0x72d7966fb9d3b7ae0344fb92fe2aff0dfab45a89",
            "simulationEnable": true,
            "sourceTxnHash": "0xa118de58fdd55e069c0c69c805cf20040a8559eaae4a7b0392e006bb9ef0aff5",
            "status": true,
            "timestamp": "2021-01-22T01:50:40Z",
            "transactionFee": "0.020385261",
            "txnHash": "0xa118de58fdd55e069c0c69c805cf20040a8559eaae4a7b0392e006bb9ef0aff5",
            "txnIndex": 32,
            "type": 0,
            "value": "0"
        },
        "fund_flow": [
            {
                "amount": "1",
                "from": "0x4d246be90c2f36730bb853ad41d0a189061192d3",
                "id": 1,
                "isERC1155": false,
                "isERC721": false,
                "isReverted": false,
                "order": 1,
                "to": "0x0000000000000000000000000000000000000000",
                "token": "0x0000000000004946c0e9f43f4dee607b0ef1fa1c"
            }
        ],
        "token_infos": [
            {
                "address": "0x0000000000004946c0e9f43f4dee607b0ef1fa1c",
                "decimals": 0
            },
            {
                "address": "0xc02aaa39b223fe8d0a0e5c4f27ead9083c756cc2",
                "decimals": 18
            },
            {
                "address": "0xeeeeeeeeeeeeeeeeeeeeeeeeeeeeeeeeeeeeeeee",
                "decimals": 18
            }
        ]
    },
    "address_label": {
        "labels": [
            {
                "address": "0xeeeeeeeeeeeeeeeeeeeeeeeeeeeeeeeeeeeeeeee",
                "label": "Ether"
            },
            {
                "address": "0xd9e1ce17f2641f24ae83637ab66a2cca9c378b9f",
                "label": "SushiSwap: Router"
            },
            {
                "address": "0x0000000000004946c0e9f43f4dee607b0ef1fa1c",
                "label": "1inch: CHI Token"
            },
            {
                "address": "0xfcff3b04c499a57778ae2cf05584ab24278a7fcb",
                "label": "SushiSwap: wNXM"
            },
            {
                "address": "0x0000000000000000000000000000000000000003",
                "label": "Precompiled"
            },
            {
                "address": "0x0000000000000000000000000000000000000004",
                "label": "Precompiled"
            },
            {
                "address": "0x0d438f3b5175bebc262bf23753c1e53d03432bde",
                "label": "Wrapped NXM: wNXM Token"
            },
            {
                "address": "0x4d246be90c2f36730bb853ad41d0a189061192d3",
                "label": "MEV Bot: 0x4d2...2d3"
            },
            {
                "address": "0xc02aaa39b223fe8d0a0e5c4f27ead9083c756cc2",
                "label": "Wrapped Ether (WETH)"
            },
            {
                "address": "0x0000000000000000000000000000000000000001",
                "label": "Precompiled"
            },
            {
                "address": "0x0000000000000000000000000000000000000002",
                "label": "Precompiled"
            }
        ]
    },
    "trace": {
        "accountLabels": null,
        "dataMap": {
            "-1": {
                "invocation": {
                    "address": "0x72d7966fb9d3b7ae0344fb92fe2aff0dfab45a89",
                    "callData": "",
                    "decodedMethod": null,
                    "errorInfo": "",
                    "fromAddress": "",
                    "gasUsed": 0,
                    "id": -1,
                    "methodDecoded": false,
                    "operation": "",
                    "output": "",
                    "revert": false,
                    "revertMessage": "",
                    "selector": "",
                    "status": false,
                    "value": ""
                },
                "nodeType": 0
            },
            "0": {
                "invocation": {
                    "address": "0x4d246be90c2f36730bb853ad41d0a189061192d3",
                    "callData": "0x00000000000000000000000059d65e9f150efb65999d3017e0d682646cfa9c2a000000000000000000000000000000000000000000000000000000000000004000000000000000000000000000000000000000000000000000000000000000e4e6d468310000000000000000000000000000000000000000000000007987099ba0e6d00000000000000000000000000000000000000000000000000f8949d118d9cc8000000000000000000000000000000000000000000000000000000000000000008000000000000000000000000000000000000000000000000000000000600a31310000000000000000000000000000000000000000000000000000000000000002000000000000000000000000c02aaa39b223fe8d0a0e5c4f27ead9083c756cc20000000000000000000000000d438f3b5175bebc262bf23753c1e53d03432bde00000000000000000000000000000000000000000000000000000000",
                    "decodedMethod": null,
                    "errorInfo": "",
                    "fromAddress": "0x72d7966fb9d3b7ae0344fb92fe2aff0dfab45a89",
                    "gasUsed": 61217,
                    "id": 0,
                    "methodDecoded": false,
                    "operation": "CALL",
                    "output": "",
                    "revert": false,
                    "revertMessage": "",
                    "selector": "0xc18a84bc",
                    "status": true,
                    "value": "0"
                },
                "nodeType": 0
            },
            "1": {
                "invocation": {
                    "address": "0x59d65e9f150efb65999d3017e0d682646cfa9c2a",
                    "callData": "0x0000000000000000000000000000000000000000000000007987099ba0e6d00000000000000000000000000000000000000000000000000f8949d118d9cc8000000000000000000000000000000000000000000000000000000000000000008000000000000000000000000000000000000000000000000000000000600a31310000000000000000000000000000000000000000000000000000000000000002000000000000000000000000c02aaa39b223fe8d0a0e5c4f27ead9083c756cc20000000000000000000000000d438f3b5175bebc262bf23753c1e53d03432bde",
                    "decodedMethod": null,
                    "errorInfo": "",
                    "fromAddress": "0x4d246be90c2f36730bb853ad41d0a189061192d3",
                    "gasUsed": 58930,
                    "id": 1,
                    "methodDecoded": false,
                    "operation": "DELEGATECALL",
                    "output": "",
                    "revert": false,
                    "revertMessage": "",
                    "selector": "0xe6d46831",
                    "status": true,
                    "value": "0"
                },
                "nodeType": 0
            },
            "10": {
                "event": {
                    "contract": "0x0000000000004946c0e9f43f4dee607b0ef1fa1c",
                    "decodedLog": {
                        "name": "Approval",
                        "params": [
                            {
                                "name": "owner",
                                "type": "address",
                                "value": "0x4d246be90c2f36730bb853ad41d0a189061192d3"
                            },
                            {
                                "name": "spender",
                                "type": "address",
                                "value": "0x4d246be90c2f36730bb853ad41d0a189061192d3"
                            },
                            {
                                "decimalAvailable": true,
                                "name": "value",
                                "type": "uint256",
                                "value": "115,792,089,237,316,195,423,570,985,008,687,907,853,269,984,665,640,564,039,457,584,007,913,129,629,556"
                            }
                        ],
                        "signature": "Approval(address,address,uint256)"
                    },
                    "id": 10,
                    "logData": "0xffffffffffffffffffffffffffffffffffffffffffffffffffffffffffffd774",
                    "logDecoded": true,
                    "operation": "EVENT",
                    "revert": false,
                    "status": true,
                    "topics": [
                        "0x8c5be1e5ebec7d5bd14f71427d1e84f3dd0314c0f7b2291e5b200ac8c7c3b925",
                        "0x0000000000000000000000004d246be90c2f36730bb853ad41d0a189061192d3",
                        "0x0000000000000000000000004d246be90c2f36730bb853ad41d0a189061192d3"
                    ]
                },
                "nodeType": 1
            },
            "11": {
                "invocation": {
                    "address": "0x9e2cda0116b05f822ba90d44e9fbc0fb255902f0",
                    "callData": "0x",
                    "decodedMethod": null,
                    "errorInfo": "",
                    "fromAddress": "0x0000000000004946c0e9f43f4dee607b0ef1fa1c",
                    "gasUsed": 5022,
                    "id": 11,
                    "methodDecoded": false,
                    "operation": "CALL",
                    "output": "",
                    "revert": false,
                    "revertMessage": "",
                    "selector": "fallback",
                    "status": true,
                    "value": "0"
                },
                "nodeType": 0
            },
            "12": {
                "invocation": {
                    "address": "0x0000000000004946c0e9f43f4dee607b0ef1fa1c",
                    "callData": "",
                    "decodedMethod": null,
                    "errorInfo": "",
                    "fromAddress": "0x9e2cda0116b05f822ba90d44e9fbc0fb255902f0",
                    "gasUsed": 0,
                    "id": 12,
                    "methodDecoded": false,
                    "operation": "SELFDESTRUCT",
                    "output": "",
                    "revert": false,
                    "revertMessage": "",
                    "selector": "",
                    "status": true,
                    "value": "0"
                },
                "nodeType": 0
            },
            "2": {
                "invocation": {
                    "address": "0xd9e1ce17f2641f24ae83637ab66a2cca9c378b9f",
                    "callData": "0x0000000000000000000000000000000000000000000000007987099ba0e6d00000000000000000000000000000000000000000000000000000000000000000400000000000000000000000000000000000000000000000000000000000000002000000000000000000000000c02aaa39b223fe8d0a0e5c4f27ead9083c756cc20000000000000000000000000d438f3b5175bebc262bf23753c1e53d03432bde",
                    "decodedMethod": {
                        "callParams": [
                            {
                                "name": "amountIn",
                                "type": "uint256",
                                "value": "8,756,978,564,469,280,768"
                            },
                            {
                                "name": "path",
                                "type": "address[]",
                                "value": [
                                    "0xc02aaa39b223fe8d0a0e5c4f27ead9083c756cc2",
                                    "0x0d438f3b5175bebc262bf23753c1e53d03432bde"
                                ]
                            }
                        ],
                        "constructorArguments": "",
                        "name": "getAmountsOut",
                        "returnParams": [
                            {
                                "name": "amounts",
                                "type": "uint256[]",
                                "value": [
                                    "8,756,978,564,469,280,768",
                                    "242,599,284,997,019,972,693"
                                ]
                            }
                        ],
                        "signature": "getAmountsOut(uint256,address[])"
                    },
                    "errorInfo": "",
                    "fromAddress": "0x4d246be90c2f36730bb853ad41d0a189061192d3",
                    "gasUsed": 6164,
                    "id": 2,
                    "methodDecoded": true,
                    "operation": "STATICCALL",
                    "output": "0x000000000000000000000000000000000000000000000000000000000000002000000000000000000000000000000000000000000000000000000000000000020000000000000000000000000000000000000000000000007987099ba0e6d00000000000000000000000000000000000000000000000000d26bdcc5bd320b455",
                    "revert": false,
                    "revertMessage": "",
                    "selector": "0xd06ca61f",
                    "status": true,
                    "value": "0"
                },
                "nodeType": 0
            },
            "3": {
                "invocation": {
                    "address": "0xfcff3b04c499a57778ae2cf05584ab24278a7fcb",
                    "callData": "0x",
                    "decodedMethod": {
                        "callParams": [],
                        "constructorArguments": "",
                        "name": "getReserves",
                        "returnParams": [
                            {
                                "name": "_reserve0",
                                "type": "uint112",
                                "value": "2,169,469,060,137,278,513,697"
                            },
                            {
                                "name": "_reserve1",
                                "type": "uint112",
                                "value": "69,344,543,392,538,666,124"
                            },
                            {
                                "name": "_blockTimestampLast",
                                "type": "uint32",
                                "value": "1,611,264,037"
                            }
                        ],
                        "signature": "getReserves()"
                    },
                    "errorInfo": "",
                    "fromAddress": "0xd9e1ce17f2641f24ae83637ab66a2cca9c378b9f",
                    "gasUsed": 1217,
                    "id": 3,
                    "methodDecoded": true,
                    "operation": "STATICCALL",
                    "output": "0x0000000000000000000000000000000000000000000000759b6e67daeb0c2221000000000000000000000000000000000000000000000003c2594ecff7eda48c000000000000000000000000000000000000000000000000000000006009f025",
                    "revert": false,
                    "revertMessage": "",
                    "selector": "0x0902f1ac",
                    "status": true,
                    "value": "0"
                },
                "nodeType": 0
            },
            "4": {
                "invocation": {
                    "address": "0xd9e1ce17f2641f24ae83637ab66a2cca9c378b9f",
                    "callData": "0x0000000000000000000000000000000000000000000000005104b1126b448aaa00000000000000000000000000000000000000000000000000000000000000400000000000000000000000000000000000000000000000000000000000000002000000000000000000000000c02aaa39b223fe8d0a0e5c4f27ead9083c756cc20000000000000000000000000d438f3b5175bebc262bf23753c1e53d03432bde",
                    "decodedMethod": {
                        "callParams": [
                            {
                                "name": "amountIn",
                                "type": "uint256",
                                "value": "5,837,985,709,646,187,178"
                            },
                            {
                                "name": "path",
                                "type": "address[]",
                                "value": [
                                    "0xc02aaa39b223fe8d0a0e5c4f27ead9083c756cc2",
                                    "0x0d438f3b5175bebc262bf23753c1e53d03432bde"
                                ]
                            }
                        ],
                        "constructorArguments": "",
                        "name": "getAmountsOut",
                        "returnParams": [
                            {
                                "name": "amounts",
                                "type": "uint256[]",
                                "value": [
                                    "5,837,985,709,646,187,178",
                                    "167,994,822,566,329,974,682"
                                ]
                            }
                        ],
                        "signature": "getAmountsOut(uint256,address[])"
                    },
                    "errorInfo": "",
                    "fromAddress": "0x4d246be90c2f36730bb853ad41d0a189061192d3",
                    "gasUsed": 6164,
                    "id": 4,
                    "methodDecoded": true,
                    "operation": "STATICCALL",
                    "output": "0x000000000000000000000000000000000000000000000000000000000000002000000000000000000000000000000000000000000000000000000000000000020000000000000000000000000000000000000000000000005104b1126b448aaa0000000000000000000000000000000000000000000000091b65810ca2dfff9a",
                    "revert": false,
                    "revertMessage": "",
                    "selector": "0xd06ca61f",
                    "status": true,
                    "value": "0"
                },
                "nodeType": 0
            },
            "5": {
                "invocation": {
                    "address": "0xfcff3b04c499a57778ae2cf05584ab24278a7fcb",
                    "callData": "0x",
                    "decodedMethod": {
                        "callParams": [],
                        "constructorArguments": "",
                        "name": "getReserves",
                        "returnParams": [
                            {
                                "name": "_reserve0",
                                "type": "uint112",
                                "value": "2,169,469,060,137,278,513,697"
                            },
                            {
                                "name": "_reserve1",
                                "type": "uint112",
                                "value": "69,344,543,392,538,666,124"
                            },
                            {
                                "name": "_blockTimestampLast",
                                "type": "uint32",
                                "value": "1,611,264,037"
                            }
                        ],
                        "signature": "getReserves()"
                    },
                    "errorInfo": "",
                    "fromAddress": "0xd9e1ce17f2641f24ae83637ab66a2cca9c378b9f",
                    "gasUsed": 1217,
                    "id": 5,
                    "methodDecoded": true,
                    "operation": "STATICCALL",
                    "output": "0x0000000000000000000000000000000000000000000000759b6e67daeb0c2221000000000000000000000000000000000000000000000003c2594ecff7eda48c000000000000000000000000000000000000000000000000000000006009f025",
                    "revert": false,
                    "revertMessage": "",
                    "selector": "0x0902f1ac",
                    "status": true,
                    "value": "0"
                },
                "nodeType": 0
            },
            "6": {
                "invocation": {
                    "address": "0xd9e1ce17f2641f24ae83637ab66a2cca9c378b9f",
                    "callData": "0x0000000000000000000000000000000000000000000000002882588935a2455500000000000000000000000000000000000000000000000000000000000000400000000000000000000000000000000000000000000000000000000000000002000000000000000000000000c02aaa39b223fe8d0a0e5c4f27ead9083c756cc20000000000000000000000000d438f3b5175bebc262bf23753c1e53d03432bde",
                    "decodedMethod": {
                        "callParams": [
                            {
                                "name": "amountIn",
                                "type": "uint256",
                                "value": "2,918,992,854,823,093,589"
                            },
                            {
                                "name": "path",
                                "type": "address[]",
                                "value": [
                                    "0xc02aaa39b223fe8d0a0e5c4f27ead9083c756cc2",
                                    "0x0d438f3b5175bebc262bf23753c1e53d03432bde"
                                ]
                            }
                        ],
                        "constructorArguments": "",
                        "name": "getAmountsOut",
                        "returnParams": [
                            {
                                "name": "amounts",
                                "type": "uint256[]",
                                "value": [
                                    "2,918,992,854,823,093,589",
                                    "87,380,610,045,972,400,438"
                                ]
                            }
                        ],
                        "signature": "getAmountsOut(uint256,address[])"
                    },
                    "errorInfo": "",
                    "fromAddress": "0x4d246be90c2f36730bb853ad41d0a189061192d3",
                    "gasUsed": 6164,
                    "id": 6,
                    "methodDecoded": true,
                    "operation": "STATICCALL",
                    "output": "0x000000000000000000000000000000000000000000000000000000000000002000000000000000000000000000000000000000000000000000000000000000020000000000000000000000000000000000000000000000002882588935a24555000000000000000000000000000000000000000000000004bca649dfdf1d4936",
                    "revert": false,
                    "revertMessage": "",
                    "selector": "0xd06ca61f",
                    "status": true,
                    "value": "0"
                },
                "nodeType": 0
            },
            "7": {
                "invocation": {
                    "address": "0xfcff3b04c499a57778ae2cf05584ab24278a7fcb",
                    "callData": "0x",
                    "decodedMethod": {
                        "callParams": [],
                        "constructorArguments": "",
                        "name": "getReserves",
                        "returnParams": [
                            {
                                "name": "_reserve0",
                                "type": "uint112",
                                "value": "2,169,469,060,137,278,513,697"
                            },
                            {
                                "name": "_reserve1",
                                "type": "uint112",
                                "value": "69,344,543,392,538,666,124"
                            },
                            {
                                "name": "_blockTimestampLast",
                                "type": "uint32",
                                "value": "1,611,264,037"
                            }
                        ],
                        "signature": "getReserves()"
                    },
                    "errorInfo": "",
                    "fromAddress": "0xd9e1ce17f2641f24ae83637ab66a2cca9c378b9f",
                    "gasUsed": 1217,
                    "id": 7,
                    "methodDecoded": true,
                    "operation": "STATICCALL",
                    "output": "0x0000000000000000000000000000000000000000000000759b6e67daeb0c2221000000000000000000000000000000000000000000000003c2594ecff7eda48c000000000000000000000000000000000000000000000000000000006009f025",
                    "revert": false,
                    "revertMessage": "",
                    "selector": "0x0902f1ac",
                    "status": true,
                    "value": "0"
                },
                "nodeType": 0
            },
            "8": {
                "invocation": {
                    "address": "0x0000000000004946c0e9f43f4dee607b0ef1fa1c",
                    "callData": "0x0000000000000000000000004d246be90c2f36730bb853ad41d0a189061192d30000000000000000000000000000000000000000000000000000000000000001",
                    "decodedMethod": {
                        "callParams": [
                            {
                                "name": "from",
                                "type": "address",
                                "value": "0x4d246be90c2f36730bb853ad41d0a189061192d3"
                            },
                            {
                                "name": "value",
                                "type": "uint256",
                                "value": "1"
                            }
                        ],
                        "constructorArguments": "",
                        "name": "freeFromUpTo",
                        "returnParams": [
                            {
                                "name": "",
                                "type": "uint256",
                                "value": "1"
                            }
                        ],
                        "signature": "freeFromUpTo(address,uint256)"
                    },
                    "errorInfo": "",
                    "fromAddress": "0x4d246be90c2f36730bb853ad41d0a189061192d3",
                    "gasUsed": 30609,
                    "id": 8,
                    "methodDecoded": true,
                    "operation": "CALL",
                    "output": "0x0000000000000000000000000000000000000000000000000000000000000001",
                    "revert": false,
                    "revertMessage": "",
                    "selector": "0x079d229f",
                    "status": true,
                    "value": "0"
                },
                "nodeType": 0
            },
            "9": {
                "event": {
                    "contract": "0x0000000000004946c0e9f43f4dee607b0ef1fa1c",
                    "decodedLog": {
                        "name": "Transfer",
                        "params": [
                            {
                                "name": "from",
                                "type": "address",
                                "value": "0x4d246be90c2f36730bb853ad41d0a189061192d3"
                            },
                            {
                                "name": "to",
                                "type": "address",
                                "value": "0x0000000000000000000000000000000000000000"
                            },
                            {
                                "decimalAvailable": true,
                                "name": "value",
                                "type": "uint256",
                                "value": "1"
                            }
                        ],
                        "signature": "Transfer(address,address,uint256)"
                    },
                    "id": 9,
                    "logData": "0x0000000000000000000000000000000000000000000000000000000000000001",
                    "logDecoded": true,
                    "operation": "EVENT",
                    "revert": false,
                    "status": true,
                    "topics": [
                        "0xddf252ad1be2c89b69c2b068fc378daa952ba7f163c4a11628f55a4df523b3ef",
                        "0x0000000000000000000000004d246be90c2f36730bb853ad41d0a189061192d3",
                        "0x0000000000000000000000000000000000000000000000000000000000000000"
                    ]
                },
                "nodeType": 1
            }
        },
        "gasFlame": [
            {
                "children": [
                    {
                        "children": [
                            {
                                "children": [],
                                "depth": 0,
                                "name": "Initial Gas",
                                "value": 23516
                            },
                            {
                                "children": [
                                    {
                                        "children": [
                                            {
                                                "children": [
                                                    {
                                                        "children": [],
                                                        "depth": 3,
                                                        "name": "getReserves",
                                                        "value": 1217
                                                    }
                                                ],
                                                "depth": 2,
                                                "name": "getAmountsOut",
                                                "value": 6164
                                            },
                                            {
                                                "children": [
                                                    {
                                                        "children": [],
                                                        "depth": 3,
                                                        "name": "getReserves",
                                                        "value": 1217
                                                    }
                                                ],
                                                "depth": 2,
                                                "name": "getAmountsOut",
                                                "value": 6164
                                            },
                                            {
                                                "children": [
                                                    {
                                                        "children": [],
                                                        "depth": 3,
                                                        "name": "getReserves",
                                                        "value": 1217
                                                    }
                                                ],
                                                "depth": 2,
                                                "name": "getAmountsOut",
                                                "value": 6164
                                            },
                                            {
                                                "children": [
                                                    {
                                                        "children": [
                                                            {
                                                                "children": [],
                                                                "depth": 4,
                                                                "name": "",
                                                                "value": 0
                                                            }
                                                        ],
                                                        "depth": 3,
                                                        "name": "fallback",
                                                        "value": 5022
                                                    }
                                                ],
                                                "depth": 2,
                                                "name": "freeFromUpTo",
                                                "value": 30609
                                            }
                                        ],
                                        "depth": 1,
                                        "name": "0xe6d46831",
                                        "value": 58930
                                    }
                                ],
                                "depth": 0,
                                "name": "Executed Gas",
                                "value": 61701
                            }
                        ],
                        "depth": -1,
                        "name": "Actual Gas Used",
                        "value": 61217
                    },
                    {
                        "children": [],
                        "depth": -1,
                        "name": "Refunded Gas",
                        "value": 24000
                    }
                ],
                "depth": -2,
                "name": "Total Gas",
                "value": 85217
            }
        ],
        "isConfirmed": true,
        "mainTrace": [
            {
                "children": [
                    {
                        "children": [
                            {
                                "children": [
                                    {
                                        "children": [
                                            {
                                                "children": [],
                                                "depth": 3,
                                                "id": 3,
                                                "order": 3
                                            }
                                        ],
                                        "depth": 2,
                                        "id": 2,
                                        "order": 2
                                    },
                                    {
                                        "children": [
                                            {
                                                "children": [],
                                                "depth": 3,
                                                "id": 5,
                                                "order": 5
                                            }
                                        ],
                                        "depth": 2,
                                        "id": 4,
                                        "order": 4
                                    },
                                    {
                                        "children": [
                                            {
                                                "children": [],
                                                "depth": 3,
                                                "id": 7,
                                                "order": 7
                                            }
                                        ],
                                        "depth": 2,
                                        "id": 6,
                                        "order": 6
                                    },
                                    {
                                        "children": [
                                            {
                                                "children": [],
                                                "depth": 3,
                                                "id": 9,
                                                "order": 9
                                            },
                                            {
                                                "children": [],
                                                "depth": 3,
                                                "id": 10,
                                                "order": 10
                                            },
                                            {
                                                "children": [
                                                    {
                                                        "children": [],
                                                        "depth": 4,
                                                        "id": 12,
                                                        "order": 12
                                                    }
                                                ],
                                                "depth": 3,
                                                "id": 11,
                                                "order": 11
                                            }
                                        ],
                                        "depth": 2,
                                        "id": 8,
                                        "order": 8
                                    }
                                ],
                                "depth": 1,
                                "id": 1,
                                "order": 1
                            }
                        ],
                        "depth": 0,
                        "id": 0,
                        "order": 0
                    }
                ],
                "depth": -1,
                "id": -1,
                "order": -1
            }
        ],
        "mainTraceNodeCount": 13,
        "parentIdMap": {
            "0": -1,
            "1": 0,
            "10": 8,
            "11": 8,
            "12": 11,
            "2": 1,
            "3": 2,
            "4": 1,
            "5": 4,
            "6": 1,
            "7": 6,
            "8": 1,
            "9": 8
        },
        "tidyTrace": [
            {
                "children": [
                    {
                        "children": [
                            {
                                "children": [
                                    {
                                        "children": [
                                            {
                                                "children": [],
                                                "depth": 3,
                                                "id": 9,
                                                "order": 9
                                            },
                                            {
                                                "children": [],
                                                "depth": 3,
                                                "id": 10,
                                                "order": 10
                                            },
                                            {
                                                "children": [
                                                    {
                                                        "children": [],
                                                        "depth": 4,
                                                        "id": 12,
                                                        "order": 12
                                                    }
                                                ],
                                                "depth": 3,
                                                "id": 11,
                                                "order": 11
                                            }
                                        ],
                                        "depth": 2,
                                        "id": 8,
                                        "order": 8
                                    }
                                ],
                                "depth": 1,
                                "id": 1,
                                "order": 1
                            }
                        ],
                        "depth": 0,
                        "id": 0,
                        "order": 0
                    }
                ],
                "depth": -1,
                "id": -1,
                "order": -1
            }
        ],
        "tidyTraceNodeCount": 7
    },
    "state_change": {
        "stateChanges": [
            {
                "address": "0x0000000000004946c0e9f43f4dee607b0ef1fa1c",
                "erc": "ERC-20",
                "slots": [
                    {
                        "current": "0xffffffffffffffffffffffffffffffffffffffffffffffffffffffffffffd774",
                        "key": "0xdd04bb8a0c9e00d4b60ea11f710f001194d8ed54e26e647c524d2c06e461be00",
                        "prev": "0xffffffffffffffffffffffffffffffffffffffffffffffffffffffffffffd775"
                    },
                    {
                        "current": "0x00000000000000000000000000000000000000000000000000000000003f98ad",
                        "key": "0x0000000000000000000000000000000000000000000000000000000000000003",
                        "prev": "0x00000000000000000000000000000000000000000000000000000000003f98ac"
                    },
                    {
                        "current": "0x000000000000000000000000000000000000000000000000000000000000030e",
                        "key": "0x6c649bb2377f4a75dfc7449c5293fb9998a29eaf5cc8fc4213a21d5debb8217f",
                        "prev": "0x000000000000000000000000000000000000000000000000000000000000030f"
                    }
                ],
                "storageVariables": [
                    {
                        "name": "_allowances",
                        "type": "mapping(address => mapping(address => uint256))",
                        "value": {
                            "pairs": [
                                {
                                    "key": "0x4d246be90c2f36730bb853ad41d0a189061192d3",
                                    "value": {
                                        "pairs": [
                                            {
                                                "key": "0x4d246be90c2f36730bb853ad41d0a189061192d3",
                                                "value": {
                                                    "current": "115792089237316195423570985008687907853269984665640564039457584007913129629556",
                                                    "prev": "115792089237316195423570985008687907853269984665640564039457584007913129629557",
                                                    "typeTag": 1
                                                }
                                            }
                                        ],
                                        "typeTag": 4
                                    }
                                }
                            ],
                            "typeTag": 4
                        }
                    },
                    {
                        "name": "totalBurned",
                        "type": "uint256",
                        "value": {
                            "current": "4167853",
                            "prev": "4167852",
                            "typeTag": 1
                        }
                    },
                    {
                        "name": "_balances",
                        "type": "mapping(address => uint256)",
                        "value": {
                            "pairs": [
                                {
                                    "key": "0x4d246be90c2f36730bb853ad41d0a189061192d3",
                                    "value": {
                                        "current": "782",
                                        "prev": "783",
                                        "typeTag": 1
                                    }
                                }
                            ],
                            "typeTag": 4
                        }
                    }
                ]
            }
        ]
    }
}