{
    "balance_change": {
        "balanceChanges": [
            {
                "account": "0xe2d128323cf7560a6e7a82726d7b425aedc7a556",
                "assets": [
                    {
                        "address": "0xeeeeeeeeeeeeeeeeeeeeeeeeeeeeeeeeeeeeeeee",
                        "amount": "0.5",
                        "iconUrl": "https://assets.blocksec.com/image/1663669189317-3.png",
                        "isERC1155": false,
                        "isERC721": false,
                        "sign": false,
                        "value": ""
                    }
                ]
            },
            {
                "account": "0xd1ceeeeee83f8bcf3bedad437202b6154e9f5405",
                "assets": [
                    {
                        "address": "0xeeeeeeeeeeeeeeeeeeeeeeeeeeeeeeeeeeeeeeee",
                        "amount": "0.5",
                        "iconUrl": "https://assets.blocksec.com/image/1663669189317-3.png",
                        "isERC1155": false,
                        "isERC721": false,
                        "sign": true,
                        "value": ""
                    }
                ]
            }
        ]
    },
    "profile": {
        "basic_info": {
            "baseFee": "",
            "blockNumber": 9981755,
            "callData": "0x5e83b4630000000000000000000000000000000000000000000000000000000000000059000000000000000000000000000000000000000000000000000000000000006400000000000000000000000000000000000000000000000000000000009850028b90bf2666bf158965fc38eed8f8a2abb1fc6335dc64285b24a8ea916dc63f70a0b92c861e4c4784796dee86d7b141ec550c5f6208dbb2dbb79a6fb46cf14bf92d9f33bfe7da53cc9a1d84228e571edc8b32cc0f8a4c44d1dde7d88eb80ca0e9",
            "debugEnable": true,
            "errorInfo": "",
            "eventCount": 1,
            "feeRecipient": "0x5a0b54d5dc17e0aadc383d2db43b0a0d3e029c4c",
            "formatValue": "0.5",
            "gasLimit": 150000,
            "gasPrice": "10.7",
            "gasUsed": 79995,
            "intTxnCount": 1,
            "internalRevert": false,
            "internalRevertMessage": "",
            "isContractCreation": false,
            "isFlashloan": false,
            "maxFee": "",
            "nonce": 5649,
            "overwritedBlockNumber": -1,
            "priorityFee": "",
            "receiver": "0xd1ceeeeee83f8bcf3bedad437202b6154e9f5405",
            "revertMessage": "",
            "sender": "0xe2d128323cf7560a6e7a82726d7b425aedc7a556",
            "simulationEnable": true,
            "sourceTxnHash": "0xa1a39ba4fef163d3544cd08e90475d6715504b6ff6e558ec322b6b81f5d5e831",
            "status": true,
            "timestamp": "2020-05-01T17:43:54Z",
            "transactionFee": "0.0008559465",
            "txnHash": "0xa1a39ba4fef163d3544cd08e90475d6715504b6ff6e558ec322b6b81f5d5e831",
            "txnIndex": 66,
            "type": 0,
            "value": "500000000000000000"
        },
        "fund_flow": [
            {
                "amount": "0.5",
                "from": "0xe2d128323cf7560a6e7a82726d7b425aedc7a556",
                "id": 1,
                "isERC1155": false,
                "isERC721": false,
                "isReverted": false,
                "order": 1,
                "to": "0xd1ceeeeee83f8bcf3bedad437202b6154e9f5405",
                "token": "0xeeeeeeeeeeeeeeeeeeeeeeeeeeeeeeeeeeeeeeee"
            }
        ],
        "token_infos": [
            {
                "address": "0xc02aaa39b223fe8d0a0e5c4f27ead9083c756cc2",
                "decimals": 18
            },
            {
                "address": "0xeeeeeeeeeeeeeeeeeeeeeeeeeeeeeeeeeeeeeeee",
                "decimals": 18
            }
        ]
    },
    "address_label": {
        "labels": [
            {
                "address": "0x0000000000000000000000000000000000000001",
                "label": "Precompiled"
            },
            {
                "address": "0x0000000000000000000000000000000000000002",
                "label": "Precompiled"
            },
            {
                "address": "0x0000000000000000000000000000000000000003",
                "label": "Precompiled"
            },
            {
                "address": "0x0000000000000000000000000000000000000004",
                "label": "Precompiled"
            },
            {
                "address": "0xeeeeeeeeeeeeeeeeeeeeeeeeeeeeeeeeeeeeeeee",
                "label": "Ether"
            },
            {
                "address": "0xd1ceeeeee83f8bcf3bedad437202b6154e9f5405",
                "label": "Dice2Win"
            }
        ]
    },
    "trace": {
        "accountLabels": null,
        "dataMap": {
            "-1": {
                "invocation": {
                    "address": "0xe2d128323cf7560a6e7a82726d7b425aedc7a556",
                    "callData": "",
                    "decodedMethod": null,
                    "errorInfo": "",
                    "fromAddress": "",
                    "gasUsed": 0,
                    "id": -1,
                    "methodDecoded": false,
                    "operation": "",
                    "output": "",
                    "revert": false,
                    "revertMessage": "",
                    "selector": "",
                    "status": false,
                    "value": ""
                },
                "nodeType": 0
            },
            "0": {
                "invocation": {
                    "address": "0xd1ceeeeee83f8bcf3bedad437202b6154e9f5405",
                    "callData": "0x0000000000000000000000000000000000000000000000000000000000000059000000000000000000000000000000000000000000000000000000000000006400000000000000000000000000000000000000000000000000000000009850028b90bf2666bf158965fc38eed8f8a2abb1fc6335dc64285b24a8ea916dc63f70a0b92c861e4c4784796dee86d7b141ec550c5f6208dbb2dbb79a6fb46cf14bf92d9f33bfe7da53cc9a1d84228e571edc8b32cc0f8a4c44d1dde7d88eb80ca0e9",
                    "decodedMethod": {
                        "callParams": [
                            {
                                "name": "betMask",
                                "type": "uint256",
                                "value": "89"
                            },
                            {
                                "name": "modulo",
                                "type": "uint256",
                                "value": "100"
                            },
                            {
                                "name": "commitLastBlock",
                                "type": "uint256",
                                "value": "9,981,954"
                            },
                            {
                                "name": "commit",
                                "type": "uint256",
                                "value": "63,127,231,199,252,786,877,727,224,060,702,313,948,128,053,263,359,759,081,547,836,121,881,696,943,984"
                            },
                            {
                                "name": "r",
                                "type": "bytes32",
                                "value": "0xa0b92c861e4c4784796dee86d7b141ec550c5f6208dbb2dbb79a6fb46cf14bf9"
                            },
                            {
                                "name": "s",
                                "type": "bytes32",
                                "value": "0x2d9f33bfe7da53cc9a1d84228e571edc8b32cc0f8a4c44d1dde7d88eb80ca0e9"
                            }
                        ],
                        "constructorArguments": "",
                        "name": "placeBet",
                        "returnParams": [],
                        "signature": "placeBet(uint256,uint256,uint256,uint256,bytes32,bytes32)"
                    },
                    "errorInfo": "",
                    "fromAddress": "0xe2d128323cf7560a6e7a82726d7b425aedc7a556",
                    "gasUsed": 79995,
                    "id": 0,
                    "methodDecoded": true,
                    "operation": "CALL",
                    "output": "",
                    "revert": false,
                    "revertMessage": "",
                    "selector": "0x5e83b463",
                    "status": true,
                    "value": "0.5"
                },
                "nodeType": 0
            },
            "1": {
                "invocation": {
                    "address": "0x0000000000000000000000000000000000000001",
                    "callData": "0x34846650d8c27329a32eb025e6c7dacd151d1e745fb52e5ea62d20ce000000000000000000000000000000000000000000000000000000000000001ba0b92c861e4c4784796dee86d7b141ec550c5f6208dbb2dbb79a6fb46cf14bf92d9f33bfe7da53cc9a1d84228e571edc8b32cc0f8a4c44d1dde7d88eb80ca0e9",
                    "decodedMethod": {
                        "callParams": [
                            {
                                "name": "hash",
                                "type": "bytes32",
                                "value": "0x5571305934846650d8c27329a32eb025e6c7dacd151d1e745fb52e5ea62d20ce"
                            },
                            {
                                "name": "v",
                                "type": "uint256",
                                "value": "27"
                            },
                            {
                                "name": "r",
                                "type": "bytes32",
                                "value": "0xa0b92c861e4c4784796dee86d7b141ec550c5f6208dbb2dbb79a6fb46cf14bf9"
                            },
                            {
                                "name": "s",
                                "type": "bytes32",
                                "value": "0x2d9f33bfe7da53cc9a1d84228e571edc8b32cc0f8a4c44d1dde7d88eb80ca0e9"
                            }
                        ],
                        "constructorArguments": "",
                        "name": "ecrecover",
                        "returnParams": [
                            {
                                "name": "",
                                "type": "address",
                                "value": "0xb00b5ca7ec0502f2f269e99b91ebbccbce9cccec"
                            }
                        ],
                        "signature": "ecrecover(bytes32,uint256,bytes32,bytes32)"
                    },
                    "errorInfo": "",
                    "fromAddress": "0xd1ceeeeee83f8bcf3bedad437202b6154e9f5405",
                    "gasUsed": 3000,
                    "id": 1,
                    "methodDecoded": true,
                    "operation": "CALL",
                    "output": "0x000000000000000000000000b00b5ca7ec0502f2f269e99b91ebbccbce9cccec",
                    "revert": false,
                    "revertMessage": "",
                    "selector": "0x55713059",
                    "status": true,
                    "value": "0"
                },
                "nodeType": 0
            },
            "2": {
                "event": {
                    "contract": "0xd1ceeeeee83f8bcf3bedad437202b6154e9f5405",
                    "decodedLog": {
                        "name": "Commit",
                        "params": [
                            {
                                "name": "commit",
                                "type": "uint256",
                                "value": "63,127,231,199,252,786,877,727,224,060,702,313,948,128,053,263,359,759,081,547,836,121,881,696,943,984"
                            }
                        ],
                        "signature": "Commit(uint256)"
                    },
                    "id": 2,
                    "logData": "0x8b90bf2666bf158965fc38eed8f8a2abb1fc6335dc64285b24a8ea916dc63f70",
                    "logDecoded": true,
                    "operation": "EVENT",
                    "revert": false,
                    "status": true,
                    "topics": [
                        "0x5bdd2fc99022530157777690475b670d3872f32262eb1d47d9ba8000dad58f87"
                    ]
                },
                "nodeType": 1
            }
        },
        "gasFlame": [
            {
                "children": [
                    {
                        "children": [
                            {
                                "children": [],
                                "depth": 0,
                                "name": "Initial Gas",
                                "value": 23044
                            },
                            {
                                "children": [
                                    {
                                        "children": [],
                                        "depth": 1,
                                        "name": "ecrecover",
                                        "value": 3000
                                    }
                                ],
                                "depth": 0,
                                "name": "Executed Gas",
                                "value": 56951
                            }
                        ],
                        "depth": -1,
                        "name": "Actual Gas Used",
                        "value": 79995
                    },
                    {
                        "children": [],
                        "depth": -1,
                        "name": "Refunded Gas",
                        "value": 0
                    }
                ],
                "depth": -2,
                "name": "Total Gas",
                "value": 79995
            }
        ],
        "isConfirmed": true,
        "mainTrace": [
            {
                "children": [
                    {
                        "children": [
                            {
                                "children": [],
                                "depth": 1,
                                "id": 1,
                                "order": 1
                            },
                            {
                                "children": [],
                                "depth": 1,
                                "id": 2,
                                "order": 2
                            }
                        ],
                        "depth": 0,
                        "id": 0,
                        "order": 0
                    }
                ],
                "depth": -1,
                "id": -1,
                "order": -1
            }
        ],
        "mainTraceNodeCount": 3,
        "parentIdMap": {
            "0": -1,
            "1": 0,
            "2": 0
        },
        "tidyTrace": [
            {
                "children": [
                    {
                        "children": [
                            {
                                "children": [],
                                "depth": 1,
                                "id": 1,
                                "order": 1
                            },
                            {
                                "children": [],
                                "depth": 1,
                                "id": 2,
                                "order": 2
                            }
                        ],
                        "depth": 0,
                        "id": 0,
                        "order": 0
                    }
                ],
                "depth": -1,
                "id": -1,
                "order": -1
            }
        ],
        "tidyTraceNodeCount": 3
    },
    "state_change": {
        "stateChanges": [
            {
                "address": "0xd1ceeeeee83f8bcf3bedad437202b6154e9f5405",
                "erc": "",
                "slots": [
                    {
                        "current": "0x00000000000000005a3de5de43c3f702000000000000000007221846d68d0000",
                        "key": "0x0000000000000000000000000000000000000000000000000000000000000004",
                        "prev": "0x00000000000000005289f136a9dfe0000000000000000000071e8ac831c68000"
                    },
                    {
                        "current": "0x00000000000000000000000000000000000000000000000006f05b59d3b20000",
                        "key": "0xe2ef8909d9840a9bf2c925058e18dce1a922feb8fa133cbbbf2f5ddc1a325b42",
                        "prev": "0x0000000000000000000000000000000000000000000000000000000000000000"
                    },
                    {
                        "current": "0xe2d128323cf7560a6e7a82726d7b425aedc7a55600000000000000984f3b5964",
                        "key": "0xe2ef8909d9840a9bf2c925058e18dce1a922feb8fa133cbbbf2f5ddc1a325b43",
                        "prev": "0x0000000000000000000000000000000000000000000000000000000000000000"
                    }
                ],
                "storageVariables": [
                    {
                        "name": "bets",
                        "type": "mapping(uint256 => struct Dice2Win.Bet)",
                        "value": {
                            "pairs": [
                                {
                                    "key": "63127231199252786877727224060702313948128053263359759081547836121881696943984",
                                    "value": {
                                        "fields": [
                                            {
                                                "name": "amount",
                                                "type": "uint256",
                                                "value": {
                                                    "current": "500000000000000000",
                                                    "prev": "0",
                                                    "typeTag": 1
                                                }
                                            },
                                            {
                                                "name": "modulo",
                                                "type": "uint8",
                                                "value": {
                                                    "current": "100",
                                                    "prev": "0",
                                                    "typeTag": 1
                                                }
                                            },
                                            {
                                                "name": "rollUnder",
                                                "type": "uint8",
                                                "value": {
                                                    "current": "89",
                                                    "prev": "0",
                                                    "typeTag": 1
                                                }
                                            },
                                            {
                                                "name": "placeBlockNumber",
                                                "type": "uint40",
                                                "value": {
                                                    "current": "9981755",
                                                    "prev": "0",
                                                    "typeTag": 1
                                                }
                                            },
                                            {
                                                "name": "mask",
                                                "type": "uint40",
                                                "value": {
                                                    "current": "0",
                                                    "prev": "0",
                                                    "typeTag": 1
                                                }
                                            },
                                            {
                                                "name": "gambler",
                                                "type": "address",
                                                "value": {
                                                    "current": "0xe2d128323cf7560a6e7a82726d7b425aedc7a556",
                                                    "prev": "0x0000000000000000000000000000000000000000",
                                                    "typeTag": 1
                                                }
                                            }
                                        ],
                                        "typeTag": 3
                                    }
                                }
                            ],
                            "typeTag": 4
                        }
                    },
                    {
                        "name": "jackpotSize",
                        "type": "uint128",
                        "value": {
                            "current": "514000000000000000",
                            "prev": "513000000000000000",
                            "typeTag": 1
                        }
                    },
                    {
                        "name": "lockedInBets",
                        "type": "uint128",
                        "value": {
                            "current": "6502606179775280898",
                            "prev": "5947550000000000000",
                            "typeTag": 1
                        }
                    }
                ]
            }
        ]
    }
}