{
    "balance_change": {
        "balanceChanges": [
            {
                "account": "0x078421a34a002bb0ccdea64ea678e1195a3f1a32",
                "assets": [
                    {
                        "address": "0x3d96695dec050d1d57feaa22b42078bc12f557d1",
                        "amount": "98.5",
                        "iconUrl": "",
                        "isERC1155": false,
                        "isERC721": false,
                        "sign": false,
                        "value": ""
                    }
                ]
            },
            {
                "account": "0xa0508a5dcf1becc07e1e5c4a74a4824d7eefb536",
                "assets": [
                    {
                        "address": "0x3d96695dec050d1d57feaa22b42078bc12f557d1",
                        "amount": "98.5",
                        "iconUrl": "",
                        "isERC1155": false,
                        "isERC721": false,
                        "sign": true,
                        "value": ""
                    }
                ]
            }
        ]
    },
    "profile": {
        "basic_info": {
            "baseFee": "",
            "blockNumber": 8339873,
            "callData": "0xa9059cbb000000000000000000000000a0508a5dcf1becc07e1e5c4a74a4824d7eefb53600000000000000000000000000000000000000000000000000000000000f07a8",
            "debugEnable": true,
            "errorInfo": "",
            "eventCount": 1,
            "feeRecipient": "0x9d6d492bd500da5b33cf95a5d610a73360fcaaa0",
            "formatValue": "0",
            "gasLimit": 250000,
            "gasPrice": "10",
            "gasUsed": 51394,
            "intTxnCount": 0,
            "internalRevert": false,
            "internalRevertMessage": "",
            "isContractCreation": false,
            "isFlashloan": false,
            "maxFee": "",
            "nonce": 11793,
            "overwritedBlockNumber": -1,
            "priorityFee": "",
            "receiver": "0x3d96695dec050d1d57feaa22b42078bc12f557d1",
            "revertMessage": "",
            "sender": "0x078421a34a002bb0ccdea64ea678e1195a3f1a32",
            "simulationEnable": true,
            "sourceTxnHash": "0xa1598d95114db5513b465560ed37aa4130f3a2d74e7c9a031fd59693f60c0e14",
            "status": true,
            "timestamp": "2019-08-13T03:48:56Z",
            "transactionFee": "0.00051394",
            "txnHash": "0xa1598d95114db5513b465560ed37aa4130f3a2d74e7c9a031fd59693f60c0e14",
            "txnIndex": 78,
            "type": 0,
            "value": "0"
        },
        "fund_flow": [
            {
                "amount": "98.5",
                "from": "0x078421a34a002bb0ccdea64ea678e1195a3f1a32",
                "id": 1,
                "isERC1155": false,
                "isERC721": false,
                "isReverted": false,
                "order": 1,
                "to": "0xa0508a5dcf1becc07e1e5c4a74a4824d7eefb536",
                "token": "0x3d96695dec050d1d57feaa22b42078bc12f557d1"
            }
        ],
        "token_infos": [
            {
                "address": "0x3d96695dec050d1d57feaa22b42078bc12f557d1",
                "decimals": 4
            },
            {
                "address": "0xc02aaa39b223fe8d0a0e5c4f27ead9083c756cc2",
                "decimals": 18
            },
            {
                "address": "0xeeeeeeeeeeeeeeeeeeeeeeeeeeeeeeeeeeeeeeee",
                "decimals": 18
            }
        ]
    },
    "address_label": {
        "labels": [
            {
                "address": "0xeeeeeeeeeeeeeeeeeeeeeeeeeeeeeeeeeeeeeeee",
                "label": "Ether"
            },
            {
                "address": "0x3d96695dec050d1d57feaa22b42078bc12f557d1",
                "label": "Hiscoin (HVCC)"
            },
            {
                "address": "0x0000000000000000000000000000000000000001",
                "label": "Precompiled"
            },
            {
                "address": "0x0000000000000000000000000000000000000002",
                "label": "Precompiled"
            },
            {
                "address": "0x0000000000000000000000000000000000000003",
                "label": "Precompiled"
            },
            {
                "address": "0x0000000000000000000000000000000000000004",
                "label": "Precompiled"
            }
        ]
    },
    "trace": {
        "accountLabels": null,
        "dataMap": {
            "-1": {
                "invocation": {
                    "address": "0x078421a34a002bb0ccdea64ea678e1195a3f1a32",
                    "callData": "",
                    "decodedMethod": null,
                    "errorInfo": "",
                    "fromAddress": "",
                    "gasUsed": 0,
                    "id": -1,
                    "methodDecoded": false,
                    "operation": "",
                    "output": "",
                    "revert": false,
                    "revertMessage": "",
                    "selector": "",
                    "status": false,
                    "value": ""
                },
                "nodeType": 0
            },
            "0": {
                "invocation": {
                    "address": "0x3d96695dec050d1d57feaa22b42078bc12f557d1",
                    "callData": "0x000000000000000000000000a0508a5dcf1becc07e1e5c4a74a4824d7eefb53600000000000000000000000000000000000000000000000000000000000f07a8",
                    "decodedMethod": {
                        "callParams": [
                            {
                                "name": "_to",
                                "type": "address",
                                "value": "0xa0508a5dcf1becc07e1e5c4a74a4824d7eefb536"
                            },
                            {
                                "decimalAvailable": true,
                                "name": "_value",
                                "type": "uint256",
                                "value": "985,000"
                            }
                        ],
                        "constructorArguments": "",
                        "name": "transfer",
                        "returnParams": [
                            {
                                "name": "success",
                                "type": "bool",
                                "value": true
                            }
                        ],
                        "signature": "transfer(address,uint256)"
                    },
                    "errorInfo": "",
                    "fromAddress": "0x078421a34a002bb0ccdea64ea678e1195a3f1a32",
                    "gasUsed": 51394,
                    "id": 0,
                    "methodDecoded": true,
                    "operation": "CALL",
                    "output": "0x0000000000000000000000000000000000000000000000000000000000000001",
                    "revert": false,
                    "revertMessage": "",
                    "selector": "0xa9059cbb",
                    "status": true,
                    "value": "0"
                },
                "nodeType": 0
            },
            "1": {
                "event": {
                    "contract": "0x3d96695dec050d1d57feaa22b42078bc12f557d1",
                    "decodedLog": {
                        "name": "Transfer",
                        "params": [
                            {
                                "name": "_from",
                                "type": "address",
                                "value": "0x078421a34a002bb0ccdea64ea678e1195a3f1a32"
                            },
                            {
                                "name": "_to",
                                "type": "address",
                                "value": "0xa0508a5dcf1becc07e1e5c4a74a4824d7eefb536"
                            },
                            {
                                "decimalAvailable": true,
                                "name": "_value",
                                "type": "uint256",
                                "value": "985,000"
                            }
                        ],
                        "signature": "Transfer(address,address,uint256)"
                    },
                    "id": 1,
                    "logData": "0x00000000000000000000000000000000000000000000000000000000000f07a8",
                    "logDecoded": true,
                    "operation": "EVENT",
                    "revert": false,
                    "status": true,
                    "topics": [
                        "0xddf252ad1be2c89b69c2b068fc378daa952ba7f163c4a11628f55a4df523b3ef",
                        "0x000000000000000000000000078421a34a002bb0ccdea64ea678e1195a3f1a32",
                        "0x000000000000000000000000a0508a5dcf1becc07e1e5c4a74a4824d7eefb536"
                    ]
                },
                "nodeType": 1
            }
        },
        "gasFlame": [
            {
                "children": [
                    {
                        "children": [
                            {
                                "children": [],
                                "depth": 0,
                                "name": "Initial Gas",
                                "value": 23000
                            },
                            {
                                "children": [],
                                "depth": 0,
                                "name": "Executed Gas",
                                "value": 28394
                            }
                        ],
                        "depth": -1,
                        "name": "Actual Gas Used",
                        "value": 51394
                    },
                    {
                        "children": [],
                        "depth": -1,
                        "name": "Refunded Gas",
                        "value": 0
                    }
                ],
                "depth": -2,
                "name": "Total Gas",
                "value": 51394
            }
        ],
        "isConfirmed": true,
        "mainTrace": [
            {
                "children": [
                    {
                        "children": [
                            {
                                "children": [],
                                "depth": 1,
                                "id": 1,
                                "order": 1
                            }
                        ],
                        "depth": 0,
                        "id": 0,
                        "order": 0
                    }
                ],
                "depth": -1,
                "id": -1,
                "order": -1
            }
        ],
        "mainTraceNodeCount": 2,
        "parentIdMap": {
            "0": -1,
            "1": 0
        },
        "tidyTrace": [
            {
                "children": [
                    {
                        "children": [
                            {
                                "children": [],
                                "depth": 1,
                                "id": 1,
                                "order": 1
                            }
                        ],
                        "depth": 0,
                        "id": 0,
                        "order": 0
                    }
                ],
                "depth": -1,
                "id": -1,
                "order": -1
            }
        ],
        "tidyTraceNodeCount": 2
    },
    "state_change": {
        "stateChanges": [
            {
                "address": "0x3d96695dec050d1d57feaa22b42078bc12f557d1",
                "erc": "ERC-20",
                "slots": [
                    {
                        "current": "0x0000000000000000000000000000000000000000000000000000001305753c0e",
                        "key": "0xadbd741f8534ec65977b15ce8a7cfd9ce5b9b6c655d36e607df4ce4b300ba29e",
                        "prev": "0x00000000000000000000000000000000000000000000000000000013058443b6"
                    },
                    {
                        "current": "0x00000000000000000000000000000000000000000000000000000000000f07a8",
                        "key": "0x9ba7ec05eae9aff184de09b2d47bd9cbb841a4861cad4355d26f85a5e8a9e85b",
                        "prev": "0x0000000000000000000000000000000000000000000000000000000000000000"
                    }
                ],
                "storageVariables": []
            }
        ]
    }
}