{
    "balance_change": {
        "balanceChanges": []
    },
    "profile": {
        "basic_info": {
            "baseFee": "",
            "blockNumber": 7407761,
            "callData": "0xe1fa8e84816d4c1e877bf6cc6ae096c418f4559afa4058fdb45930212ef5656cfffc0505",
            "debugEnable": true,
            "errorInfo": "",
            "eventCount": 1,
            "feeRecipient": "0x5a0b54d5dc17e0aadc383d2db43b0a0d3e029c4c",
            "formatValue": "0",
            "gasLimit": 1600000,
            "gasPrice": "4",
            "gasUsed": 65864,
            "intTxnCount": 0,
            "internalRevert": false,
            "internalRevertMessage": "",
            "isContractCreation": false,
            "isFlashloan": false,
            "maxFee": "",
            "nonce": 559364,
            "overwritedBlockNumber": -1,
            "priorityFee": "",
            "receiver": "0xcd111aa492a9c77a367c36e6d6af8e6f212e0c8e",
            "revertMessage": "",
            "sender": "0x00472c1e4275230354dbe5007a5976053f12610a",
            "simulationEnable": true,
            "sourceTxnHash": "0xa128f38020f4898afb436af92c241c2e9a4fab398118ccb9ab98d07cbdde00f0",
            "status": true,
            "timestamp": "2019-03-20T20:02:47Z",
            "transactionFee": "0.000263456",
            "txnHash": "0xa128f38020f4898afb436af92c241c2e9a4fab398118ccb9ab98d07cbdde00f0",
            "txnIndex": 31,
            "type": 0,
            "value": "0"
        },
        "fund_flow": [],
        "token_infos": [
            {
                "address": "0xc02aaa39b223fe8d0a0e5c4f27ead9083c756cc2",
                "decimals": 18
            },
            {
                "address": "0xeeeeeeeeeeeeeeeeeeeeeeeeeeeeeeeeeeeeeeee",
                "decimals": 18
            }
        ]
    },
    "address_label": {
        "labels": [
            {
                "address": "0xeeeeeeeeeeeeeeeeeeeeeeeeeeeeeeeeeeeeeeee",
                "label": "Ether"
            },
            {
                "address": "0x00472c1e4275230354dbe5007a5976053f12610a",
                "label": "Acronis"
            },
            {
                "address": "0xcd111aa492a9c77a367c36e6d6af8e6f212e0c8e",
                "label": "Acronis: Contract"
            },
            {
                "address": "0x0000000000000000000000000000000000000001",
                "label": "Precompiled"
            },
            {
                "address": "0x0000000000000000000000000000000000000002",
                "label": "Precompiled"
            },
            {
                "address": "0x0000000000000000000000000000000000000003",
                "label": "Precompiled"
            },
            {
                "address": "0x0000000000000000000000000000000000000004",
                "label": "Precompiled"
            }
        ]
    },
    "trace": {
        "accountLabels": null,
        "dataMap": {
            "-1": {
                "invocation": {
                    "address": "0x00472c1e4275230354dbe5007a5976053f12610a",
                    "callData": "",
                    "decodedMethod": null,
                    "errorInfo": "",
                    "fromAddress": "",
                    "gasUsed": 0,
                    "id": -1,
                    "methodDecoded": false,
                    "operation": "",
                    "output": "",
                    "revert": false,
                    "revertMessage": "",
                    "selector": "",
                    "status": false,
                    "value": ""
                },
                "nodeType": 0
            },
            "0": {
                "invocation": {
                    "address": "0xcd111aa492a9c77a367c36e6d6af8e6f212e0c8e",
                    "callData": "0x816d4c1e877bf6cc6ae096c418f4559afa4058fdb45930212ef5656cfffc0505",
                    "decodedMethod": {
                        "callParams": [
                            {
                                "name": "id",
                                "type": "bytes32",
                                "value": "0x816d4c1e877bf6cc6ae096c418f4559afa4058fdb45930212ef5656cfffc0505"
                            }
                        ],
                        "constructorArguments": "",
                        "name": "register",
                        "returnParams": [],
                        "signature": "register(bytes32)"
                    },
                    "errorInfo": "",
                    "fromAddress": "0x00472c1e4275230354dbe5007a5976053f12610a",
                    "gasUsed": 65864,
                    "id": 0,
                    "methodDecoded": true,
                    "operation": "CALL",
                    "output": "",
                    "revert": false,
                    "revertMessage": "",
                    "selector": "0xe1fa8e84",
                    "status": true,
                    "value": "0"
                },
                "nodeType": 0
            },
            "1": {
                "event": {
                    "contract": "0xcd111aa492a9c77a367c36e6d6af8e6f212e0c8e",
                    "decodedLog": null,
                    "id": 1,
                    "logData": "0x816d4c1e877bf6cc6ae096c418f4559afa4058fdb45930212ef5656cfffc0505",
                    "logDecoded": false,
                    "operation": "EVENT",
                    "revert": false,
                    "status": true,
                    "topics": [
                        "0x78e4fc71ff7e525b3b4660a76336a2046232fd9bba9c65abb22fa3d07d6e7066"
                    ]
                },
                "nodeType": 1
            }
        },
        "gasFlame": [
            {
                "children": [
                    {
                        "children": [
                            {
                                "children": [],
                                "depth": 0,
                                "name": "Initial Gas",
                                "value": 23448
                            },
                            {
                                "children": [],
                                "depth": 0,
                                "name": "Executed Gas",
                                "value": 42416
                            }
                        ],
                        "depth": -1,
                        "name": "Actual Gas Used",
                        "value": 65864
                    },
                    {
                        "children": [],
                        "depth": -1,
                        "name": "Refunded Gas",
                        "value": 0
                    }
                ],
                "depth": -2,
                "name": "Total Gas",
                "value": 65864
            }
        ],
        "isConfirmed": true,
        "mainTrace": [
            {
                "children": [
                    {
                        "children": [
                            {
                                "children": [],
                                "depth": 1,
                                "id": 1,
                                "order": 1
                            }
                        ],
                        "depth": 0,
                        "id": 0,
                        "order": 0
                    }
                ],
                "depth": -1,
                "id": -1,
                "order": -1
            }
        ],
        "mainTraceNodeCount": 2,
        "parentIdMap": {
            "0": -1,
            "1": 0
        },
        "tidyTrace": [
            {
                "children": [
                    {
                        "children": [
                            {
                                "children": [],
                                "depth": 1,
                                "id": 1,
                                "order": 1
                            }
                        ],
                        "depth": 0,
                        "id": 0,
                        "order": 0
                    }
                ],
                "depth": -1,
                "id": -1,
                "order": -1
            }
        ],
        "tidyTraceNodeCount": 2
    },
    "state_change": {
        "stateChanges": [
            {
                "address": "0xcd111aa492a9c77a367c36e6d6af8e6f212e0c8e",
                "erc": "",
                "slots": [
                    {
                        "current": "0x00000000000000000000000000472c1e4275230354dbe5007a5976053f12610a",
                        "key": "0xa4971be24d097ff5107d6dcc8b2b3f9810e0aa2bdd1d6f5b481d2a73946e885f",
                        "prev": "0x0000000000000000000000000000000000000000000000000000000000000000"
                    },
                    {
                        "current": "0x000000000000000000000000000000000000000000000000000000005c929c67",
                        "key": "0xa4971be24d097ff5107d6dcc8b2b3f9810e0aa2bdd1d6f5b481d2a73946e8860",
                        "prev": "0x0000000000000000000000000000000000000000000000000000000000000000"
                    }
                ],
                "storageVariables": []
            }
        ]
    }
}