{
    "balance_change": {
        "balanceChanges": [
            {
                "account": "0xc4f1a2f245768fd8c491e24f43f3497e352f0aa8",
                "assets": [
                    {
                        "address": "0xb73758fe1dc58ac2a255a2950a3fdd84da656b84",
                        "amount": "136.989224537036160307",
                        "iconUrl": "",
                        "isERC1155": false,
                        "isERC721": false,
                        "sign": false,
                        "value": "14.82999453"
                    }
                ]
            },
            {
                "account": "0xce68953685d6e1a68f27897ac30339f40e65ddc9",
                "assets": [
                    {
                        "address": "0xb73758fe1dc58ac2a255a2950a3fdd84da656b84",
                        "amount": "136.989224537036160307",
                        "iconUrl": "",
                        "isERC1155": false,
                        "isERC721": false,
                        "sign": true,
                        "value": "14.82999453"
                    }
                ]
            }
        ]
    },
    "profile": {
        "basic_info": {
            "baseFee": "6.607073928",
            "blockNumber": 15107869,
            "callData": "0xa9059cbb000000000000000000000000ce68953685d6e1a68f27897ac30339f40e65ddc90000000000000000000000000000000000000000000000076d1b7dea9a43fd32",
            "debugEnable": true,
            "errorInfo": "",
            "eventCount": 1,
            "feeRecipient": "0x7f101fe45e6649a6fb8f3f8b43ed03d353f2b90c",
            "formatValue": "0",
            "gasLimit": 95988,
            "gasPrice": "8.107073928",
            "gasUsed": 58686,
            "intTxnCount": 1,
            "internalRevert": false,
            "internalRevertMessage": "",
            "isContractCreation": false,
            "isFlashloan": false,
            "maxFee": "10.501575687",
            "nonce": 85,
            "overwritedBlockNumber": -1,
            "priorityFee": "1.5",
            "receiver": "0xb73758fe1dc58ac2a255a2950a3fdd84da656b84",
            "revertMessage": "",
            "sender": "0xc4f1a2f245768fd8c491e24f43f3497e352f0aa8",
            "simulationEnable": true,
            "sourceTxnHash": "0xa27dae8d8c8b8be2f3e0bd13f8f38305cc60459733a600515dc67d5e5d707d49",
            "status": true,
            "timestamp": "2022-07-09T10:41:19Z",
            "transactionFee": "0.000475771740538608",
            "txnHash": "0xa27dae8d8c8b8be2f3e0bd13f8f38305cc60459733a600515dc67d5e5d707d49",
            "txnIndex": 271,
            "type": 2,
            "value": "0"
        },
        "fund_flow": [
            {
                "amount": "136.989224537036160307",
                "from": "0xc4f1a2f245768fd8c491e24f43f3497e352f0aa8",
                "id": 1,
                "isERC1155": false,
                "isERC721": false,
                "isReverted": false,
                "order": 1,
                "to": "0xce68953685d6e1a68f27897ac30339f40e65ddc9",
                "token": "0xb73758fe1dc58ac2a255a2950a3fdd84da656b84"
            }
        ],
        "token_infos": [
            {
                "address": "0xb73758fe1dc58ac2a255a2950a3fdd84da656b84",
                "decimals": 18
            },
            {
                "address": "0xc02aaa39b223fe8d0a0e5c4f27ead9083c756cc2",
                "decimals": 18
            },
            {
                "address": "0xeeeeeeeeeeeeeeeeeeeeeeeeeeeeeeeeeeeeeeee",
                "decimals": 18
            }
        ]
    },
    "address_label": {
        "labels": [
            {
                "address": "0x0000000000000000000000000000000000000002",
                "label": "Precompiled"
            },
            {
                "address": "0x0000000000000000000000000000000000000003",
                "label": "Precompiled"
            },
            {
                "address": "0x0000000000000000000000000000000000000004",
                "label": "Precompiled"
            },
            {
                "address": "0xeeeeeeeeeeeeeeeeeeeeeeeeeeeeeeeeeeeeeeee",
                "label": "Ether"
            },
            {
                "address": "0xb73758fe1dc58ac2a255a2950a3fdd84da656b84",
                "label": "Ape Gang: GANG Token"
            },
            {
                "address": "0xa1ca9d38d339edac593025bbcd5e2620c856780e",
                "label": "Gang2"
            },
            {
                "address": "0x0000000000000000000000000000000000000001",
                "label": "Precompiled"
            }
        ]
    },
    "trace": {
        "accountLabels": null,
        "dataMap": {
            "-1": {
                "invocation": {
                    "address": "0xc4f1a2f245768fd8c491e24f43f3497e352f0aa8",
                    "callData": "",
                    "decodedMethod": null,
                    "errorInfo": "",
                    "fromAddress": "",
                    "gasUsed": 0,
                    "id": -1,
                    "methodDecoded": false,
                    "operation": "",
                    "output": "",
                    "revert": false,
                    "revertMessage": "",
                    "selector": "",
                    "status": false,
                    "value": ""
                },
                "nodeType": 0
            },
            "0": {
                "invocation": {
                    "address": "0xb73758fe1dc58ac2a255a2950a3fdd84da656b84",
                    "callData": "0x000000000000000000000000ce68953685d6e1a68f27897ac30339f40e65ddc90000000000000000000000000000000000000000000000076d1b7dea9a43fd32",
                    "decodedMethod": {
                        "callParams": [
                            {
                                "name": "to",
                                "type": "address",
                                "value": "0xce68953685d6e1a68f27897ac30339f40e65ddc9"
                            },
                            {
                                "decimalAvailable": true,
                                "name": "amount",
                                "type": "uint256",
                                "value": "136,989,224,537,036,160,306"
                            }
                        ],
                        "constructorArguments": "",
                        "name": "transfer",
                        "returnParams": [
                            {
                                "name": "",
                                "type": "bool",
                                "value": true
                            }
                        ],
                        "signature": "transfer(address,uint256)"
                    },
                    "errorInfo": "",
                    "fromAddress": "0xc4f1a2f245768fd8c491e24f43f3497e352f0aa8",
                    "gasUsed": 58686,
                    "id": 0,
                    "methodDecoded": true,
                    "operation": "CALL",
                    "output": "0x0000000000000000000000000000000000000000000000000000000000000001",
                    "revert": false,
                    "revertMessage": "",
                    "selector": "0xa9059cbb",
                    "status": true,
                    "value": "0"
                },
                "nodeType": 0
            },
            "1": {
                "invocation": {
                    "address": "0xa1ca9d38d339edac593025bbcd5e2620c856780e",
                    "callData": "0x000000000000000000000000ce68953685d6e1a68f27897ac30339f40e65ddc90000000000000000000000000000000000000000000000076d1b7dea9a43fd32",
                    "decodedMethod": {
                        "callParams": [
                            {
                                "name": "to",
                                "type": "address",
                                "value": "0xce68953685d6e1a68f27897ac30339f40e65ddc9"
                            },
                            {
                                "decimalAvailable": true,
                                "name": "amount",
                                "type": "uint256",
                                "value": "136,989,224,537,036,160,306"
                            }
                        ],
                        "constructorArguments": "",
                        "name": "transfer",
                        "returnParams": [
                            {
                                "name": "",
                                "type": "bool",
                                "value": true
                            }
                        ],
                        "signature": "transfer(address,uint256)"
                    },
                    "errorInfo": "",
                    "fromAddress": "0xb73758fe1dc58ac2a255a2950a3fdd84da656b84",
                    "gasUsed": 34484,
                    "id": 1,
                    "methodDecoded": true,
                    "operation": "DELEGATECALL",
                    "output": "0x0000000000000000000000000000000000000000000000000000000000000001",
                    "revert": false,
                    "revertMessage": "",
                    "selector": "0xa9059cbb",
                    "status": true,
                    "value": "0"
                },
                "nodeType": 0
            },
            "2": {
                "event": {
                    "contract": "0xb73758fe1dc58ac2a255a2950a3fdd84da656b84",
                    "decodedLog": {
                        "name": "Transfer",
                        "params": [
                            {
                                "name": "from",
                                "type": "address",
                                "value": "0xc4f1a2f245768fd8c491e24f43f3497e352f0aa8"
                            },
                            {
                                "name": "to",
                                "type": "address",
                                "value": "0xce68953685d6e1a68f27897ac30339f40e65ddc9"
                            },
                            {
                                "decimalAvailable": true,
                                "name": "value",
                                "type": "uint256",
                                "value": "136,989,224,537,036,160,306"
                            }
                        ],
                        "signature": "Transfer(address,address,uint256)"
                    },
                    "id": 2,
                    "logData": "0x0000000000000000000000000000000000000000000000076d1b7dea9a43fd32",
                    "logDecoded": true,
                    "operation": "EVENT",
                    "revert": false,
                    "status": true,
                    "topics": [
                        "0xddf252ad1be2c89b69c2b068fc378daa952ba7f163c4a11628f55a4df523b3ef",
                        "0x000000000000000000000000c4f1a2f245768fd8c491e24f43f3497e352f0aa8",
                        "0x000000000000000000000000ce68953685d6e1a68f27897ac30339f40e65ddc9"
                    ]
                },
                "nodeType": 1
            }
        },
        "gasFlame": [
            {
                "children": [
                    {
                        "children": [
                            {
                                "children": [],
                                "depth": 0,
                                "name": "Initial Gas",
                                "value": 21668
                            },
                            {
                                "children": [
                                    {
                                        "children": [],
                                        "depth": 1,
                                        "name": "transfer",
                                        "value": 34484
                                    }
                                ],
                                "depth": 0,
                                "name": "Executed Gas",
                                "value": 41818
                            }
                        ],
                        "depth": -1,
                        "name": "Actual Gas Used",
                        "value": 58686
                    },
                    {
                        "children": [],
                        "depth": -1,
                        "name": "Refunded Gas",
                        "value": 4800
                    }
                ],
                "depth": -2,
                "name": "Total Gas",
                "value": 63486
            }
        ],
        "isConfirmed": true,
        "mainTrace": [
            {
                "children": [
                    {
                        "children": [
                            {
                                "children": [
                                    {
                                        "children": [],
                                        "depth": 2,
                                        "id": 2,
                                        "order": 2
                                    }
                                ],
                                "depth": 1,
                                "id": 1,
                                "order": 1
                            }
                        ],
                        "depth": 0,
                        "id": 0,
                        "order": 0
                    }
                ],
                "depth": -1,
                "id": -1,
                "order": -1
            }
        ],
        "mainTraceNodeCount": 3,
        "parentIdMap": {
            "0": -1,
            "1": 0,
            "2": 1
        },
        "tidyTrace": [
            {
                "children": [
                    {
                        "children": [
                            {
                                "children": [
                                    {
                                        "children": [],
                                        "depth": 2,
                                        "id": 2,
                                        "order": 2
                                    }
                                ],
                                "depth": 1,
                                "id": 1,
                                "order": 1
                            }
                        ],
                        "depth": 0,
                        "id": 0,
                        "order": 0
                    }
                ],
                "depth": -1,
                "id": -1,
                "order": -1
            }
        ],
        "tidyTraceNodeCount": 3
    },
    "state_change": {
        "stateChanges": [
            {
                "address": "0xb73758fe1dc58ac2a255a2950a3fdd84da656b84",
                "erc": "ERC-20",
                "slots": [
                    {
                        "current": "0x0000000000000000000000000000000000000000000000000000000000000000",
                        "key": "0x15d0631f8772c88b950afba1df1451ef04cbd1679ba3fe53d2e4c7a9be1a31a0",
                        "prev": "0x0000000000000000000000000000000000000000000000076d1b7dea9a43fd32"
                    },
                    {
                        "current": "0x0000000000000000000000000000000000000000000000076d1b7dea9a43fd32",
                        "key": "0x64a7bc36ef7c50e19859bcdca2aca4ce4b6a1a071d8141fe83093f3155db5210",
                        "prev": "0x0000000000000000000000000000000000000000000000000000000000000000"
                    }
                ],
                "storageVariables": [
                    {
                        "name": "_balances",
                        "type": "mapping(address => uint256)",
                        "value": {
                            "pairs": [
                                {
                                    "key": "0xc4f1a2f245768fd8c491e24f43f3497e352f0aa8",
                                    "value": {
                                        "current": "0",
                                        "prev": "136989224537036160306",
                                        "typeTag": 1
                                    }
                                },
                                {
                                    "key": "0xce68953685d6e1a68f27897ac30339f40e65ddc9",
                                    "value": {
                                        "current": "136989224537036160306",
                                        "prev": "0",
                                        "typeTag": 1
                                    }
                                }
                            ],
                            "typeTag": 4
                        }
                    }
                ]
            }
        ]
    }
}