{
    "balance_change": {
        "balanceChanges": [
            {
                "account": "0x7a387f96257462c260a1d4afb8a05fea9258198d",
                "assets": [
                    {
                        "address": "0x3b484b82567a09e2588a13d54d032153f0c0aee0",
                        "amount": "360,493,811.972",
                        "iconUrl": "",
                        "isERC1155": false,
                        "isERC721": false,
                        "sign": true,
                        "value": "2349.13037"
                    }
                ]
            },
            {
                "account": "0x0000000000000000000000000000000000000000",
                "assets": [
                    {
                        "address": "0x3b484b82567a09e2588a13d54d032153f0c0aee0",
                        "amount": "360,493,811.972",
                        "iconUrl": "",
                        "isERC1155": false,
                        "isERC721": false,
                        "sign": false,
                        "value": "2349.13037"
                    }
                ]
            }
        ]
    },
    "profile": {
        "basic_info": {
            "baseFee": "52.725217038",
            "blockNumber": 13882120,
            "callData": "0xabf2ebd81c00000000000000000000000000000000000000012a3188b493dc350d9a00002da0b0d50c2b2ff07f3d6ba7a675f287727d4bc4d8bdcb3732280d90b867082367e2ace601e4f0c6d5c81e328dba55832da04e8ad5078cd385d981c1481cc32f",
            "debugEnable": true,
            "errorInfo": "",
            "eventCount": 1,
            "feeRecipient": "0xea674fdde714fd979de3edf0f56aa9716b898ec8",
            "formatValue": "0",
            "gasLimit": 56323,
            "gasPrice": "54.225217038",
            "gasUsed": 56323,
            "intTxnCount": 1,
            "internalRevert": false,
            "internalRevertMessage": "",
            "isContractCreation": false,
            "isFlashloan": false,
            "maxFee": "59.411657643",
            "nonce": 380,
            "overwritedBlockNumber": -1,
            "priorityFee": "1.5",
            "receiver": "0x3b484b82567a09e2588a13d54d032153f0c0aee0",
            "revertMessage": "",
            "sender": "0x7a387f96257462c260a1d4afb8a05fea9258198d",
            "simulationEnable": true,
            "sourceTxnHash": "0xa20b7855d25ba09361f51a5b42c4b6ea392aefccd4a482c2d4828209fc73e3df",
            "status": true,
            "timestamp": "2021-12-26T17:18:50Z",
            "transactionFee": "0.003054126899231274",
            "txnHash": "0xa20b7855d25ba09361f51a5b42c4b6ea392aefccd4a482c2d4828209fc73e3df",
            "txnIndex": 222,
            "type": 2,
            "value": "0"
        },
        "fund_flow": [
            {
                "amount": "360,493,811.972",
                "from": "0x0000000000000000000000000000000000000000",
                "id": 1,
                "isERC1155": false,
                "isERC721": false,
                "isReverted": false,
                "order": 1,
                "to": "0x7a387f96257462c260a1d4afb8a05fea9258198d",
                "token": "0x3b484b82567a09e2588a13d54d032153f0c0aee0"
            }
        ],
        "token_infos": [
            {
                "address": "0x3b484b82567a09e2588a13d54d032153f0c0aee0",
                "decimals": 18
            },
            {
                "address": "0xc02aaa39b223fe8d0a0e5c4f27ead9083c756cc2",
                "decimals": 18
            },
            {
                "address": "0xeeeeeeeeeeeeeeeeeeeeeeeeeeeeeeeeeeeeeeee",
                "decimals": 18
            }
        ]
    },
    "address_label": {
        "labels": [
            {
                "address": "0x0000000000000000000000000000000000000003",
                "label": "Precompiled"
            },
            {
                "address": "0x0000000000000000000000000000000000000004",
                "label": "Precompiled"
            },
            {
                "address": "0xeeeeeeeeeeeeeeeeeeeeeeeeeeeeeeeeeeeeeeee",
                "label": "Ether"
            },
            {
                "address": "0x3b484b82567a09e2588a13d54d032153f0c0aee0",
                "label": "The OpenDAO: SOS Token"
            },
            {
                "address": "0x0000000000000000000000000000000000000001",
                "label": "Precompiled"
            },
            {
                "address": "0x0000000000000000000000000000000000000002",
                "label": "Precompiled"
            }
        ]
    },
    "trace": {
        "accountLabels": null,
        "dataMap": {
            "-1": {
                "invocation": {
                    "address": "0x7a387f96257462c260a1d4afb8a05fea9258198d",
                    "callData": "",
                    "decodedMethod": null,
                    "errorInfo": "",
                    "fromAddress": "",
                    "gasUsed": 0,
                    "id": -1,
                    "methodDecoded": false,
                    "operation": "",
                    "output": "",
                    "revert": false,
                    "revertMessage": "",
                    "selector": "",
                    "status": false,
                    "value": ""
                },
                "nodeType": 0
            },
            "0": {
                "invocation": {
                    "address": "0x3b484b82567a09e2588a13d54d032153f0c0aee0",
                    "callData": "0x1c00000000000000000000000000000000000000012a3188b493dc350d9a00002da0b0d50c2b2ff07f3d6ba7a675f287727d4bc4d8bdcb3732280d90b867082367e2ace601e4f0c6d5c81e328dba55832da04e8ad5078cd385d981c1481cc32f",
                    "decodedMethod": {
                        "callParams": [
                            {
                                "name": "amountV",
                                "type": "uint256",
                                "value": "12,664,759,760,331,458,874,453,076,485,325,239,921,451,404,572,804,797,185,627,645,250,865,498,554,368"
                            },
                            {
                                "name": "r",
                                "type": "bytes32",
                                "value": "0x2da0b0d50c2b2ff07f3d6ba7a675f287727d4bc4d8bdcb3732280d90b8670823"
                            },
                            {
                                "name": "s",
                                "type": "bytes32",
                                "value": "0x67e2ace601e4f0c6d5c81e328dba55832da04e8ad5078cd385d981c1481cc32f"
                            }
                        ],
                        "constructorArguments": "",
                        "name": "claim",
                        "returnParams": [],
                        "signature": "claim(uint256,bytes32,bytes32)"
                    },
                    "errorInfo": "",
                    "fromAddress": "0x7a387f96257462c260a1d4afb8a05fea9258198d",
                    "gasUsed": 56323,
                    "id": 0,
                    "methodDecoded": true,
                    "operation": "CALL",
                    "output": "",
                    "revert": false,
                    "revertMessage": "",
                    "selector": "0xabf2ebd8",
                    "status": true,
                    "value": "0"
                },
                "nodeType": 0
            },
            "1": {
                "invocation": {
                    "address": "0x0000000000000000000000000000000000000001",
                    "callData": "0x0c57b3e0bff2470ae42936403032437ae3bda44ea889c3510c81df0d000000000000000000000000000000000000000000000000000000000000001c2da0b0d50c2b2ff07f3d6ba7a675f287727d4bc4d8bdcb3732280d90b867082367e2ace601e4f0c6d5c81e328dba55832da04e8ad5078cd385d981c1481cc32f",
                    "decodedMethod": {
                        "callParams": [
                            {
                                "name": "hash",
                                "type": "bytes32",
                                "value": "0x37d2fc690c57b3e0bff2470ae42936403032437ae3bda44ea889c3510c81df0d"
                            },
                            {
                                "name": "v",
                                "type": "uint256",
                                "value": "28"
                            },
                            {
                                "name": "r",
                                "type": "bytes32",
                                "value": "0x2da0b0d50c2b2ff07f3d6ba7a675f287727d4bc4d8bdcb3732280d90b8670823"
                            },
                            {
                                "name": "s",
                                "type": "bytes32",
                                "value": "0x67e2ace601e4f0c6d5c81e328dba55832da04e8ad5078cd385d981c1481cc32f"
                            }
                        ],
                        "constructorArguments": "",
                        "name": "ecrecover",
                        "returnParams": [
                            {
                                "name": "",
                                "type": "address",
                                "value": "0xa141df28368d444c10a684bc40f23d2e4a8fa3be"
                            }
                        ],
                        "signature": "ecrecover(bytes32,uint256,bytes32,bytes32)"
                    },
                    "errorInfo": "",
                    "fromAddress": "0x3b484b82567a09e2588a13d54d032153f0c0aee0",
                    "gasUsed": 3000,
                    "id": 1,
                    "methodDecoded": true,
                    "operation": "STATICCALL",
                    "output": "0x000000000000000000000000a141df28368d444c10a684bc40f23d2e4a8fa3be",
                    "revert": false,
                    "revertMessage": "",
                    "selector": "0x37d2fc69",
                    "status": true,
                    "value": "0"
                },
                "nodeType": 0
            },
            "2": {
                "event": {
                    "contract": "0x3b484b82567a09e2588a13d54d032153f0c0aee0",
                    "decodedLog": {
                        "name": "Transfer",
                        "params": [
                            {
                                "name": "from",
                                "type": "address",
                                "value": "0x0000000000000000000000000000000000000000"
                            },
                            {
                                "name": "to",
                                "type": "address",
                                "value": "0x7a387f96257462c260a1d4afb8a05fea9258198d"
                            },
                            {
                                "decimalAvailable": true,
                                "name": "value",
                                "type": "uint256",
                                "value": "360,493,811,972,000,000,000,000,000"
                            }
                        ],
                        "signature": "Transfer(address,address,uint256)"
                    },
                    "id": 2,
                    "logData": "0x0000000000000000000000000000000000000000012a3188b493dc350d9a0000",
                    "logDecoded": true,
                    "operation": "EVENT",
                    "revert": false,
                    "status": true,
                    "topics": [
                        "0xddf252ad1be2c89b69c2b068fc378daa952ba7f163c4a11628f55a4df523b3ef",
                        "0x0000000000000000000000000000000000000000000000000000000000000000",
                        "0x0000000000000000000000007a387f96257462c260a1d4afb8a05fea9258198d"
                    ]
                },
                "nodeType": 1
            }
        },
        "gasFlame": [
            {
                "children": [
                    {
                        "children": [
                            {
                                "children": [],
                                "depth": 0,
                                "name": "Initial Gas",
                                "value": 22348
                            },
                            {
                                "children": [
                                    {
                                        "children": [],
                                        "depth": 1,
                                        "name": "ecrecover",
                                        "value": 3000
                                    }
                                ],
                                "depth": 0,
                                "name": "Executed Gas",
                                "value": 33975
                            }
                        ],
                        "depth": -1,
                        "name": "Actual Gas Used",
                        "value": 56323
                    },
                    {
                        "children": [],
                        "depth": -1,
                        "name": "Refunded Gas",
                        "value": 0
                    }
                ],
                "depth": -2,
                "name": "Total Gas",
                "value": 56323
            }
        ],
        "isConfirmed": true,
        "mainTrace": [
            {
                "children": [
                    {
                        "children": [
                            {
                                "children": [],
                                "depth": 1,
                                "id": 1,
                                "order": 1
                            },
                            {
                                "children": [],
                                "depth": 1,
                                "id": 2,
                                "order": 2
                            }
                        ],
                        "depth": 0,
                        "id": 0,
                        "order": 0
                    }
                ],
                "depth": -1,
                "id": -1,
                "order": -1
            }
        ],
        "mainTraceNodeCount": 3,
        "parentIdMap": {
            "0": -1,
            "1": 0,
            "2": 0
        },
        "tidyTrace": [
            {
                "children": [
                    {
                        "children": [
                            {
                                "children": [],
                                "depth": 1,
                                "id": 2,
                                "order": 2
                            }
                        ],
                        "depth": 0,
                        "id": 0,
                        "order": 0
                    }
                ],
                "depth": -1,
                "id": -1,
                "order": -1
            }
        ],
        "tidyTraceNodeCount": 2
    },
    "state_change": {
        "stateChanges": [
            {
                "address": "0x3b484b82567a09e2588a13d54d032153f0c0aee0",
                "erc": "ERC-20",
                "slots": [
                    {
                        "current": "0x00000000000000000000000000000000000004533493de6f2a65e5d8c86ac000",
                        "key": "0x0000000000000000000000000000000000000000000000000000000000000002",
                        "prev": "0x00000000000000000000000000000000000004533369ace675d209a3bad0c000"
                    },
                    {
                        "current": "0x00000000000000000000000000000000000000012a3188b493dc350d9a000001",
                        "key": "0xf6adbe4508b20ac4b00e0413e3d0cbe637e1512b0cb98a628934cc03cd6ca2fe",
                        "prev": "0x0000000000000000000000000000000000000000000000000000000000000000"
                    }
                ],
                "storageVariables": [
                    {
                        "name": "_totalSupply",
                        "type": "uint256",
                        "value": {
                            "current": "87721847886312817900000000000000",
                            "prev": "87721487392500845900000000000000",
                            "typeTag": 1
                        }
                    },
                    {
                        "name": "_balances",
                        "type": "mapping(address => struct ERC20.MintBalance)",
                        "value": {
                            "pairs": [
                                {
                                    "key": "0x7a387f96257462c260a1d4afb8a05fea9258198d",
                                    "value": {
                                        "fields": [
                                            {
                                                "name": "minted",
                                                "type": "uint8",
                                                "value": {
                                                    "current": "1",
                                                    "prev": "0",
                                                    "typeTag": 1
                                                }
                                            },
                                            {
                                                "name": "balance",
                                                "type": "uint248",
                                                "value": {
                                                    "current": "360493811972000000000000000",
                                                    "prev": "0",
                                                    "typeTag": 1
                                                }
                                            }
                                        ],
                                        "typeTag": 3
                                    }
                                }
                            ],
                            "typeTag": 4
                        }
                    }
                ]
            }
        ]
    }
}