{
    "balance_change": {
        "balanceChanges": [
            {
                "account": "0x6748f50f686bfbca6fe8ad62b22228b87f31ff2b",
                "assets": [
                    {
                        "address": "0x595832f8fc6bf59c85c527fec3740a1b7a361269",
                        "amount": "1,400",
                        "iconUrl": "https://assets.blocksec.com/icon/4871495d66ea41542a18e784ab8e96068997c15fa8d90dfbdc9cf905a3828065.png",
                        "isERC1155": false,
                        "isERC721": false,
                        "sign": false,
                        "value": ""
                    }
                ]
            },
            {
                "account": "0xd8209c8ddd84b0fbb198b10808e12c258c7ccc46",
                "assets": [
                    {
                        "address": "0x595832f8fc6bf59c85c527fec3740a1b7a361269",
                        "amount": "1,400",
                        "iconUrl": "https://assets.blocksec.com/icon/4871495d66ea41542a18e784ab8e96068997c15fa8d90dfbdc9cf905a3828065.png",
                        "isERC1155": false,
                        "isERC721": false,
                        "sign": true,
                        "value": ""
                    }
                ]
            }
        ]
    },
    "profile": {
        "basic_info": {
            "baseFee": "",
            "blockNumber": 6427264,
            "callData": "0xa9059cbb000000000000000000000000d8209c8ddd84b0fbb198b10808e12c258c7ccc460000000000000000000000000000000000000000000000000000000053724e00",
            "debugEnable": true,
            "errorInfo": "",
            "eventCount": 1,
            "feeRecipient": "0x5a0b54d5dc17e0aadc383d2db43b0a0d3e029c4c",
            "formatValue": "0",
            "gasLimit": 90000,
            "gasPrice": "53",
            "gasUsed": 51406,
            "intTxnCount": 0,
            "internalRevert": false,
            "internalRevertMessage": "",
            "isContractCreation": false,
            "isFlashloan": false,
            "maxFee": "",
            "nonce": 67046,
            "overwritedBlockNumber": -1,
            "priorityFee": "",
            "receiver": "0x595832f8fc6bf59c85c527fec3740a1b7a361269",
            "revertMessage": "",
            "sender": "0x6748f50f686bfbca6fe8ad62b22228b87f31ff2b",
            "simulationEnable": true,
            "sourceTxnHash": "0xa242c78cec76f06846142a7c0bd847429af717d2ca3ec22f05a9958c66dac7e0",
            "status": true,
            "timestamp": "2018-09-30T12:15:59Z",
            "transactionFee": "0.002724518",
            "txnHash": "0xa242c78cec76f06846142a7c0bd847429af717d2ca3ec22f05a9958c66dac7e0",
            "txnIndex": 1,
            "type": 0,
            "value": "0"
        },
        "fund_flow": [
            {
                "amount": "1,400",
                "from": "0x6748f50f686bfbca6fe8ad62b22228b87f31ff2b",
                "id": 1,
                "isERC1155": false,
                "isERC721": false,
                "isReverted": false,
                "order": 1,
                "to": "0xd8209c8ddd84b0fbb198b10808e12c258c7ccc46",
                "token": "0x595832f8fc6bf59c85c527fec3740a1b7a361269"
            }
        ],
        "token_infos": [
            {
                "address": "0x595832f8fc6bf59c85c527fec3740a1b7a361269",
                "decimals": 6
            },
            {
                "address": "0xc02aaa39b223fe8d0a0e5c4f27ead9083c756cc2",
                "decimals": 18
            },
            {
                "address": "0xeeeeeeeeeeeeeeeeeeeeeeeeeeeeeeeeeeeeeeee",
                "decimals": 18
            }
        ]
    },
    "address_label": {
        "labels": [
            {
                "address": "0x595832f8fc6bf59c85c527fec3740a1b7a361269",
                "label": "PowerLedger: POWR Token"
            },
            {
                "address": "0x6748f50f686bfbca6fe8ad62b22228b87f31ff2b",
                "label": "HTX 2"
            },
            {
                "address": "0x0000000000000000000000000000000000000001",
                "label": "Precompiled"
            },
            {
                "address": "0x0000000000000000000000000000000000000002",
                "label": "Precompiled"
            },
            {
                "address": "0x0000000000000000000000000000000000000003",
                "label": "Precompiled"
            },
            {
                "address": "0x0000000000000000000000000000000000000004",
                "label": "Precompiled"
            },
            {
                "address": "0xeeeeeeeeeeeeeeeeeeeeeeeeeeeeeeeeeeeeeeee",
                "label": "Ether"
            }
        ]
    },
    "trace": {
        "accountLabels": null,
        "dataMap": {
            "-1": {
                "invocation": {
                    "address": "0x6748f50f686bfbca6fe8ad62b22228b87f31ff2b",
                    "callData": "",
                    "decodedMethod": null,
                    "errorInfo": "",
                    "fromAddress": "",
                    "gasUsed": 0,
                    "id": -1,
                    "methodDecoded": false,
                    "operation": "",
                    "output": "",
                    "revert": false,
                    "revertMessage": "",
                    "selector": "",
                    "status": false,
                    "value": ""
                },
                "nodeType": 0
            },
            "0": {
                "invocation": {
                    "address": "0x595832f8fc6bf59c85c527fec3740a1b7a361269",
                    "callData": "0x000000000000000000000000d8209c8ddd84b0fbb198b10808e12c258c7ccc460000000000000000000000000000000000000000000000000000000053724e00",
                    "decodedMethod": {
                        "callParams": [
                            {
                                "name": "_to",
                                "type": "address",
                                "value": "0xd8209c8ddd84b0fbb198b10808e12c258c7ccc46"
                            },
                            {
                                "decimalAvailable": true,
                                "name": "_value",
                                "type": "uint256",
                                "value": "1,400,000,000"
                            }
                        ],
                        "constructorArguments": "",
                        "name": "transfer",
                        "returnParams": [
                            {
                                "name": "",
                                "type": "bool",
                                "value": true
                            }
                        ],
                        "signature": "transfer(address,uint256)"
                    },
                    "errorInfo": "",
                    "fromAddress": "0x6748f50f686bfbca6fe8ad62b22228b87f31ff2b",
                    "gasUsed": 51406,
                    "id": 0,
                    "methodDecoded": true,
                    "operation": "CALL",
                    "output": "0x0000000000000000000000000000000000000000000000000000000000000001",
                    "revert": false,
                    "revertMessage": "",
                    "selector": "0xa9059cbb",
                    "status": true,
                    "value": "0"
                },
                "nodeType": 0
            },
            "1": {
                "event": {
                    "contract": "0x595832f8fc6bf59c85c527fec3740a1b7a361269",
                    "decodedLog": {
                        "name": "Transfer",
                        "params": [
                            {
                                "name": "from",
                                "type": "address",
                                "value": "0x6748f50f686bfbca6fe8ad62b22228b87f31ff2b"
                            },
                            {
                                "name": "to",
                                "type": "address",
                                "value": "0xd8209c8ddd84b0fbb198b10808e12c258c7ccc46"
                            },
                            {
                                "decimalAvailable": true,
                                "name": "value",
                                "type": "uint256",
                                "value": "1,400,000,000"
                            }
                        ],
                        "signature": "Transfer(address,address,uint256)"
                    },
                    "id": 1,
                    "logData": "0x0000000000000000000000000000000000000000000000000000000053724e00",
                    "logDecoded": true,
                    "operation": "EVENT",
                    "revert": false,
                    "status": true,
                    "topics": [
                        "0xddf252ad1be2c89b69c2b068fc378daa952ba7f163c4a11628f55a4df523b3ef",
                        "0x0000000000000000000000006748f50f686bfbca6fe8ad62b22228b87f31ff2b",
                        "0x000000000000000000000000d8209c8ddd84b0fbb198b10808e12c258c7ccc46"
                    ]
                },
                "nodeType": 1
            }
        },
        "gasFlame": [
            {
                "children": [
                    {
                        "children": [
                            {
                                "children": [],
                                "depth": 0,
                                "name": "Initial Gas",
                                "value": 23000
                            },
                            {
                                "children": [],
                                "depth": 0,
                                "name": "Executed Gas",
                                "value": 28406
                            }
                        ],
                        "depth": -1,
                        "name": "Actual Gas Used",
                        "value": 51406
                    },
                    {
                        "children": [],
                        "depth": -1,
                        "name": "Refunded Gas",
                        "value": 0
                    }
                ],
                "depth": -2,
                "name": "Total Gas",
                "value": 51406
            }
        ],
        "isConfirmed": true,
        "mainTrace": [
            {
                "children": [
                    {
                        "children": [
                            {
                                "children": [],
                                "depth": 1,
                                "id": 1,
                                "order": 1
                            }
                        ],
                        "depth": 0,
                        "id": 0,
                        "order": 0
                    }
                ],
                "depth": -1,
                "id": -1,
                "order": -1
            }
        ],
        "mainTraceNodeCount": 2,
        "parentIdMap": {
            "0": -1,
            "1": 0
        },
        "tidyTrace": [
            {
                "children": [
                    {
                        "children": [
                            {
                                "children": [],
                                "depth": 1,
                                "id": 1,
                                "order": 1
                            }
                        ],
                        "depth": 0,
                        "id": 0,
                        "order": 0
                    }
                ],
                "depth": -1,
                "id": -1,
                "order": -1
            }
        ],
        "tidyTraceNodeCount": 2
    },
    "state_change": {
        "stateChanges": [
            {
                "address": "0x595832f8fc6bf59c85c527fec3740a1b7a361269",
                "erc": "ERC-20",
                "slots": [
                    {
                        "current": "0x0000000000000000000000000000000000000000000000000000000987a2fb3b",
                        "key": "0x046ea4d5b23a798a60e46f3055c455ab6b3faa745a254808203ca161f03d7ae3",
                        "prev": "0x00000000000000000000000000000000000000000000000000000009db15493b"
                    },
                    {
                        "current": "0x0000000000000000000000000000000000000000000000000000000053724e00",
                        "key": "0x2a6c80ac33504de1d8c60d4a4506f134cde4533f75833f66d00d612c122b4914",
                        "prev": "0x0000000000000000000000000000000000000000000000000000000000000000"
                    }
                ],
                "storageVariables": []
            }
        ]
    }
}