{
    "balance_change": {
        "balanceChanges": [
            {
                "account": "0x4f4495243837681061c4743b74b3eedf548d56a5",
                "assets": [
                    {
                        "address": "0xa0b86991c6218b36c1d19d4a2e9eb0ce3606eb48",
                        "amount": "7,576.533772",
                        "iconUrl": "https://assets.blocksec.com/icon/0347a86cc07dbd03fdc5db01a4e5ac7e1217f90e0b6e4bb0f75cbcca09160989.png",
                        "isERC1155": false,
                        "isERC721": false,
                        "sign": false,
                        "value": "7576.533772"
                    }
                ]
            },
            {
                "account": "0xe743a49f04f2f77eb2d3b753ae3ad599de8cea84",
                "assets": [
                    {
                        "address": "0xa0b86991c6218b36c1d19d4a2e9eb0ce3606eb48",
                        "amount": "7,576.533772",
                        "iconUrl": "https://assets.blocksec.com/icon/0347a86cc07dbd03fdc5db01a4e5ac7e1217f90e0b6e4bb0f75cbcca09160989.png",
                        "isERC1155": false,
                        "isERC721": false,
                        "sign": true,
                        "value": "7576.533772"
                    }
                ]
            }
        ]
    },
    "profile": {
        "basic_info": {
            "baseFee": "49.924387731",
            "blockNumber": 18773732,
            "callData": "0x1a98b2e062975a7822cc45600723a9db00461588cda380f506c18f85fee0a07a30abc7ec00000000000000000000000000000000000000000000000000000000000000c000000000000000000000000000000000000000000000000000000000000001000000000000000000000000000000000000000000000000000000000000000160000000000000000000000000000000000000000000000000000000000000096000000000000000000000000000000000000000000000000000000001c398bb0c000000000000000000000000000000000000000000000000000000000000000762696e616e636500000000000000000000000000000000000000000000000000000000000000000000000000000000000000000000000000000000000000002a3078636531364636393337353532306162303133373763653742383866354241384334384638443636360000000000000000000000000000000000000000000000000000000000000000000000000000000000000000000000000000000007e00000000000000000000000000000000000000000000000000000000000000040000000000000000000000000fd47da45a593e28d3b8fc80f424bb13ecf3ab095000000000000000000000000000000000000000000000000000000000000000500000000000000000000000000000000000000000000000000000000000000a000000000000000000000000000000000000000000000000000000000000001a00000000000000000000000000000000000000000000000000000000000000320000000000000000000000000000000000000000000000000000000000000054000000000000000000000000000000000000000000000000000000000000006a000000000000000000000000000000000000000000000000000000000000000030000000000000000000000000000000000000000000000000000000000000000000000000000000000000000000000000000000000000000000000000000000000000000000000000000000000000000000000000000000000000000000000a000000000000000000000000000000000000000000000000000000000000000c000000000000000000000000000000000000000000000000000000000000000000000000000000000000000000000000000000000000000000000000000000020000000000000000000000000a0b86991c6218b36c1d19d4a2e9eb0ce3606eb480000000000000000000000000000000000000000000000000000000000000001000000000000000000000000a0b86991c6218b36c1d19d4a2e9eb0ce3606eb48000000000000000000000000000000000000000000000000000000000000000000000000000000000000000000000000000000000000000000000000000000a000000000000000000000000000000000000000000000000000000000000001200000000000000000000000000000000000000000000000000000000000000044095ea7b300000000000000000000000068b3465833fb72a70ecdf485e0e4c7bd8665fc450000000000000000000000000000000000000000000000000000000000000000000000000000000000000000000000000000000000000000000000000000000000000000000000000000000000000000000000000000000000000040000000000000000000000000a0b86991c6218b36c1d19d4a2e9eb0ce3606eb480000000000000000000000000000000000000000000000000000000000000001000000000000000000000000000000000000000000000000000000000000000100000000000000000000000068b3465833fb72a70ecdf485e0e4c7bd8665fc45000000000000000000000000000000000000000000000000000000000000000000000000000000000000000000000000000000000000000000000000000000a000000000000000000000000000000000000000000000000000000000000001c000000000000000000000000000000000000000000000000000000000000000e404e45aaf000000000000000000000000a0b86991c6218b36c1d19d4a2e9eb0ce3606eb48000000000000000000000000c02aaa39b223fe8d0a0e5c4f27ead9083c756cc200000000000000000000000000000000000000000000000000000000000001f40000000000000000000000004fd39c9e151e50580779bd04b1f7ecc310079fd300000000000000000000000000000000000000000000000000000001c57803c80000000000000000000000000000000000000000000000002f3fe500fe9f9e2e0000000000000000000000000000000000000000000000000000000000000000000000000000000000000000000000000000000000000000000000000000000000000000000000000000000000000000000000000000000000000040000000000000000000000000a0b86991c6218b36c1d19d4a2e9eb0ce3606eb4800000000000000000000000000000000000000000000000000000000000000040000000000000000000000000000000000000000000000000000000000000001000000000000000000000000c02aaa39b223fe8d0a0e5c4f27ead9083c756cc2000000000000000000000000000000000000000000000000000000000000000000000000000000000000000000000000000000000000000000000000000000a0000000000000000000000000000000000000000000000000000000000000010000000000000000000000000000000000000000000000000000000000000000242e1a7d4d0000000000000000000000000000000000000000000000000000000000000000000000000000000000000000000000000000000000000000000000000000000000000000000000000000000000000000000000000000000000000040000000000000000000000000c02aaa39b223fe8d0a0e5c4f27ead9083c756cc200000000000000000000000000000000000000000000000000000000000000000000000000000000000000000000000000000000000000000000000000000002000000000000000000000000fd47da45a593e28d3b8fc80f424bb13ecf3ab095000000000000000000000000000000000000000000000000000000000000000000000000000000000000000000000000000000000000000000000000000000a000000000000000000000000000000000000000000000000000000000000000c00000000000000000000000000000000000000000000000000000000000000000000000000000000000000000000000000000000000000000000000000000000000000000000000000000000000000000000000000000000000000000000000045553444300000000000000000000000000000000000000000000000000000000",
            "debugEnable": true,
            "errorInfo": "",
            "eventCount": 4,
            "feeRecipient": "0x1f9090aae28b8a3dceadf281b0f12828e676c326",
            "formatValue": "0",
            "gasLimit": 501392,
            "gasPrice": "50.044255963",
            "gasUsed": 121108,
            "intTxnCount": 9,
            "internalRevert": false,
            "internalRevertMessage": "",
            "isContractCreation": false,
            "isFlashloan": false,
            "maxFee": "56.568349119",
            "nonce": 23460,
            "overwritedBlockNumber": -1,
            "priorityFee": "0.119868232",
            "receiver": "0xce16f69375520ab01377ce7b88f5ba8c48f8d666",
            "revertMessage": "",
            "sender": "0xd36aac0c9676e984d72823fb662ce94d3ab5e551",
            "simulationEnable": true,
            "sourceTxnHash": "0xa2da0cc1b7196fb274f262f7b630a8da7b5688cbb17f1d5a8b091bf96875dae5",
            "status": true,
            "timestamp": "2023-12-13T00:39:11Z",
            "transactionFee": "0.006060759751167004",
            "txnHash": "0xa2da0cc1b7196fb274f262f7b630a8da7b5688cbb17f1d5a8b091bf96875dae5",
            "txnIndex": 71,
            "type": 2,
            "value": "0"
        },
        "fund_flow": [
            {
                "amount": "7,576.533772",
                "from": "0x4f4495243837681061c4743b74b3eedf548d56a5",
                "id": 1,
                "isERC1155": false,
                "isERC721": false,
                "isReverted": false,
                "order": 1,
                "to": "0xce16f69375520ab01377ce7b88f5ba8c48f8d666",
                "token": "0xa0b86991c6218b36c1d19d4a2e9eb0ce3606eb48"
            },
            {
                "amount": "7,576.533772",
                "from": "0xce16f69375520ab01377ce7b88f5ba8c48f8d666",
                "id": 2,
                "isERC1155": false,
                "isERC721": false,
                "isReverted": false,
                "order": 2,
                "to": "0xe743a49f04f2f77eb2d3b753ae3ad599de8cea84",
                "token": "0xa0b86991c6218b36c1d19d4a2e9eb0ce3606eb48"
            }
        ],
        "token_infos": [
            {
                "address": "0xa0b86991c6218b36c1d19d4a2e9eb0ce3606eb48",
                "decimals": 6
            },
            {
                "address": "0xc02aaa39b223fe8d0a0e5c4f27ead9083c756cc2",
                "decimals": 18
            },
            {
                "address": "0xeeeeeeeeeeeeeeeeeeeeeeeeeeeeeeeeeeeeeeee",
                "decimals": 18
            }
        ]
    },
    "address_label": {
        "labels": [
            {
                "address": "0xa0b86991c6218b36c1d19d4a2e9eb0ce3606eb48",
                "label": "Circle: USDC Token"
            },
            {
                "address": "0x99b5fa03a5ea4315725c43346e55a6a6fbd94098",
                "label": "AxelarGateway"
            },
            {
                "address": "0x0000000000000000000000000000000000000004",
                "label": "Precompiled"
            },
            {
                "address": "0x77b6426d0c60a62c7a304b8ddcf18e2af29100f1",
                "label": "SquidRouter"
            },
            {
                "address": "0x0000000000000000000000000000000000000003",
                "label": "Precompiled"
            },
            {
                "address": "0x4f4495243837681061c4743b74b3eedf548d56a5",
                "label": "Axelar: Gateway"
            },
            {
                "address": "0x0000000000000000000000000000000000000001",
                "label": "Precompiled"
            },
            {
                "address": "0x0000000000000000000000000000000000000002",
                "label": "Precompiled"
            },
            {
                "address": "0xd36aac0c9676e984d72823fb662ce94d3ab5e551",
                "label": "Axelar: Relayer 5"
            },
            {
                "address": "0xe743a49f04f2f77eb2d3b753ae3ad599de8cea84",
                "label": "Axelar: Express Relayer 1"
            },
            {
                "address": "0xce16f69375520ab01377ce7b88f5ba8c48f8d666",
                "label": "Squid: Router"
            },
            {
                "address": "0xeeeeeeeeeeeeeeeeeeeeeeeeeeeeeeeeeeeeeeee",
                "label": "Ether"
            },
            {
                "address": "0xa2327a938febf5fec13bacfb16ae10ecbc4cbdcf",
                "label": "FiatTokenV2_1"
            }
        ]
    },
    "trace": {
        "accountLabels": null,
        "dataMap": {
            "-1": {
                "invocation": {
                    "address": "0xd36aac0c9676e984d72823fb662ce94d3ab5e551",
                    "callData": "",
                    "decodedMethod": null,
                    "errorInfo": "",
                    "fromAddress": "",
                    "gasUsed": 0,
                    "id": -1,
                    "methodDecoded": false,
                    "operation": "",
                    "output": "",
                    "revert": false,
                    "revertMessage": "",
                    "selector": "",
                    "status": false,
                    "value": ""
                },
                "nodeType": 0
            },
            "0": {
                "invocation": {
                    "address": "0xce16f69375520ab01377ce7b88f5ba8c48f8d666",
                    "callData": "0x62975a7822cc45600723a9db00461588cda380f506c18f85fee0a07a30abc7ec00000000000000000000000000000000000000000000000000000000000000c000000000000000000000000000000000000000000000000000000000000001000000000000000000000000000000000000000000000000000000000000000160000000000000000000000000000000000000000000000000000000000000096000000000000000000000000000000000000000000000000000000001c398bb0c000000000000000000000000000000000000000000000000000000000000000762696e616e636500000000000000000000000000000000000000000000000000000000000000000000000000000000000000000000000000000000000000002a3078636531364636393337353532306162303133373763653742383866354241384334384638443636360000000000000000000000000000000000000000000000000000000000000000000000000000000000000000000000000000000007e00000000000000000000000000000000000000000000000000000000000000040000000000000000000000000fd47da45a593e28d3b8fc80f424bb13ecf3ab095000000000000000000000000000000000000000000000000000000000000000500000000000000000000000000000000000000000000000000000000000000a000000000000000000000000000000000000000000000000000000000000001a00000000000000000000000000000000000000000000000000000000000000320000000000000000000000000000000000000000000000000000000000000054000000000000000000000000000000000000000000000000000000000000006a000000000000000000000000000000000000000000000000000000000000000030000000000000000000000000000000000000000000000000000000000000000000000000000000000000000000000000000000000000000000000000000000000000000000000000000000000000000000000000000000000000000000000a000000000000000000000000000000000000000000000000000000000000000c000000000000000000000000000000000000000000000000000000000000000000000000000000000000000000000000000000000000000000000000000000020000000000000000000000000a0b86991c6218b36c1d19d4a2e9eb0ce3606eb480000000000000000000000000000000000000000000000000000000000000001000000000000000000000000a0b86991c6218b36c1d19d4a2e9eb0ce3606eb48000000000000000000000000000000000000000000000000000000000000000000000000000000000000000000000000000000000000000000000000000000a000000000000000000000000000000000000000000000000000000000000001200000000000000000000000000000000000000000000000000000000000000044095ea7b300000000000000000000000068b3465833fb72a70ecdf485e0e4c7bd8665fc450000000000000000000000000000000000000000000000000000000000000000000000000000000000000000000000000000000000000000000000000000000000000000000000000000000000000000000000000000000000000040000000000000000000000000a0b86991c6218b36c1d19d4a2e9eb0ce3606eb480000000000000000000000000000000000000000000000000000000000000001000000000000000000000000000000000000000000000000000000000000000100000000000000000000000068b3465833fb72a70ecdf485e0e4c7bd8665fc45000000000000000000000000000000000000000000000000000000000000000000000000000000000000000000000000000000000000000000000000000000a000000000000000000000000000000000000000000000000000000000000001c000000000000000000000000000000000000000000000000000000000000000e404e45aaf000000000000000000000000a0b86991c6218b36c1d19d4a2e9eb0ce3606eb48000000000000000000000000c02aaa39b223fe8d0a0e5c4f27ead9083c756cc200000000000000000000000000000000000000000000000000000000000001f40000000000000000000000004fd39c9e151e50580779bd04b1f7ecc310079fd300000000000000000000000000000000000000000000000000000001c57803c80000000000000000000000000000000000000000000000002f3fe500fe9f9e2e0000000000000000000000000000000000000000000000000000000000000000000000000000000000000000000000000000000000000000000000000000000000000000000000000000000000000000000000000000000000000040000000000000000000000000a0b86991c6218b36c1d19d4a2e9eb0ce3606eb4800000000000000000000000000000000000000000000000000000000000000040000000000000000000000000000000000000000000000000000000000000001000000000000000000000000c02aaa39b223fe8d0a0e5c4f27ead9083c756cc2000000000000000000000000000000000000000000000000000000000000000000000000000000000000000000000000000000000000000000000000000000a0000000000000000000000000000000000000000000000000000000000000010000000000000000000000000000000000000000000000000000000000000000242e1a7d4d0000000000000000000000000000000000000000000000000000000000000000000000000000000000000000000000000000000000000000000000000000000000000000000000000000000000000000000000000000000000000040000000000000000000000000c02aaa39b223fe8d0a0e5c4f27ead9083c756cc200000000000000000000000000000000000000000000000000000000000000000000000000000000000000000000000000000000000000000000000000000002000000000000000000000000fd47da45a593e28d3b8fc80f424bb13ecf3ab095000000000000000000000000000000000000000000000000000000000000000000000000000000000000000000000000000000000000000000000000000000a000000000000000000000000000000000000000000000000000000000000000c00000000000000000000000000000000000000000000000000000000000000000000000000000000000000000000000000000000000000000000000000000000000000000000000000000000000000000000000000000000000000000000000045553444300000000000000000000000000000000000000000000000000000000",
                    "decodedMethod": {
                        "callParams": [
                            {
                                "name": "commandId",
                                "type": "bytes32",
                                "value": "0x62975a7822cc45600723a9db00461588cda380f506c18f85fee0a07a30abc7ec"
                            },
                            {
                                "name": "sourceChain",
                                "type": "string",
                                "value": "binance"
                            },
                            {
                                "name": "sourceAddress",
                                "type": "string",
                                "value": "0xce16F69375520ab01377ce7B88f5BA8C48F8D666"
                            },
                            {
                                "name": "payload",
                                "type": "bytes",
                                "value": "0x0000000000000000000000000000000000000000000000000000000000000040000000000000000000000000fd47da45a593e28d3b8fc80f424bb13ecf3ab095000000000000000000000000000000000000000000000000000000000000000500000000000000000000000000000000000000000000000000000000000000a000000000000000000000000000000000000000000000000000000000000001a00000000000000000000000000000000000000000000000000000000000000320000000000000000000000000000000000000000000000000000000000000054000000000000000000000000000000000000000000000000000000000000006a000000000000000000000000000000000000000000000000000000000000000030000000000000000000000000000000000000000000000000000000000000000000000000000000000000000000000000000000000000000000000000000000000000000000000000000000000000000000000000000000000000000000000a000000000000000000000000000000000000000000000000000000000000000c000000000000000000000000000000000000000000000000000000000000000000000000000000000000000000000000000000000000000000000000000000020000000000000000000000000a0b86991c6218b36c1d19d4a2e9eb0ce3606eb480000000000000000000000000000000000000000000000000000000000000001000000000000000000000000a0b86991c6218b36c1d19d4a2e9eb0ce3606eb48000000000000000000000000000000000000000000000000000000000000000000000000000000000000000000000000000000000000000000000000000000a000000000000000000000000000000000000000000000000000000000000001200000000000000000000000000000000000000000000000000000000000000044095ea7b300000000000000000000000068b3465833fb72a70ecdf485e0e4c7bd8665fc450000000000000000000000000000000000000000000000000000000000000000000000000000000000000000000000000000000000000000000000000000000000000000000000000000000000000000000000000000000000000040000000000000000000000000a0b86991c6218b36c1d19d4a2e9eb0ce3606eb480000000000000000000000000000000000000000000000000000000000000001000000000000000000000000000000000000000000000000000000000000000100000000000000000000000068b3465833fb72a70ecdf485e0e4c7bd8665fc45000000000000000000000000000000000000000000000000000000000000000000000000000000000000000000000000000000000000000000000000000000a000000000000000000000000000000000000000000000000000000000000001c000000000000000000000000000000000000000000000000000000000000000e404e45aaf000000000000000000000000a0b86991c6218b36c1d19d4a2e9eb0ce3606eb48000000000000000000000000c02aaa39b223fe8d0a0e5c4f27ead9083c756cc200000000000000000000000000000000000000000000000000000000000001f40000000000000000000000004fd39c9e151e50580779bd04b1f7ecc310079fd300000000000000000000000000000000000000000000000000000001c57803c80000000000000000000000000000000000000000000000002f3fe500fe9f9e2e0000000000000000000000000000000000000000000000000000000000000000000000000000000000000000000000000000000000000000000000000000000000000000000000000000000000000000000000000000000000000040000000000000000000000000a0b86991c6218b36c1d19d4a2e9eb0ce3606eb4800000000000000000000000000000000000000000000000000000000000000040000000000000000000000000000000000000000000000000000000000000001000000000000000000000000c02aaa39b223fe8d0a0e5c4f27ead9083c756cc2000000000000000000000000000000000000000000000000000000000000000000000000000000000000000000000000000000000000000000000000000000a0000000000000000000000000000000000000000000000000000000000000010000000000000000000000000000000000000000000000000000000000000000242e1a7d4d0000000000000000000000000000000000000000000000000000000000000000000000000000000000000000000000000000000000000000000000000000000000000000000000000000000000000000000000000000000000000040000000000000000000000000c02aaa39b223fe8d0a0e5c4f27ead9083c756cc200000000000000000000000000000000000000000000000000000000000000000000000000000000000000000000000000000000000000000000000000000002000000000000000000000000fd47da45a593e28d3b8fc80f424bb13ecf3ab095000000000000000000000000000000000000000000000000000000000000000000000000000000000000000000000000000000000000000000000000000000a000000000000000000000000000000000000000000000000000000000000000c000000000000000000000000000000000000000000000000000000000000000000000000000000000000000000000000000000000000000000000000000000000"
                            },
                            {
                                "name": "tokenSymbol",
                                "type": "string",
                                "value": "USDC"
                            },
                            {
                                "name": "amount",
                                "type": "uint256",
                                "value": "7,576,533,772"
                            }
                        ],
                        "constructorArguments": "",
                        "name": "executeWithToken",
                        "returnParams": [],
                        "signature": "executeWithToken(bytes32,string,string,bytes,string,uint256)"
                    },
                    "errorInfo": "",
                    "fromAddress": "0xd36aac0c9676e984d72823fb662ce94d3ab5e551",
                    "gasUsed": 121108,
                    "id": 0,
                    "methodDecoded": true,
                    "operation": "CALL",
                    "output": "",
                    "revert": false,
                    "revertMessage": "",
                    "selector": "0x1a98b2e0",
                    "status": true,
                    "value": "0"
                },
                "nodeType": 0
            },
            "1": {
                "invocation": {
                    "address": "0x77b6426d0c60a62c7a304b8ddcf18e2af29100f1",
                    "callData": "0x62975a7822cc45600723a9db00461588cda380f506c18f85fee0a07a30abc7ec00000000000000000000000000000000000000000000000000000000000000c000000000000000000000000000000000000000000000000000000000000001000000000000000000000000000000000000000000000000000000000000000160000000000000000000000000000000000000000000000000000000000000096000000000000000000000000000000000000000000000000000000001c398bb0c000000000000000000000000000000000000000000000000000000000000000762696e616e636500000000000000000000000000000000000000000000000000000000000000000000000000000000000000000000000000000000000000002a3078636531364636393337353532306162303133373763653742383866354241384334384638443636360000000000000000000000000000000000000000000000000000000000000000000000000000000000000000000000000000000007e00000000000000000000000000000000000000000000000000000000000000040000000000000000000000000fd47da45a593e28d3b8fc80f424bb13ecf3ab095000000000000000000000000000000000000000000000000000000000000000500000000000000000000000000000000000000000000000000000000000000a000000000000000000000000000000000000000000000000000000000000001a00000000000000000000000000000000000000000000000000000000000000320000000000000000000000000000000000000000000000000000000000000054000000000000000000000000000000000000000000000000000000000000006a000000000000000000000000000000000000000000000000000000000000000030000000000000000000000000000000000000000000000000000000000000000000000000000000000000000000000000000000000000000000000000000000000000000000000000000000000000000000000000000000000000000000000a000000000000000000000000000000000000000000000000000000000000000c000000000000000000000000000000000000000000000000000000000000000000000000000000000000000000000000000000000000000000000000000000020000000000000000000000000a0b86991c6218b36c1d19d4a2e9eb0ce3606eb480000000000000000000000000000000000000000000000000000000000000001000000000000000000000000a0b86991c6218b36c1d19d4a2e9eb0ce3606eb48000000000000000000000000000000000000000000000000000000000000000000000000000000000000000000000000000000000000000000000000000000a000000000000000000000000000000000000000000000000000000000000001200000000000000000000000000000000000000000000000000000000000000044095ea7b300000000000000000000000068b3465833fb72a70ecdf485e0e4c7bd8665fc450000000000000000000000000000000000000000000000000000000000000000000000000000000000000000000000000000000000000000000000000000000000000000000000000000000000000000000000000000000000000040000000000000000000000000a0b86991c6218b36c1d19d4a2e9eb0ce3606eb480000000000000000000000000000000000000000000000000000000000000001000000000000000000000000000000000000000000000000000000000000000100000000000000000000000068b3465833fb72a70ecdf485e0e4c7bd8665fc45000000000000000000000000000000000000000000000000000000000000000000000000000000000000000000000000000000000000000000000000000000a000000000000000000000000000000000000000000000000000000000000001c000000000000000000000000000000000000000000000000000000000000000e404e45aaf000000000000000000000000a0b86991c6218b36c1d19d4a2e9eb0ce3606eb48000000000000000000000000c02aaa39b223fe8d0a0e5c4f27ead9083c756cc200000000000000000000000000000000000000000000000000000000000001f40000000000000000000000004fd39c9e151e50580779bd04b1f7ecc310079fd300000000000000000000000000000000000000000000000000000001c57803c80000000000000000000000000000000000000000000000002f3fe500fe9f9e2e0000000000000000000000000000000000000000000000000000000000000000000000000000000000000000000000000000000000000000000000000000000000000000000000000000000000000000000000000000000000000040000000000000000000000000a0b86991c6218b36c1d19d4a2e9eb0ce3606eb4800000000000000000000000000000000000000000000000000000000000000040000000000000000000000000000000000000000000000000000000000000001000000000000000000000000c02aaa39b223fe8d0a0e5c4f27ead9083c756cc2000000000000000000000000000000000000000000000000000000000000000000000000000000000000000000000000000000000000000000000000000000a0000000000000000000000000000000000000000000000000000000000000010000000000000000000000000000000000000000000000000000000000000000242e1a7d4d0000000000000000000000000000000000000000000000000000000000000000000000000000000000000000000000000000000000000000000000000000000000000000000000000000000000000000000000000000000000000040000000000000000000000000c02aaa39b223fe8d0a0e5c4f27ead9083c756cc200000000000000000000000000000000000000000000000000000000000000000000000000000000000000000000000000000000000000000000000000000002000000000000000000000000fd47da45a593e28d3b8fc80f424bb13ecf3ab095000000000000000000000000000000000000000000000000000000000000000000000000000000000000000000000000000000000000000000000000000000a000000000000000000000000000000000000000000000000000000000000000c00000000000000000000000000000000000000000000000000000000000000000000000000000000000000000000000000000000000000000000000000000000000000000000000000000000000000000000000000000000000000000000000045553444300000000000000000000000000000000000000000000000000000000",
                    "decodedMethod": {
                        "callParams": [
                            {
                                "name": "commandId",
                                "type": "bytes32",
                                "value": "0x62975a7822cc45600723a9db00461588cda380f506c18f85fee0a07a30abc7ec"
                            },
                            {
                                "name": "sourceChain",
                                "type": "string",
                                "value": "binance"
                            },
                            {
                                "name": "sourceAddress",
                                "type": "string",
                                "value": "0xce16F69375520ab01377ce7B88f5BA8C48F8D666"
                            },
                            {
                                "name": "payload",
                                "type": "bytes",
                                "value": "0x0000000000000000000000000000000000000000000000000000000000000040000000000000000000000000fd47da45a593e28d3b8fc80f424bb13ecf3ab095000000000000000000000000000000000000000000000000000000000000000500000000000000000000000000000000000000000000000000000000000000a000000000000000000000000000000000000000000000000000000000000001a00000000000000000000000000000000000000000000000000000000000000320000000000000000000000000000000000000000000000000000000000000054000000000000000000000000000000000000000000000000000000000000006a000000000000000000000000000000000000000000000000000000000000000030000000000000000000000000000000000000000000000000000000000000000000000000000000000000000000000000000000000000000000000000000000000000000000000000000000000000000000000000000000000000000000000a000000000000000000000000000000000000000000000000000000000000000c000000000000000000000000000000000000000000000000000000000000000000000000000000000000000000000000000000000000000000000000000000020000000000000000000000000a0b86991c6218b36c1d19d4a2e9eb0ce3606eb480000000000000000000000000000000000000000000000000000000000000001000000000000000000000000a0b86991c6218b36c1d19d4a2e9eb0ce3606eb48000000000000000000000000000000000000000000000000000000000000000000000000000000000000000000000000000000000000000000000000000000a000000000000000000000000000000000000000000000000000000000000001200000000000000000000000000000000000000000000000000000000000000044095ea7b300000000000000000000000068b3465833fb72a70ecdf485e0e4c7bd8665fc450000000000000000000000000000000000000000000000000000000000000000000000000000000000000000000000000000000000000000000000000000000000000000000000000000000000000000000000000000000000000040000000000000000000000000a0b86991c6218b36c1d19d4a2e9eb0ce3606eb480000000000000000000000000000000000000000000000000000000000000001000000000000000000000000000000000000000000000000000000000000000100000000000000000000000068b3465833fb72a70ecdf485e0e4c7bd8665fc45000000000000000000000000000000000000000000000000000000000000000000000000000000000000000000000000000000000000000000000000000000a000000000000000000000000000000000000000000000000000000000000001c000000000000000000000000000000000000000000000000000000000000000e404e45aaf000000000000000000000000a0b86991c6218b36c1d19d4a2e9eb0ce3606eb48000000000000000000000000c02aaa39b223fe8d0a0e5c4f27ead9083c756cc200000000000000000000000000000000000000000000000000000000000001f40000000000000000000000004fd39c9e151e50580779bd04b1f7ecc310079fd300000000000000000000000000000000000000000000000000000001c57803c80000000000000000000000000000000000000000000000002f3fe500fe9f9e2e0000000000000000000000000000000000000000000000000000000000000000000000000000000000000000000000000000000000000000000000000000000000000000000000000000000000000000000000000000000000000040000000000000000000000000a0b86991c6218b36c1d19d4a2e9eb0ce3606eb4800000000000000000000000000000000000000000000000000000000000000040000000000000000000000000000000000000000000000000000000000000001000000000000000000000000c02aaa39b223fe8d0a0e5c4f27ead9083c756cc2000000000000000000000000000000000000000000000000000000000000000000000000000000000000000000000000000000000000000000000000000000a0000000000000000000000000000000000000000000000000000000000000010000000000000000000000000000000000000000000000000000000000000000242e1a7d4d0000000000000000000000000000000000000000000000000000000000000000000000000000000000000000000000000000000000000000000000000000000000000000000000000000000000000000000000000000000000000040000000000000000000000000c02aaa39b223fe8d0a0e5c4f27ead9083c756cc200000000000000000000000000000000000000000000000000000000000000000000000000000000000000000000000000000000000000000000000000000002000000000000000000000000fd47da45a593e28d3b8fc80f424bb13ecf3ab095000000000000000000000000000000000000000000000000000000000000000000000000000000000000000000000000000000000000000000000000000000a000000000000000000000000000000000000000000000000000000000000000c000000000000000000000000000000000000000000000000000000000000000000000000000000000000000000000000000000000000000000000000000000000"
                            },
                            {
                                "name": "tokenSymbol",
                                "type": "string",
                                "value": "USDC"
                            },
                            {
                                "name": "amount",
                                "type": "uint256",
                                "value": "7,576,533,772"
                            }
                        ],
                        "constructorArguments": "",
                        "name": "executeWithToken",
                        "returnParams": [],
                        "signature": "executeWithToken(bytes32,string,string,bytes,string,uint256)"
                    },
                    "errorInfo": "",
                    "fromAddress": "0xce16f69375520ab01377ce7b88f5ba8c48f8d666",
                    "gasUsed": 109211,
                    "id": 1,
                    "methodDecoded": true,
                    "operation": "DELEGATECALL",
                    "output": "",
                    "revert": false,
                    "revertMessage": "",
                    "selector": "0x1a98b2e0",
                    "status": true,
                    "value": "0"
                },
                "nodeType": 0
            },
            "10": {
                "invocation": {
                    "address": "0x99b5fa03a5ea4315725c43346e55a6a6fbd94098",
                    "callData": "0x000000000000000000000000000000000000000000000000000000000000002000000000000000000000000000000000000000000000000000000000000000045553444300000000000000000000000000000000000000000000000000000000",
                    "decodedMethod": {
                        "callParams": [
                            {
                                "name": "symbol",
                                "type": "string",
                                "value": "USDC"
                            }
                        ],
                        "constructorArguments": "",
                        "name": "tokenAddresses",
                        "returnParams": [
                            {
                                "name": "",
                                "type": "address",
                                "value": "0xa0b86991c6218b36c1d19d4a2e9eb0ce3606eb48"
                            }
                        ],
                        "signature": "tokenAddresses(string)"
                    },
                    "errorInfo": "",
                    "fromAddress": "0x4f4495243837681061c4743b74b3eedf548d56a5",
                    "gasUsed": 1448,
                    "id": 10,
                    "methodDecoded": true,
                    "operation": "DELEGATECALL",
                    "output": "0x000000000000000000000000a0b86991c6218b36c1d19d4a2e9eb0ce3606eb48",
                    "revert": false,
                    "revertMessage": "",
                    "selector": "0x935b13f6",
                    "status": true,
                    "value": "0"
                },
                "nodeType": 0
            },
            "11": {
                "invocation": {
                    "address": "0xa0b86991c6218b36c1d19d4a2e9eb0ce3606eb48",
                    "callData": "0x000000000000000000000000e743a49f04f2f77eb2d3b753ae3ad599de8cea8400000000000000000000000000000000000000000000000000000001c398bb0c",
                    "decodedMethod": {
                        "callParams": [
                            {
                                "name": "to",
                                "type": "address",
                                "value": "0xe743a49f04f2f77eb2d3b753ae3ad599de8cea84"
                            },
                            {
                                "decimalAvailable": true,
                                "name": "value",
                                "type": "uint256",
                                "value": "7,576,533,772"
                            }
                        ],
                        "constructorArguments": "",
                        "name": "transfer",
                        "returnParams": [
                            {
                                "name": "",
                                "type": "bool",
                                "value": true
                            }
                        ],
                        "signature": "transfer(address,uint256)"
                    },
                    "errorInfo": "",
                    "fromAddress": "0xce16f69375520ab01377ce7b88f5ba8c48f8d666",
                    "gasUsed": 11617,
                    "id": 11,
                    "methodDecoded": true,
                    "operation": "CALL",
                    "output": "0x0000000000000000000000000000000000000000000000000000000000000001",
                    "revert": false,
                    "revertMessage": "",
                    "selector": "0xa9059cbb",
                    "status": true,
                    "value": "0"
                },
                "nodeType": 0
            },
            "12": {
                "invocation": {
                    "address": "0xa2327a938febf5fec13bacfb16ae10ecbc4cbdcf",
                    "callData": "0x000000000000000000000000e743a49f04f2f77eb2d3b753ae3ad599de8cea8400000000000000000000000000000000000000000000000000000001c398bb0c",
                    "decodedMethod": {
                        "callParams": [
                            {
                                "name": "to",
                                "type": "address",
                                "value": "0xe743a49f04f2f77eb2d3b753ae3ad599de8cea84"
                            },
                            {
                                "decimalAvailable": true,
                                "name": "value",
                                "type": "uint256",
                                "value": "7,576,533,772"
                            }
                        ],
                        "constructorArguments": "",
                        "name": "transfer",
                        "returnParams": [
                            {
                                "name": "",
                                "type": "bool",
                                "value": true
                            }
                        ],
                        "signature": "transfer(address,uint256)"
                    },
                    "errorInfo": "",
                    "fromAddress": "0xa0b86991c6218b36c1d19d4a2e9eb0ce3606eb48",
                    "gasUsed": 10828,
                    "id": 12,
                    "methodDecoded": true,
                    "operation": "DELEGATECALL",
                    "output": "0x0000000000000000000000000000000000000000000000000000000000000001",
                    "revert": false,
                    "revertMessage": "",
                    "selector": "0xa9059cbb",
                    "status": true,
                    "value": "0"
                },
                "nodeType": 0
            },
            "13": {
                "event": {
                    "contract": "0xa0b86991c6218b36c1d19d4a2e9eb0ce3606eb48",
                    "decodedLog": {
                        "name": "Transfer",
                        "params": [
                            {
                                "name": "from",
                                "type": "address",
                                "value": "0xce16f69375520ab01377ce7b88f5ba8c48f8d666"
                            },
                            {
                                "name": "to",
                                "type": "address",
                                "value": "0xe743a49f04f2f77eb2d3b753ae3ad599de8cea84"
                            },
                            {
                                "decimalAvailable": true,
                                "name": "value",
                                "type": "uint256",
                                "value": "7,576,533,772"
                            }
                        ],
                        "signature": "Transfer(address,address,uint256)"
                    },
                    "id": 13,
                    "logData": "0x00000000000000000000000000000000000000000000000000000001c398bb0c",
                    "logDecoded": true,
                    "operation": "EVENT",
                    "revert": false,
                    "status": true,
                    "topics": [
                        "0xddf252ad1be2c89b69c2b068fc378daa952ba7f163c4a11628f55a4df523b3ef",
                        "0x000000000000000000000000ce16f69375520ab01377ce7b88f5ba8c48f8d666",
                        "0x000000000000000000000000e743a49f04f2f77eb2d3b753ae3ad599de8cea84"
                    ]
                },
                "nodeType": 1
            },
            "2": {
                "invocation": {
                    "address": "0x4f4495243837681061c4743b74b3eedf548d56a5",
                    "callData": "0x62975a7822cc45600723a9db00461588cda380f506c18f85fee0a07a30abc7ec00000000000000000000000000000000000000000000000000000000000000c00000000000000000000000000000000000000000000000000000000000000100c3b4465d558d101a5660593c6734c723695831159b33ec95c60ea75707740d28000000000000000000000000000000000000000000000000000000000000016000000000000000000000000000000000000000000000000000000001c398bb0c000000000000000000000000000000000000000000000000000000000000000762696e616e636500000000000000000000000000000000000000000000000000000000000000000000000000000000000000000000000000000000000000002a3078636531364636393337353532306162303133373763653742383866354241384334384638443636360000000000000000000000000000000000000000000000000000000000000000000000000000000000000000000000000000000000045553444300000000000000000000000000000000000000000000000000000000",
                    "decodedMethod": {
                        "callParams": [
                            {
                                "name": "commandId",
                                "type": "bytes32",
                                "value": "0x62975a7822cc45600723a9db00461588cda380f506c18f85fee0a07a30abc7ec"
                            },
                            {
                                "name": "sourceChain",
                                "type": "string",
                                "value": "binance"
                            },
                            {
                                "name": "sourceAddress",
                                "type": "string",
                                "value": "0xce16F69375520ab01377ce7B88f5BA8C48F8D666"
                            },
                            {
                                "name": "payloadHash",
                                "type": "bytes32",
                                "value": "0xc3b4465d558d101a5660593c6734c723695831159b33ec95c60ea75707740d28"
                            },
                            {
                                "name": "symbol",
                                "type": "string",
                                "value": "USDC"
                            },
                            {
                                "name": "amount",
                                "type": "uint256",
                                "value": "7,576,533,772"
                            }
                        ],
                        "constructorArguments": "",
                        "name": "validateContractCallAndMint",
                        "returnParams": [
                            {
                                "name": "valid",
                                "type": "bool",
                                "value": true
                            }
                        ],
                        "signature": "validateContractCallAndMint(bytes32,string,string,bytes32,string,uint256)"
                    },
                    "errorInfo": "",
                    "fromAddress": "0xce16f69375520ab01377ce7b88f5ba8c48f8d666",
                    "gasUsed": 77411,
                    "id": 2,
                    "methodDecoded": true,
                    "operation": "CALL",
                    "output": "0x0000000000000000000000000000000000000000000000000000000000000001",
                    "revert": false,
                    "revertMessage": "",
                    "selector": "0x1876eed9",
                    "status": true,
                    "value": "0"
                },
                "nodeType": 0
            },
            "3": {
                "invocation": {
                    "address": "0x99b5fa03a5ea4315725c43346e55a6a6fbd94098",
                    "callData": "0x62975a7822cc45600723a9db00461588cda380f506c18f85fee0a07a30abc7ec00000000000000000000000000000000000000000000000000000000000000c00000000000000000000000000000000000000000000000000000000000000100c3b4465d558d101a5660593c6734c723695831159b33ec95c60ea75707740d28000000000000000000000000000000000000000000000000000000000000016000000000000000000000000000000000000000000000000000000001c398bb0c000000000000000000000000000000000000000000000000000000000000000762696e616e636500000000000000000000000000000000000000000000000000000000000000000000000000000000000000000000000000000000000000002a3078636531364636393337353532306162303133373763653742383866354241384334384638443636360000000000000000000000000000000000000000000000000000000000000000000000000000000000000000000000000000000000045553444300000000000000000000000000000000000000000000000000000000",
                    "decodedMethod": {
                        "callParams": [
                            {
                                "name": "commandId",
                                "type": "bytes32",
                                "value": "0x62975a7822cc45600723a9db00461588cda380f506c18f85fee0a07a30abc7ec"
                            },
                            {
                                "name": "sourceChain",
                                "type": "string",
                                "value": "binance"
                            },
                            {
                                "name": "sourceAddress",
                                "type": "string",
                                "value": "0xce16F69375520ab01377ce7B88f5BA8C48F8D666"
                            },
                            {
                                "name": "payloadHash",
                                "type": "bytes32",
                                "value": "0xc3b4465d558d101a5660593c6734c723695831159b33ec95c60ea75707740d28"
                            },
                            {
                                "name": "symbol",
                                "type": "string",
                                "value": "USDC"
                            },
                            {
                                "name": "amount",
                                "type": "uint256",
                                "value": "7,576,533,772"
                            }
                        ],
                        "constructorArguments": "",
                        "name": "validateContractCallAndMint",
                        "returnParams": [
                            {
                                "name": "valid",
                                "type": "bool",
                                "value": true
                            }
                        ],
                        "signature": "validateContractCallAndMint(bytes32,string,string,bytes32,string,uint256)"
                    },
                    "errorInfo": "",
                    "fromAddress": "0x4f4495243837681061c4743b74b3eedf548d56a5",
                    "gasUsed": 72368,
                    "id": 3,
                    "methodDecoded": true,
                    "operation": "DELEGATECALL",
                    "output": "0x0000000000000000000000000000000000000000000000000000000000000001",
                    "revert": false,
                    "revertMessage": "",
                    "selector": "0x1876eed9",
                    "status": true,
                    "value": "0"
                },
                "nodeType": 0
            },
            "4": {
                "event": {
                    "contract": "0x4f4495243837681061c4743b74b3eedf548d56a5",
                    "decodedLog": {
                        "name": "ContractCallExecuted",
                        "params": [
                            {
                                "name": "commandId",
                                "type": "bytes32",
                                "value": "0x62975a7822cc45600723a9db00461588cda380f506c18f85fee0a07a30abc7ec"
                            }
                        ],
                        "signature": "ContractCallExecuted(bytes32)"
                    },
                    "id": 4,
                    "logData": "0x",
                    "logDecoded": true,
                    "operation": "EVENT",
                    "revert": false,
                    "status": true,
                    "topics": [
                        "0x91057b069763121972ce22b18b2f319b1520dd4c72f1f94a6395e81ceaf63f41",
                        "0x62975a7822cc45600723a9db00461588cda380f506c18f85fee0a07a30abc7ec"
                    ]
                },
                "nodeType": 1
            },
            "5": {
                "invocation": {
                    "address": "0xa0b86991c6218b36c1d19d4a2e9eb0ce3606eb48",
                    "callData": "0x000000000000000000000000ce16f69375520ab01377ce7b88f5ba8c48f8d66600000000000000000000000000000000000000000000000000000001c398bb0c",
                    "decodedMethod": {
                        "callParams": [
                            {
                                "name": "to",
                                "type": "address",
                                "value": "0xce16f69375520ab01377ce7b88f5ba8c48f8d666"
                            },
                            {
                                "decimalAvailable": true,
                                "name": "value",
                                "type": "uint256",
                                "value": "7,576,533,772"
                            }
                        ],
                        "constructorArguments": "",
                        "name": "transfer",
                        "returnParams": [
                            {
                                "name": "",
                                "type": "bool",
                                "value": true
                            }
                        ],
                        "signature": "transfer(address,uint256)"
                    },
                    "errorInfo": "",
                    "fromAddress": "0x4f4495243837681061c4743b74b3eedf548d56a5",
                    "gasUsed": 44017,
                    "id": 5,
                    "methodDecoded": true,
                    "operation": "CALL",
                    "output": "0x0000000000000000000000000000000000000000000000000000000000000001",
                    "revert": false,
                    "revertMessage": "",
                    "selector": "0xa9059cbb",
                    "status": true,
                    "value": "0"
                },
                "nodeType": 0
            },
            "6": {
                "invocation": {
                    "address": "0xa2327a938febf5fec13bacfb16ae10ecbc4cbdcf",
                    "callData": "0x000000000000000000000000ce16f69375520ab01377ce7b88f5ba8c48f8d66600000000000000000000000000000000000000000000000000000001c398bb0c",
                    "decodedMethod": {
                        "callParams": [
                            {
                                "name": "to",
                                "type": "address",
                                "value": "0xce16f69375520ab01377ce7b88f5ba8c48f8d666"
                            },
                            {
                                "decimalAvailable": true,
                                "name": "value",
                                "type": "uint256",
                                "value": "7,576,533,772"
                            }
                        ],
                        "constructorArguments": "",
                        "name": "transfer",
                        "returnParams": [
                            {
                                "name": "",
                                "type": "bool",
                                "value": true
                            }
                        ],
                        "signature": "transfer(address,uint256)"
                    },
                    "errorInfo": "",
                    "fromAddress": "0xa0b86991c6218b36c1d19d4a2e9eb0ce3606eb48",
                    "gasUsed": 36728,
                    "id": 6,
                    "methodDecoded": true,
                    "operation": "DELEGATECALL",
                    "output": "0x0000000000000000000000000000000000000000000000000000000000000001",
                    "revert": false,
                    "revertMessage": "",
                    "selector": "0xa9059cbb",
                    "status": true,
                    "value": "0"
                },
                "nodeType": 0
            },
            "7": {
                "event": {
                    "contract": "0xa0b86991c6218b36c1d19d4a2e9eb0ce3606eb48",
                    "decodedLog": {
                        "name": "Transfer",
                        "params": [
                            {
                                "name": "from",
                                "type": "address",
                                "value": "0x4f4495243837681061c4743b74b3eedf548d56a5"
                            },
                            {
                                "name": "to",
                                "type": "address",
                                "value": "0xce16f69375520ab01377ce7b88f5ba8c48f8d666"
                            },
                            {
                                "decimalAvailable": true,
                                "name": "value",
                                "type": "uint256",
                                "value": "7,576,533,772"
                            }
                        ],
                        "signature": "Transfer(address,address,uint256)"
                    },
                    "id": 7,
                    "logData": "0x00000000000000000000000000000000000000000000000000000001c398bb0c",
                    "logDecoded": true,
                    "operation": "EVENT",
                    "revert": false,
                    "status": true,
                    "topics": [
                        "0xddf252ad1be2c89b69c2b068fc378daa952ba7f163c4a11628f55a4df523b3ef",
                        "0x0000000000000000000000004f4495243837681061c4743b74b3eedf548d56a5",
                        "0x000000000000000000000000ce16f69375520ab01377ce7b88f5ba8c48f8d666"
                    ]
                },
                "nodeType": 1
            },
            "8": {
                "event": {
                    "contract": "0xce16f69375520ab01377ce7b88f5ba8c48f8d666",
                    "decodedLog": {
                        "name": "ExpressExecutionWithTokenFulfilled",
                        "params": [
                            {
                                "name": "commandId",
                                "type": "bytes32",
                                "value": "0x62975a7822cc45600723a9db00461588cda380f506c18f85fee0a07a30abc7ec"
                            },
                            {
                                "name": "amount",
                                "type": "uint256",
                                "value": "7,576,533,772"
                            },
                            {
                                "name": "expressExecutor",
                                "type": "address",
                                "value": "0xe743a49f04f2f77eb2d3b753ae3ad599de8cea84"
                            },
                            {
                                "name": "sourceChain",
                                "type": "string",
                                "value": "binance"
                            },
                            {
                                "name": "sourceAddress",
                                "type": "string",
                                "value": "0xce16F69375520ab01377ce7B88f5BA8C48F8D666"
                            },
                            {
                                "name": "payloadHash",
                                "type": "bytes32",
                                "value": "0xc3b4465d558d101a5660593c6734c723695831159b33ec95c60ea75707740d28"
                            },
                            {
                                "name": "symbol",
                                "type": "string",
                                "value": "USDC"
                            }
                        ],
                        "signature": "ExpressExecutionWithTokenFulfilled(bytes32,string,string,bytes32,string,uint256,address)"
                    },
                    "id": 8,
                    "logData": "0x000000000000000000000000000000000000000000000000000000000000008000000000000000000000000000000000000000000000000000000000000000c0c3b4465d558d101a5660593c6734c723695831159b33ec95c60ea75707740d280000000000000000000000000000000000000000000000000000000000000120000000000000000000000000000000000000000000000000000000000000000762696e616e636500000000000000000000000000000000000000000000000000000000000000000000000000000000000000000000000000000000000000002a3078636531364636393337353532306162303133373763653742383866354241384334384638443636360000000000000000000000000000000000000000000000000000000000000000000000000000000000000000000000000000000000045553444300000000000000000000000000000000000000000000000000000000",
                    "logDecoded": true,
                    "operation": "EVENT",
                    "revert": false,
                    "status": true,
                    "topics": [
                        "0xdb3db9dfc9262f4fe09dbadef104f799d8181ec565e09275d80ed3355aab68d3",
                        "0x62975a7822cc45600723a9db00461588cda380f506c18f85fee0a07a30abc7ec",
                        "0x00000000000000000000000000000000000000000000000000000001c398bb0c",
                        "0x000000000000000000000000e743a49f04f2f77eb2d3b753ae3ad599de8cea84"
                    ]
                },
                "nodeType": 1
            },
            "9": {
                "invocation": {
                    "address": "0x4f4495243837681061c4743b74b3eedf548d56a5",
                    "callData": "0x000000000000000000000000000000000000000000000000000000000000002000000000000000000000000000000000000000000000000000000000000000045553444300000000000000000000000000000000000000000000000000000000",
                    "decodedMethod": {
                        "callParams": [
                            {
                                "name": "symbol",
                                "type": "string",
                                "value": "USDC"
                            }
                        ],
                        "constructorArguments": "",
                        "name": "tokenAddresses",
                        "returnParams": [
                            {
                                "name": "",
                                "type": "address",
                                "value": "0xa0b86991c6218b36c1d19d4a2e9eb0ce3606eb48"
                            }
                        ],
                        "signature": "tokenAddresses(string)"
                    },
                    "errorInfo": "",
                    "fromAddress": "0xce16f69375520ab01377ce7b88f5ba8c48f8d666",
                    "gasUsed": 1931,
                    "id": 9,
                    "methodDecoded": true,
                    "operation": "STATICCALL",
                    "output": "0x000000000000000000000000a0b86991c6218b36c1d19d4a2e9eb0ce3606eb48",
                    "revert": false,
                    "revertMessage": "",
                    "selector": "0x935b13f6",
                    "status": true,
                    "value": "0"
                },
                "nodeType": 0
            }
        },
        "gasFlame": [
            {
                "children": [
                    {
                        "children": [
                            {
                                "children": [],
                                "depth": 0,
                                "name": "Initial Gas",
                                "value": 35996
                            },
                            {
                                "children": [
                                    {
                                        "children": [
                                            {
                                                "children": [
                                                    {
                                                        "children": [
                                                            {
                                                                "children": [
                                                                    {
                                                                        "children": [],
                                                                        "depth": 5,
                                                                        "name": "transfer",
                                                                        "value": 36728
                                                                    }
                                                                ],
                                                                "depth": 4,
                                                                "name": "transfer",
                                                                "value": 44017
                                                            }
                                                        ],
                                                        "depth": 3,
                                                        "name": "validateContractCallAndMint",
                                                        "value": 72368
                                                    }
                                                ],
                                                "depth": 2,
                                                "name": "validateContractCallAndMint",
                                                "value": 77411
                                            },
                                            {
                                                "children": [
                                                    {
                                                        "children": [],
                                                        "depth": 3,
                                                        "name": "tokenAddresses",
                                                        "value": 1448
                                                    }
                                                ],
                                                "depth": 2,
                                                "name": "tokenAddresses",
                                                "value": 1931
                                            },
                                            {
                                                "children": [
                                                    {
                                                        "children": [],
                                                        "depth": 3,
                                                        "name": "transfer",
                                                        "value": 10828
                                                    }
                                                ],
                                                "depth": 2,
                                                "name": "transfer",
                                                "value": 11617
                                            }
                                        ],
                                        "depth": 1,
                                        "name": "executeWithToken",
                                        "value": 109211
                                    }
                                ],
                                "depth": 0,
                                "name": "Executed Gas",
                                "value": 114612
                            }
                        ],
                        "depth": -1,
                        "name": "Actual Gas Used",
                        "value": 121108
                    },
                    {
                        "children": [],
                        "depth": -1,
                        "name": "Refunded Gas",
                        "value": 29500
                    }
                ],
                "depth": -2,
                "name": "Total Gas",
                "value": 150608
            }
        ],
        "isConfirmed": true,
        "mainTrace": [
            {
                "children": [
                    {
                        "children": [
                            {
                                "children": [
                                    {
                                        "children": [
                                            {
                                                "children": [
                                                    {
                                                        "children": [],
                                                        "depth": 4,
                                                        "id": 4,
                                                        "order": 4
                                                    },
                                                    {
                                                        "children": [
                                                            {
                                                                "children": [
                                                                    {
                                                                        "children": [],
                                                                        "depth": 6,
                                                                        "id": 7,
                                                                        "order": 7
                                                                    }
                                                                ],
                                                                "depth": 5,
                                                                "id": 6,
                                                                "order": 6
                                                            }
                                                        ],
                                                        "depth": 4,
                                                        "id": 5,
                                                        "order": 5
                                                    }
                                                ],
                                                "depth": 3,
                                                "id": 3,
                                                "order": 3
                                            }
                                        ],
                                        "depth": 2,
                                        "id": 2,
                                        "order": 2
                                    },
                                    {
                                        "children": [],
                                        "depth": 2,
                                        "id": 8,
                                        "order": 8
                                    },
                                    {
                                        "children": [
                                            {
                                                "children": [],
                                                "depth": 3,
                                                "id": 10,
                                                "order": 10
                                            }
                                        ],
                                        "depth": 2,
                                        "id": 9,
                                        "order": 9
                                    },
                                    {
                                        "children": [
                                            {
                                                "children": [
                                                    {
                                                        "children": [],
                                                        "depth": 4,
                                                        "id": 13,
                                                        "order": 13
                                                    }
                                                ],
                                                "depth": 3,
                                                "id": 12,
                                                "order": 12
                                            }
                                        ],
                                        "depth": 2,
                                        "id": 11,
                                        "order": 11
                                    }
                                ],
                                "depth": 1,
                                "id": 1,
                                "order": 1
                            }
                        ],
                        "depth": 0,
                        "id": 0,
                        "order": 0
                    }
                ],
                "depth": -1,
                "id": -1,
                "order": -1
            }
        ],
        "mainTraceNodeCount": 14,
        "parentIdMap": {
            "0": -1,
            "1": 0,
            "10": 9,
            "11": 1,
            "12": 11,
            "13": 12,
            "2": 1,
            "3": 2,
            "4": 3,
            "5": 3,
            "6": 5,
            "7": 6,
            "8": 1,
            "9": 1
        },
        "tidyTrace": [
            {
                "children": [
                    {
                        "children": [
                            {
                                "children": [
                                    {
                                        "children": [
                                            {
                                                "children": [
                                                    {
                                                        "children": [],
                                                        "depth": 4,
                                                        "id": 4,
                                                        "order": 4
                                                    },
                                                    {
                                                        "children": [
                                                            {
                                                                "children": [
                                                                    {
                                                                        "children": [],
                                                                        "depth": 6,
                                                                        "id": 7,
                                                                        "order": 7
                                                                    }
                                                                ],
                                                                "depth": 5,
                                                                "id": 6,
                                                                "order": 6
                                                            }
                                                        ],
                                                        "depth": 4,
                                                        "id": 5,
                                                        "order": 5
                                                    }
                                                ],
                                                "depth": 3,
                                                "id": 3,
                                                "order": 3
                                            }
                                        ],
                                        "depth": 2,
                                        "id": 2,
                                        "order": 2
                                    },
                                    {
                                        "children": [],
                                        "depth": 2,
                                        "id": 8,
                                        "order": 8
                                    },
                                    {
                                        "children": [
                                            {
                                                "children": [
                                                    {
                                                        "children": [],
                                                        "depth": 4,
                                                        "id": 13,
                                                        "order": 13
                                                    }
                                                ],
                                                "depth": 3,
                                                "id": 12,
                                                "order": 12
                                            }
                                        ],
                                        "depth": 2,
                                        "id": 11,
                                        "order": 11
                                    }
                                ],
                                "depth": 1,
                                "id": 1,
                                "order": 1
                            }
                        ],
                        "depth": 0,
                        "id": 0,
                        "order": 0
                    }
                ],
                "depth": -1,
                "id": -1,
                "order": -1
            }
        ],
        "tidyTraceNodeCount": 12
    },
    "state_change": {
        "stateChanges": [
            {
                "address": "0x4f4495243837681061c4743b74b3eedf548d56a5",
                "erc": "",
                "slots": [
                    {
                        "current": "0x0000000000000000000000000000000000000000000000000000000000000000",
                        "key": "0x391b6793a0478bc1fc5a4d12292c89a4e31656ab3f647290a78e34a0cc8f9e47",
                        "prev": "0x0000000000000000000000000000000000000000000000000000000000000001"
                    },
                    {
                        "current": "0x000000000000000000000000000000000000000000000000000000023b66a5d1",
                        "key": "0xb68b704178b5d25c8a4b5d106416b7c32c976f21ebf1fc6e9cb97c42ba022044",
                        "prev": "0x0000000000000000000000000000000000000000000000000000000077cdeac5"
                    }
                ],
                "storageVariables": [
                    {
                        "name": "_boolStorage",
                        "type": "mapping(bytes32 => bool)",
                        "value": {
                            "pairs": [
                                {
                                    "key": "0x7613caf1d74d2515136736f737fb10ccf58bd3c50d15a0aa62f4bf8243f2afc3",
                                    "value": {
                                        "current": "false",
                                        "prev": "true",
                                        "typeTag": 1
                                    }
                                }
                            ],
                            "typeTag": 4
                        }
                    },
                    {
                        "name": "_uintStorage",
                        "type": "mapping(bytes32 => uint256)",
                        "value": {
                            "pairs": [
                                {
                                    "key": "0x74d569b2d68889da3327e6dd130dd975e85a6553802d082c4731b715cbf40560",
                                    "value": {
                                        "current": "9586517457",
                                        "prev": "2009983685",
                                        "typeTag": 1
                                    }
                                }
                            ],
                            "typeTag": 4
                        }
                    }
                ]
            },
            {
                "address": "0xa0b86991c6218b36c1d19d4a2e9eb0ce3606eb48",
                "erc": "ERC-20",
                "slots": [
                    {
                        "current": "0x000000000000000000000000000000000000000000000000000040b1e2a6dbcf",
                        "key": "0xe7ddba802ef4ad1616f2fc34d9674656690b7ec1f85ac992bc6405e2972c6132",
                        "prev": "0x000000000000000000000000000000000000000000000000000040b3a63f96db"
                    },
                    {
                        "current": "0x0000000000000000000000000000000000000000000000000000000825db094a",
                        "key": "0x619f1143325ca0dbe2c7b989ce0c1538eb57e73f62e34533912907a4c59216b9",
                        "prev": "0x0000000000000000000000000000000000000000000000000000000662424e3e"
                    }
                ],
                "storageVariables": [
                    {
                        "name": "balances",
                        "type": "mapping(address => uint256)",
                        "value": {
                            "pairs": [
                                {
                                    "key": "0x4f4495243837681061c4743b74b3eedf548d56a5",
                                    "value": {
                                        "current": "71132755975119",
                                        "prev": "71140332508891",
                                        "typeTag": 1
                                    }
                                },
                                {
                                    "key": "0xe743a49f04f2f77eb2d3b753ae3ad599de8cea84",
                                    "value": {
                                        "current": "34994850122",
                                        "prev": "27418316350",
                                        "typeTag": 1
                                    }
                                }
                            ],
                            "typeTag": 4
                        }
                    }
                ]
            },
            {
                "address": "0xce16f69375520ab01377ce7b88f5ba8c48f8d666",
                "erc": "",
                "slots": [
                    {
                        "current": "0x0000000000000000000000000000000000000000000000000000000000000000",
                        "key": "0x858c1fbb930cbd9a60d0413bf27ef6a8b1e087ecc274739361a197905a77dbfe",
                        "prev": "0x000000000000000000000000e743a49f04f2f77eb2d3b753ae3ad599de8cea84"
                    }
                ],
                "storageVariables": []
            }
        ]
    }
}