{
    "balance_change": {
        "balanceChanges": [
            {
                "account": "0x9de4d9637977a56f591e63fb5da3dd6cea1c4499",
                "assets": [
                    {
                        "address": "0x2a1dca74419c2d304a3d359f428ee1a4e9324a90",
                        "amount": "48,800.5623816698484307",
                        "iconUrl": "",
                        "isERC1155": false,
                        "isERC721": false,
                        "sign": true,
                        "value": ""
                    }
                ]
            },
            {
                "account": "0x2d45b2ba880b5822109cc867ecaa92571cf9ca65",
                "assets": [
                    {
                        "address": "0x2a1dca74419c2d304a3d359f428ee1a4e9324a90",
                        "amount": "48,800.5623816698484307",
                        "iconUrl": "",
                        "isERC1155": false,
                        "isERC721": false,
                        "sign": false,
                        "value": ""
                    }
                ]
            }
        ]
    },
    "profile": {
        "basic_info": {
            "baseFee": "14.054235312",
            "blockNumber": 16857115,
            "callData": "0x345c5a890000000000000000000000009de4d9637977a56f591e63fb5da3dd6cea1c4499000000000000000000000000000000000000000000000000000000000000000300000000000000000000000000000000000000000000000005aee40cad000266000000000000000000000000000000000000000000000a557bd981ab0201b86c00000000000000000000000000000000000000000000000000000000641bfff800000000000000000000000000000000000000000000000000000000000000e00000000000000000000000000000000000000000000000000000000000000140000000000000000000000000000000000000000000000000000000000000002463333864613935342d666366312d343062312d623366312d6438316464386663376361620000000000000000000000000000000000000000000000000000000000000000000000000000000000000000000000000000000000000000000000413ae8ce6865a81cd8e2efab82afd7bbea0e4f5a7c361a12c371360d9a236313ce7d8cb09807fbd0a0a0f55b940bc2188230407c72f0f0b216632ce9d31c9f36911b00000000000000000000000000000000000000000000000000000000000000",
            "debugEnable": true,
            "errorInfo": "",
            "eventCount": 2,
            "feeRecipient": "0x95222290dd7278aa3ddd389cc1e1d165cc4bafe5",
            "formatValue": "0",
            "gasLimit": 107618,
            "gasPrice": "14.154235312",
            "gasUsed": 84704,
            "intTxnCount": 2,
            "internalRevert": false,
            "internalRevertMessage": "",
            "isContractCreation": false,
            "isFlashloan": false,
            "maxFee": "20.391443256",
            "nonce": 10,
            "overwritedBlockNumber": -1,
            "priorityFee": "0.1",
            "receiver": "0x2d45b2ba880b5822109cc867ecaa92571cf9ca65",
            "revertMessage": "",
            "sender": "0x9de4d9637977a56f591e63fb5da3dd6cea1c4499",
            "simulationEnable": true,
            "sourceTxnHash": "0xa37ad013492dcdc5c8fa5c390a5c43adcf0dd632fe45814d6f9e3dfe3fe4c553",
            "status": true,
            "timestamp": "2023-03-18T20:47:59Z",
            "transactionFee": "0.001198920347867648",
            "txnHash": "0xa37ad013492dcdc5c8fa5c390a5c43adcf0dd632fe45814d6f9e3dfe3fe4c553",
            "txnIndex": 125,
            "type": 2,
            "value": "0"
        },
        "fund_flow": [
            {
                "amount": "48,800.5623816698484307",
                "from": "0x2d45b2ba880b5822109cc867ecaa92571cf9ca65",
                "id": 1,
                "isERC1155": false,
                "isERC721": false,
                "isReverted": false,
                "order": 1,
                "to": "0x9de4d9637977a56f591e63fb5da3dd6cea1c4499",
                "token": "0x2a1dca74419c2d304a3d359f428ee1a4e9324a90"
            }
        ],
        "token_infos": [
            {
                "address": "0x2a1dca74419c2d304a3d359f428ee1a4e9324a90",
                "decimals": 18
            },
            {
                "address": "0xc02aaa39b223fe8d0a0e5c4f27ead9083c756cc2",
                "decimals": 18
            },
            {
                "address": "0xeeeeeeeeeeeeeeeeeeeeeeeeeeeeeeeeeeeeeeee",
                "decimals": 18
            }
        ]
    },
    "address_label": {
        "labels": [
            {
                "address": "0x0000000000000000000000000000000000000001",
                "label": "Precompiled"
            },
            {
                "address": "0x0000000000000000000000000000000000000002",
                "label": "Precompiled"
            },
            {
                "address": "0x0000000000000000000000000000000000000003",
                "label": "Precompiled"
            },
            {
                "address": "0x0000000000000000000000000000000000000004",
                "label": "Precompiled"
            },
            {
                "address": "0xeeeeeeeeeeeeeeeeeeeeeeeeeeeeeeeeeeeeeeee",
                "label": "Ether"
            },
            {
                "address": "0x2a1dca74419c2d304a3d359f428ee1a4e9324a90",
                "label": "Banana (BANA)"
            },
            {
                "address": "0x2d45b2ba880b5822109cc867ecaa92571cf9ca65",
                "label": "BananaClaimable"
            }
        ]
    },
    "trace": {
        "accountLabels": null,
        "dataMap": {
            "-1": {
                "invocation": {
                    "address": "0x9de4d9637977a56f591e63fb5da3dd6cea1c4499",
                    "callData": "",
                    "decodedMethod": null,
                    "errorInfo": "",
                    "fromAddress": "",
                    "gasUsed": 0,
                    "id": -1,
                    "methodDecoded": false,
                    "operation": "",
                    "output": "",
                    "revert": false,
                    "revertMessage": "",
                    "selector": "",
                    "status": false,
                    "value": ""
                },
                "nodeType": 0
            },
            "0": {
                "invocation": {
                    "address": "0x2d45b2ba880b5822109cc867ecaa92571cf9ca65",
                    "callData": "0x0000000000000000000000009de4d9637977a56f591e63fb5da3dd6cea1c4499000000000000000000000000000000000000000000000000000000000000000300000000000000000000000000000000000000000000000005aee40cad000266000000000000000000000000000000000000000000000a557bd981ab0201b86c00000000000000000000000000000000000000000000000000000000641bfff800000000000000000000000000000000000000000000000000000000000000e00000000000000000000000000000000000000000000000000000000000000140000000000000000000000000000000000000000000000000000000000000002463333864613935342d666366312d343062312d623366312d6438316464386663376361620000000000000000000000000000000000000000000000000000000000000000000000000000000000000000000000000000000000000000000000413ae8ce6865a81cd8e2efab82afd7bbea0e4f5a7c361a12c371360d9a236313ce7d8cb09807fbd0a0a0f55b940bc2188230407c72f0f0b216632ce9d31c9f36911b00000000000000000000000000000000000000000000000000000000000000",
                    "decodedMethod": {
                        "callParams": [
                            {
                                "name": "user",
                                "type": "address",
                                "value": "0x9de4d9637977a56f591e63fb5da3dd6cea1c4499"
                            },
                            {
                                "name": "useFor",
                                "type": "uint8",
                                "value": "3"
                            },
                            {
                                "name": "accountId",
                                "type": "uint256",
                                "value": "409,515,359,230,493,286"
                            },
                            {
                                "name": "amount",
                                "type": "uint256",
                                "value": "48,800,562,381,669,848,430,700"
                            },
                            {
                                "name": "expireAt",
                                "type": "uint256",
                                "value": "1,679,556,600"
                            },
                            {
                                "name": "nonce",
                                "type": "bytes",
                                "value": "0x63333864613935342d666366312d343062312d623366312d643831646438666337636162"
                            },
                            {
                                "name": "signature",
                                "type": "bytes",
                                "value": "0x3ae8ce6865a81cd8e2efab82afd7bbea0e4f5a7c361a12c371360d9a236313ce7d8cb09807fbd0a0a0f55b940bc2188230407c72f0f0b216632ce9d31c9f36911b"
                            }
                        ],
                        "constructorArguments": "",
                        "name": "claim",
                        "returnParams": [],
                        "signature": "claim(address,uint8,uint256,uint256,uint256,bytes,bytes)"
                    },
                    "errorInfo": "",
                    "fromAddress": "0x9de4d9637977a56f591e63fb5da3dd6cea1c4499",
                    "gasUsed": 84704,
                    "id": 0,
                    "methodDecoded": true,
                    "operation": "CALL",
                    "output": "",
                    "revert": false,
                    "revertMessage": "",
                    "selector": "0x345c5a89",
                    "status": true,
                    "value": "0"
                },
                "nodeType": 0
            },
            "1": {
                "invocation": {
                    "address": "0x0000000000000000000000000000000000000001",
                    "callData": "0x7091af9ad512178c7d3a49470fa2c4f897eadd8db31bc5f3c39a5246000000000000000000000000000000000000000000000000000000000000001b3ae8ce6865a81cd8e2efab82afd7bbea0e4f5a7c361a12c371360d9a236313ce7d8cb09807fbd0a0a0f55b940bc2188230407c72f0f0b216632ce9d31c9f3691",
                    "decodedMethod": {
                        "callParams": [
                            {
                                "name": "hash",
                                "type": "bytes32",
                                "value": "0xa0a9197e7091af9ad512178c7d3a49470fa2c4f897eadd8db31bc5f3c39a5246"
                            },
                            {
                                "name": "v",
                                "type": "uint256",
                                "value": "27"
                            },
                            {
                                "name": "r",
                                "type": "bytes32",
                                "value": "0x3ae8ce6865a81cd8e2efab82afd7bbea0e4f5a7c361a12c371360d9a236313ce"
                            },
                            {
                                "name": "s",
                                "type": "bytes32",
                                "value": "0x7d8cb09807fbd0a0a0f55b940bc2188230407c72f0f0b216632ce9d31c9f3691"
                            }
                        ],
                        "constructorArguments": "",
                        "name": "ecrecover",
                        "returnParams": [
                            {
                                "name": "",
                                "type": "address",
                                "value": "0xd2b6d51af2bf55864738fa1db575d1c7b442b097"
                            }
                        ],
                        "signature": "ecrecover(bytes32,uint256,bytes32,bytes32)"
                    },
                    "errorInfo": "",
                    "fromAddress": "0x2d45b2ba880b5822109cc867ecaa92571cf9ca65",
                    "gasUsed": 3000,
                    "id": 1,
                    "methodDecoded": true,
                    "operation": "STATICCALL",
                    "output": "0x000000000000000000000000d2b6d51af2bf55864738fa1db575d1c7b442b097",
                    "revert": false,
                    "revertMessage": "",
                    "selector": "0xa0a9197e",
                    "status": true,
                    "value": "0"
                },
                "nodeType": 0
            },
            "2": {
                "invocation": {
                    "address": "0x2a1dca74419c2d304a3d359f428ee1a4e9324a90",
                    "callData": "0x0000000000000000000000009de4d9637977a56f591e63fb5da3dd6cea1c4499000000000000000000000000000000000000000000000a557bd981ab0201b86c",
                    "decodedMethod": {
                        "callParams": [
                            {
                                "name": "to",
                                "type": "address",
                                "value": "0x9de4d9637977a56f591e63fb5da3dd6cea1c4499"
                            },
                            {
                                "decimalAvailable": true,
                                "name": "value",
                                "type": "uint256",
                                "value": "48,800,562,381,669,848,430,700"
                            }
                        ],
                        "constructorArguments": "",
                        "name": "transfer",
                        "returnParams": [
                            {
                                "name": "",
                                "type": "bool",
                                "value": true
                            }
                        ],
                        "signature": "transfer(address,uint256)"
                    },
                    "errorInfo": "",
                    "fromAddress": "0x2d45b2ba880b5822109cc867ecaa92571cf9ca65",
                    "gasUsed": 12969,
                    "id": 2,
                    "methodDecoded": true,
                    "operation": "CALL",
                    "output": "0x0000000000000000000000000000000000000000000000000000000000000001",
                    "revert": false,
                    "revertMessage": "",
                    "selector": "0xa9059cbb",
                    "status": true,
                    "value": "0"
                },
                "nodeType": 0
            },
            "3": {
                "event": {
                    "contract": "0x2a1dca74419c2d304a3d359f428ee1a4e9324a90",
                    "decodedLog": {
                        "name": "Transfer",
                        "params": [
                            {
                                "name": "from",
                                "type": "address",
                                "value": "0x2d45b2ba880b5822109cc867ecaa92571cf9ca65"
                            },
                            {
                                "name": "to",
                                "type": "address",
                                "value": "0x9de4d9637977a56f591e63fb5da3dd6cea1c4499"
                            },
                            {
                                "decimalAvailable": true,
                                "name": "value",
                                "type": "uint256",
                                "value": "48,800,562,381,669,848,430,700"
                            }
                        ],
                        "signature": "Transfer(address,address,uint256)"
                    },
                    "id": 3,
                    "logData": "0x000000000000000000000000000000000000000000000a557bd981ab0201b86c",
                    "logDecoded": true,
                    "operation": "EVENT",
                    "revert": false,
                    "status": true,
                    "topics": [
                        "0xddf252ad1be2c89b69c2b068fc378daa952ba7f163c4a11628f55a4df523b3ef",
                        "0x0000000000000000000000002d45b2ba880b5822109cc867ecaa92571cf9ca65",
                        "0x0000000000000000000000009de4d9637977a56f591e63fb5da3dd6cea1c4499"
                    ]
                },
                "nodeType": 1
            },
            "4": {
                "event": {
                    "contract": "0x2d45b2ba880b5822109cc867ecaa92571cf9ca65",
                    "decodedLog": {
                        "name": "Claim",
                        "params": [
                            {
                                "name": "user",
                                "type": "address",
                                "value": "0x9de4d9637977a56f591e63fb5da3dd6cea1c4499"
                            },
                            {
                                "name": "useFor",
                                "type": "uint8",
                                "value": "3"
                            },
                            {
                                "name": "amount",
                                "type": "uint256",
                                "value": "48,800,562,381,669,848,430,700"
                            },
                            {
                                "name": "nonce",
                                "type": "bytes",
                                "value": "0x63333864613935342d666366312d343062312d623366312d643831646438666337636162"
                            }
                        ],
                        "signature": "Claim(address,uint8,uint256,bytes)"
                    },
                    "id": 4,
                    "logData": "0x0000000000000000000000000000000000000000000000000000000000000003000000000000000000000000000000000000000000000a557bd981ab0201b86c0000000000000000000000000000000000000000000000000000000000000060000000000000000000000000000000000000000000000000000000000000002463333864613935342d666366312d343062312d623366312d64383164643866633763616200000000000000000000000000000000000000000000000000000000",
                    "logDecoded": true,
                    "operation": "EVENT",
                    "revert": false,
                    "status": true,
                    "topics": [
                        "0x7e693b5342b063ee80f64b1879f42239619b142e9a71e3d279f30c6ee140f169",
                        "0x0000000000000000000000009de4d9637977a56f591e63fb5da3dd6cea1c4499"
                    ]
                },
                "nodeType": 1
            }
        },
        "gasFlame": [
            {
                "children": [
                    {
                        "children": [
                            {
                                "children": [],
                                "depth": 0,
                                "name": "Initial Gas",
                                "value": 24632
                            },
                            {
                                "children": [
                                    {
                                        "children": [],
                                        "depth": 1,
                                        "name": "ecrecover",
                                        "value": 3000
                                    },
                                    {
                                        "children": [],
                                        "depth": 1,
                                        "name": "transfer",
                                        "value": 12969
                                    }
                                ],
                                "depth": 0,
                                "name": "Executed Gas",
                                "value": 62872
                            }
                        ],
                        "depth": -1,
                        "name": "Actual Gas Used",
                        "value": 84704
                    },
                    {
                        "children": [],
                        "depth": -1,
                        "name": "Refunded Gas",
                        "value": 2800
                    }
                ],
                "depth": -2,
                "name": "Total Gas",
                "value": 87504
            }
        ],
        "isConfirmed": true,
        "mainTrace": [
            {
                "children": [
                    {
                        "children": [
                            {
                                "children": [],
                                "depth": 1,
                                "id": 1,
                                "order": 1
                            },
                            {
                                "children": [
                                    {
                                        "children": [],
                                        "depth": 2,
                                        "id": 3,
                                        "order": 3
                                    }
                                ],
                                "depth": 1,
                                "id": 2,
                                "order": 2
                            },
                            {
                                "children": [],
                                "depth": 1,
                                "id": 4,
                                "order": 4
                            }
                        ],
                        "depth": 0,
                        "id": 0,
                        "order": 0
                    }
                ],
                "depth": -1,
                "id": -1,
                "order": -1
            }
        ],
        "mainTraceNodeCount": 5,
        "parentIdMap": {
            "0": -1,
            "1": 0,
            "2": 0,
            "3": 2,
            "4": 0
        },
        "tidyTrace": [
            {
                "children": [
                    {
                        "children": [
                            {
                                "children": [
                                    {
                                        "children": [],
                                        "depth": 2,
                                        "id": 3,
                                        "order": 3
                                    }
                                ],
                                "depth": 1,
                                "id": 2,
                                "order": 2
                            },
                            {
                                "children": [],
                                "depth": 1,
                                "id": 4,
                                "order": 4
                            }
                        ],
                        "depth": 0,
                        "id": 0,
                        "order": 0
                    }
                ],
                "depth": -1,
                "id": -1,
                "order": -1
            }
        ],
        "tidyTraceNodeCount": 4
    },
    "state_change": {
        "stateChanges": [
            {
                "address": "0x2a1dca74419c2d304a3d359f428ee1a4e9324a90",
                "erc": "ERC-20",
                "slots": [
                    {
                        "current": "0x000000000000000000000000000000000000000005cfca5d1c1bbcdce8d4d440",
                        "key": "0x97bf423cbaed2a57d8d795ee0824915aca7a0d1535d05b21e1827240145f7be3",
                        "prev": "0x000000000000000000000000000000000000000005cfd4b297f53e87ead68cac"
                    },
                    {
                        "current": "0x0000000000000000000000000000000000000000000021da59ed37bb57ccfac8",
                        "key": "0x0270fc1d13ccecaec87acbae7d6d9632923184f2f4e696ec6362b191b8c0f0a0",
                        "prev": "0x000000000000000000000000000000000000000000001784de13b61055cb425c"
                    }
                ],
                "storageVariables": [
                    {
                        "name": "balanceOf",
                        "type": "mapping(address => uint256)",
                        "value": {
                            "pairs": [
                                {
                                    "key": "0x2d45b2ba880b5822109cc867ecaa92571cf9ca65",
                                    "value": {
                                        "current": "1798628329369112220527809600",
                                        "prev": "1798677129931493890376240300",
                                        "typeTag": 1
                                    }
                                },
                                {
                                    "key": "0x9de4d9637977a56f591e63fb5da3dd6cea1c4499",
                                    "value": {
                                        "current": "159865964039483601779400",
                                        "prev": "111065401657813753348700",
                                        "typeTag": 1
                                    }
                                }
                            ],
                            "typeTag": 4
                        }
                    }
                ]
            },
            {
                "address": "0x2d45b2ba880b5822109cc867ecaa92571cf9ca65",
                "erc": "",
                "slots": [
                    {
                        "current": "0x0000000000000000000000000000000000000000000000000000000000000001",
                        "key": "0xc803106a07c8aaa056dbcf89886f8947062902dddfb5c47191bb1b8bb926addf",
                        "prev": "0x0000000000000000000000000000000000000000000000000000000000000000"
                    },
                    {
                        "current": "0x00000000000000000000000000000000000000000000000000000000641bfff8",
                        "key": "0xc5f6ee3c79c7549e2fa92ecfc605d26709cda7224241bd944871f78673838c31",
                        "prev": "0x0000000000000000000000000000000000000000000000000000000064098af8"
                    }
                ],
                "storageVariables": []
            }
        ]
    }
}