{
    "balance_change": {
        "balanceChanges": [
            {
                "account": "0x3819ad3f8ae8ff1c504f729a6c89dbeca1146cc4",
                "assets": [
                    {
                        "address": "0x0000000000085d4780b73119b644ae5ecd22b376",
                        "amount": "1,497.33",
                        "iconUrl": "https://assets.blocksec.com/icon/67253da83e8ec0bc4adc998fae95ccd612ecf76a66cb8dd38ca9b97c929a1250.png",
                        "isERC1155": false,
                        "isERC721": false,
                        "sign": false,
                        "value": ""
                    }
                ]
            },
            {
                "account": "0x29d5527caa78f1946a409fa6acaf14a0a4a0274b",
                "assets": [
                    {
                        "address": "0x0000000000085d4780b73119b644ae5ecd22b376",
                        "amount": "1,497.33",
                        "iconUrl": "https://assets.blocksec.com/icon/67253da83e8ec0bc4adc998fae95ccd612ecf76a66cb8dd38ca9b97c929a1250.png",
                        "isERC1155": false,
                        "isERC721": false,
                        "sign": true,
                        "value": ""
                    }
                ]
            }
        ]
    },
    "profile": {
        "basic_info": {
            "baseFee": "",
            "blockNumber": 8414804,
            "callData": "0xafef944f0000000000000000000000000000000000085d4780b73119b644ae5ecd22b376",
            "debugEnable": true,
            "errorInfo": "",
            "eventCount": 1,
            "feeRecipient": "0x5a0b54d5dc17e0aadc383d2db43b0a0d3e029c4c",
            "formatValue": "0",
            "gasLimit": 125000,
            "gasPrice": "1",
            "gasUsed": 36209,
            "intTxnCount": 8,
            "internalRevert": false,
            "internalRevertMessage": "",
            "isContractCreation": false,
            "isFlashloan": false,
            "maxFee": "",
            "nonce": 28660,
            "overwritedBlockNumber": -1,
            "priorityFee": "",
            "receiver": "0x3819ad3f8ae8ff1c504f729a6c89dbeca1146cc4",
            "revertMessage": "",
            "sender": "0xf24c621e5108607f4ec60e9c4f91719a76c7b3c9",
            "simulationEnable": true,
            "sourceTxnHash": "0xa3e2e52fd59bbd5797874249d2d11995f8b1523f821acf4e57b71def17dee6d4",
            "status": true,
            "timestamp": "2019-08-24T19:26:13Z",
            "transactionFee": "0.000036209",
            "txnHash": "0xa3e2e52fd59bbd5797874249d2d11995f8b1523f821acf4e57b71def17dee6d4",
            "txnIndex": 21,
            "type": 0,
            "value": "0"
        },
        "fund_flow": [
            {
                "amount": "1,497.33",
                "from": "0x3819ad3f8ae8ff1c504f729a6c89dbeca1146cc4",
                "id": 1,
                "isERC1155": false,
                "isERC721": false,
                "isReverted": false,
                "order": 1,
                "to": "0x29d5527caa78f1946a409fa6acaf14a0a4a0274b",
                "token": "0x0000000000085d4780b73119b644ae5ecd22b376"
            }
        ],
        "token_infos": [
            {
                "address": "0x0000000000085d4780b73119b644ae5ecd22b376",
                "decimals": 18
            },
            {
                "address": "0xc02aaa39b223fe8d0a0e5c4f27ead9083c756cc2",
                "decimals": 18
            },
            {
                "address": "0xeeeeeeeeeeeeeeeeeeeeeeeeeeeeeeeeeeeeeeee",
                "decimals": 18
            }
        ]
    },
    "address_label": {
        "labels": [
            {
                "address": "0x0000000000000000000000000000000000000001",
                "label": "Precompiled"
            },
            {
                "address": "0x0000000000000000000000000000000000000002",
                "label": "Precompiled"
            },
            {
                "address": "0x0000000000000000000000000000000000000003",
                "label": "Precompiled"
            },
            {
                "address": "0x0000000000000000000000000000000000000004",
                "label": "Precompiled"
            },
            {
                "address": "0xeeeeeeeeeeeeeeeeeeeeeeeeeeeeeeeeeeeeeeee",
                "label": "Ether"
            },
            {
                "address": "0x0000000000085d4780b73119b644ae5ecd22b376",
                "label": "TrueUSD: TUSD Token"
            },
            {
                "address": "0xcb9a11afdc6bdb92e4a6235959455f28758b34ba",
                "label": "TrueUSD (TUSD)"
            },
            {
                "address": "0x29d5527caa78f1946a409fa6acaf14a0a4a0274b",
                "label": "Bitso 2"
            }
        ]
    },
    "trace": {
        "accountLabels": null,
        "dataMap": {
            "-1": {
                "invocation": {
                    "address": "0xf24c621e5108607f4ec60e9c4f91719a76c7b3c9",
                    "callData": "",
                    "decodedMethod": null,
                    "errorInfo": "",
                    "fromAddress": "",
                    "gasUsed": 0,
                    "id": -1,
                    "methodDecoded": false,
                    "operation": "",
                    "output": "",
                    "revert": false,
                    "revertMessage": "",
                    "selector": "",
                    "status": false,
                    "value": ""
                },
                "nodeType": 0
            },
            "0": {
                "invocation": {
                    "address": "0x3819ad3f8ae8ff1c504f729a6c89dbeca1146cc4",
                    "callData": "0x0000000000000000000000000000000000085d4780b73119b644ae5ecd22b376",
                    "decodedMethod": null,
                    "errorInfo": "",
                    "fromAddress": "0xf24c621e5108607f4ec60e9c4f91719a76c7b3c9",
                    "gasUsed": 36209,
                    "id": 0,
                    "methodDecoded": false,
                    "operation": "CALL",
                    "output": "0x0000000000000000000000000000000000000000000000000000000000000001",
                    "revert": false,
                    "revertMessage": "",
                    "selector": "0xafef944f",
                    "status": true,
                    "value": "0"
                },
                "nodeType": 0
            },
            "1": {
                "invocation": {
                    "address": "0x64b29dc43e817817cf77468c8dda63d98ce08fb2",
                    "callData": "0x0000000000000000000000000000000000085d4780b73119b644ae5ecd22b376",
                    "decodedMethod": null,
                    "errorInfo": "",
                    "fromAddress": "0x3819ad3f8ae8ff1c504f729a6c89dbeca1146cc4",
                    "gasUsed": 28071,
                    "id": 1,
                    "methodDecoded": false,
                    "operation": "DELEGATECALL",
                    "output": "0x0000000000000000000000000000000000000000000000000000000000000001",
                    "revert": false,
                    "revertMessage": "",
                    "selector": "0xafef944f",
                    "status": true,
                    "value": "0"
                },
                "nodeType": 0
            },
            "2": {
                "invocation": {
                    "address": "0x1b3968e3f543bba37339953e8ae975a6f581f5e0",
                    "callData": "0x",
                    "decodedMethod": null,
                    "errorInfo": "",
                    "fromAddress": "0x3819ad3f8ae8ff1c504f729a6c89dbeca1146cc4",
                    "gasUsed": 399,
                    "id": 2,
                    "methodDecoded": false,
                    "operation": "CALL",
                    "output": "0x0000000000000000000000003fac108cfe0e5618cbb88014855daca419e0b7ef",
                    "revert": false,
                    "revertMessage": "",
                    "selector": "0x19a9162d",
                    "status": true,
                    "value": "0"
                },
                "nodeType": 0
            },
            "3": {
                "invocation": {
                    "address": "0x3fac108cfe0e5618cbb88014855daca419e0b7ef",
                    "callData": "0x0000000000000000000000000000000000085d4780b73119b644ae5ecd22b376",
                    "decodedMethod": null,
                    "errorInfo": "",
                    "fromAddress": "0x3819ad3f8ae8ff1c504f729a6c89dbeca1146cc4",
                    "gasUsed": 25261,
                    "id": 3,
                    "methodDecoded": false,
                    "operation": "DELEGATECALL",
                    "output": "0x0000000000000000000000000000000000000000000000000000000000000001",
                    "revert": false,
                    "revertMessage": "",
                    "selector": "0xafef944f",
                    "status": true,
                    "value": "0"
                },
                "nodeType": 0
            },
            "4": {
                "invocation": {
                    "address": "0x2b3e08774e9874f6e3487889651553dd2e4467da",
                    "callData": "0x0000000000000000000000001b3968e3f543bba37339953e8ae975a6f581f5e0707265646566696e656445524332300000000000000000000000000000000000000000000000000000000000f24c621e5108607f4ec60e9c4f91719a76c7b3c9",
                    "decodedMethod": {
                        "callParams": [
                            {
                                "name": "resource",
                                "type": "address",
                                "value": "0x1b3968e3f543bba37339953e8ae975a6f581f5e0"
                            },
                            {
                                "name": "role",
                                "type": "bytes32",
                                "value": "0x707265646566696e656445524332300000000000000000000000000000000000"
                            },
                            {
                                "name": "account",
                                "type": "address",
                                "value": "0xf24c621e5108607f4ec60e9c4f91719a76c7b3c9"
                            }
                        ],
                        "constructorArguments": "",
                        "name": "hasRole",
                        "returnParams": [
                            {
                                "name": "",
                                "type": "bool",
                                "value": true
                            }
                        ],
                        "signature": "hasRole(address,bytes32,address)"
                    },
                    "errorInfo": "",
                    "fromAddress": "0x3819ad3f8ae8ff1c504f729a6c89dbeca1146cc4",
                    "gasUsed": 802,
                    "id": 4,
                    "methodDecoded": true,
                    "operation": "CALL",
                    "output": "0x0000000000000000000000000000000000000000000000000000000000000001",
                    "revert": false,
                    "revertMessage": "",
                    "selector": "0x2d3e579a",
                    "status": true,
                    "value": "0"
                },
                "nodeType": 0
            },
            "5": {
                "invocation": {
                    "address": "0x0000000000085d4780b73119b644ae5ecd22b376",
                    "callData": "0x0000000000000000000000003819ad3f8ae8ff1c504f729a6c89dbeca1146cc4",
                    "decodedMethod": {
                        "callParams": [
                            {
                                "name": "_who",
                                "type": "address",
                                "value": "0x3819ad3f8ae8ff1c504f729a6c89dbeca1146cc4"
                            }
                        ],
                        "constructorArguments": "",
                        "name": "balanceOf",
                        "returnParams": [
                            {
                                "decimalAvailable": true,
                                "name": "",
                                "type": "uint256",
                                "value": "1,497,330,000,000,000,000,000"
                            }
                        ],
                        "signature": "balanceOf(address)"
                    },
                    "errorInfo": "",
                    "fromAddress": "0x3819ad3f8ae8ff1c504f729a6c89dbeca1146cc4",
                    "gasUsed": 2435,
                    "id": 5,
                    "methodDecoded": true,
                    "operation": "CALL",
                    "output": "0x0000000000000000000000000000000000000000000000512ba0c5ce3fa50000",
                    "revert": false,
                    "revertMessage": "",
                    "selector": "0x70a08231",
                    "status": true,
                    "value": "0"
                },
                "nodeType": 0
            },
            "6": {
                "invocation": {
                    "address": "0xcb9a11afdc6bdb92e4a6235959455f28758b34ba",
                    "callData": "0x0000000000000000000000003819ad3f8ae8ff1c504f729a6c89dbeca1146cc4",
                    "decodedMethod": {
                        "callParams": [
                            {
                                "name": "_who",
                                "type": "address",
                                "value": "0x3819ad3f8ae8ff1c504f729a6c89dbeca1146cc4"
                            }
                        ],
                        "constructorArguments": "",
                        "name": "balanceOf",
                        "returnParams": [
                            {
                                "decimalAvailable": true,
                                "name": "",
                                "type": "uint256",
                                "value": "1,497,330,000,000,000,000,000"
                            }
                        ],
                        "signature": "balanceOf(address)"
                    },
                    "errorInfo": "",
                    "fromAddress": "0x0000000000085d4780b73119b644ae5ecd22b376",
                    "gasUsed": 1036,
                    "id": 6,
                    "methodDecoded": true,
                    "operation": "DELEGATECALL",
                    "output": "0x0000000000000000000000000000000000000000000000512ba0c5ce3fa50000",
                    "revert": false,
                    "revertMessage": "",
                    "selector": "0x70a08231",
                    "status": true,
                    "value": "0"
                },
                "nodeType": 0
            },
            "7": {
                "invocation": {
                    "address": "0x0000000000085d4780b73119b644ae5ecd22b376",
                    "callData": "0x00000000000000000000000029d5527caa78f1946a409fa6acaf14a0a4a0274b0000000000000000000000000000000000000000000000512ba0c5ce3fa50000",
                    "decodedMethod": {
                        "callParams": [
                            {
                                "name": "_to",
                                "type": "address",
                                "value": "0x29d5527caa78f1946a409fa6acaf14a0a4a0274b"
                            },
                            {
                                "decimalAvailable": true,
                                "name": "_value",
                                "type": "uint256",
                                "value": "1,497,330,000,000,000,000,000"
                            }
                        ],
                        "constructorArguments": "",
                        "name": "transfer",
                        "returnParams": [
                            {
                                "name": "",
                                "type": "bool",
                                "value": true
                            }
                        ],
                        "signature": "transfer(address,uint256)"
                    },
                    "errorInfo": "",
                    "fromAddress": "0x3819ad3f8ae8ff1c504f729a6c89dbeca1146cc4",
                    "gasUsed": 16620,
                    "id": 7,
                    "methodDecoded": true,
                    "operation": "CALL",
                    "output": "0x0000000000000000000000000000000000000000000000000000000000000001",
                    "revert": false,
                    "revertMessage": "",
                    "selector": "0xa9059cbb",
                    "status": true,
                    "value": "0"
                },
                "nodeType": 0
            },
            "8": {
                "invocation": {
                    "address": "0xcb9a11afdc6bdb92e4a6235959455f28758b34ba",
                    "callData": "0x00000000000000000000000029d5527caa78f1946a409fa6acaf14a0a4a0274b0000000000000000000000000000000000000000000000512ba0c5ce3fa50000",
                    "decodedMethod": {
                        "callParams": [
                            {
                                "name": "_to",
                                "type": "address",
                                "value": "0x29d5527caa78f1946a409fa6acaf14a0a4a0274b"
                            },
                            {
                                "decimalAvailable": true,
                                "name": "_value",
                                "type": "uint256",
                                "value": "1,497,330,000,000,000,000,000"
                            }
                        ],
                        "constructorArguments": "",
                        "name": "transfer",
                        "returnParams": [
                            {
                                "name": "",
                                "type": "bool",
                                "value": true
                            }
                        ],
                        "signature": "transfer(address,uint256)"
                    },
                    "errorInfo": "",
                    "fromAddress": "0x0000000000085d4780b73119b644ae5ecd22b376",
                    "gasUsed": 15215,
                    "id": 8,
                    "methodDecoded": true,
                    "operation": "DELEGATECALL",
                    "output": "0x0000000000000000000000000000000000000000000000000000000000000001",
                    "revert": false,
                    "revertMessage": "",
                    "selector": "0xa9059cbb",
                    "status": true,
                    "value": "0"
                },
                "nodeType": 0
            },
            "9": {
                "event": {
                    "contract": "0x0000000000085d4780b73119b644ae5ecd22b376",
                    "decodedLog": {
                        "name": "Transfer",
                        "params": [
                            {
                                "name": "from",
                                "type": "address",
                                "value": "0x3819ad3f8ae8ff1c504f729a6c89dbeca1146cc4"
                            },
                            {
                                "name": "to",
                                "type": "address",
                                "value": "0x29d5527caa78f1946a409fa6acaf14a0a4a0274b"
                            },
                            {
                                "decimalAvailable": true,
                                "name": "value",
                                "type": "uint256",
                                "value": "1,497,330,000,000,000,000,000"
                            }
                        ],
                        "signature": "Transfer(address,address,uint256)"
                    },
                    "id": 9,
                    "logData": "0x0000000000000000000000000000000000000000000000512ba0c5ce3fa50000",
                    "logDecoded": true,
                    "operation": "EVENT",
                    "revert": false,
                    "status": true,
                    "topics": [
                        "0xddf252ad1be2c89b69c2b068fc378daa952ba7f163c4a11628f55a4df523b3ef",
                        "0x0000000000000000000000003819ad3f8ae8ff1c504f729a6c89dbeca1146cc4",
                        "0x00000000000000000000000029d5527caa78f1946a409fa6acaf14a0a4a0274b"
                    ]
                },
                "nodeType": 1
            }
        },
        "gasFlame": [
            {
                "children": [
                    {
                        "children": [
                            {
                                "children": [],
                                "depth": 0,
                                "name": "Initial Gas",
                                "value": 22360
                            },
                            {
                                "children": [
                                    {
                                        "children": [
                                            {
                                                "children": [],
                                                "depth": 2,
                                                "name": "0x19a9162d",
                                                "value": 399
                                            },
                                            {
                                                "children": [
                                                    {
                                                        "children": [],
                                                        "depth": 3,
                                                        "name": "hasRole",
                                                        "value": 802
                                                    },
                                                    {
                                                        "children": [
                                                            {
                                                                "children": [],
                                                                "depth": 4,
                                                                "name": "balanceOf",
                                                                "value": 1036
                                                            }
                                                        ],
                                                        "depth": 3,
                                                        "name": "balanceOf",
                                                        "value": 2435
                                                    },
                                                    {
                                                        "children": [
                                                            {
                                                                "children": [],
                                                                "depth": 4,
                                                                "name": "transfer",
                                                                "value": 15215
                                                            }
                                                        ],
                                                        "depth": 3,
                                                        "name": "transfer",
                                                        "value": 16620
                                                    }
                                                ],
                                                "depth": 2,
                                                "name": "0xafef944f",
                                                "value": 25261
                                            }
                                        ],
                                        "depth": 1,
                                        "name": "0xafef944f",
                                        "value": 28071
                                    }
                                ],
                                "depth": 0,
                                "name": "Executed Gas",
                                "value": 28849
                            }
                        ],
                        "depth": -1,
                        "name": "Actual Gas Used",
                        "value": 36209
                    },
                    {
                        "children": [],
                        "depth": -1,
                        "name": "Refunded Gas",
                        "value": 15000
                    }
                ],
                "depth": -2,
                "name": "Total Gas",
                "value": 51209
            }
        ],
        "isConfirmed": true,
        "mainTrace": [
            {
                "children": [
                    {
                        "children": [
                            {
                                "children": [
                                    {
                                        "children": [],
                                        "depth": 2,
                                        "id": 2,
                                        "order": 2
                                    },
                                    {
                                        "children": [
                                            {
                                                "children": [],
                                                "depth": 3,
                                                "id": 4,
                                                "order": 4
                                            },
                                            {
                                                "children": [
                                                    {
                                                        "children": [],
                                                        "depth": 4,
                                                        "id": 6,
                                                        "order": 6
                                                    }
                                                ],
                                                "depth": 3,
                                                "id": 5,
                                                "order": 5
                                            },
                                            {
                                                "children": [
                                                    {
                                                        "children": [
                                                            {
                                                                "children": [],
                                                                "depth": 5,
                                                                "id": 9,
                                                                "order": 9
                                                            }
                                                        ],
                                                        "depth": 4,
                                                        "id": 8,
                                                        "order": 8
                                                    }
                                                ],
                                                "depth": 3,
                                                "id": 7,
                                                "order": 7
                                            }
                                        ],
                                        "depth": 2,
                                        "id": 3,
                                        "order": 3
                                    }
                                ],
                                "depth": 1,
                                "id": 1,
                                "order": 1
                            }
                        ],
                        "depth": 0,
                        "id": 0,
                        "order": 0
                    }
                ],
                "depth": -1,
                "id": -1,
                "order": -1
            }
        ],
        "mainTraceNodeCount": 10,
        "parentIdMap": {
            "0": -1,
            "1": 0,
            "2": 1,
            "3": 1,
            "4": 3,
            "5": 3,
            "6": 5,
            "7": 3,
            "8": 7,
            "9": 8
        },
        "tidyTrace": [
            {
                "children": [
                    {
                        "children": [
                            {
                                "children": [
                                    {
                                        "children": [],
                                        "depth": 2,
                                        "id": 2,
                                        "order": 2
                                    },
                                    {
                                        "children": [
                                            {
                                                "children": [],
                                                "depth": 3,
                                                "id": 4,
                                                "order": 4
                                            },
                                            {
                                                "children": [
                                                    {
                                                        "children": [],
                                                        "depth": 4,
                                                        "id": 6,
                                                        "order": 6
                                                    }
                                                ],
                                                "depth": 3,
                                                "id": 5,
                                                "order": 5
                                            },
                                            {
                                                "children": [
                                                    {
                                                        "children": [
                                                            {
                                                                "children": [],
                                                                "depth": 5,
                                                                "id": 9,
                                                                "order": 9
                                                            }
                                                        ],
                                                        "depth": 4,
                                                        "id": 8,
                                                        "order": 8
                                                    }
                                                ],
                                                "depth": 3,
                                                "id": 7,
                                                "order": 7
                                            }
                                        ],
                                        "depth": 2,
                                        "id": 3,
                                        "order": 3
                                    }
                                ],
                                "depth": 1,
                                "id": 1,
                                "order": 1
                            }
                        ],
                        "depth": 0,
                        "id": 0,
                        "order": 0
                    }
                ],
                "depth": -1,
                "id": -1,
                "order": -1
            }
        ],
        "tidyTraceNodeCount": 10
    },
    "state_change": {
        "stateChanges": [
            {
                "address": "0x0000000000085d4780b73119b644ae5ecd22b376",
                "erc": "ERC-20",
                "slots": [
                    {
                        "current": "0x0000000000000000000000000000000000000000000007e725ca1151c669ae19",
                        "key": "0x260aeeb226537c81cbf6c9c291262635ae6a5d8dd4e79ca963924f5afa6dc4d9",
                        "prev": "0x000000000000000000000000000000000000000000000795fa294b8386c4ae19"
                    },
                    {
                        "current": "0x0000000000000000000000000000000000000000000000000000000000000000",
                        "key": "0x3fc2644ef661cd2c1c83761c5bf0042088f51fc543bf7d423bd3b544b26b562e",
                        "prev": "0x0000000000000000000000000000000000000000000000512ba0c5ce3fa50000"
                    }
                ],
                "storageVariables": [
                    {
                        "name": "_balanceOf",
                        "type": "mapping(address => uint256)",
                        "value": {
                            "pairs": [
                                {
                                    "key": "0x29d5527caa78f1946a409fa6acaf14a0a4a0274b",
                                    "value": {
                                        "current": "37320486269082040643097",
                                        "prev": "35823156269082040643097",
                                        "typeTag": 1
                                    }
                                },
                                {
                                    "key": "0x3819ad3f8ae8ff1c504f729a6c89dbeca1146cc4",
                                    "value": {
                                        "current": "0",
                                        "prev": "1497330000000000000000",
                                        "typeTag": 1
                                    }
                                }
                            ],
                            "typeTag": 4
                        }
                    }
                ]
            }
        ]
    }
}