{
    "balance_change": {
        "balanceChanges": []
    },
    "profile": {
        "basic_info": {
            "baseFee": "84.037213949",
            "blockNumber": 17206349,
            "callData": "0xfb3bdb410000000000000000000000000000000000000000000000000000b41477aa60000000000000000000000000000000000000000000000000000000000000000080000000000000000000000000db58db310b3512c4b2266831fce9bc654d0b18fd00000000000000000000000000000000000000000000000000000187f99d92460000000000000000000000000000000000000000000000000000000000000002000000000000000000000000c02aaa39b223fe8d0a0e5c4f27ead9083c756cc20000000000000000000000002cd73a56819dd7a6c8d96f1c22643249bef4ef70",
            "debugEnable": true,
            "errorInfo": "execution reverted",
            "eventCount": 0,
            "feeRecipient": "0x1f9090aae28b8a3dceadf281b0f12828e676c326",
            "formatValue": "0.08",
            "gasLimit": 400000,
            "gasPrice": "84.137213949",
            "gasUsed": 31514,
            "intTxnCount": 1,
            "internalRevert": true,
            "internalRevertMessage": "",
            "isContractCreation": false,
            "isFlashloan": false,
            "maxFee": "116.310855234",
            "nonce": 1834,
            "overwritedBlockNumber": -1,
            "priorityFee": "0.1",
            "receiver": "0x7a250d5630b4cf539739df2c5dacb4c659f2488d",
            "revertMessage": "'UniswapV2Router: EXCESSIVE_INPUT_AMOUNT",
            "sender": "0xdb58db310b3512c4b2266831fce9bc654d0b18fd",
            "simulationEnable": true,
            "sourceTxnHash": "0xa3c4947e9d1057e70253057a8a11fa515270e5154dc7db4187997ee6363bfe4d",
            "status": false,
            "timestamp": "2023-05-07T04:38:59Z",
            "transactionFee": "0.002651500160388786",
            "txnHash": "0xa3c4947e9d1057e70253057a8a11fa515270e5154dc7db4187997ee6363bfe4d",
            "txnIndex": 184,
            "type": 2,
            "value": "80000000000000000"
        },
        "fund_flow": [],
        "token_infos": [
            {
                "address": "0xc02aaa39b223fe8d0a0e5c4f27ead9083c756cc2",
                "decimals": 18
            },
            {
                "address": "0xeeeeeeeeeeeeeeeeeeeeeeeeeeeeeeeeeeeeeeee",
                "decimals": 18
            }
        ]
    },
    "address_label": {
        "labels": [
            {
                "address": "0xeeeeeeeeeeeeeeeeeeeeeeeeeeeeeeeeeeeeeeee",
                "label": "Ether"
            },
            {
                "address": "0x0000000000000000000000000000000000000001",
                "label": "Precompiled"
            },
            {
                "address": "0x0000000000000000000000000000000000000002",
                "label": "Precompiled"
            },
            {
                "address": "0x7a250d5630b4cf539739df2c5dacb4c659f2488d",
                "label": "Uniswap V2: Router 2"
            },
            {
                "address": "0xc02aaa39b223fe8d0a0e5c4f27ead9083c756cc2",
                "label": "Wrapped Ether (WETH)"
            },
            {
                "address": "0xc3efcc9272d9757b59750b9be02f5681f9216f66",
                "label": "Uniswap V2: RICR"
            },
            {
                "address": "0x2cd73a56819dd7a6c8d96f1c22643249bef4ef70",
                "label": "RICR"
            },
            {
                "address": "0x0000000000000000000000000000000000000003",
                "label": "Precompiled"
            },
            {
                "address": "0x0000000000000000000000000000000000000004",
                "label": "Precompiled"
            }
        ]
    },
    "trace": {
        "accountLabels": null,
        "dataMap": {
            "-1": {
                "invocation": {
                    "address": "0xdb58db310b3512c4b2266831fce9bc654d0b18fd",
                    "callData": "",
                    "decodedMethod": null,
                    "errorInfo": "",
                    "fromAddress": "",
                    "gasUsed": 0,
                    "id": -1,
                    "methodDecoded": false,
                    "operation": "",
                    "output": "",
                    "revert": false,
                    "revertMessage": "",
                    "selector": "",
                    "status": false,
                    "value": ""
                },
                "nodeType": 0
            },
            "0": {
                "invocation": {
                    "address": "0x7a250d5630b4cf539739df2c5dacb4c659f2488d",
                    "callData": "0x0000000000000000000000000000000000000000000000000000b41477aa60000000000000000000000000000000000000000000000000000000000000000080000000000000000000000000db58db310b3512c4b2266831fce9bc654d0b18fd00000000000000000000000000000000000000000000000000000187f99d92460000000000000000000000000000000000000000000000000000000000000002000000000000000000000000c02aaa39b223fe8d0a0e5c4f27ead9083c756cc20000000000000000000000002cd73a56819dd7a6c8d96f1c22643249bef4ef70",
                    "decodedMethod": {
                        "callParams": [
                            {
                                "name": "amountOut",
                                "type": "uint256",
                                "value": "198,000,000,000,000"
                            },
                            {
                                "name": "path",
                                "type": "address[]",
                                "value": [
                                    "0xc02aaa39b223fe8d0a0e5c4f27ead9083c756cc2",
                                    "0x2cd73a56819dd7a6c8d96f1c22643249bef4ef70"
                                ]
                            },
                            {
                                "name": "to",
                                "type": "address",
                                "value": "0xdb58db310b3512c4b2266831fce9bc654d0b18fd"
                            },
                            {
                                "name": "deadline",
                                "type": "uint256",
                                "value": "1,683,520,066,118"
                            }
                        ],
                        "constructorArguments": "",
                        "name": "swapETHForExactTokens",
                        "returnParams": [],
                        "signature": "swapETHForExactTokens(uint256,address[],address,uint256)"
                    },
                    "errorInfo": "execution reverted",
                    "fromAddress": "0xdb58db310b3512c4b2266831fce9bc654d0b18fd",
                    "gasUsed": 31514,
                    "id": 0,
                    "methodDecoded": true,
                    "operation": "CALL",
                    "output": "0x08c379a000000000000000000000000000000000000000000000000000000000000000200000000000000000000000000000000000000000000000000000000000000027556e69737761705632526f757465723a204558434553534956455f494e5055545f414d4f554e5400000000000000000000000000000000000000000000000000",
                    "revert": true,
                    "revertMessage": "'UniswapV2Router: EXCESSIVE_INPUT_AMOUNT",
                    "selector": "0xfb3bdb41",
                    "status": false,
                    "value": "0.08"
                },
                "nodeType": 0
            },
            "1": {
                "invocation": {
                    "address": "0xc3efcc9272d9757b59750b9be02f5681f9216f66",
                    "callData": "0x",
                    "decodedMethod": {
                        "callParams": [],
                        "constructorArguments": "",
                        "name": "getReserves",
                        "returnParams": [
                            {
                                "name": "_reserve0",
                                "type": "uint112",
                                "value": "2,978,367,353,619,871"
                            },
                            {
                                "name": "_reserve1",
                                "type": "uint112",
                                "value": "2,155,105,249,093,092,071"
                            },
                            {
                                "name": "_blockTimestampLast",
                                "type": "uint32",
                                "value": "1,683,434,339"
                            }
                        ],
                        "signature": "getReserves()"
                    },
                    "errorInfo": "",
                    "fromAddress": "0x7a250d5630b4cf539739df2c5dacb4c659f2488d",
                    "gasUsed": 2504,
                    "id": 1,
                    "methodDecoded": true,
                    "operation": "STATICCALL",
                    "output": "0x000000000000000000000000000000000000000000000000000a94cf301f859f0000000000000000000000000000000000000000000000001de878ce49c602e70000000000000000000000000000000000000000000000000000000064572b63",
                    "revert": true,
                    "revertMessage": "",
                    "selector": "0x0902f1ac",
                    "status": true,
                    "value": "0"
                },
                "nodeType": 0
            }
        },
        "gasFlame": [
            {
                "children": [
                    {
                        "children": [
                            {
                                "children": [],
                                "depth": 0,
                                "name": "Initial Gas",
                                "value": 22836
                            },
                            {
                                "children": [
                                    {
                                        "children": [],
                                        "depth": 1,
                                        "name": "getReserves",
                                        "value": 2504
                                    }
                                ],
                                "depth": 0,
                                "name": "Executed Gas",
                                "value": 8678
                            }
                        ],
                        "depth": -1,
                        "name": "Actual Gas Used",
                        "value": 31514
                    },
                    {
                        "children": [],
                        "depth": -1,
                        "name": "Refunded Gas",
                        "value": 0
                    }
                ],
                "depth": -2,
                "name": "Total Gas",
                "value": 31514
            }
        ],
        "isConfirmed": true,
        "mainTrace": [
            {
                "children": [
                    {
                        "children": [
                            {
                                "children": [],
                                "depth": 1,
                                "id": 1,
                                "order": 1
                            }
                        ],
                        "depth": 0,
                        "id": 0,
                        "order": 0
                    }
                ],
                "depth": -1,
                "id": -1,
                "order": -1
            }
        ],
        "mainTraceNodeCount": 2,
        "parentIdMap": {
            "0": -1,
            "1": 0
        },
        "tidyTrace": [
            {
                "children": [
                    {
                        "children": [],
                        "depth": 0,
                        "id": 0,
                        "order": 0
                    }
                ],
                "depth": -1,
                "id": -1,
                "order": -1
            }
        ],
        "tidyTraceNodeCount": 1
    },
    "state_change": {
        "stateChanges": []
    }
}