{
    "balance_change": {
        "balanceChanges": [
            {
                "account": "0x56178a0d5f301baf6cf3e1cd53d9863437345bf9",
                "assets": [
                    {
                        "address": "0xd533a949740bb3306d119cc777fa900ba034cd52",
                        "amount": "20,419.6",
                        "iconUrl": "",
                        "isERC1155": false,
                        "isERC721": false,
                        "sign": false,
                        "value": "23465.79144"
                    }
                ]
            },
            {
                "account": "0x80607ca06048694d3962c2f741ff44b5e6c5a9e7",
                "assets": [
                    {
                        "address": "0xd533a949740bb3306d119cc777fa900ba034cd52",
                        "amount": "20,419.6",
                        "iconUrl": "",
                        "isERC1155": false,
                        "isERC721": false,
                        "sign": true,
                        "value": "23465.79144"
                    }
                ]
            }
        ]
    },
    "profile": {
        "basic_info": {
            "baseFee": "95.446542006",
            "blockNumber": 14934488,
            "callData": "0x1cff79cd000000000000000000000000813ffae25b9b8c909ecc9e2f9747006e0b43d16d0000000000000000000000000000000000000000000000000000000000000040000000000000000000000000000000000000000000000000000000000000008452de3cbd000000000000000000000000d533a949740bb3306d119cc777fa900ba034cd5200000000000000000000000056178a0d5f301baf6cf3e1cd53d9863437345bf900000000000000000000000080607ca06048694d3962c2f741ff44b5e6c5a9e7000000000000000000000000000000000000000000000452f2e03c528e68000000000000000000000000000000000000000000000000000000000000",
            "debugEnable": true,
            "errorInfo": "",
            "eventCount": 2,
            "feeRecipient": "0x7f101fe45e6649a6fb8f3f8b43ed03d353f2b90c",
            "formatValue": "0",
            "gasLimit": 83539,
            "gasPrice": "96.446542007",
            "gasUsed": 52296,
            "intTxnCount": 2,
            "internalRevert": false,
            "internalRevertMessage": "",
            "isContractCreation": false,
            "isFlashloan": false,
            "maxFee": "105.697544807",
            "nonce": 7820,
            "overwritedBlockNumber": -1,
            "priorityFee": "1.000000001",
            "receiver": "0xfa103c21ea2df71dfb92b0652f8b1d795e51cdef",
            "revertMessage": "",
            "sender": "0x19e53a7397be5aa7908fe9ea991b03710bdc74fd",
            "simulationEnable": true,
            "sourceTxnHash": "0xa3cabc7e14618b382a0653b585300dac4d09bb42396e5c28c7f02281ae8b0699",
            "status": true,
            "timestamp": "2022-06-09T20:16:23Z",
            "transactionFee": "0.005043768360798072",
            "txnHash": "0xa3cabc7e14618b382a0653b585300dac4d09bb42396e5c28c7f02281ae8b0699",
            "txnIndex": 4,
            "type": 2,
            "value": "0"
        },
        "fund_flow": [
            {
                "amount": "20,419.6",
                "from": "0x56178a0d5f301baf6cf3e1cd53d9863437345bf9",
                "id": 1,
                "isERC1155": false,
                "isERC721": false,
                "isReverted": false,
                "order": 1,
                "to": "0x80607ca06048694d3962c2f741ff44b5e6c5a9e7",
                "token": "0xd533a949740bb3306d119cc777fa900ba034cd52"
            }
        ],
        "token_infos": [
            {
                "address": "0xd533a949740bb3306d119cc777fa900ba034cd52",
                "decimals": 18
            },
            {
                "address": "0xeeeeeeeeeeeeeeeeeeeeeeeeeeeeeeeeeeeeeeee",
                "decimals": 18
            },
            {
                "address": "0xc02aaa39b223fe8d0a0e5c4f27ead9083c756cc2",
                "decimals": 18
            }
        ]
    },
    "address_label": {
        "labels": [
            {
                "address": "0xd533a949740bb3306d119cc777fa900ba034cd52",
                "label": "Curve.fi: CRV Token"
            },
            {
                "address": "0x0000000000000000000000000000000000000001",
                "label": "Precompiled"
            },
            {
                "address": "0x0000000000000000000000000000000000000002",
                "label": "Precompiled"
            },
            {
                "address": "0x0000000000000000000000000000000000000003",
                "label": "Precompiled"
            },
            {
                "address": "0x0000000000000000000000000000000000000004",
                "label": "Precompiled"
            },
            {
                "address": "0xeeeeeeeeeeeeeeeeeeeeeeeeeeeeeeeeeeeeeeee",
                "label": "Ether"
            },
            {
                "address": "0x80607ca06048694d3962c2f741ff44b5e6c5a9e7",
                "label": "COINBASE"
            }
        ]
    },
    "trace": {
        "accountLabels": null,
        "dataMap": {
            "-1": {
                "invocation": {
                    "address": "0x19e53a7397be5aa7908fe9ea991b03710bdc74fd",
                    "callData": "",
                    "decodedMethod": null,
                    "errorInfo": "",
                    "fromAddress": "",
                    "gasUsed": 0,
                    "id": -1,
                    "methodDecoded": false,
                    "operation": "",
                    "output": "",
                    "revert": false,
                    "revertMessage": "",
                    "selector": "",
                    "status": false,
                    "value": ""
                },
                "nodeType": 0
            },
            "0": {
                "invocation": {
                    "address": "0xfa103c21ea2df71dfb92b0652f8b1d795e51cdef",
                    "callData": "0x000000000000000000000000813ffae25b9b8c909ecc9e2f9747006e0b43d16d0000000000000000000000000000000000000000000000000000000000000040000000000000000000000000000000000000000000000000000000000000008452de3cbd000000000000000000000000d533a949740bb3306d119cc777fa900ba034cd5200000000000000000000000056178a0d5f301baf6cf3e1cd53d9863437345bf900000000000000000000000080607ca06048694d3962c2f741ff44b5e6c5a9e7000000000000000000000000000000000000000000000452f2e03c528e68000000000000000000000000000000000000000000000000000000000000",
                    "decodedMethod": {
                        "callParams": [
                            {
                                "name": "_target",
                                "type": "address",
                                "value": "0x813ffae25b9b8c909ecc9e2f9747006e0b43d16d"
                            },
                            {
                                "name": "_data",
                                "type": "bytes",
                                "value": "0x52de3cbd000000000000000000000000d533a949740bb3306d119cc777fa900ba034cd5200000000000000000000000056178a0d5f301baf6cf3e1cd53d9863437345bf900000000000000000000000080607ca06048694d3962c2f741ff44b5e6c5a9e7000000000000000000000000000000000000000000000452f2e03c528e680000"
                            }
                        ],
                        "constructorArguments": "",
                        "name": "execute",
                        "returnParams": [],
                        "signature": "execute(address,bytes)"
                    },
                    "errorInfo": "",
                    "fromAddress": "0x19e53a7397be5aa7908fe9ea991b03710bdc74fd",
                    "gasUsed": 52296,
                    "id": 0,
                    "methodDecoded": true,
                    "operation": "CALL",
                    "output": "",
                    "revert": false,
                    "revertMessage": "",
                    "selector": "0x1cff79cd",
                    "status": true,
                    "value": "0"
                },
                "nodeType": 0
            },
            "1": {
                "invocation": {
                    "address": "0x813ffae25b9b8c909ecc9e2f9747006e0b43d16d",
                    "callData": "0x000000000000000000000000d533a949740bb3306d119cc777fa900ba034cd5200000000000000000000000056178a0d5f301baf6cf3e1cd53d9863437345bf900000000000000000000000080607ca06048694d3962c2f741ff44b5e6c5a9e7000000000000000000000000000000000000000000000452f2e03c528e680000",
                    "decodedMethod": null,
                    "errorInfo": "",
                    "fromAddress": "0xfa103c21ea2df71dfb92b0652f8b1d795e51cdef",
                    "gasUsed": 23615,
                    "id": 1,
                    "methodDecoded": false,
                    "operation": "DELEGATECALL",
                    "output": "",
                    "revert": false,
                    "revertMessage": "",
                    "selector": "0x52de3cbd",
                    "status": true,
                    "value": "0"
                },
                "nodeType": 0
            },
            "2": {
                "event": {
                    "contract": "0xfa103c21ea2df71dfb92b0652f8b1d795e51cdef",
                    "decodedLog": null,
                    "id": 2,
                    "logData": "0x000000000000000000000000d533a949740bb3306d119cc777fa900ba034cd5200000000000000000000000056178a0d5f301baf6cf3e1cd53d9863437345bf900000000000000000000000080607ca06048694d3962c2f741ff44b5e6c5a9e7000000000000000000000000000000000000000000000452f2e03c528e680000",
                    "logDecoded": false,
                    "operation": "EVENT",
                    "revert": false,
                    "status": true,
                    "topics": [
                        "0xef4b96e5b208365900f38219a7dec7af4565f8ff4ce6526970a9d024397f978d"
                    ]
                },
                "nodeType": 1
            },
            "3": {
                "invocation": {
                    "address": "0xd533a949740bb3306d119cc777fa900ba034cd52",
                    "callData": "0x00000000000000000000000056178a0d5f301baf6cf3e1cd53d9863437345bf900000000000000000000000080607ca06048694d3962c2f741ff44b5e6c5a9e7000000000000000000000000000000000000000000000452f2e03c528e680000",
                    "decodedMethod": {
                        "callParams": [
                            {
                                "name": "sender",
                                "type": "address",
                                "value": "0x56178a0d5f301baf6cf3e1cd53d9863437345bf9"
                            },
                            {
                                "name": "recipient",
                                "type": "address",
                                "value": "0x80607ca06048694d3962c2f741ff44b5e6c5a9e7"
                            },
                            {
                                "decimalAvailable": true,
                                "name": "amount",
                                "type": "uint256",
                                "value": "20,419,600,000,000,000,000,000"
                            }
                        ],
                        "constructorArguments": "",
                        "name": "transferFrom",
                        "returnParams": [
                            {
                                "name": "",
                                "type": "bool",
                                "value": true
                            }
                        ],
                        "signature": "transferFrom(address,address,uint256)"
                    },
                    "errorInfo": "",
                    "fromAddress": "0xfa103c21ea2df71dfb92b0652f8b1d795e51cdef",
                    "gasUsed": 17842,
                    "id": 3,
                    "methodDecoded": true,
                    "operation": "CALL",
                    "output": "0x0000000000000000000000000000000000000000000000000000000000000001",
                    "revert": false,
                    "revertMessage": "",
                    "selector": "0x23b872dd",
                    "status": true,
                    "value": "0"
                },
                "nodeType": 0
            },
            "4": {
                "event": {
                    "contract": "0xd533a949740bb3306d119cc777fa900ba034cd52",
                    "decodedLog": {
                        "name": "Transfer",
                        "params": [
                            {
                                "name": "from",
                                "type": "address",
                                "value": "0x56178a0d5f301baf6cf3e1cd53d9863437345bf9"
                            },
                            {
                                "name": "to",
                                "type": "address",
                                "value": "0x80607ca06048694d3962c2f741ff44b5e6c5a9e7"
                            },
                            {
                                "decimalAvailable": true,
                                "name": "value",
                                "type": "uint256",
                                "value": "20,419,600,000,000,000,000,000"
                            }
                        ],
                        "signature": "Transfer(address,address,uint256)"
                    },
                    "id": 4,
                    "logData": "0x000000000000000000000000000000000000000000000452f2e03c528e680000",
                    "logDecoded": true,
                    "operation": "EVENT",
                    "revert": false,
                    "status": true,
                    "topics": [
                        "0xddf252ad1be2c89b69c2b068fc378daa952ba7f163c4a11628f55a4df523b3ef",
                        "0x00000000000000000000000056178a0d5f301baf6cf3e1cd53d9863437345bf9",
                        "0x00000000000000000000000080607ca06048694d3962c2f741ff44b5e6c5a9e7"
                    ]
                },
                "nodeType": 1
            }
        },
        "gasFlame": [
            {
                "children": [
                    {
                        "children": [
                            {
                                "children": [],
                                "depth": 0,
                                "name": "Initial Gas",
                                "value": 23204
                            },
                            {
                                "children": [
                                    {
                                        "children": [
                                            {
                                                "children": [],
                                                "depth": 2,
                                                "name": "transferFrom",
                                                "value": 17842
                                            }
                                        ],
                                        "depth": 1,
                                        "name": "0x52de3cbd",
                                        "value": 23615
                                    }
                                ],
                                "depth": 0,
                                "name": "Executed Gas",
                                "value": 29092
                            }
                        ],
                        "depth": -1,
                        "name": "Actual Gas Used",
                        "value": 52296
                    },
                    {
                        "children": [],
                        "depth": -1,
                        "name": "Refunded Gas",
                        "value": 0
                    }
                ],
                "depth": -2,
                "name": "Total Gas",
                "value": 52296
            }
        ],
        "isConfirmed": true,
        "mainTrace": [
            {
                "children": [
                    {
                        "children": [
                            {
                                "children": [
                                    {
                                        "children": [],
                                        "depth": 2,
                                        "id": 2,
                                        "order": 2
                                    },
                                    {
                                        "children": [
                                            {
                                                "children": [],
                                                "depth": 3,
                                                "id": 4,
                                                "order": 4
                                            }
                                        ],
                                        "depth": 2,
                                        "id": 3,
                                        "order": 3
                                    }
                                ],
                                "depth": 1,
                                "id": 1,
                                "order": 1
                            }
                        ],
                        "depth": 0,
                        "id": 0,
                        "order": 0
                    }
                ],
                "depth": -1,
                "id": -1,
                "order": -1
            }
        ],
        "mainTraceNodeCount": 5,
        "parentIdMap": {
            "0": -1,
            "1": 0,
            "2": 1,
            "3": 1,
            "4": 3
        },
        "tidyTrace": [
            {
                "children": [
                    {
                        "children": [
                            {
                                "children": [
                                    {
                                        "children": [],
                                        "depth": 2,
                                        "id": 2,
                                        "order": 2
                                    },
                                    {
                                        "children": [
                                            {
                                                "children": [],
                                                "depth": 3,
                                                "id": 4,
                                                "order": 4
                                            }
                                        ],
                                        "depth": 2,
                                        "id": 3,
                                        "order": 3
                                    }
                                ],
                                "depth": 1,
                                "id": 1,
                                "order": 1
                            }
                        ],
                        "depth": 0,
                        "id": 0,
                        "order": 0
                    }
                ],
                "depth": -1,
                "id": -1,
                "order": -1
            }
        ],
        "tidyTraceNodeCount": 5
    },
    "state_change": {
        "stateChanges": [
            {
                "address": "0xd533a949740bb3306d119cc777fa900ba034cd52",
                "erc": "",
                "slots": [
                    {
                        "current": "0x0000000000000000000000000000000000000000000006bb11044310c06b5722",
                        "key": "0x213a71ce4d5e49240104477492128f2d48ac66bfa8b07260dc7ae728bd184431",
                        "prev": "0x000000000000000000000000000000000000000000000b0e03e47f634ed35722"
                    },
                    {
                        "current": "0x000000000000000000000000000000000000000000000945c5036f899cd00000",
                        "key": "0x342894d77688d2f12abb6648f3736d98622913d9dd1a5e7bc40636bcd229a15a",
                        "prev": "0x0000000000000000000000000000000000000000000004f2d22333370e680000"
                    },
                    {
                        "current": "0xffffffffffffffffffffffffffffffffffffffffff6dec8e25f1d6233eb7fbff",
                        "key": "0xd32e87837e0ba0ed2c81b67ad2108faaa21291aa0547751ed759fe9e731cd1a8",
                        "prev": "0xffffffffffffffffffffffffffffffffffffffffff6df0e118d21275cd1ffbff"
                    }
                ],
                "storageVariables": []
            }
        ]
    }
}