{
    "balance_change": {
        "balanceChanges": [
            {
                "account": "0x0084dfd7202e5f5c0c8be83503a492837ca3e95e",
                "assets": [
                    {
                        "address": "0xff603f43946a3a28df5e6a73172555d8c8b02386",
                        "amount": "120,565.19",
                        "iconUrl": "https://assets.blocksec.com/icon/5f3c2c02eff99a7465f8d8052fe6d3f1aff06554551b8a845ee5e7569a0b89b6.png",
                        "isERC1155": false,
                        "isERC721": false,
                        "sign": false,
                        "value": ""
                    }
                ]
            },
            {
                "account": "0x15878e87c685f866edfaf454be6dc06fa517b35b",
                "assets": [
                    {
                        "address": "0xff603f43946a3a28df5e6a73172555d8c8b02386",
                        "amount": "120,565.19",
                        "iconUrl": "https://assets.blocksec.com/icon/5f3c2c02eff99a7465f8d8052fe6d3f1aff06554551b8a845ee5e7569a0b89b6.png",
                        "isERC1155": false,
                        "isERC721": false,
                        "sign": true,
                        "value": ""
                    }
                ]
            }
        ]
    },
    "profile": {
        "basic_info": {
            "baseFee": "",
            "blockNumber": 10097536,
            "callData": "0xa9059cbb00000000000000000000000015878e87c685f866edfaf454be6dc06fa517b35b000000000000000000000000000000000000000000001987da1fb33f16070000",
            "debugEnable": true,
            "errorInfo": "",
            "eventCount": 1,
            "feeRecipient": "0x5a0b54d5dc17e0aadc383d2db43b0a0d3e029c4c",
            "formatValue": "0",
            "gasLimit": 120000,
            "gasPrice": "60",
            "gasUsed": 24679,
            "intTxnCount": 0,
            "internalRevert": false,
            "internalRevertMessage": "",
            "isContractCreation": false,
            "isFlashloan": false,
            "maxFee": "",
            "nonce": 22355,
            "overwritedBlockNumber": -1,
            "priorityFee": "",
            "receiver": "0xff603f43946a3a28df5e6a73172555d8c8b02386",
            "revertMessage": "",
            "sender": "0x0084dfd7202e5f5c0c8be83503a492837ca3e95e",
            "simulationEnable": true,
            "sourceTxnHash": "0xa3787db284f251ca094fa13f91d0f81503bdbd20341b5de2f2709396dde77982",
            "status": true,
            "timestamp": "2020-05-19T16:55:05Z",
            "transactionFee": "0.00148074",
            "txnHash": "0xa3787db284f251ca094fa13f91d0f81503bdbd20341b5de2f2709396dde77982",
            "txnIndex": 16,
            "type": 0,
            "value": "0"
        },
        "fund_flow": [
            {
                "amount": "120,565.19",
                "from": "0x0084dfd7202e5f5c0c8be83503a492837ca3e95e",
                "id": 1,
                "isERC1155": false,
                "isERC721": false,
                "isReverted": false,
                "order": 1,
                "to": "0x15878e87c685f866edfaf454be6dc06fa517b35b",
                "token": "0xff603f43946a3a28df5e6a73172555d8c8b02386"
            }
        ],
        "token_infos": [
            {
                "address": "0xc02aaa39b223fe8d0a0e5c4f27ead9083c756cc2",
                "decimals": 18
            },
            {
                "address": "0xff603f43946a3a28df5e6a73172555d8c8b02386",
                "decimals": 18
            },
            {
                "address": "0xeeeeeeeeeeeeeeeeeeeeeeeeeeeeeeeeeeeeeeee",
                "decimals": 18
            }
        ]
    },
    "address_label": {
        "labels": [
            {
                "address": "0x0000000000000000000000000000000000000001",
                "label": "Precompiled"
            },
            {
                "address": "0x0000000000000000000000000000000000000002",
                "label": "Precompiled"
            },
            {
                "address": "0x0000000000000000000000000000000000000003",
                "label": "Precompiled"
            },
            {
                "address": "0x0000000000000000000000000000000000000004",
                "label": "Precompiled"
            },
            {
                "address": "0xeeeeeeeeeeeeeeeeeeeeeeeeeeeeeeeeeeeeeeee",
                "label": "Ether"
            },
            {
                "address": "0x15878e87c685f866edfaf454be6dc06fa517b35b",
                "label": "Bithumb 7"
            },
            {
                "address": "0x0084dfd7202e5f5c0c8be83503a492837ca3e95e",
                "label": "BITHUMB"
            },
            {
                "address": "0xff603f43946a3a28df5e6a73172555d8c8b02386",
                "label": "OneRoot: RNT Token"
            }
        ]
    },
    "trace": {
        "accountLabels": null,
        "dataMap": {
            "-1": {
                "invocation": {
                    "address": "0x0084dfd7202e5f5c0c8be83503a492837ca3e95e",
                    "callData": "",
                    "decodedMethod": null,
                    "errorInfo": "",
                    "fromAddress": "",
                    "gasUsed": 0,
                    "id": -1,
                    "methodDecoded": false,
                    "operation": "",
                    "output": "",
                    "revert": false,
                    "revertMessage": "",
                    "selector": "",
                    "status": false,
                    "value": ""
                },
                "nodeType": 0
            },
            "0": {
                "invocation": {
                    "address": "0xff603f43946a3a28df5e6a73172555d8c8b02386",
                    "callData": "0x00000000000000000000000015878e87c685f866edfaf454be6dc06fa517b35b000000000000000000000000000000000000000000001987da1fb33f16070000",
                    "decodedMethod": {
                        "callParams": [
                            {
                                "name": "_to",
                                "type": "address",
                                "value": "0x15878e87c685f866edfaf454be6dc06fa517b35b"
                            },
                            {
                                "decimalAvailable": true,
                                "name": "_value",
                                "type": "uint256",
                                "value": "120,565,190,000,000,000,000,000"
                            }
                        ],
                        "constructorArguments": "",
                        "name": "transfer",
                        "returnParams": [
                            {
                                "name": "success",
                                "type": "bool",
                                "value": true
                            }
                        ],
                        "signature": "transfer(address,uint256)"
                    },
                    "errorInfo": "",
                    "fromAddress": "0x0084dfd7202e5f5c0c8be83503a492837ca3e95e",
                    "gasUsed": 24679,
                    "id": 0,
                    "methodDecoded": true,
                    "operation": "CALL",
                    "output": "0x0000000000000000000000000000000000000000000000000000000000000001",
                    "revert": false,
                    "revertMessage": "",
                    "selector": "0xa9059cbb",
                    "status": true,
                    "value": "0"
                },
                "nodeType": 0
            },
            "1": {
                "event": {
                    "contract": "0xff603f43946a3a28df5e6a73172555d8c8b02386",
                    "decodedLog": {
                        "name": "Transfer",
                        "params": [
                            {
                                "name": "_from",
                                "type": "address",
                                "value": "0x0084dfd7202e5f5c0c8be83503a492837ca3e95e"
                            },
                            {
                                "name": "_to",
                                "type": "address",
                                "value": "0x15878e87c685f866edfaf454be6dc06fa517b35b"
                            },
                            {
                                "decimalAvailable": true,
                                "name": "_value",
                                "type": "uint256",
                                "value": "120,565,190,000,000,000,000,000"
                            }
                        ],
                        "signature": "Transfer(address,address,uint256)"
                    },
                    "id": 1,
                    "logData": "0x000000000000000000000000000000000000000000001987da1fb33f16070000",
                    "logDecoded": true,
                    "operation": "EVENT",
                    "revert": false,
                    "status": true,
                    "topics": [
                        "0xddf252ad1be2c89b69c2b068fc378daa952ba7f163c4a11628f55a4df523b3ef",
                        "0x0000000000000000000000000084dfd7202e5f5c0c8be83503a492837ca3e95e",
                        "0x00000000000000000000000015878e87c685f866edfaf454be6dc06fa517b35b"
                    ]
                },
                "nodeType": 1
            }
        },
        "gasFlame": [
            {
                "children": [
                    {
                        "children": [
                            {
                                "children": [],
                                "depth": 0,
                                "name": "Initial Gas",
                                "value": 21656
                            },
                            {
                                "children": [],
                                "depth": 0,
                                "name": "Executed Gas",
                                "value": 18023
                            }
                        ],
                        "depth": -1,
                        "name": "Actual Gas Used",
                        "value": 24679
                    },
                    {
                        "children": [],
                        "depth": -1,
                        "name": "Refunded Gas",
                        "value": 15000
                    }
                ],
                "depth": -2,
                "name": "Total Gas",
                "value": 39679
            }
        ],
        "isConfirmed": true,
        "mainTrace": [
            {
                "children": [
                    {
                        "children": [
                            {
                                "children": [],
                                "depth": 1,
                                "id": 1,
                                "order": 1
                            }
                        ],
                        "depth": 0,
                        "id": 0,
                        "order": 0
                    }
                ],
                "depth": -1,
                "id": -1,
                "order": -1
            }
        ],
        "mainTraceNodeCount": 2,
        "parentIdMap": {
            "0": -1,
            "1": 0
        },
        "tidyTrace": [
            {
                "children": [
                    {
                        "children": [
                            {
                                "children": [],
                                "depth": 1,
                                "id": 1,
                                "order": 1
                            }
                        ],
                        "depth": 0,
                        "id": 0,
                        "order": 0
                    }
                ],
                "depth": -1,
                "id": -1,
                "order": -1
            }
        ],
        "tidyTraceNodeCount": 2
    },
    "state_change": {
        "stateChanges": [
            {
                "address": "0xff603f43946a3a28df5e6a73172555d8c8b02386",
                "erc": "ERC-20",
                "slots": [
                    {
                        "current": "0x0000000000000000000000000000000000000000000000000000000000000000",
                        "key": "0xef49c45aefd0bba2e7b7fadd80dba0431e817da8007bac7db0080de2dba76645",
                        "prev": "0x000000000000000000000000000000000000000000001987da1fb33f16070000"
                    },
                    {
                        "current": "0x00000000000000000000000000000000000000000070e7e28d5077a4884e8000",
                        "key": "0xe6aa3becc39323c108f3f44d193f8d6971b3a447c852167f2b176276cc77f191",
                        "prev": "0x00000000000000000000000000000000000000000070ce5ab330c46572478000"
                    }
                ],
                "storageVariables": [
                    {
                        "name": "balances",
                        "type": "mapping(address => uint256)",
                        "value": {
                            "pairs": [
                                {
                                    "key": "0x0084dfd7202e5f5c0c8be83503a492837ca3e95e",
                                    "value": {
                                        "current": "0",
                                        "prev": "120565190000000000000000",
                                        "typeTag": 1
                                    }
                                },
                                {
                                    "key": "0x15878e87c685f866edfaf454be6dc06fa517b35b",
                                    "value": {
                                        "current": "136494737601312320000000000",
                                        "prev": "136374172411312320000000000",
                                        "typeTag": 1
                                    }
                                }
                            ],
                            "typeTag": 4
                        }
                    }
                ]
            }
        ]
    }
}