{
    "balance_change": {
        "balanceChanges": [
            {
                "account": "0x1a58b9517bcd043757c9be6d60c78e7e0e4e1784",
                "assets": [
                    {
                        "address": "0xde342a3e269056fc3305f9e315f4c40d917ba521",
                        "amount": "17,283,279.240896147",
                        "iconUrl": "",
                        "isERC1155": false,
                        "isERC721": false,
                        "sign": false,
                        "value": "235.834751"
                    },
                    {
                        "address": "0xeeeeeeeeeeeeeeeeeeeeeeeeeeeeeeeeeeeeeeee",
                        "amount": "0.069226250201249922",
                        "iconUrl": "https://assets.blocksec.com/image/1663669189317-3.png",
                        "isERC1155": false,
                        "isERC721": false,
                        "sign": true,
                        "value": "234.72820868052298236"
                    }
                ]
            },
            {
                "account": "0x382ffce2287252f930e1c8dc9328dac5bf282ba1",
                "assets": [
                    {
                        "address": "0xde342a3e269056fc3305f9e315f4c40d917ba521",
                        "amount": "172,832.792408961",
                        "iconUrl": "",
                        "isERC1155": false,
                        "isERC721": false,
                        "sign": true,
                        "value": "2.35737583"
                    }
                ]
            },
            {
                "account": "0x8fbd26a7cb1ab65834c5ea245aa1f1e78d03ed30",
                "assets": [
                    {
                        "address": "0xde342a3e269056fc3305f9e315f4c40d917ba521",
                        "amount": "17,110,446.448487186",
                        "iconUrl": "",
                        "isERC1155": false,
                        "isERC721": false,
                        "sign": true,
                        "value": "233.2853212"
                    },
                    {
                        "address": "0xc02aaa39b223fe8d0a0e5c4f27ead9083c756cc2",
                        "amount": "0.069226250201249922",
                        "iconUrl": "https://assets.blocksec.com/icon/f1cb2d02c471d545bbc7722daf3277fd852d98e63d118771af7047bd8256c516.png",
                        "isERC1155": false,
                        "isERC721": false,
                        "sign": false,
                        "value": "234.72820868052298236"
                    }
                ]
            },
            {
                "account": "0xc02aaa39b223fe8d0a0e5c4f27ead9083c756cc2",
                "assets": [
                    {
                        "address": "0xeeeeeeeeeeeeeeeeeeeeeeeeeeeeeeeeeeeeeeee",
                        "amount": "0.069226250201249922",
                        "iconUrl": "https://assets.blocksec.com/image/1663669189317-3.png",
                        "isERC1155": false,
                        "isERC721": false,
                        "sign": false,
                        "value": "234.72820868052298236"
                    },
                    {
                        "address": "0xc02aaa39b223fe8d0a0e5c4f27ead9083c756cc2",
                        "amount": "0.069226250201249922",
                        "iconUrl": "https://assets.blocksec.com/icon/f1cb2d02c471d545bbc7722daf3277fd852d98e63d118771af7047bd8256c516.png",
                        "isERC1155": false,
                        "isERC721": false,
                        "sign": true,
                        "value": "234.72820868052298236"
                    }
                ]
            }
        ]
    },
    "profile": {
        "basic_info": {
            "baseFee": "1.707361888",
            "blockNumber": 20193663,
            "callData": "0x12aa3caf000000000000000000000000e37e799d5077682fa0a244d46e5649f71457bd09000000000000000000000000de342a3e269056fc3305f9e315f4c40d917ba521000000000000000000000000eeeeeeeeeeeeeeeeeeeeeeeeeeeeeeeeeeeeeeee000000000000000000000000e37e799d5077682fa0a244d46e5649f71457bd090000000000000000000000001a58b9517bcd043757c9be6d60c78e7e0e4e1784000000000000000000000000000000000000000000000000003d670d07b51e9300000000000000000000000000000000000000000000000000ee90149ece75880000000000000000000000000000000000000000000000000000000000000004000000000000000000000000000000000000000000000000000000000000014000000000000000000000000000000000000000000000000000000000000001600000000000000000000000000000000000000000000000000000000000000000000000000000000000000000000000000000000000000000000000000000019d00000000000000000000000000017f00016900011f0000e300006800004e802026678dcdde342a3e269056fc3305f9e315f4c40d917ba521382ffce2287252f930e1c8dc9328dac5bf282ba100000000000000000000000000000000000000000000000000009d30c53273810020d6bdbf78de342a3e269056fc3305f9e315f4c40d917ba5210c20de342a3e269056fc3305f9e315f4c40d917ba5218fbd26a7cb1ab65834c5ea245aa1f1e78d03ed306ae4071118002dc6c08fbd26a7cb1ab65834c5ea245aa1f1e78d03ed3000000000000000000000000000000000000000000000000000ee90149ece7588de342a3e269056fc3305f9e315f4c40d917ba5214101c02aaa39b223fe8d0a0e5c4f27ead9083c756cc200042e1a7d4d000000000000000000000000000000000000000000000000000000000000000000a0f2fa6b66eeeeeeeeeeeeeeeeeeeeeeeeeeeeeeeeeeeeeeee00000000000000000000000000000000000000000000000000f5f0e86460b882000000000000000000054454803c53d2c0611111111254eeb25477b68fb85ed929f73a9605820000009a635db5",
            "debugEnable": true,
            "errorInfo": "",
            "eventCount": 8,
            "feeRecipient": "0x95222290dd7278aa3ddd389cc1e1d165cc4bafe5",
            "formatValue": "0",
            "gasLimit": 264627,
            "gasPrice": "1.708361888",
            "gasUsed": 211101,
            "intTxnCount": 19,
            "internalRevert": false,
            "internalRevertMessage": "",
            "isContractCreation": false,
            "isFlashloan": false,
            "maxFee": "1.791121182",
            "nonce": 26,
            "overwritedBlockNumber": -1,
            "priorityFee": "0.001",
            "receiver": "0x1111111254eeb25477b68fb85ed929f73a960582",
            "revertMessage": "",
            "sender": "0x1a58b9517bcd043757c9be6d60c78e7e0e4e1784",
            "simulationEnable": true,
            "sourceTxnHash": "0xa39399d8aa9899c17ae89d696cca9672730f2151a54ef916c53131b56b27c063",
            "status": true,
            "timestamp": "2024-06-29T00:07:35Z",
            "transactionFee": "0.000360636902918688",
            "txnHash": "0xa39399d8aa9899c17ae89d696cca9672730f2151a54ef916c53131b56b27c063",
            "txnIndex": 159,
            "type": 2,
            "value": "0"
        },
        "fund_flow": [
            {
                "amount": "17,283,279.240896147",
                "from": "0x1a58b9517bcd043757c9be6d60c78e7e0e4e1784",
                "id": 1,
                "isERC1155": false,
                "isERC721": false,
                "isReverted": false,
                "order": 1,
                "to": "0xe37e799d5077682fa0a244d46e5649f71457bd09",
                "token": "0xde342a3e269056fc3305f9e315f4c40d917ba521"
            },
            {
                "amount": "172,832.792408961",
                "from": "0xe37e799d5077682fa0a244d46e5649f71457bd09",
                "id": 2,
                "isERC1155": false,
                "isERC721": false,
                "isReverted": false,
                "order": 2,
                "to": "0x382ffce2287252f930e1c8dc9328dac5bf282ba1",
                "token": "0xde342a3e269056fc3305f9e315f4c40d917ba521"
            },
            {
                "amount": "17,110,446.448487186",
                "from": "0xe37e799d5077682fa0a244d46e5649f71457bd09",
                "id": 3,
                "isERC1155": false,
                "isERC721": false,
                "isReverted": false,
                "order": 3,
                "to": "0x8fbd26a7cb1ab65834c5ea245aa1f1e78d03ed30",
                "token": "0xde342a3e269056fc3305f9e315f4c40d917ba521"
            },
            {
                "amount": "0.069226250201249922",
                "from": "0x8fbd26a7cb1ab65834c5ea245aa1f1e78d03ed30",
                "id": 4,
                "isERC1155": false,
                "isERC721": false,
                "isReverted": false,
                "order": 4,
                "to": "0xe37e799d5077682fa0a244d46e5649f71457bd09",
                "token": "0xc02aaa39b223fe8d0a0e5c4f27ead9083c756cc2"
            },
            {
                "amount": "0.069226250201249922",
                "from": "0xc02aaa39b223fe8d0a0e5c4f27ead9083c756cc2",
                "id": 5,
                "isERC1155": false,
                "isERC721": false,
                "isReverted": false,
                "order": 5,
                "to": "0xe37e799d5077682fa0a244d46e5649f71457bd09",
                "token": "0xeeeeeeeeeeeeeeeeeeeeeeeeeeeeeeeeeeeeeeee"
            },
            {
                "amount": "0.069226250201249922",
                "from": "0xe37e799d5077682fa0a244d46e5649f71457bd09",
                "id": 6,
                "isERC1155": false,
                "isERC721": false,
                "isReverted": false,
                "order": 6,
                "to": "0xc02aaa39b223fe8d0a0e5c4f27ead9083c756cc2",
                "token": "0xc02aaa39b223fe8d0a0e5c4f27ead9083c756cc2"
            },
            {
                "amount": "0.069226250201249922",
                "from": "0xe37e799d5077682fa0a244d46e5649f71457bd09",
                "id": 7,
                "isERC1155": false,
                "isERC721": false,
                "isReverted": false,
                "order": 7,
                "to": "0x1111111254eeb25477b68fb85ed929f73a960582",
                "token": "0xeeeeeeeeeeeeeeeeeeeeeeeeeeeeeeeeeeeeeeee"
            },
            {
                "amount": "0.069226250201249922",
                "from": "0x1111111254eeb25477b68fb85ed929f73a960582",
                "id": 8,
                "isERC1155": false,
                "isERC721": false,
                "isReverted": false,
                "order": 8,
                "to": "0x1a58b9517bcd043757c9be6d60c78e7e0e4e1784",
                "token": "0xeeeeeeeeeeeeeeeeeeeeeeeeeeeeeeeeeeeeeeee"
            }
        ],
        "token_infos": [
            {
                "address": "0xc02aaa39b223fe8d0a0e5c4f27ead9083c756cc2",
                "decimals": 18
            },
            {
                "address": "0xde342a3e269056fc3305f9e315f4c40d917ba521",
                "decimals": 9
            },
            {
                "address": "0xeeeeeeeeeeeeeeeeeeeeeeeeeeeeeeeeeeeeeeee",
                "decimals": 18
            }
        ]
    },
    "address_label": {
        "labels": [
            {
                "address": "0x0000000000000000000000000000000000000002",
                "label": "Precompiled"
            },
            {
                "address": "0x0000000000000000000000000000000000000003",
                "label": "Precompiled"
            },
            {
                "address": "0x0000000000000000000000000000000000000004",
                "label": "Precompiled"
            },
            {
                "address": "0xc02aaa39b223fe8d0a0e5c4f27ead9083c756cc2",
                "label": "Wrapped Ether (WETH)"
            },
            {
                "address": "0x8fbd26a7cb1ab65834c5ea245aa1f1e78d03ed30",
                "label": "Uniswap V2: BYTE 9"
            },
            {
                "address": "0xde342a3e269056fc3305f9e315f4c40d917ba521",
                "label": "Byte: BYTE Token"
            },
            {
                "address": "0x0000000000000000000000000000000000000001",
                "label": "Precompiled"
            },
            {
                "address": "0xeeeeeeeeeeeeeeeeeeeeeeeeeeeeeeeeeeeeeeee",
                "label": "Ether"
            },
            {
                "address": "0x382ffce2287252f930e1c8dc9328dac5bf282ba1",
                "label": "Coinbase Fees"
            },
            {
                "address": "0x1111111254eeb25477b68fb85ed929f73a960582",
                "label": "Aggregation Router V5"
            }
        ]
    },
    "trace": {
        "accountLabels": null,
        "dataMap": {
            "-1": {
                "invocation": {
                    "address": "0x1a58b9517bcd043757c9be6d60c78e7e0e4e1784",
                    "callData": "",
                    "decodedMethod": null,
                    "errorInfo": "",
                    "fromAddress": "",
                    "gasUsed": 0,
                    "id": -1,
                    "methodDecoded": false,
                    "operation": "",
                    "output": "",
                    "revert": false,
                    "revertMessage": "",
                    "selector": "",
                    "status": false,
                    "value": ""
                },
                "nodeType": 0
            },
            "0": {
                "invocation": {
                    "address": "0x1111111254eeb25477b68fb85ed929f73a960582",
                    "callData": "0x000000000000000000000000e37e799d5077682fa0a244d46e5649f71457bd09000000000000000000000000de342a3e269056fc3305f9e315f4c40d917ba521000000000000000000000000eeeeeeeeeeeeeeeeeeeeeeeeeeeeeeeeeeeeeeee000000000000000000000000e37e799d5077682fa0a244d46e5649f71457bd090000000000000000000000001a58b9517bcd043757c9be6d60c78e7e0e4e1784000000000000000000000000000000000000000000000000003d670d07b51e9300000000000000000000000000000000000000000000000000ee90149ece75880000000000000000000000000000000000000000000000000000000000000004000000000000000000000000000000000000000000000000000000000000014000000000000000000000000000000000000000000000000000000000000001600000000000000000000000000000000000000000000000000000000000000000000000000000000000000000000000000000000000000000000000000000019d00000000000000000000000000017f00016900011f0000e300006800004e802026678dcdde342a3e269056fc3305f9e315f4c40d917ba521382ffce2287252f930e1c8dc9328dac5bf282ba100000000000000000000000000000000000000000000000000009d30c53273810020d6bdbf78de342a3e269056fc3305f9e315f4c40d917ba5210c20de342a3e269056fc3305f9e315f4c40d917ba5218fbd26a7cb1ab65834c5ea245aa1f1e78d03ed306ae4071118002dc6c08fbd26a7cb1ab65834c5ea245aa1f1e78d03ed3000000000000000000000000000000000000000000000000000ee90149ece7588de342a3e269056fc3305f9e315f4c40d917ba5214101c02aaa39b223fe8d0a0e5c4f27ead9083c756cc200042e1a7d4d000000000000000000000000000000000000000000000000000000000000000000a0f2fa6b66eeeeeeeeeeeeeeeeeeeeeeeeeeeeeeeeeeeeeeee00000000000000000000000000000000000000000000000000f5f0e86460b882000000000000000000054454803c53d2c0611111111254eeb25477b68fb85ed929f73a9605820000009a635db5",
                    "decodedMethod": {
                        "callParams": [
                            {
                                "name": "executor",
                                "type": "address",
                                "value": "0xe37e799d5077682fa0a244d46e5649f71457bd09"
                            },
                            {
                                "name": "desc",
                                "type": "(address,address,address,address,uint256,uint256,uint256)",
                                "value": [
                                    {
                                        "name": "srcToken",
                                        "type": "address",
                                        "value": "0xde342a3e269056fc3305f9e315f4c40d917ba521"
                                    },
                                    {
                                        "name": "dstToken",
                                        "type": "address",
                                        "value": "0xeeeeeeeeeeeeeeeeeeeeeeeeeeeeeeeeeeeeeeee"
                                    },
                                    {
                                        "name": "srcReceiver",
                                        "type": "address",
                                        "value": "0xe37e799d5077682fa0a244d46e5649f71457bd09"
                                    },
                                    {
                                        "name": "dstReceiver",
                                        "type": "address",
                                        "value": "0x1a58b9517bcd043757c9be6d60c78e7e0e4e1784"
                                    },
                                    {
                                        "name": "amount",
                                        "type": "uint256",
                                        "value": "17,283,279,240,896,147"
                                    },
                                    {
                                        "name": "minReturnAmount",
                                        "type": "uint256",
                                        "value": "67,149,462,695,212,424"
                                    },
                                    {
                                        "name": "flags",
                                        "type": "uint256",
                                        "value": "4"
                                    }
                                ]
                            },
                            {
                                "name": "permit",
                                "type": "bytes",
                                "value": "0x"
                            },
                            {
                                "name": "data",
                                "type": "bytes",
                                "value": "0x00000000000000000000000000017f00016900011f0000e300006800004e802026678dcdde342a3e269056fc3305f9e315f4c40d917ba521382ffce2287252f930e1c8dc9328dac5bf282ba100000000000000000000000000000000000000000000000000009d30c53273810020d6bdbf78de342a3e269056fc3305f9e315f4c40d917ba5210c20de342a3e269056fc3305f9e315f4c40d917ba5218fbd26a7cb1ab65834c5ea245aa1f1e78d03ed306ae4071118002dc6c08fbd26a7cb1ab65834c5ea245aa1f1e78d03ed3000000000000000000000000000000000000000000000000000ee90149ece7588de342a3e269056fc3305f9e315f4c40d917ba5214101c02aaa39b223fe8d0a0e5c4f27ead9083c756cc200042e1a7d4d000000000000000000000000000000000000000000000000000000000000000000a0f2fa6b66eeeeeeeeeeeeeeeeeeeeeeeeeeeeeeeeeeeeeeee00000000000000000000000000000000000000000000000000f5f0e86460b882000000000000000000054454803c53d2c0611111111254eeb25477b68fb85ed929f73a960582"
                            }
                        ],
                        "constructorArguments": "",
                        "name": "swap",
                        "returnParams": [
                            {
                                "name": "returnAmount",
                                "type": "uint256",
                                "value": "69,226,250,201,249,922"
                            },
                            {
                                "name": "spentAmount",
                                "type": "uint256",
                                "value": "17,283,279,240,896,147"
                            }
                        ],
                        "signature": "swap(address,(address,address,address,address,uint256,uint256,uint256),bytes,bytes)"
                    },
                    "errorInfo": "",
                    "fromAddress": "0x1a58b9517bcd043757c9be6d60c78e7e0e4e1784",
                    "gasUsed": 211101,
                    "id": 0,
                    "methodDecoded": true,
                    "operation": "CALL",
                    "output": "0x00000000000000000000000000000000000000000000000000f5f0e86460b882000000000000000000000000000000000000000000000000003d670d07b51e93",
                    "revert": false,
                    "revertMessage": "",
                    "selector": "0x12aa3caf",
                    "status": true,
                    "value": "0"
                },
                "nodeType": 0
            },
            "1": {
                "invocation": {
                    "address": "0xde342a3e269056fc3305f9e315f4c40d917ba521",
                    "callData": "0x0000000000000000000000001a58b9517bcd043757c9be6d60c78e7e0e4e1784000000000000000000000000e37e799d5077682fa0a244d46e5649f71457bd09000000000000000000000000000000000000000000000000003d670d07b51e93",
                    "decodedMethod": {
                        "callParams": [
                            {
                                "name": "sender",
                                "type": "address",
                                "value": "0x1a58b9517bcd043757c9be6d60c78e7e0e4e1784"
                            },
                            {
                                "name": "recipient",
                                "type": "address",
                                "value": "0xe37e799d5077682fa0a244d46e5649f71457bd09"
                            },
                            {
                                "decimalAvailable": true,
                                "name": "amount",
                                "type": "uint256",
                                "value": "17,283,279,240,896,147"
                            }
                        ],
                        "constructorArguments": "",
                        "name": "transferFrom",
                        "returnParams": [
                            {
                                "name": "",
                                "type": "bool",
                                "value": true
                            }
                        ],
                        "signature": "transferFrom(address,address,uint256)"
                    },
                    "errorInfo": "",
                    "fromAddress": "0x1111111254eeb25477b68fb85ed929f73a960582",
                    "gasUsed": 53533,
                    "id": 1,
                    "methodDecoded": true,
                    "operation": "CALL",
                    "output": "0x0000000000000000000000000000000000000000000000000000000000000001",
                    "revert": false,
                    "revertMessage": "",
                    "selector": "0x23b872dd",
                    "status": true,
                    "value": "0"
                },
                "nodeType": 0
            },
            "10": {
                "invocation": {
                    "address": "0xde342a3e269056fc3305f9e315f4c40d917ba521",
                    "callData": "0x0000000000000000000000008fbd26a7cb1ab65834c5ea245aa1f1e78d03ed30000000000000000000000000000000000000000000000000003cc9dc4282ab12",
                    "decodedMethod": {
                        "callParams": [
                            {
                                "name": "recipient",
                                "type": "address",
                                "value": "0x8fbd26a7cb1ab65834c5ea245aa1f1e78d03ed30"
                            },
                            {
                                "decimalAvailable": true,
                                "name": "amount",
                                "type": "uint256",
                                "value": "17,110,446,448,487,186"
                            }
                        ],
                        "constructorArguments": "",
                        "name": "transfer",
                        "returnParams": [
                            {
                                "name": "",
                                "type": "bool",
                                "value": true
                            }
                        ],
                        "signature": "transfer(address,uint256)"
                    },
                    "errorInfo": "",
                    "fromAddress": "0xe37e799d5077682fa0a244d46e5649f71457bd09",
                    "gasUsed": 25532,
                    "id": 10,
                    "methodDecoded": true,
                    "operation": "CALL",
                    "output": "0x0000000000000000000000000000000000000000000000000000000000000001",
                    "revert": false,
                    "revertMessage": "",
                    "selector": "0xa9059cbb",
                    "status": true,
                    "value": "0"
                },
                "nodeType": 0
            },
            "11": {
                "event": {
                    "contract": "0xde342a3e269056fc3305f9e315f4c40d917ba521",
                    "decodedLog": {
                        "name": "Transfer",
                        "params": [
                            {
                                "name": "from",
                                "type": "address",
                                "value": "0xe37e799d5077682fa0a244d46e5649f71457bd09"
                            },
                            {
                                "name": "to",
                                "type": "address",
                                "value": "0x8fbd26a7cb1ab65834c5ea245aa1f1e78d03ed30"
                            },
                            {
                                "decimalAvailable": true,
                                "name": "value",
                                "type": "uint256",
                                "value": "17,110,446,448,487,186"
                            }
                        ],
                        "signature": "Transfer(address,address,uint256)"
                    },
                    "id": 11,
                    "logData": "0x000000000000000000000000000000000000000000000000003cc9dc4282ab12",
                    "logDecoded": true,
                    "operation": "EVENT",
                    "revert": false,
                    "status": true,
                    "topics": [
                        "0xddf252ad1be2c89b69c2b068fc378daa952ba7f163c4a11628f55a4df523b3ef",
                        "0x000000000000000000000000e37e799d5077682fa0a244d46e5649f71457bd09",
                        "0x0000000000000000000000008fbd26a7cb1ab65834c5ea245aa1f1e78d03ed30"
                    ]
                },
                "nodeType": 1
            },
            "12": {
                "invocation": {
                    "address": "0xe37e799d5077682fa0a244d46e5649f71457bd09",
                    "callData": "0x18002dc6c08fbd26a7cb1ab65834c5ea245aa1f1e78d03ed3000000000000000000000000000000000000000000000000000ee90149ece7588de342a3e269056fc3305f9e315f4c40d917ba521",
                    "decodedMethod": {
                        "callParams": [],
                        "constructorArguments": "",
                        "name": "swapUniV2",
                        "returnParams": [],
                        "signature": "swapUniV2()"
                    },
                    "errorInfo": "",
                    "fromAddress": "0xe37e799d5077682fa0a244d46e5649f71457bd09",
                    "gasUsed": 55517,
                    "id": 12,
                    "methodDecoded": true,
                    "operation": "CALL",
                    "output": "0x00000000000000000000000000000000000000000000000000f5f0e86460b882",
                    "revert": false,
                    "revertMessage": "",
                    "selector": "0x6ae40711",
                    "status": true,
                    "value": "0"
                },
                "nodeType": 0
            },
            "13": {
                "invocation": {
                    "address": "0x8fbd26a7cb1ab65834c5ea245aa1f1e78d03ed30",
                    "callData": "0x",
                    "decodedMethod": {
                        "callParams": [],
                        "constructorArguments": "",
                        "name": "getReserves",
                        "returnParams": [
                            {
                                "name": "_reserve0",
                                "type": "uint112",
                                "value": "171,921,643,764,270,007,572"
                            },
                            {
                                "name": "_reserve1",
                                "type": "uint112",
                                "value": "42,348,822,356,173,922,680"
                            },
                            {
                                "name": "_blockTimestampLast",
                                "type": "uint32",
                                "value": "1,719,617,891"
                            }
                        ],
                        "signature": "getReserves()"
                    },
                    "errorInfo": "",
                    "fromAddress": "0xe37e799d5077682fa0a244d46e5649f71457bd09",
                    "gasUsed": 2504,
                    "id": 13,
                    "methodDecoded": true,
                    "operation": "STATICCALL",
                    "output": "0x00000000000000000000000000000000000000000000000951e4601faa9085140000000000000000000000000000000000000000000000024bb53d8f2bde217800000000000000000000000000000000000000000000000000000000667f4963",
                    "revert": false,
                    "revertMessage": "",
                    "selector": "0x0902f1ac",
                    "status": true,
                    "value": "0"
                },
                "nodeType": 0
            },
            "14": {
                "invocation": {
                    "address": "0xde342a3e269056fc3305f9e315f4c40d917ba521",
                    "callData": "0x0000000000000000000000008fbd26a7cb1ab65834c5ea245aa1f1e78d03ed30",
                    "decodedMethod": {
                        "callParams": [
                            {
                                "name": "account",
                                "type": "address",
                                "value": "0x8fbd26a7cb1ab65834c5ea245aa1f1e78d03ed30"
                            }
                        ],
                        "constructorArguments": "",
                        "name": "balanceOf",
                        "returnParams": [
                            {
                                "decimalAvailable": true,
                                "name": "",
                                "type": "uint256",
                                "value": "42,365,932,802,622,409,866"
                            }
                        ],
                        "signature": "balanceOf(address)"
                    },
                    "errorInfo": "",
                    "fromAddress": "0xe37e799d5077682fa0a244d46e5649f71457bd09",
                    "gasUsed": 864,
                    "id": 14,
                    "methodDecoded": true,
                    "operation": "STATICCALL",
                    "output": "0x0000000000000000000000000000000000000000000000024bf2076b6e60cc8a",
                    "revert": false,
                    "revertMessage": "",
                    "selector": "0x70a08231",
                    "status": true,
                    "value": "0"
                },
                "nodeType": 0
            },
            "15": {
                "invocation": {
                    "address": "0x8fbd26a7cb1ab65834c5ea245aa1f1e78d03ed30",
                    "callData": "0x00000000000000000000000000000000000000000000000000f5f0e86460b8820000000000000000000000000000000000000000000000000000000000000000000000000000000000000000e37e799d5077682fa0a244d46e5649f71457bd0900000000000000000000000000000000000000000000000000000000000000800000000000000000000000000000000000000000000000000000000000000000",
                    "decodedMethod": {
                        "callParams": [
                            {
                                "name": "amount0Out",
                                "type": "uint256",
                                "value": "69,226,250,201,249,922"
                            },
                            {
                                "name": "amount1Out",
                                "type": "uint256",
                                "value": "0"
                            },
                            {
                                "name": "to",
                                "type": "address",
                                "value": "0xe37e799d5077682fa0a244d46e5649f71457bd09"
                            },
                            {
                                "name": "data",
                                "type": "bytes",
                                "value": "0x"
                            }
                        ],
                        "constructorArguments": "",
                        "name": "swap",
                        "returnParams": [],
                        "signature": "swap(uint256,uint256,address,bytes)"
                    },
                    "errorInfo": "",
                    "fromAddress": "0xe37e799d5077682fa0a244d46e5649f71457bd09",
                    "gasUsed": 48083,
                    "id": 15,
                    "methodDecoded": true,
                    "operation": "CALL",
                    "output": "",
                    "revert": false,
                    "revertMessage": "",
                    "selector": "0x022c0d9f",
                    "status": true,
                    "value": "0"
                },
                "nodeType": 0
            },
            "16": {
                "invocation": {
                    "address": "0xc02aaa39b223fe8d0a0e5c4f27ead9083c756cc2",
                    "callData": "0x000000000000000000000000e37e799d5077682fa0a244d46e5649f71457bd0900000000000000000000000000000000000000000000000000f5f0e86460b882",
                    "decodedMethod": {
                        "callParams": [
                            {
                                "name": "dst",
                                "type": "address",
                                "value": "0xe37e799d5077682fa0a244d46e5649f71457bd09"
                            },
                            {
                                "decimalAvailable": true,
                                "name": "wad",
                                "type": "uint256",
                                "value": "69,226,250,201,249,922"
                            }
                        ],
                        "constructorArguments": "",
                        "name": "transfer",
                        "returnParams": [
                            {
                                "name": "",
                                "type": "bool",
                                "value": true
                            }
                        ],
                        "signature": "transfer(address,uint256)"
                    },
                    "errorInfo": "",
                    "fromAddress": "0x8fbd26a7cb1ab65834c5ea245aa1f1e78d03ed30",
                    "gasUsed": 12862,
                    "id": 16,
                    "methodDecoded": true,
                    "operation": "CALL",
                    "output": "0x0000000000000000000000000000000000000000000000000000000000000001",
                    "revert": false,
                    "revertMessage": "",
                    "selector": "0xa9059cbb",
                    "status": true,
                    "value": "0"
                },
                "nodeType": 0
            },
            "17": {
                "event": {
                    "contract": "0xc02aaa39b223fe8d0a0e5c4f27ead9083c756cc2",
                    "decodedLog": {
                        "name": "Transfer",
                        "params": [
                            {
                                "name": "src",
                                "type": "address",
                                "value": "0x8fbd26a7cb1ab65834c5ea245aa1f1e78d03ed30"
                            },
                            {
                                "name": "dst",
                                "type": "address",
                                "value": "0xe37e799d5077682fa0a244d46e5649f71457bd09"
                            },
                            {
                                "decimalAvailable": true,
                                "name": "wad",
                                "type": "uint256",
                                "value": "69,226,250,201,249,922"
                            }
                        ],
                        "signature": "Transfer(address,address,uint256)"
                    },
                    "id": 17,
                    "logData": "0x00000000000000000000000000000000000000000000000000f5f0e86460b882",
                    "logDecoded": true,
                    "operation": "EVENT",
                    "revert": false,
                    "status": true,
                    "topics": [
                        "0xddf252ad1be2c89b69c2b068fc378daa952ba7f163c4a11628f55a4df523b3ef",
                        "0x0000000000000000000000008fbd26a7cb1ab65834c5ea245aa1f1e78d03ed30",
                        "0x000000000000000000000000e37e799d5077682fa0a244d46e5649f71457bd09"
                    ]
                },
                "nodeType": 1
            },
            "18": {
                "invocation": {
                    "address": "0xc02aaa39b223fe8d0a0e5c4f27ead9083c756cc2",
                    "callData": "0x0000000000000000000000008fbd26a7cb1ab65834c5ea245aa1f1e78d03ed30",
                    "decodedMethod": {
                        "callParams": [
                            {
                                "name": "",
                                "type": "address",
                                "value": "0x8fbd26a7cb1ab65834c5ea245aa1f1e78d03ed30"
                            }
                        ],
                        "constructorArguments": "",
                        "name": "balanceOf",
                        "returnParams": [
                            {
                                "decimalAvailable": true,
                                "name": "",
                                "type": "uint256",
                                "value": "171,852,417,514,068,757,650"
                            }
                        ],
                        "signature": "balanceOf(address)"
                    },
                    "errorInfo": "",
                    "fromAddress": "0x8fbd26a7cb1ab65834c5ea245aa1f1e78d03ed30",
                    "gasUsed": 534,
                    "id": 18,
                    "methodDecoded": true,
                    "operation": "STATICCALL",
                    "output": "0x00000000000000000000000000000000000000000000000950ee6f37462fcc92",
                    "revert": false,
                    "revertMessage": "",
                    "selector": "0x70a08231",
                    "status": true,
                    "value": "0"
                },
                "nodeType": 0
            },
            "19": {
                "invocation": {
                    "address": "0xde342a3e269056fc3305f9e315f4c40d917ba521",
                    "callData": "0x0000000000000000000000008fbd26a7cb1ab65834c5ea245aa1f1e78d03ed30",
                    "decodedMethod": {
                        "callParams": [
                            {
                                "name": "account",
                                "type": "address",
                                "value": "0x8fbd26a7cb1ab65834c5ea245aa1f1e78d03ed30"
                            }
                        ],
                        "constructorArguments": "",
                        "name": "balanceOf",
                        "returnParams": [
                            {
                                "decimalAvailable": true,
                                "name": "",
                                "type": "uint256",
                                "value": "42,365,932,802,622,409,866"
                            }
                        ],
                        "signature": "balanceOf(address)"
                    },
                    "errorInfo": "",
                    "fromAddress": "0x8fbd26a7cb1ab65834c5ea245aa1f1e78d03ed30",
                    "gasUsed": 864,
                    "id": 19,
                    "methodDecoded": true,
                    "operation": "STATICCALL",
                    "output": "0x0000000000000000000000000000000000000000000000024bf2076b6e60cc8a",
                    "revert": false,
                    "revertMessage": "",
                    "selector": "0x70a08231",
                    "status": true,
                    "value": "0"
                },
                "nodeType": 0
            },
            "2": {
                "event": {
                    "contract": "0xde342a3e269056fc3305f9e315f4c40d917ba521",
                    "decodedLog": {
                        "name": "Transfer",
                        "params": [
                            {
                                "name": "from",
                                "type": "address",
                                "value": "0x1a58b9517bcd043757c9be6d60c78e7e0e4e1784"
                            },
                            {
                                "name": "to",
                                "type": "address",
                                "value": "0xe37e799d5077682fa0a244d46e5649f71457bd09"
                            },
                            {
                                "decimalAvailable": true,
                                "name": "value",
                                "type": "uint256",
                                "value": "17,283,279,240,896,147"
                            }
                        ],
                        "signature": "Transfer(address,address,uint256)"
                    },
                    "id": 2,
                    "logData": "0x000000000000000000000000000000000000000000000000003d670d07b51e93",
                    "logDecoded": true,
                    "operation": "EVENT",
                    "revert": false,
                    "status": true,
                    "topics": [
                        "0xddf252ad1be2c89b69c2b068fc378daa952ba7f163c4a11628f55a4df523b3ef",
                        "0x0000000000000000000000001a58b9517bcd043757c9be6d60c78e7e0e4e1784",
                        "0x000000000000000000000000e37e799d5077682fa0a244d46e5649f71457bd09"
                    ]
                },
                "nodeType": 1
            },
            "20": {
                "event": {
                    "contract": "0x8fbd26a7cb1ab65834c5ea245aa1f1e78d03ed30",
                    "decodedLog": {
                        "name": "Sync",
                        "params": [
                            {
                                "name": "reserve0",
                                "type": "uint112",
                                "value": "171,852,417,514,068,757,650"
                            },
                            {
                                "name": "reserve1",
                                "type": "uint112",
                                "value": "42,365,932,802,622,409,866"
                            }
                        ],
                        "signature": "Sync(uint112,uint112)"
                    },
                    "id": 20,
                    "logData": "0x00000000000000000000000000000000000000000000000950ee6f37462fcc920000000000000000000000000000000000000000000000024bf2076b6e60cc8a",
                    "logDecoded": true,
                    "operation": "EVENT",
                    "revert": false,
                    "status": true,
                    "topics": [
                        "0x1c411e9a96e071241c2f21f7726b17ae89e3cab4c78be50e062b03a9fffbbad1"
                    ]
                },
                "nodeType": 1
            },
            "21": {
                "event": {
                    "contract": "0x8fbd26a7cb1ab65834c5ea245aa1f1e78d03ed30",
                    "decodedLog": {
                        "name": "Swap",
                        "params": [
                            {
                                "name": "sender",
                                "type": "address",
                                "value": "0xe37e799d5077682fa0a244d46e5649f71457bd09"
                            },
                            {
                                "name": "to",
                                "type": "address",
                                "value": "0xe37e799d5077682fa0a244d46e5649f71457bd09"
                            },
                            {
                                "name": "amount0In",
                                "type": "uint256",
                                "value": "0"
                            },
                            {
                                "name": "amount1In",
                                "type": "uint256",
                                "value": "17,110,446,448,487,186"
                            },
                            {
                                "name": "amount0Out",
                                "type": "uint256",
                                "value": "69,226,250,201,249,922"
                            },
                            {
                                "name": "amount1Out",
                                "type": "uint256",
                                "value": "0"
                            }
                        ],
                        "signature": "Swap(address,uint256,uint256,uint256,uint256,address)"
                    },
                    "id": 21,
                    "logData": "0x0000000000000000000000000000000000000000000000000000000000000000000000000000000000000000000000000000000000000000003cc9dc4282ab1200000000000000000000000000000000000000000000000000f5f0e86460b8820000000000000000000000000000000000000000000000000000000000000000",
                    "logDecoded": true,
                    "operation": "EVENT",
                    "revert": false,
                    "status": true,
                    "topics": [
                        "0xd78ad95fa46c994b6551d0da85fc275fe613ce37657fb8d5e3d130840159d822",
                        "0x000000000000000000000000e37e799d5077682fa0a244d46e5649f71457bd09",
                        "0x000000000000000000000000e37e799d5077682fa0a244d46e5649f71457bd09"
                    ]
                },
                "nodeType": 1
            },
            "22": {
                "invocation": {
                    "address": "0xc02aaa39b223fe8d0a0e5c4f27ead9083c756cc2",
                    "callData": "0x00000000000000000000000000000000000000000000000000f5f0e86460b882",
                    "decodedMethod": {
                        "callParams": [
                            {
                                "name": "wad",
                                "type": "uint256",
                                "value": "69,226,250,201,249,922"
                            }
                        ],
                        "constructorArguments": "",
                        "name": "withdraw",
                        "returnParams": [],
                        "signature": "withdraw(uint256)"
                    },
                    "errorInfo": "",
                    "fromAddress": "0xe37e799d5077682fa0a244d46e5649f71457bd09",
                    "gasUsed": 9222,
                    "id": 22,
                    "methodDecoded": true,
                    "operation": "CALL",
                    "output": "",
                    "revert": false,
                    "revertMessage": "",
                    "selector": "0x2e1a7d4d",
                    "status": true,
                    "value": "0"
                },
                "nodeType": 0
            },
            "23": {
                "invocation": {
                    "address": "0xe37e799d5077682fa0a244d46e5649f71457bd09",
                    "callData": "0x",
                    "decodedMethod": null,
                    "errorInfo": "",
                    "fromAddress": "0xc02aaa39b223fe8d0a0e5c4f27ead9083c756cc2",
                    "gasUsed": 82,
                    "id": 23,
                    "methodDecoded": false,
                    "operation": "CALL",
                    "output": "",
                    "revert": false,
                    "revertMessage": "",
                    "selector": "fallback",
                    "status": true,
                    "value": "0.069226250201249922"
                },
                "nodeType": 0
            },
            "24": {
                "event": {
                    "contract": "0xc02aaa39b223fe8d0a0e5c4f27ead9083c756cc2",
                    "decodedLog": {
                        "name": "Withdrawal",
                        "params": [
                            {
                                "name": "src",
                                "type": "address",
                                "value": "0xe37e799d5077682fa0a244d46e5649f71457bd09"
                            },
                            {
                                "name": "wad",
                                "type": "uint256",
                                "value": "69,226,250,201,249,922"
                            }
                        ],
                        "signature": "Withdrawal(address,uint256)"
                    },
                    "id": 24,
                    "logData": "0x00000000000000000000000000000000000000000000000000f5f0e86460b882",
                    "logDecoded": true,
                    "operation": "EVENT",
                    "revert": false,
                    "status": true,
                    "topics": [
                        "0x7fcf532c15f0a6db0bd6d0e038bea71d30d808c7d98cb3bf7268a95bf5081b65",
                        "0x000000000000000000000000e37e799d5077682fa0a244d46e5649f71457bd09"
                    ]
                },
                "nodeType": 1
            },
            "25": {
                "invocation": {
                    "address": "0xe37e799d5077682fa0a244d46e5649f71457bd09",
                    "callData": "0xeeeeeeeeeeeeeeeeeeeeeeeeeeeeeeeeeeeeeeee00000000000000000000000000000000000000000000000000f5f0e86460b882000000000000000000054454803c53d200000000000000000000000000000000000000000000000000f5f0e86460b882",
                    "decodedMethod": null,
                    "errorInfo": "",
                    "fromAddress": "0xe37e799d5077682fa0a244d46e5649f71457bd09",
                    "gasUsed": 1156,
                    "id": 25,
                    "methodDecoded": false,
                    "operation": "CALL",
                    "output": "0x00000000000000000000000000000000000000000000000000f5f0e86460b882",
                    "revert": false,
                    "revertMessage": "",
                    "selector": "0xf2fa6b66",
                    "status": true,
                    "value": "0"
                },
                "nodeType": 0
            },
            "26": {
                "invocation": {
                    "address": "0x1111111254eeb25477b68fb85ed929f73a960582",
                    "callData": "0x",
                    "decodedMethod": null,
                    "errorInfo": "",
                    "fromAddress": "0xe37e799d5077682fa0a244d46e5649f71457bd09",
                    "gasUsed": 124,
                    "id": 26,
                    "methodDecoded": false,
                    "operation": "CALL",
                    "output": "",
                    "revert": false,
                    "revertMessage": "",
                    "selector": "fallback",
                    "status": true,
                    "value": "0.069226250201249922"
                },
                "nodeType": 0
            },
            "27": {
                "invocation": {
                    "address": "0x1a58b9517bcd043757c9be6d60c78e7e0e4e1784",
                    "callData": "0x",
                    "decodedMethod": null,
                    "errorInfo": "",
                    "fromAddress": "0x1111111254eeb25477b68fb85ed929f73a960582",
                    "gasUsed": 0,
                    "id": 27,
                    "methodDecoded": false,
                    "operation": "CALL",
                    "output": "",
                    "revert": false,
                    "revertMessage": "",
                    "selector": "fallback",
                    "status": true,
                    "value": "0.069226250201249922"
                },
                "nodeType": 0
            },
            "3": {
                "event": {
                    "contract": "0xde342a3e269056fc3305f9e315f4c40d917ba521",
                    "decodedLog": {
                        "name": "Approval",
                        "params": [
                            {
                                "name": "owner",
                                "type": "address",
                                "value": "0x1a58b9517bcd043757c9be6d60c78e7e0e4e1784"
                            },
                            {
                                "name": "spender",
                                "type": "address",
                                "value": "0x1111111254eeb25477b68fb85ed929f73a960582"
                            },
                            {
                                "decimalAvailable": true,
                                "name": "value",
                                "type": "uint256",
                                "value": "0"
                            }
                        ],
                        "signature": "Approval(address,address,uint256)"
                    },
                    "id": 3,
                    "logData": "0x0000000000000000000000000000000000000000000000000000000000000000",
                    "logDecoded": true,
                    "operation": "EVENT",
                    "revert": false,
                    "status": true,
                    "topics": [
                        "0x8c5be1e5ebec7d5bd14f71427d1e84f3dd0314c0f7b2291e5b200ac8c7c3b925",
                        "0x0000000000000000000000001a58b9517bcd043757c9be6d60c78e7e0e4e1784",
                        "0x0000000000000000000000001111111254eeb25477b68fb85ed929f73a960582"
                    ]
                },
                "nodeType": 1
            },
            "4": {
                "invocation": {
                    "address": "0xe37e799d5077682fa0a244d46e5649f71457bd09",
                    "callData": "0x0000000000000000000000001a58b9517bcd043757c9be6d60c78e7e0e4e178400000000000000000000000000017f00016900011f0000e300006800004e802026678dcdde342a3e269056fc3305f9e315f4c40d917ba521382ffce2287252f930e1c8dc9328dac5bf282ba100000000000000000000000000000000000000000000000000009d30c53273810020d6bdbf78de342a3e269056fc3305f9e315f4c40d917ba5210c20de342a3e269056fc3305f9e315f4c40d917ba5218fbd26a7cb1ab65834c5ea245aa1f1e78d03ed306ae4071118002dc6c08fbd26a7cb1ab65834c5ea245aa1f1e78d03ed3000000000000000000000000000000000000000000000000000ee90149ece7588de342a3e269056fc3305f9e315f4c40d917ba5214101c02aaa39b223fe8d0a0e5c4f27ead9083c756cc200042e1a7d4d000000000000000000000000000000000000000000000000000000000000000000a0f2fa6b66eeeeeeeeeeeeeeeeeeeeeeeeeeeeeeeeeeeeeeee00000000000000000000000000000000000000000000000000f5f0e86460b882000000000000000000054454803c53d2c0611111111254eeb25477b68fb85ed929f73a960582000000000000000000000000000000000000000000000000003d670d07b51e93",
                    "decodedMethod": {
                        "callParams": [
                            {
                                "name": "spender",
                                "type": "address",
                                "value": "0x1a58b9517bcd043757c9be6d60c78e7e0e4e1784"
                            }
                        ],
                        "constructorArguments": "",
                        "name": "execute",
                        "returnParams": [],
                        "signature": "execute(address)"
                    },
                    "errorInfo": "",
                    "fromAddress": "0x1111111254eeb25477b68fb85ed929f73a960582",
                    "gasUsed": 126185,
                    "id": 4,
                    "methodDecoded": true,
                    "operation": "CALL",
                    "output": "0x00000000000000000000000000000000000000000000000000f5f0e86460b882",
                    "revert": false,
                    "revertMessage": "",
                    "selector": "0x4b64e492",
                    "status": true,
                    "value": "0"
                },
                "nodeType": 0
            },
            "5": {
                "invocation": {
                    "address": "0xe37e799d5077682fa0a244d46e5649f71457bd09",
                    "callData": "0xde342a3e269056fc3305f9e315f4c40d917ba521382ffce2287252f930e1c8dc9328dac5bf282ba100000000000000000000000000000000000000000000000000009d30c5327381",
                    "decodedMethod": null,
                    "errorInfo": "",
                    "fromAddress": "0xe37e799d5077682fa0a244d46e5649f71457bd09",
                    "gasUsed": 19559,
                    "id": 5,
                    "methodDecoded": false,
                    "operation": "CALL",
                    "output": "0x00000000000000000000000000000000000000000000000000009d30c5327381",
                    "revert": false,
                    "revertMessage": "",
                    "selector": "0x26678dcd",
                    "status": true,
                    "value": "0"
                },
                "nodeType": 0
            },
            "6": {
                "invocation": {
                    "address": "0xde342a3e269056fc3305f9e315f4c40d917ba521",
                    "callData": "0x000000000000000000000000382ffce2287252f930e1c8dc9328dac5bf282ba100000000000000000000000000000000000000000000000000009d30c5327381",
                    "decodedMethod": {
                        "callParams": [
                            {
                                "name": "recipient",
                                "type": "address",
                                "value": "0x382ffce2287252f930e1c8dc9328dac5bf282ba1"
                            },
                            {
                                "decimalAvailable": true,
                                "name": "amount",
                                "type": "uint256",
                                "value": "172,832,792,408,961"
                            }
                        ],
                        "constructorArguments": "",
                        "name": "transfer",
                        "returnParams": [
                            {
                                "name": "",
                                "type": "bool",
                                "value": true
                            }
                        ],
                        "signature": "transfer(address,uint256)"
                    },
                    "errorInfo": "",
                    "fromAddress": "0xe37e799d5077682fa0a244d46e5649f71457bd09",
                    "gasUsed": 18837,
                    "id": 6,
                    "methodDecoded": true,
                    "operation": "CALL",
                    "output": "0x0000000000000000000000000000000000000000000000000000000000000001",
                    "revert": false,
                    "revertMessage": "",
                    "selector": "0xa9059cbb",
                    "status": true,
                    "value": "0"
                },
                "nodeType": 0
            },
            "7": {
                "event": {
                    "contract": "0xde342a3e269056fc3305f9e315f4c40d917ba521",
                    "decodedLog": {
                        "name": "Transfer",
                        "params": [
                            {
                                "name": "from",
                                "type": "address",
                                "value": "0xe37e799d5077682fa0a244d46e5649f71457bd09"
                            },
                            {
                                "name": "to",
                                "type": "address",
                                "value": "0x382ffce2287252f930e1c8dc9328dac5bf282ba1"
                            },
                            {
                                "decimalAvailable": true,
                                "name": "value",
                                "type": "uint256",
                                "value": "172,832,792,408,961"
                            }
                        ],
                        "signature": "Transfer(address,address,uint256)"
                    },
                    "id": 7,
                    "logData": "0x00000000000000000000000000000000000000000000000000009d30c5327381",
                    "logDecoded": true,
                    "operation": "EVENT",
                    "revert": false,
                    "status": true,
                    "topics": [
                        "0xddf252ad1be2c89b69c2b068fc378daa952ba7f163c4a11628f55a4df523b3ef",
                        "0x000000000000000000000000e37e799d5077682fa0a244d46e5649f71457bd09",
                        "0x000000000000000000000000382ffce2287252f930e1c8dc9328dac5bf282ba1"
                    ]
                },
                "nodeType": 1
            },
            "8": {
                "invocation": {
                    "address": "0xe37e799d5077682fa0a244d46e5649f71457bd09",
                    "callData": "0xde342a3e269056fc3305f9e315f4c40d917ba521",
                    "decodedMethod": {
                        "callParams": [],
                        "constructorArguments": "",
                        "name": "tokenBalanceOf",
                        "returnParams": [
                            {
                                "name": "",
                                "type": "uint256",
                                "value": "17,110,446,448,487,186"
                            }
                        ],
                        "signature": "tokenBalanceOf()"
                    },
                    "errorInfo": "",
                    "fromAddress": "0xe37e799d5077682fa0a244d46e5649f71457bd09",
                    "gasUsed": 2061,
                    "id": 8,
                    "methodDecoded": true,
                    "operation": "CALL",
                    "output": "0x000000000000000000000000000000000000000000000000003cc9dc4282ab12",
                    "revert": false,
                    "revertMessage": "",
                    "selector": "0xd6bdbf78",
                    "status": true,
                    "value": "0"
                },
                "nodeType": 0
            },
            "9": {
                "invocation": {
                    "address": "0xde342a3e269056fc3305f9e315f4c40d917ba521",
                    "callData": "0x000000000000000000000000e37e799d5077682fa0a244d46e5649f71457bd09",
                    "decodedMethod": {
                        "callParams": [
                            {
                                "name": "account",
                                "type": "address",
                                "value": "0xe37e799d5077682fa0a244d46e5649f71457bd09"
                            }
                        ],
                        "constructorArguments": "",
                        "name": "balanceOf",
                        "returnParams": [
                            {
                                "decimalAvailable": true,
                                "name": "",
                                "type": "uint256",
                                "value": "17,110,446,448,487,187"
                            }
                        ],
                        "signature": "balanceOf(address)"
                    },
                    "errorInfo": "",
                    "fromAddress": "0xe37e799d5077682fa0a244d46e5649f71457bd09",
                    "gasUsed": 864,
                    "id": 9,
                    "methodDecoded": true,
                    "operation": "STATICCALL",
                    "output": "0x000000000000000000000000000000000000000000000000003cc9dc4282ab13",
                    "revert": false,
                    "revertMessage": "",
                    "selector": "0x70a08231",
                    "status": true,
                    "value": "0"
                },
                "nodeType": 0
            }
        },
        "gasFlame": [
            {
                "children": [
                    {
                        "children": [
                            {
                                "children": [],
                                "depth": 0,
                                "name": "Initial Gas",
                                "value": 29032
                            },
                            {
                                "children": [
                                    {
                                        "children": [],
                                        "depth": 1,
                                        "name": "transferFrom",
                                        "value": 53533
                                    },
                                    {
                                        "children": [
                                            {
                                                "children": [
                                                    {
                                                        "children": [],
                                                        "depth": 3,
                                                        "name": "transfer",
                                                        "value": 18837
                                                    }
                                                ],
                                                "depth": 2,
                                                "name": "0x26678dcd",
                                                "value": 19559
                                            },
                                            {
                                                "children": [
                                                    {
                                                        "children": [],
                                                        "depth": 3,
                                                        "name": "balanceOf",
                                                        "value": 864
                                                    }
                                                ],
                                                "depth": 2,
                                                "name": "tokenBalanceOf",
                                                "value": 2061
                                            },
                                            {
                                                "children": [],
                                                "depth": 2,
                                                "name": "transfer",
                                                "value": 25532
                                            },
                                            {
                                                "children": [
                                                    {
                                                        "children": [],
                                                        "depth": 3,
                                                        "name": "getReserves",
                                                        "value": 2504
                                                    },
                                                    {
                                                        "children": [],
                                                        "depth": 3,
                                                        "name": "balanceOf",
                                                        "value": 864
                                                    },
                                                    {
                                                        "children": [
                                                            {
                                                                "children": [],
                                                                "depth": 4,
                                                                "name": "transfer",
                                                                "value": 12862
                                                            },
                                                            {
                                                                "children": [],
                                                                "depth": 4,
                                                                "name": "balanceOf",
                                                                "value": 534
                                                            },
                                                            {
                                                                "children": [],
                                                                "depth": 4,
                                                                "name": "balanceOf",
                                                                "value": 864
                                                            }
                                                        ],
                                                        "depth": 3,
                                                        "name": "swap",
                                                        "value": 48083
                                                    }
                                                ],
                                                "depth": 2,
                                                "name": "swapUniV2",
                                                "value": 55517
                                            },
                                            {
                                                "children": [
                                                    {
                                                        "children": [],
                                                        "depth": 3,
                                                        "name": "fallback",
                                                        "value": 82
                                                    }
                                                ],
                                                "depth": 2,
                                                "name": "withdraw",
                                                "value": 9222
                                            },
                                            {
                                                "children": [],
                                                "depth": 2,
                                                "name": "0xf2fa6b66",
                                                "value": 1156
                                            },
                                            {
                                                "children": [],
                                                "depth": 2,
                                                "name": "fallback",
                                                "value": 124
                                            }
                                        ],
                                        "depth": 1,
                                        "name": "execute",
                                        "value": 126185
                                    },
                                    {
                                        "children": [],
                                        "depth": 1,
                                        "name": "fallback",
                                        "value": 0
                                    }
                                ],
                                "depth": 0,
                                "name": "Executed Gas",
                                "value": 195269
                            }
                        ],
                        "depth": -1,
                        "name": "Actual Gas Used",
                        "value": 211101
                    },
                    {
                        "children": [],
                        "depth": -1,
                        "name": "Refunded Gas",
                        "value": 13200
                    }
                ],
                "depth": -2,
                "name": "Total Gas",
                "value": 224301
            }
        ],
        "isConfirmed": true,
        "mainTrace": [
            {
                "children": [
                    {
                        "children": [
                            {
                                "children": [
                                    {
                                        "children": [],
                                        "depth": 2,
                                        "id": 2,
                                        "order": 2
                                    },
                                    {
                                        "children": [],
                                        "depth": 2,
                                        "id": 3,
                                        "order": 3
                                    }
                                ],
                                "depth": 1,
                                "id": 1,
                                "order": 1
                            },
                            {
                                "children": [
                                    {
                                        "children": [
                                            {
                                                "children": [
                                                    {
                                                        "children": [],
                                                        "depth": 4,
                                                        "id": 7,
                                                        "order": 7
                                                    }
                                                ],
                                                "depth": 3,
                                                "id": 6,
                                                "order": 6
                                            }
                                        ],
                                        "depth": 2,
                                        "id": 5,
                                        "order": 5
                                    },
                                    {
                                        "children": [
                                            {
                                                "children": [],
                                                "depth": 3,
                                                "id": 9,
                                                "order": 9
                                            }
                                        ],
                                        "depth": 2,
                                        "id": 8,
                                        "order": 8
                                    },
                                    {
                                        "children": [
                                            {
                                                "children": [],
                                                "depth": 3,
                                                "id": 11,
                                                "order": 11
                                            }
                                        ],
                                        "depth": 2,
                                        "id": 10,
                                        "order": 10
                                    },
                                    {
                                        "children": [
                                            {
                                                "children": [],
                                                "depth": 3,
                                                "id": 13,
                                                "order": 13
                                            },
                                            {
                                                "children": [],
                                                "depth": 3,
                                                "id": 14,
                                                "order": 14
                                            },
                                            {
                                                "children": [
                                                    {
                                                        "children": [
                                                            {
                                                                "children": [],
                                                                "depth": 5,
                                                                "id": 17,
                                                                "order": 17
                                                            }
                                                        ],
                                                        "depth": 4,
                                                        "id": 16,
                                                        "order": 16
                                                    },
                                                    {
                                                        "children": [],
                                                        "depth": 4,
                                                        "id": 18,
                                                        "order": 18
                                                    },
                                                    {
                                                        "children": [],
                                                        "depth": 4,
                                                        "id": 19,
                                                        "order": 19
                                                    },
                                                    {
                                                        "children": [],
                                                        "depth": 4,
                                                        "id": 20,
                                                        "order": 20
                                                    },
                                                    {
                                                        "children": [],
                                                        "depth": 4,
                                                        "id": 21,
                                                        "order": 21
                                                    }
                                                ],
                                                "depth": 3,
                                                "id": 15,
                                                "order": 15
                                            }
                                        ],
                                        "depth": 2,
                                        "id": 12,
                                        "order": 12
                                    },
                                    {
                                        "children": [
                                            {
                                                "children": [],
                                                "depth": 3,
                                                "id": 23,
                                                "order": 23
                                            },
                                            {
                                                "children": [],
                                                "depth": 3,
                                                "id": 24,
                                                "order": 24
                                            }
                                        ],
                                        "depth": 2,
                                        "id": 22,
                                        "order": 22
                                    },
                                    {
                                        "children": [],
                                        "depth": 2,
                                        "id": 25,
                                        "order": 25
                                    },
                                    {
                                        "children": [],
                                        "depth": 2,
                                        "id": 26,
                                        "order": 26
                                    }
                                ],
                                "depth": 1,
                                "id": 4,
                                "order": 4
                            },
                            {
                                "children": [],
                                "depth": 1,
                                "id": 27,
                                "order": 27
                            }
                        ],
                        "depth": 0,
                        "id": 0,
                        "order": 0
                    }
                ],
                "depth": -1,
                "id": -1,
                "order": -1
            }
        ],
        "mainTraceNodeCount": 28,
        "parentIdMap": {
            "0": -1,
            "1": 0,
            "10": 4,
            "11": 10,
            "12": 4,
            "13": 12,
            "14": 12,
            "15": 12,
            "16": 15,
            "17": 16,
            "18": 15,
            "19": 15,
            "2": 1,
            "20": 15,
            "21": 15,
            "22": 4,
            "23": 22,
            "24": 22,
            "25": 4,
            "26": 4,
            "27": 0,
            "3": 1,
            "4": 0,
            "5": 4,
            "6": 5,
            "7": 6,
            "8": 4,
            "9": 8
        },
        "tidyTrace": [
            {
                "children": [
                    {
                        "children": [
                            {
                                "children": [
                                    {
                                        "children": [],
                                        "depth": 2,
                                        "id": 2,
                                        "order": 2
                                    },
                                    {
                                        "children": [],
                                        "depth": 2,
                                        "id": 3,
                                        "order": 3
                                    }
                                ],
                                "depth": 1,
                                "id": 1,
                                "order": 1
                            },
                            {
                                "children": [
                                    {
                                        "children": [
                                            {
                                                "children": [
                                                    {
                                                        "children": [],
                                                        "depth": 4,
                                                        "id": 7,
                                                        "order": 7
                                                    }
                                                ],
                                                "depth": 3,
                                                "id": 6,
                                                "order": 6
                                            }
                                        ],
                                        "depth": 2,
                                        "id": 5,
                                        "order": 5
                                    },
                                    {
                                        "children": [],
                                        "depth": 2,
                                        "id": 8,
                                        "order": 8
                                    },
                                    {
                                        "children": [
                                            {
                                                "children": [],
                                                "depth": 3,
                                                "id": 11,
                                                "order": 11
                                            }
                                        ],
                                        "depth": 2,
                                        "id": 10,
                                        "order": 10
                                    },
                                    {
                                        "children": [
                                            {
                                                "children": [
                                                    {
                                                        "children": [
                                                            {
                                                                "children": [],
                                                                "depth": 5,
                                                                "id": 17,
                                                                "order": 17
                                                            }
                                                        ],
                                                        "depth": 4,
                                                        "id": 16,
                                                        "order": 16
                                                    },
                                                    {
                                                        "children": [],
                                                        "depth": 4,
                                                        "id": 20,
                                                        "order": 20
                                                    },
                                                    {
                                                        "children": [],
                                                        "depth": 4,
                                                        "id": 21,
                                                        "order": 21
                                                    }
                                                ],
                                                "depth": 3,
                                                "id": 15,
                                                "order": 15
                                            }
                                        ],
                                        "depth": 2,
                                        "id": 12,
                                        "order": 12
                                    },
                                    {
                                        "children": [
                                            {
                                                "children": [],
                                                "depth": 3,
                                                "id": 23,
                                                "order": 23
                                            },
                                            {
                                                "children": [],
                                                "depth": 3,
                                                "id": 24,
                                                "order": 24
                                            }
                                        ],
                                        "depth": 2,
                                        "id": 22,
                                        "order": 22
                                    },
                                    {
                                        "children": [],
                                        "depth": 2,
                                        "id": 25,
                                        "order": 25
                                    },
                                    {
                                        "children": [],
                                        "depth": 2,
                                        "id": 26,
                                        "order": 26
                                    }
                                ],
                                "depth": 1,
                                "id": 4,
                                "order": 4
                            },
                            {
                                "children": [],
                                "depth": 1,
                                "id": 27,
                                "order": 27
                            }
                        ],
                        "depth": 0,
                        "id": 0,
                        "order": 0
                    }
                ],
                "depth": -1,
                "id": -1,
                "order": -1
            }
        ],
        "tidyTraceNodeCount": 23
    },
    "state_change": {
        "stateChanges": [
            {
                "address": "0x8fbd26a7cb1ab65834c5ea245aa1f1e78d03ed30",
                "erc": "ERC-20",
                "slots": [
                    {
                        "current": "0x667f50470000000000024bf2076b6e60cc8a00000000000950ee6f37462fcc92",
                        "key": "0x0000000000000000000000000000000000000000000000000000000000000008",
                        "prev": "0x667f49630000000000024bb53d8f2bde217800000000000951e4601faa908514"
                    },
                    {
                        "current": "0x00000000000000000000000000000051f5c3376fc14c2a816453fee8f7529bf0",
                        "key": "0x0000000000000000000000000000000000000000000000000000000000000009",
                        "prev": "0x00000000000000000000000000000051f410b26bb9367d3ec10ac5d62570d914"
                    },
                    {
                        "current": "0x000000000000000000000000000005dc569b9db7eacf983967f6a70477a04348",
                        "key": "0x000000000000000000000000000000000000000000000000000000000000000a",
                        "prev": "0x000000000000000000000000000005dc3aa26219192c93d179826423c1baff00"
                    }
                ],
                "storageVariables": [
                    {
                        "name": "reserve0",
                        "type": "uint112",
                        "value": {
                            "current": "171852417514068757650",
                            "prev": "171921643764270007572",
                            "typeTag": 1
                        }
                    },
                    {
                        "name": "reserve1",
                        "type": "uint112",
                        "value": {
                            "current": "42365932802622409866",
                            "prev": "42348822356173922680",
                            "typeTag": 1
                        }
                    },
                    {
                        "name": "blockTimestampLast",
                        "type": "uint32",
                        "value": {
                            "current": "1719619655",
                            "prev": "1719617891",
                            "typeTag": 1
                        }
                    },
                    {
                        "name": "price0CumulativeLast",
                        "type": "uint256",
                        "value": {
                            "current": "27889546201837411146691616146726493264880",
                            "prev": "27887290047120915010052174864630619887892",
                            "typeTag": 1
                        }
                    },
                    {
                        "name": "price1CumulativeLast",
                        "type": "uint256",
                        "value": {
                            "current": "510538671993968002830638207262480536716104",
                            "prev": "510501488746918939194520058718598383468288",
                            "typeTag": 1
                        }
                    }
                ]
            },
            {
                "address": "0xc02aaa39b223fe8d0a0e5c4f27ead9083c756cc2",
                "erc": "ERC-20",
                "slots": [
                    {
                        "current": "0x00000000000000000000000000000000000000000000000950ee6f37462fcc92",
                        "key": "0x97b69283d7d1d916fcf089058a0bf7a5a19fae78859533c0261a8d603238f67f",
                        "prev": "0x00000000000000000000000000000000000000000000000951e4601faa908514"
                    }
                ],
                "storageVariables": [
                    {
                        "name": "balanceOf",
                        "type": "mapping(address => uint256)",
                        "value": {
                            "pairs": [
                                {
                                    "key": "0x8fbd26a7cb1ab65834c5ea245aa1f1e78d03ed30",
                                    "value": {
                                        "current": "171852417514068757650",
                                        "prev": "171921643764270007572",
                                        "typeTag": 1
                                    }
                                }
                            ],
                            "typeTag": 4
                        }
                    }
                ]
            },
            {
                "address": "0xde342a3e269056fc3305f9e315f4c40d917ba521",
                "erc": "ERC-20",
                "slots": [
                    {
                        "current": "0x0000000000000000000000000000000000000000000000000000000000000000",
                        "key": "0xd6abff6e15e42bb4a1d786e4cce8c703fd048071f5ddaf0c12efa9e5d389e564",
                        "prev": "0x000000000000000000000000000000000000000000000000003d670d07b51e93"
                    },
                    {
                        "current": "0x00000000000000000000000000000000000000000000000000002c24c4816a2b",
                        "key": "0x513c3cc55747e0b32f37f98340a570e580d4037344c4e1f2a6e560a567ea4cbe",
                        "prev": "0x000000000000000000000000000000000000000000000000003d9331cc3688be"
                    },
                    {
                        "current": "0x00000000000000000000000000000000000000000000000000074d7df3976aea",
                        "key": "0xf51a1ced999060d8ec7f0c8f8bdb0af1c3815afe88dbdc42bc1e8816ba0cac53",
                        "prev": "0x0000000000000000000000000000000000000000000000000006b04d2e64f769"
                    },
                    {
                        "current": "0x0000000000000000000000000000000000000000000000000000000000008343",
                        "key": "0x0000000000000000000000000000000000000000000000000000000000000008",
                        "prev": "0x0000000000000000000000000000000000000000000000000000000000008342"
                    },
                    {
                        "current": "0x0000000000000000000000000000000000000000000000024bf2076b6e60cc8a",
                        "key": "0x7d2121bc46a32687126cd0d78104e3aff320bd24e71db8dcb00d06049bc7cef8",
                        "prev": "0x0000000000000000000000000000000000000000000000024bb53d8f2bde2178"
                    }
                ],
                "storageVariables": [
                    {
                        "name": "_balances",
                        "type": "mapping(address => uint256)",
                        "value": {
                            "pairs": [
                                {
                                    "key": "0x1a58b9517bcd043757c9be6d60c78e7e0e4e1784",
                                    "value": {
                                        "current": "48536427260459",
                                        "prev": "17331815668156606",
                                        "typeTag": 1
                                    }
                                },
                                {
                                    "key": "0x382ffce2287252f930e1c8dc9328dac5bf282ba1",
                                    "value": {
                                        "current": "2055528190012138",
                                        "prev": "1882695397603177",
                                        "typeTag": 1
                                    }
                                },
                                {
                                    "key": "0x8fbd26a7cb1ab65834c5ea245aa1f1e78d03ed30",
                                    "value": {
                                        "current": "42365932802622409866",
                                        "prev": "42348822356173922680",
                                        "typeTag": 1
                                    }
                                }
                            ],
                            "typeTag": 4
                        }
                    },
                    {
                        "name": "swapTimes",
                        "type": "uint256",
                        "value": {
                            "current": "33603",
                            "prev": "33602",
                            "typeTag": 1
                        }
                    },
                    {
                        "name": "_allowances",
                        "type": "mapping(address => mapping(address => uint256))",
                        "value": {
                            "pairs": [
                                {
                                    "key": "0x1a58b9517bcd043757c9be6d60c78e7e0e4e1784",
                                    "value": {
                                        "pairs": [
                                            {
                                                "key": "0x1111111254eeb25477b68fb85ed929f73a960582",
                                                "value": {
                                                    "current": "0",
                                                    "prev": "17283279240896147",
                                                    "typeTag": 1
                                                }
                                            }
                                        ],
                                        "typeTag": 4
                                    }
                                }
                            ],
                            "typeTag": 4
                        }
                    }
                ]
            }
        ]
    }
}