{
    "balance_change": {
        "balanceChanges": [
            {
                "account": "0xe4ff76960e555ab1021d07cb66aa22344c92131e",
                "assets": [
                    {
                        "address": "0xba08efcc14f24ef2c4f7a7e95c75d5f7970149dd",
                        "amount": "50,000,000,000,000,000,000",
                        "iconUrl": "",
                        "isERC1155": false,
                        "isERC721": false,
                        "sign": false,
                        "value": ""
                    }
                ]
            },
            {
                "account": "0x6c7065a72fd043cac46df81b851d3b8eab268b1c",
                "assets": [
                    {
                        "address": "0xba08efcc14f24ef2c4f7a7e95c75d5f7970149dd",
                        "amount": "50,000,000,000,000,000,000",
                        "iconUrl": "",
                        "isERC1155": false,
                        "isERC721": false,
                        "sign": true,
                        "value": ""
                    }
                ]
            }
        ]
    },
    "profile": {
        "basic_info": {
            "baseFee": "",
            "blockNumber": 6237815,
            "callData": "0xa9059cbb0000000000000000000000006c7065a72fd043cac46df81b851d3b8eab268b1c000000000000000000000000000000000000000000000002b5e3af16b1880000",
            "debugEnable": true,
            "errorInfo": "",
            "eventCount": 1,
            "feeRecipient": "0xea674fdde714fd979de3edf0f56aa9716b898ec8",
            "formatValue": "0",
            "gasLimit": 56830,
            "gasPrice": "3.15",
            "gasUsed": 37887,
            "intTxnCount": 0,
            "internalRevert": false,
            "internalRevertMessage": "",
            "isContractCreation": false,
            "isFlashloan": false,
            "maxFee": "",
            "nonce": 56,
            "overwritedBlockNumber": -1,
            "priorityFee": "",
            "receiver": "0xba08efcc14f24ef2c4f7a7e95c75d5f7970149dd",
            "revertMessage": "",
            "sender": "0xe4ff76960e555ab1021d07cb66aa22344c92131e",
            "simulationEnable": true,
            "sourceTxnHash": "0xa38057a8483e00f399c97481a38a607d5a86ccd6916ac15a07dce985e8bed881",
            "status": true,
            "timestamp": "2018-08-30T01:03:16Z",
            "transactionFee": "0.00011934405",
            "txnHash": "0xa38057a8483e00f399c97481a38a607d5a86ccd6916ac15a07dce985e8bed881",
            "txnIndex": 154,
            "type": 0,
            "value": "0"
        },
        "fund_flow": [
            {
                "amount": "50,000,000,000,000,000,000",
                "from": "0xe4ff76960e555ab1021d07cb66aa22344c92131e",
                "id": 1,
                "isERC1155": false,
                "isERC721": false,
                "isReverted": false,
                "order": 1,
                "to": "0x6c7065a72fd043cac46df81b851d3b8eab268b1c",
                "token": "0xba08efcc14f24ef2c4f7a7e95c75d5f7970149dd"
            }
        ],
        "token_infos": [
            {
                "address": "0xc02aaa39b223fe8d0a0e5c4f27ead9083c756cc2",
                "decimals": 18
            },
            {
                "address": "0xeeeeeeeeeeeeeeeeeeeeeeeeeeeeeeeeeeeeeeee",
                "decimals": 18
            }
        ]
    },
    "address_label": {
        "labels": [
            {
                "address": "0x0000000000000000000000000000000000000004",
                "label": "Precompiled"
            },
            {
                "address": "0xeeeeeeeeeeeeeeeeeeeeeeeeeeeeeeeeeeeeeeee",
                "label": "Ether"
            },
            {
                "address": "0x0000000000000000000000000000000000000001",
                "label": "Precompiled"
            },
            {
                "address": "0x0000000000000000000000000000000000000002",
                "label": "Precompiled"
            },
            {
                "address": "0x0000000000000000000000000000000000000003",
                "label": "Precompiled"
            }
        ]
    },
    "trace": {
        "accountLabels": null,
        "dataMap": {
            "-1": {
                "invocation": {
                    "address": "0xe4ff76960e555ab1021d07cb66aa22344c92131e",
                    "callData": "",
                    "decodedMethod": null,
                    "errorInfo": "",
                    "fromAddress": "",
                    "gasUsed": 0,
                    "id": -1,
                    "methodDecoded": false,
                    "operation": "",
                    "output": "",
                    "revert": false,
                    "revertMessage": "",
                    "selector": "",
                    "status": false,
                    "value": ""
                },
                "nodeType": 0
            },
            "0": {
                "invocation": {
                    "address": "0xba08efcc14f24ef2c4f7a7e95c75d5f7970149dd",
                    "callData": "0x0000000000000000000000006c7065a72fd043cac46df81b851d3b8eab268b1c000000000000000000000000000000000000000000000002b5e3af16b1880000",
                    "decodedMethod": {
                        "callParams": [
                            {
                                "name": "_to",
                                "type": "address",
                                "value": "0x6c7065a72fd043cac46df81b851d3b8eab268b1c"
                            },
                            {
                                "decimalAvailable": true,
                                "name": "_value",
                                "type": "uint256",
                                "value": "50,000,000,000,000,000,000"
                            }
                        ],
                        "constructorArguments": "",
                        "name": "transfer",
                        "returnParams": [],
                        "signature": "transfer(address,uint256)"
                    },
                    "errorInfo": "",
                    "fromAddress": "0xe4ff76960e555ab1021d07cb66aa22344c92131e",
                    "gasUsed": 37887,
                    "id": 0,
                    "methodDecoded": true,
                    "operation": "CALL",
                    "output": "",
                    "revert": false,
                    "revertMessage": "",
                    "selector": "0xa9059cbb",
                    "status": true,
                    "value": "0"
                },
                "nodeType": 0
            },
            "1": {
                "event": {
                    "contract": "0xba08efcc14f24ef2c4f7a7e95c75d5f7970149dd",
                    "decodedLog": {
                        "name": "Transfer",
                        "params": [
                            {
                                "name": "from",
                                "type": "address",
                                "value": "0xe4ff76960e555ab1021d07cb66aa22344c92131e"
                            },
                            {
                                "name": "to",
                                "type": "address",
                                "value": "0x6c7065a72fd043cac46df81b851d3b8eab268b1c"
                            },
                            {
                                "decimalAvailable": true,
                                "name": "value",
                                "type": "uint256",
                                "value": "50,000,000,000,000,000,000"
                            }
                        ],
                        "signature": "Transfer(address,address,uint256)"
                    },
                    "id": 1,
                    "logData": "0x000000000000000000000000000000000000000000000002b5e3af16b1880000",
                    "logDecoded": true,
                    "operation": "EVENT",
                    "revert": false,
                    "status": true,
                    "topics": [
                        "0xddf252ad1be2c89b69c2b068fc378daa952ba7f163c4a11628f55a4df523b3ef",
                        "0x000000000000000000000000e4ff76960e555ab1021d07cb66aa22344c92131e",
                        "0x0000000000000000000000006c7065a72fd043cac46df81b851d3b8eab268b1c"
                    ]
                },
                "nodeType": 1
            }
        },
        "gasFlame": [
            {
                "children": [
                    {
                        "children": [
                            {
                                "children": [],
                                "depth": 0,
                                "name": "Initial Gas",
                                "value": 23256
                            },
                            {
                                "children": [],
                                "depth": 0,
                                "name": "Executed Gas",
                                "value": 14631
                            }
                        ],
                        "depth": -1,
                        "name": "Actual Gas Used",
                        "value": 37887
                    },
                    {
                        "children": [],
                        "depth": -1,
                        "name": "Refunded Gas",
                        "value": 0
                    }
                ],
                "depth": -2,
                "name": "Total Gas",
                "value": 37887
            }
        ],
        "isConfirmed": true,
        "mainTrace": [
            {
                "children": [
                    {
                        "children": [
                            {
                                "children": [],
                                "depth": 1,
                                "id": 1,
                                "order": 1
                            }
                        ],
                        "depth": 0,
                        "id": 0,
                        "order": 0
                    }
                ],
                "depth": -1,
                "id": -1,
                "order": -1
            }
        ],
        "mainTraceNodeCount": 2,
        "parentIdMap": {
            "0": -1,
            "1": 0
        },
        "tidyTrace": [
            {
                "children": [
                    {
                        "children": [
                            {
                                "children": [],
                                "depth": 1,
                                "id": 1,
                                "order": 1
                            }
                        ],
                        "depth": 0,
                        "id": 0,
                        "order": 0
                    }
                ],
                "depth": -1,
                "id": -1,
                "order": -1
            }
        ],
        "tidyTraceNodeCount": 2
    },
    "state_change": {
        "stateChanges": [
            {
                "address": "0xba08efcc14f24ef2c4f7a7e95c75d5f7970149dd",
                "erc": "",
                "slots": [
                    {
                        "current": "0x000000000000000000000000000000000000000000084530cc2bb300a1580000",
                        "key": "0xa4ae47b42ecb50b3423b09788c375fa0ed5f2a8be12123a137f946a1343d5e12",
                        "prev": "0x000000000000000000000000000000000000000000084533820f621752e00000"
                    },
                    {
                        "current": "0x00000000000000000000000000000000000000000000000821ab0d4414980000",
                        "key": "0x99575c8c39dd253e87ce3a0da7a7db970613b6700e4e5cdcfc17d1495ff16d45",
                        "prev": "0x0000000000000000000000000000000000000000000000056bc75e2d63100000"
                    }
                ],
                "storageVariables": []
            }
        ]
    }
}