{
    "balance_change": {
        "balanceChanges": []
    },
    "profile": {
        "basic_info": {
            "baseFee": "",
            "blockNumber": 12849068,
            "callData": "0xe2bbb15800000000000000000000000000000000000000000000000000000000000000100000000000000000000000000000000000000000000000000000000000000000",
            "debugEnable": true,
            "errorInfo": "execution reverted",
            "eventCount": 5,
            "feeRecipient": "0x829bd824b016326a401d083b33d092293333a830",
            "formatValue": "0",
            "gasLimit": 166037,
            "gasPrice": "20.9",
            "gasUsed": 165871,
            "intTxnCount": 8,
            "internalRevert": true,
            "internalRevertMessage": "",
            "isContractCreation": false,
            "isFlashloan": false,
            "maxFee": "",
            "nonce": 135,
            "overwritedBlockNumber": -1,
            "priorityFee": "",
            "receiver": "0x94235659cf8b805b2c658f9ea2d6d6ddbb17c8d7",
            "revertMessage": "",
            "sender": "0x533af9d886d6d728af1c124fd41ade9a23a3f3bf",
            "simulationEnable": true,
            "sourceTxnHash": "0xa4e76c84d73a082302e34edfe9f7eb8ca52727b53a27b4bfd421bd2efc46d6e8",
            "status": false,
            "timestamp": "2021-07-18T06:34:13Z",
            "transactionFee": "0.0034667039",
            "txnHash": "0xa4e76c84d73a082302e34edfe9f7eb8ca52727b53a27b4bfd421bd2efc46d6e8",
            "txnIndex": 56,
            "type": 0,
            "value": "0"
        },
        "fund_flow": [],
        "token_infos": [
            {
                "address": "0x9813037ee2218799597d83d4a5b6f3b6778218d9",
                "decimals": 18
            },
            {
                "address": "0xc02aaa39b223fe8d0a0e5c4f27ead9083c756cc2",
                "decimals": 18
            },
            {
                "address": "0xeeeeeeeeeeeeeeeeeeeeeeeeeeeeeeeeeeeeeeee",
                "decimals": 18
            }
        ]
    },
    "address_label": {
        "labels": [
            {
                "address": "0x0000000000000000000000000000000000000004",
                "label": "Precompiled"
            },
            {
                "address": "0xeeeeeeeeeeeeeeeeeeeeeeeeeeeeeeeeeeeeeeee",
                "label": "Ether"
            },
            {
                "address": "0x9813037ee2218799597d83d4a5b6f3b6778218d9",
                "label": "ShibaSwap: BONE Token"
            },
            {
                "address": "0xf6badfb9b0ab2f8f3fd8225ef1ea12fa689ad1a7",
                "label": "ShibaSwap LP Token (SSLP)"
            },
            {
                "address": "0x94235659cf8b805b2c658f9ea2d6d6ddbb17c8d7",
                "label": "Shiba Inu: Migrator"
            },
            {
                "address": "0x0000000000000000000000000000000000000001",
                "label": "Precompiled"
            },
            {
                "address": "0x0000000000000000000000000000000000000002",
                "label": "Precompiled"
            },
            {
                "address": "0x0000000000000000000000000000000000000003",
                "label": "Precompiled"
            }
        ]
    },
    "trace": {
        "accountLabels": null,
        "dataMap": {
            "-1": {
                "invocation": {
                    "address": "0x533af9d886d6d728af1c124fd41ade9a23a3f3bf",
                    "callData": "",
                    "decodedMethod": null,
                    "errorInfo": "",
                    "fromAddress": "",
                    "gasUsed": 0,
                    "id": -1,
                    "methodDecoded": false,
                    "operation": "",
                    "output": "",
                    "revert": false,
                    "revertMessage": "",
                    "selector": "",
                    "status": false,
                    "value": ""
                },
                "nodeType": 0
            },
            "0": {
                "invocation": {
                    "address": "0x94235659cf8b805b2c658f9ea2d6d6ddbb17c8d7",
                    "callData": "0x00000000000000000000000000000000000000000000000000000000000000100000000000000000000000000000000000000000000000000000000000000000",
                    "decodedMethod": {
                        "callParams": [
                            {
                                "name": "_pid",
                                "type": "uint256",
                                "value": "16"
                            },
                            {
                                "name": "_amount",
                                "type": "uint256",
                                "value": "0"
                            }
                        ],
                        "constructorArguments": "",
                        "name": "deposit",
                        "returnParams": [],
                        "signature": "deposit(uint256,uint256)"
                    },
                    "errorInfo": "execution reverted",
                    "fromAddress": "0x533af9d886d6d728af1c124fd41ade9a23a3f3bf",
                    "gasUsed": 165871,
                    "id": 0,
                    "methodDecoded": true,
                    "operation": "CALL",
                    "output": "",
                    "revert": true,
                    "revertMessage": "",
                    "selector": "0xe2bbb158",
                    "status": false,
                    "value": "0"
                },
                "nodeType": 0
            },
            "1": {
                "invocation": {
                    "address": "0xf6badfb9b0ab2f8f3fd8225ef1ea12fa689ad1a7",
                    "callData": "0x00000000000000000000000094235659cf8b805b2c658f9ea2d6d6ddbb17c8d7",
                    "decodedMethod": {
                        "callParams": [
                            {
                                "name": "",
                                "type": "address",
                                "value": "0x94235659cf8b805b2c658f9ea2d6d6ddbb17c8d7"
                            }
                        ],
                        "constructorArguments": "",
                        "name": "balanceOf",
                        "returnParams": [
                            {
                                "decimalAvailable": true,
                                "name": "",
                                "type": "uint256",
                                "value": "175,099,227,019,353,286,324,927"
                            }
                        ],
                        "signature": "balanceOf(address)"
                    },
                    "errorInfo": "",
                    "fromAddress": "0x94235659cf8b805b2c658f9ea2d6d6ddbb17c8d7",
                    "gasUsed": 2535,
                    "id": 1,
                    "methodDecoded": true,
                    "operation": "STATICCALL",
                    "output": "0x00000000000000000000000000000000000000000000251425eafaa310d132bf",
                    "revert": true,
                    "revertMessage": "",
                    "selector": "0x70a08231",
                    "status": true,
                    "value": "0"
                },
                "nodeType": 0
            },
            "10": {
                "invocation": {
                    "address": "0x9813037ee2218799597d83d4a5b6f3b6778218d9",
                    "callData": "0x00000000000000000000000094235659cf8b805b2c658f9ea2d6d6ddbb17c8d70000000000000000000000000000000000000000000000064b9d338f8bd08421",
                    "decodedMethod": {
                        "callParams": [
                            {
                                "name": "_to",
                                "type": "address",
                                "value": "0x94235659cf8b805b2c658f9ea2d6d6ddbb17c8d7"
                            },
                            {
                                "name": "_amount",
                                "type": "uint256",
                                "value": "116,129,032,258,064,516,129"
                            }
                        ],
                        "constructorArguments": "",
                        "name": "mint",
                        "returnParams": [],
                        "signature": "mint(address,uint256)"
                    },
                    "errorInfo": "",
                    "fromAddress": "0x94235659cf8b805b2c658f9ea2d6d6ddbb17c8d7",
                    "gasUsed": 10343,
                    "id": 10,
                    "methodDecoded": true,
                    "operation": "CALL",
                    "output": "",
                    "revert": true,
                    "revertMessage": "",
                    "selector": "0x40c10f19",
                    "status": true,
                    "value": "0"
                },
                "nodeType": 0
            },
            "11": {
                "event": {
                    "contract": "0x9813037ee2218799597d83d4a5b6f3b6778218d9",
                    "decodedLog": {
                        "name": "Transfer",
                        "params": [
                            {
                                "name": "from",
                                "type": "address",
                                "value": "0x0000000000000000000000000000000000000000"
                            },
                            {
                                "name": "to",
                                "type": "address",
                                "value": "0x94235659cf8b805b2c658f9ea2d6d6ddbb17c8d7"
                            },
                            {
                                "decimalAvailable": true,
                                "name": "value",
                                "type": "uint256",
                                "value": "116,129,032,258,064,516,129"
                            }
                        ],
                        "signature": "Transfer(address,address,uint256)"
                    },
                    "id": 11,
                    "logData": "0x0000000000000000000000000000000000000000000000064b9d338f8bd08421",
                    "logDecoded": true,
                    "operation": "EVENT",
                    "revert": true,
                    "status": false,
                    "topics": [
                        "0xddf252ad1be2c89b69c2b068fc378daa952ba7f163c4a11628f55a4df523b3ef",
                        "0x0000000000000000000000000000000000000000000000000000000000000000",
                        "0x00000000000000000000000094235659cf8b805b2c658f9ea2d6d6ddbb17c8d7"
                    ]
                },
                "nodeType": 1
            },
            "12": {
                "invocation": {
                    "address": "0x9813037ee2218799597d83d4a5b6f3b6778218d9",
                    "callData": "0x00000000000000000000000094235659cf8b805b2c658f9ea2d6d6ddbb17c8d7",
                    "decodedMethod": {
                        "callParams": [
                            {
                                "name": "account",
                                "type": "address",
                                "value": "0x94235659cf8b805b2c658f9ea2d6d6ddbb17c8d7"
                            }
                        ],
                        "constructorArguments": "",
                        "name": "balanceOf",
                        "returnParams": [
                            {
                                "decimalAvailable": true,
                                "name": "",
                                "type": "uint256",
                                "value": "5,221,028,658,427,702,603,220,980"
                            }
                        ],
                        "signature": "balanceOf(address)"
                    },
                    "errorInfo": "",
                    "fromAddress": "0x94235659cf8b805b2c658f9ea2d6d6ddbb17c8d7",
                    "gasUsed": 534,
                    "id": 12,
                    "methodDecoded": true,
                    "operation": "STATICCALL",
                    "output": "0x00000000000000000000000000000000000000000004519887dc349d700107f4",
                    "revert": true,
                    "revertMessage": "",
                    "selector": "0x70a08231",
                    "status": true,
                    "value": "0"
                },
                "nodeType": 0
            },
            "13": {
                "invocation": {
                    "address": "0x9813037ee2218799597d83d4a5b6f3b6778218d9",
                    "callData": "0x000000000000000000000000533af9d886d6d728af1c124fd41ade9a23a3f3bf00000000000000000000000000000000000000000000000378954d00e688c255",
                    "decodedMethod": {
                        "callParams": [
                            {
                                "name": "recipient",
                                "type": "address",
                                "value": "0x533af9d886d6d728af1c124fd41ade9a23a3f3bf"
                            },
                            {
                                "decimalAvailable": true,
                                "name": "amount",
                                "type": "uint256",
                                "value": "64,029,167,943,472,955,989"
                            }
                        ],
                        "constructorArguments": "",
                        "name": "transfer",
                        "returnParams": [],
                        "signature": "transfer(address,uint256)"
                    },
                    "errorInfo": "out of gas",
                    "fromAddress": "0x94235659cf8b805b2c658f9ea2d6d6ddbb17c8d7",
                    "gasUsed": 12862,
                    "id": 13,
                    "methodDecoded": true,
                    "operation": "CALL",
                    "output": "",
                    "revert": true,
                    "revertMessage": "",
                    "selector": "0xa9059cbb",
                    "status": false,
                    "value": "0"
                },
                "nodeType": 0
            },
            "2": {
                "invocation": {
                    "address": "0x9813037ee2218799597d83d4a5b6f3b6778218d9",
                    "callData": "0x00000000000000000000000044c652d679d99bb406167de9651d2535850fb479000000000000000000000000000000000000000000000000a12951f4c12e739c",
                    "decodedMethod": {
                        "callParams": [
                            {
                                "name": "_to",
                                "type": "address",
                                "value": "0x44c652d679d99bb406167de9651d2535850fb479"
                            },
                            {
                                "name": "_amount",
                                "type": "uint256",
                                "value": "11,612,903,225,806,451,612"
                            }
                        ],
                        "constructorArguments": "",
                        "name": "mint",
                        "returnParams": [],
                        "signature": "mint(address,uint256)"
                    },
                    "errorInfo": "",
                    "fromAddress": "0x94235659cf8b805b2c658f9ea2d6d6ddbb17c8d7",
                    "gasUsed": 17143,
                    "id": 2,
                    "methodDecoded": true,
                    "operation": "CALL",
                    "output": "",
                    "revert": true,
                    "revertMessage": "",
                    "selector": "0x40c10f19",
                    "status": true,
                    "value": "0"
                },
                "nodeType": 0
            },
            "3": {
                "event": {
                    "contract": "0x9813037ee2218799597d83d4a5b6f3b6778218d9",
                    "decodedLog": {
                        "name": "Transfer",
                        "params": [
                            {
                                "name": "from",
                                "type": "address",
                                "value": "0x0000000000000000000000000000000000000000"
                            },
                            {
                                "name": "to",
                                "type": "address",
                                "value": "0x44c652d679d99bb406167de9651d2535850fb479"
                            },
                            {
                                "decimalAvailable": true,
                                "name": "value",
                                "type": "uint256",
                                "value": "11,612,903,225,806,451,612"
                            }
                        ],
                        "signature": "Transfer(address,address,uint256)"
                    },
                    "id": 3,
                    "logData": "0x000000000000000000000000000000000000000000000000a12951f4c12e739c",
                    "logDecoded": true,
                    "operation": "EVENT",
                    "revert": true,
                    "status": false,
                    "topics": [
                        "0xddf252ad1be2c89b69c2b068fc378daa952ba7f163c4a11628f55a4df523b3ef",
                        "0x0000000000000000000000000000000000000000000000000000000000000000",
                        "0x00000000000000000000000044c652d679d99bb406167de9651d2535850fb479"
                    ]
                },
                "nodeType": 1
            },
            "4": {
                "invocation": {
                    "address": "0x9813037ee2218799597d83d4a5b6f3b6778218d9",
                    "callData": "0x00000000000000000000000034ad2d8a212cb7d6909d9b523bb5847aa236cb25000000000000000000000000000000000000000000000000101dbb654684a529",
                    "decodedMethod": {
                        "callParams": [
                            {
                                "name": "_to",
                                "type": "address",
                                "value": "0x34ad2d8a212cb7d6909d9b523bb5847aa236cb25"
                            },
                            {
                                "name": "_amount",
                                "type": "uint256",
                                "value": "1,161,290,322,580,645,161"
                            }
                        ],
                        "constructorArguments": "",
                        "name": "mint",
                        "returnParams": [],
                        "signature": "mint(address,uint256)"
                    },
                    "errorInfo": "",
                    "fromAddress": "0x94235659cf8b805b2c658f9ea2d6d6ddbb17c8d7",
                    "gasUsed": 10343,
                    "id": 4,
                    "methodDecoded": true,
                    "operation": "CALL",
                    "output": "",
                    "revert": true,
                    "revertMessage": "",
                    "selector": "0x40c10f19",
                    "status": true,
                    "value": "0"
                },
                "nodeType": 0
            },
            "5": {
                "event": {
                    "contract": "0x9813037ee2218799597d83d4a5b6f3b6778218d9",
                    "decodedLog": {
                        "name": "Transfer",
                        "params": [
                            {
                                "name": "from",
                                "type": "address",
                                "value": "0x0000000000000000000000000000000000000000"
                            },
                            {
                                "name": "to",
                                "type": "address",
                                "value": "0x34ad2d8a212cb7d6909d9b523bb5847aa236cb25"
                            },
                            {
                                "decimalAvailable": true,
                                "name": "value",
                                "type": "uint256",
                                "value": "1,161,290,322,580,645,161"
                            }
                        ],
                        "signature": "Transfer(address,address,uint256)"
                    },
                    "id": 5,
                    "logData": "0x000000000000000000000000000000000000000000000000101dbb654684a529",
                    "logDecoded": true,
                    "operation": "EVENT",
                    "revert": true,
                    "status": false,
                    "topics": [
                        "0xddf252ad1be2c89b69c2b068fc378daa952ba7f163c4a11628f55a4df523b3ef",
                        "0x0000000000000000000000000000000000000000000000000000000000000000",
                        "0x00000000000000000000000034ad2d8a212cb7d6909d9b523bb5847aa236cb25"
                    ]
                },
                "nodeType": 1
            },
            "6": {
                "invocation": {
                    "address": "0x9813037ee2218799597d83d4a5b6f3b6778218d9",
                    "callData": "0x000000000000000000000000526684cde5e9ed50703469e1e21e388ad084e0f80000000000000000000000000000000000000000000000003059322fd38def7b",
                    "decodedMethod": {
                        "callParams": [
                            {
                                "name": "_to",
                                "type": "address",
                                "value": "0x526684cde5e9ed50703469e1e21e388ad084e0f8"
                            },
                            {
                                "name": "_amount",
                                "type": "uint256",
                                "value": "3,483,870,967,741,935,483"
                            }
                        ],
                        "constructorArguments": "",
                        "name": "mint",
                        "returnParams": [],
                        "signature": "mint(address,uint256)"
                    },
                    "errorInfo": "",
                    "fromAddress": "0x94235659cf8b805b2c658f9ea2d6d6ddbb17c8d7",
                    "gasUsed": 10343,
                    "id": 6,
                    "methodDecoded": true,
                    "operation": "CALL",
                    "output": "",
                    "revert": true,
                    "revertMessage": "",
                    "selector": "0x40c10f19",
                    "status": true,
                    "value": "0"
                },
                "nodeType": 0
            },
            "7": {
                "event": {
                    "contract": "0x9813037ee2218799597d83d4a5b6f3b6778218d9",
                    "decodedLog": {
                        "name": "Transfer",
                        "params": [
                            {
                                "name": "from",
                                "type": "address",
                                "value": "0x0000000000000000000000000000000000000000"
                            },
                            {
                                "name": "to",
                                "type": "address",
                                "value": "0x526684cde5e9ed50703469e1e21e388ad084e0f8"
                            },
                            {
                                "decimalAvailable": true,
                                "name": "value",
                                "type": "uint256",
                                "value": "3,483,870,967,741,935,483"
                            }
                        ],
                        "signature": "Transfer(address,address,uint256)"
                    },
                    "id": 7,
                    "logData": "0x0000000000000000000000000000000000000000000000003059322fd38def7b",
                    "logDecoded": true,
                    "operation": "EVENT",
                    "revert": true,
                    "status": false,
                    "topics": [
                        "0xddf252ad1be2c89b69c2b068fc378daa952ba7f163c4a11628f55a4df523b3ef",
                        "0x0000000000000000000000000000000000000000000000000000000000000000",
                        "0x000000000000000000000000526684cde5e9ed50703469e1e21e388ad084e0f8"
                    ]
                },
                "nodeType": 1
            },
            "8": {
                "invocation": {
                    "address": "0x9813037ee2218799597d83d4a5b6f3b6778218d9",
                    "callData": "0x00000000000000000000000068d494e06f70d1dd13f9faacd122799d4044412b000000000000000000000000000000000000000000000000101dbb654684a529",
                    "decodedMethod": {
                        "callParams": [
                            {
                                "name": "_to",
                                "type": "address",
                                "value": "0x68d494e06f70d1dd13f9faacd122799d4044412b"
                            },
                            {
                                "name": "_amount",
                                "type": "uint256",
                                "value": "1,161,290,322,580,645,161"
                            }
                        ],
                        "constructorArguments": "",
                        "name": "mint",
                        "returnParams": [],
                        "signature": "mint(address,uint256)"
                    },
                    "errorInfo": "",
                    "fromAddress": "0x94235659cf8b805b2c658f9ea2d6d6ddbb17c8d7",
                    "gasUsed": 10343,
                    "id": 8,
                    "methodDecoded": true,
                    "operation": "CALL",
                    "output": "",
                    "revert": true,
                    "revertMessage": "",
                    "selector": "0x40c10f19",
                    "status": true,
                    "value": "0"
                },
                "nodeType": 0
            },
            "9": {
                "event": {
                    "contract": "0x9813037ee2218799597d83d4a5b6f3b6778218d9",
                    "decodedLog": {
                        "name": "Transfer",
                        "params": [
                            {
                                "name": "from",
                                "type": "address",
                                "value": "0x0000000000000000000000000000000000000000"
                            },
                            {
                                "name": "to",
                                "type": "address",
                                "value": "0x68d494e06f70d1dd13f9faacd122799d4044412b"
                            },
                            {
                                "decimalAvailable": true,
                                "name": "value",
                                "type": "uint256",
                                "value": "1,161,290,322,580,645,161"
                            }
                        ],
                        "signature": "Transfer(address,address,uint256)"
                    },
                    "id": 9,
                    "logData": "0x000000000000000000000000000000000000000000000000101dbb654684a529",
                    "logDecoded": true,
                    "operation": "EVENT",
                    "revert": true,
                    "status": false,
                    "topics": [
                        "0xddf252ad1be2c89b69c2b068fc378daa952ba7f163c4a11628f55a4df523b3ef",
                        "0x0000000000000000000000000000000000000000000000000000000000000000",
                        "0x00000000000000000000000068d494e06f70d1dd13f9faacd122799d4044412b"
                    ]
                },
                "nodeType": 1
            }
        },
        "gasFlame": [
            {
                "children": [
                    {
                        "children": [
                            {
                                "children": [],
                                "depth": 0,
                                "name": "Initial Gas",
                                "value": 21332
                            },
                            {
                                "children": [
                                    {
                                        "children": [],
                                        "depth": 1,
                                        "name": "balanceOf",
                                        "value": 2535
                                    },
                                    {
                                        "children": [],
                                        "depth": 1,
                                        "name": "mint",
                                        "value": 17143
                                    },
                                    {
                                        "children": [],
                                        "depth": 1,
                                        "name": "mint",
                                        "value": 10343
                                    },
                                    {
                                        "children": [],
                                        "depth": 1,
                                        "name": "mint",
                                        "value": 10343
                                    },
                                    {
                                        "children": [],
                                        "depth": 1,
                                        "name": "mint",
                                        "value": 10343
                                    },
                                    {
                                        "children": [],
                                        "depth": 1,
                                        "name": "mint",
                                        "value": 10343
                                    },
                                    {
                                        "children": [],
                                        "depth": 1,
                                        "name": "balanceOf",
                                        "value": 534
                                    },
                                    {
                                        "children": [],
                                        "depth": 1,
                                        "name": "transfer",
                                        "value": 12862
                                    }
                                ],
                                "depth": 0,
                                "name": "Executed Gas",
                                "value": 144539
                            }
                        ],
                        "depth": -1,
                        "name": "Actual Gas Used",
                        "value": 165871
                    },
                    {
                        "children": [],
                        "depth": -1,
                        "name": "Refunded Gas",
                        "value": 0
                    }
                ],
                "depth": -2,
                "name": "Total Gas",
                "value": 165871
            }
        ],
        "isConfirmed": true,
        "mainTrace": [
            {
                "children": [
                    {
                        "children": [
                            {
                                "children": [],
                                "depth": 1,
                                "id": 1,
                                "order": 1
                            },
                            {
                                "children": [
                                    {
                                        "children": [],
                                        "depth": 2,
                                        "id": 3,
                                        "order": 3
                                    }
                                ],
                                "depth": 1,
                                "id": 2,
                                "order": 2
                            },
                            {
                                "children": [
                                    {
                                        "children": [],
                                        "depth": 2,
                                        "id": 5,
                                        "order": 5
                                    }
                                ],
                                "depth": 1,
                                "id": 4,
                                "order": 4
                            },
                            {
                                "children": [
                                    {
                                        "children": [],
                                        "depth": 2,
                                        "id": 7,
                                        "order": 7
                                    }
                                ],
                                "depth": 1,
                                "id": 6,
                                "order": 6
                            },
                            {
                                "children": [
                                    {
                                        "children": [],
                                        "depth": 2,
                                        "id": 9,
                                        "order": 9
                                    }
                                ],
                                "depth": 1,
                                "id": 8,
                                "order": 8
                            },
                            {
                                "children": [
                                    {
                                        "children": [],
                                        "depth": 2,
                                        "id": 11,
                                        "order": 11
                                    }
                                ],
                                "depth": 1,
                                "id": 10,
                                "order": 10
                            },
                            {
                                "children": [],
                                "depth": 1,
                                "id": 12,
                                "order": 12
                            },
                            {
                                "children": [],
                                "depth": 1,
                                "id": 13,
                                "order": 13
                            }
                        ],
                        "depth": 0,
                        "id": 0,
                        "order": 0
                    }
                ],
                "depth": -1,
                "id": -1,
                "order": -1
            }
        ],
        "mainTraceNodeCount": 14,
        "parentIdMap": {
            "0": -1,
            "1": 0,
            "10": 0,
            "11": 10,
            "12": 0,
            "13": 0,
            "2": 0,
            "3": 2,
            "4": 0,
            "5": 4,
            "6": 0,
            "7": 6,
            "8": 0,
            "9": 8
        },
        "tidyTrace": [
            {
                "children": [
                    {
                        "children": [
                            {
                                "children": [
                                    {
                                        "children": [],
                                        "depth": 2,
                                        "id": 3,
                                        "order": 3
                                    }
                                ],
                                "depth": 1,
                                "id": 2,
                                "order": 2
                            },
                            {
                                "children": [
                                    {
                                        "children": [],
                                        "depth": 2,
                                        "id": 5,
                                        "order": 5
                                    }
                                ],
                                "depth": 1,
                                "id": 4,
                                "order": 4
                            },
                            {
                                "children": [
                                    {
                                        "children": [],
                                        "depth": 2,
                                        "id": 7,
                                        "order": 7
                                    }
                                ],
                                "depth": 1,
                                "id": 6,
                                "order": 6
                            },
                            {
                                "children": [
                                    {
                                        "children": [],
                                        "depth": 2,
                                        "id": 9,
                                        "order": 9
                                    }
                                ],
                                "depth": 1,
                                "id": 8,
                                "order": 8
                            },
                            {
                                "children": [
                                    {
                                        "children": [],
                                        "depth": 2,
                                        "id": 11,
                                        "order": 11
                                    }
                                ],
                                "depth": 1,
                                "id": 10,
                                "order": 10
                            },
                            {
                                "children": [],
                                "depth": 1,
                                "id": 13,
                                "order": 13
                            }
                        ],
                        "depth": 0,
                        "id": 0,
                        "order": 0
                    }
                ],
                "depth": -1,
                "id": -1,
                "order": -1
            }
        ],
        "tidyTraceNodeCount": 12
    },
    "state_change": {
        "stateChanges": []
    }
}