{
    "balance_change": {
        "balanceChanges": [
            {
                "account": "0x728ef2c00d9e3535b7b7dec0851e4b125d4918f8",
                "assets": [
                    {
                        "address": "0x58b6a8a3302369daec383334672404ee733ab239",
                        "amount": "2.140832",
                        "iconUrl": "https://assets.blocksec.com/icon/732387d21af82c0f5932849582211e4d00c69c14ec3316a4b5b817f9a5fb46c4.png",
                        "isERC1155": false,
                        "isERC721": false,
                        "sign": false,
                        "value": "38.51305143"
                    }
                ]
            },
            {
                "account": "0xb9ee1e551f538a464e8f8c41e9904498505b49b0",
                "assets": [
                    {
                        "address": "0x58b6a8a3302369daec383334672404ee733ab239",
                        "amount": "2.140832",
                        "iconUrl": "https://assets.blocksec.com/icon/732387d21af82c0f5932849582211e4d00c69c14ec3316a4b5b817f9a5fb46c4.png",
                        "isERC1155": false,
                        "isERC721": false,
                        "sign": true,
                        "value": "38.51305143"
                    }
                ]
            }
        ]
    },
    "profile": {
        "basic_info": {
            "baseFee": "",
            "blockNumber": 12922735,
            "callData": "0xa9059cbb000000000000000000000000b9ee1e551f538a464e8f8c41e9904498505b49b00000000000000000000000000000000000000000000000001db5c35c83ca0000",
            "debugEnable": true,
            "errorInfo": "",
            "eventCount": 1,
            "feeRecipient": "0xea674fdde714fd979de3edf0f56aa9716b898ec8",
            "formatValue": "0",
            "gasLimit": 70000,
            "gasPrice": "24",
            "gasUsed": 20097,
            "intTxnCount": 0,
            "internalRevert": false,
            "internalRevertMessage": "",
            "isContractCreation": false,
            "isFlashloan": false,
            "maxFee": "",
            "nonce": 85,
            "overwritedBlockNumber": -1,
            "priorityFee": "",
            "receiver": "0x58b6a8a3302369daec383334672404ee733ab239",
            "revertMessage": "",
            "sender": "0x728ef2c00d9e3535b7b7dec0851e4b125d4918f8",
            "simulationEnable": true,
            "sourceTxnHash": "0xa40428efdbe8554a7ba24f0ab11ac40e642b4ca522f18e38719475a8ba83948d",
            "status": true,
            "timestamp": "2021-07-29T20:12:21Z",
            "transactionFee": "0.000482328",
            "txnHash": "0xa40428efdbe8554a7ba24f0ab11ac40e642b4ca522f18e38719475a8ba83948d",
            "txnIndex": 114,
            "type": 0,
            "value": "0"
        },
        "fund_flow": [
            {
                "amount": "2.140832",
                "from": "0x728ef2c00d9e3535b7b7dec0851e4b125d4918f8",
                "id": 1,
                "isERC1155": false,
                "isERC721": false,
                "isReverted": false,
                "order": 1,
                "to": "0xb9ee1e551f538a464e8f8c41e9904498505b49b0",
                "token": "0x58b6a8a3302369daec383334672404ee733ab239"
            }
        ],
        "token_infos": [
            {
                "address": "0xeeeeeeeeeeeeeeeeeeeeeeeeeeeeeeeeeeeeeeee",
                "decimals": 18
            },
            {
                "address": "0x58b6a8a3302369daec383334672404ee733ab239",
                "decimals": 18
            },
            {
                "address": "0xc02aaa39b223fe8d0a0e5c4f27ead9083c756cc2",
                "decimals": 18
            }
        ]
    },
    "address_label": {
        "labels": [
            {
                "address": "0x0000000000000000000000000000000000000004",
                "label": "Precompiled"
            },
            {
                "address": "0xeeeeeeeeeeeeeeeeeeeeeeeeeeeeeeeeeeeeeeee",
                "label": "Ether"
            },
            {
                "address": "0x728ef2c00d9e3535b7b7dec0851e4b125d4918f8",
                "label": "COINEX"
            },
            {
                "address": "0x58b6a8a3302369daec383334672404ee733ab239",
                "label": "Livepeer: LPT Token"
            },
            {
                "address": "0xb9ee1e551f538a464e8f8c41e9904498505b49b0",
                "label": "Coinex"
            },
            {
                "address": "0x0000000000000000000000000000000000000001",
                "label": "Precompiled"
            },
            {
                "address": "0x0000000000000000000000000000000000000002",
                "label": "Precompiled"
            },
            {
                "address": "0x0000000000000000000000000000000000000003",
                "label": "Precompiled"
            }
        ]
    },
    "trace": {
        "accountLabels": null,
        "dataMap": {
            "-1": {
                "invocation": {
                    "address": "0x728ef2c00d9e3535b7b7dec0851e4b125d4918f8",
                    "callData": "",
                    "decodedMethod": null,
                    "errorInfo": "",
                    "fromAddress": "",
                    "gasUsed": 0,
                    "id": -1,
                    "methodDecoded": false,
                    "operation": "",
                    "output": "",
                    "revert": false,
                    "revertMessage": "",
                    "selector": "",
                    "status": false,
                    "value": ""
                },
                "nodeType": 0
            },
            "0": {
                "invocation": {
                    "address": "0x58b6a8a3302369daec383334672404ee733ab239",
                    "callData": "0x000000000000000000000000b9ee1e551f538a464e8f8c41e9904498505b49b00000000000000000000000000000000000000000000000001db5c35c83ca0000",
                    "decodedMethod": {
                        "callParams": [
                            {
                                "name": "_to",
                                "type": "address",
                                "value": "0xb9ee1e551f538a464e8f8c41e9904498505b49b0"
                            },
                            {
                                "decimalAvailable": true,
                                "name": "_value",
                                "type": "uint256",
                                "value": "2,140,832,000,000,000,000"
                            }
                        ],
                        "constructorArguments": "",
                        "name": "transfer",
                        "returnParams": [
                            {
                                "name": "",
                                "type": "bool",
                                "value": true
                            }
                        ],
                        "signature": "transfer(address,uint256)"
                    },
                    "errorInfo": "",
                    "fromAddress": "0x728ef2c00d9e3535b7b7dec0851e4b125d4918f8",
                    "gasUsed": 20097,
                    "id": 0,
                    "methodDecoded": true,
                    "operation": "CALL",
                    "output": "0x0000000000000000000000000000000000000000000000000000000000000001",
                    "revert": false,
                    "revertMessage": "",
                    "selector": "0xa9059cbb",
                    "status": true,
                    "value": "0"
                },
                "nodeType": 0
            },
            "1": {
                "event": {
                    "contract": "0x58b6a8a3302369daec383334672404ee733ab239",
                    "decodedLog": {
                        "name": "Transfer",
                        "params": [
                            {
                                "name": "from",
                                "type": "address",
                                "value": "0x728ef2c00d9e3535b7b7dec0851e4b125d4918f8"
                            },
                            {
                                "name": "to",
                                "type": "address",
                                "value": "0xb9ee1e551f538a464e8f8c41e9904498505b49b0"
                            },
                            {
                                "decimalAvailable": true,
                                "name": "value",
                                "type": "uint256",
                                "value": "2,140,832,000,000,000,000"
                            }
                        ],
                        "signature": "Transfer(address,address,uint256)"
                    },
                    "id": 1,
                    "logData": "0x0000000000000000000000000000000000000000000000001db5c35c83ca0000",
                    "logDecoded": true,
                    "operation": "EVENT",
                    "revert": false,
                    "status": true,
                    "topics": [
                        "0xddf252ad1be2c89b69c2b068fc378daa952ba7f163c4a11628f55a4df523b3ef",
                        "0x000000000000000000000000728ef2c00d9e3535b7b7dec0851e4b125d4918f8",
                        "0x000000000000000000000000b9ee1e551f538a464e8f8c41e9904498505b49b0"
                    ]
                },
                "nodeType": 1
            }
        },
        "gasFlame": [
            {
                "children": [
                    {
                        "children": [
                            {
                                "children": [],
                                "depth": 0,
                                "name": "Initial Gas",
                                "value": 21632
                            },
                            {
                                "children": [],
                                "depth": 0,
                                "name": "Executed Gas",
                                "value": 13465
                            }
                        ],
                        "depth": -1,
                        "name": "Actual Gas Used",
                        "value": 20097
                    },
                    {
                        "children": [],
                        "depth": -1,
                        "name": "Refunded Gas",
                        "value": 15000
                    }
                ],
                "depth": -2,
                "name": "Total Gas",
                "value": 35097
            }
        ],
        "isConfirmed": true,
        "mainTrace": [
            {
                "children": [
                    {
                        "children": [
                            {
                                "children": [],
                                "depth": 1,
                                "id": 1,
                                "order": 1
                            }
                        ],
                        "depth": 0,
                        "id": 0,
                        "order": 0
                    }
                ],
                "depth": -1,
                "id": -1,
                "order": -1
            }
        ],
        "mainTraceNodeCount": 2,
        "parentIdMap": {
            "0": -1,
            "1": 0
        },
        "tidyTrace": [
            {
                "children": [
                    {
                        "children": [
                            {
                                "children": [],
                                "depth": 1,
                                "id": 1,
                                "order": 1
                            }
                        ],
                        "depth": 0,
                        "id": 0,
                        "order": 0
                    }
                ],
                "depth": -1,
                "id": -1,
                "order": -1
            }
        ],
        "tidyTraceNodeCount": 2
    },
    "state_change": {
        "stateChanges": [
            {
                "address": "0x58b6a8a3302369daec383334672404ee733ab239",
                "erc": "ERC-20",
                "slots": [
                    {
                        "current": "0x0000000000000000000000000000000000000000000000000000000000000000",
                        "key": "0x83f1e8726d6d546f7a551c981d803c4e7fc4bc1e23e9a231b4fd2ad212f8f16c",
                        "prev": "0x0000000000000000000000000000000000000000000000001db5c35c83ca0000"
                    },
                    {
                        "current": "0x0000000000000000000000000000000000000000000000225321ac94a950b000",
                        "key": "0x994cc42ed8b4780720947c5ffca693a715c5fc36b6bc71dd3dea29e1bda87ef5",
                        "prev": "0x000000000000000000000000000000000000000000000022356be9382586b000"
                    }
                ],
                "storageVariables": [
                    {
                        "name": "balances",
                        "type": "mapping(address => uint256)",
                        "value": {
                            "pairs": [
                                {
                                    "key": "0x728ef2c00d9e3535b7b7dec0851e4b125d4918f8",
                                    "value": {
                                        "current": "0",
                                        "prev": "2140832000000000000",
                                        "typeTag": 1
                                    }
                                },
                                {
                                    "key": "0xb9ee1e551f538a464e8f8c41e9904498505b49b0",
                                    "value": {
                                        "current": "633179557240000000000",
                                        "prev": "631038725240000000000",
                                        "typeTag": 1
                                    }
                                }
                            ],
                            "typeTag": 4
                        }
                    }
                ]
            }
        ]
    }
}