{
    "balance_change": {
        "balanceChanges": [
            {
                "account": "0x0000000000000000000000000000000000000000",
                "assets": [
                    {
                        "address": "0xa47c8bf37f92abed4a126bda807a7b7498661acd",
                        "amount": "4",
                        "iconUrl": "",
                        "isERC1155": false,
                        "isERC721": false,
                        "sign": false,
                        "value": "4.16862681"
                    }
                ]
            },
            {
                "account": "0x59f7f728845ccef96151bff5873aa98d6bef6aec",
                "assets": [
                    {
                        "address": "0xa47c8bf37f92abed4a126bda807a7b7498661acd",
                        "amount": "4",
                        "iconUrl": "",
                        "isERC1155": false,
                        "isERC721": false,
                        "sign": true,
                        "value": "4.16862681"
                    }
                ]
            }
        ]
    },
    "profile": {
        "basic_info": {
            "baseFee": "131.283882173",
            "blockNumber": 13600775,
            "callData": "0xedeb09c7000000000000000000000000a47c8bf37f92abed4a126bda807a7b7498661acd00000000000000000000000059f7f728845ccef96151bff5873aa98d6bef6aec0000000000000000000000000000000000000000000000003782dace9d900000b2b2e980fc0280e601dd2546e44200a4bcf0ff160d88404778c8c4c2cfa8d5bd00000000000000000000000000000000000000000000000000000000000000a00000000000000000000000000000000000000000000000000000000000000002000000000000000000000000000000000000000000000000000000000000004000000000000000000000000000000000000000000000000000000000000000c00000000000000000000000000000000000000000000000000000000000000041f88bc4217d7c2ea712b3eb1482ca7b7c290d0df48e64cf49ef5a370617b9566d63c61665730ea7179748c556c8e98fc52d5ad3066e75f1838a978f1cd95349081b0000000000000000000000000000000000000000000000000000000000000000000000000000000000000000000000000000000000000000000000000000415d805cc4bcf1a44d87a5fa155350b318aa40ce9222d2095d65dded0449f845881c8281f377baa27a4075251a1c051ff9697520524ae2f1705d9cfabf17ca8f5b1c00000000000000000000000000000000000000000000000000000000000000",
            "debugEnable": true,
            "errorInfo": "",
            "eventCount": 1,
            "feeRecipient": "0x829bd824b016326a401d083b33d092293333a830",
            "formatValue": "0",
            "gasLimit": 200000,
            "gasPrice": "185.279479189",
            "gasUsed": 85320,
            "intTxnCount": 3,
            "internalRevert": false,
            "internalRevertMessage": "",
            "isContractCreation": false,
            "isFlashloan": false,
            "maxFee": "",
            "nonce": 82838,
            "overwritedBlockNumber": -1,
            "priorityFee": "",
            "receiver": "0x9123077acafb3d743c68418304b2a11566cc1175",
            "revertMessage": "",
            "sender": "0xc6821958f8d73ad0819502c35e383db8d3077ea2",
            "simulationEnable": true,
            "sourceTxnHash": "0xa4dbb6abb5202112248e36888997e2c2cdbee67dede864bd7cdda54e5a9861cf",
            "status": true,
            "timestamp": "2021-11-12T10:25:53Z",
            "transactionFee": "0.01580804516440548",
            "txnHash": "0xa4dbb6abb5202112248e36888997e2c2cdbee67dede864bd7cdda54e5a9861cf",
            "txnIndex": 22,
            "type": 0,
            "value": "0"
        },
        "fund_flow": [
            {
                "amount": "4",
                "from": "0x0000000000000000000000000000000000000000",
                "id": 1,
                "isERC1155": false,
                "isERC721": false,
                "isReverted": false,
                "order": 1,
                "to": "0x59f7f728845ccef96151bff5873aa98d6bef6aec",
                "token": "0xa47c8bf37f92abed4a126bda807a7b7498661acd"
            }
        ],
        "token_infos": [
            {
                "address": "0xa47c8bf37f92abed4a126bda807a7b7498661acd",
                "decimals": 18
            },
            {
                "address": "0xc02aaa39b223fe8d0a0e5c4f27ead9083c756cc2",
                "decimals": 18
            },
            {
                "address": "0xeeeeeeeeeeeeeeeeeeeeeeeeeeeeeeeeeeeeeeee",
                "decimals": 18
            }
        ]
    },
    "address_label": {
        "labels": [
            {
                "address": "0x0000000000000000000000000000000000000003",
                "label": "Precompiled"
            },
            {
                "address": "0x0000000000000000000000000000000000000004",
                "label": "Precompiled"
            },
            {
                "address": "0xeeeeeeeeeeeeeeeeeeeeeeeeeeeeeeeeeeeeeeee",
                "label": "Ether"
            },
            {
                "address": "0xc6821958f8d73ad0819502c35e383db8d3077ea2",
                "label": "Terra: Deployer"
            },
            {
                "address": "0xa47c8bf37f92abed4a126bda807a7b7498661acd",
                "label": "Terra: USTC Token"
            },
            {
                "address": "0x9123077acafb3d743c68418304b2a11566cc1175",
                "label": "Mirror Protocol: Minter"
            },
            {
                "address": "0x0000000000000000000000000000000000000001",
                "label": "Precompiled"
            },
            {
                "address": "0x0000000000000000000000000000000000000002",
                "label": "Precompiled"
            }
        ]
    },
    "trace": {
        "accountLabels": null,
        "dataMap": {
            "-1": {
                "invocation": {
                    "address": "0xc6821958f8d73ad0819502c35e383db8d3077ea2",
                    "callData": "",
                    "decodedMethod": null,
                    "errorInfo": "",
                    "fromAddress": "",
                    "gasUsed": 0,
                    "id": -1,
                    "methodDecoded": false,
                    "operation": "",
                    "output": "",
                    "revert": false,
                    "revertMessage": "",
                    "selector": "",
                    "status": false,
                    "value": ""
                },
                "nodeType": 0
            },
            "0": {
                "invocation": {
                    "address": "0x9123077acafb3d743c68418304b2a11566cc1175",
                    "callData": "0x000000000000000000000000a47c8bf37f92abed4a126bda807a7b7498661acd00000000000000000000000059f7f728845ccef96151bff5873aa98d6bef6aec0000000000000000000000000000000000000000000000003782dace9d900000b2b2e980fc0280e601dd2546e44200a4bcf0ff160d88404778c8c4c2cfa8d5bd00000000000000000000000000000000000000000000000000000000000000a00000000000000000000000000000000000000000000000000000000000000002000000000000000000000000000000000000000000000000000000000000004000000000000000000000000000000000000000000000000000000000000000c00000000000000000000000000000000000000000000000000000000000000041f88bc4217d7c2ea712b3eb1482ca7b7c290d0df48e64cf49ef5a370617b9566d63c61665730ea7179748c556c8e98fc52d5ad3066e75f1838a978f1cd95349081b0000000000000000000000000000000000000000000000000000000000000000000000000000000000000000000000000000000000000000000000000000415d805cc4bcf1a44d87a5fa155350b318aa40ce9222d2095d65dded0449f845881c8281f377baa27a4075251a1c051ff9697520524ae2f1705d9cfabf17ca8f5b1c00000000000000000000000000000000000000000000000000000000000000",
                    "decodedMethod": {
                        "callParams": [
                            {
                                "name": "_token",
                                "type": "address",
                                "value": "0xa47c8bf37f92abed4a126bda807a7b7498661acd"
                            },
                            {
                                "name": "_to",
                                "type": "address",
                                "value": "0x59f7f728845ccef96151bff5873aa98d6bef6aec"
                            },
                            {
                                "name": "_amount",
                                "type": "uint256",
                                "value": "4,000,000,000,000,000,000"
                            },
                            {
                                "name": "_txHash",
                                "type": "bytes32",
                                "value": "0xb2b2e980fc0280e601dd2546e44200a4bcf0ff160d88404778c8c4c2cfa8d5bd"
                            },
                            {
                                "name": "_signatures",
                                "type": "bytes[]",
                                "value": [
                                    "0xf88bc4217d7c2ea712b3eb1482ca7b7c290d0df48e64cf49ef5a370617b9566d63c61665730ea7179748c556c8e98fc52d5ad3066e75f1838a978f1cd95349081b",
                                    "0x5d805cc4bcf1a44d87a5fa155350b318aa40ce9222d2095d65dded0449f845881c8281f377baa27a4075251a1c051ff9697520524ae2f1705d9cfabf17ca8f5b1c"
                                ]
                            }
                        ],
                        "constructorArguments": "",
                        "name": "mint",
                        "returnParams": [],
                        "signature": "mint(address,address,uint256,bytes32,bytes[])"
                    },
                    "errorInfo": "",
                    "fromAddress": "0xc6821958f8d73ad0819502c35e383db8d3077ea2",
                    "gasUsed": 85320,
                    "id": 0,
                    "methodDecoded": true,
                    "operation": "CALL",
                    "output": "",
                    "revert": false,
                    "revertMessage": "",
                    "selector": "0xedeb09c7",
                    "status": true,
                    "value": "0"
                },
                "nodeType": 0
            },
            "1": {
                "invocation": {
                    "address": "0x0000000000000000000000000000000000000001",
                    "callData": "0x7b939760cc88fdc680a3c6aeef9350fe5eeed1c84deeb67632ae3061000000000000000000000000000000000000000000000000000000000000001bf88bc4217d7c2ea712b3eb1482ca7b7c290d0df48e64cf49ef5a370617b9566d63c61665730ea7179748c556c8e98fc52d5ad3066e75f1838a978f1cd9534908",
                    "decodedMethod": {
                        "callParams": [
                            {
                                "name": "hash",
                                "type": "bytes32",
                                "value": "0xcb42764d7b939760cc88fdc680a3c6aeef9350fe5eeed1c84deeb67632ae3061"
                            },
                            {
                                "name": "v",
                                "type": "uint256",
                                "value": "27"
                            },
                            {
                                "name": "r",
                                "type": "bytes32",
                                "value": "0xf88bc4217d7c2ea712b3eb1482ca7b7c290d0df48e64cf49ef5a370617b9566d"
                            },
                            {
                                "name": "s",
                                "type": "bytes32",
                                "value": "0x63c61665730ea7179748c556c8e98fc52d5ad3066e75f1838a978f1cd9534908"
                            }
                        ],
                        "constructorArguments": "",
                        "name": "ecrecover",
                        "returnParams": [
                            {
                                "name": "",
                                "type": "address",
                                "value": "0x1774c24da3f5bfbbcce4a3003ea590489ea438e8"
                            }
                        ],
                        "signature": "ecrecover(bytes32,uint256,bytes32,bytes32)"
                    },
                    "errorInfo": "",
                    "fromAddress": "0x9123077acafb3d743c68418304b2a11566cc1175",
                    "gasUsed": 3000,
                    "id": 1,
                    "methodDecoded": true,
                    "operation": "STATICCALL",
                    "output": "0x0000000000000000000000001774c24da3f5bfbbcce4a3003ea590489ea438e8",
                    "revert": false,
                    "revertMessage": "",
                    "selector": "0xcb42764d",
                    "status": true,
                    "value": "0"
                },
                "nodeType": 0
            },
            "2": {
                "invocation": {
                    "address": "0x0000000000000000000000000000000000000001",
                    "callData": "0x7b939760cc88fdc680a3c6aeef9350fe5eeed1c84deeb67632ae3061000000000000000000000000000000000000000000000000000000000000001c5d805cc4bcf1a44d87a5fa155350b318aa40ce9222d2095d65dded0449f845881c8281f377baa27a4075251a1c051ff9697520524ae2f1705d9cfabf17ca8f5b",
                    "decodedMethod": {
                        "callParams": [
                            {
                                "name": "hash",
                                "type": "bytes32",
                                "value": "0xcb42764d7b939760cc88fdc680a3c6aeef9350fe5eeed1c84deeb67632ae3061"
                            },
                            {
                                "name": "v",
                                "type": "uint256",
                                "value": "28"
                            },
                            {
                                "name": "r",
                                "type": "bytes32",
                                "value": "0x5d805cc4bcf1a44d87a5fa155350b318aa40ce9222d2095d65dded0449f84588"
                            },
                            {
                                "name": "s",
                                "type": "bytes32",
                                "value": "0x1c8281f377baa27a4075251a1c051ff9697520524ae2f1705d9cfabf17ca8f5b"
                            }
                        ],
                        "constructorArguments": "",
                        "name": "ecrecover",
                        "returnParams": [
                            {
                                "name": "",
                                "type": "address",
                                "value": "0xef118eae1df71229e69a34aabc4bb99bcd046ad9"
                            }
                        ],
                        "signature": "ecrecover(bytes32,uint256,bytes32,bytes32)"
                    },
                    "errorInfo": "",
                    "fromAddress": "0x9123077acafb3d743c68418304b2a11566cc1175",
                    "gasUsed": 3000,
                    "id": 2,
                    "methodDecoded": true,
                    "operation": "STATICCALL",
                    "output": "0x000000000000000000000000ef118eae1df71229e69a34aabc4bb99bcd046ad9",
                    "revert": false,
                    "revertMessage": "",
                    "selector": "0xcb42764d",
                    "status": true,
                    "value": "0"
                },
                "nodeType": 0
            },
            "3": {
                "invocation": {
                    "address": "0xa47c8bf37f92abed4a126bda807a7b7498661acd",
                    "callData": "0x00000000000000000000000059f7f728845ccef96151bff5873aa98d6bef6aec0000000000000000000000000000000000000000000000003782dace9d900000",
                    "decodedMethod": {
                        "callParams": [
                            {
                                "name": "account",
                                "type": "address",
                                "value": "0x59f7f728845ccef96151bff5873aa98d6bef6aec"
                            },
                            {
                                "name": "amount",
                                "type": "uint256",
                                "value": "4,000,000,000,000,000,000"
                            }
                        ],
                        "constructorArguments": "",
                        "name": "mint",
                        "returnParams": [],
                        "signature": "mint(address,uint256)"
                    },
                    "errorInfo": "",
                    "fromAddress": "0x9123077acafb3d743c68418304b2a11566cc1175",
                    "gasUsed": 32055,
                    "id": 3,
                    "methodDecoded": true,
                    "operation": "CALL",
                    "output": "",
                    "revert": false,
                    "revertMessage": "",
                    "selector": "0x40c10f19",
                    "status": true,
                    "value": "0"
                },
                "nodeType": 0
            },
            "4": {
                "event": {
                    "contract": "0xa47c8bf37f92abed4a126bda807a7b7498661acd",
                    "decodedLog": {
                        "name": "Transfer",
                        "params": [
                            {
                                "name": "from",
                                "type": "address",
                                "value": "0x0000000000000000000000000000000000000000"
                            },
                            {
                                "name": "to",
                                "type": "address",
                                "value": "0x59f7f728845ccef96151bff5873aa98d6bef6aec"
                            },
                            {
                                "decimalAvailable": true,
                                "name": "value",
                                "type": "uint256",
                                "value": "4,000,000,000,000,000,000"
                            }
                        ],
                        "signature": "Transfer(address,address,uint256)"
                    },
                    "id": 4,
                    "logData": "0x0000000000000000000000000000000000000000000000003782dace9d900000",
                    "logDecoded": true,
                    "operation": "EVENT",
                    "revert": false,
                    "status": true,
                    "topics": [
                        "0xddf252ad1be2c89b69c2b068fc378daa952ba7f163c4a11628f55a4df523b3ef",
                        "0x0000000000000000000000000000000000000000000000000000000000000000",
                        "0x00000000000000000000000059f7f728845ccef96151bff5873aa98d6bef6aec"
                    ]
                },
                "nodeType": 1
            }
        },
        "gasFlame": [
            {
                "children": [
                    {
                        "children": [
                            {
                                "children": [],
                                "depth": 0,
                                "name": "Initial Gas",
                                "value": 25668
                            },
                            {
                                "children": [
                                    {
                                        "children": [],
                                        "depth": 1,
                                        "name": "ecrecover",
                                        "value": 3000
                                    },
                                    {
                                        "children": [],
                                        "depth": 1,
                                        "name": "ecrecover",
                                        "value": 3000
                                    },
                                    {
                                        "children": [],
                                        "depth": 1,
                                        "name": "mint",
                                        "value": 32055
                                    }
                                ],
                                "depth": 0,
                                "name": "Executed Gas",
                                "value": 59652
                            }
                        ],
                        "depth": -1,
                        "name": "Actual Gas Used",
                        "value": 85320
                    },
                    {
                        "children": [],
                        "depth": -1,
                        "name": "Refunded Gas",
                        "value": 0
                    }
                ],
                "depth": -2,
                "name": "Total Gas",
                "value": 85320
            }
        ],
        "isConfirmed": true,
        "mainTrace": [
            {
                "children": [
                    {
                        "children": [
                            {
                                "children": [],
                                "depth": 1,
                                "id": 1,
                                "order": 1
                            },
                            {
                                "children": [],
                                "depth": 1,
                                "id": 2,
                                "order": 2
                            },
                            {
                                "children": [
                                    {
                                        "children": [],
                                        "depth": 2,
                                        "id": 4,
                                        "order": 4
                                    }
                                ],
                                "depth": 1,
                                "id": 3,
                                "order": 3
                            }
                        ],
                        "depth": 0,
                        "id": 0,
                        "order": 0
                    }
                ],
                "depth": -1,
                "id": -1,
                "order": -1
            }
        ],
        "mainTraceNodeCount": 5,
        "parentIdMap": {
            "0": -1,
            "1": 0,
            "2": 0,
            "3": 0,
            "4": 3
        },
        "tidyTrace": [
            {
                "children": [
                    {
                        "children": [
                            {
                                "children": [
                                    {
                                        "children": [],
                                        "depth": 2,
                                        "id": 4,
                                        "order": 4
                                    }
                                ],
                                "depth": 1,
                                "id": 3,
                                "order": 3
                            }
                        ],
                        "depth": 0,
                        "id": 0,
                        "order": 0
                    }
                ],
                "depth": -1,
                "id": -1,
                "order": -1
            }
        ],
        "tidyTraceNodeCount": 3
    },
    "state_change": {
        "stateChanges": [
            {
                "address": "0x9123077acafb3d743c68418304b2a11566cc1175",
                "erc": "",
                "slots": [
                    {
                        "current": "0x000000000000000000000000000000000000000000000000000000000000e01e",
                        "key": "0x0000000000000000000000000000000000000000000000000000000000000003",
                        "prev": "0x000000000000000000000000000000000000000000000000000000000000e01d"
                    }
                ],
                "storageVariables": [
                    {
                        "name": "nonce",
                        "type": "uint256",
                        "value": {
                            "current": "57374",
                            "prev": "57373",
                            "typeTag": 1
                        }
                    }
                ]
            },
            {
                "address": "0xa47c8bf37f92abed4a126bda807a7b7498661acd",
                "erc": "ERC-20",
                "slots": [
                    {
                        "current": "0x000000000000000000000000000000000000000001751ebf21eac361e3b05e0e",
                        "key": "0x0000000000000000000000000000000000000000000000000000000000000002",
                        "prev": "0x000000000000000000000000000000000000000001751ebeea67e89346205e0e"
                    },
                    {
                        "current": "0x0000000000000000000000000000000000000000000000003782dace9d900000",
                        "key": "0x243317a8900316e7dc49102504deb7e66a4f7ca95d7ef4e0310a0d54e4678d9c",
                        "prev": "0x0000000000000000000000000000000000000000000000000000000000000000"
                    }
                ],
                "storageVariables": [
                    {
                        "name": "_totalSupply",
                        "type": "uint256",
                        "value": {
                            "current": "451074527482841423047319054",
                            "prev": "451074523482841423047319054",
                            "typeTag": 1
                        }
                    },
                    {
                        "name": "_balances",
                        "type": "mapping(address => uint256)",
                        "value": {
                            "pairs": [
                                {
                                    "key": "0x59f7f728845ccef96151bff5873aa98d6bef6aec",
                                    "value": {
                                        "current": "4000000000000000000",
                                        "prev": "0",
                                        "typeTag": 1
                                    }
                                }
                            ],
                            "typeTag": 4
                        }
                    }
                ]
            }
        ]
    }
}