{
    "balance_change": {
        "balanceChanges": [
            {
                "account": "0x738cf6903e6c4e699d1c2dd9ab8b67fcdb3121ea",
                "assets": [
                    {
                        "address": "0xa0b86991c6218b36c1d19d4a2e9eb0ce3606eb48",
                        "amount": "10,827.629004",
                        "iconUrl": "https://assets.blocksec.com/icon/0347a86cc07dbd03fdc5db01a4e5ac7e1217f90e0b6e4bb0f75cbcca09160989.png",
                        "isERC1155": false,
                        "isERC721": false,
                        "sign": true,
                        "value": "10827.95383"
                    }
                ]
            },
            {
                "account": "0xdff1d5b95f08fce31878a83d6ae99e9579a19c59",
                "assets": [
                    {
                        "address": "0xa0b86991c6218b36c1d19d4a2e9eb0ce3606eb48",
                        "amount": "10,827.629004",
                        "iconUrl": "https://assets.blocksec.com/icon/0347a86cc07dbd03fdc5db01a4e5ac7e1217f90e0b6e4bb0f75cbcca09160989.png",
                        "isERC1155": false,
                        "isERC721": false,
                        "sign": false,
                        "value": "10827.95383"
                    }
                ]
            }
        ]
    },
    "profile": {
        "basic_info": {
            "baseFee": "15.021910127",
            "blockNumber": 16505808,
            "callData": "0x23b872dd000000000000000000000000dff1d5b95f08fce31878a83d6ae99e9579a19c59000000000000000000000000738cf6903e6c4e699d1c2dd9ab8b67fcdb3121ea00000000000000000000000000000000000000000000000000000002856081cc",
            "debugEnable": true,
            "errorInfo": "",
            "eventCount": 1,
            "feeRecipient": "0xfeebabe6b0418ec13b30aadf129f5dcdd4f70cea",
            "formatValue": "0",
            "gasLimit": 100000,
            "gasPrice": "16.021910127",
            "gasUsed": 52080,
            "intTxnCount": 1,
            "internalRevert": false,
            "internalRevertMessage": "",
            "isContractCreation": false,
            "isFlashloan": false,
            "maxFee": "16.727561299",
            "nonce": 1247788,
            "overwritedBlockNumber": -1,
            "priorityFee": "1",
            "receiver": "0xa0b86991c6218b36c1d19d4a2e9eb0ce3606eb48",
            "revertMessage": "",
            "sender": "0xa152f8bb749c55e9943a3a0a3111d18ee2b3f94e",
            "simulationEnable": true,
            "sourceTxnHash": "0xa4baa86553f9938d1aac84cb931154537cffa50e869cc3640cab119672cd946e",
            "status": true,
            "timestamp": "2023-01-28T14:07:35Z",
            "transactionFee": "0.00083442107941416",
            "txnHash": "0xa4baa86553f9938d1aac84cb931154537cffa50e869cc3640cab119672cd946e",
            "txnIndex": 138,
            "type": 2,
            "value": "0"
        },
        "fund_flow": [
            {
                "amount": "10,827.629004",
                "from": "0xdff1d5b95f08fce31878a83d6ae99e9579a19c59",
                "id": 1,
                "isERC1155": false,
                "isERC721": false,
                "isReverted": false,
                "order": 1,
                "to": "0x738cf6903e6c4e699d1c2dd9ab8b67fcdb3121ea",
                "token": "0xa0b86991c6218b36c1d19d4a2e9eb0ce3606eb48"
            }
        ],
        "token_infos": [
            {
                "address": "0xa0b86991c6218b36c1d19d4a2e9eb0ce3606eb48",
                "decimals": 6
            },
            {
                "address": "0xc02aaa39b223fe8d0a0e5c4f27ead9083c756cc2",
                "decimals": 18
            },
            {
                "address": "0xeeeeeeeeeeeeeeeeeeeeeeeeeeeeeeeeeeeeeeee",
                "decimals": 18
            }
        ]
    },
    "address_label": {
        "labels": [
            {
                "address": "0x738cf6903e6c4e699d1c2dd9ab8b67fcdb3121ea",
                "label": "KuCoin 12"
            },
            {
                "address": "0xa0b86991c6218b36c1d19d4a2e9eb0ce3606eb48",
                "label": "Circle: USDC Token"
            },
            {
                "address": "0xdff1d5b95f08fce31878a83d6ae99e9579a19c59",
                "label": "KUCOIN"
            },
            {
                "address": "0x0000000000000000000000000000000000000002",
                "label": "Precompiled"
            },
            {
                "address": "0xeeeeeeeeeeeeeeeeeeeeeeeeeeeeeeeeeeeeeeee",
                "label": "Ether"
            },
            {
                "address": "0xa2327a938febf5fec13bacfb16ae10ecbc4cbdcf",
                "label": "FiatTokenV2_1"
            },
            {
                "address": "0x0000000000000000000000000000000000000003",
                "label": "Precompiled"
            },
            {
                "address": "0x0000000000000000000000000000000000000004",
                "label": "Precompiled"
            },
            {
                "address": "0xa152f8bb749c55e9943a3a0a3111d18ee2b3f94e",
                "label": "KuCoin 22"
            },
            {
                "address": "0x0000000000000000000000000000000000000001",
                "label": "Precompiled"
            }
        ]
    },
    "trace": {
        "accountLabels": null,
        "dataMap": {
            "-1": {
                "invocation": {
                    "address": "0xa152f8bb749c55e9943a3a0a3111d18ee2b3f94e",
                    "callData": "",
                    "decodedMethod": null,
                    "errorInfo": "",
                    "fromAddress": "",
                    "gasUsed": 0,
                    "id": -1,
                    "methodDecoded": false,
                    "operation": "",
                    "output": "",
                    "revert": false,
                    "revertMessage": "",
                    "selector": "",
                    "status": false,
                    "value": ""
                },
                "nodeType": 0
            },
            "0": {
                "invocation": {
                    "address": "0xa0b86991c6218b36c1d19d4a2e9eb0ce3606eb48",
                    "callData": "0x000000000000000000000000dff1d5b95f08fce31878a83d6ae99e9579a19c59000000000000000000000000738cf6903e6c4e699d1c2dd9ab8b67fcdb3121ea00000000000000000000000000000000000000000000000000000002856081cc",
                    "decodedMethod": {
                        "callParams": [
                            {
                                "name": "from",
                                "type": "address",
                                "value": "0xdff1d5b95f08fce31878a83d6ae99e9579a19c59"
                            },
                            {
                                "name": "to",
                                "type": "address",
                                "value": "0x738cf6903e6c4e699d1c2dd9ab8b67fcdb3121ea"
                            },
                            {
                                "decimalAvailable": true,
                                "name": "value",
                                "type": "uint256",
                                "value": "10,827,629,004"
                            }
                        ],
                        "constructorArguments": "",
                        "name": "transferFrom",
                        "returnParams": [
                            {
                                "name": "",
                                "type": "bool",
                                "value": true
                            }
                        ],
                        "signature": "transferFrom(address,address,uint256)"
                    },
                    "errorInfo": "",
                    "fromAddress": "0xa152f8bb749c55e9943a3a0a3111d18ee2b3f94e",
                    "gasUsed": 52080,
                    "id": 0,
                    "methodDecoded": true,
                    "operation": "CALL",
                    "output": "0x0000000000000000000000000000000000000000000000000000000000000001",
                    "revert": false,
                    "revertMessage": "",
                    "selector": "0x23b872dd",
                    "status": true,
                    "value": "0"
                },
                "nodeType": 0
            },
            "1": {
                "invocation": {
                    "address": "0xa2327a938febf5fec13bacfb16ae10ecbc4cbdcf",
                    "callData": "0x000000000000000000000000dff1d5b95f08fce31878a83d6ae99e9579a19c59000000000000000000000000738cf6903e6c4e699d1c2dd9ab8b67fcdb3121ea00000000000000000000000000000000000000000000000000000002856081cc",
                    "decodedMethod": {
                        "callParams": [
                            {
                                "name": "from",
                                "type": "address",
                                "value": "0xdff1d5b95f08fce31878a83d6ae99e9579a19c59"
                            },
                            {
                                "name": "to",
                                "type": "address",
                                "value": "0x738cf6903e6c4e699d1c2dd9ab8b67fcdb3121ea"
                            },
                            {
                                "decimalAvailable": true,
                                "name": "value",
                                "type": "uint256",
                                "value": "10,827,629,004"
                            }
                        ],
                        "constructorArguments": "",
                        "name": "transferFrom",
                        "returnParams": [
                            {
                                "name": "",
                                "type": "bool",
                                "value": true
                            }
                        ],
                        "signature": "transferFrom(address,address,uint256)"
                    },
                    "errorInfo": "",
                    "fromAddress": "0xa0b86991c6218b36c1d19d4a2e9eb0ce3606eb48",
                    "gasUsed": 27597,
                    "id": 1,
                    "methodDecoded": true,
                    "operation": "DELEGATECALL",
                    "output": "0x0000000000000000000000000000000000000000000000000000000000000001",
                    "revert": false,
                    "revertMessage": "",
                    "selector": "0x23b872dd",
                    "status": true,
                    "value": "0"
                },
                "nodeType": 0
            },
            "2": {
                "event": {
                    "contract": "0xa0b86991c6218b36c1d19d4a2e9eb0ce3606eb48",
                    "decodedLog": {
                        "name": "Transfer",
                        "params": [
                            {
                                "name": "from",
                                "type": "address",
                                "value": "0xdff1d5b95f08fce31878a83d6ae99e9579a19c59"
                            },
                            {
                                "name": "to",
                                "type": "address",
                                "value": "0x738cf6903e6c4e699d1c2dd9ab8b67fcdb3121ea"
                            },
                            {
                                "decimalAvailable": true,
                                "name": "value",
                                "type": "uint256",
                                "value": "10,827,629,004"
                            }
                        ],
                        "signature": "Transfer(address,address,uint256)"
                    },
                    "id": 2,
                    "logData": "0x00000000000000000000000000000000000000000000000000000002856081cc",
                    "logDecoded": true,
                    "operation": "EVENT",
                    "revert": false,
                    "status": true,
                    "topics": [
                        "0xddf252ad1be2c89b69c2b068fc378daa952ba7f163c4a11628f55a4df523b3ef",
                        "0x000000000000000000000000dff1d5b95f08fce31878a83d6ae99e9579a19c59",
                        "0x000000000000000000000000738cf6903e6c4e699d1c2dd9ab8b67fcdb3121ea"
                    ]
                },
                "nodeType": 1
            }
        },
        "gasFlame": [
            {
                "children": [
                    {
                        "children": [
                            {
                                "children": [],
                                "depth": 0,
                                "name": "Initial Gas",
                                "value": 21988
                            },
                            {
                                "children": [
                                    {
                                        "children": [],
                                        "depth": 1,
                                        "name": "transferFrom",
                                        "value": 27597
                                    }
                                ],
                                "depth": 0,
                                "name": "Executed Gas",
                                "value": 34892
                            }
                        ],
                        "depth": -1,
                        "name": "Actual Gas Used",
                        "value": 52080
                    },
                    {
                        "children": [],
                        "depth": -1,
                        "name": "Refunded Gas",
                        "value": 4800
                    }
                ],
                "depth": -2,
                "name": "Total Gas",
                "value": 56880
            }
        ],
        "isConfirmed": true,
        "mainTrace": [
            {
                "children": [
                    {
                        "children": [
                            {
                                "children": [
                                    {
                                        "children": [],
                                        "depth": 2,
                                        "id": 2,
                                        "order": 2
                                    }
                                ],
                                "depth": 1,
                                "id": 1,
                                "order": 1
                            }
                        ],
                        "depth": 0,
                        "id": 0,
                        "order": 0
                    }
                ],
                "depth": -1,
                "id": -1,
                "order": -1
            }
        ],
        "mainTraceNodeCount": 3,
        "parentIdMap": {
            "0": -1,
            "1": 0,
            "2": 1
        },
        "tidyTrace": [
            {
                "children": [
                    {
                        "children": [
                            {
                                "children": [
                                    {
                                        "children": [],
                                        "depth": 2,
                                        "id": 2,
                                        "order": 2
                                    }
                                ],
                                "depth": 1,
                                "id": 1,
                                "order": 1
                            }
                        ],
                        "depth": 0,
                        "id": 0,
                        "order": 0
                    }
                ],
                "depth": -1,
                "id": -1,
                "order": -1
            }
        ],
        "tidyTraceNodeCount": 3
    },
    "state_change": {
        "stateChanges": [
            {
                "address": "0xa0b86991c6218b36c1d19d4a2e9eb0ce3606eb48",
                "erc": "ERC-20",
                "slots": [
                    {
                        "current": "0x0000000000000000000000000000000000000000000000000000000000000000",
                        "key": "0xcd286c29b5b8746214be96f733ab4a75d47e331e905ab6967d01cd9414d70043",
                        "prev": "0x00000000000000000000000000000000000000000000000000000002856081cc"
                    },
                    {
                        "current": "0x000000000000000000000000000000000000000000000000000005b087cb369f",
                        "key": "0x370d90045cf44548602ea984549d3d4980feb3cf8d788017583f9074fcbeb303",
                        "prev": "0x000000000000000000000000000000000000000000000000000005ae026ab4d3"
                    },
                    {
                        "current": "0xfffffffffffffffffffffffffffffffffffffffffffffffffffffff590f0d249",
                        "key": "0xd64c59aaddd00ce76585f06098f5a60ef239c4b05c2017c1984fdd6110e2490f",
                        "prev": "0xfffffffffffffffffffffffffffffffffffffffffffffffffffffff816515415"
                    }
                ],
                "storageVariables": [
                    {
                        "name": "balances",
                        "type": "mapping(address => uint256)",
                        "value": {
                            "pairs": [
                                {
                                    "key": "0x738cf6903e6c4e699d1c2dd9ab8b67fcdb3121ea",
                                    "value": {
                                        "current": "6255750624927",
                                        "prev": "6244922995923",
                                        "typeTag": 1
                                    }
                                },
                                {
                                    "key": "0xdff1d5b95f08fce31878a83d6ae99e9579a19c59",
                                    "value": {
                                        "current": "0",
                                        "prev": "10827629004",
                                        "typeTag": 1
                                    }
                                }
                            ],
                            "typeTag": 4
                        }
                    },
                    {
                        "name": "allowed",
                        "type": "mapping(address => mapping(address => uint256))",
                        "value": {
                            "pairs": [
                                {
                                    "key": "0xdff1d5b95f08fce31878a83d6ae99e9579a19c59",
                                    "value": {
                                        "pairs": [
                                            {
                                                "key": "0xa152f8bb749c55e9943a3a0a3111d18ee2b3f94e",
                                                "value": {
                                                    "current": "115792089237316195423570985008687907853269984665640564039457584007868316701257",
                                                    "prev": "115792089237316195423570985008687907853269984665640564039457584007879144330261",
                                                    "typeTag": 1
                                                }
                                            }
                                        ],
                                        "typeTag": 4
                                    }
                                }
                            ],
                            "typeTag": 4
                        }
                    }
                ]
            }
        ]
    }
}