{
    "balance_change": {
        "balanceChanges": [
            {
                "account": "0xe1ba44fb0fa6edb72a115378eb1ecc94886bb2c4",
                "assets": [
                    {
                        "address": "0xf629cbd94d3791c9250152bd8dfbdf380e2a3b9c",
                        "amount": "355",
                        "iconUrl": "https://assets.blocksec.com/icon/4e91198d1517bc4aa7bfb253e3110967513d2a17a9e3cad8d288a4806c405653.png",
                        "isERC1155": false,
                        "isERC721": false,
                        "sign": false,
                        "value": "119.6343782"
                    }
                ]
            },
            {
                "account": "0xaef1f0d39c341d0edf9183a8cd4d8107888b76c2",
                "assets": [
                    {
                        "address": "0xf629cbd94d3791c9250152bd8dfbdf380e2a3b9c",
                        "amount": "355",
                        "iconUrl": "https://assets.blocksec.com/icon/4e91198d1517bc4aa7bfb253e3110967513d2a17a9e3cad8d288a4806c405653.png",
                        "isERC1155": false,
                        "isERC721": false,
                        "sign": true,
                        "value": "119.6343782"
                    }
                ]
            }
        ]
    },
    "profile": {
        "basic_info": {
            "baseFee": "",
            "blockNumber": 11765132,
            "callData": "0xa9059cbb000000000000000000000000aef1f0d39c341d0edf9183a8cd4d8107888b76c20000000000000000000000000000000000000000000000133e9d5b211fac0000",
            "debugEnable": true,
            "errorInfo": "",
            "eventCount": 1,
            "feeRecipient": "0x829bd824b016326a401d083b33d092293333a830",
            "formatValue": "0",
            "gasLimit": 61968,
            "gasPrice": "166",
            "gasUsed": 51712,
            "intTxnCount": 0,
            "internalRevert": false,
            "internalRevertMessage": "",
            "isContractCreation": false,
            "isFlashloan": false,
            "maxFee": "",
            "nonce": 27,
            "overwritedBlockNumber": -1,
            "priorityFee": "",
            "receiver": "0xf629cbd94d3791c9250152bd8dfbdf380e2a3b9c",
            "revertMessage": "",
            "sender": "0xe1ba44fb0fa6edb72a115378eb1ecc94886bb2c4",
            "simulationEnable": true,
            "sourceTxnHash": "0xa4488e8900669655dc7b8c0c8c2156762c3d129432a1c9916fae8bf60959925d",
            "status": true,
            "timestamp": "2021-01-31T17:26:20Z",
            "transactionFee": "0.008584192",
            "txnHash": "0xa4488e8900669655dc7b8c0c8c2156762c3d129432a1c9916fae8bf60959925d",
            "txnIndex": 91,
            "type": 0,
            "value": "0"
        },
        "fund_flow": [
            {
                "amount": "355",
                "from": "0xe1ba44fb0fa6edb72a115378eb1ecc94886bb2c4",
                "id": 1,
                "isERC1155": false,
                "isERC721": false,
                "isReverted": false,
                "order": 1,
                "to": "0xaef1f0d39c341d0edf9183a8cd4d8107888b76c2",
                "token": "0xf629cbd94d3791c9250152bd8dfbdf380e2a3b9c"
            }
        ],
        "token_infos": [
            {
                "address": "0xeeeeeeeeeeeeeeeeeeeeeeeeeeeeeeeeeeeeeeee",
                "decimals": 18
            },
            {
                "address": "0xc02aaa39b223fe8d0a0e5c4f27ead9083c756cc2",
                "decimals": 18
            },
            {
                "address": "0xf629cbd94d3791c9250152bd8dfbdf380e2a3b9c",
                "decimals": 18
            }
        ]
    },
    "address_label": {
        "labels": [
            {
                "address": "0x0000000000000000000000000000000000000001",
                "label": "Precompiled"
            },
            {
                "address": "0x0000000000000000000000000000000000000002",
                "label": "Precompiled"
            },
            {
                "address": "0x0000000000000000000000000000000000000003",
                "label": "Precompiled"
            },
            {
                "address": "0x0000000000000000000000000000000000000004",
                "label": "Precompiled"
            },
            {
                "address": "0xeeeeeeeeeeeeeeeeeeeeeeeeeeeeeeeeeeeeeeee",
                "label": "Ether"
            },
            {
                "address": "0xf629cbd94d3791c9250152bd8dfbdf380e2a3b9c",
                "label": "Enjin: ENJ Token"
            }
        ]
    },
    "trace": {
        "accountLabels": null,
        "dataMap": {
            "-1": {
                "invocation": {
                    "address": "0xe1ba44fb0fa6edb72a115378eb1ecc94886bb2c4",
                    "callData": "",
                    "decodedMethod": null,
                    "errorInfo": "",
                    "fromAddress": "",
                    "gasUsed": 0,
                    "id": -1,
                    "methodDecoded": false,
                    "operation": "",
                    "output": "",
                    "revert": false,
                    "revertMessage": "",
                    "selector": "",
                    "status": false,
                    "value": ""
                },
                "nodeType": 0
            },
            "0": {
                "invocation": {
                    "address": "0xf629cbd94d3791c9250152bd8dfbdf380e2a3b9c",
                    "callData": "0x000000000000000000000000aef1f0d39c341d0edf9183a8cd4d8107888b76c20000000000000000000000000000000000000000000000133e9d5b211fac0000",
                    "decodedMethod": {
                        "callParams": [
                            {
                                "name": "_to",
                                "type": "address",
                                "value": "0xaef1f0d39c341d0edf9183a8cd4d8107888b76c2"
                            },
                            {
                                "decimalAvailable": true,
                                "name": "_value",
                                "type": "uint256",
                                "value": "355,000,000,000,000,000,000"
                            }
                        ],
                        "constructorArguments": "",
                        "name": "transfer",
                        "returnParams": [
                            {
                                "name": "success",
                                "type": "bool",
                                "value": true
                            }
                        ],
                        "signature": "transfer(address,uint256)"
                    },
                    "errorInfo": "",
                    "fromAddress": "0xe1ba44fb0fa6edb72a115378eb1ecc94886bb2c4",
                    "gasUsed": 51712,
                    "id": 0,
                    "methodDecoded": true,
                    "operation": "CALL",
                    "output": "0x0000000000000000000000000000000000000000000000000000000000000001",
                    "revert": false,
                    "revertMessage": "",
                    "selector": "0xa9059cbb",
                    "status": true,
                    "value": "0"
                },
                "nodeType": 0
            },
            "1": {
                "event": {
                    "contract": "0xf629cbd94d3791c9250152bd8dfbdf380e2a3b9c",
                    "decodedLog": {
                        "name": "Transfer",
                        "params": [
                            {
                                "name": "_from",
                                "type": "address",
                                "value": "0xe1ba44fb0fa6edb72a115378eb1ecc94886bb2c4"
                            },
                            {
                                "name": "_to",
                                "type": "address",
                                "value": "0xaef1f0d39c341d0edf9183a8cd4d8107888b76c2"
                            },
                            {
                                "decimalAvailable": true,
                                "name": "_value",
                                "type": "uint256",
                                "value": "355,000,000,000,000,000,000"
                            }
                        ],
                        "signature": "Transfer(address,address,uint256)"
                    },
                    "id": 1,
                    "logData": "0x0000000000000000000000000000000000000000000000133e9d5b211fac0000",
                    "logDecoded": true,
                    "operation": "EVENT",
                    "revert": false,
                    "status": true,
                    "topics": [
                        "0xddf252ad1be2c89b69c2b068fc378daa952ba7f163c4a11628f55a4df523b3ef",
                        "0x000000000000000000000000e1ba44fb0fa6edb72a115378eb1ecc94886bb2c4",
                        "0x000000000000000000000000aef1f0d39c341d0edf9183a8cd4d8107888b76c2"
                    ]
                },
                "nodeType": 1
            }
        },
        "gasFlame": [
            {
                "children": [
                    {
                        "children": [
                            {
                                "children": [],
                                "depth": 0,
                                "name": "Initial Gas",
                                "value": 21644
                            },
                            {
                                "children": [],
                                "depth": 0,
                                "name": "Executed Gas",
                                "value": 30068
                            }
                        ],
                        "depth": -1,
                        "name": "Actual Gas Used",
                        "value": 51712
                    },
                    {
                        "children": [],
                        "depth": -1,
                        "name": "Refunded Gas",
                        "value": 0
                    }
                ],
                "depth": -2,
                "name": "Total Gas",
                "value": 51712
            }
        ],
        "isConfirmed": true,
        "mainTrace": [
            {
                "children": [
                    {
                        "children": [
                            {
                                "children": [],
                                "depth": 1,
                                "id": 1,
                                "order": 1
                            }
                        ],
                        "depth": 0,
                        "id": 0,
                        "order": 0
                    }
                ],
                "depth": -1,
                "id": -1,
                "order": -1
            }
        ],
        "mainTraceNodeCount": 2,
        "parentIdMap": {
            "0": -1,
            "1": 0
        },
        "tidyTrace": [
            {
                "children": [
                    {
                        "children": [
                            {
                                "children": [],
                                "depth": 1,
                                "id": 1,
                                "order": 1
                            }
                        ],
                        "depth": 0,
                        "id": 0,
                        "order": 0
                    }
                ],
                "depth": -1,
                "id": -1,
                "order": -1
            }
        ],
        "tidyTraceNodeCount": 2
    },
    "state_change": {
        "stateChanges": [
            {
                "address": "0xf629cbd94d3791c9250152bd8dfbdf380e2a3b9c",
                "erc": "ERC-20",
                "slots": [
                    {
                        "current": "0x0000000000000000000000000000000000000000000000244a294ff4fb285000",
                        "key": "0xedb750d6b28a32573a45188139ad2cc7469f41bca18ed2b55d4d288f0f6050b5",
                        "prev": "0x00000000000000000000000000000000000000000000003788c6ab161ad45000"
                    },
                    {
                        "current": "0x0000000000000000000000000000000000000000000000133e9d5b211fac0000",
                        "key": "0x664af46929da42e3333393590f008ff3c89d43136ef992576b88028c5c5eaa22",
                        "prev": "0x0000000000000000000000000000000000000000000000000000000000000000"
                    }
                ],
                "storageVariables": [
                    {
                        "name": "balanceOf",
                        "type": "mapping(address => uint256)",
                        "value": {
                            "pairs": [
                                {
                                    "key": "0xaef1f0d39c341d0edf9183a8cd4d8107888b76c2",
                                    "value": {
                                        "current": "355000000000000000000",
                                        "prev": "0",
                                        "typeTag": 1
                                    }
                                },
                                {
                                    "key": "0xe1ba44fb0fa6edb72a115378eb1ecc94886bb2c4",
                                    "value": {
                                        "current": "669426677000000000000",
                                        "prev": "1024426677000000000000",
                                        "typeTag": 1
                                    }
                                }
                            ],
                            "typeTag": 4
                        }
                    }
                ]
            }
        ]
    }
}