{
    "balance_change": {
        "balanceChanges": [
            {
                "account": "0xa68ddfca2ffcb0a8ffe20e44020eea660a634e8f",
                "assets": [
                    {
                        "address": "0x64d5fea7d2d600918b76159285994d6ed218f264",
                        "amount": "435",
                        "iconUrl": "",
                        "isERC1155": false,
                        "isERC721": false,
                        "sign": false,
                        "value": "377.01450000000001128"
                    }
                ]
            },
            {
                "account": "0xc660102f0d3983577d0d34e4fe45efb94a2f4af5",
                "assets": [
                    {
                        "address": "0x64d5fea7d2d600918b76159285994d6ed218f264",
                        "amount": "435",
                        "iconUrl": "",
                        "isERC1155": false,
                        "isERC721": false,
                        "sign": true,
                        "value": "377.01450000000001128"
                    }
                ]
            }
        ]
    },
    "profile": {
        "basic_info": {
            "baseFee": "30.037932066",
            "blockNumber": 19446236,
            "callData": "0xa694fc3a00000000000000000000000000000000000000000000001794d673456eec0000",
            "debugEnable": true,
            "errorInfo": "",
            "eventCount": 3,
            "feeRecipient": "0x51a1449b3b6d635eddec781cd47a99221712de97",
            "formatValue": "0",
            "gasLimit": 173175,
            "gasPrice": "30.047050066",
            "gasUsed": 113383,
            "intTxnCount": 2,
            "internalRevert": false,
            "internalRevertMessage": "",
            "isContractCreation": false,
            "isFlashloan": false,
            "maxFee": "43.256129341",
            "nonce": 12,
            "overwritedBlockNumber": -1,
            "priorityFee": "0.009118",
            "receiver": "0xc660102f0d3983577d0d34e4fe45efb94a2f4af5",
            "revertMessage": "",
            "sender": "0xa68ddfca2ffcb0a8ffe20e44020eea660a634e8f",
            "simulationEnable": true,
            "sourceTxnHash": "0xa4c1c51f3fd5f3d82a744081c2b5790f8c084128caaa68a22130712fb0568bfe",
            "status": true,
            "timestamp": "2024-03-16T08:20:23Z",
            "transactionFee": "0.003406824677633278",
            "txnHash": "0xa4c1c51f3fd5f3d82a744081c2b5790f8c084128caaa68a22130712fb0568bfe",
            "txnIndex": 78,
            "type": 2,
            "value": "0"
        },
        "fund_flow": [
            {
                "amount": "435",
                "from": "0xa68ddfca2ffcb0a8ffe20e44020eea660a634e8f",
                "id": 1,
                "isERC1155": false,
                "isERC721": false,
                "isReverted": false,
                "order": 1,
                "to": "0xc660102f0d3983577d0d34e4fe45efb94a2f4af5",
                "token": "0x64d5fea7d2d600918b76159285994d6ed218f264"
            }
        ],
        "token_infos": [
            {
                "address": "0x64d5fea7d2d600918b76159285994d6ed218f264",
                "decimals": 18
            },
            {
                "address": "0xc02aaa39b223fe8d0a0e5c4f27ead9083c756cc2",
                "decimals": 18
            },
            {
                "address": "0xeeeeeeeeeeeeeeeeeeeeeeeeeeeeeeeeeeeeeeee",
                "decimals": 18
            }
        ]
    },
    "address_label": {
        "labels": [
            {
                "address": "0x64d5fea7d2d600918b76159285994d6ed218f264",
                "label": "Tao Accounting System: TAS Token"
            },
            {
                "address": "0x448150ed3b530e7761bdd1a1ee12effe2ab494b6",
                "label": "ERC20StakingPool"
            },
            {
                "address": "0x0000000000000000000000000000000000000001",
                "label": "Precompiled"
            },
            {
                "address": "0x0000000000000000000000000000000000000002",
                "label": "Precompiled"
            },
            {
                "address": "0x0000000000000000000000000000000000000003",
                "label": "Precompiled"
            },
            {
                "address": "0x0000000000000000000000000000000000000004",
                "label": "Precompiled"
            },
            {
                "address": "0xeeeeeeeeeeeeeeeeeeeeeeeeeeeeeeeeeeeeeeee",
                "label": "Ether"
            }
        ]
    },
    "trace": {
        "accountLabels": null,
        "dataMap": {
            "-1": {
                "invocation": {
                    "address": "0xa68ddfca2ffcb0a8ffe20e44020eea660a634e8f",
                    "callData": "",
                    "decodedMethod": null,
                    "errorInfo": "",
                    "fromAddress": "",
                    "gasUsed": 0,
                    "id": -1,
                    "methodDecoded": false,
                    "operation": "",
                    "output": "",
                    "revert": false,
                    "revertMessage": "",
                    "selector": "",
                    "status": false,
                    "value": ""
                },
                "nodeType": 0
            },
            "0": {
                "invocation": {
                    "address": "0xc660102f0d3983577d0d34e4fe45efb94a2f4af5",
                    "callData": "0x00000000000000000000000000000000000000000000001794d673456eec0000",
                    "decodedMethod": {
                        "callParams": [
                            {
                                "name": "amount",
                                "type": "uint256",
                                "value": "435,000,000,000,000,000,000"
                            }
                        ],
                        "constructorArguments": "",
                        "name": "stake",
                        "returnParams": [],
                        "signature": "stake(uint256)"
                    },
                    "errorInfo": "",
                    "fromAddress": "0xa68ddfca2ffcb0a8ffe20e44020eea660a634e8f",
                    "gasUsed": 113383,
                    "id": 0,
                    "methodDecoded": true,
                    "operation": "CALL",
                    "output": "",
                    "revert": false,
                    "revertMessage": "",
                    "selector": "0xa694fc3a",
                    "status": true,
                    "value": "0"
                },
                "nodeType": 0
            },
            "1": {
                "invocation": {
                    "address": "0x448150ed3b530e7761bdd1a1ee12effe2ab494b6",
                    "callData": "0x00000000000000000000000000000000000000000000001794d673456eec0000bfbfbfda457062d5929e3b51b8030508d922492264d5fea7d2d600918b76159285994d6ed218f2640000000000278d000030",
                    "decodedMethod": {
                        "callParams": [
                            {
                                "name": "amount",
                                "type": "uint256",
                                "value": "435,000,000,000,000,000,000"
                            }
                        ],
                        "constructorArguments": "",
                        "name": "stake",
                        "returnParams": [],
                        "signature": "stake(uint256)"
                    },
                    "errorInfo": "",
                    "fromAddress": "0xc660102f0d3983577d0d34e4fe45efb94a2f4af5",
                    "gasUsed": 89416,
                    "id": 1,
                    "methodDecoded": true,
                    "operation": "DELEGATECALL",
                    "output": "",
                    "revert": false,
                    "revertMessage": "",
                    "selector": "0xa694fc3a",
                    "status": true,
                    "value": "0"
                },
                "nodeType": 0
            },
            "2": {
                "invocation": {
                    "address": "0x64d5fea7d2d600918b76159285994d6ed218f264",
                    "callData": "0x000000000000000000000000a68ddfca2ffcb0a8ffe20e44020eea660a634e8f000000000000000000000000c660102f0d3983577d0d34e4fe45efb94a2f4af500000000000000000000000000000000000000000000001794d673456eec0000",
                    "decodedMethod": {
                        "callParams": [
                            {
                                "name": "sender",
                                "type": "address",
                                "value": "0xa68ddfca2ffcb0a8ffe20e44020eea660a634e8f"
                            },
                            {
                                "name": "recipient",
                                "type": "address",
                                "value": "0xc660102f0d3983577d0d34e4fe45efb94a2f4af5"
                            },
                            {
                                "decimalAvailable": true,
                                "name": "amount",
                                "type": "uint256",
                                "value": "435,000,000,000,000,000,000"
                            }
                        ],
                        "constructorArguments": "",
                        "name": "transferFrom",
                        "returnParams": [
                            {
                                "name": "",
                                "type": "bool",
                                "value": true
                            }
                        ],
                        "signature": "transferFrom(address,address,uint256)"
                    },
                    "errorInfo": "",
                    "fromAddress": "0xc660102f0d3983577d0d34e4fe45efb94a2f4af5",
                    "gasUsed": 42575,
                    "id": 2,
                    "methodDecoded": true,
                    "operation": "CALL",
                    "output": "0x0000000000000000000000000000000000000000000000000000000000000001",
                    "revert": false,
                    "revertMessage": "",
                    "selector": "0x23b872dd",
                    "status": true,
                    "value": "0"
                },
                "nodeType": 0
            },
            "3": {
                "event": {
                    "contract": "0x64d5fea7d2d600918b76159285994d6ed218f264",
                    "decodedLog": {
                        "name": "Transfer",
                        "params": [
                            {
                                "name": "from",
                                "type": "address",
                                "value": "0xa68ddfca2ffcb0a8ffe20e44020eea660a634e8f"
                            },
                            {
                                "name": "to",
                                "type": "address",
                                "value": "0xc660102f0d3983577d0d34e4fe45efb94a2f4af5"
                            },
                            {
                                "decimalAvailable": true,
                                "name": "value",
                                "type": "uint256",
                                "value": "435,000,000,000,000,000,000"
                            }
                        ],
                        "signature": "Transfer(address,address,uint256)"
                    },
                    "id": 3,
                    "logData": "0x00000000000000000000000000000000000000000000001794d673456eec0000",
                    "logDecoded": true,
                    "operation": "EVENT",
                    "revert": false,
                    "status": true,
                    "topics": [
                        "0xddf252ad1be2c89b69c2b068fc378daa952ba7f163c4a11628f55a4df523b3ef",
                        "0x000000000000000000000000a68ddfca2ffcb0a8ffe20e44020eea660a634e8f",
                        "0x000000000000000000000000c660102f0d3983577d0d34e4fe45efb94a2f4af5"
                    ]
                },
                "nodeType": 1
            },
            "4": {
                "event": {
                    "contract": "0x64d5fea7d2d600918b76159285994d6ed218f264",
                    "decodedLog": {
                        "name": "Approval",
                        "params": [
                            {
                                "name": "owner",
                                "type": "address",
                                "value": "0xa68ddfca2ffcb0a8ffe20e44020eea660a634e8f"
                            },
                            {
                                "name": "spender",
                                "type": "address",
                                "value": "0xc660102f0d3983577d0d34e4fe45efb94a2f4af5"
                            },
                            {
                                "decimalAvailable": true,
                                "name": "value",
                                "type": "uint256",
                                "value": "115,792,089,237,316,195,423,570,985,008,687,907,853,269,984,665,640,564,039,022,584,007,913,129,639,935"
                            }
                        ],
                        "signature": "Approval(address,address,uint256)"
                    },
                    "id": 4,
                    "logData": "0xffffffffffffffffffffffffffffffffffffffffffffffe86b298cba9113ffff",
                    "logDecoded": true,
                    "operation": "EVENT",
                    "revert": false,
                    "status": true,
                    "topics": [
                        "0x8c5be1e5ebec7d5bd14f71427d1e84f3dd0314c0f7b2291e5b200ac8c7c3b925",
                        "0x000000000000000000000000a68ddfca2ffcb0a8ffe20e44020eea660a634e8f",
                        "0x000000000000000000000000c660102f0d3983577d0d34e4fe45efb94a2f4af5"
                    ]
                },
                "nodeType": 1
            },
            "5": {
                "event": {
                    "contract": "0xc660102f0d3983577d0d34e4fe45efb94a2f4af5",
                    "decodedLog": {
                        "name": "Staked",
                        "params": [
                            {
                                "name": "user",
                                "type": "address",
                                "value": "0xa68ddfca2ffcb0a8ffe20e44020eea660a634e8f"
                            },
                            {
                                "name": "amount",
                                "type": "uint256",
                                "value": "435,000,000,000,000,000,000"
                            }
                        ],
                        "signature": "Staked(address,uint256)"
                    },
                    "id": 5,
                    "logData": "0x00000000000000000000000000000000000000000000001794d673456eec0000",
                    "logDecoded": true,
                    "operation": "EVENT",
                    "revert": false,
                    "status": true,
                    "topics": [
                        "0x9e71bc8eea02a63969f509818f2dafb9254532904319f9dbda79b67bd34a5f3d",
                        "0x000000000000000000000000a68ddfca2ffcb0a8ffe20e44020eea660a634e8f"
                    ]
                },
                "nodeType": 1
            }
        },
        "gasFlame": [
            {
                "children": [
                    {
                        "children": [
                            {
                                "children": [],
                                "depth": 0,
                                "name": "Initial Gas",
                                "value": 21276
                            },
                            {
                                "children": [
                                    {
                                        "children": [
                                            {
                                                "children": [],
                                                "depth": 2,
                                                "name": "transferFrom",
                                                "value": 42575
                                            }
                                        ],
                                        "depth": 1,
                                        "name": "stake",
                                        "value": 89416
                                    }
                                ],
                                "depth": 0,
                                "name": "Executed Gas",
                                "value": 92107
                            }
                        ],
                        "depth": -1,
                        "name": "Actual Gas Used",
                        "value": 113383
                    },
                    {
                        "children": [],
                        "depth": -1,
                        "name": "Refunded Gas",
                        "value": 0
                    }
                ],
                "depth": -2,
                "name": "Total Gas",
                "value": 113383
            }
        ],
        "isConfirmed": true,
        "mainTrace": [
            {
                "children": [
                    {
                        "children": [
                            {
                                "children": [
                                    {
                                        "children": [
                                            {
                                                "children": [],
                                                "depth": 3,
                                                "id": 3,
                                                "order": 3
                                            },
                                            {
                                                "children": [],
                                                "depth": 3,
                                                "id": 4,
                                                "order": 4
                                            }
                                        ],
                                        "depth": 2,
                                        "id": 2,
                                        "order": 2
                                    },
                                    {
                                        "children": [],
                                        "depth": 2,
                                        "id": 5,
                                        "order": 5
                                    }
                                ],
                                "depth": 1,
                                "id": 1,
                                "order": 1
                            }
                        ],
                        "depth": 0,
                        "id": 0,
                        "order": 0
                    }
                ],
                "depth": -1,
                "id": -1,
                "order": -1
            }
        ],
        "mainTraceNodeCount": 6,
        "parentIdMap": {
            "0": -1,
            "1": 0,
            "2": 1,
            "3": 2,
            "4": 2,
            "5": 1
        },
        "tidyTrace": [
            {
                "children": [
                    {
                        "children": [
                            {
                                "children": [
                                    {
                                        "children": [
                                            {
                                                "children": [],
                                                "depth": 3,
                                                "id": 3,
                                                "order": 3
                                            },
                                            {
                                                "children": [],
                                                "depth": 3,
                                                "id": 4,
                                                "order": 4
                                            }
                                        ],
                                        "depth": 2,
                                        "id": 2,
                                        "order": 2
                                    },
                                    {
                                        "children": [],
                                        "depth": 2,
                                        "id": 5,
                                        "order": 5
                                    }
                                ],
                                "depth": 1,
                                "id": 1,
                                "order": 1
                            }
                        ],
                        "depth": 0,
                        "id": 0,
                        "order": 0
                    }
                ],
                "depth": -1,
                "id": -1,
                "order": -1
            }
        ],
        "tidyTraceNodeCount": 6
    },
    "state_change": {
        "stateChanges": [
            {
                "address": "0x64d5fea7d2d600918b76159285994d6ed218f264",
                "erc": "ERC-20",
                "slots": [
                    {
                        "current": "0x000000000000000000000000000000000000000000000000047e2c6c128c6092",
                        "key": "0xf188bcb72201d7f3f485ad09da114d1d728c21ce2a10ca6abe4985de83292d31",
                        "prev": "0x00000000000000000000000000000000000000000000001799549fb181786092"
                    },
                    {
                        "current": "0x0000000000000000000000000000000000000000000267437c1d9e534851fa36",
                        "key": "0xee82c94ac26b6ff87e27546ec8f7dd46f9acae6870cd85bf9ea9b4dcdc5dfc50",
                        "prev": "0x00000000000000000000000000000000000000000002672be7472b0dd965fa36"
                    },
                    {
                        "current": "0xffffffffffffffffffffffffffffffffffffffffffffffe86b298cba9113ffff",
                        "key": "0x8688a388e64b21c178f28e9d5dda6e44dcd1f1fa5dd7650e03bcee3ac8fd56f9",
                        "prev": "0xffffffffffffffffffffffffffffffffffffffffffffffffffffffffffffffff"
                    }
                ],
                "storageVariables": [
                    {
                        "name": "_balances",
                        "type": "mapping(address => uint256)",
                        "value": {
                            "pairs": [
                                {
                                    "key": "0xa68ddfca2ffcb0a8ffe20e44020eea660a634e8f",
                                    "value": {
                                        "current": "323745065896534162",
                                        "prev": "435323745065896534162",
                                        "typeTag": 1
                                    }
                                },
                                {
                                    "key": "0xc660102f0d3983577d0d34e4fe45efb94a2f4af5",
                                    "value": {
                                        "current": "2905500262296285906860598",
                                        "prev": "2905065262296285906860598",
                                        "typeTag": 1
                                    }
                                }
                            ],
                            "typeTag": 4
                        }
                    },
                    {
                        "name": "_allowances",
                        "type": "mapping(address => mapping(address => uint256))",
                        "value": {
                            "pairs": [
                                {
                                    "key": "0xa68ddfca2ffcb0a8ffe20e44020eea660a634e8f",
                                    "value": {
                                        "pairs": [
                                            {
                                                "key": "0xc660102f0d3983577d0d34e4fe45efb94a2f4af5",
                                                "value": {
                                                    "current": "115792089237316195423570985008687907853269984665640564039022584007913129639935",
                                                    "prev": "115792089237316195423570985008687907853269984665640564039457584007913129639935",
                                                    "typeTag": 1
                                                }
                                            }
                                        ],
                                        "typeTag": 4
                                    }
                                }
                            ],
                            "typeTag": 4
                        }
                    }
                ]
            },
            {
                "address": "0xc660102f0d3983577d0d34e4fe45efb94a2f4af5",
                "erc": "",
                "slots": [
                    {
                        "current": "0x00000000000000000000000000000000000000000000001794d673456eec0000",
                        "key": "0x88d67f5facad812e1696ca35627016b91181488b0fa05469c4504c39ceb5e2f5",
                        "prev": "0x0000000000000000000000000000000000000000000000000000000000000000"
                    },
                    {
                        "current": "0x0000000000000000000000000000000000000000000267437c1d9e534851fa36",
                        "key": "0x0000000000000000000000000000000000000000000000000000000000000004",
                        "prev": "0x00000000000000000000000000000000000000000002672be7472b0dd965fa36"
                    }
                ],
                "storageVariables": [
                    {
                        "name": "balanceOf",
                        "type": "mapping(address => uint256)",
                        "value": {
                            "pairs": [
                                {
                                    "key": "0xa68ddfca2ffcb0a8ffe20e44020eea660a634e8f",
                                    "value": {
                                        "current": "435000000000000000000",
                                        "prev": "0",
                                        "typeTag": 1
                                    }
                                }
                            ],
                            "typeTag": 4
                        }
                    },
                    {
                        "name": "totalSupply",
                        "type": "uint256",
                        "value": {
                            "current": "2905500262296285906860598",
                            "prev": "2905065262296285906860598",
                            "typeTag": 1
                        }
                    }
                ]
            }
        ]
    }
}