{
    "balance_change": {
        "balanceChanges": [
            {
                "account": "0x5ef6aa8056509c5a787e5f3745f9b7f07833faad",
                "assets": [
                    {
                        "address": "0xfdfe8b7ab6cf1bd1e3d14538ef40686296c42052",
                        "amount": "6,682.800333946208311437",
                        "iconUrl": "",
                        "isERC1155": false,
                        "isERC721": false,
                        "sign": false,
                        "value": ""
                    }
                ]
            },
            {
                "account": "0xc81a9fece337fe680f4c7cd572555a80e7de94d6",
                "assets": [
                    {
                        "address": "0xfdfe8b7ab6cf1bd1e3d14538ef40686296c42052",
                        "amount": "6,682.800333946208311437",
                        "iconUrl": "",
                        "isERC1155": false,
                        "isERC721": false,
                        "sign": true,
                        "value": ""
                    }
                ]
            }
        ]
    },
    "profile": {
        "basic_info": {
            "baseFee": "",
            "blockNumber": 5378710,
            "callData": "0xa9059cbb000000000000000000000000c81a9fece337fe680f4c7cd572555a80e7de94d600000000000000000000000000000000000000000000016a467c28bafd96d88d",
            "debugEnable": true,
            "errorInfo": "",
            "eventCount": 1,
            "feeRecipient": "0xea674fdde714fd979de3edf0f56aa9716b898ec8",
            "formatValue": "0",
            "gasLimit": 52687,
            "gasPrice": "53",
            "gasUsed": 37687,
            "intTxnCount": 0,
            "internalRevert": false,
            "internalRevertMessage": "",
            "isContractCreation": false,
            "isFlashloan": false,
            "maxFee": "",
            "nonce": 114,
            "overwritedBlockNumber": -1,
            "priorityFee": "",
            "receiver": "0xfdfe8b7ab6cf1bd1e3d14538ef40686296c42052",
            "revertMessage": "",
            "sender": "0x5ef6aa8056509c5a787e5f3745f9b7f07833faad",
            "simulationEnable": true,
            "sourceTxnHash": "0xa46324b2d31e0f765a996ed5cc76936d669007c5b3bfe505242f2248d414b9b0",
            "status": true,
            "timestamp": "2018-04-04T11:03:24Z",
            "transactionFee": "0.001997411",
            "txnHash": "0xa46324b2d31e0f765a996ed5cc76936d669007c5b3bfe505242f2248d414b9b0",
            "txnIndex": 1,
            "type": 0,
            "value": "0"
        },
        "fund_flow": [
            {
                "amount": "6,682.800333946208311437",
                "from": "0x5ef6aa8056509c5a787e5f3745f9b7f07833faad",
                "id": 1,
                "isERC1155": false,
                "isERC721": false,
                "isReverted": false,
                "order": 1,
                "to": "0xc81a9fece337fe680f4c7cd572555a80e7de94d6",
                "token": "0xfdfe8b7ab6cf1bd1e3d14538ef40686296c42052"
            }
        ],
        "token_infos": [
            {
                "address": "0xc02aaa39b223fe8d0a0e5c4f27ead9083c756cc2",
                "decimals": 18
            },
            {
                "address": "0xfdfe8b7ab6cf1bd1e3d14538ef40686296c42052",
                "decimals": 18
            },
            {
                "address": "0xeeeeeeeeeeeeeeeeeeeeeeeeeeeeeeeeeeeeeeee",
                "decimals": 18
            }
        ]
    },
    "address_label": {
        "labels": [
            {
                "address": "0xeeeeeeeeeeeeeeeeeeeeeeeeeeeeeeeeeeeeeeee",
                "label": "Ether"
            },
            {
                "address": "0xfdfe8b7ab6cf1bd1e3d14538ef40686296c42052",
                "label": "Skraps (SKRP)"
            },
            {
                "address": "0x0000000000000000000000000000000000000001",
                "label": "Precompiled"
            },
            {
                "address": "0x0000000000000000000000000000000000000002",
                "label": "Precompiled"
            },
            {
                "address": "0x0000000000000000000000000000000000000003",
                "label": "Precompiled"
            },
            {
                "address": "0x0000000000000000000000000000000000000004",
                "label": "Precompiled"
            }
        ]
    },
    "trace": {
        "accountLabels": null,
        "dataMap": {
            "-1": {
                "invocation": {
                    "address": "0x5ef6aa8056509c5a787e5f3745f9b7f07833faad",
                    "callData": "",
                    "decodedMethod": null,
                    "errorInfo": "",
                    "fromAddress": "",
                    "gasUsed": 0,
                    "id": -1,
                    "methodDecoded": false,
                    "operation": "",
                    "output": "",
                    "revert": false,
                    "revertMessage": "",
                    "selector": "",
                    "status": false,
                    "value": ""
                },
                "nodeType": 0
            },
            "0": {
                "invocation": {
                    "address": "0xfdfe8b7ab6cf1bd1e3d14538ef40686296c42052",
                    "callData": "0x000000000000000000000000c81a9fece337fe680f4c7cd572555a80e7de94d600000000000000000000000000000000000000000000016a467c28bafd96d88d",
                    "decodedMethod": {
                        "callParams": [
                            {
                                "name": "_to",
                                "type": "address",
                                "value": "0xc81a9fece337fe680f4c7cd572555a80e7de94d6"
                            },
                            {
                                "decimalAvailable": true,
                                "name": "_value",
                                "type": "uint256",
                                "value": "6,682,800,333,946,208,311,437"
                            }
                        ],
                        "constructorArguments": "",
                        "name": "transfer",
                        "returnParams": [
                            {
                                "name": "success",
                                "type": "bool",
                                "value": true
                            }
                        ],
                        "signature": "transfer(address,uint256)"
                    },
                    "errorInfo": "",
                    "fromAddress": "0x5ef6aa8056509c5a787e5f3745f9b7f07833faad",
                    "gasUsed": 37687,
                    "id": 0,
                    "methodDecoded": true,
                    "operation": "CALL",
                    "output": "0x0000000000000000000000000000000000000000000000000000000000000001",
                    "revert": false,
                    "revertMessage": "",
                    "selector": "0xa9059cbb",
                    "status": true,
                    "value": "0"
                },
                "nodeType": 0
            },
            "1": {
                "event": {
                    "contract": "0xfdfe8b7ab6cf1bd1e3d14538ef40686296c42052",
                    "decodedLog": {
                        "name": "Transfer",
                        "params": [
                            {
                                "name": "from",
                                "type": "address",
                                "value": "0x5ef6aa8056509c5a787e5f3745f9b7f07833faad"
                            },
                            {
                                "name": "to",
                                "type": "address",
                                "value": "0xc81a9fece337fe680f4c7cd572555a80e7de94d6"
                            },
                            {
                                "decimalAvailable": true,
                                "name": "value",
                                "type": "uint256",
                                "value": "6,682,800,333,946,208,311,437"
                            }
                        ],
                        "signature": "Transfer(address,address,uint256)"
                    },
                    "id": 1,
                    "logData": "0x00000000000000000000000000000000000000000000016a467c28bafd96d88d",
                    "logDecoded": true,
                    "operation": "EVENT",
                    "revert": false,
                    "status": true,
                    "topics": [
                        "0xddf252ad1be2c89b69c2b068fc378daa952ba7f163c4a11628f55a4df523b3ef",
                        "0x0000000000000000000000005ef6aa8056509c5a787e5f3745f9b7f07833faad",
                        "0x000000000000000000000000c81a9fece337fe680f4c7cd572555a80e7de94d6"
                    ]
                },
                "nodeType": 1
            }
        },
        "gasFlame": [
            {
                "children": [
                    {
                        "children": [
                            {
                                "children": [],
                                "depth": 0,
                                "name": "Initial Gas",
                                "value": 23448
                            },
                            {
                                "children": [],
                                "depth": 0,
                                "name": "Executed Gas",
                                "value": 29239
                            }
                        ],
                        "depth": -1,
                        "name": "Actual Gas Used",
                        "value": 37687
                    },
                    {
                        "children": [],
                        "depth": -1,
                        "name": "Refunded Gas",
                        "value": 15000
                    }
                ],
                "depth": -2,
                "name": "Total Gas",
                "value": 52687
            }
        ],
        "isConfirmed": true,
        "mainTrace": [
            {
                "children": [
                    {
                        "children": [
                            {
                                "children": [],
                                "depth": 1,
                                "id": 1,
                                "order": 1
                            }
                        ],
                        "depth": 0,
                        "id": 0,
                        "order": 0
                    }
                ],
                "depth": -1,
                "id": -1,
                "order": -1
            }
        ],
        "mainTraceNodeCount": 2,
        "parentIdMap": {
            "0": -1,
            "1": 0
        },
        "tidyTrace": [
            {
                "children": [
                    {
                        "children": [
                            {
                                "children": [],
                                "depth": 1,
                                "id": 1,
                                "order": 1
                            }
                        ],
                        "depth": 0,
                        "id": 0,
                        "order": 0
                    }
                ],
                "depth": -1,
                "id": -1,
                "order": -1
            }
        ],
        "tidyTraceNodeCount": 2
    },
    "state_change": {
        "stateChanges": [
            {
                "address": "0xfdfe8b7ab6cf1bd1e3d14538ef40686296c42052",
                "erc": "ERC-20",
                "slots": [
                    {
                        "current": "0x0000000000000000000000000000000000000000000000000000000000000000",
                        "key": "0xf9d50f48454e4b4dec9e3a84dac54a2ca021defed90c1a331c4ccee3846ae9b4",
                        "prev": "0x00000000000000000000000000000000000000000000016a467c28bafd96d88d"
                    },
                    {
                        "current": "0x00000000000000000000000000000000000000000000016a467c28bafd96d88d",
                        "key": "0x82164cc31d9067e26ffa874325c480926344826a2f47983d337567c403ec9678",
                        "prev": "0x0000000000000000000000000000000000000000000000000000000000000000"
                    }
                ],
                "storageVariables": [
                    {
                        "name": "balances",
                        "type": "mapping(address => uint256)",
                        "value": {
                            "pairs": [
                                {
                                    "key": "0x5ef6aa8056509c5a787e5f3745f9b7f07833faad",
                                    "value": {
                                        "current": "0",
                                        "prev": "6682800333946208311437",
                                        "typeTag": 1
                                    }
                                },
                                {
                                    "key": "0xc81a9fece337fe680f4c7cd572555a80e7de94d6",
                                    "value": {
                                        "current": "6682800333946208311437",
                                        "prev": "0",
                                        "typeTag": 1
                                    }
                                }
                            ],
                            "typeTag": 4
                        }
                    }
                ]
            }
        ]
    }
}