{
    "balance_change": {
        "balanceChanges": []
    },
    "profile": {
        "basic_info": {
            "baseFee": "",
            "blockNumber": 6873223,
            "callData": "0xef343588000000000000000000000000000000000000000000000000000003c61a2d70100000000000000000000000000000000000000000000000001bc16d674ec0ad00000000000000000000000000000000000000000000000000000000000002e63000000000000000000000000000000000000000000000000000000000000002250000000000000000000000000000000000000000000000000000009d2897b2ba000000000000000000000000000000000000000000000000000000000000004600000000000000000000000000000000000000000000000000038d7ea4c68000000000000000000000000000000000000000000000000000003583bf565fac190000000000000000000000002008e3057bd734e10ad13c9eae45ff132abc1722000000000000000000000000000000000000000000000000000000000000000000000000000000000000000052203a1aab008bb874b262c40a6d2b1b05c247da000000000000000000000000790505e96a2da105f6e9d617fcceba6e8e15f628000000000000000000000000000000000000000000000000000000000000001c000000000000000000000000000000000000000000000000000000000000001b0231bdeb5eafc0b09cd31bc254afdbed900fb2bdeadf2666b1e73051947d833e405f24006477a957eb7f987fc4ba0c272474318648977f57f0cd31ae03347d0eaa54d88ad0ea9784ebbd22a5462a810744b368e0f3c0f89ddb19191fc1a31a56286737a41ec6969ba5029c8c210ef404b4c864090cf503f7adc87e7139ba5086",
            "debugEnable": true,
            "errorInfo": "",
            "eventCount": 0,
            "feeRecipient": "0x52bc44d5378309ee2abf1539bf71de1b7d7be3b5",
            "formatValue": "0",
            "gasLimit": 400000,
            "gasPrice": "20",
            "gasUsed": 127260,
            "intTxnCount": 2,
            "internalRevert": false,
            "internalRevertMessage": "",
            "isContractCreation": false,
            "isFlashloan": false,
            "maxFee": "",
            "nonce": 2170959,
            "overwritedBlockNumber": -1,
            "priorityFee": "",
            "receiver": "0x2a0c0dbecc7e4d658f48e01e3fa353f44050c208",
            "revertMessage": "",
            "sender": "0xa7a7899d944fe658c4b0a1803bab2f490bd3849e",
            "simulationEnable": true,
            "sourceTxnHash": "0xa47ee05ff4998461391236784c4a27baec60a304dca36597611fe2e128a122ff",
            "status": true,
            "timestamp": "2018-12-12T13:36:54Z",
            "transactionFee": "0.0025452",
            "txnHash": "0xa47ee05ff4998461391236784c4a27baec60a304dca36597611fe2e128a122ff",
            "txnIndex": 11,
            "type": 0,
            "value": "0"
        },
        "fund_flow": [],
        "token_infos": [
            {
                "address": "0xc02aaa39b223fe8d0a0e5c4f27ead9083c756cc2",
                "decimals": 18
            },
            {
                "address": "0xeeeeeeeeeeeeeeeeeeeeeeeeeeeeeeeeeeeeeeee",
                "decimals": 18
            }
        ]
    },
    "address_label": {
        "labels": [
            {
                "address": "0x2a0c0dbecc7e4d658f48e01e3fa353f44050c208",
                "label": "IDEX"
            },
            {
                "address": "0x0000000000000000000000000000000000000002",
                "label": "Precompiled"
            },
            {
                "address": "0x0000000000000000000000000000000000000003",
                "label": "Precompiled"
            },
            {
                "address": "0x0000000000000000000000000000000000000000",
                "label": "Null Address"
            },
            {
                "address": "0x0000000000000000000000000000000000000001",
                "label": "Precompiled"
            },
            {
                "address": "0x0000000000000000000000000000000000000004",
                "label": "Precompiled"
            },
            {
                "address": "0xeeeeeeeeeeeeeeeeeeeeeeeeeeeeeeeeeeeeeeee",
                "label": "Ether"
            },
            {
                "address": "0x2008e3057bd734e10ad13c9eae45ff132abc1722",
                "label": "Zebi: Old Token"
            },
            {
                "address": "0xa7a7899d944fe658c4b0a1803bab2f490bd3849e",
                "label": "IDEX 2"
            }
        ]
    },
    "trace": {
        "accountLabels": null,
        "dataMap": {
            "-1": {
                "invocation": {
                    "address": "0xa7a7899d944fe658c4b0a1803bab2f490bd3849e",
                    "callData": "",
                    "decodedMethod": null,
                    "errorInfo": "",
                    "fromAddress": "",
                    "gasUsed": 0,
                    "id": -1,
                    "methodDecoded": false,
                    "operation": "",
                    "output": "",
                    "revert": false,
                    "revertMessage": "",
                    "selector": "",
                    "status": false,
                    "value": ""
                },
                "nodeType": 0
            },
            "0": {
                "invocation": {
                    "address": "0x2a0c0dbecc7e4d658f48e01e3fa353f44050c208",
                    "callData": "0x000000000000000000000000000000000000000000000000000003c61a2d70100000000000000000000000000000000000000000000000001bc16d674ec0ad00000000000000000000000000000000000000000000000000000000000002e63000000000000000000000000000000000000000000000000000000000000002250000000000000000000000000000000000000000000000000000009d2897b2ba000000000000000000000000000000000000000000000000000000000000004600000000000000000000000000000000000000000000000000038d7ea4c68000000000000000000000000000000000000000000000000000003583bf565fac190000000000000000000000002008e3057bd734e10ad13c9eae45ff132abc1722000000000000000000000000000000000000000000000000000000000000000000000000000000000000000052203a1aab008bb874b262c40a6d2b1b05c247da000000000000000000000000790505e96a2da105f6e9d617fcceba6e8e15f628000000000000000000000000000000000000000000000000000000000000001c000000000000000000000000000000000000000000000000000000000000001b0231bdeb5eafc0b09cd31bc254afdbed900fb2bdeadf2666b1e73051947d833e405f24006477a957eb7f987fc4ba0c272474318648977f57f0cd31ae03347d0eaa54d88ad0ea9784ebbd22a5462a810744b368e0f3c0f89ddb19191fc1a31a56286737a41ec6969ba5029c8c210ef404b4c864090cf503f7adc87e7139ba5086",
                    "decodedMethod": {
                        "callParams": [
                            {
                                "name": "tradeValues",
                                "type": "uint256[8]",
                                "value": [
                                    "4,149,377,593,360",
                                    "1,999,999,999,999,520,000",
                                    "190,000",
                                    "549",
                                    "674,990,895,802",
                                    "70",
                                    "1,000,000,000,000,000",
                                    "15,063,031,576,767,513"
                                ]
                            },
                            {
                                "name": "tradeAddresses",
                                "type": "address[4]",
                                "value": [
                                    "0x2008e3057bd734e10ad13c9eae45ff132abc1722",
                                    "0x0000000000000000000000000000000000000000",
                                    "0x52203a1aab008bb874b262c40a6d2b1b05c247da",
                                    "0x790505e96a2da105f6e9d617fcceba6e8e15f628"
                                ]
                            },
                            {
                                "name": "v",
                                "type": "uint8[2]",
                                "value": [
                                    "28",
                                    "27"
                                ]
                            },
                            {
                                "name": "rs",
                                "type": "bytes32[4]",
                                "value": [
                                    "0x0231bdeb5eafc0b09cd31bc254afdbed900fb2bdeadf2666b1e73051947d833e",
                                    "0x405f24006477a957eb7f987fc4ba0c272474318648977f57f0cd31ae03347d0e",
                                    "0xaa54d88ad0ea9784ebbd22a5462a810744b368e0f3c0f89ddb19191fc1a31a56",
                                    "0x286737a41ec6969ba5029c8c210ef404b4c864090cf503f7adc87e7139ba5086"
                                ]
                            }
                        ],
                        "constructorArguments": "",
                        "name": "trade",
                        "returnParams": [
                            {
                                "name": "success",
                                "type": "bool",
                                "value": false
                            }
                        ],
                        "signature": "trade(uint256[8],address[4],uint8[2],bytes32[4])"
                    },
                    "errorInfo": "",
                    "fromAddress": "0xa7a7899d944fe658c4b0a1803bab2f490bd3849e",
                    "gasUsed": 127260,
                    "id": 0,
                    "methodDecoded": true,
                    "operation": "CALL",
                    "output": "0x0000000000000000000000000000000000000000000000000000000000000000",
                    "revert": false,
                    "revertMessage": "",
                    "selector": "0xef343588",
                    "status": true,
                    "value": "0"
                },
                "nodeType": 0
            },
            "1": {
                "invocation": {
                    "address": "0x0000000000000000000000000000000000000001",
                    "callData": "0xb2773c7d5315cba684053c822b1713106d1647a300da78e4eeae80ef000000000000000000000000000000000000000000000000000000000000001c0231bdeb5eafc0b09cd31bc254afdbed900fb2bdeadf2666b1e73051947d833e405f24006477a957eb7f987fc4ba0c272474318648977f57f0cd31ae03347d0e",
                    "decodedMethod": {
                        "callParams": [
                            {
                                "name": "hash",
                                "type": "bytes32",
                                "value": "0x7d277f7db2773c7d5315cba684053c822b1713106d1647a300da78e4eeae80ef"
                            },
                            {
                                "name": "v",
                                "type": "uint256",
                                "value": "28"
                            },
                            {
                                "name": "r",
                                "type": "bytes32",
                                "value": "0x0231bdeb5eafc0b09cd31bc254afdbed900fb2bdeadf2666b1e73051947d833e"
                            },
                            {
                                "name": "s",
                                "type": "bytes32",
                                "value": "0x405f24006477a957eb7f987fc4ba0c272474318648977f57f0cd31ae03347d0e"
                            }
                        ],
                        "constructorArguments": "",
                        "name": "ecrecover",
                        "returnParams": [
                            {
                                "name": "",
                                "type": "address",
                                "value": "0x52203a1aab008bb874b262c40a6d2b1b05c247da"
                            }
                        ],
                        "signature": "ecrecover(bytes32,uint256,bytes32,bytes32)"
                    },
                    "errorInfo": "",
                    "fromAddress": "0x2a0c0dbecc7e4d658f48e01e3fa353f44050c208",
                    "gasUsed": 3000,
                    "id": 1,
                    "methodDecoded": true,
                    "operation": "CALL",
                    "output": "0x00000000000000000000000052203a1aab008bb874b262c40a6d2b1b05c247da",
                    "revert": false,
                    "revertMessage": "",
                    "selector": "0x7d277f7d",
                    "status": true,
                    "value": "0"
                },
                "nodeType": 0
            },
            "2": {
                "invocation": {
                    "address": "0x0000000000000000000000000000000000000001",
                    "callData": "0x8ae970331baf2fda1e93c10d8e08e8a4065996c10b7a7ac9faddc528000000000000000000000000000000000000000000000000000000000000001baa54d88ad0ea9784ebbd22a5462a810744b368e0f3c0f89ddb19191fc1a31a56286737a41ec6969ba5029c8c210ef404b4c864090cf503f7adc87e7139ba5086",
                    "decodedMethod": {
                        "callParams": [
                            {
                                "name": "hash",
                                "type": "bytes32",
                                "value": "0xdece8a808ae970331baf2fda1e93c10d8e08e8a4065996c10b7a7ac9faddc528"
                            },
                            {
                                "name": "v",
                                "type": "uint256",
                                "value": "27"
                            },
                            {
                                "name": "r",
                                "type": "bytes32",
                                "value": "0xaa54d88ad0ea9784ebbd22a5462a810744b368e0f3c0f89ddb19191fc1a31a56"
                            },
                            {
                                "name": "s",
                                "type": "bytes32",
                                "value": "0x286737a41ec6969ba5029c8c210ef404b4c864090cf503f7adc87e7139ba5086"
                            }
                        ],
                        "constructorArguments": "",
                        "name": "ecrecover",
                        "returnParams": [
                            {
                                "name": "",
                                "type": "address",
                                "value": "0x790505e96a2da105f6e9d617fcceba6e8e15f628"
                            }
                        ],
                        "signature": "ecrecover(bytes32,uint256,bytes32,bytes32)"
                    },
                    "errorInfo": "",
                    "fromAddress": "0x2a0c0dbecc7e4d658f48e01e3fa353f44050c208",
                    "gasUsed": 3000,
                    "id": 2,
                    "methodDecoded": true,
                    "operation": "CALL",
                    "output": "0x000000000000000000000000790505e96a2da105f6e9d617fcceba6e8e15f628",
                    "revert": false,
                    "revertMessage": "",
                    "selector": "0xdece8a80",
                    "status": true,
                    "value": "0"
                },
                "nodeType": 0
            }
        },
        "gasFlame": [
            {
                "children": [
                    {
                        "children": [
                            {
                                "children": [],
                                "depth": 0,
                                "name": "Initial Gas",
                                "value": 37976
                            },
                            {
                                "children": [
                                    {
                                        "children": [],
                                        "depth": 1,
                                        "name": "ecrecover",
                                        "value": 3000
                                    },
                                    {
                                        "children": [],
                                        "depth": 1,
                                        "name": "ecrecover",
                                        "value": 3000
                                    }
                                ],
                                "depth": 0,
                                "name": "Executed Gas",
                                "value": 104284
                            }
                        ],
                        "depth": -1,
                        "name": "Actual Gas Used",
                        "value": 127260
                    },
                    {
                        "children": [],
                        "depth": -1,
                        "name": "Refunded Gas",
                        "value": 15000
                    }
                ],
                "depth": -2,
                "name": "Total Gas",
                "value": 142260
            }
        ],
        "isConfirmed": true,
        "mainTrace": [
            {
                "children": [
                    {
                        "children": [
                            {
                                "children": [],
                                "depth": 1,
                                "id": 1,
                                "order": 1
                            },
                            {
                                "children": [],
                                "depth": 1,
                                "id": 2,
                                "order": 2
                            }
                        ],
                        "depth": 0,
                        "id": 0,
                        "order": 0
                    }
                ],
                "depth": -1,
                "id": -1,
                "order": -1
            }
        ],
        "mainTraceNodeCount": 3,
        "parentIdMap": {
            "0": -1,
            "1": 0,
            "2": 0
        },
        "tidyTrace": [
            {
                "children": [
                    {
                        "children": [
                            {
                                "children": [],
                                "depth": 1,
                                "id": 1,
                                "order": 1
                            },
                            {
                                "children": [],
                                "depth": 1,
                                "id": 2,
                                "order": 2
                            }
                        ],
                        "depth": 0,
                        "id": 0,
                        "order": 0
                    }
                ],
                "depth": -1,
                "id": -1,
                "order": -1
            }
        ],
        "tidyTraceNodeCount": 3
    },
    "state_change": {
        "stateChanges": [
            {
                "address": "0x2a0c0dbecc7e4d658f48e01e3fa353f44050c208",
                "erc": "",
                "slots": [
                    {
                        "current": "0x000000000000000000000000000000000000000000000000000000b52f00c131",
                        "key": "0xc8fdaaae60f3c0aaca236e4fa9338eb8ad9c64c4964b12b3e626a347b651cf75",
                        "prev": "0x000000000000000000000000000000000000000000000000000000b506c53602"
                    },
                    {
                        "current": "0x000000000000000000000000000000000000000000000000173d914b1b9b64e0",
                        "key": "0xbe86c55b555f48e2afc26e02e4a25d71034439d628fb0df887e371d5b44d642d",
                        "prev": "0x0000000000000000000000000000000000000000000000001bc16d674ec80000"
                    },
                    {
                        "current": "0x0000000000000000000000000000000000000000000000000ca690ac823485f3",
                        "key": "0x9ad9ef3b4cfa0b503e4ebc15b4c7d0c36b81f9646c339deca0b0e2bfc1846548",
                        "prev": "0x00000000000000000000000000000000000000000000000008341db766908f3b"
                    },
                    {
                        "current": "0x000000000000000000000000000000000000000000000001bc2935aa39438933",
                        "key": "0x3ccb72d91c5c66cba135a4135963ed23443b8a63817f501517468fcd5097e277",
                        "prev": "0x000000000000000000000000000000000000000000000001bc17cc8321bae4cc"
                    },
                    {
                        "current": "0x0000000000000000000000000000000000000000000000000000009d2897b2ba",
                        "key": "0x3f4fb8c378715972060f932b482e783b884fc1419c947a3a2ae97f55cfd36dbc",
                        "prev": "0x0000000000000000000000000000000000000000000000000000000000000000"
                    },
                    {
                        "current": "0x00000000000000000000000000000000000000000000000000001db81e00171a",
                        "key": "0xc48d49bee7279a6507e5c3944f1fcac2b01b0cd8ae357cccacffbba0a2772928",
                        "prev": "0x00000000000000000000000000000000000000000000000000001d1b1da3ef90"
                    },
                    {
                        "current": "0x0000000000000000000000000000000000000000000000000000000000000001",
                        "key": "0x0dfba6d9feb5b1f9c53abe20350e5fe5cbecfee5850ba85c68e926a788629695",
                        "prev": "0x0000000000000000000000000000000000000000000000000000000000000000"
                    },
                    {
                        "current": "0x0000000000000000000000000000000000000000000000000000000000000000",
                        "key": "0xfc0773971708346d7b482005ba3abbdf6565664d6479962c8feff4cc936facdb",
                        "prev": "0x0000000000000000000000000000000000000000000000000000009d2897b2ba"
                    },
                    {
                        "current": "0x000000000000000000000000000000000000000000000000000000000068e087",
                        "key": "0x5d44ef445a91b55aed9aa1c8d6b25c4841acfddc2ed4ec4694cd507f2f7a0f8c",
                        "prev": "0x000000000000000000000000000000000000000000000000000000000068d53b"
                    }
                ],
                "storageVariables": [
                    {
                        "name": "traded",
                        "type": "mapping(bytes32 => bool)",
                        "value": {
                            "pairs": [
                                {
                                    "key": "0x8182ee1e0e08c6198b2bc0b1ba78ed830ded80da39dae7a8430071477d9e7977",
                                    "value": {
                                        "current": "true",
                                        "prev": "false",
                                        "typeTag": 1
                                    }
                                }
                            ],
                            "typeTag": 4
                        }
                    },
                    {
                        "name": "tokens",
                        "type": "mapping(address => mapping(address => uint256))",
                        "value": {
                            "pairs": [
                                {
                                    "key": "0x0000000000000000000000000000000000000000",
                                    "value": {
                                        "pairs": [
                                            {
                                                "key": "0x034767f3c519f361c5ecf46ebfc08981c629d381",
                                                "value": {
                                                    "current": "32005171232106580275",
                                                    "prev": "32000270540883027148",
                                                    "typeTag": 1
                                                }
                                            },
                                            {
                                                "key": "0x52203a1aab008bb874b262c40a6d2b1b05c247da",
                                                "value": {
                                                    "current": "1674654388223436000",
                                                    "prev": "2000000000000000000",
                                                    "typeTag": 1
                                                }
                                            },
                                            {
                                                "key": "0x790505e96a2da105f6e9d617fcceba6e8e15f628",
                                                "value": {
                                                    "current": "911575045182359027",
                                                    "prev": "591130124629348155",
                                                    "typeTag": 1
                                                }
                                            }
                                        ],
                                        "typeTag": 4
                                    }
                                },
                                {
                                    "key": "0x2008e3057bd734e10ad13c9eae45ff132abc1722",
                                    "value": {
                                        "pairs": [
                                            {
                                                "key": "0x034767f3c519f361c5ecf46ebfc08981c629d381",
                                                "value": {
                                                    "current": "778177659185",
                                                    "prev": "777502668290",
                                                    "typeTag": 1
                                                }
                                            },
                                            {
                                                "key": "0x52203a1aab008bb874b262c40a6d2b1b05c247da",
                                                "value": {
                                                    "current": "32676614510362",
                                                    "prev": "32002298605456",
                                                    "typeTag": 1
                                                }
                                            },
                                            {
                                                "key": "0x790505e96a2da105f6e9d617fcceba6e8e15f628",
                                                "value": {
                                                    "current": "0",
                                                    "prev": "674990895802",
                                                    "typeTag": 1
                                                }
                                            }
                                        ],
                                        "typeTag": 4
                                    }
                                }
                            ],
                            "typeTag": 4
                        }
                    },
                    {
                        "name": "lastActiveTransaction",
                        "type": "mapping(address => uint256)",
                        "value": {
                            "pairs": [
                                {
                                    "key": "0x52203a1aab008bb874b262c40a6d2b1b05c247da",
                                    "value": {
                                        "current": "6873223",
                                        "prev": "6870331",
                                        "typeTag": 1
                                    }
                                }
                            ],
                            "typeTag": 4
                        }
                    },
                    {
                        "name": "orderFills",
                        "type": "mapping(bytes32 => uint256)",
                        "value": {
                            "pairs": [
                                {
                                    "key": "0x049f37067f05e9d719a0539e9f7321d7c985665efb272701bbda8dc894d5cd34",
                                    "value": {
                                        "current": "674990895802",
                                        "prev": "0",
                                        "typeTag": 1
                                    }
                                }
                            ],
                            "typeTag": 4
                        }
                    }
                ]
            }
        ]
    }
}