{
    "balance_change": {
        "balanceChanges": [
            {
                "account": "0x1fb421310ceacd0afb2a429bbb4682e522b38ecb",
                "assets": [
                    {
                        "address": "0xc02aaa39b223fe8d0a0e5c4f27ead9083c756cc2",
                        "amount": "0.536368898321435392",
                        "iconUrl": "https://assets.blocksec.com/icon/f1cb2d02c471d545bbc7722daf3277fd852d98e63d118771af7047bd8256c516.png",
                        "isERC1155": false,
                        "isERC721": false,
                        "sign": false,
                        "value": "834.3861855734459414"
                    }
                ]
            },
            {
                "account": "0x2c814e0346672ce6813f7e1eaf944be8703ec10f",
                "assets": [
                    {
                        "address": "0xc02aaa39b223fe8d0a0e5c4f27ead9083c756cc2",
                        "amount": "0.536368898321435392",
                        "iconUrl": "https://assets.blocksec.com/icon/f1cb2d02c471d545bbc7722daf3277fd852d98e63d118771af7047bd8256c516.png",
                        "isERC1155": false,
                        "isERC721": false,
                        "sign": true,
                        "value": "834.3861855734459414"
                    },
                    {
                        "address": "0x6b9f031d718dded0d681c20cb754f97b3bb81b78",
                        "amount": "19,549.706182396080198754",
                        "iconUrl": "https://assets.blocksec.com/icon/426c22ca4481c4386e58fb22ec97744d63ad997600e1eb050084064b838b476b.png",
                        "isERC1155": false,
                        "isERC721": false,
                        "sign": false,
                        "value": "889.51163118999997614"
                    }
                ]
            },
            {
                "account": "0x7e20e121ded9ed7c67b4971eed536e8f82873df3",
                "assets": [
                    {
                        "address": "0x6b9f031d718dded0d681c20cb754f97b3bb81b78",
                        "amount": "19,549.706182396080198754",
                        "iconUrl": "https://assets.blocksec.com/icon/426c22ca4481c4386e58fb22ec97744d63ad997600e1eb050084064b838b476b.png",
                        "isERC1155": false,
                        "isERC721": false,
                        "sign": true,
                        "value": "889.51163118999997614"
                    }
                ]
            }
        ]
    },
    "profile": {
        "basic_info": {
            "baseFee": "17.217664889",
            "blockNumber": 18384585,
            "callData": "0x2ad33c590000000000000000000000007a250d5630b4cf539739df2c5dacb4c659f2488d000000000000000000000000000000000000000000000000077190abd5044b000000000000000000000000000000000000000000000004171598b2bbd4c00000000000000000000000000000c02aaa39b223fe8d0a0e5c4f27ead9083c756cc20000000000000000000000006b9f031d718dded0d681c20cb754f97b3bb81b780000000000000000000000000000000000000000000000000000000000000bb80000000000000000000000007e20e121ded9ed7c67b4971eed536e8f82873df30000000000000000000000000000000000000000000000000000000000000000",
            "debugEnable": true,
            "errorInfo": "",
            "eventCount": 4,
            "feeRecipient": "0x95222290dd7278aa3ddd389cc1e1d165cc4bafe5",
            "formatValue": "0",
            "gasLimit": 901952,
            "gasPrice": "64.817664889",
            "gasUsed": 128639,
            "intTxnCount": 8,
            "internalRevert": false,
            "internalRevertMessage": "",
            "isContractCreation": false,
            "isFlashloan": false,
            "maxFee": "101.566827833",
            "nonce": 92776,
            "overwritedBlockNumber": -1,
            "priorityFee": "47.6",
            "receiver": "0x1fb421310ceacd0afb2a429bbb4682e522b38ecb",
            "revertMessage": "",
            "sender": "0x315d2ee4fccda0def532ef4108ff57204f8d9eba",
            "simulationEnable": true,
            "sourceTxnHash": "0xa482335c965106bdd4127403dc88044fa0e83ef21b4bc720fe253dddd5048727",
            "status": true,
            "timestamp": "2023-10-19T13:10:47Z",
            "transactionFee": "0.008338079593656071",
            "txnHash": "0xa482335c965106bdd4127403dc88044fa0e83ef21b4bc720fe253dddd5048727",
            "txnIndex": 3,
            "type": 2,
            "value": "0"
        },
        "fund_flow": [
            {
                "amount": "0.536368898321435392",
                "from": "0x1fb421310ceacd0afb2a429bbb4682e522b38ecb",
                "id": 1,
                "isERC1155": false,
                "isERC721": false,
                "isReverted": false,
                "order": 1,
                "to": "0x2c814e0346672ce6813f7e1eaf944be8703ec10f",
                "token": "0xc02aaa39b223fe8d0a0e5c4f27ead9083c756cc2"
            },
            {
                "amount": "19,549.706182396080198754",
                "from": "0x2c814e0346672ce6813f7e1eaf944be8703ec10f",
                "id": 2,
                "isERC1155": false,
                "isERC721": false,
                "isReverted": false,
                "order": 2,
                "to": "0x7e20e121ded9ed7c67b4971eed536e8f82873df3",
                "token": "0x6b9f031d718dded0d681c20cb754f97b3bb81b78"
            }
        ],
        "token_infos": [
            {
                "address": "0x6b9f031d718dded0d681c20cb754f97b3bb81b78",
                "decimals": 18
            },
            {
                "address": "0xc02aaa39b223fe8d0a0e5c4f27ead9083c756cc2",
                "decimals": 18
            },
            {
                "address": "0xeeeeeeeeeeeeeeeeeeeeeeeeeeeeeeeeeeeeeeee",
                "decimals": 18
            }
        ]
    },
    "address_label": {
        "labels": [
            {
                "address": "0x7a250d5630b4cf539739df2c5dacb4c659f2488d",
                "label": "Uniswap V2: Router 2"
            },
            {
                "address": "0x1fb421310ceacd0afb2a429bbb4682e522b38ecb",
                "label": "MEV Bot: 0x1fB...EcB"
            },
            {
                "address": "0x95222290dd7278aa3ddd389cc1e1d165cc4bafe5",
                "label": "beaverbuild"
            },
            {
                "address": "0xeeeeeeeeeeeeeeeeeeeeeeeeeeeeeeeeeeeeeeee",
                "label": "Ether"
            },
            {
                "address": "0x2c814e0346672ce6813f7e1eaf944be8703ec10f",
                "label": "Uniswap V2: GEEQ 9"
            },
            {
                "address": "0x6b9f031d718dded0d681c20cb754f97b3bb81b78",
                "label": "Geeq: GEEQ Token"
            },
            {
                "address": "0xc02aaa39b223fe8d0a0e5c4f27ead9083c756cc2",
                "label": "Wrapped Ether (WETH)"
            },
            {
                "address": "0x7e20e121ded9ed7c67b4971eed536e8f82873df3",
                "label": "KUCOIN"
            },
            {
                "address": "0x0000000000000000000000000000000000000001",
                "label": "Precompiled"
            },
            {
                "address": "0x0000000000000000000000000000000000000002",
                "label": "Precompiled"
            },
            {
                "address": "0x0000000000000000000000000000000000000003",
                "label": "Precompiled"
            },
            {
                "address": "0x0000000000000000000000000000000000000004",
                "label": "Precompiled"
            }
        ]
    },
    "trace": {
        "accountLabels": null,
        "dataMap": {
            "-1": {
                "invocation": {
                    "address": "0x315d2ee4fccda0def532ef4108ff57204f8d9eba",
                    "callData": "",
                    "decodedMethod": null,
                    "errorInfo": "",
                    "fromAddress": "",
                    "gasUsed": 0,
                    "id": -1,
                    "methodDecoded": false,
                    "operation": "",
                    "output": "",
                    "revert": false,
                    "revertMessage": "",
                    "selector": "",
                    "status": false,
                    "value": ""
                },
                "nodeType": 0
            },
            "0": {
                "invocation": {
                    "address": "0x1fb421310ceacd0afb2a429bbb4682e522b38ecb",
                    "callData": "0x0000000000000000000000007a250d5630b4cf539739df2c5dacb4c659f2488d000000000000000000000000000000000000000000000000077190abd5044b000000000000000000000000000000000000000000000004171598b2bbd4c00000000000000000000000000000c02aaa39b223fe8d0a0e5c4f27ead9083c756cc20000000000000000000000006b9f031d718dded0d681c20cb754f97b3bb81b780000000000000000000000000000000000000000000000000000000000000bb80000000000000000000000007e20e121ded9ed7c67b4971eed536e8f82873df30000000000000000000000000000000000000000000000000000000000000000",
                    "decodedMethod": null,
                    "errorInfo": "",
                    "fromAddress": "0x315d2ee4fccda0def532ef4108ff57204f8d9eba",
                    "gasUsed": 128639,
                    "id": 0,
                    "methodDecoded": false,
                    "operation": "CALL",
                    "output": "",
                    "revert": false,
                    "revertMessage": "",
                    "selector": "0x2ad33c59",
                    "status": true,
                    "value": "0"
                },
                "nodeType": 0
            },
            "1": {
                "invocation": {
                    "address": "0x7a250d5630b4cf539739df2c5dacb4c659f2488d",
                    "callData": "0x000000000000000000000000000000000000000000000000077190abd5044b000000000000000000000000000000000000000000000004171598b2bbd4c0000000000000000000000000000000000000000000000000000000000000000000a00000000000000000000000007e20e121ded9ed7c67b4971eed536e8f82873df30000000000000000000000000000000000000000000000000000000065312b130000000000000000000000000000000000000000000000000000000000000002000000000000000000000000c02aaa39b223fe8d0a0e5c4f27ead9083c756cc20000000000000000000000006b9f031d718dded0d681c20cb754f97b3bb81b78",
                    "decodedMethod": {
                        "callParams": [
                            {
                                "name": "amountIn",
                                "type": "uint256",
                                "value": "536,368,898,321,435,392"
                            },
                            {
                                "name": "amountOutMin",
                                "type": "uint256",
                                "value": "19,315,297,235,364,955,029,504"
                            },
                            {
                                "name": "path",
                                "type": "address[]",
                                "value": [
                                    "0xc02aaa39b223fe8d0a0e5c4f27ead9083c756cc2",
                                    "0x6b9f031d718dded0d681c20cb754f97b3bb81b78"
                                ]
                            },
                            {
                                "name": "to",
                                "type": "address",
                                "value": "0x7e20e121ded9ed7c67b4971eed536e8f82873df3"
                            },
                            {
                                "name": "deadline",
                                "type": "uint256",
                                "value": "1,697,721,107"
                            }
                        ],
                        "constructorArguments": "",
                        "name": "swapExactTokensForTokens",
                        "returnParams": [
                            {
                                "name": "amounts",
                                "type": "uint256[]",
                                "value": [
                                    "536,368,898,321,435,392",
                                    "19,549,706,182,396,080,198,754"
                                ]
                            }
                        ],
                        "signature": "swapExactTokensForTokens(uint256,uint256,address[],address,uint256)"
                    },
                    "errorInfo": "",
                    "fromAddress": "0x1fb421310ceacd0afb2a429bbb4682e522b38ecb",
                    "gasUsed": 97756,
                    "id": 1,
                    "methodDecoded": true,
                    "operation": "CALL",
                    "output": "0x00000000000000000000000000000000000000000000000000000000000000200000000000000000000000000000000000000000000000000000000000000002000000000000000000000000000000000000000000000000077190abd5044b00000000000000000000000000000000000000000000000423caac921b50529462",
                    "revert": false,
                    "revertMessage": "",
                    "selector": "0x38ed1739",
                    "status": true,
                    "value": "0"
                },
                "nodeType": 0
            },
            "10": {
                "event": {
                    "contract": "0x2c814e0346672ce6813f7e1eaf944be8703ec10f",
                    "decodedLog": {
                        "name": "Sync",
                        "params": [
                            {
                                "name": "reserve0",
                                "type": "uint112",
                                "value": "1,647,291,286,085,074,076,085,024"
                            },
                            {
                                "name": "reserve1",
                                "type": "uint112",
                                "value": "45,596,132,798,414,432,788"
                            }
                        ],
                        "signature": "Sync(uint112,uint112)"
                    },
                    "id": 10,
                    "logData": "0x000000000000000000000000000000000000000000015cd3d6ed0b167de4ab2000000000000000000000000000000000000000000000000278c601339507aa14",
                    "logDecoded": true,
                    "operation": "EVENT",
                    "revert": false,
                    "status": true,
                    "topics": [
                        "0x1c411e9a96e071241c2f21f7726b17ae89e3cab4c78be50e062b03a9fffbbad1"
                    ]
                },
                "nodeType": 1
            },
            "11": {
                "event": {
                    "contract": "0x2c814e0346672ce6813f7e1eaf944be8703ec10f",
                    "decodedLog": {
                        "name": "Swap",
                        "params": [
                            {
                                "name": "sender",
                                "type": "address",
                                "value": "0x7a250d5630b4cf539739df2c5dacb4c659f2488d"
                            },
                            {
                                "name": "to",
                                "type": "address",
                                "value": "0x7e20e121ded9ed7c67b4971eed536e8f82873df3"
                            },
                            {
                                "name": "amount0In",
                                "type": "uint256",
                                "value": "0"
                            },
                            {
                                "name": "amount1In",
                                "type": "uint256",
                                "value": "536,368,898,321,435,392"
                            },
                            {
                                "name": "amount0Out",
                                "type": "uint256",
                                "value": "19,549,706,182,396,080,198,754"
                            },
                            {
                                "name": "amount1Out",
                                "type": "uint256",
                                "value": "0"
                            }
                        ],
                        "signature": "Swap(address,uint256,uint256,uint256,uint256,address)"
                    },
                    "id": 11,
                    "logData": "0x0000000000000000000000000000000000000000000000000000000000000000000000000000000000000000000000000000000000000000077190abd5044b00000000000000000000000000000000000000000000000423caac921b505294620000000000000000000000000000000000000000000000000000000000000000",
                    "logDecoded": true,
                    "operation": "EVENT",
                    "revert": false,
                    "status": true,
                    "topics": [
                        "0xd78ad95fa46c994b6551d0da85fc275fe613ce37657fb8d5e3d130840159d822",
                        "0x0000000000000000000000007a250d5630b4cf539739df2c5dacb4c659f2488d",
                        "0x0000000000000000000000007e20e121ded9ed7c67b4971eed536e8f82873df3"
                    ]
                },
                "nodeType": 1
            },
            "12": {
                "invocation": {
                    "address": "0x95222290dd7278aa3ddd389cc1e1d165cc4bafe5",
                    "callData": "0x",
                    "decodedMethod": null,
                    "errorInfo": "",
                    "fromAddress": "0x1fb421310ceacd0afb2a429bbb4682e522b38ecb",
                    "gasUsed": 0,
                    "id": 12,
                    "methodDecoded": false,
                    "operation": "CALL",
                    "output": "",
                    "revert": false,
                    "revertMessage": "",
                    "selector": "fallback",
                    "status": true,
                    "value": "0"
                },
                "nodeType": 0
            },
            "2": {
                "invocation": {
                    "address": "0x2c814e0346672ce6813f7e1eaf944be8703ec10f",
                    "callData": "0x",
                    "decodedMethod": {
                        "callParams": [],
                        "constructorArguments": "",
                        "name": "getReserves",
                        "returnParams": [
                            {
                                "name": "_reserve0",
                                "type": "uint112",
                                "value": "1,666,840,992,267,470,156,283,778"
                            },
                            {
                                "name": "_reserve1",
                                "type": "uint112",
                                "value": "45,059,763,900,092,997,396"
                            },
                            {
                                "name": "_blockTimestampLast",
                                "type": "uint32",
                                "value": "1,697,721,035"
                            }
                        ],
                        "signature": "getReserves()"
                    },
                    "errorInfo": "",
                    "fromAddress": "0x7a250d5630b4cf539739df2c5dacb4c659f2488d",
                    "gasUsed": 2504,
                    "id": 2,
                    "methodDecoded": true,
                    "operation": "STATICCALL",
                    "output": "0x0000000000000000000000000000000000000000000160f7a1999d31ce373f8200000000000000000000000000000000000000000000000271547087c0035f140000000000000000000000000000000000000000000000000000000065312acb",
                    "revert": false,
                    "revertMessage": "",
                    "selector": "0x0902f1ac",
                    "status": true,
                    "value": "0"
                },
                "nodeType": 0
            },
            "3": {
                "invocation": {
                    "address": "0xc02aaa39b223fe8d0a0e5c4f27ead9083c756cc2",
                    "callData": "0x0000000000000000000000001fb421310ceacd0afb2a429bbb4682e522b38ecb0000000000000000000000002c814e0346672ce6813f7e1eaf944be8703ec10f000000000000000000000000000000000000000000000000077190abd5044b00",
                    "decodedMethod": {
                        "callParams": [
                            {
                                "name": "src",
                                "type": "address",
                                "value": "0x1fb421310ceacd0afb2a429bbb4682e522b38ecb"
                            },
                            {
                                "name": "dst",
                                "type": "address",
                                "value": "0x2c814e0346672ce6813f7e1eaf944be8703ec10f"
                            },
                            {
                                "decimalAvailable": true,
                                "name": "wad",
                                "type": "uint256",
                                "value": "536,368,898,321,435,392"
                            }
                        ],
                        "constructorArguments": "",
                        "name": "transferFrom",
                        "returnParams": [
                            {
                                "name": "",
                                "type": "bool",
                                "value": true
                            }
                        ],
                        "signature": "transferFrom(address,address,uint256)"
                    },
                    "errorInfo": "",
                    "fromAddress": "0x7a250d5630b4cf539739df2c5dacb4c659f2488d",
                    "gasUsed": 15025,
                    "id": 3,
                    "methodDecoded": true,
                    "operation": "CALL",
                    "output": "0x0000000000000000000000000000000000000000000000000000000000000001",
                    "revert": false,
                    "revertMessage": "",
                    "selector": "0x23b872dd",
                    "status": true,
                    "value": "0"
                },
                "nodeType": 0
            },
            "4": {
                "event": {
                    "contract": "0xc02aaa39b223fe8d0a0e5c4f27ead9083c756cc2",
                    "decodedLog": {
                        "name": "Transfer",
                        "params": [
                            {
                                "name": "src",
                                "type": "address",
                                "value": "0x1fb421310ceacd0afb2a429bbb4682e522b38ecb"
                            },
                            {
                                "name": "dst",
                                "type": "address",
                                "value": "0x2c814e0346672ce6813f7e1eaf944be8703ec10f"
                            },
                            {
                                "decimalAvailable": true,
                                "name": "wad",
                                "type": "uint256",
                                "value": "536,368,898,321,435,392"
                            }
                        ],
                        "signature": "Transfer(address,address,uint256)"
                    },
                    "id": 4,
                    "logData": "0x000000000000000000000000000000000000000000000000077190abd5044b00",
                    "logDecoded": true,
                    "operation": "EVENT",
                    "revert": false,
                    "status": true,
                    "topics": [
                        "0xddf252ad1be2c89b69c2b068fc378daa952ba7f163c4a11628f55a4df523b3ef",
                        "0x0000000000000000000000001fb421310ceacd0afb2a429bbb4682e522b38ecb",
                        "0x0000000000000000000000002c814e0346672ce6813f7e1eaf944be8703ec10f"
                    ]
                },
                "nodeType": 1
            },
            "5": {
                "invocation": {
                    "address": "0x2c814e0346672ce6813f7e1eaf944be8703ec10f",
                    "callData": "0x000000000000000000000000000000000000000000000423caac921b5052946200000000000000000000000000000000000000000000000000000000000000000000000000000000000000007e20e121ded9ed7c67b4971eed536e8f82873df300000000000000000000000000000000000000000000000000000000000000800000000000000000000000000000000000000000000000000000000000000000",
                    "decodedMethod": {
                        "callParams": [
                            {
                                "name": "amount0Out",
                                "type": "uint256",
                                "value": "19,549,706,182,396,080,198,754"
                            },
                            {
                                "name": "amount1Out",
                                "type": "uint256",
                                "value": "0"
                            },
                            {
                                "name": "to",
                                "type": "address",
                                "value": "0x7e20e121ded9ed7c67b4971eed536e8f82873df3"
                            },
                            {
                                "name": "data",
                                "type": "bytes",
                                "value": "0x"
                            }
                        ],
                        "constructorArguments": "",
                        "name": "swap",
                        "returnParams": [],
                        "signature": "swap(uint256,uint256,address,bytes)"
                    },
                    "errorInfo": "",
                    "fromAddress": "0x7a250d5630b4cf539739df2c5dacb4c659f2488d",
                    "gasUsed": 67408,
                    "id": 5,
                    "methodDecoded": true,
                    "operation": "CALL",
                    "output": "",
                    "revert": false,
                    "revertMessage": "",
                    "selector": "0x022c0d9f",
                    "status": true,
                    "value": "0"
                },
                "nodeType": 0
            },
            "6": {
                "invocation": {
                    "address": "0x6b9f031d718dded0d681c20cb754f97b3bb81b78",
                    "callData": "0x0000000000000000000000007e20e121ded9ed7c67b4971eed536e8f82873df3000000000000000000000000000000000000000000000423caac921b50529462",
                    "decodedMethod": {
                        "callParams": [
                            {
                                "name": "to",
                                "type": "address",
                                "value": "0x7e20e121ded9ed7c67b4971eed536e8f82873df3"
                            },
                            {
                                "decimalAvailable": true,
                                "name": "tokens",
                                "type": "uint256",
                                "value": "19,549,706,182,396,080,198,754"
                            }
                        ],
                        "constructorArguments": "",
                        "name": "transfer",
                        "returnParams": [
                            {
                                "name": "success",
                                "type": "bool",
                                "value": true
                            }
                        ],
                        "signature": "transfer(address,uint256)"
                    },
                    "errorInfo": "",
                    "fromAddress": "0x2c814e0346672ce6813f7e1eaf944be8703ec10f",
                    "gasUsed": 32372,
                    "id": 6,
                    "methodDecoded": true,
                    "operation": "CALL",
                    "output": "0x0000000000000000000000000000000000000000000000000000000000000001",
                    "revert": false,
                    "revertMessage": "",
                    "selector": "0xa9059cbb",
                    "status": true,
                    "value": "0"
                },
                "nodeType": 0
            },
            "7": {
                "event": {
                    "contract": "0x6b9f031d718dded0d681c20cb754f97b3bb81b78",
                    "decodedLog": {
                        "name": "Transfer",
                        "params": [
                            {
                                "name": "from",
                                "type": "address",
                                "value": "0x2c814e0346672ce6813f7e1eaf944be8703ec10f"
                            },
                            {
                                "name": "to",
                                "type": "address",
                                "value": "0x7e20e121ded9ed7c67b4971eed536e8f82873df3"
                            },
                            {
                                "decimalAvailable": true,
                                "name": "tokens",
                                "type": "uint256",
                                "value": "19,549,706,182,396,080,198,754"
                            }
                        ],
                        "signature": "Transfer(address,address,uint256)"
                    },
                    "id": 7,
                    "logData": "0x000000000000000000000000000000000000000000000423caac921b50529462",
                    "logDecoded": true,
                    "operation": "EVENT",
                    "revert": false,
                    "status": true,
                    "topics": [
                        "0xddf252ad1be2c89b69c2b068fc378daa952ba7f163c4a11628f55a4df523b3ef",
                        "0x0000000000000000000000002c814e0346672ce6813f7e1eaf944be8703ec10f",
                        "0x0000000000000000000000007e20e121ded9ed7c67b4971eed536e8f82873df3"
                    ]
                },
                "nodeType": 1
            },
            "8": {
                "invocation": {
                    "address": "0x6b9f031d718dded0d681c20cb754f97b3bb81b78",
                    "callData": "0x0000000000000000000000002c814e0346672ce6813f7e1eaf944be8703ec10f",
                    "decodedMethod": {
                        "callParams": [
                            {
                                "name": "tokenOwner",
                                "type": "address",
                                "value": "0x2c814e0346672ce6813f7e1eaf944be8703ec10f"
                            }
                        ],
                        "constructorArguments": "",
                        "name": "balanceOf",
                        "returnParams": [
                            {
                                "decimalAvailable": true,
                                "name": "balance",
                                "type": "uint256",
                                "value": "1,647,291,286,085,074,076,085,024"
                            }
                        ],
                        "signature": "balanceOf(address)"
                    },
                    "errorInfo": "",
                    "fromAddress": "0x2c814e0346672ce6813f7e1eaf944be8703ec10f",
                    "gasUsed": 679,
                    "id": 8,
                    "methodDecoded": true,
                    "operation": "STATICCALL",
                    "output": "0x000000000000000000000000000000000000000000015cd3d6ed0b167de4ab20",
                    "revert": false,
                    "revertMessage": "",
                    "selector": "0x70a08231",
                    "status": true,
                    "value": "0"
                },
                "nodeType": 0
            },
            "9": {
                "invocation": {
                    "address": "0xc02aaa39b223fe8d0a0e5c4f27ead9083c756cc2",
                    "callData": "0x0000000000000000000000002c814e0346672ce6813f7e1eaf944be8703ec10f",
                    "decodedMethod": {
                        "callParams": [
                            {
                                "name": "",
                                "type": "address",
                                "value": "0x2c814e0346672ce6813f7e1eaf944be8703ec10f"
                            }
                        ],
                        "constructorArguments": "",
                        "name": "balanceOf",
                        "returnParams": [
                            {
                                "decimalAvailable": true,
                                "name": "",
                                "type": "uint256",
                                "value": "45,596,132,798,414,432,788"
                            }
                        ],
                        "signature": "balanceOf(address)"
                    },
                    "errorInfo": "",
                    "fromAddress": "0x2c814e0346672ce6813f7e1eaf944be8703ec10f",
                    "gasUsed": 534,
                    "id": 9,
                    "methodDecoded": true,
                    "operation": "STATICCALL",
                    "output": "0x00000000000000000000000000000000000000000000000278c601339507aa14",
                    "revert": false,
                    "revertMessage": "",
                    "selector": "0x70a08231",
                    "status": true,
                    "value": "0"
                },
                "nodeType": 0
            }
        },
        "gasFlame": [
            {
                "children": [
                    {
                        "children": [
                            {
                                "children": [],
                                "depth": 0,
                                "name": "Initial Gas",
                                "value": 23252
                            },
                            {
                                "children": [
                                    {
                                        "children": [
                                            {
                                                "children": [],
                                                "depth": 2,
                                                "name": "getReserves",
                                                "value": 2504
                                            },
                                            {
                                                "children": [],
                                                "depth": 2,
                                                "name": "transferFrom",
                                                "value": 15025
                                            },
                                            {
                                                "children": [
                                                    {
                                                        "children": [],
                                                        "depth": 3,
                                                        "name": "transfer",
                                                        "value": 32372
                                                    },
                                                    {
                                                        "children": [],
                                                        "depth": 3,
                                                        "name": "balanceOf",
                                                        "value": 679
                                                    },
                                                    {
                                                        "children": [],
                                                        "depth": 3,
                                                        "name": "balanceOf",
                                                        "value": 534
                                                    }
                                                ],
                                                "depth": 2,
                                                "name": "swap",
                                                "value": 67408
                                            }
                                        ],
                                        "depth": 1,
                                        "name": "swapExactTokensForTokens",
                                        "value": 97756
                                    },
                                    {
                                        "children": [],
                                        "depth": 1,
                                        "name": "fallback",
                                        "value": 0
                                    }
                                ],
                                "depth": 0,
                                "name": "Executed Gas",
                                "value": 108187
                            }
                        ],
                        "depth": -1,
                        "name": "Actual Gas Used",
                        "value": 128639
                    },
                    {
                        "children": [],
                        "depth": -1,
                        "name": "Refunded Gas",
                        "value": 2800
                    }
                ],
                "depth": -2,
                "name": "Total Gas",
                "value": 131439
            }
        ],
        "isConfirmed": true,
        "mainTrace": [
            {
                "children": [
                    {
                        "children": [
                            {
                                "children": [
                                    {
                                        "children": [],
                                        "depth": 2,
                                        "id": 2,
                                        "order": 2
                                    },
                                    {
                                        "children": [
                                            {
                                                "children": [],
                                                "depth": 3,
                                                "id": 4,
                                                "order": 4
                                            }
                                        ],
                                        "depth": 2,
                                        "id": 3,
                                        "order": 3
                                    },
                                    {
                                        "children": [
                                            {
                                                "children": [
                                                    {
                                                        "children": [],
                                                        "depth": 4,
                                                        "id": 7,
                                                        "order": 7
                                                    }
                                                ],
                                                "depth": 3,
                                                "id": 6,
                                                "order": 6
                                            },
                                            {
                                                "children": [],
                                                "depth": 3,
                                                "id": 8,
                                                "order": 8
                                            },
                                            {
                                                "children": [],
                                                "depth": 3,
                                                "id": 9,
                                                "order": 9
                                            },
                                            {
                                                "children": [],
                                                "depth": 3,
                                                "id": 10,
                                                "order": 10
                                            },
                                            {
                                                "children": [],
                                                "depth": 3,
                                                "id": 11,
                                                "order": 11
                                            }
                                        ],
                                        "depth": 2,
                                        "id": 5,
                                        "order": 5
                                    }
                                ],
                                "depth": 1,
                                "id": 1,
                                "order": 1
                            },
                            {
                                "children": [],
                                "depth": 1,
                                "id": 12,
                                "order": 12
                            }
                        ],
                        "depth": 0,
                        "id": 0,
                        "order": 0
                    }
                ],
                "depth": -1,
                "id": -1,
                "order": -1
            }
        ],
        "mainTraceNodeCount": 13,
        "parentIdMap": {
            "0": -1,
            "1": 0,
            "10": 5,
            "11": 5,
            "12": 0,
            "2": 1,
            "3": 1,
            "4": 3,
            "5": 1,
            "6": 5,
            "7": 6,
            "8": 5,
            "9": 5
        },
        "tidyTrace": [
            {
                "children": [
                    {
                        "children": [
                            {
                                "children": [
                                    {
                                        "children": [
                                            {
                                                "children": [],
                                                "depth": 3,
                                                "id": 4,
                                                "order": 4
                                            }
                                        ],
                                        "depth": 2,
                                        "id": 3,
                                        "order": 3
                                    },
                                    {
                                        "children": [
                                            {
                                                "children": [
                                                    {
                                                        "children": [],
                                                        "depth": 4,
                                                        "id": 7,
                                                        "order": 7
                                                    }
                                                ],
                                                "depth": 3,
                                                "id": 6,
                                                "order": 6
                                            },
                                            {
                                                "children": [],
                                                "depth": 3,
                                                "id": 10,
                                                "order": 10
                                            },
                                            {
                                                "children": [],
                                                "depth": 3,
                                                "id": 11,
                                                "order": 11
                                            }
                                        ],
                                        "depth": 2,
                                        "id": 5,
                                        "order": 5
                                    }
                                ],
                                "depth": 1,
                                "id": 1,
                                "order": 1
                            },
                            {
                                "children": [],
                                "depth": 1,
                                "id": 12,
                                "order": 12
                            }
                        ],
                        "depth": 0,
                        "id": 0,
                        "order": 0
                    }
                ],
                "depth": -1,
                "id": -1,
                "order": -1
            }
        ],
        "tidyTraceNodeCount": 10
    },
    "state_change": {
        "stateChanges": [
            {
                "address": "0x2c814e0346672ce6813f7e1eaf944be8703ec10f",
                "erc": "ERC-20",
                "slots": [
                    {
                        "current": "0x65312ad700000000000278c601339507aa14000000015cd3d6ed0b167de4ab20",
                        "key": "0x0000000000000000000000000000000000000000000000000000000000000008",
                        "prev": "0x65312acb00000000000271547087c0035f140000000160f7a1999d31ce373f82"
                    },
                    {
                        "current": "0x00000000000000000000000000000000c11c48e84fd7ad56c87330d8a4d85b58",
                        "key": "0x0000000000000000000000000000000000000000000000000000000000000009",
                        "prev": "0x00000000000000000000000000000000c11c48d30d5fe0d14b2f7cc2389fcd98"
                    },
                    {
                        "current": "0x00000000000000000000000000f0b5a414bb404cd59e90593bef5934ebcf52bb",
                        "key": "0x000000000000000000000000000000000000000000000000000000000000000a",
                        "prev": "0x00000000000000000000000000f0b59d4ebddc030f5abf3ef6dacc36c2d25093"
                    }
                ],
                "storageVariables": [
                    {
                        "name": "price0CumulativeLast",
                        "type": "uint256",
                        "value": {
                            "current": "256687866237662958270999337062020701016",
                            "prev": "256687864553300706825499608892399668632",
                            "typeTag": 1
                        }
                    },
                    {
                        "name": "price1CumulativeLast",
                        "type": "uint256",
                        "value": {
                            "current": "5368002005265996782430933358587453224405390011",
                            "prev": "5367999700398194895986168084204035187540119699",
                            "typeTag": 1
                        }
                    },
                    {
                        "name": "reserve0",
                        "type": "uint112",
                        "value": {
                            "current": "1647291286085074076085024",
                            "prev": "1666840992267470156283778",
                            "typeTag": 1
                        }
                    },
                    {
                        "name": "reserve1",
                        "type": "uint112",
                        "value": {
                            "current": "45596132798414432788",
                            "prev": "45059763900092997396",
                            "typeTag": 1
                        }
                    },
                    {
                        "name": "blockTimestampLast",
                        "type": "uint32",
                        "value": {
                            "current": "1697721047",
                            "prev": "1697721035",
                            "typeTag": 1
                        }
                    }
                ]
            },
            {
                "address": "0x6b9f031d718dded0d681c20cb754f97b3bb81b78",
                "erc": "ERC-20",
                "slots": [
                    {
                        "current": "0x000000000000000000000000000000000000000000015cd3d6ed0b167de4ab20",
                        "key": "0xc29977865a44700c518357c834d54a46b168c2834ed74d83868c45c9d7bec8b4",
                        "prev": "0x0000000000000000000000000000000000000000000160f7a1999d31ce373f82"
                    },
                    {
                        "current": "0x000000000000000000000000000000000000000000000423caac921b50529462",
                        "key": "0x0c18c99c811a000792b760d2c8fea92643ea39e31f6240de290dfc1c6290b7ef",
                        "prev": "0x0000000000000000000000000000000000000000000000000000000000000000"
                    }
                ],
                "storageVariables": [
                    {
                        "name": "balances",
                        "type": "mapping(address => uint256)",
                        "value": {
                            "pairs": [
                                {
                                    "key": "0x2c814e0346672ce6813f7e1eaf944be8703ec10f",
                                    "value": {
                                        "current": "1647291286085074076085024",
                                        "prev": "1666840992267470156283778",
                                        "typeTag": 1
                                    }
                                },
                                {
                                    "key": "0x7e20e121ded9ed7c67b4971eed536e8f82873df3",
                                    "value": {
                                        "current": "19549706182396080198754",
                                        "prev": "0",
                                        "typeTag": 1
                                    }
                                }
                            ],
                            "typeTag": 4
                        }
                    }
                ]
            },
            {
                "address": "0xc02aaa39b223fe8d0a0e5c4f27ead9083c756cc2",
                "erc": "ERC-20",
                "slots": [
                    {
                        "current": "0x0000000000000000000000000000000000000000000000005bc8bb77df4ef0ff",
                        "key": "0x5d12a140c4ffc0ba08d7597e64732a4ef3720f9c368b7d11f1ac2c408139131f",
                        "prev": "0x000000000000000000000000000000000000000000000000633a4c23b4533bff"
                    },
                    {
                        "current": "0x00000000000000000000000000000000000000000000000278c601339507aa14",
                        "key": "0x8c7365bd07d167863e1611dea09274f2cc6007c60b16387c06e029b6ae077c1c",
                        "prev": "0x00000000000000000000000000000000000000000000000271547087c0035f14"
                    }
                ],
                "storageVariables": [
                    {
                        "name": "balanceOf",
                        "type": "mapping(address => uint256)",
                        "value": {
                            "pairs": [
                                {
                                    "key": "0x1fb421310ceacd0afb2a429bbb4682e522b38ecb",
                                    "value": {
                                        "current": "6613742176315568383",
                                        "prev": "7150111074637003775",
                                        "typeTag": 1
                                    }
                                },
                                {
                                    "key": "0x2c814e0346672ce6813f7e1eaf944be8703ec10f",
                                    "value": {
                                        "current": "45596132798414432788",
                                        "prev": "45059763900092997396",
                                        "typeTag": 1
                                    }
                                }
                            ],
                            "typeTag": 4
                        }
                    }
                ]
            }
        ]
    }
}