{
    "balance_change": {
        "balanceChanges": [
            {
                "account": "0xf1be47527145709a1895872c3f1caf4dab5b6903",
                "assets": [
                    {
                        "address": "0xddf688e96cb2531a69bf6347c02f069266c1aa81",
                        "amount": "22,639,530,025.823763628332525485",
                        "iconUrl": "",
                        "isERC1155": false,
                        "isERC721": false,
                        "sign": false,
                        "value": "1247.243214"
                    }
                ]
            },
            {
                "account": "0xe714e887957e60e4d97775076277cf747ccf6f40",
                "assets": [
                    {
                        "address": "0xddf688e96cb2531a69bf6347c02f069266c1aa81",
                        "amount": "22,639,530,025.823763628332525485",
                        "iconUrl": "",
                        "isERC1155": false,
                        "isERC721": false,
                        "sign": true,
                        "value": "1247.243214"
                    }
                ]
            }
        ]
    },
    "profile": {
        "basic_info": {
            "baseFee": "23.42825425",
            "blockNumber": 17368545,
            "callData": "0xa9059cbb000000000000000000000000e714e887957e60e4d97775076277cf747ccf6f4000000000000000000000000000000000000000004926faf5e706be3adca9a7ad",
            "debugEnable": true,
            "errorInfo": "",
            "eventCount": 1,
            "feeRecipient": "0xe688b84b23f322a994a53dbf8e15fa82cdb71127",
            "formatValue": "0",
            "gasLimit": 78373,
            "gasPrice": "23.52825425",
            "gasUsed": 47449,
            "intTxnCount": 0,
            "internalRevert": false,
            "internalRevertMessage": "",
            "isContractCreation": false,
            "isFlashloan": false,
            "maxFee": "30.377087539",
            "nonce": 7,
            "overwritedBlockNumber": -1,
            "priorityFee": "0.1",
            "receiver": "0xddf688e96cb2531a69bf6347c02f069266c1aa81",
            "revertMessage": "",
            "sender": "0xf1be47527145709a1895872c3f1caf4dab5b6903",
            "simulationEnable": true,
            "sourceTxnHash": "0xa4a6e841544e8b507a1242fc238adaccf047b45e481de9b5ac8b638cd1564fd2",
            "status": true,
            "timestamp": "2023-05-30T01:39:59Z",
            "transactionFee": "0.00111639213590825",
            "txnHash": "0xa4a6e841544e8b507a1242fc238adaccf047b45e481de9b5ac8b638cd1564fd2",
            "txnIndex": 102,
            "type": 2,
            "value": "0"
        },
        "fund_flow": [
            {
                "amount": "22,639,530,025.823763628332525485",
                "from": "0xf1be47527145709a1895872c3f1caf4dab5b6903",
                "id": 1,
                "isERC1155": false,
                "isERC721": false,
                "isReverted": false,
                "order": 1,
                "to": "0xe714e887957e60e4d97775076277cf747ccf6f40",
                "token": "0xddf688e96cb2531a69bf6347c02f069266c1aa81"
            }
        ],
        "token_infos": [
            {
                "address": "0xc02aaa39b223fe8d0a0e5c4f27ead9083c756cc2",
                "decimals": 18
            },
            {
                "address": "0xddf688e96cb2531a69bf6347c02f069266c1aa81",
                "decimals": 18
            },
            {
                "address": "0xeeeeeeeeeeeeeeeeeeeeeeeeeeeeeeeeeeeeeeee",
                "decimals": 18
            }
        ]
    },
    "address_label": {
        "labels": [
            {
                "address": "0xeeeeeeeeeeeeeeeeeeeeeeeeeeeeeeeeeeeeeeee",
                "label": "Ether"
            },
            {
                "address": "0xddf688e96cb2531a69bf6347c02f069266c1aa81",
                "label": "Memevengers: MMVG Token"
            },
            {
                "address": "0xe714e887957e60e4d97775076277cf747ccf6f40",
                "label": "MEXC"
            },
            {
                "address": "0x0000000000000000000000000000000000000001",
                "label": "Precompiled"
            },
            {
                "address": "0x0000000000000000000000000000000000000002",
                "label": "Precompiled"
            },
            {
                "address": "0x0000000000000000000000000000000000000003",
                "label": "Precompiled"
            },
            {
                "address": "0x0000000000000000000000000000000000000004",
                "label": "Precompiled"
            }
        ]
    },
    "trace": {
        "accountLabels": null,
        "dataMap": {
            "-1": {
                "invocation": {
                    "address": "0xf1be47527145709a1895872c3f1caf4dab5b6903",
                    "callData": "",
                    "decodedMethod": null,
                    "errorInfo": "",
                    "fromAddress": "",
                    "gasUsed": 0,
                    "id": -1,
                    "methodDecoded": false,
                    "operation": "",
                    "output": "",
                    "revert": false,
                    "revertMessage": "",
                    "selector": "",
                    "status": false,
                    "value": ""
                },
                "nodeType": 0
            },
            "0": {
                "invocation": {
                    "address": "0xddf688e96cb2531a69bf6347c02f069266c1aa81",
                    "callData": "0x000000000000000000000000e714e887957e60e4d97775076277cf747ccf6f4000000000000000000000000000000000000000004926faf5e706be3adca9a7ad",
                    "decodedMethod": {
                        "callParams": [
                            {
                                "name": "to",
                                "type": "address",
                                "value": "0xe714e887957e60e4d97775076277cf747ccf6f40"
                            },
                            {
                                "decimalAvailable": true,
                                "name": "amount",
                                "type": "uint256",
                                "value": "22,639,530,025,823,763,628,332,525,485"
                            }
                        ],
                        "constructorArguments": "",
                        "name": "transfer",
                        "returnParams": [
                            {
                                "name": "",
                                "type": "bool",
                                "value": true
                            }
                        ],
                        "signature": "transfer(address,uint256)"
                    },
                    "errorInfo": "",
                    "fromAddress": "0xf1be47527145709a1895872c3f1caf4dab5b6903",
                    "gasUsed": 47449,
                    "id": 0,
                    "methodDecoded": true,
                    "operation": "CALL",
                    "output": "0x0000000000000000000000000000000000000000000000000000000000000001",
                    "revert": false,
                    "revertMessage": "",
                    "selector": "0xa9059cbb",
                    "status": true,
                    "value": "0"
                },
                "nodeType": 0
            },
            "1": {
                "event": {
                    "contract": "0xddf688e96cb2531a69bf6347c02f069266c1aa81",
                    "decodedLog": {
                        "name": "Transfer",
                        "params": [
                            {
                                "name": "from",
                                "type": "address",
                                "value": "0xf1be47527145709a1895872c3f1caf4dab5b6903"
                            },
                            {
                                "name": "to",
                                "type": "address",
                                "value": "0xe714e887957e60e4d97775076277cf747ccf6f40"
                            },
                            {
                                "decimalAvailable": true,
                                "name": "value",
                                "type": "uint256",
                                "value": "22,639,530,025,823,763,628,332,525,485"
                            }
                        ],
                        "signature": "Transfer(address,address,uint256)"
                    },
                    "id": 1,
                    "logData": "0x00000000000000000000000000000000000000004926faf5e706be3adca9a7ad",
                    "logDecoded": true,
                    "operation": "EVENT",
                    "revert": false,
                    "status": true,
                    "topics": [
                        "0xddf252ad1be2c89b69c2b068fc378daa952ba7f163c4a11628f55a4df523b3ef",
                        "0x000000000000000000000000f1be47527145709a1895872c3f1caf4dab5b6903",
                        "0x000000000000000000000000e714e887957e60e4d97775076277cf747ccf6f40"
                    ]
                },
                "nodeType": 1
            }
        },
        "gasFlame": [
            {
                "children": [
                    {
                        "children": [
                            {
                                "children": [],
                                "depth": 0,
                                "name": "Initial Gas",
                                "value": 21704
                            },
                            {
                                "children": [],
                                "depth": 0,
                                "name": "Executed Gas",
                                "value": 30545
                            }
                        ],
                        "depth": -1,
                        "name": "Actual Gas Used",
                        "value": 47449
                    },
                    {
                        "children": [],
                        "depth": -1,
                        "name": "Refunded Gas",
                        "value": 4800
                    }
                ],
                "depth": -2,
                "name": "Total Gas",
                "value": 52249
            }
        ],
        "isConfirmed": true,
        "mainTrace": [
            {
                "children": [
                    {
                        "children": [
                            {
                                "children": [],
                                "depth": 1,
                                "id": 1,
                                "order": 1
                            }
                        ],
                        "depth": 0,
                        "id": 0,
                        "order": 0
                    }
                ],
                "depth": -1,
                "id": -1,
                "order": -1
            }
        ],
        "mainTraceNodeCount": 2,
        "parentIdMap": {
            "0": -1,
            "1": 0
        },
        "tidyTrace": [
            {
                "children": [
                    {
                        "children": [
                            {
                                "children": [],
                                "depth": 1,
                                "id": 1,
                                "order": 1
                            }
                        ],
                        "depth": 0,
                        "id": 0,
                        "order": 0
                    }
                ],
                "depth": -1,
                "id": -1,
                "order": -1
            }
        ],
        "tidyTraceNodeCount": 2
    },
    "state_change": {
        "stateChanges": [
            {
                "address": "0xddf688e96cb2531a69bf6347c02f069266c1aa81",
                "erc": "ERC-20",
                "slots": [
                    {
                        "current": "0x0000000000000000000000000000000000000000000000000000000000000000",
                        "key": "0xe3f3d599daba706b8770ed48a0bfc6917cae203ad0e9076c27f8b799205cd8e3",
                        "prev": "0x00000000000000000000000000000000000000004926faf5e706be3adca9a7ad"
                    },
                    {
                        "current": "0x00000000000000000000000000000000000000004926faf5e706be3adca9a7ad",
                        "key": "0x1ad81e474dbc0323383b2d59a8d23140eb9bd4ca1c50f737b222fcaa57dde662",
                        "prev": "0x0000000000000000000000000000000000000000000000000000000000000000"
                    }
                ],
                "storageVariables": [
                    {
                        "name": "_balances",
                        "type": "mapping(address => uint256)",
                        "value": {
                            "pairs": [
                                {
                                    "key": "0xe714e887957e60e4d97775076277cf747ccf6f40",
                                    "value": {
                                        "current": "22639530025823763628332525485",
                                        "prev": "0",
                                        "typeTag": 1
                                    }
                                },
                                {
                                    "key": "0xf1be47527145709a1895872c3f1caf4dab5b6903",
                                    "value": {
                                        "current": "0",
                                        "prev": "22639530025823763628332525485",
                                        "typeTag": 1
                                    }
                                }
                            ],
                            "typeTag": 4
                        }
                    }
                ]
            }
        ]
    }
}