{
    "balance_change": {
        "balanceChanges": [
            {
                "account": "0x340d693ed55d7ba167d184ea76ea2fd092a35bdc",
                "assets": [
                    {
                        "address": "0xa0b86991c6218b36c1d19d4a2e9eb0ce3606eb48",
                        "amount": "4,997.4276",
                        "iconUrl": "https://assets.blocksec.com/icon/0347a86cc07dbd03fdc5db01a4e5ac7e1217f90e0b6e4bb0f75cbcca09160989.png",
                        "isERC1155": false,
                        "isERC721": false,
                        "sign": true,
                        "value": "4999.25311"
                    }
                ]
            },
            {
                "account": "0x9f6fa3c804ea7f16efbf998a429ce6089da93bc8",
                "assets": [
                    {
                        "address": "0xa0b86991c6218b36c1d19d4a2e9eb0ce3606eb48",
                        "amount": "4,997.4276",
                        "iconUrl": "https://assets.blocksec.com/icon/0347a86cc07dbd03fdc5db01a4e5ac7e1217f90e0b6e4bb0f75cbcca09160989.png",
                        "isERC1155": false,
                        "isERC721": false,
                        "sign": false,
                        "value": "4999.25311"
                    }
                ]
            }
        ]
    },
    "profile": {
        "basic_info": {
            "baseFee": "58.194978125",
            "blockNumber": 13205342,
            "callData": "0x23b872dd0000000000000000000000009f6fa3c804ea7f16efbf998a429ce6089da93bc8000000000000000000000000340d693ed55d7ba167d184ea76ea2fd092a35bdc0000000000000000000000000000000000000000000000000000000129deb190",
            "debugEnable": true,
            "errorInfo": "",
            "eventCount": 1,
            "feeRecipient": "0xea674fdde714fd979de3edf0f56aa9716b898ec8",
            "formatValue": "0",
            "gasLimit": 70000,
            "gasPrice": "79.977",
            "gasUsed": 50080,
            "intTxnCount": 1,
            "internalRevert": false,
            "internalRevertMessage": "",
            "isContractCreation": false,
            "isFlashloan": false,
            "maxFee": "",
            "nonce": 729430,
            "overwritedBlockNumber": -1,
            "priorityFee": "",
            "receiver": "0xa0b86991c6218b36c1d19d4a2e9eb0ce3606eb48",
            "revertMessage": "",
            "sender": "0x340d693ed55d7ba167d184ea76ea2fd092a35bdc",
            "simulationEnable": true,
            "sourceTxnHash": "0xa479adea496a2a92611228a31299a6096fca9c01051c452743b4a997e06f66cb",
            "status": true,
            "timestamp": "2021-09-11T15:46:29Z",
            "transactionFee": "0.00400524816",
            "txnHash": "0xa479adea496a2a92611228a31299a6096fca9c01051c452743b4a997e06f66cb",
            "txnIndex": 141,
            "type": 0,
            "value": "0"
        },
        "fund_flow": [
            {
                "amount": "4,997.4276",
                "from": "0x9f6fa3c804ea7f16efbf998a429ce6089da93bc8",
                "id": 1,
                "isERC1155": false,
                "isERC721": false,
                "isReverted": false,
                "order": 1,
                "to": "0x340d693ed55d7ba167d184ea76ea2fd092a35bdc",
                "token": "0xa0b86991c6218b36c1d19d4a2e9eb0ce3606eb48"
            }
        ],
        "token_infos": [
            {
                "address": "0xa0b86991c6218b36c1d19d4a2e9eb0ce3606eb48",
                "decimals": 6
            },
            {
                "address": "0xc02aaa39b223fe8d0a0e5c4f27ead9083c756cc2",
                "decimals": 18
            },
            {
                "address": "0xeeeeeeeeeeeeeeeeeeeeeeeeeeeeeeeeeeeeeeee",
                "decimals": 18
            }
        ]
    },
    "address_label": {
        "labels": [
            {
                "address": "0x340d693ed55d7ba167d184ea76ea2fd092a35bdc",
                "label": "Uphold.com"
            },
            {
                "address": "0xa2327a938febf5fec13bacfb16ae10ecbc4cbdcf",
                "label": "FiatTokenV2_1"
            },
            {
                "address": "0x9f6fa3c804ea7f16efbf998a429ce6089da93bc8",
                "label": "UPHOLD"
            },
            {
                "address": "0x0000000000000000000000000000000000000002",
                "label": "Precompiled"
            },
            {
                "address": "0x0000000000000000000000000000000000000004",
                "label": "Precompiled"
            },
            {
                "address": "0xeeeeeeeeeeeeeeeeeeeeeeeeeeeeeeeeeeeeeeee",
                "label": "Ether"
            },
            {
                "address": "0x0000000000000000000000000000000000000001",
                "label": "Precompiled"
            },
            {
                "address": "0x0000000000000000000000000000000000000003",
                "label": "Precompiled"
            },
            {
                "address": "0xa0b86991c6218b36c1d19d4a2e9eb0ce3606eb48",
                "label": "Circle: USDC Token"
            }
        ]
    },
    "trace": {
        "accountLabels": null,
        "dataMap": {
            "-1": {
                "invocation": {
                    "address": "0x340d693ed55d7ba167d184ea76ea2fd092a35bdc",
                    "callData": "",
                    "decodedMethod": null,
                    "errorInfo": "",
                    "fromAddress": "",
                    "gasUsed": 0,
                    "id": -1,
                    "methodDecoded": false,
                    "operation": "",
                    "output": "",
                    "revert": false,
                    "revertMessage": "",
                    "selector": "",
                    "status": false,
                    "value": ""
                },
                "nodeType": 0
            },
            "0": {
                "invocation": {
                    "address": "0xa0b86991c6218b36c1d19d4a2e9eb0ce3606eb48",
                    "callData": "0x0000000000000000000000009f6fa3c804ea7f16efbf998a429ce6089da93bc8000000000000000000000000340d693ed55d7ba167d184ea76ea2fd092a35bdc0000000000000000000000000000000000000000000000000000000129deb190",
                    "decodedMethod": {
                        "callParams": [
                            {
                                "name": "from",
                                "type": "address",
                                "value": "0x9f6fa3c804ea7f16efbf998a429ce6089da93bc8"
                            },
                            {
                                "name": "to",
                                "type": "address",
                                "value": "0x340d693ed55d7ba167d184ea76ea2fd092a35bdc"
                            },
                            {
                                "decimalAvailable": true,
                                "name": "value",
                                "type": "uint256",
                                "value": "4,997,427,600"
                            }
                        ],
                        "constructorArguments": "",
                        "name": "transferFrom",
                        "returnParams": [
                            {
                                "name": "",
                                "type": "bool",
                                "value": true
                            }
                        ],
                        "signature": "transferFrom(address,address,uint256)"
                    },
                    "errorInfo": "",
                    "fromAddress": "0x340d693ed55d7ba167d184ea76ea2fd092a35bdc",
                    "gasUsed": 50080,
                    "id": 0,
                    "methodDecoded": true,
                    "operation": "CALL",
                    "output": "0x0000000000000000000000000000000000000000000000000000000000000001",
                    "revert": false,
                    "revertMessage": "",
                    "selector": "0x23b872dd",
                    "status": true,
                    "value": "0"
                },
                "nodeType": 0
            },
            "1": {
                "invocation": {
                    "address": "0xa2327a938febf5fec13bacfb16ae10ecbc4cbdcf",
                    "callData": "0x0000000000000000000000009f6fa3c804ea7f16efbf998a429ce6089da93bc8000000000000000000000000340d693ed55d7ba167d184ea76ea2fd092a35bdc0000000000000000000000000000000000000000000000000000000129deb190",
                    "decodedMethod": {
                        "callParams": [
                            {
                                "name": "from",
                                "type": "address",
                                "value": "0x9f6fa3c804ea7f16efbf998a429ce6089da93bc8"
                            },
                            {
                                "name": "to",
                                "type": "address",
                                "value": "0x340d693ed55d7ba167d184ea76ea2fd092a35bdc"
                            },
                            {
                                "decimalAvailable": true,
                                "name": "value",
                                "type": "uint256",
                                "value": "4,997,427,600"
                            }
                        ],
                        "constructorArguments": "",
                        "name": "transferFrom",
                        "returnParams": [
                            {
                                "name": "",
                                "type": "bool",
                                "value": true
                            }
                        ],
                        "signature": "transferFrom(address,address,uint256)"
                    },
                    "errorInfo": "",
                    "fromAddress": "0xa0b86991c6218b36c1d19d4a2e9eb0ce3606eb48",
                    "gasUsed": 25597,
                    "id": 1,
                    "methodDecoded": true,
                    "operation": "DELEGATECALL",
                    "output": "0x0000000000000000000000000000000000000000000000000000000000000001",
                    "revert": false,
                    "revertMessage": "",
                    "selector": "0x23b872dd",
                    "status": true,
                    "value": "0"
                },
                "nodeType": 0
            },
            "2": {
                "event": {
                    "contract": "0xa0b86991c6218b36c1d19d4a2e9eb0ce3606eb48",
                    "decodedLog": {
                        "name": "Transfer",
                        "params": [
                            {
                                "name": "from",
                                "type": "address",
                                "value": "0x9f6fa3c804ea7f16efbf998a429ce6089da93bc8"
                            },
                            {
                                "name": "to",
                                "type": "address",
                                "value": "0x340d693ed55d7ba167d184ea76ea2fd092a35bdc"
                            },
                            {
                                "decimalAvailable": true,
                                "name": "value",
                                "type": "uint256",
                                "value": "4,997,427,600"
                            }
                        ],
                        "signature": "Transfer(address,address,uint256)"
                    },
                    "id": 2,
                    "logData": "0x0000000000000000000000000000000000000000000000000000000129deb190",
                    "logDecoded": true,
                    "operation": "EVENT",
                    "revert": false,
                    "status": true,
                    "topics": [
                        "0xddf252ad1be2c89b69c2b068fc378daa952ba7f163c4a11628f55a4df523b3ef",
                        "0x0000000000000000000000009f6fa3c804ea7f16efbf998a429ce6089da93bc8",
                        "0x000000000000000000000000340d693ed55d7ba167d184ea76ea2fd092a35bdc"
                    ]
                },
                "nodeType": 1
            }
        },
        "gasFlame": [
            {
                "children": [
                    {
                        "children": [
                            {
                                "children": [],
                                "depth": 0,
                                "name": "Initial Gas",
                                "value": 21988
                            },
                            {
                                "children": [
                                    {
                                        "children": [],
                                        "depth": 1,
                                        "name": "transferFrom",
                                        "value": 25597
                                    }
                                ],
                                "depth": 0,
                                "name": "Executed Gas",
                                "value": 32892
                            }
                        ],
                        "depth": -1,
                        "name": "Actual Gas Used",
                        "value": 50080
                    },
                    {
                        "children": [],
                        "depth": -1,
                        "name": "Refunded Gas",
                        "value": 4800
                    }
                ],
                "depth": -2,
                "name": "Total Gas",
                "value": 54880
            }
        ],
        "isConfirmed": true,
        "mainTrace": [
            {
                "children": [
                    {
                        "children": [
                            {
                                "children": [
                                    {
                                        "children": [],
                                        "depth": 2,
                                        "id": 2,
                                        "order": 2
                                    }
                                ],
                                "depth": 1,
                                "id": 1,
                                "order": 1
                            }
                        ],
                        "depth": 0,
                        "id": 0,
                        "order": 0
                    }
                ],
                "depth": -1,
                "id": -1,
                "order": -1
            }
        ],
        "mainTraceNodeCount": 3,
        "parentIdMap": {
            "0": -1,
            "1": 0,
            "2": 1
        },
        "tidyTrace": [
            {
                "children": [
                    {
                        "children": [
                            {
                                "children": [
                                    {
                                        "children": [],
                                        "depth": 2,
                                        "id": 2,
                                        "order": 2
                                    }
                                ],
                                "depth": 1,
                                "id": 1,
                                "order": 1
                            }
                        ],
                        "depth": 0,
                        "id": 0,
                        "order": 0
                    }
                ],
                "depth": -1,
                "id": -1,
                "order": -1
            }
        ],
        "tidyTraceNodeCount": 3
    },
    "state_change": {
        "stateChanges": [
            {
                "address": "0xa0b86991c6218b36c1d19d4a2e9eb0ce3606eb48",
                "erc": "ERC-20",
                "slots": [
                    {
                        "current": "0x0000000000000000000000000000000000000000000000000000000000000000",
                        "key": "0x84b5b808d6804d7591604756454f19f2f5a621a1f76a5f87dde7ed7d3bbf211f",
                        "prev": "0x0000000000000000000000000000000000000000000000000000000129deb190"
                    },
                    {
                        "current": "0x000000000000000000000000000000000000000000000000000008001a4a5040",
                        "key": "0x24446b9fa2c250e65ac14d782046a80a0439cdca599d2529572d50dd5add9809",
                        "prev": "0x000000000000000000000000000000000000000000000000000007fef06b9eb0"
                    },
                    {
                        "current": "0x0000000000000000000000000000000000c097ce7bc90715b34b9f0ed6214e70",
                        "key": "0xe5c20285bc96abc7fd4d386abf608220b6b3c5888bfaf80920ba06127eb414d9",
                        "prev": "0x0000000000000000000000000000000000c097ce7bc90715b34b9f1000000000"
                    }
                ],
                "storageVariables": [
                    {
                        "name": "balances",
                        "type": "mapping(address => uint256)",
                        "value": {
                            "pairs": [
                                {
                                    "key": "0x340d693ed55d7ba167d184ea76ea2fd092a35bdc",
                                    "value": {
                                        "current": "8796534100032",
                                        "prev": "8791536672432",
                                        "typeTag": 1
                                    }
                                },
                                {
                                    "key": "0x9f6fa3c804ea7f16efbf998a429ce6089da93bc8",
                                    "value": {
                                        "current": "0",
                                        "prev": "4997427600",
                                        "typeTag": 1
                                    }
                                }
                            ],
                            "typeTag": 4
                        }
                    },
                    {
                        "name": "allowed",
                        "type": "mapping(address => mapping(address => uint256))",
                        "value": {
                            "pairs": [
                                {
                                    "key": "0x9f6fa3c804ea7f16efbf998a429ce6089da93bc8",
                                    "value": {
                                        "pairs": [
                                            {
                                                "key": "0x340d693ed55d7ba167d184ea76ea2fd092a35bdc",
                                                "value": {
                                                    "current": "999999999999999999999999995002572400",
                                                    "prev": "1000000000000000000000000000000000000",
                                                    "typeTag": 1
                                                }
                                            }
                                        ],
                                        "typeTag": 4
                                    }
                                }
                            ],
                            "typeTag": 4
                        }
                    }
                ]
            }
        ]
    }
}