{
    "balance_change": {
        "balanceChanges": []
    },
    "profile": {
        "basic_info": {
            "baseFee": "28.506516078",
            "blockNumber": 16937004,
            "callData": "0x711746e200000000000000000000000000000000000000000000000000000000000000200000000000000000000000000000000000000000000000000000000000000001000000000000000000000000000000000000000000000000000000000000009a00000000000000000000000000000000000000000000000000000000000bf41a00000000000000000000000000000000000000000000000000000005412904630000000000000000000000000000000000000000000000000000000000000010",
            "debugEnable": true,
            "errorInfo": "",
            "eventCount": 0,
            "feeRecipient": "0x690b9a9e9aa1c9db991c7721a92d351db4fac990",
            "formatValue": "0",
            "gasLimit": 98476,
            "gasPrice": "32.40760678",
            "gasUsed": 38038,
            "intTxnCount": 1,
            "internalRevert": false,
            "internalRevertMessage": "",
            "isContractCreation": false,
            "isFlashloan": false,
            "maxFee": "",
            "nonce": 134961,
            "overwritedBlockNumber": -1,
            "priorityFee": "",
            "receiver": "0xc3ce5497f8dca2481e4fa8fd71c42bea9158c6b4",
            "revertMessage": "",
            "sender": "0x339d413ccefd986b1b3647a9cfa9cbbe70a30749",
            "simulationEnable": true,
            "sourceTxnHash": "0xa47a5029e04347254c66887ca69c750d607241c719d5f3966b6b1df2a6bad71b",
            "status": true,
            "timestamp": "2023-03-30T02:10:35Z",
            "transactionFee": "0.00123272054669764",
            "txnHash": "0xa47a5029e04347254c66887ca69c750d607241c719d5f3966b6b1df2a6bad71b",
            "txnIndex": 18,
            "type": 0,
            "value": "0"
        },
        "fund_flow": [],
        "token_infos": [
            {
                "address": "0xc02aaa39b223fe8d0a0e5c4f27ead9083c756cc2",
                "decimals": 18
            },
            {
                "address": "0xeeeeeeeeeeeeeeeeeeeeeeeeeeeeeeeeeeeeeeee",
                "decimals": 18
            }
        ]
    },
    "address_label": {
        "labels": [
            {
                "address": "0xeeeeeeeeeeeeeeeeeeeeeeeeeeeeeeeeeeeeeeee",
                "label": "Ether"
            },
            {
                "address": "0xc3ce5497f8dca2481e4fa8fd71c42bea9158c6b4",
                "label": "OptimizedTransparentUpgradeableProxy"
            },
            {
                "address": "0x0000000000000000000000000000000000000001",
                "label": "Precompiled"
            },
            {
                "address": "0x0000000000000000000000000000000000000002",
                "label": "Precompiled"
            },
            {
                "address": "0x0000000000000000000000000000000000000003",
                "label": "Precompiled"
            },
            {
                "address": "0x0000000000000000000000000000000000000004",
                "label": "Precompiled"
            }
        ]
    },
    "trace": {
        "accountLabels": null,
        "dataMap": {
            "-1": {
                "invocation": {
                    "address": "0x339d413ccefd986b1b3647a9cfa9cbbe70a30749",
                    "callData": "",
                    "decodedMethod": null,
                    "errorInfo": "",
                    "fromAddress": "",
                    "gasUsed": 0,
                    "id": -1,
                    "methodDecoded": false,
                    "operation": "",
                    "output": "",
                    "revert": false,
                    "revertMessage": "",
                    "selector": "",
                    "status": false,
                    "value": ""
                },
                "nodeType": 0
            },
            "0": {
                "invocation": {
                    "address": "0xc3ce5497f8dca2481e4fa8fd71c42bea9158c6b4",
                    "callData": "0x00000000000000000000000000000000000000000000000000000000000000200000000000000000000000000000000000000000000000000000000000000001000000000000000000000000000000000000000000000000000000000000009a00000000000000000000000000000000000000000000000000000000000bf41a00000000000000000000000000000000000000000000000000000005412904630000000000000000000000000000000000000000000000000000000000000010",
                    "decodedMethod": {
                        "callParams": [
                            {
                                "name": "_price",
                                "type": "(uint16,(uint128,uint64,uint32))[]",
                                "value": [
                                    [
                                        {
                                            "name": "chainId",
                                            "type": "uint16",
                                            "value": "154"
                                        },
                                        {
                                            "name": "price",
                                            "type": "(uint128,uint64,uint32)",
                                            "value": [
                                                {
                                                    "name": "priceRatio",
                                                    "type": "uint128",
                                                    "value": "783,386"
                                                },
                                                {
                                                    "name": "gasPriceInUnit",
                                                    "type": "uint64",
                                                    "value": "22,568,043,619"
                                                },
                                                {
                                                    "name": "gasPerByte",
                                                    "type": "uint32",
                                                    "value": "16"
                                                }
                                            ]
                                        }
                                    ]
                                ]
                            }
                        ],
                        "constructorArguments": "",
                        "name": "setPrice",
                        "returnParams": [],
                        "signature": "setPrice((uint16,(uint128,uint64,uint32))[])"
                    },
                    "errorInfo": "",
                    "fromAddress": "0x339d413ccefd986b1b3647a9cfa9cbbe70a30749",
                    "gasUsed": 38038,
                    "id": 0,
                    "methodDecoded": true,
                    "operation": "CALL",
                    "output": "",
                    "revert": false,
                    "revertMessage": "",
                    "selector": "0x711746e2",
                    "status": true,
                    "value": "0"
                },
                "nodeType": 0
            },
            "1": {
                "invocation": {
                    "address": "0xb26ac124db9439edb7de503ef62e3d3d4e29090c",
                    "callData": "0x00000000000000000000000000000000000000000000000000000000000000200000000000000000000000000000000000000000000000000000000000000001000000000000000000000000000000000000000000000000000000000000009a00000000000000000000000000000000000000000000000000000000000bf41a00000000000000000000000000000000000000000000000000000005412904630000000000000000000000000000000000000000000000000000000000000010",
                    "decodedMethod": {
                        "callParams": [
                            {
                                "name": "_price",
                                "type": "(uint16,(uint128,uint64,uint32))[]",
                                "value": [
                                    [
                                        {
                                            "name": "chainId",
                                            "type": "uint16",
                                            "value": "154"
                                        },
                                        {
                                            "name": "price",
                                            "type": "(uint128,uint64,uint32)",
                                            "value": [
                                                {
                                                    "name": "priceRatio",
                                                    "type": "uint128",
                                                    "value": "783,386"
                                                },
                                                {
                                                    "name": "gasPriceInUnit",
                                                    "type": "uint64",
                                                    "value": "22,568,043,619"
                                                },
                                                {
                                                    "name": "gasPerByte",
                                                    "type": "uint32",
                                                    "value": "16"
                                                }
                                            ]
                                        }
                                    ]
                                ]
                            }
                        ],
                        "constructorArguments": "",
                        "name": "setPrice",
                        "returnParams": [],
                        "signature": "setPrice((uint16,(uint128,uint64,uint32))[])"
                    },
                    "errorInfo": "",
                    "fromAddress": "0xc3ce5497f8dca2481e4fa8fd71c42bea9158c6b4",
                    "gasUsed": 10941,
                    "id": 1,
                    "methodDecoded": true,
                    "operation": "DELEGATECALL",
                    "output": "",
                    "revert": false,
                    "revertMessage": "",
                    "selector": "0x711746e2",
                    "status": true,
                    "value": "0"
                },
                "nodeType": 0
            }
        },
        "gasFlame": [
            {
                "children": [
                    {
                        "children": [
                            {
                                "children": [],
                                "depth": 0,
                                "name": "Initial Gas",
                                "value": 21976
                            },
                            {
                                "children": [
                                    {
                                        "children": [],
                                        "depth": 1,
                                        "name": "setPrice",
                                        "value": 10941
                                    }
                                ],
                                "depth": 0,
                                "name": "Executed Gas",
                                "value": 16062
                            }
                        ],
                        "depth": -1,
                        "name": "Actual Gas Used",
                        "value": 38038
                    },
                    {
                        "children": [],
                        "depth": -1,
                        "name": "Refunded Gas",
                        "value": 0
                    }
                ],
                "depth": -2,
                "name": "Total Gas",
                "value": 38038
            }
        ],
        "isConfirmed": true,
        "mainTrace": [
            {
                "children": [
                    {
                        "children": [
                            {
                                "children": [],
                                "depth": 1,
                                "id": 1,
                                "order": 1
                            }
                        ],
                        "depth": 0,
                        "id": 0,
                        "order": 0
                    }
                ],
                "depth": -1,
                "id": -1,
                "order": -1
            }
        ],
        "mainTraceNodeCount": 2,
        "parentIdMap": {
            "0": -1,
            "1": 0
        },
        "tidyTrace": [
            {
                "children": [
                    {
                        "children": [
                            {
                                "children": [],
                                "depth": 1,
                                "id": 1,
                                "order": 1
                            }
                        ],
                        "depth": 0,
                        "id": 0,
                        "order": 0
                    }
                ],
                "depth": -1,
                "id": -1,
                "order": -1
            }
        ],
        "tidyTraceNodeCount": 2
    },
    "state_change": {
        "stateChanges": [
            {
                "address": "0xc3ce5497f8dca2481e4fa8fd71c42bea9158c6b4",
                "erc": "",
                "slots": [
                    {
                        "current": "0x00000000000000100000000541290463000000000000000000000000000bf41a",
                        "key": "0xe53b82348f259ade746b8f69d800b67e165ac473ababc89b1e329ffcc9476b21",
                        "prev": "0x0000000000000010000000068f9ee19b000000000000000000000000000bf38d"
                    }
                ],
                "storageVariables": []
            }
        ]
    }
}