{
    "balance_change": {
        "balanceChanges": [
            {
                "account": "0xc6d33edaa7343882728e8d13aa5041048e37faff",
                "assets": [
                    {
                        "address": "0xa351b769a01b445c04aa1b8e6275e03ec05c1e75",
                        "amount": "1",
                        "iconUrl": "",
                        "isERC1155": false,
                        "isERC721": true,
                        "sign": false,
                        "tokenID": "5647",
                        "value": ""
                    }
                ]
            },
            {
                "account": "0xa351b769a01b445c04aa1b8e6275e03ec05c1e75",
                "assets": [
                    {
                        "address": "0xa351b769a01b445c04aa1b8e6275e03ec05c1e75",
                        "amount": "1",
                        "iconUrl": "",
                        "isERC1155": false,
                        "isERC721": true,
                        "sign": true,
                        "tokenID": "5647",
                        "value": ""
                    }
                ]
            }
        ]
    },
    "profile": {
        "basic_info": {
            "baseFee": "80.719070002",
            "blockNumber": 14218409,
            "callData": "0x5ea1f2fa00000000000000000000000000000000000000000000000000000000000000c0000000000000000000000000000000000000000000000000000000000000000600000000000000000000000000000000000000000000000000000000000000010000000000000000000000000000000000000000000000000000000000000000000000000000000000000000000000000000000000000000000000000000000100000000000000000000000000000000000000000000000000000000000000000000000000000000000000000000000000000000000000000000000000000002000000000000000000000000000000000000000000000000000000000000160f0000000000000000000000000000000000000000000000000000000000000b4f",
            "debugEnable": true,
            "errorInfo": "",
            "eventCount": 7,
            "feeRecipient": "0x4069e799da927c06b430e247b2ee16c03e8b837d",
            "formatValue": "0",
            "gasLimit": 238245,
            "gasPrice": "82.219070002",
            "gasUsed": 151810,
            "intTxnCount": 5,
            "internalRevert": false,
            "internalRevertMessage": "",
            "isContractCreation": false,
            "isFlashloan": false,
            "maxFee": "104.727527003",
            "nonce": 836,
            "overwritedBlockNumber": -1,
            "priorityFee": "1.5",
            "receiver": "0xa351b769a01b445c04aa1b8e6275e03ec05c1e75",
            "revertMessage": "",
            "sender": "0xc6d33edaa7343882728e8d13aa5041048e37faff",
            "simulationEnable": true,
            "sourceTxnHash": "0xa5fb59493d69855390a9ab8839d2be931c794805d8adebdc0e6d26d686185d88",
            "status": true,
            "timestamp": "2022-02-16T17:08:58Z",
            "transactionFee": "0.01248167701700362",
            "txnHash": "0xa5fb59493d69855390a9ab8839d2be931c794805d8adebdc0e6d26d686185d88",
            "txnIndex": 44,
            "type": 2,
            "value": "0"
        },
        "fund_flow": [
            {
                "amount": "1",
                "from": "0xc6d33edaa7343882728e8d13aa5041048e37faff",
                "id": 1,
                "isERC1155": false,
                "isERC721": true,
                "isReverted": false,
                "order": 1,
                "to": "0xa351b769a01b445c04aa1b8e6275e03ec05c1e75",
                "token": "0xa351b769a01b445c04aa1b8e6275e03ec05c1e75",
                "tokenID": "5647"
            }
        ],
        "token_infos": [
            {
                "address": "0xc02aaa39b223fe8d0a0e5c4f27ead9083c756cc2",
                "decimals": 18
            },
            {
                "address": "0xeeeeeeeeeeeeeeeeeeeeeeeeeeeeeeeeeeeeeeee",
                "decimals": 18
            }
        ]
    },
    "address_label": {
        "labels": [
            {
                "address": "0x0000000000000000000000000000000000000003",
                "label": "Precompiled"
            },
            {
                "address": "0x0000000000000000000000000000000000000004",
                "label": "Precompiled"
            },
            {
                "address": "0x196a529aacce4189e5fbe2b4569bc9a925741fad",
                "label": "EthernalElvesV2"
            },
            {
                "address": "0x367dd3a23451b8cc94f7ec1ecc5b3db3745d254e",
                "label": "TransparentUpgradeableProxy"
            },
            {
                "address": "0xcad981ea69c29debcbf1d67354614d671dc1a743",
                "label": "ElfCampaignsV3"
            },
            {
                "address": "0x0000000000000000000000000000000000000001",
                "label": "Precompiled"
            },
            {
                "address": "0x0000000000000000000000000000000000000002",
                "label": "Precompiled"
            },
            {
                "address": "0xeeeeeeeeeeeeeeeeeeeeeeeeeeeeeeeeeeeeeeee",
                "label": "Ether"
            },
            {
                "address": "0xa351b769a01b445c04aa1b8e6275e03ec05c1e75",
                "label": "Ethernal Elves: ELV Token"
            }
        ]
    },
    "trace": {
        "accountLabels": null,
        "dataMap": {
            "-1": {
                "invocation": {
                    "address": "0xc6d33edaa7343882728e8d13aa5041048e37faff",
                    "callData": "",
                    "decodedMethod": null,
                    "errorInfo": "",
                    "fromAddress": "",
                    "gasUsed": 0,
                    "id": -1,
                    "methodDecoded": false,
                    "operation": "",
                    "output": "",
                    "revert": false,
                    "revertMessage": "",
                    "selector": "",
                    "status": false,
                    "value": ""
                },
                "nodeType": 0
            },
            "0": {
                "invocation": {
                    "address": "0xa351b769a01b445c04aa1b8e6275e03ec05c1e75",
                    "callData": "0x00000000000000000000000000000000000000000000000000000000000000c0000000000000000000000000000000000000000000000000000000000000000600000000000000000000000000000000000000000000000000000000000000010000000000000000000000000000000000000000000000000000000000000000000000000000000000000000000000000000000000000000000000000000000100000000000000000000000000000000000000000000000000000000000000000000000000000000000000000000000000000000000000000000000000000002000000000000000000000000000000000000000000000000000000000000160f0000000000000000000000000000000000000000000000000000000000000b4f",
                    "decodedMethod": {
                        "callParams": [
                            {
                                "name": "ids",
                                "type": "uint256[]",
                                "value": [
                                    "5,647",
                                    "2,895"
                                ]
                            },
                            {
                                "name": "campaign_",
                                "type": "uint256",
                                "value": "6"
                            },
                            {
                                "name": "sector_",
                                "type": "uint256",
                                "value": "1"
                            },
                            {
                                "name": "rollWeapons_",
                                "type": "bool",
                                "value": false
                            },
                            {
                                "name": "rollItems_",
                                "type": "bool",
                                "value": true
                            },
                            {
                                "name": "useitem_",
                                "type": "bool",
                                "value": false
                            }
                        ],
                        "constructorArguments": "",
                        "name": "sendCampaign",
                        "returnParams": [],
                        "signature": "sendCampaign(uint256[],uint256,uint256,bool,bool,bool)"
                    },
                    "errorInfo": "",
                    "fromAddress": "0xc6d33edaa7343882728e8d13aa5041048e37faff",
                    "gasUsed": 151810,
                    "id": 0,
                    "methodDecoded": true,
                    "operation": "CALL",
                    "output": "",
                    "revert": false,
                    "revertMessage": "",
                    "selector": "0x5ea1f2fa",
                    "status": true,
                    "value": "0"
                },
                "nodeType": 0
            },
            "1": {
                "invocation": {
                    "address": "0x196a529aacce4189e5fbe2b4569bc9a925741fad",
                    "callData": "0x00000000000000000000000000000000000000000000000000000000000000c0000000000000000000000000000000000000000000000000000000000000000600000000000000000000000000000000000000000000000000000000000000010000000000000000000000000000000000000000000000000000000000000000000000000000000000000000000000000000000000000000000000000000000100000000000000000000000000000000000000000000000000000000000000000000000000000000000000000000000000000000000000000000000000000002000000000000000000000000000000000000000000000000000000000000160f0000000000000000000000000000000000000000000000000000000000000b4f",
                    "decodedMethod": {
                        "callParams": [
                            {
                                "name": "ids",
                                "type": "uint256[]",
                                "value": [
                                    "5,647",
                                    "2,895"
                                ]
                            },
                            {
                                "name": "campaign_",
                                "type": "uint256",
                                "value": "6"
                            },
                            {
                                "name": "sector_",
                                "type": "uint256",
                                "value": "1"
                            },
                            {
                                "name": "rollWeapons_",
                                "type": "bool",
                                "value": false
                            },
                            {
                                "name": "rollItems_",
                                "type": "bool",
                                "value": true
                            },
                            {
                                "name": "useitem_",
                                "type": "bool",
                                "value": false
                            }
                        ],
                        "constructorArguments": "",
                        "name": "sendCampaign",
                        "returnParams": [],
                        "signature": "sendCampaign(uint256[],uint256,uint256,bool,bool,bool)"
                    },
                    "errorInfo": "",
                    "fromAddress": "0xa351b769a01b445c04aa1b8e6275e03ec05c1e75",
                    "gasUsed": 126913,
                    "id": 1,
                    "methodDecoded": true,
                    "operation": "DELEGATECALL",
                    "output": "",
                    "revert": false,
                    "revertMessage": "",
                    "selector": "0x5ea1f2fa",
                    "status": true,
                    "value": "0"
                },
                "nodeType": 0
            },
            "10": {
                "event": {
                    "contract": "0xa351b769a01b445c04aa1b8e6275e03ec05c1e75",
                    "decodedLog": {
                        "name": "BalanceChanged",
                        "params": [
                            {
                                "name": "owner",
                                "type": "address",
                                "value": "0xc6d33edaa7343882728e8d13aa5041048e37faff"
                            },
                            {
                                "name": "amount",
                                "type": "uint256",
                                "value": "48,000,000,000,000,000,000"
                            },
                            {
                                "name": "subtract",
                                "type": "bool",
                                "value": false
                            }
                        ],
                        "signature": "BalanceChanged(address,uint256,bool)"
                    },
                    "id": 10,
                    "logData": "0x",
                    "logDecoded": true,
                    "operation": "EVENT",
                    "revert": false,
                    "status": true,
                    "topics": [
                        "0x18796921817e8fa1f03eaae699eabc26977ec4f4b6ec25ede8f7d69b9be8221b",
                        "0x000000000000000000000000c6d33edaa7343882728e8d13aa5041048e37faff",
                        "0x0000000000000000000000000000000000000000000000029a2241af62c00000",
                        "0x0000000000000000000000000000000000000000000000000000000000000000"
                    ]
                },
                "nodeType": 1
            },
            "11": {
                "event": {
                    "contract": "0xa351b769a01b445c04aa1b8e6275e03ec05c1e75",
                    "decodedLog": {
                        "name": "Campaigns",
                        "params": [
                            {
                                "name": "owner",
                                "type": "address",
                                "value": "0xc6d33edaa7343882728e8d13aa5041048e37faff"
                            },
                            {
                                "name": "campaign",
                                "type": "uint256",
                                "value": "6"
                            },
                            {
                                "name": "tokenId",
                                "type": "uint256",
                                "value": "2,895"
                            },
                            {
                                "name": "amount",
                                "type": "uint256",
                                "value": "48,000,000,000,000,000,000"
                            },
                            {
                                "name": "sector",
                                "type": "uint256",
                                "value": "1"
                            }
                        ],
                        "signature": "Campaigns(address,uint256,uint256,uint256,uint256)"
                    },
                    "id": 11,
                    "logData": "0x0000000000000000000000000000000000000000000000029a2241af62c000000000000000000000000000000000000000000000000000000000000000000001",
                    "logDecoded": true,
                    "operation": "EVENT",
                    "revert": false,
                    "status": true,
                    "topics": [
                        "0xdba077684e888626139ef24141ba8d03b94328892d5e2d8a85d586ab74071c06",
                        "0x000000000000000000000000c6d33edaa7343882728e8d13aa5041048e37faff",
                        "0x0000000000000000000000000000000000000000000000000000000000000006",
                        "0x0000000000000000000000000000000000000000000000000000000000000b4f"
                    ]
                },
                "nodeType": 1
            },
            "12": {
                "event": {
                    "contract": "0xa351b769a01b445c04aa1b8e6275e03ec05c1e75",
                    "decodedLog": {
                        "name": "Action",
                        "params": [
                            {
                                "name": "from",
                                "type": "address",
                                "value": "0xc6d33edaa7343882728e8d13aa5041048e37faff"
                            },
                            {
                                "name": "action",
                                "type": "uint256",
                                "value": "2"
                            },
                            {
                                "name": "tokenId",
                                "type": "uint256",
                                "value": "2,895"
                            }
                        ],
                        "signature": "Action(address,uint256,uint256)"
                    },
                    "id": 12,
                    "logData": "0x",
                    "logDecoded": true,
                    "operation": "EVENT",
                    "revert": false,
                    "status": true,
                    "topics": [
                        "0xc87dac464bd9964598d47d6e7f7cbe0b76cad55b33430228240e72c18da0edf6",
                        "0x000000000000000000000000c6d33edaa7343882728e8d13aa5041048e37faff",
                        "0x0000000000000000000000000000000000000000000000000000000000000002",
                        "0x0000000000000000000000000000000000000000000000000000000000000b4f"
                    ]
                },
                "nodeType": 1
            },
            "2": {
                "event": {
                    "contract": "0xa351b769a01b445c04aa1b8e6275e03ec05c1e75",
                    "decodedLog": {
                        "name": "Transfer",
                        "params": [
                            {
                                "name": "from",
                                "type": "address",
                                "value": "0xc6d33edaa7343882728e8d13aa5041048e37faff"
                            },
                            {
                                "name": "to",
                                "type": "address",
                                "value": "0xa351b769a01b445c04aa1b8e6275e03ec05c1e75"
                            },
                            {
                                "decimalAvailable": true,
                                "name": "tokenId",
                                "type": "uint256",
                                "value": "5,647"
                            }
                        ],
                        "signature": "Transfer(address,address,uint256)"
                    },
                    "id": 2,
                    "logData": "0x",
                    "logDecoded": true,
                    "operation": "EVENT",
                    "revert": false,
                    "status": true,
                    "topics": [
                        "0xddf252ad1be2c89b69c2b068fc378daa952ba7f163c4a11628f55a4df523b3ef",
                        "0x000000000000000000000000c6d33edaa7343882728e8d13aa5041048e37faff",
                        "0x000000000000000000000000a351b769a01b445c04aa1b8e6275e03ec05c1e75",
                        "0x000000000000000000000000000000000000000000000000000000000000160f"
                    ]
                },
                "nodeType": 1
            },
            "3": {
                "invocation": {
                    "address": "0x367dd3a23451b8cc94f7ec1ecc5b3db3745d254e",
                    "callData": "0x000000000000000000000000000000000000000000000000000000000000000600000000000000000000000000000000000000000000000000000000000000010000000000000000000000000000000000000000000000000000000000000023000000000000000000000000000000000000000000000000000000000000000a000000000000000000000000000000000000000000000000000000000000001900000000000000000000000000000000000000000000000000000000000000000000000000000000000000000000000000000000000000000000000000000000",
                    "decodedMethod": {
                        "callParams": [
                            {
                                "name": "_campId",
                                "type": "uint256",
                                "value": "6"
                            },
                            {
                                "name": "_sector",
                                "type": "uint256",
                                "value": "1"
                            },
                            {
                                "name": "_level",
                                "type": "uint256",
                                "value": "35"
                            },
                            {
                                "name": "_attackPoints",
                                "type": "uint256",
                                "value": "10"
                            },
                            {
                                "name": "_healthPoints",
                                "type": "uint256",
                                "value": "25"
                            },
                            {
                                "name": "_inventory",
                                "type": "uint256",
                                "value": "0"
                            },
                            {
                                "name": "_useItem",
                                "type": "bool",
                                "value": false
                            }
                        ],
                        "constructorArguments": "",
                        "name": "gameEngine",
                        "returnParams": [
                            {
                                "name": "level",
                                "type": "uint256",
                                "value": "38"
                            },
                            {
                                "name": "rewards",
                                "type": "uint256",
                                "value": "48,000,000,000,000,000,000"
                            },
                            {
                                "name": "timestamp",
                                "type": "uint256",
                                "value": "1,645,214,938"
                            },
                            {
                                "name": "inventory",
                                "type": "uint256",
                                "value": "0"
                            }
                        ],
                        "signature": "gameEngine(uint256,uint256,uint256,uint256,uint256,uint256,bool)"
                    },
                    "errorInfo": "",
                    "fromAddress": "0xa351b769a01b445c04aa1b8e6275e03ec05c1e75",
                    "gasUsed": 25652,
                    "id": 3,
                    "methodDecoded": true,
                    "operation": "CALL",
                    "output": "0x00000000000000000000000000000000000000000000000000000000000000260000000000000000000000000000000000000000000000029a2241af62c0000000000000000000000000000000000000000000000000000000000000620ffcda0000000000000000000000000000000000000000000000000000000000000000",
                    "revert": false,
                    "revertMessage": "",
                    "selector": "0xd7324392",
                    "status": true,
                    "value": "0"
                },
                "nodeType": 0
            },
            "4": {
                "invocation": {
                    "address": "0xcad981ea69c29debcbf1d67354614d671dc1a743",
                    "callData": "0x000000000000000000000000000000000000000000000000000000000000000600000000000000000000000000000000000000000000000000000000000000010000000000000000000000000000000000000000000000000000000000000023000000000000000000000000000000000000000000000000000000000000000a000000000000000000000000000000000000000000000000000000000000001900000000000000000000000000000000000000000000000000000000000000000000000000000000000000000000000000000000000000000000000000000000",
                    "decodedMethod": {
                        "callParams": [
                            {
                                "name": "_campId",
                                "type": "uint256",
                                "value": "6"
                            },
                            {
                                "name": "_sector",
                                "type": "uint256",
                                "value": "1"
                            },
                            {
                                "name": "_level",
                                "type": "uint256",
                                "value": "35"
                            },
                            {
                                "name": "_attackPoints",
                                "type": "uint256",
                                "value": "10"
                            },
                            {
                                "name": "_healthPoints",
                                "type": "uint256",
                                "value": "25"
                            },
                            {
                                "name": "_inventory",
                                "type": "uint256",
                                "value": "0"
                            },
                            {
                                "name": "_useItem",
                                "type": "bool",
                                "value": false
                            }
                        ],
                        "constructorArguments": "",
                        "name": "gameEngine",
                        "returnParams": [
                            {
                                "name": "level",
                                "type": "uint256",
                                "value": "38"
                            },
                            {
                                "name": "rewards",
                                "type": "uint256",
                                "value": "48,000,000,000,000,000,000"
                            },
                            {
                                "name": "timestamp",
                                "type": "uint256",
                                "value": "1,645,214,938"
                            },
                            {
                                "name": "inventory",
                                "type": "uint256",
                                "value": "0"
                            }
                        ],
                        "signature": "gameEngine(uint256,uint256,uint256,uint256,uint256,uint256,bool)"
                    },
                    "errorInfo": "",
                    "fromAddress": "0x367dd3a23451b8cc94f7ec1ecc5b3db3745d254e",
                    "gasUsed": 18279,
                    "id": 4,
                    "methodDecoded": true,
                    "operation": "DELEGATECALL",
                    "output": "0x00000000000000000000000000000000000000000000000000000000000000260000000000000000000000000000000000000000000000029a2241af62c0000000000000000000000000000000000000000000000000000000000000620ffcda0000000000000000000000000000000000000000000000000000000000000000",
                    "revert": false,
                    "revertMessage": "",
                    "selector": "0xd7324392",
                    "status": true,
                    "value": "0"
                },
                "nodeType": 0
            },
            "5": {
                "event": {
                    "contract": "0xa351b769a01b445c04aa1b8e6275e03ec05c1e75",
                    "decodedLog": {
                        "name": "BalanceChanged",
                        "params": [
                            {
                                "name": "owner",
                                "type": "address",
                                "value": "0xc6d33edaa7343882728e8d13aa5041048e37faff"
                            },
                            {
                                "name": "amount",
                                "type": "uint256",
                                "value": "48,000,000,000,000,000,000"
                            },
                            {
                                "name": "subtract",
                                "type": "bool",
                                "value": false
                            }
                        ],
                        "signature": "BalanceChanged(address,uint256,bool)"
                    },
                    "id": 5,
                    "logData": "0x",
                    "logDecoded": true,
                    "operation": "EVENT",
                    "revert": false,
                    "status": true,
                    "topics": [
                        "0x18796921817e8fa1f03eaae699eabc26977ec4f4b6ec25ede8f7d69b9be8221b",
                        "0x000000000000000000000000c6d33edaa7343882728e8d13aa5041048e37faff",
                        "0x0000000000000000000000000000000000000000000000029a2241af62c00000",
                        "0x0000000000000000000000000000000000000000000000000000000000000000"
                    ]
                },
                "nodeType": 1
            },
            "6": {
                "event": {
                    "contract": "0xa351b769a01b445c04aa1b8e6275e03ec05c1e75",
                    "decodedLog": {
                        "name": "Campaigns",
                        "params": [
                            {
                                "name": "owner",
                                "type": "address",
                                "value": "0xc6d33edaa7343882728e8d13aa5041048e37faff"
                            },
                            {
                                "name": "campaign",
                                "type": "uint256",
                                "value": "6"
                            },
                            {
                                "name": "tokenId",
                                "type": "uint256",
                                "value": "5,647"
                            },
                            {
                                "name": "amount",
                                "type": "uint256",
                                "value": "48,000,000,000,000,000,000"
                            },
                            {
                                "name": "sector",
                                "type": "uint256",
                                "value": "1"
                            }
                        ],
                        "signature": "Campaigns(address,uint256,uint256,uint256,uint256)"
                    },
                    "id": 6,
                    "logData": "0x0000000000000000000000000000000000000000000000029a2241af62c000000000000000000000000000000000000000000000000000000000000000000001",
                    "logDecoded": true,
                    "operation": "EVENT",
                    "revert": false,
                    "status": true,
                    "topics": [
                        "0xdba077684e888626139ef24141ba8d03b94328892d5e2d8a85d586ab74071c06",
                        "0x000000000000000000000000c6d33edaa7343882728e8d13aa5041048e37faff",
                        "0x0000000000000000000000000000000000000000000000000000000000000006",
                        "0x000000000000000000000000000000000000000000000000000000000000160f"
                    ]
                },
                "nodeType": 1
            },
            "7": {
                "event": {
                    "contract": "0xa351b769a01b445c04aa1b8e6275e03ec05c1e75",
                    "decodedLog": {
                        "name": "Action",
                        "params": [
                            {
                                "name": "from",
                                "type": "address",
                                "value": "0xc6d33edaa7343882728e8d13aa5041048e37faff"
                            },
                            {
                                "name": "action",
                                "type": "uint256",
                                "value": "2"
                            },
                            {
                                "name": "tokenId",
                                "type": "uint256",
                                "value": "5,647"
                            }
                        ],
                        "signature": "Action(address,uint256,uint256)"
                    },
                    "id": 7,
                    "logData": "0x",
                    "logDecoded": true,
                    "operation": "EVENT",
                    "revert": false,
                    "status": true,
                    "topics": [
                        "0xc87dac464bd9964598d47d6e7f7cbe0b76cad55b33430228240e72c18da0edf6",
                        "0x000000000000000000000000c6d33edaa7343882728e8d13aa5041048e37faff",
                        "0x0000000000000000000000000000000000000000000000000000000000000002",
                        "0x000000000000000000000000000000000000000000000000000000000000160f"
                    ]
                },
                "nodeType": 1
            },
            "8": {
                "invocation": {
                    "address": "0x367dd3a23451b8cc94f7ec1ecc5b3db3745d254e",
                    "callData": "0x000000000000000000000000000000000000000000000000000000000000000600000000000000000000000000000000000000000000000000000000000000010000000000000000000000000000000000000000000000000000000000000025000000000000000000000000000000000000000000000000000000000000000a000000000000000000000000000000000000000000000000000000000000001e00000000000000000000000000000000000000000000000000000000000000000000000000000000000000000000000000000000000000000000000000000000",
                    "decodedMethod": {
                        "callParams": [
                            {
                                "name": "_campId",
                                "type": "uint256",
                                "value": "6"
                            },
                            {
                                "name": "_sector",
                                "type": "uint256",
                                "value": "1"
                            },
                            {
                                "name": "_level",
                                "type": "uint256",
                                "value": "37"
                            },
                            {
                                "name": "_attackPoints",
                                "type": "uint256",
                                "value": "10"
                            },
                            {
                                "name": "_healthPoints",
                                "type": "uint256",
                                "value": "30"
                            },
                            {
                                "name": "_inventory",
                                "type": "uint256",
                                "value": "0"
                            },
                            {
                                "name": "_useItem",
                                "type": "bool",
                                "value": false
                            }
                        ],
                        "constructorArguments": "",
                        "name": "gameEngine",
                        "returnParams": [
                            {
                                "name": "level",
                                "type": "uint256",
                                "value": "40"
                            },
                            {
                                "name": "rewards",
                                "type": "uint256",
                                "value": "48,000,000,000,000,000,000"
                            },
                            {
                                "name": "timestamp",
                                "type": "uint256",
                                "value": "1,645,207,738"
                            },
                            {
                                "name": "inventory",
                                "type": "uint256",
                                "value": "0"
                            }
                        ],
                        "signature": "gameEngine(uint256,uint256,uint256,uint256,uint256,uint256,bool)"
                    },
                    "errorInfo": "",
                    "fromAddress": "0xa351b769a01b445c04aa1b8e6275e03ec05c1e75",
                    "gasUsed": 4352,
                    "id": 8,
                    "methodDecoded": true,
                    "operation": "CALL",
                    "output": "0x00000000000000000000000000000000000000000000000000000000000000280000000000000000000000000000000000000000000000029a2241af62c0000000000000000000000000000000000000000000000000000000000000620fe0ba0000000000000000000000000000000000000000000000000000000000000000",
                    "revert": false,
                    "revertMessage": "",
                    "selector": "0xd7324392",
                    "status": true,
                    "value": "0"
                },
                "nodeType": 0
            },
            "9": {
                "invocation": {
                    "address": "0xcad981ea69c29debcbf1d67354614d671dc1a743",
                    "callData": "0x000000000000000000000000000000000000000000000000000000000000000600000000000000000000000000000000000000000000000000000000000000010000000000000000000000000000000000000000000000000000000000000025000000000000000000000000000000000000000000000000000000000000000a000000000000000000000000000000000000000000000000000000000000001e00000000000000000000000000000000000000000000000000000000000000000000000000000000000000000000000000000000000000000000000000000000",
                    "decodedMethod": {
                        "callParams": [
                            {
                                "name": "_campId",
                                "type": "uint256",
                                "value": "6"
                            },
                            {
                                "name": "_sector",
                                "type": "uint256",
                                "value": "1"
                            },
                            {
                                "name": "_level",
                                "type": "uint256",
                                "value": "37"
                            },
                            {
                                "name": "_attackPoints",
                                "type": "uint256",
                                "value": "10"
                            },
                            {
                                "name": "_healthPoints",
                                "type": "uint256",
                                "value": "30"
                            },
                            {
                                "name": "_inventory",
                                "type": "uint256",
                                "value": "0"
                            },
                            {
                                "name": "_useItem",
                                "type": "bool",
                                "value": false
                            }
                        ],
                        "constructorArguments": "",
                        "name": "gameEngine",
                        "returnParams": [
                            {
                                "name": "level",
                                "type": "uint256",
                                "value": "40"
                            },
                            {
                                "name": "rewards",
                                "type": "uint256",
                                "value": "48,000,000,000,000,000,000"
                            },
                            {
                                "name": "timestamp",
                                "type": "uint256",
                                "value": "1,645,207,738"
                            },
                            {
                                "name": "inventory",
                                "type": "uint256",
                                "value": "0"
                            }
                        ],
                        "signature": "gameEngine(uint256,uint256,uint256,uint256,uint256,uint256,bool)"
                    },
                    "errorInfo": "",
                    "fromAddress": "0x367dd3a23451b8cc94f7ec1ecc5b3db3745d254e",
                    "gasUsed": 3479,
                    "id": 9,
                    "methodDecoded": true,
                    "operation": "DELEGATECALL",
                    "output": "0x00000000000000000000000000000000000000000000000000000000000000280000000000000000000000000000000000000000000000029a2241af62c0000000000000000000000000000000000000000000000000000000000000620fe0ba0000000000000000000000000000000000000000000000000000000000000000",
                    "revert": false,
                    "revertMessage": "",
                    "selector": "0xd7324392",
                    "status": true,
                    "value": "0"
                },
                "nodeType": 0
            }
        },
        "gasFlame": [
            {
                "children": [
                    {
                        "children": [
                            {
                                "children": [],
                                "depth": 0,
                                "name": "Initial Gas",
                                "value": 22324
                            },
                            {
                                "children": [
                                    {
                                        "children": [
                                            {
                                                "children": [
                                                    {
                                                        "children": [],
                                                        "depth": 3,
                                                        "name": "gameEngine",
                                                        "value": 18279
                                                    }
                                                ],
                                                "depth": 2,
                                                "name": "gameEngine",
                                                "value": 25652
                                            },
                                            {
                                                "children": [
                                                    {
                                                        "children": [],
                                                        "depth": 3,
                                                        "name": "gameEngine",
                                                        "value": 3479
                                                    }
                                                ],
                                                "depth": 2,
                                                "name": "gameEngine",
                                                "value": 4352
                                            }
                                        ],
                                        "depth": 1,
                                        "name": "sendCampaign",
                                        "value": 126913
                                    }
                                ],
                                "depth": 0,
                                "name": "Executed Gas",
                                "value": 134286
                            }
                        ],
                        "depth": -1,
                        "name": "Actual Gas Used",
                        "value": 151810
                    },
                    {
                        "children": [],
                        "depth": -1,
                        "name": "Refunded Gas",
                        "value": 4800
                    }
                ],
                "depth": -2,
                "name": "Total Gas",
                "value": 156610
            }
        ],
        "isConfirmed": true,
        "mainTrace": [
            {
                "children": [
                    {
                        "children": [
                            {
                                "children": [
                                    {
                                        "children": [],
                                        "depth": 2,
                                        "id": 2,
                                        "order": 2
                                    },
                                    {
                                        "children": [
                                            {
                                                "children": [],
                                                "depth": 3,
                                                "id": 4,
                                                "order": 4
                                            }
                                        ],
                                        "depth": 2,
                                        "id": 3,
                                        "order": 3
                                    },
                                    {
                                        "children": [],
                                        "depth": 2,
                                        "id": 5,
                                        "order": 5
                                    },
                                    {
                                        "children": [],
                                        "depth": 2,
                                        "id": 6,
                                        "order": 6
                                    },
                                    {
                                        "children": [],
                                        "depth": 2,
                                        "id": 7,
                                        "order": 7
                                    },
                                    {
                                        "children": [
                                            {
                                                "children": [],
                                                "depth": 3,
                                                "id": 9,
                                                "order": 9
                                            }
                                        ],
                                        "depth": 2,
                                        "id": 8,
                                        "order": 8
                                    },
                                    {
                                        "children": [],
                                        "depth": 2,
                                        "id": 10,
                                        "order": 10
                                    },
                                    {
                                        "children": [],
                                        "depth": 2,
                                        "id": 11,
                                        "order": 11
                                    },
                                    {
                                        "children": [],
                                        "depth": 2,
                                        "id": 12,
                                        "order": 12
                                    }
                                ],
                                "depth": 1,
                                "id": 1,
                                "order": 1
                            }
                        ],
                        "depth": 0,
                        "id": 0,
                        "order": 0
                    }
                ],
                "depth": -1,
                "id": -1,
                "order": -1
            }
        ],
        "mainTraceNodeCount": 13,
        "parentIdMap": {
            "0": -1,
            "1": 0,
            "10": 1,
            "11": 1,
            "12": 1,
            "2": 1,
            "3": 1,
            "4": 3,
            "5": 1,
            "6": 1,
            "7": 1,
            "8": 1,
            "9": 8
        },
        "tidyTrace": [
            {
                "children": [
                    {
                        "children": [
                            {
                                "children": [
                                    {
                                        "children": [],
                                        "depth": 2,
                                        "id": 2,
                                        "order": 2
                                    },
                                    {
                                        "children": [
                                            {
                                                "children": [],
                                                "depth": 3,
                                                "id": 4,
                                                "order": 4
                                            }
                                        ],
                                        "depth": 2,
                                        "id": 3,
                                        "order": 3
                                    },
                                    {
                                        "children": [],
                                        "depth": 2,
                                        "id": 5,
                                        "order": 5
                                    },
                                    {
                                        "children": [],
                                        "depth": 2,
                                        "id": 6,
                                        "order": 6
                                    },
                                    {
                                        "children": [],
                                        "depth": 2,
                                        "id": 7,
                                        "order": 7
                                    },
                                    {
                                        "children": [
                                            {
                                                "children": [],
                                                "depth": 3,
                                                "id": 9,
                                                "order": 9
                                            }
                                        ],
                                        "depth": 2,
                                        "id": 8,
                                        "order": 8
                                    },
                                    {
                                        "children": [],
                                        "depth": 2,
                                        "id": 10,
                                        "order": 10
                                    },
                                    {
                                        "children": [],
                                        "depth": 2,
                                        "id": 11,
                                        "order": 11
                                    },
                                    {
                                        "children": [],
                                        "depth": 2,
                                        "id": 12,
                                        "order": 12
                                    }
                                ],
                                "depth": 1,
                                "id": 1,
                                "order": 1
                            }
                        ],
                        "depth": 0,
                        "id": 0,
                        "order": 0
                    }
                ],
                "depth": -1,
                "id": -1,
                "order": -1
            }
        ],
        "tidyTraceNodeCount": 13
    },
    "state_change": {
        "stateChanges": [
            {
                "address": "0x367dd3a23451b8cc94f7ec1ecc5b3db3745d254e",
                "erc": "",
                "slots": [
                    {
                        "current": "0x0000000000000000000000000000001e000000090000018c00001b8700000030",
                        "key": "0x069400f22b28c6c362558d92f66163cec5671cba50b61abd2eecfcd0eaeac518",
                        "prev": "0x0000000000000000000000000000001e000000090000018c00001b8900000030"
                    }
                ],
                "storageVariables": [
                    {
                        "name": "camps",
                        "type": "mapping(uint256 => struct ElfCampaignsV3.Camps)",
                        "value": {
                            "pairs": [
                                {
                                    "key": "6",
                                    "value": {
                                        "fields": [
                                            {
                                                "name": "baseRewards",
                                                "type": "uint32",
                                                "value": {
                                                    "current": "48",
                                                    "prev": "48",
                                                    "typeTag": 1
                                                }
                                            },
                                            {
                                                "name": "creatureCount",
                                                "type": "uint32",
                                                "value": {
                                                    "current": "7047",
                                                    "prev": "7049",
                                                    "typeTag": 1
                                                }
                                            },
                                            {
                                                "name": "creatureHealth",
                                                "type": "uint32",
                                                "value": {
                                                    "current": "396",
                                                    "prev": "396",
                                                    "typeTag": 1
                                                }
                                            },
                                            {
                                                "name": "expPoints",
                                                "type": "uint32",
                                                "value": {
                                                    "current": "9",
                                                    "prev": "9",
                                                    "typeTag": 1
                                                }
                                            },
                                            {
                                                "name": "minLevel",
                                                "type": "uint32",
                                                "value": {
                                                    "current": "30",
                                                    "prev": "30",
                                                    "typeTag": 1
                                                }
                                            }
                                        ],
                                        "typeTag": 3
                                    }
                                }
                            ],
                            "typeTag": 4
                        }
                    }
                ]
            },
            {
                "address": "0xa351b769a01b445c04aa1b8e6275e03ec05c1e75",
                "erc": "ERC-721",
                "slots": [
                    {
                        "current": "0xdc7926040a1a0200620ffcdac6d33edaa7343882728e8d13aa5041048e37faff",
                        "key": "0xce1152bcef74385a1a05d30473571f73e2ce989f78aeca2fc9c6a619832a113f",
                        "prev": "0xdc7923040a190500620d1c1d0000000000000000000000000000000000000000"
                    },
                    {
                        "current": "0x82c828080a1f0200620fe0bac6d33edaa7343882728e8d13aa5041048e37faff",
                        "key": "0x6b7fc758e4269e0c8ebf935b7732d50609c2abf1ac701ba914b05616f3fa99b6",
                        "prev": "0x82c825080a1e0500620d2f2cc6d33edaa7343882728e8d13aa5041048e37faff"
                    },
                    {
                        "current": "0x000000000000000000000000a351b769a01b445c04aa1b8e6275e03ec05c1e75",
                        "key": "0x844d24f3e0fd473f77b01cc36e71f603a8f517f8bec749c6741dabf6fe1f5ef9",
                        "prev": "0x000000000000000000000000c6d33edaa7343882728e8d13aa5041048e37faff"
                    },
                    {
                        "current": "0xe11869f05f3b0f5a7c642fd8627bd45af4f56a52f7a0e1e01de31194c1546769",
                        "key": "0x0000000000000000000000000000000000000000000000000000000000000011",
                        "prev": "0x6cca06fe9868ce03af6329b6d4d0a77669d23a4cac6e4d629791f169a52b75c3"
                    },
                    {
                        "current": "0x0000000000000000000000000000000000000000000000000000000000000000",
                        "key": "0x64336034ad5dc784b6f3260664b20029f1f6e596578f9d003c6edc91d5d46357",
                        "prev": "0x0000000000000000000000000000000000000000000000000000000000000001"
                    },
                    {
                        "current": "0x0000000000000000000000000000000000000000000000000000000000001498",
                        "key": "0x747ff0f6d5a5d1bd367505fda818b3c0360dac924c5f7da9143b8363dd160b8b",
                        "prev": "0x0000000000000000000000000000000000000000000000000000000000001497"
                    },
                    {
                        "current": "0x0000000000000000000000000000000000000000000000053444835ec5800000",
                        "key": "0x3cfc9cd687a94990979eb1b15359be20a50f627d53b1ae4e28247fe06c86535e",
                        "prev": "0x0000000000000000000000000000000000000000000000000000000000000000"
                    }
                ],
                "storageVariables": [
                    {
                        "name": "sentinels",
                        "type": "mapping(uint256 => uint256)",
                        "value": {
                            "pairs": [
                                {
                                    "key": "2895",
                                    "value": {
                                        "current": "59154316015379631107490789608201518311786042285741282465623189948651047222015",
                                        "prev": "59154295310140184180473971786356187889331783794607147762529769631342963194623",
                                        "typeTag": 1
                                    }
                                },
                                {
                                    "key": "5647",
                                    "value": {
                                        "current": "99722877558421576568626108489838980522594286823535414469523689234953124969215",
                                        "prev": "99722856853182129641609273013380281674938133184028504418428731753439416025088",
                                        "typeTag": 1
                                    }
                                }
                            ],
                            "typeTag": 4
                        }
                    },
                    {
                        "name": "ownerOf",
                        "type": "mapping(uint256 => address)",
                        "value": {
                            "pairs": [
                                {
                                    "key": "5647",
                                    "value": {
                                        "current": "0xa351b769a01b445c04aa1b8e6275e03ec05c1e75",
                                        "prev": "0xc6d33edaa7343882728e8d13aa5041048e37faff",
                                        "typeTag": 1
                                    }
                                }
                            ],
                            "typeTag": 4
                        }
                    },
                    {
                        "name": "ketchup",
                        "type": "bytes32",
                        "value": {
                            "current": "0xe11869f05f3b0f5a7c642fd8627bd45af4f56a52f7a0e1e01de31194c1546769",
                            "prev": "0x6cca06fe9868ce03af6329b6d4d0a77669d23a4cac6e4d629791f169a52b75c3",
                            "typeTag": 1
                        }
                    },
                    {
                        "name": "balanceOf",
                        "type": "mapping(address => uint256)",
                        "value": {
                            "pairs": [
                                {
                                    "key": "0xa351b769a01b445c04aa1b8e6275e03ec05c1e75",
                                    "value": {
                                        "current": "5272",
                                        "prev": "5271",
                                        "typeTag": 1
                                    }
                                },
                                {
                                    "key": "0xc6d33edaa7343882728e8d13aa5041048e37faff",
                                    "value": {
                                        "current": "0",
                                        "prev": "1",
                                        "typeTag": 1
                                    }
                                }
                            ],
                            "typeTag": 4
                        }
                    },
                    {
                        "name": "bankBalances",
                        "type": "mapping(address => uint256)",
                        "value": {
                            "pairs": [
                                {
                                    "key": "0xc6d33edaa7343882728e8d13aa5041048e37faff",
                                    "value": {
                                        "current": "96000000000000000000",
                                        "prev": "0",
                                        "typeTag": 1
                                    }
                                }
                            ],
                            "typeTag": 4
                        }
                    }
                ]
            }
        ]
    }
}