{
    "balance_change": {
        "balanceChanges": [
            {
                "account": "0xfb2dc81577d38b2e0ab5c93cf4b6278be7977c91",
                "assets": [
                    {
                        "address": "0xeeeeeeeeeeeeeeeeeeeeeeeeeeeeeeeeeeeeeeee",
                        "amount": "0.115",
                        "iconUrl": "https://assets.blocksec.com/image/1663669189317-3.png",
                        "isERC1155": false,
                        "isERC721": false,
                        "sign": false,
                        "value": "205.66254999999998745"
                    }
                ]
            },
            {
                "account": "0xb45a2dda996c32e93b8c47098e90ed0e7ab18e39",
                "assets": [
                    {
                        "address": "0xeeeeeeeeeeeeeeeeeeeeeeeeeeeeeeeeeeeeeeee",
                        "amount": "0.00023",
                        "iconUrl": "https://assets.blocksec.com/image/1663669189317-3.png",
                        "isERC1155": false,
                        "isERC721": false,
                        "sign": true,
                        "value": "0.41132509999999997488"
                    }
                ]
            },
            {
                "account": "0x92e929d8b2c8430bcaf4cd87654789578bb2b786",
                "assets": [
                    {
                        "address": "0xeeeeeeeeeeeeeeeeeeeeeeeeeeeeeeeeeeeeeeee",
                        "amount": "0.11477",
                        "iconUrl": "https://assets.blocksec.com/image/1663669189317-3.png",
                        "isERC1155": false,
                        "isERC721": false,
                        "sign": true,
                        "value": "205.25122489999998748"
                    }
                ]
            }
        ]
    },
    "profile": {
        "basic_info": {
            "baseFee": "53.719413694",
            "blockNumber": 17329967,
            "callData": "0x017efb28000000000000000000000000000000000000000000000000000000000000004000000000000000000000000000000000000000000000000000000000000001c00000000000000000000000000000000000000000000000000000000000000003000000000000000000000000eeeeeeeeeeeeeeeeeeeeeeeeeeeeeeeeeeeeeeee000000000000000000000000eeeeeeeeeeeeeeeeeeeeeeeeeeeeeeeeeeeeeeee0000000000000000000000008755773dc777b9f9b2e2c86402a03f099f823691000000000000000000000000fb2dc81577d38b2e0ab5c93cf4b6278be7977c9100000000000000000000000000000000000000000000000001988fe4052b800000000000000000000000000000000000000000000000000000000000000000010000000000000000000000000000000000000000000000000000000000000140000000000000000000000000000000000000000000000000000000000000a4b100000000000000000000000000000000000000000000000000000000000000000000000000000000000000000000000000000000000000000000000000000007616e64726f6964000000000000000000000000000000000000000000000000000000000000000000000000000000000000000000000000000000000000000002000000000000000000000000eeeeeeeeeeeeeeeeeeeeeeeeeeeeeeeeeeeeeeee000000000000000000000000000000000000000000000000000000000000006000000000000000000000000000000000000000000000000000000000000001e0000000000000000000000000000000000000000000000000000000000000002000000000000000000000000092e929d8b2c8430bcaf4cd87654789578bb2b7860000000000000000000000000000000000000000000000000197beb4f8df200000000000000000000000000000000000000000000000000000000000000000000000000000000000000000000000000000000000000000000000000000000080000000000000000000000000000000000000000000000000000000000000010416b3b4c2000000000000000000000000000000000000000000000000000000000000006000000000000000000000000000000000000000000000000000000000000000a0000000000000000000000000000000000000000000000000019470e0793b000000000000000000000000000000000000000000000000000000000000000000084554482841524229000000000000000000000000000000000000000000000000000000000000000000000000000000000000000000000000000000000000002a3078464232644338313537376433384232453041623543393363463442363237384265373937374339310000000000000000000000000000000000000000000000000000000000000000000000000000000000000000000000000000",
            "debugEnable": true,
            "errorInfo": "",
            "eventCount": 2,
            "feeRecipient": "0xdafea492d9c6733ae3d56b7ed1adb60692c98bc5",
            "formatValue": "0.115",
            "gasLimit": 173815,
            "gasPrice": "53.972413694",
            "gasUsed": 105298,
            "intTxnCount": 4,
            "internalRevert": false,
            "internalRevertMessage": "",
            "isContractCreation": false,
            "isFlashloan": false,
            "maxFee": "74.08",
            "nonce": 248,
            "overwritedBlockNumber": -1,
            "priorityFee": "0.253",
            "receiver": "0xb45a2dda996c32e93b8c47098e90ed0e7ab18e39",
            "revertMessage": "",
            "sender": "0xfb2dc81577d38b2e0ab5c93cf4b6278be7977c91",
            "simulationEnable": true,
            "sourceTxnHash": "0xa5510a5c4e0e1fd533ba3693e8d86eabe84087b16dc948f54c14194b4c104135",
            "status": true,
            "timestamp": "2023-05-24T15:34:35Z",
            "transactionFee": "0.005683187217150812",
            "txnHash": "0xa5510a5c4e0e1fd533ba3693e8d86eabe84087b16dc948f54c14194b4c104135",
            "txnIndex": 87,
            "type": 2,
            "value": "115000000000000000"
        },
        "fund_flow": [
            {
                "amount": "0.115",
                "from": "0xfb2dc81577d38b2e0ab5c93cf4b6278be7977c91",
                "id": 1,
                "isERC1155": false,
                "isERC721": false,
                "isReverted": false,
                "order": 1,
                "to": "0xb45a2dda996c32e93b8c47098e90ed0e7ab18e39",
                "token": "0xeeeeeeeeeeeeeeeeeeeeeeeeeeeeeeeeeeeeeeee"
            },
            {
                "amount": "0.11477",
                "from": "0xb45a2dda996c32e93b8c47098e90ed0e7ab18e39",
                "id": 2,
                "isERC1155": false,
                "isERC721": false,
                "isReverted": false,
                "order": 2,
                "to": "0x8755773dc777b9f9b2e2c86402a03f099f823691",
                "token": "0xeeeeeeeeeeeeeeeeeeeeeeeeeeeeeeeeeeeeeeee"
            },
            {
                "amount": "0.11477",
                "from": "0x8755773dc777b9f9b2e2c86402a03f099f823691",
                "id": 3,
                "isERC1155": false,
                "isERC721": false,
                "isReverted": false,
                "order": 3,
                "to": "0x92e929d8b2c8430bcaf4cd87654789578bb2b786",
                "token": "0xeeeeeeeeeeeeeeeeeeeeeeeeeeeeeeeeeeeeeeee"
            }
        ],
        "token_infos": [
            {
                "address": "0xc02aaa39b223fe8d0a0e5c4f27ead9083c756cc2",
                "decimals": 18
            },
            {
                "address": "0xeeeeeeeeeeeeeeeeeeeeeeeeeeeeeeeeeeeeeeee",
                "decimals": 18
            }
        ]
    },
    "address_label": {
        "labels": [
            {
                "address": "0xf8f40390f2826ee811399bb8208bcc0c6f2f6a7a",
                "label": "TransitAllowed"
            },
            {
                "address": "0x8755773dc777b9f9b2e2c86402a03f099f823691",
                "label": "TransitCross"
            },
            {
                "address": "0x0000000000000000000000000000000000000002",
                "label": "Precompiled"
            },
            {
                "address": "0x0000000000000000000000000000000000000004",
                "label": "Precompiled"
            },
            {
                "address": "0xeeeeeeeeeeeeeeeeeeeeeeeeeeeeeeeeeeeeeeee",
                "label": "Ether"
            },
            {
                "address": "0x1f6e41c47349634fe261403a18f8515546f58826",
                "label": "TransitSwapFees"
            },
            {
                "address": "0x92e929d8b2c8430bcaf4cd87654789578bb2b786",
                "label": "SWFT Swap"
            },
            {
                "address": "0x0000000000000000000000000000000000000000",
                "label": "Null Address"
            },
            {
                "address": "0xb45a2dda996c32e93b8c47098e90ed0e7ab18e39",
                "label": "Transit Swap: Router V4 2"
            },
            {
                "address": "0x0000000000000000000000000000000000000001",
                "label": "Precompiled"
            },
            {
                "address": "0x0000000000000000000000000000000000000003",
                "label": "Precompiled"
            }
        ]
    },
    "trace": {
        "accountLabels": null,
        "dataMap": {
            "-1": {
                "invocation": {
                    "address": "0xfb2dc81577d38b2e0ab5c93cf4b6278be7977c91",
                    "callData": "",
                    "decodedMethod": null,
                    "errorInfo": "",
                    "fromAddress": "",
                    "gasUsed": 0,
                    "id": -1,
                    "methodDecoded": false,
                    "operation": "",
                    "output": "",
                    "revert": false,
                    "revertMessage": "",
                    "selector": "",
                    "status": false,
                    "value": ""
                },
                "nodeType": 0
            },
            "0": {
                "invocation": {
                    "address": "0xb45a2dda996c32e93b8c47098e90ed0e7ab18e39",
                    "callData": "0x000000000000000000000000000000000000000000000000000000000000004000000000000000000000000000000000000000000000000000000000000001c00000000000000000000000000000000000000000000000000000000000000003000000000000000000000000eeeeeeeeeeeeeeeeeeeeeeeeeeeeeeeeeeeeeeee000000000000000000000000eeeeeeeeeeeeeeeeeeeeeeeeeeeeeeeeeeeeeeee0000000000000000000000008755773dc777b9f9b2e2c86402a03f099f823691000000000000000000000000fb2dc81577d38b2e0ab5c93cf4b6278be7977c9100000000000000000000000000000000000000000000000001988fe4052b800000000000000000000000000000000000000000000000000000000000000000010000000000000000000000000000000000000000000000000000000000000140000000000000000000000000000000000000000000000000000000000000a4b100000000000000000000000000000000000000000000000000000000000000000000000000000000000000000000000000000000000000000000000000000007616e64726f6964000000000000000000000000000000000000000000000000000000000000000000000000000000000000000000000000000000000000000002000000000000000000000000eeeeeeeeeeeeeeeeeeeeeeeeeeeeeeeeeeeeeeee000000000000000000000000000000000000000000000000000000000000006000000000000000000000000000000000000000000000000000000000000001e0000000000000000000000000000000000000000000000000000000000000002000000000000000000000000092e929d8b2c8430bcaf4cd87654789578bb2b7860000000000000000000000000000000000000000000000000197beb4f8df200000000000000000000000000000000000000000000000000000000000000000000000000000000000000000000000000000000000000000000000000000000080000000000000000000000000000000000000000000000000000000000000010416b3b4c2000000000000000000000000000000000000000000000000000000000000006000000000000000000000000000000000000000000000000000000000000000a0000000000000000000000000000000000000000000000000019470e0793b000000000000000000000000000000000000000000000000000000000000000000084554482841524229000000000000000000000000000000000000000000000000000000000000000000000000000000000000000000000000000000000000002a3078464232644338313537376433384232453041623543393363463442363237384265373937374339310000000000000000000000000000000000000000000000000000000000000000000000000000000000000000000000000000",
                    "decodedMethod": {
                        "callParams": [
                            {
                                "name": "desc",
                                "type": "(uint8,address,address,address,address,uint256,uint256,string,uint256,address)",
                                "value": [
                                    {
                                        "name": "swapType",
                                        "type": "uint8",
                                        "value": "3"
                                    },
                                    {
                                        "name": "srcToken",
                                        "type": "address",
                                        "value": "0xeeeeeeeeeeeeeeeeeeeeeeeeeeeeeeeeeeeeeeee"
                                    },
                                    {
                                        "name": "dstToken",
                                        "type": "address",
                                        "value": "0xeeeeeeeeeeeeeeeeeeeeeeeeeeeeeeeeeeeeeeee"
                                    },
                                    {
                                        "name": "srcReceiver",
                                        "type": "address",
                                        "value": "0x8755773dc777b9f9b2e2c86402a03f099f823691"
                                    },
                                    {
                                        "name": "dstReceiver",
                                        "type": "address",
                                        "value": "0xfb2dc81577d38b2e0ab5c93cf4b6278be7977c91"
                                    },
                                    {
                                        "name": "amount",
                                        "type": "uint256",
                                        "value": "115,000,000,000,000,000"
                                    },
                                    {
                                        "name": "minReturnAmount",
                                        "type": "uint256",
                                        "value": "1"
                                    },
                                    {
                                        "name": "channel",
                                        "type": "string",
                                        "value": "android"
                                    },
                                    {
                                        "name": "toChainID",
                                        "type": "uint256",
                                        "value": "42,161"
                                    },
                                    {
                                        "name": "wrappedNative",
                                        "type": "address",
                                        "value": "0x0000000000000000000000000000000000000000"
                                    }
                                ]
                            },
                            {
                                "name": "callbytesDesc",
                                "type": "(uint8,address,bytes)",
                                "value": [
                                    {
                                        "name": "flag",
                                        "type": "uint8",
                                        "value": "2"
                                    },
                                    {
                                        "name": "srcToken",
                                        "type": "address",
                                        "value": "0xeeeeeeeeeeeeeeeeeeeeeeeeeeeeeeeeeeeeeeee"
                                    },
                                    {
                                        "name": "calldatas",
                                        "type": "bytes",
                                        "value": "0x000000000000000000000000000000000000000000000000000000000000002000000000000000000000000092e929d8b2c8430bcaf4cd87654789578bb2b7860000000000000000000000000000000000000000000000000197beb4f8df200000000000000000000000000000000000000000000000000000000000000000000000000000000000000000000000000000000000000000000000000000000080000000000000000000000000000000000000000000000000000000000000010416b3b4c2000000000000000000000000000000000000000000000000000000000000006000000000000000000000000000000000000000000000000000000000000000a0000000000000000000000000000000000000000000000000019470e0793b000000000000000000000000000000000000000000000000000000000000000000084554482841524229000000000000000000000000000000000000000000000000000000000000000000000000000000000000000000000000000000000000002a3078464232644338313537376433384232453041623543393363463442363237384265373937374339310000000000000000000000000000000000000000000000000000000000000000000000000000000000000000000000000000"
                                    }
                                ]
                            }
                        ],
                        "constructorArguments": "",
                        "name": "cross",
                        "returnParams": [],
                        "signature": "cross((uint8,address,address,address,address,uint256,uint256,string,uint256,address),(uint8,address,bytes))"
                    },
                    "errorInfo": "",
                    "fromAddress": "0xfb2dc81577d38b2e0ab5c93cf4b6278be7977c91",
                    "gasUsed": 105298,
                    "id": 0,
                    "methodDecoded": true,
                    "operation": "CALL",
                    "output": "",
                    "revert": false,
                    "revertMessage": "",
                    "selector": "0x017efb28",
                    "status": true,
                    "value": "0.115"
                },
                "nodeType": 0
            },
            "1": {
                "invocation": {
                    "address": "0x1f6e41c47349634fe261403a18f8515546f58826",
                    "callData": "0x000000000000000000000000fb2dc81577d38b2e0ab5c93cf4b6278be7977c9100000000000000000000000000000000000000000000000001988fe4052b8000000000000000000000000000000000000000000000000000000000000000000300000000000000000000000000000000000000000000000000000000000000800000000000000000000000000000000000000000000000000000000000000007616e64726f696400000000000000000000000000000000000000000000000000",
                    "decodedMethod": {
                        "callParams": [
                            {
                                "name": "trader",
                                "type": "address",
                                "value": "0xfb2dc81577d38b2e0ab5c93cf4b6278be7977c91"
                            },
                            {
                                "name": "tradeAmount",
                                "type": "uint256",
                                "value": "115,000,000,000,000,000"
                            },
                            {
                                "name": "swapType",
                                "type": "uint8",
                                "value": "3"
                            },
                            {
                                "name": "channel",
                                "type": "string",
                                "value": "android"
                            }
                        ],
                        "constructorArguments": "",
                        "name": "getFeeRate",
                        "returnParams": [
                            {
                                "name": "payFees",
                                "type": "uint256",
                                "value": "230,000,000,000,000"
                            }
                        ],
                        "signature": "getFeeRate(address,uint256,uint8,string)"
                    },
                    "errorInfo": "",
                    "fromAddress": "0xb45a2dda996c32e93b8c47098e90ed0e7ab18e39",
                    "gasUsed": 8354,
                    "id": 1,
                    "methodDecoded": true,
                    "operation": "STATICCALL",
                    "output": "0x0000000000000000000000000000000000000000000000000000d12f0c4c6000",
                    "revert": false,
                    "revertMessage": "",
                    "selector": "0x19fa763a",
                    "status": true,
                    "value": "0"
                },
                "nodeType": 0
            },
            "2": {
                "invocation": {
                    "address": "0x8755773dc777b9f9b2e2c86402a03f099f823691",
                    "callData": "0x00000000000000000000000000000000000000000000000000000000000000200000000000000000000000000000000000000000000000000000000000000002000000000000000000000000eeeeeeeeeeeeeeeeeeeeeeeeeeeeeeeeeeeeeeee000000000000000000000000000000000000000000000000000000000000006000000000000000000000000000000000000000000000000000000000000001e0000000000000000000000000000000000000000000000000000000000000002000000000000000000000000092e929d8b2c8430bcaf4cd87654789578bb2b7860000000000000000000000000000000000000000000000000197beb4f8df200000000000000000000000000000000000000000000000000000000000000000000000000000000000000000000000000000000000000000000000000000000080000000000000000000000000000000000000000000000000000000000000010416b3b4c2000000000000000000000000000000000000000000000000000000000000006000000000000000000000000000000000000000000000000000000000000000a0000000000000000000000000000000000000000000000000019470e0793b000000000000000000000000000000000000000000000000000000000000000000084554482841524229000000000000000000000000000000000000000000000000000000000000000000000000000000000000000000000000000000000000002a3078464232644338313537376433384232453041623543393363463442363237384265373937374339310000000000000000000000000000000000000000000000000000000000000000000000000000000000000000000000000000",
                    "decodedMethod": {
                        "callParams": [
                            {
                                "name": "desc",
                                "type": "(uint8,address,bytes)",
                                "value": [
                                    {
                                        "name": "flag",
                                        "type": "uint8",
                                        "value": "2"
                                    },
                                    {
                                        "name": "srcToken",
                                        "type": "address",
                                        "value": "0xeeeeeeeeeeeeeeeeeeeeeeeeeeeeeeeeeeeeeeee"
                                    },
                                    {
                                        "name": "calldatas",
                                        "type": "bytes",
                                        "value": "0x000000000000000000000000000000000000000000000000000000000000002000000000000000000000000092e929d8b2c8430bcaf4cd87654789578bb2b7860000000000000000000000000000000000000000000000000197beb4f8df200000000000000000000000000000000000000000000000000000000000000000000000000000000000000000000000000000000000000000000000000000000080000000000000000000000000000000000000000000000000000000000000010416b3b4c2000000000000000000000000000000000000000000000000000000000000006000000000000000000000000000000000000000000000000000000000000000a0000000000000000000000000000000000000000000000000019470e0793b000000000000000000000000000000000000000000000000000000000000000000084554482841524229000000000000000000000000000000000000000000000000000000000000000000000000000000000000000000000000000000000000002a3078464232644338313537376433384232453041623543393363463442363237384265373937374339310000000000000000000000000000000000000000000000000000000000000000000000000000000000000000000000000000"
                                    }
                                ]
                            }
                        ],
                        "constructorArguments": "",
                        "name": "callbytes",
                        "returnParams": [],
                        "signature": "callbytes((uint8,address,bytes))"
                    },
                    "errorInfo": "",
                    "fromAddress": "0xb45a2dda996c32e93b8c47098e90ed0e7ab18e39",
                    "gasUsed": 42608,
                    "id": 2,
                    "methodDecoded": true,
                    "operation": "CALL",
                    "output": "",
                    "revert": false,
                    "revertMessage": "",
                    "selector": "0xccbe4007",
                    "status": true,
                    "value": "0.11477"
                },
                "nodeType": 0
            },
            "3": {
                "invocation": {
                    "address": "0xf8f40390f2826ee811399bb8208bcc0c6f2f6a7a",
                    "callData": "0x000000000000000000000000000000000000000000000000000000000000000200000000000000000000000092e929d8b2c8430bcaf4cd87654789578bb2b78616b3b4c200000000000000000000000000000000000000000000000000000000",
                    "decodedMethod": {
                        "callParams": [
                            {
                                "name": "flag",
                                "type": "uint8",
                                "value": "2"
                            },
                            {
                                "name": "caller",
                                "type": "address",
                                "value": "0x92e929d8b2c8430bcaf4cd87654789578bb2b786"
                            },
                            {
                                "name": "fun",
                                "type": "bytes4",
                                "value": "0x16b3b4c2"
                            }
                        ],
                        "constructorArguments": "",
                        "name": "checkAllowed",
                        "returnParams": [
                            {
                                "name": "",
                                "type": "bool",
                                "value": true
                            }
                        ],
                        "signature": "checkAllowed(uint8,address,bytes4)"
                    },
                    "errorInfo": "",
                    "fromAddress": "0x8755773dc777b9f9b2e2c86402a03f099f823691",
                    "gasUsed": 7188,
                    "id": 3,
                    "methodDecoded": true,
                    "operation": "STATICCALL",
                    "output": "0x0000000000000000000000000000000000000000000000000000000000000001",
                    "revert": false,
                    "revertMessage": "",
                    "selector": "0x976a8056",
                    "status": true,
                    "value": "0"
                },
                "nodeType": 0
            },
            "4": {
                "invocation": {
                    "address": "0x92e929d8b2c8430bcaf4cd87654789578bb2b786",
                    "callData": "0x000000000000000000000000000000000000000000000000000000000000006000000000000000000000000000000000000000000000000000000000000000a0000000000000000000000000000000000000000000000000019470e0793b000000000000000000000000000000000000000000000000000000000000000000084554482841524229000000000000000000000000000000000000000000000000000000000000000000000000000000000000000000000000000000000000002a30784642326443383135373764333842324530416235433933634634423632373842653739373743393100000000000000000000000000000000000000000000",
                    "decodedMethod": {
                        "callParams": [
                            {
                                "name": "toToken",
                                "type": "string",
                                "value": "ETH(ARB)"
                            },
                            {
                                "name": "destination",
                                "type": "string",
                                "value": "0xFB2dC81577d38B2E0Ab5C93cF4B6278Be7977C91"
                            },
                            {
                                "name": "minReturnAmount",
                                "type": "uint256",
                                "value": "113,840,000,000,000,000"
                            }
                        ],
                        "constructorArguments": "",
                        "name": "swapEth",
                        "returnParams": [],
                        "signature": "swapEth(string,string,uint256)"
                    },
                    "errorInfo": "",
                    "fromAddress": "0x8755773dc777b9f9b2e2c86402a03f099f823691",
                    "gasUsed": 10288,
                    "id": 4,
                    "methodDecoded": true,
                    "operation": "CALL",
                    "output": "",
                    "revert": false,
                    "revertMessage": "",
                    "selector": "0x16b3b4c2",
                    "status": true,
                    "value": "0.11477"
                },
                "nodeType": 0
            },
            "5": {
                "event": {
                    "contract": "0x92e929d8b2c8430bcaf4cd87654789578bb2b786",
                    "decodedLog": {
                        "name": "SwapEth",
                        "params": [
                            {
                                "name": "toToken",
                                "type": "string",
                                "value": "ETH(ARB)"
                            },
                            {
                                "name": "sender",
                                "type": "address",
                                "value": "0x8755773dc777b9f9b2e2c86402a03f099f823691"
                            },
                            {
                                "name": "destination",
                                "type": "string",
                                "value": "0xFB2dC81577d38B2E0Ab5C93cF4B6278Be7977C91"
                            },
                            {
                                "name": "fromAmount",
                                "type": "uint256",
                                "value": "114,770,000,000,000,000"
                            },
                            {
                                "name": "minReturnAmount",
                                "type": "uint256",
                                "value": "113,840,000,000,000,000"
                            }
                        ],
                        "signature": "SwapEth(string,address,string,uint256,uint256)"
                    },
                    "id": 5,
                    "logData": "0x00000000000000000000000000000000000000000000000000000000000000a00000000000000000000000008755773dc777b9f9b2e2c86402a03f099f82369100000000000000000000000000000000000000000000000000000000000000e00000000000000000000000000000000000000000000000000197beb4f8df2000000000000000000000000000000000000000000000000000019470e0793b000000000000000000000000000000000000000000000000000000000000000000084554482841524229000000000000000000000000000000000000000000000000000000000000000000000000000000000000000000000000000000000000002a30784642326443383135373764333842324530416235433933634634423632373842653739373743393100000000000000000000000000000000000000000000",
                    "logDecoded": true,
                    "operation": "EVENT",
                    "revert": false,
                    "status": true,
                    "topics": [
                        "0x4e96fb90a89341a56db7ad2bbf04c715bbf20be6a9a9e764671f718c4697649a"
                    ]
                },
                "nodeType": 1
            },
            "6": {
                "event": {
                    "contract": "0xb45a2dda996c32e93b8c47098e90ed0e7ab18e39",
                    "decodedLog": {
                        "name": "TransitSwapped",
                        "params": [
                            {
                                "name": "srcToken",
                                "type": "address",
                                "value": "0xeeeeeeeeeeeeeeeeeeeeeeeeeeeeeeeeeeeeeeee"
                            },
                            {
                                "name": "dstToken",
                                "type": "address",
                                "value": "0xeeeeeeeeeeeeeeeeeeeeeeeeeeeeeeeeeeeeeeee"
                            },
                            {
                                "name": "dstReceiver",
                                "type": "address",
                                "value": "0xfb2dc81577d38b2e0ab5c93cf4b6278be7977c91"
                            },
                            {
                                "name": "trader",
                                "type": "address",
                                "value": "0xfb2dc81577d38b2e0ab5c93cf4b6278be7977c91"
                            },
                            {
                                "name": "feeMode",
                                "type": "bool",
                                "value": true
                            },
                            {
                                "name": "amount",
                                "type": "uint256",
                                "value": "115,000,000,000,000,000"
                            },
                            {
                                "name": "returnAmount",
                                "type": "uint256",
                                "value": "0"
                            },
                            {
                                "name": "minReturnAmount",
                                "type": "uint256",
                                "value": "1"
                            },
                            {
                                "name": "fee",
                                "type": "uint256",
                                "value": "230,000,000,000,000"
                            },
                            {
                                "name": "toChainID",
                                "type": "uint256",
                                "value": "42,161"
                            },
                            {
                                "name": "channel",
                                "type": "string",
                                "value": "android"
                            },
                            {
                                "name": "time",
                                "type": "uint256",
                                "value": "1,684,942,475"
                            }
                        ],
                        "signature": "TransitSwapped(address,address,address,address,bool,uint256,uint256,uint256,uint256,uint256,string,uint256)"
                    },
                    "id": 6,
                    "logData": "0x000000000000000000000000fb2dc81577d38b2e0ab5c93cf4b6278be7977c91000000000000000000000000000000000000000000000000000000000000000100000000000000000000000000000000000000000000000001988fe4052b8000000000000000000000000000000000000000000000000000000000000000000000000000000000000000000000000000000000000000000000000000000000010000000000000000000000000000000000000000000000000000d12f0c4c6000000000000000000000000000000000000000000000000000000000000000a4b1000000000000000000000000000000000000000000000000000000000000012000000000000000000000000000000000000000000000000000000000646e2e8b0000000000000000000000000000000000000000000000000000000000000007616e64726f696400000000000000000000000000000000000000000000000000",
                    "logDecoded": true,
                    "operation": "EVENT",
                    "revert": false,
                    "status": true,
                    "topics": [
                        "0x7055e3d08e2c20429c6b162f3e3bee3f426d59896e66084c3580dc353e54129d",
                        "0x000000000000000000000000eeeeeeeeeeeeeeeeeeeeeeeeeeeeeeeeeeeeeeee",
                        "0x000000000000000000000000eeeeeeeeeeeeeeeeeeeeeeeeeeeeeeeeeeeeeeee",
                        "0x000000000000000000000000fb2dc81577d38b2e0ab5c93cf4b6278be7977c91"
                    ]
                },
                "nodeType": 1
            }
        },
        "gasFlame": [
            {
                "children": [
                    {
                        "children": [
                            {
                                "children": [],
                                "depth": 0,
                                "name": "Initial Gas",
                                "value": 27964
                            },
                            {
                                "children": [
                                    {
                                        "children": [],
                                        "depth": 1,
                                        "name": "getFeeRate",
                                        "value": 8354
                                    },
                                    {
                                        "children": [
                                            {
                                                "children": [],
                                                "depth": 2,
                                                "name": "checkAllowed",
                                                "value": 7188
                                            },
                                            {
                                                "children": [],
                                                "depth": 2,
                                                "name": "swapEth",
                                                "value": 10288
                                            }
                                        ],
                                        "depth": 1,
                                        "name": "callbytes",
                                        "value": 42608
                                    }
                                ],
                                "depth": 0,
                                "name": "Executed Gas",
                                "value": 85734
                            }
                        ],
                        "depth": -1,
                        "name": "Actual Gas Used",
                        "value": 105298
                    },
                    {
                        "children": [],
                        "depth": -1,
                        "name": "Refunded Gas",
                        "value": 8400
                    }
                ],
                "depth": -2,
                "name": "Total Gas",
                "value": 113698
            }
        ],
        "isConfirmed": true,
        "mainTrace": [
            {
                "children": [
                    {
                        "children": [
                            {
                                "children": [],
                                "depth": 1,
                                "id": 1,
                                "order": 1
                            },
                            {
                                "children": [
                                    {
                                        "children": [],
                                        "depth": 2,
                                        "id": 3,
                                        "order": 3
                                    },
                                    {
                                        "children": [
                                            {
                                                "children": [],
                                                "depth": 3,
                                                "id": 5,
                                                "order": 5
                                            }
                                        ],
                                        "depth": 2,
                                        "id": 4,
                                        "order": 4
                                    }
                                ],
                                "depth": 1,
                                "id": 2,
                                "order": 2
                            },
                            {
                                "children": [],
                                "depth": 1,
                                "id": 6,
                                "order": 6
                            }
                        ],
                        "depth": 0,
                        "id": 0,
                        "order": 0
                    }
                ],
                "depth": -1,
                "id": -1,
                "order": -1
            }
        ],
        "mainTraceNodeCount": 7,
        "parentIdMap": {
            "0": -1,
            "1": 0,
            "2": 0,
            "3": 2,
            "4": 2,
            "5": 4,
            "6": 0
        },
        "tidyTrace": [
            {
                "children": [
                    {
                        "children": [
                            {
                                "children": [
                                    {
                                        "children": [
                                            {
                                                "children": [],
                                                "depth": 3,
                                                "id": 5,
                                                "order": 5
                                            }
                                        ],
                                        "depth": 2,
                                        "id": 4,
                                        "order": 4
                                    }
                                ],
                                "depth": 1,
                                "id": 2,
                                "order": 2
                            },
                            {
                                "children": [],
                                "depth": 1,
                                "id": 6,
                                "order": 6
                            }
                        ],
                        "depth": 0,
                        "id": 0,
                        "order": 0
                    }
                ],
                "depth": -1,
                "id": -1,
                "order": -1
            }
        ],
        "tidyTraceNodeCount": 5
    },
    "state_change": {
        "stateChanges": []
    }
}