{
    "balance_change": {
        "balanceChanges": [
            {
                "account": "0x2b5634c42055806a59e9107ed44d43c426e58258",
                "assets": [
                    {
                        "address": "0x446c9033e7516d820cc9a2ce2d0b7328b579406f",
                        "amount": "7,391.764",
                        "iconUrl": "",
                        "isERC1155": false,
                        "isERC721": false,
                        "sign": false,
                        "value": ""
                    }
                ]
            },
            {
                "account": "0xa00ce6190c28afce9f8dabfe1ec578039b3794d9",
                "assets": [
                    {
                        "address": "0x446c9033e7516d820cc9a2ce2d0b7328b579406f",
                        "amount": "7,391.764",
                        "iconUrl": "",
                        "isERC1155": false,
                        "isERC721": false,
                        "sign": true,
                        "value": ""
                    }
                ]
            }
        ]
    },
    "profile": {
        "basic_info": {
            "baseFee": "",
            "blockNumber": 10179783,
            "callData": "0xa9059cbb000000000000000000000000a00ce6190c28afce9f8dabfe1ec578039b3794d9000000000000000000000000000000000000000000000000000000ac1a58c480",
            "debugEnable": true,
            "errorInfo": "",
            "eventCount": 2,
            "feeRecipient": "0xea674fdde714fd979de3edf0f56aa9716b898ec8",
            "formatValue": "0",
            "gasLimit": 287621,
            "gasPrice": "49",
            "gasUsed": 78764,
            "intTxnCount": 8,
            "internalRevert": true,
            "internalRevertMessage": "",
            "isContractCreation": false,
            "isFlashloan": false,
            "maxFee": "",
            "nonce": 1936408,
            "overwritedBlockNumber": -1,
            "priorityFee": "",
            "receiver": "0x446c9033e7516d820cc9a2ce2d0b7328b579406f",
            "revertMessage": "",
            "sender": "0x2b5634c42055806a59e9107ed44d43c426e58258",
            "simulationEnable": true,
            "sourceTxnHash": "0xa5dddf6cdcc691015f3549125895d4759d9bb3a8f5dee99ea879f5871878173c",
            "status": true,
            "timestamp": "2020-06-01T11:42:18Z",
            "transactionFee": "0.003859436",
            "txnHash": "0xa5dddf6cdcc691015f3549125895d4759d9bb3a8f5dee99ea879f5871878173c",
            "txnIndex": 12,
            "type": 0,
            "value": "0"
        },
        "fund_flow": [
            {
                "amount": "7,391.764",
                "from": "0x2b5634c42055806a59e9107ed44d43c426e58258",
                "id": 1,
                "isERC1155": false,
                "isERC721": false,
                "isReverted": false,
                "order": 1,
                "to": "0xa00ce6190c28afce9f8dabfe1ec578039b3794d9",
                "token": "0x446c9033e7516d820cc9a2ce2d0b7328b579406f"
            }
        ],
        "token_infos": [
            {
                "address": "0x446c9033e7516d820cc9a2ce2d0b7328b579406f",
                "decimals": 8
            },
            {
                "address": "0xc02aaa39b223fe8d0a0e5c4f27ead9083c756cc2",
                "decimals": 18
            },
            {
                "address": "0xeeeeeeeeeeeeeeeeeeeeeeeeeeeeeeeeeeeeeeee",
                "decimals": 18
            }
        ]
    },
    "address_label": {
        "labels": [
            {
                "address": "0x60bf91ac87fee5a78c28f7b67701fbcfa79c18ec",
                "label": "historyEToken"
            },
            {
                "address": "0x331d077518216c07c87f4f18ba64cd384c411f84",
                "label": "EToken2"
            },
            {
                "address": "0x3f57f8dd7cf41862cde6715c58225439fb0503e1",
                "label": "Asset"
            },
            {
                "address": "0x0000000000000000000000000000000000000001",
                "label": "Precompiled"
            },
            {
                "address": "0x4e8703a59fec01a97d4d2d76271e4f086dbb52fc",
                "label": "MultiAssetEmitter"
            },
            {
                "address": "0x0000000000000000000000000000000000000002",
                "label": "Precompiled"
            },
            {
                "address": "0x0000000000000000000000000000000000000003",
                "label": "Precompiled"
            },
            {
                "address": "0xeeeeeeeeeeeeeeeeeeeeeeeeeeeeeeeeeeeeeeee",
                "label": "Ether"
            },
            {
                "address": "0x0000000000000000000000000000000000000004",
                "label": "Precompiled"
            },
            {
                "address": "0x2b5634c42055806a59e9107ed44d43c426e58258",
                "label": "KuCoin"
            },
            {
                "address": "0x446c9033e7516d820cc9a2ce2d0b7328b579406f",
                "label": "Remme: SOLVE Token"
            }
        ]
    },
    "trace": {
        "accountLabels": null,
        "dataMap": {
            "-1": {
                "invocation": {
                    "address": "0x2b5634c42055806a59e9107ed44d43c426e58258",
                    "callData": "",
                    "decodedMethod": null,
                    "errorInfo": "",
                    "fromAddress": "",
                    "gasUsed": 0,
                    "id": -1,
                    "methodDecoded": false,
                    "operation": "",
                    "output": "",
                    "revert": false,
                    "revertMessage": "",
                    "selector": "",
                    "status": false,
                    "value": ""
                },
                "nodeType": 0
            },
            "0": {
                "invocation": {
                    "address": "0x446c9033e7516d820cc9a2ce2d0b7328b579406f",
                    "callData": "0x000000000000000000000000a00ce6190c28afce9f8dabfe1ec578039b3794d9000000000000000000000000000000000000000000000000000000ac1a58c480",
                    "decodedMethod": {
                        "callParams": [
                            {
                                "name": "_to",
                                "type": "address",
                                "value": "0xa00ce6190c28afce9f8dabfe1ec578039b3794d9"
                            },
                            {
                                "decimalAvailable": true,
                                "name": "_value",
                                "type": "uint256",
                                "value": "739,176,400,000"
                            }
                        ],
                        "constructorArguments": "",
                        "name": "transfer",
                        "returnParams": [
                            {
                                "name": "",
                                "type": "bool",
                                "value": true
                            }
                        ],
                        "signature": "transfer(address,uint256)"
                    },
                    "errorInfo": "",
                    "fromAddress": "0x2b5634c42055806a59e9107ed44d43c426e58258",
                    "gasUsed": 78764,
                    "id": 0,
                    "methodDecoded": true,
                    "operation": "CALL",
                    "output": "0x0000000000000000000000000000000000000000000000000000000000000001",
                    "revert": false,
                    "revertMessage": "",
                    "selector": "0xa9059cbb",
                    "status": true,
                    "value": "0"
                },
                "nodeType": 0
            },
            "1": {
                "invocation": {
                    "address": "0x3f57f8dd7cf41862cde6715c58225439fb0503e1",
                    "callData": "0x000000000000000000000000a00ce6190c28afce9f8dabfe1ec578039b3794d9000000000000000000000000000000000000000000000000000000ac1a58c48000000000000000000000000000000000000000000000000000000000000000800000000000000000000000002b5634c42055806a59e9107ed44d43c426e582580000000000000000000000000000000000000000000000000000000000000000",
                    "decodedMethod": {
                        "callParams": [
                            {
                                "name": "_to",
                                "type": "address",
                                "value": "0xa00ce6190c28afce9f8dabfe1ec578039b3794d9"
                            },
                            {
                                "name": "_value",
                                "type": "uint256",
                                "value": "739,176,400,000"
                            },
                            {
                                "name": "_reference",
                                "type": "string",
                                "value": ""
                            },
                            {
                                "name": "_sender",
                                "type": "address",
                                "value": "0x2b5634c42055806a59e9107ed44d43c426e58258"
                            }
                        ],
                        "constructorArguments": "",
                        "name": "_performTransferWithReference",
                        "returnParams": [
                            {
                                "name": "",
                                "type": "bool",
                                "value": true
                            }
                        ],
                        "signature": "_performTransferWithReference(address,uint256,string,address)"
                    },
                    "errorInfo": "",
                    "fromAddress": "0x446c9033e7516d820cc9a2ce2d0b7328b579406f",
                    "gasUsed": 52539,
                    "id": 1,
                    "methodDecoded": true,
                    "operation": "CALL",
                    "output": "0x0000000000000000000000000000000000000000000000000000000000000001",
                    "revert": false,
                    "revertMessage": "",
                    "selector": "0x1962df71",
                    "status": true,
                    "value": "0"
                },
                "nodeType": 0
            },
            "10": {
                "event": {
                    "contract": "0x446c9033e7516d820cc9a2ce2d0b7328b579406f",
                    "decodedLog": {
                        "name": "Transfer",
                        "params": [
                            {
                                "name": "from",
                                "type": "address",
                                "value": "0x2b5634c42055806a59e9107ed44d43c426e58258"
                            },
                            {
                                "name": "to",
                                "type": "address",
                                "value": "0xa00ce6190c28afce9f8dabfe1ec578039b3794d9"
                            },
                            {
                                "decimalAvailable": true,
                                "name": "value",
                                "type": "uint256",
                                "value": "739,176,400,000"
                            }
                        ],
                        "signature": "Transfer(address,address,uint256)"
                    },
                    "id": 10,
                    "logData": "0x000000000000000000000000000000000000000000000000000000ac1a58c480",
                    "logDecoded": true,
                    "operation": "EVENT",
                    "revert": false,
                    "status": true,
                    "topics": [
                        "0xddf252ad1be2c89b69c2b068fc378daa952ba7f163c4a11628f55a4df523b3ef",
                        "0x0000000000000000000000002b5634c42055806a59e9107ed44d43c426e58258",
                        "0x000000000000000000000000a00ce6190c28afce9f8dabfe1ec578039b3794d9"
                    ]
                },
                "nodeType": 1
            },
            "2": {
                "invocation": {
                    "address": "0x446c9033e7516d820cc9a2ce2d0b7328b579406f",
                    "callData": "0x0000000000000000000000002b5634c42055806a59e9107ed44d43c426e58258000000000000000000000000a00ce6190c28afce9f8dabfe1ec578039b3794d9000000000000000000000000000000000000000000000000000000ac1a58c48000000000000000000000000000000000000000000000000000000000000000a00000000000000000000000002b5634c42055806a59e9107ed44d43c426e582580000000000000000000000000000000000000000000000000000000000000000",
                    "decodedMethod": {
                        "callParams": [
                            {
                                "name": "_from",
                                "type": "address",
                                "value": "0x2b5634c42055806a59e9107ed44d43c426e58258"
                            },
                            {
                                "name": "_to",
                                "type": "address",
                                "value": "0xa00ce6190c28afce9f8dabfe1ec578039b3794d9"
                            },
                            {
                                "name": "_value",
                                "type": "uint256",
                                "value": "739,176,400,000"
                            },
                            {
                                "name": "_reference",
                                "type": "string",
                                "value": ""
                            },
                            {
                                "name": "_sender",
                                "type": "address",
                                "value": "0x2b5634c42055806a59e9107ed44d43c426e58258"
                            }
                        ],
                        "constructorArguments": "",
                        "name": "_forwardTransferFromWithReference",
                        "returnParams": [
                            {
                                "name": "",
                                "type": "bool",
                                "value": true
                            }
                        ],
                        "signature": "_forwardTransferFromWithReference(address,address,uint256,string,address)"
                    },
                    "errorInfo": "",
                    "fromAddress": "0x3f57f8dd7cf41862cde6715c58225439fb0503e1",
                    "gasUsed": 48391,
                    "id": 2,
                    "methodDecoded": true,
                    "operation": "CALL",
                    "output": "0x0000000000000000000000000000000000000000000000000000000000000001",
                    "revert": false,
                    "revertMessage": "",
                    "selector": "0x14cba002",
                    "status": true,
                    "value": "0"
                },
                "nodeType": 0
            },
            "3": {
                "invocation": {
                    "address": "0x331d077518216c07c87f4f18ba64cd384c411f84",
                    "callData": "0x0000000000000000000000002b5634c42055806a59e9107ed44d43c426e58258000000000000000000000000a00ce6190c28afce9f8dabfe1ec578039b3794d9000000000000000000000000000000000000000000000000000000ac1a58c480534f4c564500000000000000000000000000000000000000000000000000000000000000000000000000000000000000000000000000000000000000000000c00000000000000000000000002b5634c42055806a59e9107ed44d43c426e582580000000000000000000000000000000000000000000000000000000000000000",
                    "decodedMethod": {
                        "callParams": [
                            {
                                "name": "_from",
                                "type": "address",
                                "value": "0x2b5634c42055806a59e9107ed44d43c426e58258"
                            },
                            {
                                "name": "_to",
                                "type": "address",
                                "value": "0xa00ce6190c28afce9f8dabfe1ec578039b3794d9"
                            },
                            {
                                "name": "_value",
                                "type": "uint256",
                                "value": "739,176,400,000"
                            },
                            {
                                "name": "_symbol",
                                "type": "bytes32",
                                "value": "0x534f4c5645000000000000000000000000000000000000000000000000000000"
                            },
                            {
                                "name": "_reference",
                                "type": "string",
                                "value": ""
                            },
                            {
                                "name": "_sender",
                                "type": "address",
                                "value": "0x2b5634c42055806a59e9107ed44d43c426e58258"
                            }
                        ],
                        "constructorArguments": "",
                        "name": "proxyTransferFromWithReference",
                        "returnParams": [
                            {
                                "name": "",
                                "type": "bool",
                                "value": true
                            }
                        ],
                        "signature": "proxyTransferFromWithReference(address,address,uint256,bytes32,string,address)"
                    },
                    "errorInfo": "",
                    "fromAddress": "0x446c9033e7516d820cc9a2ce2d0b7328b579406f",
                    "gasUsed": 42529,
                    "id": 3,
                    "methodDecoded": true,
                    "operation": "CALL",
                    "output": "0x0000000000000000000000000000000000000000000000000000000000000001",
                    "revert": false,
                    "revertMessage": "",
                    "selector": "0x161ff662",
                    "status": true,
                    "value": "0"
                },
                "nodeType": 0
            },
            "4": {
                "invocation": {
                    "address": "0x60bf91ac87fee5a78c28f7b67701fbcfa79c18ec",
                    "callData": "0x0000000000000000000000002b5634c42055806a59e9107ed44d43c426e58258000000000000000000000000a00ce6190c28afce9f8dabfe1ec578039b3794d9534f4c5645000000000000000000000000000000000000000000000000000000000000000000000000000000000000000000000000000000000000ac1a58c48000000000000000000000000000000000000000000000000000000000000000a00000000000000000000000000000000000000000000000000000000000000000",
                    "decodedMethod": {
                        "callParams": [
                            {
                                "name": "_from",
                                "type": "address",
                                "value": "0x2b5634c42055806a59e9107ed44d43c426e58258"
                            },
                            {
                                "name": "_to",
                                "type": "address",
                                "value": "0xa00ce6190c28afce9f8dabfe1ec578039b3794d9"
                            },
                            {
                                "name": "_symbol",
                                "type": "bytes32",
                                "value": "0x534f4c5645000000000000000000000000000000000000000000000000000000"
                            },
                            {
                                "name": "_value",
                                "type": "uint256",
                                "value": "739,176,400,000"
                            },
                            {
                                "name": "_reference",
                                "type": "string",
                                "value": ""
                            }
                        ],
                        "constructorArguments": "",
                        "name": "emitTransfer",
                        "returnParams": [],
                        "signature": "emitTransfer(address,address,bytes32,uint256,string)"
                    },
                    "errorInfo": "",
                    "fromAddress": "0x331d077518216c07c87f4f18ba64cd384c411f84",
                    "gasUsed": 9902,
                    "id": 4,
                    "methodDecoded": true,
                    "operation": "CALL",
                    "output": "",
                    "revert": false,
                    "revertMessage": "",
                    "selector": "0x515c1457",
                    "status": true,
                    "value": "0"
                },
                "nodeType": 0
            },
            "5": {
                "invocation": {
                    "address": "0x4e8703a59fec01a97d4d2d76271e4f086dbb52fc",
                    "callData": "0x0000000000000000000000002b5634c42055806a59e9107ed44d43c426e58258000000000000000000000000a00ce6190c28afce9f8dabfe1ec578039b3794d9534f4c5645000000000000000000000000000000000000000000000000000000000000000000000000000000000000000000000000000000000000ac1a58c48000000000000000000000000000000000000000000000000000000000000000a00000000000000000000000000000000000000000000000000000000000000000",
                    "decodedMethod": {
                        "callParams": [
                            {
                                "name": "_from",
                                "type": "address",
                                "value": "0x2b5634c42055806a59e9107ed44d43c426e58258"
                            },
                            {
                                "name": "_to",
                                "type": "address",
                                "value": "0xa00ce6190c28afce9f8dabfe1ec578039b3794d9"
                            },
                            {
                                "name": "_symbol",
                                "type": "bytes32",
                                "value": "0x534f4c5645000000000000000000000000000000000000000000000000000000"
                            },
                            {
                                "name": "_value",
                                "type": "uint256",
                                "value": "739,176,400,000"
                            },
                            {
                                "name": "_reference",
                                "type": "string",
                                "value": ""
                            }
                        ],
                        "constructorArguments": "",
                        "name": "emitTransfer",
                        "returnParams": [],
                        "signature": "emitTransfer(address,address,bytes32,uint256,string)"
                    },
                    "errorInfo": "",
                    "fromAddress": "0x60bf91ac87fee5a78c28f7b67701fbcfa79c18ec",
                    "gasUsed": 6548,
                    "id": 5,
                    "methodDecoded": true,
                    "operation": "DELEGATECALL",
                    "output": "",
                    "revert": false,
                    "revertMessage": "",
                    "selector": "0x515c1457",
                    "status": true,
                    "value": "0"
                },
                "nodeType": 0
            },
            "6": {
                "invocation": {
                    "address": "0x60bf91ac87fee5a78c28f7b67701fbcfa79c18ec",
                    "callData": "0x000000000000000000000000331d077518216c07c87f4f18ba64cd384c411f84",
                    "decodedMethod": {
                        "callParams": [
                            {
                                "name": "",
                                "type": "address",
                                "value": "0x331d077518216c07c87f4f18ba64cd384c411f84"
                            }
                        ],
                        "constructorArguments": "",
                        "name": "versions",
                        "returnParams": [
                            {
                                "name": "",
                                "type": "uint256",
                                "value": "2"
                            }
                        ],
                        "signature": "versions(address)"
                    },
                    "errorInfo": "",
                    "fromAddress": "0x60bf91ac87fee5a78c28f7b67701fbcfa79c18ec",
                    "gasUsed": 1159,
                    "id": 6,
                    "methodDecoded": true,
                    "operation": "CALL",
                    "output": "0x0000000000000000000000000000000000000000000000000000000000000002",
                    "revert": false,
                    "revertMessage": "",
                    "selector": "0x488725a0",
                    "status": true,
                    "value": "0"
                },
                "nodeType": 0
            },
            "7": {
                "invocation": {
                    "address": "0x0000000000000000000000000000000000000004",
                    "callData": "0x",
                    "decodedMethod": {
                        "callParams": [
                            {
                                "name": "data",
                                "type": "bytes",
                                "value": "0x"
                            }
                        ],
                        "constructorArguments": "",
                        "name": "dataCopy()",
                        "returnParams": [
                            {
                                "name": "data",
                                "type": "bytes",
                                "value": "0x"
                            }
                        ],
                        "signature": "dataCopy(bytes)"
                    },
                    "errorInfo": "out of gas",
                    "fromAddress": "0x60bf91ac87fee5a78c28f7b67701fbcfa79c18ec",
                    "gasUsed": 3,
                    "id": 7,
                    "methodDecoded": true,
                    "operation": "CALL",
                    "output": "",
                    "revert": true,
                    "revertMessage": "",
                    "selector": "0x",
                    "status": false,
                    "value": "0"
                },
                "nodeType": 0
            },
            "8": {
                "event": {
                    "contract": "0x60bf91ac87fee5a78c28f7b67701fbcfa79c18ec",
                    "decodedLog": {
                        "name": "Transfer",
                        "params": [
                            {
                                "name": "from",
                                "type": "address",
                                "value": "0x2b5634c42055806a59e9107ed44d43c426e58258"
                            },
                            {
                                "name": "to",
                                "type": "address",
                                "value": "0xa00ce6190c28afce9f8dabfe1ec578039b3794d9"
                            },
                            {
                                "name": "symbol",
                                "type": "bytes32",
                                "value": "0x534f4c5645000000000000000000000000000000000000000000000000000000"
                            },
                            {
                                "name": "value",
                                "type": "uint256",
                                "value": "739,176,400,000"
                            },
                            {
                                "name": "reference",
                                "type": "string",
                                "value": ""
                            },
                            {
                                "name": "version",
                                "type": "uint256",
                                "value": "2"
                            }
                        ],
                        "signature": "Transfer(address,address,bytes32,uint256,string,uint256)"
                    },
                    "id": 8,
                    "logData": "0x000000000000000000000000000000000000000000000000000000ac1a58c480000000000000000000000000000000000000000000000000000000000000006000000000000000000000000000000000000000000000000000000000000000020000000000000000000000000000000000000000000000000000000000000000",
                    "logDecoded": true,
                    "operation": "EVENT",
                    "revert": false,
                    "status": true,
                    "topics": [
                        "0x940c4b3549ef0aaff95807dc27f62d88ca15532d1bf535d7d63800f40395d16c",
                        "0x0000000000000000000000002b5634c42055806a59e9107ed44d43c426e58258",
                        "0x000000000000000000000000a00ce6190c28afce9f8dabfe1ec578039b3794d9",
                        "0x534f4c5645000000000000000000000000000000000000000000000000000000"
                    ]
                },
                "nodeType": 1
            },
            "9": {
                "invocation": {
                    "address": "0x446c9033e7516d820cc9a2ce2d0b7328b579406f",
                    "callData": "0x0000000000000000000000002b5634c42055806a59e9107ed44d43c426e58258000000000000000000000000a00ce6190c28afce9f8dabfe1ec578039b3794d9000000000000000000000000000000000000000000000000000000ac1a58c480",
                    "decodedMethod": {
                        "callParams": [
                            {
                                "name": "_from",
                                "type": "address",
                                "value": "0x2b5634c42055806a59e9107ed44d43c426e58258"
                            },
                            {
                                "name": "_to",
                                "type": "address",
                                "value": "0xa00ce6190c28afce9f8dabfe1ec578039b3794d9"
                            },
                            {
                                "name": "_value",
                                "type": "uint256",
                                "value": "739,176,400,000"
                            }
                        ],
                        "constructorArguments": "",
                        "name": "emitTransfer",
                        "returnParams": [],
                        "signature": "emitTransfer(address,address,uint256)"
                    },
                    "errorInfo": "",
                    "fromAddress": "0x331d077518216c07c87f4f18ba64cd384c411f84",
                    "gasUsed": 3027,
                    "id": 9,
                    "methodDecoded": true,
                    "operation": "CALL",
                    "output": "",
                    "revert": false,
                    "revertMessage": "",
                    "selector": "0x23de6651",
                    "status": true,
                    "value": "0"
                },
                "nodeType": 0
            }
        },
        "gasFlame": [
            {
                "children": [
                    {
                        "children": [
                            {
                                "children": [],
                                "depth": 0,
                                "name": "Initial Gas",
                                "value": 21620
                            },
                            {
                                "children": [
                                    {
                                        "children": [
                                            {
                                                "children": [
                                                    {
                                                        "children": [
                                                            {
                                                                "children": [
                                                                    {
                                                                        "children": [
                                                                            {
                                                                                "children": [],
                                                                                "depth": 6,
                                                                                "name": "versions",
                                                                                "value": 1159
                                                                            },
                                                                            {
                                                                                "children": [],
                                                                                "depth": 6,
                                                                                "name": "dataCopy()",
                                                                                "value": 3
                                                                            }
                                                                        ],
                                                                        "depth": 5,
                                                                        "name": "emitTransfer",
                                                                        "value": 6548
                                                                    }
                                                                ],
                                                                "depth": 4,
                                                                "name": "emitTransfer",
                                                                "value": 9902
                                                            },
                                                            {
                                                                "children": [],
                                                                "depth": 4,
                                                                "name": "emitTransfer",
                                                                "value": 3027
                                                            }
                                                        ],
                                                        "depth": 3,
                                                        "name": "proxyTransferFromWithReference",
                                                        "value": 42529
                                                    }
                                                ],
                                                "depth": 2,
                                                "name": "_forwardTransferFromWithReference",
                                                "value": 48391
                                            }
                                        ],
                                        "depth": 1,
                                        "name": "_performTransferWithReference",
                                        "value": 52539
                                    }
                                ],
                                "depth": 0,
                                "name": "Executed Gas",
                                "value": 57144
                            }
                        ],
                        "depth": -1,
                        "name": "Actual Gas Used",
                        "value": 78764
                    },
                    {
                        "children": [],
                        "depth": -1,
                        "name": "Refunded Gas",
                        "value": 0
                    }
                ],
                "depth": -2,
                "name": "Total Gas",
                "value": 78764
            }
        ],
        "isConfirmed": true,
        "mainTrace": [
            {
                "children": [
                    {
                        "children": [
                            {
                                "children": [
                                    {
                                        "children": [
                                            {
                                                "children": [
                                                    {
                                                        "children": [
                                                            {
                                                                "children": [
                                                                    {
                                                                        "children": [],
                                                                        "depth": 6,
                                                                        "id": 6,
                                                                        "order": 6
                                                                    },
                                                                    {
                                                                        "children": [],
                                                                        "depth": 6,
                                                                        "id": 7,
                                                                        "order": 7
                                                                    },
                                                                    {
                                                                        "children": [],
                                                                        "depth": 6,
                                                                        "id": 8,
                                                                        "order": 8
                                                                    }
                                                                ],
                                                                "depth": 5,
                                                                "id": 5,
                                                                "order": 5
                                                            }
                                                        ],
                                                        "depth": 4,
                                                        "id": 4,
                                                        "order": 4
                                                    },
                                                    {
                                                        "children": [
                                                            {
                                                                "children": [],
                                                                "depth": 5,
                                                                "id": 10,
                                                                "order": 10
                                                            }
                                                        ],
                                                        "depth": 4,
                                                        "id": 9,
                                                        "order": 9
                                                    }
                                                ],
                                                "depth": 3,
                                                "id": 3,
                                                "order": 3
                                            }
                                        ],
                                        "depth": 2,
                                        "id": 2,
                                        "order": 2
                                    }
                                ],
                                "depth": 1,
                                "id": 1,
                                "order": 1
                            }
                        ],
                        "depth": 0,
                        "id": 0,
                        "order": 0
                    }
                ],
                "depth": -1,
                "id": -1,
                "order": -1
            }
        ],
        "mainTraceNodeCount": 11,
        "parentIdMap": {
            "0": -1,
            "1": 0,
            "10": 9,
            "2": 1,
            "3": 2,
            "4": 3,
            "5": 4,
            "6": 5,
            "7": 5,
            "8": 5,
            "9": 3
        },
        "tidyTrace": [
            {
                "children": [
                    {
                        "children": [
                            {
                                "children": [
                                    {
                                        "children": [
                                            {
                                                "children": [
                                                    {
                                                        "children": [
                                                            {
                                                                "children": [
                                                                    {
                                                                        "children": [],
                                                                        "depth": 6,
                                                                        "id": 6,
                                                                        "order": 6
                                                                    },
                                                                    {
                                                                        "children": [],
                                                                        "depth": 6,
                                                                        "id": 7,
                                                                        "order": 7
                                                                    },
                                                                    {
                                                                        "children": [],
                                                                        "depth": 6,
                                                                        "id": 8,
                                                                        "order": 8
                                                                    }
                                                                ],
                                                                "depth": 5,
                                                                "id": 5,
                                                                "order": 5
                                                            }
                                                        ],
                                                        "depth": 4,
                                                        "id": 4,
                                                        "order": 4
                                                    },
                                                    {
                                                        "children": [
                                                            {
                                                                "children": [],
                                                                "depth": 5,
                                                                "id": 10,
                                                                "order": 10
                                                            }
                                                        ],
                                                        "depth": 4,
                                                        "id": 9,
                                                        "order": 9
                                                    }
                                                ],
                                                "depth": 3,
                                                "id": 3,
                                                "order": 3
                                            }
                                        ],
                                        "depth": 2,
                                        "id": 2,
                                        "order": 2
                                    }
                                ],
                                "depth": 1,
                                "id": 1,
                                "order": 1
                            }
                        ],
                        "depth": 0,
                        "id": 0,
                        "order": 0
                    }
                ],
                "depth": -1,
                "id": -1,
                "order": -1
            }
        ],
        "tidyTraceNodeCount": 11
    },
    "state_change": {
        "stateChanges": [
            {
                "address": "0x331d077518216c07c87f4f18ba64cd384c411f84",
                "erc": "",
                "slots": [
                    {
                        "current": "0x0000000000000000000000000000000000000000000000000001b08b1f5cbadc",
                        "key": "0x655b1b5a92eb67ad6c5c952c94f5063ed97365d0d829d3c1b225eecf2eac4c0d",
                        "prev": "0x0000000000000000000000000000000000000000000000000001b13739b57f5c"
                    },
                    {
                        "current": "0x000000000000000000000000000000000000000000000000000000ac918e5880",
                        "key": "0x5b32e11e232b914bb35849ff116595e6c6f5a34a091821e3b5bd70a9fe6701b1",
                        "prev": "0x0000000000000000000000000000000000000000000000000000000077359400"
                    }
                ],
                "storageVariables": []
            }
        ]
    }
}