{
    "balance_change": {
        "balanceChanges": [
            {
                "account": "0x81c637cebcfefb08c586a32d401a737e5996920b",
                "assets": [
                    {
                        "address": "0x299627d8b7f84252dca9029748e93c7610e58bf1",
                        "amount": "49,392,958.891431472",
                        "iconUrl": "",
                        "isERC1155": false,
                        "isERC721": false,
                        "sign": false,
                        "value": "23.1333083"
                    },
                    {
                        "address": "0xeeeeeeeeeeeeeeeeeeeeeeeeeeeeeeeeeeeeeeee",
                        "amount": "0.019592856143893073",
                        "iconUrl": "https://assets.blocksec.com/image/1663669189317-3.png",
                        "isERC1155": false,
                        "isERC721": false,
                        "sign": true,
                        "value": "23.36448094695"
                    }
                ]
            },
            {
                "account": "0x68b3465833fb72a70ecdf485e0e4c7bd8665fc45",
                "assets": [
                    {
                        "address": "0x299627d8b7f84252dca9029748e93c7610e58bf1",
                        "amount": "1,029,019.976904822",
                        "iconUrl": "",
                        "isERC1155": false,
                        "isERC721": false,
                        "sign": false,
                        "value": "0.47782217"
                    }
                ]
            },
            {
                "account": "0x02142cd246d0c4cfad972257b824a11f6ffaac44",
                "assets": [
                    {
                        "address": "0x299627d8b7f84252dca9029748e93c7610e58bf1",
                        "amount": "49,392,958.891431472",
                        "iconUrl": "",
                        "isERC1155": false,
                        "isERC721": false,
                        "sign": true,
                        "value": "23.1333083"
                    },
                    {
                        "address": "0xc02aaa39b223fe8d0a0e5c4f27ead9083c756cc2",
                        "amount": "0.019592856143893073",
                        "iconUrl": "https://assets.blocksec.com/icon/f1cb2d02c471d545bbc7722daf3277fd852d98e63d118771af7047bd8256c516.png",
                        "isERC1155": false,
                        "isERC721": false,
                        "sign": false,
                        "value": "23.36448094695"
                    }
                ]
            },
            {
                "account": "0x8fe24a47120cb3baae4849cc722407af308e3fb0",
                "assets": [
                    {
                        "address": "0x299627d8b7f84252dca9029748e93c7610e58bf1",
                        "amount": "1,029,019.976904822",
                        "iconUrl": "",
                        "isERC1155": false,
                        "isERC721": false,
                        "sign": true,
                        "value": "0.47782217"
                    }
                ]
            },
            {
                "account": "0xc02aaa39b223fe8d0a0e5c4f27ead9083c756cc2",
                "assets": [
                    {
                        "address": "0xc02aaa39b223fe8d0a0e5c4f27ead9083c756cc2",
                        "amount": "0.019592856143893073",
                        "iconUrl": "https://assets.blocksec.com/icon/f1cb2d02c471d545bbc7722daf3277fd852d98e63d118771af7047bd8256c516.png",
                        "isERC1155": false,
                        "isERC721": false,
                        "sign": true,
                        "value": "23.36448094695"
                    },
                    {
                        "address": "0xeeeeeeeeeeeeeeeeeeeeeeeeeeeeeeeeeeeeeeee",
                        "amount": "0.019592856143893073",
                        "iconUrl": "https://assets.blocksec.com/image/1663669189317-3.png",
                        "isERC1155": false,
                        "isERC721": false,
                        "sign": false,
                        "value": "23.36448094695"
                    }
                ]
            }
        ]
    },
    "profile": {
        "basic_info": {
            "baseFee": "15.195577317",
            "blockNumber": 16296438,
            "callData": "0x5ae401dc0000000000000000000000000000000000000000000000000000000063aeaa0f000000000000000000000000000000000000000000000000000000000000004000000000000000000000000000000000000000000000000000000000000000020000000000000000000000000000000000000000000000000000000000000040000000000000000000000000000000000000000000000000000000000000016000000000000000000000000000000000000000000000000000000000000000e4472b43f300000000000000000000000000000000000000000000000000b6ca692d82771c00000000000000000000000000000000000000000000000000417ea9875017e9000000000000000000000000000000000000000000000000000000000000008000000000000000000000000000000000000000000000000000000000000000020000000000000000000000000000000000000000000000000000000000000002000000000000000000000000299627d8b7f84252dca9029748e93c7610e58bf1000000000000000000000000c02aaa39b223fe8d0a0e5c4f27ead9083c756cc200000000000000000000000000000000000000000000000000000000000000000000000000000000000000000000000000000000000000000000004449404b7c00000000000000000000000000000000000000000000000000417ea9875017e900000000000000000000000081c637cebcfefb08c586a32d401a737e5996920b00000000000000000000000000000000000000000000000000000000",
            "debugEnable": true,
            "errorInfo": "",
            "eventCount": 7,
            "feeRecipient": "0x690b9a9e9aa1c9db991c7721a92d351db4fac990",
            "formatValue": "0",
            "gasLimit": 276136,
            "gasPrice": "16.695577317",
            "gasUsed": 205986,
            "intTxnCount": 17,
            "internalRevert": false,
            "internalRevertMessage": "",
            "isContractCreation": false,
            "isFlashloan": false,
            "maxFee": "20.423132005",
            "nonce": 520,
            "overwritedBlockNumber": -1,
            "priorityFee": "1.5",
            "receiver": "0x68b3465833fb72a70ecdf485e0e4c7bd8665fc45",
            "revertMessage": "",
            "sender": "0x81c637cebcfefb08c586a32d401a737e5996920b",
            "simulationEnable": true,
            "sourceTxnHash": "0xa5f7a0afac575348a71c3c7a63756fcdede0f1853744f1a14b8bd143621dcd8a",
            "status": true,
            "timestamp": "2022-12-30T08:37:11Z",
            "transactionFee": "0.003439055189219562",
            "txnHash": "0xa5f7a0afac575348a71c3c7a63756fcdede0f1853744f1a14b8bd143621dcd8a",
            "txnIndex": 100,
            "type": 2,
            "value": "0"
        },
        "fund_flow": [
            {
                "amount": "1,029,019.976904822",
                "from": "0x68b3465833fb72a70ecdf485e0e4c7bd8665fc45",
                "id": 1,
                "isERC1155": false,
                "isERC721": false,
                "isReverted": false,
                "order": 1,
                "to": "0x8fe24a47120cb3baae4849cc722407af308e3fb0",
                "token": "0x299627d8b7f84252dca9029748e93c7610e58bf1"
            },
            {
                "amount": "49,392,958.891431472",
                "from": "0x81c637cebcfefb08c586a32d401a737e5996920b",
                "id": 2,
                "isERC1155": false,
                "isERC721": false,
                "isReverted": false,
                "order": 2,
                "to": "0x02142cd246d0c4cfad972257b824a11f6ffaac44",
                "token": "0x299627d8b7f84252dca9029748e93c7610e58bf1"
            },
            {
                "amount": "0.019592856143893073",
                "from": "0x02142cd246d0c4cfad972257b824a11f6ffaac44",
                "id": 3,
                "isERC1155": false,
                "isERC721": false,
                "isReverted": false,
                "order": 3,
                "to": "0x68b3465833fb72a70ecdf485e0e4c7bd8665fc45",
                "token": "0xc02aaa39b223fe8d0a0e5c4f27ead9083c756cc2"
            },
            {
                "amount": "0.019592856143893073",
                "from": "0xc02aaa39b223fe8d0a0e5c4f27ead9083c756cc2",
                "id": 4,
                "isERC1155": false,
                "isERC721": false,
                "isReverted": false,
                "order": 4,
                "to": "0x68b3465833fb72a70ecdf485e0e4c7bd8665fc45",
                "token": "0xeeeeeeeeeeeeeeeeeeeeeeeeeeeeeeeeeeeeeeee"
            },
            {
                "amount": "0.019592856143893073",
                "from": "0x68b3465833fb72a70ecdf485e0e4c7bd8665fc45",
                "id": 5,
                "isERC1155": false,
                "isERC721": false,
                "isReverted": false,
                "order": 5,
                "to": "0xc02aaa39b223fe8d0a0e5c4f27ead9083c756cc2",
                "token": "0xc02aaa39b223fe8d0a0e5c4f27ead9083c756cc2"
            },
            {
                "amount": "0.019592856143893073",
                "from": "0x68b3465833fb72a70ecdf485e0e4c7bd8665fc45",
                "id": 6,
                "isERC1155": false,
                "isERC721": false,
                "isReverted": false,
                "order": 6,
                "to": "0x81c637cebcfefb08c586a32d401a737e5996920b",
                "token": "0xeeeeeeeeeeeeeeeeeeeeeeeeeeeeeeeeeeeeeeee"
            }
        ],
        "token_infos": [
            {
                "address": "0xeeeeeeeeeeeeeeeeeeeeeeeeeeeeeeeeeeeeeeee",
                "decimals": 18
            },
            {
                "address": "0x299627d8b7f84252dca9029748e93c7610e58bf1",
                "decimals": 9
            },
            {
                "address": "0xc02aaa39b223fe8d0a0e5c4f27ead9083c756cc2",
                "decimals": 18
            }
        ]
    },
    "address_label": {
        "labels": [
            {
                "address": "0xeeeeeeeeeeeeeeeeeeeeeeeeeeeeeeeeeeeeeeee",
                "label": "Ether"
            },
            {
                "address": "0xc02aaa39b223fe8d0a0e5c4f27ead9083c756cc2",
                "label": "Wrapped Ether (WETH)"
            },
            {
                "address": "0x0000000000000000000000000000000000000002",
                "label": "Precompiled"
            },
            {
                "address": "0x68b3465833fb72a70ecdf485e0e4c7bd8665fc45",
                "label": "Uniswap V3: Router 2"
            },
            {
                "address": "0x0000000000000000000000000000000000000004",
                "label": "Precompiled"
            },
            {
                "address": "0x299627d8b7f84252dca9029748e93c7610e58bf1",
                "label": "Spoonerism (Spoon)"
            },
            {
                "address": "0x02142cd246d0c4cfad972257b824a11f6ffaac44",
                "label": "Uniswap V2: Spoon 2"
            },
            {
                "address": "0xf4f071eb637b64fc78c9ea87dace4445d119ca35",
                "label": "TransparentUpgradeableProxy_f4f0_ca35"
            },
            {
                "address": "0x0000000000000000000000000000000000000001",
                "label": "Precompiled"
            },
            {
                "address": "0x0000000000000000000000000000000000000003",
                "label": "Precompiled"
            }
        ]
    },
    "trace": {
        "accountLabels": null,
        "dataMap": {
            "-1": {
                "invocation": {
                    "address": "0x81c637cebcfefb08c586a32d401a737e5996920b",
                    "callData": "",
                    "decodedMethod": null,
                    "errorInfo": "",
                    "fromAddress": "",
                    "gasUsed": 0,
                    "id": -1,
                    "methodDecoded": false,
                    "operation": "",
                    "output": "",
                    "revert": false,
                    "revertMessage": "",
                    "selector": "",
                    "status": false,
                    "value": ""
                },
                "nodeType": 0
            },
            "0": {
                "invocation": {
                    "address": "0x68b3465833fb72a70ecdf485e0e4c7bd8665fc45",
                    "callData": "0x0000000000000000000000000000000000000000000000000000000063aeaa0f000000000000000000000000000000000000000000000000000000000000004000000000000000000000000000000000000000000000000000000000000000020000000000000000000000000000000000000000000000000000000000000040000000000000000000000000000000000000000000000000000000000000016000000000000000000000000000000000000000000000000000000000000000e4472b43f300000000000000000000000000000000000000000000000000b6ca692d82771c00000000000000000000000000000000000000000000000000417ea9875017e9000000000000000000000000000000000000000000000000000000000000008000000000000000000000000000000000000000000000000000000000000000020000000000000000000000000000000000000000000000000000000000000002000000000000000000000000299627d8b7f84252dca9029748e93c7610e58bf1000000000000000000000000c02aaa39b223fe8d0a0e5c4f27ead9083c756cc200000000000000000000000000000000000000000000000000000000000000000000000000000000000000000000000000000000000000000000004449404b7c00000000000000000000000000000000000000000000000000417ea9875017e900000000000000000000000081c637cebcfefb08c586a32d401a737e5996920b00000000000000000000000000000000000000000000000000000000",
                    "decodedMethod": {
                        "callParams": [
                            {
                                "name": "deadline",
                                "type": "uint256",
                                "value": "1,672,391,183"
                            },
                            {
                                "name": "data",
                                "type": "bytes[]",
                                "value": [
                                    "0x472b43f300000000000000000000000000000000000000000000000000b6ca692d82771c00000000000000000000000000000000000000000000000000417ea9875017e9000000000000000000000000000000000000000000000000000000000000008000000000000000000000000000000000000000000000000000000000000000020000000000000000000000000000000000000000000000000000000000000002000000000000000000000000299627d8b7f84252dca9029748e93c7610e58bf1000000000000000000000000c02aaa39b223fe8d0a0e5c4f27ead9083c756cc2",
                                    "0x49404b7c00000000000000000000000000000000000000000000000000417ea9875017e900000000000000000000000081c637cebcfefb08c586a32d401a737e5996920b"
                                ]
                            }
                        ],
                        "constructorArguments": "",
                        "name": "multicall",
                        "returnParams": [
                            {
                                "name": "",
                                "type": "bytes[]",
                                "value": [
                                    "0x00000000000000000000000000000000000000000000000000459b994e979251",
                                    "0x"
                                ]
                            }
                        ],
                        "signature": "multicall(uint256,bytes[])"
                    },
                    "errorInfo": "",
                    "fromAddress": "0x81c637cebcfefb08c586a32d401a737e5996920b",
                    "gasUsed": 205986,
                    "id": 0,
                    "methodDecoded": true,
                    "operation": "CALL",
                    "output": "0x0000000000000000000000000000000000000000000000000000000000000020000000000000000000000000000000000000000000000000000000000000000200000000000000000000000000000000000000000000000000000000000000400000000000000000000000000000000000000000000000000000000000000080000000000000000000000000000000000000000000000000000000000000002000000000000000000000000000000000000000000000000000459b994e9792510000000000000000000000000000000000000000000000000000000000000000",
                    "revert": false,
                    "revertMessage": "",
                    "selector": "0x5ae401dc",
                    "status": true,
                    "value": "0"
                },
                "nodeType": 0
            },
            "1": {
                "invocation": {
                    "address": "0x68b3465833fb72a70ecdf485e0e4c7bd8665fc45",
                    "callData": "0x00000000000000000000000000000000000000000000000000b6ca692d82771c00000000000000000000000000000000000000000000000000417ea9875017e9000000000000000000000000000000000000000000000000000000000000008000000000000000000000000000000000000000000000000000000000000000020000000000000000000000000000000000000000000000000000000000000002000000000000000000000000299627d8b7f84252dca9029748e93c7610e58bf1000000000000000000000000c02aaa39b223fe8d0a0e5c4f27ead9083c756cc2",
                    "decodedMethod": {
                        "callParams": [
                            {
                                "name": "amountIn",
                                "type": "uint256",
                                "value": "51,450,998,845,241,116"
                            },
                            {
                                "name": "amountOutMin",
                                "type": "uint256",
                                "value": "18,435,140,070,938,601"
                            },
                            {
                                "name": "path",
                                "type": "address[]",
                                "value": [
                                    "0x299627d8b7f84252dca9029748e93c7610e58bf1",
                                    "0xc02aaa39b223fe8d0a0e5c4f27ead9083c756cc2"
                                ]
                            },
                            {
                                "name": "to",
                                "type": "address",
                                "value": "0x0000000000000000000000000000000000000002"
                            }
                        ],
                        "constructorArguments": "",
                        "name": "swapExactTokensForTokens",
                        "returnParams": [
                            {
                                "name": "amountOut",
                                "type": "uint256",
                                "value": "19,592,856,143,893,073"
                            }
                        ],
                        "signature": "swapExactTokensForTokens(uint256,uint256,address[],address)"
                    },
                    "errorInfo": "",
                    "fromAddress": "0x68b3465833fb72a70ecdf485e0e4c7bd8665fc45",
                    "gasUsed": 182749,
                    "id": 1,
                    "methodDecoded": true,
                    "operation": "DELEGATECALL",
                    "output": "0x00000000000000000000000000000000000000000000000000459b994e979251",
                    "revert": false,
                    "revertMessage": "",
                    "selector": "0x472b43f3",
                    "status": true,
                    "value": "0"
                },
                "nodeType": 0
            },
            "10": {
                "invocation": {
                    "address": "0x299627d8b7f84252dca9029748e93c7610e58bf1",
                    "callData": "0x00000000000000000000000002142cd246d0c4cfad972257b824a11f6ffaac44",
                    "decodedMethod": {
                        "callParams": [
                            {
                                "name": "account",
                                "type": "address",
                                "value": "0x02142cd246d0c4cfad972257b824a11f6ffaac44"
                            }
                        ],
                        "constructorArguments": "",
                        "name": "balanceOf",
                        "returnParams": [
                            {
                                "decimalAvailable": true,
                                "name": "",
                                "type": "uint256",
                                "value": "5,894,609,166,463,346,535"
                            }
                        ],
                        "signature": "balanceOf(address)"
                    },
                    "errorInfo": "",
                    "fromAddress": "0x68b3465833fb72a70ecdf485e0e4c7bd8665fc45",
                    "gasUsed": 2001,
                    "id": 10,
                    "methodDecoded": true,
                    "operation": "STATICCALL",
                    "output": "0x00000000000000000000000000000000000000000000000051cddbce50cf2767",
                    "revert": false,
                    "revertMessage": "",
                    "selector": "0x70a08231",
                    "status": true,
                    "value": "0"
                },
                "nodeType": 0
            },
            "11": {
                "invocation": {
                    "address": "0x02142cd246d0c4cfad972257b824a11f6ffaac44",
                    "callData": "0x000000000000000000000000000000000000000000000000000000000000000000000000000000000000000000000000000000000000000000459b994e97925100000000000000000000000068b3465833fb72a70ecdf485e0e4c7bd8665fc4500000000000000000000000000000000000000000000000000000000000000800000000000000000000000000000000000000000000000000000000000000000",
                    "decodedMethod": {
                        "callParams": [
                            {
                                "name": "amount0Out",
                                "type": "uint256",
                                "value": "0"
                            },
                            {
                                "name": "amount1Out",
                                "type": "uint256",
                                "value": "19,592,856,143,893,073"
                            },
                            {
                                "name": "to",
                                "type": "address",
                                "value": "0x68b3465833fb72a70ecdf485e0e4c7bd8665fc45"
                            },
                            {
                                "name": "data",
                                "type": "bytes",
                                "value": "0x"
                            }
                        ],
                        "constructorArguments": "",
                        "name": "swap",
                        "returnParams": [],
                        "signature": "swap(uint256,uint256,address,bytes)"
                    },
                    "errorInfo": "",
                    "fromAddress": "0x68b3465833fb72a70ecdf485e0e4c7bd8665fc45",
                    "gasUsed": 61820,
                    "id": 11,
                    "methodDecoded": true,
                    "operation": "CALL",
                    "output": "",
                    "revert": false,
                    "revertMessage": "",
                    "selector": "0x022c0d9f",
                    "status": true,
                    "value": "0"
                },
                "nodeType": 0
            },
            "12": {
                "invocation": {
                    "address": "0xc02aaa39b223fe8d0a0e5c4f27ead9083c756cc2",
                    "callData": "0x00000000000000000000000068b3465833fb72a70ecdf485e0e4c7bd8665fc4500000000000000000000000000000000000000000000000000459b994e979251",
                    "decodedMethod": {
                        "callParams": [
                            {
                                "name": "dst",
                                "type": "address",
                                "value": "0x68b3465833fb72a70ecdf485e0e4c7bd8665fc45"
                            },
                            {
                                "decimalAvailable": true,
                                "name": "wad",
                                "type": "uint256",
                                "value": "19,592,856,143,893,073"
                            }
                        ],
                        "constructorArguments": "",
                        "name": "transfer",
                        "returnParams": [
                            {
                                "name": "",
                                "type": "bool",
                                "value": true
                            }
                        ],
                        "signature": "transfer(address,uint256)"
                    },
                    "errorInfo": "",
                    "fromAddress": "0x02142cd246d0c4cfad972257b824a11f6ffaac44",
                    "gasUsed": 27962,
                    "id": 12,
                    "methodDecoded": true,
                    "operation": "CALL",
                    "output": "0x0000000000000000000000000000000000000000000000000000000000000001",
                    "revert": false,
                    "revertMessage": "",
                    "selector": "0xa9059cbb",
                    "status": true,
                    "value": "0"
                },
                "nodeType": 0
            },
            "13": {
                "event": {
                    "contract": "0xc02aaa39b223fe8d0a0e5c4f27ead9083c756cc2",
                    "decodedLog": {
                        "name": "Transfer",
                        "params": [
                            {
                                "name": "src",
                                "type": "address",
                                "value": "0x02142cd246d0c4cfad972257b824a11f6ffaac44"
                            },
                            {
                                "name": "dst",
                                "type": "address",
                                "value": "0x68b3465833fb72a70ecdf485e0e4c7bd8665fc45"
                            },
                            {
                                "decimalAvailable": true,
                                "name": "wad",
                                "type": "uint256",
                                "value": "19,592,856,143,893,073"
                            }
                        ],
                        "signature": "Transfer(address,address,uint256)"
                    },
                    "id": 13,
                    "logData": "0x00000000000000000000000000000000000000000000000000459b994e979251",
                    "logDecoded": true,
                    "operation": "EVENT",
                    "revert": false,
                    "status": true,
                    "topics": [
                        "0xddf252ad1be2c89b69c2b068fc378daa952ba7f163c4a11628f55a4df523b3ef",
                        "0x00000000000000000000000002142cd246d0c4cfad972257b824a11f6ffaac44",
                        "0x00000000000000000000000068b3465833fb72a70ecdf485e0e4c7bd8665fc45"
                    ]
                },
                "nodeType": 1
            },
            "14": {
                "invocation": {
                    "address": "0x299627d8b7f84252dca9029748e93c7610e58bf1",
                    "callData": "0x00000000000000000000000002142cd246d0c4cfad972257b824a11f6ffaac44",
                    "decodedMethod": {
                        "callParams": [
                            {
                                "name": "account",
                                "type": "address",
                                "value": "0x02142cd246d0c4cfad972257b824a11f6ffaac44"
                            }
                        ],
                        "constructorArguments": "",
                        "name": "balanceOf",
                        "returnParams": [
                            {
                                "decimalAvailable": true,
                                "name": "",
                                "type": "uint256",
                                "value": "5,894,609,166,463,346,535"
                            }
                        ],
                        "signature": "balanceOf(address)"
                    },
                    "errorInfo": "",
                    "fromAddress": "0x02142cd246d0c4cfad972257b824a11f6ffaac44",
                    "gasUsed": 2001,
                    "id": 14,
                    "methodDecoded": true,
                    "operation": "STATICCALL",
                    "output": "0x00000000000000000000000000000000000000000000000051cddbce50cf2767",
                    "revert": false,
                    "revertMessage": "",
                    "selector": "0x70a08231",
                    "status": true,
                    "value": "0"
                },
                "nodeType": 0
            },
            "15": {
                "invocation": {
                    "address": "0xc02aaa39b223fe8d0a0e5c4f27ead9083c756cc2",
                    "callData": "0x00000000000000000000000002142cd246d0c4cfad972257b824a11f6ffaac44",
                    "decodedMethod": {
                        "callParams": [
                            {
                                "name": "",
                                "type": "address",
                                "value": "0x02142cd246d0c4cfad972257b824a11f6ffaac44"
                            }
                        ],
                        "constructorArguments": "",
                        "name": "balanceOf",
                        "returnParams": [
                            {
                                "decimalAvailable": true,
                                "name": "",
                                "type": "uint256",
                                "value": "2,311,304,072,128,189,738"
                            }
                        ],
                        "signature": "balanceOf(address)"
                    },
                    "errorInfo": "",
                    "fromAddress": "0x02142cd246d0c4cfad972257b824a11f6ffaac44",
                    "gasUsed": 534,
                    "id": 15,
                    "methodDecoded": true,
                    "operation": "STATICCALL",
                    "output": "0x000000000000000000000000000000000000000000000000201366cecb1d552a",
                    "revert": false,
                    "revertMessage": "",
                    "selector": "0x70a08231",
                    "status": true,
                    "value": "0"
                },
                "nodeType": 0
            },
            "16": {
                "event": {
                    "contract": "0x02142cd246d0c4cfad972257b824a11f6ffaac44",
                    "decodedLog": {
                        "name": "Sync",
                        "params": [
                            {
                                "name": "reserve0",
                                "type": "uint112",
                                "value": "5,894,609,166,463,346,535"
                            },
                            {
                                "name": "reserve1",
                                "type": "uint112",
                                "value": "2,311,304,072,128,189,738"
                            }
                        ],
                        "signature": "Sync(uint112,uint112)"
                    },
                    "id": 16,
                    "logData": "0x00000000000000000000000000000000000000000000000051cddbce50cf2767000000000000000000000000000000000000000000000000201366cecb1d552a",
                    "logDecoded": true,
                    "operation": "EVENT",
                    "revert": false,
                    "status": true,
                    "topics": [
                        "0x1c411e9a96e071241c2f21f7726b17ae89e3cab4c78be50e062b03a9fffbbad1"
                    ]
                },
                "nodeType": 1
            },
            "17": {
                "event": {
                    "contract": "0x02142cd246d0c4cfad972257b824a11f6ffaac44",
                    "decodedLog": {
                        "name": "Swap",
                        "params": [
                            {
                                "name": "sender",
                                "type": "address",
                                "value": "0x68b3465833fb72a70ecdf485e0e4c7bd8665fc45"
                            },
                            {
                                "name": "to",
                                "type": "address",
                                "value": "0x68b3465833fb72a70ecdf485e0e4c7bd8665fc45"
                            },
                            {
                                "name": "amount0In",
                                "type": "uint256",
                                "value": "49,696,242,420,848,325"
                            },
                            {
                                "name": "amount1In",
                                "type": "uint256",
                                "value": "0"
                            },
                            {
                                "name": "amount0Out",
                                "type": "uint256",
                                "value": "0"
                            },
                            {
                                "name": "amount1Out",
                                "type": "uint256",
                                "value": "19,592,856,143,893,073"
                            }
                        ],
                        "signature": "Swap(address,uint256,uint256,uint256,uint256,address)"
                    },
                    "id": 17,
                    "logData": "0x00000000000000000000000000000000000000000000000000b08e781c2a96c50000000000000000000000000000000000000000000000000000000000000000000000000000000000000000000000000000000000000000000000000000000000000000000000000000000000000000000000000000000000459b994e979251",
                    "logDecoded": true,
                    "operation": "EVENT",
                    "revert": false,
                    "status": true,
                    "topics": [
                        "0xd78ad95fa46c994b6551d0da85fc275fe613ce37657fb8d5e3d130840159d822",
                        "0x00000000000000000000000068b3465833fb72a70ecdf485e0e4c7bd8665fc45",
                        "0x00000000000000000000000068b3465833fb72a70ecdf485e0e4c7bd8665fc45"
                    ]
                },
                "nodeType": 1
            },
            "18": {
                "invocation": {
                    "address": "0xc02aaa39b223fe8d0a0e5c4f27ead9083c756cc2",
                    "callData": "0x00000000000000000000000068b3465833fb72a70ecdf485e0e4c7bd8665fc45",
                    "decodedMethod": {
                        "callParams": [
                            {
                                "name": "",
                                "type": "address",
                                "value": "0x68b3465833fb72a70ecdf485e0e4c7bd8665fc45"
                            }
                        ],
                        "constructorArguments": "",
                        "name": "balanceOf",
                        "returnParams": [
                            {
                                "decimalAvailable": true,
                                "name": "",
                                "type": "uint256",
                                "value": "19,592,856,143,893,073"
                            }
                        ],
                        "signature": "balanceOf(address)"
                    },
                    "errorInfo": "",
                    "fromAddress": "0x68b3465833fb72a70ecdf485e0e4c7bd8665fc45",
                    "gasUsed": 534,
                    "id": 18,
                    "methodDecoded": true,
                    "operation": "STATICCALL",
                    "output": "0x00000000000000000000000000000000000000000000000000459b994e979251",
                    "revert": false,
                    "revertMessage": "",
                    "selector": "0x70a08231",
                    "status": true,
                    "value": "0"
                },
                "nodeType": 0
            },
            "19": {
                "invocation": {
                    "address": "0x68b3465833fb72a70ecdf485e0e4c7bd8665fc45",
                    "callData": "0x00000000000000000000000000000000000000000000000000417ea9875017e900000000000000000000000081c637cebcfefb08c586a32d401a737e5996920b",
                    "decodedMethod": {
                        "callParams": [
                            {
                                "name": "amountMinimum",
                                "type": "uint256",
                                "value": "18,435,140,070,938,601"
                            },
                            {
                                "name": "recipient",
                                "type": "address",
                                "value": "0x81c637cebcfefb08c586a32d401a737e5996920b"
                            }
                        ],
                        "constructorArguments": "",
                        "name": "unwrapWETH9",
                        "returnParams": [],
                        "signature": "unwrapWETH9(uint256,address)"
                    },
                    "errorInfo": "",
                    "fromAddress": "0x68b3465833fb72a70ecdf485e0e4c7bd8665fc45",
                    "gasUsed": 18174,
                    "id": 19,
                    "methodDecoded": true,
                    "operation": "DELEGATECALL",
                    "output": "",
                    "revert": false,
                    "revertMessage": "",
                    "selector": "0x49404b7c",
                    "status": true,
                    "value": "0"
                },
                "nodeType": 0
            },
            "2": {
                "invocation": {
                    "address": "0x299627d8b7f84252dca9029748e93c7610e58bf1",
                    "callData": "0x00000000000000000000000081c637cebcfefb08c586a32d401a737e5996920b00000000000000000000000002142cd246d0c4cfad972257b824a11f6ffaac4400000000000000000000000000000000000000000000000000b6ca692d82771c",
                    "decodedMethod": {
                        "callParams": [
                            {
                                "name": "sender",
                                "type": "address",
                                "value": "0x81c637cebcfefb08c586a32d401a737e5996920b"
                            },
                            {
                                "name": "recipient",
                                "type": "address",
                                "value": "0x02142cd246d0c4cfad972257b824a11f6ffaac44"
                            },
                            {
                                "decimalAvailable": true,
                                "name": "amount",
                                "type": "uint256",
                                "value": "51,450,998,845,241,116"
                            }
                        ],
                        "constructorArguments": "",
                        "name": "transferFrom",
                        "returnParams": [
                            {
                                "name": "",
                                "type": "bool",
                                "value": true
                            }
                        ],
                        "signature": "transferFrom(address,address,uint256)"
                    },
                    "errorInfo": "",
                    "fromAddress": "0x68b3465833fb72a70ecdf485e0e4c7bd8665fc45",
                    "gasUsed": 96865,
                    "id": 2,
                    "methodDecoded": true,
                    "operation": "CALL",
                    "output": "0x0000000000000000000000000000000000000000000000000000000000000001",
                    "revert": false,
                    "revertMessage": "",
                    "selector": "0x23b872dd",
                    "status": true,
                    "value": "0"
                },
                "nodeType": 0
            },
            "20": {
                "invocation": {
                    "address": "0xc02aaa39b223fe8d0a0e5c4f27ead9083c756cc2",
                    "callData": "0x00000000000000000000000068b3465833fb72a70ecdf485e0e4c7bd8665fc45",
                    "decodedMethod": {
                        "callParams": [
                            {
                                "name": "",
                                "type": "address",
                                "value": "0x68b3465833fb72a70ecdf485e0e4c7bd8665fc45"
                            }
                        ],
                        "constructorArguments": "",
                        "name": "balanceOf",
                        "returnParams": [
                            {
                                "decimalAvailable": true,
                                "name": "",
                                "type": "uint256",
                                "value": "19,592,856,143,893,073"
                            }
                        ],
                        "signature": "balanceOf(address)"
                    },
                    "errorInfo": "",
                    "fromAddress": "0x68b3465833fb72a70ecdf485e0e4c7bd8665fc45",
                    "gasUsed": 534,
                    "id": 20,
                    "methodDecoded": true,
                    "operation": "STATICCALL",
                    "output": "0x00000000000000000000000000000000000000000000000000459b994e979251",
                    "revert": false,
                    "revertMessage": "",
                    "selector": "0x70a08231",
                    "status": true,
                    "value": "0"
                },
                "nodeType": 0
            },
            "21": {
                "invocation": {
                    "address": "0xc02aaa39b223fe8d0a0e5c4f27ead9083c756cc2",
                    "callData": "0x00000000000000000000000000000000000000000000000000459b994e979251",
                    "decodedMethod": {
                        "callParams": [
                            {
                                "name": "wad",
                                "type": "uint256",
                                "value": "19,592,856,143,893,073"
                            }
                        ],
                        "constructorArguments": "",
                        "name": "withdraw",
                        "returnParams": [],
                        "signature": "withdraw(uint256)"
                    },
                    "errorInfo": "",
                    "fromAddress": "0x68b3465833fb72a70ecdf485e0e4c7bd8665fc45",
                    "gasUsed": 9223,
                    "id": 21,
                    "methodDecoded": true,
                    "operation": "CALL",
                    "output": "",
                    "revert": false,
                    "revertMessage": "",
                    "selector": "0x2e1a7d4d",
                    "status": true,
                    "value": "0"
                },
                "nodeType": 0
            },
            "22": {
                "invocation": {
                    "address": "0x68b3465833fb72a70ecdf485e0e4c7bd8665fc45",
                    "callData": "0x",
                    "decodedMethod": null,
                    "errorInfo": "",
                    "fromAddress": "0xc02aaa39b223fe8d0a0e5c4f27ead9083c756cc2",
                    "gasUsed": 83,
                    "id": 22,
                    "methodDecoded": false,
                    "operation": "CALL",
                    "output": "",
                    "revert": false,
                    "revertMessage": "",
                    "selector": "fallback",
                    "status": true,
                    "value": "0.019592856143893073"
                },
                "nodeType": 0
            },
            "23": {
                "event": {
                    "contract": "0xc02aaa39b223fe8d0a0e5c4f27ead9083c756cc2",
                    "decodedLog": {
                        "name": "Withdrawal",
                        "params": [
                            {
                                "name": "src",
                                "type": "address",
                                "value": "0x68b3465833fb72a70ecdf485e0e4c7bd8665fc45"
                            },
                            {
                                "name": "wad",
                                "type": "uint256",
                                "value": "19,592,856,143,893,073"
                            }
                        ],
                        "signature": "Withdrawal(address,uint256)"
                    },
                    "id": 23,
                    "logData": "0x00000000000000000000000000000000000000000000000000459b994e979251",
                    "logDecoded": true,
                    "operation": "EVENT",
                    "revert": false,
                    "status": true,
                    "topics": [
                        "0x7fcf532c15f0a6db0bd6d0e038bea71d30d808c7d98cb3bf7268a95bf5081b65",
                        "0x00000000000000000000000068b3465833fb72a70ecdf485e0e4c7bd8665fc45"
                    ]
                },
                "nodeType": 1
            },
            "24": {
                "invocation": {
                    "address": "0x81c637cebcfefb08c586a32d401a737e5996920b",
                    "callData": "0x",
                    "decodedMethod": null,
                    "errorInfo": "",
                    "fromAddress": "0x68b3465833fb72a70ecdf485e0e4c7bd8665fc45",
                    "gasUsed": 0,
                    "id": 24,
                    "methodDecoded": false,
                    "operation": "CALL",
                    "output": "",
                    "revert": false,
                    "revertMessage": "",
                    "selector": "fallback",
                    "status": true,
                    "value": "0.019592856143893073"
                },
                "nodeType": 0
            },
            "3": {
                "invocation": {
                    "address": "0xf4f071eb637b64fc78c9ea87dace4445d119ca35",
                    "callData": "0x00000000000000000000000081c637cebcfefb08c586a32d401a737e5996920b00000000000000000000000002142cd246d0c4cfad972257b824a11f6ffaac4400000000000000000000000000000000000000000000000000b6ca692d82771c",
                    "decodedMethod": {
                        "callParams": [
                            {
                                "name": "from",
                                "type": "address",
                                "value": "0x81c637cebcfefb08c586a32d401a737e5996920b"
                            },
                            {
                                "name": "to",
                                "type": "address",
                                "value": "0x02142cd246d0c4cfad972257b824a11f6ffaac44"
                            },
                            {
                                "name": "amount",
                                "type": "uint256",
                                "value": "51,450,998,845,241,116"
                            }
                        ],
                        "constructorArguments": "",
                        "name": "onPreTransferCheck",
                        "returnParams": [],
                        "signature": "onPreTransferCheck(address,address,uint256)"
                    },
                    "errorInfo": "",
                    "fromAddress": "0x299627d8b7f84252dca9029748e93c7610e58bf1",
                    "gasUsed": 12029,
                    "id": 3,
                    "methodDecoded": true,
                    "operation": "CALL",
                    "output": "",
                    "revert": false,
                    "revertMessage": "",
                    "selector": "0x48760858",
                    "status": true,
                    "value": "0"
                },
                "nodeType": 0
            },
            "4": {
                "invocation": {
                    "address": "0xc60ccbc6564508111917bb5433375fa71322ac76",
                    "callData": "0x00000000000000000000000081c637cebcfefb08c586a32d401a737e5996920b00000000000000000000000002142cd246d0c4cfad972257b824a11f6ffaac4400000000000000000000000000000000000000000000000000b6ca692d82771c",
                    "decodedMethod": {
                        "callParams": [
                            {
                                "name": "from",
                                "type": "address",
                                "value": "0x81c637cebcfefb08c586a32d401a737e5996920b"
                            },
                            {
                                "name": "to",
                                "type": "address",
                                "value": "0x02142cd246d0c4cfad972257b824a11f6ffaac44"
                            },
                            {
                                "name": "amount",
                                "type": "uint256",
                                "value": "51,450,998,845,241,116"
                            }
                        ],
                        "constructorArguments": "",
                        "name": "onPreTransferCheck",
                        "returnParams": [],
                        "signature": "onPreTransferCheck(address,address,uint256)"
                    },
                    "errorInfo": "",
                    "fromAddress": "0xf4f071eb637b64fc78c9ea87dace4445d119ca35",
                    "gasUsed": 4692,
                    "id": 4,
                    "methodDecoded": true,
                    "operation": "DELEGATECALL",
                    "output": "",
                    "revert": false,
                    "revertMessage": "",
                    "selector": "0x48760858",
                    "status": true,
                    "value": "0"
                },
                "nodeType": 0
            },
            "5": {
                "event": {
                    "contract": "0x299627d8b7f84252dca9029748e93c7610e58bf1",
                    "decodedLog": {
                        "name": "Transfer",
                        "params": [
                            {
                                "name": "from",
                                "type": "address",
                                "value": "0x68b3465833fb72a70ecdf485e0e4c7bd8665fc45"
                            },
                            {
                                "name": "to",
                                "type": "address",
                                "value": "0x8fe24a47120cb3baae4849cc722407af308e3fb0"
                            },
                            {
                                "decimalAvailable": true,
                                "name": "value",
                                "type": "uint256",
                                "value": "1,029,019,976,904,822"
                            }
                        ],
                        "signature": "Transfer(address,address,uint256)"
                    },
                    "id": 5,
                    "logData": "0x0000000000000000000000000000000000000000000000000003a7e36230b076",
                    "logDecoded": true,
                    "operation": "EVENT",
                    "revert": false,
                    "status": true,
                    "topics": [
                        "0xddf252ad1be2c89b69c2b068fc378daa952ba7f163c4a11628f55a4df523b3ef",
                        "0x00000000000000000000000068b3465833fb72a70ecdf485e0e4c7bd8665fc45",
                        "0x0000000000000000000000008fe24a47120cb3baae4849cc722407af308e3fb0"
                    ]
                },
                "nodeType": 1
            },
            "6": {
                "event": {
                    "contract": "0x299627d8b7f84252dca9029748e93c7610e58bf1",
                    "decodedLog": {
                        "name": "Transfer",
                        "params": [
                            {
                                "name": "from",
                                "type": "address",
                                "value": "0x81c637cebcfefb08c586a32d401a737e5996920b"
                            },
                            {
                                "name": "to",
                                "type": "address",
                                "value": "0x02142cd246d0c4cfad972257b824a11f6ffaac44"
                            },
                            {
                                "decimalAvailable": true,
                                "name": "value",
                                "type": "uint256",
                                "value": "49,392,958,891,431,472"
                            }
                        ],
                        "signature": "Transfer(address,address,uint256)"
                    },
                    "id": 6,
                    "logData": "0x00000000000000000000000000000000000000000000000000af7aa269211630",
                    "logDecoded": true,
                    "operation": "EVENT",
                    "revert": false,
                    "status": true,
                    "topics": [
                        "0xddf252ad1be2c89b69c2b068fc378daa952ba7f163c4a11628f55a4df523b3ef",
                        "0x00000000000000000000000081c637cebcfefb08c586a32d401a737e5996920b",
                        "0x00000000000000000000000002142cd246d0c4cfad972257b824a11f6ffaac44"
                    ]
                },
                "nodeType": 1
            },
            "7": {
                "event": {
                    "contract": "0x299627d8b7f84252dca9029748e93c7610e58bf1",
                    "decodedLog": {
                        "name": "Approval",
                        "params": [
                            {
                                "name": "owner",
                                "type": "address",
                                "value": "0x81c637cebcfefb08c586a32d401a737e5996920b"
                            },
                            {
                                "name": "spender",
                                "type": "address",
                                "value": "0x68b3465833fb72a70ecdf485e0e4c7bd8665fc45"
                            },
                            {
                                "decimalAvailable": true,
                                "name": "value",
                                "type": "uint256",
                                "value": "115,792,089,237,316,195,423,570,985,008,687,907,853,269,984,665,640,564,039,457,532,556,914,284,398,819"
                            }
                        ],
                        "signature": "Approval(address,address,uint256)"
                    },
                    "id": 7,
                    "logData": "0xffffffffffffffffffffffffffffffffffffffffffffffffff493596d27d88e3",
                    "logDecoded": true,
                    "operation": "EVENT",
                    "revert": false,
                    "status": true,
                    "topics": [
                        "0x8c5be1e5ebec7d5bd14f71427d1e84f3dd0314c0f7b2291e5b200ac8c7c3b925",
                        "0x00000000000000000000000081c637cebcfefb08c586a32d401a737e5996920b",
                        "0x00000000000000000000000068b3465833fb72a70ecdf485e0e4c7bd8665fc45"
                    ]
                },
                "nodeType": 1
            },
            "8": {
                "invocation": {
                    "address": "0xc02aaa39b223fe8d0a0e5c4f27ead9083c756cc2",
                    "callData": "0x00000000000000000000000068b3465833fb72a70ecdf485e0e4c7bd8665fc45",
                    "decodedMethod": {
                        "callParams": [
                            {
                                "name": "",
                                "type": "address",
                                "value": "0x68b3465833fb72a70ecdf485e0e4c7bd8665fc45"
                            }
                        ],
                        "constructorArguments": "",
                        "name": "balanceOf",
                        "returnParams": [
                            {
                                "decimalAvailable": true,
                                "name": "",
                                "type": "uint256",
                                "value": "0"
                            }
                        ],
                        "signature": "balanceOf(address)"
                    },
                    "errorInfo": "",
                    "fromAddress": "0x68b3465833fb72a70ecdf485e0e4c7bd8665fc45",
                    "gasUsed": 2534,
                    "id": 8,
                    "methodDecoded": true,
                    "operation": "STATICCALL",
                    "output": "0x0000000000000000000000000000000000000000000000000000000000000000",
                    "revert": false,
                    "revertMessage": "",
                    "selector": "0x70a08231",
                    "status": true,
                    "value": "0"
                },
                "nodeType": 0
            },
            "9": {
                "invocation": {
                    "address": "0x02142cd246d0c4cfad972257b824a11f6ffaac44",
                    "callData": "0x",
                    "decodedMethod": {
                        "callParams": [],
                        "constructorArguments": "",
                        "name": "getReserves",
                        "returnParams": [
                            {
                                "name": "_reserve0",
                                "type": "uint112",
                                "value": "5,844,912,924,042,498,210"
                            },
                            {
                                "name": "_reserve1",
                                "type": "uint112",
                                "value": "2,330,896,928,272,082,811"
                            },
                            {
                                "name": "_blockTimestampLast",
                                "type": "uint32",
                                "value": "1,672,315,943"
                            }
                        ],
                        "signature": "getReserves()"
                    },
                    "errorInfo": "",
                    "fromAddress": "0x68b3465833fb72a70ecdf485e0e4c7bd8665fc45",
                    "gasUsed": 2504,
                    "id": 9,
                    "methodDecoded": true,
                    "operation": "STATICCALL",
                    "output": "0x000000000000000000000000000000000000000000000000511d4d5634a490a20000000000000000000000000000000000000000000000002059026819b4e77b0000000000000000000000000000000000000000000000000000000063ad8427",
                    "revert": false,
                    "revertMessage": "",
                    "selector": "0x0902f1ac",
                    "status": true,
                    "value": "0"
                },
                "nodeType": 0
            }
        },
        "gasFlame": [
            {
                "children": [
                    {
                        "children": [
                            {
                                "children": [],
                                "depth": 0,
                                "name": "Initial Gas",
                                "value": 24604
                            },
                            {
                                "children": [
                                    {
                                        "children": [
                                            {
                                                "children": [
                                                    {
                                                        "children": [
                                                            {
                                                                "children": [],
                                                                "depth": 4,
                                                                "name": "onPreTransferCheck",
                                                                "value": 4692
                                                            }
                                                        ],
                                                        "depth": 3,
                                                        "name": "onPreTransferCheck",
                                                        "value": 12029
                                                    }
                                                ],
                                                "depth": 2,
                                                "name": "transferFrom",
                                                "value": 96865
                                            },
                                            {
                                                "children": [],
                                                "depth": 2,
                                                "name": "balanceOf",
                                                "value": 2534
                                            },
                                            {
                                                "children": [],
                                                "depth": 2,
                                                "name": "getReserves",
                                                "value": 2504
                                            },
                                            {
                                                "children": [],
                                                "depth": 2,
                                                "name": "balanceOf",
                                                "value": 2001
                                            },
                                            {
                                                "children": [
                                                    {
                                                        "children": [],
                                                        "depth": 3,
                                                        "name": "transfer",
                                                        "value": 27962
                                                    },
                                                    {
                                                        "children": [],
                                                        "depth": 3,
                                                        "name": "balanceOf",
                                                        "value": 2001
                                                    },
                                                    {
                                                        "children": [],
                                                        "depth": 3,
                                                        "name": "balanceOf",
                                                        "value": 534
                                                    }
                                                ],
                                                "depth": 2,
                                                "name": "swap",
                                                "value": 61820
                                            },
                                            {
                                                "children": [],
                                                "depth": 2,
                                                "name": "balanceOf",
                                                "value": 534
                                            }
                                        ],
                                        "depth": 1,
                                        "name": "swapExactTokensForTokens",
                                        "value": 182749
                                    },
                                    {
                                        "children": [
                                            {
                                                "children": [],
                                                "depth": 2,
                                                "name": "balanceOf",
                                                "value": 534
                                            },
                                            {
                                                "children": [
                                                    {
                                                        "children": [],
                                                        "depth": 3,
                                                        "name": "fallback",
                                                        "value": 83
                                                    }
                                                ],
                                                "depth": 2,
                                                "name": "withdraw",
                                                "value": 9223
                                            },
                                            {
                                                "children": [],
                                                "depth": 2,
                                                "name": "fallback",
                                                "value": 0
                                            }
                                        ],
                                        "depth": 1,
                                        "name": "unwrapWETH9",
                                        "value": 18174
                                    }
                                ],
                                "depth": 0,
                                "name": "Executed Gas",
                                "value": 204082
                            }
                        ],
                        "depth": -1,
                        "name": "Actual Gas Used",
                        "value": 205986
                    },
                    {
                        "children": [],
                        "depth": -1,
                        "name": "Refunded Gas",
                        "value": 22700
                    }
                ],
                "depth": -2,
                "name": "Total Gas",
                "value": 228686
            }
        ],
        "isConfirmed": true,
        "mainTrace": [
            {
                "children": [
                    {
                        "children": [
                            {
                                "children": [
                                    {
                                        "children": [
                                            {
                                                "children": [
                                                    {
                                                        "children": [],
                                                        "depth": 4,
                                                        "id": 4,
                                                        "order": 4
                                                    }
                                                ],
                                                "depth": 3,
                                                "id": 3,
                                                "order": 3
                                            },
                                            {
                                                "children": [],
                                                "depth": 3,
                                                "id": 5,
                                                "order": 5
                                            },
                                            {
                                                "children": [],
                                                "depth": 3,
                                                "id": 6,
                                                "order": 6
                                            },
                                            {
                                                "children": [],
                                                "depth": 3,
                                                "id": 7,
                                                "order": 7
                                            }
                                        ],
                                        "depth": 2,
                                        "id": 2,
                                        "order": 2
                                    },
                                    {
                                        "children": [],
                                        "depth": 2,
                                        "id": 8,
                                        "order": 8
                                    },
                                    {
                                        "children": [],
                                        "depth": 2,
                                        "id": 9,
                                        "order": 9
                                    },
                                    {
                                        "children": [],
                                        "depth": 2,
                                        "id": 10,
                                        "order": 10
                                    },
                                    {
                                        "children": [
                                            {
                                                "children": [
                                                    {
                                                        "children": [],
                                                        "depth": 4,
                                                        "id": 13,
                                                        "order": 13
                                                    }
                                                ],
                                                "depth": 3,
                                                "id": 12,
                                                "order": 12
                                            },
                                            {
                                                "children": [],
                                                "depth": 3,
                                                "id": 14,
                                                "order": 14
                                            },
                                            {
                                                "children": [],
                                                "depth": 3,
                                                "id": 15,
                                                "order": 15
                                            },
                                            {
                                                "children": [],
                                                "depth": 3,
                                                "id": 16,
                                                "order": 16
                                            },
                                            {
                                                "children": [],
                                                "depth": 3,
                                                "id": 17,
                                                "order": 17
                                            }
                                        ],
                                        "depth": 2,
                                        "id": 11,
                                        "order": 11
                                    },
                                    {
                                        "children": [],
                                        "depth": 2,
                                        "id": 18,
                                        "order": 18
                                    }
                                ],
                                "depth": 1,
                                "id": 1,
                                "order": 1
                            },
                            {
                                "children": [
                                    {
                                        "children": [],
                                        "depth": 2,
                                        "id": 20,
                                        "order": 20
                                    },
                                    {
                                        "children": [
                                            {
                                                "children": [],
                                                "depth": 3,
                                                "id": 22,
                                                "order": 22
                                            },
                                            {
                                                "children": [],
                                                "depth": 3,
                                                "id": 23,
                                                "order": 23
                                            }
                                        ],
                                        "depth": 2,
                                        "id": 21,
                                        "order": 21
                                    },
                                    {
                                        "children": [],
                                        "depth": 2,
                                        "id": 24,
                                        "order": 24
                                    }
                                ],
                                "depth": 1,
                                "id": 19,
                                "order": 19
                            }
                        ],
                        "depth": 0,
                        "id": 0,
                        "order": 0
                    }
                ],
                "depth": -1,
                "id": -1,
                "order": -1
            }
        ],
        "mainTraceNodeCount": 25,
        "parentIdMap": {
            "0": -1,
            "1": 0,
            "10": 1,
            "11": 1,
            "12": 11,
            "13": 12,
            "14": 11,
            "15": 11,
            "16": 11,
            "17": 11,
            "18": 1,
            "19": 0,
            "2": 1,
            "20": 19,
            "21": 19,
            "22": 21,
            "23": 21,
            "24": 19,
            "3": 2,
            "4": 3,
            "5": 2,
            "6": 2,
            "7": 2,
            "8": 1,
            "9": 1
        },
        "tidyTrace": [
            {
                "children": [
                    {
                        "children": [
                            {
                                "children": [
                                    {
                                        "children": [
                                            {
                                                "children": [
                                                    {
                                                        "children": [],
                                                        "depth": 4,
                                                        "id": 4,
                                                        "order": 4
                                                    }
                                                ],
                                                "depth": 3,
                                                "id": 3,
                                                "order": 3
                                            },
                                            {
                                                "children": [],
                                                "depth": 3,
                                                "id": 5,
                                                "order": 5
                                            },
                                            {
                                                "children": [],
                                                "depth": 3,
                                                "id": 6,
                                                "order": 6
                                            },
                                            {
                                                "children": [],
                                                "depth": 3,
                                                "id": 7,
                                                "order": 7
                                            }
                                        ],
                                        "depth": 2,
                                        "id": 2,
                                        "order": 2
                                    },
                                    {
                                        "children": [
                                            {
                                                "children": [
                                                    {
                                                        "children": [],
                                                        "depth": 4,
                                                        "id": 13,
                                                        "order": 13
                                                    }
                                                ],
                                                "depth": 3,
                                                "id": 12,
                                                "order": 12
                                            },
                                            {
                                                "children": [],
                                                "depth": 3,
                                                "id": 16,
                                                "order": 16
                                            },
                                            {
                                                "children": [],
                                                "depth": 3,
                                                "id": 17,
                                                "order": 17
                                            }
                                        ],
                                        "depth": 2,
                                        "id": 11,
                                        "order": 11
                                    }
                                ],
                                "depth": 1,
                                "id": 1,
                                "order": 1
                            },
                            {
                                "children": [
                                    {
                                        "children": [
                                            {
                                                "children": [],
                                                "depth": 3,
                                                "id": 22,
                                                "order": 22
                                            },
                                            {
                                                "children": [],
                                                "depth": 3,
                                                "id": 23,
                                                "order": 23
                                            }
                                        ],
                                        "depth": 2,
                                        "id": 21,
                                        "order": 21
                                    },
                                    {
                                        "children": [],
                                        "depth": 2,
                                        "id": 24,
                                        "order": 24
                                    }
                                ],
                                "depth": 1,
                                "id": 19,
                                "order": 19
                            }
                        ],
                        "depth": 0,
                        "id": 0,
                        "order": 0
                    }
                ],
                "depth": -1,
                "id": -1,
                "order": -1
            }
        ],
        "tidyTraceNodeCount": 18
    },
    "state_change": {
        "stateChanges": [
            {
                "address": "0x02142cd246d0c4cfad972257b824a11f6ffaac44",
                "erc": "ERC-20",
                "slots": [
                    {
                        "current": "0x0000000000000000000000000000002c1473b820b7d0e3848f65c63dedf96d04",
                        "key": "0x000000000000000000000000000000000000000000000000000000000000000a",
                        "prev": "0x00000000000000000000000000000029449e9ab9b3cfa762ca1836d7c60e64b4"
                    },
                    {
                        "current": "0x63aea337000000000000201366cecb1d552a00000000000051cddbce50cf2767",
                        "key": "0x0000000000000000000000000000000000000000000000000000000000000008",
                        "prev": "0x63ad84270000000000002059026819b4e77b000000000000511d4d5634a490a2"
                    },
                    {
                        "current": "0x0000000000000000000000000000002199f90ae604f30b3fa883b946ed049f84",
                        "key": "0x0000000000000000000000000000000000000000000000000000000000000009",
                        "prev": "0x00000000000000000000000000000021277eb6225a3148d61d552e77f25ba9b4"
                    }
                ],
                "storageVariables": [
                    {
                        "name": "price1CumulativeLast",
                        "type": "uint256",
                        "value": {
                            "current": "14999609553131278775177937387042369006852",
                            "prev": "14042788068579437666477500349594563667124",
                            "typeTag": 1
                        }
                    },
                    {
                        "name": "reserve0",
                        "type": "uint112",
                        "value": {
                            "current": "5894609166463346535",
                            "prev": "5844912924042498210",
                            "typeTag": 1
                        }
                    },
                    {
                        "name": "reserve1",
                        "type": "uint112",
                        "value": {
                            "current": "2311304072128189738",
                            "prev": "2330896928272082811",
                            "typeTag": 1
                        }
                    },
                    {
                        "name": "blockTimestampLast",
                        "type": "uint32",
                        "value": {
                            "current": "1672389431",
                            "prev": "1672315943",
                            "typeTag": 1
                        }
                    },
                    {
                        "name": "price0CumulativeLast",
                        "type": "uint256",
                        "value": {
                            "current": "11433983094711941771856421181153589108612",
                            "prev": "11281815923750975023913995817812907239860",
                            "typeTag": 1
                        }
                    }
                ]
            },
            {
                "address": "0x299627d8b7f84252dca9029748e93c7610e58bf1",
                "erc": "ERC-20",
                "slots": [
                    {
                        "current": "0x011333a1c830f15c5798877026e4783dd1ad948dfee002b5bcf1ddda23407262",
                        "key": "0x3b398d5faf11534920abfbb4d02d71d3044db10724b6472ac2ea38c880e69015",
                        "prev": "0x010cdbf67bb1592c6ae746e061e5754ebd5df00101b18f44f12e323af4a243e4"
                    },
                    {
                        "current": "0xf0c0bb5e8d1903d24ec51541f371a48a9e3ae5e625b253bfa39dad30dc0a2a5a",
                        "key": "0x0000000000000000000000000000000000000000000000000000000000000008",
                        "prev": "0xf0c3e7343358cfea451db589d5f126022862b82ca4498d78097f830073594199"
                    },
                    {
                        "current": "0x000000000000000000000000000000000000000000000000088469a5df3f293d",
                        "key": "0x0000000000000000000000000000000000000000000000000000000000000009",
                        "prev": "0x000000000000000000000000000000000000000000000000088295b42e26d102"
                    },
                    {
                        "current": "0xffffffffffffffffffffffffffffffffffffffffffffffffff493596d27d88e3",
                        "key": "0x471298747523b5e7684bcf1e3873d42a03a0597845e9b4456e1ad09a02ca2237",
                        "prev": "0xffffffffffffffffffffffffffffffffffffffffffffffffffffffffffffffff"
                    },
                    {
                        "current": "0x00000000000000003bdd6952385fc47017975b397d902ce5a449a02c9cceb822",
                        "key": "0x037eb878a42581f3992e997c8c3c2c7cd75de87000136c6cd38ae83cf5ea89c3",
                        "prev": "0x013d1f74f0ebb978389eca692742cb8c6fb242752588c2365d99592c7558d98e"
                    },
                    {
                        "current": "0x8dea162e8f95256c38e0c79991476dbdd7ed8ca7d6e1cbc43d8fad322ae71d21",
                        "key": "0x0badd3051b93f07bc6748055f16d457e4578373675cf83dae25f162698b59369",
                        "prev": "0x8cb9a61037a89c541581e7a22c626c7fa871ee8629461d551bc74b70af9958b1"
                    },
                    {
                        "current": "0x00272a4db6efa48b7b9395169565c55548807452f55623320a00e51728a249ad",
                        "key": "0xb70e2a22be083e424e87473699038679d76ad5cdaa957a5f974ef9357ecf8d72",
                        "prev": "0x0023fe7810afd873853af4ceb2e643ddbe58a20c76bee979a41f0f479153326e"
                    }
                ],
                "storageVariables": [
                    {
                        "name": "_tFeeTotal",
                        "type": "uint256",
                        "value": {
                            "current": "613731610365208893",
                            "prev": "613217100376756482",
                            "typeTag": 1
                        }
                    },
                    {
                        "name": "_allowances",
                        "type": "mapping(address => mapping(address => uint256))",
                        "value": {
                            "pairs": [
                                {
                                    "key": "0x81c637cebcfefb08c586a32d401a737e5996920b",
                                    "value": {
                                        "pairs": [
                                            {
                                                "key": "0x68b3465833fb72a70ecdf485e0e4c7bd8665fc45",
                                                "value": {
                                                    "current": "115792089237316195423570985008687907853269984665640564039457532556914284398819",
                                                    "prev": "115792089237316195423570985008687907853269984665640564039457584007913129639935",
                                                    "typeTag": 1
                                                }
                                            }
                                        ],
                                        "typeTag": 4
                                    }
                                }
                            ],
                            "typeTag": 4
                        }
                    },
                    {
                        "name": "_rOwned",
                        "type": "mapping(address => uint256)",
                        "value": {
                            "pairs": [
                                {
                                    "key": "0x02142cd246d0c4cfad972257b824a11f6ffaac44",
                                    "value": {
                                        "current": "64189706957096891664487115569942680017923873352410107464244311405964963552545",
                                        "prev": "63651811635755547824554190356935838699508814772798120167590249831706452908209",
                                        "typeTag": 1
                                    }
                                },
                                {
                                    "key": "0x299627d8b7f84252dca9029748e93c7610e58bf1",
                                    "value": {
                                        "current": "69199004054235957495921592559180848376206080561199566674028683705792481709",
                                        "prev": "63595927790263627644973864062801510442780547064259084426427500168240902766",
                                        "typeTag": 1
                                    }
                                },
                                {
                                    "key": "0x81c637cebcfefb08c586a32d401a737e5996920b",
                                    "value": {
                                        "current": "1467882790564594054061856143384648751162178500280980518946",
                                        "prev": "560307626397233160804598917556952724210616856984397976806644808689697479054",
                                        "typeTag": 1
                                    }
                                },
                                {
                                    "key": "0x8fe24a47120cb3baae4849cc722407af308e3fb0",
                                    "value": {
                                        "current": "486239293511747660750733984893558248754847684547855914378900710299166339682",
                                        "prev": "475033140983803001048838527900799572887996617553974949883698343224063181796",
                                        "typeTag": 1
                                    }
                                }
                            ],
                            "typeTag": 4
                        }
                    },
                    {
                        "name": "_rTotal",
                        "type": "uint256",
                        "value": {
                            "current": "108895611472082543218152931873944683787619291938161533933887454289243203578458",
                            "prev": "108901214548346515548003879602441063125552717471658474416135055472780755157401",
                            "typeTag": 1
                        }
                    }
                ]
            },
            {
                "address": "0xc02aaa39b223fe8d0a0e5c4f27ead9083c756cc2",
                "erc": "ERC-20",
                "slots": [
                    {
                        "current": "0x000000000000000000000000000000000000000000000000201366cecb1d552a",
                        "key": "0x9fc7f42c3f162ab120ca8d1b56f8bc9f499c27d24f0b3d7c7106f885fb489a28",
                        "prev": "0x0000000000000000000000000000000000000000000000002059026819b4e77b"
                    }
                ],
                "storageVariables": [
                    {
                        "name": "balanceOf",
                        "type": "mapping(address => uint256)",
                        "value": {
                            "pairs": [
                                {
                                    "key": "0x02142cd246d0c4cfad972257b824a11f6ffaac44",
                                    "value": {
                                        "current": "2311304072128189738",
                                        "prev": "2330896928272082811",
                                        "typeTag": 1
                                    }
                                }
                            ],
                            "typeTag": 4
                        }
                    }
                ]
            }
        ]
    }
}