{
    "balance_change": {
        "balanceChanges": [
            {
                "account": "0x6a43980bf94917a65f62ee4dab1610887ba2dca8",
                "assets": [
                    {
                        "address": "0x2b591e99afe9f32eaa6214f7b7629768c40eeb39",
                        "amount": "15,625.91468354",
                        "iconUrl": "https://assets.blocksec.com/icon/095f9b44449785f7c45bb63956eff8a843b6ae503f7b4576f9d9f27351808b2a.png",
                        "isERC1155": false,
                        "isERC721": false,
                        "sign": true,
                        "value": "5847.767875"
                    }
                ]
            },
            {
                "account": "0x0000000000000000000000000000000000000000",
                "assets": [
                    {
                        "address": "0x2b591e99afe9f32eaa6214f7b7629768c40eeb39",
                        "amount": "15,875.5857631",
                        "iconUrl": "https://assets.blocksec.com/icon/095f9b44449785f7c45bb63956eff8a843b6ae503f7b4576f9d9f27351808b2a.png",
                        "isERC1155": false,
                        "isERC721": false,
                        "sign": false,
                        "value": "5947.954483"
                    }
                ]
            },
            {
                "account": "0x9a6a414d6f3497c05e3b1de90520765fa1e07c03",
                "assets": [
                    {
                        "address": "0x2b591e99afe9f32eaa6214f7b7629768c40eeb39",
                        "amount": "249.67107956",
                        "iconUrl": "https://assets.blocksec.com/icon/095f9b44449785f7c45bb63956eff8a843b6ae503f7b4576f9d9f27351808b2a.png",
                        "isERC1155": false,
                        "isERC721": false,
                        "sign": true,
                        "value": "93.83141443"
                    }
                ]
            }
        ]
    },
    "profile": {
        "basic_info": {
            "baseFee": "121.500562643",
            "blockNumber": 13363269,
            "callData": "0x343009a200000000000000000000000000000000000000000000000000000000000000000000000000000000000000000000000000000000000000000000000000060e32",
            "debugEnable": true,
            "errorInfo": "",
            "eventCount": 3,
            "feeRecipient": "0xc8f595e2084db484f8a80109101d58625223b7c9",
            "formatValue": "0",
            "gasLimit": 272603,
            "gasPrice": "123.000562643",
            "gasUsed": 260848,
            "intTxnCount": 0,
            "internalRevert": false,
            "internalRevertMessage": "",
            "isContractCreation": false,
            "isFlashloan": false,
            "maxFee": "126.548721622",
            "nonce": 204,
            "overwritedBlockNumber": -1,
            "priorityFee": "1.5",
            "receiver": "0x2b591e99afe9f32eaa6214f7b7629768c40eeb39",
            "revertMessage": "",
            "sender": "0x6a43980bf94917a65f62ee4dab1610887ba2dca8",
            "simulationEnable": true,
            "sourceTxnHash": "0xa59f2d69121c5f4e8316e680528ef39fa5e5a86daa333879e1c8bb2323a6192c",
            "status": true,
            "timestamp": "2021-10-06T04:21:12Z",
            "transactionFee": "0.032084450764301264",
            "txnHash": "0xa59f2d69121c5f4e8316e680528ef39fa5e5a86daa333879e1c8bb2323a6192c",
            "txnIndex": 77,
            "type": 2,
            "value": "0"
        },
        "fund_flow": [
            {
                "amount": "249.67107956",
                "from": "0x0000000000000000000000000000000000000000",
                "id": 1,
                "isERC1155": false,
                "isERC721": false,
                "isReverted": false,
                "order": 1,
                "to": "0x9a6a414d6f3497c05e3b1de90520765fa1e07c03",
                "token": "0x2b591e99afe9f32eaa6214f7b7629768c40eeb39"
            },
            {
                "amount": "15,625.91468354",
                "from": "0x0000000000000000000000000000000000000000",
                "id": 2,
                "isERC1155": false,
                "isERC721": false,
                "isReverted": false,
                "order": 2,
                "to": "0x6a43980bf94917a65f62ee4dab1610887ba2dca8",
                "token": "0x2b591e99afe9f32eaa6214f7b7629768c40eeb39"
            }
        ],
        "token_infos": [
            {
                "address": "0x2b591e99afe9f32eaa6214f7b7629768c40eeb39",
                "decimals": 8
            },
            {
                "address": "0xc02aaa39b223fe8d0a0e5c4f27ead9083c756cc2",
                "decimals": 18
            },
            {
                "address": "0xeeeeeeeeeeeeeeeeeeeeeeeeeeeeeeeeeeeeeeee",
                "decimals": 18
            }
        ]
    },
    "address_label": {
        "labels": [
            {
                "address": "0xeeeeeeeeeeeeeeeeeeeeeeeeeeeeeeeeeeeeeeee",
                "label": "Ether"
            },
            {
                "address": "0x2b591e99afe9f32eaa6214f7b7629768c40eeb39",
                "label": "HEX.com: HEX Token"
            },
            {
                "address": "0x0000000000000000000000000000000000000001",
                "label": "Precompiled"
            },
            {
                "address": "0x0000000000000000000000000000000000000002",
                "label": "Precompiled"
            },
            {
                "address": "0x0000000000000000000000000000000000000003",
                "label": "Precompiled"
            },
            {
                "address": "0x0000000000000000000000000000000000000004",
                "label": "Precompiled"
            }
        ]
    },
    "trace": {
        "accountLabels": null,
        "dataMap": {
            "-1": {
                "invocation": {
                    "address": "0x6a43980bf94917a65f62ee4dab1610887ba2dca8",
                    "callData": "",
                    "decodedMethod": null,
                    "errorInfo": "",
                    "fromAddress": "",
                    "gasUsed": 0,
                    "id": -1,
                    "methodDecoded": false,
                    "operation": "",
                    "output": "",
                    "revert": false,
                    "revertMessage": "",
                    "selector": "",
                    "status": false,
                    "value": ""
                },
                "nodeType": 0
            },
            "0": {
                "invocation": {
                    "address": "0x2b591e99afe9f32eaa6214f7b7629768c40eeb39",
                    "callData": "0x00000000000000000000000000000000000000000000000000000000000000000000000000000000000000000000000000000000000000000000000000060e32",
                    "decodedMethod": {
                        "callParams": [
                            {
                                "name": "stakeIndex",
                                "type": "uint256",
                                "value": "0"
                            },
                            {
                                "name": "stakeIdParam",
                                "type": "uint40",
                                "value": "396,850"
                            }
                        ],
                        "constructorArguments": "",
                        "name": "stakeEnd",
                        "returnParams": [],
                        "signature": "stakeEnd(uint256,uint40)"
                    },
                    "errorInfo": "",
                    "fromAddress": "0x6a43980bf94917a65f62ee4dab1610887ba2dca8",
                    "gasUsed": 260848,
                    "id": 0,
                    "methodDecoded": true,
                    "operation": "CALL",
                    "output": "",
                    "revert": false,
                    "revertMessage": "",
                    "selector": "0x343009a2",
                    "status": true,
                    "value": "0"
                },
                "nodeType": 0
            },
            "1": {
                "event": {
                    "contract": "0x2b591e99afe9f32eaa6214f7b7629768c40eeb39",
                    "decodedLog": {
                        "name": "StakeEnd",
                        "params": [
                            {
                                "name": "stakerAddr",
                                "type": "address",
                                "value": "0x6a43980bf94917a65f62ee4dab1610887ba2dca8"
                            },
                            {
                                "name": "stakeId",
                                "type": "uint40",
                                "value": "396,850"
                            },
                            {
                                "name": "data0",
                                "type": "uint256",
                                "value": "1,088,340,810,300,655,202,749,258,844,281,938,977,418,198,992,856,305,575,285,510,448,184"
                            },
                            {
                                "name": "data1",
                                "type": "uint256",
                                "value": "377,789,318,629,621,551,311,593"
                            }
                        ],
                        "signature": "StakeEnd(uint256,uint256,address,uint40)"
                    },
                    "id": 1,
                    "logData": "0x000000000a559c262500000000d86446e94c000000016d1c69200600615d24380000000000000000000000000000000000000000000050000000000ba04faae9",
                    "logDecoded": true,
                    "operation": "EVENT",
                    "revert": false,
                    "status": true,
                    "topics": [
                        "0x72d9c5a7ab13846e08d9c838f9e866a1bb4a66a2fd3ba3c9e7da3cf9e394dfd7",
                        "0x0000000000000000000000006a43980bf94917a65f62ee4dab1610887ba2dca8",
                        "0x0000000000000000000000000000000000000000000000000000000000060e32"
                    ]
                },
                "nodeType": 1
            },
            "2": {
                "event": {
                    "contract": "0x2b591e99afe9f32eaa6214f7b7629768c40eeb39",
                    "decodedLog": {
                        "name": "Transfer",
                        "params": [
                            {
                                "name": "from",
                                "type": "address",
                                "value": "0x0000000000000000000000000000000000000000"
                            },
                            {
                                "name": "to",
                                "type": "address",
                                "value": "0x9a6a414d6f3497c05e3b1de90520765fa1e07c03"
                            },
                            {
                                "decimalAvailable": true,
                                "name": "value",
                                "type": "uint256",
                                "value": "24,967,107,956"
                            }
                        ],
                        "signature": "Transfer(address,address,uint256)"
                    },
                    "id": 2,
                    "logData": "0x00000000000000000000000000000000000000000000000000000005d027d574",
                    "logDecoded": true,
                    "operation": "EVENT",
                    "revert": false,
                    "status": true,
                    "topics": [
                        "0xddf252ad1be2c89b69c2b068fc378daa952ba7f163c4a11628f55a4df523b3ef",
                        "0x0000000000000000000000000000000000000000000000000000000000000000",
                        "0x0000000000000000000000009a6a414d6f3497c05e3b1de90520765fa1e07c03"
                    ]
                },
                "nodeType": 1
            },
            "3": {
                "event": {
                    "contract": "0x2b591e99afe9f32eaa6214f7b7629768c40eeb39",
                    "decodedLog": {
                        "name": "Transfer",
                        "params": [
                            {
                                "name": "from",
                                "type": "address",
                                "value": "0x0000000000000000000000000000000000000000"
                            },
                            {
                                "name": "to",
                                "type": "address",
                                "value": "0x6a43980bf94917a65f62ee4dab1610887ba2dca8"
                            },
                            {
                                "decimalAvailable": true,
                                "name": "value",
                                "type": "uint256",
                                "value": "1,562,591,468,354"
                            }
                        ],
                        "signature": "Transfer(address,address,uint256)"
                    },
                    "id": 3,
                    "logData": "0x0000000000000000000000000000000000000000000000000000016bd1b59b42",
                    "logDecoded": true,
                    "operation": "EVENT",
                    "revert": false,
                    "status": true,
                    "topics": [
                        "0xddf252ad1be2c89b69c2b068fc378daa952ba7f163c4a11628f55a4df523b3ef",
                        "0x0000000000000000000000000000000000000000000000000000000000000000",
                        "0x0000000000000000000000006a43980bf94917a65f62ee4dab1610887ba2dca8"
                    ]
                },
                "nodeType": 1
            }
        },
        "gasFlame": [
            {
                "children": [
                    {
                        "children": [
                            {
                                "children": [],
                                "depth": 0,
                                "name": "Initial Gas",
                                "value": 21356
                            },
                            {
                                "children": [],
                                "depth": 0,
                                "name": "Executed Gas",
                                "value": 249092
                            }
                        ],
                        "depth": -1,
                        "name": "Actual Gas Used",
                        "value": 260848
                    },
                    {
                        "children": [],
                        "depth": -1,
                        "name": "Refunded Gas",
                        "value": 9600
                    }
                ],
                "depth": -2,
                "name": "Total Gas",
                "value": 270448
            }
        ],
        "isConfirmed": true,
        "mainTrace": [
            {
                "children": [
                    {
                        "children": [
                            {
                                "children": [],
                                "depth": 1,
                                "id": 1,
                                "order": 1
                            },
                            {
                                "children": [],
                                "depth": 1,
                                "id": 2,
                                "order": 2
                            },
                            {
                                "children": [],
                                "depth": 1,
                                "id": 3,
                                "order": 3
                            }
                        ],
                        "depth": 0,
                        "id": 0,
                        "order": 0
                    }
                ],
                "depth": -1,
                "id": -1,
                "order": -1
            }
        ],
        "mainTraceNodeCount": 4,
        "parentIdMap": {
            "0": -1,
            "1": 0,
            "2": 0,
            "3": 0
        },
        "tidyTrace": [
            {
                "children": [
                    {
                        "children": [
                            {
                                "children": [],
                                "depth": 1,
                                "id": 1,
                                "order": 1
                            },
                            {
                                "children": [],
                                "depth": 1,
                                "id": 2,
                                "order": 2
                            },
                            {
                                "children": [],
                                "depth": 1,
                                "id": 3,
                                "order": 3
                            }
                        ],
                        "depth": 0,
                        "id": 0,
                        "order": 0
                    }
                ],
                "depth": -1,
                "id": -1,
                "order": -1
            }
        ],
        "tidyTraceNodeCount": 4
    },
    "state_change": {
        "stateChanges": [
            {
                "address": "0x2b591e99afe9f32eaa6214f7b7629768c40eeb39",
                "erc": "ERC-20",
                "slots": [
                    {
                        "current": "0x001dff00bacc6db6fa3658f34ca497f40000079b360099682a18056de22602a1",
                        "key": "0x0000000000000000000000000000000000000000000000000000000000000004",
                        "prev": "0x001dff00bacc6db6fa3658f34ca497f40000079b360099682af069b4cb7202a1"
                    },
                    {
                        "current": "0x0000000000000000000000000000000000000000000000031a6f481a9875f222",
                        "key": "0x0000000000000000000000000000000000000000000000000000000000000002",
                        "prev": "0x0000000000000000000000000000000000000000000000031a6f46a8f698816c"
                    },
                    {
                        "current": "0x00000000000000000000000000000000000000000000000000c7d9e6513be6fb",
                        "key": "0xeb60b90da10420aa177acf4901d8bf9dc896f1b6a6736e8a4c587042f1830c24",
                        "prev": "0x00000000000000000000000000000000000000000000000000c7d9e081141187"
                    },
                    {
                        "current": "0x0000000000000000000000000000000000000000000000000000016bd1b59b42",
                        "key": "0xaf854aa154e00861f2da084eb1b91305e2c5c18b972ce82f2d344b17b418b559",
                        "prev": "0x0000000000000000000000000000000000000000000000000000000000000000"
                    },
                    {
                        "current": "0x0000000000000000000000000000000000000000000000000000000000000000",
                        "key": "0xe0304d0d96af3b61257e3c32429a2d8a5a6b29700d37b4b0ba60eee58b9229b9",
                        "prev": "0x00000000000096025100000000d86446e94c000000016d1c6920060000060e32"
                    },
                    {
                        "current": "0x0000000000000000000000000000000000000000000000000000000000000000",
                        "key": "0x85e6b1cf52acd4c7c2f6bc95a0ec217f59da992cf3c93e3070da56688f11373d",
                        "prev": "0x0000000000000000000000000000000000000000000000000000000000000001"
                    },
                    {
                        "current": "0x0000001b3930882783000002e25400000949b469647c0500573831bbb5976143",
                        "key": "0x0000000000000000000000000000000000000000000000000000000000000003",
                        "prev": "0x0000001b336060520e000002e25400000949b469647c050057383328d2008149"
                    }
                ],
                "storageVariables": [
                    {
                        "name": "globals",
                        "type": "struct GlobalsAndUtility.GlobalsStore",
                        "value": {
                            "fields": [
                                {
                                    "name": "lockedHeartsTotal",
                                    "type": "uint72",
                                    "value": {
                                        "current": "6284827962270769475",
                                        "prev": "6284829530410484041",
                                        "typeTag": 1
                                    }
                                },
                                {
                                    "name": "nextStakeSharesTotal",
                                    "type": "uint72",
                                    "value": {
                                        "current": "2614314001529861",
                                        "prev": "2614314001529861",
                                        "typeTag": 1
                                    }
                                },
                                {
                                    "name": "shareRate",
                                    "type": "uint40",
                                    "value": {
                                        "current": "189012",
                                        "prev": "189012",
                                        "typeTag": 1
                                    }
                                },
                                {
                                    "name": "stakePenaltyTotal",
                                    "type": "uint72",
                                    "value": {
                                        "current": "29932441315203",
                                        "prev": "29907474207246",
                                        "typeTag": 1
                                    }
                                },
                                {
                                    "name": "dailyDataCount",
                                    "type": "uint16",
                                    "value": {
                                        "current": "673",
                                        "prev": "673",
                                        "typeTag": 1
                                    }
                                },
                                {
                                    "name": "stakeSharesTotal",
                                    "type": "uint72",
                                    "value": {
                                        "current": "11054131568039551526",
                                        "prev": "11054132497434856306",
                                        "typeTag": 1
                                    }
                                },
                                {
                                    "name": "latestStakeId",
                                    "type": "uint40",
                                    "value": {
                                        "current": "498486",
                                        "prev": "498486",
                                        "typeTag": 1
                                    }
                                },
                                {
                                    "name": "claimStats",
                                    "type": "uint128",
                                    "value": {
                                        "current": "155748681157791984440808243751852020",
                                        "prev": "155748681157791984440808243751852020",
                                        "typeTag": 1
                                    }
                                }
                            ],
                            "typeTag": 3
                        }
                    },
                    {
                        "name": "_balances",
                        "type": "mapping(address => uint256)",
                        "value": {
                            "pairs": [
                                {
                                    "key": "0x6a43980bf94917a65f62ee4dab1610887ba2dca8",
                                    "value": {
                                        "current": "1562591468354",
                                        "prev": "0",
                                        "typeTag": 1
                                    }
                                },
                                {
                                    "key": "0x9a6a414d6f3497c05e3b1de90520765fa1e07c03",
                                    "value": {
                                        "current": "56253103594006267",
                                        "prev": "56253078626898311",
                                        "typeTag": 1
                                    }
                                }
                            ],
                            "typeTag": 4
                        }
                    },
                    {
                        "name": "_totalSupply",
                        "type": "uint256",
                        "value": {
                            "current": "57245052667593880098",
                            "prev": "57245051080035303788",
                            "typeTag": 1
                        }
                    }
                ]
            }
        ]
    }
}