{
    "balance_change": {
        "balanceChanges": [
            {
                "account": "0xf356e0ed40cfd14add796ebff83e73933bd767b8",
                "assets": [
                    {
                        "address": "0x78b819f1b13d412b1c7094fa52b8b425704157e9",
                        "amount": "47,000",
                        "iconUrl": "",
                        "isERC1155": false,
                        "isERC721": false,
                        "sign": false,
                        "value": ""
                    }
                ]
            },
            {
                "account": "0x5004a7aa3c430bc3e133ee29c28e391b16f8bf7d",
                "assets": [
                    {
                        "address": "0x78b819f1b13d412b1c7094fa52b8b425704157e9",
                        "amount": "47,000",
                        "iconUrl": "",
                        "isERC1155": false,
                        "isERC721": false,
                        "sign": true,
                        "value": ""
                    }
                ]
            }
        ]
    },
    "profile": {
        "basic_info": {
            "baseFee": "",
            "blockNumber": 8923827,
            "callData": "0xa9059cbb0000000000000000000000005004a7aa3c430bc3e133ee29c28e391b16f8bf7d0000000000000000000000000000000000000000000009f3e006e753df600000",
            "debugEnable": true,
            "errorInfo": "",
            "eventCount": 1,
            "feeRecipient": "0xaa5c4244f05c92781c4f259913319d8ba1acf05e",
            "formatValue": "0",
            "gasLimit": 70000,
            "gasPrice": "5.7142041",
            "gasUsed": 23463,
            "intTxnCount": 0,
            "internalRevert": false,
            "internalRevertMessage": "",
            "isContractCreation": false,
            "isFlashloan": false,
            "maxFee": "",
            "nonce": 2,
            "overwritedBlockNumber": -1,
            "priorityFee": "",
            "receiver": "0x78b819f1b13d412b1c7094fa52b8b425704157e9",
            "revertMessage": "",
            "sender": "0xf356e0ed40cfd14add796ebff83e73933bd767b8",
            "simulationEnable": true,
            "sourceTxnHash": "0xa6b0fb7cf0f8bf0711de379c0b26353bd3663caf41bd28f6983e8b56152f4e78",
            "status": true,
            "timestamp": "2019-11-13T02:07:31Z",
            "transactionFee": "0.0001340723707983",
            "txnHash": "0xa6b0fb7cf0f8bf0711de379c0b26353bd3663caf41bd28f6983e8b56152f4e78",
            "txnIndex": 106,
            "type": 0,
            "value": "0"
        },
        "fund_flow": [
            {
                "amount": "47,000",
                "from": "0xf356e0ed40cfd14add796ebff83e73933bd767b8",
                "id": 1,
                "isERC1155": false,
                "isERC721": false,
                "isReverted": false,
                "order": 1,
                "to": "0x5004a7aa3c430bc3e133ee29c28e391b16f8bf7d",
                "token": "0x78b819f1b13d412b1c7094fa52b8b425704157e9"
            }
        ],
        "token_infos": [
            {
                "address": "0x78b819f1b13d412b1c7094fa52b8b425704157e9",
                "decimals": 18
            },
            {
                "address": "0xc02aaa39b223fe8d0a0e5c4f27ead9083c756cc2",
                "decimals": 18
            },
            {
                "address": "0xeeeeeeeeeeeeeeeeeeeeeeeeeeeeeeeeeeeeeeee",
                "decimals": 18
            }
        ]
    },
    "address_label": {
        "labels": [
            {
                "address": "0xeeeeeeeeeeeeeeeeeeeeeeeeeeeeeeeeeeeeeeee",
                "label": "Ether"
            },
            {
                "address": "0x78b819f1b13d412b1c7094fa52b8b425704157e9",
                "label": "IMC GENE (IMC)"
            },
            {
                "address": "0x0000000000000000000000000000000000000001",
                "label": "Precompiled"
            },
            {
                "address": "0x0000000000000000000000000000000000000002",
                "label": "Precompiled"
            },
            {
                "address": "0x0000000000000000000000000000000000000003",
                "label": "Precompiled"
            },
            {
                "address": "0x0000000000000000000000000000000000000004",
                "label": "Precompiled"
            }
        ]
    },
    "trace": {
        "accountLabels": null,
        "dataMap": {
            "-1": {
                "invocation": {
                    "address": "0xf356e0ed40cfd14add796ebff83e73933bd767b8",
                    "callData": "",
                    "decodedMethod": null,
                    "errorInfo": "",
                    "fromAddress": "",
                    "gasUsed": 0,
                    "id": -1,
                    "methodDecoded": false,
                    "operation": "",
                    "output": "",
                    "revert": false,
                    "revertMessage": "",
                    "selector": "",
                    "status": false,
                    "value": ""
                },
                "nodeType": 0
            },
            "0": {
                "invocation": {
                    "address": "0x78b819f1b13d412b1c7094fa52b8b425704157e9",
                    "callData": "0x0000000000000000000000005004a7aa3c430bc3e133ee29c28e391b16f8bf7d0000000000000000000000000000000000000000000009f3e006e753df600000",
                    "decodedMethod": {
                        "callParams": [
                            {
                                "name": "_to",
                                "type": "address",
                                "value": "0x5004a7aa3c430bc3e133ee29c28e391b16f8bf7d"
                            },
                            {
                                "decimalAvailable": true,
                                "name": "_value",
                                "type": "uint256",
                                "value": "47,000,000,000,000,000,000,000"
                            }
                        ],
                        "constructorArguments": "",
                        "name": "transfer",
                        "returnParams": [],
                        "signature": "transfer(address,uint256)"
                    },
                    "errorInfo": "",
                    "fromAddress": "0xf356e0ed40cfd14add796ebff83e73933bd767b8",
                    "gasUsed": 23463,
                    "id": 0,
                    "methodDecoded": true,
                    "operation": "CALL",
                    "output": "",
                    "revert": false,
                    "revertMessage": "",
                    "selector": "0xa9059cbb",
                    "status": true,
                    "value": "0"
                },
                "nodeType": 0
            },
            "1": {
                "event": {
                    "contract": "0x78b819f1b13d412b1c7094fa52b8b425704157e9",
                    "decodedLog": {
                        "name": "Transfer",
                        "params": [
                            {
                                "name": "from",
                                "type": "address",
                                "value": "0xf356e0ed40cfd14add796ebff83e73933bd767b8"
                            },
                            {
                                "name": "to",
                                "type": "address",
                                "value": "0x5004a7aa3c430bc3e133ee29c28e391b16f8bf7d"
                            },
                            {
                                "decimalAvailable": true,
                                "name": "value",
                                "type": "uint256",
                                "value": "47,000,000,000,000,000,000,000"
                            }
                        ],
                        "signature": "Transfer(address,address,uint256)"
                    },
                    "id": 1,
                    "logData": "0x0000000000000000000000000000000000000000000009f3e006e753df600000",
                    "logDecoded": true,
                    "operation": "EVENT",
                    "revert": false,
                    "status": true,
                    "topics": [
                        "0xddf252ad1be2c89b69c2b068fc378daa952ba7f163c4a11628f55a4df523b3ef",
                        "0x000000000000000000000000f356e0ed40cfd14add796ebff83e73933bd767b8",
                        "0x0000000000000000000000005004a7aa3c430bc3e133ee29c28e391b16f8bf7d"
                    ]
                },
                "nodeType": 1
            }
        },
        "gasFlame": [
            {
                "children": [
                    {
                        "children": [
                            {
                                "children": [],
                                "depth": 0,
                                "name": "Initial Gas",
                                "value": 23320
                            },
                            {
                                "children": [],
                                "depth": 0,
                                "name": "Executed Gas",
                                "value": 15143
                            }
                        ],
                        "depth": -1,
                        "name": "Actual Gas Used",
                        "value": 23463
                    },
                    {
                        "children": [],
                        "depth": -1,
                        "name": "Refunded Gas",
                        "value": 15000
                    }
                ],
                "depth": -2,
                "name": "Total Gas",
                "value": 38463
            }
        ],
        "isConfirmed": true,
        "mainTrace": [
            {
                "children": [
                    {
                        "children": [
                            {
                                "children": [],
                                "depth": 1,
                                "id": 1,
                                "order": 1
                            }
                        ],
                        "depth": 0,
                        "id": 0,
                        "order": 0
                    }
                ],
                "depth": -1,
                "id": -1,
                "order": -1
            }
        ],
        "mainTraceNodeCount": 2,
        "parentIdMap": {
            "0": -1,
            "1": 0
        },
        "tidyTrace": [
            {
                "children": [
                    {
                        "children": [
                            {
                                "children": [],
                                "depth": 1,
                                "id": 1,
                                "order": 1
                            }
                        ],
                        "depth": 0,
                        "id": 0,
                        "order": 0
                    }
                ],
                "depth": -1,
                "id": -1,
                "order": -1
            }
        ],
        "tidyTraceNodeCount": 2
    },
    "state_change": {
        "stateChanges": [
            {
                "address": "0x78b819f1b13d412b1c7094fa52b8b425704157e9",
                "erc": "",
                "slots": [
                    {
                        "current": "0x0000000000000000000000000000000000000000000000000000000000000000",
                        "key": "0x7a184f5c3ae27c96b8548177dbfbc95c554a7c731480e32b734afb0eb2bfe9b6",
                        "prev": "0x0000000000000000000000000000000000000000000009f3e006e753df600000"
                    },
                    {
                        "current": "0x0000000000000000000000000000000000000000015d826f7e326bd7d7591c00",
                        "key": "0x17d7d162d44bc44f6a2b33f6178cabbb8ae7cb0b6823adff24e3779e3374e672",
                        "prev": "0x0000000000000000000000000000000000000000015d787b9e2b8483f7f91c00"
                    }
                ],
                "storageVariables": []
            }
        ]
    }
}