{
    "balance_change": {
        "balanceChanges": [
            {
                "account": "0x0000000000000000000000000000000000000000",
                "assets": [
                    {
                        "address": "0xad428ea346d6cd509b6f03e55cd785040edd50be",
                        "amount": "1",
                        "iconUrl": "",
                        "isERC1155": true,
                        "isERC721": false,
                        "sign": false,
                        "tokenID": "29",
                        "value": ""
                    }
                ]
            },
            {
                "account": "0x10034c5dd051559663ca9a1aa909ce140169291a",
                "assets": [
                    {
                        "address": "0xad428ea346d6cd509b6f03e55cd785040edd50be",
                        "amount": "1",
                        "iconUrl": "",
                        "isERC1155": true,
                        "isERC721": false,
                        "sign": true,
                        "tokenID": "29",
                        "value": ""
                    }
                ]
            }
        ]
    },
    "profile": {
        "basic_info": {
            "baseFee": "1.384753937",
            "blockNumber": 20446468,
            "callData": "0xa64dfa75000000000000000000000000ad428ea346d6cd509b6f03e55cd785040edd50be000000000000000000000000000000000000000000000000000000000000004000000000000000000000000000000000000000000000000000000000000002a000000000000000000000000000000000000000000000000000000000000002e0000000000000000000000000000000000000000000000000000000000000032000000000000000000000000000000000000000000000000000000000000003a000000000000000000000000000000000000000000000000000000000000003c000000000000000000000000000000000000000000000000000000000000003e00000000000000000000000000000000000000000000000000000000000000400000000000000000000000000000000000000000000000000000000000000042000000000000000000000000000000000000000000000000000000000000005000000000000000000000000000000000000000000000000000000000000000000000000000000000000000000000000000000000000000000000000000000052000000000000000000000000000000000000000000000000000000000000005400000000000000000000000000000000000000000000000000000000000000560000000000000000000000000000000000000000000000000000000000000058000000000000000000000000000000000000000000000000000000000000005a000000000000000000000000000000000000000000000000000000000000005c00000000000000000000000000000000000000000000000000000000000000000000000000000000000000000000000000000000000000000000000000000000000000000000000000000000010034c5dd051559663ca9a1aa909ce140169291a00000000000000000000000000000000000000000000000000000000000005e000000000000000000000000000000000000000000000000000000000000006200000000000000000000000000000000000000000000000000000000000000001000000000000000000000000000000000000000000000000000000000000001d000000000000000000000000000000000000000000000000000000000000000100000000000000000000000000000000000000000000000000000000000000010000000000000000000000000000000000000000000000000000000000000047697066733a2f2f62616679626569676e777032687a36357972767868726374726b716d6e6d6d6e616c78706e7078677763626d6c6b68783662763233336b746e376d2f7b69647d0000000000000000000000000000000000000000000000000000000000000000000000000000000000000000000000000000000000000000000000000000000000000000000000000000000000000000000000000000000000000000000000000000000000000000000000000000000000000000000000000000000000000000000000000000000000000000000000000000000000000000000000000000000000000000000000000000000000000000000000000000000000000000000000000000000000000000000000000000000000000000000000006000000000000000000000000000000000000000000000000000000000000000800000000000000000000000000000000000000000000000000000000000000000000000000000000000000000000000000000000000000000000000000000002a3078303030303030303030303030303030303030303030303030303030303030303030303030303030300000000000000000000000000000000000000000000000000000000000000000000000000000000000000000000000000000000000000000000000000000000000000000000000000000000000000000000000000000000000000000000000000000000000000000000000000000000000000000000000000000000000000000000000000000000000000000000000000000000000000000000000000000000000000000000000000000000000000000000000000000000000000000000000000000000000000000000000000000000000000000000000000000000000000000000000000000000000000000000000000000000000000000000000000000000000000000000000000000000000000000000000000001000000000000000000000000000000000000000000000000000000000000001d00000000000000000000000000000000000000000000000000000000000000010000000000000000000000000000000000000000000000000000000000000001",
            "debugEnable": true,
            "errorInfo": "",
            "eventCount": 3,
            "feeRecipient": "0x95222290dd7278aa3ddd389cc1e1d165cc4bafe5",
            "formatValue": "0",
            "gasLimit": 198549,
            "gasPrice": "1.385753937",
            "gasUsed": 150369,
            "intTxnCount": 10,
            "internalRevert": false,
            "internalRevertMessage": "",
            "isContractCreation": false,
            "isFlashloan": false,
            "maxFee": "1.392462786",
            "nonce": 48,
            "overwritedBlockNumber": -1,
            "priorityFee": "0.001",
            "receiver": "0x864baa13e01d8f9e26549dc91b458cd15e34eb7c",
            "revertMessage": "",
            "sender": "0x10034c5dd051559663ca9a1aa909ce140169291a",
            "simulationEnable": true,
            "sourceTxnHash": "0xa60329713377060b1db5e3114d000b5325b7b9d221c3ce5bd0522fada8aa1840",
            "status": true,
            "timestamp": "2024-08-03T07:17:47Z",
            "transactionFee": "0.000208374433752753",
            "txnHash": "0xa60329713377060b1db5e3114d000b5325b7b9d221c3ce5bd0522fada8aa1840",
            "txnIndex": 114,
            "type": 2,
            "value": "0"
        },
        "fund_flow": [
            {
                "amount": "1",
                "from": "0x0000000000000000000000000000000000000000",
                "id": 1,
                "isERC1155": true,
                "isERC721": false,
                "isReverted": false,
                "order": 1,
                "to": "0x10034c5dd051559663ca9a1aa909ce140169291a",
                "token": "0xad428ea346d6cd509b6f03e55cd785040edd50be",
                "tokenID": "29"
            }
        ],
        "token_infos": [
            {
                "address": "0xc02aaa39b223fe8d0a0e5c4f27ead9083c756cc2",
                "decimals": 18
            },
            {
                "address": "0xeeeeeeeeeeeeeeeeeeeeeeeeeeeeeeeeeeeeeeee",
                "decimals": 18
            }
        ]
    },
    "address_label": {
        "labels": [
            {
                "address": "0x0000000000000000000000000000000000000000",
                "label": "Null Address"
            },
            {
                "address": "0x9f36ee33fd56c7d9a78facd3249c580b1ca464a2",
                "label": "ERC1155SeaDropCloneable"
            },
            {
                "address": "0x864baa13e01d8f9e26549dc91b458cd15e34eb7c",
                "label": "ERC1155SeaDropConfigurer"
            },
            {
                "address": "0x0000000000000000000000000000000000000001",
                "label": "Precompiled"
            },
            {
                "address": "0x0000000000000000000000000000000000000002",
                "label": "Precompiled"
            },
            {
                "address": "0x0000000000000000000000000000000000000003",
                "label": "Precompiled"
            },
            {
                "address": "0xeeeeeeeeeeeeeeeeeeeeeeeeeeeeeeeeeeeeeeee",
                "label": "Ether"
            },
            {
                "address": "0x0000000000000000000000000000000000000004",
                "label": "Precompiled"
            }
        ]
    },
    "trace": {
        "accountLabels": null,
        "dataMap": {
            "-1": {
                "invocation": {
                    "address": "0x10034c5dd051559663ca9a1aa909ce140169291a",
                    "callData": "",
                    "decodedMethod": null,
                    "errorInfo": "",
                    "fromAddress": "",
                    "gasUsed": 0,
                    "id": -1,
                    "methodDecoded": false,
                    "operation": "",
                    "output": "",
                    "revert": false,
                    "revertMessage": "",
                    "selector": "",
                    "status": false,
                    "value": ""
                },
                "nodeType": 0
            },
            "0": {
                "invocation": {
                    "address": "0x864baa13e01d8f9e26549dc91b458cd15e34eb7c",
                    "callData": "0x000000000000000000000000ad428ea346d6cd509b6f03e55cd785040edd50be000000000000000000000000000000000000000000000000000000000000004000000000000000000000000000000000000000000000000000000000000002a000000000000000000000000000000000000000000000000000000000000002e0000000000000000000000000000000000000000000000000000000000000032000000000000000000000000000000000000000000000000000000000000003a000000000000000000000000000000000000000000000000000000000000003c000000000000000000000000000000000000000000000000000000000000003e00000000000000000000000000000000000000000000000000000000000000400000000000000000000000000000000000000000000000000000000000000042000000000000000000000000000000000000000000000000000000000000005000000000000000000000000000000000000000000000000000000000000000000000000000000000000000000000000000000000000000000000000000000052000000000000000000000000000000000000000000000000000000000000005400000000000000000000000000000000000000000000000000000000000000560000000000000000000000000000000000000000000000000000000000000058000000000000000000000000000000000000000000000000000000000000005a000000000000000000000000000000000000000000000000000000000000005c00000000000000000000000000000000000000000000000000000000000000000000000000000000000000000000000000000000000000000000000000000000000000000000000000000000010034c5dd051559663ca9a1aa909ce140169291a00000000000000000000000000000000000000000000000000000000000005e000000000000000000000000000000000000000000000000000000000000006200000000000000000000000000000000000000000000000000000000000000001000000000000000000000000000000000000000000000000000000000000001d000000000000000000000000000000000000000000000000000000000000000100000000000000000000000000000000000000000000000000000000000000010000000000000000000000000000000000000000000000000000000000000047697066733a2f2f62616679626569676e777032687a36357972767868726374726b716d6e6d6d6e616c78706e7078677763626d6c6b68783662763233336b746e376d2f7b69647d0000000000000000000000000000000000000000000000000000000000000000000000000000000000000000000000000000000000000000000000000000000000000000000000000000000000000000000000000000000000000000000000000000000000000000000000000000000000000000000000000000000000000000000000000000000000000000000000000000000000000000000000000000000000000000000000000000000000000000000000000000000000000000000000000000000000000000000000000000000000000000000000006000000000000000000000000000000000000000000000000000000000000000800000000000000000000000000000000000000000000000000000000000000000000000000000000000000000000000000000000000000000000000000000002a3078303030303030303030303030303030303030303030303030303030303030303030303030303030300000000000000000000000000000000000000000000000000000000000000000000000000000000000000000000000000000000000000000000000000000000000000000000000000000000000000000000000000000000000000000000000000000000000000000000000000000000000000000000000000000000000000000000000000000000000000000000000000000000000000000000000000000000000000000000000000000000000000000000000000000000000000000000000000000000000000000000000000000000000000000000000000000000000000000000000000000000000000000000000000000000000000000000000000000000000000000000000000000000000000000000000000001000000000000000000000000000000000000000000000000000000000000001d00000000000000000000000000000000000000000000000000000000000000010000000000000000000000000000000000000000000000000000000000000001",
                    "decodedMethod": {
                        "callParams": [
                            {
                                "name": "token",
                                "type": "address",
                                "value": "0xad428ea346d6cd509b6f03e55cd785040edd50be"
                            },
                            {
                                "name": "config",
                                "type": "(uint256[],uint256[],string,string,(uint80,uint80,uint40,uint40,bool,address,uint24,uint24,uint16,uint16,uint16)[],uint256[],string,(bytes32,string[],string),(address,uint16)[],bytes32,address[],address[],address[],address[],address[],address[],address,uint96,address,uint256[],uint256[])",
                                "value": [
                                    {
                                        "name": "maxSupplyTokenIds",
                                        "type": "uint256[]",
                                        "value": [
                                            "29"
                                        ]
                                    },
                                    {
                                        "name": "maxSupplyAmounts",
                                        "type": "uint256[]",
                                        "value": [
                                            "1"
                                        ]
                                    },
                                    {
                                        "name": "baseURI",
                                        "type": "string",
                                        "value": "ipfs://bafybeignwp2hz65yrvxhrctrkqmnmmnalxpnpxgwcbmlkhx6bv233ktn7m/{id}"
                                    },
                                    {
                                        "name": "contractURI",
                                        "type": "string",
                                        "value": ""
                                    },
                                    {
                                        "name": "publicDrops",
                                        "type": "(uint80,uint80,uint40,uint40,bool,address,uint24,uint24,uint16,uint16,uint16)[]",
                                        "value": []
                                    },
                                    {
                                        "name": "publicDropsIndexes",
                                        "type": "uint256[]",
                                        "value": []
                                    },
                                    {
                                        "name": "dropURI",
                                        "type": "string",
                                        "value": ""
                                    },
                                    {
                                        "name": "allowListData",
                                        "type": "(bytes32,string[],string)",
                                        "value": [
                                            {
                                                "name": "merkleRoot",
                                                "type": "bytes32",
                                                "value": "0x0000000000000000000000000000000000000000000000000000000000000000"
                                            },
                                            {
                                                "name": "publicKeyURIs",
                                                "type": "string[]",
                                                "value": []
                                            },
                                            {
                                                "name": "allowListURI",
                                                "type": "string",
                                                "value": "0x0000000000000000000000000000000000000000"
                                            }
                                        ]
                                    },
                                    {
                                        "name": "creatorPayouts",
                                        "type": "(address,uint16)[]",
                                        "value": []
                                    },
                                    {
                                        "name": "provenanceHash",
                                        "type": "bytes32",
                                        "value": "0x0000000000000000000000000000000000000000000000000000000000000000"
                                    },
                                    {
                                        "name": "allowedFeeRecipients",
                                        "type": "address[]",
                                        "value": []
                                    },
                                    {
                                        "name": "disallowedFeeRecipients",
                                        "type": "address[]",
                                        "value": []
                                    },
                                    {
                                        "name": "allowedPayers",
                                        "type": "address[]",
                                        "value": []
                                    },
                                    {
                                        "name": "disallowedPayers",
                                        "type": "address[]",
                                        "value": []
                                    },
                                    {
                                        "name": "allowedSigners",
                                        "type": "address[]",
                                        "value": []
                                    },
                                    {
                                        "name": "disallowedSigners",
                                        "type": "address[]",
                                        "value": []
                                    },
                                    {
                                        "name": "royaltyReceiver",
                                        "type": "address",
                                        "value": "0x0000000000000000000000000000000000000000"
                                    },
                                    {
                                        "name": "royaltyBps",
                                        "type": "uint96",
                                        "value": "0"
                                    },
                                    {
                                        "name": "mintRecipient",
                                        "type": "address",
                                        "value": "0x10034c5dd051559663ca9a1aa909ce140169291a"
                                    },
                                    {
                                        "name": "mintTokenIds",
                                        "type": "uint256[]",
                                        "value": [
                                            "29"
                                        ]
                                    },
                                    {
                                        "name": "mintAmounts",
                                        "type": "uint256[]",
                                        "value": [
                                            "1"
                                        ]
                                    }
                                ]
                            }
                        ],
                        "constructorArguments": "",
                        "name": "multiConfigure",
                        "returnParams": [],
                        "signature": "multiConfigure(address,(uint256[],uint256[],string,string,(uint80,uint80,uint40,uint40,bool,address,uint24,uint24,uint16,uint16,uint16)[],uint256[],string,(bytes32,string[],string),(address,uint16)[],bytes32,address[],address[],address[],address[],address[],address[],address,uint96,address,uint256[],uint256[]))"
                    },
                    "errorInfo": "",
                    "fromAddress": "0x10034c5dd051559663ca9a1aa909ce140169291a",
                    "gasUsed": 150369,
                    "id": 0,
                    "methodDecoded": true,
                    "operation": "CALL",
                    "output": "",
                    "revert": false,
                    "revertMessage": "",
                    "selector": "0xa64dfa75",
                    "status": true,
                    "value": "0"
                },
                "nodeType": 0
            },
            "1": {
                "invocation": {
                    "address": "0xad428ea346d6cd509b6f03e55cd785040edd50be",
                    "callData": "0x",
                    "decodedMethod": {
                        "callParams": [],
                        "constructorArguments": "",
                        "name": "owner",
                        "returnParams": [
                            {
                                "name": "result",
                                "type": "address",
                                "value": "0x10034c5dd051559663ca9a1aa909ce140169291a"
                            }
                        ],
                        "signature": "owner()"
                    },
                    "errorInfo": "",
                    "fromAddress": "0x864baa13e01d8f9e26549dc91b458cd15e34eb7c",
                    "gasUsed": 5035,
                    "id": 1,
                    "methodDecoded": true,
                    "operation": "STATICCALL",
                    "output": "0x00000000000000000000000010034c5dd051559663ca9a1aa909ce140169291a",
                    "revert": false,
                    "revertMessage": "",
                    "selector": "0x8da5cb5b",
                    "status": true,
                    "value": "0"
                },
                "nodeType": 0
            },
            "10": {
                "invocation": {
                    "address": "0x9f36ee33fd56c7d9a78facd3249c580b1ca464a2",
                    "callData": "0x00000000000000000000000010034c5dd051559663ca9a1aa909ce140169291a000000000000000000000000000000000000000000000000000000000000006000000000000000000000000000000000000000000000000000000000000000a00000000000000000000000000000000000000000000000000000000000000001000000000000000000000000000000000000000000000000000000000000001d00000000000000000000000000000000000000000000000000000000000000010000000000000000000000000000000000000000000000000000000000000001",
                    "decodedMethod": null,
                    "errorInfo": "",
                    "fromAddress": "0xad428ea346d6cd509b6f03e55cd785040edd50be",
                    "gasUsed": 57705,
                    "id": 10,
                    "methodDecoded": false,
                    "operation": "DELEGATECALL",
                    "output": "",
                    "revert": false,
                    "revertMessage": "",
                    "selector": "0xae265953",
                    "status": true,
                    "value": "0"
                },
                "nodeType": 0
            },
            "11": {
                "invocation": {
                    "address": "0x0000000000000000000000000000000000000004",
                    "callData": "0x00000000000000000000000000000000000000000000000000000001000000000000000000000000000000000000000000000000000000000000001d",
                    "decodedMethod": {
                        "callParams": [
                            {
                                "name": "data",
                                "type": "bytes",
                                "value": "0x0000000000000000000000000000000000000000000000000000000000000001000000000000000000000000000000000000000000000000000000000000001d"
                            }
                        ],
                        "constructorArguments": "",
                        "name": "dataCopy()",
                        "returnParams": [
                            {
                                "name": "data",
                                "type": "bytes",
                                "value": "0x0000000000000000000000000000000000000000000000000000000000000001000000000000000000000000000000000000000000000000000000000000001d"
                            }
                        ],
                        "signature": "dataCopy(bytes)"
                    },
                    "errorInfo": "",
                    "fromAddress": "0xad428ea346d6cd509b6f03e55cd785040edd50be",
                    "gasUsed": 21,
                    "id": 11,
                    "methodDecoded": true,
                    "operation": "STATICCALL",
                    "output": "0x0000000000000000000000000000000000000000000000000000000000000001000000000000000000000000000000000000000000000000000000000000001d",
                    "revert": false,
                    "revertMessage": "",
                    "selector": "0x00000000",
                    "status": true,
                    "value": "0"
                },
                "nodeType": 0
            },
            "12": {
                "invocation": {
                    "address": "0x0000000000000000000000000000000000000004",
                    "callData": "0x000000000000000000000000000000000000000000000000000000010000000000000000000000000000000000000000000000000000000000000001",
                    "decodedMethod": {
                        "callParams": [
                            {
                                "name": "data",
                                "type": "bytes",
                                "value": "0x00000000000000000000000000000000000000000000000000000000000000010000000000000000000000000000000000000000000000000000000000000001"
                            }
                        ],
                        "constructorArguments": "",
                        "name": "dataCopy()",
                        "returnParams": [
                            {
                                "name": "data",
                                "type": "bytes",
                                "value": "0x00000000000000000000000000000000000000000000000000000000000000010000000000000000000000000000000000000000000000000000000000000001"
                            }
                        ],
                        "signature": "dataCopy(bytes)"
                    },
                    "errorInfo": "",
                    "fromAddress": "0xad428ea346d6cd509b6f03e55cd785040edd50be",
                    "gasUsed": 21,
                    "id": 12,
                    "methodDecoded": true,
                    "operation": "STATICCALL",
                    "output": "0x00000000000000000000000000000000000000000000000000000000000000010000000000000000000000000000000000000000000000000000000000000001",
                    "revert": false,
                    "revertMessage": "",
                    "selector": "0x00000000",
                    "status": true,
                    "value": "0"
                },
                "nodeType": 0
            },
            "13": {
                "event": {
                    "contract": "0xad428ea346d6cd509b6f03e55cd785040edd50be",
                    "decodedLog": {
                        "name": "TransferBatch",
                        "params": [
                            {
                                "name": "operator",
                                "type": "address",
                                "value": "0x864baa13e01d8f9e26549dc91b458cd15e34eb7c"
                            },
                            {
                                "name": "from",
                                "type": "address",
                                "value": "0x0000000000000000000000000000000000000000"
                            },
                            {
                                "name": "to",
                                "type": "address",
                                "value": "0x10034c5dd051559663ca9a1aa909ce140169291a"
                            },
                            {
                                "name": "ids",
                                "type": "uint256[]",
                                "value": [
                                    "29"
                                ]
                            },
                            {
                                "name": "amounts",
                                "type": "uint256[]",
                                "value": [
                                    "1"
                                ]
                            }
                        ],
                        "signature": "TransferBatch(address,address,address,uint256[],uint256[])"
                    },
                    "id": 13,
                    "logData": "0x000000000000000000000000000000000000000000000000000000000000004000000000000000000000000000000000000000000000000000000000000000800000000000000000000000000000000000000000000000000000000000000001000000000000000000000000000000000000000000000000000000000000001d00000000000000000000000000000000000000000000000000000000000000010000000000000000000000000000000000000000000000000000000000000001",
                    "logDecoded": true,
                    "operation": "EVENT",
                    "revert": false,
                    "status": true,
                    "topics": [
                        "0x4a39dc06d4c0dbc64b70af90fd698a233a518aa5d07e595d983b8c0526c8f7fb",
                        "0x000000000000000000000000864baa13e01d8f9e26549dc91b458cd15e34eb7c",
                        "0x0000000000000000000000000000000000000000000000000000000000000000",
                        "0x00000000000000000000000010034c5dd051559663ca9a1aa909ce140169291a"
                    ]
                },
                "nodeType": 1
            },
            "2": {
                "invocation": {
                    "address": "0x9f36ee33fd56c7d9a78facd3249c580b1ca464a2",
                    "callData": "0x",
                    "decodedMethod": {
                        "callParams": [],
                        "constructorArguments": "",
                        "name": "owner",
                        "returnParams": [
                            {
                                "name": "result",
                                "type": "address",
                                "value": "0x10034c5dd051559663ca9a1aa909ce140169291a"
                            }
                        ],
                        "signature": "owner()"
                    },
                    "errorInfo": "",
                    "fromAddress": "0xad428ea346d6cd509b6f03e55cd785040edd50be",
                    "gasUsed": 2369,
                    "id": 2,
                    "methodDecoded": true,
                    "operation": "DELEGATECALL",
                    "output": "0x00000000000000000000000010034c5dd051559663ca9a1aa909ce140169291a",
                    "revert": false,
                    "revertMessage": "",
                    "selector": "0x8da5cb5b",
                    "status": true,
                    "value": "0"
                },
                "nodeType": 0
            },
            "3": {
                "invocation": {
                    "address": "0xad428ea346d6cd509b6f03e55cd785040edd50be",
                    "callData": "0x000000000000000000000000000000000000000000000000000000000000001d0000000000000000000000000000000000000000000000000000000000000001",
                    "decodedMethod": {
                        "callParams": [
                            {
                                "name": "tokenId",
                                "type": "uint256",
                                "value": "29"
                            },
                            {
                                "name": "newMaxSupply",
                                "type": "uint256",
                                "value": "1"
                            }
                        ],
                        "constructorArguments": "",
                        "name": "setMaxSupply",
                        "returnParams": [],
                        "signature": "setMaxSupply(uint256,uint256)"
                    },
                    "errorInfo": "",
                    "fromAddress": "0x864baa13e01d8f9e26549dc91b458cd15e34eb7c",
                    "gasUsed": 26287,
                    "id": 3,
                    "methodDecoded": true,
                    "operation": "CALL",
                    "output": "",
                    "revert": false,
                    "revertMessage": "",
                    "selector": "0x37da577c",
                    "status": true,
                    "value": "0"
                },
                "nodeType": 0
            },
            "4": {
                "invocation": {
                    "address": "0x9f36ee33fd56c7d9a78facd3249c580b1ca464a2",
                    "callData": "0x000000000000000000000000000000000000000000000000000000000000001d0000000000000000000000000000000000000000000000000000000000000001",
                    "decodedMethod": {
                        "callParams": [
                            {
                                "name": "tokenId",
                                "type": "uint256",
                                "value": "29"
                            },
                            {
                                "name": "newMaxSupply",
                                "type": "uint256",
                                "value": "1"
                            }
                        ],
                        "constructorArguments": "",
                        "name": "setMaxSupply",
                        "returnParams": [],
                        "signature": "setMaxSupply(uint256,uint256)"
                    },
                    "errorInfo": "",
                    "fromAddress": "0xad428ea346d6cd509b6f03e55cd785040edd50be",
                    "gasUsed": 26112,
                    "id": 4,
                    "methodDecoded": true,
                    "operation": "DELEGATECALL",
                    "output": "",
                    "revert": false,
                    "revertMessage": "",
                    "selector": "0x37da577c",
                    "status": true,
                    "value": "0"
                },
                "nodeType": 0
            },
            "5": {
                "event": {
                    "contract": "0xad428ea346d6cd509b6f03e55cd785040edd50be",
                    "decodedLog": {
                        "name": "MaxSupplyUpdated",
                        "params": [
                            {
                                "name": "tokenId",
                                "type": "uint256",
                                "value": "29"
                            },
                            {
                                "name": "newMaxSupply",
                                "type": "uint256",
                                "value": "1"
                            }
                        ],
                        "signature": "MaxSupplyUpdated(uint256,uint256)"
                    },
                    "id": 5,
                    "logData": "0x000000000000000000000000000000000000000000000000000000000000001d0000000000000000000000000000000000000000000000000000000000000001",
                    "logDecoded": true,
                    "operation": "EVENT",
                    "revert": false,
                    "status": true,
                    "topics": [
                        "0x44ecfc706d63e347851cfd40acfa6cf2e3a41faa3e8b460210c03938e84a91ad"
                    ]
                },
                "nodeType": 1
            },
            "6": {
                "invocation": {
                    "address": "0xad428ea346d6cd509b6f03e55cd785040edd50be",
                    "callData": "0x00000000000000000000000000000000000000000000000000000000000000200000000000000000000000000000000000000000000000000000000000000047697066733a2f2f62616679626569676e777032687a36357972767868726374726b716d6e6d6d6e616c78706e7078677763626d6c6b68783662763233336b746e376d2f7b69647d00000000000000000000000000000000000000000000000000",
                    "decodedMethod": {
                        "callParams": [
                            {
                                "name": "newBaseURI",
                                "type": "string",
                                "value": "ipfs://bafybeignwp2hz65yrvxhrctrkqmnmmnalxpnpxgwcbmlkhx6bv233ktn7m/{id}"
                            }
                        ],
                        "constructorArguments": "",
                        "name": "setBaseURI",
                        "returnParams": [],
                        "signature": "setBaseURI(string)"
                    },
                    "errorInfo": "",
                    "fromAddress": "0x864baa13e01d8f9e26549dc91b458cd15e34eb7c",
                    "gasUsed": 20215,
                    "id": 6,
                    "methodDecoded": true,
                    "operation": "CALL",
                    "output": "",
                    "revert": false,
                    "revertMessage": "",
                    "selector": "0x55f804b3",
                    "status": true,
                    "value": "0"
                },
                "nodeType": 0
            },
            "7": {
                "invocation": {
                    "address": "0x9f36ee33fd56c7d9a78facd3249c580b1ca464a2",
                    "callData": "0x00000000000000000000000000000000000000000000000000000000000000200000000000000000000000000000000000000000000000000000000000000047697066733a2f2f62616679626569676e777032687a36357972767868726374726b716d6e6d6d6e616c78706e7078677763626d6c6b68783662763233336b746e376d2f7b69647d00000000000000000000000000000000000000000000000000",
                    "decodedMethod": {
                        "callParams": [
                            {
                                "name": "newBaseURI",
                                "type": "string",
                                "value": "ipfs://bafybeignwp2hz65yrvxhrctrkqmnmmnalxpnpxgwcbmlkhx6bv233ktn7m/{id}"
                            }
                        ],
                        "constructorArguments": "",
                        "name": "setBaseURI",
                        "returnParams": [],
                        "signature": "setBaseURI(string)"
                    },
                    "errorInfo": "",
                    "fromAddress": "0xad428ea346d6cd509b6f03e55cd785040edd50be",
                    "gasUsed": 20022,
                    "id": 7,
                    "methodDecoded": true,
                    "operation": "DELEGATECALL",
                    "output": "",
                    "revert": false,
                    "revertMessage": "",
                    "selector": "0x55f804b3",
                    "status": true,
                    "value": "0"
                },
                "nodeType": 0
            },
            "8": {
                "event": {
                    "contract": "0xad428ea346d6cd509b6f03e55cd785040edd50be",
                    "decodedLog": {
                        "name": "BatchMetadataUpdate",
                        "params": [
                            {
                                "name": "_fromTokenId",
                                "type": "uint256",
                                "value": "0"
                            },
                            {
                                "name": "_toTokenId",
                                "type": "uint256",
                                "value": "115,792,089,237,316,195,423,570,985,008,687,907,853,269,984,665,640,564,039,457,584,007,913,129,639,935"
                            }
                        ],
                        "signature": "BatchMetadataUpdate(uint256,uint256)"
                    },
                    "id": 8,
                    "logData": "0x0000000000000000000000000000000000000000000000000000000000000000ffffffffffffffffffffffffffffffffffffffffffffffffffffffffffffffff",
                    "logDecoded": true,
                    "operation": "EVENT",
                    "revert": false,
                    "status": true,
                    "topics": [
                        "0x6bd5c950a8d8df17f772f5af37cb3655737899cbf903264b9795592da439661c"
                    ]
                },
                "nodeType": 1
            },
            "9": {
                "invocation": {
                    "address": "0xad428ea346d6cd509b6f03e55cd785040edd50be",
                    "callData": "0x00000000000000000000000010034c5dd051559663ca9a1aa909ce140169291a000000000000000000000000000000000000000000000000000000000000006000000000000000000000000000000000000000000000000000000000000000a00000000000000000000000000000000000000000000000000000000000000001000000000000000000000000000000000000000000000000000000000000001d00000000000000000000000000000000000000000000000000000000000000010000000000000000000000000000000000000000000000000000000000000001",
                    "decodedMethod": null,
                    "errorInfo": "",
                    "fromAddress": "0x864baa13e01d8f9e26549dc91b458cd15e34eb7c",
                    "gasUsed": 57910,
                    "id": 9,
                    "methodDecoded": false,
                    "operation": "CALL",
                    "output": "",
                    "revert": false,
                    "revertMessage": "",
                    "selector": "0xae265953",
                    "status": true,
                    "value": "0"
                },
                "nodeType": 0
            }
        },
        "gasFlame": [
            {
                "children": [
                    {
                        "children": [
                            {
                                "children": [],
                                "depth": 0,
                                "name": "Initial Gas",
                                "value": 30224
                            },
                            {
                                "children": [
                                    {
                                        "children": [
                                            {
                                                "children": [],
                                                "depth": 2,
                                                "name": "owner",
                                                "value": 2369
                                            }
                                        ],
                                        "depth": 1,
                                        "name": "owner",
                                        "value": 5035
                                    },
                                    {
                                        "children": [
                                            {
                                                "children": [],
                                                "depth": 2,
                                                "name": "setMaxSupply",
                                                "value": 26112
                                            }
                                        ],
                                        "depth": 1,
                                        "name": "setMaxSupply",
                                        "value": 26287
                                    },
                                    {
                                        "children": [
                                            {
                                                "children": [],
                                                "depth": 2,
                                                "name": "setBaseURI",
                                                "value": 20022
                                            }
                                        ],
                                        "depth": 1,
                                        "name": "setBaseURI",
                                        "value": 20215
                                    },
                                    {
                                        "children": [
                                            {
                                                "children": [
                                                    {
                                                        "children": [],
                                                        "depth": 3,
                                                        "name": "dataCopy()",
                                                        "value": 21
                                                    },
                                                    {
                                                        "children": [],
                                                        "depth": 3,
                                                        "name": "dataCopy()",
                                                        "value": 21
                                                    }
                                                ],
                                                "depth": 2,
                                                "name": "0xae265953",
                                                "value": 57705
                                            }
                                        ],
                                        "depth": 1,
                                        "name": "0xae265953",
                                        "value": 57910
                                    }
                                ],
                                "depth": 0,
                                "name": "Executed Gas",
                                "value": 120145
                            }
                        ],
                        "depth": -1,
                        "name": "Actual Gas Used",
                        "value": 150369
                    },
                    {
                        "children": [],
                        "depth": -1,
                        "name": "Refunded Gas",
                        "value": 0
                    }
                ],
                "depth": -2,
                "name": "Total Gas",
                "value": 150369
            }
        ],
        "isConfirmed": true,
        "mainTrace": [
            {
                "children": [
                    {
                        "children": [
                            {
                                "children": [
                                    {
                                        "children": [],
                                        "depth": 2,
                                        "id": 2,
                                        "order": 2
                                    }
                                ],
                                "depth": 1,
                                "id": 1,
                                "order": 1
                            },
                            {
                                "children": [
                                    {
                                        "children": [
                                            {
                                                "children": [],
                                                "depth": 3,
                                                "id": 5,
                                                "order": 5
                                            }
                                        ],
                                        "depth": 2,
                                        "id": 4,
                                        "order": 4
                                    }
                                ],
                                "depth": 1,
                                "id": 3,
                                "order": 3
                            },
                            {
                                "children": [
                                    {
                                        "children": [
                                            {
                                                "children": [],
                                                "depth": 3,
                                                "id": 8,
                                                "order": 8
                                            }
                                        ],
                                        "depth": 2,
                                        "id": 7,
                                        "order": 7
                                    }
                                ],
                                "depth": 1,
                                "id": 6,
                                "order": 6
                            },
                            {
                                "children": [
                                    {
                                        "children": [
                                            {
                                                "children": [],
                                                "depth": 3,
                                                "id": 11,
                                                "order": 11
                                            },
                                            {
                                                "children": [],
                                                "depth": 3,
                                                "id": 12,
                                                "order": 12
                                            },
                                            {
                                                "children": [],
                                                "depth": 3,
                                                "id": 13,
                                                "order": 13
                                            }
                                        ],
                                        "depth": 2,
                                        "id": 10,
                                        "order": 10
                                    }
                                ],
                                "depth": 1,
                                "id": 9,
                                "order": 9
                            }
                        ],
                        "depth": 0,
                        "id": 0,
                        "order": 0
                    }
                ],
                "depth": -1,
                "id": -1,
                "order": -1
            }
        ],
        "mainTraceNodeCount": 14,
        "parentIdMap": {
            "0": -1,
            "1": 0,
            "10": 9,
            "11": 10,
            "12": 10,
            "13": 10,
            "2": 1,
            "3": 0,
            "4": 3,
            "5": 4,
            "6": 0,
            "7": 6,
            "8": 7,
            "9": 0
        },
        "tidyTrace": [
            {
                "children": [
                    {
                        "children": [
                            {
                                "children": [
                                    {
                                        "children": [
                                            {
                                                "children": [],
                                                "depth": 3,
                                                "id": 5,
                                                "order": 5
                                            }
                                        ],
                                        "depth": 2,
                                        "id": 4,
                                        "order": 4
                                    }
                                ],
                                "depth": 1,
                                "id": 3,
                                "order": 3
                            },
                            {
                                "children": [
                                    {
                                        "children": [
                                            {
                                                "children": [],
                                                "depth": 3,
                                                "id": 8,
                                                "order": 8
                                            }
                                        ],
                                        "depth": 2,
                                        "id": 7,
                                        "order": 7
                                    }
                                ],
                                "depth": 1,
                                "id": 6,
                                "order": 6
                            },
                            {
                                "children": [
                                    {
                                        "children": [
                                            {
                                                "children": [],
                                                "depth": 3,
                                                "id": 13,
                                                "order": 13
                                            }
                                        ],
                                        "depth": 2,
                                        "id": 10,
                                        "order": 10
                                    }
                                ],
                                "depth": 1,
                                "id": 9,
                                "order": 9
                            }
                        ],
                        "depth": 0,
                        "id": 0,
                        "order": 0
                    }
                ],
                "depth": -1,
                "id": -1,
                "order": -1
            }
        ],
        "tidyTraceNodeCount": 10
    },
    "state_change": {
        "stateChanges": [
            {
                "address": "0xad428ea346d6cd509b6f03e55cd785040edd50be",
                "erc": "ERC-1155",
                "slots": [
                    {
                        "current": "0x0000000000000000000000000000000100000000000000010000000000000001",
                        "key": "0x31ff9da46623ded696608610c3749320b1cb2c2dfd644b1139da5367a8e616cf",
                        "prev": "0x0000000000000000000000000000000000000000000000000000000000000000"
                    },
                    {
                        "current": "0x697066733a2f2f62616679626569676e777032687a3635797276786872637472",
                        "key": "0xf652222313e28459528d920b65115c16c04f3efc82aaedc97be59f3f377c0d3f",
                        "prev": "0x697066733a2f2f62616679626569633435336f6d6f6b76676965326669673563"
                    },
                    {
                        "current": "0x6b716d6e6d6d6e616c78706e7078677763626d6c6b68783662763233336b746e",
                        "key": "0xf652222313e28459528d920b65115c16c04f3efc82aaedc97be59f3f377c0d40",
                        "prev": "0x6b7271346b6765346773727062676478647a326c643533366c6f6f6a6b713679"
                    },
                    {
                        "current": "0x376d2f7b69647d00000000000000000000000000000000000000000000000000",
                        "key": "0xf652222313e28459528d920b65115c16c04f3efc82aaedc97be59f3f377c0d41",
                        "prev": "0x79612f7b69647d00000000000000000000000000000000000000000000000000"
                    },
                    {
                        "current": "0x000000000000000000000000000000000000000000000000000000000000001d",
                        "key": "0xae8535e81a7cfd2182f3bb0a13ff5c5d5e802bae79f4384beb5281c0879d3793",
                        "prev": "0x000000000000000000000000000000000000000000000000000000000000001c"
                    },
                    {
                        "current": "0x0000000000000000000000000000000000000000000000000000000000000001",
                        "key": "0x0e9fe1f81f2c066add5caa50fab7607626faea6038386772c44d598381eff5f3",
                        "prev": "0x0000000000000000000000000000000000000000000000000000000000000000"
                    },
                    {
                        "current": "0x0000000000000000000000000000000000000000000000000000000000000001",
                        "key": "0x6cc06fccc3b4adbc68df196ed526a6253b5a00cad52f93640cfeb72442f5c8d6",
                        "prev": "0x0000000000000000000000000000000000000000000000000000000000000000"
                    }
                ],
                "storageVariables": [
                    {
                        "name": "_baseURI",
                        "type": "string",
                        "value": {
                            "current": "ipfs://bafybeignwp2hz65yrvxhrctrkqmnmmnalxpnpxgwcbmlkhx6bv233ktn7m/{id}",
                            "prev": "ipfs://bafybeignwp2hz65yrvxhrctrkqmnmmnalxpnpxgwcbmlkhx6bv233ktn7m/{id}",
                            "typeTag": 1
                        }
                    },
                    {
                        "name": "_totalMintedByUser",
                        "type": "mapping(address => uint256)",
                        "value": {
                            "pairs": [
                                {
                                    "key": "0x10034c5dd051559663ca9a1aa909ce140169291a",
                                    "value": {
                                        "current": "29",
                                        "prev": "28",
                                        "typeTag": 1
                                    }
                                }
                            ],
                            "typeTag": 4
                        }
                    },
                    {
                        "name": "_totalMintedByUserPerToken",
                        "type": "mapping(address => mapping(uint256 => uint256))",
                        "value": {
                            "pairs": [
                                {
                                    "key": "0x10034c5dd051559663ca9a1aa909ce140169291a",
                                    "value": {
                                        "pairs": [
                                            {
                                                "key": "29",
                                                "value": {
                                                    "current": "1",
                                                    "prev": "0",
                                                    "typeTag": 1
                                                }
                                            }
                                        ],
                                        "typeTag": 4
                                    }
                                }
                            ],
                            "typeTag": 4
                        }
                    },
                    {
                        "name": "_tokenSupply",
                        "type": "mapping(uint256 => struct IERC1155ContractMetadata.TokenSupply)",
                        "value": {
                            "pairs": [
                                {
                                    "key": "29",
                                    "value": {
                                        "fields": [
                                            {
                                                "name": "maxSupply",
                                                "type": "uint64",
                                                "value": {
                                                    "current": "1",
                                                    "prev": "0",
                                                    "typeTag": 1
                                                }
                                            },
                                            {
                                                "name": "totalSupply",
                                                "type": "uint64",
                                                "value": {
                                                    "current": "1",
                                                    "prev": "0",
                                                    "typeTag": 1
                                                }
                                            },
                                            {
                                                "name": "totalMinted",
                                                "type": "uint64",
                                                "value": {
                                                    "current": "1",
                                                    "prev": "0",
                                                    "typeTag": 1
                                                }
                                            }
                                        ],
                                        "typeTag": 3
                                    }
                                }
                            ],
                            "typeTag": 4
                        }
                    }
                ]
            }
        ]
    }
}