{
    "balance_change": {
        "balanceChanges": [
            {
                "account": "0x745501b995650598db2799071af7b37080ba6e5d",
                "assets": [
                    {
                        "address": "0x3708dea52a5846fd16d0060aab01c87bb5932b02",
                        "amount": "970",
                        "iconUrl": "",
                        "isERC1155": false,
                        "isERC721": false,
                        "sign": false,
                        "value": "252.1826241"
                    }
                ]
            },
            {
                "account": "0x3a596e2a456a36740a9403a9ef8f1222122e93f9",
                "assets": [
                    {
                        "address": "0x3708dea52a5846fd16d0060aab01c87bb5932b02",
                        "amount": "970",
                        "iconUrl": "",
                        "isERC1155": false,
                        "isERC721": false,
                        "sign": true,
                        "value": "252.1826241"
                    }
                ]
            }
        ]
    },
    "profile": {
        "basic_info": {
            "baseFee": "22.269207662",
            "blockNumber": 16575675,
            "callData": "0xa9059cbb0000000000000000000000003a596e2a456a36740a9403a9ef8f1222122e93f9000000000000000000000000000000000000000000000034957444b840e80000",
            "debugEnable": true,
            "errorInfo": "",
            "eventCount": 1,
            "feeRecipient": "0x388c818ca8b9251b393131c08a736a67ccb19297",
            "formatValue": "0",
            "gasLimit": 80908,
            "gasPrice": "45",
            "gasUsed": 53939,
            "intTxnCount": 0,
            "internalRevert": false,
            "internalRevertMessage": "",
            "isContractCreation": false,
            "isFlashloan": false,
            "maxFee": "",
            "nonce": 264,
            "overwritedBlockNumber": -1,
            "priorityFee": "",
            "receiver": "0x3708dea52a5846fd16d0060aab01c87bb5932b02",
            "revertMessage": "",
            "sender": "0x745501b995650598db2799071af7b37080ba6e5d",
            "simulationEnable": true,
            "sourceTxnHash": "0xa6a3b09d64a96105a750f6836fcd7818e9afca94080be298f60d378a0773a215",
            "status": true,
            "timestamp": "2023-02-07T08:21:11Z",
            "transactionFee": "0.002427255",
            "txnHash": "0xa6a3b09d64a96105a750f6836fcd7818e9afca94080be298f60d378a0773a215",
            "txnIndex": 2,
            "type": 0,
            "value": "0"
        },
        "fund_flow": [
            {
                "amount": "970",
                "from": "0x745501b995650598db2799071af7b37080ba6e5d",
                "id": 1,
                "isERC1155": false,
                "isERC721": false,
                "isReverted": false,
                "order": 1,
                "to": "0x3a596e2a456a36740a9403a9ef8f1222122e93f9",
                "token": "0x3708dea52a5846fd16d0060aab01c87bb5932b02"
            }
        ],
        "token_infos": [
            {
                "address": "0x3708dea52a5846fd16d0060aab01c87bb5932b02",
                "decimals": 18
            },
            {
                "address": "0xc02aaa39b223fe8d0a0e5c4f27ead9083c756cc2",
                "decimals": 18
            },
            {
                "address": "0xeeeeeeeeeeeeeeeeeeeeeeeeeeeeeeeeeeeeeeee",
                "decimals": 18
            }
        ]
    },
    "address_label": {
        "labels": [
            {
                "address": "0x0000000000000000000000000000000000000001",
                "label": "Precompiled"
            },
            {
                "address": "0x0000000000000000000000000000000000000002",
                "label": "Precompiled"
            },
            {
                "address": "0x0000000000000000000000000000000000000003",
                "label": "Precompiled"
            },
            {
                "address": "0x0000000000000000000000000000000000000004",
                "label": "Precompiled"
            },
            {
                "address": "0xeeeeeeeeeeeeeeeeeeeeeeeeeeeeeeeeeeeeeeee",
                "label": "Ether"
            },
            {
                "address": "0x3708dea52a5846fd16d0060aab01c87bb5932b02",
                "label": "MetaX: ATEM Token"
            },
            {
                "address": "0x388c818ca8b9251b393131c08a736a67ccb19297",
                "label": "LidoExecutionLayerRewardsVault"
            }
        ]
    },
    "trace": {
        "accountLabels": null,
        "dataMap": {
            "-1": {
                "invocation": {
                    "address": "0x745501b995650598db2799071af7b37080ba6e5d",
                    "callData": "",
                    "decodedMethod": null,
                    "errorInfo": "",
                    "fromAddress": "",
                    "gasUsed": 0,
                    "id": -1,
                    "methodDecoded": false,
                    "operation": "",
                    "output": "",
                    "revert": false,
                    "revertMessage": "",
                    "selector": "",
                    "status": false,
                    "value": ""
                },
                "nodeType": 0
            },
            "0": {
                "invocation": {
                    "address": "0x3708dea52a5846fd16d0060aab01c87bb5932b02",
                    "callData": "0x0000000000000000000000003a596e2a456a36740a9403a9ef8f1222122e93f9000000000000000000000000000000000000000000000034957444b840e80000",
                    "decodedMethod": {
                        "callParams": [
                            {
                                "name": "_to",
                                "type": "address",
                                "value": "0x3a596e2a456a36740a9403a9ef8f1222122e93f9"
                            },
                            {
                                "decimalAvailable": true,
                                "name": "_value",
                                "type": "uint256",
                                "value": "970,000,000,000,000,000,000"
                            }
                        ],
                        "constructorArguments": "",
                        "name": "transfer",
                        "returnParams": [
                            {
                                "name": "",
                                "type": "bool",
                                "value": true
                            }
                        ],
                        "signature": "transfer(address,uint256)"
                    },
                    "errorInfo": "",
                    "fromAddress": "0x745501b995650598db2799071af7b37080ba6e5d",
                    "gasUsed": 53939,
                    "id": 0,
                    "methodDecoded": true,
                    "operation": "CALL",
                    "output": "0x0000000000000000000000000000000000000000000000000000000000000001",
                    "revert": false,
                    "revertMessage": "",
                    "selector": "0xa9059cbb",
                    "status": true,
                    "value": "0"
                },
                "nodeType": 0
            },
            "1": {
                "event": {
                    "contract": "0x3708dea52a5846fd16d0060aab01c87bb5932b02",
                    "decodedLog": {
                        "name": "Transfer",
                        "params": [
                            {
                                "name": "from",
                                "type": "address",
                                "value": "0x745501b995650598db2799071af7b37080ba6e5d"
                            },
                            {
                                "name": "to",
                                "type": "address",
                                "value": "0x3a596e2a456a36740a9403a9ef8f1222122e93f9"
                            },
                            {
                                "decimalAvailable": true,
                                "name": "value",
                                "type": "uint256",
                                "value": "970,000,000,000,000,000,000"
                            }
                        ],
                        "signature": "Transfer(address,address,uint256)"
                    },
                    "id": 1,
                    "logData": "0x000000000000000000000000000000000000000000000034957444b840e80000",
                    "logDecoded": true,
                    "operation": "EVENT",
                    "revert": false,
                    "status": true,
                    "topics": [
                        "0xddf252ad1be2c89b69c2b068fc378daa952ba7f163c4a11628f55a4df523b3ef",
                        "0x000000000000000000000000745501b995650598db2799071af7b37080ba6e5d",
                        "0x0000000000000000000000003a596e2a456a36740a9403a9ef8f1222122e93f9"
                    ]
                },
                "nodeType": 1
            }
        },
        "gasFlame": [
            {
                "children": [
                    {
                        "children": [
                            {
                                "children": [],
                                "depth": 0,
                                "name": "Initial Gas",
                                "value": 21644
                            },
                            {
                                "children": [],
                                "depth": 0,
                                "name": "Executed Gas",
                                "value": 32295
                            }
                        ],
                        "depth": -1,
                        "name": "Actual Gas Used",
                        "value": 53939
                    },
                    {
                        "children": [],
                        "depth": -1,
                        "name": "Refunded Gas",
                        "value": 0
                    }
                ],
                "depth": -2,
                "name": "Total Gas",
                "value": 53939
            }
        ],
        "isConfirmed": true,
        "mainTrace": [
            {
                "children": [
                    {
                        "children": [
                            {
                                "children": [],
                                "depth": 1,
                                "id": 1,
                                "order": 1
                            }
                        ],
                        "depth": 0,
                        "id": 0,
                        "order": 0
                    }
                ],
                "depth": -1,
                "id": -1,
                "order": -1
            }
        ],
        "mainTraceNodeCount": 2,
        "parentIdMap": {
            "0": -1,
            "1": 0
        },
        "tidyTrace": [
            {
                "children": [
                    {
                        "children": [
                            {
                                "children": [],
                                "depth": 1,
                                "id": 1,
                                "order": 1
                            }
                        ],
                        "depth": 0,
                        "id": 0,
                        "order": 0
                    }
                ],
                "depth": -1,
                "id": -1,
                "order": -1
            }
        ],
        "tidyTraceNodeCount": 2
    },
    "state_change": {
        "stateChanges": [
            {
                "address": "0x3708dea52a5846fd16d0060aab01c87bb5932b02",
                "erc": "ERC-20",
                "slots": [
                    {
                        "current": "0x00000000000000000000000000000000000000000000b94aa4c3c187abf7c400",
                        "key": "0x040ec1cd4915264b3ed62c5fe82d65e7a1341ef3362bb9cbf0465c1d324617eb",
                        "prev": "0x00000000000000000000000000000000000000000000b97f3a38063fecdfc400"
                    },
                    {
                        "current": "0x000000000000000000000000000000000000000000000034957444b840e80000",
                        "key": "0x3f4af2a667889fc1f0f3b786793b0fef1712ebb5110e95510a5176d2c4a41280",
                        "prev": "0x0000000000000000000000000000000000000000000000000000000000000000"
                    }
                ],
                "storageVariables": [
                    {
                        "name": "balances",
                        "type": "mapping(address => uint256)",
                        "value": {
                            "pairs": [
                                {
                                    "key": "0x3a596e2a456a36740a9403a9ef8f1222122e93f9",
                                    "value": {
                                        "current": "970000000000000000000",
                                        "prev": "0",
                                        "typeTag": 1
                                    }
                                },
                                {
                                    "key": "0x745501b995650598db2799071af7b37080ba6e5d",
                                    "value": {
                                        "current": "875014730938170000000000",
                                        "prev": "875984730938170000000000",
                                        "typeTag": 1
                                    }
                                }
                            ],
                            "typeTag": 4
                        }
                    }
                ]
            }
        ]
    }
}