{
    "balance_change": {
        "balanceChanges": []
    },
    "profile": {
        "basic_info": {
            "baseFee": "",
            "blockNumber": 8837772,
            "callData": "0x4ab0d1903e3a10f664260bc64132b34b751547f8e9cc448e05f7aa4abf28ab848eb628d500000000000000000000000000000000000000000000000004a03ce68d21555500000000000000000000000079febf6b9f76853edbcbc913e6aae8232cfb9de96a9705b400000000000000000000000000000000000000000000000000000000000000000000000000000000000000000000000000000000000000005db8fa5a00000000000000000000000000000000000000000000000000000004752ed154",
            "debugEnable": true,
            "errorInfo": "",
            "eventCount": 2,
            "feeRecipient": "0xea674fdde714fd979de3edf0f56aa9716b898ec8",
            "formatValue": "0",
            "gasLimit": 500000,
            "gasPrice": "20",
            "gasUsed": 40606,
            "intTxnCount": 1,
            "internalRevert": false,
            "internalRevertMessage": "",
            "isContractCreation": false,
            "isFlashloan": false,
            "maxFee": "",
            "nonce": 31951,
            "overwritedBlockNumber": -1,
            "priorityFee": "",
            "receiver": "0x58c69aff4df980357034ea98aad35bbf78cbd849",
            "revertMessage": "",
            "sender": "0x1edb9539d67b0ceb929ae1f334a6c24499ae9cb9",
            "simulationEnable": true,
            "sourceTxnHash": "0xa6c9d7a0eff6b6e8ee5032b31cc30c4c92d122e0d95cbd386296233771b32d99",
            "status": true,
            "timestamp": "2019-10-30T02:45:22Z",
            "transactionFee": "0.00081212",
            "txnHash": "0xa6c9d7a0eff6b6e8ee5032b31cc30c4c92d122e0d95cbd386296233771b32d99",
            "txnIndex": 21,
            "type": 0,
            "value": "0"
        },
        "fund_flow": [],
        "token_infos": [
            {
                "address": "0xeeeeeeeeeeeeeeeeeeeeeeeeeeeeeeeeeeeeeeee",
                "decimals": 18
            },
            {
                "address": "0xc02aaa39b223fe8d0a0e5c4f27ead9083c756cc2",
                "decimals": 18
            }
        ]
    },
    "address_label": {
        "labels": [
            {
                "address": "0xeeeeeeeeeeeeeeeeeeeeeeeeeeeeeeeeeeeeeeee",
                "label": "Ether"
            },
            {
                "address": "0x79febf6b9f76853edbcbc913e6aae8232cfb9de9",
                "label": "Chainlink: Aggregator"
            },
            {
                "address": "0x58c69aff4df980357034ea98aad35bbf78cbd849",
                "label": "Oracle"
            },
            {
                "address": "0x0000000000000000000000000000000000000001",
                "label": "Precompiled"
            },
            {
                "address": "0x0000000000000000000000000000000000000002",
                "label": "Precompiled"
            },
            {
                "address": "0x0000000000000000000000000000000000000003",
                "label": "Precompiled"
            },
            {
                "address": "0x0000000000000000000000000000000000000004",
                "label": "Precompiled"
            }
        ]
    },
    "trace": {
        "accountLabels": null,
        "dataMap": {
            "-1": {
                "invocation": {
                    "address": "0x1edb9539d67b0ceb929ae1f334a6c24499ae9cb9",
                    "callData": "",
                    "decodedMethod": null,
                    "errorInfo": "",
                    "fromAddress": "",
                    "gasUsed": 0,
                    "id": -1,
                    "methodDecoded": false,
                    "operation": "",
                    "output": "",
                    "revert": false,
                    "revertMessage": "",
                    "selector": "",
                    "status": false,
                    "value": ""
                },
                "nodeType": 0
            },
            "0": {
                "invocation": {
                    "address": "0x58c69aff4df980357034ea98aad35bbf78cbd849",
                    "callData": "0x3e3a10f664260bc64132b34b751547f8e9cc448e05f7aa4abf28ab848eb628d500000000000000000000000000000000000000000000000004a03ce68d21555500000000000000000000000079febf6b9f76853edbcbc913e6aae8232cfb9de96a9705b400000000000000000000000000000000000000000000000000000000000000000000000000000000000000000000000000000000000000005db8fa5a00000000000000000000000000000000000000000000000000000004752ed154",
                    "decodedMethod": {
                        "callParams": [
                            {
                                "name": "_requestId",
                                "type": "bytes32",
                                "value": "0x3e3a10f664260bc64132b34b751547f8e9cc448e05f7aa4abf28ab848eb628d5"
                            },
                            {
                                "name": "_payment",
                                "type": "uint256",
                                "value": "333,333,333,333,333,333"
                            },
                            {
                                "name": "_callbackAddress",
                                "type": "address",
                                "value": "0x79febf6b9f76853edbcbc913e6aae8232cfb9de9"
                            },
                            {
                                "name": "_callbackFunctionId",
                                "type": "bytes4",
                                "value": "0x6a9705b4"
                            },
                            {
                                "name": "_expiration",
                                "type": "uint256",
                                "value": "1,572,403,802"
                            },
                            {
                                "name": "_data",
                                "type": "bytes32",
                                "value": "0x00000000000000000000000000000000000000000000000000000004752ed154"
                            }
                        ],
                        "constructorArguments": "",
                        "name": "fulfillOracleRequest",
                        "returnParams": [
                            {
                                "name": "",
                                "type": "bool",
                                "value": true
                            }
                        ],
                        "signature": "fulfillOracleRequest(bytes32,uint256,address,bytes4,uint256,bytes32)"
                    },
                    "errorInfo": "",
                    "fromAddress": "0x1edb9539d67b0ceb929ae1f334a6c24499ae9cb9",
                    "gasUsed": 40606,
                    "id": 0,
                    "methodDecoded": true,
                    "operation": "CALL",
                    "output": "0x0000000000000000000000000000000000000000000000000000000000000001",
                    "revert": false,
                    "revertMessage": "",
                    "selector": "0x4ab0d190",
                    "status": true,
                    "value": "0"
                },
                "nodeType": 0
            },
            "1": {
                "invocation": {
                    "address": "0x79febf6b9f76853edbcbc913e6aae8232cfb9de9",
                    "callData": "0x3e3a10f664260bc64132b34b751547f8e9cc448e05f7aa4abf28ab848eb628d500000000000000000000000000000000000000000000000000000004752ed154",
                    "decodedMethod": {
                        "callParams": [
                            {
                                "name": "_clRequestId",
                                "type": "bytes32",
                                "value": "0x3e3a10f664260bc64132b34b751547f8e9cc448e05f7aa4abf28ab848eb628d5"
                            },
                            {
                                "name": "_response",
                                "type": "int256",
                                "value": "19,145,871,700"
                            }
                        ],
                        "constructorArguments": "",
                        "name": "chainlinkCallback",
                        "returnParams": [],
                        "signature": "chainlinkCallback(bytes32,int256)"
                    },
                    "errorInfo": "",
                    "fromAddress": "0x58c69aff4df980357034ea98aad35bbf78cbd849",
                    "gasUsed": 41094,
                    "id": 1,
                    "methodDecoded": true,
                    "operation": "CALL",
                    "output": "",
                    "revert": false,
                    "revertMessage": "",
                    "selector": "0x6a9705b4",
                    "status": true,
                    "value": "0"
                },
                "nodeType": 0
            },
            "2": {
                "event": {
                    "contract": "0x79febf6b9f76853edbcbc913e6aae8232cfb9de9",
                    "decodedLog": {
                        "name": "ChainlinkFulfilled",
                        "params": [
                            {
                                "name": "id",
                                "type": "bytes32",
                                "value": "0x3e3a10f664260bc64132b34b751547f8e9cc448e05f7aa4abf28ab848eb628d5"
                            }
                        ],
                        "signature": "ChainlinkFulfilled(bytes32)"
                    },
                    "id": 2,
                    "logData": "0x",
                    "logDecoded": true,
                    "operation": "EVENT",
                    "revert": false,
                    "status": true,
                    "topics": [
                        "0x7cc135e0cebb02c3480ae5d74d377283180a2601f8f644edf7987b009316c63a",
                        "0x3e3a10f664260bc64132b34b751547f8e9cc448e05f7aa4abf28ab848eb628d5"
                    ]
                },
                "nodeType": 1
            },
            "3": {
                "event": {
                    "contract": "0x79febf6b9f76853edbcbc913e6aae8232cfb9de9",
                    "decodedLog": {
                        "name": "ResponseReceived",
                        "params": [
                            {
                                "name": "response",
                                "type": "int256",
                                "value": "19,145,871,700"
                            },
                            {
                                "name": "answerId",
                                "type": "uint256",
                                "value": "43,933"
                            },
                            {
                                "name": "sender",
                                "type": "address",
                                "value": "0x58c69aff4df980357034ea98aad35bbf78cbd849"
                            }
                        ],
                        "signature": "ResponseReceived(int256,uint256,address)"
                    },
                    "id": 3,
                    "logData": "0x",
                    "logDecoded": true,
                    "operation": "EVENT",
                    "revert": false,
                    "status": true,
                    "topics": [
                        "0xb51168059c83c860caf5b830c5d2e64c2172c6fb2fe9f25447d9838e18d93b60",
                        "0x00000000000000000000000000000000000000000000000000000004752ed154",
                        "0x000000000000000000000000000000000000000000000000000000000000ab9d",
                        "0x00000000000000000000000058c69aff4df980357034ea98aad35bbf78cbd849"
                    ]
                },
                "nodeType": 1
            }
        },
        "gasFlame": [
            {
                "children": [
                    {
                        "children": [
                            {
                                "children": [],
                                "depth": 0,
                                "name": "Initial Gas",
                                "value": 26712
                            },
                            {
                                "children": [
                                    {
                                        "children": [],
                                        "depth": 1,
                                        "name": "chainlinkCallback",
                                        "value": 41094
                                    }
                                ],
                                "depth": 0,
                                "name": "Executed Gas",
                                "value": 54500
                            }
                        ],
                        "depth": -1,
                        "name": "Actual Gas Used",
                        "value": 40606
                    },
                    {
                        "children": [],
                        "depth": -1,
                        "name": "Refunded Gas",
                        "value": 40606
                    }
                ],
                "depth": -2,
                "name": "Total Gas",
                "value": 81212
            }
        ],
        "isConfirmed": true,
        "mainTrace": [
            {
                "children": [
                    {
                        "children": [
                            {
                                "children": [
                                    {
                                        "children": [],
                                        "depth": 2,
                                        "id": 2,
                                        "order": 2
                                    },
                                    {
                                        "children": [],
                                        "depth": 2,
                                        "id": 3,
                                        "order": 3
                                    }
                                ],
                                "depth": 1,
                                "id": 1,
                                "order": 1
                            }
                        ],
                        "depth": 0,
                        "id": 0,
                        "order": 0
                    }
                ],
                "depth": -1,
                "id": -1,
                "order": -1
            }
        ],
        "mainTraceNodeCount": 4,
        "parentIdMap": {
            "0": -1,
            "1": 0,
            "2": 1,
            "3": 1
        },
        "tidyTrace": [
            {
                "children": [
                    {
                        "children": [
                            {
                                "children": [
                                    {
                                        "children": [],
                                        "depth": 2,
                                        "id": 2,
                                        "order": 2
                                    },
                                    {
                                        "children": [],
                                        "depth": 2,
                                        "id": 3,
                                        "order": 3
                                    }
                                ],
                                "depth": 1,
                                "id": 1,
                                "order": 1
                            }
                        ],
                        "depth": 0,
                        "id": 0,
                        "order": 0
                    }
                ],
                "depth": -1,
                "id": -1,
                "order": -1
            }
        ],
        "tidyTraceNodeCount": 4
    },
    "state_change": {
        "stateChanges": [
            {
                "address": "0x58c69aff4df980357034ea98aad35bbf78cbd849",
                "erc": "",
                "slots": [
                    {
                        "current": "0x0000000000000000000000000000000000000000000000000000000000000000",
                        "key": "0x91c842580914cb39a1eabb57405048e3cfcccd52d3b35689f5885e6e9a60f8b7",
                        "prev": "0x9c5ffc752d8b055146f4ac16816c01b9cccfc6c573d2ac9e2d10700bcc70f1bf"
                    },
                    {
                        "current": "0x0000000000000000000000000000000000000000000000cfbbaed131a0dfdb19",
                        "key": "0x0000000000000000000000000000000000000000000000000000000000000004",
                        "prev": "0x0000000000000000000000000000000000000000000000cfb70e944b13be85c4"
                    }
                ],
                "storageVariables": [
                    {
                        "name": "commitments",
                        "type": "mapping(bytes32 => bytes32)",
                        "value": {
                            "pairs": [
                                {
                                    "key": "0x3e3a10f664260bc64132b34b751547f8e9cc448e05f7aa4abf28ab848eb628d5",
                                    "value": {
                                        "current": "0x0000000000000000000000000000000000000000000000000000000000000000",
                                        "prev": "0x9c5ffc752d8b055146f4ac16816c01b9cccfc6c573d2ac9e2d10700bcc70f1bf",
                                        "typeTag": 1
                                    }
                                }
                            ],
                            "typeTag": 4
                        }
                    },
                    {
                        "name": "withdrawableTokens",
                        "type": "uint256",
                        "value": {
                            "current": "3831999999999999990553",
                            "prev": "3831666666666666657220",
                            "typeTag": 1
                        }
                    }
                ]
            },
            {
                "address": "0x79febf6b9f76853edbcbc913e6aae8232cfb9de9",
                "erc": "",
                "slots": [
                    {
                        "current": "0x0000000000000000000000000000000000000000000000000000000000000000",
                        "key": "0xdd4c252d9541d48295c32935abb0e1ab4d10ff97ebea7a7cce4560b20c248843",
                        "prev": "0x00000000000000000000000058c69aff4df980357034ea98aad35bbf78cbd849"
                    },
                    {
                        "current": "0x0000000000000000000000000000000000000000000000000000000000000000",
                        "key": "0xa340ffe11d6c014e89a9cff2aec508403922bea37a20185443fa2b7cf61faed4",
                        "prev": "0x000000000000000000000000000000000000000000000000000000000000ab9d"
                    },
                    {
                        "current": "0x0000000000000000000000000000000000000000000000000000000000000004",
                        "key": "0x79a6e7ad09d101982d6d58bc5d0ac227d26990e34e1ddc48da63dc7cca7268ec",
                        "prev": "0x0000000000000000000000000000000000000000000000000000000000000003"
                    },
                    {
                        "current": "0x00000000000000000000000000000000000000000000000000000004752ed154",
                        "key": "0x027241cfdcfb7eca50dbe92ddeddc01e2c507ea782de16aed4fcc99cd24ff275",
                        "prev": "0x0000000000000000000000000000000000000000000000000000000000000000"
                    }
                ],
                "storageVariables": [
                    {
                        "name": "requestAnswers",
                        "type": "mapping(bytes32 => uint256)",
                        "value": {
                            "pairs": [
                                {
                                    "key": "0x3e3a10f664260bc64132b34b751547f8e9cc448e05f7aa4abf28ab848eb628d5",
                                    "value": {
                                        "current": "0",
                                        "prev": "43933",
                                        "typeTag": 1
                                    }
                                }
                            ],
                            "typeTag": 4
                        }
                    },
                    {
                        "name": "answers",
                        "type": "mapping(uint256 => struct Aggregator.Answer)",
                        "value": {
                            "pairs": [
                                {
                                    "key": "43933",
                                    "value": {
                                        "fields": [
                                            {
                                                "name": "responses",
                                                "type": "int256[]",
                                                "value": {
                                                    "elemType": "int256",
                                                    "elems": [
                                                        {
                                                            "index": 3,
                                                            "value": {
                                                                "current": "19145871700",
                                                                "prev": "0",
                                                                "typeTag": 1
                                                            }
                                                        }
                                                    ],
                                                    "typeTag": 2
                                                }
                                            }
                                        ],
                                        "typeTag": 3
                                    }
                                }
                            ],
                            "typeTag": 4
                        }
                    },
                    {
                        "name": "pendingRequests",
                        "type": "mapping(bytes32 => address)",
                        "value": {
                            "pairs": [
                                {
                                    "key": "0x3e3a10f664260bc64132b34b751547f8e9cc448e05f7aa4abf28ab848eb628d5",
                                    "value": {
                                        "current": "0x0000000000000000000000000000000000000000",
                                        "prev": "0x58c69aff4df980357034ea98aad35bbf78cbd849",
                                        "typeTag": 1
                                    }
                                }
                            ],
                            "typeTag": 4
                        }
                    }
                ]
            }
        ]
    }
}