{
    "balance_change": {
        "balanceChanges": [
            {
                "account": "0xa93ee2d5ac5b802b9a8dbbc4db2cb3a772e89c7c",
                "assets": [
                    {
                        "address": "0xaf691508ba57d416f895e32a1616da1024e882d2",
                        "amount": "431,718.277",
                        "iconUrl": "https://assets.blocksec.com/icon/e8fc4f22a6762b6fea7293ed0649b03ad097824a600200bbc1a33b5fa9435171.png",
                        "isERC1155": false,
                        "isERC721": false,
                        "sign": false,
                        "value": "18445.01461"
                    }
                ]
            },
            {
                "account": "0x53fe82a7334c6f3683d5b39f49f0f7be19823a64",
                "assets": [
                    {
                        "address": "0xaf691508ba57d416f895e32a1616da1024e882d2",
                        "amount": "431,718.277",
                        "iconUrl": "https://assets.blocksec.com/icon/e8fc4f22a6762b6fea7293ed0649b03ad097824a600200bbc1a33b5fa9435171.png",
                        "isERC1155": false,
                        "isERC721": false,
                        "sign": true,
                        "value": "18445.01461"
                    }
                ]
            }
        ]
    },
    "profile": {
        "basic_info": {
            "baseFee": "",
            "blockNumber": 12809416,
            "callData": "0xbf6eac2f0000000000000000000000000000000000000000000000000000000000000000000000000000000000000000af691508ba57d416f895e32a1616da1024e882d2000000000000000000000000000000000000000000005b6b7ea4160994a08000",
            "debugEnable": true,
            "errorInfo": "",
            "eventCount": 3,
            "feeRecipient": "0x04668ec2f57cc15c381b461b9fedab5d451c8f7f",
            "formatValue": "0",
            "gasLimit": 244754,
            "gasPrice": "13",
            "gasUsed": 222504,
            "intTxnCount": 1,
            "internalRevert": false,
            "internalRevertMessage": "",
            "isContractCreation": false,
            "isFlashloan": false,
            "maxFee": "",
            "nonce": 1261,
            "overwritedBlockNumber": -1,
            "priorityFee": "",
            "receiver": "0x53fe82a7334c6f3683d5b39f49f0f7be19823a64",
            "revertMessage": "",
            "sender": "0xa93ee2d5ac5b802b9a8dbbc4db2cb3a772e89c7c",
            "simulationEnable": true,
            "sourceTxnHash": "0xa66950ec5c492b31e992a3c12e9dc59cbe08a092ffad6034f8a97e566e9e46fa",
            "status": true,
            "timestamp": "2021-07-12T01:01:22Z",
            "transactionFee": "0.002892552",
            "txnHash": "0xa66950ec5c492b31e992a3c12e9dc59cbe08a092ffad6034f8a97e566e9e46fa",
            "txnIndex": 48,
            "type": 0,
            "value": "0"
        },
        "fund_flow": [
            {
                "amount": "431,718.277",
                "from": "0xa93ee2d5ac5b802b9a8dbbc4db2cb3a772e89c7c",
                "id": 1,
                "isERC1155": false,
                "isERC721": false,
                "isReverted": false,
                "order": 1,
                "to": "0x53fe82a7334c6f3683d5b39f49f0f7be19823a64",
                "token": "0xaf691508ba57d416f895e32a1616da1024e882d2"
            }
        ],
        "token_infos": [
            {
                "address": "0xc02aaa39b223fe8d0a0e5c4f27ead9083c756cc2",
                "decimals": 18
            },
            {
                "address": "0xeeeeeeeeeeeeeeeeeeeeeeeeeeeeeeeeeeeeeeee",
                "decimals": 18
            },
            {
                "address": "0xaf691508ba57d416f895e32a1616da1024e882d2",
                "decimals": 18
            }
        ]
    },
    "address_label": {
        "labels": [
            {
                "address": "0x0000000000000000000000000000000000000000",
                "label": "Null Address"
            },
            {
                "address": "0x53fe82a7334c6f3683d5b39f49f0f7be19823a64",
                "label": "UnifarmV16"
            },
            {
                "address": "0x0000000000000000000000000000000000000001",
                "label": "Precompiled"
            },
            {
                "address": "0x0000000000000000000000000000000000000002",
                "label": "Precompiled"
            },
            {
                "address": "0x0000000000000000000000000000000000000003",
                "label": "Precompiled"
            },
            {
                "address": "0x0000000000000000000000000000000000000004",
                "label": "Precompiled"
            },
            {
                "address": "0xeeeeeeeeeeeeeeeeeeeeeeeeeeeeeeeeeeeeeeee",
                "label": "Ether"
            },
            {
                "address": "0xaf691508ba57d416f895e32a1616da1024e882d2",
                "label": "Pinknode: PNODE Token"
            }
        ]
    },
    "trace": {
        "accountLabels": null,
        "dataMap": {
            "-1": {
                "invocation": {
                    "address": "0xa93ee2d5ac5b802b9a8dbbc4db2cb3a772e89c7c",
                    "callData": "",
                    "decodedMethod": null,
                    "errorInfo": "",
                    "fromAddress": "",
                    "gasUsed": 0,
                    "id": -1,
                    "methodDecoded": false,
                    "operation": "",
                    "output": "",
                    "revert": false,
                    "revertMessage": "",
                    "selector": "",
                    "status": false,
                    "value": ""
                },
                "nodeType": 0
            },
            "0": {
                "invocation": {
                    "address": "0x53fe82a7334c6f3683d5b39f49f0f7be19823a64",
                    "callData": "0x0000000000000000000000000000000000000000000000000000000000000000000000000000000000000000af691508ba57d416f895e32a1616da1024e882d2000000000000000000000000000000000000000000005b6b7ea4160994a08000",
                    "decodedMethod": {
                        "callParams": [
                            {
                                "name": "referrerAddress",
                                "type": "address",
                                "value": "0x0000000000000000000000000000000000000000"
                            },
                            {
                                "name": "tokenAddress",
                                "type": "address",
                                "value": "0xaf691508ba57d416f895e32a1616da1024e882d2"
                            },
                            {
                                "name": "amount",
                                "type": "uint256",
                                "value": "431,718,277,000,000,000,000,000"
                            }
                        ],
                        "constructorArguments": "",
                        "name": "stake",
                        "returnParams": [],
                        "signature": "stake(address,address,uint256)"
                    },
                    "errorInfo": "",
                    "fromAddress": "0xa93ee2d5ac5b802b9a8dbbc4db2cb3a772e89c7c",
                    "gasUsed": 222504,
                    "id": 0,
                    "methodDecoded": true,
                    "operation": "CALL",
                    "output": "",
                    "revert": false,
                    "revertMessage": "",
                    "selector": "0xbf6eac2f",
                    "status": true,
                    "value": "0"
                },
                "nodeType": 0
            },
            "1": {
                "invocation": {
                    "address": "0xaf691508ba57d416f895e32a1616da1024e882d2",
                    "callData": "0x000000000000000000000000a93ee2d5ac5b802b9a8dbbc4db2cb3a772e89c7c00000000000000000000000053fe82a7334c6f3683d5b39f49f0f7be19823a64000000000000000000000000000000000000000000005b6b7ea4160994a08000",
                    "decodedMethod": {
                        "callParams": [
                            {
                                "name": "sender",
                                "type": "address",
                                "value": "0xa93ee2d5ac5b802b9a8dbbc4db2cb3a772e89c7c"
                            },
                            {
                                "name": "recipient",
                                "type": "address",
                                "value": "0x53fe82a7334c6f3683d5b39f49f0f7be19823a64"
                            },
                            {
                                "decimalAvailable": true,
                                "name": "amount",
                                "type": "uint256",
                                "value": "431,718,277,000,000,000,000,000"
                            }
                        ],
                        "constructorArguments": "",
                        "name": "transferFrom",
                        "returnParams": [
                            {
                                "name": "",
                                "type": "bool",
                                "value": true
                            }
                        ],
                        "signature": "transferFrom(address,address,uint256)"
                    },
                    "errorInfo": "",
                    "fromAddress": "0x53fe82a7334c6f3683d5b39f49f0f7be19823a64",
                    "gasUsed": 21692,
                    "id": 1,
                    "methodDecoded": true,
                    "operation": "CALL",
                    "output": "0x0000000000000000000000000000000000000000000000000000000000000001",
                    "revert": false,
                    "revertMessage": "",
                    "selector": "0x23b872dd",
                    "status": true,
                    "value": "0"
                },
                "nodeType": 0
            },
            "2": {
                "event": {
                    "contract": "0xaf691508ba57d416f895e32a1616da1024e882d2",
                    "decodedLog": {
                        "name": "Transfer",
                        "params": [
                            {
                                "name": "from",
                                "type": "address",
                                "value": "0xa93ee2d5ac5b802b9a8dbbc4db2cb3a772e89c7c"
                            },
                            {
                                "name": "to",
                                "type": "address",
                                "value": "0x53fe82a7334c6f3683d5b39f49f0f7be19823a64"
                            },
                            {
                                "decimalAvailable": true,
                                "name": "value",
                                "type": "uint256",
                                "value": "431,718,277,000,000,000,000,000"
                            }
                        ],
                        "signature": "Transfer(address,address,uint256)"
                    },
                    "id": 2,
                    "logData": "0x000000000000000000000000000000000000000000005b6b7ea4160994a08000",
                    "logDecoded": true,
                    "operation": "EVENT",
                    "revert": false,
                    "status": true,
                    "topics": [
                        "0xddf252ad1be2c89b69c2b068fc378daa952ba7f163c4a11628f55a4df523b3ef",
                        "0x000000000000000000000000a93ee2d5ac5b802b9a8dbbc4db2cb3a772e89c7c",
                        "0x00000000000000000000000053fe82a7334c6f3683d5b39f49f0f7be19823a64"
                    ]
                },
                "nodeType": 1
            },
            "3": {
                "event": {
                    "contract": "0xaf691508ba57d416f895e32a1616da1024e882d2",
                    "decodedLog": {
                        "name": "Approval",
                        "params": [
                            {
                                "name": "owner",
                                "type": "address",
                                "value": "0xa93ee2d5ac5b802b9a8dbbc4db2cb3a772e89c7c"
                            },
                            {
                                "name": "spender",
                                "type": "address",
                                "value": "0x53fe82a7334c6f3683d5b39f49f0f7be19823a64"
                            },
                            {
                                "decimalAvailable": true,
                                "name": "value",
                                "type": "uint256",
                                "value": "48,281,723,000,000,000,000,000"
                            }
                        ],
                        "signature": "Approval(address,address,uint256)"
                    },
                    "id": 3,
                    "logData": "0x000000000000000000000000000000000000000000000a395b81bcf7d75f8000",
                    "logDecoded": true,
                    "operation": "EVENT",
                    "revert": false,
                    "status": true,
                    "topics": [
                        "0x8c5be1e5ebec7d5bd14f71427d1e84f3dd0314c0f7b2291e5b200ac8c7c3b925",
                        "0x000000000000000000000000a93ee2d5ac5b802b9a8dbbc4db2cb3a772e89c7c",
                        "0x00000000000000000000000053fe82a7334c6f3683d5b39f49f0f7be19823a64"
                    ]
                },
                "nodeType": 1
            },
            "4": {
                "event": {
                    "contract": "0x53fe82a7334c6f3683d5b39f49f0f7be19823a64",
                    "decodedLog": {
                        "name": "Stake",
                        "params": [
                            {
                                "name": "userAddress",
                                "type": "address",
                                "value": "0xa93ee2d5ac5b802b9a8dbbc4db2cb3a772e89c7c"
                            },
                            {
                                "name": "referrerAddress",
                                "type": "address",
                                "value": "0x0000000000000000000000000000000000000000"
                            },
                            {
                                "name": "tokenAddress",
                                "type": "address",
                                "value": "0xaf691508ba57d416f895e32a1616da1024e882d2"
                            },
                            {
                                "name": "stakeId",
                                "type": "uint256",
                                "value": "1"
                            },
                            {
                                "name": "stakedAmount",
                                "type": "uint256",
                                "value": "431,718,277,000,000,000,000,000"
                            },
                            {
                                "name": "time",
                                "type": "uint256",
                                "value": "1,626,051,682"
                            }
                        ],
                        "signature": "Stake(address,uint256,address,address,uint256,uint256)"
                    },
                    "id": 4,
                    "logData": "0x0000000000000000000000000000000000000000000000000000000000000001000000000000000000000000000000000000000000005b6b7ea4160994a080000000000000000000000000000000000000000000000000000000000060eb9462",
                    "logDecoded": true,
                    "operation": "EVENT",
                    "revert": false,
                    "status": true,
                    "topics": [
                        "0x8d0a98609f00f26e55cd12ea38ffb8a0dfad170f6f001d682185fdce4ff42444",
                        "0x000000000000000000000000a93ee2d5ac5b802b9a8dbbc4db2cb3a772e89c7c",
                        "0x0000000000000000000000000000000000000000000000000000000000000000",
                        "0x000000000000000000000000af691508ba57d416f895e32a1616da1024e882d2"
                    ]
                },
                "nodeType": 1
            }
        },
        "gasFlame": [
            {
                "children": [
                    {
                        "children": [
                            {
                                "children": [],
                                "depth": 0,
                                "name": "Initial Gas",
                                "value": 21796
                            },
                            {
                                "children": [
                                    {
                                        "children": [],
                                        "depth": 1,
                                        "name": "transferFrom",
                                        "value": 21692
                                    }
                                ],
                                "depth": 0,
                                "name": "Executed Gas",
                                "value": 200708
                            }
                        ],
                        "depth": -1,
                        "name": "Actual Gas Used",
                        "value": 222504
                    },
                    {
                        "children": [],
                        "depth": -1,
                        "name": "Refunded Gas",
                        "value": 0
                    }
                ],
                "depth": -2,
                "name": "Total Gas",
                "value": 222504
            }
        ],
        "isConfirmed": true,
        "mainTrace": [
            {
                "children": [
                    {
                        "children": [
                            {
                                "children": [
                                    {
                                        "children": [],
                                        "depth": 2,
                                        "id": 2,
                                        "order": 2
                                    },
                                    {
                                        "children": [],
                                        "depth": 2,
                                        "id": 3,
                                        "order": 3
                                    }
                                ],
                                "depth": 1,
                                "id": 1,
                                "order": 1
                            },
                            {
                                "children": [],
                                "depth": 1,
                                "id": 4,
                                "order": 4
                            }
                        ],
                        "depth": 0,
                        "id": 0,
                        "order": 0
                    }
                ],
                "depth": -1,
                "id": -1,
                "order": -1
            }
        ],
        "mainTraceNodeCount": 5,
        "parentIdMap": {
            "0": -1,
            "1": 0,
            "2": 1,
            "3": 1,
            "4": 0
        },
        "tidyTrace": [
            {
                "children": [
                    {
                        "children": [
                            {
                                "children": [
                                    {
                                        "children": [],
                                        "depth": 2,
                                        "id": 2,
                                        "order": 2
                                    },
                                    {
                                        "children": [],
                                        "depth": 2,
                                        "id": 3,
                                        "order": 3
                                    }
                                ],
                                "depth": 1,
                                "id": 1,
                                "order": 1
                            },
                            {
                                "children": [],
                                "depth": 1,
                                "id": 4,
                                "order": 4
                            }
                        ],
                        "depth": 0,
                        "id": 0,
                        "order": 0
                    }
                ],
                "depth": -1,
                "id": -1,
                "order": -1
            }
        ],
        "tidyTraceNodeCount": 5
    },
    "state_change": {
        "stateChanges": [
            {
                "address": "0x53fe82a7334c6f3683d5b39f49f0f7be19823a64",
                "erc": "",
                "slots": [
                    {
                        "current": "0x000000000000000000000000af691508ba57d416f895e32a1616da1024e882d2",
                        "key": "0x498a621c3cabe6c9cfb12221317abc2a48c7b6bb763aac9f053bfaba87026625",
                        "prev": "0x0000000000000000000000000000000000000000000000000000000000000000"
                    },
                    {
                        "current": "0x0000000000000000000000000000000000000000000000000000000000000002",
                        "key": "0xe7f32ae2b5d2d1d559b3aeb9b393e58b42ccfb0dfdbc192c1244568cff8d5a8e",
                        "prev": "0x0000000000000000000000000000000000000000000000000000000000000001"
                    },
                    {
                        "current": "0x000000000000000000000000000000000000000000005b6b7ea4160994a08000",
                        "key": "0xf0a9c11bcec6230b87aa862895cef1f5973b0e8ddc342c33bdbeda8587822255",
                        "prev": "0x0000000000000000000000000000000000000000000000000000000000000000"
                    },
                    {
                        "current": "0x0000000000000000000000000000000000000000000000000000000000000101",
                        "key": "0x0c76441da772aa3b49b07d3007c4a8b7645e1d626ac0742d2763c2c53c67c027",
                        "prev": "0x0000000000000000000000000000000000000000000000000000000000000001"
                    },
                    {
                        "current": "0x0000000000000000000000000000000000000000000000000000000000000002",
                        "key": "0xe7f32ae2b5d2d1d559b3aeb9b393e58b42ccfb0dfdbc192c1244568cff8d5a8c",
                        "prev": "0x0000000000000000000000000000000000000000000000000000000000000001"
                    },
                    {
                        "current": "0x0000000000000000000000000000000000000000000000000000000000000002",
                        "key": "0xe7f32ae2b5d2d1d559b3aeb9b393e58b42ccfb0dfdbc192c1244568cff8d5a8a",
                        "prev": "0x0000000000000000000000000000000000000000000000000000000000000001"
                    },
                    {
                        "current": "0x0000000000000000000000000000000000000000000000000000000000000002",
                        "key": "0xe7f32ae2b5d2d1d559b3aeb9b393e58b42ccfb0dfdbc192c1244568cff8d5a8b",
                        "prev": "0x0000000000000000000000000000000000000000000000000000000000000001"
                    },
                    {
                        "current": "0x0000000000000000000000000000000000000000000000000000000000000001",
                        "key": "0xe3e722d0bb52b0d5ec236690a398a03b955a62fc26a6a901073e7b51becb6160",
                        "prev": "0x0000000000000000000000000000000000000000000000000000000000000000"
                    },
                    {
                        "current": "0x0000000000000000000000000000000000000000000000000000000000000002",
                        "key": "0xe7f32ae2b5d2d1d559b3aeb9b393e58b42ccfb0dfdbc192c1244568cff8d5a89",
                        "prev": "0x0000000000000000000000000000000000000000000000000000000000000001"
                    },
                    {
                        "current": "0x0000000000000000000000000000000000000000000000000000000060eb9462",
                        "key": "0xafff18496faca750d5833dd605da6739809145a24cdc203658e9c8b9a801f46e",
                        "prev": "0x0000000000000000000000000000000000000000000000000000000000000000"
                    },
                    {
                        "current": "0x0000000000000000000000000000000000000000000000000000000000000002",
                        "key": "0xe7f32ae2b5d2d1d559b3aeb9b393e58b42ccfb0dfdbc192c1244568cff8d5a8d",
                        "prev": "0x0000000000000000000000000000000000000000000000000000000000000001"
                    },
                    {
                        "current": "0x000000000000000000000000000000000000000000031eecb6b3b82a53a10000",
                        "key": "0x968e1215f8bc58526355fb70e1ca8da9b95b874553b7e84c774dd16903cde16a",
                        "prev": "0x00000000000000000000000000000000000000000002c381380fa220bf008000"
                    },
                    {
                        "current": "0x000000000000000000000000000000000000000000005b6b7ea4160994a08000",
                        "key": "0xa90d3630ee76d832f467994fd9456adb05c578231c244ff99e69ef614abcd4b4",
                        "prev": "0x0000000000000000000000000000000000000000000000000000000000000000"
                    }
                ],
                "storageVariables": [
                    {
                        "name": "userTotalStaking",
                        "type": "mapping(address => mapping(address => uint256))",
                        "value": {
                            "pairs": [
                                {
                                    "key": "0xa93ee2d5ac5b802b9a8dbbc4db2cb3a772e89c7c",
                                    "value": {
                                        "pairs": [
                                            {
                                                "key": "0xaf691508ba57d416f895e32a1616da1024e882d2",
                                                "value": {
                                                    "current": "431718277000000000000000",
                                                    "prev": "0",
                                                    "typeTag": 1
                                                }
                                            }
                                        ],
                                        "typeTag": 4
                                    }
                                }
                            ],
                            "typeTag": 4
                        }
                    },
                    {
                        "name": "stakingDetails",
                        "type": "mapping(address => struct UnifarmV16.stakeInfo)",
                        "value": {
                            "pairs": [
                                {
                                    "key": "0xa93ee2d5ac5b802b9a8dbbc4db2cb3a772e89c7c",
                                    "value": {
                                        "fields": [
                                            {
                                                "name": "isActive",
                                                "type": "bool[]",
                                                "value": {
                                                    "elemType": "bool",
                                                    "elems": [
                                                        {
                                                            "index": 0,
                                                            "value": {
                                                                "current": "true",
                                                                "prev": "true",
                                                                "typeTag": 1
                                                            }
                                                        },
                                                        {
                                                            "index": 1,
                                                            "value": {
                                                                "current": "true",
                                                                "prev": "false",
                                                                "typeTag": 1
                                                            }
                                                        }
                                                    ],
                                                    "typeTag": 2
                                                }
                                            },
                                            {
                                                "name": "tokenAddress",
                                                "type": "address[]",
                                                "value": {
                                                    "elemType": "address",
                                                    "elems": [
                                                        {
                                                            "index": 1,
                                                            "value": {
                                                                "current": "0xaf691508ba57d416f895e32a1616da1024e882d2",
                                                                "prev": "0x0000000000000000000000000000000000000000",
                                                                "typeTag": 1
                                                            }
                                                        }
                                                    ],
                                                    "typeTag": 2
                                                }
                                            },
                                            {
                                                "name": "stakeId",
                                                "type": "uint256[]",
                                                "value": {
                                                    "elemType": "uint256",
                                                    "elems": [
                                                        {
                                                            "index": 1,
                                                            "value": {
                                                                "current": "1",
                                                                "prev": "0",
                                                                "typeTag": 1
                                                            }
                                                        }
                                                    ],
                                                    "typeTag": 2
                                                }
                                            },
                                            {
                                                "name": "stakedAmount",
                                                "type": "uint256[]",
                                                "value": {
                                                    "elemType": "uint256",
                                                    "elems": [
                                                        {
                                                            "index": 1,
                                                            "value": {
                                                                "current": "431718277000000000000000",
                                                                "prev": "0",
                                                                "typeTag": 1
                                                            }
                                                        }
                                                    ],
                                                    "typeTag": 2
                                                }
                                            },
                                            {
                                                "name": "startTime",
                                                "type": "uint256[]",
                                                "value": {
                                                    "elemType": "uint256",
                                                    "elems": [
                                                        {
                                                            "index": 1,
                                                            "value": {
                                                                "current": "1626051682",
                                                                "prev": "0",
                                                                "typeTag": 1
                                                            }
                                                        }
                                                    ],
                                                    "typeTag": 2
                                                }
                                            }
                                        ],
                                        "typeTag": 3
                                    }
                                }
                            ],
                            "typeTag": 4
                        }
                    },
                    {
                        "name": "totalStaking",
                        "type": "mapping(address => uint256)",
                        "value": {
                            "pairs": [
                                {
                                    "key": "0xaf691508ba57d416f895e32a1616da1024e882d2",
                                    "value": {
                                        "current": "3772815050000000000000000",
                                        "prev": "3341096773000000000000000",
                                        "typeTag": 1
                                    }
                                }
                            ],
                            "typeTag": 4
                        }
                    }
                ]
            },
            {
                "address": "0xaf691508ba57d416f895e32a1616da1024e882d2",
                "erc": "ERC-20",
                "slots": [
                    {
                        "current": "0x0000000000000000000000000000000000000000000000000002a28738a01b8e",
                        "key": "0xf199624dccc8be34c2c0030206490c8a1a8ace2525c85a5a066fcde0e57e2cbf",
                        "prev": "0x000000000000000000000000000000000000000000005b6b7ea6b890cd409b8e"
                    },
                    {
                        "current": "0x00000000000000000000000000000000000000000003847e645dbfe5015a2a48",
                        "key": "0x98de6f6c4ab21cdc6b8015888dc10e4feea4ae577c47abfb5aa303882135777e",
                        "prev": "0x000000000000000000000000000000000000000000032912e5b9a9db6cb9aa48"
                    },
                    {
                        "current": "0x000000000000000000000000000000000000000000000a395b81bcf7d75f8000",
                        "key": "0x5a157ede8d5ff195e9449d33af0877d0d486176cd864a9e199d12f7582f9e6be",
                        "prev": "0x0000000000000000000000000000000000000000000065a4da25d3016c000000"
                    }
                ],
                "storageVariables": [
                    {
                        "name": "_balances",
                        "type": "mapping(address => uint256)",
                        "value": {
                            "pairs": [
                                {
                                    "key": "0x53fe82a7334c6f3683d5b39f49f0f7be19823a64",
                                    "value": {
                                        "current": "4252461356483535013816904",
                                        "prev": "3820743079483535013816904",
                                        "typeTag": 1
                                    }
                                },
                                {
                                    "key": "0xa93ee2d5ac5b802b9a8dbbc4db2cb3a772e89c7c",
                                    "value": {
                                        "current": "741651607722894",
                                        "prev": "431718277741651607722894",
                                        "typeTag": 1
                                    }
                                }
                            ],
                            "typeTag": 4
                        }
                    },
                    {
                        "name": "_allowances",
                        "type": "mapping(address => mapping(address => uint256))",
                        "value": {
                            "pairs": [
                                {
                                    "key": "0xa93ee2d5ac5b802b9a8dbbc4db2cb3a772e89c7c",
                                    "value": {
                                        "pairs": [
                                            {
                                                "key": "0x53fe82a7334c6f3683d5b39f49f0f7be19823a64",
                                                "value": {
                                                    "current": "48281723000000000000000",
                                                    "prev": "480000000000000000000000",
                                                    "typeTag": 1
                                                }
                                            }
                                        ],
                                        "typeTag": 4
                                    }
                                }
                            ],
                            "typeTag": 4
                        }
                    }
                ]
            }
        ]
    }
}