{
    "balance_change": {
        "balanceChanges": [
            {
                "account": "0x72e2f4830b9e45d52f80ac08cb2bec0fef72ed9c",
                "assets": [
                    {
                        "address": "0xeeeeeeeeeeeeeeeeeeeeeeeeeeeeeeeeeeeeeeee",
                        "amount": "0.00117222996445301",
                        "iconUrl": "https://assets.blocksec.com/image/1663669189317-3.png",
                        "isERC1155": false,
                        "isERC721": false,
                        "sign": false,
                        "value": "1.956780034305919968"
                    }
                ]
            },
            {
                "account": "0xba344a2dbbba62b29a25579a6d2da3f24c57c6a5",
                "assets": [
                    {
                        "address": "0xeeeeeeeeeeeeeeeeeeeeeeeeeeeeeeeeeeeeeeee",
                        "amount": "0.00117222996445301",
                        "iconUrl": "https://assets.blocksec.com/image/1663669189317-3.png",
                        "isERC1155": false,
                        "isERC721": false,
                        "sign": true,
                        "value": "1.956780034305919968"
                    }
                ]
            }
        ]
    },
    "profile": {
        "basic_info": {
            "baseFee": "12.402111333",
            "blockNumber": 17961948,
            "callData": "0x252f7b0100000000000000000000000000000000000000000000000000000000000000b8000000000000000000000000296f55f8fb28e498b858d0bcda06d955b2cb3f970000000000000000000000000000000000000000000000000000000000043238e1063f66fea8e3e5bb93bd3f5797a5819b4e97e546ef18caae92b35b1c3ab543e1063f66fea8e3e5bb93bd3f5797a5819b4e97e546ef18caae92b35b1c3ab54300000000000000000000000000000000000000000000000000000000000000c0000000000000000000000000000000000000000000000000000000000000027400000000000000000000000038de71124f7a447a01d67945a51edce9ff4912510000000000000d9200b8af54be5b6eec24d6bfacf1cce4eaf680a82393980065296f55f8fb28e498b858d0bcda06d955b2cb3f970000000000000000000000000000000000000000000000000000000000000001000000000000000000000000000000000000000000000000000000000000000d000000000000000000000000000000000000000000000000000000000000000d00000000000000000000000000000000000000000000000000000000000000000000000000000000000000000000000000000000000000003f12bbda619855460000000000000000000000000000000000000000000000047a260c1bfa2ee0bc00000000000000000000000000000000000000000000000000042a230ea05492000000000000000000000000000000000000000000000000000002a94a24c54f00000000000000000000000000000000000000000000000000000000000000000000000000000000000000000000000000000000000000000000000000000000000000000000000000000000000000000000000000000000000000a44416747600000000000000000000000000000000000000000000000000042d709cdb8e5700000000000000000000000000000000000000000000000000000000000001c000000000000000000000000000000000000000000000000000000000000002000000000000000000000000000000000000000000000000000000000000000014ba344a2dbbba62b29a25579a6d2da3f24c57c6a50000000000000000000000000000000000000000000000000000000000000000000000000000000000000000000000000000000000000000",
            "debugEnable": true,
            "errorInfo": "",
            "eventCount": 4,
            "feeRecipient": "0x5124fcc2b3f99f571ad67d075643c743f38f1c34",
            "formatValue": "0",
            "gasLimit": 1308608,
            "gasPrice": "15.165466953",
            "gasUsed": 211475,
            "intTxnCount": 13,
            "internalRevert": false,
            "internalRevertMessage": "",
            "isContractCreation": false,
            "isFlashloan": false,
            "maxFee": "",
            "nonce": 304005,
            "overwritedBlockNumber": -1,
            "priorityFee": "",
            "receiver": "0x902f09715b6303d4173037652fa7377e5b98089e",
            "revertMessage": "",
            "sender": "0xe93685f3bba03016f02bd1828badd6195988d950",
            "simulationEnable": true,
            "sourceTxnHash": "0xa68cefee0c30f11eaa2436713ec157a25b0dad1524a1d7ac52dad61e8abc2a1c",
            "status": true,
            "timestamp": "2023-08-21T08:35:23Z",
            "transactionFee": "0.003207117123885675",
            "txnHash": "0xa68cefee0c30f11eaa2436713ec157a25b0dad1524a1d7ac52dad61e8abc2a1c",
            "txnIndex": 18,
            "type": 0,
            "value": "0"
        },
        "fund_flow": [
            {
                "amount": "0.00117222996445301",
                "from": "0x72e2f4830b9e45d52f80ac08cb2bec0fef72ed9c",
                "id": 1,
                "isERC1155": false,
                "isERC721": false,
                "isReverted": false,
                "order": 1,
                "to": "0xba344a2dbbba62b29a25579a6d2da3f24c57c6a5",
                "token": "0xeeeeeeeeeeeeeeeeeeeeeeeeeeeeeeeeeeeeeeee"
            }
        ],
        "token_infos": [
            {
                "address": "0xc02aaa39b223fe8d0a0e5c4f27ead9083c756cc2",
                "decimals": 18
            },
            {
                "address": "0xeeeeeeeeeeeeeeeeeeeeeeeeeeeeeeeeeeeeeeee",
                "decimals": 18
            }
        ]
    },
    "address_label": {
        "labels": [
            {
                "address": "0x4d73adb72bc3dd368966edd0f0b2148401a178e2",
                "label": "Layer Zero: Ultra Light Node v2"
            },
            {
                "address": "0x8731d54e9d02c286767d56ac03e8037c07e01e98",
                "label": "Stargate Finance: Router"
            },
            {
                "address": "0x66a71dcef29a0ffbdbe3c6a460a3b5bc225cd675",
                "label": "LayerZero: Ethereum Endpoint"
            },
            {
                "address": "0x902f09715b6303d4173037652fa7377e5b98089e",
                "label": "Layer Zero: Relayer V2"
            },
            {
                "address": "0x07245eea05826f5984c7c3c8f478b04892e4df89",
                "label": "FPValidator"
            },
            {
                "address": "0x0000000000000000000000000000000000000001",
                "label": "Precompiled"
            },
            {
                "address": "0x0000000000000000000000000000000000000002",
                "label": "Precompiled"
            },
            {
                "address": "0x0000000000000000000000000000000000000004",
                "label": "Precompiled"
            },
            {
                "address": "0xeeeeeeeeeeeeeeeeeeeeeeeeeeeeeeeeeeeeeeee",
                "label": "Ether"
            },
            {
                "address": "0xe93685f3bba03016f02bd1828badd6195988d950",
                "label": "Layer Zero: Executor"
            },
            {
                "address": "0x06d538690af257da524f25d0cd52fd85b1c2173e",
                "label": "Stargate Finance : Factory"
            },
            {
                "address": "0x296f55f8fb28e498b858d0bcda06d955b2cb3f97",
                "label": "Stargate Finance: Bridge"
            },
            {
                "address": "0x101816545f6bd2b1076434b54383a1e633390a2e",
                "label": "STARGATE: S*SGETH Token"
            },
            {
                "address": "0x0000000000000000000000000000000000000003",
                "label": "Precompiled"
            },
            {
                "address": "0x72e2f4830b9e45d52f80ac08cb2bec0fef72ed9c",
                "label": "Stargate Finance: SGETH Token"
            }
        ]
    },
    "trace": {
        "accountLabels": null,
        "dataMap": {
            "-1": {
                "invocation": {
                    "address": "0xe93685f3bba03016f02bd1828badd6195988d950",
                    "callData": "",
                    "decodedMethod": null,
                    "errorInfo": "",
                    "fromAddress": "",
                    "gasUsed": 0,
                    "id": -1,
                    "methodDecoded": false,
                    "operation": "",
                    "output": "",
                    "revert": false,
                    "revertMessage": "",
                    "selector": "",
                    "status": false,
                    "value": ""
                },
                "nodeType": 0
            },
            "0": {
                "invocation": {
                    "address": "0x902f09715b6303d4173037652fa7377e5b98089e",
                    "callData": "0x00000000000000000000000000000000000000000000000000000000000000b8000000000000000000000000296f55f8fb28e498b858d0bcda06d955b2cb3f970000000000000000000000000000000000000000000000000000000000043238e1063f66fea8e3e5bb93bd3f5797a5819b4e97e546ef18caae92b35b1c3ab543e1063f66fea8e3e5bb93bd3f5797a5819b4e97e546ef18caae92b35b1c3ab54300000000000000000000000000000000000000000000000000000000000000c0000000000000000000000000000000000000000000000000000000000000027400000000000000000000000038de71124f7a447a01d67945a51edce9ff4912510000000000000d9200b8af54be5b6eec24d6bfacf1cce4eaf680a82393980065296f55f8fb28e498b858d0bcda06d955b2cb3f970000000000000000000000000000000000000000000000000000000000000001000000000000000000000000000000000000000000000000000000000000000d000000000000000000000000000000000000000000000000000000000000000d00000000000000000000000000000000000000000000000000000000000000000000000000000000000000000000000000000000000000003f12bbda619855460000000000000000000000000000000000000000000000047a260c1bfa2ee0bc00000000000000000000000000000000000000000000000000042a230ea05492000000000000000000000000000000000000000000000000000002a94a24c54f00000000000000000000000000000000000000000000000000000000000000000000000000000000000000000000000000000000000000000000000000000000000000000000000000000000000000000000000000000000000000a44416747600000000000000000000000000000000000000000000000000042d709cdb8e5700000000000000000000000000000000000000000000000000000000000001c000000000000000000000000000000000000000000000000000000000000002000000000000000000000000000000000000000000000000000000000000000014ba344a2dbbba62b29a25579a6d2da3f24c57c6a50000000000000000000000000000000000000000000000000000000000000000000000000000000000000000000000000000000000000000",
                    "decodedMethod": {
                        "callParams": [
                            {
                                "name": "_srcChainId",
                                "type": "uint16",
                                "value": "184"
                            },
                            {
                                "name": "_dstAddress",
                                "type": "address",
                                "value": "0x296f55f8fb28e498b858d0bcda06d955b2cb3f97"
                            },
                            {
                                "name": "_gasLimit",
                                "type": "uint256",
                                "value": "275,000"
                            },
                            {
                                "name": "_blockHash",
                                "type": "bytes32",
                                "value": "0xe1063f66fea8e3e5bb93bd3f5797a5819b4e97e546ef18caae92b35b1c3ab543"
                            },
                            {
                                "name": "_data",
                                "type": "bytes32",
                                "value": "0xe1063f66fea8e3e5bb93bd3f5797a5819b4e97e546ef18caae92b35b1c3ab543"
                            },
                            {
                                "name": "_transactionProof",
                                "type": "bytes",
                                "value": "0x00000000000000000000000038de71124f7a447a01d67945a51edce9ff4912510000000000000d9200b8af54be5b6eec24d6bfacf1cce4eaf680a82393980065296f55f8fb28e498b858d0bcda06d955b2cb3f970000000000000000000000000000000000000000000000000000000000000001000000000000000000000000000000000000000000000000000000000000000d000000000000000000000000000000000000000000000000000000000000000d00000000000000000000000000000000000000000000000000000000000000000000000000000000000000000000000000000000000000003f12bbda619855460000000000000000000000000000000000000000000000047a260c1bfa2ee0bc00000000000000000000000000000000000000000000000000042a230ea05492000000000000000000000000000000000000000000000000000002a94a24c54f00000000000000000000000000000000000000000000000000000000000000000000000000000000000000000000000000000000000000000000000000000000000000000000000000000000000000000000000000000000000000a44416747600000000000000000000000000000000000000000000000000042d709cdb8e5700000000000000000000000000000000000000000000000000000000000001c000000000000000000000000000000000000000000000000000000000000002000000000000000000000000000000000000000000000000000000000000000014ba344a2dbbba62b29a25579a6d2da3f24c57c6a50000000000000000000000000000000000000000000000000000000000000000000000000000000000000000"
                            }
                        ],
                        "constructorArguments": "",
                        "name": "validateTransactionProofV1",
                        "returnParams": [],
                        "signature": "validateTransactionProofV1(uint16,address,uint256,bytes32,bytes32,bytes)"
                    },
                    "errorInfo": "",
                    "fromAddress": "0xe93685f3bba03016f02bd1828badd6195988d950",
                    "gasUsed": 211475,
                    "id": 0,
                    "methodDecoded": true,
                    "operation": "CALL",
                    "output": "",
                    "revert": false,
                    "revertMessage": "",
                    "selector": "0x252f7b01",
                    "status": true,
                    "value": "0"
                },
                "nodeType": 0
            },
            "1": {
                "invocation": {
                    "address": "0xaf34771b16960ea77484a866a34ccdafdc913d9c",
                    "callData": "0x00000000000000000000000000000000000000000000000000000000000000b8000000000000000000000000296f55f8fb28e498b858d0bcda06d955b2cb3f970000000000000000000000000000000000000000000000000000000000043238e1063f66fea8e3e5bb93bd3f5797a5819b4e97e546ef18caae92b35b1c3ab543e1063f66fea8e3e5bb93bd3f5797a5819b4e97e546ef18caae92b35b1c3ab54300000000000000000000000000000000000000000000000000000000000000c0000000000000000000000000000000000000000000000000000000000000027400000000000000000000000038de71124f7a447a01d67945a51edce9ff4912510000000000000d9200b8af54be5b6eec24d6bfacf1cce4eaf680a82393980065296f55f8fb28e498b858d0bcda06d955b2cb3f970000000000000000000000000000000000000000000000000000000000000001000000000000000000000000000000000000000000000000000000000000000d000000000000000000000000000000000000000000000000000000000000000d00000000000000000000000000000000000000000000000000000000000000000000000000000000000000000000000000000000000000003f12bbda619855460000000000000000000000000000000000000000000000047a260c1bfa2ee0bc00000000000000000000000000000000000000000000000000042a230ea05492000000000000000000000000000000000000000000000000000002a94a24c54f00000000000000000000000000000000000000000000000000000000000000000000000000000000000000000000000000000000000000000000000000000000000000000000000000000000000000000000000000000000000000a44416747600000000000000000000000000000000000000000000000000042d709cdb8e5700000000000000000000000000000000000000000000000000000000000001c000000000000000000000000000000000000000000000000000000000000002000000000000000000000000000000000000000000000000000000000000000014ba344a2dbbba62b29a25579a6d2da3f24c57c6a50000000000000000000000000000000000000000000000000000000000000000000000000000000000000000000000000000000000000000",
                    "decodedMethod": {
                        "callParams": [
                            {
                                "name": "_srcChainId",
                                "type": "uint16",
                                "value": "184"
                            },
                            {
                                "name": "_dstAddress",
                                "type": "address",
                                "value": "0x296f55f8fb28e498b858d0bcda06d955b2cb3f97"
                            },
                            {
                                "name": "_gasLimit",
                                "type": "uint256",
                                "value": "275,000"
                            },
                            {
                                "name": "_blockHash",
                                "type": "bytes32",
                                "value": "0xe1063f66fea8e3e5bb93bd3f5797a5819b4e97e546ef18caae92b35b1c3ab543"
                            },
                            {
                                "name": "_data",
                                "type": "bytes32",
                                "value": "0xe1063f66fea8e3e5bb93bd3f5797a5819b4e97e546ef18caae92b35b1c3ab543"
                            },
                            {
                                "name": "_transactionProof",
                                "type": "bytes",
                                "value": "0x00000000000000000000000038de71124f7a447a01d67945a51edce9ff4912510000000000000d9200b8af54be5b6eec24d6bfacf1cce4eaf680a82393980065296f55f8fb28e498b858d0bcda06d955b2cb3f970000000000000000000000000000000000000000000000000000000000000001000000000000000000000000000000000000000000000000000000000000000d000000000000000000000000000000000000000000000000000000000000000d00000000000000000000000000000000000000000000000000000000000000000000000000000000000000000000000000000000000000003f12bbda619855460000000000000000000000000000000000000000000000047a260c1bfa2ee0bc00000000000000000000000000000000000000000000000000042a230ea05492000000000000000000000000000000000000000000000000000002a94a24c54f00000000000000000000000000000000000000000000000000000000000000000000000000000000000000000000000000000000000000000000000000000000000000000000000000000000000000000000000000000000000000a44416747600000000000000000000000000000000000000000000000000042d709cdb8e5700000000000000000000000000000000000000000000000000000000000001c000000000000000000000000000000000000000000000000000000000000002000000000000000000000000000000000000000000000000000000000000000014ba344a2dbbba62b29a25579a6d2da3f24c57c6a50000000000000000000000000000000000000000000000000000000000000000000000000000000000000000"
                            }
                        ],
                        "constructorArguments": "",
                        "name": "validateTransactionProofV1",
                        "returnParams": [],
                        "signature": "validateTransactionProofV1(uint16,address,uint256,bytes32,bytes32,bytes)"
                    },
                    "errorInfo": "",
                    "fromAddress": "0x902f09715b6303d4173037652fa7377e5b98089e",
                    "gasUsed": 193019,
                    "id": 1,
                    "methodDecoded": true,
                    "operation": "DELEGATECALL",
                    "output": "",
                    "revert": false,
                    "revertMessage": "",
                    "selector": "0x252f7b01",
                    "status": true,
                    "value": "0"
                },
                "nodeType": 0
            },
            "10": {
                "event": {
                    "contract": "0x101816545f6bd2b1076434b54383a1e633390a2e",
                    "decodedLog": {
                        "name": "CreditChainPath",
                        "params": [
                            {
                                "name": "chainId",
                                "type": "uint16",
                                "value": "184"
                            },
                            {
                                "name": "srcPoolId",
                                "type": "uint256",
                                "value": "13"
                            },
                            {
                                "name": "amountSD",
                                "type": "uint256",
                                "value": "4,544,901,520,584,889,670"
                            },
                            {
                                "name": "idealBalance",
                                "type": "uint256",
                                "value": "82,588,712,130,881,446,076"
                            }
                        ],
                        "signature": "CreditChainPath(uint16,uint256,uint256,uint256)"
                    },
                    "id": 10,
                    "logData": "0x00000000000000000000000000000000000000000000000000000000000000b8000000000000000000000000000000000000000000000000000000000000000d0000000000000000000000000000000000000000000000003f12bbda619855460000000000000000000000000000000000000000000000047a260c1bfa2ee0bc",
                    "logDecoded": true,
                    "operation": "EVENT",
                    "revert": false,
                    "status": true,
                    "topics": [
                        "0xdbdd25248751feb2f3b66721dfdd11662a68bc155af3771e661aabec92fba814"
                    ]
                },
                "nodeType": 1
            },
            "11": {
                "invocation": {
                    "address": "0x8731d54e9d02c286767d56ac03e8037c07e01e98",
                    "callData": "0x00000000000000000000000000000000000000000000000000000000000000b800000000000000000000000000000000000000000000000000000000000001c00000000000000000000000000000000000000000000000000000000000000d92000000000000000000000000000000000000000000000000000000000000000d000000000000000000000000000000000000000000000000000000000000000d0000000000000000000000000000000000000000000000000000000000000000000000000000000000000000ba344a2dbbba62b29a25579a6d2da3f24c57c6a500000000000000000000000000000000000000000000000000042a230ea05492000000000000000000000000000000000000000000000000000002a94a24c54f00000000000000000000000000000000000000000000000000000000000000000000000000000000000000000000000000000000000000000000000000000000000000000000000000000000000000000000000000000000000000a44416747600000000000000000000000000000000000000000000000000042d709cdb8e5700000000000000000000000000000000000000000000000000000000000002200000000000000000000000000000000000000000000000000000000000000028af54be5b6eec24d6bfacf1cce4eaf680a8239398296f55f8fb28e498b858d0bcda06d955b2cb3f970000000000000000000000000000000000000000000000000000000000000000000000000000000000000000000000000000000000000000",
                    "decodedMethod": {
                        "callParams": [
                            {
                                "name": "_srcChainId",
                                "type": "uint16",
                                "value": "184"
                            },
                            {
                                "name": "_srcAddress",
                                "type": "bytes",
                                "value": "0xaf54be5b6eec24d6bfacf1cce4eaf680a8239398296f55f8fb28e498b858d0bcda06d955b2cb3f97"
                            },
                            {
                                "name": "_nonce",
                                "type": "uint256",
                                "value": "3,474"
                            },
                            {
                                "name": "_srcPoolId",
                                "type": "uint256",
                                "value": "13"
                            },
                            {
                                "name": "_dstPoolId",
                                "type": "uint256",
                                "value": "13"
                            },
                            {
                                "name": "_dstGasForCall",
                                "type": "uint256",
                                "value": "0"
                            },
                            {
                                "name": "_to",
                                "type": "address",
                                "value": "0xba344a2dbbba62b29a25579a6d2da3f24c57c6a5"
                            },
                            {
                                "name": "_s",
                                "type": "(uint256,uint256,uint256,uint256,uint256,uint256)",
                                "value": [
                                    {
                                        "name": "amount",
                                        "type": "uint256",
                                        "value": "1,172,229,964,453,010"
                                    },
                                    {
                                        "name": "eqFee",
                                        "type": "uint256",
                                        "value": "2,926,116,652,367"
                                    },
                                    {
                                        "name": "eqReward",
                                        "type": "uint256",
                                        "value": "0"
                                    },
                                    {
                                        "name": "lpFee",
                                        "type": "uint256",
                                        "value": "0"
                                    },
                                    {
                                        "name": "protocolFee",
                                        "type": "uint256",
                                        "value": "705,516,958,838"
                                    },
                                    {
                                        "name": "lkbRemove",
                                        "type": "uint256",
                                        "value": "1,175,861,598,064,215"
                                    }
                                ]
                            },
                            {
                                "name": "_payload",
                                "type": "bytes",
                                "value": "0x"
                            }
                        ],
                        "constructorArguments": "",
                        "name": "swapRemote",
                        "returnParams": [],
                        "signature": "swapRemote(uint16,bytes,uint256,uint256,uint256,uint256,address,(uint256,uint256,uint256,uint256,uint256,uint256),bytes)"
                    },
                    "errorInfo": "",
                    "fromAddress": "0x296f55f8fb28e498b858d0bcda06d955b2cb3f97",
                    "gasUsed": 61987,
                    "id": 11,
                    "methodDecoded": true,
                    "operation": "CALL",
                    "output": "",
                    "revert": false,
                    "revertMessage": "",
                    "selector": "0x2f925555",
                    "status": true,
                    "value": "0"
                },
                "nodeType": 0
            },
            "12": {
                "invocation": {
                    "address": "0x06d538690af257da524f25d0cd52fd85b1c2173e",
                    "callData": "0x000000000000000000000000000000000000000000000000000000000000000d",
                    "decodedMethod": {
                        "callParams": [
                            {
                                "name": "",
                                "type": "uint256",
                                "value": "13"
                            }
                        ],
                        "constructorArguments": "",
                        "name": "getPool",
                        "returnParams": [
                            {
                                "name": "",
                                "type": "address",
                                "value": "0x101816545f6bd2b1076434b54383a1e633390a2e"
                            }
                        ],
                        "signature": "getPool(uint256)"
                    },
                    "errorInfo": "",
                    "fromAddress": "0x8731d54e9d02c286767d56ac03e8037c07e01e98",
                    "gasUsed": 514,
                    "id": 12,
                    "methodDecoded": true,
                    "operation": "STATICCALL",
                    "output": "0x000000000000000000000000101816545f6bd2b1076434b54383a1e633390a2e",
                    "revert": false,
                    "revertMessage": "",
                    "selector": "0x068bcd8d",
                    "status": true,
                    "value": "0"
                },
                "nodeType": 0
            },
            "13": {
                "invocation": {
                    "address": "0x101816545f6bd2b1076434b54383a1e633390a2e",
                    "callData": "0x00000000000000000000000000000000000000000000000000000000000000b8000000000000000000000000000000000000000000000000000000000000000d000000000000000000000000ba344a2dbbba62b29a25579a6d2da3f24c57c6a500000000000000000000000000000000000000000000000000042a230ea05492000000000000000000000000000000000000000000000000000002a94a24c54f00000000000000000000000000000000000000000000000000000000000000000000000000000000000000000000000000000000000000000000000000000000000000000000000000000000000000000000000000000000000000a44416747600000000000000000000000000000000000000000000000000042d709cdb8e57",
                    "decodedMethod": {
                        "callParams": [
                            {
                                "name": "_srcChainId",
                                "type": "uint16",
                                "value": "184"
                            },
                            {
                                "name": "_srcPoolId",
                                "type": "uint256",
                                "value": "13"
                            },
                            {
                                "name": "_to",
                                "type": "address",
                                "value": "0xba344a2dbbba62b29a25579a6d2da3f24c57c6a5"
                            },
                            {
                                "name": "_s",
                                "type": "(uint256,uint256,uint256,uint256,uint256,uint256)",
                                "value": [
                                    {
                                        "name": "amount",
                                        "type": "uint256",
                                        "value": "1,172,229,964,453,010"
                                    },
                                    {
                                        "name": "eqFee",
                                        "type": "uint256",
                                        "value": "2,926,116,652,367"
                                    },
                                    {
                                        "name": "eqReward",
                                        "type": "uint256",
                                        "value": "0"
                                    },
                                    {
                                        "name": "lpFee",
                                        "type": "uint256",
                                        "value": "0"
                                    },
                                    {
                                        "name": "protocolFee",
                                        "type": "uint256",
                                        "value": "705,516,958,838"
                                    },
                                    {
                                        "name": "lkbRemove",
                                        "type": "uint256",
                                        "value": "1,175,861,598,064,215"
                                    }
                                ]
                            }
                        ],
                        "constructorArguments": "",
                        "name": "swapRemote",
                        "returnParams": [
                            {
                                "name": "amountLD",
                                "type": "uint256",
                                "value": "1,172,229,964,453,010"
                            }
                        ],
                        "signature": "swapRemote(uint16,uint256,address,(uint256,uint256,uint256,uint256,uint256,uint256))"
                    },
                    "errorInfo": "",
                    "fromAddress": "0x8731d54e9d02c286767d56ac03e8037c07e01e98",
                    "gasUsed": 57854,
                    "id": 13,
                    "methodDecoded": true,
                    "operation": "CALL",
                    "output": "0x00000000000000000000000000000000000000000000000000042a230ea05492",
                    "revert": false,
                    "revertMessage": "",
                    "selector": "0x902b8ab7",
                    "status": true,
                    "value": "0"
                },
                "nodeType": 0
            },
            "14": {
                "invocation": {
                    "address": "0x72e2f4830b9e45d52f80ac08cb2bec0fef72ed9c",
                    "callData": "0x000000000000000000000000ba344a2dbbba62b29a25579a6d2da3f24c57c6a500000000000000000000000000000000000000000000000000042a230ea05492",
                    "decodedMethod": {
                        "callParams": [
                            {
                                "name": "dst",
                                "type": "address",
                                "value": "0xba344a2dbbba62b29a25579a6d2da3f24c57c6a5"
                            },
                            {
                                "decimalAvailable": true,
                                "name": "wad",
                                "type": "uint256",
                                "value": "1,172,229,964,453,010"
                            }
                        ],
                        "constructorArguments": "",
                        "name": "transfer",
                        "returnParams": [
                            {
                                "name": "",
                                "type": "bool",
                                "value": true
                            }
                        ],
                        "signature": "transfer(address,uint256)"
                    },
                    "errorInfo": "",
                    "fromAddress": "0x101816545f6bd2b1076434b54383a1e633390a2e",
                    "gasUsed": 29460,
                    "id": 14,
                    "methodDecoded": true,
                    "operation": "CALL",
                    "output": "0x0000000000000000000000000000000000000000000000000000000000000001",
                    "revert": false,
                    "revertMessage": "",
                    "selector": "0xa9059cbb",
                    "status": true,
                    "value": "0"
                },
                "nodeType": 0
            },
            "15": {
                "invocation": {
                    "address": "0xba344a2dbbba62b29a25579a6d2da3f24c57c6a5",
                    "callData": "0x",
                    "decodedMethod": null,
                    "errorInfo": "",
                    "fromAddress": "0x72e2f4830b9e45d52f80ac08cb2bec0fef72ed9c",
                    "gasUsed": 0,
                    "id": 15,
                    "methodDecoded": false,
                    "operation": "CALL",
                    "output": "",
                    "revert": false,
                    "revertMessage": "",
                    "selector": "fallback",
                    "status": true,
                    "value": "0.00117222996445301"
                },
                "nodeType": 0
            },
            "16": {
                "event": {
                    "contract": "0x72e2f4830b9e45d52f80ac08cb2bec0fef72ed9c",
                    "decodedLog": {
                        "name": "TransferNative",
                        "params": [
                            {
                                "name": "src",
                                "type": "address",
                                "value": "0x101816545f6bd2b1076434b54383a1e633390a2e"
                            },
                            {
                                "name": "dst",
                                "type": "address",
                                "value": "0xba344a2dbbba62b29a25579a6d2da3f24c57c6a5"
                            },
                            {
                                "name": "wad",
                                "type": "uint256",
                                "value": "1,172,229,964,453,010"
                            }
                        ],
                        "signature": "TransferNative(address,address,uint256)"
                    },
                    "id": 16,
                    "logData": "0x00000000000000000000000000000000000000000000000000042a230ea05492",
                    "logDecoded": true,
                    "operation": "EVENT",
                    "revert": false,
                    "status": true,
                    "topics": [
                        "0xb4a87134099d10c48345145381989042ab07dc53e6e62a6511fca55438562e26",
                        "0x000000000000000000000000101816545f6bd2b1076434b54383a1e633390a2e",
                        "0x000000000000000000000000ba344a2dbbba62b29a25579a6d2da3f24c57c6a5"
                    ]
                },
                "nodeType": 1
            },
            "17": {
                "event": {
                    "contract": "0x101816545f6bd2b1076434b54383a1e633390a2e",
                    "decodedLog": {
                        "name": "SwapRemote",
                        "params": [
                            {
                                "name": "to",
                                "type": "address",
                                "value": "0xba344a2dbbba62b29a25579a6d2da3f24c57c6a5"
                            },
                            {
                                "name": "amountSD",
                                "type": "uint256",
                                "value": "1,172,229,964,453,010"
                            },
                            {
                                "name": "protocolFee",
                                "type": "uint256",
                                "value": "705,516,958,838"
                            },
                            {
                                "name": "dstFee",
                                "type": "uint256",
                                "value": "2,926,116,652,367"
                            }
                        ],
                        "signature": "SwapRemote(address,uint256,uint256,uint256)"
                    },
                    "id": 17,
                    "logData": "0x000000000000000000000000ba344a2dbbba62b29a25579a6d2da3f24c57c6a500000000000000000000000000000000000000000000000000042a230ea05492000000000000000000000000000000000000000000000000000000a444167476000000000000000000000000000000000000000000000000000002a94a24c54f",
                    "logDecoded": true,
                    "operation": "EVENT",
                    "revert": false,
                    "status": true,
                    "topics": [
                        "0xfb2b592367452f1c437675bed47f5e1e6c25188c17d7ba01a12eb030bc41ccef"
                    ]
                },
                "nodeType": 1
            },
            "2": {
                "invocation": {
                    "address": "0x4d73adb72bc3dd368966edd0f0b2148401a178e2",
                    "callData": "0x00000000000000000000000000000000000000000000000000000000000000b8000000000000000000000000296f55f8fb28e498b858d0bcda06d955b2cb3f970000000000000000000000000000000000000000000000000000000000043238e1063f66fea8e3e5bb93bd3f5797a5819b4e97e546ef18caae92b35b1c3ab543e1063f66fea8e3e5bb93bd3f5797a5819b4e97e546ef18caae92b35b1c3ab54300000000000000000000000000000000000000000000000000000000000000c0000000000000000000000000000000000000000000000000000000000000027400000000000000000000000038de71124f7a447a01d67945a51edce9ff4912510000000000000d9200b8af54be5b6eec24d6bfacf1cce4eaf680a82393980065296f55f8fb28e498b858d0bcda06d955b2cb3f970000000000000000000000000000000000000000000000000000000000000001000000000000000000000000000000000000000000000000000000000000000d000000000000000000000000000000000000000000000000000000000000000d00000000000000000000000000000000000000000000000000000000000000000000000000000000000000000000000000000000000000003f12bbda619855460000000000000000000000000000000000000000000000047a260c1bfa2ee0bc00000000000000000000000000000000000000000000000000042a230ea05492000000000000000000000000000000000000000000000000000002a94a24c54f00000000000000000000000000000000000000000000000000000000000000000000000000000000000000000000000000000000000000000000000000000000000000000000000000000000000000000000000000000000000000a44416747600000000000000000000000000000000000000000000000000042d709cdb8e5700000000000000000000000000000000000000000000000000000000000001c000000000000000000000000000000000000000000000000000000000000002000000000000000000000000000000000000000000000000000000000000000014ba344a2dbbba62b29a25579a6d2da3f24c57c6a50000000000000000000000000000000000000000000000000000000000000000000000000000000000000000000000000000000000000000",
                    "decodedMethod": {
                        "callParams": [
                            {
                                "name": "_srcChainId",
                                "type": "uint16",
                                "value": "184"
                            },
                            {
                                "name": "_dstAddress",
                                "type": "address",
                                "value": "0x296f55f8fb28e498b858d0bcda06d955b2cb3f97"
                            },
                            {
                                "name": "_gasLimit",
                                "type": "uint256",
                                "value": "275,000"
                            },
                            {
                                "name": "_lookupHash",
                                "type": "bytes32",
                                "value": "0xe1063f66fea8e3e5bb93bd3f5797a5819b4e97e546ef18caae92b35b1c3ab543"
                            },
                            {
                                "name": "_blockData",
                                "type": "bytes32",
                                "value": "0xe1063f66fea8e3e5bb93bd3f5797a5819b4e97e546ef18caae92b35b1c3ab543"
                            },
                            {
                                "name": "_transactionProof",
                                "type": "bytes",
                                "value": "0x00000000000000000000000038de71124f7a447a01d67945a51edce9ff4912510000000000000d9200b8af54be5b6eec24d6bfacf1cce4eaf680a82393980065296f55f8fb28e498b858d0bcda06d955b2cb3f970000000000000000000000000000000000000000000000000000000000000001000000000000000000000000000000000000000000000000000000000000000d000000000000000000000000000000000000000000000000000000000000000d00000000000000000000000000000000000000000000000000000000000000000000000000000000000000000000000000000000000000003f12bbda619855460000000000000000000000000000000000000000000000047a260c1bfa2ee0bc00000000000000000000000000000000000000000000000000042a230ea05492000000000000000000000000000000000000000000000000000002a94a24c54f00000000000000000000000000000000000000000000000000000000000000000000000000000000000000000000000000000000000000000000000000000000000000000000000000000000000000000000000000000000000000a44416747600000000000000000000000000000000000000000000000000042d709cdb8e5700000000000000000000000000000000000000000000000000000000000001c000000000000000000000000000000000000000000000000000000000000002000000000000000000000000000000000000000000000000000000000000000014ba344a2dbbba62b29a25579a6d2da3f24c57c6a50000000000000000000000000000000000000000000000000000000000000000000000000000000000000000"
                            }
                        ],
                        "constructorArguments": "",
                        "name": "validateTransactionProof",
                        "returnParams": [],
                        "signature": "validateTransactionProof(uint16,address,uint256,bytes32,bytes32,bytes)"
                    },
                    "errorInfo": "",
                    "fromAddress": "0x902f09715b6303d4173037652fa7377e5b98089e",
                    "gasUsed": 177294,
                    "id": 2,
                    "methodDecoded": true,
                    "operation": "CALL",
                    "output": "",
                    "revert": false,
                    "revertMessage": "",
                    "selector": "0x987fa2d5",
                    "status": true,
                    "value": "0"
                },
                "nodeType": 0
            },
            "3": {
                "invocation": {
                    "address": "0x07245eea05826f5984c7c3c8f478b04892e4df89",
                    "callData": "0xe1063f66fea8e3e5bb93bd3f5797a5819b4e97e546ef18caae92b35b1c3ab54300000000000000000000000000000000000000000000000000000000000000600000000000000000000000000000000000000000000000000000000000000014000000000000000000000000000000000000000000000000000000000000027400000000000000000000000038de71124f7a447a01d67945a51edce9ff4912510000000000000d9200b8af54be5b6eec24d6bfacf1cce4eaf680a82393980065296f55f8fb28e498b858d0bcda06d955b2cb3f970000000000000000000000000000000000000000000000000000000000000001000000000000000000000000000000000000000000000000000000000000000d000000000000000000000000000000000000000000000000000000000000000d00000000000000000000000000000000000000000000000000000000000000000000000000000000000000000000000000000000000000003f12bbda619855460000000000000000000000000000000000000000000000047a260c1bfa2ee0bc00000000000000000000000000000000000000000000000000042a230ea05492000000000000000000000000000000000000000000000000000002a94a24c54f00000000000000000000000000000000000000000000000000000000000000000000000000000000000000000000000000000000000000000000000000000000000000000000000000000000000000000000000000000000000000a44416747600000000000000000000000000000000000000000000000000042d709cdb8e5700000000000000000000000000000000000000000000000000000000000001c000000000000000000000000000000000000000000000000000000000000002000000000000000000000000000000000000000000000000000000000000000014ba344a2dbbba62b29a25579a6d2da3f24c57c6a50000000000000000000000000000000000000000000000000000000000000000000000000000000000000000000000000000000000000000",
                    "decodedMethod": {
                        "callParams": [
                            {
                                "name": "_packetHash",
                                "type": "bytes32",
                                "value": "0xe1063f66fea8e3e5bb93bd3f5797a5819b4e97e546ef18caae92b35b1c3ab543"
                            },
                            {
                                "name": "_transactionProof",
                                "type": "bytes",
                                "value": "0x00000000000000000000000038de71124f7a447a01d67945a51edce9ff4912510000000000000d9200b8af54be5b6eec24d6bfacf1cce4eaf680a82393980065296f55f8fb28e498b858d0bcda06d955b2cb3f970000000000000000000000000000000000000000000000000000000000000001000000000000000000000000000000000000000000000000000000000000000d000000000000000000000000000000000000000000000000000000000000000d00000000000000000000000000000000000000000000000000000000000000000000000000000000000000000000000000000000000000003f12bbda619855460000000000000000000000000000000000000000000000047a260c1bfa2ee0bc00000000000000000000000000000000000000000000000000042a230ea05492000000000000000000000000000000000000000000000000000002a94a24c54f00000000000000000000000000000000000000000000000000000000000000000000000000000000000000000000000000000000000000000000000000000000000000000000000000000000000000000000000000000000000000a44416747600000000000000000000000000000000000000000000000000042d709cdb8e5700000000000000000000000000000000000000000000000000000000000001c000000000000000000000000000000000000000000000000000000000000002000000000000000000000000000000000000000000000000000000000000000014ba344a2dbbba62b29a25579a6d2da3f24c57c6a50000000000000000000000000000000000000000000000000000000000000000000000000000000000000000"
                            },
                            {
                                "name": "_remoteAddressSize",
                                "type": "uint256",
                                "value": "20"
                            }
                        ],
                        "constructorArguments": "",
                        "name": "validateProof",
                        "returnParams": [
                            {
                                "name": "packet",
                                "type": "(uint16,uint16,uint64,address,bytes,bytes32,bytes)",
                                "value": [
                                    {
                                        "name": "srcChainId",
                                        "type": "uint16",
                                        "value": "184"
                                    },
                                    {
                                        "name": "dstChainId",
                                        "type": "uint16",
                                        "value": "101"
                                    },
                                    {
                                        "name": "nonce",
                                        "type": "uint64",
                                        "value": "3,474"
                                    },
                                    {
                                        "name": "dstAddress",
                                        "type": "address",
                                        "value": "0x296f55f8fb28e498b858d0bcda06d955b2cb3f97"
                                    },
                                    {
                                        "name": "srcAddress",
                                        "type": "bytes",
                                        "value": "0xaf54be5b6eec24d6bfacf1cce4eaf680a8239398"
                                    },
                                    {
                                        "name": "ulnAddress",
                                        "type": "bytes32",
                                        "value": "0x00000000000000000000000038de71124f7a447a01d67945a51edce9ff491251"
                                    },
                                    {
                                        "name": "payload",
                                        "type": "bytes",
                                        "value": "0x0000000000000000000000000000000000000000000000000000000000000001000000000000000000000000000000000000000000000000000000000000000d000000000000000000000000000000000000000000000000000000000000000d00000000000000000000000000000000000000000000000000000000000000000000000000000000000000000000000000000000000000003f12bbda619855460000000000000000000000000000000000000000000000047a260c1bfa2ee0bc00000000000000000000000000000000000000000000000000042a230ea05492000000000000000000000000000000000000000000000000000002a94a24c54f00000000000000000000000000000000000000000000000000000000000000000000000000000000000000000000000000000000000000000000000000000000000000000000000000000000000000000000000000000000000000a44416747600000000000000000000000000000000000000000000000000042d709cdb8e5700000000000000000000000000000000000000000000000000000000000001c000000000000000000000000000000000000000000000000000000000000002000000000000000000000000000000000000000000000000000000000000000014ba344a2dbbba62b29a25579a6d2da3f24c57c6a50000000000000000000000000000000000000000000000000000000000000000000000000000000000000000"
                                    }
                                ]
                            }
                        ],
                        "signature": "validateProof(bytes32,bytes,uint256)"
                    },
                    "errorInfo": "",
                    "fromAddress": "0x4d73adb72bc3dd368966edd0f0b2148401a178e2",
                    "gasUsed": 9598,
                    "id": 3,
                    "methodDecoded": true,
                    "operation": "CALL",
                    "output": "0x000000000000000000000000000000000000000000000000000000000000002000000000000000000000000000000000000000000000000000000000000000b800000000000000000000000000000000000000000000000000000000000000650000000000000000000000000000000000000000000000000000000000000d92000000000000000000000000296f55f8fb28e498b858d0bcda06d955b2cb3f9700000000000000000000000000000000000000000000000000000000000000e000000000000000000000000038de71124f7a447a01d67945a51edce9ff49125100000000000000000000000000000000000000000000000000000000000001200000000000000000000000000000000000000000000000000000000000000014af54be5b6eec24d6bfacf1cce4eaf680a823939800000000000000000000000000000000000000000000000000000000000000000000000000000000000002200000000000000000000000000000000000000000000000000000000000000001000000000000000000000000000000000000000000000000000000000000000d000000000000000000000000000000000000000000000000000000000000000d00000000000000000000000000000000000000000000000000000000000000000000000000000000000000000000000000000000000000003f12bbda619855460000000000000000000000000000000000000000000000047a260c1bfa2ee0bc00000000000000000000000000000000000000000000000000042a230ea05492000000000000000000000000000000000000000000000000000002a94a24c54f00000000000000000000000000000000000000000000000000000000000000000000000000000000000000000000000000000000000000000000000000000000000000000000000000000000000000000000000000000000000000a44416747600000000000000000000000000000000000000000000000000042d709cdb8e5700000000000000000000000000000000000000000000000000000000000001c000000000000000000000000000000000000000000000000000000000000002000000000000000000000000000000000000000000000000000000000000000014ba344a2dbbba62b29a25579a6d2da3f24c57c6a50000000000000000000000000000000000000000000000000000000000000000000000000000000000000000",
                    "revert": false,
                    "revertMessage": "",
                    "selector": "0xb71e0f71",
                    "status": true,
                    "value": "0"
                },
                "nodeType": 0
            },
            "4": {
                "event": {
                    "contract": "0x4d73adb72bc3dd368966edd0f0b2148401a178e2",
                    "decodedLog": {
                        "name": "PacketReceived",
                        "params": [
                            {
                                "name": "srcChainId",
                                "type": "uint16",
                                "value": "184"
                            },
                            {
                                "name": "dstAddress",
                                "type": "address",
                                "value": "0x296f55f8fb28e498b858d0bcda06d955b2cb3f97"
                            },
                            {
                                "name": "srcAddress",
                                "type": "bytes",
                                "value": "0xaf54be5b6eec24d6bfacf1cce4eaf680a8239398"
                            },
                            {
                                "name": "nonce",
                                "type": "uint64",
                                "value": "3,474"
                            },
                            {
                                "name": "payloadHash",
                                "type": "bytes32",
                                "value": "0x4c092a9f0f09aaafae1f89174c39cc5ff679c8a50d29d25f4488fd939aef0806"
                            }
                        ],
                        "signature": "PacketReceived(uint16,bytes,address,uint64,bytes32)"
                    },
                    "id": 4,
                    "logData": "0x00000000000000000000000000000000000000000000000000000000000000600000000000000000000000000000000000000000000000000000000000000d924c092a9f0f09aaafae1f89174c39cc5ff679c8a50d29d25f4488fd939aef08060000000000000000000000000000000000000000000000000000000000000014af54be5b6eec24d6bfacf1cce4eaf680a8239398000000000000000000000000",
                    "logDecoded": true,
                    "operation": "EVENT",
                    "revert": false,
                    "status": true,
                    "topics": [
                        "0x2bd2d8a84b748439fd50d79a49502b4eb5faa25b864da6a9ab5c150704be9a4d",
                        "0x00000000000000000000000000000000000000000000000000000000000000b8",
                        "0x000000000000000000000000296f55f8fb28e498b858d0bcda06d955b2cb3f97"
                    ]
                },
                "nodeType": 1
            },
            "5": {
                "invocation": {
                    "address": "0x66a71dcef29a0ffbdbe3c6a460a3b5bc225cd675",
                    "callData": "0x00000000000000000000000000000000000000000000000000000000000000b800000000000000000000000000000000000000000000000000000000000000c0000000000000000000000000296f55f8fb28e498b858d0bcda06d955b2cb3f970000000000000000000000000000000000000000000000000000000000000d92000000000000000000000000000000000000000000000000000000000004323800000000000000000000000000000000000000000000000000000000000001200000000000000000000000000000000000000000000000000000000000000028af54be5b6eec24d6bfacf1cce4eaf680a8239398296f55f8fb28e498b858d0bcda06d955b2cb3f9700000000000000000000000000000000000000000000000000000000000000000000000000000000000000000000000000000000000002200000000000000000000000000000000000000000000000000000000000000001000000000000000000000000000000000000000000000000000000000000000d000000000000000000000000000000000000000000000000000000000000000d00000000000000000000000000000000000000000000000000000000000000000000000000000000000000000000000000000000000000003f12bbda619855460000000000000000000000000000000000000000000000047a260c1bfa2ee0bc00000000000000000000000000000000000000000000000000042a230ea05492000000000000000000000000000000000000000000000000000002a94a24c54f00000000000000000000000000000000000000000000000000000000000000000000000000000000000000000000000000000000000000000000000000000000000000000000000000000000000000000000000000000000000000a44416747600000000000000000000000000000000000000000000000000042d709cdb8e5700000000000000000000000000000000000000000000000000000000000001c000000000000000000000000000000000000000000000000000000000000002000000000000000000000000000000000000000000000000000000000000000014ba344a2dbbba62b29a25579a6d2da3f24c57c6a50000000000000000000000000000000000000000000000000000000000000000000000000000000000000000",
                    "decodedMethod": {
                        "callParams": [
                            {
                                "name": "_srcChainId",
                                "type": "uint16",
                                "value": "184"
                            },
                            {
                                "name": "_srcAddress",
                                "type": "bytes",
                                "value": "0xaf54be5b6eec24d6bfacf1cce4eaf680a8239398296f55f8fb28e498b858d0bcda06d955b2cb3f97"
                            },
                            {
                                "name": "_dstAddress",
                                "type": "address",
                                "value": "0x296f55f8fb28e498b858d0bcda06d955b2cb3f97"
                            },
                            {
                                "name": "_nonce",
                                "type": "uint64",
                                "value": "3,474"
                            },
                            {
                                "name": "_gasLimit",
                                "type": "uint256",
                                "value": "275,000"
                            },
                            {
                                "name": "_payload",
                                "type": "bytes",
                                "value": "0x0000000000000000000000000000000000000000000000000000000000000001000000000000000000000000000000000000000000000000000000000000000d000000000000000000000000000000000000000000000000000000000000000d00000000000000000000000000000000000000000000000000000000000000000000000000000000000000000000000000000000000000003f12bbda619855460000000000000000000000000000000000000000000000047a260c1bfa2ee0bc00000000000000000000000000000000000000000000000000042a230ea05492000000000000000000000000000000000000000000000000000002a94a24c54f00000000000000000000000000000000000000000000000000000000000000000000000000000000000000000000000000000000000000000000000000000000000000000000000000000000000000000000000000000000000000a44416747600000000000000000000000000000000000000000000000000042d709cdb8e5700000000000000000000000000000000000000000000000000000000000001c000000000000000000000000000000000000000000000000000000000000002000000000000000000000000000000000000000000000000000000000000000014ba344a2dbbba62b29a25579a6d2da3f24c57c6a50000000000000000000000000000000000000000000000000000000000000000000000000000000000000000"
                            }
                        ],
                        "constructorArguments": "",
                        "name": "receivePayload",
                        "returnParams": [],
                        "signature": "receivePayload(uint16,bytes,address,uint64,uint256,bytes)"
                    },
                    "errorInfo": "",
                    "fromAddress": "0x4d73adb72bc3dd368966edd0f0b2148401a178e2",
                    "gasUsed": 129958,
                    "id": 5,
                    "methodDecoded": true,
                    "operation": "CALL",
                    "output": "",
                    "revert": false,
                    "revertMessage": "",
                    "selector": "0xc2fa4813",
                    "status": true,
                    "value": "0"
                },
                "nodeType": 0
            },
            "6": {
                "invocation": {
                    "address": "0x296f55f8fb28e498b858d0bcda06d955b2cb3f97",
                    "callData": "0x00000000000000000000000000000000000000000000000000000000000000b800000000000000000000000000000000000000000000000000000000000000800000000000000000000000000000000000000000000000000000000000000d9200000000000000000000000000000000000000000000000000000000000000e00000000000000000000000000000000000000000000000000000000000000028af54be5b6eec24d6bfacf1cce4eaf680a8239398296f55f8fb28e498b858d0bcda06d955b2cb3f9700000000000000000000000000000000000000000000000000000000000000000000000000000000000000000000000000000000000002200000000000000000000000000000000000000000000000000000000000000001000000000000000000000000000000000000000000000000000000000000000d000000000000000000000000000000000000000000000000000000000000000d00000000000000000000000000000000000000000000000000000000000000000000000000000000000000000000000000000000000000003f12bbda619855460000000000000000000000000000000000000000000000047a260c1bfa2ee0bc00000000000000000000000000000000000000000000000000042a230ea05492000000000000000000000000000000000000000000000000000002a94a24c54f00000000000000000000000000000000000000000000000000000000000000000000000000000000000000000000000000000000000000000000000000000000000000000000000000000000000000000000000000000000000000a44416747600000000000000000000000000000000000000000000000000042d709cdb8e5700000000000000000000000000000000000000000000000000000000000001c000000000000000000000000000000000000000000000000000000000000002000000000000000000000000000000000000000000000000000000000000000014ba344a2dbbba62b29a25579a6d2da3f24c57c6a50000000000000000000000000000000000000000000000000000000000000000000000000000000000000000",
                    "decodedMethod": {
                        "callParams": [
                            {
                                "name": "_srcChainId",
                                "type": "uint16",
                                "value": "184"
                            },
                            {
                                "name": "_srcAddress",
                                "type": "bytes",
                                "value": "0xaf54be5b6eec24d6bfacf1cce4eaf680a8239398296f55f8fb28e498b858d0bcda06d955b2cb3f97"
                            },
                            {
                                "name": "_nonce",
                                "type": "uint64",
                                "value": "3,474"
                            },
                            {
                                "name": "_payload",
                                "type": "bytes",
                                "value": "0x0000000000000000000000000000000000000000000000000000000000000001000000000000000000000000000000000000000000000000000000000000000d000000000000000000000000000000000000000000000000000000000000000d00000000000000000000000000000000000000000000000000000000000000000000000000000000000000000000000000000000000000003f12bbda619855460000000000000000000000000000000000000000000000047a260c1bfa2ee0bc00000000000000000000000000000000000000000000000000042a230ea05492000000000000000000000000000000000000000000000000000002a94a24c54f00000000000000000000000000000000000000000000000000000000000000000000000000000000000000000000000000000000000000000000000000000000000000000000000000000000000000000000000000000000000000a44416747600000000000000000000000000000000000000000000000000042d709cdb8e5700000000000000000000000000000000000000000000000000000000000001c000000000000000000000000000000000000000000000000000000000000002000000000000000000000000000000000000000000000000000000000000000014ba344a2dbbba62b29a25579a6d2da3f24c57c6a50000000000000000000000000000000000000000000000000000000000000000000000000000000000000000"
                            }
                        ],
                        "constructorArguments": "",
                        "name": "lzReceive",
                        "returnParams": [],
                        "signature": "lzReceive(uint16,bytes,uint64,bytes)"
                    },
                    "errorInfo": "",
                    "fromAddress": "0x66a71dcef29a0ffbdbe3c6a460a3b5bc225cd675",
                    "gasUsed": 113043,
                    "id": 6,
                    "methodDecoded": true,
                    "operation": "CALL",
                    "output": "",
                    "revert": false,
                    "revertMessage": "",
                    "selector": "0x001d3567",
                    "status": true,
                    "value": "0"
                },
                "nodeType": 0
            },
            "7": {
                "invocation": {
                    "address": "0x8731d54e9d02c286767d56ac03e8037c07e01e98",
                    "callData": "0x00000000000000000000000000000000000000000000000000000000000000b8000000000000000000000000000000000000000000000000000000000000000d000000000000000000000000000000000000000000000000000000000000000d0000000000000000000000000000000000000000000000003f12bbda619855460000000000000000000000000000000000000000000000047a260c1bfa2ee0bc",
                    "decodedMethod": {
                        "callParams": [
                            {
                                "name": "_dstChainId",
                                "type": "uint16",
                                "value": "184"
                            },
                            {
                                "name": "_dstPoolId",
                                "type": "uint256",
                                "value": "13"
                            },
                            {
                                "name": "_srcPoolId",
                                "type": "uint256",
                                "value": "13"
                            },
                            {
                                "name": "_c",
                                "type": "(uint256,uint256)",
                                "value": [
                                    {
                                        "name": "credits",
                                        "type": "uint256",
                                        "value": "4,544,901,520,584,889,670"
                                    },
                                    {
                                        "name": "idealBalance",
                                        "type": "uint256",
                                        "value": "82,588,712,130,881,446,076"
                                    }
                                ]
                            }
                        ],
                        "constructorArguments": "",
                        "name": "creditChainPath",
                        "returnParams": [],
                        "signature": "creditChainPath(uint16,uint256,uint256,(uint256,uint256))"
                    },
                    "errorInfo": "",
                    "fromAddress": "0x296f55f8fb28e498b858d0bcda06d955b2cb3f97",
                    "gasUsed": 35980,
                    "id": 7,
                    "methodDecoded": true,
                    "operation": "CALL",
                    "output": "",
                    "revert": false,
                    "revertMessage": "",
                    "selector": "0xa18fa804",
                    "status": true,
                    "value": "0"
                },
                "nodeType": 0
            },
            "8": {
                "invocation": {
                    "address": "0x06d538690af257da524f25d0cd52fd85b1c2173e",
                    "callData": "0x000000000000000000000000000000000000000000000000000000000000000d",
                    "decodedMethod": {
                        "callParams": [
                            {
                                "name": "",
                                "type": "uint256",
                                "value": "13"
                            }
                        ],
                        "constructorArguments": "",
                        "name": "getPool",
                        "returnParams": [
                            {
                                "name": "",
                                "type": "address",
                                "value": "0x101816545f6bd2b1076434b54383a1e633390a2e"
                            }
                        ],
                        "signature": "getPool(uint256)"
                    },
                    "errorInfo": "",
                    "fromAddress": "0x8731d54e9d02c286767d56ac03e8037c07e01e98",
                    "gasUsed": 2514,
                    "id": 8,
                    "methodDecoded": true,
                    "operation": "STATICCALL",
                    "output": "0x000000000000000000000000101816545f6bd2b1076434b54383a1e633390a2e",
                    "revert": false,
                    "revertMessage": "",
                    "selector": "0x068bcd8d",
                    "status": true,
                    "value": "0"
                },
                "nodeType": 0
            },
            "9": {
                "invocation": {
                    "address": "0x101816545f6bd2b1076434b54383a1e633390a2e",
                    "callData": "0x00000000000000000000000000000000000000000000000000000000000000b8000000000000000000000000000000000000000000000000000000000000000d0000000000000000000000000000000000000000000000003f12bbda619855460000000000000000000000000000000000000000000000047a260c1bfa2ee0bc",
                    "decodedMethod": {
                        "callParams": [
                            {
                                "name": "_dstChainId",
                                "type": "uint16",
                                "value": "184"
                            },
                            {
                                "name": "_dstPoolId",
                                "type": "uint256",
                                "value": "13"
                            },
                            {
                                "name": "_c",
                                "type": "(uint256,uint256)",
                                "value": [
                                    {
                                        "name": "credits",
                                        "type": "uint256",
                                        "value": "4,544,901,520,584,889,670"
                                    },
                                    {
                                        "name": "idealBalance",
                                        "type": "uint256",
                                        "value": "82,588,712,130,881,446,076"
                                    }
                                ]
                            }
                        ],
                        "constructorArguments": "",
                        "name": "creditChainPath",
                        "returnParams": [],
                        "signature": "creditChainPath(uint16,uint256,(uint256,uint256))"
                    },
                    "errorInfo": "",
                    "fromAddress": "0x8731d54e9d02c286767d56ac03e8037c07e01e98",
                    "gasUsed": 22385,
                    "id": 9,
                    "methodDecoded": true,
                    "operation": "CALL",
                    "output": "",
                    "revert": false,
                    "revertMessage": "",
                    "selector": "0xb6addec7",
                    "status": true,
                    "value": "0"
                },
                "nodeType": 0
            }
        },
        "gasFlame": [
            {
                "children": [
                    {
                        "children": [
                            {
                                "children": [],
                                "depth": 0,
                                "name": "Initial Gas",
                                "value": 27208
                            },
                            {
                                "children": [
                                    {
                                        "children": [
                                            {
                                                "children": [
                                                    {
                                                        "children": [],
                                                        "depth": 3,
                                                        "name": "validateProof",
                                                        "value": 9598
                                                    },
                                                    {
                                                        "children": [
                                                            {
                                                                "children": [
                                                                    {
                                                                        "children": [
                                                                            {
                                                                                "children": [],
                                                                                "depth": 6,
                                                                                "name": "getPool",
                                                                                "value": 2514
                                                                            },
                                                                            {
                                                                                "children": [],
                                                                                "depth": 6,
                                                                                "name": "creditChainPath",
                                                                                "value": 22385
                                                                            }
                                                                        ],
                                                                        "depth": 5,
                                                                        "name": "creditChainPath",
                                                                        "value": 35980
                                                                    },
                                                                    {
                                                                        "children": [
                                                                            {
                                                                                "children": [],
                                                                                "depth": 6,
                                                                                "name": "getPool",
                                                                                "value": 514
                                                                            },
                                                                            {
                                                                                "children": [
                                                                                    {
                                                                                        "children": [
                                                                                            {
                                                                                                "children": [],
                                                                                                "depth": 8,
                                                                                                "name": "fallback",
                                                                                                "value": 0
                                                                                            }
                                                                                        ],
                                                                                        "depth": 7,
                                                                                        "name": "transfer",
                                                                                        "value": 29460
                                                                                    }
                                                                                ],
                                                                                "depth": 6,
                                                                                "name": "swapRemote",
                                                                                "value": 57854
                                                                            }
                                                                        ],
                                                                        "depth": 5,
                                                                        "name": "swapRemote",
                                                                        "value": 61987
                                                                    }
                                                                ],
                                                                "depth": 4,
                                                                "name": "lzReceive",
                                                                "value": 113043
                                                            }
                                                        ],
                                                        "depth": 3,
                                                        "name": "receivePayload",
                                                        "value": 129958
                                                    }
                                                ],
                                                "depth": 2,
                                                "name": "validateTransactionProof",
                                                "value": 177294
                                            }
                                        ],
                                        "depth": 1,
                                        "name": "validateTransactionProofV1",
                                        "value": 193019
                                    }
                                ],
                                "depth": 0,
                                "name": "Executed Gas",
                                "value": 198267
                            }
                        ],
                        "depth": -1,
                        "name": "Actual Gas Used",
                        "value": 211475
                    },
                    {
                        "children": [],
                        "depth": -1,
                        "name": "Refunded Gas",
                        "value": 14000
                    }
                ],
                "depth": -2,
                "name": "Total Gas",
                "value": 225475
            }
        ],
        "isConfirmed": true,
        "mainTrace": [
            {
                "children": [
                    {
                        "children": [
                            {
                                "children": [
                                    {
                                        "children": [
                                            {
                                                "children": [],
                                                "depth": 3,
                                                "id": 3,
                                                "order": 3
                                            },
                                            {
                                                "children": [],
                                                "depth": 3,
                                                "id": 4,
                                                "order": 4
                                            },
                                            {
                                                "children": [
                                                    {
                                                        "children": [
                                                            {
                                                                "children": [
                                                                    {
                                                                        "children": [],
                                                                        "depth": 6,
                                                                        "id": 8,
                                                                        "order": 8
                                                                    },
                                                                    {
                                                                        "children": [
                                                                            {
                                                                                "children": [],
                                                                                "depth": 7,
                                                                                "id": 10,
                                                                                "order": 10
                                                                            }
                                                                        ],
                                                                        "depth": 6,
                                                                        "id": 9,
                                                                        "order": 9
                                                                    }
                                                                ],
                                                                "depth": 5,
                                                                "id": 7,
                                                                "order": 7
                                                            },
                                                            {
                                                                "children": [
                                                                    {
                                                                        "children": [],
                                                                        "depth": 6,
                                                                        "id": 12,
                                                                        "order": 12
                                                                    },
                                                                    {
                                                                        "children": [
                                                                            {
                                                                                "children": [
                                                                                    {
                                                                                        "children": [],
                                                                                        "depth": 8,
                                                                                        "id": 15,
                                                                                        "order": 15
                                                                                    },
                                                                                    {
                                                                                        "children": [],
                                                                                        "depth": 8,
                                                                                        "id": 16,
                                                                                        "order": 16
                                                                                    }
                                                                                ],
                                                                                "depth": 7,
                                                                                "id": 14,
                                                                                "order": 14
                                                                            },
                                                                            {
                                                                                "children": [],
                                                                                "depth": 7,
                                                                                "id": 17,
                                                                                "order": 17
                                                                            }
                                                                        ],
                                                                        "depth": 6,
                                                                        "id": 13,
                                                                        "order": 13
                                                                    }
                                                                ],
                                                                "depth": 5,
                                                                "id": 11,
                                                                "order": 11
                                                            }
                                                        ],
                                                        "depth": 4,
                                                        "id": 6,
                                                        "order": 6
                                                    }
                                                ],
                                                "depth": 3,
                                                "id": 5,
                                                "order": 5
                                            }
                                        ],
                                        "depth": 2,
                                        "id": 2,
                                        "order": 2
                                    }
                                ],
                                "depth": 1,
                                "id": 1,
                                "order": 1
                            }
                        ],
                        "depth": 0,
                        "id": 0,
                        "order": 0
                    }
                ],
                "depth": -1,
                "id": -1,
                "order": -1
            }
        ],
        "mainTraceNodeCount": 18,
        "parentIdMap": {
            "0": -1,
            "1": 0,
            "10": 9,
            "11": 6,
            "12": 11,
            "13": 11,
            "14": 13,
            "15": 14,
            "16": 14,
            "17": 13,
            "2": 1,
            "3": 2,
            "4": 2,
            "5": 2,
            "6": 5,
            "7": 6,
            "8": 7,
            "9": 7
        },
        "tidyTrace": [
            {
                "children": [
                    {
                        "children": [
                            {
                                "children": [
                                    {
                                        "children": [
                                            {
                                                "children": [],
                                                "depth": 3,
                                                "id": 3,
                                                "order": 3
                                            },
                                            {
                                                "children": [],
                                                "depth": 3,
                                                "id": 4,
                                                "order": 4
                                            },
                                            {
                                                "children": [
                                                    {
                                                        "children": [
                                                            {
                                                                "children": [
                                                                    {
                                                                        "children": [
                                                                            {
                                                                                "children": [],
                                                                                "depth": 7,
                                                                                "id": 10,
                                                                                "order": 10
                                                                            }
                                                                        ],
                                                                        "depth": 6,
                                                                        "id": 9,
                                                                        "order": 9
                                                                    }
                                                                ],
                                                                "depth": 5,
                                                                "id": 7,
                                                                "order": 7
                                                            },
                                                            {
                                                                "children": [
                                                                    {
                                                                        "children": [
                                                                            {
                                                                                "children": [
                                                                                    {
                                                                                        "children": [],
                                                                                        "depth": 8,
                                                                                        "id": 15,
                                                                                        "order": 15
                                                                                    },
                                                                                    {
                                                                                        "children": [],
                                                                                        "depth": 8,
                                                                                        "id": 16,
                                                                                        "order": 16
                                                                                    }
                                                                                ],
                                                                                "depth": 7,
                                                                                "id": 14,
                                                                                "order": 14
                                                                            },
                                                                            {
                                                                                "children": [],
                                                                                "depth": 7,
                                                                                "id": 17,
                                                                                "order": 17
                                                                            }
                                                                        ],
                                                                        "depth": 6,
                                                                        "id": 13,
                                                                        "order": 13
                                                                    }
                                                                ],
                                                                "depth": 5,
                                                                "id": 11,
                                                                "order": 11
                                                            }
                                                        ],
                                                        "depth": 4,
                                                        "id": 6,
                                                        "order": 6
                                                    }
                                                ],
                                                "depth": 3,
                                                "id": 5,
                                                "order": 5
                                            }
                                        ],
                                        "depth": 2,
                                        "id": 2,
                                        "order": 2
                                    }
                                ],
                                "depth": 1,
                                "id": 1,
                                "order": 1
                            }
                        ],
                        "depth": 0,
                        "id": 0,
                        "order": 0
                    }
                ],
                "depth": -1,
                "id": -1,
                "order": -1
            }
        ],
        "tidyTraceNodeCount": 16
    },
    "state_change": {
        "stateChanges": [
            {
                "address": "0x101816545f6bd2b1076434b54383a1e633390a2e",
                "erc": "ERC-20",
                "slots": [
                    {
                        "current": "0x00000000000000000000000000000000000000000000000475fa8a67cbb3b7fd",
                        "key": "0x6e1540171b6c0c960b71a7020d9f60077f6af931a8bbf590da0223dacf75c7ce",
                        "prev": "0x00000000000000000000000000000000000000000000000436e7ce8d6a1b62b7"
                    },
                    {
                        "current": "0x0000000000000000000000000000000000000000000000047a260c1bfa2ee0bc",
                        "key": "0x6e1540171b6c0c960b71a7020d9f60077f6af931a8bbf590da0223dacf75c7d1",
                        "prev": "0x000000000000000000000000000000000000000000000004799e4f23a93f5c52"
                    },
                    {
                        "current": "0x000000000000000000000000000000000000000000000016a20aa50d31b64c80",
                        "key": "0x6e1540171b6c0c960b71a7020d9f60077f6af931a8bbf590da0223dacf75c7cf",
                        "prev": "0x000000000000000000000000000000000000000000000016a20ed27dce91dad7"
                    },
                    {
                        "current": "0x00000000000000000000000000000000000000000000000067b87306493c61fe",
                        "key": "0x0000000000000000000000000000000000000000000000000000000000000013",
                        "prev": "0x00000000000000000000000000000000000000000000000067b8705cff179caf"
                    },
                    {
                        "current": "0x0000000000000000000000000000000000000000000000007fcb66d1972d5577",
                        "key": "0x0000000000000000000000000000000000000000000000000000000000000011",
                        "prev": "0x0000000000000000000000000000000000000000000000007fcb662d5316e101"
                    }
                ],
                "storageVariables": [
                    {
                        "name": "chainPaths",
                        "type": "struct Pool.ChainPath[]",
                        "value": {
                            "elemType": "struct Pool.ChainPath",
                            "elems": [
                                {
                                    "index": 4,
                                    "value": {
                                        "fields": [
                                            {
                                                "name": "balance",
                                                "type": "uint256",
                                                "value": {
                                                    "current": "82288235719857256445",
                                                    "prev": "77743334199272366775",
                                                    "typeTag": 1
                                                }
                                            },
                                            {
                                                "name": "lkb",
                                                "type": "uint256",
                                                "value": {
                                                    "current": "417504696081608756352",
                                                    "prev": "417505871943206820567",
                                                    "typeTag": 1
                                                }
                                            },
                                            {
                                                "name": "idealBalance",
                                                "type": "uint256",
                                                "value": {
                                                    "current": "82588712130881446076",
                                                    "prev": "82550505234329721938",
                                                    "typeTag": 1
                                                }
                                            }
                                        ],
                                        "typeTag": 3
                                    }
                                }
                            ],
                            "typeTag": 2
                        }
                    },
                    {
                        "name": "eqFeePool",
                        "type": "uint256",
                        "value": {
                            "current": "7473850052457030142",
                            "prev": "7473847126340377775",
                            "typeTag": 1
                        }
                    },
                    {
                        "name": "protocolFeeBalance",
                        "type": "uint256",
                        "value": {
                            "current": "9208566913459639671",
                            "prev": "9208566207942680833",
                            "typeTag": 1
                        }
                    }
                ]
            },
            {
                "address": "0x66a71dcef29a0ffbdbe3c6a460a3b5bc225cd675",
                "erc": "",
                "slots": [
                    {
                        "current": "0x0000000000000000000000000000000000000000000000000000000000000d92",
                        "key": "0xb82e5e44ba7ac4766157ba6e4d9e6d01b80ce25c210ff1a4f5e13ca24c56b09f",
                        "prev": "0x0000000000000000000000000000000000000000000000000000000000000d91"
                    }
                ],
                "storageVariables": [
                    {
                        "name": "inboundNonce",
                        "type": "mapping(uint16 => mapping(bytes => uint64))",
                        "value": {
                            "pairs": [
                                {
                                    "key": "184",
                                    "value": {
                                        "pairs": [
                                            {
                                                "key": "0xaf54be5b6eec24d6bfacf1cce4eaf680a8239398296f55f8fb28e498b858d0bcda06d955b2cb3f97",
                                                "value": {
                                                    "current": "3474",
                                                    "prev": "3473",
                                                    "typeTag": 1
                                                }
                                            }
                                        ],
                                        "typeTag": 4
                                    }
                                }
                            ],
                            "typeTag": 4
                        }
                    }
                ]
            },
            {
                "address": "0x72e2f4830b9e45d52f80ac08cb2bec0fef72ed9c",
                "erc": "ERC-20",
                "slots": [
                    {
                        "current": "0x0000000000000000000000000000000000000000000000ded63f2b798ae3e8c2",
                        "key": "0xf7f69682f9824f4882eeb5c155140ea75b5429ce47c66acc542cb334557ba4b3",
                        "prev": "0x0000000000000000000000000000000000000000000000ded643559c99843d54"
                    },
                    {
                        "current": "0x0000000000000000000000000000000000000000000000ded6d3ffdea8a63aab",
                        "key": "0x0000000000000000000000000000000000000000000000000000000000000002",
                        "prev": "0x0000000000000000000000000000000000000000000000ded6d82a01b7468f3d"
                    }
                ],
                "storageVariables": [
                    {
                        "name": "balanceOf",
                        "type": "mapping(address => uint256)",
                        "value": {
                            "pairs": [
                                {
                                    "key": "0x101816545f6bd2b1076434b54383a1e633390a2e",
                                    "value": {
                                        "current": "4110615290212191037634",
                                        "prev": "4110616462442155490644",
                                        "typeTag": 1
                                    }
                                }
                            ],
                            "typeTag": 4
                        }
                    },
                    {
                        "name": "totalSupply",
                        "type": "uint256",
                        "value": {
                            "current": "4110657182039500274347",
                            "prev": "4110658354269464727357",
                            "typeTag": 1
                        }
                    }
                ]
            }
        ]
    }
}