{
    "balance_change": {
        "balanceChanges": [
            {
                "account": "0x3f33f04bc355060b5d46dd1c4b31ba42b83f5398",
                "assets": [
                    {
                        "address": "0x9f8f72aa9304c8b593d555f12ef6589cc3a579a2",
                        "amount": "0.02181",
                        "iconUrl": "https://assets.blocksec.com/icon/9361536498fbf76e6152f13d41df201aae3e94cf23c8459569e7c47c22f44dc1.png",
                        "isERC1155": false,
                        "isERC721": false,
                        "sign": false,
                        "value": ""
                    }
                ]
            },
            {
                "account": "0x9bc2f223026c252c8ef5f7f33f00f4bee21434b8",
                "assets": [
                    {
                        "address": "0x9f8f72aa9304c8b593d555f12ef6589cc3a579a2",
                        "amount": "0.02181",
                        "iconUrl": "https://assets.blocksec.com/icon/9361536498fbf76e6152f13d41df201aae3e94cf23c8459569e7c47c22f44dc1.png",
                        "isERC1155": false,
                        "isERC721": false,
                        "sign": true,
                        "value": ""
                    }
                ]
            }
        ]
    },
    "profile": {
        "basic_info": {
            "baseFee": "",
            "blockNumber": 11226100,
            "callData": "0xa9059cbb0000000000000000000000009bc2f223026c252c8ef5f7f33f00f4bee21434b8000000000000000000000000000000000000000000000000004d7c14568d2000",
            "debugEnable": true,
            "errorInfo": "",
            "eventCount": 1,
            "feeRecipient": "0x04668ec2f57cc15c381b461b9fedab5d451c8f7f",
            "formatValue": "0",
            "gasLimit": 57805,
            "gasPrice": "21",
            "gasUsed": 22526,
            "intTxnCount": 0,
            "internalRevert": false,
            "internalRevertMessage": "",
            "isContractCreation": false,
            "isFlashloan": false,
            "maxFee": "",
            "nonce": 0,
            "overwritedBlockNumber": -1,
            "priorityFee": "",
            "receiver": "0x9f8f72aa9304c8b593d555f12ef6589cc3a579a2",
            "revertMessage": "",
            "sender": "0x3f33f04bc355060b5d46dd1c4b31ba42b83f5398",
            "simulationEnable": true,
            "sourceTxnHash": "0xa6601361fb5678eb2e00ec296969e4d83b301f1811c5be74ecfd01d80b458fcd",
            "status": true,
            "timestamp": "2020-11-09T22:44:28Z",
            "transactionFee": "0.000473046",
            "txnHash": "0xa6601361fb5678eb2e00ec296969e4d83b301f1811c5be74ecfd01d80b458fcd",
            "txnIndex": 5,
            "type": 0,
            "value": "0"
        },
        "fund_flow": [
            {
                "amount": "0.02181",
                "from": "0x3f33f04bc355060b5d46dd1c4b31ba42b83f5398",
                "id": 1,
                "isERC1155": false,
                "isERC721": false,
                "isReverted": false,
                "order": 1,
                "to": "0x9bc2f223026c252c8ef5f7f33f00f4bee21434b8",
                "token": "0x9f8f72aa9304c8b593d555f12ef6589cc3a579a2"
            }
        ],
        "token_infos": [
            {
                "address": "0x9f8f72aa9304c8b593d555f12ef6589cc3a579a2",
                "decimals": 18
            },
            {
                "address": "0xc02aaa39b223fe8d0a0e5c4f27ead9083c756cc2",
                "decimals": 18
            },
            {
                "address": "0xeeeeeeeeeeeeeeeeeeeeeeeeeeeeeeeeeeeeeeee",
                "decimals": 18
            }
        ]
    },
    "address_label": {
        "labels": [
            {
                "address": "0x0000000000000000000000000000000000000004",
                "label": "Precompiled"
            },
            {
                "address": "0xeeeeeeeeeeeeeeeeeeeeeeeeeeeeeeeeeeeeeeee",
                "label": "Ether"
            },
            {
                "address": "0x9f8f72aa9304c8b593d555f12ef6589cc3a579a2",
                "label": "Sky: MKR Token"
            },
            {
                "address": "0x9bc2f223026c252c8ef5f7f33f00f4bee21434b8",
                "label": "ChangeNOW 9"
            },
            {
                "address": "0x0000000000000000000000000000000000000001",
                "label": "Precompiled"
            },
            {
                "address": "0x0000000000000000000000000000000000000002",
                "label": "Precompiled"
            },
            {
                "address": "0x0000000000000000000000000000000000000003",
                "label": "Precompiled"
            }
        ]
    },
    "trace": {
        "accountLabels": null,
        "dataMap": {
            "-1": {
                "invocation": {
                    "address": "0x3f33f04bc355060b5d46dd1c4b31ba42b83f5398",
                    "callData": "",
                    "decodedMethod": null,
                    "errorInfo": "",
                    "fromAddress": "",
                    "gasUsed": 0,
                    "id": -1,
                    "methodDecoded": false,
                    "operation": "",
                    "output": "",
                    "revert": false,
                    "revertMessage": "",
                    "selector": "",
                    "status": false,
                    "value": ""
                },
                "nodeType": 0
            },
            "0": {
                "invocation": {
                    "address": "0x9f8f72aa9304c8b593d555f12ef6589cc3a579a2",
                    "callData": "0x0000000000000000000000009bc2f223026c252c8ef5f7f33f00f4bee21434b8000000000000000000000000000000000000000000000000004d7c14568d2000",
                    "decodedMethod": {
                        "callParams": [
                            {
                                "name": "dst",
                                "type": "address",
                                "value": "0x9bc2f223026c252c8ef5f7f33f00f4bee21434b8"
                            },
                            {
                                "decimalAvailable": true,
                                "name": "wad",
                                "type": "uint256",
                                "value": "21,810,000,000,000,000"
                            }
                        ],
                        "constructorArguments": "",
                        "name": "transfer",
                        "returnParams": [
                            {
                                "name": "",
                                "type": "bool",
                                "value": true
                            }
                        ],
                        "signature": "transfer(address,uint256)"
                    },
                    "errorInfo": "",
                    "fromAddress": "0x3f33f04bc355060b5d46dd1c4b31ba42b83f5398",
                    "gasUsed": 22526,
                    "id": 0,
                    "methodDecoded": true,
                    "operation": "CALL",
                    "output": "0x0000000000000000000000000000000000000000000000000000000000000001",
                    "revert": false,
                    "revertMessage": "",
                    "selector": "0xa9059cbb",
                    "status": true,
                    "value": "0"
                },
                "nodeType": 0
            },
            "1": {
                "event": {
                    "contract": "0x9f8f72aa9304c8b593d555f12ef6589cc3a579a2",
                    "decodedLog": {
                        "name": "Transfer",
                        "params": [
                            {
                                "name": "from",
                                "type": "address",
                                "value": "0x3f33f04bc355060b5d46dd1c4b31ba42b83f5398"
                            },
                            {
                                "name": "to",
                                "type": "address",
                                "value": "0x9bc2f223026c252c8ef5f7f33f00f4bee21434b8"
                            },
                            {
                                "decimalAvailable": true,
                                "name": "value",
                                "type": "uint256",
                                "value": "21,810,000,000,000,000"
                            }
                        ],
                        "signature": "Transfer(address,address,uint256)"
                    },
                    "id": 1,
                    "logData": "0x000000000000000000000000000000000000000000000000004d7c14568d2000",
                    "logDecoded": true,
                    "operation": "EVENT",
                    "revert": false,
                    "status": true,
                    "topics": [
                        "0xddf252ad1be2c89b69c2b068fc378daa952ba7f163c4a11628f55a4df523b3ef",
                        "0x0000000000000000000000003f33f04bc355060b5d46dd1c4b31ba42b83f5398",
                        "0x0000000000000000000000009bc2f223026c252c8ef5f7f33f00f4bee21434b8"
                    ]
                },
                "nodeType": 1
            }
        },
        "gasFlame": [
            {
                "children": [
                    {
                        "children": [
                            {
                                "children": [],
                                "depth": 0,
                                "name": "Initial Gas",
                                "value": 21620
                            },
                            {
                                "children": [],
                                "depth": 0,
                                "name": "Executed Gas",
                                "value": 15906
                            }
                        ],
                        "depth": -1,
                        "name": "Actual Gas Used",
                        "value": 22526
                    },
                    {
                        "children": [],
                        "depth": -1,
                        "name": "Refunded Gas",
                        "value": 15000
                    }
                ],
                "depth": -2,
                "name": "Total Gas",
                "value": 37526
            }
        ],
        "isConfirmed": true,
        "mainTrace": [
            {
                "children": [
                    {
                        "children": [
                            {
                                "children": [],
                                "depth": 1,
                                "id": 1,
                                "order": 1
                            }
                        ],
                        "depth": 0,
                        "id": 0,
                        "order": 0
                    }
                ],
                "depth": -1,
                "id": -1,
                "order": -1
            }
        ],
        "mainTraceNodeCount": 2,
        "parentIdMap": {
            "0": -1,
            "1": 0
        },
        "tidyTrace": [
            {
                "children": [
                    {
                        "children": [
                            {
                                "children": [],
                                "depth": 1,
                                "id": 1,
                                "order": 1
                            }
                        ],
                        "depth": 0,
                        "id": 0,
                        "order": 0
                    }
                ],
                "depth": -1,
                "id": -1,
                "order": -1
            }
        ],
        "tidyTraceNodeCount": 2
    },
    "state_change": {
        "stateChanges": [
            {
                "address": "0x9f8f72aa9304c8b593d555f12ef6589cc3a579a2",
                "erc": "ERC-20",
                "slots": [
                    {
                        "current": "0x0000000000000000000000000000000000000000000000000000000000000000",
                        "key": "0xe134430f9e5fa39f494be0e1bf15605486cfa124a4cc464993e643275a8d2fa6",
                        "prev": "0x000000000000000000000000000000000000000000000000004d7c14568d2000"
                    },
                    {
                        "current": "0x0000000000000000000000000000000000000000000000001acc4bd0b52ce800",
                        "key": "0x34656ab07be824e0544ff07d2f4294770d00c02534a14b479cb957f82320f18d",
                        "prev": "0x0000000000000000000000000000000000000000000000001a7ecfbc5e9fc800"
                    }
                ],
                "storageVariables": [
                    {
                        "name": "_balances",
                        "type": "mapping(address => uint256)",
                        "value": {
                            "pairs": [
                                {
                                    "key": "0x3f33f04bc355060b5d46dd1c4b31ba42b83f5398",
                                    "value": {
                                        "current": "0",
                                        "prev": "21810000000000000",
                                        "typeTag": 1
                                    }
                                },
                                {
                                    "key": "0x9bc2f223026c252c8ef5f7f33f00f4bee21434b8",
                                    "value": {
                                        "current": "1931001700000000000",
                                        "prev": "1909191700000000000",
                                        "typeTag": 1
                                    }
                                }
                            ],
                            "typeTag": 4
                        }
                    }
                ]
            }
        ]
    }
}