{
    "balance_change": {
        "balanceChanges": []
    },
    "profile": {
        "basic_info": {
            "baseFee": "",
            "blockNumber": 10550543,
            "callData": "0xb6ba5ae80000000000000000000000000000000000000000000000000000000000009e3a41d4be23870f20dac3067defde1c36fa9dfc256d7b1e03a0eaf2e32689d9fd0c22ddafaf521412b39e3398371002be31620857ea0b5270601013b775e0cc6bad48f168efe8ff06280669485d3f78d232c04e1190a8651034e125a731890effd3",
            "debugEnable": true,
            "errorInfo": "",
            "eventCount": 1,
            "feeRecipient": "0xea674fdde714fd979de3edf0f56aa9716b898ec8",
            "formatValue": "0",
            "gasLimit": 226368,
            "gasPrice": "66",
            "gasUsed": 113184,
            "intTxnCount": 4,
            "internalRevert": false,
            "internalRevertMessage": "",
            "isContractCreation": false,
            "isFlashloan": false,
            "maxFee": "",
            "nonce": 77778,
            "overwritedBlockNumber": -1,
            "priorityFee": "",
            "receiver": "0x463cd03db739b8a8c67adc8732f708a649478681",
            "revertMessage": "",
            "sender": "0x5ccaaae7bea14e8e04fb0fc7ed16df49d5678eb8",
            "simulationEnable": true,
            "sourceTxnHash": "0xa76f3e3244e2cb4a0ef885b348a3d1d865510026d052582c7a712d0908df21dd",
            "status": true,
            "timestamp": "2020-07-28T21:52:07Z",
            "transactionFee": "0.007470144",
            "txnHash": "0xa76f3e3244e2cb4a0ef885b348a3d1d865510026d052582c7a712d0908df21dd",
            "txnIndex": 15,
            "type": 0,
            "value": "0"
        },
        "fund_flow": [],
        "token_infos": [
            {
                "address": "0xc02aaa39b223fe8d0a0e5c4f27ead9083c756cc2",
                "decimals": 18
            },
            {
                "address": "0xeeeeeeeeeeeeeeeeeeeeeeeeeeeeeeeeeeeeeeee",
                "decimals": 18
            }
        ]
    },
    "address_label": {
        "labels": [
            {
                "address": "0x0000000000000000000000000000000000000003",
                "label": "Precompiled"
            },
            {
                "address": "0x0000000000000000000000000000000000000004",
                "label": "Precompiled"
            },
            {
                "address": "0xeeeeeeeeeeeeeeeeeeeeeeeeeeeeeeeeeeeeeeee",
                "label": "Ether"
            },
            {
                "address": "0x0d283d685f0a741c463846176e4c8eff90d3f9ec",
                "label": "Gluon Network: Spot Data"
            },
            {
                "address": "0x75ace7a086ea0fb1a79e43cc6331ad053d8c67cb",
                "label": "Gluon Network"
            },
            {
                "address": "0x463cd03db739b8a8c67adc8732f708a649478681",
                "label": "SpotLogic"
            },
            {
                "address": "0x0000000000000000000000000000000000000001",
                "label": "Precompiled"
            },
            {
                "address": "0x0000000000000000000000000000000000000002",
                "label": "Precompiled"
            }
        ]
    },
    "trace": {
        "accountLabels": null,
        "dataMap": {
            "-1": {
                "invocation": {
                    "address": "0x5ccaaae7bea14e8e04fb0fc7ed16df49d5678eb8",
                    "callData": "",
                    "decodedMethod": null,
                    "errorInfo": "",
                    "fromAddress": "",
                    "gasUsed": 0,
                    "id": -1,
                    "methodDecoded": false,
                    "operation": "",
                    "output": "",
                    "revert": false,
                    "revertMessage": "",
                    "selector": "",
                    "status": false,
                    "value": ""
                },
                "nodeType": 0
            },
            "0": {
                "invocation": {
                    "address": "0x463cd03db739b8a8c67adc8732f708a649478681",
                    "callData": "0x0000000000000000000000000000000000000000000000000000000000009e3a41d4be23870f20dac3067defde1c36fa9dfc256d7b1e03a0eaf2e32689d9fd0c22ddafaf521412b39e3398371002be31620857ea0b5270601013b775e0cc6bad48f168efe8ff06280669485d3f78d232c04e1190a8651034e125a731890effd3",
                    "decodedMethod": {
                        "callParams": [
                            {
                                "name": "gblockNumber",
                                "type": "uint32",
                                "value": "40,506"
                            },
                            {
                                "name": "withdrawalsRoot",
                                "type": "bytes32",
                                "value": "0x41d4be23870f20dac3067defde1c36fa9dfc256d7b1e03a0eaf2e32689d9fd0c"
                            },
                            {
                                "name": "depositsRoot",
                                "type": "bytes32",
                                "value": "0x22ddafaf521412b39e3398371002be31620857ea0b5270601013b775e0cc6bad"
                            },
                            {
                                "name": "balancesRoot",
                                "type": "bytes32",
                                "value": "0x48f168efe8ff06280669485d3f78d232c04e1190a8651034e125a731890effd3"
                            }
                        ],
                        "constructorArguments": "",
                        "name": "submit",
                        "returnParams": [],
                        "signature": "submit(uint32,bytes32,bytes32,bytes32)"
                    },
                    "errorInfo": "",
                    "fromAddress": "0x5ccaaae7bea14e8e04fb0fc7ed16df49d5678eb8",
                    "gasUsed": 113184,
                    "id": 0,
                    "methodDecoded": true,
                    "operation": "CALL",
                    "output": "",
                    "revert": false,
                    "revertMessage": "",
                    "selector": "0xb6ba5ae8",
                    "status": true,
                    "value": "0"
                },
                "nodeType": 0
            },
            "1": {
                "invocation": {
                    "address": "0x0d283d685f0a741c463846176e4c8eff90d3f9ec",
                    "callData": "0x",
                    "decodedMethod": {
                        "callParams": [],
                        "constructorArguments": "",
                        "name": "submissionBlock",
                        "returnParams": [
                            {
                                "name": "",
                                "type": "uint256",
                                "value": "10,550,541"
                            }
                        ],
                        "signature": "submissionBlock()"
                    },
                    "errorInfo": "",
                    "fromAddress": "0x463cd03db739b8a8c67adc8732f708a649478681",
                    "gasUsed": 1066,
                    "id": 1,
                    "methodDecoded": true,
                    "operation": "STATICCALL",
                    "output": "0x0000000000000000000000000000000000000000000000000000000000a0fd0d",
                    "revert": false,
                    "revertMessage": "",
                    "selector": "0x413350bd",
                    "status": true,
                    "value": "0"
                },
                "nodeType": 0
            },
            "2": {
                "invocation": {
                    "address": "0x0d283d685f0a741c463846176e4c8eff90d3f9ec",
                    "callData": "0x",
                    "decodedMethod": {
                        "callParams": [],
                        "constructorArguments": "",
                        "name": "currentGblockNumber",
                        "returnParams": [
                            {
                                "name": "",
                                "type": "uint32",
                                "value": "40,505"
                            }
                        ],
                        "signature": "currentGblockNumber()"
                    },
                    "errorInfo": "",
                    "fromAddress": "0x463cd03db739b8a8c67adc8732f708a649478681",
                    "gasUsed": 1096,
                    "id": 2,
                    "methodDecoded": true,
                    "operation": "STATICCALL",
                    "output": "0x0000000000000000000000000000000000000000000000000000000000009e39",
                    "revert": false,
                    "revertMessage": "",
                    "selector": "0xe13c96a9",
                    "status": true,
                    "value": "0"
                },
                "nodeType": 0
            },
            "3": {
                "invocation": {
                    "address": "0x0d283d685f0a741c463846176e4c8eff90d3f9ec",
                    "callData": "0x0000000000000000000000000000000000000000000000000000000000009e3a41d4be23870f20dac3067defde1c36fa9dfc256d7b1e03a0eaf2e32689d9fd0c22ddafaf521412b39e3398371002be31620857ea0b5270601013b775e0cc6bad48f168efe8ff06280669485d3f78d232c04e1190a8651034e125a731890effd30000000000000000000000000000000000000000000000000000000000000024",
                    "decodedMethod": {
                        "callParams": [
                            {
                                "name": "gblockNumber",
                                "type": "uint32",
                                "value": "40,506"
                            },
                            {
                                "name": "withdrawalsRoot",
                                "type": "bytes32",
                                "value": "0x41d4be23870f20dac3067defde1c36fa9dfc256d7b1e03a0eaf2e32689d9fd0c"
                            },
                            {
                                "name": "depositsRoot",
                                "type": "bytes32",
                                "value": "0x22ddafaf521412b39e3398371002be31620857ea0b5270601013b775e0cc6bad"
                            },
                            {
                                "name": "balancesRoot",
                                "type": "bytes32",
                                "value": "0x48f168efe8ff06280669485d3f78d232c04e1190a8651034e125a731890effd3"
                            },
                            {
                                "name": "submissionInterval",
                                "type": "uint256",
                                "value": "36"
                            }
                        ],
                        "constructorArguments": "",
                        "name": "submit",
                        "returnParams": [],
                        "signature": "submit(uint32,bytes32,bytes32,bytes32,uint256)"
                    },
                    "errorInfo": "",
                    "fromAddress": "0x463cd03db739b8a8c67adc8732f708a649478681",
                    "gasUsed": 76141,
                    "id": 3,
                    "methodDecoded": true,
                    "operation": "CALL",
                    "output": "",
                    "revert": false,
                    "revertMessage": "",
                    "selector": "0x1786ba33",
                    "status": true,
                    "value": "0"
                },
                "nodeType": 0
            },
            "4": {
                "invocation": {
                    "address": "0x75ace7a086ea0fb1a79e43cc6331ad053d8c67cb",
                    "callData": "0x0000000000000000000000000000000000000000000000000000000000000002",
                    "decodedMethod": {
                        "callParams": [
                            {
                                "name": "appId",
                                "type": "uint32",
                                "value": "2"
                            }
                        ],
                        "constructorArguments": "",
                        "name": "current",
                        "returnParams": [
                            {
                                "name": "",
                                "type": "address",
                                "value": "0x463cd03db739b8a8c67adc8732f708a649478681"
                            }
                        ],
                        "signature": "current(uint32)"
                    },
                    "errorInfo": "",
                    "fromAddress": "0x0d283d685f0a741c463846176e4c8eff90d3f9ec",
                    "gasUsed": 2111,
                    "id": 4,
                    "methodDecoded": true,
                    "operation": "STATICCALL",
                    "output": "0x000000000000000000000000463cd03db739b8a8c67adc8732f708a649478681",
                    "revert": false,
                    "revertMessage": "",
                    "selector": "0x20f49ddb",
                    "status": true,
                    "value": "0"
                },
                "nodeType": 0
            },
            "5": {
                "event": {
                    "contract": "0x463cd03db739b8a8c67adc8732f708a649478681",
                    "decodedLog": {
                        "name": "Submitted",
                        "params": [
                            {
                                "name": "gblockNumber",
                                "type": "uint32",
                                "value": "40,506"
                            },
                            {
                                "name": "withdrawalsRoot",
                                "type": "bytes32",
                                "value": "0x41d4be23870f20dac3067defde1c36fa9dfc256d7b1e03a0eaf2e32689d9fd0c"
                            },
                            {
                                "name": "depositsRoot",
                                "type": "bytes32",
                                "value": "0x22ddafaf521412b39e3398371002be31620857ea0b5270601013b775e0cc6bad"
                            },
                            {
                                "name": "balancesRoot",
                                "type": "bytes32",
                                "value": "0x48f168efe8ff06280669485d3f78d232c04e1190a8651034e125a731890effd3"
                            }
                        ],
                        "signature": "Submitted(uint32,bytes32,bytes32,bytes32)"
                    },
                    "id": 5,
                    "logData": "0x0000000000000000000000000000000000000000000000000000000000009e3a41d4be23870f20dac3067defde1c36fa9dfc256d7b1e03a0eaf2e32689d9fd0c22ddafaf521412b39e3398371002be31620857ea0b5270601013b775e0cc6bad48f168efe8ff06280669485d3f78d232c04e1190a8651034e125a731890effd3",
                    "logDecoded": true,
                    "operation": "EVENT",
                    "revert": false,
                    "status": true,
                    "topics": [
                        "0xd48fb227199e496bc59e84f5777a330e8afdfd00efc7cd29d79c0fb289341139"
                    ]
                },
                "nodeType": 1
            }
        },
        "gasFlame": [
            {
                "children": [
                    {
                        "children": [
                            {
                                "children": [],
                                "depth": 0,
                                "name": "Initial Gas",
                                "value": 22752
                            },
                            {
                                "children": [
                                    {
                                        "children": [],
                                        "depth": 1,
                                        "name": "submissionBlock",
                                        "value": 1066
                                    },
                                    {
                                        "children": [],
                                        "depth": 1,
                                        "name": "currentGblockNumber",
                                        "value": 1096
                                    },
                                    {
                                        "children": [
                                            {
                                                "children": [],
                                                "depth": 2,
                                                "name": "current",
                                                "value": 2111
                                            }
                                        ],
                                        "depth": 1,
                                        "name": "submit",
                                        "value": 76141
                                    }
                                ],
                                "depth": 0,
                                "name": "Executed Gas",
                                "value": 90432
                            }
                        ],
                        "depth": -1,
                        "name": "Actual Gas Used",
                        "value": 113184
                    },
                    {
                        "children": [],
                        "depth": -1,
                        "name": "Refunded Gas",
                        "value": 0
                    }
                ],
                "depth": -2,
                "name": "Total Gas",
                "value": 113184
            }
        ],
        "isConfirmed": true,
        "mainTrace": [
            {
                "children": [
                    {
                        "children": [
                            {
                                "children": [],
                                "depth": 1,
                                "id": 1,
                                "order": 1
                            },
                            {
                                "children": [],
                                "depth": 1,
                                "id": 2,
                                "order": 2
                            },
                            {
                                "children": [
                                    {
                                        "children": [],
                                        "depth": 2,
                                        "id": 4,
                                        "order": 4
                                    }
                                ],
                                "depth": 1,
                                "id": 3,
                                "order": 3
                            },
                            {
                                "children": [],
                                "depth": 1,
                                "id": 5,
                                "order": 5
                            }
                        ],
                        "depth": 0,
                        "id": 0,
                        "order": 0
                    }
                ],
                "depth": -1,
                "id": -1,
                "order": -1
            }
        ],
        "mainTraceNodeCount": 6,
        "parentIdMap": {
            "0": -1,
            "1": 0,
            "2": 0,
            "3": 0,
            "4": 3,
            "5": 0
        },
        "tidyTrace": [
            {
                "children": [
                    {
                        "children": [
                            {
                                "children": [],
                                "depth": 1,
                                "id": 3,
                                "order": 3
                            },
                            {
                                "children": [],
                                "depth": 1,
                                "id": 5,
                                "order": 5
                            }
                        ],
                        "depth": 0,
                        "id": 0,
                        "order": 0
                    }
                ],
                "depth": -1,
                "id": -1,
                "order": -1
            }
        ],
        "tidyTraceNodeCount": 3
    },
    "state_change": {
        "stateChanges": [
            {
                "address": "0x0d283d685f0a741c463846176e4c8eff90d3f9ec",
                "erc": "",
                "slots": [
                    {
                        "current": "0x41d4be23870f20dac3067defde1c36fa9dfc256d7b1e03a0eaf2e32689d9fd0c",
                        "key": "0xb8b685edff1a369b4491e2dd31c2ae4221596527991b86e6ac58a53d3ce07c69",
                        "prev": "0x0000000000000000000000000000000000000000000000000000000000000000"
                    },
                    {
                        "current": "0x22ddafaf521412b39e3398371002be31620857ea0b5270601013b775e0cc6bad",
                        "key": "0xb8b685edff1a369b4491e2dd31c2ae4221596527991b86e6ac58a53d3ce07c6a",
                        "prev": "0x0000000000000000000000000000000000000000000000000000000000000000"
                    },
                    {
                        "current": "0x48f168efe8ff06280669485d3f78d232c04e1190a8651034e125a731890effd3",
                        "key": "0xb8b685edff1a369b4491e2dd31c2ae4221596527991b86e6ac58a53d3ce07c6b",
                        "prev": "0x0000000000000000000000000000000000000000000000000000000000000000"
                    },
                    {
                        "current": "0x00009e3a0000010b75ace7a086ea0fb1a79e43cc6331ad053d8c67cb00000002",
                        "key": "0x0000000000000000000000000000000000000000000000000000000000000000",
                        "prev": "0x00009e390000010b75ace7a086ea0fb1a79e43cc6331ad053d8c67cb00000002"
                    },
                    {
                        "current": "0x0000000000000000000000000000000000000000000000000000000000a0fd33",
                        "key": "0x0000000000000000000000000000000000000000000000000000000000000001",
                        "prev": "0x0000000000000000000000000000000000000000000000000000000000a0fd0d"
                    }
                ],
                "storageVariables": [
                    {
                        "name": "gblocksByNumber",
                        "type": "mapping(uint32 => struct SpotData.Gblock)",
                        "value": {
                            "pairs": [
                                {
                                    "key": "40506",
                                    "value": {
                                        "fields": [
                                            {
                                                "name": "withdrawalsRoot",
                                                "type": "bytes32",
                                                "value": {
                                                    "current": "0x41d4be23870f20dac3067defde1c36fa9dfc256d7b1e03a0eaf2e32689d9fd0c",
                                                    "prev": "0x0000000000000000000000000000000000000000000000000000000000000000",
                                                    "typeTag": 1
                                                }
                                            },
                                            {
                                                "name": "depositsRoot",
                                                "type": "bytes32",
                                                "value": {
                                                    "current": "0x22ddafaf521412b39e3398371002be31620857ea0b5270601013b775e0cc6bad",
                                                    "prev": "0x0000000000000000000000000000000000000000000000000000000000000000",
                                                    "typeTag": 1
                                                }
                                            },
                                            {
                                                "name": "balancesRoot",
                                                "type": "bytes32",
                                                "value": {
                                                    "current": "0x48f168efe8ff06280669485d3f78d232c04e1190a8651034e125a731890effd3",
                                                    "prev": "0x0000000000000000000000000000000000000000000000000000000000000000",
                                                    "typeTag": 1
                                                }
                                            }
                                        ],
                                        "typeTag": 3
                                    }
                                }
                            ],
                            "typeTag": 4
                        }
                    },
                    {
                        "name": "id",
                        "type": "uint32",
                        "value": {
                            "current": "2",
                            "prev": "2",
                            "typeTag": 1
                        }
                    },
                    {
                        "name": "gluon",
                        "type": "address",
                        "value": {
                            "current": "0x75ace7a086ea0fb1a79e43cc6331ad053d8c67cb",
                            "prev": "0x75ace7a086ea0fb1a79e43cc6331ad053d8c67cb",
                            "typeTag": 1
                        }
                    },
                    {
                        "name": "nonce",
                        "type": "uint32",
                        "value": {
                            "current": "267",
                            "prev": "267",
                            "typeTag": 1
                        }
                    },
                    {
                        "name": "currentGblockNumber",
                        "type": "uint32",
                        "value": {
                            "current": "40506",
                            "prev": "40505",
                            "typeTag": 1
                        }
                    },
                    {
                        "name": "submissionBlock",
                        "type": "uint256",
                        "value": {
                            "current": "10550579",
                            "prev": "10550541",
                            "typeTag": 1
                        }
                    }
                ]
            }
        ]
    }
}