{
    "balance_change": {
        "balanceChanges": [
            {
                "account": "0xb7bf7f135b505b386f55a48eb77f872d15b5fb2c",
                "assets": [
                    {
                        "address": "0xeeeeeeeeeeeeeeeeeeeeeeeeeeeeeeeeeeeeeeee",
                        "amount": "0.188067441",
                        "iconUrl": "https://assets.blocksec.com/image/1663669189317-3.png",
                        "isERC1155": false,
                        "isERC721": false,
                        "sign": false,
                        "value": "510.10848494516997947"
                    },
                    {
                        "address": "0xdc349913d53b446485e98b76800b6254f43df695",
                        "amount": "523,962,264,961.724799973",
                        "iconUrl": "https://assets.blocksec.com/icon/ae4ee49db11ef1d1597ef9df358aaffb0323fc7bb27109f2c8eff3142f81191d.png",
                        "isERC1155": false,
                        "isERC721": false,
                        "sign": true,
                        "value": "497.8433191"
                    }
                ]
            },
            {
                "account": "0x1f964ff83c54ce447adae5cb93f9ec17018bf55b",
                "assets": [
                    {
                        "address": "0xc02aaa39b223fe8d0a0e5c4f27ead9083c756cc2",
                        "amount": "0.188067441",
                        "iconUrl": "https://assets.blocksec.com/icon/f1cb2d02c471d545bbc7722daf3277fd852d98e63d118771af7047bd8256c516.png",
                        "isERC1155": false,
                        "isERC721": false,
                        "sign": true,
                        "value": "510.10848494516997947"
                    },
                    {
                        "address": "0xdc349913d53b446485e98b76800b6254f43df695",
                        "amount": "523,962,264,961.724799973",
                        "iconUrl": "https://assets.blocksec.com/icon/ae4ee49db11ef1d1597ef9df358aaffb0323fc7bb27109f2c8eff3142f81191d.png",
                        "isERC1155": false,
                        "isERC721": false,
                        "sign": false,
                        "value": "497.8433191"
                    }
                ]
            },
            {
                "account": "0xc02aaa39b223fe8d0a0e5c4f27ead9083c756cc2",
                "assets": [
                    {
                        "address": "0xeeeeeeeeeeeeeeeeeeeeeeeeeeeeeeeeeeeeeeee",
                        "amount": "0.188067441",
                        "iconUrl": "https://assets.blocksec.com/image/1663669189317-3.png",
                        "isERC1155": false,
                        "isERC721": false,
                        "sign": true,
                        "value": "510.10848494516997947"
                    },
                    {
                        "address": "0xc02aaa39b223fe8d0a0e5c4f27ead9083c756cc2",
                        "amount": "0.188067441",
                        "iconUrl": "https://assets.blocksec.com/icon/f1cb2d02c471d545bbc7722daf3277fd852d98e63d118771af7047bd8256c516.png",
                        "isERC1155": false,
                        "isERC721": false,
                        "sign": false,
                        "value": "510.10848494516997947"
                    }
                ]
            }
        ]
    },
    "profile": {
        "basic_info": {
            "baseFee": "",
            "blockNumber": 12558154,
            "callData": "0x7ff36ab500000000000000000000000000000000000000000000001b9a8225caab1b39b40000000000000000000000000000000000000000000000000000000000000080000000000000000000000000b7bf7f135b505b386f55a48eb77f872d15b5fb2c0000000000000000000000000000000000000000000000000000000060b81dc70000000000000000000000000000000000000000000000000000000000000002000000000000000000000000c02aaa39b223fe8d0a0e5c4f27ead9083c756cc2000000000000000000000000dc349913d53b446485e98b76800b6254f43df695",
            "debugEnable": true,
            "errorInfo": "",
            "eventCount": 5,
            "feeRecipient": "0xea674fdde714fd979de3edf0f56aa9716b898ec8",
            "formatValue": "0.188067441",
            "gasLimit": 214034,
            "gasPrice": "28.6",
            "gasUsed": 162763,
            "intTxnCount": 7,
            "internalRevert": false,
            "internalRevertMessage": "",
            "isContractCreation": false,
            "isFlashloan": false,
            "maxFee": "",
            "nonce": 45,
            "overwritedBlockNumber": -1,
            "priorityFee": "",
            "receiver": "0x7a250d5630b4cf539739df2c5dacb4c659f2488d",
            "revertMessage": "",
            "sender": "0xb7bf7f135b505b386f55a48eb77f872d15b5fb2c",
            "simulationEnable": true,
            "sourceTxnHash": "0xa7e18c14b94d627e9b713110a6fc4bff650145a0edab701296d3c7976698492a",
            "status": true,
            "timestamp": "2021-06-02T23:50:53Z",
            "transactionFee": "0.0046550218",
            "txnHash": "0xa7e18c14b94d627e9b713110a6fc4bff650145a0edab701296d3c7976698492a",
            "txnIndex": 240,
            "type": 0,
            "value": "188067441000000000"
        },
        "fund_flow": [
            {
                "amount": "0.188067441",
                "from": "0xb7bf7f135b505b386f55a48eb77f872d15b5fb2c",
                "id": 1,
                "isERC1155": false,
                "isERC721": false,
                "isReverted": false,
                "order": 1,
                "to": "0x7a250d5630b4cf539739df2c5dacb4c659f2488d",
                "token": "0xeeeeeeeeeeeeeeeeeeeeeeeeeeeeeeeeeeeeeeee"
            },
            {
                "amount": "0.188067441",
                "from": "0x7a250d5630b4cf539739df2c5dacb4c659f2488d",
                "id": 2,
                "isERC1155": false,
                "isERC721": false,
                "isReverted": false,
                "order": 2,
                "to": "0xc02aaa39b223fe8d0a0e5c4f27ead9083c756cc2",
                "token": "0xeeeeeeeeeeeeeeeeeeeeeeeeeeeeeeeeeeeeeeee"
            },
            {
                "amount": "0.188067441",
                "from": "0xc02aaa39b223fe8d0a0e5c4f27ead9083c756cc2",
                "id": 3,
                "isERC1155": false,
                "isERC721": false,
                "isReverted": false,
                "order": 3,
                "to": "0x7a250d5630b4cf539739df2c5dacb4c659f2488d",
                "token": "0xc02aaa39b223fe8d0a0e5c4f27ead9083c756cc2"
            },
            {
                "amount": "0.188067441",
                "from": "0x7a250d5630b4cf539739df2c5dacb4c659f2488d",
                "id": 4,
                "isERC1155": false,
                "isERC721": false,
                "isReverted": false,
                "order": 4,
                "to": "0x1f964ff83c54ce447adae5cb93f9ec17018bf55b",
                "token": "0xc02aaa39b223fe8d0a0e5c4f27ead9083c756cc2"
            },
            {
                "amount": "523,962,264,961.724799973",
                "from": "0x1f964ff83c54ce447adae5cb93f9ec17018bf55b",
                "id": 5,
                "isERC1155": false,
                "isERC721": false,
                "isReverted": false,
                "order": 5,
                "to": "0xb7bf7f135b505b386f55a48eb77f872d15b5fb2c",
                "token": "0xdc349913d53b446485e98b76800b6254f43df695"
            }
        ],
        "token_infos": [
            {
                "address": "0xc02aaa39b223fe8d0a0e5c4f27ead9083c756cc2",
                "decimals": 18
            },
            {
                "address": "0xdc349913d53b446485e98b76800b6254f43df695",
                "decimals": 9
            },
            {
                "address": "0xeeeeeeeeeeeeeeeeeeeeeeeeeeeeeeeeeeeeeeee",
                "decimals": 18
            }
        ]
    },
    "address_label": {
        "labels": [
            {
                "address": "0xeeeeeeeeeeeeeeeeeeeeeeeeeeeeeeeeeeeeeeee",
                "label": "Ether"
            },
            {
                "address": "0x1f964ff83c54ce447adae5cb93f9ec17018bf55b",
                "label": "Uniswap V2: BEZOGE"
            },
            {
                "address": "0x0000000000000000000000000000000000000001",
                "label": "Precompiled"
            },
            {
                "address": "0x0000000000000000000000000000000000000002",
                "label": "Precompiled"
            },
            {
                "address": "0x0000000000000000000000000000000000000003",
                "label": "Precompiled"
            },
            {
                "address": "0x7a250d5630b4cf539739df2c5dacb4c659f2488d",
                "label": "Uniswap V2: Router 2"
            },
            {
                "address": "0xc02aaa39b223fe8d0a0e5c4f27ead9083c756cc2",
                "label": "Wrapped Ether (WETH)"
            },
            {
                "address": "0xdc349913d53b446485e98b76800b6254f43df695",
                "label": "Bezoge Earth: BEZOGE Token"
            },
            {
                "address": "0x0000000000000000000000000000000000000004",
                "label": "Precompiled"
            }
        ]
    },
    "trace": {
        "accountLabels": null,
        "dataMap": {
            "-1": {
                "invocation": {
                    "address": "0xb7bf7f135b505b386f55a48eb77f872d15b5fb2c",
                    "callData": "",
                    "decodedMethod": null,
                    "errorInfo": "",
                    "fromAddress": "",
                    "gasUsed": 0,
                    "id": -1,
                    "methodDecoded": false,
                    "operation": "",
                    "output": "",
                    "revert": false,
                    "revertMessage": "",
                    "selector": "",
                    "status": false,
                    "value": ""
                },
                "nodeType": 0
            },
            "0": {
                "invocation": {
                    "address": "0x7a250d5630b4cf539739df2c5dacb4c659f2488d",
                    "callData": "0x00000000000000000000000000000000000000000000001b9a8225caab1b39b40000000000000000000000000000000000000000000000000000000000000080000000000000000000000000b7bf7f135b505b386f55a48eb77f872d15b5fb2c0000000000000000000000000000000000000000000000000000000060b81dc70000000000000000000000000000000000000000000000000000000000000002000000000000000000000000c02aaa39b223fe8d0a0e5c4f27ead9083c756cc2000000000000000000000000dc349913d53b446485e98b76800b6254f43df695",
                    "decodedMethod": {
                        "callParams": [
                            {
                                "name": "amountOutMin",
                                "type": "uint256",
                                "value": "509,195,592,771,355,490,740"
                            },
                            {
                                "name": "path",
                                "type": "address[]",
                                "value": [
                                    "0xc02aaa39b223fe8d0a0e5c4f27ead9083c756cc2",
                                    "0xdc349913d53b446485e98b76800b6254f43df695"
                                ]
                            },
                            {
                                "name": "to",
                                "type": "address",
                                "value": "0xb7bf7f135b505b386f55a48eb77f872d15b5fb2c"
                            },
                            {
                                "name": "deadline",
                                "type": "uint256",
                                "value": "1,622,678,983"
                            }
                        ],
                        "constructorArguments": "",
                        "name": "swapExactETHForTokens",
                        "returnParams": [
                            {
                                "name": "amounts",
                                "type": "uint256[]",
                                "value": [
                                    "188,067,441,000,000,000",
                                    "534,655,372,409,923,265,277"
                                ]
                            }
                        ],
                        "signature": "swapExactETHForTokens(uint256,address[],address,uint256)"
                    },
                    "errorInfo": "",
                    "fromAddress": "0xb7bf7f135b505b386f55a48eb77f872d15b5fb2c",
                    "gasUsed": 162763,
                    "id": 0,
                    "methodDecoded": true,
                    "operation": "CALL",
                    "output": "0x00000000000000000000000000000000000000000000000000000000000000200000000000000000000000000000000000000000000000000000000000000002000000000000000000000000000000000000000000000000029c2657569f2a0000000000000000000000000000000000000000000000001cfbd5747b33a962fd",
                    "revert": false,
                    "revertMessage": "",
                    "selector": "0x7ff36ab5",
                    "status": true,
                    "value": "0.188067441"
                },
                "nodeType": 0
            },
            "1": {
                "invocation": {
                    "address": "0x1f964ff83c54ce447adae5cb93f9ec17018bf55b",
                    "callData": "0x",
                    "decodedMethod": {
                        "callParams": [],
                        "constructorArguments": "",
                        "name": "getReserves",
                        "returnParams": [
                            {
                                "name": "_reserve0",
                                "type": "uint112",
                                "value": "272,980,980,998,306,632,442"
                            },
                            {
                                "name": "_reserve1",
                                "type": "uint112",
                                "value": "778,925,199,910,661,686,018,187"
                            },
                            {
                                "name": "_blockTimestampLast",
                                "type": "uint32",
                                "value": "1,622,677,783"
                            }
                        ],
                        "signature": "getReserves()"
                    },
                    "errorInfo": "",
                    "fromAddress": "0x7a250d5630b4cf539739df2c5dacb4c659f2488d",
                    "gasUsed": 2504,
                    "id": 1,
                    "methodDecoded": true,
                    "operation": "STATICCALL",
                    "output": "0x00000000000000000000000000000000000000000000000ecc5f43e719b992fa00000000000000000000000000000000000000000000a4f19ea47c2a6f2fc08b0000000000000000000000000000000000000000000000000000000060b81917",
                    "revert": false,
                    "revertMessage": "",
                    "selector": "0x0902f1ac",
                    "status": true,
                    "value": "0"
                },
                "nodeType": 0
            },
            "10": {
                "invocation": {
                    "address": "0xdc349913d53b446485e98b76800b6254f43df695",
                    "callData": "0x0000000000000000000000001f964ff83c54ce447adae5cb93f9ec17018bf55b",
                    "decodedMethod": {
                        "callParams": [
                            {
                                "name": "account",
                                "type": "address",
                                "value": "0x1f964ff83c54ce447adae5cb93f9ec17018bf55b"
                            }
                        ],
                        "constructorArguments": "",
                        "name": "balanceOf",
                        "returnParams": [
                            {
                                "decimalAvailable": true,
                                "name": "",
                                "type": "uint256",
                                "value": "778,390,627,790,997,859,950,944"
                            }
                        ],
                        "signature": "balanceOf(address)"
                    },
                    "errorInfo": "",
                    "fromAddress": "0x1f964ff83c54ce447adae5cb93f9ec17018bf55b",
                    "gasUsed": 10379,
                    "id": 10,
                    "methodDecoded": true,
                    "operation": "STATICCALL",
                    "output": "0x00000000000000000000000000000000000000000000a4d4a3f6cd9db1396160",
                    "revert": false,
                    "revertMessage": "",
                    "selector": "0x70a08231",
                    "status": true,
                    "value": "0"
                },
                "nodeType": 0
            },
            "11": {
                "event": {
                    "contract": "0x1f964ff83c54ce447adae5cb93f9ec17018bf55b",
                    "decodedLog": {
                        "name": "Sync",
                        "params": [
                            {
                                "name": "reserve0",
                                "type": "uint112",
                                "value": "273,169,048,439,306,632,442"
                            },
                            {
                                "name": "reserve1",
                                "type": "uint112",
                                "value": "778,390,627,790,997,859,950,944"
                            }
                        ],
                        "signature": "Sync(uint112,uint112)"
                    },
                    "id": 11,
                    "logData": "0x00000000000000000000000000000000000000000000000ecefb6a3e7058bcfa00000000000000000000000000000000000000000000a4d4a3f6cd9db1396160",
                    "logDecoded": true,
                    "operation": "EVENT",
                    "revert": false,
                    "status": true,
                    "topics": [
                        "0x1c411e9a96e071241c2f21f7726b17ae89e3cab4c78be50e062b03a9fffbbad1"
                    ]
                },
                "nodeType": 1
            },
            "12": {
                "event": {
                    "contract": "0x1f964ff83c54ce447adae5cb93f9ec17018bf55b",
                    "decodedLog": {
                        "name": "Swap",
                        "params": [
                            {
                                "name": "sender",
                                "type": "address",
                                "value": "0x7a250d5630b4cf539739df2c5dacb4c659f2488d"
                            },
                            {
                                "name": "to",
                                "type": "address",
                                "value": "0xb7bf7f135b505b386f55a48eb77f872d15b5fb2c"
                            },
                            {
                                "name": "amount0In",
                                "type": "uint256",
                                "value": "188,067,441,000,000,000"
                            },
                            {
                                "name": "amount1In",
                                "type": "uint256",
                                "value": "83,252,746,097,198,034"
                            },
                            {
                                "name": "amount0Out",
                                "type": "uint256",
                                "value": "0"
                            },
                            {
                                "name": "amount1Out",
                                "type": "uint256",
                                "value": "534,655,372,409,923,265,277"
                            }
                        ],
                        "signature": "Swap(address,uint256,uint256,uint256,uint256,address)"
                    },
                    "id": 12,
                    "logData": "0x000000000000000000000000000000000000000000000000029c2657569f2a000000000000000000000000000000000000000000000000000127c5ee75b303d2000000000000000000000000000000000000000000000000000000000000000000000000000000000000000000000000000000000000001cfbd5747b33a962fd",
                    "logDecoded": true,
                    "operation": "EVENT",
                    "revert": false,
                    "status": true,
                    "topics": [
                        "0xd78ad95fa46c994b6551d0da85fc275fe613ce37657fb8d5e3d130840159d822",
                        "0x0000000000000000000000007a250d5630b4cf539739df2c5dacb4c659f2488d",
                        "0x000000000000000000000000b7bf7f135b505b386f55a48eb77f872d15b5fb2c"
                    ]
                },
                "nodeType": 1
            },
            "2": {
                "invocation": {
                    "address": "0xc02aaa39b223fe8d0a0e5c4f27ead9083c756cc2",
                    "callData": "0x",
                    "decodedMethod": {
                        "callParams": [],
                        "constructorArguments": "",
                        "name": "deposit",
                        "returnParams": [],
                        "signature": "deposit()"
                    },
                    "errorInfo": "",
                    "fromAddress": "0x7a250d5630b4cf539739df2c5dacb4c659f2488d",
                    "gasUsed": 23974,
                    "id": 2,
                    "methodDecoded": true,
                    "operation": "CALL",
                    "output": "",
                    "revert": false,
                    "revertMessage": "",
                    "selector": "0xd0e30db0",
                    "status": true,
                    "value": "0.188067441"
                },
                "nodeType": 0
            },
            "3": {
                "event": {
                    "contract": "0xc02aaa39b223fe8d0a0e5c4f27ead9083c756cc2",
                    "decodedLog": {
                        "name": "Deposit",
                        "params": [
                            {
                                "name": "dst",
                                "type": "address",
                                "value": "0x7a250d5630b4cf539739df2c5dacb4c659f2488d"
                            },
                            {
                                "name": "wad",
                                "type": "uint256",
                                "value": "188,067,441,000,000,000"
                            }
                        ],
                        "signature": "Deposit(address,uint256)"
                    },
                    "id": 3,
                    "logData": "0x000000000000000000000000000000000000000000000000029c2657569f2a00",
                    "logDecoded": true,
                    "operation": "EVENT",
                    "revert": false,
                    "status": true,
                    "topics": [
                        "0xe1fffcc4923d04b559f4d29a8bfc6cda04eb5b0d3c460751c2402c5c5cc9109c",
                        "0x0000000000000000000000007a250d5630b4cf539739df2c5dacb4c659f2488d"
                    ]
                },
                "nodeType": 1
            },
            "4": {
                "invocation": {
                    "address": "0xc02aaa39b223fe8d0a0e5c4f27ead9083c756cc2",
                    "callData": "0x0000000000000000000000001f964ff83c54ce447adae5cb93f9ec17018bf55b000000000000000000000000000000000000000000000000029c2657569f2a00",
                    "decodedMethod": {
                        "callParams": [
                            {
                                "name": "dst",
                                "type": "address",
                                "value": "0x1f964ff83c54ce447adae5cb93f9ec17018bf55b"
                            },
                            {
                                "decimalAvailable": true,
                                "name": "wad",
                                "type": "uint256",
                                "value": "188,067,441,000,000,000"
                            }
                        ],
                        "constructorArguments": "",
                        "name": "transfer",
                        "returnParams": [
                            {
                                "name": "",
                                "type": "bool",
                                "value": true
                            }
                        ],
                        "signature": "transfer(address,uint256)"
                    },
                    "errorInfo": "",
                    "fromAddress": "0x7a250d5630b4cf539739df2c5dacb4c659f2488d",
                    "gasUsed": 8062,
                    "id": 4,
                    "methodDecoded": true,
                    "operation": "CALL",
                    "output": "0x0000000000000000000000000000000000000000000000000000000000000001",
                    "revert": false,
                    "revertMessage": "",
                    "selector": "0xa9059cbb",
                    "status": true,
                    "value": "0"
                },
                "nodeType": 0
            },
            "5": {
                "event": {
                    "contract": "0xc02aaa39b223fe8d0a0e5c4f27ead9083c756cc2",
                    "decodedLog": {
                        "name": "Transfer",
                        "params": [
                            {
                                "name": "src",
                                "type": "address",
                                "value": "0x7a250d5630b4cf539739df2c5dacb4c659f2488d"
                            },
                            {
                                "name": "dst",
                                "type": "address",
                                "value": "0x1f964ff83c54ce447adae5cb93f9ec17018bf55b"
                            },
                            {
                                "decimalAvailable": true,
                                "name": "wad",
                                "type": "uint256",
                                "value": "188,067,441,000,000,000"
                            }
                        ],
                        "signature": "Transfer(address,address,uint256)"
                    },
                    "id": 5,
                    "logData": "0x000000000000000000000000000000000000000000000000029c2657569f2a00",
                    "logDecoded": true,
                    "operation": "EVENT",
                    "revert": false,
                    "status": true,
                    "topics": [
                        "0xddf252ad1be2c89b69c2b068fc378daa952ba7f163c4a11628f55a4df523b3ef",
                        "0x0000000000000000000000007a250d5630b4cf539739df2c5dacb4c659f2488d",
                        "0x0000000000000000000000001f964ff83c54ce447adae5cb93f9ec17018bf55b"
                    ]
                },
                "nodeType": 1
            },
            "6": {
                "invocation": {
                    "address": "0x1f964ff83c54ce447adae5cb93f9ec17018bf55b",
                    "callData": "0x000000000000000000000000000000000000000000000000000000000000000000000000000000000000000000000000000000000000001cfbd5747b33a962fd000000000000000000000000b7bf7f135b505b386f55a48eb77f872d15b5fb2c00000000000000000000000000000000000000000000000000000000000000800000000000000000000000000000000000000000000000000000000000000000",
                    "decodedMethod": {
                        "callParams": [
                            {
                                "name": "amount0Out",
                                "type": "uint256",
                                "value": "0"
                            },
                            {
                                "name": "amount1Out",
                                "type": "uint256",
                                "value": "534,655,372,409,923,265,277"
                            },
                            {
                                "name": "to",
                                "type": "address",
                                "value": "0xb7bf7f135b505b386f55a48eb77f872d15b5fb2c"
                            },
                            {
                                "name": "data",
                                "type": "bytes",
                                "value": "0x"
                            }
                        ],
                        "constructorArguments": "",
                        "name": "swap",
                        "returnParams": [],
                        "signature": "swap(uint256,uint256,address,bytes)"
                    },
                    "errorInfo": "",
                    "fromAddress": "0x7a250d5630b4cf539739df2c5dacb4c659f2488d",
                    "gasUsed": 108868,
                    "id": 6,
                    "methodDecoded": true,
                    "operation": "CALL",
                    "output": "",
                    "revert": false,
                    "revertMessage": "",
                    "selector": "0x022c0d9f",
                    "status": true,
                    "value": "0"
                },
                "nodeType": 0
            },
            "7": {
                "invocation": {
                    "address": "0xdc349913d53b446485e98b76800b6254f43df695",
                    "callData": "0x000000000000000000000000b7bf7f135b505b386f55a48eb77f872d15b5fb2c00000000000000000000000000000000000000000000001cfbd5747b33a962fd",
                    "decodedMethod": {
                        "callParams": [
                            {
                                "name": "recipient",
                                "type": "address",
                                "value": "0xb7bf7f135b505b386f55a48eb77f872d15b5fb2c"
                            },
                            {
                                "decimalAvailable": true,
                                "name": "amount",
                                "type": "uint256",
                                "value": "534,655,372,409,923,265,277"
                            }
                        ],
                        "constructorArguments": "",
                        "name": "transfer",
                        "returnParams": [
                            {
                                "name": "",
                                "type": "bool",
                                "value": true
                            }
                        ],
                        "signature": "transfer(address,uint256)"
                    },
                    "errorInfo": "",
                    "fromAddress": "0x1f964ff83c54ce447adae5cb93f9ec17018bf55b",
                    "gasUsed": 64124,
                    "id": 7,
                    "methodDecoded": true,
                    "operation": "CALL",
                    "output": "0x0000000000000000000000000000000000000000000000000000000000000001",
                    "revert": false,
                    "revertMessage": "",
                    "selector": "0xa9059cbb",
                    "status": true,
                    "value": "0"
                },
                "nodeType": 0
            },
            "8": {
                "event": {
                    "contract": "0xdc349913d53b446485e98b76800b6254f43df695",
                    "decodedLog": {
                        "name": "Transfer",
                        "params": [
                            {
                                "name": "from",
                                "type": "address",
                                "value": "0x1f964ff83c54ce447adae5cb93f9ec17018bf55b"
                            },
                            {
                                "name": "to",
                                "type": "address",
                                "value": "0xb7bf7f135b505b386f55a48eb77f872d15b5fb2c"
                            },
                            {
                                "decimalAvailable": true,
                                "name": "value",
                                "type": "uint256",
                                "value": "523,962,264,961,724,799,973"
                            }
                        ],
                        "signature": "Transfer(address,address,uint256)"
                    },
                    "id": 8,
                    "logData": "0x00000000000000000000000000000000000000000000001c676fe7e960b55be5",
                    "logDecoded": true,
                    "operation": "EVENT",
                    "revert": false,
                    "status": true,
                    "topics": [
                        "0xddf252ad1be2c89b69c2b068fc378daa952ba7f163c4a11628f55a4df523b3ef",
                        "0x0000000000000000000000001f964ff83c54ce447adae5cb93f9ec17018bf55b",
                        "0x000000000000000000000000b7bf7f135b505b386f55a48eb77f872d15b5fb2c"
                    ]
                },
                "nodeType": 1
            },
            "9": {
                "invocation": {
                    "address": "0xc02aaa39b223fe8d0a0e5c4f27ead9083c756cc2",
                    "callData": "0x0000000000000000000000001f964ff83c54ce447adae5cb93f9ec17018bf55b",
                    "decodedMethod": {
                        "callParams": [
                            {
                                "name": "",
                                "type": "address",
                                "value": "0x1f964ff83c54ce447adae5cb93f9ec17018bf55b"
                            }
                        ],
                        "constructorArguments": "",
                        "name": "balanceOf",
                        "returnParams": [
                            {
                                "decimalAvailable": true,
                                "name": "",
                                "type": "uint256",
                                "value": "273,169,048,439,306,632,442"
                            }
                        ],
                        "signature": "balanceOf(address)"
                    },
                    "errorInfo": "",
                    "fromAddress": "0x1f964ff83c54ce447adae5cb93f9ec17018bf55b",
                    "gasUsed": 534,
                    "id": 9,
                    "methodDecoded": true,
                    "operation": "STATICCALL",
                    "output": "0x00000000000000000000000000000000000000000000000ecefb6a3e7058bcfa",
                    "revert": false,
                    "revertMessage": "",
                    "selector": "0x70a08231",
                    "status": true,
                    "value": "0"
                },
                "nodeType": 0
            }
        },
        "gasFlame": [
            {
                "children": [
                    {
                        "children": [
                            {
                                "children": [],
                                "depth": 0,
                                "name": "Initial Gas",
                                "value": 22860
                            },
                            {
                                "children": [
                                    {
                                        "children": [],
                                        "depth": 1,
                                        "name": "getReserves",
                                        "value": 2504
                                    },
                                    {
                                        "children": [],
                                        "depth": 1,
                                        "name": "deposit",
                                        "value": 23974
                                    },
                                    {
                                        "children": [],
                                        "depth": 1,
                                        "name": "transfer",
                                        "value": 8062
                                    },
                                    {
                                        "children": [
                                            {
                                                "children": [],
                                                "depth": 2,
                                                "name": "transfer",
                                                "value": 64124
                                            },
                                            {
                                                "children": [],
                                                "depth": 2,
                                                "name": "balanceOf",
                                                "value": 534
                                            },
                                            {
                                                "children": [],
                                                "depth": 2,
                                                "name": "balanceOf",
                                                "value": 10379
                                            }
                                        ],
                                        "depth": 1,
                                        "name": "swap",
                                        "value": 108868
                                    }
                                ],
                                "depth": 0,
                                "name": "Executed Gas",
                                "value": 162603
                            }
                        ],
                        "depth": -1,
                        "name": "Actual Gas Used",
                        "value": 162763
                    },
                    {
                        "children": [],
                        "depth": -1,
                        "name": "Refunded Gas",
                        "value": 22700
                    }
                ],
                "depth": -2,
                "name": "Total Gas",
                "value": 185463
            }
        ],
        "isConfirmed": true,
        "mainTrace": [
            {
                "children": [
                    {
                        "children": [
                            {
                                "children": [],
                                "depth": 1,
                                "id": 1,
                                "order": 1
                            },
                            {
                                "children": [
                                    {
                                        "children": [],
                                        "depth": 2,
                                        "id": 3,
                                        "order": 3
                                    }
                                ],
                                "depth": 1,
                                "id": 2,
                                "order": 2
                            },
                            {
                                "children": [
                                    {
                                        "children": [],
                                        "depth": 2,
                                        "id": 5,
                                        "order": 5
                                    }
                                ],
                                "depth": 1,
                                "id": 4,
                                "order": 4
                            },
                            {
                                "children": [
                                    {
                                        "children": [
                                            {
                                                "children": [],
                                                "depth": 3,
                                                "id": 8,
                                                "order": 8
                                            }
                                        ],
                                        "depth": 2,
                                        "id": 7,
                                        "order": 7
                                    },
                                    {
                                        "children": [],
                                        "depth": 2,
                                        "id": 9,
                                        "order": 9
                                    },
                                    {
                                        "children": [],
                                        "depth": 2,
                                        "id": 10,
                                        "order": 10
                                    },
                                    {
                                        "children": [],
                                        "depth": 2,
                                        "id": 11,
                                        "order": 11
                                    },
                                    {
                                        "children": [],
                                        "depth": 2,
                                        "id": 12,
                                        "order": 12
                                    }
                                ],
                                "depth": 1,
                                "id": 6,
                                "order": 6
                            }
                        ],
                        "depth": 0,
                        "id": 0,
                        "order": 0
                    }
                ],
                "depth": -1,
                "id": -1,
                "order": -1
            }
        ],
        "mainTraceNodeCount": 13,
        "parentIdMap": {
            "0": -1,
            "1": 0,
            "10": 6,
            "11": 6,
            "12": 6,
            "2": 0,
            "3": 2,
            "4": 0,
            "5": 4,
            "6": 0,
            "7": 6,
            "8": 7,
            "9": 6
        },
        "tidyTrace": [
            {
                "children": [
                    {
                        "children": [
                            {
                                "children": [
                                    {
                                        "children": [],
                                        "depth": 2,
                                        "id": 3,
                                        "order": 3
                                    }
                                ],
                                "depth": 1,
                                "id": 2,
                                "order": 2
                            },
                            {
                                "children": [
                                    {
                                        "children": [],
                                        "depth": 2,
                                        "id": 5,
                                        "order": 5
                                    }
                                ],
                                "depth": 1,
                                "id": 4,
                                "order": 4
                            },
                            {
                                "children": [
                                    {
                                        "children": [
                                            {
                                                "children": [],
                                                "depth": 3,
                                                "id": 8,
                                                "order": 8
                                            }
                                        ],
                                        "depth": 2,
                                        "id": 7,
                                        "order": 7
                                    },
                                    {
                                        "children": [],
                                        "depth": 2,
                                        "id": 11,
                                        "order": 11
                                    },
                                    {
                                        "children": [],
                                        "depth": 2,
                                        "id": 12,
                                        "order": 12
                                    }
                                ],
                                "depth": 1,
                                "id": 6,
                                "order": 6
                            }
                        ],
                        "depth": 0,
                        "id": 0,
                        "order": 0
                    }
                ],
                "depth": -1,
                "id": -1,
                "order": -1
            }
        ],
        "tidyTraceNodeCount": 10
    },
    "state_change": {
        "stateChanges": [
            {
                "address": "0x1f964ff83c54ce447adae5cb93f9ec17018bf55b",
                "erc": "ERC-20",
                "slots": [
                    {
                        "current": "0x000000000000000000000000002359b1190f0ea95c511cb43e42d7ee2ee62ae8",
                        "key": "0x0000000000000000000000000000000000000000000000000000000000000009",
                        "prev": "0x000000000000000000000000002359ae0cd4bb60012de7ce88248f7137af6eb4"
                    },
                    {
                        "current": "0x000000000000000000000000000000000116c0ef1b361aace967d06e5e4e569b",
                        "key": "0x000000000000000000000000000000000000000000000000000000000000000a",
                        "prev": "0x000000000000000000000000000000000116baa75eeb2e4627375720da0006bb"
                    },
                    {
                        "current": "0x60b8195d00000000a4d4a3f6cd9db139616000000000000ecefb6a3e7058bcfa",
                        "key": "0x0000000000000000000000000000000000000000000000000000000000000008",
                        "prev": "0x60b8191700000000a4f19ea47c2a6f2fc08b00000000000ecc5f43e719b992fa"
                    }
                ],
                "storageVariables": [
                    {
                        "name": "reserve0",
                        "type": "uint112",
                        "value": {
                            "current": "273169048439306632442",
                            "prev": "272980980998306632442",
                            "typeTag": 1
                        }
                    },
                    {
                        "name": "reserve1",
                        "type": "uint112",
                        "value": {
                            "current": "778390627790997859950944",
                            "prev": "778925199910661686018187",
                            "typeTag": 1
                        }
                    },
                    {
                        "name": "blockTimestampLast",
                        "type": "uint32",
                        "value": {
                            "current": "1622677853",
                            "prev": "1622677783",
                            "typeTag": 1
                        }
                    },
                    {
                        "name": "price0CumulativeLast",
                        "type": "uint256",
                        "value": {
                            "current": "788339338684325197378847401100426505424874216",
                            "prev": "788338301583646015490781805820897307223092916",
                            "typeTag": 1
                        }
                    },
                    {
                        "name": "price1CumulativeLast",
                        "type": "uint256",
                        "value": {
                            "current": "1447371693268927341252243334481467035",
                            "prev": "1447244315338008187346704859442185915",
                            "typeTag": 1
                        }
                    }
                ]
            },
            {
                "address": "0xc02aaa39b223fe8d0a0e5c4f27ead9083c756cc2",
                "erc": "ERC-20",
                "slots": [
                    {
                        "current": "0x00000000000000000000000000000000000000000000000ecefb6a3e7058bcfa",
                        "key": "0x0d7addb1b298f382d7d458ddce15e9b02e9ab33b75a6b0c12122b887b9a3c696",
                        "prev": "0x00000000000000000000000000000000000000000000000ecc5f43e719b992fa"
                    }
                ],
                "storageVariables": [
                    {
                        "name": "balanceOf",
                        "type": "mapping(address => uint256)",
                        "value": {
                            "pairs": [
                                {
                                    "key": "0x1f964ff83c54ce447adae5cb93f9ec17018bf55b",
                                    "value": {
                                        "current": "273169048439306632442",
                                        "prev": "272980980998306632442",
                                        "typeTag": 1
                                    }
                                }
                            ],
                            "typeTag": 4
                        }
                    }
                ]
            },
            {
                "address": "0xdc349913d53b446485e98b76800b6254f43df695",
                "erc": "ERC-20",
                "slots": [
                    {
                        "current": "0xe7610fd44bc472b73b8cd6217780d796035fee0f2ebc1460f3b00add69a0c526",
                        "key": "0x0000000000000000000000000000000000000000000000000000000000000006",
                        "prev": "0xe761117356b8b60811b1f1484a249499a8e032c00a1876ddac41ec7c8f0cfa56"
                    },
                    {
                        "current": "0x000000000000000000000000000000000000000000085b68af9ceb27cbc6f31c",
                        "key": "0x0000000000000000000000000000000000000000000000000000000000000007",
                        "prev": "0x000000000000000000000000000000000000000000085b681b375e95f8d2ec04"
                    },
                    {
                        "current": "0x01cd01883deac764bd6ab5c90623ea2f6d112cc94c2aa90cd0da65c8fe5820ad",
                        "key": "0x521a9ab7b1aae011392f3a2c06826ff2c2ca843c80abda4567153fde4c05be06",
                        "prev": "0x01cd5298619fed2e90aadab99c85a0e5144cd000749442021d51c615c3e12dc7"
                    },
                    {
                        "current": "0x000116f4464069db0094241fe6dd53dce65bf41da9e6d2666b80a130ba307455",
                        "key": "0xe95c66d7be298070d994a54833f5bb8631fbd4b19c0486295cf0be2bff7564b7",
                        "prev": "0x0000c7832d7f876203791a56231f5a2ae4a095975cd99bedd79b22831a139c6b"
                    }
                ],
                "storageVariables": [
                    {
                        "name": "_rTotal",
                        "type": "uint256",
                        "value": {
                            "current": "104655761437701170228157265293691334538609374451397544439163438738556082767142",
                            "prev": "104655772627232643962622868485838126284634606465014355293895574655669224929878",
                            "typeTag": 1
                        }
                    },
                    {
                        "name": "_tFeeTotal",
                        "type": "uint256",
                        "value": {
                            "current": "10103073022489446064780060",
                            "prev": "10103062329381997866314756",
                            "typeTag": 1
                        }
                    },
                    {
                        "name": "_rOwned",
                        "type": "mapping(address => uint256)",
                        "value": {
                            "pairs": [
                                {
                                    "key": "0x1f964ff83c54ce447adae5cb93f9ec17018bf55b",
                                    "value": {
                                        "current": "814527071682560920399446989557809928121929549476156547451710704781295624365",
                                        "prev": "815086548256247643679687171597282313954424405926084428041838489699749014983",
                                        "typeTag": 1
                                    }
                                },
                                {
                                    "key": "0xb7bf7f135b505b386f55a48eb77f872d15b5fb2c",
                                    "value": {
                                        "current": "1925271109753154399275469648808394966603796484516818944119901785861157973",
                                        "prev": "1376984067540165584638479756127755159340953651399793086128033980549930091",
                                        "typeTag": 1
                                    }
                                }
                            ],
                            "typeTag": 4
                        }
                    }
                ]
            }
        ]
    }
}