{
    "balance_change": {
        "balanceChanges": [
            {
                "account": "0x56178a0d5f301baf6cf3e1cd53d9863437345bf9",
                "assets": [
                    {
                        "address": "0x9f8f72aa9304c8b593d555f12ef6589cc3a579a2",
                        "amount": "3.966123753267383562",
                        "iconUrl": "https://assets.blocksec.com/icon/9361536498fbf76e6152f13d41df201aae3e94cf23c8459569e7c47c22f44dc1.png",
                        "isERC1155": false,
                        "isERC721": false,
                        "sign": false,
                        "value": ""
                    },
                    {
                        "address": "0xc02aaa39b223fe8d0a0e5c4f27ead9083c756cc2",
                        "amount": "5.437435860294016724",
                        "iconUrl": "https://assets.blocksec.com/icon/f1cb2d02c471d545bbc7722daf3277fd852d98e63d118771af7047bd8256c516.png",
                        "isERC1155": false,
                        "isERC721": false,
                        "sign": true,
                        "value": "2102.781244"
                    }
                ]
            },
            {
                "account": "0xc2adda861f89bbb333c90c492cb837741916a225",
                "assets": [
                    {
                        "address": "0x9f8f72aa9304c8b593d555f12ef6589cc3a579a2",
                        "amount": "3.966123753267383562",
                        "iconUrl": "https://assets.blocksec.com/icon/9361536498fbf76e6152f13d41df201aae3e94cf23c8459569e7c47c22f44dc1.png",
                        "isERC1155": false,
                        "isERC721": false,
                        "sign": true,
                        "value": ""
                    },
                    {
                        "address": "0xc02aaa39b223fe8d0a0e5c4f27ead9083c756cc2",
                        "amount": "5.437435860294016724",
                        "iconUrl": "https://assets.blocksec.com/icon/f1cb2d02c471d545bbc7722daf3277fd852d98e63d118771af7047bd8256c516.png",
                        "isERC1155": false,
                        "isERC721": false,
                        "sign": false,
                        "value": "2102.781244"
                    }
                ]
            }
        ]
    },
    "profile": {
        "basic_info": {
            "baseFee": "",
            "blockNumber": 11151184,
            "callData": "0x1cff79cd000000000000000000000000728258295b1ccbc61d72c4e86c5b44345ac790ce000000000000000000000000000000000000000000000000000000000000004000000000000000000000000000000000000000000000000000000000000001042fdc7315000000000000000000000000c2adda861f89bbb333c90c492cb837741916a2250000000000000000000000009f8f72aa9304c8b593d555f12ef6589cc3a579a200000000000000000000000056178a0d5f301baf6cf3e1cd53d9863437345bf9000000000000000000000000000000000000000000000027d1a6c74b13ad000000000000000000000000000000000000000000000000178a049f240f638c6a0000000000000000000000000000000000000000000000000012e4b788077b8e6c000000000000000000000000000000000000000000000000000000005f9a9d4a000000000000000000000000000000000000000000000000000000000000000300000000000000000000000000000000000000000000000000000000",
            "debugEnable": true,
            "errorInfo": "",
            "eventCount": 4,
            "feeRecipient": "0xe9b54a47e3f401d37798fc4e22f14b78475c2afc",
            "formatValue": "0",
            "gasLimit": 400000,
            "gasPrice": "87.000000001",
            "gasUsed": 114077,
            "intTxnCount": 8,
            "internalRevert": false,
            "internalRevertMessage": "",
            "isContractCreation": false,
            "isFlashloan": false,
            "maxFee": "",
            "nonce": 117,
            "overwritedBlockNumber": -1,
            "priorityFee": "",
            "receiver": "0xa57bd00134b2850b2a1c55860c9e9ea100fdd6cf",
            "revertMessage": "",
            "sender": "0xa9b886e5932ae7a44b776d3f1ccb9fefa0732859",
            "simulationEnable": true,
            "sourceTxnHash": "0xa7de640f950460eb746af60961508850a58963ca80cf1fce2527b9a6fdf3dff5",
            "status": true,
            "timestamp": "2020-10-29T10:43:12Z",
            "transactionFee": "0.009924699000114077",
            "txnHash": "0xa7de640f950460eb746af60961508850a58963ca80cf1fce2527b9a6fdf3dff5",
            "txnIndex": 171,
            "type": 0,
            "value": "0"
        },
        "fund_flow": [
            {
                "amount": "3.966123753267383562",
                "from": "0x56178a0d5f301baf6cf3e1cd53d9863437345bf9",
                "id": 1,
                "isERC1155": false,
                "isERC721": false,
                "isReverted": false,
                "order": 1,
                "to": "0xc2adda861f89bbb333c90c492cb837741916a225",
                "token": "0x9f8f72aa9304c8b593d555f12ef6589cc3a579a2"
            },
            {
                "amount": "5.437435860294016724",
                "from": "0xc2adda861f89bbb333c90c492cb837741916a225",
                "id": 2,
                "isERC1155": false,
                "isERC721": false,
                "isReverted": false,
                "order": 2,
                "to": "0x56178a0d5f301baf6cf3e1cd53d9863437345bf9",
                "token": "0xc02aaa39b223fe8d0a0e5c4f27ead9083c756cc2"
            }
        ],
        "token_infos": [
            {
                "address": "0x9f8f72aa9304c8b593d555f12ef6589cc3a579a2",
                "decimals": 18
            },
            {
                "address": "0xc02aaa39b223fe8d0a0e5c4f27ead9083c756cc2",
                "decimals": 18
            },
            {
                "address": "0xeeeeeeeeeeeeeeeeeeeeeeeeeeeeeeeeeeeeeeee",
                "decimals": 18
            }
        ]
    },
    "address_label": {
        "labels": [
            {
                "address": "0x0000000000000000000000000000000000000004",
                "label": "Precompiled"
            },
            {
                "address": "0x0000000000000000000000000000000000000001",
                "label": "Precompiled"
            },
            {
                "address": "0xc02aaa39b223fe8d0a0e5c4f27ead9083c756cc2",
                "label": "Wrapped Ether (WETH)"
            },
            {
                "address": "0xc2adda861f89bbb333c90c492cb837741916a225",
                "label": "Uniswap V2: MKR"
            },
            {
                "address": "0xa57bd00134b2850b2a1c55860c9e9ea100fdd6cf",
                "label": "MEV Bot: 0xa57...6CF"
            },
            {
                "address": "0x9f8f72aa9304c8b593d555f12ef6589cc3a579a2",
                "label": "Sky: MKR Token"
            },
            {
                "address": "0x0000000000000000000000000000000000000002",
                "label": "Precompiled"
            },
            {
                "address": "0x0000000000000000000000000000000000000003",
                "label": "Precompiled"
            },
            {
                "address": "0xeeeeeeeeeeeeeeeeeeeeeeeeeeeeeeeeeeeeeeee",
                "label": "Ether"
            }
        ]
    },
    "trace": {
        "accountLabels": null,
        "dataMap": {
            "-1": {
                "invocation": {
                    "address": "0xa9b886e5932ae7a44b776d3f1ccb9fefa0732859",
                    "callData": "",
                    "decodedMethod": null,
                    "errorInfo": "",
                    "fromAddress": "",
                    "gasUsed": 0,
                    "id": -1,
                    "methodDecoded": false,
                    "operation": "",
                    "output": "",
                    "revert": false,
                    "revertMessage": "",
                    "selector": "",
                    "status": false,
                    "value": ""
                },
                "nodeType": 0
            },
            "0": {
                "invocation": {
                    "address": "0xa57bd00134b2850b2a1c55860c9e9ea100fdd6cf",
                    "callData": "0x000000000000000000000000728258295b1ccbc61d72c4e86c5b44345ac790ce000000000000000000000000000000000000000000000000000000000000004000000000000000000000000000000000000000000000000000000000000001042fdc7315000000000000000000000000c2adda861f89bbb333c90c492cb837741916a2250000000000000000000000009f8f72aa9304c8b593d555f12ef6589cc3a579a200000000000000000000000056178a0d5f301baf6cf3e1cd53d9863437345bf9000000000000000000000000000000000000000000000027d1a6c74b13ad000000000000000000000000000000000000000000000000178a049f240f638c6a0000000000000000000000000000000000000000000000000012e4b788077b8e6c000000000000000000000000000000000000000000000000000000005f9a9d4a000000000000000000000000000000000000000000000000000000000000000300000000000000000000000000000000000000000000000000000000",
                    "decodedMethod": {
                        "callParams": [
                            {
                                "name": "_target",
                                "type": "address",
                                "value": "0x728258295b1ccbc61d72c4e86c5b44345ac790ce"
                            },
                            {
                                "name": "_data",
                                "type": "bytes",
                                "value": "0x2fdc7315000000000000000000000000c2adda861f89bbb333c90c492cb837741916a2250000000000000000000000009f8f72aa9304c8b593d555f12ef6589cc3a579a200000000000000000000000056178a0d5f301baf6cf3e1cd53d9863437345bf9000000000000000000000000000000000000000000000027d1a6c74b13ad000000000000000000000000000000000000000000000000178a049f240f638c6a0000000000000000000000000000000000000000000000000012e4b788077b8e6c000000000000000000000000000000000000000000000000000000005f9a9d4a0000000000000000000000000000000000000000000000000000000000000003"
                            }
                        ],
                        "constructorArguments": "",
                        "name": "execute",
                        "returnParams": [],
                        "signature": "execute(address,bytes)"
                    },
                    "errorInfo": "",
                    "fromAddress": "0xa9b886e5932ae7a44b776d3f1ccb9fefa0732859",
                    "gasUsed": 114077,
                    "id": 0,
                    "methodDecoded": true,
                    "operation": "CALL",
                    "output": "",
                    "revert": false,
                    "revertMessage": "",
                    "selector": "0x1cff79cd",
                    "status": true,
                    "value": "0"
                },
                "nodeType": 0
            },
            "1": {
                "invocation": {
                    "address": "0x728258295b1ccbc61d72c4e86c5b44345ac790ce",
                    "callData": "0x000000000000000000000000c2adda861f89bbb333c90c492cb837741916a2250000000000000000000000009f8f72aa9304c8b593d555f12ef6589cc3a579a200000000000000000000000056178a0d5f301baf6cf3e1cd53d9863437345bf9000000000000000000000000000000000000000000000027d1a6c74b13ad000000000000000000000000000000000000000000000000178a049f240f638c6a0000000000000000000000000000000000000000000000000012e4b788077b8e6c000000000000000000000000000000000000000000000000000000005f9a9d4a0000000000000000000000000000000000000000000000000000000000000003",
                    "decodedMethod": null,
                    "errorInfo": "",
                    "fromAddress": "0xa57bd00134b2850b2a1c55860c9e9ea100fdd6cf",
                    "gasUsed": 91984,
                    "id": 1,
                    "methodDecoded": false,
                    "operation": "DELEGATECALL",
                    "output": "0x0000000000000000000000000000000000000000000000004b75a71b2dcb9ed40000000000000000000000000000000000000000000000000086a288960bf447",
                    "revert": false,
                    "revertMessage": "",
                    "selector": "0x2fdc7315",
                    "status": true,
                    "value": "0"
                },
                "nodeType": 0
            },
            "10": {
                "invocation": {
                    "address": "0xc02aaa39b223fe8d0a0e5c4f27ead9083c756cc2",
                    "callData": "0x000000000000000000000000c2adda861f89bbb333c90c492cb837741916a225",
                    "decodedMethod": {
                        "callParams": [
                            {
                                "name": "",
                                "type": "address",
                                "value": "0xc2adda861f89bbb333c90c492cb837741916a225"
                            }
                        ],
                        "constructorArguments": "",
                        "name": "balanceOf",
                        "returnParams": [
                            {
                                "decimalAvailable": true,
                                "name": "",
                                "type": "uint256",
                                "value": "7,781,645,314,523,928,809,706"
                            }
                        ],
                        "signature": "balanceOf(address)"
                    },
                    "errorInfo": "",
                    "fromAddress": "0xc2adda861f89bbb333c90c492cb837741916a225",
                    "gasUsed": 1234,
                    "id": 10,
                    "methodDecoded": true,
                    "operation": "STATICCALL",
                    "output": "0x0000000000000000000000000000000000000000000001a5d805c0a2b9a150ea",
                    "revert": false,
                    "revertMessage": "",
                    "selector": "0x70a08231",
                    "status": true,
                    "value": "0"
                },
                "nodeType": 0
            },
            "11": {
                "event": {
                    "contract": "0xc2adda861f89bbb333c90c492cb837741916a225",
                    "decodedLog": {
                        "name": "Sync",
                        "params": [
                            {
                                "name": "reserve0",
                                "type": "uint112",
                                "value": "5,662,953,228,533,028,692,706"
                            },
                            {
                                "name": "reserve1",
                                "type": "uint112",
                                "value": "7,781,645,314,523,928,809,706"
                            }
                        ],
                        "signature": "Sync(uint112,uint112)"
                    },
                    "id": 11,
                    "logData": "0x000000000000000000000000000000000000000000000132fd4365bd1aa922e20000000000000000000000000000000000000000000001a5d805c0a2b9a150ea",
                    "logDecoded": true,
                    "operation": "EVENT",
                    "revert": false,
                    "status": true,
                    "topics": [
                        "0x1c411e9a96e071241c2f21f7726b17ae89e3cab4c78be50e062b03a9fffbbad1"
                    ]
                },
                "nodeType": 1
            },
            "12": {
                "event": {
                    "contract": "0xc2adda861f89bbb333c90c492cb837741916a225",
                    "decodedLog": {
                        "name": "Swap",
                        "params": [
                            {
                                "name": "sender",
                                "type": "address",
                                "value": "0xa57bd00134b2850b2a1c55860c9e9ea100fdd6cf"
                            },
                            {
                                "name": "to",
                                "type": "address",
                                "value": "0x56178a0d5f301baf6cf3e1cd53d9863437345bf9"
                            },
                            {
                                "name": "amount0In",
                                "type": "uint256",
                                "value": "3,966,123,753,267,383,562"
                            },
                            {
                                "name": "amount1In",
                                "type": "uint256",
                                "value": "0"
                            },
                            {
                                "name": "amount0Out",
                                "type": "uint256",
                                "value": "0"
                            },
                            {
                                "name": "amount1Out",
                                "type": "uint256",
                                "value": "5,437,435,860,294,016,724"
                            }
                        ],
                        "signature": "Swap(address,uint256,uint256,uint256,uint256,address)"
                    },
                    "id": 12,
                    "logData": "0x000000000000000000000000000000000000000000000000370a808a48bdcd0a000000000000000000000000000000000000000000000000000000000000000000000000000000000000000000000000000000000000000000000000000000000000000000000000000000000000000000000000000000004b75a71b2dcb9ed4",
                    "logDecoded": true,
                    "operation": "EVENT",
                    "revert": false,
                    "status": true,
                    "topics": [
                        "0xd78ad95fa46c994b6551d0da85fc275fe613ce37657fb8d5e3d130840159d822",
                        "0x000000000000000000000000a57bd00134b2850b2a1c55860c9e9ea100fdd6cf",
                        "0x00000000000000000000000056178a0d5f301baf6cf3e1cd53d9863437345bf9"
                    ]
                },
                "nodeType": 1
            },
            "2": {
                "invocation": {
                    "address": "0xc2adda861f89bbb333c90c492cb837741916a225",
                    "callData": "0x",
                    "decodedMethod": {
                        "callParams": [],
                        "constructorArguments": "",
                        "name": "getReserves",
                        "returnParams": [
                            {
                                "name": "_reserve0",
                                "type": "uint112",
                                "value": "5,658,987,104,779,761,309,144"
                            },
                            {
                                "name": "_reserve1",
                                "type": "uint112",
                                "value": "7,787,082,750,384,222,826,430"
                            },
                            {
                                "name": "_blockTimestampLast",
                                "type": "uint32",
                                "value": "1,603,968,029"
                            }
                        ],
                        "signature": "getReserves()"
                    },
                    "errorInfo": "",
                    "fromAddress": "0xa57bd00134b2850b2a1c55860c9e9ea100fdd6cf",
                    "gasUsed": 1204,
                    "id": 2,
                    "methodDecoded": true,
                    "operation": "CALL",
                    "output": "0x000000000000000000000000000000000000000000000132c638e532d1eb55d80000000000000000000000000000000000000000000001a6237b67bde76cefbe000000000000000000000000000000000000000000000000000000005f9a9c1d",
                    "revert": false,
                    "revertMessage": "",
                    "selector": "0x0902f1ac",
                    "status": true,
                    "value": "0"
                },
                "nodeType": 0
            },
            "3": {
                "invocation": {
                    "address": "0x9f8f72aa9304c8b593d555f12ef6589cc3a579a2",
                    "callData": "0x00000000000000000000000056178a0d5f301baf6cf3e1cd53d9863437345bf9",
                    "decodedMethod": {
                        "callParams": [
                            {
                                "name": "src",
                                "type": "address",
                                "value": "0x56178a0d5f301baf6cf3e1cd53d9863437345bf9"
                            }
                        ],
                        "constructorArguments": "",
                        "name": "balanceOf",
                        "returnParams": [
                            {
                                "decimalAvailable": true,
                                "name": "",
                                "type": "uint256",
                                "value": "69,532,898,262,575,879,762"
                            }
                        ],
                        "signature": "balanceOf(address)"
                    },
                    "errorInfo": "",
                    "fromAddress": "0xa57bd00134b2850b2a1c55860c9e9ea100fdd6cf",
                    "gasUsed": 1415,
                    "id": 3,
                    "methodDecoded": true,
                    "operation": "CALL",
                    "output": "0x000000000000000000000000000000000000000000000003c4f67a9198361652",
                    "revert": false,
                    "revertMessage": "",
                    "selector": "0x70a08231",
                    "status": true,
                    "value": "0"
                },
                "nodeType": 0
            },
            "4": {
                "invocation": {
                    "address": "0x9f8f72aa9304c8b593d555f12ef6589cc3a579a2",
                    "callData": "0x00000000000000000000000056178a0d5f301baf6cf3e1cd53d9863437345bf9000000000000000000000000c2adda861f89bbb333c90c492cb837741916a225000000000000000000000000000000000000000000000000370a808a48bdcd0a",
                    "decodedMethod": {
                        "callParams": [
                            {
                                "name": "src",
                                "type": "address",
                                "value": "0x56178a0d5f301baf6cf3e1cd53d9863437345bf9"
                            },
                            {
                                "name": "dst",
                                "type": "address",
                                "value": "0xc2adda861f89bbb333c90c492cb837741916a225"
                            },
                            {
                                "decimalAvailable": true,
                                "name": "wad",
                                "type": "uint256",
                                "value": "3,966,123,753,267,383,562"
                            }
                        ],
                        "constructorArguments": "",
                        "name": "transferFrom",
                        "returnParams": [
                            {
                                "name": "",
                                "type": "bool",
                                "value": true
                            }
                        ],
                        "signature": "transferFrom(address,address,uint256)"
                    },
                    "errorInfo": "",
                    "fromAddress": "0xa57bd00134b2850b2a1c55860c9e9ea100fdd6cf",
                    "gasUsed": 16647,
                    "id": 4,
                    "methodDecoded": true,
                    "operation": "CALL",
                    "output": "0x0000000000000000000000000000000000000000000000000000000000000001",
                    "revert": false,
                    "revertMessage": "",
                    "selector": "0x23b872dd",
                    "status": true,
                    "value": "0"
                },
                "nodeType": 0
            },
            "5": {
                "event": {
                    "contract": "0x9f8f72aa9304c8b593d555f12ef6589cc3a579a2",
                    "decodedLog": {
                        "name": "Transfer",
                        "params": [
                            {
                                "name": "from",
                                "type": "address",
                                "value": "0x56178a0d5f301baf6cf3e1cd53d9863437345bf9"
                            },
                            {
                                "name": "to",
                                "type": "address",
                                "value": "0xc2adda861f89bbb333c90c492cb837741916a225"
                            },
                            {
                                "decimalAvailable": true,
                                "name": "value",
                                "type": "uint256",
                                "value": "3,966,123,753,267,383,562"
                            }
                        ],
                        "signature": "Transfer(address,address,uint256)"
                    },
                    "id": 5,
                    "logData": "0x000000000000000000000000000000000000000000000000370a808a48bdcd0a",
                    "logDecoded": true,
                    "operation": "EVENT",
                    "revert": false,
                    "status": true,
                    "topics": [
                        "0xddf252ad1be2c89b69c2b068fc378daa952ba7f163c4a11628f55a4df523b3ef",
                        "0x00000000000000000000000056178a0d5f301baf6cf3e1cd53d9863437345bf9",
                        "0x000000000000000000000000c2adda861f89bbb333c90c492cb837741916a225"
                    ]
                },
                "nodeType": 1
            },
            "6": {
                "invocation": {
                    "address": "0xc2adda861f89bbb333c90c492cb837741916a225",
                    "callData": "0x00000000000000000000000000000000000000000000000000000000000000000000000000000000000000000000000000000000000000004b75a71b2dcb9ed400000000000000000000000056178a0d5f301baf6cf3e1cd53d9863437345bf900000000000000000000000000000000000000000000000000000000000000800000000000000000000000000000000000000000000000000000000000000000",
                    "decodedMethod": {
                        "callParams": [
                            {
                                "name": "amount0Out",
                                "type": "uint256",
                                "value": "0"
                            },
                            {
                                "name": "amount1Out",
                                "type": "uint256",
                                "value": "5,437,435,860,294,016,724"
                            },
                            {
                                "name": "to",
                                "type": "address",
                                "value": "0x56178a0d5f301baf6cf3e1cd53d9863437345bf9"
                            },
                            {
                                "name": "data",
                                "type": "bytes",
                                "value": "0x"
                            }
                        ],
                        "constructorArguments": "",
                        "name": "swap",
                        "returnParams": [],
                        "signature": "swap(uint256,uint256,address,bytes)"
                    },
                    "errorInfo": "",
                    "fromAddress": "0xa57bd00134b2850b2a1c55860c9e9ea100fdd6cf",
                    "gasUsed": 56834,
                    "id": 6,
                    "methodDecoded": true,
                    "operation": "CALL",
                    "output": "",
                    "revert": false,
                    "revertMessage": "",
                    "selector": "0x022c0d9f",
                    "status": true,
                    "value": "0"
                },
                "nodeType": 0
            },
            "7": {
                "invocation": {
                    "address": "0xc02aaa39b223fe8d0a0e5c4f27ead9083c756cc2",
                    "callData": "0x00000000000000000000000056178a0d5f301baf6cf3e1cd53d9863437345bf90000000000000000000000000000000000000000000000004b75a71b2dcb9ed4",
                    "decodedMethod": {
                        "callParams": [
                            {
                                "name": "dst",
                                "type": "address",
                                "value": "0x56178a0d5f301baf6cf3e1cd53d9863437345bf9"
                            },
                            {
                                "decimalAvailable": true,
                                "name": "wad",
                                "type": "uint256",
                                "value": "5,437,435,860,294,016,724"
                            }
                        ],
                        "constructorArguments": "",
                        "name": "transfer",
                        "returnParams": [
                            {
                                "name": "",
                                "type": "bool",
                                "value": true
                            }
                        ],
                        "signature": "transfer(address,uint256)"
                    },
                    "errorInfo": "",
                    "fromAddress": "0xc2adda861f89bbb333c90c492cb837741916a225",
                    "gasUsed": 15162,
                    "id": 7,
                    "methodDecoded": true,
                    "operation": "CALL",
                    "output": "0x0000000000000000000000000000000000000000000000000000000000000001",
                    "revert": false,
                    "revertMessage": "",
                    "selector": "0xa9059cbb",
                    "status": true,
                    "value": "0"
                },
                "nodeType": 0
            },
            "8": {
                "event": {
                    "contract": "0xc02aaa39b223fe8d0a0e5c4f27ead9083c756cc2",
                    "decodedLog": {
                        "name": "Transfer",
                        "params": [
                            {
                                "name": "src",
                                "type": "address",
                                "value": "0xc2adda861f89bbb333c90c492cb837741916a225"
                            },
                            {
                                "name": "dst",
                                "type": "address",
                                "value": "0x56178a0d5f301baf6cf3e1cd53d9863437345bf9"
                            },
                            {
                                "decimalAvailable": true,
                                "name": "wad",
                                "type": "uint256",
                                "value": "5,437,435,860,294,016,724"
                            }
                        ],
                        "signature": "Transfer(address,address,uint256)"
                    },
                    "id": 8,
                    "logData": "0x0000000000000000000000000000000000000000000000004b75a71b2dcb9ed4",
                    "logDecoded": true,
                    "operation": "EVENT",
                    "revert": false,
                    "status": true,
                    "topics": [
                        "0xddf252ad1be2c89b69c2b068fc378daa952ba7f163c4a11628f55a4df523b3ef",
                        "0x000000000000000000000000c2adda861f89bbb333c90c492cb837741916a225",
                        "0x00000000000000000000000056178a0d5f301baf6cf3e1cd53d9863437345bf9"
                    ]
                },
                "nodeType": 1
            },
            "9": {
                "invocation": {
                    "address": "0x9f8f72aa9304c8b593d555f12ef6589cc3a579a2",
                    "callData": "0x000000000000000000000000c2adda861f89bbb333c90c492cb837741916a225",
                    "decodedMethod": {
                        "callParams": [
                            {
                                "name": "src",
                                "type": "address",
                                "value": "0xc2adda861f89bbb333c90c492cb837741916a225"
                            }
                        ],
                        "constructorArguments": "",
                        "name": "balanceOf",
                        "returnParams": [
                            {
                                "decimalAvailable": true,
                                "name": "",
                                "type": "uint256",
                                "value": "5,662,953,228,533,028,692,706"
                            }
                        ],
                        "signature": "balanceOf(address)"
                    },
                    "errorInfo": "",
                    "fromAddress": "0xc2adda861f89bbb333c90c492cb837741916a225",
                    "gasUsed": 1415,
                    "id": 9,
                    "methodDecoded": true,
                    "operation": "STATICCALL",
                    "output": "0x000000000000000000000000000000000000000000000132fd4365bd1aa922e2",
                    "revert": false,
                    "revertMessage": "",
                    "selector": "0x70a08231",
                    "status": true,
                    "value": "0"
                },
                "nodeType": 0
            }
        },
        "gasFlame": [
            {
                "children": [
                    {
                        "children": [
                            {
                                "children": [],
                                "depth": 0,
                                "name": "Initial Gas",
                                "value": 23992
                            },
                            {
                                "children": [
                                    {
                                        "children": [
                                            {
                                                "children": [],
                                                "depth": 2,
                                                "name": "getReserves",
                                                "value": 1204
                                            },
                                            {
                                                "children": [],
                                                "depth": 2,
                                                "name": "balanceOf",
                                                "value": 1415
                                            },
                                            {
                                                "children": [],
                                                "depth": 2,
                                                "name": "transferFrom",
                                                "value": 16647
                                            },
                                            {
                                                "children": [
                                                    {
                                                        "children": [],
                                                        "depth": 3,
                                                        "name": "transfer",
                                                        "value": 15162
                                                    },
                                                    {
                                                        "children": [],
                                                        "depth": 3,
                                                        "name": "balanceOf",
                                                        "value": 1415
                                                    },
                                                    {
                                                        "children": [],
                                                        "depth": 3,
                                                        "name": "balanceOf",
                                                        "value": 1234
                                                    }
                                                ],
                                                "depth": 2,
                                                "name": "swap",
                                                "value": 56834
                                            }
                                        ],
                                        "depth": 1,
                                        "name": "0x2fdc7315",
                                        "value": 91984
                                    }
                                ],
                                "depth": 0,
                                "name": "Executed Gas",
                                "value": 94285
                            }
                        ],
                        "depth": -1,
                        "name": "Actual Gas Used",
                        "value": 114077
                    },
                    {
                        "children": [],
                        "depth": -1,
                        "name": "Refunded Gas",
                        "value": 4200
                    }
                ],
                "depth": -2,
                "name": "Total Gas",
                "value": 118277
            }
        ],
        "isConfirmed": true,
        "mainTrace": [
            {
                "children": [
                    {
                        "children": [
                            {
                                "children": [
                                    {
                                        "children": [],
                                        "depth": 2,
                                        "id": 2,
                                        "order": 2
                                    },
                                    {
                                        "children": [],
                                        "depth": 2,
                                        "id": 3,
                                        "order": 3
                                    },
                                    {
                                        "children": [
                                            {
                                                "children": [],
                                                "depth": 3,
                                                "id": 5,
                                                "order": 5
                                            }
                                        ],
                                        "depth": 2,
                                        "id": 4,
                                        "order": 4
                                    },
                                    {
                                        "children": [
                                            {
                                                "children": [
                                                    {
                                                        "children": [],
                                                        "depth": 4,
                                                        "id": 8,
                                                        "order": 8
                                                    }
                                                ],
                                                "depth": 3,
                                                "id": 7,
                                                "order": 7
                                            },
                                            {
                                                "children": [],
                                                "depth": 3,
                                                "id": 9,
                                                "order": 9
                                            },
                                            {
                                                "children": [],
                                                "depth": 3,
                                                "id": 10,
                                                "order": 10
                                            },
                                            {
                                                "children": [],
                                                "depth": 3,
                                                "id": 11,
                                                "order": 11
                                            },
                                            {
                                                "children": [],
                                                "depth": 3,
                                                "id": 12,
                                                "order": 12
                                            }
                                        ],
                                        "depth": 2,
                                        "id": 6,
                                        "order": 6
                                    }
                                ],
                                "depth": 1,
                                "id": 1,
                                "order": 1
                            }
                        ],
                        "depth": 0,
                        "id": 0,
                        "order": 0
                    }
                ],
                "depth": -1,
                "id": -1,
                "order": -1
            }
        ],
        "mainTraceNodeCount": 13,
        "parentIdMap": {
            "0": -1,
            "1": 0,
            "10": 6,
            "11": 6,
            "12": 6,
            "2": 1,
            "3": 1,
            "4": 1,
            "5": 4,
            "6": 1,
            "7": 6,
            "8": 7,
            "9": 6
        },
        "tidyTrace": [
            {
                "children": [
                    {
                        "children": [
                            {
                                "children": [
                                    {
                                        "children": [],
                                        "depth": 2,
                                        "id": 2,
                                        "order": 2
                                    },
                                    {
                                        "children": [],
                                        "depth": 2,
                                        "id": 3,
                                        "order": 3
                                    },
                                    {
                                        "children": [
                                            {
                                                "children": [],
                                                "depth": 3,
                                                "id": 5,
                                                "order": 5
                                            }
                                        ],
                                        "depth": 2,
                                        "id": 4,
                                        "order": 4
                                    },
                                    {
                                        "children": [
                                            {
                                                "children": [
                                                    {
                                                        "children": [],
                                                        "depth": 4,
                                                        "id": 8,
                                                        "order": 8
                                                    }
                                                ],
                                                "depth": 3,
                                                "id": 7,
                                                "order": 7
                                            },
                                            {
                                                "children": [],
                                                "depth": 3,
                                                "id": 11,
                                                "order": 11
                                            },
                                            {
                                                "children": [],
                                                "depth": 3,
                                                "id": 12,
                                                "order": 12
                                            }
                                        ],
                                        "depth": 2,
                                        "id": 6,
                                        "order": 6
                                    }
                                ],
                                "depth": 1,
                                "id": 1,
                                "order": 1
                            }
                        ],
                        "depth": 0,
                        "id": 0,
                        "order": 0
                    }
                ],
                "depth": -1,
                "id": -1,
                "order": -1
            }
        ],
        "tidyTraceNodeCount": 11
    },
    "state_change": {
        "stateChanges": [
            {
                "address": "0x9f8f72aa9304c8b593d555f12ef6589cc3a579a2",
                "erc": "ERC-20",
                "slots": [
                    {
                        "current": "0x0000000000000000000000000000000000000000000000038debfa074f784948",
                        "key": "0xf0c160ada807d617fc026bf601e74d7de8b32c57504814235e095f421a29f8a8",
                        "prev": "0x000000000000000000000000000000000000000000000003c4f67a9198361652"
                    },
                    {
                        "current": "0x000000000000000000000000000000000000000000000132fd4365bd1aa922e2",
                        "key": "0x7a68d530cc4c6afbf8d0b1b1c98a2b1557bb7d82a8b97350834a30862c8dcdd6",
                        "prev": "0x000000000000000000000000000000000000000000000132c638e532d1eb55d8"
                    }
                ],
                "storageVariables": [
                    {
                        "name": "_balances",
                        "type": "mapping(address => uint256)",
                        "value": {
                            "pairs": [
                                {
                                    "key": "0x56178a0d5f301baf6cf3e1cd53d9863437345bf9",
                                    "value": {
                                        "current": "65566774509308496200",
                                        "prev": "69532898262575879762",
                                        "typeTag": 1
                                    }
                                },
                                {
                                    "key": "0xc2adda861f89bbb333c90c492cb837741916a225",
                                    "value": {
                                        "current": "5662953228533028692706",
                                        "prev": "5658987104779761309144",
                                        "typeTag": 1
                                    }
                                }
                            ],
                            "typeTag": 4
                        }
                    }
                ]
            },
            {
                "address": "0xa57bd00134b2850b2a1c55860c9e9ea100fdd6cf",
                "erc": "",
                "slots": [
                    {
                        "current": "0x0000000000000000000000000000000000000000370a808a48bdcd0a5f9a9cc0",
                        "key": "0x9f668336fc6ac667e9cc85f99e3e2c5cf933bbf79f71d2c3446ff1dba42d446d",
                        "prev": "0x0000000000000000000000000000000000000000375d848210b9453c5f9a9b81"
                    }
                ],
                "storageVariables": []
            },
            {
                "address": "0xc02aaa39b223fe8d0a0e5c4f27ead9083c756cc2",
                "erc": "ERC-20",
                "slots": [
                    {
                        "current": "0x0000000000000000000000000000000000000000000001a5d805c0a2b9a150ea",
                        "key": "0x47984f1adf88cf1cb713910805eb420e4921414a18604557ef8477452038f560",
                        "prev": "0x0000000000000000000000000000000000000000000001a6237b67bde76cefbe"
                    },
                    {
                        "current": "0x000000000000000000000000000000000000000000000128e192007b8674e0f2",
                        "key": "0x30bd84b96629f958113934633d3bd1b64c3d259a85c57ceac65da8c5ec9bf3a7",
                        "prev": "0x000000000000000000000000000000000000000000000128961c596058a9421e"
                    }
                ],
                "storageVariables": [
                    {
                        "name": "balanceOf",
                        "type": "mapping(address => uint256)",
                        "value": {
                            "pairs": [
                                {
                                    "key": "0x56178a0d5f301baf6cf3e1cd53d9863437345bf9",
                                    "value": {
                                        "current": "5476490300353697603826",
                                        "prev": "5471052864493403587102",
                                        "typeTag": 1
                                    }
                                },
                                {
                                    "key": "0xc2adda861f89bbb333c90c492cb837741916a225",
                                    "value": {
                                        "current": "7781645314523928809706",
                                        "prev": "7787082750384222826430",
                                        "typeTag": 1
                                    }
                                }
                            ],
                            "typeTag": 4
                        }
                    }
                ]
            },
            {
                "address": "0xc2adda861f89bbb333c90c492cb837741916a225",
                "erc": "ERC-20",
                "slots": [
                    {
                        "current": "0x000000000000000000000000000001727d81d5cedb4fc0d8d1affa65d3bbf25f",
                        "key": "0x0000000000000000000000000000000000000000000000000000000000000009",
                        "prev": "0x000000000000000000000000000001727ca189bf0c5b9c980e077e742de5e14c"
                    },
                    {
                        "current": "0x000000000000000000000000000000813ecfba003cca3145579c82af79e0d60d",
                        "key": "0x000000000000000000000000000000000000000000000000000000000000000a",
                        "prev": "0x000000000000000000000000000000813e5945a6ee09489b4849c11ae5e9aba7"
                    },
                    {
                        "current": "0x5f9a9cc00000000001a5d805c0a2b9a150ea000000000132fd4365bd1aa922e2",
                        "key": "0x0000000000000000000000000000000000000000000000000000000000000008",
                        "prev": "0x5f9a9c1d0000000001a6237b67bde76cefbe000000000132c638e532d1eb55d8"
                    }
                ],
                "storageVariables": [
                    {
                        "name": "price0CumulativeLast",
                        "type": "uint256",
                        "value": {
                            "current": "126071303403057217647054510038589103665759",
                            "prev": "126070138785845304469301735210905246228812",
                            "typeTag": 1
                        }
                    },
                    {
                        "name": "price1CumulativeLast",
                        "type": "uint256",
                        "value": {
                            "current": "43979916046536443095705103988747562702349",
                            "prev": "43979300995671942455432136566321223150503",
                            "typeTag": 1
                        }
                    },
                    {
                        "name": "reserve0",
                        "type": "uint112",
                        "value": {
                            "current": "5662953228533028692706",
                            "prev": "5658987104779761309144",
                            "typeTag": 1
                        }
                    },
                    {
                        "name": "reserve1",
                        "type": "uint112",
                        "value": {
                            "current": "7781645314523928809706",
                            "prev": "7787082750384222826430",
                            "typeTag": 1
                        }
                    },
                    {
                        "name": "blockTimestampLast",
                        "type": "uint32",
                        "value": {
                            "current": "1603968192",
                            "prev": "1603968029",
                            "typeTag": 1
                        }
                    }
                ]
            }
        ]
    }
}