{
    "balance_change": {
        "balanceChanges": [
            {
                "account": "0x0000000000000000000000000000000000000000",
                "assets": [
                    {
                        "address": "0x7c5e9c25a8a1961c70fa9b1ab139a3963b8935ca",
                        "amount": "1",
                        "iconUrl": "",
                        "isERC1155": false,
                        "isERC721": true,
                        "sign": false,
                        "tokenID": "19",
                        "value": ""
                    }
                ]
            },
            {
                "account": "0x870f64e73e7d2dc5022b4b74e58c323b3148a984",
                "assets": [
                    {
                        "address": "0x7c5e9c25a8a1961c70fa9b1ab139a3963b8935ca",
                        "amount": "1",
                        "iconUrl": "",
                        "isERC1155": false,
                        "isERC721": true,
                        "sign": true,
                        "tokenID": "19",
                        "value": ""
                    }
                ]
            }
        ]
    },
    "profile": {
        "basic_info": {
            "baseFee": "",
            "blockNumber": 12362956,
            "callData": "0x672a94000000000000000000000000000000000000000000000000000000000000000013000000000000000000000000000000000000000000000000000000000000001c4589519c16f674e0157a90b04b0766718902d2139761d8b8d88b42bf64f712f54a80c4c1156caba69ff74cb8ae61a052e990a2cc9f4abb1f24740caa3a624ceb00000000000000000000000000000000000000000000000000000000000000c000000000000000000000000000000000000000000000000000000000000001200000000000000000000000000000000000000000000000000000000000000001000000000000000000000000870f64e73e7d2dc5022b4b74e58c323b3148a98400000000000000000000000000000000000000000000000000000000000005dc00000000000000000000000000000000000000000000000000000000000000342f697066732f516d586f446a584a764c716345526b544e54794d714c684a6442596f593648754c434b6845707070637133446943000000000000000000000000",
            "debugEnable": true,
            "errorInfo": "",
            "eventCount": 2,
            "feeRecipient": "0x5a0b54d5dc17e0aadc383d2db43b0a0d3e029c4c",
            "formatValue": "0",
            "gasLimit": 302254,
            "gasPrice": "89",
            "gasUsed": 302254,
            "intTxnCount": 1,
            "internalRevert": false,
            "internalRevertMessage": "",
            "isContractCreation": false,
            "isFlashloan": false,
            "maxFee": "",
            "nonce": 363,
            "overwritedBlockNumber": -1,
            "priorityFee": "",
            "receiver": "0x7c5e9c25a8a1961c70fa9b1ab139a3963b8935ca",
            "revertMessage": "",
            "sender": "0x870f64e73e7d2dc5022b4b74e58c323b3148a984",
            "simulationEnable": true,
            "sourceTxnHash": "0xa7e29c79a53783b62d64c01895f0b6017ddf30169cd892fa040b14e64c745e11",
            "status": true,
            "timestamp": "2021-05-03T18:46:54Z",
            "transactionFee": "0.026900606",
            "txnHash": "0xa7e29c79a53783b62d64c01895f0b6017ddf30169cd892fa040b14e64c745e11",
            "txnIndex": 223,
            "type": 0,
            "value": "0"
        },
        "fund_flow": [
            {
                "amount": "1",
                "from": "0x0000000000000000000000000000000000000000",
                "id": 1,
                "isERC1155": false,
                "isERC721": true,
                "isReverted": false,
                "order": 1,
                "to": "0x870f64e73e7d2dc5022b4b74e58c323b3148a984",
                "token": "0x7c5e9c25a8a1961c70fa9b1ab139a3963b8935ca",
                "tokenID": "19"
            }
        ],
        "token_infos": [
            {
                "address": "0xc02aaa39b223fe8d0a0e5c4f27ead9083c756cc2",
                "decimals": 18
            },
            {
                "address": "0xeeeeeeeeeeeeeeeeeeeeeeeeeeeeeeeeeeeeeeee",
                "decimals": 18
            }
        ]
    },
    "address_label": {
        "labels": [
            {
                "address": "0xeeeeeeeeeeeeeeeeeeeeeeeeeeeeeeeeeeeeeeee",
                "label": "Ether"
            },
            {
                "address": "0x7c5e9c25a8a1961c70fa9b1ab139a3963b8935ca",
                "label": "MintableOwnableToken"
            },
            {
                "address": "0x0000000000000000000000000000000000000001",
                "label": "Precompiled"
            },
            {
                "address": "0x0000000000000000000000000000000000000002",
                "label": "Precompiled"
            },
            {
                "address": "0x0000000000000000000000000000000000000003",
                "label": "Precompiled"
            },
            {
                "address": "0x0000000000000000000000000000000000000004",
                "label": "Precompiled"
            }
        ]
    },
    "trace": {
        "accountLabels": null,
        "dataMap": {
            "-1": {
                "invocation": {
                    "address": "0x870f64e73e7d2dc5022b4b74e58c323b3148a984",
                    "callData": "",
                    "decodedMethod": null,
                    "errorInfo": "",
                    "fromAddress": "",
                    "gasUsed": 0,
                    "id": -1,
                    "methodDecoded": false,
                    "operation": "",
                    "output": "",
                    "revert": false,
                    "revertMessage": "",
                    "selector": "",
                    "status": false,
                    "value": ""
                },
                "nodeType": 0
            },
            "0": {
                "invocation": {
                    "address": "0x7c5e9c25a8a1961c70fa9b1ab139a3963b8935ca",
                    "callData": "0x0000000000000000000000000000000000000000000000000000000000000013000000000000000000000000000000000000000000000000000000000000001c4589519c16f674e0157a90b04b0766718902d2139761d8b8d88b42bf64f712f54a80c4c1156caba69ff74cb8ae61a052e990a2cc9f4abb1f24740caa3a624ceb00000000000000000000000000000000000000000000000000000000000000c000000000000000000000000000000000000000000000000000000000000001200000000000000000000000000000000000000000000000000000000000000001000000000000000000000000870f64e73e7d2dc5022b4b74e58c323b3148a98400000000000000000000000000000000000000000000000000000000000005dc00000000000000000000000000000000000000000000000000000000000000342f697066732f516d586f446a584a764c716345526b544e54794d714c684a6442596f593648754c434b6845707070637133446943000000000000000000000000",
                    "decodedMethod": {
                        "callParams": [
                            {
                                "name": "tokenId",
                                "type": "uint256",
                                "value": "19"
                            },
                            {
                                "name": "v",
                                "type": "uint8",
                                "value": "28"
                            },
                            {
                                "name": "r",
                                "type": "bytes32",
                                "value": "0x4589519c16f674e0157a90b04b0766718902d2139761d8b8d88b42bf64f712f5"
                            },
                            {
                                "name": "s",
                                "type": "bytes32",
                                "value": "0x4a80c4c1156caba69ff74cb8ae61a052e990a2cc9f4abb1f24740caa3a624ceb"
                            },
                            {
                                "name": "_fees",
                                "type": "(address,uint256)[]",
                                "value": [
                                    [
                                        {
                                            "name": "recipient",
                                            "type": "address",
                                            "value": "0x870f64e73e7d2dc5022b4b74e58c323b3148a984"
                                        },
                                        {
                                            "name": "value",
                                            "type": "uint256",
                                            "value": "1,500"
                                        }
                                    ]
                                ]
                            },
                            {
                                "name": "tokenURI",
                                "type": "string",
                                "value": "/ipfs/QmXoDjXJvLqcERkTNTyMqLhJdBYoY6HuLCKhEpppcq3DiC"
                            }
                        ],
                        "constructorArguments": "",
                        "name": "mint",
                        "returnParams": [],
                        "signature": "mint(uint256,uint8,bytes32,bytes32,(address,uint256)[],string)"
                    },
                    "errorInfo": "",
                    "fromAddress": "0x870f64e73e7d2dc5022b4b74e58c323b3148a984",
                    "gasUsed": 302254,
                    "id": 0,
                    "methodDecoded": true,
                    "operation": "CALL",
                    "output": "",
                    "revert": false,
                    "revertMessage": "",
                    "selector": "0x672a9400",
                    "status": true,
                    "value": "0"
                },
                "nodeType": 0
            },
            "1": {
                "invocation": {
                    "address": "0x0000000000000000000000000000000000000001",
                    "callData": "0xa44b490c2744e91e6d9241f37c9e194c2c5836564486b801f6612cba000000000000000000000000000000000000000000000000000000000000001c4589519c16f674e0157a90b04b0766718902d2139761d8b8d88b42bf64f712f54a80c4c1156caba69ff74cb8ae61a052e990a2cc9f4abb1f24740caa3a624ceb",
                    "decodedMethod": {
                        "callParams": [
                            {
                                "name": "hash",
                                "type": "bytes32",
                                "value": "0xf9e210eda44b490c2744e91e6d9241f37c9e194c2c5836564486b801f6612cba"
                            },
                            {
                                "name": "v",
                                "type": "uint256",
                                "value": "28"
                            },
                            {
                                "name": "r",
                                "type": "bytes32",
                                "value": "0x4589519c16f674e0157a90b04b0766718902d2139761d8b8d88b42bf64f712f5"
                            },
                            {
                                "name": "s",
                                "type": "bytes32",
                                "value": "0x4a80c4c1156caba69ff74cb8ae61a052e990a2cc9f4abb1f24740caa3a624ceb"
                            }
                        ],
                        "constructorArguments": "",
                        "name": "ecrecover",
                        "returnParams": [
                            {
                                "name": "",
                                "type": "address",
                                "value": "0xf03ba06dd459ae597357b491219fcb573f5fe683"
                            }
                        ],
                        "signature": "ecrecover(bytes32,uint256,bytes32,bytes32)"
                    },
                    "errorInfo": "",
                    "fromAddress": "0x7c5e9c25a8a1961c70fa9b1ab139a3963b8935ca",
                    "gasUsed": 3000,
                    "id": 1,
                    "methodDecoded": true,
                    "operation": "STATICCALL",
                    "output": "0x000000000000000000000000f03ba06dd459ae597357b491219fcb573f5fe683",
                    "revert": false,
                    "revertMessage": "",
                    "selector": "0xf9e210ed",
                    "status": true,
                    "value": "0"
                },
                "nodeType": 0
            },
            "2": {
                "event": {
                    "contract": "0x7c5e9c25a8a1961c70fa9b1ab139a3963b8935ca",
                    "decodedLog": {
                        "name": "Transfer",
                        "params": [
                            {
                                "name": "from",
                                "type": "address",
                                "value": "0x0000000000000000000000000000000000000000"
                            },
                            {
                                "name": "to",
                                "type": "address",
                                "value": "0x870f64e73e7d2dc5022b4b74e58c323b3148a984"
                            },
                            {
                                "decimalAvailable": true,
                                "name": "tokenId",
                                "type": "uint256",
                                "value": "19"
                            }
                        ],
                        "signature": "Transfer(address,address,uint256)"
                    },
                    "id": 2,
                    "logData": "0x",
                    "logDecoded": true,
                    "operation": "EVENT",
                    "revert": false,
                    "status": true,
                    "topics": [
                        "0xddf252ad1be2c89b69c2b068fc378daa952ba7f163c4a11628f55a4df523b3ef",
                        "0x0000000000000000000000000000000000000000000000000000000000000000",
                        "0x000000000000000000000000870f64e73e7d2dc5022b4b74e58c323b3148a984",
                        "0x0000000000000000000000000000000000000000000000000000000000000013"
                    ]
                },
                "nodeType": 1
            },
            "3": {
                "event": {
                    "contract": "0x7c5e9c25a8a1961c70fa9b1ab139a3963b8935ca",
                    "decodedLog": {
                        "name": "SecondarySaleFees",
                        "params": [
                            {
                                "name": "tokenId",
                                "type": "uint256",
                                "value": "19"
                            },
                            {
                                "name": "recipients",
                                "type": "address[]",
                                "value": [
                                    "0x870f64e73e7d2dc5022b4b74e58c323b3148a984"
                                ]
                            },
                            {
                                "name": "bps",
                                "type": "uint256[]",
                                "value": [
                                    "1,500"
                                ]
                            }
                        ],
                        "signature": "SecondarySaleFees(uint256,address[],uint256[])"
                    },
                    "id": 3,
                    "logData": "0x0000000000000000000000000000000000000000000000000000000000000013000000000000000000000000000000000000000000000000000000000000006000000000000000000000000000000000000000000000000000000000000000a00000000000000000000000000000000000000000000000000000000000000001000000000000000000000000870f64e73e7d2dc5022b4b74e58c323b3148a984000000000000000000000000000000000000000000000000000000000000000100000000000000000000000000000000000000000000000000000000000005dc",
                    "logDecoded": true,
                    "operation": "EVENT",
                    "revert": false,
                    "status": true,
                    "topics": [
                        "0x99aba1d63749cfd5ad1afda7c4663840924d54eb5f005bbbeadedc6ec13674b2"
                    ]
                },
                "nodeType": 1
            }
        },
        "gasFlame": [
            {
                "children": [
                    {
                        "children": [
                            {
                                "children": [],
                                "depth": 0,
                                "name": "Initial Gas",
                                "value": 24328
                            },
                            {
                                "children": [
                                    {
                                        "children": [],
                                        "depth": 1,
                                        "name": "ecrecover",
                                        "value": 3000
                                    }
                                ],
                                "depth": 0,
                                "name": "Executed Gas",
                                "value": 277926
                            }
                        ],
                        "depth": -1,
                        "name": "Actual Gas Used",
                        "value": 302254
                    },
                    {
                        "children": [],
                        "depth": -1,
                        "name": "Refunded Gas",
                        "value": 0
                    }
                ],
                "depth": -2,
                "name": "Total Gas",
                "value": 302254
            }
        ],
        "isConfirmed": true,
        "mainTrace": [
            {
                "children": [
                    {
                        "children": [
                            {
                                "children": [],
                                "depth": 1,
                                "id": 1,
                                "order": 1
                            },
                            {
                                "children": [],
                                "depth": 1,
                                "id": 2,
                                "order": 2
                            },
                            {
                                "children": [],
                                "depth": 1,
                                "id": 3,
                                "order": 3
                            }
                        ],
                        "depth": 0,
                        "id": 0,
                        "order": 0
                    }
                ],
                "depth": -1,
                "id": -1,
                "order": -1
            }
        ],
        "mainTraceNodeCount": 4,
        "parentIdMap": {
            "0": -1,
            "1": 0,
            "2": 0,
            "3": 0
        },
        "tidyTrace": [
            {
                "children": [
                    {
                        "children": [
                            {
                                "children": [],
                                "depth": 1,
                                "id": 2,
                                "order": 2
                            },
                            {
                                "children": [],
                                "depth": 1,
                                "id": 3,
                                "order": 3
                            }
                        ],
                        "depth": 0,
                        "id": 0,
                        "order": 0
                    }
                ],
                "depth": -1,
                "id": -1,
                "order": -1
            }
        ],
        "tidyTraceNodeCount": 3
    },
    "state_change": {
        "stateChanges": [
            {
                "address": "0x7c5e9c25a8a1961c70fa9b1ab139a3963b8935ca",
                "erc": "ERC-721",
                "slots": [
                    {
                        "current": "0x000000000000000000000000870f64e73e7d2dc5022b4b74e58c323b3148a984",
                        "key": "0x4a5bded210bb862fae2c0d18b9d29bf7f88b08a75dd1594b1369abc7881e3fe1",
                        "prev": "0x0000000000000000000000000000000000000000000000000000000000000000"
                    },
                    {
                        "current": "0x0000000000000000000000000000000000000000000000000000000000000013",
                        "key": "0x8ab63ab7db785e0ed94f5ff59ed3e80cc59024097e1e20c3853fb00735b8dde9",
                        "prev": "0x0000000000000000000000000000000000000000000000000000000000000000"
                    },
                    {
                        "current": "0x00000000000000000000000000000000000000000000000000000000000005dc",
                        "key": "0xf81556918ace39fade2762a706a80cdc85537fde2cb6529d534cb68ddf66f848",
                        "prev": "0x0000000000000000000000000000000000000000000000000000000000000000"
                    },
                    {
                        "current": "0x0000000000000000000000000000000000000000000000000000000000000069",
                        "key": "0x1dfebf40b0462aa6ee8060c248d0caec9e679d370b76490bfe8441dbbab05216",
                        "prev": "0x0000000000000000000000000000000000000000000000000000000000000000"
                    },
                    {
                        "current": "0x000000000000000000000000000000000000000000000000000000000000000b",
                        "key": "0x000000000000000000000000000000000000000000000000000000000000000b",
                        "prev": "0x000000000000000000000000000000000000000000000000000000000000000a"
                    },
                    {
                        "current": "0x0000000000000000000000000000000000000000000000000000000000000001",
                        "key": "0x5f17331c879675a751c0e3884b2f2126ab802511155fffcf04a93b2bacc61e49",
                        "prev": "0x0000000000000000000000000000000000000000000000000000000000000000"
                    },
                    {
                        "current": "0x596f593648754c434b6845707070637133446943000000000000000000000000",
                        "key": "0x3f512a8349ba46f65a4c8c0037e42eb2d09375fde9011540ce351845af521f56",
                        "prev": "0x0000000000000000000000000000000000000000000000000000000000000000"
                    },
                    {
                        "current": "0x000000000000000000000000870f64e73e7d2dc5022b4b74e58c323b3148a984",
                        "key": "0xf81556918ace39fade2762a706a80cdc85537fde2cb6529d534cb68ddf66f847",
                        "prev": "0x0000000000000000000000000000000000000000000000000000000000000000"
                    },
                    {
                        "current": "0x000000000000000000000000000000000000000000000000000000000000000b",
                        "key": "0xb804977b7f81ac7d969a553b430ab92e7d04c88085d83d555dafc2be8ccf1f16",
                        "prev": "0x000000000000000000000000000000000000000000000000000000000000000a"
                    },
                    {
                        "current": "0x000000000000000000000000000000000000000000000000000000000000000a",
                        "key": "0xe02ca69cf2f93f7a389d26d1c6b52e01a88a074c056dfe4bf6a3c69d4a8041e2",
                        "prev": "0x0000000000000000000000000000000000000000000000000000000000000000"
                    },
                    {
                        "current": "0x2f697066732f516d586f446a584a764c716345526b544e54794d714c684a6442",
                        "key": "0x3f512a8349ba46f65a4c8c0037e42eb2d09375fde9011540ce351845af521f55",
                        "prev": "0x0000000000000000000000000000000000000000000000000000000000000000"
                    },
                    {
                        "current": "0x000000000000000000000000000000000000000000000000000000000000000a",
                        "key": "0x2e60ceb69e96fe6481ce9457171ef3f030bf0150171842d8842b77cad9c3b355",
                        "prev": "0x0000000000000000000000000000000000000000000000000000000000000000"
                    },
                    {
                        "current": "0x0000000000000000000000000000000000000000000000000000000000000013",
                        "key": "0x0175b7a638427703f0dbe7bb9bbf987a2551717b34e79f33b5b1008d1fa01dc3",
                        "prev": "0x0000000000000000000000000000000000000000000000000000000000000000"
                    },
                    {
                        "current": "0x000000000000000000000000000000000000000000000000000000000000000b",
                        "key": "0x4d0cd7900bc89c9be8e6a4150e5d32d832a8a109c21956f9b04e27410f662d40",
                        "prev": "0x000000000000000000000000000000000000000000000000000000000000000a"
                    }
                ],
                "storageVariables": [
                    {
                        "name": "_tokenURIs",
                        "type": "mapping(uint256 => string)",
                        "value": {
                            "pairs": [
                                {
                                    "key": "19",
                                    "value": {
                                        "current": "/ipfs/QmXoDjXJvLqcERkTNTyMqLhJdBYoY6HuLCKhEpppcq3DiC",
                                        "prev": "",
                                        "typeTag": 1
                                    }
                                }
                            ],
                            "typeTag": 4
                        }
                    },
                    {
                        "name": "_tokenOwner",
                        "type": "mapping(uint256 => address)",
                        "value": {
                            "pairs": [
                                {
                                    "key": "19",
                                    "value": {
                                        "current": "0x870f64e73e7d2dc5022b4b74e58c323b3148a984",
                                        "prev": "0x0000000000000000000000000000000000000000",
                                        "typeTag": 1
                                    }
                                }
                            ],
                            "typeTag": 4
                        }
                    },
                    {
                        "name": "_allTokensIndex",
                        "type": "mapping(uint256 => uint256)",
                        "value": {
                            "pairs": [
                                {
                                    "key": "19",
                                    "value": {
                                        "current": "10",
                                        "prev": "0",
                                        "typeTag": 1
                                    }
                                }
                            ],
                            "typeTag": 4
                        }
                    },
                    {
                        "name": "_ownedTokensIndex",
                        "type": "mapping(uint256 => uint256)",
                        "value": {
                            "pairs": [
                                {
                                    "key": "19",
                                    "value": {
                                        "current": "10",
                                        "prev": "0",
                                        "typeTag": 1
                                    }
                                }
                            ],
                            "typeTag": 4
                        }
                    },
                    {
                        "name": "_ownedTokens",
                        "type": "mapping(address => uint256[])",
                        "value": {
                            "pairs": [
                                {
                                    "key": "0x870f64e73e7d2dc5022b4b74e58c323b3148a984",
                                    "value": {
                                        "elemType": "uint256",
                                        "elems": [
                                            {
                                                "index": 10,
                                                "value": {
                                                    "current": "19",
                                                    "prev": "0",
                                                    "typeTag": 1
                                                }
                                            }
                                        ],
                                        "typeTag": 2
                                    }
                                }
                            ],
                            "typeTag": 4
                        }
                    },
                    {
                        "name": "fees",
                        "type": "mapping(uint256 => struct ERC721Base.Fee[])",
                        "value": {
                            "pairs": [
                                {
                                    "key": "19",
                                    "value": {
                                        "elemType": "struct ERC721Base.Fee",
                                        "elems": [
                                            {
                                                "index": 0,
                                                "value": {
                                                    "fields": [
                                                        {
                                                            "name": "recipient",
                                                            "type": "address payable",
                                                            "value": {
                                                                "current": "0x870f64e73e7d2dc5022b4b74e58c323b3148a984",
                                                                "prev": "0x0000000000000000000000000000000000000000",
                                                                "typeTag": 1
                                                            }
                                                        },
                                                        {
                                                            "name": "value",
                                                            "type": "uint256",
                                                            "value": {
                                                                "current": "1500",
                                                                "prev": "0",
                                                                "typeTag": 1
                                                            }
                                                        }
                                                    ],
                                                    "typeTag": 3
                                                }
                                            }
                                        ],
                                        "typeTag": 2
                                    }
                                }
                            ],
                            "typeTag": 4
                        }
                    },
                    {
                        "name": "_ownedTokensCount",
                        "type": "mapping(address => struct Counters.Counter)",
                        "value": {
                            "pairs": [
                                {
                                    "key": "0x870f64e73e7d2dc5022b4b74e58c323b3148a984",
                                    "value": {
                                        "fields": [
                                            {
                                                "name": "_value",
                                                "type": "uint256",
                                                "value": {
                                                    "current": "11",
                                                    "prev": "10",
                                                    "typeTag": 1
                                                }
                                            }
                                        ],
                                        "typeTag": 3
                                    }
                                }
                            ],
                            "typeTag": 4
                        }
                    },
                    {
                        "name": "_allTokens",
                        "type": "uint256[]",
                        "value": {
                            "elemType": "uint256",
                            "elems": [
                                {
                                    "index": 10,
                                    "value": {
                                        "current": "19",
                                        "prev": "0",
                                        "typeTag": 1
                                    }
                                }
                            ],
                            "typeTag": 2
                        }
                    }
                ]
            }
        ]
    }
}