{
    "balance_change": {
        "balanceChanges": [
            {
                "account": "0x399042fabc0e2409f0e907f317c8706750a26fa3",
                "assets": [
                    {
                        "address": "0x77f72cba43f6add992fc47a08faddc8897d5acb0",
                        "amount": "182,480.33426621",
                        "iconUrl": "",
                        "isERC1155": false,
                        "isERC721": false,
                        "sign": true,
                        "value": "401.2928051"
                    },
                    {
                        "address": "0xeeeeeeeeeeeeeeeeeeeeeeeeeeeeeeeeeeeeeeee",
                        "amount": "0.23",
                        "iconUrl": "https://assets.blocksec.com/image/1663669189317-3.png",
                        "isERC1155": false,
                        "isERC721": false,
                        "sign": false,
                        "value": "429.50660000000001673"
                    }
                ]
            },
            {
                "account": "0x0593e9eb9131d149bb2d7f6d533bcf6e802b781c",
                "assets": [
                    {
                        "address": "0xc02aaa39b223fe8d0a0e5c4f27ead9083c756cc2",
                        "amount": "0.23",
                        "iconUrl": "https://assets.blocksec.com/icon/f1cb2d02c471d545bbc7722daf3277fd852d98e63d118771af7047bd8256c516.png",
                        "isERC1155": false,
                        "isERC721": false,
                        "sign": true,
                        "value": "429.50660000000001673"
                    },
                    {
                        "address": "0x77f72cba43f6add992fc47a08faddc8897d5acb0",
                        "amount": "186,185.42420793",
                        "iconUrl": "",
                        "isERC1155": false,
                        "isERC721": false,
                        "sign": false,
                        "value": "392.4371298"
                    }
                ]
            },
            {
                "account": "0x77f72cba43f6add992fc47a08faddc8897d5acb0",
                "assets": [
                    {
                        "address": "0x77f72cba43f6add992fc47a08faddc8897d5acb0",
                        "amount": "3,705.08994172",
                        "iconUrl": "",
                        "isERC1155": false,
                        "isERC721": false,
                        "sign": true,
                        "value": "7.6422871"
                    }
                ]
            },
            {
                "account": "0xc02aaa39b223fe8d0a0e5c4f27ead9083c756cc2",
                "assets": [
                    {
                        "address": "0xeeeeeeeeeeeeeeeeeeeeeeeeeeeeeeeeeeeeeeee",
                        "amount": "0.23",
                        "iconUrl": "https://assets.blocksec.com/image/1663669189317-3.png",
                        "isERC1155": false,
                        "isERC721": false,
                        "sign": true,
                        "value": "429.50660000000001673"
                    },
                    {
                        "address": "0xc02aaa39b223fe8d0a0e5c4f27ead9083c756cc2",
                        "amount": "0.23",
                        "iconUrl": "https://assets.blocksec.com/icon/f1cb2d02c471d545bbc7722daf3277fd852d98e63d118771af7047bd8256c516.png",
                        "isERC1155": false,
                        "isERC721": false,
                        "sign": false,
                        "value": "429.50660000000001673"
                    }
                ]
            }
        ]
    },
    "profile": {
        "basic_info": {
            "baseFee": "13.946913408",
            "blockNumber": 17810319,
            "callData": "0xb80c2f090000000000000000000000000000000000000000000000000000000000000000000000000000000000000000eeeeeeeeeeeeeeeeeeeeeeeeeeeeeeeeeeeeeeee00000000000000000000000077f72cba43f6add992fc47a08faddc8897d5acb000000000000000000000000000000000000000000000000003311fc80a570000000000000000000000000000000000000000000000000000000010163806e0a90000000000000000000000000000000000000000000000000000000064c738f40000000000000000000000000000000000000000000000000000000000000120000000000000000000000000000000000000000000000000000000000000016000000000000000000000000000000000000000000000000000000000000003c0000000000000000000000000000000000000000000000000000000000000000100000000000000000000000000000000000000000000000003311fc80a570000000000000000000000000000000000000000000000000000000000000000000100000000000000000000000000000000000000000000000000000000000000200000000000000000000000000000000000000000000000000000000000000001000000000000000000000000000000000000000000000000000000000000002000000000000000000000000000000000000000000000000000000000000000a000000000000000000000000000000000000000000000000000000000000000e000000000000000000000000000000000000000000000000000000000000001200000000000000000000000000000000000000000000000000000000000000160000000000000000000000000c02aaa39b223fe8d0a0e5c4f27ead9083c756cc20000000000000000000000000000000000000000000000000000000000000001000000000000000000000000031f1ad10547b8deb43a36e5491c06a93812023a00000000000000000000000000000000000000000000000000000000000000010000000000000000000000000593e9eb9131d149bb2d7f6d533bcf6e802b781c00000000000000000000000000000000000000000000000000000000000000018000000000000000000027100593e9eb9131d149bb2d7f6d533bcf6e802b781c000000000000000000000000000000000000000000000000000000000000000100000000000000000000000000000000000000000000000000000000000000200000000000000000000000000000000000000000000000000000000000000020000000000000000000000000000000000000000000000000000000000000001e0000000000000000000000000000000000000000000000000000000000000000",
            "debugEnable": true,
            "errorInfo": "",
            "eventCount": 10,
            "feeRecipient": "0x1f9090aae28b8a3dceadf281b0f12828e676c326",
            "formatValue": "0.23",
            "gasLimit": 312270,
            "gasPrice": "14.446913408",
            "gasUsed": 209214,
            "intTxnCount": 15,
            "internalRevert": false,
            "internalRevertMessage": "",
            "isContractCreation": false,
            "isFlashloan": false,
            "maxFee": "14.861",
            "nonce": 45,
            "overwritedBlockNumber": -1,
            "priorityFee": "0.5",
            "receiver": "0x3b3ae790df4f312e745d270119c6052904fb6790",
            "revertMessage": "",
            "sender": "0x399042fabc0e2409f0e907f317c8706750a26fa3",
            "simulationEnable": true,
            "sourceTxnHash": "0xa75e8d0cdc6c562d5e4b0f9c4044b7b31ebbf9c2afda1a0dfd8c8d73729f02d2",
            "status": true,
            "timestamp": "2023-07-31T03:30:59Z",
            "transactionFee": "0.003022496541741312",
            "txnHash": "0xa75e8d0cdc6c562d5e4b0f9c4044b7b31ebbf9c2afda1a0dfd8c8d73729f02d2",
            "txnIndex": 46,
            "type": 2,
            "value": "230000000000000000"
        },
        "fund_flow": [
            {
                "amount": "0.23",
                "from": "0x399042fabc0e2409f0e907f317c8706750a26fa3",
                "id": 1,
                "isERC1155": false,
                "isERC721": false,
                "isReverted": false,
                "order": 1,
                "to": "0x3b3ae790df4f312e745d270119c6052904fb6790",
                "token": "0xeeeeeeeeeeeeeeeeeeeeeeeeeeeeeeeeeeeeeeee"
            },
            {
                "amount": "0.23",
                "from": "0x3b3ae790df4f312e745d270119c6052904fb6790",
                "id": 2,
                "isERC1155": false,
                "isERC721": false,
                "isReverted": false,
                "order": 2,
                "to": "0xc02aaa39b223fe8d0a0e5c4f27ead9083c756cc2",
                "token": "0xeeeeeeeeeeeeeeeeeeeeeeeeeeeeeeeeeeeeeeee"
            },
            {
                "amount": "0.23",
                "from": "0xc02aaa39b223fe8d0a0e5c4f27ead9083c756cc2",
                "id": 3,
                "isERC1155": false,
                "isERC721": false,
                "isReverted": false,
                "order": 3,
                "to": "0x3b3ae790df4f312e745d270119c6052904fb6790",
                "token": "0xc02aaa39b223fe8d0a0e5c4f27ead9083c756cc2"
            },
            {
                "amount": "0.23",
                "from": "0x3b3ae790df4f312e745d270119c6052904fb6790",
                "id": 4,
                "isERC1155": false,
                "isERC721": false,
                "isReverted": false,
                "order": 4,
                "to": "0x0593e9eb9131d149bb2d7f6d533bcf6e802b781c",
                "token": "0xc02aaa39b223fe8d0a0e5c4f27ead9083c756cc2"
            },
            {
                "amount": "1,861.85424207",
                "from": "0x0593e9eb9131d149bb2d7f6d533bcf6e802b781c",
                "id": 5,
                "isERC1155": false,
                "isERC721": false,
                "isReverted": false,
                "order": 5,
                "to": "0x77f72cba43f6add992fc47a08faddc8897d5acb0",
                "token": "0x77f72cba43f6add992fc47a08faddc8897d5acb0"
            },
            {
                "amount": "184,323.56996586",
                "from": "0x0593e9eb9131d149bb2d7f6d533bcf6e802b781c",
                "id": 6,
                "isERC1155": false,
                "isERC721": false,
                "isReverted": false,
                "order": 6,
                "to": "0x3b3ae790df4f312e745d270119c6052904fb6790",
                "token": "0x77f72cba43f6add992fc47a08faddc8897d5acb0"
            },
            {
                "amount": "1,843.23569965",
                "from": "0x3b3ae790df4f312e745d270119c6052904fb6790",
                "id": 7,
                "isERC1155": false,
                "isERC721": false,
                "isReverted": false,
                "order": 7,
                "to": "0x77f72cba43f6add992fc47a08faddc8897d5acb0",
                "token": "0x77f72cba43f6add992fc47a08faddc8897d5acb0"
            },
            {
                "amount": "182,480.33426621",
                "from": "0x3b3ae790df4f312e745d270119c6052904fb6790",
                "id": 8,
                "isERC1155": false,
                "isERC721": false,
                "isReverted": false,
                "order": 8,
                "to": "0x399042fabc0e2409f0e907f317c8706750a26fa3",
                "token": "0x77f72cba43f6add992fc47a08faddc8897d5acb0"
            }
        ],
        "token_infos": [
            {
                "address": "0x77f72cba43f6add992fc47a08faddc8897d5acb0",
                "decimals": 8
            },
            {
                "address": "0xc02aaa39b223fe8d0a0e5c4f27ead9083c756cc2",
                "decimals": 18
            },
            {
                "address": "0xeeeeeeeeeeeeeeeeeeeeeeeeeeeeeeeeeeeeeeee",
                "decimals": 18
            }
        ]
    },
    "address_label": {
        "labels": [
            {
                "address": "0x0593e9eb9131d149bb2d7f6d533bcf6e802b781c",
                "label": "Uniswap V2: BASESWAP"
            },
            {
                "address": "0x0000000000000000000000000000000000000003",
                "label": "Precompiled"
            },
            {
                "address": "0x3b3ae790df4f312e745d270119c6052904fb6790",
                "label": "OKX DEX: Aggregation Router"
            },
            {
                "address": "0x77f72cba43f6add992fc47a08faddc8897d5acb0",
                "label": "BASESWAP (BASESWAP)"
            },
            {
                "address": "0xc02aaa39b223fe8d0a0e5c4f27ead9083c756cc2",
                "label": "Wrapped Ether (WETH)"
            },
            {
                "address": "0x0000000000000000000000000000000000000001",
                "label": "Precompiled"
            },
            {
                "address": "0x0000000000000000000000000000000000000002",
                "label": "Precompiled"
            },
            {
                "address": "0x0000000000000000000000000000000000000004",
                "label": "Precompiled"
            },
            {
                "address": "0xeeeeeeeeeeeeeeeeeeeeeeeeeeeeeeeeeeeeeeee",
                "label": "Ether"
            }
        ]
    },
    "trace": {
        "accountLabels": null,
        "dataMap": {
            "-1": {
                "invocation": {
                    "address": "0x399042fabc0e2409f0e907f317c8706750a26fa3",
                    "callData": "",
                    "decodedMethod": null,
                    "errorInfo": "",
                    "fromAddress": "",
                    "gasUsed": 0,
                    "id": -1,
                    "methodDecoded": false,
                    "operation": "",
                    "output": "",
                    "revert": false,
                    "revertMessage": "",
                    "selector": "",
                    "status": false,
                    "value": ""
                },
                "nodeType": 0
            },
            "0": {
                "invocation": {
                    "address": "0x3b3ae790df4f312e745d270119c6052904fb6790",
                    "callData": "0x0000000000000000000000000000000000000000000000000000000000000000000000000000000000000000eeeeeeeeeeeeeeeeeeeeeeeeeeeeeeeeeeeeeeee00000000000000000000000077f72cba43f6add992fc47a08faddc8897d5acb000000000000000000000000000000000000000000000000003311fc80a570000000000000000000000000000000000000000000000000000000010163806e0a90000000000000000000000000000000000000000000000000000000064c738f40000000000000000000000000000000000000000000000000000000000000120000000000000000000000000000000000000000000000000000000000000016000000000000000000000000000000000000000000000000000000000000003c0000000000000000000000000000000000000000000000000000000000000000100000000000000000000000000000000000000000000000003311fc80a570000000000000000000000000000000000000000000000000000000000000000000100000000000000000000000000000000000000000000000000000000000000200000000000000000000000000000000000000000000000000000000000000001000000000000000000000000000000000000000000000000000000000000002000000000000000000000000000000000000000000000000000000000000000a000000000000000000000000000000000000000000000000000000000000000e000000000000000000000000000000000000000000000000000000000000001200000000000000000000000000000000000000000000000000000000000000160000000000000000000000000c02aaa39b223fe8d0a0e5c4f27ead9083c756cc20000000000000000000000000000000000000000000000000000000000000001000000000000000000000000031f1ad10547b8deb43a36e5491c06a93812023a00000000000000000000000000000000000000000000000000000000000000010000000000000000000000000593e9eb9131d149bb2d7f6d533bcf6e802b781c00000000000000000000000000000000000000000000000000000000000000018000000000000000000027100593e9eb9131d149bb2d7f6d533bcf6e802b781c000000000000000000000000000000000000000000000000000000000000000100000000000000000000000000000000000000000000000000000000000000200000000000000000000000000000000000000000000000000000000000000020000000000000000000000000000000000000000000000000000000000000001e0000000000000000000000000000000000000000000000000000000000000000",
                    "decodedMethod": null,
                    "errorInfo": "",
                    "fromAddress": "0x399042fabc0e2409f0e907f317c8706750a26fa3",
                    "gasUsed": 209214,
                    "id": 0,
                    "methodDecoded": false,
                    "operation": "CALL",
                    "output": "0x00000000000000000000000000000000000000000000000000001098b38cdcbd",
                    "revert": false,
                    "revertMessage": "",
                    "selector": "0xb80c2f09",
                    "status": true,
                    "value": "0.23"
                },
                "nodeType": 0
            },
            "1": {
                "invocation": {
                    "address": "0xd2f0ac2012c8433f235c8e5e97f2368197dd06c7",
                    "callData": "0x0000000000000000000000000000000000000000000000000000000000000000000000000000000000000000eeeeeeeeeeeeeeeeeeeeeeeeeeeeeeeeeeeeeeee00000000000000000000000077f72cba43f6add992fc47a08faddc8897d5acb000000000000000000000000000000000000000000000000003311fc80a570000000000000000000000000000000000000000000000000000000010163806e0a90000000000000000000000000000000000000000000000000000000064c738f40000000000000000000000000000000000000000000000000000000000000120000000000000000000000000000000000000000000000000000000000000016000000000000000000000000000000000000000000000000000000000000003c0000000000000000000000000000000000000000000000000000000000000000100000000000000000000000000000000000000000000000003311fc80a570000000000000000000000000000000000000000000000000000000000000000000100000000000000000000000000000000000000000000000000000000000000200000000000000000000000000000000000000000000000000000000000000001000000000000000000000000000000000000000000000000000000000000002000000000000000000000000000000000000000000000000000000000000000a000000000000000000000000000000000000000000000000000000000000000e000000000000000000000000000000000000000000000000000000000000001200000000000000000000000000000000000000000000000000000000000000160000000000000000000000000c02aaa39b223fe8d0a0e5c4f27ead9083c756cc20000000000000000000000000000000000000000000000000000000000000001000000000000000000000000031f1ad10547b8deb43a36e5491c06a93812023a00000000000000000000000000000000000000000000000000000000000000010000000000000000000000000593e9eb9131d149bb2d7f6d533bcf6e802b781c00000000000000000000000000000000000000000000000000000000000000018000000000000000000027100593e9eb9131d149bb2d7f6d533bcf6e802b781c000000000000000000000000000000000000000000000000000000000000000100000000000000000000000000000000000000000000000000000000000000200000000000000000000000000000000000000000000000000000000000000020000000000000000000000000000000000000000000000000000000000000001e0000000000000000000000000000000000000000000000000000000000000000",
                    "decodedMethod": null,
                    "errorInfo": "",
                    "fromAddress": "0x3b3ae790df4f312e745d270119c6052904fb6790",
                    "gasUsed": 220044,
                    "id": 1,
                    "methodDecoded": false,
                    "operation": "DELEGATECALL",
                    "output": "0x00000000000000000000000000000000000000000000000000001098b38cdcbd",
                    "revert": false,
                    "revertMessage": "",
                    "selector": "0xb80c2f09",
                    "status": true,
                    "value": "0.23"
                },
                "nodeType": 0
            },
            "10": {
                "invocation": {
                    "address": "0x0593e9eb9131d149bb2d7f6d533bcf6e802b781c",
                    "callData": "0x",
                    "decodedMethod": {
                        "callParams": [],
                        "constructorArguments": "",
                        "name": "getReserves",
                        "returnParams": [
                            {
                                "name": "_reserve0",
                                "type": "uint112",
                                "value": "849,581,287,713,478"
                            },
                            {
                                "name": "_reserve1",
                                "type": "uint112",
                                "value": "10,234,317,102,624,604,962"
                            },
                            {
                                "name": "_blockTimestampLast",
                                "type": "uint32",
                                "value": "1,690,774,223"
                            }
                        ],
                        "signature": "getReserves()"
                    },
                    "errorInfo": "",
                    "fromAddress": "0x031f1ad10547b8deb43a36e5491c06a93812023a",
                    "gasUsed": 2504,
                    "id": 10,
                    "methodDecoded": true,
                    "operation": "STATICCALL",
                    "output": "0x000000000000000000000000000000000000000000000000000304b08edcaac60000000000000000000000000000000000000000000000008e07992e5ca503220000000000000000000000000000000000000000000000000000000064c72acf",
                    "revert": false,
                    "revertMessage": "",
                    "selector": "0x0902f1ac",
                    "status": true,
                    "value": "0"
                },
                "nodeType": 0
            },
            "11": {
                "invocation": {
                    "address": "0xc02aaa39b223fe8d0a0e5c4f27ead9083c756cc2",
                    "callData": "0x0000000000000000000000000593e9eb9131d149bb2d7f6d533bcf6e802b781c",
                    "decodedMethod": {
                        "callParams": [
                            {
                                "name": "",
                                "type": "address",
                                "value": "0x0593e9eb9131d149bb2d7f6d533bcf6e802b781c"
                            }
                        ],
                        "constructorArguments": "",
                        "name": "balanceOf",
                        "returnParams": [
                            {
                                "decimalAvailable": true,
                                "name": "",
                                "type": "uint256",
                                "value": "10,464,317,102,624,604,962"
                            }
                        ],
                        "signature": "balanceOf(address)"
                    },
                    "errorInfo": "",
                    "fromAddress": "0x031f1ad10547b8deb43a36e5491c06a93812023a",
                    "gasUsed": 534,
                    "id": 11,
                    "methodDecoded": true,
                    "operation": "STATICCALL",
                    "output": "0x0000000000000000000000000000000000000000000000009138b8f666fc0322",
                    "revert": false,
                    "revertMessage": "",
                    "selector": "0x70a08231",
                    "status": true,
                    "value": "0"
                },
                "nodeType": 0
            },
            "12": {
                "invocation": {
                    "address": "0x0593e9eb9131d149bb2d7f6d533bcf6e802b781c",
                    "callData": "0x000000000000000000000000000000000000000000000000000010eef79b733900000000000000000000000000000000000000000000000000000000000000000000000000000000000000003b3ae790df4f312e745d270119c6052904fb679000000000000000000000000000000000000000000000000000000000000000800000000000000000000000000000000000000000000000000000000000000000",
                    "decodedMethod": {
                        "callParams": [
                            {
                                "name": "amount0Out",
                                "type": "uint256",
                                "value": "18,618,542,420,793"
                            },
                            {
                                "name": "amount1Out",
                                "type": "uint256",
                                "value": "0"
                            },
                            {
                                "name": "to",
                                "type": "address",
                                "value": "0x3b3ae790df4f312e745d270119c6052904fb6790"
                            },
                            {
                                "name": "data",
                                "type": "bytes",
                                "value": "0x"
                            }
                        ],
                        "constructorArguments": "",
                        "name": "swap",
                        "returnParams": [],
                        "signature": "swap(uint256,uint256,address,bytes)"
                    },
                    "errorInfo": "",
                    "fromAddress": "0x031f1ad10547b8deb43a36e5491c06a93812023a",
                    "gasUsed": 106364,
                    "id": 12,
                    "methodDecoded": true,
                    "operation": "CALL",
                    "output": "",
                    "revert": false,
                    "revertMessage": "",
                    "selector": "0x022c0d9f",
                    "status": true,
                    "value": "0"
                },
                "nodeType": 0
            },
            "13": {
                "invocation": {
                    "address": "0x77f72cba43f6add992fc47a08faddc8897d5acb0",
                    "callData": "0x0000000000000000000000003b3ae790df4f312e745d270119c6052904fb6790000000000000000000000000000000000000000000000000000010eef79b7339",
                    "decodedMethod": {
                        "callParams": [
                            {
                                "name": "recipient",
                                "type": "address",
                                "value": "0x3b3ae790df4f312e745d270119c6052904fb6790"
                            },
                            {
                                "decimalAvailable": true,
                                "name": "amount",
                                "type": "uint256",
                                "value": "18,618,542,420,793"
                            }
                        ],
                        "constructorArguments": "",
                        "name": "transfer",
                        "returnParams": [
                            {
                                "name": "",
                                "type": "bool",
                                "value": true
                            }
                        ],
                        "signature": "transfer(address,uint256)"
                    },
                    "errorInfo": "",
                    "fromAddress": "0x0593e9eb9131d149bb2d7f6d533bcf6e802b781c",
                    "gasUsed": 75589,
                    "id": 13,
                    "methodDecoded": true,
                    "operation": "CALL",
                    "output": "0x0000000000000000000000000000000000000000000000000000000000000001",
                    "revert": false,
                    "revertMessage": "",
                    "selector": "0xa9059cbb",
                    "status": true,
                    "value": "0"
                },
                "nodeType": 0
            },
            "14": {
                "event": {
                    "contract": "0x77f72cba43f6add992fc47a08faddc8897d5acb0",
                    "decodedLog": {
                        "name": "Transfer",
                        "params": [
                            {
                                "name": "from",
                                "type": "address",
                                "value": "0x0593e9eb9131d149bb2d7f6d533bcf6e802b781c"
                            },
                            {
                                "name": "to",
                                "type": "address",
                                "value": "0x77f72cba43f6add992fc47a08faddc8897d5acb0"
                            },
                            {
                                "decimalAvailable": true,
                                "name": "value",
                                "type": "uint256",
                                "value": "186,185,424,207"
                            }
                        ],
                        "signature": "Transfer(address,address,uint256)"
                    },
                    "id": 14,
                    "logData": "0x0000000000000000000000000000000000000000000000000000002b59841d4f",
                    "logDecoded": true,
                    "operation": "EVENT",
                    "revert": false,
                    "status": true,
                    "topics": [
                        "0xddf252ad1be2c89b69c2b068fc378daa952ba7f163c4a11628f55a4df523b3ef",
                        "0x0000000000000000000000000593e9eb9131d149bb2d7f6d533bcf6e802b781c",
                        "0x00000000000000000000000077f72cba43f6add992fc47a08faddc8897d5acb0"
                    ]
                },
                "nodeType": 1
            },
            "15": {
                "event": {
                    "contract": "0x77f72cba43f6add992fc47a08faddc8897d5acb0",
                    "decodedLog": {
                        "name": "Transfer",
                        "params": [
                            {
                                "name": "from",
                                "type": "address",
                                "value": "0x0593e9eb9131d149bb2d7f6d533bcf6e802b781c"
                            },
                            {
                                "name": "to",
                                "type": "address",
                                "value": "0x3b3ae790df4f312e745d270119c6052904fb6790"
                            },
                            {
                                "decimalAvailable": true,
                                "name": "value",
                                "type": "uint256",
                                "value": "18,432,356,996,586"
                            }
                        ],
                        "signature": "Transfer(address,address,uint256)"
                    },
                    "id": 15,
                    "logData": "0x000000000000000000000000000000000000000000000000000010c39e1755ea",
                    "logDecoded": true,
                    "operation": "EVENT",
                    "revert": false,
                    "status": true,
                    "topics": [
                        "0xddf252ad1be2c89b69c2b068fc378daa952ba7f163c4a11628f55a4df523b3ef",
                        "0x0000000000000000000000000593e9eb9131d149bb2d7f6d533bcf6e802b781c",
                        "0x0000000000000000000000003b3ae790df4f312e745d270119c6052904fb6790"
                    ]
                },
                "nodeType": 1
            },
            "16": {
                "invocation": {
                    "address": "0x77f72cba43f6add992fc47a08faddc8897d5acb0",
                    "callData": "0x0000000000000000000000000593e9eb9131d149bb2d7f6d533bcf6e802b781c",
                    "decodedMethod": {
                        "callParams": [
                            {
                                "name": "account",
                                "type": "address",
                                "value": "0x0593e9eb9131d149bb2d7f6d533bcf6e802b781c"
                            }
                        ],
                        "constructorArguments": "",
                        "name": "balanceOf",
                        "returnParams": [
                            {
                                "decimalAvailable": true,
                                "name": "",
                                "type": "uint256",
                                "value": "830,962,745,292,685"
                            }
                        ],
                        "signature": "balanceOf(address)"
                    },
                    "errorInfo": "",
                    "fromAddress": "0x0593e9eb9131d149bb2d7f6d533bcf6e802b781c",
                    "gasUsed": 918,
                    "id": 16,
                    "methodDecoded": true,
                    "operation": "STATICCALL",
                    "output": "0x0000000000000000000000000000000000000000000000000002f3c19741378d",
                    "revert": false,
                    "revertMessage": "",
                    "selector": "0x70a08231",
                    "status": true,
                    "value": "0"
                },
                "nodeType": 0
            },
            "17": {
                "invocation": {
                    "address": "0xc02aaa39b223fe8d0a0e5c4f27ead9083c756cc2",
                    "callData": "0x0000000000000000000000000593e9eb9131d149bb2d7f6d533bcf6e802b781c",
                    "decodedMethod": {
                        "callParams": [
                            {
                                "name": "",
                                "type": "address",
                                "value": "0x0593e9eb9131d149bb2d7f6d533bcf6e802b781c"
                            }
                        ],
                        "constructorArguments": "",
                        "name": "balanceOf",
                        "returnParams": [
                            {
                                "decimalAvailable": true,
                                "name": "",
                                "type": "uint256",
                                "value": "10,464,317,102,624,604,962"
                            }
                        ],
                        "signature": "balanceOf(address)"
                    },
                    "errorInfo": "",
                    "fromAddress": "0x0593e9eb9131d149bb2d7f6d533bcf6e802b781c",
                    "gasUsed": 534,
                    "id": 17,
                    "methodDecoded": true,
                    "operation": "STATICCALL",
                    "output": "0x0000000000000000000000000000000000000000000000009138b8f666fc0322",
                    "revert": false,
                    "revertMessage": "",
                    "selector": "0x70a08231",
                    "status": true,
                    "value": "0"
                },
                "nodeType": 0
            },
            "18": {
                "event": {
                    "contract": "0x0593e9eb9131d149bb2d7f6d533bcf6e802b781c",
                    "decodedLog": {
                        "name": "Sync",
                        "params": [
                            {
                                "name": "reserve0",
                                "type": "uint112",
                                "value": "830,962,745,292,685"
                            },
                            {
                                "name": "reserve1",
                                "type": "uint112",
                                "value": "10,464,317,102,624,604,962"
                            }
                        ],
                        "signature": "Sync(uint112,uint112)"
                    },
                    "id": 18,
                    "logData": "0x0000000000000000000000000000000000000000000000000002f3c19741378d0000000000000000000000000000000000000000000000009138b8f666fc0322",
                    "logDecoded": true,
                    "operation": "EVENT",
                    "revert": false,
                    "status": true,
                    "topics": [
                        "0x1c411e9a96e071241c2f21f7726b17ae89e3cab4c78be50e062b03a9fffbbad1"
                    ]
                },
                "nodeType": 1
            },
            "19": {
                "event": {
                    "contract": "0x0593e9eb9131d149bb2d7f6d533bcf6e802b781c",
                    "decodedLog": {
                        "name": "Swap",
                        "params": [
                            {
                                "name": "sender",
                                "type": "address",
                                "value": "0x031f1ad10547b8deb43a36e5491c06a93812023a"
                            },
                            {
                                "name": "to",
                                "type": "address",
                                "value": "0x3b3ae790df4f312e745d270119c6052904fb6790"
                            },
                            {
                                "name": "amount0In",
                                "type": "uint256",
                                "value": "0"
                            },
                            {
                                "name": "amount1In",
                                "type": "uint256",
                                "value": "230,000,000,000,000,000"
                            },
                            {
                                "name": "amount0Out",
                                "type": "uint256",
                                "value": "18,618,542,420,793"
                            },
                            {
                                "name": "amount1Out",
                                "type": "uint256",
                                "value": "0"
                            }
                        ],
                        "signature": "Swap(address,uint256,uint256,uint256,uint256,address)"
                    },
                    "id": 19,
                    "logData": "0x000000000000000000000000000000000000000000000000000000000000000000000000000000000000000000000000000000000000000003311fc80a570000000000000000000000000000000000000000000000000000000010eef79b73390000000000000000000000000000000000000000000000000000000000000000",
                    "logDecoded": true,
                    "operation": "EVENT",
                    "revert": false,
                    "status": true,
                    "topics": [
                        "0xd78ad95fa46c994b6551d0da85fc275fe613ce37657fb8d5e3d130840159d822",
                        "0x000000000000000000000000031f1ad10547b8deb43a36e5491c06a93812023a",
                        "0x0000000000000000000000003b3ae790df4f312e745d270119c6052904fb6790"
                    ]
                },
                "nodeType": 1
            },
            "2": {
                "event": {
                    "contract": "0x3b3ae790df4f312e745d270119c6052904fb6790",
                    "decodedLog": null,
                    "id": 2,
                    "logData": "0x0000000000000000000000000000000000000000000000000000000000000000",
                    "logDecoded": false,
                    "operation": "EVENT",
                    "revert": false,
                    "status": true,
                    "topics": [
                        "0x7724394874fdd8ad13292ec739b441f85c6559f10dc4141b8d4c0fa4cbf55bdb"
                    ]
                },
                "nodeType": 1
            },
            "20": {
                "invocation": {
                    "address": "0x77f72cba43f6add992fc47a08faddc8897d5acb0",
                    "callData": "0x0000000000000000000000003b3ae790df4f312e745d270119c6052904fb6790",
                    "decodedMethod": {
                        "callParams": [
                            {
                                "name": "account",
                                "type": "address",
                                "value": "0x3b3ae790df4f312e745d270119c6052904fb6790"
                            }
                        ],
                        "constructorArguments": "",
                        "name": "balanceOf",
                        "returnParams": [
                            {
                                "decimalAvailable": true,
                                "name": "",
                                "type": "uint256",
                                "value": "18,432,356,996,586"
                            }
                        ],
                        "signature": "balanceOf(address)"
                    },
                    "errorInfo": "",
                    "fromAddress": "0x3b3ae790df4f312e745d270119c6052904fb6790",
                    "gasUsed": 918,
                    "id": 20,
                    "methodDecoded": true,
                    "operation": "STATICCALL",
                    "output": "0x000000000000000000000000000000000000000000000000000010c39e1755ea",
                    "revert": false,
                    "revertMessage": "",
                    "selector": "0x70a08231",
                    "status": true,
                    "value": "0"
                },
                "nodeType": 0
            },
            "21": {
                "invocation": {
                    "address": "0x77f72cba43f6add992fc47a08faddc8897d5acb0",
                    "callData": "0x000000000000000000000000399042fabc0e2409f0e907f317c8706750a26fa3000000000000000000000000000000000000000000000000000010c39e1755ea",
                    "decodedMethod": {
                        "callParams": [
                            {
                                "name": "recipient",
                                "type": "address",
                                "value": "0x399042fabc0e2409f0e907f317c8706750a26fa3"
                            },
                            {
                                "decimalAvailable": true,
                                "name": "amount",
                                "type": "uint256",
                                "value": "18,432,356,996,586"
                            }
                        ],
                        "constructorArguments": "",
                        "name": "transfer",
                        "returnParams": [
                            {
                                "name": "",
                                "type": "bool",
                                "value": true
                            }
                        ],
                        "signature": "transfer(address,uint256)"
                    },
                    "errorInfo": "",
                    "fromAddress": "0x3b3ae790df4f312e745d270119c6052904fb6790",
                    "gasUsed": 33196,
                    "id": 21,
                    "methodDecoded": true,
                    "operation": "CALL",
                    "output": "0x0000000000000000000000000000000000000000000000000000000000000001",
                    "revert": false,
                    "revertMessage": "",
                    "selector": "0xa9059cbb",
                    "status": true,
                    "value": "0"
                },
                "nodeType": 0
            },
            "22": {
                "event": {
                    "contract": "0x77f72cba43f6add992fc47a08faddc8897d5acb0",
                    "decodedLog": {
                        "name": "Transfer",
                        "params": [
                            {
                                "name": "from",
                                "type": "address",
                                "value": "0x3b3ae790df4f312e745d270119c6052904fb6790"
                            },
                            {
                                "name": "to",
                                "type": "address",
                                "value": "0x77f72cba43f6add992fc47a08faddc8897d5acb0"
                            },
                            {
                                "decimalAvailable": true,
                                "name": "value",
                                "type": "uint256",
                                "value": "184,323,569,965"
                            }
                        ],
                        "signature": "Transfer(address,address,uint256)"
                    },
                    "id": 22,
                    "logData": "0x0000000000000000000000000000000000000000000000000000002aea8a792d",
                    "logDecoded": true,
                    "operation": "EVENT",
                    "revert": false,
                    "status": true,
                    "topics": [
                        "0xddf252ad1be2c89b69c2b068fc378daa952ba7f163c4a11628f55a4df523b3ef",
                        "0x0000000000000000000000003b3ae790df4f312e745d270119c6052904fb6790",
                        "0x00000000000000000000000077f72cba43f6add992fc47a08faddc8897d5acb0"
                    ]
                },
                "nodeType": 1
            },
            "23": {
                "event": {
                    "contract": "0x77f72cba43f6add992fc47a08faddc8897d5acb0",
                    "decodedLog": {
                        "name": "Transfer",
                        "params": [
                            {
                                "name": "from",
                                "type": "address",
                                "value": "0x3b3ae790df4f312e745d270119c6052904fb6790"
                            },
                            {
                                "name": "to",
                                "type": "address",
                                "value": "0x399042fabc0e2409f0e907f317c8706750a26fa3"
                            },
                            {
                                "decimalAvailable": true,
                                "name": "value",
                                "type": "uint256",
                                "value": "18,248,033,426,621"
                            }
                        ],
                        "signature": "Transfer(address,address,uint256)"
                    },
                    "id": 23,
                    "logData": "0x00000000000000000000000000000000000000000000000000001098b38cdcbd",
                    "logDecoded": true,
                    "operation": "EVENT",
                    "revert": false,
                    "status": true,
                    "topics": [
                        "0xddf252ad1be2c89b69c2b068fc378daa952ba7f163c4a11628f55a4df523b3ef",
                        "0x0000000000000000000000003b3ae790df4f312e745d270119c6052904fb6790",
                        "0x000000000000000000000000399042fabc0e2409f0e907f317c8706750a26fa3"
                    ]
                },
                "nodeType": 1
            },
            "24": {
                "invocation": {
                    "address": "0x77f72cba43f6add992fc47a08faddc8897d5acb0",
                    "callData": "0x000000000000000000000000399042fabc0e2409f0e907f317c8706750a26fa3",
                    "decodedMethod": {
                        "callParams": [
                            {
                                "name": "account",
                                "type": "address",
                                "value": "0x399042fabc0e2409f0e907f317c8706750a26fa3"
                            }
                        ],
                        "constructorArguments": "",
                        "name": "balanceOf",
                        "returnParams": [
                            {
                                "decimalAvailable": true,
                                "name": "",
                                "type": "uint256",
                                "value": "18,248,033,426,621"
                            }
                        ],
                        "signature": "balanceOf(address)"
                    },
                    "errorInfo": "",
                    "fromAddress": "0x3b3ae790df4f312e745d270119c6052904fb6790",
                    "gasUsed": 918,
                    "id": 24,
                    "methodDecoded": true,
                    "operation": "STATICCALL",
                    "output": "0x00000000000000000000000000000000000000000000000000001098b38cdcbd",
                    "revert": false,
                    "revertMessage": "",
                    "selector": "0x70a08231",
                    "status": true,
                    "value": "0"
                },
                "nodeType": 0
            },
            "25": {
                "event": {
                    "contract": "0x3b3ae790df4f312e745d270119c6052904fb6790",
                    "decodedLog": {
                        "name": "OrderRecord",
                        "params": [
                            {
                                "name": "fromToken",
                                "type": "address",
                                "value": "0xeeeeeeeeeeeeeeeeeeeeeeeeeeeeeeeeeeeeeeee"
                            },
                            {
                                "name": "toToken",
                                "type": "address",
                                "value": "0x77f72cba43f6add992fc47a08faddc8897d5acb0"
                            },
                            {
                                "name": "sender",
                                "type": "address",
                                "value": "0x399042fabc0e2409f0e907f317c8706750a26fa3"
                            },
                            {
                                "name": "fromAmount",
                                "type": "uint256",
                                "value": "230,000,000,000,000,000"
                            },
                            {
                                "name": "returnAmount",
                                "type": "uint256",
                                "value": "18,248,033,426,621"
                            }
                        ],
                        "signature": "OrderRecord(address,address,address,uint256,uint256)"
                    },
                    "id": 25,
                    "logData": "0x000000000000000000000000eeeeeeeeeeeeeeeeeeeeeeeeeeeeeeeeeeeeeeee00000000000000000000000077f72cba43f6add992fc47a08faddc8897d5acb0000000000000000000000000399042fabc0e2409f0e907f317c8706750a26fa300000000000000000000000000000000000000000000000003311fc80a57000000000000000000000000000000000000000000000000000000001098b38cdcbd",
                    "logDecoded": true,
                    "operation": "EVENT",
                    "revert": false,
                    "status": true,
                    "topics": [
                        "0x1bb43f2da90e35f7b0cf38521ca95a49e68eb42fac49924930a5bd73cdf7576c"
                    ]
                },
                "nodeType": 1
            },
            "3": {
                "invocation": {
                    "address": "0x77f72cba43f6add992fc47a08faddc8897d5acb0",
                    "callData": "0x000000000000000000000000399042fabc0e2409f0e907f317c8706750a26fa3",
                    "decodedMethod": {
                        "callParams": [
                            {
                                "name": "account",
                                "type": "address",
                                "value": "0x399042fabc0e2409f0e907f317c8706750a26fa3"
                            }
                        ],
                        "constructorArguments": "",
                        "name": "balanceOf",
                        "returnParams": [
                            {
                                "decimalAvailable": true,
                                "name": "",
                                "type": "uint256",
                                "value": "0"
                            }
                        ],
                        "signature": "balanceOf(address)"
                    },
                    "errorInfo": "",
                    "fromAddress": "0x3b3ae790df4f312e745d270119c6052904fb6790",
                    "gasUsed": 2918,
                    "id": 3,
                    "methodDecoded": true,
                    "operation": "STATICCALL",
                    "output": "0x0000000000000000000000000000000000000000000000000000000000000000",
                    "revert": false,
                    "revertMessage": "",
                    "selector": "0x70a08231",
                    "status": true,
                    "value": "0"
                },
                "nodeType": 0
            },
            "4": {
                "invocation": {
                    "address": "0xc02aaa39b223fe8d0a0e5c4f27ead9083c756cc2",
                    "callData": "0x",
                    "decodedMethod": {
                        "callParams": [],
                        "constructorArguments": "",
                        "name": "deposit",
                        "returnParams": [],
                        "signature": "deposit()"
                    },
                    "errorInfo": "",
                    "fromAddress": "0x3b3ae790df4f312e745d270119c6052904fb6790",
                    "gasUsed": 23974,
                    "id": 4,
                    "methodDecoded": true,
                    "operation": "CALL",
                    "output": "",
                    "revert": false,
                    "revertMessage": "",
                    "selector": "0xd0e30db0",
                    "status": true,
                    "value": "0.23"
                },
                "nodeType": 0
            },
            "5": {
                "event": {
                    "contract": "0xc02aaa39b223fe8d0a0e5c4f27ead9083c756cc2",
                    "decodedLog": {
                        "name": "Deposit",
                        "params": [
                            {
                                "name": "dst",
                                "type": "address",
                                "value": "0x3b3ae790df4f312e745d270119c6052904fb6790"
                            },
                            {
                                "name": "wad",
                                "type": "uint256",
                                "value": "230,000,000,000,000,000"
                            }
                        ],
                        "signature": "Deposit(address,uint256)"
                    },
                    "id": 5,
                    "logData": "0x00000000000000000000000000000000000000000000000003311fc80a570000",
                    "logDecoded": true,
                    "operation": "EVENT",
                    "revert": false,
                    "status": true,
                    "topics": [
                        "0xe1fffcc4923d04b559f4d29a8bfc6cda04eb5b0d3c460751c2402c5c5cc9109c",
                        "0x0000000000000000000000003b3ae790df4f312e745d270119c6052904fb6790"
                    ]
                },
                "nodeType": 1
            },
            "6": {
                "invocation": {
                    "address": "0xc02aaa39b223fe8d0a0e5c4f27ead9083c756cc2",
                    "callData": "0x0000000000000000000000000593e9eb9131d149bb2d7f6d533bcf6e802b781c00000000000000000000000000000000000000000000000003311fc80a570000",
                    "decodedMethod": {
                        "callParams": [
                            {
                                "name": "dst",
                                "type": "address",
                                "value": "0x0593e9eb9131d149bb2d7f6d533bcf6e802b781c"
                            },
                            {
                                "decimalAvailable": true,
                                "name": "wad",
                                "type": "uint256",
                                "value": "230,000,000,000,000,000"
                            }
                        ],
                        "constructorArguments": "",
                        "name": "transfer",
                        "returnParams": [
                            {
                                "name": "",
                                "type": "bool",
                                "value": true
                            }
                        ],
                        "signature": "transfer(address,uint256)"
                    },
                    "errorInfo": "",
                    "fromAddress": "0x3b3ae790df4f312e745d270119c6052904fb6790",
                    "gasUsed": 8062,
                    "id": 6,
                    "methodDecoded": true,
                    "operation": "CALL",
                    "output": "0x0000000000000000000000000000000000000000000000000000000000000001",
                    "revert": false,
                    "revertMessage": "",
                    "selector": "0xa9059cbb",
                    "status": true,
                    "value": "0"
                },
                "nodeType": 0
            },
            "7": {
                "event": {
                    "contract": "0xc02aaa39b223fe8d0a0e5c4f27ead9083c756cc2",
                    "decodedLog": {
                        "name": "Transfer",
                        "params": [
                            {
                                "name": "src",
                                "type": "address",
                                "value": "0x3b3ae790df4f312e745d270119c6052904fb6790"
                            },
                            {
                                "name": "dst",
                                "type": "address",
                                "value": "0x0593e9eb9131d149bb2d7f6d533bcf6e802b781c"
                            },
                            {
                                "decimalAvailable": true,
                                "name": "wad",
                                "type": "uint256",
                                "value": "230,000,000,000,000,000"
                            }
                        ],
                        "signature": "Transfer(address,address,uint256)"
                    },
                    "id": 7,
                    "logData": "0x00000000000000000000000000000000000000000000000003311fc80a570000",
                    "logDecoded": true,
                    "operation": "EVENT",
                    "revert": false,
                    "status": true,
                    "topics": [
                        "0xddf252ad1be2c89b69c2b068fc378daa952ba7f163c4a11628f55a4df523b3ef",
                        "0x0000000000000000000000003b3ae790df4f312e745d270119c6052904fb6790",
                        "0x0000000000000000000000000593e9eb9131d149bb2d7f6d533bcf6e802b781c"
                    ]
                },
                "nodeType": 1
            },
            "8": {
                "invocation": {
                    "address": "0x031f1ad10547b8deb43a36e5491c06a93812023a",
                    "callData": "0x0000000000000000000000003b3ae790df4f312e745d270119c6052904fb67900000000000000000000000000593e9eb9131d149bb2d7f6d533bcf6e802b781c00000000000000000000000000000000000000000000000000000000000000600000000000000000000000000000000000000000000000000000000000000020000000000000000000000000000000000000000000000000000000000000001e",
                    "decodedMethod": {
                        "callParams": [
                            {
                                "name": "to",
                                "type": "address",
                                "value": "0x3b3ae790df4f312e745d270119c6052904fb6790"
                            },
                            {
                                "name": "pool",
                                "type": "address",
                                "value": "0x0593e9eb9131d149bb2d7f6d533bcf6e802b781c"
                            },
                            {
                                "name": "moreInfo",
                                "type": "bytes",
                                "value": "0x000000000000000000000000000000000000000000000000000000000000001e"
                            }
                        ],
                        "constructorArguments": "",
                        "name": "sellQuote",
                        "returnParams": [],
                        "signature": "sellQuote(address,address,bytes)"
                    },
                    "errorInfo": "",
                    "fromAddress": "0x3b3ae790df4f312e745d270119c6052904fb6790",
                    "gasUsed": 118390,
                    "id": 8,
                    "methodDecoded": true,
                    "operation": "CALL",
                    "output": "",
                    "revert": false,
                    "revertMessage": "",
                    "selector": "0x6f7929f2",
                    "status": true,
                    "value": "0"
                },
                "nodeType": 0
            },
            "9": {
                "invocation": {
                    "address": "0x0593e9eb9131d149bb2d7f6d533bcf6e802b781c",
                    "callData": "0x",
                    "decodedMethod": {
                        "callParams": [],
                        "constructorArguments": "",
                        "name": "token1",
                        "returnParams": [
                            {
                                "name": "",
                                "type": "address",
                                "value": "0xc02aaa39b223fe8d0a0e5c4f27ead9083c756cc2"
                            }
                        ],
                        "signature": "token1()"
                    },
                    "errorInfo": "",
                    "fromAddress": "0x031f1ad10547b8deb43a36e5491c06a93812023a",
                    "gasUsed": 2357,
                    "id": 9,
                    "methodDecoded": true,
                    "operation": "STATICCALL",
                    "output": "0x000000000000000000000000c02aaa39b223fe8d0a0e5c4f27ead9083c756cc2",
                    "revert": false,
                    "revertMessage": "",
                    "selector": "0xd21220a7",
                    "status": true,
                    "value": "0"
                },
                "nodeType": 0
            }
        },
        "gasFlame": [
            {
                "children": [
                    {
                        "children": [
                            {
                                "children": [],
                                "depth": 0,
                                "name": "Initial Gas",
                                "value": 27060
                            },
                            {
                                "children": [
                                    {
                                        "children": [
                                            {
                                                "children": [],
                                                "depth": 2,
                                                "name": "balanceOf",
                                                "value": 2918
                                            },
                                            {
                                                "children": [],
                                                "depth": 2,
                                                "name": "deposit",
                                                "value": 23974
                                            },
                                            {
                                                "children": [],
                                                "depth": 2,
                                                "name": "transfer",
                                                "value": 8062
                                            },
                                            {
                                                "children": [
                                                    {
                                                        "children": [],
                                                        "depth": 3,
                                                        "name": "token1",
                                                        "value": 2357
                                                    },
                                                    {
                                                        "children": [],
                                                        "depth": 3,
                                                        "name": "getReserves",
                                                        "value": 2504
                                                    },
                                                    {
                                                        "children": [],
                                                        "depth": 3,
                                                        "name": "balanceOf",
                                                        "value": 534
                                                    },
                                                    {
                                                        "children": [
                                                            {
                                                                "children": [],
                                                                "depth": 4,
                                                                "name": "transfer",
                                                                "value": 75589
                                                            },
                                                            {
                                                                "children": [],
                                                                "depth": 4,
                                                                "name": "balanceOf",
                                                                "value": 918
                                                            },
                                                            {
                                                                "children": [],
                                                                "depth": 4,
                                                                "name": "balanceOf",
                                                                "value": 534
                                                            }
                                                        ],
                                                        "depth": 3,
                                                        "name": "swap",
                                                        "value": 106364
                                                    }
                                                ],
                                                "depth": 2,
                                                "name": "sellQuote",
                                                "value": 118390
                                            },
                                            {
                                                "children": [],
                                                "depth": 2,
                                                "name": "balanceOf",
                                                "value": 918
                                            },
                                            {
                                                "children": [],
                                                "depth": 2,
                                                "name": "transfer",
                                                "value": 33196
                                            },
                                            {
                                                "children": [],
                                                "depth": 2,
                                                "name": "balanceOf",
                                                "value": 918
                                            }
                                        ],
                                        "depth": 1,
                                        "name": "0xb80c2f09",
                                        "value": 220044
                                    }
                                ],
                                "depth": 0,
                                "name": "Executed Gas",
                                "value": 227554
                            }
                        ],
                        "depth": -1,
                        "name": "Actual Gas Used",
                        "value": 209214
                    },
                    {
                        "children": [],
                        "depth": -1,
                        "name": "Refunded Gas",
                        "value": 45400
                    }
                ],
                "depth": -2,
                "name": "Total Gas",
                "value": 254614
            }
        ],
        "isConfirmed": true,
        "mainTrace": [
            {
                "children": [
                    {
                        "children": [
                            {
                                "children": [
                                    {
                                        "children": [],
                                        "depth": 2,
                                        "id": 2,
                                        "order": 2
                                    },
                                    {
                                        "children": [],
                                        "depth": 2,
                                        "id": 3,
                                        "order": 3
                                    },
                                    {
                                        "children": [
                                            {
                                                "children": [],
                                                "depth": 3,
                                                "id": 5,
                                                "order": 5
                                            }
                                        ],
                                        "depth": 2,
                                        "id": 4,
                                        "order": 4
                                    },
                                    {
                                        "children": [
                                            {
                                                "children": [],
                                                "depth": 3,
                                                "id": 7,
                                                "order": 7
                                            }
                                        ],
                                        "depth": 2,
                                        "id": 6,
                                        "order": 6
                                    },
                                    {
                                        "children": [
                                            {
                                                "children": [],
                                                "depth": 3,
                                                "id": 9,
                                                "order": 9
                                            },
                                            {
                                                "children": [],
                                                "depth": 3,
                                                "id": 10,
                                                "order": 10
                                            },
                                            {
                                                "children": [],
                                                "depth": 3,
                                                "id": 11,
                                                "order": 11
                                            },
                                            {
                                                "children": [
                                                    {
                                                        "children": [
                                                            {
                                                                "children": [],
                                                                "depth": 5,
                                                                "id": 14,
                                                                "order": 14
                                                            },
                                                            {
                                                                "children": [],
                                                                "depth": 5,
                                                                "id": 15,
                                                                "order": 15
                                                            }
                                                        ],
                                                        "depth": 4,
                                                        "id": 13,
                                                        "order": 13
                                                    },
                                                    {
                                                        "children": [],
                                                        "depth": 4,
                                                        "id": 16,
                                                        "order": 16
                                                    },
                                                    {
                                                        "children": [],
                                                        "depth": 4,
                                                        "id": 17,
                                                        "order": 17
                                                    },
                                                    {
                                                        "children": [],
                                                        "depth": 4,
                                                        "id": 18,
                                                        "order": 18
                                                    },
                                                    {
                                                        "children": [],
                                                        "depth": 4,
                                                        "id": 19,
                                                        "order": 19
                                                    }
                                                ],
                                                "depth": 3,
                                                "id": 12,
                                                "order": 12
                                            }
                                        ],
                                        "depth": 2,
                                        "id": 8,
                                        "order": 8
                                    },
                                    {
                                        "children": [],
                                        "depth": 2,
                                        "id": 20,
                                        "order": 20
                                    },
                                    {
                                        "children": [
                                            {
                                                "children": [],
                                                "depth": 3,
                                                "id": 22,
                                                "order": 22
                                            },
                                            {
                                                "children": [],
                                                "depth": 3,
                                                "id": 23,
                                                "order": 23
                                            }
                                        ],
                                        "depth": 2,
                                        "id": 21,
                                        "order": 21
                                    },
                                    {
                                        "children": [],
                                        "depth": 2,
                                        "id": 24,
                                        "order": 24
                                    },
                                    {
                                        "children": [],
                                        "depth": 2,
                                        "id": 25,
                                        "order": 25
                                    }
                                ],
                                "depth": 1,
                                "id": 1,
                                "order": 1
                            }
                        ],
                        "depth": 0,
                        "id": 0,
                        "order": 0
                    }
                ],
                "depth": -1,
                "id": -1,
                "order": -1
            }
        ],
        "mainTraceNodeCount": 26,
        "parentIdMap": {
            "0": -1,
            "1": 0,
            "10": 8,
            "11": 8,
            "12": 8,
            "13": 12,
            "14": 13,
            "15": 13,
            "16": 12,
            "17": 12,
            "18": 12,
            "19": 12,
            "2": 1,
            "20": 1,
            "21": 1,
            "22": 21,
            "23": 21,
            "24": 1,
            "25": 1,
            "3": 1,
            "4": 1,
            "5": 4,
            "6": 1,
            "7": 6,
            "8": 1,
            "9": 8
        },
        "tidyTrace": [
            {
                "children": [
                    {
                        "children": [
                            {
                                "children": [
                                    {
                                        "children": [],
                                        "depth": 2,
                                        "id": 2,
                                        "order": 2
                                    },
                                    {
                                        "children": [
                                            {
                                                "children": [],
                                                "depth": 3,
                                                "id": 5,
                                                "order": 5
                                            }
                                        ],
                                        "depth": 2,
                                        "id": 4,
                                        "order": 4
                                    },
                                    {
                                        "children": [
                                            {
                                                "children": [],
                                                "depth": 3,
                                                "id": 7,
                                                "order": 7
                                            }
                                        ],
                                        "depth": 2,
                                        "id": 6,
                                        "order": 6
                                    },
                                    {
                                        "children": [
                                            {
                                                "children": [
                                                    {
                                                        "children": [
                                                            {
                                                                "children": [],
                                                                "depth": 5,
                                                                "id": 14,
                                                                "order": 14
                                                            },
                                                            {
                                                                "children": [],
                                                                "depth": 5,
                                                                "id": 15,
                                                                "order": 15
                                                            }
                                                        ],
                                                        "depth": 4,
                                                        "id": 13,
                                                        "order": 13
                                                    },
                                                    {
                                                        "children": [],
                                                        "depth": 4,
                                                        "id": 18,
                                                        "order": 18
                                                    },
                                                    {
                                                        "children": [],
                                                        "depth": 4,
                                                        "id": 19,
                                                        "order": 19
                                                    }
                                                ],
                                                "depth": 3,
                                                "id": 12,
                                                "order": 12
                                            }
                                        ],
                                        "depth": 2,
                                        "id": 8,
                                        "order": 8
                                    },
                                    {
                                        "children": [
                                            {
                                                "children": [],
                                                "depth": 3,
                                                "id": 22,
                                                "order": 22
                                            },
                                            {
                                                "children": [],
                                                "depth": 3,
                                                "id": 23,
                                                "order": 23
                                            }
                                        ],
                                        "depth": 2,
                                        "id": 21,
                                        "order": 21
                                    },
                                    {
                                        "children": [],
                                        "depth": 2,
                                        "id": 25,
                                        "order": 25
                                    }
                                ],
                                "depth": 1,
                                "id": 1,
                                "order": 1
                            }
                        ],
                        "depth": 0,
                        "id": 0,
                        "order": 0
                    }
                ],
                "depth": -1,
                "id": -1,
                "order": -1
            }
        ],
        "tidyTraceNodeCount": 18
    },
    "state_change": {
        "stateChanges": [
            {
                "address": "0x0593e9eb9131d149bb2d7f6d533bcf6e802b781c",
                "erc": "ERC-20",
                "slots": [
                    {
                        "current": "0x0000000000000000000000000000000000075f8540ba8240bf3123e388c0246c",
                        "key": "0x000000000000000000000000000000000000000000000000000000000000000a",
                        "prev": "0x0000000000000000000000000000000000075ec1668f5c68348c3bcb36dc62e0"
                    },
                    {
                        "current": "0x64c72af30000000000009138b8f666fc03220000000000000002f3c19741378d",
                        "key": "0x0000000000000000000000000000000000000000000000000000000000000008",
                        "prev": "0x64c72acf0000000000008e07992e5ca50322000000000000000304b08edcaac6"
                    },
                    {
                        "current": "0x00000000000000000000000000000ffc347538d98fd96e0e006297d530b991f4",
                        "key": "0x0000000000000000000000000000000000000000000000000000000000000009",
                        "prev": "0x00000000000000000000000000000ff596722a91803dd50f434ec0beed28ad58"
                    }
                ],
                "storageVariables": [
                    {
                        "name": "price0CumulativeLast",
                        "type": "uint256",
                        "value": {
                            "current": "1392505173948045424975467238648386808287732",
                            "prev": "1390253445856632209348986722350536636018008",
                            "typeTag": 1
                        }
                    },
                    {
                        "name": "price1CumulativeLast",
                        "type": "uint256",
                        "value": {
                            "current": "38283464300221032272519795954426988",
                            "prev": "38267947288636077383083855668077280",
                            "typeTag": 1
                        }
                    },
                    {
                        "name": "reserve0",
                        "type": "uint112",
                        "value": {
                            "current": "830962745292685",
                            "prev": "849581287713478",
                            "typeTag": 1
                        }
                    },
                    {
                        "name": "reserve1",
                        "type": "uint112",
                        "value": {
                            "current": "10464317102624604962",
                            "prev": "10234317102624604962",
                            "typeTag": 1
                        }
                    },
                    {
                        "name": "blockTimestampLast",
                        "type": "uint32",
                        "value": {
                            "current": "1690774259",
                            "prev": "1690774223",
                            "typeTag": 1
                        }
                    }
                ]
            },
            {
                "address": "0x77f72cba43f6add992fc47a08faddc8897d5acb0",
                "erc": "ERC-20",
                "slots": [
                    {
                        "current": "0x0000000000000000000000000000000000000000000000000002f3c19741378d",
                        "key": "0x4a5c0bbacf1d1a1f8209b68de5ef4946b78ec0ac52f95c9da4bcf15d21d3ea92",
                        "prev": "0x000000000000000000000000000000000000000000000000000304b08edcaac6"
                    },
                    {
                        "current": "0x0000000000000000000000000000000000000000000000000000000000000626",
                        "key": "0x000000000000000000000000000000000000000000000000000000000000000f",
                        "prev": "0x0000000000000000000000000000000000000000000000000000000000000625"
                    },
                    {
                        "current": "0x00000000000000000000000000000000000000000000000000001098b38cdcbd",
                        "key": "0xf2fec13852ea9e135791a854cab818e14bad301cfdaa742cf3e86810350b18ef",
                        "prev": "0x0000000000000000000000000000000000000000000000000000000000000000"
                    },
                    {
                        "current": "0x0000000000000000000000000000000000000000000000000000008b10a41826",
                        "key": "0x9c8c561c19f2dc65760253850e0b9cf7617775e588a4ddb08000c9e64b5f433f",
                        "prev": "0x00000000000000000000000000000000000000000000000000000034cc9581aa"
                    }
                ],
                "storageVariables": [
                    {
                        "name": "_balances",
                        "type": "mapping(address => uint256)",
                        "value": {
                            "pairs": [
                                {
                                    "key": "0x0593e9eb9131d149bb2d7f6d533bcf6e802b781c",
                                    "value": {
                                        "current": "830962745292685",
                                        "prev": "849581287713478",
                                        "typeTag": 1
                                    }
                                },
                                {
                                    "key": "0x399042fabc0e2409f0e907f317c8706750a26fa3",
                                    "value": {
                                        "current": "18248033426621",
                                        "prev": "0",
                                        "typeTag": 1
                                    }
                                },
                                {
                                    "key": "0x77f72cba43f6add992fc47a08faddc8897d5acb0",
                                    "value": {
                                        "current": "597279643686",
                                        "prev": "226770649514",
                                        "typeTag": 1
                                    }
                                }
                            ],
                            "typeTag": 4
                        }
                    },
                    {
                        "name": "_buyCount",
                        "type": "uint256",
                        "value": {
                            "current": "1574",
                            "prev": "1573",
                            "typeTag": 1
                        }
                    }
                ]
            },
            {
                "address": "0xc02aaa39b223fe8d0a0e5c4f27ead9083c756cc2",
                "erc": "ERC-20",
                "slots": [
                    {
                        "current": "0x0000000000000000000000000000000000000000000000009138b8f666fc0322",
                        "key": "0x351f747218b4268b2f93d804e32a5f12183a9b8ad06f1843bbba829a55b4855a",
                        "prev": "0x0000000000000000000000000000000000000000000000008e07992e5ca50322"
                    }
                ],
                "storageVariables": [
                    {
                        "name": "balanceOf",
                        "type": "mapping(address => uint256)",
                        "value": {
                            "pairs": [
                                {
                                    "key": "0x0593e9eb9131d149bb2d7f6d533bcf6e802b781c",
                                    "value": {
                                        "current": "10464317102624604962",
                                        "prev": "10234317102624604962",
                                        "typeTag": 1
                                    }
                                }
                            ],
                            "typeTag": 4
                        }
                    }
                ]
            }
        ]
    }
}