{
    "balance_change": {
        "balanceChanges": [
            {
                "account": "0x8fcd91d08f8b5cc4846a27a937e91f4e67faf16e",
                "assets": [
                    {
                        "address": "0x507096e1c7f6b8632de56a12c74c343fca3651e4",
                        "amount": "50,000",
                        "iconUrl": "",
                        "isERC1155": false,
                        "isERC721": false,
                        "sign": false,
                        "value": ""
                    }
                ]
            },
            {
                "account": "0xfb49648c252fb2047ea8f3b34cc04489cf35eb88",
                "assets": [
                    {
                        "address": "0x507096e1c7f6b8632de56a12c74c343fca3651e4",
                        "amount": "50,000",
                        "iconUrl": "",
                        "isERC1155": false,
                        "isERC721": false,
                        "sign": true,
                        "value": ""
                    }
                ]
            }
        ]
    },
    "profile": {
        "basic_info": {
            "baseFee": "",
            "blockNumber": 9932304,
            "callData": "0xa9059cbb000000000000000000000000fb49648c252fb2047ea8f3b34cc04489cf35eb880000000000000000000000000000000000000000000000000000000ba43b7400",
            "debugEnable": true,
            "errorInfo": "",
            "eventCount": 1,
            "feeRecipient": "0x84a0d77c693adabe0ebc48f88b3ffff010577051",
            "formatValue": "0",
            "gasLimit": 60000,
            "gasPrice": "4.400000233",
            "gasUsed": 57247,
            "intTxnCount": 0,
            "internalRevert": false,
            "internalRevertMessage": "",
            "isContractCreation": false,
            "isFlashloan": false,
            "maxFee": "",
            "nonce": 48,
            "overwritedBlockNumber": -1,
            "priorityFee": "",
            "receiver": "0x507096e1c7f6b8632de56a12c74c343fca3651e4",
            "revertMessage": "",
            "sender": "0x8fcd91d08f8b5cc4846a27a937e91f4e67faf16e",
            "simulationEnable": true,
            "sourceTxnHash": "0xa82bbc7d1c8bff58eabb32fa6ac4f7df7146aa25c06c07dce9f3a60bcc94c513",
            "status": true,
            "timestamp": "2020-04-24T01:44:02Z",
            "transactionFee": "0.000251886813338551",
            "txnHash": "0xa82bbc7d1c8bff58eabb32fa6ac4f7df7146aa25c06c07dce9f3a60bcc94c513",
            "txnIndex": 87,
            "type": 0,
            "value": "0"
        },
        "fund_flow": [
            {
                "amount": "50,000",
                "from": "0x8fcd91d08f8b5cc4846a27a937e91f4e67faf16e",
                "id": 1,
                "isERC1155": false,
                "isERC721": false,
                "isReverted": false,
                "order": 1,
                "to": "0xfb49648c252fb2047ea8f3b34cc04489cf35eb88",
                "token": "0x507096e1c7f6b8632de56a12c74c343fca3651e4"
            }
        ],
        "token_infos": [
            {
                "address": "0x507096e1c7f6b8632de56a12c74c343fca3651e4",
                "decimals": 6
            },
            {
                "address": "0xc02aaa39b223fe8d0a0e5c4f27ead9083c756cc2",
                "decimals": 18
            },
            {
                "address": "0xeeeeeeeeeeeeeeeeeeeeeeeeeeeeeeeeeeeeeeee",
                "decimals": 18
            }
        ]
    },
    "address_label": {
        "labels": [
            {
                "address": "0x507096e1c7f6b8632de56a12c74c343fca3651e4",
                "label": "Internet of Everything Coin (IOEC)"
            },
            {
                "address": "0x0000000000000000000000000000000000000001",
                "label": "Precompiled"
            },
            {
                "address": "0x0000000000000000000000000000000000000002",
                "label": "Precompiled"
            },
            {
                "address": "0x0000000000000000000000000000000000000003",
                "label": "Precompiled"
            },
            {
                "address": "0x0000000000000000000000000000000000000004",
                "label": "Precompiled"
            },
            {
                "address": "0xeeeeeeeeeeeeeeeeeeeeeeeeeeeeeeeeeeeeeeee",
                "label": "Ether"
            }
        ]
    },
    "trace": {
        "accountLabels": null,
        "dataMap": {
            "-1": {
                "invocation": {
                    "address": "0x8fcd91d08f8b5cc4846a27a937e91f4e67faf16e",
                    "callData": "",
                    "decodedMethod": null,
                    "errorInfo": "",
                    "fromAddress": "",
                    "gasUsed": 0,
                    "id": -1,
                    "methodDecoded": false,
                    "operation": "",
                    "output": "",
                    "revert": false,
                    "revertMessage": "",
                    "selector": "",
                    "status": false,
                    "value": ""
                },
                "nodeType": 0
            },
            "0": {
                "invocation": {
                    "address": "0x507096e1c7f6b8632de56a12c74c343fca3651e4",
                    "callData": "0x000000000000000000000000fb49648c252fb2047ea8f3b34cc04489cf35eb880000000000000000000000000000000000000000000000000000000ba43b7400",
                    "decodedMethod": {
                        "callParams": [
                            {
                                "name": "_to",
                                "type": "address",
                                "value": "0xfb49648c252fb2047ea8f3b34cc04489cf35eb88"
                            },
                            {
                                "decimalAvailable": true,
                                "name": "_value",
                                "type": "uint256",
                                "value": "50,000,000,000"
                            }
                        ],
                        "constructorArguments": "",
                        "name": "transfer",
                        "returnParams": [
                            {
                                "name": "success",
                                "type": "bool",
                                "value": true
                            }
                        ],
                        "signature": "transfer(address,uint256)"
                    },
                    "errorInfo": "",
                    "fromAddress": "0x8fcd91d08f8b5cc4846a27a937e91f4e67faf16e",
                    "gasUsed": 57247,
                    "id": 0,
                    "methodDecoded": true,
                    "operation": "CALL",
                    "output": "0x0000000000000000000000000000000000000000000000000000000000000001",
                    "revert": false,
                    "revertMessage": "",
                    "selector": "0xa9059cbb",
                    "status": true,
                    "value": "0"
                },
                "nodeType": 0
            },
            "1": {
                "event": {
                    "contract": "0x507096e1c7f6b8632de56a12c74c343fca3651e4",
                    "decodedLog": {
                        "name": "Transfer",
                        "params": [
                            {
                                "name": "from",
                                "type": "address",
                                "value": "0x8fcd91d08f8b5cc4846a27a937e91f4e67faf16e"
                            },
                            {
                                "name": "to",
                                "type": "address",
                                "value": "0xfb49648c252fb2047ea8f3b34cc04489cf35eb88"
                            },
                            {
                                "decimalAvailable": true,
                                "name": "value",
                                "type": "uint256",
                                "value": "50,000,000,000"
                            }
                        ],
                        "signature": "Transfer(address,address,uint256)"
                    },
                    "id": 1,
                    "logData": "0x0000000000000000000000000000000000000000000000000000000ba43b7400",
                    "logDecoded": true,
                    "operation": "EVENT",
                    "revert": false,
                    "status": true,
                    "topics": [
                        "0xddf252ad1be2c89b69c2b068fc378daa952ba7f163c4a11628f55a4df523b3ef",
                        "0x0000000000000000000000008fcd91d08f8b5cc4846a27a937e91f4e67faf16e",
                        "0x000000000000000000000000fb49648c252fb2047ea8f3b34cc04489cf35eb88"
                    ]
                },
                "nodeType": 1
            }
        },
        "gasFlame": [
            {
                "children": [
                    {
                        "children": [
                            {
                                "children": [],
                                "depth": 0,
                                "name": "Initial Gas",
                                "value": 21608
                            },
                            {
                                "children": [],
                                "depth": 0,
                                "name": "Executed Gas",
                                "value": 35639
                            }
                        ],
                        "depth": -1,
                        "name": "Actual Gas Used",
                        "value": 57247
                    },
                    {
                        "children": [],
                        "depth": -1,
                        "name": "Refunded Gas",
                        "value": 0
                    }
                ],
                "depth": -2,
                "name": "Total Gas",
                "value": 57247
            }
        ],
        "isConfirmed": true,
        "mainTrace": [
            {
                "children": [
                    {
                        "children": [
                            {
                                "children": [],
                                "depth": 1,
                                "id": 1,
                                "order": 1
                            }
                        ],
                        "depth": 0,
                        "id": 0,
                        "order": 0
                    }
                ],
                "depth": -1,
                "id": -1,
                "order": -1
            }
        ],
        "mainTraceNodeCount": 2,
        "parentIdMap": {
            "0": -1,
            "1": 0
        },
        "tidyTrace": [
            {
                "children": [
                    {
                        "children": [
                            {
                                "children": [],
                                "depth": 1,
                                "id": 1,
                                "order": 1
                            }
                        ],
                        "depth": 0,
                        "id": 0,
                        "order": 0
                    }
                ],
                "depth": -1,
                "id": -1,
                "order": -1
            }
        ],
        "tidyTraceNodeCount": 2
    },
    "state_change": {
        "stateChanges": [
            {
                "address": "0x507096e1c7f6b8632de56a12c74c343fca3651e4",
                "erc": "ERC-20",
                "slots": [
                    {
                        "current": "0x0000000000000000000000000000000000000000000000000000079822c8ac00",
                        "key": "0x08a3a896a8d3396340a3f0f9feb589d787020129d0e4dc2eb20927f3a6210c06",
                        "prev": "0x000000000000000000000000000000000000000000000000000007a3c7042000"
                    },
                    {
                        "current": "0x0000000000000000000000000000000000000000000000000000000ba43b7400",
                        "key": "0x68551ab9c044cccda2327144b81c3a454323ba337e6420e58f17006f002095ef",
                        "prev": "0x0000000000000000000000000000000000000000000000000000000000000000"
                    }
                ],
                "storageVariables": [
                    {
                        "name": "balanceOf",
                        "type": "mapping(address => uint256)",
                        "value": {
                            "pairs": [
                                {
                                    "key": "0x8fcd91d08f8b5cc4846a27a937e91f4e67faf16e",
                                    "value": {
                                        "current": "8350000000000",
                                        "prev": "8400000000000",
                                        "typeTag": 1
                                    }
                                },
                                {
                                    "key": "0xfb49648c252fb2047ea8f3b34cc04489cf35eb88",
                                    "value": {
                                        "current": "50000000000",
                                        "prev": "0",
                                        "typeTag": 1
                                    }
                                }
                            ],
                            "typeTag": 4
                        }
                    }
                ]
            }
        ]
    }
}