{
    "balance_change": {
        "balanceChanges": [
            {
                "account": "0x010f4f5d2cedf16ed992ad5ed8e68a77cda16759",
                "assets": [
                    {
                        "address": "0x966daed1348fbd894bb6c404d9cddf78a9932913",
                        "amount": "1,780.3",
                        "iconUrl": "",
                        "isERC1155": false,
                        "isERC721": false,
                        "sign": false,
                        "value": ""
                    }
                ]
            },
            {
                "account": "0x1479353b79038174e23f4c820ea4c1a9299afc95",
                "assets": [
                    {
                        "address": "0x966daed1348fbd894bb6c404d9cddf78a9932913",
                        "amount": "1,780.3",
                        "iconUrl": "",
                        "isERC1155": false,
                        "isERC721": false,
                        "sign": true,
                        "value": ""
                    }
                ]
            }
        ]
    },
    "profile": {
        "basic_info": {
            "baseFee": "",
            "blockNumber": 9262812,
            "callData": "0xa9059cbb0000000000000000000000001479353b79038174e23f4c820ea4c1a9299afc9500000000000000000000000000000000000000000000000000000029736a3780",
            "debugEnable": true,
            "errorInfo": "",
            "eventCount": 1,
            "feeRecipient": "0x84a0d77c693adabe0ebc48f88b3ffff010577051",
            "formatValue": "0",
            "gasLimit": 90000,
            "gasPrice": "4.6",
            "gasUsed": 37148,
            "intTxnCount": 0,
            "internalRevert": false,
            "internalRevertMessage": "",
            "isContractCreation": false,
            "isFlashloan": false,
            "maxFee": "",
            "nonce": 110424,
            "overwritedBlockNumber": -1,
            "priorityFee": "",
            "receiver": "0x966daed1348fbd894bb6c404d9cddf78a9932913",
            "revertMessage": "",
            "sender": "0x010f4f5d2cedf16ed992ad5ed8e68a77cda16759",
            "simulationEnable": true,
            "sourceTxnHash": "0xa8cfe52d51cf25e2bbdc2c674b91c59aa5ac1bbda5321ac49a1578e28ec99dab",
            "status": true,
            "timestamp": "2020-01-12T00:15:34Z",
            "transactionFee": "0.0001708808",
            "txnHash": "0xa8cfe52d51cf25e2bbdc2c674b91c59aa5ac1bbda5321ac49a1578e28ec99dab",
            "txnIndex": 82,
            "type": 0,
            "value": "0"
        },
        "fund_flow": [
            {
                "amount": "1,780.3",
                "from": "0x010f4f5d2cedf16ed992ad5ed8e68a77cda16759",
                "id": 1,
                "isERC1155": false,
                "isERC721": false,
                "isReverted": false,
                "order": 1,
                "to": "0x1479353b79038174e23f4c820ea4c1a9299afc95",
                "token": "0x966daed1348fbd894bb6c404d9cddf78a9932913"
            }
        ],
        "token_infos": [
            {
                "address": "0x966daed1348fbd894bb6c404d9cddf78a9932913",
                "decimals": 8
            },
            {
                "address": "0xc02aaa39b223fe8d0a0e5c4f27ead9083c756cc2",
                "decimals": 18
            },
            {
                "address": "0xeeeeeeeeeeeeeeeeeeeeeeeeeeeeeeeeeeeeeeee",
                "decimals": 18
            }
        ]
    },
    "address_label": {
        "labels": [
            {
                "address": "0x0000000000000000000000000000000000000002",
                "label": "Precompiled"
            },
            {
                "address": "0x0000000000000000000000000000000000000003",
                "label": "Precompiled"
            },
            {
                "address": "0x0000000000000000000000000000000000000004",
                "label": "Precompiled"
            },
            {
                "address": "0xeeeeeeeeeeeeeeeeeeeeeeeeeeeeeeeeeeeeeeee",
                "label": "Ether"
            },
            {
                "address": "0x966daed1348fbd894bb6c404d9cddf78a9932913",
                "label": "ProofOfContributionToken (POCT)"
            },
            {
                "address": "0x0000000000000000000000000000000000000001",
                "label": "Precompiled"
            }
        ]
    },
    "trace": {
        "accountLabels": null,
        "dataMap": {
            "-1": {
                "invocation": {
                    "address": "0x010f4f5d2cedf16ed992ad5ed8e68a77cda16759",
                    "callData": "",
                    "decodedMethod": null,
                    "errorInfo": "",
                    "fromAddress": "",
                    "gasUsed": 0,
                    "id": -1,
                    "methodDecoded": false,
                    "operation": "",
                    "output": "",
                    "revert": false,
                    "revertMessage": "",
                    "selector": "",
                    "status": false,
                    "value": ""
                },
                "nodeType": 0
            },
            "0": {
                "invocation": {
                    "address": "0x966daed1348fbd894bb6c404d9cddf78a9932913",
                    "callData": "0x0000000000000000000000001479353b79038174e23f4c820ea4c1a9299afc9500000000000000000000000000000000000000000000000000000029736a3780",
                    "decodedMethod": {
                        "callParams": [
                            {
                                "name": "receiver",
                                "type": "address",
                                "value": "0x1479353b79038174e23f4c820ea4c1a9299afc95"
                            },
                            {
                                "decimalAvailable": true,
                                "name": "numTokens",
                                "type": "uint256",
                                "value": "178,030,000,000"
                            }
                        ],
                        "constructorArguments": "",
                        "name": "transfer",
                        "returnParams": [
                            {
                                "name": "",
                                "type": "bool",
                                "value": true
                            }
                        ],
                        "signature": "transfer(address,uint256)"
                    },
                    "errorInfo": "",
                    "fromAddress": "0x010f4f5d2cedf16ed992ad5ed8e68a77cda16759",
                    "gasUsed": 37148,
                    "id": 0,
                    "methodDecoded": true,
                    "operation": "CALL",
                    "output": "0x0000000000000000000000000000000000000000000000000000000000000001",
                    "revert": false,
                    "revertMessage": "",
                    "selector": "0xa9059cbb",
                    "status": true,
                    "value": "0"
                },
                "nodeType": 0
            },
            "1": {
                "event": {
                    "contract": "0x966daed1348fbd894bb6c404d9cddf78a9932913",
                    "decodedLog": {
                        "name": "Transfer",
                        "params": [
                            {
                                "name": "from",
                                "type": "address",
                                "value": "0x010f4f5d2cedf16ed992ad5ed8e68a77cda16759"
                            },
                            {
                                "name": "to",
                                "type": "address",
                                "value": "0x1479353b79038174e23f4c820ea4c1a9299afc95"
                            },
                            {
                                "decimalAvailable": true,
                                "name": "tokens",
                                "type": "uint256",
                                "value": "178,030,000,000"
                            }
                        ],
                        "signature": "Transfer(address,address,uint256)"
                    },
                    "id": 1,
                    "logData": "0x00000000000000000000000000000000000000000000000000000029736a3780",
                    "logDecoded": true,
                    "operation": "EVENT",
                    "revert": false,
                    "status": true,
                    "topics": [
                        "0xddf252ad1be2c89b69c2b068fc378daa952ba7f163c4a11628f55a4df523b3ef",
                        "0x000000000000000000000000010f4f5d2cedf16ed992ad5ed8e68a77cda16759",
                        "0x0000000000000000000000001479353b79038174e23f4c820ea4c1a9299afc95"
                    ]
                },
                "nodeType": 1
            }
        },
        "gasFlame": [
            {
                "children": [
                    {
                        "children": [
                            {
                                "children": [],
                                "depth": 0,
                                "name": "Initial Gas",
                                "value": 21620
                            },
                            {
                                "children": [],
                                "depth": 0,
                                "name": "Executed Gas",
                                "value": 15528
                            }
                        ],
                        "depth": -1,
                        "name": "Actual Gas Used",
                        "value": 37148
                    },
                    {
                        "children": [],
                        "depth": -1,
                        "name": "Refunded Gas",
                        "value": 0
                    }
                ],
                "depth": -2,
                "name": "Total Gas",
                "value": 37148
            }
        ],
        "isConfirmed": true,
        "mainTrace": [
            {
                "children": [
                    {
                        "children": [
                            {
                                "children": [],
                                "depth": 1,
                                "id": 1,
                                "order": 1
                            }
                        ],
                        "depth": 0,
                        "id": 0,
                        "order": 0
                    }
                ],
                "depth": -1,
                "id": -1,
                "order": -1
            }
        ],
        "mainTraceNodeCount": 2,
        "parentIdMap": {
            "0": -1,
            "1": 0
        },
        "tidyTrace": [
            {
                "children": [
                    {
                        "children": [
                            {
                                "children": [],
                                "depth": 1,
                                "id": 1,
                                "order": 1
                            }
                        ],
                        "depth": 0,
                        "id": 0,
                        "order": 0
                    }
                ],
                "depth": -1,
                "id": -1,
                "order": -1
            }
        ],
        "tidyTraceNodeCount": 2
    },
    "state_change": {
        "stateChanges": [
            {
                "address": "0x966daed1348fbd894bb6c404d9cddf78a9932913",
                "erc": "ERC-20",
                "slots": [
                    {
                        "current": "0x0000000000000000000000000000000000000000000000000007f3002c5f4a05",
                        "key": "0xd8b207185bb94b4f3e61cf031982b15bc04419b79062f7ba8687f0ca0735e704",
                        "prev": "0x0000000000000000000000000000000000000000000000000007f3299fc98185"
                    },
                    {
                        "current": "0x00000000000000000000000000000000000000000000000000000056bf1ee360",
                        "key": "0x7c5a98b6845ec6905838ab1bafff05cf158bfb8f9cda34b3be793edc5eba86fe",
                        "prev": "0x0000000000000000000000000000000000000000000000000000002d4bb4abe0"
                    }
                ],
                "storageVariables": [
                    {
                        "name": "balances",
                        "type": "mapping(address => uint256)",
                        "value": {
                            "pairs": [
                                {
                                    "key": "0x010f4f5d2cedf16ed992ad5ed8e68a77cda16759",
                                    "value": {
                                        "current": "2237506906966533",
                                        "prev": "2237684936966533",
                                        "typeTag": 1
                                    }
                                },
                                {
                                    "key": "0x1479353b79038174e23f4c820ea4c1a9299afc95",
                                    "value": {
                                        "current": "372573660000",
                                        "prev": "194543660000",
                                        "typeTag": 1
                                    }
                                }
                            ],
                            "typeTag": 4
                        }
                    }
                ]
            }
        ]
    }
}