{
    "balance_change": {
        "balanceChanges": [
            {
                "account": "0x8b3b3b624c3c0397d3da8fd861512393d51dcbac",
                "assets": [
                    {
                        "address": "0xbb9bc244d798123fde783fcc1c72d3bb8c189413",
                        "amount": "12,900,000,000,000,000,000",
                        "iconUrl": "",
                        "isERC1155": false,
                        "isERC721": false,
                        "sign": true,
                        "value": ""
                    }
                ]
            },
            {
                "account": "0x9403e68bf85d238684e5261a192a23365b371c22",
                "assets": [
                    {
                        "address": "0xbb9bc244d798123fde783fcc1c72d3bb8c189413",
                        "amount": "12,900,000,000,000,000,000",
                        "iconUrl": "",
                        "isERC1155": false,
                        "isERC721": false,
                        "sign": false,
                        "value": ""
                    }
                ]
            }
        ]
    },
    "profile": {
        "basic_info": {
            "baseFee": "",
            "blockNumber": 1736070,
            "callData": "0x7edae70f0000000000000000000000009403e68bf85d238684e5261a192a23365b371c22",
            "debugEnable": true,
            "errorInfo": "",
            "eventCount": 2,
            "feeRecipient": "0xbcdfc35b86bedf72f0cda046a3c16829a2ef41d1",
            "formatValue": "0",
            "gasLimit": 250000,
            "gasPrice": "20",
            "gasUsed": 36418,
            "intTxnCount": 3,
            "internalRevert": false,
            "internalRevertMessage": "",
            "isContractCreation": false,
            "isFlashloan": false,
            "maxFee": "",
            "nonce": 26893,
            "overwritedBlockNumber": -1,
            "priorityFee": "",
            "receiver": "0x8b3b3b624c3c0397d3da8fd861512393d51dcbac",
            "revertMessage": "",
            "sender": "0xed059bc543141c8c93031d545079b3da0233b27f",
            "simulationEnable": true,
            "sourceTxnHash": "0xa87f620ba99aa94cbf82d3c223c429a729df198e03081eb84a601aae07271f43",
            "status": true,
            "timestamp": "2016-06-20T02:14:15Z",
            "transactionFee": "0.00072836",
            "txnHash": "0xa87f620ba99aa94cbf82d3c223c429a729df198e03081eb84a601aae07271f43",
            "txnIndex": 3,
            "type": 0,
            "value": "0"
        },
        "fund_flow": [
            {
                "amount": "12,900,000,000,000,000,000",
                "from": "0x9403e68bf85d238684e5261a192a23365b371c22",
                "id": 1,
                "isERC1155": false,
                "isERC721": false,
                "isReverted": false,
                "order": 1,
                "to": "0x8b3b3b624c3c0397d3da8fd861512393d51dcbac",
                "token": "0xbb9bc244d798123fde783fcc1c72d3bb8c189413"
            }
        ],
        "token_infos": [
            {
                "address": "0xbb9bc244d798123fde783fcc1c72d3bb8c189413",
                "decimals": 1
            },
            {
                "address": "0xc02aaa39b223fe8d0a0e5c4f27ead9083c756cc2",
                "decimals": 18
            },
            {
                "address": "0xeeeeeeeeeeeeeeeeeeeeeeeeeeeeeeeeeeeeeeee",
                "decimals": 18
            }
        ]
    },
    "address_label": {
        "labels": [
            {
                "address": "0x0000000000000000000000000000000000000003",
                "label": "Precompiled"
            },
            {
                "address": "0x0000000000000000000000000000000000000004",
                "label": "Precompiled"
            },
            {
                "address": "0xeeeeeeeeeeeeeeeeeeeeeeeeeeeeeeeeeeeeeeee",
                "label": "Ether"
            },
            {
                "address": "0xbb9bc244d798123fde783fcc1c72d3bb8c189413",
                "label": "TheDAO Token"
            },
            {
                "address": "0x0000000000000000000000000000000000000001",
                "label": "Precompiled"
            },
            {
                "address": "0x0000000000000000000000000000000000000002",
                "label": "Precompiled"
            }
        ]
    },
    "trace": {
        "accountLabels": null,
        "dataMap": {
            "-1": {
                "invocation": {
                    "address": "0xed059bc543141c8c93031d545079b3da0233b27f",
                    "callData": "",
                    "decodedMethod": null,
                    "errorInfo": "",
                    "fromAddress": "",
                    "gasUsed": 0,
                    "id": -1,
                    "methodDecoded": false,
                    "operation": "",
                    "output": "",
                    "revert": false,
                    "revertMessage": "",
                    "selector": "",
                    "status": false,
                    "value": ""
                },
                "nodeType": 0
            },
            "0": {
                "invocation": {
                    "address": "0x8b3b3b624c3c0397d3da8fd861512393d51dcbac",
                    "callData": "0x0000000000000000000000009403e68bf85d238684e5261a192a23365b371c22",
                    "decodedMethod": null,
                    "errorInfo": "",
                    "fromAddress": "0xed059bc543141c8c93031d545079b3da0233b27f",
                    "gasUsed": 36418,
                    "id": 0,
                    "methodDecoded": false,
                    "operation": "CALL",
                    "output": "0x0000000000000000000000000000000000000000000000000000000000000001",
                    "revert": false,
                    "revertMessage": "",
                    "selector": "0x7edae70f",
                    "status": true,
                    "value": "0"
                },
                "nodeType": 0
            },
            "1": {
                "invocation": {
                    "address": "0x9403e68bf85d238684e5261a192a23365b371c22",
                    "callData": "0x",
                    "decodedMethod": {
                        "callParams": [],
                        "constructorArguments": "",
                        "name": "sweep",
                        "returnParams": [],
                        "signature": "sweep()"
                    },
                    "errorInfo": "",
                    "fromAddress": "0x8b3b3b624c3c0397d3da8fd861512393d51dcbac",
                    "gasUsed": 26465,
                    "id": 1,
                    "methodDecoded": true,
                    "operation": "CALL",
                    "output": "0x0000000000000000000000000000000000000000000000000000000000000001000000000000000000000000000000000000000000000006fe3c108759640000",
                    "revert": false,
                    "revertMessage": "",
                    "selector": "0x35faa416",
                    "status": true,
                    "value": "0"
                },
                "nodeType": 0
            },
            "2": {
                "invocation": {
                    "address": "0xbb9bc244d798123fde783fcc1c72d3bb8c189413",
                    "callData": "0x0000000000000000000000009403e68bf85d238684e5261a192a23365b371c22",
                    "decodedMethod": {
                        "callParams": [
                            {
                                "name": "_owner",
                                "type": "address",
                                "value": "0x9403e68bf85d238684e5261a192a23365b371c22"
                            }
                        ],
                        "constructorArguments": "",
                        "name": "balanceOf",
                        "returnParams": [
                            {
                                "decimalAvailable": true,
                                "name": "balance",
                                "type": "uint256",
                                "value": "129,000,000,000,000,000,000"
                            }
                        ],
                        "signature": "balanceOf(address)"
                    },
                    "errorInfo": "",
                    "fromAddress": "0x9403e68bf85d238684e5261a192a23365b371c22",
                    "gasUsed": 788,
                    "id": 2,
                    "methodDecoded": true,
                    "operation": "CALL",
                    "output": "0x000000000000000000000000000000000000000000000006fe3c108759640000",
                    "revert": false,
                    "revertMessage": "",
                    "selector": "0x70a08231",
                    "status": true,
                    "value": "0"
                },
                "nodeType": 0
            },
            "3": {
                "invocation": {
                    "address": "0xbb9bc244d798123fde783fcc1c72d3bb8c189413",
                    "callData": "0x0000000000000000000000008b3b3b624c3c0397d3da8fd861512393d51dcbac000000000000000000000000000000000000000000000006fe3c108759640000",
                    "decodedMethod": {
                        "callParams": [
                            {
                                "name": "_to",
                                "type": "address",
                                "value": "0x8b3b3b624c3c0397d3da8fd861512393d51dcbac"
                            },
                            {
                                "decimalAvailable": true,
                                "name": "_value",
                                "type": "uint256",
                                "value": "129,000,000,000,000,000,000"
                            }
                        ],
                        "constructorArguments": "",
                        "name": "transfer",
                        "returnParams": [
                            {
                                "name": "success",
                                "type": "bool",
                                "value": true
                            }
                        ],
                        "signature": "transfer(address,uint256)"
                    },
                    "errorInfo": "",
                    "fromAddress": "0x9403e68bf85d238684e5261a192a23365b371c22",
                    "gasUsed": 24522,
                    "id": 3,
                    "methodDecoded": true,
                    "operation": "CALL",
                    "output": "0x0000000000000000000000000000000000000000000000000000000000000001",
                    "revert": false,
                    "revertMessage": "",
                    "selector": "0xa9059cbb",
                    "status": true,
                    "value": "0"
                },
                "nodeType": 0
            },
            "4": {
                "event": {
                    "contract": "0xbb9bc244d798123fde783fcc1c72d3bb8c189413",
                    "decodedLog": {
                        "name": "Transfer",
                        "params": [
                            {
                                "name": "_from",
                                "type": "address",
                                "value": "0x9403e68bf85d238684e5261a192a23365b371c22"
                            },
                            {
                                "name": "_to",
                                "type": "address",
                                "value": "0x8b3b3b624c3c0397d3da8fd861512393d51dcbac"
                            },
                            {
                                "decimalAvailable": true,
                                "name": "_amount",
                                "type": "uint256",
                                "value": "129,000,000,000,000,000,000"
                            }
                        ],
                        "signature": "Transfer(address,address,uint256)"
                    },
                    "id": 4,
                    "logData": "0x000000000000000000000000000000000000000000000006fe3c108759640000",
                    "logDecoded": true,
                    "operation": "EVENT",
                    "revert": false,
                    "status": true,
                    "topics": [
                        "0xddf252ad1be2c89b69c2b068fc378daa952ba7f163c4a11628f55a4df523b3ef",
                        "0x0000000000000000000000009403e68bf85d238684e5261a192a23365b371c22",
                        "0x0000000000000000000000008b3b3b624c3c0397d3da8fd861512393d51dcbac"
                    ]
                },
                "nodeType": 1
            },
            "5": {
                "event": {
                    "contract": "0x8b3b3b624c3c0397d3da8fd861512393d51dcbac",
                    "decodedLog": null,
                    "id": 5,
                    "logData": "0x",
                    "logDecoded": false,
                    "operation": "EVENT",
                    "revert": false,
                    "status": true,
                    "topics": [
                        "0xe3e6ac9b8af8d4194beda053cf95abee2ac870c4fb5f26505181ef1d438512bf",
                        "0x0000000000000000000000009403e68bf85d238684e5261a192a23365b371c22",
                        "0x000000000000000000000000000000000000000000000006fe3c108759640000"
                    ]
                },
                "nodeType": 1
            }
        },
        "gasFlame": [
            {
                "children": [
                    {
                        "children": [
                            {
                                "children": [],
                                "depth": 0,
                                "name": "Initial Gas",
                                "value": 22680
                            },
                            {
                                "children": [
                                    {
                                        "children": [
                                            {
                                                "children": [],
                                                "depth": 2,
                                                "name": "balanceOf",
                                                "value": 788
                                            },
                                            {
                                                "children": [],
                                                "depth": 2,
                                                "name": "transfer",
                                                "value": 24522
                                            }
                                        ],
                                        "depth": 1,
                                        "name": "sweep",
                                        "value": 26465
                                    }
                                ],
                                "depth": 0,
                                "name": "Executed Gas",
                                "value": 28738
                            }
                        ],
                        "depth": -1,
                        "name": "Actual Gas Used",
                        "value": 36418
                    },
                    {
                        "children": [],
                        "depth": -1,
                        "name": "Refunded Gas",
                        "value": 15000
                    }
                ],
                "depth": -2,
                "name": "Total Gas",
                "value": 51418
            }
        ],
        "isConfirmed": true,
        "mainTrace": [
            {
                "children": [
                    {
                        "children": [
                            {
                                "children": [
                                    {
                                        "children": [],
                                        "depth": 2,
                                        "id": 2,
                                        "order": 2
                                    },
                                    {
                                        "children": [
                                            {
                                                "children": [],
                                                "depth": 3,
                                                "id": 4,
                                                "order": 4
                                            }
                                        ],
                                        "depth": 2,
                                        "id": 3,
                                        "order": 3
                                    }
                                ],
                                "depth": 1,
                                "id": 1,
                                "order": 1
                            },
                            {
                                "children": [],
                                "depth": 1,
                                "id": 5,
                                "order": 5
                            }
                        ],
                        "depth": 0,
                        "id": 0,
                        "order": 0
                    }
                ],
                "depth": -1,
                "id": -1,
                "order": -1
            }
        ],
        "mainTraceNodeCount": 6,
        "parentIdMap": {
            "0": -1,
            "1": 0,
            "2": 1,
            "3": 1,
            "4": 3,
            "5": 0
        },
        "tidyTrace": [
            {
                "children": [
                    {
                        "children": [
                            {
                                "children": [
                                    {
                                        "children": [],
                                        "depth": 2,
                                        "id": 2,
                                        "order": 2
                                    },
                                    {
                                        "children": [
                                            {
                                                "children": [],
                                                "depth": 3,
                                                "id": 4,
                                                "order": 4
                                            }
                                        ],
                                        "depth": 2,
                                        "id": 3,
                                        "order": 3
                                    }
                                ],
                                "depth": 1,
                                "id": 1,
                                "order": 1
                            },
                            {
                                "children": [],
                                "depth": 1,
                                "id": 5,
                                "order": 5
                            }
                        ],
                        "depth": 0,
                        "id": 0,
                        "order": 0
                    }
                ],
                "depth": -1,
                "id": -1,
                "order": -1
            }
        ],
        "tidyTraceNodeCount": 6
    },
    "state_change": {
        "stateChanges": [
            {
                "address": "0xbb9bc244d798123fde783fcc1c72d3bb8c189413",
                "erc": "ERC-20",
                "slots": [
                    {
                        "current": "0x0000000000000000000000000000000000000000000000000000000000000000",
                        "key": "0x9eefbd7c31ab4a3fc18f59075118a7441f836d90a917e25627b84200306cff89",
                        "prev": "0x000000000000000000000000000000000000000000000006fe3c108759640000"
                    },
                    {
                        "current": "0x00000000000000000000000000000000000000000000002ef760ae3742c4f678",
                        "key": "0x857ee5bc0e6250243c8d960a995e42ec3b4ea3bbd6518f534f52278231b138a7",
                        "prev": "0x000000000000000000000000000000000000000000000027f9249dafe960f678"
                    }
                ],
                "storageVariables": []
            }
        ]
    }
}