{
    "balance_change": {
        "balanceChanges": [
            {
                "account": "0x60e63a9bd394fce14293140b2d953eb7642ab2aa",
                "assets": [
                    {
                        "address": "0x7d1afa7b718fb893db30a3abc0cfc608aacfebb0",
                        "amount": "106.288935641415044232",
                        "iconUrl": "https://assets.blocksec.com/icon/5dc5187d80083e1e6ca5ca29581f660fdc3ebdf47eef117c3dfa3a0c07ab7d33.png",
                        "isERC1155": false,
                        "isERC721": false,
                        "sign": false,
                        "value": "241.1603966"
                    }
                ]
            },
            {
                "account": "0x401f6c983ea34274ec46f84d70b31c151321188b",
                "assets": [
                    {
                        "address": "0x7d1afa7b718fb893db30a3abc0cfc608aacfebb0",
                        "amount": "106.288935641415044232",
                        "iconUrl": "https://assets.blocksec.com/icon/5dc5187d80083e1e6ca5ca29581f660fdc3ebdf47eef117c3dfa3a0c07ab7d33.png",
                        "isERC1155": false,
                        "isERC721": false,
                        "sign": true,
                        "value": "241.1603966"
                    }
                ]
            }
        ]
    },
    "profile": {
        "basic_info": {
            "baseFee": "",
            "blockNumber": 12510286,
            "callData": "0x8b9e4f930000000000000000000000007d1afa7b718fb893db30a3abc0cfc608aacfebb000000000000000000000000060e63a9bd394fce14293140b2d953eb7642ab2aa000000000000000000000000000000000000000000000005c30e27d2ace64c88",
            "debugEnable": true,
            "errorInfo": "",
            "eventCount": 4,
            "feeRecipient": "0x5a0b54d5dc17e0aadc383d2db43b0a0d3e029c4c",
            "formatValue": "0",
            "gasLimit": 161476,
            "gasPrice": "30",
            "gasUsed": 139127,
            "intTxnCount": 7,
            "internalRevert": false,
            "internalRevertMessage": "",
            "isContractCreation": false,
            "isFlashloan": false,
            "maxFee": "",
            "nonce": 5,
            "overwritedBlockNumber": -1,
            "priorityFee": "",
            "receiver": "0x401f6c983ea34274ec46f84d70b31c151321188b",
            "revertMessage": "",
            "sender": "0x60e63a9bd394fce14293140b2d953eb7642ab2aa",
            "simulationEnable": true,
            "sourceTxnHash": "0xa82626c4fd58a4a583e99be105a6adb1ea9b209a00e4f404217387b68028482c",
            "status": true,
            "timestamp": "2021-05-26T13:43:54Z",
            "transactionFee": "0.00417381",
            "txnHash": "0xa82626c4fd58a4a583e99be105a6adb1ea9b209a00e4f404217387b68028482c",
            "txnIndex": 162,
            "type": 0,
            "value": "0"
        },
        "fund_flow": [
            {
                "amount": "106.288935641415044232",
                "from": "0x60e63a9bd394fce14293140b2d953eb7642ab2aa",
                "id": 1,
                "isERC1155": false,
                "isERC721": false,
                "isReverted": false,
                "order": 1,
                "to": "0x401f6c983ea34274ec46f84d70b31c151321188b",
                "token": "0x7d1afa7b718fb893db30a3abc0cfc608aacfebb0"
            }
        ],
        "token_infos": [
            {
                "address": "0x7d1afa7b718fb893db30a3abc0cfc608aacfebb0",
                "decimals": 18
            },
            {
                "address": "0xc02aaa39b223fe8d0a0e5c4f27ead9083c756cc2",
                "decimals": 18
            },
            {
                "address": "0xeeeeeeeeeeeeeeeeeeeeeeeeeeeeeeeeeeeeeeee",
                "decimals": 18
            }
        ]
    },
    "address_label": {
        "labels": [
            {
                "address": "0x7d1afa7b718fb893db30a3abc0cfc608aacfebb0",
                "label": "Polygon (Matic): Old Matic Token"
            },
            {
                "address": "0x0000000000000000000000000000000000000002",
                "label": "Precompiled"
            },
            {
                "address": "0x0000000000000000000000000000000000000003",
                "label": "Precompiled"
            },
            {
                "address": "0x0000000000000000000000000000000000000004",
                "label": "Precompiled"
            },
            {
                "address": "0x536c55cfe4892e581806e10b38dfe8083551bd03",
                "label": "Polygon (Matic): Root Chain"
            },
            {
                "address": "0x28e4f3a7f651294b9564800b2d01f35189a5bfbe",
                "label": "Polygon (Matic): State Syncer"
            },
            {
                "address": "0x401f6c983ea34274ec46f84d70b31c151321188b",
                "label": "Polygon (Matic): Plasma Bridge"
            },
            {
                "address": "0x33a02e6cc863d393d6bf231b697b82f6e499ca71",
                "label": "Polygon (Matic): Registry"
            },
            {
                "address": "0xeeeeeeeeeeeeeeeeeeeeeeeeeeeeeeeeeeeeeeee",
                "label": "Ether"
            },
            {
                "address": "0x86e4dc95c7fbdbf52e33d563bbdb00823894c287",
                "label": "Polygon (Matic): Root Chain Proxy"
            },
            {
                "address": "0xd505c3822c787d51d5c2b1ae9adb943b2304eb23",
                "label": "Polygon (Matic): Deposit Manager"
            },
            {
                "address": "0x0000000000000000000000000000000000000001",
                "label": "Precompiled"
            }
        ]
    },
    "trace": {
        "accountLabels": null,
        "dataMap": {
            "-1": {
                "invocation": {
                    "address": "0x60e63a9bd394fce14293140b2d953eb7642ab2aa",
                    "callData": "",
                    "decodedMethod": null,
                    "errorInfo": "",
                    "fromAddress": "",
                    "gasUsed": 0,
                    "id": -1,
                    "methodDecoded": false,
                    "operation": "",
                    "output": "",
                    "revert": false,
                    "revertMessage": "",
                    "selector": "",
                    "status": false,
                    "value": ""
                },
                "nodeType": 0
            },
            "0": {
                "invocation": {
                    "address": "0x401f6c983ea34274ec46f84d70b31c151321188b",
                    "callData": "0x0000000000000000000000007d1afa7b718fb893db30a3abc0cfc608aacfebb000000000000000000000000060e63a9bd394fce14293140b2d953eb7642ab2aa000000000000000000000000000000000000000000000005c30e27d2ace64c88",
                    "decodedMethod": {
                        "callParams": [
                            {
                                "name": "_token",
                                "type": "address",
                                "value": "0x7d1afa7b718fb893db30a3abc0cfc608aacfebb0"
                            },
                            {
                                "name": "_user",
                                "type": "address",
                                "value": "0x60e63a9bd394fce14293140b2d953eb7642ab2aa"
                            },
                            {
                                "name": "_amount",
                                "type": "uint256",
                                "value": "106,288,935,641,415,044,232"
                            }
                        ],
                        "constructorArguments": "",
                        "name": "depositERC20ForUser",
                        "returnParams": [],
                        "signature": "depositERC20ForUser(address,address,uint256)"
                    },
                    "errorInfo": "",
                    "fromAddress": "0x60e63a9bd394fce14293140b2d953eb7642ab2aa",
                    "gasUsed": 139127,
                    "id": 0,
                    "methodDecoded": true,
                    "operation": "CALL",
                    "output": "",
                    "revert": false,
                    "revertMessage": "",
                    "selector": "0x8b9e4f93",
                    "status": true,
                    "value": "0"
                },
                "nodeType": 0
            },
            "1": {
                "invocation": {
                    "address": "0xd505c3822c787d51d5c2b1ae9adb943b2304eb23",
                    "callData": "0x0000000000000000000000007d1afa7b718fb893db30a3abc0cfc608aacfebb000000000000000000000000060e63a9bd394fce14293140b2d953eb7642ab2aa000000000000000000000000000000000000000000000005c30e27d2ace64c88",
                    "decodedMethod": {
                        "callParams": [
                            {
                                "name": "_token",
                                "type": "address",
                                "value": "0x7d1afa7b718fb893db30a3abc0cfc608aacfebb0"
                            },
                            {
                                "name": "_user",
                                "type": "address",
                                "value": "0x60e63a9bd394fce14293140b2d953eb7642ab2aa"
                            },
                            {
                                "name": "_amount",
                                "type": "uint256",
                                "value": "106,288,935,641,415,044,232"
                            }
                        ],
                        "constructorArguments": "",
                        "name": "depositERC20ForUser",
                        "returnParams": [],
                        "signature": "depositERC20ForUser(address,address,uint256)"
                    },
                    "errorInfo": "",
                    "fromAddress": "0x401f6c983ea34274ec46f84d70b31c151321188b",
                    "gasUsed": 126900,
                    "id": 1,
                    "methodDecoded": true,
                    "operation": "DELEGATECALL",
                    "output": "",
                    "revert": false,
                    "revertMessage": "",
                    "selector": "0x8b9e4f93",
                    "status": true,
                    "value": "0"
                },
                "nodeType": 0
            },
            "10": {
                "event": {
                    "contract": "0x28e4f3a7f651294b9564800b2d01f35189a5bfbe",
                    "decodedLog": {
                        "name": "StateSynced",
                        "params": [
                            {
                                "name": "id",
                                "type": "uint256",
                                "value": "246,804"
                            },
                            {
                                "name": "contractAddress",
                                "type": "address",
                                "value": "0xd9c7c4ed4b66858301d0cb28cc88bf655fe34861"
                            },
                            {
                                "name": "data",
                                "type": "bytes",
                                "value": "0x00000000000000000000000060e63a9bd394fce14293140b2d953eb7642ab2aa0000000000000000000000007d1afa7b718fb893db30a3abc0cfc608aacfebb0000000000000000000000000000000000000000000000005c30e27d2ace64c8800000000000000000000000000000000000000000000000000000000079f728d"
                            }
                        ],
                        "signature": "StateSynced(uint256,address,bytes)"
                    },
                    "id": 10,
                    "logData": "0x0000000000000000000000000000000000000000000000000000000000000020000000000000000000000000000000000000000000000000000000000000008000000000000000000000000060e63a9bd394fce14293140b2d953eb7642ab2aa0000000000000000000000007d1afa7b718fb893db30a3abc0cfc608aacfebb0000000000000000000000000000000000000000000000005c30e27d2ace64c8800000000000000000000000000000000000000000000000000000000079f728d",
                    "logDecoded": true,
                    "operation": "EVENT",
                    "revert": false,
                    "status": true,
                    "topics": [
                        "0x103fed9db65eac19c4d870f49ab7520fe03b99f1838e5996caf47e9e43308392",
                        "0x000000000000000000000000000000000000000000000000000000000003c414",
                        "0x000000000000000000000000d9c7c4ed4b66858301d0cb28cc88bf655fe34861"
                    ]
                },
                "nodeType": 1
            },
            "11": {
                "event": {
                    "contract": "0x401f6c983ea34274ec46f84d70b31c151321188b",
                    "decodedLog": {
                        "name": "NewDepositBlock",
                        "params": [
                            {
                                "name": "owner",
                                "type": "address",
                                "value": "0x60e63a9bd394fce14293140b2d953eb7642ab2aa"
                            },
                            {
                                "name": "token",
                                "type": "address",
                                "value": "0x7d1afa7b718fb893db30a3abc0cfc608aacfebb0"
                            },
                            {
                                "name": "amountOrNFTId",
                                "type": "uint256",
                                "value": "106,288,935,641,415,044,232"
                            },
                            {
                                "name": "depositBlockId",
                                "type": "uint256",
                                "value": "127,890,061"
                            }
                        ],
                        "signature": "NewDepositBlock(address,address,uint256,uint256)"
                    },
                    "id": 11,
                    "logData": "0x000000000000000000000000000000000000000000000005c30e27d2ace64c8800000000000000000000000000000000000000000000000000000000079f728d",
                    "logDecoded": true,
                    "operation": "EVENT",
                    "revert": false,
                    "status": true,
                    "topics": [
                        "0x1dadc8d0683c6f9824e885935c1bec6f76816730dcec148dda8cf25a7b9f797b",
                        "0x00000000000000000000000060e63a9bd394fce14293140b2d953eb7642ab2aa",
                        "0x0000000000000000000000007d1afa7b718fb893db30a3abc0cfc608aacfebb0"
                    ]
                },
                "nodeType": 1
            },
            "2": {
                "invocation": {
                    "address": "0x7d1afa7b718fb893db30a3abc0cfc608aacfebb0",
                    "callData": "0x00000000000000000000000060e63a9bd394fce14293140b2d953eb7642ab2aa000000000000000000000000401f6c983ea34274ec46f84d70b31c151321188b000000000000000000000000000000000000000000000005c30e27d2ace64c88",
                    "decodedMethod": {
                        "callParams": [
                            {
                                "name": "from",
                                "type": "address",
                                "value": "0x60e63a9bd394fce14293140b2d953eb7642ab2aa"
                            },
                            {
                                "name": "to",
                                "type": "address",
                                "value": "0x401f6c983ea34274ec46f84d70b31c151321188b"
                            },
                            {
                                "decimalAvailable": true,
                                "name": "value",
                                "type": "uint256",
                                "value": "106,288,935,641,415,044,232"
                            }
                        ],
                        "constructorArguments": "",
                        "name": "transferFrom",
                        "returnParams": [
                            {
                                "name": "",
                                "type": "bool",
                                "value": true
                            }
                        ],
                        "signature": "transferFrom(address,address,uint256)"
                    },
                    "errorInfo": "",
                    "fromAddress": "0x401f6c983ea34274ec46f84d70b31c151321188b",
                    "gasUsed": 22961,
                    "id": 2,
                    "methodDecoded": true,
                    "operation": "CALL",
                    "output": "0x0000000000000000000000000000000000000000000000000000000000000001",
                    "revert": false,
                    "revertMessage": "",
                    "selector": "0x23b872dd",
                    "status": true,
                    "value": "0"
                },
                "nodeType": 0
            },
            "3": {
                "event": {
                    "contract": "0x7d1afa7b718fb893db30a3abc0cfc608aacfebb0",
                    "decodedLog": {
                        "name": "Transfer",
                        "params": [
                            {
                                "name": "from",
                                "type": "address",
                                "value": "0x60e63a9bd394fce14293140b2d953eb7642ab2aa"
                            },
                            {
                                "name": "to",
                                "type": "address",
                                "value": "0x401f6c983ea34274ec46f84d70b31c151321188b"
                            },
                            {
                                "decimalAvailable": true,
                                "name": "value",
                                "type": "uint256",
                                "value": "106,288,935,641,415,044,232"
                            }
                        ],
                        "signature": "Transfer(address,address,uint256)"
                    },
                    "id": 3,
                    "logData": "0x000000000000000000000000000000000000000000000005c30e27d2ace64c88",
                    "logDecoded": true,
                    "operation": "EVENT",
                    "revert": false,
                    "status": true,
                    "topics": [
                        "0xddf252ad1be2c89b69c2b068fc378daa952ba7f163c4a11628f55a4df523b3ef",
                        "0x00000000000000000000000060e63a9bd394fce14293140b2d953eb7642ab2aa",
                        "0x000000000000000000000000401f6c983ea34274ec46f84d70b31c151321188b"
                    ]
                },
                "nodeType": 1
            },
            "4": {
                "event": {
                    "contract": "0x7d1afa7b718fb893db30a3abc0cfc608aacfebb0",
                    "decodedLog": {
                        "name": "Approval",
                        "params": [
                            {
                                "name": "owner",
                                "type": "address",
                                "value": "0x60e63a9bd394fce14293140b2d953eb7642ab2aa"
                            },
                            {
                                "name": "spender",
                                "type": "address",
                                "value": "0x401f6c983ea34274ec46f84d70b31c151321188b"
                            },
                            {
                                "decimalAvailable": true,
                                "name": "value",
                                "type": "uint256",
                                "value": "115,792,089,237,316,195,423,570,985,008,687,907,853,269,984,665,640,564,039,351,295,072,271,714,595,703"
                            }
                        ],
                        "signature": "Approval(address,address,uint256)"
                    },
                    "id": 4,
                    "logData": "0xfffffffffffffffffffffffffffffffffffffffffffffffa3cf1d82d5319b377",
                    "logDecoded": true,
                    "operation": "EVENT",
                    "revert": false,
                    "status": true,
                    "topics": [
                        "0x8c5be1e5ebec7d5bd14f71427d1e84f3dd0314c0f7b2291e5b200ac8c7c3b925",
                        "0x00000000000000000000000060e63a9bd394fce14293140b2d953eb7642ab2aa",
                        "0x000000000000000000000000401f6c983ea34274ec46f84d70b31c151321188b"
                    ]
                },
                "nodeType": 1
            },
            "5": {
                "invocation": {
                    "address": "0x33a02e6cc863d393d6bf231b697b82f6e499ca71",
                    "callData": "0x0000000000000000000000007d1afa7b718fb893db30a3abc0cfc608aacfebb0",
                    "decodedMethod": {
                        "callParams": [
                            {
                                "name": "_token",
                                "type": "address",
                                "value": "0x7d1afa7b718fb893db30a3abc0cfc608aacfebb0"
                            }
                        ],
                        "constructorArguments": "",
                        "name": "isTokenMapped",
                        "returnParams": [
                            {
                                "name": "",
                                "type": "bool",
                                "value": true
                            }
                        ],
                        "signature": "isTokenMapped(address)"
                    },
                    "errorInfo": "",
                    "fromAddress": "0x401f6c983ea34274ec46f84d70b31c151321188b",
                    "gasUsed": 2552,
                    "id": 5,
                    "methodDecoded": true,
                    "operation": "STATICCALL",
                    "output": "0x0000000000000000000000000000000000000000000000000000000000000001",
                    "revert": false,
                    "revertMessage": "",
                    "selector": "0x6416c183",
                    "status": true,
                    "value": "0"
                },
                "nodeType": 0
            },
            "6": {
                "invocation": {
                    "address": "0x86e4dc95c7fbdbf52e33d563bbdb00823894c287",
                    "callData": "0x0000000000000000000000000000000000000000000000000000000000000001",
                    "decodedMethod": {
                        "callParams": [
                            {
                                "name": "numDeposits",
                                "type": "uint256",
                                "value": "1"
                            }
                        ],
                        "constructorArguments": "",
                        "name": "updateDepositId",
                        "returnParams": [
                            {
                                "name": "depositId",
                                "type": "uint256",
                                "value": "127,890,061"
                            }
                        ],
                        "signature": "updateDepositId(uint256)"
                    },
                    "errorInfo": "",
                    "fromAddress": "0x401f6c983ea34274ec46f84d70b31c151321188b",
                    "gasUsed": 18157,
                    "id": 6,
                    "methodDecoded": true,
                    "operation": "CALL",
                    "output": "0x00000000000000000000000000000000000000000000000000000000079f728d",
                    "revert": false,
                    "revertMessage": "",
                    "selector": "0x5391f483",
                    "status": true,
                    "value": "0"
                },
                "nodeType": 0
            },
            "7": {
                "invocation": {
                    "address": "0x536c55cfe4892e581806e10b38dfe8083551bd03",
                    "callData": "0x0000000000000000000000000000000000000000000000000000000000000001",
                    "decodedMethod": {
                        "callParams": [
                            {
                                "name": "numDeposits",
                                "type": "uint256",
                                "value": "1"
                            }
                        ],
                        "constructorArguments": "",
                        "name": "updateDepositId",
                        "returnParams": [
                            {
                                "name": "depositId",
                                "type": "uint256",
                                "value": "127,890,061"
                            }
                        ],
                        "signature": "updateDepositId(uint256)"
                    },
                    "errorInfo": "",
                    "fromAddress": "0x86e4dc95c7fbdbf52e33d563bbdb00823894c287",
                    "gasUsed": 12964,
                    "id": 7,
                    "methodDecoded": true,
                    "operation": "DELEGATECALL",
                    "output": "0x00000000000000000000000000000000000000000000000000000000079f728d",
                    "revert": false,
                    "revertMessage": "",
                    "selector": "0x5391f483",
                    "status": true,
                    "value": "0"
                },
                "nodeType": 0
            },
            "8": {
                "invocation": {
                    "address": "0x33a02e6cc863d393d6bf231b697b82f6e499ca71",
                    "callData": "0x",
                    "decodedMethod": {
                        "callParams": [],
                        "constructorArguments": "",
                        "name": "getDepositManagerAddress",
                        "returnParams": [
                            {
                                "name": "",
                                "type": "address",
                                "value": "0x401f6c983ea34274ec46f84d70b31c151321188b"
                            }
                        ],
                        "signature": "getDepositManagerAddress()"
                    },
                    "errorInfo": "",
                    "fromAddress": "0x86e4dc95c7fbdbf52e33d563bbdb00823894c287",
                    "gasUsed": 2552,
                    "id": 8,
                    "methodDecoded": true,
                    "operation": "STATICCALL",
                    "output": "0x000000000000000000000000401f6c983ea34274ec46f84d70b31c151321188b",
                    "revert": false,
                    "revertMessage": "",
                    "selector": "0x0c9effd0",
                    "status": true,
                    "value": "0"
                },
                "nodeType": 0
            },
            "9": {
                "invocation": {
                    "address": "0x28e4f3a7f651294b9564800b2d01f35189a5bfbe",
                    "callData": "0x000000000000000000000000d9c7c4ed4b66858301d0cb28cc88bf655fe348610000000000000000000000000000000000000000000000000000000000000040000000000000000000000000000000000000000000000000000000000000008000000000000000000000000060e63a9bd394fce14293140b2d953eb7642ab2aa0000000000000000000000007d1afa7b718fb893db30a3abc0cfc608aacfebb0000000000000000000000000000000000000000000000005c30e27d2ace64c8800000000000000000000000000000000000000000000000000000000079f728d",
                    "decodedMethod": {
                        "callParams": [
                            {
                                "name": "receiver",
                                "type": "address",
                                "value": "0xd9c7c4ed4b66858301d0cb28cc88bf655fe34861"
                            },
                            {
                                "name": "data",
                                "type": "bytes",
                                "value": "0x00000000000000000000000060e63a9bd394fce14293140b2d953eb7642ab2aa0000000000000000000000007d1afa7b718fb893db30a3abc0cfc608aacfebb0000000000000000000000000000000000000000000000005c30e27d2ace64c8800000000000000000000000000000000000000000000000000000000079f728d"
                            }
                        ],
                        "constructorArguments": "",
                        "name": "syncState",
                        "returnParams": [],
                        "signature": "syncState(address,bytes)"
                    },
                    "errorInfo": "",
                    "fromAddress": "0x401f6c983ea34274ec46f84d70b31c151321188b",
                    "gasUsed": 11078,
                    "id": 9,
                    "methodDecoded": true,
                    "operation": "CALL",
                    "output": "",
                    "revert": false,
                    "revertMessage": "",
                    "selector": "0x16f19831",
                    "status": true,
                    "value": "0"
                },
                "nodeType": 0
            }
        },
        "gasFlame": [
            {
                "children": [
                    {
                        "children": [
                            {
                                "children": [],
                                "depth": 0,
                                "name": "Initial Gas",
                                "value": 22036
                            },
                            {
                                "children": [
                                    {
                                        "children": [
                                            {
                                                "children": [],
                                                "depth": 2,
                                                "name": "transferFrom",
                                                "value": 22961
                                            },
                                            {
                                                "children": [],
                                                "depth": 2,
                                                "name": "isTokenMapped",
                                                "value": 2552
                                            },
                                            {
                                                "children": [
                                                    {
                                                        "children": [
                                                            {
                                                                "children": [],
                                                                "depth": 4,
                                                                "name": "getDepositManagerAddress",
                                                                "value": 2552
                                                            }
                                                        ],
                                                        "depth": 3,
                                                        "name": "updateDepositId",
                                                        "value": 12964
                                                    }
                                                ],
                                                "depth": 2,
                                                "name": "updateDepositId",
                                                "value": 18157
                                            },
                                            {
                                                "children": [],
                                                "depth": 2,
                                                "name": "syncState",
                                                "value": 11078
                                            }
                                        ],
                                        "depth": 1,
                                        "name": "depositERC20ForUser",
                                        "value": 126900
                                    }
                                ],
                                "depth": 0,
                                "name": "Executed Gas",
                                "value": 132091
                            }
                        ],
                        "depth": -1,
                        "name": "Actual Gas Used",
                        "value": 139127
                    },
                    {
                        "children": [],
                        "depth": -1,
                        "name": "Refunded Gas",
                        "value": 15000
                    }
                ],
                "depth": -2,
                "name": "Total Gas",
                "value": 154127
            }
        ],
        "isConfirmed": true,
        "mainTrace": [
            {
                "children": [
                    {
                        "children": [
                            {
                                "children": [
                                    {
                                        "children": [
                                            {
                                                "children": [],
                                                "depth": 3,
                                                "id": 3,
                                                "order": 3
                                            },
                                            {
                                                "children": [],
                                                "depth": 3,
                                                "id": 4,
                                                "order": 4
                                            }
                                        ],
                                        "depth": 2,
                                        "id": 2,
                                        "order": 2
                                    },
                                    {
                                        "children": [],
                                        "depth": 2,
                                        "id": 5,
                                        "order": 5
                                    },
                                    {
                                        "children": [
                                            {
                                                "children": [
                                                    {
                                                        "children": [],
                                                        "depth": 4,
                                                        "id": 8,
                                                        "order": 8
                                                    }
                                                ],
                                                "depth": 3,
                                                "id": 7,
                                                "order": 7
                                            }
                                        ],
                                        "depth": 2,
                                        "id": 6,
                                        "order": 6
                                    },
                                    {
                                        "children": [
                                            {
                                                "children": [],
                                                "depth": 3,
                                                "id": 10,
                                                "order": 10
                                            }
                                        ],
                                        "depth": 2,
                                        "id": 9,
                                        "order": 9
                                    },
                                    {
                                        "children": [],
                                        "depth": 2,
                                        "id": 11,
                                        "order": 11
                                    }
                                ],
                                "depth": 1,
                                "id": 1,
                                "order": 1
                            }
                        ],
                        "depth": 0,
                        "id": 0,
                        "order": 0
                    }
                ],
                "depth": -1,
                "id": -1,
                "order": -1
            }
        ],
        "mainTraceNodeCount": 12,
        "parentIdMap": {
            "0": -1,
            "1": 0,
            "10": 9,
            "11": 1,
            "2": 1,
            "3": 2,
            "4": 2,
            "5": 1,
            "6": 1,
            "7": 6,
            "8": 7,
            "9": 1
        },
        "tidyTrace": [
            {
                "children": [
                    {
                        "children": [
                            {
                                "children": [
                                    {
                                        "children": [
                                            {
                                                "children": [],
                                                "depth": 3,
                                                "id": 3,
                                                "order": 3
                                            },
                                            {
                                                "children": [],
                                                "depth": 3,
                                                "id": 4,
                                                "order": 4
                                            }
                                        ],
                                        "depth": 2,
                                        "id": 2,
                                        "order": 2
                                    },
                                    {
                                        "children": [
                                            {
                                                "children": [],
                                                "depth": 3,
                                                "id": 7,
                                                "order": 7
                                            }
                                        ],
                                        "depth": 2,
                                        "id": 6,
                                        "order": 6
                                    },
                                    {
                                        "children": [
                                            {
                                                "children": [],
                                                "depth": 3,
                                                "id": 10,
                                                "order": 10
                                            }
                                        ],
                                        "depth": 2,
                                        "id": 9,
                                        "order": 9
                                    },
                                    {
                                        "children": [],
                                        "depth": 2,
                                        "id": 11,
                                        "order": 11
                                    }
                                ],
                                "depth": 1,
                                "id": 1,
                                "order": 1
                            }
                        ],
                        "depth": 0,
                        "id": 0,
                        "order": 0
                    }
                ],
                "depth": -1,
                "id": -1,
                "order": -1
            }
        ],
        "tidyTraceNodeCount": 10
    },
    "state_change": {
        "stateChanges": [
            {
                "address": "0x28e4f3a7f651294b9564800b2d01f35189a5bfbe",
                "erc": "",
                "slots": [
                    {
                        "current": "0x000000000000000000000000000000000000000000000000000000000003c414",
                        "key": "0x0000000000000000000000000000000000000000000000000000000000000001",
                        "prev": "0x000000000000000000000000000000000000000000000000000000000003c413"
                    }
                ],
                "storageVariables": [
                    {
                        "name": "counter",
                        "type": "uint256",
                        "value": {
                            "current": "246804",
                            "prev": "246803",
                            "typeTag": 1
                        }
                    }
                ]
            },
            {
                "address": "0x401f6c983ea34274ec46f84d70b31c151321188b",
                "erc": "",
                "slots": [
                    {
                        "current": "0x0000000000000000000000000000000000000000000000000000000060ae509a",
                        "key": "0xbdaec99b52c9af0d54587c9f35ace5d52ede21f20c02d0e4956af9167a9c5fba",
                        "prev": "0x0000000000000000000000000000000000000000000000000000000000000000"
                    },
                    {
                        "current": "0xddbfa6af4be07a3579580e2e19098c2bdec9f48ec42f06116592ed2e7b4bb9da",
                        "key": "0xbdaec99b52c9af0d54587c9f35ace5d52ede21f20c02d0e4956af9167a9c5fb9",
                        "prev": "0x0000000000000000000000000000000000000000000000000000000000000000"
                    }
                ],
                "storageVariables": [
                    {
                        "name": "deposits",
                        "type": "mapping(uint256 => struct DepositManagerHeader.DepositBlock)",
                        "value": {
                            "pairs": [
                                {
                                    "key": "127890061",
                                    "value": {
                                        "fields": [
                                            {
                                                "name": "depositHash",
                                                "type": "bytes32",
                                                "value": {
                                                    "current": "0xddbfa6af4be07a3579580e2e19098c2bdec9f48ec42f06116592ed2e7b4bb9da",
                                                    "prev": "0x0000000000000000000000000000000000000000000000000000000000000000",
                                                    "typeTag": 1
                                                }
                                            },
                                            {
                                                "name": "createdAt",
                                                "type": "uint256",
                                                "value": {
                                                    "current": "1622036634",
                                                    "prev": "0",
                                                    "typeTag": 1
                                                }
                                            }
                                        ],
                                        "typeTag": 3
                                    }
                                }
                            ],
                            "typeTag": 4
                        }
                    }
                ]
            },
            {
                "address": "0x7d1afa7b718fb893db30a3abc0cfc608aacfebb0",
                "erc": "ERC-20",
                "slots": [
                    {
                        "current": "0x000000000000000000000000000000000000000001f9a73816b9c268ca4417ac",
                        "key": "0x551a36db37da89f8a639da26e3ec0f098e30cce2489004b873ce90dc0cffcc80",
                        "prev": "0x000000000000000000000000000000000000000001f9a73253ab9a961d5dcb24"
                    },
                    {
                        "current": "0xfffffffffffffffffffffffffffffffffffffffffffffffa3cf1d82d5319b377",
                        "key": "0x2d2227b456df43b12cf043b250a17e7d892d6bc882e702e4f162baf73e5f48f2",
                        "prev": "0xffffffffffffffffffffffffffffffffffffffffffffffffffffffffffffffff"
                    },
                    {
                        "current": "0x0000000000000000000000000000000000000000000000000000000000000000",
                        "key": "0xfa57a1f40b0bd83466e0f65e7246a9ffb114ac2d33ab0dbc120c036115c47b69",
                        "prev": "0x000000000000000000000000000000000000000000000005c30e27d2ace64c88"
                    }
                ],
                "storageVariables": [
                    {
                        "name": "_balances",
                        "type": "mapping(address => uint256)",
                        "value": {
                            "pairs": [
                                {
                                    "key": "0x401f6c983ea34274ec46f84d70b31c151321188b",
                                    "value": {
                                        "current": "611297208763248786563930028",
                                        "prev": "611297102474313145148885796",
                                        "typeTag": 1
                                    }
                                },
                                {
                                    "key": "0x60e63a9bd394fce14293140b2d953eb7642ab2aa",
                                    "value": {
                                        "current": "0",
                                        "prev": "106288935641415044232",
                                        "typeTag": 1
                                    }
                                }
                            ],
                            "typeTag": 4
                        }
                    },
                    {
                        "name": "_allowed",
                        "type": "mapping(address => mapping(address => uint256))",
                        "value": {
                            "pairs": [
                                {
                                    "key": "0x60e63a9bd394fce14293140b2d953eb7642ab2aa",
                                    "value": {
                                        "pairs": [
                                            {
                                                "key": "0x401f6c983ea34274ec46f84d70b31c151321188b",
                                                "value": {
                                                    "current": "115792089237316195423570985008687907853269984665640564039351295072271714595703",
                                                    "prev": "115792089237316195423570985008687907853269984665640564039457584007913129639935",
                                                    "typeTag": 1
                                                }
                                            }
                                        ],
                                        "typeTag": 4
                                    }
                                }
                            ],
                            "typeTag": 4
                        }
                    }
                ]
            },
            {
                "address": "0x86e4dc95c7fbdbf52e33d563bbdb00823894c287",
                "erc": "",
                "slots": [
                    {
                        "current": "0x000000000000000000000000000000000000000000000000000000000000003e",
                        "key": "0x0000000000000000000000000000000000000000000000000000000000000004",
                        "prev": "0x000000000000000000000000000000000000000000000000000000000000003d"
                    }
                ],
                "storageVariables": [
                    {
                        "name": "_blockDepositId",
                        "type": "uint256",
                        "value": {
                            "current": "62",
                            "prev": "61",
                            "typeTag": 1
                        }
                    }
                ]
            }
        ]
    }
}