{
    "balance_change": {
        "balanceChanges": [
            {
                "account": "0xc85e9b04c666287bbfce917f83dafebea4dd0769",
                "assets": [
                    {
                        "address": "0x00156e5524f3a53a55a3cc6e95e57397d39daa49",
                        "amount": "8.727431653155",
                        "iconUrl": "",
                        "isERC1155": false,
                        "isERC721": false,
                        "sign": false,
                        "value": "62.22148756"
                    }
                ]
            },
            {
                "account": "0x183b948af7371a62e64956886802b8b58a3f30e0",
                "assets": [
                    {
                        "address": "0x00156e5524f3a53a55a3cc6e95e57397d39daa49",
                        "amount": "8.727431653155",
                        "iconUrl": "",
                        "isERC1155": false,
                        "isERC721": false,
                        "sign": true,
                        "value": "62.22148756"
                    }
                ]
            }
        ]
    },
    "profile": {
        "basic_info": {
            "baseFee": "34.116453906",
            "blockNumber": 13039070,
            "callData": "0xa9059cbb000000000000000000000000183b948af7371a62e64956886802b8b58a3f30e0000000000000000000000000000000000000000000000000000007f00376a723",
            "debugEnable": true,
            "errorInfo": "",
            "eventCount": 1,
            "feeRecipient": "0x1ca43b645886c98d7eb7d27ec16ea59f509cbe1a",
            "formatValue": "0",
            "gasLimit": 51754,
            "gasPrice": "38.116453906",
            "gasUsed": 29703,
            "intTxnCount": 0,
            "internalRevert": false,
            "internalRevertMessage": "",
            "isContractCreation": false,
            "isFlashloan": false,
            "maxFee": "49.069395122",
            "nonce": 15,
            "overwritedBlockNumber": -1,
            "priorityFee": "4",
            "receiver": "0x00156e5524f3a53a55a3cc6e95e57397d39daa49",
            "revertMessage": "",
            "sender": "0xc85e9b04c666287bbfce917f83dafebea4dd0769",
            "simulationEnable": true,
            "sourceTxnHash": "0xa8ee17cdbd5098fb9a36f0c2ca089e5e574b976f07c901743555420b0dc9e90e",
            "status": true,
            "timestamp": "2021-08-16T22:53:46Z",
            "transactionFee": "0.001132173030369918",
            "txnHash": "0xa8ee17cdbd5098fb9a36f0c2ca089e5e574b976f07c901743555420b0dc9e90e",
            "txnIndex": 6,
            "type": 2,
            "value": "0"
        },
        "fund_flow": [
            {
                "amount": "8.727431653155",
                "from": "0xc85e9b04c666287bbfce917f83dafebea4dd0769",
                "id": 1,
                "isERC1155": false,
                "isERC721": false,
                "isReverted": false,
                "order": 1,
                "to": "0x183b948af7371a62e64956886802b8b58a3f30e0",
                "token": "0x00156e5524f3a53a55a3cc6e95e57397d39daa49"
            }
        ],
        "token_infos": [
            {
                "address": "0x00156e5524f3a53a55a3cc6e95e57397d39daa49",
                "decimals": 12
            },
            {
                "address": "0xc02aaa39b223fe8d0a0e5c4f27ead9083c756cc2",
                "decimals": 18
            },
            {
                "address": "0xeeeeeeeeeeeeeeeeeeeeeeeeeeeeeeeeeeeeeeee",
                "decimals": 18
            }
        ]
    },
    "address_label": {
        "labels": [
            {
                "address": "0xeeeeeeeeeeeeeeeeeeeeeeeeeeeeeeeeeeeeeeee",
                "label": "Ether"
            },
            {
                "address": "0x00156e5524f3a53a55a3cc6e95e57397d39daa49",
                "label": "Quattro Tech (Qtech)"
            },
            {
                "address": "0x0000000000000000000000000000000000000001",
                "label": "Precompiled"
            },
            {
                "address": "0x0000000000000000000000000000000000000002",
                "label": "Precompiled"
            },
            {
                "address": "0x0000000000000000000000000000000000000003",
                "label": "Precompiled"
            },
            {
                "address": "0x0000000000000000000000000000000000000004",
                "label": "Precompiled"
            }
        ]
    },
    "trace": {
        "accountLabels": null,
        "dataMap": {
            "-1": {
                "invocation": {
                    "address": "0xc85e9b04c666287bbfce917f83dafebea4dd0769",
                    "callData": "",
                    "decodedMethod": null,
                    "errorInfo": "",
                    "fromAddress": "",
                    "gasUsed": 0,
                    "id": -1,
                    "methodDecoded": false,
                    "operation": "",
                    "output": "",
                    "revert": false,
                    "revertMessage": "",
                    "selector": "",
                    "status": false,
                    "value": ""
                },
                "nodeType": 0
            },
            "0": {
                "invocation": {
                    "address": "0x00156e5524f3a53a55a3cc6e95e57397d39daa49",
                    "callData": "0x000000000000000000000000183b948af7371a62e64956886802b8b58a3f30e0000000000000000000000000000000000000000000000000000007f00376a723",
                    "decodedMethod": {
                        "callParams": [
                            {
                                "name": "recipient",
                                "type": "address",
                                "value": "0x183b948af7371a62e64956886802b8b58a3f30e0"
                            },
                            {
                                "decimalAvailable": true,
                                "name": "amount",
                                "type": "uint256",
                                "value": "8,727,431,653,155"
                            }
                        ],
                        "constructorArguments": "",
                        "name": "transfer",
                        "returnParams": [
                            {
                                "name": "",
                                "type": "bool",
                                "value": true
                            }
                        ],
                        "signature": "transfer(address,uint256)"
                    },
                    "errorInfo": "",
                    "fromAddress": "0xc85e9b04c666287bbfce917f83dafebea4dd0769",
                    "gasUsed": 29703,
                    "id": 0,
                    "methodDecoded": true,
                    "operation": "CALL",
                    "output": "0x0000000000000000000000000000000000000000000000000000000000000001",
                    "revert": false,
                    "revertMessage": "",
                    "selector": "0xa9059cbb",
                    "status": true,
                    "value": "0"
                },
                "nodeType": 0
            },
            "1": {
                "event": {
                    "contract": "0x00156e5524f3a53a55a3cc6e95e57397d39daa49",
                    "decodedLog": {
                        "name": "Transfer",
                        "params": [
                            {
                                "name": "from",
                                "type": "address",
                                "value": "0xc85e9b04c666287bbfce917f83dafebea4dd0769"
                            },
                            {
                                "name": "to",
                                "type": "address",
                                "value": "0x183b948af7371a62e64956886802b8b58a3f30e0"
                            },
                            {
                                "decimalAvailable": true,
                                "name": "value",
                                "type": "uint256",
                                "value": "8,727,431,653,155"
                            }
                        ],
                        "signature": "Transfer(address,address,uint256)"
                    },
                    "id": 1,
                    "logData": "0x000000000000000000000000000000000000000000000000000007f00376a723",
                    "logDecoded": true,
                    "operation": "EVENT",
                    "revert": false,
                    "status": true,
                    "topics": [
                        "0xddf252ad1be2c89b69c2b068fc378daa952ba7f163c4a11628f55a4df523b3ef",
                        "0x000000000000000000000000c85e9b04c666287bbfce917f83dafebea4dd0769",
                        "0x000000000000000000000000183b948af7371a62e64956886802b8b58a3f30e0"
                    ]
                },
                "nodeType": 1
            }
        },
        "gasFlame": [
            {
                "children": [
                    {
                        "children": [
                            {
                                "children": [],
                                "depth": 0,
                                "name": "Initial Gas",
                                "value": 21632
                            },
                            {
                                "children": [],
                                "depth": 0,
                                "name": "Executed Gas",
                                "value": 12871
                            }
                        ],
                        "depth": -1,
                        "name": "Actual Gas Used",
                        "value": 29703
                    },
                    {
                        "children": [],
                        "depth": -1,
                        "name": "Refunded Gas",
                        "value": 4800
                    }
                ],
                "depth": -2,
                "name": "Total Gas",
                "value": 34503
            }
        ],
        "isConfirmed": true,
        "mainTrace": [
            {
                "children": [
                    {
                        "children": [
                            {
                                "children": [],
                                "depth": 1,
                                "id": 1,
                                "order": 1
                            }
                        ],
                        "depth": 0,
                        "id": 0,
                        "order": 0
                    }
                ],
                "depth": -1,
                "id": -1,
                "order": -1
            }
        ],
        "mainTraceNodeCount": 2,
        "parentIdMap": {
            "0": -1,
            "1": 0
        },
        "tidyTrace": [
            {
                "children": [
                    {
                        "children": [
                            {
                                "children": [],
                                "depth": 1,
                                "id": 1,
                                "order": 1
                            }
                        ],
                        "depth": 0,
                        "id": 0,
                        "order": 0
                    }
                ],
                "depth": -1,
                "id": -1,
                "order": -1
            }
        ],
        "tidyTraceNodeCount": 2
    },
    "state_change": {
        "stateChanges": [
            {
                "address": "0x00156e5524f3a53a55a3cc6e95e57397d39daa49",
                "erc": "ERC-20",
                "slots": [
                    {
                        "current": "0x00000000000000000000000000000000000000000000000000003b847252d3cd",
                        "key": "0x6a91513ce62b2f2ff39b6c3df1c10f696a225e4a2f9df568abb54463cce18f5b",
                        "prev": "0x000000000000000000000000000000000000000000000000000033946edc2caa"
                    },
                    {
                        "current": "0x0000000000000000000000000000000000000000000000000000000000000000",
                        "key": "0x99d329c0396ef4b21a88b3dfa119aa0f916fc437d29c8259dc01327dda50dee1",
                        "prev": "0x000000000000000000000000000000000000000000000000000007f00376a723"
                    }
                ],
                "storageVariables": [
                    {
                        "name": "_balances",
                        "type": "mapping(address => uint256)",
                        "value": {
                            "pairs": [
                                {
                                    "key": "0x183b948af7371a62e64956886802b8b58a3f30e0",
                                    "value": {
                                        "current": "65440039752653",
                                        "prev": "56712608099498",
                                        "typeTag": 1
                                    }
                                },
                                {
                                    "key": "0xc85e9b04c666287bbfce917f83dafebea4dd0769",
                                    "value": {
                                        "current": "0",
                                        "prev": "8727431653155",
                                        "typeTag": 1
                                    }
                                }
                            ],
                            "typeTag": 4
                        }
                    }
                ]
            }
        ]
    }
}