{
    "balance_change": {
        "balanceChanges": [
            {
                "account": "0x0000000000000000000000000000000000000000",
                "assets": [
                    {
                        "address": "0x5c891d76584b46bc7f1e700169a76569bb77d2db",
                        "amount": "1",
                        "iconUrl": "",
                        "isERC1155": true,
                        "isERC721": false,
                        "sign": false,
                        "tokenID": "25",
                        "value": ""
                    }
                ]
            },
            {
                "account": "0x664ffcad63527dfc306174310ad10e37bcf8dbf8",
                "assets": [
                    {
                        "address": "0x5c891d76584b46bc7f1e700169a76569bb77d2db",
                        "amount": "1",
                        "iconUrl": "",
                        "isERC1155": true,
                        "isERC721": false,
                        "sign": true,
                        "tokenID": "25",
                        "value": ""
                    }
                ]
            }
        ]
    },
    "profile": {
        "basic_info": {
            "baseFee": "11.313758443",
            "blockNumber": 16038255,
            "callData": "0x32ee4ee3000000000000000000000000664ffcad63527dfc306174310ad10e37bcf8dbf8000000000000000000000000000000000000000000000000000000000000006000000000000000000000000000000000000000000000000000000000000000a00000000000000000000000000000000000000000000000000000000000000001000000000000000000000000000000000000000000000000000000000000001900000000000000000000000000000000000000000000000000000000000000010000000000000000000000000000000000000000000000000000000000000001",
            "debugEnable": true,
            "errorInfo": "",
            "eventCount": 1,
            "feeRecipient": "0xdafea492d9c6733ae3d56b7ed1adb60692c98bc5",
            "formatValue": "0",
            "gasLimit": 200093,
            "gasPrice": "12.813758443",
            "gasUsed": 197429,
            "intTxnCount": 1,
            "internalRevert": false,
            "internalRevertMessage": "",
            "isContractCreation": false,
            "isFlashloan": false,
            "maxFee": "25.846382222",
            "nonce": 36584,
            "overwritedBlockNumber": -1,
            "priorityFee": "1.5",
            "receiver": "0x5c891d76584b46bc7f1e700169a76569bb77d2db",
            "revertMessage": "",
            "sender": "0x989e09f18a90dfe21fc19ffbb096a7ad6ba89fa5",
            "simulationEnable": true,
            "sourceTxnHash": "0xa99db7d45315fe47f6831ab8614214d5421b4df4619e27f04f02136a98d68e04",
            "status": true,
            "timestamp": "2022-11-24T07:09:47Z",
            "transactionFee": "0.002529807515643047",
            "txnHash": "0xa99db7d45315fe47f6831ab8614214d5421b4df4619e27f04f02136a98d68e04",
            "txnIndex": 86,
            "type": 2,
            "value": "0"
        },
        "fund_flow": [
            {
                "amount": "1",
                "from": "0x0000000000000000000000000000000000000000",
                "id": 1,
                "isERC1155": true,
                "isERC721": false,
                "isReverted": false,
                "order": 1,
                "to": "0x664ffcad63527dfc306174310ad10e37bcf8dbf8",
                "token": "0x5c891d76584b46bc7f1e700169a76569bb77d2db",
                "tokenID": "25"
            }
        ],
        "token_infos": [
            {
                "address": "0xc02aaa39b223fe8d0a0e5c4f27ead9083c756cc2",
                "decimals": 18
            },
            {
                "address": "0xeeeeeeeeeeeeeeeeeeeeeeeeeeeeeeeeeeeeeeee",
                "decimals": 18
            }
        ]
    },
    "address_label": {
        "labels": [
            {
                "address": "0xeeeeeeeeeeeeeeeeeeeeeeeeeeeeeeeeeeeeeeee",
                "label": "Ether"
            },
            {
                "address": "0x4b8946a6850e0ee486939790c0ccc0056c549df5",
                "label": "OKXFootballCup (OKXFC)"
            },
            {
                "address": "0x5c891d76584b46bc7f1e700169a76569bb77d2db",
                "label": "OKX Football Cup: OKXFC Token"
            },
            {
                "address": "0x0000000000000000000000000000000000000001",
                "label": "Precompiled"
            },
            {
                "address": "0x0000000000000000000000000000000000000002",
                "label": "Precompiled"
            },
            {
                "address": "0x0000000000000000000000000000000000000003",
                "label": "Precompiled"
            },
            {
                "address": "0x0000000000000000000000000000000000000004",
                "label": "Precompiled"
            }
        ]
    },
    "trace": {
        "accountLabels": null,
        "dataMap": {
            "-1": {
                "invocation": {
                    "address": "0x989e09f18a90dfe21fc19ffbb096a7ad6ba89fa5",
                    "callData": "",
                    "decodedMethod": null,
                    "errorInfo": "",
                    "fromAddress": "",
                    "gasUsed": 0,
                    "id": -1,
                    "methodDecoded": false,
                    "operation": "",
                    "output": "",
                    "revert": false,
                    "revertMessage": "",
                    "selector": "",
                    "status": false,
                    "value": ""
                },
                "nodeType": 0
            },
            "0": {
                "invocation": {
                    "address": "0x5c891d76584b46bc7f1e700169a76569bb77d2db",
                    "callData": "0x000000000000000000000000664ffcad63527dfc306174310ad10e37bcf8dbf8000000000000000000000000000000000000000000000000000000000000006000000000000000000000000000000000000000000000000000000000000000a00000000000000000000000000000000000000000000000000000000000000001000000000000000000000000000000000000000000000000000000000000001900000000000000000000000000000000000000000000000000000000000000010000000000000000000000000000000000000000000000000000000000000001",
                    "decodedMethod": {
                        "callParams": [
                            {
                                "name": "to",
                                "type": "address",
                                "value": "0x664ffcad63527dfc306174310ad10e37bcf8dbf8"
                            },
                            {
                                "name": "ids",
                                "type": "uint256[]",
                                "value": [
                                    "25"
                                ]
                            },
                            {
                                "name": "amounts",
                                "type": "uint256[]",
                                "value": [
                                    "1"
                                ]
                            }
                        ],
                        "constructorArguments": "",
                        "name": "mintForDrop",
                        "returnParams": [],
                        "signature": "mintForDrop(address,uint256[],uint256[])"
                    },
                    "errorInfo": "",
                    "fromAddress": "0x989e09f18a90dfe21fc19ffbb096a7ad6ba89fa5",
                    "gasUsed": 197429,
                    "id": 0,
                    "methodDecoded": true,
                    "operation": "CALL",
                    "output": "",
                    "revert": false,
                    "revertMessage": "",
                    "selector": "0x32ee4ee3",
                    "status": true,
                    "value": "0"
                },
                "nodeType": 0
            },
            "1": {
                "invocation": {
                    "address": "0x4b8946a6850e0ee486939790c0ccc0056c549df5",
                    "callData": "0x000000000000000000000000664ffcad63527dfc306174310ad10e37bcf8dbf8000000000000000000000000000000000000000000000000000000000000006000000000000000000000000000000000000000000000000000000000000000a00000000000000000000000000000000000000000000000000000000000000001000000000000000000000000000000000000000000000000000000000000001900000000000000000000000000000000000000000000000000000000000000010000000000000000000000000000000000000000000000000000000000000001",
                    "decodedMethod": {
                        "callParams": [
                            {
                                "name": "to",
                                "type": "address",
                                "value": "0x664ffcad63527dfc306174310ad10e37bcf8dbf8"
                            },
                            {
                                "name": "ids",
                                "type": "uint256[]",
                                "value": [
                                    "25"
                                ]
                            },
                            {
                                "name": "amounts",
                                "type": "uint256[]",
                                "value": [
                                    "1"
                                ]
                            }
                        ],
                        "constructorArguments": "",
                        "name": "mintForDrop",
                        "returnParams": [],
                        "signature": "mintForDrop(address,uint256[],uint256[])"
                    },
                    "errorInfo": "",
                    "fromAddress": "0x5c891d76584b46bc7f1e700169a76569bb77d2db",
                    "gasUsed": 170229,
                    "id": 1,
                    "methodDecoded": true,
                    "operation": "DELEGATECALL",
                    "output": "",
                    "revert": false,
                    "revertMessage": "",
                    "selector": "0x32ee4ee3",
                    "status": true,
                    "value": "0"
                },
                "nodeType": 0
            },
            "2": {
                "event": {
                    "contract": "0x5c891d76584b46bc7f1e700169a76569bb77d2db",
                    "decodedLog": {
                        "name": "TransferBatch",
                        "params": [
                            {
                                "name": "operator",
                                "type": "address",
                                "value": "0x989e09f18a90dfe21fc19ffbb096a7ad6ba89fa5"
                            },
                            {
                                "name": "from",
                                "type": "address",
                                "value": "0x0000000000000000000000000000000000000000"
                            },
                            {
                                "name": "to",
                                "type": "address",
                                "value": "0x664ffcad63527dfc306174310ad10e37bcf8dbf8"
                            },
                            {
                                "name": "ids",
                                "type": "uint256[]",
                                "value": [
                                    "25"
                                ]
                            },
                            {
                                "name": "values",
                                "type": "uint256[]",
                                "value": [
                                    "1"
                                ]
                            }
                        ],
                        "signature": "TransferBatch(address,address,address,uint256[],uint256[])"
                    },
                    "id": 2,
                    "logData": "0x000000000000000000000000000000000000000000000000000000000000004000000000000000000000000000000000000000000000000000000000000000800000000000000000000000000000000000000000000000000000000000000001000000000000000000000000000000000000000000000000000000000000001900000000000000000000000000000000000000000000000000000000000000010000000000000000000000000000000000000000000000000000000000000001",
                    "logDecoded": true,
                    "operation": "EVENT",
                    "revert": false,
                    "status": true,
                    "topics": [
                        "0x4a39dc06d4c0dbc64b70af90fd698a233a518aa5d07e595d983b8c0526c8f7fb",
                        "0x000000000000000000000000989e09f18a90dfe21fc19ffbb096a7ad6ba89fa5",
                        "0x0000000000000000000000000000000000000000000000000000000000000000",
                        "0x000000000000000000000000664ffcad63527dfc306174310ad10e37bcf8dbf8"
                    ]
                },
                "nodeType": 1
            }
        },
        "gasFlame": [
            {
                "children": [
                    {
                        "children": [
                            {
                                "children": [],
                                "depth": 0,
                                "name": "Initial Gas",
                                "value": 22272
                            },
                            {
                                "children": [
                                    {
                                        "children": [],
                                        "depth": 1,
                                        "name": "mintForDrop",
                                        "value": 170229
                                    }
                                ],
                                "depth": 0,
                                "name": "Executed Gas",
                                "value": 175157
                            }
                        ],
                        "depth": -1,
                        "name": "Actual Gas Used",
                        "value": 197429
                    },
                    {
                        "children": [],
                        "depth": -1,
                        "name": "Refunded Gas",
                        "value": 0
                    }
                ],
                "depth": -2,
                "name": "Total Gas",
                "value": 197429
            }
        ],
        "isConfirmed": true,
        "mainTrace": [
            {
                "children": [
                    {
                        "children": [
                            {
                                "children": [
                                    {
                                        "children": [],
                                        "depth": 2,
                                        "id": 2,
                                        "order": 2
                                    }
                                ],
                                "depth": 1,
                                "id": 1,
                                "order": 1
                            }
                        ],
                        "depth": 0,
                        "id": 0,
                        "order": 0
                    }
                ],
                "depth": -1,
                "id": -1,
                "order": -1
            }
        ],
        "mainTraceNodeCount": 3,
        "parentIdMap": {
            "0": -1,
            "1": 0,
            "2": 1
        },
        "tidyTrace": [
            {
                "children": [
                    {
                        "children": [
                            {
                                "children": [
                                    {
                                        "children": [],
                                        "depth": 2,
                                        "id": 2,
                                        "order": 2
                                    }
                                ],
                                "depth": 1,
                                "id": 1,
                                "order": 1
                            }
                        ],
                        "depth": 0,
                        "id": 0,
                        "order": 0
                    }
                ],
                "depth": -1,
                "id": -1,
                "order": -1
            }
        ],
        "tidyTraceNodeCount": 3
    },
    "state_change": {
        "stateChanges": [
            {
                "address": "0x5c891d76584b46bc7f1e700169a76569bb77d2db",
                "erc": "",
                "slots": [
                    {
                        "current": "0x0000000000000000000000000000000000000000000000000000000000000001",
                        "key": "0x2036930aed4934fcf324c6fa8d607a8f77886845a84508e204f45b802bbe107a",
                        "prev": "0x0000000000000000000000000000000000000000000000000000000000000000"
                    },
                    {
                        "current": "0x000000000000000000000000000000000000000000000000000000000000559c",
                        "key": "0x734af1cb50ab22ce8eb3891ccd2d6d80598da514e528ed4c20a5446ca0348321",
                        "prev": "0x000000000000000000000000000000000000000000000000000000000000559b"
                    },
                    {
                        "current": "0x000000000000000000000000000000000000000000000000000000000000559c",
                        "key": "0xdb2f5fd25bace2d4e0f6a03558b038599e1dd68d2f389b17a313e207f36cc06f",
                        "prev": "0x000000000000000000000000000000000000000000000000000000000000559b"
                    },
                    {
                        "current": "0x000000000000000000000000664ffcad63527dfc306174310ad10e37bcf8dbf8",
                        "key": "0xc7b8bc3d6c9f6ad436d3978877ad4f54b2cb029cc223ac289e1f4fe4d395367c",
                        "prev": "0x0000000000000000000000000000000000000000000000000000000000000000"
                    },
                    {
                        "current": "0x0000000000000000000000000000000000000000000000000000000000000001",
                        "key": "0x3aeac3a33b24b59da5aa030c6bf1f18197176bd845b2f07fba7b2d2aa9f075a3",
                        "prev": "0x0000000000000000000000000000000000000000000000000000000000000000"
                    },
                    {
                        "current": "0x000000000000000000000000000000000000000000000000000000000000d79c",
                        "key": "0x0000000000000000000000000000000000000000000000000000000000000198",
                        "prev": "0x000000000000000000000000000000000000000000000000000000000000d79b"
                    },
                    {
                        "current": "0x000000000000000000000000000000000000000000000000000000000000651d",
                        "key": "0xe40205bf371e9d590603f0f18a779f55436c345505df9ad955ae478ed96385d8",
                        "prev": "0x000000000000000000000000000000000000000000000000000000000000651c"
                    },
                    {
                        "current": "0x000000000000000000000000000000000000000000000000000000000000559c",
                        "key": "0xd55d1251015d8d1b2f637a3301ca4e094a5eb68ec28dc9e5f141113db2f3cebe",
                        "prev": "0x0000000000000000000000000000000000000000000000000000000000000000"
                    },
                    {
                        "current": "0x0000000000000000000000000000000000000000000000000000000000000001",
                        "key": "0x7f2f7d44a9fda8f3f7c21665517117a199306099ab4241c6361f58332faff1c7",
                        "prev": "0x0000000000000000000000000000000000000000000000000000000000000000"
                    },
                    {
                        "current": "0x0000000000000000000000000000000000000000000000000000000000013472",
                        "key": "0x00000000000000000000000000000000000000000000000000000000000001a0",
                        "prev": "0x0000000000000000000000000000000000000000000000000000000000013471"
                    }
                ],
                "storageVariables": []
            }
        ]
    }
}