{
    "balance_change": {
        "balanceChanges": [
            {
                "account": "0x30e3ea2a26dce07a959f7d57c826c91a20e92278",
                "assets": [
                    {
                        "address": "0xeeeeeeeeeeeeeeeeeeeeeeeeeeeeeeeeeeeeeeee",
                        "amount": "0.05",
                        "iconUrl": "https://assets.blocksec.com/image/1663669189317-3.png",
                        "isERC1155": false,
                        "isERC721": false,
                        "sign": false,
                        "value": "81.81244540000000143"
                    },
                    {
                        "address": "0x7d1afa7b718fb893db30a3abc0cfc608aacfebb0",
                        "amount": "86.65707726709818633",
                        "iconUrl": "https://assets.blocksec.com/icon/5dc5187d80083e1e6ca5ca29581f660fdc3ebdf47eef117c3dfa3a0c07ab7d33.png",
                        "isERC1155": false,
                        "isERC721": false,
                        "sign": true,
                        "value": "65.21811635340200405"
                    }
                ]
            },
            {
                "account": "0x819f3450da6f110ba6ea52195b3beafa246062de",
                "assets": [
                    {
                        "address": "0x7d1afa7b718fb893db30a3abc0cfc608aacfebb0",
                        "amount": "86.65707726709818633",
                        "iconUrl": "https://assets.blocksec.com/icon/5dc5187d80083e1e6ca5ca29581f660fdc3ebdf47eef117c3dfa3a0c07ab7d33.png",
                        "isERC1155": false,
                        "isERC721": false,
                        "sign": false,
                        "value": "65.21811635340200405"
                    },
                    {
                        "address": "0xc02aaa39b223fe8d0a0e5c4f27ead9083c756cc2",
                        "amount": "0.0495625",
                        "iconUrl": "https://assets.blocksec.com/icon/f1cb2d02c471d545bbc7722daf3277fd852d98e63d118771af7047bd8256c516.png",
                        "isERC1155": false,
                        "isERC721": false,
                        "sign": true,
                        "value": "81.09658650275000141"
                    }
                ]
            },
            {
                "account": "0xc02aaa39b223fe8d0a0e5c4f27ead9083c756cc2",
                "assets": [
                    {
                        "address": "0xeeeeeeeeeeeeeeeeeeeeeeeeeeeeeeeeeeeeeeee",
                        "amount": "0.0495625",
                        "iconUrl": "https://assets.blocksec.com/image/1663669189317-3.png",
                        "isERC1155": false,
                        "isERC721": false,
                        "sign": true,
                        "value": "81.09658650275000141"
                    },
                    {
                        "address": "0xc02aaa39b223fe8d0a0e5c4f27ead9083c756cc2",
                        "amount": "0.0495625",
                        "iconUrl": "https://assets.blocksec.com/icon/f1cb2d02c471d545bbc7722daf3277fd852d98e63d118771af7047bd8256c516.png",
                        "isERC1155": false,
                        "isERC721": false,
                        "sign": false,
                        "value": "81.09658650275000141"
                    }
                ]
            },
            {
                "account": "0xf326e4de8f66a0bdc0970b79e0924e33c79f1915",
                "assets": [
                    {
                        "address": "0xeeeeeeeeeeeeeeeeeeeeeeeeeeeeeeeeeeeeeeee",
                        "amount": "0.0004375",
                        "iconUrl": "https://assets.blocksec.com/image/1663669189317-3.png",
                        "isERC1155": false,
                        "isERC721": false,
                        "sign": true,
                        "value": "0.7158588972500000125"
                    }
                ]
            }
        ]
    },
    "profile": {
        "basic_info": {
            "baseFee": "20.031972411",
            "blockNumber": 15618452,
            "callData": "0x5f5755290000000000000000000000000000000000000000000000000000000000000080000000000000000000000000000000000000000000000000000000000000000000000000000000000000000000000000000000000000000000b1a2bc2ec5000000000000000000000000000000000000000000000000000000000000000000c000000000000000000000000000000000000000000000000000000000000000136f6e65496e6368563446656544796e616d696300000000000000000000000000000000000000000000000000000000000000000000000000000000000000020000000000000000000000000000000000000000000000000000000000000000000000000000000000000000007d1afa7b718fb893db30a3abc0cfc608aacfebb000000000000000000000000000000000000000000000000000b014d4c6ae28000000000000000000000000000000000000000000000000049a8e6d97b762e48b000000000000000000000000000000000000000000000000000000000000012000000000000000000000000000000000000000000000000000018de76816d800000000000000000000000000f326e4de8f66a0bdc0970b79e0924e33c79f1915000000000000000000000000000000000000000000000000000000000000000000000000000000000000000000000000000000000000000000000000000000c82e95b6c8000000000000000000000000000000000000000000000000000000000000000000000000000000000000000000000000000000000000000000b014d4c6ae28000000000000000000000000000000000000000000000000049a8e6d97b762e48b0000000000000000000000000000000000000000000000000000000000000080000000000000000000000000000000000000000000000000000000000000000180000000000000003b6d0340819f3450da6f110ba6ea52195b3beafa246062deab4991fe0000000000000000000000000000000000000000000000008a",
            "debugEnable": true,
            "errorInfo": "",
            "eventCount": 7,
            "feeRecipient": "0x388c818ca8b9251b393131c08a736a67ccb19297",
            "formatValue": "0.05",
            "gasLimit": 243741,
            "gasPrice": "22.031972411",
            "gasUsed": 181132,
            "intTxnCount": 14,
            "internalRevert": false,
            "internalRevertMessage": "",
            "isContractCreation": false,
            "isFlashloan": false,
            "maxFee": "36.097562625",
            "nonce": 285,
            "overwritedBlockNumber": -1,
            "priorityFee": "2",
            "receiver": "0x881d40237659c251811cec9c364ef91dc08d300c",
            "revertMessage": "",
            "sender": "0x30e3ea2a26dce07a959f7d57c826c91a20e92278",
            "simulationEnable": true,
            "sourceTxnHash": "0xa9324a9f2c79facb74eb7b04b8d95c8eaaad73bd5801062413c238d9221dfcb7",
            "status": true,
            "timestamp": "2022-09-26T15:31:11Z",
            "transactionFee": "0.003990695226749252",
            "txnHash": "0xa9324a9f2c79facb74eb7b04b8d95c8eaaad73bd5801062413c238d9221dfcb7",
            "txnIndex": 5,
            "type": 2,
            "value": "50000000000000000"
        },
        "fund_flow": [
            {
                "amount": "0.05",
                "from": "0x30e3ea2a26dce07a959f7d57c826c91a20e92278",
                "id": 1,
                "isERC1155": false,
                "isERC721": false,
                "isReverted": false,
                "order": 1,
                "to": "0x881d40237659c251811cec9c364ef91dc08d300c",
                "token": "0xeeeeeeeeeeeeeeeeeeeeeeeeeeeeeeeeeeeeeeee"
            },
            {
                "amount": "0.05",
                "from": "0x881d40237659c251811cec9c364ef91dc08d300c",
                "id": 2,
                "isERC1155": false,
                "isERC721": false,
                "isReverted": false,
                "order": 2,
                "to": "0x74de5d4fcbf63e00296fd95d33236b9794016631",
                "token": "0xeeeeeeeeeeeeeeeeeeeeeeeeeeeeeeeeeeeeeeee"
            },
            {
                "amount": "0.0495625",
                "from": "0x74de5d4fcbf63e00296fd95d33236b9794016631",
                "id": 3,
                "isERC1155": false,
                "isERC721": false,
                "isReverted": false,
                "order": 3,
                "to": "0x1111111254fb6c44bac0bed2854e76f90643097d",
                "token": "0xeeeeeeeeeeeeeeeeeeeeeeeeeeeeeeeeeeeeeeee"
            },
            {
                "amount": "0.0495625",
                "from": "0x1111111254fb6c44bac0bed2854e76f90643097d",
                "id": 4,
                "isERC1155": false,
                "isERC721": false,
                "isReverted": false,
                "order": 4,
                "to": "0xc02aaa39b223fe8d0a0e5c4f27ead9083c756cc2",
                "token": "0xeeeeeeeeeeeeeeeeeeeeeeeeeeeeeeeeeeeeeeee"
            },
            {
                "amount": "0.0495625",
                "from": "0xc02aaa39b223fe8d0a0e5c4f27ead9083c756cc2",
                "id": 5,
                "isERC1155": false,
                "isERC721": false,
                "isReverted": false,
                "order": 5,
                "to": "0x1111111254fb6c44bac0bed2854e76f90643097d",
                "token": "0xc02aaa39b223fe8d0a0e5c4f27ead9083c756cc2"
            },
            {
                "amount": "0.0495625",
                "from": "0x1111111254fb6c44bac0bed2854e76f90643097d",
                "id": 6,
                "isERC1155": false,
                "isERC721": false,
                "isReverted": false,
                "order": 6,
                "to": "0x819f3450da6f110ba6ea52195b3beafa246062de",
                "token": "0xc02aaa39b223fe8d0a0e5c4f27ead9083c756cc2"
            },
            {
                "amount": "86.65707726709818633",
                "from": "0x819f3450da6f110ba6ea52195b3beafa246062de",
                "id": 7,
                "isERC1155": false,
                "isERC721": false,
                "isReverted": false,
                "order": 7,
                "to": "0x74de5d4fcbf63e00296fd95d33236b9794016631",
                "token": "0x7d1afa7b718fb893db30a3abc0cfc608aacfebb0"
            },
            {
                "amount": "0.0004375",
                "from": "0x74de5d4fcbf63e00296fd95d33236b9794016631",
                "id": 8,
                "isERC1155": false,
                "isERC721": false,
                "isReverted": false,
                "order": 8,
                "to": "0xf326e4de8f66a0bdc0970b79e0924e33c79f1915",
                "token": "0xeeeeeeeeeeeeeeeeeeeeeeeeeeeeeeeeeeeeeeee"
            },
            {
                "amount": "86.65707726709818633",
                "from": "0x74de5d4fcbf63e00296fd95d33236b9794016631",
                "id": 9,
                "isERC1155": false,
                "isERC721": false,
                "isReverted": false,
                "order": 9,
                "to": "0x30e3ea2a26dce07a959f7d57c826c91a20e92278",
                "token": "0x7d1afa7b718fb893db30a3abc0cfc608aacfebb0"
            }
        ],
        "token_infos": [
            {
                "address": "0x7d1afa7b718fb893db30a3abc0cfc608aacfebb0",
                "decimals": 18
            },
            {
                "address": "0xc02aaa39b223fe8d0a0e5c4f27ead9083c756cc2",
                "decimals": 18
            },
            {
                "address": "0xeeeeeeeeeeeeeeeeeeeeeeeeeeeeeeeeeeeeeeee",
                "decimals": 18
            }
        ]
    },
    "address_label": {
        "labels": [
            {
                "address": "0x0000000000000000000000000000000000000000",
                "label": "Null Address"
            },
            {
                "address": "0x388c818ca8b9251b393131c08a736a67ccb19297",
                "label": "LidoExecutionLayerRewardsVault"
            },
            {
                "address": "0x0000000000000000000000000000000000000001",
                "label": "Precompiled"
            },
            {
                "address": "0xf326e4de8f66a0bdc0970b79e0924e33c79f1915",
                "label": "MetaMask: DS Proxy"
            },
            {
                "address": "0x881d40237659c251811cec9c364ef91dc08d300c",
                "label": "Metamask: Swap Router"
            },
            {
                "address": "0x34cfac646f301356faa8b21e94227e3583fe3f5f",
                "label": "Safe: Mastercopy 1.1.1"
            },
            {
                "address": "0x7d1afa7b718fb893db30a3abc0cfc608aacfebb0",
                "label": "Polygon (Matic): Old Matic Token"
            },
            {
                "address": "0x1111111254fb6c44bac0bed2854e76f90643097d",
                "label": "1inch v4: Aggregation Router"
            },
            {
                "address": "0x0000000000000000000000000000000000000002",
                "label": "Precompiled"
            },
            {
                "address": "0xeeeeeeeeeeeeeeeeeeeeeeeeeeeeeeeeeeeeeeee",
                "label": "Ether"
            },
            {
                "address": "0x819f3450da6f110ba6ea52195b3beafa246062de",
                "label": "Uniswap V2: MATIC"
            },
            {
                "address": "0x0000000000000000000000000000000000000003",
                "label": "Precompiled"
            },
            {
                "address": "0x0000000000000000000000000000000000000004",
                "label": "Precompiled"
            },
            {
                "address": "0x74de5d4fcbf63e00296fd95d33236b9794016631",
                "label": "MetaMask: Swaps Spender"
            },
            {
                "address": "0xc02aaa39b223fe8d0a0e5c4f27ead9083c756cc2",
                "label": "Wrapped Ether (WETH)"
            }
        ]
    },
    "trace": {
        "accountLabels": null,
        "dataMap": {
            "-1": {
                "invocation": {
                    "address": "0x30e3ea2a26dce07a959f7d57c826c91a20e92278",
                    "callData": "",
                    "decodedMethod": null,
                    "errorInfo": "",
                    "fromAddress": "",
                    "gasUsed": 0,
                    "id": -1,
                    "methodDecoded": false,
                    "operation": "",
                    "output": "",
                    "revert": false,
                    "revertMessage": "",
                    "selector": "",
                    "status": false,
                    "value": ""
                },
                "nodeType": 0
            },
            "0": {
                "invocation": {
                    "address": "0x881d40237659c251811cec9c364ef91dc08d300c",
                    "callData": "0x0000000000000000000000000000000000000000000000000000000000000080000000000000000000000000000000000000000000000000000000000000000000000000000000000000000000000000000000000000000000b1a2bc2ec5000000000000000000000000000000000000000000000000000000000000000000c000000000000000000000000000000000000000000000000000000000000000136f6e65496e6368563446656544796e616d696300000000000000000000000000000000000000000000000000000000000000000000000000000000000000020000000000000000000000000000000000000000000000000000000000000000000000000000000000000000007d1afa7b718fb893db30a3abc0cfc608aacfebb000000000000000000000000000000000000000000000000000b014d4c6ae28000000000000000000000000000000000000000000000000049a8e6d97b762e48b000000000000000000000000000000000000000000000000000000000000012000000000000000000000000000000000000000000000000000018de76816d800000000000000000000000000f326e4de8f66a0bdc0970b79e0924e33c79f1915000000000000000000000000000000000000000000000000000000000000000000000000000000000000000000000000000000000000000000000000000000c82e95b6c8000000000000000000000000000000000000000000000000000000000000000000000000000000000000000000000000000000000000000000b014d4c6ae28000000000000000000000000000000000000000000000000049a8e6d97b762e48b0000000000000000000000000000000000000000000000000000000000000080000000000000000000000000000000000000000000000000000000000000000180000000000000003b6d0340819f3450da6f110ba6ea52195b3beafa246062deab4991fe0000000000000000000000000000000000000000000000008a",
                    "decodedMethod": {
                        "callParams": [
                            {
                                "name": "aggregatorId",
                                "type": "string",
                                "value": "oneInchV4FeeDynamic"
                            },
                            {
                                "name": "tokenFrom",
                                "type": "address",
                                "value": "0x0000000000000000000000000000000000000000"
                            },
                            {
                                "name": "amount",
                                "type": "uint256",
                                "value": "50,000,000,000,000,000"
                            },
                            {
                                "name": "data",
                                "type": "bytes",
                                "value": "0x00000000000000000000000000000000000000000000000000000000000000000000000000000000000000007d1afa7b718fb893db30a3abc0cfc608aacfebb000000000000000000000000000000000000000000000000000b014d4c6ae28000000000000000000000000000000000000000000000000049a8e6d97b762e48b000000000000000000000000000000000000000000000000000000000000012000000000000000000000000000000000000000000000000000018de76816d800000000000000000000000000f326e4de8f66a0bdc0970b79e0924e33c79f1915000000000000000000000000000000000000000000000000000000000000000000000000000000000000000000000000000000000000000000000000000000c82e95b6c8000000000000000000000000000000000000000000000000000000000000000000000000000000000000000000000000000000000000000000b014d4c6ae28000000000000000000000000000000000000000000000000049a8e6d97b762e48b0000000000000000000000000000000000000000000000000000000000000080000000000000000000000000000000000000000000000000000000000000000180000000000000003b6d0340819f3450da6f110ba6ea52195b3beafa246062deab4991fe000000000000000000000000000000000000000000000000"
                            }
                        ],
                        "constructorArguments": "",
                        "name": "swap",
                        "returnParams": [],
                        "signature": "swap(string,address,uint256,bytes)"
                    },
                    "errorInfo": "",
                    "fromAddress": "0x30e3ea2a26dce07a959f7d57c826c91a20e92278",
                    "gasUsed": 181132,
                    "id": 0,
                    "methodDecoded": true,
                    "operation": "CALL",
                    "output": "",
                    "revert": false,
                    "revertMessage": "",
                    "selector": "0x5f575529",
                    "status": true,
                    "value": "0.05"
                },
                "nodeType": 0
            },
            "1": {
                "invocation": {
                    "address": "0x74de5d4fcbf63e00296fd95d33236b9794016631",
                    "callData": "0x000000000000000000000000dfa7bd39ded0051b2ecc48f7e17f63ecd165cae10000000000000000000000000000000000000000000000000000000000000040000000000000000000000000000000000000000000000000000000000000022492f5f03700000000000000000000000030e3ea2a26dce07a959f7d57c826c91a20e9227800000000000000000000000000000000000000000000000000000000000000000000000000000000000000007d1afa7b718fb893db30a3abc0cfc608aacfebb000000000000000000000000000000000000000000000000000b014d4c6ae28000000000000000000000000000000000000000000000000049a8e6d97b762e48b000000000000000000000000000000000000000000000000000000000000012000000000000000000000000000000000000000000000000000018de76816d800000000000000000000000000f326e4de8f66a0bdc0970b79e0924e33c79f1915000000000000000000000000000000000000000000000000000000000000000000000000000000000000000000000000000000000000000000000000000000c82e95b6c8000000000000000000000000000000000000000000000000000000000000000000000000000000000000000000000000000000000000000000b014d4c6ae28000000000000000000000000000000000000000000000000049a8e6d97b762e48b0000000000000000000000000000000000000000000000000000000000000080000000000000000000000000000000000000000000000000000000000000000180000000000000003b6d0340819f3450da6f110ba6ea52195b3beafa246062deab4991fe00000000000000000000000000000000000000000000000000000000000000000000000000000000000000000000000000000000",
                    "decodedMethod": {
                        "callParams": [
                            {
                                "name": "adapter",
                                "type": "address",
                                "value": "0xdfa7bd39ded0051b2ecc48f7e17f63ecd165cae1"
                            },
                            {
                                "name": "data",
                                "type": "bytes",
                                "value": "0x92f5f03700000000000000000000000030e3ea2a26dce07a959f7d57c826c91a20e9227800000000000000000000000000000000000000000000000000000000000000000000000000000000000000007d1afa7b718fb893db30a3abc0cfc608aacfebb000000000000000000000000000000000000000000000000000b014d4c6ae28000000000000000000000000000000000000000000000000049a8e6d97b762e48b000000000000000000000000000000000000000000000000000000000000012000000000000000000000000000000000000000000000000000018de76816d800000000000000000000000000f326e4de8f66a0bdc0970b79e0924e33c79f1915000000000000000000000000000000000000000000000000000000000000000000000000000000000000000000000000000000000000000000000000000000c82e95b6c8000000000000000000000000000000000000000000000000000000000000000000000000000000000000000000000000000000000000000000b014d4c6ae28000000000000000000000000000000000000000000000000049a8e6d97b762e48b0000000000000000000000000000000000000000000000000000000000000080000000000000000000000000000000000000000000000000000000000000000180000000000000003b6d0340819f3450da6f110ba6ea52195b3beafa246062deab4991fe000000000000000000000000000000000000000000000000"
                            }
                        ],
                        "constructorArguments": "",
                        "name": "swap",
                        "returnParams": [],
                        "signature": "swap(address,bytes)"
                    },
                    "errorInfo": "",
                    "fromAddress": "0x881d40237659c251811cec9c364ef91dc08d300c",
                    "gasUsed": 174904,
                    "id": 1,
                    "methodDecoded": true,
                    "operation": "CALL",
                    "output": "",
                    "revert": false,
                    "revertMessage": "",
                    "selector": "0xe3547335",
                    "status": true,
                    "value": "0.05"
                },
                "nodeType": 0
            },
            "10": {
                "invocation": {
                    "address": "0x7d1afa7b718fb893db30a3abc0cfc608aacfebb0",
                    "callData": "0x00000000000000000000000074de5d4fcbf63e00296fd95d33236b9794016631000000000000000000000000000000000000000000000004b29bc8a542f7325a",
                    "decodedMethod": {
                        "callParams": [
                            {
                                "name": "to",
                                "type": "address",
                                "value": "0x74de5d4fcbf63e00296fd95d33236b9794016631"
                            },
                            {
                                "decimalAvailable": true,
                                "name": "value",
                                "type": "uint256",
                                "value": "86,657,077,267,098,186,330"
                            }
                        ],
                        "constructorArguments": "",
                        "name": "transfer",
                        "returnParams": [
                            {
                                "name": "",
                                "type": "bool",
                                "value": true
                            }
                        ],
                        "signature": "transfer(address,uint256)"
                    },
                    "errorInfo": "",
                    "fromAddress": "0x819f3450da6f110ba6ea52195b3beafa246062de",
                    "gasUsed": 32372,
                    "id": 10,
                    "methodDecoded": true,
                    "operation": "CALL",
                    "output": "0x0000000000000000000000000000000000000000000000000000000000000001",
                    "revert": false,
                    "revertMessage": "",
                    "selector": "0xa9059cbb",
                    "status": true,
                    "value": "0"
                },
                "nodeType": 0
            },
            "11": {
                "event": {
                    "contract": "0x7d1afa7b718fb893db30a3abc0cfc608aacfebb0",
                    "decodedLog": {
                        "name": "Transfer",
                        "params": [
                            {
                                "name": "from",
                                "type": "address",
                                "value": "0x819f3450da6f110ba6ea52195b3beafa246062de"
                            },
                            {
                                "name": "to",
                                "type": "address",
                                "value": "0x74de5d4fcbf63e00296fd95d33236b9794016631"
                            },
                            {
                                "decimalAvailable": true,
                                "name": "value",
                                "type": "uint256",
                                "value": "86,657,077,267,098,186,330"
                            }
                        ],
                        "signature": "Transfer(address,address,uint256)"
                    },
                    "id": 11,
                    "logData": "0x000000000000000000000000000000000000000000000004b29bc8a542f7325a",
                    "logDecoded": true,
                    "operation": "EVENT",
                    "revert": false,
                    "status": true,
                    "topics": [
                        "0xddf252ad1be2c89b69c2b068fc378daa952ba7f163c4a11628f55a4df523b3ef",
                        "0x000000000000000000000000819f3450da6f110ba6ea52195b3beafa246062de",
                        "0x00000000000000000000000074de5d4fcbf63e00296fd95d33236b9794016631"
                    ]
                },
                "nodeType": 1
            },
            "12": {
                "invocation": {
                    "address": "0x7d1afa7b718fb893db30a3abc0cfc608aacfebb0",
                    "callData": "0x000000000000000000000000819f3450da6f110ba6ea52195b3beafa246062de",
                    "decodedMethod": {
                        "callParams": [
                            {
                                "name": "owner",
                                "type": "address",
                                "value": "0x819f3450da6f110ba6ea52195b3beafa246062de"
                            }
                        ],
                        "constructorArguments": "",
                        "name": "balanceOf",
                        "returnParams": [
                            {
                                "decimalAvailable": true,
                                "name": "",
                                "type": "uint256",
                                "value": "634,155,852,147,831,304,438,037"
                            }
                        ],
                        "signature": "balanceOf(address)"
                    },
                    "errorInfo": "",
                    "fromAddress": "0x819f3450da6f110ba6ea52195b3beafa246062de",
                    "gasUsed": 631,
                    "id": 12,
                    "methodDecoded": true,
                    "operation": "STATICCALL",
                    "output": "0x000000000000000000000000000000000000000000008649a85a6abfbed14115",
                    "revert": false,
                    "revertMessage": "",
                    "selector": "0x70a08231",
                    "status": true,
                    "value": "0"
                },
                "nodeType": 0
            },
            "13": {
                "invocation": {
                    "address": "0xc02aaa39b223fe8d0a0e5c4f27ead9083c756cc2",
                    "callData": "0x000000000000000000000000819f3450da6f110ba6ea52195b3beafa246062de",
                    "decodedMethod": {
                        "callParams": [
                            {
                                "name": "",
                                "type": "address",
                                "value": "0x819f3450da6f110ba6ea52195b3beafa246062de"
                            }
                        ],
                        "constructorArguments": "",
                        "name": "balanceOf",
                        "returnParams": [
                            {
                                "decimalAvailable": true,
                                "name": "",
                                "type": "uint256",
                                "value": "361,659,477,835,885,444,343"
                            }
                        ],
                        "signature": "balanceOf(address)"
                    },
                    "errorInfo": "",
                    "fromAddress": "0x819f3450da6f110ba6ea52195b3beafa246062de",
                    "gasUsed": 534,
                    "id": 13,
                    "methodDecoded": true,
                    "operation": "STATICCALL",
                    "output": "0x0000000000000000000000000000000000000000000000139b0892f00d35fcf7",
                    "revert": false,
                    "revertMessage": "",
                    "selector": "0x70a08231",
                    "status": true,
                    "value": "0"
                },
                "nodeType": 0
            },
            "14": {
                "event": {
                    "contract": "0x819f3450da6f110ba6ea52195b3beafa246062de",
                    "decodedLog": {
                        "name": "Sync",
                        "params": [
                            {
                                "name": "reserve0",
                                "type": "uint112",
                                "value": "634,155,852,147,831,304,438,037"
                            },
                            {
                                "name": "reserve1",
                                "type": "uint112",
                                "value": "361,659,477,835,885,444,343"
                            }
                        ],
                        "signature": "Sync(uint112,uint112)"
                    },
                    "id": 14,
                    "logData": "0x000000000000000000000000000000000000000000008649a85a6abfbed141150000000000000000000000000000000000000000000000139b0892f00d35fcf7",
                    "logDecoded": true,
                    "operation": "EVENT",
                    "revert": false,
                    "status": true,
                    "topics": [
                        "0x1c411e9a96e071241c2f21f7726b17ae89e3cab4c78be50e062b03a9fffbbad1"
                    ]
                },
                "nodeType": 1
            },
            "15": {
                "event": {
                    "contract": "0x819f3450da6f110ba6ea52195b3beafa246062de",
                    "decodedLog": {
                        "name": "Swap",
                        "params": [
                            {
                                "name": "sender",
                                "type": "address",
                                "value": "0x1111111254fb6c44bac0bed2854e76f90643097d"
                            },
                            {
                                "name": "to",
                                "type": "address",
                                "value": "0x74de5d4fcbf63e00296fd95d33236b9794016631"
                            },
                            {
                                "name": "amount0In",
                                "type": "uint256",
                                "value": "0"
                            },
                            {
                                "name": "amount1In",
                                "type": "uint256",
                                "value": "49,562,500,000,000,000"
                            },
                            {
                                "name": "amount0Out",
                                "type": "uint256",
                                "value": "86,657,077,267,098,186,330"
                            },
                            {
                                "name": "amount1Out",
                                "type": "uint256",
                                "value": "0"
                            }
                        ],
                        "signature": "Swap(address,uint256,uint256,uint256,uint256,address)"
                    },
                    "id": 15,
                    "logData": "0x000000000000000000000000000000000000000000000000000000000000000000000000000000000000000000000000000000000000000000b014d4c6ae2800000000000000000000000000000000000000000000000004b29bc8a542f7325a0000000000000000000000000000000000000000000000000000000000000000",
                    "logDecoded": true,
                    "operation": "EVENT",
                    "revert": false,
                    "status": true,
                    "topics": [
                        "0xd78ad95fa46c994b6551d0da85fc275fe613ce37657fb8d5e3d130840159d822",
                        "0x0000000000000000000000001111111254fb6c44bac0bed2854e76f90643097d",
                        "0x00000000000000000000000074de5d4fcbf63e00296fd95d33236b9794016631"
                    ]
                },
                "nodeType": 1
            },
            "16": {
                "invocation": {
                    "address": "0xf326e4de8f66a0bdc0970b79e0924e33c79f1915",
                    "callData": "0x",
                    "decodedMethod": null,
                    "errorInfo": "",
                    "fromAddress": "0x74de5d4fcbf63e00296fd95d33236b9794016631",
                    "gasUsed": 4918,
                    "id": 16,
                    "methodDecoded": false,
                    "operation": "CALL",
                    "output": "",
                    "revert": false,
                    "revertMessage": "",
                    "selector": "fallback",
                    "status": true,
                    "value": "0.0004375"
                },
                "nodeType": 0
            },
            "17": {
                "invocation": {
                    "address": "0x34cfac646f301356faa8b21e94227e3583fe3f5f",
                    "callData": "0x",
                    "decodedMethod": null,
                    "errorInfo": "",
                    "fromAddress": "0xf326e4de8f66a0bdc0970b79e0924e33c79f1915",
                    "gasUsed": 93,
                    "id": 17,
                    "methodDecoded": false,
                    "operation": "DELEGATECALL",
                    "output": "",
                    "revert": false,
                    "revertMessage": "",
                    "selector": "fallback",
                    "status": true,
                    "value": "0.0004375"
                },
                "nodeType": 0
            },
            "18": {
                "invocation": {
                    "address": "0x7d1afa7b718fb893db30a3abc0cfc608aacfebb0",
                    "callData": "0x00000000000000000000000074de5d4fcbf63e00296fd95d33236b9794016631",
                    "decodedMethod": {
                        "callParams": [
                            {
                                "name": "owner",
                                "type": "address",
                                "value": "0x74de5d4fcbf63e00296fd95d33236b9794016631"
                            }
                        ],
                        "constructorArguments": "",
                        "name": "balanceOf",
                        "returnParams": [
                            {
                                "decimalAvailable": true,
                                "name": "",
                                "type": "uint256",
                                "value": "86,657,077,267,098,186,330"
                            }
                        ],
                        "signature": "balanceOf(address)"
                    },
                    "errorInfo": "",
                    "fromAddress": "0x74de5d4fcbf63e00296fd95d33236b9794016631",
                    "gasUsed": 631,
                    "id": 18,
                    "methodDecoded": true,
                    "operation": "STATICCALL",
                    "output": "0x000000000000000000000000000000000000000000000004b29bc8a542f7325a",
                    "revert": false,
                    "revertMessage": "",
                    "selector": "0x70a08231",
                    "status": true,
                    "value": "0"
                },
                "nodeType": 0
            },
            "19": {
                "invocation": {
                    "address": "0x7d1afa7b718fb893db30a3abc0cfc608aacfebb0",
                    "callData": "0x00000000000000000000000030e3ea2a26dce07a959f7d57c826c91a20e92278000000000000000000000000000000000000000000000004b29bc8a542f7325a",
                    "decodedMethod": {
                        "callParams": [
                            {
                                "name": "to",
                                "type": "address",
                                "value": "0x30e3ea2a26dce07a959f7d57c826c91a20e92278"
                            },
                            {
                                "decimalAvailable": true,
                                "name": "value",
                                "type": "uint256",
                                "value": "86,657,077,267,098,186,330"
                            }
                        ],
                        "constructorArguments": "",
                        "name": "transfer",
                        "returnParams": [
                            {
                                "name": "",
                                "type": "bool",
                                "value": true
                            }
                        ],
                        "signature": "transfer(address,uint256)"
                    },
                    "errorInfo": "",
                    "fromAddress": "0x74de5d4fcbf63e00296fd95d33236b9794016631",
                    "gasUsed": 25572,
                    "id": 19,
                    "methodDecoded": true,
                    "operation": "CALL",
                    "output": "0x0000000000000000000000000000000000000000000000000000000000000001",
                    "revert": false,
                    "revertMessage": "",
                    "selector": "0xa9059cbb",
                    "status": true,
                    "value": "0"
                },
                "nodeType": 0
            },
            "2": {
                "invocation": {
                    "address": "0xdfa7bd39ded0051b2ecc48f7e17f63ecd165cae1",
                    "callData": "0x00000000000000000000000030e3ea2a26dce07a959f7d57c826c91a20e9227800000000000000000000000000000000000000000000000000000000000000000000000000000000000000007d1afa7b718fb893db30a3abc0cfc608aacfebb000000000000000000000000000000000000000000000000000b014d4c6ae28000000000000000000000000000000000000000000000000049a8e6d97b762e48b000000000000000000000000000000000000000000000000000000000000012000000000000000000000000000000000000000000000000000018de76816d800000000000000000000000000f326e4de8f66a0bdc0970b79e0924e33c79f1915000000000000000000000000000000000000000000000000000000000000000000000000000000000000000000000000000000000000000000000000000000c82e95b6c8000000000000000000000000000000000000000000000000000000000000000000000000000000000000000000000000000000000000000000b014d4c6ae28000000000000000000000000000000000000000000000000049a8e6d97b762e48b0000000000000000000000000000000000000000000000000000000000000080000000000000000000000000000000000000000000000000000000000000000180000000000000003b6d0340819f3450da6f110ba6ea52195b3beafa246062deab4991fe000000000000000000000000000000000000000000000000",
                    "decodedMethod": null,
                    "errorInfo": "",
                    "fromAddress": "0x74de5d4fcbf63e00296fd95d33236b9794016631",
                    "gasUsed": 169780,
                    "id": 2,
                    "methodDecoded": false,
                    "operation": "DELEGATECALL",
                    "output": "",
                    "revert": false,
                    "revertMessage": "",
                    "selector": "0x92f5f037",
                    "status": true,
                    "value": "0.05"
                },
                "nodeType": 0
            },
            "20": {
                "event": {
                    "contract": "0x7d1afa7b718fb893db30a3abc0cfc608aacfebb0",
                    "decodedLog": {
                        "name": "Transfer",
                        "params": [
                            {
                                "name": "from",
                                "type": "address",
                                "value": "0x74de5d4fcbf63e00296fd95d33236b9794016631"
                            },
                            {
                                "name": "to",
                                "type": "address",
                                "value": "0x30e3ea2a26dce07a959f7d57c826c91a20e92278"
                            },
                            {
                                "decimalAvailable": true,
                                "name": "value",
                                "type": "uint256",
                                "value": "86,657,077,267,098,186,330"
                            }
                        ],
                        "signature": "Transfer(address,address,uint256)"
                    },
                    "id": 20,
                    "logData": "0x000000000000000000000000000000000000000000000004b29bc8a542f7325a",
                    "logDecoded": true,
                    "operation": "EVENT",
                    "revert": false,
                    "status": true,
                    "topics": [
                        "0xddf252ad1be2c89b69c2b068fc378daa952ba7f163c4a11628f55a4df523b3ef",
                        "0x00000000000000000000000074de5d4fcbf63e00296fd95d33236b9794016631",
                        "0x00000000000000000000000030e3ea2a26dce07a959f7d57c826c91a20e92278"
                    ]
                },
                "nodeType": 1
            },
            "21": {
                "event": {
                    "contract": "0x881d40237659c251811cec9c364ef91dc08d300c",
                    "decodedLog": {
                        "name": "Swap",
                        "params": [
                            {
                                "name": "aggregatorId",
                                "type": "string",
                                "value": "0xbd5c436f8c83379009c1962310b8347e561d1900906d3fe4075b1596f8955f88"
                            },
                            {
                                "name": "sender",
                                "type": "address",
                                "value": "0x30e3ea2a26dce07a959f7d57c826c91a20e92278"
                            }
                        ],
                        "signature": "Swap(string,address)"
                    },
                    "id": 21,
                    "logData": "0x",
                    "logDecoded": true,
                    "operation": "EVENT",
                    "revert": false,
                    "status": true,
                    "topics": [
                        "0xbeee1e6e7fe307ddcf84b0a16137a4430ad5e2480fc4f4a8e250ab56ccd7630d",
                        "0xbd5c436f8c83379009c1962310b8347e561d1900906d3fe4075b1596f8955f88",
                        "0x00000000000000000000000030e3ea2a26dce07a959f7d57c826c91a20e92278"
                    ]
                },
                "nodeType": 1
            },
            "3": {
                "invocation": {
                    "address": "0x1111111254fb6c44bac0bed2854e76f90643097d",
                    "callData": "0x000000000000000000000000000000000000000000000000000000000000000000000000000000000000000000000000000000000000000000b014d4c6ae28000000000000000000000000000000000000000000000000049a8e6d97b762e48b0000000000000000000000000000000000000000000000000000000000000080000000000000000000000000000000000000000000000000000000000000000180000000000000003b6d0340819f3450da6f110ba6ea52195b3beafa246062deab4991fe",
                    "decodedMethod": {
                        "callParams": [
                            {
                                "name": "srcToken",
                                "type": "address",
                                "value": "0x0000000000000000000000000000000000000000"
                            },
                            {
                                "name": "amount",
                                "type": "uint256",
                                "value": "49,562,500,000,000,000"
                            },
                            {
                                "name": "minReturn",
                                "type": "uint256",
                                "value": "84,923,935,721,756,222,603"
                            },
                            {
                                "name": "pools",
                                "type": "bytes32[]",
                                "value": [
                                    "0x80000000000000003b6d0340819f3450da6f110ba6ea52195b3beafa246062de"
                                ]
                            }
                        ],
                        "constructorArguments": "",
                        "name": "unoswap",
                        "returnParams": [
                            {
                                "name": "returnAmount",
                                "type": "uint256",
                                "value": "86,657,077,267,098,186,330"
                            }
                        ],
                        "signature": "unoswap(address,uint256,uint256,bytes32[])"
                    },
                    "errorInfo": "",
                    "fromAddress": "0x74de5d4fcbf63e00296fd95d33236b9794016631",
                    "gasUsed": 115493,
                    "id": 3,
                    "methodDecoded": true,
                    "operation": "CALL",
                    "output": "0x000000000000000000000000000000000000000000000004b29bc8a542f7325a",
                    "revert": false,
                    "revertMessage": "",
                    "selector": "0x2e95b6c8",
                    "status": true,
                    "value": "0.0495625"
                },
                "nodeType": 0
            },
            "4": {
                "invocation": {
                    "address": "0xc02aaa39b223fe8d0a0e5c4f27ead9083c756cc2",
                    "callData": "0x",
                    "decodedMethod": {
                        "callParams": [],
                        "constructorArguments": "",
                        "name": "deposit",
                        "returnParams": [],
                        "signature": "deposit()"
                    },
                    "errorInfo": "",
                    "fromAddress": "0x1111111254fb6c44bac0bed2854e76f90643097d",
                    "gasUsed": 23974,
                    "id": 4,
                    "methodDecoded": true,
                    "operation": "CALL",
                    "output": "",
                    "revert": false,
                    "revertMessage": "",
                    "selector": "0xd0e30db0",
                    "status": true,
                    "value": "0.0495625"
                },
                "nodeType": 0
            },
            "5": {
                "event": {
                    "contract": "0xc02aaa39b223fe8d0a0e5c4f27ead9083c756cc2",
                    "decodedLog": {
                        "name": "Deposit",
                        "params": [
                            {
                                "name": "dst",
                                "type": "address",
                                "value": "0x1111111254fb6c44bac0bed2854e76f90643097d"
                            },
                            {
                                "name": "wad",
                                "type": "uint256",
                                "value": "49,562,500,000,000,000"
                            }
                        ],
                        "signature": "Deposit(address,uint256)"
                    },
                    "id": 5,
                    "logData": "0x00000000000000000000000000000000000000000000000000b014d4c6ae2800",
                    "logDecoded": true,
                    "operation": "EVENT",
                    "revert": false,
                    "status": true,
                    "topics": [
                        "0xe1fffcc4923d04b559f4d29a8bfc6cda04eb5b0d3c460751c2402c5c5cc9109c",
                        "0x0000000000000000000000001111111254fb6c44bac0bed2854e76f90643097d"
                    ]
                },
                "nodeType": 1
            },
            "6": {
                "invocation": {
                    "address": "0xc02aaa39b223fe8d0a0e5c4f27ead9083c756cc2",
                    "callData": "0x000000000000000000000000819f3450da6f110ba6ea52195b3beafa246062de00000000000000000000000000000000000000000000000000b014d4c6ae2800",
                    "decodedMethod": {
                        "callParams": [
                            {
                                "name": "dst",
                                "type": "address",
                                "value": "0x819f3450da6f110ba6ea52195b3beafa246062de"
                            },
                            {
                                "decimalAvailable": true,
                                "name": "wad",
                                "type": "uint256",
                                "value": "49,562,500,000,000,000"
                            }
                        ],
                        "constructorArguments": "",
                        "name": "transfer",
                        "returnParams": [
                            {
                                "name": "",
                                "type": "bool",
                                "value": true
                            }
                        ],
                        "signature": "transfer(address,uint256)"
                    },
                    "errorInfo": "",
                    "fromAddress": "0x1111111254fb6c44bac0bed2854e76f90643097d",
                    "gasUsed": 8062,
                    "id": 6,
                    "methodDecoded": true,
                    "operation": "CALL",
                    "output": "0x0000000000000000000000000000000000000000000000000000000000000001",
                    "revert": false,
                    "revertMessage": "",
                    "selector": "0xa9059cbb",
                    "status": true,
                    "value": "0"
                },
                "nodeType": 0
            },
            "7": {
                "event": {
                    "contract": "0xc02aaa39b223fe8d0a0e5c4f27ead9083c756cc2",
                    "decodedLog": {
                        "name": "Transfer",
                        "params": [
                            {
                                "name": "src",
                                "type": "address",
                                "value": "0x1111111254fb6c44bac0bed2854e76f90643097d"
                            },
                            {
                                "name": "dst",
                                "type": "address",
                                "value": "0x819f3450da6f110ba6ea52195b3beafa246062de"
                            },
                            {
                                "decimalAvailable": true,
                                "name": "wad",
                                "type": "uint256",
                                "value": "49,562,500,000,000,000"
                            }
                        ],
                        "signature": "Transfer(address,address,uint256)"
                    },
                    "id": 7,
                    "logData": "0x00000000000000000000000000000000000000000000000000b014d4c6ae2800",
                    "logDecoded": true,
                    "operation": "EVENT",
                    "revert": false,
                    "status": true,
                    "topics": [
                        "0xddf252ad1be2c89b69c2b068fc378daa952ba7f163c4a11628f55a4df523b3ef",
                        "0x0000000000000000000000001111111254fb6c44bac0bed2854e76f90643097d",
                        "0x000000000000000000000000819f3450da6f110ba6ea52195b3beafa246062de"
                    ]
                },
                "nodeType": 1
            },
            "8": {
                "invocation": {
                    "address": "0x819f3450da6f110ba6ea52195b3beafa246062de",
                    "callData": "0x",
                    "decodedMethod": {
                        "callParams": [],
                        "constructorArguments": "",
                        "name": "getReserves",
                        "returnParams": [
                            {
                                "name": "_reserve0",
                                "type": "uint112",
                                "value": "634,242,509,225,098,402,624,367"
                            },
                            {
                                "name": "_reserve1",
                                "type": "uint112",
                                "value": "361,609,915,335,885,444,343"
                            },
                            {
                                "name": "_blockTimestampLast",
                                "type": "uint32",
                                "value": "1,664,206,163"
                            }
                        ],
                        "signature": "getReserves()"
                    },
                    "errorInfo": "",
                    "fromAddress": "0x1111111254fb6c44bac0bed2854e76f90643097d",
                    "gasUsed": 2504,
                    "id": 8,
                    "methodDecoded": true,
                    "operation": "STATICCALL",
                    "output": "0x00000000000000000000000000000000000000000000864e5af6336501c8736f0000000000000000000000000000000000000000000000139a587e1b4687d4f7000000000000000000000000000000000000000000000000000000006331c553",
                    "revert": false,
                    "revertMessage": "",
                    "selector": "0x0902f1ac",
                    "status": true,
                    "value": "0"
                },
                "nodeType": 0
            },
            "9": {
                "invocation": {
                    "address": "0x819f3450da6f110ba6ea52195b3beafa246062de",
                    "callData": "0x000000000000000000000000000000000000000000000004b29bc8a542f7325a000000000000000000000000000000000000000000000000000000000000000000000000000000000000000074de5d4fcbf63e00296fd95d33236b979401663100000000000000000000000000000000000000000000000000000000000000800000000000000000000000000000000000000000000000000000000000000000",
                    "decodedMethod": {
                        "callParams": [
                            {
                                "name": "amount0Out",
                                "type": "uint256",
                                "value": "86,657,077,267,098,186,330"
                            },
                            {
                                "name": "amount1Out",
                                "type": "uint256",
                                "value": "0"
                            },
                            {
                                "name": "to",
                                "type": "address",
                                "value": "0x74de5d4fcbf63e00296fd95d33236b9794016631"
                            },
                            {
                                "name": "data",
                                "type": "bytes",
                                "value": "0x"
                            }
                        ],
                        "constructorArguments": "",
                        "name": "swap",
                        "returnParams": [],
                        "signature": "swap(uint256,uint256,address,bytes)"
                    },
                    "errorInfo": "",
                    "fromAddress": "0x1111111254fb6c44bac0bed2854e76f90643097d",
                    "gasUsed": 67360,
                    "id": 9,
                    "methodDecoded": true,
                    "operation": "CALL",
                    "output": "",
                    "revert": false,
                    "revertMessage": "",
                    "selector": "0x022c0d9f",
                    "status": true,
                    "value": "0"
                },
                "nodeType": 0
            }
        },
        "gasFlame": [
            {
                "children": [
                    {
                        "children": [
                            {
                                "children": [],
                                "depth": 0,
                                "name": "Initial Gas",
                                "value": 25728
                            },
                            {
                                "children": [
                                    {
                                        "children": [
                                            {
                                                "children": [
                                                    {
                                                        "children": [
                                                            {
                                                                "children": [],
                                                                "depth": 4,
                                                                "name": "deposit",
                                                                "value": 23974
                                                            },
                                                            {
                                                                "children": [],
                                                                "depth": 4,
                                                                "name": "transfer",
                                                                "value": 8062
                                                            },
                                                            {
                                                                "children": [],
                                                                "depth": 4,
                                                                "name": "getReserves",
                                                                "value": 2504
                                                            },
                                                            {
                                                                "children": [
                                                                    {
                                                                        "children": [],
                                                                        "depth": 5,
                                                                        "name": "transfer",
                                                                        "value": 32372
                                                                    },
                                                                    {
                                                                        "children": [],
                                                                        "depth": 5,
                                                                        "name": "balanceOf",
                                                                        "value": 631
                                                                    },
                                                                    {
                                                                        "children": [],
                                                                        "depth": 5,
                                                                        "name": "balanceOf",
                                                                        "value": 534
                                                                    }
                                                                ],
                                                                "depth": 4,
                                                                "name": "swap",
                                                                "value": 67360
                                                            }
                                                        ],
                                                        "depth": 3,
                                                        "name": "unoswap",
                                                        "value": 115493
                                                    },
                                                    {
                                                        "children": [
                                                            {
                                                                "children": [],
                                                                "depth": 4,
                                                                "name": "fallback",
                                                                "value": 93
                                                            }
                                                        ],
                                                        "depth": 3,
                                                        "name": "fallback",
                                                        "value": 4918
                                                    },
                                                    {
                                                        "children": [],
                                                        "depth": 3,
                                                        "name": "balanceOf",
                                                        "value": 631
                                                    },
                                                    {
                                                        "children": [],
                                                        "depth": 3,
                                                        "name": "transfer",
                                                        "value": 25572
                                                    }
                                                ],
                                                "depth": 2,
                                                "name": "0x92f5f037",
                                                "value": 169780
                                            }
                                        ],
                                        "depth": 1,
                                        "name": "swap",
                                        "value": 174904
                                    }
                                ],
                                "depth": 0,
                                "name": "Executed Gas",
                                "value": 200687
                            }
                        ],
                        "depth": -1,
                        "name": "Actual Gas Used",
                        "value": 181132
                    },
                    {
                        "children": [],
                        "depth": -1,
                        "name": "Refunded Gas",
                        "value": 45283
                    }
                ],
                "depth": -2,
                "name": "Total Gas",
                "value": 226415
            }
        ],
        "isConfirmed": true,
        "mainTrace": [
            {
                "children": [
                    {
                        "children": [
                            {
                                "children": [
                                    {
                                        "children": [
                                            {
                                                "children": [
                                                    {
                                                        "children": [
                                                            {
                                                                "children": [],
                                                                "depth": 5,
                                                                "id": 5,
                                                                "order": 5
                                                            }
                                                        ],
                                                        "depth": 4,
                                                        "id": 4,
                                                        "order": 4
                                                    },
                                                    {
                                                        "children": [
                                                            {
                                                                "children": [],
                                                                "depth": 5,
                                                                "id": 7,
                                                                "order": 7
                                                            }
                                                        ],
                                                        "depth": 4,
                                                        "id": 6,
                                                        "order": 6
                                                    },
                                                    {
                                                        "children": [],
                                                        "depth": 4,
                                                        "id": 8,
                                                        "order": 8
                                                    },
                                                    {
                                                        "children": [
                                                            {
                                                                "children": [
                                                                    {
                                                                        "children": [],
                                                                        "depth": 6,
                                                                        "id": 11,
                                                                        "order": 11
                                                                    }
                                                                ],
                                                                "depth": 5,
                                                                "id": 10,
                                                                "order": 10
                                                            },
                                                            {
                                                                "children": [],
                                                                "depth": 5,
                                                                "id": 12,
                                                                "order": 12
                                                            },
                                                            {
                                                                "children": [],
                                                                "depth": 5,
                                                                "id": 13,
                                                                "order": 13
                                                            },
                                                            {
                                                                "children": [],
                                                                "depth": 5,
                                                                "id": 14,
                                                                "order": 14
                                                            },
                                                            {
                                                                "children": [],
                                                                "depth": 5,
                                                                "id": 15,
                                                                "order": 15
                                                            }
                                                        ],
                                                        "depth": 4,
                                                        "id": 9,
                                                        "order": 9
                                                    }
                                                ],
                                                "depth": 3,
                                                "id": 3,
                                                "order": 3
                                            },
                                            {
                                                "children": [
                                                    {
                                                        "children": [],
                                                        "depth": 4,
                                                        "id": 17,
                                                        "order": 17
                                                    }
                                                ],
                                                "depth": 3,
                                                "id": 16,
                                                "order": 16
                                            },
                                            {
                                                "children": [],
                                                "depth": 3,
                                                "id": 18,
                                                "order": 18
                                            },
                                            {
                                                "children": [
                                                    {
                                                        "children": [],
                                                        "depth": 4,
                                                        "id": 20,
                                                        "order": 20
                                                    }
                                                ],
                                                "depth": 3,
                                                "id": 19,
                                                "order": 19
                                            }
                                        ],
                                        "depth": 2,
                                        "id": 2,
                                        "order": 2
                                    }
                                ],
                                "depth": 1,
                                "id": 1,
                                "order": 1
                            },
                            {
                                "children": [],
                                "depth": 1,
                                "id": 21,
                                "order": 21
                            }
                        ],
                        "depth": 0,
                        "id": 0,
                        "order": 0
                    }
                ],
                "depth": -1,
                "id": -1,
                "order": -1
            }
        ],
        "mainTraceNodeCount": 22,
        "parentIdMap": {
            "0": -1,
            "1": 0,
            "10": 9,
            "11": 10,
            "12": 9,
            "13": 9,
            "14": 9,
            "15": 9,
            "16": 2,
            "17": 16,
            "18": 2,
            "19": 2,
            "2": 1,
            "20": 19,
            "21": 0,
            "3": 2,
            "4": 3,
            "5": 4,
            "6": 3,
            "7": 6,
            "8": 3,
            "9": 3
        },
        "tidyTrace": [
            {
                "children": [
                    {
                        "children": [
                            {
                                "children": [
                                    {
                                        "children": [
                                            {
                                                "children": [
                                                    {
                                                        "children": [
                                                            {
                                                                "children": [],
                                                                "depth": 5,
                                                                "id": 5,
                                                                "order": 5
                                                            }
                                                        ],
                                                        "depth": 4,
                                                        "id": 4,
                                                        "order": 4
                                                    },
                                                    {
                                                        "children": [
                                                            {
                                                                "children": [],
                                                                "depth": 5,
                                                                "id": 7,
                                                                "order": 7
                                                            }
                                                        ],
                                                        "depth": 4,
                                                        "id": 6,
                                                        "order": 6
                                                    },
                                                    {
                                                        "children": [
                                                            {
                                                                "children": [
                                                                    {
                                                                        "children": [],
                                                                        "depth": 6,
                                                                        "id": 11,
                                                                        "order": 11
                                                                    }
                                                                ],
                                                                "depth": 5,
                                                                "id": 10,
                                                                "order": 10
                                                            },
                                                            {
                                                                "children": [],
                                                                "depth": 5,
                                                                "id": 14,
                                                                "order": 14
                                                            },
                                                            {
                                                                "children": [],
                                                                "depth": 5,
                                                                "id": 15,
                                                                "order": 15
                                                            }
                                                        ],
                                                        "depth": 4,
                                                        "id": 9,
                                                        "order": 9
                                                    }
                                                ],
                                                "depth": 3,
                                                "id": 3,
                                                "order": 3
                                            },
                                            {
                                                "children": [
                                                    {
                                                        "children": [],
                                                        "depth": 4,
                                                        "id": 17,
                                                        "order": 17
                                                    }
                                                ],
                                                "depth": 3,
                                                "id": 16,
                                                "order": 16
                                            },
                                            {
                                                "children": [
                                                    {
                                                        "children": [],
                                                        "depth": 4,
                                                        "id": 20,
                                                        "order": 20
                                                    }
                                                ],
                                                "depth": 3,
                                                "id": 19,
                                                "order": 19
                                            }
                                        ],
                                        "depth": 2,
                                        "id": 2,
                                        "order": 2
                                    }
                                ],
                                "depth": 1,
                                "id": 1,
                                "order": 1
                            },
                            {
                                "children": [],
                                "depth": 1,
                                "id": 21,
                                "order": 21
                            }
                        ],
                        "depth": 0,
                        "id": 0,
                        "order": 0
                    }
                ],
                "depth": -1,
                "id": -1,
                "order": -1
            }
        ],
        "tidyTraceNodeCount": 18
    },
    "state_change": {
        "stateChanges": [
            {
                "address": "0x7d1afa7b718fb893db30a3abc0cfc608aacfebb0",
                "erc": "ERC-20",
                "slots": [
                    {
                        "current": "0x000000000000000000000000000000000000000000008649a85a6abfbed14115",
                        "key": "0x30b42b6465edfb5d785f640df67a445d9d11a09fa831f4afd124091188f0ec18",
                        "prev": "0x00000000000000000000000000000000000000000000864e5af6336501c8736f"
                    },
                    {
                        "current": "0x000000000000000000000000000000000000000000000004b29bc8a542f7325a",
                        "key": "0x8cf97948f637a5b67f4038d0774d8a9972a975d7d068e870e21010a24077d89e",
                        "prev": "0x0000000000000000000000000000000000000000000000000000000000000000"
                    }
                ],
                "storageVariables": [
                    {
                        "name": "_balances",
                        "type": "mapping(address => uint256)",
                        "value": {
                            "pairs": [
                                {
                                    "key": "0x30e3ea2a26dce07a959f7d57c826c91a20e92278",
                                    "value": {
                                        "current": "86657077267098186330",
                                        "prev": "0",
                                        "typeTag": 1
                                    }
                                },
                                {
                                    "key": "0x819f3450da6f110ba6ea52195b3beafa246062de",
                                    "value": {
                                        "current": "634155852147831304438037",
                                        "prev": "634242509225098402624367",
                                        "typeTag": 1
                                    }
                                }
                            ],
                            "typeTag": 4
                        }
                    }
                ]
            },
            {
                "address": "0x819f3450da6f110ba6ea52195b3beafa246062de",
                "erc": "ERC-20",
                "slots": [
                    {
                        "current": "0x000000000000000000000000000000005d4a858ad211c4cd0494ad4311896b35",
                        "key": "0x0000000000000000000000000000000000000000000000000000000000000009",
                        "prev": "0x000000000000000000000000000000005d4a75c766b8ae7ff5b5f1839bd0563d"
                    },
                    {
                        "current": "0x000000000000000000000000009911f80c8068b6012225f5efa513cc9d3cf78b",
                        "key": "0x000000000000000000000000000000000000000000000000000000000000000a",
                        "prev": "0x000000000000000000000000009911f5288ec3e9abaf7a02ac8545bee6331d4f"
                    },
                    {
                        "current": "0x6331c5bf0000000000139b0892f00d35fcf7000000008649a85a6abfbed14115",
                        "key": "0x0000000000000000000000000000000000000000000000000000000000000008",
                        "prev": "0x6331c5530000000000139a587e1b4687d4f700000000864e5af6336501c8736f"
                    }
                ],
                "storageVariables": [
                    {
                        "name": "reserve0",
                        "type": "uint112",
                        "value": {
                            "current": "634155852147831304438037",
                            "prev": "634242509225098402624367",
                            "typeTag": 1
                        }
                    },
                    {
                        "name": "reserve1",
                        "type": "uint112",
                        "value": {
                            "current": "361659477835885444343",
                            "prev": "361609915335885444343",
                            "typeTag": 1
                        }
                    },
                    {
                        "name": "blockTimestampLast",
                        "type": "uint32",
                        "value": {
                            "current": "1664206271",
                            "prev": "1664206163",
                            "typeTag": 1
                        }
                    },
                    {
                        "name": "price0CumulativeLast",
                        "type": "uint256",
                        "value": {
                            "current": "124005142134505799232369456093288033077",
                            "prev": "124004822415647458413404224793168860733",
                            "typeTag": 1
                        }
                    },
                    {
                        "name": "price1CumulativeLast",
                        "type": "uint256",
                        "value": {
                            "current": "3413579330880495395373469952009143048956868491",
                            "prev": "3413578347326320463248739243430889182867955023",
                            "typeTag": 1
                        }
                    }
                ]
            },
            {
                "address": "0xc02aaa39b223fe8d0a0e5c4f27ead9083c756cc2",
                "erc": "ERC-20",
                "slots": [
                    {
                        "current": "0x0000000000000000000000000000000000000000000000139b0892f00d35fcf7",
                        "key": "0xacf950720d90965f4f3af49c5c6ef227acd601326d701fa496d86420fdb445b2",
                        "prev": "0x0000000000000000000000000000000000000000000000139a587e1b4687d4f7"
                    }
                ],
                "storageVariables": [
                    {
                        "name": "balanceOf",
                        "type": "mapping(address => uint256)",
                        "value": {
                            "pairs": [
                                {
                                    "key": "0x819f3450da6f110ba6ea52195b3beafa246062de",
                                    "value": {
                                        "current": "361659477835885444343",
                                        "prev": "361609915335885444343",
                                        "typeTag": 1
                                    }
                                }
                            ],
                            "typeTag": 4
                        }
                    }
                ]
            }
        ]
    }
}