{
    "balance_change": {
        "balanceChanges": [
            {
                "account": "0xfc266fe07fa03cd942096af5a793b8ebe4be38c7",
                "assets": [
                    {
                        "address": "0xc555d625828c4527d477e595ff1dd5801b4a600e",
                        "amount": "64.923609865935497218",
                        "iconUrl": "",
                        "isERC1155": false,
                        "isERC721": false,
                        "sign": false,
                        "value": "14.40705426"
                    }
                ]
            },
            {
                "account": "0x411e31451154f9be1a447955e2d0887b0a8e3e27",
                "assets": [
                    {
                        "address": "0xc555d625828c4527d477e595ff1dd5801b4a600e",
                        "amount": "64.923609865935497218",
                        "iconUrl": "",
                        "isERC1155": false,
                        "isERC721": false,
                        "sign": true,
                        "value": "14.40705426"
                    }
                ]
            }
        ]
    },
    "profile": {
        "basic_info": {
            "baseFee": "10.295699367",
            "blockNumber": 20384485,
            "callData": "0xa9059cbb000000000000000000000000411e31451154f9be1a447955e2d0887b0a8e3e2700000000000000000000000000000000000000000000000384feff316b21a803",
            "debugEnable": true,
            "errorInfo": "",
            "eventCount": 1,
            "feeRecipient": "0x4838b106fce9647bdf1e7877bf73ce8b0bad5f97",
            "formatValue": "0",
            "gasLimit": 89448,
            "gasPrice": "11.642282373",
            "gasUsed": 54084,
            "intTxnCount": 1,
            "internalRevert": false,
            "internalRevertMessage": "",
            "isContractCreation": false,
            "isFlashloan": false,
            "maxFee": "11.659531725",
            "nonce": 4,
            "overwritedBlockNumber": -1,
            "priorityFee": "1.346583006",
            "receiver": "0xc555d625828c4527d477e595ff1dd5801b4a600e",
            "revertMessage": "",
            "sender": "0xfc266fe07fa03cd942096af5a793b8ebe4be38c7",
            "simulationEnable": true,
            "sourceTxnHash": "0xa91c2a51b2c091473cbbc0ca7672479ca7e03f88b9a8b318e4f27de37a5953da",
            "status": true,
            "timestamp": "2024-07-25T15:33:35Z",
            "transactionFee": "0.000629661199861332",
            "txnHash": "0xa91c2a51b2c091473cbbc0ca7672479ca7e03f88b9a8b318e4f27de37a5953da",
            "txnIndex": 116,
            "type": 2,
            "value": "0"
        },
        "fund_flow": [
            {
                "amount": "64.923609865935497218",
                "from": "0xfc266fe07fa03cd942096af5a793b8ebe4be38c7",
                "id": 1,
                "isERC1155": false,
                "isERC721": false,
                "isReverted": false,
                "order": 1,
                "to": "0x411e31451154f9be1a447955e2d0887b0a8e3e27",
                "token": "0xc555d625828c4527d477e595ff1dd5801b4a600e"
            }
        ],
        "token_infos": [
            {
                "address": "0xc02aaa39b223fe8d0a0e5c4f27ead9083c756cc2",
                "decimals": 18
            },
            {
                "address": "0xc555d625828c4527d477e595ff1dd5801b4a600e",
                "decimals": 18
            },
            {
                "address": "0xeeeeeeeeeeeeeeeeeeeeeeeeeeeeeeeeeeeeeeee",
                "decimals": 18
            }
        ]
    },
    "address_label": {
        "labels": [
            {
                "address": "0x0000000000000000000000000000000000000004",
                "label": "Precompiled"
            },
            {
                "address": "0xeeeeeeeeeeeeeeeeeeeeeeeeeeeeeeeeeeeeeeee",
                "label": "Ether"
            },
            {
                "address": "0x411e31451154f9be1a447955e2d0887b0a8e3e27",
                "label": "BYBIT"
            },
            {
                "address": "0xc555d625828c4527d477e595ff1dd5801b4a600e",
                "label": "MON Protocol: MON Token"
            },
            {
                "address": "0xd81acd9d8e1fc645d679905549b2b76def4adde5",
                "label": "Mon"
            },
            {
                "address": "0x0000000000000000000000000000000000000001",
                "label": "Precompiled"
            },
            {
                "address": "0x0000000000000000000000000000000000000002",
                "label": "Precompiled"
            },
            {
                "address": "0x0000000000000000000000000000000000000003",
                "label": "Precompiled"
            }
        ]
    },
    "trace": {
        "accountLabels": null,
        "dataMap": {
            "-1": {
                "invocation": {
                    "address": "0xfc266fe07fa03cd942096af5a793b8ebe4be38c7",
                    "callData": "",
                    "decodedMethod": null,
                    "errorInfo": "",
                    "fromAddress": "",
                    "gasUsed": 0,
                    "id": -1,
                    "methodDecoded": false,
                    "operation": "",
                    "output": "",
                    "revert": false,
                    "revertMessage": "",
                    "selector": "",
                    "status": false,
                    "value": ""
                },
                "nodeType": 0
            },
            "0": {
                "invocation": {
                    "address": "0xc555d625828c4527d477e595ff1dd5801b4a600e",
                    "callData": "0x000000000000000000000000411e31451154f9be1a447955e2d0887b0a8e3e2700000000000000000000000000000000000000000000000384feff316b21a803",
                    "decodedMethod": {
                        "callParams": [
                            {
                                "name": "to",
                                "type": "address",
                                "value": "0x411e31451154f9be1a447955e2d0887b0a8e3e27"
                            },
                            {
                                "decimalAvailable": true,
                                "name": "value",
                                "type": "uint256",
                                "value": "64,923,609,865,935,497,219"
                            }
                        ],
                        "constructorArguments": "",
                        "name": "transfer",
                        "returnParams": [
                            {
                                "name": "",
                                "type": "bool",
                                "value": true
                            }
                        ],
                        "signature": "transfer(address,uint256)"
                    },
                    "errorInfo": "",
                    "fromAddress": "0xfc266fe07fa03cd942096af5a793b8ebe4be38c7",
                    "gasUsed": 54084,
                    "id": 0,
                    "methodDecoded": true,
                    "operation": "CALL",
                    "output": "0x0000000000000000000000000000000000000000000000000000000000000001",
                    "revert": false,
                    "revertMessage": "",
                    "selector": "0xa9059cbb",
                    "status": true,
                    "value": "0"
                },
                "nodeType": 0
            },
            "1": {
                "invocation": {
                    "address": "0xd81acd9d8e1fc645d679905549b2b76def4adde5",
                    "callData": "0x000000000000000000000000411e31451154f9be1a447955e2d0887b0a8e3e2700000000000000000000000000000000000000000000000384feff316b21a803",
                    "decodedMethod": {
                        "callParams": [
                            {
                                "name": "to",
                                "type": "address",
                                "value": "0x411e31451154f9be1a447955e2d0887b0a8e3e27"
                            },
                            {
                                "decimalAvailable": true,
                                "name": "value",
                                "type": "uint256",
                                "value": "64,923,609,865,935,497,219"
                            }
                        ],
                        "constructorArguments": "",
                        "name": "transfer",
                        "returnParams": [
                            {
                                "name": "",
                                "type": "bool",
                                "value": true
                            }
                        ],
                        "signature": "transfer(address,uint256)"
                    },
                    "errorInfo": "",
                    "fromAddress": "0xc555d625828c4527d477e595ff1dd5801b4a600e",
                    "gasUsed": 32265,
                    "id": 1,
                    "methodDecoded": true,
                    "operation": "DELEGATECALL",
                    "output": "0x0000000000000000000000000000000000000000000000000000000000000001",
                    "revert": false,
                    "revertMessage": "",
                    "selector": "0xa9059cbb",
                    "status": true,
                    "value": "0"
                },
                "nodeType": 0
            },
            "2": {
                "event": {
                    "contract": "0xc555d625828c4527d477e595ff1dd5801b4a600e",
                    "decodedLog": {
                        "name": "Transfer",
                        "params": [
                            {
                                "name": "from",
                                "type": "address",
                                "value": "0xfc266fe07fa03cd942096af5a793b8ebe4be38c7"
                            },
                            {
                                "name": "to",
                                "type": "address",
                                "value": "0x411e31451154f9be1a447955e2d0887b0a8e3e27"
                            },
                            {
                                "decimalAvailable": true,
                                "name": "value",
                                "type": "uint256",
                                "value": "64,923,609,865,935,497,219"
                            }
                        ],
                        "signature": "Transfer(address,address,uint256)"
                    },
                    "id": 2,
                    "logData": "0x00000000000000000000000000000000000000000000000384feff316b21a803",
                    "logDecoded": true,
                    "operation": "EVENT",
                    "revert": false,
                    "status": true,
                    "topics": [
                        "0xddf252ad1be2c89b69c2b068fc378daa952ba7f163c4a11628f55a4df523b3ef",
                        "0x000000000000000000000000fc266fe07fa03cd942096af5a793b8ebe4be38c7",
                        "0x000000000000000000000000411e31451154f9be1a447955e2d0887b0a8e3e27"
                    ]
                },
                "nodeType": 1
            }
        },
        "gasFlame": [
            {
                "children": [
                    {
                        "children": [
                            {
                                "children": [],
                                "depth": 0,
                                "name": "Initial Gas",
                                "value": 21668
                            },
                            {
                                "children": [
                                    {
                                        "children": [],
                                        "depth": 1,
                                        "name": "transfer",
                                        "value": 32265
                                    }
                                ],
                                "depth": 0,
                                "name": "Executed Gas",
                                "value": 37216
                            }
                        ],
                        "depth": -1,
                        "name": "Actual Gas Used",
                        "value": 54084
                    },
                    {
                        "children": [],
                        "depth": -1,
                        "name": "Refunded Gas",
                        "value": 4800
                    }
                ],
                "depth": -2,
                "name": "Total Gas",
                "value": 58884
            }
        ],
        "isConfirmed": true,
        "mainTrace": [
            {
                "children": [
                    {
                        "children": [
                            {
                                "children": [
                                    {
                                        "children": [],
                                        "depth": 2,
                                        "id": 2,
                                        "order": 2
                                    }
                                ],
                                "depth": 1,
                                "id": 1,
                                "order": 1
                            }
                        ],
                        "depth": 0,
                        "id": 0,
                        "order": 0
                    }
                ],
                "depth": -1,
                "id": -1,
                "order": -1
            }
        ],
        "mainTraceNodeCount": 3,
        "parentIdMap": {
            "0": -1,
            "1": 0,
            "2": 1
        },
        "tidyTrace": [
            {
                "children": [
                    {
                        "children": [
                            {
                                "children": [
                                    {
                                        "children": [],
                                        "depth": 2,
                                        "id": 2,
                                        "order": 2
                                    }
                                ],
                                "depth": 1,
                                "id": 1,
                                "order": 1
                            }
                        ],
                        "depth": 0,
                        "id": 0,
                        "order": 0
                    }
                ],
                "depth": -1,
                "id": -1,
                "order": -1
            }
        ],
        "tidyTraceNodeCount": 3
    },
    "state_change": {
        "stateChanges": [
            {
                "address": "0xc555d625828c4527d477e595ff1dd5801b4a600e",
                "erc": "ERC-20",
                "slots": [
                    {
                        "current": "0x0000000000000000000000000000000000000000000000000000000000000000",
                        "key": "0x9b912c75d7e675873416bc5ddd66aca0ad21a2484e958b432c751f1437e381f5",
                        "prev": "0x00000000000000000000000000000000000000000000000384feff316b21a803"
                    },
                    {
                        "current": "0x00000000000000000000000000000000000000000000000384feff316b21a803",
                        "key": "0xc35fc3a8991497c56b03ba979c257cb5306b014e8762299e0d8418fdbecf87e5",
                        "prev": "0x0000000000000000000000000000000000000000000000000000000000000000"
                    }
                ],
                "storageVariables": []
            }
        ]
    }
}