{
    "balance_change": {
        "balanceChanges": [
            {
                "account": "0x8900989032de7cb45861084c58e74a0ee6afa33c",
                "assets": [
                    {
                        "address": "0xfb2f26f266fb2805a387230f2aa0a331b4d96fba",
                        "amount": "2,500.000000000000090495",
                        "iconUrl": "",
                        "isERC1155": false,
                        "isERC721": false,
                        "sign": false,
                        "value": ""
                    }
                ]
            },
            {
                "account": "0x0d0707963952f2fba59dd06f2b425ace40b492fe",
                "assets": [
                    {
                        "address": "0xfb2f26f266fb2805a387230f2aa0a331b4d96fba",
                        "amount": "2,500.000000000000090495",
                        "iconUrl": "",
                        "isERC1155": false,
                        "isERC721": false,
                        "sign": true,
                        "value": ""
                    }
                ]
            }
        ]
    },
    "profile": {
        "basic_info": {
            "baseFee": "",
            "blockNumber": 10216671,
            "callData": "0xa9059cbb0000000000000000000000000d0707963952f2fba59dd06f2b425ace40b492fe0000000000000000000000000000000000000000000000878678326eac91617f",
            "debugEnable": true,
            "errorInfo": "",
            "eventCount": 1,
            "feeRecipient": "0xea674fdde714fd979de3edf0f56aa9716b898ec8",
            "formatValue": "0",
            "gasLimit": 110000,
            "gasPrice": "16.0004",
            "gasUsed": 22110,
            "intTxnCount": 0,
            "internalRevert": false,
            "internalRevertMessage": "",
            "isContractCreation": false,
            "isFlashloan": false,
            "maxFee": "",
            "nonce": 0,
            "overwritedBlockNumber": -1,
            "priorityFee": "",
            "receiver": "0xfb2f26f266fb2805a387230f2aa0a331b4d96fba",
            "revertMessage": "",
            "sender": "0x8900989032de7cb45861084c58e74a0ee6afa33c",
            "simulationEnable": true,
            "sourceTxnHash": "0xa933e8262478bdbbd1636827f249e29f13c883be730534270f4d3d62f947d821",
            "status": true,
            "timestamp": "2020-06-07T05:05:36Z",
            "transactionFee": "0.000353768844",
            "txnHash": "0xa933e8262478bdbbd1636827f249e29f13c883be730534270f4d3d62f947d821",
            "txnIndex": 136,
            "type": 0,
            "value": "0"
        },
        "fund_flow": [
            {
                "amount": "2,500.000000000000090495",
                "from": "0x8900989032de7cb45861084c58e74a0ee6afa33c",
                "id": 1,
                "isERC1155": false,
                "isERC721": false,
                "isReverted": false,
                "order": 1,
                "to": "0x0d0707963952f2fba59dd06f2b425ace40b492fe",
                "token": "0xfb2f26f266fb2805a387230f2aa0a331b4d96fba"
            }
        ],
        "token_infos": [
            {
                "address": "0xfb2f26f266fb2805a387230f2aa0a331b4d96fba",
                "decimals": 18
            },
            {
                "address": "0xeeeeeeeeeeeeeeeeeeeeeeeeeeeeeeeeeeeeeeee",
                "decimals": 18
            },
            {
                "address": "0xc02aaa39b223fe8d0a0e5c4f27ead9083c756cc2",
                "decimals": 18
            }
        ]
    },
    "address_label": {
        "labels": [
            {
                "address": "0xfb2f26f266fb2805a387230f2aa0a331b4d96fba",
                "label": "Edge Network Token"
            },
            {
                "address": "0x8900989032de7cb45861084c58e74a0ee6afa33c",
                "label": "GATE.IO"
            },
            {
                "address": "0x0000000000000000000000000000000000000001",
                "label": "Precompiled"
            },
            {
                "address": "0x0000000000000000000000000000000000000002",
                "label": "Precompiled"
            },
            {
                "address": "0x0000000000000000000000000000000000000003",
                "label": "Precompiled"
            },
            {
                "address": "0x0000000000000000000000000000000000000004",
                "label": "Precompiled"
            },
            {
                "address": "0xeeeeeeeeeeeeeeeeeeeeeeeeeeeeeeeeeeeeeeee",
                "label": "Ether"
            },
            {
                "address": "0x0d0707963952f2fba59dd06f2b425ace40b492fe",
                "label": "Gate.io"
            }
        ]
    },
    "trace": {
        "accountLabels": null,
        "dataMap": {
            "-1": {
                "invocation": {
                    "address": "0x8900989032de7cb45861084c58e74a0ee6afa33c",
                    "callData": "",
                    "decodedMethod": null,
                    "errorInfo": "",
                    "fromAddress": "",
                    "gasUsed": 0,
                    "id": -1,
                    "methodDecoded": false,
                    "operation": "",
                    "output": "",
                    "revert": false,
                    "revertMessage": "",
                    "selector": "",
                    "status": false,
                    "value": ""
                },
                "nodeType": 0
            },
            "0": {
                "invocation": {
                    "address": "0xfb2f26f266fb2805a387230f2aa0a331b4d96fba",
                    "callData": "0x0000000000000000000000000d0707963952f2fba59dd06f2b425ace40b492fe0000000000000000000000000000000000000000000000878678326eac91617f",
                    "decodedMethod": {
                        "callParams": [
                            {
                                "name": "_to",
                                "type": "address",
                                "value": "0x0d0707963952f2fba59dd06f2b425ace40b492fe"
                            },
                            {
                                "decimalAvailable": true,
                                "name": "_value",
                                "type": "uint256",
                                "value": "2,500,000,000,000,000,090,495"
                            }
                        ],
                        "constructorArguments": "",
                        "name": "transfer",
                        "returnParams": [
                            {
                                "name": "",
                                "type": "bool",
                                "value": true
                            }
                        ],
                        "signature": "transfer(address,uint256)"
                    },
                    "errorInfo": "",
                    "fromAddress": "0x8900989032de7cb45861084c58e74a0ee6afa33c",
                    "gasUsed": 22110,
                    "id": 0,
                    "methodDecoded": true,
                    "operation": "CALL",
                    "output": "0x0000000000000000000000000000000000000000000000000000000000000001",
                    "revert": false,
                    "revertMessage": "",
                    "selector": "0xa9059cbb",
                    "status": true,
                    "value": "0"
                },
                "nodeType": 0
            },
            "1": {
                "event": {
                    "contract": "0xfb2f26f266fb2805a387230f2aa0a331b4d96fba",
                    "decodedLog": {
                        "name": "Transfer",
                        "params": [
                            {
                                "name": "from",
                                "type": "address",
                                "value": "0x8900989032de7cb45861084c58e74a0ee6afa33c"
                            },
                            {
                                "name": "to",
                                "type": "address",
                                "value": "0x0d0707963952f2fba59dd06f2b425ace40b492fe"
                            },
                            {
                                "decimalAvailable": true,
                                "name": "value",
                                "type": "uint256",
                                "value": "2,500,000,000,000,000,090,495"
                            }
                        ],
                        "signature": "Transfer(address,address,uint256)"
                    },
                    "id": 1,
                    "logData": "0x0000000000000000000000000000000000000000000000878678326eac91617f",
                    "logDecoded": true,
                    "operation": "EVENT",
                    "revert": false,
                    "status": true,
                    "topics": [
                        "0xddf252ad1be2c89b69c2b068fc378daa952ba7f163c4a11628f55a4df523b3ef",
                        "0x0000000000000000000000008900989032de7cb45861084c58e74a0ee6afa33c",
                        "0x0000000000000000000000000d0707963952f2fba59dd06f2b425ace40b492fe"
                    ]
                },
                "nodeType": 1
            }
        },
        "gasFlame": [
            {
                "children": [
                    {
                        "children": [
                            {
                                "children": [],
                                "depth": 0,
                                "name": "Initial Gas",
                                "value": 21668
                            },
                            {
                                "children": [],
                                "depth": 0,
                                "name": "Executed Gas",
                                "value": 15442
                            }
                        ],
                        "depth": -1,
                        "name": "Actual Gas Used",
                        "value": 22110
                    },
                    {
                        "children": [],
                        "depth": -1,
                        "name": "Refunded Gas",
                        "value": 15000
                    }
                ],
                "depth": -2,
                "name": "Total Gas",
                "value": 37110
            }
        ],
        "isConfirmed": true,
        "mainTrace": [
            {
                "children": [
                    {
                        "children": [
                            {
                                "children": [],
                                "depth": 1,
                                "id": 1,
                                "order": 1
                            }
                        ],
                        "depth": 0,
                        "id": 0,
                        "order": 0
                    }
                ],
                "depth": -1,
                "id": -1,
                "order": -1
            }
        ],
        "mainTraceNodeCount": 2,
        "parentIdMap": {
            "0": -1,
            "1": 0
        },
        "tidyTrace": [
            {
                "children": [
                    {
                        "children": [
                            {
                                "children": [],
                                "depth": 1,
                                "id": 1,
                                "order": 1
                            }
                        ],
                        "depth": 0,
                        "id": 0,
                        "order": 0
                    }
                ],
                "depth": -1,
                "id": -1,
                "order": -1
            }
        ],
        "tidyTraceNodeCount": 2
    },
    "state_change": {
        "stateChanges": [
            {
                "address": "0xfb2f26f266fb2805a387230f2aa0a331b4d96fba",
                "erc": "ERC-20",
                "slots": [
                    {
                        "current": "0x0000000000000000000000000000000000000000000000000000000000000000",
                        "key": "0xa010cb792708f2faadbcf82b0b973eb32e092ad1f278287544e95721db62771a",
                        "prev": "0x0000000000000000000000000000000000000000000000878678326eac91617f"
                    },
                    {
                        "current": "0x0000000000000000000000000000000000000000000065ae5194e8002cf98947",
                        "key": "0x8f3fcd8a87d8a8259bebf9cb6e7e851eb52ed472d13c686b03ef031d54fecb85",
                        "prev": "0x000000000000000000000000000000000000000000006526cb1cb591806827c8"
                    }
                ],
                "storageVariables": [
                    {
                        "name": "balances",
                        "type": "mapping(address => uint256)",
                        "value": {
                            "pairs": [
                                {
                                    "key": "0x0d0707963952f2fba59dd06f2b425ace40b492fe",
                                    "value": {
                                        "current": "480174626817160706099527",
                                        "prev": "477674626817160706009032",
                                        "typeTag": 1
                                    }
                                },
                                {
                                    "key": "0x8900989032de7cb45861084c58e74a0ee6afa33c",
                                    "value": {
                                        "current": "0",
                                        "prev": "2500000000000000090495",
                                        "typeTag": 1
                                    }
                                }
                            ],
                            "typeTag": 4
                        }
                    }
                ]
            }
        ]
    }
}