{
    "balance_change": {
        "balanceChanges": [
            {
                "account": "0xcf37cf47839461cbcb26838b5f46935abce48016",
                "assets": [
                    {
                        "address": "0xb23d80f5fefcddaa212212f028021b41ded428cf",
                        "amount": "11",
                        "iconUrl": "",
                        "isERC1155": false,
                        "isERC721": false,
                        "sign": false,
                        "value": "17.820000000000001172"
                    },
                    {
                        "address": "0x0fc3dd8c37880a297166bed57759974a157f0e74",
                        "amount": "1",
                        "iconUrl": "https://assets.blocksec.com/nft/icon/nft_bed2b6f2-e641-49e6-973f-41723c5f58bb.png",
                        "isERC1155": false,
                        "isERC721": true,
                        "sign": true,
                        "tokenID": "1519",
                        "value": ""
                    }
                ]
            },
            {
                "account": "0x0000000000000000000000000000000000000000",
                "assets": [
                    {
                        "address": "0x0fc3dd8c37880a297166bed57759974a157f0e74",
                        "amount": "1",
                        "iconUrl": "https://assets.blocksec.com/nft/icon/nft_bed2b6f2-e641-49e6-973f-41723c5f58bb.png",
                        "isERC1155": false,
                        "isERC721": true,
                        "sign": false,
                        "tokenID": "1519",
                        "value": ""
                    }
                ]
            },
            {
                "account": "0xd27c9f7bf5ca9283d41e0a2f6e992525673623fd",
                "assets": [
                    {
                        "address": "0xb23d80f5fefcddaa212212f028021b41ded428cf",
                        "amount": "11",
                        "iconUrl": "",
                        "isERC1155": false,
                        "isERC721": false,
                        "sign": true,
                        "value": "17.820000000000001172"
                    }
                ]
            }
        ]
    },
    "profile": {
        "basic_info": {
            "baseFee": "25.810116911",
            "blockNumber": 17637340,
            "callData": "0xf104489f0000000000000000000000004877e6f5209984e52b60a84ae4494edfe3660fcc000000000000000000000000000000000000000000000000000000000000000000000000000000000000000000000000000000000000000098a7d9b8314c0000000000000000000000000000000000000000000000000000000000000000008000000000000000000000000000000000000000000000000000000000000000e00000000000000000000000000000000000000000000000000000000000000001000000000000000000000000000000000000000000000000000000000000000100000000000000000000000000000000000000000000000000000000000000600000000000000000000000000000000000000000000000000000000000000041baa105c2d8ea6a04a68048881e94e5a3f73383ef84bca74baf209ea183a8e93f1c0013d05b7643281745351d5050c9ae71d584453852c9b12546c53d83ce2ee81b00000000000000000000000000000000000000000000000000000000000000",
            "debugEnable": true,
            "errorInfo": "",
            "eventCount": 3,
            "feeRecipient": "0x95222290dd7278aa3ddd389cc1e1d165cc4bafe5",
            "formatValue": "0",
            "gasLimit": 169639,
            "gasPrice": "25.910116911",
            "gasUsed": 156306,
            "intTxnCount": 3,
            "internalRevert": false,
            "internalRevertMessage": "",
            "isContractCreation": false,
            "isFlashloan": false,
            "maxFee": "33.42826842",
            "nonce": 159,
            "overwritedBlockNumber": -1,
            "priorityFee": "0.1",
            "receiver": "0xb23d80f5fefcddaa212212f028021b41ded428cf",
            "revertMessage": "",
            "sender": "0xcf37cf47839461cbcb26838b5f46935abce48016",
            "simulationEnable": true,
            "sourceTxnHash": "0xa9748c8143161838625bf5d096885ae2a5c8c9ba7b486be7c4b4fb2d3f27df4c",
            "status": true,
            "timestamp": "2023-07-06T21:01:11Z",
            "transactionFee": "0.004049906733890766",
            "txnHash": "0xa9748c8143161838625bf5d096885ae2a5c8c9ba7b486be7c4b4fb2d3f27df4c",
            "txnIndex": 137,
            "type": 2,
            "value": "0"
        },
        "fund_flow": [
            {
                "amount": "11",
                "from": "0xcf37cf47839461cbcb26838b5f46935abce48016",
                "id": 1,
                "isERC1155": false,
                "isERC721": false,
                "isReverted": false,
                "order": 1,
                "to": "0xd27c9f7bf5ca9283d41e0a2f6e992525673623fd",
                "token": "0xb23d80f5fefcddaa212212f028021b41ded428cf"
            },
            {
                "amount": "1",
                "from": "0x0000000000000000000000000000000000000000",
                "id": 2,
                "isERC1155": false,
                "isERC721": true,
                "isReverted": false,
                "order": 2,
                "to": "0xcf37cf47839461cbcb26838b5f46935abce48016",
                "token": "0x0fc3dd8c37880a297166bed57759974a157f0e74",
                "tokenID": "1519"
            }
        ],
        "token_infos": [
            {
                "address": "0xb23d80f5fefcddaa212212f028021b41ded428cf",
                "decimals": 18
            },
            {
                "address": "0xc02aaa39b223fe8d0a0e5c4f27ead9083c756cc2",
                "decimals": 18
            },
            {
                "address": "0xeeeeeeeeeeeeeeeeeeeeeeeeeeeeeeeeeeeeeeee",
                "decimals": 18
            }
        ]
    },
    "address_label": {
        "labels": [
            {
                "address": "0x0fc3dd8c37880a297166bed57759974a157f0e74",
                "label": "Parallel Avatars: LLPPL Token"
            },
            {
                "address": "0x0000000000000000000000000000000000000001",
                "label": "Precompiled"
            },
            {
                "address": "0x0000000000000000000000000000000000000002",
                "label": "Precompiled"
            },
            {
                "address": "0x0000000000000000000000000000000000000003",
                "label": "Precompiled"
            },
            {
                "address": "0x0000000000000000000000000000000000000004",
                "label": "Precompiled"
            },
            {
                "address": "0xeeeeeeeeeeeeeeeeeeeeeeeeeeeeeeeeeeeeeeee",
                "label": "Ether"
            },
            {
                "address": "0xb23d80f5fefcddaa212212f028021b41ded428cf",
                "label": "Prime Foundation: PRIME Token"
            }
        ]
    },
    "trace": {
        "accountLabels": null,
        "dataMap": {
            "-1": {
                "invocation": {
                    "address": "0xcf37cf47839461cbcb26838b5f46935abce48016",
                    "callData": "",
                    "decodedMethod": null,
                    "errorInfo": "",
                    "fromAddress": "",
                    "gasUsed": 0,
                    "id": -1,
                    "methodDecoded": false,
                    "operation": "",
                    "output": "",
                    "revert": false,
                    "revertMessage": "",
                    "selector": "",
                    "status": false,
                    "value": ""
                },
                "nodeType": 0
            },
            "0": {
                "invocation": {
                    "address": "0xb23d80f5fefcddaa212212f028021b41ded428cf",
                    "callData": "0x0000000000000000000000004877e6f5209984e52b60a84ae4494edfe3660fcc000000000000000000000000000000000000000000000000000000000000000000000000000000000000000000000000000000000000000098a7d9b8314c0000000000000000000000000000000000000000000000000000000000000000008000000000000000000000000000000000000000000000000000000000000000e00000000000000000000000000000000000000000000000000000000000000001000000000000000000000000000000000000000000000000000000000000000100000000000000000000000000000000000000000000000000000000000000600000000000000000000000000000000000000000000000000000000000000041baa105c2d8ea6a04a68048881e94e5a3f73383ef84bca74baf209ea183a8e93f1c0013d05b7643281745351d5050c9ae71d584453852c9b12546c53d83ce2ee81b00000000000000000000000000000000000000000000000000000000000000",
                    "decodedMethod": {
                        "callParams": [
                            {
                                "name": "_handlerAddress",
                                "type": "address",
                                "value": "0x4877e6f5209984e52b60a84ae4494edfe3660fcc"
                            },
                            {
                                "name": "_id",
                                "type": "uint256",
                                "value": "0"
                            },
                            {
                                "name": "_primeValue",
                                "type": "uint256",
                                "value": "11,000,000,000,000,000,000"
                            },
                            {
                                "name": "_data",
                                "type": "bytes",
                                "value": "0x0000000000000000000000000000000000000000000000000000000000000001000000000000000000000000000000000000000000000000000000000000000100000000000000000000000000000000000000000000000000000000000000600000000000000000000000000000000000000000000000000000000000000041baa105c2d8ea6a04a68048881e94e5a3f73383ef84bca74baf209ea183a8e93f1c0013d05b7643281745351d5050c9ae71d584453852c9b12546c53d83ce2ee81b00000000000000000000000000000000000000000000000000000000000000"
                            }
                        ],
                        "constructorArguments": "",
                        "name": "invokeEchelon",
                        "returnParams": [],
                        "signature": "invokeEchelon(address,uint256,uint256,bytes)"
                    },
                    "errorInfo": "",
                    "fromAddress": "0xcf37cf47839461cbcb26838b5f46935abce48016",
                    "gasUsed": 156306,
                    "id": 0,
                    "methodDecoded": true,
                    "operation": "CALL",
                    "output": "",
                    "revert": false,
                    "revertMessage": "",
                    "selector": "0xf104489f",
                    "status": true,
                    "value": "0"
                },
                "nodeType": 0
            },
            "1": {
                "event": {
                    "contract": "0xb23d80f5fefcddaa212212f028021b41ded428cf",
                    "decodedLog": {
                        "name": "Transfer",
                        "params": [
                            {
                                "name": "from",
                                "type": "address",
                                "value": "0xcf37cf47839461cbcb26838b5f46935abce48016"
                            },
                            {
                                "name": "to",
                                "type": "address",
                                "value": "0xd27c9f7bf5ca9283d41e0a2f6e992525673623fd"
                            },
                            {
                                "decimalAvailable": true,
                                "name": "value",
                                "type": "uint256",
                                "value": "11,000,000,000,000,000,000"
                            }
                        ],
                        "signature": "Transfer(address,address,uint256)"
                    },
                    "id": 1,
                    "logData": "0x00000000000000000000000000000000000000000000000098a7d9b8314c0000",
                    "logDecoded": true,
                    "operation": "EVENT",
                    "revert": false,
                    "status": true,
                    "topics": [
                        "0xddf252ad1be2c89b69c2b068fc378daa952ba7f163c4a11628f55a4df523b3ef",
                        "0x000000000000000000000000cf37cf47839461cbcb26838b5f46935abce48016",
                        "0x000000000000000000000000d27c9f7bf5ca9283d41e0a2f6e992525673623fd"
                    ]
                },
                "nodeType": 1
            },
            "2": {
                "invocation": {
                    "address": "0x4877e6f5209984e52b60a84ae4494edfe3660fcc",
                    "callData": "0x000000000000000000000000cf37cf47839461cbcb26838b5f46935abce48016000000000000000000000000d27c9f7bf5ca9283d41e0a2f6e992525673623fd000000000000000000000000d27c9f7bf5ca9283d41e0a2f6e992525673623fd0000000000000000000000000000000000000000000000000000000000000000000000000000000000000000000000000000000000000000000000000000000000000000000000000000000000000000000000000000000098a7d9b8314c000000000000000000000000000000000000000000000000000000000000000000e000000000000000000000000000000000000000000000000000000000000000e00000000000000000000000000000000000000000000000000000000000000001000000000000000000000000000000000000000000000000000000000000000100000000000000000000000000000000000000000000000000000000000000600000000000000000000000000000000000000000000000000000000000000041baa105c2d8ea6a04a68048881e94e5a3f73383ef84bca74baf209ea183a8e93f1c0013d05b7643281745351d5050c9ae71d584453852c9b12546c53d83ce2ee81b00000000000000000000000000000000000000000000000000000000000000",
                    "decodedMethod": {
                        "callParams": [
                            {
                                "name": "_from",
                                "type": "address",
                                "value": "0xcf37cf47839461cbcb26838b5f46935abce48016"
                            },
                            {
                                "name": "",
                                "type": "address",
                                "value": "0xd27c9f7bf5ca9283d41e0a2f6e992525673623fd"
                            },
                            {
                                "name": "",
                                "type": "address",
                                "value": "0xd27c9f7bf5ca9283d41e0a2f6e992525673623fd"
                            },
                            {
                                "name": "",
                                "type": "uint256",
                                "value": "0"
                            },
                            {
                                "name": "",
                                "type": "uint256",
                                "value": "0"
                            },
                            {
                                "name": "_primeValue",
                                "type": "uint256",
                                "value": "11,000,000,000,000,000,000"
                            },
                            {
                                "name": "_data",
                                "type": "bytes",
                                "value": "0x0000000000000000000000000000000000000000000000000000000000000001000000000000000000000000000000000000000000000000000000000000000100000000000000000000000000000000000000000000000000000000000000600000000000000000000000000000000000000000000000000000000000000041baa105c2d8ea6a04a68048881e94e5a3f73383ef84bca74baf209ea183a8e93f1c0013d05b7643281745351d5050c9ae71d584453852c9b12546c53d83ce2ee81b00000000000000000000000000000000000000000000000000000000000000"
                            }
                        ],
                        "constructorArguments": "",
                        "name": "handleInvokeEchelon",
                        "returnParams": [],
                        "signature": "handleInvokeEchelon(address,address,address,uint256,uint256,uint256,bytes)"
                    },
                    "errorInfo": "",
                    "fromAddress": "0xb23d80f5fefcddaa212212f028021b41ded428cf",
                    "gasUsed": 111692,
                    "id": 2,
                    "methodDecoded": true,
                    "operation": "CALL",
                    "output": "",
                    "revert": false,
                    "revertMessage": "",
                    "selector": "0x4ceb6dfe",
                    "status": true,
                    "value": "0"
                },
                "nodeType": 0
            },
            "3": {
                "invocation": {
                    "address": "0x0000000000000000000000000000000000000001",
                    "callData": "0x54cc09965f32d61d755441f03d5cfdc2a7f587780c047b3995298eb3000000000000000000000000000000000000000000000000000000000000001bbaa105c2d8ea6a04a68048881e94e5a3f73383ef84bca74baf209ea183a8e93f1c0013d05b7643281745351d5050c9ae71d584453852c9b12546c53d83ce2ee8",
                    "decodedMethod": {
                        "callParams": [
                            {
                                "name": "hash",
                                "type": "bytes32",
                                "value": "0xb03bb2f254cc09965f32d61d755441f03d5cfdc2a7f587780c047b3995298eb3"
                            },
                            {
                                "name": "v",
                                "type": "uint256",
                                "value": "27"
                            },
                            {
                                "name": "r",
                                "type": "bytes32",
                                "value": "0xbaa105c2d8ea6a04a68048881e94e5a3f73383ef84bca74baf209ea183a8e93f"
                            },
                            {
                                "name": "s",
                                "type": "bytes32",
                                "value": "0x1c0013d05b7643281745351d5050c9ae71d584453852c9b12546c53d83ce2ee8"
                            }
                        ],
                        "constructorArguments": "",
                        "name": "ecrecover",
                        "returnParams": [
                            {
                                "name": "",
                                "type": "address",
                                "value": "0x71c15d6740a2743bfe52e50a89716bc74bc1d4dc"
                            }
                        ],
                        "signature": "ecrecover(bytes32,uint256,bytes32,bytes32)"
                    },
                    "errorInfo": "",
                    "fromAddress": "0x4877e6f5209984e52b60a84ae4494edfe3660fcc",
                    "gasUsed": 3000,
                    "id": 3,
                    "methodDecoded": true,
                    "operation": "STATICCALL",
                    "output": "0x00000000000000000000000071c15d6740a2743bfe52e50a89716bc74bc1d4dc",
                    "revert": false,
                    "revertMessage": "",
                    "selector": "0xb03bb2f2",
                    "status": true,
                    "value": "0"
                },
                "nodeType": 0
            },
            "4": {
                "invocation": {
                    "address": "0x0fc3dd8c37880a297166bed57759974a157f0e74",
                    "callData": "0x000000000000000000000000cf37cf47839461cbcb26838b5f46935abce480160000000000000000000000000000000000000000000000000000000000000001",
                    "decodedMethod": {
                        "callParams": [
                            {
                                "name": "minter",
                                "type": "address",
                                "value": "0xcf37cf47839461cbcb26838b5f46935abce48016"
                            },
                            {
                                "name": "quantity",
                                "type": "uint256",
                                "value": "1"
                            }
                        ],
                        "constructorArguments": "",
                        "name": "mintSeaDrop",
                        "returnParams": [],
                        "signature": "mintSeaDrop(address,uint256)"
                    },
                    "errorInfo": "",
                    "fromAddress": "0x4877e6f5209984e52b60a84ae4494edfe3660fcc",
                    "gasUsed": 61911,
                    "id": 4,
                    "methodDecoded": true,
                    "operation": "CALL",
                    "output": "",
                    "revert": false,
                    "revertMessage": "",
                    "selector": "0x64869dad",
                    "status": true,
                    "value": "0"
                },
                "nodeType": 0
            },
            "5": {
                "event": {
                    "contract": "0x0fc3dd8c37880a297166bed57759974a157f0e74",
                    "decodedLog": {
                        "name": "Transfer",
                        "params": [
                            {
                                "name": "from",
                                "type": "address",
                                "value": "0x0000000000000000000000000000000000000000"
                            },
                            {
                                "name": "to",
                                "type": "address",
                                "value": "0xcf37cf47839461cbcb26838b5f46935abce48016"
                            },
                            {
                                "decimalAvailable": true,
                                "name": "tokenId",
                                "type": "uint256",
                                "value": "1,519"
                            }
                        ],
                        "signature": "Transfer(address,address,uint256)"
                    },
                    "id": 5,
                    "logData": "0x",
                    "logDecoded": true,
                    "operation": "EVENT",
                    "revert": false,
                    "status": true,
                    "topics": [
                        "0xddf252ad1be2c89b69c2b068fc378daa952ba7f163c4a11628f55a4df523b3ef",
                        "0x0000000000000000000000000000000000000000000000000000000000000000",
                        "0x000000000000000000000000cf37cf47839461cbcb26838b5f46935abce48016",
                        "0x00000000000000000000000000000000000000000000000000000000000005ef"
                    ]
                },
                "nodeType": 1
            },
            "6": {
                "event": {
                    "contract": "0x4877e6f5209984e52b60a84ae4494edfe3660fcc",
                    "decodedLog": {
                        "name": "ManifestPayment",
                        "params": [
                            {
                                "name": "purchaser",
                                "type": "address",
                                "value": "0xcf37cf47839461cbcb26838b5f46935abce48016"
                            },
                            {
                                "name": "id",
                                "type": "uint256",
                                "value": "0"
                            },
                            {
                                "name": "amount",
                                "type": "uint256",
                                "value": "1"
                            }
                        ],
                        "signature": "ManifestPayment(address,uint256,uint256)"
                    },
                    "id": 6,
                    "logData": "0x0000000000000000000000000000000000000000000000000000000000000001",
                    "logDecoded": true,
                    "operation": "EVENT",
                    "revert": false,
                    "status": true,
                    "topics": [
                        "0xa79dc605abf756b112fac223c4d27dd261f166083cd23e02af6a6144481a1c00",
                        "0x000000000000000000000000cf37cf47839461cbcb26838b5f46935abce48016",
                        "0x0000000000000000000000000000000000000000000000000000000000000000"
                    ]
                },
                "nodeType": 1
            }
        },
        "gasFlame": [
            {
                "children": [
                    {
                        "children": [
                            {
                                "children": [],
                                "depth": 0,
                                "name": "Initial Gas",
                                "value": 23752
                            },
                            {
                                "children": [
                                    {
                                        "children": [
                                            {
                                                "children": [],
                                                "depth": 2,
                                                "name": "ecrecover",
                                                "value": 3000
                                            },
                                            {
                                                "children": [],
                                                "depth": 2,
                                                "name": "mintSeaDrop",
                                                "value": 61911
                                            }
                                        ],
                                        "depth": 1,
                                        "name": "handleInvokeEchelon",
                                        "value": 111692
                                    }
                                ],
                                "depth": 0,
                                "name": "Executed Gas",
                                "value": 142954
                            }
                        ],
                        "depth": -1,
                        "name": "Actual Gas Used",
                        "value": 156306
                    },
                    {
                        "children": [],
                        "depth": -1,
                        "name": "Refunded Gas",
                        "value": 10400
                    }
                ],
                "depth": -2,
                "name": "Total Gas",
                "value": 166706
            }
        ],
        "isConfirmed": true,
        "mainTrace": [
            {
                "children": [
                    {
                        "children": [
                            {
                                "children": [],
                                "depth": 1,
                                "id": 1,
                                "order": 1
                            },
                            {
                                "children": [
                                    {
                                        "children": [],
                                        "depth": 2,
                                        "id": 3,
                                        "order": 3
                                    },
                                    {
                                        "children": [
                                            {
                                                "children": [],
                                                "depth": 3,
                                                "id": 5,
                                                "order": 5
                                            }
                                        ],
                                        "depth": 2,
                                        "id": 4,
                                        "order": 4
                                    },
                                    {
                                        "children": [],
                                        "depth": 2,
                                        "id": 6,
                                        "order": 6
                                    }
                                ],
                                "depth": 1,
                                "id": 2,
                                "order": 2
                            }
                        ],
                        "depth": 0,
                        "id": 0,
                        "order": 0
                    }
                ],
                "depth": -1,
                "id": -1,
                "order": -1
            }
        ],
        "mainTraceNodeCount": 7,
        "parentIdMap": {
            "0": -1,
            "1": 0,
            "2": 0,
            "3": 2,
            "4": 2,
            "5": 4,
            "6": 2
        },
        "tidyTrace": [
            {
                "children": [
                    {
                        "children": [
                            {
                                "children": [],
                                "depth": 1,
                                "id": 1,
                                "order": 1
                            },
                            {
                                "children": [
                                    {
                                        "children": [
                                            {
                                                "children": [],
                                                "depth": 3,
                                                "id": 5,
                                                "order": 5
                                            }
                                        ],
                                        "depth": 2,
                                        "id": 4,
                                        "order": 4
                                    },
                                    {
                                        "children": [],
                                        "depth": 2,
                                        "id": 6,
                                        "order": 6
                                    }
                                ],
                                "depth": 1,
                                "id": 2,
                                "order": 2
                            }
                        ],
                        "depth": 0,
                        "id": 0,
                        "order": 0
                    }
                ],
                "depth": -1,
                "id": -1,
                "order": -1
            }
        ],
        "tidyTraceNodeCount": 6
    },
    "state_change": {
        "stateChanges": [
            {
                "address": "0x0fc3dd8c37880a297166bed57759974a157f0e74",
                "erc": "ERC-721",
                "slots": [
                    {
                        "current": "0x0000000000000000000000000000000000000000000000010000000000000001",
                        "key": "0x6bd5794938810807e3a99e87123549187107ba90941414e9e580619013dbc544",
                        "prev": "0x0000000000000000000000000000000000000000000000000000000000000000"
                    },
                    {
                        "current": "0x000000020000000064a72b97cf37cf47839461cbcb26838b5f46935abce48016",
                        "key": "0x1d184cfa0f49ee89797e82eff534d434dd4948ab3349c3cda27f56804c7a4fab",
                        "prev": "0x0000000000000000000000000000000000000000000000000000000000000000"
                    },
                    {
                        "current": "0x00000000000000000000000000000000000000000000000000000000000005f0",
                        "key": "0x0000000000000000000000000000000000000000000000000000000000000000",
                        "prev": "0x00000000000000000000000000000000000000000000000000000000000005ef"
                    }
                ],
                "storageVariables": [
                    {
                        "name": "_packedAddressData",
                        "type": "mapping(address => uint256)",
                        "value": {
                            "pairs": [
                                {
                                    "key": "0xcf37cf47839461cbcb26838b5f46935abce48016",
                                    "value": {
                                        "current": "18446744073709551617",
                                        "prev": "0",
                                        "typeTag": 1
                                    }
                                }
                            ],
                            "typeTag": 4
                        }
                    },
                    {
                        "name": "_packedOwnerships",
                        "type": "mapping(uint256 => uint256)",
                        "value": {
                            "pairs": [
                                {
                                    "key": "1519",
                                    "value": {
                                        "current": "53919893336769284187007016725041985275199252872056299589019434778646",
                                        "prev": "0",
                                        "typeTag": 1
                                    }
                                }
                            ],
                            "typeTag": 4
                        }
                    },
                    {
                        "name": "_currentIndex",
                        "type": "uint256",
                        "value": {
                            "current": "1520",
                            "prev": "1519",
                            "typeTag": 1
                        }
                    }
                ]
            },
            {
                "address": "0x4877e6f5209984e52b60a84ae4494edfe3660fcc",
                "erc": "",
                "slots": [
                    {
                        "current": "0x0000000000000000000000000000000000000000000000000000000000000001",
                        "key": "0x08399b9fe934054e1eb0edd6cdeba1a5604bca3584f554272beb24b572035746",
                        "prev": "0x0000000000000000000000000000000000000000000000000000000000000000"
                    },
                    {
                        "current": "0x00000000000000000000000000000000000000000000000000000000000005ef",
                        "key": "0x0000000000000000000000000000000000000000000000000000000000000006",
                        "prev": "0x00000000000000000000000000000000000000000000000000000000000005ee"
                    }
                ],
                "storageVariables": []
            },
            {
                "address": "0xb23d80f5fefcddaa212212f028021b41ded428cf",
                "erc": "ERC-20",
                "slots": [
                    {
                        "current": "0x00000000000000000000000000000000000000000000006beeacef3adabc0000",
                        "key": "0xf83513b80ecde45ee4f86320c77b9f6f40e5c9b0d72b32ea98f0979a0ae4ab75",
                        "prev": "0x00000000000000000000000000000000000000000000006b56051582a9700000"
                    },
                    {
                        "current": "0x0000000000000000000000000000000000000000000000000000000000000000",
                        "key": "0x9646cdf8cd4e8fa794504315d399223b0fa6bdda769612c96ea1945d424d2017",
                        "prev": "0x00000000000000000000000000000000000000000000000098a7d9b8314c0000"
                    }
                ],
                "storageVariables": [
                    {
                        "name": "_balances",
                        "type": "mapping(address => uint256)",
                        "value": {
                            "pairs": [
                                {
                                    "key": "0xcf37cf47839461cbcb26838b5f46935abce48016",
                                    "value": {
                                        "current": "0",
                                        "prev": "11000000000000000000",
                                        "typeTag": 1
                                    }
                                },
                                {
                                    "key": "0xd27c9f7bf5ca9283d41e0a2f6e992525673623fd",
                                    "value": {
                                        "current": "1991000000000000000000",
                                        "prev": "1980000000000000000000",
                                        "typeTag": 1
                                    }
                                }
                            ],
                            "typeTag": 4
                        }
                    }
                ]
            }
        ]
    }
}