{
    "balance_change": {
        "balanceChanges": [
            {
                "account": "0x1bce95423b697c50ea18d68530d3e602e984fed8",
                "assets": [
                    {
                        "address": "0xf1290473e210b2108a85237fbcd7b6eb42cc654f",
                        "amount": "18.62",
                        "iconUrl": "",
                        "isERC1155": false,
                        "isERC721": false,
                        "sign": false,
                        "value": ""
                    }
                ]
            },
            {
                "account": "0x300dfcff2e39f03569b53bec61435236cf48539b",
                "assets": [
                    {
                        "address": "0xf1290473e210b2108a85237fbcd7b6eb42cc654f",
                        "amount": "18.62",
                        "iconUrl": "",
                        "isERC1155": false,
                        "isERC721": false,
                        "sign": true,
                        "value": ""
                    }
                ]
            }
        ]
    },
    "profile": {
        "basic_info": {
            "baseFee": "",
            "blockNumber": 9304862,
            "callData": "0xa9059cbb000000000000000000000000300dfcff2e39f03569b53bec61435236cf48539b00000000000000000000000000000000000000000000000102678758d5c60000",
            "debugEnable": true,
            "errorInfo": "",
            "eventCount": 1,
            "feeRecipient": "0x829bd824b016326a401d083b33d092293333a830",
            "formatValue": "0",
            "gasLimit": 321000,
            "gasPrice": "12",
            "gasUsed": 37031,
            "intTxnCount": 0,
            "internalRevert": false,
            "internalRevertMessage": "",
            "isContractCreation": false,
            "isFlashloan": false,
            "maxFee": "",
            "nonce": 985,
            "overwritedBlockNumber": -1,
            "priorityFee": "",
            "receiver": "0xf1290473e210b2108a85237fbcd7b6eb42cc654f",
            "revertMessage": "",
            "sender": "0x1bce95423b697c50ea18d68530d3e602e984fed8",
            "simulationEnable": true,
            "sourceTxnHash": "0xaa7f5b92f9f7eafa6e36474e3be0f9c1b06b31ae04b5599115d559eae8b8f393",
            "status": true,
            "timestamp": "2020-01-18T11:07:17Z",
            "transactionFee": "0.000444372",
            "txnHash": "0xaa7f5b92f9f7eafa6e36474e3be0f9c1b06b31ae04b5599115d559eae8b8f393",
            "txnIndex": 27,
            "type": 0,
            "value": "0"
        },
        "fund_flow": [
            {
                "amount": "18.62",
                "from": "0x1bce95423b697c50ea18d68530d3e602e984fed8",
                "id": 1,
                "isERC1155": false,
                "isERC721": false,
                "isReverted": false,
                "order": 1,
                "to": "0x300dfcff2e39f03569b53bec61435236cf48539b",
                "token": "0xf1290473e210b2108a85237fbcd7b6eb42cc654f"
            }
        ],
        "token_infos": [
            {
                "address": "0xf1290473e210b2108a85237fbcd7b6eb42cc654f",
                "decimals": 18
            },
            {
                "address": "0xeeeeeeeeeeeeeeeeeeeeeeeeeeeeeeeeeeeeeeee",
                "decimals": 18
            },
            {
                "address": "0xc02aaa39b223fe8d0a0e5c4f27ead9083c756cc2",
                "decimals": 18
            }
        ]
    },
    "address_label": {
        "labels": [
            {
                "address": "0xf1290473e210b2108a85237fbcd7b6eb42cc654f",
                "label": "HedgeTrade Token"
            },
            {
                "address": "0x0000000000000000000000000000000000000001",
                "label": "Precompiled"
            },
            {
                "address": "0x0000000000000000000000000000000000000002",
                "label": "Precompiled"
            },
            {
                "address": "0x0000000000000000000000000000000000000003",
                "label": "Precompiled"
            },
            {
                "address": "0x0000000000000000000000000000000000000004",
                "label": "Precompiled"
            },
            {
                "address": "0xeeeeeeeeeeeeeeeeeeeeeeeeeeeeeeeeeeeeeeee",
                "label": "Ether"
            }
        ]
    },
    "trace": {
        "accountLabels": null,
        "dataMap": {
            "-1": {
                "invocation": {
                    "address": "0x1bce95423b697c50ea18d68530d3e602e984fed8",
                    "callData": "",
                    "decodedMethod": null,
                    "errorInfo": "",
                    "fromAddress": "",
                    "gasUsed": 0,
                    "id": -1,
                    "methodDecoded": false,
                    "operation": "",
                    "output": "",
                    "revert": false,
                    "revertMessage": "",
                    "selector": "",
                    "status": false,
                    "value": ""
                },
                "nodeType": 0
            },
            "0": {
                "invocation": {
                    "address": "0xf1290473e210b2108a85237fbcd7b6eb42cc654f",
                    "callData": "0x000000000000000000000000300dfcff2e39f03569b53bec61435236cf48539b00000000000000000000000000000000000000000000000102678758d5c60000",
                    "decodedMethod": {
                        "callParams": [
                            {
                                "name": "dst",
                                "type": "address",
                                "value": "0x300dfcff2e39f03569b53bec61435236cf48539b"
                            },
                            {
                                "decimalAvailable": true,
                                "name": "wad",
                                "type": "uint256",
                                "value": "18,620,000,000,000,000,000"
                            }
                        ],
                        "constructorArguments": "",
                        "name": "transfer",
                        "returnParams": [
                            {
                                "name": "",
                                "type": "bool",
                                "value": true
                            }
                        ],
                        "signature": "transfer(address,uint256)"
                    },
                    "errorInfo": "",
                    "fromAddress": "0x1bce95423b697c50ea18d68530d3e602e984fed8",
                    "gasUsed": 37031,
                    "id": 0,
                    "methodDecoded": true,
                    "operation": "CALL",
                    "output": "0x0000000000000000000000000000000000000000000000000000000000000001",
                    "revert": false,
                    "revertMessage": "",
                    "selector": "0xa9059cbb",
                    "status": true,
                    "value": "0"
                },
                "nodeType": 0
            },
            "1": {
                "event": {
                    "contract": "0xf1290473e210b2108a85237fbcd7b6eb42cc654f",
                    "decodedLog": {
                        "name": "Transfer",
                        "params": [
                            {
                                "name": "src",
                                "type": "address",
                                "value": "0x1bce95423b697c50ea18d68530d3e602e984fed8"
                            },
                            {
                                "name": "dst",
                                "type": "address",
                                "value": "0x300dfcff2e39f03569b53bec61435236cf48539b"
                            },
                            {
                                "decimalAvailable": true,
                                "name": "wad",
                                "type": "uint256",
                                "value": "18,620,000,000,000,000,000"
                            }
                        ],
                        "signature": "Transfer(address,address,uint256)"
                    },
                    "id": 1,
                    "logData": "0x00000000000000000000000000000000000000000000000102678758d5c60000",
                    "logDecoded": true,
                    "operation": "EVENT",
                    "revert": false,
                    "status": true,
                    "topics": [
                        "0xddf252ad1be2c89b69c2b068fc378daa952ba7f163c4a11628f55a4df523b3ef",
                        "0x0000000000000000000000001bce95423b697c50ea18d68530d3e602e984fed8",
                        "0x000000000000000000000000300dfcff2e39f03569b53bec61435236cf48539b"
                    ]
                },
                "nodeType": 1
            }
        },
        "gasFlame": [
            {
                "children": [
                    {
                        "children": [
                            {
                                "children": [],
                                "depth": 0,
                                "name": "Initial Gas",
                                "value": 21644
                            },
                            {
                                "children": [],
                                "depth": 0,
                                "name": "Executed Gas",
                                "value": 15387
                            }
                        ],
                        "depth": -1,
                        "name": "Actual Gas Used",
                        "value": 37031
                    },
                    {
                        "children": [],
                        "depth": -1,
                        "name": "Refunded Gas",
                        "value": 0
                    }
                ],
                "depth": -2,
                "name": "Total Gas",
                "value": 37031
            }
        ],
        "isConfirmed": true,
        "mainTrace": [
            {
                "children": [
                    {
                        "children": [
                            {
                                "children": [],
                                "depth": 1,
                                "id": 1,
                                "order": 1
                            }
                        ],
                        "depth": 0,
                        "id": 0,
                        "order": 0
                    }
                ],
                "depth": -1,
                "id": -1,
                "order": -1
            }
        ],
        "mainTraceNodeCount": 2,
        "parentIdMap": {
            "0": -1,
            "1": 0
        },
        "tidyTrace": [
            {
                "children": [
                    {
                        "children": [
                            {
                                "children": [],
                                "depth": 1,
                                "id": 1,
                                "order": 1
                            }
                        ],
                        "depth": 0,
                        "id": 0,
                        "order": 0
                    }
                ],
                "depth": -1,
                "id": -1,
                "order": -1
            }
        ],
        "tidyTraceNodeCount": 2
    },
    "state_change": {
        "stateChanges": [
            {
                "address": "0xf1290473e210b2108a85237fbcd7b6eb42cc654f",
                "erc": "ERC-20",
                "slots": [
                    {
                        "current": "0x00000000000000000000000000000000000000000000006ccd1f61cdfb78bc00",
                        "key": "0x7250ab6edc5f8788f9ab4543691abd787ce84bbd47079fd9ea4c0ce8cd6fd6e4",
                        "prev": "0x00000000000000000000000000000000000000000000006dcf86e926d13ebc00"
                    },
                    {
                        "current": "0x00000000000000000000000000000000000000000000003a1f6ac9df96717800",
                        "key": "0xf6a68726463c5333c6ff62eb4423346c0ceba01c75004c0f37cddb59f3fa033e",
                        "prev": "0x0000000000000000000000000000000000000000000000391d034286c0ab7800"
                    }
                ],
                "storageVariables": [
                    {
                        "name": "_balances",
                        "type": "mapping(address => uint256)",
                        "value": {
                            "pairs": [
                                {
                                    "key": "0x1bce95423b697c50ea18d68530d3e602e984fed8",
                                    "value": {
                                        "current": "2007029000000000015360",
                                        "prev": "2025649000000000015360",
                                        "typeTag": 1
                                    }
                                },
                                {
                                    "key": "0x300dfcff2e39f03569b53bec61435236cf48539b",
                                    "value": {
                                        "current": "1072174999999999997952",
                                        "prev": "1053554999999999997952",
                                        "typeTag": 1
                                    }
                                }
                            ],
                            "typeTag": 4
                        }
                    }
                ]
            }
        ]
    }
}